{
  "abi": [
    {
      "inputs": [],
      "name": "ETH",
      "outputs": [
        {
          "internalType": "address",
          "name": "",
          "type": "address"
        }
      ],
      "stateMutability": "view",
      "type": "function"
    }
  ],
  "bytecode": {
    "object": "0x608080604052346018576076908161001e823930815050f35b600080fdfe6080806040526004361015601257600080fd5b60003560e01c638322fff214602657600080fd5b6000366003190112603b578061eeee60209252f35b600080fdfea26469706673582212203c4971f41346d222e06193d98dde00cb2ab1b6e9b54e203f3a58a798c7dd1c6364736f6c63430008100033",
    "linkReferences": {}
  },
  "methodIdentifiers": {
    "ETH()": "8322fff2"
  },
  "id": 99
}