{"abi":[{"type":"function","name":"ETH","inputs":[],"outputs":[{"name":"","type":"address","internalType":"address"}],"stateMutability":"view"}],"bytecode":{"object":"0x6092610038600b82828239805160001a607314602b57634e487b7160e01b600052600060045260246000fd5b30600052607381538281f3fe730000000000000000000000000000000000000000301460806040526004361060335760003560e01c80638322fff2146038575b600080fd5b604061eeee81565b6040516001600160a01b03909116815260200160405180910390f3fea264697066735822122025973158811f87c63409db227ed39985849daaf3d5ea24bba9ecba942578f99064736f6c63430008170033","linkReferences":{}},"methodIdentifiers":{"ETH()":"8322fff2"},"id":127}