{
  "abi": [
    {
      "inputs": [
        {
          "internalType": "contract IJBOperatorStore",
          "name": "_operatorStore",
          "type": "address"
        },
        {
          "internalType": "contract IJBProjects",
          "name": "_projects",
          "type": "address"
        },
        {
          "internalType": "contract IJBDirectory",
          "name": "_directory",
          "type": "address"
        }
      ],
      "stateMutability": "nonpayable",
      "type": "constructor"
    },
    {
      "inputs": [],
      "name": "INVALID_LOCKED_UNTIL",
      "type": "error"
    },
    {
      "inputs": [],
      "name": "INVALID_PROJECT_ID",
      "type": "error"
    },
    {
      "inputs": [],
      "name": "INVALID_SPLIT_PERCENT",
      "type": "error"
    },
    {
      "inputs": [],
      "name": "INVALID_TOTAL_PERCENT",
      "type": "error"
    },
    {
      "inputs": [],
      "name": "PREVIOUS_LOCKED_SPLITS_NOT_INCLUDED",
      "type": "error"
    },
    {
      "inputs": [],
      "name": "UNAUTHORIZED",
      "type": "error"
    },
    {
      "anonymous": false,
      "inputs": [
        {
          "indexed": true,
          "internalType": "uint256",
          "name": "projectId",
          "type": "uint256"
        },
        {
          "indexed": true,
          "internalType": "uint256",
          "name": "domain",
          "type": "uint256"
        },
        {
          "indexed": true,
          "internalType": "uint256",
          "name": "group",
          "type": "uint256"
        },
        {
          "components": [
            {
              "internalType": "bool",
              "name": "preferClaimed",
              "type": "bool"
            },
            {
              "internalType": "bool",
              "name": "preferAddToBalance",
              "type": "bool"
            },
            {
              "internalType": "uint256",
              "name": "percent",
              "type": "uint256"
            },
            {
              "internalType": "uint256",
              "name": "projectId",
              "type": "uint256"
            },
            {
              "internalType": "address payable",
              "name": "beneficiary",
              "type": "address"
            },
            {
              "internalType": "uint256",
              "name": "lockedUntil",
              "type": "uint256"
            },
            {
              "internalType": "contract IJBSplitAllocator",
              "name": "allocator",
              "type": "address"
            }
          ],
          "indexed": false,
          "internalType": "struct JBSplit",
          "name": "split",
          "type": "tuple"
        },
        {
          "indexed": false,
          "internalType": "address",
          "name": "caller",
          "type": "address"
        }
      ],
      "name": "SetSplit",
      "type": "event"
    },
    {
      "inputs": [],
      "name": "directory",
      "outputs": [
        {
          "internalType": "contract IJBDirectory",
          "name": "",
          "type": "address"
        }
      ],
      "stateMutability": "view",
      "type": "function"
    },
    {
      "inputs": [],
      "name": "operatorStore",
      "outputs": [
        {
          "internalType": "contract IJBOperatorStore",
          "name": "",
          "type": "address"
        }
      ],
      "stateMutability": "view",
      "type": "function"
    },
    {
      "inputs": [],
      "name": "projects",
      "outputs": [
        {
          "internalType": "contract IJBProjects",
          "name": "",
          "type": "address"
        }
      ],
      "stateMutability": "view",
      "type": "function"
    },
    {
      "inputs": [
        {
          "internalType": "uint256",
          "name": "_projectId",
          "type": "uint256"
        },
        {
          "internalType": "uint256",
          "name": "_domain",
          "type": "uint256"
        },
        {
          "components": [
            {
              "internalType": "uint256",
              "name": "group",
              "type": "uint256"
            },
            {
              "components": [
                {
                  "internalType": "bool",
                  "name": "preferClaimed",
                  "type": "bool"
                },
                {
                  "internalType": "bool",
                  "name": "preferAddToBalance",
                  "type": "bool"
                },
                {
                  "internalType": "uint256",
                  "name": "percent",
                  "type": "uint256"
                },
                {
                  "internalType": "uint256",
                  "name": "projectId",
                  "type": "uint256"
                },
                {
                  "internalType": "address payable",
                  "name": "beneficiary",
                  "type": "address"
                },
                {
                  "internalType": "uint256",
                  "name": "lockedUntil",
                  "type": "uint256"
                },
                {
                  "internalType": "contract IJBSplitAllocator",
                  "name": "allocator",
                  "type": "address"
                }
              ],
              "internalType": "struct JBSplit[]",
              "name": "splits",
              "type": "tuple[]"
            }
          ],
          "internalType": "struct JBGroupedSplits[]",
          "name": "_groupedSplits",
          "type": "tuple[]"
        }
      ],
      "name": "set",
      "outputs": [],
      "stateMutability": "nonpayable",
      "type": "function"
    },
    {
      "inputs": [
        {
          "internalType": "uint256",
          "name": "_projectId",
          "type": "uint256"
        },
        {
          "internalType": "uint256",
          "name": "_domain",
          "type": "uint256"
        },
        {
          "internalType": "uint256",
          "name": "_group",
          "type": "uint256"
        }
      ],
      "name": "splitsOf",
      "outputs": [
        {
          "components": [
            {
              "internalType": "bool",
              "name": "preferClaimed",
              "type": "bool"
            },
            {
              "internalType": "bool",
              "name": "preferAddToBalance",
              "type": "bool"
            },
            {
              "internalType": "uint256",
              "name": "percent",
              "type": "uint256"
            },
            {
              "internalType": "uint256",
              "name": "projectId",
              "type": "uint256"
            },
            {
              "internalType": "address payable",
              "name": "beneficiary",
              "type": "address"
            },
            {
              "internalType": "uint256",
              "name": "lockedUntil",
              "type": "uint256"
            },
            {
              "internalType": "contract IJBSplitAllocator",
              "name": "allocator",
              "type": "address"
            }
          ],
          "internalType": "struct JBSplit[]",
          "name": "",
          "type": "tuple[]"
        }
      ],
      "stateMutability": "view",
      "type": "function"
    }
  ],
  "bytecode": {
    "object": "0x60e060405234801561001057600080fd5b5060405161115c38038061115c83398101604081905261002f91610064565b6001600160a01b0392831660805290821660a0521660c0526100b1565b6001600160a01b038116811461006157600080fd5b50565b60008060006060848603121561007957600080fd5b83516100848161004c565b60208501519093506100958161004c565b60408501519092506100a68161004c565b809150509250925092565b60805160a05160c0516110636100f96000396000818160f001526101ea015260008181608a015261015201526000818160c9015281816104db015261058201526110636000f3fe608060405234801561001057600080fd5b50600436106100575760003560e01c806369e11cc51461005c5780638b79543c14610085578063ad007d63146100c4578063c41c2f24146100eb578063f2da44b614610112575b600080fd5b61006f61006a366004610c30565b610127565b60405161007c9190610cb0565b60405180910390f35b6100ac7f000000000000000000000000000000000000000000000000000000000000000081565b6040516001600160a01b03909116815260200161007c565b6100ac7f000000000000000000000000000000000000000000000000000000000000000081565b6100ac7f000000000000000000000000000000000000000000000000000000000000000081565b610125610120366004610cfe565b61013c565b005b60606101348484846102d1565b949350505050565b6040516331a9108f60e11b8152600481018590527f00000000000000000000000000000000000000000000000000000000000000006001600160a01b031690636352211e90602401602060405180830381865afa1580156101a1573d6000803e3d6000fd5b505050506040513d601f19601f820116820180604052508101906101c59190610d99565b604051632eec7b5560e11b815260048101869052859060129033906001600160a01b037f00000000000000000000000000000000000000000000000000000000000000001690635dd8f6aa90602401602060405180830381865afa158015610231573d6000803e3d6000fd5b505050506040513d601f19601f820116820180604052508101906102559190610d99565b6001600160a01b03161461026b8484848461048a565b8460005b818110156102c557600088888381811061028b5761028b610dbd565b905060200281019061029d9190610dd3565b6102a690610e94565b90506102bc8b8b83600001518460200151610613565b5060010161026f565b50505050505050505050565b60008381526020818152604080832085845282528083208484529091528120546060918167ffffffffffffffff81111561030d5761030d610df3565b60405190808252806020026020018201604052801561037457816020015b6040805160e08101825260008082526020808301829052928201819052606082018190526080820181905260a0820181905260c0820152825260001990920191018161032b5790505b50905060005b828110156104805760008781526001602081815260408084208a855282528084208985528252808420858552825280842054815160e08101835260a0810186905260c081018690528185168514815281851c851690941484840152600281811c63ffffffff1685840152602282901c66ffffffffffffff166060860152605a82901c6001600160a01b031660808601528c865283528185208b865283528185208a865283528185208686529092529092205480156104545765ffffffffffff811660a08301526001600160a01b03603082901c1660c08301525b8185858151811061046757610467610dbd565b602002602001018190525083600101935050505061037a565b5095945050505050565b801580156104a15750336001600160a01b03851614155b8015610548575060405163c161c93f60e01b81523360048201526001600160a01b03858116602483015260448201859052606482018490527f0000000000000000000000000000000000000000000000000000000000000000169063c161c93f90608401602060405180830381865afa158015610522573d6000803e3d6000fd5b505050506040513d601f19601f820116820180604052508101906105469190610fc8565b155b80156105ef575060405163c161c93f60e01b81523360048201526001600160a01b03858116602483015260006044830152606482018490527f0000000000000000000000000000000000000000000000000000000000000000169063c161c93f90608401602060405180830381865afa1580156105c9573d6000803e3d6000fd5b505050506040513d601f19601f820116820180604052508101906105ed9190610fc8565b155b1561060d5760405163075fd2b160e01b815260040160405180910390fd5b50505050565b60006106208585856102d1565b805190915060005b818110156106a25782818151811061064257610642610dbd565b602002602001015160a001514210801561067c575061067a8484838151811061066d5761066d610dbd565b6020026020010151610aa3565b155b1561069a57604051631974459560e01b815260040160405180910390fd5b600101610628565b508251600090815b81811015610a75578581815181106106c4576106c4610dbd565b6020026020010151604001516000036106f05760405163e119ba4560e01b815260040160405180910390fd5b66ffffffffffffff801686828151811061070c5761070c610dbd565b602002602001015160600151111561073757604051631da26cc960e11b815260040160405180910390fd5b85818151811061074957610749610dbd565b602002602001015160400151836107609190610fe5565b9250633b9aca0083111561078757604051630eca736160e41b815260040160405180910390fd5b600086828151811061079b5761079b610dbd565b602002602001015160000151156107b0575060015b8682815181106107c2576107c2610dbd565b602002602001015160200151156107d7576002175b60028783815181106107eb576107eb610dbd565b602002602001015160400151901b81179050602287838151811061081157610811610dbd565b602002602001015160600151901b81179050605a87838151811061083757610837610dbd565b6020908102919091018101516080015160008d81526001835260408082208e835284528082208d835284528082208783529093529182206001600160a01b0390911690921b9290921790819055875190919088908490811061089b5761089b610dbd565b602002602001015160a0015111806108e3575060006001600160a01b03168783815181106108cb576108cb610dbd565b602002602001015160c001516001600160a01b031614155b156109bd5765ffffffffffff801687838151811061090357610903610dbd565b602002602001015160a00151111561092e5760405163d509b54d60e01b815260040160405180910390fd5b600087838151811061094257610942610dbd565b602002602001015160a0015165ffffffffffff169050603088848151811061096c5761096c610dbd565b60209081029190910181015160c0015160008e81526002835260408082208f835284528082208e83528452808220888352909352919091206001600160a01b0390911690911b919091179055610a17565b60008a81526002602090815260408083208c845282528083208b8452825280832085845290915290205415610a175760008a81526002602090815260408083208c845282528083208b845282528083208584529091528120555b87898b7f1d65eeba667d8160993d485b4782f11eef3bc64186c6521f2a0801f816e752e78a8681518110610a4d57610a4d610dbd565b602002602001015133604051610a64929190611006565b60405180910390a4506001016106aa565b50600097885260208881526040808a20988a5297815287892096895295909552505050919092209190915550565b8151600090815b81811015610c23578360400151858281518110610ac957610ac9610dbd565b602002602001015160400151148015610b14575083608001516001600160a01b0316858281518110610afd57610afd610dbd565b6020026020010151608001516001600160a01b0316145b8015610b5257508360c001516001600160a01b0316858281518110610b3b57610b3b610dbd565b602002602001015160c001516001600160a01b0316145b8015610b7e57508360600151858281518110610b7057610b70610dbd565b602002602001015160600151145b8015610bae575083600001511515858281518110610b9e57610b9e610dbd565b6020026020010151600001511515145b8015610bde575083602001511515858281518110610bce57610bce610dbd565b6020026020010151602001511515145b8015610c0b57508360a00151858281518110610bfc57610bfc610dbd565b602002602001015160a0015110155b15610c1b57600192505050610c2a565b600101610aaa565b5060009150505b92915050565b600080600060608486031215610c4557600080fd5b505081359360208301359350604090920135919050565b80511515825260208082015115159083015260408082015190830152606080820151908301526080808201516001600160a01b039081169184019190915260a0808301519084015260c09182015116910152565b6020808252825182820181905260009190848201906040850190845b81811015610cf257610cdf838551610c5c565b9284019260e09290920191600101610ccc565b50909695505050505050565b60008060008060608587031215610d1457600080fd5b8435935060208501359250604085013567ffffffffffffffff80821115610d3a57600080fd5b818701915087601f830112610d4e57600080fd5b813581811115610d5d57600080fd5b8860208260051b8501011115610d7257600080fd5b95989497505060200194505050565b6001600160a01b0381168114610d9657600080fd5b50565b600060208284031215610dab57600080fd5b8151610db681610d81565b9392505050565b634e487b7160e01b600052603260045260246000fd5b60008235603e19833603018112610de957600080fd5b9190910192915050565b634e487b7160e01b600052604160045260246000fd5b6040805190810167ffffffffffffffff81118282101715610e2c57610e2c610df3565b60405290565b60405160e0810167ffffffffffffffff81118282101715610e2c57610e2c610df3565b604051601f8201601f1916810167ffffffffffffffff81118282101715610e7e57610e7e610df3565b604052919050565b8015158114610d9657600080fd5b60006040808336031215610ea757600080fd5b610eaf610e09565b8335815260208085013567ffffffffffffffff80821115610ecf57600080fd5b9086019036601f830112610ee257600080fd5b813581811115610ef457610ef4610df3565b610f02848260051b01610e55565b818152848101925060e0918202840185019136831115610f2157600080fd5b938501935b82851015610fb557808536031215610f3e5760008081fd5b610f46610e32565b8535610f5181610e86565b815285870135610f6081610e86565b81880152858901358982015260608087013590820152608080870135610f8581610d81565b9082015260a0868101359082015260c080870135610fa281610d81565b9082015284529384019392850192610f26565b5093850193909352509195945050505050565b600060208284031215610fda57600080fd5b8151610db681610e86565b80820180821115610c2a57634e487b7160e01b600052601160045260246000fd5b61010081016110158285610c5c565b6001600160a01b039290921660e0919091015291905056fea26469706673582212201d87f18ff9d9560e1d9a607825d2b69260862375c69637dbd60d73513022903664736f6c63430008100033",
    "linkReferences": {}
  },
  "methodIdentifiers": {
    "directory()": "c41c2f24",
    "operatorStore()": "ad007d63",
    "projects()": "8b79543c",
    "set(uint256,uint256,(uint256,(bool,bool,uint256,uint256,address,uint256,address)[])[])": "f2da44b6",
    "splitsOf(uint256,uint256,uint256)": "69e11cc5"
  },
  "id": 47
}