{
  "abi": [
    {
      "inputs": [
        {
          "internalType": "contract IJBOperatorStore",
          "name": "_operatorStore",
          "type": "address"
        },
        {
          "internalType": "contract IJBProjects",
          "name": "_projects",
          "type": "address"
        },
        {
          "internalType": "contract IJBDirectory",
          "name": "_directory",
          "type": "address"
        }
      ],
      "stateMutability": "nonpayable",
      "type": "constructor"
    },
    {
      "inputs": [],
      "name": "INVALID_LOCKED_UNTIL",
      "type": "error"
    },
    {
      "inputs": [],
      "name": "INVALID_PROJECT_ID",
      "type": "error"
    },
    {
      "inputs": [],
      "name": "INVALID_SPLIT_PERCENT",
      "type": "error"
    },
    {
      "inputs": [],
      "name": "INVALID_TOTAL_PERCENT",
      "type": "error"
    },
    {
      "inputs": [],
      "name": "PREVIOUS_LOCKED_SPLITS_NOT_INCLUDED",
      "type": "error"
    },
    {
      "inputs": [],
      "name": "UNAUTHORIZED",
      "type": "error"
    },
    {
      "anonymous": false,
      "inputs": [
        {
          "indexed": true,
          "internalType": "uint256",
          "name": "projectId",
          "type": "uint256"
        },
        {
          "indexed": true,
          "internalType": "uint256",
          "name": "domain",
          "type": "uint256"
        },
        {
          "indexed": true,
          "internalType": "uint256",
          "name": "group",
          "type": "uint256"
        },
        {
          "components": [
            {
              "internalType": "bool",
              "name": "preferClaimed",
              "type": "bool"
            },
            {
              "internalType": "bool",
              "name": "preferAddToBalance",
              "type": "bool"
            },
            {
              "internalType": "uint256",
              "name": "percent",
              "type": "uint256"
            },
            {
              "internalType": "uint256",
              "name": "projectId",
              "type": "uint256"
            },
            {
              "internalType": "address payable",
              "name": "beneficiary",
              "type": "address"
            },
            {
              "internalType": "uint256",
              "name": "lockedUntil",
              "type": "uint256"
            },
            {
              "internalType": "contract IJBSplitAllocator",
              "name": "allocator",
              "type": "address"
            }
          ],
          "indexed": false,
          "internalType": "struct JBSplit",
          "name": "split",
          "type": "tuple"
        },
        {
          "indexed": false,
          "internalType": "address",
          "name": "caller",
          "type": "address"
        }
      ],
      "name": "SetSplit",
      "type": "event"
    },
    {
      "inputs": [],
      "name": "directory",
      "outputs": [
        {
          "internalType": "contract IJBDirectory",
          "name": "",
          "type": "address"
        }
      ],
      "stateMutability": "view",
      "type": "function"
    },
    {
      "inputs": [],
      "name": "operatorStore",
      "outputs": [
        {
          "internalType": "contract IJBOperatorStore",
          "name": "",
          "type": "address"
        }
      ],
      "stateMutability": "view",
      "type": "function"
    },
    {
      "inputs": [],
      "name": "projects",
      "outputs": [
        {
          "internalType": "contract IJBProjects",
          "name": "",
          "type": "address"
        }
      ],
      "stateMutability": "view",
      "type": "function"
    },
    {
      "inputs": [
        {
          "internalType": "uint256",
          "name": "_projectId",
          "type": "uint256"
        },
        {
          "internalType": "uint256",
          "name": "_domain",
          "type": "uint256"
        },
        {
          "components": [
            {
              "internalType": "uint256",
              "name": "group",
              "type": "uint256"
            },
            {
              "components": [
                {
                  "internalType": "bool",
                  "name": "preferClaimed",
                  "type": "bool"
                },
                {
                  "internalType": "bool",
                  "name": "preferAddToBalance",
                  "type": "bool"
                },
                {
                  "internalType": "uint256",
                  "name": "percent",
                  "type": "uint256"
                },
                {
                  "internalType": "uint256",
                  "name": "projectId",
                  "type": "uint256"
                },
                {
                  "internalType": "address payable",
                  "name": "beneficiary",
                  "type": "address"
                },
                {
                  "internalType": "uint256",
                  "name": "lockedUntil",
                  "type": "uint256"
                },
                {
                  "internalType": "contract IJBSplitAllocator",
                  "name": "allocator",
                  "type": "address"
                }
              ],
              "internalType": "struct JBSplit[]",
              "name": "splits",
              "type": "tuple[]"
            }
          ],
          "internalType": "struct JBGroupedSplits[]",
          "name": "_groupedSplits",
          "type": "tuple[]"
        }
      ],
      "name": "set",
      "outputs": [],
      "stateMutability": "nonpayable",
      "type": "function"
    },
    {
      "inputs": [
        {
          "internalType": "uint256",
          "name": "_projectId",
          "type": "uint256"
        },
        {
          "internalType": "uint256",
          "name": "_domain",
          "type": "uint256"
        },
        {
          "internalType": "uint256",
          "name": "_group",
          "type": "uint256"
        }
      ],
      "name": "splitsOf",
      "outputs": [
        {
          "components": [
            {
              "internalType": "bool",
              "name": "preferClaimed",
              "type": "bool"
            },
            {
              "internalType": "bool",
              "name": "preferAddToBalance",
              "type": "bool"
            },
            {
              "internalType": "uint256",
              "name": "percent",
              "type": "uint256"
            },
            {
              "internalType": "uint256",
              "name": "projectId",
              "type": "uint256"
            },
            {
              "internalType": "address payable",
              "name": "beneficiary",
              "type": "address"
            },
            {
              "internalType": "uint256",
              "name": "lockedUntil",
              "type": "uint256"
            },
            {
              "internalType": "contract IJBSplitAllocator",
              "name": "allocator",
              "type": "address"
            }
          ],
          "internalType": "struct JBSplit[]",
          "name": "",
          "type": "tuple[]"
        }
      ],
      "stateMutability": "view",
      "type": "function"
    }
  ],
  "bytecode": {
    "object": "0x60e0346100bd57601f610eff38819003918201601f19168301916001600160401b038311848410176100c2578084926060946040528339810103126100bd5780516001600160a01b03919082811681036100bd5760208201519183831683036100bd576040015192831683036100bd5760805260a05260c052604051610e2690816100d9823960805181818161077f015281816108340152610949015260a05181818160cb015261098e015260c05181818161012201526109040152f35b600080fd5b634e487b7160e01b600052604160045260246000fdfe6080604052600436101561001257600080fd5b60003560e01c806369e11cc5146109bd5780638b79543c14610978578063ad007d6314610933578063c41c2f24146108ee5763f2da44b61461005357600080fd5b346107135760603660031901126107135767ffffffffffffffff60443511610713573660236044350112156107135767ffffffffffffffff6044356004013511610713573660246044356004013560051b604435010111610713576040516331a9108f60e11b815260048035908201526020816024817f00000000000000000000000000000000000000000000000000000000000000006001600160a01b03165afa9081156107e7576000916108cf575b50604051632eec7b5560e11b815260048035908201526020816024817f00000000000000000000000000000000000000000000000000000000000000006001600160a01b03165afa9081156107e7576000916108a0575b506001600160a01b0316331415908161088c575b816107f3575b81610740575b5061072e5760005b60443560040135811061019257005b60621960443536030160248260051b6044350101351215610713576040604435600583901b8101602401350136036023190112610713576040519081604081011067ffffffffffffffff604084011117610718576040828101905260448035600583901b810160249081013590910190810135845201359167ffffffffffffffff8311610713573660438460248560051b604435010135604435010101121561071357602483818460051b604435010135604435010101359261025484610ad8565b936102626040519586610a97565b8085526020850136604460e084028560248960051b8435010135833501010101116107135760448360248760051b83350101358235010101925b604460e084028260248960051b8435010135833501010101841061067b5750505050826020820152516102d481602435600435610c7e565b80519060005b82811061062b5750505060009083519160005b83811061032b575050600193506004356000526000602052604060002060243560005260205260406000209060005260205260406000205501610183565b60406103378288610afd565b510151156106195766ffffffffffffff60606103538389610afd565b510151116106075760406103678288610afd565b51015182018092116105f157633b9aca0082116105df57600061038a8288610afd565b51516105d7575b602061039d8389610afd565b5101516105cf575b60406103b18389610afd565b5101519060606103c1848a610afd565b51015160221b906001605a1b600160fa1b0360806103df868c610afd565b510151605a1b169260021b1717176004356000526001602052604060002060243560005260205260406000208460005260205260406000208260005260205260406000205560a06104308288610afd565b510151158015906105af575b156105335765ffffffffffff60a06104548389610afd565b51015111610521578065ffffffffffff60a06104726001948a610afd565b5101511666010000000000008360d01b0360c061048f848b610afd565b51015160301b1617600435600052600260205260406000206024356000526020526040600020856000526020526040600020826000526020526040600020555b836104da8289610afd565b516104e86040518092610a2b565b3360e0820152602435907f1d65eeba667d8160993d485b4782f11eef3bc64186c6521f2a0801f816e752e761010060043592a4016102ed565b60405163d509b54d60e01b8152600490fd5b60019060043560005260026020526040600020602435600052602052604060002084600052602052604060002081600052602052604060002054156104cf5760043560005260026020526040600020602435600052602052604060002084600052602052604060002081600052602052600060408120556104cf565b506001600160a01b0360c06105c48389610afd565b51015116151561043c565b6002176103a5565b506001610391565b604051630eca736160e41b8152600490fd5b634e487b7160e01b600052601160045260246000fd5b604051631da26cc960e11b8152600490fd5b60405163e119ba4560e01b8152600490fd5b60a06106378284610afd565b510151421080610660575b61064e576001016102da565b604051631974459560e01b8152600490fd5b5061067561066e8284610afd565b5187610b27565b15610642565b60e0843603126107135760405161069181610a7b565b61069a85610af0565b81526106a860208601610af0565b60208201526040858101359082015260608086013590820152608080860135906001600160a01b03821682036107135782015260a0858101359082015260c080860135906001600160a01b038216820361071357820152825260e0939093019260209091019061029c565b600080fd5b634e487b7160e01b600052604160045260246000fd5b60405163075fd2b160e01b8152600490fd5b60405163c161c93f60e01b81523360048201526001600160a01b03918216602482015260006044820152601260648201529150602090829060849082907f0000000000000000000000000000000000000000000000000000000000000000165afa9081156107e7576000916107b8575b50153861017b565b6107da915060203d6020116107e0575b6107d28183610a97565b810190610dd8565b386107b0565b503d6107c8565b6040513d6000823e3d90fd5b905060405163c161c93f60e01b815233600482015260018060a01b038216602482015260043560448201526012606482015260208160848160018060a01b037f0000000000000000000000000000000000000000000000000000000000000000165afa9081156107e75760009161086d575b501590610175565b610886915060203d6020116107e0576107d28183610a97565b38610865565b336001600160a01b0382161415915061016f565b6108c2915060203d6020116108c8575b6108ba8183610a97565b810190610ab9565b3861015b565b503d6108b0565b6108e8915060203d6020116108c8576108ba8183610a97565b38610104565b34610713576000366003190112610713576040517f00000000000000000000000000000000000000000000000000000000000000006001600160a01b03168152602090f35b34610713576000366003190112610713576040517f00000000000000000000000000000000000000000000000000000000000000006001600160a01b03168152602090f35b34610713576000366003190112610713576040517f00000000000000000000000000000000000000000000000000000000000000006001600160a01b03168152602090f35b34610713576060366003190112610713576109df604435602435600435610c7e565b6040516020918282018383528151809152836040840192019360005b828110610a085784840385f35b9091928260e082610a1c6001948a51610a2b565b019601910194929190946109fb565b60c09080511515835260208101511515602084015260408101516040840152606081015160608401528160018060a01b039182608082015116608086015260a081015160a0860152015116910152565b60e0810190811067ffffffffffffffff82111761071857604052565b90601f8019910116810190811067ffffffffffffffff82111761071857604052565b9081602091031261071357516001600160a01b03811681036107135790565b67ffffffffffffffff81116107185760051b60200190565b3590811515820361071357565b8051821015610b115760209160051b010190565b634e487b7160e01b600052603260045260246000fd5b80519160005b838110610b3d5750505050600090565b604080610b4a8386610afd565b510151908301511480610c20575b80610bfa575b80610bdf575b80610bc6575b80610ba7575b80610b8b575b610b8257600101610b2d565b50505050600190565b5060a080610b998386610afd565b510151908301511115610b76565b50602080610bb58386610afd565b510151151590830151151514610b70565b50610bd18184610afd565b515115158251151514610b6a565b50606080610bed8386610afd565b5101519083015114610b64565b5060c06001600160a01b038082610c118588610afd565b51015116918401511614610b5e565b5060806001600160a01b038082610c378588610afd565b51015116918401511614610b58565b60405190610c5382610a7b565b8160c06000918281528260208201528260408201528260608201528260808201528260a08201520152565b9291600091848352602094838652604091828520818652875282852084865287528285205492610cad84610ad8565b95610cba82519788610a97565b848752601f19610cc986610ad8565b0189825b828110610dc257505050805b858110610cec5750959750505050505050565b848252600190818b528383208584528b528383208884528b528383208184528b5283832054610d19610c46565b9083808216148252838082811c16148d830152600263ffffffff82821c168784015266ffffffffffffff8260221c16606084015260018060a01b038092605a1c1660808401528886528d528585208786528d528585208a86528d528585208386528d528585205480610da4575b5050610d92828b610afd565b52610d9d818a610afd565b5001610cd9565b65ffffffffffff811660a084015260301c1660c08201523880610d86565b610dca610c46565b82828c010152018a90610ccd565b9081602091031261071357518015158103610713579056fea264697066735822122088d3ddf56c81357f15733b565c0f47fdd06457f8b48c8e691def88b9269f24bd64736f6c63430008100033",
    "linkReferences": {}
  },
  "methodIdentifiers": {
    "directory()": "c41c2f24",
    "operatorStore()": "ad007d63",
    "projects()": "8b79543c",
    "set(uint256,uint256,(uint256,(bool,bool,uint256,uint256,address,uint256,address)[])[])": "f2da44b6",
    "splitsOf(uint256,uint256,uint256)": "69e11cc5"
  },
  "id": 57
}