{
  "abi": [
    {
      "inputs": [
        {
          "internalType": "contract IJBOperatorStore",
          "name": "_operatorStore",
          "type": "address"
        },
        {
          "internalType": "contract IJBProjects",
          "name": "_projects",
          "type": "address"
        },
        {
          "internalType": "contract IJBDirectory",
          "name": "_directory",
          "type": "address"
        }
      ],
      "stateMutability": "nonpayable",
      "type": "constructor"
    },
    {
      "inputs": [],
      "name": "INVALID_LOCKED_UNTIL",
      "type": "error"
    },
    {
      "inputs": [],
      "name": "INVALID_PROJECT_ID",
      "type": "error"
    },
    {
      "inputs": [],
      "name": "INVALID_SPLIT_PERCENT",
      "type": "error"
    },
    {
      "inputs": [],
      "name": "INVALID_TOTAL_PERCENT",
      "type": "error"
    },
    {
      "inputs": [],
      "name": "PREVIOUS_LOCKED_SPLITS_NOT_INCLUDED",
      "type": "error"
    },
    {
      "inputs": [],
      "name": "UNAUTHORIZED",
      "type": "error"
    },
    {
      "anonymous": false,
      "inputs": [
        {
          "indexed": true,
          "internalType": "uint256",
          "name": "projectId",
          "type": "uint256"
        },
        {
          "indexed": true,
          "internalType": "uint256",
          "name": "domain",
          "type": "uint256"
        },
        {
          "indexed": true,
          "internalType": "uint256",
          "name": "group",
          "type": "uint256"
        },
        {
          "components": [
            {
              "internalType": "bool",
              "name": "preferClaimed",
              "type": "bool"
            },
            {
              "internalType": "bool",
              "name": "preferAddToBalance",
              "type": "bool"
            },
            {
              "internalType": "uint256",
              "name": "percent",
              "type": "uint256"
            },
            {
              "internalType": "uint256",
              "name": "projectId",
              "type": "uint256"
            },
            {
              "internalType": "address payable",
              "name": "beneficiary",
              "type": "address"
            },
            {
              "internalType": "uint256",
              "name": "lockedUntil",
              "type": "uint256"
            },
            {
              "internalType": "contract IJBSplitAllocator",
              "name": "allocator",
              "type": "address"
            }
          ],
          "indexed": false,
          "internalType": "struct JBSplit",
          "name": "split",
          "type": "tuple"
        },
        {
          "indexed": false,
          "internalType": "address",
          "name": "caller",
          "type": "address"
        }
      ],
      "name": "SetSplit",
      "type": "event"
    },
    {
      "inputs": [],
      "name": "directory",
      "outputs": [
        {
          "internalType": "contract IJBDirectory",
          "name": "",
          "type": "address"
        }
      ],
      "stateMutability": "view",
      "type": "function"
    },
    {
      "inputs": [],
      "name": "operatorStore",
      "outputs": [
        {
          "internalType": "contract IJBOperatorStore",
          "name": "",
          "type": "address"
        }
      ],
      "stateMutability": "view",
      "type": "function"
    },
    {
      "inputs": [],
      "name": "projects",
      "outputs": [
        {
          "internalType": "contract IJBProjects",
          "name": "",
          "type": "address"
        }
      ],
      "stateMutability": "view",
      "type": "function"
    },
    {
      "inputs": [
        {
          "internalType": "uint256",
          "name": "_projectId",
          "type": "uint256"
        },
        {
          "internalType": "uint256",
          "name": "_domain",
          "type": "uint256"
        },
        {
          "components": [
            {
              "internalType": "uint256",
              "name": "group",
              "type": "uint256"
            },
            {
              "components": [
                {
                  "internalType": "bool",
                  "name": "preferClaimed",
                  "type": "bool"
                },
                {
                  "internalType": "bool",
                  "name": "preferAddToBalance",
                  "type": "bool"
                },
                {
                  "internalType": "uint256",
                  "name": "percent",
                  "type": "uint256"
                },
                {
                  "internalType": "uint256",
                  "name": "projectId",
                  "type": "uint256"
                },
                {
                  "internalType": "address payable",
                  "name": "beneficiary",
                  "type": "address"
                },
                {
                  "internalType": "uint256",
                  "name": "lockedUntil",
                  "type": "uint256"
                },
                {
                  "internalType": "contract IJBSplitAllocator",
                  "name": "allocator",
                  "type": "address"
                }
              ],
              "internalType": "struct JBSplit[]",
              "name": "splits",
              "type": "tuple[]"
            }
          ],
          "internalType": "struct JBGroupedSplits[]",
          "name": "_groupedSplits",
          "type": "tuple[]"
        }
      ],
      "name": "set",
      "outputs": [],
      "stateMutability": "nonpayable",
      "type": "function"
    },
    {
      "inputs": [
        {
          "internalType": "uint256",
          "name": "_projectId",
          "type": "uint256"
        },
        {
          "internalType": "uint256",
          "name": "_domain",
          "type": "uint256"
        },
        {
          "internalType": "uint256",
          "name": "_group",
          "type": "uint256"
        }
      ],
      "name": "splitsOf",
      "outputs": [
        {
          "components": [
            {
              "internalType": "bool",
              "name": "preferClaimed",
              "type": "bool"
            },
            {
              "internalType": "bool",
              "name": "preferAddToBalance",
              "type": "bool"
            },
            {
              "internalType": "uint256",
              "name": "percent",
              "type": "uint256"
            },
            {
              "internalType": "uint256",
              "name": "projectId",
              "type": "uint256"
            },
            {
              "internalType": "address payable",
              "name": "beneficiary",
              "type": "address"
            },
            {
              "internalType": "uint256",
              "name": "lockedUntil",
              "type": "uint256"
            },
            {
              "internalType": "contract IJBSplitAllocator",
              "name": "allocator",
              "type": "address"
            }
          ],
          "internalType": "struct JBSplit[]",
          "name": "",
          "type": "tuple[]"
        }
      ],
      "stateMutability": "view",
      "type": "function"
    }
  ],
  "bytecode": {
    "object": "0x60e0346100bd57601f610e9c38819003918201601f19168301916001600160401b038311848410176100c2578084926060946040528339810103126100bd5780516001600160a01b03919082811681036100bd5760208201519183831683036100bd576040015192831683036100bd5760805260a05260c052604051610dc390816100d9823960805181818161071c015281816107d101526108e6015260a05181818160cb015261092b015260c05181818161012201526108a10152f35b600080fd5b634e487b7160e01b600052604160045260246000fdfe6080604052600436101561001257600080fd5b60003560e01c806369e11cc51461095a5780638b79543c14610915578063ad007d63146108d0578063c41c2f241461088b5763f2da44b61461005357600080fd5b346106b05760603660031901126106b05767ffffffffffffffff604435116106b0573660236044350112156106b05767ffffffffffffffff60443560040135116106b0573660246044356004013560051b6044350101116106b0576040516331a9108f60e11b815260048035908201526020816024817f00000000000000000000000000000000000000000000000000000000000000006001600160a01b03165afa9081156107845760009161086c575b50604051632eec7b5560e11b815260048035908201526020816024817f00000000000000000000000000000000000000000000000000000000000000006001600160a01b03165afa9081156107845760009161083d575b506001600160a01b03163314159081610829575b81610790575b816106dd575b506106cb5760005b60443560040135811061019257005b60248160051b6044350101356062196044353603018112156106b0576044350190604060231983360301126106b0576040516040810181811067ffffffffffffffff8211176106b55760405260248301358152604483013567ffffffffffffffff81116106b0573660438286010112156106b0576024818501013561021681610a75565b946102246040519687610a34565b818652602086019036604460e085028684010101116106b057604484820101935b604460e08502828401010185106106185750505050508260208201525161027181602435600435610c1b565b80519060005b8281106105c85750505060009083519160005b8381106102c8575050600193506004356000526000602052604060002060243560005260205260406000209060005260205260406000205501610183565b60406102d48288610a9a565b510151156105b65766ffffffffffffff60606102f08389610a9a565b510151116105a45760406103048288610a9a565b510151820180921161058e57633b9aca00821161057c5760006103278288610a9a565b5151610574575b602061033a8389610a9a565b51015161056c575b604061034e8389610a9a565b51015190606061035e848a610a9a565b51015160221b906001605a1b600160fa1b03608061037c868c610a9a565b510151605a1b169260021b1717176004356000526001602052604060002060243560005260205260406000208460005260205260406000208260005260205260406000205560a06103cd8288610a9a565b5101511580159061054c575b156104d05765ffffffffffff60a06103f18389610a9a565b510151116104be578065ffffffffffff60a061040f6001948a610a9a565b5101511666010000000000008360d01b0360c061042c848b610a9a565b51015160301b1617600435600052600260205260406000206024356000526020526040600020856000526020526040600020826000526020526040600020555b836104778289610a9a565b5161048560405180926109c8565b3360e0820152602435907f1d65eeba667d8160993d485b4782f11eef3bc64186c6521f2a0801f816e752e761010060043592a40161028a565b60405163d509b54d60e01b8152600490fd5b600190600435600052600260205260406000206024356000526020526040600020846000526020526040600020816000526020526040600020541561046c57600435600052600260205260406000206024356000526020526040600020846000526020526040600020816000526020526000604081205561046c565b506001600160a01b0360c06105618389610a9a565b5101511615156103d9565b600217610342565b50600161032e565b604051630eca736160e41b8152600490fd5b634e487b7160e01b600052601160045260246000fd5b604051631da26cc960e11b8152600490fd5b60405163e119ba4560e01b8152600490fd5b60a06105d48284610a9a565b5101514210806105fd575b6105eb57600101610277565b604051631974459560e01b8152600490fd5b5061061261060b8284610a9a565b5187610ac4565b156105df565b60e0853603126106b05760405161062e81610a18565b61063786610a8d565b815261064560208701610a8d565b60208201526040868101359082015260608087013590820152608080870135906001600160a01b03821682036106b05782015260a0868101359082015260c080870135906001600160a01b03821682036106b057820152835260e09490940193602090920191610245565b600080fd5b634e487b7160e01b600052604160045260246000fd5b60405163075fd2b160e01b8152600490fd5b60405163c161c93f60e01b81523360048201526001600160a01b03918216602482015260006044820152601260648201529150602090829060849082907f0000000000000000000000000000000000000000000000000000000000000000165afa90811561078457600091610755575b50153861017b565b610777915060203d60201161077d575b61076f8183610a34565b810190610d75565b3861074d565b503d610765565b6040513d6000823e3d90fd5b905060405163c161c93f60e01b815233600482015260018060a01b038216602482015260043560448201526012606482015260208160848160018060a01b037f0000000000000000000000000000000000000000000000000000000000000000165afa9081156107845760009161080a575b501590610175565b610823915060203d60201161077d5761076f8183610a34565b38610802565b336001600160a01b0382161415915061016f565b61085f915060203d602011610865575b6108578183610a34565b810190610a56565b3861015b565b503d61084d565b610885915060203d602011610865576108578183610a34565b38610104565b346106b05760003660031901126106b0576040517f00000000000000000000000000000000000000000000000000000000000000006001600160a01b03168152602090f35b346106b05760003660031901126106b0576040517f00000000000000000000000000000000000000000000000000000000000000006001600160a01b03168152602090f35b346106b05760003660031901126106b0576040517f00000000000000000000000000000000000000000000000000000000000000006001600160a01b03168152602090f35b346106b05760603660031901126106b05761097c604435602435600435610c1b565b6040516020918282018383528151809152836040840192019360005b8281106109a55784840385f35b9091928260e0826109b96001948a516109c8565b01960191019492919094610998565b60c09080511515835260208101511515602084015260408101516040840152606081015160608401528160018060a01b039182608082015116608086015260a081015160a0860152015116910152565b60e0810190811067ffffffffffffffff8211176106b557604052565b90601f8019910116810190811067ffffffffffffffff8211176106b557604052565b908160209103126106b057516001600160a01b03811681036106b05790565b67ffffffffffffffff81116106b55760051b60200190565b359081151582036106b057565b8051821015610aae5760209160051b010190565b634e487b7160e01b600052603260045260246000fd5b80519160005b838110610ada5750505050600090565b604080610ae78386610a9a565b510151908301511480610bbd575b80610b97575b80610b7c575b80610b63575b80610b44575b80610b28575b610b1f57600101610aca565b50505050600190565b5060a080610b368386610a9a565b510151908301511115610b13565b50602080610b528386610a9a565b510151151590830151151514610b0d565b50610b6e8184610a9a565b515115158251151514610b07565b50606080610b8a8386610a9a565b5101519083015114610b01565b5060c06001600160a01b038082610bae8588610a9a565b51015116918401511614610afb565b5060806001600160a01b038082610bd48588610a9a565b51015116918401511614610af5565b60405190610bf082610a18565b8160c06000918281528260208201528260408201528260608201528260808201528260a08201520152565b9291600091848352602094838652604091828520818652875282852084865287528285205492610c4a84610a75565b95610c5782519788610a34565b848752601f19610c6686610a75565b0189825b828110610d5f57505050805b858110610c895750959750505050505050565b848252600190818b528383208584528b528383208884528b528383208184528b5283832054610cb6610be3565b9083808216148252838082811c16148d830152600263ffffffff82821c168784015266ffffffffffffff8260221c16606084015260018060a01b038092605a1c1660808401528886528d528585208786528d528585208a86528d528585208386528d528585205480610d41575b5050610d2f828b610a9a565b52610d3a818a610a9a565b5001610c76565b65ffffffffffff811660a084015260301c1660c08201523880610d23565b610d67610be3565b82828c010152018a90610c6a565b908160209103126106b0575180151581036106b0579056fea2646970667358221220e41e27d439d8596dae04c4c825bc86e120379e17d7cb412fec5f7354516683f064736f6c63430008110033",
    "linkReferences": {}
  },
  "methodIdentifiers": {
    "directory()": "c41c2f24",
    "operatorStore()": "ad007d63",
    "projects()": "8b79543c",
    "set(uint256,uint256,(uint256,(bool,bool,uint256,uint256,address,uint256,address)[])[])": "f2da44b6",
    "splitsOf(uint256,uint256,uint256)": "69e11cc5"
  },
  "id": 70
}