{
  "_format": "hh-sol-artifact-1",
  "contractName": "JBTieredLimitedNFTRewardDataSourceStore",
  "sourceName": "contracts/JBTieredLimitedNFTRewardDataSourceStore.sol",
  "abi": [
    {
      "inputs": [],
      "name": "INSUFFICIENT_AMOUNT",
      "type": "error"
    },
    {
      "inputs": [],
      "name": "INSUFFICIENT_RESERVES",
      "type": "error"
    },
    {
      "inputs": [],
      "name": "INVALID_TIER",
      "type": "error"
    },
    {
      "inputs": [],
      "name": "NOT_AVAILABLE",
      "type": "error"
    },
    {
      "inputs": [],
      "name": "NO_QUANTITY",
      "type": "error"
    },
    {
      "inputs": [],
      "name": "OUT",
      "type": "error"
    },
    {
      "inputs": [],
      "name": "RESERVED_RATE_NOT_ALLOWED",
      "type": "error"
    },
    {
      "inputs": [],
      "name": "TIER_LOCKED",
      "type": "error"
    },
    {
      "inputs": [],
      "name": "TIER_REMOVED",
      "type": "error"
    },
    {
      "inputs": [],
      "name": "VOTING_UNITS_NOT_ALLOWED",
      "type": "error"
    },
    {
      "anonymous": false,
      "inputs": [
        {
          "indexed": true,
          "internalType": "uint256",
          "name": "tierId",
          "type": "uint256"
        },
        {
          "components": [
            {
              "internalType": "uint80",
              "name": "contributionFloor",
              "type": "uint80"
            },
            {
              "internalType": "uint48",
              "name": "lockedUntil",
              "type": "uint48"
            },
            {
              "internalType": "uint48",
              "name": "remainingQuantity",
              "type": "uint48"
            },
            {
              "internalType": "uint48",
              "name": "initialQuantity",
              "type": "uint48"
            },
            {
              "internalType": "uint16",
              "name": "votingUnits",
              "type": "uint16"
            },
            {
              "internalType": "uint16",
              "name": "reservedRate",
              "type": "uint16"
            },
            {
              "internalType": "bytes32",
              "name": "tokenUri",
              "type": "bytes32"
            }
          ],
          "indexed": false,
          "internalType": "struct JBNFTRewardTierData",
          "name": "data",
          "type": "tuple"
        },
        {
          "indexed": false,
          "internalType": "address",
          "name": "caller",
          "type": "address"
        }
      ],
      "name": "AddTier",
      "type": "event"
    },
    {
      "anonymous": false,
      "inputs": [
        {
          "indexed": true,
          "internalType": "uint256",
          "name": "tierId",
          "type": "uint256"
        },
        {
          "indexed": false,
          "internalType": "address",
          "name": "caller",
          "type": "address"
        }
      ],
      "name": "RemoveTier",
      "type": "event"
    },
    {
      "inputs": [
        {
          "internalType": "address",
          "name": "_nft",
          "type": "address"
        },
        {
          "internalType": "address",
          "name": "_owner",
          "type": "address"
        }
      ],
      "name": "balanceOf",
      "outputs": [
        {
          "internalType": "uint256",
          "name": "balance",
          "type": "uint256"
        }
      ],
      "stateMutability": "view",
      "type": "function"
    },
    {
      "inputs": [
        {
          "internalType": "address",
          "name": "",
          "type": "address"
        },
        {
          "internalType": "uint256",
          "name": "",
          "type": "uint256"
        }
      ],
      "name": "firstOwnerOf",
      "outputs": [
        {
          "internalType": "address",
          "name": "",
          "type": "address"
        }
      ],
      "stateMutability": "view",
      "type": "function"
    },
    {
      "inputs": [
        {
          "internalType": "address",
          "name": "",
          "type": "address"
        },
        {
          "internalType": "uint256",
          "name": "",
          "type": "uint256"
        }
      ],
      "name": "isTierRemoved",
      "outputs": [
        {
          "internalType": "bool",
          "name": "",
          "type": "bool"
        }
      ],
      "stateMutability": "view",
      "type": "function"
    },
    {
      "inputs": [
        {
          "internalType": "address",
          "name": "_nft",
          "type": "address"
        },
        {
          "internalType": "uint256",
          "name": "_tierId",
          "type": "uint256"
        }
      ],
      "name": "numberOfReservedTokensOutstandingFor",
      "outputs": [
        {
          "internalType": "uint256",
          "name": "",
          "type": "uint256"
        }
      ],
      "stateMutability": "view",
      "type": "function"
    },
    {
      "inputs": [
        {
          "internalType": "address",
          "name": "",
          "type": "address"
        },
        {
          "internalType": "uint256",
          "name": "",
          "type": "uint256"
        }
      ],
      "name": "numberOfReservesMintedFor",
      "outputs": [
        {
          "internalType": "uint256",
          "name": "",
          "type": "uint256"
        }
      ],
      "stateMutability": "view",
      "type": "function"
    },
    {
      "inputs": [
        {
          "internalType": "address",
          "name": "",
          "type": "address"
        }
      ],
      "name": "numberOfTiers",
      "outputs": [
        {
          "internalType": "uint256",
          "name": "",
          "type": "uint256"
        }
      ],
      "stateMutability": "view",
      "type": "function"
    },
    {
      "inputs": [
        {
          "components": [
            {
              "internalType": "uint80",
              "name": "contributionFloor",
              "type": "uint80"
            },
            {
              "internalType": "uint48",
              "name": "lockedUntil",
              "type": "uint48"
            },
            {
              "internalType": "uint48",
              "name": "remainingQuantity",
              "type": "uint48"
            },
            {
              "internalType": "uint48",
              "name": "initialQuantity",
              "type": "uint48"
            },
            {
              "internalType": "uint16",
              "name": "votingUnits",
              "type": "uint16"
            },
            {
              "internalType": "uint16",
              "name": "reservedRate",
              "type": "uint16"
            },
            {
              "internalType": "bytes32",
              "name": "tokenUri",
              "type": "bytes32"
            }
          ],
          "internalType": "struct JBNFTRewardTierData[]",
          "name": "_tierData",
          "type": "tuple[]"
        },
        {
          "internalType": "bool",
          "name": "_constructorTiers",
          "type": "bool"
        }
      ],
      "name": "recordAddTierData",
      "outputs": [],
      "stateMutability": "nonpayable",
      "type": "function"
    },
    {
      "inputs": [
        {
          "internalType": "uint256",
          "name": "_amount",
          "type": "uint256"
        },
        {
          "internalType": "uint256",
          "name": "_tierId",
          "type": "uint256"
        },
        {
          "internalType": "address",
          "name": "_beneficiary",
          "type": "address"
        }
      ],
      "name": "recordMint",
      "outputs": [
        {
          "internalType": "uint256",
          "name": "tokenId",
          "type": "uint256"
        },
        {
          "internalType": "uint256",
          "name": "leftoverAmount",
          "type": "uint256"
        }
      ],
      "stateMutability": "nonpayable",
      "type": "function"
    },
    {
      "inputs": [
        {
          "internalType": "uint256",
          "name": "_amount",
          "type": "uint256"
        },
        {
          "internalType": "address",
          "name": "_beneficiary",
          "type": "address"
        },
        {
          "internalType": "bool",
          "name": "_expectMint",
          "type": "bool"
        }
      ],
      "name": "recordMintBestAvailableTier",
      "outputs": [
        {
          "internalType": "uint256",
          "name": "tokenId",
          "type": "uint256"
        },
        {
          "internalType": "uint256",
          "name": "tierId",
          "type": "uint256"
        },
        {
          "internalType": "uint256",
          "name": "leftoverAmount",
          "type": "uint256"
        }
      ],
      "stateMutability": "nonpayable",
      "type": "function"
    },
    {
      "inputs": [
        {
          "internalType": "uint256",
          "name": "_tierId",
          "type": "uint256"
        },
        {
          "internalType": "uint256",
          "name": "_count",
          "type": "uint256"
        }
      ],
      "name": "recordMintReservesFor",
      "outputs": [
        {
          "internalType": "uint256[]",
          "name": "tokenIds",
          "type": "uint256[]"
        }
      ],
      "stateMutability": "nonpayable",
      "type": "function"
    },
    {
      "inputs": [
        {
          "internalType": "uint256[]",
          "name": "_tierIds",
          "type": "uint256[]"
        }
      ],
      "name": "recordRemoveTierIds",
      "outputs": [],
      "stateMutability": "nonpayable",
      "type": "function"
    },
    {
      "inputs": [
        {
          "internalType": "uint256",
          "name": "_tokenId",
          "type": "uint256"
        },
        {
          "internalType": "address",
          "name": "_owner",
          "type": "address"
        }
      ],
      "name": "recordSetFirstOwnerOf",
      "outputs": [],
      "stateMutability": "nonpayable",
      "type": "function"
    },
    {
      "inputs": [
        {
          "internalType": "address",
          "name": "_beneficiary",
          "type": "address"
        }
      ],
      "name": "recordSetReservedTokenBeneficiary",
      "outputs": [],
      "stateMutability": "nonpayable",
      "type": "function"
    },
    {
      "inputs": [
        {
          "internalType": "address",
          "name": "_nft",
          "type": "address"
        },
        {
          "internalType": "uint256[]",
          "name": "_tokenIds",
          "type": "uint256[]"
        }
      ],
      "name": "redemptionWeightOf",
      "outputs": [
        {
          "internalType": "uint256",
          "name": "weight",
          "type": "uint256"
        }
      ],
      "stateMutability": "view",
      "type": "function"
    },
    {
      "inputs": [
        {
          "internalType": "address",
          "name": "",
          "type": "address"
        }
      ],
      "name": "reservedTokenBeneficiary",
      "outputs": [
        {
          "internalType": "address",
          "name": "",
          "type": "address"
        }
      ],
      "stateMutability": "view",
      "type": "function"
    },
    {
      "inputs": [
        {
          "internalType": "address",
          "name": "_nft",
          "type": "address"
        },
        {
          "internalType": "uint256",
          "name": "_id",
          "type": "uint256"
        }
      ],
      "name": "tier",
      "outputs": [
        {
          "components": [
            {
              "internalType": "uint256",
              "name": "id",
              "type": "uint256"
            },
            {
              "components": [
                {
                  "internalType": "uint80",
                  "name": "contributionFloor",
                  "type": "uint80"
                },
                {
                  "internalType": "uint48",
                  "name": "lockedUntil",
                  "type": "uint48"
                },
                {
                  "internalType": "uint48",
                  "name": "remainingQuantity",
                  "type": "uint48"
                },
                {
                  "internalType": "uint48",
                  "name": "initialQuantity",
                  "type": "uint48"
                },
                {
                  "internalType": "uint16",
                  "name": "votingUnits",
                  "type": "uint16"
                },
                {
                  "internalType": "uint16",
                  "name": "reservedRate",
                  "type": "uint16"
                },
                {
                  "internalType": "bytes32",
                  "name": "tokenUri",
                  "type": "bytes32"
                }
              ],
              "internalType": "struct JBNFTRewardTierData",
              "name": "data",
              "type": "tuple"
            }
          ],
          "internalType": "struct JBNFTRewardTier",
          "name": "",
          "type": "tuple"
        }
      ],
      "stateMutability": "view",
      "type": "function"
    },
    {
      "inputs": [
        {
          "internalType": "address",
          "name": "",
          "type": "address"
        },
        {
          "internalType": "address",
          "name": "",
          "type": "address"
        },
        {
          "internalType": "uint256",
          "name": "",
          "type": "uint256"
        }
      ],
      "name": "tierBalanceOf",
      "outputs": [
        {
          "internalType": "uint256",
          "name": "",
          "type": "uint256"
        }
      ],
      "stateMutability": "view",
      "type": "function"
    },
    {
      "inputs": [
        {
          "internalType": "address",
          "name": "",
          "type": "address"
        },
        {
          "internalType": "uint256",
          "name": "",
          "type": "uint256"
        }
      ],
      "name": "tierData",
      "outputs": [
        {
          "internalType": "uint80",
          "name": "contributionFloor",
          "type": "uint80"
        },
        {
          "internalType": "uint48",
          "name": "lockedUntil",
          "type": "uint48"
        },
        {
          "internalType": "uint48",
          "name": "remainingQuantity",
          "type": "uint48"
        },
        {
          "internalType": "uint48",
          "name": "initialQuantity",
          "type": "uint48"
        },
        {
          "internalType": "uint16",
          "name": "votingUnits",
          "type": "uint16"
        },
        {
          "internalType": "uint16",
          "name": "reservedRate",
          "type": "uint16"
        },
        {
          "internalType": "bytes32",
          "name": "tokenUri",
          "type": "bytes32"
        }
      ],
      "stateMutability": "view",
      "type": "function"
    },
    {
      "inputs": [
        {
          "internalType": "uint256",
          "name": "_tokenId",
          "type": "uint256"
        }
      ],
      "name": "tierIdOfToken",
      "outputs": [
        {
          "internalType": "uint256",
          "name": "",
          "type": "uint256"
        }
      ],
      "stateMutability": "pure",
      "type": "function"
    },
    {
      "inputs": [
        {
          "internalType": "address",
          "name": "_nft",
          "type": "address"
        },
        {
          "internalType": "uint256",
          "name": "_tokenId",
          "type": "uint256"
        }
      ],
      "name": "tierOfTokenId",
      "outputs": [
        {
          "components": [
            {
              "internalType": "uint256",
              "name": "id",
              "type": "uint256"
            },
            {
              "components": [
                {
                  "internalType": "uint80",
                  "name": "contributionFloor",
                  "type": "uint80"
                },
                {
                  "internalType": "uint48",
                  "name": "lockedUntil",
                  "type": "uint48"
                },
                {
                  "internalType": "uint48",
                  "name": "remainingQuantity",
                  "type": "uint48"
                },
                {
                  "internalType": "uint48",
                  "name": "initialQuantity",
                  "type": "uint48"
                },
                {
                  "internalType": "uint16",
                  "name": "votingUnits",
                  "type": "uint16"
                },
                {
                  "internalType": "uint16",
                  "name": "reservedRate",
                  "type": "uint16"
                },
                {
                  "internalType": "bytes32",
                  "name": "tokenUri",
                  "type": "bytes32"
                }
              ],
              "internalType": "struct JBNFTRewardTierData",
              "name": "data",
              "type": "tuple"
            }
          ],
          "internalType": "struct JBNFTRewardTier",
          "name": "",
          "type": "tuple"
        }
      ],
      "stateMutability": "view",
      "type": "function"
    },
    {
      "inputs": [
        {
          "internalType": "address",
          "name": "_nft",
          "type": "address"
        }
      ],
      "name": "tiers",
      "outputs": [
        {
          "components": [
            {
              "internalType": "uint256",
              "name": "id",
              "type": "uint256"
            },
            {
              "components": [
                {
                  "internalType": "uint80",
                  "name": "contributionFloor",
                  "type": "uint80"
                },
                {
                  "internalType": "uint48",
                  "name": "lockedUntil",
                  "type": "uint48"
                },
                {
                  "internalType": "uint48",
                  "name": "remainingQuantity",
                  "type": "uint48"
                },
                {
                  "internalType": "uint48",
                  "name": "initialQuantity",
                  "type": "uint48"
                },
                {
                  "internalType": "uint16",
                  "name": "votingUnits",
                  "type": "uint16"
                },
                {
                  "internalType": "uint16",
                  "name": "reservedRate",
                  "type": "uint16"
                },
                {
                  "internalType": "bytes32",
                  "name": "tokenUri",
                  "type": "bytes32"
                }
              ],
              "internalType": "struct JBNFTRewardTierData",
              "name": "data",
              "type": "tuple"
            }
          ],
          "internalType": "struct JBNFTRewardTier[]",
          "name": "_tiers",
          "type": "tuple[]"
        }
      ],
      "stateMutability": "view",
      "type": "function"
    },
    {
      "inputs": [
        {
          "internalType": "address",
          "name": "_nft",
          "type": "address"
        }
      ],
      "name": "totalRedemptionWeight",
      "outputs": [
        {
          "internalType": "uint256",
          "name": "weight",
          "type": "uint256"
        }
      ],
      "stateMutability": "view",
      "type": "function"
    },
    {
      "inputs": [
        {
          "internalType": "address",
          "name": "_nft",
          "type": "address"
        }
      ],
      "name": "totalSupply",
      "outputs": [
        {
          "internalType": "uint256",
          "name": "supply",
          "type": "uint256"
        }
      ],
      "stateMutability": "view",
      "type": "function"
    },
    {
      "inputs": [
        {
          "internalType": "address",
          "name": "_nft",
          "type": "address"
        },
        {
          "internalType": "address",
          "name": "_account",
          "type": "address"
        }
      ],
      "name": "votingUnitsOf",
      "outputs": [
        {
          "internalType": "uint256",
          "name": "units",
          "type": "uint256"
        }
      ],
      "stateMutability": "view",
      "type": "function"
    }
  ],
  "bytecode": "0x608060405234801561001057600080fd5b50611d83806100206000396000f3fe608060405234801561001057600080fd5b50600436106101285760003560e01c80630cc1b4f21461012d578063103fdbc91461016c578063144cc2d4146101ab57806320512ba1146101cc5780632ae5e492146101df57806335314b92146101f257806337f446521461020557806342f9914b1461023657806350cb08b41461024a5780635f6466111461026a5780636825bb80146102a8578063732e2dca146102d35780637473c9a2146102e65780638cec7d39146103065780638ed6c0101461034f57806391537c531461038357806393355578146103ab5780639f4e964a146103be578063b67cb04714610488578063baa7e80e1461049b578063c8111f27146104bb578063d16cbf93146104db578063e4dc2aa414610509578063f7888aec1461051c575b600080fd5b61015661013b366004611752565b6005602052600090815260409020546001600160a01b031681565b6040516101639190611b0d565b60405180910390f35b6101a961017a366004611752565b33600090815260056020526040902080546001600160a01b0319166001600160a01b0392909216919091179055565b005b6101be6101b93660046117dc565b61052f565b604051908152602001610163565b6101a96101da36600461198a565b6105be565b6101be6101ed366004611752565b6106a2565b6101be610200366004611829565b6107e2565b6101be6102133660046117a0565b600260209081526000938452604080852082529284528284209052825290205481565b6101be6102443660046119c6565b60ff1690565b6101be610258366004611752565b60006020819052908152604090205481565b610298610278366004611829565b600460209081526000928352604080842090915290825290205460ff1681565b6040519015158152602001610163565b6101be6102b6366004611829565b600360209081526000928352604080842090915290825290205481565b6101a96102e1366004611853565b610891565b6102f96102f4366004611829565b610b14565b6040516101639190611bcf565b6101a96103143660046119df565b3360009081526006602090815260408083209483529390529190912080546001600160a01b0319166001600160a01b03909216919091179055565b61015661035d366004611829565b60066020908152600092835260408084209091529082529020546001600160a01b031681565b610396610391366004611a60565b610bc8565b60408051928352602083019190915201610163565b6101be6103b936600461176d565b610d66565b6104356103cc366004611829565b6001602081815260009384526040808520909152918352912080549101546001600160501b0382169165ffffffffffff600160501b8204811692600160801b8304821692600160b01b81049092169161ffff600160e01b8204811692600160f01b909204169087565b604080516001600160501b03909816885265ffffffffffff96871660208901529486169487019490945293909116606085015261ffff908116608085015290911660a083015260c082015260e001610163565b6102f9610496366004611829565b610e0b565b6104ae6104a9366004611a3e565b610ec6565b6040516101639190611b70565b6104ce6104c9366004611752565b611063565b6040516101639190611b21565b6104ee6104e9366004611a02565b6111ef565b60408051938452602084019290925290820152606001610163565b6101be610517366004611752565b61139d565b6101be61052a36600461176d565b611427565b8051600090815b818110156105b65760016000866001600160a01b03166001600160a01b03168152602001908152602001600020600061058886848151811061057a5761057a611d21565b602002602001015160ff1690565b81526020810191909152604001600020546105ac906001600160501b031684611c59565b9250600101610536565b505092915050565b80516000805b8281101561069c578381815181106105de576105de611d21565b602090810291909101810151336000908152600183526040808220838352909352919091205490925042600160501b90910465ffffffffffff161061063657604051636b73d51160e11b815260040160405180910390fd5b33600081815260046020908152604080832086845290915290819020805460ff191660011790555183917f832d89d991be5351d793c20faf4b7dd44f8aa9ce39e3cb160c6317de6fbba7299161068c9190611b0d565b60405180910390a26001016105c4565b50505050565b6001600160a01b0381166000908152602081905260408120546106c3611631565b60005b828110156107da576001600160a01b0385166000908152600160208190526040822091906106f5908490611c59565b81526020808201929092526040908101600020815160e08101835281546001600160501b038116825265ffffffffffff600160501b8204811695830195909552600160801b8104851693820193909352600160b01b8304909316606084015261ffff600160e01b830481166080850152600160f01b90920490911660a08301526001015460c0820152915061078b85828461148b565b8260400151836060015161079f9190611cc9565b83516107bc9165ffffffffffff16906001600160501b0316611c93565b6107c69190611c59565b6107d09085611c59565b93506001016106c6565b505050919050565b6001600160a01b03821660009081526001602081815260408084208585528252808420815160e08101835281546001600160501b038116825265ffffffffffff600160501b8204811695830195909552600160801b8104851693820193909352600160b01b8304909316606084015261ffff600160e01b830481166080850152600160f01b90920490911660a08301529091015460c0820152610888908490849061148b565b90505b92915050565b610899611631565b825133600090815260208190526040902054815b8015610af257856108bf600183611cb2565b815181106108cf576108cf611d21565b602002602001015193508461092c57608084015161ffff161561090557604051630189200360e11b815260040160405180910390fd5b60a084015161ffff161561092c5760405163a75b1cd560e01b815260040160405180910390fd5b606084015165ffffffffffff1661095657604051631e0a863160e31b815260040160405180910390fd5b606084015165ffffffffffff16604085015260006109748284611c59565b90508460016000336001600160a01b03166001600160a01b03168152602001908152602001600020600083815260200190815260200160002060008201518160000160006101000a8154816001600160501b0302191690836001600160501b03160217905550602082015181600001600a6101000a81548165ffffffffffff021916908365ffffffffffff16021790555060408201518160000160106101000a81548165ffffffffffff021916908365ffffffffffff16021790555060608201518160000160166101000a81548165ffffffffffff021916908365ffffffffffff160217905550608082015181600001601c6101000a81548161ffff021916908361ffff16021790555060a082015181600001601e6101000a81548161ffff021916908361ffff16021790555060c08201518160010155905050807f164c8d909d91efa7de5ec3faed46c54567500654902357d6398a97eaf0f00a5a8633604051610ae0929190611ba8565b60405180910390a250600019016108ad565b50610afd8282611c59565b336000908152602081905260409020555050505050565b610b1c61166d565b506040805180820182528281526001600160a01b038416600090815260016020818152848320868452815291849020845160e08101865281546001600160501b038116825265ffffffffffff600160501b8204811683870152600160801b8204811697830197909752600160b01b8104909616606082015261ffff600160e01b870481166080830152600160f01b90960490951660a0860152015460c084015281019190915292915050565b3360009081526004602090815260408083208584529091528120548190819060ff1615610c085760405163d32cb5c160e01b815260040160405180910390fd5b5033600090815260016020908152604080832087845290915290208054600160b01b900465ffffffffffff16610c5157604051630de5859f60e01b815260040160405180910390fd5b80546001600160501b0316861015610c7c57604051632cd294cf60e01b815260040160405180910390fd5b6040805160e08101825282546001600160501b038116825265ffffffffffff600160501b820481166020840152600160801b8204811693830193909352600160b01b8104909216606082015261ffff600160e01b830481166080830152600160f01b90920490911660a0820152600182015460c0820152610d00903390879061148b565b8154610d1b9190600160801b900465ffffffffffff16611cb2565b610d385760405163985a45d960e01b815260040160405180910390fd5b610d4385828661159d565b8154909350610d5b906001600160501b031687611cb2565b915050935093915050565b6001600160a01b038216600090815260208190526040812054805b80156105b6576001600160a01b0380861660009081526002602090815260408083209388168352928152828220848352905220548015610e01576001600160a01b0386166000908152600160209081526040808320858452909152902054610df490600160e01b900461ffff1682611c93565b610dfe9085611c59565b93505b5060001901610d81565b610e1361166d565b600060ff83166040805180820182528281526001600160a01b03871660009081526001602081815284832095835294855290839020835160e08101855281546001600160501b038116825265ffffffffffff600160501b8204811683890152600160801b8204811696830196909652600160b01b8104909516606082015261ffff600160e01b860481166080830152600160f01b90950490941660a0850152015460c08301529182015291505092915050565b3360008181526001602081815260408084208785528252808420815160e08101835281546001600160501b038116825265ffffffffffff600160501b8204811695830195909552600160801b8104851693820193909352600160b01b830490931660608481019190915261ffff600160e01b840481166080860152600160f01b90930490921660a08401529283015460c083015293919291610f6991879061148b565b905080841115610f8c5760405163226f999960e11b815260040160405180910390fd5b33600090815260036020908152604080832088845290915281208054869290610fb6908490611c59565b909155508490506001600160401b03811115610fd457610fd4611d37565b604051908082528060200260200182016040528015610ffd578160200160208202803683370190505b50925060005b8481101561105a573360009081526005602052604081205461103190889086906001600160a01b031661159d565b90508085838151811061104657611046611d21565b602090810291909101015250600101611003565b50505092915050565b6001600160a01b038116600090815260208190526040902054606090806001600160401b0381111561109757611097611d37565b6040519080825280602002602001820160405280156110d057816020015b6110bd61166d565b8152602001906001900390816110b55790505b5091506000815b80156111dc576001600160a01b038516600090815260046020908152604080832084845290915290205460ff166111d3576040805180820182528281526001600160a01b038716600090815260016020818152848320868452815291849020845160e08101865281546001600160501b038116825265ffffffffffff600160501b8204811683870152600160801b8204811697830197909752600160b01b8104909616606082015261ffff600160e01b870481166080830152600160f01b90960490951660a0860152015460c084015281019190915284518590849081106111c1576111c1611d21565b60200260200101819052508160010191505b600019016110d7565b508181146111e8578083525b5050919050565b336000908152602081905260408120548190819061120b611631565b6000825b801561132f5733600090815260046020908152604080832084845290915290205460ff1661132657336000908152600160208181526040808420858552825292839020835160e08101855281546001600160501b03811680835265ffffffffffff600160501b8304811695840195909552600160801b8204851696830196909652600160b01b8104909316606082015261ffff600160e01b840481166080830152600160f01b90930490921660a08301529091015460c08201529350821080156112e3575082516001600160501b03168a10155b801561130f57506112f533828561148b565b836040015165ffffffffffff1661130c9190611cb2565b15155b156113265782519095506001600160501b03169050845b6000190161120f565b50336000908152600160209081526040808320888452909152902061135586828b61159d565b96508661138357871561137b57604051630e5313df60e41b815260040160405180910390fd5b899450611390565b61138d828b611cb2565b94505b5050505093509350939050565b6001600160a01b0381166000908152602081905260408120548190805b80156107da576001600160a01b03851660009081526001602090815260408083208484529091529020805490935061140a9065ffffffffffff600160801b8204811691600160b01b900416611cc9565b61141c9065ffffffffffff1685611c59565b9350600019016113ba565b6001600160a01b038216600090815260208190526040812054805b80156105b6576001600160a01b0380861660009081526002602090815260408083209388168352928152828220848352905220546114809084611c59565b925060001901611442565b6000816060015165ffffffffffff16600014806114ae575060a082015161ffff16155b156114bb57506000611596565b816040015165ffffffffffff16826060015165ffffffffffff1614156114e357506001611596565b6001600160a01b038416600090815260036020908152604080832086845290915280822054908401516060850151919291839161151f91611cc9565b65ffffffffffff166115319190611cb2565b905060008460a0015161ffff16826115499190611c93565b9050600061155961271083611c71565b9050600061156982612710611c93565b6115739084611cb2565b11156115855761158281611cf0565b90505b61158f8482611cb2565b9450505050505b9392505050565b815460001965ffffffffffff600160801b808404821692830182160265ffffffffffff60801b19909316929092178085556000926115ec928792600160b01b90048216036001011660081b1790565b3360009081526002602090815260408083206001600160a01b03871684528252808320888452909152812080549293509161162690611cf0565b909155509392505050565b6040805160e081018252600080825260208201819052918101829052606081018290526080810182905260a0810182905260c081019190915290565b604051806040016040528060008152602001611687611631565b905290565b80356001600160a01b03811681146116a357600080fd5b919050565b600082601f8301126116b957600080fd5b813560206116ce6116c983611c36565b611c06565b80838252828201915082860187848660051b89010111156116ee57600080fd5b60005b8581101561170d578135845292840192908401906001016116f1565b5090979650505050505050565b803580151581146116a357600080fd5b803561ffff811681146116a357600080fd5b803565ffffffffffff811681146116a357600080fd5b60006020828403121561176457600080fd5b6108888261168c565b6000806040838503121561178057600080fd5b6117898361168c565b91506117976020840161168c565b90509250929050565b6000806000606084860312156117b557600080fd5b6117be8461168c565b92506117cc6020850161168c565b9150604084013590509250925092565b600080604083850312156117ef57600080fd5b6117f88361168c565b915060208301356001600160401b0381111561181357600080fd5b61181f858286016116a8565b9150509250929050565b6000806040838503121561183c57600080fd5b6118458361168c565b946020939093013593505050565b600080604080848603121561186757600080fd5b83356001600160401b0381111561187d57600080fd5b8401601f8101861361188e57600080fd5b8035602061189e6116c983611c36565b8281528181019084830160e0808602870185018c10156118bd57600080fd5b600096505b8587101561196b5780828d0312156118d957600080fd5b6118e1611bde565b82356001600160501b03811681146118f857600080fd5b815261190583870161173c565b8682015261191489840161173c565b89820152606061192581850161173c565b90820152608061193684820161172a565b9082015260a061194784820161172a565b9082015260c0838101359082015284526001969096019592840192908101906118c2565b5050809750505061197d81880161171a565b9450505050509250929050565b60006020828403121561199c57600080fd5b81356001600160401b038111156119b257600080fd5b6119be848285016116a8565b949350505050565b6000602082840312156119d857600080fd5b5035919050565b600080604083850312156119f257600080fd5b823591506117976020840161168c565b600080600060608486031215611a1757600080fd5b83359250611a276020850161168c565b9150611a356040850161171a565b90509250925092565b60008060408385031215611a5157600080fd5b50508035926020909101359150565b600080600060608486031215611a7557600080fd5b8335925060208401359150611a356040850161168c565b60018060501b038151168252602081015165ffffffffffff80821660208501528060408401511660408501528060608401511660608501525050608081015161ffff80821660808501528060a08401511660a0850152505060c081015160c08301525050565b805182526020810151611b086020840182611a8c565b505050565b6001600160a01b0391909116815260200190565b6020808252825182820181905260009190848201906040850190845b81811015611b6457611b50838551611af2565b928401926101009290920191600101611b3d565b50909695505050505050565b6020808252825182820181905260009190848201906040850190845b81811015611b6457835183529284019291840191600101611b8c565b6101008101611bb78285611a8c565b6001600160a01b039290921660e09190910152919050565b610100810161088b8284611af2565b60405160e081016001600160401b0381118282101715611c0057611c00611d37565b60405290565b604051601f8201601f191681016001600160401b0381118282101715611c2e57611c2e611d37565b604052919050565b60006001600160401b03821115611c4f57611c4f611d37565b5060051b60200190565b60008219821115611c6c57611c6c611d0b565b500190565b600082611c8e57634e487b7160e01b600052601260045260246000fd5b500490565b6000816000190483118215151615611cad57611cad611d0b565b500290565b600082821015611cc457611cc4611d0b565b500390565b600065ffffffffffff83811690831681811015611ce857611ce8611d0b565b039392505050565b6000600019821415611d0457611d04611d0b565b5060010190565b634e487b7160e01b600052601160045260246000fd5b634e487b7160e01b600052603260045260246000fd5b634e487b7160e01b600052604160045260246000fdfea26469706673582212206788a70a31a8652883c383839fb1257567c45e1671d4f71c924f887c76752af664736f6c63430008060033",
  "linkReferences": {},
  "deployedLinkReferences": {}
}