{
  "abi": [
    {
      "inputs": [
        {
          "internalType": "uint256",
          "name": "_projectId",
          "type": "uint256"
        },
        {
          "internalType": "contract IJBDirectory",
          "name": "_directory",
          "type": "address"
        },
        {
          "internalType": "string",
          "name": "_name",
          "type": "string"
        },
        {
          "internalType": "string",
          "name": "_symbol",
          "type": "string"
        },
        {
          "internalType": "contract IJBFundingCycleStore",
          "name": "_fundingCycleStore",
          "type": "address"
        },
        {
          "internalType": "string",
          "name": "_baseUri",
          "type": "string"
        },
        {
          "internalType": "contract IJBTokenUriResolver",
          "name": "_tokenUriResolver",
          "type": "address"
        },
        {
          "internalType": "string",
          "name": "_contractUri",
          "type": "string"
        },
        {
          "components": [
            {
              "internalType": "uint256",
              "name": "contributionFloor",
              "type": "uint256"
            },
            {
              "internalType": "uint256",
              "name": "lockedUntil",
              "type": "uint256"
            },
            {
              "internalType": "uint256",
              "name": "initialQuantity",
              "type": "uint256"
            },
            {
              "internalType": "uint256",
              "name": "votingUnits",
              "type": "uint256"
            },
            {
              "internalType": "uint256",
              "name": "reservedRate",
              "type": "uint256"
            },
            {
              "internalType": "address",
              "name": "reservedTokenBeneficiary",
              "type": "address"
            },
            {
              "internalType": "bytes32",
              "name": "encodedIPFSUri",
              "type": "bytes32"
            },
            {
              "internalType": "bool",
              "name": "shouldUseBeneficiaryAsDefault",
              "type": "bool"
            }
          ],
          "internalType": "struct JB721TierParams[]",
          "name": "_tiers",
          "type": "tuple[]"
        },
        {
          "internalType": "contract IJBTiered721DelegateStore",
          "name": "_store",
          "type": "address"
        },
        {
          "components": [
            {
              "internalType": "bool",
              "name": "lockReservedTokenChanges",
              "type": "bool"
            },
            {
              "internalType": "bool",
              "name": "lockVotingUnitChanges",
              "type": "bool"
            }
          ],
          "internalType": "struct JBTiered721Flags",
          "name": "_flags",
          "type": "tuple"
        }
      ],
      "stateMutability": "nonpayable",
      "type": "constructor"
    },
    {
      "inputs": [],
      "name": "ALEADY_MINTED",
      "type": "error"
    },
    {
      "inputs": [],
      "name": "APPROVAL_TO_CURRENT_OWNER",
      "type": "error"
    },
    {
      "inputs": [],
      "name": "APPROVE_TO_CALLER",
      "type": "error"
    },
    {
      "inputs": [],
      "name": "BLOCK_NOT_YET_MINED",
      "type": "error"
    },
    {
      "inputs": [],
      "name": "CALLER_NOT_OWNER_OR_APPROVED",
      "type": "error"
    },
    {
      "inputs": [],
      "name": "INCORRECT_OWNER",
      "type": "error"
    },
    {
      "inputs": [],
      "name": "INVALID",
      "type": "error"
    },
    {
      "inputs": [],
      "name": "INVALID_PAYMENT_EVENT",
      "type": "error"
    },
    {
      "inputs": [],
      "name": "INVALID_REDEMPTION_EVENT",
      "type": "error"
    },
    {
      "inputs": [],
      "name": "INVALID_TOKEN_ID",
      "type": "error"
    },
    {
      "inputs": [],
      "name": "MINT_TO_ZERO",
      "type": "error"
    },
    {
      "inputs": [],
      "name": "NOT_AVAILABLE",
      "type": "error"
    },
    {
      "inputs": [],
      "name": "OVERSPENDING",
      "type": "error"
    },
    {
      "inputs": [
        {
          "internalType": "uint256",
          "name": "prod1",
          "type": "uint256"
        },
        {
          "internalType": "uint256",
          "name": "denominator",
          "type": "uint256"
        }
      ],
      "name": "PRBMath__MulDivOverflow",
      "type": "error"
    },
    {
      "inputs": [],
      "name": "RESERVED_TOKEN_MINTING_PAUSED",
      "type": "error"
    },
    {
      "inputs": [],
      "name": "SIGNATURE_EXPIRED",
      "type": "error"
    },
    {
      "inputs": [],
      "name": "TRANSFERS_PAUSED",
      "type": "error"
    },
    {
      "inputs": [],
      "name": "TRANSFER_TO_NON_IMPLEMENTER",
      "type": "error"
    },
    {
      "inputs": [],
      "name": "TRANSFER_TO_ZERO_ADDRESS",
      "type": "error"
    },
    {
      "inputs": [],
      "name": "UNAUTHORIZED",
      "type": "error"
    },
    {
      "inputs": [],
      "name": "UNEXPECTED_TOKEN_REDEEMED",
      "type": "error"
    },
    {
      "anonymous": false,
      "inputs": [
        {
          "indexed": true,
          "internalType": "uint256",
          "name": "tierId",
          "type": "uint256"
        },
        {
          "components": [
            {
              "internalType": "uint256",
              "name": "contributionFloor",
              "type": "uint256"
            },
            {
              "internalType": "uint256",
              "name": "lockedUntil",
              "type": "uint256"
            },
            {
              "internalType": "uint256",
              "name": "initialQuantity",
              "type": "uint256"
            },
            {
              "internalType": "uint256",
              "name": "votingUnits",
              "type": "uint256"
            },
            {
              "internalType": "uint256",
              "name": "reservedRate",
              "type": "uint256"
            },
            {
              "internalType": "address",
              "name": "reservedTokenBeneficiary",
              "type": "address"
            },
            {
              "internalType": "bytes32",
              "name": "encodedIPFSUri",
              "type": "bytes32"
            },
            {
              "internalType": "bool",
              "name": "shouldUseBeneficiaryAsDefault",
              "type": "bool"
            }
          ],
          "indexed": false,
          "internalType": "struct JB721TierParams",
          "name": "data",
          "type": "tuple"
        },
        {
          "indexed": false,
          "internalType": "address",
          "name": "caller",
          "type": "address"
        }
      ],
      "name": "AddTier",
      "type": "event"
    },
    {
      "anonymous": false,
      "inputs": [
        {
          "indexed": true,
          "internalType": "address",
          "name": "owner",
          "type": "address"
        },
        {
          "indexed": true,
          "internalType": "address",
          "name": "approved",
          "type": "address"
        },
        {
          "indexed": true,
          "internalType": "uint256",
          "name": "tokenId",
          "type": "uint256"
        }
      ],
      "name": "Approval",
      "type": "event"
    },
    {
      "anonymous": false,
      "inputs": [
        {
          "indexed": true,
          "internalType": "address",
          "name": "owner",
          "type": "address"
        },
        {
          "indexed": true,
          "internalType": "address",
          "name": "operator",
          "type": "address"
        },
        {
          "indexed": false,
          "internalType": "bool",
          "name": "approved",
          "type": "bool"
        }
      ],
      "name": "ApprovalForAll",
      "type": "event"
    },
    {
      "anonymous": false,
      "inputs": [
        {
          "indexed": true,
          "internalType": "address",
          "name": "delegator",
          "type": "address"
        },
        {
          "indexed": true,
          "internalType": "address",
          "name": "fromDelegate",
          "type": "address"
        },
        {
          "indexed": true,
          "internalType": "address",
          "name": "toDelegate",
          "type": "address"
        }
      ],
      "name": "DelegateChanged",
      "type": "event"
    },
    {
      "anonymous": false,
      "inputs": [
        {
          "indexed": true,
          "internalType": "address",
          "name": "delegate",
          "type": "address"
        },
        {
          "indexed": false,
          "internalType": "uint256",
          "name": "previousBalance",
          "type": "uint256"
        },
        {
          "indexed": false,
          "internalType": "uint256",
          "name": "newBalance",
          "type": "uint256"
        }
      ],
      "name": "DelegateVotesChanged",
      "type": "event"
    },
    {
      "anonymous": false,
      "inputs": [
        {
          "indexed": true,
          "internalType": "uint256",
          "name": "tokenId",
          "type": "uint256"
        },
        {
          "indexed": true,
          "internalType": "uint256",
          "name": "tierId",
          "type": "uint256"
        },
        {
          "indexed": true,
          "internalType": "address",
          "name": "beneficiary",
          "type": "address"
        },
        {
          "indexed": false,
          "internalType": "uint256",
          "name": "totalAmountContributed",
          "type": "uint256"
        },
        {
          "indexed": false,
          "internalType": "address",
          "name": "caller",
          "type": "address"
        }
      ],
      "name": "Mint",
      "type": "event"
    },
    {
      "anonymous": false,
      "inputs": [
        {
          "indexed": true,
          "internalType": "uint256",
          "name": "tokenId",
          "type": "uint256"
        },
        {
          "indexed": true,
          "internalType": "uint256",
          "name": "tierId",
          "type": "uint256"
        },
        {
          "indexed": true,
          "internalType": "address",
          "name": "beneficiary",
          "type": "address"
        },
        {
          "indexed": false,
          "internalType": "address",
          "name": "caller",
          "type": "address"
        }
      ],
      "name": "MintReservedToken",
      "type": "event"
    },
    {
      "anonymous": false,
      "inputs": [
        {
          "indexed": true,
          "internalType": "address",
          "name": "previousOwner",
          "type": "address"
        },
        {
          "indexed": true,
          "internalType": "address",
          "name": "newOwner",
          "type": "address"
        }
      ],
      "name": "OwnershipTransferred",
      "type": "event"
    },
    {
      "anonymous": false,
      "inputs": [
        {
          "indexed": true,
          "internalType": "uint256",
          "name": "tierId",
          "type": "uint256"
        },
        {
          "indexed": false,
          "internalType": "address",
          "name": "caller",
          "type": "address"
        }
      ],
      "name": "RemoveTier",
      "type": "event"
    },
    {
      "anonymous": false,
      "inputs": [
        {
          "indexed": true,
          "internalType": "string",
          "name": "baseUri",
          "type": "string"
        },
        {
          "indexed": false,
          "internalType": "address",
          "name": "caller",
          "type": "address"
        }
      ],
      "name": "SetBaseUri",
      "type": "event"
    },
    {
      "anonymous": false,
      "inputs": [
        {
          "indexed": true,
          "internalType": "string",
          "name": "contractUri",
          "type": "string"
        },
        {
          "indexed": false,
          "internalType": "address",
          "name": "caller",
          "type": "address"
        }
      ],
      "name": "SetContractUri",
      "type": "event"
    },
    {
      "anonymous": false,
      "inputs": [
        {
          "indexed": true,
          "internalType": "address",
          "name": "beneficiary",
          "type": "address"
        },
        {
          "indexed": false,
          "internalType": "address",
          "name": "caller",
          "type": "address"
        }
      ],
      "name": "SetDefaultReservedTokenBeneficiary",
      "type": "event"
    },
    {
      "anonymous": false,
      "inputs": [
        {
          "indexed": true,
          "internalType": "contract IJBTokenUriResolver",
          "name": "newResolver",
          "type": "address"
        },
        {
          "indexed": false,
          "internalType": "address",
          "name": "caller",
          "type": "address"
        }
      ],
      "name": "SetTokenUriResolver",
      "type": "event"
    },
    {
      "anonymous": false,
      "inputs": [
        {
          "indexed": true,
          "internalType": "address",
          "name": "delegator",
          "type": "address"
        },
        {
          "indexed": true,
          "internalType": "address",
          "name": "fromDelegate",
          "type": "address"
        },
        {
          "indexed": true,
          "internalType": "address",
          "name": "toDelegate",
          "type": "address"
        },
        {
          "indexed": false,
          "internalType": "uint256",
          "name": "tierId",
          "type": "uint256"
        },
        {
          "indexed": false,
          "internalType": "address",
          "name": "caller",
          "type": "address"
        }
      ],
      "name": "TierDelegateChanged",
      "type": "event"
    },
    {
      "anonymous": false,
      "inputs": [
        {
          "indexed": true,
          "internalType": "address",
          "name": "delegate",
          "type": "address"
        },
        {
          "indexed": true,
          "internalType": "uint256",
          "name": "tierId",
          "type": "uint256"
        },
        {
          "indexed": false,
          "internalType": "uint256",
          "name": "previousBalance",
          "type": "uint256"
        },
        {
          "indexed": false,
          "internalType": "uint256",
          "name": "newBalance",
          "type": "uint256"
        },
        {
          "indexed": false,
          "internalType": "address",
          "name": "callre",
          "type": "address"
        }
      ],
      "name": "TierDelegateVotesChanged",
      "type": "event"
    },
    {
      "anonymous": false,
      "inputs": [
        {
          "indexed": true,
          "internalType": "address",
          "name": "from",
          "type": "address"
        },
        {
          "indexed": true,
          "internalType": "address",
          "name": "to",
          "type": "address"
        },
        {
          "indexed": true,
          "internalType": "uint256",
          "name": "tokenId",
          "type": "uint256"
        }
      ],
      "name": "Transfer",
      "type": "event"
    },
    {
      "inputs": [],
      "name": "DOMAIN_SEPARATOR",
      "outputs": [
        {
          "internalType": "bytes32",
          "name": "",
          "type": "bytes32"
        }
      ],
      "stateMutability": "view",
      "type": "function"
    },
    {
      "inputs": [
        {
          "components": [
            {
              "internalType": "uint256",
              "name": "contributionFloor",
              "type": "uint256"
            },
            {
              "internalType": "uint256",
              "name": "lockedUntil",
              "type": "uint256"
            },
            {
              "internalType": "uint256",
              "name": "initialQuantity",
              "type": "uint256"
            },
            {
              "internalType": "uint256",
              "name": "votingUnits",
              "type": "uint256"
            },
            {
              "internalType": "uint256",
              "name": "reservedRate",
              "type": "uint256"
            },
            {
              "internalType": "address",
              "name": "reservedTokenBeneficiary",
              "type": "address"
            },
            {
              "internalType": "bytes32",
              "name": "encodedIPFSUri",
              "type": "bytes32"
            },
            {
              "internalType": "bool",
              "name": "shouldUseBeneficiaryAsDefault",
              "type": "bool"
            }
          ],
          "internalType": "struct JB721TierParams[]",
          "name": "_tiersToAdd",
          "type": "tuple[]"
        },
        {
          "internalType": "uint256[]",
          "name": "_tierIdsToRemove",
          "type": "uint256[]"
        }
      ],
      "name": "adjustTiers",
      "outputs": [],
      "stateMutability": "nonpayable",
      "type": "function"
    },
    {
      "inputs": [
        {
          "internalType": "address",
          "name": "to",
          "type": "address"
        },
        {
          "internalType": "uint256",
          "name": "tokenId",
          "type": "uint256"
        }
      ],
      "name": "approve",
      "outputs": [],
      "stateMutability": "nonpayable",
      "type": "function"
    },
    {
      "inputs": [
        {
          "internalType": "address",
          "name": "_owner",
          "type": "address"
        }
      ],
      "name": "balanceOf",
      "outputs": [
        {
          "internalType": "uint256",
          "name": "balance",
          "type": "uint256"
        }
      ],
      "stateMutability": "view",
      "type": "function"
    },
    {
      "inputs": [],
      "name": "contractURI",
      "outputs": [
        {
          "internalType": "string",
          "name": "",
          "type": "string"
        }
      ],
      "stateMutability": "view",
      "type": "function"
    },
    {
      "inputs": [],
      "name": "contributionToken",
      "outputs": [
        {
          "internalType": "address",
          "name": "",
          "type": "address"
        }
      ],
      "stateMutability": "view",
      "type": "function"
    },
    {
      "inputs": [
        {
          "internalType": "address",
          "name": "delegatee",
          "type": "address"
        }
      ],
      "name": "delegate",
      "outputs": [],
      "stateMutability": "nonpayable",
      "type": "function"
    },
    {
      "inputs": [
        {
          "internalType": "address",
          "name": "delegatee",
          "type": "address"
        },
        {
          "internalType": "uint256",
          "name": "nonce",
          "type": "uint256"
        },
        {
          "internalType": "uint256",
          "name": "expiry",
          "type": "uint256"
        },
        {
          "internalType": "uint8",
          "name": "v",
          "type": "uint8"
        },
        {
          "internalType": "bytes32",
          "name": "r",
          "type": "bytes32"
        },
        {
          "internalType": "bytes32",
          "name": "s",
          "type": "bytes32"
        }
      ],
      "name": "delegateBySig",
      "outputs": [],
      "stateMutability": "nonpayable",
      "type": "function"
    },
    {
      "inputs": [
        {
          "internalType": "address",
          "name": "account",
          "type": "address"
        }
      ],
      "name": "delegates",
      "outputs": [
        {
          "internalType": "address",
          "name": "",
          "type": "address"
        }
      ],
      "stateMutability": "view",
      "type": "function"
    },
    {
      "inputs": [
        {
          "components": [
            {
              "internalType": "address",
              "name": "payer",
              "type": "address"
            },
            {
              "internalType": "uint256",
              "name": "projectId",
              "type": "uint256"
            },
            {
              "internalType": "uint256",
              "name": "currentFundingCycleConfiguration",
              "type": "uint256"
            },
            {
              "components": [
                {
                  "internalType": "address",
                  "name": "token",
                  "type": "address"
                },
                {
                  "internalType": "uint256",
                  "name": "value",
                  "type": "uint256"
                },
                {
                  "internalType": "uint256",
                  "name": "decimals",
                  "type": "uint256"
                },
                {
                  "internalType": "uint256",
                  "name": "currency",
                  "type": "uint256"
                }
              ],
              "internalType": "struct JBTokenAmount",
              "name": "amount",
              "type": "tuple"
            },
            {
              "components": [
                {
                  "internalType": "address",
                  "name": "token",
                  "type": "address"
                },
                {
                  "internalType": "uint256",
                  "name": "value",
                  "type": "uint256"
                },
                {
                  "internalType": "uint256",
                  "name": "decimals",
                  "type": "uint256"
                },
                {
                  "internalType": "uint256",
                  "name": "currency",
                  "type": "uint256"
                }
              ],
              "internalType": "struct JBTokenAmount",
              "name": "forwardedAmount",
              "type": "tuple"
            },
            {
              "internalType": "uint256",
              "name": "projectTokenCount",
              "type": "uint256"
            },
            {
              "internalType": "address",
              "name": "beneficiary",
              "type": "address"
            },
            {
              "internalType": "bool",
              "name": "preferClaimedTokens",
              "type": "bool"
            },
            {
              "internalType": "string",
              "name": "memo",
              "type": "string"
            },
            {
              "internalType": "bytes",
              "name": "metadata",
              "type": "bytes"
            }
          ],
          "internalType": "struct JBDidPayData",
          "name": "_data",
          "type": "tuple"
        }
      ],
      "name": "didPay",
      "outputs": [],
      "stateMutability": "payable",
      "type": "function"
    },
    {
      "inputs": [
        {
          "components": [
            {
              "internalType": "address",
              "name": "holder",
              "type": "address"
            },
            {
              "internalType": "uint256",
              "name": "projectId",
              "type": "uint256"
            },
            {
              "internalType": "uint256",
              "name": "currentFundingCycleConfiguration",
              "type": "uint256"
            },
            {
              "internalType": "uint256",
              "name": "projectTokenCount",
              "type": "uint256"
            },
            {
              "components": [
                {
                  "internalType": "address",
                  "name": "token",
                  "type": "address"
                },
                {
                  "internalType": "uint256",
                  "name": "value",
                  "type": "uint256"
                },
                {
                  "internalType": "uint256",
                  "name": "decimals",
                  "type": "uint256"
                },
                {
                  "internalType": "uint256",
                  "name": "currency",
                  "type": "uint256"
                }
              ],
              "internalType": "struct JBTokenAmount",
              "name": "reclaimedAmount",
              "type": "tuple"
            },
            {
              "components": [
                {
                  "internalType": "address",
                  "name": "token",
                  "type": "address"
                },
                {
                  "internalType": "uint256",
                  "name": "value",
                  "type": "uint256"
                },
                {
                  "internalType": "uint256",
                  "name": "decimals",
                  "type": "uint256"
                },
                {
                  "internalType": "uint256",
                  "name": "currency",
                  "type": "uint256"
                }
              ],
              "internalType": "struct JBTokenAmount",
              "name": "forwardedAmount",
              "type": "tuple"
            },
            {
              "internalType": "address payable",
              "name": "beneficiary",
              "type": "address"
            },
            {
              "internalType": "string",
              "name": "memo",
              "type": "string"
            },
            {
              "internalType": "bytes",
              "name": "metadata",
              "type": "bytes"
            }
          ],
          "internalType": "struct JBDidRedeemData",
          "name": "_data",
          "type": "tuple"
        }
      ],
      "name": "didRedeem",
      "outputs": [],
      "stateMutability": "payable",
      "type": "function"
    },
    {
      "inputs": [],
      "name": "directory",
      "outputs": [
        {
          "internalType": "contract IJBDirectory",
          "name": "",
          "type": "address"
        }
      ],
      "stateMutability": "view",
      "type": "function"
    },
    {
      "inputs": [
        {
          "internalType": "uint256",
          "name": "_tokenId",
          "type": "uint256"
        }
      ],
      "name": "firstOwnerOf",
      "outputs": [
        {
          "internalType": "address",
          "name": "",
          "type": "address"
        }
      ],
      "stateMutability": "view",
      "type": "function"
    },
    {
      "inputs": [],
      "name": "fundingCycleStore",
      "outputs": [
        {
          "internalType": "contract IJBFundingCycleStore",
          "name": "",
          "type": "address"
        }
      ],
      "stateMutability": "view",
      "type": "function"
    },
    {
      "inputs": [
        {
          "internalType": "uint256",
          "name": "tokenId",
          "type": "uint256"
        }
      ],
      "name": "getApproved",
      "outputs": [
        {
          "internalType": "address",
          "name": "",
          "type": "address"
        }
      ],
      "stateMutability": "view",
      "type": "function"
    },
    {
      "inputs": [
        {
          "internalType": "uint256",
          "name": "_tier",
          "type": "uint256"
        },
        {
          "internalType": "uint256",
          "name": "_blockNumber",
          "type": "uint256"
        }
      ],
      "name": "getPastTierTotalVotes",
      "outputs": [
        {
          "internalType": "uint256",
          "name": "",
          "type": "uint256"
        }
      ],
      "stateMutability": "view",
      "type": "function"
    },
    {
      "inputs": [
        {
          "internalType": "address",
          "name": "_account",
          "type": "address"
        },
        {
          "internalType": "uint256",
          "name": "_tier",
          "type": "uint256"
        },
        {
          "internalType": "uint256",
          "name": "_blockNumber",
          "type": "uint256"
        }
      ],
      "name": "getPastTierVotes",
      "outputs": [
        {
          "internalType": "uint256",
          "name": "",
          "type": "uint256"
        }
      ],
      "stateMutability": "view",
      "type": "function"
    },
    {
      "inputs": [
        {
          "internalType": "uint256",
          "name": "blockNumber",
          "type": "uint256"
        }
      ],
      "name": "getPastTotalSupply",
      "outputs": [
        {
          "internalType": "uint256",
          "name": "",
          "type": "uint256"
        }
      ],
      "stateMutability": "view",
      "type": "function"
    },
    {
      "inputs": [
        {
          "internalType": "address",
          "name": "account",
          "type": "address"
        },
        {
          "internalType": "uint256",
          "name": "blockNumber",
          "type": "uint256"
        }
      ],
      "name": "getPastVotes",
      "outputs": [
        {
          "internalType": "uint256",
          "name": "",
          "type": "uint256"
        }
      ],
      "stateMutability": "view",
      "type": "function"
    },
    {
      "inputs": [
        {
          "internalType": "address",
          "name": "_account",
          "type": "address"
        },
        {
          "internalType": "uint256",
          "name": "_tier",
          "type": "uint256"
        }
      ],
      "name": "getTierDelegate",
      "outputs": [
        {
          "internalType": "address",
          "name": "",
          "type": "address"
        }
      ],
      "stateMutability": "view",
      "type": "function"
    },
    {
      "inputs": [
        {
          "internalType": "uint256",
          "name": "_tier",
          "type": "uint256"
        }
      ],
      "name": "getTierTotalVotes",
      "outputs": [
        {
          "internalType": "uint256",
          "name": "",
          "type": "uint256"
        }
      ],
      "stateMutability": "view",
      "type": "function"
    },
    {
      "inputs": [
        {
          "internalType": "address",
          "name": "_account",
          "type": "address"
        },
        {
          "internalType": "uint256",
          "name": "_tier",
          "type": "uint256"
        }
      ],
      "name": "getTierVotes",
      "outputs": [
        {
          "internalType": "uint256",
          "name": "",
          "type": "uint256"
        }
      ],
      "stateMutability": "view",
      "type": "function"
    },
    {
      "inputs": [
        {
          "internalType": "address",
          "name": "account",
          "type": "address"
        }
      ],
      "name": "getVotes",
      "outputs": [
        {
          "internalType": "uint256",
          "name": "",
          "type": "uint256"
        }
      ],
      "stateMutability": "view",
      "type": "function"
    },
    {
      "inputs": [
        {
          "internalType": "address",
          "name": "owner",
          "type": "address"
        },
        {
          "internalType": "address",
          "name": "operator",
          "type": "address"
        }
      ],
      "name": "isApprovedForAll",
      "outputs": [
        {
          "internalType": "bool",
          "name": "",
          "type": "bool"
        }
      ],
      "stateMutability": "view",
      "type": "function"
    },
    {
      "inputs": [
        {
          "components": [
            {
              "internalType": "uint256",
              "name": "tierId",
              "type": "uint256"
            },
            {
              "internalType": "uint256",
              "name": "count",
              "type": "uint256"
            }
          ],
          "internalType": "struct JBTiered721MintReservesForTiersData[]",
          "name": "_mintReservesForTiersData",
          "type": "tuple[]"
        }
      ],
      "name": "mintReservesFor",
      "outputs": [],
      "stateMutability": "nonpayable",
      "type": "function"
    },
    {
      "inputs": [],
      "name": "name",
      "outputs": [
        {
          "internalType": "string",
          "name": "",
          "type": "string"
        }
      ],
      "stateMutability": "view",
      "type": "function"
    },
    {
      "inputs": [
        {
          "internalType": "address",
          "name": "owner",
          "type": "address"
        }
      ],
      "name": "nonces",
      "outputs": [
        {
          "internalType": "uint256",
          "name": "",
          "type": "uint256"
        }
      ],
      "stateMutability": "view",
      "type": "function"
    },
    {
      "inputs": [],
      "name": "owner",
      "outputs": [
        {
          "internalType": "address",
          "name": "",
          "type": "address"
        }
      ],
      "stateMutability": "view",
      "type": "function"
    },
    {
      "inputs": [
        {
          "internalType": "uint256",
          "name": "tokenId",
          "type": "uint256"
        }
      ],
      "name": "ownerOf",
      "outputs": [
        {
          "internalType": "address",
          "name": "",
          "type": "address"
        }
      ],
      "stateMutability": "view",
      "type": "function"
    },
    {
      "inputs": [
        {
          "components": [
            {
              "internalType": "contract IJBPaymentTerminal",
              "name": "terminal",
              "type": "address"
            },
            {
              "internalType": "address",
              "name": "payer",
              "type": "address"
            },
            {
              "components": [
                {
                  "internalType": "address",
                  "name": "token",
                  "type": "address"
                },
                {
                  "internalType": "uint256",
                  "name": "value",
                  "type": "uint256"
                },
                {
                  "internalType": "uint256",
                  "name": "decimals",
                  "type": "uint256"
                },
                {
                  "internalType": "uint256",
                  "name": "currency",
                  "type": "uint256"
                }
              ],
              "internalType": "struct JBTokenAmount",
              "name": "amount",
              "type": "tuple"
            },
            {
              "internalType": "uint256",
              "name": "projectId",
              "type": "uint256"
            },
            {
              "internalType": "uint256",
              "name": "currentFundingCycleConfiguration",
              "type": "uint256"
            },
            {
              "internalType": "address",
              "name": "beneficiary",
              "type": "address"
            },
            {
              "internalType": "uint256",
              "name": "weight",
              "type": "uint256"
            },
            {
              "internalType": "uint256",
              "name": "reservedRate",
              "type": "uint256"
            },
            {
              "internalType": "string",
              "name": "memo",
              "type": "string"
            },
            {
              "internalType": "bytes",
              "name": "metadata",
              "type": "bytes"
            }
          ],
          "internalType": "struct JBPayParamsData",
          "name": "_data",
          "type": "tuple"
        }
      ],
      "name": "payParams",
      "outputs": [
        {
          "internalType": "uint256",
          "name": "weight",
          "type": "uint256"
        },
        {
          "internalType": "string",
          "name": "memo",
          "type": "string"
        },
        {
          "components": [
            {
              "internalType": "contract IJBPayDelegate",
              "name": "delegate",
              "type": "address"
            },
            {
              "internalType": "uint256",
              "name": "amount",
              "type": "uint256"
            }
          ],
          "internalType": "struct JBPayDelegateAllocation[]",
          "name": "delegateAllocations",
          "type": "tuple[]"
        }
      ],
      "stateMutability": "view",
      "type": "function"
    },
    {
      "inputs": [],
      "name": "projectId",
      "outputs": [
        {
          "internalType": "uint256",
          "name": "",
          "type": "uint256"
        }
      ],
      "stateMutability": "view",
      "type": "function"
    },
    {
      "inputs": [
        {
          "components": [
            {
              "internalType": "contract IJBPaymentTerminal",
              "name": "terminal",
              "type": "address"
            },
            {
              "internalType": "address",
              "name": "holder",
              "type": "address"
            },
            {
              "internalType": "uint256",
              "name": "projectId",
              "type": "uint256"
            },
            {
              "internalType": "uint256",
              "name": "currentFundingCycleConfiguration",
              "type": "uint256"
            },
            {
              "internalType": "uint256",
              "name": "tokenCount",
              "type": "uint256"
            },
            {
              "internalType": "uint256",
              "name": "totalSupply",
              "type": "uint256"
            },
            {
              "internalType": "uint256",
              "name": "overflow",
              "type": "uint256"
            },
            {
              "components": [
                {
                  "internalType": "address",
                  "name": "token",
                  "type": "address"
                },
                {
                  "internalType": "uint256",
                  "name": "value",
                  "type": "uint256"
                },
                {
                  "internalType": "uint256",
                  "name": "decimals",
                  "type": "uint256"
                },
                {
                  "internalType": "uint256",
                  "name": "currency",
                  "type": "uint256"
                }
              ],
              "internalType": "struct JBTokenAmount",
              "name": "reclaimAmount",
              "type": "tuple"
            },
            {
              "internalType": "bool",
              "name": "useTotalOverflow",
              "type": "bool"
            },
            {
              "internalType": "uint256",
              "name": "redemptionRate",
              "type": "uint256"
            },
            {
              "internalType": "string",
              "name": "memo",
              "type": "string"
            },
            {
              "internalType": "bytes",
              "name": "metadata",
              "type": "bytes"
            }
          ],
          "internalType": "struct JBRedeemParamsData",
          "name": "_data",
          "type": "tuple"
        }
      ],
      "name": "redeemParams",
      "outputs": [
        {
          "internalType": "uint256",
          "name": "reclaimAmount",
          "type": "uint256"
        },
        {
          "internalType": "string",
          "name": "memo",
          "type": "string"
        },
        {
          "components": [
            {
              "internalType": "contract IJBRedemptionDelegate",
              "name": "delegate",
              "type": "address"
            },
            {
              "internalType": "uint256",
              "name": "amount",
              "type": "uint256"
            }
          ],
          "internalType": "struct JBRedemptionDelegateAllocation[]",
          "name": "delegateAllocations",
          "type": "tuple[]"
        }
      ],
      "stateMutability": "view",
      "type": "function"
    },
    {
      "inputs": [],
      "name": "renounceOwnership",
      "outputs": [],
      "stateMutability": "nonpayable",
      "type": "function"
    },
    {
      "inputs": [
        {
          "internalType": "address",
          "name": "from",
          "type": "address"
        },
        {
          "internalType": "address",
          "name": "to",
          "type": "address"
        },
        {
          "internalType": "uint256",
          "name": "tokenId",
          "type": "uint256"
        }
      ],
      "name": "safeTransferFrom",
      "outputs": [],
      "stateMutability": "nonpayable",
      "type": "function"
    },
    {
      "inputs": [
        {
          "internalType": "address",
          "name": "from",
          "type": "address"
        },
        {
          "internalType": "address",
          "name": "to",
          "type": "address"
        },
        {
          "internalType": "uint256",
          "name": "tokenId",
          "type": "uint256"
        },
        {
          "internalType": "bytes",
          "name": "data",
          "type": "bytes"
        }
      ],
      "name": "safeTransferFrom",
      "outputs": [],
      "stateMutability": "nonpayable",
      "type": "function"
    },
    {
      "inputs": [
        {
          "internalType": "address",
          "name": "operator",
          "type": "address"
        },
        {
          "internalType": "bool",
          "name": "approved",
          "type": "bool"
        }
      ],
      "name": "setApprovalForAll",
      "outputs": [],
      "stateMutability": "nonpayable",
      "type": "function"
    },
    {
      "inputs": [
        {
          "internalType": "string",
          "name": "_baseUri",
          "type": "string"
        }
      ],
      "name": "setBaseUri",
      "outputs": [],
      "stateMutability": "nonpayable",
      "type": "function"
    },
    {
      "inputs": [
        {
          "internalType": "string",
          "name": "_contractUri",
          "type": "string"
        }
      ],
      "name": "setContractUri",
      "outputs": [],
      "stateMutability": "nonpayable",
      "type": "function"
    },
    {
      "inputs": [
        {
          "internalType": "address",
          "name": "_beneficiary",
          "type": "address"
        }
      ],
      "name": "setDefaultReservedTokenBeneficiary",
      "outputs": [],
      "stateMutability": "nonpayable",
      "type": "function"
    },
    {
      "inputs": [
        {
          "internalType": "address",
          "name": "_delegatee",
          "type": "address"
        },
        {
          "internalType": "uint256",
          "name": "_tierId",
          "type": "uint256"
        }
      ],
      "name": "setTierDelegate",
      "outputs": [],
      "stateMutability": "nonpayable",
      "type": "function"
    },
    {
      "inputs": [
        {
          "internalType": "contract IJBTokenUriResolver",
          "name": "_tokenUriResolver",
          "type": "address"
        }
      ],
      "name": "setTokenUriResolver",
      "outputs": [],
      "stateMutability": "nonpayable",
      "type": "function"
    },
    {
      "inputs": [],
      "name": "store",
      "outputs": [
        {
          "internalType": "contract IJBTiered721DelegateStore",
          "name": "",
          "type": "address"
        }
      ],
      "stateMutability": "view",
      "type": "function"
    },
    {
      "inputs": [
        {
          "internalType": "bytes4",
          "name": "_interfaceId",
          "type": "bytes4"
        }
      ],
      "name": "supportsInterface",
      "outputs": [
        {
          "internalType": "bool",
          "name": "",
          "type": "bool"
        }
      ],
      "stateMutability": "view",
      "type": "function"
    },
    {
      "inputs": [],
      "name": "symbol",
      "outputs": [
        {
          "internalType": "string",
          "name": "",
          "type": "string"
        }
      ],
      "stateMutability": "view",
      "type": "function"
    },
    {
      "inputs": [
        {
          "internalType": "uint256",
          "name": "_tokenId",
          "type": "uint256"
        }
      ],
      "name": "tokenURI",
      "outputs": [
        {
          "internalType": "string",
          "name": "",
          "type": "string"
        }
      ],
      "stateMutability": "view",
      "type": "function"
    },
    {
      "inputs": [
        {
          "internalType": "address",
          "name": "from",
          "type": "address"
        },
        {
          "internalType": "address",
          "name": "to",
          "type": "address"
        },
        {
          "internalType": "uint256",
          "name": "tokenId",
          "type": "uint256"
        }
      ],
      "name": "transferFrom",
      "outputs": [],
      "stateMutability": "nonpayable",
      "type": "function"
    },
    {
      "inputs": [
        {
          "internalType": "address",
          "name": "newOwner",
          "type": "address"
        }
      ],
      "name": "transferOwnership",
      "outputs": [],
      "stateMutability": "nonpayable",
      "type": "function"
    }
  ],
  "bytecode": {
    "object": "0x6101e060405261eeee6101c0523480156200001957600080fd5b5060405162005b2b38038062005b2b8339810160408190526200003c916200071f565b6040805180820190915260018152603160f81b602082015289908c8c838c818160006200006a838262000917565b50600162000079828262000917565b505050608093909352506001600160a01b031660a0525081516020808401919091208251918301919091206101208290526101408190524660e0527f8b73c3c69bb8fe3d512ecc4cf759cc79239f7b179b0ffacaa9a75d522b39400f620001258184846040805160208101859052908101839052606081018290524660808201523060a082015260009060c0016040516020818303038152906040528051906020012090509392505050565b60c05230610100526101605250620001499250620001439150503390565b6200040b565b6001600160a01b038088166101a052821661018052855115620001c9576040516331315e5960e11b81526001600160a01b03831690636262bcb29062000194908990600401620009e3565b600060405180830381600087803b158015620001af57600080fd5b505af1158015620001c4573d6000803e3d6000fd5b505050505b835115620002345760405163d67b78fd60e01b81526001600160a01b0383169063d67b78fd90620001ff908790600401620009e3565b600060405180830381600087803b1580156200021a57600080fd5b505af11580156200022f573d6000803e3d6000fd5b505050505b6001600160a01b03851615620002a25760405163036129cb60e61b81526001600160a01b03868116600483015283169063d84a72c090602401600060405180830381600087803b1580156200028857600080fd5b505af11580156200029d573d6000803e3d6000fd5b505050505b82511562000324576040516309d865d560e21b81526001600160a01b03831690632761975490620002d890869060040162000a18565b6000604051808303816000875af1158015620002f8573d6000803e3d6000fd5b505050506040513d6000823e601f3d908101601f1916820160405262000322919081019062000ab2565b505b8051156200038c5780516040516303e6ca0360e11b815290151560048201526001600160a01b038316906307cd940690602401600060405180830381600087803b1580156200037257600080fd5b505af115801562000387573d6000803e3d6000fd5b505050505b806020015115620003fa576020810151604051631877d7b160e01b815290151560048201526001600160a01b03831690631877d7b190602401600060405180830381600087803b158015620003e057600080fd5b505af1158015620003f5573d6000803e3d6000fd5b505050505b505050505050505050505062000b4b565b600980546001600160a01b038381166001600160a01b0319831681179093556040519116919082907f8be0079c531659141344cd1fd0a4f28419497f9722a3daafe3b4186f6b6457e090600090a35050565b6001600160a01b03811681146200047357600080fd5b50565b805162000483816200045d565b919050565b634e487b7160e01b600052604160045260246000fd5b60405161010081016001600160401b0381118282101715620004c457620004c462000488565b60405290565b604051601f8201601f191681016001600160401b0381118282101715620004f557620004f562000488565b604052919050565b60005b838110156200051a57818101518382015260200162000500565b50506000910152565b600082601f8301126200053557600080fd5b81516001600160401b0381111562000551576200055162000488565b62000566601f8201601f1916602001620004ca565b8181528460208386010111156200057c57600080fd5b6200058f826020830160208701620004fd565b949350505050565b60006001600160401b03821115620005b357620005b362000488565b5060051b60200190565b805180151581146200048357600080fd5b600082601f830112620005e057600080fd5b81516020620005f9620005f38362000597565b620004ca565b82815260089290921b840181019181810190868411156200061957600080fd5b8286015b84811015620006af576101008189031215620006395760008081fd5b620006436200049e565b81518152848201518582015260408083015190820152606080830151908201526080808301519082015260a0808301516200067e816200045d565b9082015260c0828101519082015260e06200069b818401620005bd565b90820152835291830191610100016200061d565b509695505050505050565b600060408284031215620006cd57600080fd5b604080519081016001600160401b0381118282101715620006f257620006f262000488565b6040529050806200070383620005bd565b81526200071360208401620005bd565b60208201525092915050565b60008060008060008060008060008060006101808c8e0312156200074257600080fd5b8b519a506200075460208d0162000476565b60408d0151909a506001600160401b038111156200077157600080fd5b6200077f8e828f0162000523565b60608e0151909a5090506001600160401b038111156200079e57600080fd5b620007ac8e828f0162000523565b985050620007bd60808d0162000476565b60a08d01519097506001600160401b03811115620007da57600080fd5b620007e88e828f0162000523565b965050620007f960c08d0162000476565b60e08d01519095506001600160401b038111156200081657600080fd5b620008248e828f0162000523565b6101008e015190955090506001600160401b038111156200084457600080fd5b620008528e828f01620005ce565b935050620008646101208d0162000476565b9150620008768d6101408e01620006ba565b90509295989b509295989b9093969950565b600181811c908216806200089d57607f821691505b602082108103620008be57634e487b7160e01b600052602260045260246000fd5b50919050565b601f8211156200091257600081815260208120601f850160051c81016020861015620008ed5750805b601f850160051c820191505b818110156200090e57828155600101620008f9565b5050505b505050565b81516001600160401b0381111562000933576200093362000488565b6200094b8162000944845462000888565b84620008c4565b602080601f8311600181146200098357600084156200096a5750858301515b600019600386901b1c1916600185901b1785556200090e565b600085815260208120601f198616915b82811015620009b45788860151825594840194600190910190840162000993565b5085821015620009d35787850151600019600388901b60f8161c191681555b5050505050600190811b01905550565b602081526000825180602084015262000a04816040850160208701620004fd565b601f01601f19169190910160400192915050565b602080825282518282018190526000919060409081850190868401855b8281101562000aa55781518051855286810151878601528581015186860152606080820151908601526080808201519086015260a0808201516001600160a01b03169086015260c0808201519086015260e090810151151590850152610100909301929085019060010162000a35565b5091979650505050505050565b6000602080838503121562000ac657600080fd5b82516001600160401b0381111562000add57600080fd5b8301601f8101851362000aef57600080fd5b805162000b00620005f38262000597565b81815260059190911b8201830190838101908783111562000b2057600080fd5b928401925b8284101562000b405783518252928401929084019062000b25565b979650505050505050565b60805160a05160c05160e05161010051610120516101405161016051610180516101a0516101c051614e5d62000cce6000396000818161045a0152612c880152600081816104ae01528181610bdb0152612e6401526000818161066601528181610b0501528181610cad01528181610d76015281816110b6015281816111c0015281816112fd0152818161141c015281816115100152818161196c01528181611a9601528181611b2101528181611c1901528181611f5801528181612007015281816125250152818161299e015281816129ed01528181612f4101528181612fe2015281816130630152818161310b015281816131db01528181613378015281816138e20152613a3d0152600061261901526000612668015260006126430152600061259c015260006125c6015260006125f00152600081816107a901528181610ec60152611e6601526000818161040601528181610bb201528181610e9a01528181610f4301528181611e3a01528181611ee30152612e3b0152614e5d6000f3fe6080604052600436106102885760003560e01c80638e539e8c1161015a578063c41c2f24116100c1578063d46cf1711161007a578063d46cf1711461086b578063da9ee8b71461088b578063df487e261461089e578063e8a3d485146108be578063e985e9c5146108d3578063f2fde38b1461091c57600080fd5b8063c41c2f2414610797578063c87b56dd146107cb578063ca323efe146107eb578063ccb4807b1461080b578063d31cc52c1461082b578063d40e71461461084b57600080fd5b8063a0bcfc7f11610113578063a0bcfc7f146106c8578063a22cb465146106e8578063a51cfd1814610708578063ab951e3914610737578063b88d4fde14610757578063c3cda5201461077757600080fd5b80638e539e8c146105ff57806394c5c5ca1461061f57806395d89b411461063f578063975057e7146106545780639ab24eb0146106885780639d927a50146106a857600080fd5b806342842e0e116101fe5780636352211e116101b75780636352211e1461052957806370a0823114610549578063715018a6146105695780637ecebe001461057e57806382732b6d1461059e5780638da5cb5b146105e157600080fd5b806342842e0e146104285780634bedf9a81461044857806354c6d1f51461047c578063557e71551461049c578063587cde1e146104d05780635c19a95c1461050957600080fd5b80632407497e116102505780632407497e1461035e5780632a596e531461037e5780632b13c58f1461039e5780633644e515146103b15780633a46b1a8146103d45780633fafa127146103f457600080fd5b806301ffc9a71461028d57806306fdde03146102c2578063081812fc146102e4578063095ea7b31461031c57806323b872dd1461033e575b600080fd5b34801561029957600080fd5b506102ad6102a8366004613ecd565b61093c565b60405190151581526020015b60405180910390f35b3480156102ce57600080fd5b506102d7610967565b6040516102b99190613f3a565b3480156102f057600080fd5b506103046102ff366004613f4d565b6109f9565b6040516001600160a01b0390911681526020016102b9565b34801561032857600080fd5b5061033c610337366004613f7b565b610a20565b005b34801561034a57600080fd5b5061033c610359366004613fa7565b610aac565b34801561036a57600080fd5b5061033c610379366004613fe8565b610ade565b34801561038a57600080fd5b5061033c6103993660046140b9565b610ba3565b61033c6103ac366004614186565b610e82565b3480156103bd57600080fd5b506103c661103a565b6040519081526020016102b9565b3480156103e057600080fd5b506103c66103ef366004613f7b565b611049565b34801561040057600080fd5b506103c67f000000000000000000000000000000000000000000000000000000000000000081565b34801561043457600080fd5b5061033c610443366004613fa7565b611072565b34801561045457600080fd5b506103047f000000000000000000000000000000000000000000000000000000000000000081565b34801561048857600080fd5b50610304610497366004613f4d565b61108d565b3480156104a857600080fd5b506103047f000000000000000000000000000000000000000000000000000000000000000081565b3480156104dc57600080fd5b506103046104eb366004613fe8565b6001600160a01b039081166000908152600560205260409020541690565b34801561051557600080fd5b5061033c610524366004613fe8565b611155565b34801561053557600080fd5b50610304610544366004613f4d565b611162565b34801561055557600080fd5b506103c6610564366004613fe8565b611198565b34801561057557600080fd5b5061033c61122e565b34801561058a57600080fd5b506103c6610599366004613fe8565b611242565b3480156105aa57600080fd5b506103046105b9366004613f7b565b6001600160a01b039182166000908152600a6020908152604080832093835292905220541690565b3480156105ed57600080fd5b506009546001600160a01b0316610304565b34801561060b57600080fd5b506103c661061a366004613f4d565b611260565b34801561062b57600080fd5b506103c661063a366004613f4d565b61128d565b34801561064b57600080fd5b506102d76112a4565b34801561066057600080fd5b506103047f000000000000000000000000000000000000000000000000000000000000000081565b34801561069457600080fd5b506103c66106a3366004613fe8565b6112b3565b3480156106b457600080fd5b5061033c6106c33660046141ba565b6112d4565b3480156106d457600080fd5b5061033c6106e33660046142e1565b6114f1565b3480156106f457600080fd5b5061033c610703366004614337565b6115bc565b34801561071457600080fd5b50610728610723366004614186565b6115cb565b6040516102b993929190614370565b34801561074357600080fd5b5061033c610752366004613f7b565b611814565b34801561076357600080fd5b5061033c6107723660046143e2565b61181f565b34801561078357600080fd5b5061033c610792366004614461565b611852565b3480156107a357600080fd5b506103047f000000000000000000000000000000000000000000000000000000000000000081565b3480156107d757600080fd5b506102d76107e6366004613f4d565b611921565b3480156107f757600080fd5b506103c6610806366004613f7b565b611bce565b34801561081757600080fd5b5061033c6108263660046144c3565b611bfa565b34801561083757600080fd5b506103c6610846366004614534565b611cd0565b34801561085757600080fd5b506103c6610866366004614556565b611d0a565b34801561087757600080fd5b5061072861088636600461458b565b611d3f565b61033c6108993660046145c6565b611e22565b3480156108aa57600080fd5b5061033c6108b9366004613fe8565b611f31565b3480156108ca57600080fd5b506102d7611fef565b3480156108df57600080fd5b506102ad6108ee366004614601565b6001600160a01b03918216600090815260046020908152604080832093909416825291909152205460ff1690565b34801561092857600080fd5b5061033c610937366004613fe8565b61207e565b60006001600160e01b03198216632d26ca4560e01b14806109615750610961826120f9565b92915050565b6060600080546109769061462f565b80601f01602080910402602001604051908101604052809291908181526020018280546109a29061462f565b80156109ef5780601f106109c4576101008083540402835291602001916109ef565b820191906000526020600020905b8154815290600101906020018083116109d257829003601f168201915b5050505050905090565b6000610a048261216f565b506000908152600360205260409020546001600160a01b031690565b6000610a2b82611162565b9050806001600160a01b0316836001600160a01b031603610a5f5760405163133f8be960e01b815260040160405180910390fd5b336001600160a01b03821614801590610a7f5750610a7d81336108ee565b155b15610a9d5760405163e5fa0e3560e01b815260040160405180910390fd5b610aa783836121a4565b505050565b610ab63382612212565b610ad35760405163e5fa0e3560e01b815260040160405180910390fd5b610aa7838383612290565b610ae6612369565b60405163036129cb60e61b81526001600160a01b0382811660048301527f0000000000000000000000000000000000000000000000000000000000000000169063d84a72c090602401600060405180830381600087803b158015610b4957600080fd5b505af1158015610b5d573d6000803e3d6000fd5b50506040513381526001600160a01b03841692507fe7784d93cfbfa4408e19577e6cc0436f4dbb51214b70e100905dfce9def88c1691506020015b60405180910390a250565b6040516321d1336160e11b81527f000000000000000000000000000000000000000000000000000000000000000060048201526000907f00000000000000000000000000000000000000000000000000000000000000006001600160a01b0316906343a266c29060240161012060405180830381865afa158015610c2b573d6000803e3d6000fd5b505050506040513d601f19601f82011682018060405250810190610c4f9190614673565b61010081015190915060f51c600190811603610c7e57604051631d2c125760e31b815260040160405180910390fd5b815160005b81811015610e7c576000848281518110610c9f57610c9f6146f3565b6020026020010151905060007f00000000000000000000000000000000000000000000000000000000000000006001600160a01b031663baa7e80e836000015184602001516040518363ffffffff1660e01b8152600401610d0a929190918252602082015260400190565b6000604051808303816000875af1158015610d29573d6000803e3d6000fd5b505050506040513d6000823e601f3d908101601f19168201604052610d51919081019061476f565b82516040516304db994760e21b815230600482015260248101919091529091506000907f00000000000000000000000000000000000000000000000000000000000000006001600160a01b03169063136e651c90604401602060405180830381865afa158015610dc5573d6000803e3d6000fd5b505050506040513d601f19601f82011682018060405250810190610de991906147a3565b90506000805b8460200151811015610e6c57838181518110610e0d57610e0d6146f3565b60200260200101519150610e2183836123c3565b84516040513381526001600160a01b038516919084907f031e1988c95a91ec4d655ff63a8f87a80bc9daf28d95ae10ee08c0022cfb5c8b9060200160405180910390a4600101610def565b5084600101945050505050610c83565b50505050565b34151580610f3b5750604051636e49181f60e01b81527f000000000000000000000000000000000000000000000000000000000000000060048201523360248201527f00000000000000000000000000000000000000000000000000000000000000006001600160a01b031690636e49181f90604401602060405180830381865afa158015610f15573d6000803e3d6000fd5b505050506040513d601f19601f82011682018060405250810190610f3991906147c0565b155b80610f6a57507f0000000000000000000000000000000000000000000000000000000000000000816020013514155b15610f8857604051633efca5c360e11b815260040160405180910390fd5b6000610f986101c08301836147dd565b810190610fa59190614823565b80519091506000805b8281101561103057838181518110610fc857610fc86146f3565b60200260200101519150846000016020810190610fe59190613fe8565b6000838152600260205260409020546001600160a01b0390811691161461101f5760405163075fd2b160e01b815260040160405180910390fd5b6110288261248d565b600101610fae565b50610e7c8361250e565b600061104461258f565b905090565b6001600160a01b038216600090815260066020526040812061106b90836126b6565b9392505050565b610aa78383836040518060200160405280600081525061181f565b6040516308ed6c0160e41b81523060048201526024810182905260009081906001600160a01b037f00000000000000000000000000000000000000000000000000000000000000001690638ed6c01090604401602060405180830381865afa1580156110fd573d6000803e3d6000fd5b505050506040513d601f19601f8201168201806040525081019061112191906147a3565b90506001600160a01b038116156111385792915050565b50506000908152600260205260409020546001600160a01b031690565b61115f33826127c5565b50565b6000818152600260205260408120546001600160a01b0316806109615760405163b49aa3b560e01b815260040160405180910390fd5b604051633de222bb60e21b81523060048201526001600160a01b0382811660248301526000917f00000000000000000000000000000000000000000000000000000000000000009091169063f7888aec906044015b602060405180830381865afa15801561120a573d6000803e3d6000fd5b505050506040513d601f19601f8201168201806040525081019061096191906148a8565b611236612369565b6112406000612837565b565b6001600160a01b038116600090815260086020526040812054610961565b6000438210611282576040516305b5e09b60e51b815260040160405180910390fd5b6109616007836126b6565b6000818152600c6020526040812061096190612889565b6060600180546109769061462f565b6001600160a01b038116600090815260066020526040812061096190612889565b6112dc612369565b8280156113fe576040516309d865d560e21b81526000906001600160a01b037f00000000000000000000000000000000000000000000000000000000000000001690632761975490611334908990899060040161492e565b6000604051808303816000875af1158015611353573d6000803e3d6000fd5b505050506040513d6000823e601f3d908101601f1916820160405261137b919081019061476f565b905060005b828110156113fb5781818151811061139a5761139a6146f3565b60200260200101517ff2f59fef50c01641d6562b4ceb2f10dbbea88250f8d4fb2f77f42d397b00210c8888848181106113d5576113d56146f3565b90506101000201336040516113eb929190614967565b60405180910390a2600101611380565b50505b8180156114e9576040516320512ba160e01b81526001600160a01b037f000000000000000000000000000000000000000000000000000000000000000016906320512ba190611453908790879060040161498f565b600060405180830381600087803b15801561146d57600080fd5b505af1158015611481573d6000803e3d6000fd5b5050505060005b818110156114e7578484828181106114a2576114a26146f3565b60405133815260209182029390930135927f832d89d991be5351d793c20faf4b7dd44f8aa9ce39e3cb160c6317de6fbba72992500160405180910390a2600101611488565b505b505050505050565b6114f9612369565b6040516331315e5960e11b81526001600160a01b037f00000000000000000000000000000000000000000000000000000000000000001690636262bcb290611545908490600401613f3a565b600060405180830381600087803b15801561155f57600080fd5b505af1158015611573573d6000803e3d6000fd5b505050508060405161158591906149c8565b604051908190038120338252907f7bc9110d5de090dd59e07912d2b93a5a27ac70a60c8d8e324db4f9ee8b8b5c1390602001610b98565b6115c73383836128e5565b5050565b6040805160018082528183019092526000916060918291816020015b60408051808201909152600080825260208201528152602001906001900390816115e75790505090506040518060400160405280306001600160a01b03168152602001600081525081600081518110611642576116426146f3565b6020908102919091010152608084013515611670576040516309f82f1b60e31b815260040160405180910390fd5b8361018001356000036116d557600061168d6101a08601866147dd565b8382828080601f01602080910402602001604051908101604052809392919081815260200183838082843760009201919091525096995091975091955061180d945050505050565b60006116fa6116e86101c08701876147dd565b8101906116f59190614823565b612984565b905060006117066129d5565b905060006117198760c001358484612a60565b90506127108761018001350361178357806117386101a08901896147dd565b8682828080601f016020809104026020016040519081016040528093929190818152602001838380828437600092019190915250969c50919a5091985061180d975050505050505050565b6117b9816117a28561179c6101808c01356127106149fa565b86612a60565b6117b1906101808b0135614a0d565b612710612a60565b6117c76101a08901896147dd565b8682828080601f016020809104026020016040519081016040528093929190818152602001838380828437600092019190915250969c50919a5091985050505050505050505b9193909250565b6115c7338383612b2d565b6118293383612212565b6118465760405163e5fa0e3560e01b815260040160405180910390fd5b610e7c84848484612bac565b8342111561187357604051631931982760e01b815260040160405180910390fd5b604080517fe48329057bfd03d55e49b547132e39cffd9c1820ad7b9d4c5307691425d15adf60208201526001600160a01b0388169181019190915260608101869052608081018590526000906118ed906118e59060a00160405160208183030381529060405280519060200120612be0565b858585612c2e565b90506118f881612c56565b861461191757604051637fcce2a960e01b815260040160405180910390fd5b6114e781886127c5565b6000818152600260205260409020546060906001600160a01b031661195457505060408051602081019091526000815290565b604051630fab094760e01b81523060048201526000907f00000000000000000000000000000000000000000000000000000000000000006001600160a01b031690630fab094790602401602060405180830381865afa1580156119bb573d6000803e3d6000fd5b505050506040513d601f19601f820116820180604052508101906119df91906147a3565b90506001600160a01b03811615611a5d57604051636d02a25560e11b8152600481018490526001600160a01b0382169063da0544aa90602401600060405180830381865afa158015611a35573d6000803e3d6000fd5b505050506040513d6000823e601f3d908101601f1916820160405261106b9190810190614a20565b60405163f682eeaf60e01b815230600482015273__$2e464bbf4a8803569df10b07372aceee57$__9063030cecc7906001600160a01b037f0000000000000000000000000000000000000000000000000000000000000000169063f682eeaf90602401600060405180830381865afa158015611add573d6000803e3d6000fd5b505050506040513d6000823e601f3d908101601f19168201604052611b059190810190614a20565b604051630c8df17160e41b8152306004820152602481018790527f00000000000000000000000000000000000000000000000000000000000000006001600160a01b03169063c8df171090604401602060405180830381865afa158015611b70573d6000803e3d6000fd5b505050506040513d601f19601f82011682018060405250810190611b9491906148a8565b6040518363ffffffff1660e01b8152600401611bb1929190614a96565b600060405180830381865af4158015611a35573d6000803e3d6000fd5b6001600160a01b0382166000908152600b60209081526040808320848452909152812061106b90612889565b611c02612369565b60405163d67b78fd60e01b81526001600160a01b037f0000000000000000000000000000000000000000000000000000000000000000169063d67b78fd90611c509085908590600401614ab8565b600060405180830381600087803b158015611c6a57600080fd5b505af1158015611c7e573d6000803e3d6000fd5b505050508181604051611c92929190614ae7565b604051908190038120338252907fd36dc0c1a06103fdcaf15f3f6fb797d1a97997514c78de073640c8b5005454b89060200160405180910390a25050565b6000438210611cf2576040516305b5e09b60e51b815260040160405180910390fd5b6000838152600c6020526040902061106b90836126b6565b6001600160a01b0383166000908152600b602090815260408083208584529091528120611d3790836126b6565b949350505050565b610120810135606080611d566101608501856147dd565b8080601f01602080910402602001604051908101604052809392919081815260200183838082843760009201919091525092945060019250611d96915050565b604051908082528060200260200182016040528015611ddb57816020015b6040805180820190915260008082526020820152815260200190600190039081611db45790505b5090506040518060400160405280306001600160a01b03168152602001600081525081600081518110611e1057611e106146f3565b60200260200101819052509193909250565b34151580611edb5750604051636e49181f60e01b81527f000000000000000000000000000000000000000000000000000000000000000060048201523360248201527f00000000000000000000000000000000000000000000000000000000000000006001600160a01b031690636e49181f90604401602060405180830381865afa158015611eb5573d6000803e3d6000fd5b505050506040513d601f19601f82011682018060405250810190611ed991906147c0565b155b80611f0a57507f0000000000000000000000000000000000000000000000000000000000000000816020013514155b15611f28576040516331c57b1b60e21b815260040160405180910390fd5b61115f81612c7e565b611f39612369565b6040516317161f7d60e01b81526001600160a01b0382811660048301527f000000000000000000000000000000000000000000000000000000000000000016906317161f7d90602401600060405180830381600087803b158015611f9c57600080fd5b505af1158015611fb0573d6000803e3d6000fd5b50506040513381526001600160a01b03841692507fab0014d4c7a642a02a31b303a318908c22b0fb2001f107278fc6076b4c671b659150602001610b98565b604051630155619b60e71b81523060048201526060907f00000000000000000000000000000000000000000000000000000000000000006001600160a01b03169063aab0cd8090602401600060405180830381865afa158015612056573d6000803e3d6000fd5b505050506040513d6000823e601f3d908101601f191682016040526110449190810190614a20565b612086612369565b6001600160a01b0381166120f05760405162461bcd60e51b815260206004820152602660248201527f4f776e61626c653a206e6577206f776e657220697320746865207a65726f206160448201526564647265737360d01b60648201526084015b60405180910390fd5b61115f81612837565b60006001600160e01b0319821663b3bcbb7960e01b148061212a57506001600160e01b031982166371700c6960e01b145b8061214557506001600160e01b0319821663da9ee8b760e01b145b8061216057506001600160e01b03198216632b13c58f60e01b145b80610961575061096182612ddc565b6000818152600260205260409020546001600160a01b031661115f5760405163b49aa3b560e01b815260040160405180910390fd5b600081815260036020526040902080546001600160a01b0319166001600160a01b03841690811790915581906121d982611162565b6001600160a01b03167f8c5be1e5ebec7d5bd14f71427d1e84f3dd0314c0f7b2291e5b200ac8c7c3b92560405160405180910390a45050565b60008061221e83611162565b9050806001600160a01b0316846001600160a01b0316148061226557506001600160a01b0380821660009081526004602090815260408083209388168352929052205460ff165b80611d375750836001600160a01b031661227e846109f9565b6001600160a01b031614949350505050565b826001600160a01b03166122a382611162565b6001600160a01b0316146122ca5760405163a195bc5360e01b815260040160405180910390fd5b6001600160a01b0382166122f157604051632c95542760e01b815260040160405180910390fd5b6122fc838383612e2c565b6123076000826121a4565b60008181526002602052604080822080546001600160a01b0319166001600160a01b0386811691821790925591518493918716917fddf252ad1be2c89b69c2b068fc378daa952ba7f163c4a11628f55a4df523b3ef91a4610aa7838383613044565b6009546001600160a01b031633146112405760405162461bcd60e51b815260206004820181905260248201527f4f776e61626c653a2063616c6c6572206973206e6f7420746865206f776e657260448201526064016120e7565b6001600160a01b0382166123ea57604051633904578f60e11b815260040160405180910390fd5b6000818152600260205260409020546001600160a01b03161561242057604051632eb5f0c360e21b815260040160405180910390fd5b61242c60008383612e2c565b60008181526002602052604080822080546001600160a01b0319166001600160a01b03861690811790915590518392907fddf252ad1be2c89b69c2b068fc378daa952ba7f163c4a11628f55a4df523b3ef908290a46115c760008383613044565b600061249882611162565b90506124a681600084612e2c565b6124b16000836121a4565b60008281526002602052604080822080546001600160a01b0319169055518391906001600160a01b038416907fddf252ad1be2c89b69c2b068fc378daa952ba7f163c4a11628f55a4df523b3ef908390a46115c781600084613044565b6040516386bc2be360e01b81526001600160a01b037f000000000000000000000000000000000000000000000000000000000000000016906386bc2be39061255a908490600401614b32565b600060405180830381600087803b15801561257457600080fd5b505af1158015612588573d6000803e3d6000fd5b5050505050565b6000306001600160a01b037f0000000000000000000000000000000000000000000000000000000000000000161480156125e857507f000000000000000000000000000000000000000000000000000000000000000046145b1561261257507f000000000000000000000000000000000000000000000000000000000000000090565b50604080517f00000000000000000000000000000000000000000000000000000000000000006020808301919091527f0000000000000000000000000000000000000000000000000000000000000000828401527f000000000000000000000000000000000000000000000000000000000000000060608301524660808301523060a0808401919091528351808403909101815260c0909201909252805191012090565b60004382106127075760405162461bcd60e51b815260206004820181905260248201527f436865636b706f696e74733a20626c6f636b206e6f7420796574206d696e656460448201526064016120e7565b825460005b8181101561276c5760006127208284613198565b905084866000018281548110612738576127386146f3565b60009182526020909120015463ffffffff16111561275857809250612766565b612763816001614a0d565b91505b5061270c565b81156127b0578461277e6001846149fa565b8154811061278e5761278e6146f3565b60009182526020909120015464010000000090046001600160e01b03166127b3565b60005b6001600160e01b031695945050505050565b6001600160a01b0382811660008181526005602052604080822080548686166001600160a01b0319821681179092559151919094169392849290917f3134e8a2e6d97e929a7e54011ea5485d7d196dd5f0ba4d4ef95803e8e3fc257f9190a4610aa78183612832866131b3565b61320c565b600980546001600160a01b038381166001600160a01b0319831681179093556040519116919082907f8be0079c531659141344cd1fd0a4f28419497f9722a3daafe3b4186f6b6457e090600090a35050565b805460009080156128d257826128a06001836149fa565b815481106128b0576128b06146f3565b60009182526020909120015464010000000090046001600160e01b03166128d5565b60005b6001600160e01b03169392505050565b816001600160a01b0316836001600160a01b031603612917576040516306f8139d60e11b815260040160405180910390fd5b6001600160a01b03838116600081815260046020908152604080832094871680845294825291829020805460ff191686151590811790915591519182527f17307eab39ab6107e8899845ad3d59bd9653f200f220920489ca2b5937696c31910160405180910390a3505050565b60405163051330b560e21b81526000906001600160a01b037f0000000000000000000000000000000000000000000000000000000000000000169063144cc2d4906111ed9030908690600401614b45565b604051631572f24960e11b81523060048201526000907f00000000000000000000000000000000000000000000000000000000000000006001600160a01b031690632ae5e49290602401602060405180830381865afa158015612a3c573d6000803e3d6000fd5b505050506040513d601f19601f8201168201806040525081019061104491906148a8565b6000808060001985870985870292508281108382030391505080600003612a9a57838281612a9057612a90614b69565b049250505061106b565b838110612ac457604051631dcf306360e21b815260048101829052602481018590526044016120e7565b60008486880960026001871981018816978890046003810283188082028403028082028403028082028403028082028403028082028403029081029092039091026000889003889004909101858311909403939093029303949094049190911702949350505050565b6001600160a01b038381166000818152600a6020908152604080832086845290915280822080548786166001600160a01b0319821681179092559151919094169392849290917f3134e8a2e6d97e929a7e54011ea5485d7d196dd5f0ba4d4ef95803e8e3fc257f9190a4610e7c818484612ba78887613349565b6133e5565b612bb7848484612290565b612bc38484848461353a565b610e7c576040516336f57c1b60e11b815260040160405180910390fd5b6000610961612bed61258f565b8360405161190160f01b6020820152602281018390526042810182905260009060620160405160208183030381529060405280519060200120905092915050565b6000806000612c3f87878787613639565b91509150612c4c81613726565b5095945050505050565b6001600160a01b03811660009081526008602052604090208054600181018255905b50919050565b6001600160a01b037f000000000000000000000000000000000000000000000000000000000000000016612cb86080830160608401613fe8565b6001600160a01b031614612cc95750565b60808101356000806024612ce16101e08601866147dd565b9050118015612d25575063b3bcbb7960e01b612d016101e08601866147dd565b612d1091602491602091614b7f565b612d1991614ba9565b6001600160e01b031916145b15612d8d5760006060612d3c6101e08701876147dd565b810190612d499190614bd9565b919850965090945092505082159050612d6457505050505050565b805115612d8a57612d878582612d826101a08a016101808b01613fe8565b6138dc565b94505b50505b8215612db257612daf83612da96101a087016101808801613fe8565b84613a36565b92505b808015612dbe57508215155b15610e7c57604051631b57826960e21b815260040160405180910390fd5b60006001600160e01b031982166380ac58cd60e01b1480612e0d57506001600160e01b03198216635b5e139f60e01b145b8061096157506301ffc9a760e01b6001600160e01b0319831614610961565b6040516321d1336160e11b81527f000000000000000000000000000000000000000000000000000000000000000060048201526000907f00000000000000000000000000000000000000000000000000000000000000006001600160a01b0316906343a266c29060240161012060405180830381865afa158015612eb4573d6000803e3d6000fd5b505050506040513d601f19601f82011682018060405250810190612ed89190614673565b61010081015190915060f41c600190811603612f07576040516318cdaf9760e01b815260040160405180910390fd5b6001600160a01b03841615801590612fb757506040516308ed6c0160e41b8152306004820152602481018390526000906001600160a01b037f00000000000000000000000000000000000000000000000000000000000000001690638ed6c01090604401602060405180830381865afa158015612f88573d6000803e3d6000fd5b505050506040513d601f19601f82011682018060405250810190612fac91906147a3565b6001600160a01b0316145b1561303f57604051638cec7d3960e01b8152600481018390526001600160a01b0385811660248301527f00000000000000000000000000000000000000000000000000000000000000001690638cec7d3990604401600060405180830381600087803b15801561302657600080fd5b505af115801561303a573d6000803e3d6000fd5b505050505b610e7c565b60405163b67cb04760e01b8152306004820152602481018290526000907f00000000000000000000000000000000000000000000000000000000000000006001600160a01b03169063b67cb0479060440161012060405180830381865afa1580156130b3573d6000803e3d6000fd5b505050506040513d601f19601f820116820180604052508101906130d79190614673565b80516040516330b157e560e21b815260048101919091526001600160a01b03868116602483015285811660448301529192507f00000000000000000000000000000000000000000000000000000000000000009091169063c2c55f9490606401600060405180830381600087803b15801561315157600080fd5b505af1158015613165573d6000803e3d6000fd5b505050508060a0015160001461303f5761318484848360a00151613b62565b61303f848483600001518460a00151613bd2565b60006131a76002848418614ccf565b61106b90848416614a0d565b604051631266aaaf60e31b81523060048201526001600160a01b0382811660248301526000917f0000000000000000000000000000000000000000000000000000000000000000909116906393355578906044016111ed565b816001600160a01b0316836001600160a01b03161415801561322e5750600081115b15610aa7576001600160a01b038316156132bc576001600160a01b0383166000908152600660205260408120819061326990613c7485613c80565b91509150846001600160a01b03167fdec2bacdd2f05b59de34da9b523dff8be42e5e38e818c82fdb0bae774387a72483836040516132b1929190918252602082015260400190565b60405180910390a250505b6001600160a01b03821615610aa7576001600160a01b038216600090815260066020526040812081906132f290613cae85613c80565b91509150836001600160a01b03167fdec2bacdd2f05b59de34da9b523dff8be42e5e38e818c82fdb0bae774387a724838360405161333a929190918252602082015260400190565b60405180910390a25050505050565b6040516305c9a1d560e31b81523060048201526001600160a01b038381166024830152604482018390526000917f000000000000000000000000000000000000000000000000000000000000000090911690632e4d0ea890606401602060405180830381865afa1580156133c1573d6000803e3d6000fd5b505050506040513d601f19601f8201168201806040525081019061106b91906148a8565b826001600160a01b0316846001600160a01b03161480613403575080155b610e7c576001600160a01b0384161561349e576001600160a01b0384166000908152600b602090815260408083208584529091528120819061344890613c7485613c80565b60408051828152602081018890523381830152905192945090925083916001600160a01b038916917fed0c1e94c302bdbbd8bbd6a4fb7c3ed335c2292407cd816eadd075d019d0ce04919081900360600190a350505b6001600160a01b03831615610e7c576001600160a01b0383166000908152600b60209081526040808320858452909152812081906134df90613cae85613c80565b60408051838152602081018390523381830152905192945090925085916001600160a01b038816917fed0c1e94c302bdbbd8bbd6a4fb7c3ed335c2292407cd816eadd075d019d0ce04919081900360600190a3505050505050565b60006001600160a01b0384163b1561363157604051630a85bd0160e11b81526001600160a01b0385169063150b7a029061357e903390899088908890600401614cf1565b6020604051808303816000875af19250505080156135b9575060408051601f3d908101601f191682019092526135b691810190614d2e565b60015b613617573d8080156135e7576040519150601f19603f3d011682016040523d82523d6000602084013e6135ec565b606091505b50805160000361360f576040516336f57c1b60e11b815260040160405180910390fd5b805181602001fd5b6001600160e01b031916630a85bd0160e11b149050611d37565b506001611d37565b6000807f7fffffffffffffffffffffffffffffff5d576e7357a4501ddfe92f46681b20a0831115613670575060009050600361371d565b8460ff16601b1415801561368857508460ff16601c14155b15613699575060009050600461371d565b6040805160008082526020820180845289905260ff881692820192909252606081018690526080810185905260019060a0016020604051602081039080840390855afa1580156136ed573d6000803e3d6000fd5b5050604051601f1901519150506001600160a01b0381166137165760006001925092505061371d565b9150600090505b94509492505050565b600081600481111561373a5761373a614d4b565b036137425750565b600181600481111561375657613756614d4b565b036137a35760405162461bcd60e51b815260206004820152601860248201527f45434453413a20696e76616c6964207369676e6174757265000000000000000060448201526064016120e7565b60028160048111156137b7576137b7614d4b565b036138045760405162461bcd60e51b815260206004820152601f60248201527f45434453413a20696e76616c6964207369676e6174757265206c656e6774680060448201526064016120e7565b600381600481111561381857613818614d4b565b036138705760405162461bcd60e51b815260206004820152602260248201527f45434453413a20696e76616c6964207369676e6174757265202773272076616c604482015261756560f01b60648201526084016120e7565b600481600481111561388457613884614d4b565b0361115f5760405162461bcd60e51b815260206004820152602260248201527f45434453413a20696e76616c6964207369676e6174757265202776272076616c604482015261756560f01b60648201526084016120e7565b600060607f00000000000000000000000000000000000000000000000000000000000000006001600160a01b03166316b047de86866040518363ffffffff1660e01b815260040161392e929190614d61565b6000604051808303816000875af115801561394d573d6000803e3d6000fd5b505050506040513d6000823e601f3d908101601f191682016040526139759190810190614db3565b81519093509091506000805b82811015613a2b5783818151811061399b5761399b6146f3565b602002602001015191506139af86836123c3565b856001600160a01b03168782815181106139cb576139cb6146f3565b602002602001015161ffff16837f598baf7bf150ca2f42be9e9f8f55e81d45f5715c3ff22bf46d697fabec7f31d68b33604051613a1b9291909182526001600160a01b0316602082015260400190565b60405180910390a4600101613981565b505050509392505050565b60008060007f00000000000000000000000000000000000000000000000000000000000000006001600160a01b031663879791f3876040518263ffffffff1660e01b8152600401613a8991815260200190565b6060604051808303816000875af1158015613aa8573d6000803e3d6000fd5b505050506040513d601f19601f82011682018060405250810190613acc9190614df9565b945090925090506000829003613b02578315613afb57604051630e5313df60e41b815260040160405180910390fd5b505061106b565b613b0c85836123c3565b6001600160a01b03851681837f598baf7bf150ca2f42be9e9f8f55e81d45f5715c3ff22bf46d697fabec7f31d6613b43878b6149fa565b604080519182523360208301520160405180910390a450509392505050565b6001600160a01b038316613b8157613b7e6007613cae83613c80565b50505b6001600160a01b038216613ba057613b9d6007613c7483613c80565b50505b6001600160a01b03838116600090815260056020526040808220548584168352912054610aa79291821691168361320c565b6001600160a01b038416613bfe576000828152600c60205260409020613bfb90613cae83613c80565b50505b6001600160a01b038316613c2a576000828152600c60205260409020613c2790613c7483613c80565b50505b6001600160a01b038085166000908152600a60208181526040808420878552825280842054888616855292825280842087855290915290912054610e7c92918216911684846133e5565b600061106b82846149fa565b600080613ca285613c9d613c9388612889565b868863ffffffff16565b613cba565b91509150935093915050565b600061106b8284614a0d565b8154600090819081613ccb86612889565b9050600082118015613d0957504386613ce56001856149fa565b81548110613cf557613cf56146f3565b60009182526020909120015463ffffffff16145b15613d6957613d1785613de5565b86613d236001856149fa565b81548110613d3357613d336146f3565b9060005260206000200160000160046101000a8154816001600160e01b0302191690836001600160e01b03160217905550613dd7565b856000016040518060400160405280613d8143613e52565b63ffffffff168152602001613d9588613de5565b6001600160e01b0390811690915282546001810184556000938452602093849020835194909301519091166401000000000263ffffffff909316929092179101555b9250839150505b9250929050565b60006001600160e01b03821115613e4e5760405162461bcd60e51b815260206004820152602760248201527f53616665436173743a2076616c756520646f65736e27742066697420696e20326044820152663234206269747360c81b60648201526084016120e7565b5090565b600063ffffffff821115613e4e5760405162461bcd60e51b815260206004820152602660248201527f53616665436173743a2076616c756520646f65736e27742066697420696e203360448201526532206269747360d01b60648201526084016120e7565b6001600160e01b03198116811461115f57600080fd5b600060208284031215613edf57600080fd5b813561106b81613eb7565b60005b83811015613f05578181015183820152602001613eed565b50506000910152565b60008151808452613f26816020860160208601613eea565b601f01601f19169290920160200192915050565b60208152600061106b6020830184613f0e565b600060208284031215613f5f57600080fd5b5035919050565b6001600160a01b038116811461115f57600080fd5b60008060408385031215613f8e57600080fd5b8235613f9981613f66565b946020939093013593505050565b600080600060608486031215613fbc57600080fd5b8335613fc781613f66565b92506020840135613fd781613f66565b929592945050506040919091013590565b600060208284031215613ffa57600080fd5b813561106b81613f66565b634e487b7160e01b600052604160045260246000fd5b604080519081016001600160401b038111828210171561403d5761403d614005565b60405290565b60405161012081016001600160401b038111828210171561403d5761403d614005565b604051601f8201601f191681016001600160401b038111828210171561408e5761408e614005565b604052919050565b60006001600160401b038211156140af576140af614005565b5060051b60200190565b600060208083850312156140cc57600080fd5b82356001600160401b038111156140e257600080fd5b8301601f810185136140f357600080fd5b803561410661410182614096565b614066565b81815260069190911b8201830190838101908783111561412557600080fd5b928401925b8284101561416857604084890312156141435760008081fd5b61414b61401b565b84358152858501358682015282526040909301929084019061412a565b979650505050505050565b60006101e08284031215612c7857600080fd5b60006020828403121561419857600080fd5b81356001600160401b038111156141ae57600080fd5b611d3784828501614173565b600080600080604085870312156141d057600080fd5b84356001600160401b03808211156141e757600080fd5b818701915087601f8301126141fb57600080fd5b81358181111561420a57600080fd5b8860208260081b850101111561421f57600080fd5b60209283019650945090860135908082111561423a57600080fd5b818701915087601f83011261424e57600080fd5b81358181111561425d57600080fd5b8860208260051b850101111561427257600080fd5b95989497505060200194505050565b60006001600160401b0382111561429a5761429a614005565b50601f01601f191660200190565b60006142b661410184614281565b90508281528383830111156142ca57600080fd5b828260208301376000602084830101529392505050565b6000602082840312156142f357600080fd5b81356001600160401b0381111561430957600080fd5b8201601f8101841361431a57600080fd5b611d37848235602084016142a8565b801515811461115f57600080fd5b6000806040838503121561434a57600080fd5b823561435581613f66565b9150602083013561436581614329565b809150509250929050565b8381526000602060608184015261438a6060840186613f0e565b83810360408581019190915285518083528387019284019060005b818110156143d357845180516001600160a01b031684528601518684015293850193918301916001016143a5565b50909998505050505050505050565b600080600080608085870312156143f857600080fd5b843561440381613f66565b9350602085013561441381613f66565b92506040850135915060608501356001600160401b0381111561443557600080fd5b8501601f8101871361444657600080fd5b614455878235602084016142a8565b91505092959194509250565b60008060008060008060c0878903121561447a57600080fd5b863561448581613f66565b95506020870135945060408701359350606087013560ff811681146144a957600080fd5b9598949750929560808101359460a0909101359350915050565b600080602083850312156144d657600080fd5b82356001600160401b03808211156144ed57600080fd5b818501915085601f83011261450157600080fd5b81358181111561451057600080fd5b86602082850101111561452257600080fd5b60209290920196919550909350505050565b6000806040838503121561454757600080fd5b50508035926020909101359150565b60008060006060848603121561456b57600080fd5b833561457681613f66565b95602085013595506040909401359392505050565b60006020828403121561459d57600080fd5b81356001600160401b038111156145b357600080fd5b82016101a0818503121561106b57600080fd5b6000602082840312156145d857600080fd5b81356001600160401b038111156145ee57600080fd5b8201610200818503121561106b57600080fd5b6000806040838503121561461457600080fd5b823561461f81613f66565b9150602083013561436581613f66565b600181811c9082168061464357607f821691505b602082108103612c7857634e487b7160e01b600052602260045260246000fd5b805161466e81613f66565b919050565b6000610120828403121561468657600080fd5b61468e614043565b825181526020830151602082015260408301516040820152606083015160608201526080830151608082015260a083015160a082015260c083015160c08201526146da60e08401614663565b60e0820152610100928301519281019290925250919050565b634e487b7160e01b600052603260045260246000fd5b600082601f83011261471a57600080fd5b8151602061472a61410183614096565b82815260059290921b8401810191818101908684111561474957600080fd5b8286015b84811015614764578051835291830191830161474d565b509695505050505050565b60006020828403121561478157600080fd5b81516001600160401b0381111561479757600080fd5b611d3784828501614709565b6000602082840312156147b557600080fd5b815161106b81613f66565b6000602082840312156147d257600080fd5b815161106b81614329565b6000808335601e198436030181126147f457600080fd5b8301803591506001600160401b0382111561480e57600080fd5b602001915036819003821315613dde57600080fd5b6000602080838503121561483657600080fd5b82356001600160401b0381111561484c57600080fd5b8301601f8101851361485d57600080fd5b803561486b61410182614096565b81815260059190911b8201830190838101908783111561488a57600080fd5b928401925b828410156141685783358252928401929084019061488f565b6000602082840312156148ba57600080fd5b5051919050565b803582526020810135602083015260408101356040830152606081013560608301526080810135608083015260a08101356148fb81613f66565b6001600160a01b031660a083015260c0818101359083015260e081013561492181614329565b80151560e0840152505050565b6020808252810182905260008360408301825b85811015612c4c5761495382846148c1565b610100928301929190910190600101614941565b610120810161497682856148c1565b6001600160a01b03929092166101009190910152919050565b6020808252810182905260006001600160fb1b038311156149af57600080fd5b8260051b80856040850137919091016040019392505050565b600082516149da818460208701613eea565b9190910192915050565b634e487b7160e01b600052601160045260246000fd5b81810381811115610961576109616149e4565b80820180821115610961576109616149e4565b600060208284031215614a3257600080fd5b81516001600160401b03811115614a4857600080fd5b8201601f81018413614a5957600080fd5b8051614a6761410182614281565b818152856020838501011115614a7c57600080fd5b614a8d826020830160208601613eea565b95945050505050565b604081526000614aa96040830185613f0e565b90508260208301529392505050565b60208152816020820152818360408301376000818301604090810191909152601f909201601f19160101919050565b8183823760009101908152919050565b600081518084526020808501945080840160005b83811015614b2757815187529582019590820190600101614b0b565b509495945050505050565b60208152600061106b6020830184614af7565b6001600160a01b0383168152604060208201819052600090611d3790830184614af7565b634e487b7160e01b600052601260045260246000fd5b60008085851115614b8f57600080fd5b83861115614b9c57600080fd5b5050820193919092039150565b6001600160e01b03198135818116916004851015614bd15780818660040360031b1b83161692505b505092915050565b60008060008060008060c08789031215614bf257600080fd5b86359550602080880135614c0581613eb7565b95506040880135614c1581614329565b94506060880135614c2581614329565b93506080880135614c3581614329565b925060a08801356001600160401b03811115614c5057600080fd5b8801601f81018a13614c6157600080fd5b8035614c6f61410182614096565b81815260059190911b8201830190838101908c831115614c8e57600080fd5b928401925b82841015614cbd57833561ffff81168114614cae5760008081fd5b82529284019290840190614c93565b80955050505050509295509295509295565b600082614cec57634e487b7160e01b600052601260045260246000fd5b500490565b6001600160a01b0385811682528416602082015260408101839052608060608201819052600090614d2490830184613f0e565b9695505050505050565b600060208284031215614d4057600080fd5b815161106b81613eb7565b634e487b7160e01b600052602160045260246000fd5b6000604082018483526020604081850152818551808452606086019150828701935060005b81811015614da657845161ffff1683529383019391830191600101614d86565b5090979650505050505050565b60008060408385031215614dc657600080fd5b82516001600160401b03811115614ddc57600080fd5b614de885828601614709565b925050602083015190509250929050565b600080600060608486031215614e0e57600080fd5b835192506020840151915060408401519050925092509256fea26469706673582212203f102a26a9283601da8358c3ac48cea396cefa1b2d3c2b6539c163179e4d74bc64736f6c63430008100033",
    "linkReferences": {
      "contracts/libraries/JBIpfsDecoder.sol": {
        "JBIpfsDecoder": [
          {
            "start": 10048,
            "length": 20
          }
        ]
      }
    }
  },
  "methodIdentifiers": {
    "DOMAIN_SEPARATOR()": "3644e515",
    "adjustTiers((uint256,uint256,uint256,uint256,uint256,address,bytes32,bool)[],uint256[])": "9d927a50",
    "approve(address,uint256)": "095ea7b3",
    "balanceOf(address)": "70a08231",
    "contractURI()": "e8a3d485",
    "contributionToken()": "4bedf9a8",
    "delegate(address)": "5c19a95c",
    "delegateBySig(address,uint256,uint256,uint8,bytes32,bytes32)": "c3cda520",
    "delegates(address)": "587cde1e",
    "didPay((address,uint256,uint256,(address,uint256,uint256,uint256),(address,uint256,uint256,uint256),uint256,address,bool,string,bytes))": "da9ee8b7",
    "didRedeem((address,uint256,uint256,uint256,(address,uint256,uint256,uint256),(address,uint256,uint256,uint256),address,string,bytes))": "2b13c58f",
    "directory()": "c41c2f24",
    "firstOwnerOf(uint256)": "54c6d1f5",
    "fundingCycleStore()": "557e7155",
    "getApproved(uint256)": "081812fc",
    "getPastTierTotalVotes(uint256,uint256)": "d31cc52c",
    "getPastTierVotes(address,uint256,uint256)": "d40e7146",
    "getPastTotalSupply(uint256)": "8e539e8c",
    "getPastVotes(address,uint256)": "3a46b1a8",
    "getTierDelegate(address,uint256)": "82732b6d",
    "getTierTotalVotes(uint256)": "94c5c5ca",
    "getTierVotes(address,uint256)": "ca323efe",
    "getVotes(address)": "9ab24eb0",
    "isApprovedForAll(address,address)": "e985e9c5",
    "mintReservesFor((uint256,uint256)[])": "2a596e53",
    "name()": "06fdde03",
    "nonces(address)": "7ecebe00",
    "owner()": "8da5cb5b",
    "ownerOf(uint256)": "6352211e",
    "payParams((address,address,(address,uint256,uint256,uint256),uint256,uint256,address,uint256,uint256,string,bytes))": "d46cf171",
    "projectId()": "3fafa127",
    "redeemParams((address,address,uint256,uint256,uint256,uint256,uint256,(address,uint256,uint256,uint256),bool,uint256,string,bytes))": "a51cfd18",
    "renounceOwnership()": "715018a6",
    "safeTransferFrom(address,address,uint256)": "42842e0e",
    "safeTransferFrom(address,address,uint256,bytes)": "b88d4fde",
    "setApprovalForAll(address,bool)": "a22cb465",
    "setBaseUri(string)": "a0bcfc7f",
    "setContractUri(string)": "ccb4807b",
    "setDefaultReservedTokenBeneficiary(address)": "df487e26",
    "setTierDelegate(address,uint256)": "ab951e39",
    "setTokenUriResolver(address)": "2407497e",
    "store()": "975057e7",
    "supportsInterface(bytes4)": "01ffc9a7",
    "symbol()": "95d89b41",
    "tokenURI(uint256)": "c87b56dd",
    "transferFrom(address,address,uint256)": "23b872dd",
    "transferOwnership(address)": "f2fde38b"
  },
  "id": 0
}