{
  "abi": [
    {
      "inputs": [
        {
          "internalType": "contract IJBProjects",
          "name": "_projects",
          "type": "address"
        },
        {
          "internalType": "contract IJBOperatorStore",
          "name": "_operatorStore",
          "type": "address"
        }
      ],
      "stateMutability": "nonpayable",
      "type": "constructor"
    },
    {
      "inputs": [],
      "name": "ALEADY_MINTED",
      "type": "error"
    },
    {
      "inputs": [],
      "name": "APPROVAL_TO_CURRENT_OWNER",
      "type": "error"
    },
    {
      "inputs": [],
      "name": "APPROVE_TO_CALLER",
      "type": "error"
    },
    {
      "inputs": [],
      "name": "CALLER_NOT_OWNER_OR_APPROVED",
      "type": "error"
    },
    {
      "inputs": [],
      "name": "INCORRECT_OWNER",
      "type": "error"
    },
    {
      "inputs": [
        {
          "internalType": "address",
          "name": "ownerAddress",
          "type": "address"
        },
        {
          "internalType": "uint256",
          "name": "projectId",
          "type": "uint256"
        }
      ],
      "name": "INVALID_NEW_OWNER",
      "type": "error"
    },
    {
      "inputs": [],
      "name": "INVALID_PAYMENT_EVENT",
      "type": "error"
    },
    {
      "inputs": [],
      "name": "INVALID_REDEMPTION_EVENT",
      "type": "error"
    },
    {
      "inputs": [],
      "name": "INVALID_REDEMPTION_METADATA",
      "type": "error"
    },
    {
      "inputs": [],
      "name": "INVALID_TOKEN_ID",
      "type": "error"
    },
    {
      "inputs": [],
      "name": "MINT_TO_ZERO",
      "type": "error"
    },
    {
      "inputs": [],
      "name": "NOT_AVAILABLE",
      "type": "error"
    },
    {
      "inputs": [],
      "name": "OVERSPENDING",
      "type": "error"
    },
    {
      "inputs": [
        {
          "internalType": "uint256",
          "name": "prod1",
          "type": "uint256"
        },
        {
          "internalType": "uint256",
          "name": "denominator",
          "type": "uint256"
        }
      ],
      "name": "PRBMath__MulDivOverflow",
      "type": "error"
    },
    {
      "inputs": [],
      "name": "PRICING_RESOLVER_CHANGES_PAUSED",
      "type": "error"
    },
    {
      "inputs": [],
      "name": "RESERVED_TOKEN_MINTING_PAUSED",
      "type": "error"
    },
    {
      "inputs": [],
      "name": "TRANSFERS_PAUSED",
      "type": "error"
    },
    {
      "inputs": [],
      "name": "TRANSFER_TO_NON_IMPLEMENTER",
      "type": "error"
    },
    {
      "inputs": [],
      "name": "TRANSFER_TO_ZERO_ADDRESS",
      "type": "error"
    },
    {
      "inputs": [],
      "name": "UNAUTHORIZED",
      "type": "error"
    },
    {
      "inputs": [
        {
          "internalType": "uint256",
          "name": "_tokenId",
          "type": "uint256"
        }
      ],
      "name": "UNAUTHORIZED_TOKEN",
      "type": "error"
    },
    {
      "inputs": [],
      "name": "UNEXPECTED_TOKEN_REDEEMED",
      "type": "error"
    },
    {
      "anonymous": false,
      "inputs": [
        {
          "indexed": true,
          "internalType": "uint256",
          "name": "changeAmount",
          "type": "uint256"
        },
        {
          "indexed": true,
          "internalType": "uint256",
          "name": "newTotalCredits",
          "type": "uint256"
        },
        {
          "indexed": true,
          "internalType": "address",
          "name": "account",
          "type": "address"
        },
        {
          "indexed": false,
          "internalType": "address",
          "name": "caller",
          "type": "address"
        }
      ],
      "name": "AddCredits",
      "type": "event"
    },
    {
      "anonymous": false,
      "inputs": [
        {
          "indexed": true,
          "internalType": "uint256",
          "name": "tierId",
          "type": "uint256"
        },
        {
          "components": [
            {
              "internalType": "uint88",
              "name": "price",
              "type": "uint88"
            },
            {
              "internalType": "uint40",
              "name": "initialQuantity",
              "type": "uint40"
            },
            {
              "internalType": "uint40",
              "name": "votingUnits",
              "type": "uint40"
            },
            {
              "internalType": "uint16",
              "name": "reservedRate",
              "type": "uint16"
            },
            {
              "internalType": "address",
              "name": "reservedTokenBeneficiary",
              "type": "address"
            },
            {
              "internalType": "uint8",
              "name": "royaltyRate",
              "type": "uint8"
            },
            {
              "internalType": "address",
              "name": "royaltyBeneficiary",
              "type": "address"
            },
            {
              "internalType": "bytes32",
              "name": "encodedIPFSUri",
              "type": "bytes32"
            },
            {
              "internalType": "uint16",
              "name": "category",
              "type": "uint16"
            },
            {
              "internalType": "bool",
              "name": "allowManualMint",
              "type": "bool"
            },
            {
              "internalType": "bool",
              "name": "shouldUseReservedTokenBeneficiaryAsDefault",
              "type": "bool"
            },
            {
              "internalType": "bool",
              "name": "shouldUseRoyaltyBeneficiaryAsDefault",
              "type": "bool"
            },
            {
              "internalType": "bool",
              "name": "transfersPausable",
              "type": "bool"
            },
            {
              "internalType": "bool",
              "name": "useVotingUnits",
              "type": "bool"
            }
          ],
          "indexed": false,
          "internalType": "struct JB721TierParams",
          "name": "data",
          "type": "tuple"
        },
        {
          "indexed": false,
          "internalType": "address",
          "name": "caller",
          "type": "address"
        }
      ],
      "name": "AddTier",
      "type": "event"
    },
    {
      "anonymous": false,
      "inputs": [
        {
          "indexed": true,
          "internalType": "address",
          "name": "owner",
          "type": "address"
        },
        {
          "indexed": true,
          "internalType": "address",
          "name": "approved",
          "type": "address"
        },
        {
          "indexed": true,
          "internalType": "uint256",
          "name": "tokenId",
          "type": "uint256"
        }
      ],
      "name": "Approval",
      "type": "event"
    },
    {
      "anonymous": false,
      "inputs": [
        {
          "indexed": true,
          "internalType": "address",
          "name": "owner",
          "type": "address"
        },
        {
          "indexed": true,
          "internalType": "address",
          "name": "operator",
          "type": "address"
        },
        {
          "indexed": false,
          "internalType": "bool",
          "name": "approved",
          "type": "bool"
        }
      ],
      "name": "ApprovalForAll",
      "type": "event"
    },
    {
      "anonymous": false,
      "inputs": [
        {
          "indexed": true,
          "internalType": "uint256",
          "name": "tokenId",
          "type": "uint256"
        },
        {
          "indexed": true,
          "internalType": "uint256",
          "name": "tierId",
          "type": "uint256"
        },
        {
          "indexed": true,
          "internalType": "address",
          "name": "beneficiary",
          "type": "address"
        },
        {
          "indexed": false,
          "internalType": "uint256",
          "name": "totalAmountContributed",
          "type": "uint256"
        },
        {
          "indexed": false,
          "internalType": "address",
          "name": "caller",
          "type": "address"
        }
      ],
      "name": "Mint",
      "type": "event"
    },
    {
      "anonymous": false,
      "inputs": [
        {
          "indexed": true,
          "internalType": "uint256",
          "name": "tokenId",
          "type": "uint256"
        },
        {
          "indexed": true,
          "internalType": "uint256",
          "name": "tierId",
          "type": "uint256"
        },
        {
          "indexed": true,
          "internalType": "address",
          "name": "beneficiary",
          "type": "address"
        },
        {
          "indexed": false,
          "internalType": "address",
          "name": "caller",
          "type": "address"
        }
      ],
      "name": "MintReservedToken",
      "type": "event"
    },
    {
      "anonymous": false,
      "inputs": [
        {
          "indexed": true,
          "internalType": "address",
          "name": "previousOwner",
          "type": "address"
        },
        {
          "indexed": true,
          "internalType": "address",
          "name": "newOwner",
          "type": "address"
        }
      ],
      "name": "OwnershipTransferred",
      "type": "event"
    },
    {
      "anonymous": false,
      "inputs": [
        {
          "indexed": false,
          "internalType": "uint8",
          "name": "newIndex",
          "type": "uint8"
        }
      ],
      "name": "PermissionIndexChanged",
      "type": "event"
    },
    {
      "anonymous": false,
      "inputs": [
        {
          "indexed": true,
          "internalType": "uint256",
          "name": "tierId",
          "type": "uint256"
        },
        {
          "indexed": false,
          "internalType": "address",
          "name": "caller",
          "type": "address"
        }
      ],
      "name": "RemoveTier",
      "type": "event"
    },
    {
      "anonymous": false,
      "inputs": [
        {
          "indexed": true,
          "internalType": "string",
          "name": "baseUri",
          "type": "string"
        },
        {
          "indexed": false,
          "internalType": "address",
          "name": "caller",
          "type": "address"
        }
      ],
      "name": "SetBaseUri",
      "type": "event"
    },
    {
      "anonymous": false,
      "inputs": [
        {
          "indexed": true,
          "internalType": "string",
          "name": "contractUri",
          "type": "string"
        },
        {
          "indexed": false,
          "internalType": "address",
          "name": "caller",
          "type": "address"
        }
      ],
      "name": "SetContractUri",
      "type": "event"
    },
    {
      "anonymous": false,
      "inputs": [
        {
          "indexed": true,
          "internalType": "address",
          "name": "beneficiary",
          "type": "address"
        },
        {
          "indexed": false,
          "internalType": "address",
          "name": "caller",
          "type": "address"
        }
      ],
      "name": "SetDefaultReservedTokenBeneficiary",
      "type": "event"
    },
    {
      "anonymous": false,
      "inputs": [
        {
          "indexed": true,
          "internalType": "uint256",
          "name": "tierId",
          "type": "uint256"
        },
        {
          "indexed": false,
          "internalType": "bytes32",
          "name": "encodedIPFSUri",
          "type": "bytes32"
        },
        {
          "indexed": false,
          "internalType": "address",
          "name": "caller",
          "type": "address"
        }
      ],
      "name": "SetEncodedIPFSUri",
      "type": "event"
    },
    {
      "anonymous": false,
      "inputs": [
        {
          "indexed": true,
          "internalType": "contract IJBTokenUriResolver",
          "name": "newResolver",
          "type": "address"
        },
        {
          "indexed": false,
          "internalType": "address",
          "name": "caller",
          "type": "address"
        }
      ],
      "name": "SetTokenUriResolver",
      "type": "event"
    },
    {
      "anonymous": false,
      "inputs": [
        {
          "indexed": true,
          "internalType": "address",
          "name": "from",
          "type": "address"
        },
        {
          "indexed": true,
          "internalType": "address",
          "name": "to",
          "type": "address"
        },
        {
          "indexed": true,
          "internalType": "uint256",
          "name": "tokenId",
          "type": "uint256"
        }
      ],
      "name": "Transfer",
      "type": "event"
    },
    {
      "anonymous": false,
      "inputs": [
        {
          "indexed": true,
          "internalType": "uint256",
          "name": "changeAmount",
          "type": "uint256"
        },
        {
          "indexed": true,
          "internalType": "uint256",
          "name": "newTotalCredits",
          "type": "uint256"
        },
        {
          "indexed": true,
          "internalType": "address",
          "name": "account",
          "type": "address"
        },
        {
          "indexed": false,
          "internalType": "address",
          "name": "caller",
          "type": "address"
        }
      ],
      "name": "UseCredits",
      "type": "event"
    },
    {
      "inputs": [
        {
          "components": [
            {
              "internalType": "uint88",
              "name": "price",
              "type": "uint88"
            },
            {
              "internalType": "uint40",
              "name": "initialQuantity",
              "type": "uint40"
            },
            {
              "internalType": "uint40",
              "name": "votingUnits",
              "type": "uint40"
            },
            {
              "internalType": "uint16",
              "name": "reservedRate",
              "type": "uint16"
            },
            {
              "internalType": "address",
              "name": "reservedTokenBeneficiary",
              "type": "address"
            },
            {
              "internalType": "uint8",
              "name": "royaltyRate",
              "type": "uint8"
            },
            {
              "internalType": "address",
              "name": "royaltyBeneficiary",
              "type": "address"
            },
            {
              "internalType": "bytes32",
              "name": "encodedIPFSUri",
              "type": "bytes32"
            },
            {
              "internalType": "uint16",
              "name": "category",
              "type": "uint16"
            },
            {
              "internalType": "bool",
              "name": "allowManualMint",
              "type": "bool"
            },
            {
              "internalType": "bool",
              "name": "shouldUseReservedTokenBeneficiaryAsDefault",
              "type": "bool"
            },
            {
              "internalType": "bool",
              "name": "shouldUseRoyaltyBeneficiaryAsDefault",
              "type": "bool"
            },
            {
              "internalType": "bool",
              "name": "transfersPausable",
              "type": "bool"
            },
            {
              "internalType": "bool",
              "name": "useVotingUnits",
              "type": "bool"
            }
          ],
          "internalType": "struct JB721TierParams[]",
          "name": "_tiersToAdd",
          "type": "tuple[]"
        },
        {
          "internalType": "uint256[]",
          "name": "_tierIdsToRemove",
          "type": "uint256[]"
        }
      ],
      "name": "adjustTiers",
      "outputs": [],
      "stateMutability": "nonpayable",
      "type": "function"
    },
    {
      "inputs": [
        {
          "internalType": "address",
          "name": "to",
          "type": "address"
        },
        {
          "internalType": "uint256",
          "name": "tokenId",
          "type": "uint256"
        }
      ],
      "name": "approve",
      "outputs": [],
      "stateMutability": "nonpayable",
      "type": "function"
    },
    {
      "inputs": [
        {
          "internalType": "address",
          "name": "_owner",
          "type": "address"
        }
      ],
      "name": "balanceOf",
      "outputs": [
        {
          "internalType": "uint256",
          "name": "balance",
          "type": "uint256"
        }
      ],
      "stateMutability": "view",
      "type": "function"
    },
    {
      "inputs": [],
      "name": "codeOrigin",
      "outputs": [
        {
          "internalType": "address",
          "name": "",
          "type": "address"
        }
      ],
      "stateMutability": "view",
      "type": "function"
    },
    {
      "inputs": [],
      "name": "contractURI",
      "outputs": [
        {
          "internalType": "string",
          "name": "",
          "type": "string"
        }
      ],
      "stateMutability": "view",
      "type": "function"
    },
    {
      "inputs": [
        {
          "internalType": "address",
          "name": "",
          "type": "address"
        }
      ],
      "name": "creditsOf",
      "outputs": [
        {
          "internalType": "uint256",
          "name": "",
          "type": "uint256"
        }
      ],
      "stateMutability": "view",
      "type": "function"
    },
    {
      "inputs": [
        {
          "components": [
            {
              "internalType": "address",
              "name": "payer",
              "type": "address"
            },
            {
              "internalType": "uint256",
              "name": "projectId",
              "type": "uint256"
            },
            {
              "internalType": "uint256",
              "name": "currentFundingCycleConfiguration",
              "type": "uint256"
            },
            {
              "components": [
                {
                  "internalType": "address",
                  "name": "token",
                  "type": "address"
                },
                {
                  "internalType": "uint256",
                  "name": "value",
                  "type": "uint256"
                },
                {
                  "internalType": "uint256",
                  "name": "decimals",
                  "type": "uint256"
                },
                {
                  "internalType": "uint256",
                  "name": "currency",
                  "type": "uint256"
                }
              ],
              "internalType": "struct JBTokenAmount",
              "name": "amount",
              "type": "tuple"
            },
            {
              "components": [
                {
                  "internalType": "address",
                  "name": "token",
                  "type": "address"
                },
                {
                  "internalType": "uint256",
                  "name": "value",
                  "type": "uint256"
                },
                {
                  "internalType": "uint256",
                  "name": "decimals",
                  "type": "uint256"
                },
                {
                  "internalType": "uint256",
                  "name": "currency",
                  "type": "uint256"
                }
              ],
              "internalType": "struct JBTokenAmount",
              "name": "forwardedAmount",
              "type": "tuple"
            },
            {
              "internalType": "uint256",
              "name": "projectTokenCount",
              "type": "uint256"
            },
            {
              "internalType": "address",
              "name": "beneficiary",
              "type": "address"
            },
            {
              "internalType": "bool",
              "name": "preferClaimedTokens",
              "type": "bool"
            },
            {
              "internalType": "string",
              "name": "memo",
              "type": "string"
            },
            {
              "internalType": "bytes",
              "name": "metadata",
              "type": "bytes"
            }
          ],
          "internalType": "struct JBDidPayData",
          "name": "_data",
          "type": "tuple"
        }
      ],
      "name": "didPay",
      "outputs": [],
      "stateMutability": "payable",
      "type": "function"
    },
    {
      "inputs": [
        {
          "components": [
            {
              "internalType": "address",
              "name": "holder",
              "type": "address"
            },
            {
              "internalType": "uint256",
              "name": "projectId",
              "type": "uint256"
            },
            {
              "internalType": "uint256",
              "name": "currentFundingCycleConfiguration",
              "type": "uint256"
            },
            {
              "internalType": "uint256",
              "name": "projectTokenCount",
              "type": "uint256"
            },
            {
              "components": [
                {
                  "internalType": "address",
                  "name": "token",
                  "type": "address"
                },
                {
                  "internalType": "uint256",
                  "name": "value",
                  "type": "uint256"
                },
                {
                  "internalType": "uint256",
                  "name": "decimals",
                  "type": "uint256"
                },
                {
                  "internalType": "uint256",
                  "name": "currency",
                  "type": "uint256"
                }
              ],
              "internalType": "struct JBTokenAmount",
              "name": "reclaimedAmount",
              "type": "tuple"
            },
            {
              "components": [
                {
                  "internalType": "address",
                  "name": "token",
                  "type": "address"
                },
                {
                  "internalType": "uint256",
                  "name": "value",
                  "type": "uint256"
                },
                {
                  "internalType": "uint256",
                  "name": "decimals",
                  "type": "uint256"
                },
                {
                  "internalType": "uint256",
                  "name": "currency",
                  "type": "uint256"
                }
              ],
              "internalType": "struct JBTokenAmount",
              "name": "forwardedAmount",
              "type": "tuple"
            },
            {
              "internalType": "address payable",
              "name": "beneficiary",
              "type": "address"
            },
            {
              "internalType": "string",
              "name": "memo",
              "type": "string"
            },
            {
              "internalType": "bytes",
              "name": "metadata",
              "type": "bytes"
            }
          ],
          "internalType": "struct JBDidRedeemData",
          "name": "_data",
          "type": "tuple"
        }
      ],
      "name": "didRedeem",
      "outputs": [],
      "stateMutability": "payable",
      "type": "function"
    },
    {
      "inputs": [],
      "name": "directory",
      "outputs": [
        {
          "internalType": "contract IJBDirectory",
          "name": "",
          "type": "address"
        }
      ],
      "stateMutability": "view",
      "type": "function"
    },
    {
      "inputs": [
        {
          "internalType": "uint256",
          "name": "_tokenId",
          "type": "uint256"
        }
      ],
      "name": "firstOwnerOf",
      "outputs": [
        {
          "internalType": "address",
          "name": "",
          "type": "address"
        }
      ],
      "stateMutability": "view",
      "type": "function"
    },
    {
      "inputs": [],
      "name": "fundingCycleStore",
      "outputs": [
        {
          "internalType": "contract IJBFundingCycleStore",
          "name": "",
          "type": "address"
        }
      ],
      "stateMutability": "view",
      "type": "function"
    },
    {
      "inputs": [
        {
          "internalType": "uint256",
          "name": "tokenId",
          "type": "uint256"
        }
      ],
      "name": "getApproved",
      "outputs": [
        {
          "internalType": "address",
          "name": "",
          "type": "address"
        }
      ],
      "stateMutability": "view",
      "type": "function"
    },
    {
      "inputs": [
        {
          "internalType": "uint256",
          "name": "_projectId",
          "type": "uint256"
        },
        {
          "internalType": "contract IJBDirectory",
          "name": "_directory",
          "type": "address"
        },
        {
          "internalType": "string",
          "name": "_name",
          "type": "string"
        },
        {
          "internalType": "string",
          "name": "_symbol",
          "type": "string"
        },
        {
          "internalType": "contract IJBFundingCycleStore",
          "name": "_fundingCycleStore",
          "type": "address"
        },
        {
          "internalType": "string",
          "name": "_baseUri",
          "type": "string"
        },
        {
          "internalType": "contract IJBTokenUriResolver",
          "name": "_tokenUriResolver",
          "type": "address"
        },
        {
          "internalType": "string",
          "name": "_contractUri",
          "type": "string"
        },
        {
          "components": [
            {
              "components": [
                {
                  "internalType": "uint88",
                  "name": "price",
                  "type": "uint88"
                },
                {
                  "internalType": "uint40",
                  "name": "initialQuantity",
                  "type": "uint40"
                },
                {
                  "internalType": "uint40",
                  "name": "votingUnits",
                  "type": "uint40"
                },
                {
                  "internalType": "uint16",
                  "name": "reservedRate",
                  "type": "uint16"
                },
                {
                  "internalType": "address",
                  "name": "reservedTokenBeneficiary",
                  "type": "address"
                },
                {
                  "internalType": "uint8",
                  "name": "royaltyRate",
                  "type": "uint8"
                },
                {
                  "internalType": "address",
                  "name": "royaltyBeneficiary",
                  "type": "address"
                },
                {
                  "internalType": "bytes32",
                  "name": "encodedIPFSUri",
                  "type": "bytes32"
                },
                {
                  "internalType": "uint16",
                  "name": "category",
                  "type": "uint16"
                },
                {
                  "internalType": "bool",
                  "name": "allowManualMint",
                  "type": "bool"
                },
                {
                  "internalType": "bool",
                  "name": "shouldUseReservedTokenBeneficiaryAsDefault",
                  "type": "bool"
                },
                {
                  "internalType": "bool",
                  "name": "shouldUseRoyaltyBeneficiaryAsDefault",
                  "type": "bool"
                },
                {
                  "internalType": "bool",
                  "name": "transfersPausable",
                  "type": "bool"
                },
                {
                  "internalType": "bool",
                  "name": "useVotingUnits",
                  "type": "bool"
                }
              ],
              "internalType": "struct JB721TierParams[]",
              "name": "tiers",
              "type": "tuple[]"
            },
            {
              "internalType": "uint256",
              "name": "currency",
              "type": "uint256"
            },
            {
              "internalType": "uint256",
              "name": "decimals",
              "type": "uint256"
            },
            {
              "internalType": "contract IJBPrices",
              "name": "prices",
              "type": "address"
            }
          ],
          "internalType": "struct JB721PricingParams",
          "name": "_pricing",
          "type": "tuple"
        },
        {
          "internalType": "contract IJBTiered721DelegateStore",
          "name": "_store",
          "type": "address"
        },
        {
          "components": [
            {
              "internalType": "bool",
              "name": "lockReservedTokenChanges",
              "type": "bool"
            },
            {
              "internalType": "bool",
              "name": "lockVotingUnitChanges",
              "type": "bool"
            },
            {
              "internalType": "bool",
              "name": "lockManualMintingChanges",
              "type": "bool"
            },
            {
              "internalType": "bool",
              "name": "preventOverspending",
              "type": "bool"
            }
          ],
          "internalType": "struct JBTiered721Flags",
          "name": "_flags",
          "type": "tuple"
        }
      ],
      "name": "initialize",
      "outputs": [],
      "stateMutability": "nonpayable",
      "type": "function"
    },
    {
      "inputs": [
        {
          "internalType": "address",
          "name": "owner",
          "type": "address"
        },
        {
          "internalType": "address",
          "name": "operator",
          "type": "address"
        }
      ],
      "name": "isApprovedForAll",
      "outputs": [
        {
          "internalType": "bool",
          "name": "",
          "type": "bool"
        }
      ],
      "stateMutability": "view",
      "type": "function"
    },
    {
      "inputs": [],
      "name": "jbOwner",
      "outputs": [
        {
          "internalType": "address",
          "name": "owner",
          "type": "address"
        },
        {
          "internalType": "uint88",
          "name": "projectId",
          "type": "uint88"
        },
        {
          "internalType": "uint8",
          "name": "permissionIndex",
          "type": "uint8"
        }
      ],
      "stateMutability": "view",
      "type": "function"
    },
    {
      "inputs": [
        {
          "components": [
            {
              "internalType": "uint16[]",
              "name": "tierIds",
              "type": "uint16[]"
            },
            {
              "internalType": "address",
              "name": "beneficiary",
              "type": "address"
            }
          ],
          "internalType": "struct JBTiered721MintForTiersData[]",
          "name": "_mintForTiersData",
          "type": "tuple[]"
        }
      ],
      "name": "mintFor",
      "outputs": [],
      "stateMutability": "nonpayable",
      "type": "function"
    },
    {
      "inputs": [
        {
          "internalType": "uint16[]",
          "name": "_tierIds",
          "type": "uint16[]"
        },
        {
          "internalType": "address",
          "name": "_beneficiary",
          "type": "address"
        }
      ],
      "name": "mintFor",
      "outputs": [
        {
          "internalType": "uint256[]",
          "name": "tokenIds",
          "type": "uint256[]"
        }
      ],
      "stateMutability": "nonpayable",
      "type": "function"
    },
    {
      "inputs": [
        {
          "components": [
            {
              "internalType": "uint256",
              "name": "tierId",
              "type": "uint256"
            },
            {
              "internalType": "uint256",
              "name": "count",
              "type": "uint256"
            }
          ],
          "internalType": "struct JBTiered721MintReservesForTiersData[]",
          "name": "_mintReservesForTiersData",
          "type": "tuple[]"
        }
      ],
      "name": "mintReservesFor",
      "outputs": [],
      "stateMutability": "nonpayable",
      "type": "function"
    },
    {
      "inputs": [
        {
          "internalType": "uint256",
          "name": "_tierId",
          "type": "uint256"
        },
        {
          "internalType": "uint256",
          "name": "_count",
          "type": "uint256"
        }
      ],
      "name": "mintReservesFor",
      "outputs": [],
      "stateMutability": "nonpayable",
      "type": "function"
    },
    {
      "inputs": [],
      "name": "name",
      "outputs": [
        {
          "internalType": "string",
          "name": "",
          "type": "string"
        }
      ],
      "stateMutability": "view",
      "type": "function"
    },
    {
      "inputs": [],
      "name": "operatorStore",
      "outputs": [
        {
          "internalType": "contract IJBOperatorStore",
          "name": "",
          "type": "address"
        }
      ],
      "stateMutability": "view",
      "type": "function"
    },
    {
      "inputs": [],
      "name": "owner",
      "outputs": [
        {
          "internalType": "address",
          "name": "",
          "type": "address"
        }
      ],
      "stateMutability": "view",
      "type": "function"
    },
    {
      "inputs": [
        {
          "internalType": "uint256",
          "name": "tokenId",
          "type": "uint256"
        }
      ],
      "name": "ownerOf",
      "outputs": [
        {
          "internalType": "address",
          "name": "",
          "type": "address"
        }
      ],
      "stateMutability": "view",
      "type": "function"
    },
    {
      "inputs": [
        {
          "components": [
            {
              "internalType": "contract IJBPaymentTerminal",
              "name": "terminal",
              "type": "address"
            },
            {
              "internalType": "address",
              "name": "payer",
              "type": "address"
            },
            {
              "components": [
                {
                  "internalType": "address",
                  "name": "token",
                  "type": "address"
                },
                {
                  "internalType": "uint256",
                  "name": "value",
                  "type": "uint256"
                },
                {
                  "internalType": "uint256",
                  "name": "decimals",
                  "type": "uint256"
                },
                {
                  "internalType": "uint256",
                  "name": "currency",
                  "type": "uint256"
                }
              ],
              "internalType": "struct JBTokenAmount",
              "name": "amount",
              "type": "tuple"
            },
            {
              "internalType": "uint256",
              "name": "projectId",
              "type": "uint256"
            },
            {
              "internalType": "uint256",
              "name": "currentFundingCycleConfiguration",
              "type": "uint256"
            },
            {
              "internalType": "address",
              "name": "beneficiary",
              "type": "address"
            },
            {
              "internalType": "uint256",
              "name": "weight",
              "type": "uint256"
            },
            {
              "internalType": "uint256",
              "name": "reservedRate",
              "type": "uint256"
            },
            {
              "internalType": "string",
              "name": "memo",
              "type": "string"
            },
            {
              "internalType": "bytes",
              "name": "metadata",
              "type": "bytes"
            }
          ],
          "internalType": "struct JBPayParamsData",
          "name": "_data",
          "type": "tuple"
        }
      ],
      "name": "payParams",
      "outputs": [
        {
          "internalType": "uint256",
          "name": "weight",
          "type": "uint256"
        },
        {
          "internalType": "string",
          "name": "memo",
          "type": "string"
        },
        {
          "components": [
            {
              "internalType": "contract IJBPayDelegate",
              "name": "delegate",
              "type": "address"
            },
            {
              "internalType": "uint256",
              "name": "amount",
              "type": "uint256"
            }
          ],
          "internalType": "struct JBPayDelegateAllocation[]",
          "name": "delegateAllocations",
          "type": "tuple[]"
        }
      ],
      "stateMutability": "view",
      "type": "function"
    },
    {
      "inputs": [],
      "name": "prices",
      "outputs": [
        {
          "internalType": "contract IJBPrices",
          "name": "",
          "type": "address"
        }
      ],
      "stateMutability": "view",
      "type": "function"
    },
    {
      "inputs": [],
      "name": "pricingCurrency",
      "outputs": [
        {
          "internalType": "uint256",
          "name": "",
          "type": "uint256"
        }
      ],
      "stateMutability": "view",
      "type": "function"
    },
    {
      "inputs": [],
      "name": "pricingDecimals",
      "outputs": [
        {
          "internalType": "uint256",
          "name": "",
          "type": "uint256"
        }
      ],
      "stateMutability": "view",
      "type": "function"
    },
    {
      "inputs": [],
      "name": "projectId",
      "outputs": [
        {
          "internalType": "uint256",
          "name": "",
          "type": "uint256"
        }
      ],
      "stateMutability": "view",
      "type": "function"
    },
    {
      "inputs": [],
      "name": "projects",
      "outputs": [
        {
          "internalType": "contract IJBProjects",
          "name": "",
          "type": "address"
        }
      ],
      "stateMutability": "view",
      "type": "function"
    },
    {
      "inputs": [
        {
          "components": [
            {
              "internalType": "contract IJBPaymentTerminal",
              "name": "terminal",
              "type": "address"
            },
            {
              "internalType": "address",
              "name": "holder",
              "type": "address"
            },
            {
              "internalType": "uint256",
              "name": "projectId",
              "type": "uint256"
            },
            {
              "internalType": "uint256",
              "name": "currentFundingCycleConfiguration",
              "type": "uint256"
            },
            {
              "internalType": "uint256",
              "name": "tokenCount",
              "type": "uint256"
            },
            {
              "internalType": "uint256",
              "name": "totalSupply",
              "type": "uint256"
            },
            {
              "internalType": "uint256",
              "name": "overflow",
              "type": "uint256"
            },
            {
              "components": [
                {
                  "internalType": "address",
                  "name": "token",
                  "type": "address"
                },
                {
                  "internalType": "uint256",
                  "name": "value",
                  "type": "uint256"
                },
                {
                  "internalType": "uint256",
                  "name": "decimals",
                  "type": "uint256"
                },
                {
                  "internalType": "uint256",
                  "name": "currency",
                  "type": "uint256"
                }
              ],
              "internalType": "struct JBTokenAmount",
              "name": "reclaimAmount",
              "type": "tuple"
            },
            {
              "internalType": "bool",
              "name": "useTotalOverflow",
              "type": "bool"
            },
            {
              "internalType": "uint256",
              "name": "redemptionRate",
              "type": "uint256"
            },
            {
              "internalType": "string",
              "name": "memo",
              "type": "string"
            },
            {
              "internalType": "bytes",
              "name": "metadata",
              "type": "bytes"
            }
          ],
          "internalType": "struct JBRedeemParamsData",
          "name": "_data",
          "type": "tuple"
        }
      ],
      "name": "redeemParams",
      "outputs": [
        {
          "internalType": "uint256",
          "name": "reclaimAmount",
          "type": "uint256"
        },
        {
          "internalType": "string",
          "name": "memo",
          "type": "string"
        },
        {
          "components": [
            {
              "internalType": "contract IJBRedemptionDelegate",
              "name": "delegate",
              "type": "address"
            },
            {
              "internalType": "uint256",
              "name": "amount",
              "type": "uint256"
            }
          ],
          "internalType": "struct JBRedemptionDelegateAllocation[]",
          "name": "delegateAllocations",
          "type": "tuple[]"
        }
      ],
      "stateMutability": "view",
      "type": "function"
    },
    {
      "inputs": [
        {
          "internalType": "uint256[]",
          "name": "_tokenIds",
          "type": "uint256[]"
        },
        {
          "components": [
            {
              "internalType": "contract IJBPaymentTerminal",
              "name": "terminal",
              "type": "address"
            },
            {
              "internalType": "address",
              "name": "holder",
              "type": "address"
            },
            {
              "internalType": "uint256",
              "name": "projectId",
              "type": "uint256"
            },
            {
              "internalType": "uint256",
              "name": "currentFundingCycleConfiguration",
              "type": "uint256"
            },
            {
              "internalType": "uint256",
              "name": "tokenCount",
              "type": "uint256"
            },
            {
              "internalType": "uint256",
              "name": "totalSupply",
              "type": "uint256"
            },
            {
              "internalType": "uint256",
              "name": "overflow",
              "type": "uint256"
            },
            {
              "components": [
                {
                  "internalType": "address",
                  "name": "token",
                  "type": "address"
                },
                {
                  "internalType": "uint256",
                  "name": "value",
                  "type": "uint256"
                },
                {
                  "internalType": "uint256",
                  "name": "decimals",
                  "type": "uint256"
                },
                {
                  "internalType": "uint256",
                  "name": "currency",
                  "type": "uint256"
                }
              ],
              "internalType": "struct JBTokenAmount",
              "name": "reclaimAmount",
              "type": "tuple"
            },
            {
              "internalType": "bool",
              "name": "useTotalOverflow",
              "type": "bool"
            },
            {
              "internalType": "uint256",
              "name": "redemptionRate",
              "type": "uint256"
            },
            {
              "internalType": "string",
              "name": "memo",
              "type": "string"
            },
            {
              "internalType": "bytes",
              "name": "metadata",
              "type": "bytes"
            }
          ],
          "internalType": "struct JBRedeemParamsData",
          "name": "",
          "type": "tuple"
        }
      ],
      "name": "redemptionWeightOf",
      "outputs": [
        {
          "internalType": "uint256",
          "name": "",
          "type": "uint256"
        }
      ],
      "stateMutability": "view",
      "type": "function"
    },
    {
      "inputs": [],
      "name": "renounceOwnership",
      "outputs": [],
      "stateMutability": "nonpayable",
      "type": "function"
    },
    {
      "inputs": [
        {
          "internalType": "uint256",
          "name": "_tokenId",
          "type": "uint256"
        },
        {
          "internalType": "uint256",
          "name": "_salePrice",
          "type": "uint256"
        }
      ],
      "name": "royaltyInfo",
      "outputs": [
        {
          "internalType": "address",
          "name": "",
          "type": "address"
        },
        {
          "internalType": "uint256",
          "name": "",
          "type": "uint256"
        }
      ],
      "stateMutability": "view",
      "type": "function"
    },
    {
      "inputs": [
        {
          "internalType": "address",
          "name": "from",
          "type": "address"
        },
        {
          "internalType": "address",
          "name": "to",
          "type": "address"
        },
        {
          "internalType": "uint256",
          "name": "tokenId",
          "type": "uint256"
        }
      ],
      "name": "safeTransferFrom",
      "outputs": [],
      "stateMutability": "nonpayable",
      "type": "function"
    },
    {
      "inputs": [
        {
          "internalType": "address",
          "name": "from",
          "type": "address"
        },
        {
          "internalType": "address",
          "name": "to",
          "type": "address"
        },
        {
          "internalType": "uint256",
          "name": "tokenId",
          "type": "uint256"
        },
        {
          "internalType": "bytes",
          "name": "data",
          "type": "bytes"
        }
      ],
      "name": "safeTransferFrom",
      "outputs": [],
      "stateMutability": "nonpayable",
      "type": "function"
    },
    {
      "inputs": [
        {
          "internalType": "address",
          "name": "operator",
          "type": "address"
        },
        {
          "internalType": "bool",
          "name": "approved",
          "type": "bool"
        }
      ],
      "name": "setApprovalForAll",
      "outputs": [],
      "stateMutability": "nonpayable",
      "type": "function"
    },
    {
      "inputs": [
        {
          "internalType": "string",
          "name": "_baseUri",
          "type": "string"
        }
      ],
      "name": "setBaseUri",
      "outputs": [],
      "stateMutability": "nonpayable",
      "type": "function"
    },
    {
      "inputs": [
        {
          "internalType": "string",
          "name": "_contractUri",
          "type": "string"
        }
      ],
      "name": "setContractUri",
      "outputs": [],
      "stateMutability": "nonpayable",
      "type": "function"
    },
    {
      "inputs": [
        {
          "internalType": "address",
          "name": "_beneficiary",
          "type": "address"
        }
      ],
      "name": "setDefaultReservedTokenBeneficiary",
      "outputs": [],
      "stateMutability": "nonpayable",
      "type": "function"
    },
    {
      "inputs": [
        {
          "internalType": "uint256",
          "name": "_tierId",
          "type": "uint256"
        },
        {
          "internalType": "bytes32",
          "name": "_encodedIPFSUri",
          "type": "bytes32"
        }
      ],
      "name": "setEncodedIPFSUriOf",
      "outputs": [],
      "stateMutability": "nonpayable",
      "type": "function"
    },
    {
      "inputs": [
        {
          "internalType": "uint8",
          "name": "_permissionIndex",
          "type": "uint8"
        }
      ],
      "name": "setPermissionIndex",
      "outputs": [],
      "stateMutability": "nonpayable",
      "type": "function"
    },
    {
      "inputs": [
        {
          "internalType": "contract IJBTokenUriResolver",
          "name": "_tokenUriResolver",
          "type": "address"
        }
      ],
      "name": "setTokenUriResolver",
      "outputs": [],
      "stateMutability": "nonpayable",
      "type": "function"
    },
    {
      "inputs": [],
      "name": "store",
      "outputs": [
        {
          "internalType": "contract IJBTiered721DelegateStore",
          "name": "",
          "type": "address"
        }
      ],
      "stateMutability": "view",
      "type": "function"
    },
    {
      "inputs": [
        {
          "internalType": "bytes4",
          "name": "_interfaceId",
          "type": "bytes4"
        }
      ],
      "name": "supportsInterface",
      "outputs": [
        {
          "internalType": "bool",
          "name": "",
          "type": "bool"
        }
      ],
      "stateMutability": "view",
      "type": "function"
    },
    {
      "inputs": [],
      "name": "symbol",
      "outputs": [
        {
          "internalType": "string",
          "name": "",
          "type": "string"
        }
      ],
      "stateMutability": "view",
      "type": "function"
    },
    {
      "inputs": [
        {
          "internalType": "uint256",
          "name": "_tokenId",
          "type": "uint256"
        }
      ],
      "name": "tokenURI",
      "outputs": [
        {
          "internalType": "string",
          "name": "",
          "type": "string"
        }
      ],
      "stateMutability": "view",
      "type": "function"
    },
    {
      "inputs": [
        {
          "components": [
            {
              "internalType": "contract IJBPaymentTerminal",
              "name": "terminal",
              "type": "address"
            },
            {
              "internalType": "address",
              "name": "holder",
              "type": "address"
            },
            {
              "internalType": "uint256",
              "name": "projectId",
              "type": "uint256"
            },
            {
              "internalType": "uint256",
              "name": "currentFundingCycleConfiguration",
              "type": "uint256"
            },
            {
              "internalType": "uint256",
              "name": "tokenCount",
              "type": "uint256"
            },
            {
              "internalType": "uint256",
              "name": "totalSupply",
              "type": "uint256"
            },
            {
              "internalType": "uint256",
              "name": "overflow",
              "type": "uint256"
            },
            {
              "components": [
                {
                  "internalType": "address",
                  "name": "token",
                  "type": "address"
                },
                {
                  "internalType": "uint256",
                  "name": "value",
                  "type": "uint256"
                },
                {
                  "internalType": "uint256",
                  "name": "decimals",
                  "type": "uint256"
                },
                {
                  "internalType": "uint256",
                  "name": "currency",
                  "type": "uint256"
                }
              ],
              "internalType": "struct JBTokenAmount",
              "name": "reclaimAmount",
              "type": "tuple"
            },
            {
              "internalType": "bool",
              "name": "useTotalOverflow",
              "type": "bool"
            },
            {
              "internalType": "uint256",
              "name": "redemptionRate",
              "type": "uint256"
            },
            {
              "internalType": "string",
              "name": "memo",
              "type": "string"
            },
            {
              "internalType": "bytes",
              "name": "metadata",
              "type": "bytes"
            }
          ],
          "internalType": "struct JBRedeemParamsData",
          "name": "",
          "type": "tuple"
        }
      ],
      "name": "totalRedemptionWeight",
      "outputs": [
        {
          "internalType": "uint256",
          "name": "",
          "type": "uint256"
        }
      ],
      "stateMutability": "view",
      "type": "function"
    },
    {
      "inputs": [
        {
          "internalType": "address",
          "name": "from",
          "type": "address"
        },
        {
          "internalType": "address",
          "name": "to",
          "type": "address"
        },
        {
          "internalType": "uint256",
          "name": "tokenId",
          "type": "uint256"
        }
      ],
      "name": "transferFrom",
      "outputs": [],
      "stateMutability": "nonpayable",
      "type": "function"
    },
    {
      "inputs": [
        {
          "internalType": "address",
          "name": "_newOwner",
          "type": "address"
        }
      ],
      "name": "transferOwnership",
      "outputs": [],
      "stateMutability": "nonpayable",
      "type": "function"
    },
    {
      "inputs": [
        {
          "internalType": "uint256",
          "name": "_projectId",
          "type": "uint256"
        }
      ],
      "name": "transferOwnershipToProject",
      "outputs": [],
      "stateMutability": "nonpayable",
      "type": "function"
    }
  ],
  "bytecode": {
    "object": "0x60c0604090808252346200024457818162005e1080380380916200002482856200027b565b833981010312620002445780516001600160a01b039290838116810362000244576020809301518481168103620002445760805260a052828151916200006a8362000249565b600080938154848116825260018060581b038160a01c1690818884015260f81c848301528015600014620001a4575060008051602062005df08339815191529383915116955b82825191620000bf8362000249565b338352820152015233835551933393169180a3600880546001600160a01b03191630179055615b509081620002a082396080518181816104c30152818161056e01528181610b7901528181612dc801528181612e6501528181613fdd0152818161407c0152818161568401528181615725015281816158800152615925015260a0518181816105fb015281816109df01528181610de101528181610e860152818161106601528181611ca201528181611de50152818161214f01528181612a3f01528181612efb0152818161410a015281816154470152818161556501526157b00152f35b93905085915060a051169260248351809581936331a9108f60e11b835260048301525afa9182156200023a5783908193620001f4575b508160008051602062005df08339815191529395620000b0565b80929350858092503d831162000232575b6200021181836200027b565b810103126200022e575184811681036200022e57908281620001da565b8280fd5b503d62000205565b81513d85823e3d90fd5b600080fd5b606081019081106001600160401b038211176200026557604052565b634e487b7160e01b600052604160045260246000fd5b601f909101601f19168101906001600160401b03821190821017620002655760405256fe608080604052600436101561001357600080fd5b600090813560e01c90816301ffc9a7146130ed5750806306fdde031461305b578063081812fc1461303c578063095ea7b314612f6f57806314ea9b0614612b1a5780631d153ca414612af157806323b872dd14612ab75780632407497e14612945578063245a45b51461290c5780632a55205a1461284f5780632a596e53146127b15780632b13c58f146122d257806336c1a93b1461222b5780633fafa1271461220d57806342842e0e146121e55780634ecba625146121c7578063525350ba1461205157806354c6d1f514612032578063557e71551461200957806361aec7a914611f935780636352211e14611f7457806364640c1e14611f565780636ac6d94114611efd57806370a0823114611e6b578063715018a614611d295780637ba62bf914611cd15780638b79543c14611c8c5780638da5cb5b14611c5f5780639494bf7214611c3d5780639521e381146111c657806395d89b4114611107578063975057e7146110de578063a0bcfc7f14610f62578063a220d69614610ce3578063a22cb46514610c3f578063a51cfd1814610bc0578063aa4fb15b14610ba8578063ad007d6314610b63578063b88d4fde14610b03578063ba23c36e14610ac3578063c41c2f2414610a9a578063c87b56dd14610a66578063ccb4807b146108da578063d3419bf3146108b1578063d46cf17114610789578063da9ee8b714610682578063df487e2614610390578063e8a3d485146102fa578063e985e9c5146102a65763f2fde38b1461024757600080fd5b346102a35760203660031901126102a35761026061324b565b6102686155dc565b6001600160a01b03811680156102855750610282906154c5565b80f35b60449083604051916324abfd1160e11b835260048301526024820152fd5b80fd5b50346102a35760403660031901126102a3576102c061324b565b60406102ca613261565b9260018060a01b0380931681526005602052209116600052602052602060ff604060002054166040519015158152f35b50346102a357806003193601126102a357600954604051630155619b60e71b8152306004820152908290829060249082906001600160a01b03165afa908115610385578261035e9392610362575b5050604051918291602083526020830190613226565b0390f35b61037e92503d8091833e61037681836133f9565b81019061367e565b3880610348565b6040513d84823e3d90fd5b50346102a35760208060031936011261067e576103ab61324b565b906103b46139fa565b818101906001600160581b03908183511680156000146105dd5750516001600160a01b0316915b511660018060a01b0380921680331415918261053d575b5081610492575b50610480578084916009541693843b1561047c5782916024839260405194859384926317161f7d60e01b845216988960048401525af1801561038557610468575b50507fab0014d4c7a642a02a31b303a318908c22b0fb2001f107278fc6076b4c671b6590604051338152a280f35b6104719061337a565b61047c57823861043a565b8280fd5b60405163075fd2b160e01b8152600490fd5b90506040519063c161c93f60e01b8252336004830152602482015260006044820152601760648201528281608481857f0000000000000000000000000000000000000000000000000000000000000000165afa908115610531576000916104fc575b5015386103f9565b908382813d831161052a575b61051281836133f9565b810103126102a357506105249061444c565b386104f4565b503d610508565b6040513d6000823e3d90fd5b9091506040519063c161c93f60e01b82523360048301528260248301526044820152601760648201528381608481867f0000000000000000000000000000000000000000000000000000000000000000165afa908115610531576000916105a8575b501590386103f2565b908482813d83116105d6575b6105be81836133f9565b810103126102a357506105d09061444c565b3861059f565b503d6105b4565b6040516331a9108f60e11b81526004810191909152905083816024817f00000000000000000000000000000000000000000000000000000000000000006001600160a01b03165afa90811561067357869161063a575b50916103db565b90508381813d831161066c575b61065181836133f9565b81010312610668576106629061358a565b38610633565b8580fd5b503d610647565b6040513d88823e3d90fd5b5080fd5b5060031960203682011261067e57600435906001600160401b03821161047c5761020090823603011261067e576006543415908115916106f6575b81156106e7575b506106d55761028290600401614bec565b6040516331c57b1b60e21b8152600490fd5b905060248201351415386106c4565b600754604051636e49181f60e01b815260048101839052336024820152919250602090829060449082906001600160a01b03165afa90811561077e578491610741575b5015906106bd565b90506020813d8211610776575b8161075b602093836133f9565b810103126107725761076c9061444c565b38610739565b8380fd5b3d915061074e565b6040513d86823e3d90fd5b50346102a3576003196020368201811361047c57600435916001600160401b038311610772576101a090833603011261047c57916107d86107d16101648401846004016149e5565b36916134aa565b90604051936107e68561338d565b600192838652825b828110610887575061083d906040516108068161338d565b308152848482015261081788613b72565b5261082187613b72565b5061012460405196013586526060838701526060860190613226565b9084820360408601528080875193848152019601925b8281106108605785870386f35b835180516001600160a01b0316885282015182880152604090960195928101928401610853565b82906040979597516108988161338d565b60008152600083820152828288010152019593956107ee565b50346102a357806003193601126102a357600b546040516001600160a01b039091168152602090f35b50346102a3576108e936613541565b906108f26139fa565b916020928381016001600160581b03808251169283156000146109c2575161092893506001600160a01b0316915b511690615828565b60095484906001600160a01b0316803b1561067e5781604051809263d67b78fd60e01b825281838161095e898b60048401613b93565b03925af18015610385576109ae575b50507fd36dc0c1a06103fdcaf15f3f6fb797d1a97997514c78de073640c8b5005454b89181604051928392833781016000815203902091604051338152a280f35b6109b79061337a565b61077257833861096d565b506040516331a9108f60e11b8152600481019390935285836024817f00000000000000000000000000000000000000000000000000000000000000006001600160a01b03165afa8015610a5b578790610a21575b610928935091610920565b508583813d8311610a54575b610a3781836133f9565b81010312610a5057610a4b6109289361358a565b610a16565b8680fd5b503d610a2d565b6040513d89823e3d90fd5b50346102a35760203660031901126102a35761035e610a866004356136a3565b604051918291602083526020830190613226565b50346102a357806003193601126102a3576007546040516001600160a01b039091168152602090f35b50346102a357806003193601126102a357606090546040519060018060a01b03811682526001600160581b038160a01c16602083015260f81c6040820152f35b50346102a35760803660031901126102a357610b1d61324b565b610b25613261565b606435916001600160401b038311610772573660238401121561077257610b596102829336906024816004013591016134aa565b9160443591614257565b50346102a357806003193601126102a3576040517f00000000000000000000000000000000000000000000000000000000000000006001600160a01b03168152602090f35b50346102a357610282610bba366132f0565b90613c4b565b50346102a357610bd7610bd236613306565b614a72565b90604051928352610bf46020916060838601526060850190613226565b9083820360408501528080845193848152019301945b828110610c175784840385f35b855180516001600160a01b031685528201518483015294810194604090930192600101610c0a565b50346102a35760403660031901126102a357610c5961324b565b60243590811515809203610cde576001600160a01b031690338214610ccc5733835260056020526040832082600052602052604060002060ff1981541660ff83161790556040519081527f17307eab39ab6107e8899845ad3d59bd9653f200f220920489ca2b5937696c3160203392a380f35b6040516306f8139d60e11b8152600490fd5b600080fd5b50346102a35760208060031936011261067e5760043590610d026155dc565b81158015610f52575b610f32576001600160581b0380831690811590811580610f2a575b610f0a57610d326139fa565b9084820151166000908015600014610e67575050516001600160a01b0316935b600060408051610d61816133c3565b828152868101869052015260a01b6affffffffffffffffffffff60a01b1660009081559015610dc55750505060005b6001600160a01b0390811691167f8be0079c531659141344cd1fd0a4f28419497f9722a3daafe3b4186f6b6457e0600080a380f35b6040516331a9108f60e11b8152600481019290925282826024817f00000000000000000000000000000000000000000000000000000000000000006001600160a01b03165afa928315610e5a578193610e21575b505050610d90565b9091809350813d8311610e53575b610e3981836133f9565b810103126102a35750610e4b9061358a565b388080610e19565b503d610e2f565b50604051903d90823e3d90fd5b6040516331a9108f60e11b8152600481019190915290915084816024817f00000000000000000000000000000000000000000000000000000000000000006001600160a01b03165afa918215610efe578092610ec6575b505093610d52565b9091508482813d8311610ef7575b610ede81836133f9565b810103126102a35750610ef09061358a565b3880610ebe565b503d610ed4565b604051903d90823e3d90fd5b6040516324abfd1160e11b81526000600482015260248101849052604490fd5b506000610d26565b6040516324abfd1160e11b81526000600482015260248101839052604490fd5b506001600160581b038211610d0b565b50346102a357610f7136613541565b90610f7a6139fa565b916020928381016001600160581b03808251169283156000146110495751610faf93506001600160a01b031691511690615828565b60095484906001600160a01b0316803b1561067e578160405180926331315e5960e11b8252818381610fe5898b60048401613b93565b03925af1801561038557611035575b50507f7bc9110d5de090dd59e07912d2b93a5a27ac70a60c8d8e324db4f9ee8b8b5c139181604051928392833781016000815203902091604051338152a280f35b61103e9061337a565b610772578338610ff4565b506040516331a9108f60e11b8152600481019390935285836024817f00000000000000000000000000000000000000000000000000000000000000006001600160a01b03165afa8015610a5b5787906110a8575b610faf935091610920565b508583813d83116110d7575b6110be81836133f9565b81010312610a50576110d2610faf9361358a565b61109d565b503d6110b4565b50346102a357806003193601126102a3576009546040516001600160a01b039091168152602090f35b50346102a357806003193601126102a3576040519080600254611129816141e5565b8085529160019180831690811561119c5750600114611153575b61035e85610a86818703826133f9565b925060028352600080516020615adb8339815191525b828410611184575050508101602001610a868261035e611143565b80546020858701810191909152909301928101611169565b86955061035e96935060209250610a8694915060ff191682840152151560051b8201019293611143565b50346102a357600319906101c0368301126102a3576024356001600160a01b038116810361067e576044356001600160401b03811161047c5761120d9036906004016134e1565b926064356001600160401b0381116107725761122d9036906004016134e1565b91608435916001600160a01b03831683036118685760a4356001600160401b038111610668576112619036906004016134e1565b60c435926001600160a01b0384168403610cde5760e4356001600160401b038111611c39576112949036906004016134e1565b926001600160401b036101043511611c39576080906101043536030112610a5057604051946112c2866133a8565b61010435600401356001600160401b038111611aed57366023826101043501011215611aed576112fa6004826101043501013561341a565b9061130860405192836133f9565b6101043581016004810135808452602084019291366101c09092020160240111611c3557602481610104350101915b61010435820160048101356101c002016024018310611af1575050508652610104356024810135602088015260448101356040880152606401356001600160a01b0381168103611aed57606087015261012435966001600160a01b0388168803611aed57608036610143190112611aed57604051996113b58b6133a8565b610144358015158103610cde578b526101643515156101643503610cde576101643560208c01526101843515156101843503610cde576101843560408c01526101a43515156101a43503610cde576101a43560608c01526008546001600160a01b03163014611ae9576009546001600160a01b0316611ae9578051906001600160401b038211611ad557819061144c6001546141e5565b601f8111611a62575b50602090601f83116001146119ec578c926119e1575b50508160011b916000199060031b1c1916176001555b8051906001600160401b0382116119cd57819061149f6002546141e5565b601f811161195b575b50602090601f83116001146118e5578b926118da575b50508160011b916000199060031b1c1916176002555b600435600655600780546001600160a01b03199081166001600160a01b0394851617909155600a80548216928416929092179091556009805482168884161790556020860151600c556040860151600d556060860151600b80549092169216919091179055805161186c575b5080516117ef575b506001600160a01b03811661178a575b505192835161163a575b82935080511580159061162d575b8015611620575b8015611613575b61158d575b82610282336154c5565b6001600160a01b0382163b1561160f576060608484928360405195869485936365c13f1960e11b855280511515600486015260208101511515602486015260408101511515604486015201511515606484015260018060a01b03165af18015610385576115fb575b80611583565b6116049061337a565b6102a35780386115f5565b5050fd5b506060810151151561157e565b5060408101511515611577565b5060208101511515611570565b6040516386a5100760e01b815260248101602060048301528551809152602060448301960190855b8181106116b257505050838180829703818360018060a01b0388165af1801561077e57611690575b50611562565b6116ab903d8086833e6116a381836133f9565b8101906139c1565b503861168a565b90919660206101c06001928a516001600160581b03815116825264ffffffffff80858301511685840152604082015116604083015261ffff806060830151166060840152858060a01b03608083015116608084015260a060ff81840151169084015260c0868060a01b0381840151169084015260e082015160e084015261010090818301511690830152610120808201511515908301526101408082015115159083015261016080820151151590830152610180808201511515908301526101a0809101511515908201520198019101919091611662565b6001600160a01b0383163b156107725760405163036129cb60e61b81526001600160a01b03918216600482015290849082906024908290849088165af1801561077e579084916117db575b50611558565b6117e49061337a565b61047c5782386117d5565b6001600160a01b0384163b156118685784611826916040518093819263d67b78fd60e01b8352602060048401526024830190613226565b0381836001600160a01b0389165af1801561185d57908591611849575b50611548565b6118529061337a565b610772578338611843565b6040513d87823e3d90fd5b8480fd5b6001600160a01b0385163b1561066857856118a391604051809381926331315e5960e11b8352602060048401526024830190613226565b0381836001600160a01b038a165af18015610673579086916118c6575b50611540565b6118cf9061337a565b6118685784386118c0565b0151905038806114be565b925060028b52600080516020615adb833981519152908b935b601f1984168510611940576001945083601f19811610611927575b505050811b016002556114d4565b015160001960f88460031b161c19169055388080611919565b818101518355602094850194600190930192909101906118fe565b90915060028b52601f830160051c600080516020615adb83398151915201602084106119b8575b908392915b601f820160051c600080516020615adb8339815191520181106119aa57506114a8565b8c8155849350600101611987565b50600080516020615adb833981519152611982565b634e487b7160e01b8a52604160045260248afd5b01519050388061146b565b925060018c52600080516020615afb833981519152908c935b601f1984168510611a47576001945083601f19811610611a2e575b505050811b01600155611481565b015160001960f88460031b161c19169055388080611a20565b81810151835560209485019460019093019290910190611a05565b90915060018c52601f830160051c600080516020615afb8339815191520160208410611ac0575b908392915b8d601f830160051c600080516020615afb833981519152018210611ab3575050611455565b8155849350600101611a8e565b50600080516020615afb833981519152611a89565b634e487b7160e01b8b52604160045260248bfd5b8980fd5b8880fd5b6101c083360312611c315760405190816101c08101106001600160401b036101c084011117611c1b5760206101c091838360249501604052611b32876134ff565b8152611b3f838801613513565b83820152611b4f60408801613513565b60408201526060611b61818901613525565b90820152611b7160808801613277565b608082015260a0611b83818901613338565b9082015260c0611b94818901613277565b9082015260e087013560e0820152610100611bb0818901613525565b90820152610120611bc2818901613534565b90820152610140611bd4818901613534565b90820152610160611be6818901613534565b90820152610180611bf8818901613534565b908201526101a0611c0a818901613534565b908201528152019301929050611337565b634e487b7160e01b600052604160045260246000fd5b8b80fd5b8a80fd5b8780fd5b50346102a357611c4c36613306565b506020611c57613925565b604051908152f35b50346102a357806003193601126102a3576020611c7a61540c565b6040516001600160a01b039091168152f35b50346102a357806003193601126102a3576040517f00000000000000000000000000000000000000000000000000000000000000006001600160a01b03168152602090f35b50346102a357600319906040368301126102a3576001600160401b039160043583811161047c57611d06903690600401613431565b9260243590811161047c57906101e091360301126102a3576020611c57836138a7565b50346102a357806003193601126102a357611d426155dc565b611d4a6139fa565b6020906001600160581b0382820151166000908015600014611dc6575050516000916001600160a01b039091169082906040905b82825191611d8b836133c3565b81835282015201528180556001600160a01b03167f8be0079c531659141344cd1fd0a4f28419497f9722a3daafe3b4186f6b6457e08280a380f35b6040516331a9108f60e11b8152600481019190915290915082816024817f00000000000000000000000000000000000000000000000000000000000000006001600160a01b03165afa918215610efe578092611e2c575b50509060006040819392611d7e565b9091508282813d8311611e64575b611e4481836133f9565b810103126102a357509060006040611e5c829461358a565b929350611e1d565b503d611e3a565b50346102a357602090816003193601126102a357611e8761324b565b600954604051633de222bb60e21b81523060048201526001600160a01b03928316602482015291849183916044918391165afa918215610efe5791611ed0575b50604051908152f35b90508181813d8311611ef6575b611ee781836133f9565b81010312610cde575138611ec7565b503d611edd565b50346102a35760403660031901126102a357600435906001600160401b0382116102a35761035e611f42611f34366004860161328b565b611f3c613261565b91613e1c565b604051918291602083526020830190613346565b50346102a357806003193601126102a3576020600c54604051908152f35b50346102a35760203660031901126102a3576020611c7a6004356141b2565b50346102a35760203660031901126102a35760043560ff811690818103610cde577f197cbe84f592e417694036927858418efc958896363c034f9aaa25af88953beb91602091611fe16155dc565b84546001600160f81b031660f89190911b6001600160f81b031916178455604051908152a180f35b50346102a357806003193601126102a357600a546040516001600160a01b039091168152602090f35b50346102a35760203660031901126102a3576020611c7a60043561359e565b50346102a35760403660031901126102a3576004356024356120716139fa565b6020908181016001600160581b038082511692831560001461213257516120a593506001600160a01b031691511690615828565b60095484906001600160a01b0316803b1561067e578180916044604051809481936324de8d6360e11b83528a60048401528960248401525af180156103855761211e575b50507f677da4fed654db8e604791fa2582f342e2001aa217e27f6985eb3e0f67e5a7fc9160409182519182523390820152a280f35b6121279061337a565b6107725783386120e9565b506040516331a9108f60e11b8152600481019390935283836024817f00000000000000000000000000000000000000000000000000000000000000006001600160a01b03165afa8015610a5b578790612191575b6120a5935091610920565b508383813d83116121c0575b6121a781836133f9565b81010312610a50576121bb6120a59361358a565b612186565b503d61219d565b50346102a357806003193601126102a3576020600d54604051908152f35b50346102a3576102826121f7366132bb565b9060405192612205846133de565b858452614257565b50346102a357806003193601126102a3576020600654604051908152f35b50346102a35760208060031936011261067e576001600160401b036004358181116107725761225e90369060040161328b565b9190926122696155dc565b845b838110612276578580f35b60059080821b860135603e1987360301811215611c395786018035601e1982360301811215611aed57810192833593868511611ae95785859101911b36038113611aed57600193611f3c866122cb94016139e6565b500161226b565b506122dc36613306565b3415801590612720575b8015612710575b6126fe576101c081019061230182826149e5565b9050602480911080156126d0575b6126be576123296123218594846149e5565b810190614a17565b9391505082519084915b8083106123a15750506009546001600160a01b0316929050823b1561239c5761237b928492836040518096819582946386bc2be360e01b845260206004850152830190613346565b03925af180156103855761238c5750f35b6123959061337a565b6102a35780f35b505050fd5b909194506123af8585613b7f565b5180875260036020818152604089205492979290916001600160a01b03918216826123d9886139e6565b16036126a6576123e8896141b2565b9282841693846124ff575b509160009161246e936124058c614877565b8b8d525260408b2080546001600160a01b0319169055898b857fddf252ad1be2c89b69c2b068fc378daa952ba7f163c4a11628f55a4df523b3ef8280a460095460405163b67cb04760e01b8152306004820152602481019b909b52169891829081906044820190565b03818b5afa908115610531576000916124de575b505190873b15610cde576064600092836040519a8b9485936330b157e560e21b855260048501528a8401528160448401525af19081156105315787966001926124cf575b50019190612333565b6124d89061337a565b386124c6565b6124f9913d8091833e6124f181836133f9565b810190614459565b38612482565b60095460405163b67cb04760e01b8152306004820152602481018d905290851690600081604481855afa8015610531576101809160009161268d575b500151612626575b6040516308ed6c0160e41b8152306004820152602481018d90528381604481855afa80156105315786916000916125ef575b501615612583575b506123f3565b8094929391943b15610cde57604051638cec7d3960e01b8152600481018d90526001600160a01b039590951660248601526000908590604490829084905af19283156105315761246e946000946125e0575b50919381935061257d565b6125e99061337a565b386125d5565b91508482813d831161261f575b61260681836133f9565b810103126102a35750612619869161358a565b38612575565b503d6125fc565b84600a54166006546040519182916321d1336160e11b83526004830152818d6101209485935afa80156105315761265f575b5050612543565b8161267e92903d10612686575b61267681836133f9565b810190613bbb565b503880612658565b503d61266c565b6126a0913d8091833e6124f181836133f9565b3861253b565b604051635caf197560e01b8152600481018a90528790fd5b604051632a84050f60e01b8152600490fd5b506126db83836149e5565b821161186857602001356001600160e01b03191663fbb38e0360e01b141561230f565b604051633efca5c360e11b8152600490fd5b50600654602082013514156122ed565b50600754600654604051636e49181f60e01b8152600481019190915233602482015290602090829060449082906001600160a01b03165afa9081156127a657839161276d575b50156122e6565b90506020813d821161279e575b81612787602093836133f9565b8101031261047c576127989061444c565b38612766565b3d915061277a565b6040513d85823e3d90fd5b50346102a35760208060031936011261067e576001600160401b036004358181116107725736602382011215610772578060040135918211610772576024906006368385831b8401011161066857855b84811061280c578680f35b80821b83019060406023198336030112611c3957612849876001936040516128338161338d565b6044898301359283835201359283910152613c4b565b01612801565b50346102a357604090612861366132f0565b60095484516329c5eaf560e11b815230600482015260248101939093526044830191909152909290839060649082906001600160a01b03165afa918215610e5a578180936128c8575b5050604080516001600160a01b039290921682526020820192909252f35b915091506040823d604011612904575b816128e5604093836133f9565b810103126102a3575060206128f98261358a565b9101519038806128aa565b3d91506128d8565b50346102a35760203660031901126102a3576020906040906001600160a01b0361293461324b565b168152600e83522054604051908152f35b50346102a35760208060031936011261067e5761296061324b565b906129696139fa565b8181016001600160581b0380825116928315600014612a22575161299a93506001600160a01b031691511690615828565b6009546001600160a01b0390811692849190843b1561047c57829160248392604051948593849263036129cb60e61b845216988960048401525af1801561038557612a0e575b50507fe7784d93cfbfa4408e19577e6cc0436f4dbb51214b70e100905dfce9def88c1690604051338152a280f35b612a179061337a565b61047c5782386129e0565b506040516331a9108f60e11b8152600481019390935283836024817f00000000000000000000000000000000000000000000000000000000000000006001600160a01b03165afa8015610673578690612a81575b61299a935091610920565b508383813d8311612ab0575b612a9781836133f9565b8101031261066857612aab61299a9361358a565b612a76565b503d612a8d565b50346102a357612ac6366132bb565b90612ad18233614296565b15612adf5761028292614554565b60405163e5fa0e3560e01b8152600490fd5b50346102a357806003193601126102a3576008546040516001600160a01b039091168152602090f35b50346102a35760403660031901126102a3576001600160401b0360043581811161047c573660238201121561047c57806004013591808311610772576024906101c09036838387028601011161066857823590811161066857612b8190369060040161328b565b90612b8a6139fa565b90602092838301926001600160581b0390818551168015600014612ede5750516001600160a01b0316935b511660018060a01b03809416803314159182612e35575b5081612d99575b506104805780612cd3575b505085612be9578680f35b6009546040516386a5100760e01b81526004810193909352848301879052879183911660448201878701845b878b8210612caf575050508383809203925af1908115610673578691612c95575b50855b858110612c44578680f35b80612c5160019284613b7f565b517f94fa90e7e0c9e633db6056cdda599aa1c789587d7971ed761612032de6237c7f6101e0604051612c89818a8a88028d0101613a59565b3388820152a201612c39565b612ca991503d8088833e6116a381836133f9565b38612c36565b9194509294508082612cc360019487613a59565b0193019101918993918593612c15565b8260095416803b15611ae9576040516320512ba160e01b815260048101869052878101839052908a906001600160fb1b03841161067e57829081836044828860051b808b8484013781010301925af18015612d8e57612d7b575b50885b818110612d3d5750612bde565b80612d4b6001928486613a33565b357f832d89d991be5351d793c20faf4b7dd44f8aa9ce39e3cb160c6317de6fbba72987604051338152a201612d30565b612d879099919961337a565b9738612d2d565b6040513d8c823e3d90fd5b90506040519063c161c93f60e01b825233600483015287820152896044820152601560648201528481608481877f0000000000000000000000000000000000000000000000000000000000000000165afa908115612d8e578a91612e00575b501538612bd3565b90508481813d8311612e2e575b612e1781836133f9565b81010312611ae957612e289061444c565b38612df8565b503d612e0d565b9091506040519063c161c93f60e01b825233600483015282898301526044820152601560648201528581608481887f0000000000000000000000000000000000000000000000000000000000000000165afa908115612ed3578b91612e9e575b50159038612bcc565b90508581813d8311612ecc575b612eb581836133f9565b81010312611c3557612ec69061444c565b38612e95565b503d612eab565b6040513d8d823e3d90fd5b6040516331a9108f60e11b815260048101919091529050858189817f00000000000000000000000000000000000000000000000000000000000000006001600160a01b03165afa908115612ed3578b91612f3a575b5093612bb5565b90508581813d8311612f68575b612f5181836133f9565b81010312611c3557612f629061358a565b38612f33565b503d612f47565b50346102a35760403660031901126102a357612f8961324b565b602435906001600160a01b038080612fa0856141b2565b1692169180831461302a57803314159081613008575b50612adf5782845260046020526040842080546001600160a01b03191683179055612fe0836141b2565b167f8c5be1e5ebec7d5bd14f71427d1e84f3dd0314c0f7b2291e5b200ac8c7c3b9258480a480f35b9050845260056020526040842033855260205260ff6040852054161538612fb6565b60405163133f8be960e01b8152600490fd5b50346102a35760203660031901126102a3576020611c7a60043561421f565b50346102a357806003193601126102a3576040519080600180549161307f836141e5565b8086529282811690811561119c57506001146130a55761035e85610a86818703826133f9565b9250808352600080516020615afb8339815191525b8284106130d5575050508101602001610a868261035e611143565b805460208587018101919091529093019281016130ba565b90503461067e57602036600319011261067e5760043563ffffffff60e01b811680910361047c57602092506304c494e160e31b8114908115613131575b5015158152f35b63fbb38e0360e01b8114915081156131dd575b81156131cc575b81156131bb575b81156131aa575b8115613167575b503861312a565b6380ac58cd60e01b811491508115613199575b8115613188575b5038613160565b6301ffc9a760e01b14905038613181565b635b5e139f60e01b8114915061317a565b63152a902d60e11b81149150613159565b632b13c58f60e01b81149150613152565b63da9ee8b760e01b8114915061314b565b6371700c6960e01b81149150613144565b35906001600160e01b031982168203610cde57565b60005b8381106132165750506000910152565b8181015183820152602001613206565b9060209161323f81518092818552858086019101613203565b601f01601f1916010190565b600435906001600160a01b0382168203610cde57565b602435906001600160a01b0382168203610cde57565b35906001600160a01b0382168203610cde57565b9181601f84011215610cde578235916001600160401b038311610cde576020808501948460051b010111610cde57565b6060906003190112610cde576001600160a01b03906004358281168103610cde57916024359081168103610cde579060443590565b6040906003190112610cde576004359060243590565b60031990602081830112610cde57600435916001600160401b038311610cde57826101e092030112610cde5760040190565b359060ff82168203610cde57565b90815180825260208080930193019160005b828110613366575050505090565b835185529381019392810192600101613358565b6001600160401b038111611c1b57604052565b604081019081106001600160401b03821117611c1b57604052565b608081019081106001600160401b03821117611c1b57604052565b606081019081106001600160401b03821117611c1b57604052565b602081019081106001600160401b03821117611c1b57604052565b90601f801991011681019081106001600160401b03821117611c1b57604052565b6001600160401b038111611c1b5760051b60200190565b81601f82011215610cde578035916134488361341a565b9261345660405194856133f9565b808452602092838086019260051b820101928311610cde578301905b828210613480575050505090565b81358152908301908301613472565b6001600160401b038111611c1b57601f01601f191660200190565b9291926134b68261348f565b916134c460405193846133f9565b829481845281830111610cde578281602093846000960137010152565b9080601f83011215610cde578160206134fc933591016134aa565b90565b35906001600160581b0382168203610cde57565b359064ffffffffff82168203610cde57565b359061ffff82168203610cde57565b35908115158203610cde57565b906020600319830112610cde576004356001600160401b0392838211610cde5780602383011215610cde578160040135938411610cde5760248483010111610cde576024019190565b51906001600160a01b0382168203610cde57565b6009546040516308ed6c0160e41b8152306004820152602481018390526001600160a01b0392916020908290604490829087165afa90811561053157600091613603575b508281166135fd575060005260036020526040600020541690565b91505090565b906020823d8211613634575b8161361c602093836133f9565b810103126102a3575061362e9061358a565b386135e2565b3d915061360f565b81601f82011215610cde5780516136528161348f565b9261366060405194856133f9565b81845260208284010111610cde576134fc9160208085019101613203565b90602082820312610cde5781516001600160401b038111610cde576134fc920161363c565b60095460408051630fab094760e01b815230600482015290926020926001600160a01b03908116928481602481875afa90811561389c57600091613866575b5016806138175750835163f682eeaf60e01b815230600482015290600082602481865afa91821561380c579084916000936137ef575b508551630c8df17160e41b81523060048201526024810191909152919282908180604481015b03915afa9081156137e4576000916137b5575b509061377e6134fc9392855190609160f51b85830152602282015260228152613779816133c3565b6151af565b935193816137958693518092868087019101613203565b82016137a982518093868085019101613203565b010380845201826133f9565b908382813d83116137dd575b6137cb81836133f9565b810103126102a357505161377e613751565b503d6137c1565b84513d6000823e3d90fd5b6138069061373e943d8091833e61037681836133f9565b92613718565b85513d6000823e3d90fd5b9250600091506024845180948193636d02a25560e11b835260048301525afa91821561385c5750600091613849575090565b6134fc913d8091833e61037681836133f9565b513d6000823e3d90fd5b8581813d8311613895575b61387b81836133f9565b8101031261067e57519082821682036102a35750386136e2565b503d613871565b86513d6000823e3d90fd5b60206138e19160018060a01b0360095416604051808095819463051330b560e21b8352306004840152604060248401526044830190613346565b03915afa908115610531576000916138f7575090565b906020823d821161391d575b81613910602093836133f9565b810103126102a357505190565b3d9150613903565b600954604051631572f24960e11b815230600482015290602090829060249082906001600160a01b03165afa908115610531576000916138f7575090565b81601f82011215610cde5780519161397a8361341a565b9261398860405194856133f9565b808452602092838086019260051b820101928311610cde578301905b8282106139b2575050505090565b815181529083019083016139a4565b90602082820312610cde5781516001600160401b038111610cde576134fc9201613963565b356001600160a01b0381168103610cde5790565b60405190613a07826133c3565b6000546001600160a01b038116835260a081901c6001600160581b0316602084015260f81c6040830152565b9190811015613a435760051b0190565b634e487b7160e01b600052603260045260246000fd5b6001600160581b03613a6a826134ff565b16825264ffffffffff80613a8060208401613513565b166020840152613a9260408301613513565b16604083015261ffff80613aa860608401613525565b1660608401526001600160a01b0380613ac360808501613277565b16608085015260ff613ad760a08501613338565b1660a0850152613ae960c08401613277565b1660c084015260e082013560e084015261010090613b08828401613525565b1690830152610120613b1b818301613534565b151590830152610140613b2f818301613534565b151590830152610160613b43818301613534565b151590830152610180613b57818301613534565b151590830152613b6b6101a0809201613534565b1515910152565b805115613a435760200190565b8051821015613a435760209160051b010190565b90918060409360208452816020850152848401376000828201840152601f01601f1916010190565b80916101209283910312610cde576040519182018281106001600160401b03821117611c1b57604052805182526020810151602083015260408101516040830152606081015160608301526080810151608083015260a081015160a083015260c081015160c083015260e081015160018060a01b0381168103610cde5760e0830152610100809101519082015290565b600a54600654604080516321d1336160e11b815260048101929092526101209594939290916001600160a01b039187908290602490829086165afa908115613e11576101009697600092613df4575b5050600180968192015160f51c1614613de35790816000809493600954166044845180978193635d53f40760e11b83528860048401528a60248401525af1938415613dd857600094613dbd575b5060095482516304db994760e21b815230600482015260248101859052946020929183908790604490829086165afa9586156137e457600096613d86575b5060005b878110613d3b57505050505050505050565b80613d478a9284613b7f565b51613d52818a614304565b878751913383527f031e1988c95a91ec4d655ff63a8f87a80bc9daf28d95ae10ee08c0022cfb5c8b88888d1694a401613d29565b90958382813d8311613db6575b613d9d81836133f9565b810103126102a35750613daf9061358a565b9438613d25565b503d613d93565b613dd191943d8091833e6116a381836133f9565b9238613ce7565b82513d6000823e3d90fd5b8151631d2c125760e31b8152600490fd5b613e0a9250803d106126865761267681836133f9565b3880613c9a565b83513d6000823e3d90fd5b90613e256139fa565b602090818101906001600160581b03908183511660009080156000146140eb575050516001600160a01b0316915b511660018060a01b0380921680331415918261404b575b5081613fac575b506104805780600954169360409586519663eaa19ab360e01b8852856064890160001960048b0152606060248b0152528760848101978460005b898110613f865750509060009181838160019c8d604483015203925af1978815613f7b57600098613f57575b5060005b868110613eed57505050505050505090565b613ef7818a613b7f565b5190613f038285614304565b613f0e818987613a33565b359161ffff8316809303610cde57899284519160008352338a8401527f598baf7bf150ca2f42be9e9f8f55e81d45f5715c3ff22bf46d697fabec7f31d6868a891694a401613edb565b613f7391983d8091833e613f6b81836133f9565b810190614182565b509638613ed7565b50513d6000823e3d90fd5b91925098878060019261ffff613f9b8e613525565b168152019a019101908a9291613eab565b90506040519063c161c93f60e01b8252336004830152602482015260006044820152601860648201528281608481857f0000000000000000000000000000000000000000000000000000000000000000165afa90811561053157600091614016575b501538613e71565b908382813d8311614044575b61402c81836133f9565b810103126102a3575061403e9061444c565b3861400e565b503d614022565b9091506040519063c161c93f60e01b82523360048301528260248301526044820152601860648201528381608481867f0000000000000000000000000000000000000000000000000000000000000000165afa908115610531576000916140b6575b50159038613e6a565b908482813d83116140e4575b6140cc81836133f9565b810103126102a357506140de9061444c565b386140ad565b503d6140c2565b6040516331a9108f60e11b8152600481019190915290915084816024817f00000000000000000000000000000000000000000000000000000000000000006001600160a01b03165afa918215610efe57809261414a575b505091613e53565b9091508482813d831161417b575b61416281836133f9565b810103126102a357506141749061358a565b3880614142565b503d614158565b9190604083820312610cde5782516001600160401b038111610cde576020916141ac918501613963565b92015190565b6000908152600360205260409020546001600160a01b031680156141d35790565b60405163b49aa3b560e01b8152600490fd5b90600182811c92168015614215575b60208310146141ff57565b634e487b7160e01b600052602260045260246000fd5b91607f16916141f4565b6000818152600360205260409020546001600160a01b0316156141d3576000908152600460205260409020546001600160a01b031690565b9291906142648233614296565b15612adf5783614278838361427d97614554565b6148cb565b1561428457565b6040516336f57c1b60e11b8152600490fd5b906001600160a01b0380806142aa846141b2565b169316918383149384156142dd575b5083156142c7575b50505090565b6142d39192935061421f565b16143880806142c1565b909350600052600560205260406000208260005260205260ff6040600020541692386142b9565b6001600160a01b03908116801561443a576000838152600360205260409020546001600160a01b0316614428576143ae60008093858252600360205260408220846bffffffffffffffffffffffff60a01b8254161790558584837fddf252ad1be2c89b69c2b068fc378daa952ba7f163c4a11628f55a4df523b3ef8180a460095460405163b67cb04760e01b81523060048201526024810197909752169491829081906044820190565b0381875afa9081156127a657839161440e575b5051833b1561047c5790606483928360405196879485936330b157e560e21b8552600485015282602485015260448401525af1908115610efe57506144035750565b61440c9061337a565b565b61442291503d8085833e6124f181836133f9565b386143c1565b604051632eb5f0c360e21b8152600490fd5b604051633904578f60e11b8152600490fd5b51908115158203610cde57565b602081830312610cde5780516001600160401b0391828211610cde57016101c0928382820312610cde5760405193840184811084821117611c1b57604052815184526020820151602085015260408201516040850152606082015160608501526080820151608085015260a082015160a08501526144d960c0830161358a565b60c085015260e082015160e08501526101006144f681840161358a565b908501526101208083015190850152610140808301519085015261016061451e81840161444c565b9085015261018061453081840161444c565b908501526101a09283830151908111610cde5761454d920161363c565b9082015290565b9161455e816141b2565b6001600160a01b039284841692918416839003614865578316938415614853578261467b575b5061458e81614877565b61460b60008094838252600360205260408220876bffffffffffffffffffffffff60a01b8254161790558387867fddf252ad1be2c89b69c2b068fc378daa952ba7f163c4a11628f55a4df523b3ef8580a460095460405163b67cb04760e01b81523060048201526024810195909552169291829081906044820190565b0381855afa90811561077e578491614661575b505190803b15610772578392918360649260405197889586946330b157e560e21b86526004860152602485015260448401525af1908115610efe57506144035750565b61467591503d8086833e6124f181836133f9565b3861461e565b6009546040805163b67cb04760e01b8152306004820152602481018590526000939192871691908481604481865afa9081156147ac5790610180918691614839575b5001516147b6575b82516308ed6c0160e41b815230600482015260248101869052602081604481865afa9081156147ac579088918691614771575b501615614708575b505050614584565b813b15610772578251638cec7d3960e01b8152600481018690526001600160a01b03919091166024820152929081908490604490829084905af1918215614767575050614758575b808080614700565b6147619061337a565b38614750565b51903d90823e3d90fd5b9150506020813d82116147a4575b8161478c602093836133f9565b810103126118685761479e889161358a565b386146f8565b3d915061477f565b84513d87823e3d90fd5b86600a541660065484519182916321d1336160e11b835260048301528160246101209485935afa91821561482f576001928392610100928992614812575b5050015160f41c16036146c55782516318cdaf9760e01b8152600490fd5b6148289250803d106126865761267681836133f9565b38806147f4565b85513d88823e3d90fd5b61484d91503d8088833e6124f181836133f9565b386146bd565b604051632c95542760e01b8152600490fd5b60405163a195bc5360e01b8152600490fd5b600081815260046020526040812080546001600160a01b03191690556001600160a01b036148a4836141b2565b167f8c5be1e5ebec7d5bd14f71427d1e84f3dd0314c0f7b2291e5b200ac8c7c3b9258280a4565b9293600093909291803b156149da579484916149259660405180948193630a85bd0160e11b9788845233600485015260018060a01b0380921660248501526044840152608060648401528260209b8c976084830190613226565b0393165af184918161499a575b50614989575050503d600014614981573d61494c8161348f565b9061495a60405192836133f9565b81528091833d92013e5b8051918261497e576040516336f57c1b60e11b8152600490fd5b01fd5b506060614964565b6001600160e01b0319161492509050565b9091508581813d83116149d3575b6149b281836133f9565b8101031261186857516001600160e01b031981168103611868579038614932565b503d6149a8565b505050915050600190565b903590601e1981360301821215610cde57018035906001600160401b038211610cde57602001918136038313610cde57565b91606083830312610cde57823592614a31602082016131ee565b9260408201356001600160401b038111610cde576134fc9201613431565b91908201809211614a5c57565b634e487b7160e01b600052601160045260246000fd5b906080820135614bda576101c08201916024614a8e84836149e5565b9050108015614bab575b6126be57604092835191614aab8361338d565b6001835260005b602080821015614ae057865160209291614acb8261338d565b60008252600081830152828701015201614ab2565b505093929190614b20612321614b2892849651614afc8161338d565b30815260006020820152614b0f86613b72565b52614b1985613b72565b50876149e5565b9150506138a7565b614b30613925565b614b3f818360c0890135615a20565b6101808701359361271090818614614b905750848103908111614a5c57614b8c94614b74614b8094614b7a936107d197615a20565b90614a4f565b90615998565b946101a08101906149e5565b9190565b965050959050614b8c92506107d191506101a08101906149e5565b50614bb683826149e5565b602411610cde57602001356001600160e01b03191663fbb38e0360e01b1415614a98565b6040516309f82f1b60e31b8152600490fd5b600060c082013590600c548083146000146150a85750505060808101355b61018082016001600160a01b0380614c21836139e6565b16600052602091600e83526040938460002054958682600093614c43846139e6565b8780614c4e896139e6565b1691161460001461509f5750015b6000916101e08101906044614c7183836149e5565b90501180615072575b614dc1575b50909190508115614d495715614d38570194600e939291614ce09180881115614ceb5787614cac836139e6565b7f2fb2733fb01b76e3290fa8b695d18e026ddd19c0a265ab90e95152e57da3033687878b51933385521694840392a46139e6565b166000525260002055565b878111614cf9575b506139e6565b87614d03836139e6565b7fe0e7c81cf67a96dd0e39bcf11521b1f4c0098cc1dbe8c30750a11d9ebfc3ed4d8783888c519433865216950392a438614cf3565b8551631b57826960e21b8152600490fd5b50509485819493929403614d60575b505050505050565b858103908111614a5c5783614dad9187614d7b600e976139e6565b917fe0e7c81cf67a96dd0e39bcf11521b1f4c0098cc1dbe8c30750a11d9ebfc3ed4d87878b51953387521694a46139e6565b166000525260002055388080808080614d58565b90614dcb916149e5565b8193910160a08482031261067e57614de48985016131ee565b50614df160608501613534565b936080810135906001600160401b03821161077257019080601f8301121561047c57813592614e1f8461341a565b92614e2c8c5194856133f9565b8484528a8401918b839660051b8301019384116102a357508a809101915b83831061505a57505050508380614fa8575b614f9f575b805115614c7f57614e71866139e6565b87600954168a51809463eaa19ab360e01b8252606482018760048401526060602484015285518091526084830191908d6000905b828210614f8357505050509181600081819582604483015203925af1938415614f78576000938495614f57575b50835193828a1693908c60005b878110614ef55750505050505050503880614c7f565b86600192614f038386613b7f565b51614f0e818a614304565b7f598baf7bf150ca2f42be9e9f8f55e81d45f5715c3ff22bf46d697fabec7f31d661ffff614f3c868a613b7f565b5193518a8152336020820152931692604090a4018d90614edf565b909450614f6e91933d8091833e613f6b81836133f9565b9290929338614ed2565b8a513d6000823e3d90fd5b835161ffff16855289955093840193909201916001018e614ea5565b60009350614e61565b506024608088600954168b5192838092634228826f60e11b82523060048301525afa8015614f7857600090614fe5575b6060915001511515614e5c565b6080823d8211615052575b81614ffd608093836133f9565b810103126102a35750606090615049828c5192615019846133a8565b6150228161444c565b845261502f8d820161444c565b8d8501528d61503f81830161444c565b908501520161444c565b82820152614fd8565b3d9150614ff0565b819061506584613525565b8152019101908a90614e4a565b5061507d82826149e5565b604411611868578901356001600160e01b03191663fbb38e0360e01b14614c7a565b93505091614c5c565b600b546001600160a01b031690811561516557600d5493604d8511615151579060646020926040519485938492635268657960e11b84526004840152602483015260a089013560448301525afa918215610efe57809261511b575b505061511691600a0a6080840135615a20565b614c0a565b9091506020823d8211615149575b81615136602093836133f9565b810103126102a357505161511638615103565b3d9150615129565b634e487b7160e01b84526011600452602484fd5b5050505050565b906151768261341a565b61518360405191826133f9565b8281528092615194601f199161341a565b0190602036910137565b908151811015613a43570160200190565b8051156153f35760409081516105e081018181106001600160401b03821117611c1b578352602e81526020906105c03683830137600091826151f083613b72565b52600193805184915b8183106153525750505060ff8094166152118161516c565b92845b8281106153315750505081516152298161516c565b92845b828110615309575050508151936152428561348f565b9561524f815197886133f9565b858752601f1961525e8761348f565b013684890137845b868110615277575050505050505090565b6001908251615285816133c3565b603a81527f31323334353637383941424344454647484a4b4c4d4e50515253545556575859868201527f5a6162636465666768696a6b6d6e6f707172737475767778797a000000000000848201526001600160f81b0319906152f490866152ec858b613b7f565b51169061519e565b5116871a615302828b61519e565b5301615266565b6001908761531e600019838651030185613b7f565b511661532a8288613b7f565b520161522c565b808761533f60019385613b7f565b511661534b8288613b7f565b5201615214565b939791969094615362888661519e565b5160f81c9381945b60ff90818a168710156153b2579061539760019261ff0061538c8f8b90613b7f565b5160081b1690614a4f565b603a91828206166153a8898f613b7f565b520495019461536a565b919550508099959298919693995b6153cf575060010191906151f9565b9660ff6001603a9282848c06166153e88483168b613b7f565b5201169704806153c0565b50604051615400816133de565b60008152600036813790565b6154146139fa565b6001600160581b036020820151169081156154b657506040516331a9108f60e11b815260048101919091526020816024817f00000000000000000000000000000000000000000000000000000000000000006001600160a01b03165afa90811561053157600091615483575090565b906020823d82116154ae575b8161549c602093836133f9565b810103126102a357506134fc9061358a565b3d915061548f565b516001600160a01b0316919050565b6154cd6139fa565b906020916001600160581b0383820151166000908015600014615546575050516001600160a01b03165b600060408051615506816133c3565b8260018060a01b0380961696878352820152015282600055167f8be0079c531659141344cd1fd0a4f28419497f9722a3daafe3b4186f6b6457e0600080a3565b6040516331a9108f60e11b8152600481019190915290915083816024817f00000000000000000000000000000000000000000000000000000000000000006001600160a01b03165afa918215610efe5780926155a4575b50506154f7565b9091508382813d83116155d5575b6155bc81836133f9565b810103126102a357506155ce9061358a565b388061559d565b503d6155b2565b6155e46139fa565b60208082016001600160581b0380825116600090801560001461579457505083516001600160a01b0316915b51169160ff6040809501511660018060a01b038093168033141594856156f6575b5084615653575b505050506156435750565b5163075fd2b160e01b8152600490fd5b829394506084908651958693849263c161c93f60e01b845233600485015260248401526000604484015260648301527f0000000000000000000000000000000000000000000000000000000000000000165afa908115613e11576000916156c2575b5090501538808080615638565b82813d83116156ef575b6156d681836133f9565b810103126102a357506156e89061444c565b80386156b5565b503d6156cc565b90945085519063c161c93f60e01b825233600483015285602483015260448201528160648201528281608481877f0000000000000000000000000000000000000000000000000000000000000000165afa90811561389c5760009161575f575b50159338615631565b908382813d831161578d575b61577581836133f9565b810103126102a357506157879061444c565b38615756565b503d61576b565b6040516331a9108f60e11b8152600481019190915284816024817f00000000000000000000000000000000000000000000000000000000000000006001600160a01b03165afa918215610efe5780926157f0575b505091615610565b9091508482813d8311615821575b61580881836133f9565b810103126102a3575061581a9061358a565b38806157e8565b503d6157fe565b6001600160a01b039081163381141592836158f3575b508261584d575b505061048057565b602091925060846040518094819363c161c93f60e01b8352336004840152602483015260006044830152601660648301527f0000000000000000000000000000000000000000000000000000000000000000165afa908115610531576000916158ba575b50153880615845565b906020823d82116158eb575b816158d3602093836133f9565b810103126102a357506158e59061444c565b386158b1565b3d91506158c6565b9092506040519063c161c93f60e01b8252336004830152836024830152604482015260166064820152602081608481857f0000000000000000000000000000000000000000000000000000000000000000165afa9081156105315760009161595f575b5015913861583e565b906020823d8211615990575b81615978602093836133f9565b810103126102a3575061598a9061444c565b38615956565b3d915061596b565b919060001981840981840291828083109203918083039214615a155761271090818310156159f7577fbc01a36e2eb1c432ca57a786c226809d495182a9930be0ded288ce703afb7e9194950990828211900360fc1b910360041c170290565b6044838360405191631dcf306360e21b835260048301526024820152fd5b505061271090049150565b90916000198383099280830292838086109503948086039514615ab65782851015615a9857908291096001821901821680920460028082600302188083028203028083028203028083028203028083028203028083028203028092029003029360018380600003040190848311900302920304170290565b6044858460405191631dcf306360e21b835260048301526024820152fd5b505080925015615ac4570490565b634e487b7160e01b600052601260045260246000fdfe405787fa12a823e0f2b7631cc41b3ba8828b3321ca811111fa75cd3aa3bb5aceb10e2d527612073b26eecdfd717e6a320cf44b4afac2b0732d9fcbe2b7fa0cf6a2646970667358221220fa467a1c96190f7f0dd49fdb81e04f16cebe5948f7ad9521212d83a6ef1912b364736f6c634300081100338be0079c531659141344cd1fd0a4f28419497f9722a3daafe3b4186f6b6457e0",
    "linkReferences": {}
  },
  "methodIdentifiers": {
    "adjustTiers((uint88,uint40,uint40,uint16,address,uint8,address,bytes32,uint16,bool,bool,bool,bool,bool)[],uint256[])": "14ea9b06",
    "approve(address,uint256)": "095ea7b3",
    "balanceOf(address)": "70a08231",
    "codeOrigin()": "1d153ca4",
    "contractURI()": "e8a3d485",
    "creditsOf(address)": "245a45b5",
    "didPay((address,uint256,uint256,(address,uint256,uint256,uint256),(address,uint256,uint256,uint256),uint256,address,bool,string,bytes))": "da9ee8b7",
    "didRedeem((address,uint256,uint256,uint256,(address,uint256,uint256,uint256),(address,uint256,uint256,uint256),address,string,bytes))": "2b13c58f",
    "directory()": "c41c2f24",
    "firstOwnerOf(uint256)": "54c6d1f5",
    "fundingCycleStore()": "557e7155",
    "getApproved(uint256)": "081812fc",
    "initialize(uint256,address,string,string,address,string,address,string,((uint88,uint40,uint40,uint16,address,uint8,address,bytes32,uint16,bool,bool,bool,bool,bool)[],uint256,uint256,address),address,(bool,bool,bool,bool))": "9521e381",
    "isApprovedForAll(address,address)": "e985e9c5",
    "jbOwner()": "ba23c36e",
    "mintFor((uint16[],address)[])": "36c1a93b",
    "mintFor(uint16[],address)": "6ac6d941",
    "mintReservesFor((uint256,uint256)[])": "2a596e53",
    "mintReservesFor(uint256,uint256)": "aa4fb15b",
    "name()": "06fdde03",
    "operatorStore()": "ad007d63",
    "owner()": "8da5cb5b",
    "ownerOf(uint256)": "6352211e",
    "payParams((address,address,(address,uint256,uint256,uint256),uint256,uint256,address,uint256,uint256,string,bytes))": "d46cf171",
    "prices()": "d3419bf3",
    "pricingCurrency()": "64640c1e",
    "pricingDecimals()": "4ecba625",
    "projectId()": "3fafa127",
    "projects()": "8b79543c",
    "redeemParams((address,address,uint256,uint256,uint256,uint256,uint256,(address,uint256,uint256,uint256),bool,uint256,string,bytes))": "a51cfd18",
    "redemptionWeightOf(uint256[],(address,address,uint256,uint256,uint256,uint256,uint256,(address,uint256,uint256,uint256),bool,uint256,string,bytes))": "7ba62bf9",
    "renounceOwnership()": "715018a6",
    "royaltyInfo(uint256,uint256)": "2a55205a",
    "safeTransferFrom(address,address,uint256)": "42842e0e",
    "safeTransferFrom(address,address,uint256,bytes)": "b88d4fde",
    "setApprovalForAll(address,bool)": "a22cb465",
    "setBaseUri(string)": "a0bcfc7f",
    "setContractUri(string)": "ccb4807b",
    "setDefaultReservedTokenBeneficiary(address)": "df487e26",
    "setEncodedIPFSUriOf(uint256,bytes32)": "525350ba",
    "setPermissionIndex(uint8)": "61aec7a9",
    "setTokenUriResolver(address)": "2407497e",
    "store()": "975057e7",
    "supportsInterface(bytes4)": "01ffc9a7",
    "symbol()": "95d89b41",
    "tokenURI(uint256)": "c87b56dd",
    "totalRedemptionWeight((address,address,uint256,uint256,uint256,uint256,uint256,(address,uint256,uint256,uint256),bool,uint256,string,bytes))": "9494bf72",
    "transferFrom(address,address,uint256)": "23b872dd",
    "transferOwnership(address)": "f2fde38b",
    "transferOwnershipToProject(uint256)": "a220d696"
  },
  "id": 2
}