{
  "abi": [
    {
      "inputs": [
        {
          "internalType": "uint256",
          "name": "_projectId",
          "type": "uint256"
        },
        {
          "internalType": "contract IJBDirectory",
          "name": "_directory",
          "type": "address"
        },
        {
          "internalType": "string",
          "name": "_name",
          "type": "string"
        },
        {
          "internalType": "string",
          "name": "_symbol",
          "type": "string"
        },
        {
          "internalType": "contract IJBFundingCycleStore",
          "name": "_fundingCycleStore",
          "type": "address"
        },
        {
          "internalType": "string",
          "name": "_baseUri",
          "type": "string"
        },
        {
          "internalType": "contract IJBTokenUriResolver",
          "name": "_tokenUriResolver",
          "type": "address"
        },
        {
          "internalType": "string",
          "name": "_contractUri",
          "type": "string"
        },
        {
          "components": [
            {
              "components": [
                {
                  "internalType": "uint256",
                  "name": "contributionFloor",
                  "type": "uint256"
                },
                {
                  "internalType": "uint256",
                  "name": "lockedUntil",
                  "type": "uint256"
                },
                {
                  "internalType": "uint256",
                  "name": "initialQuantity",
                  "type": "uint256"
                },
                {
                  "internalType": "uint256",
                  "name": "votingUnits",
                  "type": "uint256"
                },
                {
                  "internalType": "uint256",
                  "name": "reservedRate",
                  "type": "uint256"
                },
                {
                  "internalType": "address",
                  "name": "reservedTokenBeneficiary",
                  "type": "address"
                },
                {
                  "internalType": "bytes32",
                  "name": "encodedIPFSUri",
                  "type": "bytes32"
                },
                {
                  "internalType": "bool",
                  "name": "shouldUseBeneficiaryAsDefault",
                  "type": "bool"
                }
              ],
              "internalType": "struct JB721TierParams[]",
              "name": "tiers",
              "type": "tuple[]"
            },
            {
              "internalType": "uint256",
              "name": "currency",
              "type": "uint256"
            },
            {
              "internalType": "uint256",
              "name": "decimals",
              "type": "uint256"
            },
            {
              "internalType": "contract IJBPrices",
              "name": "prices",
              "type": "address"
            }
          ],
          "internalType": "struct JB721PricingParams",
          "name": "_pricing",
          "type": "tuple"
        },
        {
          "internalType": "contract IJBTiered721DelegateStore",
          "name": "_store",
          "type": "address"
        },
        {
          "components": [
            {
              "internalType": "bool",
              "name": "lockReservedTokenChanges",
              "type": "bool"
            },
            {
              "internalType": "bool",
              "name": "lockVotingUnitChanges",
              "type": "bool"
            }
          ],
          "internalType": "struct JBTiered721Flags",
          "name": "_flags",
          "type": "tuple"
        }
      ],
      "stateMutability": "nonpayable",
      "type": "constructor"
    },
    {
      "inputs": [],
      "name": "ALEADY_MINTED",
      "type": "error"
    },
    {
      "inputs": [],
      "name": "APPROVAL_TO_CURRENT_OWNER",
      "type": "error"
    },
    {
      "inputs": [],
      "name": "APPROVE_TO_CALLER",
      "type": "error"
    },
    {
      "inputs": [],
      "name": "BLOCK_NOT_YET_MINED",
      "type": "error"
    },
    {
      "inputs": [],
      "name": "CALLER_NOT_OWNER_OR_APPROVED",
      "type": "error"
    },
    {
      "inputs": [],
      "name": "INCORRECT_OWNER",
      "type": "error"
    },
    {
      "inputs": [],
      "name": "INVALID",
      "type": "error"
    },
    {
      "inputs": [],
      "name": "INVALID_PAYMENT_EVENT",
      "type": "error"
    },
    {
      "inputs": [],
      "name": "INVALID_REDEMPTION_EVENT",
      "type": "error"
    },
    {
      "inputs": [],
      "name": "INVALID_REDEMPTION_METADATA",
      "type": "error"
    },
    {
      "inputs": [],
      "name": "INVALID_TOKEN_ID",
      "type": "error"
    },
    {
      "inputs": [],
      "name": "MINT_TO_ZERO",
      "type": "error"
    },
    {
      "inputs": [],
      "name": "NOT_AVAILABLE",
      "type": "error"
    },
    {
      "inputs": [],
      "name": "OVERSPENDING",
      "type": "error"
    },
    {
      "inputs": [
        {
          "internalType": "uint256",
          "name": "prod1",
          "type": "uint256"
        },
        {
          "internalType": "uint256",
          "name": "denominator",
          "type": "uint256"
        }
      ],
      "name": "PRBMath__MulDivOverflow",
      "type": "error"
    },
    {
      "inputs": [],
      "name": "PRICING_RESOLVER_CHANGES_LOCKED",
      "type": "error"
    },
    {
      "inputs": [],
      "name": "PRICING_RESOLVER_CHANGES_PAUSED",
      "type": "error"
    },
    {
      "inputs": [],
      "name": "RESERVED_TOKEN_MINTING_PAUSED",
      "type": "error"
    },
    {
      "inputs": [],
      "name": "SIGNATURE_EXPIRED",
      "type": "error"
    },
    {
      "inputs": [],
      "name": "TRANSFERS_PAUSED",
      "type": "error"
    },
    {
      "inputs": [],
      "name": "TRANSFER_TO_NON_IMPLEMENTER",
      "type": "error"
    },
    {
      "inputs": [],
      "name": "TRANSFER_TO_ZERO_ADDRESS",
      "type": "error"
    },
    {
      "inputs": [],
      "name": "UNAUTHORIZED",
      "type": "error"
    },
    {
      "inputs": [],
      "name": "UNEXPECTED_TOKEN_REDEEMED",
      "type": "error"
    },
    {
      "anonymous": false,
      "inputs": [
        {
          "indexed": true,
          "internalType": "uint256",
          "name": "tierId",
          "type": "uint256"
        },
        {
          "components": [
            {
              "internalType": "uint256",
              "name": "contributionFloor",
              "type": "uint256"
            },
            {
              "internalType": "uint256",
              "name": "lockedUntil",
              "type": "uint256"
            },
            {
              "internalType": "uint256",
              "name": "initialQuantity",
              "type": "uint256"
            },
            {
              "internalType": "uint256",
              "name": "votingUnits",
              "type": "uint256"
            },
            {
              "internalType": "uint256",
              "name": "reservedRate",
              "type": "uint256"
            },
            {
              "internalType": "address",
              "name": "reservedTokenBeneficiary",
              "type": "address"
            },
            {
              "internalType": "bytes32",
              "name": "encodedIPFSUri",
              "type": "bytes32"
            },
            {
              "internalType": "bool",
              "name": "shouldUseBeneficiaryAsDefault",
              "type": "bool"
            }
          ],
          "indexed": false,
          "internalType": "struct JB721TierParams",
          "name": "data",
          "type": "tuple"
        },
        {
          "indexed": false,
          "internalType": "address",
          "name": "caller",
          "type": "address"
        }
      ],
      "name": "AddTier",
      "type": "event"
    },
    {
      "anonymous": false,
      "inputs": [
        {
          "indexed": true,
          "internalType": "address",
          "name": "owner",
          "type": "address"
        },
        {
          "indexed": true,
          "internalType": "address",
          "name": "approved",
          "type": "address"
        },
        {
          "indexed": true,
          "internalType": "uint256",
          "name": "tokenId",
          "type": "uint256"
        }
      ],
      "name": "Approval",
      "type": "event"
    },
    {
      "anonymous": false,
      "inputs": [
        {
          "indexed": true,
          "internalType": "address",
          "name": "owner",
          "type": "address"
        },
        {
          "indexed": true,
          "internalType": "address",
          "name": "operator",
          "type": "address"
        },
        {
          "indexed": false,
          "internalType": "bool",
          "name": "approved",
          "type": "bool"
        }
      ],
      "name": "ApprovalForAll",
      "type": "event"
    },
    {
      "anonymous": false,
      "inputs": [
        {
          "indexed": true,
          "internalType": "address",
          "name": "delegator",
          "type": "address"
        },
        {
          "indexed": true,
          "internalType": "address",
          "name": "fromDelegate",
          "type": "address"
        },
        {
          "indexed": true,
          "internalType": "address",
          "name": "toDelegate",
          "type": "address"
        }
      ],
      "name": "DelegateChanged",
      "type": "event"
    },
    {
      "anonymous": false,
      "inputs": [
        {
          "indexed": true,
          "internalType": "address",
          "name": "delegate",
          "type": "address"
        },
        {
          "indexed": false,
          "internalType": "uint256",
          "name": "previousBalance",
          "type": "uint256"
        },
        {
          "indexed": false,
          "internalType": "uint256",
          "name": "newBalance",
          "type": "uint256"
        }
      ],
      "name": "DelegateVotesChanged",
      "type": "event"
    },
    {
      "anonymous": false,
      "inputs": [
        {
          "indexed": true,
          "internalType": "uint256",
          "name": "tokenId",
          "type": "uint256"
        },
        {
          "indexed": true,
          "internalType": "uint256",
          "name": "tierId",
          "type": "uint256"
        },
        {
          "indexed": true,
          "internalType": "address",
          "name": "beneficiary",
          "type": "address"
        },
        {
          "indexed": false,
          "internalType": "uint256",
          "name": "totalAmountContributed",
          "type": "uint256"
        },
        {
          "indexed": false,
          "internalType": "address",
          "name": "caller",
          "type": "address"
        }
      ],
      "name": "Mint",
      "type": "event"
    },
    {
      "anonymous": false,
      "inputs": [
        {
          "indexed": true,
          "internalType": "uint256",
          "name": "tokenId",
          "type": "uint256"
        },
        {
          "indexed": true,
          "internalType": "uint256",
          "name": "tierId",
          "type": "uint256"
        },
        {
          "indexed": true,
          "internalType": "address",
          "name": "beneficiary",
          "type": "address"
        },
        {
          "indexed": false,
          "internalType": "address",
          "name": "caller",
          "type": "address"
        }
      ],
      "name": "MintReservedToken",
      "type": "event"
    },
    {
      "anonymous": false,
      "inputs": [
        {
          "indexed": true,
          "internalType": "address",
          "name": "previousOwner",
          "type": "address"
        },
        {
          "indexed": true,
          "internalType": "address",
          "name": "newOwner",
          "type": "address"
        }
      ],
      "name": "OwnershipTransferred",
      "type": "event"
    },
    {
      "anonymous": false,
      "inputs": [
        {
          "indexed": true,
          "internalType": "uint256",
          "name": "tierId",
          "type": "uint256"
        },
        {
          "indexed": false,
          "internalType": "address",
          "name": "caller",
          "type": "address"
        }
      ],
      "name": "RemoveTier",
      "type": "event"
    },
    {
      "anonymous": false,
      "inputs": [
        {
          "indexed": true,
          "internalType": "string",
          "name": "baseUri",
          "type": "string"
        },
        {
          "indexed": false,
          "internalType": "address",
          "name": "caller",
          "type": "address"
        }
      ],
      "name": "SetBaseUri",
      "type": "event"
    },
    {
      "anonymous": false,
      "inputs": [
        {
          "indexed": true,
          "internalType": "string",
          "name": "contractUri",
          "type": "string"
        },
        {
          "indexed": false,
          "internalType": "address",
          "name": "caller",
          "type": "address"
        }
      ],
      "name": "SetContractUri",
      "type": "event"
    },
    {
      "anonymous": false,
      "inputs": [
        {
          "indexed": true,
          "internalType": "address",
          "name": "beneficiary",
          "type": "address"
        },
        {
          "indexed": false,
          "internalType": "address",
          "name": "caller",
          "type": "address"
        }
      ],
      "name": "SetDefaultReservedTokenBeneficiary",
      "type": "event"
    },
    {
      "anonymous": false,
      "inputs": [
        {
          "indexed": true,
          "internalType": "contract IJBTokenUriResolver",
          "name": "newResolver",
          "type": "address"
        },
        {
          "indexed": false,
          "internalType": "address",
          "name": "caller",
          "type": "address"
        }
      ],
      "name": "SetTokenUriResolver",
      "type": "event"
    },
    {
      "anonymous": false,
      "inputs": [
        {
          "indexed": true,
          "internalType": "address",
          "name": "delegator",
          "type": "address"
        },
        {
          "indexed": true,
          "internalType": "address",
          "name": "fromDelegate",
          "type": "address"
        },
        {
          "indexed": true,
          "internalType": "address",
          "name": "toDelegate",
          "type": "address"
        },
        {
          "indexed": false,
          "internalType": "uint256",
          "name": "tierId",
          "type": "uint256"
        },
        {
          "indexed": false,
          "internalType": "address",
          "name": "caller",
          "type": "address"
        }
      ],
      "name": "TierDelegateChanged",
      "type": "event"
    },
    {
      "anonymous": false,
      "inputs": [
        {
          "indexed": true,
          "internalType": "address",
          "name": "delegate",
          "type": "address"
        },
        {
          "indexed": true,
          "internalType": "uint256",
          "name": "tierId",
          "type": "uint256"
        },
        {
          "indexed": false,
          "internalType": "uint256",
          "name": "previousBalance",
          "type": "uint256"
        },
        {
          "indexed": false,
          "internalType": "uint256",
          "name": "newBalance",
          "type": "uint256"
        },
        {
          "indexed": false,
          "internalType": "address",
          "name": "callre",
          "type": "address"
        }
      ],
      "name": "TierDelegateVotesChanged",
      "type": "event"
    },
    {
      "anonymous": false,
      "inputs": [
        {
          "indexed": true,
          "internalType": "address",
          "name": "from",
          "type": "address"
        },
        {
          "indexed": true,
          "internalType": "address",
          "name": "to",
          "type": "address"
        },
        {
          "indexed": true,
          "internalType": "uint256",
          "name": "tokenId",
          "type": "uint256"
        }
      ],
      "name": "Transfer",
      "type": "event"
    },
    {
      "inputs": [],
      "name": "DOMAIN_SEPARATOR",
      "outputs": [
        {
          "internalType": "bytes32",
          "name": "",
          "type": "bytes32"
        }
      ],
      "stateMutability": "view",
      "type": "function"
    },
    {
      "inputs": [
        {
          "components": [
            {
              "internalType": "uint256",
              "name": "contributionFloor",
              "type": "uint256"
            },
            {
              "internalType": "uint256",
              "name": "lockedUntil",
              "type": "uint256"
            },
            {
              "internalType": "uint256",
              "name": "initialQuantity",
              "type": "uint256"
            },
            {
              "internalType": "uint256",
              "name": "votingUnits",
              "type": "uint256"
            },
            {
              "internalType": "uint256",
              "name": "reservedRate",
              "type": "uint256"
            },
            {
              "internalType": "address",
              "name": "reservedTokenBeneficiary",
              "type": "address"
            },
            {
              "internalType": "bytes32",
              "name": "encodedIPFSUri",
              "type": "bytes32"
            },
            {
              "internalType": "bool",
              "name": "shouldUseBeneficiaryAsDefault",
              "type": "bool"
            }
          ],
          "internalType": "struct JB721TierParams[]",
          "name": "_tiersToAdd",
          "type": "tuple[]"
        },
        {
          "internalType": "uint256[]",
          "name": "_tierIdsToRemove",
          "type": "uint256[]"
        }
      ],
      "name": "adjustTiers",
      "outputs": [],
      "stateMutability": "nonpayable",
      "type": "function"
    },
    {
      "inputs": [
        {
          "internalType": "address",
          "name": "to",
          "type": "address"
        },
        {
          "internalType": "uint256",
          "name": "tokenId",
          "type": "uint256"
        }
      ],
      "name": "approve",
      "outputs": [],
      "stateMutability": "nonpayable",
      "type": "function"
    },
    {
      "inputs": [
        {
          "internalType": "address",
          "name": "_owner",
          "type": "address"
        }
      ],
      "name": "balanceOf",
      "outputs": [
        {
          "internalType": "uint256",
          "name": "balance",
          "type": "uint256"
        }
      ],
      "stateMutability": "view",
      "type": "function"
    },
    {
      "inputs": [],
      "name": "contractURI",
      "outputs": [
        {
          "internalType": "string",
          "name": "",
          "type": "string"
        }
      ],
      "stateMutability": "view",
      "type": "function"
    },
    {
      "inputs": [
        {
          "internalType": "address",
          "name": "",
          "type": "address"
        }
      ],
      "name": "creditsOf",
      "outputs": [
        {
          "internalType": "uint256",
          "name": "",
          "type": "uint256"
        }
      ],
      "stateMutability": "view",
      "type": "function"
    },
    {
      "inputs": [
        {
          "internalType": "address",
          "name": "delegatee",
          "type": "address"
        }
      ],
      "name": "delegate",
      "outputs": [],
      "stateMutability": "nonpayable",
      "type": "function"
    },
    {
      "inputs": [
        {
          "internalType": "address",
          "name": "delegatee",
          "type": "address"
        },
        {
          "internalType": "uint256",
          "name": "nonce",
          "type": "uint256"
        },
        {
          "internalType": "uint256",
          "name": "expiry",
          "type": "uint256"
        },
        {
          "internalType": "uint8",
          "name": "v",
          "type": "uint8"
        },
        {
          "internalType": "bytes32",
          "name": "r",
          "type": "bytes32"
        },
        {
          "internalType": "bytes32",
          "name": "s",
          "type": "bytes32"
        }
      ],
      "name": "delegateBySig",
      "outputs": [],
      "stateMutability": "nonpayable",
      "type": "function"
    },
    {
      "inputs": [
        {
          "internalType": "address",
          "name": "account",
          "type": "address"
        }
      ],
      "name": "delegates",
      "outputs": [
        {
          "internalType": "address",
          "name": "",
          "type": "address"
        }
      ],
      "stateMutability": "view",
      "type": "function"
    },
    {
      "inputs": [
        {
          "components": [
            {
              "internalType": "address",
              "name": "payer",
              "type": "address"
            },
            {
              "internalType": "uint256",
              "name": "projectId",
              "type": "uint256"
            },
            {
              "internalType": "uint256",
              "name": "currentFundingCycleConfiguration",
              "type": "uint256"
            },
            {
              "components": [
                {
                  "internalType": "address",
                  "name": "token",
                  "type": "address"
                },
                {
                  "internalType": "uint256",
                  "name": "value",
                  "type": "uint256"
                },
                {
                  "internalType": "uint256",
                  "name": "decimals",
                  "type": "uint256"
                },
                {
                  "internalType": "uint256",
                  "name": "currency",
                  "type": "uint256"
                }
              ],
              "internalType": "struct JBTokenAmount",
              "name": "amount",
              "type": "tuple"
            },
            {
              "components": [
                {
                  "internalType": "address",
                  "name": "token",
                  "type": "address"
                },
                {
                  "internalType": "uint256",
                  "name": "value",
                  "type": "uint256"
                },
                {
                  "internalType": "uint256",
                  "name": "decimals",
                  "type": "uint256"
                },
                {
                  "internalType": "uint256",
                  "name": "currency",
                  "type": "uint256"
                }
              ],
              "internalType": "struct JBTokenAmount",
              "name": "forwardedAmount",
              "type": "tuple"
            },
            {
              "internalType": "uint256",
              "name": "projectTokenCount",
              "type": "uint256"
            },
            {
              "internalType": "address",
              "name": "beneficiary",
              "type": "address"
            },
            {
              "internalType": "bool",
              "name": "preferClaimedTokens",
              "type": "bool"
            },
            {
              "internalType": "string",
              "name": "memo",
              "type": "string"
            },
            {
              "internalType": "bytes",
              "name": "metadata",
              "type": "bytes"
            }
          ],
          "internalType": "struct JBDidPayData",
          "name": "_data",
          "type": "tuple"
        }
      ],
      "name": "didPay",
      "outputs": [],
      "stateMutability": "payable",
      "type": "function"
    },
    {
      "inputs": [
        {
          "components": [
            {
              "internalType": "address",
              "name": "holder",
              "type": "address"
            },
            {
              "internalType": "uint256",
              "name": "projectId",
              "type": "uint256"
            },
            {
              "internalType": "uint256",
              "name": "currentFundingCycleConfiguration",
              "type": "uint256"
            },
            {
              "internalType": "uint256",
              "name": "projectTokenCount",
              "type": "uint256"
            },
            {
              "components": [
                {
                  "internalType": "address",
                  "name": "token",
                  "type": "address"
                },
                {
                  "internalType": "uint256",
                  "name": "value",
                  "type": "uint256"
                },
                {
                  "internalType": "uint256",
                  "name": "decimals",
                  "type": "uint256"
                },
                {
                  "internalType": "uint256",
                  "name": "currency",
                  "type": "uint256"
                }
              ],
              "internalType": "struct JBTokenAmount",
              "name": "reclaimedAmount",
              "type": "tuple"
            },
            {
              "components": [
                {
                  "internalType": "address",
                  "name": "token",
                  "type": "address"
                },
                {
                  "internalType": "uint256",
                  "name": "value",
                  "type": "uint256"
                },
                {
                  "internalType": "uint256",
                  "name": "decimals",
                  "type": "uint256"
                },
                {
                  "internalType": "uint256",
                  "name": "currency",
                  "type": "uint256"
                }
              ],
              "internalType": "struct JBTokenAmount",
              "name": "forwardedAmount",
              "type": "tuple"
            },
            {
              "internalType": "address payable",
              "name": "beneficiary",
              "type": "address"
            },
            {
              "internalType": "string",
              "name": "memo",
              "type": "string"
            },
            {
              "internalType": "bytes",
              "name": "metadata",
              "type": "bytes"
            }
          ],
          "internalType": "struct JBDidRedeemData",
          "name": "_data",
          "type": "tuple"
        }
      ],
      "name": "didRedeem",
      "outputs": [],
      "stateMutability": "payable",
      "type": "function"
    },
    {
      "inputs": [],
      "name": "directory",
      "outputs": [
        {
          "internalType": "contract IJBDirectory",
          "name": "",
          "type": "address"
        }
      ],
      "stateMutability": "view",
      "type": "function"
    },
    {
      "inputs": [
        {
          "internalType": "uint256",
          "name": "_tokenId",
          "type": "uint256"
        }
      ],
      "name": "firstOwnerOf",
      "outputs": [
        {
          "internalType": "address",
          "name": "",
          "type": "address"
        }
      ],
      "stateMutability": "view",
      "type": "function"
    },
    {
      "inputs": [],
      "name": "fundingCycleStore",
      "outputs": [
        {
          "internalType": "contract IJBFundingCycleStore",
          "name": "",
          "type": "address"
        }
      ],
      "stateMutability": "view",
      "type": "function"
    },
    {
      "inputs": [
        {
          "internalType": "uint256",
          "name": "tokenId",
          "type": "uint256"
        }
      ],
      "name": "getApproved",
      "outputs": [
        {
          "internalType": "address",
          "name": "",
          "type": "address"
        }
      ],
      "stateMutability": "view",
      "type": "function"
    },
    {
      "inputs": [
        {
          "internalType": "uint256",
          "name": "_tier",
          "type": "uint256"
        },
        {
          "internalType": "uint256",
          "name": "_blockNumber",
          "type": "uint256"
        }
      ],
      "name": "getPastTierTotalVotes",
      "outputs": [
        {
          "internalType": "uint256",
          "name": "",
          "type": "uint256"
        }
      ],
      "stateMutability": "view",
      "type": "function"
    },
    {
      "inputs": [
        {
          "internalType": "address",
          "name": "_account",
          "type": "address"
        },
        {
          "internalType": "uint256",
          "name": "_tier",
          "type": "uint256"
        },
        {
          "internalType": "uint256",
          "name": "_blockNumber",
          "type": "uint256"
        }
      ],
      "name": "getPastTierVotes",
      "outputs": [
        {
          "internalType": "uint256",
          "name": "",
          "type": "uint256"
        }
      ],
      "stateMutability": "view",
      "type": "function"
    },
    {
      "inputs": [
        {
          "internalType": "uint256",
          "name": "blockNumber",
          "type": "uint256"
        }
      ],
      "name": "getPastTotalSupply",
      "outputs": [
        {
          "internalType": "uint256",
          "name": "",
          "type": "uint256"
        }
      ],
      "stateMutability": "view",
      "type": "function"
    },
    {
      "inputs": [
        {
          "internalType": "address",
          "name": "account",
          "type": "address"
        },
        {
          "internalType": "uint256",
          "name": "blockNumber",
          "type": "uint256"
        }
      ],
      "name": "getPastVotes",
      "outputs": [
        {
          "internalType": "uint256",
          "name": "",
          "type": "uint256"
        }
      ],
      "stateMutability": "view",
      "type": "function"
    },
    {
      "inputs": [
        {
          "internalType": "address",
          "name": "_account",
          "type": "address"
        },
        {
          "internalType": "uint256",
          "name": "_tier",
          "type": "uint256"
        }
      ],
      "name": "getTierDelegate",
      "outputs": [
        {
          "internalType": "address",
          "name": "",
          "type": "address"
        }
      ],
      "stateMutability": "view",
      "type": "function"
    },
    {
      "inputs": [
        {
          "internalType": "uint256",
          "name": "_tier",
          "type": "uint256"
        }
      ],
      "name": "getTierTotalVotes",
      "outputs": [
        {
          "internalType": "uint256",
          "name": "",
          "type": "uint256"
        }
      ],
      "stateMutability": "view",
      "type": "function"
    },
    {
      "inputs": [
        {
          "internalType": "address",
          "name": "_account",
          "type": "address"
        },
        {
          "internalType": "uint256",
          "name": "_tier",
          "type": "uint256"
        }
      ],
      "name": "getTierVotes",
      "outputs": [
        {
          "internalType": "uint256",
          "name": "",
          "type": "uint256"
        }
      ],
      "stateMutability": "view",
      "type": "function"
    },
    {
      "inputs": [
        {
          "internalType": "address",
          "name": "account",
          "type": "address"
        }
      ],
      "name": "getVotes",
      "outputs": [
        {
          "internalType": "uint256",
          "name": "",
          "type": "uint256"
        }
      ],
      "stateMutability": "view",
      "type": "function"
    },
    {
      "inputs": [
        {
          "internalType": "address",
          "name": "owner",
          "type": "address"
        },
        {
          "internalType": "address",
          "name": "operator",
          "type": "address"
        }
      ],
      "name": "isApprovedForAll",
      "outputs": [
        {
          "internalType": "bool",
          "name": "",
          "type": "bool"
        }
      ],
      "stateMutability": "view",
      "type": "function"
    },
    {
      "inputs": [
        {
          "components": [
            {
              "internalType": "uint256",
              "name": "tierId",
              "type": "uint256"
            },
            {
              "internalType": "uint256",
              "name": "count",
              "type": "uint256"
            }
          ],
          "internalType": "struct JBTiered721MintReservesForTiersData[]",
          "name": "_mintReservesForTiersData",
          "type": "tuple[]"
        }
      ],
      "name": "mintReservesFor",
      "outputs": [],
      "stateMutability": "nonpayable",
      "type": "function"
    },
    {
      "inputs": [
        {
          "internalType": "uint256",
          "name": "_tierId",
          "type": "uint256"
        },
        {
          "internalType": "uint256",
          "name": "_count",
          "type": "uint256"
        }
      ],
      "name": "mintReservesFor",
      "outputs": [],
      "stateMutability": "nonpayable",
      "type": "function"
    },
    {
      "inputs": [],
      "name": "name",
      "outputs": [
        {
          "internalType": "string",
          "name": "",
          "type": "string"
        }
      ],
      "stateMutability": "view",
      "type": "function"
    },
    {
      "inputs": [
        {
          "internalType": "address",
          "name": "owner",
          "type": "address"
        }
      ],
      "name": "nonces",
      "outputs": [
        {
          "internalType": "uint256",
          "name": "",
          "type": "uint256"
        }
      ],
      "stateMutability": "view",
      "type": "function"
    },
    {
      "inputs": [],
      "name": "owner",
      "outputs": [
        {
          "internalType": "address",
          "name": "",
          "type": "address"
        }
      ],
      "stateMutability": "view",
      "type": "function"
    },
    {
      "inputs": [
        {
          "internalType": "uint256",
          "name": "tokenId",
          "type": "uint256"
        }
      ],
      "name": "ownerOf",
      "outputs": [
        {
          "internalType": "address",
          "name": "",
          "type": "address"
        }
      ],
      "stateMutability": "view",
      "type": "function"
    },
    {
      "inputs": [
        {
          "components": [
            {
              "internalType": "contract IJBPaymentTerminal",
              "name": "terminal",
              "type": "address"
            },
            {
              "internalType": "address",
              "name": "payer",
              "type": "address"
            },
            {
              "components": [
                {
                  "internalType": "address",
                  "name": "token",
                  "type": "address"
                },
                {
                  "internalType": "uint256",
                  "name": "value",
                  "type": "uint256"
                },
                {
                  "internalType": "uint256",
                  "name": "decimals",
                  "type": "uint256"
                },
                {
                  "internalType": "uint256",
                  "name": "currency",
                  "type": "uint256"
                }
              ],
              "internalType": "struct JBTokenAmount",
              "name": "amount",
              "type": "tuple"
            },
            {
              "internalType": "uint256",
              "name": "projectId",
              "type": "uint256"
            },
            {
              "internalType": "uint256",
              "name": "currentFundingCycleConfiguration",
              "type": "uint256"
            },
            {
              "internalType": "address",
              "name": "beneficiary",
              "type": "address"
            },
            {
              "internalType": "uint256",
              "name": "weight",
              "type": "uint256"
            },
            {
              "internalType": "uint256",
              "name": "reservedRate",
              "type": "uint256"
            },
            {
              "internalType": "string",
              "name": "memo",
              "type": "string"
            },
            {
              "internalType": "bytes",
              "name": "metadata",
              "type": "bytes"
            }
          ],
          "internalType": "struct JBPayParamsData",
          "name": "_data",
          "type": "tuple"
        }
      ],
      "name": "payParams",
      "outputs": [
        {
          "internalType": "uint256",
          "name": "weight",
          "type": "uint256"
        },
        {
          "internalType": "string",
          "name": "memo",
          "type": "string"
        },
        {
          "components": [
            {
              "internalType": "contract IJBPayDelegate",
              "name": "delegate",
              "type": "address"
            },
            {
              "internalType": "uint256",
              "name": "amount",
              "type": "uint256"
            }
          ],
          "internalType": "struct JBPayDelegateAllocation[]",
          "name": "delegateAllocations",
          "type": "tuple[]"
        }
      ],
      "stateMutability": "view",
      "type": "function"
    },
    {
      "inputs": [],
      "name": "prices",
      "outputs": [
        {
          "internalType": "contract IJBPrices",
          "name": "",
          "type": "address"
        }
      ],
      "stateMutability": "view",
      "type": "function"
    },
    {
      "inputs": [],
      "name": "pricingCurrency",
      "outputs": [
        {
          "internalType": "uint256",
          "name": "",
          "type": "uint256"
        }
      ],
      "stateMutability": "view",
      "type": "function"
    },
    {
      "inputs": [],
      "name": "pricingDecimals",
      "outputs": [
        {
          "internalType": "uint256",
          "name": "",
          "type": "uint256"
        }
      ],
      "stateMutability": "view",
      "type": "function"
    },
    {
      "inputs": [],
      "name": "projectId",
      "outputs": [
        {
          "internalType": "uint256",
          "name": "",
          "type": "uint256"
        }
      ],
      "stateMutability": "view",
      "type": "function"
    },
    {
      "inputs": [
        {
          "components": [
            {
              "internalType": "contract IJBPaymentTerminal",
              "name": "terminal",
              "type": "address"
            },
            {
              "internalType": "address",
              "name": "holder",
              "type": "address"
            },
            {
              "internalType": "uint256",
              "name": "projectId",
              "type": "uint256"
            },
            {
              "internalType": "uint256",
              "name": "currentFundingCycleConfiguration",
              "type": "uint256"
            },
            {
              "internalType": "uint256",
              "name": "tokenCount",
              "type": "uint256"
            },
            {
              "internalType": "uint256",
              "name": "totalSupply",
              "type": "uint256"
            },
            {
              "internalType": "uint256",
              "name": "overflow",
              "type": "uint256"
            },
            {
              "components": [
                {
                  "internalType": "address",
                  "name": "token",
                  "type": "address"
                },
                {
                  "internalType": "uint256",
                  "name": "value",
                  "type": "uint256"
                },
                {
                  "internalType": "uint256",
                  "name": "decimals",
                  "type": "uint256"
                },
                {
                  "internalType": "uint256",
                  "name": "currency",
                  "type": "uint256"
                }
              ],
              "internalType": "struct JBTokenAmount",
              "name": "reclaimAmount",
              "type": "tuple"
            },
            {
              "internalType": "bool",
              "name": "useTotalOverflow",
              "type": "bool"
            },
            {
              "internalType": "uint256",
              "name": "redemptionRate",
              "type": "uint256"
            },
            {
              "internalType": "string",
              "name": "memo",
              "type": "string"
            },
            {
              "internalType": "bytes",
              "name": "metadata",
              "type": "bytes"
            }
          ],
          "internalType": "struct JBRedeemParamsData",
          "name": "_data",
          "type": "tuple"
        }
      ],
      "name": "redeemParams",
      "outputs": [
        {
          "internalType": "uint256",
          "name": "reclaimAmount",
          "type": "uint256"
        },
        {
          "internalType": "string",
          "name": "memo",
          "type": "string"
        },
        {
          "components": [
            {
              "internalType": "contract IJBRedemptionDelegate",
              "name": "delegate",
              "type": "address"
            },
            {
              "internalType": "uint256",
              "name": "amount",
              "type": "uint256"
            }
          ],
          "internalType": "struct JBRedemptionDelegateAllocation[]",
          "name": "delegateAllocations",
          "type": "tuple[]"
        }
      ],
      "stateMutability": "view",
      "type": "function"
    },
    {
      "inputs": [],
      "name": "renounceOwnership",
      "outputs": [],
      "stateMutability": "nonpayable",
      "type": "function"
    },
    {
      "inputs": [
        {
          "internalType": "address",
          "name": "from",
          "type": "address"
        },
        {
          "internalType": "address",
          "name": "to",
          "type": "address"
        },
        {
          "internalType": "uint256",
          "name": "tokenId",
          "type": "uint256"
        }
      ],
      "name": "safeTransferFrom",
      "outputs": [],
      "stateMutability": "nonpayable",
      "type": "function"
    },
    {
      "inputs": [
        {
          "internalType": "address",
          "name": "from",
          "type": "address"
        },
        {
          "internalType": "address",
          "name": "to",
          "type": "address"
        },
        {
          "internalType": "uint256",
          "name": "tokenId",
          "type": "uint256"
        },
        {
          "internalType": "bytes",
          "name": "data",
          "type": "bytes"
        }
      ],
      "name": "safeTransferFrom",
      "outputs": [],
      "stateMutability": "nonpayable",
      "type": "function"
    },
    {
      "inputs": [
        {
          "internalType": "address",
          "name": "operator",
          "type": "address"
        },
        {
          "internalType": "bool",
          "name": "approved",
          "type": "bool"
        }
      ],
      "name": "setApprovalForAll",
      "outputs": [],
      "stateMutability": "nonpayable",
      "type": "function"
    },
    {
      "inputs": [
        {
          "internalType": "string",
          "name": "_baseUri",
          "type": "string"
        }
      ],
      "name": "setBaseUri",
      "outputs": [],
      "stateMutability": "nonpayable",
      "type": "function"
    },
    {
      "inputs": [
        {
          "internalType": "string",
          "name": "_contractUri",
          "type": "string"
        }
      ],
      "name": "setContractUri",
      "outputs": [],
      "stateMutability": "nonpayable",
      "type": "function"
    },
    {
      "inputs": [
        {
          "internalType": "address",
          "name": "_beneficiary",
          "type": "address"
        }
      ],
      "name": "setDefaultReservedTokenBeneficiary",
      "outputs": [],
      "stateMutability": "nonpayable",
      "type": "function"
    },
    {
      "inputs": [
        {
          "internalType": "address",
          "name": "_delegatee",
          "type": "address"
        },
        {
          "internalType": "uint256",
          "name": "_tierId",
          "type": "uint256"
        }
      ],
      "name": "setTierDelegate",
      "outputs": [],
      "stateMutability": "nonpayable",
      "type": "function"
    },
    {
      "inputs": [
        {
          "internalType": "contract IJBTokenUriResolver",
          "name": "_tokenUriResolver",
          "type": "address"
        }
      ],
      "name": "setTokenUriResolver",
      "outputs": [],
      "stateMutability": "nonpayable",
      "type": "function"
    },
    {
      "inputs": [],
      "name": "store",
      "outputs": [
        {
          "internalType": "contract IJBTiered721DelegateStore",
          "name": "",
          "type": "address"
        }
      ],
      "stateMutability": "view",
      "type": "function"
    },
    {
      "inputs": [
        {
          "internalType": "bytes4",
          "name": "_interfaceId",
          "type": "bytes4"
        }
      ],
      "name": "supportsInterface",
      "outputs": [
        {
          "internalType": "bool",
          "name": "",
          "type": "bool"
        }
      ],
      "stateMutability": "view",
      "type": "function"
    },
    {
      "inputs": [],
      "name": "symbol",
      "outputs": [
        {
          "internalType": "string",
          "name": "",
          "type": "string"
        }
      ],
      "stateMutability": "view",
      "type": "function"
    },
    {
      "inputs": [
        {
          "internalType": "uint256",
          "name": "_tokenId",
          "type": "uint256"
        }
      ],
      "name": "tokenURI",
      "outputs": [
        {
          "internalType": "string",
          "name": "",
          "type": "string"
        }
      ],
      "stateMutability": "view",
      "type": "function"
    },
    {
      "inputs": [
        {
          "internalType": "address",
          "name": "from",
          "type": "address"
        },
        {
          "internalType": "address",
          "name": "to",
          "type": "address"
        },
        {
          "internalType": "uint256",
          "name": "tokenId",
          "type": "uint256"
        }
      ],
      "name": "transferFrom",
      "outputs": [],
      "stateMutability": "nonpayable",
      "type": "function"
    },
    {
      "inputs": [
        {
          "internalType": "address",
          "name": "newOwner",
          "type": "address"
        }
      ],
      "name": "transferOwnership",
      "outputs": [],
      "stateMutability": "nonpayable",
      "type": "function"
    }
  ],
  "bytecode": {
    "object": "0x6102206040523480156200001257600080fd5b506040516200610f3803806200610f8339810160408190526200003591620007bd565b6040805180820190915260018152603160f81b602082015289908c8c838c81816000620000638382620009b5565b506001620000728282620009b5565b505050608093909352506001600160a01b031660a0525081516020808401919091208251918301919091206101208290526101408190524660e0527f8b73c3c69bb8fe3d512ecc4cf759cc79239f7b179b0ffacaa9a75d522b39400f6200011e8184846040805160208101859052908101839052606081018290524660808201523060a082015260009060c0016040516020818303038152906040528051906020012090509392505050565b60c052306101005261016052506200014292506200013c9150503390565b62000423565b6001600160a01b038088166101a0528281166101805260208401516101e0526040840151610200526060840151166101c052855115620001df576040516331315e5960e11b81526001600160a01b03831690636262bcb290620001aa90899060040162000a81565b600060405180830381600087803b158015620001c557600080fd5b505af1158015620001da573d6000803e3d6000fd5b505050505b8351156200024a5760405163d67b78fd60e01b81526001600160a01b0383169063d67b78fd906200021590879060040162000a81565b600060405180830381600087803b1580156200023057600080fd5b505af115801562000245573d6000803e3d6000fd5b505050505b6001600160a01b03851615620002b85760405163036129cb60e61b81526001600160a01b03868116600483015283169063d84a72c090602401600060405180830381600087803b1580156200029e57600080fd5b505af1158015620002b3573d6000803e3d6000fd5b505050505b825151156200033c5782516040516309d865d560e21b81526001600160a01b03841691632761975491620002f0919060040162000ab6565b6000604051808303816000875af115801562000310573d6000803e3d6000fd5b505050506040513d6000823e601f3d908101601f191682016040526200033a919081019062000b50565b505b805115620003a45780516040516303e6ca0360e11b815290151560048201526001600160a01b038316906307cd940690602401600060405180830381600087803b1580156200038a57600080fd5b505af11580156200039f573d6000803e3d6000fd5b505050505b80602001511562000412576020810151604051631877d7b160e01b815290151560048201526001600160a01b03831690631877d7b190602401600060405180830381600087803b158015620003f857600080fd5b505af11580156200040d573d6000803e3d6000fd5b505050505b505050505050505050505062000be9565b600980546001600160a01b038381166001600160a01b0319831681179093556040519116919082907f8be0079c531659141344cd1fd0a4f28419497f9722a3daafe3b4186f6b6457e090600090a35050565b6001600160a01b03811681146200048b57600080fd5b50565b80516200049b8162000475565b919050565b634e487b7160e01b600052604160045260246000fd5b604051608081016001600160401b0381118282101715620004db57620004db620004a0565b60405290565b60405161010081016001600160401b0381118282101715620004db57620004db620004a0565b604051601f8201601f191681016001600160401b0381118282101715620005325762000532620004a0565b604052919050565b60005b83811015620005575781810151838201526020016200053d565b50506000910152565b600082601f8301126200057257600080fd5b81516001600160401b038111156200058e576200058e620004a0565b620005a3601f8201601f191660200162000507565b818152846020838601011115620005b957600080fd5b620005cc8260208301602087016200053a565b949350505050565b60006001600160401b03821115620005f057620005f0620004a0565b5060051b60200190565b805180151581146200049b57600080fd5b600060808083850312156200061f57600080fd5b62000629620004b6565b83519092506001600160401b038111156200064357600080fd5b8301601f810185136200065557600080fd5b805160206200066e6200066883620005d4565b62000507565b82815260089290921b830181019181810190888411156200068e57600080fd5b938201935b838510156200072757610100858a031215620006af5760008081fd5b620006b9620004e1565b8551815283860151848201526040808701519082015260608087015190820152868601518782015260a080870151620006f28162000475565b9082015260c0868101519082015260e06200070f818801620005fa565b90820152825261010094909401939082019062000693565b8652508581015190850152505050604080830151908201526200074d606083016200048e565b606082015292915050565b6000604082840312156200076b57600080fd5b604080519081016001600160401b0381118282101715620007905762000790620004a0565b604052905080620007a183620005fa565b8152620007b160208401620005fa565b60208201525092915050565b60008060008060008060008060008060006101808c8e031215620007e057600080fd5b8b519a50620007f260208d016200048e565b60408d0151909a506001600160401b038111156200080f57600080fd5b6200081d8e828f0162000560565b60608e0151909a5090506001600160401b038111156200083c57600080fd5b6200084a8e828f0162000560565b9850506200085b60808d016200048e565b60a08d01519097506001600160401b038111156200087857600080fd5b620008868e828f0162000560565b9650506200089760c08d016200048e565b60e08d01519095506001600160401b03811115620008b457600080fd5b620008c28e828f0162000560565b6101008e015190955090506001600160401b03811115620008e257600080fd5b620008f08e828f016200060b565b935050620009026101208d016200048e565b9150620009148d6101408e0162000758565b90509295989b509295989b9093969950565b600181811c908216806200093b57607f821691505b6020821081036200095c57634e487b7160e01b600052602260045260246000fd5b50919050565b601f821115620009b057600081815260208120601f850160051c810160208610156200098b5750805b601f850160051c820191505b81811015620009ac5782815560010162000997565b5050505b505050565b81516001600160401b03811115620009d157620009d1620004a0565b620009e981620009e2845462000926565b8462000962565b602080601f83116001811462000a21576000841562000a085750858301515b600019600386901b1c1916600185901b178555620009ac565b600085815260208120601f198616915b8281101562000a525788860151825594840194600190910190840162000a31565b508582101562000a715787850151600019600388901b60f8161c191681555b5050505050600190811b01905550565b602081526000825180602084015262000aa28160408501602087016200053a565b601f01601f19169190910160400192915050565b602080825282518282018190526000919060409081850190868401855b8281101562000b435781518051855286810151878601528581015186860152606080820151908601526080808201519086015260a0808201516001600160a01b03169086015260c0808201519086015260e090810151151590850152610100909301929085019060010162000ad3565b5091979650505050505050565b6000602080838503121562000b6457600080fd5b82516001600160401b0381111562000b7b57600080fd5b8301601f8101851362000b8d57600080fd5b805162000b9e6200066882620005d4565b81815260059190911b8201830190838101908783111562000bbe57600080fd5b928401925b8284101562000bde5783518252928401929084019062000bc3565b979650505050505050565b60805160a05160c05160e05161010051610120516101405161016051610180516101a0516101c0516101e0516102005161537162000d9e600039600081816104e30152612ee30152600081816105e401528181612e730152612f2201526000818161093a01528181612ea90152612f52015260008181610537015281816117b6015261324101526000818161072301528181610c1601528181610fa8015281816110b2015281816111ef0152818161130e01528181611402015281816118790152818161191c01528181611b5d01528181611c8701528181611d1201528181611e0a01528181612149015281816121f80152818161264c01528181612ac501528181612b140152818161332e015281816133cd0152818161344e015281816134f6015281816135c60152818161376301528181613ccd0152613e2d015260006127400152600061278f0152600061276a015260006126c3015260006126ed0152600061271701526000818161088601528181610d3e015261205701526000818161048f01528181610d1201528181610dbb0152818161178d0152818161202b015281816120d4015261321801526153716000f3fe6080604052600436106102e45760003560e01c80638e539e8c11610190578063c41c2f24116100dc578063d40e714611610095578063df487e261161006f578063df487e26146109af578063e8a3d485146109cf578063e985e9c5146109e4578063f2fde38b14610a2d57600080fd5b8063d40e71461461095c578063d46cf1711461097c578063da9ee8b71461099c57600080fd5b8063c41c2f2414610874578063c87b56dd146108a8578063ca323efe146108c8578063ccb4807b146108e8578063d31cc52c14610908578063d3419bf31461092857600080fd5b8063a0bcfc7f11610149578063aa4fb15b11610123578063aa4fb15b146107f4578063ab951e3914610814578063b88d4fde14610834578063c3cda5201461085457600080fd5b8063a0bcfc7f14610785578063a22cb465146107a5578063a51cfd18146107c557600080fd5b80638e539e8c146106bc57806394c5c5ca146106dc57806395d89b41146106fc578063975057e7146107115780639ab24eb0146107455780639d927a501461076557600080fd5b806342842e0e1161024f5780636352211e11610208578063715018a6116101e2578063715018a6146106265780637ecebe001461063b57806382732b6d1461065b5780638da5cb5b1461069e57600080fd5b80636352211e146105b257806364640c1e146105d257806370a082311461060657600080fd5b806342842e0e146104b15780634ecba625146104d157806354c6d1f514610505578063557e715514610525578063587cde1e146105595780635c19a95c1461059257600080fd5b8063245a45b5116102a1578063245a45b5146103da5780632a596e53146104155780632b13c58f146104355780633644e515146104485780633a46b1a81461045d5780633fafa1271461047d57600080fd5b806301ffc9a7146102e957806306fdde031461031e578063081812fc14610340578063095ea7b31461037857806323b872dd1461039a5780632407497e146103ba575b600080fd5b3480156102f557600080fd5b506103096103043660046142be565b610a4d565b60405190151581526020015b60405180910390f35b34801561032a57600080fd5b50610333610a78565b604051610315919061432b565b34801561034c57600080fd5b5061036061035b36600461433e565b610b0a565b6040516001600160a01b039091168152602001610315565b34801561038457600080fd5b5061039861039336600461436c565b610b31565b005b3480156103a657600080fd5b506103986103b5366004614398565b610bbd565b3480156103c657600080fd5b506103986103d53660046143d9565b610bef565b3480156103e657600080fd5b506104076103f53660046143d9565b600d6020526000908152604090205481565b604051908152602001610315565b34801561042157600080fd5b506103986104303660046144aa565b610cb4565b610398610443366004614577565b610cfa565b34801561045457600080fd5b50610407610f2c565b34801561046957600080fd5b5061040761047836600461436c565b610f3b565b34801561048957600080fd5b506104077f000000000000000000000000000000000000000000000000000000000000000081565b3480156104bd57600080fd5b506103986104cc366004614398565b610f64565b3480156104dd57600080fd5b506104077f000000000000000000000000000000000000000000000000000000000000000081565b34801561051157600080fd5b5061036061052036600461433e565b610f7f565b34801561053157600080fd5b506103607f000000000000000000000000000000000000000000000000000000000000000081565b34801561056557600080fd5b506103606105743660046143d9565b6001600160a01b039081166000908152600560205260409020541690565b34801561059e57600080fd5b506103986105ad3660046143d9565b611047565b3480156105be57600080fd5b506103606105cd36600461433e565b611054565b3480156105de57600080fd5b506104077f000000000000000000000000000000000000000000000000000000000000000081565b34801561061257600080fd5b506104076106213660046143d9565b61108a565b34801561063257600080fd5b50610398611120565b34801561064757600080fd5b506104076106563660046143d9565b611134565b34801561066757600080fd5b5061036061067636600461436c565b6001600160a01b039182166000908152600a6020908152604080832093835292905220541690565b3480156106aa57600080fd5b506009546001600160a01b0316610360565b3480156106c857600080fd5b506104076106d736600461433e565b611152565b3480156106e857600080fd5b506104076106f736600461433e565b61117f565b34801561070857600080fd5b50610333611196565b34801561071d57600080fd5b506103607f000000000000000000000000000000000000000000000000000000000000000081565b34801561075157600080fd5b506104076107603660046143d9565b6111a5565b34801561077157600080fd5b506103986107803660046145ab565b6111c6565b34801561079157600080fd5b506103986107a03660046146d2565b6113e3565b3480156107b157600080fd5b506103986107c0366004614728565b6114ae565b3480156107d157600080fd5b506107e56107e0366004614577565b6114bd565b60405161031593929190614761565b34801561080057600080fd5b5061039861080f3660046147d3565b61177e565b34801561082057600080fd5b5061039861082f36600461436c565b611a05565b34801561084057600080fd5b5061039861084f3660046147f5565b611a10565b34801561086057600080fd5b5061039861086f366004614874565b611a43565b34801561088057600080fd5b506103607f000000000000000000000000000000000000000000000000000000000000000081565b3480156108b457600080fd5b506103336108c336600461433e565b611b12565b3480156108d457600080fd5b506104076108e336600461436c565b611dbf565b3480156108f457600080fd5b506103986109033660046148d6565b611deb565b34801561091457600080fd5b506104076109233660046147d3565b611ec1565b34801561093457600080fd5b506103607f000000000000000000000000000000000000000000000000000000000000000081565b34801561096857600080fd5b50610407610977366004614947565b611efb565b34801561098857600080fd5b506107e561099736600461497c565b611f30565b6103986109aa3660046149b7565b612013565b3480156109bb57600080fd5b506103986109ca3660046143d9565b612122565b3480156109db57600080fd5b506103336121e0565b3480156109f057600080fd5b506103096109ff3660046149f2565b6001600160a01b03918216600090815260046020908152604080832093909416825291909152205460ff1690565b348015610a3957600080fd5b50610398610a483660046143d9565b61226f565b60006001600160e01b03198216631130f6cb60e01b1480610a725750610a72826122ea565b92915050565b606060008054610a8790614a20565b80601f0160208091040260200160405190810160405280929190818152602001828054610ab390614a20565b8015610b005780601f10610ad557610100808354040283529160200191610b00565b820191906000526020600020905b815481529060010190602001808311610ae357829003601f168201915b5050505050905090565b6000610b1582612360565b506000908152600360205260409020546001600160a01b031690565b6000610b3c82611054565b9050806001600160a01b0316836001600160a01b031603610b705760405163133f8be960e01b815260040160405180910390fd5b336001600160a01b03821614801590610b905750610b8e81336109ff565b155b15610bae5760405163e5fa0e3560e01b815260040160405180910390fd5b610bb88383612395565b505050565b610bc73382612403565b610be45760405163e5fa0e3560e01b815260040160405180910390fd5b610bb8838383612481565b610bf761255a565b60405163036129cb60e61b81526001600160a01b0382811660048301527f0000000000000000000000000000000000000000000000000000000000000000169063d84a72c090602401600060405180830381600087803b158015610c5a57600080fd5b505af1158015610c6e573d6000803e3d6000fd5b50506040513381526001600160a01b03841692507fe7784d93cfbfa4408e19577e6cc0436f4dbb51214b70e100905dfce9def88c1691506020015b60405180910390a250565b805160005b81811015610bb8576000838281518110610cd557610cd5614a54565b60200260200101519050610cf18160000151826020015161177e565b50600101610cb9565b34151580610db35750604051636e49181f60e01b81527f000000000000000000000000000000000000000000000000000000000000000060048201523360248201527f00000000000000000000000000000000000000000000000000000000000000006001600160a01b031690636e49181f90604401602060405180830381865afa158015610d8d573d6000803e3d6000fd5b505050506040513d601f19601f82011682018060405250810190610db19190614a6a565b155b80610de257507f0000000000000000000000000000000000000000000000000000000000000000816020013514155b15610e0057604051633efca5c360e11b815260040160405180910390fd5b6004610e106101c0830183614a87565b90501080610e54575063b3bcbb7960e01b610e2f6101c0830183614a87565b610e3e91600491600091614acd565b610e4791614af7565b6001600160e01b03191614155b15610e7257604051632a84050f60e01b815260040160405180910390fd5b6000610e826101c0830183614a87565b810190610e8f9190614b27565b805190925090506000805b82811015610f1c57838181518110610eb457610eb4614a54565b60200260200101519150846000016020810190610ed191906143d9565b6000838152600260205260409020546001600160a01b03908116911614610f0b5760405163075fd2b160e01b815260040160405180910390fd5b610f14826125b4565b600101610e9a565b50610f2683612635565b50505050565b6000610f366126b6565b905090565b6001600160a01b0382166000908152600660205260408120610f5d90836127dd565b9392505050565b610bb883838360405180602001604052806000815250611a10565b6040516308ed6c0160e41b81523060048201526024810182905260009081906001600160a01b037f00000000000000000000000000000000000000000000000000000000000000001690638ed6c01090604401602060405180830381865afa158015610fef573d6000803e3d6000fd5b505050506040513d601f19601f820116820180604052508101906110139190614bdc565b90506001600160a01b0381161561102a5792915050565b50506000908152600260205260409020546001600160a01b031690565b61105133826128ec565b50565b6000818152600260205260408120546001600160a01b031680610a725760405163b49aa3b560e01b815260040160405180910390fd5b604051633de222bb60e21b81523060048201526001600160a01b0382811660248301526000917f00000000000000000000000000000000000000000000000000000000000000009091169063f7888aec906044015b602060405180830381865afa1580156110fc573d6000803e3d6000fd5b505050506040513d601f19601f82011682018060405250810190610a729190614bf9565b61112861255a565b611132600061295e565b565b6001600160a01b038116600090815260086020526040812054610a72565b6000438210611174576040516305b5e09b60e51b815260040160405180910390fd5b610a726007836127dd565b6000818152600c60205260408120610a72906129b0565b606060018054610a8790614a20565b6001600160a01b0381166000908152600660205260408120610a72906129b0565b6111ce61255a565b8280156112f0576040516309d865d560e21b81526000906001600160a01b037f000000000000000000000000000000000000000000000000000000000000000016906327619754906112269089908990600401614c7f565b6000604051808303816000875af1158015611245573d6000803e3d6000fd5b505050506040513d6000823e601f3d908101601f1916820160405261126d9190810190614d1e565b905060005b828110156112ed5781818151811061128c5761128c614a54565b60200260200101517ff2f59fef50c01641d6562b4ceb2f10dbbea88250f8d4fb2f77f42d397b00210c8888848181106112c7576112c7614a54565b90506101000201336040516112dd929190614d52565b60405180910390a2600101611272565b50505b8180156113db576040516320512ba160e01b81526001600160a01b037f000000000000000000000000000000000000000000000000000000000000000016906320512ba1906113459087908790600401614d7a565b600060405180830381600087803b15801561135f57600080fd5b505af1158015611373573d6000803e3d6000fd5b5050505060005b818110156113d95784848281811061139457611394614a54565b60405133815260209182029390930135927f832d89d991be5351d793c20faf4b7dd44f8aa9ce39e3cb160c6317de6fbba72992500160405180910390a260010161137a565b505b505050505050565b6113eb61255a565b6040516331315e5960e11b81526001600160a01b037f00000000000000000000000000000000000000000000000000000000000000001690636262bcb29061143790849060040161432b565b600060405180830381600087803b15801561145157600080fd5b505af1158015611465573d6000803e3d6000fd5b50505050806040516114779190614db3565b604051908190038120338252907f7bc9110d5de090dd59e07912d2b93a5a27ac70a60c8d8e324db4f9ee8b8b5c1390602001610ca9565b6114b9338383612a0c565b5050565b60006060806080840135156114e5576040516309f82f1b60e31b815260040160405180910390fd5b60046114f56101c0860186614a87565b90501080611539575063b3bcbb7960e01b6115146101c0860186614a87565b61152391600491600091614acd565b61152c91614af7565b6001600160e01b03191614155b1561155757604051632a84050f60e01b815260040160405180910390fd5b60408051600180825281830190925290816020015b604080518082019091526000808252602082015281526020019060019003908161156c5790505090506040518060400160405280306001600160a01b031681526020016000815250816000815181106115c7576115c7614a54565b60200260200101819052508361018001356000036116375760006115ef6101a0860186614a87565b8382828080601f016020809104026020016040519081016040528093929190818152602001838380828437600092019190915250969950919750919550611777945050505050565b60006116476101c0860186614a87565b8101906116549190614b27565b915050600061166282612aab565b9050600061166e612afc565b905060006116818860c001358484612b87565b9050612710886101800135036116ec57806116a06101a08a018a614a87565b8782828080601f016020809104026020016040519081016040528093929190818152602001838380828437600092019190915250969d50919b5091995061177798505050505050505050565b6117228161170b856117056101808d0135612710614de5565b86612b87565b61171a906101808c0135614df8565b612710612b87565b6117306101a08a018a614a87565b8782828080601f016020809104026020016040519081016040528093929190818152602001838380828437600092019190915250969d50919b509199505050505050505050505b9193909250565b6040516321d1336160e11b81527f000000000000000000000000000000000000000000000000000000000000000060048201526000907f00000000000000000000000000000000000000000000000000000000000000006001600160a01b0316906343a266c29060240161012060405180830381865afa158015611806573d6000803e3d6000fd5b505050506040513d601f19601f8201168201806040525081019061182a9190614e0b565b61010081015190915060f51c60019081160361185957604051631d2c125760e31b815260040160405180910390fd5b604051635d53f40760e11b815260048101849052602481018390526000907f00000000000000000000000000000000000000000000000000000000000000006001600160a01b03169063baa7e80e906044016000604051808303816000875af11580156118ca573d6000803e3d6000fd5b505050506040513d6000823e601f3d908101601f191682016040526118f29190810190614d1e565b6040516304db994760e21b8152306004820152602481018690529091506000906001600160a01b037f0000000000000000000000000000000000000000000000000000000000000000169063136e651c90604401602060405180830381865afa158015611963573d6000803e3d6000fd5b505050506040513d601f19601f820116820180604052508101906119879190614bdc565b90506000805b858110156113d9578381815181106119a7576119a7614a54565b602002602001015191506119bb8383612c54565b6040513381526001600160a01b03841690889084907f031e1988c95a91ec4d655ff63a8f87a80bc9daf28d95ae10ee08c0022cfb5c8b9060200160405180910390a460010161198d565b6114b9338383612d1e565b611a1a3383612403565b611a375760405163e5fa0e3560e01b815260040160405180910390fd5b610f2684848484612d9d565b83421115611a6457604051631931982760e01b815260040160405180910390fd5b604080517fe48329057bfd03d55e49b547132e39cffd9c1820ad7b9d4c5307691425d15adf60208201526001600160a01b038816918101919091526060810186905260808101859052600090611ade90611ad69060a00160405160208183030381529060405280519060200120612dd1565b858585612e1f565b9050611ae981612e47565b8614611b0857604051637fcce2a960e01b815260040160405180910390fd5b6113d981886128ec565b6000818152600260205260409020546060906001600160a01b0316611b4557505060408051602081019091526000815290565b604051630fab094760e01b81523060048201526000907f00000000000000000000000000000000000000000000000000000000000000006001600160a01b031690630fab094790602401602060405180830381865afa158015611bac573d6000803e3d6000fd5b505050506040513d601f19601f82011682018060405250810190611bd09190614bdc565b90506001600160a01b03811615611c4e57604051636d02a25560e11b8152600481018490526001600160a01b0382169063da0544aa90602401600060405180830381865afa158015611c26573d6000803e3d6000fd5b505050506040513d6000823e601f3d908101601f19168201604052610f5d9190810190614e8b565b60405163f682eeaf60e01b815230600482015273__$2e464bbf4a8803569df10b07372aceee57$__9063030cecc7906001600160a01b037f0000000000000000000000000000000000000000000000000000000000000000169063f682eeaf90602401600060405180830381865afa158015611cce573d6000803e3d6000fd5b505050506040513d6000823e601f3d908101601f19168201604052611cf69190810190614e8b565b604051630c8df17160e41b8152306004820152602481018790527f00000000000000000000000000000000000000000000000000000000000000006001600160a01b03169063c8df171090604401602060405180830381865afa158015611d61573d6000803e3d6000fd5b505050506040513d601f19601f82011682018060405250810190611d859190614bf9565b6040518363ffffffff1660e01b8152600401611da2929190614f01565b600060405180830381865af4158015611c26573d6000803e3d6000fd5b6001600160a01b0382166000908152600b602090815260408083208484529091528120610f5d906129b0565b611df361255a565b60405163d67b78fd60e01b81526001600160a01b037f0000000000000000000000000000000000000000000000000000000000000000169063d67b78fd90611e419085908590600401614f23565b600060405180830381600087803b158015611e5b57600080fd5b505af1158015611e6f573d6000803e3d6000fd5b505050508181604051611e83929190614f52565b604051908190038120338252907fd36dc0c1a06103fdcaf15f3f6fb797d1a97997514c78de073640c8b5005454b89060200160405180910390a25050565b6000438210611ee3576040516305b5e09b60e51b815260040160405180910390fd5b6000838152600c60205260409020610f5d90836127dd565b6001600160a01b0383166000908152600b602090815260408083208584529091528120611f2890836127dd565b949350505050565b610120810135606080611f47610160850185614a87565b8080601f01602080910402602001604051908101604052809392919081815260200183838082843760009201919091525092945060019250611f87915050565b604051908082528060200260200182016040528015611fcc57816020015b6040805180820190915260008082526020820152815260200190600190039081611fa55790505b5090506040518060400160405280306001600160a01b0316815260200160008152508160008151811061200157612001614a54565b60200260200101819052509193909250565b341515806120cc5750604051636e49181f60e01b81527f000000000000000000000000000000000000000000000000000000000000000060048201523360248201527f00000000000000000000000000000000000000000000000000000000000000006001600160a01b031690636e49181f90604401602060405180830381865afa1580156120a6573d6000803e3d6000fd5b505050506040513d601f19601f820116820180604052508101906120ca9190614a6a565b155b806120fb57507f0000000000000000000000000000000000000000000000000000000000000000816020013514155b15612119576040516331c57b1b60e21b815260040160405180910390fd5b61105181612e6f565b61212a61255a565b6040516317161f7d60e01b81526001600160a01b0382811660048301527f000000000000000000000000000000000000000000000000000000000000000016906317161f7d90602401600060405180830381600087803b15801561218d57600080fd5b505af11580156121a1573d6000803e3d6000fd5b50506040513381526001600160a01b03841692507fab0014d4c7a642a02a31b303a318908c22b0fb2001f107278fc6076b4c671b659150602001610ca9565b604051630155619b60e71b81523060048201526060907f00000000000000000000000000000000000000000000000000000000000000006001600160a01b03169063aab0cd8090602401600060405180830381865afa158015612247573d6000803e3d6000fd5b505050506040513d6000823e601f3d908101601f19168201604052610f369190810190614e8b565b61227761255a565b6001600160a01b0381166122e15760405162461bcd60e51b815260206004820152602660248201527f4f776e61626c653a206e6577206f776e657220697320746865207a65726f206160448201526564647265737360d01b60648201526084015b60405180910390fd5b6110518161295e565b60006001600160e01b0319821663b3bcbb7960e01b148061231b57506001600160e01b031982166371700c6960e01b145b8061233657506001600160e01b0319821663da9ee8b760e01b145b8061235157506001600160e01b03198216632b13c58f60e01b145b80610a725750610a72826131b9565b6000818152600260205260409020546001600160a01b03166110515760405163b49aa3b560e01b815260040160405180910390fd5b600081815260036020526040902080546001600160a01b0319166001600160a01b03841690811790915581906123ca82611054565b6001600160a01b03167f8c5be1e5ebec7d5bd14f71427d1e84f3dd0314c0f7b2291e5b200ac8c7c3b92560405160405180910390a45050565b60008061240f83611054565b9050806001600160a01b0316846001600160a01b0316148061245657506001600160a01b0380821660009081526004602090815260408083209388168352929052205460ff165b80611f285750836001600160a01b031661246f84610b0a565b6001600160a01b031614949350505050565b826001600160a01b031661249482611054565b6001600160a01b0316146124bb5760405163a195bc5360e01b815260040160405180910390fd5b6001600160a01b0382166124e257604051632c95542760e01b815260040160405180910390fd5b6124ed838383613209565b6124f8600082612395565b60008181526002602052604080822080546001600160a01b0319166001600160a01b0386811691821790925591518493918716917fddf252ad1be2c89b69c2b068fc378daa952ba7f163c4a11628f55a4df523b3ef91a4610bb883838361342f565b6009546001600160a01b031633146111325760405162461bcd60e51b815260206004820181905260248201527f4f776e61626c653a2063616c6c6572206973206e6f7420746865206f776e657260448201526064016122d8565b60006125bf82611054565b90506125cd81600084613209565b6125d8600083612395565b60008281526002602052604080822080546001600160a01b0319169055518391906001600160a01b038416907fddf252ad1be2c89b69c2b068fc378daa952ba7f163c4a11628f55a4df523b3ef908390a46114b98160008461342f565b6040516386bc2be360e01b81526001600160a01b037f000000000000000000000000000000000000000000000000000000000000000016906386bc2be390612681908490600401614f9d565b600060405180830381600087803b15801561269b57600080fd5b505af11580156126af573d6000803e3d6000fd5b5050505050565b6000306001600160a01b037f00000000000000000000000000000000000000000000000000000000000000001614801561270f57507f000000000000000000000000000000000000000000000000000000000000000046145b1561273957507f000000000000000000000000000000000000000000000000000000000000000090565b50604080517f00000000000000000000000000000000000000000000000000000000000000006020808301919091527f0000000000000000000000000000000000000000000000000000000000000000828401527f000000000000000000000000000000000000000000000000000000000000000060608301524660808301523060a0808401919091528351808403909101815260c0909201909252805191012090565b600043821061282e5760405162461bcd60e51b815260206004820181905260248201527f436865636b706f696e74733a20626c6f636b206e6f7420796574206d696e656460448201526064016122d8565b825460005b818110156128935760006128478284613583565b90508486600001828154811061285f5761285f614a54565b60009182526020909120015463ffffffff16111561287f5780925061288d565b61288a816001614df8565b91505b50612833565b81156128d757846128a5600184614de5565b815481106128b5576128b5614a54565b60009182526020909120015464010000000090046001600160e01b03166128da565b60005b6001600160e01b031695945050505050565b6001600160a01b0382811660008181526005602052604080822080548686166001600160a01b0319821681179092559151919094169392849290917f3134e8a2e6d97e929a7e54011ea5485d7d196dd5f0ba4d4ef95803e8e3fc257f9190a4610bb881836129598661359e565b6135f7565b600980546001600160a01b038381166001600160a01b0319831681179093556040519116919082907f8be0079c531659141344cd1fd0a4f28419497f9722a3daafe3b4186f6b6457e090600090a35050565b805460009080156129f957826129c7600183614de5565b815481106129d7576129d7614a54565b60009182526020909120015464010000000090046001600160e01b03166129fc565b60005b6001600160e01b03169392505050565b816001600160a01b0316836001600160a01b031603612a3e576040516306f8139d60e11b815260040160405180910390fd5b6001600160a01b03838116600081815260046020908152604080832094871680845294825291829020805460ff191686151590811790915591519182527f17307eab39ab6107e8899845ad3d59bd9653f200f220920489ca2b5937696c31910160405180910390a3505050565b60405163051330b560e21b81526000906001600160a01b037f0000000000000000000000000000000000000000000000000000000000000000169063144cc2d4906110df9030908690600401614fb0565b604051631572f24960e11b81523060048201526000907f00000000000000000000000000000000000000000000000000000000000000006001600160a01b031690632ae5e49290602401602060405180830381865afa158015612b63573d6000803e3d6000fd5b505050506040513d601f19601f82011682018060405250810190610f369190614bf9565b6000808060001985870985870292508281108382030391505080600003612bc157838281612bb757612bb7614fd4565b0492505050610f5d565b838110612beb57604051631dcf306360e21b815260048101829052602481018590526044016122d8565b60008486880960026001871981018816978890046003810283188082028403028082028403028082028403028082028403028082028403029081029092039091026000889003889004909101858311909403939093029303949094049190911702949350505050565b6001600160a01b038216612c7b57604051633904578f60e11b815260040160405180910390fd5b6000818152600260205260409020546001600160a01b031615612cb157604051632eb5f0c360e21b815260040160405180910390fd5b612cbd60008383613209565b60008181526002602052604080822080546001600160a01b0319166001600160a01b03861690811790915590518392907fddf252ad1be2c89b69c2b068fc378daa952ba7f163c4a11628f55a4df523b3ef908290a46114b96000838361342f565b6001600160a01b038381166000818152600a6020908152604080832086845290915280822080548786166001600160a01b0319821681179092559151919094169392849290917f3134e8a2e6d97e929a7e54011ea5485d7d196dd5f0ba4d4ef95803e8e3fc257f9190a4610f26818484612d988887613734565b6137d0565b612da8848484612481565b612db484848484613925565b610f26576040516336f57c1b60e11b815260040160405180910390fd5b6000610a72612dde6126b6565b8360405161190160f01b6020820152602281018390526042810182905260009060620160405160208183030381529060405280519060200120905092915050565b6000806000612e3087878787613a24565b91509150612e3d81613b11565b5095945050505050565b6001600160a01b03811660009081526008602052604090208054600181018255905b50919050565b60007f000000000000000000000000000000000000000000000000000000000000000060c083013503612ea757506080810135612fcd565b7f00000000000000000000000000000000000000000000000000000000000000006001600160a01b0316156114b957612fca6080830135612f097f0000000000000000000000000000000000000000000000000000000000000000600a6150ce565b604051635268657960e11b815260c086013560048201527f0000000000000000000000000000000000000000000000000000000000000000602482015260a086013560448201527f00000000000000000000000000000000000000000000000000000000000000006001600160a01b03169063a4d0caf290606401602060405180830381865afa158015612fa1573d6000803e3d6000fd5b505050506040513d601f19601f82011682018060405250810190612fc59190614bf9565b612b87565b90505b6000600d81612fe46101a0860161018087016143d9565b6001600160a01b031681526020810191909152604001600090812054915061300c8284614df8565b905060008060246130216101e0880188614a87565b9050118015613065575063b3bcbb7960e01b6130416101e0880188614a87565b61305091602491602091614acd565b61305991614af7565b6001600160e01b031916145b156130d4576000606061307c6101e0890189614a87565b81019061308991906150da565b9198509650909450925050821590506130a6575050505050505050565b8051156130d1576130ce8560c08a0135836130c96101a08d016101808e016143d9565b613cc7565b94505b50505b821561317a576130fb8360c08801356130f56101a08a016101808b016143d9565b85613e26565b9250821561315857801561312257604051631b57826960e21b815260040160405180910390fd5b82600d60006131396101a08a016101808b016143d9565b6001600160a01b031681526020810191909152604001600020556113db565b8315613175576000600d816131396101a08a016101808b016143d9565b6113db565b83156113db576000600d816131976101a08a016101808b016143d9565b6001600160a01b03168152602081019190915260400160002055505050505050565b60006001600160e01b031982166380ac58cd60e01b14806131ea57506001600160e01b03198216635b5e139f60e01b145b80610a7257506301ffc9a760e01b6001600160e01b0319831614610a72565b6040516321d1336160e11b81527f000000000000000000000000000000000000000000000000000000000000000060048201526000907f00000000000000000000000000000000000000000000000000000000000000006001600160a01b0316906343a266c29060240161012060405180830381865afa158015613291573d6000803e3d6000fd5b505050506040513d601f19601f820116820180604052508101906132b59190614e0b565b90506001600160a01b0384161561342a576001600160a01b038316158015906132e9575061010081015160f41c6001908116145b15613307576040516318cdaf9760e01b815260040160405180910390fd5b6040516308ed6c0160e41b8152306004820152602481018390526000906001600160a01b037f00000000000000000000000000000000000000000000000000000000000000001690638ed6c01090604401602060405180830381865afa158015613375573d6000803e3d6000fd5b505050506040513d601f19601f820116820180604052508101906133999190614bdc565b6001600160a01b03160361342a57604051638cec7d3960e01b8152600481018390526001600160a01b0385811660248301527f00000000000000000000000000000000000000000000000000000000000000001690638cec7d3990604401600060405180830381600087803b15801561341157600080fd5b505af1158015613425573d6000803e3d6000fd5b505050505b610f26565b60405163b67cb04760e01b8152306004820152602481018290526000907f00000000000000000000000000000000000000000000000000000000000000006001600160a01b03169063b67cb0479060440161012060405180830381865afa15801561349e573d6000803e3d6000fd5b505050506040513d601f19601f820116820180604052508101906134c29190614e0b565b80516040516330b157e560e21b815260048101919091526001600160a01b03868116602483015285811660448301529192507f00000000000000000000000000000000000000000000000000000000000000009091169063c2c55f9490606401600060405180830381600087803b15801561353c57600080fd5b505af1158015613550573d6000803e3d6000fd5b505050508060a0015160001461342a5761356f84848360a00151613f53565b61342a848483600001518460a00151613fc3565b600061359260028484186151d0565b610f5d90848416614df8565b604051631266aaaf60e31b81523060048201526001600160a01b0382811660248301526000917f0000000000000000000000000000000000000000000000000000000000000000909116906393355578906044016110df565b816001600160a01b0316836001600160a01b0316141580156136195750600081115b15610bb8576001600160a01b038316156136a7576001600160a01b038316600090815260066020526040812081906136549061406585614071565b91509150846001600160a01b03167fdec2bacdd2f05b59de34da9b523dff8be42e5e38e818c82fdb0bae774387a724838360405161369c929190918252602082015260400190565b60405180910390a250505b6001600160a01b03821615610bb8576001600160a01b038216600090815260066020526040812081906136dd9061409f85614071565b91509150836001600160a01b03167fdec2bacdd2f05b59de34da9b523dff8be42e5e38e818c82fdb0bae774387a7248383604051613725929190918252602082015260400190565b60405180910390a25050505050565b6040516305c9a1d560e31b81523060048201526001600160a01b038381166024830152604482018390526000917f000000000000000000000000000000000000000000000000000000000000000090911690632e4d0ea890606401602060405180830381865afa1580156137ac573d6000803e3d6000fd5b505050506040513d601f19601f82011682018060405250810190610f5d9190614bf9565b826001600160a01b0316846001600160a01b031614806137ee575080155b610f26576001600160a01b03841615613889576001600160a01b0384166000908152600b60209081526040808320858452909152812081906138339061406585614071565b60408051828152602081018890523381830152905192945090925083916001600160a01b038916917fed0c1e94c302bdbbd8bbd6a4fb7c3ed335c2292407cd816eadd075d019d0ce04919081900360600190a350505b6001600160a01b03831615610f26576001600160a01b0383166000908152600b60209081526040808320858452909152812081906138ca9061409f85614071565b60408051838152602081018390523381830152905192945090925085916001600160a01b038816917fed0c1e94c302bdbbd8bbd6a4fb7c3ed335c2292407cd816eadd075d019d0ce04919081900360600190a3505050505050565b60006001600160a01b0384163b15613a1c57604051630a85bd0160e11b81526001600160a01b0385169063150b7a02906139699033908990889088906004016151f2565b6020604051808303816000875af19250505080156139a4575060408051601f3d908101601f191682019092526139a19181019061522f565b60015b613a02573d8080156139d2576040519150601f19603f3d011682016040523d82523d6000602084013e6139d7565b606091505b5080516000036139fa576040516336f57c1b60e11b815260040160405180910390fd5b805181602001fd5b6001600160e01b031916630a85bd0160e11b149050611f28565b506001611f28565b6000807f7fffffffffffffffffffffffffffffff5d576e7357a4501ddfe92f46681b20a0831115613a5b5750600090506003613b08565b8460ff16601b14158015613a7357508460ff16601c14155b15613a845750600090506004613b08565b6040805160008082526020820180845289905260ff881692820192909252606081018690526080810185905260019060a0016020604051602081039080840390855afa158015613ad8573d6000803e3d6000fd5b5050604051601f1901519150506001600160a01b038116613b0157600060019250925050613b08565b9150600090505b94509492505050565b6000816004811115613b2557613b2561524c565b03613b2d5750565b6001816004811115613b4157613b4161524c565b03613b8e5760405162461bcd60e51b815260206004820152601860248201527f45434453413a20696e76616c6964207369676e6174757265000000000000000060448201526064016122d8565b6002816004811115613ba257613ba261524c565b03613bef5760405162461bcd60e51b815260206004820152601f60248201527f45434453413a20696e76616c6964207369676e6174757265206c656e6774680060448201526064016122d8565b6003816004811115613c0357613c0361524c565b03613c5b5760405162461bcd60e51b815260206004820152602260248201527f45434453413a20696e76616c6964207369676e6174757265202773272076616c604482015261756560f01b60648201526084016122d8565b6004816004811115613c6f57613c6f61524c565b036110515760405162461bcd60e51b815260206004820152602260248201527f45434453413a20696e76616c6964207369676e6174757265202776272076616c604482015261756560f01b60648201526084016122d8565b600060607f00000000000000000000000000000000000000000000000000000000000000006001600160a01b0316630c72df1f878686896040518563ffffffff1660e01b8152600401613d1d9493929190615262565b6000604051808303816000875af1158015613d3c573d6000803e3d6000fd5b505050506040513d6000823e601f3d908101601f19168201604052613d6491908101906152c7565b81519093509091506000805b82811015613e1a57838181518110613d8a57613d8a614a54565b60200260200101519150613d9e8683612c54565b856001600160a01b0316878281518110613dba57613dba614a54565b602002602001015161ffff16837f598baf7bf150ca2f42be9e9f8f55e81d45f5715c3ff22bf46d697fabec7f31d68c33604051613e0a9291909182526001600160a01b0316602082015260400190565b60405180910390a4600101613d70565b50505050949350505050565b60008060007f00000000000000000000000000000000000000000000000000000000000000006001600160a01b031663879791f3886040518263ffffffff1660e01b8152600401613e7991815260200190565b6060604051808303816000875af1158015613e98573d6000803e3d6000fd5b505050506040513d601f19601f82011682018060405250810190613ebc919061530d565b945090925090506000829003613ef2578315613eeb57604051630e5313df60e41b815260040160405180910390fd5b5050611f28565b613efc8583612c54565b6001600160a01b03851681837f598baf7bf150ca2f42be9e9f8f55e81d45f5715c3ff22bf46d697fabec7f31d6613f33878c614de5565b604080519182523360208301520160405180910390a45050949350505050565b6001600160a01b038316613f7257613f6f600761409f83614071565b50505b6001600160a01b038216613f9157613f8e600761406583614071565b50505b6001600160a01b03838116600090815260056020526040808220548584168352912054610bb8929182169116836135f7565b6001600160a01b038416613fef576000828152600c60205260409020613fec9061409f83614071565b50505b6001600160a01b03831661401b576000828152600c602052604090206140189061406583614071565b50505b6001600160a01b038085166000908152600a60208181526040808420878552825280842054888616855292825280842087855290915290912054610f2692918216911684846137d0565b6000610f5d8284614de5565b6000806140938561408e614084886129b0565b868863ffffffff16565b6140ab565b91509150935093915050565b6000610f5d8284614df8565b81546000908190816140bc866129b0565b90506000821180156140fa575043866140d6600185614de5565b815481106140e6576140e6614a54565b60009182526020909120015463ffffffff16145b1561415a57614108856141d6565b86614114600185614de5565b8154811061412457614124614a54565b9060005260206000200160000160046101000a8154816001600160e01b0302191690836001600160e01b031602179055506141c8565b85600001604051806040016040528061417243614243565b63ffffffff168152602001614186886141d6565b6001600160e01b0390811690915282546001810184556000938452602093849020835194909301519091166401000000000263ffffffff909316929092179101555b9250839150505b9250929050565b60006001600160e01b0382111561423f5760405162461bcd60e51b815260206004820152602760248201527f53616665436173743a2076616c756520646f65736e27742066697420696e20326044820152663234206269747360c81b60648201526084016122d8565b5090565b600063ffffffff82111561423f5760405162461bcd60e51b815260206004820152602660248201527f53616665436173743a2076616c756520646f65736e27742066697420696e203360448201526532206269747360d01b60648201526084016122d8565b6001600160e01b03198116811461105157600080fd5b6000602082840312156142d057600080fd5b8135610f5d816142a8565b60005b838110156142f65781810151838201526020016142de565b50506000910152565b600081518084526143178160208601602086016142db565b601f01601f19169290920160200192915050565b602081526000610f5d60208301846142ff565b60006020828403121561435057600080fd5b5035919050565b6001600160a01b038116811461105157600080fd5b6000806040838503121561437f57600080fd5b823561438a81614357565b946020939093013593505050565b6000806000606084860312156143ad57600080fd5b83356143b881614357565b925060208401356143c881614357565b929592945050506040919091013590565b6000602082840312156143eb57600080fd5b8135610f5d81614357565b634e487b7160e01b600052604160045260246000fd5b604080519081016001600160401b038111828210171561442e5761442e6143f6565b60405290565b60405161012081016001600160401b038111828210171561442e5761442e6143f6565b604051601f8201601f191681016001600160401b038111828210171561447f5761447f6143f6565b604052919050565b60006001600160401b038211156144a0576144a06143f6565b5060051b60200190565b600060208083850312156144bd57600080fd5b82356001600160401b038111156144d357600080fd5b8301601f810185136144e457600080fd5b80356144f76144f282614487565b614457565b81815260069190911b8201830190838101908783111561451657600080fd5b928401925b8284101561455957604084890312156145345760008081fd5b61453c61440c565b84358152858501358682015282526040909301929084019061451b565b979650505050505050565b60006101e08284031215612e6957600080fd5b60006020828403121561458957600080fd5b81356001600160401b0381111561459f57600080fd5b611f2884828501614564565b600080600080604085870312156145c157600080fd5b84356001600160401b03808211156145d857600080fd5b818701915087601f8301126145ec57600080fd5b8135818111156145fb57600080fd5b8860208260081b850101111561461057600080fd5b60209283019650945090860135908082111561462b57600080fd5b818701915087601f83011261463f57600080fd5b81358181111561464e57600080fd5b8860208260051b850101111561466357600080fd5b95989497505060200194505050565b60006001600160401b0382111561468b5761468b6143f6565b50601f01601f191660200190565b60006146a76144f284614672565b90508281528383830111156146bb57600080fd5b828260208301376000602084830101529392505050565b6000602082840312156146e457600080fd5b81356001600160401b038111156146fa57600080fd5b8201601f8101841361470b57600080fd5b611f2884823560208401614699565b801515811461105157600080fd5b6000806040838503121561473b57600080fd5b823561474681614357565b915060208301356147568161471a565b809150509250929050565b8381526000602060608184015261477b60608401866142ff565b83810360408581019190915285518083528387019284019060005b818110156147c457845180516001600160a01b03168452860151868401529385019391830191600101614796565b50909998505050505050505050565b600080604083850312156147e657600080fd5b50508035926020909101359150565b6000806000806080858703121561480b57600080fd5b843561481681614357565b9350602085013561482681614357565b92506040850135915060608501356001600160401b0381111561484857600080fd5b8501601f8101871361485957600080fd5b61486887823560208401614699565b91505092959194509250565b60008060008060008060c0878903121561488d57600080fd5b863561489881614357565b95506020870135945060408701359350606087013560ff811681146148bc57600080fd5b9598949750929560808101359460a0909101359350915050565b600080602083850312156148e957600080fd5b82356001600160401b038082111561490057600080fd5b818501915085601f83011261491457600080fd5b81358181111561492357600080fd5b86602082850101111561493557600080fd5b60209290920196919550909350505050565b60008060006060848603121561495c57600080fd5b833561496781614357565b95602085013595506040909401359392505050565b60006020828403121561498e57600080fd5b81356001600160401b038111156149a457600080fd5b82016101a08185031215610f5d57600080fd5b6000602082840312156149c957600080fd5b81356001600160401b038111156149df57600080fd5b82016102008185031215610f5d57600080fd5b60008060408385031215614a0557600080fd5b8235614a1081614357565b9150602083013561475681614357565b600181811c90821680614a3457607f821691505b602082108103612e6957634e487b7160e01b600052602260045260246000fd5b634e487b7160e01b600052603260045260246000fd5b600060208284031215614a7c57600080fd5b8151610f5d8161471a565b6000808335601e19843603018112614a9e57600080fd5b8301803591506001600160401b03821115614ab857600080fd5b6020019150368190038213156141cf57600080fd5b60008085851115614add57600080fd5b83861115614aea57600080fd5b5050820193919092039150565b6001600160e01b03198135818116916004851015614b1f5780818660040360031b1b83161692505b505092915050565b60008060408385031215614b3a57600080fd5b8235614b45816142a8565b91506020838101356001600160401b03811115614b6157600080fd5b8401601f81018613614b7257600080fd5b8035614b806144f282614487565b81815260059190911b82018301908381019088831115614b9f57600080fd5b928401925b82841015614bbd57833582529284019290840190614ba4565b80955050505050509250929050565b8051614bd781614357565b919050565b600060208284031215614bee57600080fd5b8151610f5d81614357565b600060208284031215614c0b57600080fd5b5051919050565b803582526020810135602083015260408101356040830152606081013560608301526080810135608083015260a0810135614c4c81614357565b6001600160a01b031660a083015260c0818101359083015260e0810135614c728161471a565b80151560e0840152505050565b6020808252810182905260008360408301825b85811015612e3d57614ca48284614c12565b610100928301929190910190600101614c92565b600082601f830112614cc957600080fd5b81516020614cd96144f283614487565b82815260059290921b84018101918181019086841115614cf857600080fd5b8286015b84811015614d135780518352918301918301614cfc565b509695505050505050565b600060208284031215614d3057600080fd5b81516001600160401b03811115614d4657600080fd5b611f2884828501614cb8565b6101208101614d618285614c12565b6001600160a01b03929092166101009190910152919050565b6020808252810182905260006001600160fb1b03831115614d9a57600080fd5b8260051b80856040850137919091016040019392505050565b60008251614dc58184602087016142db565b9190910192915050565b634e487b7160e01b600052601160045260246000fd5b81810381811115610a7257610a72614dcf565b80820180821115610a7257610a72614dcf565b60006101208284031215614e1e57600080fd5b614e26614434565b825181526020830151602082015260408301516040820152606083015160608201526080830151608082015260a083015160a082015260c083015160c0820152614e7260e08401614bcc565b60e0820152610100928301519281019290925250919050565b600060208284031215614e9d57600080fd5b81516001600160401b03811115614eb357600080fd5b8201601f81018413614ec457600080fd5b8051614ed26144f282614672565b818152856020838501011115614ee757600080fd5b614ef88260208301602086016142db565b95945050505050565b604081526000614f1460408301856142ff565b90508260208301529392505050565b60208152816020820152818360408301376000818301604090810191909152601f909201601f19160101919050565b8183823760009101908152919050565b600081518084526020808501945080840160005b83811015614f9257815187529582019590820190600101614f76565b509495945050505050565b602081526000610f5d6020830184614f62565b6001600160a01b0383168152604060208201819052600090611f2890830184614f62565b634e487b7160e01b600052601260045260246000fd5b600181815b8085111561502557816000190482111561500b5761500b614dcf565b8085161561501857918102915b93841c9390800290614fef565b509250929050565b60008261503c57506001610a72565b8161504957506000610a72565b816001811461505f576002811461506957615085565b6001915050610a72565b60ff84111561507a5761507a614dcf565b50506001821b610a72565b5060208310610133831016604e8410600b84101617156150a8575081810a610a72565b6150b28383614fea565b80600019048211156150c6576150c6614dcf565b029392505050565b6000610f5d838361502d565b60008060008060008060c087890312156150f357600080fd5b86359550602080880135615106816142a8565b955060408801356151168161471a565b945060608801356151268161471a565b935060808801356151368161471a565b925060a08801356001600160401b0381111561515157600080fd5b8801601f81018a1361516257600080fd5b80356151706144f282614487565b81815260059190911b8201830190838101908c83111561518f57600080fd5b928401925b828410156151be57833561ffff811681146151af5760008081fd5b82529284019290840190615194565b80955050505050509295509295509295565b6000826151ed57634e487b7160e01b600052601260045260246000fd5b500490565b6001600160a01b0385811682528416602082015260408101839052608060608201819052600090615225908301846142ff565b9695505050505050565b60006020828403121561524157600080fd5b8151610f5d816142a8565b634e487b7160e01b600052602160045260246000fd5b600060808201868352602060808185015281875180845260a086019150828901935060005b818110156152a757845161ffff1683529383019391830191600101615287565b50506001600160a01b039690961660408501525050506060015292915050565b600080604083850312156152da57600080fd5b82516001600160401b038111156152f057600080fd5b6152fc85828601614cb8565b925050602083015190509250929050565b60008060006060848603121561532257600080fd5b835192506020840151915060408401519050925092509256fea26469706673582212209aecdebcbe4223b28a379f0aa69aa34073a7fca2921879a9cc7bd0bec9f1c86864736f6c63430008100033",
    "linkReferences": {
      "contracts/libraries/JBIpfsDecoder.sol": {
        "JBIpfsDecoder": [
          {
            "start": 10753,
            "length": 20
          }
        ]
      }
    }
  },
  "methodIdentifiers": {
    "DOMAIN_SEPARATOR()": "3644e515",
    "adjustTiers((uint256,uint256,uint256,uint256,uint256,address,bytes32,bool)[],uint256[])": "9d927a50",
    "approve(address,uint256)": "095ea7b3",
    "balanceOf(address)": "70a08231",
    "contractURI()": "e8a3d485",
    "creditsOf(address)": "245a45b5",
    "delegate(address)": "5c19a95c",
    "delegateBySig(address,uint256,uint256,uint8,bytes32,bytes32)": "c3cda520",
    "delegates(address)": "587cde1e",
    "didPay((address,uint256,uint256,(address,uint256,uint256,uint256),(address,uint256,uint256,uint256),uint256,address,bool,string,bytes))": "da9ee8b7",
    "didRedeem((address,uint256,uint256,uint256,(address,uint256,uint256,uint256),(address,uint256,uint256,uint256),address,string,bytes))": "2b13c58f",
    "directory()": "c41c2f24",
    "firstOwnerOf(uint256)": "54c6d1f5",
    "fundingCycleStore()": "557e7155",
    "getApproved(uint256)": "081812fc",
    "getPastTierTotalVotes(uint256,uint256)": "d31cc52c",
    "getPastTierVotes(address,uint256,uint256)": "d40e7146",
    "getPastTotalSupply(uint256)": "8e539e8c",
    "getPastVotes(address,uint256)": "3a46b1a8",
    "getTierDelegate(address,uint256)": "82732b6d",
    "getTierTotalVotes(uint256)": "94c5c5ca",
    "getTierVotes(address,uint256)": "ca323efe",
    "getVotes(address)": "9ab24eb0",
    "isApprovedForAll(address,address)": "e985e9c5",
    "mintReservesFor((uint256,uint256)[])": "2a596e53",
    "mintReservesFor(uint256,uint256)": "aa4fb15b",
    "name()": "06fdde03",
    "nonces(address)": "7ecebe00",
    "owner()": "8da5cb5b",
    "ownerOf(uint256)": "6352211e",
    "payParams((address,address,(address,uint256,uint256,uint256),uint256,uint256,address,uint256,uint256,string,bytes))": "d46cf171",
    "prices()": "d3419bf3",
    "pricingCurrency()": "64640c1e",
    "pricingDecimals()": "4ecba625",
    "projectId()": "3fafa127",
    "redeemParams((address,address,uint256,uint256,uint256,uint256,uint256,(address,uint256,uint256,uint256),bool,uint256,string,bytes))": "a51cfd18",
    "renounceOwnership()": "715018a6",
    "safeTransferFrom(address,address,uint256)": "42842e0e",
    "safeTransferFrom(address,address,uint256,bytes)": "b88d4fde",
    "setApprovalForAll(address,bool)": "a22cb465",
    "setBaseUri(string)": "a0bcfc7f",
    "setContractUri(string)": "ccb4807b",
    "setDefaultReservedTokenBeneficiary(address)": "df487e26",
    "setTierDelegate(address,uint256)": "ab951e39",
    "setTokenUriResolver(address)": "2407497e",
    "store()": "975057e7",
    "supportsInterface(bytes4)": "01ffc9a7",
    "symbol()": "95d89b41",
    "tokenURI(uint256)": "c87b56dd",
    "transferFrom(address,address,uint256)": "23b872dd",
    "transferOwnership(address)": "f2fde38b"
  },
  "id": 0
}