{
  "abi": [
    {
      "inputs": [],
      "stateMutability": "nonpayable",
      "type": "constructor"
    },
    {
      "inputs": [],
      "name": "ALEADY_MINTED",
      "type": "error"
    },
    {
      "inputs": [],
      "name": "APPROVAL_TO_CURRENT_OWNER",
      "type": "error"
    },
    {
      "inputs": [],
      "name": "APPROVE_TO_CALLER",
      "type": "error"
    },
    {
      "inputs": [],
      "name": "CALLER_NOT_OWNER_OR_APPROVED",
      "type": "error"
    },
    {
      "inputs": [],
      "name": "INCORRECT_OWNER",
      "type": "error"
    },
    {
      "inputs": [],
      "name": "INVALID_PAYMENT_EVENT",
      "type": "error"
    },
    {
      "inputs": [],
      "name": "INVALID_REDEMPTION_EVENT",
      "type": "error"
    },
    {
      "inputs": [],
      "name": "INVALID_REDEMPTION_METADATA",
      "type": "error"
    },
    {
      "inputs": [],
      "name": "INVALID_TOKEN_ID",
      "type": "error"
    },
    {
      "inputs": [],
      "name": "MINT_TO_ZERO",
      "type": "error"
    },
    {
      "inputs": [],
      "name": "NOT_AVAILABLE",
      "type": "error"
    },
    {
      "inputs": [],
      "name": "OVERSPENDING",
      "type": "error"
    },
    {
      "inputs": [
        {
          "internalType": "uint256",
          "name": "prod1",
          "type": "uint256"
        },
        {
          "internalType": "uint256",
          "name": "denominator",
          "type": "uint256"
        }
      ],
      "name": "PRBMath__MulDivOverflow",
      "type": "error"
    },
    {
      "inputs": [],
      "name": "PRICING_RESOLVER_CHANGES_PAUSED",
      "type": "error"
    },
    {
      "inputs": [],
      "name": "RESERVED_TOKEN_MINTING_PAUSED",
      "type": "error"
    },
    {
      "inputs": [],
      "name": "TRANSFERS_PAUSED",
      "type": "error"
    },
    {
      "inputs": [],
      "name": "TRANSFER_TO_NON_IMPLEMENTER",
      "type": "error"
    },
    {
      "inputs": [],
      "name": "TRANSFER_TO_ZERO_ADDRESS",
      "type": "error"
    },
    {
      "inputs": [],
      "name": "UNAUTHORIZED",
      "type": "error"
    },
    {
      "inputs": [],
      "name": "UNEXPECTED_TOKEN_REDEEMED",
      "type": "error"
    },
    {
      "anonymous": false,
      "inputs": [
        {
          "indexed": true,
          "internalType": "uint256",
          "name": "tierId",
          "type": "uint256"
        },
        {
          "components": [
            {
              "internalType": "uint80",
              "name": "contributionFloor",
              "type": "uint80"
            },
            {
              "internalType": "uint48",
              "name": "lockedUntil",
              "type": "uint48"
            },
            {
              "internalType": "uint40",
              "name": "initialQuantity",
              "type": "uint40"
            },
            {
              "internalType": "uint16",
              "name": "votingUnits",
              "type": "uint16"
            },
            {
              "internalType": "uint16",
              "name": "reservedRate",
              "type": "uint16"
            },
            {
              "internalType": "address",
              "name": "reservedTokenBeneficiary",
              "type": "address"
            },
            {
              "internalType": "bytes32",
              "name": "encodedIPFSUri",
              "type": "bytes32"
            },
            {
              "internalType": "uint8",
              "name": "category",
              "type": "uint8"
            },
            {
              "internalType": "bool",
              "name": "allowManualMint",
              "type": "bool"
            },
            {
              "internalType": "bool",
              "name": "shouldUseBeneficiaryAsDefault",
              "type": "bool"
            },
            {
              "internalType": "bool",
              "name": "transfersPausable",
              "type": "bool"
            }
          ],
          "indexed": false,
          "internalType": "struct JB721TierParams",
          "name": "data",
          "type": "tuple"
        },
        {
          "indexed": false,
          "internalType": "address",
          "name": "caller",
          "type": "address"
        }
      ],
      "name": "AddTier",
      "type": "event"
    },
    {
      "anonymous": false,
      "inputs": [
        {
          "indexed": true,
          "internalType": "address",
          "name": "owner",
          "type": "address"
        },
        {
          "indexed": true,
          "internalType": "address",
          "name": "approved",
          "type": "address"
        },
        {
          "indexed": true,
          "internalType": "uint256",
          "name": "tokenId",
          "type": "uint256"
        }
      ],
      "name": "Approval",
      "type": "event"
    },
    {
      "anonymous": false,
      "inputs": [
        {
          "indexed": true,
          "internalType": "address",
          "name": "owner",
          "type": "address"
        },
        {
          "indexed": true,
          "internalType": "address",
          "name": "operator",
          "type": "address"
        },
        {
          "indexed": false,
          "internalType": "bool",
          "name": "approved",
          "type": "bool"
        }
      ],
      "name": "ApprovalForAll",
      "type": "event"
    },
    {
      "anonymous": false,
      "inputs": [
        {
          "indexed": true,
          "internalType": "uint256",
          "name": "tokenId",
          "type": "uint256"
        },
        {
          "indexed": true,
          "internalType": "uint256",
          "name": "tierId",
          "type": "uint256"
        },
        {
          "indexed": true,
          "internalType": "address",
          "name": "beneficiary",
          "type": "address"
        },
        {
          "indexed": false,
          "internalType": "uint256",
          "name": "totalAmountContributed",
          "type": "uint256"
        },
        {
          "indexed": false,
          "internalType": "address",
          "name": "caller",
          "type": "address"
        }
      ],
      "name": "Mint",
      "type": "event"
    },
    {
      "anonymous": false,
      "inputs": [
        {
          "indexed": true,
          "internalType": "uint256",
          "name": "tokenId",
          "type": "uint256"
        },
        {
          "indexed": true,
          "internalType": "uint256",
          "name": "tierId",
          "type": "uint256"
        },
        {
          "indexed": true,
          "internalType": "address",
          "name": "beneficiary",
          "type": "address"
        },
        {
          "indexed": false,
          "internalType": "address",
          "name": "caller",
          "type": "address"
        }
      ],
      "name": "MintReservedToken",
      "type": "event"
    },
    {
      "anonymous": false,
      "inputs": [
        {
          "indexed": true,
          "internalType": "address",
          "name": "previousOwner",
          "type": "address"
        },
        {
          "indexed": true,
          "internalType": "address",
          "name": "newOwner",
          "type": "address"
        }
      ],
      "name": "OwnershipTransferred",
      "type": "event"
    },
    {
      "anonymous": false,
      "inputs": [
        {
          "indexed": true,
          "internalType": "uint256",
          "name": "tierId",
          "type": "uint256"
        },
        {
          "indexed": false,
          "internalType": "address",
          "name": "caller",
          "type": "address"
        }
      ],
      "name": "RemoveTier",
      "type": "event"
    },
    {
      "anonymous": false,
      "inputs": [
        {
          "indexed": true,
          "internalType": "string",
          "name": "baseUri",
          "type": "string"
        },
        {
          "indexed": false,
          "internalType": "address",
          "name": "caller",
          "type": "address"
        }
      ],
      "name": "SetBaseUri",
      "type": "event"
    },
    {
      "anonymous": false,
      "inputs": [
        {
          "indexed": true,
          "internalType": "string",
          "name": "contractUri",
          "type": "string"
        },
        {
          "indexed": false,
          "internalType": "address",
          "name": "caller",
          "type": "address"
        }
      ],
      "name": "SetContractUri",
      "type": "event"
    },
    {
      "anonymous": false,
      "inputs": [
        {
          "indexed": true,
          "internalType": "address",
          "name": "beneficiary",
          "type": "address"
        },
        {
          "indexed": false,
          "internalType": "address",
          "name": "caller",
          "type": "address"
        }
      ],
      "name": "SetDefaultReservedTokenBeneficiary",
      "type": "event"
    },
    {
      "anonymous": false,
      "inputs": [
        {
          "indexed": true,
          "internalType": "contract IJBTokenUriResolver",
          "name": "newResolver",
          "type": "address"
        },
        {
          "indexed": false,
          "internalType": "address",
          "name": "caller",
          "type": "address"
        }
      ],
      "name": "SetTokenUriResolver",
      "type": "event"
    },
    {
      "anonymous": false,
      "inputs": [
        {
          "indexed": true,
          "internalType": "address",
          "name": "from",
          "type": "address"
        },
        {
          "indexed": true,
          "internalType": "address",
          "name": "to",
          "type": "address"
        },
        {
          "indexed": true,
          "internalType": "uint256",
          "name": "tokenId",
          "type": "uint256"
        }
      ],
      "name": "Transfer",
      "type": "event"
    },
    {
      "inputs": [
        {
          "components": [
            {
              "internalType": "uint80",
              "name": "contributionFloor",
              "type": "uint80"
            },
            {
              "internalType": "uint48",
              "name": "lockedUntil",
              "type": "uint48"
            },
            {
              "internalType": "uint40",
              "name": "initialQuantity",
              "type": "uint40"
            },
            {
              "internalType": "uint16",
              "name": "votingUnits",
              "type": "uint16"
            },
            {
              "internalType": "uint16",
              "name": "reservedRate",
              "type": "uint16"
            },
            {
              "internalType": "address",
              "name": "reservedTokenBeneficiary",
              "type": "address"
            },
            {
              "internalType": "bytes32",
              "name": "encodedIPFSUri",
              "type": "bytes32"
            },
            {
              "internalType": "uint8",
              "name": "category",
              "type": "uint8"
            },
            {
              "internalType": "bool",
              "name": "allowManualMint",
              "type": "bool"
            },
            {
              "internalType": "bool",
              "name": "shouldUseBeneficiaryAsDefault",
              "type": "bool"
            },
            {
              "internalType": "bool",
              "name": "transfersPausable",
              "type": "bool"
            }
          ],
          "internalType": "struct JB721TierParams[]",
          "name": "_tiersToAdd",
          "type": "tuple[]"
        },
        {
          "internalType": "uint256[]",
          "name": "_tierIdsToRemove",
          "type": "uint256[]"
        }
      ],
      "name": "adjustTiers",
      "outputs": [],
      "stateMutability": "nonpayable",
      "type": "function"
    },
    {
      "inputs": [
        {
          "internalType": "address",
          "name": "to",
          "type": "address"
        },
        {
          "internalType": "uint256",
          "name": "tokenId",
          "type": "uint256"
        }
      ],
      "name": "approve",
      "outputs": [],
      "stateMutability": "nonpayable",
      "type": "function"
    },
    {
      "inputs": [
        {
          "internalType": "address",
          "name": "_owner",
          "type": "address"
        }
      ],
      "name": "balanceOf",
      "outputs": [
        {
          "internalType": "uint256",
          "name": "balance",
          "type": "uint256"
        }
      ],
      "stateMutability": "view",
      "type": "function"
    },
    {
      "inputs": [],
      "name": "codeOrigin",
      "outputs": [
        {
          "internalType": "address",
          "name": "",
          "type": "address"
        }
      ],
      "stateMutability": "view",
      "type": "function"
    },
    {
      "inputs": [],
      "name": "contractURI",
      "outputs": [
        {
          "internalType": "string",
          "name": "",
          "type": "string"
        }
      ],
      "stateMutability": "view",
      "type": "function"
    },
    {
      "inputs": [
        {
          "internalType": "address",
          "name": "",
          "type": "address"
        }
      ],
      "name": "creditsOf",
      "outputs": [
        {
          "internalType": "uint256",
          "name": "",
          "type": "uint256"
        }
      ],
      "stateMutability": "view",
      "type": "function"
    },
    {
      "inputs": [
        {
          "components": [
            {
              "internalType": "address",
              "name": "payer",
              "type": "address"
            },
            {
              "internalType": "uint256",
              "name": "projectId",
              "type": "uint256"
            },
            {
              "internalType": "uint256",
              "name": "currentFundingCycleConfiguration",
              "type": "uint256"
            },
            {
              "components": [
                {
                  "internalType": "address",
                  "name": "token",
                  "type": "address"
                },
                {
                  "internalType": "uint256",
                  "name": "value",
                  "type": "uint256"
                },
                {
                  "internalType": "uint256",
                  "name": "decimals",
                  "type": "uint256"
                },
                {
                  "internalType": "uint256",
                  "name": "currency",
                  "type": "uint256"
                }
              ],
              "internalType": "struct JBTokenAmount",
              "name": "amount",
              "type": "tuple"
            },
            {
              "components": [
                {
                  "internalType": "address",
                  "name": "token",
                  "type": "address"
                },
                {
                  "internalType": "uint256",
                  "name": "value",
                  "type": "uint256"
                },
                {
                  "internalType": "uint256",
                  "name": "decimals",
                  "type": "uint256"
                },
                {
                  "internalType": "uint256",
                  "name": "currency",
                  "type": "uint256"
                }
              ],
              "internalType": "struct JBTokenAmount",
              "name": "forwardedAmount",
              "type": "tuple"
            },
            {
              "internalType": "uint256",
              "name": "projectTokenCount",
              "type": "uint256"
            },
            {
              "internalType": "address",
              "name": "beneficiary",
              "type": "address"
            },
            {
              "internalType": "bool",
              "name": "preferClaimedTokens",
              "type": "bool"
            },
            {
              "internalType": "string",
              "name": "memo",
              "type": "string"
            },
            {
              "internalType": "bytes",
              "name": "metadata",
              "type": "bytes"
            }
          ],
          "internalType": "struct JBDidPayData",
          "name": "_data",
          "type": "tuple"
        }
      ],
      "name": "didPay",
      "outputs": [],
      "stateMutability": "payable",
      "type": "function"
    },
    {
      "inputs": [
        {
          "components": [
            {
              "internalType": "address",
              "name": "holder",
              "type": "address"
            },
            {
              "internalType": "uint256",
              "name": "projectId",
              "type": "uint256"
            },
            {
              "internalType": "uint256",
              "name": "currentFundingCycleConfiguration",
              "type": "uint256"
            },
            {
              "internalType": "uint256",
              "name": "projectTokenCount",
              "type": "uint256"
            },
            {
              "components": [
                {
                  "internalType": "address",
                  "name": "token",
                  "type": "address"
                },
                {
                  "internalType": "uint256",
                  "name": "value",
                  "type": "uint256"
                },
                {
                  "internalType": "uint256",
                  "name": "decimals",
                  "type": "uint256"
                },
                {
                  "internalType": "uint256",
                  "name": "currency",
                  "type": "uint256"
                }
              ],
              "internalType": "struct JBTokenAmount",
              "name": "reclaimedAmount",
              "type": "tuple"
            },
            {
              "components": [
                {
                  "internalType": "address",
                  "name": "token",
                  "type": "address"
                },
                {
                  "internalType": "uint256",
                  "name": "value",
                  "type": "uint256"
                },
                {
                  "internalType": "uint256",
                  "name": "decimals",
                  "type": "uint256"
                },
                {
                  "internalType": "uint256",
                  "name": "currency",
                  "type": "uint256"
                }
              ],
              "internalType": "struct JBTokenAmount",
              "name": "forwardedAmount",
              "type": "tuple"
            },
            {
              "internalType": "address payable",
              "name": "beneficiary",
              "type": "address"
            },
            {
              "internalType": "string",
              "name": "memo",
              "type": "string"
            },
            {
              "internalType": "bytes",
              "name": "metadata",
              "type": "bytes"
            }
          ],
          "internalType": "struct JBDidRedeemData",
          "name": "_data",
          "type": "tuple"
        }
      ],
      "name": "didRedeem",
      "outputs": [],
      "stateMutability": "payable",
      "type": "function"
    },
    {
      "inputs": [],
      "name": "directory",
      "outputs": [
        {
          "internalType": "contract IJBDirectory",
          "name": "",
          "type": "address"
        }
      ],
      "stateMutability": "view",
      "type": "function"
    },
    {
      "inputs": [
        {
          "internalType": "uint256",
          "name": "_tokenId",
          "type": "uint256"
        }
      ],
      "name": "firstOwnerOf",
      "outputs": [
        {
          "internalType": "address",
          "name": "",
          "type": "address"
        }
      ],
      "stateMutability": "view",
      "type": "function"
    },
    {
      "inputs": [],
      "name": "fundingCycleStore",
      "outputs": [
        {
          "internalType": "contract IJBFundingCycleStore",
          "name": "",
          "type": "address"
        }
      ],
      "stateMutability": "view",
      "type": "function"
    },
    {
      "inputs": [
        {
          "internalType": "uint256",
          "name": "tokenId",
          "type": "uint256"
        }
      ],
      "name": "getApproved",
      "outputs": [
        {
          "internalType": "address",
          "name": "",
          "type": "address"
        }
      ],
      "stateMutability": "view",
      "type": "function"
    },
    {
      "inputs": [
        {
          "internalType": "uint256",
          "name": "_projectId",
          "type": "uint256"
        },
        {
          "internalType": "contract IJBDirectory",
          "name": "_directory",
          "type": "address"
        },
        {
          "internalType": "string",
          "name": "_name",
          "type": "string"
        },
        {
          "internalType": "string",
          "name": "_symbol",
          "type": "string"
        },
        {
          "internalType": "contract IJBFundingCycleStore",
          "name": "_fundingCycleStore",
          "type": "address"
        },
        {
          "internalType": "string",
          "name": "_baseUri",
          "type": "string"
        },
        {
          "internalType": "contract IJBTokenUriResolver",
          "name": "_tokenUriResolver",
          "type": "address"
        },
        {
          "internalType": "string",
          "name": "_contractUri",
          "type": "string"
        },
        {
          "components": [
            {
              "components": [
                {
                  "internalType": "uint80",
                  "name": "contributionFloor",
                  "type": "uint80"
                },
                {
                  "internalType": "uint48",
                  "name": "lockedUntil",
                  "type": "uint48"
                },
                {
                  "internalType": "uint40",
                  "name": "initialQuantity",
                  "type": "uint40"
                },
                {
                  "internalType": "uint16",
                  "name": "votingUnits",
                  "type": "uint16"
                },
                {
                  "internalType": "uint16",
                  "name": "reservedRate",
                  "type": "uint16"
                },
                {
                  "internalType": "address",
                  "name": "reservedTokenBeneficiary",
                  "type": "address"
                },
                {
                  "internalType": "bytes32",
                  "name": "encodedIPFSUri",
                  "type": "bytes32"
                },
                {
                  "internalType": "uint8",
                  "name": "category",
                  "type": "uint8"
                },
                {
                  "internalType": "bool",
                  "name": "allowManualMint",
                  "type": "bool"
                },
                {
                  "internalType": "bool",
                  "name": "shouldUseBeneficiaryAsDefault",
                  "type": "bool"
                },
                {
                  "internalType": "bool",
                  "name": "transfersPausable",
                  "type": "bool"
                }
              ],
              "internalType": "struct JB721TierParams[]",
              "name": "tiers",
              "type": "tuple[]"
            },
            {
              "internalType": "uint256",
              "name": "currency",
              "type": "uint256"
            },
            {
              "internalType": "uint256",
              "name": "decimals",
              "type": "uint256"
            },
            {
              "internalType": "contract IJBPrices",
              "name": "prices",
              "type": "address"
            }
          ],
          "internalType": "struct JB721PricingParams",
          "name": "_pricing",
          "type": "tuple"
        },
        {
          "internalType": "contract IJBTiered721DelegateStore",
          "name": "_store",
          "type": "address"
        },
        {
          "components": [
            {
              "internalType": "bool",
              "name": "lockReservedTokenChanges",
              "type": "bool"
            },
            {
              "internalType": "bool",
              "name": "lockVotingUnitChanges",
              "type": "bool"
            },
            {
              "internalType": "bool",
              "name": "lockManualMintingChanges",
              "type": "bool"
            },
            {
              "internalType": "bool",
              "name": "preventOverspending",
              "type": "bool"
            }
          ],
          "internalType": "struct JBTiered721Flags",
          "name": "_flags",
          "type": "tuple"
        }
      ],
      "name": "initialize",
      "outputs": [],
      "stateMutability": "nonpayable",
      "type": "function"
    },
    {
      "inputs": [
        {
          "internalType": "address",
          "name": "owner",
          "type": "address"
        },
        {
          "internalType": "address",
          "name": "operator",
          "type": "address"
        }
      ],
      "name": "isApprovedForAll",
      "outputs": [
        {
          "internalType": "bool",
          "name": "",
          "type": "bool"
        }
      ],
      "stateMutability": "view",
      "type": "function"
    },
    {
      "inputs": [
        {
          "components": [
            {
              "internalType": "uint16[]",
              "name": "tierIds",
              "type": "uint16[]"
            },
            {
              "internalType": "address",
              "name": "beneficiary",
              "type": "address"
            }
          ],
          "internalType": "struct JBTiered721MintForTiersData[]",
          "name": "_mintForTiersData",
          "type": "tuple[]"
        }
      ],
      "name": "mintFor",
      "outputs": [],
      "stateMutability": "nonpayable",
      "type": "function"
    },
    {
      "inputs": [
        {
          "internalType": "uint16[]",
          "name": "_tierIds",
          "type": "uint16[]"
        },
        {
          "internalType": "address",
          "name": "_beneficiary",
          "type": "address"
        }
      ],
      "name": "mintFor",
      "outputs": [
        {
          "internalType": "uint256[]",
          "name": "tokenIds",
          "type": "uint256[]"
        }
      ],
      "stateMutability": "nonpayable",
      "type": "function"
    },
    {
      "inputs": [
        {
          "components": [
            {
              "internalType": "uint256",
              "name": "tierId",
              "type": "uint256"
            },
            {
              "internalType": "uint256",
              "name": "count",
              "type": "uint256"
            }
          ],
          "internalType": "struct JBTiered721MintReservesForTiersData[]",
          "name": "_mintReservesForTiersData",
          "type": "tuple[]"
        }
      ],
      "name": "mintReservesFor",
      "outputs": [],
      "stateMutability": "nonpayable",
      "type": "function"
    },
    {
      "inputs": [
        {
          "internalType": "uint256",
          "name": "_tierId",
          "type": "uint256"
        },
        {
          "internalType": "uint256",
          "name": "_count",
          "type": "uint256"
        }
      ],
      "name": "mintReservesFor",
      "outputs": [],
      "stateMutability": "nonpayable",
      "type": "function"
    },
    {
      "inputs": [],
      "name": "name",
      "outputs": [
        {
          "internalType": "string",
          "name": "",
          "type": "string"
        }
      ],
      "stateMutability": "view",
      "type": "function"
    },
    {
      "inputs": [],
      "name": "owner",
      "outputs": [
        {
          "internalType": "address",
          "name": "",
          "type": "address"
        }
      ],
      "stateMutability": "view",
      "type": "function"
    },
    {
      "inputs": [
        {
          "internalType": "uint256",
          "name": "tokenId",
          "type": "uint256"
        }
      ],
      "name": "ownerOf",
      "outputs": [
        {
          "internalType": "address",
          "name": "",
          "type": "address"
        }
      ],
      "stateMutability": "view",
      "type": "function"
    },
    {
      "inputs": [
        {
          "components": [
            {
              "internalType": "contract IJBPaymentTerminal",
              "name": "terminal",
              "type": "address"
            },
            {
              "internalType": "address",
              "name": "payer",
              "type": "address"
            },
            {
              "components": [
                {
                  "internalType": "address",
                  "name": "token",
                  "type": "address"
                },
                {
                  "internalType": "uint256",
                  "name": "value",
                  "type": "uint256"
                },
                {
                  "internalType": "uint256",
                  "name": "decimals",
                  "type": "uint256"
                },
                {
                  "internalType": "uint256",
                  "name": "currency",
                  "type": "uint256"
                }
              ],
              "internalType": "struct JBTokenAmount",
              "name": "amount",
              "type": "tuple"
            },
            {
              "internalType": "uint256",
              "name": "projectId",
              "type": "uint256"
            },
            {
              "internalType": "uint256",
              "name": "currentFundingCycleConfiguration",
              "type": "uint256"
            },
            {
              "internalType": "address",
              "name": "beneficiary",
              "type": "address"
            },
            {
              "internalType": "uint256",
              "name": "weight",
              "type": "uint256"
            },
            {
              "internalType": "uint256",
              "name": "reservedRate",
              "type": "uint256"
            },
            {
              "internalType": "string",
              "name": "memo",
              "type": "string"
            },
            {
              "internalType": "bytes",
              "name": "metadata",
              "type": "bytes"
            }
          ],
          "internalType": "struct JBPayParamsData",
          "name": "_data",
          "type": "tuple"
        }
      ],
      "name": "payParams",
      "outputs": [
        {
          "internalType": "uint256",
          "name": "weight",
          "type": "uint256"
        },
        {
          "internalType": "string",
          "name": "memo",
          "type": "string"
        },
        {
          "components": [
            {
              "internalType": "contract IJBPayDelegate",
              "name": "delegate",
              "type": "address"
            },
            {
              "internalType": "uint256",
              "name": "amount",
              "type": "uint256"
            }
          ],
          "internalType": "struct JBPayDelegateAllocation[]",
          "name": "delegateAllocations",
          "type": "tuple[]"
        }
      ],
      "stateMutability": "view",
      "type": "function"
    },
    {
      "inputs": [],
      "name": "prices",
      "outputs": [
        {
          "internalType": "contract IJBPrices",
          "name": "",
          "type": "address"
        }
      ],
      "stateMutability": "view",
      "type": "function"
    },
    {
      "inputs": [],
      "name": "pricingCurrency",
      "outputs": [
        {
          "internalType": "uint256",
          "name": "",
          "type": "uint256"
        }
      ],
      "stateMutability": "view",
      "type": "function"
    },
    {
      "inputs": [],
      "name": "pricingDecimals",
      "outputs": [
        {
          "internalType": "uint256",
          "name": "",
          "type": "uint256"
        }
      ],
      "stateMutability": "view",
      "type": "function"
    },
    {
      "inputs": [],
      "name": "projectId",
      "outputs": [
        {
          "internalType": "uint256",
          "name": "",
          "type": "uint256"
        }
      ],
      "stateMutability": "view",
      "type": "function"
    },
    {
      "inputs": [
        {
          "components": [
            {
              "internalType": "contract IJBPaymentTerminal",
              "name": "terminal",
              "type": "address"
            },
            {
              "internalType": "address",
              "name": "holder",
              "type": "address"
            },
            {
              "internalType": "uint256",
              "name": "projectId",
              "type": "uint256"
            },
            {
              "internalType": "uint256",
              "name": "currentFundingCycleConfiguration",
              "type": "uint256"
            },
            {
              "internalType": "uint256",
              "name": "tokenCount",
              "type": "uint256"
            },
            {
              "internalType": "uint256",
              "name": "totalSupply",
              "type": "uint256"
            },
            {
              "internalType": "uint256",
              "name": "overflow",
              "type": "uint256"
            },
            {
              "components": [
                {
                  "internalType": "address",
                  "name": "token",
                  "type": "address"
                },
                {
                  "internalType": "uint256",
                  "name": "value",
                  "type": "uint256"
                },
                {
                  "internalType": "uint256",
                  "name": "decimals",
                  "type": "uint256"
                },
                {
                  "internalType": "uint256",
                  "name": "currency",
                  "type": "uint256"
                }
              ],
              "internalType": "struct JBTokenAmount",
              "name": "reclaimAmount",
              "type": "tuple"
            },
            {
              "internalType": "bool",
              "name": "useTotalOverflow",
              "type": "bool"
            },
            {
              "internalType": "uint256",
              "name": "redemptionRate",
              "type": "uint256"
            },
            {
              "internalType": "string",
              "name": "memo",
              "type": "string"
            },
            {
              "internalType": "bytes",
              "name": "metadata",
              "type": "bytes"
            }
          ],
          "internalType": "struct JBRedeemParamsData",
          "name": "_data",
          "type": "tuple"
        }
      ],
      "name": "redeemParams",
      "outputs": [
        {
          "internalType": "uint256",
          "name": "reclaimAmount",
          "type": "uint256"
        },
        {
          "internalType": "string",
          "name": "memo",
          "type": "string"
        },
        {
          "components": [
            {
              "internalType": "contract IJBRedemptionDelegate",
              "name": "delegate",
              "type": "address"
            },
            {
              "internalType": "uint256",
              "name": "amount",
              "type": "uint256"
            }
          ],
          "internalType": "struct JBRedemptionDelegateAllocation[]",
          "name": "delegateAllocations",
          "type": "tuple[]"
        }
      ],
      "stateMutability": "view",
      "type": "function"
    },
    {
      "inputs": [
        {
          "internalType": "uint256[]",
          "name": "_tokenIds",
          "type": "uint256[]"
        },
        {
          "components": [
            {
              "internalType": "contract IJBPaymentTerminal",
              "name": "terminal",
              "type": "address"
            },
            {
              "internalType": "address",
              "name": "holder",
              "type": "address"
            },
            {
              "internalType": "uint256",
              "name": "projectId",
              "type": "uint256"
            },
            {
              "internalType": "uint256",
              "name": "currentFundingCycleConfiguration",
              "type": "uint256"
            },
            {
              "internalType": "uint256",
              "name": "tokenCount",
              "type": "uint256"
            },
            {
              "internalType": "uint256",
              "name": "totalSupply",
              "type": "uint256"
            },
            {
              "internalType": "uint256",
              "name": "overflow",
              "type": "uint256"
            },
            {
              "components": [
                {
                  "internalType": "address",
                  "name": "token",
                  "type": "address"
                },
                {
                  "internalType": "uint256",
                  "name": "value",
                  "type": "uint256"
                },
                {
                  "internalType": "uint256",
                  "name": "decimals",
                  "type": "uint256"
                },
                {
                  "internalType": "uint256",
                  "name": "currency",
                  "type": "uint256"
                }
              ],
              "internalType": "struct JBTokenAmount",
              "name": "reclaimAmount",
              "type": "tuple"
            },
            {
              "internalType": "bool",
              "name": "useTotalOverflow",
              "type": "bool"
            },
            {
              "internalType": "uint256",
              "name": "redemptionRate",
              "type": "uint256"
            },
            {
              "internalType": "string",
              "name": "memo",
              "type": "string"
            },
            {
              "internalType": "bytes",
              "name": "metadata",
              "type": "bytes"
            }
          ],
          "internalType": "struct JBRedeemParamsData",
          "name": "",
          "type": "tuple"
        }
      ],
      "name": "redemptionWeightOf",
      "outputs": [
        {
          "internalType": "uint256",
          "name": "",
          "type": "uint256"
        }
      ],
      "stateMutability": "view",
      "type": "function"
    },
    {
      "inputs": [],
      "name": "renounceOwnership",
      "outputs": [],
      "stateMutability": "nonpayable",
      "type": "function"
    },
    {
      "inputs": [
        {
          "internalType": "address",
          "name": "from",
          "type": "address"
        },
        {
          "internalType": "address",
          "name": "to",
          "type": "address"
        },
        {
          "internalType": "uint256",
          "name": "tokenId",
          "type": "uint256"
        }
      ],
      "name": "safeTransferFrom",
      "outputs": [],
      "stateMutability": "nonpayable",
      "type": "function"
    },
    {
      "inputs": [
        {
          "internalType": "address",
          "name": "from",
          "type": "address"
        },
        {
          "internalType": "address",
          "name": "to",
          "type": "address"
        },
        {
          "internalType": "uint256",
          "name": "tokenId",
          "type": "uint256"
        },
        {
          "internalType": "bytes",
          "name": "data",
          "type": "bytes"
        }
      ],
      "name": "safeTransferFrom",
      "outputs": [],
      "stateMutability": "nonpayable",
      "type": "function"
    },
    {
      "inputs": [
        {
          "internalType": "address",
          "name": "operator",
          "type": "address"
        },
        {
          "internalType": "bool",
          "name": "approved",
          "type": "bool"
        }
      ],
      "name": "setApprovalForAll",
      "outputs": [],
      "stateMutability": "nonpayable",
      "type": "function"
    },
    {
      "inputs": [
        {
          "internalType": "string",
          "name": "_baseUri",
          "type": "string"
        }
      ],
      "name": "setBaseUri",
      "outputs": [],
      "stateMutability": "nonpayable",
      "type": "function"
    },
    {
      "inputs": [
        {
          "internalType": "string",
          "name": "_contractUri",
          "type": "string"
        }
      ],
      "name": "setContractUri",
      "outputs": [],
      "stateMutability": "nonpayable",
      "type": "function"
    },
    {
      "inputs": [
        {
          "internalType": "address",
          "name": "_beneficiary",
          "type": "address"
        }
      ],
      "name": "setDefaultReservedTokenBeneficiary",
      "outputs": [],
      "stateMutability": "nonpayable",
      "type": "function"
    },
    {
      "inputs": [
        {
          "internalType": "contract IJBTokenUriResolver",
          "name": "_tokenUriResolver",
          "type": "address"
        }
      ],
      "name": "setTokenUriResolver",
      "outputs": [],
      "stateMutability": "nonpayable",
      "type": "function"
    },
    {
      "inputs": [],
      "name": "store",
      "outputs": [
        {
          "internalType": "contract IJBTiered721DelegateStore",
          "name": "",
          "type": "address"
        }
      ],
      "stateMutability": "view",
      "type": "function"
    },
    {
      "inputs": [
        {
          "internalType": "bytes4",
          "name": "_interfaceId",
          "type": "bytes4"
        }
      ],
      "name": "supportsInterface",
      "outputs": [
        {
          "internalType": "bool",
          "name": "",
          "type": "bool"
        }
      ],
      "stateMutability": "view",
      "type": "function"
    },
    {
      "inputs": [],
      "name": "symbol",
      "outputs": [
        {
          "internalType": "string",
          "name": "",
          "type": "string"
        }
      ],
      "stateMutability": "view",
      "type": "function"
    },
    {
      "inputs": [
        {
          "internalType": "uint256",
          "name": "_tokenId",
          "type": "uint256"
        }
      ],
      "name": "tokenURI",
      "outputs": [
        {
          "internalType": "string",
          "name": "",
          "type": "string"
        }
      ],
      "stateMutability": "view",
      "type": "function"
    },
    {
      "inputs": [
        {
          "components": [
            {
              "internalType": "contract IJBPaymentTerminal",
              "name": "terminal",
              "type": "address"
            },
            {
              "internalType": "address",
              "name": "holder",
              "type": "address"
            },
            {
              "internalType": "uint256",
              "name": "projectId",
              "type": "uint256"
            },
            {
              "internalType": "uint256",
              "name": "currentFundingCycleConfiguration",
              "type": "uint256"
            },
            {
              "internalType": "uint256",
              "name": "tokenCount",
              "type": "uint256"
            },
            {
              "internalType": "uint256",
              "name": "totalSupply",
              "type": "uint256"
            },
            {
              "internalType": "uint256",
              "name": "overflow",
              "type": "uint256"
            },
            {
              "components": [
                {
                  "internalType": "address",
                  "name": "token",
                  "type": "address"
                },
                {
                  "internalType": "uint256",
                  "name": "value",
                  "type": "uint256"
                },
                {
                  "internalType": "uint256",
                  "name": "decimals",
                  "type": "uint256"
                },
                {
                  "internalType": "uint256",
                  "name": "currency",
                  "type": "uint256"
                }
              ],
              "internalType": "struct JBTokenAmount",
              "name": "reclaimAmount",
              "type": "tuple"
            },
            {
              "internalType": "bool",
              "name": "useTotalOverflow",
              "type": "bool"
            },
            {
              "internalType": "uint256",
              "name": "redemptionRate",
              "type": "uint256"
            },
            {
              "internalType": "string",
              "name": "memo",
              "type": "string"
            },
            {
              "internalType": "bytes",
              "name": "metadata",
              "type": "bytes"
            }
          ],
          "internalType": "struct JBRedeemParamsData",
          "name": "",
          "type": "tuple"
        }
      ],
      "name": "totalRedemptionWeight",
      "outputs": [
        {
          "internalType": "uint256",
          "name": "",
          "type": "uint256"
        }
      ],
      "stateMutability": "view",
      "type": "function"
    },
    {
      "inputs": [
        {
          "internalType": "address",
          "name": "from",
          "type": "address"
        },
        {
          "internalType": "address",
          "name": "to",
          "type": "address"
        },
        {
          "internalType": "uint256",
          "name": "tokenId",
          "type": "uint256"
        }
      ],
      "name": "transferFrom",
      "outputs": [],
      "stateMutability": "nonpayable",
      "type": "function"
    },
    {
      "inputs": [
        {
          "internalType": "address",
          "name": "newOwner",
          "type": "address"
        }
      ],
      "name": "transferOwnership",
      "outputs": [],
      "stateMutability": "nonpayable",
      "type": "function"
    }
  ],
  "bytecode": {
    "object": "0x60806040523480156200001157600080fd5b506200001d3362000035565b600880546001600160a01b0319163017905562000087565b600780546001600160a01b038381166001600160a01b0319831681179093556040519116919082907f8be0079c531659141344cd1fd0a4f28419497f9722a3daafe3b4186f6b6457e090600090a35050565b614d6480620000976000396000f3fe60806040526004361061025c5760003560e01c8063715018a611610144578063c41c2f24116100b6578063da9ee8b71161007a578063da9ee8b714610726578063df487e2614610739578063e8a3d48514610759578063e8ed5d671461076e578063e985e9c51461078e578063f2fde38b146107d757600080fd5b8063c41c2f2414610686578063c87b56dd146106a6578063ccb4807b146106c6578063d3419bf3146106e6578063d46cf1711461070657600080fd5b8063975057e711610108578063975057e7146105b7578063a0bcfc7f146105d7578063a22cb465146105f7578063a51cfd1814610617578063aa4fb15b14610646578063b88d4fde1461066657600080fd5b8063715018a61461052f5780637ba62bf9146105445780638da5cb5b146105645780639494bf721461058257806395d89b41146105a257600080fd5b80632b13c58f116101dd57806354c6d1f5116101a157806354c6d1f51461046c578063557e71551461048c5780636352211e146104ac57806364640c1e146104cc5780636ac6d941146104e257806370a082311461050f57600080fd5b80632b13c58f146103ed57806336c1a93b146104005780633fafa1271461042057806342842e0e146104365780634ecba6251461045657600080fd5b80631d153ca4116102245780631d153ca41461033257806323b872dd146103525780632407497e14610372578063245a45b5146103925780632a596e53146103cd57600080fd5b806301ffc9a7146102615780630575ea7a1461029657806306fdde03146102b8578063081812fc146102da578063095ea7b314610312575b600080fd5b34801561026d57600080fd5b5061028161027c36600461341a565b6107f7565b60405190151581526020015b60405180910390f35b3480156102a257600080fd5b506102b66102b1366004613482565b610822565b005b3480156102c457600080fd5b506102cd610a05565b60405161028d919061356c565b3480156102e657600080fd5b506102fa6102f536600461357f565b610a97565b6040516001600160a01b03909116815260200161028d565b34801561031e57600080fd5b506102b661032d3660046135bd565b610abe565b34801561033e57600080fd5b506008546102fa906001600160a01b031681565b34801561035e57600080fd5b506102b661036d3660046135e9565b610b4a565b34801561037e57600080fd5b506102b661038d36600461362a565b610b7c565b34801561039e57600080fd5b506103bf6103ad36600461362a565b600e6020526000908152604090205481565b60405190815260200161028d565b3480156103d957600080fd5b506102b66103e8366004613647565b610c25565b6102b66103fb3660046136d4565b610c7e565b34801561040c57600080fd5b506102b661041b366004613708565b610e58565b34801561042c57600080fd5b506103bf60055481565b34801561044257600080fd5b506102b66104513660046135e9565b610eba565b34801561046257600080fd5b506103bf600d5481565b34801561047857600080fd5b506102fa61048736600461357f565b610ed5565b34801561049857600080fd5b50600a546102fa906001600160a01b031681565b3480156104b857600080fd5b506102fa6104c736600461357f565b610f81565b3480156104d857600080fd5b506103bf600c5481565b3480156104ee57600080fd5b506105026104fd366004613749565b610fb7565b60405161028d91906137da565b34801561051b57600080fd5b506103bf61052a36600461362a565b6110fd565b34801561053b57600080fd5b506102b6611173565b34801561055057600080fd5b506103bf61055f366004613952565b611187565b34801561057057600080fd5b506007546001600160a01b03166102fa565b34801561058e57600080fd5b506103bf61059d3660046136d4565b611202565b3480156105ae57600080fd5b506102cd611233565b3480156105c357600080fd5b506009546102fa906001600160a01b031681565b3480156105e357600080fd5b506102b66105f23660046139b5565b611242565b34801561060357600080fd5b506102b6610612366004613a2d565b6112fd565b34801561062357600080fd5b506106376106323660046136d4565b61130c565b60405161028d93929190613a66565b34801561065257600080fd5b506102b6610661366004613ad8565b61156b565b34801561067257600080fd5b506102b6610681366004613b5a565b611788565b34801561069257600080fd5b506006546102fa906001600160a01b031681565b3480156106b257600080fd5b506102cd6106c136600461357f565b6117bb565b3480156106d257600080fd5b506102b66106e13660046139b5565b611995565b3480156106f257600080fd5b50600b546102fa906001600160a01b031681565b34801561071257600080fd5b50610637610721366004613bd9565b611a48565b6102b6610734366004613c14565b611b2b565b34801561074557600080fd5b506102b661075436600461362a565b611be2565b34801561076557600080fd5b506102cd611c84565b34801561077a57600080fd5b506102b6610789366004613eb9565b611cfa565b34801561079a57600080fd5b506102816107a9366004613ff2565b6001600160a01b03918216600090815260046020908152604080832093909416825291909152205460ff1690565b3480156107e357600080fd5b506102b66107f236600461362a565b611fec565b60006001600160e01b0319821663281586a960e11b148061081c575061081c8261206a565b92915050565b61082a6120e0565b828180156108fa576009546040516320512ba160e01b81526001600160a01b03909116906320512ba1906108649087908790600401614020565b600060405180830381600087803b15801561087e57600080fd5b505af1158015610892573d6000803e3d6000fd5b5050505060005b818110156108f8578484828181106108b3576108b3614059565b60405133815260209182029390930135927f832d89d991be5351d793c20faf4b7dd44f8aa9ce39e3cb160c6317de6fbba72992500160405180910390a2600101610899565b505b81156109fd57600954604051631dd7fb3f60e31b81526000916001600160a01b03169063eebfd9f890610933908a908a90600401614161565b6000604051808303816000875af1158015610952573d6000803e3d6000fd5b505050506040513d6000823e601f3d908101601f1916820160405261097a91908101906141ff565b905060005b838110156109fa5781818151811061099957610999614059565b60200260200101517f3dc3b6685c6b880840d7902979f926412f2b9e9ad1c67a4e28816bea10c8c4478989848181106109d4576109d4614059565b90506101600201336040516109ea929190614233565b60405180910390a260010161097f565b50505b505050505050565b606060008054610a149061425b565b80601f0160208091040260200160405190810160405280929190818152602001828054610a409061425b565b8015610a8d5780601f10610a6257610100808354040283529160200191610a8d565b820191906000526020600020905b815481529060010190602001808311610a7057829003601f168201915b5050505050905090565b6000610aa28261213a565b506000908152600360205260409020546001600160a01b031690565b6000610ac982610f81565b9050806001600160a01b0316836001600160a01b031603610afd5760405163133f8be960e01b815260040160405180910390fd5b336001600160a01b03821614801590610b1d5750610b1b81336107a9565b155b15610b3b5760405163e5fa0e3560e01b815260040160405180910390fd5b610b45838361216f565b505050565b610b5433826121dd565b610b715760405163e5fa0e3560e01b815260040160405180910390fd5b610b4583838361225c565b610b846120e0565b60095460405163036129cb60e61b81526001600160a01b0383811660048301529091169063d84a72c090602401600060405180830381600087803b158015610bcb57600080fd5b505af1158015610bdf573d6000803e3d6000fd5b50506040513381526001600160a01b03841692507fe7784d93cfbfa4408e19577e6cc0436f4dbb51214b70e100905dfce9def88c1691506020015b60405180910390a250565b8060005b81811015610c78576000848483818110610c4557610c45614059565b905060400201803603810190610c5b919061428f565b9050610c6f8160000151826020015161156b565b50600101610c29565b50505050565b34151580610d005750600654600554604051636e49181f60e01b815260048101919091523360248201526001600160a01b0390911690636e49181f90604401602060405180830381865afa158015610cda573d6000803e3d6000fd5b505050506040513d601f19601f82011682018060405250810190610cfe91906142e8565b155b80610d115750600554816020013514155b15610d2f57604051633efca5c360e11b815260040160405180910390fd5b6024610d3f6101c0830183614305565b90501080610d83575063b3bcbb7960e01b610d5e6101c0830183614305565b610d6d9160249160209161434b565b610d7691614375565b6001600160e01b03191614155b15610da157604051632a84050f60e01b815260040160405180910390fd5b6000610db16101c0830183614305565b810190610dbe91906143a5565b925050506000815190506000805b82811015610e4e57838181518110610de657610de6614059565b60200260200101519150846000016020810190610e03919061362a565b6000838152600260205260409020546001600160a01b03908116911614610e3d5760405163075fd2b160e01b815260040160405180910390fd5b610e4682612335565b600101610dcc565b50610c78836123b6565b610e606120e0565b8060005b81811015610c785736848483818110610e7f57610e7f614059565b9050602002810190610e9191906143fd565b9050610eb0610ea0828061441d565b6104fd604085016020860161362a565b5050600101610e64565b610b4583838360405180602001604052806000815250611788565b6009546040516308ed6c0160e41b81523060048201526024810183905260009182916001600160a01b0390911690638ed6c01090604401602060405180830381865afa158015610f29573d6000803e3d6000fd5b505050506040513d601f19601f82011682018060405250810190610f4d9190614471565b90506001600160a01b03811615610f645792915050565b50506000908152600260205260409020546001600160a01b031690565b6000818152600260205260408120546001600160a01b03168061081c5760405163b49aa3b560e01b815260040160405180910390fd5b6060610fc16120e0565b60095460405163eaa19ab360e01b81526001600160a01b039091169063eaa19ab390610ffa90600019908890889060019060040161448e565b6000604051808303816000875af1158015611019573d6000803e3d6000fd5b505050506040513d6000823e601f3d908101601f1916820160405261104191908101906144eb565b509050826000805b828110156110f35783818151811061106357611063614059565b60200260200101519150611077858361241b565b846001600160a01b031687878381811061109357611093614059565b90506020020160208101906110a89190614531565b604080516000815233602082015261ffff929092169185917f598baf7bf150ca2f42be9e9f8f55e81d45f5715c3ff22bf46d697fabec7f31d6910160405180910390a4600101611049565b5050509392505050565b600954604051633de222bb60e21b81523060048201526001600160a01b038381166024830152600092169063f7888aec906044015b602060405180830381865afa15801561114f573d6000803e3d6000fd5b505050506040513d601f19601f8201168201806040525081019061081c919061454c565b61117b6120e0565b61118560006124e5565b565b60095460405163051330b560e21b81526000916001600160a01b03169063144cc2d4906111ba9030908790600401614565565b602060405180830381865afa1580156111d7573d6000803e3d6000fd5b505050506040513d601f19601f820116820180604052508101906111fb919061454c565b9392505050565b600954604051631572f24960e11b81523060048201526000916001600160a01b031690632ae5e49290602401611132565b606060018054610a149061425b565b61124a6120e0565b6009546040516331315e5960e11b81526001600160a01b0390911690636262bcb29061127c9085908590600401614589565b600060405180830381600087803b15801561129657600080fd5b505af11580156112aa573d6000803e3d6000fd5b5050505081816040516112be9291906145b8565b604051908190038120338252907f7bc9110d5de090dd59e07912d2b93a5a27ac70a60c8d8e324db4f9ee8b8b5c13906020015b60405180910390a25050565b611308338383612537565b5050565b6000606080608084013515611334576040516309f82f1b60e31b815260040160405180910390fd5b60246113446101c0860186614305565b90501080611388575063b3bcbb7960e01b6113636101c0860186614305565b6113729160249160209161434b565b61137b91614375565b6001600160e01b03191614155b156113a657604051632a84050f60e01b815260040160405180910390fd5b60408051600180825281830190925290816020015b60408051808201909152600080825260208201528152602001906001900390816113bb5790505090506040518060400160405280306001600160a01b0316815260200160008152508160008151811061141657611416614059565b602090810291909101015260006114316101c0860186614305565b81019061143e91906143a5565b92505050600061144e8287611187565b9050600061145b87611202565b9050600061146e8860c0013584846125d6565b9050612710886101800135036114d9578061148d6101a08a018a614305565b8782828080601f016020809104026020016040519081016040528093929190818152602001838380828437600092019190915250969d50919b5091995061156498505050505050505050565b61150f816114f8856114f26101808d01356127106145de565b866125d6565b611507906101808c01356145f1565b6127106125d6565b61151d6101a08a018a614305565b8782828080601f016020809104026020016040519081016040528093929190818152602001838380828437600092019190915250969d50919b509199505050505050505050505b9193909250565b600a546005546040516321d1336160e11b815260048101919091526000916001600160a01b0316906343a266c29060240161012060405180830381865afa1580156115ba573d6000803e3d6000fd5b505050506040513d601f19601f820116820180604052508101906115de9190614604565b61010081015190915060f51c60019081160361160d57604051631d2c125760e31b815260040160405180910390fd5b600954604051635d53f40760e11b815260048101859052602481018490526000916001600160a01b03169063baa7e80e906044016000604051808303816000875af1158015611660573d6000803e3d6000fd5b505050506040513d6000823e601f3d908101601f1916820160405261168891908101906141ff565b6009546040516304db994760e21b8152306004820152602481018790529192506000916001600160a01b039091169063136e651c90604401602060405180830381865afa1580156116dd573d6000803e3d6000fd5b505050506040513d601f19601f820116820180604052508101906117019190614471565b90506000805b8581101561177f5783818151811061172157611721614059565b60200260200101519150611735838361241b565b6040513381526001600160a01b03841690889084907f031e1988c95a91ec4d655ff63a8f87a80bc9daf28d95ae10ee08c0022cfb5c8b9060200160405180910390a4600101611707565b50505050505050565b61179233836121dd565b6117af5760405163e5fa0e3560e01b815260040160405180910390fd5b610c78848484846126a2565b600954604051630fab094760e01b81523060048201526060916000916001600160a01b0390911690630fab094790602401602060405180830381865afa158015611809573d6000803e3d6000fd5b505050506040513d601f19601f8201168201806040525081019061182d9190614471565b90506001600160a01b038116156118ab57604051636d02a25560e11b8152600481018490526001600160a01b0382169063da0544aa90602401600060405180830381865afa158015611883573d6000803e3d6000fd5b505050506040513d6000823e601f3d908101601f191682016040526111fb9190810190614684565b60095460405163f682eeaf60e01b81523060048201526111fb916001600160a01b03169063f682eeaf90602401600060405180830381865afa1580156118f5573d6000803e3d6000fd5b505050506040513d6000823e601f3d908101601f1916820160405261191d9190810190614684565b600954604051630c8df17160e41b8152306004820152602481018790526001600160a01b039091169063c8df171090604401602060405180830381865afa15801561196c573d6000803e3d6000fd5b505050506040513d601f19601f82011682018060405250810190611990919061454c565b6126d6565b61199d6120e0565b60095460405163d67b78fd60e01b81526001600160a01b039091169063d67b78fd906119cf9085908590600401614589565b600060405180830381600087803b1580156119e957600080fd5b505af11580156119fd573d6000803e3d6000fd5b505050508181604051611a119291906145b8565b604051908190038120338252907fd36dc0c1a06103fdcaf15f3f6fb797d1a97997514c78de073640c8b5005454b8906020016112f1565b610120810135606080611a5f610160850185614305565b8080601f01602080910402602001604051908101604052809392919081815260200183838082843760009201919091525092945060019250611a9f915050565b604051908082528060200260200182016040528015611ae457816020015b6040805180820190915260008082526020820152815260200190600190039081611abd5790505b5090506040518060400160405280306001600160a01b03168152602001600081525081600081518110611b1957611b19614059565b60200260200101819052509193909250565b60055434151580611bac5750600654604051636e49181f60e01b8152600481018390523360248201526001600160a01b0390911690636e49181f90604401602060405180830381865afa158015611b86573d6000803e3d6000fd5b505050506040513d601f19601f82011682018060405250810190611baa91906142e8565b155b80611bbb575080826020013514155b15611bd9576040516331c57b1b60e21b815260040160405180910390fd5b6113088261273d565b611bea6120e0565b6009546040516317161f7d60e01b81526001600160a01b038381166004830152909116906317161f7d90602401600060405180830381600087803b158015611c3157600080fd5b505af1158015611c45573d6000803e3d6000fd5b50506040513381526001600160a01b03841692507fab0014d4c7a642a02a31b303a318908c22b0fb2001f107278fc6076b4c671b659150602001610c1a565b600954604051630155619b60e71b81523060048201526060916001600160a01b03169063aab0cd8090602401600060405180830381865afa158015611ccd573d6000803e3d6000fd5b505050506040513d6000823e601f3d908101601f19168201604052611cf59190810190614684565b905090565b6008546001600160a01b03163003611d1157600080fd5b6009546001600160a01b031615611d2757600080fd5b611d338b8b8b8b612a50565b600a80546001600160a01b03808a166001600160a01b031992831617909255600980548584169083161790556020850151600c556040850151600d556060850151600b8054919093169116179055855115611de7576040516331315e5960e11b81526001600160a01b03831690636262bcb290611db490899060040161356c565b600060405180830381600087803b158015611dce57600080fd5b505af1158015611de2573d6000803e3d6000fd5b505050505b835115611e4d5760405163d67b78fd60e01b81526001600160a01b0383169063d67b78fd90611e1a90879060040161356c565b600060405180830381600087803b158015611e3457600080fd5b505af1158015611e48573d6000803e3d6000fd5b505050505b6001600160a01b03851615611eb85760405163036129cb60e61b81526001600160a01b03868116600483015283169063d84a72c090602401600060405180830381600087803b158015611e9f57600080fd5b505af1158015611eb3573d6000803e3d6000fd5b505050505b82515115611f36578251604051631dd7fb3f60e31b81526001600160a01b0384169163eebfd9f891611eed91906004016146f1565b6000604051808303816000875af1158015611f0c573d6000803e3d6000fd5b505050506040513d6000823e601f3d908101601f19168201604052611f3491908101906141ff565b505b805180611f44575080602001515b80611f50575080604001515b15611fd657604080516365c13f1960e11b815282511515600482015260208301511515602482015290820151151560448201526060820151151560648201526001600160a01b0383169063cb827e3290608401600060405180830381600087803b158015611fbd57600080fd5b505af1158015611fd1573d6000803e3d6000fd5b505050505b611fdf336124e5565b5050505050505050505050565b611ff46120e0565b6001600160a01b03811661205e5760405162461bcd60e51b815260206004820152602660248201527f4f776e61626c653a206e6577206f776e657220697320746865207a65726f206160448201526564647265737360d01b60648201526084015b60405180910390fd5b612067816124e5565b50565b60006001600160e01b0319821663b3bcbb7960e01b148061209b57506001600160e01b031982166371700c6960e01b145b806120b657506001600160e01b0319821663da9ee8b760e01b145b806120d157506001600160e01b03198216632b13c58f60e01b145b8061081c575061081c82612a83565b6007546001600160a01b031633146111855760405162461bcd60e51b815260206004820181905260248201527f4f776e61626c653a2063616c6c6572206973206e6f7420746865206f776e65726044820152606401612055565b6000818152600260205260409020546001600160a01b03166120675760405163b49aa3b560e01b815260040160405180910390fd5b600081815260036020526040902080546001600160a01b0319166001600160a01b03841690811790915581906121a482610f81565b6001600160a01b03167f8c5be1e5ebec7d5bd14f71427d1e84f3dd0314c0f7b2291e5b200ac8c7c3b92560405160405180910390a45050565b6000806121e983610f81565b9050806001600160a01b0316846001600160a01b0316148061223057506001600160a01b0380821660009081526004602090815260408083209388168352929052205460ff165b806122545750836001600160a01b031661224984610a97565b6001600160a01b0316145b949350505050565b826001600160a01b031661226f82610f81565b6001600160a01b0316146122965760405163a195bc5360e01b815260040160405180910390fd5b6001600160a01b0382166122bd57604051632c95542760e01b815260040160405180910390fd5b6122c8838383612ad3565b6122d360008261216f565b60008181526002602052604080822080546001600160a01b0319166001600160a01b0386811691821790925591518493918716917fddf252ad1be2c89b69c2b068fc378daa952ba7f163c4a11628f55a4df523b3ef91a4610b45838383612d00565b600061234082610f81565b905061234e81600084612ad3565b61235960008361216f565b60008281526002602052604080822080546001600160a01b0319169055518391906001600160a01b038416907fddf252ad1be2c89b69c2b068fc378daa952ba7f163c4a11628f55a4df523b3ef908390a461130881600084612d00565b6009546040516386bc2be360e01b81526001600160a01b03909116906386bc2be3906123e69084906004016137da565b600060405180830381600087803b15801561240057600080fd5b505af1158015612414573d6000803e3d6000fd5b5050505050565b6001600160a01b03821661244257604051633904578f60e11b815260040160405180910390fd5b6000818152600260205260409020546001600160a01b03161561247857604051632eb5f0c360e21b815260040160405180910390fd5b61248460008383612ad3565b60008181526002602052604080822080546001600160a01b0319166001600160a01b03861690811790915590518392907fddf252ad1be2c89b69c2b068fc378daa952ba7f163c4a11628f55a4df523b3ef908290a461130860008383612d00565b600780546001600160a01b038381166001600160a01b0319831681179093556040519116919082907f8be0079c531659141344cd1fd0a4f28419497f9722a3daafe3b4186f6b6457e090600090a35050565b816001600160a01b0316836001600160a01b031603612569576040516306f8139d60e11b815260040160405180910390fd5b6001600160a01b03838116600081815260046020908152604080832094871680845294825291829020805460ff191686151590811790915591519182527f17307eab39ab6107e8899845ad3d59bd9653f200f220920489ca2b5937696c31910160405180910390a3505050565b600080806000198587098587029250828110838203039150508060000361261057838281612606576126066147d8565b04925050506111fb565b83811061263a57604051631dcf306360e21b81526004810182905260248101859052604401612055565b600084868809600260036001881981018916988990049182028318808302840302808302840302808302840302808302840302808302840302918202909203026000889003889004909101858311909403939093029303949094049190911702949350505050565b6126ad84848461225c565b6126b984848484612ded565b610c78576040516336f57c1b60e11b815260040160405180910390fd5b604051609160f51b6020820152602281018290526060906000906042016040516020818303038152906040529050600061270f82612eef565b905084816040516020016127249291906147ee565b6040516020818303038152906040529250505092915050565b600c5460009060c0830135036127585750608081013561280e565b600b546001600160a01b03161561130857600d5461280b9060808401359061278190600a614901565b600b54600c54604051635268657960e11b815260c08801356004820152602481019190915260a087013560448201526001600160a01b039091169063a4d0caf290606401602060405180830381865afa1580156127e2573d6000803e3d6000fd5b505050506040513d601f19601f82011682018060405250810190612806919061454c565b6125d6565b90505b6000600e816128256101a08601610180870161362a565b6001600160a01b031681526020810191909152604001600090812054915082906128576101a08601610180870161362a565b6001600160a01b031661286d602087018761362a565b6001600160a01b0316036128845790820190612887565b50815b600060446128996101e0880188614305565b90501180156128dd575063b3bcbb7960e01b6128b96101e0880188614305565b6128c89160449160409161434b565b6128d191614375565b6001600160e01b031916145b156129b45760606128f26101e0880188614305565b8101906128ff919061490d565b909550935084925050811590506129825750600954604051634228826f60e11b81523060048201526001600160a01b039091169063845104de90602401608060405180830381865afa158015612959573d6000803e3d6000fd5b505050506040513d601f19601f8201168201806040525081019061297d91906149df565b606001515b1561298c57600091505b8051156129b2576129af84826129aa6101a08b016101808c0161362a565b613087565b93505b505b8215612a1057806129d857604051631b57826960e21b815260040160405180910390fd5b828201600e60006129f16101a08a016101808b0161362a565b6001600160a01b031681526020810191909152604001600020556109fd565b8184146109fd5781600e6000612a2e6101a08a016101808b0161362a565b6001600160a01b03168152602081019190915260400160002055505050505050565b612a5a82826131c9565b5050600591909155600680546001600160a01b0319166001600160a01b03909216919091179055565b60006001600160e01b031982166380ac58cd60e01b1480612ab457506001600160e01b03198216635b5e139f60e01b145b8061081c57506301ffc9a760e01b6001600160e01b031983161461081c565b6001600160a01b03831615610b455760095460405163b67cb04760e01b8152306004820152602481018390526000916001600160a01b03169063b67cb0479060440161018060405180830381865afa158015612b33573d6000803e3d6000fd5b505050506040513d601f19601f82011682018060405250810190612b579190614a63565b905080610160015115612c1c57600a546005546040516321d1336160e11b815260048101919091526000916001600160a01b0316906343a266c29060240161012060405180830381865afa158015612bb3573d6000803e3d6000fd5b505050506040513d601f19601f82011682018060405250810190612bd79190614604565b90506001600160a01b03841615801590612bfc575061010081015160f41c6001908116145b15612c1a576040516318cdaf9760e01b815260040160405180910390fd5b505b6009546040516308ed6c0160e41b8152306004820152602481018490526000916001600160a01b031690638ed6c01090604401602060405180830381865afa158015612c6c573d6000803e3d6000fd5b505050506040513d601f19601f82011682018060405250810190612c909190614471565b6001600160a01b031603610c7857600954604051638cec7d3960e01b8152600481018490526001600160a01b03868116602483015290911690638cec7d3990604401600060405180830381600087803b158015612cec57600080fd5b505af11580156109fa573d6000803e3d6000fd5b60095460405163b67cb04760e01b8152306004820152602481018390526000916001600160a01b03169063b67cb0479060440161018060405180830381865afa158015612d51573d6000803e3d6000fd5b505050506040513d601f19601f82011682018060405250810190612d759190614a63565b60095481516040516330b157e560e21b815260048101919091526001600160a01b038781166024830152868116604483015292935091169063c2c55f9490606401600060405180830381600087803b158015612dd057600080fd5b505af1158015612de4573d6000803e3d6000fd5b50505050610c78565b60006001600160a01b0384163b15612ee457604051630a85bd0160e11b81526001600160a01b0385169063150b7a0290612e31903390899088908890600401614b10565b6020604051808303816000875af1925050508015612e6c575060408051601f3d908101601f19168201909252612e6991810190614b4d565b60015b612eca573d808015612e9a576040519150601f19603f3d011682016040523d82523d6000602084013e612e9f565b606091505b508051600003612ec2576040516336f57c1b60e11b815260040160405180910390fd5b805181602001fd5b6001600160e01b031916630a85bd0160e11b149050612254565b506001949350505050565b60608151600003612f0e57505060408051600081526020810190915290565b60408051602e8082526105e08201909252600091602082016105c080368337019050509050600081600081518110612f4857612f48614059565b60ff90921660209283029190910190910152825160019060005b81811015613063576000868281518110612f7e57612f7e614059565b016020015160f81c905060005b8460ff16811015613008576008868281518110612faa57612faa614059565b602002602001015160ff16901b82612fc291906145f1565b9150612fcf603a83614b6a565b868281518110612fe157612fe1614059565b60ff90921660209283029190910190910152612ffe603a83614b7e565b9150600101612f8b565b505b801561305a5761301b603a82614b6a565b858560ff168151811061303057613030614059565b60ff90921660209283029190910190910152600190930192613053603a82614b7e565b905061300a565b50600101612f62565b5061307e61307961307485856131e2565b613289565b61332b565b95945050505050565b60095460405163eaa19ab360e01b81526000916060916001600160a01b039091169063eaa19ab3906130c190889088908790600401614b92565b6000604051808303816000875af11580156130e0573d6000803e3d6000fd5b505050506040513d6000823e601f3d908101601f1916820160405261310891908101906144eb565b81519093509091506000805b828110156131be5783818151811061312e5761312e614059565b60200260200101519150613142868361241b565b856001600160a01b031687828151811061315e5761315e614059565b602002602001015161ffff16837f598baf7bf150ca2f42be9e9f8f55e81d45f5715c3ff22bf46d697fabec7f31d68b336040516131ae9291909182526001600160a01b0316602082015260400190565b60405180910390a4600101613114565b505050509392505050565b60006131d58382614c35565b506001610b458282614c35565b606060008260ff166001600160401b03811115613201576132016137ed565b60405190808252806020026020018201604052801561322a578160200160208202803683370190505b50905060005b8360ff168110156132815784818151811061324d5761324d614059565b602002602001015182828151811061326757613267614059565b60ff90921660209283029190910190910152600101613230565b509392505050565b80516060906000816001600160401b038111156132a8576132a86137ed565b6040519080825280602002602001820160405280156132d1578160200160208202803683370190505b50905060005b82811015613281578481600187510303815181106132f7576132f7614059565b602002602001015182828151811061331157613311614059565b60ff909216602092830291909101909101526001016132d7565b80516060906000816001600160401b0381111561334a5761334a6137ed565b6040519080825280601f01601f191660200182016040528015613374576020820181803683370190505b50905060005b82811015613281576040518060600160405280603a8152602001614cf5603a91398582815181106133ad576133ad614059565b602002602001015160ff16815181106133c8576133c8614059565b602001015160f81c60f81b8282815181106133e5576133e5614059565b60200101906001600160f81b031916908160001a90535060010161337a565b6001600160e01b03198116811461206757600080fd5b60006020828403121561342c57600080fd5b81356111fb81613404565b60008083601f84011261344957600080fd5b5081356001600160401b0381111561346057600080fd5b6020830191508360208260051b850101111561347b57600080fd5b9250929050565b6000806000806040858703121561349857600080fd5b84356001600160401b03808211156134af57600080fd5b818701915087601f8301126134c357600080fd5b8135818111156134d257600080fd5b886020610160830285010111156134e857600080fd5b60209283019650945090860135908082111561350357600080fd5b5061351087828801613437565b95989497509550505050565b60005b8381101561353757818101518382015260200161351f565b50506000910152565b6000815180845261355881602086016020860161351c565b601f01601f19169290920160200192915050565b6020815260006111fb6020830184613540565b60006020828403121561359157600080fd5b5035919050565b6001600160a01b038116811461206757600080fd5b80356135b881613598565b919050565b600080604083850312156135d057600080fd5b82356135db81613598565b946020939093013593505050565b6000806000606084860312156135fe57600080fd5b833561360981613598565b9250602084013561361981613598565b929592945050506040919091013590565b60006020828403121561363c57600080fd5b81356111fb81613598565b6000806020838503121561365a57600080fd5b82356001600160401b038082111561367157600080fd5b818501915085601f83011261368557600080fd5b81358181111561369457600080fd5b8660208260061b85010111156136a957600080fd5b60209290920196919550909350505050565b60006101e082840312156136ce57600080fd5b50919050565b6000602082840312156136e657600080fd5b81356001600160401b038111156136fc57600080fd5b612254848285016136bb565b6000806020838503121561371b57600080fd5b82356001600160401b0381111561373157600080fd5b61373d85828601613437565b90969095509350505050565b60008060006040848603121561375e57600080fd5b83356001600160401b0381111561377457600080fd5b61378086828701613437565b909450925050602084013561379481613598565b809150509250925092565b600081518084526020808501945080840160005b838110156137cf578151875295820195908201906001016137b3565b509495945050505050565b6020815260006111fb602083018461379f565b634e487b7160e01b600052604160045260246000fd5b604051608081016001600160401b0381118282101715613825576138256137ed565b60405290565b60405161016081016001600160401b0381118282101715613825576138256137ed565b60405161012081016001600160401b0381118282101715613825576138256137ed565b60405161018081016001600160401b0381118282101715613825576138256137ed565b604051601f8201601f191681016001600160401b03811182821017156138bc576138bc6137ed565b604052919050565b60006001600160401b038211156138dd576138dd6137ed565b5060051b60200190565b600082601f8301126138f857600080fd5b8135602061390d613908836138c4565b613894565b82815260059290921b8401810191818101908684111561392c57600080fd5b8286015b848110156139475780358352918301918301613930565b509695505050505050565b6000806040838503121561396557600080fd5b82356001600160401b038082111561397c57600080fd5b613988868387016138e7565b9350602085013591508082111561399e57600080fd5b506139ab858286016136bb565b9150509250929050565b600080602083850312156139c857600080fd5b82356001600160401b03808211156139df57600080fd5b818501915085601f8301126139f357600080fd5b813581811115613a0257600080fd5b8660208285010111156136a957600080fd5b801515811461206757600080fd5b80356135b881613a14565b60008060408385031215613a4057600080fd5b8235613a4b81613598565b91506020830135613a5b81613a14565b809150509250929050565b83815260006020606081840152613a806060840186613540565b83810360408581019190915285518083528387019284019060005b81811015613ac957845180516001600160a01b03168452860151868401529385019391830191600101613a9b565b50909998505050505050505050565b60008060408385031215613aeb57600080fd5b50508035926020909101359150565b60006001600160401b03821115613b1357613b136137ed565b50601f01601f191660200190565b6000613b2f61390884613afa565b9050828152838383011115613b4357600080fd5b828260208301376000602084830101529392505050565b60008060008060808587031215613b7057600080fd5b8435613b7b81613598565b93506020850135613b8b81613598565b92506040850135915060608501356001600160401b03811115613bad57600080fd5b8501601f81018713613bbe57600080fd5b613bcd87823560208401613b21565b91505092959194509250565b600060208284031215613beb57600080fd5b81356001600160401b03811115613c0157600080fd5b82016101a081850312156111fb57600080fd5b600060208284031215613c2657600080fd5b81356001600160401b03811115613c3c57600080fd5b820161020081850312156111fb57600080fd5b600082601f830112613c6057600080fd5b6111fb83833560208501613b21565b803569ffffffffffffffffffff811681146135b857600080fd5b803565ffffffffffff811681146135b857600080fd5b803564ffffffffff811681146135b857600080fd5b803561ffff811681146135b857600080fd5b803560ff811681146135b857600080fd5b60006080808385031215613cea57600080fd5b613cf2613803565b915082356001600160401b03811115613d0a57600080fd5b8301601f81018513613d1b57600080fd5b80356020613d2b613908836138c4565b8281526101609283028401820192828201919089851115613d4b57600080fd5b948301945b84861015613e2c5780868b031215613d685760008081fd5b613d7061382b565b613d7987613c6f565b8152613d86858801613c89565b858201526040613d97818901613c9f565b908201526060613da8888201613cb4565b90820152613db7878901613cb4565b8882015260a0613dc88189016135ad565b9082015260c0878101359082015260e0613de3818901613cc6565b90820152610100613df5888201613a22565b90820152610120613e07888201613a22565b90820152610140613e19888201613a22565b9082015283529485019491830191613d50565b50865250858101359085015250505060408083013590820152613e51606083016135ad565b606082015292915050565b600060808284031215613e6e57600080fd5b613e76613803565b90508135613e8381613a14565b81526020820135613e9381613a14565b60208201526040820135613ea681613a14565b60408201526060820135613e5181613a14565b60008060008060008060008060008060006101c08c8e031215613edb57600080fd5b8b359a50613eeb60208d016135ad565b99506001600160401b038060408e01351115613f0657600080fd5b613f168e60408f01358f01613c4f565b99508060608e01351115613f2957600080fd5b613f398e60608f01358f01613c4f565b9850613f4760808e016135ad565b97508060a08e01351115613f5a57600080fd5b613f6a8e60a08f01358f01613c4f565b9650613f7860c08e016135ad565b95508060e08e01351115613f8b57600080fd5b613f9b8e60e08f01358f01613c4f565b9450806101008e01351115613faf57600080fd5b50613fc18d6101008e01358e01613cd7565b9250613fd06101208d016135ad565b9150613fe08d6101408e01613e5c565b90509295989b509295989b9093969950565b6000806040838503121561400557600080fd5b823561401081613598565b91506020830135613a5b81613598565b6020808252810182905260006001600160fb1b0383111561404057600080fd5b8260051b80856040850137919091016040019392505050565b634e487b7160e01b600052603260045260246000fd5b61408c8261407c83613c6f565b69ffffffffffffffffffff169052565b61409860208201613c89565b65ffffffffffff1660208301526140b160408201613c9f565b64ffffffffff1660408301526140c960608201613cb4565b61ffff1660608301526140de60808201613cb4565b61ffff1660808301526140f360a082016135ad565b6001600160a01b031660a083015260c0818101359083015261411760e08201613cc6565b60ff1660e083015261010061412d828201613a22565b151590830152610120614141828201613a22565b151590830152610140614155828201613a22565b80151584830152610c78565b6020808252810182905260008360408301825b8581101561419a57614186828461406f565b610160928301929190910190600101614174565b5095945050505050565b600082601f8301126141b557600080fd5b815160206141c5613908836138c4565b82815260059290921b840181019181810190868411156141e457600080fd5b8286015b8481101561394757805183529183019183016141e8565b60006020828403121561421157600080fd5b81516001600160401b0381111561422757600080fd5b612254848285016141a4565b6101808101614242828561406f565b6001600160a01b03929092166101609190910152919050565b600181811c9082168061426f57607f821691505b6020821081036136ce57634e487b7160e01b600052602260045260246000fd5b6000604082840312156142a157600080fd5b604051604081018181106001600160401b03821117156142c3576142c36137ed565b604052823581526020928301359281019290925250919050565b80516135b881613a14565b6000602082840312156142fa57600080fd5b81516111fb81613a14565b6000808335601e1984360301811261431c57600080fd5b8301803591506001600160401b0382111561433657600080fd5b60200191503681900382131561347b57600080fd5b6000808585111561435b57600080fd5b8386111561436857600080fd5b5050820193919092039150565b6001600160e01b0319813581811691600485101561439d5780818660040360031b1b83161692505b505092915050565b6000806000606084860312156143ba57600080fd5b8335925060208401356143cc81613404565b915060408401356001600160401b038111156143e757600080fd5b6143f3868287016138e7565b9150509250925092565b60008235603e1983360301811261441357600080fd5b9190910192915050565b6000808335601e1984360301811261443457600080fd5b8301803591506001600160401b0382111561444e57600080fd5b6020019150600581901b360382131561347b57600080fd5b80516135b881613598565b60006020828403121561448357600080fd5b81516111fb81613598565b84815260606020808301829052908201849052600090859060808401835b878110156144d35761ffff6144c085613cb4565b16825292820192908201906001016144ac565b50809350505050821515604083015295945050505050565b600080604083850312156144fe57600080fd5b82516001600160401b0381111561451457600080fd5b614520858286016141a4565b925050602083015190509250929050565b60006020828403121561454357600080fd5b6111fb82613cb4565b60006020828403121561455e57600080fd5b5051919050565b6001600160a01b03831681526040602082018190526000906122549083018461379f565b60208152816020820152818360408301376000818301604090810191909152601f909201601f19160101919050565b8183823760009101908152919050565b634e487b7160e01b600052601160045260246000fd5b8181038181111561081c5761081c6145c8565b8082018082111561081c5761081c6145c8565b6000610120828403121561461757600080fd5b61461f61384e565b825181526020830151602082015260408301516040820152606083015160608201526080830151608082015260a083015160a082015260c083015160c082015261466b60e08401614466565b60e0820152610100928301519281019290925250919050565b60006020828403121561469657600080fd5b81516001600160401b038111156146ac57600080fd5b8201601f810184136146bd57600080fd5b80516146cb61390882613afa565b8181528560208385010111156146e057600080fd5b61307e82602083016020860161351c565b602080825282518282018190526000919060409081850190868401855b828110156147cb578151805169ffffffffffffffffffff1685528681015165ffffffffffff16878601528581015164ffffffffff168686015260608082015161ffff908116918701919091526080808301519091169086015260a0808201516001600160a01b03169086015260c0808201519086015260e08082015160ff1690860152610100808201511515908601526101208082015115159086015261014090810151151590850152610160909301929085019060010161470e565b5091979650505050505050565b634e487b7160e01b600052601260045260246000fd5b6000835161480081846020880161351c565b83519083019061481481836020880161351c565b01949350505050565b600181815b8085111561485857816000190482111561483e5761483e6145c8565b8085161561484b57918102915b93841c9390800290614822565b509250929050565b60008261486f5750600161081c565b8161487c5750600061081c565b8160018114614892576002811461489c576148b8565b600191505061081c565b60ff8411156148ad576148ad6145c8565b50506001821b61081c565b5060208310610133831016604e8410600b84101617156148db575081810a61081c565b6148e5838361481d565b80600019048211156148f9576148f96145c8565b029392505050565b60006111fb8383614860565b600080600080600060a0868803121561492557600080fd5b853594506020808701359450604087013561493f81613404565b9350606087013561494f81613a14565b925060808701356001600160401b0381111561496a57600080fd5b8701601f8101891361497b57600080fd5b8035614989613908826138c4565b81815260059190911b8201830190838101908b8311156149a857600080fd5b928401925b828410156149cd576149be84613cb4565b825292840192908401906149ad565b80955050505050509295509295909350565b6000608082840312156149f157600080fd5b604051608081018181106001600160401b0382111715614a1357614a136137ed565b6040528251614a2181613a14565b81526020830151614a3181613a14565b60208201526040830151614a4481613a14565b60408201526060830151614a5781613a14565b60608201529392505050565b60006101808284031215614a7657600080fd5b614a7e613871565b825181526020830151602082015260408301516040820152606083015160608201526080830151608082015260a083015160a082015260c083015160c0820152614aca60e08401614466565b60e082015261010083810151908201526101208084015190820152610140614af38185016142dd565b90820152610160614b058482016142dd565b908201529392505050565b6001600160a01b0385811682528416602082015260408101839052608060608201819052600090614b4390830184613540565b9695505050505050565b600060208284031215614b5f57600080fd5b81516111fb81613404565b600082614b7957614b796147d8565b500690565b600082614b8d57614b8d6147d8565b500490565b6000606082018583526020606081850152818651808452608086019150828801935060005b81811015614bd757845161ffff1683529383019391830191600101614bb7565b50508093505050508215156040830152949350505050565b601f821115610b4557600081815260208120601f850160051c81016020861015614c165750805b601f850160051c820191505b818110156109fd57828155600101614c22565b81516001600160401b03811115614c4e57614c4e6137ed565b614c6281614c5c845461425b565b84614bef565b602080601f831160018114614c975760008415614c7f5750858301515b600019600386901b1c1916600185901b1785556109fd565b600085815260208120601f198616915b82811015614cc657888601518255948401946001909101908401614ca7565b5085821015614ce45787850151600019600388901b60f8161c191681555b5050505050600190811b0190555056fe31323334353637383941424344454647484a4b4c4d4e505152535455565758595a6162636465666768696a6b6d6e6f707172737475767778797aa26469706673582212204183fdffab2d0ecd3ec71329a2739299c305b1d977ba084a61a83b287a023bd764736f6c63430008100033",
    "linkReferences": {}
  },
  "methodIdentifiers": {
    "adjustTiers((uint80,uint48,uint40,uint16,uint16,address,bytes32,uint8,bool,bool,bool)[],uint256[])": "0575ea7a",
    "approve(address,uint256)": "095ea7b3",
    "balanceOf(address)": "70a08231",
    "codeOrigin()": "1d153ca4",
    "contractURI()": "e8a3d485",
    "creditsOf(address)": "245a45b5",
    "didPay((address,uint256,uint256,(address,uint256,uint256,uint256),(address,uint256,uint256,uint256),uint256,address,bool,string,bytes))": "da9ee8b7",
    "didRedeem((address,uint256,uint256,uint256,(address,uint256,uint256,uint256),(address,uint256,uint256,uint256),address,string,bytes))": "2b13c58f",
    "directory()": "c41c2f24",
    "firstOwnerOf(uint256)": "54c6d1f5",
    "fundingCycleStore()": "557e7155",
    "getApproved(uint256)": "081812fc",
    "initialize(uint256,address,string,string,address,string,address,string,((uint80,uint48,uint40,uint16,uint16,address,bytes32,uint8,bool,bool,bool)[],uint256,uint256,address),address,(bool,bool,bool,bool))": "e8ed5d67",
    "isApprovedForAll(address,address)": "e985e9c5",
    "mintFor((uint16[],address)[])": "36c1a93b",
    "mintFor(uint16[],address)": "6ac6d941",
    "mintReservesFor((uint256,uint256)[])": "2a596e53",
    "mintReservesFor(uint256,uint256)": "aa4fb15b",
    "name()": "06fdde03",
    "owner()": "8da5cb5b",
    "ownerOf(uint256)": "6352211e",
    "payParams((address,address,(address,uint256,uint256,uint256),uint256,uint256,address,uint256,uint256,string,bytes))": "d46cf171",
    "prices()": "d3419bf3",
    "pricingCurrency()": "64640c1e",
    "pricingDecimals()": "4ecba625",
    "projectId()": "3fafa127",
    "redeemParams((address,address,uint256,uint256,uint256,uint256,uint256,(address,uint256,uint256,uint256),bool,uint256,string,bytes))": "a51cfd18",
    "redemptionWeightOf(uint256[],(address,address,uint256,uint256,uint256,uint256,uint256,(address,uint256,uint256,uint256),bool,uint256,string,bytes))": "7ba62bf9",
    "renounceOwnership()": "715018a6",
    "safeTransferFrom(address,address,uint256)": "42842e0e",
    "safeTransferFrom(address,address,uint256,bytes)": "b88d4fde",
    "setApprovalForAll(address,bool)": "a22cb465",
    "setBaseUri(string)": "a0bcfc7f",
    "setContractUri(string)": "ccb4807b",
    "setDefaultReservedTokenBeneficiary(address)": "df487e26",
    "setTokenUriResolver(address)": "2407497e",
    "store()": "975057e7",
    "supportsInterface(bytes4)": "01ffc9a7",
    "symbol()": "95d89b41",
    "tokenURI(uint256)": "c87b56dd",
    "totalRedemptionWeight((address,address,uint256,uint256,uint256,uint256,uint256,(address,uint256,uint256,uint256),bool,uint256,string,bytes))": "9494bf72",
    "transferFrom(address,address,uint256)": "23b872dd",
    "transferOwnership(address)": "f2fde38b"
  },
  "id": 2
}