{
  "abi": [
    {
      "inputs": [],
      "stateMutability": "nonpayable",
      "type": "constructor"
    },
    {
      "inputs": [],
      "name": "ALEADY_MINTED",
      "type": "error"
    },
    {
      "inputs": [],
      "name": "APPROVAL_TO_CURRENT_OWNER",
      "type": "error"
    },
    {
      "inputs": [],
      "name": "APPROVE_TO_CALLER",
      "type": "error"
    },
    {
      "inputs": [],
      "name": "CALLER_NOT_OWNER_OR_APPROVED",
      "type": "error"
    },
    {
      "inputs": [],
      "name": "INCORRECT_OWNER",
      "type": "error"
    },
    {
      "inputs": [],
      "name": "INVALID_PAYMENT_EVENT",
      "type": "error"
    },
    {
      "inputs": [],
      "name": "INVALID_REDEMPTION_EVENT",
      "type": "error"
    },
    {
      "inputs": [],
      "name": "INVALID_REDEMPTION_METADATA",
      "type": "error"
    },
    {
      "inputs": [],
      "name": "INVALID_TOKEN_ID",
      "type": "error"
    },
    {
      "inputs": [],
      "name": "MINT_TO_ZERO",
      "type": "error"
    },
    {
      "inputs": [],
      "name": "NOT_AVAILABLE",
      "type": "error"
    },
    {
      "inputs": [],
      "name": "OVERSPENDING",
      "type": "error"
    },
    {
      "inputs": [
        {
          "internalType": "uint256",
          "name": "prod1",
          "type": "uint256"
        },
        {
          "internalType": "uint256",
          "name": "denominator",
          "type": "uint256"
        }
      ],
      "name": "PRBMath__MulDivOverflow",
      "type": "error"
    },
    {
      "inputs": [],
      "name": "PRICING_RESOLVER_CHANGES_PAUSED",
      "type": "error"
    },
    {
      "inputs": [],
      "name": "RESERVED_TOKEN_MINTING_PAUSED",
      "type": "error"
    },
    {
      "inputs": [],
      "name": "TRANSFERS_PAUSED",
      "type": "error"
    },
    {
      "inputs": [],
      "name": "TRANSFER_TO_NON_IMPLEMENTER",
      "type": "error"
    },
    {
      "inputs": [],
      "name": "TRANSFER_TO_ZERO_ADDRESS",
      "type": "error"
    },
    {
      "inputs": [],
      "name": "UNAUTHORIZED",
      "type": "error"
    },
    {
      "inputs": [],
      "name": "UNEXPECTED_TOKEN_REDEEMED",
      "type": "error"
    },
    {
      "anonymous": false,
      "inputs": [
        {
          "indexed": true,
          "internalType": "uint256",
          "name": "tierId",
          "type": "uint256"
        },
        {
          "components": [
            {
              "internalType": "uint256",
              "name": "contributionFloor",
              "type": "uint256"
            },
            {
              "internalType": "uint256",
              "name": "lockedUntil",
              "type": "uint256"
            },
            {
              "internalType": "uint256",
              "name": "initialQuantity",
              "type": "uint256"
            },
            {
              "internalType": "uint256",
              "name": "votingUnits",
              "type": "uint256"
            },
            {
              "internalType": "uint256",
              "name": "reservedRate",
              "type": "uint256"
            },
            {
              "internalType": "address",
              "name": "reservedTokenBeneficiary",
              "type": "address"
            },
            {
              "internalType": "bytes32",
              "name": "encodedIPFSUri",
              "type": "bytes32"
            },
            {
              "internalType": "bool",
              "name": "allowManualMint",
              "type": "bool"
            },
            {
              "internalType": "bool",
              "name": "shouldUseBeneficiaryAsDefault",
              "type": "bool"
            }
          ],
          "indexed": false,
          "internalType": "struct JB721TierParams",
          "name": "data",
          "type": "tuple"
        },
        {
          "indexed": false,
          "internalType": "address",
          "name": "caller",
          "type": "address"
        }
      ],
      "name": "AddTier",
      "type": "event"
    },
    {
      "anonymous": false,
      "inputs": [
        {
          "indexed": true,
          "internalType": "address",
          "name": "owner",
          "type": "address"
        },
        {
          "indexed": true,
          "internalType": "address",
          "name": "approved",
          "type": "address"
        },
        {
          "indexed": true,
          "internalType": "uint256",
          "name": "tokenId",
          "type": "uint256"
        }
      ],
      "name": "Approval",
      "type": "event"
    },
    {
      "anonymous": false,
      "inputs": [
        {
          "indexed": true,
          "internalType": "address",
          "name": "owner",
          "type": "address"
        },
        {
          "indexed": true,
          "internalType": "address",
          "name": "operator",
          "type": "address"
        },
        {
          "indexed": false,
          "internalType": "bool",
          "name": "approved",
          "type": "bool"
        }
      ],
      "name": "ApprovalForAll",
      "type": "event"
    },
    {
      "anonymous": false,
      "inputs": [
        {
          "indexed": true,
          "internalType": "uint256",
          "name": "tokenId",
          "type": "uint256"
        },
        {
          "indexed": true,
          "internalType": "uint256",
          "name": "tierId",
          "type": "uint256"
        },
        {
          "indexed": true,
          "internalType": "address",
          "name": "beneficiary",
          "type": "address"
        },
        {
          "indexed": false,
          "internalType": "uint256",
          "name": "totalAmountContributed",
          "type": "uint256"
        },
        {
          "indexed": false,
          "internalType": "address",
          "name": "caller",
          "type": "address"
        }
      ],
      "name": "Mint",
      "type": "event"
    },
    {
      "anonymous": false,
      "inputs": [
        {
          "indexed": true,
          "internalType": "uint256",
          "name": "tokenId",
          "type": "uint256"
        },
        {
          "indexed": true,
          "internalType": "uint256",
          "name": "tierId",
          "type": "uint256"
        },
        {
          "indexed": true,
          "internalType": "address",
          "name": "beneficiary",
          "type": "address"
        },
        {
          "indexed": false,
          "internalType": "address",
          "name": "caller",
          "type": "address"
        }
      ],
      "name": "MintReservedToken",
      "type": "event"
    },
    {
      "anonymous": false,
      "inputs": [
        {
          "indexed": true,
          "internalType": "address",
          "name": "previousOwner",
          "type": "address"
        },
        {
          "indexed": true,
          "internalType": "address",
          "name": "newOwner",
          "type": "address"
        }
      ],
      "name": "OwnershipTransferred",
      "type": "event"
    },
    {
      "anonymous": false,
      "inputs": [
        {
          "indexed": true,
          "internalType": "uint256",
          "name": "tierId",
          "type": "uint256"
        },
        {
          "indexed": false,
          "internalType": "address",
          "name": "caller",
          "type": "address"
        }
      ],
      "name": "RemoveTier",
      "type": "event"
    },
    {
      "anonymous": false,
      "inputs": [
        {
          "indexed": true,
          "internalType": "string",
          "name": "baseUri",
          "type": "string"
        },
        {
          "indexed": false,
          "internalType": "address",
          "name": "caller",
          "type": "address"
        }
      ],
      "name": "SetBaseUri",
      "type": "event"
    },
    {
      "anonymous": false,
      "inputs": [
        {
          "indexed": true,
          "internalType": "string",
          "name": "contractUri",
          "type": "string"
        },
        {
          "indexed": false,
          "internalType": "address",
          "name": "caller",
          "type": "address"
        }
      ],
      "name": "SetContractUri",
      "type": "event"
    },
    {
      "anonymous": false,
      "inputs": [
        {
          "indexed": true,
          "internalType": "address",
          "name": "beneficiary",
          "type": "address"
        },
        {
          "indexed": false,
          "internalType": "address",
          "name": "caller",
          "type": "address"
        }
      ],
      "name": "SetDefaultReservedTokenBeneficiary",
      "type": "event"
    },
    {
      "anonymous": false,
      "inputs": [
        {
          "indexed": true,
          "internalType": "contract IJBTokenUriResolver",
          "name": "newResolver",
          "type": "address"
        },
        {
          "indexed": false,
          "internalType": "address",
          "name": "caller",
          "type": "address"
        }
      ],
      "name": "SetTokenUriResolver",
      "type": "event"
    },
    {
      "anonymous": false,
      "inputs": [
        {
          "indexed": true,
          "internalType": "address",
          "name": "from",
          "type": "address"
        },
        {
          "indexed": true,
          "internalType": "address",
          "name": "to",
          "type": "address"
        },
        {
          "indexed": true,
          "internalType": "uint256",
          "name": "tokenId",
          "type": "uint256"
        }
      ],
      "name": "Transfer",
      "type": "event"
    },
    {
      "inputs": [
        {
          "components": [
            {
              "internalType": "uint256",
              "name": "contributionFloor",
              "type": "uint256"
            },
            {
              "internalType": "uint256",
              "name": "lockedUntil",
              "type": "uint256"
            },
            {
              "internalType": "uint256",
              "name": "initialQuantity",
              "type": "uint256"
            },
            {
              "internalType": "uint256",
              "name": "votingUnits",
              "type": "uint256"
            },
            {
              "internalType": "uint256",
              "name": "reservedRate",
              "type": "uint256"
            },
            {
              "internalType": "address",
              "name": "reservedTokenBeneficiary",
              "type": "address"
            },
            {
              "internalType": "bytes32",
              "name": "encodedIPFSUri",
              "type": "bytes32"
            },
            {
              "internalType": "bool",
              "name": "allowManualMint",
              "type": "bool"
            },
            {
              "internalType": "bool",
              "name": "shouldUseBeneficiaryAsDefault",
              "type": "bool"
            }
          ],
          "internalType": "struct JB721TierParams[]",
          "name": "_tiersToAdd",
          "type": "tuple[]"
        },
        {
          "internalType": "uint256[]",
          "name": "_tierIdsToRemove",
          "type": "uint256[]"
        }
      ],
      "name": "adjustTiers",
      "outputs": [],
      "stateMutability": "nonpayable",
      "type": "function"
    },
    {
      "inputs": [
        {
          "internalType": "address",
          "name": "to",
          "type": "address"
        },
        {
          "internalType": "uint256",
          "name": "tokenId",
          "type": "uint256"
        }
      ],
      "name": "approve",
      "outputs": [],
      "stateMutability": "nonpayable",
      "type": "function"
    },
    {
      "inputs": [
        {
          "internalType": "address",
          "name": "_owner",
          "type": "address"
        }
      ],
      "name": "balanceOf",
      "outputs": [
        {
          "internalType": "uint256",
          "name": "balance",
          "type": "uint256"
        }
      ],
      "stateMutability": "view",
      "type": "function"
    },
    {
      "inputs": [],
      "name": "contractURI",
      "outputs": [
        {
          "internalType": "string",
          "name": "",
          "type": "string"
        }
      ],
      "stateMutability": "view",
      "type": "function"
    },
    {
      "inputs": [
        {
          "internalType": "address",
          "name": "",
          "type": "address"
        }
      ],
      "name": "creditsOf",
      "outputs": [
        {
          "internalType": "uint256",
          "name": "",
          "type": "uint256"
        }
      ],
      "stateMutability": "view",
      "type": "function"
    },
    {
      "inputs": [
        {
          "components": [
            {
              "internalType": "address",
              "name": "payer",
              "type": "address"
            },
            {
              "internalType": "uint256",
              "name": "projectId",
              "type": "uint256"
            },
            {
              "internalType": "uint256",
              "name": "currentFundingCycleConfiguration",
              "type": "uint256"
            },
            {
              "components": [
                {
                  "internalType": "address",
                  "name": "token",
                  "type": "address"
                },
                {
                  "internalType": "uint256",
                  "name": "value",
                  "type": "uint256"
                },
                {
                  "internalType": "uint256",
                  "name": "decimals",
                  "type": "uint256"
                },
                {
                  "internalType": "uint256",
                  "name": "currency",
                  "type": "uint256"
                }
              ],
              "internalType": "struct JBTokenAmount",
              "name": "amount",
              "type": "tuple"
            },
            {
              "components": [
                {
                  "internalType": "address",
                  "name": "token",
                  "type": "address"
                },
                {
                  "internalType": "uint256",
                  "name": "value",
                  "type": "uint256"
                },
                {
                  "internalType": "uint256",
                  "name": "decimals",
                  "type": "uint256"
                },
                {
                  "internalType": "uint256",
                  "name": "currency",
                  "type": "uint256"
                }
              ],
              "internalType": "struct JBTokenAmount",
              "name": "forwardedAmount",
              "type": "tuple"
            },
            {
              "internalType": "uint256",
              "name": "projectTokenCount",
              "type": "uint256"
            },
            {
              "internalType": "address",
              "name": "beneficiary",
              "type": "address"
            },
            {
              "internalType": "bool",
              "name": "preferClaimedTokens",
              "type": "bool"
            },
            {
              "internalType": "string",
              "name": "memo",
              "type": "string"
            },
            {
              "internalType": "bytes",
              "name": "metadata",
              "type": "bytes"
            }
          ],
          "internalType": "struct JBDidPayData",
          "name": "_data",
          "type": "tuple"
        }
      ],
      "name": "didPay",
      "outputs": [],
      "stateMutability": "payable",
      "type": "function"
    },
    {
      "inputs": [
        {
          "components": [
            {
              "internalType": "address",
              "name": "holder",
              "type": "address"
            },
            {
              "internalType": "uint256",
              "name": "projectId",
              "type": "uint256"
            },
            {
              "internalType": "uint256",
              "name": "currentFundingCycleConfiguration",
              "type": "uint256"
            },
            {
              "internalType": "uint256",
              "name": "projectTokenCount",
              "type": "uint256"
            },
            {
              "components": [
                {
                  "internalType": "address",
                  "name": "token",
                  "type": "address"
                },
                {
                  "internalType": "uint256",
                  "name": "value",
                  "type": "uint256"
                },
                {
                  "internalType": "uint256",
                  "name": "decimals",
                  "type": "uint256"
                },
                {
                  "internalType": "uint256",
                  "name": "currency",
                  "type": "uint256"
                }
              ],
              "internalType": "struct JBTokenAmount",
              "name": "reclaimedAmount",
              "type": "tuple"
            },
            {
              "components": [
                {
                  "internalType": "address",
                  "name": "token",
                  "type": "address"
                },
                {
                  "internalType": "uint256",
                  "name": "value",
                  "type": "uint256"
                },
                {
                  "internalType": "uint256",
                  "name": "decimals",
                  "type": "uint256"
                },
                {
                  "internalType": "uint256",
                  "name": "currency",
                  "type": "uint256"
                }
              ],
              "internalType": "struct JBTokenAmount",
              "name": "forwardedAmount",
              "type": "tuple"
            },
            {
              "internalType": "address payable",
              "name": "beneficiary",
              "type": "address"
            },
            {
              "internalType": "string",
              "name": "memo",
              "type": "string"
            },
            {
              "internalType": "bytes",
              "name": "metadata",
              "type": "bytes"
            }
          ],
          "internalType": "struct JBDidRedeemData",
          "name": "_data",
          "type": "tuple"
        }
      ],
      "name": "didRedeem",
      "outputs": [],
      "stateMutability": "payable",
      "type": "function"
    },
    {
      "inputs": [],
      "name": "directory",
      "outputs": [
        {
          "internalType": "contract IJBDirectory",
          "name": "",
          "type": "address"
        }
      ],
      "stateMutability": "view",
      "type": "function"
    },
    {
      "inputs": [
        {
          "internalType": "uint256",
          "name": "_tokenId",
          "type": "uint256"
        }
      ],
      "name": "firstOwnerOf",
      "outputs": [
        {
          "internalType": "address",
          "name": "",
          "type": "address"
        }
      ],
      "stateMutability": "view",
      "type": "function"
    },
    {
      "inputs": [],
      "name": "fundingCycleStore",
      "outputs": [
        {
          "internalType": "contract IJBFundingCycleStore",
          "name": "",
          "type": "address"
        }
      ],
      "stateMutability": "view",
      "type": "function"
    },
    {
      "inputs": [
        {
          "internalType": "uint256",
          "name": "tokenId",
          "type": "uint256"
        }
      ],
      "name": "getApproved",
      "outputs": [
        {
          "internalType": "address",
          "name": "",
          "type": "address"
        }
      ],
      "stateMutability": "view",
      "type": "function"
    },
    {
      "inputs": [
        {
          "internalType": "uint256",
          "name": "_projectId",
          "type": "uint256"
        },
        {
          "internalType": "contract IJBDirectory",
          "name": "_directory",
          "type": "address"
        },
        {
          "internalType": "string",
          "name": "_name",
          "type": "string"
        },
        {
          "internalType": "string",
          "name": "_symbol",
          "type": "string"
        },
        {
          "internalType": "contract IJBFundingCycleStore",
          "name": "_fundingCycleStore",
          "type": "address"
        },
        {
          "internalType": "string",
          "name": "_baseUri",
          "type": "string"
        },
        {
          "internalType": "contract IJBTokenUriResolver",
          "name": "_tokenUriResolver",
          "type": "address"
        },
        {
          "internalType": "string",
          "name": "_contractUri",
          "type": "string"
        },
        {
          "components": [
            {
              "components": [
                {
                  "internalType": "uint256",
                  "name": "contributionFloor",
                  "type": "uint256"
                },
                {
                  "internalType": "uint256",
                  "name": "lockedUntil",
                  "type": "uint256"
                },
                {
                  "internalType": "uint256",
                  "name": "initialQuantity",
                  "type": "uint256"
                },
                {
                  "internalType": "uint256",
                  "name": "votingUnits",
                  "type": "uint256"
                },
                {
                  "internalType": "uint256",
                  "name": "reservedRate",
                  "type": "uint256"
                },
                {
                  "internalType": "address",
                  "name": "reservedTokenBeneficiary",
                  "type": "address"
                },
                {
                  "internalType": "bytes32",
                  "name": "encodedIPFSUri",
                  "type": "bytes32"
                },
                {
                  "internalType": "bool",
                  "name": "allowManualMint",
                  "type": "bool"
                },
                {
                  "internalType": "bool",
                  "name": "shouldUseBeneficiaryAsDefault",
                  "type": "bool"
                }
              ],
              "internalType": "struct JB721TierParams[]",
              "name": "tiers",
              "type": "tuple[]"
            },
            {
              "internalType": "uint256",
              "name": "currency",
              "type": "uint256"
            },
            {
              "internalType": "uint256",
              "name": "decimals",
              "type": "uint256"
            },
            {
              "internalType": "contract IJBPrices",
              "name": "prices",
              "type": "address"
            }
          ],
          "internalType": "struct JB721PricingParams",
          "name": "_pricing",
          "type": "tuple"
        },
        {
          "internalType": "contract IJBTiered721DelegateStore",
          "name": "_store",
          "type": "address"
        },
        {
          "components": [
            {
              "internalType": "bool",
              "name": "lockReservedTokenChanges",
              "type": "bool"
            },
            {
              "internalType": "bool",
              "name": "lockVotingUnitChanges",
              "type": "bool"
            },
            {
              "internalType": "bool",
              "name": "lockManualMintingChanges",
              "type": "bool"
            },
            {
              "internalType": "bool",
              "name": "pausable",
              "type": "bool"
            }
          ],
          "internalType": "struct JBTiered721Flags",
          "name": "_flags",
          "type": "tuple"
        }
      ],
      "name": "initialize",
      "outputs": [],
      "stateMutability": "nonpayable",
      "type": "function"
    },
    {
      "inputs": [
        {
          "internalType": "address",
          "name": "owner",
          "type": "address"
        },
        {
          "internalType": "address",
          "name": "operator",
          "type": "address"
        }
      ],
      "name": "isApprovedForAll",
      "outputs": [
        {
          "internalType": "bool",
          "name": "",
          "type": "bool"
        }
      ],
      "stateMutability": "view",
      "type": "function"
    },
    {
      "inputs": [
        {
          "components": [
            {
              "internalType": "uint16[]",
              "name": "tierIds",
              "type": "uint16[]"
            },
            {
              "internalType": "address",
              "name": "beneficiary",
              "type": "address"
            }
          ],
          "internalType": "struct JBTiered721MintForTiersData[]",
          "name": "_mintForTiersData",
          "type": "tuple[]"
        }
      ],
      "name": "mintFor",
      "outputs": [],
      "stateMutability": "nonpayable",
      "type": "function"
    },
    {
      "inputs": [
        {
          "internalType": "uint16[]",
          "name": "_tierIds",
          "type": "uint16[]"
        },
        {
          "internalType": "address",
          "name": "_beneficiary",
          "type": "address"
        }
      ],
      "name": "mintFor",
      "outputs": [
        {
          "internalType": "uint256[]",
          "name": "tokenIds",
          "type": "uint256[]"
        }
      ],
      "stateMutability": "nonpayable",
      "type": "function"
    },
    {
      "inputs": [
        {
          "components": [
            {
              "internalType": "uint256",
              "name": "tierId",
              "type": "uint256"
            },
            {
              "internalType": "uint256",
              "name": "count",
              "type": "uint256"
            }
          ],
          "internalType": "struct JBTiered721MintReservesForTiersData[]",
          "name": "_mintReservesForTiersData",
          "type": "tuple[]"
        }
      ],
      "name": "mintReservesFor",
      "outputs": [],
      "stateMutability": "nonpayable",
      "type": "function"
    },
    {
      "inputs": [
        {
          "internalType": "uint256",
          "name": "_tierId",
          "type": "uint256"
        },
        {
          "internalType": "uint256",
          "name": "_count",
          "type": "uint256"
        }
      ],
      "name": "mintReservesFor",
      "outputs": [],
      "stateMutability": "nonpayable",
      "type": "function"
    },
    {
      "inputs": [],
      "name": "name",
      "outputs": [
        {
          "internalType": "string",
          "name": "",
          "type": "string"
        }
      ],
      "stateMutability": "view",
      "type": "function"
    },
    {
      "inputs": [],
      "name": "owner",
      "outputs": [
        {
          "internalType": "address",
          "name": "",
          "type": "address"
        }
      ],
      "stateMutability": "view",
      "type": "function"
    },
    {
      "inputs": [
        {
          "internalType": "uint256",
          "name": "tokenId",
          "type": "uint256"
        }
      ],
      "name": "ownerOf",
      "outputs": [
        {
          "internalType": "address",
          "name": "",
          "type": "address"
        }
      ],
      "stateMutability": "view",
      "type": "function"
    },
    {
      "inputs": [
        {
          "components": [
            {
              "internalType": "contract IJBPaymentTerminal",
              "name": "terminal",
              "type": "address"
            },
            {
              "internalType": "address",
              "name": "payer",
              "type": "address"
            },
            {
              "components": [
                {
                  "internalType": "address",
                  "name": "token",
                  "type": "address"
                },
                {
                  "internalType": "uint256",
                  "name": "value",
                  "type": "uint256"
                },
                {
                  "internalType": "uint256",
                  "name": "decimals",
                  "type": "uint256"
                },
                {
                  "internalType": "uint256",
                  "name": "currency",
                  "type": "uint256"
                }
              ],
              "internalType": "struct JBTokenAmount",
              "name": "amount",
              "type": "tuple"
            },
            {
              "internalType": "uint256",
              "name": "projectId",
              "type": "uint256"
            },
            {
              "internalType": "uint256",
              "name": "currentFundingCycleConfiguration",
              "type": "uint256"
            },
            {
              "internalType": "address",
              "name": "beneficiary",
              "type": "address"
            },
            {
              "internalType": "uint256",
              "name": "weight",
              "type": "uint256"
            },
            {
              "internalType": "uint256",
              "name": "reservedRate",
              "type": "uint256"
            },
            {
              "internalType": "string",
              "name": "memo",
              "type": "string"
            },
            {
              "internalType": "bytes",
              "name": "metadata",
              "type": "bytes"
            }
          ],
          "internalType": "struct JBPayParamsData",
          "name": "_data",
          "type": "tuple"
        }
      ],
      "name": "payParams",
      "outputs": [
        {
          "internalType": "uint256",
          "name": "weight",
          "type": "uint256"
        },
        {
          "internalType": "string",
          "name": "memo",
          "type": "string"
        },
        {
          "components": [
            {
              "internalType": "contract IJBPayDelegate",
              "name": "delegate",
              "type": "address"
            },
            {
              "internalType": "uint256",
              "name": "amount",
              "type": "uint256"
            }
          ],
          "internalType": "struct JBPayDelegateAllocation[]",
          "name": "delegateAllocations",
          "type": "tuple[]"
        }
      ],
      "stateMutability": "view",
      "type": "function"
    },
    {
      "inputs": [],
      "name": "prices",
      "outputs": [
        {
          "internalType": "contract IJBPrices",
          "name": "",
          "type": "address"
        }
      ],
      "stateMutability": "view",
      "type": "function"
    },
    {
      "inputs": [],
      "name": "pricingCurrency",
      "outputs": [
        {
          "internalType": "uint256",
          "name": "",
          "type": "uint256"
        }
      ],
      "stateMutability": "view",
      "type": "function"
    },
    {
      "inputs": [],
      "name": "pricingDecimals",
      "outputs": [
        {
          "internalType": "uint256",
          "name": "",
          "type": "uint256"
        }
      ],
      "stateMutability": "view",
      "type": "function"
    },
    {
      "inputs": [],
      "name": "projectId",
      "outputs": [
        {
          "internalType": "uint256",
          "name": "",
          "type": "uint256"
        }
      ],
      "stateMutability": "view",
      "type": "function"
    },
    {
      "inputs": [
        {
          "components": [
            {
              "internalType": "contract IJBPaymentTerminal",
              "name": "terminal",
              "type": "address"
            },
            {
              "internalType": "address",
              "name": "holder",
              "type": "address"
            },
            {
              "internalType": "uint256",
              "name": "projectId",
              "type": "uint256"
            },
            {
              "internalType": "uint256",
              "name": "currentFundingCycleConfiguration",
              "type": "uint256"
            },
            {
              "internalType": "uint256",
              "name": "tokenCount",
              "type": "uint256"
            },
            {
              "internalType": "uint256",
              "name": "totalSupply",
              "type": "uint256"
            },
            {
              "internalType": "uint256",
              "name": "overflow",
              "type": "uint256"
            },
            {
              "components": [
                {
                  "internalType": "address",
                  "name": "token",
                  "type": "address"
                },
                {
                  "internalType": "uint256",
                  "name": "value",
                  "type": "uint256"
                },
                {
                  "internalType": "uint256",
                  "name": "decimals",
                  "type": "uint256"
                },
                {
                  "internalType": "uint256",
                  "name": "currency",
                  "type": "uint256"
                }
              ],
              "internalType": "struct JBTokenAmount",
              "name": "reclaimAmount",
              "type": "tuple"
            },
            {
              "internalType": "bool",
              "name": "useTotalOverflow",
              "type": "bool"
            },
            {
              "internalType": "uint256",
              "name": "redemptionRate",
              "type": "uint256"
            },
            {
              "internalType": "string",
              "name": "memo",
              "type": "string"
            },
            {
              "internalType": "bytes",
              "name": "metadata",
              "type": "bytes"
            }
          ],
          "internalType": "struct JBRedeemParamsData",
          "name": "_data",
          "type": "tuple"
        }
      ],
      "name": "redeemParams",
      "outputs": [
        {
          "internalType": "uint256",
          "name": "reclaimAmount",
          "type": "uint256"
        },
        {
          "internalType": "string",
          "name": "memo",
          "type": "string"
        },
        {
          "components": [
            {
              "internalType": "contract IJBRedemptionDelegate",
              "name": "delegate",
              "type": "address"
            },
            {
              "internalType": "uint256",
              "name": "amount",
              "type": "uint256"
            }
          ],
          "internalType": "struct JBRedemptionDelegateAllocation[]",
          "name": "delegateAllocations",
          "type": "tuple[]"
        }
      ],
      "stateMutability": "view",
      "type": "function"
    },
    {
      "inputs": [],
      "name": "renounceOwnership",
      "outputs": [],
      "stateMutability": "nonpayable",
      "type": "function"
    },
    {
      "inputs": [
        {
          "internalType": "address",
          "name": "from",
          "type": "address"
        },
        {
          "internalType": "address",
          "name": "to",
          "type": "address"
        },
        {
          "internalType": "uint256",
          "name": "tokenId",
          "type": "uint256"
        }
      ],
      "name": "safeTransferFrom",
      "outputs": [],
      "stateMutability": "nonpayable",
      "type": "function"
    },
    {
      "inputs": [
        {
          "internalType": "address",
          "name": "from",
          "type": "address"
        },
        {
          "internalType": "address",
          "name": "to",
          "type": "address"
        },
        {
          "internalType": "uint256",
          "name": "tokenId",
          "type": "uint256"
        },
        {
          "internalType": "bytes",
          "name": "data",
          "type": "bytes"
        }
      ],
      "name": "safeTransferFrom",
      "outputs": [],
      "stateMutability": "nonpayable",
      "type": "function"
    },
    {
      "inputs": [
        {
          "internalType": "address",
          "name": "operator",
          "type": "address"
        },
        {
          "internalType": "bool",
          "name": "approved",
          "type": "bool"
        }
      ],
      "name": "setApprovalForAll",
      "outputs": [],
      "stateMutability": "nonpayable",
      "type": "function"
    },
    {
      "inputs": [
        {
          "internalType": "string",
          "name": "_baseUri",
          "type": "string"
        }
      ],
      "name": "setBaseUri",
      "outputs": [],
      "stateMutability": "nonpayable",
      "type": "function"
    },
    {
      "inputs": [
        {
          "internalType": "string",
          "name": "_contractUri",
          "type": "string"
        }
      ],
      "name": "setContractUri",
      "outputs": [],
      "stateMutability": "nonpayable",
      "type": "function"
    },
    {
      "inputs": [
        {
          "internalType": "address",
          "name": "_beneficiary",
          "type": "address"
        }
      ],
      "name": "setDefaultReservedTokenBeneficiary",
      "outputs": [],
      "stateMutability": "nonpayable",
      "type": "function"
    },
    {
      "inputs": [
        {
          "internalType": "contract IJBTokenUriResolver",
          "name": "_tokenUriResolver",
          "type": "address"
        }
      ],
      "name": "setTokenUriResolver",
      "outputs": [],
      "stateMutability": "nonpayable",
      "type": "function"
    },
    {
      "inputs": [],
      "name": "store",
      "outputs": [
        {
          "internalType": "contract IJBTiered721DelegateStore",
          "name": "",
          "type": "address"
        }
      ],
      "stateMutability": "view",
      "type": "function"
    },
    {
      "inputs": [
        {
          "internalType": "bytes4",
          "name": "_interfaceId",
          "type": "bytes4"
        }
      ],
      "name": "supportsInterface",
      "outputs": [
        {
          "internalType": "bool",
          "name": "",
          "type": "bool"
        }
      ],
      "stateMutability": "view",
      "type": "function"
    },
    {
      "inputs": [],
      "name": "symbol",
      "outputs": [
        {
          "internalType": "string",
          "name": "",
          "type": "string"
        }
      ],
      "stateMutability": "view",
      "type": "function"
    },
    {
      "inputs": [
        {
          "internalType": "uint256",
          "name": "_tokenId",
          "type": "uint256"
        }
      ],
      "name": "tokenURI",
      "outputs": [
        {
          "internalType": "string",
          "name": "",
          "type": "string"
        }
      ],
      "stateMutability": "view",
      "type": "function"
    },
    {
      "inputs": [
        {
          "internalType": "address",
          "name": "from",
          "type": "address"
        },
        {
          "internalType": "address",
          "name": "to",
          "type": "address"
        },
        {
          "internalType": "uint256",
          "name": "tokenId",
          "type": "uint256"
        }
      ],
      "name": "transferFrom",
      "outputs": [],
      "stateMutability": "nonpayable",
      "type": "function"
    },
    {
      "inputs": [
        {
          "internalType": "address",
          "name": "newOwner",
          "type": "address"
        }
      ],
      "name": "transferOwnership",
      "outputs": [],
      "stateMutability": "nonpayable",
      "type": "function"
    }
  ],
  "bytecode": {
    "object": "0x60806040523480156200001157600080fd5b506200001d3362000035565b600880546001600160a01b0319163017905562000087565b600780546001600160a01b038381166001600160a01b0319831681179093556040519116919082907f8be0079c531659141344cd1fd0a4f28419497f9722a3daafe3b4186f6b6457e090600090a35050565b61480a80620000976000396000f3fe60806040526004361061023b5760003560e01c8063715018a61161012e578063c87b56dd116100ab578063df487e261161006f578063df487e26146106b8578063dfedb3af146106d8578063e8a3d485146106f8578063e985e9c51461070d578063f2fde38b1461072d57600080fd5b8063c87b56dd14610625578063ccb4807b14610645578063d3419bf314610665578063d46cf17114610685578063da9ee8b7146106a557600080fd5b8063a22cb465116100f2578063a22cb46514610576578063a51cfd1814610596578063aa4fb15b146105c5578063b88d4fde146105e5578063c41c2f241461060557600080fd5b8063715018a6146104ee5780638da5cb5b1461050357806395d89b4114610521578063975057e714610536578063a0bcfc7f1461055657600080fd5b806336c1a93b116101bc578063557e715511610180578063557e71551461044b5780636352211e1461046b57806364640c1e1461048b5780636ac6d941146104a157806370a08231146104ce57600080fd5b806336c1a93b146103bf5780633fafa127146103df57806342842e0e146103f55780634ecba6251461041557806354c6d1f51461042b57600080fd5b806323b872dd1161020357806323b872dd146103115780632407497e14610331578063245a45b5146103515780632a596e531461038c5780632b13c58f146103ac57600080fd5b806301ffc9a71461024057806306fdde0314610275578063081812fc14610297578063095ea7b3146102cf578063211eb001146102f1575b600080fd5b34801561024c57600080fd5b5061026061025b3660046130b9565b61074d565b60405190151581526020015b60405180910390f35b34801561028157600080fd5b5061028a610778565b60405161026c9190613126565b3480156102a357600080fd5b506102b76102b2366004613139565b61080a565b6040516001600160a01b03909116815260200161026c565b3480156102db57600080fd5b506102ef6102ea366004613177565b610831565b005b3480156102fd57600080fd5b506102ef61030c3660046131a3565b6108bd565b34801561031d57600080fd5b506102ef61032c36600461326b565b610aa0565b34801561033d57600080fd5b506102ef61034c3660046132ac565b610ad2565b34801561035d57600080fd5b5061037e61036c3660046132ac565b600e6020526000908152604090205481565b60405190815260200161026c565b34801561039857600080fd5b506102ef6103a73660046133c2565b610b7b565b6102ef6103ba366004613495565b610bc1565b3480156103cb57600080fd5b506102ef6103da366004613540565b610d9e565b3480156103eb57600080fd5b5061037e60055481565b34801561040157600080fd5b506102ef61041036600461326b565b610ded565b34801561042157600080fd5b5061037e600d5481565b34801561043757600080fd5b506102b7610446366004613139565b610e08565b34801561045757600080fd5b50600a546102b7906001600160a01b031681565b34801561047757600080fd5b506102b7610486366004613139565b610eb4565b34801561049757600080fd5b5061037e600c5481565b3480156104ad57600080fd5b506104c16104bc36600461363a565b610eea565b60405161026c91906136c6565b3480156104da57600080fd5b5061037e6104e93660046132ac565b61102e565b3480156104fa57600080fd5b506102ef6110a4565b34801561050f57600080fd5b506007546001600160a01b03166102b7565b34801561052d57600080fd5b5061028a6110b8565b34801561054257600080fd5b506009546102b7906001600160a01b031681565b34801561056257600080fd5b506102ef610571366004613759565b6110c7565b34801561058257600080fd5b506102ef6105913660046137a6565b611176565b3480156105a257600080fd5b506105b66105b1366004613495565b611185565b60405161026c939291906137d4565b3480156105d157600080fd5b506102ef6105e0366004613846565b611446565b3480156105f157600080fd5b506102ef610600366004613868565b611663565b34801561061157600080fd5b506006546102b7906001600160a01b031681565b34801561063157600080fd5b5061028a610640366004613139565b611696565b34801561065157600080fd5b506102ef6106603660046138e7565b6118f4565b34801561067157600080fd5b50600b546102b7906001600160a01b031681565b34801561069157600080fd5b506105b66106a0366004613958565b6119ae565b6102ef6106b3366004613993565b611a91565b3480156106c457600080fd5b506102ef6106d33660046132ac565b611b4e565b3480156106e457600080fd5b506102ef6106f3366004613b69565b611bf0565b34801561070457600080fd5b5061028a611eee565b34801561071957600080fd5b50610260610728366004613ca2565b611f64565b34801561073957600080fd5b506102ef6107483660046132ac565b611f92565b60006001600160e01b031982166340dc1b7560e11b148061077257506107728261200d565b92915050565b60606000805461078790613cd0565b80601f01602080910402602001604051908101604052809291908181526020018280546107b390613cd0565b80156108005780601f106107d557610100808354040283529160200191610800565b820191906000526020600020905b8154815290600101906020018083116107e357829003601f168201915b5050505050905090565b600061081582612083565b506000908152600360205260409020546001600160a01b031690565b600061083c82610eb4565b9050806001600160a01b0316836001600160a01b0316036108705760405163133f8be960e01b815260040160405180910390fd5b336001600160a01b03821614801590610890575061088e8133611f64565b155b156108ae5760405163e5fa0e3560e01b815260040160405180910390fd5b6108b883836120b8565b505050565b6108c5612126565b82818015610995576009546040516320512ba160e01b81526001600160a01b03909116906320512ba1906108ff9087908790600401613d04565b600060405180830381600087803b15801561091957600080fd5b505af115801561092d573d6000803e3d6000fd5b5050505060005b818110156109935784848281811061094e5761094e613d3d565b60405133815260209182029390930135927f832d89d991be5351d793c20faf4b7dd44f8aa9ce39e3cb160c6317de6fbba72992500160405180910390a2600101610934565b505b8115610a985760095460405163d0cf48a560e01b81526000916001600160a01b03169063d0cf48a5906109ce908a908a90600401613dd4565b6000604051808303816000875af11580156109ed573d6000803e3d6000fd5b505050506040513d6000823e601f3d908101601f19168201604052610a159190810190613e72565b905060005b83811015610a9557818181518110610a3457610a34613d3d565b60200260200101517f9c1ee455d7c9ab291045babfeef5ef20cea4d096dc64c4b2b29977289b4b0641898984818110610a6f57610a6f613d3d565b9050610120020133604051610a85929190613ea6565b60405180910390a2600101610a1a565b50505b505050505050565b610aaa3382612180565b610ac75760405163e5fa0e3560e01b815260040160405180910390fd5b6108b88383836121df565b610ada612126565b60095460405163036129cb60e61b81526001600160a01b0383811660048301529091169063d84a72c090602401600060405180830381600087803b158015610b2157600080fd5b505af1158015610b35573d6000803e3d6000fd5b50506040513381526001600160a01b03841692507fe7784d93cfbfa4408e19577e6cc0436f4dbb51214b70e100905dfce9def88c1691506020015b60405180910390a250565b805160005b818110156108b8576000838281518110610b9c57610b9c613d3d565b60200260200101519050610bb881600001518260200151611446565b50600101610b80565b34151580610c435750600654600554604051636e49181f60e01b815260048101919091523360248201526001600160a01b0390911690636e49181f90604401602060405180830381865afa158015610c1d573d6000803e3d6000fd5b505050506040513d601f19601f82011682018060405250810190610c419190613ed9565b155b80610c545750600554816020013514155b15610c7257604051633efca5c360e11b815260040160405180910390fd5b6004610c826101c0830183613ef6565b90501080610cc6575063b3bcbb7960e01b610ca16101c0830183613ef6565b610cb091600491600091613f43565b610cb991613f6d565b6001600160e01b03191614155b15610ce457604051632a84050f60e01b815260040160405180910390fd5b6000610cf46101c0830183613ef6565b810190610d019190613f9d565b805190925090506000805b82811015610d8e57838181518110610d2657610d26613d3d565b60200260200101519150846000016020810190610d4391906132ac565b6000838152600260205260409020546001600160a01b03908116911614610d7d5760405163075fd2b160e01b815260040160405180910390fd5b610d86826122b8565b600101610d0c565b50610d9883612339565b50505050565b610da6612126565b805160005b818110156108b8576000838281518110610dc757610dc7613d3d565b60200260200101519050610de381600001518260200151610eea565b5050600101610dab565b6108b883838360405180602001604052806000815250611663565b6009546040516308ed6c0160e41b81523060048201526024810183905260009182916001600160a01b0390911690638ed6c01090604401602060405180830381865afa158015610e5c573d6000803e3d6000fd5b505050506040513d601f19601f82011682018060405250810190610e80919061404d565b90506001600160a01b03811615610e975792915050565b50506000908152600260205260409020546001600160a01b031690565b6000818152600260205260408120546001600160a01b0316806107725760405163b49aa3b560e01b815260040160405180910390fd5b6060610ef4612126565b60095460405163eaa19ab360e01b81526001600160a01b039091169063eaa19ab390610f2b9060001990879060019060040161406a565b6000604051808303816000875af1158015610f4a573d6000803e3d6000fd5b505050506040513d6000823e601f3d908101601f19168201604052610f7291908101906140c7565b509050600080805b8281101561102557838181518110610f9457610f94613d3d565b60200260200101519150610fa8858361239e565b846001600160a01b0316868281518110610fc457610fc4613d3d565b602002602001015161ffff16837f598baf7bf150ca2f42be9e9f8f55e81d45f5715c3ff22bf46d697fabec7f31d66000336040516110159291909182526001600160a01b0316602082015260400190565b60405180910390a4600101610f7a565b50505092915050565b600954604051633de222bb60e21b81523060048201526001600160a01b038381166024830152600092169063f7888aec906044015b602060405180830381865afa158015611080573d6000803e3d6000fd5b505050506040513d601f19601f82011682018060405250810190610772919061410d565b6110ac612126565b6110b66000612468565b565b60606001805461078790613cd0565b6110cf612126565b6009546040516331315e5960e11b81526001600160a01b0390911690636262bcb2906110ff908490600401613126565b600060405180830381600087803b15801561111957600080fd5b505af115801561112d573d6000803e3d6000fd5b505050508060405161113f9190614126565b604051908190038120338252907f7bc9110d5de090dd59e07912d2b93a5a27ac70a60c8d8e324db4f9ee8b8b5c1390602001610b70565b6111813383836124ba565b5050565b60006060806080840135156111ad576040516309f82f1b60e31b815260040160405180910390fd5b60046111bd6101c0860186613ef6565b90501080611201575063b3bcbb7960e01b6111dc6101c0860186613ef6565b6111eb91600491600091613f43565b6111f491613f6d565b6001600160e01b03191614155b1561121f57604051632a84050f60e01b815260040160405180910390fd5b60408051600180825281830190925290816020015b60408051808201909152600080825260208201528152602001906001900390816112345790505090506040518060400160405280306001600160a01b0316815260200160008152508160008151811061128f5761128f613d3d565b60200260200101819052508361018001356000036112ff5760006112b76101a0860186613ef6565b8382828080601f01602080910402602001604051908101604052809392919081815260200183838082843760009201919091525096995091975091955061143f945050505050565b600061130f6101c0860186613ef6565b81019061131c9190613f9d565b915050600061132a82612559565b9050600061133661258c565b905060006113498860c0013584846125f9565b9050612710886101800135036113b457806113686101a08a018a613ef6565b8782828080601f016020809104026020016040519081016040528093929190818152602001838380828437600092019190915250969d50919b5091995061143f98505050505050505050565b6113ea816113d3856113cd6101808d0135612710614158565b866125f9565b6113e2906101808c013561416b565b6127106125f9565b6113f86101a08a018a613ef6565b8782828080601f016020809104026020016040519081016040528093929190818152602001838380828437600092019190915250969d50919b509199505050505050505050505b9193909250565b600a546005546040516321d1336160e11b815260048101919091526000916001600160a01b0316906343a266c29060240161012060405180830381865afa158015611495573d6000803e3d6000fd5b505050506040513d601f19601f820116820180604052508101906114b9919061417e565b61010081015190915060f51c6001908116036114e857604051631d2c125760e31b815260040160405180910390fd5b600954604051635d53f40760e11b815260048101859052602481018490526000916001600160a01b03169063baa7e80e906044016000604051808303816000875af115801561153b573d6000803e3d6000fd5b505050506040513d6000823e601f3d908101601f191682016040526115639190810190613e72565b6009546040516304db994760e21b8152306004820152602481018790529192506000916001600160a01b039091169063136e651c90604401602060405180830381865afa1580156115b8573d6000803e3d6000fd5b505050506040513d601f19601f820116820180604052508101906115dc919061404d565b90506000805b8581101561165a578381815181106115fc576115fc613d3d565b60200260200101519150611610838361239e565b6040513381526001600160a01b03841690889084907f031e1988c95a91ec4d655ff63a8f87a80bc9daf28d95ae10ee08c0022cfb5c8b9060200160405180910390a46001016115e2565b50505050505050565b61166d3383612180565b61168a5760405163e5fa0e3560e01b815260040160405180910390fd5b610d98848484846126c5565b6000818152600260205260409020546060906001600160a01b03166116c957505060408051602081019091526000815290565b600954604051630fab094760e01b81523060048201526000916001600160a01b031690630fab094790602401602060405180830381865afa158015611712573d6000803e3d6000fd5b505050506040513d601f19601f82011682018060405250810190611736919061404d565b90506001600160a01b038116156117bb57604051636d02a25560e11b8152600481018490526001600160a01b0382169063da0544aa90602401600060405180830381865afa15801561178c573d6000803e3d6000fd5b505050506040513d6000823e601f3d908101601f191682016040526117b491908101906141fe565b9392505050565b60095460405163f682eeaf60e01b815230600482015273__$2e464bbf4a8803569df10b07372aceee57$__9163030cecc7916001600160a01b039091169063f682eeaf90602401600060405180830381865afa15801561181f573d6000803e3d6000fd5b505050506040513d6000823e601f3d908101601f1916820160405261184791908101906141fe565b600954604051630c8df17160e41b8152306004820152602481018890526001600160a01b039091169063c8df171090604401602060405180830381865afa158015611896573d6000803e3d6000fd5b505050506040513d601f19601f820116820180604052508101906118ba919061410d565b6040518363ffffffff1660e01b81526004016118d7929190614274565b600060405180830381865af415801561178c573d6000803e3d6000fd5b6118fc612126565b60095460405163d67b78fd60e01b81526001600160a01b039091169063d67b78fd9061192e9085908590600401614296565b600060405180830381600087803b15801561194857600080fd5b505af115801561195c573d6000803e3d6000fd5b5050505081816040516119709291906142c5565b604051908190038120338252907fd36dc0c1a06103fdcaf15f3f6fb797d1a97997514c78de073640c8b5005454b89060200160405180910390a25050565b6101208101356060806119c5610160850185613ef6565b8080601f01602080910402602001604051908101604052809392919081815260200183838082843760009201919091525092945060019250611a05915050565b604051908082528060200260200182016040528015611a4a57816020015b6040805180820190915260008082526020820152815260200190600190039081611a235790505b5090506040518060400160405280306001600160a01b03168152602001600081525081600081518110611a7f57611a7f613d3d565b60200260200101819052509193909250565b34151580611b135750600654600554604051636e49181f60e01b815260048101919091523360248201526001600160a01b0390911690636e49181f90604401602060405180830381865afa158015611aed573d6000803e3d6000fd5b505050506040513d601f19601f82011682018060405250810190611b119190613ed9565b155b80611b245750600554816020013514155b15611b42576040516331c57b1b60e21b815260040160405180910390fd5b611b4b816126f9565b50565b611b56612126565b6009546040516317161f7d60e01b81526001600160a01b038381166004830152909116906317161f7d90602401600060405180830381600087803b158015611b9d57600080fd5b505af1158015611bb1573d6000803e3d6000fd5b50506040513381526001600160a01b03841692507fab0014d4c7a642a02a31b303a318908c22b0fb2001f107278fc6076b4c671b659150602001610b70565b6008546001600160a01b03163003611c0757600080fd5b6009546001600160a01b031615611c1d57600080fd5b611c298b8b8b8b6129ac565b600a80546001600160a01b03808a166001600160a01b031992831617909255600980548584169083161790556020850151600c556040850151600d556060850151600b8054919093169116179055855115611cdd576040516331315e5960e11b81526001600160a01b03831690636262bcb290611caa908990600401613126565b600060405180830381600087803b158015611cc457600080fd5b505af1158015611cd8573d6000803e3d6000fd5b505050505b835115611d435760405163d67b78fd60e01b81526001600160a01b0383169063d67b78fd90611d10908790600401613126565b600060405180830381600087803b158015611d2a57600080fd5b505af1158015611d3e573d6000803e3d6000fd5b505050505b6001600160a01b03851615611dae5760405163036129cb60e61b81526001600160a01b03868116600483015283169063d84a72c090602401600060405180830381600087803b158015611d9557600080fd5b505af1158015611da9573d6000803e3d6000fd5b505050505b82515115611e2c57825160405163d0cf48a560e01b81526001600160a01b0384169163d0cf48a591611de391906004016142d5565b6000604051808303816000875af1158015611e02573d6000803e3d6000fd5b505050506040513d6000823e601f3d908101601f19168201604052611e2a9190810190613e72565b505b805180611e3a575080602001515b80611e46575080604001515b80611e52575080606001515b15611ed857604080516365c13f1960e11b815282511515600482015260208301511515602482015290820151151560448201526060820151151560648201526001600160a01b0383169063cb827e3290608401600060405180830381600087803b158015611ebf57600080fd5b505af1158015611ed3573d6000803e3d6000fd5b505050505b611ee133612468565b5050505050505050505050565b600954604051630155619b60e71b81523060048201526060916001600160a01b03169063aab0cd8090602401600060405180830381865afa158015611f37573d6000803e3d6000fd5b505050506040513d6000823e601f3d908101601f19168201604052611f5f91908101906141fe565b905090565b6001600160a01b03918216600090815260046020908152604080832093909416825291909152205460ff1690565b611f9a612126565b6001600160a01b0381166120045760405162461bcd60e51b815260206004820152602660248201527f4f776e61626c653a206e6577206f776e657220697320746865207a65726f206160448201526564647265737360d01b60648201526084015b60405180910390fd5b611b4b81612468565b60006001600160e01b0319821663b3bcbb7960e01b148061203e57506001600160e01b031982166371700c6960e01b145b8061205957506001600160e01b0319821663da9ee8b760e01b145b8061207457506001600160e01b03198216632b13c58f60e01b145b806107725750610772826129df565b6000818152600260205260409020546001600160a01b0316611b4b5760405163b49aa3b560e01b815260040160405180910390fd5b600081815260036020526040902080546001600160a01b0319166001600160a01b03841690811790915581906120ed82610eb4565b6001600160a01b03167f8c5be1e5ebec7d5bd14f71427d1e84f3dd0314c0f7b2291e5b200ac8c7c3b92560405160405180910390a45050565b6007546001600160a01b031633146110b65760405162461bcd60e51b815260206004820181905260248201527f4f776e61626c653a2063616c6c6572206973206e6f7420746865206f776e65726044820152606401611ffb565b60008061218c83610eb4565b9050806001600160a01b0316846001600160a01b031614806121b357506121b38185611f64565b806121d75750836001600160a01b03166121cc8461080a565b6001600160a01b0316145b949350505050565b826001600160a01b03166121f282610eb4565b6001600160a01b0316146122195760405163a195bc5360e01b815260040160405180910390fd5b6001600160a01b03821661224057604051632c95542760e01b815260040160405180910390fd5b61224b838383612a2f565b6122566000826120b8565b60008181526002602052604080822080546001600160a01b0319166001600160a01b0386811691821790925591518493918716917fddf252ad1be2c89b69c2b068fc378daa952ba7f163c4a11628f55a4df523b3ef91a46108b8838383612c4f565b60006122c382610eb4565b90506122d181600084612a2f565b6122dc6000836120b8565b60008281526002602052604080822080546001600160a01b0319169055518391906001600160a01b038416907fddf252ad1be2c89b69c2b068fc378daa952ba7f163c4a11628f55a4df523b3ef908390a461118181600084612c4f565b6009546040516386bc2be360e01b81526001600160a01b03909116906386bc2be3906123699084906004016136c6565b600060405180830381600087803b15801561238357600080fd5b505af1158015612397573d6000803e3d6000fd5b5050505050565b6001600160a01b0382166123c557604051633904578f60e11b815260040160405180910390fd5b6000818152600260205260409020546001600160a01b0316156123fb57604051632eb5f0c360e21b815260040160405180910390fd5b61240760008383612a2f565b60008181526002602052604080822080546001600160a01b0319166001600160a01b03861690811790915590518392907fddf252ad1be2c89b69c2b068fc378daa952ba7f163c4a11628f55a4df523b3ef908290a461118160008383612c4f565b600780546001600160a01b038381166001600160a01b0319831681179093556040519116919082907f8be0079c531659141344cd1fd0a4f28419497f9722a3daafe3b4186f6b6457e090600090a35050565b816001600160a01b0316836001600160a01b0316036124ec576040516306f8139d60e11b815260040160405180910390fd5b6001600160a01b03838116600081815260046020908152604080832094871680845294825291829020805460ff191686151590811790915591519182527f17307eab39ab6107e8899845ad3d59bd9653f200f220920489ca2b5937696c31910160405180910390a3505050565b60095460405163051330b560e21b81526000916001600160a01b03169063144cc2d490611063903090869060040161437a565b600954604051631572f24960e11b81523060048201526000916001600160a01b031690632ae5e49290602401602060405180830381865afa1580156125d5573d6000803e3d6000fd5b505050506040513d601f19601f82011682018060405250810190611f5f919061410d565b6000808060001985870985870292508281108382030391505080600003612633578382816126295761262961439e565b04925050506117b4565b83811061265d57604051631dcf306360e21b81526004810182905260248101859052604401611ffb565b600084868809600260036001881981018916988990049182028318808302840302808302840302808302840302808302840302808302840302918202909203026000889003889004909101858311909403939093029303949094049190911702949350505050565b6126d08484846121df565b6126dc84848484612d3c565b610d98576040516336f57c1b60e11b815260040160405180910390fd5b600c5460009060c083013503612714575060808101356127ca565b600b546001600160a01b03161561118157600d546127c79060808401359061273d90600a614498565b600b54600c54604051635268657960e11b815260c08801356004820152602481019190915260a087013560448201526001600160a01b039091169063a4d0caf290606401602060405180830381865afa15801561279e573d6000803e3d6000fd5b505050506040513d601f19601f820116820180604052508101906127c2919061410d565b6125f9565b90505b6000600e816127e16101a0860161018087016132ac565b6001600160a01b0316815260208101919091526040016000908120549150612809828461416b565b9050600080602461281e6101e0880188613ef6565b9050118015612862575063b3bcbb7960e01b61283e6101e0880188613ef6565b61284d91602491602091613f43565b61285691613f6d565b6001600160e01b031916145b156128cc57600060606128796101e0890189613ef6565b81019061288691906144a4565b9198509650909450925050821590506128a3575050505050505050565b8051156128c9576128c685826128c16101a08c016101808d016132ac565b612e3e565b94505b50505b821561296d576128ee836128e86101a089016101808a016132ac565b84612f80565b9250821561294b57801561291557604051631b57826960e21b815260040160405180910390fd5b82600e600061292c6101a08a016101808b016132ac565b6001600160a01b03168152602081019190915260400160002055610a98565b8315612968576000600e8161292c6101a08a016101808b016132ac565b610a98565b8315610a98576000600e8161298a6101a08a016101808b016132ac565b6001600160a01b03168152602081019190915260400160002055505050505050565b6129b6828261308a565b5050600591909155600680546001600160a01b0319166001600160a01b03909216919091179055565b60006001600160e01b031982166380ac58cd60e01b1480612a1057506001600160e01b03198216635b5e139f60e01b145b8061077257506301ffc9a760e01b6001600160e01b0319831614610772565b6001600160a01b038316156108b857600954604051634228826f60e11b81523060048201526001600160a01b039091169063845104de90602401608060405180830381865afa158015612a86573d6000803e3d6000fd5b505050506040513d601f19601f82011682018060405250810190612aaa9190614533565b6060015115612b6b57600a546005546040516321d1336160e11b815260048101919091526000916001600160a01b0316906343a266c29060240161012060405180830381865afa158015612b02573d6000803e3d6000fd5b505050506040513d601f19601f82011682018060405250810190612b26919061417e565b90506001600160a01b03831615801590612b4b575061010081015160f41c6001908116145b15612b69576040516318cdaf9760e01b815260040160405180910390fd5b505b6009546040516308ed6c0160e41b8152306004820152602481018390526000916001600160a01b031690638ed6c01090604401602060405180830381865afa158015612bbb573d6000803e3d6000fd5b505050506040513d601f19601f82011682018060405250810190612bdf919061404d565b6001600160a01b0316036108b857600954604051638cec7d3960e01b8152600481018390526001600160a01b03858116602483015290911690638cec7d3990604401600060405180830381600087803b158015612c3b57600080fd5b505af115801561165a573d6000803e3d6000fd5b60095460405163b67cb04760e01b8152306004820152602481018390526000916001600160a01b03169063b67cb0479060440161014060405180830381865afa158015612ca0573d6000803e3d6000fd5b505050506040513d601f19601f82011682018060405250810190612cc491906145b7565b60095481516040516330b157e560e21b815260048101919091526001600160a01b038781166024830152868116604483015292935091169063c2c55f9490606401600060405180830381600087803b158015612d1f57600080fd5b505af1158015612d33573d6000803e3d6000fd5b50505050610d98565b60006001600160a01b0384163b15612e3357604051630a85bd0160e11b81526001600160a01b0385169063150b7a0290612d80903390899088908890600401614647565b6020604051808303816000875af1925050508015612dbb575060408051601f3d908101601f19168201909252612db891810190614684565b60015b612e19573d808015612de9576040519150601f19603f3d011682016040523d82523d6000602084013e612dee565b606091505b508051600003612e11576040516336f57c1b60e11b815260040160405180910390fd5b805181602001fd5b6001600160e01b031916630a85bd0160e11b1490506121d7565b506001949350505050565b60095460405163eaa19ab360e01b81526000916060916001600160a01b039091169063eaa19ab390612e789088908890879060040161406a565b6000604051808303816000875af1158015612e97573d6000803e3d6000fd5b505050506040513d6000823e601f3d908101601f19168201604052612ebf91908101906140c7565b81519093509091506000805b82811015612f7557838181518110612ee557612ee5613d3d565b60200260200101519150612ef9868361239e565b856001600160a01b0316878281518110612f1557612f15613d3d565b602002602001015161ffff16837f598baf7bf150ca2f42be9e9f8f55e81d45f5715c3ff22bf46d697fabec7f31d68b33604051612f659291909182526001600160a01b0316602082015260400190565b60405180910390a4600101612ecb565b505050509392505050565b60095460405163879791f360e01b815260048101859052600091829182916001600160a01b03169063879791f3906024016060604051808303816000875af1158015612fd0573d6000803e3d6000fd5b505050506040513d601f19601f82011682018060405250810190612ff491906146a1565b94509092509050600082900361302a57831561302357604051630e5313df60e41b815260040160405180910390fd5b50506117b4565b613034858361239e565b6001600160a01b03851681837f598baf7bf150ca2f42be9e9f8f55e81d45f5715c3ff22bf46d697fabec7f31d661306b878b614158565b604080519182523360208301520160405180910390a450509392505050565b60006130968382614715565b5060016108b88282614715565b6001600160e01b031981168114611b4b57600080fd5b6000602082840312156130cb57600080fd5b81356117b4816130a3565b60005b838110156130f15781810151838201526020016130d9565b50506000910152565b600081518084526131128160208601602086016130d6565b601f01601f19169290920160200192915050565b6020815260006117b460208301846130fa565b60006020828403121561314b57600080fd5b5035919050565b6001600160a01b0381168114611b4b57600080fd5b803561317281613152565b919050565b6000806040838503121561318a57600080fd5b823561319581613152565b946020939093013593505050565b600080600080604085870312156131b957600080fd5b84356001600160401b03808211156131d057600080fd5b818701915087601f8301126131e457600080fd5b8135818111156131f357600080fd5b8860206101208302850101111561320957600080fd5b60209283019650945090860135908082111561322457600080fd5b818701915087601f83011261323857600080fd5b81358181111561324757600080fd5b8860208260051b850101111561325c57600080fd5b95989497505060200194505050565b60008060006060848603121561328057600080fd5b833561328b81613152565b9250602084013561329b81613152565b929592945050506040919091013590565b6000602082840312156132be57600080fd5b81356117b481613152565b634e487b7160e01b600052604160045260246000fd5b604080519081016001600160401b0381118282101715613301576133016132c9565b60405290565b604051608081016001600160401b0381118282101715613301576133016132c9565b60405161012081016001600160401b0381118282101715613301576133016132c9565b60405161014081016001600160401b0381118282101715613301576133016132c9565b604051601f8201601f191681016001600160401b0381118282101715613397576133976132c9565b604052919050565b60006001600160401b038211156133b8576133b86132c9565b5060051b60200190565b600060208083850312156133d557600080fd5b82356001600160401b038111156133eb57600080fd5b8301601f810185136133fc57600080fd5b803561340f61340a8261339f565b61336f565b81815260069190911b8201830190838101908783111561342e57600080fd5b928401925b82841015613471576040848903121561344c5760008081fd5b6134546132df565b843581528585013586820152825260409093019290840190613433565b979650505050505050565b60006101e0828403121561348f57600080fd5b50919050565b6000602082840312156134a757600080fd5b81356001600160401b038111156134bd57600080fd5b6121d78482850161347c565b600082601f8301126134da57600080fd5b813560206134ea61340a8361339f565b82815260059290921b8401810191818101908684111561350957600080fd5b8286015b8481101561353557803561ffff811681146135285760008081fd5b835291830191830161350d565b509695505050505050565b6000602080838503121561355357600080fd5b82356001600160401b038082111561356a57600080fd5b818501915085601f83011261357e57600080fd5b813561358c61340a8261339f565b81815260059190911b830184019084810190888311156135ab57600080fd5b8585015b8381101561362d578035858111156135c75760008081fd5b86016040818c03601f19018113156135df5760008081fd5b6135e76132df565b89830135888111156135f95760008081fd5b6136078e8c838701016134c9565b825250918101359161361883613152565b808a01929092525083529186019186016135af565b5098975050505050505050565b6000806040838503121561364d57600080fd5b82356001600160401b0381111561366357600080fd5b61366f858286016134c9565b925050602083013561368081613152565b809150509250929050565b600081518084526020808501945080840160005b838110156136bb5781518752958201959082019060010161369f565b509495945050505050565b6020815260006117b4602083018461368b565b60006001600160401b038211156136f2576136f26132c9565b50601f01601f191660200190565b600061370e61340a846136d9565b905082815283838301111561372257600080fd5b828260208301376000602084830101529392505050565b600082601f83011261374a57600080fd5b6117b483833560208501613700565b60006020828403121561376b57600080fd5b81356001600160401b0381111561378157600080fd5b6121d784828501613739565b8015158114611b4b57600080fd5b80356131728161378d565b600080604083850312156137b957600080fd5b82356137c481613152565b915060208301356136808161378d565b838152600060206060818401526137ee60608401866130fa565b83810360408581019190915285518083528387019284019060005b8181101561383757845180516001600160a01b03168452860151868401529385019391830191600101613809565b50909998505050505050505050565b6000806040838503121561385957600080fd5b50508035926020909101359150565b6000806000806080858703121561387e57600080fd5b843561388981613152565b9350602085013561389981613152565b92506040850135915060608501356001600160401b038111156138bb57600080fd5b8501601f810187136138cc57600080fd5b6138db87823560208401613700565b91505092959194509250565b600080602083850312156138fa57600080fd5b82356001600160401b038082111561391157600080fd5b818501915085601f83011261392557600080fd5b81358181111561393457600080fd5b86602082850101111561394657600080fd5b60209290920196919550909350505050565b60006020828403121561396a57600080fd5b81356001600160401b0381111561398057600080fd5b82016101a081850312156117b457600080fd5b6000602082840312156139a557600080fd5b81356001600160401b038111156139bb57600080fd5b820161020081850312156117b457600080fd5b600060808083850312156139e157600080fd5b6139e9613307565b915082356001600160401b03811115613a0157600080fd5b8301601f81018513613a1257600080fd5b80356020613a2261340a8361339f565b8281526101209283028401820192828201919089851115613a4257600080fd5b948301945b84861015613adc5780868b031215613a5f5760008081fd5b613a67613329565b8635815284870135858201526040808801359082015260608088013590820152878701358882015260a0613a9c818901613167565b9082015260c0878101359082015260e0613ab781890161379b565b90820152610100613ac988820161379b565b9082015283529485019491830191613a47565b50865250858101359085015250505060408083013590820152613b0160608301613167565b606082015292915050565b600060808284031215613b1e57600080fd5b613b26613307565b90508135613b338161378d565b81526020820135613b438161378d565b60208201526040820135613b568161378d565b60408201526060820135613b018161378d565b60008060008060008060008060008060006101c08c8e031215613b8b57600080fd5b8b359a50613b9b60208d01613167565b99506001600160401b038060408e01351115613bb657600080fd5b613bc68e60408f01358f01613739565b99508060608e01351115613bd957600080fd5b613be98e60608f01358f01613739565b9850613bf760808e01613167565b97508060a08e01351115613c0a57600080fd5b613c1a8e60a08f01358f01613739565b9650613c2860c08e01613167565b95508060e08e01351115613c3b57600080fd5b613c4b8e60e08f01358f01613739565b9450806101008e01351115613c5f57600080fd5b50613c718d6101008e01358e016139ce565b9250613c806101208d01613167565b9150613c908d6101408e01613b0c565b90509295989b509295989b9093969950565b60008060408385031215613cb557600080fd5b8235613cc081613152565b9150602083013561368081613152565b600181811c90821680613ce457607f821691505b60208210810361348f57634e487b7160e01b600052602260045260246000fd5b6020808252810182905260006001600160fb1b03831115613d2457600080fd5b8260051b80856040850137919091016040019392505050565b634e487b7160e01b600052603260045260246000fd5b803582526020810135602083015260408101356040830152606081013560608301526080810135608083015260a0810135613d8d81613152565b6001600160a01b031660a083015260c0818101359083015260e0810135613db38161378d565b151560e0830152610100613dc882820161379b565b80151584830152610d98565b6020808252810182905260008360408301825b85811015613e0d57613df98284613d53565b610120928301929190910190600101613de7565b5095945050505050565b600082601f830112613e2857600080fd5b81516020613e3861340a8361339f565b82815260059290921b84018101918181019086841115613e5757600080fd5b8286015b848110156135355780518352918301918301613e5b565b600060208284031215613e8457600080fd5b81516001600160401b03811115613e9a57600080fd5b6121d784828501613e17565b6101408101613eb58285613d53565b6001600160a01b03929092166101209190910152919050565b80516131728161378d565b600060208284031215613eeb57600080fd5b81516117b48161378d565b6000808335601e19843603018112613f0d57600080fd5b8301803591506001600160401b03821115613f2757600080fd5b602001915036819003821315613f3c57600080fd5b9250929050565b60008085851115613f5357600080fd5b83861115613f6057600080fd5b5050820193919092039150565b6001600160e01b03198135818116916004851015613f955780818660040360031b1b83161692505b505092915050565b60008060408385031215613fb057600080fd5b8235613fbb816130a3565b91506020838101356001600160401b03811115613fd757600080fd5b8401601f81018613613fe857600080fd5b8035613ff661340a8261339f565b81815260059190911b8201830190838101908883111561401557600080fd5b928401925b828410156140335783358252928401929084019061401a565b80955050505050509250929050565b805161317281613152565b60006020828403121561405f57600080fd5b81516117b481613152565b6000606082018583526020606081850152818651808452608086019150828801935060005b818110156140af57845161ffff168352938301939183019160010161408f565b50508093505050508215156040830152949350505050565b600080604083850312156140da57600080fd5b82516001600160401b038111156140f057600080fd5b6140fc85828601613e17565b925050602083015190509250929050565b60006020828403121561411f57600080fd5b5051919050565b600082516141388184602087016130d6565b9190910192915050565b634e487b7160e01b600052601160045260246000fd5b8181038181111561077257610772614142565b8082018082111561077257610772614142565b6000610120828403121561419157600080fd5b614199613329565b825181526020830151602082015260408301516040820152606083015160608201526080830151608082015260a083015160a082015260c083015160c08201526141e560e08401614042565b60e0820152610100928301519281019290925250919050565b60006020828403121561421057600080fd5b81516001600160401b0381111561422657600080fd5b8201601f8101841361423757600080fd5b805161424561340a826136d9565b81815285602083850101111561425a57600080fd5b61426b8260208301602086016130d6565b95945050505050565b60408152600061428760408301856130fa565b90508260208301529392505050565b60208152816020820152818360408301376000818301604090810191909152601f909201601f19160101919050565b8183823760009101908152919050565b602080825282518282018190526000919060409081850190868401855b8281101561436d5781518051855286810151878601528581015186860152606080820151908601526080808201519086015260a0808201516001600160a01b03169086015260c0808201519086015260e0808201511515908601526101009081015115159085015261012090930192908501906001016142f2565b5091979650505050505050565b6001600160a01b03831681526040602082018190526000906121d79083018461368b565b634e487b7160e01b600052601260045260246000fd5b600181815b808511156143ef5781600019048211156143d5576143d5614142565b808516156143e257918102915b93841c93908002906143b9565b509250929050565b60008261440657506001610772565b8161441357506000610772565b816001811461442957600281146144335761444f565b6001915050610772565b60ff84111561444457614444614142565b50506001821b610772565b5060208310610133831016604e8410600b8410161715614472575081810a610772565b61447c83836143b4565b806000190482111561449057614490614142565b029392505050565b60006117b483836143f7565b60008060008060008060c087890312156144bd57600080fd5b8635955060208701356144cf816130a3565b945060408701356144df8161378d565b935060608701356144ef8161378d565b925060808701356144ff8161378d565b915060a08701356001600160401b0381111561451a57600080fd5b61452689828a016134c9565b9150509295509295509295565b60006080828403121561454557600080fd5b604051608081018181106001600160401b0382111715614567576145676132c9565b60405282516145758161378d565b815260208301516145858161378d565b602082015260408301516145988161378d565b604082015260608301516145ab8161378d565b60608201529392505050565b600061014082840312156145ca57600080fd5b6145d261334c565b825181526020830151602082015260408301516040820152606083015160608201526080830151608082015260a083015160a082015260c083015160c082015261461e60e08401614042565b60e0820152610100838101519082015261012061463c818501613ece565b908201529392505050565b6001600160a01b038581168252841660208201526040810183905260806060820181905260009061467a908301846130fa565b9695505050505050565b60006020828403121561469657600080fd5b81516117b4816130a3565b6000806000606084860312156146b657600080fd5b8351925060208401519150604084015190509250925092565b601f8211156108b857600081815260208120601f850160051c810160208610156146f65750805b601f850160051c820191505b81811015610a9857828155600101614702565b81516001600160401b0381111561472e5761472e6132c9565b6147428161473c8454613cd0565b846146cf565b602080601f831160018114614777576000841561475f5750858301515b600019600386901b1c1916600185901b178555610a98565b600085815260208120601f198616915b828110156147a657888601518255948401946001909101908401614787565b50858210156147c45787850151600019600388901b60f8161c191681555b5050505050600190811b0190555056fea2646970667358221220b213190839ab044bbcce563c28b1ec6c756d3dfe79d23fc5fe4c939c163af96764736f6c63430008100033",
    "linkReferences": {
      "contracts/libraries/JBIpfsDecoder.sol": {
        "JBIpfsDecoder": [
          {
            "start": 6250,
            "length": 20
          }
        ]
      }
    }
  },
  "methodIdentifiers": {
    "adjustTiers((uint256,uint256,uint256,uint256,uint256,address,bytes32,bool,bool)[],uint256[])": "211eb001",
    "approve(address,uint256)": "095ea7b3",
    "balanceOf(address)": "70a08231",
    "contractURI()": "e8a3d485",
    "creditsOf(address)": "245a45b5",
    "didPay((address,uint256,uint256,(address,uint256,uint256,uint256),(address,uint256,uint256,uint256),uint256,address,bool,string,bytes))": "da9ee8b7",
    "didRedeem((address,uint256,uint256,uint256,(address,uint256,uint256,uint256),(address,uint256,uint256,uint256),address,string,bytes))": "2b13c58f",
    "directory()": "c41c2f24",
    "firstOwnerOf(uint256)": "54c6d1f5",
    "fundingCycleStore()": "557e7155",
    "getApproved(uint256)": "081812fc",
    "initialize(uint256,address,string,string,address,string,address,string,((uint256,uint256,uint256,uint256,uint256,address,bytes32,bool,bool)[],uint256,uint256,address),address,(bool,bool,bool,bool))": "dfedb3af",
    "isApprovedForAll(address,address)": "e985e9c5",
    "mintFor((uint16[],address)[])": "36c1a93b",
    "mintFor(uint16[],address)": "6ac6d941",
    "mintReservesFor((uint256,uint256)[])": "2a596e53",
    "mintReservesFor(uint256,uint256)": "aa4fb15b",
    "name()": "06fdde03",
    "owner()": "8da5cb5b",
    "ownerOf(uint256)": "6352211e",
    "payParams((address,address,(address,uint256,uint256,uint256),uint256,uint256,address,uint256,uint256,string,bytes))": "d46cf171",
    "prices()": "d3419bf3",
    "pricingCurrency()": "64640c1e",
    "pricingDecimals()": "4ecba625",
    "projectId()": "3fafa127",
    "redeemParams((address,address,uint256,uint256,uint256,uint256,uint256,(address,uint256,uint256,uint256),bool,uint256,string,bytes))": "a51cfd18",
    "renounceOwnership()": "715018a6",
    "safeTransferFrom(address,address,uint256)": "42842e0e",
    "safeTransferFrom(address,address,uint256,bytes)": "b88d4fde",
    "setApprovalForAll(address,bool)": "a22cb465",
    "setBaseUri(string)": "a0bcfc7f",
    "setContractUri(string)": "ccb4807b",
    "setDefaultReservedTokenBeneficiary(address)": "df487e26",
    "setTokenUriResolver(address)": "2407497e",
    "store()": "975057e7",
    "supportsInterface(bytes4)": "01ffc9a7",
    "symbol()": "95d89b41",
    "tokenURI(uint256)": "c87b56dd",
    "transferFrom(address,address,uint256)": "23b872dd",
    "transferOwnership(address)": "f2fde38b"
  },
  "id": 2
}