{
  "abi": [
    {
      "inputs": [
        {
          "internalType": "contract IJBProjects",
          "name": "_projects",
          "type": "address"
        },
        {
          "internalType": "contract IJBOperatorStore",
          "name": "_operatorStore",
          "type": "address"
        }
      ],
      "stateMutability": "nonpayable",
      "type": "constructor"
    },
    {
      "inputs": [],
      "name": "ALEADY_MINTED",
      "type": "error"
    },
    {
      "inputs": [],
      "name": "APPROVAL_TO_CURRENT_OWNER",
      "type": "error"
    },
    {
      "inputs": [],
      "name": "APPROVE_TO_CALLER",
      "type": "error"
    },
    {
      "inputs": [],
      "name": "CALLER_NOT_OWNER_OR_APPROVED",
      "type": "error"
    },
    {
      "inputs": [],
      "name": "INCORRECT_OWNER",
      "type": "error"
    },
    {
      "inputs": [
        {
          "internalType": "address",
          "name": "ownerAddress",
          "type": "address"
        },
        {
          "internalType": "uint256",
          "name": "projectId",
          "type": "uint256"
        }
      ],
      "name": "INVALID_NEW_OWNER",
      "type": "error"
    },
    {
      "inputs": [],
      "name": "INVALID_PAYMENT_EVENT",
      "type": "error"
    },
    {
      "inputs": [],
      "name": "INVALID_REDEMPTION_EVENT",
      "type": "error"
    },
    {
      "inputs": [],
      "name": "INVALID_REDEMPTION_METADATA",
      "type": "error"
    },
    {
      "inputs": [],
      "name": "INVALID_TOKEN_ID",
      "type": "error"
    },
    {
      "inputs": [],
      "name": "MINT_TO_ZERO",
      "type": "error"
    },
    {
      "inputs": [],
      "name": "OVERSPENDING",
      "type": "error"
    },
    {
      "inputs": [
        {
          "internalType": "uint256",
          "name": "prod1",
          "type": "uint256"
        },
        {
          "internalType": "uint256",
          "name": "denominator",
          "type": "uint256"
        }
      ],
      "name": "PRBMath__MulDivOverflow",
      "type": "error"
    },
    {
      "inputs": [],
      "name": "RESERVED_TOKEN_MINTING_PAUSED",
      "type": "error"
    },
    {
      "inputs": [],
      "name": "TRANSFERS_PAUSED",
      "type": "error"
    },
    {
      "inputs": [],
      "name": "TRANSFER_TO_NON_IMPLEMENTER",
      "type": "error"
    },
    {
      "inputs": [],
      "name": "TRANSFER_TO_ZERO_ADDRESS",
      "type": "error"
    },
    {
      "inputs": [],
      "name": "UNAUTHORIZED",
      "type": "error"
    },
    {
      "inputs": [
        {
          "internalType": "uint256",
          "name": "_tokenId",
          "type": "uint256"
        }
      ],
      "name": "UNAUTHORIZED_TOKEN",
      "type": "error"
    },
    {
      "inputs": [],
      "name": "UNEXPECTED_TOKEN_REDEEMED",
      "type": "error"
    },
    {
      "anonymous": false,
      "inputs": [
        {
          "indexed": true,
          "internalType": "uint256",
          "name": "changeAmount",
          "type": "uint256"
        },
        {
          "indexed": true,
          "internalType": "uint256",
          "name": "newTotalCredits",
          "type": "uint256"
        },
        {
          "indexed": true,
          "internalType": "address",
          "name": "account",
          "type": "address"
        },
        {
          "indexed": false,
          "internalType": "address",
          "name": "caller",
          "type": "address"
        }
      ],
      "name": "AddCredits",
      "type": "event"
    },
    {
      "anonymous": false,
      "inputs": [
        {
          "indexed": true,
          "internalType": "uint256",
          "name": "tierId",
          "type": "uint256"
        },
        {
          "components": [
            {
              "internalType": "uint104",
              "name": "price",
              "type": "uint104"
            },
            {
              "internalType": "uint32",
              "name": "initialQuantity",
              "type": "uint32"
            },
            {
              "internalType": "uint32",
              "name": "votingUnits",
              "type": "uint32"
            },
            {
              "internalType": "uint16",
              "name": "reservedRate",
              "type": "uint16"
            },
            {
              "internalType": "address",
              "name": "reservedTokenBeneficiary",
              "type": "address"
            },
            {
              "internalType": "bytes32",
              "name": "encodedIPFSUri",
              "type": "bytes32"
            },
            {
              "internalType": "uint24",
              "name": "category",
              "type": "uint24"
            },
            {
              "internalType": "bool",
              "name": "allowManualMint",
              "type": "bool"
            },
            {
              "internalType": "bool",
              "name": "shouldUseReservedTokenBeneficiaryAsDefault",
              "type": "bool"
            },
            {
              "internalType": "bool",
              "name": "transfersPausable",
              "type": "bool"
            },
            {
              "internalType": "bool",
              "name": "useVotingUnits",
              "type": "bool"
            }
          ],
          "indexed": false,
          "internalType": "struct JB721TierParams",
          "name": "data",
          "type": "tuple"
        },
        {
          "indexed": false,
          "internalType": "address",
          "name": "caller",
          "type": "address"
        }
      ],
      "name": "AddTier",
      "type": "event"
    },
    {
      "anonymous": false,
      "inputs": [
        {
          "indexed": true,
          "internalType": "address",
          "name": "owner",
          "type": "address"
        },
        {
          "indexed": true,
          "internalType": "address",
          "name": "approved",
          "type": "address"
        },
        {
          "indexed": true,
          "internalType": "uint256",
          "name": "tokenId",
          "type": "uint256"
        }
      ],
      "name": "Approval",
      "type": "event"
    },
    {
      "anonymous": false,
      "inputs": [
        {
          "indexed": true,
          "internalType": "address",
          "name": "owner",
          "type": "address"
        },
        {
          "indexed": true,
          "internalType": "address",
          "name": "operator",
          "type": "address"
        },
        {
          "indexed": false,
          "internalType": "bool",
          "name": "approved",
          "type": "bool"
        }
      ],
      "name": "ApprovalForAll",
      "type": "event"
    },
    {
      "anonymous": false,
      "inputs": [
        {
          "indexed": true,
          "internalType": "uint256",
          "name": "tokenId",
          "type": "uint256"
        },
        {
          "indexed": true,
          "internalType": "uint256",
          "name": "tierId",
          "type": "uint256"
        },
        {
          "indexed": true,
          "internalType": "address",
          "name": "beneficiary",
          "type": "address"
        },
        {
          "indexed": false,
          "internalType": "uint256",
          "name": "totalAmountContributed",
          "type": "uint256"
        },
        {
          "indexed": false,
          "internalType": "address",
          "name": "caller",
          "type": "address"
        }
      ],
      "name": "Mint",
      "type": "event"
    },
    {
      "anonymous": false,
      "inputs": [
        {
          "indexed": true,
          "internalType": "uint256",
          "name": "tokenId",
          "type": "uint256"
        },
        {
          "indexed": true,
          "internalType": "uint256",
          "name": "tierId",
          "type": "uint256"
        },
        {
          "indexed": true,
          "internalType": "address",
          "name": "beneficiary",
          "type": "address"
        },
        {
          "indexed": false,
          "internalType": "address",
          "name": "caller",
          "type": "address"
        }
      ],
      "name": "MintReservedToken",
      "type": "event"
    },
    {
      "anonymous": false,
      "inputs": [
        {
          "indexed": true,
          "internalType": "address",
          "name": "previousOwner",
          "type": "address"
        },
        {
          "indexed": true,
          "internalType": "address",
          "name": "newOwner",
          "type": "address"
        }
      ],
      "name": "OwnershipTransferred",
      "type": "event"
    },
    {
      "anonymous": false,
      "inputs": [
        {
          "indexed": false,
          "internalType": "uint8",
          "name": "newIndex",
          "type": "uint8"
        }
      ],
      "name": "PermissionIndexChanged",
      "type": "event"
    },
    {
      "anonymous": false,
      "inputs": [
        {
          "indexed": true,
          "internalType": "uint256",
          "name": "tierId",
          "type": "uint256"
        },
        {
          "indexed": false,
          "internalType": "address",
          "name": "caller",
          "type": "address"
        }
      ],
      "name": "RemoveTier",
      "type": "event"
    },
    {
      "anonymous": false,
      "inputs": [
        {
          "indexed": true,
          "internalType": "string",
          "name": "baseUri",
          "type": "string"
        },
        {
          "indexed": false,
          "internalType": "address",
          "name": "caller",
          "type": "address"
        }
      ],
      "name": "SetBaseUri",
      "type": "event"
    },
    {
      "anonymous": false,
      "inputs": [
        {
          "indexed": true,
          "internalType": "string",
          "name": "contractUri",
          "type": "string"
        },
        {
          "indexed": false,
          "internalType": "address",
          "name": "caller",
          "type": "address"
        }
      ],
      "name": "SetContractUri",
      "type": "event"
    },
    {
      "anonymous": false,
      "inputs": [
        {
          "indexed": true,
          "internalType": "uint256",
          "name": "tierId",
          "type": "uint256"
        },
        {
          "indexed": false,
          "internalType": "bytes32",
          "name": "encodedIPFSUri",
          "type": "bytes32"
        },
        {
          "indexed": false,
          "internalType": "address",
          "name": "caller",
          "type": "address"
        }
      ],
      "name": "SetEncodedIPFSUri",
      "type": "event"
    },
    {
      "anonymous": false,
      "inputs": [
        {
          "indexed": true,
          "internalType": "contract IJB721TokenUriResolver",
          "name": "newResolver",
          "type": "address"
        },
        {
          "indexed": false,
          "internalType": "address",
          "name": "caller",
          "type": "address"
        }
      ],
      "name": "SetTokenUriResolver",
      "type": "event"
    },
    {
      "anonymous": false,
      "inputs": [
        {
          "indexed": true,
          "internalType": "address",
          "name": "from",
          "type": "address"
        },
        {
          "indexed": true,
          "internalType": "address",
          "name": "to",
          "type": "address"
        },
        {
          "indexed": true,
          "internalType": "uint256",
          "name": "tokenId",
          "type": "uint256"
        }
      ],
      "name": "Transfer",
      "type": "event"
    },
    {
      "anonymous": false,
      "inputs": [
        {
          "indexed": true,
          "internalType": "uint256",
          "name": "changeAmount",
          "type": "uint256"
        },
        {
          "indexed": true,
          "internalType": "uint256",
          "name": "newTotalCredits",
          "type": "uint256"
        },
        {
          "indexed": true,
          "internalType": "address",
          "name": "account",
          "type": "address"
        },
        {
          "indexed": false,
          "internalType": "address",
          "name": "caller",
          "type": "address"
        }
      ],
      "name": "UseCredits",
      "type": "event"
    },
    {
      "inputs": [
        {
          "components": [
            {
              "internalType": "uint104",
              "name": "price",
              "type": "uint104"
            },
            {
              "internalType": "uint32",
              "name": "initialQuantity",
              "type": "uint32"
            },
            {
              "internalType": "uint32",
              "name": "votingUnits",
              "type": "uint32"
            },
            {
              "internalType": "uint16",
              "name": "reservedRate",
              "type": "uint16"
            },
            {
              "internalType": "address",
              "name": "reservedTokenBeneficiary",
              "type": "address"
            },
            {
              "internalType": "bytes32",
              "name": "encodedIPFSUri",
              "type": "bytes32"
            },
            {
              "internalType": "uint24",
              "name": "category",
              "type": "uint24"
            },
            {
              "internalType": "bool",
              "name": "allowManualMint",
              "type": "bool"
            },
            {
              "internalType": "bool",
              "name": "shouldUseReservedTokenBeneficiaryAsDefault",
              "type": "bool"
            },
            {
              "internalType": "bool",
              "name": "transfersPausable",
              "type": "bool"
            },
            {
              "internalType": "bool",
              "name": "useVotingUnits",
              "type": "bool"
            }
          ],
          "internalType": "struct JB721TierParams[]",
          "name": "_tiersToAdd",
          "type": "tuple[]"
        },
        {
          "internalType": "uint256[]",
          "name": "_tierIdsToRemove",
          "type": "uint256[]"
        }
      ],
      "name": "adjustTiers",
      "outputs": [],
      "stateMutability": "nonpayable",
      "type": "function"
    },
    {
      "inputs": [
        {
          "internalType": "address",
          "name": "to",
          "type": "address"
        },
        {
          "internalType": "uint256",
          "name": "tokenId",
          "type": "uint256"
        }
      ],
      "name": "approve",
      "outputs": [],
      "stateMutability": "nonpayable",
      "type": "function"
    },
    {
      "inputs": [
        {
          "internalType": "address",
          "name": "_owner",
          "type": "address"
        }
      ],
      "name": "balanceOf",
      "outputs": [
        {
          "internalType": "uint256",
          "name": "balance",
          "type": "uint256"
        }
      ],
      "stateMutability": "view",
      "type": "function"
    },
    {
      "inputs": [],
      "name": "baseURI",
      "outputs": [
        {
          "internalType": "string",
          "name": "",
          "type": "string"
        }
      ],
      "stateMutability": "view",
      "type": "function"
    },
    {
      "inputs": [],
      "name": "codeOrigin",
      "outputs": [
        {
          "internalType": "address",
          "name": "",
          "type": "address"
        }
      ],
      "stateMutability": "view",
      "type": "function"
    },
    {
      "inputs": [],
      "name": "contractURI",
      "outputs": [
        {
          "internalType": "string",
          "name": "",
          "type": "string"
        }
      ],
      "stateMutability": "view",
      "type": "function"
    },
    {
      "inputs": [
        {
          "internalType": "address",
          "name": "",
          "type": "address"
        }
      ],
      "name": "creditsOf",
      "outputs": [
        {
          "internalType": "uint256",
          "name": "",
          "type": "uint256"
        }
      ],
      "stateMutability": "view",
      "type": "function"
    },
    {
      "inputs": [
        {
          "components": [
            {
              "internalType": "address",
              "name": "payer",
              "type": "address"
            },
            {
              "internalType": "uint256",
              "name": "projectId",
              "type": "uint256"
            },
            {
              "internalType": "uint256",
              "name": "currentFundingCycleConfiguration",
              "type": "uint256"
            },
            {
              "components": [
                {
                  "internalType": "address",
                  "name": "token",
                  "type": "address"
                },
                {
                  "internalType": "uint256",
                  "name": "value",
                  "type": "uint256"
                },
                {
                  "internalType": "uint256",
                  "name": "decimals",
                  "type": "uint256"
                },
                {
                  "internalType": "uint256",
                  "name": "currency",
                  "type": "uint256"
                }
              ],
              "internalType": "struct JBTokenAmount",
              "name": "amount",
              "type": "tuple"
            },
            {
              "components": [
                {
                  "internalType": "address",
                  "name": "token",
                  "type": "address"
                },
                {
                  "internalType": "uint256",
                  "name": "value",
                  "type": "uint256"
                },
                {
                  "internalType": "uint256",
                  "name": "decimals",
                  "type": "uint256"
                },
                {
                  "internalType": "uint256",
                  "name": "currency",
                  "type": "uint256"
                }
              ],
              "internalType": "struct JBTokenAmount",
              "name": "forwardedAmount",
              "type": "tuple"
            },
            {
              "internalType": "uint256",
              "name": "projectTokenCount",
              "type": "uint256"
            },
            {
              "internalType": "address",
              "name": "beneficiary",
              "type": "address"
            },
            {
              "internalType": "bool",
              "name": "preferClaimedTokens",
              "type": "bool"
            },
            {
              "internalType": "string",
              "name": "memo",
              "type": "string"
            },
            {
              "internalType": "bytes",
              "name": "metadata",
              "type": "bytes"
            }
          ],
          "internalType": "struct JBDidPayData",
          "name": "_data",
          "type": "tuple"
        }
      ],
      "name": "didPay",
      "outputs": [],
      "stateMutability": "payable",
      "type": "function"
    },
    {
      "inputs": [
        {
          "components": [
            {
              "internalType": "address",
              "name": "holder",
              "type": "address"
            },
            {
              "internalType": "uint256",
              "name": "projectId",
              "type": "uint256"
            },
            {
              "internalType": "uint256",
              "name": "currentFundingCycleConfiguration",
              "type": "uint256"
            },
            {
              "internalType": "uint256",
              "name": "projectTokenCount",
              "type": "uint256"
            },
            {
              "components": [
                {
                  "internalType": "address",
                  "name": "token",
                  "type": "address"
                },
                {
                  "internalType": "uint256",
                  "name": "value",
                  "type": "uint256"
                },
                {
                  "internalType": "uint256",
                  "name": "decimals",
                  "type": "uint256"
                },
                {
                  "internalType": "uint256",
                  "name": "currency",
                  "type": "uint256"
                }
              ],
              "internalType": "struct JBTokenAmount",
              "name": "reclaimedAmount",
              "type": "tuple"
            },
            {
              "components": [
                {
                  "internalType": "address",
                  "name": "token",
                  "type": "address"
                },
                {
                  "internalType": "uint256",
                  "name": "value",
                  "type": "uint256"
                },
                {
                  "internalType": "uint256",
                  "name": "decimals",
                  "type": "uint256"
                },
                {
                  "internalType": "uint256",
                  "name": "currency",
                  "type": "uint256"
                }
              ],
              "internalType": "struct JBTokenAmount",
              "name": "forwardedAmount",
              "type": "tuple"
            },
            {
              "internalType": "address payable",
              "name": "beneficiary",
              "type": "address"
            },
            {
              "internalType": "string",
              "name": "memo",
              "type": "string"
            },
            {
              "internalType": "bytes",
              "name": "metadata",
              "type": "bytes"
            }
          ],
          "internalType": "struct JBDidRedeemData",
          "name": "_data",
          "type": "tuple"
        }
      ],
      "name": "didRedeem",
      "outputs": [],
      "stateMutability": "payable",
      "type": "function"
    },
    {
      "inputs": [],
      "name": "directory",
      "outputs": [
        {
          "internalType": "contract IJBDirectory",
          "name": "",
          "type": "address"
        }
      ],
      "stateMutability": "view",
      "type": "function"
    },
    {
      "inputs": [
        {
          "internalType": "uint256",
          "name": "_tokenId",
          "type": "uint256"
        }
      ],
      "name": "firstOwnerOf",
      "outputs": [
        {
          "internalType": "address",
          "name": "",
          "type": "address"
        }
      ],
      "stateMutability": "view",
      "type": "function"
    },
    {
      "inputs": [],
      "name": "fundingCycleStore",
      "outputs": [
        {
          "internalType": "contract IJBFundingCycleStore",
          "name": "",
          "type": "address"
        }
      ],
      "stateMutability": "view",
      "type": "function"
    },
    {
      "inputs": [
        {
          "internalType": "uint256",
          "name": "tokenId",
          "type": "uint256"
        }
      ],
      "name": "getApproved",
      "outputs": [
        {
          "internalType": "address",
          "name": "",
          "type": "address"
        }
      ],
      "stateMutability": "view",
      "type": "function"
    },
    {
      "inputs": [
        {
          "internalType": "uint256",
          "name": "_projectId",
          "type": "uint256"
        },
        {
          "internalType": "contract IJBDirectory",
          "name": "_directory",
          "type": "address"
        },
        {
          "internalType": "string",
          "name": "_name",
          "type": "string"
        },
        {
          "internalType": "string",
          "name": "_symbol",
          "type": "string"
        },
        {
          "internalType": "contract IJBFundingCycleStore",
          "name": "_fundingCycleStore",
          "type": "address"
        },
        {
          "internalType": "string",
          "name": "_baseUri",
          "type": "string"
        },
        {
          "internalType": "contract IJB721TokenUriResolver",
          "name": "_tokenUriResolver",
          "type": "address"
        },
        {
          "internalType": "string",
          "name": "_contractUri",
          "type": "string"
        },
        {
          "components": [
            {
              "components": [
                {
                  "internalType": "uint104",
                  "name": "price",
                  "type": "uint104"
                },
                {
                  "internalType": "uint32",
                  "name": "initialQuantity",
                  "type": "uint32"
                },
                {
                  "internalType": "uint32",
                  "name": "votingUnits",
                  "type": "uint32"
                },
                {
                  "internalType": "uint16",
                  "name": "reservedRate",
                  "type": "uint16"
                },
                {
                  "internalType": "address",
                  "name": "reservedTokenBeneficiary",
                  "type": "address"
                },
                {
                  "internalType": "bytes32",
                  "name": "encodedIPFSUri",
                  "type": "bytes32"
                },
                {
                  "internalType": "uint24",
                  "name": "category",
                  "type": "uint24"
                },
                {
                  "internalType": "bool",
                  "name": "allowManualMint",
                  "type": "bool"
                },
                {
                  "internalType": "bool",
                  "name": "shouldUseReservedTokenBeneficiaryAsDefault",
                  "type": "bool"
                },
                {
                  "internalType": "bool",
                  "name": "transfersPausable",
                  "type": "bool"
                },
                {
                  "internalType": "bool",
                  "name": "useVotingUnits",
                  "type": "bool"
                }
              ],
              "internalType": "struct JB721TierParams[]",
              "name": "tiers",
              "type": "tuple[]"
            },
            {
              "internalType": "uint48",
              "name": "currency",
              "type": "uint48"
            },
            {
              "internalType": "uint48",
              "name": "decimals",
              "type": "uint48"
            },
            {
              "internalType": "contract IJBPrices",
              "name": "prices",
              "type": "address"
            }
          ],
          "internalType": "struct JB721PricingParams",
          "name": "_pricing",
          "type": "tuple"
        },
        {
          "internalType": "contract IJBTiered721DelegateStore",
          "name": "_store",
          "type": "address"
        },
        {
          "components": [
            {
              "internalType": "bool",
              "name": "lockReservedTokenChanges",
              "type": "bool"
            },
            {
              "internalType": "bool",
              "name": "lockVotingUnitChanges",
              "type": "bool"
            },
            {
              "internalType": "bool",
              "name": "lockManualMintingChanges",
              "type": "bool"
            },
            {
              "internalType": "bool",
              "name": "preventOverspending",
              "type": "bool"
            }
          ],
          "internalType": "struct JBTiered721Flags",
          "name": "_flags",
          "type": "tuple"
        }
      ],
      "name": "initialize",
      "outputs": [],
      "stateMutability": "nonpayable",
      "type": "function"
    },
    {
      "inputs": [
        {
          "internalType": "address",
          "name": "owner",
          "type": "address"
        },
        {
          "internalType": "address",
          "name": "operator",
          "type": "address"
        }
      ],
      "name": "isApprovedForAll",
      "outputs": [
        {
          "internalType": "bool",
          "name": "",
          "type": "bool"
        }
      ],
      "stateMutability": "view",
      "type": "function"
    },
    {
      "inputs": [],
      "name": "jbOwner",
      "outputs": [
        {
          "internalType": "address",
          "name": "owner",
          "type": "address"
        },
        {
          "internalType": "uint88",
          "name": "projectId",
          "type": "uint88"
        },
        {
          "internalType": "uint8",
          "name": "permissionIndex",
          "type": "uint8"
        }
      ],
      "stateMutability": "view",
      "type": "function"
    },
    {
      "inputs": [
        {
          "internalType": "uint16[]",
          "name": "_tierIds",
          "type": "uint16[]"
        },
        {
          "internalType": "address",
          "name": "_beneficiary",
          "type": "address"
        }
      ],
      "name": "mintFor",
      "outputs": [
        {
          "internalType": "uint256[]",
          "name": "tokenIds",
          "type": "uint256[]"
        }
      ],
      "stateMutability": "nonpayable",
      "type": "function"
    },
    {
      "inputs": [
        {
          "components": [
            {
              "internalType": "uint256",
              "name": "tierId",
              "type": "uint256"
            },
            {
              "internalType": "uint256",
              "name": "count",
              "type": "uint256"
            }
          ],
          "internalType": "struct JBTiered721MintReservesForTiersData[]",
          "name": "_mintReservesForTiersData",
          "type": "tuple[]"
        }
      ],
      "name": "mintReservesFor",
      "outputs": [],
      "stateMutability": "nonpayable",
      "type": "function"
    },
    {
      "inputs": [
        {
          "internalType": "uint256",
          "name": "_tierId",
          "type": "uint256"
        },
        {
          "internalType": "uint256",
          "name": "_count",
          "type": "uint256"
        }
      ],
      "name": "mintReservesFor",
      "outputs": [],
      "stateMutability": "nonpayable",
      "type": "function"
    },
    {
      "inputs": [],
      "name": "name",
      "outputs": [
        {
          "internalType": "string",
          "name": "",
          "type": "string"
        }
      ],
      "stateMutability": "view",
      "type": "function"
    },
    {
      "inputs": [],
      "name": "operatorStore",
      "outputs": [
        {
          "internalType": "contract IJBOperatorStore",
          "name": "",
          "type": "address"
        }
      ],
      "stateMutability": "view",
      "type": "function"
    },
    {
      "inputs": [],
      "name": "owner",
      "outputs": [
        {
          "internalType": "address",
          "name": "",
          "type": "address"
        }
      ],
      "stateMutability": "view",
      "type": "function"
    },
    {
      "inputs": [
        {
          "internalType": "uint256",
          "name": "tokenId",
          "type": "uint256"
        }
      ],
      "name": "ownerOf",
      "outputs": [
        {
          "internalType": "address",
          "name": "",
          "type": "address"
        }
      ],
      "stateMutability": "view",
      "type": "function"
    },
    {
      "inputs": [
        {
          "components": [
            {
              "internalType": "contract IJBPaymentTerminal",
              "name": "terminal",
              "type": "address"
            },
            {
              "internalType": "address",
              "name": "payer",
              "type": "address"
            },
            {
              "components": [
                {
                  "internalType": "address",
                  "name": "token",
                  "type": "address"
                },
                {
                  "internalType": "uint256",
                  "name": "value",
                  "type": "uint256"
                },
                {
                  "internalType": "uint256",
                  "name": "decimals",
                  "type": "uint256"
                },
                {
                  "internalType": "uint256",
                  "name": "currency",
                  "type": "uint256"
                }
              ],
              "internalType": "struct JBTokenAmount",
              "name": "amount",
              "type": "tuple"
            },
            {
              "internalType": "uint256",
              "name": "projectId",
              "type": "uint256"
            },
            {
              "internalType": "uint256",
              "name": "currentFundingCycleConfiguration",
              "type": "uint256"
            },
            {
              "internalType": "address",
              "name": "beneficiary",
              "type": "address"
            },
            {
              "internalType": "uint256",
              "name": "weight",
              "type": "uint256"
            },
            {
              "internalType": "uint256",
              "name": "reservedRate",
              "type": "uint256"
            },
            {
              "internalType": "string",
              "name": "memo",
              "type": "string"
            },
            {
              "internalType": "bytes",
              "name": "metadata",
              "type": "bytes"
            }
          ],
          "internalType": "struct JBPayParamsData",
          "name": "_data",
          "type": "tuple"
        }
      ],
      "name": "payParams",
      "outputs": [
        {
          "internalType": "uint256",
          "name": "weight",
          "type": "uint256"
        },
        {
          "internalType": "string",
          "name": "memo",
          "type": "string"
        },
        {
          "components": [
            {
              "internalType": "contract IJBPayDelegate",
              "name": "delegate",
              "type": "address"
            },
            {
              "internalType": "uint256",
              "name": "amount",
              "type": "uint256"
            }
          ],
          "internalType": "struct JBPayDelegateAllocation[]",
          "name": "delegateAllocations",
          "type": "tuple[]"
        }
      ],
      "stateMutability": "view",
      "type": "function"
    },
    {
      "inputs": [],
      "name": "pricingContext",
      "outputs": [
        {
          "internalType": "uint256",
          "name": "currency",
          "type": "uint256"
        },
        {
          "internalType": "uint256",
          "name": "decimals",
          "type": "uint256"
        },
        {
          "internalType": "contract IJBPrices",
          "name": "prices",
          "type": "address"
        }
      ],
      "stateMutability": "view",
      "type": "function"
    },
    {
      "inputs": [],
      "name": "projectId",
      "outputs": [
        {
          "internalType": "uint256",
          "name": "",
          "type": "uint256"
        }
      ],
      "stateMutability": "view",
      "type": "function"
    },
    {
      "inputs": [],
      "name": "projects",
      "outputs": [
        {
          "internalType": "contract IJBProjects",
          "name": "",
          "type": "address"
        }
      ],
      "stateMutability": "view",
      "type": "function"
    },
    {
      "inputs": [
        {
          "components": [
            {
              "internalType": "contract IJBPaymentTerminal",
              "name": "terminal",
              "type": "address"
            },
            {
              "internalType": "address",
              "name": "holder",
              "type": "address"
            },
            {
              "internalType": "uint256",
              "name": "projectId",
              "type": "uint256"
            },
            {
              "internalType": "uint256",
              "name": "currentFundingCycleConfiguration",
              "type": "uint256"
            },
            {
              "internalType": "uint256",
              "name": "tokenCount",
              "type": "uint256"
            },
            {
              "internalType": "uint256",
              "name": "totalSupply",
              "type": "uint256"
            },
            {
              "internalType": "uint256",
              "name": "overflow",
              "type": "uint256"
            },
            {
              "components": [
                {
                  "internalType": "address",
                  "name": "token",
                  "type": "address"
                },
                {
                  "internalType": "uint256",
                  "name": "value",
                  "type": "uint256"
                },
                {
                  "internalType": "uint256",
                  "name": "decimals",
                  "type": "uint256"
                },
                {
                  "internalType": "uint256",
                  "name": "currency",
                  "type": "uint256"
                }
              ],
              "internalType": "struct JBTokenAmount",
              "name": "reclaimAmount",
              "type": "tuple"
            },
            {
              "internalType": "bool",
              "name": "useTotalOverflow",
              "type": "bool"
            },
            {
              "internalType": "uint256",
              "name": "redemptionRate",
              "type": "uint256"
            },
            {
              "internalType": "string",
              "name": "memo",
              "type": "string"
            },
            {
              "internalType": "bytes",
              "name": "metadata",
              "type": "bytes"
            }
          ],
          "internalType": "struct JBRedeemParamsData",
          "name": "_data",
          "type": "tuple"
        }
      ],
      "name": "redeemParams",
      "outputs": [
        {
          "internalType": "uint256",
          "name": "reclaimAmount",
          "type": "uint256"
        },
        {
          "internalType": "string",
          "name": "memo",
          "type": "string"
        },
        {
          "components": [
            {
              "internalType": "contract IJBRedemptionDelegate",
              "name": "delegate",
              "type": "address"
            },
            {
              "internalType": "uint256",
              "name": "amount",
              "type": "uint256"
            }
          ],
          "internalType": "struct JBRedemptionDelegateAllocation[]",
          "name": "delegateAllocations",
          "type": "tuple[]"
        }
      ],
      "stateMutability": "view",
      "type": "function"
    },
    {
      "inputs": [
        {
          "internalType": "uint256[]",
          "name": "_tokenIds",
          "type": "uint256[]"
        },
        {
          "components": [
            {
              "internalType": "contract IJBPaymentTerminal",
              "name": "terminal",
              "type": "address"
            },
            {
              "internalType": "address",
              "name": "holder",
              "type": "address"
            },
            {
              "internalType": "uint256",
              "name": "projectId",
              "type": "uint256"
            },
            {
              "internalType": "uint256",
              "name": "currentFundingCycleConfiguration",
              "type": "uint256"
            },
            {
              "internalType": "uint256",
              "name": "tokenCount",
              "type": "uint256"
            },
            {
              "internalType": "uint256",
              "name": "totalSupply",
              "type": "uint256"
            },
            {
              "internalType": "uint256",
              "name": "overflow",
              "type": "uint256"
            },
            {
              "components": [
                {
                  "internalType": "address",
                  "name": "token",
                  "type": "address"
                },
                {
                  "internalType": "uint256",
                  "name": "value",
                  "type": "uint256"
                },
                {
                  "internalType": "uint256",
                  "name": "decimals",
                  "type": "uint256"
                },
                {
                  "internalType": "uint256",
                  "name": "currency",
                  "type": "uint256"
                }
              ],
              "internalType": "struct JBTokenAmount",
              "name": "reclaimAmount",
              "type": "tuple"
            },
            {
              "internalType": "bool",
              "name": "useTotalOverflow",
              "type": "bool"
            },
            {
              "internalType": "uint256",
              "name": "redemptionRate",
              "type": "uint256"
            },
            {
              "internalType": "string",
              "name": "memo",
              "type": "string"
            },
            {
              "internalType": "bytes",
              "name": "metadata",
              "type": "bytes"
            }
          ],
          "internalType": "struct JBRedeemParamsData",
          "name": "",
          "type": "tuple"
        }
      ],
      "name": "redemptionWeightOf",
      "outputs": [
        {
          "internalType": "uint256",
          "name": "",
          "type": "uint256"
        }
      ],
      "stateMutability": "view",
      "type": "function"
    },
    {
      "inputs": [],
      "name": "renounceOwnership",
      "outputs": [],
      "stateMutability": "nonpayable",
      "type": "function"
    },
    {
      "inputs": [
        {
          "internalType": "address",
          "name": "from",
          "type": "address"
        },
        {
          "internalType": "address",
          "name": "to",
          "type": "address"
        },
        {
          "internalType": "uint256",
          "name": "tokenId",
          "type": "uint256"
        }
      ],
      "name": "safeTransferFrom",
      "outputs": [],
      "stateMutability": "nonpayable",
      "type": "function"
    },
    {
      "inputs": [
        {
          "internalType": "address",
          "name": "from",
          "type": "address"
        },
        {
          "internalType": "address",
          "name": "to",
          "type": "address"
        },
        {
          "internalType": "uint256",
          "name": "tokenId",
          "type": "uint256"
        },
        {
          "internalType": "bytes",
          "name": "data",
          "type": "bytes"
        }
      ],
      "name": "safeTransferFrom",
      "outputs": [],
      "stateMutability": "nonpayable",
      "type": "function"
    },
    {
      "inputs": [
        {
          "internalType": "address",
          "name": "operator",
          "type": "address"
        },
        {
          "internalType": "bool",
          "name": "approved",
          "type": "bool"
        }
      ],
      "name": "setApprovalForAll",
      "outputs": [],
      "stateMutability": "nonpayable",
      "type": "function"
    },
    {
      "inputs": [
        {
          "internalType": "string",
          "name": "_baseUri",
          "type": "string"
        },
        {
          "internalType": "string",
          "name": "_contractUri",
          "type": "string"
        },
        {
          "internalType": "contract IJB721TokenUriResolver",
          "name": "_tokenUriResolver",
          "type": "address"
        },
        {
          "internalType": "uint256",
          "name": "_encodedIPFSUriTierId",
          "type": "uint256"
        },
        {
          "internalType": "bytes32",
          "name": "_encodedIPFSUri",
          "type": "bytes32"
        }
      ],
      "name": "setMetadata",
      "outputs": [],
      "stateMutability": "nonpayable",
      "type": "function"
    },
    {
      "inputs": [
        {
          "internalType": "uint8",
          "name": "_permissionIndex",
          "type": "uint8"
        }
      ],
      "name": "setPermissionIndex",
      "outputs": [],
      "stateMutability": "nonpayable",
      "type": "function"
    },
    {
      "inputs": [],
      "name": "store",
      "outputs": [
        {
          "internalType": "contract IJBTiered721DelegateStore",
          "name": "",
          "type": "address"
        }
      ],
      "stateMutability": "view",
      "type": "function"
    },
    {
      "inputs": [
        {
          "internalType": "bytes4",
          "name": "_interfaceId",
          "type": "bytes4"
        }
      ],
      "name": "supportsInterface",
      "outputs": [
        {
          "internalType": "bool",
          "name": "",
          "type": "bool"
        }
      ],
      "stateMutability": "view",
      "type": "function"
    },
    {
      "inputs": [],
      "name": "symbol",
      "outputs": [
        {
          "internalType": "string",
          "name": "",
          "type": "string"
        }
      ],
      "stateMutability": "view",
      "type": "function"
    },
    {
      "inputs": [
        {
          "internalType": "uint256",
          "name": "_tokenId",
          "type": "uint256"
        }
      ],
      "name": "tokenURI",
      "outputs": [
        {
          "internalType": "string",
          "name": "",
          "type": "string"
        }
      ],
      "stateMutability": "view",
      "type": "function"
    },
    {
      "inputs": [
        {
          "components": [
            {
              "internalType": "contract IJBPaymentTerminal",
              "name": "terminal",
              "type": "address"
            },
            {
              "internalType": "address",
              "name": "holder",
              "type": "address"
            },
            {
              "internalType": "uint256",
              "name": "projectId",
              "type": "uint256"
            },
            {
              "internalType": "uint256",
              "name": "currentFundingCycleConfiguration",
              "type": "uint256"
            },
            {
              "internalType": "uint256",
              "name": "tokenCount",
              "type": "uint256"
            },
            {
              "internalType": "uint256",
              "name": "totalSupply",
              "type": "uint256"
            },
            {
              "internalType": "uint256",
              "name": "overflow",
              "type": "uint256"
            },
            {
              "components": [
                {
                  "internalType": "address",
                  "name": "token",
                  "type": "address"
                },
                {
                  "internalType": "uint256",
                  "name": "value",
                  "type": "uint256"
                },
                {
                  "internalType": "uint256",
                  "name": "decimals",
                  "type": "uint256"
                },
                {
                  "internalType": "uint256",
                  "name": "currency",
                  "type": "uint256"
                }
              ],
              "internalType": "struct JBTokenAmount",
              "name": "reclaimAmount",
              "type": "tuple"
            },
            {
              "internalType": "bool",
              "name": "useTotalOverflow",
              "type": "bool"
            },
            {
              "internalType": "uint256",
              "name": "redemptionRate",
              "type": "uint256"
            },
            {
              "internalType": "string",
              "name": "memo",
              "type": "string"
            },
            {
              "internalType": "bytes",
              "name": "metadata",
              "type": "bytes"
            }
          ],
          "internalType": "struct JBRedeemParamsData",
          "name": "",
          "type": "tuple"
        }
      ],
      "name": "totalRedemptionWeight",
      "outputs": [
        {
          "internalType": "uint256",
          "name": "",
          "type": "uint256"
        }
      ],
      "stateMutability": "view",
      "type": "function"
    },
    {
      "inputs": [
        {
          "internalType": "address",
          "name": "from",
          "type": "address"
        },
        {
          "internalType": "address",
          "name": "to",
          "type": "address"
        },
        {
          "internalType": "uint256",
          "name": "tokenId",
          "type": "uint256"
        }
      ],
      "name": "transferFrom",
      "outputs": [],
      "stateMutability": "nonpayable",
      "type": "function"
    },
    {
      "inputs": [
        {
          "internalType": "address",
          "name": "_newOwner",
          "type": "address"
        }
      ],
      "name": "transferOwnership",
      "outputs": [],
      "stateMutability": "nonpayable",
      "type": "function"
    },
    {
      "inputs": [
        {
          "internalType": "uint256",
          "name": "_projectId",
          "type": "uint256"
        }
      ],
      "name": "transferOwnershipToProject",
      "outputs": [],
      "stateMutability": "nonpayable",
      "type": "function"
    }
  ],
  "bytecode": {
    "object": "0x60c06040523480156200001157600080fd5b506040516200583538038062005835833981016040819052620000349162000313565b6001600160a01b03808216608052821660a05281818181620000563362000075565b5050600a80546001600160a01b03191630179055506200037992505050565b6200008281600062000085565b50565b6001600160581b03811615801590620000a657506001600160a01b03821615155b15620000e3576040516324abfd1160e11b81526001600160a01b03831660048201526001600160581b038216602482015260440160405180910390fd5b60408051606081018252600080546001600160a01b0381168352600160a01b81046001600160581b031660208401819052600160f81b90910460ff1693830193909352909115620001b25760a05160208301516040516331a9108f60e11b81526001600160581b0390911660048201526001600160a01b0390911690636352211e90602401602060405180830381865afa15801562000186573d6000803e3d6000fd5b505050506040513d601f19601f82011682018060405250810190620001ac919062000352565b620001b5565b81515b604080516060810182526001600160a01b0387168082526001600160581b0387166020830181905260009290930182905281547fff000000000000000000000000000000000000000000000000000000000000001617600160a01b8302176001600160f81b03169055909150620002b390829015620002ac5760a0516040516331a9108f60e11b81526001600160581b03871660048201526001600160a01b0390911690636352211e90602401602060405180830381865afa15801562000280573d6000803e3d6000fd5b505050506040513d601f19601f82011682018060405250810190620002a6919062000352565b620002b9565b85620002b9565b50505050565b806001600160a01b0316826001600160a01b03167f8be0079c531659141344cd1fd0a4f28419497f9722a3daafe3b4186f6b6457e060405160405180910390a35050565b6001600160a01b03811681146200008257600080fd5b600080604083850312156200032757600080fd5b82516200033481620002fd565b60208401519092506200034781620002fd565b809150509250929050565b6000602082840312156200036557600080fd5b81516200037281620002fd565b9392505050565b60805160a05161546c620003c96000396000818161059c015281816114a60152818161262d015281816128af01526129a70152600081816106e90152818161224d01526122f6015261546c6000f3fe60806040526004361061025c5760003560e01c80637ba62bf911610144578063aa4fb15b116100b6578063c87b56dd1161007a578063c87b56dd146107b8578063d46cf171146107d8578063da9ee8b7146107f8578063e8a3d4851461080b578063e985e9c514610820578063f2fde38b1461086957600080fd5b8063aa4fb15b146106b7578063ad007d63146106d7578063b88d4fde1461070b578063ba23c36e1461072b578063c41c2f241461079857600080fd5b806395d89b411161010857806395d89b41146105f3578063975057e714610608578063a11606a814610628578063a220d69614610648578063a22cb46514610668578063a51cfd181461068857600080fd5b80637ba62bf91461054a578063843d92ee1461056a5780638b79543c1461058a5780638da5cb5b146105be5780639494bf72146105d357600080fd5b80632b13c58f116101dd57806361aec7a9116101a157806361aec7a9146104935780636352211e146104b35780636ac6d941146104d35780636c0360eb1461050057806370a0823114610515578063715018a61461053557600080fd5b80632b13c58f1461040a5780633fafa1271461041d57806342842e0e1461043357806354c6d1f514610453578063557e71551461047357600080fd5b80631435aad5116102245780631435aad51461034f5780631d153ca41461036f57806323b872dd1461038f578063245a45b5146103af5780632a596e53146103ea57600080fd5b806301ffc9a71461026157806306fdde0314610296578063081812fc146102b857806308786b1a146102f0578063095ea7b31461032d575b600080fd5b34801561026d57600080fd5b5061028161027c366004613a6e565b610889565b60405190151581526020015b60405180910390f35b3480156102a257600080fd5b506102ab6108b4565b60405161028d9190613adb565b3480156102c457600080fd5b506102d86102d3366004613aee565b610946565b6040516001600160a01b03909116815260200161028d565b3480156102fc57600080fd5b506009546040805165ffffffffffff8084168252603084901c166020820152606092831c918101919091520161028d565b34801561033957600080fd5b5061034d610348366004613b2c565b61096d565b005b34801561035b57600080fd5b5061034d61036a366004613ba0565b6109f9565b34801561037b57600080fd5b50600a546102d8906001600160a01b031681565b34801561039b57600080fd5b5061034d6103aa366004613c35565b610c3c565b3480156103bb57600080fd5b506103dc6103ca366004613c76565b600d6020526000908152604090205481565b60405190815260200161028d565b3480156103f657600080fd5b5061034d610405366004613c93565b610c6e565b61034d610418366004613d20565b610cc7565b34801561042957600080fd5b506103dc60065481565b34801561043f57600080fd5b5061034d61044e366004613c35565b610ea9565b34801561045f57600080fd5b506102d861046e366004613aee565b610ec4565b34801561047f57600080fd5b50600c546102d8906001600160a01b031681565b34801561049f57600080fd5b5061034d6104ae366004613d54565b610f05565b3480156104bf57600080fd5b506102d86104ce366004613aee565b610f19565b3480156104df57600080fd5b506104f36104ee366004613dbb565b610f4f565b60405161028d9190613e4c565b34801561050c57600080fd5b506102ab6110a8565b34801561052157600080fd5b506103dc610530366004613c76565b611136565b34801561054157600080fd5b5061034d6111ac565b34801561055657600080fd5b506103dc610565366004613fc4565b6111c1565b34801561057657600080fd5b5061034d610585366004614027565b61123c565b34801561059657600080fd5b506102d87f000000000000000000000000000000000000000000000000000000000000000081565b3480156105ca57600080fd5b506102d8611432565b3480156105df57600080fd5b506103dc6105ee366004613d20565b61151f565b3480156105ff57600080fd5b506102ab611550565b34801561061457600080fd5b50600b546102d8906001600160a01b031681565b34801561063457600080fd5b5061034d6106433660046143b1565b61155f565b34801561065457600080fd5b5061034d610663366004613aee565b6117d3565b34801561067457600080fd5b5061034d6106833660046144ea565b611821565b34801561069457600080fd5b506106a86106a3366004613d20565b611830565b60405161028d93929190614523565b3480156106c357600080fd5b5061034d6106d2366004614595565b611a8f565b3480156106e357600080fd5b506102d87f000000000000000000000000000000000000000000000000000000000000000081565b34801561071757600080fd5b5061034d6107263660046145b7565b611cac565b34801561073757600080fd5b50600054610768906001600160a01b03811690600160a01b81046001600160581b031690600160f81b900460ff1683565b604080516001600160a01b0390941684526001600160581b03909216602084015260ff169082015260600161028d565b3480156107a457600080fd5b506007546102d8906001600160a01b031681565b3480156107c457600080fd5b506102ab6107d3366004613aee565b611cdf565b3480156107e457600080fd5b506106a86107f3366004614636565b611edc565b61034d610806366004614671565b611fbf565b34801561081757600080fd5b506102ab612076565b34801561082c57600080fd5b5061028161083b3660046146ac565b6001600160a01b03918216600090815260056020908152604080832093909416825291909152205460ff1690565b34801561087557600080fd5b5061034d610884366004613c76565b612083565b60006001600160e01b03198216631f162d3f60e31b14806108ae57506108ae826120cf565b92915050565b6060600180546108c3906146da565b80601f01602080910402602001604051908101604052809291908181526020018280546108ef906146da565b801561093c5780601f106109115761010080835404028352916020019161093c565b820191906000526020600020905b81548152906001019060200180831161091f57829003601f168201915b5050505050905090565b600061095182612160565b506000908152600460205260409020546001600160a01b031690565b600061097882610f19565b9050806001600160a01b0316836001600160a01b0316036109ac5760405163133f8be960e01b815260040160405180910390fd5b336001600160a01b038216148015906109cc57506109ca813361083b565b155b156109ea5760405163e5fa0e3560e01b815260040160405180910390fd5b6109f48383612195565b505050565b610a01611432565b6006546016610a11838383612203565b8815610a7057600e610a248a8c83614754565b508989604051610a35929190614813565b604051908190038120338252907f7bc9110d5de090dd59e07912d2b93a5a27ac70a60c8d8e324db4f9ee8b8b5c139060200160405180910390a25b8615610acf57600f610a83888a83614754565b508787604051610a94929190614813565b604051908190038120338252907fd36dc0c1a06103fdcaf15f3f6fb797d1a97997514c78de073640c8b5005454b89060200160405180910390a25b6001600160a01b0386163014610b7d57600b5460405163036129cb60e61b81526001600160a01b0388811660048301529091169063d84a72c090602401600060405180830381600087803b158015610b2657600080fd5b505af1158015610b3a573d6000803e3d6000fd5b50506040513381526001600160a01b03891692507fe7784d93cfbfa4408e19577e6cc0436f4dbb51214b70e100905dfce9def88c16915060200160405180910390a25b8415801590610b8b57508315155b15610c3057600b546040516324de8d6360e11b815260048101879052602481018690526001600160a01b03909116906349bd1ac690604401600060405180830381600087803b158015610bdd57600080fd5b505af1158015610bf1573d6000803e3d6000fd5b5050604080518781523360208201528893507f677da4fed654db8e604791fa2582f342e2001aa217e27f6985eb3e0f67e5a7fc92500160405180910390a25b50505050505050505050565b610c463382612381565b610c635760405163e5fa0e3560e01b815260040160405180910390fd5b6109f4838383612400565b8060005b81811015610cc1576000848483818110610c8e57610c8e614823565b905060400201803603810190610ca49190614839565b9050610cb881600001518260200151611a8f565b50600101610c72565b50505050565b34151580610d495750600754600654604051636e49181f60e01b815260048101919091523360248201526001600160a01b0390911690636e49181f90604401602060405180830381865afa158015610d23573d6000803e3d6000fd5b505050506040513d601f19601f82011682018060405250810190610d479190614892565b155b80610d5a5750600654816020013514155b15610d7857604051633efca5c360e11b815260040160405180910390fd5b6024610d886101c08301836148af565b90501080610dcc575063fbb38e0360e01b610da76101c08301836148af565b610db6916024916020916148f5565b610dbf9161491f565b6001600160e01b03191614155b15610dea57604051632a84050f60e01b815260040160405180910390fd5b6000610dfa6101c08301836148af565b810190610e07919061494f565b925050506000815190506000805b82811015610e9f57838181518110610e2f57610e2f614823565b60200260200101519150846000016020810190610e4c9190613c76565b6000838152600360205260409020546001600160a01b03908116911614610e8e57604051635caf197560e01b8152600481018390526024015b60405180910390fd5b610e97826124d9565b600101610e15565b50610cc18361255a565b6109f483838360405180602001604052806000815250611cac565b6000818152600860205260408120546001600160a01b03168015610ee85792915050565b50506000908152600360205260409020546001600160a01b031690565b610f0d6125bf565b610f16816126c9565b50565b6000818152600360205260408120546001600160a01b0316806108ae5760405163b49aa3b560e01b815260040160405180910390fd5b6060610f59611432565b6006546017610f69838383612203565b600b5460405163eaa19ab360e01b81526001600160a01b039091169063eaa19ab390610fa290600019908b908b906001906004016149a7565b6000604051808303816000875af1158015610fc1573d6000803e3d6000fd5b505050506040513d6000823e601f3d908101601f19168201604052610fe99190810190614a5f565b509350856000805b8281101561109b5786818151811061100b5761100b614823565b6020026020010151915061101f888361271f565b876001600160a01b03168a8a8381811061103b5761103b614823565b90506020020160208101906110509190614aa5565b604080516000815233602082015261ffff929092169185917f598baf7bf150ca2f42be9e9f8f55e81d45f5715c3ff22bf46d697fabec7f31d6910160405180910390a4600101610ff1565b5050505050509392505050565b600e80546110b5906146da565b80601f01602080910402602001604051908101604052809291908181526020018280546110e1906146da565b801561112e5780601f106111035761010080835404028352916020019161112e565b820191906000526020600020905b81548152906001019060200180831161111157829003601f168201915b505050505081565b600b54604051633de222bb60e21b81523060048201526001600160a01b038381166024830152600092169063f7888aec906044015b602060405180830381865afa158015611188573d6000803e3d6000fd5b505050506040513d601f19601f820116820180604052508101906108ae9190614ac0565b6111b46125bf565b6111bf6000806127e9565b565b600b5460405163051330b560e21b81526000916001600160a01b03169063144cc2d4906111f49030908790600401614ad9565b602060405180830381865afa158015611211573d6000803e3d6000fd5b505050506040513d601f19601f820116820180604052508101906112359190614ac0565b9392505050565b611244611432565b6006546015611254838383612203565b8584801561132457600b546040516320512ba160e01b81526001600160a01b03909116906320512ba19061128e908a908a90600401614afd565b600060405180830381600087803b1580156112a857600080fd5b505af11580156112bc573d6000803e3d6000fd5b5050505060005b81811015611322578787828181106112dd576112dd614823565b60405133815260209182029390930135927f832d89d991be5351d793c20faf4b7dd44f8aa9ce39e3cb160c6317de6fbba72992500160405180910390a26001016112c3565b505b811561142757600b54604051638da5e32b60e01b81526000916001600160a01b031690638da5e32b9061135d908d908d90600401614c22565b6000604051808303816000875af115801561137c573d6000803e3d6000fd5b505050506040513d6000823e601f3d908101601f191682016040526113a49190810190614c65565b905060005b83811015611424578181815181106113c3576113c3614823565b60200260200101517f1af6ad8cdb16b4d1fbc75701ef89105100ac32fb4fcd841b47adf8c03e04455d8c8c848181106113fe576113fe614823565b9050610160020133604051611414929190614c99565b60405180910390a26001016113a9565b50505b505050505050505050565b60408051606081018252600080546001600160a01b0381168352600160a01b81046001600160581b031660208401819052600160f81b90910460ff16938301939093529182036114825751919050565b60208101516040516331a9108f60e11b81526001600160581b0390911660048201527f00000000000000000000000000000000000000000000000000000000000000006001600160a01b031690636352211e90602401602060405180830381865afa1580156114f5573d6000803e3d6000fd5b505050506040513d601f19601f820116820180604052508101906115199190614ccc565b91505090565b600b54604051631572f24960e11b81523060048201526000916001600160a01b031690632ae5e4929060240161116b565b6060600280546108c3906146da565b600b546001600160a01b03161561157557600080fd5b6115818b8b8b8b612a25565b600c80546001600160a01b03808a166001600160a01b031992831617909255600b805492851692909116919091179055602083015160408401516060808601516bffffffffffffffffffffffff19911b166bffffffffffff00000000000060309290921b9190911665ffffffffffff9092169190911717600981905586511561161257600e6116108882614ce9565b505b84511561162757600f6116258682614ce9565b505b6001600160a01b038616156116925760405163036129cb60e61b81526001600160a01b03878116600483015284169063d84a72c090602401600060405180830381600087803b15801561167957600080fd5b505af115801561168d573d6000803e3d6000fd5b505050505b83515115611710578351604051638da5e32b60e01b81526001600160a01b03851691638da5e32b916116c79190600401614da8565b6000604051808303816000875af11580156116e6573d6000803e3d6000fd5b505050506040513d6000823e601f3d908101601f1916820160405261170e9190810190614c65565b505b81518061171e575081602001515b8061172a575081604001515b80611736575081606001515b156117bc57604080516365c13f1960e11b815283511515600482015260208401511515602482015290830151151560448201526060830151151560648201526001600160a01b0384169063cb827e3290608401600060405180830381600087803b1580156117a357600080fd5b505af11580156117b7573d6000803e3d6000fd5b505050505b6117c5336120c4565b505050505050505050505050565b6117db6125bf565b8015806117ee57506001600160581b0381115b15611816576040516324abfd1160e11b81526000600482015260248101829052604401610e85565b610f166000826127e9565b61182c338383612a58565b5050565b6000606080608084013515611858576040516309f82f1b60e31b815260040160405180910390fd5b60246118686101c08601866148af565b905010806118ac575063fbb38e0360e01b6118876101c08601866148af565b611896916024916020916148f5565b61189f9161491f565b6001600160e01b03191614155b156118ca57604051632a84050f60e01b815260040160405180910390fd5b60408051600180825281830190925290816020015b60408051808201909152600080825260208201528152602001906001900390816118df5790505090506040518060400160405280306001600160a01b0316815260200160008152508160008151811061193a5761193a614823565b602090810291909101015260006119556101c08601866148af565b810190611962919061494f565b92505050600061197282876111c1565b9050600061197f8761151f565b905060006119928860c001358484612af7565b9050612710886101800135036119fd57806119b16101a08a018a6148af565b8782828080601f016020809104026020016040519081016040528093929190818152602001838380828437600092019190915250969d50919b50919950611a8898505050505050505050565b611a3381611a1c85611a166101808d0135612710614e98565b86612af7565b611a2b906101808c0135614eab565b612710612af7565b611a416101a08a018a6148af565b8782828080601f016020809104026020016040519081016040528093929190818152602001838380828437600092019190915250969d50919b509199505050505050505050505b9193909250565b600c546006546040516321d1336160e11b815260048101919091526000916001600160a01b0316906343a266c29060240161012060405180830381865afa158015611ade573d6000803e3d6000fd5b505050506040513d601f19601f82011682018060405250810190611b029190614ebe565b61010081015190915060f51c600190811603611b3157604051631d2c125760e31b815260040160405180910390fd5b600b54604051635d53f40760e11b815260048101859052602481018490526000916001600160a01b03169063baa7e80e906044016000604051808303816000875af1158015611b84573d6000803e3d6000fd5b505050506040513d6000823e601f3d908101601f19168201604052611bac9190810190614c65565b600b546040516304db994760e21b8152306004820152602481018790529192506000916001600160a01b039091169063136e651c90604401602060405180830381865afa158015611c01573d6000803e3d6000fd5b505050506040513d601f19601f82011682018060405250810190611c259190614ccc565b90506000805b85811015611ca357838181518110611c4557611c45614823565b60200260200101519150611c59838361271f565b6040513381526001600160a01b03841690889084907f031e1988c95a91ec4d655ff63a8f87a80bc9daf28d95ae10ee08c0022cfb5c8b9060200160405180910390a4600101611c2b565b50505050505050565b611cb63383612381565b611cd35760405163e5fa0e3560e01b815260040160405180910390fd5b610cc184848484612bc3565b600b54604051630fab094760e01b81523060048201526060916000916001600160a01b0390911690630fab094790602401602060405180830381865afa158015611d2d573d6000803e3d6000fd5b505050506040513d601f19601f82011682018060405250810190611d519190614ccc565b90506001600160a01b03811615611dd557604051635e703e7160e01b8152306004820152602481018490526001600160a01b03821690635e703e7190604401600060405180830381865afa158015611dad573d6000803e3d6000fd5b505050506040513d6000823e601f3d908101601f191682016040526112359190810190614f83565b611235600e8054611de5906146da565b80601f0160208091040260200160405190810160405280929190818152602001828054611e11906146da565b8015611e5e5780601f10611e3357610100808354040283529160200191611e5e565b820191906000526020600020905b815481529060010190602001808311611e4157829003601f168201915b5050600b54604051630c8df17160e41b8152306004820152602481018a90526001600160a01b03909116935063c8df171092506044019050602060405180830381865afa158015611eb3573d6000803e3d6000fd5b505050506040513d601f19601f82011682018060405250810190611ed79190614ac0565b612bf7565b610120810135606080611ef36101608501856148af565b8080601f01602080910402602001604051908101604052809392919081815260200183838082843760009201919091525092945060019250611f33915050565b604051908082528060200260200182016040528015611f7857816020015b6040805180820190915260008082526020820152815260200190600190039081611f515790505b5090506040518060400160405280306001600160a01b03168152602001600081525081600081518110611fad57611fad614823565b60200260200101819052509193909250565b600654341515806120405750600754604051636e49181f60e01b8152600481018390523360248201526001600160a01b0390911690636e49181f90604401602060405180830381865afa15801561201a573d6000803e3d6000fd5b505050506040513d601f19601f8201168201806040525081019061203e9190614892565b155b8061204f575080826020013514155b1561206d576040516331c57b1b60e21b815260040160405180910390fd5b61182c82612c5e565b600f80546110b5906146da565b61208b6125bf565b6001600160a01b0381166120c4576040516324abfd1160e11b81526001600160a01b038216600482015260006024820152604401610e85565b610f168160006127e9565b60006001600160e01b0319821663fbb38e0360e01b148061210057506001600160e01b031982166371700c6960e01b145b8061211b57506001600160e01b0319821663da9ee8b760e01b145b8061213657506001600160e01b03198216632b13c58f60e01b145b8061215157506001600160e01b0319821663152a902d60e11b145b806108ae57506108ae8261311a565b6000818152600360205260409020546001600160a01b0316610f165760405163b49aa3b560e01b815260040160405180910390fd5b600081815260046020526040902080546001600160a01b0319166001600160a01b03841690811790915581906121ca82610f19565b6001600160a01b03167f8c5be1e5ebec7d5bd14f71427d1e84f3dd0314c0f7b2291e5b200ac8c7c3b92560405160405180910390a45050565b336001600160a01b03841681148015906122ba575060405163c161c93f60e01b81526001600160a01b038281166004830152858116602483015260448201859052606482018490527f0000000000000000000000000000000000000000000000000000000000000000169063c161c93f90608401602060405180830381865afa158015612294573d6000803e3d6000fd5b505050506040513d601f19601f820116820180604052508101906122b89190614892565b155b8015612363575060405163c161c93f60e01b81526001600160a01b038281166004830152858116602483015260006044830152606482018490527f0000000000000000000000000000000000000000000000000000000000000000169063c161c93f90608401602060405180830381865afa15801561233d573d6000803e3d6000fd5b505050506040513d601f19601f820116820180604052508101906123619190614892565b155b15610cc15760405163075fd2b160e01b815260040160405180910390fd5b60008061238d83610f19565b9050806001600160a01b0316846001600160a01b031614806123d457506001600160a01b0380821660009081526005602090815260408083209388168352929052205460ff165b806123f85750836001600160a01b03166123ed84610946565b6001600160a01b0316145b949350505050565b826001600160a01b031661241382610f19565b6001600160a01b03161461243a5760405163a195bc5360e01b815260040160405180910390fd5b6001600160a01b03821661246157604051632c95542760e01b815260040160405180910390fd5b61246c83838361316a565b612477600082612195565b60008181526003602052604080822080546001600160a01b0319166001600160a01b0386811691821790925591518493918716917fddf252ad1be2c89b69c2b068fc378daa952ba7f163c4a11628f55a4df523b3ef91a46109f4838383613306565b60006124e482610f19565b90506124f28160008461316a565b6124fd600083612195565b60008281526003602052604080822080546001600160a01b0319169055518391906001600160a01b038416907fddf252ad1be2c89b69c2b068fc378daa952ba7f163c4a11628f55a4df523b3ef908390a461182c81600084613306565b600b546040516386bc2be360e01b81526001600160a01b03909116906386bc2be39061258a908490600401613e4c565b600060405180830381600087803b1580156125a457600080fd5b505af11580156125b8573d6000803e3d6000fd5b5050505050565b60408051606081018252600080546001600160a01b0381168352600160a01b81046001600160581b031660208401819052600160f81b90910460ff16938301939093529091156126a55760208201516040516331a9108f60e11b81526001600160581b0390911660048201527f00000000000000000000000000000000000000000000000000000000000000006001600160a01b031690636352211e90602401602060405180830381865afa15801561267c573d6000803e3d6000fd5b505050506040513d601f19601f820116820180604052508101906126a09190614ccc565b6126a8565b81515b905061182c8183602001516001600160581b0316846040015160ff16612203565b600080546001600160f81b0316600160f81b60ff8416908102919091179091556040519081527f197cbe84f592e417694036927858418efc958896363c034f9aaa25af88953beb9060200160405180910390a150565b6001600160a01b03821661274657604051633904578f60e11b815260040160405180910390fd5b6000818152600360205260409020546001600160a01b03161561277c57604051632eb5f0c360e21b815260040160405180910390fd5b6127886000838361316a565b60008181526003602052604080822080546001600160a01b0319166001600160a01b03861690811790915590518392907fddf252ad1be2c89b69c2b068fc378daa952ba7f163c4a11628f55a4df523b3ef908290a461182c60008383613306565b6001600160581b0381161580159061280957506001600160a01b03821615155b15612841576040516324abfd1160e11b81526001600160a01b03831660048201526001600160581b0382166024820152604401610e85565b60408051606081018252600080546001600160a01b0381168352600160a01b81046001600160581b031660208401819052600160f81b90910460ff16938301939093529091156129275760208201516040516331a9108f60e11b81526001600160581b0390911660048201527f00000000000000000000000000000000000000000000000000000000000000006001600160a01b031690636352211e90602401602060405180830381865afa1580156128fe573d6000803e3d6000fd5b505050506040513d601f19601f820116820180604052508101906129229190614ccc565b61292a565b81515b604080516060810182526001600160a01b0387168082526001600160581b0387166020830181905260009290930182905281546001600160f81b03191617600160a01b8302176001600160f81b03169055909150610cc190829015612a1f576040516331a9108f60e11b81526001600160581b03861660048201527f00000000000000000000000000000000000000000000000000000000000000006001600160a01b031690636352211e90602401602060405180830381865afa1580156129f6573d6000803e3d6000fd5b505050506040513d601f19601f82011682018060405250810190612a1a9190614ccc565b6133fd565b856133fd565b612a2f8282613441565b5050600691909155600780546001600160a01b0319166001600160a01b03909216919091179055565b816001600160a01b0316836001600160a01b031603612a8a576040516306f8139d60e11b815260040160405180910390fd5b6001600160a01b03838116600081815260056020908152604080832094871680845294825291829020805460ff191686151590811790915591519182527f17307eab39ab6107e8899845ad3d59bd9653f200f220920489ca2b5937696c31910160405180910390a3505050565b6000808060001985870985870292508281108382030391505080600003612b3157838281612b2757612b27614fb7565b0492505050611235565b838110612b5b57604051631dcf306360e21b81526004810182905260248101859052604401610e85565b600084868809600260036001881981018916988990049182028318808302840302808302840302808302840302808302840302808302840302918202909203026000889003889004909101858311909403939093029303949094049190911702949350505050565b612bce848484612400565b612bda8484848461345a565b610cc1576040516336f57c1b60e11b815260040160405180910390fd5b604051609160f51b60208201526022810182905260609060009060420160405160208183030381529060405290506000612c308261355c565b90508481604051602001612c45929190614fcd565b6040516020818303038152906040529250505092915050565b60095460009065ffffffffffff811660c0840135819003612c855760808401359250612d37565b606082901c80156125b85765ffffffffffff603084901c16612d326080870135612cb083600a6150e0565b604051635268657960e11b815260c08a013560048201526024810187905260a08a013560448201526001600160a01b0386169063a4d0caf290606401602060405180830381865afa158015612d09573d6000803e3d6000fd5b505050506040513d601f19601f82011682018060405250810190612d2d9190614ac0565b612af7565b945050505b5060009050600d81612d516101a086016101808701613c76565b6001600160a01b03168152602081019190915260400160009081205491508290612d836101a086016101808701613c76565b6001600160a01b0316612d996020870187613c76565b6001600160a01b031603612db05790820190612db3565b50815b60006044612dc56101e08801886148af565b9050118015612e095750631f162d3f60e31b612de56101e08801886148af565b612df4916044916040916148f5565b612dfd9161491f565b6001600160e01b031916145b15612ee4576060612e1e6101e08801886148af565b810190612e2b91906150ec565b90955093508492505081159050612eae5750600b54604051634228826f60e11b81523060048201526001600160a01b039091169063845104de90602401608060405180830381865afa158015612e85573d6000803e3d6000fd5b505050506040513d601f19601f82011682018060405250810190612ea991906151be565b606001515b15612eb857600091505b805115612ede57612edb8482612ed66101a08b016101808c01613c76565b6136f4565b93505b50612f5c565b600b54604051634228826f60e11b81523060048201526001600160a01b039091169063845104de90602401608060405180830381865afa158015612f2c573d6000803e3d6000fd5b505050506040513d601f19601f82011682018060405250810190612f5091906151be565b60600151612f5c575060015b82156130805780612f8057604051631b57826960e21b815260040160405180910390fd5b82820184811115612fe857612f9d6101a088016101808901613c76565b6040513381526001600160a01b0391909116908290878203907f2fb2733fb01b76e3290fa8b695d18e026ddd19c0a265ab90e95152e57da303369060200160405180910390a4613049565b80851115613049576130026101a088016101808901613c76565b6040513381526001600160a01b0391909116908290818803907fe0e7c81cf67a96dd0e39bcf11521b1f4c0098cc1dbe8c30750a11d9ebfc3ed4d9060200160405180910390a45b80600d60006130606101a08b016101808c01613c76565b6001600160a01b0316815260208101919091526040016000205550613112565b818414613112576130996101a087016101808801613c76565b6001600160a01b0316826130ad8187614e98565b6040513381527fe0e7c81cf67a96dd0e39bcf11521b1f4c0098cc1dbe8c30750a11d9ebfc3ed4d9060200160405180910390a481600d60006130f76101a08a016101808b01613c76565b6001600160a01b031681526020810191909152604001600020555b505050505050565b60006001600160e01b031982166380ac58cd60e01b148061314b57506001600160e01b03198216635b5e139f60e01b145b806108ae57506301ffc9a760e01b6001600160e01b03198316146108ae565b6001600160a01b038316156109f457600b5460405163c44a8e6d60e01b815230600482015260248101839052600060448201819052916001600160a01b03169063c44a8e6d90606401600060405180830381865afa1580156131d0573d6000803e3d6000fd5b505050506040513d6000823e601f3d908101601f191682016040526131f89190810190615225565b9050806101400151156132bd57600c546006546040516321d1336160e11b815260048101919091526000916001600160a01b0316906343a266c29060240161012060405180830381865afa158015613254573d6000803e3d6000fd5b505050506040513d601f19601f820116820180604052508101906132789190614ebe565b90506001600160a01b0384161580159061329d575061010081015160f41c6001908116145b156132bb576040516318cdaf9760e01b815260040160405180910390fd5b505b6000828152600860205260409020546001600160a01b0316610cc157600082815260086020526040902080546001600160a01b0319166001600160a01b03861617905550505050565b600b5460405163c44a8e6d60e01b815230600482015260248101839052600060448201819052916001600160a01b03169063c44a8e6d90606401600060405180830381865afa15801561335d573d6000803e3d6000fd5b505050506040513d6000823e601f3d908101601f191682016040526133859190810190615225565b600b5481516040516330b157e560e21b815260048101919091526001600160a01b038781166024830152868116604483015292935091169063c2c55f9490606401600060405180830381600087803b1580156133e057600080fd5b505af11580156133f4573d6000803e3d6000fd5b50505050610cc1565b806001600160a01b0316826001600160a01b03167f8be0079c531659141344cd1fd0a4f28419497f9722a3daafe3b4186f6b6457e060405160405180910390a35050565b600161344d8382614ce9565b5060026109f48282614ce9565b60006001600160a01b0384163b1561355157604051630a85bd0160e11b81526001600160a01b0385169063150b7a029061349e90339089908890889060040161531d565b6020604051808303816000875af19250505080156134d9575060408051601f3d908101601f191682019092526134d69181019061535a565b60015b613537573d808015613507576040519150601f19603f3d011682016040523d82523d6000602084013e61350c565b606091505b50805160000361352f576040516336f57c1b60e11b815260040160405180910390fd5b805181602001fd5b6001600160e01b031916630a85bd0160e11b1490506123f8565b506001949350505050565b6060815160000361357b57505060408051600081526020810190915290565b60408051602e8082526105e08201909252600091602082016105c0803683370190505090506000816000815181106135b5576135b5614823565b60ff90921660209283029190910190910152825160019060005b818110156136d05760008682815181106135eb576135eb614823565b016020015160f81c905060005b8460ff1681101561367557600886828151811061361757613617614823565b602002602001015160ff16901b8261362f9190614eab565b915061363c603a83615377565b86828151811061364e5761364e614823565b60ff9092166020928302919091019091015261366b603a8361538b565b91506001016135f8565b505b80156136c757613688603a82615377565b858560ff168151811061369d5761369d614823565b60ff909216602092830291909101909101526001909301926136c0603a8261538b565b9050613677565b506001016135cf565b506136eb6136e66136e18585613836565b6138dd565b61397f565b95945050505050565b600b5460405163eaa19ab360e01b81526000916060916001600160a01b039091169063eaa19ab39061372e9088908890879060040161539f565b6000604051808303816000875af115801561374d573d6000803e3d6000fd5b505050506040513d6000823e601f3d908101601f191682016040526137759190810190614a5f565b81519093509091506000805b8281101561382b5783818151811061379b5761379b614823565b602002602001015191506137af868361271f565b856001600160a01b03168782815181106137cb576137cb614823565b602002602001015161ffff16837f598baf7bf150ca2f42be9e9f8f55e81d45f5715c3ff22bf46d697fabec7f31d68b3360405161381b9291909182526001600160a01b0316602082015260400190565b60405180910390a4600101613781565b505050509392505050565b606060008260ff166001600160401b0381111561385557613855613e5f565b60405190808252806020026020018201604052801561387e578160200160208202803683370190505b50905060005b8360ff168110156138d5578481815181106138a1576138a1614823565b60200260200101518282815181106138bb576138bb614823565b60ff90921660209283029190910190910152600101613884565b509392505050565b80516060906000816001600160401b038111156138fc576138fc613e5f565b604051908082528060200260200182016040528015613925578160200160208202803683370190505b50905060005b828110156138d55784816001875103038151811061394b5761394b614823565b602002602001015182828151811061396557613965614823565b60ff9092166020928302919091019091015260010161392b565b80516060906000816001600160401b0381111561399e5761399e613e5f565b6040519080825280601f01601f1916602001820160405280156139c8576020820181803683370190505b50905060005b828110156138d5576040518060600160405280603a81526020016153fd603a9139858281518110613a0157613a01614823565b602002602001015160ff1681518110613a1c57613a1c614823565b602001015160f81c60f81b828281518110613a3957613a39614823565b60200101906001600160f81b031916908160001a9053506001016139ce565b6001600160e01b031981168114610f1657600080fd5b600060208284031215613a8057600080fd5b813561123581613a58565b60005b83811015613aa6578181015183820152602001613a8e565b50506000910152565b60008151808452613ac7816020860160208601613a8b565b601f01601f19169290920160200192915050565b6020815260006112356020830184613aaf565b600060208284031215613b0057600080fd5b5035919050565b6001600160a01b0381168114610f1657600080fd5b8035613b2781613b07565b919050565b60008060408385031215613b3f57600080fd5b8235613b4a81613b07565b946020939093013593505050565b60008083601f840112613b6a57600080fd5b5081356001600160401b03811115613b8157600080fd5b602083019150836020828501011115613b9957600080fd5b9250929050565b600080600080600080600060a0888a031215613bbb57600080fd5b87356001600160401b0380821115613bd257600080fd5b613bde8b838c01613b58565b909950975060208a0135915080821115613bf757600080fd5b50613c048a828b01613b58565b9096509450506040880135613c1881613b07565b969995985093969295946060840135945060809093013592915050565b600080600060608486031215613c4a57600080fd5b8335613c5581613b07565b92506020840135613c6581613b07565b929592945050506040919091013590565b600060208284031215613c8857600080fd5b813561123581613b07565b60008060208385031215613ca657600080fd5b82356001600160401b0380821115613cbd57600080fd5b818501915085601f830112613cd157600080fd5b813581811115613ce057600080fd5b8660208260061b8501011115613cf557600080fd5b60209290920196919550909350505050565b60006101e08284031215613d1a57600080fd5b50919050565b600060208284031215613d3257600080fd5b81356001600160401b03811115613d4857600080fd5b6123f884828501613d07565b600060208284031215613d6657600080fd5b813560ff8116811461123557600080fd5b60008083601f840112613d8957600080fd5b5081356001600160401b03811115613da057600080fd5b6020830191508360208260051b8501011115613b9957600080fd5b600080600060408486031215613dd057600080fd5b83356001600160401b03811115613de657600080fd5b613df286828701613d77565b9094509250506020840135613e0681613b07565b809150509250925092565b600081518084526020808501945080840160005b83811015613e4157815187529582019590820190600101613e25565b509495945050505050565b6020815260006112356020830184613e11565b634e487b7160e01b600052604160045260246000fd5b604051608081016001600160401b0381118282101715613e9757613e97613e5f565b60405290565b60405161016081016001600160401b0381118282101715613e9757613e97613e5f565b60405161012081016001600160401b0381118282101715613e9757613e97613e5f565b60405161018081016001600160401b0381118282101715613e9757613e97613e5f565b604051601f8201601f191681016001600160401b0381118282101715613f2e57613f2e613e5f565b604052919050565b60006001600160401b03821115613f4f57613f4f613e5f565b5060051b60200190565b600082601f830112613f6a57600080fd5b81356020613f7f613f7a83613f36565b613f06565b82815260059290921b84018101918181019086841115613f9e57600080fd5b8286015b84811015613fb95780358352918301918301613fa2565b509695505050505050565b60008060408385031215613fd757600080fd5b82356001600160401b0380821115613fee57600080fd5b613ffa86838701613f59565b9350602085013591508082111561401057600080fd5b5061401d85828601613d07565b9150509250929050565b6000806000806040858703121561403d57600080fd5b84356001600160401b038082111561405457600080fd5b818701915087601f83011261406857600080fd5b81358181111561407757600080fd5b8860206101608302850101111561408d57600080fd5b6020928301965094509086013590808211156140a857600080fd5b506140b587828801613d77565b95989497509550505050565b60006001600160401b038211156140da576140da613e5f565b50601f01601f191660200190565b60006140f6613f7a846140c1565b905082815283838301111561410a57600080fd5b828260208301376000602084830101529392505050565b600082601f83011261413257600080fd5b611235838335602085016140e8565b80356001600160681b0381168114613b2757600080fd5b803563ffffffff81168114613b2757600080fd5b803561ffff81168114613b2757600080fd5b803562ffffff81168114613b2757600080fd5b8015158114610f1657600080fd5b8035613b2781614191565b803565ffffffffffff81168114613b2757600080fd5b600060808083850312156141d357600080fd5b6141db613e75565b915082356001600160401b038111156141f357600080fd5b8301601f8101851361420457600080fd5b80356020614214613f7a83613f36565b828152610160928302840182019282820191908985111561423457600080fd5b948301945b848610156143155780868b0312156142515760008081fd5b614259613e9d565b61426287614141565b815261426f858801614158565b858201526040614280818901614158565b90820152606061429188820161416c565b908201526142a0878901613b1c565b8189015260a0878101359082015260c06142bb81890161417e565b9082015260e06142cc88820161419f565b908201526101006142de88820161419f565b908201526101206142f088820161419f565b9082015261014061430288820161419f565b9082015283529485019491830191614239565b508652506143248682016141aa565b8186015250505050614338604083016141aa565b604082015261434960608301613b1c565b606082015292915050565b60006080828403121561436657600080fd5b61436e613e75565b9050813561437b81614191565b8152602082013561438b81614191565b6020820152604082013561439e81614191565b6040820152606082013561434981614191565b60008060008060008060008060008060006101c08c8e0312156143d357600080fd5b8b359a506143e360208d01613b1c565b99506001600160401b038060408e013511156143fe57600080fd5b61440e8e60408f01358f01614121565b99508060608e0135111561442157600080fd5b6144318e60608f01358f01614121565b985061443f60808e01613b1c565b97508060a08e0135111561445257600080fd5b6144628e60a08f01358f01614121565b965061447060c08e01613b1c565b95508060e08e0135111561448357600080fd5b6144938e60e08f01358f01614121565b9450806101008e013511156144a757600080fd5b506144b98d6101008e01358e016141c0565b92506144c86101208d01613b1c565b91506144d88d6101408e01614354565b90509295989b509295989b9093969950565b600080604083850312156144fd57600080fd5b823561450881613b07565b9150602083013561451881614191565b809150509250929050565b8381526000602060608184015261453d6060840186613aaf565b83810360408581019190915285518083528387019284019060005b8181101561458657845180516001600160a01b03168452860151868401529385019391830191600101614558565b50909998505050505050505050565b600080604083850312156145a857600080fd5b50508035926020909101359150565b600080600080608085870312156145cd57600080fd5b84356145d881613b07565b935060208501356145e881613b07565b92506040850135915060608501356001600160401b0381111561460a57600080fd5b8501601f8101871361461b57600080fd5b61462a878235602084016140e8565b91505092959194509250565b60006020828403121561464857600080fd5b81356001600160401b0381111561465e57600080fd5b82016101a0818503121561123557600080fd5b60006020828403121561468357600080fd5b81356001600160401b0381111561469957600080fd5b8201610200818503121561123557600080fd5b600080604083850312156146bf57600080fd5b82356146ca81613b07565b9150602083013561451881613b07565b600181811c908216806146ee57607f821691505b602082108103613d1a57634e487b7160e01b600052602260045260246000fd5b601f8211156109f457600081815260208120601f850160051c810160208610156147355750805b601f850160051c820191505b8181101561311257828155600101614741565b6001600160401b0383111561476b5761476b613e5f565b61477f8361477983546146da565b8361470e565b6000601f8411600181146147b3576000851561479b5750838201355b600019600387901b1c1916600186901b1783556125b8565b600083815260209020601f19861690835b828110156147e457868501358255602094850194600190920191016147c4565b50868210156148015760001960f88860031b161c19848701351681555b505060018560011b0183555050505050565b8183823760009101908152919050565b634e487b7160e01b600052603260045260246000fd5b60006040828403121561484b57600080fd5b604051604081018181106001600160401b038211171561486d5761486d613e5f565b604052823581526020928301359281019290925250919050565b8051613b2781614191565b6000602082840312156148a457600080fd5b815161123581614191565b6000808335601e198436030181126148c657600080fd5b8301803591506001600160401b038211156148e057600080fd5b602001915036819003821315613b9957600080fd5b6000808585111561490557600080fd5b8386111561491257600080fd5b5050820193919092039150565b6001600160e01b031981358181169160048510156149475780818660040360031b1b83161692505b505092915050565b60008060006060848603121561496457600080fd5b83359250602084013561497681613a58565b915060408401356001600160401b0381111561499157600080fd5b61499d86828701613f59565b9150509250925092565b84815260606020808301829052908201849052600090859060808401835b878110156149ec5761ffff6149d98561416c565b16825292820192908201906001016149c5565b50809350505050821515604083015295945050505050565b600082601f830112614a1557600080fd5b81516020614a25613f7a83613f36565b82815260059290921b84018101918181019086841115614a4457600080fd5b8286015b84811015613fb95780518352918301918301614a48565b60008060408385031215614a7257600080fd5b82516001600160401b03811115614a8857600080fd5b614a9485828601614a04565b925050602083015190509250929050565b600060208284031215614ab757600080fd5b6112358261416c565b600060208284031215614ad257600080fd5b5051919050565b6001600160a01b03831681526040602082018190526000906123f890830184613e11565b6020808252810182905260006001600160fb1b03831115614b1d57600080fd5b8260051b80856040850137919091016040019392505050565b614b5082614b4383614141565b6001600160681b03169052565b614b5c60208201614158565b63ffffffff166020830152614b7360408201614158565b63ffffffff166040830152614b8a6060820161416c565b61ffff166060830152614b9f60808201613b1c565b6001600160a01b0316608083015260a08181013590830152614bc360c0820161417e565b62ffffff1660c0830152614bd960e0820161419f565b151560e0830152610100614bee82820161419f565b151590830152610120614c0282820161419f565b151590830152610140614c1682820161419f565b80151584830152610cc1565b6020808252810182905260008360408301825b85811015614c5b57614c478284614b36565b610160928301929190910190600101614c35565b5095945050505050565b600060208284031215614c7757600080fd5b81516001600160401b03811115614c8d57600080fd5b6123f884828501614a04565b6101808101614ca88285614b36565b6001600160a01b03929092166101609190910152919050565b8051613b2781613b07565b600060208284031215614cde57600080fd5b815161123581613b07565b81516001600160401b03811115614d0257614d02613e5f565b614d1681614d1084546146da565b8461470e565b602080601f831160018114614d4b5760008415614d335750858301515b600019600386901b1c1916600185901b178555613112565b600085815260208120601f198616915b82811015614d7a57888601518255948401946001909101908401614d5b565b5085821015614d985787850151600019600388901b60f8161c191681555b5050505050600190811b01905550565b602080825282518282018190526000919060409081850190868401855b82811015614e7557815180516001600160681b031685528681015163ffffffff9081168887015286820151168686015260608082015161ffff16908601526080808201516001600160a01b03169086015260a0808201519086015260c08082015162ffffff169086015260e0808201511515908601526101008082015115159086015261012080820151151590860152610140908101511515908501526101609093019290850190600101614dc5565b5091979650505050505050565b634e487b7160e01b600052601160045260246000fd5b818103818111156108ae576108ae614e82565b808201808211156108ae576108ae614e82565b60006101208284031215614ed157600080fd5b614ed9613ec0565b825181526020830151602082015260408301516040820152606083015160608201526080830151608082015260a083015160a082015260c083015160c0820152614f2560e08401614cc1565b60e0820152610100928301519281019290925250919050565b600082601f830112614f4f57600080fd5b8151614f5d613f7a826140c1565b818152846020838601011115614f7257600080fd5b6123f8826020830160208701613a8b565b600060208284031215614f9557600080fd5b81516001600160401b03811115614fab57600080fd5b6123f884828501614f3e565b634e487b7160e01b600052601260045260246000fd5b60008351614fdf818460208801613a8b565b835190830190614ff3818360208801613a8b565b01949350505050565b600181815b8085111561503757816000190482111561501d5761501d614e82565b8085161561502a57918102915b93841c9390800290615001565b509250929050565b60008261504e575060016108ae565b8161505b575060006108ae565b8160018114615071576002811461507b57615097565b60019150506108ae565b60ff84111561508c5761508c614e82565b50506001821b6108ae565b5060208310610133831016604e8410600b84101617156150ba575081810a6108ae565b6150c48383614ffc565b80600019048211156150d8576150d8614e82565b029392505050565b6000611235838361503f565b600080600080600060a0868803121561510457600080fd5b853594506020808701359450604087013561511e81613a58565b9350606087013561512e81614191565b925060808701356001600160401b0381111561514957600080fd5b8701601f8101891361515a57600080fd5b8035615168613f7a82613f36565b81815260059190911b8201830190838101908b83111561518757600080fd5b928401925b828410156151ac5761519d8461416c565b8252928401929084019061518c565b80955050505050509295509295909350565b6000608082840312156151d057600080fd5b6151d8613e75565b82516151e381614191565b815260208301516151f381614191565b6020820152604083015161520681614191565b6040820152606083015161521981614191565b60608201529392505050565b60006020828403121561523757600080fd5b81516001600160401b038082111561524e57600080fd5b90830190610180828603121561526357600080fd5b61526b613ee3565b825181526020830151602082015260408301516040820152606083015160608201526080830151608082015260a083015160a08201526152ad60c08401614cc1565b60c082015260e083015160e08201526101008084015181830152506101206152d6818501614887565b908201526101406152e8848201614887565b90820152610160838101518381111561530057600080fd5b61530c88828701614f3e565b918301919091525095945050505050565b6001600160a01b038581168252841660208201526040810183905260806060820181905260009061535090830184613aaf565b9695505050505050565b60006020828403121561536c57600080fd5b815161123581613a58565b60008261538657615386614fb7565b500690565b60008261539a5761539a614fb7565b500490565b6000606082018583526020606081850152818651808452608086019150828801935060005b818110156153e457845161ffff16835293830193918301916001016153c4565b5050809350505050821515604083015294935050505056fe31323334353637383941424344454647484a4b4c4d4e505152535455565758595a6162636465666768696a6b6d6e6f707172737475767778797aa2646970667358221220756c93028cd28256543561cc72deaa9fa2a7a3400b7e335e6c0c76cee17f1d2264736f6c63430008140033",
    "linkReferences": {}
  },
  "methodIdentifiers": {
    "adjustTiers((uint104,uint32,uint32,uint16,address,bytes32,uint24,bool,bool,bool,bool)[],uint256[])": "843d92ee",
    "approve(address,uint256)": "095ea7b3",
    "balanceOf(address)": "70a08231",
    "baseURI()": "6c0360eb",
    "codeOrigin()": "1d153ca4",
    "contractURI()": "e8a3d485",
    "creditsOf(address)": "245a45b5",
    "didPay((address,uint256,uint256,(address,uint256,uint256,uint256),(address,uint256,uint256,uint256),uint256,address,bool,string,bytes))": "da9ee8b7",
    "didRedeem((address,uint256,uint256,uint256,(address,uint256,uint256,uint256),(address,uint256,uint256,uint256),address,string,bytes))": "2b13c58f",
    "directory()": "c41c2f24",
    "firstOwnerOf(uint256)": "54c6d1f5",
    "fundingCycleStore()": "557e7155",
    "getApproved(uint256)": "081812fc",
    "initialize(uint256,address,string,string,address,string,address,string,((uint104,uint32,uint32,uint16,address,bytes32,uint24,bool,bool,bool,bool)[],uint48,uint48,address),address,(bool,bool,bool,bool))": "a11606a8",
    "isApprovedForAll(address,address)": "e985e9c5",
    "jbOwner()": "ba23c36e",
    "mintFor(uint16[],address)": "6ac6d941",
    "mintReservesFor((uint256,uint256)[])": "2a596e53",
    "mintReservesFor(uint256,uint256)": "aa4fb15b",
    "name()": "06fdde03",
    "operatorStore()": "ad007d63",
    "owner()": "8da5cb5b",
    "ownerOf(uint256)": "6352211e",
    "payParams((address,address,(address,uint256,uint256,uint256),uint256,uint256,address,uint256,uint256,string,bytes))": "d46cf171",
    "pricingContext()": "08786b1a",
    "projectId()": "3fafa127",
    "projects()": "8b79543c",
    "redeemParams((address,address,uint256,uint256,uint256,uint256,uint256,(address,uint256,uint256,uint256),bool,uint256,string,bytes))": "a51cfd18",
    "redemptionWeightOf(uint256[],(address,address,uint256,uint256,uint256,uint256,uint256,(address,uint256,uint256,uint256),bool,uint256,string,bytes))": "7ba62bf9",
    "renounceOwnership()": "715018a6",
    "safeTransferFrom(address,address,uint256)": "42842e0e",
    "safeTransferFrom(address,address,uint256,bytes)": "b88d4fde",
    "setApprovalForAll(address,bool)": "a22cb465",
    "setMetadata(string,string,address,uint256,bytes32)": "1435aad5",
    "setPermissionIndex(uint8)": "61aec7a9",
    "store()": "975057e7",
    "supportsInterface(bytes4)": "01ffc9a7",
    "symbol()": "95d89b41",
    "tokenURI(uint256)": "c87b56dd",
    "totalRedemptionWeight((address,address,uint256,uint256,uint256,uint256,uint256,(address,uint256,uint256,uint256),bool,uint256,string,bytes))": "9494bf72",
    "transferFrom(address,address,uint256)": "23b872dd",
    "transferOwnership(address)": "f2fde38b",
    "transferOwnershipToProject(uint256)": "a220d696"
  },
  "id": 0
}