{
  "abi": [
    {
      "inputs": [],
      "stateMutability": "nonpayable",
      "type": "constructor"
    },
    {
      "inputs": [],
      "name": "ALEADY_MINTED",
      "type": "error"
    },
    {
      "inputs": [],
      "name": "APPROVAL_TO_CURRENT_OWNER",
      "type": "error"
    },
    {
      "inputs": [],
      "name": "APPROVE_TO_CALLER",
      "type": "error"
    },
    {
      "inputs": [],
      "name": "CALLER_NOT_OWNER_OR_APPROVED",
      "type": "error"
    },
    {
      "inputs": [],
      "name": "INCORRECT_OWNER",
      "type": "error"
    },
    {
      "inputs": [],
      "name": "INVALID_PAYMENT_EVENT",
      "type": "error"
    },
    {
      "inputs": [],
      "name": "INVALID_REDEMPTION_EVENT",
      "type": "error"
    },
    {
      "inputs": [],
      "name": "INVALID_REDEMPTION_METADATA",
      "type": "error"
    },
    {
      "inputs": [],
      "name": "INVALID_TOKEN_ID",
      "type": "error"
    },
    {
      "inputs": [],
      "name": "MINT_TO_ZERO",
      "type": "error"
    },
    {
      "inputs": [],
      "name": "NOT_AVAILABLE",
      "type": "error"
    },
    {
      "inputs": [],
      "name": "OVERSPENDING",
      "type": "error"
    },
    {
      "inputs": [
        {
          "internalType": "uint256",
          "name": "prod1",
          "type": "uint256"
        },
        {
          "internalType": "uint256",
          "name": "denominator",
          "type": "uint256"
        }
      ],
      "name": "PRBMath__MulDivOverflow",
      "type": "error"
    },
    {
      "inputs": [],
      "name": "PRICING_RESOLVER_CHANGES_PAUSED",
      "type": "error"
    },
    {
      "inputs": [],
      "name": "RESERVED_TOKEN_MINTING_PAUSED",
      "type": "error"
    },
    {
      "inputs": [],
      "name": "TRANSFERS_PAUSED",
      "type": "error"
    },
    {
      "inputs": [],
      "name": "TRANSFER_TO_NON_IMPLEMENTER",
      "type": "error"
    },
    {
      "inputs": [],
      "name": "TRANSFER_TO_ZERO_ADDRESS",
      "type": "error"
    },
    {
      "inputs": [],
      "name": "UNAUTHORIZED",
      "type": "error"
    },
    {
      "inputs": [],
      "name": "UNEXPECTED_TOKEN_REDEEMED",
      "type": "error"
    },
    {
      "anonymous": false,
      "inputs": [
        {
          "indexed": true,
          "internalType": "uint256",
          "name": "tierId",
          "type": "uint256"
        },
        {
          "components": [
            {
              "internalType": "uint80",
              "name": "contributionFloor",
              "type": "uint80"
            },
            {
              "internalType": "uint48",
              "name": "lockedUntil",
              "type": "uint48"
            },
            {
              "internalType": "uint40",
              "name": "initialQuantity",
              "type": "uint40"
            },
            {
              "internalType": "uint16",
              "name": "votingUnits",
              "type": "uint16"
            },
            {
              "internalType": "uint16",
              "name": "reservedRate",
              "type": "uint16"
            },
            {
              "internalType": "address",
              "name": "reservedTokenBeneficiary",
              "type": "address"
            },
            {
              "internalType": "bytes32",
              "name": "encodedIPFSUri",
              "type": "bytes32"
            },
            {
              "internalType": "bool",
              "name": "allowManualMint",
              "type": "bool"
            },
            {
              "internalType": "bool",
              "name": "shouldUseBeneficiaryAsDefault",
              "type": "bool"
            },
            {
              "internalType": "bool",
              "name": "transfersPausable",
              "type": "bool"
            }
          ],
          "indexed": false,
          "internalType": "struct JB721TierParams",
          "name": "data",
          "type": "tuple"
        },
        {
          "indexed": false,
          "internalType": "address",
          "name": "caller",
          "type": "address"
        }
      ],
      "name": "AddTier",
      "type": "event"
    },
    {
      "anonymous": false,
      "inputs": [
        {
          "indexed": true,
          "internalType": "address",
          "name": "owner",
          "type": "address"
        },
        {
          "indexed": true,
          "internalType": "address",
          "name": "approved",
          "type": "address"
        },
        {
          "indexed": true,
          "internalType": "uint256",
          "name": "tokenId",
          "type": "uint256"
        }
      ],
      "name": "Approval",
      "type": "event"
    },
    {
      "anonymous": false,
      "inputs": [
        {
          "indexed": true,
          "internalType": "address",
          "name": "owner",
          "type": "address"
        },
        {
          "indexed": true,
          "internalType": "address",
          "name": "operator",
          "type": "address"
        },
        {
          "indexed": false,
          "internalType": "bool",
          "name": "approved",
          "type": "bool"
        }
      ],
      "name": "ApprovalForAll",
      "type": "event"
    },
    {
      "anonymous": false,
      "inputs": [
        {
          "indexed": true,
          "internalType": "uint256",
          "name": "tokenId",
          "type": "uint256"
        },
        {
          "indexed": true,
          "internalType": "uint256",
          "name": "tierId",
          "type": "uint256"
        },
        {
          "indexed": true,
          "internalType": "address",
          "name": "beneficiary",
          "type": "address"
        },
        {
          "indexed": false,
          "internalType": "uint256",
          "name": "totalAmountContributed",
          "type": "uint256"
        },
        {
          "indexed": false,
          "internalType": "address",
          "name": "caller",
          "type": "address"
        }
      ],
      "name": "Mint",
      "type": "event"
    },
    {
      "anonymous": false,
      "inputs": [
        {
          "indexed": true,
          "internalType": "uint256",
          "name": "tokenId",
          "type": "uint256"
        },
        {
          "indexed": true,
          "internalType": "uint256",
          "name": "tierId",
          "type": "uint256"
        },
        {
          "indexed": true,
          "internalType": "address",
          "name": "beneficiary",
          "type": "address"
        },
        {
          "indexed": false,
          "internalType": "address",
          "name": "caller",
          "type": "address"
        }
      ],
      "name": "MintReservedToken",
      "type": "event"
    },
    {
      "anonymous": false,
      "inputs": [
        {
          "indexed": true,
          "internalType": "address",
          "name": "previousOwner",
          "type": "address"
        },
        {
          "indexed": true,
          "internalType": "address",
          "name": "newOwner",
          "type": "address"
        }
      ],
      "name": "OwnershipTransferred",
      "type": "event"
    },
    {
      "anonymous": false,
      "inputs": [
        {
          "indexed": true,
          "internalType": "uint256",
          "name": "tierId",
          "type": "uint256"
        },
        {
          "indexed": false,
          "internalType": "address",
          "name": "caller",
          "type": "address"
        }
      ],
      "name": "RemoveTier",
      "type": "event"
    },
    {
      "anonymous": false,
      "inputs": [
        {
          "indexed": true,
          "internalType": "string",
          "name": "baseUri",
          "type": "string"
        },
        {
          "indexed": false,
          "internalType": "address",
          "name": "caller",
          "type": "address"
        }
      ],
      "name": "SetBaseUri",
      "type": "event"
    },
    {
      "anonymous": false,
      "inputs": [
        {
          "indexed": true,
          "internalType": "string",
          "name": "contractUri",
          "type": "string"
        },
        {
          "indexed": false,
          "internalType": "address",
          "name": "caller",
          "type": "address"
        }
      ],
      "name": "SetContractUri",
      "type": "event"
    },
    {
      "anonymous": false,
      "inputs": [
        {
          "indexed": true,
          "internalType": "address",
          "name": "beneficiary",
          "type": "address"
        },
        {
          "indexed": false,
          "internalType": "address",
          "name": "caller",
          "type": "address"
        }
      ],
      "name": "SetDefaultReservedTokenBeneficiary",
      "type": "event"
    },
    {
      "anonymous": false,
      "inputs": [
        {
          "indexed": true,
          "internalType": "contract IJBTokenUriResolver",
          "name": "newResolver",
          "type": "address"
        },
        {
          "indexed": false,
          "internalType": "address",
          "name": "caller",
          "type": "address"
        }
      ],
      "name": "SetTokenUriResolver",
      "type": "event"
    },
    {
      "anonymous": false,
      "inputs": [
        {
          "indexed": true,
          "internalType": "address",
          "name": "from",
          "type": "address"
        },
        {
          "indexed": true,
          "internalType": "address",
          "name": "to",
          "type": "address"
        },
        {
          "indexed": true,
          "internalType": "uint256",
          "name": "tokenId",
          "type": "uint256"
        }
      ],
      "name": "Transfer",
      "type": "event"
    },
    {
      "inputs": [
        {
          "components": [
            {
              "internalType": "uint80",
              "name": "contributionFloor",
              "type": "uint80"
            },
            {
              "internalType": "uint48",
              "name": "lockedUntil",
              "type": "uint48"
            },
            {
              "internalType": "uint40",
              "name": "initialQuantity",
              "type": "uint40"
            },
            {
              "internalType": "uint16",
              "name": "votingUnits",
              "type": "uint16"
            },
            {
              "internalType": "uint16",
              "name": "reservedRate",
              "type": "uint16"
            },
            {
              "internalType": "address",
              "name": "reservedTokenBeneficiary",
              "type": "address"
            },
            {
              "internalType": "bytes32",
              "name": "encodedIPFSUri",
              "type": "bytes32"
            },
            {
              "internalType": "bool",
              "name": "allowManualMint",
              "type": "bool"
            },
            {
              "internalType": "bool",
              "name": "shouldUseBeneficiaryAsDefault",
              "type": "bool"
            },
            {
              "internalType": "bool",
              "name": "transfersPausable",
              "type": "bool"
            }
          ],
          "internalType": "struct JB721TierParams[]",
          "name": "_tiersToAdd",
          "type": "tuple[]"
        },
        {
          "internalType": "uint256[]",
          "name": "_tierIdsToRemove",
          "type": "uint256[]"
        }
      ],
      "name": "adjustTiers",
      "outputs": [],
      "stateMutability": "nonpayable",
      "type": "function"
    },
    {
      "inputs": [
        {
          "internalType": "address",
          "name": "to",
          "type": "address"
        },
        {
          "internalType": "uint256",
          "name": "tokenId",
          "type": "uint256"
        }
      ],
      "name": "approve",
      "outputs": [],
      "stateMutability": "nonpayable",
      "type": "function"
    },
    {
      "inputs": [
        {
          "internalType": "address",
          "name": "_owner",
          "type": "address"
        }
      ],
      "name": "balanceOf",
      "outputs": [
        {
          "internalType": "uint256",
          "name": "balance",
          "type": "uint256"
        }
      ],
      "stateMutability": "view",
      "type": "function"
    },
    {
      "inputs": [],
      "name": "codeOrigin",
      "outputs": [
        {
          "internalType": "address",
          "name": "",
          "type": "address"
        }
      ],
      "stateMutability": "view",
      "type": "function"
    },
    {
      "inputs": [],
      "name": "contractURI",
      "outputs": [
        {
          "internalType": "string",
          "name": "",
          "type": "string"
        }
      ],
      "stateMutability": "view",
      "type": "function"
    },
    {
      "inputs": [
        {
          "internalType": "address",
          "name": "",
          "type": "address"
        }
      ],
      "name": "creditsOf",
      "outputs": [
        {
          "internalType": "uint256",
          "name": "",
          "type": "uint256"
        }
      ],
      "stateMutability": "view",
      "type": "function"
    },
    {
      "inputs": [
        {
          "components": [
            {
              "internalType": "address",
              "name": "payer",
              "type": "address"
            },
            {
              "internalType": "uint256",
              "name": "projectId",
              "type": "uint256"
            },
            {
              "internalType": "uint256",
              "name": "currentFundingCycleConfiguration",
              "type": "uint256"
            },
            {
              "components": [
                {
                  "internalType": "address",
                  "name": "token",
                  "type": "address"
                },
                {
                  "internalType": "uint256",
                  "name": "value",
                  "type": "uint256"
                },
                {
                  "internalType": "uint256",
                  "name": "decimals",
                  "type": "uint256"
                },
                {
                  "internalType": "uint256",
                  "name": "currency",
                  "type": "uint256"
                }
              ],
              "internalType": "struct JBTokenAmount",
              "name": "amount",
              "type": "tuple"
            },
            {
              "components": [
                {
                  "internalType": "address",
                  "name": "token",
                  "type": "address"
                },
                {
                  "internalType": "uint256",
                  "name": "value",
                  "type": "uint256"
                },
                {
                  "internalType": "uint256",
                  "name": "decimals",
                  "type": "uint256"
                },
                {
                  "internalType": "uint256",
                  "name": "currency",
                  "type": "uint256"
                }
              ],
              "internalType": "struct JBTokenAmount",
              "name": "forwardedAmount",
              "type": "tuple"
            },
            {
              "internalType": "uint256",
              "name": "projectTokenCount",
              "type": "uint256"
            },
            {
              "internalType": "address",
              "name": "beneficiary",
              "type": "address"
            },
            {
              "internalType": "bool",
              "name": "preferClaimedTokens",
              "type": "bool"
            },
            {
              "internalType": "string",
              "name": "memo",
              "type": "string"
            },
            {
              "internalType": "bytes",
              "name": "metadata",
              "type": "bytes"
            }
          ],
          "internalType": "struct JBDidPayData",
          "name": "_data",
          "type": "tuple"
        }
      ],
      "name": "didPay",
      "outputs": [],
      "stateMutability": "payable",
      "type": "function"
    },
    {
      "inputs": [
        {
          "components": [
            {
              "internalType": "address",
              "name": "holder",
              "type": "address"
            },
            {
              "internalType": "uint256",
              "name": "projectId",
              "type": "uint256"
            },
            {
              "internalType": "uint256",
              "name": "currentFundingCycleConfiguration",
              "type": "uint256"
            },
            {
              "internalType": "uint256",
              "name": "projectTokenCount",
              "type": "uint256"
            },
            {
              "components": [
                {
                  "internalType": "address",
                  "name": "token",
                  "type": "address"
                },
                {
                  "internalType": "uint256",
                  "name": "value",
                  "type": "uint256"
                },
                {
                  "internalType": "uint256",
                  "name": "decimals",
                  "type": "uint256"
                },
                {
                  "internalType": "uint256",
                  "name": "currency",
                  "type": "uint256"
                }
              ],
              "internalType": "struct JBTokenAmount",
              "name": "reclaimedAmount",
              "type": "tuple"
            },
            {
              "components": [
                {
                  "internalType": "address",
                  "name": "token",
                  "type": "address"
                },
                {
                  "internalType": "uint256",
                  "name": "value",
                  "type": "uint256"
                },
                {
                  "internalType": "uint256",
                  "name": "decimals",
                  "type": "uint256"
                },
                {
                  "internalType": "uint256",
                  "name": "currency",
                  "type": "uint256"
                }
              ],
              "internalType": "struct JBTokenAmount",
              "name": "forwardedAmount",
              "type": "tuple"
            },
            {
              "internalType": "address payable",
              "name": "beneficiary",
              "type": "address"
            },
            {
              "internalType": "string",
              "name": "memo",
              "type": "string"
            },
            {
              "internalType": "bytes",
              "name": "metadata",
              "type": "bytes"
            }
          ],
          "internalType": "struct JBDidRedeemData",
          "name": "_data",
          "type": "tuple"
        }
      ],
      "name": "didRedeem",
      "outputs": [],
      "stateMutability": "payable",
      "type": "function"
    },
    {
      "inputs": [],
      "name": "directory",
      "outputs": [
        {
          "internalType": "contract IJBDirectory",
          "name": "",
          "type": "address"
        }
      ],
      "stateMutability": "view",
      "type": "function"
    },
    {
      "inputs": [
        {
          "internalType": "uint256",
          "name": "_tokenId",
          "type": "uint256"
        }
      ],
      "name": "firstOwnerOf",
      "outputs": [
        {
          "internalType": "address",
          "name": "",
          "type": "address"
        }
      ],
      "stateMutability": "view",
      "type": "function"
    },
    {
      "inputs": [],
      "name": "fundingCycleStore",
      "outputs": [
        {
          "internalType": "contract IJBFundingCycleStore",
          "name": "",
          "type": "address"
        }
      ],
      "stateMutability": "view",
      "type": "function"
    },
    {
      "inputs": [
        {
          "internalType": "uint256",
          "name": "tokenId",
          "type": "uint256"
        }
      ],
      "name": "getApproved",
      "outputs": [
        {
          "internalType": "address",
          "name": "",
          "type": "address"
        }
      ],
      "stateMutability": "view",
      "type": "function"
    },
    {
      "inputs": [
        {
          "internalType": "uint256",
          "name": "_projectId",
          "type": "uint256"
        },
        {
          "internalType": "contract IJBDirectory",
          "name": "_directory",
          "type": "address"
        },
        {
          "internalType": "string",
          "name": "_name",
          "type": "string"
        },
        {
          "internalType": "string",
          "name": "_symbol",
          "type": "string"
        },
        {
          "internalType": "contract IJBFundingCycleStore",
          "name": "_fundingCycleStore",
          "type": "address"
        },
        {
          "internalType": "string",
          "name": "_baseUri",
          "type": "string"
        },
        {
          "internalType": "contract IJBTokenUriResolver",
          "name": "_tokenUriResolver",
          "type": "address"
        },
        {
          "internalType": "string",
          "name": "_contractUri",
          "type": "string"
        },
        {
          "components": [
            {
              "components": [
                {
                  "internalType": "uint80",
                  "name": "contributionFloor",
                  "type": "uint80"
                },
                {
                  "internalType": "uint48",
                  "name": "lockedUntil",
                  "type": "uint48"
                },
                {
                  "internalType": "uint40",
                  "name": "initialQuantity",
                  "type": "uint40"
                },
                {
                  "internalType": "uint16",
                  "name": "votingUnits",
                  "type": "uint16"
                },
                {
                  "internalType": "uint16",
                  "name": "reservedRate",
                  "type": "uint16"
                },
                {
                  "internalType": "address",
                  "name": "reservedTokenBeneficiary",
                  "type": "address"
                },
                {
                  "internalType": "bytes32",
                  "name": "encodedIPFSUri",
                  "type": "bytes32"
                },
                {
                  "internalType": "bool",
                  "name": "allowManualMint",
                  "type": "bool"
                },
                {
                  "internalType": "bool",
                  "name": "shouldUseBeneficiaryAsDefault",
                  "type": "bool"
                },
                {
                  "internalType": "bool",
                  "name": "transfersPausable",
                  "type": "bool"
                }
              ],
              "internalType": "struct JB721TierParams[]",
              "name": "tiers",
              "type": "tuple[]"
            },
            {
              "internalType": "uint256",
              "name": "currency",
              "type": "uint256"
            },
            {
              "internalType": "uint256",
              "name": "decimals",
              "type": "uint256"
            },
            {
              "internalType": "contract IJBPrices",
              "name": "prices",
              "type": "address"
            }
          ],
          "internalType": "struct JB721PricingParams",
          "name": "_pricing",
          "type": "tuple"
        },
        {
          "internalType": "contract IJBTiered721DelegateStore",
          "name": "_store",
          "type": "address"
        },
        {
          "components": [
            {
              "internalType": "bool",
              "name": "lockReservedTokenChanges",
              "type": "bool"
            },
            {
              "internalType": "bool",
              "name": "lockVotingUnitChanges",
              "type": "bool"
            },
            {
              "internalType": "bool",
              "name": "lockManualMintingChanges",
              "type": "bool"
            },
            {
              "internalType": "bool",
              "name": "preventOverspending",
              "type": "bool"
            }
          ],
          "internalType": "struct JBTiered721Flags",
          "name": "_flags",
          "type": "tuple"
        }
      ],
      "name": "initialize",
      "outputs": [],
      "stateMutability": "nonpayable",
      "type": "function"
    },
    {
      "inputs": [
        {
          "internalType": "address",
          "name": "owner",
          "type": "address"
        },
        {
          "internalType": "address",
          "name": "operator",
          "type": "address"
        }
      ],
      "name": "isApprovedForAll",
      "outputs": [
        {
          "internalType": "bool",
          "name": "",
          "type": "bool"
        }
      ],
      "stateMutability": "view",
      "type": "function"
    },
    {
      "inputs": [
        {
          "components": [
            {
              "internalType": "uint16[]",
              "name": "tierIds",
              "type": "uint16[]"
            },
            {
              "internalType": "address",
              "name": "beneficiary",
              "type": "address"
            }
          ],
          "internalType": "struct JBTiered721MintForTiersData[]",
          "name": "_mintForTiersData",
          "type": "tuple[]"
        }
      ],
      "name": "mintFor",
      "outputs": [],
      "stateMutability": "nonpayable",
      "type": "function"
    },
    {
      "inputs": [
        {
          "internalType": "uint16[]",
          "name": "_tierIds",
          "type": "uint16[]"
        },
        {
          "internalType": "address",
          "name": "_beneficiary",
          "type": "address"
        }
      ],
      "name": "mintFor",
      "outputs": [
        {
          "internalType": "uint256[]",
          "name": "tokenIds",
          "type": "uint256[]"
        }
      ],
      "stateMutability": "nonpayable",
      "type": "function"
    },
    {
      "inputs": [
        {
          "components": [
            {
              "internalType": "uint256",
              "name": "tierId",
              "type": "uint256"
            },
            {
              "internalType": "uint256",
              "name": "count",
              "type": "uint256"
            }
          ],
          "internalType": "struct JBTiered721MintReservesForTiersData[]",
          "name": "_mintReservesForTiersData",
          "type": "tuple[]"
        }
      ],
      "name": "mintReservesFor",
      "outputs": [],
      "stateMutability": "nonpayable",
      "type": "function"
    },
    {
      "inputs": [
        {
          "internalType": "uint256",
          "name": "_tierId",
          "type": "uint256"
        },
        {
          "internalType": "uint256",
          "name": "_count",
          "type": "uint256"
        }
      ],
      "name": "mintReservesFor",
      "outputs": [],
      "stateMutability": "nonpayable",
      "type": "function"
    },
    {
      "inputs": [],
      "name": "name",
      "outputs": [
        {
          "internalType": "string",
          "name": "",
          "type": "string"
        }
      ],
      "stateMutability": "view",
      "type": "function"
    },
    {
      "inputs": [],
      "name": "owner",
      "outputs": [
        {
          "internalType": "address",
          "name": "",
          "type": "address"
        }
      ],
      "stateMutability": "view",
      "type": "function"
    },
    {
      "inputs": [
        {
          "internalType": "uint256",
          "name": "tokenId",
          "type": "uint256"
        }
      ],
      "name": "ownerOf",
      "outputs": [
        {
          "internalType": "address",
          "name": "",
          "type": "address"
        }
      ],
      "stateMutability": "view",
      "type": "function"
    },
    {
      "inputs": [
        {
          "components": [
            {
              "internalType": "contract IJBPaymentTerminal",
              "name": "terminal",
              "type": "address"
            },
            {
              "internalType": "address",
              "name": "payer",
              "type": "address"
            },
            {
              "components": [
                {
                  "internalType": "address",
                  "name": "token",
                  "type": "address"
                },
                {
                  "internalType": "uint256",
                  "name": "value",
                  "type": "uint256"
                },
                {
                  "internalType": "uint256",
                  "name": "decimals",
                  "type": "uint256"
                },
                {
                  "internalType": "uint256",
                  "name": "currency",
                  "type": "uint256"
                }
              ],
              "internalType": "struct JBTokenAmount",
              "name": "amount",
              "type": "tuple"
            },
            {
              "internalType": "uint256",
              "name": "projectId",
              "type": "uint256"
            },
            {
              "internalType": "uint256",
              "name": "currentFundingCycleConfiguration",
              "type": "uint256"
            },
            {
              "internalType": "address",
              "name": "beneficiary",
              "type": "address"
            },
            {
              "internalType": "uint256",
              "name": "weight",
              "type": "uint256"
            },
            {
              "internalType": "uint256",
              "name": "reservedRate",
              "type": "uint256"
            },
            {
              "internalType": "string",
              "name": "memo",
              "type": "string"
            },
            {
              "internalType": "bytes",
              "name": "metadata",
              "type": "bytes"
            }
          ],
          "internalType": "struct JBPayParamsData",
          "name": "_data",
          "type": "tuple"
        }
      ],
      "name": "payParams",
      "outputs": [
        {
          "internalType": "uint256",
          "name": "weight",
          "type": "uint256"
        },
        {
          "internalType": "string",
          "name": "memo",
          "type": "string"
        },
        {
          "components": [
            {
              "internalType": "contract IJBPayDelegate",
              "name": "delegate",
              "type": "address"
            },
            {
              "internalType": "uint256",
              "name": "amount",
              "type": "uint256"
            }
          ],
          "internalType": "struct JBPayDelegateAllocation[]",
          "name": "delegateAllocations",
          "type": "tuple[]"
        }
      ],
      "stateMutability": "view",
      "type": "function"
    },
    {
      "inputs": [],
      "name": "prices",
      "outputs": [
        {
          "internalType": "contract IJBPrices",
          "name": "",
          "type": "address"
        }
      ],
      "stateMutability": "view",
      "type": "function"
    },
    {
      "inputs": [],
      "name": "pricingCurrency",
      "outputs": [
        {
          "internalType": "uint256",
          "name": "",
          "type": "uint256"
        }
      ],
      "stateMutability": "view",
      "type": "function"
    },
    {
      "inputs": [],
      "name": "pricingDecimals",
      "outputs": [
        {
          "internalType": "uint256",
          "name": "",
          "type": "uint256"
        }
      ],
      "stateMutability": "view",
      "type": "function"
    },
    {
      "inputs": [],
      "name": "projectId",
      "outputs": [
        {
          "internalType": "uint256",
          "name": "",
          "type": "uint256"
        }
      ],
      "stateMutability": "view",
      "type": "function"
    },
    {
      "inputs": [
        {
          "components": [
            {
              "internalType": "contract IJBPaymentTerminal",
              "name": "terminal",
              "type": "address"
            },
            {
              "internalType": "address",
              "name": "holder",
              "type": "address"
            },
            {
              "internalType": "uint256",
              "name": "projectId",
              "type": "uint256"
            },
            {
              "internalType": "uint256",
              "name": "currentFundingCycleConfiguration",
              "type": "uint256"
            },
            {
              "internalType": "uint256",
              "name": "tokenCount",
              "type": "uint256"
            },
            {
              "internalType": "uint256",
              "name": "totalSupply",
              "type": "uint256"
            },
            {
              "internalType": "uint256",
              "name": "overflow",
              "type": "uint256"
            },
            {
              "components": [
                {
                  "internalType": "address",
                  "name": "token",
                  "type": "address"
                },
                {
                  "internalType": "uint256",
                  "name": "value",
                  "type": "uint256"
                },
                {
                  "internalType": "uint256",
                  "name": "decimals",
                  "type": "uint256"
                },
                {
                  "internalType": "uint256",
                  "name": "currency",
                  "type": "uint256"
                }
              ],
              "internalType": "struct JBTokenAmount",
              "name": "reclaimAmount",
              "type": "tuple"
            },
            {
              "internalType": "bool",
              "name": "useTotalOverflow",
              "type": "bool"
            },
            {
              "internalType": "uint256",
              "name": "redemptionRate",
              "type": "uint256"
            },
            {
              "internalType": "string",
              "name": "memo",
              "type": "string"
            },
            {
              "internalType": "bytes",
              "name": "metadata",
              "type": "bytes"
            }
          ],
          "internalType": "struct JBRedeemParamsData",
          "name": "_data",
          "type": "tuple"
        }
      ],
      "name": "redeemParams",
      "outputs": [
        {
          "internalType": "uint256",
          "name": "reclaimAmount",
          "type": "uint256"
        },
        {
          "internalType": "string",
          "name": "memo",
          "type": "string"
        },
        {
          "components": [
            {
              "internalType": "contract IJBRedemptionDelegate",
              "name": "delegate",
              "type": "address"
            },
            {
              "internalType": "uint256",
              "name": "amount",
              "type": "uint256"
            }
          ],
          "internalType": "struct JBRedemptionDelegateAllocation[]",
          "name": "delegateAllocations",
          "type": "tuple[]"
        }
      ],
      "stateMutability": "view",
      "type": "function"
    },
    {
      "inputs": [
        {
          "internalType": "uint256[]",
          "name": "_tokenIds",
          "type": "uint256[]"
        },
        {
          "components": [
            {
              "internalType": "contract IJBPaymentTerminal",
              "name": "terminal",
              "type": "address"
            },
            {
              "internalType": "address",
              "name": "holder",
              "type": "address"
            },
            {
              "internalType": "uint256",
              "name": "projectId",
              "type": "uint256"
            },
            {
              "internalType": "uint256",
              "name": "currentFundingCycleConfiguration",
              "type": "uint256"
            },
            {
              "internalType": "uint256",
              "name": "tokenCount",
              "type": "uint256"
            },
            {
              "internalType": "uint256",
              "name": "totalSupply",
              "type": "uint256"
            },
            {
              "internalType": "uint256",
              "name": "overflow",
              "type": "uint256"
            },
            {
              "components": [
                {
                  "internalType": "address",
                  "name": "token",
                  "type": "address"
                },
                {
                  "internalType": "uint256",
                  "name": "value",
                  "type": "uint256"
                },
                {
                  "internalType": "uint256",
                  "name": "decimals",
                  "type": "uint256"
                },
                {
                  "internalType": "uint256",
                  "name": "currency",
                  "type": "uint256"
                }
              ],
              "internalType": "struct JBTokenAmount",
              "name": "reclaimAmount",
              "type": "tuple"
            },
            {
              "internalType": "bool",
              "name": "useTotalOverflow",
              "type": "bool"
            },
            {
              "internalType": "uint256",
              "name": "redemptionRate",
              "type": "uint256"
            },
            {
              "internalType": "string",
              "name": "memo",
              "type": "string"
            },
            {
              "internalType": "bytes",
              "name": "metadata",
              "type": "bytes"
            }
          ],
          "internalType": "struct JBRedeemParamsData",
          "name": "",
          "type": "tuple"
        }
      ],
      "name": "redemptionWeightOf",
      "outputs": [
        {
          "internalType": "uint256",
          "name": "",
          "type": "uint256"
        }
      ],
      "stateMutability": "view",
      "type": "function"
    },
    {
      "inputs": [],
      "name": "renounceOwnership",
      "outputs": [],
      "stateMutability": "nonpayable",
      "type": "function"
    },
    {
      "inputs": [
        {
          "internalType": "address",
          "name": "from",
          "type": "address"
        },
        {
          "internalType": "address",
          "name": "to",
          "type": "address"
        },
        {
          "internalType": "uint256",
          "name": "tokenId",
          "type": "uint256"
        }
      ],
      "name": "safeTransferFrom",
      "outputs": [],
      "stateMutability": "nonpayable",
      "type": "function"
    },
    {
      "inputs": [
        {
          "internalType": "address",
          "name": "from",
          "type": "address"
        },
        {
          "internalType": "address",
          "name": "to",
          "type": "address"
        },
        {
          "internalType": "uint256",
          "name": "tokenId",
          "type": "uint256"
        },
        {
          "internalType": "bytes",
          "name": "data",
          "type": "bytes"
        }
      ],
      "name": "safeTransferFrom",
      "outputs": [],
      "stateMutability": "nonpayable",
      "type": "function"
    },
    {
      "inputs": [
        {
          "internalType": "address",
          "name": "operator",
          "type": "address"
        },
        {
          "internalType": "bool",
          "name": "approved",
          "type": "bool"
        }
      ],
      "name": "setApprovalForAll",
      "outputs": [],
      "stateMutability": "nonpayable",
      "type": "function"
    },
    {
      "inputs": [
        {
          "internalType": "string",
          "name": "_baseUri",
          "type": "string"
        }
      ],
      "name": "setBaseUri",
      "outputs": [],
      "stateMutability": "nonpayable",
      "type": "function"
    },
    {
      "inputs": [
        {
          "internalType": "string",
          "name": "_contractUri",
          "type": "string"
        }
      ],
      "name": "setContractUri",
      "outputs": [],
      "stateMutability": "nonpayable",
      "type": "function"
    },
    {
      "inputs": [
        {
          "internalType": "address",
          "name": "_beneficiary",
          "type": "address"
        }
      ],
      "name": "setDefaultReservedTokenBeneficiary",
      "outputs": [],
      "stateMutability": "nonpayable",
      "type": "function"
    },
    {
      "inputs": [
        {
          "internalType": "contract IJBTokenUriResolver",
          "name": "_tokenUriResolver",
          "type": "address"
        }
      ],
      "name": "setTokenUriResolver",
      "outputs": [],
      "stateMutability": "nonpayable",
      "type": "function"
    },
    {
      "inputs": [],
      "name": "store",
      "outputs": [
        {
          "internalType": "contract IJBTiered721DelegateStore",
          "name": "",
          "type": "address"
        }
      ],
      "stateMutability": "view",
      "type": "function"
    },
    {
      "inputs": [
        {
          "internalType": "bytes4",
          "name": "_interfaceId",
          "type": "bytes4"
        }
      ],
      "name": "supportsInterface",
      "outputs": [
        {
          "internalType": "bool",
          "name": "",
          "type": "bool"
        }
      ],
      "stateMutability": "view",
      "type": "function"
    },
    {
      "inputs": [],
      "name": "symbol",
      "outputs": [
        {
          "internalType": "string",
          "name": "",
          "type": "string"
        }
      ],
      "stateMutability": "view",
      "type": "function"
    },
    {
      "inputs": [
        {
          "internalType": "uint256",
          "name": "_tokenId",
          "type": "uint256"
        }
      ],
      "name": "tokenURI",
      "outputs": [
        {
          "internalType": "string",
          "name": "",
          "type": "string"
        }
      ],
      "stateMutability": "view",
      "type": "function"
    },
    {
      "inputs": [
        {
          "components": [
            {
              "internalType": "contract IJBPaymentTerminal",
              "name": "terminal",
              "type": "address"
            },
            {
              "internalType": "address",
              "name": "holder",
              "type": "address"
            },
            {
              "internalType": "uint256",
              "name": "projectId",
              "type": "uint256"
            },
            {
              "internalType": "uint256",
              "name": "currentFundingCycleConfiguration",
              "type": "uint256"
            },
            {
              "internalType": "uint256",
              "name": "tokenCount",
              "type": "uint256"
            },
            {
              "internalType": "uint256",
              "name": "totalSupply",
              "type": "uint256"
            },
            {
              "internalType": "uint256",
              "name": "overflow",
              "type": "uint256"
            },
            {
              "components": [
                {
                  "internalType": "address",
                  "name": "token",
                  "type": "address"
                },
                {
                  "internalType": "uint256",
                  "name": "value",
                  "type": "uint256"
                },
                {
                  "internalType": "uint256",
                  "name": "decimals",
                  "type": "uint256"
                },
                {
                  "internalType": "uint256",
                  "name": "currency",
                  "type": "uint256"
                }
              ],
              "internalType": "struct JBTokenAmount",
              "name": "reclaimAmount",
              "type": "tuple"
            },
            {
              "internalType": "bool",
              "name": "useTotalOverflow",
              "type": "bool"
            },
            {
              "internalType": "uint256",
              "name": "redemptionRate",
              "type": "uint256"
            },
            {
              "internalType": "string",
              "name": "memo",
              "type": "string"
            },
            {
              "internalType": "bytes",
              "name": "metadata",
              "type": "bytes"
            }
          ],
          "internalType": "struct JBRedeemParamsData",
          "name": "",
          "type": "tuple"
        }
      ],
      "name": "totalRedemptionWeight",
      "outputs": [
        {
          "internalType": "uint256",
          "name": "",
          "type": "uint256"
        }
      ],
      "stateMutability": "view",
      "type": "function"
    },
    {
      "inputs": [
        {
          "internalType": "address",
          "name": "from",
          "type": "address"
        },
        {
          "internalType": "address",
          "name": "to",
          "type": "address"
        },
        {
          "internalType": "uint256",
          "name": "tokenId",
          "type": "uint256"
        }
      ],
      "name": "transferFrom",
      "outputs": [],
      "stateMutability": "nonpayable",
      "type": "function"
    },
    {
      "inputs": [
        {
          "internalType": "address",
          "name": "newOwner",
          "type": "address"
        }
      ],
      "name": "transferOwnership",
      "outputs": [],
      "stateMutability": "nonpayable",
      "type": "function"
    }
  ],
  "bytecode": {
    "object": "0x60806040523480156200001157600080fd5b506200001d3362000035565b600880546001600160a01b0319163017905562000087565b600780546001600160a01b038381166001600160a01b0319831681179093556040519116919082907f8be0079c531659141344cd1fd0a4f28419497f9722a3daafe3b4186f6b6457e090600090a35050565b614d1380620000976000396000f3fe60806040526004361061025c5760003560e01c80637ba62bf911610144578063c87b56dd116100b6578063da9ee8b71161007a578063da9ee8b714610726578063df487e2614610739578063e8a3d48514610759578063e985e9c51461076e578063f2fde38b146107b7578063f5a38e63146107d757600080fd5b8063c87b56dd14610686578063cac486a8146106a6578063ccb4807b146106c6578063d3419bf3146106e6578063d46cf1711461070657600080fd5b8063a0bcfc7f11610108578063a0bcfc7f146105b7578063a22cb465146105d7578063a51cfd18146105f7578063aa4fb15b14610626578063b88d4fde14610646578063c41c2f241461066657600080fd5b80637ba62bf9146105245780638da5cb5b146105445780639494bf721461056257806395d89b4114610582578063975057e71461059757600080fd5b806336c1a93b116101dd578063557e7155116101a1578063557e71551461046c5780636352211e1461048c57806364640c1e146104ac5780636ac6d941146104c257806370a08231146104ef578063715018a61461050f57600080fd5b806336c1a93b146103e05780633fafa1271461040057806342842e0e146104165780634ecba6251461043657806354c6d1f51461044c57600080fd5b806323b872dd1161022457806323b872dd146103325780632407497e14610352578063245a45b5146103725780632a596e53146103ad5780632b13c58f146103cd57600080fd5b806301ffc9a71461026157806306fdde0314610296578063081812fc146102b8578063095ea7b3146102f05780631d153ca414610312575b600080fd5b34801561026d57600080fd5b5061028161027c36600461341a565b6107f7565b60405190151581526020015b60405180910390f35b3480156102a257600080fd5b506102ab610822565b60405161028d9190613487565b3480156102c457600080fd5b506102d86102d336600461349a565b6108b4565b6040516001600160a01b03909116815260200161028d565b3480156102fc57600080fd5b5061031061030b3660046134d8565b6108db565b005b34801561031e57600080fd5b506008546102d8906001600160a01b031681565b34801561033e57600080fd5b5061031061034d366004613504565b610967565b34801561035e57600080fd5b5061031061036d366004613545565b610999565b34801561037e57600080fd5b5061039f61038d366004613545565b600e6020526000908152604090205481565b60405190815260200161028d565b3480156103b957600080fd5b506103106103c8366004613562565b610a42565b6103106103db3660046135ef565b610a9b565b3480156103ec57600080fd5b506103106103fb36600461366e565b610c75565b34801561040c57600080fd5b5061039f60055481565b34801561042257600080fd5b50610310610431366004613504565b610cd7565b34801561044257600080fd5b5061039f600d5481565b34801561045857600080fd5b506102d861046736600461349a565b610cf2565b34801561047857600080fd5b50600a546102d8906001600160a01b031681565b34801561049857600080fd5b506102d86104a736600461349a565b610d9e565b3480156104b857600080fd5b5061039f600c5481565b3480156104ce57600080fd5b506104e26104dd3660046136af565b610dd4565b60405161028d9190613740565b3480156104fb57600080fd5b5061039f61050a366004613545565b610f1a565b34801561051b57600080fd5b50610310610f90565b34801561053057600080fd5b5061039f61053f3660046138b8565b610fa4565b34801561055057600080fd5b506007546001600160a01b03166102d8565b34801561056e57600080fd5b5061039f61057d3660046135ef565b61101f565b34801561058e57600080fd5b506102ab611050565b3480156105a357600080fd5b506009546102d8906001600160a01b031681565b3480156105c357600080fd5b506103106105d236600461391b565b61105f565b3480156105e357600080fd5b506103106105f2366004613993565b61111a565b34801561060357600080fd5b506106176106123660046135ef565b611129565b60405161028d939291906139cc565b34801561063257600080fd5b50610310610641366004613a3e565b611388565b34801561065257600080fd5b50610310610661366004613ac0565b6115a5565b34801561067257600080fd5b506006546102d8906001600160a01b031681565b34801561069257600080fd5b506102ab6106a136600461349a565b6115d8565b3480156106b257600080fd5b506103106106c1366004613d86565b6117b2565b3480156106d257600080fd5b506103106106e136600461391b565b611aa4565b3480156106f257600080fd5b50600b546102d8906001600160a01b031681565b34801561071257600080fd5b50610617610721366004613ebf565b611b57565b610310610734366004613efa565b611c3a565b34801561074557600080fd5b50610310610754366004613545565b611cf1565b34801561076557600080fd5b506102ab611d93565b34801561077a57600080fd5b50610281610789366004613f35565b6001600160a01b03918216600090815260046020908152604080832093909416825291909152205460ff1690565b3480156107c357600080fd5b506103106107d2366004613545565b611e09565b3480156107e357600080fd5b506103106107f2366004613f63565b611e87565b60006001600160e01b031982166320b52ca160e21b148061081c575061081c8261206a565b92915050565b60606000805461083190613ffd565b80601f016020809104026020016040519081016040528092919081815260200182805461085d90613ffd565b80156108aa5780601f1061087f576101008083540402835291602001916108aa565b820191906000526020600020905b81548152906001019060200180831161088d57829003601f168201915b5050505050905090565b60006108bf826120e0565b506000908152600360205260409020546001600160a01b031690565b60006108e682610d9e565b9050806001600160a01b0316836001600160a01b03160361091a5760405163133f8be960e01b815260040160405180910390fd5b336001600160a01b0382161480159061093a57506109388133610789565b155b156109585760405163e5fa0e3560e01b815260040160405180910390fd5b6109628383612115565b505050565b6109713382612183565b61098e5760405163e5fa0e3560e01b815260040160405180910390fd5b610962838383612202565b6109a16122db565b60095460405163036129cb60e61b81526001600160a01b0383811660048301529091169063d84a72c090602401600060405180830381600087803b1580156109e857600080fd5b505af11580156109fc573d6000803e3d6000fd5b50506040513381526001600160a01b03841692507fe7784d93cfbfa4408e19577e6cc0436f4dbb51214b70e100905dfce9def88c1691506020015b60405180910390a250565b8060005b81811015610a95576000848483818110610a6257610a62614031565b905060400201803603810190610a789190614047565b9050610a8c81600001518260200151611388565b50600101610a46565b50505050565b34151580610b1d5750600654600554604051636e49181f60e01b815260048101919091523360248201526001600160a01b0390911690636e49181f90604401602060405180830381865afa158015610af7573d6000803e3d6000fd5b505050506040513d601f19601f82011682018060405250810190610b1b91906140a0565b155b80610b2e5750600554816020013514155b15610b4c57604051633efca5c360e11b815260040160405180910390fd5b6024610b5c6101c08301836140bd565b90501080610ba0575063b3bcbb7960e01b610b7b6101c08301836140bd565b610b8a91602491602091614103565b610b939161412d565b6001600160e01b03191614155b15610bbe57604051632a84050f60e01b815260040160405180910390fd5b6000610bce6101c08301836140bd565b810190610bdb919061415d565b925050506000815190506000805b82811015610c6b57838181518110610c0357610c03614031565b60200260200101519150846000016020810190610c209190613545565b6000838152600260205260409020546001600160a01b03908116911614610c5a5760405163075fd2b160e01b815260040160405180910390fd5b610c6382612335565b600101610be9565b50610a95836123b6565b610c7d6122db565b8060005b81811015610a955736848483818110610c9c57610c9c614031565b9050602002810190610cae91906141b5565b9050610ccd610cbd82806141d5565b6104dd6040850160208601613545565b5050600101610c81565b610962838383604051806020016040528060008152506115a5565b6009546040516308ed6c0160e41b81523060048201526024810183905260009182916001600160a01b0390911690638ed6c01090604401602060405180830381865afa158015610d46573d6000803e3d6000fd5b505050506040513d601f19601f82011682018060405250810190610d6a9190614229565b90506001600160a01b03811615610d815792915050565b50506000908152600260205260409020546001600160a01b031690565b6000818152600260205260408120546001600160a01b03168061081c5760405163b49aa3b560e01b815260040160405180910390fd5b6060610dde6122db565b60095460405163eaa19ab360e01b81526001600160a01b039091169063eaa19ab390610e17906000199088908890600190600401614246565b6000604051808303816000875af1158015610e36573d6000803e3d6000fd5b505050506040513d6000823e601f3d908101601f19168201604052610e5e91908101906142fe565b509050826000805b82811015610f1057838181518110610e8057610e80614031565b60200260200101519150610e94858361241b565b846001600160a01b0316878783818110610eb057610eb0614031565b9050602002016020810190610ec59190614344565b604080516000815233602082015261ffff929092169185917f598baf7bf150ca2f42be9e9f8f55e81d45f5715c3ff22bf46d697fabec7f31d6910160405180910390a4600101610e66565b5050509392505050565b600954604051633de222bb60e21b81523060048201526001600160a01b038381166024830152600092169063f7888aec906044015b602060405180830381865afa158015610f6c573d6000803e3d6000fd5b505050506040513d601f19601f8201168201806040525081019061081c919061435f565b610f986122db565b610fa260006124e5565b565b60095460405163051330b560e21b81526000916001600160a01b03169063144cc2d490610fd79030908790600401614378565b602060405180830381865afa158015610ff4573d6000803e3d6000fd5b505050506040513d601f19601f82011682018060405250810190611018919061435f565b9392505050565b600954604051631572f24960e11b81523060048201526000916001600160a01b031690632ae5e49290602401610f4f565b60606001805461083190613ffd565b6110676122db565b6009546040516331315e5960e11b81526001600160a01b0390911690636262bcb290611099908590859060040161439c565b600060405180830381600087803b1580156110b357600080fd5b505af11580156110c7573d6000803e3d6000fd5b5050505081816040516110db9291906143cb565b604051908190038120338252907f7bc9110d5de090dd59e07912d2b93a5a27ac70a60c8d8e324db4f9ee8b8b5c13906020015b60405180910390a25050565b611125338383612537565b5050565b6000606080608084013515611151576040516309f82f1b60e31b815260040160405180910390fd5b60246111616101c08601866140bd565b905010806111a5575063b3bcbb7960e01b6111806101c08601866140bd565b61118f91602491602091614103565b6111989161412d565b6001600160e01b03191614155b156111c357604051632a84050f60e01b815260040160405180910390fd5b60408051600180825281830190925290816020015b60408051808201909152600080825260208201528152602001906001900390816111d85790505090506040518060400160405280306001600160a01b0316815260200160008152508160008151811061123357611233614031565b6020908102919091010152600061124e6101c08601866140bd565b81019061125b919061415d565b92505050600061126b8287610fa4565b905060006112788761101f565b9050600061128b8860c0013584846125d6565b9050612710886101800135036112f657806112aa6101a08a018a6140bd565b8782828080601f016020809104026020016040519081016040528093929190818152602001838380828437600092019190915250969d50919b5091995061138198505050505050505050565b61132c816113158561130f6101808d01356127106143f1565b866125d6565b611324906101808c0135614404565b6127106125d6565b61133a6101a08a018a6140bd565b8782828080601f016020809104026020016040519081016040528093929190818152602001838380828437600092019190915250969d50919b509199505050505050505050505b9193909250565b600a546005546040516321d1336160e11b815260048101919091526000916001600160a01b0316906343a266c29060240161012060405180830381865afa1580156113d7573d6000803e3d6000fd5b505050506040513d601f19601f820116820180604052508101906113fb9190614417565b61010081015190915060f51c60019081160361142a57604051631d2c125760e31b815260040160405180910390fd5b600954604051635d53f40760e11b815260048101859052602481018490526000916001600160a01b03169063baa7e80e906044016000604051808303816000875af115801561147d573d6000803e3d6000fd5b505050506040513d6000823e601f3d908101601f191682016040526114a59190810190614497565b6009546040516304db994760e21b8152306004820152602481018790529192506000916001600160a01b039091169063136e651c90604401602060405180830381865afa1580156114fa573d6000803e3d6000fd5b505050506040513d601f19601f8201168201806040525081019061151e9190614229565b90506000805b8581101561159c5783818151811061153e5761153e614031565b60200260200101519150611552838361241b565b6040513381526001600160a01b03841690889084907f031e1988c95a91ec4d655ff63a8f87a80bc9daf28d95ae10ee08c0022cfb5c8b9060200160405180910390a4600101611524565b50505050505050565b6115af3383612183565b6115cc5760405163e5fa0e3560e01b815260040160405180910390fd5b610a95848484846126a2565b600954604051630fab094760e01b81523060048201526060916000916001600160a01b0390911690630fab094790602401602060405180830381865afa158015611626573d6000803e3d6000fd5b505050506040513d601f19601f8201168201806040525081019061164a9190614229565b90506001600160a01b038116156116c857604051636d02a25560e11b8152600481018490526001600160a01b0382169063da0544aa90602401600060405180830381865afa1580156116a0573d6000803e3d6000fd5b505050506040513d6000823e601f3d908101601f1916820160405261101891908101906144cb565b60095460405163f682eeaf60e01b8152306004820152611018916001600160a01b03169063f682eeaf90602401600060405180830381865afa158015611712573d6000803e3d6000fd5b505050506040513d6000823e601f3d908101601f1916820160405261173a91908101906144cb565b600954604051630c8df17160e41b8152306004820152602481018790526001600160a01b039091169063c8df171090604401602060405180830381865afa158015611789573d6000803e3d6000fd5b505050506040513d601f19601f820116820180604052508101906117ad919061435f565b6126d6565b6008546001600160a01b031630036117c957600080fd5b6009546001600160a01b0316156117df57600080fd5b6117eb8b8b8b8b61273d565b600a80546001600160a01b03808a166001600160a01b031992831617909255600980548584169083161790556020850151600c556040850151600d556060850151600b805491909316911617905585511561189f576040516331315e5960e11b81526001600160a01b03831690636262bcb29061186c908990600401613487565b600060405180830381600087803b15801561188657600080fd5b505af115801561189a573d6000803e3d6000fd5b505050505b8351156119055760405163d67b78fd60e01b81526001600160a01b0383169063d67b78fd906118d2908790600401613487565b600060405180830381600087803b1580156118ec57600080fd5b505af1158015611900573d6000803e3d6000fd5b505050505b6001600160a01b038516156119705760405163036129cb60e61b81526001600160a01b03868116600483015283169063d84a72c090602401600060405180830381600087803b15801561195757600080fd5b505af115801561196b573d6000803e3d6000fd5b505050505b825151156119ee57825160405163eadd8b3760e01b81526001600160a01b0384169163eadd8b37916119a59190600401614538565b6000604051808303816000875af11580156119c4573d6000803e3d6000fd5b505050506040513d6000823e601f3d908101601f191682016040526119ec9190810190614497565b505b8051806119fc575080602001515b80611a08575080604001515b15611a8e57604080516365c13f1960e11b815282511515600482015260208301511515602482015290820151151560448201526060820151151560648201526001600160a01b0383169063cb827e3290608401600060405180830381600087803b158015611a7557600080fd5b505af1158015611a89573d6000803e3d6000fd5b505050505b611a97336124e5565b5050505050505050505050565b611aac6122db565b60095460405163d67b78fd60e01b81526001600160a01b039091169063d67b78fd90611ade908590859060040161439c565b600060405180830381600087803b158015611af857600080fd5b505af1158015611b0c573d6000803e3d6000fd5b505050508181604051611b209291906143cb565b604051908190038120338252907fd36dc0c1a06103fdcaf15f3f6fb797d1a97997514c78de073640c8b5005454b89060200161110e565b610120810135606080611b6e6101608501856140bd565b8080601f01602080910402602001604051908101604052809392919081815260200183838082843760009201919091525092945060019250611bae915050565b604051908082528060200260200182016040528015611bf357816020015b6040805180820190915260008082526020820152815260200190600190039081611bcc5790505b5090506040518060400160405280306001600160a01b03168152602001600081525081600081518110611c2857611c28614031565b60200260200101819052509193909250565b60055434151580611cbb5750600654604051636e49181f60e01b8152600481018390523360248201526001600160a01b0390911690636e49181f90604401602060405180830381865afa158015611c95573d6000803e3d6000fd5b505050506040513d601f19601f82011682018060405250810190611cb991906140a0565b155b80611cca575080826020013514155b15611ce8576040516331c57b1b60e21b815260040160405180910390fd5b61112582612770565b611cf96122db565b6009546040516317161f7d60e01b81526001600160a01b038381166004830152909116906317161f7d90602401600060405180830381600087803b158015611d4057600080fd5b505af1158015611d54573d6000803e3d6000fd5b50506040513381526001600160a01b03841692507fab0014d4c7a642a02a31b303a318908c22b0fb2001f107278fc6076b4c671b659150602001610a37565b600954604051630155619b60e71b81523060048201526060916001600160a01b03169063aab0cd8090602401600060405180830381865afa158015611ddc573d6000803e3d6000fd5b505050506040513d6000823e601f3d908101601f19168201604052611e0491908101906144cb565b905090565b611e116122db565b6001600160a01b038116611e7b5760405162461bcd60e51b815260206004820152602660248201527f4f776e61626c653a206e6577206f776e657220697320746865207a65726f206160448201526564647265737360d01b60648201526084015b60405180910390fd5b611e84816124e5565b50565b611e8f6122db565b82818015611f5f576009546040516320512ba160e01b81526001600160a01b03909116906320512ba190611ec99087908790600401614611565b600060405180830381600087803b158015611ee357600080fd5b505af1158015611ef7573d6000803e3d6000fd5b5050505060005b81811015611f5d57848482818110611f1857611f18614031565b60405133815260209182029390930135927f832d89d991be5351d793c20faf4b7dd44f8aa9ce39e3cb160c6317de6fbba72992500160405180910390a2600101611efe565b505b81156120625760095460405163eadd8b3760e01b81526000916001600160a01b03169063eadd8b3790611f98908a908a90600401614727565b6000604051808303816000875af1158015611fb7573d6000803e3d6000fd5b505050506040513d6000823e601f3d908101601f19168201604052611fdf9190810190614497565b905060005b8381101561205f57818181518110611ffe57611ffe614031565b60200260200101517f85b5b4c4e44e342c8dac3c3a5364494d455043decb9f4bb8e7e0a3020d22fed489898481811061203957612039614031565b905061014002013360405161204f92919061476a565b60405180910390a2600101611fe4565b50505b505050505050565b60006001600160e01b0319821663b3bcbb7960e01b148061209b57506001600160e01b031982166371700c6960e01b145b806120b657506001600160e01b0319821663da9ee8b760e01b145b806120d157506001600160e01b03198216632b13c58f60e01b145b8061081c575061081c82612a83565b6000818152600260205260409020546001600160a01b0316611e845760405163b49aa3b560e01b815260040160405180910390fd5b600081815260036020526040902080546001600160a01b0319166001600160a01b038416908117909155819061214a82610d9e565b6001600160a01b03167f8c5be1e5ebec7d5bd14f71427d1e84f3dd0314c0f7b2291e5b200ac8c7c3b92560405160405180910390a45050565b60008061218f83610d9e565b9050806001600160a01b0316846001600160a01b031614806121d657506001600160a01b0380821660009081526004602090815260408083209388168352929052205460ff165b806121fa5750836001600160a01b03166121ef846108b4565b6001600160a01b0316145b949350505050565b826001600160a01b031661221582610d9e565b6001600160a01b03161461223c5760405163a195bc5360e01b815260040160405180910390fd5b6001600160a01b03821661226357604051632c95542760e01b815260040160405180910390fd5b61226e838383612ad3565b612279600082612115565b60008181526002602052604080822080546001600160a01b0319166001600160a01b0386811691821790925591518493918716917fddf252ad1be2c89b69c2b068fc378daa952ba7f163c4a11628f55a4df523b3ef91a4610962838383612d00565b6007546001600160a01b03163314610fa25760405162461bcd60e51b815260206004820181905260248201527f4f776e61626c653a2063616c6c6572206973206e6f7420746865206f776e65726044820152606401611e72565b600061234082610d9e565b905061234e81600084612ad3565b612359600083612115565b60008281526002602052604080822080546001600160a01b0319169055518391906001600160a01b038416907fddf252ad1be2c89b69c2b068fc378daa952ba7f163c4a11628f55a4df523b3ef908390a461112581600084612d00565b6009546040516386bc2be360e01b81526001600160a01b03909116906386bc2be3906123e6908490600401613740565b600060405180830381600087803b15801561240057600080fd5b505af1158015612414573d6000803e3d6000fd5b5050505050565b6001600160a01b03821661244257604051633904578f60e11b815260040160405180910390fd5b6000818152600260205260409020546001600160a01b03161561247857604051632eb5f0c360e21b815260040160405180910390fd5b61248460008383612ad3565b60008181526002602052604080822080546001600160a01b0319166001600160a01b03861690811790915590518392907fddf252ad1be2c89b69c2b068fc378daa952ba7f163c4a11628f55a4df523b3ef908290a461112560008383612d00565b600780546001600160a01b038381166001600160a01b0319831681179093556040519116919082907f8be0079c531659141344cd1fd0a4f28419497f9722a3daafe3b4186f6b6457e090600090a35050565b816001600160a01b0316836001600160a01b031603612569576040516306f8139d60e11b815260040160405180910390fd5b6001600160a01b03838116600081815260046020908152604080832094871680845294825291829020805460ff191686151590811790915591519182527f17307eab39ab6107e8899845ad3d59bd9653f200f220920489ca2b5937696c31910160405180910390a3505050565b60008080600019858709858702925082811083820303915050806000036126105783828161260657612606614792565b0492505050611018565b83811061263a57604051631dcf306360e21b81526004810182905260248101859052604401611e72565b600084868809600260036001881981018916988990049182028318808302840302808302840302808302840302808302840302808302840302918202909203026000889003889004909101858311909403939093029303949094049190911702949350505050565b6126ad848484612202565b6126b984848484612ded565b610a95576040516336f57c1b60e11b815260040160405180910390fd5b604051609160f51b6020820152602281018290526060906000906042016040516020818303038152906040529050600061270f82612eef565b905084816040516020016127249291906147a8565b6040516020818303038152906040529250505092915050565b6127478282613087565b5050600591909155600680546001600160a01b0319166001600160a01b03909216919091179055565b600c5460009060c08301350361278b57506080810135612841565b600b546001600160a01b03161561112557600d5461283e906080840135906127b490600a6148bb565b600b54600c54604051635268657960e11b815260c08801356004820152602481019190915260a087013560448201526001600160a01b039091169063a4d0caf290606401602060405180830381865afa158015612815573d6000803e3d6000fd5b505050506040513d601f19601f82011682018060405250810190612839919061435f565b6125d6565b90505b6000600e816128586101a086016101808701613545565b6001600160a01b0316815260208101919091526040016000908120549150829061288a6101a086016101808701613545565b6001600160a01b03166128a06020870187613545565b6001600160a01b0316036128b757908201906128ba565b50815b600060446128cc6101e08801886140bd565b9050118015612910575063b3bcbb7960e01b6128ec6101e08801886140bd565b6128fb91604491604091614103565b6129049161412d565b6001600160e01b031916145b156129e75760606129256101e08801886140bd565b81019061293291906148c7565b909550935084925050811590506129b55750600954604051634228826f60e11b81523060048201526001600160a01b039091169063845104de90602401608060405180830381865afa15801561298c573d6000803e3d6000fd5b505050506040513d601f19601f820116820180604052508101906129b09190614999565b606001515b156129bf57600091505b8051156129e5576129e284826129dd6101a08b016101808c01613545565b6130a0565b93505b505b8215612a435780612a0b57604051631b57826960e21b815260040160405180910390fd5b828201600e6000612a246101a08a016101808b01613545565b6001600160a01b03168152602081019190915260400160002055612062565b8184146120625781600e6000612a616101a08a016101808b01613545565b6001600160a01b03168152602081019190915260400160002055505050505050565b60006001600160e01b031982166380ac58cd60e01b1480612ab457506001600160e01b03198216635b5e139f60e01b145b8061081c57506301ffc9a760e01b6001600160e01b031983161461081c565b6001600160a01b038316156109625760095460405163b67cb04760e01b8152306004820152602481018390526000916001600160a01b03169063b67cb0479060440161016060405180830381865afa158015612b33573d6000803e3d6000fd5b505050506040513d601f19601f82011682018060405250810190612b579190614a1d565b905080610140015115612c1c57600a546005546040516321d1336160e11b815260048101919091526000916001600160a01b0316906343a266c29060240161012060405180830381865afa158015612bb3573d6000803e3d6000fd5b505050506040513d601f19601f82011682018060405250810190612bd79190614417565b90506001600160a01b03841615801590612bfc575061010081015160f41c6001908116145b15612c1a576040516318cdaf9760e01b815260040160405180910390fd5b505b6009546040516308ed6c0160e41b8152306004820152602481018490526000916001600160a01b031690638ed6c01090604401602060405180830381865afa158015612c6c573d6000803e3d6000fd5b505050506040513d601f19601f82011682018060405250810190612c909190614229565b6001600160a01b031603610a9557600954604051638cec7d3960e01b8152600481018490526001600160a01b03868116602483015290911690638cec7d3990604401600060405180830381600087803b158015612cec57600080fd5b505af115801561205f573d6000803e3d6000fd5b60095460405163b67cb04760e01b8152306004820152602481018390526000916001600160a01b03169063b67cb0479060440161016060405180830381865afa158015612d51573d6000803e3d6000fd5b505050506040513d601f19601f82011682018060405250810190612d759190614a1d565b60095481516040516330b157e560e21b815260048101919091526001600160a01b038781166024830152868116604483015292935091169063c2c55f9490606401600060405180830381600087803b158015612dd057600080fd5b505af1158015612de4573d6000803e3d6000fd5b50505050610a95565b60006001600160a01b0384163b15612ee457604051630a85bd0160e11b81526001600160a01b0385169063150b7a0290612e31903390899088908890600401614abf565b6020604051808303816000875af1925050508015612e6c575060408051601f3d908101601f19168201909252612e6991810190614afc565b60015b612eca573d808015612e9a576040519150601f19603f3d011682016040523d82523d6000602084013e612e9f565b606091505b508051600003612ec2576040516336f57c1b60e11b815260040160405180910390fd5b805181602001fd5b6001600160e01b031916630a85bd0160e11b1490506121fa565b506001949350505050565b60608151600003612f0e57505060408051600081526020810190915290565b60408051602e8082526105e08201909252600091602082016105c080368337019050509050600081600081518110612f4857612f48614031565b60ff90921660209283029190910190910152825160019060005b81811015613063576000868281518110612f7e57612f7e614031565b016020015160f81c905060005b8460ff16811015613008576008868281518110612faa57612faa614031565b602002602001015160ff16901b82612fc29190614404565b9150612fcf603a83614b19565b868281518110612fe157612fe1614031565b60ff90921660209283029190910190910152612ffe603a83614b2d565b9150600101612f8b565b505b801561305a5761301b603a82614b19565b858560ff168151811061303057613030614031565b60ff90921660209283029190910190910152600190930192613053603a82614b2d565b905061300a565b50600101612f62565b5061307e61307961307485856131e2565b613289565b61332b565b95945050505050565b60006130938382614b87565b5060016109628282614b87565b60095460405163eaa19ab360e01b81526000916060916001600160a01b039091169063eaa19ab3906130da90889088908790600401614c46565b6000604051808303816000875af11580156130f9573d6000803e3d6000fd5b505050506040513d6000823e601f3d908101601f1916820160405261312191908101906142fe565b81519093509091506000805b828110156131d75783818151811061314757613147614031565b6020026020010151915061315b868361241b565b856001600160a01b031687828151811061317757613177614031565b602002602001015161ffff16837f598baf7bf150ca2f42be9e9f8f55e81d45f5715c3ff22bf46d697fabec7f31d68b336040516131c79291909182526001600160a01b0316602082015260400190565b60405180910390a460010161312d565b505050509392505050565b606060008260ff166001600160401b0381111561320157613201613753565b60405190808252806020026020018201604052801561322a578160200160208202803683370190505b50905060005b8360ff168110156132815784818151811061324d5761324d614031565b602002602001015182828151811061326757613267614031565b60ff90921660209283029190910190910152600101613230565b509392505050565b80516060906000816001600160401b038111156132a8576132a8613753565b6040519080825280602002602001820160405280156132d1578160200160208202803683370190505b50905060005b82811015613281578481600187510303815181106132f7576132f7614031565b602002602001015182828151811061331157613311614031565b60ff909216602092830291909101909101526001016132d7565b80516060906000816001600160401b0381111561334a5761334a613753565b6040519080825280601f01601f191660200182016040528015613374576020820181803683370190505b50905060005b82811015613281576040518060600160405280603a8152602001614ca4603a91398582815181106133ad576133ad614031565b602002602001015160ff16815181106133c8576133c8614031565b602001015160f81c60f81b8282815181106133e5576133e5614031565b60200101906001600160f81b031916908160001a90535060010161337a565b6001600160e01b031981168114611e8457600080fd5b60006020828403121561342c57600080fd5b813561101881613404565b60005b8381101561345257818101518382015260200161343a565b50506000910152565b60008151808452613473816020860160208601613437565b601f01601f19169290920160200192915050565b602081526000611018602083018461345b565b6000602082840312156134ac57600080fd5b5035919050565b6001600160a01b0381168114611e8457600080fd5b80356134d3816134b3565b919050565b600080604083850312156134eb57600080fd5b82356134f6816134b3565b946020939093013593505050565b60008060006060848603121561351957600080fd5b8335613524816134b3565b92506020840135613534816134b3565b929592945050506040919091013590565b60006020828403121561355757600080fd5b8135611018816134b3565b6000806020838503121561357557600080fd5b82356001600160401b038082111561358c57600080fd5b818501915085601f8301126135a057600080fd5b8135818111156135af57600080fd5b8660208260061b85010111156135c457600080fd5b60209290920196919550909350505050565b60006101e082840312156135e957600080fd5b50919050565b60006020828403121561360157600080fd5b81356001600160401b0381111561361757600080fd5b6121fa848285016135d6565b60008083601f84011261363557600080fd5b5081356001600160401b0381111561364c57600080fd5b6020830191508360208260051b850101111561366757600080fd5b9250929050565b6000806020838503121561368157600080fd5b82356001600160401b0381111561369757600080fd5b6136a385828601613623565b90969095509350505050565b6000806000604084860312156136c457600080fd5b83356001600160401b038111156136da57600080fd5b6136e686828701613623565b90945092505060208401356136fa816134b3565b809150509250925092565b600081518084526020808501945080840160005b8381101561373557815187529582019590820190600101613719565b509495945050505050565b6020815260006110186020830184613705565b634e487b7160e01b600052604160045260246000fd5b604051608081016001600160401b038111828210171561378b5761378b613753565b60405290565b60405161014081016001600160401b038111828210171561378b5761378b613753565b60405161012081016001600160401b038111828210171561378b5761378b613753565b60405161016081016001600160401b038111828210171561378b5761378b613753565b604051601f8201601f191681016001600160401b038111828210171561382257613822613753565b604052919050565b60006001600160401b0382111561384357613843613753565b5060051b60200190565b600082601f83011261385e57600080fd5b8135602061387361386e8361382a565b6137fa565b82815260059290921b8401810191818101908684111561389257600080fd5b8286015b848110156138ad5780358352918301918301613896565b509695505050505050565b600080604083850312156138cb57600080fd5b82356001600160401b03808211156138e257600080fd5b6138ee8683870161384d565b9350602085013591508082111561390457600080fd5b50613911858286016135d6565b9150509250929050565b6000806020838503121561392e57600080fd5b82356001600160401b038082111561394557600080fd5b818501915085601f83011261395957600080fd5b81358181111561396857600080fd5b8660208285010111156135c457600080fd5b8015158114611e8457600080fd5b80356134d38161397a565b600080604083850312156139a657600080fd5b82356139b1816134b3565b915060208301356139c18161397a565b809150509250929050565b838152600060206060818401526139e6606084018661345b565b83810360408581019190915285518083528387019284019060005b81811015613a2f57845180516001600160a01b03168452860151868401529385019391830191600101613a01565b50909998505050505050505050565b60008060408385031215613a5157600080fd5b50508035926020909101359150565b60006001600160401b03821115613a7957613a79613753565b50601f01601f191660200190565b6000613a9561386e84613a60565b9050828152838383011115613aa957600080fd5b828260208301376000602084830101529392505050565b60008060008060808587031215613ad657600080fd5b8435613ae1816134b3565b93506020850135613af1816134b3565b92506040850135915060608501356001600160401b03811115613b1357600080fd5b8501601f81018713613b2457600080fd5b613b3387823560208401613a87565b91505092959194509250565b600082601f830112613b5057600080fd5b61101883833560208501613a87565b803569ffffffffffffffffffff811681146134d357600080fd5b803565ffffffffffff811681146134d357600080fd5b803564ffffffffff811681146134d357600080fd5b803561ffff811681146134d357600080fd5b60006080808385031215613bc957600080fd5b613bd1613769565b915082356001600160401b03811115613be957600080fd5b8301601f81018513613bfa57600080fd5b80356020613c0a61386e8361382a565b8281526101409283028401820192828201919089851115613c2a57600080fd5b948301945b84861015613cf95780868b031215613c475760008081fd5b613c4f613791565b613c5887613b5f565b8152613c65858801613b79565b858201526040613c76818901613b8f565b908201526060613c87888201613ba4565b90820152613c96878901613ba4565b8882015260a0613ca78189016134c8565b9082015260c0878101359082015260e0613cc2818901613988565b90820152610100613cd4888201613988565b90820152610120613ce6888201613988565b9082015283529485019491830191613c2f565b50865250858101359085015250505060408083013590820152613d1e606083016134c8565b606082015292915050565b600060808284031215613d3b57600080fd5b613d43613769565b90508135613d508161397a565b81526020820135613d608161397a565b60208201526040820135613d738161397a565b60408201526060820135613d1e8161397a565b60008060008060008060008060008060006101c08c8e031215613da857600080fd5b8b359a50613db860208d016134c8565b99506001600160401b038060408e01351115613dd357600080fd5b613de38e60408f01358f01613b3f565b99508060608e01351115613df657600080fd5b613e068e60608f01358f01613b3f565b9850613e1460808e016134c8565b97508060a08e01351115613e2757600080fd5b613e378e60a08f01358f01613b3f565b9650613e4560c08e016134c8565b95508060e08e01351115613e5857600080fd5b613e688e60e08f01358f01613b3f565b9450806101008e01351115613e7c57600080fd5b50613e8e8d6101008e01358e01613bb6565b9250613e9d6101208d016134c8565b9150613ead8d6101408e01613d29565b90509295989b509295989b9093969950565b600060208284031215613ed157600080fd5b81356001600160401b03811115613ee757600080fd5b82016101a0818503121561101857600080fd5b600060208284031215613f0c57600080fd5b81356001600160401b03811115613f2257600080fd5b8201610200818503121561101857600080fd5b60008060408385031215613f4857600080fd5b8235613f53816134b3565b915060208301356139c1816134b3565b60008060008060408587031215613f7957600080fd5b84356001600160401b0380821115613f9057600080fd5b818701915087601f830112613fa457600080fd5b813581811115613fb357600080fd5b88602061014083028501011115613fc957600080fd5b602092830196509450908601359080821115613fe457600080fd5b50613ff187828801613623565b95989497509550505050565b600181811c9082168061401157607f821691505b6020821081036135e957634e487b7160e01b600052602260045260246000fd5b634e487b7160e01b600052603260045260246000fd5b60006040828403121561405957600080fd5b604051604081018181106001600160401b038211171561407b5761407b613753565b604052823581526020928301359281019290925250919050565b80516134d38161397a565b6000602082840312156140b257600080fd5b81516110188161397a565b6000808335601e198436030181126140d457600080fd5b8301803591506001600160401b038211156140ee57600080fd5b60200191503681900382131561366757600080fd5b6000808585111561411357600080fd5b8386111561412057600080fd5b5050820193919092039150565b6001600160e01b031981358181169160048510156141555780818660040360031b1b83161692505b505092915050565b60008060006060848603121561417257600080fd5b83359250602084013561418481613404565b915060408401356001600160401b0381111561419f57600080fd5b6141ab8682870161384d565b9150509250925092565b60008235603e198336030181126141cb57600080fd5b9190910192915050565b6000808335601e198436030181126141ec57600080fd5b8301803591506001600160401b0382111561420657600080fd5b6020019150600581901b360382131561366757600080fd5b80516134d3816134b3565b60006020828403121561423b57600080fd5b8151611018816134b3565b84815260606020808301829052908201849052600090859060808401835b8781101561428b5761ffff61427885613ba4565b1682529282019290820190600101614264565b50809350505050821515604083015295945050505050565b600082601f8301126142b457600080fd5b815160206142c461386e8361382a565b82815260059290921b840181019181810190868411156142e357600080fd5b8286015b848110156138ad57805183529183019183016142e7565b6000806040838503121561431157600080fd5b82516001600160401b0381111561432757600080fd5b614333858286016142a3565b925050602083015190509250929050565b60006020828403121561435657600080fd5b61101882613ba4565b60006020828403121561437157600080fd5b5051919050565b6001600160a01b03831681526040602082018190526000906121fa90830184613705565b60208152816020820152818360408301376000818301604090810191909152601f909201601f19160101919050565b8183823760009101908152919050565b634e487b7160e01b600052601160045260246000fd5b8181038181111561081c5761081c6143db565b8082018082111561081c5761081c6143db565b6000610120828403121561442a57600080fd5b6144326137b4565b825181526020830151602082015260408301516040820152606083015160608201526080830151608082015260a083015160a082015260c083015160c082015261447e60e0840161421e565b60e0820152610100928301519281019290925250919050565b6000602082840312156144a957600080fd5b81516001600160401b038111156144bf57600080fd5b6121fa848285016142a3565b6000602082840312156144dd57600080fd5b81516001600160401b038111156144f357600080fd5b8201601f8101841361450457600080fd5b805161451261386e82613a60565b81815285602083850101111561452757600080fd5b61307e826020830160208601613437565b602080825282518282018190526000919060409081850190868401855b82811015614604578151805169ffffffffffffffffffff1685528681015165ffffffffffff16878601528581015164ffffffffff168686015260608082015161ffff908116918701919091526080808301519091169086015260a0808201516001600160a01b03169086015260c0808201519086015260e08082015115159086015261010080820151151590860152610120908101511515908501526101409093019290850190600101614555565b5091979650505050505050565b6020808252810182905260006001600160fb1b0383111561463157600080fd5b8260051b80856040850137919091016040019392505050565b6146678261465783613b5f565b69ffffffffffffffffffff169052565b61467360208201613b79565b65ffffffffffff16602083015261468c60408201613b8f565b64ffffffffff1660408301526146a460608201613ba4565b61ffff1660608301526146b960808201613ba4565b61ffff1660808301526146ce60a082016134c8565b6001600160a01b031660a083015260c081810135908301526146f260e08201613988565b151560e0830152610100614707828201613988565b15159083015261012061471b828201613988565b80151584830152610a95565b6020808252810182905260008360408301825b858110156147605761474c828461464a565b61014092830192919091019060010161473a565b5095945050505050565b6101608101614779828561464a565b6001600160a01b03929092166101409190910152919050565b634e487b7160e01b600052601260045260246000fd5b600083516147ba818460208801613437565b8351908301906147ce818360208801613437565b01949350505050565b600181815b808511156148125781600019048211156147f8576147f86143db565b8085161561480557918102915b93841c93908002906147dc565b509250929050565b6000826148295750600161081c565b816148365750600061081c565b816001811461484c576002811461485657614872565b600191505061081c565b60ff841115614867576148676143db565b50506001821b61081c565b5060208310610133831016604e8410600b8410161715614895575081810a61081c565b61489f83836147d7565b80600019048211156148b3576148b36143db565b029392505050565b6000611018838361481a565b600080600080600060a086880312156148df57600080fd5b85359450602080870135945060408701356148f981613404565b935060608701356149098161397a565b925060808701356001600160401b0381111561492457600080fd5b8701601f8101891361493557600080fd5b803561494361386e8261382a565b81815260059190911b8201830190838101908b83111561496257600080fd5b928401925b828410156149875761497884613ba4565b82529284019290840190614967565b80955050505050509295509295909350565b6000608082840312156149ab57600080fd5b604051608081018181106001600160401b03821117156149cd576149cd613753565b60405282516149db8161397a565b815260208301516149eb8161397a565b602082015260408301516149fe8161397a565b60408201526060830151614a118161397a565b60608201529392505050565b60006101608284031215614a3057600080fd5b614a386137d7565b825181526020830151602082015260408301516040820152606083015160608201526080830151608082015260a083015160a082015260c083015160c0820152614a8460e0840161421e565b60e08201526101008381015190820152610120614aa2818501614095565b90820152610140614ab4848201614095565b908201529392505050565b6001600160a01b0385811682528416602082015260408101839052608060608201819052600090614af29083018461345b565b9695505050505050565b600060208284031215614b0e57600080fd5b815161101881613404565b600082614b2857614b28614792565b500690565b600082614b3c57614b3c614792565b500490565b601f82111561096257600081815260208120601f850160051c81016020861015614b685750805b601f850160051c820191505b8181101561206257828155600101614b74565b81516001600160401b03811115614ba057614ba0613753565b614bb481614bae8454613ffd565b84614b41565b602080601f831160018114614be95760008415614bd15750858301515b600019600386901b1c1916600185901b178555612062565b600085815260208120601f198616915b82811015614c1857888601518255948401946001909101908401614bf9565b5085821015614c365787850151600019600388901b60f8161c191681555b5050505050600190811b01905550565b6000606082018583526020606081850152818651808452608086019150828801935060005b81811015614c8b57845161ffff1683529383019391830191600101614c6b565b5050809350505050821515604083015294935050505056fe31323334353637383941424344454647484a4b4c4d4e505152535455565758595a6162636465666768696a6b6d6e6f707172737475767778797aa264697066735822122082ceb28344ef3d1bc043838dbaed6f9032e61aaa1281473af259aefd40fc744d64736f6c63430008110033",
    "linkReferences": {}
  },
  "methodIdentifiers": {
    "adjustTiers((uint80,uint48,uint40,uint16,uint16,address,bytes32,bool,bool,bool)[],uint256[])": "f5a38e63",
    "approve(address,uint256)": "095ea7b3",
    "balanceOf(address)": "70a08231",
    "codeOrigin()": "1d153ca4",
    "contractURI()": "e8a3d485",
    "creditsOf(address)": "245a45b5",
    "didPay((address,uint256,uint256,(address,uint256,uint256,uint256),(address,uint256,uint256,uint256),uint256,address,bool,string,bytes))": "da9ee8b7",
    "didRedeem((address,uint256,uint256,uint256,(address,uint256,uint256,uint256),(address,uint256,uint256,uint256),address,string,bytes))": "2b13c58f",
    "directory()": "c41c2f24",
    "firstOwnerOf(uint256)": "54c6d1f5",
    "fundingCycleStore()": "557e7155",
    "getApproved(uint256)": "081812fc",
    "initialize(uint256,address,string,string,address,string,address,string,((uint80,uint48,uint40,uint16,uint16,address,bytes32,bool,bool,bool)[],uint256,uint256,address),address,(bool,bool,bool,bool))": "cac486a8",
    "isApprovedForAll(address,address)": "e985e9c5",
    "mintFor((uint16[],address)[])": "36c1a93b",
    "mintFor(uint16[],address)": "6ac6d941",
    "mintReservesFor((uint256,uint256)[])": "2a596e53",
    "mintReservesFor(uint256,uint256)": "aa4fb15b",
    "name()": "06fdde03",
    "owner()": "8da5cb5b",
    "ownerOf(uint256)": "6352211e",
    "payParams((address,address,(address,uint256,uint256,uint256),uint256,uint256,address,uint256,uint256,string,bytes))": "d46cf171",
    "prices()": "d3419bf3",
    "pricingCurrency()": "64640c1e",
    "pricingDecimals()": "4ecba625",
    "projectId()": "3fafa127",
    "redeemParams((address,address,uint256,uint256,uint256,uint256,uint256,(address,uint256,uint256,uint256),bool,uint256,string,bytes))": "a51cfd18",
    "redemptionWeightOf(uint256[],(address,address,uint256,uint256,uint256,uint256,uint256,(address,uint256,uint256,uint256),bool,uint256,string,bytes))": "7ba62bf9",
    "renounceOwnership()": "715018a6",
    "safeTransferFrom(address,address,uint256)": "42842e0e",
    "safeTransferFrom(address,address,uint256,bytes)": "b88d4fde",
    "setApprovalForAll(address,bool)": "a22cb465",
    "setBaseUri(string)": "a0bcfc7f",
    "setContractUri(string)": "ccb4807b",
    "setDefaultReservedTokenBeneficiary(address)": "df487e26",
    "setTokenUriResolver(address)": "2407497e",
    "store()": "975057e7",
    "supportsInterface(bytes4)": "01ffc9a7",
    "symbol()": "95d89b41",
    "tokenURI(uint256)": "c87b56dd",
    "totalRedemptionWeight((address,address,uint256,uint256,uint256,uint256,uint256,(address,uint256,uint256,uint256),bool,uint256,string,bytes))": "9494bf72",
    "transferFrom(address,address,uint256)": "23b872dd",
    "transferOwnership(address)": "f2fde38b"
  },
  "id": 2
}