{
  "abi": [
    {
      "inputs": [
        {
          "internalType": "contract IJBProjects",
          "name": "_projects",
          "type": "address"
        },
        {
          "internalType": "contract IJBOperatorStore",
          "name": "_operatorStore",
          "type": "address"
        }
      ],
      "stateMutability": "nonpayable",
      "type": "constructor"
    },
    {
      "inputs": [],
      "name": "ALEADY_MINTED",
      "type": "error"
    },
    {
      "inputs": [],
      "name": "APPROVAL_TO_CURRENT_OWNER",
      "type": "error"
    },
    {
      "inputs": [],
      "name": "APPROVE_TO_CALLER",
      "type": "error"
    },
    {
      "inputs": [],
      "name": "CALLER_NOT_OWNER_OR_APPROVED",
      "type": "error"
    },
    {
      "inputs": [],
      "name": "INCORRECT_OWNER",
      "type": "error"
    },
    {
      "inputs": [
        {
          "internalType": "address",
          "name": "ownerAddress",
          "type": "address"
        },
        {
          "internalType": "uint256",
          "name": "projectId",
          "type": "uint256"
        }
      ],
      "name": "INVALID_NEW_OWNER",
      "type": "error"
    },
    {
      "inputs": [],
      "name": "INVALID_PAYMENT_EVENT",
      "type": "error"
    },
    {
      "inputs": [],
      "name": "INVALID_REDEMPTION_EVENT",
      "type": "error"
    },
    {
      "inputs": [],
      "name": "INVALID_REDEMPTION_METADATA",
      "type": "error"
    },
    {
      "inputs": [],
      "name": "INVALID_TOKEN_ID",
      "type": "error"
    },
    {
      "inputs": [],
      "name": "MINT_TO_ZERO",
      "type": "error"
    },
    {
      "inputs": [],
      "name": "OVERSPENDING",
      "type": "error"
    },
    {
      "inputs": [
        {
          "internalType": "uint256",
          "name": "prod1",
          "type": "uint256"
        },
        {
          "internalType": "uint256",
          "name": "denominator",
          "type": "uint256"
        }
      ],
      "name": "PRBMath__MulDivOverflow",
      "type": "error"
    },
    {
      "inputs": [],
      "name": "RESERVED_TOKEN_MINTING_PAUSED",
      "type": "error"
    },
    {
      "inputs": [],
      "name": "TRANSFERS_PAUSED",
      "type": "error"
    },
    {
      "inputs": [],
      "name": "TRANSFER_TO_NON_IMPLEMENTER",
      "type": "error"
    },
    {
      "inputs": [],
      "name": "TRANSFER_TO_ZERO_ADDRESS",
      "type": "error"
    },
    {
      "inputs": [],
      "name": "UNAUTHORIZED",
      "type": "error"
    },
    {
      "inputs": [
        {
          "internalType": "uint256",
          "name": "_tokenId",
          "type": "uint256"
        }
      ],
      "name": "UNAUTHORIZED_TOKEN",
      "type": "error"
    },
    {
      "inputs": [],
      "name": "UNEXPECTED_TOKEN_REDEEMED",
      "type": "error"
    },
    {
      "anonymous": false,
      "inputs": [
        {
          "indexed": true,
          "internalType": "uint256",
          "name": "changeAmount",
          "type": "uint256"
        },
        {
          "indexed": true,
          "internalType": "uint256",
          "name": "newTotalCredits",
          "type": "uint256"
        },
        {
          "indexed": true,
          "internalType": "address",
          "name": "account",
          "type": "address"
        },
        {
          "indexed": false,
          "internalType": "address",
          "name": "caller",
          "type": "address"
        }
      ],
      "name": "AddCredits",
      "type": "event"
    },
    {
      "anonymous": false,
      "inputs": [
        {
          "indexed": true,
          "internalType": "uint256",
          "name": "tierId",
          "type": "uint256"
        },
        {
          "components": [
            {
              "internalType": "uint96",
              "name": "price",
              "type": "uint96"
            },
            {
              "internalType": "uint32",
              "name": "initialQuantity",
              "type": "uint32"
            },
            {
              "internalType": "uint32",
              "name": "votingUnits",
              "type": "uint32"
            },
            {
              "internalType": "uint16",
              "name": "reservedRate",
              "type": "uint16"
            },
            {
              "internalType": "address",
              "name": "reservedTokenBeneficiary",
              "type": "address"
            },
            {
              "internalType": "bytes32",
              "name": "encodedIPFSUri",
              "type": "bytes32"
            },
            {
              "internalType": "uint16",
              "name": "category",
              "type": "uint16"
            },
            {
              "internalType": "bool",
              "name": "allowManualMint",
              "type": "bool"
            },
            {
              "internalType": "bool",
              "name": "shouldUseReservedTokenBeneficiaryAsDefault",
              "type": "bool"
            },
            {
              "internalType": "bool",
              "name": "transfersPausable",
              "type": "bool"
            },
            {
              "internalType": "bool",
              "name": "useVotingUnits",
              "type": "bool"
            }
          ],
          "indexed": false,
          "internalType": "struct JB721TierParams",
          "name": "data",
          "type": "tuple"
        },
        {
          "indexed": false,
          "internalType": "address",
          "name": "caller",
          "type": "address"
        }
      ],
      "name": "AddTier",
      "type": "event"
    },
    {
      "anonymous": false,
      "inputs": [
        {
          "indexed": true,
          "internalType": "address",
          "name": "owner",
          "type": "address"
        },
        {
          "indexed": true,
          "internalType": "address",
          "name": "approved",
          "type": "address"
        },
        {
          "indexed": true,
          "internalType": "uint256",
          "name": "tokenId",
          "type": "uint256"
        }
      ],
      "name": "Approval",
      "type": "event"
    },
    {
      "anonymous": false,
      "inputs": [
        {
          "indexed": true,
          "internalType": "address",
          "name": "owner",
          "type": "address"
        },
        {
          "indexed": true,
          "internalType": "address",
          "name": "operator",
          "type": "address"
        },
        {
          "indexed": false,
          "internalType": "bool",
          "name": "approved",
          "type": "bool"
        }
      ],
      "name": "ApprovalForAll",
      "type": "event"
    },
    {
      "anonymous": false,
      "inputs": [
        {
          "indexed": true,
          "internalType": "uint256",
          "name": "tokenId",
          "type": "uint256"
        },
        {
          "indexed": true,
          "internalType": "uint256",
          "name": "tierId",
          "type": "uint256"
        },
        {
          "indexed": true,
          "internalType": "address",
          "name": "beneficiary",
          "type": "address"
        },
        {
          "indexed": false,
          "internalType": "uint256",
          "name": "totalAmountContributed",
          "type": "uint256"
        },
        {
          "indexed": false,
          "internalType": "address",
          "name": "caller",
          "type": "address"
        }
      ],
      "name": "Mint",
      "type": "event"
    },
    {
      "anonymous": false,
      "inputs": [
        {
          "indexed": true,
          "internalType": "uint256",
          "name": "tokenId",
          "type": "uint256"
        },
        {
          "indexed": true,
          "internalType": "uint256",
          "name": "tierId",
          "type": "uint256"
        },
        {
          "indexed": true,
          "internalType": "address",
          "name": "beneficiary",
          "type": "address"
        },
        {
          "indexed": false,
          "internalType": "address",
          "name": "caller",
          "type": "address"
        }
      ],
      "name": "MintReservedToken",
      "type": "event"
    },
    {
      "anonymous": false,
      "inputs": [
        {
          "indexed": true,
          "internalType": "address",
          "name": "previousOwner",
          "type": "address"
        },
        {
          "indexed": true,
          "internalType": "address",
          "name": "newOwner",
          "type": "address"
        }
      ],
      "name": "OwnershipTransferred",
      "type": "event"
    },
    {
      "anonymous": false,
      "inputs": [
        {
          "indexed": false,
          "internalType": "uint8",
          "name": "newIndex",
          "type": "uint8"
        }
      ],
      "name": "PermissionIndexChanged",
      "type": "event"
    },
    {
      "anonymous": false,
      "inputs": [
        {
          "indexed": true,
          "internalType": "uint256",
          "name": "tierId",
          "type": "uint256"
        },
        {
          "indexed": false,
          "internalType": "address",
          "name": "caller",
          "type": "address"
        }
      ],
      "name": "RemoveTier",
      "type": "event"
    },
    {
      "anonymous": false,
      "inputs": [
        {
          "indexed": true,
          "internalType": "string",
          "name": "baseUri",
          "type": "string"
        },
        {
          "indexed": false,
          "internalType": "address",
          "name": "caller",
          "type": "address"
        }
      ],
      "name": "SetBaseUri",
      "type": "event"
    },
    {
      "anonymous": false,
      "inputs": [
        {
          "indexed": true,
          "internalType": "string",
          "name": "contractUri",
          "type": "string"
        },
        {
          "indexed": false,
          "internalType": "address",
          "name": "caller",
          "type": "address"
        }
      ],
      "name": "SetContractUri",
      "type": "event"
    },
    {
      "anonymous": false,
      "inputs": [
        {
          "indexed": true,
          "internalType": "address",
          "name": "beneficiary",
          "type": "address"
        },
        {
          "indexed": false,
          "internalType": "address",
          "name": "caller",
          "type": "address"
        }
      ],
      "name": "SetDefaultReservedTokenBeneficiary",
      "type": "event"
    },
    {
      "anonymous": false,
      "inputs": [
        {
          "indexed": true,
          "internalType": "uint256",
          "name": "tierId",
          "type": "uint256"
        },
        {
          "indexed": false,
          "internalType": "bytes32",
          "name": "encodedIPFSUri",
          "type": "bytes32"
        },
        {
          "indexed": false,
          "internalType": "address",
          "name": "caller",
          "type": "address"
        }
      ],
      "name": "SetEncodedIPFSUri",
      "type": "event"
    },
    {
      "anonymous": false,
      "inputs": [
        {
          "indexed": true,
          "internalType": "contract IJBTokenUriResolver",
          "name": "newResolver",
          "type": "address"
        },
        {
          "indexed": false,
          "internalType": "address",
          "name": "caller",
          "type": "address"
        }
      ],
      "name": "SetTokenUriResolver",
      "type": "event"
    },
    {
      "anonymous": false,
      "inputs": [
        {
          "indexed": true,
          "internalType": "address",
          "name": "from",
          "type": "address"
        },
        {
          "indexed": true,
          "internalType": "address",
          "name": "to",
          "type": "address"
        },
        {
          "indexed": true,
          "internalType": "uint256",
          "name": "tokenId",
          "type": "uint256"
        }
      ],
      "name": "Transfer",
      "type": "event"
    },
    {
      "anonymous": false,
      "inputs": [
        {
          "indexed": true,
          "internalType": "uint256",
          "name": "changeAmount",
          "type": "uint256"
        },
        {
          "indexed": true,
          "internalType": "uint256",
          "name": "newTotalCredits",
          "type": "uint256"
        },
        {
          "indexed": true,
          "internalType": "address",
          "name": "account",
          "type": "address"
        },
        {
          "indexed": false,
          "internalType": "address",
          "name": "caller",
          "type": "address"
        }
      ],
      "name": "UseCredits",
      "type": "event"
    },
    {
      "inputs": [
        {
          "components": [
            {
              "internalType": "uint96",
              "name": "price",
              "type": "uint96"
            },
            {
              "internalType": "uint32",
              "name": "initialQuantity",
              "type": "uint32"
            },
            {
              "internalType": "uint32",
              "name": "votingUnits",
              "type": "uint32"
            },
            {
              "internalType": "uint16",
              "name": "reservedRate",
              "type": "uint16"
            },
            {
              "internalType": "address",
              "name": "reservedTokenBeneficiary",
              "type": "address"
            },
            {
              "internalType": "bytes32",
              "name": "encodedIPFSUri",
              "type": "bytes32"
            },
            {
              "internalType": "uint16",
              "name": "category",
              "type": "uint16"
            },
            {
              "internalType": "bool",
              "name": "allowManualMint",
              "type": "bool"
            },
            {
              "internalType": "bool",
              "name": "shouldUseReservedTokenBeneficiaryAsDefault",
              "type": "bool"
            },
            {
              "internalType": "bool",
              "name": "transfersPausable",
              "type": "bool"
            },
            {
              "internalType": "bool",
              "name": "useVotingUnits",
              "type": "bool"
            }
          ],
          "internalType": "struct JB721TierParams[]",
          "name": "_tiersToAdd",
          "type": "tuple[]"
        },
        {
          "internalType": "uint256[]",
          "name": "_tierIdsToRemove",
          "type": "uint256[]"
        }
      ],
      "name": "adjustTiers",
      "outputs": [],
      "stateMutability": "nonpayable",
      "type": "function"
    },
    {
      "inputs": [
        {
          "internalType": "address",
          "name": "to",
          "type": "address"
        },
        {
          "internalType": "uint256",
          "name": "tokenId",
          "type": "uint256"
        }
      ],
      "name": "approve",
      "outputs": [],
      "stateMutability": "nonpayable",
      "type": "function"
    },
    {
      "inputs": [
        {
          "internalType": "address",
          "name": "_owner",
          "type": "address"
        }
      ],
      "name": "balanceOf",
      "outputs": [
        {
          "internalType": "uint256",
          "name": "balance",
          "type": "uint256"
        }
      ],
      "stateMutability": "view",
      "type": "function"
    },
    {
      "inputs": [],
      "name": "baseURI",
      "outputs": [
        {
          "internalType": "string",
          "name": "",
          "type": "string"
        }
      ],
      "stateMutability": "view",
      "type": "function"
    },
    {
      "inputs": [],
      "name": "codeOrigin",
      "outputs": [
        {
          "internalType": "address",
          "name": "",
          "type": "address"
        }
      ],
      "stateMutability": "view",
      "type": "function"
    },
    {
      "inputs": [],
      "name": "contractURI",
      "outputs": [
        {
          "internalType": "string",
          "name": "",
          "type": "string"
        }
      ],
      "stateMutability": "view",
      "type": "function"
    },
    {
      "inputs": [
        {
          "internalType": "address",
          "name": "",
          "type": "address"
        }
      ],
      "name": "creditsOf",
      "outputs": [
        {
          "internalType": "uint256",
          "name": "",
          "type": "uint256"
        }
      ],
      "stateMutability": "view",
      "type": "function"
    },
    {
      "inputs": [
        {
          "components": [
            {
              "internalType": "address",
              "name": "payer",
              "type": "address"
            },
            {
              "internalType": "uint256",
              "name": "projectId",
              "type": "uint256"
            },
            {
              "internalType": "uint256",
              "name": "currentFundingCycleConfiguration",
              "type": "uint256"
            },
            {
              "components": [
                {
                  "internalType": "address",
                  "name": "token",
                  "type": "address"
                },
                {
                  "internalType": "uint256",
                  "name": "value",
                  "type": "uint256"
                },
                {
                  "internalType": "uint256",
                  "name": "decimals",
                  "type": "uint256"
                },
                {
                  "internalType": "uint256",
                  "name": "currency",
                  "type": "uint256"
                }
              ],
              "internalType": "struct JBTokenAmount",
              "name": "amount",
              "type": "tuple"
            },
            {
              "components": [
                {
                  "internalType": "address",
                  "name": "token",
                  "type": "address"
                },
                {
                  "internalType": "uint256",
                  "name": "value",
                  "type": "uint256"
                },
                {
                  "internalType": "uint256",
                  "name": "decimals",
                  "type": "uint256"
                },
                {
                  "internalType": "uint256",
                  "name": "currency",
                  "type": "uint256"
                }
              ],
              "internalType": "struct JBTokenAmount",
              "name": "forwardedAmount",
              "type": "tuple"
            },
            {
              "internalType": "uint256",
              "name": "projectTokenCount",
              "type": "uint256"
            },
            {
              "internalType": "address",
              "name": "beneficiary",
              "type": "address"
            },
            {
              "internalType": "bool",
              "name": "preferClaimedTokens",
              "type": "bool"
            },
            {
              "internalType": "string",
              "name": "memo",
              "type": "string"
            },
            {
              "internalType": "bytes",
              "name": "metadata",
              "type": "bytes"
            }
          ],
          "internalType": "struct JBDidPayData",
          "name": "_data",
          "type": "tuple"
        }
      ],
      "name": "didPay",
      "outputs": [],
      "stateMutability": "payable",
      "type": "function"
    },
    {
      "inputs": [
        {
          "components": [
            {
              "internalType": "address",
              "name": "holder",
              "type": "address"
            },
            {
              "internalType": "uint256",
              "name": "projectId",
              "type": "uint256"
            },
            {
              "internalType": "uint256",
              "name": "currentFundingCycleConfiguration",
              "type": "uint256"
            },
            {
              "internalType": "uint256",
              "name": "projectTokenCount",
              "type": "uint256"
            },
            {
              "components": [
                {
                  "internalType": "address",
                  "name": "token",
                  "type": "address"
                },
                {
                  "internalType": "uint256",
                  "name": "value",
                  "type": "uint256"
                },
                {
                  "internalType": "uint256",
                  "name": "decimals",
                  "type": "uint256"
                },
                {
                  "internalType": "uint256",
                  "name": "currency",
                  "type": "uint256"
                }
              ],
              "internalType": "struct JBTokenAmount",
              "name": "reclaimedAmount",
              "type": "tuple"
            },
            {
              "components": [
                {
                  "internalType": "address",
                  "name": "token",
                  "type": "address"
                },
                {
                  "internalType": "uint256",
                  "name": "value",
                  "type": "uint256"
                },
                {
                  "internalType": "uint256",
                  "name": "decimals",
                  "type": "uint256"
                },
                {
                  "internalType": "uint256",
                  "name": "currency",
                  "type": "uint256"
                }
              ],
              "internalType": "struct JBTokenAmount",
              "name": "forwardedAmount",
              "type": "tuple"
            },
            {
              "internalType": "address payable",
              "name": "beneficiary",
              "type": "address"
            },
            {
              "internalType": "string",
              "name": "memo",
              "type": "string"
            },
            {
              "internalType": "bytes",
              "name": "metadata",
              "type": "bytes"
            }
          ],
          "internalType": "struct JBDidRedeemData",
          "name": "_data",
          "type": "tuple"
        }
      ],
      "name": "didRedeem",
      "outputs": [],
      "stateMutability": "payable",
      "type": "function"
    },
    {
      "inputs": [],
      "name": "directory",
      "outputs": [
        {
          "internalType": "contract IJBDirectory",
          "name": "",
          "type": "address"
        }
      ],
      "stateMutability": "view",
      "type": "function"
    },
    {
      "inputs": [
        {
          "internalType": "uint256",
          "name": "_tokenId",
          "type": "uint256"
        }
      ],
      "name": "firstOwnerOf",
      "outputs": [
        {
          "internalType": "address",
          "name": "",
          "type": "address"
        }
      ],
      "stateMutability": "view",
      "type": "function"
    },
    {
      "inputs": [],
      "name": "fundingCycleStore",
      "outputs": [
        {
          "internalType": "contract IJBFundingCycleStore",
          "name": "",
          "type": "address"
        }
      ],
      "stateMutability": "view",
      "type": "function"
    },
    {
      "inputs": [
        {
          "internalType": "uint256",
          "name": "tokenId",
          "type": "uint256"
        }
      ],
      "name": "getApproved",
      "outputs": [
        {
          "internalType": "address",
          "name": "",
          "type": "address"
        }
      ],
      "stateMutability": "view",
      "type": "function"
    },
    {
      "inputs": [
        {
          "internalType": "uint256",
          "name": "_projectId",
          "type": "uint256"
        },
        {
          "internalType": "contract IJBDirectory",
          "name": "_directory",
          "type": "address"
        },
        {
          "internalType": "string",
          "name": "_name",
          "type": "string"
        },
        {
          "internalType": "string",
          "name": "_symbol",
          "type": "string"
        },
        {
          "internalType": "contract IJBFundingCycleStore",
          "name": "_fundingCycleStore",
          "type": "address"
        },
        {
          "internalType": "string",
          "name": "_baseUri",
          "type": "string"
        },
        {
          "internalType": "contract IJBTokenUriResolver",
          "name": "_tokenUriResolver",
          "type": "address"
        },
        {
          "internalType": "string",
          "name": "_contractUri",
          "type": "string"
        },
        {
          "components": [
            {
              "components": [
                {
                  "internalType": "uint96",
                  "name": "price",
                  "type": "uint96"
                },
                {
                  "internalType": "uint32",
                  "name": "initialQuantity",
                  "type": "uint32"
                },
                {
                  "internalType": "uint32",
                  "name": "votingUnits",
                  "type": "uint32"
                },
                {
                  "internalType": "uint16",
                  "name": "reservedRate",
                  "type": "uint16"
                },
                {
                  "internalType": "address",
                  "name": "reservedTokenBeneficiary",
                  "type": "address"
                },
                {
                  "internalType": "bytes32",
                  "name": "encodedIPFSUri",
                  "type": "bytes32"
                },
                {
                  "internalType": "uint16",
                  "name": "category",
                  "type": "uint16"
                },
                {
                  "internalType": "bool",
                  "name": "allowManualMint",
                  "type": "bool"
                },
                {
                  "internalType": "bool",
                  "name": "shouldUseReservedTokenBeneficiaryAsDefault",
                  "type": "bool"
                },
                {
                  "internalType": "bool",
                  "name": "transfersPausable",
                  "type": "bool"
                },
                {
                  "internalType": "bool",
                  "name": "useVotingUnits",
                  "type": "bool"
                }
              ],
              "internalType": "struct JB721TierParams[]",
              "name": "tiers",
              "type": "tuple[]"
            },
            {
              "internalType": "uint256",
              "name": "currency",
              "type": "uint256"
            },
            {
              "internalType": "uint256",
              "name": "decimals",
              "type": "uint256"
            },
            {
              "internalType": "contract IJBPrices",
              "name": "prices",
              "type": "address"
            }
          ],
          "internalType": "struct JB721PricingParams",
          "name": "_pricing",
          "type": "tuple"
        },
        {
          "internalType": "contract IJBTiered721DelegateStore",
          "name": "_store",
          "type": "address"
        },
        {
          "components": [
            {
              "internalType": "bool",
              "name": "lockReservedTokenChanges",
              "type": "bool"
            },
            {
              "internalType": "bool",
              "name": "lockVotingUnitChanges",
              "type": "bool"
            },
            {
              "internalType": "bool",
              "name": "lockManualMintingChanges",
              "type": "bool"
            },
            {
              "internalType": "bool",
              "name": "preventOverspending",
              "type": "bool"
            }
          ],
          "internalType": "struct JBTiered721Flags",
          "name": "_flags",
          "type": "tuple"
        }
      ],
      "name": "initialize",
      "outputs": [],
      "stateMutability": "nonpayable",
      "type": "function"
    },
    {
      "inputs": [
        {
          "internalType": "address",
          "name": "owner",
          "type": "address"
        },
        {
          "internalType": "address",
          "name": "operator",
          "type": "address"
        }
      ],
      "name": "isApprovedForAll",
      "outputs": [
        {
          "internalType": "bool",
          "name": "",
          "type": "bool"
        }
      ],
      "stateMutability": "view",
      "type": "function"
    },
    {
      "inputs": [],
      "name": "jbOwner",
      "outputs": [
        {
          "internalType": "address",
          "name": "owner",
          "type": "address"
        },
        {
          "internalType": "uint88",
          "name": "projectId",
          "type": "uint88"
        },
        {
          "internalType": "uint8",
          "name": "permissionIndex",
          "type": "uint8"
        }
      ],
      "stateMutability": "view",
      "type": "function"
    },
    {
      "inputs": [
        {
          "internalType": "uint16[]",
          "name": "_tierIds",
          "type": "uint16[]"
        },
        {
          "internalType": "address",
          "name": "_beneficiary",
          "type": "address"
        }
      ],
      "name": "mintFor",
      "outputs": [
        {
          "internalType": "uint256[]",
          "name": "tokenIds",
          "type": "uint256[]"
        }
      ],
      "stateMutability": "nonpayable",
      "type": "function"
    },
    {
      "inputs": [
        {
          "components": [
            {
              "internalType": "uint256",
              "name": "tierId",
              "type": "uint256"
            },
            {
              "internalType": "uint256",
              "name": "count",
              "type": "uint256"
            }
          ],
          "internalType": "struct JBTiered721MintReservesForTiersData[]",
          "name": "_mintReservesForTiersData",
          "type": "tuple[]"
        }
      ],
      "name": "mintReservesFor",
      "outputs": [],
      "stateMutability": "nonpayable",
      "type": "function"
    },
    {
      "inputs": [
        {
          "internalType": "uint256",
          "name": "_tierId",
          "type": "uint256"
        },
        {
          "internalType": "uint256",
          "name": "_count",
          "type": "uint256"
        }
      ],
      "name": "mintReservesFor",
      "outputs": [],
      "stateMutability": "nonpayable",
      "type": "function"
    },
    {
      "inputs": [],
      "name": "name",
      "outputs": [
        {
          "internalType": "string",
          "name": "",
          "type": "string"
        }
      ],
      "stateMutability": "view",
      "type": "function"
    },
    {
      "inputs": [],
      "name": "operatorStore",
      "outputs": [
        {
          "internalType": "contract IJBOperatorStore",
          "name": "",
          "type": "address"
        }
      ],
      "stateMutability": "view",
      "type": "function"
    },
    {
      "inputs": [],
      "name": "owner",
      "outputs": [
        {
          "internalType": "address",
          "name": "",
          "type": "address"
        }
      ],
      "stateMutability": "view",
      "type": "function"
    },
    {
      "inputs": [
        {
          "internalType": "uint256",
          "name": "tokenId",
          "type": "uint256"
        }
      ],
      "name": "ownerOf",
      "outputs": [
        {
          "internalType": "address",
          "name": "",
          "type": "address"
        }
      ],
      "stateMutability": "view",
      "type": "function"
    },
    {
      "inputs": [
        {
          "components": [
            {
              "internalType": "contract IJBPaymentTerminal",
              "name": "terminal",
              "type": "address"
            },
            {
              "internalType": "address",
              "name": "payer",
              "type": "address"
            },
            {
              "components": [
                {
                  "internalType": "address",
                  "name": "token",
                  "type": "address"
                },
                {
                  "internalType": "uint256",
                  "name": "value",
                  "type": "uint256"
                },
                {
                  "internalType": "uint256",
                  "name": "decimals",
                  "type": "uint256"
                },
                {
                  "internalType": "uint256",
                  "name": "currency",
                  "type": "uint256"
                }
              ],
              "internalType": "struct JBTokenAmount",
              "name": "amount",
              "type": "tuple"
            },
            {
              "internalType": "uint256",
              "name": "projectId",
              "type": "uint256"
            },
            {
              "internalType": "uint256",
              "name": "currentFundingCycleConfiguration",
              "type": "uint256"
            },
            {
              "internalType": "address",
              "name": "beneficiary",
              "type": "address"
            },
            {
              "internalType": "uint256",
              "name": "weight",
              "type": "uint256"
            },
            {
              "internalType": "uint256",
              "name": "reservedRate",
              "type": "uint256"
            },
            {
              "internalType": "string",
              "name": "memo",
              "type": "string"
            },
            {
              "internalType": "bytes",
              "name": "metadata",
              "type": "bytes"
            }
          ],
          "internalType": "struct JBPayParamsData",
          "name": "_data",
          "type": "tuple"
        }
      ],
      "name": "payParams",
      "outputs": [
        {
          "internalType": "uint256",
          "name": "weight",
          "type": "uint256"
        },
        {
          "internalType": "string",
          "name": "memo",
          "type": "string"
        },
        {
          "components": [
            {
              "internalType": "contract IJBPayDelegate",
              "name": "delegate",
              "type": "address"
            },
            {
              "internalType": "uint256",
              "name": "amount",
              "type": "uint256"
            }
          ],
          "internalType": "struct JBPayDelegateAllocation[]",
          "name": "delegateAllocations",
          "type": "tuple[]"
        }
      ],
      "stateMutability": "view",
      "type": "function"
    },
    {
      "inputs": [],
      "name": "prices",
      "outputs": [
        {
          "internalType": "contract IJBPrices",
          "name": "",
          "type": "address"
        }
      ],
      "stateMutability": "view",
      "type": "function"
    },
    {
      "inputs": [],
      "name": "pricingCurrency",
      "outputs": [
        {
          "internalType": "uint256",
          "name": "",
          "type": "uint256"
        }
      ],
      "stateMutability": "view",
      "type": "function"
    },
    {
      "inputs": [],
      "name": "pricingDecimals",
      "outputs": [
        {
          "internalType": "uint256",
          "name": "",
          "type": "uint256"
        }
      ],
      "stateMutability": "view",
      "type": "function"
    },
    {
      "inputs": [],
      "name": "projectId",
      "outputs": [
        {
          "internalType": "uint256",
          "name": "",
          "type": "uint256"
        }
      ],
      "stateMutability": "view",
      "type": "function"
    },
    {
      "inputs": [],
      "name": "projects",
      "outputs": [
        {
          "internalType": "contract IJBProjects",
          "name": "",
          "type": "address"
        }
      ],
      "stateMutability": "view",
      "type": "function"
    },
    {
      "inputs": [
        {
          "components": [
            {
              "internalType": "contract IJBPaymentTerminal",
              "name": "terminal",
              "type": "address"
            },
            {
              "internalType": "address",
              "name": "holder",
              "type": "address"
            },
            {
              "internalType": "uint256",
              "name": "projectId",
              "type": "uint256"
            },
            {
              "internalType": "uint256",
              "name": "currentFundingCycleConfiguration",
              "type": "uint256"
            },
            {
              "internalType": "uint256",
              "name": "tokenCount",
              "type": "uint256"
            },
            {
              "internalType": "uint256",
              "name": "totalSupply",
              "type": "uint256"
            },
            {
              "internalType": "uint256",
              "name": "overflow",
              "type": "uint256"
            },
            {
              "components": [
                {
                  "internalType": "address",
                  "name": "token",
                  "type": "address"
                },
                {
                  "internalType": "uint256",
                  "name": "value",
                  "type": "uint256"
                },
                {
                  "internalType": "uint256",
                  "name": "decimals",
                  "type": "uint256"
                },
                {
                  "internalType": "uint256",
                  "name": "currency",
                  "type": "uint256"
                }
              ],
              "internalType": "struct JBTokenAmount",
              "name": "reclaimAmount",
              "type": "tuple"
            },
            {
              "internalType": "bool",
              "name": "useTotalOverflow",
              "type": "bool"
            },
            {
              "internalType": "uint256",
              "name": "redemptionRate",
              "type": "uint256"
            },
            {
              "internalType": "string",
              "name": "memo",
              "type": "string"
            },
            {
              "internalType": "bytes",
              "name": "metadata",
              "type": "bytes"
            }
          ],
          "internalType": "struct JBRedeemParamsData",
          "name": "_data",
          "type": "tuple"
        }
      ],
      "name": "redeemParams",
      "outputs": [
        {
          "internalType": "uint256",
          "name": "reclaimAmount",
          "type": "uint256"
        },
        {
          "internalType": "string",
          "name": "memo",
          "type": "string"
        },
        {
          "components": [
            {
              "internalType": "contract IJBRedemptionDelegate",
              "name": "delegate",
              "type": "address"
            },
            {
              "internalType": "uint256",
              "name": "amount",
              "type": "uint256"
            }
          ],
          "internalType": "struct JBRedemptionDelegateAllocation[]",
          "name": "delegateAllocations",
          "type": "tuple[]"
        }
      ],
      "stateMutability": "view",
      "type": "function"
    },
    {
      "inputs": [
        {
          "internalType": "uint256[]",
          "name": "_tokenIds",
          "type": "uint256[]"
        },
        {
          "components": [
            {
              "internalType": "contract IJBPaymentTerminal",
              "name": "terminal",
              "type": "address"
            },
            {
              "internalType": "address",
              "name": "holder",
              "type": "address"
            },
            {
              "internalType": "uint256",
              "name": "projectId",
              "type": "uint256"
            },
            {
              "internalType": "uint256",
              "name": "currentFundingCycleConfiguration",
              "type": "uint256"
            },
            {
              "internalType": "uint256",
              "name": "tokenCount",
              "type": "uint256"
            },
            {
              "internalType": "uint256",
              "name": "totalSupply",
              "type": "uint256"
            },
            {
              "internalType": "uint256",
              "name": "overflow",
              "type": "uint256"
            },
            {
              "components": [
                {
                  "internalType": "address",
                  "name": "token",
                  "type": "address"
                },
                {
                  "internalType": "uint256",
                  "name": "value",
                  "type": "uint256"
                },
                {
                  "internalType": "uint256",
                  "name": "decimals",
                  "type": "uint256"
                },
                {
                  "internalType": "uint256",
                  "name": "currency",
                  "type": "uint256"
                }
              ],
              "internalType": "struct JBTokenAmount",
              "name": "reclaimAmount",
              "type": "tuple"
            },
            {
              "internalType": "bool",
              "name": "useTotalOverflow",
              "type": "bool"
            },
            {
              "internalType": "uint256",
              "name": "redemptionRate",
              "type": "uint256"
            },
            {
              "internalType": "string",
              "name": "memo",
              "type": "string"
            },
            {
              "internalType": "bytes",
              "name": "metadata",
              "type": "bytes"
            }
          ],
          "internalType": "struct JBRedeemParamsData",
          "name": "",
          "type": "tuple"
        }
      ],
      "name": "redemptionWeightOf",
      "outputs": [
        {
          "internalType": "uint256",
          "name": "",
          "type": "uint256"
        }
      ],
      "stateMutability": "view",
      "type": "function"
    },
    {
      "inputs": [],
      "name": "renounceOwnership",
      "outputs": [],
      "stateMutability": "nonpayable",
      "type": "function"
    },
    {
      "inputs": [
        {
          "internalType": "address",
          "name": "from",
          "type": "address"
        },
        {
          "internalType": "address",
          "name": "to",
          "type": "address"
        },
        {
          "internalType": "uint256",
          "name": "tokenId",
          "type": "uint256"
        }
      ],
      "name": "safeTransferFrom",
      "outputs": [],
      "stateMutability": "nonpayable",
      "type": "function"
    },
    {
      "inputs": [
        {
          "internalType": "address",
          "name": "from",
          "type": "address"
        },
        {
          "internalType": "address",
          "name": "to",
          "type": "address"
        },
        {
          "internalType": "uint256",
          "name": "tokenId",
          "type": "uint256"
        },
        {
          "internalType": "bytes",
          "name": "data",
          "type": "bytes"
        }
      ],
      "name": "safeTransferFrom",
      "outputs": [],
      "stateMutability": "nonpayable",
      "type": "function"
    },
    {
      "inputs": [
        {
          "internalType": "address",
          "name": "operator",
          "type": "address"
        },
        {
          "internalType": "bool",
          "name": "approved",
          "type": "bool"
        }
      ],
      "name": "setApprovalForAll",
      "outputs": [],
      "stateMutability": "nonpayable",
      "type": "function"
    },
    {
      "inputs": [
        {
          "internalType": "string",
          "name": "_baseUri",
          "type": "string"
        },
        {
          "internalType": "string",
          "name": "_contractUri",
          "type": "string"
        },
        {
          "internalType": "contract IJBTokenUriResolver",
          "name": "_tokenUriResolver",
          "type": "address"
        },
        {
          "internalType": "uint256",
          "name": "_encodedIPFSUriTierId",
          "type": "uint256"
        },
        {
          "internalType": "bytes32",
          "name": "_encodedIPFSUri",
          "type": "bytes32"
        }
      ],
      "name": "setMetadata",
      "outputs": [],
      "stateMutability": "nonpayable",
      "type": "function"
    },
    {
      "inputs": [
        {
          "internalType": "uint8",
          "name": "_permissionIndex",
          "type": "uint8"
        }
      ],
      "name": "setPermissionIndex",
      "outputs": [],
      "stateMutability": "nonpayable",
      "type": "function"
    },
    {
      "inputs": [],
      "name": "store",
      "outputs": [
        {
          "internalType": "contract IJBTiered721DelegateStore",
          "name": "",
          "type": "address"
        }
      ],
      "stateMutability": "view",
      "type": "function"
    },
    {
      "inputs": [
        {
          "internalType": "bytes4",
          "name": "_interfaceId",
          "type": "bytes4"
        }
      ],
      "name": "supportsInterface",
      "outputs": [
        {
          "internalType": "bool",
          "name": "",
          "type": "bool"
        }
      ],
      "stateMutability": "view",
      "type": "function"
    },
    {
      "inputs": [],
      "name": "symbol",
      "outputs": [
        {
          "internalType": "string",
          "name": "",
          "type": "string"
        }
      ],
      "stateMutability": "view",
      "type": "function"
    },
    {
      "inputs": [
        {
          "internalType": "uint256",
          "name": "_tokenId",
          "type": "uint256"
        }
      ],
      "name": "tokenURI",
      "outputs": [
        {
          "internalType": "string",
          "name": "",
          "type": "string"
        }
      ],
      "stateMutability": "view",
      "type": "function"
    },
    {
      "inputs": [
        {
          "components": [
            {
              "internalType": "contract IJBPaymentTerminal",
              "name": "terminal",
              "type": "address"
            },
            {
              "internalType": "address",
              "name": "holder",
              "type": "address"
            },
            {
              "internalType": "uint256",
              "name": "projectId",
              "type": "uint256"
            },
            {
              "internalType": "uint256",
              "name": "currentFundingCycleConfiguration",
              "type": "uint256"
            },
            {
              "internalType": "uint256",
              "name": "tokenCount",
              "type": "uint256"
            },
            {
              "internalType": "uint256",
              "name": "totalSupply",
              "type": "uint256"
            },
            {
              "internalType": "uint256",
              "name": "overflow",
              "type": "uint256"
            },
            {
              "components": [
                {
                  "internalType": "address",
                  "name": "token",
                  "type": "address"
                },
                {
                  "internalType": "uint256",
                  "name": "value",
                  "type": "uint256"
                },
                {
                  "internalType": "uint256",
                  "name": "decimals",
                  "type": "uint256"
                },
                {
                  "internalType": "uint256",
                  "name": "currency",
                  "type": "uint256"
                }
              ],
              "internalType": "struct JBTokenAmount",
              "name": "reclaimAmount",
              "type": "tuple"
            },
            {
              "internalType": "bool",
              "name": "useTotalOverflow",
              "type": "bool"
            },
            {
              "internalType": "uint256",
              "name": "redemptionRate",
              "type": "uint256"
            },
            {
              "internalType": "string",
              "name": "memo",
              "type": "string"
            },
            {
              "internalType": "bytes",
              "name": "metadata",
              "type": "bytes"
            }
          ],
          "internalType": "struct JBRedeemParamsData",
          "name": "",
          "type": "tuple"
        }
      ],
      "name": "totalRedemptionWeight",
      "outputs": [
        {
          "internalType": "uint256",
          "name": "",
          "type": "uint256"
        }
      ],
      "stateMutability": "view",
      "type": "function"
    },
    {
      "inputs": [
        {
          "internalType": "address",
          "name": "from",
          "type": "address"
        },
        {
          "internalType": "address",
          "name": "to",
          "type": "address"
        },
        {
          "internalType": "uint256",
          "name": "tokenId",
          "type": "uint256"
        }
      ],
      "name": "transferFrom",
      "outputs": [],
      "stateMutability": "nonpayable",
      "type": "function"
    },
    {
      "inputs": [
        {
          "internalType": "address",
          "name": "_newOwner",
          "type": "address"
        }
      ],
      "name": "transferOwnership",
      "outputs": [],
      "stateMutability": "nonpayable",
      "type": "function"
    },
    {
      "inputs": [
        {
          "internalType": "uint256",
          "name": "_projectId",
          "type": "uint256"
        }
      ],
      "name": "transferOwnershipToProject",
      "outputs": [],
      "stateMutability": "nonpayable",
      "type": "function"
    }
  ],
  "bytecode": {
    "object": "0x60c0604090808252346200021a57818162005878803803809162000024828562000251565b8339810103126200021a5780516001600160a01b03929083811681036200021a5760208093015184811681036200021a5760805260a052828151916200006a836200021f565b600080938154848116825260018060581b038160a01c1690818884015260f81c8483015280156000146200017a5750600080516020620058588339815191529383915116955b82825191620000bf836200021f565b338352820152015233835551933393169180a3600980546001600160a01b031916301790556155e290816200027682396080518181816106f601528181611111015281816111bc01528181611c3801528181611cd601528181612236015281816122d60152818161523b01526152dc015260a05181818161096601528181610a0b01528181610c0901528181610d4c0152818161124901528181611d620152818161236501528181614ffe0152818161511c01526153720152f35b93905085915060a051169260248351809581936331a9108f60e11b835260048301525afa918215620002105783908193620001ca575b5081600080516020620058588339815191529395620000b0565b80929350858092503d831162000208575b620001e7818362000251565b8101031262000204575184811681036200020457908281620001b0565b8280fd5b503d620001db565b81513d85823e3d90fd5b600080fd5b606081019081106001600160401b038211176200023b57604052565b634e487b7160e01b600052604160045260246000fd5b601f909101601f19168101906001600160401b038211908210176200023b5760405256fe608080604052600436101561001357600080fd5b600090813560e01c90816301ffc9a7146130615750806306fdde0314612fa4578063081812fc14612f85578063095ea7b314612eb8578063126d89f8146123df5780631435aad514611de557806315f2e283146119865780631d153ca41461195d57806323b872dd14611923578063245a45b5146118ea5780632a596e53146118485780632b13c58f1461142b5780633fafa1271461140d57806342842e0e146113e55780634ecba625146113c757806354c6d1f5146113a8578063557e71551461137f57806361aec7a9146113095780636352211e146112ea57806364640c1e146112cc5780636ac6d94114610ef85780636c0360eb14610e6457806370a0823114610dd2578063715018a614610c905780637ba62bf914610c385780638b79543c14610bf35780638da5cb5b14610bc65780639494bf7214610ba457806395d89b4114610b10578063975057e714610ae7578063a220d69614610868578063a22cb465146107c4578063a51cfd1814610745578063aa4fb15b14610725578063ad007d63146106e0578063b88d4fde14610680578063ba23c36e14610640578063c41c2f2414610617578063c87b56dd146105f7578063d3419bf3146105ce578063d46cf171146104a6578063da9ee8b714610397578063e8a3d485146102c3578063e985e9c51461026f5763f2fde38b1461021057600080fd5b3461026c57602036600319011261026c576102296131bf565b610231615193565b6001600160a01b038116801561024e575061024b9061507c565b80f35b60449083604051916324abfd1160e11b835260048301526024820152fd5b80fd5b503461026c57604036600319011261026c576102896131bf565b60406102936131d5565b9260018060a01b0380931681526005602052209116600052602052602060ff604060002054166040519015158152f35b503461026c578060031936011261026c5760405160006011546102e581613475565b808452906001908181169081156103705750600114610327575b6103238461030f81860382613294565b60405191829160208352602083019061319a565b0390f35b60116000908152925060008051602061554d8339815191525b82841061035857505050810160200161030f826102ff565b80546020858701810191909152909301928101610340565b60ff191660208087019190915292151560051b8501909201925061030f91508390506102ff565b5060031960203682011261049e57600435906001600160401b0382116104a25761020090823603011261049e5760065434159081159161040b575b81156103fc575b506103ea5761024b9060040161477c565b6040516331c57b1b60e21b8152600490fd5b905060248201351415386103d9565b600754604051636e49181f60e01b815260048101839052336024820152919250602090829060449082906001600160a01b03165afa908115610493578491610456575b5015906103d2565b90506020813d821161048b575b8161047060209383613294565b810103126104875761048190614050565b3861044e565b8380fd5b3d9150610463565b6040513d86823e3d90fd5b5080fd5b8280fd5b503461026c57600319602036820181136104a257600435916001600160401b038311610487576101a09083360301126104a257916104f56104ee610164840184600401614509565b36916132d0565b906040519361050385613243565b600192838652825b8281106105a4575061055a9060405161052381613243565b308152848482015261053488613a73565b5261053e87613a73565b506101246040519601358652606083870152606086019061319a565b9084820360408601528080875193848152019601925b82811061057d5785870386f35b835180516001600160a01b0316885282015182880152604090960195928101928401610570565b82906040979597516105b581613243565b600081526000838201528282880101520195939561050b565b503461026c578060031936011261026c57600c546040516001600160a01b039091168152602090f35b503461026c57602036600319011261026c5761032361030f600435613583565b503461026c578060031936011261026c576007546040516001600160a01b039091168152602090f35b503461026c578060031936011261026c57606090546040519060018060a01b03811682526001600160581b038160a01c16602083015260f81c6040820152f35b503461026c57608036600319011261026c5761069a6131bf565b6106a26131d5565b606435916001600160401b0383116104875736602384011215610487576106d661024b9336906024816004013591016132d0565b9160443591613e6b565b503461026c578060031936011261026c576040517f00000000000000000000000000000000000000000000000000000000000000006001600160a01b03168152602090f35b503461026c57604036600319011261026c5761024b602435600435613c24565b503461026c5761075c6107573661340f565b614596565b90604051928352610779602091606083860152606085019061319a565b9083820360408501528080845193848152019301945b82811061079c5784840385f35b855180516001600160a01b03168552820151848301529481019460409093019260010161078f565b503461026c57604036600319011261026c576107de6131bf565b60243590811515809203610863576001600160a01b0316903382146108515733835260056020526040832082600052602052604060002060ff1981541660ff83161790556040519081527f17307eab39ab6107e8899845ad3d59bd9653f200f220920489ca2b5937696c3160203392a380f35b6040516306f8139d60e11b8152600490fd5b600080fd5b503461026c5760208060031936011261049e5760043590610887615193565b81158015610ad7575b610ab7576001600160581b0380831690811590811580610aaf575b610a8f576108b76139f6565b90848201511660009080156000146109ec575050516001600160a01b0316935b6000604080516108e68161325e565b828152868101869052015260a01b6affffffffffffffffffffff60a01b166000908155901561094a5750505060005b6001600160a01b0390811691167f8be0079c531659141344cd1fd0a4f28419497f9722a3daafe3b4186f6b6457e0600080a380f35b6040516331a9108f60e11b8152600481019290925282826024817f00000000000000000000000000000000000000000000000000000000000000006001600160a01b03165afa9283156109df5781936109a6575b505050610915565b9091809350813d83116109d8575b6109be8183613294565b8101031261026c57506109d090613a2f565b38808061099e565b503d6109b4565b50604051903d90823e3d90fd5b6040516331a9108f60e11b8152600481019190915290915084816024817f00000000000000000000000000000000000000000000000000000000000000006001600160a01b03165afa918215610a83578092610a4b575b5050936108d7565b9091508482813d8311610a7c575b610a638183613294565b8101031261026c5750610a7590613a2f565b3880610a43565b503d610a59565b604051903d90823e3d90fd5b6040516324abfd1160e11b81526000600482015260248101849052604490fd5b5060006108ab565b6040516324abfd1160e11b81526000600482015260248101839052604490fd5b506001600160581b038211610890565b503461026c578060031936011261026c57600a546040516001600160a01b039091168152602090f35b503461026c578060031936011261026c576040516000600254610b3281613475565b808452906001908181169081156103705750600114610b5b576103238461030f81860382613294565b60026000908152925060008051602061552d8339815191525b828410610b8c57505050810160200161030f826102ff565b80546020858701810191909152909301928101610b74565b503461026c57610bb33661340f565b506020610bbe613877565b604051908152f35b503461026c578060031936011261026c576020610be1614fc3565b6040516001600160a01b039091168152f35b503461026c578060031936011261026c576040517f00000000000000000000000000000000000000000000000000000000000000006001600160a01b03168152602090f35b503461026c576003199060403683011261026c576001600160401b03916004358381116104a257610c6d9036906004016134af565b926024359081116104a257906101e0913603011261026c576020610bbe836137f9565b503461026c578060031936011261026c57610ca9615193565b610cb16139f6565b6020906001600160581b0382820151166000908015600014610d2d575050516000916001600160a01b039091169082906040905b82825191610cf28361325e565b81835282015201528180556001600160a01b03167f8be0079c531659141344cd1fd0a4f28419497f9722a3daafe3b4186f6b6457e08280a380f35b6040516331a9108f60e11b8152600481019190915290915082816024817f00000000000000000000000000000000000000000000000000000000000000006001600160a01b03165afa918215610a83578092610d93575b50509060006040819392610ce5565b9091508282813d8311610dcb575b610dab8183613294565b8101031261026c57509060006040610dc38294613a2f565b929350610d84565b503d610da1565b503461026c576020908160031936011261026c57610dee6131bf565b600a54604051633de222bb60e21b81523060048201526001600160a01b03928316602482015291849183916044918391165afa918215610a835791610e37575b50604051908152f35b90508181813d8311610e5d575b610e4e8183613294565b81010312610863575138610e2e565b503d610e44565b503461026c578060031936011261026c576040516000601054610e8681613475565b808452906001908181169081156103705750600114610eaf576103238461030f81860382613294565b60106000908152925060008051602061558d8339815191525b828410610ee057505050810160200161030f826102ff565b80546020858701810191909152909301928101610ec8565b503461026c57604036600319011261026c576004356001600160401b03811161049e57610f299036906004016133aa565b91610f326131d5565b91610f3b6139f6565b90602093848301926001600160581b039081855116801560001461122b5750516001600160a01b0316935b511660018060a01b0380941680331415918261118b575b50816110e0575b506110ce57600a5460405163eaa19ab360e01b815260001960048201526060602482015260648101889052966084880195918890861685845b8a8582106110a85750505090839181838160019b8c604483015203925af197881561109d578298611078575b509293821692815b81811061100b5760405188815280610323818b018c613441565b611015818a613a96565b516110208186613f18565b61102b828489613aaa565b359061ffff82168092036110745788929187917f598baf7bf150ca2f42be9e9f8f55e81d45f5715c3ff22bf46d697fabec7f31d660408d8151908a82523390820152a401610ff1565b8480fd5b6110959198503d8084833e61108d8183613294565b810190613a43565b509638610fe9565b6040513d84823e3d90fd5b8091939450829a61ffff6110bd600195613361565b1681520199019101908a9291610fbd565b60405163075fd2b160e01b8152600490fd5b90506040519063c161c93f60e01b8252336004830152602482015260006044820152601860648201528581608481877f0000000000000000000000000000000000000000000000000000000000000000165afa90811561117f5760009161114a575b501538610f84565b908682813d8311611178575b6111608183613294565b8101031261026c575061117290614050565b38611142565b503d611156565b6040513d6000823e3d90fd5b9091506040519063c161c93f60e01b82523360048301528260248301526044820152601860648201528681608481887f0000000000000000000000000000000000000000000000000000000000000000165afa90811561117f576000916111f6575b50159038610f7d565b908782813d8311611224575b61120c8183613294565b8101031261026c575061121e90614050565b386111ed565b503d611202565b6040516331a9108f60e11b81526004810191909152905086816024817f00000000000000000000000000000000000000000000000000000000000000006001600160a01b03165afa9081156112c1578691611288575b5093610f66565b90508681813d83116112ba575b61129f8183613294565b810103126112b6576112b090613a2f565b38611281565b8580fd5b503d611295565b6040513d88823e3d90fd5b503461026c578060031936011261026c576020600d54604051908152f35b503461026c57602036600319011261026c576020610be1600435613e00565b503461026c57602036600319011261026c5760043560ff8116908181036104a2577f197cbe84f592e417694036927858418efc958896363c034f9aaa25af88953beb91602091611357615193565b84546001600160f81b031660f89190911b6001600160f81b031916178455604051908152a180f35b503461026c578060031936011261026c57600b546040516001600160a01b039091168152602090f35b503461026c57602036600319011261026c576020610be160043561350d565b503461026c578060031936011261026c576020600e54604051908152f35b503461026c5761024b6113f7366133da565b906040519261140584613279565b858452613e6b565b503461026c578060031936011261026c576020600654604051908152f35b506114353661340f565b34158015906117b7575b80156117a7575b611795576101c081019061145a8282614509565b905060248091108015611767575b6117555761148261147a859484614509565b81019061453b565b93915050825184915b8183106114f9575050600a546001600160a01b0316929050823b156114f4576114d3928492836040518096819582946386bc2be360e01b845260206004850152830190613441565b03925af1801561109d576114e45750f35b6114ed90613230565b61026c5780f35b505050fd5b909194506115078585613a96565b5180875260036020818152604089205492979290916001600160a01b039182168261153187614710565b160361173d57816115418a613e00565b169283611647575b6115528a61439b565b898b52526040892080546001600160a01b03191690558789837fddf252ad1be2c89b69c2b068fc378daa952ba7f163c4a11628f55a4df523b3ef8280a4600a5416906040519763c44a8e6d60e01b89523060048a0152868901526044976000898201526064906000818381875afa90811561117f57600091611626575b5051833b156108635760008094816040519c8d9687956330b157e560e21b875260048701528c8601528401525af190811561117f578796600192611617575b5001919061148b565b61162090613230565b3861160e565b611641913d8091833e6116398183613294565b81019061405d565b386115cf565b82600a541660008b60648b604051948593849263c44a8e6d60e01b84523060048501528301528460448301525afa801561117f5761014091600091611724575b5001516116bd575b8960005260088152826040600020541661154957604060002080546001600160a01b03191685179055611549565b82600b54166006546040519182916321d1336160e11b83526004830152818b6101209485935afa801561117f576116f6575b505061168f565b8161171592903d1061171d575b61170d8183613294565b810190613b94565b5038806116ef565b503d611703565b611737913d8091833e6116398183613294565b38611687565b604051635caf197560e01b8152600481018a90528790fd5b604051632a84050f60e01b8152600490fd5b506117728383614509565b821161107457602001356001600160e01b03191663fbb38e0360e01b1415611468565b604051633efca5c360e11b8152600490fd5b5060065460208201351415611446565b50600754600654604051636e49181f60e01b8152600481019190915233602482015290602090829060449082906001600160a01b03165afa90811561183d578391611804575b501561143f565b90506020813d8211611835575b8161181e60209383613294565b810103126104a25761182f90614050565b386117fd565b3d9150611811565b6040513d85823e3d90fd5b503461026c5760208060031936011261049e576001600160401b036004358181116104875736602382011215610487578060040135918211610487576024906006368385831b840101116112b657855b8481106118a3578680f35b80821b830190604060231983360301126118e6576118e0876001936040516118ca81613243565b6044898301359283835201359283910152613c24565b01611898565b8780fd5b503461026c57602036600319011261026c576020906040906001600160a01b036119126131bf565b168152600f83522054604051908152f35b503461026c57611932366133da565b9061193d8233613eaa565b1561194b5761024b9261413b565b60405163e5fa0e3560e01b8152600490fd5b503461026c578060031936011261026c576009546040516001600160a01b039091168152602090f35b503461026c57604036600319011261026c576001600160401b036004358181116104a257366023820112156104a25780600401359180831161048757602490610160903683838702860101116112b65782359081116112b6576119ed9036906004016133aa565b906119f66139f6565b90602092838301926001600160581b0390818551168015600014611d455750516001600160a01b0316935b511660018060a01b03809416803314159182611ca6575b5081611c08575b506110ce5780611b47575b505085611a55578680f35b600a546040516317bef04b60e01b81526004810193909352848301879052879183911660448201878701845b878b8210611b23575050508383809203925af19081156112c1578691611b01575b50855b858110611ab0578680f35b80611abd60019284613a96565b517fdf1b47c29318a8fbfd42daaa9b635173dadc2314e012e8c516c08855548e8efc610180604051611af5818a8a88028d0101613aba565b3388820152a201611aa5565b611b1d91503d8088833e611b158183613294565b8101906139d1565b38611aa2565b9194509294508082611b3760019487613aba565b0193019101918993918593611a81565b8883600a5416803b1561049e576040516320512ba160e01b815260048101879052888101849052906001600160fb1b0384116104a25781839181836044828960051b808c8484013781010301925af1801561109d57611bf0575b5050885b818110611bb25750611a4a565b80611bc06001928486613aaa565b357f832d89d991be5351d793c20faf4b7dd44f8aa9ce39e3cb160c6317de6fbba72987604051338152a201611ba5565b611bf990613230565b611c04578838611ba1565b8880fd5b90506040519063c161c93f60e01b82523360048301528782015260006044820152601560648201528481608481877f0000000000000000000000000000000000000000000000000000000000000000165afa90811561117f57600091611c71575b501538611a3f565b908582813d8311611c9f575b611c878183613294565b8101031261026c5750611c9990614050565b38611c69565b503d611c7d565b9091506040519063c161c93f60e01b825233600483015282898301526044820152601560648201528581608481887f0000000000000000000000000000000000000000000000000000000000000000165afa90811561117f57600091611d10575b50159038611a38565b908682813d8311611d3e575b611d268183613294565b8101031261026c5750611d3890614050565b38611d07565b503d611d1c565b6040516331a9108f60e11b815260048101919091529050858189817f00000000000000000000000000000000000000000000000000000000000000006001600160a01b03165afa908115611dda578b91611da1575b5093611a21565b90508581813d8311611dd3575b611db88183613294565b81010312611dcf57611dc990613a2f565b38611d9a565b8a80fd5b503d611dae565b6040513d8d823e3d90fd5b503461026c5760a036600319011261026c576001600160401b036004358181116104a257611e1790369060040161337d565b919060249182358181116112b657611e3390369060040161337d565b906044359260018060a01b039687851680950361086357611e526139f6565b95602096878101908a6001600160581b03918d8b84865116801560001461234757505050918180935116935b5116921691898b8433141593846122a4575b505050509081612206575b506110ce57816120f2575b505082611fde575b505050308103611f64575b50836064359384151580611f59575b611ed0575080f35b600a5416803b1561049e578180916044604051809481936324de8d6360e11b83528a6004840152608435809a8401525af1801561109d57611f45575b50507f677da4fed654db8e604791fa2582f342e2001aa217e27f6985eb3e0f67e5a7fc9160409182519182523390820152a23880808380f35b611f4e90613230565b610487578338611f0c565b506084351515611ec8565b8484600a5416803b1561049e57818091866040518094819363036129cb60e61b83528860048401525af1801561109d57611fca575b50507fe7784d93cfbfa4408e19577e6cc0436f4dbb51214b70e100905dfce9def88c1682604051338152a238611eb9565b611fd390613230565b611074578438611f99565b82116120df57611ff882611ff3601154613475565b613914565b8187601f821160011461206f578891612064575b508260011b906000198460031b1c1916176011555b8160405192839283378101600081520390207fd36dc0c1a06103fdcaf15f3f6fb797d1a97997514c78de073640c8b5005454b883604051338152a2388080611eae565b90508101353861200c565b6011895260008051602061554d833981519152915083601f1981168a5b888282106120c6575050106120ac575b5050600182811b01601155612021565b820135600019600385901b60f8161c19169055388061209c565b868501358655600190950194938401938793500161208c565b634e487b7160e01b875260416004528487fd5b8282116121f35761210d82612108601054613475565b6138b5565b818a601f8211600114612183578b91612178575b508260011b906000198460031b1c1916176010555b8160405192839283378101600081520390207f7bc9110d5de090dd59e07912d2b93a5a27ac70a60c8d8e324db4f9ee8b8b5c1386604051338152a23880611ea6565b905081013538612121565b60108c5260008051602061558d833981519152915083601f1981168d5b8b8282106121da575050106121c0575b5050600182811b01601055612136565b820135600019600385901b60f8161c1916905538806121b0565b86850135865560019095019493840193879350016121a0565b634e487b7160e01b8a526041600452878afd5b90506040519063c161c93f60e01b825233600483015289820152600060448201526016606482015287816084818d7f0000000000000000000000000000000000000000000000000000000000000000165afa90811561117f5760009161226f575b501538611e9b565b908882813d831161229d575b6122858183613294565b8101031261026c575061229790614050565b38612267565b503d61227b565b859293945090608491604051958694859363c161c93f60e01b85523360048601528401526044830152601660648301527f0000000000000000000000000000000000000000000000000000000000000000165afa90811561117f57600091612312575b501538898b8d611e90565b908982813d8311612340575b6123288183613294565b8101031261026c575061233a90614050565b38612307565b503d61231e565b90919392508d604051809481936331a9108f60e11b835260048301527f0000000000000000000000000000000000000000000000000000000000000000165afa90811561109d578d92916123a0575b5091819293611e7e565b8092508b8092503d83116123d8575b6123b98183613294565b810103126123d4578b916123cd8392613a2f565b9092612396565b8c80fd5b503d6123af565b503461026c57600319906101c03683011261026c576024356001600160a01b038116810361049e576044356001600160401b0381116104a257612426903690600401613307565b926064356001600160401b03811161048757612446903690600401613307565b91608435916001600160a01b03831683036110745760a4356001600160401b0381116112b65761247a903690600401613307565b60c435926001600160a01b0384168403612eb45760e4356001600160401b0381116118e6576124ad903690600401613307565b926001600160401b0361010435116118e6576080906101043536030112612eb457604051946124db866131ff565b61010435600401356001600160401b038111611c0457366023826101043501011215611c045761251360048261010435010135613325565b906125216040519283613294565b6101043581016004810135808452602084019291366101609092020160240111611dcf57602481610104350101915b610104358201600481013561016002016024018310612da9575050508652610104356024810135602088015260448101356040880152606401356001600160a01b0381168103611c0457606087015261012435966001600160a01b0388168803611c0457608036610143190112611c0457604051996125ce8b6131ff565b6101443515156101443503612da557610144358b526101643515156101643503612da5576101643560208c01526101843515156101843503612da5576101843560408c01526101a43515156101a43503612da5576101a43560608c01526009546001600160a01b03163014612da557600a546001600160a01b0316612da5578051906001600160401b038211612d9157819061266b600154613475565b601f8111612d1e575b50602090601f8311600114612ca8578c92612c9d575b50508160011b916000199060031b1c1916176001555b8051906001600160401b038211612c895781906126be600254613475565b601f8111612c17575b50602090601f8311600114612ba1578b92612b96575b50508160011b916000199060031b1c1916176002555b600435600655600780546001600160a01b03199081166001600160a01b0394851617909155600b8054821692841692909217909155600a805482168884161790556020860151600d556040860151600e556060860151600c8054909216921691909117905580519081612ab5575b5050805190816129d4575b50506001600160a01b038116612979575b505192835161285f575b829350805115801590612852575b8015612845575b8015612838575b6127b2575b8261024b3361507c565b6001600160a01b0382163b15612834576060608484928360405195869485936365c13f1960e11b855280511515600486015260208101511515602486015260408101511515604486015201511515606484015260018060a01b03165af1801561109d57612820575b806127a8565b61282990613230565b61026c57803861281a565b5050fd5b50606081015115156127a3565b506040810151151561279c565b5060208101511515612795565b6040516317bef04b60e01b815260248101602060048301528551809152602060448301960190855b8181106128cf57505050838180829703818360018060a01b0388165af18015610493576128b5575b50612787565b6128c8903d8086833e611b158183613294565b50386128af565b90919660206101606001928a516001600160601b03815116825263ffffffff80858301511685840152604082015116604083015261ffff806060830151166060840152858060a01b03608083015116608084015260a0808301519084015260c09081830151169083015260e0810151151560e08301526101008082015115159083015261012080820151151590830152610140809101511515908201520198019101919091612887565b6001600160a01b0383163b156104875760405163036129cb60e61b81526001600160a01b03918216600482015290849082906024908290849088165af18015610493571561277d576129cd90939193613230565b913861277d565b6001600160401b038211612aa15781906129f382611ff3601154613475565b602090601f8311600114612a30578792612a25575b50508160011b916000199060031b1c1916176011555b388061276c565b015190503880612a08565b6011885260008051602061554d8339815191529250601f198416885b818110612a895750908460019594939210612a70575b505050811b01601155612a1e565b015160001960f88460031b161c19169055388080612a62565b92936020600181928786015181550195019301612a4c565b634e487b7160e01b86526041600452602486fd5b6001600160401b038211612b82578190612ad482612108601054613475565b602090601f8311600114612b11578892612b06575b50508160011b916000199060031b1c1916176010555b3880612761565b015190503880612ae9565b6010895260008051602061558d8339815191529250601f198416895b818110612b6a5750908460019594939210612b51575b505050811b01601055612aff565b015160001960f88460031b161c19169055388080612b43565b92936020600181928786015181550195019301612b2d565b634e487b7160e01b87526041600452602487fd5b0151905038806126dd565b925060028b5260008051602061552d833981519152908b935b601f1984168510612bfc576001945083601f19811610612be3575b505050811b016002556126f3565b015160001960f88460031b161c19169055388080612bd5565b81810151835560209485019460019093019290910190612bba565b90915060028b52601f830160051c60008051602061552d8339815191520160208410612c74575b908392915b601f820160051c60008051602061552d833981519152018110612c6657506126c7565b8c8155849350600101612c43565b5060008051602061552d833981519152612c3e565b634e487b7160e01b8a52604160045260248afd5b01519050388061268a565b925060018c5260008051602061556d833981519152908c935b601f1984168510612d03576001945083601f19811610612cea575b505050811b016001556126a0565b015160001960f88460031b161c19169055388080612cdc565b81810151835560209485019460019093019290910190612cc1565b90915060018c52601f830160051c60008051602061556d8339815191520160208410612d7c575b908392915b8d601f830160051c60008051602061556d833981519152018210612d6f575050612674565b8155849350600101612d4a565b5060008051602061556d833981519152612d45565b634e487b7160e01b8b52604160045260248bfd5b8980fd5b61016083360312612eb057604051806101608101106001600160401b0361016083011117612e9c57602060249282610160809401604052612de98761333c565b8152612df6838801613350565b83820152612e0660408801613350565b60408201526060612e18818901613361565b90820152612e28608088016131eb565b608082015260a0808801359082015260c0612e44818901613361565b90820152612e5460e08801613370565b60e0820152610100612e67818901613370565b90820152610120612e79818901613370565b90820152610140612e8b818901613370565b908201528152019301929050612550565b634e487b7160e01b8d52604160045260248dfd5b8b80fd5b8680fd5b503461026c57604036600319011261026c57612ed26131bf565b602435906001600160a01b038080612ee985613e00565b16921691808314612f7357803314159081612f51575b5061194b5782845260046020526040842080546001600160a01b03191683179055612f2983613e00565b167f8c5be1e5ebec7d5bd14f71427d1e84f3dd0314c0f7b2291e5b200ac8c7c3b9258480a480f35b9050845260056020526040842033855260205260ff6040852054161538612eff565b60405163133f8be960e01b8152600490fd5b503461026c57602036600319011261026c576020610be1600435613e33565b503461026c578060031936011261026c5760405190806001805491612fc883613475565b808652928281169081156130375750600114612fef575b6103238561030f81870382613294565b925080835260008051602061556d8339815191525b82841061301f57505050810160200161030f82610323612fdf565b80546020858701810191909152909301928101613004565b8695506103239693506020925061030f94915060ff191682840152151560051b8201019293612fdf565b90503461049e57602036600319011261049e5760043563ffffffff60e01b81168091036104a25760209250632b93cc1760e01b81149081156130a5575b5015158152f35b63fbb38e0360e01b811491508115613151575b8115613140575b811561312f575b811561311e575b81156130db575b503861309e565b6380ac58cd60e01b81149150811561310d575b81156130fc575b50386130d4565b6301ffc9a760e01b149050386130f5565b635b5e139f60e01b811491506130ee565b63152a902d60e11b811491506130cd565b632b13c58f60e01b811491506130c6565b63da9ee8b760e01b811491506130bf565b6371700c6960e01b811491506130b8565b35906001600160e01b03198216820361086357565b60005b83811061318a5750506000910152565b818101518382015260200161317a565b906020916131b381518092818552858086019101613177565b601f01601f1916010190565b600435906001600160a01b038216820361086357565b602435906001600160a01b038216820361086357565b35906001600160a01b038216820361086357565b608081019081106001600160401b0382111761321a57604052565b634e487b7160e01b600052604160045260246000fd5b6001600160401b03811161321a57604052565b604081019081106001600160401b0382111761321a57604052565b606081019081106001600160401b0382111761321a57604052565b602081019081106001600160401b0382111761321a57604052565b90601f801991011681019081106001600160401b0382111761321a57604052565b6001600160401b03811161321a57601f01601f191660200190565b9291926132dc826132b5565b916132ea6040519384613294565b829481845281830111610863578281602093846000960137010152565b9080601f8301121561086357816020613322933591016132d0565b90565b6001600160401b03811161321a5760051b60200190565b35906001600160601b038216820361086357565b359063ffffffff8216820361086357565b359061ffff8216820361086357565b3590811515820361086357565b9181601f84011215610863578235916001600160401b038311610863576020838186019501011161086357565b9181601f84011215610863578235916001600160401b038311610863576020808501948460051b01011161086357565b6060906003190112610863576001600160a01b0390600435828116810361086357916024359081168103610863579060443590565b6003199060208183011261086357600435916001600160401b03831161086357826101e0920301126108635760040190565b90815180825260208080930193019160005b828110613461575050505090565b835185529381019392810192600101613453565b90600182811c921680156134a5575b602083101461348f57565b634e487b7160e01b600052602260045260246000fd5b91607f1691613484565b81601f82011215610863578035916134c683613325565b926134d46040519485613294565b808452602092838086019260051b820101928311610863578301905b8282106134fe575050505090565b813581529083019083016134f0565b6000908152600860205260409020546001600160a01b039081168061353c575060036020526040600020541690565b905090565b81601f82011215610863578051613557816132b5565b926135656040519485613294565b81845260208284010111610863576133229160208085019101613177565b600a5460408051630fab094760e01b815230600482015290939260209290916001600160a01b0391821691908481602481865afa9081156137ee576000916137b8575b50168061374657508451630c8df17160e41b81523060048201526024810192909252929391929091908390839060449082905afa91821561373b5760009261370c575b5080516010549092600061361c83613475565b808652868601936001908181169081156136ee57506001146136a9575b5050916136786136899694926136558761332298960386613294565b835190609160f51b878301526022820152602281526136738161325e565b614d66565b915195869351809286860190613177565b820161369d82518093868085019101613177565b01038084520182613294565b60106000908152925060008051602061558d8339815191525b8284106136db5750505084018501613678613689613639565b80548885018a01529288019281016136c2565b60ff191686525050151560051b850186019050613678613689613639565b90918382813d8311613734575b6137238183613294565b8101031261026c5750519038613609565b503d613719565b50513d6000823e3d90fd5b91600091506024865180948193636d02a25560e11b835260048301525afa9384156137ae5750600093613777575050565b3d8085833e6137868183613294565b81019181830312610487578051906001600160401b0382116110745761332293945001613541565b513d6000823e3d90fd5b8581813d83116137e7575b6137cd8183613294565b8101031261049e575190828216820361026c5750386135c6565b503d6137c3565b87513d6000823e3d90fd5b60206138339160018060a01b03600a5416604051808095819463051330b560e21b8352306004840152604060248401526044830190613441565b03915afa90811561117f57600091613849575090565b906020823d821161386f575b8161386260209383613294565b8101031261026c57505190565b3d9150613855565b600a54604051631572f24960e11b815230600482015290602090829060249082906001600160a01b03165afa90811561117f57600091613849575090565b601f81116138c1575050565b6000906010825260008051602061558d833981519152906020601f850160051c8301941061390a575b601f0160051c01915b8281106138ff57505050565b8181556001016138f3565b90925082906138ea565b601f8111613920575050565b6000906011825260008051602061554d833981519152906020601f850160051c83019410613969575b601f0160051c01915b82811061395e57505050565b818155600101613952565b9092508290613949565b81601f820112156108635780519161398a83613325565b926139986040519485613294565b808452602092838086019260051b820101928311610863578301905b8282106139c2575050505090565b815181529083019083016139b4565b906020828203126108635781516001600160401b038111610863576133229201613973565b60405190613a038261325e565b6000546001600160a01b038116835260a081901c6001600160581b0316602084015260f81c6040830152565b51906001600160a01b038216820361086357565b91906040838203126108635782516001600160401b03811161086357602091613a6d918501613973565b92015190565b805115613a805760200190565b634e487b7160e01b600052603260045260246000fd5b8051821015613a805760209160051b010190565b9190811015613a805760051b0190565b6001600160601b03613acb8261333c565b16825263ffffffff80613ae060208401613350565b166020840152613af260408301613350565b16604083015261ffff80613b0860608401613361565b1660608401526001600160a01b03613b22608084016131eb565b16608084015260a082013560a0840152613b3e60c08301613361565b1660c0830152613b5060e08201613370565b151560e0830152610100613b65818301613370565b151590830152610120613b79818301613370565b151590830152613b8d610140809201613370565b1515910152565b80916101209283910312610863576040519182018281106001600160401b0382111761321a57604052805182526020810151602083015260408101516040830152606081015160608301526080810151608083015260a081015160a083015260c081015160c083015260e081015160018060a01b03811681036108635760e0830152610100809101519082015290565b600b54600654604080516321d1336160e11b815260048101929092526101209594939290916001600160a01b039187908290602490829086165afa908115613df5576101009697600092613dd8575b5050600180968192015160f51c1614613dc75790816000809493600a54166044845180978193635d53f40760e11b83528860048401528a60248401525af1938415613dbc57600094613da1575b50600a5482516304db994760e21b815230600482015260248101859052946020929183908790604490829086165afa958615613d9657600096613d5f575b5060005b878110613d1457505050505050505050565b80613d208a9284613a96565b51613d2b818a613f18565b878751913383527f031e1988c95a91ec4d655ff63a8f87a80bc9daf28d95ae10ee08c0022cfb5c8b88888d1694a401613d02565b90958382813d8311613d8f575b613d768183613294565b8101031261026c5750613d8890613a2f565b9438613cfe565b503d613d6c565b84513d6000823e3d90fd5b613db591943d8091833e611b158183613294565b9238613cc0565b82513d6000823e3d90fd5b8151631d2c125760e31b8152600490fd5b613dee9250803d1061171d5761170d8183613294565b3880613c73565b83513d6000823e3d90fd5b6000908152600360205260409020546001600160a01b03168015613e215790565b60405163b49aa3b560e01b8152600490fd5b6000818152600360205260409020546001600160a01b031615613e21576000908152600460205260409020546001600160a01b031690565b929190613e788233613eaa565b1561194b5783613e8c8383613e919761413b565b6143ef565b15613e9857565b6040516336f57c1b60e11b8152600490fd5b906001600160a01b038080613ebe84613e00565b16931691838314938415613ef1575b508315613edb575b50505090565b613ee791929350613e33565b1614388080613ed5565b909350600052600560205260406000208260005260205260ff604060002054169238613ecd565b6001600160a01b03908116801561403e576000838152600360205260409020546001600160a01b031661402c57600083815260036020526040812080546001600160a01b03191683179055918382847fddf252ad1be2c89b69c2b068fc378daa952ba7f163c4a11628f55a4df523b3ef8180a4600a5416926040519063c44a8e6d60e01b825230600483015260248201528260448201528281606481875afa90811561183d578391614012575b5051833b156104a25790606483928360405196879485936330b157e560e21b8552600485015282602485015260448401525af1908115610a8357506140075750565b61401090613230565b565b61402691503d8085833e6116398183613294565b38613fc5565b604051632eb5f0c360e21b8152600490fd5b604051633904578f60e11b8152600490fd5b5190811515820361086357565b6020818303126108635780516001600160401b03918282116108635701610180928382820312610863576040519384018481108482111761321a57604052815184526020820151602085015260408201516040850152606082015160608501526080820151608085015260a082015160a08501526140dd60c08301613a2f565b60c085015260e082015160e08501526101008083015190850152610120614105818401614050565b90850152610140614117818401614050565b908501526101609283830151908111610863576141349201613541565b9082015290565b61414483613e00565b6001600160a01b0392918316919083168290036143895782169283156143775781614250575b6141738161439b565b600081815260036020526040812080546001600160a01b03191686179055928185847fddf252ad1be2c89b69c2b068fc378daa952ba7f163c4a11628f55a4df523b3ef8780a4600a5416906040519063c44a8e6d60e01b825230600483015260248201528360448201528381606481855afa908115610493578491614236575b505190803b15610487578392918360649260405197889586946330b157e560e21b86526004860152602485015260448401525af1908115610a8357506140075750565b61424a91503d8086833e6116398183613294565b386141f3565b82600a54166040908151809163c44a8e6d60e01b825230600483015284602483015281606460009485938460448301525afa90811561436d5790610140918391614353575b5001516142d0575b8281526008602052848282205416156142b8575b505061416a565b2080546001600160a01b0319168317905538806142b1565b84600b541660065483519182916321d1336160e11b835260048301528160246101209485935afa91821561434957600192839261010092869261432c575b5050015160f41c160361429d5781516318cdaf9760e01b8152600490fd5b6143429250803d1061171d5761170d8183613294565b388061430e565b84513d85823e3d90fd5b61436791503d8085833e6116398183613294565b38614295565b83513d84823e3d90fd5b604051632c95542760e01b8152600490fd5b60405163a195bc5360e01b8152600490fd5b600081815260046020526040812080546001600160a01b03191690556001600160a01b036143c883613e00565b167f8c5be1e5ebec7d5bd14f71427d1e84f3dd0314c0f7b2291e5b200ac8c7c3b9258280a4565b9293600093909291803b156144fe579484916144499660405180948193630a85bd0160e11b9788845233600485015260018060a01b0380921660248501526044840152608060648401528260209b8c97608483019061319a565b0393165af18491816144be575b506144ad575050503d6000146144a5573d614470816132b5565b9061447e6040519283613294565b81528091833d92013e5b805191826144a2576040516336f57c1b60e11b8152600490fd5b01fd5b506060614488565b6001600160e01b0319161492509050565b9091508581813d83116144f7575b6144d68183613294565b8101031261107457516001600160e01b031981168103611074579038614456565b503d6144cc565b505050915050600190565b903590601e198136030182121561086357018035906001600160401b0382116108635760200191813603831361086357565b916060838303126108635782359261455560208201613162565b9260408201356001600160401b0381116108635761332292016134af565b9190820180921161458057565b634e487b7160e01b600052601160045260246000fd5b9060808201356146fe576101c082019160246145b28483614509565b90501080156146cf575b611755576040928351916145cf83613243565b6001835260005b602080821015614604578651602092916145ef82613243565b600082526000818301528287010152016145d6565b50509392919061464461147a61464c9284965161462081613243565b3081526000602082015261463386613a73565b5261463d85613a73565b5087614509565b9150506137f9565b614654613877565b614663818360c0890135615472565b61018087013593612710908186146146b45750848103908111614580576146b0946146986146a49461469e936104ee97615472565b90614573565b906153ea565b946101a0810190614509565b9190565b9650509590506146b092506104ee91506101a0810190614509565b506146da8382614509565b60241161086357602001356001600160e01b03191663fbb38e0360e01b14156145bc565b6040516309f82f1b60e31b8152600490fd5b356001600160a01b03811681036108635790565b9081608091031261086357614774606060405192614741846131ff565b61474a81614050565b845261475860208201614050565b602085015261476960408201614050565b604085015201614050565b606082015290565b600060c082013590600d54808314600014614c5f5750505060808101355b61018082016001600160a01b03806147b183614710565b16600052602091600f835260409384600020549586826000936147d384614710565b87806147de89614710565b16911614600014614c55575001905b6000906101e081019060446148028383614509565b90501180614c28575b15614bbc5761481a9250614509565b8192910160a08382031261086357614833888401613162565b5061484060608401613370565b926080810135906001600160401b038211610863570181601f820112156108635780359161486d83613325565b9161487a8b519384613294565b838352898301908a829560051b820101928311610863578a809101915b838310614ba457505050508380614b37575b614b2e575b80516149f6575b5050905b811561497e571561496d570194600f939291614915918088111561492057876148e183614710565b7f2fb2733fb01b76e3290fa8b695d18e026ddd19c0a265ab90e95152e57da3033687878b51933385521694840392a4614710565b166000525260002055565b87811161492e575b50614710565b8761493883614710565b7fe0e7c81cf67a96dd0e39bcf11521b1f4c0098cc1dbe8c30750a11d9ebfc3ed4d8783888c519433865216950392a438614928565b8551631b57826960e21b8152600490fd5b50509485819493929403614995575b505050505050565b85810390811161458057836149e291876149b0600f97614710565b917fe0e7c81cf67a96dd0e39bcf11521b1f4c0098cc1dbe8c30750a11d9ebfc3ed4d87878b51953387521694a4614710565b16600052526000205538808080808061498d565b6149ff86614710565b87600a54168a51809463eaa19ab360e01b8252606482018760048401526060602484015285518091526084830191908d6000905b828210614b1257505050509181600081819582604483015203925af1938415614b07576000938495614ae6575b508a928451948b60008c8616965b888210614a855750505050505050505038806148b5565b60019288917f598baf7bf150ca2f42be9e9f8f55e81d45f5715c3ff22bf46d697fabec7f31d6614ab58588613a96565b5191614ac1838c613f18565b61ffff614ace878b613a96565b5116938151908b82523390820152a4018c908e614a6e565b909450614afd91933d8091833e61108d8183613294565b9290929338614a60565b8a513d6000823e3d90fd5b835161ffff16855289955093840193909201916001018e614a33565b600093506148ae565b506024608088600a54168b5192838092634228826f60e11b82523060048301525afa908115614b075790606091600091614b76575b50015115156148a9565b614b97915060803d8111614b9d575b614b8f8183613294565b810190614724565b38614b6c565b503d614b85565b8190614baf84613361565b8152019101908a90614897565b50506024608086600a5416895192838092634228826f60e11b82523060048301525afa908115614c1e57906060918391614c00575b5001516148b9575060016148b9565b614c18915060803d8111614b9d57614b8f8183613294565b38614bf1565b88513d84823e3d90fd5b50614c338282614509565b604411610487578901356001600160e01b03191663fbb38e0360e01b1461480b565b92935050916147ed565b600c546001600160a01b0316908115614d1c57600e5493604d8511614d08579060646020926040519485938492635268657960e11b84526004840152602483015260a089013560448301525afa918215610a83578092614cd2575b5050614ccd91600a0a6080840135615472565b61479a565b9091506020823d8211614d00575b81614ced60209383613294565b8101031261026c575051614ccd38614cba565b3d9150614ce0565b634e487b7160e01b84526011600452602484fd5b5050505050565b90614d2d82613325565b614d3a6040519182613294565b8281528092614d4b601f1991613325565b0190602036910137565b908151811015613a80570160200190565b805115614faa5760409081516105e081018181106001600160401b0382111761321a578352602e81526020906105c0368383013760009182614da783613a73565b52600193805184915b818310614f095750505060ff809416614dc881614d23565b92845b828110614ee8575050508151614de081614d23565b92845b828110614ec057505050815193614df9856132b5565b95614e0681519788613294565b858752601f19614e15876132b5565b013684890137845b868110614e2e575050505050505090565b6001908251614e3c8161325e565b603a81527f31323334353637383941424344454647484a4b4c4d4e50515253545556575859868201527f5a6162636465666768696a6b6d6e6f707172737475767778797a000000000000848201526001600160f81b031990614eab9086614ea3858b613a96565b511690614d55565b5116871a614eb9828b614d55565b5301614e1d565b60019087614ed5600019838651030185613a96565b5116614ee18288613a96565b5201614de3565b8087614ef660019385613a96565b5116614f028288613a96565b5201614dcb565b939791969094614f198886614d55565b5160f81c9381945b60ff90818a16871015614f695790614f4e60019261ff00614f438f8b90613a96565b5160081b1690614573565b603a9182820616614f5f898f613a96565b5204950194614f21565b919550508099959298919693995b614f8657506001019190614db0565b9660ff6001603a9282848c0616614f9f8483168b613a96565b520116970480614f77565b50604051614fb781613279565b60008152600036813790565b614fcb6139f6565b6001600160581b0360208201511690811561506d57506040516331a9108f60e11b815260048101919091526020816024817f00000000000000000000000000000000000000000000000000000000000000006001600160a01b03165afa90811561117f5760009161503a575090565b906020823d8211615065575b8161505360209383613294565b8101031261026c575061332290613a2f565b3d9150615046565b516001600160a01b0316919050565b6150846139f6565b906020916001600160581b03838201511660009080156000146150fd575050516001600160a01b03165b6000604080516150bd8161325e565b8260018060a01b0380961696878352820152015282600055167f8be0079c531659141344cd1fd0a4f28419497f9722a3daafe3b4186f6b6457e0600080a3565b6040516331a9108f60e11b8152600481019190915290915083816024817f00000000000000000000000000000000000000000000000000000000000000006001600160a01b03165afa918215610a8357809261515b575b50506150ae565b9091508382813d831161518c575b6151738183613294565b8101031261026c575061518590613a2f565b3880615154565b503d615169565b61519b6139f6565b60208082016001600160581b0380825116600090801560001461535657505083516001600160a01b0316915b51169160ff6040809501511660018060a01b038093168033141594856152ad575b508461520a575b505050506151fa5750565b5163075fd2b160e01b8152600490fd5b829394506084908651958693849263c161c93f60e01b845233600485015260248401526000604484015260648301527f0000000000000000000000000000000000000000000000000000000000000000165afa908115613df557600091615279575b50905015388080806151ef565b82813d83116152a6575b61528d8183613294565b8101031261026c575061529f90614050565b803861526c565b503d615283565b90945085519063c161c93f60e01b825233600483015285602483015260448201528160648201528281608481877f0000000000000000000000000000000000000000000000000000000000000000165afa90811561534b57600091615316575b501593386151e8565b908382813d8311615344575b61532c8183613294565b8101031261026c575061533e90614050565b3861530d565b503d615322565b86513d6000823e3d90fd5b6040516331a9108f60e11b8152600481019190915284816024817f00000000000000000000000000000000000000000000000000000000000000006001600160a01b03165afa918215610a835780926153b2575b5050916151c7565b9091508482813d83116153e3575b6153ca8183613294565b8101031261026c57506153dc90613a2f565b38806153aa565b503d6153c0565b919060001981840981840291828083109203918083039214615467576127109081831015615449577fbc01a36e2eb1c432ca57a786c226809d495182a9930be0ded288ce703afb7e9194950990828211900360fc1b910360041c170290565b6044838360405191631dcf306360e21b835260048301526024820152fd5b505061271090049150565b9091600019838309928083029283808610950394808603951461550857828510156154ea57908291096001821901821680920460028082600302188083028203028083028203028083028203028083028203028083028203028092029003029360018380600003040190848311900302920304170290565b6044858460405191631dcf306360e21b835260048301526024820152fd5b505080925015615516570490565b634e487b7160e01b600052601260045260246000fdfe405787fa12a823e0f2b7631cc41b3ba8828b3321ca811111fa75cd3aa3bb5ace31ecc21a745e3968a04e9570e4425bc18fa8019c68028196b546d1669c200c68b10e2d527612073b26eecdfd717e6a320cf44b4afac2b0732d9fcbe2b7fa0cf61b6847dc741a1b0cd08d278845f9d819d87b734759afb55fe2de5cb82a9ae672a264697066735822122022c379f646db1c90a9f65bdc2482baeabaed41f48fbb801472886fbc7598610864736f6c634300081100338be0079c531659141344cd1fd0a4f28419497f9722a3daafe3b4186f6b6457e0",
    "linkReferences": {}
  },
  "methodIdentifiers": {
    "adjustTiers((uint96,uint32,uint32,uint16,address,bytes32,uint16,bool,bool,bool,bool)[],uint256[])": "15f2e283",
    "approve(address,uint256)": "095ea7b3",
    "balanceOf(address)": "70a08231",
    "baseURI()": "6c0360eb",
    "codeOrigin()": "1d153ca4",
    "contractURI()": "e8a3d485",
    "creditsOf(address)": "245a45b5",
    "didPay((address,uint256,uint256,(address,uint256,uint256,uint256),(address,uint256,uint256,uint256),uint256,address,bool,string,bytes))": "da9ee8b7",
    "didRedeem((address,uint256,uint256,uint256,(address,uint256,uint256,uint256),(address,uint256,uint256,uint256),address,string,bytes))": "2b13c58f",
    "directory()": "c41c2f24",
    "firstOwnerOf(uint256)": "54c6d1f5",
    "fundingCycleStore()": "557e7155",
    "getApproved(uint256)": "081812fc",
    "initialize(uint256,address,string,string,address,string,address,string,((uint96,uint32,uint32,uint16,address,bytes32,uint16,bool,bool,bool,bool)[],uint256,uint256,address),address,(bool,bool,bool,bool))": "126d89f8",
    "isApprovedForAll(address,address)": "e985e9c5",
    "jbOwner()": "ba23c36e",
    "mintFor(uint16[],address)": "6ac6d941",
    "mintReservesFor((uint256,uint256)[])": "2a596e53",
    "mintReservesFor(uint256,uint256)": "aa4fb15b",
    "name()": "06fdde03",
    "operatorStore()": "ad007d63",
    "owner()": "8da5cb5b",
    "ownerOf(uint256)": "6352211e",
    "payParams((address,address,(address,uint256,uint256,uint256),uint256,uint256,address,uint256,uint256,string,bytes))": "d46cf171",
    "prices()": "d3419bf3",
    "pricingCurrency()": "64640c1e",
    "pricingDecimals()": "4ecba625",
    "projectId()": "3fafa127",
    "projects()": "8b79543c",
    "redeemParams((address,address,uint256,uint256,uint256,uint256,uint256,(address,uint256,uint256,uint256),bool,uint256,string,bytes))": "a51cfd18",
    "redemptionWeightOf(uint256[],(address,address,uint256,uint256,uint256,uint256,uint256,(address,uint256,uint256,uint256),bool,uint256,string,bytes))": "7ba62bf9",
    "renounceOwnership()": "715018a6",
    "safeTransferFrom(address,address,uint256)": "42842e0e",
    "safeTransferFrom(address,address,uint256,bytes)": "b88d4fde",
    "setApprovalForAll(address,bool)": "a22cb465",
    "setMetadata(string,string,address,uint256,bytes32)": "1435aad5",
    "setPermissionIndex(uint8)": "61aec7a9",
    "store()": "975057e7",
    "supportsInterface(bytes4)": "01ffc9a7",
    "symbol()": "95d89b41",
    "tokenURI(uint256)": "c87b56dd",
    "totalRedemptionWeight((address,address,uint256,uint256,uint256,uint256,uint256,(address,uint256,uint256,uint256),bool,uint256,string,bytes))": "9494bf72",
    "transferFrom(address,address,uint256)": "23b872dd",
    "transferOwnership(address)": "f2fde38b",
    "transferOwnershipToProject(uint256)": "a220d696"
  },
  "id": 0
}