{
  "abi": [
    {
      "inputs": [
        {
          "internalType": "uint256",
          "name": "_projectId",
          "type": "uint256"
        },
        {
          "internalType": "contract IJBDirectory",
          "name": "_directory",
          "type": "address"
        },
        {
          "internalType": "string",
          "name": "_name",
          "type": "string"
        },
        {
          "internalType": "string",
          "name": "_symbol",
          "type": "string"
        },
        {
          "internalType": "contract IJBFundingCycleStore",
          "name": "_fundingCycleStore",
          "type": "address"
        },
        {
          "internalType": "string",
          "name": "_baseUri",
          "type": "string"
        },
        {
          "internalType": "contract IJBTokenUriResolver",
          "name": "_tokenUriResolver",
          "type": "address"
        },
        {
          "internalType": "string",
          "name": "_contractUri",
          "type": "string"
        },
        {
          "components": [
            {
              "internalType": "uint256",
              "name": "contributionFloor",
              "type": "uint256"
            },
            {
              "internalType": "uint256",
              "name": "lockedUntil",
              "type": "uint256"
            },
            {
              "internalType": "uint256",
              "name": "initialQuantity",
              "type": "uint256"
            },
            {
              "internalType": "uint256",
              "name": "votingUnits",
              "type": "uint256"
            },
            {
              "internalType": "uint256",
              "name": "reservedRate",
              "type": "uint256"
            },
            {
              "internalType": "address",
              "name": "reservedTokenBeneficiary",
              "type": "address"
            },
            {
              "internalType": "bytes32",
              "name": "encodedIPFSUri",
              "type": "bytes32"
            },
            {
              "internalType": "bool",
              "name": "shouldUseBeneficiaryAsDefault",
              "type": "bool"
            }
          ],
          "internalType": "struct JB721TierParams[]",
          "name": "_tiers",
          "type": "tuple[]"
        },
        {
          "internalType": "contract IJBTiered721DelegateStore",
          "name": "_store",
          "type": "address"
        },
        {
          "components": [
            {
              "internalType": "bool",
              "name": "lockReservedTokenChanges",
              "type": "bool"
            },
            {
              "internalType": "bool",
              "name": "lockVotingUnitChanges",
              "type": "bool"
            }
          ],
          "internalType": "struct JBTiered721Flags",
          "name": "_flags",
          "type": "tuple"
        }
      ],
      "stateMutability": "nonpayable",
      "type": "constructor"
    },
    {
      "inputs": [],
      "name": "ALEADY_MINTED",
      "type": "error"
    },
    {
      "inputs": [],
      "name": "APPROVAL_TO_CURRENT_OWNER",
      "type": "error"
    },
    {
      "inputs": [],
      "name": "APPROVE_TO_CALLER",
      "type": "error"
    },
    {
      "inputs": [],
      "name": "BLOCK_NOT_YET_MINED",
      "type": "error"
    },
    {
      "inputs": [],
      "name": "CALLER_NOT_OWNER_OR_APPROVED",
      "type": "error"
    },
    {
      "inputs": [],
      "name": "INCORRECT_OWNER",
      "type": "error"
    },
    {
      "inputs": [],
      "name": "INVALID",
      "type": "error"
    },
    {
      "inputs": [],
      "name": "INVALID_PAYMENT_EVENT",
      "type": "error"
    },
    {
      "inputs": [],
      "name": "INVALID_REDEMPTION_EVENT",
      "type": "error"
    },
    {
      "inputs": [],
      "name": "INVALID_TOKEN_ID",
      "type": "error"
    },
    {
      "inputs": [],
      "name": "MINT_TO_ZERO",
      "type": "error"
    },
    {
      "inputs": [],
      "name": "NOT_AVAILABLE",
      "type": "error"
    },
    {
      "inputs": [],
      "name": "OVERSPENDING",
      "type": "error"
    },
    {
      "inputs": [
        {
          "internalType": "uint256",
          "name": "prod1",
          "type": "uint256"
        },
        {
          "internalType": "uint256",
          "name": "denominator",
          "type": "uint256"
        }
      ],
      "name": "PRBMath__MulDivOverflow",
      "type": "error"
    },
    {
      "inputs": [],
      "name": "RESERVED_TOKEN_MINTING_PAUSED",
      "type": "error"
    },
    {
      "inputs": [],
      "name": "SIGNATURE_EXPIRED",
      "type": "error"
    },
    {
      "inputs": [],
      "name": "TRANSFERS_PAUSED",
      "type": "error"
    },
    {
      "inputs": [],
      "name": "TRANSFER_TO_NON_IMPLEMENTER",
      "type": "error"
    },
    {
      "inputs": [],
      "name": "TRANSFER_TO_ZERO_ADDRESS",
      "type": "error"
    },
    {
      "inputs": [],
      "name": "UNAUTHORIZED",
      "type": "error"
    },
    {
      "inputs": [],
      "name": "UNEXPECTED",
      "type": "error"
    },
    {
      "anonymous": false,
      "inputs": [
        {
          "indexed": true,
          "internalType": "uint256",
          "name": "tierId",
          "type": "uint256"
        },
        {
          "components": [
            {
              "internalType": "uint256",
              "name": "contributionFloor",
              "type": "uint256"
            },
            {
              "internalType": "uint256",
              "name": "lockedUntil",
              "type": "uint256"
            },
            {
              "internalType": "uint256",
              "name": "initialQuantity",
              "type": "uint256"
            },
            {
              "internalType": "uint256",
              "name": "votingUnits",
              "type": "uint256"
            },
            {
              "internalType": "uint256",
              "name": "reservedRate",
              "type": "uint256"
            },
            {
              "internalType": "address",
              "name": "reservedTokenBeneficiary",
              "type": "address"
            },
            {
              "internalType": "bytes32",
              "name": "encodedIPFSUri",
              "type": "bytes32"
            },
            {
              "internalType": "bool",
              "name": "shouldUseBeneficiaryAsDefault",
              "type": "bool"
            }
          ],
          "indexed": false,
          "internalType": "struct JB721TierParams",
          "name": "data",
          "type": "tuple"
        },
        {
          "indexed": false,
          "internalType": "address",
          "name": "caller",
          "type": "address"
        }
      ],
      "name": "AddTier",
      "type": "event"
    },
    {
      "anonymous": false,
      "inputs": [
        {
          "indexed": true,
          "internalType": "address",
          "name": "owner",
          "type": "address"
        },
        {
          "indexed": true,
          "internalType": "address",
          "name": "approved",
          "type": "address"
        },
        {
          "indexed": true,
          "internalType": "uint256",
          "name": "tokenId",
          "type": "uint256"
        }
      ],
      "name": "Approval",
      "type": "event"
    },
    {
      "anonymous": false,
      "inputs": [
        {
          "indexed": true,
          "internalType": "address",
          "name": "owner",
          "type": "address"
        },
        {
          "indexed": true,
          "internalType": "address",
          "name": "operator",
          "type": "address"
        },
        {
          "indexed": false,
          "internalType": "bool",
          "name": "approved",
          "type": "bool"
        }
      ],
      "name": "ApprovalForAll",
      "type": "event"
    },
    {
      "anonymous": false,
      "inputs": [
        {
          "indexed": true,
          "internalType": "address",
          "name": "delegator",
          "type": "address"
        },
        {
          "indexed": true,
          "internalType": "address",
          "name": "fromDelegate",
          "type": "address"
        },
        {
          "indexed": true,
          "internalType": "address",
          "name": "toDelegate",
          "type": "address"
        }
      ],
      "name": "DelegateChanged",
      "type": "event"
    },
    {
      "anonymous": false,
      "inputs": [
        {
          "indexed": true,
          "internalType": "address",
          "name": "delegate",
          "type": "address"
        },
        {
          "indexed": false,
          "internalType": "uint256",
          "name": "previousBalance",
          "type": "uint256"
        },
        {
          "indexed": false,
          "internalType": "uint256",
          "name": "newBalance",
          "type": "uint256"
        }
      ],
      "name": "DelegateVotesChanged",
      "type": "event"
    },
    {
      "anonymous": false,
      "inputs": [
        {
          "indexed": true,
          "internalType": "uint256",
          "name": "tokenId",
          "type": "uint256"
        },
        {
          "indexed": true,
          "internalType": "uint256",
          "name": "tierId",
          "type": "uint256"
        },
        {
          "indexed": true,
          "internalType": "address",
          "name": "beneficiary",
          "type": "address"
        },
        {
          "indexed": false,
          "internalType": "uint256",
          "name": "totalAmountContributed",
          "type": "uint256"
        },
        {
          "indexed": false,
          "internalType": "address",
          "name": "caller",
          "type": "address"
        }
      ],
      "name": "Mint",
      "type": "event"
    },
    {
      "anonymous": false,
      "inputs": [
        {
          "indexed": true,
          "internalType": "uint256",
          "name": "tokenId",
          "type": "uint256"
        },
        {
          "indexed": true,
          "internalType": "uint256",
          "name": "tierId",
          "type": "uint256"
        },
        {
          "indexed": true,
          "internalType": "address",
          "name": "beneficiary",
          "type": "address"
        },
        {
          "indexed": false,
          "internalType": "address",
          "name": "caller",
          "type": "address"
        }
      ],
      "name": "MintReservedToken",
      "type": "event"
    },
    {
      "anonymous": false,
      "inputs": [
        {
          "indexed": true,
          "internalType": "address",
          "name": "previousOwner",
          "type": "address"
        },
        {
          "indexed": true,
          "internalType": "address",
          "name": "newOwner",
          "type": "address"
        }
      ],
      "name": "OwnershipTransferred",
      "type": "event"
    },
    {
      "anonymous": false,
      "inputs": [
        {
          "indexed": true,
          "internalType": "uint256",
          "name": "tierId",
          "type": "uint256"
        },
        {
          "indexed": false,
          "internalType": "address",
          "name": "caller",
          "type": "address"
        }
      ],
      "name": "RemoveTier",
      "type": "event"
    },
    {
      "anonymous": false,
      "inputs": [
        {
          "indexed": true,
          "internalType": "string",
          "name": "baseUri",
          "type": "string"
        },
        {
          "indexed": false,
          "internalType": "address",
          "name": "caller",
          "type": "address"
        }
      ],
      "name": "SetBaseUri",
      "type": "event"
    },
    {
      "anonymous": false,
      "inputs": [
        {
          "indexed": true,
          "internalType": "string",
          "name": "contractUri",
          "type": "string"
        },
        {
          "indexed": false,
          "internalType": "address",
          "name": "caller",
          "type": "address"
        }
      ],
      "name": "SetContractUri",
      "type": "event"
    },
    {
      "anonymous": false,
      "inputs": [
        {
          "indexed": true,
          "internalType": "address",
          "name": "beneficiary",
          "type": "address"
        },
        {
          "indexed": false,
          "internalType": "address",
          "name": "caller",
          "type": "address"
        }
      ],
      "name": "SetDefaultReservedTokenBeneficiary",
      "type": "event"
    },
    {
      "anonymous": false,
      "inputs": [
        {
          "indexed": true,
          "internalType": "contract IJBTokenUriResolver",
          "name": "newResolver",
          "type": "address"
        },
        {
          "indexed": false,
          "internalType": "address",
          "name": "caller",
          "type": "address"
        }
      ],
      "name": "SetTokenUriResolver",
      "type": "event"
    },
    {
      "anonymous": false,
      "inputs": [
        {
          "indexed": true,
          "internalType": "address",
          "name": "delegator",
          "type": "address"
        },
        {
          "indexed": true,
          "internalType": "address",
          "name": "fromDelegate",
          "type": "address"
        },
        {
          "indexed": true,
          "internalType": "address",
          "name": "toDelegate",
          "type": "address"
        },
        {
          "indexed": false,
          "internalType": "uint256",
          "name": "tierId",
          "type": "uint256"
        },
        {
          "indexed": false,
          "internalType": "address",
          "name": "caller",
          "type": "address"
        }
      ],
      "name": "TierDelegateChanged",
      "type": "event"
    },
    {
      "anonymous": false,
      "inputs": [
        {
          "indexed": true,
          "internalType": "address",
          "name": "delegate",
          "type": "address"
        },
        {
          "indexed": true,
          "internalType": "uint256",
          "name": "tierId",
          "type": "uint256"
        },
        {
          "indexed": false,
          "internalType": "uint256",
          "name": "previousBalance",
          "type": "uint256"
        },
        {
          "indexed": false,
          "internalType": "uint256",
          "name": "newBalance",
          "type": "uint256"
        },
        {
          "indexed": false,
          "internalType": "address",
          "name": "callre",
          "type": "address"
        }
      ],
      "name": "TierDelegateVotesChanged",
      "type": "event"
    },
    {
      "anonymous": false,
      "inputs": [
        {
          "indexed": true,
          "internalType": "address",
          "name": "from",
          "type": "address"
        },
        {
          "indexed": true,
          "internalType": "address",
          "name": "to",
          "type": "address"
        },
        {
          "indexed": true,
          "internalType": "uint256",
          "name": "tokenId",
          "type": "uint256"
        }
      ],
      "name": "Transfer",
      "type": "event"
    },
    {
      "inputs": [],
      "name": "DOMAIN_SEPARATOR",
      "outputs": [
        {
          "internalType": "bytes32",
          "name": "",
          "type": "bytes32"
        }
      ],
      "stateMutability": "view",
      "type": "function"
    },
    {
      "inputs": [
        {
          "components": [
            {
              "internalType": "uint256",
              "name": "contributionFloor",
              "type": "uint256"
            },
            {
              "internalType": "uint256",
              "name": "lockedUntil",
              "type": "uint256"
            },
            {
              "internalType": "uint256",
              "name": "initialQuantity",
              "type": "uint256"
            },
            {
              "internalType": "uint256",
              "name": "votingUnits",
              "type": "uint256"
            },
            {
              "internalType": "uint256",
              "name": "reservedRate",
              "type": "uint256"
            },
            {
              "internalType": "address",
              "name": "reservedTokenBeneficiary",
              "type": "address"
            },
            {
              "internalType": "bytes32",
              "name": "encodedIPFSUri",
              "type": "bytes32"
            },
            {
              "internalType": "bool",
              "name": "shouldUseBeneficiaryAsDefault",
              "type": "bool"
            }
          ],
          "internalType": "struct JB721TierParams[]",
          "name": "_tiersToAdd",
          "type": "tuple[]"
        },
        {
          "internalType": "uint256[]",
          "name": "_tierIdsToRemove",
          "type": "uint256[]"
        }
      ],
      "name": "adjustTiers",
      "outputs": [],
      "stateMutability": "nonpayable",
      "type": "function"
    },
    {
      "inputs": [
        {
          "internalType": "address",
          "name": "to",
          "type": "address"
        },
        {
          "internalType": "uint256",
          "name": "tokenId",
          "type": "uint256"
        }
      ],
      "name": "approve",
      "outputs": [],
      "stateMutability": "nonpayable",
      "type": "function"
    },
    {
      "inputs": [
        {
          "internalType": "address",
          "name": "_owner",
          "type": "address"
        }
      ],
      "name": "balanceOf",
      "outputs": [
        {
          "internalType": "uint256",
          "name": "balance",
          "type": "uint256"
        }
      ],
      "stateMutability": "view",
      "type": "function"
    },
    {
      "inputs": [],
      "name": "contractURI",
      "outputs": [
        {
          "internalType": "string",
          "name": "",
          "type": "string"
        }
      ],
      "stateMutability": "view",
      "type": "function"
    },
    {
      "inputs": [],
      "name": "contributionToken",
      "outputs": [
        {
          "internalType": "address",
          "name": "",
          "type": "address"
        }
      ],
      "stateMutability": "view",
      "type": "function"
    },
    {
      "inputs": [
        {
          "internalType": "address",
          "name": "delegatee",
          "type": "address"
        }
      ],
      "name": "delegate",
      "outputs": [],
      "stateMutability": "nonpayable",
      "type": "function"
    },
    {
      "inputs": [
        {
          "internalType": "address",
          "name": "delegatee",
          "type": "address"
        },
        {
          "internalType": "uint256",
          "name": "nonce",
          "type": "uint256"
        },
        {
          "internalType": "uint256",
          "name": "expiry",
          "type": "uint256"
        },
        {
          "internalType": "uint8",
          "name": "v",
          "type": "uint8"
        },
        {
          "internalType": "bytes32",
          "name": "r",
          "type": "bytes32"
        },
        {
          "internalType": "bytes32",
          "name": "s",
          "type": "bytes32"
        }
      ],
      "name": "delegateBySig",
      "outputs": [],
      "stateMutability": "nonpayable",
      "type": "function"
    },
    {
      "inputs": [
        {
          "internalType": "address",
          "name": "account",
          "type": "address"
        }
      ],
      "name": "delegates",
      "outputs": [
        {
          "internalType": "address",
          "name": "",
          "type": "address"
        }
      ],
      "stateMutability": "view",
      "type": "function"
    },
    {
      "inputs": [
        {
          "components": [
            {
              "internalType": "address",
              "name": "payer",
              "type": "address"
            },
            {
              "internalType": "uint256",
              "name": "projectId",
              "type": "uint256"
            },
            {
              "internalType": "uint256",
              "name": "currentFundingCycleConfiguration",
              "type": "uint256"
            },
            {
              "components": [
                {
                  "internalType": "address",
                  "name": "token",
                  "type": "address"
                },
                {
                  "internalType": "uint256",
                  "name": "value",
                  "type": "uint256"
                },
                {
                  "internalType": "uint256",
                  "name": "decimals",
                  "type": "uint256"
                },
                {
                  "internalType": "uint256",
                  "name": "currency",
                  "type": "uint256"
                }
              ],
              "internalType": "struct JBTokenAmount",
              "name": "amount",
              "type": "tuple"
            },
            {
              "components": [
                {
                  "internalType": "address",
                  "name": "token",
                  "type": "address"
                },
                {
                  "internalType": "uint256",
                  "name": "value",
                  "type": "uint256"
                },
                {
                  "internalType": "uint256",
                  "name": "decimals",
                  "type": "uint256"
                },
                {
                  "internalType": "uint256",
                  "name": "currency",
                  "type": "uint256"
                }
              ],
              "internalType": "struct JBTokenAmount",
              "name": "forwardedAmount",
              "type": "tuple"
            },
            {
              "internalType": "uint256",
              "name": "projectTokenCount",
              "type": "uint256"
            },
            {
              "internalType": "address",
              "name": "beneficiary",
              "type": "address"
            },
            {
              "internalType": "bool",
              "name": "preferClaimedTokens",
              "type": "bool"
            },
            {
              "internalType": "string",
              "name": "memo",
              "type": "string"
            },
            {
              "internalType": "bytes",
              "name": "metadata",
              "type": "bytes"
            }
          ],
          "internalType": "struct JBDidPayData",
          "name": "_data",
          "type": "tuple"
        }
      ],
      "name": "didPay",
      "outputs": [],
      "stateMutability": "payable",
      "type": "function"
    },
    {
      "inputs": [
        {
          "components": [
            {
              "internalType": "address",
              "name": "holder",
              "type": "address"
            },
            {
              "internalType": "uint256",
              "name": "projectId",
              "type": "uint256"
            },
            {
              "internalType": "uint256",
              "name": "currentFundingCycleConfiguration",
              "type": "uint256"
            },
            {
              "internalType": "uint256",
              "name": "projectTokenCount",
              "type": "uint256"
            },
            {
              "components": [
                {
                  "internalType": "address",
                  "name": "token",
                  "type": "address"
                },
                {
                  "internalType": "uint256",
                  "name": "value",
                  "type": "uint256"
                },
                {
                  "internalType": "uint256",
                  "name": "decimals",
                  "type": "uint256"
                },
                {
                  "internalType": "uint256",
                  "name": "currency",
                  "type": "uint256"
                }
              ],
              "internalType": "struct JBTokenAmount",
              "name": "reclaimedAmount",
              "type": "tuple"
            },
            {
              "components": [
                {
                  "internalType": "address",
                  "name": "token",
                  "type": "address"
                },
                {
                  "internalType": "uint256",
                  "name": "value",
                  "type": "uint256"
                },
                {
                  "internalType": "uint256",
                  "name": "decimals",
                  "type": "uint256"
                },
                {
                  "internalType": "uint256",
                  "name": "currency",
                  "type": "uint256"
                }
              ],
              "internalType": "struct JBTokenAmount",
              "name": "forwardedAmount",
              "type": "tuple"
            },
            {
              "internalType": "address payable",
              "name": "beneficiary",
              "type": "address"
            },
            {
              "internalType": "string",
              "name": "memo",
              "type": "string"
            },
            {
              "internalType": "bytes",
              "name": "metadata",
              "type": "bytes"
            }
          ],
          "internalType": "struct JBDidRedeemData",
          "name": "_data",
          "type": "tuple"
        }
      ],
      "name": "didRedeem",
      "outputs": [],
      "stateMutability": "payable",
      "type": "function"
    },
    {
      "inputs": [],
      "name": "directory",
      "outputs": [
        {
          "internalType": "contract IJBDirectory",
          "name": "",
          "type": "address"
        }
      ],
      "stateMutability": "view",
      "type": "function"
    },
    {
      "inputs": [
        {
          "internalType": "uint256",
          "name": "_tokenId",
          "type": "uint256"
        }
      ],
      "name": "firstOwnerOf",
      "outputs": [
        {
          "internalType": "address",
          "name": "",
          "type": "address"
        }
      ],
      "stateMutability": "view",
      "type": "function"
    },
    {
      "inputs": [],
      "name": "fundingCycleStore",
      "outputs": [
        {
          "internalType": "contract IJBFundingCycleStore",
          "name": "",
          "type": "address"
        }
      ],
      "stateMutability": "view",
      "type": "function"
    },
    {
      "inputs": [
        {
          "internalType": "uint256",
          "name": "tokenId",
          "type": "uint256"
        }
      ],
      "name": "getApproved",
      "outputs": [
        {
          "internalType": "address",
          "name": "",
          "type": "address"
        }
      ],
      "stateMutability": "view",
      "type": "function"
    },
    {
      "inputs": [
        {
          "internalType": "uint256",
          "name": "_tier",
          "type": "uint256"
        },
        {
          "internalType": "uint256",
          "name": "_blockNumber",
          "type": "uint256"
        }
      ],
      "name": "getPastTierTotalVotes",
      "outputs": [
        {
          "internalType": "uint256",
          "name": "",
          "type": "uint256"
        }
      ],
      "stateMutability": "view",
      "type": "function"
    },
    {
      "inputs": [
        {
          "internalType": "address",
          "name": "_account",
          "type": "address"
        },
        {
          "internalType": "uint256",
          "name": "_tier",
          "type": "uint256"
        },
        {
          "internalType": "uint256",
          "name": "_blockNumber",
          "type": "uint256"
        }
      ],
      "name": "getPastTierVotes",
      "outputs": [
        {
          "internalType": "uint256",
          "name": "",
          "type": "uint256"
        }
      ],
      "stateMutability": "view",
      "type": "function"
    },
    {
      "inputs": [
        {
          "internalType": "uint256",
          "name": "blockNumber",
          "type": "uint256"
        }
      ],
      "name": "getPastTotalSupply",
      "outputs": [
        {
          "internalType": "uint256",
          "name": "",
          "type": "uint256"
        }
      ],
      "stateMutability": "view",
      "type": "function"
    },
    {
      "inputs": [
        {
          "internalType": "address",
          "name": "account",
          "type": "address"
        },
        {
          "internalType": "uint256",
          "name": "blockNumber",
          "type": "uint256"
        }
      ],
      "name": "getPastVotes",
      "outputs": [
        {
          "internalType": "uint256",
          "name": "",
          "type": "uint256"
        }
      ],
      "stateMutability": "view",
      "type": "function"
    },
    {
      "inputs": [
        {
          "internalType": "address",
          "name": "_account",
          "type": "address"
        },
        {
          "internalType": "uint256",
          "name": "_tier",
          "type": "uint256"
        }
      ],
      "name": "getTierDelegate",
      "outputs": [
        {
          "internalType": "address",
          "name": "",
          "type": "address"
        }
      ],
      "stateMutability": "view",
      "type": "function"
    },
    {
      "inputs": [
        {
          "internalType": "uint256",
          "name": "_tier",
          "type": "uint256"
        }
      ],
      "name": "getTierTotalVotes",
      "outputs": [
        {
          "internalType": "uint256",
          "name": "",
          "type": "uint256"
        }
      ],
      "stateMutability": "view",
      "type": "function"
    },
    {
      "inputs": [
        {
          "internalType": "address",
          "name": "_account",
          "type": "address"
        },
        {
          "internalType": "uint256",
          "name": "_tier",
          "type": "uint256"
        }
      ],
      "name": "getTierVotes",
      "outputs": [
        {
          "internalType": "uint256",
          "name": "",
          "type": "uint256"
        }
      ],
      "stateMutability": "view",
      "type": "function"
    },
    {
      "inputs": [
        {
          "internalType": "address",
          "name": "account",
          "type": "address"
        }
      ],
      "name": "getVotes",
      "outputs": [
        {
          "internalType": "uint256",
          "name": "",
          "type": "uint256"
        }
      ],
      "stateMutability": "view",
      "type": "function"
    },
    {
      "inputs": [
        {
          "internalType": "address",
          "name": "owner",
          "type": "address"
        },
        {
          "internalType": "address",
          "name": "operator",
          "type": "address"
        }
      ],
      "name": "isApprovedForAll",
      "outputs": [
        {
          "internalType": "bool",
          "name": "",
          "type": "bool"
        }
      ],
      "stateMutability": "view",
      "type": "function"
    },
    {
      "inputs": [
        {
          "internalType": "uint256",
          "name": "_tierId",
          "type": "uint256"
        },
        {
          "internalType": "uint256",
          "name": "_count",
          "type": "uint256"
        }
      ],
      "name": "mintReservesFor",
      "outputs": [],
      "stateMutability": "nonpayable",
      "type": "function"
    },
    {
      "inputs": [],
      "name": "name",
      "outputs": [
        {
          "internalType": "string",
          "name": "",
          "type": "string"
        }
      ],
      "stateMutability": "view",
      "type": "function"
    },
    {
      "inputs": [
        {
          "internalType": "address",
          "name": "owner",
          "type": "address"
        }
      ],
      "name": "nonces",
      "outputs": [
        {
          "internalType": "uint256",
          "name": "",
          "type": "uint256"
        }
      ],
      "stateMutability": "view",
      "type": "function"
    },
    {
      "inputs": [],
      "name": "owner",
      "outputs": [
        {
          "internalType": "address",
          "name": "",
          "type": "address"
        }
      ],
      "stateMutability": "view",
      "type": "function"
    },
    {
      "inputs": [
        {
          "internalType": "uint256",
          "name": "tokenId",
          "type": "uint256"
        }
      ],
      "name": "ownerOf",
      "outputs": [
        {
          "internalType": "address",
          "name": "",
          "type": "address"
        }
      ],
      "stateMutability": "view",
      "type": "function"
    },
    {
      "inputs": [
        {
          "components": [
            {
              "internalType": "contract IJBPaymentTerminal",
              "name": "terminal",
              "type": "address"
            },
            {
              "internalType": "address",
              "name": "payer",
              "type": "address"
            },
            {
              "components": [
                {
                  "internalType": "address",
                  "name": "token",
                  "type": "address"
                },
                {
                  "internalType": "uint256",
                  "name": "value",
                  "type": "uint256"
                },
                {
                  "internalType": "uint256",
                  "name": "decimals",
                  "type": "uint256"
                },
                {
                  "internalType": "uint256",
                  "name": "currency",
                  "type": "uint256"
                }
              ],
              "internalType": "struct JBTokenAmount",
              "name": "amount",
              "type": "tuple"
            },
            {
              "internalType": "uint256",
              "name": "projectId",
              "type": "uint256"
            },
            {
              "internalType": "uint256",
              "name": "currentFundingCycleConfiguration",
              "type": "uint256"
            },
            {
              "internalType": "address",
              "name": "beneficiary",
              "type": "address"
            },
            {
              "internalType": "uint256",
              "name": "weight",
              "type": "uint256"
            },
            {
              "internalType": "uint256",
              "name": "reservedRate",
              "type": "uint256"
            },
            {
              "internalType": "string",
              "name": "memo",
              "type": "string"
            },
            {
              "internalType": "bytes",
              "name": "metadata",
              "type": "bytes"
            }
          ],
          "internalType": "struct JBPayParamsData",
          "name": "_data",
          "type": "tuple"
        }
      ],
      "name": "payParams",
      "outputs": [
        {
          "internalType": "uint256",
          "name": "weight",
          "type": "uint256"
        },
        {
          "internalType": "string",
          "name": "memo",
          "type": "string"
        },
        {
          "components": [
            {
              "internalType": "contract IJBPayDelegate",
              "name": "delegate",
              "type": "address"
            },
            {
              "internalType": "uint256",
              "name": "amount",
              "type": "uint256"
            }
          ],
          "internalType": "struct JBPayDelegateAllocation[]",
          "name": "delegateAllocations",
          "type": "tuple[]"
        }
      ],
      "stateMutability": "view",
      "type": "function"
    },
    {
      "inputs": [],
      "name": "projectId",
      "outputs": [
        {
          "internalType": "uint256",
          "name": "",
          "type": "uint256"
        }
      ],
      "stateMutability": "view",
      "type": "function"
    },
    {
      "inputs": [
        {
          "components": [
            {
              "internalType": "contract IJBPaymentTerminal",
              "name": "terminal",
              "type": "address"
            },
            {
              "internalType": "address",
              "name": "holder",
              "type": "address"
            },
            {
              "internalType": "uint256",
              "name": "projectId",
              "type": "uint256"
            },
            {
              "internalType": "uint256",
              "name": "currentFundingCycleConfiguration",
              "type": "uint256"
            },
            {
              "internalType": "uint256",
              "name": "tokenCount",
              "type": "uint256"
            },
            {
              "internalType": "uint256",
              "name": "totalSupply",
              "type": "uint256"
            },
            {
              "internalType": "uint256",
              "name": "overflow",
              "type": "uint256"
            },
            {
              "components": [
                {
                  "internalType": "address",
                  "name": "token",
                  "type": "address"
                },
                {
                  "internalType": "uint256",
                  "name": "value",
                  "type": "uint256"
                },
                {
                  "internalType": "uint256",
                  "name": "decimals",
                  "type": "uint256"
                },
                {
                  "internalType": "uint256",
                  "name": "currency",
                  "type": "uint256"
                }
              ],
              "internalType": "struct JBTokenAmount",
              "name": "reclaimAmount",
              "type": "tuple"
            },
            {
              "internalType": "bool",
              "name": "useTotalOverflow",
              "type": "bool"
            },
            {
              "internalType": "uint256",
              "name": "redemptionRate",
              "type": "uint256"
            },
            {
              "internalType": "string",
              "name": "memo",
              "type": "string"
            },
            {
              "internalType": "bytes",
              "name": "metadata",
              "type": "bytes"
            }
          ],
          "internalType": "struct JBRedeemParamsData",
          "name": "_data",
          "type": "tuple"
        }
      ],
      "name": "redeemParams",
      "outputs": [
        {
          "internalType": "uint256",
          "name": "reclaimAmount",
          "type": "uint256"
        },
        {
          "internalType": "string",
          "name": "memo",
          "type": "string"
        },
        {
          "components": [
            {
              "internalType": "contract IJBRedemptionDelegate",
              "name": "delegate",
              "type": "address"
            },
            {
              "internalType": "uint256",
              "name": "amount",
              "type": "uint256"
            }
          ],
          "internalType": "struct JBRedemptionDelegateAllocation[]",
          "name": "delegateAllocations",
          "type": "tuple[]"
        }
      ],
      "stateMutability": "view",
      "type": "function"
    },
    {
      "inputs": [],
      "name": "renounceOwnership",
      "outputs": [],
      "stateMutability": "nonpayable",
      "type": "function"
    },
    {
      "inputs": [
        {
          "internalType": "address",
          "name": "from",
          "type": "address"
        },
        {
          "internalType": "address",
          "name": "to",
          "type": "address"
        },
        {
          "internalType": "uint256",
          "name": "tokenId",
          "type": "uint256"
        }
      ],
      "name": "safeTransferFrom",
      "outputs": [],
      "stateMutability": "nonpayable",
      "type": "function"
    },
    {
      "inputs": [
        {
          "internalType": "address",
          "name": "from",
          "type": "address"
        },
        {
          "internalType": "address",
          "name": "to",
          "type": "address"
        },
        {
          "internalType": "uint256",
          "name": "tokenId",
          "type": "uint256"
        },
        {
          "internalType": "bytes",
          "name": "data",
          "type": "bytes"
        }
      ],
      "name": "safeTransferFrom",
      "outputs": [],
      "stateMutability": "nonpayable",
      "type": "function"
    },
    {
      "inputs": [
        {
          "internalType": "address",
          "name": "operator",
          "type": "address"
        },
        {
          "internalType": "bool",
          "name": "approved",
          "type": "bool"
        }
      ],
      "name": "setApprovalForAll",
      "outputs": [],
      "stateMutability": "nonpayable",
      "type": "function"
    },
    {
      "inputs": [
        {
          "internalType": "string",
          "name": "_baseUri",
          "type": "string"
        }
      ],
      "name": "setBaseUri",
      "outputs": [],
      "stateMutability": "nonpayable",
      "type": "function"
    },
    {
      "inputs": [
        {
          "internalType": "string",
          "name": "_contractUri",
          "type": "string"
        }
      ],
      "name": "setContractUri",
      "outputs": [],
      "stateMutability": "nonpayable",
      "type": "function"
    },
    {
      "inputs": [
        {
          "internalType": "address",
          "name": "_beneficiary",
          "type": "address"
        }
      ],
      "name": "setDefaultReservedTokenBeneficiary",
      "outputs": [],
      "stateMutability": "nonpayable",
      "type": "function"
    },
    {
      "inputs": [
        {
          "internalType": "address",
          "name": "_delegatee",
          "type": "address"
        },
        {
          "internalType": "uint256",
          "name": "_tierId",
          "type": "uint256"
        }
      ],
      "name": "setTierDelegate",
      "outputs": [],
      "stateMutability": "nonpayable",
      "type": "function"
    },
    {
      "inputs": [
        {
          "internalType": "contract IJBTokenUriResolver",
          "name": "_tokenUriResolver",
          "type": "address"
        }
      ],
      "name": "setTokenUriResolver",
      "outputs": [],
      "stateMutability": "nonpayable",
      "type": "function"
    },
    {
      "inputs": [],
      "name": "store",
      "outputs": [
        {
          "internalType": "contract IJBTiered721DelegateStore",
          "name": "",
          "type": "address"
        }
      ],
      "stateMutability": "view",
      "type": "function"
    },
    {
      "inputs": [
        {
          "internalType": "bytes4",
          "name": "_interfaceId",
          "type": "bytes4"
        }
      ],
      "name": "supportsInterface",
      "outputs": [
        {
          "internalType": "bool",
          "name": "",
          "type": "bool"
        }
      ],
      "stateMutability": "view",
      "type": "function"
    },
    {
      "inputs": [],
      "name": "symbol",
      "outputs": [
        {
          "internalType": "string",
          "name": "",
          "type": "string"
        }
      ],
      "stateMutability": "view",
      "type": "function"
    },
    {
      "inputs": [
        {
          "internalType": "uint256",
          "name": "_tokenId",
          "type": "uint256"
        }
      ],
      "name": "tokenURI",
      "outputs": [
        {
          "internalType": "string",
          "name": "",
          "type": "string"
        }
      ],
      "stateMutability": "view",
      "type": "function"
    },
    {
      "inputs": [
        {
          "internalType": "address",
          "name": "from",
          "type": "address"
        },
        {
          "internalType": "address",
          "name": "to",
          "type": "address"
        },
        {
          "internalType": "uint256",
          "name": "tokenId",
          "type": "uint256"
        }
      ],
      "name": "transferFrom",
      "outputs": [],
      "stateMutability": "nonpayable",
      "type": "function"
    },
    {
      "inputs": [
        {
          "internalType": "address",
          "name": "newOwner",
          "type": "address"
        }
      ],
      "name": "transferOwnership",
      "outputs": [],
      "stateMutability": "nonpayable",
      "type": "function"
    }
  ],
  "bytecode": {
    "object": "0x6101e060405261eeee6101c0523480156200001957600080fd5b5060405162005a0d38038062005a0d8339810160408190526200003c916200071f565b6040805180820190915260018152603160f81b602082015289908c8c838c818160006200006a838262000917565b50600162000079828262000917565b505050608093909352506001600160a01b031660a0525081516020808401919091208251918301919091206101208290526101408190524660e0527f8b73c3c69bb8fe3d512ecc4cf759cc79239f7b179b0ffacaa9a75d522b39400f620001258184846040805160208101859052908101839052606081018290524660808201523060a082015260009060c0016040516020818303038152906040528051906020012090509392505050565b60c05230610100526101605250620001499250620001439150503390565b6200040b565b6001600160a01b038088166101a052821661018052855115620001c9576040516331315e5960e11b81526001600160a01b03831690636262bcb29062000194908990600401620009e3565b600060405180830381600087803b158015620001af57600080fd5b505af1158015620001c4573d6000803e3d6000fd5b505050505b835115620002345760405163d67b78fd60e01b81526001600160a01b0383169063d67b78fd90620001ff908790600401620009e3565b600060405180830381600087803b1580156200021a57600080fd5b505af11580156200022f573d6000803e3d6000fd5b505050505b6001600160a01b03851615620002a25760405163036129cb60e61b81526001600160a01b03868116600483015283169063d84a72c090602401600060405180830381600087803b1580156200028857600080fd5b505af11580156200029d573d6000803e3d6000fd5b505050505b82511562000324576040516309d865d560e21b81526001600160a01b03831690632761975490620002d890869060040162000a18565b6000604051808303816000875af1158015620002f8573d6000803e3d6000fd5b505050506040513d6000823e601f3d908101601f1916820160405262000322919081019062000ab2565b505b8051156200038c5780516040516303e6ca0360e11b815290151560048201526001600160a01b038316906307cd940690602401600060405180830381600087803b1580156200037257600080fd5b505af115801562000387573d6000803e3d6000fd5b505050505b806020015115620003fa576020810151604051631877d7b160e01b815290151560048201526001600160a01b03831690631877d7b190602401600060405180830381600087803b158015620003e057600080fd5b505af1158015620003f5573d6000803e3d6000fd5b505050505b505050505050505050505062000b4b565b600980546001600160a01b038381166001600160a01b0319831681179093556040519116919082907f8be0079c531659141344cd1fd0a4f28419497f9722a3daafe3b4186f6b6457e090600090a35050565b6001600160a01b03811681146200047357600080fd5b50565b805162000483816200045d565b919050565b634e487b7160e01b600052604160045260246000fd5b60405161010081016001600160401b0381118282101715620004c457620004c462000488565b60405290565b604051601f8201601f191681016001600160401b0381118282101715620004f557620004f562000488565b604052919050565b60005b838110156200051a57818101518382015260200162000500565b50506000910152565b600082601f8301126200053557600080fd5b81516001600160401b0381111562000551576200055162000488565b62000566601f8201601f1916602001620004ca565b8181528460208386010111156200057c57600080fd5b6200058f826020830160208701620004fd565b949350505050565b60006001600160401b03821115620005b357620005b362000488565b5060051b60200190565b805180151581146200048357600080fd5b600082601f830112620005e057600080fd5b81516020620005f9620005f38362000597565b620004ca565b82815260089290921b840181019181810190868411156200061957600080fd5b8286015b84811015620006af576101008189031215620006395760008081fd5b620006436200049e565b81518152848201518582015260408083015190820152606080830151908201526080808301519082015260a0808301516200067e816200045d565b9082015260c0828101519082015260e06200069b818401620005bd565b90820152835291830191610100016200061d565b509695505050505050565b600060408284031215620006cd57600080fd5b604080519081016001600160401b0381118282101715620006f257620006f262000488565b6040529050806200070383620005bd565b81526200071360208401620005bd565b60208201525092915050565b60008060008060008060008060008060006101808c8e0312156200074257600080fd5b8b519a506200075460208d0162000476565b60408d0151909a506001600160401b038111156200077157600080fd5b6200077f8e828f0162000523565b60608e0151909a5090506001600160401b038111156200079e57600080fd5b620007ac8e828f0162000523565b985050620007bd60808d0162000476565b60a08d01519097506001600160401b03811115620007da57600080fd5b620007e88e828f0162000523565b965050620007f960c08d0162000476565b60e08d01519095506001600160401b038111156200081657600080fd5b620008248e828f0162000523565b6101008e015190955090506001600160401b038111156200084457600080fd5b620008528e828f01620005ce565b935050620008646101208d0162000476565b9150620008768d6101408e01620006ba565b90509295989b509295989b9093969950565b600181811c908216806200089d57607f821691505b602082108103620008be57634e487b7160e01b600052602260045260246000fd5b50919050565b601f8211156200091257600081815260208120601f850160051c81016020861015620008ed5750805b601f850160051c820191505b818110156200090e57828155600101620008f9565b5050505b505050565b81516001600160401b0381111562000933576200093362000488565b6200094b8162000944845462000888565b84620008c4565b602080601f8311600181146200098357600084156200096a5750858301515b600019600386901b1c1916600185901b1785556200090e565b600085815260208120601f198616915b82811015620009b45788860151825594840194600190910190840162000993565b5085821015620009d35787850151600019600388901b60f8161c191681555b5050505050600190811b01905550565b602081526000825180602084015262000a04816040850160208701620004fd565b601f01601f19169190910160400192915050565b602080825282518282018190526000919060409081850190868401855b8281101562000aa55781518051855286810151878601528581015186860152606080820151908601526080808201519086015260a0808201516001600160a01b03169086015260c0808201519086015260e090810151151590850152610100909301929085019060010162000a35565b5091979650505050505050565b6000602080838503121562000ac657600080fd5b82516001600160401b0381111562000add57600080fd5b8301601f8101851362000aef57600080fd5b805162000b00620005f38262000597565b81815260059190911b8201830190838101908783111562000b2057600080fd5b928401925b8284101562000b405783518252928401929084019062000b25565b979650505050505050565b60805160a05160c05160e05161010051610120516101405161016051610180516101a0516101c051614d3f62000cce6000396000818161043a0152612c3601526000818161048e015281816115730152612e1201526000818161064601528181610b0501528181610ddd01528181610ee701528181611024015281816111430152818161123701528181611636015281816116d90152818161191a01528181611a4401528181611acf01528181611bc701528181611f0601528181611fb50152818161240901528181612882015281816128d101528181612eef01528181612f9001528181613011015281816130b901528181613189015281816133260152818161389001526139eb015260006124fd0152600061254c0152600061252701526000612480015260006124aa015260006124d40152600081816107a901528181610be70152611e140152600081816103e601528181610bbb01528181610c640152818161154a01528181611de801528181611e910152612de90152614d3f6000f3fe6080604052600436106102885760003560e01c806394c5c5ca1161015a578063c41c2f24116100c1578063d46cf1711161007a578063d46cf1711461086b578063da9ee8b71461088b578063df487e261461089e578063e8a3d485146108be578063e985e9c5146108d3578063f2fde38b1461091c57600080fd5b8063c41c2f2414610797578063c87b56dd146107cb578063ca323efe146107eb578063ccb4807b1461080b578063d31cc52c1461082b578063d40e71461461084b57600080fd5b8063a22cb46511610113578063a22cb465146106c8578063a51cfd18146106e8578063aa4fb15b14610717578063ab951e3914610737578063b88d4fde14610757578063c3cda5201461077757600080fd5b806394c5c5ca146105ff57806395d89b411461061f578063975057e7146106345780639ab24eb0146106685780639d927a5014610688578063a0bcfc7f146106a857600080fd5b80634bedf9a8116101fe57806370a08231116101b757806370a0823114610529578063715018a6146105495780637ecebe001461055e57806382732b6d1461057e5780638da5cb5b146105c15780638e539e8c146105df57600080fd5b80634bedf9a81461042857806354c6d1f51461045c578063557e71551461047c578063587cde1e146104b05780635c19a95c146104e95780636352211e1461050957600080fd5b80632407497e116102505780632407497e1461035e5780632b13c58f1461037e5780633644e515146103915780633a46b1a8146103b45780633fafa127146103d457806342842e0e1461040857600080fd5b806301ffc9a71461028d57806306fdde03146102c2578063081812fc146102e4578063095ea7b31461031c57806323b872dd1461033e575b600080fd5b34801561029957600080fd5b506102ad6102a8366004613e7b565b61093c565b60405190151581526020015b60405180910390f35b3480156102ce57600080fd5b506102d7610967565b6040516102b99190613ee8565b3480156102f057600080fd5b506103046102ff366004613efb565b6109f9565b6040516001600160a01b0390911681526020016102b9565b34801561032857600080fd5b5061033c610337366004613f29565b610a20565b005b34801561034a57600080fd5b5061033c610359366004613f55565b610aac565b34801561036a57600080fd5b5061033c610379366004613f96565b610ade565b61033c61038c366004613fc6565b610ba3565b34801561039d57600080fd5b506103a6610d61565b6040519081526020016102b9565b3480156103c057600080fd5b506103a66103cf366004613f29565b610d70565b3480156103e057600080fd5b506103a67f000000000000000000000000000000000000000000000000000000000000000081565b34801561041457600080fd5b5061033c610423366004613f55565b610d99565b34801561043457600080fd5b506103047f000000000000000000000000000000000000000000000000000000000000000081565b34801561046857600080fd5b50610304610477366004613efb565b610db4565b34801561048857600080fd5b506103047f000000000000000000000000000000000000000000000000000000000000000081565b3480156104bc57600080fd5b506103046104cb366004613f96565b6001600160a01b039081166000908152600560205260409020541690565b3480156104f557600080fd5b5061033c610504366004613f96565b610e7c565b34801561051557600080fd5b50610304610524366004613efb565b610e89565b34801561053557600080fd5b506103a6610544366004613f96565b610ebf565b34801561055557600080fd5b5061033c610f55565b34801561056a57600080fd5b506103a6610579366004613f96565b610f69565b34801561058a57600080fd5b50610304610599366004613f29565b6001600160a01b039182166000908152600a6020908152604080832093835292905220541690565b3480156105cd57600080fd5b506009546001600160a01b0316610304565b3480156105eb57600080fd5b506103a66105fa366004613efb565b610f87565b34801561060b57600080fd5b506103a661061a366004613efb565b610fb4565b34801561062b57600080fd5b506102d7610fcb565b34801561064057600080fd5b506103047f000000000000000000000000000000000000000000000000000000000000000081565b34801561067457600080fd5b506103a6610683366004613f96565b610fda565b34801561069457600080fd5b5061033c6106a3366004613ffa565b610ffb565b3480156106b457600080fd5b5061033c6106c3366004614195565b611218565b3480156106d457600080fd5b5061033c6106e33660046141eb565b6112e3565b3480156106f457600080fd5b50610708610703366004613fc6565b6112f2565b6040516102b993929190614224565b34801561072357600080fd5b5061033c610732366004614296565b61153b565b34801561074357600080fd5b5061033c610752366004613f29565b6117c2565b34801561076357600080fd5b5061033c6107723660046142b8565b6117cd565b34801561078357600080fd5b5061033c610792366004614337565b611800565b3480156107a357600080fd5b506103047f000000000000000000000000000000000000000000000000000000000000000081565b3480156107d757600080fd5b506102d76107e6366004613efb565b6118cf565b3480156107f757600080fd5b506103a6610806366004613f29565b611b7c565b34801561081757600080fd5b5061033c610826366004614399565b611ba8565b34801561083757600080fd5b506103a6610846366004614296565b611c7e565b34801561085757600080fd5b506103a661086636600461440a565b611cb8565b34801561087757600080fd5b5061070861088636600461443f565b611ced565b61033c61089936600461447a565b611dd0565b3480156108aa57600080fd5b5061033c6108b9366004613f96565b611edf565b3480156108ca57600080fd5b506102d7611f9d565b3480156108df57600080fd5b506102ad6108ee3660046144b5565b6001600160a01b03918216600090815260046020908152604080832093909416825291909152205460ff1690565b34801561092857600080fd5b5061033c610937366004613f96565b61202c565b60006001600160e01b0319821663ad30154d60e01b14806109615750610961826120a7565b92915050565b606060008054610976906144e3565b80601f01602080910402602001604051908101604052809291908181526020018280546109a2906144e3565b80156109ef5780601f106109c4576101008083540402835291602001916109ef565b820191906000526020600020905b8154815290600101906020018083116109d257829003601f168201915b5050505050905090565b6000610a048261211d565b506000908152600360205260409020546001600160a01b031690565b6000610a2b82610e89565b9050806001600160a01b0316836001600160a01b031603610a5f5760405163133f8be960e01b815260040160405180910390fd5b336001600160a01b03821614801590610a7f5750610a7d81336108ee565b155b15610a9d5760405163e5fa0e3560e01b815260040160405180910390fd5b610aa78383612152565b505050565b610ab633826121c0565b610ad35760405163e5fa0e3560e01b815260040160405180910390fd5b610aa783838361223e565b610ae6612317565b60405163036129cb60e61b81526001600160a01b0382811660048301527f0000000000000000000000000000000000000000000000000000000000000000169063d84a72c090602401600060405180830381600087803b158015610b4957600080fd5b505af1158015610b5d573d6000803e3d6000fd5b50506040513381526001600160a01b03841692507fe7784d93cfbfa4408e19577e6cc0436f4dbb51214b70e100905dfce9def88c1691506020015b60405180910390a250565b34151580610c5c5750604051636e49181f60e01b81527f000000000000000000000000000000000000000000000000000000000000000060048201523360248201527f00000000000000000000000000000000000000000000000000000000000000006001600160a01b031690636e49181f90604401602060405180830381865afa158015610c36573d6000803e3d6000fd5b505050506040513d601f19601f82011682018060405250810190610c5a9190614517565b155b80610c8b57507f0000000000000000000000000000000000000000000000000000000000000000816020013514155b15610ca957604051633efca5c360e11b815260040160405180910390fd5b6000610cb96101c0830183614534565b810190610cc6919061459d565b80519091506000805b82811015610d5157838181518110610ce957610ce961462d565b60200260200101519150846000016020810190610d069190613f96565b6000838152600260205260409020546001600160a01b03908116911614610d405760405163075fd2b160e01b815260040160405180910390fd5b610d4982612371565b600101610ccf565b50610d5b836123f2565b50505050565b6000610d6b612473565b905090565b6001600160a01b0382166000908152600660205260408120610d92908361259a565b9392505050565b610aa7838383604051806020016040528060008152506117cd565b6040516308ed6c0160e41b81523060048201526024810182905260009081906001600160a01b037f00000000000000000000000000000000000000000000000000000000000000001690638ed6c01090604401602060405180830381865afa158015610e24573d6000803e3d6000fd5b505050506040513d601f19601f82011682018060405250810190610e489190614653565b90506001600160a01b03811615610e5f5792915050565b50506000908152600260205260409020546001600160a01b031690565b610e8633826126a9565b50565b6000818152600260205260408120546001600160a01b0316806109615760405163b49aa3b560e01b815260040160405180910390fd5b604051633de222bb60e21b81523060048201526001600160a01b0382811660248301526000917f00000000000000000000000000000000000000000000000000000000000000009091169063f7888aec906044015b602060405180830381865afa158015610f31573d6000803e3d6000fd5b505050506040513d601f19601f820116820180604052508101906109619190614670565b610f5d612317565b610f67600061271b565b565b6001600160a01b038116600090815260086020526040812054610961565b6000438210610fa9576040516305b5e09b60e51b815260040160405180910390fd5b61096160078361259a565b6000818152600c602052604081206109619061276d565b606060018054610976906144e3565b6001600160a01b03811660009081526006602052604081206109619061276d565b611003612317565b828015611125576040516309d865d560e21b81526000906001600160a01b037f0000000000000000000000000000000000000000000000000000000000000000169063276197549061105b90899089906004016146f6565b6000604051808303816000875af115801561107a573d6000803e3d6000fd5b505050506040513d6000823e601f3d908101601f191682016040526110a29190810190614795565b905060005b82811015611122578181815181106110c1576110c161462d565b60200260200101517ff2f59fef50c01641d6562b4ceb2f10dbbea88250f8d4fb2f77f42d397b00210c8888848181106110fc576110fc61462d565b90506101000201336040516111129291906147c9565b60405180910390a26001016110a7565b50505b818015611210576040516320512ba160e01b81526001600160a01b037f000000000000000000000000000000000000000000000000000000000000000016906320512ba19061117a90879087906004016147f1565b600060405180830381600087803b15801561119457600080fd5b505af11580156111a8573d6000803e3d6000fd5b5050505060005b8181101561120e578484828181106111c9576111c961462d565b60405133815260209182029390930135927f832d89d991be5351d793c20faf4b7dd44f8aa9ce39e3cb160c6317de6fbba72992500160405180910390a26001016111af565b505b505050505050565b611220612317565b6040516331315e5960e11b81526001600160a01b037f00000000000000000000000000000000000000000000000000000000000000001690636262bcb29061126c908490600401613ee8565b600060405180830381600087803b15801561128657600080fd5b505af115801561129a573d6000803e3d6000fd5b50505050806040516112ac919061482a565b604051908190038120338252907f7bc9110d5de090dd59e07912d2b93a5a27ac70a60c8d8e324db4f9ee8b8b5c1390602001610b98565b6112ee3383836127c9565b5050565b6040805160018082528183019092526000916060918291816020015b604080518082019091526000808252602082015281526020019060019003908161130e5790505090506040518060400160405280306001600160a01b031681526020016000815250816000815181106113695761136961462d565b602090810291909101015260808401351561139757604051637b52876960e01b815260040160405180910390fd5b8361018001356000036113fc5760006113b46101a0860186614534565b8382828080601f016020809104026020016040519081016040528093929190818152602001838380828437600092019190915250969950919750919550611534945050505050565b600061142161140f6101c0870187614534565b81019061141c919061459d565b612868565b9050600061142d6128b9565b905060006114408760c001358484612944565b9050612710876101800135036114aa578061145f6101a0890189614534565b8682828080601f016020809104026020016040519081016040528093929190818152602001838380828437600092019190915250969c50919a50919850611534975050505050505050565b6114e0816114c9856114c36101808c013561271061485c565b86612944565b6114d8906101808b013561486f565b612710612944565b6114ee6101a0890189614534565b8682828080601f016020809104026020016040519081016040528093929190818152602001838380828437600092019190915250969c50919a5091985050505050505050505b9193909250565b6040516321d1336160e11b81527f000000000000000000000000000000000000000000000000000000000000000060048201526000907f00000000000000000000000000000000000000000000000000000000000000006001600160a01b0316906343a266c29060240161012060405180830381865afa1580156115c3573d6000803e3d6000fd5b505050506040513d601f19601f820116820180604052508101906115e79190614882565b61010081015190915060f51c60019081160361161657604051631d2c125760e31b815260040160405180910390fd5b604051635d53f40760e11b815260048101849052602481018390526000907f00000000000000000000000000000000000000000000000000000000000000006001600160a01b03169063baa7e80e906044016000604051808303816000875af1158015611687573d6000803e3d6000fd5b505050506040513d6000823e601f3d908101601f191682016040526116af9190810190614795565b6040516304db994760e21b8152306004820152602481018690529091506000906001600160a01b037f0000000000000000000000000000000000000000000000000000000000000000169063136e651c90604401602060405180830381865afa158015611720573d6000803e3d6000fd5b505050506040513d601f19601f820116820180604052508101906117449190614653565b90506000805b8581101561120e578381815181106117645761176461462d565b602002602001015191506117788383612a11565b6040513381526001600160a01b03841690889084907f031e1988c95a91ec4d655ff63a8f87a80bc9daf28d95ae10ee08c0022cfb5c8b9060200160405180910390a460010161174a565b6112ee338383612adb565b6117d733836121c0565b6117f45760405163e5fa0e3560e01b815260040160405180910390fd5b610d5b84848484612b5a565b8342111561182157604051631931982760e01b815260040160405180910390fd5b604080517fe48329057bfd03d55e49b547132e39cffd9c1820ad7b9d4c5307691425d15adf60208201526001600160a01b03881691810191909152606081018690526080810185905260009061189b906118939060a00160405160208183030381529060405280519060200120612b8e565b858585612bdc565b90506118a681612c04565b86146118c557604051637fcce2a960e01b815260040160405180910390fd5b61120e81886126a9565b6000818152600260205260409020546060906001600160a01b031661190257505060408051602081019091526000815290565b604051630fab094760e01b81523060048201526000907f00000000000000000000000000000000000000000000000000000000000000006001600160a01b031690630fab094790602401602060405180830381865afa158015611969573d6000803e3d6000fd5b505050506040513d601f19601f8201168201806040525081019061198d9190614653565b90506001600160a01b03811615611a0b57604051636d02a25560e11b8152600481018490526001600160a01b0382169063da0544aa90602401600060405180830381865afa1580156119e3573d6000803e3d6000fd5b505050506040513d6000823e601f3d908101601f19168201604052610d929190810190614902565b60405163f682eeaf60e01b815230600482015273__$2e464bbf4a8803569df10b07372aceee57$__9063030cecc7906001600160a01b037f0000000000000000000000000000000000000000000000000000000000000000169063f682eeaf90602401600060405180830381865afa158015611a8b573d6000803e3d6000fd5b505050506040513d6000823e601f3d908101601f19168201604052611ab39190810190614902565b604051630c8df17160e41b8152306004820152602481018790527f00000000000000000000000000000000000000000000000000000000000000006001600160a01b03169063c8df171090604401602060405180830381865afa158015611b1e573d6000803e3d6000fd5b505050506040513d601f19601f82011682018060405250810190611b429190614670565b6040518363ffffffff1660e01b8152600401611b5f929190614978565b600060405180830381865af41580156119e3573d6000803e3d6000fd5b6001600160a01b0382166000908152600b602090815260408083208484529091528120610d929061276d565b611bb0612317565b60405163d67b78fd60e01b81526001600160a01b037f0000000000000000000000000000000000000000000000000000000000000000169063d67b78fd90611bfe908590859060040161499a565b600060405180830381600087803b158015611c1857600080fd5b505af1158015611c2c573d6000803e3d6000fd5b505050508181604051611c409291906149c9565b604051908190038120338252907fd36dc0c1a06103fdcaf15f3f6fb797d1a97997514c78de073640c8b5005454b89060200160405180910390a25050565b6000438210611ca0576040516305b5e09b60e51b815260040160405180910390fd5b6000838152600c60205260409020610d92908361259a565b6001600160a01b0383166000908152600b602090815260408083208584529091528120611ce5908361259a565b949350505050565b610120810135606080611d04610160850185614534565b8080601f01602080910402602001604051908101604052809392919081815260200183838082843760009201919091525092945060019250611d44915050565b604051908082528060200260200182016040528015611d8957816020015b6040805180820190915260008082526020820152815260200190600190039081611d625790505b5090506040518060400160405280306001600160a01b03168152602001600081525081600081518110611dbe57611dbe61462d565b60200260200101819052509193909250565b34151580611e895750604051636e49181f60e01b81527f000000000000000000000000000000000000000000000000000000000000000060048201523360248201527f00000000000000000000000000000000000000000000000000000000000000006001600160a01b031690636e49181f90604401602060405180830381865afa158015611e63573d6000803e3d6000fd5b505050506040513d601f19601f82011682018060405250810190611e879190614517565b155b80611eb857507f0000000000000000000000000000000000000000000000000000000000000000816020013514155b15611ed6576040516331c57b1b60e21b815260040160405180910390fd5b610e8681612c2c565b611ee7612317565b6040516317161f7d60e01b81526001600160a01b0382811660048301527f000000000000000000000000000000000000000000000000000000000000000016906317161f7d90602401600060405180830381600087803b158015611f4a57600080fd5b505af1158015611f5e573d6000803e3d6000fd5b50506040513381526001600160a01b03841692507fab0014d4c7a642a02a31b303a318908c22b0fb2001f107278fc6076b4c671b659150602001610b98565b604051630155619b60e71b81523060048201526060907f00000000000000000000000000000000000000000000000000000000000000006001600160a01b03169063aab0cd8090602401600060405180830381865afa158015612004573d6000803e3d6000fd5b505050506040513d6000823e601f3d908101601f19168201604052610d6b9190810190614902565b612034612317565b6001600160a01b03811661209e5760405162461bcd60e51b815260206004820152602660248201527f4f776e61626c653a206e6577206f776e657220697320746865207a65726f206160448201526564647265737360d01b60648201526084015b60405180910390fd5b610e868161271b565b60006001600160e01b0319821663b3bcbb7960e01b14806120d857506001600160e01b031982166371700c6960e01b145b806120f357506001600160e01b0319821663da9ee8b760e01b145b8061210e57506001600160e01b03198216632b13c58f60e01b145b80610961575061096182612d8a565b6000818152600260205260409020546001600160a01b0316610e865760405163b49aa3b560e01b815260040160405180910390fd5b600081815260036020526040902080546001600160a01b0319166001600160a01b038416908117909155819061218782610e89565b6001600160a01b03167f8c5be1e5ebec7d5bd14f71427d1e84f3dd0314c0f7b2291e5b200ac8c7c3b92560405160405180910390a45050565b6000806121cc83610e89565b9050806001600160a01b0316846001600160a01b0316148061221357506001600160a01b0380821660009081526004602090815260408083209388168352929052205460ff165b80611ce55750836001600160a01b031661222c846109f9565b6001600160a01b031614949350505050565b826001600160a01b031661225182610e89565b6001600160a01b0316146122785760405163a195bc5360e01b815260040160405180910390fd5b6001600160a01b03821661229f57604051632c95542760e01b815260040160405180910390fd5b6122aa838383612dda565b6122b5600082612152565b60008181526002602052604080822080546001600160a01b0319166001600160a01b0386811691821790925591518493918716917fddf252ad1be2c89b69c2b068fc378daa952ba7f163c4a11628f55a4df523b3ef91a4610aa7838383612ff2565b6009546001600160a01b03163314610f675760405162461bcd60e51b815260206004820181905260248201527f4f776e61626c653a2063616c6c6572206973206e6f7420746865206f776e65726044820152606401612095565b600061237c82610e89565b905061238a81600084612dda565b612395600083612152565b60008281526002602052604080822080546001600160a01b0319169055518391906001600160a01b038416907fddf252ad1be2c89b69c2b068fc378daa952ba7f163c4a11628f55a4df523b3ef908390a46112ee81600084612ff2565b6040516386bc2be360e01b81526001600160a01b037f000000000000000000000000000000000000000000000000000000000000000016906386bc2be39061243e908490600401614a14565b600060405180830381600087803b15801561245857600080fd5b505af115801561246c573d6000803e3d6000fd5b5050505050565b6000306001600160a01b037f0000000000000000000000000000000000000000000000000000000000000000161480156124cc57507f000000000000000000000000000000000000000000000000000000000000000046145b156124f657507f000000000000000000000000000000000000000000000000000000000000000090565b50604080517f00000000000000000000000000000000000000000000000000000000000000006020808301919091527f0000000000000000000000000000000000000000000000000000000000000000828401527f000000000000000000000000000000000000000000000000000000000000000060608301524660808301523060a0808401919091528351808403909101815260c0909201909252805191012090565b60004382106125eb5760405162461bcd60e51b815260206004820181905260248201527f436865636b706f696e74733a20626c6f636b206e6f7420796574206d696e65646044820152606401612095565b825460005b818110156126505760006126048284613146565b90508486600001828154811061261c5761261c61462d565b60009182526020909120015463ffffffff16111561263c5780925061264a565b61264781600161486f565b91505b506125f0565b8115612694578461266260018461485c565b815481106126725761267261462d565b60009182526020909120015464010000000090046001600160e01b0316612697565b60005b6001600160e01b031695945050505050565b6001600160a01b0382811660008181526005602052604080822080548686166001600160a01b0319821681179092559151919094169392849290917f3134e8a2e6d97e929a7e54011ea5485d7d196dd5f0ba4d4ef95803e8e3fc257f9190a4610aa7818361271686613161565b6131ba565b600980546001600160a01b038381166001600160a01b0319831681179093556040519116919082907f8be0079c531659141344cd1fd0a4f28419497f9722a3daafe3b4186f6b6457e090600090a35050565b805460009080156127b6578261278460018361485c565b815481106127945761279461462d565b60009182526020909120015464010000000090046001600160e01b03166127b9565b60005b6001600160e01b03169392505050565b816001600160a01b0316836001600160a01b0316036127fb576040516306f8139d60e11b815260040160405180910390fd5b6001600160a01b03838116600081815260046020908152604080832094871680845294825291829020805460ff191686151590811790915591519182527f17307eab39ab6107e8899845ad3d59bd9653f200f220920489ca2b5937696c31910160405180910390a3505050565b60405163051330b560e21b81526000906001600160a01b037f0000000000000000000000000000000000000000000000000000000000000000169063144cc2d490610f149030908690600401614a27565b604051631572f24960e11b81523060048201526000907f00000000000000000000000000000000000000000000000000000000000000006001600160a01b031690632ae5e49290602401602060405180830381865afa158015612920573d6000803e3d6000fd5b505050506040513d601f19601f82011682018060405250810190610d6b9190614670565b600080806000198587098587029250828110838203039150508060000361297e5783828161297457612974614a4b565b0492505050610d92565b8381106129a857604051631dcf306360e21b81526004810182905260248101859052604401612095565b60008486880960026001871981018816978890046003810283188082028403028082028403028082028403028082028403028082028403029081029092039091026000889003889004909101858311909403939093029303949094049190911702949350505050565b6001600160a01b038216612a3857604051633904578f60e11b815260040160405180910390fd5b6000818152600260205260409020546001600160a01b031615612a6e57604051632eb5f0c360e21b815260040160405180910390fd5b612a7a60008383612dda565b60008181526002602052604080822080546001600160a01b0319166001600160a01b03861690811790915590518392907fddf252ad1be2c89b69c2b068fc378daa952ba7f163c4a11628f55a4df523b3ef908290a46112ee60008383612ff2565b6001600160a01b038381166000818152600a6020908152604080832086845290915280822080548786166001600160a01b0319821681179092559151919094169392849290917f3134e8a2e6d97e929a7e54011ea5485d7d196dd5f0ba4d4ef95803e8e3fc257f9190a4610d5b818484612b5588876132f7565b613393565b612b6584848461223e565b612b71848484846134e8565b610d5b576040516336f57c1b60e11b815260040160405180910390fd5b6000610961612b9b612473565b8360405161190160f01b6020820152602281018390526042810182905260009060620160405160208183030381529060405280519060200120905092915050565b6000806000612bed878787876135e7565b91509150612bfa816136d4565b5095945050505050565b6001600160a01b03811660009081526008602052604090208054600181018255905b50919050565b6001600160a01b037f000000000000000000000000000000000000000000000000000000000000000016612c666080830160608401613f96565b6001600160a01b031614612c775750565b60808101356000806024612c8f6101e0860186614534565b9050118015612cd3575063b3bcbb7960e01b612caf6101e0860186614534565b612cbe91602491602091614a61565b612cc791614a8b565b6001600160e01b031916145b15612d3b5760006060612cea6101e0870187614534565b810190612cf79190614abb565b919850965090945092505082159050612d1257505050505050565b805115612d3857612d358582612d306101a08a016101808b01613f96565b61388a565b94505b50505b8215612d6057612d5d83612d576101a087016101808801613f96565b846139e4565b92505b808015612d6c57508215155b15610d5b57604051631b57826960e21b815260040160405180910390fd5b60006001600160e01b031982166380ac58cd60e01b1480612dbb57506001600160e01b03198216635b5e139f60e01b145b8061096157506301ffc9a760e01b6001600160e01b0319831614610961565b6040516321d1336160e11b81527f000000000000000000000000000000000000000000000000000000000000000060048201526000907f00000000000000000000000000000000000000000000000000000000000000006001600160a01b0316906343a266c29060240161012060405180830381865afa158015612e62573d6000803e3d6000fd5b505050506040513d601f19601f82011682018060405250810190612e869190614882565b61010081015190915060f41c600190811603612eb5576040516318cdaf9760e01b815260040160405180910390fd5b6001600160a01b03841615801590612f6557506040516308ed6c0160e41b8152306004820152602481018390526000906001600160a01b037f00000000000000000000000000000000000000000000000000000000000000001690638ed6c01090604401602060405180830381865afa158015612f36573d6000803e3d6000fd5b505050506040513d601f19601f82011682018060405250810190612f5a9190614653565b6001600160a01b0316145b15612fed57604051638cec7d3960e01b8152600481018390526001600160a01b0385811660248301527f00000000000000000000000000000000000000000000000000000000000000001690638cec7d3990604401600060405180830381600087803b158015612fd457600080fd5b505af1158015612fe8573d6000803e3d6000fd5b505050505b610d5b565b60405163b67cb04760e01b8152306004820152602481018290526000907f00000000000000000000000000000000000000000000000000000000000000006001600160a01b03169063b67cb0479060440161012060405180830381865afa158015613061573d6000803e3d6000fd5b505050506040513d601f19601f820116820180604052508101906130859190614882565b80516040516330b157e560e21b815260048101919091526001600160a01b03868116602483015285811660448301529192507f00000000000000000000000000000000000000000000000000000000000000009091169063c2c55f9490606401600060405180830381600087803b1580156130ff57600080fd5b505af1158015613113573d6000803e3d6000fd5b505050508060a00151600014612fed5761313284848360a00151613b10565b612fed848483600001518460a00151613b80565b60006131556002848418614bb1565b610d929084841661486f565b604051631266aaaf60e31b81523060048201526001600160a01b0382811660248301526000917f000000000000000000000000000000000000000000000000000000000000000090911690639335557890604401610f14565b816001600160a01b0316836001600160a01b0316141580156131dc5750600081115b15610aa7576001600160a01b0383161561326a576001600160a01b0383166000908152600660205260408120819061321790613c2285613c2e565b91509150846001600160a01b03167fdec2bacdd2f05b59de34da9b523dff8be42e5e38e818c82fdb0bae774387a724838360405161325f929190918252602082015260400190565b60405180910390a250505b6001600160a01b03821615610aa7576001600160a01b038216600090815260066020526040812081906132a090613c5c85613c2e565b91509150836001600160a01b03167fdec2bacdd2f05b59de34da9b523dff8be42e5e38e818c82fdb0bae774387a72483836040516132e8929190918252602082015260400190565b60405180910390a25050505050565b6040516305c9a1d560e31b81523060048201526001600160a01b038381166024830152604482018390526000917f000000000000000000000000000000000000000000000000000000000000000090911690632e4d0ea890606401602060405180830381865afa15801561336f573d6000803e3d6000fd5b505050506040513d601f19601f82011682018060405250810190610d929190614670565b826001600160a01b0316846001600160a01b031614806133b1575080155b610d5b576001600160a01b0384161561344c576001600160a01b0384166000908152600b60209081526040808320858452909152812081906133f690613c2285613c2e565b60408051828152602081018890523381830152905192945090925083916001600160a01b038916917fed0c1e94c302bdbbd8bbd6a4fb7c3ed335c2292407cd816eadd075d019d0ce04919081900360600190a350505b6001600160a01b03831615610d5b576001600160a01b0383166000908152600b602090815260408083208584529091528120819061348d90613c5c85613c2e565b60408051838152602081018390523381830152905192945090925085916001600160a01b038816917fed0c1e94c302bdbbd8bbd6a4fb7c3ed335c2292407cd816eadd075d019d0ce04919081900360600190a3505050505050565b60006001600160a01b0384163b156135df57604051630a85bd0160e11b81526001600160a01b0385169063150b7a029061352c903390899088908890600401614bd3565b6020604051808303816000875af1925050508015613567575060408051601f3d908101601f1916820190925261356491810190614c10565b60015b6135c5573d808015613595576040519150601f19603f3d011682016040523d82523d6000602084013e61359a565b606091505b5080516000036135bd576040516336f57c1b60e11b815260040160405180910390fd5b805181602001fd5b6001600160e01b031916630a85bd0160e11b149050611ce5565b506001611ce5565b6000807f7fffffffffffffffffffffffffffffff5d576e7357a4501ddfe92f46681b20a083111561361e57506000905060036136cb565b8460ff16601b1415801561363657508460ff16601c14155b1561364757506000905060046136cb565b6040805160008082526020820180845289905260ff881692820192909252606081018690526080810185905260019060a0016020604051602081039080840390855afa15801561369b573d6000803e3d6000fd5b5050604051601f1901519150506001600160a01b0381166136c4576000600192509250506136cb565b9150600090505b94509492505050565b60008160048111156136e8576136e8614c2d565b036136f05750565b600181600481111561370457613704614c2d565b036137515760405162461bcd60e51b815260206004820152601860248201527f45434453413a20696e76616c6964207369676e617475726500000000000000006044820152606401612095565b600281600481111561376557613765614c2d565b036137b25760405162461bcd60e51b815260206004820152601f60248201527f45434453413a20696e76616c6964207369676e6174757265206c656e677468006044820152606401612095565b60038160048111156137c6576137c6614c2d565b0361381e5760405162461bcd60e51b815260206004820152602260248201527f45434453413a20696e76616c6964207369676e6174757265202773272076616c604482015261756560f01b6064820152608401612095565b600481600481111561383257613832614c2d565b03610e865760405162461bcd60e51b815260206004820152602260248201527f45434453413a20696e76616c6964207369676e6174757265202776272076616c604482015261756560f01b6064820152608401612095565b600060607f00000000000000000000000000000000000000000000000000000000000000006001600160a01b03166316b047de86866040518363ffffffff1660e01b81526004016138dc929190614c43565b6000604051808303816000875af11580156138fb573d6000803e3d6000fd5b505050506040513d6000823e601f3d908101601f191682016040526139239190810190614c95565b81519093509091506000805b828110156139d9578381815181106139495761394961462d565b6020026020010151915061395d8683612a11565b856001600160a01b03168782815181106139795761397961462d565b602002602001015161ffff16837f598baf7bf150ca2f42be9e9f8f55e81d45f5715c3ff22bf46d697fabec7f31d68b336040516139c99291909182526001600160a01b0316602082015260400190565b60405180910390a460010161392f565b505050509392505050565b60008060007f00000000000000000000000000000000000000000000000000000000000000006001600160a01b031663879791f3876040518263ffffffff1660e01b8152600401613a3791815260200190565b6060604051808303816000875af1158015613a56573d6000803e3d6000fd5b505050506040513d601f19601f82011682018060405250810190613a7a9190614cdb565b945090925090506000829003613ab0578315613aa957604051630e5313df60e41b815260040160405180910390fd5b5050610d92565b613aba8583612a11565b6001600160a01b03851681837f598baf7bf150ca2f42be9e9f8f55e81d45f5715c3ff22bf46d697fabec7f31d6613af1878b61485c565b604080519182523360208301520160405180910390a450509392505050565b6001600160a01b038316613b2f57613b2c6007613c5c83613c2e565b50505b6001600160a01b038216613b4e57613b4b6007613c2283613c2e565b50505b6001600160a01b03838116600090815260056020526040808220548584168352912054610aa7929182169116836131ba565b6001600160a01b038416613bac576000828152600c60205260409020613ba990613c5c83613c2e565b50505b6001600160a01b038316613bd8576000828152600c60205260409020613bd590613c2283613c2e565b50505b6001600160a01b038085166000908152600a60208181526040808420878552825280842054888616855292825280842087855290915290912054610d5b9291821691168484613393565b6000610d92828461485c565b600080613c5085613c4b613c418861276d565b868863ffffffff16565b613c68565b91509150935093915050565b6000610d92828461486f565b8154600090819081613c798661276d565b9050600082118015613cb757504386613c9360018561485c565b81548110613ca357613ca361462d565b60009182526020909120015463ffffffff16145b15613d1757613cc585613d93565b86613cd160018561485c565b81548110613ce157613ce161462d565b9060005260206000200160000160046101000a8154816001600160e01b0302191690836001600160e01b03160217905550613d85565b856000016040518060400160405280613d2f43613e00565b63ffffffff168152602001613d4388613d93565b6001600160e01b0390811690915282546001810184556000938452602093849020835194909301519091166401000000000263ffffffff909316929092179101555b9250839150505b9250929050565b60006001600160e01b03821115613dfc5760405162461bcd60e51b815260206004820152602760248201527f53616665436173743a2076616c756520646f65736e27742066697420696e20326044820152663234206269747360c81b6064820152608401612095565b5090565b600063ffffffff821115613dfc5760405162461bcd60e51b815260206004820152602660248201527f53616665436173743a2076616c756520646f65736e27742066697420696e203360448201526532206269747360d01b6064820152608401612095565b6001600160e01b031981168114610e8657600080fd5b600060208284031215613e8d57600080fd5b8135610d9281613e65565b60005b83811015613eb3578181015183820152602001613e9b565b50506000910152565b60008151808452613ed4816020860160208601613e98565b601f01601f19169290920160200192915050565b602081526000610d926020830184613ebc565b600060208284031215613f0d57600080fd5b5035919050565b6001600160a01b0381168114610e8657600080fd5b60008060408385031215613f3c57600080fd5b8235613f4781613f14565b946020939093013593505050565b600080600060608486031215613f6a57600080fd5b8335613f7581613f14565b92506020840135613f8581613f14565b929592945050506040919091013590565b600060208284031215613fa857600080fd5b8135610d9281613f14565b60006101e08284031215612c2657600080fd5b600060208284031215613fd857600080fd5b81356001600160401b03811115613fee57600080fd5b611ce584828501613fb3565b6000806000806040858703121561401057600080fd5b84356001600160401b038082111561402757600080fd5b818701915087601f83011261403b57600080fd5b81358181111561404a57600080fd5b8860208260081b850101111561405f57600080fd5b60209283019650945090860135908082111561407a57600080fd5b818701915087601f83011261408e57600080fd5b81358181111561409d57600080fd5b8860208260051b85010111156140b257600080fd5b95989497505060200194505050565b634e487b7160e01b600052604160045260246000fd5b60405161012081016001600160401b03811182821017156140fa576140fa6140c1565b60405290565b604051601f8201601f191681016001600160401b0381118282101715614128576141286140c1565b604052919050565b60006001600160401b03821115614149576141496140c1565b50601f01601f191660200190565b600061416a61416584614130565b614100565b905082815283838301111561417e57600080fd5b828260208301376000602084830101529392505050565b6000602082840312156141a757600080fd5b81356001600160401b038111156141bd57600080fd5b8201601f810184136141ce57600080fd5b611ce584823560208401614157565b8015158114610e8657600080fd5b600080604083850312156141fe57600080fd5b823561420981613f14565b91506020830135614219816141dd565b809150509250929050565b8381526000602060608184015261423e6060840186613ebc565b83810360408581019190915285518083528387019284019060005b8181101561428757845180516001600160a01b03168452860151868401529385019391830191600101614259565b50909998505050505050505050565b600080604083850312156142a957600080fd5b50508035926020909101359150565b600080600080608085870312156142ce57600080fd5b84356142d981613f14565b935060208501356142e981613f14565b92506040850135915060608501356001600160401b0381111561430b57600080fd5b8501601f8101871361431c57600080fd5b61432b87823560208401614157565b91505092959194509250565b60008060008060008060c0878903121561435057600080fd5b863561435b81613f14565b95506020870135945060408701359350606087013560ff8116811461437f57600080fd5b9598949750929560808101359460a0909101359350915050565b600080602083850312156143ac57600080fd5b82356001600160401b03808211156143c357600080fd5b818501915085601f8301126143d757600080fd5b8135818111156143e657600080fd5b8660208285010111156143f857600080fd5b60209290920196919550909350505050565b60008060006060848603121561441f57600080fd5b833561442a81613f14565b95602085013595506040909401359392505050565b60006020828403121561445157600080fd5b81356001600160401b0381111561446757600080fd5b82016101a08185031215610d9257600080fd5b60006020828403121561448c57600080fd5b81356001600160401b038111156144a257600080fd5b82016102008185031215610d9257600080fd5b600080604083850312156144c857600080fd5b82356144d381613f14565b9150602083013561421981613f14565b600181811c908216806144f757607f821691505b602082108103612c2657634e487b7160e01b600052602260045260246000fd5b60006020828403121561452957600080fd5b8151610d92816141dd565b6000808335601e1984360301811261454b57600080fd5b8301803591506001600160401b0382111561456557600080fd5b602001915036819003821315613d8c57600080fd5b60006001600160401b03821115614593576145936140c1565b5060051b60200190565b600060208083850312156145b057600080fd5b82356001600160401b038111156145c657600080fd5b8301601f810185136145d757600080fd5b80356145e56141658261457a565b81815260059190911b8201830190838101908783111561460457600080fd5b928401925b8284101561462257833582529284019290840190614609565b979650505050505050565b634e487b7160e01b600052603260045260246000fd5b805161464e81613f14565b919050565b60006020828403121561466557600080fd5b8151610d9281613f14565b60006020828403121561468257600080fd5b5051919050565b803582526020810135602083015260408101356040830152606081013560608301526080810135608083015260a08101356146c381613f14565b6001600160a01b031660a083015260c0818101359083015260e08101356146e9816141dd565b80151560e0840152505050565b6020808252810182905260008360408301825b85811015612bfa5761471b8284614689565b610100928301929190910190600101614709565b600082601f83011261474057600080fd5b815160206147506141658361457a565b82815260059290921b8401810191818101908684111561476f57600080fd5b8286015b8481101561478a5780518352918301918301614773565b509695505050505050565b6000602082840312156147a757600080fd5b81516001600160401b038111156147bd57600080fd5b611ce58482850161472f565b61012081016147d88285614689565b6001600160a01b03929092166101009190910152919050565b6020808252810182905260006001600160fb1b0383111561481157600080fd5b8260051b80856040850137919091016040019392505050565b6000825161483c818460208701613e98565b9190910192915050565b634e487b7160e01b600052601160045260246000fd5b8181038181111561096157610961614846565b8082018082111561096157610961614846565b6000610120828403121561489557600080fd5b61489d6140d7565b825181526020830151602082015260408301516040820152606083015160608201526080830151608082015260a083015160a082015260c083015160c08201526148e960e08401614643565b60e0820152610100928301519281019290925250919050565b60006020828403121561491457600080fd5b81516001600160401b0381111561492a57600080fd5b8201601f8101841361493b57600080fd5b805161494961416582614130565b81815285602083850101111561495e57600080fd5b61496f826020830160208601613e98565b95945050505050565b60408152600061498b6040830185613ebc565b90508260208301529392505050565b60208152816020820152818360408301376000818301604090810191909152601f909201601f19160101919050565b8183823760009101908152919050565b600081518084526020808501945080840160005b83811015614a09578151875295820195908201906001016149ed565b509495945050505050565b602081526000610d9260208301846149d9565b6001600160a01b0383168152604060208201819052600090611ce5908301846149d9565b634e487b7160e01b600052601260045260246000fd5b60008085851115614a7157600080fd5b83861115614a7e57600080fd5b5050820193919092039150565b6001600160e01b03198135818116916004851015614ab35780818660040360031b1b83161692505b505092915050565b60008060008060008060c08789031215614ad457600080fd5b86359550602080880135614ae781613e65565b95506040880135614af7816141dd565b94506060880135614b07816141dd565b93506080880135614b17816141dd565b925060a08801356001600160401b03811115614b3257600080fd5b8801601f81018a13614b4357600080fd5b8035614b516141658261457a565b81815260059190911b8201830190838101908c831115614b7057600080fd5b928401925b82841015614b9f57833561ffff81168114614b905760008081fd5b82529284019290840190614b75565b80955050505050509295509295509295565b600082614bce57634e487b7160e01b600052601260045260246000fd5b500490565b6001600160a01b0385811682528416602082015260408101839052608060608201819052600090614c0690830184613ebc565b9695505050505050565b600060208284031215614c2257600080fd5b8151610d9281613e65565b634e487b7160e01b600052602160045260246000fd5b6000604082018483526020604081850152818551808452606086019150828701935060005b81811015614c8857845161ffff1683529383019391830191600101614c68565b5090979650505050505050565b60008060408385031215614ca857600080fd5b82516001600160401b03811115614cbe57600080fd5b614cca8582860161472f565b925050602083015190509250929050565b600080600060608486031215614cf057600080fd5b835192506020840151915060408401519050925092509256fea2646970667358221220053108041bf1a26d2daee6e22a38f8eb7724cf12be65bccaca9467ec750df0a464736f6c63430008100033",
    "linkReferences": {
      "contracts/libraries/JBIpfsDecoder.sol": {
        "JBIpfsDecoder": [
          {
            "start": 9966,
            "length": 20
          }
        ]
      }
    }
  },
  "methodIdentifiers": {
    "DOMAIN_SEPARATOR()": "3644e515",
    "adjustTiers((uint256,uint256,uint256,uint256,uint256,address,bytes32,bool)[],uint256[])": "9d927a50",
    "approve(address,uint256)": "095ea7b3",
    "balanceOf(address)": "70a08231",
    "contractURI()": "e8a3d485",
    "contributionToken()": "4bedf9a8",
    "delegate(address)": "5c19a95c",
    "delegateBySig(address,uint256,uint256,uint8,bytes32,bytes32)": "c3cda520",
    "delegates(address)": "587cde1e",
    "didPay((address,uint256,uint256,(address,uint256,uint256,uint256),(address,uint256,uint256,uint256),uint256,address,bool,string,bytes))": "da9ee8b7",
    "didRedeem((address,uint256,uint256,uint256,(address,uint256,uint256,uint256),(address,uint256,uint256,uint256),address,string,bytes))": "2b13c58f",
    "directory()": "c41c2f24",
    "firstOwnerOf(uint256)": "54c6d1f5",
    "fundingCycleStore()": "557e7155",
    "getApproved(uint256)": "081812fc",
    "getPastTierTotalVotes(uint256,uint256)": "d31cc52c",
    "getPastTierVotes(address,uint256,uint256)": "d40e7146",
    "getPastTotalSupply(uint256)": "8e539e8c",
    "getPastVotes(address,uint256)": "3a46b1a8",
    "getTierDelegate(address,uint256)": "82732b6d",
    "getTierTotalVotes(uint256)": "94c5c5ca",
    "getTierVotes(address,uint256)": "ca323efe",
    "getVotes(address)": "9ab24eb0",
    "isApprovedForAll(address,address)": "e985e9c5",
    "mintReservesFor(uint256,uint256)": "aa4fb15b",
    "name()": "06fdde03",
    "nonces(address)": "7ecebe00",
    "owner()": "8da5cb5b",
    "ownerOf(uint256)": "6352211e",
    "payParams((address,address,(address,uint256,uint256,uint256),uint256,uint256,address,uint256,uint256,string,bytes))": "d46cf171",
    "projectId()": "3fafa127",
    "redeemParams((address,address,uint256,uint256,uint256,uint256,uint256,(address,uint256,uint256,uint256),bool,uint256,string,bytes))": "a51cfd18",
    "renounceOwnership()": "715018a6",
    "safeTransferFrom(address,address,uint256)": "42842e0e",
    "safeTransferFrom(address,address,uint256,bytes)": "b88d4fde",
    "setApprovalForAll(address,bool)": "a22cb465",
    "setBaseUri(string)": "a0bcfc7f",
    "setContractUri(string)": "ccb4807b",
    "setDefaultReservedTokenBeneficiary(address)": "df487e26",
    "setTierDelegate(address,uint256)": "ab951e39",
    "setTokenUriResolver(address)": "2407497e",
    "store()": "975057e7",
    "supportsInterface(bytes4)": "01ffc9a7",
    "symbol()": "95d89b41",
    "tokenURI(uint256)": "c87b56dd",
    "transferFrom(address,address,uint256)": "23b872dd",
    "transferOwnership(address)": "f2fde38b"
  },
  "id": 0
}