{
  "abi": [
    {
      "inputs": [
        {
          "internalType": "uint256",
          "name": "_projectId",
          "type": "uint256"
        },
        {
          "internalType": "contract IJBDirectory",
          "name": "_directory",
          "type": "address"
        },
        {
          "internalType": "string",
          "name": "_name",
          "type": "string"
        },
        {
          "internalType": "string",
          "name": "_symbol",
          "type": "string"
        },
        {
          "internalType": "contract IJBFundingCycleStore",
          "name": "_fundingCycleStore",
          "type": "address"
        },
        {
          "internalType": "string",
          "name": "_baseUri",
          "type": "string"
        },
        {
          "internalType": "contract IJBTokenUriResolver",
          "name": "_tokenUriResolver",
          "type": "address"
        },
        {
          "internalType": "string",
          "name": "_contractUri",
          "type": "string"
        },
        {
          "components": [
            {
              "internalType": "uint256",
              "name": "contributionFloor",
              "type": "uint256"
            },
            {
              "internalType": "uint256",
              "name": "lockedUntil",
              "type": "uint256"
            },
            {
              "internalType": "uint256",
              "name": "initialQuantity",
              "type": "uint256"
            },
            {
              "internalType": "uint256",
              "name": "votingUnits",
              "type": "uint256"
            },
            {
              "internalType": "uint256",
              "name": "reservedRate",
              "type": "uint256"
            },
            {
              "internalType": "address",
              "name": "reservedTokenBeneficiary",
              "type": "address"
            },
            {
              "internalType": "bytes32",
              "name": "encodedIPFSUri",
              "type": "bytes32"
            },
            {
              "internalType": "bool",
              "name": "shouldUseBeneficiaryAsDefault",
              "type": "bool"
            }
          ],
          "internalType": "struct JB721TierParams[]",
          "name": "_tiers",
          "type": "tuple[]"
        },
        {
          "internalType": "contract IJBTiered721DelegateStore",
          "name": "_store",
          "type": "address"
        },
        {
          "components": [
            {
              "internalType": "bool",
              "name": "lockReservedTokenChanges",
              "type": "bool"
            },
            {
              "internalType": "bool",
              "name": "lockVotingUnitChanges",
              "type": "bool"
            }
          ],
          "internalType": "struct JBTiered721Flags",
          "name": "_flags",
          "type": "tuple"
        }
      ],
      "stateMutability": "nonpayable",
      "type": "constructor"
    },
    {
      "inputs": [],
      "name": "ALEADY_MINTED",
      "type": "error"
    },
    {
      "inputs": [],
      "name": "APPROVAL_TO_CURRENT_OWNER",
      "type": "error"
    },
    {
      "inputs": [],
      "name": "APPROVE_TO_CALLER",
      "type": "error"
    },
    {
      "inputs": [],
      "name": "BLOCK_NOT_YET_MINED",
      "type": "error"
    },
    {
      "inputs": [],
      "name": "CALLER_NOT_OWNER_OR_APPROVED",
      "type": "error"
    },
    {
      "inputs": [],
      "name": "INCORRECT_OWNER",
      "type": "error"
    },
    {
      "inputs": [],
      "name": "INVALID",
      "type": "error"
    },
    {
      "inputs": [],
      "name": "INVALID_PAYMENT_EVENT",
      "type": "error"
    },
    {
      "inputs": [],
      "name": "INVALID_REDEMPTION_EVENT",
      "type": "error"
    },
    {
      "inputs": [],
      "name": "INVALID_TOKEN_ID",
      "type": "error"
    },
    {
      "inputs": [],
      "name": "MINT_TO_ZERO",
      "type": "error"
    },
    {
      "inputs": [],
      "name": "NOT_AVAILABLE",
      "type": "error"
    },
    {
      "inputs": [],
      "name": "OVERSPENDING",
      "type": "error"
    },
    {
      "inputs": [
        {
          "internalType": "uint256",
          "name": "prod1",
          "type": "uint256"
        },
        {
          "internalType": "uint256",
          "name": "denominator",
          "type": "uint256"
        }
      ],
      "name": "PRBMath__MulDivOverflow",
      "type": "error"
    },
    {
      "inputs": [],
      "name": "RESERVED_TOKEN_MINTING_PAUSED",
      "type": "error"
    },
    {
      "inputs": [],
      "name": "SIGNATURE_EXPIRED",
      "type": "error"
    },
    {
      "inputs": [],
      "name": "TRANSFERS_PAUSED",
      "type": "error"
    },
    {
      "inputs": [],
      "name": "TRANSFER_TO_NON_IMPLEMENTER",
      "type": "error"
    },
    {
      "inputs": [],
      "name": "TRANSFER_TO_ZERO_ADDRESS",
      "type": "error"
    },
    {
      "inputs": [],
      "name": "UNAUTHORIZED",
      "type": "error"
    },
    {
      "inputs": [],
      "name": "UNEXPECTED_TOKEN_REDEEMED",
      "type": "error"
    },
    {
      "anonymous": false,
      "inputs": [
        {
          "indexed": true,
          "internalType": "uint256",
          "name": "tierId",
          "type": "uint256"
        },
        {
          "components": [
            {
              "internalType": "uint256",
              "name": "contributionFloor",
              "type": "uint256"
            },
            {
              "internalType": "uint256",
              "name": "lockedUntil",
              "type": "uint256"
            },
            {
              "internalType": "uint256",
              "name": "initialQuantity",
              "type": "uint256"
            },
            {
              "internalType": "uint256",
              "name": "votingUnits",
              "type": "uint256"
            },
            {
              "internalType": "uint256",
              "name": "reservedRate",
              "type": "uint256"
            },
            {
              "internalType": "address",
              "name": "reservedTokenBeneficiary",
              "type": "address"
            },
            {
              "internalType": "bytes32",
              "name": "encodedIPFSUri",
              "type": "bytes32"
            },
            {
              "internalType": "bool",
              "name": "shouldUseBeneficiaryAsDefault",
              "type": "bool"
            }
          ],
          "indexed": false,
          "internalType": "struct JB721TierParams",
          "name": "data",
          "type": "tuple"
        },
        {
          "indexed": false,
          "internalType": "address",
          "name": "caller",
          "type": "address"
        }
      ],
      "name": "AddTier",
      "type": "event"
    },
    {
      "anonymous": false,
      "inputs": [
        {
          "indexed": true,
          "internalType": "address",
          "name": "owner",
          "type": "address"
        },
        {
          "indexed": true,
          "internalType": "address",
          "name": "approved",
          "type": "address"
        },
        {
          "indexed": true,
          "internalType": "uint256",
          "name": "tokenId",
          "type": "uint256"
        }
      ],
      "name": "Approval",
      "type": "event"
    },
    {
      "anonymous": false,
      "inputs": [
        {
          "indexed": true,
          "internalType": "address",
          "name": "owner",
          "type": "address"
        },
        {
          "indexed": true,
          "internalType": "address",
          "name": "operator",
          "type": "address"
        },
        {
          "indexed": false,
          "internalType": "bool",
          "name": "approved",
          "type": "bool"
        }
      ],
      "name": "ApprovalForAll",
      "type": "event"
    },
    {
      "anonymous": false,
      "inputs": [
        {
          "indexed": true,
          "internalType": "address",
          "name": "delegator",
          "type": "address"
        },
        {
          "indexed": true,
          "internalType": "address",
          "name": "fromDelegate",
          "type": "address"
        },
        {
          "indexed": true,
          "internalType": "address",
          "name": "toDelegate",
          "type": "address"
        }
      ],
      "name": "DelegateChanged",
      "type": "event"
    },
    {
      "anonymous": false,
      "inputs": [
        {
          "indexed": true,
          "internalType": "address",
          "name": "delegate",
          "type": "address"
        },
        {
          "indexed": false,
          "internalType": "uint256",
          "name": "previousBalance",
          "type": "uint256"
        },
        {
          "indexed": false,
          "internalType": "uint256",
          "name": "newBalance",
          "type": "uint256"
        }
      ],
      "name": "DelegateVotesChanged",
      "type": "event"
    },
    {
      "anonymous": false,
      "inputs": [
        {
          "indexed": true,
          "internalType": "uint256",
          "name": "tokenId",
          "type": "uint256"
        },
        {
          "indexed": true,
          "internalType": "uint256",
          "name": "tierId",
          "type": "uint256"
        },
        {
          "indexed": true,
          "internalType": "address",
          "name": "beneficiary",
          "type": "address"
        },
        {
          "indexed": false,
          "internalType": "uint256",
          "name": "totalAmountContributed",
          "type": "uint256"
        },
        {
          "indexed": false,
          "internalType": "address",
          "name": "caller",
          "type": "address"
        }
      ],
      "name": "Mint",
      "type": "event"
    },
    {
      "anonymous": false,
      "inputs": [
        {
          "indexed": true,
          "internalType": "uint256",
          "name": "tokenId",
          "type": "uint256"
        },
        {
          "indexed": true,
          "internalType": "uint256",
          "name": "tierId",
          "type": "uint256"
        },
        {
          "indexed": true,
          "internalType": "address",
          "name": "beneficiary",
          "type": "address"
        },
        {
          "indexed": false,
          "internalType": "address",
          "name": "caller",
          "type": "address"
        }
      ],
      "name": "MintReservedToken",
      "type": "event"
    },
    {
      "anonymous": false,
      "inputs": [
        {
          "indexed": true,
          "internalType": "address",
          "name": "previousOwner",
          "type": "address"
        },
        {
          "indexed": true,
          "internalType": "address",
          "name": "newOwner",
          "type": "address"
        }
      ],
      "name": "OwnershipTransferred",
      "type": "event"
    },
    {
      "anonymous": false,
      "inputs": [
        {
          "indexed": true,
          "internalType": "uint256",
          "name": "tierId",
          "type": "uint256"
        },
        {
          "indexed": false,
          "internalType": "address",
          "name": "caller",
          "type": "address"
        }
      ],
      "name": "RemoveTier",
      "type": "event"
    },
    {
      "anonymous": false,
      "inputs": [
        {
          "indexed": true,
          "internalType": "string",
          "name": "baseUri",
          "type": "string"
        },
        {
          "indexed": false,
          "internalType": "address",
          "name": "caller",
          "type": "address"
        }
      ],
      "name": "SetBaseUri",
      "type": "event"
    },
    {
      "anonymous": false,
      "inputs": [
        {
          "indexed": true,
          "internalType": "string",
          "name": "contractUri",
          "type": "string"
        },
        {
          "indexed": false,
          "internalType": "address",
          "name": "caller",
          "type": "address"
        }
      ],
      "name": "SetContractUri",
      "type": "event"
    },
    {
      "anonymous": false,
      "inputs": [
        {
          "indexed": true,
          "internalType": "address",
          "name": "beneficiary",
          "type": "address"
        },
        {
          "indexed": false,
          "internalType": "address",
          "name": "caller",
          "type": "address"
        }
      ],
      "name": "SetDefaultReservedTokenBeneficiary",
      "type": "event"
    },
    {
      "anonymous": false,
      "inputs": [
        {
          "indexed": true,
          "internalType": "contract IJBTokenUriResolver",
          "name": "newResolver",
          "type": "address"
        },
        {
          "indexed": false,
          "internalType": "address",
          "name": "caller",
          "type": "address"
        }
      ],
      "name": "SetTokenUriResolver",
      "type": "event"
    },
    {
      "anonymous": false,
      "inputs": [
        {
          "indexed": true,
          "internalType": "address",
          "name": "delegator",
          "type": "address"
        },
        {
          "indexed": true,
          "internalType": "address",
          "name": "fromDelegate",
          "type": "address"
        },
        {
          "indexed": true,
          "internalType": "address",
          "name": "toDelegate",
          "type": "address"
        },
        {
          "indexed": false,
          "internalType": "uint256",
          "name": "tierId",
          "type": "uint256"
        },
        {
          "indexed": false,
          "internalType": "address",
          "name": "caller",
          "type": "address"
        }
      ],
      "name": "TierDelegateChanged",
      "type": "event"
    },
    {
      "anonymous": false,
      "inputs": [
        {
          "indexed": true,
          "internalType": "address",
          "name": "delegate",
          "type": "address"
        },
        {
          "indexed": true,
          "internalType": "uint256",
          "name": "tierId",
          "type": "uint256"
        },
        {
          "indexed": false,
          "internalType": "uint256",
          "name": "previousBalance",
          "type": "uint256"
        },
        {
          "indexed": false,
          "internalType": "uint256",
          "name": "newBalance",
          "type": "uint256"
        },
        {
          "indexed": false,
          "internalType": "address",
          "name": "callre",
          "type": "address"
        }
      ],
      "name": "TierDelegateVotesChanged",
      "type": "event"
    },
    {
      "anonymous": false,
      "inputs": [
        {
          "indexed": true,
          "internalType": "address",
          "name": "from",
          "type": "address"
        },
        {
          "indexed": true,
          "internalType": "address",
          "name": "to",
          "type": "address"
        },
        {
          "indexed": true,
          "internalType": "uint256",
          "name": "tokenId",
          "type": "uint256"
        }
      ],
      "name": "Transfer",
      "type": "event"
    },
    {
      "inputs": [],
      "name": "DOMAIN_SEPARATOR",
      "outputs": [
        {
          "internalType": "bytes32",
          "name": "",
          "type": "bytes32"
        }
      ],
      "stateMutability": "view",
      "type": "function"
    },
    {
      "inputs": [
        {
          "components": [
            {
              "internalType": "uint256",
              "name": "contributionFloor",
              "type": "uint256"
            },
            {
              "internalType": "uint256",
              "name": "lockedUntil",
              "type": "uint256"
            },
            {
              "internalType": "uint256",
              "name": "initialQuantity",
              "type": "uint256"
            },
            {
              "internalType": "uint256",
              "name": "votingUnits",
              "type": "uint256"
            },
            {
              "internalType": "uint256",
              "name": "reservedRate",
              "type": "uint256"
            },
            {
              "internalType": "address",
              "name": "reservedTokenBeneficiary",
              "type": "address"
            },
            {
              "internalType": "bytes32",
              "name": "encodedIPFSUri",
              "type": "bytes32"
            },
            {
              "internalType": "bool",
              "name": "shouldUseBeneficiaryAsDefault",
              "type": "bool"
            }
          ],
          "internalType": "struct JB721TierParams[]",
          "name": "_tiersToAdd",
          "type": "tuple[]"
        },
        {
          "internalType": "uint256[]",
          "name": "_tierIdsToRemove",
          "type": "uint256[]"
        }
      ],
      "name": "adjustTiers",
      "outputs": [],
      "stateMutability": "nonpayable",
      "type": "function"
    },
    {
      "inputs": [
        {
          "internalType": "address",
          "name": "to",
          "type": "address"
        },
        {
          "internalType": "uint256",
          "name": "tokenId",
          "type": "uint256"
        }
      ],
      "name": "approve",
      "outputs": [],
      "stateMutability": "nonpayable",
      "type": "function"
    },
    {
      "inputs": [
        {
          "internalType": "address",
          "name": "_owner",
          "type": "address"
        }
      ],
      "name": "balanceOf",
      "outputs": [
        {
          "internalType": "uint256",
          "name": "balance",
          "type": "uint256"
        }
      ],
      "stateMutability": "view",
      "type": "function"
    },
    {
      "inputs": [],
      "name": "contractURI",
      "outputs": [
        {
          "internalType": "string",
          "name": "",
          "type": "string"
        }
      ],
      "stateMutability": "view",
      "type": "function"
    },
    {
      "inputs": [],
      "name": "contributionToken",
      "outputs": [
        {
          "internalType": "address",
          "name": "",
          "type": "address"
        }
      ],
      "stateMutability": "view",
      "type": "function"
    },
    {
      "inputs": [
        {
          "internalType": "address",
          "name": "delegatee",
          "type": "address"
        }
      ],
      "name": "delegate",
      "outputs": [],
      "stateMutability": "nonpayable",
      "type": "function"
    },
    {
      "inputs": [
        {
          "internalType": "address",
          "name": "delegatee",
          "type": "address"
        },
        {
          "internalType": "uint256",
          "name": "nonce",
          "type": "uint256"
        },
        {
          "internalType": "uint256",
          "name": "expiry",
          "type": "uint256"
        },
        {
          "internalType": "uint8",
          "name": "v",
          "type": "uint8"
        },
        {
          "internalType": "bytes32",
          "name": "r",
          "type": "bytes32"
        },
        {
          "internalType": "bytes32",
          "name": "s",
          "type": "bytes32"
        }
      ],
      "name": "delegateBySig",
      "outputs": [],
      "stateMutability": "nonpayable",
      "type": "function"
    },
    {
      "inputs": [
        {
          "internalType": "address",
          "name": "account",
          "type": "address"
        }
      ],
      "name": "delegates",
      "outputs": [
        {
          "internalType": "address",
          "name": "",
          "type": "address"
        }
      ],
      "stateMutability": "view",
      "type": "function"
    },
    {
      "inputs": [
        {
          "components": [
            {
              "internalType": "address",
              "name": "payer",
              "type": "address"
            },
            {
              "internalType": "uint256",
              "name": "projectId",
              "type": "uint256"
            },
            {
              "internalType": "uint256",
              "name": "currentFundingCycleConfiguration",
              "type": "uint256"
            },
            {
              "components": [
                {
                  "internalType": "address",
                  "name": "token",
                  "type": "address"
                },
                {
                  "internalType": "uint256",
                  "name": "value",
                  "type": "uint256"
                },
                {
                  "internalType": "uint256",
                  "name": "decimals",
                  "type": "uint256"
                },
                {
                  "internalType": "uint256",
                  "name": "currency",
                  "type": "uint256"
                }
              ],
              "internalType": "struct JBTokenAmount",
              "name": "amount",
              "type": "tuple"
            },
            {
              "components": [
                {
                  "internalType": "address",
                  "name": "token",
                  "type": "address"
                },
                {
                  "internalType": "uint256",
                  "name": "value",
                  "type": "uint256"
                },
                {
                  "internalType": "uint256",
                  "name": "decimals",
                  "type": "uint256"
                },
                {
                  "internalType": "uint256",
                  "name": "currency",
                  "type": "uint256"
                }
              ],
              "internalType": "struct JBTokenAmount",
              "name": "forwardedAmount",
              "type": "tuple"
            },
            {
              "internalType": "uint256",
              "name": "projectTokenCount",
              "type": "uint256"
            },
            {
              "internalType": "address",
              "name": "beneficiary",
              "type": "address"
            },
            {
              "internalType": "bool",
              "name": "preferClaimedTokens",
              "type": "bool"
            },
            {
              "internalType": "string",
              "name": "memo",
              "type": "string"
            },
            {
              "internalType": "bytes",
              "name": "metadata",
              "type": "bytes"
            }
          ],
          "internalType": "struct JBDidPayData",
          "name": "_data",
          "type": "tuple"
        }
      ],
      "name": "didPay",
      "outputs": [],
      "stateMutability": "payable",
      "type": "function"
    },
    {
      "inputs": [
        {
          "components": [
            {
              "internalType": "address",
              "name": "holder",
              "type": "address"
            },
            {
              "internalType": "uint256",
              "name": "projectId",
              "type": "uint256"
            },
            {
              "internalType": "uint256",
              "name": "currentFundingCycleConfiguration",
              "type": "uint256"
            },
            {
              "internalType": "uint256",
              "name": "projectTokenCount",
              "type": "uint256"
            },
            {
              "components": [
                {
                  "internalType": "address",
                  "name": "token",
                  "type": "address"
                },
                {
                  "internalType": "uint256",
                  "name": "value",
                  "type": "uint256"
                },
                {
                  "internalType": "uint256",
                  "name": "decimals",
                  "type": "uint256"
                },
                {
                  "internalType": "uint256",
                  "name": "currency",
                  "type": "uint256"
                }
              ],
              "internalType": "struct JBTokenAmount",
              "name": "reclaimedAmount",
              "type": "tuple"
            },
            {
              "components": [
                {
                  "internalType": "address",
                  "name": "token",
                  "type": "address"
                },
                {
                  "internalType": "uint256",
                  "name": "value",
                  "type": "uint256"
                },
                {
                  "internalType": "uint256",
                  "name": "decimals",
                  "type": "uint256"
                },
                {
                  "internalType": "uint256",
                  "name": "currency",
                  "type": "uint256"
                }
              ],
              "internalType": "struct JBTokenAmount",
              "name": "forwardedAmount",
              "type": "tuple"
            },
            {
              "internalType": "address payable",
              "name": "beneficiary",
              "type": "address"
            },
            {
              "internalType": "string",
              "name": "memo",
              "type": "string"
            },
            {
              "internalType": "bytes",
              "name": "metadata",
              "type": "bytes"
            }
          ],
          "internalType": "struct JBDidRedeemData",
          "name": "_data",
          "type": "tuple"
        }
      ],
      "name": "didRedeem",
      "outputs": [],
      "stateMutability": "payable",
      "type": "function"
    },
    {
      "inputs": [],
      "name": "directory",
      "outputs": [
        {
          "internalType": "contract IJBDirectory",
          "name": "",
          "type": "address"
        }
      ],
      "stateMutability": "view",
      "type": "function"
    },
    {
      "inputs": [
        {
          "internalType": "uint256",
          "name": "_tokenId",
          "type": "uint256"
        }
      ],
      "name": "firstOwnerOf",
      "outputs": [
        {
          "internalType": "address",
          "name": "",
          "type": "address"
        }
      ],
      "stateMutability": "view",
      "type": "function"
    },
    {
      "inputs": [],
      "name": "fundingCycleStore",
      "outputs": [
        {
          "internalType": "contract IJBFundingCycleStore",
          "name": "",
          "type": "address"
        }
      ],
      "stateMutability": "view",
      "type": "function"
    },
    {
      "inputs": [
        {
          "internalType": "uint256",
          "name": "tokenId",
          "type": "uint256"
        }
      ],
      "name": "getApproved",
      "outputs": [
        {
          "internalType": "address",
          "name": "",
          "type": "address"
        }
      ],
      "stateMutability": "view",
      "type": "function"
    },
    {
      "inputs": [
        {
          "internalType": "uint256",
          "name": "_tier",
          "type": "uint256"
        },
        {
          "internalType": "uint256",
          "name": "_blockNumber",
          "type": "uint256"
        }
      ],
      "name": "getPastTierTotalVotes",
      "outputs": [
        {
          "internalType": "uint256",
          "name": "",
          "type": "uint256"
        }
      ],
      "stateMutability": "view",
      "type": "function"
    },
    {
      "inputs": [
        {
          "internalType": "address",
          "name": "_account",
          "type": "address"
        },
        {
          "internalType": "uint256",
          "name": "_tier",
          "type": "uint256"
        },
        {
          "internalType": "uint256",
          "name": "_blockNumber",
          "type": "uint256"
        }
      ],
      "name": "getPastTierVotes",
      "outputs": [
        {
          "internalType": "uint256",
          "name": "",
          "type": "uint256"
        }
      ],
      "stateMutability": "view",
      "type": "function"
    },
    {
      "inputs": [
        {
          "internalType": "uint256",
          "name": "blockNumber",
          "type": "uint256"
        }
      ],
      "name": "getPastTotalSupply",
      "outputs": [
        {
          "internalType": "uint256",
          "name": "",
          "type": "uint256"
        }
      ],
      "stateMutability": "view",
      "type": "function"
    },
    {
      "inputs": [
        {
          "internalType": "address",
          "name": "account",
          "type": "address"
        },
        {
          "internalType": "uint256",
          "name": "blockNumber",
          "type": "uint256"
        }
      ],
      "name": "getPastVotes",
      "outputs": [
        {
          "internalType": "uint256",
          "name": "",
          "type": "uint256"
        }
      ],
      "stateMutability": "view",
      "type": "function"
    },
    {
      "inputs": [
        {
          "internalType": "address",
          "name": "_account",
          "type": "address"
        },
        {
          "internalType": "uint256",
          "name": "_tier",
          "type": "uint256"
        }
      ],
      "name": "getTierDelegate",
      "outputs": [
        {
          "internalType": "address",
          "name": "",
          "type": "address"
        }
      ],
      "stateMutability": "view",
      "type": "function"
    },
    {
      "inputs": [
        {
          "internalType": "uint256",
          "name": "_tier",
          "type": "uint256"
        }
      ],
      "name": "getTierTotalVotes",
      "outputs": [
        {
          "internalType": "uint256",
          "name": "",
          "type": "uint256"
        }
      ],
      "stateMutability": "view",
      "type": "function"
    },
    {
      "inputs": [
        {
          "internalType": "address",
          "name": "_account",
          "type": "address"
        },
        {
          "internalType": "uint256",
          "name": "_tier",
          "type": "uint256"
        }
      ],
      "name": "getTierVotes",
      "outputs": [
        {
          "internalType": "uint256",
          "name": "",
          "type": "uint256"
        }
      ],
      "stateMutability": "view",
      "type": "function"
    },
    {
      "inputs": [
        {
          "internalType": "address",
          "name": "account",
          "type": "address"
        }
      ],
      "name": "getVotes",
      "outputs": [
        {
          "internalType": "uint256",
          "name": "",
          "type": "uint256"
        }
      ],
      "stateMutability": "view",
      "type": "function"
    },
    {
      "inputs": [
        {
          "internalType": "address",
          "name": "owner",
          "type": "address"
        },
        {
          "internalType": "address",
          "name": "operator",
          "type": "address"
        }
      ],
      "name": "isApprovedForAll",
      "outputs": [
        {
          "internalType": "bool",
          "name": "",
          "type": "bool"
        }
      ],
      "stateMutability": "view",
      "type": "function"
    },
    {
      "inputs": [
        {
          "components": [
            {
              "internalType": "uint256",
              "name": "tierId",
              "type": "uint256"
            },
            {
              "internalType": "uint256",
              "name": "count",
              "type": "uint256"
            }
          ],
          "internalType": "struct JBTiered721MintReservesForTiersData[]",
          "name": "_mintReservesForTiersData",
          "type": "tuple[]"
        }
      ],
      "name": "mintReservesFor",
      "outputs": [],
      "stateMutability": "nonpayable",
      "type": "function"
    },
    {
      "inputs": [
        {
          "internalType": "uint256",
          "name": "_tierId",
          "type": "uint256"
        },
        {
          "internalType": "uint256",
          "name": "_count",
          "type": "uint256"
        }
      ],
      "name": "mintReservesFor",
      "outputs": [],
      "stateMutability": "nonpayable",
      "type": "function"
    },
    {
      "inputs": [],
      "name": "name",
      "outputs": [
        {
          "internalType": "string",
          "name": "",
          "type": "string"
        }
      ],
      "stateMutability": "view",
      "type": "function"
    },
    {
      "inputs": [
        {
          "internalType": "address",
          "name": "owner",
          "type": "address"
        }
      ],
      "name": "nonces",
      "outputs": [
        {
          "internalType": "uint256",
          "name": "",
          "type": "uint256"
        }
      ],
      "stateMutability": "view",
      "type": "function"
    },
    {
      "inputs": [],
      "name": "owner",
      "outputs": [
        {
          "internalType": "address",
          "name": "",
          "type": "address"
        }
      ],
      "stateMutability": "view",
      "type": "function"
    },
    {
      "inputs": [
        {
          "internalType": "uint256",
          "name": "tokenId",
          "type": "uint256"
        }
      ],
      "name": "ownerOf",
      "outputs": [
        {
          "internalType": "address",
          "name": "",
          "type": "address"
        }
      ],
      "stateMutability": "view",
      "type": "function"
    },
    {
      "inputs": [
        {
          "components": [
            {
              "internalType": "contract IJBPaymentTerminal",
              "name": "terminal",
              "type": "address"
            },
            {
              "internalType": "address",
              "name": "payer",
              "type": "address"
            },
            {
              "components": [
                {
                  "internalType": "address",
                  "name": "token",
                  "type": "address"
                },
                {
                  "internalType": "uint256",
                  "name": "value",
                  "type": "uint256"
                },
                {
                  "internalType": "uint256",
                  "name": "decimals",
                  "type": "uint256"
                },
                {
                  "internalType": "uint256",
                  "name": "currency",
                  "type": "uint256"
                }
              ],
              "internalType": "struct JBTokenAmount",
              "name": "amount",
              "type": "tuple"
            },
            {
              "internalType": "uint256",
              "name": "projectId",
              "type": "uint256"
            },
            {
              "internalType": "uint256",
              "name": "currentFundingCycleConfiguration",
              "type": "uint256"
            },
            {
              "internalType": "address",
              "name": "beneficiary",
              "type": "address"
            },
            {
              "internalType": "uint256",
              "name": "weight",
              "type": "uint256"
            },
            {
              "internalType": "uint256",
              "name": "reservedRate",
              "type": "uint256"
            },
            {
              "internalType": "string",
              "name": "memo",
              "type": "string"
            },
            {
              "internalType": "bytes",
              "name": "metadata",
              "type": "bytes"
            }
          ],
          "internalType": "struct JBPayParamsData",
          "name": "_data",
          "type": "tuple"
        }
      ],
      "name": "payParams",
      "outputs": [
        {
          "internalType": "uint256",
          "name": "weight",
          "type": "uint256"
        },
        {
          "internalType": "string",
          "name": "memo",
          "type": "string"
        },
        {
          "components": [
            {
              "internalType": "contract IJBPayDelegate",
              "name": "delegate",
              "type": "address"
            },
            {
              "internalType": "uint256",
              "name": "amount",
              "type": "uint256"
            }
          ],
          "internalType": "struct JBPayDelegateAllocation[]",
          "name": "delegateAllocations",
          "type": "tuple[]"
        }
      ],
      "stateMutability": "view",
      "type": "function"
    },
    {
      "inputs": [],
      "name": "projectId",
      "outputs": [
        {
          "internalType": "uint256",
          "name": "",
          "type": "uint256"
        }
      ],
      "stateMutability": "view",
      "type": "function"
    },
    {
      "inputs": [
        {
          "components": [
            {
              "internalType": "contract IJBPaymentTerminal",
              "name": "terminal",
              "type": "address"
            },
            {
              "internalType": "address",
              "name": "holder",
              "type": "address"
            },
            {
              "internalType": "uint256",
              "name": "projectId",
              "type": "uint256"
            },
            {
              "internalType": "uint256",
              "name": "currentFundingCycleConfiguration",
              "type": "uint256"
            },
            {
              "internalType": "uint256",
              "name": "tokenCount",
              "type": "uint256"
            },
            {
              "internalType": "uint256",
              "name": "totalSupply",
              "type": "uint256"
            },
            {
              "internalType": "uint256",
              "name": "overflow",
              "type": "uint256"
            },
            {
              "components": [
                {
                  "internalType": "address",
                  "name": "token",
                  "type": "address"
                },
                {
                  "internalType": "uint256",
                  "name": "value",
                  "type": "uint256"
                },
                {
                  "internalType": "uint256",
                  "name": "decimals",
                  "type": "uint256"
                },
                {
                  "internalType": "uint256",
                  "name": "currency",
                  "type": "uint256"
                }
              ],
              "internalType": "struct JBTokenAmount",
              "name": "reclaimAmount",
              "type": "tuple"
            },
            {
              "internalType": "bool",
              "name": "useTotalOverflow",
              "type": "bool"
            },
            {
              "internalType": "uint256",
              "name": "redemptionRate",
              "type": "uint256"
            },
            {
              "internalType": "string",
              "name": "memo",
              "type": "string"
            },
            {
              "internalType": "bytes",
              "name": "metadata",
              "type": "bytes"
            }
          ],
          "internalType": "struct JBRedeemParamsData",
          "name": "_data",
          "type": "tuple"
        }
      ],
      "name": "redeemParams",
      "outputs": [
        {
          "internalType": "uint256",
          "name": "reclaimAmount",
          "type": "uint256"
        },
        {
          "internalType": "string",
          "name": "memo",
          "type": "string"
        },
        {
          "components": [
            {
              "internalType": "contract IJBRedemptionDelegate",
              "name": "delegate",
              "type": "address"
            },
            {
              "internalType": "uint256",
              "name": "amount",
              "type": "uint256"
            }
          ],
          "internalType": "struct JBRedemptionDelegateAllocation[]",
          "name": "delegateAllocations",
          "type": "tuple[]"
        }
      ],
      "stateMutability": "view",
      "type": "function"
    },
    {
      "inputs": [],
      "name": "renounceOwnership",
      "outputs": [],
      "stateMutability": "nonpayable",
      "type": "function"
    },
    {
      "inputs": [
        {
          "internalType": "address",
          "name": "from",
          "type": "address"
        },
        {
          "internalType": "address",
          "name": "to",
          "type": "address"
        },
        {
          "internalType": "uint256",
          "name": "tokenId",
          "type": "uint256"
        }
      ],
      "name": "safeTransferFrom",
      "outputs": [],
      "stateMutability": "nonpayable",
      "type": "function"
    },
    {
      "inputs": [
        {
          "internalType": "address",
          "name": "from",
          "type": "address"
        },
        {
          "internalType": "address",
          "name": "to",
          "type": "address"
        },
        {
          "internalType": "uint256",
          "name": "tokenId",
          "type": "uint256"
        },
        {
          "internalType": "bytes",
          "name": "data",
          "type": "bytes"
        }
      ],
      "name": "safeTransferFrom",
      "outputs": [],
      "stateMutability": "nonpayable",
      "type": "function"
    },
    {
      "inputs": [
        {
          "internalType": "address",
          "name": "operator",
          "type": "address"
        },
        {
          "internalType": "bool",
          "name": "approved",
          "type": "bool"
        }
      ],
      "name": "setApprovalForAll",
      "outputs": [],
      "stateMutability": "nonpayable",
      "type": "function"
    },
    {
      "inputs": [
        {
          "internalType": "string",
          "name": "_baseUri",
          "type": "string"
        }
      ],
      "name": "setBaseUri",
      "outputs": [],
      "stateMutability": "nonpayable",
      "type": "function"
    },
    {
      "inputs": [
        {
          "internalType": "string",
          "name": "_contractUri",
          "type": "string"
        }
      ],
      "name": "setContractUri",
      "outputs": [],
      "stateMutability": "nonpayable",
      "type": "function"
    },
    {
      "inputs": [
        {
          "internalType": "address",
          "name": "_beneficiary",
          "type": "address"
        }
      ],
      "name": "setDefaultReservedTokenBeneficiary",
      "outputs": [],
      "stateMutability": "nonpayable",
      "type": "function"
    },
    {
      "inputs": [
        {
          "internalType": "address",
          "name": "_delegatee",
          "type": "address"
        },
        {
          "internalType": "uint256",
          "name": "_tierId",
          "type": "uint256"
        }
      ],
      "name": "setTierDelegate",
      "outputs": [],
      "stateMutability": "nonpayable",
      "type": "function"
    },
    {
      "inputs": [
        {
          "internalType": "contract IJBTokenUriResolver",
          "name": "_tokenUriResolver",
          "type": "address"
        }
      ],
      "name": "setTokenUriResolver",
      "outputs": [],
      "stateMutability": "nonpayable",
      "type": "function"
    },
    {
      "inputs": [],
      "name": "store",
      "outputs": [
        {
          "internalType": "contract IJBTiered721DelegateStore",
          "name": "",
          "type": "address"
        }
      ],
      "stateMutability": "view",
      "type": "function"
    },
    {
      "inputs": [
        {
          "internalType": "bytes4",
          "name": "_interfaceId",
          "type": "bytes4"
        }
      ],
      "name": "supportsInterface",
      "outputs": [
        {
          "internalType": "bool",
          "name": "",
          "type": "bool"
        }
      ],
      "stateMutability": "view",
      "type": "function"
    },
    {
      "inputs": [],
      "name": "symbol",
      "outputs": [
        {
          "internalType": "string",
          "name": "",
          "type": "string"
        }
      ],
      "stateMutability": "view",
      "type": "function"
    },
    {
      "inputs": [
        {
          "internalType": "uint256",
          "name": "_tokenId",
          "type": "uint256"
        }
      ],
      "name": "tokenURI",
      "outputs": [
        {
          "internalType": "string",
          "name": "",
          "type": "string"
        }
      ],
      "stateMutability": "view",
      "type": "function"
    },
    {
      "inputs": [
        {
          "internalType": "address",
          "name": "from",
          "type": "address"
        },
        {
          "internalType": "address",
          "name": "to",
          "type": "address"
        },
        {
          "internalType": "uint256",
          "name": "tokenId",
          "type": "uint256"
        }
      ],
      "name": "transferFrom",
      "outputs": [],
      "stateMutability": "nonpayable",
      "type": "function"
    },
    {
      "inputs": [
        {
          "internalType": "address",
          "name": "newOwner",
          "type": "address"
        }
      ],
      "name": "transferOwnership",
      "outputs": [],
      "stateMutability": "nonpayable",
      "type": "function"
    }
  ],
  "bytecode": {
    "object": "0x6101e060405261eeee6101c0523480156200001957600080fd5b5060405162005b4738038062005b478339810160408190526200003c916200071f565b6040805180820190915260018152603160f81b602082015289908c8c838c818160006200006a838262000917565b50600162000079828262000917565b505050608093909352506001600160a01b031660a0525081516020808401919091208251918301919091206101208290526101408190524660e0527f8b73c3c69bb8fe3d512ecc4cf759cc79239f7b179b0ffacaa9a75d522b39400f620001258184846040805160208101859052908101839052606081018290524660808201523060a082015260009060c0016040516020818303038152906040528051906020012090509392505050565b60c05230610100526101605250620001499250620001439150503390565b6200040b565b6001600160a01b038088166101a052821661018052855115620001c9576040516331315e5960e11b81526001600160a01b03831690636262bcb29062000194908990600401620009e3565b600060405180830381600087803b158015620001af57600080fd5b505af1158015620001c4573d6000803e3d6000fd5b505050505b835115620002345760405163d67b78fd60e01b81526001600160a01b0383169063d67b78fd90620001ff908790600401620009e3565b600060405180830381600087803b1580156200021a57600080fd5b505af11580156200022f573d6000803e3d6000fd5b505050505b6001600160a01b03851615620002a25760405163036129cb60e61b81526001600160a01b03868116600483015283169063d84a72c090602401600060405180830381600087803b1580156200028857600080fd5b505af11580156200029d573d6000803e3d6000fd5b505050505b82511562000324576040516309d865d560e21b81526001600160a01b03831690632761975490620002d890869060040162000a18565b6000604051808303816000875af1158015620002f8573d6000803e3d6000fd5b505050506040513d6000823e601f3d908101601f1916820160405262000322919081019062000ab2565b505b8051156200038c5780516040516303e6ca0360e11b815290151560048201526001600160a01b038316906307cd940690602401600060405180830381600087803b1580156200037257600080fd5b505af115801562000387573d6000803e3d6000fd5b505050505b806020015115620003fa576020810151604051631877d7b160e01b815290151560048201526001600160a01b03831690631877d7b190602401600060405180830381600087803b158015620003e057600080fd5b505af1158015620003f5573d6000803e3d6000fd5b505050505b505050505050505050505062000b4b565b600980546001600160a01b038381166001600160a01b0319831681179093556040519116919082907f8be0079c531659141344cd1fd0a4f28419497f9722a3daafe3b4186f6b6457e090600090a35050565b6001600160a01b03811681146200047357600080fd5b50565b805162000483816200045d565b919050565b634e487b7160e01b600052604160045260246000fd5b60405161010081016001600160401b0381118282101715620004c457620004c462000488565b60405290565b604051601f8201601f191681016001600160401b0381118282101715620004f557620004f562000488565b604052919050565b60005b838110156200051a57818101518382015260200162000500565b50506000910152565b600082601f8301126200053557600080fd5b81516001600160401b0381111562000551576200055162000488565b62000566601f8201601f1916602001620004ca565b8181528460208386010111156200057c57600080fd5b6200058f826020830160208701620004fd565b949350505050565b60006001600160401b03821115620005b357620005b362000488565b5060051b60200190565b805180151581146200048357600080fd5b600082601f830112620005e057600080fd5b81516020620005f9620005f38362000597565b620004ca565b82815260089290921b840181019181810190868411156200061957600080fd5b8286015b84811015620006af576101008189031215620006395760008081fd5b620006436200049e565b81518152848201518582015260408083015190820152606080830151908201526080808301519082015260a0808301516200067e816200045d565b9082015260c0828101519082015260e06200069b818401620005bd565b90820152835291830191610100016200061d565b509695505050505050565b600060408284031215620006cd57600080fd5b604080519081016001600160401b0381118282101715620006f257620006f262000488565b6040529050806200070383620005bd565b81526200071360208401620005bd565b60208201525092915050565b60008060008060008060008060008060006101808c8e0312156200074257600080fd5b8b519a506200075460208d0162000476565b60408d0151909a506001600160401b038111156200077157600080fd5b6200077f8e828f0162000523565b60608e0151909a5090506001600160401b038111156200079e57600080fd5b620007ac8e828f0162000523565b985050620007bd60808d0162000476565b60a08d01519097506001600160401b03811115620007da57600080fd5b620007e88e828f0162000523565b965050620007f960c08d0162000476565b60e08d01519095506001600160401b038111156200081657600080fd5b620008248e828f0162000523565b6101008e015190955090506001600160401b038111156200084457600080fd5b620008528e828f01620005ce565b935050620008646101208d0162000476565b9150620008768d6101408e01620006ba565b90509295989b509295989b9093969950565b600181811c908216806200089d57607f821691505b602082108103620008be57634e487b7160e01b600052602260045260246000fd5b50919050565b601f8211156200091257600081815260208120601f850160051c81016020861015620008ed5750805b601f850160051c820191505b818110156200090e57828155600101620008f9565b5050505b505050565b81516001600160401b0381111562000933576200093362000488565b6200094b8162000944845462000888565b84620008c4565b602080601f8311600181146200098357600084156200096a5750858301515b600019600386901b1c1916600185901b1785556200090e565b600085815260208120601f198616915b82811015620009b45788860151825594840194600190910190840162000993565b5085821015620009d35787850151600019600388901b60f8161c191681555b5050505050600190811b01905550565b602081526000825180602084015262000a04816040850160208701620004fd565b601f01601f19169190910160400192915050565b602080825282518282018190526000919060409081850190868401855b8281101562000aa55781518051855286810151878601528581015186860152606080820151908601526080808201519086015260a0808201516001600160a01b03169086015260c0808201519086015260e090810151151590850152610100909301929085019060010162000a35565b5091979650505050505050565b6000602080838503121562000ac657600080fd5b82516001600160401b0381111562000add57600080fd5b8301601f8101851362000aef57600080fd5b805162000b00620005f38262000597565b81815260059190911b8201830190838101908783111562000b2057600080fd5b928401925b8284101562000b405783518252928401929084019062000b25565b979650505050505050565b60805160a05160c05160e05161010051610120516101405161016051610180516101a0516101c051614e7962000cce600039600081816104650152612ca40152600081816104b9015281816115e10152612e8001526000818161067101528181610b3001528181610e4b01528181610f5501528181611092015281816111b1015281816112a5015281816116a4015281816117470152818161198801528181611ab201528181611b3d01528181611c3501528181611f740152818161202301528181612477015281816128f00152818161293f01528181612f5d01528181612ffe0152818161307f01528181613127015281816131f701528181613394015281816138fe0152613a590152600061256b015260006125ba01526000612595015260006124ee01526000612518015260006125420152600081816107d401528181610c550152611e8201526000818161041101528181610c2901528181610cd2015281816115b801528181611e5601528181611eff0152612e570152614e796000f3fe6080604052600436106102935760003560e01c806394c5c5ca1161015a578063c41c2f24116100c1578063d46cf1711161007a578063d46cf17114610896578063da9ee8b7146108b6578063df487e26146108c9578063e8a3d485146108e9578063e985e9c5146108fe578063f2fde38b1461094757600080fd5b8063c41c2f24146107c2578063c87b56dd146107f6578063ca323efe14610816578063ccb4807b14610836578063d31cc52c14610856578063d40e71461461087657600080fd5b8063a22cb46511610113578063a22cb465146106f3578063a51cfd1814610713578063aa4fb15b14610742578063ab951e3914610762578063b88d4fde14610782578063c3cda520146107a257600080fd5b806394c5c5ca1461062a57806395d89b411461064a578063975057e71461065f5780639ab24eb0146106935780639d927a50146106b3578063a0bcfc7f146106d357600080fd5b80634bedf9a8116101fe57806370a08231116101b757806370a0823114610554578063715018a6146105745780637ecebe001461058957806382732b6d146105a95780638da5cb5b146105ec5780638e539e8c1461060a57600080fd5b80634bedf9a81461045357806354c6d1f514610487578063557e7155146104a7578063587cde1e146104db5780635c19a95c146105145780636352211e1461053457600080fd5b80632a596e53116102505780632a596e53146103895780632b13c58f146103a95780633644e515146103bc5780633a46b1a8146103df5780633fafa127146103ff57806342842e0e1461043357600080fd5b806301ffc9a71461029857806306fdde03146102cd578063081812fc146102ef578063095ea7b31461032757806323b872dd146103495780632407497e14610369575b600080fd5b3480156102a457600080fd5b506102b86102b3366004613ee9565b610967565b60405190151581526020015b60405180910390f35b3480156102d957600080fd5b506102e2610992565b6040516102c49190613f56565b3480156102fb57600080fd5b5061030f61030a366004613f69565b610a24565b6040516001600160a01b0390911681526020016102c4565b34801561033357600080fd5b50610347610342366004613f97565b610a4b565b005b34801561035557600080fd5b50610347610364366004613fc3565b610ad7565b34801561037557600080fd5b50610347610384366004614004565b610b09565b34801561039557600080fd5b506103476103a43660046140d5565b610bce565b6103476103b73660046141a2565b610c11565b3480156103c857600080fd5b506103d1610dcf565b6040519081526020016102c4565b3480156103eb57600080fd5b506103d16103fa366004613f97565b610dde565b34801561040b57600080fd5b506103d17f000000000000000000000000000000000000000000000000000000000000000081565b34801561043f57600080fd5b5061034761044e366004613fc3565b610e07565b34801561045f57600080fd5b5061030f7f000000000000000000000000000000000000000000000000000000000000000081565b34801561049357600080fd5b5061030f6104a2366004613f69565b610e22565b3480156104b357600080fd5b5061030f7f000000000000000000000000000000000000000000000000000000000000000081565b3480156104e757600080fd5b5061030f6104f6366004614004565b6001600160a01b039081166000908152600560205260409020541690565b34801561052057600080fd5b5061034761052f366004614004565b610eea565b34801561054057600080fd5b5061030f61054f366004613f69565b610ef7565b34801561056057600080fd5b506103d161056f366004614004565b610f2d565b34801561058057600080fd5b50610347610fc3565b34801561059557600080fd5b506103d16105a4366004614004565b610fd7565b3480156105b557600080fd5b5061030f6105c4366004613f97565b6001600160a01b039182166000908152600a6020908152604080832093835292905220541690565b3480156105f857600080fd5b506009546001600160a01b031661030f565b34801561061657600080fd5b506103d1610625366004613f69565b610ff5565b34801561063657600080fd5b506103d1610645366004613f69565b611022565b34801561065657600080fd5b506102e2611039565b34801561066b57600080fd5b5061030f7f000000000000000000000000000000000000000000000000000000000000000081565b34801561069f57600080fd5b506103d16106ae366004614004565b611048565b3480156106bf57600080fd5b506103476106ce3660046141d6565b611069565b3480156106df57600080fd5b506103476106ee3660046142fd565b611286565b3480156106ff57600080fd5b5061034761070e366004614353565b611351565b34801561071f57600080fd5b5061073361072e3660046141a2565b611360565b6040516102c49392919061438c565b34801561074e57600080fd5b5061034761075d3660046143fe565b6115a9565b34801561076e57600080fd5b5061034761077d366004613f97565b611830565b34801561078e57600080fd5b5061034761079d366004614420565b61183b565b3480156107ae57600080fd5b506103476107bd36600461449f565b61186e565b3480156107ce57600080fd5b5061030f7f000000000000000000000000000000000000000000000000000000000000000081565b34801561080257600080fd5b506102e2610811366004613f69565b61193d565b34801561082257600080fd5b506103d1610831366004613f97565b611bea565b34801561084257600080fd5b50610347610851366004614501565b611c16565b34801561086257600080fd5b506103d16108713660046143fe565b611cec565b34801561088257600080fd5b506103d1610891366004614572565b611d26565b3480156108a257600080fd5b506107336108b13660046145a7565b611d5b565b6103476108c43660046145e2565b611e3e565b3480156108d557600080fd5b506103476108e4366004614004565b611f4d565b3480156108f557600080fd5b506102e261200b565b34801561090a57600080fd5b506102b861091936600461461d565b6001600160a01b03918216600090815260046020908152604080832093909416825291909152205460ff1690565b34801561095357600080fd5b50610347610962366004614004565b61209a565b60006001600160e01b031982166343b4bd8f60e11b148061098c575061098c82612115565b92915050565b6060600080546109a19061464b565b80601f01602080910402602001604051908101604052809291908181526020018280546109cd9061464b565b8015610a1a5780601f106109ef57610100808354040283529160200191610a1a565b820191906000526020600020905b8154815290600101906020018083116109fd57829003601f168201915b5050505050905090565b6000610a2f8261218b565b506000908152600360205260409020546001600160a01b031690565b6000610a5682610ef7565b9050806001600160a01b0316836001600160a01b031603610a8a5760405163133f8be960e01b815260040160405180910390fd5b336001600160a01b03821614801590610aaa5750610aa88133610919565b155b15610ac85760405163e5fa0e3560e01b815260040160405180910390fd5b610ad283836121c0565b505050565b610ae1338261222e565b610afe5760405163e5fa0e3560e01b815260040160405180910390fd5b610ad28383836122ac565b610b11612385565b60405163036129cb60e61b81526001600160a01b0382811660048301527f0000000000000000000000000000000000000000000000000000000000000000169063d84a72c090602401600060405180830381600087803b158015610b7457600080fd5b505af1158015610b88573d6000803e3d6000fd5b50506040513381526001600160a01b03841692507fe7784d93cfbfa4408e19577e6cc0436f4dbb51214b70e100905dfce9def88c1691506020015b60405180910390a250565b805160005b81811015610ad2576000838281518110610bef57610bef61467f565b60200260200101519050610c0b816000015182602001516115a9565b50610bd3565b34151580610cca5750604051636e49181f60e01b81527f000000000000000000000000000000000000000000000000000000000000000060048201523360248201527f00000000000000000000000000000000000000000000000000000000000000006001600160a01b031690636e49181f90604401602060405180830381865afa158015610ca4573d6000803e3d6000fd5b505050506040513d601f19601f82011682018060405250810190610cc89190614695565b155b80610cf957507f0000000000000000000000000000000000000000000000000000000000000000816020013514155b15610d1757604051633efca5c360e11b815260040160405180910390fd5b6000610d276101c08301836146b2565b810190610d3491906146f8565b80519091506000805b82811015610dbf57838181518110610d5757610d5761467f565b60200260200101519150846000016020810190610d749190614004565b6000838152600260205260409020546001600160a01b03908116911614610dae5760405163075fd2b160e01b815260040160405180910390fd5b610db7826123df565b600101610d3d565b50610dc983612460565b50505050565b6000610dd96124e1565b905090565b6001600160a01b0382166000908152600660205260408120610e009083612608565b9392505050565b610ad28383836040518060200160405280600081525061183b565b6040516308ed6c0160e41b81523060048201526024810182905260009081906001600160a01b037f00000000000000000000000000000000000000000000000000000000000000001690638ed6c01090604401602060405180830381865afa158015610e92573d6000803e3d6000fd5b505050506040513d601f19601f82011682018060405250810190610eb6919061478d565b90506001600160a01b03811615610ecd5792915050565b50506000908152600260205260409020546001600160a01b031690565b610ef43382612717565b50565b6000818152600260205260408120546001600160a01b03168061098c5760405163b49aa3b560e01b815260040160405180910390fd5b604051633de222bb60e21b81523060048201526001600160a01b0382811660248301526000917f00000000000000000000000000000000000000000000000000000000000000009091169063f7888aec906044015b602060405180830381865afa158015610f9f573d6000803e3d6000fd5b505050506040513d601f19601f8201168201806040525081019061098c91906147aa565b610fcb612385565b610fd56000612789565b565b6001600160a01b03811660009081526008602052604081205461098c565b6000438210611017576040516305b5e09b60e51b815260040160405180910390fd5b61098c600783612608565b6000818152600c6020526040812061098c906127db565b6060600180546109a19061464b565b6001600160a01b038116600090815260066020526040812061098c906127db565b611071612385565b828015611193576040516309d865d560e21b81526000906001600160a01b037f000000000000000000000000000000000000000000000000000000000000000016906327619754906110c99089908990600401614830565b6000604051808303816000875af11580156110e8573d6000803e3d6000fd5b505050506040513d6000823e601f3d908101601f1916820160405261111091908101906148cf565b905060005b828110156111905781818151811061112f5761112f61467f565b60200260200101517ff2f59fef50c01641d6562b4ceb2f10dbbea88250f8d4fb2f77f42d397b00210c88888481811061116a5761116a61467f565b9050610100020133604051611180929190614903565b60405180910390a2600101611115565b50505b81801561127e576040516320512ba160e01b81526001600160a01b037f000000000000000000000000000000000000000000000000000000000000000016906320512ba1906111e8908790879060040161492b565b600060405180830381600087803b15801561120257600080fd5b505af1158015611216573d6000803e3d6000fd5b5050505060005b8181101561127c578484828181106112375761123761467f565b60405133815260209182029390930135927f832d89d991be5351d793c20faf4b7dd44f8aa9ce39e3cb160c6317de6fbba72992500160405180910390a260010161121d565b505b505050505050565b61128e612385565b6040516331315e5960e11b81526001600160a01b037f00000000000000000000000000000000000000000000000000000000000000001690636262bcb2906112da908490600401613f56565b600060405180830381600087803b1580156112f457600080fd5b505af1158015611308573d6000803e3d6000fd5b505050508060405161131a9190614964565b604051908190038120338252907f7bc9110d5de090dd59e07912d2b93a5a27ac70a60c8d8e324db4f9ee8b8b5c1390602001610bc3565b61135c338383612837565b5050565b6040805160018082528183019092526000916060918291816020015b604080518082019091526000808252602082015281526020019060019003908161137c5790505090506040518060400160405280306001600160a01b031681526020016000815250816000815181106113d7576113d761467f565b6020908102919091010152608084013515611405576040516309f82f1b60e31b815260040160405180910390fd5b83610180013560000361146a5760006114226101a08601866146b2565b8382828080601f0160208091040260200160405190810160405280939291908181526020018383808284376000920191909152509699509197509195506115a2945050505050565b600061148f61147d6101c08701876146b2565b81019061148a91906146f8565b6128d6565b9050600061149b612927565b905060006114ae8760c0013584846129b2565b90506127108761018001350361151857806114cd6101a08901896146b2565b8682828080601f016020809104026020016040519081016040528093929190818152602001838380828437600092019190915250969c50919a509198506115a2975050505050505050565b61154e81611537856115316101808c0135612710614996565b866129b2565b611546906101808b01356149a9565b6127106129b2565b61155c6101a08901896146b2565b8682828080601f016020809104026020016040519081016040528093929190818152602001838380828437600092019190915250969c50919a5091985050505050505050505b9193909250565b6040516321d1336160e11b81527f000000000000000000000000000000000000000000000000000000000000000060048201526000907f00000000000000000000000000000000000000000000000000000000000000006001600160a01b0316906343a266c29060240161012060405180830381865afa158015611631573d6000803e3d6000fd5b505050506040513d601f19601f8201168201806040525081019061165591906149bc565b61010081015190915060f51c60019081160361168457604051631d2c125760e31b815260040160405180910390fd5b604051635d53f40760e11b815260048101849052602481018390526000907f00000000000000000000000000000000000000000000000000000000000000006001600160a01b03169063baa7e80e906044016000604051808303816000875af11580156116f5573d6000803e3d6000fd5b505050506040513d6000823e601f3d908101601f1916820160405261171d91908101906148cf565b6040516304db994760e21b8152306004820152602481018690529091506000906001600160a01b037f0000000000000000000000000000000000000000000000000000000000000000169063136e651c90604401602060405180830381865afa15801561178e573d6000803e3d6000fd5b505050506040513d601f19601f820116820180604052508101906117b2919061478d565b90506000805b8581101561127c578381815181106117d2576117d261467f565b602002602001015191506117e68383612a7f565b6040513381526001600160a01b03841690889084907f031e1988c95a91ec4d655ff63a8f87a80bc9daf28d95ae10ee08c0022cfb5c8b9060200160405180910390a46001016117b8565b61135c338383612b49565b611845338361222e565b6118625760405163e5fa0e3560e01b815260040160405180910390fd5b610dc984848484612bc8565b8342111561188f57604051631931982760e01b815260040160405180910390fd5b604080517fe48329057bfd03d55e49b547132e39cffd9c1820ad7b9d4c5307691425d15adf60208201526001600160a01b038816918101919091526060810186905260808101859052600090611909906119019060a00160405160208183030381529060405280519060200120612bfc565b858585612c4a565b905061191481612c72565b861461193357604051637fcce2a960e01b815260040160405180910390fd5b61127c8188612717565b6000818152600260205260409020546060906001600160a01b031661197057505060408051602081019091526000815290565b604051630fab094760e01b81523060048201526000907f00000000000000000000000000000000000000000000000000000000000000006001600160a01b031690630fab094790602401602060405180830381865afa1580156119d7573d6000803e3d6000fd5b505050506040513d601f19601f820116820180604052508101906119fb919061478d565b90506001600160a01b03811615611a7957604051636d02a25560e11b8152600481018490526001600160a01b0382169063da0544aa90602401600060405180830381865afa158015611a51573d6000803e3d6000fd5b505050506040513d6000823e601f3d908101601f19168201604052610e009190810190614a3c565b60405163f682eeaf60e01b815230600482015273__$2e464bbf4a8803569df10b07372aceee57$__9063030cecc7906001600160a01b037f0000000000000000000000000000000000000000000000000000000000000000169063f682eeaf90602401600060405180830381865afa158015611af9573d6000803e3d6000fd5b505050506040513d6000823e601f3d908101601f19168201604052611b219190810190614a3c565b604051630c8df17160e41b8152306004820152602481018790527f00000000000000000000000000000000000000000000000000000000000000006001600160a01b03169063c8df171090604401602060405180830381865afa158015611b8c573d6000803e3d6000fd5b505050506040513d601f19601f82011682018060405250810190611bb091906147aa565b6040518363ffffffff1660e01b8152600401611bcd929190614ab2565b600060405180830381865af4158015611a51573d6000803e3d6000fd5b6001600160a01b0382166000908152600b602090815260408083208484529091528120610e00906127db565b611c1e612385565b60405163d67b78fd60e01b81526001600160a01b037f0000000000000000000000000000000000000000000000000000000000000000169063d67b78fd90611c6c9085908590600401614ad4565b600060405180830381600087803b158015611c8657600080fd5b505af1158015611c9a573d6000803e3d6000fd5b505050508181604051611cae929190614b03565b604051908190038120338252907fd36dc0c1a06103fdcaf15f3f6fb797d1a97997514c78de073640c8b5005454b89060200160405180910390a25050565b6000438210611d0e576040516305b5e09b60e51b815260040160405180910390fd5b6000838152600c60205260409020610e009083612608565b6001600160a01b0383166000908152600b602090815260408083208584529091528120611d539083612608565b949350505050565b610120810135606080611d726101608501856146b2565b8080601f01602080910402602001604051908101604052809392919081815260200183838082843760009201919091525092945060019250611db2915050565b604051908082528060200260200182016040528015611df757816020015b6040805180820190915260008082526020820152815260200190600190039081611dd05790505b5090506040518060400160405280306001600160a01b03168152602001600081525081600081518110611e2c57611e2c61467f565b60200260200101819052509193909250565b34151580611ef75750604051636e49181f60e01b81527f000000000000000000000000000000000000000000000000000000000000000060048201523360248201527f00000000000000000000000000000000000000000000000000000000000000006001600160a01b031690636e49181f90604401602060405180830381865afa158015611ed1573d6000803e3d6000fd5b505050506040513d601f19601f82011682018060405250810190611ef59190614695565b155b80611f2657507f0000000000000000000000000000000000000000000000000000000000000000816020013514155b15611f44576040516331c57b1b60e21b815260040160405180910390fd5b610ef481612c9a565b611f55612385565b6040516317161f7d60e01b81526001600160a01b0382811660048301527f000000000000000000000000000000000000000000000000000000000000000016906317161f7d90602401600060405180830381600087803b158015611fb857600080fd5b505af1158015611fcc573d6000803e3d6000fd5b50506040513381526001600160a01b03841692507fab0014d4c7a642a02a31b303a318908c22b0fb2001f107278fc6076b4c671b659150602001610bc3565b604051630155619b60e71b81523060048201526060907f00000000000000000000000000000000000000000000000000000000000000006001600160a01b03169063aab0cd8090602401600060405180830381865afa158015612072573d6000803e3d6000fd5b505050506040513d6000823e601f3d908101601f19168201604052610dd99190810190614a3c565b6120a2612385565b6001600160a01b03811661210c5760405162461bcd60e51b815260206004820152602660248201527f4f776e61626c653a206e6577206f776e657220697320746865207a65726f206160448201526564647265737360d01b60648201526084015b60405180910390fd5b610ef481612789565b60006001600160e01b0319821663b3bcbb7960e01b148061214657506001600160e01b031982166371700c6960e01b145b8061216157506001600160e01b0319821663da9ee8b760e01b145b8061217c57506001600160e01b03198216632b13c58f60e01b145b8061098c575061098c82612df8565b6000818152600260205260409020546001600160a01b0316610ef45760405163b49aa3b560e01b815260040160405180910390fd5b600081815260036020526040902080546001600160a01b0319166001600160a01b03841690811790915581906121f582610ef7565b6001600160a01b03167f8c5be1e5ebec7d5bd14f71427d1e84f3dd0314c0f7b2291e5b200ac8c7c3b92560405160405180910390a45050565b60008061223a83610ef7565b9050806001600160a01b0316846001600160a01b0316148061228157506001600160a01b0380821660009081526004602090815260408083209388168352929052205460ff165b80611d535750836001600160a01b031661229a84610a24565b6001600160a01b031614949350505050565b826001600160a01b03166122bf82610ef7565b6001600160a01b0316146122e65760405163a195bc5360e01b815260040160405180910390fd5b6001600160a01b03821661230d57604051632c95542760e01b815260040160405180910390fd5b612318838383612e48565b6123236000826121c0565b60008181526002602052604080822080546001600160a01b0319166001600160a01b0386811691821790925591518493918716917fddf252ad1be2c89b69c2b068fc378daa952ba7f163c4a11628f55a4df523b3ef91a4610ad2838383613060565b6009546001600160a01b03163314610fd55760405162461bcd60e51b815260206004820181905260248201527f4f776e61626c653a2063616c6c6572206973206e6f7420746865206f776e65726044820152606401612103565b60006123ea82610ef7565b90506123f881600084612e48565b6124036000836121c0565b60008281526002602052604080822080546001600160a01b0319169055518391906001600160a01b038416907fddf252ad1be2c89b69c2b068fc378daa952ba7f163c4a11628f55a4df523b3ef908390a461135c81600084613060565b6040516386bc2be360e01b81526001600160a01b037f000000000000000000000000000000000000000000000000000000000000000016906386bc2be3906124ac908490600401614b4e565b600060405180830381600087803b1580156124c657600080fd5b505af11580156124da573d6000803e3d6000fd5b5050505050565b6000306001600160a01b037f00000000000000000000000000000000000000000000000000000000000000001614801561253a57507f000000000000000000000000000000000000000000000000000000000000000046145b1561256457507f000000000000000000000000000000000000000000000000000000000000000090565b50604080517f00000000000000000000000000000000000000000000000000000000000000006020808301919091527f0000000000000000000000000000000000000000000000000000000000000000828401527f000000000000000000000000000000000000000000000000000000000000000060608301524660808301523060a0808401919091528351808403909101815260c0909201909252805191012090565b60004382106126595760405162461bcd60e51b815260206004820181905260248201527f436865636b706f696e74733a20626c6f636b206e6f7420796574206d696e65646044820152606401612103565b825460005b818110156126be57600061267282846131b4565b90508486600001828154811061268a5761268a61467f565b60009182526020909120015463ffffffff1611156126aa578092506126b8565b6126b58160016149a9565b91505b5061265e565b811561270257846126d0600184614996565b815481106126e0576126e061467f565b60009182526020909120015464010000000090046001600160e01b0316612705565b60005b6001600160e01b031695945050505050565b6001600160a01b0382811660008181526005602052604080822080548686166001600160a01b0319821681179092559151919094169392849290917f3134e8a2e6d97e929a7e54011ea5485d7d196dd5f0ba4d4ef95803e8e3fc257f9190a4610ad28183612784866131cf565b613228565b600980546001600160a01b038381166001600160a01b0319831681179093556040519116919082907f8be0079c531659141344cd1fd0a4f28419497f9722a3daafe3b4186f6b6457e090600090a35050565b8054600090801561282457826127f2600183614996565b815481106128025761280261467f565b60009182526020909120015464010000000090046001600160e01b0316612827565b60005b6001600160e01b03169392505050565b816001600160a01b0316836001600160a01b031603612869576040516306f8139d60e11b815260040160405180910390fd5b6001600160a01b03838116600081815260046020908152604080832094871680845294825291829020805460ff191686151590811790915591519182527f17307eab39ab6107e8899845ad3d59bd9653f200f220920489ca2b5937696c31910160405180910390a3505050565b60405163051330b560e21b81526000906001600160a01b037f0000000000000000000000000000000000000000000000000000000000000000169063144cc2d490610f829030908690600401614b61565b604051631572f24960e11b81523060048201526000907f00000000000000000000000000000000000000000000000000000000000000006001600160a01b031690632ae5e49290602401602060405180830381865afa15801561298e573d6000803e3d6000fd5b505050506040513d601f19601f82011682018060405250810190610dd991906147aa565b60008080600019858709858702925082811083820303915050806000036129ec578382816129e2576129e2614b85565b0492505050610e00565b838110612a1657604051631dcf306360e21b81526004810182905260248101859052604401612103565b60008486880960026001871981018816978890046003810283188082028403028082028403028082028403028082028403028082028403029081029092039091026000889003889004909101858311909403939093029303949094049190911702949350505050565b6001600160a01b038216612aa657604051633904578f60e11b815260040160405180910390fd5b6000818152600260205260409020546001600160a01b031615612adc57604051632eb5f0c360e21b815260040160405180910390fd5b612ae860008383612e48565b60008181526002602052604080822080546001600160a01b0319166001600160a01b03861690811790915590518392907fddf252ad1be2c89b69c2b068fc378daa952ba7f163c4a11628f55a4df523b3ef908290a461135c60008383613060565b6001600160a01b038381166000818152600a6020908152604080832086845290915280822080548786166001600160a01b0319821681179092559151919094169392849290917f3134e8a2e6d97e929a7e54011ea5485d7d196dd5f0ba4d4ef95803e8e3fc257f9190a4610dc9818484612bc38887613365565b613401565b612bd38484846122ac565b612bdf84848484613556565b610dc9576040516336f57c1b60e11b815260040160405180910390fd5b600061098c612c096124e1565b8360405161190160f01b6020820152602281018390526042810182905260009060620160405160208183030381529060405280519060200120905092915050565b6000806000612c5b87878787613655565b91509150612c6881613742565b5095945050505050565b6001600160a01b03811660009081526008602052604090208054600181018255905b50919050565b6001600160a01b037f000000000000000000000000000000000000000000000000000000000000000016612cd46080830160608401614004565b6001600160a01b031614612ce55750565b60808101356000806024612cfd6101e08601866146b2565b9050118015612d41575063b3bcbb7960e01b612d1d6101e08601866146b2565b612d2c91602491602091614b9b565b612d3591614bc5565b6001600160e01b031916145b15612da95760006060612d586101e08701876146b2565b810190612d659190614bf5565b919850965090945092505082159050612d8057505050505050565b805115612da657612da38582612d9e6101a08a016101808b01614004565b6138f8565b94505b50505b8215612dce57612dcb83612dc56101a087016101808801614004565b84613a52565b92505b808015612dda57508215155b15610dc957604051631b57826960e21b815260040160405180910390fd5b60006001600160e01b031982166380ac58cd60e01b1480612e2957506001600160e01b03198216635b5e139f60e01b145b8061098c57506301ffc9a760e01b6001600160e01b031983161461098c565b6040516321d1336160e11b81527f000000000000000000000000000000000000000000000000000000000000000060048201526000907f00000000000000000000000000000000000000000000000000000000000000006001600160a01b0316906343a266c29060240161012060405180830381865afa158015612ed0573d6000803e3d6000fd5b505050506040513d601f19601f82011682018060405250810190612ef491906149bc565b61010081015190915060f41c600190811603612f23576040516318cdaf9760e01b815260040160405180910390fd5b6001600160a01b03841615801590612fd357506040516308ed6c0160e41b8152306004820152602481018390526000906001600160a01b037f00000000000000000000000000000000000000000000000000000000000000001690638ed6c01090604401602060405180830381865afa158015612fa4573d6000803e3d6000fd5b505050506040513d601f19601f82011682018060405250810190612fc8919061478d565b6001600160a01b0316145b1561305b57604051638cec7d3960e01b8152600481018390526001600160a01b0385811660248301527f00000000000000000000000000000000000000000000000000000000000000001690638cec7d3990604401600060405180830381600087803b15801561304257600080fd5b505af1158015613056573d6000803e3d6000fd5b505050505b610dc9565b60405163b67cb04760e01b8152306004820152602481018290526000907f00000000000000000000000000000000000000000000000000000000000000006001600160a01b03169063b67cb0479060440161012060405180830381865afa1580156130cf573d6000803e3d6000fd5b505050506040513d601f19601f820116820180604052508101906130f391906149bc565b80516040516330b157e560e21b815260048101919091526001600160a01b03868116602483015285811660448301529192507f00000000000000000000000000000000000000000000000000000000000000009091169063c2c55f9490606401600060405180830381600087803b15801561316d57600080fd5b505af1158015613181573d6000803e3d6000fd5b505050508060a0015160001461305b576131a084848360a00151613b7e565b61305b848483600001518460a00151613bee565b60006131c36002848418614ceb565b610e00908484166149a9565b604051631266aaaf60e31b81523060048201526001600160a01b0382811660248301526000917f000000000000000000000000000000000000000000000000000000000000000090911690639335557890604401610f82565b816001600160a01b0316836001600160a01b03161415801561324a5750600081115b15610ad2576001600160a01b038316156132d8576001600160a01b0383166000908152600660205260408120819061328590613c9085613c9c565b91509150846001600160a01b03167fdec2bacdd2f05b59de34da9b523dff8be42e5e38e818c82fdb0bae774387a72483836040516132cd929190918252602082015260400190565b60405180910390a250505b6001600160a01b03821615610ad2576001600160a01b0382166000908152600660205260408120819061330e90613cca85613c9c565b91509150836001600160a01b03167fdec2bacdd2f05b59de34da9b523dff8be42e5e38e818c82fdb0bae774387a7248383604051613356929190918252602082015260400190565b60405180910390a25050505050565b6040516305c9a1d560e31b81523060048201526001600160a01b038381166024830152604482018390526000917f000000000000000000000000000000000000000000000000000000000000000090911690632e4d0ea890606401602060405180830381865afa1580156133dd573d6000803e3d6000fd5b505050506040513d601f19601f82011682018060405250810190610e0091906147aa565b826001600160a01b0316846001600160a01b0316148061341f575080155b610dc9576001600160a01b038416156134ba576001600160a01b0384166000908152600b602090815260408083208584529091528120819061346490613c9085613c9c565b60408051828152602081018890523381830152905192945090925083916001600160a01b038916917fed0c1e94c302bdbbd8bbd6a4fb7c3ed335c2292407cd816eadd075d019d0ce04919081900360600190a350505b6001600160a01b03831615610dc9576001600160a01b0383166000908152600b60209081526040808320858452909152812081906134fb90613cca85613c9c565b60408051838152602081018390523381830152905192945090925085916001600160a01b038816917fed0c1e94c302bdbbd8bbd6a4fb7c3ed335c2292407cd816eadd075d019d0ce04919081900360600190a3505050505050565b60006001600160a01b0384163b1561364d57604051630a85bd0160e11b81526001600160a01b0385169063150b7a029061359a903390899088908890600401614d0d565b6020604051808303816000875af19250505080156135d5575060408051601f3d908101601f191682019092526135d291810190614d4a565b60015b613633573d808015613603576040519150601f19603f3d011682016040523d82523d6000602084013e613608565b606091505b50805160000361362b576040516336f57c1b60e11b815260040160405180910390fd5b805181602001fd5b6001600160e01b031916630a85bd0160e11b149050611d53565b506001611d53565b6000807f7fffffffffffffffffffffffffffffff5d576e7357a4501ddfe92f46681b20a083111561368c5750600090506003613739565b8460ff16601b141580156136a457508460ff16601c14155b156136b55750600090506004613739565b6040805160008082526020820180845289905260ff881692820192909252606081018690526080810185905260019060a0016020604051602081039080840390855afa158015613709573d6000803e3d6000fd5b5050604051601f1901519150506001600160a01b03811661373257600060019250925050613739565b9150600090505b94509492505050565b600081600481111561375657613756614d67565b0361375e5750565b600181600481111561377257613772614d67565b036137bf5760405162461bcd60e51b815260206004820152601860248201527f45434453413a20696e76616c6964207369676e617475726500000000000000006044820152606401612103565b60028160048111156137d3576137d3614d67565b036138205760405162461bcd60e51b815260206004820152601f60248201527f45434453413a20696e76616c6964207369676e6174757265206c656e677468006044820152606401612103565b600381600481111561383457613834614d67565b0361388c5760405162461bcd60e51b815260206004820152602260248201527f45434453413a20696e76616c6964207369676e6174757265202773272076616c604482015261756560f01b6064820152608401612103565b60048160048111156138a0576138a0614d67565b03610ef45760405162461bcd60e51b815260206004820152602260248201527f45434453413a20696e76616c6964207369676e6174757265202776272076616c604482015261756560f01b6064820152608401612103565b600060607f00000000000000000000000000000000000000000000000000000000000000006001600160a01b03166316b047de86866040518363ffffffff1660e01b815260040161394a929190614d7d565b6000604051808303816000875af1158015613969573d6000803e3d6000fd5b505050506040513d6000823e601f3d908101601f191682016040526139919190810190614dcf565b81519093509091506000805b82811015613a47578381815181106139b7576139b761467f565b602002602001015191506139cb8683612a7f565b856001600160a01b03168782815181106139e7576139e761467f565b602002602001015161ffff16837f598baf7bf150ca2f42be9e9f8f55e81d45f5715c3ff22bf46d697fabec7f31d68b33604051613a379291909182526001600160a01b0316602082015260400190565b60405180910390a460010161399d565b505050509392505050565b60008060007f00000000000000000000000000000000000000000000000000000000000000006001600160a01b031663879791f3876040518263ffffffff1660e01b8152600401613aa591815260200190565b6060604051808303816000875af1158015613ac4573d6000803e3d6000fd5b505050506040513d601f19601f82011682018060405250810190613ae89190614e15565b945090925090506000829003613b1e578315613b1757604051630e5313df60e41b815260040160405180910390fd5b5050610e00565b613b288583612a7f565b6001600160a01b03851681837f598baf7bf150ca2f42be9e9f8f55e81d45f5715c3ff22bf46d697fabec7f31d6613b5f878b614996565b604080519182523360208301520160405180910390a450509392505050565b6001600160a01b038316613b9d57613b9a6007613cca83613c9c565b50505b6001600160a01b038216613bbc57613bb96007613c9083613c9c565b50505b6001600160a01b03838116600090815260056020526040808220548584168352912054610ad292918216911683613228565b6001600160a01b038416613c1a576000828152600c60205260409020613c1790613cca83613c9c565b50505b6001600160a01b038316613c46576000828152600c60205260409020613c4390613c9083613c9c565b50505b6001600160a01b038085166000908152600a60208181526040808420878552825280842054888616855292825280842087855290915290912054610dc99291821691168484613401565b6000610e008284614996565b600080613cbe85613cb9613caf886127db565b868863ffffffff16565b613cd6565b91509150935093915050565b6000610e0082846149a9565b8154600090819081613ce7866127db565b9050600082118015613d2557504386613d01600185614996565b81548110613d1157613d1161467f565b60009182526020909120015463ffffffff16145b15613d8557613d3385613e01565b86613d3f600185614996565b81548110613d4f57613d4f61467f565b9060005260206000200160000160046101000a8154816001600160e01b0302191690836001600160e01b03160217905550613df3565b856000016040518060400160405280613d9d43613e6e565b63ffffffff168152602001613db188613e01565b6001600160e01b0390811690915282546001810184556000938452602093849020835194909301519091166401000000000263ffffffff909316929092179101555b9250839150505b9250929050565b60006001600160e01b03821115613e6a5760405162461bcd60e51b815260206004820152602760248201527f53616665436173743a2076616c756520646f65736e27742066697420696e20326044820152663234206269747360c81b6064820152608401612103565b5090565b600063ffffffff821115613e6a5760405162461bcd60e51b815260206004820152602660248201527f53616665436173743a2076616c756520646f65736e27742066697420696e203360448201526532206269747360d01b6064820152608401612103565b6001600160e01b031981168114610ef457600080fd5b600060208284031215613efb57600080fd5b8135610e0081613ed3565b60005b83811015613f21578181015183820152602001613f09565b50506000910152565b60008151808452613f42816020860160208601613f06565b601f01601f19169290920160200192915050565b602081526000610e006020830184613f2a565b600060208284031215613f7b57600080fd5b5035919050565b6001600160a01b0381168114610ef457600080fd5b60008060408385031215613faa57600080fd5b8235613fb581613f82565b946020939093013593505050565b600080600060608486031215613fd857600080fd5b8335613fe381613f82565b92506020840135613ff381613f82565b929592945050506040919091013590565b60006020828403121561401657600080fd5b8135610e0081613f82565b634e487b7160e01b600052604160045260246000fd5b604080519081016001600160401b038111828210171561405957614059614021565b60405290565b60405161012081016001600160401b038111828210171561405957614059614021565b604051601f8201601f191681016001600160401b03811182821017156140aa576140aa614021565b604052919050565b60006001600160401b038211156140cb576140cb614021565b5060051b60200190565b600060208083850312156140e857600080fd5b82356001600160401b038111156140fe57600080fd5b8301601f8101851361410f57600080fd5b803561412261411d826140b2565b614082565b81815260069190911b8201830190838101908783111561414157600080fd5b928401925b82841015614184576040848903121561415f5760008081fd5b614167614037565b843581528585013586820152825260409093019290840190614146565b979650505050505050565b60006101e08284031215612c9457600080fd5b6000602082840312156141b457600080fd5b81356001600160401b038111156141ca57600080fd5b611d538482850161418f565b600080600080604085870312156141ec57600080fd5b84356001600160401b038082111561420357600080fd5b818701915087601f83011261421757600080fd5b81358181111561422657600080fd5b8860208260081b850101111561423b57600080fd5b60209283019650945090860135908082111561425657600080fd5b818701915087601f83011261426a57600080fd5b81358181111561427957600080fd5b8860208260051b850101111561428e57600080fd5b95989497505060200194505050565b60006001600160401b038211156142b6576142b6614021565b50601f01601f191660200190565b60006142d261411d8461429d565b90508281528383830111156142e657600080fd5b828260208301376000602084830101529392505050565b60006020828403121561430f57600080fd5b81356001600160401b0381111561432557600080fd5b8201601f8101841361433657600080fd5b611d53848235602084016142c4565b8015158114610ef457600080fd5b6000806040838503121561436657600080fd5b823561437181613f82565b9150602083013561438181614345565b809150509250929050565b838152600060206060818401526143a66060840186613f2a565b83810360408581019190915285518083528387019284019060005b818110156143ef57845180516001600160a01b031684528601518684015293850193918301916001016143c1565b50909998505050505050505050565b6000806040838503121561441157600080fd5b50508035926020909101359150565b6000806000806080858703121561443657600080fd5b843561444181613f82565b9350602085013561445181613f82565b92506040850135915060608501356001600160401b0381111561447357600080fd5b8501601f8101871361448457600080fd5b614493878235602084016142c4565b91505092959194509250565b60008060008060008060c087890312156144b857600080fd5b86356144c381613f82565b95506020870135945060408701359350606087013560ff811681146144e757600080fd5b9598949750929560808101359460a0909101359350915050565b6000806020838503121561451457600080fd5b82356001600160401b038082111561452b57600080fd5b818501915085601f83011261453f57600080fd5b81358181111561454e57600080fd5b86602082850101111561456057600080fd5b60209290920196919550909350505050565b60008060006060848603121561458757600080fd5b833561459281613f82565b95602085013595506040909401359392505050565b6000602082840312156145b957600080fd5b81356001600160401b038111156145cf57600080fd5b82016101a08185031215610e0057600080fd5b6000602082840312156145f457600080fd5b81356001600160401b0381111561460a57600080fd5b82016102008185031215610e0057600080fd5b6000806040838503121561463057600080fd5b823561463b81613f82565b9150602083013561438181613f82565b600181811c9082168061465f57607f821691505b602082108103612c9457634e487b7160e01b600052602260045260246000fd5b634e487b7160e01b600052603260045260246000fd5b6000602082840312156146a757600080fd5b8151610e0081614345565b6000808335601e198436030181126146c957600080fd5b8301803591506001600160401b038211156146e357600080fd5b602001915036819003821315613dfa57600080fd5b6000602080838503121561470b57600080fd5b82356001600160401b0381111561472157600080fd5b8301601f8101851361473257600080fd5b803561474061411d826140b2565b81815260059190911b8201830190838101908783111561475f57600080fd5b928401925b8284101561418457833582529284019290840190614764565b805161478881613f82565b919050565b60006020828403121561479f57600080fd5b8151610e0081613f82565b6000602082840312156147bc57600080fd5b5051919050565b803582526020810135602083015260408101356040830152606081013560608301526080810135608083015260a08101356147fd81613f82565b6001600160a01b031660a083015260c0818101359083015260e081013561482381614345565b80151560e0840152505050565b6020808252810182905260008360408301825b85811015612c685761485582846147c3565b610100928301929190910190600101614843565b600082601f83011261487a57600080fd5b8151602061488a61411d836140b2565b82815260059290921b840181019181810190868411156148a957600080fd5b8286015b848110156148c457805183529183019183016148ad565b509695505050505050565b6000602082840312156148e157600080fd5b81516001600160401b038111156148f757600080fd5b611d5384828501614869565b610120810161491282856147c3565b6001600160a01b03929092166101009190910152919050565b6020808252810182905260006001600160fb1b0383111561494b57600080fd5b8260051b80856040850137919091016040019392505050565b60008251614976818460208701613f06565b9190910192915050565b634e487b7160e01b600052601160045260246000fd5b8181038181111561098c5761098c614980565b8082018082111561098c5761098c614980565b600061012082840312156149cf57600080fd5b6149d761405f565b825181526020830151602082015260408301516040820152606083015160608201526080830151608082015260a083015160a082015260c083015160c0820152614a2360e0840161477d565b60e0820152610100928301519281019290925250919050565b600060208284031215614a4e57600080fd5b81516001600160401b03811115614a6457600080fd5b8201601f81018413614a7557600080fd5b8051614a8361411d8261429d565b818152856020838501011115614a9857600080fd5b614aa9826020830160208601613f06565b95945050505050565b604081526000614ac56040830185613f2a565b90508260208301529392505050565b60208152816020820152818360408301376000818301604090810191909152601f909201601f19160101919050565b8183823760009101908152919050565b600081518084526020808501945080840160005b83811015614b4357815187529582019590820190600101614b27565b509495945050505050565b602081526000610e006020830184614b13565b6001600160a01b0383168152604060208201819052600090611d5390830184614b13565b634e487b7160e01b600052601260045260246000fd5b60008085851115614bab57600080fd5b83861115614bb857600080fd5b5050820193919092039150565b6001600160e01b03198135818116916004851015614bed5780818660040360031b1b83161692505b505092915050565b60008060008060008060c08789031215614c0e57600080fd5b86359550602080880135614c2181613ed3565b95506040880135614c3181614345565b94506060880135614c4181614345565b93506080880135614c5181614345565b925060a08801356001600160401b03811115614c6c57600080fd5b8801601f81018a13614c7d57600080fd5b8035614c8b61411d826140b2565b81815260059190911b8201830190838101908c831115614caa57600080fd5b928401925b82841015614cd957833561ffff81168114614cca5760008081fd5b82529284019290840190614caf565b80955050505050509295509295509295565b600082614d0857634e487b7160e01b600052601260045260246000fd5b500490565b6001600160a01b0385811682528416602082015260408101839052608060608201819052600090614d4090830184613f2a565b9695505050505050565b600060208284031215614d5c57600080fd5b8151610e0081613ed3565b634e487b7160e01b600052602160045260246000fd5b6000604082018483526020604081850152818551808452606086019150828701935060005b81811015614dc257845161ffff1683529383019391830191600101614da2565b5090979650505050505050565b60008060408385031215614de257600080fd5b82516001600160401b03811115614df857600080fd5b614e0485828601614869565b925050602083015190509250929050565b600080600060608486031215614e2a57600080fd5b835192506020840151915060408401519050925092509256fea2646970667358221220faeaaa114b35e1f610e9110a769b2c46b97d1e0f16615b9ac285fceea9fec81064736f6c63430008100033",
    "linkReferences": {
      "contracts/libraries/JBIpfsDecoder.sol": {
        "JBIpfsDecoder": [
          {
            "start": 10076,
            "length": 20
          }
        ]
      }
    }
  },
  "methodIdentifiers": {
    "DOMAIN_SEPARATOR()": "3644e515",
    "adjustTiers((uint256,uint256,uint256,uint256,uint256,address,bytes32,bool)[],uint256[])": "9d927a50",
    "approve(address,uint256)": "095ea7b3",
    "balanceOf(address)": "70a08231",
    "contractURI()": "e8a3d485",
    "contributionToken()": "4bedf9a8",
    "delegate(address)": "5c19a95c",
    "delegateBySig(address,uint256,uint256,uint8,bytes32,bytes32)": "c3cda520",
    "delegates(address)": "587cde1e",
    "didPay((address,uint256,uint256,(address,uint256,uint256,uint256),(address,uint256,uint256,uint256),uint256,address,bool,string,bytes))": "da9ee8b7",
    "didRedeem((address,uint256,uint256,uint256,(address,uint256,uint256,uint256),(address,uint256,uint256,uint256),address,string,bytes))": "2b13c58f",
    "directory()": "c41c2f24",
    "firstOwnerOf(uint256)": "54c6d1f5",
    "fundingCycleStore()": "557e7155",
    "getApproved(uint256)": "081812fc",
    "getPastTierTotalVotes(uint256,uint256)": "d31cc52c",
    "getPastTierVotes(address,uint256,uint256)": "d40e7146",
    "getPastTotalSupply(uint256)": "8e539e8c",
    "getPastVotes(address,uint256)": "3a46b1a8",
    "getTierDelegate(address,uint256)": "82732b6d",
    "getTierTotalVotes(uint256)": "94c5c5ca",
    "getTierVotes(address,uint256)": "ca323efe",
    "getVotes(address)": "9ab24eb0",
    "isApprovedForAll(address,address)": "e985e9c5",
    "mintReservesFor((uint256,uint256)[])": "2a596e53",
    "mintReservesFor(uint256,uint256)": "aa4fb15b",
    "name()": "06fdde03",
    "nonces(address)": "7ecebe00",
    "owner()": "8da5cb5b",
    "ownerOf(uint256)": "6352211e",
    "payParams((address,address,(address,uint256,uint256,uint256),uint256,uint256,address,uint256,uint256,string,bytes))": "d46cf171",
    "projectId()": "3fafa127",
    "redeemParams((address,address,uint256,uint256,uint256,uint256,uint256,(address,uint256,uint256,uint256),bool,uint256,string,bytes))": "a51cfd18",
    "renounceOwnership()": "715018a6",
    "safeTransferFrom(address,address,uint256)": "42842e0e",
    "safeTransferFrom(address,address,uint256,bytes)": "b88d4fde",
    "setApprovalForAll(address,bool)": "a22cb465",
    "setBaseUri(string)": "a0bcfc7f",
    "setContractUri(string)": "ccb4807b",
    "setDefaultReservedTokenBeneficiary(address)": "df487e26",
    "setTierDelegate(address,uint256)": "ab951e39",
    "setTokenUriResolver(address)": "2407497e",
    "store()": "975057e7",
    "supportsInterface(bytes4)": "01ffc9a7",
    "symbol()": "95d89b41",
    "tokenURI(uint256)": "c87b56dd",
    "transferFrom(address,address,uint256)": "23b872dd",
    "transferOwnership(address)": "f2fde38b"
  },
  "id": 0
}