{
  "abi": [
    {
      "inputs": [
        {
          "internalType": "contract IJBDirectory",
          "name": "_directory",
          "type": "address"
        },
        {
          "internalType": "contract IJBOperatorStore",
          "name": "_operatorStore",
          "type": "address"
        },
        {
          "internalType": "bytes4",
          "name": "_payMetadataDelegateId",
          "type": "bytes4"
        },
        {
          "internalType": "bytes4",
          "name": "_redeemMetadataDelegateId",
          "type": "bytes4"
        }
      ],
      "stateMutability": "nonpayable",
      "type": "constructor"
    },
    {
      "inputs": [],
      "name": "ALEADY_MINTED",
      "type": "error"
    },
    {
      "inputs": [],
      "name": "APPROVAL_TO_CURRENT_OWNER",
      "type": "error"
    },
    {
      "inputs": [],
      "name": "APPROVE_TO_CALLER",
      "type": "error"
    },
    {
      "inputs": [],
      "name": "CALLER_NOT_OWNER_OR_APPROVED",
      "type": "error"
    },
    {
      "inputs": [],
      "name": "INCORRECT_OWNER",
      "type": "error"
    },
    {
      "inputs": [
        {
          "internalType": "address",
          "name": "ownerAddress",
          "type": "address"
        },
        {
          "internalType": "uint256",
          "name": "projectId",
          "type": "uint256"
        }
      ],
      "name": "INVALID_NEW_OWNER",
      "type": "error"
    },
    {
      "inputs": [],
      "name": "INVALID_PAYMENT_EVENT",
      "type": "error"
    },
    {
      "inputs": [],
      "name": "INVALID_REDEMPTION_EVENT",
      "type": "error"
    },
    {
      "inputs": [],
      "name": "INVALID_REDEMPTION_METADATA",
      "type": "error"
    },
    {
      "inputs": [],
      "name": "INVALID_TOKEN_ID",
      "type": "error"
    },
    {
      "inputs": [],
      "name": "MINT_TO_ZERO",
      "type": "error"
    },
    {
      "inputs": [],
      "name": "OVERSPENDING",
      "type": "error"
    },
    {
      "inputs": [
        {
          "internalType": "uint256",
          "name": "x",
          "type": "uint256"
        },
        {
          "internalType": "uint256",
          "name": "y",
          "type": "uint256"
        },
        {
          "internalType": "uint256",
          "name": "denominator",
          "type": "uint256"
        }
      ],
      "name": "PRBMath_MulDiv_Overflow",
      "type": "error"
    },
    {
      "inputs": [],
      "name": "RESERVED_TOKEN_MINTING_PAUSED",
      "type": "error"
    },
    {
      "inputs": [],
      "name": "TRANSFERS_PAUSED",
      "type": "error"
    },
    {
      "inputs": [],
      "name": "TRANSFER_TO_NON_IMPLEMENTER",
      "type": "error"
    },
    {
      "inputs": [],
      "name": "TRANSFER_TO_ZERO_ADDRESS",
      "type": "error"
    },
    {
      "inputs": [],
      "name": "UNAUTHORIZED",
      "type": "error"
    },
    {
      "inputs": [
        {
          "internalType": "uint256",
          "name": "_tokenId",
          "type": "uint256"
        }
      ],
      "name": "UNAUTHORIZED_TOKEN",
      "type": "error"
    },
    {
      "inputs": [],
      "name": "UNEXPECTED_TOKEN_REDEEMED",
      "type": "error"
    },
    {
      "anonymous": false,
      "inputs": [
        {
          "indexed": true,
          "internalType": "uint256",
          "name": "changeAmount",
          "type": "uint256"
        },
        {
          "indexed": true,
          "internalType": "uint256",
          "name": "newTotalCredits",
          "type": "uint256"
        },
        {
          "indexed": true,
          "internalType": "address",
          "name": "account",
          "type": "address"
        },
        {
          "indexed": false,
          "internalType": "address",
          "name": "caller",
          "type": "address"
        }
      ],
      "name": "AddCredits",
      "type": "event"
    },
    {
      "anonymous": false,
      "inputs": [
        {
          "indexed": true,
          "internalType": "uint256",
          "name": "tierId",
          "type": "uint256"
        },
        {
          "components": [
            {
              "internalType": "uint104",
              "name": "price",
              "type": "uint104"
            },
            {
              "internalType": "uint32",
              "name": "initialQuantity",
              "type": "uint32"
            },
            {
              "internalType": "uint32",
              "name": "votingUnits",
              "type": "uint32"
            },
            {
              "internalType": "uint16",
              "name": "reservedRate",
              "type": "uint16"
            },
            {
              "internalType": "address",
              "name": "reservedTokenBeneficiary",
              "type": "address"
            },
            {
              "internalType": "bytes32",
              "name": "encodedIPFSUri",
              "type": "bytes32"
            },
            {
              "internalType": "uint24",
              "name": "category",
              "type": "uint24"
            },
            {
              "internalType": "bool",
              "name": "allowManualMint",
              "type": "bool"
            },
            {
              "internalType": "bool",
              "name": "shouldUseReservedTokenBeneficiaryAsDefault",
              "type": "bool"
            },
            {
              "internalType": "bool",
              "name": "transfersPausable",
              "type": "bool"
            },
            {
              "internalType": "bool",
              "name": "useVotingUnits",
              "type": "bool"
            }
          ],
          "indexed": false,
          "internalType": "struct JB721TierParams",
          "name": "data",
          "type": "tuple"
        },
        {
          "indexed": false,
          "internalType": "address",
          "name": "caller",
          "type": "address"
        }
      ],
      "name": "AddTier",
      "type": "event"
    },
    {
      "anonymous": false,
      "inputs": [
        {
          "indexed": true,
          "internalType": "address",
          "name": "owner",
          "type": "address"
        },
        {
          "indexed": true,
          "internalType": "address",
          "name": "approved",
          "type": "address"
        },
        {
          "indexed": true,
          "internalType": "uint256",
          "name": "tokenId",
          "type": "uint256"
        }
      ],
      "name": "Approval",
      "type": "event"
    },
    {
      "anonymous": false,
      "inputs": [
        {
          "indexed": true,
          "internalType": "address",
          "name": "owner",
          "type": "address"
        },
        {
          "indexed": true,
          "internalType": "address",
          "name": "operator",
          "type": "address"
        },
        {
          "indexed": false,
          "internalType": "bool",
          "name": "approved",
          "type": "bool"
        }
      ],
      "name": "ApprovalForAll",
      "type": "event"
    },
    {
      "anonymous": false,
      "inputs": [
        {
          "indexed": true,
          "internalType": "uint256",
          "name": "tokenId",
          "type": "uint256"
        },
        {
          "indexed": true,
          "internalType": "uint256",
          "name": "tierId",
          "type": "uint256"
        },
        {
          "indexed": true,
          "internalType": "address",
          "name": "beneficiary",
          "type": "address"
        },
        {
          "indexed": false,
          "internalType": "uint256",
          "name": "totalAmountContributed",
          "type": "uint256"
        },
        {
          "indexed": false,
          "internalType": "address",
          "name": "caller",
          "type": "address"
        }
      ],
      "name": "Mint",
      "type": "event"
    },
    {
      "anonymous": false,
      "inputs": [
        {
          "indexed": true,
          "internalType": "uint256",
          "name": "tokenId",
          "type": "uint256"
        },
        {
          "indexed": true,
          "internalType": "uint256",
          "name": "tierId",
          "type": "uint256"
        },
        {
          "indexed": true,
          "internalType": "address",
          "name": "beneficiary",
          "type": "address"
        },
        {
          "indexed": false,
          "internalType": "address",
          "name": "caller",
          "type": "address"
        }
      ],
      "name": "MintReservedToken",
      "type": "event"
    },
    {
      "anonymous": false,
      "inputs": [
        {
          "indexed": true,
          "internalType": "address",
          "name": "previousOwner",
          "type": "address"
        },
        {
          "indexed": true,
          "internalType": "address",
          "name": "newOwner",
          "type": "address"
        }
      ],
      "name": "OwnershipTransferred",
      "type": "event"
    },
    {
      "anonymous": false,
      "inputs": [
        {
          "indexed": false,
          "internalType": "uint8",
          "name": "newIndex",
          "type": "uint8"
        }
      ],
      "name": "PermissionIndexChanged",
      "type": "event"
    },
    {
      "anonymous": false,
      "inputs": [
        {
          "indexed": true,
          "internalType": "uint256",
          "name": "tierId",
          "type": "uint256"
        },
        {
          "indexed": false,
          "internalType": "address",
          "name": "caller",
          "type": "address"
        }
      ],
      "name": "RemoveTier",
      "type": "event"
    },
    {
      "anonymous": false,
      "inputs": [
        {
          "indexed": true,
          "internalType": "string",
          "name": "baseUri",
          "type": "string"
        },
        {
          "indexed": false,
          "internalType": "address",
          "name": "caller",
          "type": "address"
        }
      ],
      "name": "SetBaseUri",
      "type": "event"
    },
    {
      "anonymous": false,
      "inputs": [
        {
          "indexed": true,
          "internalType": "string",
          "name": "contractUri",
          "type": "string"
        },
        {
          "indexed": false,
          "internalType": "address",
          "name": "caller",
          "type": "address"
        }
      ],
      "name": "SetContractUri",
      "type": "event"
    },
    {
      "anonymous": false,
      "inputs": [
        {
          "indexed": true,
          "internalType": "uint256",
          "name": "tierId",
          "type": "uint256"
        },
        {
          "indexed": false,
          "internalType": "bytes32",
          "name": "encodedIPFSUri",
          "type": "bytes32"
        },
        {
          "indexed": false,
          "internalType": "address",
          "name": "caller",
          "type": "address"
        }
      ],
      "name": "SetEncodedIPFSUri",
      "type": "event"
    },
    {
      "anonymous": false,
      "inputs": [
        {
          "indexed": true,
          "internalType": "contract IJB721TokenUriResolver",
          "name": "newResolver",
          "type": "address"
        },
        {
          "indexed": false,
          "internalType": "address",
          "name": "caller",
          "type": "address"
        }
      ],
      "name": "SetTokenUriResolver",
      "type": "event"
    },
    {
      "anonymous": false,
      "inputs": [
        {
          "indexed": true,
          "internalType": "address",
          "name": "from",
          "type": "address"
        },
        {
          "indexed": true,
          "internalType": "address",
          "name": "to",
          "type": "address"
        },
        {
          "indexed": true,
          "internalType": "uint256",
          "name": "tokenId",
          "type": "uint256"
        }
      ],
      "name": "Transfer",
      "type": "event"
    },
    {
      "anonymous": false,
      "inputs": [
        {
          "indexed": true,
          "internalType": "uint256",
          "name": "changeAmount",
          "type": "uint256"
        },
        {
          "indexed": true,
          "internalType": "uint256",
          "name": "newTotalCredits",
          "type": "uint256"
        },
        {
          "indexed": true,
          "internalType": "address",
          "name": "account",
          "type": "address"
        },
        {
          "indexed": false,
          "internalType": "address",
          "name": "caller",
          "type": "address"
        }
      ],
      "name": "UseCredits",
      "type": "event"
    },
    {
      "inputs": [
        {
          "components": [
            {
              "internalType": "uint104",
              "name": "price",
              "type": "uint104"
            },
            {
              "internalType": "uint32",
              "name": "initialQuantity",
              "type": "uint32"
            },
            {
              "internalType": "uint32",
              "name": "votingUnits",
              "type": "uint32"
            },
            {
              "internalType": "uint16",
              "name": "reservedRate",
              "type": "uint16"
            },
            {
              "internalType": "address",
              "name": "reservedTokenBeneficiary",
              "type": "address"
            },
            {
              "internalType": "bytes32",
              "name": "encodedIPFSUri",
              "type": "bytes32"
            },
            {
              "internalType": "uint24",
              "name": "category",
              "type": "uint24"
            },
            {
              "internalType": "bool",
              "name": "allowManualMint",
              "type": "bool"
            },
            {
              "internalType": "bool",
              "name": "shouldUseReservedTokenBeneficiaryAsDefault",
              "type": "bool"
            },
            {
              "internalType": "bool",
              "name": "transfersPausable",
              "type": "bool"
            },
            {
              "internalType": "bool",
              "name": "useVotingUnits",
              "type": "bool"
            }
          ],
          "internalType": "struct JB721TierParams[]",
          "name": "_tiersToAdd",
          "type": "tuple[]"
        },
        {
          "internalType": "uint256[]",
          "name": "_tierIdsToRemove",
          "type": "uint256[]"
        }
      ],
      "name": "adjustTiers",
      "outputs": [],
      "stateMutability": "nonpayable",
      "type": "function"
    },
    {
      "inputs": [
        {
          "internalType": "address",
          "name": "to",
          "type": "address"
        },
        {
          "internalType": "uint256",
          "name": "tokenId",
          "type": "uint256"
        }
      ],
      "name": "approve",
      "outputs": [],
      "stateMutability": "nonpayable",
      "type": "function"
    },
    {
      "inputs": [
        {
          "internalType": "address",
          "name": "_owner",
          "type": "address"
        }
      ],
      "name": "balanceOf",
      "outputs": [
        {
          "internalType": "uint256",
          "name": "balance",
          "type": "uint256"
        }
      ],
      "stateMutability": "view",
      "type": "function"
    },
    {
      "inputs": [],
      "name": "baseURI",
      "outputs": [
        {
          "internalType": "string",
          "name": "",
          "type": "string"
        }
      ],
      "stateMutability": "view",
      "type": "function"
    },
    {
      "inputs": [],
      "name": "codeOrigin",
      "outputs": [
        {
          "internalType": "address",
          "name": "",
          "type": "address"
        }
      ],
      "stateMutability": "view",
      "type": "function"
    },
    {
      "inputs": [],
      "name": "contractURI",
      "outputs": [
        {
          "internalType": "string",
          "name": "",
          "type": "string"
        }
      ],
      "stateMutability": "view",
      "type": "function"
    },
    {
      "inputs": [
        {
          "internalType": "address",
          "name": "",
          "type": "address"
        }
      ],
      "name": "creditsOf",
      "outputs": [
        {
          "internalType": "uint256",
          "name": "",
          "type": "uint256"
        }
      ],
      "stateMutability": "view",
      "type": "function"
    },
    {
      "inputs": [
        {
          "components": [
            {
              "internalType": "address",
              "name": "payer",
              "type": "address"
            },
            {
              "internalType": "uint256",
              "name": "projectId",
              "type": "uint256"
            },
            {
              "internalType": "uint256",
              "name": "currentFundingCycleConfiguration",
              "type": "uint256"
            },
            {
              "components": [
                {
                  "internalType": "address",
                  "name": "token",
                  "type": "address"
                },
                {
                  "internalType": "uint256",
                  "name": "value",
                  "type": "uint256"
                },
                {
                  "internalType": "uint256",
                  "name": "decimals",
                  "type": "uint256"
                },
                {
                  "internalType": "uint256",
                  "name": "currency",
                  "type": "uint256"
                }
              ],
              "internalType": "struct JBTokenAmount",
              "name": "amount",
              "type": "tuple"
            },
            {
              "components": [
                {
                  "internalType": "address",
                  "name": "token",
                  "type": "address"
                },
                {
                  "internalType": "uint256",
                  "name": "value",
                  "type": "uint256"
                },
                {
                  "internalType": "uint256",
                  "name": "decimals",
                  "type": "uint256"
                },
                {
                  "internalType": "uint256",
                  "name": "currency",
                  "type": "uint256"
                }
              ],
              "internalType": "struct JBTokenAmount",
              "name": "forwardedAmount",
              "type": "tuple"
            },
            {
              "internalType": "uint256",
              "name": "projectTokenCount",
              "type": "uint256"
            },
            {
              "internalType": "address",
              "name": "beneficiary",
              "type": "address"
            },
            {
              "internalType": "bool",
              "name": "preferClaimedTokens",
              "type": "bool"
            },
            {
              "internalType": "string",
              "name": "memo",
              "type": "string"
            },
            {
              "internalType": "bytes",
              "name": "dataSourceMetadata",
              "type": "bytes"
            },
            {
              "internalType": "bytes",
              "name": "payerMetadata",
              "type": "bytes"
            }
          ],
          "internalType": "struct JBDidPayData3_1_1",
          "name": "_data",
          "type": "tuple"
        }
      ],
      "name": "didPay",
      "outputs": [],
      "stateMutability": "payable",
      "type": "function"
    },
    {
      "inputs": [
        {
          "components": [
            {
              "internalType": "address",
              "name": "holder",
              "type": "address"
            },
            {
              "internalType": "uint256",
              "name": "projectId",
              "type": "uint256"
            },
            {
              "internalType": "uint256",
              "name": "currentFundingCycleConfiguration",
              "type": "uint256"
            },
            {
              "internalType": "uint256",
              "name": "projectTokenCount",
              "type": "uint256"
            },
            {
              "components": [
                {
                  "internalType": "address",
                  "name": "token",
                  "type": "address"
                },
                {
                  "internalType": "uint256",
                  "name": "value",
                  "type": "uint256"
                },
                {
                  "internalType": "uint256",
                  "name": "decimals",
                  "type": "uint256"
                },
                {
                  "internalType": "uint256",
                  "name": "currency",
                  "type": "uint256"
                }
              ],
              "internalType": "struct JBTokenAmount",
              "name": "reclaimedAmount",
              "type": "tuple"
            },
            {
              "components": [
                {
                  "internalType": "address",
                  "name": "token",
                  "type": "address"
                },
                {
                  "internalType": "uint256",
                  "name": "value",
                  "type": "uint256"
                },
                {
                  "internalType": "uint256",
                  "name": "decimals",
                  "type": "uint256"
                },
                {
                  "internalType": "uint256",
                  "name": "currency",
                  "type": "uint256"
                }
              ],
              "internalType": "struct JBTokenAmount",
              "name": "forwardedAmount",
              "type": "tuple"
            },
            {
              "internalType": "address payable",
              "name": "beneficiary",
              "type": "address"
            },
            {
              "internalType": "string",
              "name": "memo",
              "type": "string"
            },
            {
              "internalType": "bytes",
              "name": "dataSourceMetadata",
              "type": "bytes"
            },
            {
              "internalType": "bytes",
              "name": "redeemerMetadata",
              "type": "bytes"
            }
          ],
          "internalType": "struct JBDidRedeemData3_1_1",
          "name": "_data",
          "type": "tuple"
        }
      ],
      "name": "didRedeem",
      "outputs": [],
      "stateMutability": "payable",
      "type": "function"
    },
    {
      "inputs": [],
      "name": "directory",
      "outputs": [
        {
          "internalType": "contract IJBDirectory",
          "name": "",
          "type": "address"
        }
      ],
      "stateMutability": "view",
      "type": "function"
    },
    {
      "inputs": [
        {
          "internalType": "uint256",
          "name": "_tokenId",
          "type": "uint256"
        }
      ],
      "name": "firstOwnerOf",
      "outputs": [
        {
          "internalType": "address",
          "name": "",
          "type": "address"
        }
      ],
      "stateMutability": "view",
      "type": "function"
    },
    {
      "inputs": [],
      "name": "fundingCycleStore",
      "outputs": [
        {
          "internalType": "contract IJBFundingCycleStore",
          "name": "",
          "type": "address"
        }
      ],
      "stateMutability": "view",
      "type": "function"
    },
    {
      "inputs": [
        {
          "internalType": "uint256",
          "name": "tokenId",
          "type": "uint256"
        }
      ],
      "name": "getApproved",
      "outputs": [
        {
          "internalType": "address",
          "name": "",
          "type": "address"
        }
      ],
      "stateMutability": "view",
      "type": "function"
    },
    {
      "inputs": [
        {
          "internalType": "uint256",
          "name": "_projectId",
          "type": "uint256"
        },
        {
          "internalType": "string",
          "name": "_name",
          "type": "string"
        },
        {
          "internalType": "string",
          "name": "_symbol",
          "type": "string"
        },
        {
          "internalType": "contract IJBFundingCycleStore",
          "name": "_fundingCycleStore",
          "type": "address"
        },
        {
          "internalType": "string",
          "name": "_baseUri",
          "type": "string"
        },
        {
          "internalType": "contract IJB721TokenUriResolver",
          "name": "_tokenUriResolver",
          "type": "address"
        },
        {
          "internalType": "string",
          "name": "_contractUri",
          "type": "string"
        },
        {
          "components": [
            {
              "components": [
                {
                  "internalType": "uint104",
                  "name": "price",
                  "type": "uint104"
                },
                {
                  "internalType": "uint32",
                  "name": "initialQuantity",
                  "type": "uint32"
                },
                {
                  "internalType": "uint32",
                  "name": "votingUnits",
                  "type": "uint32"
                },
                {
                  "internalType": "uint16",
                  "name": "reservedRate",
                  "type": "uint16"
                },
                {
                  "internalType": "address",
                  "name": "reservedTokenBeneficiary",
                  "type": "address"
                },
                {
                  "internalType": "bytes32",
                  "name": "encodedIPFSUri",
                  "type": "bytes32"
                },
                {
                  "internalType": "uint24",
                  "name": "category",
                  "type": "uint24"
                },
                {
                  "internalType": "bool",
                  "name": "allowManualMint",
                  "type": "bool"
                },
                {
                  "internalType": "bool",
                  "name": "shouldUseReservedTokenBeneficiaryAsDefault",
                  "type": "bool"
                },
                {
                  "internalType": "bool",
                  "name": "transfersPausable",
                  "type": "bool"
                },
                {
                  "internalType": "bool",
                  "name": "useVotingUnits",
                  "type": "bool"
                }
              ],
              "internalType": "struct JB721TierParams[]",
              "name": "tiers",
              "type": "tuple[]"
            },
            {
              "internalType": "uint48",
              "name": "currency",
              "type": "uint48"
            },
            {
              "internalType": "uint48",
              "name": "decimals",
              "type": "uint48"
            },
            {
              "internalType": "contract IJBPrices",
              "name": "prices",
              "type": "address"
            }
          ],
          "internalType": "struct JB721PricingParams",
          "name": "_pricing",
          "type": "tuple"
        },
        {
          "internalType": "contract IJBTiered721DelegateStore",
          "name": "_store",
          "type": "address"
        },
        {
          "components": [
            {
              "internalType": "bool",
              "name": "lockReservedTokenChanges",
              "type": "bool"
            },
            {
              "internalType": "bool",
              "name": "lockVotingUnitChanges",
              "type": "bool"
            },
            {
              "internalType": "bool",
              "name": "lockManualMintingChanges",
              "type": "bool"
            },
            {
              "internalType": "bool",
              "name": "preventOverspending",
              "type": "bool"
            }
          ],
          "internalType": "struct JBTiered721Flags",
          "name": "_flags",
          "type": "tuple"
        }
      ],
      "name": "initialize",
      "outputs": [],
      "stateMutability": "nonpayable",
      "type": "function"
    },
    {
      "inputs": [
        {
          "internalType": "address",
          "name": "owner",
          "type": "address"
        },
        {
          "internalType": "address",
          "name": "operator",
          "type": "address"
        }
      ],
      "name": "isApprovedForAll",
      "outputs": [
        {
          "internalType": "bool",
          "name": "",
          "type": "bool"
        }
      ],
      "stateMutability": "view",
      "type": "function"
    },
    {
      "inputs": [],
      "name": "jbOwner",
      "outputs": [
        {
          "internalType": "address",
          "name": "owner",
          "type": "address"
        },
        {
          "internalType": "uint88",
          "name": "projectId",
          "type": "uint88"
        },
        {
          "internalType": "uint8",
          "name": "permissionIndex",
          "type": "uint8"
        }
      ],
      "stateMutability": "view",
      "type": "function"
    },
    {
      "inputs": [
        {
          "internalType": "uint16[]",
          "name": "_tierIds",
          "type": "uint16[]"
        },
        {
          "internalType": "address",
          "name": "_beneficiary",
          "type": "address"
        }
      ],
      "name": "mintFor",
      "outputs": [
        {
          "internalType": "uint256[]",
          "name": "tokenIds",
          "type": "uint256[]"
        }
      ],
      "stateMutability": "nonpayable",
      "type": "function"
    },
    {
      "inputs": [
        {
          "components": [
            {
              "internalType": "uint256",
              "name": "tierId",
              "type": "uint256"
            },
            {
              "internalType": "uint256",
              "name": "count",
              "type": "uint256"
            }
          ],
          "internalType": "struct JBTiered721MintReservesForTiersData[]",
          "name": "_mintReservesForTiersData",
          "type": "tuple[]"
        }
      ],
      "name": "mintReservesFor",
      "outputs": [],
      "stateMutability": "nonpayable",
      "type": "function"
    },
    {
      "inputs": [
        {
          "internalType": "uint256",
          "name": "_tierId",
          "type": "uint256"
        },
        {
          "internalType": "uint256",
          "name": "_count",
          "type": "uint256"
        }
      ],
      "name": "mintReservesFor",
      "outputs": [],
      "stateMutability": "nonpayable",
      "type": "function"
    },
    {
      "inputs": [],
      "name": "name",
      "outputs": [
        {
          "internalType": "string",
          "name": "",
          "type": "string"
        }
      ],
      "stateMutability": "view",
      "type": "function"
    },
    {
      "inputs": [],
      "name": "operatorStore",
      "outputs": [
        {
          "internalType": "contract IJBOperatorStore",
          "name": "",
          "type": "address"
        }
      ],
      "stateMutability": "view",
      "type": "function"
    },
    {
      "inputs": [],
      "name": "owner",
      "outputs": [
        {
          "internalType": "address",
          "name": "",
          "type": "address"
        }
      ],
      "stateMutability": "view",
      "type": "function"
    },
    {
      "inputs": [
        {
          "internalType": "uint256",
          "name": "tokenId",
          "type": "uint256"
        }
      ],
      "name": "ownerOf",
      "outputs": [
        {
          "internalType": "address",
          "name": "",
          "type": "address"
        }
      ],
      "stateMutability": "view",
      "type": "function"
    },
    {
      "inputs": [],
      "name": "payMetadataDelegateId",
      "outputs": [
        {
          "internalType": "bytes4",
          "name": "",
          "type": "bytes4"
        }
      ],
      "stateMutability": "view",
      "type": "function"
    },
    {
      "inputs": [
        {
          "components": [
            {
              "internalType": "contract IJBPaymentTerminal",
              "name": "terminal",
              "type": "address"
            },
            {
              "internalType": "address",
              "name": "payer",
              "type": "address"
            },
            {
              "components": [
                {
                  "internalType": "address",
                  "name": "token",
                  "type": "address"
                },
                {
                  "internalType": "uint256",
                  "name": "value",
                  "type": "uint256"
                },
                {
                  "internalType": "uint256",
                  "name": "decimals",
                  "type": "uint256"
                },
                {
                  "internalType": "uint256",
                  "name": "currency",
                  "type": "uint256"
                }
              ],
              "internalType": "struct JBTokenAmount",
              "name": "amount",
              "type": "tuple"
            },
            {
              "internalType": "uint256",
              "name": "projectId",
              "type": "uint256"
            },
            {
              "internalType": "uint256",
              "name": "currentFundingCycleConfiguration",
              "type": "uint256"
            },
            {
              "internalType": "address",
              "name": "beneficiary",
              "type": "address"
            },
            {
              "internalType": "uint256",
              "name": "weight",
              "type": "uint256"
            },
            {
              "internalType": "uint256",
              "name": "reservedRate",
              "type": "uint256"
            },
            {
              "internalType": "string",
              "name": "memo",
              "type": "string"
            },
            {
              "internalType": "bytes",
              "name": "metadata",
              "type": "bytes"
            }
          ],
          "internalType": "struct JBPayParamsData",
          "name": "_data",
          "type": "tuple"
        }
      ],
      "name": "payParams",
      "outputs": [
        {
          "internalType": "uint256",
          "name": "weight",
          "type": "uint256"
        },
        {
          "internalType": "string",
          "name": "memo",
          "type": "string"
        },
        {
          "components": [
            {
              "internalType": "contract IJBPayDelegate3_1_1",
              "name": "delegate",
              "type": "address"
            },
            {
              "internalType": "uint256",
              "name": "amount",
              "type": "uint256"
            },
            {
              "internalType": "bytes",
              "name": "metadata",
              "type": "bytes"
            }
          ],
          "internalType": "struct JBPayDelegateAllocation3_1_1[]",
          "name": "delegateAllocations",
          "type": "tuple[]"
        }
      ],
      "stateMutability": "view",
      "type": "function"
    },
    {
      "inputs": [],
      "name": "pricingContext",
      "outputs": [
        {
          "internalType": "uint256",
          "name": "currency",
          "type": "uint256"
        },
        {
          "internalType": "uint256",
          "name": "decimals",
          "type": "uint256"
        },
        {
          "internalType": "contract IJBPrices",
          "name": "prices",
          "type": "address"
        }
      ],
      "stateMutability": "view",
      "type": "function"
    },
    {
      "inputs": [],
      "name": "projectId",
      "outputs": [
        {
          "internalType": "uint256",
          "name": "",
          "type": "uint256"
        }
      ],
      "stateMutability": "view",
      "type": "function"
    },
    {
      "inputs": [],
      "name": "projects",
      "outputs": [
        {
          "internalType": "contract IJBProjects",
          "name": "",
          "type": "address"
        }
      ],
      "stateMutability": "view",
      "type": "function"
    },
    {
      "inputs": [],
      "name": "redeemMetadataDelegateId",
      "outputs": [
        {
          "internalType": "bytes4",
          "name": "",
          "type": "bytes4"
        }
      ],
      "stateMutability": "view",
      "type": "function"
    },
    {
      "inputs": [
        {
          "components": [
            {
              "internalType": "contract IJBPaymentTerminal",
              "name": "terminal",
              "type": "address"
            },
            {
              "internalType": "address",
              "name": "holder",
              "type": "address"
            },
            {
              "internalType": "uint256",
              "name": "projectId",
              "type": "uint256"
            },
            {
              "internalType": "uint256",
              "name": "currentFundingCycleConfiguration",
              "type": "uint256"
            },
            {
              "internalType": "uint256",
              "name": "tokenCount",
              "type": "uint256"
            },
            {
              "internalType": "uint256",
              "name": "totalSupply",
              "type": "uint256"
            },
            {
              "internalType": "uint256",
              "name": "overflow",
              "type": "uint256"
            },
            {
              "components": [
                {
                  "internalType": "address",
                  "name": "token",
                  "type": "address"
                },
                {
                  "internalType": "uint256",
                  "name": "value",
                  "type": "uint256"
                },
                {
                  "internalType": "uint256",
                  "name": "decimals",
                  "type": "uint256"
                },
                {
                  "internalType": "uint256",
                  "name": "currency",
                  "type": "uint256"
                }
              ],
              "internalType": "struct JBTokenAmount",
              "name": "reclaimAmount",
              "type": "tuple"
            },
            {
              "internalType": "bool",
              "name": "useTotalOverflow",
              "type": "bool"
            },
            {
              "internalType": "uint256",
              "name": "redemptionRate",
              "type": "uint256"
            },
            {
              "internalType": "string",
              "name": "memo",
              "type": "string"
            },
            {
              "internalType": "bytes",
              "name": "metadata",
              "type": "bytes"
            }
          ],
          "internalType": "struct JBRedeemParamsData",
          "name": "_data",
          "type": "tuple"
        }
      ],
      "name": "redeemParams",
      "outputs": [
        {
          "internalType": "uint256",
          "name": "reclaimAmount",
          "type": "uint256"
        },
        {
          "internalType": "string",
          "name": "memo",
          "type": "string"
        },
        {
          "components": [
            {
              "internalType": "contract IJBRedemptionDelegate3_1_1",
              "name": "delegate",
              "type": "address"
            },
            {
              "internalType": "uint256",
              "name": "amount",
              "type": "uint256"
            },
            {
              "internalType": "bytes",
              "name": "metadata",
              "type": "bytes"
            }
          ],
          "internalType": "struct JBRedemptionDelegateAllocation3_1_1[]",
          "name": "delegateAllocations",
          "type": "tuple[]"
        }
      ],
      "stateMutability": "view",
      "type": "function"
    },
    {
      "inputs": [
        {
          "internalType": "uint256[]",
          "name": "_tokenIds",
          "type": "uint256[]"
        },
        {
          "components": [
            {
              "internalType": "contract IJBPaymentTerminal",
              "name": "terminal",
              "type": "address"
            },
            {
              "internalType": "address",
              "name": "holder",
              "type": "address"
            },
            {
              "internalType": "uint256",
              "name": "projectId",
              "type": "uint256"
            },
            {
              "internalType": "uint256",
              "name": "currentFundingCycleConfiguration",
              "type": "uint256"
            },
            {
              "internalType": "uint256",
              "name": "tokenCount",
              "type": "uint256"
            },
            {
              "internalType": "uint256",
              "name": "totalSupply",
              "type": "uint256"
            },
            {
              "internalType": "uint256",
              "name": "overflow",
              "type": "uint256"
            },
            {
              "components": [
                {
                  "internalType": "address",
                  "name": "token",
                  "type": "address"
                },
                {
                  "internalType": "uint256",
                  "name": "value",
                  "type": "uint256"
                },
                {
                  "internalType": "uint256",
                  "name": "decimals",
                  "type": "uint256"
                },
                {
                  "internalType": "uint256",
                  "name": "currency",
                  "type": "uint256"
                }
              ],
              "internalType": "struct JBTokenAmount",
              "name": "reclaimAmount",
              "type": "tuple"
            },
            {
              "internalType": "bool",
              "name": "useTotalOverflow",
              "type": "bool"
            },
            {
              "internalType": "uint256",
              "name": "redemptionRate",
              "type": "uint256"
            },
            {
              "internalType": "string",
              "name": "memo",
              "type": "string"
            },
            {
              "internalType": "bytes",
              "name": "metadata",
              "type": "bytes"
            }
          ],
          "internalType": "struct JBRedeemParamsData",
          "name": "",
          "type": "tuple"
        }
      ],
      "name": "redemptionWeightOf",
      "outputs": [
        {
          "internalType": "uint256",
          "name": "",
          "type": "uint256"
        }
      ],
      "stateMutability": "view",
      "type": "function"
    },
    {
      "inputs": [],
      "name": "renounceOwnership",
      "outputs": [],
      "stateMutability": "nonpayable",
      "type": "function"
    },
    {
      "inputs": [
        {
          "internalType": "address",
          "name": "from",
          "type": "address"
        },
        {
          "internalType": "address",
          "name": "to",
          "type": "address"
        },
        {
          "internalType": "uint256",
          "name": "tokenId",
          "type": "uint256"
        }
      ],
      "name": "safeTransferFrom",
      "outputs": [],
      "stateMutability": "nonpayable",
      "type": "function"
    },
    {
      "inputs": [
        {
          "internalType": "address",
          "name": "from",
          "type": "address"
        },
        {
          "internalType": "address",
          "name": "to",
          "type": "address"
        },
        {
          "internalType": "uint256",
          "name": "tokenId",
          "type": "uint256"
        },
        {
          "internalType": "bytes",
          "name": "data",
          "type": "bytes"
        }
      ],
      "name": "safeTransferFrom",
      "outputs": [],
      "stateMutability": "nonpayable",
      "type": "function"
    },
    {
      "inputs": [
        {
          "internalType": "address",
          "name": "operator",
          "type": "address"
        },
        {
          "internalType": "bool",
          "name": "approved",
          "type": "bool"
        }
      ],
      "name": "setApprovalForAll",
      "outputs": [],
      "stateMutability": "nonpayable",
      "type": "function"
    },
    {
      "inputs": [
        {
          "internalType": "string",
          "name": "_baseUri",
          "type": "string"
        },
        {
          "internalType": "string",
          "name": "_contractUri",
          "type": "string"
        },
        {
          "internalType": "contract IJB721TokenUriResolver",
          "name": "_tokenUriResolver",
          "type": "address"
        },
        {
          "internalType": "uint256",
          "name": "_encodedIPFSUriTierId",
          "type": "uint256"
        },
        {
          "internalType": "bytes32",
          "name": "_encodedIPFSUri",
          "type": "bytes32"
        }
      ],
      "name": "setMetadata",
      "outputs": [],
      "stateMutability": "nonpayable",
      "type": "function"
    },
    {
      "inputs": [
        {
          "internalType": "uint8",
          "name": "_permissionIndex",
          "type": "uint8"
        }
      ],
      "name": "setPermissionIndex",
      "outputs": [],
      "stateMutability": "nonpayable",
      "type": "function"
    },
    {
      "inputs": [],
      "name": "store",
      "outputs": [
        {
          "internalType": "contract IJBTiered721DelegateStore",
          "name": "",
          "type": "address"
        }
      ],
      "stateMutability": "view",
      "type": "function"
    },
    {
      "inputs": [
        {
          "internalType": "bytes4",
          "name": "_interfaceId",
          "type": "bytes4"
        }
      ],
      "name": "supportsInterface",
      "outputs": [
        {
          "internalType": "bool",
          "name": "",
          "type": "bool"
        }
      ],
      "stateMutability": "view",
      "type": "function"
    },
    {
      "inputs": [],
      "name": "symbol",
      "outputs": [
        {
          "internalType": "string",
          "name": "",
          "type": "string"
        }
      ],
      "stateMutability": "view",
      "type": "function"
    },
    {
      "inputs": [
        {
          "internalType": "uint256",
          "name": "_tokenId",
          "type": "uint256"
        }
      ],
      "name": "tokenURI",
      "outputs": [
        {
          "internalType": "string",
          "name": "",
          "type": "string"
        }
      ],
      "stateMutability": "view",
      "type": "function"
    },
    {
      "inputs": [
        {
          "components": [
            {
              "internalType": "contract IJBPaymentTerminal",
              "name": "terminal",
              "type": "address"
            },
            {
              "internalType": "address",
              "name": "holder",
              "type": "address"
            },
            {
              "internalType": "uint256",
              "name": "projectId",
              "type": "uint256"
            },
            {
              "internalType": "uint256",
              "name": "currentFundingCycleConfiguration",
              "type": "uint256"
            },
            {
              "internalType": "uint256",
              "name": "tokenCount",
              "type": "uint256"
            },
            {
              "internalType": "uint256",
              "name": "totalSupply",
              "type": "uint256"
            },
            {
              "internalType": "uint256",
              "name": "overflow",
              "type": "uint256"
            },
            {
              "components": [
                {
                  "internalType": "address",
                  "name": "token",
                  "type": "address"
                },
                {
                  "internalType": "uint256",
                  "name": "value",
                  "type": "uint256"
                },
                {
                  "internalType": "uint256",
                  "name": "decimals",
                  "type": "uint256"
                },
                {
                  "internalType": "uint256",
                  "name": "currency",
                  "type": "uint256"
                }
              ],
              "internalType": "struct JBTokenAmount",
              "name": "reclaimAmount",
              "type": "tuple"
            },
            {
              "internalType": "bool",
              "name": "useTotalOverflow",
              "type": "bool"
            },
            {
              "internalType": "uint256",
              "name": "redemptionRate",
              "type": "uint256"
            },
            {
              "internalType": "string",
              "name": "memo",
              "type": "string"
            },
            {
              "internalType": "bytes",
              "name": "metadata",
              "type": "bytes"
            }
          ],
          "internalType": "struct JBRedeemParamsData",
          "name": "",
          "type": "tuple"
        }
      ],
      "name": "totalRedemptionWeight",
      "outputs": [
        {
          "internalType": "uint256",
          "name": "",
          "type": "uint256"
        }
      ],
      "stateMutability": "view",
      "type": "function"
    },
    {
      "inputs": [
        {
          "internalType": "address",
          "name": "from",
          "type": "address"
        },
        {
          "internalType": "address",
          "name": "to",
          "type": "address"
        },
        {
          "internalType": "uint256",
          "name": "tokenId",
          "type": "uint256"
        }
      ],
      "name": "transferFrom",
      "outputs": [],
      "stateMutability": "nonpayable",
      "type": "function"
    },
    {
      "inputs": [
        {
          "internalType": "address",
          "name": "_newOwner",
          "type": "address"
        }
      ],
      "name": "transferOwnership",
      "outputs": [],
      "stateMutability": "nonpayable",
      "type": "function"
    },
    {
      "inputs": [
        {
          "internalType": "uint256",
          "name": "_projectId",
          "type": "uint256"
        }
      ],
      "name": "transferOwnershipToProject",
      "outputs": [],
      "stateMutability": "nonpayable",
      "type": "function"
    }
  ],
  "bytecode": {
    "object": "0x6101206040523480156200001257600080fd5b5060405162005c4038038062005c408339810160408190526200003591620003bd565b838282866001600160a01b0316638b79543c6040518163ffffffff1660e01b8152600401602060405180830381865afa15801562000077573d6000803e3d6000fd5b505050506040513d601f19601f820116820180604052508101906200009d91906200041f565b6001600160a01b03808816608052811660a052868181620000be3362000101565b5050506001600160a01b0390931660c0526001600160e01b031991821660e05216610100525050600980546001600160a01b031916301790555062000446915050565b6200010e81600062000111565b50565b6001600160581b038116158015906200013257506001600160a01b03821615155b156200016f576040516324abfd1160e11b81526001600160a01b03831660048201526001600160581b038216602482015260440160405180910390fd5b60408051606081018252600080546001600160a01b0381168352600160a01b81046001600160581b031660208401819052600160f81b90910460ff16938301939093529091156200023e5760a05160208301516040516331a9108f60e11b81526001600160581b0390911660048201526001600160a01b0390911690636352211e90602401602060405180830381865afa15801562000212573d6000803e3d6000fd5b505050506040513d601f19601f820116820180604052508101906200023891906200041f565b62000241565b81515b604080516060810182526001600160a01b0387168082526001600160581b0387166020830181905260009290930182905281547fff000000000000000000000000000000000000000000000000000000000000001617600160a01b8302176001600160f81b031690559091506200033f90829015620003385760a0516040516331a9108f60e11b81526001600160581b03871660048201526001600160a01b0390911690636352211e90602401602060405180830381865afa1580156200030c573d6000803e3d6000fd5b505050506040513d601f19601f820116820180604052508101906200033291906200041f565b62000345565b8562000345565b50505050565b806001600160a01b0316826001600160a01b03167f8be0079c531659141344cd1fd0a4f28419497f9722a3daafe3b4186f6b6457e060405160405180910390a35050565b6001600160a01b03811681146200010e57600080fd5b80516001600160e01b031981168114620003b857600080fd5b919050565b60008060008060808587031215620003d457600080fd5b8451620003e18162000389565b6020860151909450620003f48162000389565b925062000404604086016200039f565b915062000414606086016200039f565b905092959194509250565b6000602082840312156200043257600080fd5b81516200043f8162000389565b9392505050565b60805160a05160c05160e05161010051615768620004d8600039600081816104c801528181610b8801526119c801526000818161047b0152612c0401526000818161085401528181610adc015261117401526000818161064601528181611621015281816128ea0152818161300401526130fc015260008181610793015281816125f0015261269901526157686000f3fe6080604052600436106102725760003560e01c806370a082311161014f578063a22cb465116100c1578063c41c2f241161007a578063c41c2f2414610842578063c87b56dd14610876578063d46cf17114610896578063e8a3d485146108c5578063e985e9c5146108da578063f2fde38b1461092357600080fd5b8063a22cb46514610712578063a51cfd1814610732578063aa4fb15b14610761578063ad007d6314610781578063b88d4fde146107b5578063ba23c36e146107d557600080fd5b80638da5cb5b116101135780638da5cb5b146106685780639494bf721461067d57806395d89b411461069d578063975057e7146106b2578063a1250d7f146106d2578063a220d696146106f257600080fd5b806370a08231146105bf578063715018a6146105df5780637ba62bf9146105f4578063843d92ee146106145780638b79543c1461063457600080fd5b80633fafa127116101e8578063557e7155116101ac578063557e71551461050a57806361aec7a91461052a5780636352211e1461054a5780636ac6d9411461056a5780636b204943146105975780636c0360eb146105aa57600080fd5b80633fafa1271461043357806342842e0e1461044957806346a6d981146104695780634853f5e8146104b657806354c6d1f5146104ea57600080fd5b80630bf46e591161023a5780630bf46e59146103655780631435aad5146103785780631d153ca41461039857806323b872dd146103b8578063245a45b5146103d85780632a596e531461041357600080fd5b806301ffc9a71461027757806306fdde03146102ac578063081812fc146102ce57806308786b1a14610306578063095ea7b314610343575b600080fd5b34801561028357600080fd5b50610297610292366004613cec565b610943565b60405190151581526020015b60405180910390f35b3480156102b857600080fd5b506102c161096e565b6040516102a39190613d59565b3480156102da57600080fd5b506102ee6102e9366004613d6c565b610a00565b6040516001600160a01b0390911681526020016102a3565b34801561031257600080fd5b506008546040805165ffffffffffff8084168252603084901c166020820152606092831c91810191909152016102a3565b34801561034f57600080fd5b5061036361035e366004613daa565b610a27565b005b610363610373366004613dd6565b610ab3565b34801561038457600080fd5b50610363610393366004613e59565b610c7f565b3480156103a457600080fd5b506009546102ee906001600160a01b031681565b3480156103c457600080fd5b506103636103d3366004613eee565b610ec2565b3480156103e457600080fd5b506104056103f3366004613f2f565b600c6020526000908152604090205481565b6040519081526020016102a3565b34801561041f57600080fd5b5061036361042e366004613f4c565b610ef4565b34801561043f57600080fd5b5061040560065481565b34801561045557600080fd5b50610363610464366004613eee565b610f4d565b34801561047557600080fd5b5061049d7f000000000000000000000000000000000000000000000000000000000000000081565b6040516001600160e01b031990911681526020016102a3565b3480156104c257600080fd5b5061049d7f000000000000000000000000000000000000000000000000000000000000000081565b3480156104f657600080fd5b506102ee610505366004613d6c565b610f68565b34801561051657600080fd5b50600b546102ee906001600160a01b031681565b34801561053657600080fd5b50610363610545366004613fc0565b610fa9565b34801561055657600080fd5b506102ee610565366004613d6c565b610fbd565b34801561057657600080fd5b5061058a610585366004614027565b610ff3565b6040516102a391906140b8565b6103636105a53660046140cb565b61114c565b3480156105b657600080fd5b506102c1611223565b3480156105cb57600080fd5b506104056105da366004613f2f565b6112b1565b3480156105eb57600080fd5b50610363611327565b34801561060057600080fd5b5061040561060f366004614219565b61133c565b34801561062057600080fd5b5061036361062f3660046142d6565b6113b7565b34801561064057600080fd5b506102ee7f000000000000000000000000000000000000000000000000000000000000000081565b34801561067457600080fd5b506102ee6115ad565b34801561068957600080fd5b50610405610698366004614370565b61169a565b3480156106a957600080fd5b506102c16116cb565b3480156106be57600080fd5b50600a546102ee906001600160a01b031681565b3480156106de57600080fd5b506103636106ed36600461469d565b6116da565b3480156106fe57600080fd5b5061036361070d366004613d6c565b61193f565b34801561071e57600080fd5b5061036361072d3660046147bd565b61198d565b34801561073e57600080fd5b5061075261074d366004614370565b611998565b6040516102a3939291906147f6565b34801561076d57600080fd5b5061036361077c366004614894565b611bde565b34801561078d57600080fd5b506102ee7f000000000000000000000000000000000000000000000000000000000000000081565b3480156107c157600080fd5b506103636107d03660046148b6565b611dfb565b3480156107e157600080fd5b50600054610812906001600160a01b03811690600160a01b81046001600160581b031690600160f81b900460ff1683565b604080516001600160a01b0390941684526001600160581b03909216602084015260ff16908201526060016102a3565b34801561084e57600080fd5b506102ee7f000000000000000000000000000000000000000000000000000000000000000081565b34801561088257600080fd5b506102c1610891366004613d6c565b611e2e565b3480156108a257600080fd5b506108b66108b1366004614935565b61202b565b6040516102a393929190614970565b3480156108d157600080fd5b506102c161212b565b3480156108e657600080fd5b506102976108f53660046149fc565b6001600160a01b03918216600090815260056020908152604080832093909416825291909152205460ff1690565b34801561092f57600080fd5b5061036361093e366004613f2f565b612138565b60006001600160e01b0319821663f882622f60e01b1480610968575061096882612184565b92915050565b60606001805461097d90614a2a565b80601f01602080910402602001604051908101604052809291908181526020018280546109a990614a2a565b80156109f65780601f106109cb576101008083540402835291602001916109f6565b820191906000526020600020905b8154815290600101906020018083116109d957829003601f168201915b5050505050905090565b6000610a0b82612215565b506000908152600460205260409020546001600160a01b031690565b6000610a3282610fbd565b9050806001600160a01b0316836001600160a01b031603610a665760405163133f8be960e01b815260040160405180910390fd5b336001600160a01b03821614801590610a865750610a8481336108f5565b155b15610aa45760405163e5fa0e3560e01b815260040160405180910390fd5b610aae838361224a565b505050565b34151580610b515750600654604051636e49181f60e01b815260048101919091523360248201527f00000000000000000000000000000000000000000000000000000000000000006001600160a01b031690636e49181f90604401602060405180830381865afa158015610b2b573d6000803e3d6000fd5b505050506040513d601f19601f82011682018060405250810190610b4f9190614a69565b155b80610b625750600654816020013514155b15610b8057604051633efca5c360e11b815260040160405180910390fd5b600080610bba7f0000000000000000000000000000000000000000000000000000000000000000610bb56101e0860186614a86565b6122b8565b9150915060608215610bdd5781806020019051810190610bda9190614b32565b90505b80516000805b82811015610c6d57838181518110610bfd57610bfd614b66565b60200260200101519150866000016020810190610c1a9190613f2f565b6000838152600360205260409020546001600160a01b03908116911614610c5c57604051635caf197560e01b8152600481018390526024015b60405180910390fd5b610c65826124c0565b600101610be3565b50610c7783612541565b505050505050565b610c876115ad565b6006546016610c978383836125a6565b8815610cf657600d610caa8a8c83614bc2565b508989604051610cbb929190614c81565b604051908190038120338252907f7bc9110d5de090dd59e07912d2b93a5a27ac70a60c8d8e324db4f9ee8b8b5c139060200160405180910390a25b8615610d5557600e610d09888a83614bc2565b508787604051610d1a929190614c81565b604051908190038120338252907fd36dc0c1a06103fdcaf15f3f6fb797d1a97997514c78de073640c8b5005454b89060200160405180910390a25b6001600160a01b0386163014610e0357600a5460405163036129cb60e61b81526001600160a01b0388811660048301529091169063d84a72c090602401600060405180830381600087803b158015610dac57600080fd5b505af1158015610dc0573d6000803e3d6000fd5b50506040513381526001600160a01b03891692507fe7784d93cfbfa4408e19577e6cc0436f4dbb51214b70e100905dfce9def88c16915060200160405180910390a25b8415801590610e1157508315155b15610eb657600a546040516324de8d6360e11b815260048101879052602481018690526001600160a01b03909116906349bd1ac690604401600060405180830381600087803b158015610e6357600080fd5b505af1158015610e77573d6000803e3d6000fd5b5050604080518781523360208201528893507f677da4fed654db8e604791fa2582f342e2001aa217e27f6985eb3e0f67e5a7fc92500160405180910390a25b50505050505050505050565b610ecc3382612724565b610ee95760405163e5fa0e3560e01b815260040160405180910390fd5b610aae8383836127a3565b8060005b81811015610f47576000848483818110610f1457610f14614b66565b905060400201803603810190610f2a9190614c91565b9050610f3e81600001518260200151611bde565b50600101610ef8565b50505050565b610aae83838360405180602001604052806000815250611dfb565b6000818152600760205260408120546001600160a01b03168015610f8c5792915050565b50506000908152600360205260409020546001600160a01b031690565b610fb161287c565b610fba81612986565b50565b6000818152600360205260408120546001600160a01b0316806109685760405163b49aa3b560e01b815260040160405180910390fd5b6060610ffd6115ad565b600654601761100d8383836125a6565b600a5460405163eaa19ab360e01b81526001600160a01b039091169063eaa19ab39061104690600019908b908b90600190600401614cdf565b6000604051808303816000875af1158015611065573d6000803e3d6000fd5b505050506040513d6000823e601f3d908101601f1916820160405261108d9190810190614d3e565b509350856000805b8281101561113f578681815181106110af576110af614b66565b602002602001015191506110c388836129dc565b876001600160a01b03168a8a838181106110df576110df614b66565b90506020020160208101906110f49190614d84565b604080516000815233602082015261ffff929092169185917f598baf7bf150ca2f42be9e9f8f55e81d45f5715c3ff22bf46d697fabec7f31d6910160405180910390a4600101611095565b5050505050509392505050565b600654341515806111e95750604051636e49181f60e01b8152600481018290523360248201527f00000000000000000000000000000000000000000000000000000000000000006001600160a01b031690636e49181f90604401602060405180830381865afa1580156111c3573d6000803e3d6000fd5b505050506040513d601f19601f820116820180604052508101906111e79190614a69565b155b806111f8575080826020013514155b15611216576040516331c57b1b60e21b815260040160405180910390fd5b61121f82612aa6565b5050565b600d805461123090614a2a565b80601f016020809104026020016040519081016040528092919081815260200182805461125c90614a2a565b80156112a95780601f1061127e576101008083540402835291602001916112a9565b820191906000526020600020905b81548152906001019060200180831161128c57829003601f168201915b505050505081565b600a54604051633de222bb60e21b81523060048201526001600160a01b038381166024830152600092169063f7888aec906044015b602060405180830381865afa158015611303573d6000803e3d6000fd5b505050506040513d601f19601f820116820180604052508101906109689190614da1565b61132f61287c565b61133a600080612f3e565b565b600a5460405163051330b560e21b81526000916001600160a01b03169063144cc2d49061136f9030908790600401614dba565b602060405180830381865afa15801561138c573d6000803e3d6000fd5b505050506040513d601f19601f820116820180604052508101906113b09190614da1565b9392505050565b6113bf6115ad565b60065460156113cf8383836125a6565b8584801561149f57600a546040516320512ba160e01b81526001600160a01b03909116906320512ba190611409908a908a90600401614dde565b600060405180830381600087803b15801561142357600080fd5b505af1158015611437573d6000803e3d6000fd5b5050505060005b8181101561149d5787878281811061145857611458614b66565b60405133815260209182029390930135927f832d89d991be5351d793c20faf4b7dd44f8aa9ce39e3cb160c6317de6fbba72992500160405180910390a260010161143e565b505b81156115a257600a54604051638da5e32b60e01b81526000916001600160a01b031690638da5e32b906114d8908d908d90600401614f03565b6000604051808303816000875af11580156114f7573d6000803e3d6000fd5b505050506040513d6000823e601f3d908101601f1916820160405261151f9190810190614b32565b905060005b8381101561159f5781818151811061153e5761153e614b66565b60200260200101517f1af6ad8cdb16b4d1fbc75701ef89105100ac32fb4fcd841b47adf8c03e04455d8c8c8481811061157957611579614b66565b905061016002013360405161158f929190614f46565b60405180910390a2600101611524565b50505b505050505050505050565b60408051606081018252600080546001600160a01b0381168352600160a01b81046001600160581b031660208401819052600160f81b90910460ff16938301939093529182036115fd5751919050565b60208101516040516331a9108f60e11b81526001600160581b0390911660048201527f00000000000000000000000000000000000000000000000000000000000000006001600160a01b031690636352211e90602401602060405180830381865afa158015611670573d6000803e3d6000fd5b505050506040513d601f19601f820116820180604052508101906116949190614f79565b91505090565b600a54604051631572f24960e11b81523060048201526000916001600160a01b031690632ae5e492906024016112e6565b60606002805461097d90614a2a565b600a546001600160a01b0316156116f057600080fd5b6116fb8a8a8a61317a565b600b80546001600160a01b03808a166001600160a01b031992831617909255600a805492851692909116919091179055602083015160408401516060808601516bffffffffffffffffffffffff19911b166bffffffffffff00000000000060309290921b9190911665ffffffffffff9092169190911717600881905586511561178c57600d61178a8882614f96565b505b8451156117a157600e61179f8682614f96565b505b6001600160a01b0386161561180c5760405163036129cb60e61b81526001600160a01b03878116600483015284169063d84a72c090602401600060405180830381600087803b1580156117f357600080fd5b505af1158015611807573d6000803e3d6000fd5b505050505b8351511561188a578351604051638da5e32b60e01b81526001600160a01b03851691638da5e32b916118419190600401615055565b6000604051808303816000875af1158015611860573d6000803e3d6000fd5b505050506040513d6000823e601f3d908101601f191682016040526118889190810190614b32565b505b815180611898575081602001515b806118a4575081604001515b806118b0575081606001515b1561193657604080516365c13f1960e11b815283511515600482015260208401511515602482015290830151151560448201526060830151151560648201526001600160a01b0384169063cb827e3290608401600060405180830381600087803b15801561191d57600080fd5b505af1158015611931573d6000803e3d6000fd5b505050505b61159f33612179565b61194761287c565b80158061195a57506001600160581b0381115b15611982576040516324abfd1160e11b81526000600482015260248101829052604401610c53565b610fba600082612f3e565b61121f33838361318b565b60006060806080840135156119c0576040516309f82f1b60e31b815260040160405180910390fd5b6000806119f57f0000000000000000000000000000000000000000000000000000000000000000610bb56101c0890189614a86565b604080516001808252818301909252929450909250816020015b60408051606080820183526000808352602083015291810191909152815260200190600190039081611a0f5790505092506040518060600160405280306001600160a01b03168152602001600081526020016040518060200160405280600081525081525083600081518110611a8757611a87614b66565b602002602001018190525060608215611ab15781806020019051810190611aae9190614b32565b90505b6000611abd828961133c565b90506000611aca8961169a565b90506000611add8a60c00135848461322a565b90506127108a610180013503611b4a5780611afc6101a08c018c614a86565b8982828080601f016020809104026020016040519081016040528093929190818152602001838380828437600092019190915250969f50919d50919b50611bd79a5050505050505050505050565b611b8081611b6985611b636101808f0135612710615145565b8661322a565b611b78906101808e0135615158565b61271061322a565b611b8e6101a08c018c614a86565b8982828080601f016020809104026020016040519081016040528093929190818152602001838380828437600092019190915250969f50919d50919b5050505050505050505050505b9193909250565b600b546006546040516321d1336160e11b815260048101919091526000916001600160a01b0316906343a266c29060240161012060405180830381865afa158015611c2d573d6000803e3d6000fd5b505050506040513d601f19601f82011682018060405250810190611c51919061516b565b61010081015190915060f51c600190811603611c8057604051631d2c125760e31b815260040160405180910390fd5b600a54604051635d53f40760e11b815260048101859052602481018490526000916001600160a01b03169063baa7e80e906044016000604051808303816000875af1158015611cd3573d6000803e3d6000fd5b505050506040513d6000823e601f3d908101601f19168201604052611cfb9190810190614b32565b600a546040516304db994760e21b8152306004820152602481018790529192506000916001600160a01b039091169063136e651c90604401602060405180830381865afa158015611d50573d6000803e3d6000fd5b505050506040513d601f19601f82011682018060405250810190611d749190614f79565b90506000805b85811015611df257838181518110611d9457611d94614b66565b60200260200101519150611da883836129dc565b6040513381526001600160a01b03841690889084907f031e1988c95a91ec4d655ff63a8f87a80bc9daf28d95ae10ee08c0022cfb5c8b9060200160405180910390a4600101611d7a565b50505050505050565b611e053383612724565b611e225760405163e5fa0e3560e01b815260040160405180910390fd5b610f47848484846132fd565b600a54604051630fab094760e01b81523060048201526060916000916001600160a01b0390911690630fab094790602401602060405180830381865afa158015611e7c573d6000803e3d6000fd5b505050506040513d601f19601f82011682018060405250810190611ea09190614f79565b90506001600160a01b03811615611f2457604051635e703e7160e01b8152306004820152602481018490526001600160a01b03821690635e703e7190604401600060405180830381865afa158015611efc573d6000803e3d6000fd5b505050506040513d6000823e601f3d908101601f191682016040526113b09190810190615230565b6113b0600d8054611f3490614a2a565b80601f0160208091040260200160405190810160405280929190818152602001828054611f6090614a2a565b8015611fad5780601f10611f8257610100808354040283529160200191611fad565b820191906000526020600020905b815481529060010190602001808311611f9057829003601f168201915b5050600a54604051630c8df17160e41b8152306004820152602481018a90526001600160a01b03909116935063c8df171092506044019050602060405180830381865afa158015612002573d6000803e3d6000fd5b505050506040513d601f19601f820116820180604052508101906120269190614da1565b613331565b610120810135606080612042610160850185614a86565b8080601f01602080910402602001604051908101604052809392919081815260200183838082843760009201919091525092945060019250612082915050565b6040519080825280602002602001820160405280156120cf57816020015b604080516060808201835260008083526020830152918101919091528152602001906001900390816120a05790505b5090506040518060600160405280306001600160a01b0316815260200160008152602001604051806020016040528060008152508152508160008151811061211957612119614b66565b60200260200101819052509193909250565b600e805461123090614a2a565b61214061287c565b6001600160a01b038116612179576040516324abfd1160e11b81526001600160a01b038216600482015260006024820152604401610c53565b610fba816000612f3e565b60006001600160e01b03198216637aa3513560e11b14806121b557506001600160e01b031982166371700c6960e01b145b806121d057506001600160e01b03198216636b20494360e01b145b806121eb57506001600160e01b03198216630bf46e5960e01b145b8061220657506001600160e01b0319821663152a902d60e11b145b80610968575061096882613398565b6000818152600360205260409020546001600160a01b0316610fba5760405163b49aa3b560e01b815260040160405180910390fd5b600081815260046020526040902080546001600160a01b0319166001600160a01b038416908117909155819061227f82610fbd565b6001600160a01b03167f8c5be1e5ebec7d5bd14f71427d1e84f3dd0314c0f7b2291e5b200ac8c7c3b92560405160405180910390a45050565b60006060602583116122dc57505060408051602081019091526000808252906124b8565b600084846122ec60046020615158565b8181106122fb576122fb614b66565b919091013560f81c9150602090505b60008686612319600485615158565b81811061232857612328614b66565b9050013560f81c60f81b6001600160f81b031916141580156123535750612350602083615264565b81105b156124b55760008686612367600485615158565b81811061237657612376614b66565b919091013560f81c9150506001600160e01b0319881687838861239a600483615158565b926123a79392919061527b565b6123b0916152a5565b6001600160e01b031916036124ac5760006123cc602085615264565b6123d7600985615158565b10158061240d575087876123ec600986615158565b8181106123fb576123fb614b66565b909101356001600160f81b0319161590505b6124455760208888612420600987615158565b81811061242f5761242f614b66565b6124409392013560f81c9050615264565b612447565b865b905060018888612458602086615264565b6124649285929061527b565b81818080601f016020809104026020016040519081016040528093929190818152602001838380828437600092019190915250959b509199506124b898505050505050505050565b5060050161230a565b50505b935093915050565b60006124cb82610fbd565b90506124d9816000846133e8565b6124e460008361224a565b60008281526003602052604080822080546001600160a01b0319169055518391906001600160a01b038416907fddf252ad1be2c89b69c2b068fc378daa952ba7f163c4a11628f55a4df523b3ef908390a461121f81600084613584565b600a546040516386bc2be360e01b81526001600160a01b03909116906386bc2be3906125719084906004016140b8565b600060405180830381600087803b15801561258b57600080fd5b505af115801561259f573d6000803e3d6000fd5b5050505050565b336001600160a01b038416811480159061265d575060405163c161c93f60e01b81526001600160a01b038281166004830152858116602483015260448201859052606482018490527f0000000000000000000000000000000000000000000000000000000000000000169063c161c93f90608401602060405180830381865afa158015612637573d6000803e3d6000fd5b505050506040513d601f19601f8201168201806040525081019061265b9190614a69565b155b8015612706575060405163c161c93f60e01b81526001600160a01b038281166004830152858116602483015260006044830152606482018490527f0000000000000000000000000000000000000000000000000000000000000000169063c161c93f90608401602060405180830381865afa1580156126e0573d6000803e3d6000fd5b505050506040513d601f19601f820116820180604052508101906127049190614a69565b155b15610f475760405163075fd2b160e01b815260040160405180910390fd5b60008061273083610fbd565b9050806001600160a01b0316846001600160a01b0316148061277757506001600160a01b0380821660009081526005602090815260408083209388168352929052205460ff165b8061279b5750836001600160a01b031661279084610a00565b6001600160a01b0316145b949350505050565b826001600160a01b03166127b682610fbd565b6001600160a01b0316146127dd5760405163a195bc5360e01b815260040160405180910390fd5b6001600160a01b03821661280457604051632c95542760e01b815260040160405180910390fd5b61280f8383836133e8565b61281a60008261224a565b60008181526003602052604080822080546001600160a01b0319166001600160a01b0386811691821790925591518493918716917fddf252ad1be2c89b69c2b068fc378daa952ba7f163c4a11628f55a4df523b3ef91a4610aae838383613584565b60408051606081018252600080546001600160a01b0381168352600160a01b81046001600160581b031660208401819052600160f81b90910460ff16938301939093529091156129625760208201516040516331a9108f60e11b81526001600160581b0390911660048201527f00000000000000000000000000000000000000000000000000000000000000006001600160a01b031690636352211e90602401602060405180830381865afa158015612939573d6000803e3d6000fd5b505050506040513d601f19601f8201168201806040525081019061295d9190614f79565b612965565b81515b905061121f8183602001516001600160581b0316846040015160ff166125a6565b600080546001600160f81b0316600160f81b60ff8416908102919091179091556040519081527f197cbe84f592e417694036927858418efc958896363c034f9aaa25af88953beb9060200160405180910390a150565b6001600160a01b038216612a0357604051633904578f60e11b815260040160405180910390fd5b6000818152600360205260409020546001600160a01b031615612a3957604051632eb5f0c360e21b815260040160405180910390fd5b612a45600083836133e8565b60008181526003602052604080822080546001600160a01b0319166001600160a01b03861690811790915590518392907fddf252ad1be2c89b69c2b068fc378daa952ba7f163c4a11628f55a4df523b3ef908290a461121f60008383613584565b60085460009065ffffffffffff811660c0840135819003612acd5760808401359250612b7f565b606082901c801561259f5765ffffffffffff603084901c16612b7a6080870135612af883600a6153b9565b604051635268657960e11b815260c08a013560048201526024810187905260a08a013560448201526001600160a01b0386169063a4d0caf290606401602060405180830381865afa158015612b51573d6000803e3d6000fd5b505050506040513d601f19601f82011682018060405250810190612b759190614da1565b61322a565b945050505b5060009050600c81612b996101a086016101808701613f2f565b6001600160a01b03168152602081019190915260400160009081205491508290612bcb6101a086016101808701613f2f565b6001600160a01b0316612be16020870187613f2f565b6001600160a01b031603612bf85790820190612bfb565b50815b60008080612c317f0000000000000000000000000000000000000000000000000000000000000000610bb56102008b018b614a86565b915091508115612d0557606081806020019051810190612c5191906153c5565b9094509050838015612ccf5750600a54604051634228826f60e11b81523060048201526001600160a01b039091169063845104de90602401608060405180830381865afa158015612ca6573d6000803e3d6000fd5b505050506040513d601f19601f82011682018060405250810190612cca9190615475565b606001515b15612cd957600093505b805115612cff57612cfc8682612cf76101a08d016101808e01613f2f565b61367b565b95505b50612d7e565b600a54604051634228826f60e11b81523060048201526001600160a01b039091169063845104de90602401608060405180830381865afa158015612d4d573d6000803e3d6000fd5b505050506040513d601f19601f82011682018060405250810190612d719190615475565b60600151612d7e57600192505b8415612ea25782612da257604051631b57826960e21b815260040160405180910390fd5b84840186811115612e0a57612dbf6101a08a016101808b01613f2f565b6040513381526001600160a01b0391909116908290898203907f2fb2733fb01b76e3290fa8b695d18e026ddd19c0a265ab90e95152e57da303369060200160405180910390a4612e6b565b80871115612e6b57612e246101a08a016101808b01613f2f565b6040513381526001600160a01b0391909116908290818a03907fe0e7c81cf67a96dd0e39bcf11521b1f4c0098cc1dbe8c30750a11d9ebfc3ed4d9060200160405180910390a45b80600c6000612e826101a08d016101808e01613f2f565b6001600160a01b0316815260208101919091526040016000205550612f34565b838614612f3457612ebb6101a089016101808a01613f2f565b6001600160a01b031684612ecf8189615145565b6040513381527fe0e7c81cf67a96dd0e39bcf11521b1f4c0098cc1dbe8c30750a11d9ebfc3ed4d9060200160405180910390a483600c6000612f196101a08c016101808d01613f2f565b6001600160a01b031681526020810191909152604001600020555b5050505050505050565b6001600160581b03811615801590612f5e57506001600160a01b03821615155b15612f96576040516324abfd1160e11b81526001600160a01b03831660048201526001600160581b0382166024820152604401610c53565b60408051606081018252600080546001600160a01b0381168352600160a01b81046001600160581b031660208401819052600160f81b90910460ff169383019390935290911561307c5760208201516040516331a9108f60e11b81526001600160581b0390911660048201527f00000000000000000000000000000000000000000000000000000000000000006001600160a01b031690636352211e90602401602060405180830381865afa158015613053573d6000803e3d6000fd5b505050506040513d601f19601f820116820180604052508101906130779190614f79565b61307f565b81515b604080516060810182526001600160a01b0387168082526001600160581b0387166020830181905260009290930182905281546001600160f81b03191617600160a01b8302176001600160f81b03169055909150610f4790829015613174576040516331a9108f60e11b81526001600160581b03861660048201527f00000000000000000000000000000000000000000000000000000000000000006001600160a01b031690636352211e90602401602060405180830381865afa15801561314b573d6000803e3d6000fd5b505050506040513d601f19601f8201168201806040525081019061316f9190614f79565b6137bd565b856137bd565b6131848282613801565b5050600655565b816001600160a01b0316836001600160a01b0316036131bd576040516306f8139d60e11b815260040160405180910390fd5b6001600160a01b03838116600081815260056020908152604080832094871680845294825291829020805460ff191686151590811790915591519182527f17307eab39ab6107e8899845ad3d59bd9653f200f220920489ca2b5937696c31910160405180910390a3505050565b60008080600019858709858702925082811083820303915050806000036132645783828161325a5761325a6154dc565b04925050506113b0565b83811061329557604051630c740aef60e31b8152600481018790526024810186905260448101859052606401610c53565b600084868809600260036001881981018916988990049182028318808302840302808302840302808302840302808302840302808302840302918202909203026000889003889004909101858311909403939093029303949094049190911702949350505050565b6133088484846127a3565b6133148484848461381a565b610f47576040516336f57c1b60e11b815260040160405180910390fd5b604051609160f51b6020820152602281018290526060906000906042016040516020818303038152906040529050600061336a8261391c565b9050848160405160200161337f9291906154f2565b6040516020818303038152906040529250505092915050565b60006001600160e01b031982166380ac58cd60e01b14806133c957506001600160e01b03198216635b5e139f60e01b145b8061096857506301ffc9a760e01b6001600160e01b0319831614610968565b6001600160a01b03831615610aae57600a5460405163c44a8e6d60e01b815230600482015260248101839052600060448201819052916001600160a01b03169063c44a8e6d90606401600060405180830381865afa15801561344e573d6000803e3d6000fd5b505050506040513d6000823e601f3d908101601f191682016040526134769190810190615521565b90508061014001511561353b57600b546006546040516321d1336160e11b815260048101919091526000916001600160a01b0316906343a266c29060240161012060405180830381865afa1580156134d2573d6000803e3d6000fd5b505050506040513d601f19601f820116820180604052508101906134f6919061516b565b90506001600160a01b0384161580159061351b575061010081015160f41c6001908116145b15613539576040516318cdaf9760e01b815260040160405180910390fd5b505b6000828152600760205260409020546001600160a01b0316610f4757600082815260076020526040902080546001600160a01b0319166001600160a01b03861617905550505050565b600a5460405163c44a8e6d60e01b815230600482015260248101839052600060448201819052916001600160a01b03169063c44a8e6d90606401600060405180830381865afa1580156135db573d6000803e3d6000fd5b505050506040513d6000823e601f3d908101601f191682016040526136039190810190615521565b600a5481516040516330b157e560e21b815260048101919091526001600160a01b038781166024830152868116604483015292935091169063c2c55f9490606401600060405180830381600087803b15801561365e57600080fd5b505af1158015613672573d6000803e3d6000fd5b50505050610f47565b600a5460405163eaa19ab360e01b81526000916060916001600160a01b039091169063eaa19ab3906136b590889088908790600401615619565b6000604051808303816000875af11580156136d4573d6000803e3d6000fd5b505050506040513d6000823e601f3d908101601f191682016040526136fc9190810190614d3e565b81519093509091506000805b828110156137b25783818151811061372257613722614b66565b6020026020010151915061373686836129dc565b856001600160a01b031687828151811061375257613752614b66565b602002602001015161ffff16837f598baf7bf150ca2f42be9e9f8f55e81d45f5715c3ff22bf46d697fabec7f31d68b336040516137a29291909182526001600160a01b0316602082015260400190565b60405180910390a4600101613708565b505050509392505050565b806001600160a01b0316826001600160a01b03167f8be0079c531659141344cd1fd0a4f28419497f9722a3daafe3b4186f6b6457e060405160405180910390a35050565b600161380d8382614f96565b506002610aae8282614f96565b60006001600160a01b0384163b1561391157604051630a85bd0160e11b81526001600160a01b0385169063150b7a029061385e903390899088908890600401615676565b6020604051808303816000875af1925050508015613899575060408051601f3d908101601f19168201909252613896918101906156b3565b60015b6138f7573d8080156138c7576040519150601f19603f3d011682016040523d82523d6000602084013e6138cc565b606091505b5080516000036138ef576040516336f57c1b60e11b815260040160405180910390fd5b805181602001fd5b6001600160e01b031916630a85bd0160e11b14905061279b565b506001949350505050565b6060815160000361393b57505060408051600081526020810190915290565b60408051602e8082526105e08201909252600091602082016105c08036833701905050905060008160008151811061397557613975614b66565b60ff90921660209283029190910190910152825160019060005b81811015613a905760008682815181106139ab576139ab614b66565b016020015160f81c905060005b8460ff16811015613a355760088682815181106139d7576139d7614b66565b602002602001015160ff16901b826139ef9190615158565b91506139fc603a836156d0565b868281518110613a0e57613a0e614b66565b60ff90921660209283029190910190910152613a2b603a836156e4565b91506001016139b8565b505b8015613a8757613a48603a826156d0565b858560ff1681518110613a5d57613a5d614b66565b60ff90921660209283029190910190910152600190930192613a80603a826156e4565b9050613a37565b5060010161398f565b50613aab613aa6613aa18585613ab4565b613b5b565b613bfd565b95945050505050565b606060008260ff166001600160401b03811115613ad357613ad3614106565b604051908082528060200260200182016040528015613afc578160200160208202803683370190505b50905060005b8360ff16811015613b5357848181518110613b1f57613b1f614b66565b6020026020010151828281518110613b3957613b39614b66565b60ff90921660209283029190910190910152600101613b02565b509392505050565b80516060906000816001600160401b03811115613b7a57613b7a614106565b604051908082528060200260200182016040528015613ba3578160200160208202803683370190505b50905060005b82811015613b5357848160018751030381518110613bc957613bc9614b66565b6020026020010151828281518110613be357613be3614b66565b60ff90921660209283029190910190910152600101613ba9565b80516060906000816001600160401b03811115613c1c57613c1c614106565b6040519080825280601f01601f191660200182016040528015613c46576020820181803683370190505b50905060005b82811015613b53576040518060600160405280603a81526020016156f9603a9139858281518110613c7f57613c7f614b66565b602002602001015160ff1681518110613c9a57613c9a614b66565b602001015160f81c60f81b828281518110613cb757613cb7614b66565b60200101906001600160f81b031916908160001a905350600101613c4c565b6001600160e01b031981168114610fba57600080fd5b600060208284031215613cfe57600080fd5b81356113b081613cd6565b60005b83811015613d24578181015183820152602001613d0c565b50506000910152565b60008151808452613d45816020860160208601613d09565b601f01601f19169290920160200192915050565b6020815260006113b06020830184613d2d565b600060208284031215613d7e57600080fd5b5035919050565b6001600160a01b0381168114610fba57600080fd5b8035613da581613d85565b919050565b60008060408385031215613dbd57600080fd5b8235613dc881613d85565b946020939093013593505050565b600060208284031215613de857600080fd5b81356001600160401b03811115613dfe57600080fd5b820161020081850312156113b057600080fd5b60008083601f840112613e2357600080fd5b5081356001600160401b03811115613e3a57600080fd5b602083019150836020828501011115613e5257600080fd5b9250929050565b600080600080600080600060a0888a031215613e7457600080fd5b87356001600160401b0380821115613e8b57600080fd5b613e978b838c01613e11565b909950975060208a0135915080821115613eb057600080fd5b50613ebd8a828b01613e11565b9096509450506040880135613ed181613d85565b969995985093969295946060840135945060809093013592915050565b600080600060608486031215613f0357600080fd5b8335613f0e81613d85565b92506020840135613f1e81613d85565b929592945050506040919091013590565b600060208284031215613f4157600080fd5b81356113b081613d85565b60008060208385031215613f5f57600080fd5b82356001600160401b0380821115613f7657600080fd5b818501915085601f830112613f8a57600080fd5b813581811115613f9957600080fd5b8660208260061b8501011115613fae57600080fd5b60209290920196919550909350505050565b600060208284031215613fd257600080fd5b813560ff811681146113b057600080fd5b60008083601f840112613ff557600080fd5b5081356001600160401b0381111561400c57600080fd5b6020830191508360208260051b8501011115613e5257600080fd5b60008060006040848603121561403c57600080fd5b83356001600160401b0381111561405257600080fd5b61405e86828701613fe3565b909450925050602084013561407281613d85565b809150509250925092565b600081518084526020808501945080840160005b838110156140ad57815187529582019590820190600101614091565b509495945050505050565b6020815260006113b0602083018461407d565b6000602082840312156140dd57600080fd5b81356001600160401b038111156140f357600080fd5b820161022081850312156113b057600080fd5b634e487b7160e01b600052604160045260246000fd5b604051608081016001600160401b038111828210171561413e5761413e614106565b60405290565b60405161016081016001600160401b038111828210171561413e5761413e614106565b60405161012081016001600160401b038111828210171561413e5761413e614106565b60405161018081016001600160401b038111828210171561413e5761413e614106565b604051601f8201601f191681016001600160401b03811182821017156141d5576141d5614106565b604052919050565b60006001600160401b038211156141f6576141f6614106565b5060051b60200190565b60006101e0828403121561421357600080fd5b50919050565b6000806040838503121561422c57600080fd5b82356001600160401b038082111561424357600080fd5b818501915085601f83011261425757600080fd5b8135602061426c614267836141dd565b6141ad565b82815260059290921b8401810191818101908984111561428b57600080fd5b948201945b838610156142a957853582529482019490820190614290565b965050860135925050808211156142bf57600080fd5b506142cc85828601614200565b9150509250929050565b600080600080604085870312156142ec57600080fd5b84356001600160401b038082111561430357600080fd5b818701915087601f83011261431757600080fd5b81358181111561432657600080fd5b8860206101608302850101111561433c57600080fd5b60209283019650945090860135908082111561435757600080fd5b5061436487828801613fe3565b95989497509550505050565b60006020828403121561438257600080fd5b81356001600160401b0381111561439857600080fd5b61279b84828501614200565b60006001600160401b038211156143bd576143bd614106565b50601f01601f191660200190565b60006143d9614267846143a4565b90508281528383830111156143ed57600080fd5b828260208301376000602084830101529392505050565b600082601f83011261441557600080fd5b6113b0838335602085016143cb565b80356001600160681b0381168114613da557600080fd5b803563ffffffff81168114613da557600080fd5b61ffff81168114610fba57600080fd5b8035613da58161444f565b803562ffffff81168114613da557600080fd5b8015158114610fba57600080fd5b8035613da58161447d565b803565ffffffffffff81168114613da557600080fd5b600060808083850312156144bf57600080fd5b6144c761411c565b915082356001600160401b038111156144df57600080fd5b8301601f810185136144f057600080fd5b80356020614500614267836141dd565b828152610160928302840182019282820191908985111561452057600080fd5b948301945b848610156146015780868b03121561453d5760008081fd5b614545614144565b61454e87614424565b815261455b85880161443b565b85820152604061456c81890161443b565b90820152606061457d88820161445f565b9082015261458c878901613d9a565b8189015260a0878101359082015260c06145a781890161446a565b9082015260e06145b888820161448b565b908201526101006145ca88820161448b565b908201526101206145dc88820161448b565b908201526101406145ee88820161448b565b9082015283529485019491830191614525565b50865250614610868201614496565b818601525050505061462460408301614496565b604082015261463560608301613d9a565b606082015292915050565b60006080828403121561465257600080fd5b61465a61411c565b905081356146678161447d565b815260208201356146778161447d565b6020820152604082013561468a8161447d565b604082015260608201356146358161447d565b6000806000806000806000806000806101a08b8d0312156146bd57600080fd5b8a35995060208b01356001600160401b03808211156146db57600080fd5b6146e78e838f01614404565b9a5060408d01359150808211156146fd57600080fd5b6147098e838f01614404565b995061471760608e01613d9a565b985060808d013591508082111561472d57600080fd5b6147398e838f01614404565b975061474760a08e01613d9a565b965060c08d013591508082111561475d57600080fd5b6147698e838f01614404565b955060e08d013591508082111561477f57600080fd5b5061478c8d828e016144ac565b93505061479c6101008c01613d9a565b91506147ac8c6101208d01614640565b90509295989b9194979a5092959850565b600080604083850312156147d057600080fd5b82356147db81613d85565b915060208301356147eb8161447d565b809150509250929050565b600060608583526020818185015261481082850187613d2d565b6040858203818701528187518084528484019150848160051b850101858a0160005b8381101561488257868303601f19018552815180516001600160a01b0316845288810151898501528601518684018a905261486f8a850182613d2d565b9589019593505090870190600101614832565b50909c9b505050505050505050505050565b600080604083850312156148a757600080fd5b50508035926020909101359150565b600080600080608085870312156148cc57600080fd5b84356148d781613d85565b935060208501356148e781613d85565b92506040850135915060608501356001600160401b0381111561490957600080fd5b8501601f8101871361491a57600080fd5b614929878235602084016143cb565b91505092959194509250565b60006020828403121561494757600080fd5b81356001600160401b0381111561495d57600080fd5b82016101a081850312156113b057600080fd5b600060608583526020818185015261498a82850187613d2d565b6040858203818701528187518084528484019150848160051b850101858a0160005b8381101561488257868303601f19018552815180516001600160a01b0316845288810151898501528601518684018a90526149e98a850182613d2d565b95890195935050908701906001016149ac565b60008060408385031215614a0f57600080fd5b8235614a1a81613d85565b915060208301356147eb81613d85565b600181811c90821680614a3e57607f821691505b60208210810361421357634e487b7160e01b600052602260045260246000fd5b8051613da58161447d565b600060208284031215614a7b57600080fd5b81516113b08161447d565b6000808335601e19843603018112614a9d57600080fd5b8301803591506001600160401b03821115614ab757600080fd5b602001915036819003821315613e5257600080fd5b600082601f830112614add57600080fd5b81516020614aed614267836141dd565b82815260059290921b84018101918181019086841115614b0c57600080fd5b8286015b84811015614b275780518352918301918301614b10565b509695505050505050565b600060208284031215614b4457600080fd5b81516001600160401b03811115614b5a57600080fd5b61279b84828501614acc565b634e487b7160e01b600052603260045260246000fd5b601f821115610aae57600081815260208120601f850160051c81016020861015614ba35750805b601f850160051c820191505b81811015610c7757828155600101614baf565b6001600160401b03831115614bd957614bd9614106565b614bed83614be78354614a2a565b83614b7c565b6000601f841160018114614c215760008515614c095750838201355b600019600387901b1c1916600186901b17835561259f565b600083815260209020601f19861690835b82811015614c525786850135825560209485019460019092019101614c32565b5086821015614c6f5760001960f88860031b161c19848701351681555b505060018560011b0183555050505050565b8183823760009101908152919050565b600060408284031215614ca357600080fd5b604051604081018181106001600160401b0382111715614cc557614cc5614106565b604052823581526020928301359281019290925250919050565b84815260606020808301829052908201849052600090859060808401835b87811015614d26578335614d108161444f565b61ffff1682529282019290820190600101614cfd565b50809350505050821515604083015295945050505050565b60008060408385031215614d5157600080fd5b82516001600160401b03811115614d6757600080fd5b614d7385828601614acc565b925050602083015190509250929050565b600060208284031215614d9657600080fd5b81356113b08161444f565b600060208284031215614db357600080fd5b5051919050565b6001600160a01b038316815260406020820181905260009061279b9083018461407d565b6020808252810182905260006001600160fb1b03831115614dfe57600080fd5b8260051b80856040850137919091016040019392505050565b614e3182614e2483614424565b6001600160681b03169052565b614e3d6020820161443b565b63ffffffff166020830152614e546040820161443b565b63ffffffff166040830152614e6b6060820161445f565b61ffff166060830152614e8060808201613d9a565b6001600160a01b0316608083015260a08181013590830152614ea460c0820161446a565b62ffffff1660c0830152614eba60e0820161448b565b151560e0830152610100614ecf82820161448b565b151590830152610120614ee382820161448b565b151590830152610140614ef782820161448b565b80151584830152610f47565b6020808252810182905260008360408301825b85811015614f3c57614f288284614e17565b610160928301929190910190600101614f16565b5095945050505050565b6101808101614f558285614e17565b6001600160a01b03929092166101609190910152919050565b8051613da581613d85565b600060208284031215614f8b57600080fd5b81516113b081613d85565b81516001600160401b03811115614faf57614faf614106565b614fc381614fbd8454614a2a565b84614b7c565b602080601f831160018114614ff85760008415614fe05750858301515b600019600386901b1c1916600185901b178555610c77565b600085815260208120601f198616915b8281101561502757888601518255948401946001909101908401615008565b50858210156150455787850151600019600388901b60f8161c191681555b5050505050600190811b01905550565b602080825282518282018190526000919060409081850190868401855b8281101561512257815180516001600160681b031685528681015163ffffffff9081168887015286820151168686015260608082015161ffff16908601526080808201516001600160a01b03169086015260a0808201519086015260c08082015162ffffff169086015260e0808201511515908601526101008082015115159086015261012080820151151590860152610140908101511515908501526101609093019290850190600101615072565b5091979650505050505050565b634e487b7160e01b600052601160045260246000fd5b818103818111156109685761096861512f565b808201808211156109685761096861512f565b6000610120828403121561517e57600080fd5b615186614167565b825181526020830151602082015260408301516040820152606083015160608201526080830151608082015260a083015160a082015260c083015160c08201526151d260e08401614f6e565b60e0820152610100928301519281019290925250919050565b600082601f8301126151fc57600080fd5b815161520a614267826143a4565b81815284602083860101111561521f57600080fd5b61279b826020830160208701613d09565b60006020828403121561524257600080fd5b81516001600160401b0381111561525857600080fd5b61279b848285016151eb565b80820281158282048414176109685761096861512f565b6000808585111561528b57600080fd5b8386111561529857600080fd5b5050820193919092039150565b6001600160e01b031981358181169160048510156152cd5780818660040360031b1b83161692505b505092915050565b600181815b808511156153105781600019048211156152f6576152f661512f565b8085161561530357918102915b93841c93908002906152da565b509250929050565b60008261532757506001610968565b8161533457506000610968565b816001811461534a576002811461535457615370565b6001915050610968565b60ff8411156153655761536561512f565b50506001821b610968565b5060208310610133831016604e8410600b8410161715615393575081810a610968565b61539d83836152d5565b80600019048211156153b1576153b161512f565b029392505050565b60006113b08383615318565b600080604083850312156153d857600080fd5b82516153e38161447d565b809250506020808401516001600160401b0381111561540157600080fd5b8401601f8101861361541257600080fd5b8051615420614267826141dd565b81815260059190911b8201830190838101908883111561543f57600080fd5b928401925b828410156154665783516154578161444f565b82529284019290840190615444565b80955050505050509250929050565b60006080828403121561548757600080fd5b61548f61411c565b825161549a8161447d565b815260208301516154aa8161447d565b602082015260408301516154bd8161447d565b604082015260608301516154d08161447d565b60608201529392505050565b634e487b7160e01b600052601260045260246000fd5b60008351615504818460208801613d09565b835190830190615518818360208801613d09565b01949350505050565b60006020828403121561553357600080fd5b81516001600160401b038082111561554a57600080fd5b90830190610180828603121561555f57600080fd5b61556761418a565b825181526020830151602082015260408301516040820152606083015160608201526080830151608082015260a083015160a08201526155a960c08401614f6e565b60c082015260e083015160e08201526101008084015181830152506101206155d2818501614a5e565b908201526101406155e4848201614a5e565b9082015261016083810151838111156155fc57600080fd5b615608888287016151eb565b918301919091525095945050505050565b6000606082018583526020606081850152818651808452608086019150828801935060005b8181101561565e57845161ffff168352938301939183019160010161563e565b50508093505050508215156040830152949350505050565b6001600160a01b03858116825284166020820152604081018390526080606082018190526000906156a990830184613d2d565b9695505050505050565b6000602082840312156156c557600080fd5b81516113b081613cd6565b6000826156df576156df6154dc565b500690565b6000826156f3576156f36154dc565b50049056fe31323334353637383941424344454647484a4b4c4d4e505152535455565758595a6162636465666768696a6b6d6e6f707172737475767778797aa26469706673582212200f9310dc6489bfceb2fc087f15391f9722a45fcb6b1b07d80ffaaf9a3ad9fa3564736f6c63430008150033",
    "linkReferences": {}
  },
  "methodIdentifiers": {
    "adjustTiers((uint104,uint32,uint32,uint16,address,bytes32,uint24,bool,bool,bool,bool)[],uint256[])": "843d92ee",
    "approve(address,uint256)": "095ea7b3",
    "balanceOf(address)": "70a08231",
    "baseURI()": "6c0360eb",
    "codeOrigin()": "1d153ca4",
    "contractURI()": "e8a3d485",
    "creditsOf(address)": "245a45b5",
    "didPay((address,uint256,uint256,(address,uint256,uint256,uint256),(address,uint256,uint256,uint256),uint256,address,bool,string,bytes,bytes))": "6b204943",
    "didRedeem((address,uint256,uint256,uint256,(address,uint256,uint256,uint256),(address,uint256,uint256,uint256),address,string,bytes,bytes))": "0bf46e59",
    "directory()": "c41c2f24",
    "firstOwnerOf(uint256)": "54c6d1f5",
    "fundingCycleStore()": "557e7155",
    "getApproved(uint256)": "081812fc",
    "initialize(uint256,string,string,address,string,address,string,((uint104,uint32,uint32,uint16,address,bytes32,uint24,bool,bool,bool,bool)[],uint48,uint48,address),address,(bool,bool,bool,bool))": "a1250d7f",
    "isApprovedForAll(address,address)": "e985e9c5",
    "jbOwner()": "ba23c36e",
    "mintFor(uint16[],address)": "6ac6d941",
    "mintReservesFor((uint256,uint256)[])": "2a596e53",
    "mintReservesFor(uint256,uint256)": "aa4fb15b",
    "name()": "06fdde03",
    "operatorStore()": "ad007d63",
    "owner()": "8da5cb5b",
    "ownerOf(uint256)": "6352211e",
    "payMetadataDelegateId()": "46a6d981",
    "payParams((address,address,(address,uint256,uint256,uint256),uint256,uint256,address,uint256,uint256,string,bytes))": "d46cf171",
    "pricingContext()": "08786b1a",
    "projectId()": "3fafa127",
    "projects()": "8b79543c",
    "redeemMetadataDelegateId()": "4853f5e8",
    "redeemParams((address,address,uint256,uint256,uint256,uint256,uint256,(address,uint256,uint256,uint256),bool,uint256,string,bytes))": "a51cfd18",
    "redemptionWeightOf(uint256[],(address,address,uint256,uint256,uint256,uint256,uint256,(address,uint256,uint256,uint256),bool,uint256,string,bytes))": "7ba62bf9",
    "renounceOwnership()": "715018a6",
    "safeTransferFrom(address,address,uint256)": "42842e0e",
    "safeTransferFrom(address,address,uint256,bytes)": "b88d4fde",
    "setApprovalForAll(address,bool)": "a22cb465",
    "setMetadata(string,string,address,uint256,bytes32)": "1435aad5",
    "setPermissionIndex(uint8)": "61aec7a9",
    "store()": "975057e7",
    "supportsInterface(bytes4)": "01ffc9a7",
    "symbol()": "95d89b41",
    "tokenURI(uint256)": "c87b56dd",
    "totalRedemptionWeight((address,address,uint256,uint256,uint256,uint256,uint256,(address,uint256,uint256,uint256),bool,uint256,string,bytes))": "9494bf72",
    "transferFrom(address,address,uint256)": "23b872dd",
    "transferOwnership(address)": "f2fde38b",
    "transferOwnershipToProject(uint256)": "a220d696"
  },
  "id": 0
}