{
  "abi": [
    {
      "inputs": [],
      "stateMutability": "nonpayable",
      "type": "constructor"
    },
    {
      "inputs": [],
      "name": "ALEADY_MINTED",
      "type": "error"
    },
    {
      "inputs": [],
      "name": "APPROVAL_TO_CURRENT_OWNER",
      "type": "error"
    },
    {
      "inputs": [],
      "name": "APPROVE_TO_CALLER",
      "type": "error"
    },
    {
      "inputs": [],
      "name": "CALLER_NOT_OWNER_OR_APPROVED",
      "type": "error"
    },
    {
      "inputs": [],
      "name": "INCORRECT_OWNER",
      "type": "error"
    },
    {
      "inputs": [],
      "name": "INVALID_PAYMENT_EVENT",
      "type": "error"
    },
    {
      "inputs": [],
      "name": "INVALID_REDEMPTION_EVENT",
      "type": "error"
    },
    {
      "inputs": [],
      "name": "INVALID_REDEMPTION_METADATA",
      "type": "error"
    },
    {
      "inputs": [],
      "name": "INVALID_TOKEN_ID",
      "type": "error"
    },
    {
      "inputs": [],
      "name": "MINT_TO_ZERO",
      "type": "error"
    },
    {
      "inputs": [],
      "name": "NOT_AVAILABLE",
      "type": "error"
    },
    {
      "inputs": [],
      "name": "OVERSPENDING",
      "type": "error"
    },
    {
      "inputs": [
        {
          "internalType": "uint256",
          "name": "prod1",
          "type": "uint256"
        },
        {
          "internalType": "uint256",
          "name": "denominator",
          "type": "uint256"
        }
      ],
      "name": "PRBMath__MulDivOverflow",
      "type": "error"
    },
    {
      "inputs": [],
      "name": "PRICING_RESOLVER_CHANGES_PAUSED",
      "type": "error"
    },
    {
      "inputs": [],
      "name": "RESERVED_TOKEN_MINTING_PAUSED",
      "type": "error"
    },
    {
      "inputs": [],
      "name": "TRANSFERS_PAUSED",
      "type": "error"
    },
    {
      "inputs": [],
      "name": "TRANSFER_TO_NON_IMPLEMENTER",
      "type": "error"
    },
    {
      "inputs": [],
      "name": "TRANSFER_TO_ZERO_ADDRESS",
      "type": "error"
    },
    {
      "inputs": [],
      "name": "UNAUTHORIZED",
      "type": "error"
    },
    {
      "inputs": [],
      "name": "UNEXPECTED_TOKEN_REDEEMED",
      "type": "error"
    },
    {
      "anonymous": false,
      "inputs": [
        {
          "indexed": true,
          "internalType": "uint256",
          "name": "tierId",
          "type": "uint256"
        },
        {
          "components": [
            {
              "internalType": "uint256",
              "name": "contributionFloor",
              "type": "uint256"
            },
            {
              "internalType": "uint256",
              "name": "lockedUntil",
              "type": "uint256"
            },
            {
              "internalType": "uint256",
              "name": "initialQuantity",
              "type": "uint256"
            },
            {
              "internalType": "uint256",
              "name": "votingUnits",
              "type": "uint256"
            },
            {
              "internalType": "uint256",
              "name": "reservedRate",
              "type": "uint256"
            },
            {
              "internalType": "address",
              "name": "reservedTokenBeneficiary",
              "type": "address"
            },
            {
              "internalType": "bytes32",
              "name": "encodedIPFSUri",
              "type": "bytes32"
            },
            {
              "internalType": "bool",
              "name": "allowManualMint",
              "type": "bool"
            },
            {
              "internalType": "bool",
              "name": "shouldUseBeneficiaryAsDefault",
              "type": "bool"
            }
          ],
          "indexed": false,
          "internalType": "struct JB721TierParams",
          "name": "data",
          "type": "tuple"
        },
        {
          "indexed": false,
          "internalType": "address",
          "name": "caller",
          "type": "address"
        }
      ],
      "name": "AddTier",
      "type": "event"
    },
    {
      "anonymous": false,
      "inputs": [
        {
          "indexed": true,
          "internalType": "address",
          "name": "owner",
          "type": "address"
        },
        {
          "indexed": true,
          "internalType": "address",
          "name": "approved",
          "type": "address"
        },
        {
          "indexed": true,
          "internalType": "uint256",
          "name": "tokenId",
          "type": "uint256"
        }
      ],
      "name": "Approval",
      "type": "event"
    },
    {
      "anonymous": false,
      "inputs": [
        {
          "indexed": true,
          "internalType": "address",
          "name": "owner",
          "type": "address"
        },
        {
          "indexed": true,
          "internalType": "address",
          "name": "operator",
          "type": "address"
        },
        {
          "indexed": false,
          "internalType": "bool",
          "name": "approved",
          "type": "bool"
        }
      ],
      "name": "ApprovalForAll",
      "type": "event"
    },
    {
      "anonymous": false,
      "inputs": [
        {
          "indexed": true,
          "internalType": "uint256",
          "name": "tokenId",
          "type": "uint256"
        },
        {
          "indexed": true,
          "internalType": "uint256",
          "name": "tierId",
          "type": "uint256"
        },
        {
          "indexed": true,
          "internalType": "address",
          "name": "beneficiary",
          "type": "address"
        },
        {
          "indexed": false,
          "internalType": "uint256",
          "name": "totalAmountContributed",
          "type": "uint256"
        },
        {
          "indexed": false,
          "internalType": "address",
          "name": "caller",
          "type": "address"
        }
      ],
      "name": "Mint",
      "type": "event"
    },
    {
      "anonymous": false,
      "inputs": [
        {
          "indexed": true,
          "internalType": "uint256",
          "name": "tokenId",
          "type": "uint256"
        },
        {
          "indexed": true,
          "internalType": "uint256",
          "name": "tierId",
          "type": "uint256"
        },
        {
          "indexed": true,
          "internalType": "address",
          "name": "beneficiary",
          "type": "address"
        },
        {
          "indexed": false,
          "internalType": "address",
          "name": "caller",
          "type": "address"
        }
      ],
      "name": "MintReservedToken",
      "type": "event"
    },
    {
      "anonymous": false,
      "inputs": [
        {
          "indexed": true,
          "internalType": "address",
          "name": "previousOwner",
          "type": "address"
        },
        {
          "indexed": true,
          "internalType": "address",
          "name": "newOwner",
          "type": "address"
        }
      ],
      "name": "OwnershipTransferred",
      "type": "event"
    },
    {
      "anonymous": false,
      "inputs": [
        {
          "indexed": true,
          "internalType": "uint256",
          "name": "tierId",
          "type": "uint256"
        },
        {
          "indexed": false,
          "internalType": "address",
          "name": "caller",
          "type": "address"
        }
      ],
      "name": "RemoveTier",
      "type": "event"
    },
    {
      "anonymous": false,
      "inputs": [
        {
          "indexed": true,
          "internalType": "string",
          "name": "baseUri",
          "type": "string"
        },
        {
          "indexed": false,
          "internalType": "address",
          "name": "caller",
          "type": "address"
        }
      ],
      "name": "SetBaseUri",
      "type": "event"
    },
    {
      "anonymous": false,
      "inputs": [
        {
          "indexed": true,
          "internalType": "string",
          "name": "contractUri",
          "type": "string"
        },
        {
          "indexed": false,
          "internalType": "address",
          "name": "caller",
          "type": "address"
        }
      ],
      "name": "SetContractUri",
      "type": "event"
    },
    {
      "anonymous": false,
      "inputs": [
        {
          "indexed": true,
          "internalType": "address",
          "name": "beneficiary",
          "type": "address"
        },
        {
          "indexed": false,
          "internalType": "address",
          "name": "caller",
          "type": "address"
        }
      ],
      "name": "SetDefaultReservedTokenBeneficiary",
      "type": "event"
    },
    {
      "anonymous": false,
      "inputs": [
        {
          "indexed": true,
          "internalType": "contract IJBTokenUriResolver",
          "name": "newResolver",
          "type": "address"
        },
        {
          "indexed": false,
          "internalType": "address",
          "name": "caller",
          "type": "address"
        }
      ],
      "name": "SetTokenUriResolver",
      "type": "event"
    },
    {
      "anonymous": false,
      "inputs": [
        {
          "indexed": true,
          "internalType": "address",
          "name": "from",
          "type": "address"
        },
        {
          "indexed": true,
          "internalType": "address",
          "name": "to",
          "type": "address"
        },
        {
          "indexed": true,
          "internalType": "uint256",
          "name": "tokenId",
          "type": "uint256"
        }
      ],
      "name": "Transfer",
      "type": "event"
    },
    {
      "inputs": [
        {
          "components": [
            {
              "internalType": "uint256",
              "name": "contributionFloor",
              "type": "uint256"
            },
            {
              "internalType": "uint256",
              "name": "lockedUntil",
              "type": "uint256"
            },
            {
              "internalType": "uint256",
              "name": "initialQuantity",
              "type": "uint256"
            },
            {
              "internalType": "uint256",
              "name": "votingUnits",
              "type": "uint256"
            },
            {
              "internalType": "uint256",
              "name": "reservedRate",
              "type": "uint256"
            },
            {
              "internalType": "address",
              "name": "reservedTokenBeneficiary",
              "type": "address"
            },
            {
              "internalType": "bytes32",
              "name": "encodedIPFSUri",
              "type": "bytes32"
            },
            {
              "internalType": "bool",
              "name": "allowManualMint",
              "type": "bool"
            },
            {
              "internalType": "bool",
              "name": "shouldUseBeneficiaryAsDefault",
              "type": "bool"
            }
          ],
          "internalType": "struct JB721TierParams[]",
          "name": "_tiersToAdd",
          "type": "tuple[]"
        },
        {
          "internalType": "uint256[]",
          "name": "_tierIdsToRemove",
          "type": "uint256[]"
        }
      ],
      "name": "adjustTiers",
      "outputs": [],
      "stateMutability": "nonpayable",
      "type": "function"
    },
    {
      "inputs": [
        {
          "internalType": "address",
          "name": "to",
          "type": "address"
        },
        {
          "internalType": "uint256",
          "name": "tokenId",
          "type": "uint256"
        }
      ],
      "name": "approve",
      "outputs": [],
      "stateMutability": "nonpayable",
      "type": "function"
    },
    {
      "inputs": [
        {
          "internalType": "address",
          "name": "_owner",
          "type": "address"
        }
      ],
      "name": "balanceOf",
      "outputs": [
        {
          "internalType": "uint256",
          "name": "balance",
          "type": "uint256"
        }
      ],
      "stateMutability": "view",
      "type": "function"
    },
    {
      "inputs": [],
      "name": "codeOrigin",
      "outputs": [
        {
          "internalType": "address",
          "name": "",
          "type": "address"
        }
      ],
      "stateMutability": "view",
      "type": "function"
    },
    {
      "inputs": [],
      "name": "contractURI",
      "outputs": [
        {
          "internalType": "string",
          "name": "",
          "type": "string"
        }
      ],
      "stateMutability": "view",
      "type": "function"
    },
    {
      "inputs": [
        {
          "internalType": "address",
          "name": "",
          "type": "address"
        }
      ],
      "name": "creditsOf",
      "outputs": [
        {
          "internalType": "uint256",
          "name": "",
          "type": "uint256"
        }
      ],
      "stateMutability": "view",
      "type": "function"
    },
    {
      "inputs": [
        {
          "components": [
            {
              "internalType": "address",
              "name": "payer",
              "type": "address"
            },
            {
              "internalType": "uint256",
              "name": "projectId",
              "type": "uint256"
            },
            {
              "internalType": "uint256",
              "name": "currentFundingCycleConfiguration",
              "type": "uint256"
            },
            {
              "components": [
                {
                  "internalType": "address",
                  "name": "token",
                  "type": "address"
                },
                {
                  "internalType": "uint256",
                  "name": "value",
                  "type": "uint256"
                },
                {
                  "internalType": "uint256",
                  "name": "decimals",
                  "type": "uint256"
                },
                {
                  "internalType": "uint256",
                  "name": "currency",
                  "type": "uint256"
                }
              ],
              "internalType": "struct JBTokenAmount",
              "name": "amount",
              "type": "tuple"
            },
            {
              "components": [
                {
                  "internalType": "address",
                  "name": "token",
                  "type": "address"
                },
                {
                  "internalType": "uint256",
                  "name": "value",
                  "type": "uint256"
                },
                {
                  "internalType": "uint256",
                  "name": "decimals",
                  "type": "uint256"
                },
                {
                  "internalType": "uint256",
                  "name": "currency",
                  "type": "uint256"
                }
              ],
              "internalType": "struct JBTokenAmount",
              "name": "forwardedAmount",
              "type": "tuple"
            },
            {
              "internalType": "uint256",
              "name": "projectTokenCount",
              "type": "uint256"
            },
            {
              "internalType": "address",
              "name": "beneficiary",
              "type": "address"
            },
            {
              "internalType": "bool",
              "name": "preferClaimedTokens",
              "type": "bool"
            },
            {
              "internalType": "string",
              "name": "memo",
              "type": "string"
            },
            {
              "internalType": "bytes",
              "name": "metadata",
              "type": "bytes"
            }
          ],
          "internalType": "struct JBDidPayData",
          "name": "_data",
          "type": "tuple"
        }
      ],
      "name": "didPay",
      "outputs": [],
      "stateMutability": "payable",
      "type": "function"
    },
    {
      "inputs": [
        {
          "components": [
            {
              "internalType": "address",
              "name": "holder",
              "type": "address"
            },
            {
              "internalType": "uint256",
              "name": "projectId",
              "type": "uint256"
            },
            {
              "internalType": "uint256",
              "name": "currentFundingCycleConfiguration",
              "type": "uint256"
            },
            {
              "internalType": "uint256",
              "name": "projectTokenCount",
              "type": "uint256"
            },
            {
              "components": [
                {
                  "internalType": "address",
                  "name": "token",
                  "type": "address"
                },
                {
                  "internalType": "uint256",
                  "name": "value",
                  "type": "uint256"
                },
                {
                  "internalType": "uint256",
                  "name": "decimals",
                  "type": "uint256"
                },
                {
                  "internalType": "uint256",
                  "name": "currency",
                  "type": "uint256"
                }
              ],
              "internalType": "struct JBTokenAmount",
              "name": "reclaimedAmount",
              "type": "tuple"
            },
            {
              "components": [
                {
                  "internalType": "address",
                  "name": "token",
                  "type": "address"
                },
                {
                  "internalType": "uint256",
                  "name": "value",
                  "type": "uint256"
                },
                {
                  "internalType": "uint256",
                  "name": "decimals",
                  "type": "uint256"
                },
                {
                  "internalType": "uint256",
                  "name": "currency",
                  "type": "uint256"
                }
              ],
              "internalType": "struct JBTokenAmount",
              "name": "forwardedAmount",
              "type": "tuple"
            },
            {
              "internalType": "address payable",
              "name": "beneficiary",
              "type": "address"
            },
            {
              "internalType": "string",
              "name": "memo",
              "type": "string"
            },
            {
              "internalType": "bytes",
              "name": "metadata",
              "type": "bytes"
            }
          ],
          "internalType": "struct JBDidRedeemData",
          "name": "_data",
          "type": "tuple"
        }
      ],
      "name": "didRedeem",
      "outputs": [],
      "stateMutability": "payable",
      "type": "function"
    },
    {
      "inputs": [],
      "name": "directory",
      "outputs": [
        {
          "internalType": "contract IJBDirectory",
          "name": "",
          "type": "address"
        }
      ],
      "stateMutability": "view",
      "type": "function"
    },
    {
      "inputs": [
        {
          "internalType": "uint256",
          "name": "_tokenId",
          "type": "uint256"
        }
      ],
      "name": "firstOwnerOf",
      "outputs": [
        {
          "internalType": "address",
          "name": "",
          "type": "address"
        }
      ],
      "stateMutability": "view",
      "type": "function"
    },
    {
      "inputs": [],
      "name": "fundingCycleStore",
      "outputs": [
        {
          "internalType": "contract IJBFundingCycleStore",
          "name": "",
          "type": "address"
        }
      ],
      "stateMutability": "view",
      "type": "function"
    },
    {
      "inputs": [
        {
          "internalType": "uint256",
          "name": "tokenId",
          "type": "uint256"
        }
      ],
      "name": "getApproved",
      "outputs": [
        {
          "internalType": "address",
          "name": "",
          "type": "address"
        }
      ],
      "stateMutability": "view",
      "type": "function"
    },
    {
      "inputs": [
        {
          "internalType": "uint256",
          "name": "_projectId",
          "type": "uint256"
        },
        {
          "internalType": "contract IJBDirectory",
          "name": "_directory",
          "type": "address"
        },
        {
          "internalType": "string",
          "name": "_name",
          "type": "string"
        },
        {
          "internalType": "string",
          "name": "_symbol",
          "type": "string"
        },
        {
          "internalType": "contract IJBFundingCycleStore",
          "name": "_fundingCycleStore",
          "type": "address"
        },
        {
          "internalType": "string",
          "name": "_baseUri",
          "type": "string"
        },
        {
          "internalType": "contract IJBTokenUriResolver",
          "name": "_tokenUriResolver",
          "type": "address"
        },
        {
          "internalType": "string",
          "name": "_contractUri",
          "type": "string"
        },
        {
          "components": [
            {
              "components": [
                {
                  "internalType": "uint256",
                  "name": "contributionFloor",
                  "type": "uint256"
                },
                {
                  "internalType": "uint256",
                  "name": "lockedUntil",
                  "type": "uint256"
                },
                {
                  "internalType": "uint256",
                  "name": "initialQuantity",
                  "type": "uint256"
                },
                {
                  "internalType": "uint256",
                  "name": "votingUnits",
                  "type": "uint256"
                },
                {
                  "internalType": "uint256",
                  "name": "reservedRate",
                  "type": "uint256"
                },
                {
                  "internalType": "address",
                  "name": "reservedTokenBeneficiary",
                  "type": "address"
                },
                {
                  "internalType": "bytes32",
                  "name": "encodedIPFSUri",
                  "type": "bytes32"
                },
                {
                  "internalType": "bool",
                  "name": "allowManualMint",
                  "type": "bool"
                },
                {
                  "internalType": "bool",
                  "name": "shouldUseBeneficiaryAsDefault",
                  "type": "bool"
                }
              ],
              "internalType": "struct JB721TierParams[]",
              "name": "tiers",
              "type": "tuple[]"
            },
            {
              "internalType": "uint256",
              "name": "currency",
              "type": "uint256"
            },
            {
              "internalType": "uint256",
              "name": "decimals",
              "type": "uint256"
            },
            {
              "internalType": "contract IJBPrices",
              "name": "prices",
              "type": "address"
            }
          ],
          "internalType": "struct JB721PricingParams",
          "name": "_pricing",
          "type": "tuple"
        },
        {
          "internalType": "contract IJBTiered721DelegateStore",
          "name": "_store",
          "type": "address"
        },
        {
          "components": [
            {
              "internalType": "bool",
              "name": "lockReservedTokenChanges",
              "type": "bool"
            },
            {
              "internalType": "bool",
              "name": "lockVotingUnitChanges",
              "type": "bool"
            },
            {
              "internalType": "bool",
              "name": "lockManualMintingChanges",
              "type": "bool"
            },
            {
              "internalType": "bool",
              "name": "pausable",
              "type": "bool"
            }
          ],
          "internalType": "struct JBTiered721Flags",
          "name": "_flags",
          "type": "tuple"
        }
      ],
      "name": "initialize",
      "outputs": [],
      "stateMutability": "nonpayable",
      "type": "function"
    },
    {
      "inputs": [
        {
          "internalType": "address",
          "name": "owner",
          "type": "address"
        },
        {
          "internalType": "address",
          "name": "operator",
          "type": "address"
        }
      ],
      "name": "isApprovedForAll",
      "outputs": [
        {
          "internalType": "bool",
          "name": "",
          "type": "bool"
        }
      ],
      "stateMutability": "view",
      "type": "function"
    },
    {
      "inputs": [
        {
          "components": [
            {
              "internalType": "uint16[]",
              "name": "tierIds",
              "type": "uint16[]"
            },
            {
              "internalType": "address",
              "name": "beneficiary",
              "type": "address"
            }
          ],
          "internalType": "struct JBTiered721MintForTiersData[]",
          "name": "_mintForTiersData",
          "type": "tuple[]"
        }
      ],
      "name": "mintFor",
      "outputs": [],
      "stateMutability": "nonpayable",
      "type": "function"
    },
    {
      "inputs": [
        {
          "internalType": "uint16[]",
          "name": "_tierIds",
          "type": "uint16[]"
        },
        {
          "internalType": "address",
          "name": "_beneficiary",
          "type": "address"
        }
      ],
      "name": "mintFor",
      "outputs": [
        {
          "internalType": "uint256[]",
          "name": "tokenIds",
          "type": "uint256[]"
        }
      ],
      "stateMutability": "nonpayable",
      "type": "function"
    },
    {
      "inputs": [
        {
          "components": [
            {
              "internalType": "uint256",
              "name": "tierId",
              "type": "uint256"
            },
            {
              "internalType": "uint256",
              "name": "count",
              "type": "uint256"
            }
          ],
          "internalType": "struct JBTiered721MintReservesForTiersData[]",
          "name": "_mintReservesForTiersData",
          "type": "tuple[]"
        }
      ],
      "name": "mintReservesFor",
      "outputs": [],
      "stateMutability": "nonpayable",
      "type": "function"
    },
    {
      "inputs": [
        {
          "internalType": "uint256",
          "name": "_tierId",
          "type": "uint256"
        },
        {
          "internalType": "uint256",
          "name": "_count",
          "type": "uint256"
        }
      ],
      "name": "mintReservesFor",
      "outputs": [],
      "stateMutability": "nonpayable",
      "type": "function"
    },
    {
      "inputs": [],
      "name": "name",
      "outputs": [
        {
          "internalType": "string",
          "name": "",
          "type": "string"
        }
      ],
      "stateMutability": "view",
      "type": "function"
    },
    {
      "inputs": [],
      "name": "owner",
      "outputs": [
        {
          "internalType": "address",
          "name": "",
          "type": "address"
        }
      ],
      "stateMutability": "view",
      "type": "function"
    },
    {
      "inputs": [
        {
          "internalType": "uint256",
          "name": "tokenId",
          "type": "uint256"
        }
      ],
      "name": "ownerOf",
      "outputs": [
        {
          "internalType": "address",
          "name": "",
          "type": "address"
        }
      ],
      "stateMutability": "view",
      "type": "function"
    },
    {
      "inputs": [
        {
          "components": [
            {
              "internalType": "contract IJBPaymentTerminal",
              "name": "terminal",
              "type": "address"
            },
            {
              "internalType": "address",
              "name": "payer",
              "type": "address"
            },
            {
              "components": [
                {
                  "internalType": "address",
                  "name": "token",
                  "type": "address"
                },
                {
                  "internalType": "uint256",
                  "name": "value",
                  "type": "uint256"
                },
                {
                  "internalType": "uint256",
                  "name": "decimals",
                  "type": "uint256"
                },
                {
                  "internalType": "uint256",
                  "name": "currency",
                  "type": "uint256"
                }
              ],
              "internalType": "struct JBTokenAmount",
              "name": "amount",
              "type": "tuple"
            },
            {
              "internalType": "uint256",
              "name": "projectId",
              "type": "uint256"
            },
            {
              "internalType": "uint256",
              "name": "currentFundingCycleConfiguration",
              "type": "uint256"
            },
            {
              "internalType": "address",
              "name": "beneficiary",
              "type": "address"
            },
            {
              "internalType": "uint256",
              "name": "weight",
              "type": "uint256"
            },
            {
              "internalType": "uint256",
              "name": "reservedRate",
              "type": "uint256"
            },
            {
              "internalType": "string",
              "name": "memo",
              "type": "string"
            },
            {
              "internalType": "bytes",
              "name": "metadata",
              "type": "bytes"
            }
          ],
          "internalType": "struct JBPayParamsData",
          "name": "_data",
          "type": "tuple"
        }
      ],
      "name": "payParams",
      "outputs": [
        {
          "internalType": "uint256",
          "name": "weight",
          "type": "uint256"
        },
        {
          "internalType": "string",
          "name": "memo",
          "type": "string"
        },
        {
          "components": [
            {
              "internalType": "contract IJBPayDelegate",
              "name": "delegate",
              "type": "address"
            },
            {
              "internalType": "uint256",
              "name": "amount",
              "type": "uint256"
            }
          ],
          "internalType": "struct JBPayDelegateAllocation[]",
          "name": "delegateAllocations",
          "type": "tuple[]"
        }
      ],
      "stateMutability": "view",
      "type": "function"
    },
    {
      "inputs": [],
      "name": "prices",
      "outputs": [
        {
          "internalType": "contract IJBPrices",
          "name": "",
          "type": "address"
        }
      ],
      "stateMutability": "view",
      "type": "function"
    },
    {
      "inputs": [],
      "name": "pricingCurrency",
      "outputs": [
        {
          "internalType": "uint256",
          "name": "",
          "type": "uint256"
        }
      ],
      "stateMutability": "view",
      "type": "function"
    },
    {
      "inputs": [],
      "name": "pricingDecimals",
      "outputs": [
        {
          "internalType": "uint256",
          "name": "",
          "type": "uint256"
        }
      ],
      "stateMutability": "view",
      "type": "function"
    },
    {
      "inputs": [],
      "name": "projectId",
      "outputs": [
        {
          "internalType": "uint256",
          "name": "",
          "type": "uint256"
        }
      ],
      "stateMutability": "view",
      "type": "function"
    },
    {
      "inputs": [
        {
          "components": [
            {
              "internalType": "contract IJBPaymentTerminal",
              "name": "terminal",
              "type": "address"
            },
            {
              "internalType": "address",
              "name": "holder",
              "type": "address"
            },
            {
              "internalType": "uint256",
              "name": "projectId",
              "type": "uint256"
            },
            {
              "internalType": "uint256",
              "name": "currentFundingCycleConfiguration",
              "type": "uint256"
            },
            {
              "internalType": "uint256",
              "name": "tokenCount",
              "type": "uint256"
            },
            {
              "internalType": "uint256",
              "name": "totalSupply",
              "type": "uint256"
            },
            {
              "internalType": "uint256",
              "name": "overflow",
              "type": "uint256"
            },
            {
              "components": [
                {
                  "internalType": "address",
                  "name": "token",
                  "type": "address"
                },
                {
                  "internalType": "uint256",
                  "name": "value",
                  "type": "uint256"
                },
                {
                  "internalType": "uint256",
                  "name": "decimals",
                  "type": "uint256"
                },
                {
                  "internalType": "uint256",
                  "name": "currency",
                  "type": "uint256"
                }
              ],
              "internalType": "struct JBTokenAmount",
              "name": "reclaimAmount",
              "type": "tuple"
            },
            {
              "internalType": "bool",
              "name": "useTotalOverflow",
              "type": "bool"
            },
            {
              "internalType": "uint256",
              "name": "redemptionRate",
              "type": "uint256"
            },
            {
              "internalType": "string",
              "name": "memo",
              "type": "string"
            },
            {
              "internalType": "bytes",
              "name": "metadata",
              "type": "bytes"
            }
          ],
          "internalType": "struct JBRedeemParamsData",
          "name": "_data",
          "type": "tuple"
        }
      ],
      "name": "redeemParams",
      "outputs": [
        {
          "internalType": "uint256",
          "name": "reclaimAmount",
          "type": "uint256"
        },
        {
          "internalType": "string",
          "name": "memo",
          "type": "string"
        },
        {
          "components": [
            {
              "internalType": "contract IJBRedemptionDelegate",
              "name": "delegate",
              "type": "address"
            },
            {
              "internalType": "uint256",
              "name": "amount",
              "type": "uint256"
            }
          ],
          "internalType": "struct JBRedemptionDelegateAllocation[]",
          "name": "delegateAllocations",
          "type": "tuple[]"
        }
      ],
      "stateMutability": "view",
      "type": "function"
    },
    {
      "inputs": [],
      "name": "renounceOwnership",
      "outputs": [],
      "stateMutability": "nonpayable",
      "type": "function"
    },
    {
      "inputs": [
        {
          "internalType": "address",
          "name": "from",
          "type": "address"
        },
        {
          "internalType": "address",
          "name": "to",
          "type": "address"
        },
        {
          "internalType": "uint256",
          "name": "tokenId",
          "type": "uint256"
        }
      ],
      "name": "safeTransferFrom",
      "outputs": [],
      "stateMutability": "nonpayable",
      "type": "function"
    },
    {
      "inputs": [
        {
          "internalType": "address",
          "name": "from",
          "type": "address"
        },
        {
          "internalType": "address",
          "name": "to",
          "type": "address"
        },
        {
          "internalType": "uint256",
          "name": "tokenId",
          "type": "uint256"
        },
        {
          "internalType": "bytes",
          "name": "data",
          "type": "bytes"
        }
      ],
      "name": "safeTransferFrom",
      "outputs": [],
      "stateMutability": "nonpayable",
      "type": "function"
    },
    {
      "inputs": [
        {
          "internalType": "address",
          "name": "operator",
          "type": "address"
        },
        {
          "internalType": "bool",
          "name": "approved",
          "type": "bool"
        }
      ],
      "name": "setApprovalForAll",
      "outputs": [],
      "stateMutability": "nonpayable",
      "type": "function"
    },
    {
      "inputs": [
        {
          "internalType": "string",
          "name": "_baseUri",
          "type": "string"
        }
      ],
      "name": "setBaseUri",
      "outputs": [],
      "stateMutability": "nonpayable",
      "type": "function"
    },
    {
      "inputs": [
        {
          "internalType": "string",
          "name": "_contractUri",
          "type": "string"
        }
      ],
      "name": "setContractUri",
      "outputs": [],
      "stateMutability": "nonpayable",
      "type": "function"
    },
    {
      "inputs": [
        {
          "internalType": "address",
          "name": "_beneficiary",
          "type": "address"
        }
      ],
      "name": "setDefaultReservedTokenBeneficiary",
      "outputs": [],
      "stateMutability": "nonpayable",
      "type": "function"
    },
    {
      "inputs": [
        {
          "internalType": "contract IJBTokenUriResolver",
          "name": "_tokenUriResolver",
          "type": "address"
        }
      ],
      "name": "setTokenUriResolver",
      "outputs": [],
      "stateMutability": "nonpayable",
      "type": "function"
    },
    {
      "inputs": [],
      "name": "store",
      "outputs": [
        {
          "internalType": "contract IJBTiered721DelegateStore",
          "name": "",
          "type": "address"
        }
      ],
      "stateMutability": "view",
      "type": "function"
    },
    {
      "inputs": [
        {
          "internalType": "bytes4",
          "name": "_interfaceId",
          "type": "bytes4"
        }
      ],
      "name": "supportsInterface",
      "outputs": [
        {
          "internalType": "bool",
          "name": "",
          "type": "bool"
        }
      ],
      "stateMutability": "view",
      "type": "function"
    },
    {
      "inputs": [],
      "name": "symbol",
      "outputs": [
        {
          "internalType": "string",
          "name": "",
          "type": "string"
        }
      ],
      "stateMutability": "view",
      "type": "function"
    },
    {
      "inputs": [
        {
          "internalType": "uint256",
          "name": "_tokenId",
          "type": "uint256"
        }
      ],
      "name": "tokenURI",
      "outputs": [
        {
          "internalType": "string",
          "name": "",
          "type": "string"
        }
      ],
      "stateMutability": "view",
      "type": "function"
    },
    {
      "inputs": [
        {
          "internalType": "address",
          "name": "from",
          "type": "address"
        },
        {
          "internalType": "address",
          "name": "to",
          "type": "address"
        },
        {
          "internalType": "uint256",
          "name": "tokenId",
          "type": "uint256"
        }
      ],
      "name": "transferFrom",
      "outputs": [],
      "stateMutability": "nonpayable",
      "type": "function"
    },
    {
      "inputs": [
        {
          "internalType": "address",
          "name": "newOwner",
          "type": "address"
        }
      ],
      "name": "transferOwnership",
      "outputs": [],
      "stateMutability": "nonpayable",
      "type": "function"
    }
  ],
  "bytecode": {
    "object": "0x60806040523480156200001157600080fd5b506200001d3362000035565b600880546001600160a01b0319163017905562000087565b600780546001600160a01b038381166001600160a01b0319831681179093556040519116919082907f8be0079c531659141344cd1fd0a4f28419497f9722a3daafe3b4186f6b6457e090600090a35050565b61483780620000976000396000f3fe6080604052600436106102465760003560e01c806370a0823111610139578063c41c2f24116100b6578063da9ee8b71161007a578063da9ee8b7146106d0578063df487e26146106e3578063dfedb3af14610703578063e8a3d48514610723578063e985e9c514610738578063f2fde38b1461075857600080fd5b8063c41c2f2414610630578063c87b56dd14610650578063ccb4807b14610670578063d3419bf314610690578063d46cf171146106b057600080fd5b8063a0bcfc7f116100fd578063a0bcfc7f14610581578063a22cb465146105a1578063a51cfd18146105c1578063aa4fb15b146105f0578063b88d4fde1461061057600080fd5b806370a08231146104f9578063715018a6146105195780638da5cb5b1461052e57806395d89b411461054c578063975057e71461056157600080fd5b80632b13c58f116101c757806354c6d1f51161018b57806354c6d1f514610456578063557e7155146104765780636352211e1461049657806364640c1e146104b65780636ac6d941146104cc57600080fd5b80632b13c58f146103d757806336c1a93b146103ea5780633fafa1271461040a57806342842e0e146104205780634ecba6251461044057600080fd5b8063211eb0011161020e578063211eb0011461031c57806323b872dd1461033c5780632407497e1461035c578063245a45b51461037c5780632a596e53146103b757600080fd5b806301ffc9a71461024b57806306fdde0314610280578063081812fc146102a2578063095ea7b3146102da5780631d153ca4146102fc575b600080fd5b34801561025757600080fd5b5061026b6102663660046130e6565b610778565b60405190151581526020015b60405180910390f35b34801561028c57600080fd5b506102956107a3565b6040516102779190613153565b3480156102ae57600080fd5b506102c26102bd366004613166565b610835565b6040516001600160a01b039091168152602001610277565b3480156102e657600080fd5b506102fa6102f53660046131a4565b61085c565b005b34801561030857600080fd5b506008546102c2906001600160a01b031681565b34801561032857600080fd5b506102fa6103373660046131d0565b6108e8565b34801561034857600080fd5b506102fa610357366004613298565b610acb565b34801561036857600080fd5b506102fa6103773660046132d9565b610afd565b34801561038857600080fd5b506103a96103973660046132d9565b600e6020526000908152604090205481565b604051908152602001610277565b3480156103c357600080fd5b506102fa6103d23660046133ef565b610ba6565b6102fa6103e53660046134c2565b610bec565b3480156103f657600080fd5b506102fa61040536600461356d565b610dc9565b34801561041657600080fd5b506103a960055481565b34801561042c57600080fd5b506102fa61043b366004613298565b610e18565b34801561044c57600080fd5b506103a9600d5481565b34801561046257600080fd5b506102c2610471366004613166565b610e33565b34801561048257600080fd5b50600a546102c2906001600160a01b031681565b3480156104a257600080fd5b506102c26104b1366004613166565b610edf565b3480156104c257600080fd5b506103a9600c5481565b3480156104d857600080fd5b506104ec6104e7366004613667565b610f15565b60405161027791906136f3565b34801561050557600080fd5b506103a96105143660046132d9565b61105b565b34801561052557600080fd5b506102fa6110d1565b34801561053a57600080fd5b506007546001600160a01b03166102c2565b34801561055857600080fd5b506102956110e5565b34801561056d57600080fd5b506009546102c2906001600160a01b031681565b34801561058d57600080fd5b506102fa61059c366004613786565b6110f4565b3480156105ad57600080fd5b506102fa6105bc3660046137d3565b6111a3565b3480156105cd57600080fd5b506105e16105dc3660046134c2565b6111b2565b60405161027793929190613801565b3480156105fc57600080fd5b506102fa61060b366004613873565b611473565b34801561061c57600080fd5b506102fa61062b366004613895565b611690565b34801561063c57600080fd5b506006546102c2906001600160a01b031681565b34801561065c57600080fd5b5061029561066b366004613166565b6116c3565b34801561067c57600080fd5b506102fa61068b366004613914565b611921565b34801561069c57600080fd5b50600b546102c2906001600160a01b031681565b3480156106bc57600080fd5b506105e16106cb366004613985565b6119db565b6102fa6106de3660046139c0565b611abe565b3480156106ef57600080fd5b506102fa6106fe3660046132d9565b611b7b565b34801561070f57600080fd5b506102fa61071e366004613b96565b611c1d565b34801561072f57600080fd5b50610295611f1b565b34801561074457600080fd5b5061026b610753366004613ccf565b611f91565b34801561076457600080fd5b506102fa6107733660046132d9565b611fbf565b60006001600160e01b03198216634340b9e160e01b148061079d575061079d8261203a565b92915050565b6060600080546107b290613cfd565b80601f01602080910402602001604051908101604052809291908181526020018280546107de90613cfd565b801561082b5780601f106108005761010080835404028352916020019161082b565b820191906000526020600020905b81548152906001019060200180831161080e57829003601f168201915b5050505050905090565b6000610840826120b0565b506000908152600360205260409020546001600160a01b031690565b600061086782610edf565b9050806001600160a01b0316836001600160a01b03160361089b5760405163133f8be960e01b815260040160405180910390fd5b336001600160a01b038216148015906108bb57506108b98133611f91565b155b156108d95760405163e5fa0e3560e01b815260040160405180910390fd5b6108e383836120e5565b505050565b6108f0612153565b828180156109c0576009546040516320512ba160e01b81526001600160a01b03909116906320512ba19061092a9087908790600401613d31565b600060405180830381600087803b15801561094457600080fd5b505af1158015610958573d6000803e3d6000fd5b5050505060005b818110156109be5784848281811061097957610979613d6a565b60405133815260209182029390930135927f832d89d991be5351d793c20faf4b7dd44f8aa9ce39e3cb160c6317de6fbba72992500160405180910390a260010161095f565b505b8115610ac35760095460405163d0cf48a560e01b81526000916001600160a01b03169063d0cf48a5906109f9908a908a90600401613e01565b6000604051808303816000875af1158015610a18573d6000803e3d6000fd5b505050506040513d6000823e601f3d908101601f19168201604052610a409190810190613e9f565b905060005b83811015610ac057818181518110610a5f57610a5f613d6a565b60200260200101517f9c1ee455d7c9ab291045babfeef5ef20cea4d096dc64c4b2b29977289b4b0641898984818110610a9a57610a9a613d6a565b9050610120020133604051610ab0929190613ed3565b60405180910390a2600101610a45565b50505b505050505050565b610ad533826121ad565b610af25760405163e5fa0e3560e01b815260040160405180910390fd5b6108e383838361220c565b610b05612153565b60095460405163036129cb60e61b81526001600160a01b0383811660048301529091169063d84a72c090602401600060405180830381600087803b158015610b4c57600080fd5b505af1158015610b60573d6000803e3d6000fd5b50506040513381526001600160a01b03841692507fe7784d93cfbfa4408e19577e6cc0436f4dbb51214b70e100905dfce9def88c1691506020015b60405180910390a250565b805160005b818110156108e3576000838281518110610bc757610bc7613d6a565b60200260200101519050610be381600001518260200151611473565b50600101610bab565b34151580610c6e5750600654600554604051636e49181f60e01b815260048101919091523360248201526001600160a01b0390911690636e49181f90604401602060405180830381865afa158015610c48573d6000803e3d6000fd5b505050506040513d601f19601f82011682018060405250810190610c6c9190613f06565b155b80610c7f5750600554816020013514155b15610c9d57604051633efca5c360e11b815260040160405180910390fd5b6004610cad6101c0830183613f23565b90501080610cf1575063b3bcbb7960e01b610ccc6101c0830183613f23565b610cdb91600491600091613f70565b610ce491613f9a565b6001600160e01b03191614155b15610d0f57604051632a84050f60e01b815260040160405180910390fd5b6000610d1f6101c0830183613f23565b810190610d2c9190613fca565b805190925090506000805b82811015610db957838181518110610d5157610d51613d6a565b60200260200101519150846000016020810190610d6e91906132d9565b6000838152600260205260409020546001600160a01b03908116911614610da85760405163075fd2b160e01b815260040160405180910390fd5b610db1826122e5565b600101610d37565b50610dc383612366565b50505050565b610dd1612153565b805160005b818110156108e3576000838281518110610df257610df2613d6a565b60200260200101519050610e0e81600001518260200151610f15565b5050600101610dd6565b6108e383838360405180602001604052806000815250611690565b6009546040516308ed6c0160e41b81523060048201526024810183905260009182916001600160a01b0390911690638ed6c01090604401602060405180830381865afa158015610e87573d6000803e3d6000fd5b505050506040513d601f19601f82011682018060405250810190610eab919061407a565b90506001600160a01b03811615610ec25792915050565b50506000908152600260205260409020546001600160a01b031690565b6000818152600260205260408120546001600160a01b03168061079d5760405163b49aa3b560e01b815260040160405180910390fd5b6060610f1f612153565b60095460405163eaa19ab360e01b81526001600160a01b039091169063eaa19ab390610f5690600019908790600190600401614097565b6000604051808303816000875af1158015610f75573d6000803e3d6000fd5b505050506040513d6000823e601f3d908101601f19168201604052610f9d91908101906140f4565b5083519091506000805b8281101561105257838181518110610fc157610fc1613d6a565b60200260200101519150610fd585836123cb565b846001600160a01b0316868281518110610ff157610ff1613d6a565b602002602001015161ffff16837f598baf7bf150ca2f42be9e9f8f55e81d45f5715c3ff22bf46d697fabec7f31d66000336040516110429291909182526001600160a01b0316602082015260400190565b60405180910390a4600101610fa7565b50505092915050565b600954604051633de222bb60e21b81523060048201526001600160a01b038381166024830152600092169063f7888aec906044015b602060405180830381865afa1580156110ad573d6000803e3d6000fd5b505050506040513d601f19601f8201168201806040525081019061079d919061413a565b6110d9612153565b6110e36000612495565b565b6060600180546107b290613cfd565b6110fc612153565b6009546040516331315e5960e11b81526001600160a01b0390911690636262bcb29061112c908490600401613153565b600060405180830381600087803b15801561114657600080fd5b505af115801561115a573d6000803e3d6000fd5b505050508060405161116c9190614153565b604051908190038120338252907f7bc9110d5de090dd59e07912d2b93a5a27ac70a60c8d8e324db4f9ee8b8b5c1390602001610b9b565b6111ae3383836124e7565b5050565b60006060806080840135156111da576040516309f82f1b60e31b815260040160405180910390fd5b60046111ea6101c0860186613f23565b9050108061122e575063b3bcbb7960e01b6112096101c0860186613f23565b61121891600491600091613f70565b61122191613f9a565b6001600160e01b03191614155b1561124c57604051632a84050f60e01b815260040160405180910390fd5b60408051600180825281830190925290816020015b60408051808201909152600080825260208201528152602001906001900390816112615790505090506040518060400160405280306001600160a01b031681526020016000815250816000815181106112bc576112bc613d6a565b602002602001018190525083610180013560000361132c5760006112e46101a0860186613f23565b8382828080601f01602080910402602001604051908101604052809392919081815260200183838082843760009201919091525096995091975091955061146c945050505050565b600061133c6101c0860186613f23565b8101906113499190613fca565b915050600061135782612586565b905060006113636125b9565b905060006113768860c001358484612626565b9050612710886101800135036113e157806113956101a08a018a613f23565b8782828080601f016020809104026020016040519081016040528093929190818152602001838380828437600092019190915250969d50919b5091995061146c98505050505050505050565b61141781611400856113fa6101808d0135612710614185565b86612626565b61140f906101808c0135614198565b612710612626565b6114256101a08a018a613f23565b8782828080601f016020809104026020016040519081016040528093929190818152602001838380828437600092019190915250969d50919b509199505050505050505050505b9193909250565b600a546005546040516321d1336160e11b815260048101919091526000916001600160a01b0316906343a266c29060240161012060405180830381865afa1580156114c2573d6000803e3d6000fd5b505050506040513d601f19601f820116820180604052508101906114e691906141ab565b61010081015190915060f51c60019081160361151557604051631d2c125760e31b815260040160405180910390fd5b600954604051635d53f40760e11b815260048101859052602481018490526000916001600160a01b03169063baa7e80e906044016000604051808303816000875af1158015611568573d6000803e3d6000fd5b505050506040513d6000823e601f3d908101601f191682016040526115909190810190613e9f565b6009546040516304db994760e21b8152306004820152602481018790529192506000916001600160a01b039091169063136e651c90604401602060405180830381865afa1580156115e5573d6000803e3d6000fd5b505050506040513d601f19601f82011682018060405250810190611609919061407a565b90506000805b858110156116875783818151811061162957611629613d6a565b6020026020010151915061163d83836123cb565b6040513381526001600160a01b03841690889084907f031e1988c95a91ec4d655ff63a8f87a80bc9daf28d95ae10ee08c0022cfb5c8b9060200160405180910390a460010161160f565b50505050505050565b61169a33836121ad565b6116b75760405163e5fa0e3560e01b815260040160405180910390fd5b610dc3848484846126f2565b6000818152600260205260409020546060906001600160a01b03166116f657505060408051602081019091526000815290565b600954604051630fab094760e01b81523060048201526000916001600160a01b031690630fab094790602401602060405180830381865afa15801561173f573d6000803e3d6000fd5b505050506040513d601f19601f82011682018060405250810190611763919061407a565b90506001600160a01b038116156117e857604051636d02a25560e11b8152600481018490526001600160a01b0382169063da0544aa90602401600060405180830381865afa1580156117b9573d6000803e3d6000fd5b505050506040513d6000823e601f3d908101601f191682016040526117e1919081019061422b565b9392505050565b60095460405163f682eeaf60e01b815230600482015273__$2e464bbf4a8803569df10b07372aceee57$__9163030cecc7916001600160a01b039091169063f682eeaf90602401600060405180830381865afa15801561184c573d6000803e3d6000fd5b505050506040513d6000823e601f3d908101601f19168201604052611874919081019061422b565b600954604051630c8df17160e41b8152306004820152602481018890526001600160a01b039091169063c8df171090604401602060405180830381865afa1580156118c3573d6000803e3d6000fd5b505050506040513d601f19601f820116820180604052508101906118e7919061413a565b6040518363ffffffff1660e01b81526004016119049291906142a1565b600060405180830381865af41580156117b9573d6000803e3d6000fd5b611929612153565b60095460405163d67b78fd60e01b81526001600160a01b039091169063d67b78fd9061195b90859085906004016142c3565b600060405180830381600087803b15801561197557600080fd5b505af1158015611989573d6000803e3d6000fd5b50505050818160405161199d9291906142f2565b604051908190038120338252907fd36dc0c1a06103fdcaf15f3f6fb797d1a97997514c78de073640c8b5005454b89060200160405180910390a25050565b6101208101356060806119f2610160850185613f23565b8080601f01602080910402602001604051908101604052809392919081815260200183838082843760009201919091525092945060019250611a32915050565b604051908082528060200260200182016040528015611a7757816020015b6040805180820190915260008082526020820152815260200190600190039081611a505790505b5090506040518060400160405280306001600160a01b03168152602001600081525081600081518110611aac57611aac613d6a565b60200260200101819052509193909250565b34151580611b405750600654600554604051636e49181f60e01b815260048101919091523360248201526001600160a01b0390911690636e49181f90604401602060405180830381865afa158015611b1a573d6000803e3d6000fd5b505050506040513d601f19601f82011682018060405250810190611b3e9190613f06565b155b80611b515750600554816020013514155b15611b6f576040516331c57b1b60e21b815260040160405180910390fd5b611b7881612726565b50565b611b83612153565b6009546040516317161f7d60e01b81526001600160a01b038381166004830152909116906317161f7d90602401600060405180830381600087803b158015611bca57600080fd5b505af1158015611bde573d6000803e3d6000fd5b50506040513381526001600160a01b03841692507fab0014d4c7a642a02a31b303a318908c22b0fb2001f107278fc6076b4c671b659150602001610b9b565b6008546001600160a01b03163003611c3457600080fd5b6009546001600160a01b031615611c4a57600080fd5b611c568b8b8b8b6129d9565b600a80546001600160a01b03808a166001600160a01b031992831617909255600980548584169083161790556020850151600c556040850151600d556060850151600b8054919093169116179055855115611d0a576040516331315e5960e11b81526001600160a01b03831690636262bcb290611cd7908990600401613153565b600060405180830381600087803b158015611cf157600080fd5b505af1158015611d05573d6000803e3d6000fd5b505050505b835115611d705760405163d67b78fd60e01b81526001600160a01b0383169063d67b78fd90611d3d908790600401613153565b600060405180830381600087803b158015611d5757600080fd5b505af1158015611d6b573d6000803e3d6000fd5b505050505b6001600160a01b03851615611ddb5760405163036129cb60e61b81526001600160a01b03868116600483015283169063d84a72c090602401600060405180830381600087803b158015611dc257600080fd5b505af1158015611dd6573d6000803e3d6000fd5b505050505b82515115611e5957825160405163d0cf48a560e01b81526001600160a01b0384169163d0cf48a591611e109190600401614302565b6000604051808303816000875af1158015611e2f573d6000803e3d6000fd5b505050506040513d6000823e601f3d908101601f19168201604052611e579190810190613e9f565b505b805180611e67575080602001515b80611e73575080604001515b80611e7f575080606001515b15611f0557604080516365c13f1960e11b815282511515600482015260208301511515602482015290820151151560448201526060820151151560648201526001600160a01b0383169063cb827e3290608401600060405180830381600087803b158015611eec57600080fd5b505af1158015611f00573d6000803e3d6000fd5b505050505b611f0e33612495565b5050505050505050505050565b600954604051630155619b60e71b81523060048201526060916001600160a01b03169063aab0cd8090602401600060405180830381865afa158015611f64573d6000803e3d6000fd5b505050506040513d6000823e601f3d908101601f19168201604052611f8c919081019061422b565b905090565b6001600160a01b03918216600090815260046020908152604080832093909416825291909152205460ff1690565b611fc7612153565b6001600160a01b0381166120315760405162461bcd60e51b815260206004820152602660248201527f4f776e61626c653a206e6577206f776e657220697320746865207a65726f206160448201526564647265737360d01b60648201526084015b60405180910390fd5b611b7881612495565b60006001600160e01b0319821663b3bcbb7960e01b148061206b57506001600160e01b031982166371700c6960e01b145b8061208657506001600160e01b0319821663da9ee8b760e01b145b806120a157506001600160e01b03198216632b13c58f60e01b145b8061079d575061079d82612a0c565b6000818152600260205260409020546001600160a01b0316611b785760405163b49aa3b560e01b815260040160405180910390fd5b600081815260036020526040902080546001600160a01b0319166001600160a01b038416908117909155819061211a82610edf565b6001600160a01b03167f8c5be1e5ebec7d5bd14f71427d1e84f3dd0314c0f7b2291e5b200ac8c7c3b92560405160405180910390a45050565b6007546001600160a01b031633146110e35760405162461bcd60e51b815260206004820181905260248201527f4f776e61626c653a2063616c6c6572206973206e6f7420746865206f776e65726044820152606401612028565b6000806121b983610edf565b9050806001600160a01b0316846001600160a01b031614806121e057506121e08185611f91565b806122045750836001600160a01b03166121f984610835565b6001600160a01b0316145b949350505050565b826001600160a01b031661221f82610edf565b6001600160a01b0316146122465760405163a195bc5360e01b815260040160405180910390fd5b6001600160a01b03821661226d57604051632c95542760e01b815260040160405180910390fd5b612278838383612a5c565b6122836000826120e5565b60008181526002602052604080822080546001600160a01b0319166001600160a01b0386811691821790925591518493918716917fddf252ad1be2c89b69c2b068fc378daa952ba7f163c4a11628f55a4df523b3ef91a46108e3838383612c7c565b60006122f082610edf565b90506122fe81600084612a5c565b6123096000836120e5565b60008281526002602052604080822080546001600160a01b0319169055518391906001600160a01b038416907fddf252ad1be2c89b69c2b068fc378daa952ba7f163c4a11628f55a4df523b3ef908390a46111ae81600084612c7c565b6009546040516386bc2be360e01b81526001600160a01b03909116906386bc2be3906123969084906004016136f3565b600060405180830381600087803b1580156123b057600080fd5b505af11580156123c4573d6000803e3d6000fd5b5050505050565b6001600160a01b0382166123f257604051633904578f60e11b815260040160405180910390fd5b6000818152600260205260409020546001600160a01b03161561242857604051632eb5f0c360e21b815260040160405180910390fd5b61243460008383612a5c565b60008181526002602052604080822080546001600160a01b0319166001600160a01b03861690811790915590518392907fddf252ad1be2c89b69c2b068fc378daa952ba7f163c4a11628f55a4df523b3ef908290a46111ae60008383612c7c565b600780546001600160a01b038381166001600160a01b0319831681179093556040519116919082907f8be0079c531659141344cd1fd0a4f28419497f9722a3daafe3b4186f6b6457e090600090a35050565b816001600160a01b0316836001600160a01b031603612519576040516306f8139d60e11b815260040160405180910390fd5b6001600160a01b03838116600081815260046020908152604080832094871680845294825291829020805460ff191686151590811790915591519182527f17307eab39ab6107e8899845ad3d59bd9653f200f220920489ca2b5937696c31910160405180910390a3505050565b60095460405163051330b560e21b81526000916001600160a01b03169063144cc2d49061109090309086906004016143a7565b600954604051631572f24960e11b81523060048201526000916001600160a01b031690632ae5e49290602401602060405180830381865afa158015612602573d6000803e3d6000fd5b505050506040513d601f19601f82011682018060405250810190611f8c919061413a565b600080806000198587098587029250828110838203039150508060000361266057838281612656576126566143cb565b04925050506117e1565b83811061268a57604051631dcf306360e21b81526004810182905260248101859052604401612028565b600084868809600260036001881981018916988990049182028318808302840302808302840302808302840302808302840302808302840302918202909203026000889003889004909101858311909403939093029303949094049190911702949350505050565b6126fd84848461220c565b61270984848484612d69565b610dc3576040516336f57c1b60e11b815260040160405180910390fd5b600c5460009060c083013503612741575060808101356127f7565b600b546001600160a01b0316156111ae57600d546127f49060808401359061276a90600a6144c5565b600b54600c54604051635268657960e11b815260c08801356004820152602481019190915260a087013560448201526001600160a01b039091169063a4d0caf290606401602060405180830381865afa1580156127cb573d6000803e3d6000fd5b505050506040513d601f19601f820116820180604052508101906127ef919061413a565b612626565b90505b6000600e8161280e6101a0860161018087016132d9565b6001600160a01b03168152602081019190915260400160009081205491506128368284614198565b9050600080602461284b6101e0880188613f23565b905011801561288f575063b3bcbb7960e01b61286b6101e0880188613f23565b61287a91602491602091613f70565b61288391613f9a565b6001600160e01b031916145b156128f957600060606128a66101e0890189613f23565b8101906128b391906144d1565b9198509650909450925050821590506128d0575050505050505050565b8051156128f6576128f385826128ee6101a08c016101808d016132d9565b612e6b565b94505b50505b821561299a5761291b836129156101a089016101808a016132d9565b84612fad565b9250821561297857801561294257604051631b57826960e21b815260040160405180910390fd5b82600e60006129596101a08a016101808b016132d9565b6001600160a01b03168152602081019190915260400160002055610ac3565b8315612995576000600e816129596101a08a016101808b016132d9565b610ac3565b8315610ac3576000600e816129b76101a08a016101808b016132d9565b6001600160a01b03168152602081019190915260400160002055505050505050565b6129e382826130b7565b5050600591909155600680546001600160a01b0319166001600160a01b03909216919091179055565b60006001600160e01b031982166380ac58cd60e01b1480612a3d57506001600160e01b03198216635b5e139f60e01b145b8061079d57506301ffc9a760e01b6001600160e01b031983161461079d565b6001600160a01b038316156108e357600954604051634228826f60e11b81523060048201526001600160a01b039091169063845104de90602401608060405180830381865afa158015612ab3573d6000803e3d6000fd5b505050506040513d601f19601f82011682018060405250810190612ad79190614560565b6060015115612b9857600a546005546040516321d1336160e11b815260048101919091526000916001600160a01b0316906343a266c29060240161012060405180830381865afa158015612b2f573d6000803e3d6000fd5b505050506040513d601f19601f82011682018060405250810190612b5391906141ab565b90506001600160a01b03831615801590612b78575061010081015160f41c6001908116145b15612b96576040516318cdaf9760e01b815260040160405180910390fd5b505b6009546040516308ed6c0160e41b8152306004820152602481018390526000916001600160a01b031690638ed6c01090604401602060405180830381865afa158015612be8573d6000803e3d6000fd5b505050506040513d601f19601f82011682018060405250810190612c0c919061407a565b6001600160a01b0316036108e357600954604051638cec7d3960e01b8152600481018390526001600160a01b03858116602483015290911690638cec7d3990604401600060405180830381600087803b158015612c6857600080fd5b505af1158015611687573d6000803e3d6000fd5b60095460405163b67cb04760e01b8152306004820152602481018390526000916001600160a01b03169063b67cb0479060440161014060405180830381865afa158015612ccd573d6000803e3d6000fd5b505050506040513d601f19601f82011682018060405250810190612cf191906145e4565b60095481516040516330b157e560e21b815260048101919091526001600160a01b038781166024830152868116604483015292935091169063c2c55f9490606401600060405180830381600087803b158015612d4c57600080fd5b505af1158015612d60573d6000803e3d6000fd5b50505050610dc3565b60006001600160a01b0384163b15612e6057604051630a85bd0160e11b81526001600160a01b0385169063150b7a0290612dad903390899088908890600401614674565b6020604051808303816000875af1925050508015612de8575060408051601f3d908101601f19168201909252612de5918101906146b1565b60015b612e46573d808015612e16576040519150601f19603f3d011682016040523d82523d6000602084013e612e1b565b606091505b508051600003612e3e576040516336f57c1b60e11b815260040160405180910390fd5b805181602001fd5b6001600160e01b031916630a85bd0160e11b149050612204565b506001949350505050565b60095460405163eaa19ab360e01b81526000916060916001600160a01b039091169063eaa19ab390612ea590889088908790600401614097565b6000604051808303816000875af1158015612ec4573d6000803e3d6000fd5b505050506040513d6000823e601f3d908101601f19168201604052612eec91908101906140f4565b81519093509091506000805b82811015612fa257838181518110612f1257612f12613d6a565b60200260200101519150612f2686836123cb565b856001600160a01b0316878281518110612f4257612f42613d6a565b602002602001015161ffff16837f598baf7bf150ca2f42be9e9f8f55e81d45f5715c3ff22bf46d697fabec7f31d68b33604051612f929291909182526001600160a01b0316602082015260400190565b60405180910390a4600101612ef8565b505050509392505050565b60095460405163879791f360e01b815260048101859052600091829182916001600160a01b03169063879791f3906024016060604051808303816000875af1158015612ffd573d6000803e3d6000fd5b505050506040513d601f19601f8201168201806040525081019061302191906146ce565b94509092509050600082900361305757831561305057604051630e5313df60e41b815260040160405180910390fd5b50506117e1565b61306185836123cb565b6001600160a01b03851681837f598baf7bf150ca2f42be9e9f8f55e81d45f5715c3ff22bf46d697fabec7f31d6613098878b614185565b604080519182523360208301520160405180910390a450509392505050565b60006130c38382614742565b5060016108e38282614742565b6001600160e01b031981168114611b7857600080fd5b6000602082840312156130f857600080fd5b81356117e1816130d0565b60005b8381101561311e578181015183820152602001613106565b50506000910152565b6000815180845261313f816020860160208601613103565b601f01601f19169290920160200192915050565b6020815260006117e16020830184613127565b60006020828403121561317857600080fd5b5035919050565b6001600160a01b0381168114611b7857600080fd5b803561319f8161317f565b919050565b600080604083850312156131b757600080fd5b82356131c28161317f565b946020939093013593505050565b600080600080604085870312156131e657600080fd5b84356001600160401b03808211156131fd57600080fd5b818701915087601f83011261321157600080fd5b81358181111561322057600080fd5b8860206101208302850101111561323657600080fd5b60209283019650945090860135908082111561325157600080fd5b818701915087601f83011261326557600080fd5b81358181111561327457600080fd5b8860208260051b850101111561328957600080fd5b95989497505060200194505050565b6000806000606084860312156132ad57600080fd5b83356132b88161317f565b925060208401356132c88161317f565b929592945050506040919091013590565b6000602082840312156132eb57600080fd5b81356117e18161317f565b634e487b7160e01b600052604160045260246000fd5b604080519081016001600160401b038111828210171561332e5761332e6132f6565b60405290565b604051608081016001600160401b038111828210171561332e5761332e6132f6565b60405161012081016001600160401b038111828210171561332e5761332e6132f6565b60405161014081016001600160401b038111828210171561332e5761332e6132f6565b604051601f8201601f191681016001600160401b03811182821017156133c4576133c46132f6565b604052919050565b60006001600160401b038211156133e5576133e56132f6565b5060051b60200190565b6000602080838503121561340257600080fd5b82356001600160401b0381111561341857600080fd5b8301601f8101851361342957600080fd5b803561343c613437826133cc565b61339c565b81815260069190911b8201830190838101908783111561345b57600080fd5b928401925b8284101561349e57604084890312156134795760008081fd5b61348161330c565b843581528585013586820152825260409093019290840190613460565b979650505050505050565b60006101e082840312156134bc57600080fd5b50919050565b6000602082840312156134d457600080fd5b81356001600160401b038111156134ea57600080fd5b612204848285016134a9565b600082601f83011261350757600080fd5b81356020613517613437836133cc565b82815260059290921b8401810191818101908684111561353657600080fd5b8286015b8481101561356257803561ffff811681146135555760008081fd5b835291830191830161353a565b509695505050505050565b6000602080838503121561358057600080fd5b82356001600160401b038082111561359757600080fd5b818501915085601f8301126135ab57600080fd5b81356135b9613437826133cc565b81815260059190911b830184019084810190888311156135d857600080fd5b8585015b8381101561365a578035858111156135f45760008081fd5b86016040818c03601f190181131561360c5760008081fd5b61361461330c565b89830135888111156136265760008081fd5b6136348e8c838701016134f6565b82525091810135916136458361317f565b808a01929092525083529186019186016135dc565b5098975050505050505050565b6000806040838503121561367a57600080fd5b82356001600160401b0381111561369057600080fd5b61369c858286016134f6565b92505060208301356136ad8161317f565b809150509250929050565b600081518084526020808501945080840160005b838110156136e8578151875295820195908201906001016136cc565b509495945050505050565b6020815260006117e160208301846136b8565b60006001600160401b0382111561371f5761371f6132f6565b50601f01601f191660200190565b600061373b61343784613706565b905082815283838301111561374f57600080fd5b828260208301376000602084830101529392505050565b600082601f83011261377757600080fd5b6117e18383356020850161372d565b60006020828403121561379857600080fd5b81356001600160401b038111156137ae57600080fd5b61220484828501613766565b8015158114611b7857600080fd5b803561319f816137ba565b600080604083850312156137e657600080fd5b82356137f18161317f565b915060208301356136ad816137ba565b8381526000602060608184015261381b6060840186613127565b83810360408581019190915285518083528387019284019060005b8181101561386457845180516001600160a01b03168452860151868401529385019391830191600101613836565b50909998505050505050505050565b6000806040838503121561388657600080fd5b50508035926020909101359150565b600080600080608085870312156138ab57600080fd5b84356138b68161317f565b935060208501356138c68161317f565b92506040850135915060608501356001600160401b038111156138e857600080fd5b8501601f810187136138f957600080fd5b6139088782356020840161372d565b91505092959194509250565b6000806020838503121561392757600080fd5b82356001600160401b038082111561393e57600080fd5b818501915085601f83011261395257600080fd5b81358181111561396157600080fd5b86602082850101111561397357600080fd5b60209290920196919550909350505050565b60006020828403121561399757600080fd5b81356001600160401b038111156139ad57600080fd5b82016101a081850312156117e157600080fd5b6000602082840312156139d257600080fd5b81356001600160401b038111156139e857600080fd5b820161020081850312156117e157600080fd5b60006080808385031215613a0e57600080fd5b613a16613334565b915082356001600160401b03811115613a2e57600080fd5b8301601f81018513613a3f57600080fd5b80356020613a4f613437836133cc565b8281526101209283028401820192828201919089851115613a6f57600080fd5b948301945b84861015613b095780868b031215613a8c5760008081fd5b613a94613356565b8635815284870135858201526040808801359082015260608088013590820152878701358882015260a0613ac9818901613194565b9082015260c0878101359082015260e0613ae48189016137c8565b90820152610100613af68882016137c8565b9082015283529485019491830191613a74565b50865250858101359085015250505060408083013590820152613b2e60608301613194565b606082015292915050565b600060808284031215613b4b57600080fd5b613b53613334565b90508135613b60816137ba565b81526020820135613b70816137ba565b60208201526040820135613b83816137ba565b60408201526060820135613b2e816137ba565b60008060008060008060008060008060006101c08c8e031215613bb857600080fd5b8b359a50613bc860208d01613194565b99506001600160401b038060408e01351115613be357600080fd5b613bf38e60408f01358f01613766565b99508060608e01351115613c0657600080fd5b613c168e60608f01358f01613766565b9850613c2460808e01613194565b97508060a08e01351115613c3757600080fd5b613c478e60a08f01358f01613766565b9650613c5560c08e01613194565b95508060e08e01351115613c6857600080fd5b613c788e60e08f01358f01613766565b9450806101008e01351115613c8c57600080fd5b50613c9e8d6101008e01358e016139fb565b9250613cad6101208d01613194565b9150613cbd8d6101408e01613b39565b90509295989b509295989b9093969950565b60008060408385031215613ce257600080fd5b8235613ced8161317f565b915060208301356136ad8161317f565b600181811c90821680613d1157607f821691505b6020821081036134bc57634e487b7160e01b600052602260045260246000fd5b6020808252810182905260006001600160fb1b03831115613d5157600080fd5b8260051b80856040850137919091016040019392505050565b634e487b7160e01b600052603260045260246000fd5b803582526020810135602083015260408101356040830152606081013560608301526080810135608083015260a0810135613dba8161317f565b6001600160a01b031660a083015260c0818101359083015260e0810135613de0816137ba565b151560e0830152610100613df58282016137c8565b80151584830152610dc3565b6020808252810182905260008360408301825b85811015613e3a57613e268284613d80565b610120928301929190910190600101613e14565b5095945050505050565b600082601f830112613e5557600080fd5b81516020613e65613437836133cc565b82815260059290921b84018101918181019086841115613e8457600080fd5b8286015b848110156135625780518352918301918301613e88565b600060208284031215613eb157600080fd5b81516001600160401b03811115613ec757600080fd5b61220484828501613e44565b6101408101613ee28285613d80565b6001600160a01b03929092166101209190910152919050565b805161319f816137ba565b600060208284031215613f1857600080fd5b81516117e1816137ba565b6000808335601e19843603018112613f3a57600080fd5b8301803591506001600160401b03821115613f5457600080fd5b602001915036819003821315613f6957600080fd5b9250929050565b60008085851115613f8057600080fd5b83861115613f8d57600080fd5b5050820193919092039150565b6001600160e01b03198135818116916004851015613fc25780818660040360031b1b83161692505b505092915050565b60008060408385031215613fdd57600080fd5b8235613fe8816130d0565b91506020838101356001600160401b0381111561400457600080fd5b8401601f8101861361401557600080fd5b8035614023613437826133cc565b81815260059190911b8201830190838101908883111561404257600080fd5b928401925b8284101561406057833582529284019290840190614047565b80955050505050509250929050565b805161319f8161317f565b60006020828403121561408c57600080fd5b81516117e18161317f565b6000606082018583526020606081850152818651808452608086019150828801935060005b818110156140dc57845161ffff16835293830193918301916001016140bc565b50508093505050508215156040830152949350505050565b6000806040838503121561410757600080fd5b82516001600160401b0381111561411d57600080fd5b61412985828601613e44565b925050602083015190509250929050565b60006020828403121561414c57600080fd5b5051919050565b60008251614165818460208701613103565b9190910192915050565b634e487b7160e01b600052601160045260246000fd5b8181038181111561079d5761079d61416f565b8082018082111561079d5761079d61416f565b600061012082840312156141be57600080fd5b6141c6613356565b825181526020830151602082015260408301516040820152606083015160608201526080830151608082015260a083015160a082015260c083015160c082015261421260e0840161406f565b60e0820152610100928301519281019290925250919050565b60006020828403121561423d57600080fd5b81516001600160401b0381111561425357600080fd5b8201601f8101841361426457600080fd5b805161427261343782613706565b81815285602083850101111561428757600080fd5b614298826020830160208601613103565b95945050505050565b6040815260006142b46040830185613127565b90508260208301529392505050565b60208152816020820152818360408301376000818301604090810191909152601f909201601f19160101919050565b8183823760009101908152919050565b602080825282518282018190526000919060409081850190868401855b8281101561439a5781518051855286810151878601528581015186860152606080820151908601526080808201519086015260a0808201516001600160a01b03169086015260c0808201519086015260e08082015115159086015261010090810151151590850152610120909301929085019060010161431f565b5091979650505050505050565b6001600160a01b0383168152604060208201819052600090612204908301846136b8565b634e487b7160e01b600052601260045260246000fd5b600181815b8085111561441c5781600019048211156144025761440261416f565b8085161561440f57918102915b93841c93908002906143e6565b509250929050565b6000826144335750600161079d565b816144405750600061079d565b816001811461445657600281146144605761447c565b600191505061079d565b60ff8411156144715761447161416f565b50506001821b61079d565b5060208310610133831016604e8410600b841016171561449f575081810a61079d565b6144a983836143e1565b80600019048211156144bd576144bd61416f565b029392505050565b60006117e18383614424565b60008060008060008060c087890312156144ea57600080fd5b8635955060208701356144fc816130d0565b9450604087013561450c816137ba565b9350606087013561451c816137ba565b9250608087013561452c816137ba565b915060a08701356001600160401b0381111561454757600080fd5b61455389828a016134f6565b9150509295509295509295565b60006080828403121561457257600080fd5b604051608081018181106001600160401b0382111715614594576145946132f6565b60405282516145a2816137ba565b815260208301516145b2816137ba565b602082015260408301516145c5816137ba565b604082015260608301516145d8816137ba565b60608201529392505050565b600061014082840312156145f757600080fd5b6145ff613379565b825181526020830151602082015260408301516040820152606083015160608201526080830151608082015260a083015160a082015260c083015160c082015261464b60e0840161406f565b60e08201526101008381015190820152610120614669818501613efb565b908201529392505050565b6001600160a01b03858116825284166020820152604081018390526080606082018190526000906146a790830184613127565b9695505050505050565b6000602082840312156146c357600080fd5b81516117e1816130d0565b6000806000606084860312156146e357600080fd5b8351925060208401519150604084015190509250925092565b601f8211156108e357600081815260208120601f850160051c810160208610156147235750805b601f850160051c820191505b81811015610ac35782815560010161472f565b81516001600160401b0381111561475b5761475b6132f6565b61476f816147698454613cfd565b846146fc565b602080601f8311600181146147a4576000841561478c5750858301515b600019600386901b1c1916600185901b178555610ac3565b600085815260208120601f198616915b828110156147d3578886015182559484019460019091019084016147b4565b50858210156147f15787850151600019600388901b60f8161c191681555b5050505050600190811b0190555056fea264697066735822122054936ff025d2dd8386e405199df4a6f0f4ce53593e08ce340654bfc070b32f8364736f6c63430008100033",
    "linkReferences": {
      "contracts/libraries/JBIpfsDecoder.sol": {
        "JBIpfsDecoder": [
          {
            "start": 6295,
            "length": 20
          }
        ]
      }
    }
  },
  "methodIdentifiers": {
    "adjustTiers((uint256,uint256,uint256,uint256,uint256,address,bytes32,bool,bool)[],uint256[])": "211eb001",
    "approve(address,uint256)": "095ea7b3",
    "balanceOf(address)": "70a08231",
    "codeOrigin()": "1d153ca4",
    "contractURI()": "e8a3d485",
    "creditsOf(address)": "245a45b5",
    "didPay((address,uint256,uint256,(address,uint256,uint256,uint256),(address,uint256,uint256,uint256),uint256,address,bool,string,bytes))": "da9ee8b7",
    "didRedeem((address,uint256,uint256,uint256,(address,uint256,uint256,uint256),(address,uint256,uint256,uint256),address,string,bytes))": "2b13c58f",
    "directory()": "c41c2f24",
    "firstOwnerOf(uint256)": "54c6d1f5",
    "fundingCycleStore()": "557e7155",
    "getApproved(uint256)": "081812fc",
    "initialize(uint256,address,string,string,address,string,address,string,((uint256,uint256,uint256,uint256,uint256,address,bytes32,bool,bool)[],uint256,uint256,address),address,(bool,bool,bool,bool))": "dfedb3af",
    "isApprovedForAll(address,address)": "e985e9c5",
    "mintFor((uint16[],address)[])": "36c1a93b",
    "mintFor(uint16[],address)": "6ac6d941",
    "mintReservesFor((uint256,uint256)[])": "2a596e53",
    "mintReservesFor(uint256,uint256)": "aa4fb15b",
    "name()": "06fdde03",
    "owner()": "8da5cb5b",
    "ownerOf(uint256)": "6352211e",
    "payParams((address,address,(address,uint256,uint256,uint256),uint256,uint256,address,uint256,uint256,string,bytes))": "d46cf171",
    "prices()": "d3419bf3",
    "pricingCurrency()": "64640c1e",
    "pricingDecimals()": "4ecba625",
    "projectId()": "3fafa127",
    "redeemParams((address,address,uint256,uint256,uint256,uint256,uint256,(address,uint256,uint256,uint256),bool,uint256,string,bytes))": "a51cfd18",
    "renounceOwnership()": "715018a6",
    "safeTransferFrom(address,address,uint256)": "42842e0e",
    "safeTransferFrom(address,address,uint256,bytes)": "b88d4fde",
    "setApprovalForAll(address,bool)": "a22cb465",
    "setBaseUri(string)": "a0bcfc7f",
    "setContractUri(string)": "ccb4807b",
    "setDefaultReservedTokenBeneficiary(address)": "df487e26",
    "setTokenUriResolver(address)": "2407497e",
    "store()": "975057e7",
    "supportsInterface(bytes4)": "01ffc9a7",
    "symbol()": "95d89b41",
    "tokenURI(uint256)": "c87b56dd",
    "transferFrom(address,address,uint256)": "23b872dd",
    "transferOwnership(address)": "f2fde38b"
  },
  "id": 2
}