{
  "abi": [
    {
      "inputs": [],
      "stateMutability": "nonpayable",
      "type": "constructor"
    },
    {
      "inputs": [],
      "name": "ALEADY_MINTED",
      "type": "error"
    },
    {
      "inputs": [],
      "name": "APPROVAL_TO_CURRENT_OWNER",
      "type": "error"
    },
    {
      "inputs": [],
      "name": "APPROVE_TO_CALLER",
      "type": "error"
    },
    {
      "inputs": [],
      "name": "CALLER_NOT_OWNER_OR_APPROVED",
      "type": "error"
    },
    {
      "inputs": [],
      "name": "INCORRECT_OWNER",
      "type": "error"
    },
    {
      "inputs": [],
      "name": "INVALID_PAYMENT_EVENT",
      "type": "error"
    },
    {
      "inputs": [],
      "name": "INVALID_REDEMPTION_EVENT",
      "type": "error"
    },
    {
      "inputs": [],
      "name": "INVALID_REDEMPTION_METADATA",
      "type": "error"
    },
    {
      "inputs": [],
      "name": "INVALID_TOKEN_ID",
      "type": "error"
    },
    {
      "inputs": [],
      "name": "MINT_TO_ZERO",
      "type": "error"
    },
    {
      "inputs": [],
      "name": "NOT_AVAILABLE",
      "type": "error"
    },
    {
      "inputs": [],
      "name": "OVERSPENDING",
      "type": "error"
    },
    {
      "inputs": [
        {
          "internalType": "uint256",
          "name": "prod1",
          "type": "uint256"
        },
        {
          "internalType": "uint256",
          "name": "denominator",
          "type": "uint256"
        }
      ],
      "name": "PRBMath__MulDivOverflow",
      "type": "error"
    },
    {
      "inputs": [],
      "name": "PRICING_RESOLVER_CHANGES_PAUSED",
      "type": "error"
    },
    {
      "inputs": [],
      "name": "RESERVED_TOKEN_MINTING_PAUSED",
      "type": "error"
    },
    {
      "inputs": [],
      "name": "TRANSFERS_PAUSED",
      "type": "error"
    },
    {
      "inputs": [],
      "name": "TRANSFER_TO_NON_IMPLEMENTER",
      "type": "error"
    },
    {
      "inputs": [],
      "name": "TRANSFER_TO_ZERO_ADDRESS",
      "type": "error"
    },
    {
      "inputs": [],
      "name": "UNAUTHORIZED",
      "type": "error"
    },
    {
      "inputs": [],
      "name": "UNEXPECTED_TOKEN_REDEEMED",
      "type": "error"
    },
    {
      "anonymous": false,
      "inputs": [
        {
          "indexed": true,
          "internalType": "uint256",
          "name": "changeAmount",
          "type": "uint256"
        },
        {
          "indexed": true,
          "internalType": "uint256",
          "name": "newTotalCredits",
          "type": "uint256"
        },
        {
          "indexed": true,
          "internalType": "address",
          "name": "account",
          "type": "address"
        },
        {
          "indexed": false,
          "internalType": "address",
          "name": "caller",
          "type": "address"
        }
      ],
      "name": "AddCredits",
      "type": "event"
    },
    {
      "anonymous": false,
      "inputs": [
        {
          "indexed": true,
          "internalType": "uint256",
          "name": "tierId",
          "type": "uint256"
        },
        {
          "components": [
            {
              "internalType": "uint88",
              "name": "price",
              "type": "uint88"
            },
            {
              "internalType": "uint40",
              "name": "initialQuantity",
              "type": "uint40"
            },
            {
              "internalType": "uint40",
              "name": "votingUnits",
              "type": "uint40"
            },
            {
              "internalType": "uint16",
              "name": "reservedRate",
              "type": "uint16"
            },
            {
              "internalType": "address",
              "name": "reservedTokenBeneficiary",
              "type": "address"
            },
            {
              "internalType": "uint8",
              "name": "royaltyRate",
              "type": "uint8"
            },
            {
              "internalType": "address",
              "name": "royaltyBeneficiary",
              "type": "address"
            },
            {
              "internalType": "bytes32",
              "name": "encodedIPFSUri",
              "type": "bytes32"
            },
            {
              "internalType": "uint16",
              "name": "category",
              "type": "uint16"
            },
            {
              "internalType": "bool",
              "name": "allowManualMint",
              "type": "bool"
            },
            {
              "internalType": "bool",
              "name": "shouldUseReservedTokenBeneficiaryAsDefault",
              "type": "bool"
            },
            {
              "internalType": "bool",
              "name": "shouldUseRoyaltyBeneficiaryAsDefault",
              "type": "bool"
            },
            {
              "internalType": "bool",
              "name": "transfersPausable",
              "type": "bool"
            },
            {
              "internalType": "bool",
              "name": "useVotingUnits",
              "type": "bool"
            }
          ],
          "indexed": false,
          "internalType": "struct JB721TierParams",
          "name": "data",
          "type": "tuple"
        },
        {
          "indexed": false,
          "internalType": "address",
          "name": "caller",
          "type": "address"
        }
      ],
      "name": "AddTier",
      "type": "event"
    },
    {
      "anonymous": false,
      "inputs": [
        {
          "indexed": true,
          "internalType": "address",
          "name": "owner",
          "type": "address"
        },
        {
          "indexed": true,
          "internalType": "address",
          "name": "approved",
          "type": "address"
        },
        {
          "indexed": true,
          "internalType": "uint256",
          "name": "tokenId",
          "type": "uint256"
        }
      ],
      "name": "Approval",
      "type": "event"
    },
    {
      "anonymous": false,
      "inputs": [
        {
          "indexed": true,
          "internalType": "address",
          "name": "owner",
          "type": "address"
        },
        {
          "indexed": true,
          "internalType": "address",
          "name": "operator",
          "type": "address"
        },
        {
          "indexed": false,
          "internalType": "bool",
          "name": "approved",
          "type": "bool"
        }
      ],
      "name": "ApprovalForAll",
      "type": "event"
    },
    {
      "anonymous": false,
      "inputs": [
        {
          "indexed": true,
          "internalType": "uint256",
          "name": "tokenId",
          "type": "uint256"
        },
        {
          "indexed": true,
          "internalType": "uint256",
          "name": "tierId",
          "type": "uint256"
        },
        {
          "indexed": true,
          "internalType": "address",
          "name": "beneficiary",
          "type": "address"
        },
        {
          "indexed": false,
          "internalType": "uint256",
          "name": "totalAmountContributed",
          "type": "uint256"
        },
        {
          "indexed": false,
          "internalType": "address",
          "name": "caller",
          "type": "address"
        }
      ],
      "name": "Mint",
      "type": "event"
    },
    {
      "anonymous": false,
      "inputs": [
        {
          "indexed": true,
          "internalType": "uint256",
          "name": "tokenId",
          "type": "uint256"
        },
        {
          "indexed": true,
          "internalType": "uint256",
          "name": "tierId",
          "type": "uint256"
        },
        {
          "indexed": true,
          "internalType": "address",
          "name": "beneficiary",
          "type": "address"
        },
        {
          "indexed": false,
          "internalType": "address",
          "name": "caller",
          "type": "address"
        }
      ],
      "name": "MintReservedToken",
      "type": "event"
    },
    {
      "anonymous": false,
      "inputs": [
        {
          "indexed": true,
          "internalType": "address",
          "name": "previousOwner",
          "type": "address"
        },
        {
          "indexed": true,
          "internalType": "address",
          "name": "newOwner",
          "type": "address"
        }
      ],
      "name": "OwnershipTransferred",
      "type": "event"
    },
    {
      "anonymous": false,
      "inputs": [
        {
          "indexed": true,
          "internalType": "uint256",
          "name": "tierId",
          "type": "uint256"
        },
        {
          "indexed": false,
          "internalType": "address",
          "name": "caller",
          "type": "address"
        }
      ],
      "name": "RemoveTier",
      "type": "event"
    },
    {
      "anonymous": false,
      "inputs": [
        {
          "indexed": true,
          "internalType": "string",
          "name": "baseUri",
          "type": "string"
        },
        {
          "indexed": false,
          "internalType": "address",
          "name": "caller",
          "type": "address"
        }
      ],
      "name": "SetBaseUri",
      "type": "event"
    },
    {
      "anonymous": false,
      "inputs": [
        {
          "indexed": true,
          "internalType": "string",
          "name": "contractUri",
          "type": "string"
        },
        {
          "indexed": false,
          "internalType": "address",
          "name": "caller",
          "type": "address"
        }
      ],
      "name": "SetContractUri",
      "type": "event"
    },
    {
      "anonymous": false,
      "inputs": [
        {
          "indexed": true,
          "internalType": "address",
          "name": "beneficiary",
          "type": "address"
        },
        {
          "indexed": false,
          "internalType": "address",
          "name": "caller",
          "type": "address"
        }
      ],
      "name": "SetDefaultReservedTokenBeneficiary",
      "type": "event"
    },
    {
      "anonymous": false,
      "inputs": [
        {
          "indexed": true,
          "internalType": "uint256",
          "name": "tierId",
          "type": "uint256"
        },
        {
          "indexed": false,
          "internalType": "bytes32",
          "name": "encodedIPFSUri",
          "type": "bytes32"
        },
        {
          "indexed": false,
          "internalType": "address",
          "name": "caller",
          "type": "address"
        }
      ],
      "name": "SetEncodedIPFSUri",
      "type": "event"
    },
    {
      "anonymous": false,
      "inputs": [
        {
          "indexed": true,
          "internalType": "contract IJBTokenUriResolver",
          "name": "newResolver",
          "type": "address"
        },
        {
          "indexed": false,
          "internalType": "address",
          "name": "caller",
          "type": "address"
        }
      ],
      "name": "SetTokenUriResolver",
      "type": "event"
    },
    {
      "anonymous": false,
      "inputs": [
        {
          "indexed": true,
          "internalType": "address",
          "name": "from",
          "type": "address"
        },
        {
          "indexed": true,
          "internalType": "address",
          "name": "to",
          "type": "address"
        },
        {
          "indexed": true,
          "internalType": "uint256",
          "name": "tokenId",
          "type": "uint256"
        }
      ],
      "name": "Transfer",
      "type": "event"
    },
    {
      "anonymous": false,
      "inputs": [
        {
          "indexed": true,
          "internalType": "uint256",
          "name": "changeAmount",
          "type": "uint256"
        },
        {
          "indexed": true,
          "internalType": "uint256",
          "name": "newTotalCredits",
          "type": "uint256"
        },
        {
          "indexed": true,
          "internalType": "address",
          "name": "account",
          "type": "address"
        },
        {
          "indexed": false,
          "internalType": "address",
          "name": "caller",
          "type": "address"
        }
      ],
      "name": "UseCredits",
      "type": "event"
    },
    {
      "inputs": [
        {
          "components": [
            {
              "internalType": "uint88",
              "name": "price",
              "type": "uint88"
            },
            {
              "internalType": "uint40",
              "name": "initialQuantity",
              "type": "uint40"
            },
            {
              "internalType": "uint40",
              "name": "votingUnits",
              "type": "uint40"
            },
            {
              "internalType": "uint16",
              "name": "reservedRate",
              "type": "uint16"
            },
            {
              "internalType": "address",
              "name": "reservedTokenBeneficiary",
              "type": "address"
            },
            {
              "internalType": "uint8",
              "name": "royaltyRate",
              "type": "uint8"
            },
            {
              "internalType": "address",
              "name": "royaltyBeneficiary",
              "type": "address"
            },
            {
              "internalType": "bytes32",
              "name": "encodedIPFSUri",
              "type": "bytes32"
            },
            {
              "internalType": "uint16",
              "name": "category",
              "type": "uint16"
            },
            {
              "internalType": "bool",
              "name": "allowManualMint",
              "type": "bool"
            },
            {
              "internalType": "bool",
              "name": "shouldUseReservedTokenBeneficiaryAsDefault",
              "type": "bool"
            },
            {
              "internalType": "bool",
              "name": "shouldUseRoyaltyBeneficiaryAsDefault",
              "type": "bool"
            },
            {
              "internalType": "bool",
              "name": "transfersPausable",
              "type": "bool"
            },
            {
              "internalType": "bool",
              "name": "useVotingUnits",
              "type": "bool"
            }
          ],
          "internalType": "struct JB721TierParams[]",
          "name": "_tiersToAdd",
          "type": "tuple[]"
        },
        {
          "internalType": "uint256[]",
          "name": "_tierIdsToRemove",
          "type": "uint256[]"
        }
      ],
      "name": "adjustTiers",
      "outputs": [],
      "stateMutability": "nonpayable",
      "type": "function"
    },
    {
      "inputs": [
        {
          "internalType": "address",
          "name": "to",
          "type": "address"
        },
        {
          "internalType": "uint256",
          "name": "tokenId",
          "type": "uint256"
        }
      ],
      "name": "approve",
      "outputs": [],
      "stateMutability": "nonpayable",
      "type": "function"
    },
    {
      "inputs": [
        {
          "internalType": "address",
          "name": "_owner",
          "type": "address"
        }
      ],
      "name": "balanceOf",
      "outputs": [
        {
          "internalType": "uint256",
          "name": "balance",
          "type": "uint256"
        }
      ],
      "stateMutability": "view",
      "type": "function"
    },
    {
      "inputs": [],
      "name": "codeOrigin",
      "outputs": [
        {
          "internalType": "address",
          "name": "",
          "type": "address"
        }
      ],
      "stateMutability": "view",
      "type": "function"
    },
    {
      "inputs": [],
      "name": "contractURI",
      "outputs": [
        {
          "internalType": "string",
          "name": "",
          "type": "string"
        }
      ],
      "stateMutability": "view",
      "type": "function"
    },
    {
      "inputs": [
        {
          "internalType": "address",
          "name": "",
          "type": "address"
        }
      ],
      "name": "creditsOf",
      "outputs": [
        {
          "internalType": "uint256",
          "name": "",
          "type": "uint256"
        }
      ],
      "stateMutability": "view",
      "type": "function"
    },
    {
      "inputs": [
        {
          "components": [
            {
              "internalType": "address",
              "name": "payer",
              "type": "address"
            },
            {
              "internalType": "uint256",
              "name": "projectId",
              "type": "uint256"
            },
            {
              "internalType": "uint256",
              "name": "currentFundingCycleConfiguration",
              "type": "uint256"
            },
            {
              "components": [
                {
                  "internalType": "address",
                  "name": "token",
                  "type": "address"
                },
                {
                  "internalType": "uint256",
                  "name": "value",
                  "type": "uint256"
                },
                {
                  "internalType": "uint256",
                  "name": "decimals",
                  "type": "uint256"
                },
                {
                  "internalType": "uint256",
                  "name": "currency",
                  "type": "uint256"
                }
              ],
              "internalType": "struct JBTokenAmount",
              "name": "amount",
              "type": "tuple"
            },
            {
              "components": [
                {
                  "internalType": "address",
                  "name": "token",
                  "type": "address"
                },
                {
                  "internalType": "uint256",
                  "name": "value",
                  "type": "uint256"
                },
                {
                  "internalType": "uint256",
                  "name": "decimals",
                  "type": "uint256"
                },
                {
                  "internalType": "uint256",
                  "name": "currency",
                  "type": "uint256"
                }
              ],
              "internalType": "struct JBTokenAmount",
              "name": "forwardedAmount",
              "type": "tuple"
            },
            {
              "internalType": "uint256",
              "name": "projectTokenCount",
              "type": "uint256"
            },
            {
              "internalType": "address",
              "name": "beneficiary",
              "type": "address"
            },
            {
              "internalType": "bool",
              "name": "preferClaimedTokens",
              "type": "bool"
            },
            {
              "internalType": "string",
              "name": "memo",
              "type": "string"
            },
            {
              "internalType": "bytes",
              "name": "metadata",
              "type": "bytes"
            }
          ],
          "internalType": "struct JBDidPayData",
          "name": "_data",
          "type": "tuple"
        }
      ],
      "name": "didPay",
      "outputs": [],
      "stateMutability": "payable",
      "type": "function"
    },
    {
      "inputs": [
        {
          "components": [
            {
              "internalType": "address",
              "name": "holder",
              "type": "address"
            },
            {
              "internalType": "uint256",
              "name": "projectId",
              "type": "uint256"
            },
            {
              "internalType": "uint256",
              "name": "currentFundingCycleConfiguration",
              "type": "uint256"
            },
            {
              "internalType": "uint256",
              "name": "projectTokenCount",
              "type": "uint256"
            },
            {
              "components": [
                {
                  "internalType": "address",
                  "name": "token",
                  "type": "address"
                },
                {
                  "internalType": "uint256",
                  "name": "value",
                  "type": "uint256"
                },
                {
                  "internalType": "uint256",
                  "name": "decimals",
                  "type": "uint256"
                },
                {
                  "internalType": "uint256",
                  "name": "currency",
                  "type": "uint256"
                }
              ],
              "internalType": "struct JBTokenAmount",
              "name": "reclaimedAmount",
              "type": "tuple"
            },
            {
              "components": [
                {
                  "internalType": "address",
                  "name": "token",
                  "type": "address"
                },
                {
                  "internalType": "uint256",
                  "name": "value",
                  "type": "uint256"
                },
                {
                  "internalType": "uint256",
                  "name": "decimals",
                  "type": "uint256"
                },
                {
                  "internalType": "uint256",
                  "name": "currency",
                  "type": "uint256"
                }
              ],
              "internalType": "struct JBTokenAmount",
              "name": "forwardedAmount",
              "type": "tuple"
            },
            {
              "internalType": "address payable",
              "name": "beneficiary",
              "type": "address"
            },
            {
              "internalType": "string",
              "name": "memo",
              "type": "string"
            },
            {
              "internalType": "bytes",
              "name": "metadata",
              "type": "bytes"
            }
          ],
          "internalType": "struct JBDidRedeemData",
          "name": "_data",
          "type": "tuple"
        }
      ],
      "name": "didRedeem",
      "outputs": [],
      "stateMutability": "payable",
      "type": "function"
    },
    {
      "inputs": [],
      "name": "directory",
      "outputs": [
        {
          "internalType": "contract IJBDirectory",
          "name": "",
          "type": "address"
        }
      ],
      "stateMutability": "view",
      "type": "function"
    },
    {
      "inputs": [
        {
          "internalType": "uint256",
          "name": "_tokenId",
          "type": "uint256"
        }
      ],
      "name": "firstOwnerOf",
      "outputs": [
        {
          "internalType": "address",
          "name": "",
          "type": "address"
        }
      ],
      "stateMutability": "view",
      "type": "function"
    },
    {
      "inputs": [],
      "name": "fundingCycleStore",
      "outputs": [
        {
          "internalType": "contract IJBFundingCycleStore",
          "name": "",
          "type": "address"
        }
      ],
      "stateMutability": "view",
      "type": "function"
    },
    {
      "inputs": [
        {
          "internalType": "uint256",
          "name": "tokenId",
          "type": "uint256"
        }
      ],
      "name": "getApproved",
      "outputs": [
        {
          "internalType": "address",
          "name": "",
          "type": "address"
        }
      ],
      "stateMutability": "view",
      "type": "function"
    },
    {
      "inputs": [
        {
          "internalType": "uint256",
          "name": "_projectId",
          "type": "uint256"
        },
        {
          "internalType": "contract IJBDirectory",
          "name": "_directory",
          "type": "address"
        },
        {
          "internalType": "string",
          "name": "_name",
          "type": "string"
        },
        {
          "internalType": "string",
          "name": "_symbol",
          "type": "string"
        },
        {
          "internalType": "contract IJBFundingCycleStore",
          "name": "_fundingCycleStore",
          "type": "address"
        },
        {
          "internalType": "string",
          "name": "_baseUri",
          "type": "string"
        },
        {
          "internalType": "contract IJBTokenUriResolver",
          "name": "_tokenUriResolver",
          "type": "address"
        },
        {
          "internalType": "string",
          "name": "_contractUri",
          "type": "string"
        },
        {
          "components": [
            {
              "components": [
                {
                  "internalType": "uint88",
                  "name": "price",
                  "type": "uint88"
                },
                {
                  "internalType": "uint40",
                  "name": "initialQuantity",
                  "type": "uint40"
                },
                {
                  "internalType": "uint40",
                  "name": "votingUnits",
                  "type": "uint40"
                },
                {
                  "internalType": "uint16",
                  "name": "reservedRate",
                  "type": "uint16"
                },
                {
                  "internalType": "address",
                  "name": "reservedTokenBeneficiary",
                  "type": "address"
                },
                {
                  "internalType": "uint8",
                  "name": "royaltyRate",
                  "type": "uint8"
                },
                {
                  "internalType": "address",
                  "name": "royaltyBeneficiary",
                  "type": "address"
                },
                {
                  "internalType": "bytes32",
                  "name": "encodedIPFSUri",
                  "type": "bytes32"
                },
                {
                  "internalType": "uint16",
                  "name": "category",
                  "type": "uint16"
                },
                {
                  "internalType": "bool",
                  "name": "allowManualMint",
                  "type": "bool"
                },
                {
                  "internalType": "bool",
                  "name": "shouldUseReservedTokenBeneficiaryAsDefault",
                  "type": "bool"
                },
                {
                  "internalType": "bool",
                  "name": "shouldUseRoyaltyBeneficiaryAsDefault",
                  "type": "bool"
                },
                {
                  "internalType": "bool",
                  "name": "transfersPausable",
                  "type": "bool"
                },
                {
                  "internalType": "bool",
                  "name": "useVotingUnits",
                  "type": "bool"
                }
              ],
              "internalType": "struct JB721TierParams[]",
              "name": "tiers",
              "type": "tuple[]"
            },
            {
              "internalType": "uint256",
              "name": "currency",
              "type": "uint256"
            },
            {
              "internalType": "uint256",
              "name": "decimals",
              "type": "uint256"
            },
            {
              "internalType": "contract IJBPrices",
              "name": "prices",
              "type": "address"
            }
          ],
          "internalType": "struct JB721PricingParams",
          "name": "_pricing",
          "type": "tuple"
        },
        {
          "internalType": "contract IJBTiered721DelegateStore",
          "name": "_store",
          "type": "address"
        },
        {
          "components": [
            {
              "internalType": "bool",
              "name": "lockReservedTokenChanges",
              "type": "bool"
            },
            {
              "internalType": "bool",
              "name": "lockVotingUnitChanges",
              "type": "bool"
            },
            {
              "internalType": "bool",
              "name": "lockManualMintingChanges",
              "type": "bool"
            },
            {
              "internalType": "bool",
              "name": "preventOverspending",
              "type": "bool"
            }
          ],
          "internalType": "struct JBTiered721Flags",
          "name": "_flags",
          "type": "tuple"
        }
      ],
      "name": "initialize",
      "outputs": [],
      "stateMutability": "nonpayable",
      "type": "function"
    },
    {
      "inputs": [
        {
          "internalType": "address",
          "name": "owner",
          "type": "address"
        },
        {
          "internalType": "address",
          "name": "operator",
          "type": "address"
        }
      ],
      "name": "isApprovedForAll",
      "outputs": [
        {
          "internalType": "bool",
          "name": "",
          "type": "bool"
        }
      ],
      "stateMutability": "view",
      "type": "function"
    },
    {
      "inputs": [
        {
          "components": [
            {
              "internalType": "uint16[]",
              "name": "tierIds",
              "type": "uint16[]"
            },
            {
              "internalType": "address",
              "name": "beneficiary",
              "type": "address"
            }
          ],
          "internalType": "struct JBTiered721MintForTiersData[]",
          "name": "_mintForTiersData",
          "type": "tuple[]"
        }
      ],
      "name": "mintFor",
      "outputs": [],
      "stateMutability": "nonpayable",
      "type": "function"
    },
    {
      "inputs": [
        {
          "internalType": "uint16[]",
          "name": "_tierIds",
          "type": "uint16[]"
        },
        {
          "internalType": "address",
          "name": "_beneficiary",
          "type": "address"
        }
      ],
      "name": "mintFor",
      "outputs": [
        {
          "internalType": "uint256[]",
          "name": "tokenIds",
          "type": "uint256[]"
        }
      ],
      "stateMutability": "nonpayable",
      "type": "function"
    },
    {
      "inputs": [
        {
          "components": [
            {
              "internalType": "uint256",
              "name": "tierId",
              "type": "uint256"
            },
            {
              "internalType": "uint256",
              "name": "count",
              "type": "uint256"
            }
          ],
          "internalType": "struct JBTiered721MintReservesForTiersData[]",
          "name": "_mintReservesForTiersData",
          "type": "tuple[]"
        }
      ],
      "name": "mintReservesFor",
      "outputs": [],
      "stateMutability": "nonpayable",
      "type": "function"
    },
    {
      "inputs": [
        {
          "internalType": "uint256",
          "name": "_tierId",
          "type": "uint256"
        },
        {
          "internalType": "uint256",
          "name": "_count",
          "type": "uint256"
        }
      ],
      "name": "mintReservesFor",
      "outputs": [],
      "stateMutability": "nonpayable",
      "type": "function"
    },
    {
      "inputs": [],
      "name": "name",
      "outputs": [
        {
          "internalType": "string",
          "name": "",
          "type": "string"
        }
      ],
      "stateMutability": "view",
      "type": "function"
    },
    {
      "inputs": [],
      "name": "owner",
      "outputs": [
        {
          "internalType": "address",
          "name": "",
          "type": "address"
        }
      ],
      "stateMutability": "view",
      "type": "function"
    },
    {
      "inputs": [
        {
          "internalType": "uint256",
          "name": "tokenId",
          "type": "uint256"
        }
      ],
      "name": "ownerOf",
      "outputs": [
        {
          "internalType": "address",
          "name": "",
          "type": "address"
        }
      ],
      "stateMutability": "view",
      "type": "function"
    },
    {
      "inputs": [
        {
          "components": [
            {
              "internalType": "contract IJBPaymentTerminal",
              "name": "terminal",
              "type": "address"
            },
            {
              "internalType": "address",
              "name": "payer",
              "type": "address"
            },
            {
              "components": [
                {
                  "internalType": "address",
                  "name": "token",
                  "type": "address"
                },
                {
                  "internalType": "uint256",
                  "name": "value",
                  "type": "uint256"
                },
                {
                  "internalType": "uint256",
                  "name": "decimals",
                  "type": "uint256"
                },
                {
                  "internalType": "uint256",
                  "name": "currency",
                  "type": "uint256"
                }
              ],
              "internalType": "struct JBTokenAmount",
              "name": "amount",
              "type": "tuple"
            },
            {
              "internalType": "uint256",
              "name": "projectId",
              "type": "uint256"
            },
            {
              "internalType": "uint256",
              "name": "currentFundingCycleConfiguration",
              "type": "uint256"
            },
            {
              "internalType": "address",
              "name": "beneficiary",
              "type": "address"
            },
            {
              "internalType": "uint256",
              "name": "weight",
              "type": "uint256"
            },
            {
              "internalType": "uint256",
              "name": "reservedRate",
              "type": "uint256"
            },
            {
              "internalType": "string",
              "name": "memo",
              "type": "string"
            },
            {
              "internalType": "bytes",
              "name": "metadata",
              "type": "bytes"
            }
          ],
          "internalType": "struct JBPayParamsData",
          "name": "_data",
          "type": "tuple"
        }
      ],
      "name": "payParams",
      "outputs": [
        {
          "internalType": "uint256",
          "name": "weight",
          "type": "uint256"
        },
        {
          "internalType": "string",
          "name": "memo",
          "type": "string"
        },
        {
          "components": [
            {
              "internalType": "contract IJBPayDelegate",
              "name": "delegate",
              "type": "address"
            },
            {
              "internalType": "uint256",
              "name": "amount",
              "type": "uint256"
            }
          ],
          "internalType": "struct JBPayDelegateAllocation[]",
          "name": "delegateAllocations",
          "type": "tuple[]"
        }
      ],
      "stateMutability": "view",
      "type": "function"
    },
    {
      "inputs": [],
      "name": "prices",
      "outputs": [
        {
          "internalType": "contract IJBPrices",
          "name": "",
          "type": "address"
        }
      ],
      "stateMutability": "view",
      "type": "function"
    },
    {
      "inputs": [],
      "name": "pricingCurrency",
      "outputs": [
        {
          "internalType": "uint256",
          "name": "",
          "type": "uint256"
        }
      ],
      "stateMutability": "view",
      "type": "function"
    },
    {
      "inputs": [],
      "name": "pricingDecimals",
      "outputs": [
        {
          "internalType": "uint256",
          "name": "",
          "type": "uint256"
        }
      ],
      "stateMutability": "view",
      "type": "function"
    },
    {
      "inputs": [],
      "name": "projectId",
      "outputs": [
        {
          "internalType": "uint256",
          "name": "",
          "type": "uint256"
        }
      ],
      "stateMutability": "view",
      "type": "function"
    },
    {
      "inputs": [
        {
          "components": [
            {
              "internalType": "contract IJBPaymentTerminal",
              "name": "terminal",
              "type": "address"
            },
            {
              "internalType": "address",
              "name": "holder",
              "type": "address"
            },
            {
              "internalType": "uint256",
              "name": "projectId",
              "type": "uint256"
            },
            {
              "internalType": "uint256",
              "name": "currentFundingCycleConfiguration",
              "type": "uint256"
            },
            {
              "internalType": "uint256",
              "name": "tokenCount",
              "type": "uint256"
            },
            {
              "internalType": "uint256",
              "name": "totalSupply",
              "type": "uint256"
            },
            {
              "internalType": "uint256",
              "name": "overflow",
              "type": "uint256"
            },
            {
              "components": [
                {
                  "internalType": "address",
                  "name": "token",
                  "type": "address"
                },
                {
                  "internalType": "uint256",
                  "name": "value",
                  "type": "uint256"
                },
                {
                  "internalType": "uint256",
                  "name": "decimals",
                  "type": "uint256"
                },
                {
                  "internalType": "uint256",
                  "name": "currency",
                  "type": "uint256"
                }
              ],
              "internalType": "struct JBTokenAmount",
              "name": "reclaimAmount",
              "type": "tuple"
            },
            {
              "internalType": "bool",
              "name": "useTotalOverflow",
              "type": "bool"
            },
            {
              "internalType": "uint256",
              "name": "redemptionRate",
              "type": "uint256"
            },
            {
              "internalType": "string",
              "name": "memo",
              "type": "string"
            },
            {
              "internalType": "bytes",
              "name": "metadata",
              "type": "bytes"
            }
          ],
          "internalType": "struct JBRedeemParamsData",
          "name": "_data",
          "type": "tuple"
        }
      ],
      "name": "redeemParams",
      "outputs": [
        {
          "internalType": "uint256",
          "name": "reclaimAmount",
          "type": "uint256"
        },
        {
          "internalType": "string",
          "name": "memo",
          "type": "string"
        },
        {
          "components": [
            {
              "internalType": "contract IJBRedemptionDelegate",
              "name": "delegate",
              "type": "address"
            },
            {
              "internalType": "uint256",
              "name": "amount",
              "type": "uint256"
            }
          ],
          "internalType": "struct JBRedemptionDelegateAllocation[]",
          "name": "delegateAllocations",
          "type": "tuple[]"
        }
      ],
      "stateMutability": "view",
      "type": "function"
    },
    {
      "inputs": [
        {
          "internalType": "uint256[]",
          "name": "_tokenIds",
          "type": "uint256[]"
        },
        {
          "components": [
            {
              "internalType": "contract IJBPaymentTerminal",
              "name": "terminal",
              "type": "address"
            },
            {
              "internalType": "address",
              "name": "holder",
              "type": "address"
            },
            {
              "internalType": "uint256",
              "name": "projectId",
              "type": "uint256"
            },
            {
              "internalType": "uint256",
              "name": "currentFundingCycleConfiguration",
              "type": "uint256"
            },
            {
              "internalType": "uint256",
              "name": "tokenCount",
              "type": "uint256"
            },
            {
              "internalType": "uint256",
              "name": "totalSupply",
              "type": "uint256"
            },
            {
              "internalType": "uint256",
              "name": "overflow",
              "type": "uint256"
            },
            {
              "components": [
                {
                  "internalType": "address",
                  "name": "token",
                  "type": "address"
                },
                {
                  "internalType": "uint256",
                  "name": "value",
                  "type": "uint256"
                },
                {
                  "internalType": "uint256",
                  "name": "decimals",
                  "type": "uint256"
                },
                {
                  "internalType": "uint256",
                  "name": "currency",
                  "type": "uint256"
                }
              ],
              "internalType": "struct JBTokenAmount",
              "name": "reclaimAmount",
              "type": "tuple"
            },
            {
              "internalType": "bool",
              "name": "useTotalOverflow",
              "type": "bool"
            },
            {
              "internalType": "uint256",
              "name": "redemptionRate",
              "type": "uint256"
            },
            {
              "internalType": "string",
              "name": "memo",
              "type": "string"
            },
            {
              "internalType": "bytes",
              "name": "metadata",
              "type": "bytes"
            }
          ],
          "internalType": "struct JBRedeemParamsData",
          "name": "",
          "type": "tuple"
        }
      ],
      "name": "redemptionWeightOf",
      "outputs": [
        {
          "internalType": "uint256",
          "name": "",
          "type": "uint256"
        }
      ],
      "stateMutability": "view",
      "type": "function"
    },
    {
      "inputs": [],
      "name": "renounceOwnership",
      "outputs": [],
      "stateMutability": "nonpayable",
      "type": "function"
    },
    {
      "inputs": [
        {
          "internalType": "uint256",
          "name": "_tokenId",
          "type": "uint256"
        },
        {
          "internalType": "uint256",
          "name": "_salePrice",
          "type": "uint256"
        }
      ],
      "name": "royaltyInfo",
      "outputs": [
        {
          "internalType": "address",
          "name": "",
          "type": "address"
        },
        {
          "internalType": "uint256",
          "name": "",
          "type": "uint256"
        }
      ],
      "stateMutability": "view",
      "type": "function"
    },
    {
      "inputs": [
        {
          "internalType": "address",
          "name": "from",
          "type": "address"
        },
        {
          "internalType": "address",
          "name": "to",
          "type": "address"
        },
        {
          "internalType": "uint256",
          "name": "tokenId",
          "type": "uint256"
        }
      ],
      "name": "safeTransferFrom",
      "outputs": [],
      "stateMutability": "nonpayable",
      "type": "function"
    },
    {
      "inputs": [
        {
          "internalType": "address",
          "name": "from",
          "type": "address"
        },
        {
          "internalType": "address",
          "name": "to",
          "type": "address"
        },
        {
          "internalType": "uint256",
          "name": "tokenId",
          "type": "uint256"
        },
        {
          "internalType": "bytes",
          "name": "data",
          "type": "bytes"
        }
      ],
      "name": "safeTransferFrom",
      "outputs": [],
      "stateMutability": "nonpayable",
      "type": "function"
    },
    {
      "inputs": [
        {
          "internalType": "address",
          "name": "operator",
          "type": "address"
        },
        {
          "internalType": "bool",
          "name": "approved",
          "type": "bool"
        }
      ],
      "name": "setApprovalForAll",
      "outputs": [],
      "stateMutability": "nonpayable",
      "type": "function"
    },
    {
      "inputs": [
        {
          "internalType": "string",
          "name": "_baseUri",
          "type": "string"
        }
      ],
      "name": "setBaseUri",
      "outputs": [],
      "stateMutability": "nonpayable",
      "type": "function"
    },
    {
      "inputs": [
        {
          "internalType": "string",
          "name": "_contractUri",
          "type": "string"
        }
      ],
      "name": "setContractUri",
      "outputs": [],
      "stateMutability": "nonpayable",
      "type": "function"
    },
    {
      "inputs": [
        {
          "internalType": "address",
          "name": "_beneficiary",
          "type": "address"
        }
      ],
      "name": "setDefaultReservedTokenBeneficiary",
      "outputs": [],
      "stateMutability": "nonpayable",
      "type": "function"
    },
    {
      "inputs": [
        {
          "internalType": "uint256",
          "name": "_tierId",
          "type": "uint256"
        },
        {
          "internalType": "bytes32",
          "name": "_encodedIPFSUri",
          "type": "bytes32"
        }
      ],
      "name": "setEncodedIPFSUriOf",
      "outputs": [],
      "stateMutability": "nonpayable",
      "type": "function"
    },
    {
      "inputs": [
        {
          "internalType": "contract IJBTokenUriResolver",
          "name": "_tokenUriResolver",
          "type": "address"
        }
      ],
      "name": "setTokenUriResolver",
      "outputs": [],
      "stateMutability": "nonpayable",
      "type": "function"
    },
    {
      "inputs": [],
      "name": "store",
      "outputs": [
        {
          "internalType": "contract IJBTiered721DelegateStore",
          "name": "",
          "type": "address"
        }
      ],
      "stateMutability": "view",
      "type": "function"
    },
    {
      "inputs": [
        {
          "internalType": "bytes4",
          "name": "_interfaceId",
          "type": "bytes4"
        }
      ],
      "name": "supportsInterface",
      "outputs": [
        {
          "internalType": "bool",
          "name": "",
          "type": "bool"
        }
      ],
      "stateMutability": "view",
      "type": "function"
    },
    {
      "inputs": [],
      "name": "symbol",
      "outputs": [
        {
          "internalType": "string",
          "name": "",
          "type": "string"
        }
      ],
      "stateMutability": "view",
      "type": "function"
    },
    {
      "inputs": [
        {
          "internalType": "uint256",
          "name": "_tokenId",
          "type": "uint256"
        }
      ],
      "name": "tokenURI",
      "outputs": [
        {
          "internalType": "string",
          "name": "",
          "type": "string"
        }
      ],
      "stateMutability": "view",
      "type": "function"
    },
    {
      "inputs": [
        {
          "components": [
            {
              "internalType": "contract IJBPaymentTerminal",
              "name": "terminal",
              "type": "address"
            },
            {
              "internalType": "address",
              "name": "holder",
              "type": "address"
            },
            {
              "internalType": "uint256",
              "name": "projectId",
              "type": "uint256"
            },
            {
              "internalType": "uint256",
              "name": "currentFundingCycleConfiguration",
              "type": "uint256"
            },
            {
              "internalType": "uint256",
              "name": "tokenCount",
              "type": "uint256"
            },
            {
              "internalType": "uint256",
              "name": "totalSupply",
              "type": "uint256"
            },
            {
              "internalType": "uint256",
              "name": "overflow",
              "type": "uint256"
            },
            {
              "components": [
                {
                  "internalType": "address",
                  "name": "token",
                  "type": "address"
                },
                {
                  "internalType": "uint256",
                  "name": "value",
                  "type": "uint256"
                },
                {
                  "internalType": "uint256",
                  "name": "decimals",
                  "type": "uint256"
                },
                {
                  "internalType": "uint256",
                  "name": "currency",
                  "type": "uint256"
                }
              ],
              "internalType": "struct JBTokenAmount",
              "name": "reclaimAmount",
              "type": "tuple"
            },
            {
              "internalType": "bool",
              "name": "useTotalOverflow",
              "type": "bool"
            },
            {
              "internalType": "uint256",
              "name": "redemptionRate",
              "type": "uint256"
            },
            {
              "internalType": "string",
              "name": "memo",
              "type": "string"
            },
            {
              "internalType": "bytes",
              "name": "metadata",
              "type": "bytes"
            }
          ],
          "internalType": "struct JBRedeemParamsData",
          "name": "",
          "type": "tuple"
        }
      ],
      "name": "totalRedemptionWeight",
      "outputs": [
        {
          "internalType": "uint256",
          "name": "",
          "type": "uint256"
        }
      ],
      "stateMutability": "view",
      "type": "function"
    },
    {
      "inputs": [
        {
          "internalType": "address",
          "name": "from",
          "type": "address"
        },
        {
          "internalType": "address",
          "name": "to",
          "type": "address"
        },
        {
          "internalType": "uint256",
          "name": "tokenId",
          "type": "uint256"
        }
      ],
      "name": "transferFrom",
      "outputs": [],
      "stateMutability": "nonpayable",
      "type": "function"
    },
    {
      "inputs": [
        {
          "internalType": "address",
          "name": "newOwner",
          "type": "address"
        }
      ],
      "name": "transferOwnership",
      "outputs": [],
      "stateMutability": "nonpayable",
      "type": "function"
    }
  ],
  "bytecode": {
    "object": "0x60806040523480156200001157600080fd5b506200001d3362000035565b600880546001600160a01b0319163017905562000087565b600780546001600160a01b038381166001600160a01b0319831681179093556040519116919082907f8be0079c531659141344cd1fd0a4f28419497f9722a3daafe3b4186f6b6457e090600090a35050565b61510480620000976000396000f3fe6080604052600436106102725760003560e01c806370a082311161014f578063aa4fb15b116100c1578063d46cf1711161007a578063d46cf1711461079b578063da9ee8b7146107bb578063df487e26146107ce578063e8a3d485146107ee578063e985e9c514610803578063f2fde38b1461084c57600080fd5b8063aa4fb15b146106db578063b88d4fde146106fb578063c41c2f241461071b578063c87b56dd1461073b578063ccb4807b1461075b578063d3419bf31461077b57600080fd5b80639521e381116101135780639521e3811461061757806395d89b4114610637578063975057e71461064c578063a0bcfc7f1461066c578063a22cb4651461068c578063a51cfd18146106ac57600080fd5b806370a0823114610584578063715018a6146105a45780637ba62bf9146105b95780638da5cb5b146105d95780639494bf72146105f757600080fd5b80632b13c58f116101e8578063525350ba116101ac578063525350ba146104c157806354c6d1f5146104e1578063557e7155146105015780636352211e1461052157806364640c1e146105415780636ac6d9411461055757600080fd5b80632b13c58f1461044257806336c1a93b146104555780633fafa1271461047557806342842e0e1461048b5780634ecba625146104ab57600080fd5b80631d153ca41161023a5780631d153ca41461034857806323b872dd146103685780632407497e14610388578063245a45b5146103a85780632a55205a146103e35780632a596e531461042257600080fd5b806301ffc9a71461027757806306fdde03146102ac578063081812fc146102ce578063095ea7b31461030657806314ea9b0614610328575b600080fd5b34801561028357600080fd5b50610297610292366004613705565b61086c565b60405190151581526020015b60405180910390f35b3480156102b857600080fd5b506102c1610897565b6040516102a39190613772565b3480156102da57600080fd5b506102ee6102e9366004613785565b610929565b6040516001600160a01b0390911681526020016102a3565b34801561031257600080fd5b506103266103213660046137c3565b610950565b005b34801561033457600080fd5b50610326610343366004613833565b6109dc565b34801561035457600080fd5b506008546102ee906001600160a01b031681565b34801561037457600080fd5b506103266103833660046138cd565b610bbf565b34801561039457600080fd5b506103266103a336600461390e565b610bf1565b3480156103b457600080fd5b506103d56103c336600461390e565b600e6020526000908152604090205481565b6040519081526020016102a3565b3480156103ef57600080fd5b506104036103fe36600461392b565b610c9a565b604080516001600160a01b0390931683526020830191909152016102a3565b34801561042e57600080fd5b5061032661043d36600461394d565b610d24565b6103266104503660046139da565b610d7d565b34801561046157600080fd5b50610326610470366004613a0e565b610f57565b34801561048157600080fd5b506103d560055481565b34801561049757600080fd5b506103266104a63660046138cd565b610fb9565b3480156104b757600080fd5b506103d5600d5481565b3480156104cd57600080fd5b506103266104dc36600461392b565b610fd4565b3480156104ed57600080fd5b506102ee6104fc366004613785565b611080565b34801561050d57600080fd5b50600a546102ee906001600160a01b031681565b34801561052d57600080fd5b506102ee61053c366004613785565b61112c565b34801561054d57600080fd5b506103d5600c5481565b34801561056357600080fd5b50610577610572366004613a4f565b611162565b6040516102a39190613ae0565b34801561059057600080fd5b506103d561059f36600461390e565b6112a8565b3480156105b057600080fd5b5061032661131e565b3480156105c557600080fd5b506103d56105d4366004613c35565b611332565b3480156105e557600080fd5b506007546001600160a01b03166102ee565b34801561060357600080fd5b506103d56106123660046139da565b6113ad565b34801561062357600080fd5b50610326610632366004613f9c565b6113de565b34801561064357600080fd5b506102c16116dc565b34801561065857600080fd5b506009546102ee906001600160a01b031681565b34801561067857600080fd5b506103266106873660046140d5565b6116eb565b34801561069857600080fd5b506103266106a7366004614134565b61179e565b3480156106b857600080fd5b506106cc6106c73660046139da565b6117ad565b6040516102a39392919061416d565b3480156106e757600080fd5b506103266106f636600461392b565b611a0c565b34801561070757600080fd5b506103266107163660046141df565b611c29565b34801561072757600080fd5b506006546102ee906001600160a01b031681565b34801561074757600080fd5b506102c1610756366004613785565b611c5c565b34801561076757600080fd5b506103266107763660046140d5565b611e36565b34801561078757600080fd5b50600b546102ee906001600160a01b031681565b3480156107a757600080fd5b506106cc6107b636600461425e565b611ee9565b6103266107c9366004614299565b611fcc565b3480156107da57600080fd5b506103266107e936600461390e565b612083565b3480156107fa57600080fd5b506102c1612125565b34801561080f57600080fd5b5061029761081e3660046142d4565b6001600160a01b03918216600090815260046020908152604080832093909416825291909152205460ff1690565b34801561085857600080fd5b5061032661086736600461390e565b61219b565b60006001600160e01b0319821663868846f760e01b1480610891575061089182612219565b92915050565b6060600080546108a690614302565b80601f01602080910402602001604051908101604052809291908181526020018280546108d290614302565b801561091f5780601f106108f45761010080835404028352916020019161091f565b820191906000526020600020905b81548152906001019060200180831161090257829003601f168201915b5050505050905090565b6000610934826122aa565b506000908152600360205260409020546001600160a01b031690565b600061095b8261112c565b9050806001600160a01b0316836001600160a01b03160361098f5760405163133f8be960e01b815260040160405180910390fd5b336001600160a01b038216148015906109af57506109ad813361081e565b155b156109cd5760405163e5fa0e3560e01b815260040160405180910390fd5b6109d783836122df565b505050565b6109e461234d565b82818015610ab4576009546040516320512ba160e01b81526001600160a01b03909116906320512ba190610a1e9087908790600401614336565b600060405180830381600087803b158015610a3857600080fd5b505af1158015610a4c573d6000803e3d6000fd5b5050505060005b81811015610ab257848482818110610a6d57610a6d61436f565b60405133815260209182029390930135927f832d89d991be5351d793c20faf4b7dd44f8aa9ce39e3cb160c6317de6fbba72992500160405180910390a2600101610a53565b505b8115610bb7576009546040516386a5100760e01b81526000916001600160a01b0316906386a5100790610aed908a908a906004016144ba565b6000604051808303816000875af1158015610b0c573d6000803e3d6000fd5b505050506040513d6000823e601f3d908101601f19168201604052610b349190810190614558565b905060005b83811015610bb457818181518110610b5357610b5361436f565b60200260200101517f94fa90e7e0c9e633db6056cdda599aa1c789587d7971ed761612032de6237c7f898984818110610b8e57610b8e61436f565b90506101c0020133604051610ba492919061458c565b60405180910390a2600101610b39565b50505b505050505050565b610bc933826123a7565b610be65760405163e5fa0e3560e01b815260040160405180910390fd5b6109d7838383612426565b610bf961234d565b60095460405163036129cb60e61b81526001600160a01b0383811660048301529091169063d84a72c090602401600060405180830381600087803b158015610c4057600080fd5b505af1158015610c54573d6000803e3d6000fd5b50506040513381526001600160a01b03841692507fe7784d93cfbfa4408e19577e6cc0436f4dbb51214b70e100905dfce9def88c1691506020015b60405180910390a250565b6009546040516329c5eaf560e11b8152306004820152602481018490526044810183905260009182916001600160a01b039091169063538bd5ea906064016040805180830381865afa158015610cf4573d6000803e3d6000fd5b505050506040513d601f19601f82011682018060405250810190610d1891906145bf565b915091505b9250929050565b8060005b81811015610d77576000848483818110610d4457610d4461436f565b905060400201803603810190610d5a91906145ed565b9050610d6e81600001518260200151611a0c565b50600101610d28565b50505050565b34151580610dff5750600654600554604051636e49181f60e01b815260048101919091523360248201526001600160a01b0390911690636e49181f90604401602060405180830381865afa158015610dd9573d6000803e3d6000fd5b505050506040513d601f19601f82011682018060405250810190610dfd9190614646565b155b80610e105750600554816020013514155b15610e2e57604051633efca5c360e11b815260040160405180910390fd5b6024610e3e6101c0830183614663565b90501080610e8257506316c7dbff60e21b610e5d6101c0830183614663565b610e6c916024916020916146a9565b610e75916146d3565b6001600160e01b03191614155b15610ea057604051632a84050f60e01b815260040160405180910390fd5b6000610eb06101c0830183614663565b810190610ebd9190614703565b925050506000815190506000805b82811015610f4d57838181518110610ee557610ee561436f565b60200260200101519150846000016020810190610f02919061390e565b6000838152600260205260409020546001600160a01b03908116911614610f3c5760405163075fd2b160e01b815260040160405180910390fd5b610f45826124ff565b600101610ecb565b50610d7783612580565b610f5f61234d565b8060005b81811015610d775736848483818110610f7e57610f7e61436f565b9050602002810190610f90919061475b565b9050610faf610f9f828061477b565b610572604085016020860161390e565b5050600101610f63565b6109d783838360405180602001604052806000815250611c29565b610fdc61234d565b6009546040516324de8d6360e11b815260048101849052602481018390526001600160a01b03909116906349bd1ac690604401600060405180830381600087803b15801561102957600080fd5b505af115801561103d573d6000803e3d6000fd5b5050604080518481523360208201528593507f677da4fed654db8e604791fa2582f342e2001aa217e27f6985eb3e0f67e5a7fc9250015b60405180910390a25050565b6009546040516308ed6c0160e41b81523060048201526024810183905260009182916001600160a01b0390911690638ed6c01090604401602060405180830381865afa1580156110d4573d6000803e3d6000fd5b505050506040513d601f19601f820116820180604052508101906110f891906147c4565b90506001600160a01b0381161561110f5792915050565b50506000908152600260205260409020546001600160a01b031690565b6000818152600260205260408120546001600160a01b0316806108915760405163b49aa3b560e01b815260040160405180910390fd5b606061116c61234d565b60095460405163eaa19ab360e01b81526001600160a01b039091169063eaa19ab3906111a59060001990889088906001906004016147e1565b6000604051808303816000875af11580156111c4573d6000803e3d6000fd5b505050506040513d6000823e601f3d908101601f191682016040526111ec919081019061483e565b509050826000805b8281101561129e5783818151811061120e5761120e61436f565b6020026020010151915061122285836125e5565b846001600160a01b031687878381811061123e5761123e61436f565b90506020020160208101906112539190614884565b604080516000815233602082015261ffff929092169185917f598baf7bf150ca2f42be9e9f8f55e81d45f5715c3ff22bf46d697fabec7f31d6910160405180910390a46001016111f4565b5050509392505050565b600954604051633de222bb60e21b81523060048201526001600160a01b038381166024830152600092169063f7888aec906044015b602060405180830381865afa1580156112fa573d6000803e3d6000fd5b505050506040513d601f19601f82011682018060405250810190610891919061489f565b61132661234d565b61133060006126af565b565b60095460405163051330b560e21b81526000916001600160a01b03169063144cc2d49061136590309087906004016148b8565b602060405180830381865afa158015611382573d6000803e3d6000fd5b505050506040513d601f19601f820116820180604052508101906113a6919061489f565b9392505050565b600954604051631572f24960e11b81523060048201526000916001600160a01b031690632ae5e492906024016112dd565b6008546001600160a01b031630036113f557600080fd5b6009546001600160a01b03161561140b57600080fd5b6114178b8b8b8b612701565b600a80546001600160a01b03808a166001600160a01b031992831617909255600980548584169083161790556020850151600c556040850151600d556060850151600b80549190931691161790558551156114cb576040516331315e5960e11b81526001600160a01b03831690636262bcb290611498908990600401613772565b600060405180830381600087803b1580156114b257600080fd5b505af11580156114c6573d6000803e3d6000fd5b505050505b8351156115315760405163d67b78fd60e01b81526001600160a01b0383169063d67b78fd906114fe908790600401613772565b600060405180830381600087803b15801561151857600080fd5b505af115801561152c573d6000803e3d6000fd5b505050505b6001600160a01b0385161561159c5760405163036129cb60e61b81526001600160a01b03868116600483015283169063d84a72c090602401600060405180830381600087803b15801561158357600080fd5b505af1158015611597573d6000803e3d6000fd5b505050505b8251511561161a5782516040516386a5100760e01b81526001600160a01b038416916386a51007916115d191906004016148dc565b6000604051808303816000875af11580156115f0573d6000803e3d6000fd5b505050506040513d6000823e601f3d908101601f191682016040526116189190810190614558565b505b805180611628575080602001515b80611634575080604001515b80611640575080606001515b156116c657604080516365c13f1960e11b815282511515600482015260208301511515602482015290820151151560448201526060820151151560648201526001600160a01b0383169063cb827e3290608401600060405180830381600087803b1580156116ad57600080fd5b505af11580156116c1573d6000803e3d6000fd5b505050505b6116cf336126af565b5050505050505050505050565b6060600180546108a690614302565b6116f361234d565b6009546040516331315e5960e11b81526001600160a01b0390911690636262bcb29061172590859085906004016149ec565b600060405180830381600087803b15801561173f57600080fd5b505af1158015611753573d6000803e3d6000fd5b505050508181604051611767929190614a1b565b604051908190038120338252907f7bc9110d5de090dd59e07912d2b93a5a27ac70a60c8d8e324db4f9ee8b8b5c1390602001611074565b6117a9338383612734565b5050565b60006060806080840135156117d5576040516309f82f1b60e31b815260040160405180910390fd5b60246117e56101c0860186614663565b9050108061182957506316c7dbff60e21b6118046101c0860186614663565b611813916024916020916146a9565b61181c916146d3565b6001600160e01b03191614155b1561184757604051632a84050f60e01b815260040160405180910390fd5b60408051600180825281830190925290816020015b604080518082019091526000808252602082015281526020019060019003908161185c5790505090506040518060400160405280306001600160a01b031681526020016000815250816000815181106118b7576118b761436f565b602090810291909101015260006118d26101c0860186614663565b8101906118df9190614703565b9250505060006118ef8287611332565b905060006118fc876113ad565b9050600061190f8860c0013584846127d3565b90506127108861018001350361197a578061192e6101a08a018a614663565b8782828080601f016020809104026020016040519081016040528093929190818152602001838380828437600092019190915250969d50919b50919950611a0598505050505050505050565b6119b081611999856119936101808d0135612710614a41565b866127d3565b6119a8906101808c0135614a54565b6127106127d3565b6119be6101a08a018a614663565b8782828080601f016020809104026020016040519081016040528093929190818152602001838380828437600092019190915250969d50919b509199505050505050505050505b9193909250565b600a546005546040516321d1336160e11b815260048101919091526000916001600160a01b0316906343a266c29060240161012060405180830381865afa158015611a5b573d6000803e3d6000fd5b505050506040513d601f19601f82011682018060405250810190611a7f9190614a67565b61010081015190915060f51c600190811603611aae57604051631d2c125760e31b815260040160405180910390fd5b600954604051635d53f40760e11b815260048101859052602481018490526000916001600160a01b03169063baa7e80e906044016000604051808303816000875af1158015611b01573d6000803e3d6000fd5b505050506040513d6000823e601f3d908101601f19168201604052611b299190810190614558565b6009546040516304db994760e21b8152306004820152602481018790529192506000916001600160a01b039091169063136e651c90604401602060405180830381865afa158015611b7e573d6000803e3d6000fd5b505050506040513d601f19601f82011682018060405250810190611ba291906147c4565b90506000805b85811015611c2057838181518110611bc257611bc261436f565b60200260200101519150611bd683836125e5565b6040513381526001600160a01b03841690889084907f031e1988c95a91ec4d655ff63a8f87a80bc9daf28d95ae10ee08c0022cfb5c8b9060200160405180910390a4600101611ba8565b50505050505050565b611c3333836123a7565b611c505760405163e5fa0e3560e01b815260040160405180910390fd5b610d778484848461289f565b600954604051630fab094760e01b81523060048201526060916000916001600160a01b0390911690630fab094790602401602060405180830381865afa158015611caa573d6000803e3d6000fd5b505050506040513d601f19601f82011682018060405250810190611cce91906147c4565b90506001600160a01b03811615611d4c57604051636d02a25560e11b8152600481018490526001600160a01b0382169063da0544aa90602401600060405180830381865afa158015611d24573d6000803e3d6000fd5b505050506040513d6000823e601f3d908101601f191682016040526113a69190810190614ae7565b60095460405163f682eeaf60e01b81523060048201526113a6916001600160a01b03169063f682eeaf90602401600060405180830381865afa158015611d96573d6000803e3d6000fd5b505050506040513d6000823e601f3d908101601f19168201604052611dbe9190810190614ae7565b600954604051630c8df17160e41b8152306004820152602481018790526001600160a01b039091169063c8df171090604401602060405180830381865afa158015611e0d573d6000803e3d6000fd5b505050506040513d601f19601f82011682018060405250810190611e31919061489f565b6128d3565b611e3e61234d565b60095460405163d67b78fd60e01b81526001600160a01b039091169063d67b78fd90611e7090859085906004016149ec565b600060405180830381600087803b158015611e8a57600080fd5b505af1158015611e9e573d6000803e3d6000fd5b505050508181604051611eb2929190614a1b565b604051908190038120338252907fd36dc0c1a06103fdcaf15f3f6fb797d1a97997514c78de073640c8b5005454b890602001611074565b610120810135606080611f00610160850185614663565b8080601f01602080910402602001604051908101604052809392919081815260200183838082843760009201919091525092945060019250611f40915050565b604051908082528060200260200182016040528015611f8557816020015b6040805180820190915260008082526020820152815260200190600190039081611f5e5790505b5090506040518060400160405280306001600160a01b03168152602001600081525081600081518110611fba57611fba61436f565b60200260200101819052509193909250565b6005543415158061204d5750600654604051636e49181f60e01b8152600481018390523360248201526001600160a01b0390911690636e49181f90604401602060405180830381865afa158015612027573d6000803e3d6000fd5b505050506040513d601f19601f8201168201806040525081019061204b9190614646565b155b8061205c575080826020013514155b1561207a576040516331c57b1b60e21b815260040160405180910390fd5b6117a98261293a565b61208b61234d565b6009546040516317161f7d60e01b81526001600160a01b038381166004830152909116906317161f7d90602401600060405180830381600087803b1580156120d257600080fd5b505af11580156120e6573d6000803e3d6000fd5b50506040513381526001600160a01b03841692507fab0014d4c7a642a02a31b303a318908c22b0fb2001f107278fc6076b4c671b659150602001610c8f565b600954604051630155619b60e71b81523060048201526060916001600160a01b03169063aab0cd8090602401600060405180830381865afa15801561216e573d6000803e3d6000fd5b505050506040513d6000823e601f3d908101601f191682016040526121969190810190614ae7565b905090565b6121a361234d565b6001600160a01b03811661220d5760405162461bcd60e51b815260206004820152602660248201527f4f776e61626c653a206e6577206f776e657220697320746865207a65726f206160448201526564647265737360d01b60648201526084015b60405180910390fd5b612216816126af565b50565b60006001600160e01b031982166316c7dbff60e21b148061224a57506001600160e01b031982166371700c6960e01b145b8061226557506001600160e01b0319821663da9ee8b760e01b145b8061228057506001600160e01b03198216632b13c58f60e01b145b8061229b57506001600160e01b0319821663152a902d60e11b145b80610891575061089182612d6e565b6000818152600260205260409020546001600160a01b03166122165760405163b49aa3b560e01b815260040160405180910390fd5b600081815260036020526040902080546001600160a01b0319166001600160a01b03841690811790915581906123148261112c565b6001600160a01b03167f8c5be1e5ebec7d5bd14f71427d1e84f3dd0314c0f7b2291e5b200ac8c7c3b92560405160405180910390a45050565b6007546001600160a01b031633146113305760405162461bcd60e51b815260206004820181905260248201527f4f776e61626c653a2063616c6c6572206973206e6f7420746865206f776e65726044820152606401612204565b6000806123b38361112c565b9050806001600160a01b0316846001600160a01b031614806123fa57506001600160a01b0380821660009081526004602090815260408083209388168352929052205460ff165b8061241e5750836001600160a01b031661241384610929565b6001600160a01b0316145b949350505050565b826001600160a01b03166124398261112c565b6001600160a01b0316146124605760405163a195bc5360e01b815260040160405180910390fd5b6001600160a01b03821661248757604051632c95542760e01b815260040160405180910390fd5b612492838383612dbe565b61249d6000826122df565b60008181526002602052604080822080546001600160a01b0319166001600160a01b0386811691821790925591518493918716917fddf252ad1be2c89b69c2b068fc378daa952ba7f163c4a11628f55a4df523b3ef91a46109d7838383612feb565b600061250a8261112c565b905061251881600084612dbe565b6125236000836122df565b60008281526002602052604080822080546001600160a01b0319169055518391906001600160a01b038416907fddf252ad1be2c89b69c2b068fc378daa952ba7f163c4a11628f55a4df523b3ef908390a46117a981600084612feb565b6009546040516386bc2be360e01b81526001600160a01b03909116906386bc2be3906125b0908490600401613ae0565b600060405180830381600087803b1580156125ca57600080fd5b505af11580156125de573d6000803e3d6000fd5b5050505050565b6001600160a01b03821661260c57604051633904578f60e11b815260040160405180910390fd5b6000818152600260205260409020546001600160a01b03161561264257604051632eb5f0c360e21b815260040160405180910390fd5b61264e60008383612dbe565b60008181526002602052604080822080546001600160a01b0319166001600160a01b03861690811790915590518392907fddf252ad1be2c89b69c2b068fc378daa952ba7f163c4a11628f55a4df523b3ef908290a46117a960008383612feb565b600780546001600160a01b038381166001600160a01b0319831681179093556040519116919082907f8be0079c531659141344cd1fd0a4f28419497f9722a3daafe3b4186f6b6457e090600090a35050565b61270b82826130d8565b5050600591909155600680546001600160a01b0319166001600160a01b03909216919091179055565b816001600160a01b0316836001600160a01b031603612766576040516306f8139d60e11b815260040160405180910390fd5b6001600160a01b03838116600081815260046020908152604080832094871680845294825291829020805460ff191686151590811790915591519182527f17307eab39ab6107e8899845ad3d59bd9653f200f220920489ca2b5937696c31910160405180910390a3505050565b600080806000198587098587029250828110838203039150508060000361280d5783828161280357612803614b54565b04925050506113a6565b83811061283757604051631dcf306360e21b81526004810182905260248101859052604401612204565b600084868809600260036001881981018916988990049182028318808302840302808302840302808302840302808302840302808302840302918202909203026000889003889004909101858311909403939093029303949094049190911702949350505050565b6128aa848484612426565b6128b6848484846130f1565b610d77576040516336f57c1b60e11b815260040160405180910390fd5b604051609160f51b6020820152602281018290526060906000906042016040516020818303038152906040529050600061290c826131f3565b90508481604051602001612921929190614b6a565b6040516020818303038152906040529250505092915050565b600c5460009060c08301350361295557506080810135612a0b565b600b546001600160a01b0316156117a957600d54612a089060808401359061297e90600a614c7d565b600b54600c54604051635268657960e11b815260c08801356004820152602481019190915260a087013560448201526001600160a01b039091169063a4d0caf290606401602060405180830381865afa1580156129df573d6000803e3d6000fd5b505050506040513d601f19601f82011682018060405250810190612a03919061489f565b6127d3565b90505b6000600e81612a226101a08601610180870161390e565b6001600160a01b03168152602081019190915260400160009081205491508290612a546101a08601610180870161390e565b6001600160a01b0316612a6a602087018761390e565b6001600160a01b031603612a815790820190612a84565b50815b60006044612a966101e0880188614663565b9050118015612ada57506316c7dbff60e21b612ab66101e0880188614663565b612ac5916044916040916146a9565b612ace916146d3565b6001600160e01b031916145b15612bb1576060612aef6101e0880188614663565b810190612afc9190614c89565b90955093508492505081159050612b7f5750600954604051634228826f60e11b81523060048201526001600160a01b039091169063845104de90602401608060405180830381865afa158015612b56573d6000803e3d6000fd5b505050506040513d601f19601f82011682018060405250810190612b7a9190614d5b565b606001515b15612b8957600091505b805115612baf57612bac8482612ba76101a08b016101808c0161390e565b61338b565b93505b505b8215612cd55780612bd557604051631b57826960e21b815260040160405180910390fd5b82820184811115612c3d57612bf26101a08801610180890161390e565b6040513381526001600160a01b0391909116908290878203907f2fb2733fb01b76e3290fa8b695d18e026ddd19c0a265ab90e95152e57da303369060200160405180910390a4612c9e565b80851115612c9e57612c576101a08801610180890161390e565b6040513381526001600160a01b0391909116908290818803907fe0e7c81cf67a96dd0e39bcf11521b1f4c0098cc1dbe8c30750a11d9ebfc3ed4d9060200160405180910390a45b80600e6000612cb56101a08b016101808c0161390e565b6001600160a01b0316815260208101919091526040016000205550610bb7565b818414610bb757612cee6101a08701610180880161390e565b6001600160a01b031682612d028187614a41565b6040513381527fe0e7c81cf67a96dd0e39bcf11521b1f4c0098cc1dbe8c30750a11d9ebfc3ed4d9060200160405180910390a481600e6000612d4c6101a08a016101808b0161390e565b6001600160a01b03168152602081019190915260400160002055505050505050565b60006001600160e01b031982166380ac58cd60e01b1480612d9f57506001600160e01b03198216635b5e139f60e01b145b8061089157506301ffc9a760e01b6001600160e01b0319831614610891565b6001600160a01b038316156109d75760095460405163b67cb04760e01b8152306004820152602481018390526000916001600160a01b03169063b67cb047906044016101c060405180830381865afa158015612e1e573d6000803e3d6000fd5b505050506040513d601f19601f82011682018060405250810190612e429190614ddf565b905080610180015115612f0757600a546005546040516321d1336160e11b815260048101919091526000916001600160a01b0316906343a266c29060240161012060405180830381865afa158015612e9e573d6000803e3d6000fd5b505050506040513d601f19601f82011682018060405250810190612ec29190614a67565b90506001600160a01b03841615801590612ee7575061010081015160f41c6001908116145b15612f05576040516318cdaf9760e01b815260040160405180910390fd5b505b6009546040516308ed6c0160e41b8152306004820152602481018490526000916001600160a01b031690638ed6c01090604401602060405180830381865afa158015612f57573d6000803e3d6000fd5b505050506040513d601f19601f82011682018060405250810190612f7b91906147c4565b6001600160a01b031603610d7757600954604051638cec7d3960e01b8152600481018490526001600160a01b03868116602483015290911690638cec7d3990604401600060405180830381600087803b158015612fd757600080fd5b505af1158015610bb4573d6000803e3d6000fd5b60095460405163b67cb04760e01b8152306004820152602481018390526000916001600160a01b03169063b67cb047906044016101c060405180830381865afa15801561303c573d6000803e3d6000fd5b505050506040513d601f19601f820116820180604052508101906130609190614ddf565b60095481516040516330b157e560e21b815260048101919091526001600160a01b038781166024830152868116604483015292935091169063c2c55f9490606401600060405180830381600087803b1580156130bb57600080fd5b505af11580156130cf573d6000803e3d6000fd5b50505050610d77565b60006130e48382614ef6565b5060016109d78282614ef6565b60006001600160a01b0384163b156131e857604051630a85bd0160e11b81526001600160a01b0385169063150b7a0290613135903390899088908890600401614fb5565b6020604051808303816000875af1925050508015613170575060408051601f3d908101601f1916820190925261316d91810190614ff2565b60015b6131ce573d80801561319e576040519150601f19603f3d011682016040523d82523d6000602084013e6131a3565b606091505b5080516000036131c6576040516336f57c1b60e11b815260040160405180910390fd5b805181602001fd5b6001600160e01b031916630a85bd0160e11b14905061241e565b506001949350505050565b6060815160000361321257505060408051600081526020810190915290565b60408051602e8082526105e08201909252600091602082016105c08036833701905050905060008160008151811061324c5761324c61436f565b60ff90921660209283029190910190910152825160019060005b818110156133675760008682815181106132825761328261436f565b016020015160f81c905060005b8460ff1681101561330c5760088682815181106132ae576132ae61436f565b602002602001015160ff16901b826132c69190614a54565b91506132d3603a8361500f565b8682815181106132e5576132e561436f565b60ff90921660209283029190910190910152613302603a83615023565b915060010161328f565b505b801561335e5761331f603a8261500f565b858560ff16815181106133345761333461436f565b60ff90921660209283029190910190910152600190930192613357603a82615023565b905061330e565b50600101613266565b5061338261337d61337885856134cd565b613574565b613616565b95945050505050565b60095460405163eaa19ab360e01b81526000916060916001600160a01b039091169063eaa19ab3906133c590889088908790600401615037565b6000604051808303816000875af11580156133e4573d6000803e3d6000fd5b505050506040513d6000823e601f3d908101601f1916820160405261340c919081019061483e565b81519093509091506000805b828110156134c2578381815181106134325761343261436f565b6020026020010151915061344686836125e5565b856001600160a01b03168782815181106134625761346261436f565b602002602001015161ffff16837f598baf7bf150ca2f42be9e9f8f55e81d45f5715c3ff22bf46d697fabec7f31d68b336040516134b29291909182526001600160a01b0316602082015260400190565b60405180910390a4600101613418565b505050509392505050565b606060008260ff166001600160401b038111156134ec576134ec613af3565b604051908082528060200260200182016040528015613515578160200160208202803683370190505b50905060005b8360ff1681101561356c578481815181106135385761353861436f565b60200260200101518282815181106135525761355261436f565b60ff9092166020928302919091019091015260010161351b565b509392505050565b80516060906000816001600160401b0381111561359357613593613af3565b6040519080825280602002602001820160405280156135bc578160200160208202803683370190505b50905060005b8281101561356c578481600187510303815181106135e2576135e261436f565b60200260200101518282815181106135fc576135fc61436f565b60ff909216602092830291909101909101526001016135c2565b80516060906000816001600160401b0381111561363557613635613af3565b6040519080825280601f01601f19166020018201604052801561365f576020820181803683370190505b50905060005b8281101561356c576040518060600160405280603a8152602001615095603a91398582815181106136985761369861436f565b602002602001015160ff16815181106136b3576136b361436f565b602001015160f81c60f81b8282815181106136d0576136d061436f565b60200101906001600160f81b031916908160001a905350600101613665565b6001600160e01b03198116811461221657600080fd5b60006020828403121561371757600080fd5b81356113a6816136ef565b60005b8381101561373d578181015183820152602001613725565b50506000910152565b6000815180845261375e816020860160208601613722565b601f01601f19169290920160200192915050565b6020815260006113a66020830184613746565b60006020828403121561379757600080fd5b5035919050565b6001600160a01b038116811461221657600080fd5b80356137be8161379e565b919050565b600080604083850312156137d657600080fd5b82356137e18161379e565b946020939093013593505050565b60008083601f84011261380157600080fd5b5081356001600160401b0381111561381857600080fd5b6020830191508360208260051b8501011115610d1d57600080fd5b6000806000806040858703121561384957600080fd5b84356001600160401b038082111561386057600080fd5b818701915087601f83011261387457600080fd5b81358181111561388357600080fd5b8860206101c08302850101111561389957600080fd5b6020928301965094509086013590808211156138b457600080fd5b506138c1878288016137ef565b95989497509550505050565b6000806000606084860312156138e257600080fd5b83356138ed8161379e565b925060208401356138fd8161379e565b929592945050506040919091013590565b60006020828403121561392057600080fd5b81356113a68161379e565b6000806040838503121561393e57600080fd5b50508035926020909101359150565b6000806020838503121561396057600080fd5b82356001600160401b038082111561397757600080fd5b818501915085601f83011261398b57600080fd5b81358181111561399a57600080fd5b8660208260061b85010111156139af57600080fd5b60209290920196919550909350505050565b60006101e082840312156139d457600080fd5b50919050565b6000602082840312156139ec57600080fd5b81356001600160401b03811115613a0257600080fd5b61241e848285016139c1565b60008060208385031215613a2157600080fd5b82356001600160401b03811115613a3757600080fd5b613a43858286016137ef565b90969095509350505050565b600080600060408486031215613a6457600080fd5b83356001600160401b03811115613a7a57600080fd5b613a86868287016137ef565b9094509250506020840135613a9a8161379e565b809150509250925092565b600081518084526020808501945080840160005b83811015613ad557815187529582019590820190600101613ab9565b509495945050505050565b6020815260006113a66020830184613aa5565b634e487b7160e01b600052604160045260246000fd5b604051608081016001600160401b0381118282101715613b2b57613b2b613af3565b60405290565b6040516101c081016001600160401b0381118282101715613b2b57613b2b613af3565b60405161012081016001600160401b0381118282101715613b2b57613b2b613af3565b604051601f8201601f191681016001600160401b0381118282101715613b9f57613b9f613af3565b604052919050565b60006001600160401b03821115613bc057613bc0613af3565b5060051b60200190565b600082601f830112613bdb57600080fd5b81356020613bf0613beb83613ba7565b613b77565b82815260059290921b84018101918181019086841115613c0f57600080fd5b8286015b84811015613c2a5780358352918301918301613c13565b509695505050505050565b60008060408385031215613c4857600080fd5b82356001600160401b0380821115613c5f57600080fd5b613c6b86838701613bca565b93506020850135915080821115613c8157600080fd5b50613c8e858286016139c1565b9150509250929050565b60006001600160401b03821115613cb157613cb1613af3565b50601f01601f191660200190565b6000613ccd613beb84613c98565b9050828152838383011115613ce157600080fd5b828260208301376000602084830101529392505050565b600082601f830112613d0957600080fd5b6113a683833560208501613cbf565b80356affffffffffffffffffffff811681146137be57600080fd5b803564ffffffffff811681146137be57600080fd5b803561ffff811681146137be57600080fd5b803560ff811681146137be57600080fd5b801515811461221657600080fd5b80356137be81613d6b565b60006080808385031215613d9757600080fd5b613d9f613b09565b915082356001600160401b03811115613db757600080fd5b8301601f81018513613dc857600080fd5b80356020613dd8613beb83613ba7565b8281526101c09283028401820192828201919089851115613df857600080fd5b948301945b84861015613f0f5780868b031215613e155760008081fd5b613e1d613b31565b613e2687613d18565b8152613e33858801613d33565b858201526040613e44818901613d33565b908201526060613e55888201613d48565b90820152613e648789016137b3565b8882015260a0613e75818901613d5a565b9082015260c0613e868882016137b3565b9082015260e08781013590820152610100613ea2818901613d48565b90820152610120613eb4888201613d79565b90820152610140613ec6888201613d79565b90820152610160613ed8888201613d79565b90820152610180613eea888201613d79565b908201526101a0613efc888201613d79565b9082015283529485019491830191613dfd565b50865250858101359085015250505060408083013590820152613f34606083016137b3565b606082015292915050565b600060808284031215613f5157600080fd5b613f59613b09565b90508135613f6681613d6b565b81526020820135613f7681613d6b565b60208201526040820135613f8981613d6b565b60408201526060820135613f3481613d6b565b60008060008060008060008060008060006101c08c8e031215613fbe57600080fd5b8b359a50613fce60208d016137b3565b99506001600160401b038060408e01351115613fe957600080fd5b613ff98e60408f01358f01613cf8565b99508060608e0135111561400c57600080fd5b61401c8e60608f01358f01613cf8565b985061402a60808e016137b3565b97508060a08e0135111561403d57600080fd5b61404d8e60a08f01358f01613cf8565b965061405b60c08e016137b3565b95508060e08e0135111561406e57600080fd5b61407e8e60e08f01358f01613cf8565b9450806101008e0135111561409257600080fd5b506140a48d6101008e01358e01613d84565b92506140b36101208d016137b3565b91506140c38d6101408e01613f3f565b90509295989b509295989b9093969950565b600080602083850312156140e857600080fd5b82356001600160401b03808211156140ff57600080fd5b818501915085601f83011261411357600080fd5b81358181111561412257600080fd5b8660208285010111156139af57600080fd5b6000806040838503121561414757600080fd5b82356141528161379e565b9150602083013561416281613d6b565b809150509250929050565b838152600060206060818401526141876060840186613746565b83810360408581019190915285518083528387019284019060005b818110156141d057845180516001600160a01b031684528601518684015293850193918301916001016141a2565b50909998505050505050505050565b600080600080608085870312156141f557600080fd5b84356142008161379e565b935060208501356142108161379e565b92506040850135915060608501356001600160401b0381111561423257600080fd5b8501601f8101871361424357600080fd5b61425287823560208401613cbf565b91505092959194509250565b60006020828403121561427057600080fd5b81356001600160401b0381111561428657600080fd5b82016101a081850312156113a657600080fd5b6000602082840312156142ab57600080fd5b81356001600160401b038111156142c157600080fd5b820161020081850312156113a657600080fd5b600080604083850312156142e757600080fd5b82356142f28161379e565b915060208301356141628161379e565b600181811c9082168061431657607f821691505b6020821081036139d457634e487b7160e01b600052602260045260246000fd5b6020808252810182905260006001600160fb1b0383111561435657600080fd5b8260051b80856040850137919091016040019392505050565b634e487b7160e01b600052603260045260246000fd5b6143a38261439283613d18565b6affffffffffffffffffffff169052565b6143af60208201613d33565b64ffffffffff1660208301526143c760408201613d33565b64ffffffffff1660408301526143df60608201613d48565b61ffff1660608301526143f4608082016137b3565b6001600160a01b0316608083015261440e60a08201613d5a565b60ff1660a083015261442260c082016137b3565b6001600160a01b031660c083015260e08181013590830152610100614448818301613d48565b61ffff169083015261012061445e828201613d79565b151590830152610140614472828201613d79565b151590830152610160614486828201613d79565b15159083015261018061449a828201613d79565b1515908301526101a06144ae828201613d79565b80151584830152610d77565b6020808252810182905260008360408301825b858110156144f3576144df8284614385565b6101c09283019291909101906001016144cd565b5095945050505050565b600082601f83011261450e57600080fd5b8151602061451e613beb83613ba7565b82815260059290921b8401810191818101908684111561453d57600080fd5b8286015b84811015613c2a5780518352918301918301614541565b60006020828403121561456a57600080fd5b81516001600160401b0381111561458057600080fd5b61241e848285016144fd565b6101e0810161459b8285614385565b6001600160a01b03929092166101c09190910152919050565b80516137be8161379e565b600080604083850312156145d257600080fd5b82516145dd8161379e565b6020939093015192949293505050565b6000604082840312156145ff57600080fd5b604051604081018181106001600160401b038211171561462157614621613af3565b604052823581526020928301359281019290925250919050565b80516137be81613d6b565b60006020828403121561465857600080fd5b81516113a681613d6b565b6000808335601e1984360301811261467a57600080fd5b8301803591506001600160401b0382111561469457600080fd5b602001915036819003821315610d1d57600080fd5b600080858511156146b957600080fd5b838611156146c657600080fd5b5050820193919092039150565b6001600160e01b031981358181169160048510156146fb5780818660040360031b1b83161692505b505092915050565b60008060006060848603121561471857600080fd5b83359250602084013561472a816136ef565b915060408401356001600160401b0381111561474557600080fd5b61475186828701613bca565b9150509250925092565b60008235603e1983360301811261477157600080fd5b9190910192915050565b6000808335601e1984360301811261479257600080fd5b8301803591506001600160401b038211156147ac57600080fd5b6020019150600581901b3603821315610d1d57600080fd5b6000602082840312156147d657600080fd5b81516113a68161379e565b84815260606020808301829052908201849052600090859060808401835b878110156148265761ffff61481385613d48565b16825292820192908201906001016147ff565b50809350505050821515604083015295945050505050565b6000806040838503121561485157600080fd5b82516001600160401b0381111561486757600080fd5b614873858286016144fd565b925050602083015190509250929050565b60006020828403121561489657600080fd5b6113a682613d48565b6000602082840312156148b157600080fd5b5051919050565b6001600160a01b038316815260406020820181905260009061241e90830184613aa5565b602080825282518282018190526000919060409081850190868401855b828110156149df57815180516affffffffffffffffffffff1685528681015164ffffffffff9081168887015286820151168686015260608082015161ffff908116918701919091526080808301516001600160a01b039081169188019190915260a08084015160ff169088015260c0808401519091169087015260e080830151908701526101008083015190911690860152610120808201511515908601526101408082015115159086015261016080820151151590860152610180808201511515908601526101a0908101511515908501526101c090930192908501906001016148f9565b5091979650505050505050565b60208152816020820152818360408301376000818301604090810191909152601f909201601f19160101919050565b8183823760009101908152919050565b634e487b7160e01b600052601160045260246000fd5b8181038181111561089157610891614a2b565b8082018082111561089157610891614a2b565b60006101208284031215614a7a57600080fd5b614a82613b54565b825181526020830151602082015260408301516040820152606083015160608201526080830151608082015260a083015160a082015260c083015160c0820152614ace60e084016145b4565b60e0820152610100928301519281019290925250919050565b600060208284031215614af957600080fd5b81516001600160401b03811115614b0f57600080fd5b8201601f81018413614b2057600080fd5b8051614b2e613beb82613c98565b818152856020838501011115614b4357600080fd5b613382826020830160208601613722565b634e487b7160e01b600052601260045260246000fd5b60008351614b7c818460208801613722565b835190830190614b90818360208801613722565b01949350505050565b600181815b80851115614bd4578160001904821115614bba57614bba614a2b565b80851615614bc757918102915b93841c9390800290614b9e565b509250929050565b600082614beb57506001610891565b81614bf857506000610891565b8160018114614c0e5760028114614c1857614c34565b6001915050610891565b60ff841115614c2957614c29614a2b565b50506001821b610891565b5060208310610133831016604e8410600b8410161715614c57575081810a610891565b614c618383614b99565b8060001904821115614c7557614c75614a2b565b029392505050565b60006113a68383614bdc565b600080600080600060a08688031215614ca157600080fd5b8535945060208087013594506040870135614cbb816136ef565b93506060870135614ccb81613d6b565b925060808701356001600160401b03811115614ce657600080fd5b8701601f81018913614cf757600080fd5b8035614d05613beb82613ba7565b81815260059190911b8201830190838101908b831115614d2457600080fd5b928401925b82841015614d4957614d3a84613d48565b82529284019290840190614d29565b80955050505050509295509295909350565b600060808284031215614d6d57600080fd5b604051608081018181106001600160401b0382111715614d8f57614d8f613af3565b6040528251614d9d81613d6b565b81526020830151614dad81613d6b565b60208201526040830151614dc081613d6b565b60408201526060830151614dd381613d6b565b60608201529392505050565b60006101c08284031215614df257600080fd5b614dfa613b31565b825181526020830151602082015260408301516040820152606083015160608201526080830151608082015260a083015160a0820152614e3c60c084016145b4565b60c082015260e083015160e0820152610100614e598185016145b4565b9082015261012083810151908201526101408084015190820152610160614e8181850161463b565b90820152610180614e9384820161463b565b908201526101a0614ea584820161463b565b908201529392505050565b601f8211156109d757600081815260208120601f850160051c81016020861015614ed75750805b601f850160051c820191505b81811015610bb757828155600101614ee3565b81516001600160401b03811115614f0f57614f0f613af3565b614f2381614f1d8454614302565b84614eb0565b602080601f831160018114614f585760008415614f405750858301515b600019600386901b1c1916600185901b178555610bb7565b600085815260208120601f198616915b82811015614f8757888601518255948401946001909101908401614f68565b5085821015614fa55787850151600019600388901b60f8161c191681555b5050505050600190811b01905550565b6001600160a01b0385811682528416602082015260408101839052608060608201819052600090614fe890830184613746565b9695505050505050565b60006020828403121561500457600080fd5b81516113a6816136ef565b60008261501e5761501e614b54565b500690565b60008261503257615032614b54565b500490565b6000606082018583526020606081850152818651808452608086019150828801935060005b8181101561507c57845161ffff168352938301939183019160010161505c565b5050809350505050821515604083015294935050505056fe31323334353637383941424344454647484a4b4c4d4e505152535455565758595a6162636465666768696a6b6d6e6f707172737475767778797aa264697066735822122062c6a7f028af3d6d7d71b019e849746cb426ab4b3a6952bd7656a097ce3d296864736f6c63430008110033",
    "linkReferences": {}
  },
  "methodIdentifiers": {
    "adjustTiers((uint88,uint40,uint40,uint16,address,uint8,address,bytes32,uint16,bool,bool,bool,bool,bool)[],uint256[])": "14ea9b06",
    "approve(address,uint256)": "095ea7b3",
    "balanceOf(address)": "70a08231",
    "codeOrigin()": "1d153ca4",
    "contractURI()": "e8a3d485",
    "creditsOf(address)": "245a45b5",
    "didPay((address,uint256,uint256,(address,uint256,uint256,uint256),(address,uint256,uint256,uint256),uint256,address,bool,string,bytes))": "da9ee8b7",
    "didRedeem((address,uint256,uint256,uint256,(address,uint256,uint256,uint256),(address,uint256,uint256,uint256),address,string,bytes))": "2b13c58f",
    "directory()": "c41c2f24",
    "firstOwnerOf(uint256)": "54c6d1f5",
    "fundingCycleStore()": "557e7155",
    "getApproved(uint256)": "081812fc",
    "initialize(uint256,address,string,string,address,string,address,string,((uint88,uint40,uint40,uint16,address,uint8,address,bytes32,uint16,bool,bool,bool,bool,bool)[],uint256,uint256,address),address,(bool,bool,bool,bool))": "9521e381",
    "isApprovedForAll(address,address)": "e985e9c5",
    "mintFor((uint16[],address)[])": "36c1a93b",
    "mintFor(uint16[],address)": "6ac6d941",
    "mintReservesFor((uint256,uint256)[])": "2a596e53",
    "mintReservesFor(uint256,uint256)": "aa4fb15b",
    "name()": "06fdde03",
    "owner()": "8da5cb5b",
    "ownerOf(uint256)": "6352211e",
    "payParams((address,address,(address,uint256,uint256,uint256),uint256,uint256,address,uint256,uint256,string,bytes))": "d46cf171",
    "prices()": "d3419bf3",
    "pricingCurrency()": "64640c1e",
    "pricingDecimals()": "4ecba625",
    "projectId()": "3fafa127",
    "redeemParams((address,address,uint256,uint256,uint256,uint256,uint256,(address,uint256,uint256,uint256),bool,uint256,string,bytes))": "a51cfd18",
    "redemptionWeightOf(uint256[],(address,address,uint256,uint256,uint256,uint256,uint256,(address,uint256,uint256,uint256),bool,uint256,string,bytes))": "7ba62bf9",
    "renounceOwnership()": "715018a6",
    "royaltyInfo(uint256,uint256)": "2a55205a",
    "safeTransferFrom(address,address,uint256)": "42842e0e",
    "safeTransferFrom(address,address,uint256,bytes)": "b88d4fde",
    "setApprovalForAll(address,bool)": "a22cb465",
    "setBaseUri(string)": "a0bcfc7f",
    "setContractUri(string)": "ccb4807b",
    "setDefaultReservedTokenBeneficiary(address)": "df487e26",
    "setEncodedIPFSUriOf(uint256,bytes32)": "525350ba",
    "setTokenUriResolver(address)": "2407497e",
    "store()": "975057e7",
    "supportsInterface(bytes4)": "01ffc9a7",
    "symbol()": "95d89b41",
    "tokenURI(uint256)": "c87b56dd",
    "totalRedemptionWeight((address,address,uint256,uint256,uint256,uint256,uint256,(address,uint256,uint256,uint256),bool,uint256,string,bytes))": "9494bf72",
    "transferFrom(address,address,uint256)": "23b872dd",
    "transferOwnership(address)": "f2fde38b"
  },
  "id": 2
}