{
  "abi": [
    {
      "inputs": [],
      "stateMutability": "nonpayable",
      "type": "constructor"
    },
    {
      "inputs": [],
      "name": "ALEADY_MINTED",
      "type": "error"
    },
    {
      "inputs": [],
      "name": "APPROVAL_TO_CURRENT_OWNER",
      "type": "error"
    },
    {
      "inputs": [],
      "name": "APPROVE_TO_CALLER",
      "type": "error"
    },
    {
      "inputs": [],
      "name": "CALLER_NOT_OWNER_OR_APPROVED",
      "type": "error"
    },
    {
      "inputs": [],
      "name": "INCORRECT_OWNER",
      "type": "error"
    },
    {
      "inputs": [],
      "name": "INVALID_PAYMENT_EVENT",
      "type": "error"
    },
    {
      "inputs": [],
      "name": "INVALID_REDEMPTION_EVENT",
      "type": "error"
    },
    {
      "inputs": [],
      "name": "INVALID_REDEMPTION_METADATA",
      "type": "error"
    },
    {
      "inputs": [],
      "name": "INVALID_TOKEN_ID",
      "type": "error"
    },
    {
      "inputs": [],
      "name": "MINT_TO_ZERO",
      "type": "error"
    },
    {
      "inputs": [],
      "name": "NOT_AVAILABLE",
      "type": "error"
    },
    {
      "inputs": [],
      "name": "OVERSPENDING",
      "type": "error"
    },
    {
      "inputs": [
        {
          "internalType": "uint256",
          "name": "prod1",
          "type": "uint256"
        },
        {
          "internalType": "uint256",
          "name": "denominator",
          "type": "uint256"
        }
      ],
      "name": "PRBMath__MulDivOverflow",
      "type": "error"
    },
    {
      "inputs": [],
      "name": "PRICING_RESOLVER_CHANGES_PAUSED",
      "type": "error"
    },
    {
      "inputs": [],
      "name": "RESERVED_TOKEN_MINTING_PAUSED",
      "type": "error"
    },
    {
      "inputs": [],
      "name": "TRANSFERS_PAUSED",
      "type": "error"
    },
    {
      "inputs": [],
      "name": "TRANSFER_TO_NON_IMPLEMENTER",
      "type": "error"
    },
    {
      "inputs": [],
      "name": "TRANSFER_TO_ZERO_ADDRESS",
      "type": "error"
    },
    {
      "inputs": [],
      "name": "UNAUTHORIZED",
      "type": "error"
    },
    {
      "inputs": [],
      "name": "UNEXPECTED_TOKEN_REDEEMED",
      "type": "error"
    },
    {
      "anonymous": false,
      "inputs": [
        {
          "indexed": true,
          "internalType": "uint256",
          "name": "tierId",
          "type": "uint256"
        },
        {
          "components": [
            {
              "internalType": "uint256",
              "name": "contributionFloor",
              "type": "uint256"
            },
            {
              "internalType": "uint256",
              "name": "lockedUntil",
              "type": "uint256"
            },
            {
              "internalType": "uint256",
              "name": "initialQuantity",
              "type": "uint256"
            },
            {
              "internalType": "uint256",
              "name": "votingUnits",
              "type": "uint256"
            },
            {
              "internalType": "uint256",
              "name": "reservedRate",
              "type": "uint256"
            },
            {
              "internalType": "address",
              "name": "reservedTokenBeneficiary",
              "type": "address"
            },
            {
              "internalType": "bytes32",
              "name": "encodedIPFSUri",
              "type": "bytes32"
            },
            {
              "internalType": "bool",
              "name": "allowManualMint",
              "type": "bool"
            },
            {
              "internalType": "bool",
              "name": "shouldUseBeneficiaryAsDefault",
              "type": "bool"
            }
          ],
          "indexed": false,
          "internalType": "struct JB721TierParams",
          "name": "data",
          "type": "tuple"
        },
        {
          "indexed": false,
          "internalType": "address",
          "name": "caller",
          "type": "address"
        }
      ],
      "name": "AddTier",
      "type": "event"
    },
    {
      "anonymous": false,
      "inputs": [
        {
          "indexed": true,
          "internalType": "address",
          "name": "owner",
          "type": "address"
        },
        {
          "indexed": true,
          "internalType": "address",
          "name": "approved",
          "type": "address"
        },
        {
          "indexed": true,
          "internalType": "uint256",
          "name": "tokenId",
          "type": "uint256"
        }
      ],
      "name": "Approval",
      "type": "event"
    },
    {
      "anonymous": false,
      "inputs": [
        {
          "indexed": true,
          "internalType": "address",
          "name": "owner",
          "type": "address"
        },
        {
          "indexed": true,
          "internalType": "address",
          "name": "operator",
          "type": "address"
        },
        {
          "indexed": false,
          "internalType": "bool",
          "name": "approved",
          "type": "bool"
        }
      ],
      "name": "ApprovalForAll",
      "type": "event"
    },
    {
      "anonymous": false,
      "inputs": [
        {
          "indexed": true,
          "internalType": "uint256",
          "name": "tokenId",
          "type": "uint256"
        },
        {
          "indexed": true,
          "internalType": "uint256",
          "name": "tierId",
          "type": "uint256"
        },
        {
          "indexed": true,
          "internalType": "address",
          "name": "beneficiary",
          "type": "address"
        },
        {
          "indexed": false,
          "internalType": "uint256",
          "name": "totalAmountContributed",
          "type": "uint256"
        },
        {
          "indexed": false,
          "internalType": "address",
          "name": "caller",
          "type": "address"
        }
      ],
      "name": "Mint",
      "type": "event"
    },
    {
      "anonymous": false,
      "inputs": [
        {
          "indexed": true,
          "internalType": "uint256",
          "name": "tokenId",
          "type": "uint256"
        },
        {
          "indexed": true,
          "internalType": "uint256",
          "name": "tierId",
          "type": "uint256"
        },
        {
          "indexed": true,
          "internalType": "address",
          "name": "beneficiary",
          "type": "address"
        },
        {
          "indexed": false,
          "internalType": "address",
          "name": "caller",
          "type": "address"
        }
      ],
      "name": "MintReservedToken",
      "type": "event"
    },
    {
      "anonymous": false,
      "inputs": [
        {
          "indexed": true,
          "internalType": "address",
          "name": "previousOwner",
          "type": "address"
        },
        {
          "indexed": true,
          "internalType": "address",
          "name": "newOwner",
          "type": "address"
        }
      ],
      "name": "OwnershipTransferred",
      "type": "event"
    },
    {
      "anonymous": false,
      "inputs": [
        {
          "indexed": true,
          "internalType": "uint256",
          "name": "tierId",
          "type": "uint256"
        },
        {
          "indexed": false,
          "internalType": "address",
          "name": "caller",
          "type": "address"
        }
      ],
      "name": "RemoveTier",
      "type": "event"
    },
    {
      "anonymous": false,
      "inputs": [
        {
          "indexed": true,
          "internalType": "string",
          "name": "baseUri",
          "type": "string"
        },
        {
          "indexed": false,
          "internalType": "address",
          "name": "caller",
          "type": "address"
        }
      ],
      "name": "SetBaseUri",
      "type": "event"
    },
    {
      "anonymous": false,
      "inputs": [
        {
          "indexed": true,
          "internalType": "string",
          "name": "contractUri",
          "type": "string"
        },
        {
          "indexed": false,
          "internalType": "address",
          "name": "caller",
          "type": "address"
        }
      ],
      "name": "SetContractUri",
      "type": "event"
    },
    {
      "anonymous": false,
      "inputs": [
        {
          "indexed": true,
          "internalType": "address",
          "name": "beneficiary",
          "type": "address"
        },
        {
          "indexed": false,
          "internalType": "address",
          "name": "caller",
          "type": "address"
        }
      ],
      "name": "SetDefaultReservedTokenBeneficiary",
      "type": "event"
    },
    {
      "anonymous": false,
      "inputs": [
        {
          "indexed": true,
          "internalType": "contract IJBTokenUriResolver",
          "name": "newResolver",
          "type": "address"
        },
        {
          "indexed": false,
          "internalType": "address",
          "name": "caller",
          "type": "address"
        }
      ],
      "name": "SetTokenUriResolver",
      "type": "event"
    },
    {
      "anonymous": false,
      "inputs": [
        {
          "indexed": true,
          "internalType": "address",
          "name": "from",
          "type": "address"
        },
        {
          "indexed": true,
          "internalType": "address",
          "name": "to",
          "type": "address"
        },
        {
          "indexed": true,
          "internalType": "uint256",
          "name": "tokenId",
          "type": "uint256"
        }
      ],
      "name": "Transfer",
      "type": "event"
    },
    {
      "inputs": [
        {
          "components": [
            {
              "internalType": "uint256",
              "name": "contributionFloor",
              "type": "uint256"
            },
            {
              "internalType": "uint256",
              "name": "lockedUntil",
              "type": "uint256"
            },
            {
              "internalType": "uint256",
              "name": "initialQuantity",
              "type": "uint256"
            },
            {
              "internalType": "uint256",
              "name": "votingUnits",
              "type": "uint256"
            },
            {
              "internalType": "uint256",
              "name": "reservedRate",
              "type": "uint256"
            },
            {
              "internalType": "address",
              "name": "reservedTokenBeneficiary",
              "type": "address"
            },
            {
              "internalType": "bytes32",
              "name": "encodedIPFSUri",
              "type": "bytes32"
            },
            {
              "internalType": "bool",
              "name": "allowManualMint",
              "type": "bool"
            },
            {
              "internalType": "bool",
              "name": "shouldUseBeneficiaryAsDefault",
              "type": "bool"
            }
          ],
          "internalType": "struct JB721TierParams[]",
          "name": "_tiersToAdd",
          "type": "tuple[]"
        },
        {
          "internalType": "uint256[]",
          "name": "_tierIdsToRemove",
          "type": "uint256[]"
        }
      ],
      "name": "adjustTiers",
      "outputs": [],
      "stateMutability": "nonpayable",
      "type": "function"
    },
    {
      "inputs": [
        {
          "internalType": "address",
          "name": "to",
          "type": "address"
        },
        {
          "internalType": "uint256",
          "name": "tokenId",
          "type": "uint256"
        }
      ],
      "name": "approve",
      "outputs": [],
      "stateMutability": "nonpayable",
      "type": "function"
    },
    {
      "inputs": [
        {
          "internalType": "address",
          "name": "_owner",
          "type": "address"
        }
      ],
      "name": "balanceOf",
      "outputs": [
        {
          "internalType": "uint256",
          "name": "balance",
          "type": "uint256"
        }
      ],
      "stateMutability": "view",
      "type": "function"
    },
    {
      "inputs": [],
      "name": "contractURI",
      "outputs": [
        {
          "internalType": "string",
          "name": "",
          "type": "string"
        }
      ],
      "stateMutability": "view",
      "type": "function"
    },
    {
      "inputs": [
        {
          "internalType": "address",
          "name": "",
          "type": "address"
        }
      ],
      "name": "creditsOf",
      "outputs": [
        {
          "internalType": "uint256",
          "name": "",
          "type": "uint256"
        }
      ],
      "stateMutability": "view",
      "type": "function"
    },
    {
      "inputs": [
        {
          "components": [
            {
              "internalType": "address",
              "name": "payer",
              "type": "address"
            },
            {
              "internalType": "uint256",
              "name": "projectId",
              "type": "uint256"
            },
            {
              "internalType": "uint256",
              "name": "currentFundingCycleConfiguration",
              "type": "uint256"
            },
            {
              "components": [
                {
                  "internalType": "address",
                  "name": "token",
                  "type": "address"
                },
                {
                  "internalType": "uint256",
                  "name": "value",
                  "type": "uint256"
                },
                {
                  "internalType": "uint256",
                  "name": "decimals",
                  "type": "uint256"
                },
                {
                  "internalType": "uint256",
                  "name": "currency",
                  "type": "uint256"
                }
              ],
              "internalType": "struct JBTokenAmount",
              "name": "amount",
              "type": "tuple"
            },
            {
              "components": [
                {
                  "internalType": "address",
                  "name": "token",
                  "type": "address"
                },
                {
                  "internalType": "uint256",
                  "name": "value",
                  "type": "uint256"
                },
                {
                  "internalType": "uint256",
                  "name": "decimals",
                  "type": "uint256"
                },
                {
                  "internalType": "uint256",
                  "name": "currency",
                  "type": "uint256"
                }
              ],
              "internalType": "struct JBTokenAmount",
              "name": "forwardedAmount",
              "type": "tuple"
            },
            {
              "internalType": "uint256",
              "name": "projectTokenCount",
              "type": "uint256"
            },
            {
              "internalType": "address",
              "name": "beneficiary",
              "type": "address"
            },
            {
              "internalType": "bool",
              "name": "preferClaimedTokens",
              "type": "bool"
            },
            {
              "internalType": "string",
              "name": "memo",
              "type": "string"
            },
            {
              "internalType": "bytes",
              "name": "metadata",
              "type": "bytes"
            }
          ],
          "internalType": "struct JBDidPayData",
          "name": "_data",
          "type": "tuple"
        }
      ],
      "name": "didPay",
      "outputs": [],
      "stateMutability": "payable",
      "type": "function"
    },
    {
      "inputs": [
        {
          "components": [
            {
              "internalType": "address",
              "name": "holder",
              "type": "address"
            },
            {
              "internalType": "uint256",
              "name": "projectId",
              "type": "uint256"
            },
            {
              "internalType": "uint256",
              "name": "currentFundingCycleConfiguration",
              "type": "uint256"
            },
            {
              "internalType": "uint256",
              "name": "projectTokenCount",
              "type": "uint256"
            },
            {
              "components": [
                {
                  "internalType": "address",
                  "name": "token",
                  "type": "address"
                },
                {
                  "internalType": "uint256",
                  "name": "value",
                  "type": "uint256"
                },
                {
                  "internalType": "uint256",
                  "name": "decimals",
                  "type": "uint256"
                },
                {
                  "internalType": "uint256",
                  "name": "currency",
                  "type": "uint256"
                }
              ],
              "internalType": "struct JBTokenAmount",
              "name": "reclaimedAmount",
              "type": "tuple"
            },
            {
              "components": [
                {
                  "internalType": "address",
                  "name": "token",
                  "type": "address"
                },
                {
                  "internalType": "uint256",
                  "name": "value",
                  "type": "uint256"
                },
                {
                  "internalType": "uint256",
                  "name": "decimals",
                  "type": "uint256"
                },
                {
                  "internalType": "uint256",
                  "name": "currency",
                  "type": "uint256"
                }
              ],
              "internalType": "struct JBTokenAmount",
              "name": "forwardedAmount",
              "type": "tuple"
            },
            {
              "internalType": "address payable",
              "name": "beneficiary",
              "type": "address"
            },
            {
              "internalType": "string",
              "name": "memo",
              "type": "string"
            },
            {
              "internalType": "bytes",
              "name": "metadata",
              "type": "bytes"
            }
          ],
          "internalType": "struct JBDidRedeemData",
          "name": "_data",
          "type": "tuple"
        }
      ],
      "name": "didRedeem",
      "outputs": [],
      "stateMutability": "payable",
      "type": "function"
    },
    {
      "inputs": [],
      "name": "directory",
      "outputs": [
        {
          "internalType": "contract IJBDirectory",
          "name": "",
          "type": "address"
        }
      ],
      "stateMutability": "view",
      "type": "function"
    },
    {
      "inputs": [
        {
          "internalType": "uint256",
          "name": "_tokenId",
          "type": "uint256"
        }
      ],
      "name": "firstOwnerOf",
      "outputs": [
        {
          "internalType": "address",
          "name": "",
          "type": "address"
        }
      ],
      "stateMutability": "view",
      "type": "function"
    },
    {
      "inputs": [],
      "name": "fundingCycleStore",
      "outputs": [
        {
          "internalType": "contract IJBFundingCycleStore",
          "name": "",
          "type": "address"
        }
      ],
      "stateMutability": "view",
      "type": "function"
    },
    {
      "inputs": [
        {
          "internalType": "uint256",
          "name": "tokenId",
          "type": "uint256"
        }
      ],
      "name": "getApproved",
      "outputs": [
        {
          "internalType": "address",
          "name": "",
          "type": "address"
        }
      ],
      "stateMutability": "view",
      "type": "function"
    },
    {
      "inputs": [
        {
          "internalType": "uint256",
          "name": "_projectId",
          "type": "uint256"
        },
        {
          "internalType": "contract IJBDirectory",
          "name": "_directory",
          "type": "address"
        },
        {
          "internalType": "string",
          "name": "_name",
          "type": "string"
        },
        {
          "internalType": "string",
          "name": "_symbol",
          "type": "string"
        },
        {
          "internalType": "contract IJBFundingCycleStore",
          "name": "_fundingCycleStore",
          "type": "address"
        },
        {
          "internalType": "string",
          "name": "_baseUri",
          "type": "string"
        },
        {
          "internalType": "contract IJBTokenUriResolver",
          "name": "_tokenUriResolver",
          "type": "address"
        },
        {
          "internalType": "string",
          "name": "_contractUri",
          "type": "string"
        },
        {
          "components": [
            {
              "components": [
                {
                  "internalType": "uint256",
                  "name": "contributionFloor",
                  "type": "uint256"
                },
                {
                  "internalType": "uint256",
                  "name": "lockedUntil",
                  "type": "uint256"
                },
                {
                  "internalType": "uint256",
                  "name": "initialQuantity",
                  "type": "uint256"
                },
                {
                  "internalType": "uint256",
                  "name": "votingUnits",
                  "type": "uint256"
                },
                {
                  "internalType": "uint256",
                  "name": "reservedRate",
                  "type": "uint256"
                },
                {
                  "internalType": "address",
                  "name": "reservedTokenBeneficiary",
                  "type": "address"
                },
                {
                  "internalType": "bytes32",
                  "name": "encodedIPFSUri",
                  "type": "bytes32"
                },
                {
                  "internalType": "bool",
                  "name": "allowManualMint",
                  "type": "bool"
                },
                {
                  "internalType": "bool",
                  "name": "shouldUseBeneficiaryAsDefault",
                  "type": "bool"
                }
              ],
              "internalType": "struct JB721TierParams[]",
              "name": "tiers",
              "type": "tuple[]"
            },
            {
              "internalType": "uint256",
              "name": "currency",
              "type": "uint256"
            },
            {
              "internalType": "uint256",
              "name": "decimals",
              "type": "uint256"
            },
            {
              "internalType": "contract IJBPrices",
              "name": "prices",
              "type": "address"
            }
          ],
          "internalType": "struct JB721PricingParams",
          "name": "_pricing",
          "type": "tuple"
        },
        {
          "internalType": "contract IJBTiered721DelegateStore",
          "name": "_store",
          "type": "address"
        },
        {
          "components": [
            {
              "internalType": "bool",
              "name": "lockReservedTokenChanges",
              "type": "bool"
            },
            {
              "internalType": "bool",
              "name": "lockVotingUnitChanges",
              "type": "bool"
            },
            {
              "internalType": "bool",
              "name": "lockManualMintingChanges",
              "type": "bool"
            },
            {
              "internalType": "bool",
              "name": "pausable",
              "type": "bool"
            }
          ],
          "internalType": "struct JBTiered721Flags",
          "name": "_flags",
          "type": "tuple"
        }
      ],
      "name": "initialize",
      "outputs": [],
      "stateMutability": "nonpayable",
      "type": "function"
    },
    {
      "inputs": [
        {
          "internalType": "address",
          "name": "owner",
          "type": "address"
        },
        {
          "internalType": "address",
          "name": "operator",
          "type": "address"
        }
      ],
      "name": "isApprovedForAll",
      "outputs": [
        {
          "internalType": "bool",
          "name": "",
          "type": "bool"
        }
      ],
      "stateMutability": "view",
      "type": "function"
    },
    {
      "inputs": [
        {
          "components": [
            {
              "internalType": "uint16[]",
              "name": "tierIds",
              "type": "uint16[]"
            },
            {
              "internalType": "address",
              "name": "beneficiary",
              "type": "address"
            }
          ],
          "internalType": "struct JBTiered721MintForTiersData[]",
          "name": "_mintForTiersData",
          "type": "tuple[]"
        }
      ],
      "name": "mintFor",
      "outputs": [],
      "stateMutability": "nonpayable",
      "type": "function"
    },
    {
      "inputs": [
        {
          "internalType": "uint16[]",
          "name": "_tierIds",
          "type": "uint16[]"
        },
        {
          "internalType": "address",
          "name": "_beneficiary",
          "type": "address"
        }
      ],
      "name": "mintFor",
      "outputs": [
        {
          "internalType": "uint256[]",
          "name": "tokenIds",
          "type": "uint256[]"
        }
      ],
      "stateMutability": "nonpayable",
      "type": "function"
    },
    {
      "inputs": [
        {
          "components": [
            {
              "internalType": "uint256",
              "name": "tierId",
              "type": "uint256"
            },
            {
              "internalType": "uint256",
              "name": "count",
              "type": "uint256"
            }
          ],
          "internalType": "struct JBTiered721MintReservesForTiersData[]",
          "name": "_mintReservesForTiersData",
          "type": "tuple[]"
        }
      ],
      "name": "mintReservesFor",
      "outputs": [],
      "stateMutability": "nonpayable",
      "type": "function"
    },
    {
      "inputs": [
        {
          "internalType": "uint256",
          "name": "_tierId",
          "type": "uint256"
        },
        {
          "internalType": "uint256",
          "name": "_count",
          "type": "uint256"
        }
      ],
      "name": "mintReservesFor",
      "outputs": [],
      "stateMutability": "nonpayable",
      "type": "function"
    },
    {
      "inputs": [],
      "name": "name",
      "outputs": [
        {
          "internalType": "string",
          "name": "",
          "type": "string"
        }
      ],
      "stateMutability": "view",
      "type": "function"
    },
    {
      "inputs": [],
      "name": "owner",
      "outputs": [
        {
          "internalType": "address",
          "name": "",
          "type": "address"
        }
      ],
      "stateMutability": "view",
      "type": "function"
    },
    {
      "inputs": [
        {
          "internalType": "uint256",
          "name": "tokenId",
          "type": "uint256"
        }
      ],
      "name": "ownerOf",
      "outputs": [
        {
          "internalType": "address",
          "name": "",
          "type": "address"
        }
      ],
      "stateMutability": "view",
      "type": "function"
    },
    {
      "inputs": [
        {
          "components": [
            {
              "internalType": "contract IJBPaymentTerminal",
              "name": "terminal",
              "type": "address"
            },
            {
              "internalType": "address",
              "name": "payer",
              "type": "address"
            },
            {
              "components": [
                {
                  "internalType": "address",
                  "name": "token",
                  "type": "address"
                },
                {
                  "internalType": "uint256",
                  "name": "value",
                  "type": "uint256"
                },
                {
                  "internalType": "uint256",
                  "name": "decimals",
                  "type": "uint256"
                },
                {
                  "internalType": "uint256",
                  "name": "currency",
                  "type": "uint256"
                }
              ],
              "internalType": "struct JBTokenAmount",
              "name": "amount",
              "type": "tuple"
            },
            {
              "internalType": "uint256",
              "name": "projectId",
              "type": "uint256"
            },
            {
              "internalType": "uint256",
              "name": "currentFundingCycleConfiguration",
              "type": "uint256"
            },
            {
              "internalType": "address",
              "name": "beneficiary",
              "type": "address"
            },
            {
              "internalType": "uint256",
              "name": "weight",
              "type": "uint256"
            },
            {
              "internalType": "uint256",
              "name": "reservedRate",
              "type": "uint256"
            },
            {
              "internalType": "string",
              "name": "memo",
              "type": "string"
            },
            {
              "internalType": "bytes",
              "name": "metadata",
              "type": "bytes"
            }
          ],
          "internalType": "struct JBPayParamsData",
          "name": "_data",
          "type": "tuple"
        }
      ],
      "name": "payParams",
      "outputs": [
        {
          "internalType": "uint256",
          "name": "weight",
          "type": "uint256"
        },
        {
          "internalType": "string",
          "name": "memo",
          "type": "string"
        },
        {
          "components": [
            {
              "internalType": "contract IJBPayDelegate",
              "name": "delegate",
              "type": "address"
            },
            {
              "internalType": "uint256",
              "name": "amount",
              "type": "uint256"
            }
          ],
          "internalType": "struct JBPayDelegateAllocation[]",
          "name": "delegateAllocations",
          "type": "tuple[]"
        }
      ],
      "stateMutability": "view",
      "type": "function"
    },
    {
      "inputs": [],
      "name": "prices",
      "outputs": [
        {
          "internalType": "contract IJBPrices",
          "name": "",
          "type": "address"
        }
      ],
      "stateMutability": "view",
      "type": "function"
    },
    {
      "inputs": [],
      "name": "pricingCurrency",
      "outputs": [
        {
          "internalType": "uint256",
          "name": "",
          "type": "uint256"
        }
      ],
      "stateMutability": "view",
      "type": "function"
    },
    {
      "inputs": [],
      "name": "pricingDecimals",
      "outputs": [
        {
          "internalType": "uint256",
          "name": "",
          "type": "uint256"
        }
      ],
      "stateMutability": "view",
      "type": "function"
    },
    {
      "inputs": [],
      "name": "projectId",
      "outputs": [
        {
          "internalType": "uint256",
          "name": "",
          "type": "uint256"
        }
      ],
      "stateMutability": "view",
      "type": "function"
    },
    {
      "inputs": [
        {
          "components": [
            {
              "internalType": "contract IJBPaymentTerminal",
              "name": "terminal",
              "type": "address"
            },
            {
              "internalType": "address",
              "name": "holder",
              "type": "address"
            },
            {
              "internalType": "uint256",
              "name": "projectId",
              "type": "uint256"
            },
            {
              "internalType": "uint256",
              "name": "currentFundingCycleConfiguration",
              "type": "uint256"
            },
            {
              "internalType": "uint256",
              "name": "tokenCount",
              "type": "uint256"
            },
            {
              "internalType": "uint256",
              "name": "totalSupply",
              "type": "uint256"
            },
            {
              "internalType": "uint256",
              "name": "overflow",
              "type": "uint256"
            },
            {
              "components": [
                {
                  "internalType": "address",
                  "name": "token",
                  "type": "address"
                },
                {
                  "internalType": "uint256",
                  "name": "value",
                  "type": "uint256"
                },
                {
                  "internalType": "uint256",
                  "name": "decimals",
                  "type": "uint256"
                },
                {
                  "internalType": "uint256",
                  "name": "currency",
                  "type": "uint256"
                }
              ],
              "internalType": "struct JBTokenAmount",
              "name": "reclaimAmount",
              "type": "tuple"
            },
            {
              "internalType": "bool",
              "name": "useTotalOverflow",
              "type": "bool"
            },
            {
              "internalType": "uint256",
              "name": "redemptionRate",
              "type": "uint256"
            },
            {
              "internalType": "string",
              "name": "memo",
              "type": "string"
            },
            {
              "internalType": "bytes",
              "name": "metadata",
              "type": "bytes"
            }
          ],
          "internalType": "struct JBRedeemParamsData",
          "name": "_data",
          "type": "tuple"
        }
      ],
      "name": "redeemParams",
      "outputs": [
        {
          "internalType": "uint256",
          "name": "reclaimAmount",
          "type": "uint256"
        },
        {
          "internalType": "string",
          "name": "memo",
          "type": "string"
        },
        {
          "components": [
            {
              "internalType": "contract IJBRedemptionDelegate",
              "name": "delegate",
              "type": "address"
            },
            {
              "internalType": "uint256",
              "name": "amount",
              "type": "uint256"
            }
          ],
          "internalType": "struct JBRedemptionDelegateAllocation[]",
          "name": "delegateAllocations",
          "type": "tuple[]"
        }
      ],
      "stateMutability": "view",
      "type": "function"
    },
    {
      "inputs": [],
      "name": "renounceOwnership",
      "outputs": [],
      "stateMutability": "nonpayable",
      "type": "function"
    },
    {
      "inputs": [
        {
          "internalType": "address",
          "name": "from",
          "type": "address"
        },
        {
          "internalType": "address",
          "name": "to",
          "type": "address"
        },
        {
          "internalType": "uint256",
          "name": "tokenId",
          "type": "uint256"
        }
      ],
      "name": "safeTransferFrom",
      "outputs": [],
      "stateMutability": "nonpayable",
      "type": "function"
    },
    {
      "inputs": [
        {
          "internalType": "address",
          "name": "from",
          "type": "address"
        },
        {
          "internalType": "address",
          "name": "to",
          "type": "address"
        },
        {
          "internalType": "uint256",
          "name": "tokenId",
          "type": "uint256"
        },
        {
          "internalType": "bytes",
          "name": "data",
          "type": "bytes"
        }
      ],
      "name": "safeTransferFrom",
      "outputs": [],
      "stateMutability": "nonpayable",
      "type": "function"
    },
    {
      "inputs": [
        {
          "internalType": "address",
          "name": "operator",
          "type": "address"
        },
        {
          "internalType": "bool",
          "name": "approved",
          "type": "bool"
        }
      ],
      "name": "setApprovalForAll",
      "outputs": [],
      "stateMutability": "nonpayable",
      "type": "function"
    },
    {
      "inputs": [
        {
          "internalType": "string",
          "name": "_baseUri",
          "type": "string"
        }
      ],
      "name": "setBaseUri",
      "outputs": [],
      "stateMutability": "nonpayable",
      "type": "function"
    },
    {
      "inputs": [
        {
          "internalType": "string",
          "name": "_contractUri",
          "type": "string"
        }
      ],
      "name": "setContractUri",
      "outputs": [],
      "stateMutability": "nonpayable",
      "type": "function"
    },
    {
      "inputs": [
        {
          "internalType": "address",
          "name": "_beneficiary",
          "type": "address"
        }
      ],
      "name": "setDefaultReservedTokenBeneficiary",
      "outputs": [],
      "stateMutability": "nonpayable",
      "type": "function"
    },
    {
      "inputs": [
        {
          "internalType": "contract IJBTokenUriResolver",
          "name": "_tokenUriResolver",
          "type": "address"
        }
      ],
      "name": "setTokenUriResolver",
      "outputs": [],
      "stateMutability": "nonpayable",
      "type": "function"
    },
    {
      "inputs": [],
      "name": "store",
      "outputs": [
        {
          "internalType": "contract IJBTiered721DelegateStore",
          "name": "",
          "type": "address"
        }
      ],
      "stateMutability": "view",
      "type": "function"
    },
    {
      "inputs": [
        {
          "internalType": "bytes4",
          "name": "_interfaceId",
          "type": "bytes4"
        }
      ],
      "name": "supportsInterface",
      "outputs": [
        {
          "internalType": "bool",
          "name": "",
          "type": "bool"
        }
      ],
      "stateMutability": "view",
      "type": "function"
    },
    {
      "inputs": [],
      "name": "symbol",
      "outputs": [
        {
          "internalType": "string",
          "name": "",
          "type": "string"
        }
      ],
      "stateMutability": "view",
      "type": "function"
    },
    {
      "inputs": [
        {
          "internalType": "uint256",
          "name": "_tokenId",
          "type": "uint256"
        }
      ],
      "name": "tokenURI",
      "outputs": [
        {
          "internalType": "string",
          "name": "",
          "type": "string"
        }
      ],
      "stateMutability": "view",
      "type": "function"
    },
    {
      "inputs": [
        {
          "internalType": "address",
          "name": "from",
          "type": "address"
        },
        {
          "internalType": "address",
          "name": "to",
          "type": "address"
        },
        {
          "internalType": "uint256",
          "name": "tokenId",
          "type": "uint256"
        }
      ],
      "name": "transferFrom",
      "outputs": [],
      "stateMutability": "nonpayable",
      "type": "function"
    },
    {
      "inputs": [
        {
          "internalType": "address",
          "name": "newOwner",
          "type": "address"
        }
      ],
      "name": "transferOwnership",
      "outputs": [],
      "stateMutability": "nonpayable",
      "type": "function"
    }
  ],
  "bytecode": {
    "object": "0x608080604052346100655760078054336001600160a01b03198083168217909355906001600160a01b03167f8be0079c531659141344cd1fd0a4f28419497f9722a3daafe3b4186f6b6457e0600085a3309060085416176008556143a0908161006b8239f35b600080fdfe608080604052600436101561001357600080fd5b600090813560e01c90816301ffc9a71461244b5750806306fdde03146123b9578063081812fc1461239a578063095ea7b3146122ca578063211eb0011461205d57806323b872dd146120235780632407497e14611f76578063245a45b514611f3d5780632a596e5314611e655780632b13c58f1461189957806336c1a93b146117785780633fafa1271461175a57806342842e0e146117325780634ecba6251461171457806354c6d1f5146116f5578063557e7155146116cc5780636352211e1461169b57806364640c1e1461167d5780636ac6d9411461162457806370a0823114611586578063715018a6146115255780638da5cb5b146114fc57806395d89b411461143f578063975057e714611416578063a0bcfc7f14611334578063a22cb46514611293578063a51cfd1814611214578063aa4fb15b146111f4578063b88d4fde14611194578063c41c2f241461116b578063c87b56dd14611137578063ccb4807b1461102d578063d3419bf314611004578063d46cf17114610edc578063da9ee8b714610de6578063df487e2614610d39578063dfedb3af14610358578063e8a3d485146102c2578063e985e9c51461026e5763f2fde38b146101d957600080fd5b3461026b57602036600319011261026b576101f2612591565b6101fa614145565b6001600160a01b03811615610217576102129061419d565b604051f35b60405162461bcd60e51b815260206004820152602660248201527f4f776e61626c653a206e6577206f776e657220697320746865207a65726f206160448201526564647265737360d01b6064820152608490fd5b80fd5b503461026b57604036600319011261026b57610288612591565b60406102926125a7565b9260018060a01b0380931681526004602052209116600052602052602060ff604060002054166040519015158152f35b503461026b578060031936011261026b57600954604051630155619b60e71b8152306004820152908290829060249082906001600160a01b03165afa90811561034d5782610326939261032a575b505060405191829160208352602083019061256c565b0390f35b61034692503d8091833e61033e8183612686565b8101906128bc565b3880610310565b6040513d84823e3d90fd5b503461026b57600319906101c03683011261026b57602435916001600160a01b0383168303610940576044356001600160401b038111610944576103a09036906004016127df565b926064356001600160401b0381116109c7576103c09036906004016127df565b91608435916001600160a01b0383168303610a4a5760a4356001600160401b038111610d35576103f49036906004016127df565b60c435939091906001600160a01b0385168503610c5d5760e4356001600160401b038111610c625761042a9036906004016127df565b936001600160401b036101043511610c62576080906101043536030112610d31576040519561045887612634565b61010435600401356001600160401b038111610c5957366023826101043501011215610c5957610490600482610104350101356126a7565b9061049e6040519283612686565b6101043581016004810135808452602084019291366101209092020160240111610d2d57602481610104350101915b610104358201600481013561012002016024018310610c66575050508752610104356024810135602089015260448101356040890152606401356001600160a01b0381169003610c625761010435606401356060880152610124356001600160a01b0381169003610c6257608036610143190112610c6257604051986105528a612634565b610144358015158103610c5d578a526101643515156101643503610c5d576101643560208b01526101843515156101843503610c5d576101843560408b01526101a43515156101a43503610c5d576101a43560608b01526008546001600160a01b03163014610c59576009546001600160a01b0316610c59578051906001600160401b038211610c455781906105e88b54613079565b601f8111610bd4575b50602090601f8311600114610b60578b92610b55575b50508160011b916000199060031b1c19161788555b8051906001600160401b038211610b4157819061063a600154613079565b601f8111610acf575b50602090601f8311600114610a59578a92610a4e575b50508160011b916000199060031b1c1916176001555b600435600555600680546001600160a01b03199081166001600160a01b0394851617909155600a80548216928416929092179091556009805482166101243584161790556020860151600c556040860151600d556060860151600b8054909216921691909117905580516109cb575b508051610948575b506001600160a01b0381166108d5575b50519182516107d7575b8192508051158015906107ca575b80156107bd575b80156107b0575b61072b575b506102123361419d565b610124356001600160a01b03163b156107ad57604080516365c13f1960e11b81528251151560048201526020830151151560248201529082015115156044820152606090910151151560648201528181608481836001600160a01b0361012435165af1801561034d5715610721576107a290612606565b61026b578038610721565b50fd5b506060810151151561071c565b5060408101511515610715565b506020810151151561070e565b60405163d0cf48a560e01b815260248101602060048301528451809152602060448301950190845b81811061085d57505050828180829603818360018060a01b0361012435165af1801561085257610830575b50610700565b61084b903d8085833e6108438183612686565b810190612b95565b503861082a565b6040513d85823e3d90fd5b9091956020610120600192895180518252838101518483015260408101516040830152606081015160608301526080810151608083015260a0858060a01b0381830151169083015260c0808201519083015260e0810151151560e08301526101008091015115159082015201970191019190916107ff565b610124356001600160a01b03163b156109445760405163036129cb60e61b81526001600160a01b03918216600482015290839082906024908290849061012435165af180156108525790839161092c575b506106f6565b61093590612606565b610940578138610926565b5080fd5b8280fd5b610124356001600160a01b03163b156109c75783610982916040518093819263d67b78fd60e01b835260206004840152602483019061256c565b038183610124356001600160a01b03165af180156109bc579084916109a8575b506106e6565b6109b190612606565b6109445782386109a2565b6040513d86823e3d90fd5b8380fd5b610124356001600160a01b03163b15610a4a5784610a0591604051809381926331315e5960e11b835260206004840152602483019061256c565b038183610124356001600160a01b03165af18015610a3f57908591610a2b575b506106de565b610a3490612606565b6109c7578338610a25565b6040513d87823e3d90fd5b8480fd5b015190503880610659565b925060018a5260008051602061434b833981519152908a935b601f1984168510610ab4576001945083601f19811610610a9b575b505050811b0160015561066f565b015160001960f88460031b161c19169055388080610a8d565b81810151835560209485019460019093019290910190610a72565b90915060018a52601f830160051c60008051602061434b8339815191520160208410610b2c575b908392915b601f820160051c60008051602061434b833981519152018110610b1e5750610643565b8b8155849350600101610afb565b5060008051602061434b833981519152610af6565b634e487b7160e01b89526041600452602489fd5b015190503880610607565b92508a805260008051602061432b833981519152908b935b601f1984168510610bb9576001945083601f19811610610ba0575b505050811b01885561061c565b015160001960f88460031b161c19169055388080610b93565b81810151835560209485019460019093019290910190610b78565b9091508a8052601f830160051c60008051602061432b8339815191520160208410610c30575b908392915b601f820160051c60008051602061432b833981519152018110610c2257506105f1565b8c8155849350600101610bff565b5060008051602061432b833981519152610bfa565b634e487b7160e01b8a52604160045260248afd5b8880fd5b600080fd5b8780fd5b61012083360312610d295760405190816101208101106001600160401b0361012084011117610d135760206101209183836024950160405286358152828701358382015260408701356040820152606080880135908201526080870135608082015260a0610cd58189016125bd565b9082015260c08088013590820152610cef60e088016127fd565b60e0820152610100610d028189016127fd565b9082015281520193019290506104cd565b634e487b7160e01b600052604160045260246000fd5b8b80fd5b8a80fd5b8680fd5b8580fd5b503461026b57602036600319011261026b57610d53612591565b610d5b614145565b6009546001600160a01b0390811691839190833b156109445782916024839260405194859384926317161f7d60e01b845216978860048401525af1801561034d57610dd2575b50507fab0014d4c7a642a02a31b303a318908c22b0fb2001f107278fc6076b4c671b656020604051338152a2604051f35b610ddb90612606565b610940578138610da1565b5060031960203682011261094057600435906001600160401b03821161094457610200908236030112610940573415801590610e56575b8015610e46575b610e345761021290600401613c72565b6040516331c57b1b60e21b8152600490fd5b5060055460248201351415610e24565b50600654600554604051636e49181f60e01b8152600481019190915233602482015290602090829060449082906001600160a01b03165afa908115610852578391610ea3575b5015610e1d565b90506020813d8211610ed4575b81610ebd60209383612686565b8101031261094457610ece90613379565b38610e9c565b3d9150610eb0565b503461026b576003196020368201811361094457600435916001600160401b0383116109c7576101a09083360301126109445791610f2b610f246101648401846004016138e9565b36916127a8565b9060405193610f3985612619565b600192838652825b828110610fda5750610f9090604051610f5981612619565b3081528484820152610f6a88612bba565b52610f7487612bba565b506101246040519601358652606083870152606086019061256c565b9084820360408601528080875193848152019601925b828110610fb35785870386f35b835180516001600160a01b0316885282015182880152604090960195928101928401610fa6565b8290604097959751610feb81612619565b6000815260008382015282828801015201959395610f41565b503461026b578060031936011261026b57600b546040516001600160a01b039091168152602090f35b503461026b57602036600319011261026b576001600160401b036004358181116109445736602382011215610944578060040135918211610944576024810190602483369201011161094457611081614145565b60095483906001600160a01b0316803b156109405781604051809263d67b78fd60e01b8252602060048301528660248301528686604484013782604488840101528183604482601f19601f8c011681010301925af1801561034d57611123575b505081604051928392833781018381520390207fd36dc0c1a06103fdcaf15f3f6fb797d1a97997514c78de073640c8b5005454b86020604051338152a2604051f35b61112c90612606565b6109445782386110e1565b503461026b57602036600319011261026b5761032661115760043561291a565b60405191829160208352602083019061256c565b503461026b578060031936011261026b576006546040516001600160a01b039091168152602090f35b503461026b57608036600319011261026b576111ae612591565b6111b66125a7565b606435916001600160401b0383116109c757366023840112156109c7576111ea6102129336906024816004013591016127a8565b91604435916130eb565b503461026b57604036600319011261026b57610212602435600435612cf8565b503461026b5761122b611226366126be565b6139c6565b90604051928352611248602091606083860152606085019061256c565b9083820360408501528080845193848152019301945b82811061126b5784840385f35b855180516001600160a01b03168552820151848301529481019460409093019260010161125e565b503461026b57604036600319011261026b576112ad612591565b60243590811515809203610c5d576001600160a01b0316903382146113225733835260046020526040832082600052602052604060002060ff1981541660ff83161790556040519081527f17307eab39ab6107e8899845ad3d59bd9653f200f220920489ca2b5937696c3160203392a3604051f35b6040516306f8139d60e11b8152600490fd5b503461026b57602036600319011261026b576004356001600160401b038111610940576113659036906004016127df565b61136d614145565b60095482906001600160a01b0316803b15610940578160405180926331315e5960e11b8252602060048301528183816113a9602482018a61256c565b03925af1801561034d57611402575b50604051825181906113ce818360208801612549565b81010390207f7bc9110d5de090dd59e07912d2b93a5a27ac70a60c8d8e324db4f9ee8b8b5c136020604051338152a2604051f35b61140b90612606565b6109405781386113b8565b503461026b578060031936011261026b576009546040516001600160a01b039091168152602090f35b503461026b578060031936011261026b576040519080600180549161146383613079565b808652928281169081156114d2575060011461148a575b6103268561115781870382612686565b925080835260008051602061434b8339815191525b8284106114ba5750505081016020016111578261032661147a565b8054602085870181019190915290930192810161149f565b8695506103269693506020925061115794915060ff191682840152151560051b820101929361147a565b503461026b578060031936011261026b576007546040516001600160a01b039091168152602090f35b503461026b578060031936011261026b5761153e614145565b600780546001600160a01b03198116909155604051906000906001600160a01b03167f8be0079c531659141344cd1fd0a4f28419497f9722a3daafe3b4186f6b6457e08284a3f35b503461026b576020908160031936011261026b576115a2612591565b600954604051633de222bb60e21b81523060048201526001600160a01b03928316602482015291849183916044918391165afa91821561161857916115eb575b50604051908152f35b90508181813d8311611611575b6116028183612686565b81010312610c5d5751386115e2565b503d6115f8565b604051903d90823e3d90fd5b503461026b57604036600319011261026b57600435906001600160401b03821161026b5761032661166961165b36600486016126f0565b6116636125a7565b90612ed4565b604051918291602083526020830190612759565b503461026b578060031936011261026b576020600c54604051908152f35b503461026b57602036600319011261026b5760206116ba600435613046565b6040516001600160a01b039091168152f35b503461026b578060031936011261026b57600a546040516001600160a01b039091168152602090f35b503461026b57602036600319011261026b5760206116ba60043561281e565b503461026b578060031936011261026b576020600d54604051908152f35b503461026b57610212611744366125d1565b90604051926117528461266b565b8584526130eb565b503461026b578060031936011261026b576020600554604051908152f35b503461026b57602080600319360112610940576001600160401b03906004358281116109c757366023820112156109c7578060040135926117b8846126a7565b936117c66040519586612686565b808552838501916024809260051b85010193368511610c6257828101935b858510611834578888886117f6614145565b815191835b8381106118085784604051f35b8061182d61181860019385612bdd565b5180519086858060a01b039101511690612ed4565b50016117fb565b84358381116118955782019060406023198336030112611895576040519061185b82612619565b8583013591858311610d295761188660448b9561187e87968b36918401016126f0565b8452016125bd565b838201528152019401936117e4565b8980fd5b506118a3366126be565b903415801590611ddf575b8015611dcf575b611dbd576101c0820160046118ca82856138e9565b9050108015611d91575b611d7f576118e56118ed91846138e9565b81019061391b565b80915051825b81811061196d576009548490819085906001600160a01b0316803b15611969576040516386bc2be360e01b8152602060048201529183918391829084908290611940906024830190612759565b03925af1801561034d57611955575b50604051f35b61195e90612606565b61026b57808261194f565b5050fd5b6119778184612bdd565b51808552600260205260408520549091906001600160a01b039081169061199d88613c5e565b1603611d6d576119ac82613046565b6001600160a01b038116611b66575b6119c483613779565b8286526002602052604080872080546001600160a01b03191690555183876001600160a01b0384167fddf252ad1be2c89b69c2b068fc378daa952ba7f163c4a11628f55a4df523b3ef8285a460095463b67cb04760e01b825230600483015260248201949094526001600160a01b03909316926101408082604481885afa908115611ab457600091611ac0575b5090505190833b15610c5d5760646000928360405196879485936330b157e560e21b8552600485015260018060a01b031660248401528160448401525af1918215611ab457600192611aa5575b50016118f3565b611aae90612606565b38611a9e565b6040513d6000823e3d90fd5b82813d8311611b5f575b611ad48183612686565b8101031261026b575060405190611aea8261264f565b805182526020810151602083015260408101516040830152606080820151908301526080808201519083015260a0808201519083015260c08082015190830152611b3660e0820161280a565b60e08301526101008082015190830152611b54610120809201613379565b908201528038611a51565b503d611aca565b600954604051634228826f60e11b81523060048201526001600160a01b0390911690608081602481855afa8015611ab457600090611cf2575b606091500151611c7f575b6040516308ed6c0160e41b815230600482015260248101859052602081604481855afa908115611ab457600091611c45575b506001600160a01b031615611bf2575b506119bb565b803b15610c5d57604051638cec7d3960e01b8152600481018590526001600160a01b0383166024820152906000908290604490829084905af18015611ab45715611bec57611c3f90612606565b38611bec565b906020823d602011611c77575b81611c5f60209383612686565b8101031261026b5750611c719061280a565b38611bdc565b3d9150611c52565b600a546005546040516321d1336160e11b81526004810191909152610120918290829060249082906001600160a01b03165afa8015611ab457611cc4575b5050611baa565b81611ce392903d10611ceb575b611cdb8183612686565b810190612c68565b503880611cbd565b503d611cd1565b6080823d608011611d65575b81611d0b60809383612686565b8101031261026b5750604051606091611d2382612634565b611d2c81613379565b8252611d3a60208201613379565b6020830152611d4b60408201613379565b6040830152611d5c83809201613379565b90820152611b9f565b3d9150611cfe565b60405163075fd2b160e01b8152600490fd5b604051632a84050f60e01b8152600490fd5b50611d9c81846138e9565b60041161094457356001600160e01b03191663b3bcbb7960e01b14156118d4565b604051633efca5c360e11b8152600490fd5b50600554602083013514156118b5565b50600654600554604051636e49181f60e01b8152600481019190915233602482015290602090829060449082906001600160a01b03165afa90811561034d578291611e2c575b50156118ae565b90506020813d8211611e5d575b81611e4660209383612686565b8101031261094057611e5790613379565b38611e25565b3d9150611e39565b503461026b5760208060031936011261094057600435906001600160401b038211610944573660238301121561094457816004013591611ea4836126a7565b92611eb26040519485612686565b80845260248385019160061b83010191368311610d3557602401905b828210611f0d57505050815191835b838110611eea5784604051f35b80611f07611efa60019385612bdd565b5185815191015190612cf8565b01611edd565b604082360312610d3557836040918251611f2681612619565b843581528285013583820152815201910190611ece565b503461026b57602036600319011261026b576020906040906001600160a01b03611f65612591565b168152600e83522054604051908152f35b503461026b57602036600319011261026b57611f90612591565b611f98614145565b6009546001600160a01b0390811691839190833b1561094457829160248392604051948593849263036129cb60e61b845216978860048401525af1801561034d5761200f575b50507fe7784d93cfbfa4408e19577e6cc0436f4dbb51214b70e100905dfce9def88c166020604051338152a2604051f35b61201890612606565b610940578138611fde565b503461026b57612032366125d1565b9061203d823361312a565b1561204b5761021292613386565b60405163e5fa0e3560e01b8152600490fd5b503461026b57604036600319011261026b576001600160401b036004358181116109445736602382011215610944578060040135918083116109c75760249061012090368383870286010111610d35578235818111610d315736602382011215610d31578060040135918211610d315760059082821b9036868383010111610c59576120e7614145565b836121fd575b50505050836120fd575b84604051f35b60095460405163d0cf48a560e01b81526020600482015283810186905290869082906001600160a01b031660448201878701845b878b82106121d9575050508383809203925af19081156121ce5786916121b4575b50855b8581106121635750506120f7565b8061217060019284612bdd565b517f9c1ee455d7c9ab291045babfeef5ef20cea4d096dc64c4b2b29977289b4b06416101406040516121a8818a8a88028d0101612bf1565b3388820152a201612155565b6121c891503d8088833e6108438183612686565b38612152565b6040513d88823e3d90fd5b91945092945080826121ed60019487612bf1565b0193019101918993918593612131565b6009546001600160a01b031691823b15611895576040516320512ba160e01b81526020600482018190528882018790529390918b916001600160fb1b0388116109445783836044828581968f8b018484013781010301925af180156122bf576122ac575b50885b84811061227157506120ed565b6001906040513381527f832d89d991be5351d793c20faf4b7dd44f8aa9ce39e3cb160c6317de6fbba729858a84891b8701013592a201612264565b6122b890999199612606565b9738612261565b6040513d8c823e3d90fd5b503461026b57604036600319011261026b576122e4612591565b6024356001600160a01b0380806122fa84613046565b1693169280841461238857803314159081612366575b5061204b5781845260036020526040842080546001600160a01b0319168417905561233a82613046565b1691604051927f8c5be1e5ebec7d5bd14f71427d1e84f3dd0314c0f7b2291e5b200ac8c7c3b9258585a4f35b9050845260046020526040842033855260205260ff6040852054161538612310565b60405163133f8be960e01b8152600490fd5b503461026b57602036600319011261026b5760206116ba6004356130b3565b503461026b578060031936011261026b57604051908080546123da81613079565b808552916001918083169081156114d25750600114612403576103268561115781870382612686565b808094505260008051602061432b8339815191525b8284106124335750505081016020016111578261032661147a565b80546020858701810191909152909301928101612418565b9050346109405760203660031901126109405760043563ffffffff60e01b81168091036109445760209250635e55854560e01b811490811561248f575b5015158152f35b63b3bcbb7960e01b811491508115612523575b8115612512575b8115612501575b81156124be575b5038612488565b6380ac58cd60e01b8114915081156124f0575b81156124df575b50386124b7565b6301ffc9a760e01b149050386124d8565b635b5e139f60e01b811491506124d1565b632b13c58f60e01b811491506124b0565b63da9ee8b760e01b811491506124a9565b6371700c6960e01b811491506124a2565b35906001600160e01b031982168203610c5d57565b60005b83811061255c5750506000910152565b818101518382015260200161254c565b9060209161258581518092818552858086019101612549565b601f01601f1916010190565b600435906001600160a01b0382168203610c5d57565b602435906001600160a01b0382168203610c5d57565b35906001600160a01b0382168203610c5d57565b6060906003190112610c5d576001600160a01b03906004358281168103610c5d57916024359081168103610c5d579060443590565b6001600160401b038111610d1357604052565b604081019081106001600160401b03821117610d1357604052565b608081019081106001600160401b03821117610d1357604052565b61014081019081106001600160401b03821117610d1357604052565b602081019081106001600160401b03821117610d1357604052565b90601f801991011681019081106001600160401b03821117610d1357604052565b6001600160401b038111610d135760051b60200190565b60031990602081830112610c5d57600435916001600160401b038311610c5d57826101e092030112610c5d5760040190565b81601f82011215610c5d57803591612707836126a7565b926127156040519485612686565b808452602092838086019260051b820101928311610c5d578301905b82821061273f575050505090565b813561ffff81168103610c5d578152908301908301612731565b90815180825260208080930193019160005b828110612779575050505090565b83518552938101939281019260010161276b565b6001600160401b038111610d1357601f01601f191660200190565b9291926127b48261278d565b916127c26040519384612686565b829481845281830111610c5d578281602093846000960137010152565b9080601f83011215610c5d578160206127fa933591016127a8565b90565b35908115158203610c5d57565b51906001600160a01b0382168203610c5d57565b6009546040516308ed6c0160e41b8152306004820152602481018390526001600160a01b0392916020908290604490829087165afa908115611ab457600091612883575b5082811661287d575060005260026020526040600020541690565b91505090565b906020823d82116128b4575b8161289c60209383612686565b8101031261026b57506128ae9061280a565b38612862565b3d915061288f565b602081830312610c5d578051906001600160401b038211610c5d570181601f82011215610c5d5780516128ee8161278d565b926128fc6040519485612686565b81845260208284010111610c5d576127fa9160208085019101612549565b60008181526020906002825260018060a01b0360409381858420541615612b22578160095416918551630fab094760e01b81523060048201528581602481875afa908115612b18578591612ae2575b501680612ab15750845163f682eeaf60e01b8152306004820152908382602481865afa918215612aa7579085918593612a89575b508651630c8df17160e41b81523060048201526024810191909152919282908180604481015b03915afa938415612a7f578394612a4d575b50506129fd82918551948592839263030cecc760e01b8452886004850152604484019061256c565b906024830152038173__$2e464bbf4a8803569df10b07372aceee57$__5af4928315612a4357508092612a2f57505090565b6127fa92503d8091833e61033e8183612686565b51903d90823e3d90fd5b9080929450813d8311612a78575b612a658183612686565b810103126109405751916129fd826129d5565b503d612a5b565b85513d85823e3d90fd5b6129c39350612aa1903d8088833e61033e8183612686565b9261299d565b86513d86823e3d90fd5b93508291506024855180958193636d02a25560e11b835260048301525afa928315612a4357508092612a2f57505090565b90508581813d8311612b11575b612af98183612686565b81010312610a4a57518181168103610a4a5738612969565b503d612aef565b87513d87823e3d90fd5b50509190505190612b328261266b565b815290565b81601f82011215610c5d57805191612b4e836126a7565b92612b5c6040519485612686565b808452602092838086019260051b820101928311610c5d578301905b828210612b86575050505090565b81518152908301908301612b78565b90602082820312610c5d5781516001600160401b038111610c5d576127fa9201612b37565b805115612bc75760200190565b634e487b7160e01b600052603260045260246000fd5b8051821015612bc75760209160051b010190565b803582526020810135602083015260408101356040830152606081013560608301526080810135608083015260018060a01b03612c3060a083016125bd565b1660a083015260c081013560c0830152612c4c60e082016127fd565b151560e0830152612c616101008092016127fd565b1515910152565b80916101209283910312610c5d576040519182018281106001600160401b03821117610d1357604052805182526020810151602083015260408101516040830152606081015160608301526080810151608083015260a081015160a083015260c081015160c083015260e081015160018060a01b0381168103610c5d5760e0830152610100809101519082015290565b600a54600554604080516321d1336160e11b815260048101929092526101209594939290916001600160a01b039187908290602490829086165afa908115612ec9576101009697600092612eac575b5050600180968192015160f51c1614612e9b5790816000809493600954166044845180978193635d53f40760e11b83528860048401528a60248401525af1938415612e9057600094612e75575b5060095482516304db994760e21b815230600482015260248101859052946020929183908790604490829086165afa958615612e6a57600096612e33575b5060005b878110612de857505050505050505050565b80612df48a9284612bdd565b51612dff818a613198565b878751913383527f031e1988c95a91ec4d655ff63a8f87a80bc9daf28d95ae10ee08c0022cfb5c8b88888d1694a401612dd6565b90958382813d8311612e63575b612e4a8183612686565b8101031261026b5750612e5c9061280a565b9438612dd2565b503d612e40565b84513d6000823e3d90fd5b612e8991943d8091833e6108438183612686565b9238612d94565b82513d6000823e3d90fd5b8151631d2c125760e31b8152600490fd5b612ec29250803d10611ceb57611cdb8183612686565b3880612d47565b83513d6000823e3d90fd5b90612edd614145565b6009546040805163eaa19ab360e01b8152600019600482015260606024820152845160648201819052909460848601946001600160a01b0394602094919388918716908685019060005b818110612ffb575050509060009181838160019b8c604483015203925af1968715612ff057600097612fcc575b5081519460005b868110612f6d57505050505050505090565b80612f7989928b612bdd565b51612f848188613198565b61ffff612f918388612bdd565b511685519160008352338a8401527f598baf7bf150ca2f42be9e9f8f55e81d45f5715c3ff22bf46d697fabec7f31d687878b1694a401612f5b565b612fe891973d8091833e612fe08183612686565b810190613016565b509538612f54565b50513d6000823e3d90fd5b825161ffff168b52998801998b945091880191600101612f27565b9190604083820312610c5d5782516001600160401b038111610c5d57602091613040918501612b37565b92015190565b6000908152600260205260409020546001600160a01b031680156130675790565b60405163b49aa3b560e01b8152600490fd5b90600182811c921680156130a9575b602083101461309357565b634e487b7160e01b600052602260045260246000fd5b91607f1691613088565b6000818152600260205260409020546001600160a01b031615613067576000908152600360205260409020546001600160a01b031690565b9291906130f8823361312a565b1561204b578361310c838361311197613386565b6137cf565b1561311857565b6040516336f57c1b60e11b8152600490fd5b906001600160a01b03808061313e84613046565b16931691838314938415613171575b50831561315b575b50505090565b613167919293506130b3565b1614388080613155565b909350600052600460205260406000208260005260205260ff60406000205416923861314d565b6001600160a01b039081168015613367576000838152600260205260409020546001600160a01b0316613355576000908382526002602052613245604093848420836001600160601b0360a01b8254161790558451908684867fddf252ad1be2c89b69c2b068fc378daa952ba7f163c4a11628f55a4df523b3ef8186a460095463b67cb04760e01b8352306004840152602483019790975290951694610140918290829081906044820190565b0381895afa91821561334b5784926132a6575b505051843b1561094457906064839283865197889485936330b157e560e21b8552600485015282602485015260448401525af1918215612a4357505061329b5750565b6132a490612606565b565b90809250813d8311613344575b6132bd8183612686565b81010312610944578351906132d18261264f565b80518252602081015160208301528481015185830152606081015160608301526080810151608083015260a081015160a083015260c081015160c083015261331b60e0820161280a565b60e08301526101008082015190830152613339610120809201613379565b908201523880613258565b503d6132b3565b85513d86823e3d90fd5b604051632eb5f0c360e21b8152600490fd5b604051633904578f60e11b8152600490fd5b51908115158203610c5d57565b9161339081613046565b6001600160a01b03928484169184168290036137675783169384156137555781613545575b506133bf82613779565b600091808352600260205261343f604094858520876001600160601b0360a01b8254161790558551908388867fddf252ad1be2c89b69c2b068fc378daa952ba7f163c4a11628f55a4df523b3ef8986a460095463b67cb04760e01b8352306004840152602483019490945290921691610140918290829081906044820190565b0381865afa91821561353b578592613496575b50505190803b156109c75783929183606492875198899586946330b157e560e21b86526004860152602485015260448401525af1918215612a4357505061329b5750565b90809250813d8311613534575b6134ad8183612686565b810103126109c7578451906134c18261264f565b80518252602081015160208301528581015186830152606081015160608301526080810151608083015260a081015160a083015260c081015160c083015261350b60e0820161280a565b60e08301526101008082015190830152613529610120809201613379565b908201523880613452565b503d6134a3565b86513d87823e3d90fd5b83600954166040908151634228826f60e11b8152306004820152608081602481855afa8015612ec9576000906136df575b606091500151613665575b81516308ed6c0160e41b815230600482015260248101869052602081604481855afa908115612ec95790879160009161362a575b5016156135c4575b50506133b5565b803b15610c5d578151638cec7d3960e01b8152600481018690526001600160a01b039390931660248401526000908390604490829084905af19081156136205750613611575b80806135bd565b61361a90612606565b3861360a565b513d6000823e3d90fd5b91506020823d821161365d575b8161364460209383612686565b8101031261026b5750613657879161280a565b386135b5565b3d9150613637565b85600a541660055483519182916321d1336160e11b835260048301528160246101209485935afa918215612e6a576001928392610100926000926136c2575b5050015160f41c16036135815781516318cdaf9760e01b8152600490fd5b6136d89250803d10611ceb57611cdb8183612686565b38806136a4565b6080823d821161374d575b816136f760809383612686565b8101031261026b57506060906137448285519261371384612634565b61371c81613379565b845261372a60208201613379565b602085015261373a878201613379565b8785015201613379565b82820152613576565b3d91506136ea565b604051632c95542760e01b8152600490fd5b60405163a195bc5360e01b8152600490fd5b600081815260036020526040812080546001600160a01b03191690556001600160a01b036137a683613046565b167f8c5be1e5ebec7d5bd14f71427d1e84f3dd0314c0f7b2291e5b200ac8c7c3b92582604051a4565b9293600093909291803b156138de579484916138299660405180948193630a85bd0160e11b9788845233600485015260018060a01b0380921660248501526044840152608060648401528260209b8c97608483019061256c565b0393165af184918161389e575b5061388d575050503d600014613885573d6138508161278d565b9061385e6040519283612686565b81528091833d92013e5b80519182613882576040516336f57c1b60e11b8152600490fd5b01fd5b506060613868565b6001600160e01b0319161492509050565b9091508581813d83116138d7575b6138b68183612686565b81010312610a4a57516001600160e01b031981168103610a4a579038613836565b503d6138ac565b505050915050600190565b903590601e1981360301821215610c5d57018035906001600160401b038211610c5d57602001918136038313610c5d57565b9190604083820312610c5d5761393083612534565b9260209081810135906001600160401b038211610c5d57019180601f84011215610c5d57823561395f816126a7565b9361396d6040519586612686565b818552838086019260051b820101928311610c5d578301905b828210613994575050505090565b81358152908301908301613986565b919082018092116139b057565b634e487b7160e01b600052601160045260246000fd5b906080820135613c4c576101c082016139df81846138e9565b905060048091108015613c21575b613c125760408051926139ff84612619565b6001845260005b602080821015613a3457835160209291613a1f82612619565b60008252600081830152828801015201613a06565b50509392918294825190613a4782612619565b308252602091600083820152613a5c86612bba565b52613a6685612bba565b50610180880135948515613bed575090613a896118e5613ac2969594938a6138e9565b600954855163051330b560e21b8152308682015260248101879052976001600160a01b0390911692508391889182916044830190612759565b0381845afa958615612e6a57600096613bbe575b509080602492855193848092631572f24960e11b825230888301525afa9384156136205750600093613b8d575b5050613b14828560c08a0135614270565b9361271091828514613b7557848303928311613b605750610f2493613b44613b5094613b5c9794613b4a94614270565b906139a3565b906141e8565b946101a08101906138e9565b9190565b601190634e487b7160e01b6000525260246000fd5b505050505092610f24816101a0613b5c9301906138e9565b8181949293943d8311613bb7575b613ba58183612686565b8101031261026b575051903880613b03565b503d613b9b565b90958282813d8311613be6575b613bd58183612686565b8101031261026b5750519481613ad6565b503d613bcb565b96505050505050613c06836101a0613b5c9501906138e9565b939060009436916127a8565b604051632a84050f60e01b8152fd5b50613c2c82856138e9565b8211610c5d57356001600160e01b03191663b3bcbb7960e01b14156139ed565b6040516309f82f1b60e31b8152600490fd5b356001600160a01b0381168103610c5d5790565b600060c082013590600c54808314600014613f6d575050506080810135905b61018081016001600160a01b0380613ca883613c5e565b16600052602091600e8352604093613cc5856000205480976139a3565b60009081926101e08101906024613cdc83836138e9565b90501180613f40575b613d7a575b50508015613d6a5790613d0691613d0085613c5e565b90614032565b958615613d3b5750613d2a5790613d1f600e9392613c5e565b166000525260002055565b8351631b57826960e21b8152600490fd5b919392955050613d4c575b50505050565b600093613d5a600e93613c5e565b1684525281205538808080613d46565b505050919093613d4c5750505050565b613d86929394506138e9565b8101919060c0818403126109c757613d9f878201612534565b50613dab8882016127fd565b92613db8606083016127fd565b94613dc5608084016127fd565b9260a0810135916001600160401b03831161026b5750613de69291016126f0565b909392613f35578051613dfa575b80613cea565b613e0385613c5e565b9086600954169189519263eaa19ab360e01b8452836064810186600483015260606024830152845180915260848201908c8601908d6000905b828210613f1957505050509181600081819582604483015203925af1938415613f0e576000938495613eed575b50835193828a1693908c60005b878110613e8b57505050505050505038613df4565b86600192613e998386612bdd565b51613ea4818a613198565b7f598baf7bf150ca2f42be9e9f8f55e81d45f5715c3ff22bf46d697fabec7f31d661ffff613ed2868a612bdd565b5193518a8152336020820152931692604090a4018d90613e76565b909450613f0491933d8091833e612fe08183612686565b9290929338613e69565b8a513d6000823e3d90fd5b835161ffff16855289955093840193909201916001018e613e3c565b505050505050505050565b50613f4b82826138e9565b602411610a4a578801356001600160e01b03191663b3bcbb7960e01b14613ce5565b600b546001600160a01b031690811561402b57600d5493604d8511614017579060646020926040519485938492635268657960e11b84526004840152602483015260a089013560448301525afa918215611618578092613fe1575b5050613fdb91600a0a6080840135614270565b90613c91565b9091506020823d821161400f575b81613ffc60209383612686565b8101031261026b575051613fdb38613fc8565b3d9150613fef565b634e487b7160e01b84526011600452602484fd5b5050505050565b9092919260018060a01b038060095416906040519263879791f360e01b8452846004850152606084602481600080975af192831561161857809381958291614102575b50809885156140df57505061408a8483613198565b8786039586116140cb5750604080519586523360208701529116937f598baf7bf150ca2f42be9e9f8f55e81d45f5715c3ff22bf46d697fabec7f31d69190a4565b634e487b7160e01b81526011600452602490fd5b965096975050505050506140f05790565b604051630e5313df60e41b8152600490fd5b94505093506060833d821161413d575b8161411f60609383612686565b810103126109c7578251936040602085015194015194939438614075565b3d9150614112565b6007546001600160a01b0316330361415957565b606460405162461bcd60e51b815260206004820152602060248201527f4f776e61626c653a2063616c6c6572206973206e6f7420746865206f776e65726044820152fd5b6007549060018060a01b0380911691826001600160601b0360a01b821617600755167f8be0079c531659141344cd1fd0a4f28419497f9722a3daafe3b4186f6b6457e06000604051a3565b919060001981840981840291828083109203918083039214614265576127109081831015614247577fbc01a36e2eb1c432ca57a786c226809d495182a9930be0ded288ce703afb7e9194950990828211900360fc1b910360041c170290565b6044838360405191631dcf306360e21b835260048301526024820152fd5b505061271090049150565b9091600019838309928083029283808610950394808603951461430657828510156142e857908291096001821901821680920460028082600302188083028203028083028203028083028203028083028203028083028203028092029003029360018380600003040190848311900302920304170290565b6044858460405191631dcf306360e21b835260048301526024820152fd5b505080925015614314570490565b634e487b7160e01b600052601260045260246000fdfe290decd9548b62a8d60345a988386fc84ba6bc95484008f6362f93160ef3e563b10e2d527612073b26eecdfd717e6a320cf44b4afac2b0732d9fcbe2b7fa0cf6a264697066735822122048ab1a00c791bdeea1946416952bdd949128f741624f1d1f4a4d926398f653a064736f6c63430008100033",
    "linkReferences": {
      "contracts/libraries/JBIpfsDecoder.sol": {
        "JBIpfsDecoder": [
          {
            "start": 10866,
            "length": 20
          }
        ]
      }
    }
  },
  "methodIdentifiers": {
    "adjustTiers((uint256,uint256,uint256,uint256,uint256,address,bytes32,bool,bool)[],uint256[])": "211eb001",
    "approve(address,uint256)": "095ea7b3",
    "balanceOf(address)": "70a08231",
    "contractURI()": "e8a3d485",
    "creditsOf(address)": "245a45b5",
    "didPay((address,uint256,uint256,(address,uint256,uint256,uint256),(address,uint256,uint256,uint256),uint256,address,bool,string,bytes))": "da9ee8b7",
    "didRedeem((address,uint256,uint256,uint256,(address,uint256,uint256,uint256),(address,uint256,uint256,uint256),address,string,bytes))": "2b13c58f",
    "directory()": "c41c2f24",
    "firstOwnerOf(uint256)": "54c6d1f5",
    "fundingCycleStore()": "557e7155",
    "getApproved(uint256)": "081812fc",
    "initialize(uint256,address,string,string,address,string,address,string,((uint256,uint256,uint256,uint256,uint256,address,bytes32,bool,bool)[],uint256,uint256,address),address,(bool,bool,bool,bool))": "dfedb3af",
    "isApprovedForAll(address,address)": "e985e9c5",
    "mintFor((uint16[],address)[])": "36c1a93b",
    "mintFor(uint16[],address)": "6ac6d941",
    "mintReservesFor((uint256,uint256)[])": "2a596e53",
    "mintReservesFor(uint256,uint256)": "aa4fb15b",
    "name()": "06fdde03",
    "owner()": "8da5cb5b",
    "ownerOf(uint256)": "6352211e",
    "payParams((address,address,(address,uint256,uint256,uint256),uint256,uint256,address,uint256,uint256,string,bytes))": "d46cf171",
    "prices()": "d3419bf3",
    "pricingCurrency()": "64640c1e",
    "pricingDecimals()": "4ecba625",
    "projectId()": "3fafa127",
    "redeemParams((address,address,uint256,uint256,uint256,uint256,uint256,(address,uint256,uint256,uint256),bool,uint256,string,bytes))": "a51cfd18",
    "renounceOwnership()": "715018a6",
    "safeTransferFrom(address,address,uint256)": "42842e0e",
    "safeTransferFrom(address,address,uint256,bytes)": "b88d4fde",
    "setApprovalForAll(address,bool)": "a22cb465",
    "setBaseUri(string)": "a0bcfc7f",
    "setContractUri(string)": "ccb4807b",
    "setDefaultReservedTokenBeneficiary(address)": "df487e26",
    "setTokenUriResolver(address)": "2407497e",
    "store()": "975057e7",
    "supportsInterface(bytes4)": "01ffc9a7",
    "symbol()": "95d89b41",
    "tokenURI(uint256)": "c87b56dd",
    "transferFrom(address,address,uint256)": "23b872dd",
    "transferOwnership(address)": "f2fde38b"
  },
  "id": 2
}