{
  "abi": [
    {
      "inputs": [
        {
          "internalType": "contract IJBProjects",
          "name": "_projects",
          "type": "address"
        },
        {
          "internalType": "contract IJBOperatorStore",
          "name": "_operatorStore",
          "type": "address"
        }
      ],
      "stateMutability": "nonpayable",
      "type": "constructor"
    },
    {
      "inputs": [],
      "name": "ALEADY_MINTED",
      "type": "error"
    },
    {
      "inputs": [],
      "name": "APPROVAL_TO_CURRENT_OWNER",
      "type": "error"
    },
    {
      "inputs": [],
      "name": "APPROVE_TO_CALLER",
      "type": "error"
    },
    {
      "inputs": [],
      "name": "CALLER_NOT_OWNER_OR_APPROVED",
      "type": "error"
    },
    {
      "inputs": [],
      "name": "INCORRECT_OWNER",
      "type": "error"
    },
    {
      "inputs": [
        {
          "internalType": "address",
          "name": "ownerAddress",
          "type": "address"
        },
        {
          "internalType": "uint256",
          "name": "projectId",
          "type": "uint256"
        }
      ],
      "name": "INVALID_NEW_OWNER",
      "type": "error"
    },
    {
      "inputs": [],
      "name": "INVALID_PAYMENT_EVENT",
      "type": "error"
    },
    {
      "inputs": [],
      "name": "INVALID_REDEMPTION_EVENT",
      "type": "error"
    },
    {
      "inputs": [],
      "name": "INVALID_REDEMPTION_METADATA",
      "type": "error"
    },
    {
      "inputs": [],
      "name": "INVALID_TOKEN_ID",
      "type": "error"
    },
    {
      "inputs": [],
      "name": "MINT_TO_ZERO",
      "type": "error"
    },
    {
      "inputs": [],
      "name": "OVERSPENDING",
      "type": "error"
    },
    {
      "inputs": [
        {
          "internalType": "uint256",
          "name": "prod1",
          "type": "uint256"
        },
        {
          "internalType": "uint256",
          "name": "denominator",
          "type": "uint256"
        }
      ],
      "name": "PRBMath__MulDivOverflow",
      "type": "error"
    },
    {
      "inputs": [],
      "name": "RESERVED_TOKEN_MINTING_PAUSED",
      "type": "error"
    },
    {
      "inputs": [],
      "name": "TRANSFERS_PAUSED",
      "type": "error"
    },
    {
      "inputs": [],
      "name": "TRANSFER_TO_NON_IMPLEMENTER",
      "type": "error"
    },
    {
      "inputs": [],
      "name": "TRANSFER_TO_ZERO_ADDRESS",
      "type": "error"
    },
    {
      "inputs": [],
      "name": "UNAUTHORIZED",
      "type": "error"
    },
    {
      "inputs": [
        {
          "internalType": "uint256",
          "name": "_tokenId",
          "type": "uint256"
        }
      ],
      "name": "UNAUTHORIZED_TOKEN",
      "type": "error"
    },
    {
      "inputs": [],
      "name": "UNEXPECTED_TOKEN_REDEEMED",
      "type": "error"
    },
    {
      "anonymous": false,
      "inputs": [
        {
          "indexed": true,
          "internalType": "uint256",
          "name": "changeAmount",
          "type": "uint256"
        },
        {
          "indexed": true,
          "internalType": "uint256",
          "name": "newTotalCredits",
          "type": "uint256"
        },
        {
          "indexed": true,
          "internalType": "address",
          "name": "account",
          "type": "address"
        },
        {
          "indexed": false,
          "internalType": "address",
          "name": "caller",
          "type": "address"
        }
      ],
      "name": "AddCredits",
      "type": "event"
    },
    {
      "anonymous": false,
      "inputs": [
        {
          "indexed": true,
          "internalType": "uint256",
          "name": "tierId",
          "type": "uint256"
        },
        {
          "components": [
            {
              "internalType": "uint104",
              "name": "price",
              "type": "uint104"
            },
            {
              "internalType": "uint32",
              "name": "initialQuantity",
              "type": "uint32"
            },
            {
              "internalType": "uint32",
              "name": "votingUnits",
              "type": "uint32"
            },
            {
              "internalType": "uint16",
              "name": "reservedRate",
              "type": "uint16"
            },
            {
              "internalType": "address",
              "name": "reservedTokenBeneficiary",
              "type": "address"
            },
            {
              "internalType": "bytes32",
              "name": "encodedIPFSUri",
              "type": "bytes32"
            },
            {
              "internalType": "uint24",
              "name": "category",
              "type": "uint24"
            },
            {
              "internalType": "bool",
              "name": "allowManualMint",
              "type": "bool"
            },
            {
              "internalType": "bool",
              "name": "shouldUseReservedTokenBeneficiaryAsDefault",
              "type": "bool"
            },
            {
              "internalType": "bool",
              "name": "transfersPausable",
              "type": "bool"
            },
            {
              "internalType": "bool",
              "name": "useVotingUnits",
              "type": "bool"
            }
          ],
          "indexed": false,
          "internalType": "struct JB721TierParams",
          "name": "data",
          "type": "tuple"
        },
        {
          "indexed": false,
          "internalType": "address",
          "name": "caller",
          "type": "address"
        }
      ],
      "name": "AddTier",
      "type": "event"
    },
    {
      "anonymous": false,
      "inputs": [
        {
          "indexed": true,
          "internalType": "address",
          "name": "owner",
          "type": "address"
        },
        {
          "indexed": true,
          "internalType": "address",
          "name": "approved",
          "type": "address"
        },
        {
          "indexed": true,
          "internalType": "uint256",
          "name": "tokenId",
          "type": "uint256"
        }
      ],
      "name": "Approval",
      "type": "event"
    },
    {
      "anonymous": false,
      "inputs": [
        {
          "indexed": true,
          "internalType": "address",
          "name": "owner",
          "type": "address"
        },
        {
          "indexed": true,
          "internalType": "address",
          "name": "operator",
          "type": "address"
        },
        {
          "indexed": false,
          "internalType": "bool",
          "name": "approved",
          "type": "bool"
        }
      ],
      "name": "ApprovalForAll",
      "type": "event"
    },
    {
      "anonymous": false,
      "inputs": [
        {
          "indexed": true,
          "internalType": "uint256",
          "name": "tokenId",
          "type": "uint256"
        },
        {
          "indexed": true,
          "internalType": "uint256",
          "name": "tierId",
          "type": "uint256"
        },
        {
          "indexed": true,
          "internalType": "address",
          "name": "beneficiary",
          "type": "address"
        },
        {
          "indexed": false,
          "internalType": "uint256",
          "name": "totalAmountContributed",
          "type": "uint256"
        },
        {
          "indexed": false,
          "internalType": "address",
          "name": "caller",
          "type": "address"
        }
      ],
      "name": "Mint",
      "type": "event"
    },
    {
      "anonymous": false,
      "inputs": [
        {
          "indexed": true,
          "internalType": "uint256",
          "name": "tokenId",
          "type": "uint256"
        },
        {
          "indexed": true,
          "internalType": "uint256",
          "name": "tierId",
          "type": "uint256"
        },
        {
          "indexed": true,
          "internalType": "address",
          "name": "beneficiary",
          "type": "address"
        },
        {
          "indexed": false,
          "internalType": "address",
          "name": "caller",
          "type": "address"
        }
      ],
      "name": "MintReservedToken",
      "type": "event"
    },
    {
      "anonymous": false,
      "inputs": [
        {
          "indexed": true,
          "internalType": "address",
          "name": "previousOwner",
          "type": "address"
        },
        {
          "indexed": true,
          "internalType": "address",
          "name": "newOwner",
          "type": "address"
        }
      ],
      "name": "OwnershipTransferred",
      "type": "event"
    },
    {
      "anonymous": false,
      "inputs": [
        {
          "indexed": false,
          "internalType": "uint8",
          "name": "newIndex",
          "type": "uint8"
        }
      ],
      "name": "PermissionIndexChanged",
      "type": "event"
    },
    {
      "anonymous": false,
      "inputs": [
        {
          "indexed": true,
          "internalType": "uint256",
          "name": "tierId",
          "type": "uint256"
        },
        {
          "indexed": false,
          "internalType": "address",
          "name": "caller",
          "type": "address"
        }
      ],
      "name": "RemoveTier",
      "type": "event"
    },
    {
      "anonymous": false,
      "inputs": [
        {
          "indexed": true,
          "internalType": "string",
          "name": "baseUri",
          "type": "string"
        },
        {
          "indexed": false,
          "internalType": "address",
          "name": "caller",
          "type": "address"
        }
      ],
      "name": "SetBaseUri",
      "type": "event"
    },
    {
      "anonymous": false,
      "inputs": [
        {
          "indexed": true,
          "internalType": "string",
          "name": "contractUri",
          "type": "string"
        },
        {
          "indexed": false,
          "internalType": "address",
          "name": "caller",
          "type": "address"
        }
      ],
      "name": "SetContractUri",
      "type": "event"
    },
    {
      "anonymous": false,
      "inputs": [
        {
          "indexed": true,
          "internalType": "uint256",
          "name": "tierId",
          "type": "uint256"
        },
        {
          "indexed": false,
          "internalType": "bytes32",
          "name": "encodedIPFSUri",
          "type": "bytes32"
        },
        {
          "indexed": false,
          "internalType": "address",
          "name": "caller",
          "type": "address"
        }
      ],
      "name": "SetEncodedIPFSUri",
      "type": "event"
    },
    {
      "anonymous": false,
      "inputs": [
        {
          "indexed": true,
          "internalType": "contract IJB721TokenUriResolver",
          "name": "newResolver",
          "type": "address"
        },
        {
          "indexed": false,
          "internalType": "address",
          "name": "caller",
          "type": "address"
        }
      ],
      "name": "SetTokenUriResolver",
      "type": "event"
    },
    {
      "anonymous": false,
      "inputs": [
        {
          "indexed": true,
          "internalType": "address",
          "name": "from",
          "type": "address"
        },
        {
          "indexed": true,
          "internalType": "address",
          "name": "to",
          "type": "address"
        },
        {
          "indexed": true,
          "internalType": "uint256",
          "name": "tokenId",
          "type": "uint256"
        }
      ],
      "name": "Transfer",
      "type": "event"
    },
    {
      "anonymous": false,
      "inputs": [
        {
          "indexed": true,
          "internalType": "uint256",
          "name": "changeAmount",
          "type": "uint256"
        },
        {
          "indexed": true,
          "internalType": "uint256",
          "name": "newTotalCredits",
          "type": "uint256"
        },
        {
          "indexed": true,
          "internalType": "address",
          "name": "account",
          "type": "address"
        },
        {
          "indexed": false,
          "internalType": "address",
          "name": "caller",
          "type": "address"
        }
      ],
      "name": "UseCredits",
      "type": "event"
    },
    {
      "inputs": [
        {
          "components": [
            {
              "internalType": "uint104",
              "name": "price",
              "type": "uint104"
            },
            {
              "internalType": "uint32",
              "name": "initialQuantity",
              "type": "uint32"
            },
            {
              "internalType": "uint32",
              "name": "votingUnits",
              "type": "uint32"
            },
            {
              "internalType": "uint16",
              "name": "reservedRate",
              "type": "uint16"
            },
            {
              "internalType": "address",
              "name": "reservedTokenBeneficiary",
              "type": "address"
            },
            {
              "internalType": "bytes32",
              "name": "encodedIPFSUri",
              "type": "bytes32"
            },
            {
              "internalType": "uint24",
              "name": "category",
              "type": "uint24"
            },
            {
              "internalType": "bool",
              "name": "allowManualMint",
              "type": "bool"
            },
            {
              "internalType": "bool",
              "name": "shouldUseReservedTokenBeneficiaryAsDefault",
              "type": "bool"
            },
            {
              "internalType": "bool",
              "name": "transfersPausable",
              "type": "bool"
            },
            {
              "internalType": "bool",
              "name": "useVotingUnits",
              "type": "bool"
            }
          ],
          "internalType": "struct JB721TierParams[]",
          "name": "_tiersToAdd",
          "type": "tuple[]"
        },
        {
          "internalType": "uint256[]",
          "name": "_tierIdsToRemove",
          "type": "uint256[]"
        }
      ],
      "name": "adjustTiers",
      "outputs": [],
      "stateMutability": "nonpayable",
      "type": "function"
    },
    {
      "inputs": [
        {
          "internalType": "address",
          "name": "to",
          "type": "address"
        },
        {
          "internalType": "uint256",
          "name": "tokenId",
          "type": "uint256"
        }
      ],
      "name": "approve",
      "outputs": [],
      "stateMutability": "nonpayable",
      "type": "function"
    },
    {
      "inputs": [
        {
          "internalType": "address",
          "name": "_owner",
          "type": "address"
        }
      ],
      "name": "balanceOf",
      "outputs": [
        {
          "internalType": "uint256",
          "name": "balance",
          "type": "uint256"
        }
      ],
      "stateMutability": "view",
      "type": "function"
    },
    {
      "inputs": [],
      "name": "baseURI",
      "outputs": [
        {
          "internalType": "string",
          "name": "",
          "type": "string"
        }
      ],
      "stateMutability": "view",
      "type": "function"
    },
    {
      "inputs": [],
      "name": "codeOrigin",
      "outputs": [
        {
          "internalType": "address",
          "name": "",
          "type": "address"
        }
      ],
      "stateMutability": "view",
      "type": "function"
    },
    {
      "inputs": [],
      "name": "contractURI",
      "outputs": [
        {
          "internalType": "string",
          "name": "",
          "type": "string"
        }
      ],
      "stateMutability": "view",
      "type": "function"
    },
    {
      "inputs": [
        {
          "internalType": "address",
          "name": "",
          "type": "address"
        }
      ],
      "name": "creditsOf",
      "outputs": [
        {
          "internalType": "uint256",
          "name": "",
          "type": "uint256"
        }
      ],
      "stateMutability": "view",
      "type": "function"
    },
    {
      "inputs": [
        {
          "components": [
            {
              "internalType": "address",
              "name": "payer",
              "type": "address"
            },
            {
              "internalType": "uint256",
              "name": "projectId",
              "type": "uint256"
            },
            {
              "internalType": "uint256",
              "name": "currentFundingCycleConfiguration",
              "type": "uint256"
            },
            {
              "components": [
                {
                  "internalType": "address",
                  "name": "token",
                  "type": "address"
                },
                {
                  "internalType": "uint256",
                  "name": "value",
                  "type": "uint256"
                },
                {
                  "internalType": "uint256",
                  "name": "decimals",
                  "type": "uint256"
                },
                {
                  "internalType": "uint256",
                  "name": "currency",
                  "type": "uint256"
                }
              ],
              "internalType": "struct JBTokenAmount",
              "name": "amount",
              "type": "tuple"
            },
            {
              "components": [
                {
                  "internalType": "address",
                  "name": "token",
                  "type": "address"
                },
                {
                  "internalType": "uint256",
                  "name": "value",
                  "type": "uint256"
                },
                {
                  "internalType": "uint256",
                  "name": "decimals",
                  "type": "uint256"
                },
                {
                  "internalType": "uint256",
                  "name": "currency",
                  "type": "uint256"
                }
              ],
              "internalType": "struct JBTokenAmount",
              "name": "forwardedAmount",
              "type": "tuple"
            },
            {
              "internalType": "uint256",
              "name": "projectTokenCount",
              "type": "uint256"
            },
            {
              "internalType": "address",
              "name": "beneficiary",
              "type": "address"
            },
            {
              "internalType": "bool",
              "name": "preferClaimedTokens",
              "type": "bool"
            },
            {
              "internalType": "string",
              "name": "memo",
              "type": "string"
            },
            {
              "internalType": "bytes",
              "name": "metadata",
              "type": "bytes"
            }
          ],
          "internalType": "struct JBDidPayData",
          "name": "_data",
          "type": "tuple"
        }
      ],
      "name": "didPay",
      "outputs": [],
      "stateMutability": "payable",
      "type": "function"
    },
    {
      "inputs": [
        {
          "components": [
            {
              "internalType": "address",
              "name": "holder",
              "type": "address"
            },
            {
              "internalType": "uint256",
              "name": "projectId",
              "type": "uint256"
            },
            {
              "internalType": "uint256",
              "name": "currentFundingCycleConfiguration",
              "type": "uint256"
            },
            {
              "internalType": "uint256",
              "name": "projectTokenCount",
              "type": "uint256"
            },
            {
              "components": [
                {
                  "internalType": "address",
                  "name": "token",
                  "type": "address"
                },
                {
                  "internalType": "uint256",
                  "name": "value",
                  "type": "uint256"
                },
                {
                  "internalType": "uint256",
                  "name": "decimals",
                  "type": "uint256"
                },
                {
                  "internalType": "uint256",
                  "name": "currency",
                  "type": "uint256"
                }
              ],
              "internalType": "struct JBTokenAmount",
              "name": "reclaimedAmount",
              "type": "tuple"
            },
            {
              "components": [
                {
                  "internalType": "address",
                  "name": "token",
                  "type": "address"
                },
                {
                  "internalType": "uint256",
                  "name": "value",
                  "type": "uint256"
                },
                {
                  "internalType": "uint256",
                  "name": "decimals",
                  "type": "uint256"
                },
                {
                  "internalType": "uint256",
                  "name": "currency",
                  "type": "uint256"
                }
              ],
              "internalType": "struct JBTokenAmount",
              "name": "forwardedAmount",
              "type": "tuple"
            },
            {
              "internalType": "address payable",
              "name": "beneficiary",
              "type": "address"
            },
            {
              "internalType": "string",
              "name": "memo",
              "type": "string"
            },
            {
              "internalType": "bytes",
              "name": "metadata",
              "type": "bytes"
            }
          ],
          "internalType": "struct JBDidRedeemData",
          "name": "_data",
          "type": "tuple"
        }
      ],
      "name": "didRedeem",
      "outputs": [],
      "stateMutability": "payable",
      "type": "function"
    },
    {
      "inputs": [],
      "name": "directory",
      "outputs": [
        {
          "internalType": "contract IJBDirectory",
          "name": "",
          "type": "address"
        }
      ],
      "stateMutability": "view",
      "type": "function"
    },
    {
      "inputs": [
        {
          "internalType": "uint256",
          "name": "_tokenId",
          "type": "uint256"
        }
      ],
      "name": "firstOwnerOf",
      "outputs": [
        {
          "internalType": "address",
          "name": "",
          "type": "address"
        }
      ],
      "stateMutability": "view",
      "type": "function"
    },
    {
      "inputs": [],
      "name": "fundingCycleStore",
      "outputs": [
        {
          "internalType": "contract IJBFundingCycleStore",
          "name": "",
          "type": "address"
        }
      ],
      "stateMutability": "view",
      "type": "function"
    },
    {
      "inputs": [
        {
          "internalType": "uint256",
          "name": "tokenId",
          "type": "uint256"
        }
      ],
      "name": "getApproved",
      "outputs": [
        {
          "internalType": "address",
          "name": "",
          "type": "address"
        }
      ],
      "stateMutability": "view",
      "type": "function"
    },
    {
      "inputs": [
        {
          "internalType": "uint256",
          "name": "_projectId",
          "type": "uint256"
        },
        {
          "internalType": "contract IJBDirectory",
          "name": "_directory",
          "type": "address"
        },
        {
          "internalType": "string",
          "name": "_name",
          "type": "string"
        },
        {
          "internalType": "string",
          "name": "_symbol",
          "type": "string"
        },
        {
          "internalType": "contract IJBFundingCycleStore",
          "name": "_fundingCycleStore",
          "type": "address"
        },
        {
          "internalType": "string",
          "name": "_baseUri",
          "type": "string"
        },
        {
          "internalType": "contract IJB721TokenUriResolver",
          "name": "_tokenUriResolver",
          "type": "address"
        },
        {
          "internalType": "string",
          "name": "_contractUri",
          "type": "string"
        },
        {
          "components": [
            {
              "components": [
                {
                  "internalType": "uint104",
                  "name": "price",
                  "type": "uint104"
                },
                {
                  "internalType": "uint32",
                  "name": "initialQuantity",
                  "type": "uint32"
                },
                {
                  "internalType": "uint32",
                  "name": "votingUnits",
                  "type": "uint32"
                },
                {
                  "internalType": "uint16",
                  "name": "reservedRate",
                  "type": "uint16"
                },
                {
                  "internalType": "address",
                  "name": "reservedTokenBeneficiary",
                  "type": "address"
                },
                {
                  "internalType": "bytes32",
                  "name": "encodedIPFSUri",
                  "type": "bytes32"
                },
                {
                  "internalType": "uint24",
                  "name": "category",
                  "type": "uint24"
                },
                {
                  "internalType": "bool",
                  "name": "allowManualMint",
                  "type": "bool"
                },
                {
                  "internalType": "bool",
                  "name": "shouldUseReservedTokenBeneficiaryAsDefault",
                  "type": "bool"
                },
                {
                  "internalType": "bool",
                  "name": "transfersPausable",
                  "type": "bool"
                },
                {
                  "internalType": "bool",
                  "name": "useVotingUnits",
                  "type": "bool"
                }
              ],
              "internalType": "struct JB721TierParams[]",
              "name": "tiers",
              "type": "tuple[]"
            },
            {
              "internalType": "uint48",
              "name": "currency",
              "type": "uint48"
            },
            {
              "internalType": "uint48",
              "name": "decimals",
              "type": "uint48"
            },
            {
              "internalType": "contract IJBPrices",
              "name": "prices",
              "type": "address"
            }
          ],
          "internalType": "struct JB721PricingParams",
          "name": "_pricing",
          "type": "tuple"
        },
        {
          "internalType": "contract IJBTiered721DelegateStore",
          "name": "_store",
          "type": "address"
        },
        {
          "components": [
            {
              "internalType": "bool",
              "name": "lockReservedTokenChanges",
              "type": "bool"
            },
            {
              "internalType": "bool",
              "name": "lockVotingUnitChanges",
              "type": "bool"
            },
            {
              "internalType": "bool",
              "name": "lockManualMintingChanges",
              "type": "bool"
            },
            {
              "internalType": "bool",
              "name": "preventOverspending",
              "type": "bool"
            }
          ],
          "internalType": "struct JBTiered721Flags",
          "name": "_flags",
          "type": "tuple"
        }
      ],
      "name": "initialize",
      "outputs": [],
      "stateMutability": "nonpayable",
      "type": "function"
    },
    {
      "inputs": [
        {
          "internalType": "address",
          "name": "owner",
          "type": "address"
        },
        {
          "internalType": "address",
          "name": "operator",
          "type": "address"
        }
      ],
      "name": "isApprovedForAll",
      "outputs": [
        {
          "internalType": "bool",
          "name": "",
          "type": "bool"
        }
      ],
      "stateMutability": "view",
      "type": "function"
    },
    {
      "inputs": [],
      "name": "jbOwner",
      "outputs": [
        {
          "internalType": "address",
          "name": "owner",
          "type": "address"
        },
        {
          "internalType": "uint88",
          "name": "projectId",
          "type": "uint88"
        },
        {
          "internalType": "uint8",
          "name": "permissionIndex",
          "type": "uint8"
        }
      ],
      "stateMutability": "view",
      "type": "function"
    },
    {
      "inputs": [
        {
          "internalType": "uint16[]",
          "name": "_tierIds",
          "type": "uint16[]"
        },
        {
          "internalType": "address",
          "name": "_beneficiary",
          "type": "address"
        }
      ],
      "name": "mintFor",
      "outputs": [
        {
          "internalType": "uint256[]",
          "name": "tokenIds",
          "type": "uint256[]"
        }
      ],
      "stateMutability": "nonpayable",
      "type": "function"
    },
    {
      "inputs": [
        {
          "components": [
            {
              "internalType": "uint256",
              "name": "tierId",
              "type": "uint256"
            },
            {
              "internalType": "uint256",
              "name": "count",
              "type": "uint256"
            }
          ],
          "internalType": "struct JBTiered721MintReservesForTiersData[]",
          "name": "_mintReservesForTiersData",
          "type": "tuple[]"
        }
      ],
      "name": "mintReservesFor",
      "outputs": [],
      "stateMutability": "nonpayable",
      "type": "function"
    },
    {
      "inputs": [
        {
          "internalType": "uint256",
          "name": "_tierId",
          "type": "uint256"
        },
        {
          "internalType": "uint256",
          "name": "_count",
          "type": "uint256"
        }
      ],
      "name": "mintReservesFor",
      "outputs": [],
      "stateMutability": "nonpayable",
      "type": "function"
    },
    {
      "inputs": [],
      "name": "name",
      "outputs": [
        {
          "internalType": "string",
          "name": "",
          "type": "string"
        }
      ],
      "stateMutability": "view",
      "type": "function"
    },
    {
      "inputs": [],
      "name": "operatorStore",
      "outputs": [
        {
          "internalType": "contract IJBOperatorStore",
          "name": "",
          "type": "address"
        }
      ],
      "stateMutability": "view",
      "type": "function"
    },
    {
      "inputs": [],
      "name": "owner",
      "outputs": [
        {
          "internalType": "address",
          "name": "",
          "type": "address"
        }
      ],
      "stateMutability": "view",
      "type": "function"
    },
    {
      "inputs": [
        {
          "internalType": "uint256",
          "name": "tokenId",
          "type": "uint256"
        }
      ],
      "name": "ownerOf",
      "outputs": [
        {
          "internalType": "address",
          "name": "",
          "type": "address"
        }
      ],
      "stateMutability": "view",
      "type": "function"
    },
    {
      "inputs": [
        {
          "components": [
            {
              "internalType": "contract IJBPaymentTerminal",
              "name": "terminal",
              "type": "address"
            },
            {
              "internalType": "address",
              "name": "payer",
              "type": "address"
            },
            {
              "components": [
                {
                  "internalType": "address",
                  "name": "token",
                  "type": "address"
                },
                {
                  "internalType": "uint256",
                  "name": "value",
                  "type": "uint256"
                },
                {
                  "internalType": "uint256",
                  "name": "decimals",
                  "type": "uint256"
                },
                {
                  "internalType": "uint256",
                  "name": "currency",
                  "type": "uint256"
                }
              ],
              "internalType": "struct JBTokenAmount",
              "name": "amount",
              "type": "tuple"
            },
            {
              "internalType": "uint256",
              "name": "projectId",
              "type": "uint256"
            },
            {
              "internalType": "uint256",
              "name": "currentFundingCycleConfiguration",
              "type": "uint256"
            },
            {
              "internalType": "address",
              "name": "beneficiary",
              "type": "address"
            },
            {
              "internalType": "uint256",
              "name": "weight",
              "type": "uint256"
            },
            {
              "internalType": "uint256",
              "name": "reservedRate",
              "type": "uint256"
            },
            {
              "internalType": "string",
              "name": "memo",
              "type": "string"
            },
            {
              "internalType": "bytes",
              "name": "metadata",
              "type": "bytes"
            }
          ],
          "internalType": "struct JBPayParamsData",
          "name": "_data",
          "type": "tuple"
        }
      ],
      "name": "payParams",
      "outputs": [
        {
          "internalType": "uint256",
          "name": "weight",
          "type": "uint256"
        },
        {
          "internalType": "string",
          "name": "memo",
          "type": "string"
        },
        {
          "components": [
            {
              "internalType": "contract IJBPayDelegate",
              "name": "delegate",
              "type": "address"
            },
            {
              "internalType": "uint256",
              "name": "amount",
              "type": "uint256"
            }
          ],
          "internalType": "struct JBPayDelegateAllocation[]",
          "name": "delegateAllocations",
          "type": "tuple[]"
        }
      ],
      "stateMutability": "view",
      "type": "function"
    },
    {
      "inputs": [],
      "name": "pricingContext",
      "outputs": [
        {
          "internalType": "uint256",
          "name": "currency",
          "type": "uint256"
        },
        {
          "internalType": "uint256",
          "name": "decimals",
          "type": "uint256"
        },
        {
          "internalType": "contract IJBPrices",
          "name": "prices",
          "type": "address"
        }
      ],
      "stateMutability": "view",
      "type": "function"
    },
    {
      "inputs": [],
      "name": "projectId",
      "outputs": [
        {
          "internalType": "uint256",
          "name": "",
          "type": "uint256"
        }
      ],
      "stateMutability": "view",
      "type": "function"
    },
    {
      "inputs": [],
      "name": "projects",
      "outputs": [
        {
          "internalType": "contract IJBProjects",
          "name": "",
          "type": "address"
        }
      ],
      "stateMutability": "view",
      "type": "function"
    },
    {
      "inputs": [
        {
          "components": [
            {
              "internalType": "contract IJBPaymentTerminal",
              "name": "terminal",
              "type": "address"
            },
            {
              "internalType": "address",
              "name": "holder",
              "type": "address"
            },
            {
              "internalType": "uint256",
              "name": "projectId",
              "type": "uint256"
            },
            {
              "internalType": "uint256",
              "name": "currentFundingCycleConfiguration",
              "type": "uint256"
            },
            {
              "internalType": "uint256",
              "name": "tokenCount",
              "type": "uint256"
            },
            {
              "internalType": "uint256",
              "name": "totalSupply",
              "type": "uint256"
            },
            {
              "internalType": "uint256",
              "name": "overflow",
              "type": "uint256"
            },
            {
              "components": [
                {
                  "internalType": "address",
                  "name": "token",
                  "type": "address"
                },
                {
                  "internalType": "uint256",
                  "name": "value",
                  "type": "uint256"
                },
                {
                  "internalType": "uint256",
                  "name": "decimals",
                  "type": "uint256"
                },
                {
                  "internalType": "uint256",
                  "name": "currency",
                  "type": "uint256"
                }
              ],
              "internalType": "struct JBTokenAmount",
              "name": "reclaimAmount",
              "type": "tuple"
            },
            {
              "internalType": "bool",
              "name": "useTotalOverflow",
              "type": "bool"
            },
            {
              "internalType": "uint256",
              "name": "redemptionRate",
              "type": "uint256"
            },
            {
              "internalType": "string",
              "name": "memo",
              "type": "string"
            },
            {
              "internalType": "bytes",
              "name": "metadata",
              "type": "bytes"
            }
          ],
          "internalType": "struct JBRedeemParamsData",
          "name": "_data",
          "type": "tuple"
        }
      ],
      "name": "redeemParams",
      "outputs": [
        {
          "internalType": "uint256",
          "name": "reclaimAmount",
          "type": "uint256"
        },
        {
          "internalType": "string",
          "name": "memo",
          "type": "string"
        },
        {
          "components": [
            {
              "internalType": "contract IJBRedemptionDelegate",
              "name": "delegate",
              "type": "address"
            },
            {
              "internalType": "uint256",
              "name": "amount",
              "type": "uint256"
            }
          ],
          "internalType": "struct JBRedemptionDelegateAllocation[]",
          "name": "delegateAllocations",
          "type": "tuple[]"
        }
      ],
      "stateMutability": "view",
      "type": "function"
    },
    {
      "inputs": [
        {
          "internalType": "uint256[]",
          "name": "_tokenIds",
          "type": "uint256[]"
        },
        {
          "components": [
            {
              "internalType": "contract IJBPaymentTerminal",
              "name": "terminal",
              "type": "address"
            },
            {
              "internalType": "address",
              "name": "holder",
              "type": "address"
            },
            {
              "internalType": "uint256",
              "name": "projectId",
              "type": "uint256"
            },
            {
              "internalType": "uint256",
              "name": "currentFundingCycleConfiguration",
              "type": "uint256"
            },
            {
              "internalType": "uint256",
              "name": "tokenCount",
              "type": "uint256"
            },
            {
              "internalType": "uint256",
              "name": "totalSupply",
              "type": "uint256"
            },
            {
              "internalType": "uint256",
              "name": "overflow",
              "type": "uint256"
            },
            {
              "components": [
                {
                  "internalType": "address",
                  "name": "token",
                  "type": "address"
                },
                {
                  "internalType": "uint256",
                  "name": "value",
                  "type": "uint256"
                },
                {
                  "internalType": "uint256",
                  "name": "decimals",
                  "type": "uint256"
                },
                {
                  "internalType": "uint256",
                  "name": "currency",
                  "type": "uint256"
                }
              ],
              "internalType": "struct JBTokenAmount",
              "name": "reclaimAmount",
              "type": "tuple"
            },
            {
              "internalType": "bool",
              "name": "useTotalOverflow",
              "type": "bool"
            },
            {
              "internalType": "uint256",
              "name": "redemptionRate",
              "type": "uint256"
            },
            {
              "internalType": "string",
              "name": "memo",
              "type": "string"
            },
            {
              "internalType": "bytes",
              "name": "metadata",
              "type": "bytes"
            }
          ],
          "internalType": "struct JBRedeemParamsData",
          "name": "",
          "type": "tuple"
        }
      ],
      "name": "redemptionWeightOf",
      "outputs": [
        {
          "internalType": "uint256",
          "name": "",
          "type": "uint256"
        }
      ],
      "stateMutability": "view",
      "type": "function"
    },
    {
      "inputs": [],
      "name": "renounceOwnership",
      "outputs": [],
      "stateMutability": "nonpayable",
      "type": "function"
    },
    {
      "inputs": [
        {
          "internalType": "address",
          "name": "from",
          "type": "address"
        },
        {
          "internalType": "address",
          "name": "to",
          "type": "address"
        },
        {
          "internalType": "uint256",
          "name": "tokenId",
          "type": "uint256"
        }
      ],
      "name": "safeTransferFrom",
      "outputs": [],
      "stateMutability": "nonpayable",
      "type": "function"
    },
    {
      "inputs": [
        {
          "internalType": "address",
          "name": "from",
          "type": "address"
        },
        {
          "internalType": "address",
          "name": "to",
          "type": "address"
        },
        {
          "internalType": "uint256",
          "name": "tokenId",
          "type": "uint256"
        },
        {
          "internalType": "bytes",
          "name": "data",
          "type": "bytes"
        }
      ],
      "name": "safeTransferFrom",
      "outputs": [],
      "stateMutability": "nonpayable",
      "type": "function"
    },
    {
      "inputs": [
        {
          "internalType": "address",
          "name": "operator",
          "type": "address"
        },
        {
          "internalType": "bool",
          "name": "approved",
          "type": "bool"
        }
      ],
      "name": "setApprovalForAll",
      "outputs": [],
      "stateMutability": "nonpayable",
      "type": "function"
    },
    {
      "inputs": [
        {
          "internalType": "string",
          "name": "_baseUri",
          "type": "string"
        },
        {
          "internalType": "string",
          "name": "_contractUri",
          "type": "string"
        },
        {
          "internalType": "contract IJB721TokenUriResolver",
          "name": "_tokenUriResolver",
          "type": "address"
        },
        {
          "internalType": "uint256",
          "name": "_encodedIPFSUriTierId",
          "type": "uint256"
        },
        {
          "internalType": "bytes32",
          "name": "_encodedIPFSUri",
          "type": "bytes32"
        }
      ],
      "name": "setMetadata",
      "outputs": [],
      "stateMutability": "nonpayable",
      "type": "function"
    },
    {
      "inputs": [
        {
          "internalType": "uint8",
          "name": "_permissionIndex",
          "type": "uint8"
        }
      ],
      "name": "setPermissionIndex",
      "outputs": [],
      "stateMutability": "nonpayable",
      "type": "function"
    },
    {
      "inputs": [],
      "name": "store",
      "outputs": [
        {
          "internalType": "contract IJBTiered721DelegateStore",
          "name": "",
          "type": "address"
        }
      ],
      "stateMutability": "view",
      "type": "function"
    },
    {
      "inputs": [
        {
          "internalType": "bytes4",
          "name": "_interfaceId",
          "type": "bytes4"
        }
      ],
      "name": "supportsInterface",
      "outputs": [
        {
          "internalType": "bool",
          "name": "",
          "type": "bool"
        }
      ],
      "stateMutability": "view",
      "type": "function"
    },
    {
      "inputs": [],
      "name": "symbol",
      "outputs": [
        {
          "internalType": "string",
          "name": "",
          "type": "string"
        }
      ],
      "stateMutability": "view",
      "type": "function"
    },
    {
      "inputs": [
        {
          "internalType": "uint256",
          "name": "_tokenId",
          "type": "uint256"
        }
      ],
      "name": "tokenURI",
      "outputs": [
        {
          "internalType": "string",
          "name": "",
          "type": "string"
        }
      ],
      "stateMutability": "view",
      "type": "function"
    },
    {
      "inputs": [
        {
          "components": [
            {
              "internalType": "contract IJBPaymentTerminal",
              "name": "terminal",
              "type": "address"
            },
            {
              "internalType": "address",
              "name": "holder",
              "type": "address"
            },
            {
              "internalType": "uint256",
              "name": "projectId",
              "type": "uint256"
            },
            {
              "internalType": "uint256",
              "name": "currentFundingCycleConfiguration",
              "type": "uint256"
            },
            {
              "internalType": "uint256",
              "name": "tokenCount",
              "type": "uint256"
            },
            {
              "internalType": "uint256",
              "name": "totalSupply",
              "type": "uint256"
            },
            {
              "internalType": "uint256",
              "name": "overflow",
              "type": "uint256"
            },
            {
              "components": [
                {
                  "internalType": "address",
                  "name": "token",
                  "type": "address"
                },
                {
                  "internalType": "uint256",
                  "name": "value",
                  "type": "uint256"
                },
                {
                  "internalType": "uint256",
                  "name": "decimals",
                  "type": "uint256"
                },
                {
                  "internalType": "uint256",
                  "name": "currency",
                  "type": "uint256"
                }
              ],
              "internalType": "struct JBTokenAmount",
              "name": "reclaimAmount",
              "type": "tuple"
            },
            {
              "internalType": "bool",
              "name": "useTotalOverflow",
              "type": "bool"
            },
            {
              "internalType": "uint256",
              "name": "redemptionRate",
              "type": "uint256"
            },
            {
              "internalType": "string",
              "name": "memo",
              "type": "string"
            },
            {
              "internalType": "bytes",
              "name": "metadata",
              "type": "bytes"
            }
          ],
          "internalType": "struct JBRedeemParamsData",
          "name": "",
          "type": "tuple"
        }
      ],
      "name": "totalRedemptionWeight",
      "outputs": [
        {
          "internalType": "uint256",
          "name": "",
          "type": "uint256"
        }
      ],
      "stateMutability": "view",
      "type": "function"
    },
    {
      "inputs": [
        {
          "internalType": "address",
          "name": "from",
          "type": "address"
        },
        {
          "internalType": "address",
          "name": "to",
          "type": "address"
        },
        {
          "internalType": "uint256",
          "name": "tokenId",
          "type": "uint256"
        }
      ],
      "name": "transferFrom",
      "outputs": [],
      "stateMutability": "nonpayable",
      "type": "function"
    },
    {
      "inputs": [
        {
          "internalType": "address",
          "name": "_newOwner",
          "type": "address"
        }
      ],
      "name": "transferOwnership",
      "outputs": [],
      "stateMutability": "nonpayable",
      "type": "function"
    },
    {
      "inputs": [
        {
          "internalType": "uint256",
          "name": "_projectId",
          "type": "uint256"
        }
      ],
      "name": "transferOwnershipToProject",
      "outputs": [],
      "stateMutability": "nonpayable",
      "type": "function"
    }
  ],
  "bytecode": {
    "object": "0x60c06040523480156200001157600080fd5b506040516200584c3803806200584c833981016040819052620000349162000313565b6001600160a01b03808216608052821660a05281818181620000563362000075565b5050600a80546001600160a01b03191630179055506200037992505050565b6200008281600062000085565b50565b6001600160581b03811615801590620000a657506001600160a01b03821615155b15620000e3576040516324abfd1160e11b81526001600160a01b03831660048201526001600160581b038216602482015260440160405180910390fd5b60408051606081018252600080546001600160a01b0381168352600160a01b81046001600160581b031660208401819052600160f81b90910460ff1693830193909352909115620001b25760a05160208301516040516331a9108f60e11b81526001600160581b0390911660048201526001600160a01b0390911690636352211e90602401602060405180830381865afa15801562000186573d6000803e3d6000fd5b505050506040513d601f19601f82011682018060405250810190620001ac919062000352565b620001b5565b81515b604080516060810182526001600160a01b0387168082526001600160581b0387166020830181905260009290930182905281547fff000000000000000000000000000000000000000000000000000000000000001617600160a01b8302176001600160f81b03169055909150620002b390829015620002ac5760a0516040516331a9108f60e11b81526001600160581b03871660048201526001600160a01b0390911690636352211e90602401602060405180830381865afa15801562000280573d6000803e3d6000fd5b505050506040513d601f19601f82011682018060405250810190620002a6919062000352565b620002b9565b85620002b9565b50505050565b806001600160a01b0316826001600160a01b03167f8be0079c531659141344cd1fd0a4f28419497f9722a3daafe3b4186f6b6457e060405160405180910390a35050565b6001600160a01b03811681146200008257600080fd5b600080604083850312156200032757600080fd5b82516200033481620002fd565b60208401519092506200034781620002fd565b809150509250929050565b6000602082840312156200036557600080fd5b81516200037281620002fd565b9392505050565b60805160a051615483620003c96000396000818161059c015281816114a601528181612644015281816128c601526129be0152600081816106e901528181612264015261230d01526154836000f3fe60806040526004361061025c5760003560e01c80637ba62bf911610144578063aa4fb15b116100b6578063c87b56dd1161007a578063c87b56dd146107b8578063d46cf171146107d8578063da9ee8b7146107f8578063e8a3d4851461080b578063e985e9c514610820578063f2fde38b1461086957600080fd5b8063aa4fb15b146106b7578063ad007d63146106d7578063b88d4fde1461070b578063ba23c36e1461072b578063c41c2f241461079857600080fd5b806395d89b411161010857806395d89b41146105f3578063975057e714610608578063a11606a814610628578063a220d69614610648578063a22cb46514610668578063a51cfd181461068857600080fd5b80637ba62bf91461054a578063843d92ee1461056a5780638b79543c1461058a5780638da5cb5b146105be5780639494bf72146105d357600080fd5b80632b13c58f116101dd57806361aec7a9116101a157806361aec7a9146104935780636352211e146104b35780636ac6d941146104d35780636c0360eb1461050057806370a0823114610515578063715018a61461053557600080fd5b80632b13c58f1461040a5780633fafa1271461041d57806342842e0e1461043357806354c6d1f514610453578063557e71551461047357600080fd5b80631435aad5116102245780631435aad51461034f5780631d153ca41461036f57806323b872dd1461038f578063245a45b5146103af5780632a596e53146103ea57600080fd5b806301ffc9a71461026157806306fdde0314610296578063081812fc146102b857806308786b1a146102f0578063095ea7b31461032d575b600080fd5b34801561026d57600080fd5b5061028161027c366004613a85565b610889565b60405190151581526020015b60405180910390f35b3480156102a257600080fd5b506102ab6108b4565b60405161028d9190613af2565b3480156102c457600080fd5b506102d86102d3366004613b05565b610946565b6040516001600160a01b03909116815260200161028d565b3480156102fc57600080fd5b506009546040805165ffffffffffff8084168252603084901c166020820152606092831c918101919091520161028d565b34801561033957600080fd5b5061034d610348366004613b43565b61096d565b005b34801561035b57600080fd5b5061034d61036a366004613bb7565b6109f9565b34801561037b57600080fd5b50600a546102d8906001600160a01b031681565b34801561039b57600080fd5b5061034d6103aa366004613c4c565b610c3c565b3480156103bb57600080fd5b506103dc6103ca366004613c8d565b600d6020526000908152604090205481565b60405190815260200161028d565b3480156103f657600080fd5b5061034d610405366004613caa565b610c6e565b61034d610418366004613d37565b610cc7565b34801561042957600080fd5b506103dc60065481565b34801561043f57600080fd5b5061034d61044e366004613c4c565b610ea9565b34801561045f57600080fd5b506102d861046e366004613b05565b610ec4565b34801561047f57600080fd5b50600c546102d8906001600160a01b031681565b34801561049f57600080fd5b5061034d6104ae366004613d6b565b610f05565b3480156104bf57600080fd5b506102d86104ce366004613b05565b610f19565b3480156104df57600080fd5b506104f36104ee366004613dd2565b610f4f565b60405161028d9190613e63565b34801561050c57600080fd5b506102ab6110a8565b34801561052157600080fd5b506103dc610530366004613c8d565b611136565b34801561054157600080fd5b5061034d6111ac565b34801561055657600080fd5b506103dc610565366004613fdb565b6111c1565b34801561057657600080fd5b5061034d61058536600461403e565b61123c565b34801561059657600080fd5b506102d87f000000000000000000000000000000000000000000000000000000000000000081565b3480156105ca57600080fd5b506102d8611432565b3480156105df57600080fd5b506103dc6105ee366004613d37565b61151f565b3480156105ff57600080fd5b506102ab611550565b34801561061457600080fd5b50600b546102d8906001600160a01b031681565b34801561063457600080fd5b5061034d6106433660046143c8565b61155f565b34801561065457600080fd5b5061034d610663366004613b05565b6117ea565b34801561067457600080fd5b5061034d610683366004614501565b611838565b34801561069457600080fd5b506106a86106a3366004613d37565b611847565b60405161028d9392919061453a565b3480156106c357600080fd5b5061034d6106d23660046145ac565b611aa6565b3480156106e357600080fd5b506102d87f000000000000000000000000000000000000000000000000000000000000000081565b34801561071757600080fd5b5061034d6107263660046145ce565b611cc3565b34801561073757600080fd5b50600054610768906001600160a01b03811690600160a01b81046001600160581b031690600160f81b900460ff1683565b604080516001600160a01b0390941684526001600160581b03909216602084015260ff169082015260600161028d565b3480156107a457600080fd5b506007546102d8906001600160a01b031681565b3480156107c457600080fd5b506102ab6107d3366004613b05565b611cf6565b3480156107e457600080fd5b506106a86107f336600461464d565b611ef3565b61034d610806366004614688565b611fd6565b34801561081757600080fd5b506102ab61208d565b34801561082c57600080fd5b5061028161083b3660046146c3565b6001600160a01b03918216600090815260056020908152604080832093909416825291909152205460ff1690565b34801561087557600080fd5b5061034d610884366004613c8d565b61209a565b60006001600160e01b03198216631f162d3f60e31b14806108ae57506108ae826120e6565b92915050565b6060600180546108c3906146f1565b80601f01602080910402602001604051908101604052809291908181526020018280546108ef906146f1565b801561093c5780601f106109115761010080835404028352916020019161093c565b820191906000526020600020905b81548152906001019060200180831161091f57829003601f168201915b5050505050905090565b600061095182612177565b506000908152600460205260409020546001600160a01b031690565b600061097882610f19565b9050806001600160a01b0316836001600160a01b0316036109ac5760405163133f8be960e01b815260040160405180910390fd5b336001600160a01b038216148015906109cc57506109ca813361083b565b155b156109ea5760405163e5fa0e3560e01b815260040160405180910390fd5b6109f483836121ac565b505050565b610a01611432565b6006546016610a1183838361221a565b8815610a7057600e610a248a8c8361476b565b508989604051610a3592919061482a565b604051908190038120338252907f7bc9110d5de090dd59e07912d2b93a5a27ac70a60c8d8e324db4f9ee8b8b5c139060200160405180910390a25b8615610acf57600f610a83888a8361476b565b508787604051610a9492919061482a565b604051908190038120338252907fd36dc0c1a06103fdcaf15f3f6fb797d1a97997514c78de073640c8b5005454b89060200160405180910390a25b6001600160a01b0386163014610b7d57600b5460405163036129cb60e61b81526001600160a01b0388811660048301529091169063d84a72c090602401600060405180830381600087803b158015610b2657600080fd5b505af1158015610b3a573d6000803e3d6000fd5b50506040513381526001600160a01b03891692507fe7784d93cfbfa4408e19577e6cc0436f4dbb51214b70e100905dfce9def88c16915060200160405180910390a25b8415801590610b8b57508315155b15610c3057600b546040516324de8d6360e11b815260048101879052602481018690526001600160a01b03909116906349bd1ac690604401600060405180830381600087803b158015610bdd57600080fd5b505af1158015610bf1573d6000803e3d6000fd5b5050604080518781523360208201528893507f677da4fed654db8e604791fa2582f342e2001aa217e27f6985eb3e0f67e5a7fc92500160405180910390a25b50505050505050505050565b610c463382612398565b610c635760405163e5fa0e3560e01b815260040160405180910390fd5b6109f4838383612417565b8060005b81811015610cc1576000848483818110610c8e57610c8e61483a565b905060400201803603810190610ca49190614850565b9050610cb881600001518260200151611aa6565b50600101610c72565b50505050565b34151580610d495750600754600654604051636e49181f60e01b815260048101919091523360248201526001600160a01b0390911690636e49181f90604401602060405180830381865afa158015610d23573d6000803e3d6000fd5b505050506040513d601f19601f82011682018060405250810190610d4791906148a9565b155b80610d5a5750600654816020013514155b15610d7857604051633efca5c360e11b815260040160405180910390fd5b6024610d886101c08301836148c6565b90501080610dcc575063fbb38e0360e01b610da76101c08301836148c6565b610db69160249160209161490c565b610dbf91614936565b6001600160e01b03191614155b15610dea57604051632a84050f60e01b815260040160405180910390fd5b6000610dfa6101c08301836148c6565b810190610e079190614966565b925050506000815190506000805b82811015610e9f57838181518110610e2f57610e2f61483a565b60200260200101519150846000016020810190610e4c9190613c8d565b6000838152600360205260409020546001600160a01b03908116911614610e8e57604051635caf197560e01b8152600481018390526024015b60405180910390fd5b610e97826124f0565b600101610e15565b50610cc183612571565b6109f483838360405180602001604052806000815250611cc3565b6000818152600860205260408120546001600160a01b03168015610ee85792915050565b50506000908152600360205260409020546001600160a01b031690565b610f0d6125d6565b610f16816126e0565b50565b6000818152600360205260408120546001600160a01b0316806108ae5760405163b49aa3b560e01b815260040160405180910390fd5b6060610f59611432565b6006546017610f6983838361221a565b600b5460405163eaa19ab360e01b81526001600160a01b039091169063eaa19ab390610fa290600019908b908b906001906004016149be565b6000604051808303816000875af1158015610fc1573d6000803e3d6000fd5b505050506040513d6000823e601f3d908101601f19168201604052610fe99190810190614a76565b509350856000805b8281101561109b5786818151811061100b5761100b61483a565b6020026020010151915061101f8883612736565b876001600160a01b03168a8a8381811061103b5761103b61483a565b90506020020160208101906110509190614abc565b604080516000815233602082015261ffff929092169185917f598baf7bf150ca2f42be9e9f8f55e81d45f5715c3ff22bf46d697fabec7f31d6910160405180910390a4600101610ff1565b5050505050509392505050565b600e80546110b5906146f1565b80601f01602080910402602001604051908101604052809291908181526020018280546110e1906146f1565b801561112e5780601f106111035761010080835404028352916020019161112e565b820191906000526020600020905b81548152906001019060200180831161111157829003601f168201915b505050505081565b600b54604051633de222bb60e21b81523060048201526001600160a01b038381166024830152600092169063f7888aec906044015b602060405180830381865afa158015611188573d6000803e3d6000fd5b505050506040513d601f19601f820116820180604052508101906108ae9190614ad7565b6111b46125d6565b6111bf600080612800565b565b600b5460405163051330b560e21b81526000916001600160a01b03169063144cc2d4906111f49030908790600401614af0565b602060405180830381865afa158015611211573d6000803e3d6000fd5b505050506040513d601f19601f820116820180604052508101906112359190614ad7565b9392505050565b611244611432565b600654601561125483838361221a565b8584801561132457600b546040516320512ba160e01b81526001600160a01b03909116906320512ba19061128e908a908a90600401614b14565b600060405180830381600087803b1580156112a857600080fd5b505af11580156112bc573d6000803e3d6000fd5b5050505060005b81811015611322578787828181106112dd576112dd61483a565b60405133815260209182029390930135927f832d89d991be5351d793c20faf4b7dd44f8aa9ce39e3cb160c6317de6fbba72992500160405180910390a26001016112c3565b505b811561142757600b54604051638da5e32b60e01b81526000916001600160a01b031690638da5e32b9061135d908d908d90600401614c39565b6000604051808303816000875af115801561137c573d6000803e3d6000fd5b505050506040513d6000823e601f3d908101601f191682016040526113a49190810190614c7c565b905060005b83811015611424578181815181106113c3576113c361483a565b60200260200101517f1af6ad8cdb16b4d1fbc75701ef89105100ac32fb4fcd841b47adf8c03e04455d8c8c848181106113fe576113fe61483a565b9050610160020133604051611414929190614cb0565b60405180910390a26001016113a9565b50505b505050505050505050565b60408051606081018252600080546001600160a01b0381168352600160a01b81046001600160581b031660208401819052600160f81b90910460ff16938301939093529182036114825751919050565b60208101516040516331a9108f60e11b81526001600160581b0390911660048201527f00000000000000000000000000000000000000000000000000000000000000006001600160a01b031690636352211e90602401602060405180830381865afa1580156114f5573d6000803e3d6000fd5b505050506040513d601f19601f820116820180604052508101906115199190614ce3565b91505090565b600b54604051631572f24960e11b81523060048201526000916001600160a01b031690632ae5e4929060240161116b565b6060600280546108c3906146f1565b600a546001600160a01b0316300361157657600080fd5b600b546001600160a01b03161561158c57600080fd5b6115988b8b8b8b612a3c565b600c80546001600160a01b03808a166001600160a01b031992831617909255600b805492851692909116919091179055602083015160408401516060808601516bffffffffffffffffffffffff19911b166bffffffffffff00000000000060309290921b9190911665ffffffffffff9092169190911717600981905586511561162957600e6116278882614d00565b505b84511561163e57600f61163c8682614d00565b505b6001600160a01b038616156116a95760405163036129cb60e61b81526001600160a01b03878116600483015284169063d84a72c090602401600060405180830381600087803b15801561169057600080fd5b505af11580156116a4573d6000803e3d6000fd5b505050505b83515115611727578351604051638da5e32b60e01b81526001600160a01b03851691638da5e32b916116de9190600401614dbf565b6000604051808303816000875af11580156116fd573d6000803e3d6000fd5b505050506040513d6000823e601f3d908101601f191682016040526117259190810190614c7c565b505b815180611735575081602001515b80611741575081604001515b8061174d575081606001515b156117d357604080516365c13f1960e11b815283511515600482015260208401511515602482015290830151151560448201526060830151151560648201526001600160a01b0384169063cb827e3290608401600060405180830381600087803b1580156117ba57600080fd5b505af11580156117ce573d6000803e3d6000fd5b505050505b6117dc336120db565b505050505050505050505050565b6117f26125d6565b80158061180557506001600160581b0381115b1561182d576040516324abfd1160e11b81526000600482015260248101829052604401610e85565b610f16600082612800565b611843338383612a6f565b5050565b600060608060808401351561186f576040516309f82f1b60e31b815260040160405180910390fd5b602461187f6101c08601866148c6565b905010806118c3575063fbb38e0360e01b61189e6101c08601866148c6565b6118ad9160249160209161490c565b6118b691614936565b6001600160e01b03191614155b156118e157604051632a84050f60e01b815260040160405180910390fd5b60408051600180825281830190925290816020015b60408051808201909152600080825260208201528152602001906001900390816118f65790505090506040518060400160405280306001600160a01b031681526020016000815250816000815181106119515761195161483a565b6020908102919091010152600061196c6101c08601866148c6565b8101906119799190614966565b92505050600061198982876111c1565b905060006119968761151f565b905060006119a98860c001358484612b0e565b905061271088610180013503611a1457806119c86101a08a018a6148c6565b8782828080601f016020809104026020016040519081016040528093929190818152602001838380828437600092019190915250969d50919b50919950611a9f98505050505050505050565b611a4a81611a3385611a2d6101808d0135612710614eaf565b86612b0e565b611a42906101808c0135614ec2565b612710612b0e565b611a586101a08a018a6148c6565b8782828080601f016020809104026020016040519081016040528093929190818152602001838380828437600092019190915250969d50919b509199505050505050505050505b9193909250565b600c546006546040516321d1336160e11b815260048101919091526000916001600160a01b0316906343a266c29060240161012060405180830381865afa158015611af5573d6000803e3d6000fd5b505050506040513d601f19601f82011682018060405250810190611b199190614ed5565b61010081015190915060f51c600190811603611b4857604051631d2c125760e31b815260040160405180910390fd5b600b54604051635d53f40760e11b815260048101859052602481018490526000916001600160a01b03169063baa7e80e906044016000604051808303816000875af1158015611b9b573d6000803e3d6000fd5b505050506040513d6000823e601f3d908101601f19168201604052611bc39190810190614c7c565b600b546040516304db994760e21b8152306004820152602481018790529192506000916001600160a01b039091169063136e651c90604401602060405180830381865afa158015611c18573d6000803e3d6000fd5b505050506040513d601f19601f82011682018060405250810190611c3c9190614ce3565b90506000805b85811015611cba57838181518110611c5c57611c5c61483a565b60200260200101519150611c708383612736565b6040513381526001600160a01b03841690889084907f031e1988c95a91ec4d655ff63a8f87a80bc9daf28d95ae10ee08c0022cfb5c8b9060200160405180910390a4600101611c42565b50505050505050565b611ccd3383612398565b611cea5760405163e5fa0e3560e01b815260040160405180910390fd5b610cc184848484612bda565b600b54604051630fab094760e01b81523060048201526060916000916001600160a01b0390911690630fab094790602401602060405180830381865afa158015611d44573d6000803e3d6000fd5b505050506040513d601f19601f82011682018060405250810190611d689190614ce3565b90506001600160a01b03811615611dec57604051635e703e7160e01b8152306004820152602481018490526001600160a01b03821690635e703e7190604401600060405180830381865afa158015611dc4573d6000803e3d6000fd5b505050506040513d6000823e601f3d908101601f191682016040526112359190810190614f9a565b611235600e8054611dfc906146f1565b80601f0160208091040260200160405190810160405280929190818152602001828054611e28906146f1565b8015611e755780601f10611e4a57610100808354040283529160200191611e75565b820191906000526020600020905b815481529060010190602001808311611e5857829003601f168201915b5050600b54604051630c8df17160e41b8152306004820152602481018a90526001600160a01b03909116935063c8df171092506044019050602060405180830381865afa158015611eca573d6000803e3d6000fd5b505050506040513d601f19601f82011682018060405250810190611eee9190614ad7565b612c0e565b610120810135606080611f0a6101608501856148c6565b8080601f01602080910402602001604051908101604052809392919081815260200183838082843760009201919091525092945060019250611f4a915050565b604051908082528060200260200182016040528015611f8f57816020015b6040805180820190915260008082526020820152815260200190600190039081611f685790505b5090506040518060400160405280306001600160a01b03168152602001600081525081600081518110611fc457611fc461483a565b60200260200101819052509193909250565b600654341515806120575750600754604051636e49181f60e01b8152600481018390523360248201526001600160a01b0390911690636e49181f90604401602060405180830381865afa158015612031573d6000803e3d6000fd5b505050506040513d601f19601f8201168201806040525081019061205591906148a9565b155b80612066575080826020013514155b15612084576040516331c57b1b60e21b815260040160405180910390fd5b61184382612c75565b600f80546110b5906146f1565b6120a26125d6565b6001600160a01b0381166120db576040516324abfd1160e11b81526001600160a01b038216600482015260006024820152604401610e85565b610f16816000612800565b60006001600160e01b0319821663fbb38e0360e01b148061211757506001600160e01b031982166371700c6960e01b145b8061213257506001600160e01b0319821663da9ee8b760e01b145b8061214d57506001600160e01b03198216632b13c58f60e01b145b8061216857506001600160e01b0319821663152a902d60e11b145b806108ae57506108ae82613131565b6000818152600360205260409020546001600160a01b0316610f165760405163b49aa3b560e01b815260040160405180910390fd5b600081815260046020526040902080546001600160a01b0319166001600160a01b03841690811790915581906121e182610f19565b6001600160a01b03167f8c5be1e5ebec7d5bd14f71427d1e84f3dd0314c0f7b2291e5b200ac8c7c3b92560405160405180910390a45050565b336001600160a01b03841681148015906122d1575060405163c161c93f60e01b81526001600160a01b038281166004830152858116602483015260448201859052606482018490527f0000000000000000000000000000000000000000000000000000000000000000169063c161c93f90608401602060405180830381865afa1580156122ab573d6000803e3d6000fd5b505050506040513d601f19601f820116820180604052508101906122cf91906148a9565b155b801561237a575060405163c161c93f60e01b81526001600160a01b038281166004830152858116602483015260006044830152606482018490527f0000000000000000000000000000000000000000000000000000000000000000169063c161c93f90608401602060405180830381865afa158015612354573d6000803e3d6000fd5b505050506040513d601f19601f8201168201806040525081019061237891906148a9565b155b15610cc15760405163075fd2b160e01b815260040160405180910390fd5b6000806123a483610f19565b9050806001600160a01b0316846001600160a01b031614806123eb57506001600160a01b0380821660009081526005602090815260408083209388168352929052205460ff165b8061240f5750836001600160a01b031661240484610946565b6001600160a01b0316145b949350505050565b826001600160a01b031661242a82610f19565b6001600160a01b0316146124515760405163a195bc5360e01b815260040160405180910390fd5b6001600160a01b03821661247857604051632c95542760e01b815260040160405180910390fd5b612483838383613181565b61248e6000826121ac565b60008181526003602052604080822080546001600160a01b0319166001600160a01b0386811691821790925591518493918716917fddf252ad1be2c89b69c2b068fc378daa952ba7f163c4a11628f55a4df523b3ef91a46109f483838361331d565b60006124fb82610f19565b905061250981600084613181565b6125146000836121ac565b60008281526003602052604080822080546001600160a01b0319169055518391906001600160a01b038416907fddf252ad1be2c89b69c2b068fc378daa952ba7f163c4a11628f55a4df523b3ef908390a46118438160008461331d565b600b546040516386bc2be360e01b81526001600160a01b03909116906386bc2be3906125a1908490600401613e63565b600060405180830381600087803b1580156125bb57600080fd5b505af11580156125cf573d6000803e3d6000fd5b5050505050565b60408051606081018252600080546001600160a01b0381168352600160a01b81046001600160581b031660208401819052600160f81b90910460ff16938301939093529091156126bc5760208201516040516331a9108f60e11b81526001600160581b0390911660048201527f00000000000000000000000000000000000000000000000000000000000000006001600160a01b031690636352211e90602401602060405180830381865afa158015612693573d6000803e3d6000fd5b505050506040513d601f19601f820116820180604052508101906126b79190614ce3565b6126bf565b81515b90506118438183602001516001600160581b0316846040015160ff1661221a565b600080546001600160f81b0316600160f81b60ff8416908102919091179091556040519081527f197cbe84f592e417694036927858418efc958896363c034f9aaa25af88953beb9060200160405180910390a150565b6001600160a01b03821661275d57604051633904578f60e11b815260040160405180910390fd5b6000818152600360205260409020546001600160a01b03161561279357604051632eb5f0c360e21b815260040160405180910390fd5b61279f60008383613181565b60008181526003602052604080822080546001600160a01b0319166001600160a01b03861690811790915590518392907fddf252ad1be2c89b69c2b068fc378daa952ba7f163c4a11628f55a4df523b3ef908290a46118436000838361331d565b6001600160581b0381161580159061282057506001600160a01b03821615155b15612858576040516324abfd1160e11b81526001600160a01b03831660048201526001600160581b0382166024820152604401610e85565b60408051606081018252600080546001600160a01b0381168352600160a01b81046001600160581b031660208401819052600160f81b90910460ff169383019390935290911561293e5760208201516040516331a9108f60e11b81526001600160581b0390911660048201527f00000000000000000000000000000000000000000000000000000000000000006001600160a01b031690636352211e90602401602060405180830381865afa158015612915573d6000803e3d6000fd5b505050506040513d601f19601f820116820180604052508101906129399190614ce3565b612941565b81515b604080516060810182526001600160a01b0387168082526001600160581b0387166020830181905260009290930182905281546001600160f81b03191617600160a01b8302176001600160f81b03169055909150610cc190829015612a36576040516331a9108f60e11b81526001600160581b03861660048201527f00000000000000000000000000000000000000000000000000000000000000006001600160a01b031690636352211e90602401602060405180830381865afa158015612a0d573d6000803e3d6000fd5b505050506040513d601f19601f82011682018060405250810190612a319190614ce3565b613414565b85613414565b612a468282613458565b5050600691909155600780546001600160a01b0319166001600160a01b03909216919091179055565b816001600160a01b0316836001600160a01b031603612aa1576040516306f8139d60e11b815260040160405180910390fd5b6001600160a01b03838116600081815260056020908152604080832094871680845294825291829020805460ff191686151590811790915591519182527f17307eab39ab6107e8899845ad3d59bd9653f200f220920489ca2b5937696c31910160405180910390a3505050565b6000808060001985870985870292508281108382030391505080600003612b4857838281612b3e57612b3e614fce565b0492505050611235565b838110612b7257604051631dcf306360e21b81526004810182905260248101859052604401610e85565b600084868809600260036001881981018916988990049182028318808302840302808302840302808302840302808302840302808302840302918202909203026000889003889004909101858311909403939093029303949094049190911702949350505050565b612be5848484612417565b612bf184848484613471565b610cc1576040516336f57c1b60e11b815260040160405180910390fd5b604051609160f51b60208201526022810182905260609060009060420160405160208183030381529060405290506000612c4782613573565b90508481604051602001612c5c929190614fe4565b6040516020818303038152906040529250505092915050565b60095460009065ffffffffffff811660c0840135819003612c9c5760808401359250612d4e565b606082901c80156125cf5765ffffffffffff603084901c16612d496080870135612cc783600a6150f7565b604051635268657960e11b815260c08a013560048201526024810187905260a08a013560448201526001600160a01b0386169063a4d0caf290606401602060405180830381865afa158015612d20573d6000803e3d6000fd5b505050506040513d601f19601f82011682018060405250810190612d449190614ad7565b612b0e565b945050505b5060009050600d81612d686101a086016101808701613c8d565b6001600160a01b03168152602081019190915260400160009081205491508290612d9a6101a086016101808701613c8d565b6001600160a01b0316612db06020870187613c8d565b6001600160a01b031603612dc75790820190612dca565b50815b60006044612ddc6101e08801886148c6565b9050118015612e205750631f162d3f60e31b612dfc6101e08801886148c6565b612e0b9160449160409161490c565b612e1491614936565b6001600160e01b031916145b15612efb576060612e356101e08801886148c6565b810190612e429190615103565b90955093508492505081159050612ec55750600b54604051634228826f60e11b81523060048201526001600160a01b039091169063845104de90602401608060405180830381865afa158015612e9c573d6000803e3d6000fd5b505050506040513d601f19601f82011682018060405250810190612ec091906151d5565b606001515b15612ecf57600091505b805115612ef557612ef28482612eed6101a08b016101808c01613c8d565b61370b565b93505b50612f73565b600b54604051634228826f60e11b81523060048201526001600160a01b039091169063845104de90602401608060405180830381865afa158015612f43573d6000803e3d6000fd5b505050506040513d601f19601f82011682018060405250810190612f6791906151d5565b60600151612f73575060015b82156130975780612f9757604051631b57826960e21b815260040160405180910390fd5b82820184811115612fff57612fb46101a088016101808901613c8d565b6040513381526001600160a01b0391909116908290878203907f2fb2733fb01b76e3290fa8b695d18e026ddd19c0a265ab90e95152e57da303369060200160405180910390a4613060565b80851115613060576130196101a088016101808901613c8d565b6040513381526001600160a01b0391909116908290818803907fe0e7c81cf67a96dd0e39bcf11521b1f4c0098cc1dbe8c30750a11d9ebfc3ed4d9060200160405180910390a45b80600d60006130776101a08b016101808c01613c8d565b6001600160a01b0316815260208101919091526040016000205550613129565b818414613129576130b06101a087016101808801613c8d565b6001600160a01b0316826130c48187614eaf565b6040513381527fe0e7c81cf67a96dd0e39bcf11521b1f4c0098cc1dbe8c30750a11d9ebfc3ed4d9060200160405180910390a481600d600061310e6101a08a016101808b01613c8d565b6001600160a01b031681526020810191909152604001600020555b505050505050565b60006001600160e01b031982166380ac58cd60e01b148061316257506001600160e01b03198216635b5e139f60e01b145b806108ae57506301ffc9a760e01b6001600160e01b03198316146108ae565b6001600160a01b038316156109f457600b5460405163c44a8e6d60e01b815230600482015260248101839052600060448201819052916001600160a01b03169063c44a8e6d90606401600060405180830381865afa1580156131e7573d6000803e3d6000fd5b505050506040513d6000823e601f3d908101601f1916820160405261320f919081019061523c565b9050806101400151156132d457600c546006546040516321d1336160e11b815260048101919091526000916001600160a01b0316906343a266c29060240161012060405180830381865afa15801561326b573d6000803e3d6000fd5b505050506040513d601f19601f8201168201806040525081019061328f9190614ed5565b90506001600160a01b038416158015906132b4575061010081015160f41c6001908116145b156132d2576040516318cdaf9760e01b815260040160405180910390fd5b505b6000828152600860205260409020546001600160a01b0316610cc157600082815260086020526040902080546001600160a01b0319166001600160a01b03861617905550505050565b600b5460405163c44a8e6d60e01b815230600482015260248101839052600060448201819052916001600160a01b03169063c44a8e6d90606401600060405180830381865afa158015613374573d6000803e3d6000fd5b505050506040513d6000823e601f3d908101601f1916820160405261339c919081019061523c565b600b5481516040516330b157e560e21b815260048101919091526001600160a01b038781166024830152868116604483015292935091169063c2c55f9490606401600060405180830381600087803b1580156133f757600080fd5b505af115801561340b573d6000803e3d6000fd5b50505050610cc1565b806001600160a01b0316826001600160a01b03167f8be0079c531659141344cd1fd0a4f28419497f9722a3daafe3b4186f6b6457e060405160405180910390a35050565b60016134648382614d00565b5060026109f48282614d00565b60006001600160a01b0384163b1561356857604051630a85bd0160e11b81526001600160a01b0385169063150b7a02906134b5903390899088908890600401615334565b6020604051808303816000875af19250505080156134f0575060408051601f3d908101601f191682019092526134ed91810190615371565b60015b61354e573d80801561351e576040519150601f19603f3d011682016040523d82523d6000602084013e613523565b606091505b508051600003613546576040516336f57c1b60e11b815260040160405180910390fd5b805181602001fd5b6001600160e01b031916630a85bd0160e11b14905061240f565b506001949350505050565b6060815160000361359257505060408051600081526020810190915290565b60408051602e8082526105e08201909252600091602082016105c0803683370190505090506000816000815181106135cc576135cc61483a565b60ff90921660209283029190910190910152825160019060005b818110156136e75760008682815181106136025761360261483a565b016020015160f81c905060005b8460ff1681101561368c57600886828151811061362e5761362e61483a565b602002602001015160ff16901b826136469190614ec2565b9150613653603a8361538e565b8682815181106136655761366561483a565b60ff90921660209283029190910190910152613682603a836153a2565b915060010161360f565b505b80156136de5761369f603a8261538e565b858560ff16815181106136b4576136b461483a565b60ff909216602092830291909101909101526001909301926136d7603a826153a2565b905061368e565b506001016135e6565b506137026136fd6136f8858561384d565b6138f4565b613996565b95945050505050565b600b5460405163eaa19ab360e01b81526000916060916001600160a01b039091169063eaa19ab390613745908890889087906004016153b6565b6000604051808303816000875af1158015613764573d6000803e3d6000fd5b505050506040513d6000823e601f3d908101601f1916820160405261378c9190810190614a76565b81519093509091506000805b82811015613842578381815181106137b2576137b261483a565b602002602001015191506137c68683612736565b856001600160a01b03168782815181106137e2576137e261483a565b602002602001015161ffff16837f598baf7bf150ca2f42be9e9f8f55e81d45f5715c3ff22bf46d697fabec7f31d68b336040516138329291909182526001600160a01b0316602082015260400190565b60405180910390a4600101613798565b505050509392505050565b606060008260ff166001600160401b0381111561386c5761386c613e76565b604051908082528060200260200182016040528015613895578160200160208202803683370190505b50905060005b8360ff168110156138ec578481815181106138b8576138b861483a565b60200260200101518282815181106138d2576138d261483a565b60ff9092166020928302919091019091015260010161389b565b509392505050565b80516060906000816001600160401b0381111561391357613913613e76565b60405190808252806020026020018201604052801561393c578160200160208202803683370190505b50905060005b828110156138ec578481600187510303815181106139625761396261483a565b602002602001015182828151811061397c5761397c61483a565b60ff90921660209283029190910190910152600101613942565b80516060906000816001600160401b038111156139b5576139b5613e76565b6040519080825280601f01601f1916602001820160405280156139df576020820181803683370190505b50905060005b828110156138ec576040518060600160405280603a8152602001615414603a9139858281518110613a1857613a1861483a565b602002602001015160ff1681518110613a3357613a3361483a565b602001015160f81c60f81b828281518110613a5057613a5061483a565b60200101906001600160f81b031916908160001a9053506001016139e5565b6001600160e01b031981168114610f1657600080fd5b600060208284031215613a9757600080fd5b813561123581613a6f565b60005b83811015613abd578181015183820152602001613aa5565b50506000910152565b60008151808452613ade816020860160208601613aa2565b601f01601f19169290920160200192915050565b6020815260006112356020830184613ac6565b600060208284031215613b1757600080fd5b5035919050565b6001600160a01b0381168114610f1657600080fd5b8035613b3e81613b1e565b919050565b60008060408385031215613b5657600080fd5b8235613b6181613b1e565b946020939093013593505050565b60008083601f840112613b8157600080fd5b5081356001600160401b03811115613b9857600080fd5b602083019150836020828501011115613bb057600080fd5b9250929050565b600080600080600080600060a0888a031215613bd257600080fd5b87356001600160401b0380821115613be957600080fd5b613bf58b838c01613b6f565b909950975060208a0135915080821115613c0e57600080fd5b50613c1b8a828b01613b6f565b9096509450506040880135613c2f81613b1e565b969995985093969295946060840135945060809093013592915050565b600080600060608486031215613c6157600080fd5b8335613c6c81613b1e565b92506020840135613c7c81613b1e565b929592945050506040919091013590565b600060208284031215613c9f57600080fd5b813561123581613b1e565b60008060208385031215613cbd57600080fd5b82356001600160401b0380821115613cd457600080fd5b818501915085601f830112613ce857600080fd5b813581811115613cf757600080fd5b8660208260061b8501011115613d0c57600080fd5b60209290920196919550909350505050565b60006101e08284031215613d3157600080fd5b50919050565b600060208284031215613d4957600080fd5b81356001600160401b03811115613d5f57600080fd5b61240f84828501613d1e565b600060208284031215613d7d57600080fd5b813560ff8116811461123557600080fd5b60008083601f840112613da057600080fd5b5081356001600160401b03811115613db757600080fd5b6020830191508360208260051b8501011115613bb057600080fd5b600080600060408486031215613de757600080fd5b83356001600160401b03811115613dfd57600080fd5b613e0986828701613d8e565b9094509250506020840135613e1d81613b1e565b809150509250925092565b600081518084526020808501945080840160005b83811015613e5857815187529582019590820190600101613e3c565b509495945050505050565b6020815260006112356020830184613e28565b634e487b7160e01b600052604160045260246000fd5b604051608081016001600160401b0381118282101715613eae57613eae613e76565b60405290565b60405161016081016001600160401b0381118282101715613eae57613eae613e76565b60405161012081016001600160401b0381118282101715613eae57613eae613e76565b60405161018081016001600160401b0381118282101715613eae57613eae613e76565b604051601f8201601f191681016001600160401b0381118282101715613f4557613f45613e76565b604052919050565b60006001600160401b03821115613f6657613f66613e76565b5060051b60200190565b600082601f830112613f8157600080fd5b81356020613f96613f9183613f4d565b613f1d565b82815260059290921b84018101918181019086841115613fb557600080fd5b8286015b84811015613fd05780358352918301918301613fb9565b509695505050505050565b60008060408385031215613fee57600080fd5b82356001600160401b038082111561400557600080fd5b61401186838701613f70565b9350602085013591508082111561402757600080fd5b5061403485828601613d1e565b9150509250929050565b6000806000806040858703121561405457600080fd5b84356001600160401b038082111561406b57600080fd5b818701915087601f83011261407f57600080fd5b81358181111561408e57600080fd5b886020610160830285010111156140a457600080fd5b6020928301965094509086013590808211156140bf57600080fd5b506140cc87828801613d8e565b95989497509550505050565b60006001600160401b038211156140f1576140f1613e76565b50601f01601f191660200190565b600061410d613f91846140d8565b905082815283838301111561412157600080fd5b828260208301376000602084830101529392505050565b600082601f83011261414957600080fd5b611235838335602085016140ff565b80356001600160681b0381168114613b3e57600080fd5b803563ffffffff81168114613b3e57600080fd5b803561ffff81168114613b3e57600080fd5b803562ffffff81168114613b3e57600080fd5b8015158114610f1657600080fd5b8035613b3e816141a8565b803565ffffffffffff81168114613b3e57600080fd5b600060808083850312156141ea57600080fd5b6141f2613e8c565b915082356001600160401b0381111561420a57600080fd5b8301601f8101851361421b57600080fd5b8035602061422b613f9183613f4d565b828152610160928302840182019282820191908985111561424b57600080fd5b948301945b8486101561432c5780868b0312156142685760008081fd5b614270613eb4565b61427987614158565b815261428685880161416f565b85820152604061429781890161416f565b9082015260606142a8888201614183565b908201526142b7878901613b33565b8189015260a0878101359082015260c06142d2818901614195565b9082015260e06142e38882016141b6565b908201526101006142f58882016141b6565b908201526101206143078882016141b6565b908201526101406143198882016141b6565b9082015283529485019491830191614250565b5086525061433b8682016141c1565b818601525050505061434f604083016141c1565b604082015261436060608301613b33565b606082015292915050565b60006080828403121561437d57600080fd5b614385613e8c565b90508135614392816141a8565b815260208201356143a2816141a8565b602082015260408201356143b5816141a8565b60408201526060820135614360816141a8565b60008060008060008060008060008060006101c08c8e0312156143ea57600080fd5b8b359a506143fa60208d01613b33565b99506001600160401b038060408e0135111561441557600080fd5b6144258e60408f01358f01614138565b99508060608e0135111561443857600080fd5b6144488e60608f01358f01614138565b985061445660808e01613b33565b97508060a08e0135111561446957600080fd5b6144798e60a08f01358f01614138565b965061448760c08e01613b33565b95508060e08e0135111561449a57600080fd5b6144aa8e60e08f01358f01614138565b9450806101008e013511156144be57600080fd5b506144d08d6101008e01358e016141d7565b92506144df6101208d01613b33565b91506144ef8d6101408e0161436b565b90509295989b509295989b9093969950565b6000806040838503121561451457600080fd5b823561451f81613b1e565b9150602083013561452f816141a8565b809150509250929050565b838152600060206060818401526145546060840186613ac6565b83810360408581019190915285518083528387019284019060005b8181101561459d57845180516001600160a01b0316845286015186840152938501939183019160010161456f565b50909998505050505050505050565b600080604083850312156145bf57600080fd5b50508035926020909101359150565b600080600080608085870312156145e457600080fd5b84356145ef81613b1e565b935060208501356145ff81613b1e565b92506040850135915060608501356001600160401b0381111561462157600080fd5b8501601f8101871361463257600080fd5b614641878235602084016140ff565b91505092959194509250565b60006020828403121561465f57600080fd5b81356001600160401b0381111561467557600080fd5b82016101a0818503121561123557600080fd5b60006020828403121561469a57600080fd5b81356001600160401b038111156146b057600080fd5b8201610200818503121561123557600080fd5b600080604083850312156146d657600080fd5b82356146e181613b1e565b9150602083013561452f81613b1e565b600181811c9082168061470557607f821691505b602082108103613d3157634e487b7160e01b600052602260045260246000fd5b601f8211156109f457600081815260208120601f850160051c8101602086101561474c5750805b601f850160051c820191505b8181101561312957828155600101614758565b6001600160401b0383111561478257614782613e76565b6147968361479083546146f1565b83614725565b6000601f8411600181146147ca57600085156147b25750838201355b600019600387901b1c1916600186901b1783556125cf565b600083815260209020601f19861690835b828110156147fb57868501358255602094850194600190920191016147db565b50868210156148185760001960f88860031b161c19848701351681555b505060018560011b0183555050505050565b8183823760009101908152919050565b634e487b7160e01b600052603260045260246000fd5b60006040828403121561486257600080fd5b604051604081018181106001600160401b038211171561488457614884613e76565b604052823581526020928301359281019290925250919050565b8051613b3e816141a8565b6000602082840312156148bb57600080fd5b8151611235816141a8565b6000808335601e198436030181126148dd57600080fd5b8301803591506001600160401b038211156148f757600080fd5b602001915036819003821315613bb057600080fd5b6000808585111561491c57600080fd5b8386111561492957600080fd5b5050820193919092039150565b6001600160e01b0319813581811691600485101561495e5780818660040360031b1b83161692505b505092915050565b60008060006060848603121561497b57600080fd5b83359250602084013561498d81613a6f565b915060408401356001600160401b038111156149a857600080fd5b6149b486828701613f70565b9150509250925092565b84815260606020808301829052908201849052600090859060808401835b87811015614a035761ffff6149f085614183565b16825292820192908201906001016149dc565b50809350505050821515604083015295945050505050565b600082601f830112614a2c57600080fd5b81516020614a3c613f9183613f4d565b82815260059290921b84018101918181019086841115614a5b57600080fd5b8286015b84811015613fd05780518352918301918301614a5f565b60008060408385031215614a8957600080fd5b82516001600160401b03811115614a9f57600080fd5b614aab85828601614a1b565b925050602083015190509250929050565b600060208284031215614ace57600080fd5b61123582614183565b600060208284031215614ae957600080fd5b5051919050565b6001600160a01b038316815260406020820181905260009061240f90830184613e28565b6020808252810182905260006001600160fb1b03831115614b3457600080fd5b8260051b80856040850137919091016040019392505050565b614b6782614b5a83614158565b6001600160681b03169052565b614b736020820161416f565b63ffffffff166020830152614b8a6040820161416f565b63ffffffff166040830152614ba160608201614183565b61ffff166060830152614bb660808201613b33565b6001600160a01b0316608083015260a08181013590830152614bda60c08201614195565b62ffffff1660c0830152614bf060e082016141b6565b151560e0830152610100614c058282016141b6565b151590830152610120614c198282016141b6565b151590830152610140614c2d8282016141b6565b80151584830152610cc1565b6020808252810182905260008360408301825b85811015614c7257614c5e8284614b4d565b610160928301929190910190600101614c4c565b5095945050505050565b600060208284031215614c8e57600080fd5b81516001600160401b03811115614ca457600080fd5b61240f84828501614a1b565b6101808101614cbf8285614b4d565b6001600160a01b03929092166101609190910152919050565b8051613b3e81613b1e565b600060208284031215614cf557600080fd5b815161123581613b1e565b81516001600160401b03811115614d1957614d19613e76565b614d2d81614d2784546146f1565b84614725565b602080601f831160018114614d625760008415614d4a5750858301515b600019600386901b1c1916600185901b178555613129565b600085815260208120601f198616915b82811015614d9157888601518255948401946001909101908401614d72565b5085821015614daf5787850151600019600388901b60f8161c191681555b5050505050600190811b01905550565b602080825282518282018190526000919060409081850190868401855b82811015614e8c57815180516001600160681b031685528681015163ffffffff9081168887015286820151168686015260608082015161ffff16908601526080808201516001600160a01b03169086015260a0808201519086015260c08082015162ffffff169086015260e0808201511515908601526101008082015115159086015261012080820151151590860152610140908101511515908501526101609093019290850190600101614ddc565b5091979650505050505050565b634e487b7160e01b600052601160045260246000fd5b818103818111156108ae576108ae614e99565b808201808211156108ae576108ae614e99565b60006101208284031215614ee857600080fd5b614ef0613ed7565b825181526020830151602082015260408301516040820152606083015160608201526080830151608082015260a083015160a082015260c083015160c0820152614f3c60e08401614cd8565b60e0820152610100928301519281019290925250919050565b600082601f830112614f6657600080fd5b8151614f74613f91826140d8565b818152846020838601011115614f8957600080fd5b61240f826020830160208701613aa2565b600060208284031215614fac57600080fd5b81516001600160401b03811115614fc257600080fd5b61240f84828501614f55565b634e487b7160e01b600052601260045260246000fd5b60008351614ff6818460208801613aa2565b83519083019061500a818360208801613aa2565b01949350505050565b600181815b8085111561504e57816000190482111561503457615034614e99565b8085161561504157918102915b93841c9390800290615018565b509250929050565b600082615065575060016108ae565b81615072575060006108ae565b81600181146150885760028114615092576150ae565b60019150506108ae565b60ff8411156150a3576150a3614e99565b50506001821b6108ae565b5060208310610133831016604e8410600b84101617156150d1575081810a6108ae565b6150db8383615013565b80600019048211156150ef576150ef614e99565b029392505050565b60006112358383615056565b600080600080600060a0868803121561511b57600080fd5b853594506020808701359450604087013561513581613a6f565b93506060870135615145816141a8565b925060808701356001600160401b0381111561516057600080fd5b8701601f8101891361517157600080fd5b803561517f613f9182613f4d565b81815260059190911b8201830190838101908b83111561519e57600080fd5b928401925b828410156151c3576151b484614183565b825292840192908401906151a3565b80955050505050509295509295909350565b6000608082840312156151e757600080fd5b6151ef613e8c565b82516151fa816141a8565b8152602083015161520a816141a8565b6020820152604083015161521d816141a8565b60408201526060830151615230816141a8565b60608201529392505050565b60006020828403121561524e57600080fd5b81516001600160401b038082111561526557600080fd5b90830190610180828603121561527a57600080fd5b615282613efa565b825181526020830151602082015260408301516040820152606083015160608201526080830151608082015260a083015160a08201526152c460c08401614cd8565b60c082015260e083015160e08201526101008084015181830152506101206152ed81850161489e565b908201526101406152ff84820161489e565b90820152610160838101518381111561531757600080fd5b61532388828701614f55565b918301919091525095945050505050565b6001600160a01b038581168252841660208201526040810183905260806060820181905260009061536790830184613ac6565b9695505050505050565b60006020828403121561538357600080fd5b815161123581613a6f565b60008261539d5761539d614fce565b500690565b6000826153b1576153b1614fce565b500490565b6000606082018583526020606081850152818651808452608086019150828801935060005b818110156153fb57845161ffff16835293830193918301916001016153db565b5050809350505050821515604083015294935050505056fe31323334353637383941424344454647484a4b4c4d4e505152535455565758595a6162636465666768696a6b6d6e6f707172737475767778797aa264697066735822122006a0888ae49c53c5ec9349481214e24ecd17d91d09f5716df5072b3c6529017164736f6c63430008140033",
    "linkReferences": {}
  },
  "methodIdentifiers": {
    "adjustTiers((uint104,uint32,uint32,uint16,address,bytes32,uint24,bool,bool,bool,bool)[],uint256[])": "843d92ee",
    "approve(address,uint256)": "095ea7b3",
    "balanceOf(address)": "70a08231",
    "baseURI()": "6c0360eb",
    "codeOrigin()": "1d153ca4",
    "contractURI()": "e8a3d485",
    "creditsOf(address)": "245a45b5",
    "didPay((address,uint256,uint256,(address,uint256,uint256,uint256),(address,uint256,uint256,uint256),uint256,address,bool,string,bytes))": "da9ee8b7",
    "didRedeem((address,uint256,uint256,uint256,(address,uint256,uint256,uint256),(address,uint256,uint256,uint256),address,string,bytes))": "2b13c58f",
    "directory()": "c41c2f24",
    "firstOwnerOf(uint256)": "54c6d1f5",
    "fundingCycleStore()": "557e7155",
    "getApproved(uint256)": "081812fc",
    "initialize(uint256,address,string,string,address,string,address,string,((uint104,uint32,uint32,uint16,address,bytes32,uint24,bool,bool,bool,bool)[],uint48,uint48,address),address,(bool,bool,bool,bool))": "a11606a8",
    "isApprovedForAll(address,address)": "e985e9c5",
    "jbOwner()": "ba23c36e",
    "mintFor(uint16[],address)": "6ac6d941",
    "mintReservesFor((uint256,uint256)[])": "2a596e53",
    "mintReservesFor(uint256,uint256)": "aa4fb15b",
    "name()": "06fdde03",
    "operatorStore()": "ad007d63",
    "owner()": "8da5cb5b",
    "ownerOf(uint256)": "6352211e",
    "payParams((address,address,(address,uint256,uint256,uint256),uint256,uint256,address,uint256,uint256,string,bytes))": "d46cf171",
    "pricingContext()": "08786b1a",
    "projectId()": "3fafa127",
    "projects()": "8b79543c",
    "redeemParams((address,address,uint256,uint256,uint256,uint256,uint256,(address,uint256,uint256,uint256),bool,uint256,string,bytes))": "a51cfd18",
    "redemptionWeightOf(uint256[],(address,address,uint256,uint256,uint256,uint256,uint256,(address,uint256,uint256,uint256),bool,uint256,string,bytes))": "7ba62bf9",
    "renounceOwnership()": "715018a6",
    "safeTransferFrom(address,address,uint256)": "42842e0e",
    "safeTransferFrom(address,address,uint256,bytes)": "b88d4fde",
    "setApprovalForAll(address,bool)": "a22cb465",
    "setMetadata(string,string,address,uint256,bytes32)": "1435aad5",
    "setPermissionIndex(uint8)": "61aec7a9",
    "store()": "975057e7",
    "supportsInterface(bytes4)": "01ffc9a7",
    "symbol()": "95d89b41",
    "tokenURI(uint256)": "c87b56dd",
    "totalRedemptionWeight((address,address,uint256,uint256,uint256,uint256,uint256,(address,uint256,uint256,uint256),bool,uint256,string,bytes))": "9494bf72",
    "transferFrom(address,address,uint256)": "23b872dd",
    "transferOwnership(address)": "f2fde38b",
    "transferOwnershipToProject(uint256)": "a220d696"
  },
  "id": 0
}