{
  "abi": [
    {
      "inputs": [
        {
          "internalType": "uint256",
          "name": "_projectId",
          "type": "uint256"
        },
        {
          "internalType": "contract IJBDirectory",
          "name": "_directory",
          "type": "address"
        },
        {
          "internalType": "string",
          "name": "_name",
          "type": "string"
        },
        {
          "internalType": "string",
          "name": "_symbol",
          "type": "string"
        },
        {
          "internalType": "contract IJBFundingCycleStore",
          "name": "_fundingCycleStore",
          "type": "address"
        },
        {
          "internalType": "string",
          "name": "_baseUri",
          "type": "string"
        },
        {
          "internalType": "contract IJBTokenUriResolver",
          "name": "_tokenUriResolver",
          "type": "address"
        },
        {
          "internalType": "string",
          "name": "_contractUri",
          "type": "string"
        },
        {
          "components": [
            {
              "internalType": "uint256",
              "name": "contributionFloor",
              "type": "uint256"
            },
            {
              "internalType": "uint256",
              "name": "lockedUntil",
              "type": "uint256"
            },
            {
              "internalType": "uint256",
              "name": "initialQuantity",
              "type": "uint256"
            },
            {
              "internalType": "uint256",
              "name": "votingUnits",
              "type": "uint256"
            },
            {
              "internalType": "uint256",
              "name": "reservedRate",
              "type": "uint256"
            },
            {
              "internalType": "address",
              "name": "reservedTokenBeneficiary",
              "type": "address"
            },
            {
              "internalType": "bytes32",
              "name": "encodedIPFSUri",
              "type": "bytes32"
            },
            {
              "internalType": "bool",
              "name": "shouldUseBeneficiaryAsDefault",
              "type": "bool"
            }
          ],
          "internalType": "struct JB721TierParams[]",
          "name": "_tiers",
          "type": "tuple[]"
        },
        {
          "internalType": "contract IJBTiered721DelegateStore",
          "name": "_store",
          "type": "address"
        },
        {
          "components": [
            {
              "internalType": "bool",
              "name": "lockReservedTokenChanges",
              "type": "bool"
            },
            {
              "internalType": "bool",
              "name": "lockVotingUnitChanges",
              "type": "bool"
            }
          ],
          "internalType": "struct JBTiered721Flags",
          "name": "_flags",
          "type": "tuple"
        }
      ],
      "stateMutability": "nonpayable",
      "type": "constructor"
    },
    {
      "inputs": [],
      "name": "ALEADY_MINTED",
      "type": "error"
    },
    {
      "inputs": [],
      "name": "APPROVAL_TO_CURRENT_OWNER",
      "type": "error"
    },
    {
      "inputs": [],
      "name": "APPROVE_TO_CALLER",
      "type": "error"
    },
    {
      "inputs": [],
      "name": "BLOCK_NOT_YET_MINED",
      "type": "error"
    },
    {
      "inputs": [],
      "name": "CALLER_NOT_OWNER_OR_APPROVED",
      "type": "error"
    },
    {
      "inputs": [],
      "name": "INCORRECT_OWNER",
      "type": "error"
    },
    {
      "inputs": [],
      "name": "INVALID",
      "type": "error"
    },
    {
      "inputs": [],
      "name": "INVALID_PAYMENT_EVENT",
      "type": "error"
    },
    {
      "inputs": [],
      "name": "INVALID_REDEMPTION_EVENT",
      "type": "error"
    },
    {
      "inputs": [],
      "name": "INVALID_TOKEN_ID",
      "type": "error"
    },
    {
      "inputs": [],
      "name": "MINT_TO_ZERO",
      "type": "error"
    },
    {
      "inputs": [],
      "name": "NOT_AVAILABLE",
      "type": "error"
    },
    {
      "inputs": [],
      "name": "OVERSPENDING",
      "type": "error"
    },
    {
      "inputs": [
        {
          "internalType": "uint256",
          "name": "prod1",
          "type": "uint256"
        },
        {
          "internalType": "uint256",
          "name": "denominator",
          "type": "uint256"
        }
      ],
      "name": "PRBMath__MulDivOverflow",
      "type": "error"
    },
    {
      "inputs": [],
      "name": "RESERVED_TOKEN_MINTING_PAUSED",
      "type": "error"
    },
    {
      "inputs": [],
      "name": "SIGNATURE_EXPIRED",
      "type": "error"
    },
    {
      "inputs": [],
      "name": "TRANSFERS_PAUSED",
      "type": "error"
    },
    {
      "inputs": [],
      "name": "TRANSFER_TO_NON_IMPLEMENTER",
      "type": "error"
    },
    {
      "inputs": [],
      "name": "TRANSFER_TO_ZERO_ADDRESS",
      "type": "error"
    },
    {
      "inputs": [],
      "name": "UNAUTHORIZED",
      "type": "error"
    },
    {
      "inputs": [],
      "name": "UNEXPECTED",
      "type": "error"
    },
    {
      "anonymous": false,
      "inputs": [
        {
          "indexed": true,
          "internalType": "uint256",
          "name": "tierId",
          "type": "uint256"
        },
        {
          "components": [
            {
              "internalType": "uint256",
              "name": "contributionFloor",
              "type": "uint256"
            },
            {
              "internalType": "uint256",
              "name": "lockedUntil",
              "type": "uint256"
            },
            {
              "internalType": "uint256",
              "name": "initialQuantity",
              "type": "uint256"
            },
            {
              "internalType": "uint256",
              "name": "votingUnits",
              "type": "uint256"
            },
            {
              "internalType": "uint256",
              "name": "reservedRate",
              "type": "uint256"
            },
            {
              "internalType": "address",
              "name": "reservedTokenBeneficiary",
              "type": "address"
            },
            {
              "internalType": "bytes32",
              "name": "encodedIPFSUri",
              "type": "bytes32"
            },
            {
              "internalType": "bool",
              "name": "shouldUseBeneficiaryAsDefault",
              "type": "bool"
            }
          ],
          "indexed": false,
          "internalType": "struct JB721TierParams",
          "name": "data",
          "type": "tuple"
        },
        {
          "indexed": false,
          "internalType": "address",
          "name": "caller",
          "type": "address"
        }
      ],
      "name": "AddTier",
      "type": "event"
    },
    {
      "anonymous": false,
      "inputs": [
        {
          "indexed": true,
          "internalType": "address",
          "name": "owner",
          "type": "address"
        },
        {
          "indexed": true,
          "internalType": "address",
          "name": "approved",
          "type": "address"
        },
        {
          "indexed": true,
          "internalType": "uint256",
          "name": "tokenId",
          "type": "uint256"
        }
      ],
      "name": "Approval",
      "type": "event"
    },
    {
      "anonymous": false,
      "inputs": [
        {
          "indexed": true,
          "internalType": "address",
          "name": "owner",
          "type": "address"
        },
        {
          "indexed": true,
          "internalType": "address",
          "name": "operator",
          "type": "address"
        },
        {
          "indexed": false,
          "internalType": "bool",
          "name": "approved",
          "type": "bool"
        }
      ],
      "name": "ApprovalForAll",
      "type": "event"
    },
    {
      "anonymous": false,
      "inputs": [
        {
          "indexed": true,
          "internalType": "address",
          "name": "delegator",
          "type": "address"
        },
        {
          "indexed": true,
          "internalType": "address",
          "name": "fromDelegate",
          "type": "address"
        },
        {
          "indexed": true,
          "internalType": "address",
          "name": "toDelegate",
          "type": "address"
        }
      ],
      "name": "DelegateChanged",
      "type": "event"
    },
    {
      "anonymous": false,
      "inputs": [
        {
          "indexed": true,
          "internalType": "address",
          "name": "delegate",
          "type": "address"
        },
        {
          "indexed": false,
          "internalType": "uint256",
          "name": "previousBalance",
          "type": "uint256"
        },
        {
          "indexed": false,
          "internalType": "uint256",
          "name": "newBalance",
          "type": "uint256"
        }
      ],
      "name": "DelegateVotesChanged",
      "type": "event"
    },
    {
      "anonymous": false,
      "inputs": [
        {
          "indexed": true,
          "internalType": "uint256",
          "name": "tokenId",
          "type": "uint256"
        },
        {
          "indexed": true,
          "internalType": "uint256",
          "name": "tierId",
          "type": "uint256"
        },
        {
          "indexed": true,
          "internalType": "address",
          "name": "beneficiary",
          "type": "address"
        },
        {
          "indexed": false,
          "internalType": "uint256",
          "name": "totalAmountContributed",
          "type": "uint256"
        },
        {
          "indexed": false,
          "internalType": "address",
          "name": "caller",
          "type": "address"
        }
      ],
      "name": "Mint",
      "type": "event"
    },
    {
      "anonymous": false,
      "inputs": [
        {
          "indexed": true,
          "internalType": "uint256",
          "name": "tokenId",
          "type": "uint256"
        },
        {
          "indexed": true,
          "internalType": "uint256",
          "name": "tierId",
          "type": "uint256"
        },
        {
          "indexed": true,
          "internalType": "address",
          "name": "beneficiary",
          "type": "address"
        },
        {
          "indexed": false,
          "internalType": "address",
          "name": "caller",
          "type": "address"
        }
      ],
      "name": "MintReservedToken",
      "type": "event"
    },
    {
      "anonymous": false,
      "inputs": [
        {
          "indexed": true,
          "internalType": "address",
          "name": "previousOwner",
          "type": "address"
        },
        {
          "indexed": true,
          "internalType": "address",
          "name": "newOwner",
          "type": "address"
        }
      ],
      "name": "OwnershipTransferred",
      "type": "event"
    },
    {
      "anonymous": false,
      "inputs": [
        {
          "indexed": true,
          "internalType": "uint256",
          "name": "tierId",
          "type": "uint256"
        },
        {
          "indexed": false,
          "internalType": "address",
          "name": "caller",
          "type": "address"
        }
      ],
      "name": "RemoveTier",
      "type": "event"
    },
    {
      "anonymous": false,
      "inputs": [
        {
          "indexed": true,
          "internalType": "string",
          "name": "baseUri",
          "type": "string"
        },
        {
          "indexed": false,
          "internalType": "address",
          "name": "caller",
          "type": "address"
        }
      ],
      "name": "SetBaseUri",
      "type": "event"
    },
    {
      "anonymous": false,
      "inputs": [
        {
          "indexed": true,
          "internalType": "string",
          "name": "contractUri",
          "type": "string"
        },
        {
          "indexed": false,
          "internalType": "address",
          "name": "caller",
          "type": "address"
        }
      ],
      "name": "SetContractUri",
      "type": "event"
    },
    {
      "anonymous": false,
      "inputs": [
        {
          "indexed": true,
          "internalType": "address",
          "name": "beneficiary",
          "type": "address"
        },
        {
          "indexed": false,
          "internalType": "address",
          "name": "caller",
          "type": "address"
        }
      ],
      "name": "SetDefaultReservedTokenBeneficiary",
      "type": "event"
    },
    {
      "anonymous": false,
      "inputs": [
        {
          "indexed": true,
          "internalType": "contract IJBTokenUriResolver",
          "name": "newResolver",
          "type": "address"
        },
        {
          "indexed": false,
          "internalType": "address",
          "name": "caller",
          "type": "address"
        }
      ],
      "name": "SetTokenUriResolver",
      "type": "event"
    },
    {
      "anonymous": false,
      "inputs": [],
      "name": "Test",
      "type": "event"
    },
    {
      "anonymous": false,
      "inputs": [
        {
          "indexed": true,
          "internalType": "address",
          "name": "delegator",
          "type": "address"
        },
        {
          "indexed": true,
          "internalType": "address",
          "name": "fromDelegate",
          "type": "address"
        },
        {
          "indexed": true,
          "internalType": "address",
          "name": "toDelegate",
          "type": "address"
        },
        {
          "indexed": false,
          "internalType": "uint256",
          "name": "tierId",
          "type": "uint256"
        },
        {
          "indexed": false,
          "internalType": "address",
          "name": "caller",
          "type": "address"
        }
      ],
      "name": "TierDelegateChanged",
      "type": "event"
    },
    {
      "anonymous": false,
      "inputs": [
        {
          "indexed": true,
          "internalType": "address",
          "name": "delegate",
          "type": "address"
        },
        {
          "indexed": true,
          "internalType": "uint256",
          "name": "tierId",
          "type": "uint256"
        },
        {
          "indexed": false,
          "internalType": "uint256",
          "name": "previousBalance",
          "type": "uint256"
        },
        {
          "indexed": false,
          "internalType": "uint256",
          "name": "newBalance",
          "type": "uint256"
        },
        {
          "indexed": false,
          "internalType": "address",
          "name": "callre",
          "type": "address"
        }
      ],
      "name": "TierDelegateVotesChanged",
      "type": "event"
    },
    {
      "anonymous": false,
      "inputs": [
        {
          "indexed": true,
          "internalType": "address",
          "name": "from",
          "type": "address"
        },
        {
          "indexed": true,
          "internalType": "address",
          "name": "to",
          "type": "address"
        },
        {
          "indexed": true,
          "internalType": "uint256",
          "name": "tokenId",
          "type": "uint256"
        }
      ],
      "name": "Transfer",
      "type": "event"
    },
    {
      "inputs": [],
      "name": "DOMAIN_SEPARATOR",
      "outputs": [
        {
          "internalType": "bytes32",
          "name": "",
          "type": "bytes32"
        }
      ],
      "stateMutability": "view",
      "type": "function"
    },
    {
      "inputs": [
        {
          "components": [
            {
              "internalType": "uint256",
              "name": "contributionFloor",
              "type": "uint256"
            },
            {
              "internalType": "uint256",
              "name": "lockedUntil",
              "type": "uint256"
            },
            {
              "internalType": "uint256",
              "name": "initialQuantity",
              "type": "uint256"
            },
            {
              "internalType": "uint256",
              "name": "votingUnits",
              "type": "uint256"
            },
            {
              "internalType": "uint256",
              "name": "reservedRate",
              "type": "uint256"
            },
            {
              "internalType": "address",
              "name": "reservedTokenBeneficiary",
              "type": "address"
            },
            {
              "internalType": "bytes32",
              "name": "encodedIPFSUri",
              "type": "bytes32"
            },
            {
              "internalType": "bool",
              "name": "shouldUseBeneficiaryAsDefault",
              "type": "bool"
            }
          ],
          "internalType": "struct JB721TierParams[]",
          "name": "_tiersToAdd",
          "type": "tuple[]"
        },
        {
          "internalType": "uint256[]",
          "name": "_tierIdsToRemove",
          "type": "uint256[]"
        }
      ],
      "name": "adjustTiers",
      "outputs": [],
      "stateMutability": "nonpayable",
      "type": "function"
    },
    {
      "inputs": [
        {
          "internalType": "address",
          "name": "to",
          "type": "address"
        },
        {
          "internalType": "uint256",
          "name": "tokenId",
          "type": "uint256"
        }
      ],
      "name": "approve",
      "outputs": [],
      "stateMutability": "nonpayable",
      "type": "function"
    },
    {
      "inputs": [
        {
          "internalType": "address",
          "name": "_owner",
          "type": "address"
        }
      ],
      "name": "balanceOf",
      "outputs": [
        {
          "internalType": "uint256",
          "name": "balance",
          "type": "uint256"
        }
      ],
      "stateMutability": "view",
      "type": "function"
    },
    {
      "inputs": [],
      "name": "contractURI",
      "outputs": [
        {
          "internalType": "string",
          "name": "",
          "type": "string"
        }
      ],
      "stateMutability": "view",
      "type": "function"
    },
    {
      "inputs": [],
      "name": "contributionToken",
      "outputs": [
        {
          "internalType": "address",
          "name": "",
          "type": "address"
        }
      ],
      "stateMutability": "view",
      "type": "function"
    },
    {
      "inputs": [
        {
          "internalType": "address",
          "name": "delegatee",
          "type": "address"
        }
      ],
      "name": "delegate",
      "outputs": [],
      "stateMutability": "nonpayable",
      "type": "function"
    },
    {
      "inputs": [
        {
          "internalType": "address",
          "name": "delegatee",
          "type": "address"
        },
        {
          "internalType": "uint256",
          "name": "nonce",
          "type": "uint256"
        },
        {
          "internalType": "uint256",
          "name": "expiry",
          "type": "uint256"
        },
        {
          "internalType": "uint8",
          "name": "v",
          "type": "uint8"
        },
        {
          "internalType": "bytes32",
          "name": "r",
          "type": "bytes32"
        },
        {
          "internalType": "bytes32",
          "name": "s",
          "type": "bytes32"
        }
      ],
      "name": "delegateBySig",
      "outputs": [],
      "stateMutability": "nonpayable",
      "type": "function"
    },
    {
      "inputs": [
        {
          "internalType": "address",
          "name": "account",
          "type": "address"
        }
      ],
      "name": "delegates",
      "outputs": [
        {
          "internalType": "address",
          "name": "",
          "type": "address"
        }
      ],
      "stateMutability": "view",
      "type": "function"
    },
    {
      "inputs": [
        {
          "components": [
            {
              "internalType": "address",
              "name": "payer",
              "type": "address"
            },
            {
              "internalType": "uint256",
              "name": "projectId",
              "type": "uint256"
            },
            {
              "internalType": "uint256",
              "name": "currentFundingCycleConfiguration",
              "type": "uint256"
            },
            {
              "components": [
                {
                  "internalType": "address",
                  "name": "token",
                  "type": "address"
                },
                {
                  "internalType": "uint256",
                  "name": "value",
                  "type": "uint256"
                },
                {
                  "internalType": "uint256",
                  "name": "decimals",
                  "type": "uint256"
                },
                {
                  "internalType": "uint256",
                  "name": "currency",
                  "type": "uint256"
                }
              ],
              "internalType": "struct JBTokenAmount",
              "name": "amount",
              "type": "tuple"
            },
            {
              "components": [
                {
                  "internalType": "address",
                  "name": "token",
                  "type": "address"
                },
                {
                  "internalType": "uint256",
                  "name": "value",
                  "type": "uint256"
                },
                {
                  "internalType": "uint256",
                  "name": "decimals",
                  "type": "uint256"
                },
                {
                  "internalType": "uint256",
                  "name": "currency",
                  "type": "uint256"
                }
              ],
              "internalType": "struct JBTokenAmount",
              "name": "forwardedAmount",
              "type": "tuple"
            },
            {
              "internalType": "uint256",
              "name": "projectTokenCount",
              "type": "uint256"
            },
            {
              "internalType": "address",
              "name": "beneficiary",
              "type": "address"
            },
            {
              "internalType": "bool",
              "name": "preferClaimedTokens",
              "type": "bool"
            },
            {
              "internalType": "string",
              "name": "memo",
              "type": "string"
            },
            {
              "internalType": "bytes",
              "name": "metadata",
              "type": "bytes"
            }
          ],
          "internalType": "struct JBDidPayData",
          "name": "_data",
          "type": "tuple"
        }
      ],
      "name": "didPay",
      "outputs": [],
      "stateMutability": "payable",
      "type": "function"
    },
    {
      "inputs": [
        {
          "components": [
            {
              "internalType": "address",
              "name": "holder",
              "type": "address"
            },
            {
              "internalType": "uint256",
              "name": "projectId",
              "type": "uint256"
            },
            {
              "internalType": "uint256",
              "name": "currentFundingCycleConfiguration",
              "type": "uint256"
            },
            {
              "internalType": "uint256",
              "name": "projectTokenCount",
              "type": "uint256"
            },
            {
              "components": [
                {
                  "internalType": "address",
                  "name": "token",
                  "type": "address"
                },
                {
                  "internalType": "uint256",
                  "name": "value",
                  "type": "uint256"
                },
                {
                  "internalType": "uint256",
                  "name": "decimals",
                  "type": "uint256"
                },
                {
                  "internalType": "uint256",
                  "name": "currency",
                  "type": "uint256"
                }
              ],
              "internalType": "struct JBTokenAmount",
              "name": "reclaimedAmount",
              "type": "tuple"
            },
            {
              "components": [
                {
                  "internalType": "address",
                  "name": "token",
                  "type": "address"
                },
                {
                  "internalType": "uint256",
                  "name": "value",
                  "type": "uint256"
                },
                {
                  "internalType": "uint256",
                  "name": "decimals",
                  "type": "uint256"
                },
                {
                  "internalType": "uint256",
                  "name": "currency",
                  "type": "uint256"
                }
              ],
              "internalType": "struct JBTokenAmount",
              "name": "forwardedAmount",
              "type": "tuple"
            },
            {
              "internalType": "address payable",
              "name": "beneficiary",
              "type": "address"
            },
            {
              "internalType": "string",
              "name": "memo",
              "type": "string"
            },
            {
              "internalType": "bytes",
              "name": "metadata",
              "type": "bytes"
            }
          ],
          "internalType": "struct JBDidRedeemData",
          "name": "_data",
          "type": "tuple"
        }
      ],
      "name": "didRedeem",
      "outputs": [],
      "stateMutability": "payable",
      "type": "function"
    },
    {
      "inputs": [],
      "name": "directory",
      "outputs": [
        {
          "internalType": "contract IJBDirectory",
          "name": "",
          "type": "address"
        }
      ],
      "stateMutability": "view",
      "type": "function"
    },
    {
      "inputs": [
        {
          "internalType": "uint256",
          "name": "_tokenId",
          "type": "uint256"
        }
      ],
      "name": "firstOwnerOf",
      "outputs": [
        {
          "internalType": "address",
          "name": "",
          "type": "address"
        }
      ],
      "stateMutability": "view",
      "type": "function"
    },
    {
      "inputs": [],
      "name": "fundingCycleStore",
      "outputs": [
        {
          "internalType": "contract IJBFundingCycleStore",
          "name": "",
          "type": "address"
        }
      ],
      "stateMutability": "view",
      "type": "function"
    },
    {
      "inputs": [
        {
          "internalType": "uint256",
          "name": "tokenId",
          "type": "uint256"
        }
      ],
      "name": "getApproved",
      "outputs": [
        {
          "internalType": "address",
          "name": "",
          "type": "address"
        }
      ],
      "stateMutability": "view",
      "type": "function"
    },
    {
      "inputs": [
        {
          "internalType": "uint256",
          "name": "_tier",
          "type": "uint256"
        },
        {
          "internalType": "uint256",
          "name": "_blockNumber",
          "type": "uint256"
        }
      ],
      "name": "getPastTierTotalVotes",
      "outputs": [
        {
          "internalType": "uint256",
          "name": "",
          "type": "uint256"
        }
      ],
      "stateMutability": "view",
      "type": "function"
    },
    {
      "inputs": [
        {
          "internalType": "address",
          "name": "_account",
          "type": "address"
        },
        {
          "internalType": "uint256",
          "name": "_tier",
          "type": "uint256"
        },
        {
          "internalType": "uint256",
          "name": "_blockNumber",
          "type": "uint256"
        }
      ],
      "name": "getPastTierVotes",
      "outputs": [
        {
          "internalType": "uint256",
          "name": "",
          "type": "uint256"
        }
      ],
      "stateMutability": "view",
      "type": "function"
    },
    {
      "inputs": [
        {
          "internalType": "uint256",
          "name": "blockNumber",
          "type": "uint256"
        }
      ],
      "name": "getPastTotalSupply",
      "outputs": [
        {
          "internalType": "uint256",
          "name": "",
          "type": "uint256"
        }
      ],
      "stateMutability": "view",
      "type": "function"
    },
    {
      "inputs": [
        {
          "internalType": "address",
          "name": "account",
          "type": "address"
        },
        {
          "internalType": "uint256",
          "name": "blockNumber",
          "type": "uint256"
        }
      ],
      "name": "getPastVotes",
      "outputs": [
        {
          "internalType": "uint256",
          "name": "",
          "type": "uint256"
        }
      ],
      "stateMutability": "view",
      "type": "function"
    },
    {
      "inputs": [
        {
          "internalType": "address",
          "name": "_account",
          "type": "address"
        },
        {
          "internalType": "uint256",
          "name": "_tier",
          "type": "uint256"
        }
      ],
      "name": "getTierDelegate",
      "outputs": [
        {
          "internalType": "address",
          "name": "",
          "type": "address"
        }
      ],
      "stateMutability": "view",
      "type": "function"
    },
    {
      "inputs": [
        {
          "internalType": "uint256",
          "name": "_tier",
          "type": "uint256"
        }
      ],
      "name": "getTierTotalVotes",
      "outputs": [
        {
          "internalType": "uint256",
          "name": "",
          "type": "uint256"
        }
      ],
      "stateMutability": "view",
      "type": "function"
    },
    {
      "inputs": [
        {
          "internalType": "address",
          "name": "_account",
          "type": "address"
        },
        {
          "internalType": "uint256",
          "name": "_tier",
          "type": "uint256"
        }
      ],
      "name": "getTierVotes",
      "outputs": [
        {
          "internalType": "uint256",
          "name": "",
          "type": "uint256"
        }
      ],
      "stateMutability": "view",
      "type": "function"
    },
    {
      "inputs": [
        {
          "internalType": "address",
          "name": "account",
          "type": "address"
        }
      ],
      "name": "getVotes",
      "outputs": [
        {
          "internalType": "uint256",
          "name": "",
          "type": "uint256"
        }
      ],
      "stateMutability": "view",
      "type": "function"
    },
    {
      "inputs": [
        {
          "internalType": "address",
          "name": "owner",
          "type": "address"
        },
        {
          "internalType": "address",
          "name": "operator",
          "type": "address"
        }
      ],
      "name": "isApprovedForAll",
      "outputs": [
        {
          "internalType": "bool",
          "name": "",
          "type": "bool"
        }
      ],
      "stateMutability": "view",
      "type": "function"
    },
    {
      "inputs": [
        {
          "internalType": "uint256",
          "name": "_tierId",
          "type": "uint256"
        },
        {
          "internalType": "uint256",
          "name": "_count",
          "type": "uint256"
        }
      ],
      "name": "mintReservesFor",
      "outputs": [],
      "stateMutability": "nonpayable",
      "type": "function"
    },
    {
      "inputs": [],
      "name": "name",
      "outputs": [
        {
          "internalType": "string",
          "name": "",
          "type": "string"
        }
      ],
      "stateMutability": "view",
      "type": "function"
    },
    {
      "inputs": [
        {
          "internalType": "address",
          "name": "owner",
          "type": "address"
        }
      ],
      "name": "nonces",
      "outputs": [
        {
          "internalType": "uint256",
          "name": "",
          "type": "uint256"
        }
      ],
      "stateMutability": "view",
      "type": "function"
    },
    {
      "inputs": [],
      "name": "owner",
      "outputs": [
        {
          "internalType": "address",
          "name": "",
          "type": "address"
        }
      ],
      "stateMutability": "view",
      "type": "function"
    },
    {
      "inputs": [
        {
          "internalType": "uint256",
          "name": "tokenId",
          "type": "uint256"
        }
      ],
      "name": "ownerOf",
      "outputs": [
        {
          "internalType": "address",
          "name": "",
          "type": "address"
        }
      ],
      "stateMutability": "view",
      "type": "function"
    },
    {
      "inputs": [
        {
          "components": [
            {
              "internalType": "contract IJBPaymentTerminal",
              "name": "terminal",
              "type": "address"
            },
            {
              "internalType": "address",
              "name": "payer",
              "type": "address"
            },
            {
              "components": [
                {
                  "internalType": "address",
                  "name": "token",
                  "type": "address"
                },
                {
                  "internalType": "uint256",
                  "name": "value",
                  "type": "uint256"
                },
                {
                  "internalType": "uint256",
                  "name": "decimals",
                  "type": "uint256"
                },
                {
                  "internalType": "uint256",
                  "name": "currency",
                  "type": "uint256"
                }
              ],
              "internalType": "struct JBTokenAmount",
              "name": "amount",
              "type": "tuple"
            },
            {
              "internalType": "uint256",
              "name": "projectId",
              "type": "uint256"
            },
            {
              "internalType": "uint256",
              "name": "currentFundingCycleConfiguration",
              "type": "uint256"
            },
            {
              "internalType": "address",
              "name": "beneficiary",
              "type": "address"
            },
            {
              "internalType": "uint256",
              "name": "weight",
              "type": "uint256"
            },
            {
              "internalType": "uint256",
              "name": "reservedRate",
              "type": "uint256"
            },
            {
              "internalType": "string",
              "name": "memo",
              "type": "string"
            },
            {
              "internalType": "bytes",
              "name": "metadata",
              "type": "bytes"
            }
          ],
          "internalType": "struct JBPayParamsData",
          "name": "_data",
          "type": "tuple"
        }
      ],
      "name": "payParams",
      "outputs": [
        {
          "internalType": "uint256",
          "name": "weight",
          "type": "uint256"
        },
        {
          "internalType": "string",
          "name": "memo",
          "type": "string"
        },
        {
          "components": [
            {
              "internalType": "contract IJBPayDelegate",
              "name": "delegate",
              "type": "address"
            },
            {
              "internalType": "uint256",
              "name": "amount",
              "type": "uint256"
            }
          ],
          "internalType": "struct JBPayDelegateAllocation[]",
          "name": "delegateAllocations",
          "type": "tuple[]"
        }
      ],
      "stateMutability": "view",
      "type": "function"
    },
    {
      "inputs": [],
      "name": "projectId",
      "outputs": [
        {
          "internalType": "uint256",
          "name": "",
          "type": "uint256"
        }
      ],
      "stateMutability": "view",
      "type": "function"
    },
    {
      "inputs": [
        {
          "components": [
            {
              "internalType": "contract IJBPaymentTerminal",
              "name": "terminal",
              "type": "address"
            },
            {
              "internalType": "address",
              "name": "holder",
              "type": "address"
            },
            {
              "internalType": "uint256",
              "name": "projectId",
              "type": "uint256"
            },
            {
              "internalType": "uint256",
              "name": "currentFundingCycleConfiguration",
              "type": "uint256"
            },
            {
              "internalType": "uint256",
              "name": "tokenCount",
              "type": "uint256"
            },
            {
              "internalType": "uint256",
              "name": "totalSupply",
              "type": "uint256"
            },
            {
              "internalType": "uint256",
              "name": "overflow",
              "type": "uint256"
            },
            {
              "components": [
                {
                  "internalType": "address",
                  "name": "token",
                  "type": "address"
                },
                {
                  "internalType": "uint256",
                  "name": "value",
                  "type": "uint256"
                },
                {
                  "internalType": "uint256",
                  "name": "decimals",
                  "type": "uint256"
                },
                {
                  "internalType": "uint256",
                  "name": "currency",
                  "type": "uint256"
                }
              ],
              "internalType": "struct JBTokenAmount",
              "name": "reclaimAmount",
              "type": "tuple"
            },
            {
              "internalType": "bool",
              "name": "useTotalOverflow",
              "type": "bool"
            },
            {
              "internalType": "uint256",
              "name": "redemptionRate",
              "type": "uint256"
            },
            {
              "internalType": "string",
              "name": "memo",
              "type": "string"
            },
            {
              "internalType": "bytes",
              "name": "metadata",
              "type": "bytes"
            }
          ],
          "internalType": "struct JBRedeemParamsData",
          "name": "_data",
          "type": "tuple"
        }
      ],
      "name": "redeemParams",
      "outputs": [
        {
          "internalType": "uint256",
          "name": "reclaimAmount",
          "type": "uint256"
        },
        {
          "internalType": "string",
          "name": "memo",
          "type": "string"
        },
        {
          "components": [
            {
              "internalType": "contract IJBRedemptionDelegate",
              "name": "delegate",
              "type": "address"
            },
            {
              "internalType": "uint256",
              "name": "amount",
              "type": "uint256"
            }
          ],
          "internalType": "struct JBRedemptionDelegateAllocation[]",
          "name": "delegateAllocations",
          "type": "tuple[]"
        }
      ],
      "stateMutability": "view",
      "type": "function"
    },
    {
      "inputs": [],
      "name": "renounceOwnership",
      "outputs": [],
      "stateMutability": "nonpayable",
      "type": "function"
    },
    {
      "inputs": [
        {
          "internalType": "address",
          "name": "from",
          "type": "address"
        },
        {
          "internalType": "address",
          "name": "to",
          "type": "address"
        },
        {
          "internalType": "uint256",
          "name": "tokenId",
          "type": "uint256"
        }
      ],
      "name": "safeTransferFrom",
      "outputs": [],
      "stateMutability": "nonpayable",
      "type": "function"
    },
    {
      "inputs": [
        {
          "internalType": "address",
          "name": "from",
          "type": "address"
        },
        {
          "internalType": "address",
          "name": "to",
          "type": "address"
        },
        {
          "internalType": "uint256",
          "name": "tokenId",
          "type": "uint256"
        },
        {
          "internalType": "bytes",
          "name": "data",
          "type": "bytes"
        }
      ],
      "name": "safeTransferFrom",
      "outputs": [],
      "stateMutability": "nonpayable",
      "type": "function"
    },
    {
      "inputs": [
        {
          "internalType": "address",
          "name": "operator",
          "type": "address"
        },
        {
          "internalType": "bool",
          "name": "approved",
          "type": "bool"
        }
      ],
      "name": "setApprovalForAll",
      "outputs": [],
      "stateMutability": "nonpayable",
      "type": "function"
    },
    {
      "inputs": [
        {
          "internalType": "string",
          "name": "_baseUri",
          "type": "string"
        }
      ],
      "name": "setBaseUri",
      "outputs": [],
      "stateMutability": "nonpayable",
      "type": "function"
    },
    {
      "inputs": [
        {
          "internalType": "string",
          "name": "_contractUri",
          "type": "string"
        }
      ],
      "name": "setContractUri",
      "outputs": [],
      "stateMutability": "nonpayable",
      "type": "function"
    },
    {
      "inputs": [
        {
          "internalType": "address",
          "name": "_beneficiary",
          "type": "address"
        }
      ],
      "name": "setDefaultReservedTokenBeneficiary",
      "outputs": [],
      "stateMutability": "nonpayable",
      "type": "function"
    },
    {
      "inputs": [
        {
          "internalType": "address",
          "name": "_delegatee",
          "type": "address"
        },
        {
          "internalType": "uint256",
          "name": "_tierId",
          "type": "uint256"
        }
      ],
      "name": "setTierDelegate",
      "outputs": [],
      "stateMutability": "nonpayable",
      "type": "function"
    },
    {
      "inputs": [
        {
          "internalType": "contract IJBTokenUriResolver",
          "name": "_tokenUriResolver",
          "type": "address"
        }
      ],
      "name": "setTokenUriResolver",
      "outputs": [],
      "stateMutability": "nonpayable",
      "type": "function"
    },
    {
      "inputs": [],
      "name": "store",
      "outputs": [
        {
          "internalType": "contract IJBTiered721DelegateStore",
          "name": "",
          "type": "address"
        }
      ],
      "stateMutability": "view",
      "type": "function"
    },
    {
      "inputs": [
        {
          "internalType": "bytes4",
          "name": "_interfaceId",
          "type": "bytes4"
        }
      ],
      "name": "supportsInterface",
      "outputs": [
        {
          "internalType": "bool",
          "name": "",
          "type": "bool"
        }
      ],
      "stateMutability": "view",
      "type": "function"
    },
    {
      "inputs": [],
      "name": "symbol",
      "outputs": [
        {
          "internalType": "string",
          "name": "",
          "type": "string"
        }
      ],
      "stateMutability": "view",
      "type": "function"
    },
    {
      "inputs": [
        {
          "internalType": "uint256",
          "name": "_tokenId",
          "type": "uint256"
        }
      ],
      "name": "tokenURI",
      "outputs": [
        {
          "internalType": "string",
          "name": "",
          "type": "string"
        }
      ],
      "stateMutability": "view",
      "type": "function"
    },
    {
      "inputs": [
        {
          "internalType": "address",
          "name": "from",
          "type": "address"
        },
        {
          "internalType": "address",
          "name": "to",
          "type": "address"
        },
        {
          "internalType": "uint256",
          "name": "tokenId",
          "type": "uint256"
        }
      ],
      "name": "transferFrom",
      "outputs": [],
      "stateMutability": "nonpayable",
      "type": "function"
    },
    {
      "inputs": [
        {
          "internalType": "address",
          "name": "newOwner",
          "type": "address"
        }
      ],
      "name": "transferOwnership",
      "outputs": [],
      "stateMutability": "nonpayable",
      "type": "function"
    }
  ],
  "bytecode": {
    "object": "0x6101e060405261eeee6101c0523480156200001957600080fd5b5060405162005959380380620059598339810160408190526200003c916200071f565b6040805180820190915260018152603160f81b602082015289908c8c838c818160006200006a838262000917565b50600162000079828262000917565b505050608093909352506001600160a01b031660a0525081516020808401919091208251918301919091206101208290526101408190524660e0527f8b73c3c69bb8fe3d512ecc4cf759cc79239f7b179b0ffacaa9a75d522b39400f620001258184846040805160208101859052908101839052606081018290524660808201523060a082015260009060c0016040516020818303038152906040528051906020012090509392505050565b60c05230610100526101605250620001499250620001439150503390565b6200040b565b6001600160a01b038088166101a052821661018052855115620001c9576040516331315e5960e11b81526001600160a01b03831690636262bcb29062000194908990600401620009e3565b600060405180830381600087803b158015620001af57600080fd5b505af1158015620001c4573d6000803e3d6000fd5b505050505b835115620002345760405163d67b78fd60e01b81526001600160a01b0383169063d67b78fd90620001ff908790600401620009e3565b600060405180830381600087803b1580156200021a57600080fd5b505af11580156200022f573d6000803e3d6000fd5b505050505b6001600160a01b03851615620002a25760405163036129cb60e61b81526001600160a01b03868116600483015283169063d84a72c090602401600060405180830381600087803b1580156200028857600080fd5b505af11580156200029d573d6000803e3d6000fd5b505050505b82511562000324576040516309d865d560e21b81526001600160a01b03831690632761975490620002d890869060040162000a18565b6000604051808303816000875af1158015620002f8573d6000803e3d6000fd5b505050506040513d6000823e601f3d908101601f1916820160405262000322919081019062000ab2565b505b8051156200038c5780516040516303e6ca0360e11b815290151560048201526001600160a01b038316906307cd940690602401600060405180830381600087803b1580156200037257600080fd5b505af115801562000387573d6000803e3d6000fd5b505050505b806020015115620003fa576020810151604051631877d7b160e01b815290151560048201526001600160a01b03831690631877d7b190602401600060405180830381600087803b158015620003e057600080fd5b505af1158015620003f5573d6000803e3d6000fd5b505050505b505050505050505050505062000b4b565b600980546001600160a01b038381166001600160a01b0319831681179093556040519116919082907f8be0079c531659141344cd1fd0a4f28419497f9722a3daafe3b4186f6b6457e090600090a35050565b6001600160a01b03811681146200047357600080fd5b50565b805162000483816200045d565b919050565b634e487b7160e01b600052604160045260246000fd5b60405161010081016001600160401b0381118282101715620004c457620004c462000488565b60405290565b604051601f8201601f191681016001600160401b0381118282101715620004f557620004f562000488565b604052919050565b60005b838110156200051a57818101518382015260200162000500565b50506000910152565b600082601f8301126200053557600080fd5b81516001600160401b0381111562000551576200055162000488565b62000566601f8201601f1916602001620004ca565b8181528460208386010111156200057c57600080fd5b6200058f826020830160208701620004fd565b949350505050565b60006001600160401b03821115620005b357620005b362000488565b5060051b60200190565b805180151581146200048357600080fd5b600082601f830112620005e057600080fd5b81516020620005f9620005f38362000597565b620004ca565b82815260089290921b840181019181810190868411156200061957600080fd5b8286015b84811015620006af576101008189031215620006395760008081fd5b620006436200049e565b81518152848201518582015260408083015190820152606080830151908201526080808301519082015260a0808301516200067e816200045d565b9082015260c0828101519082015260e06200069b818401620005bd565b90820152835291830191610100016200061d565b509695505050505050565b600060408284031215620006cd57600080fd5b604080519081016001600160401b0381118282101715620006f257620006f262000488565b6040529050806200070383620005bd565b81526200071360208401620005bd565b60208201525092915050565b60008060008060008060008060008060006101808c8e0312156200074257600080fd5b8b519a506200075460208d0162000476565b60408d0151909a506001600160401b038111156200077157600080fd5b6200077f8e828f0162000523565b60608e0151909a5090506001600160401b038111156200079e57600080fd5b620007ac8e828f0162000523565b985050620007bd60808d0162000476565b60a08d01519097506001600160401b03811115620007da57600080fd5b620007e88e828f0162000523565b965050620007f960c08d0162000476565b60e08d01519095506001600160401b038111156200081657600080fd5b620008248e828f0162000523565b6101008e015190955090506001600160401b038111156200084457600080fd5b620008528e828f01620005ce565b935050620008646101208d0162000476565b9150620008768d6101408e01620006ba565b90509295989b509295989b9093969950565b600181811c908216806200089d57607f821691505b602082108103620008be57634e487b7160e01b600052602260045260246000fd5b50919050565b601f8211156200091257600081815260208120601f850160051c81016020861015620008ed5750805b601f850160051c820191505b818110156200090e57828155600101620008f9565b5050505b505050565b81516001600160401b0381111562000933576200093362000488565b6200094b8162000944845462000888565b84620008c4565b602080601f8311600181146200098357600084156200096a5750858301515b600019600386901b1c1916600185901b1785556200090e565b600085815260208120601f198616915b82811015620009b45788860151825594840194600190910190840162000993565b5085821015620009d35787850151600019600388901b60f8161c191681555b5050505050600190811b01905550565b602081526000825180602084015262000a04816040850160208701620004fd565b601f01601f19169190910160400192915050565b602080825282518282018190526000919060409081850190868401855b8281101562000aa55781518051855286810151878601528581015186860152606080820151908601526080808201519086015260a0808201516001600160a01b03169086015260c0808201519086015260e090810151151590850152610100909301929085019060010162000a35565b5091979650505050505050565b6000602080838503121562000ac657600080fd5b82516001600160401b0381111562000add57600080fd5b8301601f8101851362000aef57600080fd5b805162000b00620005f38262000597565b81815260059190911b8201830190838101908783111562000b2057600080fd5b928401925b8284101562000b405783518252928401929084019062000b25565b979650505050505050565b60805160a05160c05160e05161010051610120516101405161016051610180516101a0516101c051614c9262000cc76000396000818161043a0152612bb201526000818161048e0152818161156a0152612d8e01526000818161064601528181610b0501528181610dd401528181610ede0152818161101b0152818161113a0152818161122e0152818161162d015281816116d00152818161191701528181611a4101528181611acc01528181611bc401528181611f0301528181611fb2015281816127fe0152818161284d01528181612e6b01528181612f0c01528181612f8d0152818161303501528181613105015281816132a20152818161380c015261396701526000612479015260006124c8015260006124a3015260006123fc01526000612426015260006124500152600081816107a901528181610be70152611e110152600081816103e601528181610bbb01528181610c640152818161154101528181611de501528181611e8e0152612d650152614c926000f3fe6080604052600436106102885760003560e01c806394c5c5ca1161015a578063c41c2f24116100c1578063d46cf1711161007a578063d46cf1711461086b578063da9ee8b71461088b578063df487e261461089e578063e8a3d485146108be578063e985e9c5146108d3578063f2fde38b1461091c57600080fd5b8063c41c2f2414610797578063c87b56dd146107cb578063ca323efe146107eb578063ccb4807b1461080b578063d31cc52c1461082b578063d40e71461461084b57600080fd5b8063a22cb46511610113578063a22cb465146106c8578063a51cfd18146106e8578063aa4fb15b14610717578063ab951e3914610737578063b88d4fde14610757578063c3cda5201461077757600080fd5b806394c5c5ca146105ff57806395d89b411461061f578063975057e7146106345780639ab24eb0146106685780639d927a5014610688578063a0bcfc7f146106a857600080fd5b80634bedf9a8116101fe57806370a08231116101b757806370a0823114610529578063715018a6146105495780637ecebe001461055e57806382732b6d1461057e5780638da5cb5b146105c15780638e539e8c146105df57600080fd5b80634bedf9a81461042857806354c6d1f51461045c578063557e71551461047c578063587cde1e146104b05780635c19a95c146104e95780636352211e1461050957600080fd5b80632407497e116102505780632407497e1461035e5780632b13c58f1461037e5780633644e515146103915780633a46b1a8146103b45780633fafa127146103d457806342842e0e1461040857600080fd5b806301ffc9a71461028d57806306fdde03146102c2578063081812fc146102e4578063095ea7b31461031c57806323b872dd1461033e575b600080fd5b34801561029957600080fd5b506102ad6102a8366004613df7565b61093c565b60405190151581526020015b60405180910390f35b3480156102ce57600080fd5b506102d7610967565b6040516102b99190613e64565b3480156102f057600080fd5b506103046102ff366004613e77565b6109f9565b6040516001600160a01b0390911681526020016102b9565b34801561032857600080fd5b5061033c610337366004613ea5565b610a20565b005b34801561034a57600080fd5b5061033c610359366004613ed1565b610aac565b34801561036a57600080fd5b5061033c610379366004613f12565b610ade565b61033c61038c366004613f42565b610ba3565b34801561039d57600080fd5b506103a6610d58565b6040519081526020016102b9565b3480156103c057600080fd5b506103a66103cf366004613ea5565b610d67565b3480156103e057600080fd5b506103a67f000000000000000000000000000000000000000000000000000000000000000081565b34801561041457600080fd5b5061033c610423366004613ed1565b610d90565b34801561043457600080fd5b506103047f000000000000000000000000000000000000000000000000000000000000000081565b34801561046857600080fd5b50610304610477366004613e77565b610dab565b34801561048857600080fd5b506103047f000000000000000000000000000000000000000000000000000000000000000081565b3480156104bc57600080fd5b506103046104cb366004613f12565b6001600160a01b039081166000908152600560205260409020541690565b3480156104f557600080fd5b5061033c610504366004613f12565b610e73565b34801561051557600080fd5b50610304610524366004613e77565b610e80565b34801561053557600080fd5b506103a6610544366004613f12565b610eb6565b34801561055557600080fd5b5061033c610f4c565b34801561056a57600080fd5b506103a6610579366004613f12565b610f60565b34801561058a57600080fd5b50610304610599366004613ea5565b6001600160a01b039182166000908152600a6020908152604080832093835292905220541690565b3480156105cd57600080fd5b506009546001600160a01b0316610304565b3480156105eb57600080fd5b506103a66105fa366004613e77565b610f7e565b34801561060b57600080fd5b506103a661061a366004613e77565b610fab565b34801561062b57600080fd5b506102d7610fc2565b34801561064057600080fd5b506103047f000000000000000000000000000000000000000000000000000000000000000081565b34801561067457600080fd5b506103a6610683366004613f12565b610fd1565b34801561069457600080fd5b5061033c6106a3366004613f76565b610ff2565b3480156106b457600080fd5b5061033c6106c3366004614111565b61120f565b3480156106d457600080fd5b5061033c6106e3366004614167565b6112da565b3480156106f457600080fd5b50610708610703366004613f42565b6112e9565b6040516102b9939291906141a0565b34801561072357600080fd5b5061033c610732366004614212565b611532565b34801561074357600080fd5b5061033c610752366004613ea5565b6117b9565b34801561076357600080fd5b5061033c610772366004614234565b6117c4565b34801561078357600080fd5b5061033c6107923660046142b3565b6117fd565b3480156107a357600080fd5b506103047f000000000000000000000000000000000000000000000000000000000000000081565b3480156107d757600080fd5b506102d76107e6366004613e77565b6118cc565b3480156107f757600080fd5b506103a6610806366004613ea5565b611b79565b34801561081757600080fd5b5061033c610826366004614315565b611ba5565b34801561083757600080fd5b506103a6610846366004614212565b611c7b565b34801561085757600080fd5b506103a6610866366004614386565b611cb5565b34801561087757600080fd5b506107086108863660046143bb565b611cea565b61033c6108993660046143f6565b611dcd565b3480156108aa57600080fd5b5061033c6108b9366004613f12565b611edc565b3480156108ca57600080fd5b506102d7611f9a565b3480156108df57600080fd5b506102ad6108ee366004614431565b6001600160a01b03918216600090815260046020908152604080832093909416825291909152205460ff1690565b34801561092857600080fd5b5061033c610937366004613f12565b612029565b60006001600160e01b0319821663ad30154d60e01b14806109615750610961826120a4565b92915050565b6060600080546109769061445f565b80601f01602080910402602001604051908101604052809291908181526020018280546109a29061445f565b80156109ef5780601f106109c4576101008083540402835291602001916109ef565b820191906000526020600020905b8154815290600101906020018083116109d257829003601f168201915b5050505050905090565b6000610a048261211a565b506000908152600360205260409020546001600160a01b031690565b6000610a2b82610e80565b9050806001600160a01b0316836001600160a01b031603610a5f5760405163133f8be960e01b815260040160405180910390fd5b336001600160a01b03821614801590610a7f5750610a7d81336108ee565b155b15610a9d5760405163e5fa0e3560e01b815260040160405180910390fd5b610aa7838361214f565b505050565b610ab633826121bd565b610ad35760405163e5fa0e3560e01b815260040160405180910390fd5b610aa783838361223b565b610ae6612314565b60405163036129cb60e61b81526001600160a01b0382811660048301527f0000000000000000000000000000000000000000000000000000000000000000169063d84a72c090602401600060405180830381600087803b158015610b4957600080fd5b505af1158015610b5d573d6000803e3d6000fd5b50506040513381526001600160a01b03841692507fe7784d93cfbfa4408e19577e6cc0436f4dbb51214b70e100905dfce9def88c1691506020015b60405180910390a250565b34151580610c5c5750604051636e49181f60e01b81527f000000000000000000000000000000000000000000000000000000000000000060048201523360248201527f00000000000000000000000000000000000000000000000000000000000000006001600160a01b031690636e49181f90604401602060405180830381865afa158015610c36573d6000803e3d6000fd5b505050506040513d601f19601f82011682018060405250810190610c5a9190614493565b155b80610c8b57507f0000000000000000000000000000000000000000000000000000000000000000816020013514155b15610ca957604051633efca5c360e11b815260040160405180910390fd5b6000610cb96101c08301836144b0565b810190610cc69190614519565b80519091506000805b82811015610d5157838181518110610ce957610ce96145a9565b60200260200101519150846000016020810190610d069190613f12565b6000838152600260205260409020546001600160a01b03908116911614610d405760405163075fd2b160e01b815260040160405180910390fd5b610d498261236e565b600101610ccf565b5050505050565b6000610d626123ef565b905090565b6001600160a01b0382166000908152600660205260408120610d899083612516565b9392505050565b610aa7838383604051806020016040528060008152506117c4565b6040516308ed6c0160e41b81523060048201526024810182905260009081906001600160a01b037f00000000000000000000000000000000000000000000000000000000000000001690638ed6c01090604401602060405180830381865afa158015610e1b573d6000803e3d6000fd5b505050506040513d601f19601f82011682018060405250810190610e3f91906145cf565b90506001600160a01b03811615610e565792915050565b50506000908152600260205260409020546001600160a01b031690565b610e7d3382612625565b50565b6000818152600260205260408120546001600160a01b0316806109615760405163b49aa3b560e01b815260040160405180910390fd5b604051633de222bb60e21b81523060048201526001600160a01b0382811660248301526000917f00000000000000000000000000000000000000000000000000000000000000009091169063f7888aec906044015b602060405180830381865afa158015610f28573d6000803e3d6000fd5b505050506040513d601f19601f8201168201806040525081019061096191906145ec565b610f54612314565b610f5e6000612697565b565b6001600160a01b038116600090815260086020526040812054610961565b6000438210610fa0576040516305b5e09b60e51b815260040160405180910390fd5b610961600783612516565b6000818152600c60205260408120610961906126e9565b6060600180546109769061445f565b6001600160a01b0381166000908152600660205260408120610961906126e9565b610ffa612314565b82801561111c576040516309d865d560e21b81526000906001600160a01b037f000000000000000000000000000000000000000000000000000000000000000016906327619754906110529089908990600401614672565b6000604051808303816000875af1158015611071573d6000803e3d6000fd5b505050506040513d6000823e601f3d908101601f191682016040526110999190810190614711565b905060005b82811015611119578181815181106110b8576110b86145a9565b60200260200101517ff2f59fef50c01641d6562b4ceb2f10dbbea88250f8d4fb2f77f42d397b00210c8888848181106110f3576110f36145a9565b9050610100020133604051611109929190614745565b60405180910390a260010161109e565b50505b818015611207576040516320512ba160e01b81526001600160a01b037f000000000000000000000000000000000000000000000000000000000000000016906320512ba190611171908790879060040161476d565b600060405180830381600087803b15801561118b57600080fd5b505af115801561119f573d6000803e3d6000fd5b5050505060005b81811015611205578484828181106111c0576111c06145a9565b60405133815260209182029390930135927f832d89d991be5351d793c20faf4b7dd44f8aa9ce39e3cb160c6317de6fbba72992500160405180910390a26001016111a6565b505b505050505050565b611217612314565b6040516331315e5960e11b81526001600160a01b037f00000000000000000000000000000000000000000000000000000000000000001690636262bcb290611263908490600401613e64565b600060405180830381600087803b15801561127d57600080fd5b505af1158015611291573d6000803e3d6000fd5b50505050806040516112a391906147a6565b604051908190038120338252907f7bc9110d5de090dd59e07912d2b93a5a27ac70a60c8d8e324db4f9ee8b8b5c1390602001610b98565b6112e5338383612745565b5050565b6040805160018082528183019092526000916060918291816020015b60408051808201909152600080825260208201528152602001906001900390816113055790505090506040518060400160405280306001600160a01b03168152602001600081525081600081518110611360576113606145a9565b602090810291909101015260808401351561138e57604051637b52876960e01b815260040160405180910390fd5b8361018001356000036113f35760006113ab6101a08601866144b0565b8382828080601f01602080910402602001604051908101604052809392919081815260200183838082843760009201919091525096995091975091955061152b945050505050565b60006114186114066101c08701876144b0565b8101906114139190614519565b6127e4565b90506000611424612835565b905060006114378760c0013584846128c0565b9050612710876101800135036114a157806114566101a08901896144b0565b8682828080601f016020809104026020016040519081016040528093929190818152602001838380828437600092019190915250969c50919a5091985061152b975050505050505050565b6114d7816114c0856114ba6101808c01356127106147d8565b866128c0565b6114cf906101808b01356147eb565b6127106128c0565b6114e56101a08901896144b0565b8682828080601f016020809104026020016040519081016040528093929190818152602001838380828437600092019190915250969c50919a5091985050505050505050505b9193909250565b6040516321d1336160e11b81527f000000000000000000000000000000000000000000000000000000000000000060048201526000907f00000000000000000000000000000000000000000000000000000000000000006001600160a01b0316906343a266c29060240161012060405180830381865afa1580156115ba573d6000803e3d6000fd5b505050506040513d601f19601f820116820180604052508101906115de91906147fe565b61010081015190915060f51c60019081160361160d57604051631d2c125760e31b815260040160405180910390fd5b604051635d53f40760e11b815260048101849052602481018390526000907f00000000000000000000000000000000000000000000000000000000000000006001600160a01b03169063baa7e80e906044016000604051808303816000875af115801561167e573d6000803e3d6000fd5b505050506040513d6000823e601f3d908101601f191682016040526116a69190810190614711565b6040516304db994760e21b8152306004820152602481018690529091506000906001600160a01b037f0000000000000000000000000000000000000000000000000000000000000000169063136e651c90604401602060405180830381865afa158015611717573d6000803e3d6000fd5b505050506040513d601f19601f8201168201806040525081019061173b91906145cf565b90506000805b858110156112055783818151811061175b5761175b6145a9565b6020026020010151915061176f838361298d565b6040513381526001600160a01b03841690889084907f031e1988c95a91ec4d655ff63a8f87a80bc9daf28d95ae10ee08c0022cfb5c8b9060200160405180910390a4600101611741565b6112e5338383612a57565b6117ce33836121bd565b6117eb5760405163e5fa0e3560e01b815260040160405180910390fd5b6117f784848484612ad6565b50505050565b8342111561181e57604051631931982760e01b815260040160405180910390fd5b604080517fe48329057bfd03d55e49b547132e39cffd9c1820ad7b9d4c5307691425d15adf60208201526001600160a01b038816918101919091526060810186905260808101859052600090611898906118909060a00160405160208183030381529060405280519060200120612b0a565b858585612b58565b90506118a381612b80565b86146118c257604051637fcce2a960e01b815260040160405180910390fd5b6112058188612625565b6000818152600260205260409020546060906001600160a01b03166118ff57505060408051602081019091526000815290565b604051630fab094760e01b81523060048201526000907f00000000000000000000000000000000000000000000000000000000000000006001600160a01b031690630fab094790602401602060405180830381865afa158015611966573d6000803e3d6000fd5b505050506040513d601f19601f8201168201806040525081019061198a91906145cf565b90506001600160a01b03811615611a0857604051636d02a25560e11b8152600481018490526001600160a01b0382169063da0544aa90602401600060405180830381865afa1580156119e0573d6000803e3d6000fd5b505050506040513d6000823e601f3d908101601f19168201604052610d89919081019061487e565b60405163f682eeaf60e01b815230600482015273__$2e464bbf4a8803569df10b07372aceee57$__9063030cecc7906001600160a01b037f0000000000000000000000000000000000000000000000000000000000000000169063f682eeaf90602401600060405180830381865afa158015611a88573d6000803e3d6000fd5b505050506040513d6000823e601f3d908101601f19168201604052611ab0919081019061487e565b604051630c8df17160e41b8152306004820152602481018790527f00000000000000000000000000000000000000000000000000000000000000006001600160a01b03169063c8df171090604401602060405180830381865afa158015611b1b573d6000803e3d6000fd5b505050506040513d601f19601f82011682018060405250810190611b3f91906145ec565b6040518363ffffffff1660e01b8152600401611b5c9291906148f4565b600060405180830381865af41580156119e0573d6000803e3d6000fd5b6001600160a01b0382166000908152600b602090815260408083208484529091528120610d89906126e9565b611bad612314565b60405163d67b78fd60e01b81526001600160a01b037f0000000000000000000000000000000000000000000000000000000000000000169063d67b78fd90611bfb9085908590600401614916565b600060405180830381600087803b158015611c1557600080fd5b505af1158015611c29573d6000803e3d6000fd5b505050508181604051611c3d929190614945565b604051908190038120338252907fd36dc0c1a06103fdcaf15f3f6fb797d1a97997514c78de073640c8b5005454b89060200160405180910390a25050565b6000438210611c9d576040516305b5e09b60e51b815260040160405180910390fd5b6000838152600c60205260409020610d899083612516565b6001600160a01b0383166000908152600b602090815260408083208584529091528120611ce29083612516565b949350505050565b610120810135606080611d016101608501856144b0565b8080601f01602080910402602001604051908101604052809392919081815260200183838082843760009201919091525092945060019250611d41915050565b604051908082528060200260200182016040528015611d8657816020015b6040805180820190915260008082526020820152815260200190600190039081611d5f5790505b5090506040518060400160405280306001600160a01b03168152602001600081525081600081518110611dbb57611dbb6145a9565b60200260200101819052509193909250565b34151580611e865750604051636e49181f60e01b81527f000000000000000000000000000000000000000000000000000000000000000060048201523360248201527f00000000000000000000000000000000000000000000000000000000000000006001600160a01b031690636e49181f90604401602060405180830381865afa158015611e60573d6000803e3d6000fd5b505050506040513d601f19601f82011682018060405250810190611e849190614493565b155b80611eb557507f0000000000000000000000000000000000000000000000000000000000000000816020013514155b15611ed3576040516331c57b1b60e21b815260040160405180910390fd5b610e7d81612ba8565b611ee4612314565b6040516317161f7d60e01b81526001600160a01b0382811660048301527f000000000000000000000000000000000000000000000000000000000000000016906317161f7d90602401600060405180830381600087803b158015611f4757600080fd5b505af1158015611f5b573d6000803e3d6000fd5b50506040513381526001600160a01b03841692507fab0014d4c7a642a02a31b303a318908c22b0fb2001f107278fc6076b4c671b659150602001610b98565b604051630155619b60e71b81523060048201526060907f00000000000000000000000000000000000000000000000000000000000000006001600160a01b03169063aab0cd8090602401600060405180830381865afa158015612001573d6000803e3d6000fd5b505050506040513d6000823e601f3d908101601f19168201604052610d62919081019061487e565b612031612314565b6001600160a01b03811661209b5760405162461bcd60e51b815260206004820152602660248201527f4f776e61626c653a206e6577206f776e657220697320746865207a65726f206160448201526564647265737360d01b60648201526084015b60405180910390fd5b610e7d81612697565b60006001600160e01b0319821663b3bcbb7960e01b14806120d557506001600160e01b031982166371700c6960e01b145b806120f057506001600160e01b0319821663da9ee8b760e01b145b8061210b57506001600160e01b03198216632b13c58f60e01b145b80610961575061096182612d06565b6000818152600260205260409020546001600160a01b0316610e7d5760405163b49aa3b560e01b815260040160405180910390fd5b600081815260036020526040902080546001600160a01b0319166001600160a01b038416908117909155819061218482610e80565b6001600160a01b03167f8c5be1e5ebec7d5bd14f71427d1e84f3dd0314c0f7b2291e5b200ac8c7c3b92560405160405180910390a45050565b6000806121c983610e80565b9050806001600160a01b0316846001600160a01b0316148061221057506001600160a01b0380821660009081526004602090815260408083209388168352929052205460ff165b80611ce25750836001600160a01b0316612229846109f9565b6001600160a01b031614949350505050565b826001600160a01b031661224e82610e80565b6001600160a01b0316146122755760405163a195bc5360e01b815260040160405180910390fd5b6001600160a01b03821661229c57604051632c95542760e01b815260040160405180910390fd5b6122a7838383612d56565b6122b260008261214f565b60008181526002602052604080822080546001600160a01b0319166001600160a01b0386811691821790925591518493918716917fddf252ad1be2c89b69c2b068fc378daa952ba7f163c4a11628f55a4df523b3ef91a4610aa7838383612f6e565b6009546001600160a01b03163314610f5e5760405162461bcd60e51b815260206004820181905260248201527f4f776e61626c653a2063616c6c6572206973206e6f7420746865206f776e65726044820152606401612092565b600061237982610e80565b905061238781600084612d56565b61239260008361214f565b60008281526002602052604080822080546001600160a01b0319169055518391906001600160a01b038416907fddf252ad1be2c89b69c2b068fc378daa952ba7f163c4a11628f55a4df523b3ef908390a46112e581600084612f6e565b6000306001600160a01b037f00000000000000000000000000000000000000000000000000000000000000001614801561244857507f000000000000000000000000000000000000000000000000000000000000000046145b1561247257507f000000000000000000000000000000000000000000000000000000000000000090565b50604080517f00000000000000000000000000000000000000000000000000000000000000006020808301919091527f0000000000000000000000000000000000000000000000000000000000000000828401527f000000000000000000000000000000000000000000000000000000000000000060608301524660808301523060a0808401919091528351808403909101815260c0909201909252805191012090565b60004382106125675760405162461bcd60e51b815260206004820181905260248201527f436865636b706f696e74733a20626c6f636b206e6f7420796574206d696e65646044820152606401612092565b825460005b818110156125cc57600061258082846130c2565b905084866000018281548110612598576125986145a9565b60009182526020909120015463ffffffff1611156125b8578092506125c6565b6125c38160016147eb565b91505b5061256c565b811561261057846125de6001846147d8565b815481106125ee576125ee6145a9565b60009182526020909120015464010000000090046001600160e01b0316612613565b60005b6001600160e01b031695945050505050565b6001600160a01b0382811660008181526005602052604080822080548686166001600160a01b0319821681179092559151919094169392849290917f3134e8a2e6d97e929a7e54011ea5485d7d196dd5f0ba4d4ef95803e8e3fc257f9190a4610aa78183612692866130dd565b613136565b600980546001600160a01b038381166001600160a01b0319831681179093556040519116919082907f8be0079c531659141344cd1fd0a4f28419497f9722a3daafe3b4186f6b6457e090600090a35050565b8054600090801561273257826127006001836147d8565b81548110612710576127106145a9565b60009182526020909120015464010000000090046001600160e01b0316612735565b60005b6001600160e01b03169392505050565b816001600160a01b0316836001600160a01b031603612777576040516306f8139d60e11b815260040160405180910390fd5b6001600160a01b03838116600081815260046020908152604080832094871680845294825291829020805460ff191686151590811790915591519182527f17307eab39ab6107e8899845ad3d59bd9653f200f220920489ca2b5937696c31910160405180910390a3505050565b60405163051330b560e21b81526000906001600160a01b037f0000000000000000000000000000000000000000000000000000000000000000169063144cc2d490610f0b9030908690600401614955565b604051631572f24960e11b81523060048201526000907f00000000000000000000000000000000000000000000000000000000000000006001600160a01b031690632ae5e49290602401602060405180830381865afa15801561289c573d6000803e3d6000fd5b505050506040513d601f19601f82011682018060405250810190610d6291906145ec565b60008080600019858709858702925082811083820303915050806000036128fa578382816128f0576128f06149ab565b0492505050610d89565b83811061292457604051631dcf306360e21b81526004810182905260248101859052604401612092565b60008486880960026001871981018816978890046003810283188082028403028082028403028082028403028082028403028082028403029081029092039091026000889003889004909101858311909403939093029303949094049190911702949350505050565b6001600160a01b0382166129b457604051633904578f60e11b815260040160405180910390fd5b6000818152600260205260409020546001600160a01b0316156129ea57604051632eb5f0c360e21b815260040160405180910390fd5b6129f660008383612d56565b60008181526002602052604080822080546001600160a01b0319166001600160a01b03861690811790915590518392907fddf252ad1be2c89b69c2b068fc378daa952ba7f163c4a11628f55a4df523b3ef908290a46112e560008383612f6e565b6001600160a01b038381166000818152600a6020908152604080832086845290915280822080548786166001600160a01b0319821681179092559151919094169392849290917f3134e8a2e6d97e929a7e54011ea5485d7d196dd5f0ba4d4ef95803e8e3fc257f9190a46117f7818484612ad18887613273565b61330f565b612ae184848461223b565b612aed84848484613464565b6117f7576040516336f57c1b60e11b815260040160405180910390fd5b6000610961612b176123ef565b8360405161190160f01b6020820152602281018390526042810182905260009060620160405160208183030381529060405280519060200120905092915050565b6000806000612b6987878787613563565b91509150612b7681613650565b5095945050505050565b6001600160a01b03811660009081526008602052604090208054600181018255905b50919050565b6001600160a01b037f000000000000000000000000000000000000000000000000000000000000000016612be26080830160608401613f12565b6001600160a01b031614612bf35750565b60808101356000806024612c0b6101e08601866144b0565b9050118015612c4f575063b3bcbb7960e01b612c2b6101e08601866144b0565b612c3a916024916020916149c1565b612c43916149eb565b6001600160e01b031916145b15612cb75760006060612c666101e08701876144b0565b810190612c739190614a1b565b919850965090945092505082159050612c8e57505050505050565b805115612cb457612cb18582612cac6101a08a016101808b01613f12565b613806565b94505b50505b8215612cdc57612cd983612cd36101a087016101808801613f12565b84613960565b92505b808015612ce857508215155b156117f757604051631b57826960e21b815260040160405180910390fd5b60006001600160e01b031982166380ac58cd60e01b1480612d3757506001600160e01b03198216635b5e139f60e01b145b8061096157506301ffc9a760e01b6001600160e01b0319831614610961565b6040516321d1336160e11b81527f000000000000000000000000000000000000000000000000000000000000000060048201526000907f00000000000000000000000000000000000000000000000000000000000000006001600160a01b0316906343a266c29060240161012060405180830381865afa158015612dde573d6000803e3d6000fd5b505050506040513d601f19601f82011682018060405250810190612e0291906147fe565b61010081015190915060f41c600190811603612e31576040516318cdaf9760e01b815260040160405180910390fd5b6001600160a01b03841615801590612ee157506040516308ed6c0160e41b8152306004820152602481018390526000906001600160a01b037f00000000000000000000000000000000000000000000000000000000000000001690638ed6c01090604401602060405180830381865afa158015612eb2573d6000803e3d6000fd5b505050506040513d601f19601f82011682018060405250810190612ed691906145cf565b6001600160a01b0316145b15612f6957604051638cec7d3960e01b8152600481018390526001600160a01b0385811660248301527f00000000000000000000000000000000000000000000000000000000000000001690638cec7d3990604401600060405180830381600087803b158015612f5057600080fd5b505af1158015612f64573d6000803e3d6000fd5b505050505b6117f7565b60405163b67cb04760e01b8152306004820152602481018290526000907f00000000000000000000000000000000000000000000000000000000000000006001600160a01b03169063b67cb0479060440161012060405180830381865afa158015612fdd573d6000803e3d6000fd5b505050506040513d601f19601f8201168201806040525081019061300191906147fe565b80516040516330b157e560e21b815260048101919091526001600160a01b03868116602483015285811660448301529192507f00000000000000000000000000000000000000000000000000000000000000009091169063c2c55f9490606401600060405180830381600087803b15801561307b57600080fd5b505af115801561308f573d6000803e3d6000fd5b505050508060a00151600014612f69576130ae84848360a00151613a8c565b612f69848483600001518460a00151613afc565b60006130d16002848418614b11565b610d89908484166147eb565b604051631266aaaf60e31b81523060048201526001600160a01b0382811660248301526000917f000000000000000000000000000000000000000000000000000000000000000090911690639335557890604401610f0b565b816001600160a01b0316836001600160a01b0316141580156131585750600081115b15610aa7576001600160a01b038316156131e6576001600160a01b0383166000908152600660205260408120819061319390613b9e85613baa565b91509150846001600160a01b03167fdec2bacdd2f05b59de34da9b523dff8be42e5e38e818c82fdb0bae774387a72483836040516131db929190918252602082015260400190565b60405180910390a250505b6001600160a01b03821615610aa7576001600160a01b0382166000908152600660205260408120819061321c90613bd885613baa565b91509150836001600160a01b03167fdec2bacdd2f05b59de34da9b523dff8be42e5e38e818c82fdb0bae774387a7248383604051613264929190918252602082015260400190565b60405180910390a25050505050565b6040516305c9a1d560e31b81523060048201526001600160a01b038381166024830152604482018390526000917f000000000000000000000000000000000000000000000000000000000000000090911690632e4d0ea890606401602060405180830381865afa1580156132eb573d6000803e3d6000fd5b505050506040513d601f19601f82011682018060405250810190610d8991906145ec565b826001600160a01b0316846001600160a01b0316148061332d575080155b6117f7576001600160a01b038416156133c8576001600160a01b0384166000908152600b602090815260408083208584529091528120819061337290613b9e85613baa565b60408051828152602081018890523381830152905192945090925083916001600160a01b038916917fed0c1e94c302bdbbd8bbd6a4fb7c3ed335c2292407cd816eadd075d019d0ce04919081900360600190a350505b6001600160a01b038316156117f7576001600160a01b0383166000908152600b602090815260408083208584529091528120819061340990613bd885613baa565b60408051838152602081018390523381830152905192945090925085916001600160a01b038816917fed0c1e94c302bdbbd8bbd6a4fb7c3ed335c2292407cd816eadd075d019d0ce04919081900360600190a3505050505050565b60006001600160a01b0384163b1561355b57604051630a85bd0160e11b81526001600160a01b0385169063150b7a02906134a8903390899088908890600401614b33565b6020604051808303816000875af19250505080156134e3575060408051601f3d908101601f191682019092526134e091810190614b70565b60015b613541573d808015613511576040519150601f19603f3d011682016040523d82523d6000602084013e613516565b606091505b508051600003613539576040516336f57c1b60e11b815260040160405180910390fd5b805181602001fd5b6001600160e01b031916630a85bd0160e11b149050611ce2565b506001611ce2565b6000807f7fffffffffffffffffffffffffffffff5d576e7357a4501ddfe92f46681b20a083111561359a5750600090506003613647565b8460ff16601b141580156135b257508460ff16601c14155b156135c35750600090506004613647565b6040805160008082526020820180845289905260ff881692820192909252606081018690526080810185905260019060a0016020604051602081039080840390855afa158015613617573d6000803e3d6000fd5b5050604051601f1901519150506001600160a01b03811661364057600060019250925050613647565b9150600090505b94509492505050565b600081600481111561366457613664614b8d565b0361366c5750565b600181600481111561368057613680614b8d565b036136cd5760405162461bcd60e51b815260206004820152601860248201527f45434453413a20696e76616c6964207369676e617475726500000000000000006044820152606401612092565b60028160048111156136e1576136e1614b8d565b0361372e5760405162461bcd60e51b815260206004820152601f60248201527f45434453413a20696e76616c6964207369676e6174757265206c656e677468006044820152606401612092565b600381600481111561374257613742614b8d565b0361379a5760405162461bcd60e51b815260206004820152602260248201527f45434453413a20696e76616c6964207369676e6174757265202773272076616c604482015261756560f01b6064820152608401612092565b60048160048111156137ae576137ae614b8d565b03610e7d5760405162461bcd60e51b815260206004820152602260248201527f45434453413a20696e76616c6964207369676e6174757265202776272076616c604482015261756560f01b6064820152608401612092565b600060607f00000000000000000000000000000000000000000000000000000000000000006001600160a01b03166316b047de86866040518363ffffffff1660e01b8152600401613858929190614ba3565b6000604051808303816000875af1158015613877573d6000803e3d6000fd5b505050506040513d6000823e601f3d908101601f1916820160405261389f9190810190614be8565b81519093509091506000805b82811015613955578381815181106138c5576138c56145a9565b602002602001015191506138d9868361298d565b856001600160a01b03168782815181106138f5576138f56145a9565b602002602001015161ffff16837f598baf7bf150ca2f42be9e9f8f55e81d45f5715c3ff22bf46d697fabec7f31d68b336040516139459291909182526001600160a01b0316602082015260400190565b60405180910390a46001016138ab565b505050509392505050565b60008060007f00000000000000000000000000000000000000000000000000000000000000006001600160a01b031663879791f3876040518263ffffffff1660e01b81526004016139b391815260200190565b6060604051808303816000875af11580156139d2573d6000803e3d6000fd5b505050506040513d601f19601f820116820180604052508101906139f69190614c2e565b945090925090506000829003613a2c578315613a2557604051630e5313df60e41b815260040160405180910390fd5b5050610d89565b613a36858361298d565b6001600160a01b03851681837f598baf7bf150ca2f42be9e9f8f55e81d45f5715c3ff22bf46d697fabec7f31d6613a6d878b6147d8565b604080519182523360208301520160405180910390a450509392505050565b6001600160a01b038316613aab57613aa86007613bd883613baa565b50505b6001600160a01b038216613aca57613ac76007613b9e83613baa565b50505b6001600160a01b03838116600090815260056020526040808220548584168352912054610aa792918216911683613136565b6001600160a01b038416613b28576000828152600c60205260409020613b2590613bd883613baa565b50505b6001600160a01b038316613b54576000828152600c60205260409020613b5190613b9e83613baa565b50505b6001600160a01b038085166000908152600a602081815260408084208785528252808420548886168552928252808420878552909152909120546117f7929182169116848461330f565b6000610d8982846147d8565b600080613bcc85613bc7613bbd886126e9565b868863ffffffff16565b613be4565b91509150935093915050565b6000610d8982846147eb565b8154600090819081613bf5866126e9565b9050600082118015613c3357504386613c0f6001856147d8565b81548110613c1f57613c1f6145a9565b60009182526020909120015463ffffffff16145b15613c9357613c4185613d0f565b86613c4d6001856147d8565b81548110613c5d57613c5d6145a9565b9060005260206000200160000160046101000a8154816001600160e01b0302191690836001600160e01b03160217905550613d01565b856000016040518060400160405280613cab43613d7c565b63ffffffff168152602001613cbf88613d0f565b6001600160e01b0390811690915282546001810184556000938452602093849020835194909301519091166401000000000263ffffffff909316929092179101555b9250839150505b9250929050565b60006001600160e01b03821115613d785760405162461bcd60e51b815260206004820152602760248201527f53616665436173743a2076616c756520646f65736e27742066697420696e20326044820152663234206269747360c81b6064820152608401612092565b5090565b600063ffffffff821115613d785760405162461bcd60e51b815260206004820152602660248201527f53616665436173743a2076616c756520646f65736e27742066697420696e203360448201526532206269747360d01b6064820152608401612092565b6001600160e01b031981168114610e7d57600080fd5b600060208284031215613e0957600080fd5b8135610d8981613de1565b60005b83811015613e2f578181015183820152602001613e17565b50506000910152565b60008151808452613e50816020860160208601613e14565b601f01601f19169290920160200192915050565b602081526000610d896020830184613e38565b600060208284031215613e8957600080fd5b5035919050565b6001600160a01b0381168114610e7d57600080fd5b60008060408385031215613eb857600080fd5b8235613ec381613e90565b946020939093013593505050565b600080600060608486031215613ee657600080fd5b8335613ef181613e90565b92506020840135613f0181613e90565b929592945050506040919091013590565b600060208284031215613f2457600080fd5b8135610d8981613e90565b60006101e08284031215612ba257600080fd5b600060208284031215613f5457600080fd5b81356001600160401b03811115613f6a57600080fd5b611ce284828501613f2f565b60008060008060408587031215613f8c57600080fd5b84356001600160401b0380821115613fa357600080fd5b818701915087601f830112613fb757600080fd5b813581811115613fc657600080fd5b8860208260081b8501011115613fdb57600080fd5b602092830196509450908601359080821115613ff657600080fd5b818701915087601f83011261400a57600080fd5b81358181111561401957600080fd5b8860208260051b850101111561402e57600080fd5b95989497505060200194505050565b634e487b7160e01b600052604160045260246000fd5b60405161012081016001600160401b03811182821017156140765761407661403d565b60405290565b604051601f8201601f191681016001600160401b03811182821017156140a4576140a461403d565b604052919050565b60006001600160401b038211156140c5576140c561403d565b50601f01601f191660200190565b60006140e66140e1846140ac565b61407c565b90508281528383830111156140fa57600080fd5b828260208301376000602084830101529392505050565b60006020828403121561412357600080fd5b81356001600160401b0381111561413957600080fd5b8201601f8101841361414a57600080fd5b611ce2848235602084016140d3565b8015158114610e7d57600080fd5b6000806040838503121561417a57600080fd5b823561418581613e90565b9150602083013561419581614159565b809150509250929050565b838152600060206060818401526141ba6060840186613e38565b83810360408581019190915285518083528387019284019060005b8181101561420357845180516001600160a01b031684528601518684015293850193918301916001016141d5565b50909998505050505050505050565b6000806040838503121561422557600080fd5b50508035926020909101359150565b6000806000806080858703121561424a57600080fd5b843561425581613e90565b9350602085013561426581613e90565b92506040850135915060608501356001600160401b0381111561428757600080fd5b8501601f8101871361429857600080fd5b6142a7878235602084016140d3565b91505092959194509250565b60008060008060008060c087890312156142cc57600080fd5b86356142d781613e90565b95506020870135945060408701359350606087013560ff811681146142fb57600080fd5b9598949750929560808101359460a0909101359350915050565b6000806020838503121561432857600080fd5b82356001600160401b038082111561433f57600080fd5b818501915085601f83011261435357600080fd5b81358181111561436257600080fd5b86602082850101111561437457600080fd5b60209290920196919550909350505050565b60008060006060848603121561439b57600080fd5b83356143a681613e90565b95602085013595506040909401359392505050565b6000602082840312156143cd57600080fd5b81356001600160401b038111156143e357600080fd5b82016101a08185031215610d8957600080fd5b60006020828403121561440857600080fd5b81356001600160401b0381111561441e57600080fd5b82016102008185031215610d8957600080fd5b6000806040838503121561444457600080fd5b823561444f81613e90565b9150602083013561419581613e90565b600181811c9082168061447357607f821691505b602082108103612ba257634e487b7160e01b600052602260045260246000fd5b6000602082840312156144a557600080fd5b8151610d8981614159565b6000808335601e198436030181126144c757600080fd5b8301803591506001600160401b038211156144e157600080fd5b602001915036819003821315613d0857600080fd5b60006001600160401b0382111561450f5761450f61403d565b5060051b60200190565b6000602080838503121561452c57600080fd5b82356001600160401b0381111561454257600080fd5b8301601f8101851361455357600080fd5b80356145616140e1826144f6565b81815260059190911b8201830190838101908783111561458057600080fd5b928401925b8284101561459e57833582529284019290840190614585565b979650505050505050565b634e487b7160e01b600052603260045260246000fd5b80516145ca81613e90565b919050565b6000602082840312156145e157600080fd5b8151610d8981613e90565b6000602082840312156145fe57600080fd5b5051919050565b803582526020810135602083015260408101356040830152606081013560608301526080810135608083015260a081013561463f81613e90565b6001600160a01b031660a083015260c0818101359083015260e081013561466581614159565b80151560e0840152505050565b6020808252810182905260008360408301825b85811015612b76576146978284614605565b610100928301929190910190600101614685565b600082601f8301126146bc57600080fd5b815160206146cc6140e1836144f6565b82815260059290921b840181019181810190868411156146eb57600080fd5b8286015b8481101561470657805183529183019183016146ef565b509695505050505050565b60006020828403121561472357600080fd5b81516001600160401b0381111561473957600080fd5b611ce2848285016146ab565b61012081016147548285614605565b6001600160a01b03929092166101009190910152919050565b6020808252810182905260006001600160fb1b0383111561478d57600080fd5b8260051b80856040850137919091016040019392505050565b600082516147b8818460208701613e14565b9190910192915050565b634e487b7160e01b600052601160045260246000fd5b81810381811115610961576109616147c2565b80820180821115610961576109616147c2565b6000610120828403121561481157600080fd5b614819614053565b825181526020830151602082015260408301516040820152606083015160608201526080830151608082015260a083015160a082015260c083015160c082015261486560e084016145bf565b60e0820152610100928301519281019290925250919050565b60006020828403121561489057600080fd5b81516001600160401b038111156148a657600080fd5b8201601f810184136148b757600080fd5b80516148c56140e1826140ac565b8181528560208385010111156148da57600080fd5b6148eb826020830160208601613e14565b95945050505050565b6040815260006149076040830185613e38565b90508260208301529392505050565b60208152816020820152818360408301376000818301604090810191909152601f909201601f19160101919050565b8183823760009101908152919050565b6001600160a01b038316815260406020808301829052835191830182905260009184820191906060850190845b8181101561499e57845183529383019391830191600101614982565b5090979650505050505050565b634e487b7160e01b600052601260045260246000fd5b600080858511156149d157600080fd5b838611156149de57600080fd5b5050820193919092039150565b6001600160e01b03198135818116916004851015614a135780818660040360031b1b83161692505b505092915050565b60008060008060008060c08789031215614a3457600080fd5b86359550602080880135614a4781613de1565b95506040880135614a5781614159565b94506060880135614a6781614159565b93506080880135614a7781614159565b925060a08801356001600160401b03811115614a9257600080fd5b8801601f81018a13614aa357600080fd5b8035614ab16140e1826144f6565b81815260059190911b8201830190838101908c831115614ad057600080fd5b928401925b82841015614aff57833561ffff81168114614af05760008081fd5b82529284019290840190614ad5565b80955050505050509295509295509295565b600082614b2e57634e487b7160e01b600052601260045260246000fd5b500490565b6001600160a01b0385811682528416602082015260408101839052608060608201819052600090614b6690830184613e38565b9695505050505050565b600060208284031215614b8257600080fd5b8151610d8981613de1565b634e487b7160e01b600052602160045260246000fd5b6000604082018483526020604081850152818551808452606086019150828701935060005b8181101561499e57845161ffff1683529383019391830191600101614bc8565b60008060408385031215614bfb57600080fd5b82516001600160401b03811115614c1157600080fd5b614c1d858286016146ab565b925050602083015190509250929050565b600080600060608486031215614c4357600080fd5b835192506020840151915060408401519050925092509256fea264697066735822122018eb09a73627df41ddd425e402d2faff5f018ceae9537ccf313a0cb57d71323664736f6c63430008100033",
    "linkReferences": {
      "contracts/libraries/JBIpfsDecoder.sol": {
        "JBIpfsDecoder": [
          {
            "start": 9956,
            "length": 20
          }
        ]
      }
    }
  },
  "methodIdentifiers": {
    "DOMAIN_SEPARATOR()": "3644e515",
    "adjustTiers((uint256,uint256,uint256,uint256,uint256,address,bytes32,bool)[],uint256[])": "9d927a50",
    "approve(address,uint256)": "095ea7b3",
    "balanceOf(address)": "70a08231",
    "contractURI()": "e8a3d485",
    "contributionToken()": "4bedf9a8",
    "delegate(address)": "5c19a95c",
    "delegateBySig(address,uint256,uint256,uint8,bytes32,bytes32)": "c3cda520",
    "delegates(address)": "587cde1e",
    "didPay((address,uint256,uint256,(address,uint256,uint256,uint256),(address,uint256,uint256,uint256),uint256,address,bool,string,bytes))": "da9ee8b7",
    "didRedeem((address,uint256,uint256,uint256,(address,uint256,uint256,uint256),(address,uint256,uint256,uint256),address,string,bytes))": "2b13c58f",
    "directory()": "c41c2f24",
    "firstOwnerOf(uint256)": "54c6d1f5",
    "fundingCycleStore()": "557e7155",
    "getApproved(uint256)": "081812fc",
    "getPastTierTotalVotes(uint256,uint256)": "d31cc52c",
    "getPastTierVotes(address,uint256,uint256)": "d40e7146",
    "getPastTotalSupply(uint256)": "8e539e8c",
    "getPastVotes(address,uint256)": "3a46b1a8",
    "getTierDelegate(address,uint256)": "82732b6d",
    "getTierTotalVotes(uint256)": "94c5c5ca",
    "getTierVotes(address,uint256)": "ca323efe",
    "getVotes(address)": "9ab24eb0",
    "isApprovedForAll(address,address)": "e985e9c5",
    "mintReservesFor(uint256,uint256)": "aa4fb15b",
    "name()": "06fdde03",
    "nonces(address)": "7ecebe00",
    "owner()": "8da5cb5b",
    "ownerOf(uint256)": "6352211e",
    "payParams((address,address,(address,uint256,uint256,uint256),uint256,uint256,address,uint256,uint256,string,bytes))": "d46cf171",
    "projectId()": "3fafa127",
    "redeemParams((address,address,uint256,uint256,uint256,uint256,uint256,(address,uint256,uint256,uint256),bool,uint256,string,bytes))": "a51cfd18",
    "renounceOwnership()": "715018a6",
    "safeTransferFrom(address,address,uint256)": "42842e0e",
    "safeTransferFrom(address,address,uint256,bytes)": "b88d4fde",
    "setApprovalForAll(address,bool)": "a22cb465",
    "setBaseUri(string)": "a0bcfc7f",
    "setContractUri(string)": "ccb4807b",
    "setDefaultReservedTokenBeneficiary(address)": "df487e26",
    "setTierDelegate(address,uint256)": "ab951e39",
    "setTokenUriResolver(address)": "2407497e",
    "store()": "975057e7",
    "supportsInterface(bytes4)": "01ffc9a7",
    "symbol()": "95d89b41",
    "tokenURI(uint256)": "c87b56dd",
    "transferFrom(address,address,uint256)": "23b872dd",
    "transferOwnership(address)": "f2fde38b"
  },
  "id": 0
}