{
  "abi": [
    {
      "inputs": [],
      "stateMutability": "nonpayable",
      "type": "constructor"
    },
    {
      "inputs": [],
      "name": "ALEADY_MINTED",
      "type": "error"
    },
    {
      "inputs": [],
      "name": "APPROVAL_TO_CURRENT_OWNER",
      "type": "error"
    },
    {
      "inputs": [],
      "name": "APPROVE_TO_CALLER",
      "type": "error"
    },
    {
      "inputs": [],
      "name": "CALLER_NOT_OWNER_OR_APPROVED",
      "type": "error"
    },
    {
      "inputs": [],
      "name": "INCORRECT_OWNER",
      "type": "error"
    },
    {
      "inputs": [],
      "name": "INVALID_PAYMENT_EVENT",
      "type": "error"
    },
    {
      "inputs": [],
      "name": "INVALID_REDEMPTION_EVENT",
      "type": "error"
    },
    {
      "inputs": [],
      "name": "INVALID_REDEMPTION_METADATA",
      "type": "error"
    },
    {
      "inputs": [],
      "name": "INVALID_TOKEN_ID",
      "type": "error"
    },
    {
      "inputs": [],
      "name": "MINT_TO_ZERO",
      "type": "error"
    },
    {
      "inputs": [],
      "name": "NOT_AVAILABLE",
      "type": "error"
    },
    {
      "inputs": [],
      "name": "OVERSPENDING",
      "type": "error"
    },
    {
      "inputs": [
        {
          "internalType": "uint256",
          "name": "prod1",
          "type": "uint256"
        },
        {
          "internalType": "uint256",
          "name": "denominator",
          "type": "uint256"
        }
      ],
      "name": "PRBMath__MulDivOverflow",
      "type": "error"
    },
    {
      "inputs": [],
      "name": "PRICING_RESOLVER_CHANGES_PAUSED",
      "type": "error"
    },
    {
      "inputs": [],
      "name": "RESERVED_TOKEN_MINTING_PAUSED",
      "type": "error"
    },
    {
      "inputs": [],
      "name": "TRANSFERS_PAUSED",
      "type": "error"
    },
    {
      "inputs": [],
      "name": "TRANSFER_TO_NON_IMPLEMENTER",
      "type": "error"
    },
    {
      "inputs": [],
      "name": "TRANSFER_TO_ZERO_ADDRESS",
      "type": "error"
    },
    {
      "inputs": [],
      "name": "UNAUTHORIZED",
      "type": "error"
    },
    {
      "inputs": [],
      "name": "UNEXPECTED_TOKEN_REDEEMED",
      "type": "error"
    },
    {
      "anonymous": false,
      "inputs": [
        {
          "indexed": true,
          "internalType": "uint256",
          "name": "tierId",
          "type": "uint256"
        },
        {
          "components": [
            {
              "internalType": "uint80",
              "name": "contributionFloor",
              "type": "uint80"
            },
            {
              "internalType": "uint48",
              "name": "lockedUntil",
              "type": "uint48"
            },
            {
              "internalType": "uint40",
              "name": "initialQuantity",
              "type": "uint40"
            },
            {
              "internalType": "uint16",
              "name": "votingUnits",
              "type": "uint16"
            },
            {
              "internalType": "uint16",
              "name": "reservedRate",
              "type": "uint16"
            },
            {
              "internalType": "address",
              "name": "reservedTokenBeneficiary",
              "type": "address"
            },
            {
              "internalType": "bytes32",
              "name": "encodedIPFSUri",
              "type": "bytes32"
            },
            {
              "internalType": "bool",
              "name": "allowManualMint",
              "type": "bool"
            },
            {
              "internalType": "bool",
              "name": "shouldUseBeneficiaryAsDefault",
              "type": "bool"
            },
            {
              "internalType": "bool",
              "name": "transfersPausable",
              "type": "bool"
            }
          ],
          "indexed": false,
          "internalType": "struct JB721TierParams",
          "name": "data",
          "type": "tuple"
        },
        {
          "indexed": false,
          "internalType": "address",
          "name": "caller",
          "type": "address"
        }
      ],
      "name": "AddTier",
      "type": "event"
    },
    {
      "anonymous": false,
      "inputs": [
        {
          "indexed": true,
          "internalType": "address",
          "name": "owner",
          "type": "address"
        },
        {
          "indexed": true,
          "internalType": "address",
          "name": "approved",
          "type": "address"
        },
        {
          "indexed": true,
          "internalType": "uint256",
          "name": "tokenId",
          "type": "uint256"
        }
      ],
      "name": "Approval",
      "type": "event"
    },
    {
      "anonymous": false,
      "inputs": [
        {
          "indexed": true,
          "internalType": "address",
          "name": "owner",
          "type": "address"
        },
        {
          "indexed": true,
          "internalType": "address",
          "name": "operator",
          "type": "address"
        },
        {
          "indexed": false,
          "internalType": "bool",
          "name": "approved",
          "type": "bool"
        }
      ],
      "name": "ApprovalForAll",
      "type": "event"
    },
    {
      "anonymous": false,
      "inputs": [
        {
          "indexed": true,
          "internalType": "uint256",
          "name": "tokenId",
          "type": "uint256"
        },
        {
          "indexed": true,
          "internalType": "uint256",
          "name": "tierId",
          "type": "uint256"
        },
        {
          "indexed": true,
          "internalType": "address",
          "name": "beneficiary",
          "type": "address"
        },
        {
          "indexed": false,
          "internalType": "uint256",
          "name": "totalAmountContributed",
          "type": "uint256"
        },
        {
          "indexed": false,
          "internalType": "address",
          "name": "caller",
          "type": "address"
        }
      ],
      "name": "Mint",
      "type": "event"
    },
    {
      "anonymous": false,
      "inputs": [
        {
          "indexed": true,
          "internalType": "uint256",
          "name": "tokenId",
          "type": "uint256"
        },
        {
          "indexed": true,
          "internalType": "uint256",
          "name": "tierId",
          "type": "uint256"
        },
        {
          "indexed": true,
          "internalType": "address",
          "name": "beneficiary",
          "type": "address"
        },
        {
          "indexed": false,
          "internalType": "address",
          "name": "caller",
          "type": "address"
        }
      ],
      "name": "MintReservedToken",
      "type": "event"
    },
    {
      "anonymous": false,
      "inputs": [
        {
          "indexed": true,
          "internalType": "address",
          "name": "previousOwner",
          "type": "address"
        },
        {
          "indexed": true,
          "internalType": "address",
          "name": "newOwner",
          "type": "address"
        }
      ],
      "name": "OwnershipTransferred",
      "type": "event"
    },
    {
      "anonymous": false,
      "inputs": [
        {
          "indexed": true,
          "internalType": "uint256",
          "name": "tierId",
          "type": "uint256"
        },
        {
          "indexed": false,
          "internalType": "address",
          "name": "caller",
          "type": "address"
        }
      ],
      "name": "RemoveTier",
      "type": "event"
    },
    {
      "anonymous": false,
      "inputs": [
        {
          "indexed": true,
          "internalType": "string",
          "name": "baseUri",
          "type": "string"
        },
        {
          "indexed": false,
          "internalType": "address",
          "name": "caller",
          "type": "address"
        }
      ],
      "name": "SetBaseUri",
      "type": "event"
    },
    {
      "anonymous": false,
      "inputs": [
        {
          "indexed": true,
          "internalType": "string",
          "name": "contractUri",
          "type": "string"
        },
        {
          "indexed": false,
          "internalType": "address",
          "name": "caller",
          "type": "address"
        }
      ],
      "name": "SetContractUri",
      "type": "event"
    },
    {
      "anonymous": false,
      "inputs": [
        {
          "indexed": true,
          "internalType": "address",
          "name": "beneficiary",
          "type": "address"
        },
        {
          "indexed": false,
          "internalType": "address",
          "name": "caller",
          "type": "address"
        }
      ],
      "name": "SetDefaultReservedTokenBeneficiary",
      "type": "event"
    },
    {
      "anonymous": false,
      "inputs": [
        {
          "indexed": true,
          "internalType": "contract IJBTokenUriResolver",
          "name": "newResolver",
          "type": "address"
        },
        {
          "indexed": false,
          "internalType": "address",
          "name": "caller",
          "type": "address"
        }
      ],
      "name": "SetTokenUriResolver",
      "type": "event"
    },
    {
      "anonymous": false,
      "inputs": [
        {
          "indexed": true,
          "internalType": "address",
          "name": "from",
          "type": "address"
        },
        {
          "indexed": true,
          "internalType": "address",
          "name": "to",
          "type": "address"
        },
        {
          "indexed": true,
          "internalType": "uint256",
          "name": "tokenId",
          "type": "uint256"
        }
      ],
      "name": "Transfer",
      "type": "event"
    },
    {
      "inputs": [
        {
          "components": [
            {
              "internalType": "uint80",
              "name": "contributionFloor",
              "type": "uint80"
            },
            {
              "internalType": "uint48",
              "name": "lockedUntil",
              "type": "uint48"
            },
            {
              "internalType": "uint40",
              "name": "initialQuantity",
              "type": "uint40"
            },
            {
              "internalType": "uint16",
              "name": "votingUnits",
              "type": "uint16"
            },
            {
              "internalType": "uint16",
              "name": "reservedRate",
              "type": "uint16"
            },
            {
              "internalType": "address",
              "name": "reservedTokenBeneficiary",
              "type": "address"
            },
            {
              "internalType": "bytes32",
              "name": "encodedIPFSUri",
              "type": "bytes32"
            },
            {
              "internalType": "bool",
              "name": "allowManualMint",
              "type": "bool"
            },
            {
              "internalType": "bool",
              "name": "shouldUseBeneficiaryAsDefault",
              "type": "bool"
            },
            {
              "internalType": "bool",
              "name": "transfersPausable",
              "type": "bool"
            }
          ],
          "internalType": "struct JB721TierParams[]",
          "name": "_tiersToAdd",
          "type": "tuple[]"
        },
        {
          "internalType": "uint256[]",
          "name": "_tierIdsToRemove",
          "type": "uint256[]"
        }
      ],
      "name": "adjustTiers",
      "outputs": [],
      "stateMutability": "nonpayable",
      "type": "function"
    },
    {
      "inputs": [
        {
          "internalType": "address",
          "name": "to",
          "type": "address"
        },
        {
          "internalType": "uint256",
          "name": "tokenId",
          "type": "uint256"
        }
      ],
      "name": "approve",
      "outputs": [],
      "stateMutability": "nonpayable",
      "type": "function"
    },
    {
      "inputs": [
        {
          "internalType": "address",
          "name": "_owner",
          "type": "address"
        }
      ],
      "name": "balanceOf",
      "outputs": [
        {
          "internalType": "uint256",
          "name": "balance",
          "type": "uint256"
        }
      ],
      "stateMutability": "view",
      "type": "function"
    },
    {
      "inputs": [],
      "name": "codeOrigin",
      "outputs": [
        {
          "internalType": "address",
          "name": "",
          "type": "address"
        }
      ],
      "stateMutability": "view",
      "type": "function"
    },
    {
      "inputs": [],
      "name": "contractURI",
      "outputs": [
        {
          "internalType": "string",
          "name": "",
          "type": "string"
        }
      ],
      "stateMutability": "view",
      "type": "function"
    },
    {
      "inputs": [
        {
          "internalType": "address",
          "name": "",
          "type": "address"
        }
      ],
      "name": "creditsOf",
      "outputs": [
        {
          "internalType": "uint256",
          "name": "",
          "type": "uint256"
        }
      ],
      "stateMutability": "view",
      "type": "function"
    },
    {
      "inputs": [
        {
          "components": [
            {
              "internalType": "address",
              "name": "payer",
              "type": "address"
            },
            {
              "internalType": "uint256",
              "name": "projectId",
              "type": "uint256"
            },
            {
              "internalType": "uint256",
              "name": "currentFundingCycleConfiguration",
              "type": "uint256"
            },
            {
              "components": [
                {
                  "internalType": "address",
                  "name": "token",
                  "type": "address"
                },
                {
                  "internalType": "uint256",
                  "name": "value",
                  "type": "uint256"
                },
                {
                  "internalType": "uint256",
                  "name": "decimals",
                  "type": "uint256"
                },
                {
                  "internalType": "uint256",
                  "name": "currency",
                  "type": "uint256"
                }
              ],
              "internalType": "struct JBTokenAmount",
              "name": "amount",
              "type": "tuple"
            },
            {
              "components": [
                {
                  "internalType": "address",
                  "name": "token",
                  "type": "address"
                },
                {
                  "internalType": "uint256",
                  "name": "value",
                  "type": "uint256"
                },
                {
                  "internalType": "uint256",
                  "name": "decimals",
                  "type": "uint256"
                },
                {
                  "internalType": "uint256",
                  "name": "currency",
                  "type": "uint256"
                }
              ],
              "internalType": "struct JBTokenAmount",
              "name": "forwardedAmount",
              "type": "tuple"
            },
            {
              "internalType": "uint256",
              "name": "projectTokenCount",
              "type": "uint256"
            },
            {
              "internalType": "address",
              "name": "beneficiary",
              "type": "address"
            },
            {
              "internalType": "bool",
              "name": "preferClaimedTokens",
              "type": "bool"
            },
            {
              "internalType": "string",
              "name": "memo",
              "type": "string"
            },
            {
              "internalType": "bytes",
              "name": "metadata",
              "type": "bytes"
            }
          ],
          "internalType": "struct JBDidPayData",
          "name": "_data",
          "type": "tuple"
        }
      ],
      "name": "didPay",
      "outputs": [],
      "stateMutability": "payable",
      "type": "function"
    },
    {
      "inputs": [
        {
          "components": [
            {
              "internalType": "address",
              "name": "holder",
              "type": "address"
            },
            {
              "internalType": "uint256",
              "name": "projectId",
              "type": "uint256"
            },
            {
              "internalType": "uint256",
              "name": "currentFundingCycleConfiguration",
              "type": "uint256"
            },
            {
              "internalType": "uint256",
              "name": "projectTokenCount",
              "type": "uint256"
            },
            {
              "components": [
                {
                  "internalType": "address",
                  "name": "token",
                  "type": "address"
                },
                {
                  "internalType": "uint256",
                  "name": "value",
                  "type": "uint256"
                },
                {
                  "internalType": "uint256",
                  "name": "decimals",
                  "type": "uint256"
                },
                {
                  "internalType": "uint256",
                  "name": "currency",
                  "type": "uint256"
                }
              ],
              "internalType": "struct JBTokenAmount",
              "name": "reclaimedAmount",
              "type": "tuple"
            },
            {
              "components": [
                {
                  "internalType": "address",
                  "name": "token",
                  "type": "address"
                },
                {
                  "internalType": "uint256",
                  "name": "value",
                  "type": "uint256"
                },
                {
                  "internalType": "uint256",
                  "name": "decimals",
                  "type": "uint256"
                },
                {
                  "internalType": "uint256",
                  "name": "currency",
                  "type": "uint256"
                }
              ],
              "internalType": "struct JBTokenAmount",
              "name": "forwardedAmount",
              "type": "tuple"
            },
            {
              "internalType": "address payable",
              "name": "beneficiary",
              "type": "address"
            },
            {
              "internalType": "string",
              "name": "memo",
              "type": "string"
            },
            {
              "internalType": "bytes",
              "name": "metadata",
              "type": "bytes"
            }
          ],
          "internalType": "struct JBDidRedeemData",
          "name": "_data",
          "type": "tuple"
        }
      ],
      "name": "didRedeem",
      "outputs": [],
      "stateMutability": "payable",
      "type": "function"
    },
    {
      "inputs": [],
      "name": "directory",
      "outputs": [
        {
          "internalType": "contract IJBDirectory",
          "name": "",
          "type": "address"
        }
      ],
      "stateMutability": "view",
      "type": "function"
    },
    {
      "inputs": [
        {
          "internalType": "uint256",
          "name": "_tokenId",
          "type": "uint256"
        }
      ],
      "name": "firstOwnerOf",
      "outputs": [
        {
          "internalType": "address",
          "name": "",
          "type": "address"
        }
      ],
      "stateMutability": "view",
      "type": "function"
    },
    {
      "inputs": [],
      "name": "fundingCycleStore",
      "outputs": [
        {
          "internalType": "contract IJBFundingCycleStore",
          "name": "",
          "type": "address"
        }
      ],
      "stateMutability": "view",
      "type": "function"
    },
    {
      "inputs": [
        {
          "internalType": "uint256",
          "name": "tokenId",
          "type": "uint256"
        }
      ],
      "name": "getApproved",
      "outputs": [
        {
          "internalType": "address",
          "name": "",
          "type": "address"
        }
      ],
      "stateMutability": "view",
      "type": "function"
    },
    {
      "inputs": [
        {
          "internalType": "uint256",
          "name": "_projectId",
          "type": "uint256"
        },
        {
          "internalType": "contract IJBDirectory",
          "name": "_directory",
          "type": "address"
        },
        {
          "internalType": "string",
          "name": "_name",
          "type": "string"
        },
        {
          "internalType": "string",
          "name": "_symbol",
          "type": "string"
        },
        {
          "internalType": "contract IJBFundingCycleStore",
          "name": "_fundingCycleStore",
          "type": "address"
        },
        {
          "internalType": "string",
          "name": "_baseUri",
          "type": "string"
        },
        {
          "internalType": "contract IJBTokenUriResolver",
          "name": "_tokenUriResolver",
          "type": "address"
        },
        {
          "internalType": "string",
          "name": "_contractUri",
          "type": "string"
        },
        {
          "components": [
            {
              "components": [
                {
                  "internalType": "uint80",
                  "name": "contributionFloor",
                  "type": "uint80"
                },
                {
                  "internalType": "uint48",
                  "name": "lockedUntil",
                  "type": "uint48"
                },
                {
                  "internalType": "uint40",
                  "name": "initialQuantity",
                  "type": "uint40"
                },
                {
                  "internalType": "uint16",
                  "name": "votingUnits",
                  "type": "uint16"
                },
                {
                  "internalType": "uint16",
                  "name": "reservedRate",
                  "type": "uint16"
                },
                {
                  "internalType": "address",
                  "name": "reservedTokenBeneficiary",
                  "type": "address"
                },
                {
                  "internalType": "bytes32",
                  "name": "encodedIPFSUri",
                  "type": "bytes32"
                },
                {
                  "internalType": "bool",
                  "name": "allowManualMint",
                  "type": "bool"
                },
                {
                  "internalType": "bool",
                  "name": "shouldUseBeneficiaryAsDefault",
                  "type": "bool"
                },
                {
                  "internalType": "bool",
                  "name": "transfersPausable",
                  "type": "bool"
                }
              ],
              "internalType": "struct JB721TierParams[]",
              "name": "tiers",
              "type": "tuple[]"
            },
            {
              "internalType": "uint256",
              "name": "currency",
              "type": "uint256"
            },
            {
              "internalType": "uint256",
              "name": "decimals",
              "type": "uint256"
            },
            {
              "internalType": "contract IJBPrices",
              "name": "prices",
              "type": "address"
            }
          ],
          "internalType": "struct JB721PricingParams",
          "name": "_pricing",
          "type": "tuple"
        },
        {
          "internalType": "contract IJBTiered721DelegateStore",
          "name": "_store",
          "type": "address"
        },
        {
          "components": [
            {
              "internalType": "bool",
              "name": "lockReservedTokenChanges",
              "type": "bool"
            },
            {
              "internalType": "bool",
              "name": "lockVotingUnitChanges",
              "type": "bool"
            },
            {
              "internalType": "bool",
              "name": "lockManualMintingChanges",
              "type": "bool"
            }
          ],
          "internalType": "struct JBTiered721Flags",
          "name": "_flags",
          "type": "tuple"
        }
      ],
      "name": "initialize",
      "outputs": [],
      "stateMutability": "nonpayable",
      "type": "function"
    },
    {
      "inputs": [
        {
          "internalType": "address",
          "name": "owner",
          "type": "address"
        },
        {
          "internalType": "address",
          "name": "operator",
          "type": "address"
        }
      ],
      "name": "isApprovedForAll",
      "outputs": [
        {
          "internalType": "bool",
          "name": "",
          "type": "bool"
        }
      ],
      "stateMutability": "view",
      "type": "function"
    },
    {
      "inputs": [
        {
          "components": [
            {
              "internalType": "uint16[]",
              "name": "tierIds",
              "type": "uint16[]"
            },
            {
              "internalType": "address",
              "name": "beneficiary",
              "type": "address"
            }
          ],
          "internalType": "struct JBTiered721MintForTiersData[]",
          "name": "_mintForTiersData",
          "type": "tuple[]"
        }
      ],
      "name": "mintFor",
      "outputs": [],
      "stateMutability": "nonpayable",
      "type": "function"
    },
    {
      "inputs": [
        {
          "internalType": "uint16[]",
          "name": "_tierIds",
          "type": "uint16[]"
        },
        {
          "internalType": "address",
          "name": "_beneficiary",
          "type": "address"
        }
      ],
      "name": "mintFor",
      "outputs": [
        {
          "internalType": "uint256[]",
          "name": "tokenIds",
          "type": "uint256[]"
        }
      ],
      "stateMutability": "nonpayable",
      "type": "function"
    },
    {
      "inputs": [
        {
          "components": [
            {
              "internalType": "uint256",
              "name": "tierId",
              "type": "uint256"
            },
            {
              "internalType": "uint256",
              "name": "count",
              "type": "uint256"
            }
          ],
          "internalType": "struct JBTiered721MintReservesForTiersData[]",
          "name": "_mintReservesForTiersData",
          "type": "tuple[]"
        }
      ],
      "name": "mintReservesFor",
      "outputs": [],
      "stateMutability": "nonpayable",
      "type": "function"
    },
    {
      "inputs": [
        {
          "internalType": "uint256",
          "name": "_tierId",
          "type": "uint256"
        },
        {
          "internalType": "uint256",
          "name": "_count",
          "type": "uint256"
        }
      ],
      "name": "mintReservesFor",
      "outputs": [],
      "stateMutability": "nonpayable",
      "type": "function"
    },
    {
      "inputs": [],
      "name": "name",
      "outputs": [
        {
          "internalType": "string",
          "name": "",
          "type": "string"
        }
      ],
      "stateMutability": "view",
      "type": "function"
    },
    {
      "inputs": [],
      "name": "owner",
      "outputs": [
        {
          "internalType": "address",
          "name": "",
          "type": "address"
        }
      ],
      "stateMutability": "view",
      "type": "function"
    },
    {
      "inputs": [
        {
          "internalType": "uint256",
          "name": "tokenId",
          "type": "uint256"
        }
      ],
      "name": "ownerOf",
      "outputs": [
        {
          "internalType": "address",
          "name": "",
          "type": "address"
        }
      ],
      "stateMutability": "view",
      "type": "function"
    },
    {
      "inputs": [
        {
          "components": [
            {
              "internalType": "contract IJBPaymentTerminal",
              "name": "terminal",
              "type": "address"
            },
            {
              "internalType": "address",
              "name": "payer",
              "type": "address"
            },
            {
              "components": [
                {
                  "internalType": "address",
                  "name": "token",
                  "type": "address"
                },
                {
                  "internalType": "uint256",
                  "name": "value",
                  "type": "uint256"
                },
                {
                  "internalType": "uint256",
                  "name": "decimals",
                  "type": "uint256"
                },
                {
                  "internalType": "uint256",
                  "name": "currency",
                  "type": "uint256"
                }
              ],
              "internalType": "struct JBTokenAmount",
              "name": "amount",
              "type": "tuple"
            },
            {
              "internalType": "uint256",
              "name": "projectId",
              "type": "uint256"
            },
            {
              "internalType": "uint256",
              "name": "currentFundingCycleConfiguration",
              "type": "uint256"
            },
            {
              "internalType": "address",
              "name": "beneficiary",
              "type": "address"
            },
            {
              "internalType": "uint256",
              "name": "weight",
              "type": "uint256"
            },
            {
              "internalType": "uint256",
              "name": "reservedRate",
              "type": "uint256"
            },
            {
              "internalType": "string",
              "name": "memo",
              "type": "string"
            },
            {
              "internalType": "bytes",
              "name": "metadata",
              "type": "bytes"
            }
          ],
          "internalType": "struct JBPayParamsData",
          "name": "_data",
          "type": "tuple"
        }
      ],
      "name": "payParams",
      "outputs": [
        {
          "internalType": "uint256",
          "name": "weight",
          "type": "uint256"
        },
        {
          "internalType": "string",
          "name": "memo",
          "type": "string"
        },
        {
          "components": [
            {
              "internalType": "contract IJBPayDelegate",
              "name": "delegate",
              "type": "address"
            },
            {
              "internalType": "uint256",
              "name": "amount",
              "type": "uint256"
            }
          ],
          "internalType": "struct JBPayDelegateAllocation[]",
          "name": "delegateAllocations",
          "type": "tuple[]"
        }
      ],
      "stateMutability": "view",
      "type": "function"
    },
    {
      "inputs": [],
      "name": "prices",
      "outputs": [
        {
          "internalType": "contract IJBPrices",
          "name": "",
          "type": "address"
        }
      ],
      "stateMutability": "view",
      "type": "function"
    },
    {
      "inputs": [],
      "name": "pricingCurrency",
      "outputs": [
        {
          "internalType": "uint256",
          "name": "",
          "type": "uint256"
        }
      ],
      "stateMutability": "view",
      "type": "function"
    },
    {
      "inputs": [],
      "name": "pricingDecimals",
      "outputs": [
        {
          "internalType": "uint256",
          "name": "",
          "type": "uint256"
        }
      ],
      "stateMutability": "view",
      "type": "function"
    },
    {
      "inputs": [],
      "name": "projectId",
      "outputs": [
        {
          "internalType": "uint256",
          "name": "",
          "type": "uint256"
        }
      ],
      "stateMutability": "view",
      "type": "function"
    },
    {
      "inputs": [
        {
          "components": [
            {
              "internalType": "contract IJBPaymentTerminal",
              "name": "terminal",
              "type": "address"
            },
            {
              "internalType": "address",
              "name": "holder",
              "type": "address"
            },
            {
              "internalType": "uint256",
              "name": "projectId",
              "type": "uint256"
            },
            {
              "internalType": "uint256",
              "name": "currentFundingCycleConfiguration",
              "type": "uint256"
            },
            {
              "internalType": "uint256",
              "name": "tokenCount",
              "type": "uint256"
            },
            {
              "internalType": "uint256",
              "name": "totalSupply",
              "type": "uint256"
            },
            {
              "internalType": "uint256",
              "name": "overflow",
              "type": "uint256"
            },
            {
              "components": [
                {
                  "internalType": "address",
                  "name": "token",
                  "type": "address"
                },
                {
                  "internalType": "uint256",
                  "name": "value",
                  "type": "uint256"
                },
                {
                  "internalType": "uint256",
                  "name": "decimals",
                  "type": "uint256"
                },
                {
                  "internalType": "uint256",
                  "name": "currency",
                  "type": "uint256"
                }
              ],
              "internalType": "struct JBTokenAmount",
              "name": "reclaimAmount",
              "type": "tuple"
            },
            {
              "internalType": "bool",
              "name": "useTotalOverflow",
              "type": "bool"
            },
            {
              "internalType": "uint256",
              "name": "redemptionRate",
              "type": "uint256"
            },
            {
              "internalType": "string",
              "name": "memo",
              "type": "string"
            },
            {
              "internalType": "bytes",
              "name": "metadata",
              "type": "bytes"
            }
          ],
          "internalType": "struct JBRedeemParamsData",
          "name": "_data",
          "type": "tuple"
        }
      ],
      "name": "redeemParams",
      "outputs": [
        {
          "internalType": "uint256",
          "name": "reclaimAmount",
          "type": "uint256"
        },
        {
          "internalType": "string",
          "name": "memo",
          "type": "string"
        },
        {
          "components": [
            {
              "internalType": "contract IJBRedemptionDelegate",
              "name": "delegate",
              "type": "address"
            },
            {
              "internalType": "uint256",
              "name": "amount",
              "type": "uint256"
            }
          ],
          "internalType": "struct JBRedemptionDelegateAllocation[]",
          "name": "delegateAllocations",
          "type": "tuple[]"
        }
      ],
      "stateMutability": "view",
      "type": "function"
    },
    {
      "inputs": [],
      "name": "renounceOwnership",
      "outputs": [],
      "stateMutability": "nonpayable",
      "type": "function"
    },
    {
      "inputs": [
        {
          "internalType": "address",
          "name": "from",
          "type": "address"
        },
        {
          "internalType": "address",
          "name": "to",
          "type": "address"
        },
        {
          "internalType": "uint256",
          "name": "tokenId",
          "type": "uint256"
        }
      ],
      "name": "safeTransferFrom",
      "outputs": [],
      "stateMutability": "nonpayable",
      "type": "function"
    },
    {
      "inputs": [
        {
          "internalType": "address",
          "name": "from",
          "type": "address"
        },
        {
          "internalType": "address",
          "name": "to",
          "type": "address"
        },
        {
          "internalType": "uint256",
          "name": "tokenId",
          "type": "uint256"
        },
        {
          "internalType": "bytes",
          "name": "data",
          "type": "bytes"
        }
      ],
      "name": "safeTransferFrom",
      "outputs": [],
      "stateMutability": "nonpayable",
      "type": "function"
    },
    {
      "inputs": [
        {
          "internalType": "address",
          "name": "operator",
          "type": "address"
        },
        {
          "internalType": "bool",
          "name": "approved",
          "type": "bool"
        }
      ],
      "name": "setApprovalForAll",
      "outputs": [],
      "stateMutability": "nonpayable",
      "type": "function"
    },
    {
      "inputs": [
        {
          "internalType": "string",
          "name": "_baseUri",
          "type": "string"
        }
      ],
      "name": "setBaseUri",
      "outputs": [],
      "stateMutability": "nonpayable",
      "type": "function"
    },
    {
      "inputs": [
        {
          "internalType": "string",
          "name": "_contractUri",
          "type": "string"
        }
      ],
      "name": "setContractUri",
      "outputs": [],
      "stateMutability": "nonpayable",
      "type": "function"
    },
    {
      "inputs": [
        {
          "internalType": "address",
          "name": "_beneficiary",
          "type": "address"
        }
      ],
      "name": "setDefaultReservedTokenBeneficiary",
      "outputs": [],
      "stateMutability": "nonpayable",
      "type": "function"
    },
    {
      "inputs": [
        {
          "internalType": "contract IJBTokenUriResolver",
          "name": "_tokenUriResolver",
          "type": "address"
        }
      ],
      "name": "setTokenUriResolver",
      "outputs": [],
      "stateMutability": "nonpayable",
      "type": "function"
    },
    {
      "inputs": [],
      "name": "store",
      "outputs": [
        {
          "internalType": "contract IJBTiered721DelegateStore",
          "name": "",
          "type": "address"
        }
      ],
      "stateMutability": "view",
      "type": "function"
    },
    {
      "inputs": [
        {
          "internalType": "bytes4",
          "name": "_interfaceId",
          "type": "bytes4"
        }
      ],
      "name": "supportsInterface",
      "outputs": [
        {
          "internalType": "bool",
          "name": "",
          "type": "bool"
        }
      ],
      "stateMutability": "view",
      "type": "function"
    },
    {
      "inputs": [],
      "name": "symbol",
      "outputs": [
        {
          "internalType": "string",
          "name": "",
          "type": "string"
        }
      ],
      "stateMutability": "view",
      "type": "function"
    },
    {
      "inputs": [
        {
          "internalType": "uint256",
          "name": "_tokenId",
          "type": "uint256"
        }
      ],
      "name": "tokenURI",
      "outputs": [
        {
          "internalType": "string",
          "name": "",
          "type": "string"
        }
      ],
      "stateMutability": "view",
      "type": "function"
    },
    {
      "inputs": [
        {
          "internalType": "address",
          "name": "from",
          "type": "address"
        },
        {
          "internalType": "address",
          "name": "to",
          "type": "address"
        },
        {
          "internalType": "uint256",
          "name": "tokenId",
          "type": "uint256"
        }
      ],
      "name": "transferFrom",
      "outputs": [],
      "stateMutability": "nonpayable",
      "type": "function"
    },
    {
      "inputs": [
        {
          "internalType": "address",
          "name": "newOwner",
          "type": "address"
        }
      ],
      "name": "transferOwnership",
      "outputs": [],
      "stateMutability": "nonpayable",
      "type": "function"
    }
  ],
  "bytecode": {
    "object": "0x60806040523480156200001157600080fd5b506200001d3362000035565b600880546001600160a01b0319163017905562000087565b600780546001600160a01b038381166001600160a01b0319831681179093556040519116919082907f8be0079c531659141344cd1fd0a4f28419497f9722a3daafe3b4186f6b6457e090600090a35050565b61492880620000976000396000f3fe6080604052600436106102465760003560e01c8063715018a611610139578063c41c2f24116100b6578063da9ee8b71161007a578063da9ee8b7146106d0578063df487e26146106e3578063e8a3d48514610703578063e985e9c514610718578063f2fde38b14610738578063f5a38e631461075857600080fd5b8063c41c2f2414610630578063c87b56dd14610650578063ccb4807b14610670578063d3419bf314610690578063d46cf171146106b057600080fd5b8063a22cb465116100fd578063a22cb46514610581578063a51cfd18146105a1578063aa4fb15b146105d0578063b88d4fde146105f0578063bb52b6e41461061057600080fd5b8063715018a6146104f95780638da5cb5b1461050e57806395d89b411461052c578063975057e714610541578063a0bcfc7f1461056157600080fd5b806336c1a93b116101c7578063557e71551161018b578063557e7155146104565780636352211e1461047657806364640c1e146104965780636ac6d941146104ac57806370a08231146104d957600080fd5b806336c1a93b146103ca5780633fafa127146103ea57806342842e0e146104005780634ecba6251461042057806354c6d1f51461043657600080fd5b806323b872dd1161020e57806323b872dd1461031c5780632407497e1461033c578063245a45b51461035c5780632a596e53146103975780632b13c58f146103b757600080fd5b806301ffc9a71461024b57806306fdde0314610280578063081812fc146102a2578063095ea7b3146102da5780631d153ca4146102fc575b600080fd5b34801561025757600080fd5b5061026b610266366004613116565b610778565b60405190151581526020015b60405180910390f35b34801561028c57600080fd5b506102956107a3565b6040516102779190613183565b3480156102ae57600080fd5b506102c26102bd366004613196565b610835565b6040516001600160a01b039091168152602001610277565b3480156102e657600080fd5b506102fa6102f53660046131d4565b61085c565b005b34801561030857600080fd5b506008546102c2906001600160a01b031681565b34801561032857600080fd5b506102fa610337366004613200565b6108e8565b34801561034857600080fd5b506102fa610357366004613241565b61091a565b34801561036857600080fd5b50610389610377366004613241565b600e6020526000908152604090205481565b604051908152602001610277565b3480156103a357600080fd5b506102fa6103b236600461325e565b6109c3565b6102fa6103c53660046132eb565b610a1c565b3480156103d657600080fd5b506102fa6103e536600461336a565b610bf6565b3480156103f657600080fd5b5061038960055481565b34801561040c57600080fd5b506102fa61041b366004613200565b610c58565b34801561042c57600080fd5b50610389600d5481565b34801561044257600080fd5b506102c2610451366004613196565b610c73565b34801561046257600080fd5b50600a546102c2906001600160a01b031681565b34801561048257600080fd5b506102c2610491366004613196565b610d1f565b3480156104a257600080fd5b50610389600c5481565b3480156104b857600080fd5b506104cc6104c73660046133ab565b610d55565b604051610277919061343c565b3480156104e557600080fd5b506103896104f4366004613241565b610e9b565b34801561050557600080fd5b506102fa610f11565b34801561051a57600080fd5b506007546001600160a01b03166102c2565b34801561053857600080fd5b50610295610f25565b34801561054d57600080fd5b506009546102c2906001600160a01b031681565b34801561056d57600080fd5b506102fa61057c36600461344f565b610f34565b34801561058d57600080fd5b506102fa61059c3660046134c7565b610fef565b3480156105ad57600080fd5b506105c16105bc3660046132eb565b610ffe565b60405161027793929190613500565b3480156105dc57600080fd5b506102fa6105eb366004613572565b61125d565b3480156105fc57600080fd5b506102fa61060b3660046136d0565b61147a565b34801561061c57600080fd5b506102fa61062b3660046139d1565b6114ad565b34801561063c57600080fd5b506006546102c2906001600160a01b031681565b34801561065c57600080fd5b5061029561066b366004613196565b611793565b34801561067c57600080fd5b506102fa61068b36600461344f565b6119f1565b34801561069c57600080fd5b50600b546102c2906001600160a01b031681565b3480156106bc57600080fd5b506105c16106cb366004613b0a565b611aa4565b6102fa6106de366004613b45565b611b87565b3480156106ef57600080fd5b506102fa6106fe366004613241565b611c3e565b34801561070f57600080fd5b50610295611ce0565b34801561072457600080fd5b5061026b610733366004613b80565b611d56565b34801561074457600080fd5b506102fa610753366004613241565b611d84565b34801561076457600080fd5b506102fa610773366004613bae565b611e02565b60006001600160e01b03198216631e68505960e31b148061079d575061079d82611fe5565b92915050565b6060600080546107b290613c48565b80601f01602080910402602001604051908101604052809291908181526020018280546107de90613c48565b801561082b5780601f106108005761010080835404028352916020019161082b565b820191906000526020600020905b81548152906001019060200180831161080e57829003601f168201915b5050505050905090565b60006108408261205b565b506000908152600360205260409020546001600160a01b031690565b600061086782610d1f565b9050806001600160a01b0316836001600160a01b03160361089b5760405163133f8be960e01b815260040160405180910390fd5b336001600160a01b038216148015906108bb57506108b98133611d56565b155b156108d95760405163e5fa0e3560e01b815260040160405180910390fd5b6108e38383612090565b505050565b6108f233826120fe565b61090f5760405163e5fa0e3560e01b815260040160405180910390fd5b6108e383838361215d565b610922612236565b60095460405163036129cb60e61b81526001600160a01b0383811660048301529091169063d84a72c090602401600060405180830381600087803b15801561096957600080fd5b505af115801561097d573d6000803e3d6000fd5b50506040513381526001600160a01b03841692507fe7784d93cfbfa4408e19577e6cc0436f4dbb51214b70e100905dfce9def88c1691506020015b60405180910390a250565b8060005b81811015610a165760008484838181106109e3576109e3613c7c565b9050604002018036038101906109f99190613c92565b9050610a0d8160000151826020015161125d565b506001016109c7565b50505050565b34151580610a9e5750600654600554604051636e49181f60e01b815260048101919091523360248201526001600160a01b0390911690636e49181f90604401602060405180830381865afa158015610a78573d6000803e3d6000fd5b505050506040513d601f19601f82011682018060405250810190610a9c9190613ceb565b155b80610aaf5750600554816020013514155b15610acd57604051633efca5c360e11b815260040160405180910390fd5b6024610add6101c0830183613d08565b90501080610b21575063b3bcbb7960e01b610afc6101c0830183613d08565b610b0b91602491602091613d4e565b610b1491613d78565b6001600160e01b03191614155b15610b3f57604051632a84050f60e01b815260040160405180910390fd5b6000610b4f6101c0830183613d08565b810190610b5c9190613da8565b925050506000815190506000805b82811015610bec57838181518110610b8457610b84613c7c565b60200260200101519150846000016020810190610ba19190613241565b6000838152600260205260409020546001600160a01b03908116911614610bdb5760405163075fd2b160e01b815260040160405180910390fd5b610be482612290565b600101610b6a565b50610a1683612311565b610bfe612236565b8060005b81811015610a165736848483818110610c1d57610c1d613c7c565b9050602002810190610c2f9190613e56565b9050610c4e610c3e8280613e76565b6104c76040850160208601613241565b5050600101610c02565b6108e38383836040518060200160405280600081525061147a565b6009546040516308ed6c0160e41b81523060048201526024810183905260009182916001600160a01b0390911690638ed6c01090604401602060405180830381865afa158015610cc7573d6000803e3d6000fd5b505050506040513d601f19601f82011682018060405250810190610ceb9190613eca565b90506001600160a01b03811615610d025792915050565b50506000908152600260205260409020546001600160a01b031690565b6000818152600260205260408120546001600160a01b03168061079d5760405163b49aa3b560e01b815260040160405180910390fd5b6060610d5f612236565b60095460405163eaa19ab360e01b81526001600160a01b039091169063eaa19ab390610d98906000199088908890600190600401613ee7565b6000604051808303816000875af1158015610db7573d6000803e3d6000fd5b505050506040513d6000823e601f3d908101601f19168201604052610ddf9190810190613faa565b509050826000805b82811015610e9157838181518110610e0157610e01613c7c565b60200260200101519150610e158583612376565b846001600160a01b0316878783818110610e3157610e31613c7c565b9050602002016020810190610e469190613ff0565b604080516000815233602082015261ffff929092169185917f598baf7bf150ca2f42be9e9f8f55e81d45f5715c3ff22bf46d697fabec7f31d6910160405180910390a4600101610de7565b5050509392505050565b600954604051633de222bb60e21b81523060048201526001600160a01b038381166024830152600092169063f7888aec906044015b602060405180830381865afa158015610eed573d6000803e3d6000fd5b505050506040513d601f19601f8201168201806040525081019061079d919061400b565b610f19612236565b610f236000612440565b565b6060600180546107b290613c48565b610f3c612236565b6009546040516331315e5960e11b81526001600160a01b0390911690636262bcb290610f6e9085908590600401614024565b600060405180830381600087803b158015610f8857600080fd5b505af1158015610f9c573d6000803e3d6000fd5b505050508181604051610fb0929190614053565b604051908190038120338252907f7bc9110d5de090dd59e07912d2b93a5a27ac70a60c8d8e324db4f9ee8b8b5c13906020015b60405180910390a25050565b610ffa338383612492565b5050565b6000606080608084013515611026576040516309f82f1b60e31b815260040160405180910390fd5b60246110366101c0860186613d08565b9050108061107a575063b3bcbb7960e01b6110556101c0860186613d08565b61106491602491602091613d4e565b61106d91613d78565b6001600160e01b03191614155b1561109857604051632a84050f60e01b815260040160405180910390fd5b60408051600180825281830190925290816020015b60408051808201909152600080825260208201528152602001906001900390816110ad5790505090506040518060400160405280306001600160a01b0316815260200160008152508160008151811061110857611108613c7c565b602090810291909101015260006111236101c0860186613d08565b8101906111309190613da8565b9250505060006111408287612531565b9050600061114d876125a5565b905060006111608860c0013584846125d6565b9050612710886101800135036111cb578061117f6101a08a018a613d08565b8782828080601f016020809104026020016040519081016040528093929190818152602001838380828437600092019190915250969d50919b5091995061125698505050505050505050565b611201816111ea856111e46101808d0135612710614079565b866125d6565b6111f9906101808c013561408c565b6127106125d6565b61120f6101a08a018a613d08565b8782828080601f016020809104026020016040519081016040528093929190818152602001838380828437600092019190915250969d50919b509199505050505050505050505b9193909250565b600a546005546040516321d1336160e11b815260048101919091526000916001600160a01b0316906343a266c29060240161012060405180830381865afa1580156112ac573d6000803e3d6000fd5b505050506040513d601f19601f820116820180604052508101906112d0919061409f565b61010081015190915060f51c6001908116036112ff57604051631d2c125760e31b815260040160405180910390fd5b600954604051635d53f40760e11b815260048101859052602481018490526000916001600160a01b03169063baa7e80e906044016000604051808303816000875af1158015611352573d6000803e3d6000fd5b505050506040513d6000823e601f3d908101601f1916820160405261137a919081019061411f565b6009546040516304db994760e21b8152306004820152602481018790529192506000916001600160a01b039091169063136e651c90604401602060405180830381865afa1580156113cf573d6000803e3d6000fd5b505050506040513d601f19601f820116820180604052508101906113f39190613eca565b90506000805b858110156114715783818151811061141357611413613c7c565b602002602001015191506114278383612376565b6040513381526001600160a01b03841690889084907f031e1988c95a91ec4d655ff63a8f87a80bc9daf28d95ae10ee08c0022cfb5c8b9060200160405180910390a46001016113f9565b50505050505050565b61148433836120fe565b6114a15760405163e5fa0e3560e01b815260040160405180910390fd5b610a16848484846126a2565b6008546001600160a01b031630036114c457600080fd5b6009546001600160a01b0316156114da57600080fd5b6114e68b8b8b8b6126d6565b600a80546001600160a01b03808a166001600160a01b031992831617909255600980548584169083161790556020850151600c556040850151600d556060850151600b805491909316911617905585511561159a576040516331315e5960e11b81526001600160a01b03831690636262bcb290611567908990600401613183565b600060405180830381600087803b15801561158157600080fd5b505af1158015611595573d6000803e3d6000fd5b505050505b8351156116005760405163d67b78fd60e01b81526001600160a01b0383169063d67b78fd906115cd908790600401613183565b600060405180830381600087803b1580156115e757600080fd5b505af11580156115fb573d6000803e3d6000fd5b505050505b6001600160a01b0385161561166b5760405163036129cb60e61b81526001600160a01b03868116600483015283169063d84a72c090602401600060405180830381600087803b15801561165257600080fd5b505af1158015611666573d6000803e3d6000fd5b505050505b825151156116e957825160405163eadd8b3760e01b81526001600160a01b0384169163eadd8b37916116a09190600401614153565b6000604051808303816000875af11580156116bf573d6000803e3d6000fd5b505050506040513d6000823e601f3d908101601f191682016040526116e7919081019061411f565b505b8051806116f7575080602001515b80611703575080604001515b1561177d576040805163cdb0af6d60e01b815282511515600482015260208301511515602482015290820151151560448201526001600160a01b0383169063cdb0af6d90606401600060405180830381600087803b15801561176457600080fd5b505af1158015611778573d6000803e3d6000fd5b505050505b61178633612440565b5050505050505050505050565b6000818152600260205260409020546060906001600160a01b03166117c657505060408051602081019091526000815290565b600954604051630fab094760e01b81523060048201526000916001600160a01b031690630fab094790602401602060405180830381865afa15801561180f573d6000803e3d6000fd5b505050506040513d601f19601f820116820180604052508101906118339190613eca565b90506001600160a01b038116156118b857604051636d02a25560e11b8152600481018490526001600160a01b0382169063da0544aa90602401600060405180830381865afa158015611889573d6000803e3d6000fd5b505050506040513d6000823e601f3d908101601f191682016040526118b1919081019061422c565b9392505050565b60095460405163f682eeaf60e01b815230600482015273__$2e464bbf4a8803569df10b07372aceee57$__9163030cecc7916001600160a01b039091169063f682eeaf90602401600060405180830381865afa15801561191c573d6000803e3d6000fd5b505050506040513d6000823e601f3d908101601f19168201604052611944919081019061422c565b600954604051630c8df17160e41b8152306004820152602481018890526001600160a01b039091169063c8df171090604401602060405180830381865afa158015611993573d6000803e3d6000fd5b505050506040513d601f19601f820116820180604052508101906119b7919061400b565b6040518363ffffffff1660e01b81526004016119d49291906142a2565b600060405180830381865af4158015611889573d6000803e3d6000fd5b6119f9612236565b60095460405163d67b78fd60e01b81526001600160a01b039091169063d67b78fd90611a2b9085908590600401614024565b600060405180830381600087803b158015611a4557600080fd5b505af1158015611a59573d6000803e3d6000fd5b505050508181604051611a6d929190614053565b604051908190038120338252907fd36dc0c1a06103fdcaf15f3f6fb797d1a97997514c78de073640c8b5005454b890602001610fe3565b610120810135606080611abb610160850185613d08565b8080601f01602080910402602001604051908101604052809392919081815260200183838082843760009201919091525092945060019250611afb915050565b604051908082528060200260200182016040528015611b4057816020015b6040805180820190915260008082526020820152815260200190600190039081611b195790505b5090506040518060400160405280306001600160a01b03168152602001600081525081600081518110611b7557611b75613c7c565b60200260200101819052509193909250565b60055434151580611c085750600654604051636e49181f60e01b8152600481018390523360248201526001600160a01b0390911690636e49181f90604401602060405180830381865afa158015611be2573d6000803e3d6000fd5b505050506040513d601f19601f82011682018060405250810190611c069190613ceb565b155b80611c17575080826020013514155b15611c35576040516331c57b1b60e21b815260040160405180910390fd5b610ffa82612709565b611c46612236565b6009546040516317161f7d60e01b81526001600160a01b038381166004830152909116906317161f7d90602401600060405180830381600087803b158015611c8d57600080fd5b505af1158015611ca1573d6000803e3d6000fd5b50506040513381526001600160a01b03841692507fab0014d4c7a642a02a31b303a318908c22b0fb2001f107278fc6076b4c671b6591506020016109b8565b600954604051630155619b60e71b81523060048201526060916001600160a01b03169063aab0cd8090602401600060405180830381865afa158015611d29573d6000803e3d6000fd5b505050506040513d6000823e601f3d908101601f19168201604052611d51919081019061422c565b905090565b6001600160a01b03918216600090815260046020908152604080832093909416825291909152205460ff1690565b611d8c612236565b6001600160a01b038116611df65760405162461bcd60e51b815260206004820152602660248201527f4f776e61626c653a206e6577206f776e657220697320746865207a65726f206160448201526564647265737360d01b60648201526084015b60405180910390fd5b611dff81612440565b50565b611e0a612236565b82818015611eda576009546040516320512ba160e01b81526001600160a01b03909116906320512ba190611e4490879087906004016142c4565b600060405180830381600087803b158015611e5e57600080fd5b505af1158015611e72573d6000803e3d6000fd5b5050505060005b81811015611ed857848482818110611e9357611e93613c7c565b60405133815260209182029390930135927f832d89d991be5351d793c20faf4b7dd44f8aa9ce39e3cb160c6317de6fbba72992500160405180910390a2600101611e79565b505b8115611fdd5760095460405163eadd8b3760e01b81526000916001600160a01b03169063eadd8b3790611f13908a908a906004016143da565b6000604051808303816000875af1158015611f32573d6000803e3d6000fd5b505050506040513d6000823e601f3d908101601f19168201604052611f5a919081019061411f565b905060005b83811015611fda57818181518110611f7957611f79613c7c565b60200260200101517f85b5b4c4e44e342c8dac3c3a5364494d455043decb9f4bb8e7e0a3020d22fed4898984818110611fb457611fb4613c7c565b9050610140020133604051611fca92919061441d565b60405180910390a2600101611f5f565b50505b505050505050565b60006001600160e01b0319821663b3bcbb7960e01b148061201657506001600160e01b031982166371700c6960e01b145b8061203157506001600160e01b0319821663da9ee8b760e01b145b8061204c57506001600160e01b03198216632b13c58f60e01b145b8061079d575061079d82612a2f565b6000818152600260205260409020546001600160a01b0316611dff5760405163b49aa3b560e01b815260040160405180910390fd5b600081815260036020526040902080546001600160a01b0319166001600160a01b03841690811790915581906120c582610d1f565b6001600160a01b03167f8c5be1e5ebec7d5bd14f71427d1e84f3dd0314c0f7b2291e5b200ac8c7c3b92560405160405180910390a45050565b60008061210a83610d1f565b9050806001600160a01b0316846001600160a01b0316148061213157506121318185611d56565b806121555750836001600160a01b031661214a84610835565b6001600160a01b0316145b949350505050565b826001600160a01b031661217082610d1f565b6001600160a01b0316146121975760405163a195bc5360e01b815260040160405180910390fd5b6001600160a01b0382166121be57604051632c95542760e01b815260040160405180910390fd5b6121c9838383612a7f565b6121d4600082612090565b60008181526002602052604080822080546001600160a01b0319166001600160a01b0386811691821790925591518493918716917fddf252ad1be2c89b69c2b068fc378daa952ba7f163c4a11628f55a4df523b3ef91a46108e3838383612cac565b6007546001600160a01b03163314610f235760405162461bcd60e51b815260206004820181905260248201527f4f776e61626c653a2063616c6c6572206973206e6f7420746865206f776e65726044820152606401611ded565b600061229b82610d1f565b90506122a981600084612a7f565b6122b4600083612090565b60008281526002602052604080822080546001600160a01b0319169055518391906001600160a01b038416907fddf252ad1be2c89b69c2b068fc378daa952ba7f163c4a11628f55a4df523b3ef908390a4610ffa81600084612cac565b6009546040516386bc2be360e01b81526001600160a01b03909116906386bc2be39061234190849060040161343c565b600060405180830381600087803b15801561235b57600080fd5b505af115801561236f573d6000803e3d6000fd5b5050505050565b6001600160a01b03821661239d57604051633904578f60e11b815260040160405180910390fd5b6000818152600260205260409020546001600160a01b0316156123d357604051632eb5f0c360e21b815260040160405180910390fd5b6123df60008383612a7f565b60008181526002602052604080822080546001600160a01b0319166001600160a01b03861690811790915590518392907fddf252ad1be2c89b69c2b068fc378daa952ba7f163c4a11628f55a4df523b3ef908290a4610ffa60008383612cac565b600780546001600160a01b038381166001600160a01b0319831681179093556040519116919082907f8be0079c531659141344cd1fd0a4f28419497f9722a3daafe3b4186f6b6457e090600090a35050565b816001600160a01b0316836001600160a01b0316036124c4576040516306f8139d60e11b815260040160405180910390fd5b6001600160a01b03838116600081815260046020908152604080832094871680845294825291829020805460ff191686151590811790915591519182527f17307eab39ab6107e8899845ad3d59bd9653f200f220920489ca2b5937696c31910160405180910390a3505050565b60095460405163051330b560e21b81526000916001600160a01b03169063144cc2d4906125649030908790600401614445565b602060405180830381865afa158015612581573d6000803e3d6000fd5b505050506040513d601f19601f820116820180604052508101906118b1919061400b565b600954604051631572f24960e11b81523060048201526000916001600160a01b031690632ae5e49290602401610ed0565b60008080600019858709858702925082811083820303915050806000036126105783828161260657612606614469565b04925050506118b1565b83811061263a57604051631dcf306360e21b81526004810182905260248101859052604401611ded565b600084868809600260036001881981018916988990049182028318808302840302808302840302808302840302808302840302808302840302918202909203026000889003889004909101858311909403939093029303949094049190911702949350505050565b6126ad84848461215d565b6126b984848484612d99565b610a16576040516336f57c1b60e11b815260040160405180910390fd5b6126e08282612e9b565b5050600591909155600680546001600160a01b0319166001600160a01b03909216919091179055565b600c5460009060c083013503612724575060808101356127da565b600b546001600160a01b031615610ffa57600d546127d79060808401359061274d90600a614563565b600b54600c54604051635268657960e11b815260c08801356004820152602481019190915260a087013560448201526001600160a01b039091169063a4d0caf290606401602060405180830381865afa1580156127ae573d6000803e3d6000fd5b505050506040513d601f19601f820116820180604052508101906127d2919061400b565b6125d6565b90505b6000600e816127f16101a086016101808701613241565b6001600160a01b031681526020810191909152604001600090812054915082906128236101a086016101808701613241565b6001600160a01b03166128396020870187613241565b6001600160a01b0316036128505790820190612853565b50815b60008060446128666101e0890189613d08565b90501180156128aa575063b3bcbb7960e01b6128866101e0890189613d08565b61289591604491604091613d4e565b61289e91613d78565b6001600160e01b031916145b1561294a57600060606128c16101e08a018a613d08565b8101906128ce919061456f565b919950975090955093505083159150612921905057858501600e60006128fc6101a08d016101808e01613241565b6001600160a01b03168152602081019190915260400160002055505050505050505050565b80511561294757612944868261293f6101a08d016101808e01613241565b612eb4565b95505b50505b83156129ee5761296c846129666101a08a016101808b01613241565b84612ff6565b935083156129cb57801561299357604051631b57826960e21b815260040160405180910390fd5b838301600e60006129ac6101a08b016101808c01613241565b6001600160a01b03168152602081019190915260400160002055611471565b8285146129e95782600e60006129ac6101a08b016101808c01613241565b611471565b8285146114715782600e6000612a0c6101a08b016101808c01613241565b6001600160a01b0316815260208101919091526040016000205550505050505050565b60006001600160e01b031982166380ac58cd60e01b1480612a6057506001600160e01b03198216635b5e139f60e01b145b8061079d57506301ffc9a760e01b6001600160e01b031983161461079d565b6001600160a01b038316156108e35760095460405163b67cb04760e01b8152306004820152602481018390526000916001600160a01b03169063b67cb0479060440161016060405180830381865afa158015612adf573d6000803e3d6000fd5b505050506040513d601f19601f82011682018060405250810190612b039190614666565b905080610140015115612bc857600a546005546040516321d1336160e11b815260048101919091526000916001600160a01b0316906343a266c29060240161012060405180830381865afa158015612b5f573d6000803e3d6000fd5b505050506040513d601f19601f82011682018060405250810190612b83919061409f565b90506001600160a01b03841615801590612ba8575061010081015160f41c6001908116145b15612bc6576040516318cdaf9760e01b815260040160405180910390fd5b505b6009546040516308ed6c0160e41b8152306004820152602481018490526000916001600160a01b031690638ed6c01090604401602060405180830381865afa158015612c18573d6000803e3d6000fd5b505050506040513d601f19601f82011682018060405250810190612c3c9190613eca565b6001600160a01b031603610a1657600954604051638cec7d3960e01b8152600481018490526001600160a01b03868116602483015290911690638cec7d3990604401600060405180830381600087803b158015612c9857600080fd5b505af1158015611fda573d6000803e3d6000fd5b60095460405163b67cb04760e01b8152306004820152602481018390526000916001600160a01b03169063b67cb0479060440161016060405180830381865afa158015612cfd573d6000803e3d6000fd5b505050506040513d601f19601f82011682018060405250810190612d219190614666565b60095481516040516330b157e560e21b815260048101919091526001600160a01b038781166024830152868116604483015292935091169063c2c55f9490606401600060405180830381600087803b158015612d7c57600080fd5b505af1158015612d90573d6000803e3d6000fd5b50505050610a16565b60006001600160a01b0384163b15612e9057604051630a85bd0160e11b81526001600160a01b0385169063150b7a0290612ddd903390899088908890600401614708565b6020604051808303816000875af1925050508015612e18575060408051601f3d908101601f19168201909252612e1591810190614745565b60015b612e76573d808015612e46576040519150601f19603f3d011682016040523d82523d6000602084013e612e4b565b606091505b508051600003612e6e576040516336f57c1b60e11b815260040160405180910390fd5b805181602001fd5b6001600160e01b031916630a85bd0160e11b149050612155565b506001949350505050565b6000612ea783826147a8565b5060016108e382826147a8565b60095460405163eaa19ab360e01b81526000916060916001600160a01b039091169063eaa19ab390612eee90889088908790600401614867565b6000604051808303816000875af1158015612f0d573d6000803e3d6000fd5b505050506040513d6000823e601f3d908101601f19168201604052612f359190810190613faa565b81519093509091506000805b82811015612feb57838181518110612f5b57612f5b613c7c565b60200260200101519150612f6f8683612376565b856001600160a01b0316878281518110612f8b57612f8b613c7c565b602002602001015161ffff16837f598baf7bf150ca2f42be9e9f8f55e81d45f5715c3ff22bf46d697fabec7f31d68b33604051612fdb9291909182526001600160a01b0316602082015260400190565b60405180910390a4600101612f41565b505050509392505050565b60095460405163879791f360e01b815260048101859052600091829182916001600160a01b03169063879791f3906024016060604051808303816000875af1158015613046573d6000803e3d6000fd5b505050506040513d601f19601f8201168201806040525081019061306a91906148c4565b9450909250905060008290036130a057831561309957604051630e5313df60e41b815260040160405180910390fd5b50506118b1565b6130aa8583612376565b6001600160a01b03851681837f598baf7bf150ca2f42be9e9f8f55e81d45f5715c3ff22bf46d697fabec7f31d66130e1878b614079565b604080519182523360208301520160405180910390a450509392505050565b6001600160e01b031981168114611dff57600080fd5b60006020828403121561312857600080fd5b81356118b181613100565b60005b8381101561314e578181015183820152602001613136565b50506000910152565b6000815180845261316f816020860160208601613133565b601f01601f19169290920160200192915050565b6020815260006118b16020830184613157565b6000602082840312156131a857600080fd5b5035919050565b6001600160a01b0381168114611dff57600080fd5b80356131cf816131af565b919050565b600080604083850312156131e757600080fd5b82356131f2816131af565b946020939093013593505050565b60008060006060848603121561321557600080fd5b8335613220816131af565b92506020840135613230816131af565b929592945050506040919091013590565b60006020828403121561325357600080fd5b81356118b1816131af565b6000806020838503121561327157600080fd5b82356001600160401b038082111561328857600080fd5b818501915085601f83011261329c57600080fd5b8135818111156132ab57600080fd5b8660208260061b85010111156132c057600080fd5b60209290920196919550909350505050565b60006101e082840312156132e557600080fd5b50919050565b6000602082840312156132fd57600080fd5b81356001600160401b0381111561331357600080fd5b612155848285016132d2565b60008083601f84011261333157600080fd5b5081356001600160401b0381111561334857600080fd5b6020830191508360208260051b850101111561336357600080fd5b9250929050565b6000806020838503121561337d57600080fd5b82356001600160401b0381111561339357600080fd5b61339f8582860161331f565b90969095509350505050565b6000806000604084860312156133c057600080fd5b83356001600160401b038111156133d657600080fd5b6133e28682870161331f565b90945092505060208401356133f6816131af565b809150509250925092565b600081518084526020808501945080840160005b8381101561343157815187529582019590820190600101613415565b509495945050505050565b6020815260006118b16020830184613401565b6000806020838503121561346257600080fd5b82356001600160401b038082111561347957600080fd5b818501915085601f83011261348d57600080fd5b81358181111561349c57600080fd5b8660208285010111156132c057600080fd5b8015158114611dff57600080fd5b80356131cf816134ae565b600080604083850312156134da57600080fd5b82356134e5816131af565b915060208301356134f5816134ae565b809150509250929050565b8381526000602060608184015261351a6060840186613157565b83810360408581019190915285518083528387019284019060005b8181101561356357845180516001600160a01b03168452860151868401529385019391830191600101613535565b50909998505050505050505050565b6000806040838503121561358557600080fd5b50508035926020909101359150565b634e487b7160e01b600052604160045260246000fd5b604051608081016001600160401b03811182821017156135cc576135cc613594565b60405290565b60405161014081016001600160401b03811182821017156135cc576135cc613594565b60405161012081016001600160401b03811182821017156135cc576135cc613594565b60405161016081016001600160401b03811182821017156135cc576135cc613594565b604051601f8201601f191681016001600160401b038111828210171561366357613663613594565b604052919050565b60006001600160401b0382111561368457613684613594565b50601f01601f191660200190565b60006136a56136a08461366b565b61363b565b90508281528383830111156136b957600080fd5b828260208301376000602084830101529392505050565b600080600080608085870312156136e657600080fd5b84356136f1816131af565b93506020850135613701816131af565b92506040850135915060608501356001600160401b0381111561372357600080fd5b8501601f8101871361373457600080fd5b61374387823560208401613692565b91505092959194509250565b600082601f83011261376057600080fd5b6118b183833560208501613692565b60006001600160401b0382111561378857613788613594565b5060051b60200190565b803569ffffffffffffffffffff811681146131cf57600080fd5b803565ffffffffffff811681146131cf57600080fd5b803564ffffffffff811681146131cf57600080fd5b803561ffff811681146131cf57600080fd5b600060808083850312156137fc57600080fd5b6138046135aa565b915082356001600160401b0381111561381c57600080fd5b8301601f8101851361382d57600080fd5b8035602061383d6136a08361376f565b828152610140928302840182019282820191908985111561385d57600080fd5b948301945b8486101561392c5780868b03121561387a5760008081fd5b6138826135d2565b61388b87613792565b81526138988588016137ac565b8582015260406138a98189016137c2565b9082015260606138ba8882016137d7565b908201526138c98789016137d7565b8882015260a06138da8189016131c4565b9082015260c0878101359082015260e06138f58189016134bc565b908201526101006139078882016134bc565b908201526101206139198882016134bc565b9082015283529485019491830191613862565b50865250858101359085015250505060408083013590820152613951606083016131c4565b606082015292915050565b60006060828403121561396e57600080fd5b604051606081018181106001600160401b038211171561399057613990613594565b60405290508082356139a1816134ae565b815260208301356139b1816134ae565b602082015260408301356139c4816134ae565b6040919091015292915050565b60008060008060008060008060008060006101a08c8e0312156139f357600080fd5b8b359a50613a0360208d016131c4565b99506001600160401b038060408e01351115613a1e57600080fd5b613a2e8e60408f01358f0161374f565b99508060608e01351115613a4157600080fd5b613a518e60608f01358f0161374f565b9850613a5f60808e016131c4565b97508060a08e01351115613a7257600080fd5b613a828e60a08f01358f0161374f565b9650613a9060c08e016131c4565b95508060e08e01351115613aa357600080fd5b613ab38e60e08f01358f0161374f565b9450806101008e01351115613ac757600080fd5b50613ad98d6101008e01358e016137e9565b9250613ae86101208d016131c4565b9150613af88d6101408e0161395c565b90509295989b509295989b9093969950565b600060208284031215613b1c57600080fd5b81356001600160401b03811115613b3257600080fd5b82016101a081850312156118b157600080fd5b600060208284031215613b5757600080fd5b81356001600160401b03811115613b6d57600080fd5b820161020081850312156118b157600080fd5b60008060408385031215613b9357600080fd5b8235613b9e816131af565b915060208301356134f5816131af565b60008060008060408587031215613bc457600080fd5b84356001600160401b0380821115613bdb57600080fd5b818701915087601f830112613bef57600080fd5b813581811115613bfe57600080fd5b88602061014083028501011115613c1457600080fd5b602092830196509450908601359080821115613c2f57600080fd5b50613c3c8782880161331f565b95989497509550505050565b600181811c90821680613c5c57607f821691505b6020821081036132e557634e487b7160e01b600052602260045260246000fd5b634e487b7160e01b600052603260045260246000fd5b600060408284031215613ca457600080fd5b604051604081018181106001600160401b0382111715613cc657613cc6613594565b604052823581526020928301359281019290925250919050565b80516131cf816134ae565b600060208284031215613cfd57600080fd5b81516118b1816134ae565b6000808335601e19843603018112613d1f57600080fd5b8301803591506001600160401b03821115613d3957600080fd5b60200191503681900382131561336357600080fd5b60008085851115613d5e57600080fd5b83861115613d6b57600080fd5b5050820193919092039150565b6001600160e01b03198135818116916004851015613da05780818660040360031b1b83161692505b505092915050565b600080600060608486031215613dbd57600080fd5b83359250602080850135613dd081613100565b925060408501356001600160401b03811115613deb57600080fd5b8501601f81018713613dfc57600080fd5b8035613e0a6136a08261376f565b81815260059190911b82018301908381019089831115613e2957600080fd5b928401925b82841015613e4757833582529284019290840190613e2e565b80955050505050509250925092565b60008235603e19833603018112613e6c57600080fd5b9190910192915050565b6000808335601e19843603018112613e8d57600080fd5b8301803591506001600160401b03821115613ea757600080fd5b6020019150600581901b360382131561336357600080fd5b80516131cf816131af565b600060208284031215613edc57600080fd5b81516118b1816131af565b84815260606020808301829052908201849052600090859060808401835b87811015613f2c5761ffff613f19856137d7565b1682529282019290820190600101613f05565b50809350505050821515604083015295945050505050565b600082601f830112613f5557600080fd5b81516020613f656136a08361376f565b82815260059290921b84018101918181019086841115613f8457600080fd5b8286015b84811015613f9f5780518352918301918301613f88565b509695505050505050565b60008060408385031215613fbd57600080fd5b82516001600160401b03811115613fd357600080fd5b613fdf85828601613f44565b925050602083015190509250929050565b60006020828403121561400257600080fd5b6118b1826137d7565b60006020828403121561401d57600080fd5b5051919050565b60208152816020820152818360408301376000818301604090810191909152601f909201601f19160101919050565b8183823760009101908152919050565b634e487b7160e01b600052601160045260246000fd5b8181038181111561079d5761079d614063565b8082018082111561079d5761079d614063565b600061012082840312156140b257600080fd5b6140ba6135f5565b825181526020830151602082015260408301516040820152606083015160608201526080830151608082015260a083015160a082015260c083015160c082015261410660e08401613ebf565b60e0820152610100928301519281019290925250919050565b60006020828403121561413157600080fd5b81516001600160401b0381111561414757600080fd5b61215584828501613f44565b602080825282518282018190526000919060409081850190868401855b8281101561421f578151805169ffffffffffffffffffff1685528681015165ffffffffffff16878601528581015164ffffffffff168686015260608082015161ffff908116918701919091526080808301519091169086015260a0808201516001600160a01b03169086015260c0808201519086015260e08082015115159086015261010080820151151590860152610120908101511515908501526101409093019290850190600101614170565b5091979650505050505050565b60006020828403121561423e57600080fd5b81516001600160401b0381111561425457600080fd5b8201601f8101841361426557600080fd5b80516142736136a08261366b565b81815285602083850101111561428857600080fd5b614299826020830160208601613133565b95945050505050565b6040815260006142b56040830185613157565b90508260208301529392505050565b6020808252810182905260006001600160fb1b038311156142e457600080fd5b8260051b80856040850137919091016040019392505050565b61431a8261430a83613792565b69ffffffffffffffffffff169052565b614326602082016137ac565b65ffffffffffff16602083015261433f604082016137c2565b64ffffffffff166040830152614357606082016137d7565b61ffff16606083015261436c608082016137d7565b61ffff16608083015261438160a082016131c4565b6001600160a01b031660a083015260c081810135908301526143a560e082016134bc565b151560e08301526101006143ba8282016134bc565b1515908301526101206143ce8282016134bc565b80151584830152610a16565b6020808252810182905260008360408301825b85811015614413576143ff82846142fd565b6101409283019291909101906001016143ed565b5095945050505050565b610160810161442c82856142fd565b6001600160a01b03929092166101409190910152919050565b6001600160a01b038316815260406020820181905260009061215590830184613401565b634e487b7160e01b600052601260045260246000fd5b600181815b808511156144ba5781600019048211156144a0576144a0614063565b808516156144ad57918102915b93841c9390800290614484565b509250929050565b6000826144d15750600161079d565b816144de5750600061079d565b81600181146144f457600281146144fe5761451a565b600191505061079d565b60ff84111561450f5761450f614063565b50506001821b61079d565b5060208310610133831016604e8410600b841016171561453d575081810a61079d565b614547838361447f565b806000190482111561455b5761455b614063565b029392505050565b60006118b183836144c2565b600080600080600080600060e0888a03121561458a57600080fd5b87359650602080890135965060408901356145a481613100565b955060608901356145b4816134ae565b945060808901356145c4816134ae565b935060a08901356145d4816134ae565b925060c08901356001600160401b038111156145ef57600080fd5b8901601f81018b1361460057600080fd5b803561460e6136a08261376f565b81815260059190911b8201830190838101908d83111561462d57600080fd5b928401925b8284101561465257614643846137d7565b82529284019290840190614632565b809550505050505092959891949750929550565b6000610160828403121561467957600080fd5b614681613618565b825181526020830151602082015260408301516040820152606083015160608201526080830151608082015260a083015160a082015260c083015160c08201526146cd60e08401613ebf565b60e082015261010083810151908201526101206146eb818501613ce0565b908201526101406146fd848201613ce0565b908201529392505050565b6001600160a01b038581168252841660208201526040810183905260806060820181905260009061473b90830184613157565b9695505050505050565b60006020828403121561475757600080fd5b81516118b181613100565b601f8211156108e357600081815260208120601f850160051c810160208610156147895750805b601f850160051c820191505b81811015611fdd57828155600101614795565b81516001600160401b038111156147c1576147c1613594565b6147d5816147cf8454613c48565b84614762565b602080601f83116001811461480a57600084156147f25750858301515b600019600386901b1c1916600185901b178555611fdd565b600085815260208120601f198616915b828110156148395788860151825594840194600190910190840161481a565b50858210156148575787850151600019600388901b60f8161c191681555b5050505050600190811b01905550565b6000606082018583526020606081850152818651808452608086019150828801935060005b818110156148ac57845161ffff168352938301939183019160010161488c565b50508093505050508215156040830152949350505050565b6000806000606084860312156148d957600080fd5b835192506020840151915060408401519050925092509256fea2646970667358221220e5129db4159b86468e429faf03c71c5a272db0792e4849874d6bf1834c5761ed64736f6c63430008100033",
    "linkReferences": {
      "contracts/libraries/JBIpfsDecoder.sol": {
        "JBIpfsDecoder": [
          {
            "start": 6503,
            "length": 20
          }
        ]
      }
    }
  },
  "methodIdentifiers": {
    "adjustTiers((uint80,uint48,uint40,uint16,uint16,address,bytes32,bool,bool,bool)[],uint256[])": "f5a38e63",
    "approve(address,uint256)": "095ea7b3",
    "balanceOf(address)": "70a08231",
    "codeOrigin()": "1d153ca4",
    "contractURI()": "e8a3d485",
    "creditsOf(address)": "245a45b5",
    "didPay((address,uint256,uint256,(address,uint256,uint256,uint256),(address,uint256,uint256,uint256),uint256,address,bool,string,bytes))": "da9ee8b7",
    "didRedeem((address,uint256,uint256,uint256,(address,uint256,uint256,uint256),(address,uint256,uint256,uint256),address,string,bytes))": "2b13c58f",
    "directory()": "c41c2f24",
    "firstOwnerOf(uint256)": "54c6d1f5",
    "fundingCycleStore()": "557e7155",
    "getApproved(uint256)": "081812fc",
    "initialize(uint256,address,string,string,address,string,address,string,((uint80,uint48,uint40,uint16,uint16,address,bytes32,bool,bool,bool)[],uint256,uint256,address),address,(bool,bool,bool))": "bb52b6e4",
    "isApprovedForAll(address,address)": "e985e9c5",
    "mintFor((uint16[],address)[])": "36c1a93b",
    "mintFor(uint16[],address)": "6ac6d941",
    "mintReservesFor((uint256,uint256)[])": "2a596e53",
    "mintReservesFor(uint256,uint256)": "aa4fb15b",
    "name()": "06fdde03",
    "owner()": "8da5cb5b",
    "ownerOf(uint256)": "6352211e",
    "payParams((address,address,(address,uint256,uint256,uint256),uint256,uint256,address,uint256,uint256,string,bytes))": "d46cf171",
    "prices()": "d3419bf3",
    "pricingCurrency()": "64640c1e",
    "pricingDecimals()": "4ecba625",
    "projectId()": "3fafa127",
    "redeemParams((address,address,uint256,uint256,uint256,uint256,uint256,(address,uint256,uint256,uint256),bool,uint256,string,bytes))": "a51cfd18",
    "renounceOwnership()": "715018a6",
    "safeTransferFrom(address,address,uint256)": "42842e0e",
    "safeTransferFrom(address,address,uint256,bytes)": "b88d4fde",
    "setApprovalForAll(address,bool)": "a22cb465",
    "setBaseUri(string)": "a0bcfc7f",
    "setContractUri(string)": "ccb4807b",
    "setDefaultReservedTokenBeneficiary(address)": "df487e26",
    "setTokenUriResolver(address)": "2407497e",
    "store()": "975057e7",
    "supportsInterface(bytes4)": "01ffc9a7",
    "symbol()": "95d89b41",
    "tokenURI(uint256)": "c87b56dd",
    "transferFrom(address,address,uint256)": "23b872dd",
    "transferOwnership(address)": "f2fde38b"
  },
  "id": 2
}