{
  "abi": [
    {
      "inputs": [],
      "stateMutability": "nonpayable",
      "type": "constructor"
    },
    {
      "inputs": [],
      "name": "ALEADY_MINTED",
      "type": "error"
    },
    {
      "inputs": [],
      "name": "APPROVAL_TO_CURRENT_OWNER",
      "type": "error"
    },
    {
      "inputs": [],
      "name": "APPROVE_TO_CALLER",
      "type": "error"
    },
    {
      "inputs": [],
      "name": "CALLER_NOT_OWNER_OR_APPROVED",
      "type": "error"
    },
    {
      "inputs": [],
      "name": "INCORRECT_OWNER",
      "type": "error"
    },
    {
      "inputs": [],
      "name": "INVALID_PAYMENT_EVENT",
      "type": "error"
    },
    {
      "inputs": [],
      "name": "INVALID_REDEMPTION_EVENT",
      "type": "error"
    },
    {
      "inputs": [],
      "name": "INVALID_REDEMPTION_METADATA",
      "type": "error"
    },
    {
      "inputs": [],
      "name": "INVALID_TOKEN_ID",
      "type": "error"
    },
    {
      "inputs": [],
      "name": "MINT_TO_ZERO",
      "type": "error"
    },
    {
      "inputs": [],
      "name": "NOT_AVAILABLE",
      "type": "error"
    },
    {
      "inputs": [],
      "name": "OVERSPENDING",
      "type": "error"
    },
    {
      "inputs": [
        {
          "internalType": "uint256",
          "name": "prod1",
          "type": "uint256"
        },
        {
          "internalType": "uint256",
          "name": "denominator",
          "type": "uint256"
        }
      ],
      "name": "PRBMath__MulDivOverflow",
      "type": "error"
    },
    {
      "inputs": [],
      "name": "PRICING_RESOLVER_CHANGES_PAUSED",
      "type": "error"
    },
    {
      "inputs": [],
      "name": "RESERVED_TOKEN_MINTING_PAUSED",
      "type": "error"
    },
    {
      "inputs": [],
      "name": "TRANSFERS_PAUSED",
      "type": "error"
    },
    {
      "inputs": [],
      "name": "TRANSFER_TO_NON_IMPLEMENTER",
      "type": "error"
    },
    {
      "inputs": [],
      "name": "TRANSFER_TO_ZERO_ADDRESS",
      "type": "error"
    },
    {
      "inputs": [],
      "name": "UNAUTHORIZED",
      "type": "error"
    },
    {
      "inputs": [],
      "name": "UNEXPECTED_TOKEN_REDEEMED",
      "type": "error"
    },
    {
      "anonymous": false,
      "inputs": [
        {
          "indexed": true,
          "internalType": "uint256",
          "name": "tierId",
          "type": "uint256"
        },
        {
          "components": [
            {
              "internalType": "uint80",
              "name": "contributionFloor",
              "type": "uint80"
            },
            {
              "internalType": "uint48",
              "name": "lockedUntil",
              "type": "uint48"
            },
            {
              "internalType": "uint40",
              "name": "initialQuantity",
              "type": "uint40"
            },
            {
              "internalType": "uint16",
              "name": "votingUnits",
              "type": "uint16"
            },
            {
              "internalType": "uint16",
              "name": "reservedRate",
              "type": "uint16"
            },
            {
              "internalType": "address",
              "name": "reservedTokenBeneficiary",
              "type": "address"
            },
            {
              "internalType": "uint8",
              "name": "royaltyRate",
              "type": "uint8"
            },
            {
              "internalType": "address",
              "name": "royaltyBeneficiary",
              "type": "address"
            },
            {
              "internalType": "bytes32",
              "name": "encodedIPFSUri",
              "type": "bytes32"
            },
            {
              "internalType": "uint8",
              "name": "category",
              "type": "uint8"
            },
            {
              "internalType": "bool",
              "name": "allowManualMint",
              "type": "bool"
            },
            {
              "internalType": "bool",
              "name": "shouldUseReservedTokenBeneficiaryAsDefault",
              "type": "bool"
            },
            {
              "internalType": "bool",
              "name": "shouldUseRoyaltyBeneficiaryAsDefault",
              "type": "bool"
            },
            {
              "internalType": "bool",
              "name": "transfersPausable",
              "type": "bool"
            }
          ],
          "indexed": false,
          "internalType": "struct JB721TierParams",
          "name": "data",
          "type": "tuple"
        },
        {
          "indexed": false,
          "internalType": "address",
          "name": "caller",
          "type": "address"
        }
      ],
      "name": "AddTier",
      "type": "event"
    },
    {
      "anonymous": false,
      "inputs": [
        {
          "indexed": true,
          "internalType": "address",
          "name": "owner",
          "type": "address"
        },
        {
          "indexed": true,
          "internalType": "address",
          "name": "approved",
          "type": "address"
        },
        {
          "indexed": true,
          "internalType": "uint256",
          "name": "tokenId",
          "type": "uint256"
        }
      ],
      "name": "Approval",
      "type": "event"
    },
    {
      "anonymous": false,
      "inputs": [
        {
          "indexed": true,
          "internalType": "address",
          "name": "owner",
          "type": "address"
        },
        {
          "indexed": true,
          "internalType": "address",
          "name": "operator",
          "type": "address"
        },
        {
          "indexed": false,
          "internalType": "bool",
          "name": "approved",
          "type": "bool"
        }
      ],
      "name": "ApprovalForAll",
      "type": "event"
    },
    {
      "anonymous": false,
      "inputs": [
        {
          "indexed": true,
          "internalType": "uint256",
          "name": "tokenId",
          "type": "uint256"
        },
        {
          "indexed": true,
          "internalType": "uint256",
          "name": "tierId",
          "type": "uint256"
        },
        {
          "indexed": true,
          "internalType": "address",
          "name": "beneficiary",
          "type": "address"
        },
        {
          "indexed": false,
          "internalType": "uint256",
          "name": "totalAmountContributed",
          "type": "uint256"
        },
        {
          "indexed": false,
          "internalType": "address",
          "name": "caller",
          "type": "address"
        }
      ],
      "name": "Mint",
      "type": "event"
    },
    {
      "anonymous": false,
      "inputs": [
        {
          "indexed": true,
          "internalType": "uint256",
          "name": "tokenId",
          "type": "uint256"
        },
        {
          "indexed": true,
          "internalType": "uint256",
          "name": "tierId",
          "type": "uint256"
        },
        {
          "indexed": true,
          "internalType": "address",
          "name": "beneficiary",
          "type": "address"
        },
        {
          "indexed": false,
          "internalType": "address",
          "name": "caller",
          "type": "address"
        }
      ],
      "name": "MintReservedToken",
      "type": "event"
    },
    {
      "anonymous": false,
      "inputs": [
        {
          "indexed": true,
          "internalType": "address",
          "name": "previousOwner",
          "type": "address"
        },
        {
          "indexed": true,
          "internalType": "address",
          "name": "newOwner",
          "type": "address"
        }
      ],
      "name": "OwnershipTransferred",
      "type": "event"
    },
    {
      "anonymous": false,
      "inputs": [
        {
          "indexed": true,
          "internalType": "uint256",
          "name": "tierId",
          "type": "uint256"
        },
        {
          "indexed": false,
          "internalType": "address",
          "name": "caller",
          "type": "address"
        }
      ],
      "name": "RemoveTier",
      "type": "event"
    },
    {
      "anonymous": false,
      "inputs": [
        {
          "indexed": true,
          "internalType": "string",
          "name": "baseUri",
          "type": "string"
        },
        {
          "indexed": false,
          "internalType": "address",
          "name": "caller",
          "type": "address"
        }
      ],
      "name": "SetBaseUri",
      "type": "event"
    },
    {
      "anonymous": false,
      "inputs": [
        {
          "indexed": true,
          "internalType": "string",
          "name": "contractUri",
          "type": "string"
        },
        {
          "indexed": false,
          "internalType": "address",
          "name": "caller",
          "type": "address"
        }
      ],
      "name": "SetContractUri",
      "type": "event"
    },
    {
      "anonymous": false,
      "inputs": [
        {
          "indexed": true,
          "internalType": "address",
          "name": "beneficiary",
          "type": "address"
        },
        {
          "indexed": false,
          "internalType": "address",
          "name": "caller",
          "type": "address"
        }
      ],
      "name": "SetDefaultReservedTokenBeneficiary",
      "type": "event"
    },
    {
      "anonymous": false,
      "inputs": [
        {
          "indexed": true,
          "internalType": "contract IJBTokenUriResolver",
          "name": "newResolver",
          "type": "address"
        },
        {
          "indexed": false,
          "internalType": "address",
          "name": "caller",
          "type": "address"
        }
      ],
      "name": "SetTokenUriResolver",
      "type": "event"
    },
    {
      "anonymous": false,
      "inputs": [
        {
          "indexed": true,
          "internalType": "address",
          "name": "from",
          "type": "address"
        },
        {
          "indexed": true,
          "internalType": "address",
          "name": "to",
          "type": "address"
        },
        {
          "indexed": true,
          "internalType": "uint256",
          "name": "tokenId",
          "type": "uint256"
        }
      ],
      "name": "Transfer",
      "type": "event"
    },
    {
      "inputs": [],
      "name": "MAX_ROYALTY_RATE",
      "outputs": [
        {
          "internalType": "uint256",
          "name": "",
          "type": "uint256"
        }
      ],
      "stateMutability": "view",
      "type": "function"
    },
    {
      "inputs": [
        {
          "components": [
            {
              "internalType": "uint80",
              "name": "contributionFloor",
              "type": "uint80"
            },
            {
              "internalType": "uint48",
              "name": "lockedUntil",
              "type": "uint48"
            },
            {
              "internalType": "uint40",
              "name": "initialQuantity",
              "type": "uint40"
            },
            {
              "internalType": "uint16",
              "name": "votingUnits",
              "type": "uint16"
            },
            {
              "internalType": "uint16",
              "name": "reservedRate",
              "type": "uint16"
            },
            {
              "internalType": "address",
              "name": "reservedTokenBeneficiary",
              "type": "address"
            },
            {
              "internalType": "uint8",
              "name": "royaltyRate",
              "type": "uint8"
            },
            {
              "internalType": "address",
              "name": "royaltyBeneficiary",
              "type": "address"
            },
            {
              "internalType": "bytes32",
              "name": "encodedIPFSUri",
              "type": "bytes32"
            },
            {
              "internalType": "uint8",
              "name": "category",
              "type": "uint8"
            },
            {
              "internalType": "bool",
              "name": "allowManualMint",
              "type": "bool"
            },
            {
              "internalType": "bool",
              "name": "shouldUseReservedTokenBeneficiaryAsDefault",
              "type": "bool"
            },
            {
              "internalType": "bool",
              "name": "shouldUseRoyaltyBeneficiaryAsDefault",
              "type": "bool"
            },
            {
              "internalType": "bool",
              "name": "transfersPausable",
              "type": "bool"
            }
          ],
          "internalType": "struct JB721TierParams[]",
          "name": "_tiersToAdd",
          "type": "tuple[]"
        },
        {
          "internalType": "uint256[]",
          "name": "_tierIdsToRemove",
          "type": "uint256[]"
        }
      ],
      "name": "adjustTiers",
      "outputs": [],
      "stateMutability": "nonpayable",
      "type": "function"
    },
    {
      "inputs": [
        {
          "internalType": "address",
          "name": "to",
          "type": "address"
        },
        {
          "internalType": "uint256",
          "name": "tokenId",
          "type": "uint256"
        }
      ],
      "name": "approve",
      "outputs": [],
      "stateMutability": "nonpayable",
      "type": "function"
    },
    {
      "inputs": [
        {
          "internalType": "address",
          "name": "_owner",
          "type": "address"
        }
      ],
      "name": "balanceOf",
      "outputs": [
        {
          "internalType": "uint256",
          "name": "balance",
          "type": "uint256"
        }
      ],
      "stateMutability": "view",
      "type": "function"
    },
    {
      "inputs": [],
      "name": "codeOrigin",
      "outputs": [
        {
          "internalType": "address",
          "name": "",
          "type": "address"
        }
      ],
      "stateMutability": "view",
      "type": "function"
    },
    {
      "inputs": [],
      "name": "contractURI",
      "outputs": [
        {
          "internalType": "string",
          "name": "",
          "type": "string"
        }
      ],
      "stateMutability": "view",
      "type": "function"
    },
    {
      "inputs": [
        {
          "internalType": "address",
          "name": "",
          "type": "address"
        }
      ],
      "name": "creditsOf",
      "outputs": [
        {
          "internalType": "uint256",
          "name": "",
          "type": "uint256"
        }
      ],
      "stateMutability": "view",
      "type": "function"
    },
    {
      "inputs": [
        {
          "components": [
            {
              "internalType": "address",
              "name": "payer",
              "type": "address"
            },
            {
              "internalType": "uint256",
              "name": "projectId",
              "type": "uint256"
            },
            {
              "internalType": "uint256",
              "name": "currentFundingCycleConfiguration",
              "type": "uint256"
            },
            {
              "components": [
                {
                  "internalType": "address",
                  "name": "token",
                  "type": "address"
                },
                {
                  "internalType": "uint256",
                  "name": "value",
                  "type": "uint256"
                },
                {
                  "internalType": "uint256",
                  "name": "decimals",
                  "type": "uint256"
                },
                {
                  "internalType": "uint256",
                  "name": "currency",
                  "type": "uint256"
                }
              ],
              "internalType": "struct JBTokenAmount",
              "name": "amount",
              "type": "tuple"
            },
            {
              "components": [
                {
                  "internalType": "address",
                  "name": "token",
                  "type": "address"
                },
                {
                  "internalType": "uint256",
                  "name": "value",
                  "type": "uint256"
                },
                {
                  "internalType": "uint256",
                  "name": "decimals",
                  "type": "uint256"
                },
                {
                  "internalType": "uint256",
                  "name": "currency",
                  "type": "uint256"
                }
              ],
              "internalType": "struct JBTokenAmount",
              "name": "forwardedAmount",
              "type": "tuple"
            },
            {
              "internalType": "uint256",
              "name": "projectTokenCount",
              "type": "uint256"
            },
            {
              "internalType": "address",
              "name": "beneficiary",
              "type": "address"
            },
            {
              "internalType": "bool",
              "name": "preferClaimedTokens",
              "type": "bool"
            },
            {
              "internalType": "string",
              "name": "memo",
              "type": "string"
            },
            {
              "internalType": "bytes",
              "name": "metadata",
              "type": "bytes"
            }
          ],
          "internalType": "struct JBDidPayData",
          "name": "_data",
          "type": "tuple"
        }
      ],
      "name": "didPay",
      "outputs": [],
      "stateMutability": "payable",
      "type": "function"
    },
    {
      "inputs": [
        {
          "components": [
            {
              "internalType": "address",
              "name": "holder",
              "type": "address"
            },
            {
              "internalType": "uint256",
              "name": "projectId",
              "type": "uint256"
            },
            {
              "internalType": "uint256",
              "name": "currentFundingCycleConfiguration",
              "type": "uint256"
            },
            {
              "internalType": "uint256",
              "name": "projectTokenCount",
              "type": "uint256"
            },
            {
              "components": [
                {
                  "internalType": "address",
                  "name": "token",
                  "type": "address"
                },
                {
                  "internalType": "uint256",
                  "name": "value",
                  "type": "uint256"
                },
                {
                  "internalType": "uint256",
                  "name": "decimals",
                  "type": "uint256"
                },
                {
                  "internalType": "uint256",
                  "name": "currency",
                  "type": "uint256"
                }
              ],
              "internalType": "struct JBTokenAmount",
              "name": "reclaimedAmount",
              "type": "tuple"
            },
            {
              "components": [
                {
                  "internalType": "address",
                  "name": "token",
                  "type": "address"
                },
                {
                  "internalType": "uint256",
                  "name": "value",
                  "type": "uint256"
                },
                {
                  "internalType": "uint256",
                  "name": "decimals",
                  "type": "uint256"
                },
                {
                  "internalType": "uint256",
                  "name": "currency",
                  "type": "uint256"
                }
              ],
              "internalType": "struct JBTokenAmount",
              "name": "forwardedAmount",
              "type": "tuple"
            },
            {
              "internalType": "address payable",
              "name": "beneficiary",
              "type": "address"
            },
            {
              "internalType": "string",
              "name": "memo",
              "type": "string"
            },
            {
              "internalType": "bytes",
              "name": "metadata",
              "type": "bytes"
            }
          ],
          "internalType": "struct JBDidRedeemData",
          "name": "_data",
          "type": "tuple"
        }
      ],
      "name": "didRedeem",
      "outputs": [],
      "stateMutability": "payable",
      "type": "function"
    },
    {
      "inputs": [],
      "name": "directory",
      "outputs": [
        {
          "internalType": "contract IJBDirectory",
          "name": "",
          "type": "address"
        }
      ],
      "stateMutability": "view",
      "type": "function"
    },
    {
      "inputs": [
        {
          "internalType": "uint256",
          "name": "_tokenId",
          "type": "uint256"
        }
      ],
      "name": "firstOwnerOf",
      "outputs": [
        {
          "internalType": "address",
          "name": "",
          "type": "address"
        }
      ],
      "stateMutability": "view",
      "type": "function"
    },
    {
      "inputs": [],
      "name": "fundingCycleStore",
      "outputs": [
        {
          "internalType": "contract IJBFundingCycleStore",
          "name": "",
          "type": "address"
        }
      ],
      "stateMutability": "view",
      "type": "function"
    },
    {
      "inputs": [
        {
          "internalType": "uint256",
          "name": "tokenId",
          "type": "uint256"
        }
      ],
      "name": "getApproved",
      "outputs": [
        {
          "internalType": "address",
          "name": "",
          "type": "address"
        }
      ],
      "stateMutability": "view",
      "type": "function"
    },
    {
      "inputs": [
        {
          "internalType": "uint256",
          "name": "_projectId",
          "type": "uint256"
        },
        {
          "internalType": "contract IJBDirectory",
          "name": "_directory",
          "type": "address"
        },
        {
          "internalType": "string",
          "name": "_name",
          "type": "string"
        },
        {
          "internalType": "string",
          "name": "_symbol",
          "type": "string"
        },
        {
          "internalType": "contract IJBFundingCycleStore",
          "name": "_fundingCycleStore",
          "type": "address"
        },
        {
          "internalType": "string",
          "name": "_baseUri",
          "type": "string"
        },
        {
          "internalType": "contract IJBTokenUriResolver",
          "name": "_tokenUriResolver",
          "type": "address"
        },
        {
          "internalType": "string",
          "name": "_contractUri",
          "type": "string"
        },
        {
          "components": [
            {
              "components": [
                {
                  "internalType": "uint80",
                  "name": "contributionFloor",
                  "type": "uint80"
                },
                {
                  "internalType": "uint48",
                  "name": "lockedUntil",
                  "type": "uint48"
                },
                {
                  "internalType": "uint40",
                  "name": "initialQuantity",
                  "type": "uint40"
                },
                {
                  "internalType": "uint16",
                  "name": "votingUnits",
                  "type": "uint16"
                },
                {
                  "internalType": "uint16",
                  "name": "reservedRate",
                  "type": "uint16"
                },
                {
                  "internalType": "address",
                  "name": "reservedTokenBeneficiary",
                  "type": "address"
                },
                {
                  "internalType": "uint8",
                  "name": "royaltyRate",
                  "type": "uint8"
                },
                {
                  "internalType": "address",
                  "name": "royaltyBeneficiary",
                  "type": "address"
                },
                {
                  "internalType": "bytes32",
                  "name": "encodedIPFSUri",
                  "type": "bytes32"
                },
                {
                  "internalType": "uint8",
                  "name": "category",
                  "type": "uint8"
                },
                {
                  "internalType": "bool",
                  "name": "allowManualMint",
                  "type": "bool"
                },
                {
                  "internalType": "bool",
                  "name": "shouldUseReservedTokenBeneficiaryAsDefault",
                  "type": "bool"
                },
                {
                  "internalType": "bool",
                  "name": "shouldUseRoyaltyBeneficiaryAsDefault",
                  "type": "bool"
                },
                {
                  "internalType": "bool",
                  "name": "transfersPausable",
                  "type": "bool"
                }
              ],
              "internalType": "struct JB721TierParams[]",
              "name": "tiers",
              "type": "tuple[]"
            },
            {
              "internalType": "uint256",
              "name": "currency",
              "type": "uint256"
            },
            {
              "internalType": "uint256",
              "name": "decimals",
              "type": "uint256"
            },
            {
              "internalType": "contract IJBPrices",
              "name": "prices",
              "type": "address"
            }
          ],
          "internalType": "struct JB721PricingParams",
          "name": "_pricing",
          "type": "tuple"
        },
        {
          "internalType": "contract IJBTiered721DelegateStore",
          "name": "_store",
          "type": "address"
        },
        {
          "components": [
            {
              "internalType": "bool",
              "name": "lockReservedTokenChanges",
              "type": "bool"
            },
            {
              "internalType": "bool",
              "name": "lockVotingUnitChanges",
              "type": "bool"
            },
            {
              "internalType": "bool",
              "name": "lockManualMintingChanges",
              "type": "bool"
            },
            {
              "internalType": "bool",
              "name": "preventOverspending",
              "type": "bool"
            }
          ],
          "internalType": "struct JBTiered721Flags",
          "name": "_flags",
          "type": "tuple"
        }
      ],
      "name": "initialize",
      "outputs": [],
      "stateMutability": "nonpayable",
      "type": "function"
    },
    {
      "inputs": [
        {
          "internalType": "address",
          "name": "owner",
          "type": "address"
        },
        {
          "internalType": "address",
          "name": "operator",
          "type": "address"
        }
      ],
      "name": "isApprovedForAll",
      "outputs": [
        {
          "internalType": "bool",
          "name": "",
          "type": "bool"
        }
      ],
      "stateMutability": "view",
      "type": "function"
    },
    {
      "inputs": [
        {
          "components": [
            {
              "internalType": "uint16[]",
              "name": "tierIds",
              "type": "uint16[]"
            },
            {
              "internalType": "address",
              "name": "beneficiary",
              "type": "address"
            }
          ],
          "internalType": "struct JBTiered721MintForTiersData[]",
          "name": "_mintForTiersData",
          "type": "tuple[]"
        }
      ],
      "name": "mintFor",
      "outputs": [],
      "stateMutability": "nonpayable",
      "type": "function"
    },
    {
      "inputs": [
        {
          "internalType": "uint16[]",
          "name": "_tierIds",
          "type": "uint16[]"
        },
        {
          "internalType": "address",
          "name": "_beneficiary",
          "type": "address"
        }
      ],
      "name": "mintFor",
      "outputs": [
        {
          "internalType": "uint256[]",
          "name": "tokenIds",
          "type": "uint256[]"
        }
      ],
      "stateMutability": "nonpayable",
      "type": "function"
    },
    {
      "inputs": [
        {
          "components": [
            {
              "internalType": "uint256",
              "name": "tierId",
              "type": "uint256"
            },
            {
              "internalType": "uint256",
              "name": "count",
              "type": "uint256"
            }
          ],
          "internalType": "struct JBTiered721MintReservesForTiersData[]",
          "name": "_mintReservesForTiersData",
          "type": "tuple[]"
        }
      ],
      "name": "mintReservesFor",
      "outputs": [],
      "stateMutability": "nonpayable",
      "type": "function"
    },
    {
      "inputs": [
        {
          "internalType": "uint256",
          "name": "_tierId",
          "type": "uint256"
        },
        {
          "internalType": "uint256",
          "name": "_count",
          "type": "uint256"
        }
      ],
      "name": "mintReservesFor",
      "outputs": [],
      "stateMutability": "nonpayable",
      "type": "function"
    },
    {
      "inputs": [],
      "name": "name",
      "outputs": [
        {
          "internalType": "string",
          "name": "",
          "type": "string"
        }
      ],
      "stateMutability": "view",
      "type": "function"
    },
    {
      "inputs": [],
      "name": "owner",
      "outputs": [
        {
          "internalType": "address",
          "name": "",
          "type": "address"
        }
      ],
      "stateMutability": "view",
      "type": "function"
    },
    {
      "inputs": [
        {
          "internalType": "uint256",
          "name": "tokenId",
          "type": "uint256"
        }
      ],
      "name": "ownerOf",
      "outputs": [
        {
          "internalType": "address",
          "name": "",
          "type": "address"
        }
      ],
      "stateMutability": "view",
      "type": "function"
    },
    {
      "inputs": [
        {
          "components": [
            {
              "internalType": "contract IJBPaymentTerminal",
              "name": "terminal",
              "type": "address"
            },
            {
              "internalType": "address",
              "name": "payer",
              "type": "address"
            },
            {
              "components": [
                {
                  "internalType": "address",
                  "name": "token",
                  "type": "address"
                },
                {
                  "internalType": "uint256",
                  "name": "value",
                  "type": "uint256"
                },
                {
                  "internalType": "uint256",
                  "name": "decimals",
                  "type": "uint256"
                },
                {
                  "internalType": "uint256",
                  "name": "currency",
                  "type": "uint256"
                }
              ],
              "internalType": "struct JBTokenAmount",
              "name": "amount",
              "type": "tuple"
            },
            {
              "internalType": "uint256",
              "name": "projectId",
              "type": "uint256"
            },
            {
              "internalType": "uint256",
              "name": "currentFundingCycleConfiguration",
              "type": "uint256"
            },
            {
              "internalType": "address",
              "name": "beneficiary",
              "type": "address"
            },
            {
              "internalType": "uint256",
              "name": "weight",
              "type": "uint256"
            },
            {
              "internalType": "uint256",
              "name": "reservedRate",
              "type": "uint256"
            },
            {
              "internalType": "string",
              "name": "memo",
              "type": "string"
            },
            {
              "internalType": "bytes",
              "name": "metadata",
              "type": "bytes"
            }
          ],
          "internalType": "struct JBPayParamsData",
          "name": "_data",
          "type": "tuple"
        }
      ],
      "name": "payParams",
      "outputs": [
        {
          "internalType": "uint256",
          "name": "weight",
          "type": "uint256"
        },
        {
          "internalType": "string",
          "name": "memo",
          "type": "string"
        },
        {
          "components": [
            {
              "internalType": "contract IJBPayDelegate",
              "name": "delegate",
              "type": "address"
            },
            {
              "internalType": "uint256",
              "name": "amount",
              "type": "uint256"
            }
          ],
          "internalType": "struct JBPayDelegateAllocation[]",
          "name": "delegateAllocations",
          "type": "tuple[]"
        }
      ],
      "stateMutability": "view",
      "type": "function"
    },
    {
      "inputs": [],
      "name": "prices",
      "outputs": [
        {
          "internalType": "contract IJBPrices",
          "name": "",
          "type": "address"
        }
      ],
      "stateMutability": "view",
      "type": "function"
    },
    {
      "inputs": [],
      "name": "pricingCurrency",
      "outputs": [
        {
          "internalType": "uint256",
          "name": "",
          "type": "uint256"
        }
      ],
      "stateMutability": "view",
      "type": "function"
    },
    {
      "inputs": [],
      "name": "pricingDecimals",
      "outputs": [
        {
          "internalType": "uint256",
          "name": "",
          "type": "uint256"
        }
      ],
      "stateMutability": "view",
      "type": "function"
    },
    {
      "inputs": [],
      "name": "projectId",
      "outputs": [
        {
          "internalType": "uint256",
          "name": "",
          "type": "uint256"
        }
      ],
      "stateMutability": "view",
      "type": "function"
    },
    {
      "inputs": [
        {
          "components": [
            {
              "internalType": "contract IJBPaymentTerminal",
              "name": "terminal",
              "type": "address"
            },
            {
              "internalType": "address",
              "name": "holder",
              "type": "address"
            },
            {
              "internalType": "uint256",
              "name": "projectId",
              "type": "uint256"
            },
            {
              "internalType": "uint256",
              "name": "currentFundingCycleConfiguration",
              "type": "uint256"
            },
            {
              "internalType": "uint256",
              "name": "tokenCount",
              "type": "uint256"
            },
            {
              "internalType": "uint256",
              "name": "totalSupply",
              "type": "uint256"
            },
            {
              "internalType": "uint256",
              "name": "overflow",
              "type": "uint256"
            },
            {
              "components": [
                {
                  "internalType": "address",
                  "name": "token",
                  "type": "address"
                },
                {
                  "internalType": "uint256",
                  "name": "value",
                  "type": "uint256"
                },
                {
                  "internalType": "uint256",
                  "name": "decimals",
                  "type": "uint256"
                },
                {
                  "internalType": "uint256",
                  "name": "currency",
                  "type": "uint256"
                }
              ],
              "internalType": "struct JBTokenAmount",
              "name": "reclaimAmount",
              "type": "tuple"
            },
            {
              "internalType": "bool",
              "name": "useTotalOverflow",
              "type": "bool"
            },
            {
              "internalType": "uint256",
              "name": "redemptionRate",
              "type": "uint256"
            },
            {
              "internalType": "string",
              "name": "memo",
              "type": "string"
            },
            {
              "internalType": "bytes",
              "name": "metadata",
              "type": "bytes"
            }
          ],
          "internalType": "struct JBRedeemParamsData",
          "name": "_data",
          "type": "tuple"
        }
      ],
      "name": "redeemParams",
      "outputs": [
        {
          "internalType": "uint256",
          "name": "reclaimAmount",
          "type": "uint256"
        },
        {
          "internalType": "string",
          "name": "memo",
          "type": "string"
        },
        {
          "components": [
            {
              "internalType": "contract IJBRedemptionDelegate",
              "name": "delegate",
              "type": "address"
            },
            {
              "internalType": "uint256",
              "name": "amount",
              "type": "uint256"
            }
          ],
          "internalType": "struct JBRedemptionDelegateAllocation[]",
          "name": "delegateAllocations",
          "type": "tuple[]"
        }
      ],
      "stateMutability": "view",
      "type": "function"
    },
    {
      "inputs": [
        {
          "internalType": "uint256[]",
          "name": "_tokenIds",
          "type": "uint256[]"
        },
        {
          "components": [
            {
              "internalType": "contract IJBPaymentTerminal",
              "name": "terminal",
              "type": "address"
            },
            {
              "internalType": "address",
              "name": "holder",
              "type": "address"
            },
            {
              "internalType": "uint256",
              "name": "projectId",
              "type": "uint256"
            },
            {
              "internalType": "uint256",
              "name": "currentFundingCycleConfiguration",
              "type": "uint256"
            },
            {
              "internalType": "uint256",
              "name": "tokenCount",
              "type": "uint256"
            },
            {
              "internalType": "uint256",
              "name": "totalSupply",
              "type": "uint256"
            },
            {
              "internalType": "uint256",
              "name": "overflow",
              "type": "uint256"
            },
            {
              "components": [
                {
                  "internalType": "address",
                  "name": "token",
                  "type": "address"
                },
                {
                  "internalType": "uint256",
                  "name": "value",
                  "type": "uint256"
                },
                {
                  "internalType": "uint256",
                  "name": "decimals",
                  "type": "uint256"
                },
                {
                  "internalType": "uint256",
                  "name": "currency",
                  "type": "uint256"
                }
              ],
              "internalType": "struct JBTokenAmount",
              "name": "reclaimAmount",
              "type": "tuple"
            },
            {
              "internalType": "bool",
              "name": "useTotalOverflow",
              "type": "bool"
            },
            {
              "internalType": "uint256",
              "name": "redemptionRate",
              "type": "uint256"
            },
            {
              "internalType": "string",
              "name": "memo",
              "type": "string"
            },
            {
              "internalType": "bytes",
              "name": "metadata",
              "type": "bytes"
            }
          ],
          "internalType": "struct JBRedeemParamsData",
          "name": "",
          "type": "tuple"
        }
      ],
      "name": "redemptionWeightOf",
      "outputs": [
        {
          "internalType": "uint256",
          "name": "",
          "type": "uint256"
        }
      ],
      "stateMutability": "view",
      "type": "function"
    },
    {
      "inputs": [],
      "name": "renounceOwnership",
      "outputs": [],
      "stateMutability": "nonpayable",
      "type": "function"
    },
    {
      "inputs": [
        {
          "internalType": "uint256",
          "name": "_tokenId",
          "type": "uint256"
        },
        {
          "internalType": "uint256",
          "name": "_salePrice",
          "type": "uint256"
        }
      ],
      "name": "royaltyInfo",
      "outputs": [
        {
          "internalType": "address",
          "name": "receiver",
          "type": "address"
        },
        {
          "internalType": "uint256",
          "name": "royaltyAmount",
          "type": "uint256"
        }
      ],
      "stateMutability": "view",
      "type": "function"
    },
    {
      "inputs": [
        {
          "internalType": "address",
          "name": "from",
          "type": "address"
        },
        {
          "internalType": "address",
          "name": "to",
          "type": "address"
        },
        {
          "internalType": "uint256",
          "name": "tokenId",
          "type": "uint256"
        }
      ],
      "name": "safeTransferFrom",
      "outputs": [],
      "stateMutability": "nonpayable",
      "type": "function"
    },
    {
      "inputs": [
        {
          "internalType": "address",
          "name": "from",
          "type": "address"
        },
        {
          "internalType": "address",
          "name": "to",
          "type": "address"
        },
        {
          "internalType": "uint256",
          "name": "tokenId",
          "type": "uint256"
        },
        {
          "internalType": "bytes",
          "name": "data",
          "type": "bytes"
        }
      ],
      "name": "safeTransferFrom",
      "outputs": [],
      "stateMutability": "nonpayable",
      "type": "function"
    },
    {
      "inputs": [
        {
          "internalType": "address",
          "name": "operator",
          "type": "address"
        },
        {
          "internalType": "bool",
          "name": "approved",
          "type": "bool"
        }
      ],
      "name": "setApprovalForAll",
      "outputs": [],
      "stateMutability": "nonpayable",
      "type": "function"
    },
    {
      "inputs": [
        {
          "internalType": "string",
          "name": "_baseUri",
          "type": "string"
        }
      ],
      "name": "setBaseUri",
      "outputs": [],
      "stateMutability": "nonpayable",
      "type": "function"
    },
    {
      "inputs": [
        {
          "internalType": "string",
          "name": "_contractUri",
          "type": "string"
        }
      ],
      "name": "setContractUri",
      "outputs": [],
      "stateMutability": "nonpayable",
      "type": "function"
    },
    {
      "inputs": [
        {
          "internalType": "address",
          "name": "_beneficiary",
          "type": "address"
        }
      ],
      "name": "setDefaultReservedTokenBeneficiary",
      "outputs": [],
      "stateMutability": "nonpayable",
      "type": "function"
    },
    {
      "inputs": [
        {
          "internalType": "contract IJBTokenUriResolver",
          "name": "_tokenUriResolver",
          "type": "address"
        }
      ],
      "name": "setTokenUriResolver",
      "outputs": [],
      "stateMutability": "nonpayable",
      "type": "function"
    },
    {
      "inputs": [],
      "name": "store",
      "outputs": [
        {
          "internalType": "contract IJBTiered721DelegateStore",
          "name": "",
          "type": "address"
        }
      ],
      "stateMutability": "view",
      "type": "function"
    },
    {
      "inputs": [
        {
          "internalType": "bytes4",
          "name": "_interfaceId",
          "type": "bytes4"
        }
      ],
      "name": "supportsInterface",
      "outputs": [
        {
          "internalType": "bool",
          "name": "",
          "type": "bool"
        }
      ],
      "stateMutability": "view",
      "type": "function"
    },
    {
      "inputs": [],
      "name": "symbol",
      "outputs": [
        {
          "internalType": "string",
          "name": "",
          "type": "string"
        }
      ],
      "stateMutability": "view",
      "type": "function"
    },
    {
      "inputs": [
        {
          "internalType": "uint256",
          "name": "_tokenId",
          "type": "uint256"
        }
      ],
      "name": "tokenURI",
      "outputs": [
        {
          "internalType": "string",
          "name": "",
          "type": "string"
        }
      ],
      "stateMutability": "view",
      "type": "function"
    },
    {
      "inputs": [
        {
          "components": [
            {
              "internalType": "contract IJBPaymentTerminal",
              "name": "terminal",
              "type": "address"
            },
            {
              "internalType": "address",
              "name": "holder",
              "type": "address"
            },
            {
              "internalType": "uint256",
              "name": "projectId",
              "type": "uint256"
            },
            {
              "internalType": "uint256",
              "name": "currentFundingCycleConfiguration",
              "type": "uint256"
            },
            {
              "internalType": "uint256",
              "name": "tokenCount",
              "type": "uint256"
            },
            {
              "internalType": "uint256",
              "name": "totalSupply",
              "type": "uint256"
            },
            {
              "internalType": "uint256",
              "name": "overflow",
              "type": "uint256"
            },
            {
              "components": [
                {
                  "internalType": "address",
                  "name": "token",
                  "type": "address"
                },
                {
                  "internalType": "uint256",
                  "name": "value",
                  "type": "uint256"
                },
                {
                  "internalType": "uint256",
                  "name": "decimals",
                  "type": "uint256"
                },
                {
                  "internalType": "uint256",
                  "name": "currency",
                  "type": "uint256"
                }
              ],
              "internalType": "struct JBTokenAmount",
              "name": "reclaimAmount",
              "type": "tuple"
            },
            {
              "internalType": "bool",
              "name": "useTotalOverflow",
              "type": "bool"
            },
            {
              "internalType": "uint256",
              "name": "redemptionRate",
              "type": "uint256"
            },
            {
              "internalType": "string",
              "name": "memo",
              "type": "string"
            },
            {
              "internalType": "bytes",
              "name": "metadata",
              "type": "bytes"
            }
          ],
          "internalType": "struct JBRedeemParamsData",
          "name": "",
          "type": "tuple"
        }
      ],
      "name": "totalRedemptionWeight",
      "outputs": [
        {
          "internalType": "uint256",
          "name": "",
          "type": "uint256"
        }
      ],
      "stateMutability": "view",
      "type": "function"
    },
    {
      "inputs": [
        {
          "internalType": "address",
          "name": "from",
          "type": "address"
        },
        {
          "internalType": "address",
          "name": "to",
          "type": "address"
        },
        {
          "internalType": "uint256",
          "name": "tokenId",
          "type": "uint256"
        }
      ],
      "name": "transferFrom",
      "outputs": [],
      "stateMutability": "nonpayable",
      "type": "function"
    },
    {
      "inputs": [
        {
          "internalType": "address",
          "name": "newOwner",
          "type": "address"
        }
      ],
      "name": "transferOwnership",
      "outputs": [],
      "stateMutability": "nonpayable",
      "type": "function"
    }
  ],
  "bytecode": {
    "object": "0x60806040523480156200001157600080fd5b506200001d3362000035565b600880546001600160a01b0319163017905562000087565b600780546001600160a01b038381166001600160a01b0319831681179093556040519116919082907f8be0079c531659141344cd1fd0a4f28419497f9722a3daafe3b4186f6b6457e090600090a35050565b614fbf80620000976000396000f3fe6080604052600436106102725760003560e01c8063715018a61161014f578063b88d4fde116100c1578063d46cf1711161007a578063d46cf17114610790578063da9ee8b7146107b0578063df487e26146107c3578063e8a3d485146107e3578063e985e9c5146107f8578063f2fde38b1461084157600080fd5b8063b88d4fde146106d0578063c41c2f24146106f0578063c87b56dd14610710578063ccb4807b14610730578063d1704baf14610750578063d3419bf31461077057600080fd5b806395d89b411161011357806395d89b411461060c578063975057e714610621578063a0bcfc7f14610641578063a22cb46514610661578063a51cfd1814610681578063aa4fb15b146106b057600080fd5b8063715018a61461058457806379a75319146105995780637ba62bf9146105ae5780638da5cb5b146105ce5780639494bf72146105ec57600080fd5b80632b13c58f116101e857806354c6d1f5116101ac57806354c6d1f5146104c1578063557e7155146104e15780636352211e1461050157806364640c1e146105215780636ac6d9411461053757806370a082311461056457600080fd5b80632b13c58f1461044257806336c1a93b146104555780633fafa1271461047557806342842e0e1461048b5780634ecba625146104ab57600080fd5b806323b872dd1161023a57806323b872dd146103485780632407497e14610368578063245a45b51461038857806325eb91ee146103c35780632a55205a146103e35780632a596e531461042257600080fd5b806301ffc9a71461027757806306fdde03146102ac578063081812fc146102ce578063095ea7b3146103065780631d153ca414610328575b600080fd5b34801561028357600080fd5b506102976102923660046135d2565b610861565b60405190151581526020015b60405180910390f35b3480156102b857600080fd5b506102c161088c565b6040516102a3919061363f565b3480156102da57600080fd5b506102ee6102e9366004613652565b61091e565b6040516001600160a01b0390911681526020016102a3565b34801561031257600080fd5b50610326610321366004613690565b610945565b005b34801561033457600080fd5b506008546102ee906001600160a01b031681565b34801561035457600080fd5b506103266103633660046136bc565b6109d1565b34801561037457600080fd5b506103266103833660046136fd565b610a03565b34801561039457600080fd5b506103b56103a33660046136fd565b600e6020526000908152604090205481565b6040519081526020016102a3565b3480156103cf57600080fd5b506103266103de36600461375e565b610aac565b3480156103ef57600080fd5b506104036103fe3660046137f8565b610c8f565b604080516001600160a01b0390931683526020830191909152016102a3565b34801561042e57600080fd5b5061032661043d36600461381a565b610dc2565b6103266104503660046138a7565b610e1b565b34801561046157600080fd5b506103266104703660046138db565b610ff5565b34801561048157600080fd5b506103b560055481565b34801561049757600080fd5b506103266104a63660046136bc565b611057565b3480156104b757600080fd5b506103b5600d5481565b3480156104cd57600080fd5b506102ee6104dc366004613652565b611072565b3480156104ed57600080fd5b50600a546102ee906001600160a01b031681565b34801561050d57600080fd5b506102ee61051c366004613652565b61111e565b34801561052d57600080fd5b506103b5600c5481565b34801561054357600080fd5b5061055761055236600461391c565b611154565b6040516102a391906139ad565b34801561057057600080fd5b506103b561057f3660046136fd565b61129a565b34801561059057600080fd5b50610326611310565b3480156105a557600080fd5b506103b560c881565b3480156105ba57600080fd5b506103b56105c9366004613b02565b611324565b3480156105da57600080fd5b506007546001600160a01b03166102ee565b3480156105f857600080fd5b506103b56106073660046138a7565b61139f565b34801561061857600080fd5b506102c16113d0565b34801561062d57600080fd5b506009546102ee906001600160a01b031681565b34801561064d57600080fd5b5061032661065c366004613b65565b6113df565b34801561066d57600080fd5b5061032661067c366004613bdd565b61149a565b34801561068d57600080fd5b506106a161069c3660046138a7565b6114a9565b6040516102a393929190613c16565b3480156106bc57600080fd5b506103266106cb3660046137f8565b611708565b3480156106dc57600080fd5b506103266106eb366004613ce8565b611925565b3480156106fc57600080fd5b506006546102ee906001600160a01b031681565b34801561071c57600080fd5b506102c161072b366004613652565b611958565b34801561073c57600080fd5b5061032661074b366004613b65565b611b32565b34801561075c57600080fd5b5061032661076b366004614007565b611be5565b34801561077c57600080fd5b50600b546102ee906001600160a01b031681565b34801561079c57600080fd5b506106a16107ab366004614140565b611ed7565b6103266107be36600461417b565b611fba565b3480156107cf57600080fd5b506103266107de3660046136fd565b612071565b3480156107ef57600080fd5b506102c1612113565b34801561080457600080fd5b506102976108133660046141b6565b6001600160a01b03918216600090815260046020908152604080832093909416825291909152205460ff1690565b34801561084d57600080fd5b5061032661085c3660046136fd565b612189565b60006001600160e01b03198216632494300760e11b1480610886575061088682612207565b92915050565b60606000805461089b906141e4565b80601f01602080910402602001604051908101604052809291908181526020018280546108c7906141e4565b80156109145780601f106108e957610100808354040283529160200191610914565b820191906000526020600020905b8154815290600101906020018083116108f757829003601f168201915b5050505050905090565b600061092982612298565b506000908152600360205260409020546001600160a01b031690565b60006109508261111e565b9050806001600160a01b0316836001600160a01b0316036109845760405163133f8be960e01b815260040160405180910390fd5b336001600160a01b038216148015906109a457506109a28133610813565b155b156109c25760405163e5fa0e3560e01b815260040160405180910390fd5b6109cc83836122cd565b505050565b6109db338261233b565b6109f85760405163e5fa0e3560e01b815260040160405180910390fd5b6109cc8383836123ba565b610a0b612493565b60095460405163036129cb60e61b81526001600160a01b0383811660048301529091169063d84a72c090602401600060405180830381600087803b158015610a5257600080fd5b505af1158015610a66573d6000803e3d6000fd5b50506040513381526001600160a01b03841692507fe7784d93cfbfa4408e19577e6cc0436f4dbb51214b70e100905dfce9def88c1691506020015b60405180910390a250565b610ab4612493565b82818015610b84576009546040516320512ba160e01b81526001600160a01b03909116906320512ba190610aee9087908790600401614218565b600060405180830381600087803b158015610b0857600080fd5b505af1158015610b1c573d6000803e3d6000fd5b5050505060005b81811015610b8257848482818110610b3d57610b3d614251565b60405133815260209182029390930135927f832d89d991be5351d793c20faf4b7dd44f8aa9ce39e3cb160c6317de6fbba72992500160405180910390a2600101610b23565b505b8115610c875760095460405163229dad5f60e11b81526000916001600160a01b03169063453b5abe90610bbd908a908a9060040161439d565b6000604051808303816000875af1158015610bdc573d6000803e3d6000fd5b505050506040513d6000823e601f3d908101601f19168201604052610c04919081019061443b565b905060005b83811015610c8457818181518110610c2357610c23614251565b60200260200101517f8aa4a03deb8db10032373886aa0376c918ccf36bcdb59ca4da2a807ac7ff1a04898984818110610c5e57610c5e614251565b90506101c0020133604051610c7492919061446f565b60405180910390a2600101610c09565b50505b505050505050565b600954604051633a39e4d160e11b815230600482015260248101849052600091829182916001600160a01b031690637473c9a2906044016101c060405180830381865afa158015610ce4573d6000803e3d6000fd5b505050506040513d601f19601f82011682018060405250810190610d0891906144ad565b600954815160405163792d5f6d60e11b815230600482015260248101919091529192506000916001600160a01b039091169063f25abeda90604401602060405180830381865afa158015610d60573d6000803e3d6000fd5b505050506040513d601f19601f82011682018060405250810190610d849190614577565b90506001600160a01b038116610da257600080935093505050610dbb565b80610db48684610100015160c86124ed565b9350935050505b9250929050565b8060005b81811015610e15576000848483818110610de257610de2614251565b905060400201803603810190610df89190614594565b9050610e0c81600001518260200151611708565b50600101610dc6565b50505050565b34151580610e9d5750600654600554604051636e49181f60e01b815260048101919091523360248201526001600160a01b0390911690636e49181f90604401602060405180830381865afa158015610e77573d6000803e3d6000fd5b505050506040513d601f19601f82011682018060405250810190610e9b91906145e2565b155b80610eae5750600554816020013514155b15610ecc57604051633efca5c360e11b815260040160405180910390fd5b6024610edc6101c08301836145ff565b90501080610f20575063b3bcbb7960e01b610efb6101c08301836145ff565b610f0a91602491602091614645565b610f139161466f565b6001600160e01b03191614155b15610f3e57604051632a84050f60e01b815260040160405180910390fd5b6000610f4e6101c08301836145ff565b810190610f5b919061469f565b925050506000815190506000805b82811015610feb57838181518110610f8357610f83614251565b60200260200101519150846000016020810190610fa091906136fd565b6000838152600260205260409020546001600160a01b03908116911614610fda5760405163075fd2b160e01b815260040160405180910390fd5b610fe3826125b9565b600101610f69565b50610e158361263a565b610ffd612493565b8060005b81811015610e15573684848381811061101c5761101c614251565b905060200281019061102e91906146f7565b905061104d61103d8280614717565b61055260408501602086016136fd565b5050600101611001565b6109cc83838360405180602001604052806000815250611925565b6009546040516308ed6c0160e41b81523060048201526024810183905260009182916001600160a01b0390911690638ed6c01090604401602060405180830381865afa1580156110c6573d6000803e3d6000fd5b505050506040513d601f19601f820116820180604052508101906110ea9190614577565b90506001600160a01b038116156111015792915050565b50506000908152600260205260409020546001600160a01b031690565b6000818152600260205260408120546001600160a01b0316806108865760405163b49aa3b560e01b815260040160405180910390fd5b606061115e612493565b60095460405163eaa19ab360e01b81526001600160a01b039091169063eaa19ab390611197906000199088908890600190600401614760565b6000604051808303816000875af11580156111b6573d6000803e3d6000fd5b505050506040513d6000823e601f3d908101601f191682016040526111de91908101906147bd565b509050826000805b828110156112905783818151811061120057611200614251565b60200260200101519150611214858361269f565b846001600160a01b031687878381811061123057611230614251565b90506020020160208101906112459190614803565b604080516000815233602082015261ffff929092169185917f598baf7bf150ca2f42be9e9f8f55e81d45f5715c3ff22bf46d697fabec7f31d6910160405180910390a46001016111e6565b5050509392505050565b600954604051633de222bb60e21b81523060048201526001600160a01b038381166024830152600092169063f7888aec906044015b602060405180830381865afa1580156112ec573d6000803e3d6000fd5b505050506040513d601f19601f82011682018060405250810190610886919061481e565b611318612493565b6113226000612769565b565b60095460405163051330b560e21b81526000916001600160a01b03169063144cc2d4906113579030908790600401614837565b602060405180830381865afa158015611374573d6000803e3d6000fd5b505050506040513d601f19601f82011682018060405250810190611398919061481e565b9392505050565b600954604051631572f24960e11b81523060048201526000916001600160a01b031690632ae5e492906024016112cf565b60606001805461089b906141e4565b6113e7612493565b6009546040516331315e5960e11b81526001600160a01b0390911690636262bcb290611419908590859060040161485b565b600060405180830381600087803b15801561143357600080fd5b505af1158015611447573d6000803e3d6000fd5b50505050818160405161145b92919061488a565b604051908190038120338252907f7bc9110d5de090dd59e07912d2b93a5a27ac70a60c8d8e324db4f9ee8b8b5c13906020015b60405180910390a25050565b6114a53383836127bb565b5050565b60006060806080840135156114d1576040516309f82f1b60e31b815260040160405180910390fd5b60246114e16101c08601866145ff565b90501080611525575063b3bcbb7960e01b6115006101c08601866145ff565b61150f91602491602091614645565b6115189161466f565b6001600160e01b03191614155b1561154357604051632a84050f60e01b815260040160405180910390fd5b60408051600180825281830190925290816020015b60408051808201909152600080825260208201528152602001906001900390816115585790505090506040518060400160405280306001600160a01b031681526020016000815250816000815181106115b3576115b3614251565b602090810291909101015260006115ce6101c08601866145ff565b8101906115db919061469f565b9250505060006115eb8287611324565b905060006115f88761139f565b9050600061160b8860c0013584846124ed565b905061271088610180013503611676578061162a6101a08a018a6145ff565b8782828080601f016020809104026020016040519081016040528093929190818152602001838380828437600092019190915250969d50919b5091995061170198505050505050505050565b6116ac816116958561168f6101808d01356127106148b0565b866124ed565b6116a4906101808c01356148c3565b6127106124ed565b6116ba6101a08a018a6145ff565b8782828080601f016020809104026020016040519081016040528093929190818152602001838380828437600092019190915250969d50919b509199505050505050505050505b9193909250565b600a546005546040516321d1336160e11b815260048101919091526000916001600160a01b0316906343a266c29060240161012060405180830381865afa158015611757573d6000803e3d6000fd5b505050506040513d601f19601f8201168201806040525081019061177b91906148d6565b61010081015190915060f51c6001908116036117aa57604051631d2c125760e31b815260040160405180910390fd5b600954604051635d53f40760e11b815260048101859052602481018490526000916001600160a01b03169063baa7e80e906044016000604051808303816000875af11580156117fd573d6000803e3d6000fd5b505050506040513d6000823e601f3d908101601f19168201604052611825919081019061443b565b6009546040516304db994760e21b8152306004820152602481018790529192506000916001600160a01b039091169063136e651c90604401602060405180830381865afa15801561187a573d6000803e3d6000fd5b505050506040513d601f19601f8201168201806040525081019061189e9190614577565b90506000805b8581101561191c578381815181106118be576118be614251565b602002602001015191506118d2838361269f565b6040513381526001600160a01b03841690889084907f031e1988c95a91ec4d655ff63a8f87a80bc9daf28d95ae10ee08c0022cfb5c8b9060200160405180910390a46001016118a4565b50505050505050565b61192f338361233b565b61194c5760405163e5fa0e3560e01b815260040160405180910390fd5b610e158484848461285a565b600954604051630fab094760e01b81523060048201526060916000916001600160a01b0390911690630fab094790602401602060405180830381865afa1580156119a6573d6000803e3d6000fd5b505050506040513d601f19601f820116820180604052508101906119ca9190614577565b90506001600160a01b03811615611a4857604051636d02a25560e11b8152600481018490526001600160a01b0382169063da0544aa90602401600060405180830381865afa158015611a20573d6000803e3d6000fd5b505050506040513d6000823e601f3d908101601f191682016040526113989190810190614956565b60095460405163f682eeaf60e01b8152306004820152611398916001600160a01b03169063f682eeaf90602401600060405180830381865afa158015611a92573d6000803e3d6000fd5b505050506040513d6000823e601f3d908101601f19168201604052611aba9190810190614956565b600954604051630c8df17160e41b8152306004820152602481018790526001600160a01b039091169063c8df171090604401602060405180830381865afa158015611b09573d6000803e3d6000fd5b505050506040513d601f19601f82011682018060405250810190611b2d919061481e565b61288e565b611b3a612493565b60095460405163d67b78fd60e01b81526001600160a01b039091169063d67b78fd90611b6c908590859060040161485b565b600060405180830381600087803b158015611b8657600080fd5b505af1158015611b9a573d6000803e3d6000fd5b505050508181604051611bae92919061488a565b604051908190038120338252907fd36dc0c1a06103fdcaf15f3f6fb797d1a97997514c78de073640c8b5005454b89060200161148e565b6008546001600160a01b03163003611bfc57600080fd5b6009546001600160a01b031615611c1257600080fd5b611c1e8b8b8b8b6128f5565b600a80546001600160a01b03808a166001600160a01b031992831617909255600980548584169083161790556020850151600c556040850151600d556060850151600b8054919093169116179055855115611cd2576040516331315e5960e11b81526001600160a01b03831690636262bcb290611c9f90899060040161363f565b600060405180830381600087803b158015611cb957600080fd5b505af1158015611ccd573d6000803e3d6000fd5b505050505b835115611d385760405163d67b78fd60e01b81526001600160a01b0383169063d67b78fd90611d0590879060040161363f565b600060405180830381600087803b158015611d1f57600080fd5b505af1158015611d33573d6000803e3d6000fd5b505050505b6001600160a01b03851615611da35760405163036129cb60e61b81526001600160a01b03868116600483015283169063d84a72c090602401600060405180830381600087803b158015611d8a57600080fd5b505af1158015611d9e573d6000803e3d6000fd5b505050505b82515115611e2157825160405163229dad5f60e11b81526001600160a01b0384169163453b5abe91611dd891906004016149c3565b6000604051808303816000875af1158015611df7573d6000803e3d6000fd5b505050506040513d6000823e601f3d908101601f19168201604052611e1f919081019061443b565b505b805180611e2f575080602001515b80611e3b575080604001515b15611ec157604080516365c13f1960e11b815282511515600482015260208301511515602482015290820151151560448201526060820151151560648201526001600160a01b0383169063cb827e3290608401600060405180830381600087803b158015611ea857600080fd5b505af1158015611ebc573d6000803e3d6000fd5b505050505b611eca33612769565b5050505050505050505050565b610120810135606080611eee6101608501856145ff565b8080601f01602080910402602001604051908101604052809392919081815260200183838082843760009201919091525092945060019250611f2e915050565b604051908082528060200260200182016040528015611f7357816020015b6040805180820190915260008082526020820152815260200190600190039081611f4c5790505b5090506040518060400160405280306001600160a01b03168152602001600081525081600081518110611fa857611fa8614251565b60200260200101819052509193909250565b6005543415158061203b5750600654604051636e49181f60e01b8152600481018390523360248201526001600160a01b0390911690636e49181f90604401602060405180830381865afa158015612015573d6000803e3d6000fd5b505050506040513d601f19601f8201168201806040525081019061203991906145e2565b155b8061204a575080826020013514155b15612068576040516331c57b1b60e21b815260040160405180910390fd5b6114a582612928565b612079612493565b6009546040516317161f7d60e01b81526001600160a01b038381166004830152909116906317161f7d90602401600060405180830381600087803b1580156120c057600080fd5b505af11580156120d4573d6000803e3d6000fd5b50506040513381526001600160a01b03841692507fab0014d4c7a642a02a31b303a318908c22b0fb2001f107278fc6076b4c671b659150602001610aa1565b600954604051630155619b60e71b81523060048201526060916001600160a01b03169063aab0cd8090602401600060405180830381865afa15801561215c573d6000803e3d6000fd5b505050506040513d6000823e601f3d908101601f191682016040526121849190810190614956565b905090565b612191612493565b6001600160a01b0381166121fb5760405162461bcd60e51b815260206004820152602660248201527f4f776e61626c653a206e6577206f776e657220697320746865207a65726f206160448201526564647265737360d01b60648201526084015b60405180910390fd5b61220481612769565b50565b60006001600160e01b0319821663b3bcbb7960e01b148061223857506001600160e01b031982166371700c6960e01b145b8061225357506001600160e01b0319821663da9ee8b760e01b145b8061226e57506001600160e01b03198216632b13c58f60e01b145b8061228957506001600160e01b0319821663152a902d60e11b145b80610886575061088682612c3b565b6000818152600260205260409020546001600160a01b03166122045760405163b49aa3b560e01b815260040160405180910390fd5b600081815260036020526040902080546001600160a01b0319166001600160a01b03841690811790915581906123028261111e565b6001600160a01b03167f8c5be1e5ebec7d5bd14f71427d1e84f3dd0314c0f7b2291e5b200ac8c7c3b92560405160405180910390a45050565b6000806123478361111e565b9050806001600160a01b0316846001600160a01b0316148061238e57506001600160a01b0380821660009081526004602090815260408083209388168352929052205460ff165b806123b25750836001600160a01b03166123a78461091e565b6001600160a01b0316145b949350505050565b826001600160a01b03166123cd8261111e565b6001600160a01b0316146123f45760405163a195bc5360e01b815260040160405180910390fd5b6001600160a01b03821661241b57604051632c95542760e01b815260040160405180910390fd5b612426838383612c8b565b6124316000826122cd565b60008181526002602052604080822080546001600160a01b0319166001600160a01b0386811691821790925591518493918716917fddf252ad1be2c89b69c2b068fc378daa952ba7f163c4a11628f55a4df523b3ef91a46109cc838383612eb8565b6007546001600160a01b031633146113225760405162461bcd60e51b815260206004820181905260248201527f4f776e61626c653a2063616c6c6572206973206e6f7420746865206f776e657260448201526064016121f2565b60008080600019858709858702925082811083820303915050806000036125275783828161251d5761251d614ae0565b0492505050611398565b83811061255157604051631dcf306360e21b815260048101829052602481018590526044016121f2565b600084868809600260036001881981018916988990049182028318808302840302808302840302808302840302808302840302808302840302918202909203026000889003889004909101858311909403939093029303949094049190911702949350505050565b60006125c48261111e565b90506125d281600084612c8b565b6125dd6000836122cd565b60008281526002602052604080822080546001600160a01b0319169055518391906001600160a01b038416907fddf252ad1be2c89b69c2b068fc378daa952ba7f163c4a11628f55a4df523b3ef908390a46114a581600084612eb8565b6009546040516386bc2be360e01b81526001600160a01b03909116906386bc2be39061266a9084906004016139ad565b600060405180830381600087803b15801561268457600080fd5b505af1158015612698573d6000803e3d6000fd5b5050505050565b6001600160a01b0382166126c657604051633904578f60e11b815260040160405180910390fd5b6000818152600260205260409020546001600160a01b0316156126fc57604051632eb5f0c360e21b815260040160405180910390fd5b61270860008383612c8b565b60008181526002602052604080822080546001600160a01b0319166001600160a01b03861690811790915590518392907fddf252ad1be2c89b69c2b068fc378daa952ba7f163c4a11628f55a4df523b3ef908290a46114a560008383612eb8565b600780546001600160a01b038381166001600160a01b0319831681179093556040519116919082907f8be0079c531659141344cd1fd0a4f28419497f9722a3daafe3b4186f6b6457e090600090a35050565b816001600160a01b0316836001600160a01b0316036127ed576040516306f8139d60e11b815260040160405180910390fd5b6001600160a01b03838116600081815260046020908152604080832094871680845294825291829020805460ff191686151590811790915591519182527f17307eab39ab6107e8899845ad3d59bd9653f200f220920489ca2b5937696c31910160405180910390a3505050565b6128658484846123ba565b61287184848484612fa5565b610e15576040516336f57c1b60e11b815260040160405180910390fd5b604051609160f51b602082015260228101829052606090600090604201604051602081830303815290604052905060006128c7826130a7565b905084816040516020016128dc929190614af6565b6040516020818303038152906040529250505092915050565b6128ff828261323f565b5050600591909155600680546001600160a01b0319166001600160a01b03909216919091179055565b600c5460009060c083013503612943575060808101356129f9565b600b546001600160a01b0316156114a557600d546129f69060808401359061296c90600a614c09565b600b54600c54604051635268657960e11b815260c08801356004820152602481019190915260a087013560448201526001600160a01b039091169063a4d0caf290606401602060405180830381865afa1580156129cd573d6000803e3d6000fd5b505050506040513d601f19601f820116820180604052508101906129f1919061481e565b6124ed565b90505b6000600e81612a106101a0860161018087016136fd565b6001600160a01b03168152602081019190915260400160009081205491508290612a426101a0860161018087016136fd565b6001600160a01b0316612a5860208701876136fd565b6001600160a01b031603612a6f5790820190612a72565b50815b60006044612a846101e08801886145ff565b9050118015612ac8575063b3bcbb7960e01b612aa46101e08801886145ff565b612ab391604491604091614645565b612abc9161466f565b6001600160e01b031916145b15612b9f576060612add6101e08801886145ff565b810190612aea9190614c15565b90955093508492505081159050612b6d5750600954604051634228826f60e11b81523060048201526001600160a01b039091169063845104de90602401608060405180830381865afa158015612b44573d6000803e3d6000fd5b505050506040513d601f19601f82011682018060405250810190612b689190614ce7565b606001515b15612b7757600091505b805115612b9d57612b9a8482612b956101a08b016101808c016136fd565b613258565b93505b505b8215612bfb5780612bc357604051631b57826960e21b815260040160405180910390fd5b828201600e6000612bdc6101a08a016101808b016136fd565b6001600160a01b03168152602081019190915260400160002055610c87565b818414610c875781600e6000612c196101a08a016101808b016136fd565b6001600160a01b03168152602081019190915260400160002055505050505050565b60006001600160e01b031982166380ac58cd60e01b1480612c6c57506001600160e01b03198216635b5e139f60e01b145b8061088657506301ffc9a760e01b6001600160e01b0319831614610886565b6001600160a01b038316156109cc5760095460405163b67cb04760e01b8152306004820152602481018390526000916001600160a01b03169063b67cb047906044016101c060405180830381865afa158015612ceb573d6000803e3d6000fd5b505050506040513d601f19601f82011682018060405250810190612d0f91906144ad565b9050806101a0015115612dd457600a546005546040516321d1336160e11b815260048101919091526000916001600160a01b0316906343a266c29060240161012060405180830381865afa158015612d6b573d6000803e3d6000fd5b505050506040513d601f19601f82011682018060405250810190612d8f91906148d6565b90506001600160a01b03841615801590612db4575061010081015160f41c6001908116145b15612dd2576040516318cdaf9760e01b815260040160405180910390fd5b505b6009546040516308ed6c0160e41b8152306004820152602481018490526000916001600160a01b031690638ed6c01090604401602060405180830381865afa158015612e24573d6000803e3d6000fd5b505050506040513d601f19601f82011682018060405250810190612e489190614577565b6001600160a01b031603610e1557600954604051638cec7d3960e01b8152600481018490526001600160a01b03868116602483015290911690638cec7d3990604401600060405180830381600087803b158015612ea457600080fd5b505af1158015610c84573d6000803e3d6000fd5b60095460405163b67cb04760e01b8152306004820152602481018390526000916001600160a01b03169063b67cb047906044016101c060405180830381865afa158015612f09573d6000803e3d6000fd5b505050506040513d601f19601f82011682018060405250810190612f2d91906144ad565b60095481516040516330b157e560e21b815260048101919091526001600160a01b038781166024830152868116604483015292935091169063c2c55f9490606401600060405180830381600087803b158015612f8857600080fd5b505af1158015612f9c573d6000803e3d6000fd5b50505050610e15565b60006001600160a01b0384163b1561309c57604051630a85bd0160e11b81526001600160a01b0385169063150b7a0290612fe9903390899088908890600401614d6b565b6020604051808303816000875af1925050508015613024575060408051601f3d908101601f1916820190925261302191810190614da8565b60015b613082573d808015613052576040519150601f19603f3d011682016040523d82523d6000602084013e613057565b606091505b50805160000361307a576040516336f57c1b60e11b815260040160405180910390fd5b805181602001fd5b6001600160e01b031916630a85bd0160e11b1490506123b2565b506001949350505050565b606081516000036130c657505060408051600081526020810190915290565b60408051602e8082526105e08201909252600091602082016105c08036833701905050905060008160008151811061310057613100614251565b60ff90921660209283029190910190910152825160019060005b8181101561321b57600086828151811061313657613136614251565b016020015160f81c905060005b8460ff168110156131c057600886828151811061316257613162614251565b602002602001015160ff16901b8261317a91906148c3565b9150613187603a83614dc5565b86828151811061319957613199614251565b60ff909216602092830291909101909101526131b6603a83614dd9565b9150600101613143565b505b8015613212576131d3603a82614dc5565b858560ff16815181106131e8576131e8614251565b60ff9092166020928302919091019091015260019093019261320b603a82614dd9565b90506131c2565b5060010161311a565b5061323661323161322c858561339a565b613441565b6134e3565b95945050505050565b600061324b8382614e33565b5060016109cc8282614e33565b60095460405163eaa19ab360e01b81526000916060916001600160a01b039091169063eaa19ab39061329290889088908790600401614ef2565b6000604051808303816000875af11580156132b1573d6000803e3d6000fd5b505050506040513d6000823e601f3d908101601f191682016040526132d991908101906147bd565b81519093509091506000805b8281101561338f578381815181106132ff576132ff614251565b60200260200101519150613313868361269f565b856001600160a01b031687828151811061332f5761332f614251565b602002602001015161ffff16837f598baf7bf150ca2f42be9e9f8f55e81d45f5715c3ff22bf46d697fabec7f31d68b3360405161337f9291909182526001600160a01b0316602082015260400190565b60405180910390a46001016132e5565b505050509392505050565b606060008260ff166001600160401b038111156133b9576133b96139c0565b6040519080825280602002602001820160405280156133e2578160200160208202803683370190505b50905060005b8360ff168110156134395784818151811061340557613405614251565b602002602001015182828151811061341f5761341f614251565b60ff909216602092830291909101909101526001016133e8565b509392505050565b80516060906000816001600160401b03811115613460576134606139c0565b604051908082528060200260200182016040528015613489578160200160208202803683370190505b50905060005b82811015613439578481600187510303815181106134af576134af614251565b60200260200101518282815181106134c9576134c9614251565b60ff9092166020928302919091019091015260010161348f565b80516060906000816001600160401b03811115613502576135026139c0565b6040519080825280601f01601f19166020018201604052801561352c576020820181803683370190505b50905060005b82811015613439576040518060600160405280603a8152602001614f50603a913985828151811061356557613565614251565b602002602001015160ff168151811061358057613580614251565b602001015160f81c60f81b82828151811061359d5761359d614251565b60200101906001600160f81b031916908160001a905350600101613532565b6001600160e01b03198116811461220457600080fd5b6000602082840312156135e457600080fd5b8135611398816135bc565b60005b8381101561360a5781810151838201526020016135f2565b50506000910152565b6000815180845261362b8160208601602086016135ef565b601f01601f19169290920160200192915050565b6020815260006113986020830184613613565b60006020828403121561366457600080fd5b5035919050565b6001600160a01b038116811461220457600080fd5b803561368b8161366b565b919050565b600080604083850312156136a357600080fd5b82356136ae8161366b565b946020939093013593505050565b6000806000606084860312156136d157600080fd5b83356136dc8161366b565b925060208401356136ec8161366b565b929592945050506040919091013590565b60006020828403121561370f57600080fd5b81356113988161366b565b60008083601f84011261372c57600080fd5b5081356001600160401b0381111561374357600080fd5b6020830191508360208260051b8501011115610dbb57600080fd5b6000806000806040858703121561377457600080fd5b84356001600160401b038082111561378b57600080fd5b818701915087601f83011261379f57600080fd5b8135818111156137ae57600080fd5b8860206101c0830285010111156137c457600080fd5b6020928301965094509086013590808211156137df57600080fd5b506137ec8782880161371a565b95989497509550505050565b6000806040838503121561380b57600080fd5b50508035926020909101359150565b6000806020838503121561382d57600080fd5b82356001600160401b038082111561384457600080fd5b818501915085601f83011261385857600080fd5b81358181111561386757600080fd5b8660208260061b850101111561387c57600080fd5b60209290920196919550909350505050565b60006101e082840312156138a157600080fd5b50919050565b6000602082840312156138b957600080fd5b81356001600160401b038111156138cf57600080fd5b6123b28482850161388e565b600080602083850312156138ee57600080fd5b82356001600160401b0381111561390457600080fd5b6139108582860161371a565b90969095509350505050565b60008060006040848603121561393157600080fd5b83356001600160401b0381111561394757600080fd5b6139538682870161371a565b90945092505060208401356139678161366b565b809150509250925092565b600081518084526020808501945080840160005b838110156139a257815187529582019590820190600101613986565b509495945050505050565b6020815260006113986020830184613972565b634e487b7160e01b600052604160045260246000fd5b604051608081016001600160401b03811182821017156139f8576139f86139c0565b60405290565b6040516101c081016001600160401b03811182821017156139f8576139f86139c0565b60405161012081016001600160401b03811182821017156139f8576139f86139c0565b604051601f8201601f191681016001600160401b0381118282101715613a6c57613a6c6139c0565b604052919050565b60006001600160401b03821115613a8d57613a8d6139c0565b5060051b60200190565b600082601f830112613aa857600080fd5b81356020613abd613ab883613a74565b613a44565b82815260059290921b84018101918181019086841115613adc57600080fd5b8286015b84811015613af75780358352918301918301613ae0565b509695505050505050565b60008060408385031215613b1557600080fd5b82356001600160401b0380821115613b2c57600080fd5b613b3886838701613a97565b93506020850135915080821115613b4e57600080fd5b50613b5b8582860161388e565b9150509250929050565b60008060208385031215613b7857600080fd5b82356001600160401b0380821115613b8f57600080fd5b818501915085601f830112613ba357600080fd5b813581811115613bb257600080fd5b86602082850101111561387c57600080fd5b801515811461220457600080fd5b803561368b81613bc4565b60008060408385031215613bf057600080fd5b8235613bfb8161366b565b91506020830135613c0b81613bc4565b809150509250929050565b83815260006020606081840152613c306060840186613613565b83810360408581019190915285518083528387019284019060005b81811015613c7957845180516001600160a01b03168452860151868401529385019391830191600101613c4b565b50909998505050505050505050565b60006001600160401b03821115613ca157613ca16139c0565b50601f01601f191660200190565b6000613cbd613ab884613c88565b9050828152838383011115613cd157600080fd5b828260208301376000602084830101529392505050565b60008060008060808587031215613cfe57600080fd5b8435613d098161366b565b93506020850135613d198161366b565b92506040850135915060608501356001600160401b03811115613d3b57600080fd5b8501601f81018713613d4c57600080fd5b613d5b87823560208401613caf565b91505092959194509250565b600082601f830112613d7857600080fd5b61139883833560208501613caf565b803569ffffffffffffffffffff8116811461368b57600080fd5b803565ffffffffffff8116811461368b57600080fd5b803564ffffffffff8116811461368b57600080fd5b803561ffff8116811461368b57600080fd5b803560ff8116811461368b57600080fd5b60006080808385031215613e0257600080fd5b613e0a6139d6565b915082356001600160401b03811115613e2257600080fd5b8301601f81018513613e3357600080fd5b80356020613e43613ab883613a74565b8281526101c09283028401820192828201919089851115613e6357600080fd5b948301945b84861015613f7a5780868b031215613e805760008081fd5b613e886139fe565b613e9187613d87565b8152613e9e858801613da1565b858201526040613eaf818901613db7565b908201526060613ec0888201613dcc565b90820152613ecf878901613dcc565b8882015260a0613ee0818901613680565b9082015260c0613ef1888201613dde565b9082015260e0613f02888201613680565b908201526101008781013590820152610120613f1f818901613dde565b90820152610140613f31888201613bd2565b90820152610160613f43888201613bd2565b90820152610180613f55888201613bd2565b908201526101a0613f67888201613bd2565b9082015283529485019491830191613e68565b50865250858101359085015250505060408083013590820152613f9f60608301613680565b606082015292915050565b600060808284031215613fbc57600080fd5b613fc46139d6565b90508135613fd181613bc4565b81526020820135613fe181613bc4565b60208201526040820135613ff481613bc4565b60408201526060820135613f9f81613bc4565b60008060008060008060008060008060006101c08c8e03121561402957600080fd5b8b359a5061403960208d01613680565b99506001600160401b038060408e0135111561405457600080fd5b6140648e60408f01358f01613d67565b99508060608e0135111561407757600080fd5b6140878e60608f01358f01613d67565b985061409560808e01613680565b97508060a08e013511156140a857600080fd5b6140b88e60a08f01358f01613d67565b96506140c660c08e01613680565b95508060e08e013511156140d957600080fd5b6140e98e60e08f01358f01613d67565b9450806101008e013511156140fd57600080fd5b5061410f8d6101008e01358e01613def565b925061411e6101208d01613680565b915061412e8d6101408e01613faa565b90509295989b509295989b9093969950565b60006020828403121561415257600080fd5b81356001600160401b0381111561416857600080fd5b82016101a0818503121561139857600080fd5b60006020828403121561418d57600080fd5b81356001600160401b038111156141a357600080fd5b8201610200818503121561139857600080fd5b600080604083850312156141c957600080fd5b82356141d48161366b565b91506020830135613c0b8161366b565b600181811c908216806141f857607f821691505b6020821081036138a157634e487b7160e01b600052602260045260246000fd5b6020808252810182905260006001600160fb1b0383111561423857600080fd5b8260051b80856040850137919091016040019392505050565b634e487b7160e01b600052603260045260246000fd5b6142848261427483613d87565b69ffffffffffffffffffff169052565b61429060208201613da1565b65ffffffffffff1660208301526142a960408201613db7565b64ffffffffff1660408301526142c160608201613dcc565b61ffff1660608301526142d660808201613dcc565b61ffff1660808301526142eb60a08201613680565b6001600160a01b031660a083015261430560c08201613dde565b60ff1660c083015261431960e08201613680565b6001600160a01b031660e08301526101008181013590830152610120614340818301613dde565b60ff1690830152610140614355828201613bd2565b151590830152610160614369828201613bd2565b15159083015261018061437d828201613bd2565b1515908301526101a0614391828201613bd2565b80151584830152610e15565b6020808252810182905260008360408301825b858110156143d6576143c28284614267565b6101c09283019291909101906001016143b0565b5095945050505050565b600082601f8301126143f157600080fd5b81516020614401613ab883613a74565b82815260059290921b8401810191818101908684111561442057600080fd5b8286015b84811015613af75780518352918301918301614424565b60006020828403121561444d57600080fd5b81516001600160401b0381111561446357600080fd5b6123b2848285016143e0565b6101e0810161447e8285614267565b6001600160a01b03929092166101c09190910152919050565b805161368b8161366b565b805161368b81613bc4565b60006101c082840312156144c057600080fd5b6144c86139fe565b825181526020830151602082015260408301516040820152606083015160608201526080830151608082015260a083015160a082015260c083015160c082015261451460e08401614497565b60e08201526101008381015190820152610120614532818501614497565b908201526101408381015190820152610160808401519082015261018061455a8185016144a2565b908201526101a061456c8482016144a2565b908201529392505050565b60006020828403121561458957600080fd5b81516113988161366b565b6000604082840312156145a657600080fd5b604051604081018181106001600160401b03821117156145c8576145c86139c0565b604052823581526020928301359281019290925250919050565b6000602082840312156145f457600080fd5b815161139881613bc4565b6000808335601e1984360301811261461657600080fd5b8301803591506001600160401b0382111561463057600080fd5b602001915036819003821315610dbb57600080fd5b6000808585111561465557600080fd5b8386111561466257600080fd5b5050820193919092039150565b6001600160e01b031981358181169160048510156146975780818660040360031b1b83161692505b505092915050565b6000806000606084860312156146b457600080fd5b8335925060208401356146c6816135bc565b915060408401356001600160401b038111156146e157600080fd5b6146ed86828701613a97565b9150509250925092565b60008235603e1983360301811261470d57600080fd5b9190910192915050565b6000808335601e1984360301811261472e57600080fd5b8301803591506001600160401b0382111561474857600080fd5b6020019150600581901b3603821315610dbb57600080fd5b84815260606020808301829052908201849052600090859060808401835b878110156147a55761ffff61479285613dcc565b168252928201929082019060010161477e565b50809350505050821515604083015295945050505050565b600080604083850312156147d057600080fd5b82516001600160401b038111156147e657600080fd5b6147f2858286016143e0565b925050602083015190509250929050565b60006020828403121561481557600080fd5b61139882613dcc565b60006020828403121561483057600080fd5b5051919050565b6001600160a01b03831681526040602082018190526000906123b290830184613972565b60208152816020820152818360408301376000818301604090810191909152601f909201601f19160101919050565b8183823760009101908152919050565b634e487b7160e01b600052601160045260246000fd5b818103818111156108865761088661489a565b808201808211156108865761088661489a565b600061012082840312156148e957600080fd5b6148f1613a21565b825181526020830151602082015260408301516040820152606083015160608201526080830151608082015260a083015160a082015260c083015160c082015261493d60e08401614497565b60e0820152610100928301519281019290925250919050565b60006020828403121561496857600080fd5b81516001600160401b0381111561497e57600080fd5b8201601f8101841361498f57600080fd5b805161499d613ab882613c88565b8181528560208385010111156149b257600080fd5b6132368260208301602086016135ef565b602080825282518282018190526000919060409081850190868401855b82811015614ad3578151805169ffffffffffffffffffff1685528681015165ffffffffffff16878601528581015164ffffffffff168686015260608082015161ffff908116918701919091526080808301519091169086015260a0808201516001600160a01b039081169187019190915260c08083015160ff9081169188019190915260e08084015190921691870191909152610100808301519087015261012080830151909116908601526101408082015115159086015261016080820151151590860152610180808201511515908601526101a0908101511515908501526101c090930192908501906001016149e0565b5091979650505050505050565b634e487b7160e01b600052601260045260246000fd5b60008351614b088184602088016135ef565b835190830190614b1c8183602088016135ef565b01949350505050565b600181815b80851115614b60578160001904821115614b4657614b4661489a565b80851615614b5357918102915b93841c9390800290614b2a565b509250929050565b600082614b7757506001610886565b81614b8457506000610886565b8160018114614b9a5760028114614ba457614bc0565b6001915050610886565b60ff841115614bb557614bb561489a565b50506001821b610886565b5060208310610133831016604e8410600b8410161715614be3575081810a610886565b614bed8383614b25565b8060001904821115614c0157614c0161489a565b029392505050565b60006113988383614b68565b600080600080600060a08688031215614c2d57600080fd5b8535945060208087013594506040870135614c47816135bc565b93506060870135614c5781613bc4565b925060808701356001600160401b03811115614c7257600080fd5b8701601f81018913614c8357600080fd5b8035614c91613ab882613a74565b81815260059190911b8201830190838101908b831115614cb057600080fd5b928401925b82841015614cd557614cc684613dcc565b82529284019290840190614cb5565b80955050505050509295509295909350565b600060808284031215614cf957600080fd5b604051608081018181106001600160401b0382111715614d1b57614d1b6139c0565b6040528251614d2981613bc4565b81526020830151614d3981613bc4565b60208201526040830151614d4c81613bc4565b60408201526060830151614d5f81613bc4565b60608201529392505050565b6001600160a01b0385811682528416602082015260408101839052608060608201819052600090614d9e90830184613613565b9695505050505050565b600060208284031215614dba57600080fd5b8151611398816135bc565b600082614dd457614dd4614ae0565b500690565b600082614de857614de8614ae0565b500490565b601f8211156109cc57600081815260208120601f850160051c81016020861015614e145750805b601f850160051c820191505b81811015610c8757828155600101614e20565b81516001600160401b03811115614e4c57614e4c6139c0565b614e6081614e5a84546141e4565b84614ded565b602080601f831160018114614e955760008415614e7d5750858301515b600019600386901b1c1916600185901b178555610c87565b600085815260208120601f198616915b82811015614ec457888601518255948401946001909101908401614ea5565b5085821015614ee25787850151600019600388901b60f8161c191681555b5050505050600190811b01905550565b6000606082018583526020606081850152818651808452608086019150828801935060005b81811015614f3757845161ffff1683529383019391830191600101614f17565b5050809350505050821515604083015294935050505056fe31323334353637383941424344454647484a4b4c4d4e505152535455565758595a6162636465666768696a6b6d6e6f707172737475767778797aa2646970667358221220f4634a4d4b0b417e3682abcdf049d7bc7a7781196b834243e78cac0b8c78ec1964736f6c63430008100033",
    "linkReferences": {}
  },
  "methodIdentifiers": {
    "MAX_ROYALTY_RATE()": "79a75319",
    "adjustTiers((uint80,uint48,uint40,uint16,uint16,address,uint8,address,bytes32,uint8,bool,bool,bool,bool)[],uint256[])": "25eb91ee",
    "approve(address,uint256)": "095ea7b3",
    "balanceOf(address)": "70a08231",
    "codeOrigin()": "1d153ca4",
    "contractURI()": "e8a3d485",
    "creditsOf(address)": "245a45b5",
    "didPay((address,uint256,uint256,(address,uint256,uint256,uint256),(address,uint256,uint256,uint256),uint256,address,bool,string,bytes))": "da9ee8b7",
    "didRedeem((address,uint256,uint256,uint256,(address,uint256,uint256,uint256),(address,uint256,uint256,uint256),address,string,bytes))": "2b13c58f",
    "directory()": "c41c2f24",
    "firstOwnerOf(uint256)": "54c6d1f5",
    "fundingCycleStore()": "557e7155",
    "getApproved(uint256)": "081812fc",
    "initialize(uint256,address,string,string,address,string,address,string,((uint80,uint48,uint40,uint16,uint16,address,uint8,address,bytes32,uint8,bool,bool,bool,bool)[],uint256,uint256,address),address,(bool,bool,bool,bool))": "d1704baf",
    "isApprovedForAll(address,address)": "e985e9c5",
    "mintFor((uint16[],address)[])": "36c1a93b",
    "mintFor(uint16[],address)": "6ac6d941",
    "mintReservesFor((uint256,uint256)[])": "2a596e53",
    "mintReservesFor(uint256,uint256)": "aa4fb15b",
    "name()": "06fdde03",
    "owner()": "8da5cb5b",
    "ownerOf(uint256)": "6352211e",
    "payParams((address,address,(address,uint256,uint256,uint256),uint256,uint256,address,uint256,uint256,string,bytes))": "d46cf171",
    "prices()": "d3419bf3",
    "pricingCurrency()": "64640c1e",
    "pricingDecimals()": "4ecba625",
    "projectId()": "3fafa127",
    "redeemParams((address,address,uint256,uint256,uint256,uint256,uint256,(address,uint256,uint256,uint256),bool,uint256,string,bytes))": "a51cfd18",
    "redemptionWeightOf(uint256[],(address,address,uint256,uint256,uint256,uint256,uint256,(address,uint256,uint256,uint256),bool,uint256,string,bytes))": "7ba62bf9",
    "renounceOwnership()": "715018a6",
    "royaltyInfo(uint256,uint256)": "2a55205a",
    "safeTransferFrom(address,address,uint256)": "42842e0e",
    "safeTransferFrom(address,address,uint256,bytes)": "b88d4fde",
    "setApprovalForAll(address,bool)": "a22cb465",
    "setBaseUri(string)": "a0bcfc7f",
    "setContractUri(string)": "ccb4807b",
    "setDefaultReservedTokenBeneficiary(address)": "df487e26",
    "setTokenUriResolver(address)": "2407497e",
    "store()": "975057e7",
    "supportsInterface(bytes4)": "01ffc9a7",
    "symbol()": "95d89b41",
    "tokenURI(uint256)": "c87b56dd",
    "totalRedemptionWeight((address,address,uint256,uint256,uint256,uint256,uint256,(address,uint256,uint256,uint256),bool,uint256,string,bytes))": "9494bf72",
    "transferFrom(address,address,uint256)": "23b872dd",
    "transferOwnership(address)": "f2fde38b"
  },
  "id": 2
}