{
  "abi": [
    {
      "inputs": [
        {
          "internalType": "contract IJBProjects",
          "name": "_projects",
          "type": "address"
        },
        {
          "internalType": "contract IJBOperatorStore",
          "name": "_operatorStore",
          "type": "address"
        }
      ],
      "stateMutability": "nonpayable",
      "type": "constructor"
    },
    {
      "inputs": [],
      "name": "ALEADY_MINTED",
      "type": "error"
    },
    {
      "inputs": [],
      "name": "APPROVAL_TO_CURRENT_OWNER",
      "type": "error"
    },
    {
      "inputs": [],
      "name": "APPROVE_TO_CALLER",
      "type": "error"
    },
    {
      "inputs": [],
      "name": "CALLER_NOT_OWNER_OR_APPROVED",
      "type": "error"
    },
    {
      "inputs": [],
      "name": "INCORRECT_OWNER",
      "type": "error"
    },
    {
      "inputs": [
        {
          "internalType": "address",
          "name": "ownerAddress",
          "type": "address"
        },
        {
          "internalType": "uint256",
          "name": "projectId",
          "type": "uint256"
        }
      ],
      "name": "INVALID_NEW_OWNER",
      "type": "error"
    },
    {
      "inputs": [],
      "name": "INVALID_PAYMENT_EVENT",
      "type": "error"
    },
    {
      "inputs": [],
      "name": "INVALID_REDEMPTION_EVENT",
      "type": "error"
    },
    {
      "inputs": [],
      "name": "INVALID_REDEMPTION_METADATA",
      "type": "error"
    },
    {
      "inputs": [],
      "name": "INVALID_TOKEN_ID",
      "type": "error"
    },
    {
      "inputs": [],
      "name": "MINT_TO_ZERO",
      "type": "error"
    },
    {
      "inputs": [],
      "name": "OVERSPENDING",
      "type": "error"
    },
    {
      "inputs": [
        {
          "internalType": "uint256",
          "name": "prod1",
          "type": "uint256"
        },
        {
          "internalType": "uint256",
          "name": "denominator",
          "type": "uint256"
        }
      ],
      "name": "PRBMath__MulDivOverflow",
      "type": "error"
    },
    {
      "inputs": [],
      "name": "RESERVED_TOKEN_MINTING_PAUSED",
      "type": "error"
    },
    {
      "inputs": [],
      "name": "TRANSFERS_PAUSED",
      "type": "error"
    },
    {
      "inputs": [],
      "name": "TRANSFER_TO_NON_IMPLEMENTER",
      "type": "error"
    },
    {
      "inputs": [],
      "name": "TRANSFER_TO_ZERO_ADDRESS",
      "type": "error"
    },
    {
      "inputs": [],
      "name": "UNAUTHORIZED",
      "type": "error"
    },
    {
      "inputs": [
        {
          "internalType": "uint256",
          "name": "_tokenId",
          "type": "uint256"
        }
      ],
      "name": "UNAUTHORIZED_TOKEN",
      "type": "error"
    },
    {
      "inputs": [],
      "name": "UNEXPECTED_TOKEN_REDEEMED",
      "type": "error"
    },
    {
      "anonymous": false,
      "inputs": [
        {
          "indexed": true,
          "internalType": "uint256",
          "name": "changeAmount",
          "type": "uint256"
        },
        {
          "indexed": true,
          "internalType": "uint256",
          "name": "newTotalCredits",
          "type": "uint256"
        },
        {
          "indexed": true,
          "internalType": "address",
          "name": "account",
          "type": "address"
        },
        {
          "indexed": false,
          "internalType": "address",
          "name": "caller",
          "type": "address"
        }
      ],
      "name": "AddCredits",
      "type": "event"
    },
    {
      "anonymous": false,
      "inputs": [
        {
          "indexed": true,
          "internalType": "uint256",
          "name": "tierId",
          "type": "uint256"
        },
        {
          "components": [
            {
              "internalType": "uint96",
              "name": "price",
              "type": "uint96"
            },
            {
              "internalType": "uint32",
              "name": "initialQuantity",
              "type": "uint32"
            },
            {
              "internalType": "uint32",
              "name": "votingUnits",
              "type": "uint32"
            },
            {
              "internalType": "uint16",
              "name": "reservedRate",
              "type": "uint16"
            },
            {
              "internalType": "address",
              "name": "reservedTokenBeneficiary",
              "type": "address"
            },
            {
              "internalType": "bytes32",
              "name": "encodedIPFSUri",
              "type": "bytes32"
            },
            {
              "internalType": "uint16",
              "name": "category",
              "type": "uint16"
            },
            {
              "internalType": "bool",
              "name": "allowManualMint",
              "type": "bool"
            },
            {
              "internalType": "bool",
              "name": "shouldUseReservedTokenBeneficiaryAsDefault",
              "type": "bool"
            },
            {
              "internalType": "bool",
              "name": "transfersPausable",
              "type": "bool"
            },
            {
              "internalType": "bool",
              "name": "useVotingUnits",
              "type": "bool"
            }
          ],
          "indexed": false,
          "internalType": "struct JB721TierParams",
          "name": "data",
          "type": "tuple"
        },
        {
          "indexed": false,
          "internalType": "address",
          "name": "caller",
          "type": "address"
        }
      ],
      "name": "AddTier",
      "type": "event"
    },
    {
      "anonymous": false,
      "inputs": [
        {
          "indexed": true,
          "internalType": "address",
          "name": "owner",
          "type": "address"
        },
        {
          "indexed": true,
          "internalType": "address",
          "name": "approved",
          "type": "address"
        },
        {
          "indexed": true,
          "internalType": "uint256",
          "name": "tokenId",
          "type": "uint256"
        }
      ],
      "name": "Approval",
      "type": "event"
    },
    {
      "anonymous": false,
      "inputs": [
        {
          "indexed": true,
          "internalType": "address",
          "name": "owner",
          "type": "address"
        },
        {
          "indexed": true,
          "internalType": "address",
          "name": "operator",
          "type": "address"
        },
        {
          "indexed": false,
          "internalType": "bool",
          "name": "approved",
          "type": "bool"
        }
      ],
      "name": "ApprovalForAll",
      "type": "event"
    },
    {
      "anonymous": false,
      "inputs": [
        {
          "indexed": true,
          "internalType": "uint256",
          "name": "tokenId",
          "type": "uint256"
        },
        {
          "indexed": true,
          "internalType": "uint256",
          "name": "tierId",
          "type": "uint256"
        },
        {
          "indexed": true,
          "internalType": "address",
          "name": "beneficiary",
          "type": "address"
        },
        {
          "indexed": false,
          "internalType": "uint256",
          "name": "totalAmountContributed",
          "type": "uint256"
        },
        {
          "indexed": false,
          "internalType": "address",
          "name": "caller",
          "type": "address"
        }
      ],
      "name": "Mint",
      "type": "event"
    },
    {
      "anonymous": false,
      "inputs": [
        {
          "indexed": true,
          "internalType": "uint256",
          "name": "tokenId",
          "type": "uint256"
        },
        {
          "indexed": true,
          "internalType": "uint256",
          "name": "tierId",
          "type": "uint256"
        },
        {
          "indexed": true,
          "internalType": "address",
          "name": "beneficiary",
          "type": "address"
        },
        {
          "indexed": false,
          "internalType": "address",
          "name": "caller",
          "type": "address"
        }
      ],
      "name": "MintReservedToken",
      "type": "event"
    },
    {
      "anonymous": false,
      "inputs": [
        {
          "indexed": true,
          "internalType": "address",
          "name": "previousOwner",
          "type": "address"
        },
        {
          "indexed": true,
          "internalType": "address",
          "name": "newOwner",
          "type": "address"
        }
      ],
      "name": "OwnershipTransferred",
      "type": "event"
    },
    {
      "anonymous": false,
      "inputs": [
        {
          "indexed": false,
          "internalType": "uint8",
          "name": "newIndex",
          "type": "uint8"
        }
      ],
      "name": "PermissionIndexChanged",
      "type": "event"
    },
    {
      "anonymous": false,
      "inputs": [
        {
          "indexed": true,
          "internalType": "uint256",
          "name": "tierId",
          "type": "uint256"
        },
        {
          "indexed": false,
          "internalType": "address",
          "name": "caller",
          "type": "address"
        }
      ],
      "name": "RemoveTier",
      "type": "event"
    },
    {
      "anonymous": false,
      "inputs": [
        {
          "indexed": true,
          "internalType": "string",
          "name": "baseUri",
          "type": "string"
        },
        {
          "indexed": false,
          "internalType": "address",
          "name": "caller",
          "type": "address"
        }
      ],
      "name": "SetBaseUri",
      "type": "event"
    },
    {
      "anonymous": false,
      "inputs": [
        {
          "indexed": true,
          "internalType": "string",
          "name": "contractUri",
          "type": "string"
        },
        {
          "indexed": false,
          "internalType": "address",
          "name": "caller",
          "type": "address"
        }
      ],
      "name": "SetContractUri",
      "type": "event"
    },
    {
      "anonymous": false,
      "inputs": [
        {
          "indexed": true,
          "internalType": "address",
          "name": "beneficiary",
          "type": "address"
        },
        {
          "indexed": false,
          "internalType": "address",
          "name": "caller",
          "type": "address"
        }
      ],
      "name": "SetDefaultReservedTokenBeneficiary",
      "type": "event"
    },
    {
      "anonymous": false,
      "inputs": [
        {
          "indexed": true,
          "internalType": "uint256",
          "name": "tierId",
          "type": "uint256"
        },
        {
          "indexed": false,
          "internalType": "bytes32",
          "name": "encodedIPFSUri",
          "type": "bytes32"
        },
        {
          "indexed": false,
          "internalType": "address",
          "name": "caller",
          "type": "address"
        }
      ],
      "name": "SetEncodedIPFSUri",
      "type": "event"
    },
    {
      "anonymous": false,
      "inputs": [
        {
          "indexed": true,
          "internalType": "contract IJBTokenUriResolver",
          "name": "newResolver",
          "type": "address"
        },
        {
          "indexed": false,
          "internalType": "address",
          "name": "caller",
          "type": "address"
        }
      ],
      "name": "SetTokenUriResolver",
      "type": "event"
    },
    {
      "anonymous": false,
      "inputs": [
        {
          "indexed": true,
          "internalType": "address",
          "name": "from",
          "type": "address"
        },
        {
          "indexed": true,
          "internalType": "address",
          "name": "to",
          "type": "address"
        },
        {
          "indexed": true,
          "internalType": "uint256",
          "name": "tokenId",
          "type": "uint256"
        }
      ],
      "name": "Transfer",
      "type": "event"
    },
    {
      "anonymous": false,
      "inputs": [
        {
          "indexed": true,
          "internalType": "uint256",
          "name": "changeAmount",
          "type": "uint256"
        },
        {
          "indexed": true,
          "internalType": "uint256",
          "name": "newTotalCredits",
          "type": "uint256"
        },
        {
          "indexed": true,
          "internalType": "address",
          "name": "account",
          "type": "address"
        },
        {
          "indexed": false,
          "internalType": "address",
          "name": "caller",
          "type": "address"
        }
      ],
      "name": "UseCredits",
      "type": "event"
    },
    {
      "inputs": [
        {
          "components": [
            {
              "internalType": "uint96",
              "name": "price",
              "type": "uint96"
            },
            {
              "internalType": "uint32",
              "name": "initialQuantity",
              "type": "uint32"
            },
            {
              "internalType": "uint32",
              "name": "votingUnits",
              "type": "uint32"
            },
            {
              "internalType": "uint16",
              "name": "reservedRate",
              "type": "uint16"
            },
            {
              "internalType": "address",
              "name": "reservedTokenBeneficiary",
              "type": "address"
            },
            {
              "internalType": "bytes32",
              "name": "encodedIPFSUri",
              "type": "bytes32"
            },
            {
              "internalType": "uint16",
              "name": "category",
              "type": "uint16"
            },
            {
              "internalType": "bool",
              "name": "allowManualMint",
              "type": "bool"
            },
            {
              "internalType": "bool",
              "name": "shouldUseReservedTokenBeneficiaryAsDefault",
              "type": "bool"
            },
            {
              "internalType": "bool",
              "name": "transfersPausable",
              "type": "bool"
            },
            {
              "internalType": "bool",
              "name": "useVotingUnits",
              "type": "bool"
            }
          ],
          "internalType": "struct JB721TierParams[]",
          "name": "_tiersToAdd",
          "type": "tuple[]"
        },
        {
          "internalType": "uint256[]",
          "name": "_tierIdsToRemove",
          "type": "uint256[]"
        }
      ],
      "name": "adjustTiers",
      "outputs": [],
      "stateMutability": "nonpayable",
      "type": "function"
    },
    {
      "inputs": [
        {
          "internalType": "address",
          "name": "to",
          "type": "address"
        },
        {
          "internalType": "uint256",
          "name": "tokenId",
          "type": "uint256"
        }
      ],
      "name": "approve",
      "outputs": [],
      "stateMutability": "nonpayable",
      "type": "function"
    },
    {
      "inputs": [
        {
          "internalType": "address",
          "name": "_owner",
          "type": "address"
        }
      ],
      "name": "balanceOf",
      "outputs": [
        {
          "internalType": "uint256",
          "name": "balance",
          "type": "uint256"
        }
      ],
      "stateMutability": "view",
      "type": "function"
    },
    {
      "inputs": [],
      "name": "baseURI",
      "outputs": [
        {
          "internalType": "string",
          "name": "",
          "type": "string"
        }
      ],
      "stateMutability": "view",
      "type": "function"
    },
    {
      "inputs": [],
      "name": "codeOrigin",
      "outputs": [
        {
          "internalType": "address",
          "name": "",
          "type": "address"
        }
      ],
      "stateMutability": "view",
      "type": "function"
    },
    {
      "inputs": [],
      "name": "contractURI",
      "outputs": [
        {
          "internalType": "string",
          "name": "",
          "type": "string"
        }
      ],
      "stateMutability": "view",
      "type": "function"
    },
    {
      "inputs": [
        {
          "internalType": "address",
          "name": "",
          "type": "address"
        }
      ],
      "name": "creditsOf",
      "outputs": [
        {
          "internalType": "uint256",
          "name": "",
          "type": "uint256"
        }
      ],
      "stateMutability": "view",
      "type": "function"
    },
    {
      "inputs": [
        {
          "components": [
            {
              "internalType": "address",
              "name": "payer",
              "type": "address"
            },
            {
              "internalType": "uint256",
              "name": "projectId",
              "type": "uint256"
            },
            {
              "internalType": "uint256",
              "name": "currentFundingCycleConfiguration",
              "type": "uint256"
            },
            {
              "components": [
                {
                  "internalType": "address",
                  "name": "token",
                  "type": "address"
                },
                {
                  "internalType": "uint256",
                  "name": "value",
                  "type": "uint256"
                },
                {
                  "internalType": "uint256",
                  "name": "decimals",
                  "type": "uint256"
                },
                {
                  "internalType": "uint256",
                  "name": "currency",
                  "type": "uint256"
                }
              ],
              "internalType": "struct JBTokenAmount",
              "name": "amount",
              "type": "tuple"
            },
            {
              "components": [
                {
                  "internalType": "address",
                  "name": "token",
                  "type": "address"
                },
                {
                  "internalType": "uint256",
                  "name": "value",
                  "type": "uint256"
                },
                {
                  "internalType": "uint256",
                  "name": "decimals",
                  "type": "uint256"
                },
                {
                  "internalType": "uint256",
                  "name": "currency",
                  "type": "uint256"
                }
              ],
              "internalType": "struct JBTokenAmount",
              "name": "forwardedAmount",
              "type": "tuple"
            },
            {
              "internalType": "uint256",
              "name": "projectTokenCount",
              "type": "uint256"
            },
            {
              "internalType": "address",
              "name": "beneficiary",
              "type": "address"
            },
            {
              "internalType": "bool",
              "name": "preferClaimedTokens",
              "type": "bool"
            },
            {
              "internalType": "string",
              "name": "memo",
              "type": "string"
            },
            {
              "internalType": "bytes",
              "name": "metadata",
              "type": "bytes"
            }
          ],
          "internalType": "struct JBDidPayData",
          "name": "_data",
          "type": "tuple"
        }
      ],
      "name": "didPay",
      "outputs": [],
      "stateMutability": "payable",
      "type": "function"
    },
    {
      "inputs": [
        {
          "components": [
            {
              "internalType": "address",
              "name": "holder",
              "type": "address"
            },
            {
              "internalType": "uint256",
              "name": "projectId",
              "type": "uint256"
            },
            {
              "internalType": "uint256",
              "name": "currentFundingCycleConfiguration",
              "type": "uint256"
            },
            {
              "internalType": "uint256",
              "name": "projectTokenCount",
              "type": "uint256"
            },
            {
              "components": [
                {
                  "internalType": "address",
                  "name": "token",
                  "type": "address"
                },
                {
                  "internalType": "uint256",
                  "name": "value",
                  "type": "uint256"
                },
                {
                  "internalType": "uint256",
                  "name": "decimals",
                  "type": "uint256"
                },
                {
                  "internalType": "uint256",
                  "name": "currency",
                  "type": "uint256"
                }
              ],
              "internalType": "struct JBTokenAmount",
              "name": "reclaimedAmount",
              "type": "tuple"
            },
            {
              "components": [
                {
                  "internalType": "address",
                  "name": "token",
                  "type": "address"
                },
                {
                  "internalType": "uint256",
                  "name": "value",
                  "type": "uint256"
                },
                {
                  "internalType": "uint256",
                  "name": "decimals",
                  "type": "uint256"
                },
                {
                  "internalType": "uint256",
                  "name": "currency",
                  "type": "uint256"
                }
              ],
              "internalType": "struct JBTokenAmount",
              "name": "forwardedAmount",
              "type": "tuple"
            },
            {
              "internalType": "address payable",
              "name": "beneficiary",
              "type": "address"
            },
            {
              "internalType": "string",
              "name": "memo",
              "type": "string"
            },
            {
              "internalType": "bytes",
              "name": "metadata",
              "type": "bytes"
            }
          ],
          "internalType": "struct JBDidRedeemData",
          "name": "_data",
          "type": "tuple"
        }
      ],
      "name": "didRedeem",
      "outputs": [],
      "stateMutability": "payable",
      "type": "function"
    },
    {
      "inputs": [],
      "name": "directory",
      "outputs": [
        {
          "internalType": "contract IJBDirectory",
          "name": "",
          "type": "address"
        }
      ],
      "stateMutability": "view",
      "type": "function"
    },
    {
      "inputs": [
        {
          "internalType": "uint256",
          "name": "_tokenId",
          "type": "uint256"
        }
      ],
      "name": "firstOwnerOf",
      "outputs": [
        {
          "internalType": "address",
          "name": "",
          "type": "address"
        }
      ],
      "stateMutability": "view",
      "type": "function"
    },
    {
      "inputs": [],
      "name": "fundingCycleStore",
      "outputs": [
        {
          "internalType": "contract IJBFundingCycleStore",
          "name": "",
          "type": "address"
        }
      ],
      "stateMutability": "view",
      "type": "function"
    },
    {
      "inputs": [
        {
          "internalType": "uint256",
          "name": "tokenId",
          "type": "uint256"
        }
      ],
      "name": "getApproved",
      "outputs": [
        {
          "internalType": "address",
          "name": "",
          "type": "address"
        }
      ],
      "stateMutability": "view",
      "type": "function"
    },
    {
      "inputs": [
        {
          "internalType": "uint256",
          "name": "_projectId",
          "type": "uint256"
        },
        {
          "internalType": "contract IJBDirectory",
          "name": "_directory",
          "type": "address"
        },
        {
          "internalType": "string",
          "name": "_name",
          "type": "string"
        },
        {
          "internalType": "string",
          "name": "_symbol",
          "type": "string"
        },
        {
          "internalType": "contract IJBFundingCycleStore",
          "name": "_fundingCycleStore",
          "type": "address"
        },
        {
          "internalType": "string",
          "name": "_baseUri",
          "type": "string"
        },
        {
          "internalType": "contract IJBTokenUriResolver",
          "name": "_tokenUriResolver",
          "type": "address"
        },
        {
          "internalType": "string",
          "name": "_contractUri",
          "type": "string"
        },
        {
          "components": [
            {
              "components": [
                {
                  "internalType": "uint96",
                  "name": "price",
                  "type": "uint96"
                },
                {
                  "internalType": "uint32",
                  "name": "initialQuantity",
                  "type": "uint32"
                },
                {
                  "internalType": "uint32",
                  "name": "votingUnits",
                  "type": "uint32"
                },
                {
                  "internalType": "uint16",
                  "name": "reservedRate",
                  "type": "uint16"
                },
                {
                  "internalType": "address",
                  "name": "reservedTokenBeneficiary",
                  "type": "address"
                },
                {
                  "internalType": "bytes32",
                  "name": "encodedIPFSUri",
                  "type": "bytes32"
                },
                {
                  "internalType": "uint16",
                  "name": "category",
                  "type": "uint16"
                },
                {
                  "internalType": "bool",
                  "name": "allowManualMint",
                  "type": "bool"
                },
                {
                  "internalType": "bool",
                  "name": "shouldUseReservedTokenBeneficiaryAsDefault",
                  "type": "bool"
                },
                {
                  "internalType": "bool",
                  "name": "transfersPausable",
                  "type": "bool"
                },
                {
                  "internalType": "bool",
                  "name": "useVotingUnits",
                  "type": "bool"
                }
              ],
              "internalType": "struct JB721TierParams[]",
              "name": "tiers",
              "type": "tuple[]"
            },
            {
              "internalType": "uint256",
              "name": "currency",
              "type": "uint256"
            },
            {
              "internalType": "uint256",
              "name": "decimals",
              "type": "uint256"
            },
            {
              "internalType": "contract IJBPrices",
              "name": "prices",
              "type": "address"
            }
          ],
          "internalType": "struct JB721PricingParams",
          "name": "_pricing",
          "type": "tuple"
        },
        {
          "internalType": "contract IJBTiered721DelegateStore",
          "name": "_store",
          "type": "address"
        },
        {
          "components": [
            {
              "internalType": "bool",
              "name": "lockReservedTokenChanges",
              "type": "bool"
            },
            {
              "internalType": "bool",
              "name": "lockVotingUnitChanges",
              "type": "bool"
            },
            {
              "internalType": "bool",
              "name": "lockManualMintingChanges",
              "type": "bool"
            },
            {
              "internalType": "bool",
              "name": "preventOverspending",
              "type": "bool"
            }
          ],
          "internalType": "struct JBTiered721Flags",
          "name": "_flags",
          "type": "tuple"
        }
      ],
      "name": "initialize",
      "outputs": [],
      "stateMutability": "nonpayable",
      "type": "function"
    },
    {
      "inputs": [
        {
          "internalType": "address",
          "name": "owner",
          "type": "address"
        },
        {
          "internalType": "address",
          "name": "operator",
          "type": "address"
        }
      ],
      "name": "isApprovedForAll",
      "outputs": [
        {
          "internalType": "bool",
          "name": "",
          "type": "bool"
        }
      ],
      "stateMutability": "view",
      "type": "function"
    },
    {
      "inputs": [],
      "name": "jbOwner",
      "outputs": [
        {
          "internalType": "address",
          "name": "owner",
          "type": "address"
        },
        {
          "internalType": "uint88",
          "name": "projectId",
          "type": "uint88"
        },
        {
          "internalType": "uint8",
          "name": "permissionIndex",
          "type": "uint8"
        }
      ],
      "stateMutability": "view",
      "type": "function"
    },
    {
      "inputs": [
        {
          "internalType": "uint16[]",
          "name": "_tierIds",
          "type": "uint16[]"
        },
        {
          "internalType": "address",
          "name": "_beneficiary",
          "type": "address"
        }
      ],
      "name": "mintFor",
      "outputs": [
        {
          "internalType": "uint256[]",
          "name": "tokenIds",
          "type": "uint256[]"
        }
      ],
      "stateMutability": "nonpayable",
      "type": "function"
    },
    {
      "inputs": [
        {
          "components": [
            {
              "internalType": "uint256",
              "name": "tierId",
              "type": "uint256"
            },
            {
              "internalType": "uint256",
              "name": "count",
              "type": "uint256"
            }
          ],
          "internalType": "struct JBTiered721MintReservesForTiersData[]",
          "name": "_mintReservesForTiersData",
          "type": "tuple[]"
        }
      ],
      "name": "mintReservesFor",
      "outputs": [],
      "stateMutability": "nonpayable",
      "type": "function"
    },
    {
      "inputs": [
        {
          "internalType": "uint256",
          "name": "_tierId",
          "type": "uint256"
        },
        {
          "internalType": "uint256",
          "name": "_count",
          "type": "uint256"
        }
      ],
      "name": "mintReservesFor",
      "outputs": [],
      "stateMutability": "nonpayable",
      "type": "function"
    },
    {
      "inputs": [],
      "name": "name",
      "outputs": [
        {
          "internalType": "string",
          "name": "",
          "type": "string"
        }
      ],
      "stateMutability": "view",
      "type": "function"
    },
    {
      "inputs": [],
      "name": "operatorStore",
      "outputs": [
        {
          "internalType": "contract IJBOperatorStore",
          "name": "",
          "type": "address"
        }
      ],
      "stateMutability": "view",
      "type": "function"
    },
    {
      "inputs": [],
      "name": "owner",
      "outputs": [
        {
          "internalType": "address",
          "name": "",
          "type": "address"
        }
      ],
      "stateMutability": "view",
      "type": "function"
    },
    {
      "inputs": [
        {
          "internalType": "uint256",
          "name": "tokenId",
          "type": "uint256"
        }
      ],
      "name": "ownerOf",
      "outputs": [
        {
          "internalType": "address",
          "name": "",
          "type": "address"
        }
      ],
      "stateMutability": "view",
      "type": "function"
    },
    {
      "inputs": [
        {
          "components": [
            {
              "internalType": "contract IJBPaymentTerminal",
              "name": "terminal",
              "type": "address"
            },
            {
              "internalType": "address",
              "name": "payer",
              "type": "address"
            },
            {
              "components": [
                {
                  "internalType": "address",
                  "name": "token",
                  "type": "address"
                },
                {
                  "internalType": "uint256",
                  "name": "value",
                  "type": "uint256"
                },
                {
                  "internalType": "uint256",
                  "name": "decimals",
                  "type": "uint256"
                },
                {
                  "internalType": "uint256",
                  "name": "currency",
                  "type": "uint256"
                }
              ],
              "internalType": "struct JBTokenAmount",
              "name": "amount",
              "type": "tuple"
            },
            {
              "internalType": "uint256",
              "name": "projectId",
              "type": "uint256"
            },
            {
              "internalType": "uint256",
              "name": "currentFundingCycleConfiguration",
              "type": "uint256"
            },
            {
              "internalType": "address",
              "name": "beneficiary",
              "type": "address"
            },
            {
              "internalType": "uint256",
              "name": "weight",
              "type": "uint256"
            },
            {
              "internalType": "uint256",
              "name": "reservedRate",
              "type": "uint256"
            },
            {
              "internalType": "string",
              "name": "memo",
              "type": "string"
            },
            {
              "internalType": "bytes",
              "name": "metadata",
              "type": "bytes"
            }
          ],
          "internalType": "struct JBPayParamsData",
          "name": "_data",
          "type": "tuple"
        }
      ],
      "name": "payParams",
      "outputs": [
        {
          "internalType": "uint256",
          "name": "weight",
          "type": "uint256"
        },
        {
          "internalType": "string",
          "name": "memo",
          "type": "string"
        },
        {
          "components": [
            {
              "internalType": "contract IJBPayDelegate",
              "name": "delegate",
              "type": "address"
            },
            {
              "internalType": "uint256",
              "name": "amount",
              "type": "uint256"
            }
          ],
          "internalType": "struct JBPayDelegateAllocation[]",
          "name": "delegateAllocations",
          "type": "tuple[]"
        }
      ],
      "stateMutability": "view",
      "type": "function"
    },
    {
      "inputs": [],
      "name": "prices",
      "outputs": [
        {
          "internalType": "contract IJBPrices",
          "name": "",
          "type": "address"
        }
      ],
      "stateMutability": "view",
      "type": "function"
    },
    {
      "inputs": [],
      "name": "pricingCurrency",
      "outputs": [
        {
          "internalType": "uint256",
          "name": "",
          "type": "uint256"
        }
      ],
      "stateMutability": "view",
      "type": "function"
    },
    {
      "inputs": [],
      "name": "pricingDecimals",
      "outputs": [
        {
          "internalType": "uint256",
          "name": "",
          "type": "uint256"
        }
      ],
      "stateMutability": "view",
      "type": "function"
    },
    {
      "inputs": [],
      "name": "projectId",
      "outputs": [
        {
          "internalType": "uint256",
          "name": "",
          "type": "uint256"
        }
      ],
      "stateMutability": "view",
      "type": "function"
    },
    {
      "inputs": [],
      "name": "projects",
      "outputs": [
        {
          "internalType": "contract IJBProjects",
          "name": "",
          "type": "address"
        }
      ],
      "stateMutability": "view",
      "type": "function"
    },
    {
      "inputs": [
        {
          "components": [
            {
              "internalType": "contract IJBPaymentTerminal",
              "name": "terminal",
              "type": "address"
            },
            {
              "internalType": "address",
              "name": "holder",
              "type": "address"
            },
            {
              "internalType": "uint256",
              "name": "projectId",
              "type": "uint256"
            },
            {
              "internalType": "uint256",
              "name": "currentFundingCycleConfiguration",
              "type": "uint256"
            },
            {
              "internalType": "uint256",
              "name": "tokenCount",
              "type": "uint256"
            },
            {
              "internalType": "uint256",
              "name": "totalSupply",
              "type": "uint256"
            },
            {
              "internalType": "uint256",
              "name": "overflow",
              "type": "uint256"
            },
            {
              "components": [
                {
                  "internalType": "address",
                  "name": "token",
                  "type": "address"
                },
                {
                  "internalType": "uint256",
                  "name": "value",
                  "type": "uint256"
                },
                {
                  "internalType": "uint256",
                  "name": "decimals",
                  "type": "uint256"
                },
                {
                  "internalType": "uint256",
                  "name": "currency",
                  "type": "uint256"
                }
              ],
              "internalType": "struct JBTokenAmount",
              "name": "reclaimAmount",
              "type": "tuple"
            },
            {
              "internalType": "bool",
              "name": "useTotalOverflow",
              "type": "bool"
            },
            {
              "internalType": "uint256",
              "name": "redemptionRate",
              "type": "uint256"
            },
            {
              "internalType": "string",
              "name": "memo",
              "type": "string"
            },
            {
              "internalType": "bytes",
              "name": "metadata",
              "type": "bytes"
            }
          ],
          "internalType": "struct JBRedeemParamsData",
          "name": "_data",
          "type": "tuple"
        }
      ],
      "name": "redeemParams",
      "outputs": [
        {
          "internalType": "uint256",
          "name": "reclaimAmount",
          "type": "uint256"
        },
        {
          "internalType": "string",
          "name": "memo",
          "type": "string"
        },
        {
          "components": [
            {
              "internalType": "contract IJBRedemptionDelegate",
              "name": "delegate",
              "type": "address"
            },
            {
              "internalType": "uint256",
              "name": "amount",
              "type": "uint256"
            }
          ],
          "internalType": "struct JBRedemptionDelegateAllocation[]",
          "name": "delegateAllocations",
          "type": "tuple[]"
        }
      ],
      "stateMutability": "view",
      "type": "function"
    },
    {
      "inputs": [
        {
          "internalType": "uint256[]",
          "name": "_tokenIds",
          "type": "uint256[]"
        },
        {
          "components": [
            {
              "internalType": "contract IJBPaymentTerminal",
              "name": "terminal",
              "type": "address"
            },
            {
              "internalType": "address",
              "name": "holder",
              "type": "address"
            },
            {
              "internalType": "uint256",
              "name": "projectId",
              "type": "uint256"
            },
            {
              "internalType": "uint256",
              "name": "currentFundingCycleConfiguration",
              "type": "uint256"
            },
            {
              "internalType": "uint256",
              "name": "tokenCount",
              "type": "uint256"
            },
            {
              "internalType": "uint256",
              "name": "totalSupply",
              "type": "uint256"
            },
            {
              "internalType": "uint256",
              "name": "overflow",
              "type": "uint256"
            },
            {
              "components": [
                {
                  "internalType": "address",
                  "name": "token",
                  "type": "address"
                },
                {
                  "internalType": "uint256",
                  "name": "value",
                  "type": "uint256"
                },
                {
                  "internalType": "uint256",
                  "name": "decimals",
                  "type": "uint256"
                },
                {
                  "internalType": "uint256",
                  "name": "currency",
                  "type": "uint256"
                }
              ],
              "internalType": "struct JBTokenAmount",
              "name": "reclaimAmount",
              "type": "tuple"
            },
            {
              "internalType": "bool",
              "name": "useTotalOverflow",
              "type": "bool"
            },
            {
              "internalType": "uint256",
              "name": "redemptionRate",
              "type": "uint256"
            },
            {
              "internalType": "string",
              "name": "memo",
              "type": "string"
            },
            {
              "internalType": "bytes",
              "name": "metadata",
              "type": "bytes"
            }
          ],
          "internalType": "struct JBRedeemParamsData",
          "name": "",
          "type": "tuple"
        }
      ],
      "name": "redemptionWeightOf",
      "outputs": [
        {
          "internalType": "uint256",
          "name": "",
          "type": "uint256"
        }
      ],
      "stateMutability": "view",
      "type": "function"
    },
    {
      "inputs": [],
      "name": "renounceOwnership",
      "outputs": [],
      "stateMutability": "nonpayable",
      "type": "function"
    },
    {
      "inputs": [
        {
          "internalType": "address",
          "name": "from",
          "type": "address"
        },
        {
          "internalType": "address",
          "name": "to",
          "type": "address"
        },
        {
          "internalType": "uint256",
          "name": "tokenId",
          "type": "uint256"
        }
      ],
      "name": "safeTransferFrom",
      "outputs": [],
      "stateMutability": "nonpayable",
      "type": "function"
    },
    {
      "inputs": [
        {
          "internalType": "address",
          "name": "from",
          "type": "address"
        },
        {
          "internalType": "address",
          "name": "to",
          "type": "address"
        },
        {
          "internalType": "uint256",
          "name": "tokenId",
          "type": "uint256"
        },
        {
          "internalType": "bytes",
          "name": "data",
          "type": "bytes"
        }
      ],
      "name": "safeTransferFrom",
      "outputs": [],
      "stateMutability": "nonpayable",
      "type": "function"
    },
    {
      "inputs": [
        {
          "internalType": "address",
          "name": "operator",
          "type": "address"
        },
        {
          "internalType": "bool",
          "name": "approved",
          "type": "bool"
        }
      ],
      "name": "setApprovalForAll",
      "outputs": [],
      "stateMutability": "nonpayable",
      "type": "function"
    },
    {
      "inputs": [
        {
          "internalType": "string",
          "name": "_baseUri",
          "type": "string"
        },
        {
          "internalType": "string",
          "name": "_contractUri",
          "type": "string"
        },
        {
          "internalType": "contract IJBTokenUriResolver",
          "name": "_tokenUriResolver",
          "type": "address"
        },
        {
          "internalType": "uint256",
          "name": "_encodedIPFSUriTierId",
          "type": "uint256"
        },
        {
          "internalType": "bytes32",
          "name": "_encodedIPFSUri",
          "type": "bytes32"
        }
      ],
      "name": "setMetadata",
      "outputs": [],
      "stateMutability": "nonpayable",
      "type": "function"
    },
    {
      "inputs": [
        {
          "internalType": "uint8",
          "name": "_permissionIndex",
          "type": "uint8"
        }
      ],
      "name": "setPermissionIndex",
      "outputs": [],
      "stateMutability": "nonpayable",
      "type": "function"
    },
    {
      "inputs": [],
      "name": "store",
      "outputs": [
        {
          "internalType": "contract IJBTiered721DelegateStore",
          "name": "",
          "type": "address"
        }
      ],
      "stateMutability": "view",
      "type": "function"
    },
    {
      "inputs": [
        {
          "internalType": "bytes4",
          "name": "_interfaceId",
          "type": "bytes4"
        }
      ],
      "name": "supportsInterface",
      "outputs": [
        {
          "internalType": "bool",
          "name": "",
          "type": "bool"
        }
      ],
      "stateMutability": "view",
      "type": "function"
    },
    {
      "inputs": [],
      "name": "symbol",
      "outputs": [
        {
          "internalType": "string",
          "name": "",
          "type": "string"
        }
      ],
      "stateMutability": "view",
      "type": "function"
    },
    {
      "inputs": [
        {
          "internalType": "uint256",
          "name": "_tokenId",
          "type": "uint256"
        }
      ],
      "name": "tokenURI",
      "outputs": [
        {
          "internalType": "string",
          "name": "",
          "type": "string"
        }
      ],
      "stateMutability": "view",
      "type": "function"
    },
    {
      "inputs": [
        {
          "components": [
            {
              "internalType": "contract IJBPaymentTerminal",
              "name": "terminal",
              "type": "address"
            },
            {
              "internalType": "address",
              "name": "holder",
              "type": "address"
            },
            {
              "internalType": "uint256",
              "name": "projectId",
              "type": "uint256"
            },
            {
              "internalType": "uint256",
              "name": "currentFundingCycleConfiguration",
              "type": "uint256"
            },
            {
              "internalType": "uint256",
              "name": "tokenCount",
              "type": "uint256"
            },
            {
              "internalType": "uint256",
              "name": "totalSupply",
              "type": "uint256"
            },
            {
              "internalType": "uint256",
              "name": "overflow",
              "type": "uint256"
            },
            {
              "components": [
                {
                  "internalType": "address",
                  "name": "token",
                  "type": "address"
                },
                {
                  "internalType": "uint256",
                  "name": "value",
                  "type": "uint256"
                },
                {
                  "internalType": "uint256",
                  "name": "decimals",
                  "type": "uint256"
                },
                {
                  "internalType": "uint256",
                  "name": "currency",
                  "type": "uint256"
                }
              ],
              "internalType": "struct JBTokenAmount",
              "name": "reclaimAmount",
              "type": "tuple"
            },
            {
              "internalType": "bool",
              "name": "useTotalOverflow",
              "type": "bool"
            },
            {
              "internalType": "uint256",
              "name": "redemptionRate",
              "type": "uint256"
            },
            {
              "internalType": "string",
              "name": "memo",
              "type": "string"
            },
            {
              "internalType": "bytes",
              "name": "metadata",
              "type": "bytes"
            }
          ],
          "internalType": "struct JBRedeemParamsData",
          "name": "",
          "type": "tuple"
        }
      ],
      "name": "totalRedemptionWeight",
      "outputs": [
        {
          "internalType": "uint256",
          "name": "",
          "type": "uint256"
        }
      ],
      "stateMutability": "view",
      "type": "function"
    },
    {
      "inputs": [
        {
          "internalType": "address",
          "name": "from",
          "type": "address"
        },
        {
          "internalType": "address",
          "name": "to",
          "type": "address"
        },
        {
          "internalType": "uint256",
          "name": "tokenId",
          "type": "uint256"
        }
      ],
      "name": "transferFrom",
      "outputs": [],
      "stateMutability": "nonpayable",
      "type": "function"
    },
    {
      "inputs": [
        {
          "internalType": "address",
          "name": "_newOwner",
          "type": "address"
        }
      ],
      "name": "transferOwnership",
      "outputs": [],
      "stateMutability": "nonpayable",
      "type": "function"
    },
    {
      "inputs": [
        {
          "internalType": "uint256",
          "name": "_projectId",
          "type": "uint256"
        }
      ],
      "name": "transferOwnershipToProject",
      "outputs": [],
      "stateMutability": "nonpayable",
      "type": "function"
    }
  ],
  "bytecode": {
    "object": "0x60c06040523480156200001157600080fd5b5060405162005af138038062005af1833981016040819052620000349162000313565b6001600160a01b03808216608052821660a05281818181620000563362000075565b5050600980546001600160a01b03191630179055506200037992505050565b6200008281600062000085565b50565b6001600160581b03811615801590620000a657506001600160a01b03821615155b15620000e3576040516324abfd1160e11b81526001600160a01b03831660048201526001600160581b038216602482015260440160405180910390fd5b60408051606081018252600080546001600160a01b0381168352600160a01b81046001600160581b031660208401819052600160f81b90910460ff1693830193909352909115620001b25760a05160208301516040516331a9108f60e11b81526001600160581b0390911660048201526001600160a01b0390911690636352211e90602401602060405180830381865afa15801562000186573d6000803e3d6000fd5b505050506040513d601f19601f82011682018060405250810190620001ac919062000352565b620001b5565b81515b604080516060810182526001600160a01b0387168082526001600160581b0387166020830181905260009290930182905281547fff000000000000000000000000000000000000000000000000000000000000001617600160a01b8302176001600160f81b03169055909150620002b390829015620002ac5760a0516040516331a9108f60e11b81526001600160581b03871660048201526001600160a01b0390911690636352211e90602401602060405180830381865afa15801562000280573d6000803e3d6000fd5b505050506040513d601f19601f82011682018060405250810190620002a6919062000352565b620002b9565b85620002b9565b50505050565b806001600160a01b0316826001600160a01b03167f8be0079c531659141344cd1fd0a4f28419497f9722a3daafe3b4186f6b6457e060405160405180910390a35050565b6001600160a01b03811681146200008257600080fd5b600080604083850312156200032757600080fd5b82516200033481620002fd565b60208401519092506200034781620002fd565b809150509250929050565b6000602082840312156200036557600080fd5b81516200037281620002fd565b9392505050565b60805160a051615713620003de600039600081816105c101528181610ce9015281816110180152818161160f015281816119eb0152818161292b01528181612bad0152612ca50152600081816106ee0152818161254b01526125f401526157136000f3fe6080604052600436106102725760003560e01c806370a082311161014f578063aa4fb15b116100c1578063d3419bf31161007a578063d3419bf3146107dd578063d46cf171146107fd578063da9ee8b71461081d578063e8a3d48514610830578063e985e9c514610845578063f2fde38b1461088e57600080fd5b8063aa4fb15b146106bc578063ad007d63146106dc578063b88d4fde14610710578063ba23c36e14610730578063c41c2f241461079d578063c87b56dd146107bd57600080fd5b80639494bf72116101135780639494bf72146105f857806395d89b4114610618578063975057e71461062d578063a220d6961461064d578063a22cb4651461066d578063a51cfd181461068d57600080fd5b806370a082311461055a578063715018a61461057a5780637ba62bf91461058f5780638b79543c146105af5780638da5cb5b146105e357600080fd5b80632b13c58f116101e8578063557e7155116101ac578063557e7155146104a257806361aec7a9146104c25780636352211e146104e257806364640c1e146105025780636ac6d941146105185780636c0360eb1461054557600080fd5b80632b13c58f146104235780633fafa1271461043657806342842e0e1461044c5780634ecba6251461046c57806354c6d1f51461048257600080fd5b80631435aad51161023a5780631435aad51461034857806315f2e283146103685780631d153ca41461038857806323b872dd146103a8578063245a45b5146103c85780632a596e531461040357600080fd5b806301ffc9a71461027757806306fdde03146102ac578063081812fc146102ce578063095ea7b314610306578063126d89f814610328575b600080fd5b34801561028357600080fd5b50610297610292366004613d2e565b6108ae565b60405190151581526020015b60405180910390f35b3480156102b857600080fd5b506102c16108d9565b6040516102a39190613d9b565b3480156102da57600080fd5b506102ee6102e9366004613dae565b61096b565b6040516001600160a01b0390911681526020016102a3565b34801561031257600080fd5b50610326610321366004613dec565b610992565b005b34801561033457600080fd5b506103266103433660046141cf565b610a1e565b34801561035457600080fd5b50610326610363366004614350565b610c7a565b34801561037457600080fd5b50610326610383366004614429565b610fa9565b34801561039457600080fd5b506009546102ee906001600160a01b031681565b3480156103b457600080fd5b506103266103c33660046144c3565b611288565b3480156103d457600080fd5b506103f56103e3366004614504565b600f6020526000908152604090205481565b6040519081526020016102a3565b34801561040f57600080fd5b5061032661041e366004614521565b6112ba565b6103266104313660046145ae565b611313565b34801561044257600080fd5b506103f560065481565b34801561045857600080fd5b506103266104673660046144c3565b6114f5565b34801561047857600080fd5b506103f5600e5481565b34801561048e57600080fd5b506102ee61049d366004613dae565b611510565b3480156104ae57600080fd5b50600b546102ee906001600160a01b031681565b3480156104ce57600080fd5b506103266104dd3660046145e2565b611551565b3480156104ee57600080fd5b506102ee6104fd366004613dae565b611565565b34801561050e57600080fd5b506103f5600d5481565b34801561052457600080fd5b50610538610533366004614605565b61159b565b6040516102a39190614696565b34801561055157600080fd5b506102c16117e3565b34801561056657600080fd5b506103f5610575366004614504565b611871565b34801561058657600080fd5b506103266118e7565b34801561059b57600080fd5b506103f56105aa36600461470f565b6118fc565b3480156105bb57600080fd5b506102ee7f000000000000000000000000000000000000000000000000000000000000000081565b3480156105ef57600080fd5b506102ee611977565b34801561060457600080fd5b506103f56106133660046145ae565b611a64565b34801561062457600080fd5b506102c1611a95565b34801561063957600080fd5b50600a546102ee906001600160a01b031681565b34801561065957600080fd5b50610326610668366004613dae565b611aa4565b34801561067957600080fd5b50610326610688366004614772565b611af2565b34801561069957600080fd5b506106ad6106a83660046145ae565b611b01565b6040516102a3939291906147ab565b3480156106c857600080fd5b506103266106d736600461481d565b611d60565b3480156106e857600080fd5b506102ee7f000000000000000000000000000000000000000000000000000000000000000081565b34801561071c57600080fd5b5061032661072b36600461483f565b611f7d565b34801561073c57600080fd5b5060005461076d906001600160a01b03811690600160a01b81046001600160581b031690600160f81b900460ff1683565b604080516001600160a01b0390941684526001600160581b03909216602084015260ff16908201526060016102a3565b3480156107a957600080fd5b506007546102ee906001600160a01b031681565b3480156107c957600080fd5b506102c16107d8366004613dae565b611fb0565b3480156107e957600080fd5b50600c546102ee906001600160a01b031681565b34801561080957600080fd5b506106ad6108183660046148be565b6121a7565b61032661082b3660046148f9565b61228a565b34801561083c57600080fd5b506102c1612341565b34801561085157600080fd5b50610297610860366004614934565b6001600160a01b03918216600090815260056020908152604080832093909416825291909152205460ff1690565b34801561089a57600080fd5b506103266108a9366004614504565b61234e565b60006001600160e01b03198216632b93cc1760e01b14806108d357506108d38261239a565b92915050565b6060600180546108e890614962565b80601f016020809104026020016040519081016040528092919081815260200182805461091490614962565b80156109615780601f1061093657610100808354040283529160200191610961565b820191906000526020600020905b81548152906001019060200180831161094457829003601f168201915b5050505050905090565b60006109768261242b565b506000908152600460205260409020546001600160a01b031690565b600061099d82611565565b9050806001600160a01b0316836001600160a01b0316036109d15760405163133f8be960e01b815260040160405180910390fd5b336001600160a01b038216148015906109f157506109ef8133610860565b155b15610a0f5760405163e5fa0e3560e01b815260040160405180910390fd5b610a198383612460565b505050565b6009546001600160a01b03163003610a3557600080fd5b600a546001600160a01b031615610a4b57600080fd5b610a578b8b8b8b6124ce565b600b80546001600160a01b03808a166001600160a01b031992831617909255600a80548584169083161790556020850151600d556040850151600e556060850151600c8054919093169116179055855115610aba576010610ab887826149dc565b505b835115610acf576011610acd85826149dc565b505b6001600160a01b03851615610b3a5760405163036129cb60e61b81526001600160a01b03868116600483015283169063d84a72c090602401600060405180830381600087803b158015610b2157600080fd5b505af1158015610b35573d6000803e3d6000fd5b505050505b82515115610bb85782516040516317bef04b60e01b81526001600160a01b038416916317bef04b91610b6f9190600401614a9b565b6000604051808303816000875af1158015610b8e573d6000803e3d6000fd5b505050506040513d6000823e601f3d908101601f19168201604052610bb69190810190614bd3565b505b805180610bc6575080602001515b80610bd2575080604001515b80610bde575080606001515b15610c6457604080516365c13f1960e11b815282511515600482015260208301511515602482015290820151151560448201526060820151151560648201526001600160a01b0383169063cb827e3290608401600060405180830381600087803b158015610c4b57600080fd5b505af1158015610c5f573d6000803e3d6000fd5b505050505b610c6d3361238f565b5050505050505050505050565b60408051606081018252600080546001600160a01b0381168352600160a01b81046001600160581b031660208401819052600160f81b90910460ff169383019390935260169215610d615760208201516040516331a9108f60e11b81526001600160581b0390911660048201527f00000000000000000000000000000000000000000000000000000000000000006001600160a01b031690636352211e90602401602060405180830381865afa158015610d38573d6000803e3d6000fd5b505050506040513d601f19601f82011682018060405250810190610d5c9190614c12565b610d64565b81515b9050610d7e8183602001516001600160581b031685612501565b8815610ddd576010610d918a8c83614c2f565b508989604051610da2929190614cee565b604051908190038120338252907f7bc9110d5de090dd59e07912d2b93a5a27ac70a60c8d8e324db4f9ee8b8b5c139060200160405180910390a25b8615610e3c576011610df0888a83614c2f565b508787604051610e01929190614cee565b604051908190038120338252907fd36dc0c1a06103fdcaf15f3f6fb797d1a97997514c78de073640c8b5005454b89060200160405180910390a25b6001600160a01b0386163014610eea57600a5460405163036129cb60e61b81526001600160a01b0388811660048301529091169063d84a72c090602401600060405180830381600087803b158015610e9357600080fd5b505af1158015610ea7573d6000803e3d6000fd5b50506040513381526001600160a01b03891692507fe7784d93cfbfa4408e19577e6cc0436f4dbb51214b70e100905dfce9def88c16915060200160405180910390a25b8415801590610ef857508315155b15610f9d57600a546040516324de8d6360e11b815260048101879052602481018690526001600160a01b03909116906349bd1ac690604401600060405180830381600087803b158015610f4a57600080fd5b505af1158015610f5e573d6000803e3d6000fd5b5050604080518781523360208201528893507f677da4fed654db8e604791fa2582f342e2001aa217e27f6985eb3e0f67e5a7fc92500160405180910390a25b50505050505050505050565b60408051606081018252600080546001600160a01b0381168352600160a01b81046001600160581b031660208401819052600160f81b90910460ff1693830193909352601592156110905760208201516040516331a9108f60e11b81526001600160581b0390911660048201527f00000000000000000000000000000000000000000000000000000000000000006001600160a01b031690636352211e90602401602060405180830381865afa158015611067573d6000803e3d6000fd5b505050506040513d601f19601f8201168201806040525081019061108b9190614c12565b611093565b81515b90506110ad8183602001516001600160581b031685612501565b8584801561117d57600a546040516320512ba160e01b81526001600160a01b03909116906320512ba1906110e7908a908a90600401614cfe565b600060405180830381600087803b15801561110157600080fd5b505af1158015611115573d6000803e3d6000fd5b5050505060005b8181101561117b5787878281811061113657611136614d37565b60405133815260209182029390930135927f832d89d991be5351d793c20faf4b7dd44f8aa9ce39e3cb160c6317de6fbba72992500160405180910390a260010161111c565b505b811561127d57600a546040516317bef04b60e01b81526000916001600160a01b0316906317bef04b906111b6908d908d90600401614e38565b6000604051808303816000875af11580156111d5573d6000803e3d6000fd5b505050506040513d6000823e601f3d908101601f191682016040526111fd9190810190614bd3565b905060005b83811015610c6d5781818151811061121c5761121c614d37565b60200260200101517fdf1b47c29318a8fbfd42daaa9b635173dadc2314e012e8c516c08855548e8efc8c8c8481811061125757611257614d37565b905061016002013360405161126d929190614e7b565b60405180910390a2600101611202565b505050505050505050565b611292338261267f565b6112af5760405163e5fa0e3560e01b815260040160405180910390fd5b610a198383836126fe565b8060005b8181101561130d5760008484838181106112da576112da614d37565b9050604002018036038101906112f09190614ea3565b905061130481600001518260200151611d60565b506001016112be565b50505050565b341515806113955750600754600654604051636e49181f60e01b815260048101919091523360248201526001600160a01b0390911690636e49181f90604401602060405180830381865afa15801561136f573d6000803e3d6000fd5b505050506040513d601f19601f820116820180604052508101906113939190614efc565b155b806113a65750600654816020013514155b156113c457604051633efca5c360e11b815260040160405180910390fd5b60246113d46101c0830183614f19565b90501080611418575063fbb38e0360e01b6113f36101c0830183614f19565b61140291602491602091614f5f565b61140b91614f89565b6001600160e01b03191614155b1561143657604051632a84050f60e01b815260040160405180910390fd5b60006114466101c0830183614f19565b8101906114539190614fb9565b925050506000815190506000805b828110156114eb5783818151811061147b5761147b614d37565b602002602001015191508460000160208101906114989190614504565b6000838152600360205260409020546001600160a01b039081169116146114da57604051635caf197560e01b8152600481018390526024015b60405180910390fd5b6114e3826127d7565b600101611461565b5061130d83612858565b610a1983838360405180602001604052806000815250611f7d565b6000818152600860205260408120546001600160a01b031680156115345792915050565b50506000908152600360205260409020546001600160a01b031690565b6115596128bd565b611562816129c7565b50565b6000818152600360205260408120546001600160a01b0316806108d35760405163b49aa3b560e01b815260040160405180910390fd5b6040805160608082018352600080546001600160a01b0381168452600160a01b81046001600160581b031660208501819052600160f81b90910460ff169484019490945290926018929190156116875760208201516040516331a9108f60e11b81526001600160581b0390911660048201527f00000000000000000000000000000000000000000000000000000000000000006001600160a01b031690636352211e90602401602060405180830381865afa15801561165e573d6000803e3d6000fd5b505050506040513d601f19601f820116820180604052508101906116829190614c12565b61168a565b81515b90506116a48183602001516001600160581b031685612501565b600a5460405163eaa19ab360e01b81526001600160a01b039091169063eaa19ab3906116dd90600019908b908b90600190600401615011565b6000604051808303816000875af11580156116fc573d6000803e3d6000fd5b505050506040513d6000823e601f3d908101601f19168201604052611724919081019061506e565b509350856000805b828110156117d65786818151811061174657611746614d37565b6020026020010151915061175a8883612a1d565b876001600160a01b03168a8a8381811061177657611776614d37565b905060200201602081019061178b91906150b4565b604080516000815233602082015261ffff929092169185917f598baf7bf150ca2f42be9e9f8f55e81d45f5715c3ff22bf46d697fabec7f31d6910160405180910390a460010161172c565b5050505050509392505050565b601080546117f090614962565b80601f016020809104026020016040519081016040528092919081815260200182805461181c90614962565b80156118695780601f1061183e57610100808354040283529160200191611869565b820191906000526020600020905b81548152906001019060200180831161184c57829003601f168201915b505050505081565b600a54604051633de222bb60e21b81523060048201526001600160a01b038381166024830152600092169063f7888aec906044015b602060405180830381865afa1580156118c3573d6000803e3d6000fd5b505050506040513d601f19601f820116820180604052508101906108d391906150cf565b6118ef6128bd565b6118fa600080612ae7565b565b600a5460405163051330b560e21b81526000916001600160a01b03169063144cc2d49061192f90309087906004016150e8565b602060405180830381865afa15801561194c573d6000803e3d6000fd5b505050506040513d601f19601f8201168201806040525081019061197091906150cf565b9392505050565b60408051606081018252600080546001600160a01b0381168352600160a01b81046001600160581b031660208401819052600160f81b90910460ff16938301939093529182036119c75751919050565b60208101516040516331a9108f60e11b81526001600160581b0390911660048201527f00000000000000000000000000000000000000000000000000000000000000006001600160a01b031690636352211e90602401602060405180830381865afa158015611a3a573d6000803e3d6000fd5b505050506040513d601f19601f82011682018060405250810190611a5e9190614c12565b91505090565b600a54604051631572f24960e11b81523060048201526000916001600160a01b031690632ae5e492906024016118a6565b6060600280546108e890614962565b611aac6128bd565b801580611abf57506001600160581b0381115b15611ae7576040516324abfd1160e11b815260006004820152602481018290526044016114d1565b611562600082612ae7565b611afd338383612d23565b5050565b6000606080608084013515611b29576040516309f82f1b60e31b815260040160405180910390fd5b6024611b396101c0860186614f19565b90501080611b7d575063fbb38e0360e01b611b586101c0860186614f19565b611b6791602491602091614f5f565b611b7091614f89565b6001600160e01b03191614155b15611b9b57604051632a84050f60e01b815260040160405180910390fd5b60408051600180825281830190925290816020015b6040805180820190915260008082526020820152815260200190600190039081611bb05790505090506040518060400160405280306001600160a01b03168152602001600081525081600081518110611c0b57611c0b614d37565b60209081029190910101526000611c266101c0860186614f19565b810190611c339190614fb9565b925050506000611c4382876118fc565b90506000611c5087611a64565b90506000611c638860c001358484612dc2565b905061271088610180013503611cce5780611c826101a08a018a614f19565b8782828080601f016020809104026020016040519081016040528093929190818152602001838380828437600092019190915250969d50919b50919950611d5998505050505050505050565b611d0481611ced85611ce76101808d0135612710615122565b86612dc2565b611cfc906101808c0135615135565b612710612dc2565b611d126101a08a018a614f19565b8782828080601f016020809104026020016040519081016040528093929190818152602001838380828437600092019190915250969d50919b509199505050505050505050505b9193909250565b600b546006546040516321d1336160e11b815260048101919091526000916001600160a01b0316906343a266c29060240161012060405180830381865afa158015611daf573d6000803e3d6000fd5b505050506040513d601f19601f82011682018060405250810190611dd39190615148565b61010081015190915060f51c600190811603611e0257604051631d2c125760e31b815260040160405180910390fd5b600a54604051635d53f40760e11b815260048101859052602481018490526000916001600160a01b03169063baa7e80e906044016000604051808303816000875af1158015611e55573d6000803e3d6000fd5b505050506040513d6000823e601f3d908101601f19168201604052611e7d9190810190614bd3565b600a546040516304db994760e21b8152306004820152602481018790529192506000916001600160a01b039091169063136e651c90604401602060405180830381865afa158015611ed2573d6000803e3d6000fd5b505050506040513d601f19601f82011682018060405250810190611ef69190614c12565b90506000805b85811015611f7457838181518110611f1657611f16614d37565b60200260200101519150611f2a8383612a1d565b6040513381526001600160a01b03841690889084907f031e1988c95a91ec4d655ff63a8f87a80bc9daf28d95ae10ee08c0022cfb5c8b9060200160405180910390a4600101611efc565b50505050505050565b611f87338361267f565b611fa45760405163e5fa0e3560e01b815260040160405180910390fd5b61130d84848484612e8e565b600a54604051630fab094760e01b81523060048201526060916000916001600160a01b0390911690630fab094790602401602060405180830381865afa158015611ffe573d6000803e3d6000fd5b505050506040513d601f19601f820116820180604052508101906120229190614c12565b90506001600160a01b038116156120a057604051636d02a25560e11b8152600481018490526001600160a01b0382169063da0544aa90602401600060405180830381865afa158015612078573d6000803e3d6000fd5b505050506040513d6000823e601f3d908101601f19168201604052611970919081019061520d565b611970601080546120b090614962565b80601f01602080910402602001604051908101604052809291908181526020018280546120dc90614962565b80156121295780601f106120fe57610100808354040283529160200191612129565b820191906000526020600020905b81548152906001019060200180831161210c57829003601f168201915b5050600a54604051630c8df17160e41b8152306004820152602481018a90526001600160a01b03909116935063c8df171092506044019050602060405180830381865afa15801561217e573d6000803e3d6000fd5b505050506040513d601f19601f820116820180604052508101906121a291906150cf565b612ec2565b6101208101356060806121be610160850185614f19565b8080601f016020809104026020016040519081016040528093929190818152602001838380828437600092019190915250929450600192506121fe915050565b60405190808252806020026020018201604052801561224357816020015b604080518082019091526000808252602082015281526020019060019003908161221c5790505b5090506040518060400160405280306001600160a01b0316815260200160008152508160008151811061227857612278614d37565b60200260200101819052509193909250565b6006543415158061230b5750600754604051636e49181f60e01b8152600481018390523360248201526001600160a01b0390911690636e49181f90604401602060405180830381865afa1580156122e5573d6000803e3d6000fd5b505050506040513d601f19601f820116820180604052508101906123099190614efc565b155b8061231a575080826020013514155b15612338576040516331c57b1b60e21b815260040160405180910390fd5b611afd82612f29565b601180546117f090614962565b6123566128bd565b6001600160a01b03811661238f576040516324abfd1160e11b81526001600160a01b0382166004820152600060248201526044016114d1565b611562816000612ae7565b60006001600160e01b0319821663fbb38e0360e01b14806123cb57506001600160e01b031982166371700c6960e01b145b806123e657506001600160e01b0319821663da9ee8b760e01b145b8061240157506001600160e01b03198216632b13c58f60e01b145b8061241c57506001600160e01b0319821663152a902d60e11b145b806108d357506108d3826133da565b6000818152600360205260409020546001600160a01b03166115625760405163b49aa3b560e01b815260040160405180910390fd5b600081815260046020526040902080546001600160a01b0319166001600160a01b038416908117909155819061249582611565565b6001600160a01b03167f8c5be1e5ebec7d5bd14f71427d1e84f3dd0314c0f7b2291e5b200ac8c7c3b92560405160405180910390a45050565b6124d8828261342a565b5050600691909155600780546001600160a01b0319166001600160a01b03909216919091179055565b336001600160a01b03841681148015906125b8575060405163c161c93f60e01b81526001600160a01b038281166004830152858116602483015260448201859052606482018490527f0000000000000000000000000000000000000000000000000000000000000000169063c161c93f90608401602060405180830381865afa158015612592573d6000803e3d6000fd5b505050506040513d601f19601f820116820180604052508101906125b69190614efc565b155b8015612661575060405163c161c93f60e01b81526001600160a01b038281166004830152858116602483015260006044830152606482018490527f0000000000000000000000000000000000000000000000000000000000000000169063c161c93f90608401602060405180830381865afa15801561263b573d6000803e3d6000fd5b505050506040513d601f19601f8201168201806040525081019061265f9190614efc565b155b1561130d5760405163075fd2b160e01b815260040160405180910390fd5b60008061268b83611565565b9050806001600160a01b0316846001600160a01b031614806126d257506001600160a01b0380821660009081526005602090815260408083209388168352929052205460ff165b806126f65750836001600160a01b03166126eb8461096b565b6001600160a01b0316145b949350505050565b826001600160a01b031661271182611565565b6001600160a01b0316146127385760405163a195bc5360e01b815260040160405180910390fd5b6001600160a01b03821661275f57604051632c95542760e01b815260040160405180910390fd5b61276a838383613443565b612775600082612460565b60008181526003602052604080822080546001600160a01b0319166001600160a01b0386811691821790925591518493918716917fddf252ad1be2c89b69c2b068fc378daa952ba7f163c4a11628f55a4df523b3ef91a4610a198383836135df565b60006127e282611565565b90506127f081600084613443565b6127fb600083612460565b60008281526003602052604080822080546001600160a01b0319169055518391906001600160a01b038416907fddf252ad1be2c89b69c2b068fc378daa952ba7f163c4a11628f55a4df523b3ef908390a4611afd816000846135df565b600a546040516386bc2be360e01b81526001600160a01b03909116906386bc2be390612888908490600401614696565b600060405180830381600087803b1580156128a257600080fd5b505af11580156128b6573d6000803e3d6000fd5b5050505050565b60408051606081018252600080546001600160a01b0381168352600160a01b81046001600160581b031660208401819052600160f81b90910460ff16938301939093529091156129a35760208201516040516331a9108f60e11b81526001600160581b0390911660048201527f00000000000000000000000000000000000000000000000000000000000000006001600160a01b031690636352211e90602401602060405180830381865afa15801561297a573d6000803e3d6000fd5b505050506040513d601f19601f8201168201806040525081019061299e9190614c12565b6129a6565b81515b9050611afd8183602001516001600160581b0316846040015160ff16612501565b600080546001600160f81b0316600160f81b60ff8416908102919091179091556040519081527f197cbe84f592e417694036927858418efc958896363c034f9aaa25af88953beb9060200160405180910390a150565b6001600160a01b038216612a4457604051633904578f60e11b815260040160405180910390fd5b6000818152600360205260409020546001600160a01b031615612a7a57604051632eb5f0c360e21b815260040160405180910390fd5b612a8660008383613443565b60008181526003602052604080822080546001600160a01b0319166001600160a01b03861690811790915590518392907fddf252ad1be2c89b69c2b068fc378daa952ba7f163c4a11628f55a4df523b3ef908290a4611afd600083836135df565b6001600160581b03811615801590612b0757506001600160a01b03821615155b15612b3f576040516324abfd1160e11b81526001600160a01b03831660048201526001600160581b03821660248201526044016114d1565b60408051606081018252600080546001600160a01b0381168352600160a01b81046001600160581b031660208401819052600160f81b90910460ff1693830193909352909115612c255760208201516040516331a9108f60e11b81526001600160581b0390911660048201527f00000000000000000000000000000000000000000000000000000000000000006001600160a01b031690636352211e90602401602060405180830381865afa158015612bfc573d6000803e3d6000fd5b505050506040513d601f19601f82011682018060405250810190612c209190614c12565b612c28565b81515b604080516060810182526001600160a01b0387168082526001600160581b0387166020830181905260009290930182905281546001600160f81b03191617600160a01b8302176001600160f81b0316905590915061130d90829015612d1d576040516331a9108f60e11b81526001600160581b03861660048201527f00000000000000000000000000000000000000000000000000000000000000006001600160a01b031690636352211e90602401602060405180830381865afa158015612cf4573d6000803e3d6000fd5b505050506040513d601f19601f82011682018060405250810190612d189190614c12565b6136d6565b856136d6565b816001600160a01b0316836001600160a01b031603612d55576040516306f8139d60e11b815260040160405180910390fd5b6001600160a01b03838116600081815260056020908152604080832094871680845294825291829020805460ff191686151590811790915591519182527f17307eab39ab6107e8899845ad3d59bd9653f200f220920489ca2b5937696c31910160405180910390a3505050565b6000808060001985870985870292508281108382030391505080600003612dfc57838281612df257612df2615241565b0492505050611970565b838110612e2657604051631dcf306360e21b815260048101829052602481018590526044016114d1565b600084868809600260036001881981018916988990049182028318808302840302808302840302808302840302808302840302808302840302918202909203026000889003889004909101858311909403939093029303949094049190911702949350505050565b612e998484846126fe565b612ea58484848461371a565b61130d576040516336f57c1b60e11b815260040160405180910390fd5b604051609160f51b60208201526022810182905260609060009060420160405160208183030381529060405290506000612efb8261381c565b90508481604051602001612f10929190615257565b6040516020818303038152906040529250505092915050565b600d5460009060c083013503612f4457506080810135612ffa565b600c546001600160a01b031615611afd57600e54612ff790608084013590612f6d90600a61536a565b600c54600d54604051635268657960e11b815260c08801356004820152602481019190915260a087013560448201526001600160a01b039091169063a4d0caf290606401602060405180830381865afa158015612fce573d6000803e3d6000fd5b505050506040513d601f19601f82011682018060405250810190612ff291906150cf565b612dc2565b90505b6000600f816130116101a086016101808701614504565b6001600160a01b031681526020810191909152604001600090812054915082906130436101a086016101808701614504565b6001600160a01b03166130596020870187614504565b6001600160a01b0316036130705790820190613073565b50815b600060446130856101e0880188614f19565b90501180156130c9575063fbb38e0360e01b6130a56101e0880188614f19565b6130b491604491604091614f5f565b6130bd91614f89565b6001600160e01b031916145b156131a45760606130de6101e0880188614f19565b8101906130eb9190615376565b9095509350849250508115905061316e5750600a54604051634228826f60e11b81523060048201526001600160a01b039091169063845104de90602401608060405180830381865afa158015613145573d6000803e3d6000fd5b505050506040513d601f19601f820116820180604052508101906131699190615448565b606001515b1561317857600091505b80511561319e5761319b84826131966101a08b016101808c01614504565b6139b4565b93505b5061321c565b600a54604051634228826f60e11b81523060048201526001600160a01b039091169063845104de90602401608060405180830381865afa1580156131ec573d6000803e3d6000fd5b505050506040513d601f19601f820116820180604052508101906132109190615448565b6060015161321c575060015b8215613340578061324057604051631b57826960e21b815260040160405180910390fd5b828201848111156132a85761325d6101a088016101808901614504565b6040513381526001600160a01b0391909116908290878203907f2fb2733fb01b76e3290fa8b695d18e026ddd19c0a265ab90e95152e57da303369060200160405180910390a4613309565b80851115613309576132c26101a088016101808901614504565b6040513381526001600160a01b0391909116908290818803907fe0e7c81cf67a96dd0e39bcf11521b1f4c0098cc1dbe8c30750a11d9ebfc3ed4d9060200160405180910390a45b80600f60006133206101a08b016101808c01614504565b6001600160a01b03168152602081019190915260400160002055506133d2565b8184146133d2576133596101a087016101808801614504565b6001600160a01b03168261336d8187615122565b6040513381527fe0e7c81cf67a96dd0e39bcf11521b1f4c0098cc1dbe8c30750a11d9ebfc3ed4d9060200160405180910390a481600f60006133b76101a08a016101808b01614504565b6001600160a01b031681526020810191909152604001600020555b505050505050565b60006001600160e01b031982166380ac58cd60e01b148061340b57506001600160e01b03198216635b5e139f60e01b145b806108d357506301ffc9a760e01b6001600160e01b03198316146108d3565b600161343683826149dc565b506002610a1982826149dc565b6001600160a01b03831615610a1957600a5460405163c44a8e6d60e01b815230600482015260248101839052600060448201819052916001600160a01b03169063c44a8e6d90606401600060405180830381865afa1580156134a9573d6000803e3d6000fd5b505050506040513d6000823e601f3d908101601f191682016040526134d191908101906154cc565b90508061014001511561359657600b546006546040516321d1336160e11b815260048101919091526000916001600160a01b0316906343a266c29060240161012060405180830381865afa15801561352d573d6000803e3d6000fd5b505050506040513d601f19601f820116820180604052508101906135519190615148565b90506001600160a01b03841615801590613576575061010081015160f41c6001908116145b15613594576040516318cdaf9760e01b815260040160405180910390fd5b505b6000828152600860205260409020546001600160a01b031661130d57600082815260086020526040902080546001600160a01b0319166001600160a01b03861617905550505050565b600a5460405163c44a8e6d60e01b815230600482015260248101839052600060448201819052916001600160a01b03169063c44a8e6d90606401600060405180830381865afa158015613636573d6000803e3d6000fd5b505050506040513d6000823e601f3d908101601f1916820160405261365e91908101906154cc565b600a5481516040516330b157e560e21b815260048101919091526001600160a01b038781166024830152868116604483015292935091169063c2c55f9490606401600060405180830381600087803b1580156136b957600080fd5b505af11580156136cd573d6000803e3d6000fd5b5050505061130d565b806001600160a01b0316826001600160a01b03167f8be0079c531659141344cd1fd0a4f28419497f9722a3daafe3b4186f6b6457e060405160405180910390a35050565b60006001600160a01b0384163b1561381157604051630a85bd0160e11b81526001600160a01b0385169063150b7a029061375e9033908990889088906004016155c4565b6020604051808303816000875af1925050508015613799575060408051601f3d908101601f1916820190925261379691810190615601565b60015b6137f7573d8080156137c7576040519150601f19603f3d011682016040523d82523d6000602084013e6137cc565b606091505b5080516000036137ef576040516336f57c1b60e11b815260040160405180910390fd5b805181602001fd5b6001600160e01b031916630a85bd0160e11b1490506126f6565b506001949350505050565b6060815160000361383b57505060408051600081526020810190915290565b60408051602e8082526105e08201909252600091602082016105c08036833701905050905060008160008151811061387557613875614d37565b60ff90921660209283029190910190910152825160019060005b818110156139905760008682815181106138ab576138ab614d37565b016020015160f81c905060005b8460ff168110156139355760088682815181106138d7576138d7614d37565b602002602001015160ff16901b826138ef9190615135565b91506138fc603a8361561e565b86828151811061390e5761390e614d37565b60ff9092166020928302919091019091015261392b603a83615632565b91506001016138b8565b505b801561398757613948603a8261561e565b858560ff168151811061395d5761395d614d37565b60ff90921660209283029190910190910152600190930192613980603a82615632565b9050613937565b5060010161388f565b506139ab6139a66139a18585613af6565b613b9d565b613c3f565b95945050505050565b600a5460405163eaa19ab360e01b81526000916060916001600160a01b039091169063eaa19ab3906139ee90889088908790600401615646565b6000604051808303816000875af1158015613a0d573d6000803e3d6000fd5b505050506040513d6000823e601f3d908101601f19168201604052613a35919081019061506e565b81519093509091506000805b82811015613aeb57838181518110613a5b57613a5b614d37565b60200260200101519150613a6f8683612a1d565b856001600160a01b0316878281518110613a8b57613a8b614d37565b602002602001015161ffff16837f598baf7bf150ca2f42be9e9f8f55e81d45f5715c3ff22bf46d697fabec7f31d68b33604051613adb9291909182526001600160a01b0316602082015260400190565b60405180910390a4600101613a41565b505050509392505050565b606060008260ff166001600160401b03811115613b1557613b15613e18565b604051908082528060200260200182016040528015613b3e578160200160208202803683370190505b50905060005b8360ff16811015613b9557848181518110613b6157613b61614d37565b6020026020010151828281518110613b7b57613b7b614d37565b60ff90921660209283029190910190910152600101613b44565b509392505050565b80516060906000816001600160401b03811115613bbc57613bbc613e18565b604051908082528060200260200182016040528015613be5578160200160208202803683370190505b50905060005b82811015613b9557848160018751030381518110613c0b57613c0b614d37565b6020026020010151828281518110613c2557613c25614d37565b60ff90921660209283029190910190910152600101613beb565b80516060906000816001600160401b03811115613c5e57613c5e613e18565b6040519080825280601f01601f191660200182016040528015613c88576020820181803683370190505b50905060005b82811015613b95576040518060600160405280603a81526020016156a4603a9139858281518110613cc157613cc1614d37565b602002602001015160ff1681518110613cdc57613cdc614d37565b602001015160f81c60f81b828281518110613cf957613cf9614d37565b60200101906001600160f81b031916908160001a905350600101613c8e565b6001600160e01b03198116811461156257600080fd5b600060208284031215613d4057600080fd5b813561197081613d18565b60005b83811015613d66578181015183820152602001613d4e565b50506000910152565b60008151808452613d87816020860160208601613d4b565b601f01601f19169290920160200192915050565b6020815260006119706020830184613d6f565b600060208284031215613dc057600080fd5b5035919050565b6001600160a01b038116811461156257600080fd5b8035613de781613dc7565b919050565b60008060408385031215613dff57600080fd5b8235613e0a81613dc7565b946020939093013593505050565b634e487b7160e01b600052604160045260246000fd5b604051608081016001600160401b0381118282101715613e5057613e50613e18565b60405290565b60405161016081016001600160401b0381118282101715613e5057613e50613e18565b60405161012081016001600160401b0381118282101715613e5057613e50613e18565b60405161018081016001600160401b0381118282101715613e5057613e50613e18565b604051601f8201601f191681016001600160401b0381118282101715613ee757613ee7613e18565b604052919050565b60006001600160401b03821115613f0857613f08613e18565b50601f01601f191660200190565b6000613f29613f2484613eef565b613ebf565b9050828152838383011115613f3d57600080fd5b828260208301376000602084830101529392505050565b600082601f830112613f6557600080fd5b61197083833560208501613f16565b60006001600160401b03821115613f8d57613f8d613e18565b5060051b60200190565b80356001600160601b0381168114613de757600080fd5b803563ffffffff81168114613de757600080fd5b803561ffff81168114613de757600080fd5b801515811461156257600080fd5b8035613de781613fd4565b6000608080838503121561400057600080fd5b614008613e2e565b915082356001600160401b0381111561402057600080fd5b8301601f8101851361403157600080fd5b80356020614041613f2483613f74565b828152610160928302840182019282820191908985111561406157600080fd5b948301945b848610156141425780868b03121561407e5760008081fd5b614086613e56565b61408f87613f97565b815261409c858801613fae565b8582015260406140ad818901613fae565b9082015260606140be888201613fc2565b908201526140cd878901613ddc565b8189015260a0878101359082015260c06140e8818901613fc2565b9082015260e06140f9888201613fe2565b9082015261010061410b888201613fe2565b9082015261012061411d888201613fe2565b9082015261014061412f888201613fe2565b9082015283529485019491830191614066565b5086525085810135908501525050506040808301359082015261416760608301613ddc565b606082015292915050565b60006080828403121561418457600080fd5b61418c613e2e565b9050813561419981613fd4565b815260208201356141a981613fd4565b602082015260408201356141bc81613fd4565b6040820152606082013561416781613fd4565b60008060008060008060008060008060006101c08c8e0312156141f157600080fd5b8b359a5061420160208d01613ddc565b99506001600160401b038060408e0135111561421c57600080fd5b61422c8e60408f01358f01613f54565b99508060608e0135111561423f57600080fd5b61424f8e60608f01358f01613f54565b985061425d60808e01613ddc565b97508060a08e0135111561427057600080fd5b6142808e60a08f01358f01613f54565b965061428e60c08e01613ddc565b95508060e08e013511156142a157600080fd5b6142b18e60e08f01358f01613f54565b9450806101008e013511156142c557600080fd5b506142d78d6101008e01358e01613fed565b92506142e66101208d01613ddc565b91506142f68d6101408e01614172565b90509295989b509295989b9093969950565b60008083601f84011261431a57600080fd5b5081356001600160401b0381111561433157600080fd5b60208301915083602082850101111561434957600080fd5b9250929050565b600080600080600080600060a0888a03121561436b57600080fd5b87356001600160401b038082111561438257600080fd5b61438e8b838c01614308565b909950975060208a01359150808211156143a757600080fd5b506143b48a828b01614308565b90965094505060408801356143c881613dc7565b969995985093969295946060840135945060809093013592915050565b60008083601f8401126143f757600080fd5b5081356001600160401b0381111561440e57600080fd5b6020830191508360208260051b850101111561434957600080fd5b6000806000806040858703121561443f57600080fd5b84356001600160401b038082111561445657600080fd5b818701915087601f83011261446a57600080fd5b81358181111561447957600080fd5b8860206101608302850101111561448f57600080fd5b6020928301965094509086013590808211156144aa57600080fd5b506144b7878288016143e5565b95989497509550505050565b6000806000606084860312156144d857600080fd5b83356144e381613dc7565b925060208401356144f381613dc7565b929592945050506040919091013590565b60006020828403121561451657600080fd5b813561197081613dc7565b6000806020838503121561453457600080fd5b82356001600160401b038082111561454b57600080fd5b818501915085601f83011261455f57600080fd5b81358181111561456e57600080fd5b8660208260061b850101111561458357600080fd5b60209290920196919550909350505050565b60006101e082840312156145a857600080fd5b50919050565b6000602082840312156145c057600080fd5b81356001600160401b038111156145d657600080fd5b6126f684828501614595565b6000602082840312156145f457600080fd5b813560ff8116811461197057600080fd5b60008060006040848603121561461a57600080fd5b83356001600160401b0381111561463057600080fd5b61463c868287016143e5565b909450925050602084013561465081613dc7565b809150509250925092565b600081518084526020808501945080840160005b8381101561468b5781518752958201959082019060010161466f565b509495945050505050565b602081526000611970602083018461465b565b600082601f8301126146ba57600080fd5b813560206146ca613f2483613f74565b82815260059290921b840181019181810190868411156146e957600080fd5b8286015b8481101561470457803583529183019183016146ed565b509695505050505050565b6000806040838503121561472257600080fd5b82356001600160401b038082111561473957600080fd5b614745868387016146a9565b9350602085013591508082111561475b57600080fd5b5061476885828601614595565b9150509250929050565b6000806040838503121561478557600080fd5b823561479081613dc7565b915060208301356147a081613fd4565b809150509250929050565b838152600060206060818401526147c56060840186613d6f565b83810360408581019190915285518083528387019284019060005b8181101561480e57845180516001600160a01b031684528601518684015293850193918301916001016147e0565b50909998505050505050505050565b6000806040838503121561483057600080fd5b50508035926020909101359150565b6000806000806080858703121561485557600080fd5b843561486081613dc7565b9350602085013561487081613dc7565b92506040850135915060608501356001600160401b0381111561489257600080fd5b8501601f810187136148a357600080fd5b6148b287823560208401613f16565b91505092959194509250565b6000602082840312156148d057600080fd5b81356001600160401b038111156148e657600080fd5b82016101a0818503121561197057600080fd5b60006020828403121561490b57600080fd5b81356001600160401b0381111561492157600080fd5b8201610200818503121561197057600080fd5b6000806040838503121561494757600080fd5b823561495281613dc7565b915060208301356147a081613dc7565b600181811c9082168061497657607f821691505b6020821081036145a857634e487b7160e01b600052602260045260246000fd5b601f821115610a1957600081815260208120601f850160051c810160208610156149bd5750805b601f850160051c820191505b818110156133d2578281556001016149c9565b81516001600160401b038111156149f5576149f5613e18565b614a0981614a038454614962565b84614996565b602080601f831160018114614a3e5760008415614a265750858301515b600019600386901b1c1916600185901b1785556133d2565b600085815260208120601f198616915b82811015614a6d57888601518255948401946001909101908401614a4e565b5085821015614a8b5787850151600019600388901b60f8161c191681555b5050505050600190811b01905550565b602080825282518282018190526000919060409081850190868401855b82811015614b6b57815180516001600160601b031685528681015163ffffffff9081168887015286820151168686015260608082015161ffff908116918701919091526080808301516001600160a01b03169087015260a0808301519087015260c0808301519091169086015260e0808201511515908601526101008082015115159086015261012080820151151590860152610140908101511515908501526101609093019290850190600101614ab8565b5091979650505050505050565b600082601f830112614b8957600080fd5b81516020614b99613f2483613f74565b82815260059290921b84018101918181019086841115614bb857600080fd5b8286015b848110156147045780518352918301918301614bbc565b600060208284031215614be557600080fd5b81516001600160401b03811115614bfb57600080fd5b6126f684828501614b78565b8051613de781613dc7565b600060208284031215614c2457600080fd5b815161197081613dc7565b6001600160401b03831115614c4657614c46613e18565b614c5a83614c548354614962565b83614996565b6000601f841160018114614c8e5760008515614c765750838201355b600019600387901b1c1916600186901b1783556128b6565b600083815260209020601f19861690835b82811015614cbf5786850135825560209485019460019092019101614c9f565b5086821015614cdc5760001960f88860031b161c19848701351681555b505060018560011b0183555050505050565b8183823760009101908152919050565b6020808252810182905260006001600160fb1b03831115614d1e57600080fd5b8260051b80856040850137919091016040019392505050565b634e487b7160e01b600052603260045260246000fd5b614d6782614d5a83613f97565b6001600160601b03169052565b614d7360208201613fae565b63ffffffff166020830152614d8a60408201613fae565b63ffffffff166040830152614da160608201613fc2565b61ffff166060830152614db660808201613ddc565b6001600160a01b0316608083015260a08181013590830152614dda60c08201613fc2565b61ffff1660c0830152614def60e08201613fe2565b151560e0830152610100614e04828201613fe2565b151590830152610120614e18828201613fe2565b151590830152610140614e2c828201613fe2565b8015158483015261130d565b6020808252810182905260008360408301825b85811015614e7157614e5d8284614d4d565b610160928301929190910190600101614e4b565b5095945050505050565b6101808101614e8a8285614d4d565b6001600160a01b03929092166101609190910152919050565b600060408284031215614eb557600080fd5b604051604081018181106001600160401b0382111715614ed757614ed7613e18565b604052823581526020928301359281019290925250919050565b8051613de781613fd4565b600060208284031215614f0e57600080fd5b815161197081613fd4565b6000808335601e19843603018112614f3057600080fd5b8301803591506001600160401b03821115614f4a57600080fd5b60200191503681900382131561434957600080fd5b60008085851115614f6f57600080fd5b83861115614f7c57600080fd5b5050820193919092039150565b6001600160e01b03198135818116916004851015614fb15780818660040360031b1b83161692505b505092915050565b600080600060608486031215614fce57600080fd5b833592506020840135614fe081613d18565b915060408401356001600160401b03811115614ffb57600080fd5b615007868287016146a9565b9150509250925092565b84815260606020808301829052908201849052600090859060808401835b878110156150565761ffff61504385613fc2565b168252928201929082019060010161502f565b50809350505050821515604083015295945050505050565b6000806040838503121561508157600080fd5b82516001600160401b0381111561509757600080fd5b6150a385828601614b78565b925050602083015190509250929050565b6000602082840312156150c657600080fd5b61197082613fc2565b6000602082840312156150e157600080fd5b5051919050565b6001600160a01b03831681526040602082018190526000906126f69083018461465b565b634e487b7160e01b600052601160045260246000fd5b818103818111156108d3576108d361510c565b808201808211156108d3576108d361510c565b6000610120828403121561515b57600080fd5b615163613e79565b825181526020830151602082015260408301516040820152606083015160608201526080830151608082015260a083015160a082015260c083015160c08201526151af60e08401614c07565b60e0820152610100928301519281019290925250919050565b600082601f8301126151d957600080fd5b81516151e7613f2482613eef565b8181528460208386010111156151fc57600080fd5b6126f6826020830160208701613d4b565b60006020828403121561521f57600080fd5b81516001600160401b0381111561523557600080fd5b6126f6848285016151c8565b634e487b7160e01b600052601260045260246000fd5b60008351615269818460208801613d4b565b83519083019061527d818360208801613d4b565b01949350505050565b600181815b808511156152c15781600019048211156152a7576152a761510c565b808516156152b457918102915b93841c939080029061528b565b509250929050565b6000826152d8575060016108d3565b816152e5575060006108d3565b81600181146152fb576002811461530557615321565b60019150506108d3565b60ff8411156153165761531661510c565b50506001821b6108d3565b5060208310610133831016604e8410600b8410161715615344575081810a6108d3565b61534e8383615286565b80600019048211156153625761536261510c565b029392505050565b600061197083836152c9565b600080600080600060a0868803121561538e57600080fd5b85359450602080870135945060408701356153a881613d18565b935060608701356153b881613fd4565b925060808701356001600160401b038111156153d357600080fd5b8701601f810189136153e457600080fd5b80356153f2613f2482613f74565b81815260059190911b8201830190838101908b83111561541157600080fd5b928401925b828410156154365761542784613fc2565b82529284019290840190615416565b80955050505050509295509295909350565b60006080828403121561545a57600080fd5b604051608081018181106001600160401b038211171561547c5761547c613e18565b604052825161548a81613fd4565b8152602083015161549a81613fd4565b602082015260408301516154ad81613fd4565b604082015260608301516154c081613fd4565b60608201529392505050565b6000602082840312156154de57600080fd5b81516001600160401b03808211156154f557600080fd5b90830190610180828603121561550a57600080fd5b615512613e9c565b825181526020830151602082015260408301516040820152606083015160608201526080830151608082015260a083015160a082015261555460c08401614c07565b60c082015260e083015160e082015261010080840151818301525061012061557d818501614ef1565b9082015261014061558f848201614ef1565b9082015261016083810151838111156155a757600080fd5b6155b3888287016151c8565b918301919091525095945050505050565b6001600160a01b03858116825284166020820152604081018390526080606082018190526000906155f790830184613d6f565b9695505050505050565b60006020828403121561561357600080fd5b815161197081613d18565b60008261562d5761562d615241565b500690565b60008261564157615641615241565b500490565b6000606082018583526020606081850152818651808452608086019150828801935060005b8181101561568b57845161ffff168352938301939183019160010161566b565b5050809350505050821515604083015294935050505056fe31323334353637383941424344454647484a4b4c4d4e505152535455565758595a6162636465666768696a6b6d6e6f707172737475767778797aa264697066735822122004057d27b215f81f17c2dda98dc66dcaecb3cfba34f8534ef40f5dd48294217664736f6c63430008110033",
    "linkReferences": {}
  },
  "methodIdentifiers": {
    "adjustTiers((uint96,uint32,uint32,uint16,address,bytes32,uint16,bool,bool,bool,bool)[],uint256[])": "15f2e283",
    "approve(address,uint256)": "095ea7b3",
    "balanceOf(address)": "70a08231",
    "baseURI()": "6c0360eb",
    "codeOrigin()": "1d153ca4",
    "contractURI()": "e8a3d485",
    "creditsOf(address)": "245a45b5",
    "didPay((address,uint256,uint256,(address,uint256,uint256,uint256),(address,uint256,uint256,uint256),uint256,address,bool,string,bytes))": "da9ee8b7",
    "didRedeem((address,uint256,uint256,uint256,(address,uint256,uint256,uint256),(address,uint256,uint256,uint256),address,string,bytes))": "2b13c58f",
    "directory()": "c41c2f24",
    "firstOwnerOf(uint256)": "54c6d1f5",
    "fundingCycleStore()": "557e7155",
    "getApproved(uint256)": "081812fc",
    "initialize(uint256,address,string,string,address,string,address,string,((uint96,uint32,uint32,uint16,address,bytes32,uint16,bool,bool,bool,bool)[],uint256,uint256,address),address,(bool,bool,bool,bool))": "126d89f8",
    "isApprovedForAll(address,address)": "e985e9c5",
    "jbOwner()": "ba23c36e",
    "mintFor(uint16[],address)": "6ac6d941",
    "mintReservesFor((uint256,uint256)[])": "2a596e53",
    "mintReservesFor(uint256,uint256)": "aa4fb15b",
    "name()": "06fdde03",
    "operatorStore()": "ad007d63",
    "owner()": "8da5cb5b",
    "ownerOf(uint256)": "6352211e",
    "payParams((address,address,(address,uint256,uint256,uint256),uint256,uint256,address,uint256,uint256,string,bytes))": "d46cf171",
    "prices()": "d3419bf3",
    "pricingCurrency()": "64640c1e",
    "pricingDecimals()": "4ecba625",
    "projectId()": "3fafa127",
    "projects()": "8b79543c",
    "redeemParams((address,address,uint256,uint256,uint256,uint256,uint256,(address,uint256,uint256,uint256),bool,uint256,string,bytes))": "a51cfd18",
    "redemptionWeightOf(uint256[],(address,address,uint256,uint256,uint256,uint256,uint256,(address,uint256,uint256,uint256),bool,uint256,string,bytes))": "7ba62bf9",
    "renounceOwnership()": "715018a6",
    "safeTransferFrom(address,address,uint256)": "42842e0e",
    "safeTransferFrom(address,address,uint256,bytes)": "b88d4fde",
    "setApprovalForAll(address,bool)": "a22cb465",
    "setMetadata(string,string,address,uint256,bytes32)": "1435aad5",
    "setPermissionIndex(uint8)": "61aec7a9",
    "store()": "975057e7",
    "supportsInterface(bytes4)": "01ffc9a7",
    "symbol()": "95d89b41",
    "tokenURI(uint256)": "c87b56dd",
    "totalRedemptionWeight((address,address,uint256,uint256,uint256,uint256,uint256,(address,uint256,uint256,uint256),bool,uint256,string,bytes))": "9494bf72",
    "transferFrom(address,address,uint256)": "23b872dd",
    "transferOwnership(address)": "f2fde38b",
    "transferOwnershipToProject(uint256)": "a220d696"
  },
  "id": 0
}