{
  "abi": [
    {
      "inputs": [],
      "name": "CANT_MINT_MANUALLY",
      "type": "error"
    },
    {
      "inputs": [],
      "name": "INSUFFICIENT_AMOUNT",
      "type": "error"
    },
    {
      "inputs": [],
      "name": "INSUFFICIENT_RESERVES",
      "type": "error"
    },
    {
      "inputs": [],
      "name": "INVALID_CATEGORY_SORT_ORDER",
      "type": "error"
    },
    {
      "inputs": [],
      "name": "INVALID_QUANTITY",
      "type": "error"
    },
    {
      "inputs": [],
      "name": "INVALID_TIER",
      "type": "error"
    },
    {
      "inputs": [],
      "name": "MANUAL_MINTING_NOT_ALLOWED",
      "type": "error"
    },
    {
      "inputs": [],
      "name": "MAX_TIERS_EXCEEDED",
      "type": "error"
    },
    {
      "inputs": [],
      "name": "NO_QUANTITY",
      "type": "error"
    },
    {
      "inputs": [],
      "name": "OUT",
      "type": "error"
    },
    {
      "inputs": [],
      "name": "RESERVED_RATE_NOT_ALLOWED",
      "type": "error"
    },
    {
      "inputs": [],
      "name": "TIER_REMOVED",
      "type": "error"
    },
    {
      "inputs": [],
      "name": "VOTING_UNITS_NOT_ALLOWED",
      "type": "error"
    },
    {
      "anonymous": false,
      "inputs": [
        {
          "indexed": true,
          "internalType": "address",
          "name": "nft",
          "type": "address"
        },
        {
          "indexed": false,
          "internalType": "address",
          "name": "caller",
          "type": "address"
        }
      ],
      "name": "CleanTiers",
      "type": "event"
    },
    {
      "inputs": [
        {
          "internalType": "address",
          "name": "_nft",
          "type": "address"
        },
        {
          "internalType": "address",
          "name": "_owner",
          "type": "address"
        }
      ],
      "name": "balanceOf",
      "outputs": [
        {
          "internalType": "uint256",
          "name": "balance",
          "type": "uint256"
        }
      ],
      "stateMutability": "view",
      "type": "function"
    },
    {
      "inputs": [
        {
          "internalType": "address",
          "name": "_nft",
          "type": "address"
        }
      ],
      "name": "cleanTiers",
      "outputs": [],
      "stateMutability": "nonpayable",
      "type": "function"
    },
    {
      "inputs": [
        {
          "internalType": "address",
          "name": "",
          "type": "address"
        }
      ],
      "name": "defaultReservedTokenBeneficiaryOf",
      "outputs": [
        {
          "internalType": "address",
          "name": "",
          "type": "address"
        }
      ],
      "stateMutability": "view",
      "type": "function"
    },
    {
      "inputs": [
        {
          "internalType": "address",
          "name": "",
          "type": "address"
        },
        {
          "internalType": "uint256",
          "name": "",
          "type": "uint256"
        }
      ],
      "name": "encodedIPFSUriOf",
      "outputs": [
        {
          "internalType": "bytes32",
          "name": "",
          "type": "bytes32"
        }
      ],
      "stateMutability": "view",
      "type": "function"
    },
    {
      "inputs": [
        {
          "internalType": "address",
          "name": "_nft",
          "type": "address"
        },
        {
          "internalType": "uint256",
          "name": "_tokenId",
          "type": "uint256"
        }
      ],
      "name": "encodedTierIPFSUriOf",
      "outputs": [
        {
          "internalType": "bytes32",
          "name": "",
          "type": "bytes32"
        }
      ],
      "stateMutability": "view",
      "type": "function"
    },
    {
      "inputs": [
        {
          "internalType": "address",
          "name": "_nft",
          "type": "address"
        }
      ],
      "name": "flagsOf",
      "outputs": [
        {
          "components": [
            {
              "internalType": "bool",
              "name": "lockReservedTokenChanges",
              "type": "bool"
            },
            {
              "internalType": "bool",
              "name": "lockVotingUnitChanges",
              "type": "bool"
            },
            {
              "internalType": "bool",
              "name": "lockManualMintingChanges",
              "type": "bool"
            },
            {
              "internalType": "bool",
              "name": "preventOverspending",
              "type": "bool"
            }
          ],
          "internalType": "struct JBTiered721Flags",
          "name": "",
          "type": "tuple"
        }
      ],
      "stateMutability": "view",
      "type": "function"
    },
    {
      "inputs": [
        {
          "internalType": "address",
          "name": "_nft",
          "type": "address"
        },
        {
          "internalType": "uint256",
          "name": "_tierId",
          "type": "uint256"
        }
      ],
      "name": "isTierRemoved",
      "outputs": [
        {
          "internalType": "bool",
          "name": "",
          "type": "bool"
        }
      ],
      "stateMutability": "view",
      "type": "function"
    },
    {
      "inputs": [
        {
          "internalType": "address",
          "name": "",
          "type": "address"
        }
      ],
      "name": "maxTierIdOf",
      "outputs": [
        {
          "internalType": "uint256",
          "name": "",
          "type": "uint256"
        }
      ],
      "stateMutability": "view",
      "type": "function"
    },
    {
      "inputs": [
        {
          "internalType": "address",
          "name": "",
          "type": "address"
        },
        {
          "internalType": "uint256",
          "name": "",
          "type": "uint256"
        }
      ],
      "name": "numberOfBurnedFor",
      "outputs": [
        {
          "internalType": "uint256",
          "name": "",
          "type": "uint256"
        }
      ],
      "stateMutability": "view",
      "type": "function"
    },
    {
      "inputs": [
        {
          "internalType": "address",
          "name": "_nft",
          "type": "address"
        },
        {
          "internalType": "uint256",
          "name": "_tierId",
          "type": "uint256"
        }
      ],
      "name": "numberOfReservedTokensOutstandingFor",
      "outputs": [
        {
          "internalType": "uint256",
          "name": "",
          "type": "uint256"
        }
      ],
      "stateMutability": "view",
      "type": "function"
    },
    {
      "inputs": [
        {
          "internalType": "address",
          "name": "",
          "type": "address"
        },
        {
          "internalType": "uint256",
          "name": "",
          "type": "uint256"
        }
      ],
      "name": "numberOfReservesMintedFor",
      "outputs": [
        {
          "internalType": "uint256",
          "name": "",
          "type": "uint256"
        }
      ],
      "stateMutability": "view",
      "type": "function"
    },
    {
      "inputs": [
        {
          "components": [
            {
              "internalType": "uint104",
              "name": "price",
              "type": "uint104"
            },
            {
              "internalType": "uint32",
              "name": "initialQuantity",
              "type": "uint32"
            },
            {
              "internalType": "uint32",
              "name": "votingUnits",
              "type": "uint32"
            },
            {
              "internalType": "uint16",
              "name": "reservedRate",
              "type": "uint16"
            },
            {
              "internalType": "address",
              "name": "reservedTokenBeneficiary",
              "type": "address"
            },
            {
              "internalType": "bytes32",
              "name": "encodedIPFSUri",
              "type": "bytes32"
            },
            {
              "internalType": "uint24",
              "name": "category",
              "type": "uint24"
            },
            {
              "internalType": "bool",
              "name": "allowManualMint",
              "type": "bool"
            },
            {
              "internalType": "bool",
              "name": "shouldUseReservedTokenBeneficiaryAsDefault",
              "type": "bool"
            },
            {
              "internalType": "bool",
              "name": "transfersPausable",
              "type": "bool"
            },
            {
              "internalType": "bool",
              "name": "useVotingUnits",
              "type": "bool"
            }
          ],
          "internalType": "struct JB721TierParams[]",
          "name": "_tiersToAdd",
          "type": "tuple[]"
        }
      ],
      "name": "recordAddTiers",
      "outputs": [
        {
          "internalType": "uint256[]",
          "name": "tierIds",
          "type": "uint256[]"
        }
      ],
      "stateMutability": "nonpayable",
      "type": "function"
    },
    {
      "inputs": [
        {
          "internalType": "uint256[]",
          "name": "_tokenIds",
          "type": "uint256[]"
        }
      ],
      "name": "recordBurn",
      "outputs": [],
      "stateMutability": "nonpayable",
      "type": "function"
    },
    {
      "inputs": [
        {
          "components": [
            {
              "internalType": "bool",
              "name": "lockReservedTokenChanges",
              "type": "bool"
            },
            {
              "internalType": "bool",
              "name": "lockVotingUnitChanges",
              "type": "bool"
            },
            {
              "internalType": "bool",
              "name": "lockManualMintingChanges",
              "type": "bool"
            },
            {
              "internalType": "bool",
              "name": "preventOverspending",
              "type": "bool"
            }
          ],
          "internalType": "struct JBTiered721Flags",
          "name": "_flags",
          "type": "tuple"
        }
      ],
      "name": "recordFlags",
      "outputs": [],
      "stateMutability": "nonpayable",
      "type": "function"
    },
    {
      "inputs": [
        {
          "internalType": "uint256",
          "name": "_amount",
          "type": "uint256"
        },
        {
          "internalType": "uint16[]",
          "name": "_tierIds",
          "type": "uint16[]"
        },
        {
          "internalType": "bool",
          "name": "_isManualMint",
          "type": "bool"
        }
      ],
      "name": "recordMint",
      "outputs": [
        {
          "internalType": "uint256[]",
          "name": "tokenIds",
          "type": "uint256[]"
        },
        {
          "internalType": "uint256",
          "name": "leftoverAmount",
          "type": "uint256"
        }
      ],
      "stateMutability": "nonpayable",
      "type": "function"
    },
    {
      "inputs": [
        {
          "internalType": "uint256",
          "name": "_tierId",
          "type": "uint256"
        },
        {
          "internalType": "uint256",
          "name": "_count",
          "type": "uint256"
        }
      ],
      "name": "recordMintReservesFor",
      "outputs": [
        {
          "internalType": "uint256[]",
          "name": "tokenIds",
          "type": "uint256[]"
        }
      ],
      "stateMutability": "nonpayable",
      "type": "function"
    },
    {
      "inputs": [
        {
          "internalType": "uint256[]",
          "name": "_tierIds",
          "type": "uint256[]"
        }
      ],
      "name": "recordRemoveTierIds",
      "outputs": [],
      "stateMutability": "nonpayable",
      "type": "function"
    },
    {
      "inputs": [
        {
          "internalType": "uint256",
          "name": "_tierId",
          "type": "uint256"
        },
        {
          "internalType": "bytes32",
          "name": "_encodedIPFSUri",
          "type": "bytes32"
        }
      ],
      "name": "recordSetEncodedIPFSUriOf",
      "outputs": [],
      "stateMutability": "nonpayable",
      "type": "function"
    },
    {
      "inputs": [
        {
          "internalType": "contract IJBTokenUriResolver",
          "name": "_resolver",
          "type": "address"
        }
      ],
      "name": "recordSetTokenUriResolver",
      "outputs": [],
      "stateMutability": "nonpayable",
      "type": "function"
    },
    {
      "inputs": [
        {
          "internalType": "uint256",
          "name": "_tierId",
          "type": "uint256"
        },
        {
          "internalType": "address",
          "name": "_from",
          "type": "address"
        },
        {
          "internalType": "address",
          "name": "_to",
          "type": "address"
        }
      ],
      "name": "recordTransferForTier",
      "outputs": [],
      "stateMutability": "nonpayable",
      "type": "function"
    },
    {
      "inputs": [
        {
          "internalType": "address",
          "name": "_nft",
          "type": "address"
        },
        {
          "internalType": "uint256[]",
          "name": "_tokenIds",
          "type": "uint256[]"
        }
      ],
      "name": "redemptionWeightOf",
      "outputs": [
        {
          "internalType": "uint256",
          "name": "weight",
          "type": "uint256"
        }
      ],
      "stateMutability": "view",
      "type": "function"
    },
    {
      "inputs": [
        {
          "internalType": "address",
          "name": "_nft",
          "type": "address"
        },
        {
          "internalType": "uint256",
          "name": "_tierId",
          "type": "uint256"
        }
      ],
      "name": "reservedTokenBeneficiaryOf",
      "outputs": [
        {
          "internalType": "address",
          "name": "",
          "type": "address"
        }
      ],
      "stateMutability": "view",
      "type": "function"
    },
    {
      "inputs": [
        {
          "internalType": "address",
          "name": "",
          "type": "address"
        },
        {
          "internalType": "address",
          "name": "",
          "type": "address"
        },
        {
          "internalType": "uint256",
          "name": "",
          "type": "uint256"
        }
      ],
      "name": "tierBalanceOf",
      "outputs": [
        {
          "internalType": "uint256",
          "name": "",
          "type": "uint256"
        }
      ],
      "stateMutability": "view",
      "type": "function"
    },
    {
      "inputs": [
        {
          "internalType": "uint256",
          "name": "_tokenId",
          "type": "uint256"
        }
      ],
      "name": "tierIdOfToken",
      "outputs": [
        {
          "internalType": "uint256",
          "name": "",
          "type": "uint256"
        }
      ],
      "stateMutability": "pure",
      "type": "function"
    },
    {
      "inputs": [
        {
          "internalType": "address",
          "name": "_nft",
          "type": "address"
        },
        {
          "internalType": "uint256",
          "name": "_id",
          "type": "uint256"
        }
      ],
      "name": "tierOf",
      "outputs": [
        {
          "components": [
            {
              "internalType": "uint256",
              "name": "id",
              "type": "uint256"
            },
            {
              "internalType": "uint256",
              "name": "price",
              "type": "uint256"
            },
            {
              "internalType": "uint256",
              "name": "remainingQuantity",
              "type": "uint256"
            },
            {
              "internalType": "uint256",
              "name": "initialQuantity",
              "type": "uint256"
            },
            {
              "internalType": "uint256",
              "name": "votingUnits",
              "type": "uint256"
            },
            {
              "internalType": "uint256",
              "name": "reservedRate",
              "type": "uint256"
            },
            {
              "internalType": "address",
              "name": "reservedTokenBeneficiary",
              "type": "address"
            },
            {
              "internalType": "bytes32",
              "name": "encodedIPFSUri",
              "type": "bytes32"
            },
            {
              "internalType": "uint256",
              "name": "category",
              "type": "uint256"
            },
            {
              "internalType": "bool",
              "name": "allowManualMint",
              "type": "bool"
            },
            {
              "internalType": "bool",
              "name": "transfersPausable",
              "type": "bool"
            },
            {
              "internalType": "string",
              "name": "resolvedUri",
              "type": "string"
            }
          ],
          "internalType": "struct JB721Tier",
          "name": "",
          "type": "tuple"
        }
      ],
      "stateMutability": "view",
      "type": "function"
    },
    {
      "inputs": [
        {
          "internalType": "address",
          "name": "_nft",
          "type": "address"
        },
        {
          "internalType": "uint256",
          "name": "_tokenId",
          "type": "uint256"
        }
      ],
      "name": "tierOfTokenId",
      "outputs": [
        {
          "components": [
            {
              "internalType": "uint256",
              "name": "id",
              "type": "uint256"
            },
            {
              "internalType": "uint256",
              "name": "price",
              "type": "uint256"
            },
            {
              "internalType": "uint256",
              "name": "remainingQuantity",
              "type": "uint256"
            },
            {
              "internalType": "uint256",
              "name": "initialQuantity",
              "type": "uint256"
            },
            {
              "internalType": "uint256",
              "name": "votingUnits",
              "type": "uint256"
            },
            {
              "internalType": "uint256",
              "name": "reservedRate",
              "type": "uint256"
            },
            {
              "internalType": "address",
              "name": "reservedTokenBeneficiary",
              "type": "address"
            },
            {
              "internalType": "bytes32",
              "name": "encodedIPFSUri",
              "type": "bytes32"
            },
            {
              "internalType": "uint256",
              "name": "category",
              "type": "uint256"
            },
            {
              "internalType": "bool",
              "name": "allowManualMint",
              "type": "bool"
            },
            {
              "internalType": "bool",
              "name": "transfersPausable",
              "type": "bool"
            },
            {
              "internalType": "string",
              "name": "resolvedUri",
              "type": "string"
            }
          ],
          "internalType": "struct JB721Tier",
          "name": "",
          "type": "tuple"
        }
      ],
      "stateMutability": "view",
      "type": "function"
    },
    {
      "inputs": [
        {
          "internalType": "address",
          "name": "_nft",
          "type": "address"
        },
        {
          "internalType": "address",
          "name": "_account",
          "type": "address"
        },
        {
          "internalType": "uint256",
          "name": "_tierId",
          "type": "uint256"
        }
      ],
      "name": "tierVotingUnitsOf",
      "outputs": [
        {
          "internalType": "uint256",
          "name": "",
          "type": "uint256"
        }
      ],
      "stateMutability": "view",
      "type": "function"
    },
    {
      "inputs": [
        {
          "internalType": "address",
          "name": "_nft",
          "type": "address"
        },
        {
          "internalType": "uint256[]",
          "name": "_categories",
          "type": "uint256[]"
        },
        {
          "internalType": "uint256",
          "name": "_startingId",
          "type": "uint256"
        },
        {
          "internalType": "uint256",
          "name": "_size",
          "type": "uint256"
        }
      ],
      "name": "tiersOf",
      "outputs": [
        {
          "components": [
            {
              "internalType": "uint256",
              "name": "id",
              "type": "uint256"
            },
            {
              "internalType": "uint256",
              "name": "price",
              "type": "uint256"
            },
            {
              "internalType": "uint256",
              "name": "remainingQuantity",
              "type": "uint256"
            },
            {
              "internalType": "uint256",
              "name": "initialQuantity",
              "type": "uint256"
            },
            {
              "internalType": "uint256",
              "name": "votingUnits",
              "type": "uint256"
            },
            {
              "internalType": "uint256",
              "name": "reservedRate",
              "type": "uint256"
            },
            {
              "internalType": "address",
              "name": "reservedTokenBeneficiary",
              "type": "address"
            },
            {
              "internalType": "bytes32",
              "name": "encodedIPFSUri",
              "type": "bytes32"
            },
            {
              "internalType": "uint256",
              "name": "category",
              "type": "uint256"
            },
            {
              "internalType": "bool",
              "name": "allowManualMint",
              "type": "bool"
            },
            {
              "internalType": "bool",
              "name": "transfersPausable",
              "type": "bool"
            },
            {
              "internalType": "string",
              "name": "resolvedUri",
              "type": "string"
            }
          ],
          "internalType": "struct JB721Tier[]",
          "name": "_tiers",
          "type": "tuple[]"
        }
      ],
      "stateMutability": "view",
      "type": "function"
    },
    {
      "inputs": [
        {
          "internalType": "address",
          "name": "",
          "type": "address"
        }
      ],
      "name": "tokenUriResolverOf",
      "outputs": [
        {
          "internalType": "contract IJBTokenUriResolver",
          "name": "",
          "type": "address"
        }
      ],
      "stateMutability": "view",
      "type": "function"
    },
    {
      "inputs": [
        {
          "internalType": "address",
          "name": "_nft",
          "type": "address"
        }
      ],
      "name": "totalRedemptionWeight",
      "outputs": [
        {
          "internalType": "uint256",
          "name": "weight",
          "type": "uint256"
        }
      ],
      "stateMutability": "view",
      "type": "function"
    },
    {
      "inputs": [
        {
          "internalType": "address",
          "name": "_nft",
          "type": "address"
        }
      ],
      "name": "totalSupply",
      "outputs": [
        {
          "internalType": "uint256",
          "name": "supply",
          "type": "uint256"
        }
      ],
      "stateMutability": "view",
      "type": "function"
    },
    {
      "inputs": [
        {
          "internalType": "address",
          "name": "_nft",
          "type": "address"
        },
        {
          "internalType": "address",
          "name": "_account",
          "type": "address"
        }
      ],
      "name": "votingUnitsOf",
      "outputs": [
        {
          "internalType": "uint256",
          "name": "units",
          "type": "uint256"
        }
      ],
      "stateMutability": "view",
      "type": "function"
    }
  ],
  "bytecode": {
    "object": "0x608060405234801561001057600080fd5b50613689806100206000396000f3fe608060405234801561001057600080fd5b50600436106101f05760003560e01c8063845104de1161010f578063c2c55f94116100a2578063e4dc2aa411610071578063e4dc2aa414610600578063eaa19ab314610613578063f1bea54f14610634578063f7888aec1461065457600080fd5b8063c2c55f941461058a578063c8df17101461059d578063cb827e32146105b0578063d84a72c0146105c357600080fd5b806393355578116100de5780639335557814610526578063b67cb04714610539578063baa7e80e1461054c578063bd51923c1461055f57600080fd5b8063845104de146103fa57806386bc2be3146104ca5780638da5e32b146104dd578063911c80b5146104fd57600080fd5b806335314b921161018757806349bd1ac61161015657806349bd1ac61461035f5780635aff62001461038c5780635f646611146103ac5780636825bb80146103cf57600080fd5b806335314b92146102e857806337f44652146102fb5780634223f60e1461032c57806342f9914b1461034c57600080fd5b806320512ba1116101c357806320512ba1146102845780632ae5e492146102975780632b7e6ef0146102aa5780632e4d0ea8146102d557600080fd5b8063086bb19a146101f55780630fab09471461020a578063136e651c14610250578063144cc2d414610263575b600080fd5b610208610203366004612c62565b610667565b005b610233610218366004612c62565b600c602052600090815260409020546001600160a01b031681565b6040516001600160a01b0390911681526020015b60405180910390f35b61023361025e366004612c7f565b6107fc565b610276610271366004612cf6565b610855565b604051908152602001610247565b610208610292366004612d4a565b6108d3565b6102766102a5366004612c62565b610928565b6102766102b8366004612c7f565b600a60209081526000928352604080842090915290825290205481565b6102766102e3366004612d8b565b610a8f565b6102766102f6366004612c7f565b610b17565b610276610309366004612d8b565b600860209081526000938452604080852082529284528284209052825290205481565b61033f61033a366004612c7f565b610bec565b6040516102479190612ec4565b61027661035a366004612ed7565b610e82565b61020861036d366004612ef0565b336000908152600d602090815260408083209483529390529190912055565b61039f61039a366004612f81565b610e92565b6040516102479190613049565b6103bf6103ba366004612c7f565b61132d565b6040519015158152602001610247565b6102766103dd366004612c7f565b600960209081526000928352604080842090915290825290205481565b61048f610408366004612c62565b604080516080810182526000808252602082018190529181018290526060810191909152506001600160a01b03166000908152600360209081526040918290208251608081018452905460ff808216151583526101008204811615159383019390935262010000810483161515938201939093526301000000909204161515606082015290565b604051610247919081511515815260208083015115159082015260408083015115159082015260609182015115159181019190915260800190565b6102086104d8366004612d4a565b611365565b6104f06104eb3660046130ab565b611426565b604051610247919061315b565b61023361050b366004612c62565b600b602052600090815260409020546001600160a01b031681565b61027661053436600461316e565b611ca3565b61033f610547366004612c7f565b611e1c565b6104f061055a366004612ef0565b6120c0565b61027661056d366004612c7f565b600d60209081526000928352604080842090915290825290205481565b6102086105983660046131a7565b6122ea565b6102766105ab366004612c7f565b61237e565b6102086105be3660046131e9565b6123b7565b6102086105d1366004612c62565b336000908152600c6020526040902080546001600160a01b0319166001600160a01b0392909216919091179055565b61027661060e366004612c62565b6123d2565b61062661062136600461321a565b612458565b604051610247929190613278565b610276610642366004612c62565b60076020526000908152604090205481565b61027661066236600461316e565b6127b9565b600061067282612825565b90506000610681836000612866565b6001600160a01b03841660009081526004602052604081209192509081906106a990846128cd565b90505b82156107b7576106bc8184612913565b156106e6576001600160a01b03851660009081526004602052604090206106e390846128cd565b90505b6106f0818461292d565b6107a5576106ff8260016132b0565b8314610757576001600160a01b0385166000908152602081815260408083208584529091529020548314610752576001600160a01b03851660009081526020818152604080832085845290915290208390555b6107a1565b6001600160a01b038516600090815260208181526040808320858452909152902054156107a1576001600160a01b0385166000908152602081815260408083208584529091528120555b8291505b6107b085848661294c565b92506106ac565b6040513381526001600160a01b038616907f4a0f854ce3c180d56f3e9eb47eb064c595bf3de0ab9af45425291e5b1bb733a89060200160405180910390a25050505050565b6001600160a01b038083166000908152600160209081526040808320858452909152812054909116801561083157905061084f565b50506001600160a01b038083166000908152600b6020526040902054165b92915050565b600081815b818110156108ca576001600160a01b03861660009081526002602052604081209061089c878785818110610890576108906132c3565b90506020020135610e82565b81526020810191909152604001600020546108c0906001600160681b0316846132b0565b925060010161085a565b50509392505050565b806000805b82811015610921578484828181106108f2576108f26132c3565b33600090815260046020908152604090912091029290920135935061091991905083612997565b6001016108d8565b5050505050565b6001600160a01b038116600090815260076020526040812054610949612b26565b60005b82811015610a87576001600160a01b0385166000908152600260209081526040808320600180860185529083529281902081516101208101835281546001600160681b038116825263ffffffff600160681b8204811695830195909552600160881b81049094169281019290925264ffffffffff600160a81b840416606083015262ffffff600160d01b840416608083015261ffff600160e81b84041660a083015260ff600160f81b9093048316151560c0830152830154808316151560e0830152610100908190049092161515918101919091529250610a3a908690610a349084906132b0565b846129d0565b82602001518360400151610a4e91906132d9565b63ffffffff16610a5e91906132b0565b8251610a7391906001600160681b03166132fd565b610a7d90856132b0565b935060010161094c565b505050919050565b6001600160a01b0380841660009081526008602090815260408083209386168352928152828220848352905290812054808203610ad0576000915050610b10565b6001600160a01b0385166000908152600260209081526040808320868452909152902054610b0c90600160a81b900464ffffffffff16826132fd565b9150505b9392505050565b6001600160a01b0382166000908152600260209081526040808320848452825280832081516101208101835281546001600160681b038116825263ffffffff600160681b8204811695830195909552600160881b81049094169281019290925264ffffffffff600160a81b840416606083015262ffffff600160d01b840416608083015261ffff600160e81b84041660a083015260ff600160f81b9093048316151560c083015260010154808316151560e083015261010090819004909216151591810191909152610b1090849084906129d0565b610bf4612b72565b6001600160a01b0383166000908152600260209081526040808320858452825280832081516101208101835281546001600160681b038116825263ffffffff600160681b8204811695830195909552600160881b81049094169281019290925264ffffffffff600160a81b840416606083015262ffffff600160d01b840416608083015261ffff600160e81b84041660a083015260ff600160f81b9093048316151560c083015260010154808316151560e08301526101009081900490921615159181019190915290610cc785856107fc565b905060405180610180016040528085815260200183600001516001600160681b03168152602001836020015163ffffffff168152602001836040015163ffffffff168152602001836101000151610d1f578351610d2c565b836060015164ffffffffff165b6001600160681b031681526020016001600160a01b03831615610d53578360a00151610d56565b60005b61ffff1681526001600160a01b038084166020808401919091528882166000818152600d835260408082208b8352845280822054818701526080808a015162ffffff16606088015260c0808b015115159188019190915260e08a0151151560a0880152928252600c90935291909120549201911615610e66576001600160a01b038088166000908152600c60205260408120549091169063da0544aa90610dfe908990612b0b565b6040518263ffffffff1660e01b8152600401610e1c91815260200190565b600060405180830381865afa158015610e39573d6000803e3d6000fd5b505050506040513d6000823e601f3d908101601f19168201604052610e619190810190613314565b610e77565b604051806020016040528060008152505b905295945050505050565b600061084f633b9aca00836133bd565b6060816001600160401b03811115610eac57610eac612f12565b604051908082528060200260200182016040528015610ee557816020015b610ed2612b72565b815260200190600190039081610eca5790505b5090506000610ef2612b26565b60005b865115610f03578651610f06565b60015b8110156113175782851461131757600086600003610f5657610f51898951600014610f4a57898481518110610f3d57610f3d6132c3565b6020026020010151612866565b6000612866565b610f58565b865b6001600160a01b038a16600090815260046020526040812091925090610f7e90836128cd565b90505b8115801590610f8f57508685105b1561130d57610f9e8183612913565b15610fc8576001600160a01b038a166000908152600460205260409020610fc590836128cd565b90505b610fd2818361292d565b6112f3576001600160a01b038a16600090815260026020908152604080832085845282529182902082516101208101845281546001600160681b038116825263ffffffff600160681b8204811694830194909452600160881b81049093169381019390935264ffffffffff600160a81b830416606084015262ffffff600160d01b830416608084015261ffff600160e81b83041660a084015260ff600160f81b9092048216151560c084015260010154808216151560e0840152610100908190049091161515908201528951909450158015906110d057508883815181106110bc576110bc6132c3565b6020026020010151846080015162ffffff16115b61130d5760006110e08b846107fc565b905089516000148061111357508984815181106110ff576110ff6132c3565b6020026020010151856080015162ffffff16145b156112f15760405180610180016040528084815260200186600001516001600160681b03168152602001866020015163ffffffff168152602001866040015163ffffffff16815260200186610100015161116e57865161117b565b866060015164ffffffffff165b6001600160681b031681526020016001600160a01b038316156111a2578660a001516111a5565b60005b61ffff1681526001600160a01b038084166020808401919091528e82166000818152600d835260408082208a8352845280822054818701526080808d015162ffffff16606088015260c0808e015115159188019190915260e08d0151151560a0880152928252600c909352919091205492019116156112b5576001600160a01b03808e166000908152600c60205260408120549091169063da0544aa9061124d908890612b0b565b6040518263ffffffff1660e01b815260040161126b91815260200190565b600060405180830381865afa158015611288573d6000803e3d6000fd5b505050506040513d6000823e601f3d908101601f191682016040526112b09190810190613314565b6112c6565b604051806020016040528060008152505b905287876112d3816133d1565b9850815181106112e5576112e56132c3565b60200260200101819052505b505b6113068a836113018d612825565b61294c565b9150610f81565b5050600101610ef5565b50838214611323578183525b5050949350505050565b6001600160a01b0382166000908152600460205260408120819061135190846128cd565b905061135d818461292d565b949350505050565b806000805b8281101561092157848482818110611384576113846132c3565b905060200201359150600061139883610e82565b336000908152600a6020908152604080832084845290915281208054929350906113c1836133d1565b909155505033600090815260026020908152604080832084845290915290208054600160681b900463ffffffff1690600d6113fb836133ea565b91906101000a81548163ffffffff021916908363ffffffff160217905550508160010191505061136a565b33600090815260076020526040902054606090829061ffff61144883836132b0565b111561146757604051631bc68c8b60e11b815260040160405180910390fd5b600061147233612825565b9050826001600160401b0381111561148c5761148c612f12565b6040519080825280602002602001820160405280156114b5578160200160208202803683370190505b509350600082156114d0576114cb336000612866565b6114d3565b60005b905060006114df612be3565b3360009081526003602090815260408083208151608081018352905460ff80821615158352610100820481161515948301949094526201000081048416151592820192909252630100000090910490911615156060820152905b87811015611c7a578a8a82818110611553576115536132c3565b9050610160020180360381019061156a919061345d565b925061157b6001633b9aca00613530565b836020015163ffffffff1611156115a5576040516349016ea360e01b815260040160405180910390fd5b6115ad612be3565b811561161b578b8b6115c0600185613530565b8181106115cf576115cf6132c3565b905061016002018036038101906115e6919061345d565b90508060c0015162ffffff168460c0015162ffffff16101561161b57604051631cabebd560e21b815260040160405180910390fd5b826020015180156116355750604084015163ffffffff1615155b1561165357604051630189200360e11b815260040160405180910390fd5b82518061166157508360e001515b80156116745750606084015161ffff1615155b156116925760405163a75b1cd560e01b815260040160405180910390fd5b826040015180156116a457508360e001515b156116c2576040516330ec637f60e01b815260040160405180910390fd5b836020015163ffffffff166000036116ed57604051631e0a863160e31b815260040160405180910390fd5b60006116f9838a6132b0565b6117049060016132b0565b905060405180610120016040528086600001516001600160681b03168152602001866020015163ffffffff168152602001866020015163ffffffff168152602001866040015163ffffffff1664ffffffffff1681526020018660c0015162ffffff168152602001866060015161ffff1681526020018660e001511515815260200186610120015115158152602001866101400151151581525060026000336001600160a01b03166001600160a01b03168152602001908152602001600020600083815260200190815260200160002060008201518160000160006101000a8154816001600160681b0302191690836001600160681b03160217905550602082015181600001600d6101000a81548163ffffffff021916908363ffffffff16021790555060408201518160000160116101000a81548163ffffffff021916908363ffffffff16021790555060608201518160000160156101000a81548164ffffffffff021916908364ffffffffff160217905550608082015181600001601a6101000a81548162ffffff021916908362ffffff16021790555060a082015181600001601d6101000a81548161ffff021916908361ffff16021790555060c082015181600001601f6101000a81548160ff02191690831515021790555060e08201518160010160006101000a81548160ff0219169083151502179055506101008201518160010160016101000a81548160ff0219169083151502179055509050508460c0015162ffffff168260c0015162ffffff161415801561194d575060c085015162ffffff1615155b156119795733600090815260066020908152604080832060c089015162ffffff16845290915290208190555b60808501516001600160a01b031615611a3257846101000151156119f5576080850151336000908152600b60205260409020546001600160a01b039081169116146119f0576080850151336000908152600b6020526040902080546001600160a01b0319166001600160a01b039092169190911790555b611a32565b6080850151336000908152600160209081526040808320858452909152902080546001600160a01b0319166001600160a01b039092169190911790555b60a085015115611a5d5760a0850151336000908152600d602090815260408083208584529091529020555b8615611c5257336000908152600460205260408120889190611a7f90836128cd565b905060005b8215611c4e57611a948284612913565b15611ab557336000908152600460205260409020611ab290846128cd565b91505b611ac033848d61294c565b33600090815260026020908152604080832087845290915290205460c08a015191925062ffffff600160d01b9091048116911611801590611b0157508b8311155b15611bd457611b118460016132b0565b8314611b33573360009081526020818152604080832087845290915290208390555b336000908152600560205260409020548b14611b5c573360009081526005602052604090208b90555b611b67600185613530565b89141580611b8c5750336000908152602081815260408083208c845290915290205415155b15611bc557611b9c600185613530565b8914611ba85783611bab565b60005b336000908152602081815260408083208d84529091529020555b82995083985060009250611a84565b801580611be057508b81115b15611c4557611bf08360016132b0565b8414611c12573360009081526020818152604080832086845290915290208490555b33600090815260056020526040812054949a508a9490935015611c4057336000908152600560205260408120555b611a84565b91975081611a84565b5050505b808b8481518110611c6557611c656132c3565b60209081029190910101525050600101611539565b50611c8587876132b0565b33600090815260076020526040902055509598975050505050505050565b6001600160a01b03821660009081526007602052604081205481611cc5612b26565b825b8015611e12576001600160a01b038088166000908152600860209081526040808320938a1683529281528282208483529052205492508215611dcc576001600160a01b038716600090815260026020908152604080832084845282529182902082516101208101845281546001600160681b038116825263ffffffff600160681b8204811694830194909452600160881b81049093169381019390935264ffffffffff600160a81b830416606084015262ffffff600160d01b830416608084015261ffff600160e81b83041660a084015260ff600160f81b9092048216151560c084015260010154808216151560e08401526101009081900490911615159082015291505b816101000151611ddd578151611dea565b816060015164ffffffffff165b611dfd906001600160681b0316846132fd565b611e0790866132b0565b945060001901611cc7565b5050505092915050565b611e24612b72565b6000611e2f83610e82565b6001600160a01b0385166000908152600260209081526040808320848452825280832081516101208101835281546001600160681b038116825263ffffffff600160681b8204811695830195909552600160881b81049094169281019290925264ffffffffff600160a81b840416606083015262ffffff600160d01b840416608083015261ffff600160e81b84041660a083015260ff600160f81b9093048316151560c083015260010154808316151560e083015261010090819004909216151591810191909152919250611f0486846107fc565b905060405180610180016040528084815260200183600001516001600160681b03168152602001836020015163ffffffff168152602001836040015163ffffffff168152602001836101000151611f5c578351611f69565b836060015164ffffffffff165b6001600160681b031681526020016001600160a01b03831615611f90578360a00151611f93565b60005b61ffff1681526001600160a01b038084166020808401919091528982166000818152600d835260408082208a8352845280822054818701526080808a015162ffffff16606088015260c0808b015115159188019190915260e08a0151151560a0880152928252600c909352919091205492019116156120a3576001600160a01b038089166000908152600c60205260408120549091169063da0544aa9061203b908890612b0b565b6040518263ffffffff1660e01b815260040161205991815260200190565b600060405180830381865afa158015612076573d6000803e3d6000fd5b505050506040513d6000823e601f3d908101601f1916820160405261209e9190810190613314565b6120b4565b604051806020016040528060008152505b90529695505050505050565b336000818152600260209081526040808320868452825280832081516101208101835281546001600160681b0381168252600160681b810463ffffffff90811695830195909552600160881b810490941692810192909252600160a81b830464ffffffffff16606080840191909152600160d01b840462ffffff166080840152600160e81b840461ffff1660a0840152600160f81b90930460ff908116151560c08401526001820154808216151560e08501526101009081900490911615159083015291939192916121939187906129d0565b9050808411156121b65760405163226f999960e11b815260040160405180910390fd5b336000908152600960209081526040808320888452909152812080548692906121e09084906132b0565b909155508490506001600160401b038111156121fe576121fe612f12565b604051908082528060200260200182016040528015612227578160200160208202803683370190505b50336000908152600a602090815260408083208984529091528120549194505b85811015611e12576122c5878386600001600d81819054906101000a900463ffffffff1661227490613543565b91906101000a81548163ffffffff021916908363ffffffff16021790558760000160119054906101000a900463ffffffff166122b091906132d9565b63ffffffff166122c091906132b0565b612b0b565b8582815181106122d7576122d76132c3565b6020908102919091010152600101612247565b6001600160a01b03821615612337573360009081526008602090815260408083206001600160a01b038616845282528083208684529091528120805490919061233290613563565b909155505b6001600160a01b03811615612379573360009081526008602090815260408083206001600160a01b038516845282528083208684529091529020805460010190555b505050565b6001600160a01b0382166000908152600d60205260408120816123a084610e82565b815260200190815260200160002054905092915050565b33600090815260036020526040902081906123798282613587565b6001600160a01b0381166000908152600760205260408120548190805b8015610a87576001600160a01b03851660009081526002602090815260408083208484529091529020805490935061243d9063ffffffff600160681b8204811691600160881b9004166132d9565b61244d9063ffffffff16856132b0565b9350600019016123ef565b60608483600080826001600160401b0381111561247757612477612f12565b6040519080825280602002602001820160405280156124a0578160200160208202803683370190505b50945060006124e9898960008181106124bb576124bb6132c3565b90506020020160208101906124d09190613624565b3360009081526004602052604090209061ffff166128cd565b905060005b848110156127ab57898982818110612508576125086132c3565b905060200201602081019061251d9190613624565b61ffff16925061252d8284612913565b1561254e5733600090815260046020526040902061254b90846128cd565b91505b612558828461292d565b156125765760405163d32cb5c160e01b815260040160405180910390fd5b336000908152600260209081526040808320868452909152902093508780156125a857508354600160f81b900460ff16155b156125c657604051632f792d3960e11b815260040160405180910390fd5b8354600160881b900463ffffffff166000036125f557604051630de5859f60e01b815260040160405180910390fd5b83546001600160681b031686101561262057604051632cd294cf60e01b815260040160405180910390fd5b604080516101208101825285546001600160681b0381168252600160681b810463ffffffff9081166020840152600160881b82041692820192909252600160a81b820464ffffffffff166060820152600160d01b820462ffffff166080820152600160e81b820461ffff1660a0820152600160f81b90910460ff908116151560c08301526001860154808216151560e0840152610100908190049091161515908201526126d090339085906129d0565b84546126e99190600160681b900463ffffffff16613530565b6000036127095760405163985a45d960e01b815260040160405180910390fd5b336000908152600a60209081526040808320868452909152902054845460001963ffffffff600160681b808404821692830182160263ffffffff60681b199093169290921780885561276f938793600160881b9092048216929092036001011601612b0b565b878281518110612781576127816132c3565b602090810291909101015283546127a1906001600160681b031687613530565b95506001016124ee565b505050505094509492505050565b6001600160a01b038216600090815260076020526040812054805b801561281d576001600160a01b03808616600090815260086020908152604080832093881683529281528282208483529052205461281290846132b0565b9250600019016127d4565b505092915050565b6001600160a01b0381166000908152600560205260408120549081900361286157506001600160a01b0381166000908152600760205260409020545b919050565b60008115612897576001600160a01b03831660009081526006602090815260408083208584529091529020546128ba565b6001600160a01b0383166000908152602081815260408083208380529091529020545b90508060000361084f5750600192915050565b604080518082019091526000808252602082015260006128ed8360081c90565b604080518082018252600083815260209788529190912054815294850152509192915050565b600082602001516129248360081c90565b14159392505050565b600061293b6101008361363f565b83516001911c811614905092915050565b600081830361295d57506000610b10565b6001600160a01b038416600090815260208181526040808320868452909152902054801561298c579050610b10565b610b0c8460016132b0565b60006129a38260081c90565b90506129b16101008361363f565b6000918252602093909352604090208054600190931b90921790915550565b60008160a0015161ffff16600014806129fc5750816020015163ffffffff16826040015163ffffffff16145b80612a1957506000612a0e85856107fc565b6001600160a01b0316145b15612a2657506000610b10565b6001600160a01b0384166000908152600960209081526040808320868452825291829020549084015191840151909163ffffffff90811691612a6a91849116613530565b03612a79576000915050610b10565b60008184602001518560400151612a9091906132d9565b63ffffffff16612aa09190613530565b905060008460a0015161ffff1682612ab891906133bd565b905060008560a0015161ffff1683612ad0919061363f565b1115612ae257612adf816133d1565b90505b80831115612af65760009350505050610b10565b612b008382613530565b979650505050505050565b600081612b1c633b9aca00856132fd565b610b1091906132b0565b6040805161012081018252600080825260208201819052918101829052606081018290526080810182905260a0810182905260c0810182905260e0810182905261010081019190915290565b60405180610180016040528060008152602001600081526020016000815260200160008152602001600081526020016000815260200160006001600160a01b031681526020016000801916815260200160008152602001600015158152602001600015158152602001606081525090565b6040805161016081018252600080825260208201819052918101829052606081018290526080810182905260a0810182905260c0810182905260e081018290526101008101829052610120810182905261014081019190915290565b6001600160a01b0381168114612c5457600080fd5b50565b803561286181612c3f565b600060208284031215612c7457600080fd5b8135610b1081612c3f565b60008060408385031215612c9257600080fd5b8235612c9d81612c3f565b946020939093013593505050565b60008083601f840112612cbd57600080fd5b5081356001600160401b03811115612cd457600080fd5b6020830191508360208260051b8501011115612cef57600080fd5b9250929050565b600080600060408486031215612d0b57600080fd5b8335612d1681612c3f565b925060208401356001600160401b03811115612d3157600080fd5b612d3d86828701612cab565b9497909650939450505050565b60008060208385031215612d5d57600080fd5b82356001600160401b03811115612d7357600080fd5b612d7f85828601612cab565b90969095509350505050565b600080600060608486031215612da057600080fd5b8335612dab81612c3f565b92506020840135612dbb81612c3f565b929592945050506040919091013590565b60005b83811015612de7578181015183820152602001612dcf565b50506000910152565b60008151808452612e08816020860160208601612dcc565b601f01601f19169290920160200192915050565b6000610180825184526020830151602085015260408301516040850152606083015160608501526080830151608085015260a083015160a085015260c0830151612e7160c08601826001600160a01b03169052565b5060e083810151908501526101008084015190850152610120808401511515908501526101408084015115159085015261016080840151818601839052612eba83870182612df0565b9695505050505050565b602081526000610b106020830184612e1c565b600060208284031215612ee957600080fd5b5035919050565b60008060408385031215612f0357600080fd5b50508035926020909101359150565b634e487b7160e01b600052604160045260246000fd5b60405161016081016001600160401b0381118282101715612f4b57612f4b612f12565b60405290565b604051601f8201601f191681016001600160401b0381118282101715612f7957612f79612f12565b604052919050565b60008060008060808587031215612f9757600080fd5b8435612fa281612c3f565b93506020858101356001600160401b0380821115612fbf57600080fd5b818801915088601f830112612fd357600080fd5b813581811115612fe557612fe5612f12565b8060051b9150612ff6848301612f51565b818152918301840191848101908b84111561301057600080fd5b938501935b8385101561302e57843582529385019390850190613015565b989b989a505050506040870135966060013595945050505050565b6000602080830181845280855180835260408601915060408160051b870101925083870160005b8281101561309e57603f1988860301845261308c858351612e1c565b94509285019290850190600101613070565b5092979650505050505050565b600080602083850312156130be57600080fd5b82356001600160401b03808211156130d557600080fd5b818501915085601f8301126130e957600080fd5b8135818111156130f857600080fd5b8660206101608302850101111561310e57600080fd5b60209290920196919550909350505050565b600081518084526020808501945080840160005b8381101561315057815187529582019590820190600101613134565b509495945050505050565b602081526000610b106020830184613120565b6000806040838503121561318157600080fd5b823561318c81612c3f565b9150602083013561319c81612c3f565b809150509250929050565b6000806000606084860312156131bc57600080fd5b8335925060208401356131ce81612c3f565b915060408401356131de81612c3f565b809150509250925092565b6000608082840312156131fb57600080fd5b50919050565b8015158114612c5457600080fd5b803561286181613201565b6000806000806060858703121561323057600080fd5b8435935060208501356001600160401b0381111561324d57600080fd5b61325987828801612cab565b909450925050604085013561326d81613201565b939692955090935050565b60408152600061328b6040830185613120565b90508260208301529392505050565b634e487b7160e01b600052601160045260246000fd5b8082018082111561084f5761084f61329a565b634e487b7160e01b600052603260045260246000fd5b63ffffffff8281168282160390808211156132f6576132f661329a565b5092915050565b808202811582820484141761084f5761084f61329a565b60006020828403121561332657600080fd5b81516001600160401b038082111561333d57600080fd5b818401915084601f83011261335157600080fd5b81518181111561336357613363612f12565b613376601f8201601f1916602001612f51565b915080825285602082850101111561338d57600080fd5b61339e816020840160208601612dcc565b50949350505050565b634e487b7160e01b600052601260045260246000fd5b6000826133cc576133cc6133a7565b500490565b6000600182016133e3576133e361329a565b5060010190565b600063ffffffff8083168181036134035761340361329a565b6001019392505050565b80356001600160681b038116811461286157600080fd5b803563ffffffff8116811461286157600080fd5b803561ffff8116811461286157600080fd5b803562ffffff8116811461286157600080fd5b6000610160828403121561347057600080fd5b613478612f28565b6134818361340d565b815261348f60208401613424565b60208201526134a060408401613424565b60408201526134b160608401613438565b60608201526134c260808401612c57565b608082015260a083013560a08201526134dd60c0840161344a565b60c08201526134ee60e0840161320f565b60e082015261010061350181850161320f565b9082015261012061351384820161320f565b9082015261014061352584820161320f565b908201529392505050565b8181038181111561084f5761084f61329a565b600063ffffffff8216806135595761355961329a565b6000190192915050565b6000816135725761357261329a565b506000190190565b6000813561084f81613201565b813561359281613201565b815460ff19811691151560ff16918217835560208401356135b281613201565b61ff0090151560081b1661ffff19821683178117845560408501356135d681613201565b62ff000081151560101b168462ffffff198516178317178555505050506136206136026060840161357a565b82805463ff000000191691151560181b63ff00000016919091179055565b5050565b60006020828403121561363657600080fd5b610b1082613438565b60008261364e5761364e6133a7565b50069056fea2646970667358221220799840abc4e8726a50e6d15528e04269b1e7d5d629e405f28ea39741c060b3c764736f6c63430008110033",
    "linkReferences": {}
  },
  "methodIdentifiers": {
    "balanceOf(address,address)": "f7888aec",
    "cleanTiers(address)": "086bb19a",
    "defaultReservedTokenBeneficiaryOf(address)": "911c80b5",
    "encodedIPFSUriOf(address,uint256)": "bd51923c",
    "encodedTierIPFSUriOf(address,uint256)": "c8df1710",
    "flagsOf(address)": "845104de",
    "isTierRemoved(address,uint256)": "5f646611",
    "maxTierIdOf(address)": "f1bea54f",
    "numberOfBurnedFor(address,uint256)": "2b7e6ef0",
    "numberOfReservedTokensOutstandingFor(address,uint256)": "35314b92",
    "numberOfReservesMintedFor(address,uint256)": "6825bb80",
    "recordAddTiers((uint104,uint32,uint32,uint16,address,bytes32,uint24,bool,bool,bool,bool)[])": "8da5e32b",
    "recordBurn(uint256[])": "86bc2be3",
    "recordFlags((bool,bool,bool,bool))": "cb827e32",
    "recordMint(uint256,uint16[],bool)": "eaa19ab3",
    "recordMintReservesFor(uint256,uint256)": "baa7e80e",
    "recordRemoveTierIds(uint256[])": "20512ba1",
    "recordSetEncodedIPFSUriOf(uint256,bytes32)": "49bd1ac6",
    "recordSetTokenUriResolver(address)": "d84a72c0",
    "recordTransferForTier(uint256,address,address)": "c2c55f94",
    "redemptionWeightOf(address,uint256[])": "144cc2d4",
    "reservedTokenBeneficiaryOf(address,uint256)": "136e651c",
    "tierBalanceOf(address,address,uint256)": "37f44652",
    "tierIdOfToken(uint256)": "42f9914b",
    "tierOf(address,uint256)": "4223f60e",
    "tierOfTokenId(address,uint256)": "b67cb047",
    "tierVotingUnitsOf(address,address,uint256)": "2e4d0ea8",
    "tiersOf(address,uint256[],uint256,uint256)": "5aff6200",
    "tokenUriResolverOf(address)": "0fab0947",
    "totalRedemptionWeight(address)": "2ae5e492",
    "totalSupply(address)": "e4dc2aa4",
    "votingUnitsOf(address,address)": "93355578"
  },
  "id": 3
}