{
  "abi": [
    {
      "inputs": [],
      "name": "CANT_MINT_MANUALLY",
      "type": "error"
    },
    {
      "inputs": [],
      "name": "INSUFFICIENT_AMOUNT",
      "type": "error"
    },
    {
      "inputs": [],
      "name": "INSUFFICIENT_RESERVES",
      "type": "error"
    },
    {
      "inputs": [],
      "name": "INVALID_CATEGORY_SORT_ORDER",
      "type": "error"
    },
    {
      "inputs": [],
      "name": "INVALID_QUANTITY",
      "type": "error"
    },
    {
      "inputs": [],
      "name": "INVALID_TIER",
      "type": "error"
    },
    {
      "inputs": [],
      "name": "MANUAL_MINTING_NOT_ALLOWED",
      "type": "error"
    },
    {
      "inputs": [],
      "name": "MAX_TIERS_EXCEEDED",
      "type": "error"
    },
    {
      "inputs": [],
      "name": "NO_QUANTITY",
      "type": "error"
    },
    {
      "inputs": [],
      "name": "OUT",
      "type": "error"
    },
    {
      "inputs": [],
      "name": "RESERVED_RATE_NOT_ALLOWED",
      "type": "error"
    },
    {
      "inputs": [],
      "name": "TIER_REMOVED",
      "type": "error"
    },
    {
      "inputs": [],
      "name": "VOTING_UNITS_NOT_ALLOWED",
      "type": "error"
    },
    {
      "anonymous": false,
      "inputs": [
        {
          "indexed": true,
          "internalType": "address",
          "name": "nft",
          "type": "address"
        },
        {
          "indexed": false,
          "internalType": "address",
          "name": "caller",
          "type": "address"
        }
      ],
      "name": "CleanTiers",
      "type": "event"
    },
    {
      "inputs": [
        {
          "internalType": "address",
          "name": "_nft",
          "type": "address"
        },
        {
          "internalType": "address",
          "name": "_owner",
          "type": "address"
        }
      ],
      "name": "balanceOf",
      "outputs": [
        {
          "internalType": "uint256",
          "name": "balance",
          "type": "uint256"
        }
      ],
      "stateMutability": "view",
      "type": "function"
    },
    {
      "inputs": [
        {
          "internalType": "address",
          "name": "_nft",
          "type": "address"
        }
      ],
      "name": "cleanTiers",
      "outputs": [],
      "stateMutability": "nonpayable",
      "type": "function"
    },
    {
      "inputs": [
        {
          "internalType": "address",
          "name": "",
          "type": "address"
        }
      ],
      "name": "defaultReservedTokenBeneficiaryOf",
      "outputs": [
        {
          "internalType": "address",
          "name": "",
          "type": "address"
        }
      ],
      "stateMutability": "view",
      "type": "function"
    },
    {
      "inputs": [
        {
          "internalType": "address",
          "name": "",
          "type": "address"
        },
        {
          "internalType": "uint256",
          "name": "",
          "type": "uint256"
        }
      ],
      "name": "encodedIPFSUriOf",
      "outputs": [
        {
          "internalType": "bytes32",
          "name": "",
          "type": "bytes32"
        }
      ],
      "stateMutability": "view",
      "type": "function"
    },
    {
      "inputs": [
        {
          "internalType": "address",
          "name": "_nft",
          "type": "address"
        },
        {
          "internalType": "uint256",
          "name": "_tokenId",
          "type": "uint256"
        }
      ],
      "name": "encodedTierIPFSUriOf",
      "outputs": [
        {
          "internalType": "bytes32",
          "name": "",
          "type": "bytes32"
        }
      ],
      "stateMutability": "view",
      "type": "function"
    },
    {
      "inputs": [
        {
          "internalType": "address",
          "name": "_nft",
          "type": "address"
        }
      ],
      "name": "flagsOf",
      "outputs": [
        {
          "components": [
            {
              "internalType": "bool",
              "name": "lockReservedTokenChanges",
              "type": "bool"
            },
            {
              "internalType": "bool",
              "name": "lockVotingUnitChanges",
              "type": "bool"
            },
            {
              "internalType": "bool",
              "name": "lockManualMintingChanges",
              "type": "bool"
            },
            {
              "internalType": "bool",
              "name": "preventOverspending",
              "type": "bool"
            }
          ],
          "internalType": "struct JBTiered721Flags",
          "name": "",
          "type": "tuple"
        }
      ],
      "stateMutability": "view",
      "type": "function"
    },
    {
      "inputs": [
        {
          "internalType": "address",
          "name": "_nft",
          "type": "address"
        },
        {
          "internalType": "uint256",
          "name": "_tierId",
          "type": "uint256"
        }
      ],
      "name": "isTierRemoved",
      "outputs": [
        {
          "internalType": "bool",
          "name": "",
          "type": "bool"
        }
      ],
      "stateMutability": "view",
      "type": "function"
    },
    {
      "inputs": [
        {
          "internalType": "address",
          "name": "",
          "type": "address"
        }
      ],
      "name": "maxTierIdOf",
      "outputs": [
        {
          "internalType": "uint256",
          "name": "",
          "type": "uint256"
        }
      ],
      "stateMutability": "view",
      "type": "function"
    },
    {
      "inputs": [
        {
          "internalType": "address",
          "name": "",
          "type": "address"
        },
        {
          "internalType": "uint256",
          "name": "",
          "type": "uint256"
        }
      ],
      "name": "numberOfBurnedFor",
      "outputs": [
        {
          "internalType": "uint256",
          "name": "",
          "type": "uint256"
        }
      ],
      "stateMutability": "view",
      "type": "function"
    },
    {
      "inputs": [
        {
          "internalType": "address",
          "name": "_nft",
          "type": "address"
        },
        {
          "internalType": "uint256",
          "name": "_tierId",
          "type": "uint256"
        }
      ],
      "name": "numberOfReservedTokensOutstandingFor",
      "outputs": [
        {
          "internalType": "uint256",
          "name": "",
          "type": "uint256"
        }
      ],
      "stateMutability": "view",
      "type": "function"
    },
    {
      "inputs": [
        {
          "internalType": "address",
          "name": "",
          "type": "address"
        },
        {
          "internalType": "uint256",
          "name": "",
          "type": "uint256"
        }
      ],
      "name": "numberOfReservesMintedFor",
      "outputs": [
        {
          "internalType": "uint256",
          "name": "",
          "type": "uint256"
        }
      ],
      "stateMutability": "view",
      "type": "function"
    },
    {
      "inputs": [
        {
          "components": [
            {
              "internalType": "uint104",
              "name": "price",
              "type": "uint104"
            },
            {
              "internalType": "uint32",
              "name": "initialQuantity",
              "type": "uint32"
            },
            {
              "internalType": "uint32",
              "name": "votingUnits",
              "type": "uint32"
            },
            {
              "internalType": "uint16",
              "name": "reservedRate",
              "type": "uint16"
            },
            {
              "internalType": "address",
              "name": "reservedTokenBeneficiary",
              "type": "address"
            },
            {
              "internalType": "bytes32",
              "name": "encodedIPFSUri",
              "type": "bytes32"
            },
            {
              "internalType": "uint24",
              "name": "category",
              "type": "uint24"
            },
            {
              "internalType": "bool",
              "name": "allowManualMint",
              "type": "bool"
            },
            {
              "internalType": "bool",
              "name": "shouldUseReservedTokenBeneficiaryAsDefault",
              "type": "bool"
            },
            {
              "internalType": "bool",
              "name": "transfersPausable",
              "type": "bool"
            },
            {
              "internalType": "bool",
              "name": "useVotingUnits",
              "type": "bool"
            }
          ],
          "internalType": "struct JB721TierParams[]",
          "name": "_tiersToAdd",
          "type": "tuple[]"
        }
      ],
      "name": "recordAddTiers",
      "outputs": [
        {
          "internalType": "uint256[]",
          "name": "tierIds",
          "type": "uint256[]"
        }
      ],
      "stateMutability": "nonpayable",
      "type": "function"
    },
    {
      "inputs": [
        {
          "internalType": "uint256[]",
          "name": "_tokenIds",
          "type": "uint256[]"
        }
      ],
      "name": "recordBurn",
      "outputs": [],
      "stateMutability": "nonpayable",
      "type": "function"
    },
    {
      "inputs": [
        {
          "components": [
            {
              "internalType": "bool",
              "name": "lockReservedTokenChanges",
              "type": "bool"
            },
            {
              "internalType": "bool",
              "name": "lockVotingUnitChanges",
              "type": "bool"
            },
            {
              "internalType": "bool",
              "name": "lockManualMintingChanges",
              "type": "bool"
            },
            {
              "internalType": "bool",
              "name": "preventOverspending",
              "type": "bool"
            }
          ],
          "internalType": "struct JBTiered721Flags",
          "name": "_flags",
          "type": "tuple"
        }
      ],
      "name": "recordFlags",
      "outputs": [],
      "stateMutability": "nonpayable",
      "type": "function"
    },
    {
      "inputs": [
        {
          "internalType": "uint256",
          "name": "_amount",
          "type": "uint256"
        },
        {
          "internalType": "uint16[]",
          "name": "_tierIds",
          "type": "uint16[]"
        },
        {
          "internalType": "bool",
          "name": "_isManualMint",
          "type": "bool"
        }
      ],
      "name": "recordMint",
      "outputs": [
        {
          "internalType": "uint256[]",
          "name": "tokenIds",
          "type": "uint256[]"
        },
        {
          "internalType": "uint256",
          "name": "leftoverAmount",
          "type": "uint256"
        }
      ],
      "stateMutability": "nonpayable",
      "type": "function"
    },
    {
      "inputs": [
        {
          "internalType": "uint256",
          "name": "_tierId",
          "type": "uint256"
        },
        {
          "internalType": "uint256",
          "name": "_count",
          "type": "uint256"
        }
      ],
      "name": "recordMintReservesFor",
      "outputs": [
        {
          "internalType": "uint256[]",
          "name": "tokenIds",
          "type": "uint256[]"
        }
      ],
      "stateMutability": "nonpayable",
      "type": "function"
    },
    {
      "inputs": [
        {
          "internalType": "uint256[]",
          "name": "_tierIds",
          "type": "uint256[]"
        }
      ],
      "name": "recordRemoveTierIds",
      "outputs": [],
      "stateMutability": "nonpayable",
      "type": "function"
    },
    {
      "inputs": [
        {
          "internalType": "uint256",
          "name": "_tierId",
          "type": "uint256"
        },
        {
          "internalType": "bytes32",
          "name": "_encodedIPFSUri",
          "type": "bytes32"
        }
      ],
      "name": "recordSetEncodedIPFSUriOf",
      "outputs": [],
      "stateMutability": "nonpayable",
      "type": "function"
    },
    {
      "inputs": [
        {
          "internalType": "contract IJB721TokenUriResolver",
          "name": "_resolver",
          "type": "address"
        }
      ],
      "name": "recordSetTokenUriResolver",
      "outputs": [],
      "stateMutability": "nonpayable",
      "type": "function"
    },
    {
      "inputs": [
        {
          "internalType": "uint256",
          "name": "_tierId",
          "type": "uint256"
        },
        {
          "internalType": "address",
          "name": "_from",
          "type": "address"
        },
        {
          "internalType": "address",
          "name": "_to",
          "type": "address"
        }
      ],
      "name": "recordTransferForTier",
      "outputs": [],
      "stateMutability": "nonpayable",
      "type": "function"
    },
    {
      "inputs": [
        {
          "internalType": "address",
          "name": "_nft",
          "type": "address"
        },
        {
          "internalType": "uint256[]",
          "name": "_tokenIds",
          "type": "uint256[]"
        }
      ],
      "name": "redemptionWeightOf",
      "outputs": [
        {
          "internalType": "uint256",
          "name": "weight",
          "type": "uint256"
        }
      ],
      "stateMutability": "view",
      "type": "function"
    },
    {
      "inputs": [
        {
          "internalType": "address",
          "name": "_nft",
          "type": "address"
        },
        {
          "internalType": "uint256",
          "name": "_tierId",
          "type": "uint256"
        }
      ],
      "name": "reservedTokenBeneficiaryOf",
      "outputs": [
        {
          "internalType": "address",
          "name": "",
          "type": "address"
        }
      ],
      "stateMutability": "view",
      "type": "function"
    },
    {
      "inputs": [
        {
          "internalType": "address",
          "name": "",
          "type": "address"
        },
        {
          "internalType": "address",
          "name": "",
          "type": "address"
        },
        {
          "internalType": "uint256",
          "name": "",
          "type": "uint256"
        }
      ],
      "name": "tierBalanceOf",
      "outputs": [
        {
          "internalType": "uint256",
          "name": "",
          "type": "uint256"
        }
      ],
      "stateMutability": "view",
      "type": "function"
    },
    {
      "inputs": [
        {
          "internalType": "uint256",
          "name": "_tokenId",
          "type": "uint256"
        }
      ],
      "name": "tierIdOfToken",
      "outputs": [
        {
          "internalType": "uint256",
          "name": "",
          "type": "uint256"
        }
      ],
      "stateMutability": "pure",
      "type": "function"
    },
    {
      "inputs": [
        {
          "internalType": "address",
          "name": "_nft",
          "type": "address"
        },
        {
          "internalType": "uint256",
          "name": "_id",
          "type": "uint256"
        },
        {
          "internalType": "bool",
          "name": "_includeResolvedUri",
          "type": "bool"
        }
      ],
      "name": "tierOf",
      "outputs": [
        {
          "components": [
            {
              "internalType": "uint256",
              "name": "id",
              "type": "uint256"
            },
            {
              "internalType": "uint256",
              "name": "price",
              "type": "uint256"
            },
            {
              "internalType": "uint256",
              "name": "remainingQuantity",
              "type": "uint256"
            },
            {
              "internalType": "uint256",
              "name": "initialQuantity",
              "type": "uint256"
            },
            {
              "internalType": "uint256",
              "name": "votingUnits",
              "type": "uint256"
            },
            {
              "internalType": "uint256",
              "name": "reservedRate",
              "type": "uint256"
            },
            {
              "internalType": "address",
              "name": "reservedTokenBeneficiary",
              "type": "address"
            },
            {
              "internalType": "bytes32",
              "name": "encodedIPFSUri",
              "type": "bytes32"
            },
            {
              "internalType": "uint256",
              "name": "category",
              "type": "uint256"
            },
            {
              "internalType": "bool",
              "name": "allowManualMint",
              "type": "bool"
            },
            {
              "internalType": "bool",
              "name": "transfersPausable",
              "type": "bool"
            },
            {
              "internalType": "string",
              "name": "resolvedUri",
              "type": "string"
            }
          ],
          "internalType": "struct JB721Tier",
          "name": "",
          "type": "tuple"
        }
      ],
      "stateMutability": "view",
      "type": "function"
    },
    {
      "inputs": [
        {
          "internalType": "address",
          "name": "_nft",
          "type": "address"
        },
        {
          "internalType": "uint256",
          "name": "_tokenId",
          "type": "uint256"
        },
        {
          "internalType": "bool",
          "name": "_includeResolvedUri",
          "type": "bool"
        }
      ],
      "name": "tierOfTokenId",
      "outputs": [
        {
          "components": [
            {
              "internalType": "uint256",
              "name": "id",
              "type": "uint256"
            },
            {
              "internalType": "uint256",
              "name": "price",
              "type": "uint256"
            },
            {
              "internalType": "uint256",
              "name": "remainingQuantity",
              "type": "uint256"
            },
            {
              "internalType": "uint256",
              "name": "initialQuantity",
              "type": "uint256"
            },
            {
              "internalType": "uint256",
              "name": "votingUnits",
              "type": "uint256"
            },
            {
              "internalType": "uint256",
              "name": "reservedRate",
              "type": "uint256"
            },
            {
              "internalType": "address",
              "name": "reservedTokenBeneficiary",
              "type": "address"
            },
            {
              "internalType": "bytes32",
              "name": "encodedIPFSUri",
              "type": "bytes32"
            },
            {
              "internalType": "uint256",
              "name": "category",
              "type": "uint256"
            },
            {
              "internalType": "bool",
              "name": "allowManualMint",
              "type": "bool"
            },
            {
              "internalType": "bool",
              "name": "transfersPausable",
              "type": "bool"
            },
            {
              "internalType": "string",
              "name": "resolvedUri",
              "type": "string"
            }
          ],
          "internalType": "struct JB721Tier",
          "name": "",
          "type": "tuple"
        }
      ],
      "stateMutability": "view",
      "type": "function"
    },
    {
      "inputs": [
        {
          "internalType": "address",
          "name": "_nft",
          "type": "address"
        },
        {
          "internalType": "address",
          "name": "_account",
          "type": "address"
        },
        {
          "internalType": "uint256",
          "name": "_tierId",
          "type": "uint256"
        }
      ],
      "name": "tierVotingUnitsOf",
      "outputs": [
        {
          "internalType": "uint256",
          "name": "",
          "type": "uint256"
        }
      ],
      "stateMutability": "view",
      "type": "function"
    },
    {
      "inputs": [
        {
          "internalType": "address",
          "name": "_nft",
          "type": "address"
        },
        {
          "internalType": "uint256[]",
          "name": "_categories",
          "type": "uint256[]"
        },
        {
          "internalType": "bool",
          "name": "_includeResolvedUri",
          "type": "bool"
        },
        {
          "internalType": "uint256",
          "name": "_startingId",
          "type": "uint256"
        },
        {
          "internalType": "uint256",
          "name": "_size",
          "type": "uint256"
        }
      ],
      "name": "tiersOf",
      "outputs": [
        {
          "components": [
            {
              "internalType": "uint256",
              "name": "id",
              "type": "uint256"
            },
            {
              "internalType": "uint256",
              "name": "price",
              "type": "uint256"
            },
            {
              "internalType": "uint256",
              "name": "remainingQuantity",
              "type": "uint256"
            },
            {
              "internalType": "uint256",
              "name": "initialQuantity",
              "type": "uint256"
            },
            {
              "internalType": "uint256",
              "name": "votingUnits",
              "type": "uint256"
            },
            {
              "internalType": "uint256",
              "name": "reservedRate",
              "type": "uint256"
            },
            {
              "internalType": "address",
              "name": "reservedTokenBeneficiary",
              "type": "address"
            },
            {
              "internalType": "bytes32",
              "name": "encodedIPFSUri",
              "type": "bytes32"
            },
            {
              "internalType": "uint256",
              "name": "category",
              "type": "uint256"
            },
            {
              "internalType": "bool",
              "name": "allowManualMint",
              "type": "bool"
            },
            {
              "internalType": "bool",
              "name": "transfersPausable",
              "type": "bool"
            },
            {
              "internalType": "string",
              "name": "resolvedUri",
              "type": "string"
            }
          ],
          "internalType": "struct JB721Tier[]",
          "name": "_tiers",
          "type": "tuple[]"
        }
      ],
      "stateMutability": "view",
      "type": "function"
    },
    {
      "inputs": [
        {
          "internalType": "address",
          "name": "",
          "type": "address"
        }
      ],
      "name": "tokenUriResolverOf",
      "outputs": [
        {
          "internalType": "contract IJB721TokenUriResolver",
          "name": "",
          "type": "address"
        }
      ],
      "stateMutability": "view",
      "type": "function"
    },
    {
      "inputs": [
        {
          "internalType": "address",
          "name": "_nft",
          "type": "address"
        }
      ],
      "name": "totalRedemptionWeight",
      "outputs": [
        {
          "internalType": "uint256",
          "name": "weight",
          "type": "uint256"
        }
      ],
      "stateMutability": "view",
      "type": "function"
    },
    {
      "inputs": [
        {
          "internalType": "address",
          "name": "_nft",
          "type": "address"
        }
      ],
      "name": "totalSupplyOf",
      "outputs": [
        {
          "internalType": "uint256",
          "name": "supply",
          "type": "uint256"
        }
      ],
      "stateMutability": "view",
      "type": "function"
    },
    {
      "inputs": [
        {
          "internalType": "address",
          "name": "_nft",
          "type": "address"
        },
        {
          "internalType": "address",
          "name": "_account",
          "type": "address"
        }
      ],
      "name": "votingUnitsOf",
      "outputs": [
        {
          "internalType": "uint256",
          "name": "units",
          "type": "uint256"
        }
      ],
      "stateMutability": "view",
      "type": "function"
    }
  ],
  "bytecode": {
    "object": "0x608060405234801561001057600080fd5b5061315e806100206000396000f3fe608060405234801561001057600080fd5b50600436106101f05760003560e01c806386bc2be31161010f578063c44a8e6d116100a2578063d84a72c011610071578063d84a72c0146105d6578063eaa19ab314610613578063f1bea54f14610634578063f7888aec1461065457600080fd5b8063c44a8e6d1461058a578063c8df17101461059d578063cb827e32146105b0578063cf9530d0146105c357600080fd5b80639403a74f116100de5780639403a74f14610519578063baa7e80e14610539578063bd51923c1461054c578063c2c55f941461057757600080fd5b806386bc2be3146104aa5780638da5e32b146104bd578063911c80b5146104dd578063933555781461050657600080fd5b806335314b92116101875780635f646611116101565780635f6466111461036c57806364faa1591461038f5780636825bb80146103af578063845104de146103da57600080fd5b806335314b92146102e857806337f44652146102fb57806342f9914b1461032c57806349bd1ac61461033f57600080fd5b806320512ba1116101c357806320512ba1146102845780632ae5e492146102975780632b7e6ef0146102aa5780632e4d0ea8146102d557600080fd5b8063086bb19a146101f55780630fab09471461020a578063136e651c14610250578063144cc2d414610263575b600080fd5b61020861020336600461275e565b610667565b005b61023361021836600461275e565b600c602052600090815260409020546001600160a01b031681565b6040516001600160a01b0390911681526020015b60405180910390f35b61023361025e36600461277b565b6107bf565b6102766102713660046127f3565b610818565b604051908152602001610247565b610208610292366004612848565b610896565b6102766102a536600461275e565b6108eb565b6102766102b836600461277b565b600a60209081526000928352604080842090915290825290205481565b6102766102e336600461288a565b610a2f565b6102766102f636600461277b565b610ab7565b61027661030936600461288a565b600860209081526000938452604080852082529284528284209052825290205481565b61027661033a3660046128cb565b610b68565b61020861034d3660046128e4565b336000908152600d602090815260408083209483529390529190912055565b61037f61037a36600461277b565b610b78565b6040519015158152602001610247565b6103a261039d36600461291f565b610bb0565b6040516102479190612a59565b6102766103bd36600461277b565b600960209081526000928352604080842090915290825290205481565b61046f6103e836600461275e565b604080516080810182526000808252602082018190529181018290526060810191909152506001600160a01b03166000908152600360209081526040918290208251608081018452905460ff808216151583526101008204811615159383019390935262010000810483161515938201939093526301000000909204161515606082015290565b604051610247919081511515815260208083015115159082015260408083015115159082015260609182015115159181019190915260800190565b6102086104b8366004612848565b610c6a565b6104d06104cb366004612a6c565b610d2b565b6040516102479190612b1d565b6102336104eb36600461275e565b600b602052600090815260409020546001600160a01b031681565b610276610514366004612b30565b611508565b61052c610527366004612b69565b61167f565b6040516102479190612be3565b6104d06105473660046128e4565b6118e8565b61027661055a36600461277b565b600d60209081526000928352604080842090915290825290205481565b610208610585366004612c45565b611aef565b6103a261059836600461291f565b611b83565b6102766105ab36600461277b565b611c4b565b6102086105be366004612c7c565b611c84565b6102766105d136600461275e565b611c9f565b6102086105e436600461275e565b336000908152600c6020526040902080546001600160a01b0319166001600160a01b0392909216919091179055565b610626610621366004612c94565b611d90565b604051610247929190612cf3565b61027661064236600461275e565b60076020526000908152604090205481565b610276610662366004612b30565b612076565b6000610672826120e2565b90506000610681836000612123565b905060006106a2604051806040016040528060008152602001600081525090565b821561077a576106b385848361218a565b610768576106c2826001612d2b565b831461071a576001600160a01b0385166000908152602081815260408083208584529091529020548314610715576001600160a01b03851660009081526020818152604080832085845290915290208390555b610764565b6001600160a01b03851660009081526020818152604080832085845290915290205415610764576001600160a01b0385166000908152602081815260408083208584529091528120555b8291505b6107738584866121e1565b92506106a2565b6040513381526001600160a01b038616907f4a0f854ce3c180d56f3e9eb47eb064c595bf3de0ab9af45425291e5b1bb733a89060200160405180910390a25050505050565b6001600160a01b03808316600090815260016020908152604080832085845290915281205490911680156107f4579050610812565b50506001600160a01b038083166000908152600b6020526040902054165b92915050565b600081815b8181101561088d576001600160a01b03861660009081526002602052604081209061085f87878581811061085357610853612d3e565b90506020020135610b68565b8152602081019190915260400160002054610883906001600160681b031684612d2b565b925060010161081d565b50509392505050565b806000805b828110156108e4578484828181106108b5576108b5612d3e565b3360009081526004602090815260409091209102929092013593506108dc9190508361222c565b60010161089b565b5050505050565b6001600160a01b03811660009081526007602052604081205461090c612632565b60005b82811015610a27576001600160a01b03851660009081526002602090815260408083206001858101855290835292819020815160e08101835290546001600160681b0381168252600160681b810463ffffffff90811694830194909452600160881b810490931691810191909152600160a81b820464ffffffffff166060820152600160d01b820462ffffff166080820152600160e81b820461ffff1660a0820152600160f81b90910460ff1660c082015292506109da9086906109d4908490612d2b565b84612265565b826020015183604001516109ee9190612d54565b63ffffffff166109fe9190612d2b565b8251610a1391906001600160681b0316612d78565b610a1d9085612d2b565b935060010161090f565b505050919050565b6001600160a01b0380841660009081526008602090815260408083209386168352928152828220848352905290812054808203610a70576000915050610ab0565b6001600160a01b0385166000908152600260209081526040808320868452909152902054610aac90600160a81b900464ffffffffff1682612d78565b9150505b9392505050565b6001600160a01b03821660009081526002602090815260408083208484528252808320815160e08101835290546001600160681b0381168252600160681b810463ffffffff90811694830194909452600160881b810490931691810191909152600160a81b820464ffffffffff166060820152600160d01b820462ffffff166080820152600160e81b820461ffff1660a0820152600160f81b90910460ff1660c0820152610ab09084908490612265565b6000610812633b9aca0083612da5565b6001600160a01b03821660009081526004602052604081208190610b9c9084612386565b9050610ba881846123cc565b949350505050565b610bb861266e565b6001600160a01b0384166000908152600260209081526040808320868452825291829020825160e08101845290546001600160681b038116825263ffffffff600160681b8204811693830193909352600160881b81049092169281019290925264ffffffffff600160a81b820416606083015262ffffff600160d01b820416608083015261ffff600160e81b82041660a083015260ff600160f81b9091041660c0820152610ba89085908590856123eb565b806000805b828110156108e457848482818110610c8957610c89612d3e565b9050602002013591506000610c9d83610b68565b336000908152600a602090815260408083208484529091528120805492935090610cc683612db9565b909155505033600090815260026020908152604080832084845290915290208054600160681b900463ffffffff1690600d610d0083612dd2565b91906101000a81548163ffffffff021916908363ffffffff1602179055505081600101915050610c6f565b33600090815260076020526040902054606090829061ffff610d4d8383612d2b565b1115610d6c57604051631bc68c8b60e11b815260040160405180910390fd5b6000610d77336120e2565b90508267ffffffffffffffff811115610d9257610d92612df5565b604051908082528060200260200182016040528015610dbb578160200160208202803683370190505b50935060008215610dd657610dd1336000612123565b610dd9565b60005b90506000610de56126df565b3360009081526003602090815260408083208151608081018352905460ff80821615158352610100820481161515948301949094526201000081048416151592820192909252630100000090910490911615156060820152905b878110156114df578a8a82818110610e5957610e59612d3e565b90506101600201803603810190610e709190612e85565b9250610e816001633b9aca00612f58565b836020015163ffffffff161115610eab576040516349016ea360e01b815260040160405180910390fd5b610eb36126df565b8115610f21578b8b610ec6600185612f58565b818110610ed557610ed5612d3e565b90506101600201803603810190610eec9190612e85565b90508060c0015162ffffff168460c0015162ffffff161015610f2157604051631cabebd560e21b815260040160405180910390fd5b82602001518015610f6a57508361014001518015610f485750604084015163ffffffff1615155b80610f6a5750836101400151158015610f6a575083516001600160681b031615155b15610f8857604051630189200360e11b815260040160405180910390fd5b825180610f9657508360e001515b8015610fa95750606084015161ffff1615155b15610fc75760405163a75b1cd560e01b815260040160405180910390fd5b82604001518015610fd957508360e001515b15610ff7576040516330ec637f60e01b815260040160405180910390fd5b836020015163ffffffff1660000361102257604051631e0a863160e31b815260040160405180910390fd5b600061102e838a612d2b565b611039906001612d2b565b90506040518060e0016040528086600001516001600160681b03168152602001866020015163ffffffff168152602001866020015163ffffffff168152602001866040015163ffffffff1664ffffffffff1681526020018660c0015162ffffff168152602001866060015161ffff1681526020016110d18760e0015188610120015189610140015160021b60019190911b9091171790565b60ff9081169091523360009081526002602090815260408083208684528252918290208451815492860151938601516060870151608088015160a089015160c0998a01516001600160681b0390951670ffffffffffffffffffffffffffffffffff1990971696909617600160681b63ffffffff988916021768ffffffffffffffffff60881b1916600160881b979093169690960264ffffffffff60a81b191691909117600160a81b64ffffffffff909216919091021764ffffffffff60d01b1916600160d01b62ffffff9586160261ffff60e81b191617600160e81b61ffff90941693909302929092176001600160f81b0316600160f81b92909416919091029290921790915586820151918401519181169116148015906111fb575060c085015162ffffff1615155b156112275733600090815260066020908152604080832060c089015162ffffff16845290915290208190555b60808501516001600160a01b0316156112e057846101000151156112a3576080850151336000908152600b60205260409020546001600160a01b0390811691161461129e576080850151336000908152600b6020526040902080546001600160a01b0319166001600160a01b039092169190911790555b6112e0565b6080850151336000908152600160209081526040808320858452909152902080546001600160a01b0319166001600160a01b039092169190911790555b60a08501511561130b5760a0850151336000908152600d602090815260408083208584529091529020555b86156114b7578660005b81156114b45761132633838c6121e1565b33600090815260026020908152604080832086845290915290205460c089015191925062ffffff600160d01b909104811691161180159061136757508a8211155b1561143a57611377836001612d2b565b8214611399573360009081526020818152604080832086845290915290208290555b336000908152600560205260409020548a146113c2573360009081526005602052604090208a90555b6113cd600184612f58565b881415806113f25750336000908152602081815260408083208b845290915290205415155b1561142b57611402600184612f58565b881461140e5782611411565b60005b336000908152602081815260408083208c84529091529020555b81985082975060009150611315565b80158061144657508a81115b156114ab57611456826001612d2b565b8314611478573360009081526020818152604080832085845290915290208390555b336000908152600560205260408120549399508993909250156114a657336000908152600560205260408120555b611315565b90965080611315565b50505b808b84815181106114ca576114ca612d3e565b60209081029190910101525050600101610e3f565b506114ea8787612d2b565b33600090815260076020526040902055509598975050505050505050565b6001600160a01b0382166000908152600760205260408120548161152a612632565b825b8015611675576001600160a01b038088166000908152600860209081526040808320938a168352928152828220848352905220549250821561160f576001600160a01b0387166000908152600260209081526040808320848452825291829020825160e08101845290546001600160681b038116825263ffffffff600160681b8204811693830193909352600160881b81049092169281019290925264ffffffffff600160a81b820416606083015262ffffff600160d01b820416608083015261ffff600160e81b82041660a083015260ff600160f81b9091041660c082015291505b600061162f8360c001516001811615159160028216151591600416151590565b925050508061163f57825161164c565b826060015164ffffffffff165b61165f906001600160681b031685612d78565b6116699087612d2b565b9550506000190161152c565b5050505092915050565b6060600061168c886120e2565b90508267ffffffffffffffff8111156116a7576116a7612df5565b6040519080825280602002602001820160405280156116e057816020015b6116cd61266e565b8152602001906001900390816116c55790505b50915060006116ed612632565b604080518082019091526000808252602082015260005b8387146118ce57600088600003611749576117448d8c1561173d578d8d8581811061173157611731612d3e565b90506020020135612123565b6000612123565b61174b565b885b90505b801580159061175c57508785105b156118c25761176c8d828561218a565b6118b0576001600160a01b038d166000908152600260209081526040808320848452825291829020825160e08101845290546001600160681b038116825263ffffffff600160681b8204811693830193909352600160881b81049092169281019290925264ffffffffff600160a81b820416606083015262ffffff600160d01b820416608083015261ffff600160e81b82041660a083015260ff600160f81b9091041660c082015293508a1580159061184557508b8b8381811061183257611832612d3e565b90506020020135846080015162ffffff16115b6118c2578a158061187657508b8b8381811061186357611863612d3e565b90506020020135846080015162ffffff16145b156118b0576118878d82868d6123eb565b878661189281612db9565b9750815181106118a4576118a4612d3e565b60200260200101819052505b6118bb8d82886121e1565b905061174e565b50600101898110611704575b8684146118d9578386525b50505050509695505050505050565b3360008181526002602090815260408083208684528252808320815160e08101835281546001600160681b0381168252600160681b810463ffffffff90811695830195909552600160881b810490941692810192909252600160a81b830464ffffffffff16606080840191909152600160d01b840462ffffff166080840152600160e81b840461ffff1660a0840152600160f81b90930460ff1660c08301529193919291611997918790612265565b9050808411156119ba5760405163226f999960e11b815260040160405180910390fd5b336000908152600960209081526040808320888452909152812080548692906119e4908490612d2b565b9091555084905067ffffffffffffffff811115611a0357611a03612df5565b604051908082528060200260200182016040528015611a2c578160200160208202803683370190505b50336000908152600a602090815260408083208984529091528120549194505b8581101561167557611aca878386600001600d81819054906101000a900463ffffffff16611a7990612f6b565b91906101000a81548163ffffffff021916908363ffffffff16021790558760000160119054906101000a900463ffffffff16611ab59190612d54565b63ffffffff16611ac59190612d2b565b6125fd565b858281518110611adc57611adc612d3e565b6020908102919091010152600101611a4c565b6001600160a01b03821615611b3c573360009081526008602090815260408083206001600160a01b0386168452825280832086845290915281208054909190611b3790612f8b565b909155505b6001600160a01b03811615611b7e573360009081526008602090815260408083206001600160a01b038516845282528083208684529091529020805460010190555b505050565b611b8b61266e565b6000611b9684610b68565b6001600160a01b0386166000908152600260209081526040808320848452825291829020825160e08101845290546001600160681b038116825263ffffffff600160681b8204811693830193909352600160881b81049092169281019290925264ffffffffff600160a81b820416606083015262ffffff600160d01b820416608083015261ffff600160e81b82041660a083015260ff600160f81b9091041660c0820152909150610aac9086908390866123eb565b6001600160a01b0382166000908152600d6020526040812081611c6d84610b68565b815260200190815260200160002054905092915050565b3360009081526003602052604090208190611b7e8282612faf565b6000611ca9612632565b6001600160a01b038316600090815260076020526040902054805b8015610a27576001600160a01b0385166000908152600260209081526040808320848452825291829020825160e08101845290546001600160681b038116825263ffffffff600160681b82048116938301849052600160881b82041693820184905264ffffffffff600160a81b820416606083015262ffffff600160d01b820416608083015261ffff600160e81b82041660a083015260ff600160f81b9091041660c08201529450611d7591612d54565b611d859063ffffffff1685612d2b565b935060001901611cc4565b606084836000808267ffffffffffffffff811115611db057611db0612df5565b604051908082528060200260200182016040528015611dd9578160200160208202803683370190505b509450611df9604051806040016040528060008152602001600081525090565b60005b8481101561206857898982818110611e1657611e16612d3e565b9050602002016020810190611e2b919061304c565b61ffff169250611e3c33848461218a565b15611e5a5760405163d32cb5c160e01b815260040160405180910390fd5b33600090815260026020908152604080832086845290915290208054909450600160f81b90046001161515888015611e90575080155b15611eae57604051632f792d3960e11b815260040160405180910390fd5b8454600160881b900463ffffffff16600003611edd57604051630de5859f60e01b815260040160405180910390fd5b84546001600160681b0316871015611f0857604051632cd294cf60e01b815260040160405180910390fd5b6040805160e08101825286546001600160681b0381168252600160681b810463ffffffff9081166020840152600160881b82041692820192909252600160a81b820464ffffffffff166060820152600160d01b820462ffffff166080820152600160e81b820461ffff1660a0820152600160f81b90910460ff1660c0820152611f949033908690612265565b8554611fad9190600160681b900463ffffffff16612f58565b600003611fcd5760405163985a45d960e01b815260040160405180910390fd5b336000908152600a60209081526040808320878452909152902054855460001963ffffffff600160681b808404821692830182160263ffffffff60681b1990931692909217808955612033938893600160881b90920482169290920360010116016125fd565b88838151811061204557612045612d3e565b60209081029190910101525083546001600160681b031690950394600101611dfc565b505050505094509492505050565b6001600160a01b038216600090815260076020526040812054805b80156120da576001600160a01b0380861660009081526008602090815260408083209388168352928152828220848352905220546120cf9084612d2b565b925060001901612091565b505092915050565b6001600160a01b0381166000908152600560205260408120549081900361211e57506001600160a01b0381166000908152600760205260409020545b919050565b60008115612154576001600160a01b0383166000908152600660209081526040808320858452909152902054612177565b6001600160a01b0383166000908152602081815260408083208380529091529020545b9050806000036108125750600192915050565b60006121968284612618565b806121ad575081511580156121ad57506020820151155b156121d7576001600160a01b03841660009081526004602052604090206121d49084612386565b91505b610ba882846123cc565b60008183036121f257506000610ab0565b6001600160a01b0384166000908152602081815260408083208684529091529020548015612221579050610ab0565b610aac846001612d2b565b60006122388260081c90565b905061224661010083613067565b6000918252602093909352604090208054600190931b90921790915550565b60008160a0015161ffff16600014806122915750816020015163ffffffff16826040015163ffffffff16145b806122ae575060006122a385856107bf565b6001600160a01b0316145b156122bb57506000610ab0565b6001600160a01b0384166000908152600960209081526040808320868452825291829020549084015191840151909163ffffffff908116916122ff91849116612f58565b0361230e576000915050610ab0565b600081846020015185604001510363ffffffff1603905060008460a0015161ffff168261233b9190612da5565b905060008560a0015161ffff16836123539190613067565b11156123655761236281612db9565b90505b808311156123795760009350505050610ab0565b9190910395945050505050565b604080518082019091526000808252602082015260006123a68360081c90565b604080518082018252600083815260209788529190912054815294850152509192915050565b60006123da61010083613067565b83516001911c811614905092915050565b6123f361266e565b60006123ff86866107bf565b905060008060006124248760c001516001811615159160028216151591600416151590565b92509250925060405180610180016040528089815260200188600001516001600160681b03168152602001886020015163ffffffff168152602001886040015163ffffffff1681526020018261247b578851612488565b886060015164ffffffffff165b6001600160681b031681526020016001600160a01b038616156124af578860a001516124b2565b60005b61ffff1681526001600160a01b03808716602080840191909152908c166000908152600d825260408082208d835290925281902054908201526080808a015162ffffff1660608301528515159082015283151560a082015260c00187158061253257506001600160a01b038b81166000908152600c602052604090205416155b6125dd576001600160a01b03808c166000908152600c602052604081205490911690635e703e71908d90612567908e906125fd565b6040516001600160e01b031960e085901b1681526001600160a01b0390921660048301526024820152604401600060405180830381865afa1580156125b0573d6000803e3d6000fd5b505050506040513d6000823e601f3d908101601f191682016040526125d8919081019061307b565b6125ee565b604051806020016040528060008152505b90529998505050505050505050565b60008161260e633b9aca0085612d78565b610ab09190612d2b565b600082602001516126298360081c90565b14159392505050565b6040805160e081018252600080825260208201819052918101829052606081018290526080810182905260a0810182905260c081019190915290565b60405180610180016040528060008152602001600081526020016000815260200160008152602001600081526020016000815260200160006001600160a01b031681526020016000801916815260200160008152602001600015158152602001600015158152602001606081525090565b6040805161016081018252600080825260208201819052918101829052606081018290526080810182905260a0810182905260c0810182905260e081018290526101008101829052610120810182905261014081019190915290565b6001600160a01b038116811461275057600080fd5b50565b803561211e8161273b565b60006020828403121561277057600080fd5b8135610ab08161273b565b6000806040838503121561278e57600080fd5b82356127998161273b565b946020939093013593505050565b60008083601f8401126127b957600080fd5b50813567ffffffffffffffff8111156127d157600080fd5b6020830191508360208260051b85010111156127ec57600080fd5b9250929050565b60008060006040848603121561280857600080fd5b83356128138161273b565b9250602084013567ffffffffffffffff81111561282f57600080fd5b61283b868287016127a7565b9497909650939450505050565b6000806020838503121561285b57600080fd5b823567ffffffffffffffff81111561287257600080fd5b61287e858286016127a7565b90969095509350505050565b60008060006060848603121561289f57600080fd5b83356128aa8161273b565b925060208401356128ba8161273b565b929592945050506040919091013590565b6000602082840312156128dd57600080fd5b5035919050565b600080604083850312156128f757600080fd5b50508035926020909101359150565b801515811461275057600080fd5b803561211e81612906565b60008060006060848603121561293457600080fd5b833561293f8161273b565b925060208401359150604084013561295681612906565b809150509250925092565b60005b8381101561297c578181015183820152602001612964565b50506000910152565b6000815180845261299d816020860160208601612961565b601f01601f19169290920160200192915050565b6000610180825184526020830151602085015260408301516040850152606083015160608501526080830151608085015260a083015160a085015260c0830151612a0660c08601826001600160a01b03169052565b5060e083810151908501526101008084015190850152610120808401511515908501526101408084015115159085015261016080840151818601839052612a4f83870182612985565b9695505050505050565b602081526000610ab060208301846129b1565b60008060208385031215612a7f57600080fd5b823567ffffffffffffffff80821115612a9757600080fd5b818501915085601f830112612aab57600080fd5b813581811115612aba57600080fd5b86602061016083028501011115612ad057600080fd5b60209290920196919550909350505050565b600081518084526020808501945080840160005b83811015612b1257815187529582019590820190600101612af6565b509495945050505050565b602081526000610ab06020830184612ae2565b60008060408385031215612b4357600080fd5b8235612b4e8161273b565b91506020830135612b5e8161273b565b809150509250929050565b60008060008060008060a08789031215612b8257600080fd5b8635612b8d8161273b565b9550602087013567ffffffffffffffff811115612ba957600080fd5b612bb589828a016127a7565b9096509450506040870135612bc981612906565b959894975092956060810135946080909101359350915050565b6000602080830181845280855180835260408601915060408160051b870101925083870160005b82811015612c3857603f19888603018452612c268583516129b1565b94509285019290850190600101612c0a565b5092979650505050505050565b600080600060608486031215612c5a57600080fd5b833592506020840135612c6c8161273b565b915060408401356129568161273b565b600060808284031215612c8e57600080fd5b50919050565b60008060008060608587031215612caa57600080fd5b84359350602085013567ffffffffffffffff811115612cc857600080fd5b612cd4878288016127a7565b9094509250506040850135612ce881612906565b939692955090935050565b604081526000612d066040830185612ae2565b90508260208301529392505050565b634e487b7160e01b600052601160045260246000fd5b8082018082111561081257610812612d15565b634e487b7160e01b600052603260045260246000fd5b63ffffffff828116828216039080821115612d7157612d71612d15565b5092915050565b808202811582820484141761081257610812612d15565b634e487b7160e01b600052601260045260246000fd5b600082612db457612db4612d8f565b500490565b600060018201612dcb57612dcb612d15565b5060010190565b600063ffffffff808316818103612deb57612deb612d15565b6001019392505050565b634e487b7160e01b600052604160045260246000fd5b604051610160810167ffffffffffffffff81118282101715612e2f57612e2f612df5565b60405290565b80356001600160681b038116811461211e57600080fd5b803563ffffffff8116811461211e57600080fd5b803561ffff8116811461211e57600080fd5b803562ffffff8116811461211e57600080fd5b60006101608284031215612e9857600080fd5b612ea0612e0b565b612ea983612e35565b8152612eb760208401612e4c565b6020820152612ec860408401612e4c565b6040820152612ed960608401612e60565b6060820152612eea60808401612753565b608082015260a083013560a0820152612f0560c08401612e72565b60c0820152612f1660e08401612914565b60e0820152610100612f29818501612914565b90820152610120612f3b848201612914565b90820152610140612f4d848201612914565b908201529392505050565b8181038181111561081257610812612d15565b600063ffffffff821680612f8157612f81612d15565b6000190192915050565b600081612f9a57612f9a612d15565b506000190190565b6000813561081281612906565b8135612fba81612906565b815460ff19811691151560ff1691821783556020840135612fda81612906565b61ff0090151560081b1661ffff1982168317811784556040850135612ffe81612906565b62ff000081151560101b168462ffffff1985161783171785555050505061304861302a60608401612fa2565b82805463ff000000191691151560181b63ff00000016919091179055565b5050565b60006020828403121561305e57600080fd5b610ab082612e60565b60008261307657613076612d8f565b500690565b60006020828403121561308d57600080fd5b815167ffffffffffffffff808211156130a557600080fd5b818401915084601f8301126130b957600080fd5b8151818111156130cb576130cb612df5565b604051601f8201601f19908116603f011681019083821181831017156130f3576130f3612df5565b8160405282815287602084870101111561310c57600080fd5b61311d836020830160208801612961565b97965050505050505056fea2646970667358221220891c472f88fbd22c6d9dd8e39d6ccc1654c7f9aa1ec982eff3ded4a54ad3f14e64736f6c63430008140033",
    "linkReferences": {}
  },
  "methodIdentifiers": {
    "balanceOf(address,address)": "f7888aec",
    "cleanTiers(address)": "086bb19a",
    "defaultReservedTokenBeneficiaryOf(address)": "911c80b5",
    "encodedIPFSUriOf(address,uint256)": "bd51923c",
    "encodedTierIPFSUriOf(address,uint256)": "c8df1710",
    "flagsOf(address)": "845104de",
    "isTierRemoved(address,uint256)": "5f646611",
    "maxTierIdOf(address)": "f1bea54f",
    "numberOfBurnedFor(address,uint256)": "2b7e6ef0",
    "numberOfReservedTokensOutstandingFor(address,uint256)": "35314b92",
    "numberOfReservesMintedFor(address,uint256)": "6825bb80",
    "recordAddTiers((uint104,uint32,uint32,uint16,address,bytes32,uint24,bool,bool,bool,bool)[])": "8da5e32b",
    "recordBurn(uint256[])": "86bc2be3",
    "recordFlags((bool,bool,bool,bool))": "cb827e32",
    "recordMint(uint256,uint16[],bool)": "eaa19ab3",
    "recordMintReservesFor(uint256,uint256)": "baa7e80e",
    "recordRemoveTierIds(uint256[])": "20512ba1",
    "recordSetEncodedIPFSUriOf(uint256,bytes32)": "49bd1ac6",
    "recordSetTokenUriResolver(address)": "d84a72c0",
    "recordTransferForTier(uint256,address,address)": "c2c55f94",
    "redemptionWeightOf(address,uint256[])": "144cc2d4",
    "reservedTokenBeneficiaryOf(address,uint256)": "136e651c",
    "tierBalanceOf(address,address,uint256)": "37f44652",
    "tierIdOfToken(uint256)": "42f9914b",
    "tierOf(address,uint256,bool)": "64faa159",
    "tierOfTokenId(address,uint256,bool)": "c44a8e6d",
    "tierVotingUnitsOf(address,address,uint256)": "2e4d0ea8",
    "tiersOf(address,uint256[],bool,uint256,uint256)": "9403a74f",
    "tokenUriResolverOf(address)": "0fab0947",
    "totalRedemptionWeight(address)": "2ae5e492",
    "totalSupplyOf(address)": "cf9530d0",
    "votingUnitsOf(address,address)": "93355578"
  },
  "id": 3
}