{
  "abi": [
    {
      "inputs": [],
      "name": "INSUFFICIENT_AMOUNT",
      "type": "error"
    },
    {
      "inputs": [],
      "name": "INSUFFICIENT_RESERVES",
      "type": "error"
    },
    {
      "inputs": [],
      "name": "INVALID_PRICE_SORT_ORDER",
      "type": "error"
    },
    {
      "inputs": [],
      "name": "INVALID_TIER",
      "type": "error"
    },
    {
      "inputs": [],
      "name": "NO_QUANTITY",
      "type": "error"
    },
    {
      "inputs": [],
      "name": "OUT",
      "type": "error"
    },
    {
      "inputs": [],
      "name": "RESERVED_RATE_NOT_ALLOWED",
      "type": "error"
    },
    {
      "inputs": [],
      "name": "TIER_LOCKED",
      "type": "error"
    },
    {
      "inputs": [],
      "name": "TIER_REMOVED",
      "type": "error"
    },
    {
      "inputs": [],
      "name": "VOTING_UNITS_NOT_ALLOWED",
      "type": "error"
    },
    {
      "anonymous": false,
      "inputs": [
        {
          "indexed": true,
          "internalType": "address",
          "name": "nft",
          "type": "address"
        },
        {
          "indexed": false,
          "internalType": "address",
          "name": "caller",
          "type": "address"
        }
      ],
      "name": "CleanTiers",
      "type": "event"
    },
    {
      "inputs": [
        {
          "internalType": "address",
          "name": "_nft",
          "type": "address"
        },
        {
          "internalType": "address",
          "name": "_owner",
          "type": "address"
        }
      ],
      "name": "balanceOf",
      "outputs": [
        {
          "internalType": "uint256",
          "name": "balance",
          "type": "uint256"
        }
      ],
      "stateMutability": "view",
      "type": "function"
    },
    {
      "inputs": [
        {
          "internalType": "address",
          "name": "",
          "type": "address"
        }
      ],
      "name": "baseUriOf",
      "outputs": [
        {
          "internalType": "string",
          "name": "",
          "type": "string"
        }
      ],
      "stateMutability": "view",
      "type": "function"
    },
    {
      "inputs": [
        {
          "internalType": "address",
          "name": "_nft",
          "type": "address"
        }
      ],
      "name": "cleanTiers",
      "outputs": [],
      "stateMutability": "nonpayable",
      "type": "function"
    },
    {
      "inputs": [
        {
          "internalType": "address",
          "name": "",
          "type": "address"
        }
      ],
      "name": "contractUriOf",
      "outputs": [
        {
          "internalType": "string",
          "name": "",
          "type": "string"
        }
      ],
      "stateMutability": "view",
      "type": "function"
    },
    {
      "inputs": [
        {
          "internalType": "address",
          "name": "",
          "type": "address"
        }
      ],
      "name": "defaultReservedTokenBeneficiaryOf",
      "outputs": [
        {
          "internalType": "address",
          "name": "",
          "type": "address"
        }
      ],
      "stateMutability": "view",
      "type": "function"
    },
    {
      "inputs": [
        {
          "internalType": "address",
          "name": "",
          "type": "address"
        },
        {
          "internalType": "uint256",
          "name": "",
          "type": "uint256"
        }
      ],
      "name": "encodedIPFSUriOf",
      "outputs": [
        {
          "internalType": "bytes32",
          "name": "",
          "type": "bytes32"
        }
      ],
      "stateMutability": "view",
      "type": "function"
    },
    {
      "inputs": [
        {
          "internalType": "address",
          "name": "_nft",
          "type": "address"
        },
        {
          "internalType": "uint256",
          "name": "_tokenId",
          "type": "uint256"
        }
      ],
      "name": "encodedTierIPFSUriOf",
      "outputs": [
        {
          "internalType": "bytes32",
          "name": "",
          "type": "bytes32"
        }
      ],
      "stateMutability": "view",
      "type": "function"
    },
    {
      "inputs": [
        {
          "internalType": "address",
          "name": "",
          "type": "address"
        },
        {
          "internalType": "uint256",
          "name": "",
          "type": "uint256"
        }
      ],
      "name": "firstOwnerOf",
      "outputs": [
        {
          "internalType": "address",
          "name": "",
          "type": "address"
        }
      ],
      "stateMutability": "view",
      "type": "function"
    },
    {
      "inputs": [
        {
          "internalType": "address",
          "name": "",
          "type": "address"
        },
        {
          "internalType": "uint256",
          "name": "",
          "type": "uint256"
        }
      ],
      "name": "isTierRemoved",
      "outputs": [
        {
          "internalType": "bool",
          "name": "",
          "type": "bool"
        }
      ],
      "stateMutability": "view",
      "type": "function"
    },
    {
      "inputs": [
        {
          "internalType": "address",
          "name": "",
          "type": "address"
        }
      ],
      "name": "lockReservedTokenChangesFor",
      "outputs": [
        {
          "internalType": "bool",
          "name": "",
          "type": "bool"
        }
      ],
      "stateMutability": "view",
      "type": "function"
    },
    {
      "inputs": [
        {
          "internalType": "address",
          "name": "",
          "type": "address"
        }
      ],
      "name": "lockVotingUnitChangesFor",
      "outputs": [
        {
          "internalType": "bool",
          "name": "",
          "type": "bool"
        }
      ],
      "stateMutability": "view",
      "type": "function"
    },
    {
      "inputs": [
        {
          "internalType": "address",
          "name": "",
          "type": "address"
        }
      ],
      "name": "maxTierId",
      "outputs": [
        {
          "internalType": "uint256",
          "name": "",
          "type": "uint256"
        }
      ],
      "stateMutability": "view",
      "type": "function"
    },
    {
      "inputs": [
        {
          "internalType": "address",
          "name": "",
          "type": "address"
        },
        {
          "internalType": "uint256",
          "name": "",
          "type": "uint256"
        }
      ],
      "name": "numberOfBurnedFor",
      "outputs": [
        {
          "internalType": "uint256",
          "name": "",
          "type": "uint256"
        }
      ],
      "stateMutability": "view",
      "type": "function"
    },
    {
      "inputs": [
        {
          "internalType": "address",
          "name": "_nft",
          "type": "address"
        },
        {
          "internalType": "uint256",
          "name": "_tierId",
          "type": "uint256"
        }
      ],
      "name": "numberOfReservedTokensOutstandingFor",
      "outputs": [
        {
          "internalType": "uint256",
          "name": "",
          "type": "uint256"
        }
      ],
      "stateMutability": "view",
      "type": "function"
    },
    {
      "inputs": [
        {
          "internalType": "address",
          "name": "",
          "type": "address"
        },
        {
          "internalType": "uint256",
          "name": "",
          "type": "uint256"
        }
      ],
      "name": "numberOfReservesMintedFor",
      "outputs": [
        {
          "internalType": "uint256",
          "name": "",
          "type": "uint256"
        }
      ],
      "stateMutability": "view",
      "type": "function"
    },
    {
      "inputs": [
        {
          "components": [
            {
              "internalType": "uint256",
              "name": "contributionFloor",
              "type": "uint256"
            },
            {
              "internalType": "uint256",
              "name": "lockedUntil",
              "type": "uint256"
            },
            {
              "internalType": "uint256",
              "name": "initialQuantity",
              "type": "uint256"
            },
            {
              "internalType": "uint256",
              "name": "votingUnits",
              "type": "uint256"
            },
            {
              "internalType": "uint256",
              "name": "reservedRate",
              "type": "uint256"
            },
            {
              "internalType": "address",
              "name": "reservedTokenBeneficiary",
              "type": "address"
            },
            {
              "internalType": "bytes32",
              "name": "encodedIPFSUri",
              "type": "bytes32"
            },
            {
              "internalType": "bool",
              "name": "shouldUseBeneficiaryAsDefault",
              "type": "bool"
            }
          ],
          "internalType": "struct JB721TierParams[]",
          "name": "_tiersToAdd",
          "type": "tuple[]"
        }
      ],
      "name": "recordAddTiers",
      "outputs": [
        {
          "internalType": "uint256[]",
          "name": "tierIds",
          "type": "uint256[]"
        }
      ],
      "stateMutability": "nonpayable",
      "type": "function"
    },
    {
      "inputs": [
        {
          "internalType": "uint256[]",
          "name": "_tokenIds",
          "type": "uint256[]"
        }
      ],
      "name": "recordBurn",
      "outputs": [],
      "stateMutability": "nonpayable",
      "type": "function"
    },
    {
      "inputs": [
        {
          "internalType": "bool",
          "name": "_flag",
          "type": "bool"
        }
      ],
      "name": "recordLockReservedTokenChanges",
      "outputs": [],
      "stateMutability": "nonpayable",
      "type": "function"
    },
    {
      "inputs": [
        {
          "internalType": "bool",
          "name": "_flag",
          "type": "bool"
        }
      ],
      "name": "recordLockVotingUnitChanges",
      "outputs": [],
      "stateMutability": "nonpayable",
      "type": "function"
    },
    {
      "inputs": [
        {
          "internalType": "uint256",
          "name": "_amount",
          "type": "uint256"
        },
        {
          "internalType": "uint16[]",
          "name": "_tierIds",
          "type": "uint16[]"
        }
      ],
      "name": "recordMint",
      "outputs": [
        {
          "internalType": "uint256[]",
          "name": "tokenIds",
          "type": "uint256[]"
        },
        {
          "internalType": "uint256",
          "name": "leftoverAmount",
          "type": "uint256"
        }
      ],
      "stateMutability": "nonpayable",
      "type": "function"
    },
    {
      "inputs": [
        {
          "internalType": "uint256",
          "name": "_amount",
          "type": "uint256"
        }
      ],
      "name": "recordMintBestAvailableTier",
      "outputs": [
        {
          "internalType": "uint256",
          "name": "tokenId",
          "type": "uint256"
        },
        {
          "internalType": "uint256",
          "name": "tierId",
          "type": "uint256"
        },
        {
          "internalType": "uint256",
          "name": "leftoverAmount",
          "type": "uint256"
        }
      ],
      "stateMutability": "nonpayable",
      "type": "function"
    },
    {
      "inputs": [
        {
          "internalType": "uint256",
          "name": "_tierId",
          "type": "uint256"
        },
        {
          "internalType": "uint256",
          "name": "_count",
          "type": "uint256"
        }
      ],
      "name": "recordMintReservesFor",
      "outputs": [
        {
          "internalType": "uint256[]",
          "name": "tokenIds",
          "type": "uint256[]"
        }
      ],
      "stateMutability": "nonpayable",
      "type": "function"
    },
    {
      "inputs": [
        {
          "internalType": "uint256[]",
          "name": "_tierIds",
          "type": "uint256[]"
        }
      ],
      "name": "recordRemoveTierIds",
      "outputs": [],
      "stateMutability": "nonpayable",
      "type": "function"
    },
    {
      "inputs": [
        {
          "internalType": "string",
          "name": "_uri",
          "type": "string"
        }
      ],
      "name": "recordSetBaseUri",
      "outputs": [],
      "stateMutability": "nonpayable",
      "type": "function"
    },
    {
      "inputs": [
        {
          "internalType": "string",
          "name": "_uri",
          "type": "string"
        }
      ],
      "name": "recordSetContractUri",
      "outputs": [],
      "stateMutability": "nonpayable",
      "type": "function"
    },
    {
      "inputs": [
        {
          "internalType": "address",
          "name": "_beneficiary",
          "type": "address"
        }
      ],
      "name": "recordSetDefaultReservedTokenBeneficiary",
      "outputs": [],
      "stateMutability": "nonpayable",
      "type": "function"
    },
    {
      "inputs": [
        {
          "internalType": "uint256",
          "name": "_tokenId",
          "type": "uint256"
        },
        {
          "internalType": "address",
          "name": "_owner",
          "type": "address"
        }
      ],
      "name": "recordSetFirstOwnerOf",
      "outputs": [],
      "stateMutability": "nonpayable",
      "type": "function"
    },
    {
      "inputs": [
        {
          "internalType": "contract IJBTokenUriResolver",
          "name": "_resolver",
          "type": "address"
        }
      ],
      "name": "recordSetTokenUriResolver",
      "outputs": [],
      "stateMutability": "nonpayable",
      "type": "function"
    },
    {
      "inputs": [
        {
          "internalType": "uint256",
          "name": "_tierId",
          "type": "uint256"
        },
        {
          "internalType": "address",
          "name": "_from",
          "type": "address"
        },
        {
          "internalType": "address",
          "name": "_to",
          "type": "address"
        }
      ],
      "name": "recordTransferForTier",
      "outputs": [],
      "stateMutability": "nonpayable",
      "type": "function"
    },
    {
      "inputs": [
        {
          "internalType": "address",
          "name": "_nft",
          "type": "address"
        },
        {
          "internalType": "uint256[]",
          "name": "_tokenIds",
          "type": "uint256[]"
        }
      ],
      "name": "redemptionWeightOf",
      "outputs": [
        {
          "internalType": "uint256",
          "name": "weight",
          "type": "uint256"
        }
      ],
      "stateMutability": "view",
      "type": "function"
    },
    {
      "inputs": [
        {
          "internalType": "address",
          "name": "_nft",
          "type": "address"
        },
        {
          "internalType": "uint256",
          "name": "_tierId",
          "type": "uint256"
        }
      ],
      "name": "reservedTokenBeneficiaryOf",
      "outputs": [
        {
          "internalType": "address",
          "name": "",
          "type": "address"
        }
      ],
      "stateMutability": "view",
      "type": "function"
    },
    {
      "inputs": [
        {
          "internalType": "address",
          "name": "_nft",
          "type": "address"
        },
        {
          "internalType": "uint256",
          "name": "_id",
          "type": "uint256"
        }
      ],
      "name": "tier",
      "outputs": [
        {
          "components": [
            {
              "internalType": "uint256",
              "name": "id",
              "type": "uint256"
            },
            {
              "internalType": "uint256",
              "name": "contributionFloor",
              "type": "uint256"
            },
            {
              "internalType": "uint256",
              "name": "lockedUntil",
              "type": "uint256"
            },
            {
              "internalType": "uint256",
              "name": "remainingQuantity",
              "type": "uint256"
            },
            {
              "internalType": "uint256",
              "name": "initialQuantity",
              "type": "uint256"
            },
            {
              "internalType": "uint256",
              "name": "votingUnits",
              "type": "uint256"
            },
            {
              "internalType": "uint256",
              "name": "reservedRate",
              "type": "uint256"
            },
            {
              "internalType": "address",
              "name": "reservedTokenBeneficiary",
              "type": "address"
            },
            {
              "internalType": "bytes32",
              "name": "encodedIPFSUri",
              "type": "bytes32"
            }
          ],
          "internalType": "struct JB721Tier",
          "name": "",
          "type": "tuple"
        }
      ],
      "stateMutability": "view",
      "type": "function"
    },
    {
      "inputs": [
        {
          "internalType": "address",
          "name": "",
          "type": "address"
        },
        {
          "internalType": "address",
          "name": "",
          "type": "address"
        },
        {
          "internalType": "uint256",
          "name": "",
          "type": "uint256"
        }
      ],
      "name": "tierBalanceOf",
      "outputs": [
        {
          "internalType": "uint256",
          "name": "",
          "type": "uint256"
        }
      ],
      "stateMutability": "view",
      "type": "function"
    },
    {
      "inputs": [
        {
          "internalType": "uint256",
          "name": "_tokenId",
          "type": "uint256"
        }
      ],
      "name": "tierIdOfToken",
      "outputs": [
        {
          "internalType": "uint256",
          "name": "",
          "type": "uint256"
        }
      ],
      "stateMutability": "pure",
      "type": "function"
    },
    {
      "inputs": [
        {
          "internalType": "address",
          "name": "_nft",
          "type": "address"
        },
        {
          "internalType": "uint256",
          "name": "_tokenId",
          "type": "uint256"
        }
      ],
      "name": "tierOfTokenId",
      "outputs": [
        {
          "components": [
            {
              "internalType": "uint256",
              "name": "id",
              "type": "uint256"
            },
            {
              "internalType": "uint256",
              "name": "contributionFloor",
              "type": "uint256"
            },
            {
              "internalType": "uint256",
              "name": "lockedUntil",
              "type": "uint256"
            },
            {
              "internalType": "uint256",
              "name": "remainingQuantity",
              "type": "uint256"
            },
            {
              "internalType": "uint256",
              "name": "initialQuantity",
              "type": "uint256"
            },
            {
              "internalType": "uint256",
              "name": "votingUnits",
              "type": "uint256"
            },
            {
              "internalType": "uint256",
              "name": "reservedRate",
              "type": "uint256"
            },
            {
              "internalType": "address",
              "name": "reservedTokenBeneficiary",
              "type": "address"
            },
            {
              "internalType": "bytes32",
              "name": "encodedIPFSUri",
              "type": "bytes32"
            }
          ],
          "internalType": "struct JB721Tier",
          "name": "",
          "type": "tuple"
        }
      ],
      "stateMutability": "view",
      "type": "function"
    },
    {
      "inputs": [
        {
          "internalType": "address",
          "name": "_nft",
          "type": "address"
        },
        {
          "internalType": "address",
          "name": "_account",
          "type": "address"
        },
        {
          "internalType": "uint256",
          "name": "_tierId",
          "type": "uint256"
        }
      ],
      "name": "tierVotingUnitsOf",
      "outputs": [
        {
          "internalType": "uint256",
          "name": "",
          "type": "uint256"
        }
      ],
      "stateMutability": "view",
      "type": "function"
    },
    {
      "inputs": [
        {
          "internalType": "address",
          "name": "_nft",
          "type": "address"
        },
        {
          "internalType": "uint256",
          "name": "_startingId",
          "type": "uint256"
        },
        {
          "internalType": "uint256",
          "name": "_size",
          "type": "uint256"
        }
      ],
      "name": "tiers",
      "outputs": [
        {
          "components": [
            {
              "internalType": "uint256",
              "name": "id",
              "type": "uint256"
            },
            {
              "internalType": "uint256",
              "name": "contributionFloor",
              "type": "uint256"
            },
            {
              "internalType": "uint256",
              "name": "lockedUntil",
              "type": "uint256"
            },
            {
              "internalType": "uint256",
              "name": "remainingQuantity",
              "type": "uint256"
            },
            {
              "internalType": "uint256",
              "name": "initialQuantity",
              "type": "uint256"
            },
            {
              "internalType": "uint256",
              "name": "votingUnits",
              "type": "uint256"
            },
            {
              "internalType": "uint256",
              "name": "reservedRate",
              "type": "uint256"
            },
            {
              "internalType": "address",
              "name": "reservedTokenBeneficiary",
              "type": "address"
            },
            {
              "internalType": "bytes32",
              "name": "encodedIPFSUri",
              "type": "bytes32"
            }
          ],
          "internalType": "struct JB721Tier[]",
          "name": "_tiers",
          "type": "tuple[]"
        }
      ],
      "stateMutability": "view",
      "type": "function"
    },
    {
      "inputs": [
        {
          "internalType": "address",
          "name": "",
          "type": "address"
        }
      ],
      "name": "tokenUriResolverOf",
      "outputs": [
        {
          "internalType": "contract IJBTokenUriResolver",
          "name": "",
          "type": "address"
        }
      ],
      "stateMutability": "view",
      "type": "function"
    },
    {
      "inputs": [
        {
          "internalType": "address",
          "name": "_nft",
          "type": "address"
        }
      ],
      "name": "totalRedemptionWeight",
      "outputs": [
        {
          "internalType": "uint256",
          "name": "weight",
          "type": "uint256"
        }
      ],
      "stateMutability": "view",
      "type": "function"
    },
    {
      "inputs": [
        {
          "internalType": "address",
          "name": "_nft",
          "type": "address"
        }
      ],
      "name": "totalSupply",
      "outputs": [
        {
          "internalType": "uint256",
          "name": "supply",
          "type": "uint256"
        }
      ],
      "stateMutability": "view",
      "type": "function"
    },
    {
      "inputs": [
        {
          "internalType": "address",
          "name": "_nft",
          "type": "address"
        },
        {
          "internalType": "address",
          "name": "_account",
          "type": "address"
        }
      ],
      "name": "votingUnitsOf",
      "outputs": [
        {
          "internalType": "uint256",
          "name": "units",
          "type": "uint256"
        }
      ],
      "stateMutability": "view",
      "type": "function"
    }
  ],
  "bytecode": {
    "object": "0x608060405234801561001057600080fd5b50612f7e806100206000396000f3fe608060405234801561001057600080fd5b50600436106102535760003560e01c80636825bb8011610146578063b67cb047116100c3578063d67b78fd11610087578063d67b78fd14610736578063d84a72c014610749578063e4dc2aa414610786578063ebc1c49d14610799578063f682eeaf146107bc578063f7888aec146107cf57600080fd5b8063b67cb04714610697578063baa7e80e146106aa578063bd51923c146106bd578063c2c55f94146106e8578063c8df1710146106fb57600080fd5b80638cec7d391161010a5780638cec7d39146105be5780638ed6c01014610607578063911c80b51461063b5780639335557814610664578063aab0cd801461067757600080fd5b80636825bb80146105125780636c876fd81461053d5780637473c9a21461055d57806386bc2be31461057d578063879791f31461059057600080fd5b80632ae5e492116101d457806337f446521161019857806337f446521461046b5780633eb2556a1461049c57806342f9914b146104bc5780635f646611146104d15780636262bcb2146104ff57600080fd5b80632ae5e492146103d45780632b7e6ef0146103e75780632e4d0ea81461041257806335314b9214610425578063366cf4231461043857600080fd5b806316b047de1161021b57806316b047de1461031557806317161f7d146103365780631877d7b11461037357806320512ba1146103a157806327619754146103b457600080fd5b806307cd940614610258578063086bb19a146102885780630fab09471461029b578063136e651c146102e1578063144cc2d4146102f4575b600080fd5b6102866102663660046125c2565b336000908152600d60205260409020805460ff1916911515919091179055565b005b6102866102963660046125f5565b6107e2565b6102c46102a93660046125f5565b600b602052600090815260409020546001600160a01b031681565b6040516001600160a01b0390911681526020015b60405180910390f35b6102c46102ef366004612612565b610941565b610307610302366004612689565b61099a565b6040519081526020016102d8565b6103286103233660046126dd565b610a1a565b6040516102d892919061274a565b6102866103443660046125f5565b33600090815260086020526040902080546001600160a01b0319166001600160a01b0392909216919091179055565b6102866103813660046125c2565b336000908152600e60205260409020805460ff1916911515919091179055565b6102866103af36600461276c565b610cb3565b6103c76103c236600461283f565b610d5f565b6040516102d89190612948565b6103076103e23660046125f5565b6112ff565b6103076103f5366004612612565b600660209081526000928352604080842090915290825290205481565b61030761042036600461295b565b611431565b610307610433366004612612565b6114b6565b61045b6104463660046125f5565b600e6020526000908152604090205460ff1681565b60405190151581526020016102d8565b61030761047936600461295b565b600460209081526000938452604080852082529284528284209052825290205481565b6104af6104aa36600461299c565b611551565b6040516102d89190612a30565b6103076104ca366004612a7f565b61ffff1690565b61045b6104df366004612612565b600760209081526000928352604080842090915290825290205460ff1681565b61028661050d366004612a98565b611858565b610307610520366004612612565b600560209081526000928352604080842090915290825290205481565b61030761054b3660046125f5565b60036020526000908152604090205481565b61057061056b366004612612565b611877565b6040516102d89190612b09565b61028661058b366004612b18565b611a6d565b6105a361059e366004612a7f565b611b3e565b604080519384526020840192909252908201526060016102d8565b6102866105cc366004612b9d565b3360009081526009602090815260408083209483529390529190912080546001600160a01b0319166001600160a01b03909216919091179055565b6102c4610615366004612612565b60096020908152600092835260408084209091529082529020546001600160a01b031681565b6102c46106493660046125f5565b6008602052600090815260409020546001600160a01b031681565b610307610672366004612bcd565b611d16565b61068a6106853660046125f5565b611dc6565b6040516102d89190612bfb565b6105706106a5366004612612565b611e60565b6103c76106b8366004612c49565b611f9b565b6103076106cb366004612612565b600f60209081526000928352604080842090915290825290205481565b6102866106f6366004612c6b565b6121a4565b610307610709366004612612565b6001600160a01b03919091166000908152600f6020908152604080832061ffff9094168352929052205490565b610286610744366004612a98565b612237565b6102866107573660046125f5565b336000908152600b6020526040902080546001600160a01b0319166001600160a01b0392909216919091179055565b6103076107943660046125f5565b612251565b61045b6107a73660046125f5565b600d6020526000908152604090205460ff1681565b61068a6107ca3660046125f5565b6122db565b6103076107dd366004612bcd565b6122f4565b6001600160a01b0381166000908152600360205260408120549061080583612360565b905060005b81156108fd576001600160a01b038416600090815260076020908152604080832085845290915290205460ff166108eb57610846816001612cc3565b821461089e576001600160a01b0384166000908152602081815260408083208484529091529020548214610899576001600160a01b03841660009081526020818152604080832084845290915290208290555b6108e8565b6001600160a01b038416600090815260208181526040808320848452909152902054156108e8576001600160a01b0384166000908152602081815260408083208484529091528120555b50805b6108f6848385612393565b915061080a565b6040513381526001600160a01b038516907f4a0f854ce3c180d56f3e9eb47eb064c595bf3de0ab9af45425291e5b1bb733a89060200160405180910390a250505050565b6001600160a01b0380831660009081526001602090815260408083208584529091528120549091168015610976579050610994565b50506001600160a01b03808316600090815260086020526040902054165b92915050565b600081815b81811015610a11576001600160a01b0386166000908152600260205260408120906109e38787858181106109d5576109d5612cd6565b9050602002013561ffff1690565b8152602081019190915260400160002054610a07906001600160501b031684612cc3565b925060010161099f565b50509392505050565b60608382600080826001600160401b03811115610a3957610a396127ad565b604051908082528060200260200182016040528015610a62578160200160208202803683370190505b50945060005b83811015610ca757878782818110610a8257610a82612cd6565b9050602002016020810190610a979190612cec565b33600090815260076020908152604080832061ffff949094168084529390915290205490925060ff1615610ade5760405163d32cb5c160e01b815260040160405180910390fd5b33600090815260026020908152604080832085845290915281208054909450600160b01b900465ffffffffffff169003610b2b57604051630de5859f60e01b815260040160405180910390fd5b82546001600160501b0316851015610b5657604051632cd294cf60e01b815260040160405180910390fd5b6040805160c08101825284546001600160501b038116825265ffffffffffff600160501b820481166020840152600160801b8204811693830193909352600160b01b8104909216606082015261ffff600160e01b830481166080830152600160f01b90920490911660a0820152610bd090339084906123e6565b8354610beb9190600160801b900465ffffffffffff16612d10565b600003610c0b5760405163985a45d960e01b815260040160405180910390fd5b336000908152600660209081526040808320858452909152902054835460001965ffffffffffff600160801b808404821692830182160265ffffffffffff60801b1990931692909217808755600160b01b9004821603600101160160101b8217868281518110610c7d57610c7d612cd6565b60209081029190910101528254610c9d906001600160501b031686612d10565b9450600101610a68565b50505050935093915050565b806000805b82811015610d5857848482818110610cd257610cd2612cd6565b336000908152600260209081526040808320938202959095013580835292905292909220549193505042600160501b90910465ffffffffffff1610610d2a57604051636b73d51160e11b815260040160405180910390fd5b3360009081526007602090815260408083208584529091529020805460ff1916600190811790915501610cb8565b5050505050565b80513360009081526003602052604090205460609190816001600160401b03811115610d8d57610d8d6127ad565b604051908082528060200260200182016040528015610db6578160200160208202803683370190505b50925060008115610dcf57610dca33612360565b610dd2565b60005b90506000610e2c604051806101000160405280600081526020016000815260200160008152602001600081526020016000815260200160006001600160a01b03168152602001600080191681526020016000151581525090565b60005b858110156112d957878181518110610e4957610e49612cd6565b6020026020010151915080600014158015610e8e575087610e6b600183612d10565b81518110610e7b57610e7b612cd6565b6020026020010151600001518260000151105b15610eac576040516325ec4a9160e21b815260040160405180910390fd5b336000908152600e602052604090205460ff168015610ece5750606082015115155b15610eec57604051630189200360e11b815260040160405180910390fd5b336000908152600d602052604090205460ff168015610f0e5750608082015115155b15610f2c5760405163a75b1cd560e01b815260040160405180910390fd5b8160400151600003610f5157604051631e0a863160e31b815260040160405180910390fd5b6000610f5d8287612cc3565b610f68906001612cc3565b6040805160c08101825285516001600160501b03908116825260208088015165ffffffffffff908116828501908152898601805183168688019081529051831660608088019182528c015161ffff9081166080808a019182528e0151821660a0808b0191825233600090815260028a528c81208e82529099529a909720985189549551945193519151975198166fffffffffffffffffffffffffffffffff1990951694909417600160501b93861693909302929092176bffffffffffffffffffffffff60801b1916600160801b9185169190910265ffffffffffff60b01b191617600160b01b9290931691909102919091176001600160e01b0316600160e01b928216929092026001600160f01b031691909117600160f01b92909116919091021790558401519091506001600160a01b0316158015906110c957503360009081526008602052604090205460a08401516001600160a01b03908116911614155b1561114b578260e001511561110e5760a083015133600090815260086020526040902080546001600160a01b0319166001600160a01b0390921691909117905561114b565b60a0830151336000908152600160209081526040808320858452909152902080546001600160a01b0319166001600160a01b039092169190911790555b60c0830151156111765760c0830151336000908152600f602090815260408083208584529091529020555b84156112b2578460005b81156112af5761119133838a612393565b33600090815260026020908152604080832086845290915290205486519192506001600160501b03161115611265576111cb836001612cc3565b82146111ed573360009081526020818152604080832086845290915290208290555b6111f8600184612d10565b8614158061121d57503360009081526020818152604080832089845290915290205415155b156112565761122d600184612d10565b8614611239578261123c565b60005b336000908152602081815260408083208a84529091529020555b81965082955060009150611180565b806000036112a657611278826001612cc3565b831461129a573360009081526020818152604080832085845290915290208390555b82965060009150611180565b90945080611180565b50505b808883815181106112c5576112c5612cd6565b602090810291909101015250600101610e2f565b506112e48585612cc3565b33600090815260036020526040902055509395945050505050565b6001600160a01b038116600090815260036020526040812054611320612525565b60005b82811015611429576001600160a01b03851660009081526002602052604081209061134f836001612cc3565b81526020808201929092526040908101600020815160c08101835290546001600160501b038116825265ffffffffffff600160501b8204811694830194909452600160801b8104841692820192909252600160b01b8204909216606083015261ffff600160e01b820481166080840152600160f01b9091041660a082015291506113da8582846123e6565b826040015183606001516113ee9190612d23565b835161140b9165ffffffffffff16906001600160501b0316612d49565b6114159190612cc3565b61141f9085612cc3565b9350600101611323565b505050919050565b6001600160a01b03808416600090815260046020908152604080832093861683529281528282208483529052908120548082036114725760009150506114af565b6001600160a01b03851660009081526002602090815260408083208684529091529020546114ab90600160e01b900461ffff1682612d49565b9150505b9392505050565b6001600160a01b03821660009081526002602090815260408083208484528252808320815160c08101835290546001600160501b038116825265ffffffffffff600160501b8204811694830194909452600160801b8104841692820192909252600160b01b8204909216606083015261ffff600160e01b820481166080840152600160f01b9091041660a08201526114af90849084906123e6565b6001600160a01b038316600090815260036020526040902054606090826001600160401b03811115611585576115856127ad565b6040519080825280602002602001820160405280156115be57816020015b6115ab61255a565b8152602001906001900390816115a35790505b509150600080856000036115da576115d587612360565b6115dc565b855b90506115e6612525565b81158015906115f457508583105b15611842576001600160a01b038816600090815260076020908152604080832085845290915290205460ff166118305760026000896001600160a01b03166001600160a01b0316815260200190815260200160002060008381526020019081526020016000206040518060c00160405290816000820160009054906101000a90046001600160501b03166001600160501b03166001600160501b0316815260200160008201600a9054906101000a900465ffffffffffff1665ffffffffffff1665ffffffffffff1681526020016000820160109054906101000a900465ffffffffffff1665ffffffffffff1665ffffffffffff1681526020016000820160169054906101000a900465ffffffffffff1665ffffffffffff1665ffffffffffff16815260200160008201601c9054906101000a900461ffff1661ffff1661ffff16815260200160008201601e9054906101000a900461ffff1661ffff1661ffff1681525050905060405180610120016040528083815260200182600001516001600160501b03168152602001826020015165ffffffffffff168152602001826040015165ffffffffffff168152602001826060015165ffffffffffff168152602001826080015161ffff1681526020018260a0015161ffff1681526020016117db8a85610941565b6001600160a01b0390811682528a166000908152600f60209081526040808320878452825290912054910152858461181281612d68565b95508151811061182457611824612cd6565b60200260200101819052505b61183b888386612393565b91506115e6565b85831461184d578285525b505050509392505050565b336000908152600a60205260409020611872828483612e09565b505050565b61187f61255a565b600060026000856001600160a01b03166001600160a01b0316815260200190815260200160002060008481526020019081526020016000206040518060c00160405290816000820160009054906101000a90046001600160501b03166001600160501b03166001600160501b0316815260200160008201600a9054906101000a900465ffffffffffff1665ffffffffffff1665ffffffffffff1681526020016000820160109054906101000a900465ffffffffffff1665ffffffffffff1665ffffffffffff1681526020016000820160169054906101000a900465ffffffffffff1665ffffffffffff1665ffffffffffff16815260200160008201601c9054906101000a900461ffff1661ffff1661ffff16815260200160008201601e9054906101000a900461ffff1661ffff1661ffff1681525050905060405180610120016040528084815260200182600001516001600160501b03168152602001826020015165ffffffffffff168152602001826040015165ffffffffffff168152602001826060015165ffffffffffff168152602001826080015161ffff1681526020018260a0015161ffff168152602001611a388686610941565b6001600160a01b03908116825286166000908152600f6020908152604080832088845282529091205491015291505092915050565b80516000805b82811015611b3857838181518110611a8d57611a8d612cd6565b602002602001015191506000611aa48361ffff1690565b3360009081526006602090815260408083208484529091528120805492935090611acd83612d68565b909155505033600090815260026020908152604080832084845290915290208054600160801b900465ffffffffffff16906010611b0983612ec8565b91906101000a81548165ffffffffffff021916908365ffffffffffff1602179055505081600101915050611a73565b50505050565b3360009081526003602052604081205481908190611b5a612525565b6000611b6533612360565b90505b8015611c6e57336000908152600260209081526040808320848452825291829020825160c08101845290546001600160501b03811680835265ffffffffffff600160501b8304811694840194909452600160801b8204841694830194909452600160b01b8104909216606082015261ffff600160e01b830481166080830152600160f01b90920490911660a08201529250871015611c0857506000611b68565b33600090815260076020908152604080832084845290915290205460ff16158015611c535750611c393382846123e6565b826040015165ffffffffffff16611c509190612d10565b15155b15611c5c578094505b611c67338285612393565b9050611b68565b84600003611c7e57869350611d0c565b336000818152600260209081526040808320898452825280832093835260068252808320898452909152902054815460001965ffffffffffff600160801b808404821692830182160265ffffffffffff60801b1990931692909217808555600160b01b9004821603600101160160101b86178154909750611d08906001600160501b031689612d10565b9450505b5050509193909250565b6001600160a01b03821660009081526003602052604081205481815b8015611dbd576001600160a01b03808716600090815260046020908152604080832093891683529281528282208483529052205491508115611db4576001600160a01b0386166000908152600260209081526040808320848452909152902054611da790600160e01b900461ffff1683612d49565b611db19085612cc3565b93505b60001901611d32565b50505092915050565b600c6020526000908152604090208054611ddf90612d81565b80601f0160208091040260200160405190810160405280929190818152602001828054611e0b90612d81565b8015611e585780601f10611e2d57610100808354040283529160200191611e58565b820191906000526020600020905b815481529060010190602001808311611e3b57829003601f168201915b505050505081565b611e6861255a565b6001600160a01b038316600090815260026020908152604080832061ffff86811680865291845293829020825160c0808201855291546001600160501b03808216835265ffffffffffff600160501b83048116848901908152600160801b84048216858901908152600160b01b850483166060808801918252600160e01b87048d166080808a01918252600160f01b9098048e1660a0808b019182528d5161012081018f528d81528b519099169e89019e909e52945186169b87019b909b5291518416918501919091525190911692820192909252945187169585019590955293519094169382019390935260e08101611f628785610941565b6001600160a01b03908116825287166000908152600f602090815260408083209683529581529490205493019290925250905092915050565b3360008181526002602090815260408083208684528252808320815160c08101835281546001600160501b038116825265ffffffffffff600160501b8204811695830195909552600160801b8104851693820193909352600160b01b830490931660608481019190915261ffff600160e01b840481166080860152600160f01b90930490921660a08401529093909291612037919087906123e6565b90508084111561205a5760405163226f999960e11b815260040160405180910390fd5b33600090815260056020908152604080832088845290915281208054869290612084908490612cc3565b909155508490506001600160401b038111156120a2576120a26127ad565b6040519080825280602002602001820160405280156120cb578160200160208202803683370190505b503360009081526006602090815260408083208984529091528120549194505b8581101561219a57612175878386600001601081819054906101000a900465ffffffffffff1661211a90612eed565b91906101000a81548165ffffffffffff021916908365ffffffffffff16021790558760000160169054906101000a900465ffffffffffff1661215c9190612d23565b65ffffffffffff1661216e9190612cc3565b60101b1790565b85828151811061218757612187612cd6565b60209081029190910101526001016120eb565b5050505092915050565b6001600160a01b038216156121f1573360009081526004602090815260408083206001600160a01b03861684528252808320868452909152812080549091906121ec90612f0f565b909155505b6001600160a01b03811615611872573360009081526004602090815260408083206001600160a01b03851684528252808320868452909152902080546001019055505050565b336000908152600c60205260409020611872828483612e09565b6001600160a01b0381166000908152600360205260408120548190805b8015611429576001600160a01b0385166000908152600260209081526040808320848452909152902080549093506122be9065ffffffffffff600160801b8204811691600160b01b900416612d23565b6122d09065ffffffffffff1685612cc3565b93506000190161226e565b600a6020526000908152604090208054611ddf90612d81565b6001600160a01b038216600090815260036020526040812054805b8015612358576001600160a01b03808616600090815260046020908152604080832093881683529281528282208483529052205461234d9084612cc3565b92506000190161230f565b505092915050565b6001600160a01b0381166000908152602081815260408083208380529091528120549081900361238e575060015b919050565b6001600160a01b03831660009081526020818152604080832085845290915281205480156123c25790506114af565b8284106123d35760009150506114af565b6123de846001612cc3565b9150506114af565b6000816060015165ffffffffffff1660001480612409575060a082015161ffff16155b15612416575060006114af565b816040015165ffffffffffff16826060015165ffffffffffff160361243d575060016114af565b6001600160a01b0384166000908152600560209081526040808320868452909152908190205490830151606084015165ffffffffffff9182169161248391849116612d10565b036124925760009150506114af565b600081846040015185606001516124a99190612d23565b65ffffffffffff166124bb9190612d10565b905060008460a0015161ffff16826124d39190612d49565b905060006124e361271083612f26565b905060006124f382612710612d49565b6124fd9084612d10565b111561250f5761250c81612d68565b90505b6125198482612d10565b98975050505050505050565b6040805160c081018252600080825260208201819052918101829052606081018290526080810182905260a081019190915290565b6040518061012001604052806000815260200160008152602001600081526020016000815260200160008152602001600081526020016000815260200160006001600160a01b03168152602001600080191681525090565b8035801515811461238e57600080fd5b6000602082840312156125d457600080fd5b6114af826125b2565b6001600160a01b03811681146125f257600080fd5b50565b60006020828403121561260757600080fd5b81356114af816125dd565b6000806040838503121561262557600080fd5b8235612630816125dd565b946020939093013593505050565b60008083601f84011261265057600080fd5b5081356001600160401b0381111561266757600080fd5b6020830191508360208260051b850101111561268257600080fd5b9250929050565b60008060006040848603121561269e57600080fd5b83356126a9816125dd565b925060208401356001600160401b038111156126c457600080fd5b6126d08682870161263e565b9497909650939450505050565b6000806000604084860312156126f257600080fd5b8335925060208401356001600160401b038111156126c457600080fd5b600081518084526020808501945080840160005b8381101561273f57815187529582019590820190600101612723565b509495945050505050565b60408152600061275d604083018561270f565b90508260208301529392505050565b6000806020838503121561277f57600080fd5b82356001600160401b0381111561279557600080fd5b6127a18582860161263e565b90969095509350505050565b634e487b7160e01b600052604160045260246000fd5b60405161010081016001600160401b03811182821017156127e6576127e66127ad565b60405290565b604051601f8201601f191681016001600160401b0381118282101715612814576128146127ad565b604052919050565b60006001600160401b03821115612835576128356127ad565b5060051b60200190565b6000602080838503121561285257600080fd5b82356001600160401b0381111561286857600080fd5b8301601f8101851361287957600080fd5b803561288c6128878261281c565b6127ec565b81815260089190911b820183019083810190878311156128ab57600080fd5b928401925b8284101561293d5761010084890312156128ca5760008081fd5b6128d26127c3565b84358152858501358682015260408086013590820152606080860135908201526080808601359082015260a08086013561290b816125dd565b9082015260c0858101359082015260e06129268187016125b2565b9082015282526101009390930192908401906128b0565b979650505050505050565b6020815260006114af602083018461270f565b60008060006060848603121561297057600080fd5b833561297b816125dd565b9250602084013561298b816125dd565b929592945050506040919091013590565b6000806000606084860312156129b157600080fd5b83356129bc816125dd565b95602085013595506040909401359392505050565b805182526020808201519083015260408082015190830152606080820151908301526080808201519083015260a0808201519083015260c0808201519083015260e0808201516001600160a01b03169083015261010090810151910152565b6020808252825182820181905260009190848201906040850190845b81811015612a7357612a5f8385516129d1565b928401926101209290920191600101612a4c565b50909695505050505050565b600060208284031215612a9157600080fd5b5035919050565b60008060208385031215612aab57600080fd5b82356001600160401b0380821115612ac257600080fd5b818501915085601f830112612ad657600080fd5b813581811115612ae557600080fd5b866020828501011115612af757600080fd5b60209290920196919550909350505050565b610120810161099482846129d1565b60006020808385031215612b2b57600080fd5b82356001600160401b03811115612b4157600080fd5b8301601f81018513612b5257600080fd5b8035612b606128878261281c565b81815260059190911b82018301908381019087831115612b7f57600080fd5b928401925b8284101561293d57833582529284019290840190612b84565b60008060408385031215612bb057600080fd5b823591506020830135612bc2816125dd565b809150509250929050565b60008060408385031215612be057600080fd5b8235612beb816125dd565b91506020830135612bc2816125dd565b600060208083528351808285015260005b81811015612c2857858101830151858201604001528201612c0c565b506000604082860101526040601f19601f8301168501019250505092915050565b60008060408385031215612c5c57600080fd5b50508035926020909101359150565b600080600060608486031215612c8057600080fd5b833592506020840135612c92816125dd565b91506040840135612ca2816125dd565b809150509250925092565b634e487b7160e01b600052601160045260246000fd5b8082018082111561099457610994612cad565b634e487b7160e01b600052603260045260246000fd5b600060208284031215612cfe57600080fd5b813561ffff811681146114af57600080fd5b8181038181111561099457610994612cad565b65ffffffffffff828116828216039080821115612d4257612d42612cad565b5092915050565b6000816000190483118215151615612d6357612d63612cad565b500290565b600060018201612d7a57612d7a612cad565b5060010190565b600181811c90821680612d9557607f821691505b602082108103612db557634e487b7160e01b600052602260045260246000fd5b50919050565b601f82111561187257600081815260208120601f850160051c81016020861015612de25750805b601f850160051c820191505b81811015612e0157828155600101612dee565b505050505050565b6001600160401b03831115612e2057612e206127ad565b612e3483612e2e8354612d81565b83612dbb565b6000601f841160018114612e685760008515612e505750838201355b600019600387901b1c1916600186901b178355610d58565b600083815260209020601f19861690835b82811015612e995786850135825560209485019460019092019101612e79565b5086821015612eb65760001960f88860031b161c19848701351681555b505060018560011b0183555050505050565b600065ffffffffffff808316818103612ee357612ee3612cad565b6001019392505050565b600065ffffffffffff821680612f0557612f05612cad565b6000190192915050565b600081612f1e57612f1e612cad565b506000190190565b600082612f4357634e487b7160e01b600052601260045260246000fd5b50049056fea2646970667358221220ef97fa582eb705192c31dffea0cdbdf3b2ec5d3b5dcde265216d0557e98b52fb64736f6c63430008100033",
    "linkReferences": {}
  },
  "methodIdentifiers": {
    "balanceOf(address,address)": "f7888aec",
    "baseUriOf(address)": "f682eeaf",
    "cleanTiers(address)": "086bb19a",
    "contractUriOf(address)": "aab0cd80",
    "defaultReservedTokenBeneficiaryOf(address)": "911c80b5",
    "encodedIPFSUriOf(address,uint256)": "bd51923c",
    "encodedTierIPFSUriOf(address,uint256)": "c8df1710",
    "firstOwnerOf(address,uint256)": "8ed6c010",
    "isTierRemoved(address,uint256)": "5f646611",
    "lockReservedTokenChangesFor(address)": "ebc1c49d",
    "lockVotingUnitChangesFor(address)": "366cf423",
    "maxTierId(address)": "6c876fd8",
    "numberOfBurnedFor(address,uint256)": "2b7e6ef0",
    "numberOfReservedTokensOutstandingFor(address,uint256)": "35314b92",
    "numberOfReservesMintedFor(address,uint256)": "6825bb80",
    "recordAddTiers((uint256,uint256,uint256,uint256,uint256,address,bytes32,bool)[])": "27619754",
    "recordBurn(uint256[])": "86bc2be3",
    "recordLockReservedTokenChanges(bool)": "07cd9406",
    "recordLockVotingUnitChanges(bool)": "1877d7b1",
    "recordMint(uint256,uint16[])": "16b047de",
    "recordMintBestAvailableTier(uint256)": "879791f3",
    "recordMintReservesFor(uint256,uint256)": "baa7e80e",
    "recordRemoveTierIds(uint256[])": "20512ba1",
    "recordSetBaseUri(string)": "6262bcb2",
    "recordSetContractUri(string)": "d67b78fd",
    "recordSetDefaultReservedTokenBeneficiary(address)": "17161f7d",
    "recordSetFirstOwnerOf(uint256,address)": "8cec7d39",
    "recordSetTokenUriResolver(address)": "d84a72c0",
    "recordTransferForTier(uint256,address,address)": "c2c55f94",
    "redemptionWeightOf(address,uint256[])": "144cc2d4",
    "reservedTokenBeneficiaryOf(address,uint256)": "136e651c",
    "tier(address,uint256)": "7473c9a2",
    "tierBalanceOf(address,address,uint256)": "37f44652",
    "tierIdOfToken(uint256)": "42f9914b",
    "tierOfTokenId(address,uint256)": "b67cb047",
    "tierVotingUnitsOf(address,address,uint256)": "2e4d0ea8",
    "tiers(address,uint256,uint256)": "3eb2556a",
    "tokenUriResolverOf(address)": "0fab0947",
    "totalRedemptionWeight(address)": "2ae5e492",
    "totalSupply(address)": "e4dc2aa4",
    "votingUnitsOf(address,address)": "93355578"
  },
  "id": 3
}