{
  "abi": [
    {
      "inputs": [],
      "name": "CANT_MINT_MANUALLY",
      "type": "error"
    },
    {
      "inputs": [],
      "name": "INSUFFICIENT_AMOUNT",
      "type": "error"
    },
    {
      "inputs": [],
      "name": "INSUFFICIENT_RESERVES",
      "type": "error"
    },
    {
      "inputs": [],
      "name": "INVALID_CATEGORY_SORT_ORDER",
      "type": "error"
    },
    {
      "inputs": [],
      "name": "INVALID_LOCKED_UNTIL",
      "type": "error"
    },
    {
      "inputs": [],
      "name": "INVALID_QUANTITY",
      "type": "error"
    },
    {
      "inputs": [],
      "name": "INVALID_TIER",
      "type": "error"
    },
    {
      "inputs": [],
      "name": "MANUAL_MINTING_NOT_ALLOWED",
      "type": "error"
    },
    {
      "inputs": [],
      "name": "MAX_TIERS_EXCEEDED",
      "type": "error"
    },
    {
      "inputs": [],
      "name": "NO_QUANTITY",
      "type": "error"
    },
    {
      "inputs": [],
      "name": "OUT",
      "type": "error"
    },
    {
      "inputs": [],
      "name": "PRICING_RESOLVER_CHANGES_LOCKED",
      "type": "error"
    },
    {
      "inputs": [],
      "name": "RESERVED_RATE_NOT_ALLOWED",
      "type": "error"
    },
    {
      "inputs": [],
      "name": "TIER_LOCKED",
      "type": "error"
    },
    {
      "inputs": [],
      "name": "TIER_REMOVED",
      "type": "error"
    },
    {
      "inputs": [],
      "name": "VOTING_UNITS_NOT_ALLOWED",
      "type": "error"
    },
    {
      "anonymous": false,
      "inputs": [
        {
          "indexed": true,
          "internalType": "address",
          "name": "nft",
          "type": "address"
        },
        {
          "indexed": false,
          "internalType": "address",
          "name": "caller",
          "type": "address"
        }
      ],
      "name": "CleanTiers",
      "type": "event"
    },
    {
      "inputs": [
        {
          "internalType": "address",
          "name": "_nft",
          "type": "address"
        },
        {
          "internalType": "address",
          "name": "_owner",
          "type": "address"
        }
      ],
      "name": "balanceOf",
      "outputs": [
        {
          "internalType": "uint256",
          "name": "balance",
          "type": "uint256"
        }
      ],
      "stateMutability": "view",
      "type": "function"
    },
    {
      "inputs": [
        {
          "internalType": "address",
          "name": "",
          "type": "address"
        }
      ],
      "name": "baseUriOf",
      "outputs": [
        {
          "internalType": "string",
          "name": "",
          "type": "string"
        }
      ],
      "stateMutability": "view",
      "type": "function"
    },
    {
      "inputs": [
        {
          "internalType": "address",
          "name": "_nft",
          "type": "address"
        }
      ],
      "name": "cleanTiers",
      "outputs": [],
      "stateMutability": "nonpayable",
      "type": "function"
    },
    {
      "inputs": [
        {
          "internalType": "address",
          "name": "",
          "type": "address"
        }
      ],
      "name": "contractUriOf",
      "outputs": [
        {
          "internalType": "string",
          "name": "",
          "type": "string"
        }
      ],
      "stateMutability": "view",
      "type": "function"
    },
    {
      "inputs": [
        {
          "internalType": "address",
          "name": "",
          "type": "address"
        }
      ],
      "name": "defaultReservedTokenBeneficiaryOf",
      "outputs": [
        {
          "internalType": "address",
          "name": "",
          "type": "address"
        }
      ],
      "stateMutability": "view",
      "type": "function"
    },
    {
      "inputs": [
        {
          "internalType": "address",
          "name": "",
          "type": "address"
        }
      ],
      "name": "defaultRoyaltyBeneficiaryOf",
      "outputs": [
        {
          "internalType": "address",
          "name": "",
          "type": "address"
        }
      ],
      "stateMutability": "view",
      "type": "function"
    },
    {
      "inputs": [
        {
          "internalType": "address",
          "name": "",
          "type": "address"
        },
        {
          "internalType": "uint256",
          "name": "",
          "type": "uint256"
        }
      ],
      "name": "encodedIPFSUriOf",
      "outputs": [
        {
          "internalType": "bytes32",
          "name": "",
          "type": "bytes32"
        }
      ],
      "stateMutability": "view",
      "type": "function"
    },
    {
      "inputs": [
        {
          "internalType": "address",
          "name": "_nft",
          "type": "address"
        },
        {
          "internalType": "uint256",
          "name": "_tokenId",
          "type": "uint256"
        }
      ],
      "name": "encodedTierIPFSUriOf",
      "outputs": [
        {
          "internalType": "bytes32",
          "name": "",
          "type": "bytes32"
        }
      ],
      "stateMutability": "view",
      "type": "function"
    },
    {
      "inputs": [
        {
          "internalType": "address",
          "name": "",
          "type": "address"
        },
        {
          "internalType": "uint256",
          "name": "",
          "type": "uint256"
        }
      ],
      "name": "firstOwnerOf",
      "outputs": [
        {
          "internalType": "address",
          "name": "",
          "type": "address"
        }
      ],
      "stateMutability": "view",
      "type": "function"
    },
    {
      "inputs": [
        {
          "internalType": "address",
          "name": "_nft",
          "type": "address"
        }
      ],
      "name": "flagsOf",
      "outputs": [
        {
          "components": [
            {
              "internalType": "bool",
              "name": "lockReservedTokenChanges",
              "type": "bool"
            },
            {
              "internalType": "bool",
              "name": "lockVotingUnitChanges",
              "type": "bool"
            },
            {
              "internalType": "bool",
              "name": "lockManualMintingChanges",
              "type": "bool"
            },
            {
              "internalType": "bool",
              "name": "preventOverspending",
              "type": "bool"
            }
          ],
          "internalType": "struct JBTiered721Flags",
          "name": "",
          "type": "tuple"
        }
      ],
      "stateMutability": "view",
      "type": "function"
    },
    {
      "inputs": [
        {
          "internalType": "address",
          "name": "_nft",
          "type": "address"
        },
        {
          "internalType": "uint256",
          "name": "_tierId",
          "type": "uint256"
        }
      ],
      "name": "isTierRemoved",
      "outputs": [
        {
          "internalType": "bool",
          "name": "",
          "type": "bool"
        }
      ],
      "stateMutability": "view",
      "type": "function"
    },
    {
      "inputs": [
        {
          "internalType": "address",
          "name": "",
          "type": "address"
        }
      ],
      "name": "maxTierIdOf",
      "outputs": [
        {
          "internalType": "uint256",
          "name": "",
          "type": "uint256"
        }
      ],
      "stateMutability": "view",
      "type": "function"
    },
    {
      "inputs": [
        {
          "internalType": "address",
          "name": "",
          "type": "address"
        },
        {
          "internalType": "uint256",
          "name": "",
          "type": "uint256"
        }
      ],
      "name": "numberOfBurnedFor",
      "outputs": [
        {
          "internalType": "uint256",
          "name": "",
          "type": "uint256"
        }
      ],
      "stateMutability": "view",
      "type": "function"
    },
    {
      "inputs": [
        {
          "internalType": "address",
          "name": "_nft",
          "type": "address"
        },
        {
          "internalType": "uint256",
          "name": "_tierId",
          "type": "uint256"
        }
      ],
      "name": "numberOfReservedTokensOutstandingFor",
      "outputs": [
        {
          "internalType": "uint256",
          "name": "",
          "type": "uint256"
        }
      ],
      "stateMutability": "view",
      "type": "function"
    },
    {
      "inputs": [
        {
          "internalType": "address",
          "name": "",
          "type": "address"
        },
        {
          "internalType": "uint256",
          "name": "",
          "type": "uint256"
        }
      ],
      "name": "numberOfReservesMintedFor",
      "outputs": [
        {
          "internalType": "uint256",
          "name": "",
          "type": "uint256"
        }
      ],
      "stateMutability": "view",
      "type": "function"
    },
    {
      "inputs": [
        {
          "components": [
            {
              "internalType": "uint80",
              "name": "contributionFloor",
              "type": "uint80"
            },
            {
              "internalType": "uint48",
              "name": "lockedUntil",
              "type": "uint48"
            },
            {
              "internalType": "uint40",
              "name": "initialQuantity",
              "type": "uint40"
            },
            {
              "internalType": "uint16",
              "name": "votingUnits",
              "type": "uint16"
            },
            {
              "internalType": "uint16",
              "name": "reservedRate",
              "type": "uint16"
            },
            {
              "internalType": "address",
              "name": "reservedTokenBeneficiary",
              "type": "address"
            },
            {
              "internalType": "uint8",
              "name": "royaltyRate",
              "type": "uint8"
            },
            {
              "internalType": "address",
              "name": "royaltyBeneficiary",
              "type": "address"
            },
            {
              "internalType": "bytes32",
              "name": "encodedIPFSUri",
              "type": "bytes32"
            },
            {
              "internalType": "uint8",
              "name": "category",
              "type": "uint8"
            },
            {
              "internalType": "bool",
              "name": "allowManualMint",
              "type": "bool"
            },
            {
              "internalType": "bool",
              "name": "shouldUseReservedTokenBeneficiaryAsDefault",
              "type": "bool"
            },
            {
              "internalType": "bool",
              "name": "shouldUseRoyaltyBeneficiaryAsDefault",
              "type": "bool"
            },
            {
              "internalType": "bool",
              "name": "transfersPausable",
              "type": "bool"
            }
          ],
          "internalType": "struct JB721TierParams[]",
          "name": "_tiersToAdd",
          "type": "tuple[]"
        }
      ],
      "name": "recordAddTiers",
      "outputs": [
        {
          "internalType": "uint256[]",
          "name": "tierIds",
          "type": "uint256[]"
        }
      ],
      "stateMutability": "nonpayable",
      "type": "function"
    },
    {
      "inputs": [
        {
          "internalType": "uint256[]",
          "name": "_tokenIds",
          "type": "uint256[]"
        }
      ],
      "name": "recordBurn",
      "outputs": [],
      "stateMutability": "nonpayable",
      "type": "function"
    },
    {
      "inputs": [
        {
          "components": [
            {
              "internalType": "bool",
              "name": "lockReservedTokenChanges",
              "type": "bool"
            },
            {
              "internalType": "bool",
              "name": "lockVotingUnitChanges",
              "type": "bool"
            },
            {
              "internalType": "bool",
              "name": "lockManualMintingChanges",
              "type": "bool"
            },
            {
              "internalType": "bool",
              "name": "preventOverspending",
              "type": "bool"
            }
          ],
          "internalType": "struct JBTiered721Flags",
          "name": "_flags",
          "type": "tuple"
        }
      ],
      "name": "recordFlags",
      "outputs": [],
      "stateMutability": "nonpayable",
      "type": "function"
    },
    {
      "inputs": [
        {
          "internalType": "uint256",
          "name": "_amount",
          "type": "uint256"
        },
        {
          "internalType": "uint16[]",
          "name": "_tierIds",
          "type": "uint16[]"
        },
        {
          "internalType": "bool",
          "name": "_isManualMint",
          "type": "bool"
        }
      ],
      "name": "recordMint",
      "outputs": [
        {
          "internalType": "uint256[]",
          "name": "tokenIds",
          "type": "uint256[]"
        },
        {
          "internalType": "uint256",
          "name": "leftoverAmount",
          "type": "uint256"
        }
      ],
      "stateMutability": "nonpayable",
      "type": "function"
    },
    {
      "inputs": [
        {
          "internalType": "uint256",
          "name": "_tierId",
          "type": "uint256"
        },
        {
          "internalType": "uint256",
          "name": "_count",
          "type": "uint256"
        }
      ],
      "name": "recordMintReservesFor",
      "outputs": [
        {
          "internalType": "uint256[]",
          "name": "tokenIds",
          "type": "uint256[]"
        }
      ],
      "stateMutability": "nonpayable",
      "type": "function"
    },
    {
      "inputs": [
        {
          "internalType": "uint256[]",
          "name": "_tierIds",
          "type": "uint256[]"
        }
      ],
      "name": "recordRemoveTierIds",
      "outputs": [],
      "stateMutability": "nonpayable",
      "type": "function"
    },
    {
      "inputs": [
        {
          "internalType": "string",
          "name": "_uri",
          "type": "string"
        }
      ],
      "name": "recordSetBaseUri",
      "outputs": [],
      "stateMutability": "nonpayable",
      "type": "function"
    },
    {
      "inputs": [
        {
          "internalType": "string",
          "name": "_uri",
          "type": "string"
        }
      ],
      "name": "recordSetContractUri",
      "outputs": [],
      "stateMutability": "nonpayable",
      "type": "function"
    },
    {
      "inputs": [
        {
          "internalType": "address",
          "name": "_beneficiary",
          "type": "address"
        }
      ],
      "name": "recordSetDefaultReservedTokenBeneficiary",
      "outputs": [],
      "stateMutability": "nonpayable",
      "type": "function"
    },
    {
      "inputs": [
        {
          "internalType": "uint256",
          "name": "_tierId",
          "type": "uint256"
        },
        {
          "internalType": "bytes32",
          "name": "_encodedIPFSUri",
          "type": "bytes32"
        }
      ],
      "name": "recordSetEncodedIPFSUriOf",
      "outputs": [],
      "stateMutability": "nonpayable",
      "type": "function"
    },
    {
      "inputs": [
        {
          "internalType": "uint256",
          "name": "_tokenId",
          "type": "uint256"
        },
        {
          "internalType": "address",
          "name": "_owner",
          "type": "address"
        }
      ],
      "name": "recordSetFirstOwnerOf",
      "outputs": [],
      "stateMutability": "nonpayable",
      "type": "function"
    },
    {
      "inputs": [
        {
          "internalType": "contract IJBTokenUriResolver",
          "name": "_resolver",
          "type": "address"
        }
      ],
      "name": "recordSetTokenUriResolver",
      "outputs": [],
      "stateMutability": "nonpayable",
      "type": "function"
    },
    {
      "inputs": [
        {
          "internalType": "uint256",
          "name": "_tierId",
          "type": "uint256"
        },
        {
          "internalType": "address",
          "name": "_from",
          "type": "address"
        },
        {
          "internalType": "address",
          "name": "_to",
          "type": "address"
        }
      ],
      "name": "recordTransferForTier",
      "outputs": [],
      "stateMutability": "nonpayable",
      "type": "function"
    },
    {
      "inputs": [
        {
          "internalType": "address",
          "name": "_nft",
          "type": "address"
        },
        {
          "internalType": "uint256[]",
          "name": "_tokenIds",
          "type": "uint256[]"
        }
      ],
      "name": "redemptionWeightOf",
      "outputs": [
        {
          "internalType": "uint256",
          "name": "weight",
          "type": "uint256"
        }
      ],
      "stateMutability": "view",
      "type": "function"
    },
    {
      "inputs": [
        {
          "internalType": "address",
          "name": "_nft",
          "type": "address"
        },
        {
          "internalType": "uint256",
          "name": "_tierId",
          "type": "uint256"
        }
      ],
      "name": "reservedTokenBeneficiaryOf",
      "outputs": [
        {
          "internalType": "address",
          "name": "",
          "type": "address"
        }
      ],
      "stateMutability": "view",
      "type": "function"
    },
    {
      "inputs": [
        {
          "internalType": "address",
          "name": "_nft",
          "type": "address"
        },
        {
          "internalType": "uint256",
          "name": "_tierId",
          "type": "uint256"
        }
      ],
      "name": "royaltyBeneficiaryOf",
      "outputs": [
        {
          "internalType": "address",
          "name": "",
          "type": "address"
        }
      ],
      "stateMutability": "view",
      "type": "function"
    },
    {
      "inputs": [
        {
          "internalType": "address",
          "name": "_nft",
          "type": "address"
        },
        {
          "internalType": "uint256",
          "name": "_id",
          "type": "uint256"
        }
      ],
      "name": "tier",
      "outputs": [
        {
          "components": [
            {
              "internalType": "uint256",
              "name": "id",
              "type": "uint256"
            },
            {
              "internalType": "uint256",
              "name": "contributionFloor",
              "type": "uint256"
            },
            {
              "internalType": "uint256",
              "name": "lockedUntil",
              "type": "uint256"
            },
            {
              "internalType": "uint256",
              "name": "remainingQuantity",
              "type": "uint256"
            },
            {
              "internalType": "uint256",
              "name": "initialQuantity",
              "type": "uint256"
            },
            {
              "internalType": "uint256",
              "name": "votingUnits",
              "type": "uint256"
            },
            {
              "internalType": "uint256",
              "name": "reservedRate",
              "type": "uint256"
            },
            {
              "internalType": "address",
              "name": "reservedTokenBeneficiary",
              "type": "address"
            },
            {
              "internalType": "uint256",
              "name": "royaltyRate",
              "type": "uint256"
            },
            {
              "internalType": "address",
              "name": "royaltyBeneficiary",
              "type": "address"
            },
            {
              "internalType": "bytes32",
              "name": "encodedIPFSUri",
              "type": "bytes32"
            },
            {
              "internalType": "uint256",
              "name": "category",
              "type": "uint256"
            },
            {
              "internalType": "bool",
              "name": "allowManualMint",
              "type": "bool"
            },
            {
              "internalType": "bool",
              "name": "transfersPausable",
              "type": "bool"
            }
          ],
          "internalType": "struct JB721Tier",
          "name": "",
          "type": "tuple"
        }
      ],
      "stateMutability": "view",
      "type": "function"
    },
    {
      "inputs": [
        {
          "internalType": "address",
          "name": "",
          "type": "address"
        },
        {
          "internalType": "address",
          "name": "",
          "type": "address"
        },
        {
          "internalType": "uint256",
          "name": "",
          "type": "uint256"
        }
      ],
      "name": "tierBalanceOf",
      "outputs": [
        {
          "internalType": "uint256",
          "name": "",
          "type": "uint256"
        }
      ],
      "stateMutability": "view",
      "type": "function"
    },
    {
      "inputs": [
        {
          "internalType": "uint256",
          "name": "_tokenId",
          "type": "uint256"
        }
      ],
      "name": "tierIdOfToken",
      "outputs": [
        {
          "internalType": "uint256",
          "name": "",
          "type": "uint256"
        }
      ],
      "stateMutability": "pure",
      "type": "function"
    },
    {
      "inputs": [
        {
          "internalType": "address",
          "name": "_nft",
          "type": "address"
        },
        {
          "internalType": "uint256",
          "name": "_tokenId",
          "type": "uint256"
        }
      ],
      "name": "tierOfTokenId",
      "outputs": [
        {
          "components": [
            {
              "internalType": "uint256",
              "name": "id",
              "type": "uint256"
            },
            {
              "internalType": "uint256",
              "name": "contributionFloor",
              "type": "uint256"
            },
            {
              "internalType": "uint256",
              "name": "lockedUntil",
              "type": "uint256"
            },
            {
              "internalType": "uint256",
              "name": "remainingQuantity",
              "type": "uint256"
            },
            {
              "internalType": "uint256",
              "name": "initialQuantity",
              "type": "uint256"
            },
            {
              "internalType": "uint256",
              "name": "votingUnits",
              "type": "uint256"
            },
            {
              "internalType": "uint256",
              "name": "reservedRate",
              "type": "uint256"
            },
            {
              "internalType": "address",
              "name": "reservedTokenBeneficiary",
              "type": "address"
            },
            {
              "internalType": "uint256",
              "name": "royaltyRate",
              "type": "uint256"
            },
            {
              "internalType": "address",
              "name": "royaltyBeneficiary",
              "type": "address"
            },
            {
              "internalType": "bytes32",
              "name": "encodedIPFSUri",
              "type": "bytes32"
            },
            {
              "internalType": "uint256",
              "name": "category",
              "type": "uint256"
            },
            {
              "internalType": "bool",
              "name": "allowManualMint",
              "type": "bool"
            },
            {
              "internalType": "bool",
              "name": "transfersPausable",
              "type": "bool"
            }
          ],
          "internalType": "struct JB721Tier",
          "name": "",
          "type": "tuple"
        }
      ],
      "stateMutability": "view",
      "type": "function"
    },
    {
      "inputs": [
        {
          "internalType": "address",
          "name": "_nft",
          "type": "address"
        },
        {
          "internalType": "address",
          "name": "_account",
          "type": "address"
        },
        {
          "internalType": "uint256",
          "name": "_tierId",
          "type": "uint256"
        }
      ],
      "name": "tierVotingUnitsOf",
      "outputs": [
        {
          "internalType": "uint256",
          "name": "",
          "type": "uint256"
        }
      ],
      "stateMutability": "view",
      "type": "function"
    },
    {
      "inputs": [
        {
          "internalType": "address",
          "name": "_nft",
          "type": "address"
        },
        {
          "internalType": "uint256",
          "name": "_category",
          "type": "uint256"
        },
        {
          "internalType": "uint256",
          "name": "_startingId",
          "type": "uint256"
        },
        {
          "internalType": "uint256",
          "name": "_size",
          "type": "uint256"
        }
      ],
      "name": "tiers",
      "outputs": [
        {
          "components": [
            {
              "internalType": "uint256",
              "name": "id",
              "type": "uint256"
            },
            {
              "internalType": "uint256",
              "name": "contributionFloor",
              "type": "uint256"
            },
            {
              "internalType": "uint256",
              "name": "lockedUntil",
              "type": "uint256"
            },
            {
              "internalType": "uint256",
              "name": "remainingQuantity",
              "type": "uint256"
            },
            {
              "internalType": "uint256",
              "name": "initialQuantity",
              "type": "uint256"
            },
            {
              "internalType": "uint256",
              "name": "votingUnits",
              "type": "uint256"
            },
            {
              "internalType": "uint256",
              "name": "reservedRate",
              "type": "uint256"
            },
            {
              "internalType": "address",
              "name": "reservedTokenBeneficiary",
              "type": "address"
            },
            {
              "internalType": "uint256",
              "name": "royaltyRate",
              "type": "uint256"
            },
            {
              "internalType": "address",
              "name": "royaltyBeneficiary",
              "type": "address"
            },
            {
              "internalType": "bytes32",
              "name": "encodedIPFSUri",
              "type": "bytes32"
            },
            {
              "internalType": "uint256",
              "name": "category",
              "type": "uint256"
            },
            {
              "internalType": "bool",
              "name": "allowManualMint",
              "type": "bool"
            },
            {
              "internalType": "bool",
              "name": "transfersPausable",
              "type": "bool"
            }
          ],
          "internalType": "struct JB721Tier[]",
          "name": "_tiers",
          "type": "tuple[]"
        }
      ],
      "stateMutability": "view",
      "type": "function"
    },
    {
      "inputs": [
        {
          "internalType": "address",
          "name": "",
          "type": "address"
        }
      ],
      "name": "tokenUriResolverOf",
      "outputs": [
        {
          "internalType": "contract IJBTokenUriResolver",
          "name": "",
          "type": "address"
        }
      ],
      "stateMutability": "view",
      "type": "function"
    },
    {
      "inputs": [
        {
          "internalType": "address",
          "name": "_nft",
          "type": "address"
        }
      ],
      "name": "totalRedemptionWeight",
      "outputs": [
        {
          "internalType": "uint256",
          "name": "weight",
          "type": "uint256"
        }
      ],
      "stateMutability": "view",
      "type": "function"
    },
    {
      "inputs": [
        {
          "internalType": "address",
          "name": "_nft",
          "type": "address"
        }
      ],
      "name": "totalSupply",
      "outputs": [
        {
          "internalType": "uint256",
          "name": "supply",
          "type": "uint256"
        }
      ],
      "stateMutability": "view",
      "type": "function"
    },
    {
      "inputs": [
        {
          "internalType": "address",
          "name": "_nft",
          "type": "address"
        },
        {
          "internalType": "address",
          "name": "_account",
          "type": "address"
        }
      ],
      "name": "votingUnitsOf",
      "outputs": [
        {
          "internalType": "uint256",
          "name": "units",
          "type": "uint256"
        }
      ],
      "stateMutability": "view",
      "type": "function"
    }
  ],
  "bytecode": {
    "object": "0x608060405234801561001057600080fd5b506139a4806100206000396000f3fe608060405234801561001057600080fd5b50600436106102535760003560e01c806386bc2be311610146578063c8df1710116100c3578063e4dc2aa411610087578063e4dc2aa41461078c578063eaa19ab31461079f578063f1bea54f146107c0578063f25abeda146107e0578063f682eeaf146107f3578063f7888aec1461080657600080fd5b8063c8df1710146106f6578063cb827e3214610709578063d65981a91461071c578063d67b78fd1461073c578063d84a72c01461074f57600080fd5b8063aab0cd801161010a578063aab0cd8014610672578063b67cb04714610692578063baa7e80e146106a5578063bd51923c146106b8578063c2c55f94146106e357600080fd5b806386bc2be3146105a65780638cec7d39146105b95780638ed6c01014610602578063911c80b514610636578063933555781461065f57600080fd5b806335314b92116101d45780635f646611116101985780635f646611146104555780636262bcb2146104785780636825bb801461048b5780637473c9a2146104b6578063845104de146104d657600080fd5b806335314b92146103b157806337f44652146103c457806342f9914b146103f5578063453b5abe1461040857806349bd1ac61461042857600080fd5b806317161f7d1161021b57806317161f7d1461031057806320512ba11461034d5780632ae5e492146103605780632b7e6ef0146103735780632e4d0ea81461039e57600080fd5b8063086bb19a146102585780630fab09471461026d578063136e651c146102b3578063144cc2d4146102c657806315fa7dff146102e7575b600080fd5b61026b610266366004612ec8565b610819565b005b61029661027b366004612ec8565b6010602052600090815260409020546001600160a01b031681565b6040516001600160a01b0390911681526020015b60405180910390f35b6102966102c1366004612ee5565b6109ae565b6102d96102d4366004612f5d565b610a07565b6040519081526020016102aa565b6102966102f5366004612ec8565b600d602052600090815260409020546001600160a01b031681565b61026b61031e366004612ec8565b336000908152600c6020526040902080546001600160a01b0319166001600160a01b0392909216919091179055565b61026b61035b366004612fb2565b610a85565b6102d961036e366004612ec8565b610b32565b6102d9610381366004612ee5565b600b60209081526000928352604080842090915290825290205481565b6102d96103ac366004612ff4565b610c9c565b6102d96103bf366004612ee5565b610d21565b6102d96103d2366004612ff4565b600960209081526000938452604080852082529284528284209052825290205481565b6102d9610403366004613035565b610df8565b61041b61041636600461304e565b610e08565b6040516102aa91906130ff565b61026b610436366004613112565b3360009081526012602090815260408083209483529390529190912055565b610468610463366004612ee5565b611884565b60405190151581526020016102aa565b61026b610486366004613134565b6118bc565b6102d9610499366004612ee5565b600a60209081526000928352604080842090915290825290205481565b6104c96104c4366004612ee5565b6118db565b6040516102aa919061323f565b61056b6104e4366004612ec8565b604080516080810182526000808252602082018190529181018290526060810191909152506001600160a01b03166000908152600460209081526040918290208251608081018452905460ff808216151583526101008204811615159383019390935262010000810483161515938201939093526301000000909204161515606082015290565b6040516102aa919081511515815260208083015115159082015260408083015115159082015260609182015115159181019190915260800190565b61026b6105b4366004612fb2565b611ae7565b61026b6105c736600461324e565b336000908152600e602090815260408083209483529390529190912080546001600160a01b0319166001600160a01b03909216919091179055565b610296610610366004612ee5565b600e6020908152600092835260408084209091529082529020546001600160a01b031681565b610296610644366004612ec8565b600c602052600090815260409020546001600160a01b031681565b6102d961066d36600461327e565b611bab565b610685610680366004612ec8565b611c5b565b6040516102aa91906132ac565b6104c96106a0366004612ee5565b611cf5565b61041b6106b3366004613112565b611f26565b6102d96106c6366004612ee5565b601260209081526000928352604080842090915290825290205481565b61026b6106f13660046132fa565b612166565b6102d9610704366004612ee5565b6121f9565b61026b61071736600461333c565b612232565b61072f61072a366004613354565b61224d565b6040516102aa919061338f565b61026b61074a366004613134565b6125da565b61026b61075d366004612ec8565b33600090815260106020526040902080546001600160a01b0319166001600160a01b0392909216919091179055565b6102d961079a366004612ec8565b6125f4565b6107b26107ad3660046133f7565b61267c565b6040516102aa929190613456565b6102d96107ce366004612ec8565b60086020526000908152604090205481565b6102966107ee366004612ee5565b6129e9565b610685610801366004612ec8565b612a3f565b6102d961081436600461327e565b612a58565b600061082482612ac4565b90506000610833836000612b05565b6001600160a01b038416600090815260056020526040812091925090819061085b9084612b6c565b90505b82156109695761086e8184612bb2565b15610898576001600160a01b03851660009081526005602052604090206108959084612b6c565b90505b6108a28184612bcc565b610957576108b182600161348e565b8314610909576001600160a01b0385166000908152602081815260408083208584529091529020548314610904576001600160a01b03851660009081526020818152604080832085845290915290208390555b610953565b6001600160a01b03851660009081526020818152604080832085845290915290205415610953576001600160a01b0385166000908152602081815260408083208584529091528120555b8291505b610962858486612beb565b925061085e565b6040513381526001600160a01b038616907f4a0f854ce3c180d56f3e9eb47eb064c595bf3de0ab9af45425291e5b1bb733a89060200160405180910390a25050505050565b6001600160a01b03808316600090815260016020908152604080832085845290915281205490911680156109e3579050610a01565b50506001600160a01b038083166000908152600c6020526040902054165b92915050565b600081815b81811015610a7c576001600160a01b038616600090815260036020526040812090610a4e878785818110610a4257610a426134a1565b90506020020135610df8565b8152602081019190915260400160002054610a72906001600160501b03168461348e565b9250600101610a0c565b50509392505050565b806000805b82811015610b2b57848482818110610aa457610aa46134a1565b336000908152600360209081526040808320938202959095013580835292905292909220549193504291610aec91506363b0cd0090600160501b900464ffffffffff1661348e565b10610b0a57604051636b73d51160e11b815260040160405180910390fd5b336000908152600560205260409020610b239083612c36565b600101610a8a565b5050505050565b6001600160a01b038116600090815260086020526040812054610b53612dc9565b60005b82811015610c94576001600160a01b0385166000908152600360209081526040808320600180860185529083529281902081516101408101835281546001600160501b038116825264ffffffffff600160501b8204811695830195909552600160781b8104851693820193909352600160a01b8304909316606084015261ffff600160c81b830481166080850152600160d81b83041660a084015260ff600160e81b8304811660c0850152600160f01b8304811660e0850152600160f81b909204821615156101008401528301541615156101208201529250610c46908690610c4090849061348e565b84612c6f565b82604001518360600151610c5a91906134b7565b64ffffffffff16610c6b919061348e565b8251610c8091906001600160501b03166134dc565b610c8a908561348e565b9350600101610b56565b505050919050565b6001600160a01b0380841660009081526009602090815260408083209386168352928152828220848352905290812054808203610cdd576000915050610d1a565b6001600160a01b0385166000908152600360209081526040808320868452909152902054610d1690600160c81b900461ffff16826134dc565b9150505b9392505050565b6001600160a01b0382166000908152600360209081526040808320848452825280832081516101408101835281546001600160501b038116825264ffffffffff600160501b8204811695830195909552600160781b8104851693820193909352600160a01b8304909316606084015261ffff600160c81b830481166080850152600160d81b83041660a084015260ff600160e81b8304811660c0850152600160f01b8304811660e0850152600160f81b9092048216151561010084015260010154161515610120820152610d1a9084908490612c6f565b6000610a01633b9aca0083613509565b33600090815260086020526040902054606090829061ffff610e2a838361348e565b1115610e4957604051631bc68c8b60e11b815260040160405180910390fd5b6000610e5433612ac4565b90508267ffffffffffffffff811115610e6f57610e6f61351d565b604051908082528060200260200182016040528015610e98578160200160208202803683370190505b50935060008215610eb357610eae336000612b05565b610eb6565b60005b604080516101c081018252600080825260208201819052918101829052606081018290526080810182905260a0810182905260c0810182905260e08101829052610100810182905261012081018290526101408101829052610160810182905261018081018290526101a08101829052919250903360009081526004602090815260408083208151608081018352905460ff80821615158352610100820481161515948301949094526201000081048416151592820192909252630100000090910490911615156060820152905b8781101561185b578a8a82818110610f9e57610f9e6134a1565b90506101c00201803603810190610fb591906135c2565b9250610fc66001633b9aca006136cb565b836040015164ffffffffff161115610ff1576040516349016ea360e01b815260040160405180910390fd5b80156110745760008b8b6110066001856136cb565b818110611015576110156134a1565b90506101c0020180360381019061102c91906135c2565b905083610120015160ff1660001480611054575080610120015160ff1684610120015160ff16105b1561107257604051631cabebd560e21b815260040160405180910390fd5b505b8160200151801561108c5750606083015161ffff1615155b156110aa57604051630189200360e11b815260040160405180910390fd5b8151806110b957508261014001515b80156110cc5750608083015161ffff1615155b156110ea5760405163a75b1cd560e01b815260040160405180910390fd5b816040015180156110fd57508261014001515b1561111b576040516330ec637f60e01b815260040160405180910390fd5b826040015164ffffffffff1660000361114757604051631e0a863160e31b815260040160405180910390fd5b602083015165ffffffffffff161580159061116d575042836020015165ffffffffffff16105b1561118b5760405163d509b54d60e01b815260040160405180910390fd5b6000611197828961348e565b6111a290600161348e565b905060405180610140016040528085600001516001600160501b03168152602001856020015165ffffffffffff166000146111f8576363b0cd00866020015165ffffffffffff166111f391906136cb565b6111fb565b60005b64ffffffffff168152602001856040015164ffffffffff168152602001856040015164ffffffffff168152602001856060015161ffff168152602001856080015161ffff1681526020018560c0015160ff16815260200185610120015160ff16815260200185610140015115158152602001856101a00151151581525060036000336001600160a01b03166001600160a01b03168152602001908152602001600020600083815260200190815260200160002060008201518160000160006101000a8154816001600160501b0302191690836001600160501b03160217905550602082015181600001600a6101000a81548164ffffffffff021916908364ffffffffff160217905550604082015181600001600f6101000a81548164ffffffffff021916908364ffffffffff16021790555060608201518160000160146101000a81548164ffffffffff021916908364ffffffffff16021790555060808201518160000160196101000a81548161ffff021916908361ffff16021790555060a082015181600001601b6101000a81548161ffff021916908361ffff16021790555060c082015181600001601d6101000a81548160ff021916908360ff16021790555060e082015181600001601e6101000a81548160ff021916908360ff16021790555061010082015181600001601f6101000a81548160ff0219169083151502179055506101208201518160010160006101000a81548160ff02191690831515021790555090505060076000336001600160a01b03166001600160a01b03168152602001908152602001600020600085610120015160ff1681526020019081526020016000205460000361148f5733600090815260076020908152604080832061012088015160ff16845290915290208190555b60a08401516001600160a01b03161561154c5783610160015180156114d4575060a0840151336000908152600c60205260409020546001600160a01b03908116911614155b1561150f5760a0840151336000908152600c6020526040902080546001600160a01b0319166001600160a01b0390921691909117905561154c565b60a0840151336000908152600160209081526040808320858452909152902080546001600160a01b0319166001600160a01b039092169190911790555b60e08401516001600160a01b031615611609578361018001518015611591575060e0840151336000908152600d60205260409020546001600160a01b03908116911614155b156115cc5760e0840151336000908152600d6020526040902080546001600160a01b0319166001600160a01b03909216919091179055611609565b60e0840151336000908152600260209081526040808320858452909152902080546001600160a01b0319166001600160a01b039092169190911790555b61010084015115611636576101008401513360009081526012602090815260408083208584529091529020555b8515611834573360009081526005602052604081208791906116589083612b6c565b905060005b82156118305761166d8284612bb2565b1561168e5733600090815260056020526040902061168b9084612b6c565b91505b61169933848c612beb565b33600090815260036020908152604080832087845290915290205461012089015191925060ff600160f01b9091048116911610156117b6576116dc84600161348e565b83146116fe573360009081526020818152604080832087845290915290208390555b61170960018d6136cb565b851480156117265750336000908152600660205260409020548a14155b1561173e573360009081526006602052604090208a90555b6117496001856136cb565b8814158061176e5750336000908152602081815260408083208b845290915290205415155b156117a75761177e6001856136cb565b881461178a578361178d565b60005b336000908152602081815260408083208c84529091529020555b8298508397506000925061165d565b8015806117c257508a81115b15611827576117d283600161348e565b84146117f4573360009081526020818152604080832086845290915290208490555b3360009081526006602052604081205494995089949093501561182257336000908152600660205260408120555b61165d565b9196508161165d565b5050505b808a8381518110611847576118476134a1565b602090810291909101015250600101610f84565b50611866878761348e565b33600090815260086020526040902055509598975050505050505050565b6001600160a01b038216600090815260056020526040812081906118a89084612b6c565b90506118b48184612bcc565b949350505050565b336000908152600f602052604090206118d6828483613760565b505050565b6118e3612e1d565b6001600160a01b0383166000908152600360209081526040808320858452825280832081516101408101835281546001600160501b038116825264ffffffffff600160501b8204811695830195909552600160781b8104851693820193909352600160a01b8304909316606084015261ffff600160c81b830481166080850152600160d81b83041660a084015260ff600160e81b8304811660c0850152600160f01b8304811660e0850152600160f81b9092048216151561010084015260010154161515610120820152906119b885856109ae565b9050604051806101c0016040528085815260200183600001516001600160501b03168152602001836020015164ffffffffff166363b0cd006119fa919061348e565b8152602001836040015164ffffffffff168152602001836060015164ffffffffff168152602001836080015161ffff16815260200160006001600160a01b0316836001600160a01b031614611a53578360a00151611a56565b60005b61ffff168152602001826001600160a01b031681526020018360c0015160ff168152602001611a8587876129e9565b6001600160a01b03908116825287166000908152601260209081526040808320898452825291829020549083015260e085015160ff16908201526101008401511515606082015261012090930151151560809093019290925250905092915050565b806000805b82811015610b2b57848482818110611b0657611b066134a1565b9050602002013591506000611b1a83610df8565b336000908152600b602090815260408083208484529091528120805492935090611b4383613820565b909155505033600090815260036020908152604080832084845290915290208054600160781b900464ffffffffff1690600f611b7e83613839565b91906101000a81548164ffffffffff021916908364ffffffffff1602179055505081600101915050611aec565b6001600160a01b03821660009081526008602052604081205481815b8015611c52576001600160a01b03808716600090815260096020908152604080832093891683529281528282208483529052205491508115611c49576001600160a01b0386166000908152600360209081526040808320848452909152902054611c3c90600160c81b900461ffff16836134dc565b611c46908561348e565b93505b60001901611bc7565b50505092915050565b60116020526000908152604090208054611c74906136de565b80601f0160208091040260200160405190810160405280929190818152602001828054611ca0906136de565b8015611ced5780601f10611cc257610100808354040283529160200191611ced565b820191906000526020600020905b815481529060010190602001808311611cd057829003601f168201915b505050505081565b611cfd612e1d565b6000611d0883610df8565b6001600160a01b0385166000908152600360209081526040808320848452825280832081516101408101835281546001600160501b038116825264ffffffffff600160501b8204811695830195909552600160781b8104851693820193909352600160a01b8304909316606084015261ffff600160c81b830481166080850152600160d81b83041660a084015260ff600160e81b8304811660c0850152600160f01b8304811660e0850152600160f81b9092048216151561010084015260010154161515610120820152919250611ddf86846109ae565b9050604051806101c0016040528084815260200183600001516001600160501b03168152602001836020015164ffffffffff166363b0cd00611e21919061348e565b8152602001836040015164ffffffffff168152602001836060015164ffffffffff168152602001836080015161ffff16815260200160006001600160a01b0316836001600160a01b031614611e7a578360a00151611e7d565b60005b61ffff168152602001826001600160a01b031681526020018360c0015160ff168152602001611eac88866129e9565b6001600160a01b0316815260200160126000896001600160a01b03166001600160a01b0316815260200190815260200160002060008681526020019081526020016000205481526020018360e0015160ff168152602001836101000151151581526020018361012001511515815250935050505092915050565b336000818152600360209081526040808320868452825280832081516101408101835281546001600160501b038116825264ffffffffff600160501b8204811695830195909552600160781b8104851693820193909352600160a01b830490931660608481019190915261ffff600160c81b840481166080860152600160d81b84041660a085015260ff600160e81b8404811660c0860152600160f01b8404811660e0860152600160f81b90930483161515610100850152600182015490921615156101208401529093909291611fff91908790612c6f565b9050808411156120225760405163226f999960e11b815260040160405180910390fd5b336000908152600a602090815260408083208884529091528120805486929061204c90849061348e565b9091555084905067ffffffffffffffff81111561206b5761206b61351d565b604051908082528060200260200182016040528015612094578160200160208202803683370190505b50336000908152600b602090815260408083208984529091528120549194505b8581101561215c57612137878386600001600f81819054906101000a900464ffffffffff166120e29061385d565b91906101000a81548164ffffffffff021916908364ffffffffff16021790558760000160149054906101000a900464ffffffffff1661212191906134b7565b64ffffffffff16612132919061348e565b612dae565b858281518110612149576121496134a1565b60209081029190910101526001016120b4565b5050505092915050565b6001600160a01b038216156121b3573360009081526009602090815260408083206001600160a01b03861684528252808320868452909152812080549091906121ae9061387e565b909155505b6001600160a01b038116156118d6573360009081526009602090815260408083206001600160a01b03851684528252808320868452909152902080546001019055505050565b6001600160a01b03821660009081526012602052604081208161221b84610df8565b815260200190815260200160002054905092915050565b33600090815260046020526040902081906118d682826138a2565b6060600061225a86612ac4565b90508267ffffffffffffffff8111156122755761227561351d565b6040519080825280602002602001820160405280156122ae57816020015b61229b612e1d565b8152602001906001900390816122935790505b509150600080856000036122cb576122c68888612b05565b6122cd565b855b90506122d7612dc9565b6001600160a01b03891660009081526005602052604081206122f99084612b6c565b90505b821580159061230a57508684105b156125c2576123198184612bb2565b15612343576001600160a01b038a1660009081526005602052604090206123409084612b6c565b90505b61234d8184612bcc565b6125b0576001600160a01b038a166000908152600360209081526040808320868452825280832081516101408101835281546001600160501b038116825264ffffffffff600160501b8204811695830195909552600160781b8104851693820193909352600160a01b8304909316606084015261ffff600160c81b830481166080850152600160d81b83041660a084015260ff600160e81b8304811660c0850152600160f01b8304811660e0850152600160f81b909204821615156101008401526001015416151561012082015292506124278b856109ae565b905089158061243c5750898360e0015160ff16145b1561258e57604051806101c0016040528085815260200184600001516001600160501b03168152602001846020015164ffffffffff166363b0cd00612481919061348e565b8152602001846040015164ffffffffff168152602001846060015164ffffffffff168152602001846080015161ffff16815260200160006001600160a01b0316836001600160a01b0316146124da578460a001516124dd565b60005b61ffff168152602001826001600160a01b031681526020018460c0015160ff16815260200161250c8d876129e9565b6001600160a01b0390811682528d166000908152601260209081526040808320898452825291829020549083015260e086015160ff1690820152610100850151151560608201526101208501511515608090910152878661256c81613820565b97508151811061257e5761257e6134a1565b60200260200101819052506125ae565b60008a1180156125a45750898360e0015160ff16115b156125ae57600093505b505b6125bb8a8487612beb565b92506122fc565b8684146125cd578386525b5050505050949350505050565b3360009081526011602052604090206118d6828483613760565b6001600160a01b0381166000908152600860205260408120548190805b8015610c94576001600160a01b0385166000908152600360209081526040808320848452909152902080549093506126609064ffffffffff600160781b8204811691600160a01b9004166134b7565b6126719064ffffffffff168561348e565b935060001901612611565b606084836000808267ffffffffffffffff81111561269c5761269c61351d565b6040519080825280602002602001820160405280156126c5578160200160208202803683370190505b509450600061270e898960008181106126e0576126e06134a1565b90506020020160208101906126f5919061393f565b3360009081526005602052604090209061ffff16612b6c565b905060005b848110156129db5789898281811061272d5761272d6134a1565b9050602002016020810190612742919061393f565b61ffff1692506127528284612bb2565b15612773573360009081526005602052604090206127709084612b6c565b91505b61277d8284612bcc565b1561279b5760405163d32cb5c160e01b815260040160405180910390fd5b336000908152600360209081526040808320868452909152902093508780156127cd57508354600160f81b900460ff16155b156127eb57604051632f792d3960e11b815260040160405180910390fd5b8354600160a01b900464ffffffffff1660000361281b57604051630de5859f60e01b815260040160405180910390fd5b83546001600160501b031686101561284657604051632cd294cf60e01b815260040160405180910390fd5b604080516101408101825285546001600160501b038116825264ffffffffff600160501b820481166020840152600160781b8204811693830193909352600160a01b8104909216606082015261ffff600160c81b830481166080830152600160d81b83041660a082015260ff600160e81b8304811660c0830152600160f01b8304811660e0830152600160f81b90920482161515610100820152600186015490911615156101208201526128fd9033908590612c6f565b84546129179190600160781b900464ffffffffff166136cb565b6000036129375760405163985a45d960e01b815260040160405180910390fd5b336000908152600b60209081526040808320868452909152902054845460001964ffffffffff600160781b808404821692830182160264ffffffffff60781b199093169290921780885561299f938793600160a01b9092048216929092036001011601612dae565b8782815181106129b1576129b16134a1565b602090810291909101015283546129d1906001600160501b0316876136cb565b9550600101612713565b505050505094509492505050565b6001600160a01b0380831660009081526002602090815260408083208584529091528120549091168015612a1e579050610a01565b5050506001600160a01b039081166000908152600d60205260409020541690565b600f6020526000908152604090208054611c74906136de565b6001600160a01b038216600090815260086020526040812054805b8015612abc576001600160a01b038086166000908152600960209081526040808320938816835292815282822084835290522054612ab1908461348e565b925060001901612a73565b505092915050565b6001600160a01b03811660009081526006602052604081205490819003612b0057506001600160a01b0381166000908152600860205260409020545b919050565b60008115612b36576001600160a01b0383166000908152600760209081526040808320858452909152902054612b59565b6001600160a01b0383166000908152602081815260408083208380529091529020545b905080600003610a015750600192915050565b60408051808201909152600080825260208201526000612b8c8360081c90565b604080518082018252600083815260209788529190912054815294850152509192915050565b60008260200151612bc38360081c90565b14159392505050565b6000612bda6101008361395a565b83516001911c811614905092915050565b6000818303612bfc57506000610d1a565b6001600160a01b0384166000908152602081815260408083208684529091529020548015612c2b579050610d1a565b610d1684600161348e565b6000612c428260081c90565b9050612c506101008361395a565b6000918252602093909352604090208054600190931b90921790915550565b60008160a0015161ffff1660001480612c9d5750816040015164ffffffffff16826060015164ffffffffff16145b80612cba57506000612caf85856109ae565b6001600160a01b0316145b15612cc757506000610d1a565b6001600160a01b0384166000908152600a60209081526040808320868452909152908190205490830151606084015164ffffffffff91821691612d0c918491166136cb565b03612d1b576000915050610d1a565b60008184604001518560600151612d3291906134b7565b64ffffffffff16612d4391906136cb565b905060008460a0015161ffff1682612d5b9190613509565b905060008560a0015161ffff1683612d73919061395a565b1115612d8557612d8281613820565b90505b80831115612d995760009350505050610d1a565b612da383826136cb565b979650505050505050565b600081612dbf633b9aca00856134dc565b610d1a919061348e565b6040805161014081018252600080825260208201819052918101829052606081018290526080810182905260a0810182905260c0810182905260e08101829052610100810182905261012081019190915290565b604051806101c001604052806000815260200160008152602001600081526020016000815260200160008152602001600081526020016000815260200160006001600160a01b031681526020016000815260200160006001600160a01b0316815260200160008019168152602001600081526020016000151581526020016000151581525090565b6001600160a01b0381168114612eba57600080fd5b50565b8035612b0081612ea5565b600060208284031215612eda57600080fd5b8135610d1a81612ea5565b60008060408385031215612ef857600080fd5b8235612f0381612ea5565b946020939093013593505050565b60008083601f840112612f2357600080fd5b50813567ffffffffffffffff811115612f3b57600080fd5b6020830191508360208260051b8501011115612f5657600080fd5b9250929050565b600080600060408486031215612f7257600080fd5b8335612f7d81612ea5565b9250602084013567ffffffffffffffff811115612f9957600080fd5b612fa586828701612f11565b9497909650939450505050565b60008060208385031215612fc557600080fd5b823567ffffffffffffffff811115612fdc57600080fd5b612fe885828601612f11565b90969095509350505050565b60008060006060848603121561300957600080fd5b833561301481612ea5565b9250602084013561302481612ea5565b929592945050506040919091013590565b60006020828403121561304757600080fd5b5035919050565b6000806020838503121561306157600080fd5b823567ffffffffffffffff8082111561307957600080fd5b818501915085601f83011261308d57600080fd5b81358181111561309c57600080fd5b8660206101c0830285010111156130b257600080fd5b60209290920196919550909350505050565b600081518084526020808501945080840160005b838110156130f4578151875295820195908201906001016130d8565b509495945050505050565b602081526000610d1a60208301846130c4565b6000806040838503121561312557600080fd5b50508035926020909101359150565b6000806020838503121561314757600080fd5b823567ffffffffffffffff8082111561315f57600080fd5b818501915085601f83011261317357600080fd5b81358181111561318257600080fd5b8660208285010111156130b257600080fd5b805182526020810151602083015260408101516040830152606081015160608301526080810151608083015260a081015160a083015260c081015160c083015260e08101516131ee60e08401826001600160a01b03169052565b506101008181015190830152610120808201516001600160a01b03169083015261014080820151908301526101608082015190830152610180808201511515908301526101a0908101511515910152565b6101c08101610a018284613194565b6000806040838503121561326157600080fd5b82359150602083013561327381612ea5565b809150509250929050565b6000806040838503121561329157600080fd5b823561329c81612ea5565b9150602083013561327381612ea5565b600060208083528351808285015260005b818110156132d9578581018301518582016040015282016132bd565b506000604082860101526040601f19601f8301168501019250505092915050565b60008060006060848603121561330f57600080fd5b83359250602084013561332181612ea5565b9150604084013561333181612ea5565b809150509250925092565b60006080828403121561334e57600080fd5b50919050565b6000806000806080858703121561336a57600080fd5b843561337581612ea5565b966020860135965060408601359560600135945092505050565b6020808252825182820181905260009190848201906040850190845b818110156133d2576133be838551613194565b928401926101c092909201916001016133ab565b50909695505050505050565b8015158114612eba57600080fd5b8035612b00816133de565b6000806000806060858703121561340d57600080fd5b84359350602085013567ffffffffffffffff81111561342b57600080fd5b61343787828801612f11565b909450925050604085013561344b816133de565b939692955090935050565b60408152600061346960408301856130c4565b90508260208301529392505050565b634e487b7160e01b600052601160045260246000fd5b80820180821115610a0157610a01613478565b634e487b7160e01b600052603260045260246000fd5b64ffffffffff8281168282160390808211156134d5576134d5613478565b5092915050565b8082028115828204841417610a0157610a01613478565b634e487b7160e01b600052601260045260246000fd5b600082613518576135186134f3565b500490565b634e487b7160e01b600052604160045260246000fd5b6040516101c0810167ffffffffffffffff811182821017156135575761355761351d565b60405290565b80356001600160501b0381168114612b0057600080fd5b803565ffffffffffff81168114612b0057600080fd5b803564ffffffffff81168114612b0057600080fd5b803561ffff81168114612b0057600080fd5b803560ff81168114612b0057600080fd5b60006101c082840312156135d557600080fd5b6135dd613533565b6135e68361355d565b81526135f460208401613574565b60208201526136056040840161358a565b60408201526136166060840161359f565b60608201526136276080840161359f565b608082015261363860a08401612ebd565b60a082015261364960c084016135b1565b60c082015261365a60e08401612ebd565b60e082015261010083810135908201526101206136788185016135b1565b9082015261014061368a8482016133ec565b9082015261016061369c8482016133ec565b908201526101806136ae8482016133ec565b908201526101a06136c08482016133ec565b908201529392505050565b81810381811115610a0157610a01613478565b600181811c908216806136f257607f821691505b60208210810361334e57634e487b7160e01b600052602260045260246000fd5b601f8211156118d657600081815260208120601f850160051c810160208610156137395750805b601f850160051c820191505b8181101561375857828155600101613745565b505050505050565b67ffffffffffffffff8311156137785761377861351d565b61378c8361378683546136de565b83613712565b6000601f8411600181146137c057600085156137a85750838201355b600019600387901b1c1916600186901b178355610b2b565b600083815260209020601f19861690835b828110156137f157868501358255602094850194600190920191016137d1565b508682101561380e5760001960f88860031b161c19848701351681555b505060018560011b0183555050505050565b60006001820161383257613832613478565b5060010190565b600064ffffffffff80831681810361385357613853613478565b6001019392505050565b600064ffffffffff82168061387457613874613478565b6000190192915050565b60008161388d5761388d613478565b506000190190565b60008135610a01816133de565b81356138ad816133de565b815460ff19811691151560ff16918217835560208401356138cd816133de565b61ff0090151560081b1661ffff19821683178117845560408501356138f1816133de565b62ff000081151560101b168462ffffff1985161783171785555050505061393b61391d60608401613895565b82805463ff000000191691151560181b63ff00000016919091179055565b5050565b60006020828403121561395157600080fd5b610d1a8261359f565b600082613969576139696134f3565b50069056fea26469706673582212208bd269d1d8e485d3d82322690b05ed84411ce52ce0b7f3d9f17abc94fc54921064736f6c63430008110033",
    "linkReferences": {}
  },
  "methodIdentifiers": {
    "balanceOf(address,address)": "f7888aec",
    "baseUriOf(address)": "f682eeaf",
    "cleanTiers(address)": "086bb19a",
    "contractUriOf(address)": "aab0cd80",
    "defaultReservedTokenBeneficiaryOf(address)": "911c80b5",
    "defaultRoyaltyBeneficiaryOf(address)": "15fa7dff",
    "encodedIPFSUriOf(address,uint256)": "bd51923c",
    "encodedTierIPFSUriOf(address,uint256)": "c8df1710",
    "firstOwnerOf(address,uint256)": "8ed6c010",
    "flagsOf(address)": "845104de",
    "isTierRemoved(address,uint256)": "5f646611",
    "maxTierIdOf(address)": "f1bea54f",
    "numberOfBurnedFor(address,uint256)": "2b7e6ef0",
    "numberOfReservedTokensOutstandingFor(address,uint256)": "35314b92",
    "numberOfReservesMintedFor(address,uint256)": "6825bb80",
    "recordAddTiers((uint80,uint48,uint40,uint16,uint16,address,uint8,address,bytes32,uint8,bool,bool,bool,bool)[])": "453b5abe",
    "recordBurn(uint256[])": "86bc2be3",
    "recordFlags((bool,bool,bool,bool))": "cb827e32",
    "recordMint(uint256,uint16[],bool)": "eaa19ab3",
    "recordMintReservesFor(uint256,uint256)": "baa7e80e",
    "recordRemoveTierIds(uint256[])": "20512ba1",
    "recordSetBaseUri(string)": "6262bcb2",
    "recordSetContractUri(string)": "d67b78fd",
    "recordSetDefaultReservedTokenBeneficiary(address)": "17161f7d",
    "recordSetEncodedIPFSUriOf(uint256,bytes32)": "49bd1ac6",
    "recordSetFirstOwnerOf(uint256,address)": "8cec7d39",
    "recordSetTokenUriResolver(address)": "d84a72c0",
    "recordTransferForTier(uint256,address,address)": "c2c55f94",
    "redemptionWeightOf(address,uint256[])": "144cc2d4",
    "reservedTokenBeneficiaryOf(address,uint256)": "136e651c",
    "royaltyBeneficiaryOf(address,uint256)": "f25abeda",
    "tier(address,uint256)": "7473c9a2",
    "tierBalanceOf(address,address,uint256)": "37f44652",
    "tierIdOfToken(uint256)": "42f9914b",
    "tierOfTokenId(address,uint256)": "b67cb047",
    "tierVotingUnitsOf(address,address,uint256)": "2e4d0ea8",
    "tiers(address,uint256,uint256,uint256)": "d65981a9",
    "tokenUriResolverOf(address)": "0fab0947",
    "totalRedemptionWeight(address)": "2ae5e492",
    "totalSupply(address)": "e4dc2aa4",
    "votingUnitsOf(address,address)": "93355578"
  },
  "id": 5
}