{
  "abi": [
    {
      "inputs": [],
      "name": "INSUFFICIENT_AMOUNT",
      "type": "error"
    },
    {
      "inputs": [],
      "name": "INSUFFICIENT_RESERVES",
      "type": "error"
    },
    {
      "inputs": [],
      "name": "INVALID_PRICE_SORT_ORDER",
      "type": "error"
    },
    {
      "inputs": [],
      "name": "INVALID_TIER",
      "type": "error"
    },
    {
      "inputs": [],
      "name": "NO_QUANTITY",
      "type": "error"
    },
    {
      "inputs": [],
      "name": "OUT",
      "type": "error"
    },
    {
      "inputs": [],
      "name": "RESERVED_RATE_NOT_ALLOWED",
      "type": "error"
    },
    {
      "inputs": [],
      "name": "TIER_LOCKED",
      "type": "error"
    },
    {
      "inputs": [],
      "name": "TIER_REMOVED",
      "type": "error"
    },
    {
      "inputs": [],
      "name": "VOTING_UNITS_NOT_ALLOWED",
      "type": "error"
    },
    {
      "anonymous": false,
      "inputs": [
        {
          "indexed": true,
          "internalType": "address",
          "name": "nft",
          "type": "address"
        },
        {
          "indexed": false,
          "internalType": "address",
          "name": "caller",
          "type": "address"
        }
      ],
      "name": "CleanTiers",
      "type": "event"
    },
    {
      "inputs": [
        {
          "internalType": "address",
          "name": "_nft",
          "type": "address"
        },
        {
          "internalType": "address",
          "name": "_owner",
          "type": "address"
        }
      ],
      "name": "balanceOf",
      "outputs": [
        {
          "internalType": "uint256",
          "name": "balance",
          "type": "uint256"
        }
      ],
      "stateMutability": "view",
      "type": "function"
    },
    {
      "inputs": [
        {
          "internalType": "address",
          "name": "",
          "type": "address"
        }
      ],
      "name": "baseUriOf",
      "outputs": [
        {
          "internalType": "string",
          "name": "",
          "type": "string"
        }
      ],
      "stateMutability": "view",
      "type": "function"
    },
    {
      "inputs": [
        {
          "internalType": "address",
          "name": "_nft",
          "type": "address"
        }
      ],
      "name": "cleanTiers",
      "outputs": [],
      "stateMutability": "nonpayable",
      "type": "function"
    },
    {
      "inputs": [
        {
          "internalType": "address",
          "name": "",
          "type": "address"
        }
      ],
      "name": "contractUriOf",
      "outputs": [
        {
          "internalType": "string",
          "name": "",
          "type": "string"
        }
      ],
      "stateMutability": "view",
      "type": "function"
    },
    {
      "inputs": [
        {
          "internalType": "address",
          "name": "",
          "type": "address"
        }
      ],
      "name": "defaultReservedTokenBeneficiaryOf",
      "outputs": [
        {
          "internalType": "address",
          "name": "",
          "type": "address"
        }
      ],
      "stateMutability": "view",
      "type": "function"
    },
    {
      "inputs": [
        {
          "internalType": "address",
          "name": "",
          "type": "address"
        },
        {
          "internalType": "uint256",
          "name": "",
          "type": "uint256"
        }
      ],
      "name": "encodedIPFSUriOf",
      "outputs": [
        {
          "internalType": "bytes32",
          "name": "",
          "type": "bytes32"
        }
      ],
      "stateMutability": "view",
      "type": "function"
    },
    {
      "inputs": [
        {
          "internalType": "address",
          "name": "_nft",
          "type": "address"
        },
        {
          "internalType": "uint256",
          "name": "_tokenId",
          "type": "uint256"
        }
      ],
      "name": "encodedTierIPFSUriOf",
      "outputs": [
        {
          "internalType": "bytes32",
          "name": "",
          "type": "bytes32"
        }
      ],
      "stateMutability": "view",
      "type": "function"
    },
    {
      "inputs": [
        {
          "internalType": "address",
          "name": "",
          "type": "address"
        },
        {
          "internalType": "uint256",
          "name": "",
          "type": "uint256"
        }
      ],
      "name": "firstOwnerOf",
      "outputs": [
        {
          "internalType": "address",
          "name": "",
          "type": "address"
        }
      ],
      "stateMutability": "view",
      "type": "function"
    },
    {
      "inputs": [
        {
          "internalType": "address",
          "name": "",
          "type": "address"
        },
        {
          "internalType": "uint256",
          "name": "",
          "type": "uint256"
        }
      ],
      "name": "isTierRemoved",
      "outputs": [
        {
          "internalType": "bool",
          "name": "",
          "type": "bool"
        }
      ],
      "stateMutability": "view",
      "type": "function"
    },
    {
      "inputs": [
        {
          "internalType": "address",
          "name": "",
          "type": "address"
        }
      ],
      "name": "lockReservedTokenChangesFor",
      "outputs": [
        {
          "internalType": "bool",
          "name": "",
          "type": "bool"
        }
      ],
      "stateMutability": "view",
      "type": "function"
    },
    {
      "inputs": [
        {
          "internalType": "address",
          "name": "",
          "type": "address"
        }
      ],
      "name": "lockVotingUnitChangesFor",
      "outputs": [
        {
          "internalType": "bool",
          "name": "",
          "type": "bool"
        }
      ],
      "stateMutability": "view",
      "type": "function"
    },
    {
      "inputs": [
        {
          "internalType": "address",
          "name": "",
          "type": "address"
        }
      ],
      "name": "maxTierId",
      "outputs": [
        {
          "internalType": "uint256",
          "name": "",
          "type": "uint256"
        }
      ],
      "stateMutability": "view",
      "type": "function"
    },
    {
      "inputs": [
        {
          "internalType": "address",
          "name": "_nft",
          "type": "address"
        },
        {
          "internalType": "uint256",
          "name": "_tierId",
          "type": "uint256"
        }
      ],
      "name": "numberOfReservedTokensOutstandingFor",
      "outputs": [
        {
          "internalType": "uint256",
          "name": "",
          "type": "uint256"
        }
      ],
      "stateMutability": "view",
      "type": "function"
    },
    {
      "inputs": [
        {
          "internalType": "address",
          "name": "",
          "type": "address"
        },
        {
          "internalType": "uint256",
          "name": "",
          "type": "uint256"
        }
      ],
      "name": "numberOfReservesMintedFor",
      "outputs": [
        {
          "internalType": "uint256",
          "name": "",
          "type": "uint256"
        }
      ],
      "stateMutability": "view",
      "type": "function"
    },
    {
      "inputs": [
        {
          "components": [
            {
              "internalType": "uint256",
              "name": "contributionFloor",
              "type": "uint256"
            },
            {
              "internalType": "uint256",
              "name": "lockedUntil",
              "type": "uint256"
            },
            {
              "internalType": "uint256",
              "name": "initialQuantity",
              "type": "uint256"
            },
            {
              "internalType": "uint256",
              "name": "votingUnits",
              "type": "uint256"
            },
            {
              "internalType": "uint256",
              "name": "reservedRate",
              "type": "uint256"
            },
            {
              "internalType": "address",
              "name": "reservedTokenBeneficiary",
              "type": "address"
            },
            {
              "internalType": "bytes32",
              "name": "encodedIPFSUri",
              "type": "bytes32"
            },
            {
              "internalType": "bool",
              "name": "shouldUseBeneficiaryAsDefault",
              "type": "bool"
            }
          ],
          "internalType": "struct JB721TierParams[]",
          "name": "_tiersToAdd",
          "type": "tuple[]"
        }
      ],
      "name": "recordAddTiers",
      "outputs": [
        {
          "internalType": "uint256[]",
          "name": "tierIds",
          "type": "uint256[]"
        }
      ],
      "stateMutability": "nonpayable",
      "type": "function"
    },
    {
      "inputs": [
        {
          "internalType": "bool",
          "name": "_flag",
          "type": "bool"
        }
      ],
      "name": "recordLockReservedTokenChanges",
      "outputs": [],
      "stateMutability": "nonpayable",
      "type": "function"
    },
    {
      "inputs": [
        {
          "internalType": "bool",
          "name": "_flag",
          "type": "bool"
        }
      ],
      "name": "recordLockVotingUnitChanges",
      "outputs": [],
      "stateMutability": "nonpayable",
      "type": "function"
    },
    {
      "inputs": [
        {
          "internalType": "uint256",
          "name": "_amount",
          "type": "uint256"
        },
        {
          "internalType": "uint16[]",
          "name": "_tierIds",
          "type": "uint16[]"
        }
      ],
      "name": "recordMint",
      "outputs": [
        {
          "internalType": "uint256[]",
          "name": "tokenIds",
          "type": "uint256[]"
        },
        {
          "internalType": "uint256",
          "name": "leftoverAmount",
          "type": "uint256"
        }
      ],
      "stateMutability": "nonpayable",
      "type": "function"
    },
    {
      "inputs": [
        {
          "internalType": "uint256",
          "name": "_amount",
          "type": "uint256"
        }
      ],
      "name": "recordMintBestAvailableTier",
      "outputs": [
        {
          "internalType": "uint256",
          "name": "tokenId",
          "type": "uint256"
        },
        {
          "internalType": "uint256",
          "name": "tierId",
          "type": "uint256"
        },
        {
          "internalType": "uint256",
          "name": "leftoverAmount",
          "type": "uint256"
        }
      ],
      "stateMutability": "nonpayable",
      "type": "function"
    },
    {
      "inputs": [
        {
          "internalType": "uint256",
          "name": "_tierId",
          "type": "uint256"
        },
        {
          "internalType": "uint256",
          "name": "_count",
          "type": "uint256"
        }
      ],
      "name": "recordMintReservesFor",
      "outputs": [
        {
          "internalType": "uint256[]",
          "name": "tokenIds",
          "type": "uint256[]"
        }
      ],
      "stateMutability": "nonpayable",
      "type": "function"
    },
    {
      "inputs": [
        {
          "internalType": "uint256[]",
          "name": "_tierIds",
          "type": "uint256[]"
        }
      ],
      "name": "recordRemoveTierIds",
      "outputs": [],
      "stateMutability": "nonpayable",
      "type": "function"
    },
    {
      "inputs": [
        {
          "internalType": "string",
          "name": "_uri",
          "type": "string"
        }
      ],
      "name": "recordSetBaseUri",
      "outputs": [],
      "stateMutability": "nonpayable",
      "type": "function"
    },
    {
      "inputs": [
        {
          "internalType": "string",
          "name": "_uri",
          "type": "string"
        }
      ],
      "name": "recordSetContractUri",
      "outputs": [],
      "stateMutability": "nonpayable",
      "type": "function"
    },
    {
      "inputs": [
        {
          "internalType": "address",
          "name": "_beneficiary",
          "type": "address"
        }
      ],
      "name": "recordSetDefaultReservedTokenBeneficiary",
      "outputs": [],
      "stateMutability": "nonpayable",
      "type": "function"
    },
    {
      "inputs": [
        {
          "internalType": "uint256",
          "name": "_tokenId",
          "type": "uint256"
        },
        {
          "internalType": "address",
          "name": "_owner",
          "type": "address"
        }
      ],
      "name": "recordSetFirstOwnerOf",
      "outputs": [],
      "stateMutability": "nonpayable",
      "type": "function"
    },
    {
      "inputs": [
        {
          "internalType": "contract IJBTokenUriResolver",
          "name": "_resolver",
          "type": "address"
        }
      ],
      "name": "recordSetTokenUriResolver",
      "outputs": [],
      "stateMutability": "nonpayable",
      "type": "function"
    },
    {
      "inputs": [
        {
          "internalType": "uint256",
          "name": "_tierId",
          "type": "uint256"
        },
        {
          "internalType": "address",
          "name": "_from",
          "type": "address"
        },
        {
          "internalType": "address",
          "name": "_to",
          "type": "address"
        }
      ],
      "name": "recordTransferForTier",
      "outputs": [],
      "stateMutability": "nonpayable",
      "type": "function"
    },
    {
      "inputs": [
        {
          "internalType": "address",
          "name": "_nft",
          "type": "address"
        },
        {
          "internalType": "uint256[]",
          "name": "_tokenIds",
          "type": "uint256[]"
        }
      ],
      "name": "redemptionWeightOf",
      "outputs": [
        {
          "internalType": "uint256",
          "name": "weight",
          "type": "uint256"
        }
      ],
      "stateMutability": "view",
      "type": "function"
    },
    {
      "inputs": [
        {
          "internalType": "address",
          "name": "_nft",
          "type": "address"
        },
        {
          "internalType": "uint256",
          "name": "_tierId",
          "type": "uint256"
        }
      ],
      "name": "reservedTokenBeneficiaryOf",
      "outputs": [
        {
          "internalType": "address",
          "name": "",
          "type": "address"
        }
      ],
      "stateMutability": "view",
      "type": "function"
    },
    {
      "inputs": [
        {
          "internalType": "address",
          "name": "_nft",
          "type": "address"
        },
        {
          "internalType": "uint256",
          "name": "_id",
          "type": "uint256"
        }
      ],
      "name": "tier",
      "outputs": [
        {
          "components": [
            {
              "internalType": "uint256",
              "name": "id",
              "type": "uint256"
            },
            {
              "internalType": "uint256",
              "name": "contributionFloor",
              "type": "uint256"
            },
            {
              "internalType": "uint256",
              "name": "lockedUntil",
              "type": "uint256"
            },
            {
              "internalType": "uint256",
              "name": "remainingQuantity",
              "type": "uint256"
            },
            {
              "internalType": "uint256",
              "name": "initialQuantity",
              "type": "uint256"
            },
            {
              "internalType": "uint256",
              "name": "votingUnits",
              "type": "uint256"
            },
            {
              "internalType": "uint256",
              "name": "reservedRate",
              "type": "uint256"
            },
            {
              "internalType": "address",
              "name": "reservedTokenBeneficiary",
              "type": "address"
            },
            {
              "internalType": "bytes32",
              "name": "encodedIPFSUri",
              "type": "bytes32"
            }
          ],
          "internalType": "struct JB721Tier",
          "name": "",
          "type": "tuple"
        }
      ],
      "stateMutability": "view",
      "type": "function"
    },
    {
      "inputs": [
        {
          "internalType": "address",
          "name": "",
          "type": "address"
        },
        {
          "internalType": "address",
          "name": "",
          "type": "address"
        },
        {
          "internalType": "uint256",
          "name": "",
          "type": "uint256"
        }
      ],
      "name": "tierBalanceOf",
      "outputs": [
        {
          "internalType": "uint256",
          "name": "",
          "type": "uint256"
        }
      ],
      "stateMutability": "view",
      "type": "function"
    },
    {
      "inputs": [
        {
          "internalType": "uint256",
          "name": "_tokenId",
          "type": "uint256"
        }
      ],
      "name": "tierIdOfToken",
      "outputs": [
        {
          "internalType": "uint256",
          "name": "",
          "type": "uint256"
        }
      ],
      "stateMutability": "pure",
      "type": "function"
    },
    {
      "inputs": [
        {
          "internalType": "address",
          "name": "_nft",
          "type": "address"
        },
        {
          "internalType": "uint256",
          "name": "_tokenId",
          "type": "uint256"
        }
      ],
      "name": "tierOfTokenId",
      "outputs": [
        {
          "components": [
            {
              "internalType": "uint256",
              "name": "id",
              "type": "uint256"
            },
            {
              "internalType": "uint256",
              "name": "contributionFloor",
              "type": "uint256"
            },
            {
              "internalType": "uint256",
              "name": "lockedUntil",
              "type": "uint256"
            },
            {
              "internalType": "uint256",
              "name": "remainingQuantity",
              "type": "uint256"
            },
            {
              "internalType": "uint256",
              "name": "initialQuantity",
              "type": "uint256"
            },
            {
              "internalType": "uint256",
              "name": "votingUnits",
              "type": "uint256"
            },
            {
              "internalType": "uint256",
              "name": "reservedRate",
              "type": "uint256"
            },
            {
              "internalType": "address",
              "name": "reservedTokenBeneficiary",
              "type": "address"
            },
            {
              "internalType": "bytes32",
              "name": "encodedIPFSUri",
              "type": "bytes32"
            }
          ],
          "internalType": "struct JB721Tier",
          "name": "",
          "type": "tuple"
        }
      ],
      "stateMutability": "view",
      "type": "function"
    },
    {
      "inputs": [
        {
          "internalType": "address",
          "name": "_nft",
          "type": "address"
        },
        {
          "internalType": "address",
          "name": "_account",
          "type": "address"
        },
        {
          "internalType": "uint256",
          "name": "_tierId",
          "type": "uint256"
        }
      ],
      "name": "tierVotingUnitsOf",
      "outputs": [
        {
          "internalType": "uint256",
          "name": "",
          "type": "uint256"
        }
      ],
      "stateMutability": "view",
      "type": "function"
    },
    {
      "inputs": [
        {
          "internalType": "address",
          "name": "_nft",
          "type": "address"
        },
        {
          "internalType": "uint256",
          "name": "_startingId",
          "type": "uint256"
        },
        {
          "internalType": "uint256",
          "name": "_size",
          "type": "uint256"
        }
      ],
      "name": "tiers",
      "outputs": [
        {
          "components": [
            {
              "internalType": "uint256",
              "name": "id",
              "type": "uint256"
            },
            {
              "internalType": "uint256",
              "name": "contributionFloor",
              "type": "uint256"
            },
            {
              "internalType": "uint256",
              "name": "lockedUntil",
              "type": "uint256"
            },
            {
              "internalType": "uint256",
              "name": "remainingQuantity",
              "type": "uint256"
            },
            {
              "internalType": "uint256",
              "name": "initialQuantity",
              "type": "uint256"
            },
            {
              "internalType": "uint256",
              "name": "votingUnits",
              "type": "uint256"
            },
            {
              "internalType": "uint256",
              "name": "reservedRate",
              "type": "uint256"
            },
            {
              "internalType": "address",
              "name": "reservedTokenBeneficiary",
              "type": "address"
            },
            {
              "internalType": "bytes32",
              "name": "encodedIPFSUri",
              "type": "bytes32"
            }
          ],
          "internalType": "struct JB721Tier[]",
          "name": "_tiers",
          "type": "tuple[]"
        }
      ],
      "stateMutability": "view",
      "type": "function"
    },
    {
      "inputs": [
        {
          "internalType": "address",
          "name": "",
          "type": "address"
        }
      ],
      "name": "tokenUriResolverOf",
      "outputs": [
        {
          "internalType": "contract IJBTokenUriResolver",
          "name": "",
          "type": "address"
        }
      ],
      "stateMutability": "view",
      "type": "function"
    },
    {
      "inputs": [
        {
          "internalType": "address",
          "name": "_nft",
          "type": "address"
        }
      ],
      "name": "totalRedemptionWeight",
      "outputs": [
        {
          "internalType": "uint256",
          "name": "weight",
          "type": "uint256"
        }
      ],
      "stateMutability": "view",
      "type": "function"
    },
    {
      "inputs": [
        {
          "internalType": "address",
          "name": "_nft",
          "type": "address"
        }
      ],
      "name": "totalSupply",
      "outputs": [
        {
          "internalType": "uint256",
          "name": "supply",
          "type": "uint256"
        }
      ],
      "stateMutability": "view",
      "type": "function"
    },
    {
      "inputs": [
        {
          "internalType": "address",
          "name": "_nft",
          "type": "address"
        },
        {
          "internalType": "address",
          "name": "_account",
          "type": "address"
        }
      ],
      "name": "votingUnitsOf",
      "outputs": [
        {
          "internalType": "uint256",
          "name": "units",
          "type": "uint256"
        }
      ],
      "stateMutability": "view",
      "type": "function"
    }
  ],
  "bytecode": {
    "object": "0x608060405234801561001057600080fd5b50612d56806100206000396000f3fe608060405234801561001057600080fd5b506004361061023d5760003560e01c80636825bb801161013b578063baa7e80e116100b8578063d84a72c01161007c578063d84a72c0146106f5578063e4dc2aa414610732578063ebc1c49d14610745578063f682eeaf14610768578063f7888aec1461077b57600080fd5b8063baa7e80e14610656578063bd51923c14610669578063c2c55f9414610694578063c8df1710146106a7578063d67b78fd146106e257600080fd5b80638ed6c010116100ff5780638ed6c010146105b3578063911c80b5146105e75780639335557814610610578063aab0cd8014610623578063b67cb0471461064357600080fd5b80636825bb80146104d15780636c876fd8146104fc5780637473c9a21461051c578063879791f31461053c5780638cec7d391461056a57600080fd5b806327619754116101c957806337f446521161018d57806337f446521461042a5780633eb2556a1461045b57806342f9914b1461047b5780635f646611146104905780636262bcb2146104be57600080fd5b8063276197541461039e5780632ae5e492146103be5780632e4d0ea8146103d157806335314b92146103e4578063366cf423146103f757600080fd5b8063144cc2d411610210578063144cc2d4146102de57806316b047de146102ff57806317161f7d146103205780631877d7b11461035d57806320512ba11461038b57600080fd5b806307cd940614610242578063086bb19a146102725780630fab094714610285578063136e651c146102cb575b600080fd5b610270610250366004612455565b336000908152600c60205260409020805460ff1916911515919091179055565b005b610270610280366004612488565b61078e565b6102ae610293366004612488565b600a602052600090815260409020546001600160a01b031681565b6040516001600160a01b0390911681526020015b60405180910390f35b6102ae6102d93660046124a5565b6108ed565b6102f16102ec36600461251c565b610946565b6040519081526020016102c2565b61031261030d366004612570565b6109c6565b6040516102c29291906125dd565b61027061032e366004612488565b33600090815260076020526040902080546001600160a01b0319166001600160a01b0392909216919091179055565b61027061036b366004612455565b336000908152600d60205260409020805460ff1916911515919091179055565b6102706103993660046125ff565b610c4f565b6103b16103ac3660046126af565b610cfb565b6040516102c291906127ca565b6102f16103cc366004612488565b61129b565b6102f16103df3660046127dd565b6113cd565b6102f16103f23660046124a5565b611452565b61041a610405366004612488565b600d6020526000908152604090205460ff1681565b60405190151581526020016102c2565b6102f16104383660046127dd565b600460209081526000938452604080852082529284528284209052825290205481565b61046e61046936600461281e565b6114ed565b6040516102c291906128b2565b6102f1610489366004612901565b61ffff1690565b61041a61049e3660046124a5565b600660209081526000928352604080842090915290825290205460ff1681565b6102706104cc36600461291a565b6117f4565b6102f16104df3660046124a5565b600560209081526000928352604080842090915290825290205481565b6102f161050a366004612488565b60036020526000908152604090205481565b61052f61052a3660046124a5565b611813565b6040516102c2919061298b565b61054f61054a366004612901565b611a09565b604080519384526020840192909252908201526060016102c2565b61027061057836600461299a565b3360009081526008602090815260408083209483529390529190912080546001600160a01b0319166001600160a01b03909216919091179055565b6102ae6105c13660046124a5565b60086020908152600092835260408084209091529082529020546001600160a01b031681565b6102ae6105f5366004612488565b6007602052600090815260409020546001600160a01b031681565b6102f161061e3660046129ca565b611bd9565b610636610631366004612488565b611c89565b6040516102c291906129f8565b61052f6106513660046124a5565b611d23565b6103b1610664366004612a46565b611e5e565b6102f16106773660046124a5565b600e60209081526000928352604080842090915290825290205481565b6102706106a2366004612a68565b612037565b6102f16106b53660046124a5565b6001600160a01b03919091166000908152600e6020908152604080832061ffff9094168352929052205490565b6102706106f036600461291a565b6120ca565b610270610703366004612488565b336000908152600a6020526040902080546001600160a01b0319166001600160a01b0392909216919091179055565b6102f1610740366004612488565b6120e4565b61041a610753366004612488565b600c6020526000908152604090205460ff1681565b610636610776366004612488565b61216e565b6102f16107893660046129ca565b612187565b6001600160a01b038116600090815260036020526040812054906107b1836121f3565b905060005b81156108a9576001600160a01b038416600090815260066020908152604080832085845290915290205460ff16610897576107f2816001612ac0565b821461084a576001600160a01b0384166000908152602081815260408083208484529091529020548214610845576001600160a01b03841660009081526020818152604080832084845290915290208290555b610894565b6001600160a01b03841660009081526020818152604080832084845290915290205415610894576001600160a01b0384166000908152602081815260408083208484529091528120555b50805b6108a2848385612226565b91506107b6565b6040513381526001600160a01b038516907f4a0f854ce3c180d56f3e9eb47eb064c595bf3de0ab9af45425291e5b1bb733a89060200160405180910390a250505050565b6001600160a01b0380831660009081526001602090815260408083208584529091528120549091168015610922579050610940565b50506001600160a01b03808316600090815260076020526040902054165b92915050565b600081815b818110156109bd576001600160a01b03861660009081526002602052604081209061098f87878581811061098157610981612ad3565b9050602002013561ffff1690565b81526020810191909152604001600020546109b3906001600160501b031684612ac0565b925060010161094b565b50509392505050565b60608382600080826001600160401b038111156109e5576109e5612640565b604051908082528060200260200182016040528015610a0e578160200160208202803683370190505b50945060005b83811015610c4357878782818110610a2e57610a2e612ad3565b9050602002016020810190610a439190612ae9565b33600090815260066020908152604080832061ffff949094168084529390915290205490925060ff1615610a8a5760405163d32cb5c160e01b815260040160405180910390fd5b33600090815260026020908152604080832085845290915281208054909450600160b01b900465ffffffffffff169003610ad757604051630de5859f60e01b815260040160405180910390fd5b82546001600160501b0316851015610b0257604051632cd294cf60e01b815260040160405180910390fd5b6040805160c08101825284546001600160501b038116825265ffffffffffff600160501b820481166020840152600160801b8204811693830193909352600160b01b8104909216606082015261ffff600160e01b830481166080830152600160f01b90920490911660a0820152610b7c9033908490612279565b8354610b979190600160801b900465ffffffffffff16612b0d565b600003610bb75760405163985a45d960e01b815260040160405180910390fd5b825460001965ffffffffffff600160801b808404821692830182160265ffffffffffff60801b1990931692909217808655610c07928592600160b01b9092048116919091036001011660101b1790565b868281518110610c1957610c19612ad3565b60209081029190910101528254610c39906001600160501b031686612b0d565b9450600101610a14565b50505050935093915050565b806000805b82811015610cf457848482818110610c6e57610c6e612ad3565b336000908152600260209081526040808320938202959095013580835292905292909220549193505042600160501b90910465ffffffffffff1610610cc657604051636b73d51160e11b815260040160405180910390fd5b3360009081526006602090815260408083208584529091529020805460ff1916600190811790915501610c54565b5050505050565b80513360009081526003602052604090205460609190816001600160401b03811115610d2957610d29612640565b604051908082528060200260200182016040528015610d52578160200160208202803683370190505b50925060008115610d6b57610d66336121f3565b610d6e565b60005b90506000610dc8604051806101000160405280600081526020016000815260200160008152602001600081526020016000815260200160006001600160a01b03168152602001600080191681526020016000151581525090565b60005b8581101561127557878181518110610de557610de5612ad3565b6020026020010151915080600014158015610e2a575087610e07600183612b0d565b81518110610e1757610e17612ad3565b6020026020010151600001518260000151105b15610e48576040516325ec4a9160e21b815260040160405180910390fd5b336000908152600d602052604090205460ff168015610e6a5750606082015115155b15610e8857604051630189200360e11b815260040160405180910390fd5b336000908152600c602052604090205460ff168015610eaa5750608082015115155b15610ec85760405163a75b1cd560e01b815260040160405180910390fd5b8160400151600003610eed57604051631e0a863160e31b815260040160405180910390fd5b6000610ef98287612ac0565b610f04906001612ac0565b6040805160c08101825285516001600160501b03908116825260208088015165ffffffffffff908116828501908152898601805183168688019081529051831660608088019182528c015161ffff9081166080808a019182528e0151821660a0808b0191825233600090815260028a528c81208e82529099529a909720985189549551945193519151975198166fffffffffffffffffffffffffffffffff1990951694909417600160501b93861693909302929092176bffffffffffffffffffffffff60801b1916600160801b9185169190910265ffffffffffff60b01b191617600160b01b9290931691909102919091176001600160e01b0316600160e01b928216929092026001600160f01b031691909117600160f01b92909116919091021790558401519091506001600160a01b03161580159061106557503360009081526007602052604090205460a08401516001600160a01b03908116911614155b156110e7578260e00151156110aa5760a083015133600090815260076020526040902080546001600160a01b0319166001600160a01b039092169190911790556110e7565b60a0830151336000908152600160209081526040808320858452909152902080546001600160a01b0319166001600160a01b039092169190911790555b60c0830151156111125760c0830151336000908152600e602090815260408083208584529091529020555b841561124e578460005b811561124b5761112d33838a612226565b33600090815260026020908152604080832086845290915290205486519192506001600160501b0316111561120157611167836001612ac0565b8214611189573360009081526020818152604080832086845290915290208290555b611194600184612b0d565b861415806111b957503360009081526020818152604080832089845290915290205415155b156111f2576111c9600184612b0d565b86146111d557826111d8565b60005b336000908152602081815260408083208a84529091529020555b8196508295506000915061111c565b8060000361124257611214826001612ac0565b8314611236573360009081526020818152604080832085845290915290208390555b8296506000915061111c565b9094508061111c565b50505b8088838151811061126157611261612ad3565b602090810291909101015250600101610dcb565b506112808585612ac0565b33600090815260036020526040902055509395945050505050565b6001600160a01b0381166000908152600360205260408120546112bc6123b8565b60005b828110156113c5576001600160a01b0385166000908152600260205260408120906112eb836001612ac0565b81526020808201929092526040908101600020815160c08101835290546001600160501b038116825265ffffffffffff600160501b8204811694830194909452600160801b8104841692820192909252600160b01b8204909216606083015261ffff600160e01b820481166080840152600160f01b9091041660a08201529150611376858284612279565b8260400151836060015161138a9190612b20565b83516113a79165ffffffffffff16906001600160501b0316612b46565b6113b19190612ac0565b6113bb9085612ac0565b93506001016112bf565b505050919050565b6001600160a01b038084166000908152600460209081526040808320938616835292815282822084835290529081205480820361140e57600091505061144b565b6001600160a01b038516600090815260026020908152604080832086845290915290205461144790600160e01b900461ffff1682612b46565b9150505b9392505050565b6001600160a01b03821660009081526002602090815260408083208484528252808320815160c08101835290546001600160501b038116825265ffffffffffff600160501b8204811694830194909452600160801b8104841692820192909252600160b01b8204909216606083015261ffff600160e01b820481166080840152600160f01b9091041660a082015261144b9084908490612279565b6001600160a01b038316600090815260036020526040902054606090826001600160401b0381111561152157611521612640565b60405190808252806020026020018201604052801561155a57816020015b6115476123ed565b81526020019060019003908161153f5790505b5091506000808560000361157657611571876121f3565b611578565b855b90506115826123b8565b811580159061159057508583105b156117de576001600160a01b038816600090815260066020908152604080832085845290915290205460ff166117cc5760026000896001600160a01b03166001600160a01b0316815260200190815260200160002060008381526020019081526020016000206040518060c00160405290816000820160009054906101000a90046001600160501b03166001600160501b03166001600160501b0316815260200160008201600a9054906101000a900465ffffffffffff1665ffffffffffff1665ffffffffffff1681526020016000820160109054906101000a900465ffffffffffff1665ffffffffffff1665ffffffffffff1681526020016000820160169054906101000a900465ffffffffffff1665ffffffffffff1665ffffffffffff16815260200160008201601c9054906101000a900461ffff1661ffff1661ffff16815260200160008201601e9054906101000a900461ffff1661ffff1661ffff1681525050905060405180610120016040528083815260200182600001516001600160501b03168152602001826020015165ffffffffffff168152602001826040015165ffffffffffff168152602001826060015165ffffffffffff168152602001826080015161ffff1681526020018260a0015161ffff1681526020016117778a856108ed565b6001600160a01b0390811682528a166000908152600e6020908152604080832087845282529091205491015285846117ae81612b65565b9550815181106117c0576117c0612ad3565b60200260200101819052505b6117d7888386612226565b9150611582565b8583146117e9578285525b505050509392505050565b33600090815260096020526040902061180e828483612c06565b505050565b61181b6123ed565b600060026000856001600160a01b03166001600160a01b0316815260200190815260200160002060008481526020019081526020016000206040518060c00160405290816000820160009054906101000a90046001600160501b03166001600160501b03166001600160501b0316815260200160008201600a9054906101000a900465ffffffffffff1665ffffffffffff1665ffffffffffff1681526020016000820160109054906101000a900465ffffffffffff1665ffffffffffff1665ffffffffffff1681526020016000820160169054906101000a900465ffffffffffff1665ffffffffffff1665ffffffffffff16815260200160008201601c9054906101000a900461ffff1661ffff1661ffff16815260200160008201601e9054906101000a900461ffff1661ffff1661ffff1681525050905060405180610120016040528084815260200182600001516001600160501b03168152602001826020015165ffffffffffff168152602001826040015165ffffffffffff168152602001826060015165ffffffffffff168152602001826080015161ffff1681526020018260a0015161ffff1681526020016119d486866108ed565b6001600160a01b03908116825286166000908152600e6020908152604080832088845282529091205491015291505092915050565b3360009081526003602052604081205481908190611a256123b8565b6000611a30336121f3565b90505b8015611b3957336000908152600260209081526040808320848452825291829020825160c08101845290546001600160501b03811680835265ffffffffffff600160501b8304811694840194909452600160801b8204841694830194909452600160b01b8104909216606082015261ffff600160e01b830481166080830152600160f01b90920490911660a08201529250871015611ad357506000611a33565b33600090815260066020908152604080832084845290915290205460ff16158015611b1e5750611b04338284612279565b826040015165ffffffffffff16611b1b9190612b0d565b15155b15611b27578094505b611b32338285612226565b9050611a33565b84600003611b4957869350611bcf565b3360009081526002602090815260408083208884529091529020805460001965ffffffffffff600160801b808404821692830182160265ffffffffffff60801b1990931692909217808455611bb3928992600160b01b9092048116919091036001011660101b1790565b8154909750611bcb906001600160501b031689612b0d565b9450505b5050509193909250565b6001600160a01b03821660009081526003602052604081205481815b8015611c80576001600160a01b03808716600090815260046020908152604080832093891683529281528282208483529052205491508115611c77576001600160a01b0386166000908152600260209081526040808320848452909152902054611c6a90600160e01b900461ffff1683612b46565b611c749085612ac0565b93505b60001901611bf5565b50505092915050565b600b6020526000908152604090208054611ca290612b7e565b80601f0160208091040260200160405190810160405280929190818152602001828054611cce90612b7e565b8015611d1b5780601f10611cf057610100808354040283529160200191611d1b565b820191906000526020600020905b815481529060010190602001808311611cfe57829003601f168201915b505050505081565b611d2b6123ed565b6001600160a01b038316600090815260026020908152604080832061ffff86811680865291845293829020825160c0808201855291546001600160501b03808216835265ffffffffffff600160501b83048116848901908152600160801b84048216858901908152600160b01b850483166060808801918252600160e01b87048d166080808a01918252600160f01b9098048e1660a0808b019182528d5161012081018f528d81528b519099169e89019e909e52945186169b87019b909b5291518416918501919091525190911692820192909252945187169585019590955293519094169382019390935260e08101611e2587856108ed565b6001600160a01b03908116825287166000908152600e602090815260408083209683529581529490205493019290925250905092915050565b3360008181526002602090815260408083208684528252808320815160c08101835281546001600160501b038116825265ffffffffffff600160501b8204811695830195909552600160801b8104851693820193909352600160b01b830490931660608481019190915261ffff600160e01b840481166080860152600160f01b90930490921660a08401529093909291611efa91908790612279565b905080841115611f1d5760405163226f999960e11b815260040160405180910390fd5b33600090815260056020908152604080832088845290915281208054869290611f47908490612ac0565b909155508490506001600160401b03811115611f6557611f65612640565b604051908082528060200260200182016040528015611f8e578160200160208202803683370190505b50925060005b84811015611c805782546120129087908590601090611fc190600160801b900465ffffffffffff16612cc5565b91906101000a81548165ffffffffffff021916908365ffffffffffff16021790558560000160169054906101000a900465ffffffffffff166120039190612b20565b65ffffffffffff1660101b1790565b84828151811061202457612024612ad3565b6020908102919091010152600101611f94565b6001600160a01b03821615612084573360009081526004602090815260408083206001600160a01b038616845282528083208684529091528120805490919061207f90612ce7565b909155505b6001600160a01b0381161561180e573360009081526004602090815260408083206001600160a01b03851684528252808320868452909152902080546001019055505050565b336000908152600b6020526040902061180e828483612c06565b6001600160a01b0381166000908152600360205260408120548190805b80156113c5576001600160a01b0385166000908152600260209081526040808320848452909152902080549093506121519065ffffffffffff600160801b8204811691600160b01b900416612b20565b6121639065ffffffffffff1685612ac0565b935060001901612101565b60096020526000908152604090208054611ca290612b7e565b6001600160a01b038216600090815260036020526040812054805b80156121eb576001600160a01b0380861660009081526004602090815260408083209388168352928152828220848352905220546121e09084612ac0565b9250600019016121a2565b505092915050565b6001600160a01b03811660009081526020818152604080832083805290915281205490819003612221575060015b919050565b6001600160a01b038316600090815260208181526040808320858452909152812054801561225557905061144b565b82841061226657600091505061144b565b612271846001612ac0565b91505061144b565b6000816060015165ffffffffffff166000148061229c575060a082015161ffff16155b156122a95750600061144b565b816040015165ffffffffffff16826060015165ffffffffffff16036122d05750600161144b565b6001600160a01b0384166000908152600560209081526040808320868452909152908190205490830151606084015165ffffffffffff9182169161231691849116612b0d565b0361232557600091505061144b565b6000818460400151856060015161233c9190612b20565b65ffffffffffff1661234e9190612b0d565b905060008460a0015161ffff16826123669190612b46565b9050600061237661271083612cfe565b9050600061238682612710612b46565b6123909084612b0d565b11156123a25761239f81612b65565b90505b6123ac8482612b0d565b98975050505050505050565b6040805160c081018252600080825260208201819052918101829052606081018290526080810182905260a081019190915290565b6040518061012001604052806000815260200160008152602001600081526020016000815260200160008152602001600081526020016000815260200160006001600160a01b03168152602001600080191681525090565b8035801515811461222157600080fd5b60006020828403121561246757600080fd5b61144b82612445565b6001600160a01b038116811461248557600080fd5b50565b60006020828403121561249a57600080fd5b813561144b81612470565b600080604083850312156124b857600080fd5b82356124c381612470565b946020939093013593505050565b60008083601f8401126124e357600080fd5b5081356001600160401b038111156124fa57600080fd5b6020830191508360208260051b850101111561251557600080fd5b9250929050565b60008060006040848603121561253157600080fd5b833561253c81612470565b925060208401356001600160401b0381111561255757600080fd5b612563868287016124d1565b9497909650939450505050565b60008060006040848603121561258557600080fd5b8335925060208401356001600160401b0381111561255757600080fd5b600081518084526020808501945080840160005b838110156125d2578151875295820195908201906001016125b6565b509495945050505050565b6040815260006125f060408301856125a2565b90508260208301529392505050565b6000806020838503121561261257600080fd5b82356001600160401b0381111561262857600080fd5b612634858286016124d1565b90969095509350505050565b634e487b7160e01b600052604160045260246000fd5b60405161010081016001600160401b038111828210171561267957612679612640565b60405290565b604051601f8201601f191681016001600160401b03811182821017156126a7576126a7612640565b604052919050565b600060208083850312156126c257600080fd5b82356001600160401b03808211156126d957600080fd5b818501915085601f8301126126ed57600080fd5b8135818111156126ff576126ff612640565b61270d848260051b0161267f565b818152848101925060089190911b83018401908782111561272d57600080fd5b928401925b818410156127bf57610100848903121561274c5760008081fd5b612754612656565b84358152858501358682015260408086013590820152606080860135908201526080808601359082015260a08086013561278d81612470565b9082015260c0858101359082015260e06127a8818701612445565b908201528352610100939093019291840191612732565b979650505050505050565b60208152600061144b60208301846125a2565b6000806000606084860312156127f257600080fd5b83356127fd81612470565b9250602084013561280d81612470565b929592945050506040919091013590565b60008060006060848603121561283357600080fd5b833561283e81612470565b95602085013595506040909401359392505050565b805182526020808201519083015260408082015190830152606080820151908301526080808201519083015260a0808201519083015260c0808201519083015260e0808201516001600160a01b03169083015261010090810151910152565b6020808252825182820181905260009190848201906040850190845b818110156128f5576128e1838551612853565b9284019261012092909201916001016128ce565b50909695505050505050565b60006020828403121561291357600080fd5b5035919050565b6000806020838503121561292d57600080fd5b82356001600160401b038082111561294457600080fd5b818501915085601f83011261295857600080fd5b81358181111561296757600080fd5b86602082850101111561297957600080fd5b60209290920196919550909350505050565b61012081016109408284612853565b600080604083850312156129ad57600080fd5b8235915060208301356129bf81612470565b809150509250929050565b600080604083850312156129dd57600080fd5b82356129e881612470565b915060208301356129bf81612470565b600060208083528351808285015260005b81811015612a2557858101830151858201604001528201612a09565b506000604082860101526040601f19601f8301168501019250505092915050565b60008060408385031215612a5957600080fd5b50508035926020909101359150565b600080600060608486031215612a7d57600080fd5b833592506020840135612a8f81612470565b91506040840135612a9f81612470565b809150509250925092565b634e487b7160e01b600052601160045260246000fd5b8082018082111561094057610940612aaa565b634e487b7160e01b600052603260045260246000fd5b600060208284031215612afb57600080fd5b813561ffff8116811461144b57600080fd5b8181038181111561094057610940612aaa565b65ffffffffffff828116828216039080821115612b3f57612b3f612aaa565b5092915050565b6000816000190483118215151615612b6057612b60612aaa565b500290565b600060018201612b7757612b77612aaa565b5060010190565b600181811c90821680612b9257607f821691505b602082108103612bb257634e487b7160e01b600052602260045260246000fd5b50919050565b601f82111561180e57600081815260208120601f850160051c81016020861015612bdf5750805b601f850160051c820191505b81811015612bfe57828155600101612beb565b505050505050565b6001600160401b03831115612c1d57612c1d612640565b612c3183612c2b8354612b7e565b83612bb8565b6000601f841160018114612c655760008515612c4d5750838201355b600019600387901b1c1916600186901b178355610cf4565b600083815260209020601f19861690835b82811015612c965786850135825560209485019460019092019101612c76565b5086821015612cb35760001960f88860031b161c19848701351681555b505060018560011b0183555050505050565b600065ffffffffffff821680612cdd57612cdd612aaa565b6000190192915050565b600081612cf657612cf6612aaa565b506000190190565b600082612d1b57634e487b7160e01b600052601260045260246000fd5b50049056fea264697066735822122031206876d5ff511994e4baae8ea7f202a3c860fb46f998029e536bae02d4033564736f6c63430008100033",
    "linkReferences": {}
  },
  "methodIdentifiers": {
    "balanceOf(address,address)": "f7888aec",
    "baseUriOf(address)": "f682eeaf",
    "cleanTiers(address)": "086bb19a",
    "contractUriOf(address)": "aab0cd80",
    "defaultReservedTokenBeneficiaryOf(address)": "911c80b5",
    "encodedIPFSUriOf(address,uint256)": "bd51923c",
    "encodedTierIPFSUriOf(address,uint256)": "c8df1710",
    "firstOwnerOf(address,uint256)": "8ed6c010",
    "isTierRemoved(address,uint256)": "5f646611",
    "lockReservedTokenChangesFor(address)": "ebc1c49d",
    "lockVotingUnitChangesFor(address)": "366cf423",
    "maxTierId(address)": "6c876fd8",
    "numberOfReservedTokensOutstandingFor(address,uint256)": "35314b92",
    "numberOfReservesMintedFor(address,uint256)": "6825bb80",
    "recordAddTiers((uint256,uint256,uint256,uint256,uint256,address,bytes32,bool)[])": "27619754",
    "recordLockReservedTokenChanges(bool)": "07cd9406",
    "recordLockVotingUnitChanges(bool)": "1877d7b1",
    "recordMint(uint256,uint16[])": "16b047de",
    "recordMintBestAvailableTier(uint256)": "879791f3",
    "recordMintReservesFor(uint256,uint256)": "baa7e80e",
    "recordRemoveTierIds(uint256[])": "20512ba1",
    "recordSetBaseUri(string)": "6262bcb2",
    "recordSetContractUri(string)": "d67b78fd",
    "recordSetDefaultReservedTokenBeneficiary(address)": "17161f7d",
    "recordSetFirstOwnerOf(uint256,address)": "8cec7d39",
    "recordSetTokenUriResolver(address)": "d84a72c0",
    "recordTransferForTier(uint256,address,address)": "c2c55f94",
    "redemptionWeightOf(address,uint256[])": "144cc2d4",
    "reservedTokenBeneficiaryOf(address,uint256)": "136e651c",
    "tier(address,uint256)": "7473c9a2",
    "tierBalanceOf(address,address,uint256)": "37f44652",
    "tierIdOfToken(uint256)": "42f9914b",
    "tierOfTokenId(address,uint256)": "b67cb047",
    "tierVotingUnitsOf(address,address,uint256)": "2e4d0ea8",
    "tiers(address,uint256,uint256)": "3eb2556a",
    "tokenUriResolverOf(address)": "0fab0947",
    "totalRedemptionWeight(address)": "2ae5e492",
    "totalSupply(address)": "e4dc2aa4",
    "votingUnitsOf(address,address)": "93355578"
  },
  "id": 3
}