{
  "abi": [
    {
      "inputs": [],
      "name": "CANT_MINT_MANUALLY",
      "type": "error"
    },
    {
      "inputs": [],
      "name": "INSUFFICIENT_AMOUNT",
      "type": "error"
    },
    {
      "inputs": [],
      "name": "INSUFFICIENT_RESERVES",
      "type": "error"
    },
    {
      "inputs": [],
      "name": "INVALID_CATEGORY_SORT_ORDER",
      "type": "error"
    },
    {
      "inputs": [],
      "name": "INVALID_PRICE_SORT_ORDER",
      "type": "error"
    },
    {
      "inputs": [],
      "name": "INVALID_QUANTITY",
      "type": "error"
    },
    {
      "inputs": [],
      "name": "INVALID_TIER",
      "type": "error"
    },
    {
      "inputs": [],
      "name": "MANUAL_MINTING_NOT_ALLOWED",
      "type": "error"
    },
    {
      "inputs": [],
      "name": "MAX_TIERS_EXCEEDED",
      "type": "error"
    },
    {
      "inputs": [],
      "name": "NO_QUANTITY",
      "type": "error"
    },
    {
      "inputs": [],
      "name": "OUT",
      "type": "error"
    },
    {
      "inputs": [],
      "name": "PRICING_RESOLVER_CHANGES_LOCKED",
      "type": "error"
    },
    {
      "inputs": [],
      "name": "RESERVED_RATE_NOT_ALLOWED",
      "type": "error"
    },
    {
      "inputs": [],
      "name": "TIER_LOCKED",
      "type": "error"
    },
    {
      "inputs": [],
      "name": "TIER_REMOVED",
      "type": "error"
    },
    {
      "inputs": [],
      "name": "VOTING_UNITS_NOT_ALLOWED",
      "type": "error"
    },
    {
      "anonymous": false,
      "inputs": [
        {
          "indexed": true,
          "internalType": "address",
          "name": "nft",
          "type": "address"
        },
        {
          "indexed": false,
          "internalType": "address",
          "name": "caller",
          "type": "address"
        }
      ],
      "name": "CleanTiers",
      "type": "event"
    },
    {
      "inputs": [
        {
          "internalType": "address",
          "name": "_nft",
          "type": "address"
        },
        {
          "internalType": "address",
          "name": "_owner",
          "type": "address"
        }
      ],
      "name": "balanceOf",
      "outputs": [
        {
          "internalType": "uint256",
          "name": "balance",
          "type": "uint256"
        }
      ],
      "stateMutability": "view",
      "type": "function"
    },
    {
      "inputs": [
        {
          "internalType": "address",
          "name": "",
          "type": "address"
        }
      ],
      "name": "baseUriOf",
      "outputs": [
        {
          "internalType": "string",
          "name": "",
          "type": "string"
        }
      ],
      "stateMutability": "view",
      "type": "function"
    },
    {
      "inputs": [
        {
          "internalType": "address",
          "name": "_nft",
          "type": "address"
        }
      ],
      "name": "cleanTiers",
      "outputs": [],
      "stateMutability": "nonpayable",
      "type": "function"
    },
    {
      "inputs": [
        {
          "internalType": "address",
          "name": "",
          "type": "address"
        }
      ],
      "name": "contractUriOf",
      "outputs": [
        {
          "internalType": "string",
          "name": "",
          "type": "string"
        }
      ],
      "stateMutability": "view",
      "type": "function"
    },
    {
      "inputs": [
        {
          "internalType": "address",
          "name": "",
          "type": "address"
        }
      ],
      "name": "defaultReservedTokenBeneficiaryOf",
      "outputs": [
        {
          "internalType": "address",
          "name": "",
          "type": "address"
        }
      ],
      "stateMutability": "view",
      "type": "function"
    },
    {
      "inputs": [
        {
          "internalType": "address",
          "name": "",
          "type": "address"
        },
        {
          "internalType": "uint256",
          "name": "",
          "type": "uint256"
        }
      ],
      "name": "encodedIPFSUriOf",
      "outputs": [
        {
          "internalType": "bytes32",
          "name": "",
          "type": "bytes32"
        }
      ],
      "stateMutability": "view",
      "type": "function"
    },
    {
      "inputs": [
        {
          "internalType": "address",
          "name": "_nft",
          "type": "address"
        },
        {
          "internalType": "uint256",
          "name": "_tokenId",
          "type": "uint256"
        }
      ],
      "name": "encodedTierIPFSUriOf",
      "outputs": [
        {
          "internalType": "bytes32",
          "name": "",
          "type": "bytes32"
        }
      ],
      "stateMutability": "view",
      "type": "function"
    },
    {
      "inputs": [
        {
          "internalType": "address",
          "name": "",
          "type": "address"
        },
        {
          "internalType": "uint256",
          "name": "",
          "type": "uint256"
        }
      ],
      "name": "firstOwnerOf",
      "outputs": [
        {
          "internalType": "address",
          "name": "",
          "type": "address"
        }
      ],
      "stateMutability": "view",
      "type": "function"
    },
    {
      "inputs": [
        {
          "internalType": "address",
          "name": "_nft",
          "type": "address"
        }
      ],
      "name": "flagsOf",
      "outputs": [
        {
          "components": [
            {
              "internalType": "bool",
              "name": "lockReservedTokenChanges",
              "type": "bool"
            },
            {
              "internalType": "bool",
              "name": "lockVotingUnitChanges",
              "type": "bool"
            },
            {
              "internalType": "bool",
              "name": "lockManualMintingChanges",
              "type": "bool"
            },
            {
              "internalType": "bool",
              "name": "preventOverspending",
              "type": "bool"
            }
          ],
          "internalType": "struct JBTiered721Flags",
          "name": "",
          "type": "tuple"
        }
      ],
      "stateMutability": "view",
      "type": "function"
    },
    {
      "inputs": [
        {
          "internalType": "address",
          "name": "_nft",
          "type": "address"
        },
        {
          "internalType": "uint256",
          "name": "_tierId",
          "type": "uint256"
        }
      ],
      "name": "isTierRemoved",
      "outputs": [
        {
          "internalType": "bool",
          "name": "",
          "type": "bool"
        }
      ],
      "stateMutability": "view",
      "type": "function"
    },
    {
      "inputs": [
        {
          "internalType": "address",
          "name": "",
          "type": "address"
        }
      ],
      "name": "maxTierIdOf",
      "outputs": [
        {
          "internalType": "uint256",
          "name": "",
          "type": "uint256"
        }
      ],
      "stateMutability": "view",
      "type": "function"
    },
    {
      "inputs": [
        {
          "internalType": "address",
          "name": "",
          "type": "address"
        },
        {
          "internalType": "uint256",
          "name": "",
          "type": "uint256"
        }
      ],
      "name": "numberOfBurnedFor",
      "outputs": [
        {
          "internalType": "uint256",
          "name": "",
          "type": "uint256"
        }
      ],
      "stateMutability": "view",
      "type": "function"
    },
    {
      "inputs": [
        {
          "internalType": "address",
          "name": "_nft",
          "type": "address"
        },
        {
          "internalType": "uint256",
          "name": "_tierId",
          "type": "uint256"
        }
      ],
      "name": "numberOfReservedTokensOutstandingFor",
      "outputs": [
        {
          "internalType": "uint256",
          "name": "",
          "type": "uint256"
        }
      ],
      "stateMutability": "view",
      "type": "function"
    },
    {
      "inputs": [
        {
          "internalType": "address",
          "name": "",
          "type": "address"
        },
        {
          "internalType": "uint256",
          "name": "",
          "type": "uint256"
        }
      ],
      "name": "numberOfReservesMintedFor",
      "outputs": [
        {
          "internalType": "uint256",
          "name": "",
          "type": "uint256"
        }
      ],
      "stateMutability": "view",
      "type": "function"
    },
    {
      "inputs": [
        {
          "components": [
            {
              "internalType": "uint80",
              "name": "contributionFloor",
              "type": "uint80"
            },
            {
              "internalType": "uint48",
              "name": "lockedUntil",
              "type": "uint48"
            },
            {
              "internalType": "uint40",
              "name": "initialQuantity",
              "type": "uint40"
            },
            {
              "internalType": "uint16",
              "name": "votingUnits",
              "type": "uint16"
            },
            {
              "internalType": "uint16",
              "name": "reservedRate",
              "type": "uint16"
            },
            {
              "internalType": "address",
              "name": "reservedTokenBeneficiary",
              "type": "address"
            },
            {
              "internalType": "bytes32",
              "name": "encodedIPFSUri",
              "type": "bytes32"
            },
            {
              "internalType": "uint8",
              "name": "category",
              "type": "uint8"
            },
            {
              "internalType": "bool",
              "name": "allowManualMint",
              "type": "bool"
            },
            {
              "internalType": "bool",
              "name": "shouldUseBeneficiaryAsDefault",
              "type": "bool"
            },
            {
              "internalType": "bool",
              "name": "transfersPausable",
              "type": "bool"
            }
          ],
          "internalType": "struct JB721TierParams[]",
          "name": "_tiersToAdd",
          "type": "tuple[]"
        }
      ],
      "name": "recordAddTiers",
      "outputs": [
        {
          "internalType": "uint256[]",
          "name": "tierIds",
          "type": "uint256[]"
        }
      ],
      "stateMutability": "nonpayable",
      "type": "function"
    },
    {
      "inputs": [
        {
          "internalType": "uint256[]",
          "name": "_tokenIds",
          "type": "uint256[]"
        }
      ],
      "name": "recordBurn",
      "outputs": [],
      "stateMutability": "nonpayable",
      "type": "function"
    },
    {
      "inputs": [
        {
          "components": [
            {
              "internalType": "bool",
              "name": "lockReservedTokenChanges",
              "type": "bool"
            },
            {
              "internalType": "bool",
              "name": "lockVotingUnitChanges",
              "type": "bool"
            },
            {
              "internalType": "bool",
              "name": "lockManualMintingChanges",
              "type": "bool"
            },
            {
              "internalType": "bool",
              "name": "preventOverspending",
              "type": "bool"
            }
          ],
          "internalType": "struct JBTiered721Flags",
          "name": "_flags",
          "type": "tuple"
        }
      ],
      "name": "recordFlags",
      "outputs": [],
      "stateMutability": "nonpayable",
      "type": "function"
    },
    {
      "inputs": [
        {
          "internalType": "uint256",
          "name": "_amount",
          "type": "uint256"
        },
        {
          "internalType": "uint16[]",
          "name": "_tierIds",
          "type": "uint16[]"
        },
        {
          "internalType": "bool",
          "name": "_isManualMint",
          "type": "bool"
        }
      ],
      "name": "recordMint",
      "outputs": [
        {
          "internalType": "uint256[]",
          "name": "tokenIds",
          "type": "uint256[]"
        },
        {
          "internalType": "uint256",
          "name": "leftoverAmount",
          "type": "uint256"
        }
      ],
      "stateMutability": "nonpayable",
      "type": "function"
    },
    {
      "inputs": [
        {
          "internalType": "uint256",
          "name": "_tierId",
          "type": "uint256"
        },
        {
          "internalType": "uint256",
          "name": "_count",
          "type": "uint256"
        }
      ],
      "name": "recordMintReservesFor",
      "outputs": [
        {
          "internalType": "uint256[]",
          "name": "tokenIds",
          "type": "uint256[]"
        }
      ],
      "stateMutability": "nonpayable",
      "type": "function"
    },
    {
      "inputs": [
        {
          "internalType": "uint256[]",
          "name": "_tierIds",
          "type": "uint256[]"
        }
      ],
      "name": "recordRemoveTierIds",
      "outputs": [],
      "stateMutability": "nonpayable",
      "type": "function"
    },
    {
      "inputs": [
        {
          "internalType": "string",
          "name": "_uri",
          "type": "string"
        }
      ],
      "name": "recordSetBaseUri",
      "outputs": [],
      "stateMutability": "nonpayable",
      "type": "function"
    },
    {
      "inputs": [
        {
          "internalType": "string",
          "name": "_uri",
          "type": "string"
        }
      ],
      "name": "recordSetContractUri",
      "outputs": [],
      "stateMutability": "nonpayable",
      "type": "function"
    },
    {
      "inputs": [
        {
          "internalType": "address",
          "name": "_beneficiary",
          "type": "address"
        }
      ],
      "name": "recordSetDefaultReservedTokenBeneficiary",
      "outputs": [],
      "stateMutability": "nonpayable",
      "type": "function"
    },
    {
      "inputs": [
        {
          "internalType": "uint256",
          "name": "_tokenId",
          "type": "uint256"
        },
        {
          "internalType": "address",
          "name": "_owner",
          "type": "address"
        }
      ],
      "name": "recordSetFirstOwnerOf",
      "outputs": [],
      "stateMutability": "nonpayable",
      "type": "function"
    },
    {
      "inputs": [
        {
          "internalType": "contract IJBTokenUriResolver",
          "name": "_resolver",
          "type": "address"
        }
      ],
      "name": "recordSetTokenUriResolver",
      "outputs": [],
      "stateMutability": "nonpayable",
      "type": "function"
    },
    {
      "inputs": [
        {
          "internalType": "uint256",
          "name": "_tierId",
          "type": "uint256"
        },
        {
          "internalType": "address",
          "name": "_from",
          "type": "address"
        },
        {
          "internalType": "address",
          "name": "_to",
          "type": "address"
        }
      ],
      "name": "recordTransferForTier",
      "outputs": [],
      "stateMutability": "nonpayable",
      "type": "function"
    },
    {
      "inputs": [
        {
          "internalType": "address",
          "name": "_nft",
          "type": "address"
        },
        {
          "internalType": "uint256[]",
          "name": "_tokenIds",
          "type": "uint256[]"
        }
      ],
      "name": "redemptionWeightOf",
      "outputs": [
        {
          "internalType": "uint256",
          "name": "weight",
          "type": "uint256"
        }
      ],
      "stateMutability": "view",
      "type": "function"
    },
    {
      "inputs": [
        {
          "internalType": "address",
          "name": "_nft",
          "type": "address"
        },
        {
          "internalType": "uint256",
          "name": "_tierId",
          "type": "uint256"
        }
      ],
      "name": "reservedTokenBeneficiaryOf",
      "outputs": [
        {
          "internalType": "address",
          "name": "",
          "type": "address"
        }
      ],
      "stateMutability": "view",
      "type": "function"
    },
    {
      "inputs": [
        {
          "internalType": "address",
          "name": "_nft",
          "type": "address"
        },
        {
          "internalType": "uint256",
          "name": "_id",
          "type": "uint256"
        }
      ],
      "name": "tier",
      "outputs": [
        {
          "components": [
            {
              "internalType": "uint256",
              "name": "id",
              "type": "uint256"
            },
            {
              "internalType": "uint256",
              "name": "contributionFloor",
              "type": "uint256"
            },
            {
              "internalType": "uint256",
              "name": "lockedUntil",
              "type": "uint256"
            },
            {
              "internalType": "uint256",
              "name": "remainingQuantity",
              "type": "uint256"
            },
            {
              "internalType": "uint256",
              "name": "initialQuantity",
              "type": "uint256"
            },
            {
              "internalType": "uint256",
              "name": "votingUnits",
              "type": "uint256"
            },
            {
              "internalType": "uint256",
              "name": "reservedRate",
              "type": "uint256"
            },
            {
              "internalType": "address",
              "name": "reservedTokenBeneficiary",
              "type": "address"
            },
            {
              "internalType": "bytes32",
              "name": "encodedIPFSUri",
              "type": "bytes32"
            },
            {
              "internalType": "uint256",
              "name": "category",
              "type": "uint256"
            },
            {
              "internalType": "bool",
              "name": "allowManualMint",
              "type": "bool"
            },
            {
              "internalType": "bool",
              "name": "transfersPausable",
              "type": "bool"
            }
          ],
          "internalType": "struct JB721Tier",
          "name": "",
          "type": "tuple"
        }
      ],
      "stateMutability": "view",
      "type": "function"
    },
    {
      "inputs": [
        {
          "internalType": "address",
          "name": "",
          "type": "address"
        },
        {
          "internalType": "address",
          "name": "",
          "type": "address"
        },
        {
          "internalType": "uint256",
          "name": "",
          "type": "uint256"
        }
      ],
      "name": "tierBalanceOf",
      "outputs": [
        {
          "internalType": "uint256",
          "name": "",
          "type": "uint256"
        }
      ],
      "stateMutability": "view",
      "type": "function"
    },
    {
      "inputs": [
        {
          "internalType": "uint256",
          "name": "_tokenId",
          "type": "uint256"
        }
      ],
      "name": "tierIdOfToken",
      "outputs": [
        {
          "internalType": "uint256",
          "name": "",
          "type": "uint256"
        }
      ],
      "stateMutability": "pure",
      "type": "function"
    },
    {
      "inputs": [
        {
          "internalType": "address",
          "name": "_nft",
          "type": "address"
        },
        {
          "internalType": "uint256",
          "name": "_tokenId",
          "type": "uint256"
        }
      ],
      "name": "tierOfTokenId",
      "outputs": [
        {
          "components": [
            {
              "internalType": "uint256",
              "name": "id",
              "type": "uint256"
            },
            {
              "internalType": "uint256",
              "name": "contributionFloor",
              "type": "uint256"
            },
            {
              "internalType": "uint256",
              "name": "lockedUntil",
              "type": "uint256"
            },
            {
              "internalType": "uint256",
              "name": "remainingQuantity",
              "type": "uint256"
            },
            {
              "internalType": "uint256",
              "name": "initialQuantity",
              "type": "uint256"
            },
            {
              "internalType": "uint256",
              "name": "votingUnits",
              "type": "uint256"
            },
            {
              "internalType": "uint256",
              "name": "reservedRate",
              "type": "uint256"
            },
            {
              "internalType": "address",
              "name": "reservedTokenBeneficiary",
              "type": "address"
            },
            {
              "internalType": "bytes32",
              "name": "encodedIPFSUri",
              "type": "bytes32"
            },
            {
              "internalType": "uint256",
              "name": "category",
              "type": "uint256"
            },
            {
              "internalType": "bool",
              "name": "allowManualMint",
              "type": "bool"
            },
            {
              "internalType": "bool",
              "name": "transfersPausable",
              "type": "bool"
            }
          ],
          "internalType": "struct JB721Tier",
          "name": "",
          "type": "tuple"
        }
      ],
      "stateMutability": "view",
      "type": "function"
    },
    {
      "inputs": [
        {
          "internalType": "address",
          "name": "_nft",
          "type": "address"
        },
        {
          "internalType": "address",
          "name": "_account",
          "type": "address"
        },
        {
          "internalType": "uint256",
          "name": "_tierId",
          "type": "uint256"
        }
      ],
      "name": "tierVotingUnitsOf",
      "outputs": [
        {
          "internalType": "uint256",
          "name": "",
          "type": "uint256"
        }
      ],
      "stateMutability": "view",
      "type": "function"
    },
    {
      "inputs": [
        {
          "internalType": "address",
          "name": "_nft",
          "type": "address"
        },
        {
          "internalType": "uint256",
          "name": "_startingId",
          "type": "uint256"
        },
        {
          "internalType": "uint256",
          "name": "_size",
          "type": "uint256"
        }
      ],
      "name": "tiers",
      "outputs": [
        {
          "components": [
            {
              "internalType": "uint256",
              "name": "id",
              "type": "uint256"
            },
            {
              "internalType": "uint256",
              "name": "contributionFloor",
              "type": "uint256"
            },
            {
              "internalType": "uint256",
              "name": "lockedUntil",
              "type": "uint256"
            },
            {
              "internalType": "uint256",
              "name": "remainingQuantity",
              "type": "uint256"
            },
            {
              "internalType": "uint256",
              "name": "initialQuantity",
              "type": "uint256"
            },
            {
              "internalType": "uint256",
              "name": "votingUnits",
              "type": "uint256"
            },
            {
              "internalType": "uint256",
              "name": "reservedRate",
              "type": "uint256"
            },
            {
              "internalType": "address",
              "name": "reservedTokenBeneficiary",
              "type": "address"
            },
            {
              "internalType": "bytes32",
              "name": "encodedIPFSUri",
              "type": "bytes32"
            },
            {
              "internalType": "uint256",
              "name": "category",
              "type": "uint256"
            },
            {
              "internalType": "bool",
              "name": "allowManualMint",
              "type": "bool"
            },
            {
              "internalType": "bool",
              "name": "transfersPausable",
              "type": "bool"
            }
          ],
          "internalType": "struct JB721Tier[]",
          "name": "_tiers",
          "type": "tuple[]"
        }
      ],
      "stateMutability": "view",
      "type": "function"
    },
    {
      "inputs": [
        {
          "internalType": "address",
          "name": "",
          "type": "address"
        }
      ],
      "name": "tokenUriResolverOf",
      "outputs": [
        {
          "internalType": "contract IJBTokenUriResolver",
          "name": "",
          "type": "address"
        }
      ],
      "stateMutability": "view",
      "type": "function"
    },
    {
      "inputs": [
        {
          "internalType": "address",
          "name": "_nft",
          "type": "address"
        }
      ],
      "name": "totalRedemptionWeight",
      "outputs": [
        {
          "internalType": "uint256",
          "name": "weight",
          "type": "uint256"
        }
      ],
      "stateMutability": "view",
      "type": "function"
    },
    {
      "inputs": [
        {
          "internalType": "address",
          "name": "_nft",
          "type": "address"
        }
      ],
      "name": "totalSupply",
      "outputs": [
        {
          "internalType": "uint256",
          "name": "supply",
          "type": "uint256"
        }
      ],
      "stateMutability": "view",
      "type": "function"
    },
    {
      "inputs": [
        {
          "internalType": "address",
          "name": "_nft",
          "type": "address"
        },
        {
          "internalType": "address",
          "name": "_account",
          "type": "address"
        }
      ],
      "name": "votingUnitsOf",
      "outputs": [
        {
          "internalType": "uint256",
          "name": "units",
          "type": "uint256"
        }
      ],
      "stateMutability": "view",
      "type": "function"
    }
  ],
  "bytecode": {
    "object": "0x608060405234801561001057600080fd5b506136f2806100206000396000f3fe608060405234801561001057600080fd5b50600436106102325760003560e01c80638cec7d3911610130578063c8df1710116100b8578063eaa19ab31161007c578063eaa19ab314610715578063eebfd9f814610736578063f1bea54f14610749578063f682eeaf14610769578063f7888aec1461077c57600080fd5b8063c8df17101461068c578063cb827e321461069f578063d67b78fd146106b2578063d84a72c0146106c5578063e4dc2aa41461070257600080fd5b8063aab0cd80116100ff578063aab0cd80146105fb578063b67cb0471461061b578063baa7e80e1461062e578063bd51923c1461064e578063c2c55f941461067957600080fd5b80638cec7d39146105425780638ed6c0101461058b578063911c80b5146105bf57806393355578146105e857600080fd5b806335314b92116101be5780636262bcb2116101825780636262bcb2146104015780636825bb80146104145780637473c9a21461043f578063845104de1461045f57806386bc2be31461052f57600080fd5b806335314b921461036757806337f446521461037a5780633eb2556a146103ab57806342f9914b146103cb5780635f646611146103de57600080fd5b806317161f7d1161020557806317161f7d146102c657806320512ba1146103035780632ae5e492146103165780632b7e6ef0146103295780632e4d0ea81461035457600080fd5b8063086bb19a146102375780630fab09471461024c578063136e651c14610292578063144cc2d4146102a5575b600080fd5b61024a610245366004612c69565b61078f565b005b61027561025a366004612c69565b600d602052600090815260409020546001600160a01b031681565b6040516001600160a01b0390911681526020015b60405180910390f35b6102756102a0366004612c86565b610922565b6102b86102b3366004612cfe565b61097b565b604051908152602001610289565b61024a6102d4366004612c69565b336000908152600a6020526040902080546001600160a01b0319166001600160a01b0392909216919091179055565b61024a610311366004612d53565b6109f9565b6102b8610324366004612c69565b610a98565b6102b8610337366004612c86565b600960209081526000928352604080842090915290825290205481565b6102b8610362366004612d95565b610bfb565b6102b8610375366004612c86565b610c80565b6102b8610388366004612d95565b600760209081526000938452604080852082529284528284209052825290205481565b6103be6103b9366004612dd6565b610d50565b6040516102899190612e97565b6102b86103d9366004612ee6565b6110fc565b6103f16103ec366004612c86565b61110c565b6040519015158152602001610289565b61024a61040f366004612eff565b611144565b6102b8610422366004612c86565b600860209081526000928352604080842090915290825290205481565b61045261044d366004612c86565b611163565b6040516102899190612f71565b6104f461046d366004612c69565b604080516080810182526000808252602082018190529181018290526060810191909152506001600160a01b03166000908152600360209081526040918290208251608081018452905460ff808216151583526101008204811615159383019390935262010000810483161515938201939093526301000000909204161515606082015290565b604051610289919081511515815260208083015115159082015260408083015115159082015260609182015115159181019190915260800190565b61024a61053d366004612d53565b6113d0565b61024a610550366004612f80565b336000908152600b602090815260408083209483529390529190912080546001600160a01b0319166001600160a01b03909216919091179055565b610275610599366004612c86565b600b6020908152600092835260408084209091529082529020546001600160a01b031681565b6102756105cd366004612c69565b600a602052600090815260409020546001600160a01b031681565b6102b86105f6366004612fb0565b611494565b61060e610609366004612c69565b611544565b6040516102899190612fde565b610452610629366004612c86565b6115de565b61064161063c36600461302c565b611870565b6040516102899190613089565b6102b861065c366004612c86565b600f60209081526000928352604080842090915290825290205481565b61024a61068736600461309c565b611aa6565b6102b861069a366004612c86565b611b39565b61024a6106ad3660046130de565b611b72565b61024a6106c0366004612eff565b611b8d565b61024a6106d3366004612c69565b336000908152600d6020526040902080546001600160a01b0319166001600160a01b0392909216919091179055565b6102b8610710366004612c69565b611ba7565b61072861072336600461310f565b611c2f565b60405161028992919061316e565b610641610744366004613190565b611f93565b6102b8610757366004612c69565b60066020526000908152604090205481565b61060e610777366004612c69565b612851565b6102b861078a366004612fb0565b61286a565b600061079a826128d6565b905060006107a783612917565b6001600160a01b03841660009081526004602052604081209192509081906107cf9084612949565b90505b82156108dd576107e2818461298f565b1561080c576001600160a01b03851660009081526004602052604090206108099084612949565b90505b61081681846129a9565b6108cb5761082582600161320a565b831461087d576001600160a01b0385166000908152602081815260408083208584529091529020548314610878576001600160a01b03851660009081526020818152604080832085845290915290208390555b6108c7565b6001600160a01b038516600090815260208181526040808320858452909152902054156108c7576001600160a01b0385166000908152602081815260408083208584529091528120555b8291505b6108d68584866129c8565b92506107d2565b6040513381526001600160a01b038616907f4a0f854ce3c180d56f3e9eb47eb064c595bf3de0ab9af45425291e5b1bb733a89060200160405180910390a25050505050565b6001600160a01b0380831660009081526001602090815260408083208584529091528120549091168015610957579050610975565b50506001600160a01b038083166000908152600a6020526040902054165b92915050565b600081815b818110156109f0576001600160a01b0386166000908152600260205260408120906109c28787858181106109b6576109b661321d565b905060200201356110fc565b81526020810191909152604001600020546109e6906001600160501b03168461320a565b9250600101610980565b50509392505050565b806000805b82811015610a9157848482818110610a1857610a1861321d565b336000908152600260209081526040808320938202959095013580835292905292909220549193505042600160501b90910465ffffffffffff1610610a7057604051636b73d51160e11b815260040160405180910390fd5b336000908152600460205260409020610a899083612a13565b6001016109fe565b5050505050565b6001600160a01b038116600090815260066020526040812054610ab9612b89565b60005b82811015610bf3576001600160a01b0385166000908152600260209081526040808320600180860185529083529281902081516101208101835281546001600160501b038116825265ffffffffffff600160501b8204169482019490945264ffffffffff600160801b8504811693820193909352600160a81b8404909216606083015261ffff600160d01b840481166080840152600160e01b84041660a083015260ff600160f01b8404811660c0840152600160f81b9093048316151560e083015283015490911615156101008201529250610ba5908690610b9f90849061320a565b84612a4c565b82604001518360600151610bb99190613233565b64ffffffffff16610bca919061320a565b8251610bdf91906001600160501b0316613258565b610be9908561320a565b9350600101610abc565b505050919050565b6001600160a01b0380841660009081526007602090815260408083209386168352928152828220848352905290812054808203610c3c576000915050610c79565b6001600160a01b0385166000908152600260209081526040808320868452909152902054610c7590600160d01b900461ffff1682613258565b9150505b9392505050565b6001600160a01b0382166000908152600260209081526040808320848452825280832081516101208101835281546001600160501b038116825265ffffffffffff600160501b8204169482019490945264ffffffffff600160801b8504811693820193909352600160a81b8404909216606083015261ffff600160d01b840481166080840152600160e01b84041660a083015260ff600160f01b8404811660c0840152600160f81b9093048316151560e0830152600101549091161515610100820152610c799084908490612a4c565b60606000610d5d856128d6565b90508267ffffffffffffffff811115610d7857610d78613277565b604051908082528060200260200182016040528015610db157816020015b610d9e612bd5565b815260200190600190039081610d965790505b50915060008085600003610dcd57610dc887612917565b610dcf565b855b9050610dd9612b89565b6001600160a01b0388166000908152600460205260408120610dfb9084612949565b90505b8215801590610e0c57508684105b156110e557610e1b818461298f565b15610e45576001600160a01b0389166000908152600460205260409020610e429084612949565b90505b610e4f81846129a9565b6110d357600260008a6001600160a01b03166001600160a01b031681526020019081526020016000206000848152602001908152602001600020604051806101200160405290816000820160009054906101000a90046001600160501b03166001600160501b03166001600160501b0316815260200160008201600a9054906101000a900465ffffffffffff1665ffffffffffff1665ffffffffffff1681526020016000820160109054906101000a900464ffffffffff1664ffffffffff1664ffffffffff1681526020016000820160159054906101000a900464ffffffffff1664ffffffffff1664ffffffffff16815260200160008201601a9054906101000a900461ffff1661ffff1661ffff16815260200160008201601c9054906101000a900461ffff1661ffff1661ffff16815260200160008201601e9054906101000a900460ff1660ff1660ff16815260200160008201601f9054906101000a900460ff161515151581526020016001820160009054906101000a900460ff161515151581525050915060405180610180016040528084815260200183600001516001600160501b03168152602001836020015165ffffffffffff168152602001836040015164ffffffffff168152602001836060015164ffffffffff168152602001836080015161ffff1681526020018360a0015161ffff1681526020016110568b86610922565b6001600160a01b0390811682528b166000908152600f60209081526040808320888452825291829020549083015260c085015160ff169082015260e084015115156060820152610100840151151560809091015286856110b58161328d565b9650815181106110c7576110c761321d565b60200260200101819052505b6110de8984876129c8565b9250610dfe565b8684146110f0578386525b50505050509392505050565b6000610975633b9aca00836132bc565b6001600160a01b038216600090815260046020526040812081906111309084612949565b905061113c81846129a9565b949350505050565b336000908152600c6020526040902061115e828483613352565b505050565b61116b612bd5565b600060026000856001600160a01b03166001600160a01b031681526020019081526020016000206000848152602001908152602001600020604051806101200160405290816000820160009054906101000a90046001600160501b03166001600160501b03166001600160501b0316815260200160008201600a9054906101000a900465ffffffffffff1665ffffffffffff1665ffffffffffff1681526020016000820160109054906101000a900464ffffffffff1664ffffffffff1664ffffffffff1681526020016000820160159054906101000a900464ffffffffff1664ffffffffff1664ffffffffff16815260200160008201601a9054906101000a900461ffff1661ffff1661ffff16815260200160008201601c9054906101000a900461ffff1661ffff1661ffff16815260200160008201601e9054906101000a900460ff1660ff1660ff16815260200160008201601f9054906101000a900460ff161515151581526020016001820160009054906101000a900460ff161515151581525050905060405180610180016040528084815260200182600001516001600160501b03168152602001826020015165ffffffffffff168152602001826040015164ffffffffff168152602001826060015164ffffffffff168152602001826080015161ffff1681526020018260a0015161ffff1681526020016113708686610922565b6001600160a01b03908116825286166000908152600f60209081526040808320888452825291829020549083015260c084015160ff169082015260e083015115156060820152610100909201511515608090920191909152905092915050565b806000805b82811015610a91578484828181106113ef576113ef61321d565b9050602002013591506000611403836110fc565b336000908152600960209081526040808320848452909152812080549293509061142c8361328d565b909155505033600090815260026020908152604080832084845290915290208054600160801b900464ffffffffff1690601061146783613412565b91906101000a81548164ffffffffff021916908364ffffffffff16021790555050816001019150506113d5565b6001600160a01b03821660009081526006602052604081205481815b801561153b576001600160a01b03808716600090815260076020908152604080832093891683529281528282208483529052205491508115611532576001600160a01b038616600090815260026020908152604080832084845290915290205461152590600160d01b900461ffff1683613258565b61152f908561320a565b93505b600019016114b0565b50505092915050565b600e602052600090815260409020805461155d906132d0565b80601f0160208091040260200160405190810160405280929190818152602001828054611589906132d0565b80156115d65780601f106115ab576101008083540402835291602001916115d6565b820191906000526020600020905b8154815290600101906020018083116115b957829003601f168201915b505050505081565b6115e6612bd5565b60006115f1836110fc565b9050600060026000866001600160a01b03166001600160a01b031681526020019081526020016000206000838152602001908152602001600020604051806101200160405290816000820160009054906101000a90046001600160501b03166001600160501b03166001600160501b0316815260200160008201600a9054906101000a900465ffffffffffff1665ffffffffffff1665ffffffffffff1681526020016000820160109054906101000a900464ffffffffff1664ffffffffff1664ffffffffff1681526020016000820160159054906101000a900464ffffffffff1664ffffffffff1664ffffffffff16815260200160008201601a9054906101000a900461ffff1661ffff1661ffff16815260200160008201601c9054906101000a900461ffff1661ffff1661ffff16815260200160008201601e9054906101000a900460ff1660ff1660ff16815260200160008201601f9054906101000a900460ff161515151581526020016001820160009054906101000a900460ff161515151581525050905060405180610180016040528083815260200182600001516001600160501b03168152602001826020015165ffffffffffff168152602001826040015164ffffffffff168152602001826060015164ffffffffff168152602001826080015161ffff1681526020018260a0015161ffff1681526020016117f88785610922565b6001600160a01b03168152602001600f6000886001600160a01b03166001600160a01b0316815260200190815260200160002060008581526020019081526020016000205481526020018260c0015160ff1681526020018260e001511515815260200182610100015115158152509250505092915050565b336000818152600260209081526040808320868452825280832081516101208101835281546001600160501b038116825265ffffffffffff600160501b8204169482019490945264ffffffffff600160801b8504811693820193909352600160a81b840490921660608381019190915261ffff600160d01b850481166080850152600160e01b85041660a084015260ff600160f01b8504811660c0850152600160f81b9094048416151560e084015260018201549093161515610100830152919391929161193f918790612a4c565b9050808411156119625760405163226f999960e11b815260040160405180910390fd5b3360009081526008602090815260408083208884529091528120805486929061198c90849061320a565b9091555084905067ffffffffffffffff8111156119ab576119ab613277565b6040519080825280602002602001820160405280156119d4578160200160208202803683370190505b503360009081526009602090815260408083208984529091528120549194505b85811015611a9c57611a77878386600001601081819054906101000a900464ffffffffff16611a2290613436565b91906101000a81548164ffffffffff021916908364ffffffffff16021790558760000160159054906101000a900464ffffffffff16611a619190613233565b64ffffffffff16611a72919061320a565b612b6e565b858281518110611a8957611a8961321d565b60209081029190910101526001016119f4565b5050505092915050565b6001600160a01b03821615611af3573360009081526007602090815260408083206001600160a01b0386168452825280832086845290915281208054909190611aee90613457565b909155505b6001600160a01b0381161561115e573360009081526007602090815260408083206001600160a01b03851684528252808320868452909152902080546001019055505050565b6001600160a01b0382166000908152600f6020526040812081611b5b846110fc565b815260200190815260200160002054905092915050565b336000908152600360205260409020819061115e828261347b565b336000908152600e6020526040902061115e828483613352565b6001600160a01b0381166000908152600660205260408120548190805b8015610bf3576001600160a01b038516600090815260026020908152604080832084845290915290208054909350611c139064ffffffffff600160801b8204811691600160a81b900416613233565b611c249064ffffffffff168561320a565b935060001901611bc4565b606084836000808267ffffffffffffffff811115611c4f57611c4f613277565b604051908082528060200260200182016040528015611c78578160200160208202803683370190505b5094506000611cc189896000818110611c9357611c9361321d565b9050602002016020810190611ca8919061352a565b3360009081526004602052604090209061ffff16612949565b905060005b84811015611f8557898982818110611ce057611ce061321d565b9050602002016020810190611cf5919061352a565b61ffff169250611d05828461298f565b15611d2657336000908152600460205260409020611d239084612949565b91505b611d3082846129a9565b15611d4e5760405163d32cb5c160e01b815260040160405180910390fd5b33600090815260026020908152604080832086845290915290209350878015611d8057508354600160f81b900460ff16155b15611d9e57604051632f792d3960e11b815260040160405180910390fd5b8354600160a81b900464ffffffffff16600003611dce57604051630de5859f60e01b815260040160405180910390fd5b83546001600160501b0316861015611df957604051632cd294cf60e01b815260040160405180910390fd5b604080516101208101825285546001600160501b038116825265ffffffffffff600160501b820416602083015264ffffffffff600160801b8204811693830193909352600160a81b8104909216606082015261ffff600160d01b830481166080830152600160e01b83041660a082015260ff600160f01b8304811660c0830152600160f81b9092048216151560e082015260018601549091161515610100820152611ea79033908590612a4c565b8454611ec19190600160801b900464ffffffffff16613545565b600003611ee15760405163985a45d960e01b815260040160405180910390fd5b336000908152600960209081526040808320868452909152902054845460001964ffffffffff600160801b808404821692830182160264ffffffffff60801b1990931692909217808855611f49938793600160a81b9092048216929092036001011601612b6e565b878281518110611f5b57611f5b61321d565b60209081029190910101528354611f7b906001600160501b031687613545565b9550600101611cc6565b505050505094509492505050565b33600090815260066020526040902054606090829061ffff611fb5838361320a565b1115611fd457604051631bc68c8b60e11b815260040160405180910390fd5b6000611fdf336128d6565b90508267ffffffffffffffff811115611ffa57611ffa613277565b604051908082528060200260200182016040528015612023578160200160208202803683370190505b5093506000821561203c5761203733612917565b61203f565b60005b6040805161016081018252600080825260208201819052918101829052606081018290526080810182905260a0810182905260c0810182905260e08101829052610100810182905261012081018290526101408101829052919250903360009081526003602090815260408083208151608081018352905460ff80821615158352610100820481161515948301949094526201000081048416151592820192909252630100000090910490911615156060820152905b87811015612828578a8a8281811061210f5761210f61321d565b9050610160020180360381019061212691906135d5565b92506121376001633b9aca00613545565b836040015164ffffffffff161115612162576040516349016ea360e01b815260040160405180910390fd5b80156122005760008b8b612177600185613545565b8181106121865761218661321d565b9050610160020180360381019061219d91906135d5565b90508060e0015160ff168460e0015160ff1610156121ce57604051631cabebd560e21b815260040160405180910390fd5b805184516001600160501b03918216911610156121fe576040516325ec4a9160e21b815260040160405180910390fd5b505b816020015180156122185750606083015161ffff1615155b1561223657604051630189200360e11b815260040160405180910390fd5b81518061224557508261010001515b80156122585750608083015161ffff1615155b156122765760405163a75b1cd560e01b815260040160405180910390fd5b8160400151801561228957508261010001515b156122a7576040516330ec637f60e01b815260040160405180910390fd5b826040015164ffffffffff166000036122d357604051631e0a863160e31b815260040160405180910390fd5b60006122df828961320a565b6122ea90600161320a565b905060405180610120016040528085600001516001600160501b03168152602001856020015165ffffffffffff168152602001856040015164ffffffffff168152602001856040015164ffffffffff168152602001856060015161ffff168152602001856080015161ffff1681526020018560e0015160ff16815260200185610100015115158152602001856101400151151581525060026000336001600160a01b03166001600160a01b03168152602001908152602001600020600083815260200190815260200160002060008201518160000160006101000a8154816001600160501b0302191690836001600160501b03160217905550602082015181600001600a6101000a81548165ffffffffffff021916908365ffffffffffff16021790555060408201518160000160106101000a81548164ffffffffff021916908364ffffffffff16021790555060608201518160000160156101000a81548164ffffffffff021916908364ffffffffff160217905550608082015181600001601a6101000a81548161ffff021916908361ffff16021790555060a082015181600001601c6101000a81548161ffff021916908361ffff16021790555060c082015181600001601e6101000a81548160ff021916908360ff16021790555060e082015181600001601f6101000a81548160ff0219169083151502179055506101008201518160010160006101000a81548160ff02191690831515021790555090505060006001600160a01b03168460a001516001600160a01b0316146125a7578361012001511561256a5760a0840151336000908152600a6020526040902080546001600160a01b0319166001600160a01b039092169190911790556125a7565b60a0840151336000908152600160209081526040808320858452909152902080546001600160a01b0319166001600160a01b039092169190911790555b60c0840151156125d25760c0840151336000908152600f602090815260408083208584529091529020555b8515612801573360009081526004602052604081208791906125f49083612949565b905060005b82156127fd57612609828461298f565b1561262a573360009081526004602052604090206126279084612949565b91505b61263533848c6129c8565b33600090815260026020908152604080832087845290915290205460e089015191925060ff600160f01b909104811691161080612699575033600090815260026020908152604080832086845290915290205487516001600160501b039182169116105b15612783576126a984600161320a565b83146126cb573360009081526020818152604080832087845290915290208390555b6126d660018d613545565b851480156126f35750336000908152600560205260409020548a14155b1561270b573360009081526005602052604090208a90555b612716600185613545565b8814158061273b5750336000908152602081815260408083208b845290915290205415155b156127745761274b600185613545565b8814612757578361275a565b60005b336000908152602081815260408083208c84529091529020555b829850839750600092506125f9565b80158061278f57508a81115b156127f45761279f83600161320a565b84146127c1573360009081526020818152604080832086845290915290208490555b336000908152600560205260408120549499508994909350156127ef57336000908152600560205260408120555b6125f9565b919650816125f9565b5050505b808a83815181106128145761281461321d565b6020908102919091010152506001016120f5565b50612833878761320a565b33600090815260066020526040902055509598975050505050505050565b600c602052600090815260409020805461155d906132d0565b6001600160a01b038216600090815260066020526040812054805b80156128ce576001600160a01b0380861660009081526007602090815260408083209388168352928152828220848352905220546128c3908461320a565b925060001901612885565b505092915050565b6001600160a01b0381166000908152600560205260408120549081900361291257506001600160a01b0381166000908152600660205260409020545b919050565b6001600160a01b0381166000908152602081815260408083208380529091528120549081900361291257506001919050565b604080518082019091526000808252602082015260006129698360081c90565b604080518082018252600083815260209788529190912054815294850152509192915050565b600082602001516129a08360081c90565b14159392505050565b60006129b7610100836136a8565b83516001911c811614905092915050565b60008183036129d957506000610c79565b6001600160a01b0384166000908152602081815260408083208684529091529020548015612a08579050610c79565b610c7584600161320a565b6000612a1f8260081c90565b9050612a2d610100836136a8565b6000918252602093909352604090208054600190931b90921790915550565b60008160a0015161ffff1660001480612a7a5750816040015164ffffffffff16826060015164ffffffffff16145b15612a8757506000610c79565b6001600160a01b0384166000908152600860209081526040808320868452909152908190205490830151606084015164ffffffffff91821691612acc91849116613545565b03612adb576000915050610c79565b60008184604001518560600151612af29190613233565b64ffffffffff16612b039190613545565b905060008460a0015161ffff1682612b1b91906132bc565b905060008560a0015161ffff1683612b3391906136a8565b1115612b4557612b428161328d565b90505b80831115612b595760009350505050610c79565b612b638382613545565b979650505050505050565b600081612b7f633b9aca0085613258565b610c79919061320a565b6040805161012081018252600080825260208201819052918101829052606081018290526080810182905260a0810182905260c0810182905260e0810182905261010081019190915290565b6040518061018001604052806000815260200160008152602001600081526020016000815260200160008152602001600081526020016000815260200160006001600160a01b0316815260200160008019168152602001600081526020016000151581526020016000151581525090565b6001600160a01b0381168114612c5b57600080fd5b50565b803561291281612c46565b600060208284031215612c7b57600080fd5b8135610c7981612c46565b60008060408385031215612c9957600080fd5b8235612ca481612c46565b946020939093013593505050565b60008083601f840112612cc457600080fd5b50813567ffffffffffffffff811115612cdc57600080fd5b6020830191508360208260051b8501011115612cf757600080fd5b9250929050565b600080600060408486031215612d1357600080fd5b8335612d1e81612c46565b9250602084013567ffffffffffffffff811115612d3a57600080fd5b612d4686828701612cb2565b9497909650939450505050565b60008060208385031215612d6657600080fd5b823567ffffffffffffffff811115612d7d57600080fd5b612d8985828601612cb2565b90969095509350505050565b600080600060608486031215612daa57600080fd5b8335612db581612c46565b92506020840135612dc581612c46565b929592945050506040919091013590565b600080600060608486031215612deb57600080fd5b8335612df681612c46565b95602085013595506040909401359392505050565b805182526020810151602083015260408101516040830152606081015160608301526080810151608083015260a081015160a083015260c081015160c083015260e0810151612e6560e08401826001600160a01b03169052565b506101008181015190830152610120808201519083015261014080820151151590830152610160908101511515910152565b6020808252825182820181905260009190848201906040850190845b81811015612eda57612ec6838551612e0b565b928401926101809290920191600101612eb3565b50909695505050505050565b600060208284031215612ef857600080fd5b5035919050565b60008060208385031215612f1257600080fd5b823567ffffffffffffffff80821115612f2a57600080fd5b818501915085601f830112612f3e57600080fd5b813581811115612f4d57600080fd5b866020828501011115612f5f57600080fd5b60209290920196919550909350505050565b61018081016109758284612e0b565b60008060408385031215612f9357600080fd5b823591506020830135612fa581612c46565b809150509250929050565b60008060408385031215612fc357600080fd5b8235612fce81612c46565b91506020830135612fa581612c46565b600060208083528351808285015260005b8181101561300b57858101830151858201604001528201612fef565b506000604082860101526040601f19601f8301168501019250505092915050565b6000806040838503121561303f57600080fd5b50508035926020909101359150565b600081518084526020808501945080840160005b8381101561307e57815187529582019590820190600101613062565b509495945050505050565b602081526000610c79602083018461304e565b6000806000606084860312156130b157600080fd5b8335925060208401356130c381612c46565b915060408401356130d381612c46565b809150509250925092565b6000608082840312156130f057600080fd5b50919050565b8015158114612c5b57600080fd5b8035612912816130f6565b6000806000806060858703121561312557600080fd5b84359350602085013567ffffffffffffffff81111561314357600080fd5b61314f87828801612cb2565b9094509250506040850135613163816130f6565b939692955090935050565b604081526000613181604083018561304e565b90508260208301529392505050565b600080602083850312156131a357600080fd5b823567ffffffffffffffff808211156131bb57600080fd5b818501915085601f8301126131cf57600080fd5b8135818111156131de57600080fd5b86602061016083028501011115612f5f57600080fd5b634e487b7160e01b600052601160045260246000fd5b80820180821115610975576109756131f4565b634e487b7160e01b600052603260045260246000fd5b64ffffffffff828116828216039080821115613251576132516131f4565b5092915050565b6000816000190483118215151615613272576132726131f4565b500290565b634e487b7160e01b600052604160045260246000fd5b60006001820161329f5761329f6131f4565b5060010190565b634e487b7160e01b600052601260045260246000fd5b6000826132cb576132cb6132a6565b500490565b600181811c908216806132e457607f821691505b6020821081036130f057634e487b7160e01b600052602260045260246000fd5b601f82111561115e57600081815260208120601f850160051c8101602086101561332b5750805b601f850160051c820191505b8181101561334a57828155600101613337565b505050505050565b67ffffffffffffffff83111561336a5761336a613277565b61337e8361337883546132d0565b83613304565b6000601f8411600181146133b2576000851561339a5750838201355b600019600387901b1c1916600186901b178355610a91565b600083815260209020601f19861690835b828110156133e357868501358255602094850194600190920191016133c3565b50868210156134005760001960f88860031b161c19848701351681555b505060018560011b0183555050505050565b600064ffffffffff80831681810361342c5761342c6131f4565b6001019392505050565b600064ffffffffff82168061344d5761344d6131f4565b6000190192915050565b600081613466576134666131f4565b506000190190565b60008135610975816130f6565b8135613486816130f6565b815460ff19811691151560ff16918217835560208401356134a6816130f6565b61ff0090151560081b1661ffff19821683178117845560408501356134ca816130f6565b62ff000081151560101b168462ffffff198516178317178555505050506135146134f66060840161346e565b82805463ff000000191691151560181b63ff00000016919091179055565b5050565b803561ffff8116811461291257600080fd5b60006020828403121561353c57600080fd5b610c7982613518565b81810381811115610975576109756131f4565b604051610160810167ffffffffffffffff8111828210171561357c5761357c613277565b60405290565b80356001600160501b038116811461291257600080fd5b803565ffffffffffff8116811461291257600080fd5b803564ffffffffff8116811461291257600080fd5b803560ff8116811461291257600080fd5b600061016082840312156135e857600080fd5b6135f0613558565b6135f983613582565b815261360760208401613599565b6020820152613618604084016135af565b604082015261362960608401613518565b606082015261363a60808401613518565b608082015261364b60a08401612c5e565b60a082015260c083013560c082015261366660e084016135c4565b60e0820152610100613679818501613104565b9082015261012061368b848201613104565b9082015261014061369d848201613104565b908201529392505050565b6000826136b7576136b76132a6565b50069056fea26469706673582212204056e3fdc228086fd0c7ef229e41a00ddad5884af714ba1f5bf31c485e9e0dfc64736f6c63430008100033",
    "linkReferences": {}
  },
  "methodIdentifiers": {
    "balanceOf(address,address)": "f7888aec",
    "baseUriOf(address)": "f682eeaf",
    "cleanTiers(address)": "086bb19a",
    "contractUriOf(address)": "aab0cd80",
    "defaultReservedTokenBeneficiaryOf(address)": "911c80b5",
    "encodedIPFSUriOf(address,uint256)": "bd51923c",
    "encodedTierIPFSUriOf(address,uint256)": "c8df1710",
    "firstOwnerOf(address,uint256)": "8ed6c010",
    "flagsOf(address)": "845104de",
    "isTierRemoved(address,uint256)": "5f646611",
    "maxTierIdOf(address)": "f1bea54f",
    "numberOfBurnedFor(address,uint256)": "2b7e6ef0",
    "numberOfReservedTokensOutstandingFor(address,uint256)": "35314b92",
    "numberOfReservesMintedFor(address,uint256)": "6825bb80",
    "recordAddTiers((uint80,uint48,uint40,uint16,uint16,address,bytes32,uint8,bool,bool,bool)[])": "eebfd9f8",
    "recordBurn(uint256[])": "86bc2be3",
    "recordFlags((bool,bool,bool,bool))": "cb827e32",
    "recordMint(uint256,uint16[],bool)": "eaa19ab3",
    "recordMintReservesFor(uint256,uint256)": "baa7e80e",
    "recordRemoveTierIds(uint256[])": "20512ba1",
    "recordSetBaseUri(string)": "6262bcb2",
    "recordSetContractUri(string)": "d67b78fd",
    "recordSetDefaultReservedTokenBeneficiary(address)": "17161f7d",
    "recordSetFirstOwnerOf(uint256,address)": "8cec7d39",
    "recordSetTokenUriResolver(address)": "d84a72c0",
    "recordTransferForTier(uint256,address,address)": "c2c55f94",
    "redemptionWeightOf(address,uint256[])": "144cc2d4",
    "reservedTokenBeneficiaryOf(address,uint256)": "136e651c",
    "tier(address,uint256)": "7473c9a2",
    "tierBalanceOf(address,address,uint256)": "37f44652",
    "tierIdOfToken(uint256)": "42f9914b",
    "tierOfTokenId(address,uint256)": "b67cb047",
    "tierVotingUnitsOf(address,address,uint256)": "2e4d0ea8",
    "tiers(address,uint256,uint256)": "3eb2556a",
    "tokenUriResolverOf(address)": "0fab0947",
    "totalRedemptionWeight(address)": "2ae5e492",
    "totalSupply(address)": "e4dc2aa4",
    "votingUnitsOf(address,address)": "93355578"
  },
  "id": 5
}