{
  "abi": [
    {
      "inputs": [],
      "name": "INSUFFICIENT_AMOUNT",
      "type": "error"
    },
    {
      "inputs": [],
      "name": "INSUFFICIENT_RESERVES",
      "type": "error"
    },
    {
      "inputs": [],
      "name": "INVALID_PRICE_SORT_ORDER",
      "type": "error"
    },
    {
      "inputs": [],
      "name": "INVALID_TIER",
      "type": "error"
    },
    {
      "inputs": [],
      "name": "NO_QUANTITY",
      "type": "error"
    },
    {
      "inputs": [],
      "name": "OUT",
      "type": "error"
    },
    {
      "inputs": [],
      "name": "RESERVED_RATE_NOT_ALLOWED",
      "type": "error"
    },
    {
      "inputs": [],
      "name": "TIER_LOCKED",
      "type": "error"
    },
    {
      "inputs": [],
      "name": "TIER_REMOVED",
      "type": "error"
    },
    {
      "inputs": [],
      "name": "VOTING_UNITS_NOT_ALLOWED",
      "type": "error"
    },
    {
      "anonymous": false,
      "inputs": [
        {
          "indexed": true,
          "internalType": "address",
          "name": "nft",
          "type": "address"
        },
        {
          "indexed": false,
          "internalType": "address",
          "name": "caller",
          "type": "address"
        }
      ],
      "name": "CleanTiers",
      "type": "event"
    },
    {
      "inputs": [
        {
          "internalType": "address",
          "name": "_nft",
          "type": "address"
        },
        {
          "internalType": "address",
          "name": "_owner",
          "type": "address"
        }
      ],
      "name": "balanceOf",
      "outputs": [
        {
          "internalType": "uint256",
          "name": "balance",
          "type": "uint256"
        }
      ],
      "stateMutability": "view",
      "type": "function"
    },
    {
      "inputs": [
        {
          "internalType": "address",
          "name": "",
          "type": "address"
        }
      ],
      "name": "baseUriOf",
      "outputs": [
        {
          "internalType": "string",
          "name": "",
          "type": "string"
        }
      ],
      "stateMutability": "view",
      "type": "function"
    },
    {
      "inputs": [
        {
          "internalType": "address",
          "name": "_nft",
          "type": "address"
        }
      ],
      "name": "cleanTiers",
      "outputs": [],
      "stateMutability": "nonpayable",
      "type": "function"
    },
    {
      "inputs": [
        {
          "internalType": "address",
          "name": "",
          "type": "address"
        }
      ],
      "name": "contractUriOf",
      "outputs": [
        {
          "internalType": "string",
          "name": "",
          "type": "string"
        }
      ],
      "stateMutability": "view",
      "type": "function"
    },
    {
      "inputs": [
        {
          "internalType": "address",
          "name": "",
          "type": "address"
        }
      ],
      "name": "defaultReservedTokenBeneficiaryOf",
      "outputs": [
        {
          "internalType": "address",
          "name": "",
          "type": "address"
        }
      ],
      "stateMutability": "view",
      "type": "function"
    },
    {
      "inputs": [
        {
          "internalType": "address",
          "name": "",
          "type": "address"
        },
        {
          "internalType": "uint256",
          "name": "",
          "type": "uint256"
        }
      ],
      "name": "encodedIPFSUriOf",
      "outputs": [
        {
          "internalType": "bytes32",
          "name": "",
          "type": "bytes32"
        }
      ],
      "stateMutability": "view",
      "type": "function"
    },
    {
      "inputs": [
        {
          "internalType": "address",
          "name": "_nft",
          "type": "address"
        },
        {
          "internalType": "uint256",
          "name": "_tokenId",
          "type": "uint256"
        }
      ],
      "name": "encodedTierIPFSUriOf",
      "outputs": [
        {
          "internalType": "bytes32",
          "name": "",
          "type": "bytes32"
        }
      ],
      "stateMutability": "view",
      "type": "function"
    },
    {
      "inputs": [
        {
          "internalType": "address",
          "name": "",
          "type": "address"
        },
        {
          "internalType": "uint256",
          "name": "",
          "type": "uint256"
        }
      ],
      "name": "firstOwnerOf",
      "outputs": [
        {
          "internalType": "address",
          "name": "",
          "type": "address"
        }
      ],
      "stateMutability": "view",
      "type": "function"
    },
    {
      "inputs": [
        {
          "internalType": "address",
          "name": "",
          "type": "address"
        },
        {
          "internalType": "uint256",
          "name": "",
          "type": "uint256"
        }
      ],
      "name": "isTierRemoved",
      "outputs": [
        {
          "internalType": "bool",
          "name": "",
          "type": "bool"
        }
      ],
      "stateMutability": "view",
      "type": "function"
    },
    {
      "inputs": [
        {
          "internalType": "address",
          "name": "",
          "type": "address"
        }
      ],
      "name": "lockReservedTokenChangesFor",
      "outputs": [
        {
          "internalType": "bool",
          "name": "",
          "type": "bool"
        }
      ],
      "stateMutability": "view",
      "type": "function"
    },
    {
      "inputs": [
        {
          "internalType": "address",
          "name": "",
          "type": "address"
        }
      ],
      "name": "lockVotingUnitChangesFor",
      "outputs": [
        {
          "internalType": "bool",
          "name": "",
          "type": "bool"
        }
      ],
      "stateMutability": "view",
      "type": "function"
    },
    {
      "inputs": [
        {
          "internalType": "address",
          "name": "",
          "type": "address"
        }
      ],
      "name": "maxTierId",
      "outputs": [
        {
          "internalType": "uint256",
          "name": "",
          "type": "uint256"
        }
      ],
      "stateMutability": "view",
      "type": "function"
    },
    {
      "inputs": [
        {
          "internalType": "address",
          "name": "",
          "type": "address"
        },
        {
          "internalType": "uint256",
          "name": "",
          "type": "uint256"
        }
      ],
      "name": "numberOfBurnedFor",
      "outputs": [
        {
          "internalType": "uint256",
          "name": "",
          "type": "uint256"
        }
      ],
      "stateMutability": "view",
      "type": "function"
    },
    {
      "inputs": [
        {
          "internalType": "address",
          "name": "_nft",
          "type": "address"
        },
        {
          "internalType": "uint256",
          "name": "_tierId",
          "type": "uint256"
        }
      ],
      "name": "numberOfReservedTokensOutstandingFor",
      "outputs": [
        {
          "internalType": "uint256",
          "name": "",
          "type": "uint256"
        }
      ],
      "stateMutability": "view",
      "type": "function"
    },
    {
      "inputs": [
        {
          "internalType": "address",
          "name": "",
          "type": "address"
        },
        {
          "internalType": "uint256",
          "name": "",
          "type": "uint256"
        }
      ],
      "name": "numberOfReservesMintedFor",
      "outputs": [
        {
          "internalType": "uint256",
          "name": "",
          "type": "uint256"
        }
      ],
      "stateMutability": "view",
      "type": "function"
    },
    {
      "inputs": [
        {
          "components": [
            {
              "internalType": "uint256",
              "name": "contributionFloor",
              "type": "uint256"
            },
            {
              "internalType": "uint256",
              "name": "lockedUntil",
              "type": "uint256"
            },
            {
              "internalType": "uint256",
              "name": "initialQuantity",
              "type": "uint256"
            },
            {
              "internalType": "uint256",
              "name": "votingUnits",
              "type": "uint256"
            },
            {
              "internalType": "uint256",
              "name": "reservedRate",
              "type": "uint256"
            },
            {
              "internalType": "address",
              "name": "reservedTokenBeneficiary",
              "type": "address"
            },
            {
              "internalType": "bytes32",
              "name": "encodedIPFSUri",
              "type": "bytes32"
            },
            {
              "internalType": "bool",
              "name": "shouldUseBeneficiaryAsDefault",
              "type": "bool"
            }
          ],
          "internalType": "struct JB721TierParams[]",
          "name": "_tiersToAdd",
          "type": "tuple[]"
        }
      ],
      "name": "recordAddTiers",
      "outputs": [
        {
          "internalType": "uint256[]",
          "name": "tierIds",
          "type": "uint256[]"
        }
      ],
      "stateMutability": "nonpayable",
      "type": "function"
    },
    {
      "inputs": [
        {
          "internalType": "uint256[]",
          "name": "_tokenIds",
          "type": "uint256[]"
        }
      ],
      "name": "recordBurn",
      "outputs": [],
      "stateMutability": "nonpayable",
      "type": "function"
    },
    {
      "inputs": [
        {
          "internalType": "bool",
          "name": "_flag",
          "type": "bool"
        }
      ],
      "name": "recordLockReservedTokenChanges",
      "outputs": [],
      "stateMutability": "nonpayable",
      "type": "function"
    },
    {
      "inputs": [
        {
          "internalType": "bool",
          "name": "_flag",
          "type": "bool"
        }
      ],
      "name": "recordLockVotingUnitChanges",
      "outputs": [],
      "stateMutability": "nonpayable",
      "type": "function"
    },
    {
      "inputs": [
        {
          "internalType": "uint256",
          "name": "_amount",
          "type": "uint256"
        },
        {
          "internalType": "uint16[]",
          "name": "_tierIds",
          "type": "uint16[]"
        }
      ],
      "name": "recordMint",
      "outputs": [
        {
          "internalType": "uint256[]",
          "name": "tokenIds",
          "type": "uint256[]"
        },
        {
          "internalType": "uint256",
          "name": "leftoverAmount",
          "type": "uint256"
        }
      ],
      "stateMutability": "nonpayable",
      "type": "function"
    },
    {
      "inputs": [
        {
          "internalType": "uint256",
          "name": "_amount",
          "type": "uint256"
        }
      ],
      "name": "recordMintBestAvailableTier",
      "outputs": [
        {
          "internalType": "uint256",
          "name": "tokenId",
          "type": "uint256"
        },
        {
          "internalType": "uint256",
          "name": "tierId",
          "type": "uint256"
        },
        {
          "internalType": "uint256",
          "name": "leftoverAmount",
          "type": "uint256"
        }
      ],
      "stateMutability": "nonpayable",
      "type": "function"
    },
    {
      "inputs": [
        {
          "internalType": "uint256",
          "name": "_tierId",
          "type": "uint256"
        },
        {
          "internalType": "uint256",
          "name": "_count",
          "type": "uint256"
        }
      ],
      "name": "recordMintReservesFor",
      "outputs": [
        {
          "internalType": "uint256[]",
          "name": "tokenIds",
          "type": "uint256[]"
        }
      ],
      "stateMutability": "nonpayable",
      "type": "function"
    },
    {
      "inputs": [
        {
          "internalType": "uint256[]",
          "name": "_tierIds",
          "type": "uint256[]"
        }
      ],
      "name": "recordRemoveTierIds",
      "outputs": [],
      "stateMutability": "nonpayable",
      "type": "function"
    },
    {
      "inputs": [
        {
          "internalType": "string",
          "name": "_uri",
          "type": "string"
        }
      ],
      "name": "recordSetBaseUri",
      "outputs": [],
      "stateMutability": "nonpayable",
      "type": "function"
    },
    {
      "inputs": [
        {
          "internalType": "string",
          "name": "_uri",
          "type": "string"
        }
      ],
      "name": "recordSetContractUri",
      "outputs": [],
      "stateMutability": "nonpayable",
      "type": "function"
    },
    {
      "inputs": [
        {
          "internalType": "address",
          "name": "_beneficiary",
          "type": "address"
        }
      ],
      "name": "recordSetDefaultReservedTokenBeneficiary",
      "outputs": [],
      "stateMutability": "nonpayable",
      "type": "function"
    },
    {
      "inputs": [
        {
          "internalType": "uint256",
          "name": "_tokenId",
          "type": "uint256"
        },
        {
          "internalType": "address",
          "name": "_owner",
          "type": "address"
        }
      ],
      "name": "recordSetFirstOwnerOf",
      "outputs": [],
      "stateMutability": "nonpayable",
      "type": "function"
    },
    {
      "inputs": [
        {
          "internalType": "contract IJBTokenUriResolver",
          "name": "_resolver",
          "type": "address"
        }
      ],
      "name": "recordSetTokenUriResolver",
      "outputs": [],
      "stateMutability": "nonpayable",
      "type": "function"
    },
    {
      "inputs": [
        {
          "internalType": "uint256",
          "name": "_tierId",
          "type": "uint256"
        },
        {
          "internalType": "address",
          "name": "_from",
          "type": "address"
        },
        {
          "internalType": "address",
          "name": "_to",
          "type": "address"
        }
      ],
      "name": "recordTransferForTier",
      "outputs": [],
      "stateMutability": "nonpayable",
      "type": "function"
    },
    {
      "inputs": [
        {
          "internalType": "address",
          "name": "_nft",
          "type": "address"
        },
        {
          "internalType": "uint256[]",
          "name": "_tokenIds",
          "type": "uint256[]"
        }
      ],
      "name": "redemptionWeightOf",
      "outputs": [
        {
          "internalType": "uint256",
          "name": "weight",
          "type": "uint256"
        }
      ],
      "stateMutability": "view",
      "type": "function"
    },
    {
      "inputs": [
        {
          "internalType": "address",
          "name": "_nft",
          "type": "address"
        },
        {
          "internalType": "uint256",
          "name": "_tierId",
          "type": "uint256"
        }
      ],
      "name": "reservedTokenBeneficiaryOf",
      "outputs": [
        {
          "internalType": "address",
          "name": "",
          "type": "address"
        }
      ],
      "stateMutability": "view",
      "type": "function"
    },
    {
      "inputs": [
        {
          "internalType": "address",
          "name": "_nft",
          "type": "address"
        },
        {
          "internalType": "uint256",
          "name": "_id",
          "type": "uint256"
        }
      ],
      "name": "tier",
      "outputs": [
        {
          "components": [
            {
              "internalType": "uint256",
              "name": "id",
              "type": "uint256"
            },
            {
              "internalType": "uint256",
              "name": "contributionFloor",
              "type": "uint256"
            },
            {
              "internalType": "uint256",
              "name": "lockedUntil",
              "type": "uint256"
            },
            {
              "internalType": "uint256",
              "name": "remainingQuantity",
              "type": "uint256"
            },
            {
              "internalType": "uint256",
              "name": "initialQuantity",
              "type": "uint256"
            },
            {
              "internalType": "uint256",
              "name": "votingUnits",
              "type": "uint256"
            },
            {
              "internalType": "uint256",
              "name": "reservedRate",
              "type": "uint256"
            },
            {
              "internalType": "address",
              "name": "reservedTokenBeneficiary",
              "type": "address"
            },
            {
              "internalType": "bytes32",
              "name": "encodedIPFSUri",
              "type": "bytes32"
            }
          ],
          "internalType": "struct JB721Tier",
          "name": "",
          "type": "tuple"
        }
      ],
      "stateMutability": "view",
      "type": "function"
    },
    {
      "inputs": [
        {
          "internalType": "address",
          "name": "",
          "type": "address"
        },
        {
          "internalType": "address",
          "name": "",
          "type": "address"
        },
        {
          "internalType": "uint256",
          "name": "",
          "type": "uint256"
        }
      ],
      "name": "tierBalanceOf",
      "outputs": [
        {
          "internalType": "uint256",
          "name": "",
          "type": "uint256"
        }
      ],
      "stateMutability": "view",
      "type": "function"
    },
    {
      "inputs": [
        {
          "internalType": "uint256",
          "name": "_tokenId",
          "type": "uint256"
        }
      ],
      "name": "tierIdOfToken",
      "outputs": [
        {
          "internalType": "uint256",
          "name": "",
          "type": "uint256"
        }
      ],
      "stateMutability": "pure",
      "type": "function"
    },
    {
      "inputs": [
        {
          "internalType": "address",
          "name": "_nft",
          "type": "address"
        },
        {
          "internalType": "uint256",
          "name": "_tokenId",
          "type": "uint256"
        }
      ],
      "name": "tierOfTokenId",
      "outputs": [
        {
          "components": [
            {
              "internalType": "uint256",
              "name": "id",
              "type": "uint256"
            },
            {
              "internalType": "uint256",
              "name": "contributionFloor",
              "type": "uint256"
            },
            {
              "internalType": "uint256",
              "name": "lockedUntil",
              "type": "uint256"
            },
            {
              "internalType": "uint256",
              "name": "remainingQuantity",
              "type": "uint256"
            },
            {
              "internalType": "uint256",
              "name": "initialQuantity",
              "type": "uint256"
            },
            {
              "internalType": "uint256",
              "name": "votingUnits",
              "type": "uint256"
            },
            {
              "internalType": "uint256",
              "name": "reservedRate",
              "type": "uint256"
            },
            {
              "internalType": "address",
              "name": "reservedTokenBeneficiary",
              "type": "address"
            },
            {
              "internalType": "bytes32",
              "name": "encodedIPFSUri",
              "type": "bytes32"
            }
          ],
          "internalType": "struct JB721Tier",
          "name": "",
          "type": "tuple"
        }
      ],
      "stateMutability": "view",
      "type": "function"
    },
    {
      "inputs": [
        {
          "internalType": "address",
          "name": "_nft",
          "type": "address"
        },
        {
          "internalType": "address",
          "name": "_account",
          "type": "address"
        },
        {
          "internalType": "uint256",
          "name": "_tierId",
          "type": "uint256"
        }
      ],
      "name": "tierVotingUnitsOf",
      "outputs": [
        {
          "internalType": "uint256",
          "name": "",
          "type": "uint256"
        }
      ],
      "stateMutability": "view",
      "type": "function"
    },
    {
      "inputs": [
        {
          "internalType": "address",
          "name": "_nft",
          "type": "address"
        },
        {
          "internalType": "uint256",
          "name": "_startingId",
          "type": "uint256"
        },
        {
          "internalType": "uint256",
          "name": "_size",
          "type": "uint256"
        }
      ],
      "name": "tiers",
      "outputs": [
        {
          "components": [
            {
              "internalType": "uint256",
              "name": "id",
              "type": "uint256"
            },
            {
              "internalType": "uint256",
              "name": "contributionFloor",
              "type": "uint256"
            },
            {
              "internalType": "uint256",
              "name": "lockedUntil",
              "type": "uint256"
            },
            {
              "internalType": "uint256",
              "name": "remainingQuantity",
              "type": "uint256"
            },
            {
              "internalType": "uint256",
              "name": "initialQuantity",
              "type": "uint256"
            },
            {
              "internalType": "uint256",
              "name": "votingUnits",
              "type": "uint256"
            },
            {
              "internalType": "uint256",
              "name": "reservedRate",
              "type": "uint256"
            },
            {
              "internalType": "address",
              "name": "reservedTokenBeneficiary",
              "type": "address"
            },
            {
              "internalType": "bytes32",
              "name": "encodedIPFSUri",
              "type": "bytes32"
            }
          ],
          "internalType": "struct JB721Tier[]",
          "name": "_tiers",
          "type": "tuple[]"
        }
      ],
      "stateMutability": "view",
      "type": "function"
    },
    {
      "inputs": [
        {
          "internalType": "address",
          "name": "",
          "type": "address"
        }
      ],
      "name": "tokenUriResolverOf",
      "outputs": [
        {
          "internalType": "contract IJBTokenUriResolver",
          "name": "",
          "type": "address"
        }
      ],
      "stateMutability": "view",
      "type": "function"
    },
    {
      "inputs": [
        {
          "internalType": "address",
          "name": "_nft",
          "type": "address"
        }
      ],
      "name": "totalRedemptionWeight",
      "outputs": [
        {
          "internalType": "uint256",
          "name": "weight",
          "type": "uint256"
        }
      ],
      "stateMutability": "view",
      "type": "function"
    },
    {
      "inputs": [
        {
          "internalType": "address",
          "name": "_nft",
          "type": "address"
        }
      ],
      "name": "totalSupply",
      "outputs": [
        {
          "internalType": "uint256",
          "name": "supply",
          "type": "uint256"
        }
      ],
      "stateMutability": "view",
      "type": "function"
    },
    {
      "inputs": [
        {
          "internalType": "address",
          "name": "_nft",
          "type": "address"
        },
        {
          "internalType": "address",
          "name": "_account",
          "type": "address"
        }
      ],
      "name": "votingUnitsOf",
      "outputs": [
        {
          "internalType": "uint256",
          "name": "units",
          "type": "uint256"
        }
      ],
      "stateMutability": "view",
      "type": "function"
    }
  ],
  "bytecode": {
    "object": "0x608060405234801561001057600080fd5b50612edf806100206000396000f3fe608060405234801561001057600080fd5b50600436106102535760003560e01c80636825bb8011610146578063b67cb047116100c3578063d67b78fd11610087578063d67b78fd14610736578063d84a72c014610749578063e4dc2aa414610786578063ebc1c49d14610799578063f682eeaf146107bc578063f7888aec146107cf57600080fd5b8063b67cb04714610697578063baa7e80e146106aa578063bd51923c146106bd578063c2c55f94146106e8578063c8df1710146106fb57600080fd5b80638cec7d391161010a5780638cec7d39146105be5780638ed6c01014610607578063911c80b51461063b5780639335557814610664578063aab0cd801461067757600080fd5b80636825bb80146105125780636c876fd81461053d5780637473c9a21461055d57806386bc2be31461057d578063879791f31461059057600080fd5b80632ae5e492116101d457806337f446521161019857806337f446521461046b5780633eb2556a1461049c57806342f9914b146104bc5780635f646611146104d15780636262bcb2146104ff57600080fd5b80632ae5e492146103d45780632b7e6ef0146103e75780632e4d0ea81461041257806335314b9214610425578063366cf4231461043857600080fd5b806316b047de1161021b57806316b047de1461031557806317161f7d146103365780631877d7b11461037357806320512ba1146103a157806327619754146103b457600080fd5b806307cd940614610258578063086bb19a146102885780630fab09471461029b578063136e651c146102e1578063144cc2d4146102f4575b600080fd5b610286610266366004612548565b336000908152600d60205260409020805460ff1916911515919091179055565b005b61028661029636600461257b565b6107e2565b6102c46102a936600461257b565b600b602052600090815260409020546001600160a01b031681565b6040516001600160a01b0390911681526020015b60405180910390f35b6102c46102ef366004612598565b610941565b61030761030236600461260f565b61099a565b6040519081526020016102d8565b610328610323366004612663565b610a1a565b6040516102d89291906126d0565b61028661034436600461257b565b33600090815260086020526040902080546001600160a01b0319166001600160a01b0392909216919091179055565b610286610381366004612548565b336000908152600e60205260409020805460ff1916911515919091179055565b6102866103af3660046126f2565b610ca3565b6103c76103c23660046127c5565b610d4f565b6040516102d891906128ce565b6103076103e236600461257b565b6112ef565b6103076103f5366004612598565b600660209081526000928352604080842090915290825290205481565b6103076104203660046128e1565b611421565b610307610433366004612598565b6114a6565b61045b61044636600461257b565b600e6020526000908152604090205460ff1681565b60405190151581526020016102d8565b6103076104793660046128e1565b600460209081526000938452604080852082529284528284209052825290205481565b6104af6104aa366004612922565b611541565b6040516102d891906129b6565b6103076104ca366004612a05565b61ffff1690565b61045b6104df366004612598565b600760209081526000928352604080842090915290825290205460ff1681565b61028661050d366004612a1e565b611848565b610307610520366004612598565b600560209081526000928352604080842090915290825290205481565b61030761054b36600461257b565b60036020526000908152604090205481565b61057061056b366004612598565b611867565b6040516102d89190612a8f565b61028661058b366004612a9e565b611a5d565b6105a361059e366004612a05565b611ac8565b604080519384526020840192909252908201526060016102d8565b6102866105cc366004612b23565b3360009081526009602090815260408083209483529390529190912080546001600160a01b0319166001600160a01b03909216919091179055565b6102c4610615366004612598565b60096020908152600092835260408084209091529082529020546001600160a01b031681565b6102c461064936600461257b565b6008602052600090815260409020546001600160a01b031681565b610307610672366004612b53565b611c98565b61068a61068536600461257b565b611d48565b6040516102d89190612b81565b6105706106a5366004612598565b611de2565b6103c76106b8366004612bcf565b611f1d565b6103076106cb366004612598565b600f60209081526000928352604080842090915290825290205481565b6102866106f6366004612bf1565b6120f6565b610307610709366004612598565b6001600160a01b03919091166000908152600f6020908152604080832061ffff9094168352929052205490565b610286610744366004612a1e565b612189565b61028661075736600461257b565b336000908152600b6020526040902080546001600160a01b0319166001600160a01b0392909216919091179055565b61030761079436600461257b565b6121a3565b61045b6107a736600461257b565b600d6020526000908152604090205460ff1681565b61068a6107ca36600461257b565b61222d565b6103076107dd366004612b53565b612246565b6001600160a01b03811660009081526003602052604081205490610805836122b2565b905060005b81156108fd576001600160a01b038416600090815260076020908152604080832085845290915290205460ff166108eb57610846816001612c49565b821461089e576001600160a01b0384166000908152602081815260408083208484529091529020548214610899576001600160a01b03841660009081526020818152604080832084845290915290208290555b6108e8565b6001600160a01b038416600090815260208181526040808320848452909152902054156108e8576001600160a01b0384166000908152602081815260408083208484529091528120555b50805b6108f68483856122e5565b915061080a565b6040513381526001600160a01b038516907f4a0f854ce3c180d56f3e9eb47eb064c595bf3de0ab9af45425291e5b1bb733a89060200160405180910390a250505050565b6001600160a01b0380831660009081526001602090815260408083208584529091528120549091168015610976579050610994565b50506001600160a01b03808316600090815260086020526040902054165b92915050565b600081815b81811015610a11576001600160a01b0386166000908152600260205260408120906109e38787858181106109d5576109d5612c5c565b9050602002013561ffff1690565b8152602081019190915260400160002054610a07906001600160501b031684612c49565b925060010161099f565b50509392505050565b60608382600080826001600160401b03811115610a3957610a39612733565b604051908082528060200260200182016040528015610a62578160200160208202803683370190505b50945060005b83811015610c9757878782818110610a8257610a82612c5c565b9050602002016020810190610a979190612c72565b33600090815260076020908152604080832061ffff949094168084529390915290205490925060ff1615610ade5760405163d32cb5c160e01b815260040160405180910390fd5b33600090815260026020908152604080832085845290915281208054909450600160b01b900465ffffffffffff169003610b2b57604051630de5859f60e01b815260040160405180910390fd5b82546001600160501b0316851015610b5657604051632cd294cf60e01b815260040160405180910390fd5b6040805160c08101825284546001600160501b038116825265ffffffffffff600160501b820481166020840152600160801b8204811693830193909352600160b01b8104909216606082015261ffff600160e01b830481166080830152600160f01b90920490911660a0820152610bd09033908490612338565b8354610beb9190600160801b900465ffffffffffff16612c96565b600003610c0b5760405163985a45d960e01b815260040160405180910390fd5b825460001965ffffffffffff600160801b808404821692830182160265ffffffffffff60801b1990931692909217808655610c5b928592600160b01b9092048116919091036001011660101b1790565b868281518110610c6d57610c6d612c5c565b60209081029190910101528254610c8d906001600160501b031686612c96565b9450600101610a68565b50505050935093915050565b806000805b82811015610d4857848482818110610cc257610cc2612c5c565b336000908152600260209081526040808320938202959095013580835292905292909220549193505042600160501b90910465ffffffffffff1610610d1a57604051636b73d51160e11b815260040160405180910390fd5b3360009081526007602090815260408083208584529091529020805460ff1916600190811790915501610ca8565b5050505050565b80513360009081526003602052604090205460609190816001600160401b03811115610d7d57610d7d612733565b604051908082528060200260200182016040528015610da6578160200160208202803683370190505b50925060008115610dbf57610dba336122b2565b610dc2565b60005b90506000610e1c604051806101000160405280600081526020016000815260200160008152602001600081526020016000815260200160006001600160a01b03168152602001600080191681526020016000151581525090565b60005b858110156112c957878181518110610e3957610e39612c5c565b6020026020010151915080600014158015610e7e575087610e5b600183612c96565b81518110610e6b57610e6b612c5c565b6020026020010151600001518260000151105b15610e9c576040516325ec4a9160e21b815260040160405180910390fd5b336000908152600e602052604090205460ff168015610ebe5750606082015115155b15610edc57604051630189200360e11b815260040160405180910390fd5b336000908152600d602052604090205460ff168015610efe5750608082015115155b15610f1c5760405163a75b1cd560e01b815260040160405180910390fd5b8160400151600003610f4157604051631e0a863160e31b815260040160405180910390fd5b6000610f4d8287612c49565b610f58906001612c49565b6040805160c08101825285516001600160501b03908116825260208088015165ffffffffffff908116828501908152898601805183168688019081529051831660608088019182528c015161ffff9081166080808a019182528e0151821660a0808b0191825233600090815260028a528c81208e82529099529a909720985189549551945193519151975198166fffffffffffffffffffffffffffffffff1990951694909417600160501b93861693909302929092176bffffffffffffffffffffffff60801b1916600160801b9185169190910265ffffffffffff60b01b191617600160b01b9290931691909102919091176001600160e01b0316600160e01b928216929092026001600160f01b031691909117600160f01b92909116919091021790558401519091506001600160a01b0316158015906110b957503360009081526008602052604090205460a08401516001600160a01b03908116911614155b1561113b578260e00151156110fe5760a083015133600090815260086020526040902080546001600160a01b0319166001600160a01b0390921691909117905561113b565b60a0830151336000908152600160209081526040808320858452909152902080546001600160a01b0319166001600160a01b039092169190911790555b60c0830151156111665760c0830151336000908152600f602090815260408083208584529091529020555b84156112a2578460005b811561129f5761118133838a6122e5565b33600090815260026020908152604080832086845290915290205486519192506001600160501b03161115611255576111bb836001612c49565b82146111dd573360009081526020818152604080832086845290915290208290555b6111e8600184612c96565b8614158061120d57503360009081526020818152604080832089845290915290205415155b156112465761121d600184612c96565b8614611229578261122c565b60005b336000908152602081815260408083208a84529091529020555b81965082955060009150611170565b8060000361129657611268826001612c49565b831461128a573360009081526020818152604080832085845290915290208390555b82965060009150611170565b90945080611170565b50505b808883815181106112b5576112b5612c5c565b602090810291909101015250600101610e1f565b506112d48585612c49565b33600090815260036020526040902055509395945050505050565b6001600160a01b0381166000908152600360205260408120546113106124ab565b60005b82811015611419576001600160a01b03851660009081526002602052604081209061133f836001612c49565b81526020808201929092526040908101600020815160c08101835290546001600160501b038116825265ffffffffffff600160501b8204811694830194909452600160801b8104841692820192909252600160b01b8204909216606083015261ffff600160e01b820481166080840152600160f01b9091041660a082015291506113ca858284612338565b826040015183606001516113de9190612ca9565b83516113fb9165ffffffffffff16906001600160501b0316612ccf565b6114059190612c49565b61140f9085612c49565b9350600101611313565b505050919050565b6001600160a01b038084166000908152600460209081526040808320938616835292815282822084835290529081205480820361146257600091505061149f565b6001600160a01b038516600090815260026020908152604080832086845290915290205461149b90600160e01b900461ffff1682612ccf565b9150505b9392505050565b6001600160a01b03821660009081526002602090815260408083208484528252808320815160c08101835290546001600160501b038116825265ffffffffffff600160501b8204811694830194909452600160801b8104841692820192909252600160b01b8204909216606083015261ffff600160e01b820481166080840152600160f01b9091041660a082015261149f9084908490612338565b6001600160a01b038316600090815260036020526040902054606090826001600160401b0381111561157557611575612733565b6040519080825280602002602001820160405280156115ae57816020015b61159b6124e0565b8152602001906001900390816115935790505b509150600080856000036115ca576115c5876122b2565b6115cc565b855b90506115d66124ab565b81158015906115e457508583105b15611832576001600160a01b038816600090815260076020908152604080832085845290915290205460ff166118205760026000896001600160a01b03166001600160a01b0316815260200190815260200160002060008381526020019081526020016000206040518060c00160405290816000820160009054906101000a90046001600160501b03166001600160501b03166001600160501b0316815260200160008201600a9054906101000a900465ffffffffffff1665ffffffffffff1665ffffffffffff1681526020016000820160109054906101000a900465ffffffffffff1665ffffffffffff1665ffffffffffff1681526020016000820160169054906101000a900465ffffffffffff1665ffffffffffff1665ffffffffffff16815260200160008201601c9054906101000a900461ffff1661ffff1661ffff16815260200160008201601e9054906101000a900461ffff1661ffff1661ffff1681525050905060405180610120016040528083815260200182600001516001600160501b03168152602001826020015165ffffffffffff168152602001826040015165ffffffffffff168152602001826060015165ffffffffffff168152602001826080015161ffff1681526020018260a0015161ffff1681526020016117cb8a85610941565b6001600160a01b0390811682528a166000908152600f60209081526040808320878452825290912054910152858461180281612cee565b95508151811061181457611814612c5c565b60200260200101819052505b61182b8883866122e5565b91506115d6565b85831461183d578285525b505050509392505050565b336000908152600a60205260409020611862828483612d8f565b505050565b61186f6124e0565b600060026000856001600160a01b03166001600160a01b0316815260200190815260200160002060008481526020019081526020016000206040518060c00160405290816000820160009054906101000a90046001600160501b03166001600160501b03166001600160501b0316815260200160008201600a9054906101000a900465ffffffffffff1665ffffffffffff1665ffffffffffff1681526020016000820160109054906101000a900465ffffffffffff1665ffffffffffff1665ffffffffffff1681526020016000820160169054906101000a900465ffffffffffff1665ffffffffffff1665ffffffffffff16815260200160008201601c9054906101000a900461ffff1661ffff1661ffff16815260200160008201601e9054906101000a900461ffff1661ffff1661ffff1681525050905060405180610120016040528084815260200182600001516001600160501b03168152602001826020015165ffffffffffff168152602001826040015165ffffffffffff168152602001826060015165ffffffffffff168152602001826080015161ffff1681526020018260a0015161ffff168152602001611a288686610941565b6001600160a01b03908116825286166000908152600f6020908152604080832088845282529091205491015291505092915050565b80516000805b82811015611ac257838181518110611a7d57611a7d612c5c565b60209081029190910181015133600090815260068352604080822061ffff8416835290935291822080549194509091611ab583612cee565b9091555050600101611a63565b50505050565b3360009081526003602052604081205481908190611ae46124ab565b6000611aef336122b2565b90505b8015611bf857336000908152600260209081526040808320848452825291829020825160c08101845290546001600160501b03811680835265ffffffffffff600160501b8304811694840194909452600160801b8204841694830194909452600160b01b8104909216606082015261ffff600160e01b830481166080830152600160f01b90920490911660a08201529250871015611b9257506000611af2565b33600090815260076020908152604080832084845290915290205460ff16158015611bdd5750611bc3338284612338565b826040015165ffffffffffff16611bda9190612c96565b15155b15611be6578094505b611bf13382856122e5565b9050611af2565b84600003611c0857869350611c8e565b3360009081526002602090815260408083208884529091529020805460001965ffffffffffff600160801b808404821692830182160265ffffffffffff60801b1990931692909217808455611c72928992600160b01b9092048116919091036001011660101b1790565b8154909750611c8a906001600160501b031689612c96565b9450505b5050509193909250565b6001600160a01b03821660009081526003602052604081205481815b8015611d3f576001600160a01b03808716600090815260046020908152604080832093891683529281528282208483529052205491508115611d36576001600160a01b0386166000908152600260209081526040808320848452909152902054611d2990600160e01b900461ffff1683612ccf565b611d339085612c49565b93505b60001901611cb4565b50505092915050565b600c6020526000908152604090208054611d6190612d07565b80601f0160208091040260200160405190810160405280929190818152602001828054611d8d90612d07565b8015611dda5780601f10611daf57610100808354040283529160200191611dda565b820191906000526020600020905b815481529060010190602001808311611dbd57829003601f168201915b505050505081565b611dea6124e0565b6001600160a01b038316600090815260026020908152604080832061ffff86811680865291845293829020825160c0808201855291546001600160501b03808216835265ffffffffffff600160501b83048116848901908152600160801b84048216858901908152600160b01b850483166060808801918252600160e01b87048d166080808a01918252600160f01b9098048e1660a0808b019182528d5161012081018f528d81528b519099169e89019e909e52945186169b87019b909b5291518416918501919091525190911692820192909252945187169585019590955293519094169382019390935260e08101611ee48785610941565b6001600160a01b03908116825287166000908152600f602090815260408083209683529581529490205493019290925250905092915050565b3360008181526002602090815260408083208684528252808320815160c08101835281546001600160501b038116825265ffffffffffff600160501b8204811695830195909552600160801b8104851693820193909352600160b01b830490931660608481019190915261ffff600160e01b840481166080860152600160f01b90930490921660a08401529093909291611fb991908790612338565b905080841115611fdc5760405163226f999960e11b815260040160405180910390fd5b33600090815260056020908152604080832088845290915281208054869290612006908490612c49565b909155508490506001600160401b0381111561202457612024612733565b60405190808252806020026020018201604052801561204d578160200160208202803683370190505b50925060005b84811015611d3f5782546120d1908790859060109061208090600160801b900465ffffffffffff16612e4e565b91906101000a81548165ffffffffffff021916908365ffffffffffff16021790558560000160169054906101000a900465ffffffffffff166120c29190612ca9565b65ffffffffffff1660101b1790565b8482815181106120e3576120e3612c5c565b6020908102919091010152600101612053565b6001600160a01b03821615612143573360009081526004602090815260408083206001600160a01b038616845282528083208684529091528120805490919061213e90612e70565b909155505b6001600160a01b03811615611862573360009081526004602090815260408083206001600160a01b03851684528252808320868452909152902080546001019055505050565b336000908152600c60205260409020611862828483612d8f565b6001600160a01b0381166000908152600360205260408120548190805b8015611419576001600160a01b0385166000908152600260209081526040808320848452909152902080549093506122109065ffffffffffff600160801b8204811691600160b01b900416612ca9565b6122229065ffffffffffff1685612c49565b9350600019016121c0565b600a6020526000908152604090208054611d6190612d07565b6001600160a01b038216600090815260036020526040812054805b80156122aa576001600160a01b03808616600090815260046020908152604080832093881683529281528282208483529052205461229f9084612c49565b925060001901612261565b505092915050565b6001600160a01b038116600090815260208181526040808320838052909152812054908190036122e0575060015b919050565b6001600160a01b038316600090815260208181526040808320858452909152812054801561231457905061149f565b82841061232557600091505061149f565b612330846001612c49565b91505061149f565b6000816060015165ffffffffffff166000148061235b575060a082015161ffff16155b156123685750600061149f565b816040015165ffffffffffff16826060015165ffffffffffff160361238f5750600161149f565b6001600160a01b0384166000908152600560209081526040808320868452909152908190205490830151606084015165ffffffffffff918216916123d591849116612c96565b036123e457600091505061149f565b6001600160a01b0385166000908152600660209081526040808320878452909152808220549085015183916124209165ffffffffffff16612c49565b856060015165ffffffffffff166124379190612c96565b6124419190612c96565b905060008460a0015161ffff16826124599190612ccf565b9050600061246961271083612e87565b9050600061247982612710612ccf565b6124839084612c96565b11156124955761249281612cee565b90505b61249f8482612c96565b98975050505050505050565b6040805160c081018252600080825260208201819052918101829052606081018290526080810182905260a081019190915290565b6040518061012001604052806000815260200160008152602001600081526020016000815260200160008152602001600081526020016000815260200160006001600160a01b03168152602001600080191681525090565b803580151581146122e057600080fd5b60006020828403121561255a57600080fd5b61149f82612538565b6001600160a01b038116811461257857600080fd5b50565b60006020828403121561258d57600080fd5b813561149f81612563565b600080604083850312156125ab57600080fd5b82356125b681612563565b946020939093013593505050565b60008083601f8401126125d657600080fd5b5081356001600160401b038111156125ed57600080fd5b6020830191508360208260051b850101111561260857600080fd5b9250929050565b60008060006040848603121561262457600080fd5b833561262f81612563565b925060208401356001600160401b0381111561264a57600080fd5b612656868287016125c4565b9497909650939450505050565b60008060006040848603121561267857600080fd5b8335925060208401356001600160401b0381111561264a57600080fd5b600081518084526020808501945080840160005b838110156126c5578151875295820195908201906001016126a9565b509495945050505050565b6040815260006126e36040830185612695565b90508260208301529392505050565b6000806020838503121561270557600080fd5b82356001600160401b0381111561271b57600080fd5b612727858286016125c4565b90969095509350505050565b634e487b7160e01b600052604160045260246000fd5b60405161010081016001600160401b038111828210171561276c5761276c612733565b60405290565b604051601f8201601f191681016001600160401b038111828210171561279a5761279a612733565b604052919050565b60006001600160401b038211156127bb576127bb612733565b5060051b60200190565b600060208083850312156127d857600080fd5b82356001600160401b038111156127ee57600080fd5b8301601f810185136127ff57600080fd5b803561281261280d826127a2565b612772565b81815260089190911b8201830190838101908783111561283157600080fd5b928401925b828410156128c35761010084890312156128505760008081fd5b612858612749565b84358152858501358682015260408086013590820152606080860135908201526080808601359082015260a08086013561289181612563565b9082015260c0858101359082015260e06128ac818701612538565b908201528252610100939093019290840190612836565b979650505050505050565b60208152600061149f6020830184612695565b6000806000606084860312156128f657600080fd5b833561290181612563565b9250602084013561291181612563565b929592945050506040919091013590565b60008060006060848603121561293757600080fd5b833561294281612563565b95602085013595506040909401359392505050565b805182526020808201519083015260408082015190830152606080820151908301526080808201519083015260a0808201519083015260c0808201519083015260e0808201516001600160a01b03169083015261010090810151910152565b6020808252825182820181905260009190848201906040850190845b818110156129f9576129e5838551612957565b9284019261012092909201916001016129d2565b50909695505050505050565b600060208284031215612a1757600080fd5b5035919050565b60008060208385031215612a3157600080fd5b82356001600160401b0380821115612a4857600080fd5b818501915085601f830112612a5c57600080fd5b813581811115612a6b57600080fd5b866020828501011115612a7d57600080fd5b60209290920196919550909350505050565b61012081016109948284612957565b60006020808385031215612ab157600080fd5b82356001600160401b03811115612ac757600080fd5b8301601f81018513612ad857600080fd5b8035612ae661280d826127a2565b81815260059190911b82018301908381019087831115612b0557600080fd5b928401925b828410156128c357833582529284019290840190612b0a565b60008060408385031215612b3657600080fd5b823591506020830135612b4881612563565b809150509250929050565b60008060408385031215612b6657600080fd5b8235612b7181612563565b91506020830135612b4881612563565b600060208083528351808285015260005b81811015612bae57858101830151858201604001528201612b92565b506000604082860101526040601f19601f8301168501019250505092915050565b60008060408385031215612be257600080fd5b50508035926020909101359150565b600080600060608486031215612c0657600080fd5b833592506020840135612c1881612563565b91506040840135612c2881612563565b809150509250925092565b634e487b7160e01b600052601160045260246000fd5b8082018082111561099457610994612c33565b634e487b7160e01b600052603260045260246000fd5b600060208284031215612c8457600080fd5b813561ffff8116811461149f57600080fd5b8181038181111561099457610994612c33565b65ffffffffffff828116828216039080821115612cc857612cc8612c33565b5092915050565b6000816000190483118215151615612ce957612ce9612c33565b500290565b600060018201612d0057612d00612c33565b5060010190565b600181811c90821680612d1b57607f821691505b602082108103612d3b57634e487b7160e01b600052602260045260246000fd5b50919050565b601f82111561186257600081815260208120601f850160051c81016020861015612d685750805b601f850160051c820191505b81811015612d8757828155600101612d74565b505050505050565b6001600160401b03831115612da657612da6612733565b612dba83612db48354612d07565b83612d41565b6000601f841160018114612dee5760008515612dd65750838201355b600019600387901b1c1916600186901b178355610d48565b600083815260209020601f19861690835b82811015612e1f5786850135825560209485019460019092019101612dff565b5086821015612e3c5760001960f88860031b161c19848701351681555b505060018560011b0183555050505050565b600065ffffffffffff821680612e6657612e66612c33565b6000190192915050565b600081612e7f57612e7f612c33565b506000190190565b600082612ea457634e487b7160e01b600052601260045260246000fd5b50049056fea26469706673582212208a856c7665a00f4d33e3e180229bf3966e9776b831c557e1eb817b04a90df55f64736f6c63430008100033",
    "linkReferences": {}
  },
  "methodIdentifiers": {
    "balanceOf(address,address)": "f7888aec",
    "baseUriOf(address)": "f682eeaf",
    "cleanTiers(address)": "086bb19a",
    "contractUriOf(address)": "aab0cd80",
    "defaultReservedTokenBeneficiaryOf(address)": "911c80b5",
    "encodedIPFSUriOf(address,uint256)": "bd51923c",
    "encodedTierIPFSUriOf(address,uint256)": "c8df1710",
    "firstOwnerOf(address,uint256)": "8ed6c010",
    "isTierRemoved(address,uint256)": "5f646611",
    "lockReservedTokenChangesFor(address)": "ebc1c49d",
    "lockVotingUnitChangesFor(address)": "366cf423",
    "maxTierId(address)": "6c876fd8",
    "numberOfBurnedFor(address,uint256)": "2b7e6ef0",
    "numberOfReservedTokensOutstandingFor(address,uint256)": "35314b92",
    "numberOfReservesMintedFor(address,uint256)": "6825bb80",
    "recordAddTiers((uint256,uint256,uint256,uint256,uint256,address,bytes32,bool)[])": "27619754",
    "recordBurn(uint256[])": "86bc2be3",
    "recordLockReservedTokenChanges(bool)": "07cd9406",
    "recordLockVotingUnitChanges(bool)": "1877d7b1",
    "recordMint(uint256,uint16[])": "16b047de",
    "recordMintBestAvailableTier(uint256)": "879791f3",
    "recordMintReservesFor(uint256,uint256)": "baa7e80e",
    "recordRemoveTierIds(uint256[])": "20512ba1",
    "recordSetBaseUri(string)": "6262bcb2",
    "recordSetContractUri(string)": "d67b78fd",
    "recordSetDefaultReservedTokenBeneficiary(address)": "17161f7d",
    "recordSetFirstOwnerOf(uint256,address)": "8cec7d39",
    "recordSetTokenUriResolver(address)": "d84a72c0",
    "recordTransferForTier(uint256,address,address)": "c2c55f94",
    "redemptionWeightOf(address,uint256[])": "144cc2d4",
    "reservedTokenBeneficiaryOf(address,uint256)": "136e651c",
    "tier(address,uint256)": "7473c9a2",
    "tierBalanceOf(address,address,uint256)": "37f44652",
    "tierIdOfToken(uint256)": "42f9914b",
    "tierOfTokenId(address,uint256)": "b67cb047",
    "tierVotingUnitsOf(address,address,uint256)": "2e4d0ea8",
    "tiers(address,uint256,uint256)": "3eb2556a",
    "tokenUriResolverOf(address)": "0fab0947",
    "totalRedemptionWeight(address)": "2ae5e492",
    "totalSupply(address)": "e4dc2aa4",
    "votingUnitsOf(address,address)": "93355578"
  },
  "id": 3
}