{
  "abi": [
    {
      "inputs": [],
      "name": "CANT_MINT_MANUALLY",
      "type": "error"
    },
    {
      "inputs": [],
      "name": "INSUFFICIENT_AMOUNT",
      "type": "error"
    },
    {
      "inputs": [],
      "name": "INSUFFICIENT_RESERVES",
      "type": "error"
    },
    {
      "inputs": [],
      "name": "INVALID_PRICE_SORT_ORDER",
      "type": "error"
    },
    {
      "inputs": [],
      "name": "INVALID_TIER",
      "type": "error"
    },
    {
      "inputs": [],
      "name": "MANUAL_MINTING_NOT_ALLOWED",
      "type": "error"
    },
    {
      "inputs": [],
      "name": "NO_QUANTITY",
      "type": "error"
    },
    {
      "inputs": [],
      "name": "OUT",
      "type": "error"
    },
    {
      "inputs": [],
      "name": "PRICING_RESOLVER_CHANGES_LOCKED",
      "type": "error"
    },
    {
      "inputs": [],
      "name": "RESERVED_RATE_NOT_ALLOWED",
      "type": "error"
    },
    {
      "inputs": [],
      "name": "TIER_LOCKED",
      "type": "error"
    },
    {
      "inputs": [],
      "name": "TIER_REMOVED",
      "type": "error"
    },
    {
      "inputs": [],
      "name": "VOTING_UNITS_NOT_ALLOWED",
      "type": "error"
    },
    {
      "anonymous": false,
      "inputs": [
        {
          "indexed": true,
          "internalType": "address",
          "name": "nft",
          "type": "address"
        },
        {
          "indexed": false,
          "internalType": "address",
          "name": "caller",
          "type": "address"
        }
      ],
      "name": "CleanTiers",
      "type": "event"
    },
    {
      "inputs": [
        {
          "internalType": "address",
          "name": "_nft",
          "type": "address"
        },
        {
          "internalType": "address",
          "name": "_owner",
          "type": "address"
        }
      ],
      "name": "balanceOf",
      "outputs": [
        {
          "internalType": "uint256",
          "name": "balance",
          "type": "uint256"
        }
      ],
      "stateMutability": "view",
      "type": "function"
    },
    {
      "inputs": [
        {
          "internalType": "address",
          "name": "",
          "type": "address"
        }
      ],
      "name": "baseUriOf",
      "outputs": [
        {
          "internalType": "string",
          "name": "",
          "type": "string"
        }
      ],
      "stateMutability": "view",
      "type": "function"
    },
    {
      "inputs": [
        {
          "internalType": "address",
          "name": "_nft",
          "type": "address"
        }
      ],
      "name": "cleanTiers",
      "outputs": [],
      "stateMutability": "nonpayable",
      "type": "function"
    },
    {
      "inputs": [
        {
          "internalType": "address",
          "name": "",
          "type": "address"
        }
      ],
      "name": "contractUriOf",
      "outputs": [
        {
          "internalType": "string",
          "name": "",
          "type": "string"
        }
      ],
      "stateMutability": "view",
      "type": "function"
    },
    {
      "inputs": [
        {
          "internalType": "address",
          "name": "",
          "type": "address"
        }
      ],
      "name": "defaultReservedTokenBeneficiaryOf",
      "outputs": [
        {
          "internalType": "address",
          "name": "",
          "type": "address"
        }
      ],
      "stateMutability": "view",
      "type": "function"
    },
    {
      "inputs": [
        {
          "internalType": "address",
          "name": "",
          "type": "address"
        },
        {
          "internalType": "uint256",
          "name": "",
          "type": "uint256"
        }
      ],
      "name": "encodedIPFSUriOf",
      "outputs": [
        {
          "internalType": "bytes32",
          "name": "",
          "type": "bytes32"
        }
      ],
      "stateMutability": "view",
      "type": "function"
    },
    {
      "inputs": [
        {
          "internalType": "address",
          "name": "_nft",
          "type": "address"
        },
        {
          "internalType": "uint256",
          "name": "_tokenId",
          "type": "uint256"
        }
      ],
      "name": "encodedTierIPFSUriOf",
      "outputs": [
        {
          "internalType": "bytes32",
          "name": "",
          "type": "bytes32"
        }
      ],
      "stateMutability": "view",
      "type": "function"
    },
    {
      "inputs": [
        {
          "internalType": "address",
          "name": "",
          "type": "address"
        },
        {
          "internalType": "uint256",
          "name": "",
          "type": "uint256"
        }
      ],
      "name": "firstOwnerOf",
      "outputs": [
        {
          "internalType": "address",
          "name": "",
          "type": "address"
        }
      ],
      "stateMutability": "view",
      "type": "function"
    },
    {
      "inputs": [
        {
          "internalType": "address",
          "name": "_nft",
          "type": "address"
        }
      ],
      "name": "flagsOf",
      "outputs": [
        {
          "components": [
            {
              "internalType": "bool",
              "name": "lockReservedTokenChanges",
              "type": "bool"
            },
            {
              "internalType": "bool",
              "name": "lockVotingUnitChanges",
              "type": "bool"
            },
            {
              "internalType": "bool",
              "name": "lockManualMintingChanges",
              "type": "bool"
            },
            {
              "internalType": "bool",
              "name": "pausable",
              "type": "bool"
            }
          ],
          "internalType": "struct JBTiered721Flags",
          "name": "",
          "type": "tuple"
        }
      ],
      "stateMutability": "view",
      "type": "function"
    },
    {
      "inputs": [
        {
          "internalType": "address",
          "name": "_nft",
          "type": "address"
        },
        {
          "internalType": "uint256",
          "name": "_tierId",
          "type": "uint256"
        }
      ],
      "name": "isTierRemoved",
      "outputs": [
        {
          "internalType": "bool",
          "name": "",
          "type": "bool"
        }
      ],
      "stateMutability": "view",
      "type": "function"
    },
    {
      "inputs": [
        {
          "internalType": "address",
          "name": "",
          "type": "address"
        }
      ],
      "name": "maxTierIdOf",
      "outputs": [
        {
          "internalType": "uint256",
          "name": "",
          "type": "uint256"
        }
      ],
      "stateMutability": "view",
      "type": "function"
    },
    {
      "inputs": [
        {
          "internalType": "address",
          "name": "",
          "type": "address"
        },
        {
          "internalType": "uint256",
          "name": "",
          "type": "uint256"
        }
      ],
      "name": "numberOfBurnedFor",
      "outputs": [
        {
          "internalType": "uint256",
          "name": "",
          "type": "uint256"
        }
      ],
      "stateMutability": "view",
      "type": "function"
    },
    {
      "inputs": [
        {
          "internalType": "address",
          "name": "_nft",
          "type": "address"
        },
        {
          "internalType": "uint256",
          "name": "_tierId",
          "type": "uint256"
        }
      ],
      "name": "numberOfReservedTokensOutstandingFor",
      "outputs": [
        {
          "internalType": "uint256",
          "name": "",
          "type": "uint256"
        }
      ],
      "stateMutability": "view",
      "type": "function"
    },
    {
      "inputs": [
        {
          "internalType": "address",
          "name": "",
          "type": "address"
        },
        {
          "internalType": "uint256",
          "name": "",
          "type": "uint256"
        }
      ],
      "name": "numberOfReservesMintedFor",
      "outputs": [
        {
          "internalType": "uint256",
          "name": "",
          "type": "uint256"
        }
      ],
      "stateMutability": "view",
      "type": "function"
    },
    {
      "inputs": [
        {
          "components": [
            {
              "internalType": "uint256",
              "name": "contributionFloor",
              "type": "uint256"
            },
            {
              "internalType": "uint256",
              "name": "lockedUntil",
              "type": "uint256"
            },
            {
              "internalType": "uint256",
              "name": "initialQuantity",
              "type": "uint256"
            },
            {
              "internalType": "uint256",
              "name": "votingUnits",
              "type": "uint256"
            },
            {
              "internalType": "uint256",
              "name": "reservedRate",
              "type": "uint256"
            },
            {
              "internalType": "address",
              "name": "reservedTokenBeneficiary",
              "type": "address"
            },
            {
              "internalType": "bytes32",
              "name": "encodedIPFSUri",
              "type": "bytes32"
            },
            {
              "internalType": "bool",
              "name": "allowManualMint",
              "type": "bool"
            },
            {
              "internalType": "bool",
              "name": "shouldUseBeneficiaryAsDefault",
              "type": "bool"
            }
          ],
          "internalType": "struct JB721TierParams[]",
          "name": "_tiersToAdd",
          "type": "tuple[]"
        }
      ],
      "name": "recordAddTiers",
      "outputs": [
        {
          "internalType": "uint256[]",
          "name": "tierIds",
          "type": "uint256[]"
        }
      ],
      "stateMutability": "nonpayable",
      "type": "function"
    },
    {
      "inputs": [
        {
          "internalType": "uint256[]",
          "name": "_tokenIds",
          "type": "uint256[]"
        }
      ],
      "name": "recordBurn",
      "outputs": [],
      "stateMutability": "nonpayable",
      "type": "function"
    },
    {
      "inputs": [
        {
          "components": [
            {
              "internalType": "bool",
              "name": "lockReservedTokenChanges",
              "type": "bool"
            },
            {
              "internalType": "bool",
              "name": "lockVotingUnitChanges",
              "type": "bool"
            },
            {
              "internalType": "bool",
              "name": "lockManualMintingChanges",
              "type": "bool"
            },
            {
              "internalType": "bool",
              "name": "pausable",
              "type": "bool"
            }
          ],
          "internalType": "struct JBTiered721Flags",
          "name": "_flags",
          "type": "tuple"
        }
      ],
      "name": "recordFlags",
      "outputs": [],
      "stateMutability": "nonpayable",
      "type": "function"
    },
    {
      "inputs": [
        {
          "internalType": "uint256",
          "name": "_amount",
          "type": "uint256"
        },
        {
          "internalType": "uint16[]",
          "name": "_tierIds",
          "type": "uint16[]"
        },
        {
          "internalType": "bool",
          "name": "_isManualMint",
          "type": "bool"
        }
      ],
      "name": "recordMint",
      "outputs": [
        {
          "internalType": "uint256[]",
          "name": "tokenIds",
          "type": "uint256[]"
        },
        {
          "internalType": "uint256",
          "name": "leftoverAmount",
          "type": "uint256"
        }
      ],
      "stateMutability": "nonpayable",
      "type": "function"
    },
    {
      "inputs": [
        {
          "internalType": "uint256",
          "name": "_amount",
          "type": "uint256"
        }
      ],
      "name": "recordMintBestAvailableTier",
      "outputs": [
        {
          "internalType": "uint256",
          "name": "tokenId",
          "type": "uint256"
        },
        {
          "internalType": "uint256",
          "name": "tierId",
          "type": "uint256"
        },
        {
          "internalType": "uint256",
          "name": "leftoverAmount",
          "type": "uint256"
        }
      ],
      "stateMutability": "nonpayable",
      "type": "function"
    },
    {
      "inputs": [
        {
          "internalType": "uint256",
          "name": "_tierId",
          "type": "uint256"
        },
        {
          "internalType": "uint256",
          "name": "_count",
          "type": "uint256"
        }
      ],
      "name": "recordMintReservesFor",
      "outputs": [
        {
          "internalType": "uint256[]",
          "name": "tokenIds",
          "type": "uint256[]"
        }
      ],
      "stateMutability": "nonpayable",
      "type": "function"
    },
    {
      "inputs": [
        {
          "internalType": "uint256[]",
          "name": "_tierIds",
          "type": "uint256[]"
        }
      ],
      "name": "recordRemoveTierIds",
      "outputs": [],
      "stateMutability": "nonpayable",
      "type": "function"
    },
    {
      "inputs": [
        {
          "internalType": "string",
          "name": "_uri",
          "type": "string"
        }
      ],
      "name": "recordSetBaseUri",
      "outputs": [],
      "stateMutability": "nonpayable",
      "type": "function"
    },
    {
      "inputs": [
        {
          "internalType": "string",
          "name": "_uri",
          "type": "string"
        }
      ],
      "name": "recordSetContractUri",
      "outputs": [],
      "stateMutability": "nonpayable",
      "type": "function"
    },
    {
      "inputs": [
        {
          "internalType": "address",
          "name": "_beneficiary",
          "type": "address"
        }
      ],
      "name": "recordSetDefaultReservedTokenBeneficiary",
      "outputs": [],
      "stateMutability": "nonpayable",
      "type": "function"
    },
    {
      "inputs": [
        {
          "internalType": "uint256",
          "name": "_tokenId",
          "type": "uint256"
        },
        {
          "internalType": "address",
          "name": "_owner",
          "type": "address"
        }
      ],
      "name": "recordSetFirstOwnerOf",
      "outputs": [],
      "stateMutability": "nonpayable",
      "type": "function"
    },
    {
      "inputs": [
        {
          "internalType": "contract IJBTokenUriResolver",
          "name": "_resolver",
          "type": "address"
        }
      ],
      "name": "recordSetTokenUriResolver",
      "outputs": [],
      "stateMutability": "nonpayable",
      "type": "function"
    },
    {
      "inputs": [
        {
          "internalType": "uint256",
          "name": "_tierId",
          "type": "uint256"
        },
        {
          "internalType": "address",
          "name": "_from",
          "type": "address"
        },
        {
          "internalType": "address",
          "name": "_to",
          "type": "address"
        }
      ],
      "name": "recordTransferForTier",
      "outputs": [],
      "stateMutability": "nonpayable",
      "type": "function"
    },
    {
      "inputs": [
        {
          "internalType": "address",
          "name": "_nft",
          "type": "address"
        },
        {
          "internalType": "uint256[]",
          "name": "_tokenIds",
          "type": "uint256[]"
        }
      ],
      "name": "redemptionWeightOf",
      "outputs": [
        {
          "internalType": "uint256",
          "name": "weight",
          "type": "uint256"
        }
      ],
      "stateMutability": "view",
      "type": "function"
    },
    {
      "inputs": [
        {
          "internalType": "address",
          "name": "_nft",
          "type": "address"
        },
        {
          "internalType": "uint256",
          "name": "_tierId",
          "type": "uint256"
        }
      ],
      "name": "reservedTokenBeneficiaryOf",
      "outputs": [
        {
          "internalType": "address",
          "name": "",
          "type": "address"
        }
      ],
      "stateMutability": "view",
      "type": "function"
    },
    {
      "inputs": [
        {
          "internalType": "address",
          "name": "_nft",
          "type": "address"
        },
        {
          "internalType": "uint256",
          "name": "_id",
          "type": "uint256"
        }
      ],
      "name": "tier",
      "outputs": [
        {
          "components": [
            {
              "internalType": "uint256",
              "name": "id",
              "type": "uint256"
            },
            {
              "internalType": "uint256",
              "name": "contributionFloor",
              "type": "uint256"
            },
            {
              "internalType": "uint256",
              "name": "lockedUntil",
              "type": "uint256"
            },
            {
              "internalType": "uint256",
              "name": "remainingQuantity",
              "type": "uint256"
            },
            {
              "internalType": "uint256",
              "name": "initialQuantity",
              "type": "uint256"
            },
            {
              "internalType": "uint256",
              "name": "votingUnits",
              "type": "uint256"
            },
            {
              "internalType": "uint256",
              "name": "reservedRate",
              "type": "uint256"
            },
            {
              "internalType": "address",
              "name": "reservedTokenBeneficiary",
              "type": "address"
            },
            {
              "internalType": "bytes32",
              "name": "encodedIPFSUri",
              "type": "bytes32"
            },
            {
              "internalType": "bool",
              "name": "allowManualMint",
              "type": "bool"
            }
          ],
          "internalType": "struct JB721Tier",
          "name": "",
          "type": "tuple"
        }
      ],
      "stateMutability": "view",
      "type": "function"
    },
    {
      "inputs": [
        {
          "internalType": "address",
          "name": "",
          "type": "address"
        },
        {
          "internalType": "address",
          "name": "",
          "type": "address"
        },
        {
          "internalType": "uint256",
          "name": "",
          "type": "uint256"
        }
      ],
      "name": "tierBalanceOf",
      "outputs": [
        {
          "internalType": "uint256",
          "name": "",
          "type": "uint256"
        }
      ],
      "stateMutability": "view",
      "type": "function"
    },
    {
      "inputs": [
        {
          "internalType": "uint256",
          "name": "_tokenId",
          "type": "uint256"
        }
      ],
      "name": "tierIdOfToken",
      "outputs": [
        {
          "internalType": "uint256",
          "name": "",
          "type": "uint256"
        }
      ],
      "stateMutability": "pure",
      "type": "function"
    },
    {
      "inputs": [
        {
          "internalType": "address",
          "name": "_nft",
          "type": "address"
        },
        {
          "internalType": "uint256",
          "name": "_tokenId",
          "type": "uint256"
        }
      ],
      "name": "tierOfTokenId",
      "outputs": [
        {
          "components": [
            {
              "internalType": "uint256",
              "name": "id",
              "type": "uint256"
            },
            {
              "internalType": "uint256",
              "name": "contributionFloor",
              "type": "uint256"
            },
            {
              "internalType": "uint256",
              "name": "lockedUntil",
              "type": "uint256"
            },
            {
              "internalType": "uint256",
              "name": "remainingQuantity",
              "type": "uint256"
            },
            {
              "internalType": "uint256",
              "name": "initialQuantity",
              "type": "uint256"
            },
            {
              "internalType": "uint256",
              "name": "votingUnits",
              "type": "uint256"
            },
            {
              "internalType": "uint256",
              "name": "reservedRate",
              "type": "uint256"
            },
            {
              "internalType": "address",
              "name": "reservedTokenBeneficiary",
              "type": "address"
            },
            {
              "internalType": "bytes32",
              "name": "encodedIPFSUri",
              "type": "bytes32"
            },
            {
              "internalType": "bool",
              "name": "allowManualMint",
              "type": "bool"
            }
          ],
          "internalType": "struct JB721Tier",
          "name": "",
          "type": "tuple"
        }
      ],
      "stateMutability": "view",
      "type": "function"
    },
    {
      "inputs": [
        {
          "internalType": "address",
          "name": "_nft",
          "type": "address"
        },
        {
          "internalType": "address",
          "name": "_account",
          "type": "address"
        },
        {
          "internalType": "uint256",
          "name": "_tierId",
          "type": "uint256"
        }
      ],
      "name": "tierVotingUnitsOf",
      "outputs": [
        {
          "internalType": "uint256",
          "name": "",
          "type": "uint256"
        }
      ],
      "stateMutability": "view",
      "type": "function"
    },
    {
      "inputs": [
        {
          "internalType": "address",
          "name": "_nft",
          "type": "address"
        },
        {
          "internalType": "uint256",
          "name": "_startingId",
          "type": "uint256"
        },
        {
          "internalType": "uint256",
          "name": "_size",
          "type": "uint256"
        }
      ],
      "name": "tiers",
      "outputs": [
        {
          "components": [
            {
              "internalType": "uint256",
              "name": "id",
              "type": "uint256"
            },
            {
              "internalType": "uint256",
              "name": "contributionFloor",
              "type": "uint256"
            },
            {
              "internalType": "uint256",
              "name": "lockedUntil",
              "type": "uint256"
            },
            {
              "internalType": "uint256",
              "name": "remainingQuantity",
              "type": "uint256"
            },
            {
              "internalType": "uint256",
              "name": "initialQuantity",
              "type": "uint256"
            },
            {
              "internalType": "uint256",
              "name": "votingUnits",
              "type": "uint256"
            },
            {
              "internalType": "uint256",
              "name": "reservedRate",
              "type": "uint256"
            },
            {
              "internalType": "address",
              "name": "reservedTokenBeneficiary",
              "type": "address"
            },
            {
              "internalType": "bytes32",
              "name": "encodedIPFSUri",
              "type": "bytes32"
            },
            {
              "internalType": "bool",
              "name": "allowManualMint",
              "type": "bool"
            }
          ],
          "internalType": "struct JB721Tier[]",
          "name": "_tiers",
          "type": "tuple[]"
        }
      ],
      "stateMutability": "view",
      "type": "function"
    },
    {
      "inputs": [
        {
          "internalType": "address",
          "name": "",
          "type": "address"
        }
      ],
      "name": "tokenUriResolverOf",
      "outputs": [
        {
          "internalType": "contract IJBTokenUriResolver",
          "name": "",
          "type": "address"
        }
      ],
      "stateMutability": "view",
      "type": "function"
    },
    {
      "inputs": [
        {
          "internalType": "address",
          "name": "_nft",
          "type": "address"
        }
      ],
      "name": "totalRedemptionWeight",
      "outputs": [
        {
          "internalType": "uint256",
          "name": "weight",
          "type": "uint256"
        }
      ],
      "stateMutability": "view",
      "type": "function"
    },
    {
      "inputs": [
        {
          "internalType": "address",
          "name": "_nft",
          "type": "address"
        }
      ],
      "name": "totalSupply",
      "outputs": [
        {
          "internalType": "uint256",
          "name": "supply",
          "type": "uint256"
        }
      ],
      "stateMutability": "view",
      "type": "function"
    },
    {
      "inputs": [
        {
          "internalType": "address",
          "name": "_nft",
          "type": "address"
        },
        {
          "internalType": "address",
          "name": "_account",
          "type": "address"
        }
      ],
      "name": "votingUnitsOf",
      "outputs": [
        {
          "internalType": "uint256",
          "name": "units",
          "type": "uint256"
        }
      ],
      "stateMutability": "view",
      "type": "function"
    }
  ],
  "bytecode": {
    "object": "0x608060405234801561001057600080fd5b5061366b806100206000396000f3fe608060405234801561001057600080fd5b506004361061023d5760003560e01c8063879791f31161013b578063c8df1710116100b8578063e4dc2aa41161007c578063e4dc2aa414610778578063eaa19ab31461078b578063f1bea54f146107ac578063f682eeaf146107cc578063f7888aec146107df57600080fd5b8063c8df1710146106c7578063cb827e3214610702578063d0cf48a514610715578063d67b78fd14610728578063d84a72c01461073b57600080fd5b8063aab0cd80116100ff578063aab0cd8014610636578063b67cb04714610656578063baa7e80e14610669578063bd51923c14610689578063c2c55f94146106b457600080fd5b8063879791f31461054f5780638cec7d391461057d5780638ed6c010146105c6578063911c80b5146105fa578063933555781461062357600080fd5b806335314b92116101c95780636262bcb21161018d5780636262bcb21461040e5780636825bb80146104215780637473c9a21461044c578063845104de1461046c57806386bc2be31461053c57600080fd5b806335314b921461037257806337f44652146103855780633eb2556a146103b657806342f9914b146103d65780635f646611146103eb57600080fd5b806317161f7d1161021057806317161f7d146102d157806320512ba11461030e5780632ae5e492146103215780632b7e6ef0146103345780632e4d0ea81461035f57600080fd5b8063086bb19a146102425780630fab094714610257578063136e651c1461029d578063144cc2d4146102b0575b600080fd5b610255610250366004612b68565b6107f2565b005b610280610265366004612b68565b600c602052600090815260409020546001600160a01b031681565b6040516001600160a01b0390911681526020015b60405180910390f35b6102806102ab366004612b85565b610990565b6102c36102be366004612bfc565b6109e9565b604051908152602001610294565b6102556102df366004612b68565b33600090815260096020526040902080546001600160a01b0319166001600160a01b0392909216919091179055565b61025561031c366004612c50565b610a69565b6102c361032f366004612b68565b610b08565b6102c3610342366004612b85565b600860209081526000928352604080842090915290825290205481565b6102c361036d366004612c91565b610c51565b6102c3610380366004612b85565b610cd6565b6102c3610393366004612c91565b600660209081526000938452604080852082529284528284209052825290205481565b6103c96103c4366004612cd2565b610d89565b6040516102949190612d80565b6102c36103e4366004612dcf565b61ffff1690565b6103fe6103f9366004612b85565b6110ec565b6040519015158152602001610294565b61025561041c366004612de8565b611124565b6102c361042f366004612b85565b600760209081526000928352604080842090915290825290205481565b61045f61045a366004612b85565b611143565b6040516102949190612e59565b61050161047a366004612b68565b604080516080810182526000808252602082018190529181018290526060810191909152506001600160a01b03166000908152600360209081526040918290208251608081018452905460ff808216151583526101008204811615159383019390935262010000810483161515938201939093526301000000909204161515606082015290565b604051610294919081511515815260208083015115159082015260408083015115159082015260609182015115159181019190915260800190565b61025561054a366004612efa565b61135b565b61056261055d366004612dcf565b611429565b60408051938452602084019290925290820152606001610294565b61025561058b366004612f8f565b336000908152600a602090815260408083209483529390529190912080546001600160a01b0319166001600160a01b03909216919091179055565b6102806105d4366004612b85565b600a6020908152600092835260408084209091529082529020546001600160a01b031681565b610280610608366004612b68565b6009602052600090815260409020546001600160a01b031681565b6102c3610631366004612fbf565b61166e565b610649610644366004612b68565b61171e565b6040516102949190612fed565b61045f610664366004612b85565b6117b8565b61067c61067736600461303b565b6119db565b6040516102949190613098565b6102c3610697366004612b85565b600e60209081526000928352604080842090915290825290205481565b6102556106c23660046130ab565b611bf4565b6102c36106d5366004612b85565b6001600160a01b03919091166000908152600e6020908152604080832061ffff9094168352929052205490565b6102556107103660046130ed565b611c87565b61067c61072336600461311e565b611ca2565b610255610736366004612de8565b6123c3565b610255610749366004612b68565b336000908152600c6020526040902080546001600160a01b0319166001600160a01b0392909216919091179055565b6102c3610786366004612b68565b6123dd565b61079e61079936600461322e565b612465565b60405161029492919061328c565b6102c36107ba366004612b68565b60056020526000908152604090205481565b6106496107da366004612b68565b6127a0565b6102c36107ed366004612fbf565b6127b9565b6001600160a01b0381166000908152600560205260408120549061081583612825565b6001600160a01b038416600090815260046020526040812091925090819061083d9084612858565b90505b821561094b57610850818461289d565b1561087a576001600160a01b03851660009081526004602052604090206108779084612858565b90505b61088481846128b6565b610939576108938260016132c4565b83146108eb576001600160a01b03851660009081526020818152604080832085845290915290205483146108e6576001600160a01b03851660009081526020818152604080832085845290915290208390555b610935565b6001600160a01b03851660009081526020818152604080832085845290915290205415610935576001600160a01b0385166000908152602081815260408083208584529091528120555b8291505b6109448584866128d5565b9250610840565b6040513381526001600160a01b038616907f4a0f854ce3c180d56f3e9eb47eb064c595bf3de0ab9af45425291e5b1bb733a89060200160405180910390a25050505050565b6001600160a01b03808316600090815260016020908152604080832085845290915281205490911680156109c55790506109e3565b50506001600160a01b03808316600090815260096020526040902054165b92915050565b600081815b81811015610a60576001600160a01b038616600090815260026020526040812090610a32878785818110610a2457610a246132d7565b9050602002013561ffff1690565b8152602081019190915260400160002054610a56906001600160501b0316846132c4565b92506001016109ee565b50509392505050565b806000805b82811015610b0157848482818110610a8857610a886132d7565b336000908152600260209081526040808320938202959095013580835292905292909220549193505042600160501b90910465ffffffffffff1610610ae057604051636b73d51160e11b815260040160405180910390fd5b336000908152600460205260409020610af99083612928565b600101610a6e565b5050505050565b6001600160a01b038116600090815260056020526040812054610b29612aa8565b60005b82811015610c49576001600160a01b038516600090815260026020526040812090610b588360016132c4565b81526020808201929092526040908101600020815160e08101835290546001600160501b0381168252600160501b810465ffffffffffff1693820193909352600160801b830464ffffffffff90811692820192909252600160a81b83049091166060820152600160d01b820461ffff9081166080830152600160e01b83041660a0820152600160f01b90910460ff16151560c08201529150610bfb858284612960565b82604001518360600151610c0f91906132ed565b8351610c229164ffffffffff1690613312565b6001600160501b0316610c3591906132c4565b610c3f90856132c4565b9350600101610b2c565b505050919050565b6001600160a01b0380841660009081526006602090815260408083209386168352928152828220848352905290812054808203610c92576000915050610ccf565b6001600160a01b0385166000908152600260209081526040808320868452909152902054610ccb90600160d01b900461ffff1682613341565b9150505b9392505050565b6001600160a01b03821660009081526002602090815260408083208484528252808320815160e08101835290546001600160501b0381168252600160501b810465ffffffffffff1693820193909352600160801b830464ffffffffff90811692820192909252600160a81b83049091166060820152600160d01b820461ffff9081166080830152600160e01b83041660a0820152600160f01b90910460ff16151560c0820152610ccf9084908490612960565b6001600160a01b038316600090815260056020526040902054606090826001600160401b03811115610dbd57610dbd612e68565b604051908082528060200260200182016040528015610df657816020015b610de3612ae4565b815260200190600190039081610ddb5790505b50915060008085600003610e1257610e0d87612825565b610e14565b855b9050610e1e612aa8565b6001600160a01b0388166000908152600460205260408120610e409084612858565b90505b8215801590610e5157508684105b156110d557610e60818461289d565b15610e8a576001600160a01b0389166000908152600460205260409020610e879084612858565b90505b610e9481846128b6565b6110c357600260008a6001600160a01b03166001600160a01b0316815260200190815260200160002060008481526020019081526020016000206040518060e00160405290816000820160009054906101000a90046001600160501b03166001600160501b03166001600160501b0316815260200160008201600a9054906101000a900465ffffffffffff1665ffffffffffff1665ffffffffffff1681526020016000820160109054906101000a900464ffffffffff1664ffffffffff1664ffffffffff1681526020016000820160159054906101000a900464ffffffffff1664ffffffffff1664ffffffffff16815260200160008201601a9054906101000a900461ffff1661ffff1661ffff16815260200160008201601c9054906101000a900461ffff1661ffff1661ffff16815260200160008201601e9054906101000a900460ff161515151581525050915060405180610140016040528084815260200183600001516001600160501b03168152602001836020015165ffffffffffff168152602001836040015164ffffffffff168152602001836060015164ffffffffff168152602001836080015161ffff1681526020018360a0015161ffff1681526020016110628b86610990565b6001600160a01b0390811682528b166000908152600e60209081526040808320888452825291829020549083015260c0850151151591015286856110a581613360565b9650815181106110b7576110b76132d7565b60200260200101819052505b6110ce8984876128d5565b9250610e43565b8684146110e0578386525b50505050509392505050565b6001600160a01b038216600090815260046020526040812081906111109084612858565b905061111c81846128b6565b949350505050565b336000908152600b6020526040902061113e8284836133fb565b505050565b61114b612ae4565b600060026000856001600160a01b03166001600160a01b0316815260200190815260200160002060008481526020019081526020016000206040518060e00160405290816000820160009054906101000a90046001600160501b03166001600160501b03166001600160501b0316815260200160008201600a9054906101000a900465ffffffffffff1665ffffffffffff1665ffffffffffff1681526020016000820160109054906101000a900464ffffffffff1664ffffffffff1664ffffffffff1681526020016000820160159054906101000a900464ffffffffff1664ffffffffff1664ffffffffff16815260200160008201601a9054906101000a900461ffff1661ffff1661ffff16815260200160008201601c9054906101000a900461ffff1661ffff1661ffff16815260200160008201601e9054906101000a900460ff161515151581525050905060405180610140016040528084815260200182600001516001600160501b03168152602001826020015165ffffffffffff168152602001826040015164ffffffffff168152602001826060015164ffffffffff168152602001826080015161ffff1681526020018260a0015161ffff1681526020016113178686610990565b6001600160a01b03908116825286166000908152600e60209081526040808320888452825291829020549083015260c0909301511515920191909152905092915050565b80516000805b828110156114235783818151811061137b5761137b6132d7565b6020026020010151915060006113928361ffff1690565b33600090815260086020908152604080832084845290915281208054929350906113bb83613360565b909155505033600090815260026020908152604080832084845290915290208054600160801b900464ffffffffff169060106113f6836134ba565b91906101000a81548164ffffffffff021916908364ffffffffff1602179055505081600101915050611361565b50505050565b3360009081526005602052604081205481908190611445612aa8565b600061145033612825565b33600090815260046020526040812091925090819061146f9084612858565b90505b82156115d257336000908152600260209081526040808320868452825291829020825160e08101845290546001600160501b038116825265ffffffffffff600160501b8204169282019290925264ffffffffff600160801b8304811693820193909352600160a81b8204909216606083015261ffff600160d01b820481166080840152600160e01b82041660a083015260ff600160f01b90910416151560c08201529350611520818461289d565b156115415733600090815260046020526040902061153e9084612858565b90505b83516001600160501b031689101561155c5760009250611472565b61156681846128b6565b15801561157c575083516001600160501b031682105b80156115a7575061158e338486612960565b846040015164ffffffffff166115a491906134de565b15155b156115c05782965083600001516001600160501b031691505b6115cb3384876128d5565b9250611472565b866000036115e257889550611662565b3360008181526002602090815260408083208b84528252808320938352600882528083208b8452909152902054815460001964ffffffffff600160801b808404821692830182160264ffffffffff60801b1990931692909217808555600160a81b9004821603600101160160101b8817985061165e838b6134de565b9650505b50505050509193909250565b6001600160a01b03821660009081526005602052604081205481815b8015611715576001600160a01b0380871660009081526006602090815260408083209389168352928152828220848352905220549150811561170c576001600160a01b03861660009081526002602090815260408083208484529091529020546116ff90600160d01b900461ffff1683613341565b61170990856132c4565b93505b6000190161168a565b50505092915050565b600d602052600090815260409020805461173790613379565b80601f016020809104026020016040519081016040528092919081815260200182805461176390613379565b80156117b05780601f10611785576101008083540402835291602001916117b0565b820191906000526020600020905b81548152906001019060200180831161179357829003601f168201915b505050505081565b6117c0612ae4565b600061ffff83169050600060026000866001600160a01b03166001600160a01b0316815260200190815260200160002060008381526020019081526020016000206040518060e00160405290816000820160009054906101000a90046001600160501b03166001600160501b03166001600160501b0316815260200160008201600a9054906101000a900465ffffffffffff1665ffffffffffff1665ffffffffffff1681526020016000820160109054906101000a900464ffffffffff1664ffffffffff1664ffffffffff1681526020016000820160159054906101000a900464ffffffffff1664ffffffffff1664ffffffffff16815260200160008201601a9054906101000a900461ffff1661ffff1661ffff16815260200160008201601c9054906101000a900461ffff1661ffff1661ffff16815260200160008201601e9054906101000a900460ff161515151581525050905060405180610140016040528083815260200182600001516001600160501b03168152602001826020015165ffffffffffff168152602001826040015164ffffffffff168152602001826060015164ffffffffff168152602001826080015161ffff1681526020018260a0015161ffff1681526020016119958785610990565b6001600160a01b039081168252969096166000908152600e6020908152604080832095835294815290849020549087015260c09190910151151591909401525090919050565b3360008181526002602090815260408083208684528252808320815160e08101835281546001600160501b0381168252600160501b810465ffffffffffff1694820194909452600160801b840464ffffffffff90811693820193909352600160a81b8404909216606080840191909152600160d01b840461ffff9081166080850152600160e01b85041660a0840152600160f01b90930460ff16151560c08301529193919291611a8c918790612960565b905080841115611aaf5760405163226f999960e11b815260040160405180910390fd5b33600090815260076020908152604080832088845290915281208054869290611ad99084906132c4565b909155508490506001600160401b03811115611af757611af7612e68565b604051908082528060200260200182016040528015611b20578160200160208202803683370190505b503360009081526008602090815260408083208984529091528120549194505b85811015611bea57611bc5878386600001601081819054906101000a900464ffffffffff16611b6e906134f1565b91906101000a81548164ffffffffff021916908364ffffffffff16021790558760000160159054906101000a900464ffffffffff16611bad91906132ed565b64ffffffffff16611bbe91906132c4565b60101b1790565b858281518110611bd757611bd76132d7565b6020908102919091010152600101611b40565b5050505092915050565b6001600160a01b03821615611c41573360009081526006602090815260408083206001600160a01b0386168452825280832086845290915281208054909190611c3c90613512565b909155505b6001600160a01b0381161561113e573360009081526006602090815260408083206001600160a01b03851684528252808320868452909152902080546001019055505050565b336000908152600360205260409020819061113e8282613536565b80513360009081526005602052604090205460609190816001600160401b03811115611cd057611cd0612e68565b604051908082528060200260200182016040528015611cf9578160200160208202803683370190505b50925060008115611d1257611d0d33612825565b611d15565b60005b6040805161012081018252600080825260208201819052918101829052606081018290526080810182905260a0810182905260c0810182905260e081018290526101008101829052919250903360009081526003602090815260408083208151608081018352905460ff80821615158352610100820481161515948301949094526201000081048416151592820192909252630100000090910490911615156060820152905b8681101561239c57888181518110611dd557611dd56132d7565b6020026020010151925080600014158015611e1a575088611df76001836134de565b81518110611e0757611e076132d7565b6020026020010151600001518360000151105b15611e38576040516325ec4a9160e21b815260040160405180910390fd5b81602001518015611e4c5750606083015115155b15611e6a57604051630189200360e11b815260040160405180910390fd5b815180611e7857508260e001515b8015611e875750608083015115155b15611ea55760405163a75b1cd560e01b815260040160405180910390fd5b81604001518015611eb757508260e001515b15611ed5576040516330ec637f60e01b815260040160405180910390fd5b8260400151600003611efa57604051631e0a863160e31b815260040160405180910390fd5b6000611f0682886132c4565b611f119060016132c4565b90506040518060e0016040528085600001516001600160501b03168152602001856020015165ffffffffffff168152602001856040015164ffffffffff168152602001856040015164ffffffffff168152602001856060015161ffff168152602001856080015161ffff1681526020018560e00151151581525060026000336001600160a01b03166001600160a01b03168152602001908152602001600020600083815260200190815260200160002060008201518160000160006101000a8154816001600160501b0302191690836001600160501b03160217905550602082015181600001600a6101000a81548165ffffffffffff021916908365ffffffffffff16021790555060408201518160000160106101000a81548164ffffffffff021916908364ffffffffff16021790555060608201518160000160156101000a81548164ffffffffff021916908364ffffffffff160217905550608082015181600001601a6101000a81548161ffff021916908361ffff16021790555060a082015181600001601c6101000a81548161ffff021916908361ffff16021790555060c082015181600001601e6101000a81548160ff02191690831515021790555090505060006001600160a01b03168460a001516001600160a01b03161415801561211b57503360009081526009602052604090205460a08501516001600160a01b03908116911614155b1561219e57836101000151156121615760a084015133600090815260096020526040902080546001600160a01b0319166001600160a01b0390921691909117905561219e565b60a0840151336000908152600160209081526040808320858452909152902080546001600160a01b0319166001600160a01b039092169190911790555b60c0840151156121c95760c0840151336000908152600e602090815260408083208584529091529020555b8515612375573360009081526004602052604081208791906121eb9083612858565b905060005b821561237157612200828461289d565b156122215733600090815260046020526040902061221e9084612858565b91505b61222c33848c6128d5565b33600090815260026020908152604080832087845290915290205488519192506001600160501b03161115612327576122668460016132c4565b8314612288573360009081526020818152604080832087845290915290208390555b898314801561229c575061229c82846128b6565b156122af57896122ab81613512565b9a50505b6122ba6001856134de565b881415806122df5750336000908152602081815260408083208b845290915290205415155b15612318576122ef6001856134de565b88146122fb57836122fe565b60005b336000908152602081815260408083208c84529091529020555b829850839750600092506121f0565b806000036123685761233a8360016132c4565b841461235c573360009081526020818152604080832086845290915290208490555b839850600092506121f0565b919650816121f0565b5050505b80898381518110612388576123886132d7565b602090810291909101015250600101611dbb565b506123a786866132c4565b3360009081526005602052604090205550949695505050505050565b336000908152600d6020526040902061113e8284836133fb565b6001600160a01b0381166000908152600560205260408120548190805b8015610c49576001600160a01b0385166000908152600260209081526040808320848452909152902080549093506124499064ffffffffff600160801b8204811691600160a81b9004166132ed565b61245a9064ffffffffff16856132c4565b9350600019016123fa565b60608483600080826001600160401b0381111561248457612484612e68565b6040519080825280602002602001820160405280156124ad578160200160208202803683370190505b50945060006124f6898960008181106124c8576124c86132d7565b90506020020160208101906124dd91906135d3565b3360009081526004602052604090209061ffff16612858565b905060005b8481101561279257898982818110612515576125156132d7565b905060200201602081019061252a91906135d3565b61ffff16925061253a828461289d565b1561255b573360009081526004602052604090206125589084612858565b91505b61256582846128b6565b156125835760405163d32cb5c160e01b815260040160405180910390fd5b336000908152600260209081526040808320868452909152902093508780156125b557508354600160f01b900460ff16155b156125d357604051632f792d3960e11b815260040160405180910390fd5b8354600160a81b900464ffffffffff1660000361260357604051630de5859f60e01b815260040160405180910390fd5b83546001600160501b031686101561262e57604051632cd294cf60e01b815260040160405180910390fd5b6040805160e08101825285546001600160501b0381168252600160501b810465ffffffffffff166020830152600160801b810464ffffffffff90811693830193909352600160a81b81049092166060820152600160d01b820461ffff9081166080830152600160e01b83041660a0820152600160f01b90910460ff16151560c08201526126be9033908590612960565b84546126d89190600160801b900464ffffffffff166134de565b6000036126f85760405163985a45d960e01b815260040160405180910390fd5b336000908152600860209081526040808320868452909152902054845460001964ffffffffff600160801b808404821692830182160264ffffffffff60801b1990931692909217808855600160a81b9004821603600101160160101b8317878281518110612768576127686132d7565b60209081029190910101528354612788906001600160501b0316876134de565b95506001016124fb565b505050505094509492505050565b600b602052600090815260409020805461173790613379565b6001600160a01b038216600090815260056020526040812054805b801561281d576001600160a01b03808616600090815260066020908152604080832093881683529281528282208483529052205461281290846132c4565b9250600019016127d4565b505092915050565b6001600160a01b03811660009081526020818152604080832083805290915281205490819003612853575060015b919050565b6040805180820190915260008082526020820152600061287783612a9a565b604080518082018252600083815260209788529190912054815294850152509192915050565b600082602001516128ad83612a9a565b14159392505050565b60006128c46101008361360d565b83516001911c811614905092915050565b6001600160a01b0383166000908152602081815260408083208584529091528120548015612904579050610ccf565b828410612915576000915050610ccf565b6129208460016132c4565b915050610ccf565b600061293382612a9a565b90506129416101008361360d565b6000918252602093909352604090208054600190931b90921790915550565b6000816060015164ffffffffff1660001480612982575060a082015161ffff16155b1561298f57506000610ccf565b816040015164ffffffffff16826060015164ffffffffff16036129b457506001610ccf565b6001600160a01b0384166000908152600760209081526040808320868452909152908190205490830151606084015164ffffffffff918216916129f9918491166134de565b03612a08576000915050610ccf565b60008184604001518560600151612a1f91906132ed565b64ffffffffff16612a3091906134de565b905060008460a0015161ffff1682612a489190613341565b90506000612a5861271083613621565b90506000612a6882612710613341565b612a7290846134de565b1115612a8457612a8181613360565b90505b612a8e84826134de565b98975050505050505050565b60006109e361010083613621565b6040805160e081018252600080825260208201819052918101829052606081018290526080810182905260a0810182905260c081019190915290565b6040518061014001604052806000815260200160008152602001600081526020016000815260200160008152602001600081526020016000815260200160006001600160a01b03168152602001600080191681526020016000151581525090565b6001600160a01b0381168114612b5a57600080fd5b50565b803561285381612b45565b600060208284031215612b7a57600080fd5b8135610ccf81612b45565b60008060408385031215612b9857600080fd5b8235612ba381612b45565b946020939093013593505050565b60008083601f840112612bc357600080fd5b5081356001600160401b03811115612bda57600080fd5b6020830191508360208260051b8501011115612bf557600080fd5b9250929050565b600080600060408486031215612c1157600080fd5b8335612c1c81612b45565b925060208401356001600160401b03811115612c3757600080fd5b612c4386828701612bb1565b9497909650939450505050565b60008060208385031215612c6357600080fd5b82356001600160401b03811115612c7957600080fd5b612c8585828601612bb1565b90969095509350505050565b600080600060608486031215612ca657600080fd5b8335612cb181612b45565b92506020840135612cc181612b45565b929592945050506040919091013590565b600080600060608486031215612ce757600080fd5b8335612cf281612b45565b95602085013595506040909401359392505050565b805182526020810151602083015260408101516040830152606081015160608301526080810151608083015260a081015160a083015260c081015160c083015260e0810151612d6160e08401826001600160a01b03169052565b5061010081810151908301526101208082015180151582850152611423565b6020808252825182820181905260009190848201906040850190845b81811015612dc357612daf838551612d07565b928401926101409290920191600101612d9c565b50909695505050505050565b600060208284031215612de157600080fd5b5035919050565b60008060208385031215612dfb57600080fd5b82356001600160401b0380821115612e1257600080fd5b818501915085601f830112612e2657600080fd5b813581811115612e3557600080fd5b866020828501011115612e4757600080fd5b60209290920196919550909350505050565b61014081016109e38284612d07565b634e487b7160e01b600052604160045260246000fd5b60405161012081016001600160401b0381118282101715612ea157612ea1612e68565b60405290565b604051601f8201601f191681016001600160401b0381118282101715612ecf57612ecf612e68565b604052919050565b60006001600160401b03821115612ef057612ef0612e68565b5060051b60200190565b60006020808385031215612f0d57600080fd5b82356001600160401b03811115612f2357600080fd5b8301601f81018513612f3457600080fd5b8035612f47612f4282612ed7565b612ea7565b81815260059190911b82018301908381019087831115612f6657600080fd5b928401925b82841015612f8457833582529284019290840190612f6b565b979650505050505050565b60008060408385031215612fa257600080fd5b823591506020830135612fb481612b45565b809150509250929050565b60008060408385031215612fd257600080fd5b8235612fdd81612b45565b91506020830135612fb481612b45565b600060208083528351808285015260005b8181101561301a57858101830151858201604001528201612ffe565b506000604082860101526040601f19601f8301168501019250505092915050565b6000806040838503121561304e57600080fd5b50508035926020909101359150565b600081518084526020808501945080840160005b8381101561308d57815187529582019590820190600101613071565b509495945050505050565b602081526000610ccf602083018461305d565b6000806000606084860312156130c057600080fd5b8335925060208401356130d281612b45565b915060408401356130e281612b45565b809150509250925092565b6000608082840312156130ff57600080fd5b50919050565b8015158114612b5a57600080fd5b803561285381613105565b6000602080838503121561313157600080fd5b82356001600160401b0381111561314757600080fd5b8301601f8101851361315857600080fd5b8035613166612f4282612ed7565b818152610120918202830184019184820191908884111561318657600080fd5b938501935b838510156132225780858a0312156131a35760008081fd5b6131ab612e7e565b85358152868601358782015260408087013590820152606080870135908201526080808701359082015260a06131e2818801612b5d565b9082015260c0868101359082015260e06131fd818801613113565b9082015261010061320f878201613113565b908201528352938401939185019161318b565b50979650505050505050565b6000806000806060858703121561324457600080fd5b8435935060208501356001600160401b0381111561326157600080fd5b61326d87828801612bb1565b909450925050604085013561328181613105565b939692955090935050565b60408152600061329f604083018561305d565b90508260208301529392505050565b634e487b7160e01b600052601160045260246000fd5b808201808211156109e3576109e36132ae565b634e487b7160e01b600052603260045260246000fd5b64ffffffffff82811682821603908082111561330b5761330b6132ae565b5092915050565b60006001600160501b0380831681851681830481118215151615613338576133386132ae565b02949350505050565b600081600019048311821515161561335b5761335b6132ae565b500290565b600060018201613372576133726132ae565b5060010190565b600181811c9082168061338d57607f821691505b6020821081036130ff57634e487b7160e01b600052602260045260246000fd5b601f82111561113e57600081815260208120601f850160051c810160208610156133d45750805b601f850160051c820191505b818110156133f3578281556001016133e0565b505050505050565b6001600160401b0383111561341257613412612e68565b613426836134208354613379565b836133ad565b6000601f84116001811461345a57600085156134425750838201355b600019600387901b1c1916600186901b178355610b01565b600083815260209020601f19861690835b8281101561348b578685013582556020948501946001909201910161346b565b50868210156134a85760001960f88860031b161c19848701351681555b505060018560011b0183555050505050565b600064ffffffffff8083168181036134d4576134d46132ae565b6001019392505050565b818103818111156109e3576109e36132ae565b600064ffffffffff821680613508576135086132ae565b6000190192915050565b600081613521576135216132ae565b506000190190565b600081356109e381613105565b813561354181613105565b815460ff19811691151560ff169182178355602084013561356181613105565b61ff0090151560081b1661ffff198216831781178455604085013561358581613105565b62ff000081151560101b168462ffffff198516178317178555505050506135cf6135b160608401613529565b82805463ff000000191691151560181b63ff00000016919091179055565b5050565b6000602082840312156135e557600080fd5b813561ffff81168114610ccf57600080fd5b634e487b7160e01b600052601260045260246000fd5b60008261361c5761361c6135f7565b500690565b600082613630576136306135f7565b50049056fea264697066735822122042b54c0b83fc4ca2c8ad04e91658520191a7207b76d3e2d3ae8c72707ce48c4e64736f6c63430008100033",
    "linkReferences": {}
  },
  "methodIdentifiers": {
    "balanceOf(address,address)": "f7888aec",
    "baseUriOf(address)": "f682eeaf",
    "cleanTiers(address)": "086bb19a",
    "contractUriOf(address)": "aab0cd80",
    "defaultReservedTokenBeneficiaryOf(address)": "911c80b5",
    "encodedIPFSUriOf(address,uint256)": "bd51923c",
    "encodedTierIPFSUriOf(address,uint256)": "c8df1710",
    "firstOwnerOf(address,uint256)": "8ed6c010",
    "flagsOf(address)": "845104de",
    "isTierRemoved(address,uint256)": "5f646611",
    "maxTierIdOf(address)": "f1bea54f",
    "numberOfBurnedFor(address,uint256)": "2b7e6ef0",
    "numberOfReservedTokensOutstandingFor(address,uint256)": "35314b92",
    "numberOfReservesMintedFor(address,uint256)": "6825bb80",
    "recordAddTiers((uint256,uint256,uint256,uint256,uint256,address,bytes32,bool,bool)[])": "d0cf48a5",
    "recordBurn(uint256[])": "86bc2be3",
    "recordFlags((bool,bool,bool,bool))": "cb827e32",
    "recordMint(uint256,uint16[],bool)": "eaa19ab3",
    "recordMintBestAvailableTier(uint256)": "879791f3",
    "recordMintReservesFor(uint256,uint256)": "baa7e80e",
    "recordRemoveTierIds(uint256[])": "20512ba1",
    "recordSetBaseUri(string)": "6262bcb2",
    "recordSetContractUri(string)": "d67b78fd",
    "recordSetDefaultReservedTokenBeneficiary(address)": "17161f7d",
    "recordSetFirstOwnerOf(uint256,address)": "8cec7d39",
    "recordSetTokenUriResolver(address)": "d84a72c0",
    "recordTransferForTier(uint256,address,address)": "c2c55f94",
    "redemptionWeightOf(address,uint256[])": "144cc2d4",
    "reservedTokenBeneficiaryOf(address,uint256)": "136e651c",
    "tier(address,uint256)": "7473c9a2",
    "tierBalanceOf(address,address,uint256)": "37f44652",
    "tierIdOfToken(uint256)": "42f9914b",
    "tierOfTokenId(address,uint256)": "b67cb047",
    "tierVotingUnitsOf(address,address,uint256)": "2e4d0ea8",
    "tiers(address,uint256,uint256)": "3eb2556a",
    "tokenUriResolverOf(address)": "0fab0947",
    "totalRedemptionWeight(address)": "2ae5e492",
    "totalSupply(address)": "e4dc2aa4",
    "votingUnitsOf(address,address)": "93355578"
  },
  "id": 5
}