{
  "abi": [
    {
      "inputs": [],
      "name": "CANT_MINT_MANUALLY",
      "type": "error"
    },
    {
      "inputs": [],
      "name": "INSUFFICIENT_AMOUNT",
      "type": "error"
    },
    {
      "inputs": [],
      "name": "INSUFFICIENT_RESERVES",
      "type": "error"
    },
    {
      "inputs": [],
      "name": "INVALID_PRICE_SORT_ORDER",
      "type": "error"
    },
    {
      "inputs": [],
      "name": "INVALID_QUANTITY",
      "type": "error"
    },
    {
      "inputs": [],
      "name": "INVALID_TIER",
      "type": "error"
    },
    {
      "inputs": [],
      "name": "MANUAL_MINTING_NOT_ALLOWED",
      "type": "error"
    },
    {
      "inputs": [],
      "name": "MAX_TIERS_EXCEEDED",
      "type": "error"
    },
    {
      "inputs": [],
      "name": "NO_QUANTITY",
      "type": "error"
    },
    {
      "inputs": [],
      "name": "OUT",
      "type": "error"
    },
    {
      "inputs": [],
      "name": "PRICING_RESOLVER_CHANGES_LOCKED",
      "type": "error"
    },
    {
      "inputs": [],
      "name": "RESERVED_RATE_NOT_ALLOWED",
      "type": "error"
    },
    {
      "inputs": [],
      "name": "TIER_LOCKED",
      "type": "error"
    },
    {
      "inputs": [],
      "name": "TIER_REMOVED",
      "type": "error"
    },
    {
      "inputs": [],
      "name": "VOTING_UNITS_NOT_ALLOWED",
      "type": "error"
    },
    {
      "anonymous": false,
      "inputs": [
        {
          "indexed": true,
          "internalType": "address",
          "name": "nft",
          "type": "address"
        },
        {
          "indexed": false,
          "internalType": "address",
          "name": "caller",
          "type": "address"
        }
      ],
      "name": "CleanTiers",
      "type": "event"
    },
    {
      "inputs": [
        {
          "internalType": "address",
          "name": "_nft",
          "type": "address"
        },
        {
          "internalType": "address",
          "name": "_owner",
          "type": "address"
        }
      ],
      "name": "balanceOf",
      "outputs": [
        {
          "internalType": "uint256",
          "name": "balance",
          "type": "uint256"
        }
      ],
      "stateMutability": "view",
      "type": "function"
    },
    {
      "inputs": [
        {
          "internalType": "address",
          "name": "",
          "type": "address"
        }
      ],
      "name": "baseUriOf",
      "outputs": [
        {
          "internalType": "string",
          "name": "",
          "type": "string"
        }
      ],
      "stateMutability": "view",
      "type": "function"
    },
    {
      "inputs": [
        {
          "internalType": "address",
          "name": "_nft",
          "type": "address"
        }
      ],
      "name": "cleanTiers",
      "outputs": [],
      "stateMutability": "nonpayable",
      "type": "function"
    },
    {
      "inputs": [
        {
          "internalType": "address",
          "name": "",
          "type": "address"
        }
      ],
      "name": "contractUriOf",
      "outputs": [
        {
          "internalType": "string",
          "name": "",
          "type": "string"
        }
      ],
      "stateMutability": "view",
      "type": "function"
    },
    {
      "inputs": [
        {
          "internalType": "address",
          "name": "",
          "type": "address"
        }
      ],
      "name": "defaultReservedTokenBeneficiaryOf",
      "outputs": [
        {
          "internalType": "address",
          "name": "",
          "type": "address"
        }
      ],
      "stateMutability": "view",
      "type": "function"
    },
    {
      "inputs": [
        {
          "internalType": "address",
          "name": "",
          "type": "address"
        },
        {
          "internalType": "uint256",
          "name": "",
          "type": "uint256"
        }
      ],
      "name": "encodedIPFSUriOf",
      "outputs": [
        {
          "internalType": "bytes32",
          "name": "",
          "type": "bytes32"
        }
      ],
      "stateMutability": "view",
      "type": "function"
    },
    {
      "inputs": [
        {
          "internalType": "address",
          "name": "_nft",
          "type": "address"
        },
        {
          "internalType": "uint256",
          "name": "_tokenId",
          "type": "uint256"
        }
      ],
      "name": "encodedTierIPFSUriOf",
      "outputs": [
        {
          "internalType": "bytes32",
          "name": "",
          "type": "bytes32"
        }
      ],
      "stateMutability": "view",
      "type": "function"
    },
    {
      "inputs": [
        {
          "internalType": "address",
          "name": "",
          "type": "address"
        },
        {
          "internalType": "uint256",
          "name": "",
          "type": "uint256"
        }
      ],
      "name": "firstOwnerOf",
      "outputs": [
        {
          "internalType": "address",
          "name": "",
          "type": "address"
        }
      ],
      "stateMutability": "view",
      "type": "function"
    },
    {
      "inputs": [
        {
          "internalType": "address",
          "name": "_nft",
          "type": "address"
        }
      ],
      "name": "flagsOf",
      "outputs": [
        {
          "components": [
            {
              "internalType": "bool",
              "name": "lockReservedTokenChanges",
              "type": "bool"
            },
            {
              "internalType": "bool",
              "name": "lockVotingUnitChanges",
              "type": "bool"
            },
            {
              "internalType": "bool",
              "name": "lockManualMintingChanges",
              "type": "bool"
            },
            {
              "internalType": "bool",
              "name": "preventOverspending",
              "type": "bool"
            }
          ],
          "internalType": "struct JBTiered721Flags",
          "name": "",
          "type": "tuple"
        }
      ],
      "stateMutability": "view",
      "type": "function"
    },
    {
      "inputs": [
        {
          "internalType": "address",
          "name": "_nft",
          "type": "address"
        },
        {
          "internalType": "uint256",
          "name": "_tierId",
          "type": "uint256"
        }
      ],
      "name": "isTierRemoved",
      "outputs": [
        {
          "internalType": "bool",
          "name": "",
          "type": "bool"
        }
      ],
      "stateMutability": "view",
      "type": "function"
    },
    {
      "inputs": [
        {
          "internalType": "address",
          "name": "",
          "type": "address"
        }
      ],
      "name": "maxTierIdOf",
      "outputs": [
        {
          "internalType": "uint256",
          "name": "",
          "type": "uint256"
        }
      ],
      "stateMutability": "view",
      "type": "function"
    },
    {
      "inputs": [
        {
          "internalType": "address",
          "name": "",
          "type": "address"
        },
        {
          "internalType": "uint256",
          "name": "",
          "type": "uint256"
        }
      ],
      "name": "numberOfBurnedFor",
      "outputs": [
        {
          "internalType": "uint256",
          "name": "",
          "type": "uint256"
        }
      ],
      "stateMutability": "view",
      "type": "function"
    },
    {
      "inputs": [
        {
          "internalType": "address",
          "name": "_nft",
          "type": "address"
        },
        {
          "internalType": "uint256",
          "name": "_tierId",
          "type": "uint256"
        }
      ],
      "name": "numberOfReservedTokensOutstandingFor",
      "outputs": [
        {
          "internalType": "uint256",
          "name": "",
          "type": "uint256"
        }
      ],
      "stateMutability": "view",
      "type": "function"
    },
    {
      "inputs": [
        {
          "internalType": "address",
          "name": "",
          "type": "address"
        },
        {
          "internalType": "uint256",
          "name": "",
          "type": "uint256"
        }
      ],
      "name": "numberOfReservesMintedFor",
      "outputs": [
        {
          "internalType": "uint256",
          "name": "",
          "type": "uint256"
        }
      ],
      "stateMutability": "view",
      "type": "function"
    },
    {
      "inputs": [
        {
          "components": [
            {
              "internalType": "uint80",
              "name": "contributionFloor",
              "type": "uint80"
            },
            {
              "internalType": "uint48",
              "name": "lockedUntil",
              "type": "uint48"
            },
            {
              "internalType": "uint40",
              "name": "initialQuantity",
              "type": "uint40"
            },
            {
              "internalType": "uint16",
              "name": "votingUnits",
              "type": "uint16"
            },
            {
              "internalType": "uint16",
              "name": "reservedRate",
              "type": "uint16"
            },
            {
              "internalType": "address",
              "name": "reservedTokenBeneficiary",
              "type": "address"
            },
            {
              "internalType": "bytes32",
              "name": "encodedIPFSUri",
              "type": "bytes32"
            },
            {
              "internalType": "bool",
              "name": "allowManualMint",
              "type": "bool"
            },
            {
              "internalType": "bool",
              "name": "shouldUseBeneficiaryAsDefault",
              "type": "bool"
            },
            {
              "internalType": "bool",
              "name": "transfersPausable",
              "type": "bool"
            }
          ],
          "internalType": "struct JB721TierParams[]",
          "name": "_tiersToAdd",
          "type": "tuple[]"
        }
      ],
      "name": "recordAddTiers",
      "outputs": [
        {
          "internalType": "uint256[]",
          "name": "tierIds",
          "type": "uint256[]"
        }
      ],
      "stateMutability": "nonpayable",
      "type": "function"
    },
    {
      "inputs": [
        {
          "internalType": "uint256[]",
          "name": "_tokenIds",
          "type": "uint256[]"
        }
      ],
      "name": "recordBurn",
      "outputs": [],
      "stateMutability": "nonpayable",
      "type": "function"
    },
    {
      "inputs": [
        {
          "components": [
            {
              "internalType": "bool",
              "name": "lockReservedTokenChanges",
              "type": "bool"
            },
            {
              "internalType": "bool",
              "name": "lockVotingUnitChanges",
              "type": "bool"
            },
            {
              "internalType": "bool",
              "name": "lockManualMintingChanges",
              "type": "bool"
            },
            {
              "internalType": "bool",
              "name": "preventOverspending",
              "type": "bool"
            }
          ],
          "internalType": "struct JBTiered721Flags",
          "name": "_flags",
          "type": "tuple"
        }
      ],
      "name": "recordFlags",
      "outputs": [],
      "stateMutability": "nonpayable",
      "type": "function"
    },
    {
      "inputs": [
        {
          "internalType": "uint256",
          "name": "_amount",
          "type": "uint256"
        },
        {
          "internalType": "uint16[]",
          "name": "_tierIds",
          "type": "uint16[]"
        },
        {
          "internalType": "bool",
          "name": "_isManualMint",
          "type": "bool"
        }
      ],
      "name": "recordMint",
      "outputs": [
        {
          "internalType": "uint256[]",
          "name": "tokenIds",
          "type": "uint256[]"
        },
        {
          "internalType": "uint256",
          "name": "leftoverAmount",
          "type": "uint256"
        }
      ],
      "stateMutability": "nonpayable",
      "type": "function"
    },
    {
      "inputs": [
        {
          "internalType": "uint256",
          "name": "_tierId",
          "type": "uint256"
        },
        {
          "internalType": "uint256",
          "name": "_count",
          "type": "uint256"
        }
      ],
      "name": "recordMintReservesFor",
      "outputs": [
        {
          "internalType": "uint256[]",
          "name": "tokenIds",
          "type": "uint256[]"
        }
      ],
      "stateMutability": "nonpayable",
      "type": "function"
    },
    {
      "inputs": [
        {
          "internalType": "uint256[]",
          "name": "_tierIds",
          "type": "uint256[]"
        }
      ],
      "name": "recordRemoveTierIds",
      "outputs": [],
      "stateMutability": "nonpayable",
      "type": "function"
    },
    {
      "inputs": [
        {
          "internalType": "string",
          "name": "_uri",
          "type": "string"
        }
      ],
      "name": "recordSetBaseUri",
      "outputs": [],
      "stateMutability": "nonpayable",
      "type": "function"
    },
    {
      "inputs": [
        {
          "internalType": "string",
          "name": "_uri",
          "type": "string"
        }
      ],
      "name": "recordSetContractUri",
      "outputs": [],
      "stateMutability": "nonpayable",
      "type": "function"
    },
    {
      "inputs": [
        {
          "internalType": "address",
          "name": "_beneficiary",
          "type": "address"
        }
      ],
      "name": "recordSetDefaultReservedTokenBeneficiary",
      "outputs": [],
      "stateMutability": "nonpayable",
      "type": "function"
    },
    {
      "inputs": [
        {
          "internalType": "uint256",
          "name": "_tokenId",
          "type": "uint256"
        },
        {
          "internalType": "address",
          "name": "_owner",
          "type": "address"
        }
      ],
      "name": "recordSetFirstOwnerOf",
      "outputs": [],
      "stateMutability": "nonpayable",
      "type": "function"
    },
    {
      "inputs": [
        {
          "internalType": "contract IJBTokenUriResolver",
          "name": "_resolver",
          "type": "address"
        }
      ],
      "name": "recordSetTokenUriResolver",
      "outputs": [],
      "stateMutability": "nonpayable",
      "type": "function"
    },
    {
      "inputs": [
        {
          "internalType": "uint256",
          "name": "_tierId",
          "type": "uint256"
        },
        {
          "internalType": "address",
          "name": "_from",
          "type": "address"
        },
        {
          "internalType": "address",
          "name": "_to",
          "type": "address"
        }
      ],
      "name": "recordTransferForTier",
      "outputs": [],
      "stateMutability": "nonpayable",
      "type": "function"
    },
    {
      "inputs": [
        {
          "internalType": "address",
          "name": "_nft",
          "type": "address"
        },
        {
          "internalType": "uint256[]",
          "name": "_tokenIds",
          "type": "uint256[]"
        }
      ],
      "name": "redemptionWeightOf",
      "outputs": [
        {
          "internalType": "uint256",
          "name": "weight",
          "type": "uint256"
        }
      ],
      "stateMutability": "view",
      "type": "function"
    },
    {
      "inputs": [
        {
          "internalType": "address",
          "name": "_nft",
          "type": "address"
        },
        {
          "internalType": "uint256",
          "name": "_tierId",
          "type": "uint256"
        }
      ],
      "name": "reservedTokenBeneficiaryOf",
      "outputs": [
        {
          "internalType": "address",
          "name": "",
          "type": "address"
        }
      ],
      "stateMutability": "view",
      "type": "function"
    },
    {
      "inputs": [
        {
          "internalType": "address",
          "name": "_nft",
          "type": "address"
        },
        {
          "internalType": "uint256",
          "name": "_id",
          "type": "uint256"
        }
      ],
      "name": "tier",
      "outputs": [
        {
          "components": [
            {
              "internalType": "uint256",
              "name": "id",
              "type": "uint256"
            },
            {
              "internalType": "uint256",
              "name": "contributionFloor",
              "type": "uint256"
            },
            {
              "internalType": "uint256",
              "name": "lockedUntil",
              "type": "uint256"
            },
            {
              "internalType": "uint256",
              "name": "remainingQuantity",
              "type": "uint256"
            },
            {
              "internalType": "uint256",
              "name": "initialQuantity",
              "type": "uint256"
            },
            {
              "internalType": "uint256",
              "name": "votingUnits",
              "type": "uint256"
            },
            {
              "internalType": "uint256",
              "name": "reservedRate",
              "type": "uint256"
            },
            {
              "internalType": "address",
              "name": "reservedTokenBeneficiary",
              "type": "address"
            },
            {
              "internalType": "bytes32",
              "name": "encodedIPFSUri",
              "type": "bytes32"
            },
            {
              "internalType": "bool",
              "name": "allowManualMint",
              "type": "bool"
            },
            {
              "internalType": "bool",
              "name": "transfersPausable",
              "type": "bool"
            }
          ],
          "internalType": "struct JB721Tier",
          "name": "",
          "type": "tuple"
        }
      ],
      "stateMutability": "view",
      "type": "function"
    },
    {
      "inputs": [
        {
          "internalType": "address",
          "name": "",
          "type": "address"
        },
        {
          "internalType": "address",
          "name": "",
          "type": "address"
        },
        {
          "internalType": "uint256",
          "name": "",
          "type": "uint256"
        }
      ],
      "name": "tierBalanceOf",
      "outputs": [
        {
          "internalType": "uint256",
          "name": "",
          "type": "uint256"
        }
      ],
      "stateMutability": "view",
      "type": "function"
    },
    {
      "inputs": [
        {
          "internalType": "uint256",
          "name": "_tokenId",
          "type": "uint256"
        }
      ],
      "name": "tierIdOfToken",
      "outputs": [
        {
          "internalType": "uint256",
          "name": "",
          "type": "uint256"
        }
      ],
      "stateMutability": "pure",
      "type": "function"
    },
    {
      "inputs": [
        {
          "internalType": "address",
          "name": "_nft",
          "type": "address"
        },
        {
          "internalType": "uint256",
          "name": "_tokenId",
          "type": "uint256"
        }
      ],
      "name": "tierOfTokenId",
      "outputs": [
        {
          "components": [
            {
              "internalType": "uint256",
              "name": "id",
              "type": "uint256"
            },
            {
              "internalType": "uint256",
              "name": "contributionFloor",
              "type": "uint256"
            },
            {
              "internalType": "uint256",
              "name": "lockedUntil",
              "type": "uint256"
            },
            {
              "internalType": "uint256",
              "name": "remainingQuantity",
              "type": "uint256"
            },
            {
              "internalType": "uint256",
              "name": "initialQuantity",
              "type": "uint256"
            },
            {
              "internalType": "uint256",
              "name": "votingUnits",
              "type": "uint256"
            },
            {
              "internalType": "uint256",
              "name": "reservedRate",
              "type": "uint256"
            },
            {
              "internalType": "address",
              "name": "reservedTokenBeneficiary",
              "type": "address"
            },
            {
              "internalType": "bytes32",
              "name": "encodedIPFSUri",
              "type": "bytes32"
            },
            {
              "internalType": "bool",
              "name": "allowManualMint",
              "type": "bool"
            },
            {
              "internalType": "bool",
              "name": "transfersPausable",
              "type": "bool"
            }
          ],
          "internalType": "struct JB721Tier",
          "name": "",
          "type": "tuple"
        }
      ],
      "stateMutability": "view",
      "type": "function"
    },
    {
      "inputs": [
        {
          "internalType": "address",
          "name": "_nft",
          "type": "address"
        },
        {
          "internalType": "address",
          "name": "_account",
          "type": "address"
        },
        {
          "internalType": "uint256",
          "name": "_tierId",
          "type": "uint256"
        }
      ],
      "name": "tierVotingUnitsOf",
      "outputs": [
        {
          "internalType": "uint256",
          "name": "",
          "type": "uint256"
        }
      ],
      "stateMutability": "view",
      "type": "function"
    },
    {
      "inputs": [
        {
          "internalType": "address",
          "name": "_nft",
          "type": "address"
        },
        {
          "internalType": "uint256",
          "name": "_startingId",
          "type": "uint256"
        },
        {
          "internalType": "uint256",
          "name": "_size",
          "type": "uint256"
        }
      ],
      "name": "tiers",
      "outputs": [
        {
          "components": [
            {
              "internalType": "uint256",
              "name": "id",
              "type": "uint256"
            },
            {
              "internalType": "uint256",
              "name": "contributionFloor",
              "type": "uint256"
            },
            {
              "internalType": "uint256",
              "name": "lockedUntil",
              "type": "uint256"
            },
            {
              "internalType": "uint256",
              "name": "remainingQuantity",
              "type": "uint256"
            },
            {
              "internalType": "uint256",
              "name": "initialQuantity",
              "type": "uint256"
            },
            {
              "internalType": "uint256",
              "name": "votingUnits",
              "type": "uint256"
            },
            {
              "internalType": "uint256",
              "name": "reservedRate",
              "type": "uint256"
            },
            {
              "internalType": "address",
              "name": "reservedTokenBeneficiary",
              "type": "address"
            },
            {
              "internalType": "bytes32",
              "name": "encodedIPFSUri",
              "type": "bytes32"
            },
            {
              "internalType": "bool",
              "name": "allowManualMint",
              "type": "bool"
            },
            {
              "internalType": "bool",
              "name": "transfersPausable",
              "type": "bool"
            }
          ],
          "internalType": "struct JB721Tier[]",
          "name": "_tiers",
          "type": "tuple[]"
        }
      ],
      "stateMutability": "view",
      "type": "function"
    },
    {
      "inputs": [
        {
          "internalType": "address",
          "name": "",
          "type": "address"
        }
      ],
      "name": "tokenUriResolverOf",
      "outputs": [
        {
          "internalType": "contract IJBTokenUriResolver",
          "name": "",
          "type": "address"
        }
      ],
      "stateMutability": "view",
      "type": "function"
    },
    {
      "inputs": [
        {
          "internalType": "address",
          "name": "_nft",
          "type": "address"
        }
      ],
      "name": "totalRedemptionWeight",
      "outputs": [
        {
          "internalType": "uint256",
          "name": "weight",
          "type": "uint256"
        }
      ],
      "stateMutability": "view",
      "type": "function"
    },
    {
      "inputs": [
        {
          "internalType": "address",
          "name": "_nft",
          "type": "address"
        }
      ],
      "name": "totalSupply",
      "outputs": [
        {
          "internalType": "uint256",
          "name": "supply",
          "type": "uint256"
        }
      ],
      "stateMutability": "view",
      "type": "function"
    },
    {
      "inputs": [
        {
          "internalType": "address",
          "name": "_nft",
          "type": "address"
        },
        {
          "internalType": "address",
          "name": "_account",
          "type": "address"
        }
      ],
      "name": "votingUnitsOf",
      "outputs": [
        {
          "internalType": "uint256",
          "name": "units",
          "type": "uint256"
        }
      ],
      "stateMutability": "view",
      "type": "function"
    }
  ],
  "bytecode": {
    "object": "0x608060405234801561001057600080fd5b5061357c806100206000396000f3fe608060405234801561001057600080fd5b50600436106102325760003560e01c80638cec7d3911610130578063c8df1710116100b8578063eaa19ab31161007c578063eaa19ab314610715578063eadd8b3714610736578063f1bea54f14610749578063f682eeaf14610769578063f7888aec1461077c57600080fd5b8063c8df17101461068c578063cb827e321461069f578063d67b78fd146106b2578063d84a72c0146106c5578063e4dc2aa41461070257600080fd5b8063aab0cd80116100ff578063aab0cd80146105fb578063b67cb0471461061b578063baa7e80e1461062e578063bd51923c1461064e578063c2c55f941461067957600080fd5b80638cec7d39146105425780638ed6c0101461058b578063911c80b5146105bf57806393355578146105e857600080fd5b806335314b92116101be5780636262bcb2116101825780636262bcb2146104015780636825bb80146104145780637473c9a21461043f578063845104de1461045f57806386bc2be31461052f57600080fd5b806335314b921461036757806337f446521461037a5780633eb2556a146103ab57806342f9914b146103cb5780635f646611146103de57600080fd5b806317161f7d1161020557806317161f7d146102c657806320512ba1146103035780632ae5e492146103165780632b7e6ef0146103295780632e4d0ea81461035457600080fd5b8063086bb19a146102375780630fab09471461024c578063136e651c14610292578063144cc2d4146102a5575b600080fd5b61024a610245366004612b0e565b61078f565b005b61027561025a366004612b0e565b600d602052600090815260409020546001600160a01b031681565b6040516001600160a01b0390911681526020015b60405180910390f35b6102756102a0366004612b2b565b610922565b6102b86102b3366004612ba3565b61097b565b604051908152602001610289565b61024a6102d4366004612b0e565b336000908152600a6020526040902080546001600160a01b0319166001600160a01b0392909216919091179055565b61024a610311366004612bf8565b6109f9565b6102b8610324366004612b0e565b610a98565b6102b8610337366004612b2b565b600960209081526000928352604080842090915290825290205481565b6102b8610362366004612c3a565b610bf0565b6102b8610375366004612b2b565b610c75565b6102b8610388366004612c3a565b600760209081526000938452604080852082529284528284209052825290205481565b6103be6103b9366004612c7b565b610d39565b6040516102899190612d31565b6102b86103d9366004612d80565b6110ba565b6103f16103ec366004612b2b565b6110ca565b6040519015158152602001610289565b61024a61040f366004612d99565b611102565b6102b8610422366004612b2b565b600860209081526000928352604080842090915290825290205481565b61045261044d366004612b2b565b611121565b6040516102899190612e0b565b6104f461046d366004612b0e565b604080516080810182526000808252602082018190529181018290526060810191909152506001600160a01b03166000908152600360209081526040918290208251608081018452905460ff808216151583526101008204811615159383019390935262010000810483161515938201939093526301000000909204161515606082015290565b604051610289919081511515815260208083015115159082015260408083015115159082015260609182015115159181019190915260800190565b61024a61053d366004612bf8565b611363565b61024a610550366004612e1a565b336000908152600b602090815260408083209483529390529190912080546001600160a01b0319166001600160a01b03909216919091179055565b610275610599366004612b2b565b600b6020908152600092835260408084209091529082529020546001600160a01b031681565b6102756105cd366004612b0e565b600a602052600090815260409020546001600160a01b031681565b6102b86105f6366004612e4a565b611427565b61060e610609366004612b0e565b6114d7565b6040516102899190612e78565b610452610629366004612b2b565b611571565b61064161063c366004612ec6565b6117d8565b6040516102899190612f23565b6102b861065c366004612b2b565b600f60209081526000928352604080842090915290825290205481565b61024a610687366004612f36565b611a01565b6102b861069a366004612b2b565b611a94565b61024a6106ad366004612f78565b611acd565b61024a6106c0366004612d99565b611ae8565b61024a6106d3366004612b0e565b336000908152600d6020526040902080546001600160a01b0319166001600160a01b0392909216919091179055565b6102b8610710366004612b0e565b611b02565b610728610723366004612fa9565b611b8a565b604051610289929190613008565b61064161074436600461302a565b611ee1565b6102b8610757366004612b0e565b60066020526000908152604090205481565b61060e610777366004612b0e565b612705565b6102b861078a366004612e4a565b61271e565b600061079a8261278a565b905060006107a7836127cb565b6001600160a01b03841660009081526004602052604081209192509081906107cf90846127fd565b90505b82156108dd576107e28184612843565b1561080c576001600160a01b038516600090815260046020526040902061080990846127fd565b90505b610816818461285d565b6108cb576108258260016130a4565b831461087d576001600160a01b0385166000908152602081815260408083208584529091529020548314610878576001600160a01b03851660009081526020818152604080832085845290915290208390555b6108c7565b6001600160a01b038516600090815260208181526040808320858452909152902054156108c7576001600160a01b0385166000908152602081815260408083208584529091528120555b8291505b6108d685848661287c565b92506107d2565b6040513381526001600160a01b038616907f4a0f854ce3c180d56f3e9eb47eb064c595bf3de0ab9af45425291e5b1bb733a89060200160405180910390a25050505050565b6001600160a01b0380831660009081526001602090815260408083208584529091528120549091168015610957579050610975565b50506001600160a01b038083166000908152600a6020526040902054165b92915050565b600081815b818110156109f0576001600160a01b0386166000908152600260205260408120906109c28787858181106109b6576109b66130b7565b905060200201356110ba565b81526020810191909152604001600020546109e6906001600160501b0316846130a4565b9250600101610980565b50509392505050565b806000805b82811015610a9157848482818110610a1857610a186130b7565b336000908152600260209081526040808320938202959095013580835292905292909220549193505042600160501b90910465ffffffffffff1610610a7057604051636b73d51160e11b815260040160405180910390fd5b336000908152600460205260409020610a8990836128c7565b6001016109fe565b5050505050565b6001600160a01b038116600090815260066020526040812054610ab9612a3d565b60005b82811015610be8576001600160a01b0385166000908152600260209081526040808320600180860185529083529281902081516101008101835290546001600160501b038116825265ffffffffffff600160501b8204169382019390935264ffffffffff600160801b8404811692820192909252600160a81b8304909116606082015261ffff600160d01b830481166080830152600160e01b83041660a082015260ff600160f01b83048116151560c0830152600160f81b909204909116151560e08201529250610b9a908690610b949084906130a4565b84612900565b82604001518360600151610bae91906130cd565b64ffffffffff16610bbf91906130a4565b8251610bd491906001600160501b03166130f2565b610bde90856130a4565b9350600101610abc565b505050919050565b6001600160a01b0380841660009081526007602090815260408083209386168352928152828220848352905290812054808203610c31576000915050610c6e565b6001600160a01b0385166000908152600260209081526040808320868452909152902054610c6a90600160d01b900461ffff16826130f2565b9150505b9392505050565b6001600160a01b0382166000908152600260209081526040808320848452825280832081516101008101835290546001600160501b038116825265ffffffffffff600160501b8204169382019390935264ffffffffff600160801b8404811692820192909252600160a81b8304909116606082015261ffff600160d01b830481166080830152600160e01b83041660a082015260ff600160f01b83048116151560c0830152600160f81b909204909116151560e0820152610c6e9084908490612900565b60606000610d468561278a565b90508267ffffffffffffffff811115610d6157610d61613109565b604051908082528060200260200182016040528015610d9a57816020015b610d87612a81565b815260200190600190039081610d7f5790505b50915060008085600003610db657610db1876127cb565b610db8565b855b9050610dc2612a3d565b6001600160a01b0388166000908152600460205260408120610de490846127fd565b90505b8215801590610df557508684105b156110a357610e048184612843565b15610e2e576001600160a01b0389166000908152600460205260409020610e2b90846127fd565b90505b610e38818461285d565b61109157600260008a6001600160a01b03166001600160a01b031681526020019081526020016000206000848152602001908152602001600020604051806101000160405290816000820160009054906101000a90046001600160501b03166001600160501b03166001600160501b0316815260200160008201600a9054906101000a900465ffffffffffff1665ffffffffffff1665ffffffffffff1681526020016000820160109054906101000a900464ffffffffff1664ffffffffff1664ffffffffff1681526020016000820160159054906101000a900464ffffffffff1664ffffffffff1664ffffffffff16815260200160008201601a9054906101000a900461ffff1661ffff1661ffff16815260200160008201601c9054906101000a900461ffff1661ffff1661ffff16815260200160008201601e9054906101000a900460ff1615151515815260200160008201601f9054906101000a900460ff161515151581525050915060405180610160016040528084815260200183600001516001600160501b03168152602001836020015165ffffffffffff168152602001836040015164ffffffffff168152602001836060015164ffffffffff168152602001836080015161ffff1681526020018360a0015161ffff1681526020016110228b86610922565b6001600160a01b0390811682528b166000908152600f60209081526040808320888452825291829020549083015260c085015115159082015260e0840151151560609091015286856110738161311f565b965081518110611085576110856130b7565b60200260200101819052505b61109c89848761287c565b9250610de7565b8684146110ae578386525b50505050509392505050565b6000610975633b9aca008361314e565b6001600160a01b038216600090815260046020526040812081906110ee90846127fd565b90506110fa818461285d565b949350505050565b336000908152600c6020526040902061111c8284836131e4565b505050565b611129612a81565b600060026000856001600160a01b03166001600160a01b031681526020019081526020016000206000848152602001908152602001600020604051806101000160405290816000820160009054906101000a90046001600160501b03166001600160501b03166001600160501b0316815260200160008201600a9054906101000a900465ffffffffffff1665ffffffffffff1665ffffffffffff1681526020016000820160109054906101000a900464ffffffffff1664ffffffffff1664ffffffffff1681526020016000820160159054906101000a900464ffffffffff1664ffffffffff1664ffffffffff16815260200160008201601a9054906101000a900461ffff1661ffff1661ffff16815260200160008201601c9054906101000a900461ffff1661ffff1661ffff16815260200160008201601e9054906101000a900460ff1615151515815260200160008201601f9054906101000a900460ff161515151581525050905060405180610160016040528084815260200182600001516001600160501b03168152602001826020015165ffffffffffff168152602001826040015164ffffffffff168152602001826060015164ffffffffff168152602001826080015161ffff1681526020018260a0015161ffff1681526020016113118686610922565b6001600160a01b03908116825286166000908152600f60209081526040808320888452825291829020549083015260c084015115159082015260e0909201511515606090920191909152905092915050565b806000805b82811015610a9157848482818110611382576113826130b7565b9050602002013591506000611396836110ba565b33600090815260096020908152604080832084845290915281208054929350906113bf8361311f565b909155505033600090815260026020908152604080832084845290915290208054600160801b900464ffffffffff169060106113fa836132a4565b91906101000a81548164ffffffffff021916908364ffffffffff1602179055505081600101915050611368565b6001600160a01b03821660009081526006602052604081205481815b80156114ce576001600160a01b038087166000908152600760209081526040808320938916835292815282822084835290522054915081156114c5576001600160a01b03861660009081526002602090815260408083208484529091529020546114b890600160d01b900461ffff16836130f2565b6114c290856130a4565b93505b60001901611443565b50505092915050565b600e60205260009081526040902080546114f090613162565b80601f016020809104026020016040519081016040528092919081815260200182805461151c90613162565b80156115695780601f1061153e57610100808354040283529160200191611569565b820191906000526020600020905b81548152906001019060200180831161154c57829003601f168201915b505050505081565b611579612a81565b6000611584836110ba565b9050600060026000866001600160a01b03166001600160a01b031681526020019081526020016000206000838152602001908152602001600020604051806101000160405290816000820160009054906101000a90046001600160501b03166001600160501b03166001600160501b0316815260200160008201600a9054906101000a900465ffffffffffff1665ffffffffffff1665ffffffffffff1681526020016000820160109054906101000a900464ffffffffff1664ffffffffff1664ffffffffff1681526020016000820160159054906101000a900464ffffffffff1664ffffffffff1664ffffffffff16815260200160008201601a9054906101000a900461ffff1661ffff1661ffff16815260200160008201601c9054906101000a900461ffff1661ffff1661ffff16815260200160008201601e9054906101000a900460ff1615151515815260200160008201601f9054906101000a900460ff161515151581525050905060405180610160016040528083815260200182600001516001600160501b03168152602001826020015165ffffffffffff168152602001826040015164ffffffffff168152602001826060015164ffffffffff168152602001826080015161ffff1681526020018260a0015161ffff16815260200161176e8785610922565b6001600160a01b03168152602001600f6000886001600160a01b03166001600160a01b0316815260200190815260200160002060008581526020019081526020016000205481526020018260c00151151581526020018260e0015115158152509250505092915050565b336000818152600260209081526040808320868452825280832081516101008101835281546001600160501b038116825265ffffffffffff600160501b8204169482019490945264ffffffffff600160801b8504811693820193909352600160a81b840490921660608381019190915261ffff600160d01b850481166080850152600160e01b85041660a084015260ff600160f01b85048116151560c0850152600160f81b909404909316151560e0830152919391929161189a918790612900565b9050808411156118bd5760405163226f999960e11b815260040160405180910390fd5b336000908152600860209081526040808320888452909152812080548692906118e79084906130a4565b9091555084905067ffffffffffffffff81111561190657611906613109565b60405190808252806020026020018201604052801561192f578160200160208202803683370190505b503360009081526009602090815260408083208984529091528120549194505b858110156119f7576119d2878386600001601081819054906101000a900464ffffffffff1661197d906132c8565b91906101000a81548164ffffffffff021916908364ffffffffff16021790558760000160159054906101000a900464ffffffffff166119bc91906130cd565b64ffffffffff166119cd91906130a4565b612a22565b8582815181106119e4576119e46130b7565b602090810291909101015260010161194f565b5050505092915050565b6001600160a01b03821615611a4e573360009081526007602090815260408083206001600160a01b0386168452825280832086845290915281208054909190611a49906132e9565b909155505b6001600160a01b0381161561111c573360009081526007602090815260408083206001600160a01b03851684528252808320868452909152902080546001019055505050565b6001600160a01b0382166000908152600f6020526040812081611ab6846110ba565b815260200190815260200160002054905092915050565b336000908152600360205260409020819061111c828261330d565b336000908152600e6020526040902061111c8284836131e4565b6001600160a01b0381166000908152600660205260408120548190805b8015610be8576001600160a01b038516600090815260026020908152604080832084845290915290208054909350611b6e9064ffffffffff600160801b8204811691600160a81b9004166130cd565b611b7f9064ffffffffff16856130a4565b935060001901611b1f565b606084836000808267ffffffffffffffff811115611baa57611baa613109565b604051908082528060200260200182016040528015611bd3578160200160208202803683370190505b5094506000611c1c89896000818110611bee57611bee6130b7565b9050602002016020810190611c0391906133bc565b3360009081526004602052604090209061ffff166127fd565b905060005b84811015611ed357898982818110611c3b57611c3b6130b7565b9050602002016020810190611c5091906133bc565b61ffff169250611c608284612843565b15611c8157336000908152600460205260409020611c7e90846127fd565b91505b611c8b828461285d565b15611ca95760405163d32cb5c160e01b815260040160405180910390fd5b33600090815260026020908152604080832086845290915290209350878015611cdb57508354600160f01b900460ff16155b15611cf957604051632f792d3960e11b815260040160405180910390fd5b8354600160a81b900464ffffffffff16600003611d2957604051630de5859f60e01b815260040160405180910390fd5b83546001600160501b0316861015611d5457604051632cd294cf60e01b815260040160405180910390fd5b604080516101008101825285546001600160501b038116825265ffffffffffff600160501b820416602083015264ffffffffff600160801b8204811693830193909352600160a81b8104909216606082015261ffff600160d01b830481166080830152600160e01b83041660a082015260ff600160f01b83048116151560c0830152600160f81b909204909116151560e0820152611df59033908590612900565b8454611e0f9190600160801b900464ffffffffff166133d7565b600003611e2f5760405163985a45d960e01b815260040160405180910390fd5b336000908152600960209081526040808320868452909152902054845460001964ffffffffff600160801b808404821692830182160264ffffffffff60801b1990931692909217808855611e97938793600160a81b9092048216929092036001011601612a22565b878281518110611ea957611ea96130b7565b60209081029190910101528354611ec9906001600160501b0316876133d7565b9550600101611c21565b505050505094509492505050565b33600090815260066020526040902054606090829061ffff611f0383836130a4565b1115611f2257604051631bc68c8b60e11b815260040160405180910390fd5b6000611f2d3361278a565b90508267ffffffffffffffff811115611f4857611f48613109565b604051908082528060200260200182016040528015611f71578160200160208202803683370190505b50935060008215611f8a57611f85336127cb565b611f8d565b60005b6040805161014081018252600080825260208201819052918101829052606081018290526080810182905260a0810182905260c0810182905260e0810182905261010081018290526101208101829052919250903360009081526003602090815260408083208151608081018352905460ff80821615158352610100820481161515948301949094526201000081048416151592820192909252630100000090910490911615156060820152905b878110156126dc578a8a82818110612055576120556130b7565b9050610140020180360381019061206c9190613456565b925061207d6001633b9aca006133d7565b836040015164ffffffffff1611156120a8576040516349016ea360e01b815260040160405180910390fd5b80158015906120fe57508a8a6120bf6001846133d7565b8181106120ce576120ce6130b7565b6120e5926020610140909202019081019150613517565b6001600160501b031683600001516001600160501b0316105b1561211c576040516325ec4a9160e21b815260040160405180910390fd5b816020015180156121345750606083015161ffff1615155b1561215257604051630189200360e11b815260040160405180910390fd5b81518061216057508260e001515b80156121735750608083015161ffff1615155b156121915760405163a75b1cd560e01b815260040160405180910390fd5b816040015180156121a357508260e001515b156121c1576040516330ec637f60e01b815260040160405180910390fd5b826040015164ffffffffff166000036121ed57604051631e0a863160e31b815260040160405180910390fd5b60006121f982896130a4565b6122049060016130a4565b905060405180610100016040528085600001516001600160501b03168152602001856020015165ffffffffffff168152602001856040015164ffffffffff168152602001856040015164ffffffffff168152602001856060015161ffff168152602001856080015161ffff1681526020018560e0015115158152602001856101200151151581525060026000336001600160a01b03166001600160a01b03168152602001908152602001600020600083815260200190815260200160002060008201518160000160006101000a8154816001600160501b0302191690836001600160501b03160217905550602082015181600001600a6101000a81548165ffffffffffff021916908365ffffffffffff16021790555060408201518160000160106101000a81548164ffffffffff021916908364ffffffffff16021790555060608201518160000160156101000a81548164ffffffffff021916908364ffffffffff160217905550608082015181600001601a6101000a81548161ffff021916908361ffff16021790555060a082015181600001601c6101000a81548161ffff021916908361ffff16021790555060c082015181600001601e6101000a81548160ff02191690831515021790555060e082015181600001601f6101000a81548160ff02191690831515021790555090505060006001600160a01b03168460a001516001600160a01b03161461249157836101000151156124545760a0840151336000908152600a6020526040902080546001600160a01b0319166001600160a01b03909216919091179055612491565b60a0840151336000908152600160209081526040808320858452909152902080546001600160a01b0319166001600160a01b039092169190911790555b60c0840151156124bc5760c0840151336000908152600f602090815260408083208584529091529020555b85156126b5573360009081526004602052604081208791906124de90836127fd565b905060005b82156126b1576124f38284612843565b156125145733600090815260046020526040902061251190846127fd565b91505b61251f33848c61287c565b33600090815260026020908152604080832087845290915290205488519192506001600160501b03908116911610156126375761255d8460016130a4565b831461257f573360009081526020818152604080832087845290915290208390555b61258a60018d6133d7565b851480156125a75750336000908152600560205260409020548a14155b156125bf573360009081526005602052604090208a90555b6125ca6001856133d7565b881415806125ef5750336000908152602081815260408083208b845290915290205415155b15612628576125ff6001856133d7565b881461260b578361260e565b60005b336000908152602081815260408083208c84529091529020555b829850839750600092506124e3565b80158061264357508a81115b156126a8576126538360016130a4565b8414612675573360009081526020818152604080832086845290915290208490555b336000908152600560205260408120549499508994909350156126a357336000908152600560205260408120555b6124e3565b919650816124e3565b5050505b808a83815181106126c8576126c86130b7565b60209081029190910101525060010161203b565b506126e787876130a4565b33600090815260066020526040902055509598975050505050505050565b600c60205260009081526040902080546114f090613162565b6001600160a01b038216600090815260066020526040812054805b8015612782576001600160a01b03808616600090815260076020908152604080832093881683529281528282208483529052205461277790846130a4565b925060001901612739565b505092915050565b6001600160a01b038116600090815260056020526040812054908190036127c657506001600160a01b0381166000908152600660205260409020545b919050565b6001600160a01b038116600090815260208181526040808320838052909152812054908190036127c657506001919050565b6040805180820190915260008082526020820152600061281d8360081c90565b604080518082018252600083815260209788529190912054815294850152509192915050565b600082602001516128548360081c90565b14159392505050565b600061286b61010083613532565b83516001911c811614905092915050565b600081830361288d57506000610c6e565b6001600160a01b03841660009081526020818152604080832086845290915290205480156128bc579050610c6e565b610c6a8460016130a4565b60006128d38260081c90565b90506128e161010083613532565b6000918252602093909352604090208054600190931b90921790915550565b60008160a0015161ffff166000148061292e5750816040015164ffffffffff16826060015164ffffffffff16145b1561293b57506000610c6e565b6001600160a01b0384166000908152600860209081526040808320868452909152908190205490830151606084015164ffffffffff91821691612980918491166133d7565b0361298f576000915050610c6e565b600081846040015185606001516129a691906130cd565b64ffffffffff166129b791906133d7565b905060008460a0015161ffff16826129cf919061314e565b905060008560a0015161ffff16836129e79190613532565b11156129f9576129f68161311f565b90505b80831115612a0d5760009350505050610c6e565b612a1783826133d7565b979650505050505050565b600081612a33633b9aca00856130f2565b610c6e91906130a4565b6040805161010081018252600080825260208201819052918101829052606081018290526080810182905260a0810182905260c0810182905260e081019190915290565b6040518061016001604052806000815260200160008152602001600081526020016000815260200160008152602001600081526020016000815260200160006001600160a01b03168152602001600080191681526020016000151581526020016000151581525090565b6001600160a01b0381168114612b0057600080fd5b50565b80356127c681612aeb565b600060208284031215612b2057600080fd5b8135610c6e81612aeb565b60008060408385031215612b3e57600080fd5b8235612b4981612aeb565b946020939093013593505050565b60008083601f840112612b6957600080fd5b50813567ffffffffffffffff811115612b8157600080fd5b6020830191508360208260051b8501011115612b9c57600080fd5b9250929050565b600080600060408486031215612bb857600080fd5b8335612bc381612aeb565b9250602084013567ffffffffffffffff811115612bdf57600080fd5b612beb86828701612b57565b9497909650939450505050565b60008060208385031215612c0b57600080fd5b823567ffffffffffffffff811115612c2257600080fd5b612c2e85828601612b57565b90969095509350505050565b600080600060608486031215612c4f57600080fd5b8335612c5a81612aeb565b92506020840135612c6a81612aeb565b929592945050506040919091013590565b600080600060608486031215612c9057600080fd5b8335612c9b81612aeb565b95602085013595506040909401359392505050565b805182526020810151602083015260408101516040830152606081015160608301526080810151608083015260a081015160a083015260c081015160c083015260e0810151612d0a60e08401826001600160a01b03169052565b50610100818101519083015261012080820151151590830152610140908101511515910152565b6020808252825182820181905260009190848201906040850190845b81811015612d7457612d60838551612cb0565b928401926101609290920191600101612d4d565b50909695505050505050565b600060208284031215612d9257600080fd5b5035919050565b60008060208385031215612dac57600080fd5b823567ffffffffffffffff80821115612dc457600080fd5b818501915085601f830112612dd857600080fd5b813581811115612de757600080fd5b866020828501011115612df957600080fd5b60209290920196919550909350505050565b61016081016109758284612cb0565b60008060408385031215612e2d57600080fd5b823591506020830135612e3f81612aeb565b809150509250929050565b60008060408385031215612e5d57600080fd5b8235612e6881612aeb565b91506020830135612e3f81612aeb565b600060208083528351808285015260005b81811015612ea557858101830151858201604001528201612e89565b506000604082860101526040601f19601f8301168501019250505092915050565b60008060408385031215612ed957600080fd5b50508035926020909101359150565b600081518084526020808501945080840160005b83811015612f1857815187529582019590820190600101612efc565b509495945050505050565b602081526000610c6e6020830184612ee8565b600080600060608486031215612f4b57600080fd5b833592506020840135612f5d81612aeb565b91506040840135612f6d81612aeb565b809150509250925092565b600060808284031215612f8a57600080fd5b50919050565b8015158114612b0057600080fd5b80356127c681612f90565b60008060008060608587031215612fbf57600080fd5b84359350602085013567ffffffffffffffff811115612fdd57600080fd5b612fe987828801612b57565b9094509250506040850135612ffd81612f90565b939692955090935050565b60408152600061301b6040830185612ee8565b90508260208301529392505050565b6000806020838503121561303d57600080fd5b823567ffffffffffffffff8082111561305557600080fd5b818501915085601f83011261306957600080fd5b81358181111561307857600080fd5b86602061014083028501011115612df957600080fd5b634e487b7160e01b600052601160045260246000fd5b808201808211156109755761097561308e565b634e487b7160e01b600052603260045260246000fd5b64ffffffffff8281168282160390808211156130eb576130eb61308e565b5092915050565b80820281158282048414176109755761097561308e565b634e487b7160e01b600052604160045260246000fd5b6000600182016131315761313161308e565b5060010190565b634e487b7160e01b600052601260045260246000fd5b60008261315d5761315d613138565b500490565b600181811c9082168061317657607f821691505b602082108103612f8a57634e487b7160e01b600052602260045260246000fd5b601f82111561111c57600081815260208120601f850160051c810160208610156131bd5750805b601f850160051c820191505b818110156131dc578281556001016131c9565b505050505050565b67ffffffffffffffff8311156131fc576131fc613109565b6132108361320a8354613162565b83613196565b6000601f841160018114613244576000851561322c5750838201355b600019600387901b1c1916600186901b178355610a91565b600083815260209020601f19861690835b828110156132755786850135825560209485019460019092019101613255565b50868210156132925760001960f88860031b161c19848701351681555b505060018560011b0183555050505050565b600064ffffffffff8083168181036132be576132be61308e565b6001019392505050565b600064ffffffffff8216806132df576132df61308e565b6000190192915050565b6000816132f8576132f861308e565b506000190190565b6000813561097581612f90565b813561331881612f90565b815460ff19811691151560ff169182178355602084013561333881612f90565b61ff0090151560081b1661ffff198216831781178455604085013561335c81612f90565b62ff000081151560101b168462ffffff198516178317178555505050506133a661338860608401613300565b82805463ff000000191691151560181b63ff00000016919091179055565b5050565b803561ffff811681146127c657600080fd5b6000602082840312156133ce57600080fd5b610c6e826133aa565b818103818111156109755761097561308e565b604051610140810167ffffffffffffffff8111828210171561340e5761340e613109565b60405290565b80356001600160501b03811681146127c657600080fd5b803565ffffffffffff811681146127c657600080fd5b803564ffffffffff811681146127c657600080fd5b6000610140828403121561346957600080fd5b6134716133ea565b61347a83613414565b81526134886020840161342b565b602082015261349960408401613441565b60408201526134aa606084016133aa565b60608201526134bb608084016133aa565b60808201526134cc60a08401612b03565b60a082015260c083013560c08201526134e760e08401612f9e565b60e08201526101006134fa818501612f9e565b9082015261012061350c848201612f9e565b908201529392505050565b60006020828403121561352957600080fd5b610c6e82613414565b60008261354157613541613138565b50069056fea2646970667358221220ced0ae8a6a2e8eba14e4aefa6a81fdaca077c843d1531b8c2008396e3592024164736f6c63430008110033",
    "linkReferences": {}
  },
  "methodIdentifiers": {
    "balanceOf(address,address)": "f7888aec",
    "baseUriOf(address)": "f682eeaf",
    "cleanTiers(address)": "086bb19a",
    "contractUriOf(address)": "aab0cd80",
    "defaultReservedTokenBeneficiaryOf(address)": "911c80b5",
    "encodedIPFSUriOf(address,uint256)": "bd51923c",
    "encodedTierIPFSUriOf(address,uint256)": "c8df1710",
    "firstOwnerOf(address,uint256)": "8ed6c010",
    "flagsOf(address)": "845104de",
    "isTierRemoved(address,uint256)": "5f646611",
    "maxTierIdOf(address)": "f1bea54f",
    "numberOfBurnedFor(address,uint256)": "2b7e6ef0",
    "numberOfReservedTokensOutstandingFor(address,uint256)": "35314b92",
    "numberOfReservesMintedFor(address,uint256)": "6825bb80",
    "recordAddTiers((uint80,uint48,uint40,uint16,uint16,address,bytes32,bool,bool,bool)[])": "eadd8b37",
    "recordBurn(uint256[])": "86bc2be3",
    "recordFlags((bool,bool,bool,bool))": "cb827e32",
    "recordMint(uint256,uint16[],bool)": "eaa19ab3",
    "recordMintReservesFor(uint256,uint256)": "baa7e80e",
    "recordRemoveTierIds(uint256[])": "20512ba1",
    "recordSetBaseUri(string)": "6262bcb2",
    "recordSetContractUri(string)": "d67b78fd",
    "recordSetDefaultReservedTokenBeneficiary(address)": "17161f7d",
    "recordSetFirstOwnerOf(uint256,address)": "8cec7d39",
    "recordSetTokenUriResolver(address)": "d84a72c0",
    "recordTransferForTier(uint256,address,address)": "c2c55f94",
    "redemptionWeightOf(address,uint256[])": "144cc2d4",
    "reservedTokenBeneficiaryOf(address,uint256)": "136e651c",
    "tier(address,uint256)": "7473c9a2",
    "tierBalanceOf(address,address,uint256)": "37f44652",
    "tierIdOfToken(uint256)": "42f9914b",
    "tierOfTokenId(address,uint256)": "b67cb047",
    "tierVotingUnitsOf(address,address,uint256)": "2e4d0ea8",
    "tiers(address,uint256,uint256)": "3eb2556a",
    "tokenUriResolverOf(address)": "0fab0947",
    "totalRedemptionWeight(address)": "2ae5e492",
    "totalSupply(address)": "e4dc2aa4",
    "votingUnitsOf(address,address)": "93355578"
  },
  "id": 5
}