{
  "abi": [
    {
      "inputs": [],
      "name": "CANT_MINT_MANUALLY",
      "type": "error"
    },
    {
      "inputs": [],
      "name": "INSUFFICIENT_AMOUNT",
      "type": "error"
    },
    {
      "inputs": [],
      "name": "INSUFFICIENT_RESERVES",
      "type": "error"
    },
    {
      "inputs": [],
      "name": "INVALID_CATEGORY_SORT_ORDER",
      "type": "error"
    },
    {
      "inputs": [],
      "name": "INVALID_LOCKED_UNTIL",
      "type": "error"
    },
    {
      "inputs": [],
      "name": "INVALID_QUANTITY",
      "type": "error"
    },
    {
      "inputs": [],
      "name": "INVALID_ROYALTY_RATE",
      "type": "error"
    },
    {
      "inputs": [],
      "name": "INVALID_TIER",
      "type": "error"
    },
    {
      "inputs": [],
      "name": "MANUAL_MINTING_NOT_ALLOWED",
      "type": "error"
    },
    {
      "inputs": [],
      "name": "MAX_TIERS_EXCEEDED",
      "type": "error"
    },
    {
      "inputs": [],
      "name": "NO_QUANTITY",
      "type": "error"
    },
    {
      "inputs": [],
      "name": "OUT",
      "type": "error"
    },
    {
      "inputs": [
        {
          "internalType": "uint256",
          "name": "prod1",
          "type": "uint256"
        },
        {
          "internalType": "uint256",
          "name": "denominator",
          "type": "uint256"
        }
      ],
      "name": "PRBMath__MulDivOverflow",
      "type": "error"
    },
    {
      "inputs": [],
      "name": "PRICING_RESOLVER_CHANGES_LOCKED",
      "type": "error"
    },
    {
      "inputs": [],
      "name": "RESERVED_RATE_NOT_ALLOWED",
      "type": "error"
    },
    {
      "inputs": [],
      "name": "TIER_LOCKED",
      "type": "error"
    },
    {
      "inputs": [],
      "name": "TIER_REMOVED",
      "type": "error"
    },
    {
      "inputs": [],
      "name": "VOTING_UNITS_NOT_ALLOWED",
      "type": "error"
    },
    {
      "anonymous": false,
      "inputs": [
        {
          "indexed": true,
          "internalType": "address",
          "name": "nft",
          "type": "address"
        },
        {
          "indexed": false,
          "internalType": "address",
          "name": "caller",
          "type": "address"
        }
      ],
      "name": "CleanTiers",
      "type": "event"
    },
    {
      "inputs": [],
      "name": "MAX_ROYALTY_RATE",
      "outputs": [
        {
          "internalType": "uint256",
          "name": "",
          "type": "uint256"
        }
      ],
      "stateMutability": "view",
      "type": "function"
    },
    {
      "inputs": [
        {
          "internalType": "address",
          "name": "_nft",
          "type": "address"
        },
        {
          "internalType": "address",
          "name": "_owner",
          "type": "address"
        }
      ],
      "name": "balanceOf",
      "outputs": [
        {
          "internalType": "uint256",
          "name": "balance",
          "type": "uint256"
        }
      ],
      "stateMutability": "view",
      "type": "function"
    },
    {
      "inputs": [
        {
          "internalType": "address",
          "name": "",
          "type": "address"
        }
      ],
      "name": "baseUriOf",
      "outputs": [
        {
          "internalType": "string",
          "name": "",
          "type": "string"
        }
      ],
      "stateMutability": "view",
      "type": "function"
    },
    {
      "inputs": [
        {
          "internalType": "address",
          "name": "_nft",
          "type": "address"
        }
      ],
      "name": "cleanTiers",
      "outputs": [],
      "stateMutability": "nonpayable",
      "type": "function"
    },
    {
      "inputs": [
        {
          "internalType": "address",
          "name": "",
          "type": "address"
        }
      ],
      "name": "contractUriOf",
      "outputs": [
        {
          "internalType": "string",
          "name": "",
          "type": "string"
        }
      ],
      "stateMutability": "view",
      "type": "function"
    },
    {
      "inputs": [
        {
          "internalType": "address",
          "name": "",
          "type": "address"
        }
      ],
      "name": "defaultReservedTokenBeneficiaryOf",
      "outputs": [
        {
          "internalType": "address",
          "name": "",
          "type": "address"
        }
      ],
      "stateMutability": "view",
      "type": "function"
    },
    {
      "inputs": [
        {
          "internalType": "address",
          "name": "",
          "type": "address"
        }
      ],
      "name": "defaultRoyaltyBeneficiaryOf",
      "outputs": [
        {
          "internalType": "address",
          "name": "",
          "type": "address"
        }
      ],
      "stateMutability": "view",
      "type": "function"
    },
    {
      "inputs": [
        {
          "internalType": "address",
          "name": "",
          "type": "address"
        },
        {
          "internalType": "uint256",
          "name": "",
          "type": "uint256"
        }
      ],
      "name": "encodedIPFSUriOf",
      "outputs": [
        {
          "internalType": "bytes32",
          "name": "",
          "type": "bytes32"
        }
      ],
      "stateMutability": "view",
      "type": "function"
    },
    {
      "inputs": [
        {
          "internalType": "address",
          "name": "_nft",
          "type": "address"
        },
        {
          "internalType": "uint256",
          "name": "_tokenId",
          "type": "uint256"
        }
      ],
      "name": "encodedTierIPFSUriOf",
      "outputs": [
        {
          "internalType": "bytes32",
          "name": "",
          "type": "bytes32"
        }
      ],
      "stateMutability": "view",
      "type": "function"
    },
    {
      "inputs": [
        {
          "internalType": "address",
          "name": "",
          "type": "address"
        },
        {
          "internalType": "uint256",
          "name": "",
          "type": "uint256"
        }
      ],
      "name": "firstOwnerOf",
      "outputs": [
        {
          "internalType": "address",
          "name": "",
          "type": "address"
        }
      ],
      "stateMutability": "view",
      "type": "function"
    },
    {
      "inputs": [
        {
          "internalType": "address",
          "name": "_nft",
          "type": "address"
        }
      ],
      "name": "flagsOf",
      "outputs": [
        {
          "components": [
            {
              "internalType": "bool",
              "name": "lockReservedTokenChanges",
              "type": "bool"
            },
            {
              "internalType": "bool",
              "name": "lockVotingUnitChanges",
              "type": "bool"
            },
            {
              "internalType": "bool",
              "name": "lockManualMintingChanges",
              "type": "bool"
            },
            {
              "internalType": "bool",
              "name": "preventOverspending",
              "type": "bool"
            }
          ],
          "internalType": "struct JBTiered721Flags",
          "name": "",
          "type": "tuple"
        }
      ],
      "stateMutability": "view",
      "type": "function"
    },
    {
      "inputs": [
        {
          "internalType": "address",
          "name": "_nft",
          "type": "address"
        },
        {
          "internalType": "uint256",
          "name": "_tierId",
          "type": "uint256"
        }
      ],
      "name": "isTierRemoved",
      "outputs": [
        {
          "internalType": "bool",
          "name": "",
          "type": "bool"
        }
      ],
      "stateMutability": "view",
      "type": "function"
    },
    {
      "inputs": [
        {
          "internalType": "address",
          "name": "",
          "type": "address"
        }
      ],
      "name": "maxTierIdOf",
      "outputs": [
        {
          "internalType": "uint256",
          "name": "",
          "type": "uint256"
        }
      ],
      "stateMutability": "view",
      "type": "function"
    },
    {
      "inputs": [
        {
          "internalType": "address",
          "name": "",
          "type": "address"
        },
        {
          "internalType": "uint256",
          "name": "",
          "type": "uint256"
        }
      ],
      "name": "numberOfBurnedFor",
      "outputs": [
        {
          "internalType": "uint256",
          "name": "",
          "type": "uint256"
        }
      ],
      "stateMutability": "view",
      "type": "function"
    },
    {
      "inputs": [
        {
          "internalType": "address",
          "name": "_nft",
          "type": "address"
        },
        {
          "internalType": "uint256",
          "name": "_tierId",
          "type": "uint256"
        }
      ],
      "name": "numberOfReservedTokensOutstandingFor",
      "outputs": [
        {
          "internalType": "uint256",
          "name": "",
          "type": "uint256"
        }
      ],
      "stateMutability": "view",
      "type": "function"
    },
    {
      "inputs": [
        {
          "internalType": "address",
          "name": "",
          "type": "address"
        },
        {
          "internalType": "uint256",
          "name": "",
          "type": "uint256"
        }
      ],
      "name": "numberOfReservesMintedFor",
      "outputs": [
        {
          "internalType": "uint256",
          "name": "",
          "type": "uint256"
        }
      ],
      "stateMutability": "view",
      "type": "function"
    },
    {
      "inputs": [
        {
          "components": [
            {
              "internalType": "uint80",
              "name": "contributionFloor",
              "type": "uint80"
            },
            {
              "internalType": "uint48",
              "name": "lockedUntil",
              "type": "uint48"
            },
            {
              "internalType": "uint40",
              "name": "initialQuantity",
              "type": "uint40"
            },
            {
              "internalType": "uint16",
              "name": "votingUnits",
              "type": "uint16"
            },
            {
              "internalType": "uint16",
              "name": "reservedRate",
              "type": "uint16"
            },
            {
              "internalType": "address",
              "name": "reservedTokenBeneficiary",
              "type": "address"
            },
            {
              "internalType": "uint8",
              "name": "royaltyRate",
              "type": "uint8"
            },
            {
              "internalType": "address",
              "name": "royaltyBeneficiary",
              "type": "address"
            },
            {
              "internalType": "bytes32",
              "name": "encodedIPFSUri",
              "type": "bytes32"
            },
            {
              "internalType": "uint8",
              "name": "category",
              "type": "uint8"
            },
            {
              "internalType": "bool",
              "name": "allowManualMint",
              "type": "bool"
            },
            {
              "internalType": "bool",
              "name": "shouldUseReservedTokenBeneficiaryAsDefault",
              "type": "bool"
            },
            {
              "internalType": "bool",
              "name": "shouldUseRoyaltyBeneficiaryAsDefault",
              "type": "bool"
            },
            {
              "internalType": "bool",
              "name": "transfersPausable",
              "type": "bool"
            }
          ],
          "internalType": "struct JB721TierParams[]",
          "name": "_tiersToAdd",
          "type": "tuple[]"
        }
      ],
      "name": "recordAddTiers",
      "outputs": [
        {
          "internalType": "uint256[]",
          "name": "tierIds",
          "type": "uint256[]"
        }
      ],
      "stateMutability": "nonpayable",
      "type": "function"
    },
    {
      "inputs": [
        {
          "internalType": "uint256[]",
          "name": "_tokenIds",
          "type": "uint256[]"
        }
      ],
      "name": "recordBurn",
      "outputs": [],
      "stateMutability": "nonpayable",
      "type": "function"
    },
    {
      "inputs": [
        {
          "components": [
            {
              "internalType": "bool",
              "name": "lockReservedTokenChanges",
              "type": "bool"
            },
            {
              "internalType": "bool",
              "name": "lockVotingUnitChanges",
              "type": "bool"
            },
            {
              "internalType": "bool",
              "name": "lockManualMintingChanges",
              "type": "bool"
            },
            {
              "internalType": "bool",
              "name": "preventOverspending",
              "type": "bool"
            }
          ],
          "internalType": "struct JBTiered721Flags",
          "name": "_flags",
          "type": "tuple"
        }
      ],
      "name": "recordFlags",
      "outputs": [],
      "stateMutability": "nonpayable",
      "type": "function"
    },
    {
      "inputs": [
        {
          "internalType": "uint256",
          "name": "_amount",
          "type": "uint256"
        },
        {
          "internalType": "uint16[]",
          "name": "_tierIds",
          "type": "uint16[]"
        },
        {
          "internalType": "bool",
          "name": "_isManualMint",
          "type": "bool"
        }
      ],
      "name": "recordMint",
      "outputs": [
        {
          "internalType": "uint256[]",
          "name": "tokenIds",
          "type": "uint256[]"
        },
        {
          "internalType": "uint256",
          "name": "leftoverAmount",
          "type": "uint256"
        }
      ],
      "stateMutability": "nonpayable",
      "type": "function"
    },
    {
      "inputs": [
        {
          "internalType": "uint256",
          "name": "_tierId",
          "type": "uint256"
        },
        {
          "internalType": "uint256",
          "name": "_count",
          "type": "uint256"
        }
      ],
      "name": "recordMintReservesFor",
      "outputs": [
        {
          "internalType": "uint256[]",
          "name": "tokenIds",
          "type": "uint256[]"
        }
      ],
      "stateMutability": "nonpayable",
      "type": "function"
    },
    {
      "inputs": [
        {
          "internalType": "uint256[]",
          "name": "_tierIds",
          "type": "uint256[]"
        }
      ],
      "name": "recordRemoveTierIds",
      "outputs": [],
      "stateMutability": "nonpayable",
      "type": "function"
    },
    {
      "inputs": [
        {
          "internalType": "string",
          "name": "_uri",
          "type": "string"
        }
      ],
      "name": "recordSetBaseUri",
      "outputs": [],
      "stateMutability": "nonpayable",
      "type": "function"
    },
    {
      "inputs": [
        {
          "internalType": "string",
          "name": "_uri",
          "type": "string"
        }
      ],
      "name": "recordSetContractUri",
      "outputs": [],
      "stateMutability": "nonpayable",
      "type": "function"
    },
    {
      "inputs": [
        {
          "internalType": "address",
          "name": "_beneficiary",
          "type": "address"
        }
      ],
      "name": "recordSetDefaultReservedTokenBeneficiary",
      "outputs": [],
      "stateMutability": "nonpayable",
      "type": "function"
    },
    {
      "inputs": [
        {
          "internalType": "uint256",
          "name": "_tierId",
          "type": "uint256"
        },
        {
          "internalType": "bytes32",
          "name": "_encodedIPFSUri",
          "type": "bytes32"
        }
      ],
      "name": "recordSetEncodedIPFSUriOf",
      "outputs": [],
      "stateMutability": "nonpayable",
      "type": "function"
    },
    {
      "inputs": [
        {
          "internalType": "uint256",
          "name": "_tokenId",
          "type": "uint256"
        },
        {
          "internalType": "address",
          "name": "_owner",
          "type": "address"
        }
      ],
      "name": "recordSetFirstOwnerOf",
      "outputs": [],
      "stateMutability": "nonpayable",
      "type": "function"
    },
    {
      "inputs": [
        {
          "internalType": "contract IJBTokenUriResolver",
          "name": "_resolver",
          "type": "address"
        }
      ],
      "name": "recordSetTokenUriResolver",
      "outputs": [],
      "stateMutability": "nonpayable",
      "type": "function"
    },
    {
      "inputs": [
        {
          "internalType": "uint256",
          "name": "_tierId",
          "type": "uint256"
        },
        {
          "internalType": "address",
          "name": "_from",
          "type": "address"
        },
        {
          "internalType": "address",
          "name": "_to",
          "type": "address"
        }
      ],
      "name": "recordTransferForTier",
      "outputs": [],
      "stateMutability": "nonpayable",
      "type": "function"
    },
    {
      "inputs": [
        {
          "internalType": "address",
          "name": "_nft",
          "type": "address"
        },
        {
          "internalType": "uint256[]",
          "name": "_tokenIds",
          "type": "uint256[]"
        }
      ],
      "name": "redemptionWeightOf",
      "outputs": [
        {
          "internalType": "uint256",
          "name": "weight",
          "type": "uint256"
        }
      ],
      "stateMutability": "view",
      "type": "function"
    },
    {
      "inputs": [
        {
          "internalType": "address",
          "name": "_nft",
          "type": "address"
        },
        {
          "internalType": "uint256",
          "name": "_tierId",
          "type": "uint256"
        }
      ],
      "name": "reservedTokenBeneficiaryOf",
      "outputs": [
        {
          "internalType": "address",
          "name": "",
          "type": "address"
        }
      ],
      "stateMutability": "view",
      "type": "function"
    },
    {
      "inputs": [
        {
          "internalType": "address",
          "name": "_nft",
          "type": "address"
        },
        {
          "internalType": "uint256",
          "name": "_tokenId",
          "type": "uint256"
        },
        {
          "internalType": "uint256",
          "name": "_salePrice",
          "type": "uint256"
        }
      ],
      "name": "royaltyInfo",
      "outputs": [
        {
          "internalType": "address",
          "name": "receiver",
          "type": "address"
        },
        {
          "internalType": "uint256",
          "name": "royaltyAmount",
          "type": "uint256"
        }
      ],
      "stateMutability": "view",
      "type": "function"
    },
    {
      "inputs": [
        {
          "internalType": "address",
          "name": "_nft",
          "type": "address"
        },
        {
          "internalType": "uint256",
          "name": "_id",
          "type": "uint256"
        }
      ],
      "name": "tier",
      "outputs": [
        {
          "components": [
            {
              "internalType": "uint256",
              "name": "id",
              "type": "uint256"
            },
            {
              "internalType": "uint256",
              "name": "contributionFloor",
              "type": "uint256"
            },
            {
              "internalType": "uint256",
              "name": "lockedUntil",
              "type": "uint256"
            },
            {
              "internalType": "uint256",
              "name": "remainingQuantity",
              "type": "uint256"
            },
            {
              "internalType": "uint256",
              "name": "initialQuantity",
              "type": "uint256"
            },
            {
              "internalType": "uint256",
              "name": "votingUnits",
              "type": "uint256"
            },
            {
              "internalType": "uint256",
              "name": "reservedRate",
              "type": "uint256"
            },
            {
              "internalType": "address",
              "name": "reservedTokenBeneficiary",
              "type": "address"
            },
            {
              "internalType": "uint256",
              "name": "royaltyRate",
              "type": "uint256"
            },
            {
              "internalType": "address",
              "name": "royaltyBeneficiary",
              "type": "address"
            },
            {
              "internalType": "bytes32",
              "name": "encodedIPFSUri",
              "type": "bytes32"
            },
            {
              "internalType": "uint256",
              "name": "category",
              "type": "uint256"
            },
            {
              "internalType": "bool",
              "name": "allowManualMint",
              "type": "bool"
            },
            {
              "internalType": "bool",
              "name": "transfersPausable",
              "type": "bool"
            }
          ],
          "internalType": "struct JB721Tier",
          "name": "",
          "type": "tuple"
        }
      ],
      "stateMutability": "view",
      "type": "function"
    },
    {
      "inputs": [
        {
          "internalType": "address",
          "name": "",
          "type": "address"
        },
        {
          "internalType": "address",
          "name": "",
          "type": "address"
        },
        {
          "internalType": "uint256",
          "name": "",
          "type": "uint256"
        }
      ],
      "name": "tierBalanceOf",
      "outputs": [
        {
          "internalType": "uint256",
          "name": "",
          "type": "uint256"
        }
      ],
      "stateMutability": "view",
      "type": "function"
    },
    {
      "inputs": [
        {
          "internalType": "uint256",
          "name": "_tokenId",
          "type": "uint256"
        }
      ],
      "name": "tierIdOfToken",
      "outputs": [
        {
          "internalType": "uint256",
          "name": "",
          "type": "uint256"
        }
      ],
      "stateMutability": "pure",
      "type": "function"
    },
    {
      "inputs": [
        {
          "internalType": "address",
          "name": "_nft",
          "type": "address"
        },
        {
          "internalType": "uint256",
          "name": "_tokenId",
          "type": "uint256"
        }
      ],
      "name": "tierOfTokenId",
      "outputs": [
        {
          "components": [
            {
              "internalType": "uint256",
              "name": "id",
              "type": "uint256"
            },
            {
              "internalType": "uint256",
              "name": "contributionFloor",
              "type": "uint256"
            },
            {
              "internalType": "uint256",
              "name": "lockedUntil",
              "type": "uint256"
            },
            {
              "internalType": "uint256",
              "name": "remainingQuantity",
              "type": "uint256"
            },
            {
              "internalType": "uint256",
              "name": "initialQuantity",
              "type": "uint256"
            },
            {
              "internalType": "uint256",
              "name": "votingUnits",
              "type": "uint256"
            },
            {
              "internalType": "uint256",
              "name": "reservedRate",
              "type": "uint256"
            },
            {
              "internalType": "address",
              "name": "reservedTokenBeneficiary",
              "type": "address"
            },
            {
              "internalType": "uint256",
              "name": "royaltyRate",
              "type": "uint256"
            },
            {
              "internalType": "address",
              "name": "royaltyBeneficiary",
              "type": "address"
            },
            {
              "internalType": "bytes32",
              "name": "encodedIPFSUri",
              "type": "bytes32"
            },
            {
              "internalType": "uint256",
              "name": "category",
              "type": "uint256"
            },
            {
              "internalType": "bool",
              "name": "allowManualMint",
              "type": "bool"
            },
            {
              "internalType": "bool",
              "name": "transfersPausable",
              "type": "bool"
            }
          ],
          "internalType": "struct JB721Tier",
          "name": "",
          "type": "tuple"
        }
      ],
      "stateMutability": "view",
      "type": "function"
    },
    {
      "inputs": [
        {
          "internalType": "address",
          "name": "_nft",
          "type": "address"
        },
        {
          "internalType": "address",
          "name": "_account",
          "type": "address"
        },
        {
          "internalType": "uint256",
          "name": "_tierId",
          "type": "uint256"
        }
      ],
      "name": "tierVotingUnitsOf",
      "outputs": [
        {
          "internalType": "uint256",
          "name": "",
          "type": "uint256"
        }
      ],
      "stateMutability": "view",
      "type": "function"
    },
    {
      "inputs": [
        {
          "internalType": "address",
          "name": "_nft",
          "type": "address"
        },
        {
          "internalType": "uint256",
          "name": "_category",
          "type": "uint256"
        },
        {
          "internalType": "uint256",
          "name": "_startingId",
          "type": "uint256"
        },
        {
          "internalType": "uint256",
          "name": "_size",
          "type": "uint256"
        }
      ],
      "name": "tiers",
      "outputs": [
        {
          "components": [
            {
              "internalType": "uint256",
              "name": "id",
              "type": "uint256"
            },
            {
              "internalType": "uint256",
              "name": "contributionFloor",
              "type": "uint256"
            },
            {
              "internalType": "uint256",
              "name": "lockedUntil",
              "type": "uint256"
            },
            {
              "internalType": "uint256",
              "name": "remainingQuantity",
              "type": "uint256"
            },
            {
              "internalType": "uint256",
              "name": "initialQuantity",
              "type": "uint256"
            },
            {
              "internalType": "uint256",
              "name": "votingUnits",
              "type": "uint256"
            },
            {
              "internalType": "uint256",
              "name": "reservedRate",
              "type": "uint256"
            },
            {
              "internalType": "address",
              "name": "reservedTokenBeneficiary",
              "type": "address"
            },
            {
              "internalType": "uint256",
              "name": "royaltyRate",
              "type": "uint256"
            },
            {
              "internalType": "address",
              "name": "royaltyBeneficiary",
              "type": "address"
            },
            {
              "internalType": "bytes32",
              "name": "encodedIPFSUri",
              "type": "bytes32"
            },
            {
              "internalType": "uint256",
              "name": "category",
              "type": "uint256"
            },
            {
              "internalType": "bool",
              "name": "allowManualMint",
              "type": "bool"
            },
            {
              "internalType": "bool",
              "name": "transfersPausable",
              "type": "bool"
            }
          ],
          "internalType": "struct JB721Tier[]",
          "name": "_tiers",
          "type": "tuple[]"
        }
      ],
      "stateMutability": "view",
      "type": "function"
    },
    {
      "inputs": [
        {
          "internalType": "address",
          "name": "",
          "type": "address"
        }
      ],
      "name": "tokenUriResolverOf",
      "outputs": [
        {
          "internalType": "contract IJBTokenUriResolver",
          "name": "",
          "type": "address"
        }
      ],
      "stateMutability": "view",
      "type": "function"
    },
    {
      "inputs": [
        {
          "internalType": "address",
          "name": "_nft",
          "type": "address"
        }
      ],
      "name": "totalRedemptionWeight",
      "outputs": [
        {
          "internalType": "uint256",
          "name": "weight",
          "type": "uint256"
        }
      ],
      "stateMutability": "view",
      "type": "function"
    },
    {
      "inputs": [
        {
          "internalType": "address",
          "name": "_nft",
          "type": "address"
        }
      ],
      "name": "totalSupply",
      "outputs": [
        {
          "internalType": "uint256",
          "name": "supply",
          "type": "uint256"
        }
      ],
      "stateMutability": "view",
      "type": "function"
    },
    {
      "inputs": [
        {
          "internalType": "address",
          "name": "_nft",
          "type": "address"
        },
        {
          "internalType": "address",
          "name": "_account",
          "type": "address"
        }
      ],
      "name": "votingUnitsOf",
      "outputs": [
        {
          "internalType": "uint256",
          "name": "units",
          "type": "uint256"
        }
      ],
      "stateMutability": "view",
      "type": "function"
    }
  ],
  "bytecode": {
    "object": "0x608060405234801561001057600080fd5b50613c1a806100206000396000f3fe608060405234801561001057600080fd5b506004361061025e5760003560e01c8063845104de11610146578063c2c55f94116100c3578063d84a72c011610087578063d84a72c014610794578063e4dc2aa4146107d1578063eaa19ab3146107e4578063f1bea54f14610805578063f682eeaf14610825578063f7888aec1461083857600080fd5b8063c2c55f9414610728578063c8df17101461073b578063cb827e321461074e578063d65981a914610761578063d67b78fd1461078157600080fd5b8063933555781161010a57806393355578146106a4578063aab0cd80146106b7578063b67cb047146106d7578063baa7e80e146106ea578063bd51923c146106fd57600080fd5b8063845104de1461051b57806386bc2be3146105eb5780638cec7d39146105fe5780638ed6c01014610647578063911c80b51461067b57600080fd5b806335314b92116101df578063538bd5ea116101a3578063538bd5ea146104605780635f646611146104925780636262bcb2146104b55780636825bb80146104c85780637473c9a2146104f357806379a753191461051357600080fd5b806335314b92146103bc57806337f44652146103cf57806342f9914b14610400578063453b5abe1461041357806349bd1ac61461043357600080fd5b806317161f7d1161022657806317161f7d1461031b57806320512ba1146103585780632ae5e4921461036b5780632b7e6ef01461037e5780632e4d0ea8146103a957600080fd5b8063086bb19a146102635780630fab094714610278578063136e651c146102be578063144cc2d4146102d157806315fa7dff146102f2575b600080fd5b610276610271366004613109565b61084b565b005b6102a1610286366004613109565b6010602052600090815260409020546001600160a01b031681565b6040516001600160a01b0390911681526020015b60405180910390f35b6102a16102cc366004613126565b6109e0565b6102e46102df36600461319e565b610a39565b6040519081526020016102b5565b6102a1610300366004613109565b600d602052600090815260409020546001600160a01b031681565b610276610329366004613109565b336000908152600c6020526040902080546001600160a01b0319166001600160a01b0392909216919091179055565b6102766103663660046131f3565b610ab7565b6102e4610379366004613109565b610b64565b6102e461038c366004613126565b600b60209081526000928352604080842090915290825290205481565b6102e46103b7366004613235565b610cce565b6102e46103ca366004613126565b610d53565b6102e46103dd366004613235565b600960209081526000938452604080852082529284528284209052825290205481565b6102e461040e366004613276565b610e2a565b61042661042136600461328f565b610e3a565b6040516102b59190613340565b610276610441366004613353565b3360009081526012602090815260408083209483529390529190912055565b61047361046e366004613375565b6118cb565b604080516001600160a01b0390931683526020830191909152016102b5565b6104a56104a0366004613126565b6119f4565b60405190151581526020016102b5565b6102766104c33660046133aa565b611a2c565b6102e46104d6366004613126565b600a60209081526000928352604080842090915290825290205481565b610506610501366004613126565b611a4b565b6040516102b591906134b5565b6102e460c881565b6105b0610529366004613109565b604080516080810182526000808252602082018190529181018290526060810191909152506001600160a01b03166000908152600460209081526040918290208251608081018452905460ff808216151583526101008204811615159383019390935262010000810483161515938201939093526301000000909204161515606082015290565b6040516102b5919081511515815260208083015115159082015260408083015115159082015260609182015115159181019190915260800190565b6102766105f93660046131f3565b611c57565b61027661060c3660046134c4565b336000908152600e602090815260408083209483529390529190912080546001600160a01b0319166001600160a01b03909216919091179055565b6102a1610655366004613126565b600e6020908152600092835260408084209091529082529020546001600160a01b031681565b6102a1610689366004613109565b600c602052600090815260409020546001600160a01b031681565b6102e46106b23660046134f4565b611d1b565b6106ca6106c5366004613109565b611dcb565b6040516102b59190613522565b6105066106e5366004613126565b611e65565b6104266106f8366004613353565b612096565b6102e461070b366004613126565b601260209081526000928352604080842090915290825290205481565b610276610736366004613570565b6122d6565b6102e4610749366004613126565b612369565b61027661075c3660046135b2565b6123a2565b61077461076f3660046135ca565b6123bd565b6040516102b59190613605565b61027661078f3660046133aa565b61274a565b6102766107a2366004613109565b33600090815260106020526040902080546001600160a01b0319166001600160a01b0392909216919091179055565b6102e46107df366004613109565b612764565b6107f76107f236600461366d565b6127ec565b6040516102b59291906136cc565b6102e4610813366004613109565b60086020526000908152604090205481565b6106ca610833366004613109565b612b59565b6102e46108463660046134f4565b612b72565b600061085682612bde565b90506000610865836000612c1f565b6001600160a01b038416600090815260056020526040812091925090819061088d9084612c86565b90505b821561099b576108a08184612ccc565b156108ca576001600160a01b03851660009081526005602052604090206108c79084612c86565b90505b6108d48184612ce6565b610989576108e3826001613704565b831461093b576001600160a01b0385166000908152602081815260408083208584529091529020548314610936576001600160a01b03851660009081526020818152604080832085845290915290208390555b610985565b6001600160a01b03851660009081526020818152604080832085845290915290205415610985576001600160a01b0385166000908152602081815260408083208584529091528120555b8291505b610994858486612d05565b9250610890565b6040513381526001600160a01b038616907f4a0f854ce3c180d56f3e9eb47eb064c595bf3de0ab9af45425291e5b1bb733a89060200160405180910390a25050505050565b6001600160a01b0380831660009081526001602090815260408083208584529091528120549091168015610a15579050610a33565b50506001600160a01b038083166000908152600c6020526040902054165b92915050565b600081815b81811015610aae576001600160a01b038616600090815260036020526040812090610a80878785818110610a7457610a74613717565b90506020020135610e2a565b8152602081019190915260400160002054610aa4906001600160501b031684613704565b9250600101610a3e565b50509392505050565b806000805b82811015610b5d57848482818110610ad657610ad6613717565b336000908152600360209081526040808320938202959095013580835292905292909220549193504291610b1e91506363b0cd0090600160501b900464ffffffffff16613704565b10610b3c57604051636b73d51160e11b815260040160405180910390fd5b336000908152600560205260409020610b559083612d50565b600101610abc565b5050505050565b6001600160a01b038116600090815260086020526040812054610b8561300a565b60005b82811015610cc6576001600160a01b0385166000908152600360209081526040808320600180860185529083529281902081516101408101835281546001600160501b038116825264ffffffffff600160501b8204811695830195909552600160781b8104851693820193909352600160a01b8304909316606084015261ffff600160c81b830481166080850152600160d81b83041660a084015260ff600160e81b8304811660c0850152600160f01b8304811660e0850152600160f81b909204821615156101008401528301541615156101208201529250610c78908690610c72908490613704565b84612d89565b82604001518360600151610c8c919061372d565b64ffffffffff16610c9d9190613704565b8251610cb291906001600160501b0316613752565b610cbc9085613704565b9350600101610b88565b505050919050565b6001600160a01b0380841660009081526009602090815260408083209386168352928152828220848352905290812054808203610d0f576000915050610d4c565b6001600160a01b0385166000908152600360209081526040808320868452909152902054610d4890600160c81b900461ffff1682613752565b9150505b9392505050565b6001600160a01b0382166000908152600360209081526040808320848452825280832081516101408101835281546001600160501b038116825264ffffffffff600160501b8204811695830195909552600160781b8104851693820193909352600160a01b8304909316606084015261ffff600160c81b830481166080850152600160d81b83041660a084015260ff600160e81b8304811660c0850152600160f01b8304811660e0850152600160f81b9092048216151561010084015260010154161515610120820152610d4c9084908490612d89565b6000610a33633b9aca008361377f565b33600090815260086020526040902054606090829061ffff610e5c8383613704565b1115610e7b57604051631bc68c8b60e11b815260040160405180910390fd5b6000610e8633612bde565b90508267ffffffffffffffff811115610ea157610ea1613793565b604051908082528060200260200182016040528015610eca578160200160208202803683370190505b50935060008215610ee557610ee0336000612c1f565b610ee8565b60005b604080516101c081018252600080825260208201819052918101829052606081018290526080810182905260a0810182905260c0810182905260e08101829052610100810182905261012081018290526101408101829052610160810182905261018081018290526101a08101829052919250903360009081526004602090815260408083208151608081018352905460ff80821615158352610100820481161515948301949094526201000081048416151592820192909252630100000090910490911615156060820152905b878110156118a2578a8a82818110610fd057610fd0613717565b90506101c00201803603810190610fe79190613838565b9250610ff86001633b9aca00613941565b836040015164ffffffffff161115611023576040516349016ea360e01b815260040160405180910390fd5b80156110a65760008b8b611038600185613941565b81811061104757611047613717565b90506101c0020180360381019061105e9190613838565b905083610120015160ff1660001480611086575080610120015160ff1684610120015160ff16105b156110a457604051631cabebd560e21b815260040160405180910390fd5b505b816020015180156110be5750606083015161ffff1615155b156110dc57604051630189200360e11b815260040160405180910390fd5b8151806110eb57508261014001515b80156110fe5750608083015161ffff1615155b1561111c5760405163a75b1cd560e01b815260040160405180910390fd5b8160400151801561112f57508261014001515b1561114d576040516330ec637f60e01b815260040160405180910390fd5b826040015164ffffffffff1660000361117957604051631e0a863160e31b815260040160405180910390fd5b602083015165ffffffffffff161580159061119f575042836020015165ffffffffffff16105b156111bd5760405163d509b54d60e01b815260040160405180910390fd5b60c88360c0015160ff1611156111e65760405163fd912b8360e01b815260040160405180910390fd5b60006111f28289613704565b6111fd906001613704565b905060405180610140016040528085600001516001600160501b03168152602001856020015165ffffffffffff16600014611253576363b0cd00866020015165ffffffffffff1661124e9190613941565b611256565b60005b64ffffffffff168152602001856040015164ffffffffff168152602001856040015164ffffffffff168152602001856060015161ffff168152602001856080015161ffff1681526020018560c0015160ff16815260200185610120015160ff16815260200185610140015115158152602001856101a00151151581525060036000336001600160a01b03166001600160a01b03168152602001908152602001600020600083815260200190815260200160002060008201518160000160006101000a8154816001600160501b0302191690836001600160501b03160217905550602082015181600001600a6101000a81548164ffffffffff021916908364ffffffffff160217905550604082015181600001600f6101000a81548164ffffffffff021916908364ffffffffff16021790555060608201518160000160146101000a81548164ffffffffff021916908364ffffffffff16021790555060808201518160000160196101000a81548161ffff021916908361ffff16021790555060a082015181600001601b6101000a81548161ffff021916908361ffff16021790555060c082015181600001601d6101000a81548160ff021916908360ff16021790555060e082015181600001601e6101000a81548160ff021916908360ff16021790555061010082015181600001601f6101000a81548160ff0219169083151502179055506101208201518160010160006101000a81548160ff02191690831515021790555090505060076000336001600160a01b03166001600160a01b03168152602001908152602001600020600085610120015160ff168152602001908152602001600020546000036114ea5733600090815260076020908152604080832061012088015160ff16845290915290208190555b60a08401516001600160a01b0316156115a357836101600151156115665760a0840151336000908152600c60205260409020546001600160a01b039081169116146115615760a0840151336000908152600c6020526040902080546001600160a01b0319166001600160a01b039092169190911790555b6115a3565b60a0840151336000908152600160209081526040808320858452909152902080546001600160a01b0319166001600160a01b039092169190911790555b60e08401516001600160a01b03161561165c578361018001511561161f5760e0840151336000908152600d60205260409020546001600160a01b0390811691161461161a5760e0840151336000908152600d6020526040902080546001600160a01b0319166001600160a01b039092169190911790555b61165c565b60e0840151336000908152600260209081526040808320858452909152902080546001600160a01b0319166001600160a01b039092169190911790555b61010084015115611689576101008401513360009081526012602090815260408083208584529091529020555b851561187b573360009081526005602052604081208791906116ab9083612c86565b905060005b8215611877576116c08284612ccc565b156116e1573360009081526005602052604090206116de9084612c86565b91505b6116ec33848c612d05565b33600090815260036020908152604080832087845290915290205461012089015191925060ff600160f01b90910481169116116117fd5761172e846001613704565b8314611750573360009081526020818152604080832087845290915290208390555b8415801561176d5750336000908152600660205260409020548a14155b15611785573360009081526006602052604090208a90555b611790600185613941565b881415806117b55750336000908152602081815260408083208b845290915290205415155b156117ee576117c5600185613941565b88146117d157836117d4565b60005b336000908152602081815260408083208c84529091529020555b829850839750600092506116b0565b80158061180957508a81115b1561186e57611819836001613704565b841461183b573360009081526020818152604080832086845290915290208490555b3360009081526006602052604081205494995089949093501561186957336000908152600660205260408120555b6116b0565b919650816116b0565b5050505b808a838151811061188e5761188e613717565b602090810291909101015250600101610fb6565b506118ad8787613704565b33600090815260086020526040902055509598975050505050505050565b60008060006118d985610e2a565b905060006118e78783612ec8565b90506001600160a01b038116611905576000809350935050506119ec565b6001600160a01b038716600090815260036020908152604080832085845282529182902082516101408101845281546001600160501b038116825264ffffffffff600160501b8204811694830194909452600160781b8104841694820194909452600160a01b8404909216606083015261ffff600160c81b840481166080840152600160d81b84041660a083015260ff600160e81b8404811660c08401819052600160f01b8504821660e0850152600160f81b909404811615156101008401526001909101541615156101208201529082906119e490889060c8612f1e565b945094505050505b935093915050565b6001600160a01b03821660009081526005602052604081208190611a189084612c86565b9050611a248184612ce6565b949350505050565b336000908152600f60205260409020611a468284836139d6565b505050565b611a5361305e565b6001600160a01b0383166000908152600360209081526040808320858452825280832081516101408101835281546001600160501b038116825264ffffffffff600160501b8204811695830195909552600160781b8104851693820193909352600160a01b8304909316606084015261ffff600160c81b830481166080850152600160d81b83041660a084015260ff600160e81b8304811660c0850152600160f01b8304811660e0850152600160f81b909204821615156101008401526001015416151561012082015290611b2885856109e0565b9050604051806101c0016040528085815260200183600001516001600160501b03168152602001836020015164ffffffffff166363b0cd00611b6a9190613704565b8152602001836040015164ffffffffff168152602001836060015164ffffffffff168152602001836080015161ffff16815260200160006001600160a01b0316836001600160a01b031614611bc3578360a00151611bc6565b60005b61ffff168152602001826001600160a01b031681526020018360c0015160ff168152602001611bf58787612ec8565b6001600160a01b03908116825287166000908152601260209081526040808320898452825291829020549083015260e085015160ff16908201526101008401511515606082015261012090930151151560809093019290925250905092915050565b806000805b82811015610b5d57848482818110611c7657611c76613717565b9050602002013591506000611c8a83610e2a565b336000908152600b602090815260408083208484529091528120805492935090611cb383613a96565b909155505033600090815260036020908152604080832084845290915290208054600160781b900464ffffffffff1690600f611cee83613aaf565b91906101000a81548164ffffffffff021916908364ffffffffff1602179055505081600101915050611c5c565b6001600160a01b03821660009081526008602052604081205481815b8015611dc2576001600160a01b03808716600090815260096020908152604080832093891683529281528282208483529052205491508115611db9576001600160a01b0386166000908152600360209081526040808320848452909152902054611dac90600160c81b900461ffff1683613752565b611db69085613704565b93505b60001901611d37565b50505092915050565b60116020526000908152604090208054611de490613954565b80601f0160208091040260200160405190810160405280929190818152602001828054611e1090613954565b8015611e5d5780601f10611e3257610100808354040283529160200191611e5d565b820191906000526020600020905b815481529060010190602001808311611e4057829003601f168201915b505050505081565b611e6d61305e565b6000611e7883610e2a565b6001600160a01b0385166000908152600360209081526040808320848452825280832081516101408101835281546001600160501b038116825264ffffffffff600160501b8204811695830195909552600160781b8104851693820193909352600160a01b8304909316606084015261ffff600160c81b830481166080850152600160d81b83041660a084015260ff600160e81b8304811660c0850152600160f01b8304811660e0850152600160f81b9092048216151561010084015260010154161515610120820152919250611f4f86846109e0565b9050604051806101c0016040528084815260200183600001516001600160501b03168152602001836020015164ffffffffff166363b0cd00611f919190613704565b8152602001836040015164ffffffffff168152602001836060015164ffffffffff168152602001836080015161ffff16815260200160006001600160a01b0316836001600160a01b031614611fea578360a00151611fed565b60005b61ffff168152602001826001600160a01b031681526020018360c0015160ff16815260200161201c8886612ec8565b6001600160a01b0316815260200160126000896001600160a01b03166001600160a01b0316815260200190815260200160002060008681526020019081526020016000205481526020018360e0015160ff168152602001836101000151151581526020018361012001511515815250935050505092915050565b336000818152600360209081526040808320868452825280832081516101408101835281546001600160501b038116825264ffffffffff600160501b8204811695830195909552600160781b8104851693820193909352600160a01b830490931660608481019190915261ffff600160c81b840481166080860152600160d81b84041660a085015260ff600160e81b8404811660c0860152600160f01b8404811660e0860152600160f81b9093048316151561010085015260018201549092161515610120840152909390929161216f91908790612d89565b9050808411156121925760405163226f999960e11b815260040160405180910390fd5b336000908152600a60209081526040808320888452909152812080548692906121bc908490613704565b9091555084905067ffffffffffffffff8111156121db576121db613793565b604051908082528060200260200182016040528015612204578160200160208202803683370190505b50336000908152600b602090815260408083208984529091528120549194505b858110156122cc576122a7878386600001600f81819054906101000a900464ffffffffff1661225290613ad3565b91906101000a81548164ffffffffff021916908364ffffffffff16021790558760000160149054906101000a900464ffffffffff16612291919061372d565b64ffffffffff166122a29190613704565b612fef565b8582815181106122b9576122b9613717565b6020908102919091010152600101612224565b5050505092915050565b6001600160a01b03821615612323573360009081526009602090815260408083206001600160a01b038616845282528083208684529091528120805490919061231e90613af4565b909155505b6001600160a01b03811615611a46573360009081526009602090815260408083206001600160a01b03851684528252808320868452909152902080546001019055505050565b6001600160a01b03821660009081526012602052604081208161238b84610e2a565b815260200190815260200160002054905092915050565b3360009081526004602052604090208190611a468282613b18565b606060006123ca86612bde565b90508267ffffffffffffffff8111156123e5576123e5613793565b60405190808252806020026020018201604052801561241e57816020015b61240b61305e565b8152602001906001900390816124035790505b5091506000808560000361243b576124368888612c1f565b61243d565b855b905061244761300a565b6001600160a01b03891660009081526005602052604081206124699084612c86565b90505b821580159061247a57508684105b15612732576124898184612ccc565b156124b3576001600160a01b038a1660009081526005602052604090206124b09084612c86565b90505b6124bd8184612ce6565b612720576001600160a01b038a166000908152600360209081526040808320868452825280832081516101408101835281546001600160501b038116825264ffffffffff600160501b8204811695830195909552600160781b8104851693820193909352600160a01b8304909316606084015261ffff600160c81b830481166080850152600160d81b83041660a084015260ff600160e81b8304811660c0850152600160f01b8304811660e0850152600160f81b909204821615156101008401526001015416151561012082015292506125978b856109e0565b90508915806125ac5750898360e0015160ff16145b156126fe57604051806101c0016040528085815260200184600001516001600160501b03168152602001846020015164ffffffffff166363b0cd006125f19190613704565b8152602001846040015164ffffffffff168152602001846060015164ffffffffff168152602001846080015161ffff16815260200160006001600160a01b0316836001600160a01b03161461264a578460a0015161264d565b60005b61ffff168152602001826001600160a01b031681526020018460c0015160ff16815260200161267c8d87612ec8565b6001600160a01b0390811682528d166000908152601260209081526040808320898452825291829020549083015260e086015160ff169082015261010085015115156060820152610120850151151560809091015287866126dc81613a96565b9750815181106126ee576126ee613717565b602002602001018190525061271e565b60008a1180156127145750898360e0015160ff16115b1561271e57600093505b505b61272b8a8487612d05565b925061246c565b86841461273d578386525b5050505050949350505050565b336000908152601160205260409020611a468284836139d6565b6001600160a01b0381166000908152600860205260408120548190805b8015610cc6576001600160a01b0385166000908152600360209081526040808320848452909152902080549093506127d09064ffffffffff600160781b8204811691600160a01b90041661372d565b6127e19064ffffffffff1685613704565b935060001901612781565b606084836000808267ffffffffffffffff81111561280c5761280c613793565b604051908082528060200260200182016040528015612835578160200160208202803683370190505b509450600061287e8989600081811061285057612850613717565b90506020020160208101906128659190613bb5565b3360009081526005602052604090209061ffff16612c86565b905060005b84811015612b4b5789898281811061289d5761289d613717565b90506020020160208101906128b29190613bb5565b61ffff1692506128c28284612ccc565b156128e3573360009081526005602052604090206128e09084612c86565b91505b6128ed8284612ce6565b1561290b5760405163d32cb5c160e01b815260040160405180910390fd5b3360009081526003602090815260408083208684529091529020935087801561293d57508354600160f81b900460ff16155b1561295b57604051632f792d3960e11b815260040160405180910390fd5b8354600160a01b900464ffffffffff1660000361298b57604051630de5859f60e01b815260040160405180910390fd5b83546001600160501b03168610156129b657604051632cd294cf60e01b815260040160405180910390fd5b604080516101408101825285546001600160501b038116825264ffffffffff600160501b820481166020840152600160781b8204811693830193909352600160a01b8104909216606082015261ffff600160c81b830481166080830152600160d81b83041660a082015260ff600160e81b8304811660c0830152600160f01b8304811660e0830152600160f81b9092048216151561010082015260018601549091161515610120820152612a6d9033908590612d89565b8454612a879190600160781b900464ffffffffff16613941565b600003612aa75760405163985a45d960e01b815260040160405180910390fd5b336000908152600b60209081526040808320868452909152902054845460001964ffffffffff600160781b808404821692830182160264ffffffffff60781b1990931692909217808855612b0f938793600160a01b9092048216929092036001011601612fef565b878281518110612b2157612b21613717565b60209081029190910101528354612b41906001600160501b031687613941565b9550600101612883565b505050505094509492505050565b600f6020526000908152604090208054611de490613954565b6001600160a01b038216600090815260086020526040812054805b8015612bd6576001600160a01b038086166000908152600960209081526040808320938816835292815282822084835290522054612bcb9084613704565b925060001901612b8d565b505092915050565b6001600160a01b03811660009081526006602052604081205490819003612c1a57506001600160a01b0381166000908152600860205260409020545b919050565b60008115612c50576001600160a01b0383166000908152600760209081526040808320858452909152902054612c73565b6001600160a01b0383166000908152602081815260408083208380529091529020545b905080600003610a335750600192915050565b60408051808201909152600080825260208201526000612ca68360081c90565b604080518082018252600083815260209788529190912054815294850152509192915050565b60008260200151612cdd8360081c90565b14159392505050565b6000612cf461010083613bd0565b83516001911c811614905092915050565b6000818303612d1657506000610d4c565b6001600160a01b0384166000908152602081815260408083208684529091529020548015612d45579050610d4c565b610d48846001613704565b6000612d5c8260081c90565b9050612d6a61010083613bd0565b6000918252602093909352604090208054600190931b90921790915550565b60008160a0015161ffff1660001480612db75750816040015164ffffffffff16826060015164ffffffffff16145b80612dd457506000612dc985856109e0565b6001600160a01b0316145b15612de157506000610d4c565b6001600160a01b0384166000908152600a60209081526040808320868452909152908190205490830151606084015164ffffffffff91821691612e2691849116613941565b03612e35576000915050610d4c565b60008184604001518560600151612e4c919061372d565b64ffffffffff16612e5d9190613941565b905060008460a0015161ffff1682612e75919061377f565b905060008560a0015161ffff1683612e8d9190613bd0565b1115612e9f57612e9c81613a96565b90505b80831115612eb35760009350505050610d4c565b612ebd8382613941565b979650505050505050565b6001600160a01b0380831660009081526002602090815260408083208584529091528120549091168015612efd579050610a33565b5050506001600160a01b039081166000908152600d60205260409020541690565b6000808060001985870985870292508281108382030391505080600003612f5857838281612f4e57612f4e613769565b0492505050610d4c565b838110612f8657604051631dcf306360e21b8152600481018290526024810185905260440160405180910390fd5b60008486880960026001871981018816978890046003810283188082028403028082028403028082028403028082028403028082028403029081029092039091026000889003889004909101858311909403939093029303949094049190911702949350505050565b600081613000633b9aca0085613752565b610d4c9190613704565b6040805161014081018252600080825260208201819052918101829052606081018290526080810182905260a0810182905260c0810182905260e08101829052610100810182905261012081019190915290565b604051806101c001604052806000815260200160008152602001600081526020016000815260200160008152602001600081526020016000815260200160006001600160a01b031681526020016000815260200160006001600160a01b0316815260200160008019168152602001600081526020016000151581526020016000151581525090565b6001600160a01b03811681146130fb57600080fd5b50565b8035612c1a816130e6565b60006020828403121561311b57600080fd5b8135610d4c816130e6565b6000806040838503121561313957600080fd5b8235613144816130e6565b946020939093013593505050565b60008083601f84011261316457600080fd5b50813567ffffffffffffffff81111561317c57600080fd5b6020830191508360208260051b850101111561319757600080fd5b9250929050565b6000806000604084860312156131b357600080fd5b83356131be816130e6565b9250602084013567ffffffffffffffff8111156131da57600080fd5b6131e686828701613152565b9497909650939450505050565b6000806020838503121561320657600080fd5b823567ffffffffffffffff81111561321d57600080fd5b61322985828601613152565b90969095509350505050565b60008060006060848603121561324a57600080fd5b8335613255816130e6565b92506020840135613265816130e6565b929592945050506040919091013590565b60006020828403121561328857600080fd5b5035919050565b600080602083850312156132a257600080fd5b823567ffffffffffffffff808211156132ba57600080fd5b818501915085601f8301126132ce57600080fd5b8135818111156132dd57600080fd5b8660206101c0830285010111156132f357600080fd5b60209290920196919550909350505050565b600081518084526020808501945080840160005b8381101561333557815187529582019590820190600101613319565b509495945050505050565b602081526000610d4c6020830184613305565b6000806040838503121561336657600080fd5b50508035926020909101359150565b60008060006060848603121561338a57600080fd5b8335613395816130e6565b95602085013595506040909401359392505050565b600080602083850312156133bd57600080fd5b823567ffffffffffffffff808211156133d557600080fd5b818501915085601f8301126133e957600080fd5b8135818111156133f857600080fd5b8660208285010111156132f357600080fd5b805182526020810151602083015260408101516040830152606081015160608301526080810151608083015260a081015160a083015260c081015160c083015260e081015161346460e08401826001600160a01b03169052565b506101008181015190830152610120808201516001600160a01b03169083015261014080820151908301526101608082015190830152610180808201511515908301526101a0908101511515910152565b6101c08101610a33828461340a565b600080604083850312156134d757600080fd5b8235915060208301356134e9816130e6565b809150509250929050565b6000806040838503121561350757600080fd5b8235613512816130e6565b915060208301356134e9816130e6565b600060208083528351808285015260005b8181101561354f57858101830151858201604001528201613533565b506000604082860101526040601f19601f8301168501019250505092915050565b60008060006060848603121561358557600080fd5b833592506020840135613597816130e6565b915060408401356135a7816130e6565b809150509250925092565b6000608082840312156135c457600080fd5b50919050565b600080600080608085870312156135e057600080fd5b84356135eb816130e6565b966020860135965060408601359560600135945092505050565b6020808252825182820181905260009190848201906040850190845b818110156136485761363483855161340a565b928401926101c09290920191600101613621565b50909695505050505050565b80151581146130fb57600080fd5b8035612c1a81613654565b6000806000806060858703121561368357600080fd5b84359350602085013567ffffffffffffffff8111156136a157600080fd5b6136ad87828801613152565b90945092505060408501356136c181613654565b939692955090935050565b6040815260006136df6040830185613305565b90508260208301529392505050565b634e487b7160e01b600052601160045260246000fd5b80820180821115610a3357610a336136ee565b634e487b7160e01b600052603260045260246000fd5b64ffffffffff82811682821603908082111561374b5761374b6136ee565b5092915050565b8082028115828204841417610a3357610a336136ee565b634e487b7160e01b600052601260045260246000fd5b60008261378e5761378e613769565b500490565b634e487b7160e01b600052604160045260246000fd5b6040516101c0810167ffffffffffffffff811182821017156137cd576137cd613793565b60405290565b80356001600160501b0381168114612c1a57600080fd5b803565ffffffffffff81168114612c1a57600080fd5b803564ffffffffff81168114612c1a57600080fd5b803561ffff81168114612c1a57600080fd5b803560ff81168114612c1a57600080fd5b60006101c0828403121561384b57600080fd5b6138536137a9565b61385c836137d3565b815261386a602084016137ea565b602082015261387b60408401613800565b604082015261388c60608401613815565b606082015261389d60808401613815565b60808201526138ae60a084016130fe565b60a08201526138bf60c08401613827565b60c08201526138d060e084016130fe565b60e082015261010083810135908201526101206138ee818501613827565b90820152610140613900848201613662565b90820152610160613912848201613662565b90820152610180613924848201613662565b908201526101a0613936848201613662565b908201529392505050565b81810381811115610a3357610a336136ee565b600181811c9082168061396857607f821691505b6020821081036135c457634e487b7160e01b600052602260045260246000fd5b601f821115611a4657600081815260208120601f850160051c810160208610156139af5750805b601f850160051c820191505b818110156139ce578281556001016139bb565b505050505050565b67ffffffffffffffff8311156139ee576139ee613793565b613a02836139fc8354613954565b83613988565b6000601f841160018114613a365760008515613a1e5750838201355b600019600387901b1c1916600186901b178355610b5d565b600083815260209020601f19861690835b82811015613a675786850135825560209485019460019092019101613a47565b5086821015613a845760001960f88860031b161c19848701351681555b505060018560011b0183555050505050565b600060018201613aa857613aa86136ee565b5060010190565b600064ffffffffff808316818103613ac957613ac96136ee565b6001019392505050565b600064ffffffffff821680613aea57613aea6136ee565b6000190192915050565b600081613b0357613b036136ee565b506000190190565b60008135610a3381613654565b8135613b2381613654565b815460ff19811691151560ff1691821783556020840135613b4381613654565b61ff0090151560081b1661ffff1982168317811784556040850135613b6781613654565b62ff000081151560101b168462ffffff19851617831717855550505050613bb1613b9360608401613b0b565b82805463ff000000191691151560181b63ff00000016919091179055565b5050565b600060208284031215613bc757600080fd5b610d4c82613815565b600082613bdf57613bdf613769565b50069056fea264697066735822122043c5582daa57faeabddb724e4f7af860f9e7733bcd1bfe396e1c2dfb15a050d464736f6c63430008120033",
    "linkReferences": {}
  },
  "methodIdentifiers": {
    "MAX_ROYALTY_RATE()": "79a75319",
    "balanceOf(address,address)": "f7888aec",
    "baseUriOf(address)": "f682eeaf",
    "cleanTiers(address)": "086bb19a",
    "contractUriOf(address)": "aab0cd80",
    "defaultReservedTokenBeneficiaryOf(address)": "911c80b5",
    "defaultRoyaltyBeneficiaryOf(address)": "15fa7dff",
    "encodedIPFSUriOf(address,uint256)": "bd51923c",
    "encodedTierIPFSUriOf(address,uint256)": "c8df1710",
    "firstOwnerOf(address,uint256)": "8ed6c010",
    "flagsOf(address)": "845104de",
    "isTierRemoved(address,uint256)": "5f646611",
    "maxTierIdOf(address)": "f1bea54f",
    "numberOfBurnedFor(address,uint256)": "2b7e6ef0",
    "numberOfReservedTokensOutstandingFor(address,uint256)": "35314b92",
    "numberOfReservesMintedFor(address,uint256)": "6825bb80",
    "recordAddTiers((uint80,uint48,uint40,uint16,uint16,address,uint8,address,bytes32,uint8,bool,bool,bool,bool)[])": "453b5abe",
    "recordBurn(uint256[])": "86bc2be3",
    "recordFlags((bool,bool,bool,bool))": "cb827e32",
    "recordMint(uint256,uint16[],bool)": "eaa19ab3",
    "recordMintReservesFor(uint256,uint256)": "baa7e80e",
    "recordRemoveTierIds(uint256[])": "20512ba1",
    "recordSetBaseUri(string)": "6262bcb2",
    "recordSetContractUri(string)": "d67b78fd",
    "recordSetDefaultReservedTokenBeneficiary(address)": "17161f7d",
    "recordSetEncodedIPFSUriOf(uint256,bytes32)": "49bd1ac6",
    "recordSetFirstOwnerOf(uint256,address)": "8cec7d39",
    "recordSetTokenUriResolver(address)": "d84a72c0",
    "recordTransferForTier(uint256,address,address)": "c2c55f94",
    "redemptionWeightOf(address,uint256[])": "144cc2d4",
    "reservedTokenBeneficiaryOf(address,uint256)": "136e651c",
    "royaltyInfo(address,uint256,uint256)": "538bd5ea",
    "tier(address,uint256)": "7473c9a2",
    "tierBalanceOf(address,address,uint256)": "37f44652",
    "tierIdOfToken(uint256)": "42f9914b",
    "tierOfTokenId(address,uint256)": "b67cb047",
    "tierVotingUnitsOf(address,address,uint256)": "2e4d0ea8",
    "tiers(address,uint256,uint256,uint256)": "d65981a9",
    "tokenUriResolverOf(address)": "0fab0947",
    "totalRedemptionWeight(address)": "2ae5e492",
    "totalSupply(address)": "e4dc2aa4",
    "votingUnitsOf(address,address)": "93355578"
  },
  "id": 5
}