{
  "abi": [
    {
      "inputs": [],
      "name": "CANT_MINT_MANUALLY",
      "type": "error"
    },
    {
      "inputs": [],
      "name": "INSUFFICIENT_AMOUNT",
      "type": "error"
    },
    {
      "inputs": [],
      "name": "INSUFFICIENT_RESERVES",
      "type": "error"
    },
    {
      "inputs": [],
      "name": "INVALID_CATEGORY_SORT_ORDER",
      "type": "error"
    },
    {
      "inputs": [],
      "name": "INVALID_QUANTITY",
      "type": "error"
    },
    {
      "inputs": [],
      "name": "INVALID_TIER",
      "type": "error"
    },
    {
      "inputs": [],
      "name": "MANUAL_MINTING_NOT_ALLOWED",
      "type": "error"
    },
    {
      "inputs": [],
      "name": "MAX_TIERS_EXCEEDED",
      "type": "error"
    },
    {
      "inputs": [],
      "name": "NO_QUANTITY",
      "type": "error"
    },
    {
      "inputs": [],
      "name": "OUT",
      "type": "error"
    },
    {
      "inputs": [],
      "name": "RESERVED_RATE_NOT_ALLOWED",
      "type": "error"
    },
    {
      "inputs": [],
      "name": "TIER_REMOVED",
      "type": "error"
    },
    {
      "inputs": [],
      "name": "VOTING_UNITS_NOT_ALLOWED",
      "type": "error"
    },
    {
      "anonymous": false,
      "inputs": [
        {
          "indexed": true,
          "internalType": "address",
          "name": "nft",
          "type": "address"
        },
        {
          "indexed": false,
          "internalType": "address",
          "name": "caller",
          "type": "address"
        }
      ],
      "name": "CleanTiers",
      "type": "event"
    },
    {
      "inputs": [
        {
          "internalType": "address",
          "name": "_nft",
          "type": "address"
        },
        {
          "internalType": "address",
          "name": "_owner",
          "type": "address"
        }
      ],
      "name": "balanceOf",
      "outputs": [
        {
          "internalType": "uint256",
          "name": "balance",
          "type": "uint256"
        }
      ],
      "stateMutability": "view",
      "type": "function"
    },
    {
      "inputs": [
        {
          "internalType": "address",
          "name": "_nft",
          "type": "address"
        }
      ],
      "name": "cleanTiers",
      "outputs": [],
      "stateMutability": "nonpayable",
      "type": "function"
    },
    {
      "inputs": [
        {
          "internalType": "address",
          "name": "",
          "type": "address"
        }
      ],
      "name": "defaultReservedTokenBeneficiaryOf",
      "outputs": [
        {
          "internalType": "address",
          "name": "",
          "type": "address"
        }
      ],
      "stateMutability": "view",
      "type": "function"
    },
    {
      "inputs": [
        {
          "internalType": "address",
          "name": "",
          "type": "address"
        },
        {
          "internalType": "uint256",
          "name": "",
          "type": "uint256"
        }
      ],
      "name": "encodedIPFSUriOf",
      "outputs": [
        {
          "internalType": "bytes32",
          "name": "",
          "type": "bytes32"
        }
      ],
      "stateMutability": "view",
      "type": "function"
    },
    {
      "inputs": [
        {
          "internalType": "address",
          "name": "_nft",
          "type": "address"
        },
        {
          "internalType": "uint256",
          "name": "_tokenId",
          "type": "uint256"
        }
      ],
      "name": "encodedTierIPFSUriOf",
      "outputs": [
        {
          "internalType": "bytes32",
          "name": "",
          "type": "bytes32"
        }
      ],
      "stateMutability": "view",
      "type": "function"
    },
    {
      "inputs": [
        {
          "internalType": "address",
          "name": "_nft",
          "type": "address"
        }
      ],
      "name": "flagsOf",
      "outputs": [
        {
          "components": [
            {
              "internalType": "bool",
              "name": "lockReservedTokenChanges",
              "type": "bool"
            },
            {
              "internalType": "bool",
              "name": "lockVotingUnitChanges",
              "type": "bool"
            },
            {
              "internalType": "bool",
              "name": "lockManualMintingChanges",
              "type": "bool"
            },
            {
              "internalType": "bool",
              "name": "preventOverspending",
              "type": "bool"
            }
          ],
          "internalType": "struct JBTiered721Flags",
          "name": "",
          "type": "tuple"
        }
      ],
      "stateMutability": "view",
      "type": "function"
    },
    {
      "inputs": [
        {
          "internalType": "address",
          "name": "_nft",
          "type": "address"
        },
        {
          "internalType": "uint256",
          "name": "_tierId",
          "type": "uint256"
        }
      ],
      "name": "isTierRemoved",
      "outputs": [
        {
          "internalType": "bool",
          "name": "",
          "type": "bool"
        }
      ],
      "stateMutability": "view",
      "type": "function"
    },
    {
      "inputs": [
        {
          "internalType": "address",
          "name": "",
          "type": "address"
        }
      ],
      "name": "maxTierIdOf",
      "outputs": [
        {
          "internalType": "uint256",
          "name": "",
          "type": "uint256"
        }
      ],
      "stateMutability": "view",
      "type": "function"
    },
    {
      "inputs": [
        {
          "internalType": "address",
          "name": "",
          "type": "address"
        },
        {
          "internalType": "uint256",
          "name": "",
          "type": "uint256"
        }
      ],
      "name": "numberOfBurnedFor",
      "outputs": [
        {
          "internalType": "uint256",
          "name": "",
          "type": "uint256"
        }
      ],
      "stateMutability": "view",
      "type": "function"
    },
    {
      "inputs": [
        {
          "internalType": "address",
          "name": "_nft",
          "type": "address"
        },
        {
          "internalType": "uint256",
          "name": "_tierId",
          "type": "uint256"
        }
      ],
      "name": "numberOfReservedTokensOutstandingFor",
      "outputs": [
        {
          "internalType": "uint256",
          "name": "",
          "type": "uint256"
        }
      ],
      "stateMutability": "view",
      "type": "function"
    },
    {
      "inputs": [
        {
          "internalType": "address",
          "name": "",
          "type": "address"
        },
        {
          "internalType": "uint256",
          "name": "",
          "type": "uint256"
        }
      ],
      "name": "numberOfReservesMintedFor",
      "outputs": [
        {
          "internalType": "uint256",
          "name": "",
          "type": "uint256"
        }
      ],
      "stateMutability": "view",
      "type": "function"
    },
    {
      "inputs": [
        {
          "components": [
            {
              "internalType": "uint88",
              "name": "price",
              "type": "uint88"
            },
            {
              "internalType": "uint40",
              "name": "initialQuantity",
              "type": "uint40"
            },
            {
              "internalType": "uint40",
              "name": "votingUnits",
              "type": "uint40"
            },
            {
              "internalType": "uint16",
              "name": "reservedRate",
              "type": "uint16"
            },
            {
              "internalType": "address",
              "name": "reservedTokenBeneficiary",
              "type": "address"
            },
            {
              "internalType": "bytes32",
              "name": "encodedIPFSUri",
              "type": "bytes32"
            },
            {
              "internalType": "uint24",
              "name": "category",
              "type": "uint24"
            },
            {
              "internalType": "bool",
              "name": "allowManualMint",
              "type": "bool"
            },
            {
              "internalType": "bool",
              "name": "shouldUseReservedTokenBeneficiaryAsDefault",
              "type": "bool"
            },
            {
              "internalType": "bool",
              "name": "transfersPausable",
              "type": "bool"
            },
            {
              "internalType": "bool",
              "name": "useVotingUnits",
              "type": "bool"
            }
          ],
          "internalType": "struct JB721TierParams[]",
          "name": "_tiersToAdd",
          "type": "tuple[]"
        }
      ],
      "name": "recordAddTiers",
      "outputs": [
        {
          "internalType": "uint256[]",
          "name": "tierIds",
          "type": "uint256[]"
        }
      ],
      "stateMutability": "nonpayable",
      "type": "function"
    },
    {
      "inputs": [
        {
          "internalType": "uint256[]",
          "name": "_tokenIds",
          "type": "uint256[]"
        }
      ],
      "name": "recordBurn",
      "outputs": [],
      "stateMutability": "nonpayable",
      "type": "function"
    },
    {
      "inputs": [
        {
          "components": [
            {
              "internalType": "bool",
              "name": "lockReservedTokenChanges",
              "type": "bool"
            },
            {
              "internalType": "bool",
              "name": "lockVotingUnitChanges",
              "type": "bool"
            },
            {
              "internalType": "bool",
              "name": "lockManualMintingChanges",
              "type": "bool"
            },
            {
              "internalType": "bool",
              "name": "preventOverspending",
              "type": "bool"
            }
          ],
          "internalType": "struct JBTiered721Flags",
          "name": "_flags",
          "type": "tuple"
        }
      ],
      "name": "recordFlags",
      "outputs": [],
      "stateMutability": "nonpayable",
      "type": "function"
    },
    {
      "inputs": [
        {
          "internalType": "uint256",
          "name": "_amount",
          "type": "uint256"
        },
        {
          "internalType": "uint16[]",
          "name": "_tierIds",
          "type": "uint16[]"
        },
        {
          "internalType": "bool",
          "name": "_isManualMint",
          "type": "bool"
        }
      ],
      "name": "recordMint",
      "outputs": [
        {
          "internalType": "uint256[]",
          "name": "tokenIds",
          "type": "uint256[]"
        },
        {
          "internalType": "uint256",
          "name": "leftoverAmount",
          "type": "uint256"
        }
      ],
      "stateMutability": "nonpayable",
      "type": "function"
    },
    {
      "inputs": [
        {
          "internalType": "uint256",
          "name": "_tierId",
          "type": "uint256"
        },
        {
          "internalType": "uint256",
          "name": "_count",
          "type": "uint256"
        }
      ],
      "name": "recordMintReservesFor",
      "outputs": [
        {
          "internalType": "uint256[]",
          "name": "tokenIds",
          "type": "uint256[]"
        }
      ],
      "stateMutability": "nonpayable",
      "type": "function"
    },
    {
      "inputs": [
        {
          "internalType": "uint256[]",
          "name": "_tierIds",
          "type": "uint256[]"
        }
      ],
      "name": "recordRemoveTierIds",
      "outputs": [],
      "stateMutability": "nonpayable",
      "type": "function"
    },
    {
      "inputs": [
        {
          "internalType": "uint256",
          "name": "_tierId",
          "type": "uint256"
        },
        {
          "internalType": "bytes32",
          "name": "_encodedIPFSUri",
          "type": "bytes32"
        }
      ],
      "name": "recordSetEncodedIPFSUriOf",
      "outputs": [],
      "stateMutability": "nonpayable",
      "type": "function"
    },
    {
      "inputs": [
        {
          "internalType": "contract IJBTokenUriResolver",
          "name": "_resolver",
          "type": "address"
        }
      ],
      "name": "recordSetTokenUriResolver",
      "outputs": [],
      "stateMutability": "nonpayable",
      "type": "function"
    },
    {
      "inputs": [
        {
          "internalType": "uint256",
          "name": "_tierId",
          "type": "uint256"
        },
        {
          "internalType": "address",
          "name": "_from",
          "type": "address"
        },
        {
          "internalType": "address",
          "name": "_to",
          "type": "address"
        }
      ],
      "name": "recordTransferForTier",
      "outputs": [],
      "stateMutability": "nonpayable",
      "type": "function"
    },
    {
      "inputs": [
        {
          "internalType": "address",
          "name": "_nft",
          "type": "address"
        },
        {
          "internalType": "uint256[]",
          "name": "_tokenIds",
          "type": "uint256[]"
        }
      ],
      "name": "redemptionWeightOf",
      "outputs": [
        {
          "internalType": "uint256",
          "name": "weight",
          "type": "uint256"
        }
      ],
      "stateMutability": "view",
      "type": "function"
    },
    {
      "inputs": [
        {
          "internalType": "address",
          "name": "_nft",
          "type": "address"
        },
        {
          "internalType": "uint256",
          "name": "_tierId",
          "type": "uint256"
        }
      ],
      "name": "reservedTokenBeneficiaryOf",
      "outputs": [
        {
          "internalType": "address",
          "name": "",
          "type": "address"
        }
      ],
      "stateMutability": "view",
      "type": "function"
    },
    {
      "inputs": [
        {
          "internalType": "address",
          "name": "",
          "type": "address"
        },
        {
          "internalType": "address",
          "name": "",
          "type": "address"
        },
        {
          "internalType": "uint256",
          "name": "",
          "type": "uint256"
        }
      ],
      "name": "tierBalanceOf",
      "outputs": [
        {
          "internalType": "uint256",
          "name": "",
          "type": "uint256"
        }
      ],
      "stateMutability": "view",
      "type": "function"
    },
    {
      "inputs": [
        {
          "internalType": "uint256",
          "name": "_tokenId",
          "type": "uint256"
        }
      ],
      "name": "tierIdOfToken",
      "outputs": [
        {
          "internalType": "uint256",
          "name": "",
          "type": "uint256"
        }
      ],
      "stateMutability": "pure",
      "type": "function"
    },
    {
      "inputs": [
        {
          "internalType": "address",
          "name": "_nft",
          "type": "address"
        },
        {
          "internalType": "uint256",
          "name": "_id",
          "type": "uint256"
        }
      ],
      "name": "tierOf",
      "outputs": [
        {
          "components": [
            {
              "internalType": "uint256",
              "name": "id",
              "type": "uint256"
            },
            {
              "internalType": "uint256",
              "name": "price",
              "type": "uint256"
            },
            {
              "internalType": "uint256",
              "name": "remainingQuantity",
              "type": "uint256"
            },
            {
              "internalType": "uint256",
              "name": "initialQuantity",
              "type": "uint256"
            },
            {
              "internalType": "uint256",
              "name": "votingUnits",
              "type": "uint256"
            },
            {
              "internalType": "uint256",
              "name": "reservedRate",
              "type": "uint256"
            },
            {
              "internalType": "address",
              "name": "reservedTokenBeneficiary",
              "type": "address"
            },
            {
              "internalType": "bytes32",
              "name": "encodedIPFSUri",
              "type": "bytes32"
            },
            {
              "internalType": "uint256",
              "name": "category",
              "type": "uint256"
            },
            {
              "internalType": "bool",
              "name": "allowManualMint",
              "type": "bool"
            },
            {
              "internalType": "bool",
              "name": "transfersPausable",
              "type": "bool"
            },
            {
              "internalType": "string",
              "name": "resolvedUri",
              "type": "string"
            }
          ],
          "internalType": "struct JB721Tier",
          "name": "",
          "type": "tuple"
        }
      ],
      "stateMutability": "view",
      "type": "function"
    },
    {
      "inputs": [
        {
          "internalType": "address",
          "name": "_nft",
          "type": "address"
        },
        {
          "internalType": "uint256",
          "name": "_tokenId",
          "type": "uint256"
        }
      ],
      "name": "tierOfTokenId",
      "outputs": [
        {
          "components": [
            {
              "internalType": "uint256",
              "name": "id",
              "type": "uint256"
            },
            {
              "internalType": "uint256",
              "name": "price",
              "type": "uint256"
            },
            {
              "internalType": "uint256",
              "name": "remainingQuantity",
              "type": "uint256"
            },
            {
              "internalType": "uint256",
              "name": "initialQuantity",
              "type": "uint256"
            },
            {
              "internalType": "uint256",
              "name": "votingUnits",
              "type": "uint256"
            },
            {
              "internalType": "uint256",
              "name": "reservedRate",
              "type": "uint256"
            },
            {
              "internalType": "address",
              "name": "reservedTokenBeneficiary",
              "type": "address"
            },
            {
              "internalType": "bytes32",
              "name": "encodedIPFSUri",
              "type": "bytes32"
            },
            {
              "internalType": "uint256",
              "name": "category",
              "type": "uint256"
            },
            {
              "internalType": "bool",
              "name": "allowManualMint",
              "type": "bool"
            },
            {
              "internalType": "bool",
              "name": "transfersPausable",
              "type": "bool"
            },
            {
              "internalType": "string",
              "name": "resolvedUri",
              "type": "string"
            }
          ],
          "internalType": "struct JB721Tier",
          "name": "",
          "type": "tuple"
        }
      ],
      "stateMutability": "view",
      "type": "function"
    },
    {
      "inputs": [
        {
          "internalType": "address",
          "name": "_nft",
          "type": "address"
        },
        {
          "internalType": "address",
          "name": "_account",
          "type": "address"
        },
        {
          "internalType": "uint256",
          "name": "_tierId",
          "type": "uint256"
        }
      ],
      "name": "tierVotingUnitsOf",
      "outputs": [
        {
          "internalType": "uint256",
          "name": "",
          "type": "uint256"
        }
      ],
      "stateMutability": "view",
      "type": "function"
    },
    {
      "inputs": [
        {
          "internalType": "address",
          "name": "_nft",
          "type": "address"
        },
        {
          "internalType": "uint256[]",
          "name": "_categories",
          "type": "uint256[]"
        },
        {
          "internalType": "uint256",
          "name": "_startingId",
          "type": "uint256"
        },
        {
          "internalType": "uint256",
          "name": "_size",
          "type": "uint256"
        }
      ],
      "name": "tiersOf",
      "outputs": [
        {
          "components": [
            {
              "internalType": "uint256",
              "name": "id",
              "type": "uint256"
            },
            {
              "internalType": "uint256",
              "name": "price",
              "type": "uint256"
            },
            {
              "internalType": "uint256",
              "name": "remainingQuantity",
              "type": "uint256"
            },
            {
              "internalType": "uint256",
              "name": "initialQuantity",
              "type": "uint256"
            },
            {
              "internalType": "uint256",
              "name": "votingUnits",
              "type": "uint256"
            },
            {
              "internalType": "uint256",
              "name": "reservedRate",
              "type": "uint256"
            },
            {
              "internalType": "address",
              "name": "reservedTokenBeneficiary",
              "type": "address"
            },
            {
              "internalType": "bytes32",
              "name": "encodedIPFSUri",
              "type": "bytes32"
            },
            {
              "internalType": "uint256",
              "name": "category",
              "type": "uint256"
            },
            {
              "internalType": "bool",
              "name": "allowManualMint",
              "type": "bool"
            },
            {
              "internalType": "bool",
              "name": "transfersPausable",
              "type": "bool"
            },
            {
              "internalType": "string",
              "name": "resolvedUri",
              "type": "string"
            }
          ],
          "internalType": "struct JB721Tier[]",
          "name": "_tiers",
          "type": "tuple[]"
        }
      ],
      "stateMutability": "view",
      "type": "function"
    },
    {
      "inputs": [
        {
          "internalType": "address",
          "name": "",
          "type": "address"
        }
      ],
      "name": "tokenUriResolverOf",
      "outputs": [
        {
          "internalType": "contract IJBTokenUriResolver",
          "name": "",
          "type": "address"
        }
      ],
      "stateMutability": "view",
      "type": "function"
    },
    {
      "inputs": [
        {
          "internalType": "address",
          "name": "_nft",
          "type": "address"
        }
      ],
      "name": "totalRedemptionWeight",
      "outputs": [
        {
          "internalType": "uint256",
          "name": "weight",
          "type": "uint256"
        }
      ],
      "stateMutability": "view",
      "type": "function"
    },
    {
      "inputs": [
        {
          "internalType": "address",
          "name": "_nft",
          "type": "address"
        }
      ],
      "name": "totalSupply",
      "outputs": [
        {
          "internalType": "uint256",
          "name": "supply",
          "type": "uint256"
        }
      ],
      "stateMutability": "view",
      "type": "function"
    },
    {
      "inputs": [
        {
          "internalType": "address",
          "name": "_nft",
          "type": "address"
        },
        {
          "internalType": "address",
          "name": "_account",
          "type": "address"
        }
      ],
      "name": "votingUnitsOf",
      "outputs": [
        {
          "internalType": "uint256",
          "name": "units",
          "type": "uint256"
        }
      ],
      "stateMutability": "view",
      "type": "function"
    }
  ],
  "bytecode": {
    "object": "0x608060405234801561001057600080fd5b50613686806100206000396000f3fe608060405234801561001057600080fd5b50600436106101f05760003560e01c80636825bb801161010f578063c2c55f94116100a2578063e4dc2aa411610071578063e4dc2aa414610600578063eaa19ab314610613578063f1bea54f14610634578063f7888aec1461065457600080fd5b8063c2c55f941461058a578063c8df17101461059d578063cb827e32146105b0578063d84a72c0146105c357600080fd5b806393355578116100de5780639335557814610526578063b67cb04714610539578063baa7e80e1461054c578063bd51923c1461055f57600080fd5b80636825bb80146103ef578063845104de1461041a57806386bc2be3146104ea578063911c80b5146104fd57600080fd5b806335314b921161018757806342f9914b1161015657806342f9914b1461036c57806349bd1ac61461037f5780635aff6200146103ac5780635f646611146103cc57600080fd5b806335314b92146102e85780633720b81a146102fb57806337f446521461031b5780634223f60e1461034c57600080fd5b806320512ba1116101c357806320512ba1146102845780632ae5e492146102975780632b7e6ef0146102aa5780632e4d0ea8146102d557600080fd5b8063086bb19a146101f55780630fab09471461020a578063136e651c14610250578063144cc2d414610263575b600080fd5b610208610203366004612c5b565b610667565b005b610233610218366004612c5b565b600c602052600090815260409020546001600160a01b031681565b6040516001600160a01b0390911681526020015b60405180910390f35b61023361025e366004612c78565b6107fc565b610276610271366004612cef565b610855565b604051908152602001610247565b610208610292366004612d43565b6108d3565b6102766102a5366004612c5b565b610928565b6102766102b8366004612c78565b600a60209081526000928352604080842090915290825290205481565b6102766102e3366004612d84565b610a89565b6102766102f6366004612c78565b610b11565b61030e610309366004612dc5565b610bdf565b6040516102479190612e75565b610276610329366004612d84565b600860209081526000938452604080852082529284528284209052825290205481565b61035f61035a366004612c78565b61145f565b6040516102479190612f80565b61027661037a366004612f93565b6116f0565b61020861038d366004612fac565b336000908152600d602090815260408083209483529390529190912055565b6103bf6103ba36600461303d565b611700565b6040516102479190613105565b6103df6103da366004612c78565b611b9c565b6040519015158152602001610247565b6102766103fd366004612c78565b600960209081526000928352604080842090915290825290205481565b6104af610428366004612c5b565b604080516080810182526000808252602082018190529181018290526060810191909152506001600160a01b03166000908152600360209081526040918290208251608081018452905460ff808216151583526101008204811615159383019390935262010000810483161515938201939093526301000000909204161515606082015290565b604051610247919081511515815260208083015115159082015260408083015115159082015260609182015115159181019190915260800190565b6102086104f8366004612d43565b611bd4565b61023361050b366004612c5b565b600b602052600090815260409020546001600160a01b031681565b610276610534366004613167565b611c98565b61035f610547366004612c78565b611e10565b61030e61055a366004612fac565b6120af565b61027661056d366004612c78565b600d60209081526000928352604080842090915290825290205481565b6102086105983660046131a0565b6122db565b6102766105ab366004612c78565b61236f565b6102086105be3660046131e2565b6123a8565b6102086105d1366004612c5b565b336000908152600c6020526040902080546001600160a01b0319166001600160a01b0392909216919091179055565b61027661060e366004612c5b565b6123c3565b610626610621366004613213565b61244b565b604051610247929190613271565b610276610642366004612c5b565b60076020526000908152604090205481565b610276610662366004613167565b6127ae565b60006106728261281a565b9050600061068183600061285b565b6001600160a01b03841660009081526004602052604081209192509081906106a990846128c2565b90505b82156107b7576106bc8184612908565b156106e6576001600160a01b03851660009081526004602052604090206106e390846128c2565b90505b6106f08184612922565b6107a5576106ff8260016132a9565b8314610757576001600160a01b0385166000908152602081815260408083208584529091529020548314610752576001600160a01b03851660009081526020818152604080832085845290915290208390555b6107a1565b6001600160a01b038516600090815260208181526040808320858452909152902054156107a1576001600160a01b0385166000908152602081815260408083208584529091528120555b8291505b6107b0858486612941565b92506106ac565b6040513381526001600160a01b038616907f4a0f854ce3c180d56f3e9eb47eb064c595bf3de0ab9af45425291e5b1bb733a89060200160405180910390a25050505050565b6001600160a01b038083166000908152600160209081526040808320858452909152812054909116801561083157905061084f565b50506001600160a01b038083166000908152600b6020526040902054165b92915050565b600081815b818110156108ca576001600160a01b03861660009081526002602052604081209061089c878785818110610890576108906132bc565b905060200201356116f0565b81526020810191909152604001600020546108c0906001600160581b0316846132a9565b925060010161085a565b50509392505050565b806000805b82811015610921578484828181106108f2576108f26132bc565b3360009081526004602090815260409091209102929092013593506109199190508361298c565b6001016108d8565b5050505050565b6001600160a01b038116600090815260076020526040812054610949612b1f565b60005b82811015610a81576001600160a01b0385166000908152600260209081526040808320600180860185529083529281902081516101208101835281546001600160581b038116825264ffffffffff600160581b8204811695830195909552600160801b8104851693820193909352600160a81b8304909316606084015262ffffff600160d01b830416608084015261ffff600160e81b83041660a084015260ff600160f81b9092048216151560c0840152830154808216151560e0840152610100908190049091161515908201529250610a33908690610a2d9084906132a9565b846129c5565b82602001518360400151610a4791906132d2565b64ffffffffff16610a5891906132a9565b8251610a6d91906001600160581b03166132f7565b610a7790856132a9565b935060010161094c565b505050919050565b6001600160a01b0380841660009081526008602090815260408083209386168352928152828220848352905290812054808203610aca576000915050610b0a565b6001600160a01b0385166000908152600260209081526040808320868452909152902054610b0690600160a81b900464ffffffffff16826132f7565b9150505b9392505050565b6001600160a01b0382166000908152600260209081526040808320848452825280832081516101208101835281546001600160581b038116825264ffffffffff600160581b8204811695830195909552600160801b8104851693820193909352600160a81b8304909316606084015262ffffff600160d01b830416608084015261ffff600160e81b83041660a084015260ff600160f81b9092048216151560c084015260010154808216151560e084015261010090819004909116151590820152610b0a90849084906129c5565b33600090815260076020526040902054606090829061ffff610c0183836132a9565b1115610c2057604051631bc68c8b60e11b815260040160405180910390fd5b6000610c2b3361281a565b9050826001600160401b03811115610c4557610c45612fce565b604051908082528060200260200182016040528015610c6e578160200160208202803683370190505b50935060008215610c8957610c8433600061285b565b610c8c565b60005b90506000610c98612b6b565b3360009081526003602090815260408083208151608081018352905460ff80821615158352610100820481161515948301949094526201000081048416151592820192909252630100000090910490911615156060820152905b87811015611436578a8a82818110610d0c57610d0c6132bc565b90506101600201803603810190610d23919061335f565b9250610d346001633b9aca00613432565b836020015164ffffffffff161115610d5f576040516349016ea360e01b815260040160405180910390fd5b610d67612b6b565b8115610dd5578b8b610d7a600185613432565b818110610d8957610d896132bc565b90506101600201803603810190610da0919061335f565b90508060c0015162ffffff168460c0015162ffffff161015610dd557604051631cabebd560e21b815260040160405180910390fd5b82602001518015610df05750604084015164ffffffffff1615155b15610e0e57604051630189200360e11b815260040160405180910390fd5b825180610e1c57508360e001515b8015610e2f5750606084015161ffff1615155b15610e4d5760405163a75b1cd560e01b815260040160405180910390fd5b82604001518015610e5f57508360e001515b15610e7d576040516330ec637f60e01b815260040160405180910390fd5b836020015164ffffffffff16600003610ea957604051631e0a863160e31b815260040160405180910390fd5b6000610eb5838a6132a9565b610ec09060016132a9565b905060405180610120016040528086600001516001600160581b03168152602001866020015164ffffffffff168152602001866020015164ffffffffff168152602001866040015164ffffffffff1681526020018660c0015162ffffff168152602001866060015161ffff1681526020018660e001511515815260200186610120015115158152602001866101400151151581525060026000336001600160a01b03166001600160a01b03168152602001908152602001600020600083815260200190815260200160002060008201518160000160006101000a8154816001600160581b0302191690836001600160581b03160217905550602082015181600001600b6101000a81548164ffffffffff021916908364ffffffffff16021790555060408201518160000160106101000a81548164ffffffffff021916908364ffffffffff16021790555060608201518160000160156101000a81548164ffffffffff021916908364ffffffffff160217905550608082015181600001601a6101000a81548162ffffff021916908362ffffff16021790555060a082015181600001601d6101000a81548161ffff021916908361ffff16021790555060c082015181600001601f6101000a81548160ff02191690831515021790555060e08201518160010160006101000a81548160ff0219169083151502179055506101008201518160010160016101000a81548160ff0219169083151502179055509050508460c0015162ffffff168260c0015162ffffff1614158015611109575060c085015162ffffff1615155b156111355733600090815260066020908152604080832060c089015162ffffff16845290915290208190555b60808501516001600160a01b0316156111ee57846101000151156111b1576080850151336000908152600b60205260409020546001600160a01b039081169116146111ac576080850151336000908152600b6020526040902080546001600160a01b0319166001600160a01b039092169190911790555b6111ee565b6080850151336000908152600160209081526040808320858452909152902080546001600160a01b0319166001600160a01b039092169190911790555b60a0850151156112195760a0850151336000908152600d602090815260408083208584529091529020555b861561140e5733600090815260046020526040812088919061123b90836128c2565b905060005b821561140a576112508284612908565b156112715733600090815260046020526040902061126e90846128c2565b91505b61127c33848d612941565b33600090815260026020908152604080832087845290915290205460c08a015191925062ffffff600160d01b90910481169116118015906112bd57508b8311155b15611390576112cd8460016132a9565b83146112ef573360009081526020818152604080832087845290915290208390555b336000908152600560205260409020548b14611318573360009081526005602052604090208b90555b611323600185613432565b891415806113485750336000908152602081815260408083208c845290915290205415155b1561138157611358600185613432565b89146113645783611367565b60005b336000908152602081815260408083208d84529091529020555b82995083985060009250611240565b80158061139c57508b81115b15611401576113ac8360016132a9565b84146113ce573360009081526020818152604080832086845290915290208490555b33600090815260056020526040812054949a508a94909350156113fc57336000908152600560205260408120555b611240565b91975081611240565b5050505b808b8481518110611421576114216132bc565b60209081029190910101525050600101610cf2565b5061144187876132a9565b33600090815260076020526040902055509598975050505050505050565b611467612bc7565b6001600160a01b0383166000908152600260209081526040808320858452825280832081516101208101835281546001600160581b038116825264ffffffffff600160581b8204811695830195909552600160801b8104851693820193909352600160a81b8304909316606084015262ffffff600160d01b830416608084015261ffff600160e81b83041660a084015260ff600160f81b9092048216151560c084015260010154808216151560e0840152610100908190049091161515908201529061153385856107fc565b905060405180610180016040528085815260200183600001516001600160581b03168152602001836020015164ffffffffff168152602001836040015164ffffffffff16815260200183610100015161158d57835161159a565b836060015164ffffffffff165b6001600160581b031681526020016001600160a01b038316156115c1578360a001516115c4565b60005b61ffff1681526001600160a01b038084166020808401919091528882166000818152600d835260408082208b8352845280822054818701526080808a015162ffffff16606088015260c0808b015115159188019190915260e08a0151151560a0880152928252600c909352919091205492019116156116d4576001600160a01b038088166000908152600c60205260408120549091169063da0544aa9061166c908990612b04565b6040518263ffffffff1660e01b815260040161168a91815260200190565b600060405180830381865afa1580156116a7573d6000803e3d6000fd5b505050506040513d6000823e601f3d908101601f191682016040526116cf9190810190613445565b6116e5565b604051806020016040528060008152505b905295945050505050565b600061084f633b9aca00836134ee565b6060816001600160401b0381111561171a5761171a612fce565b60405190808252806020026020018201604052801561175357816020015b611740612bc7565b8152602001906001900390816117385790505b5090506000611760612b1f565b60005b865115611771578651611774565b60015b811015611b8657828514611b86576000866000036117c4576117bf8989516000146117b8578984815181106117ab576117ab6132bc565b602002602001015161285b565b600061285b565b6117c6565b865b6001600160a01b038a166000908152600460205260408120919250906117ec90836128c2565b90505b81158015906117fd57508685105b15611b7c5761180c8183612908565b15611836576001600160a01b038a16600090815260046020526040902061183390836128c2565b90505b6118408183612922565b611b62576001600160a01b038a16600090815260026020908152604080832085845282529182902082516101208101845281546001600160581b038116825264ffffffffff600160581b8204811694830194909452600160801b8104841694820194909452600160a81b8404909216606083015262ffffff600160d01b840416608083015261ffff600160e81b84041660a083015260ff600160f81b9093048316151560c083015260010154808316151560e08301526101009081900490921615159181019190915289519094501580159061193d5750888381518110611929576119296132bc565b6020026020010151846080015162ffffff16115b611b7c57600061194d8b846107fc565b9050895160001480611980575089848151811061196c5761196c6132bc565b6020026020010151856080015162ffffff16145b15611b605760405180610180016040528084815260200186600001516001600160581b03168152602001866020015164ffffffffff168152602001866040015164ffffffffff1681526020018661010001516119dd5786516119ea565b866060015164ffffffffff165b6001600160581b031681526020016001600160a01b03831615611a11578660a00151611a14565b60005b61ffff1681526001600160a01b038084166020808401919091528e82166000818152600d835260408082208a8352845280822054818701526080808d015162ffffff16606088015260c0808e015115159188019190915260e08d0151151560a0880152928252600c90935291909120549201911615611b24576001600160a01b03808e166000908152600c60205260408120549091169063da0544aa90611abc908890612b04565b6040518263ffffffff1660e01b8152600401611ada91815260200190565b600060405180830381865afa158015611af7573d6000803e3d6000fd5b505050506040513d6000823e601f3d908101601f19168201604052611b1f9190810190613445565b611b35565b604051806020016040528060008152505b90528787611b4281613502565b985081518110611b5457611b546132bc565b60200260200101819052505b505b611b758a83611b708d61281a565b612941565b91506117ef565b5050600101611763565b50838214611b92578183525b5050949350505050565b6001600160a01b03821660009081526004602052604081208190611bc090846128c2565b9050611bcc8184612922565b949350505050565b806000805b8281101561092157848482818110611bf357611bf36132bc565b9050602002013591506000611c07836116f0565b336000908152600a602090815260408083208484529091528120805492935090611c3083613502565b909155505033600090815260026020908152604080832084845290915290208054600160581b900464ffffffffff1690600b611c6b8361351b565b91906101000a81548164ffffffffff021916908364ffffffffff1602179055505081600101915050611bd9565b6001600160a01b03821660009081526007602052604081205481611cba612b1f565b825b8015611e06576001600160a01b038088166000908152600860209081526040808320938a1683529281528282208483529052205492508215611dc0576001600160a01b038716600090815260026020908152604080832084845282529182902082516101208101845281546001600160581b038116825264ffffffffff600160581b8204811694830194909452600160801b8104841694820194909452600160a81b8404909216606083015262ffffff600160d01b840416608083015261ffff600160e81b84041660a083015260ff600160f81b9093048316151560c083015260010154808316151560e08301526101009081900490921615159181019190915291505b816101000151611dd1578151611dde565b816060015164ffffffffff165b611df1906001600160581b0316846132f7565b611dfb90866132a9565b945060001901611cbc565b5050505092915050565b611e18612bc7565b6000611e23836116f0565b6001600160a01b0385166000908152600260209081526040808320848452825280832081516101208101835281546001600160581b038116825264ffffffffff600160581b8204811695830195909552600160801b8104851693820193909352600160a81b8304909316606084015262ffffff600160d01b830416608084015261ffff600160e81b83041660a084015260ff600160f81b9092048216151560c084015260010154808216151560e084015261010090819004909116151590820152919250611ef186846107fc565b905060405180610180016040528084815260200183600001516001600160581b03168152602001836020015164ffffffffff168152602001836040015164ffffffffff168152602001836101000151611f4b578351611f58565b836060015164ffffffffff165b6001600160581b031681526020016001600160a01b03831615611f7f578360a00151611f82565b60005b61ffff1681526001600160a01b038084166020808401919091528982166000818152600d835260408082208a8352845280822054818701526080808a015162ffffff16606088015260c0808b015115159188019190915260e08a0151151560a0880152928252600c90935291909120549201911615612092576001600160a01b038089166000908152600c60205260408120549091169063da0544aa9061202a908890612b04565b6040518263ffffffff1660e01b815260040161204891815260200190565b600060405180830381865afa158015612065573d6000803e3d6000fd5b505050506040513d6000823e601f3d908101601f1916820160405261208d9190810190613445565b6120a3565b604051806020016040528060008152505b90529695505050505050565b336000818152600260209081526040808320868452825280832081516101208101835281546001600160581b0381168252600160581b810464ffffffffff90811695830195909552600160801b8104851693820193909352600160a81b8304909316606080850191909152600160d01b830462ffffff166080850152600160e81b830461ffff1660a0850152600160f81b90920460ff908116151560c08501526001820154808216151560e086015261010090819004909116151590840152909390929161217f919087906129c5565b9050808411156121a25760405163226f999960e11b815260040160405180910390fd5b336000908152600960209081526040808320888452909152812080548692906121cc9084906132a9565b909155508490506001600160401b038111156121ea576121ea612fce565b604051908082528060200260200182016040528015612213578160200160208202803683370190505b50336000908152600a602090815260408083208984529091528120549194505b85811015611e06576122b6878386600001600b81819054906101000a900464ffffffffff166122619061353f565b91906101000a81548164ffffffffff021916908364ffffffffff16021790558760000160109054906101000a900464ffffffffff166122a091906132d2565b64ffffffffff166122b191906132a9565b612b04565b8582815181106122c8576122c86132bc565b6020908102919091010152600101612233565b6001600160a01b03821615612328573360009081526008602090815260408083206001600160a01b038616845282528083208684529091528120805490919061232390613560565b909155505b6001600160a01b0381161561236a573360009081526008602090815260408083206001600160a01b038516845282528083208684529091529020805460010190555b505050565b6001600160a01b0382166000908152600d6020526040812081612391846116f0565b815260200190815260200160002054905092915050565b336000908152600360205260409020819061236a8282613584565b6001600160a01b0381166000908152600760205260408120548190805b8015610a81576001600160a01b03851660009081526002602090815260408083208484529091529020805490935061242f9064ffffffffff600160581b8204811691600160801b9004166132d2565b6124409064ffffffffff16856132a9565b9350600019016123e0565b60608483600080826001600160401b0381111561246a5761246a612fce565b604051908082528060200260200182016040528015612493578160200160208202803683370190505b50945060006124dc898960008181106124ae576124ae6132bc565b90506020020160208101906124c39190613621565b3360009081526004602052604090209061ffff166128c2565b905060005b848110156127a0578989828181106124fb576124fb6132bc565b90506020020160208101906125109190613621565b61ffff1692506125208284612908565b156125415733600090815260046020526040902061253e90846128c2565b91505b61254b8284612922565b156125695760405163d32cb5c160e01b815260040160405180910390fd5b3360009081526002602090815260408083208684529091529020935087801561259b57508354600160f81b900460ff16155b156125b957604051632f792d3960e11b815260040160405180910390fd5b8354600160801b900464ffffffffff166000036125e957604051630de5859f60e01b815260040160405180910390fd5b83546001600160581b031686101561261457604051632cd294cf60e01b815260040160405180910390fd5b604080516101208101825285546001600160581b0381168252600160581b810464ffffffffff9081166020840152600160801b8204811693830193909352600160a81b81049092166060820152600160d01b820462ffffff166080820152600160e81b820461ffff1660a0820152600160f81b90910460ff908116151560c08301526001860154808216151560e0840152610100908190049091161515908201526126c290339085906129c5565b84546126dc9190600160581b900464ffffffffff16613432565b6000036126fc5760405163985a45d960e01b815260040160405180910390fd5b336000908152600a60209081526040808320868452909152902054845460001964ffffffffff600160581b808404821692830182160264ffffffffff60581b1990931692909217808855612764938793600160801b9092048216929092036001011601612b04565b878281518110612776576127766132bc565b60209081029190910101528354612796906001600160581b031687613432565b95506001016124e1565b505050505094509492505050565b6001600160a01b038216600090815260076020526040812054805b8015612812576001600160a01b03808616600090815260086020908152604080832093881683529281528282208483529052205461280790846132a9565b9250600019016127c9565b505092915050565b6001600160a01b0381166000908152600560205260408120549081900361285657506001600160a01b0381166000908152600760205260409020545b919050565b6000811561288c576001600160a01b03831660009081526006602090815260408083208584529091529020546128af565b6001600160a01b0383166000908152602081815260408083208380529091529020545b90508060000361084f5750600192915050565b604080518082019091526000808252602082015260006128e28360081c90565b604080518082018252600083815260209788529190912054815294850152509192915050565b600082602001516129198360081c90565b14159392505050565b60006129306101008361363c565b83516001911c811614905092915050565b600081830361295257506000610b0a565b6001600160a01b0384166000908152602081815260408083208684529091529020548015612981579050610b0a565b610b068460016132a9565b60006129988260081c90565b90506129a66101008361363c565b6000918252602093909352604090208054600190931b90921790915550565b60008160a0015161ffff16600014806129f35750816020015164ffffffffff16826040015164ffffffffff16145b80612a1057506000612a0585856107fc565b6001600160a01b0316145b15612a1d57506000610b0a565b6001600160a01b0384166000908152600960209081526040808320868452825291829020549084015191840151909164ffffffffff90811691612a6291849116613432565b03612a71576000915050610b0a565b60008184602001518560400151612a8891906132d2565b64ffffffffff16612a999190613432565b905060008460a0015161ffff1682612ab191906134ee565b905060008560a0015161ffff1683612ac9919061363c565b1115612adb57612ad881613502565b90505b80831115612aef5760009350505050610b0a565b612af98382613432565b979650505050505050565b600081612b15633b9aca00856132f7565b610b0a91906132a9565b6040805161012081018252600080825260208201819052918101829052606081018290526080810182905260a0810182905260c0810182905260e0810182905261010081019190915290565b6040805161016081018252600080825260208201819052918101829052606081018290526080810182905260a0810182905260c0810182905260e081018290526101008101829052610120810182905261014081019190915290565b60405180610180016040528060008152602001600081526020016000815260200160008152602001600081526020016000815260200160006001600160a01b031681526020016000801916815260200160008152602001600015158152602001600015158152602001606081525090565b6001600160a01b0381168114612c4d57600080fd5b50565b803561285681612c38565b600060208284031215612c6d57600080fd5b8135610b0a81612c38565b60008060408385031215612c8b57600080fd5b8235612c9681612c38565b946020939093013593505050565b60008083601f840112612cb657600080fd5b5081356001600160401b03811115612ccd57600080fd5b6020830191508360208260051b8501011115612ce857600080fd5b9250929050565b600080600060408486031215612d0457600080fd5b8335612d0f81612c38565b925060208401356001600160401b03811115612d2a57600080fd5b612d3686828701612ca4565b9497909650939450505050565b60008060208385031215612d5657600080fd5b82356001600160401b03811115612d6c57600080fd5b612d7885828601612ca4565b90969095509350505050565b600080600060608486031215612d9957600080fd5b8335612da481612c38565b92506020840135612db481612c38565b929592945050506040919091013590565b60008060208385031215612dd857600080fd5b82356001600160401b0380821115612def57600080fd5b818501915085601f830112612e0357600080fd5b813581811115612e1257600080fd5b86602061016083028501011115612e2857600080fd5b60209290920196919550909350505050565b600081518084526020808501945080840160005b83811015612e6a57815187529582019590820190600101612e4e565b509495945050505050565b602081526000610b0a6020830184612e3a565b60005b83811015612ea3578181015183820152602001612e8b565b50506000910152565b60008151808452612ec4816020860160208601612e88565b601f01601f19169290920160200192915050565b6000610180825184526020830151602085015260408301516040850152606083015160608501526080830151608085015260a083015160a085015260c0830151612f2d60c08601826001600160a01b03169052565b5060e083810151908501526101008084015190850152610120808401511515908501526101408084015115159085015261016080840151818601839052612f7683870182612eac565b9695505050505050565b602081526000610b0a6020830184612ed8565b600060208284031215612fa557600080fd5b5035919050565b60008060408385031215612fbf57600080fd5b50508035926020909101359150565b634e487b7160e01b600052604160045260246000fd5b60405161016081016001600160401b038111828210171561300757613007612fce565b60405290565b604051601f8201601f191681016001600160401b038111828210171561303557613035612fce565b604052919050565b6000806000806080858703121561305357600080fd5b843561305e81612c38565b93506020858101356001600160401b038082111561307b57600080fd5b818801915088601f83011261308f57600080fd5b8135818111156130a1576130a1612fce565b8060051b91506130b284830161300d565b818152918301840191848101908b8411156130cc57600080fd5b938501935b838510156130ea578435825293850193908501906130d1565b989b989a505050506040870135966060013595945050505050565b6000602080830181845280855180835260408601915060408160051b870101925083870160005b8281101561315a57603f19888603018452613148858351612ed8565b9450928501929085019060010161312c565b5092979650505050505050565b6000806040838503121561317a57600080fd5b823561318581612c38565b9150602083013561319581612c38565b809150509250929050565b6000806000606084860312156131b557600080fd5b8335925060208401356131c781612c38565b915060408401356131d781612c38565b809150509250925092565b6000608082840312156131f457600080fd5b50919050565b8015158114612c4d57600080fd5b8035612856816131fa565b6000806000806060858703121561322957600080fd5b8435935060208501356001600160401b0381111561324657600080fd5b61325287828801612ca4565b9094509250506040850135613266816131fa565b939692955090935050565b6040815260006132846040830185612e3a565b90508260208301529392505050565b634e487b7160e01b600052601160045260246000fd5b8082018082111561084f5761084f613293565b634e487b7160e01b600052603260045260246000fd5b64ffffffffff8281168282160390808211156132f0576132f0613293565b5092915050565b808202811582820484141761084f5761084f613293565b80356001600160581b038116811461285657600080fd5b803564ffffffffff8116811461285657600080fd5b803561ffff8116811461285657600080fd5b803562ffffff8116811461285657600080fd5b6000610160828403121561337257600080fd5b61337a612fe4565b6133838361330e565b815261339160208401613325565b60208201526133a260408401613325565b60408201526133b36060840161333a565b60608201526133c460808401612c50565b608082015260a083013560a08201526133df60c0840161334c565b60c08201526133f060e08401613208565b60e0820152610100613403818501613208565b90820152610120613415848201613208565b90820152610140613427848201613208565b908201529392505050565b8181038181111561084f5761084f613293565b60006020828403121561345757600080fd5b81516001600160401b038082111561346e57600080fd5b818401915084601f83011261348257600080fd5b81518181111561349457613494612fce565b6134a7601f8201601f191660200161300d565b91508082528560208285010111156134be57600080fd5b6134cf816020840160208601612e88565b50949350505050565b634e487b7160e01b600052601260045260246000fd5b6000826134fd576134fd6134d8565b500490565b60006001820161351457613514613293565b5060010190565b600064ffffffffff80831681810361353557613535613293565b6001019392505050565b600064ffffffffff82168061355657613556613293565b6000190192915050565b60008161356f5761356f613293565b506000190190565b6000813561084f816131fa565b813561358f816131fa565b815460ff19811691151560ff16918217835560208401356135af816131fa565b61ff0090151560081b1661ffff19821683178117845560408501356135d3816131fa565b62ff000081151560101b168462ffffff1985161783171785555050505061361d6135ff60608401613577565b82805463ff000000191691151560181b63ff00000016919091179055565b5050565b60006020828403121561363357600080fd5b610b0a8261333a565b60008261364b5761364b6134d8565b50069056fea26469706673582212208f102872cbc1e4fb1d1c3047990625cdfffbb6a4b114bbcec1431254930cff9a64736f6c63430008110033",
    "linkReferences": {}
  },
  "methodIdentifiers": {
    "balanceOf(address,address)": "f7888aec",
    "cleanTiers(address)": "086bb19a",
    "defaultReservedTokenBeneficiaryOf(address)": "911c80b5",
    "encodedIPFSUriOf(address,uint256)": "bd51923c",
    "encodedTierIPFSUriOf(address,uint256)": "c8df1710",
    "flagsOf(address)": "845104de",
    "isTierRemoved(address,uint256)": "5f646611",
    "maxTierIdOf(address)": "f1bea54f",
    "numberOfBurnedFor(address,uint256)": "2b7e6ef0",
    "numberOfReservedTokensOutstandingFor(address,uint256)": "35314b92",
    "numberOfReservesMintedFor(address,uint256)": "6825bb80",
    "recordAddTiers((uint88,uint40,uint40,uint16,address,bytes32,uint24,bool,bool,bool,bool)[])": "3720b81a",
    "recordBurn(uint256[])": "86bc2be3",
    "recordFlags((bool,bool,bool,bool))": "cb827e32",
    "recordMint(uint256,uint16[],bool)": "eaa19ab3",
    "recordMintReservesFor(uint256,uint256)": "baa7e80e",
    "recordRemoveTierIds(uint256[])": "20512ba1",
    "recordSetEncodedIPFSUriOf(uint256,bytes32)": "49bd1ac6",
    "recordSetTokenUriResolver(address)": "d84a72c0",
    "recordTransferForTier(uint256,address,address)": "c2c55f94",
    "redemptionWeightOf(address,uint256[])": "144cc2d4",
    "reservedTokenBeneficiaryOf(address,uint256)": "136e651c",
    "tierBalanceOf(address,address,uint256)": "37f44652",
    "tierIdOfToken(uint256)": "42f9914b",
    "tierOf(address,uint256)": "4223f60e",
    "tierOfTokenId(address,uint256)": "b67cb047",
    "tierVotingUnitsOf(address,address,uint256)": "2e4d0ea8",
    "tiersOf(address,uint256[],uint256,uint256)": "5aff6200",
    "tokenUriResolverOf(address)": "0fab0947",
    "totalRedemptionWeight(address)": "2ae5e492",
    "totalSupply(address)": "e4dc2aa4",
    "votingUnitsOf(address,address)": "93355578"
  },
  "id": 3
}