{
  "abi": [
    {
      "inputs": [],
      "name": "CANT_MINT_MANUALLY",
      "type": "error"
    },
    {
      "inputs": [],
      "name": "INSUFFICIENT_AMOUNT",
      "type": "error"
    },
    {
      "inputs": [],
      "name": "INSUFFICIENT_RESERVES",
      "type": "error"
    },
    {
      "inputs": [],
      "name": "INVALID_CATEGORY_SORT_ORDER",
      "type": "error"
    },
    {
      "inputs": [],
      "name": "INVALID_QUANTITY",
      "type": "error"
    },
    {
      "inputs": [],
      "name": "INVALID_TIER",
      "type": "error"
    },
    {
      "inputs": [],
      "name": "MANUAL_MINTING_NOT_ALLOWED",
      "type": "error"
    },
    {
      "inputs": [],
      "name": "MAX_TIERS_EXCEEDED",
      "type": "error"
    },
    {
      "inputs": [],
      "name": "NO_QUANTITY",
      "type": "error"
    },
    {
      "inputs": [],
      "name": "OUT",
      "type": "error"
    },
    {
      "inputs": [],
      "name": "RESERVED_RATE_NOT_ALLOWED",
      "type": "error"
    },
    {
      "inputs": [],
      "name": "TIER_REMOVED",
      "type": "error"
    },
    {
      "inputs": [],
      "name": "VOTING_UNITS_NOT_ALLOWED",
      "type": "error"
    },
    {
      "anonymous": false,
      "inputs": [
        {
          "indexed": true,
          "internalType": "address",
          "name": "nft",
          "type": "address"
        },
        {
          "indexed": false,
          "internalType": "address",
          "name": "caller",
          "type": "address"
        }
      ],
      "name": "CleanTiers",
      "type": "event"
    },
    {
      "inputs": [
        {
          "internalType": "address",
          "name": "_nft",
          "type": "address"
        },
        {
          "internalType": "address",
          "name": "_owner",
          "type": "address"
        }
      ],
      "name": "balanceOf",
      "outputs": [
        {
          "internalType": "uint256",
          "name": "balance",
          "type": "uint256"
        }
      ],
      "stateMutability": "view",
      "type": "function"
    },
    {
      "inputs": [
        {
          "internalType": "address",
          "name": "_nft",
          "type": "address"
        }
      ],
      "name": "cleanTiers",
      "outputs": [],
      "stateMutability": "nonpayable",
      "type": "function"
    },
    {
      "inputs": [
        {
          "internalType": "address",
          "name": "",
          "type": "address"
        }
      ],
      "name": "defaultReservedTokenBeneficiaryOf",
      "outputs": [
        {
          "internalType": "address",
          "name": "",
          "type": "address"
        }
      ],
      "stateMutability": "view",
      "type": "function"
    },
    {
      "inputs": [
        {
          "internalType": "address",
          "name": "",
          "type": "address"
        },
        {
          "internalType": "uint256",
          "name": "",
          "type": "uint256"
        }
      ],
      "name": "encodedIPFSUriOf",
      "outputs": [
        {
          "internalType": "bytes32",
          "name": "",
          "type": "bytes32"
        }
      ],
      "stateMutability": "view",
      "type": "function"
    },
    {
      "inputs": [
        {
          "internalType": "address",
          "name": "_nft",
          "type": "address"
        },
        {
          "internalType": "uint256",
          "name": "_tokenId",
          "type": "uint256"
        }
      ],
      "name": "encodedTierIPFSUriOf",
      "outputs": [
        {
          "internalType": "bytes32",
          "name": "",
          "type": "bytes32"
        }
      ],
      "stateMutability": "view",
      "type": "function"
    },
    {
      "inputs": [
        {
          "internalType": "address",
          "name": "_nft",
          "type": "address"
        }
      ],
      "name": "flagsOf",
      "outputs": [
        {
          "components": [
            {
              "internalType": "bool",
              "name": "lockReservedTokenChanges",
              "type": "bool"
            },
            {
              "internalType": "bool",
              "name": "lockVotingUnitChanges",
              "type": "bool"
            },
            {
              "internalType": "bool",
              "name": "lockManualMintingChanges",
              "type": "bool"
            },
            {
              "internalType": "bool",
              "name": "preventOverspending",
              "type": "bool"
            }
          ],
          "internalType": "struct JBTiered721Flags",
          "name": "",
          "type": "tuple"
        }
      ],
      "stateMutability": "view",
      "type": "function"
    },
    {
      "inputs": [
        {
          "internalType": "address",
          "name": "_nft",
          "type": "address"
        },
        {
          "internalType": "uint256",
          "name": "_tierId",
          "type": "uint256"
        }
      ],
      "name": "isTierRemoved",
      "outputs": [
        {
          "internalType": "bool",
          "name": "",
          "type": "bool"
        }
      ],
      "stateMutability": "view",
      "type": "function"
    },
    {
      "inputs": [
        {
          "internalType": "address",
          "name": "",
          "type": "address"
        }
      ],
      "name": "maxTierIdOf",
      "outputs": [
        {
          "internalType": "uint256",
          "name": "",
          "type": "uint256"
        }
      ],
      "stateMutability": "view",
      "type": "function"
    },
    {
      "inputs": [
        {
          "internalType": "address",
          "name": "",
          "type": "address"
        },
        {
          "internalType": "uint256",
          "name": "",
          "type": "uint256"
        }
      ],
      "name": "numberOfBurnedFor",
      "outputs": [
        {
          "internalType": "uint256",
          "name": "",
          "type": "uint256"
        }
      ],
      "stateMutability": "view",
      "type": "function"
    },
    {
      "inputs": [
        {
          "internalType": "address",
          "name": "_nft",
          "type": "address"
        },
        {
          "internalType": "uint256",
          "name": "_tierId",
          "type": "uint256"
        }
      ],
      "name": "numberOfReservedTokensOutstandingFor",
      "outputs": [
        {
          "internalType": "uint256",
          "name": "",
          "type": "uint256"
        }
      ],
      "stateMutability": "view",
      "type": "function"
    },
    {
      "inputs": [
        {
          "internalType": "address",
          "name": "",
          "type": "address"
        },
        {
          "internalType": "uint256",
          "name": "",
          "type": "uint256"
        }
      ],
      "name": "numberOfReservesMintedFor",
      "outputs": [
        {
          "internalType": "uint256",
          "name": "",
          "type": "uint256"
        }
      ],
      "stateMutability": "view",
      "type": "function"
    },
    {
      "inputs": [
        {
          "components": [
            {
              "internalType": "uint96",
              "name": "price",
              "type": "uint96"
            },
            {
              "internalType": "uint32",
              "name": "initialQuantity",
              "type": "uint32"
            },
            {
              "internalType": "uint32",
              "name": "votingUnits",
              "type": "uint32"
            },
            {
              "internalType": "uint16",
              "name": "reservedRate",
              "type": "uint16"
            },
            {
              "internalType": "address",
              "name": "reservedTokenBeneficiary",
              "type": "address"
            },
            {
              "internalType": "bytes32",
              "name": "encodedIPFSUri",
              "type": "bytes32"
            },
            {
              "internalType": "uint16",
              "name": "category",
              "type": "uint16"
            },
            {
              "internalType": "bool",
              "name": "allowManualMint",
              "type": "bool"
            },
            {
              "internalType": "bool",
              "name": "shouldUseReservedTokenBeneficiaryAsDefault",
              "type": "bool"
            },
            {
              "internalType": "bool",
              "name": "transfersPausable",
              "type": "bool"
            },
            {
              "internalType": "bool",
              "name": "useVotingUnits",
              "type": "bool"
            }
          ],
          "internalType": "struct JB721TierParams[]",
          "name": "_tiersToAdd",
          "type": "tuple[]"
        }
      ],
      "name": "recordAddTiers",
      "outputs": [
        {
          "internalType": "uint256[]",
          "name": "tierIds",
          "type": "uint256[]"
        }
      ],
      "stateMutability": "nonpayable",
      "type": "function"
    },
    {
      "inputs": [
        {
          "internalType": "uint256[]",
          "name": "_tokenIds",
          "type": "uint256[]"
        }
      ],
      "name": "recordBurn",
      "outputs": [],
      "stateMutability": "nonpayable",
      "type": "function"
    },
    {
      "inputs": [
        {
          "components": [
            {
              "internalType": "bool",
              "name": "lockReservedTokenChanges",
              "type": "bool"
            },
            {
              "internalType": "bool",
              "name": "lockVotingUnitChanges",
              "type": "bool"
            },
            {
              "internalType": "bool",
              "name": "lockManualMintingChanges",
              "type": "bool"
            },
            {
              "internalType": "bool",
              "name": "preventOverspending",
              "type": "bool"
            }
          ],
          "internalType": "struct JBTiered721Flags",
          "name": "_flags",
          "type": "tuple"
        }
      ],
      "name": "recordFlags",
      "outputs": [],
      "stateMutability": "nonpayable",
      "type": "function"
    },
    {
      "inputs": [
        {
          "internalType": "uint256",
          "name": "_amount",
          "type": "uint256"
        },
        {
          "internalType": "uint16[]",
          "name": "_tierIds",
          "type": "uint16[]"
        },
        {
          "internalType": "bool",
          "name": "_isManualMint",
          "type": "bool"
        }
      ],
      "name": "recordMint",
      "outputs": [
        {
          "internalType": "uint256[]",
          "name": "tokenIds",
          "type": "uint256[]"
        },
        {
          "internalType": "uint256",
          "name": "leftoverAmount",
          "type": "uint256"
        }
      ],
      "stateMutability": "nonpayable",
      "type": "function"
    },
    {
      "inputs": [
        {
          "internalType": "uint256",
          "name": "_tierId",
          "type": "uint256"
        },
        {
          "internalType": "uint256",
          "name": "_count",
          "type": "uint256"
        }
      ],
      "name": "recordMintReservesFor",
      "outputs": [
        {
          "internalType": "uint256[]",
          "name": "tokenIds",
          "type": "uint256[]"
        }
      ],
      "stateMutability": "nonpayable",
      "type": "function"
    },
    {
      "inputs": [
        {
          "internalType": "uint256[]",
          "name": "_tierIds",
          "type": "uint256[]"
        }
      ],
      "name": "recordRemoveTierIds",
      "outputs": [],
      "stateMutability": "nonpayable",
      "type": "function"
    },
    {
      "inputs": [
        {
          "internalType": "uint256",
          "name": "_tierId",
          "type": "uint256"
        },
        {
          "internalType": "bytes32",
          "name": "_encodedIPFSUri",
          "type": "bytes32"
        }
      ],
      "name": "recordSetEncodedIPFSUriOf",
      "outputs": [],
      "stateMutability": "nonpayable",
      "type": "function"
    },
    {
      "inputs": [
        {
          "internalType": "contract IJBTokenUriResolver",
          "name": "_resolver",
          "type": "address"
        }
      ],
      "name": "recordSetTokenUriResolver",
      "outputs": [],
      "stateMutability": "nonpayable",
      "type": "function"
    },
    {
      "inputs": [
        {
          "internalType": "uint256",
          "name": "_tierId",
          "type": "uint256"
        },
        {
          "internalType": "address",
          "name": "_from",
          "type": "address"
        },
        {
          "internalType": "address",
          "name": "_to",
          "type": "address"
        }
      ],
      "name": "recordTransferForTier",
      "outputs": [],
      "stateMutability": "nonpayable",
      "type": "function"
    },
    {
      "inputs": [
        {
          "internalType": "address",
          "name": "_nft",
          "type": "address"
        },
        {
          "internalType": "uint256[]",
          "name": "_tokenIds",
          "type": "uint256[]"
        }
      ],
      "name": "redemptionWeightOf",
      "outputs": [
        {
          "internalType": "uint256",
          "name": "weight",
          "type": "uint256"
        }
      ],
      "stateMutability": "view",
      "type": "function"
    },
    {
      "inputs": [
        {
          "internalType": "address",
          "name": "_nft",
          "type": "address"
        },
        {
          "internalType": "uint256",
          "name": "_tierId",
          "type": "uint256"
        }
      ],
      "name": "reservedTokenBeneficiaryOf",
      "outputs": [
        {
          "internalType": "address",
          "name": "",
          "type": "address"
        }
      ],
      "stateMutability": "view",
      "type": "function"
    },
    {
      "inputs": [
        {
          "internalType": "address",
          "name": "",
          "type": "address"
        },
        {
          "internalType": "address",
          "name": "",
          "type": "address"
        },
        {
          "internalType": "uint256",
          "name": "",
          "type": "uint256"
        }
      ],
      "name": "tierBalanceOf",
      "outputs": [
        {
          "internalType": "uint256",
          "name": "",
          "type": "uint256"
        }
      ],
      "stateMutability": "view",
      "type": "function"
    },
    {
      "inputs": [
        {
          "internalType": "uint256",
          "name": "_tokenId",
          "type": "uint256"
        }
      ],
      "name": "tierIdOfToken",
      "outputs": [
        {
          "internalType": "uint256",
          "name": "",
          "type": "uint256"
        }
      ],
      "stateMutability": "pure",
      "type": "function"
    },
    {
      "inputs": [
        {
          "internalType": "address",
          "name": "_nft",
          "type": "address"
        },
        {
          "internalType": "uint256",
          "name": "_id",
          "type": "uint256"
        },
        {
          "internalType": "bool",
          "name": "_includeResolvedUri",
          "type": "bool"
        }
      ],
      "name": "tierOf",
      "outputs": [
        {
          "components": [
            {
              "internalType": "uint256",
              "name": "id",
              "type": "uint256"
            },
            {
              "internalType": "uint256",
              "name": "price",
              "type": "uint256"
            },
            {
              "internalType": "uint256",
              "name": "remainingQuantity",
              "type": "uint256"
            },
            {
              "internalType": "uint256",
              "name": "initialQuantity",
              "type": "uint256"
            },
            {
              "internalType": "uint256",
              "name": "votingUnits",
              "type": "uint256"
            },
            {
              "internalType": "uint256",
              "name": "reservedRate",
              "type": "uint256"
            },
            {
              "internalType": "address",
              "name": "reservedTokenBeneficiary",
              "type": "address"
            },
            {
              "internalType": "bytes32",
              "name": "encodedIPFSUri",
              "type": "bytes32"
            },
            {
              "internalType": "uint256",
              "name": "category",
              "type": "uint256"
            },
            {
              "internalType": "bool",
              "name": "allowManualMint",
              "type": "bool"
            },
            {
              "internalType": "bool",
              "name": "transfersPausable",
              "type": "bool"
            },
            {
              "internalType": "string",
              "name": "resolvedUri",
              "type": "string"
            }
          ],
          "internalType": "struct JB721Tier",
          "name": "",
          "type": "tuple"
        }
      ],
      "stateMutability": "view",
      "type": "function"
    },
    {
      "inputs": [
        {
          "internalType": "address",
          "name": "_nft",
          "type": "address"
        },
        {
          "internalType": "uint256",
          "name": "_tokenId",
          "type": "uint256"
        },
        {
          "internalType": "bool",
          "name": "_includeResolvedUri",
          "type": "bool"
        }
      ],
      "name": "tierOfTokenId",
      "outputs": [
        {
          "components": [
            {
              "internalType": "uint256",
              "name": "id",
              "type": "uint256"
            },
            {
              "internalType": "uint256",
              "name": "price",
              "type": "uint256"
            },
            {
              "internalType": "uint256",
              "name": "remainingQuantity",
              "type": "uint256"
            },
            {
              "internalType": "uint256",
              "name": "initialQuantity",
              "type": "uint256"
            },
            {
              "internalType": "uint256",
              "name": "votingUnits",
              "type": "uint256"
            },
            {
              "internalType": "uint256",
              "name": "reservedRate",
              "type": "uint256"
            },
            {
              "internalType": "address",
              "name": "reservedTokenBeneficiary",
              "type": "address"
            },
            {
              "internalType": "bytes32",
              "name": "encodedIPFSUri",
              "type": "bytes32"
            },
            {
              "internalType": "uint256",
              "name": "category",
              "type": "uint256"
            },
            {
              "internalType": "bool",
              "name": "allowManualMint",
              "type": "bool"
            },
            {
              "internalType": "bool",
              "name": "transfersPausable",
              "type": "bool"
            },
            {
              "internalType": "string",
              "name": "resolvedUri",
              "type": "string"
            }
          ],
          "internalType": "struct JB721Tier",
          "name": "",
          "type": "tuple"
        }
      ],
      "stateMutability": "view",
      "type": "function"
    },
    {
      "inputs": [
        {
          "internalType": "address",
          "name": "_nft",
          "type": "address"
        },
        {
          "internalType": "address",
          "name": "_account",
          "type": "address"
        },
        {
          "internalType": "uint256",
          "name": "_tierId",
          "type": "uint256"
        }
      ],
      "name": "tierVotingUnitsOf",
      "outputs": [
        {
          "internalType": "uint256",
          "name": "",
          "type": "uint256"
        }
      ],
      "stateMutability": "view",
      "type": "function"
    },
    {
      "inputs": [
        {
          "internalType": "address",
          "name": "_nft",
          "type": "address"
        },
        {
          "internalType": "uint256[]",
          "name": "_categories",
          "type": "uint256[]"
        },
        {
          "internalType": "bool",
          "name": "_includeResolvedUri",
          "type": "bool"
        },
        {
          "internalType": "uint256",
          "name": "_startingId",
          "type": "uint256"
        },
        {
          "internalType": "uint256",
          "name": "_size",
          "type": "uint256"
        }
      ],
      "name": "tiersOf",
      "outputs": [
        {
          "components": [
            {
              "internalType": "uint256",
              "name": "id",
              "type": "uint256"
            },
            {
              "internalType": "uint256",
              "name": "price",
              "type": "uint256"
            },
            {
              "internalType": "uint256",
              "name": "remainingQuantity",
              "type": "uint256"
            },
            {
              "internalType": "uint256",
              "name": "initialQuantity",
              "type": "uint256"
            },
            {
              "internalType": "uint256",
              "name": "votingUnits",
              "type": "uint256"
            },
            {
              "internalType": "uint256",
              "name": "reservedRate",
              "type": "uint256"
            },
            {
              "internalType": "address",
              "name": "reservedTokenBeneficiary",
              "type": "address"
            },
            {
              "internalType": "bytes32",
              "name": "encodedIPFSUri",
              "type": "bytes32"
            },
            {
              "internalType": "uint256",
              "name": "category",
              "type": "uint256"
            },
            {
              "internalType": "bool",
              "name": "allowManualMint",
              "type": "bool"
            },
            {
              "internalType": "bool",
              "name": "transfersPausable",
              "type": "bool"
            },
            {
              "internalType": "string",
              "name": "resolvedUri",
              "type": "string"
            }
          ],
          "internalType": "struct JB721Tier[]",
          "name": "_tiers",
          "type": "tuple[]"
        }
      ],
      "stateMutability": "view",
      "type": "function"
    },
    {
      "inputs": [
        {
          "internalType": "address",
          "name": "",
          "type": "address"
        }
      ],
      "name": "tokenUriResolverOf",
      "outputs": [
        {
          "internalType": "contract IJBTokenUriResolver",
          "name": "",
          "type": "address"
        }
      ],
      "stateMutability": "view",
      "type": "function"
    },
    {
      "inputs": [
        {
          "internalType": "address",
          "name": "_nft",
          "type": "address"
        }
      ],
      "name": "totalRedemptionWeight",
      "outputs": [
        {
          "internalType": "uint256",
          "name": "weight",
          "type": "uint256"
        }
      ],
      "stateMutability": "view",
      "type": "function"
    },
    {
      "inputs": [
        {
          "internalType": "address",
          "name": "_nft",
          "type": "address"
        }
      ],
      "name": "totalSupply",
      "outputs": [
        {
          "internalType": "uint256",
          "name": "supply",
          "type": "uint256"
        }
      ],
      "stateMutability": "view",
      "type": "function"
    },
    {
      "inputs": [
        {
          "internalType": "address",
          "name": "_nft",
          "type": "address"
        },
        {
          "internalType": "address",
          "name": "_account",
          "type": "address"
        }
      ],
      "name": "votingUnitsOf",
      "outputs": [
        {
          "internalType": "uint256",
          "name": "units",
          "type": "uint256"
        }
      ],
      "stateMutability": "view",
      "type": "function"
    }
  ],
  "bytecode": {
    "object": "0x608060405234801561001057600080fd5b506131ee806100206000396000f3fe608060405234801561001057600080fd5b50600436106101f05760003560e01c8063845104de1161010f578063c44a8e6d116100a2578063e4dc2aa411610071578063e4dc2aa414610600578063eaa19ab314610613578063f1bea54f14610634578063f7888aec1461065457600080fd5b8063c44a8e6d1461058a578063c8df17101461059d578063cb827e32146105b0578063d84a72c0146105c357600080fd5b80639403a74f116100de5780639403a74f14610519578063baa7e80e14610539578063bd51923c1461054c578063c2c55f941461057757600080fd5b8063845104de146103fa57806386bc2be3146104ca578063911c80b5146104dd578063933555781461050657600080fd5b80632e4d0ea81161018757806349bd1ac61161015657806349bd1ac61461035f5780635f6466111461038c57806364faa159146103af5780636825bb80146103cf57600080fd5b80632e4d0ea8146102f557806335314b921461030857806337f446521461031b57806342f9914b1461034c57600080fd5b806317bef04b116101c357806317bef04b1461028457806320512ba1146102a45780632ae5e492146102b75780632b7e6ef0146102ca57600080fd5b8063086bb19a146101f55780630fab09471461020a578063136e651c14610250578063144cc2d414610263575b600080fd5b61020861020336600461280c565b610667565b005b61023361021836600461280c565b600c602052600090815260409020546001600160a01b031681565b6040516001600160a01b0390911681526020015b60405180910390f35b61023361025e366004612829565b6107fc565b6102766102713660046128a1565b610855565b604051908152602001610247565b6102976102923660046128f6565b6108d3565b60405161024791906129a7565b6102086102b23660046129ba565b6110bc565b6102766102c536600461280c565b611111565b6102766102d8366004612829565b600a60209081526000928352604080842090915290825290205481565b6102766103033660046129fc565b611253565b610276610316366004612829565b6112db565b6102766103293660046129fc565b600860209081526000938452604080852082529284528284209052825290205481565b61027661035a366004612a3d565b61138a565b61020861036d366004612a56565b336000908152600d602090815260408083209483529390529190912055565b61039f61039a366004612829565b61139a565b6040519015158152602001610247565b6103c26103bd366004612a91565b6113d2565b6040516102479190612bcb565b6102766103dd366004612829565b600960209081526000928352604080842090915290825290205481565b61048f61040836600461280c565b604080516080810182526000808252602082018190529181018290526060810191909152506001600160a01b03166000908152600360209081526040918290208251608081018452905460ff808216151583526101008204811615159383019390935262010000810483161515938201939093526301000000909204161515606082015290565b604051610247919081511515815260208083015115159082015260408083015115159082015260609182015115159181019190915260800190565b6102086104d83660046129ba565b611489565b6102336104eb36600461280c565b600b602052600090815260409020546001600160a01b031681565b610276610514366004612bde565b61154a565b61052c610527366004612c17565b6116be565b6040516102479190612c91565b610297610547366004612a56565b611922565b61027661055a366004612829565b600d60209081526000928352604080842090915290825290205481565b610208610585366004612cf3565b611b27565b6103c2610598366004612a91565b611bbb565b6102766105ab366004612829565b611c80565b6102086105be366004612d2a565b611cb9565b6102086105d136600461280c565b336000908152600c6020526040902080546001600160a01b0319166001600160a01b0392909216919091179055565b61027661060e36600461280c565b611cd4565b610626610621366004612d42565b611dc2565b604051610247929190612da1565b61027661064236600461280c565b60076020526000908152604090205481565b610276610662366004612bde565b612103565b60006106728261216f565b905060006106818360006121b0565b6001600160a01b03841660009081526004602052604081209192509081906106a99084612217565b90505b82156107b7576106bc818461225d565b156106e6576001600160a01b03851660009081526004602052604090206106e39084612217565b90505b6106f08184612277565b6107a5576106ff826001612dd9565b8314610757576001600160a01b0385166000908152602081815260408083208584529091529020548314610752576001600160a01b03851660009081526020818152604080832085845290915290208390555b6107a1565b6001600160a01b038516600090815260208181526040808320858452909152902054156107a1576001600160a01b0385166000908152602081815260408083208584529091528120555b8291505b6107b0858486612296565b92506106ac565b6040513381526001600160a01b038616907f4a0f854ce3c180d56f3e9eb47eb064c595bf3de0ab9af45425291e5b1bb733a89060200160405180910390a25050505050565b6001600160a01b038083166000908152600160209081526040808320858452909152812054909116801561083157905061084f565b50506001600160a01b038083166000908152600b6020526040902054165b92915050565b600081815b818110156108ca576001600160a01b03861660009081526002602052604081209061089c87878581811061089057610890612dec565b9050602002013561138a565b81526020810191909152604001600020546108c0906001600160601b031684612dd9565b925060010161085a565b50509392505050565b33600090815260076020526040902054606090829061ffff6108f58383612dd9565b111561091457604051631bc68c8b60e11b815260040160405180910390fd5b600061091f3361216f565b90508267ffffffffffffffff81111561093a5761093a612e02565b604051908082528060200260200182016040528015610963578160200160208202803683370190505b5093506000821561097e576109793360006121b0565b610981565b60005b9050600061098d6126e0565b3360009081526003602090815260408083208151608081018352905460ff80821615158352610100820481161515948301949094526201000081048416151592820192909252630100000090910490911615156060820152905b87811015611093578a8a82818110610a0157610a01612dec565b90506101600201803603810190610a189190612e7f565b9250610a296001633b9aca00612f52565b836020015163ffffffff161115610a53576040516349016ea360e01b815260040160405180910390fd5b610a5b6126e0565b8115610ac7578b8b610a6e600185612f52565b818110610a7d57610a7d612dec565b90506101600201803603810190610a949190612e7f565b90508060c0015161ffff168460c0015161ffff161015610ac757604051631cabebd560e21b815260040160405180910390fd5b82602001518015610ae15750604084015163ffffffff1615155b15610aff57604051630189200360e11b815260040160405180910390fd5b825180610b0d57508360e001515b8015610b205750606084015161ffff1615155b15610b3e5760405163a75b1cd560e01b815260040160405180910390fd5b82604001518015610b5057508360e001515b15610b6e576040516330ec637f60e01b815260040160405180910390fd5b836020015163ffffffff16600003610b9957604051631e0a863160e31b815260040160405180910390fd5b6000610ba5838a612dd9565b610bb0906001612dd9565b90506040518060e0016040528086600001516001600160601b03168152602001866020015163ffffffff168152602001866020015163ffffffff168152602001866040015163ffffffff1664ffffffffff1681526020018660c0015161ffff168152602001866060015161ffff168152602001610c478760e0015188610120015189610140015160021b60019190911b9091171790565b60ff9081169091523360009081526002602090815260408083208684528252918290208451815492860151938601516060870151608088015160a089015160c0998a0151909816600160e81b0260ff60e81b1961ffff998a16600160d81b0261ffff60d81b19938b16600160c81b029390931663ffffffff60c81b1964ffffffffff909516600160a01b0264ffffffffff60a01b1963ffffffff978816600160801b021668ffffffffffffffffff60801b1997909b16600160601b026fffffffffffffffffffffffffffffffff19909a166001600160601b0390981697909717989098179490941697909717939093171693909317179190911691909117905586820151918401518116911614801590610d68575060c085015161ffff1615155b15610d935733600090815260066020908152604080832060c089015161ffff16845290915290208190555b60808501516001600160a01b031615610e4c5784610100015115610e0f576080850151336000908152600b60205260409020546001600160a01b03908116911614610e0a576080850151336000908152600b6020526040902080546001600160a01b0319166001600160a01b039092169190911790555b610e4c565b6080850151336000908152600160209081526040808320858452909152902080546001600160a01b0319166001600160a01b039092169190911790555b60a085015115610e775760a0850151336000908152600d602090815260408083208584529091529020555b861561106b57336000908152600460205260408120889190610e999083612217565b905060005b821561106757610eae828461225d565b15610ecf57336000908152600460205260409020610ecc9084612217565b91505b610eda33848d612296565b33600090815260026020908152604080832087845290915290205460c08a015191925061ffff600160c81b9091048116911611801590610f1a57508b8311155b15610fed57610f2a846001612dd9565b8314610f4c573360009081526020818152604080832087845290915290208390555b336000908152600560205260409020548b14610f75573360009081526005602052604090208b90555b610f80600185612f52565b89141580610fa55750336000908152602081815260408083208c845290915290205415155b15610fde57610fb5600185612f52565b8914610fc15783610fc4565b60005b336000908152602081815260408083208d84529091529020555b82995083985060009250610e9e565b801580610ff957508b81115b1561105e57611009836001612dd9565b841461102b573360009081526020818152604080832086845290915290208490555b33600090815260056020526040812054949a508a949093501561105957336000908152600560205260408120555b610e9e565b91975081610e9e565b5050505b808b848151811061107e5761107e612dec565b602090810291909101015250506001016109e7565b5061109e8787612dd9565b33600090815260076020526040902055509598975050505050505050565b806000805b8281101561110a578484828181106110db576110db612dec565b336000908152600460209081526040909120910292909201359350611102919050836122e1565b6001016110c1565b5050505050565b6001600160a01b03811660009081526007602052604081205461113261273c565b60005b8281101561124b576001600160a01b03851660009081526002602090815260408083206001858101855290835292819020815160e08101835290546001600160601b0381168252600160601b810463ffffffff90811694830194909452600160801b810490931691810191909152600160a01b820464ffffffffff166060820152600160c81b820461ffff9081166080830152600160d81b83041660a0820152600160e81b90910460ff1660c082015292506111fe9086906111f8908490612dd9565b8461231a565b826020015183604001516112129190612f65565b63ffffffff166112229190612dd9565b825161123791906001600160601b0316612f89565b6112419085612dd9565b9350600101611135565b505050919050565b6001600160a01b03808416600090815260086020908152604080832093861683529281528282208483529052908120548082036112945760009150506112d4565b6001600160a01b03851660009081526002602090815260408083208684529091529020546112d090600160a01b900464ffffffffff1682612f89565b9150505b9392505050565b6001600160a01b03821660009081526002602090815260408083208484528252808320815160e08101835290546001600160601b0381168252600160601b810463ffffffff90811694830194909452600160801b810490931691810191909152600160a01b820464ffffffffff166060820152600160c81b820461ffff9081166080830152600160d81b83041660a0820152600160e81b90910460ff1660c08201526112d4908490849061231a565b600061084f633b9aca0083612fb6565b6001600160a01b038216600090815260046020526040812081906113be9084612217565b90506113ca8184612277565b949350505050565b6113da612778565b6001600160a01b0384166000908152600260209081526040808320868452825291829020825160e08101845290546001600160601b038116825263ffffffff600160601b8204811693830193909352600160801b81049092169281019290925264ffffffffff600160a01b820416606083015261ffff600160c81b820481166080840152600160d81b82041660a083015260ff600160e81b9091041660c08201526113ca908590859085612455565b806000805b8281101561110a578484828181106114a8576114a8612dec565b90506020020135915060006114bc8361138a565b336000908152600a6020908152604080832084845290915281208054929350906114e583612fca565b909155505033600090815260026020908152604080832084845290915290208054600160601b900463ffffffff1690600c61151f83612fe3565b91906101000a81548163ffffffff021916908363ffffffff160217905550508160010191505061148e565b6001600160a01b0382166000908152600760205260408120548161156c61273c565b825b80156116b4576001600160a01b038088166000908152600860209081526040808320938a168352928152828220848352905220549250821561164e576001600160a01b0387166000908152600260209081526040808320848452825291829020825160e08101845290546001600160601b038116825263ffffffff600160601b8204811693830193909352600160801b81049092169281019290925264ffffffffff600160a01b820416606083015261ffff600160c81b820481166080840152600160d81b82041660a083015260ff600160e81b9091041660c082015291505b600061166e8360c001516001811615159160028216151591600416151590565b925050508061167e57825161168b565b826060015164ffffffffff165b61169e906001600160601b031685612f89565b6116a89087612dd9565b9550506000190161156e565b5050505092915050565b606060006116cb8861216f565b90508267ffffffffffffffff8111156116e6576116e6612e02565b60405190808252806020026020018201604052801561171f57816020015b61170c612778565b8152602001906001900390816117045790505b509150600061172c61273c565b604080518082019091526000808252602082015260005b83871461190857600088600003611788576117838d8c1561177c578d8d8581811061177057611770612dec565b905060200201356121b0565b60006121b0565b61178a565b885b90505b801580159061179b57508785105b156118fc576117ab8d828561266e565b6118ea576001600160a01b038d166000908152600260209081526040808320848452825291829020825160e08101845290546001600160601b038116825263ffffffff600160601b8204811693830193909352600160801b81049092169281019290925264ffffffffff600160a01b820416606083015261ffff600160c81b820481166080840152600160d81b82041660a083015260ff600160e81b9091041660c082015293508a1580159061188057508b8b8381811061186e5761186e612dec565b90506020020135846080015161ffff16115b6118fc578a15806118b057508b8b8381811061189e5761189e612dec565b90506020020135846080015161ffff16145b156118ea576118c18d82868d612455565b87866118cc81612fca565b9750815181106118de576118de612dec565b60200260200101819052505b6118f58d8288612296565b905061178d565b50600101898110611743575b868414611913578386525b50505050509695505050505050565b3360008181526002602090815260408083208684528252808320815160e08101835281546001600160601b0381168252600160601b810463ffffffff90811695830195909552600160801b810490941692810192909252600160a01b830464ffffffffff16606080840191909152600160c81b840461ffff9081166080850152600160d81b85041660a0840152600160e81b90930460ff1660c083015291939192916119cf91879061231a565b9050808411156119f25760405163226f999960e11b815260040160405180910390fd5b33600090815260096020908152604080832088845290915281208054869290611a1c908490612dd9565b9091555084905067ffffffffffffffff811115611a3b57611a3b612e02565b604051908082528060200260200182016040528015611a64578160200160208202803683370190505b50336000908152600a602090815260408083208984529091528120549194505b858110156116b457611b02878386600001600c81819054906101000a900463ffffffff16611ab190613006565b91906101000a81548163ffffffff021916908363ffffffff16021790558760000160109054906101000a900463ffffffff16611aed9190612f65565b63ffffffff16611afd9190612dd9565b6126c5565b858281518110611b1457611b14612dec565b6020908102919091010152600101611a84565b6001600160a01b03821615611b74573360009081526008602090815260408083206001600160a01b0386168452825280832086845290915281208054909190611b6f90613026565b909155505b6001600160a01b03811615611bb6573360009081526008602090815260408083206001600160a01b038516845282528083208684529091529020805460010190555b505050565b611bc3612778565b6000611bce8461138a565b6001600160a01b0386166000908152600260209081526040808320848452825291829020825160e08101845290546001600160601b038116825263ffffffff600160601b8204811693830193909352600160801b81049092169281019290925264ffffffffff600160a01b820416606083015261ffff600160c81b820481166080840152600160d81b82041660a083015260ff600160e81b9091041660c08201529091506112d0908690839086612455565b6001600160a01b0382166000908152600d6020526040812081611ca28461138a565b815260200190815260200160002054905092915050565b3360009081526003602052604090208190611bb6828261304a565b6000611cde61273c565b6001600160a01b038316600090815260076020526040902054805b801561124b576001600160a01b0385166000908152600260209081526040808320848452825291829020825160e08101845290546001600160601b038116825263ffffffff600160601b82048116938301849052600160801b82041693820184905264ffffffffff600160a01b820416606083015261ffff600160c81b820481166080840152600160d81b82041660a083015260ff600160e81b9091041660c08201529450611da791612f65565b611db79063ffffffff1685612dd9565b935060001901611cf9565b606084836000808267ffffffffffffffff811115611de257611de2612e02565b604051908082528060200260200182016040528015611e0b578160200160208202803683370190505b5094506000611e5489896000818110611e2657611e26612dec565b9050602002016020810190611e3b91906130e7565b3360009081526004602052604090209061ffff16612217565b905060005b848110156120f557898982818110611e7357611e73612dec565b9050602002016020810190611e8891906130e7565b61ffff169250611e98828461225d565b15611eb957336000908152600460205260409020611eb69084612217565b91505b611ec38284612277565b15611ee15760405163d32cb5c160e01b815260040160405180910390fd5b33600090815260026020908152604080832086845290915290208054909450600160e81b90046001161515888015611f17575080155b15611f3557604051632f792d3960e11b815260040160405180910390fd5b8454600160801b900463ffffffff16600003611f6457604051630de5859f60e01b815260040160405180910390fd5b84546001600160601b0316871015611f8f57604051632cd294cf60e01b815260040160405180910390fd5b6040805160e08101825286546001600160601b0381168252600160601b810463ffffffff9081166020840152600160801b82041692820192909252600160a01b820464ffffffffff166060820152600160c81b820461ffff9081166080830152600160d81b83041660a0820152600160e81b90910460ff1660c0820152612019903390869061231a565b85546120329190600160601b900463ffffffff16612f52565b6000036120525760405163985a45d960e01b815260040160405180910390fd5b336000908152600a60209081526040808320878452909152902054855460001963ffffffff600160601b808404821692830182160263ffffffff60601b19909316929092178089556120b8938893600160801b90920482169290920360010116016126c5565b8883815181106120ca576120ca612dec565b602090810291909101015284546120ea906001600160601b031688612f52565b965050600101611e59565b505050505094509492505050565b6001600160a01b038216600090815260076020526040812054805b8015612167576001600160a01b03808616600090815260086020908152604080832093881683529281528282208483529052205461215c9084612dd9565b92506000190161211e565b505092915050565b6001600160a01b038116600090815260056020526040812054908190036121ab57506001600160a01b0381166000908152600760205260409020545b919050565b600081156121e1576001600160a01b0383166000908152600660209081526040808320858452909152902054612204565b6001600160a01b0383166000908152602081815260408083208380529091529020545b90508060000361084f5750600192915050565b604080518082019091526000808252602082015260006122378360081c90565b604080518082018252600083815260209788529190912054815294850152509192915050565b6000826020015161226e8360081c90565b14159392505050565b600061228561010083613102565b83516001911c811614905092915050565b60008183036122a7575060006112d4565b6001600160a01b03841660009081526020818152604080832086845290915290205480156122d65790506112d4565b6112d0846001612dd9565b60006122ed8260081c90565b90506122fb61010083613102565b6000918252602093909352604090208054600190931b90921790915550565b60008160a0015161ffff16600014806123465750816020015163ffffffff16826040015163ffffffff16145b806123635750600061235885856107fc565b6001600160a01b0316145b15612370575060006112d4565b6001600160a01b0384166000908152600960209081526040808320868452825291829020549084015191840151909163ffffffff908116916123b491849116612f52565b036123c35760009150506112d4565b600081846020015185604001516123da9190612f65565b63ffffffff166123ea9190612f52565b905060008460a0015161ffff16826124029190612fb6565b905060008560a0015161ffff168361241a9190613102565b111561242c5761242981612fca565b90505b8083111561244057600093505050506112d4565b61244a8382612f52565b979650505050505050565b61245d612778565b600061246986866107fc565b9050600080600061248e8760c001516001811615159160028216151591600416151590565b92509250925060405180610180016040528089815260200188600001516001600160601b03168152602001886020015163ffffffff168152602001886040015163ffffffff168152602001826124e55788516124f2565b886060015164ffffffffff165b6001600160601b031681526020016001600160a01b03861615612519578860a0015161251c565b60005b61ffff168152602001856001600160a01b03168152602001600d60008c6001600160a01b03166001600160a01b0316815260200190815260200160002060008b8152602001908152602001600020548152602001886080015161ffff168152602001841515815260200183151581526020018715806125b357506001600160a01b038b81166000908152600c602052604090205416155b61264e576001600160a01b03808c166000908152600c60205260408120549091169063da0544aa906125e6908d906126c5565b6040518263ffffffff1660e01b815260040161260491815260200190565b600060405180830381865afa158015612621573d6000803e3d6000fd5b505050506040513d6000823e601f3d908101601f191682016040526126499190810190613116565b61265f565b604051806020016040528060008152505b90529998505050505050505050565b600061267a828461225d565b806126915750815115801561269157506020820151155b156126bb576001600160a01b03841660009081526004602052604090206126b89084612217565b91505b6113ca8284612277565b6000816126d6633b9aca0085612f89565b6112d49190612dd9565b6040805161016081018252600080825260208201819052918101829052606081018290526080810182905260a0810182905260c0810182905260e081018290526101008101829052610120810182905261014081019190915290565b6040805160e081018252600080825260208201819052918101829052606081018290526080810182905260a0810182905260c081019190915290565b60405180610180016040528060008152602001600081526020016000815260200160008152602001600081526020016000815260200160006001600160a01b031681526020016000801916815260200160008152602001600015158152602001600015158152602001606081525090565b6001600160a01b03811681146127fe57600080fd5b50565b80356121ab816127e9565b60006020828403121561281e57600080fd5b81356112d4816127e9565b6000806040838503121561283c57600080fd5b8235612847816127e9565b946020939093013593505050565b60008083601f84011261286757600080fd5b50813567ffffffffffffffff81111561287f57600080fd5b6020830191508360208260051b850101111561289a57600080fd5b9250929050565b6000806000604084860312156128b657600080fd5b83356128c1816127e9565b9250602084013567ffffffffffffffff8111156128dd57600080fd5b6128e986828701612855565b9497909650939450505050565b6000806020838503121561290957600080fd5b823567ffffffffffffffff8082111561292157600080fd5b818501915085601f83011261293557600080fd5b81358181111561294457600080fd5b8660206101608302850101111561295a57600080fd5b60209290920196919550909350505050565b600081518084526020808501945080840160005b8381101561299c57815187529582019590820190600101612980565b509495945050505050565b6020815260006112d4602083018461296c565b600080602083850312156129cd57600080fd5b823567ffffffffffffffff8111156129e457600080fd5b6129f085828601612855565b90969095509350505050565b600080600060608486031215612a1157600080fd5b8335612a1c816127e9565b92506020840135612a2c816127e9565b929592945050506040919091013590565b600060208284031215612a4f57600080fd5b5035919050565b60008060408385031215612a6957600080fd5b50508035926020909101359150565b80151581146127fe57600080fd5b80356121ab81612a78565b600080600060608486031215612aa657600080fd5b8335612ab1816127e9565b9250602084013591506040840135612ac881612a78565b809150509250925092565b60005b83811015612aee578181015183820152602001612ad6565b50506000910152565b60008151808452612b0f816020860160208601612ad3565b601f01601f19169290920160200192915050565b6000610180825184526020830151602085015260408301516040850152606083015160608501526080830151608085015260a083015160a085015260c0830151612b7860c08601826001600160a01b03169052565b5060e083810151908501526101008084015190850152610120808401511515908501526101408084015115159085015261016080840151818601839052612bc183870182612af7565b9695505050505050565b6020815260006112d46020830184612b23565b60008060408385031215612bf157600080fd5b8235612bfc816127e9565b91506020830135612c0c816127e9565b809150509250929050565b60008060008060008060a08789031215612c3057600080fd5b8635612c3b816127e9565b9550602087013567ffffffffffffffff811115612c5757600080fd5b612c6389828a01612855565b9096509450506040870135612c7781612a78565b959894975092956060810135946080909101359350915050565b6000602080830181845280855180835260408601915060408160051b870101925083870160005b82811015612ce657603f19888603018452612cd4858351612b23565b94509285019290850190600101612cb8565b5092979650505050505050565b600080600060608486031215612d0857600080fd5b833592506020840135612d1a816127e9565b91506040840135612ac8816127e9565b600060808284031215612d3c57600080fd5b50919050565b60008060008060608587031215612d5857600080fd5b84359350602085013567ffffffffffffffff811115612d7657600080fd5b612d8287828801612855565b9094509250506040850135612d9681612a78565b939692955090935050565b604081526000612db4604083018561296c565b90508260208301529392505050565b634e487b7160e01b600052601160045260246000fd5b8082018082111561084f5761084f612dc3565b634e487b7160e01b600052603260045260246000fd5b634e487b7160e01b600052604160045260246000fd5b604051610160810167ffffffffffffffff81118282101715612e3c57612e3c612e02565b60405290565b80356001600160601b03811681146121ab57600080fd5b803563ffffffff811681146121ab57600080fd5b803561ffff811681146121ab57600080fd5b60006101608284031215612e9257600080fd5b612e9a612e18565b612ea383612e42565b8152612eb160208401612e59565b6020820152612ec260408401612e59565b6040820152612ed360608401612e6d565b6060820152612ee460808401612801565b608082015260a083013560a0820152612eff60c08401612e6d565b60c0820152612f1060e08401612a86565b60e0820152610100612f23818501612a86565b90820152610120612f35848201612a86565b90820152610140612f47848201612a86565b908201529392505050565b8181038181111561084f5761084f612dc3565b63ffffffff828116828216039080821115612f8257612f82612dc3565b5092915050565b808202811582820484141761084f5761084f612dc3565b634e487b7160e01b600052601260045260246000fd5b600082612fc557612fc5612fa0565b500490565b600060018201612fdc57612fdc612dc3565b5060010190565b600063ffffffff808316818103612ffc57612ffc612dc3565b6001019392505050565b600063ffffffff82168061301c5761301c612dc3565b6000190192915050565b60008161303557613035612dc3565b506000190190565b6000813561084f81612a78565b813561305581612a78565b815460ff19811691151560ff169182178355602084013561307581612a78565b61ff0090151560081b1661ffff198216831781178455604085013561309981612a78565b62ff000081151560101b168462ffffff198516178317178555505050506130e36130c56060840161303d565b82805463ff000000191691151560181b63ff00000016919091179055565b5050565b6000602082840312156130f957600080fd5b6112d482612e6d565b60008261311157613111612fa0565b500690565b60006020828403121561312857600080fd5b815167ffffffffffffffff8082111561314057600080fd5b818401915084601f83011261315457600080fd5b81518181111561316657613166612e02565b604051601f8201601f19908116603f0116810190838211818310171561318e5761318e612e02565b816040528281528760208487010111156131a757600080fd5b61244a836020830160208801612ad356fea26469706673582212203a1451821797ba4e9c326881c8cdc4bf12f8a545de577b0bd9897f11f4a1123b64736f6c63430008110033",
    "linkReferences": {}
  },
  "methodIdentifiers": {
    "balanceOf(address,address)": "f7888aec",
    "cleanTiers(address)": "086bb19a",
    "defaultReservedTokenBeneficiaryOf(address)": "911c80b5",
    "encodedIPFSUriOf(address,uint256)": "bd51923c",
    "encodedTierIPFSUriOf(address,uint256)": "c8df1710",
    "flagsOf(address)": "845104de",
    "isTierRemoved(address,uint256)": "5f646611",
    "maxTierIdOf(address)": "f1bea54f",
    "numberOfBurnedFor(address,uint256)": "2b7e6ef0",
    "numberOfReservedTokensOutstandingFor(address,uint256)": "35314b92",
    "numberOfReservesMintedFor(address,uint256)": "6825bb80",
    "recordAddTiers((uint96,uint32,uint32,uint16,address,bytes32,uint16,bool,bool,bool,bool)[])": "17bef04b",
    "recordBurn(uint256[])": "86bc2be3",
    "recordFlags((bool,bool,bool,bool))": "cb827e32",
    "recordMint(uint256,uint16[],bool)": "eaa19ab3",
    "recordMintReservesFor(uint256,uint256)": "baa7e80e",
    "recordRemoveTierIds(uint256[])": "20512ba1",
    "recordSetEncodedIPFSUriOf(uint256,bytes32)": "49bd1ac6",
    "recordSetTokenUriResolver(address)": "d84a72c0",
    "recordTransferForTier(uint256,address,address)": "c2c55f94",
    "redemptionWeightOf(address,uint256[])": "144cc2d4",
    "reservedTokenBeneficiaryOf(address,uint256)": "136e651c",
    "tierBalanceOf(address,address,uint256)": "37f44652",
    "tierIdOfToken(uint256)": "42f9914b",
    "tierOf(address,uint256,bool)": "64faa159",
    "tierOfTokenId(address,uint256,bool)": "c44a8e6d",
    "tierVotingUnitsOf(address,address,uint256)": "2e4d0ea8",
    "tiersOf(address,uint256[],bool,uint256,uint256)": "9403a74f",
    "tokenUriResolverOf(address)": "0fab0947",
    "totalRedemptionWeight(address)": "2ae5e492",
    "totalSupply(address)": "e4dc2aa4",
    "votingUnitsOf(address,address)": "93355578"
  },
  "id": 3
}