{
  "abi": [
    {
      "inputs": [],
      "name": "CANT_MINT_MANUALLY",
      "type": "error"
    },
    {
      "inputs": [],
      "name": "INSUFFICIENT_AMOUNT",
      "type": "error"
    },
    {
      "inputs": [],
      "name": "INSUFFICIENT_RESERVES",
      "type": "error"
    },
    {
      "inputs": [],
      "name": "INVALID_CATEGORY_SORT_ORDER",
      "type": "error"
    },
    {
      "inputs": [],
      "name": "INVALID_QUANTITY",
      "type": "error"
    },
    {
      "inputs": [],
      "name": "INVALID_TIER",
      "type": "error"
    },
    {
      "inputs": [],
      "name": "MANUAL_MINTING_NOT_ALLOWED",
      "type": "error"
    },
    {
      "inputs": [],
      "name": "MAX_TIERS_EXCEEDED",
      "type": "error"
    },
    {
      "inputs": [],
      "name": "NO_QUANTITY",
      "type": "error"
    },
    {
      "inputs": [],
      "name": "OUT",
      "type": "error"
    },
    {
      "inputs": [],
      "name": "PRICING_RESOLVER_CHANGES_LOCKED",
      "type": "error"
    },
    {
      "inputs": [],
      "name": "RESERVED_RATE_NOT_ALLOWED",
      "type": "error"
    },
    {
      "inputs": [],
      "name": "TIER_LOCKED",
      "type": "error"
    },
    {
      "inputs": [],
      "name": "TIER_REMOVED",
      "type": "error"
    },
    {
      "inputs": [],
      "name": "VOTING_UNITS_NOT_ALLOWED",
      "type": "error"
    },
    {
      "anonymous": false,
      "inputs": [
        {
          "indexed": true,
          "internalType": "address",
          "name": "nft",
          "type": "address"
        },
        {
          "indexed": false,
          "internalType": "address",
          "name": "caller",
          "type": "address"
        }
      ],
      "name": "CleanTiers",
      "type": "event"
    },
    {
      "inputs": [
        {
          "internalType": "address",
          "name": "_nft",
          "type": "address"
        },
        {
          "internalType": "address",
          "name": "_owner",
          "type": "address"
        }
      ],
      "name": "balanceOf",
      "outputs": [
        {
          "internalType": "uint256",
          "name": "balance",
          "type": "uint256"
        }
      ],
      "stateMutability": "view",
      "type": "function"
    },
    {
      "inputs": [
        {
          "internalType": "address",
          "name": "",
          "type": "address"
        }
      ],
      "name": "baseUriOf",
      "outputs": [
        {
          "internalType": "string",
          "name": "",
          "type": "string"
        }
      ],
      "stateMutability": "view",
      "type": "function"
    },
    {
      "inputs": [
        {
          "internalType": "address",
          "name": "_nft",
          "type": "address"
        }
      ],
      "name": "cleanTiers",
      "outputs": [],
      "stateMutability": "nonpayable",
      "type": "function"
    },
    {
      "inputs": [
        {
          "internalType": "address",
          "name": "",
          "type": "address"
        }
      ],
      "name": "contractUriOf",
      "outputs": [
        {
          "internalType": "string",
          "name": "",
          "type": "string"
        }
      ],
      "stateMutability": "view",
      "type": "function"
    },
    {
      "inputs": [
        {
          "internalType": "address",
          "name": "",
          "type": "address"
        }
      ],
      "name": "defaultReservedTokenBeneficiaryOf",
      "outputs": [
        {
          "internalType": "address",
          "name": "",
          "type": "address"
        }
      ],
      "stateMutability": "view",
      "type": "function"
    },
    {
      "inputs": [
        {
          "internalType": "address",
          "name": "",
          "type": "address"
        }
      ],
      "name": "defaultRoyaltyBeneficiaryOf",
      "outputs": [
        {
          "internalType": "address",
          "name": "",
          "type": "address"
        }
      ],
      "stateMutability": "view",
      "type": "function"
    },
    {
      "inputs": [
        {
          "internalType": "address",
          "name": "",
          "type": "address"
        },
        {
          "internalType": "uint256",
          "name": "",
          "type": "uint256"
        }
      ],
      "name": "encodedIPFSUriOf",
      "outputs": [
        {
          "internalType": "bytes32",
          "name": "",
          "type": "bytes32"
        }
      ],
      "stateMutability": "view",
      "type": "function"
    },
    {
      "inputs": [
        {
          "internalType": "address",
          "name": "_nft",
          "type": "address"
        },
        {
          "internalType": "uint256",
          "name": "_tokenId",
          "type": "uint256"
        }
      ],
      "name": "encodedTierIPFSUriOf",
      "outputs": [
        {
          "internalType": "bytes32",
          "name": "",
          "type": "bytes32"
        }
      ],
      "stateMutability": "view",
      "type": "function"
    },
    {
      "inputs": [
        {
          "internalType": "address",
          "name": "",
          "type": "address"
        },
        {
          "internalType": "uint256",
          "name": "",
          "type": "uint256"
        }
      ],
      "name": "firstOwnerOf",
      "outputs": [
        {
          "internalType": "address",
          "name": "",
          "type": "address"
        }
      ],
      "stateMutability": "view",
      "type": "function"
    },
    {
      "inputs": [
        {
          "internalType": "address",
          "name": "_nft",
          "type": "address"
        }
      ],
      "name": "flagsOf",
      "outputs": [
        {
          "components": [
            {
              "internalType": "bool",
              "name": "lockReservedTokenChanges",
              "type": "bool"
            },
            {
              "internalType": "bool",
              "name": "lockVotingUnitChanges",
              "type": "bool"
            },
            {
              "internalType": "bool",
              "name": "lockManualMintingChanges",
              "type": "bool"
            },
            {
              "internalType": "bool",
              "name": "preventOverspending",
              "type": "bool"
            }
          ],
          "internalType": "struct JBTiered721Flags",
          "name": "",
          "type": "tuple"
        }
      ],
      "stateMutability": "view",
      "type": "function"
    },
    {
      "inputs": [
        {
          "internalType": "address",
          "name": "_nft",
          "type": "address"
        },
        {
          "internalType": "uint256",
          "name": "_tierId",
          "type": "uint256"
        }
      ],
      "name": "isTierRemoved",
      "outputs": [
        {
          "internalType": "bool",
          "name": "",
          "type": "bool"
        }
      ],
      "stateMutability": "view",
      "type": "function"
    },
    {
      "inputs": [
        {
          "internalType": "address",
          "name": "",
          "type": "address"
        }
      ],
      "name": "maxTierIdOf",
      "outputs": [
        {
          "internalType": "uint256",
          "name": "",
          "type": "uint256"
        }
      ],
      "stateMutability": "view",
      "type": "function"
    },
    {
      "inputs": [
        {
          "internalType": "address",
          "name": "",
          "type": "address"
        },
        {
          "internalType": "uint256",
          "name": "",
          "type": "uint256"
        }
      ],
      "name": "numberOfBurnedFor",
      "outputs": [
        {
          "internalType": "uint256",
          "name": "",
          "type": "uint256"
        }
      ],
      "stateMutability": "view",
      "type": "function"
    },
    {
      "inputs": [
        {
          "internalType": "address",
          "name": "_nft",
          "type": "address"
        },
        {
          "internalType": "uint256",
          "name": "_tierId",
          "type": "uint256"
        }
      ],
      "name": "numberOfReservedTokensOutstandingFor",
      "outputs": [
        {
          "internalType": "uint256",
          "name": "",
          "type": "uint256"
        }
      ],
      "stateMutability": "view",
      "type": "function"
    },
    {
      "inputs": [
        {
          "internalType": "address",
          "name": "",
          "type": "address"
        },
        {
          "internalType": "uint256",
          "name": "",
          "type": "uint256"
        }
      ],
      "name": "numberOfReservesMintedFor",
      "outputs": [
        {
          "internalType": "uint256",
          "name": "",
          "type": "uint256"
        }
      ],
      "stateMutability": "view",
      "type": "function"
    },
    {
      "inputs": [
        {
          "components": [
            {
              "internalType": "uint80",
              "name": "contributionFloor",
              "type": "uint80"
            },
            {
              "internalType": "uint48",
              "name": "lockedUntil",
              "type": "uint48"
            },
            {
              "internalType": "uint40",
              "name": "initialQuantity",
              "type": "uint40"
            },
            {
              "internalType": "uint16",
              "name": "votingUnits",
              "type": "uint16"
            },
            {
              "internalType": "uint16",
              "name": "reservedRate",
              "type": "uint16"
            },
            {
              "internalType": "address",
              "name": "reservedTokenBeneficiary",
              "type": "address"
            },
            {
              "internalType": "uint8",
              "name": "royaltyRate",
              "type": "uint8"
            },
            {
              "internalType": "address",
              "name": "royaltyBeneficiary",
              "type": "address"
            },
            {
              "internalType": "bytes32",
              "name": "encodedIPFSUri",
              "type": "bytes32"
            },
            {
              "internalType": "uint8",
              "name": "category",
              "type": "uint8"
            },
            {
              "internalType": "bool",
              "name": "allowManualMint",
              "type": "bool"
            },
            {
              "internalType": "bool",
              "name": "shouldUseReservedTokenBeneficiaryAsDefault",
              "type": "bool"
            },
            {
              "internalType": "bool",
              "name": "shouldUseRoyaltyBeneficiaryAsDefault",
              "type": "bool"
            },
            {
              "internalType": "bool",
              "name": "transfersPausable",
              "type": "bool"
            }
          ],
          "internalType": "struct JB721TierParams[]",
          "name": "_tiersToAdd",
          "type": "tuple[]"
        }
      ],
      "name": "recordAddTiers",
      "outputs": [
        {
          "internalType": "uint256[]",
          "name": "tierIds",
          "type": "uint256[]"
        }
      ],
      "stateMutability": "nonpayable",
      "type": "function"
    },
    {
      "inputs": [
        {
          "internalType": "uint256[]",
          "name": "_tokenIds",
          "type": "uint256[]"
        }
      ],
      "name": "recordBurn",
      "outputs": [],
      "stateMutability": "nonpayable",
      "type": "function"
    },
    {
      "inputs": [
        {
          "components": [
            {
              "internalType": "bool",
              "name": "lockReservedTokenChanges",
              "type": "bool"
            },
            {
              "internalType": "bool",
              "name": "lockVotingUnitChanges",
              "type": "bool"
            },
            {
              "internalType": "bool",
              "name": "lockManualMintingChanges",
              "type": "bool"
            },
            {
              "internalType": "bool",
              "name": "preventOverspending",
              "type": "bool"
            }
          ],
          "internalType": "struct JBTiered721Flags",
          "name": "_flags",
          "type": "tuple"
        }
      ],
      "name": "recordFlags",
      "outputs": [],
      "stateMutability": "nonpayable",
      "type": "function"
    },
    {
      "inputs": [
        {
          "internalType": "uint256",
          "name": "_amount",
          "type": "uint256"
        },
        {
          "internalType": "uint16[]",
          "name": "_tierIds",
          "type": "uint16[]"
        },
        {
          "internalType": "bool",
          "name": "_isManualMint",
          "type": "bool"
        }
      ],
      "name": "recordMint",
      "outputs": [
        {
          "internalType": "uint256[]",
          "name": "tokenIds",
          "type": "uint256[]"
        },
        {
          "internalType": "uint256",
          "name": "leftoverAmount",
          "type": "uint256"
        }
      ],
      "stateMutability": "nonpayable",
      "type": "function"
    },
    {
      "inputs": [
        {
          "internalType": "uint256",
          "name": "_tierId",
          "type": "uint256"
        },
        {
          "internalType": "uint256",
          "name": "_count",
          "type": "uint256"
        }
      ],
      "name": "recordMintReservesFor",
      "outputs": [
        {
          "internalType": "uint256[]",
          "name": "tokenIds",
          "type": "uint256[]"
        }
      ],
      "stateMutability": "nonpayable",
      "type": "function"
    },
    {
      "inputs": [
        {
          "internalType": "uint256[]",
          "name": "_tierIds",
          "type": "uint256[]"
        }
      ],
      "name": "recordRemoveTierIds",
      "outputs": [],
      "stateMutability": "nonpayable",
      "type": "function"
    },
    {
      "inputs": [
        {
          "internalType": "string",
          "name": "_uri",
          "type": "string"
        }
      ],
      "name": "recordSetBaseUri",
      "outputs": [],
      "stateMutability": "nonpayable",
      "type": "function"
    },
    {
      "inputs": [
        {
          "internalType": "string",
          "name": "_uri",
          "type": "string"
        }
      ],
      "name": "recordSetContractUri",
      "outputs": [],
      "stateMutability": "nonpayable",
      "type": "function"
    },
    {
      "inputs": [
        {
          "internalType": "address",
          "name": "_beneficiary",
          "type": "address"
        }
      ],
      "name": "recordSetDefaultReservedTokenBeneficiary",
      "outputs": [],
      "stateMutability": "nonpayable",
      "type": "function"
    },
    {
      "inputs": [
        {
          "internalType": "uint256",
          "name": "_tokenId",
          "type": "uint256"
        },
        {
          "internalType": "address",
          "name": "_owner",
          "type": "address"
        }
      ],
      "name": "recordSetFirstOwnerOf",
      "outputs": [],
      "stateMutability": "nonpayable",
      "type": "function"
    },
    {
      "inputs": [
        {
          "internalType": "contract IJBTokenUriResolver",
          "name": "_resolver",
          "type": "address"
        }
      ],
      "name": "recordSetTokenUriResolver",
      "outputs": [],
      "stateMutability": "nonpayable",
      "type": "function"
    },
    {
      "inputs": [
        {
          "internalType": "uint256",
          "name": "_tierId",
          "type": "uint256"
        },
        {
          "internalType": "address",
          "name": "_from",
          "type": "address"
        },
        {
          "internalType": "address",
          "name": "_to",
          "type": "address"
        }
      ],
      "name": "recordTransferForTier",
      "outputs": [],
      "stateMutability": "nonpayable",
      "type": "function"
    },
    {
      "inputs": [
        {
          "internalType": "address",
          "name": "_nft",
          "type": "address"
        },
        {
          "internalType": "uint256[]",
          "name": "_tokenIds",
          "type": "uint256[]"
        }
      ],
      "name": "redemptionWeightOf",
      "outputs": [
        {
          "internalType": "uint256",
          "name": "weight",
          "type": "uint256"
        }
      ],
      "stateMutability": "view",
      "type": "function"
    },
    {
      "inputs": [
        {
          "internalType": "address",
          "name": "_nft",
          "type": "address"
        },
        {
          "internalType": "uint256",
          "name": "_tierId",
          "type": "uint256"
        }
      ],
      "name": "reservedTokenBeneficiaryOf",
      "outputs": [
        {
          "internalType": "address",
          "name": "",
          "type": "address"
        }
      ],
      "stateMutability": "view",
      "type": "function"
    },
    {
      "inputs": [
        {
          "internalType": "address",
          "name": "_nft",
          "type": "address"
        },
        {
          "internalType": "uint256",
          "name": "_tierId",
          "type": "uint256"
        }
      ],
      "name": "royaltyBeneficiaryOf",
      "outputs": [
        {
          "internalType": "address",
          "name": "",
          "type": "address"
        }
      ],
      "stateMutability": "view",
      "type": "function"
    },
    {
      "inputs": [
        {
          "internalType": "address",
          "name": "_nft",
          "type": "address"
        },
        {
          "internalType": "uint256",
          "name": "_id",
          "type": "uint256"
        }
      ],
      "name": "tier",
      "outputs": [
        {
          "components": [
            {
              "internalType": "uint256",
              "name": "id",
              "type": "uint256"
            },
            {
              "internalType": "uint256",
              "name": "contributionFloor",
              "type": "uint256"
            },
            {
              "internalType": "uint256",
              "name": "lockedUntil",
              "type": "uint256"
            },
            {
              "internalType": "uint256",
              "name": "remainingQuantity",
              "type": "uint256"
            },
            {
              "internalType": "uint256",
              "name": "initialQuantity",
              "type": "uint256"
            },
            {
              "internalType": "uint256",
              "name": "votingUnits",
              "type": "uint256"
            },
            {
              "internalType": "uint256",
              "name": "reservedRate",
              "type": "uint256"
            },
            {
              "internalType": "address",
              "name": "reservedTokenBeneficiary",
              "type": "address"
            },
            {
              "internalType": "uint256",
              "name": "royaltyRate",
              "type": "uint256"
            },
            {
              "internalType": "address",
              "name": "royaltyBeneficiary",
              "type": "address"
            },
            {
              "internalType": "bytes32",
              "name": "encodedIPFSUri",
              "type": "bytes32"
            },
            {
              "internalType": "uint256",
              "name": "category",
              "type": "uint256"
            },
            {
              "internalType": "bool",
              "name": "allowManualMint",
              "type": "bool"
            },
            {
              "internalType": "bool",
              "name": "transfersPausable",
              "type": "bool"
            }
          ],
          "internalType": "struct JB721Tier",
          "name": "",
          "type": "tuple"
        }
      ],
      "stateMutability": "view",
      "type": "function"
    },
    {
      "inputs": [
        {
          "internalType": "address",
          "name": "",
          "type": "address"
        },
        {
          "internalType": "address",
          "name": "",
          "type": "address"
        },
        {
          "internalType": "uint256",
          "name": "",
          "type": "uint256"
        }
      ],
      "name": "tierBalanceOf",
      "outputs": [
        {
          "internalType": "uint256",
          "name": "",
          "type": "uint256"
        }
      ],
      "stateMutability": "view",
      "type": "function"
    },
    {
      "inputs": [
        {
          "internalType": "uint256",
          "name": "_tokenId",
          "type": "uint256"
        }
      ],
      "name": "tierIdOfToken",
      "outputs": [
        {
          "internalType": "uint256",
          "name": "",
          "type": "uint256"
        }
      ],
      "stateMutability": "pure",
      "type": "function"
    },
    {
      "inputs": [
        {
          "internalType": "address",
          "name": "_nft",
          "type": "address"
        },
        {
          "internalType": "uint256",
          "name": "_tokenId",
          "type": "uint256"
        }
      ],
      "name": "tierOfTokenId",
      "outputs": [
        {
          "components": [
            {
              "internalType": "uint256",
              "name": "id",
              "type": "uint256"
            },
            {
              "internalType": "uint256",
              "name": "contributionFloor",
              "type": "uint256"
            },
            {
              "internalType": "uint256",
              "name": "lockedUntil",
              "type": "uint256"
            },
            {
              "internalType": "uint256",
              "name": "remainingQuantity",
              "type": "uint256"
            },
            {
              "internalType": "uint256",
              "name": "initialQuantity",
              "type": "uint256"
            },
            {
              "internalType": "uint256",
              "name": "votingUnits",
              "type": "uint256"
            },
            {
              "internalType": "uint256",
              "name": "reservedRate",
              "type": "uint256"
            },
            {
              "internalType": "address",
              "name": "reservedTokenBeneficiary",
              "type": "address"
            },
            {
              "internalType": "uint256",
              "name": "royaltyRate",
              "type": "uint256"
            },
            {
              "internalType": "address",
              "name": "royaltyBeneficiary",
              "type": "address"
            },
            {
              "internalType": "bytes32",
              "name": "encodedIPFSUri",
              "type": "bytes32"
            },
            {
              "internalType": "uint256",
              "name": "category",
              "type": "uint256"
            },
            {
              "internalType": "bool",
              "name": "allowManualMint",
              "type": "bool"
            },
            {
              "internalType": "bool",
              "name": "transfersPausable",
              "type": "bool"
            }
          ],
          "internalType": "struct JB721Tier",
          "name": "",
          "type": "tuple"
        }
      ],
      "stateMutability": "view",
      "type": "function"
    },
    {
      "inputs": [
        {
          "internalType": "address",
          "name": "_nft",
          "type": "address"
        },
        {
          "internalType": "address",
          "name": "_account",
          "type": "address"
        },
        {
          "internalType": "uint256",
          "name": "_tierId",
          "type": "uint256"
        }
      ],
      "name": "tierVotingUnitsOf",
      "outputs": [
        {
          "internalType": "uint256",
          "name": "",
          "type": "uint256"
        }
      ],
      "stateMutability": "view",
      "type": "function"
    },
    {
      "inputs": [
        {
          "internalType": "address",
          "name": "_nft",
          "type": "address"
        },
        {
          "internalType": "uint256",
          "name": "_category",
          "type": "uint256"
        },
        {
          "internalType": "uint256",
          "name": "_startingId",
          "type": "uint256"
        },
        {
          "internalType": "uint256",
          "name": "_size",
          "type": "uint256"
        }
      ],
      "name": "tiers",
      "outputs": [
        {
          "components": [
            {
              "internalType": "uint256",
              "name": "id",
              "type": "uint256"
            },
            {
              "internalType": "uint256",
              "name": "contributionFloor",
              "type": "uint256"
            },
            {
              "internalType": "uint256",
              "name": "lockedUntil",
              "type": "uint256"
            },
            {
              "internalType": "uint256",
              "name": "remainingQuantity",
              "type": "uint256"
            },
            {
              "internalType": "uint256",
              "name": "initialQuantity",
              "type": "uint256"
            },
            {
              "internalType": "uint256",
              "name": "votingUnits",
              "type": "uint256"
            },
            {
              "internalType": "uint256",
              "name": "reservedRate",
              "type": "uint256"
            },
            {
              "internalType": "address",
              "name": "reservedTokenBeneficiary",
              "type": "address"
            },
            {
              "internalType": "uint256",
              "name": "royaltyRate",
              "type": "uint256"
            },
            {
              "internalType": "address",
              "name": "royaltyBeneficiary",
              "type": "address"
            },
            {
              "internalType": "bytes32",
              "name": "encodedIPFSUri",
              "type": "bytes32"
            },
            {
              "internalType": "uint256",
              "name": "category",
              "type": "uint256"
            },
            {
              "internalType": "bool",
              "name": "allowManualMint",
              "type": "bool"
            },
            {
              "internalType": "bool",
              "name": "transfersPausable",
              "type": "bool"
            }
          ],
          "internalType": "struct JB721Tier[]",
          "name": "_tiers",
          "type": "tuple[]"
        }
      ],
      "stateMutability": "view",
      "type": "function"
    },
    {
      "inputs": [
        {
          "internalType": "address",
          "name": "",
          "type": "address"
        }
      ],
      "name": "tokenUriResolverOf",
      "outputs": [
        {
          "internalType": "contract IJBTokenUriResolver",
          "name": "",
          "type": "address"
        }
      ],
      "stateMutability": "view",
      "type": "function"
    },
    {
      "inputs": [
        {
          "internalType": "address",
          "name": "_nft",
          "type": "address"
        }
      ],
      "name": "totalRedemptionWeight",
      "outputs": [
        {
          "internalType": "uint256",
          "name": "weight",
          "type": "uint256"
        }
      ],
      "stateMutability": "view",
      "type": "function"
    },
    {
      "inputs": [
        {
          "internalType": "address",
          "name": "_nft",
          "type": "address"
        }
      ],
      "name": "totalSupply",
      "outputs": [
        {
          "internalType": "uint256",
          "name": "supply",
          "type": "uint256"
        }
      ],
      "stateMutability": "view",
      "type": "function"
    },
    {
      "inputs": [
        {
          "internalType": "address",
          "name": "_nft",
          "type": "address"
        },
        {
          "internalType": "address",
          "name": "_account",
          "type": "address"
        }
      ],
      "name": "votingUnitsOf",
      "outputs": [
        {
          "internalType": "uint256",
          "name": "units",
          "type": "uint256"
        }
      ],
      "stateMutability": "view",
      "type": "function"
    }
  ],
  "bytecode": {
    "object": "0x608060405234801561001057600080fd5b506137fe806100206000396000f3fe608060405234801561001057600080fd5b50600436106102485760003560e01c80638cec7d391161013b578063cb827e32116100b8578063eaa19ab31161007c578063eaa19ab314610767578063f1bea54f14610788578063f25abeda146107a8578063f682eeaf146107bb578063f7888aec146107ce57600080fd5b8063cb827e32146106d1578063d65981a9146106e4578063d67b78fd14610704578063d84a72c014610717578063e4dc2aa41461075457600080fd5b8063b67cb047116100ff578063b67cb0471461065a578063baa7e80e1461066d578063bd51923c14610680578063c2c55f94146106ab578063c8df1710146106be57600080fd5b80638cec7d39146105815780638ed6c010146105ca578063911c80b5146105fe5780639335557814610627578063aab0cd801461063a57600080fd5b806335314b92116101c95780636262bcb21161018d5780636262bcb2146104405780636825bb80146104535780637473c9a21461047e578063845104de1461049e57806386bc2be31461056e57600080fd5b806335314b92146103a657806337f44652146103b957806342f9914b146103ea578063453b5abe146103fd5780635f6466111461041d57600080fd5b806317161f7d1161021057806317161f7d1461030557806320512ba1146103425780632ae5e492146103555780632b7e6ef0146103685780632e4d0ea81461039357600080fd5b8063086bb19a1461024d5780630fab094714610262578063136e651c146102a8578063144cc2d4146102bb57806315fa7dff146102dc575b600080fd5b61026061025b366004612d1a565b6107e1565b005b61028b610270366004612d1a565b6010602052600090815260409020546001600160a01b031681565b6040516001600160a01b0390911681526020015b60405180910390f35b61028b6102b6366004612d37565b610976565b6102ce6102c9366004612daf565b6109cf565b60405190815260200161029f565b61028b6102ea366004612d1a565b600d602052600090815260409020546001600160a01b031681565b610260610313366004612d1a565b336000908152600c6020526040902080546001600160a01b0319166001600160a01b0392909216919091179055565b610260610350366004612e04565b610a4d565b6102ce610363366004612d1a565b610aeb565b6102ce610376366004612d37565b600b60209081526000928352604080842090915290825290205481565b6102ce6103a1366004612e46565b610c55565b6102ce6103b4366004612d37565b610cda565b6102ce6103c7366004612e46565b600960209081526000938452604080852082529284528284209052825290205481565b6102ce6103f8366004612e87565b610db1565b61041061040b366004612ea0565b610dc1565b60405161029f9190612f51565b61043061042b366004612d37565b611785565b604051901515815260200161029f565b61026061044e366004612f64565b6117bd565b6102ce610461366004612d37565b600a60209081526000928352604080842090915290825290205481565b61049161048c366004612d37565b6117dc565b60405161029f919061306f565b6105336104ac366004612d1a565b604080516080810182526000808252602082018190529181018290526060810191909152506001600160a01b03166000908152600460209081526040918290208251608081018452905460ff808216151583526101008204811615159383019390935262010000810483161515938201939093526301000000909204161515606082015290565b60405161029f919081511515815260208083015115159082015260408083015115159082015260609182015115159181019190915260800190565b61026061057c366004612e04565b6119b0565b61026061058f36600461307e565b336000908152600e602090815260408083209483529390529190912080546001600160a01b0319166001600160a01b03909216919091179055565b61028b6105d8366004612d37565b600e6020908152600092835260408084209091529082529020546001600160a01b031681565b61028b61060c366004612d1a565b600c602052600090815260409020546001600160a01b031681565b6102ce6106353660046130ae565b611a74565b61064d610648366004612d1a565b611b24565b60405161029f91906130dc565b610491610668366004612d37565b611bbe565b61041061067b36600461312a565b611db9565b6102ce61068e366004612d37565b601260209081526000928352604080842090915290825290205481565b6102606106b936600461314c565b611ff9565b6102ce6106cc366004612d37565b61208c565b6102606106df36600461318e565b6120c5565b6106f76106f23660046131a6565b6120e0565b60405161029f91906131e1565b610260610712366004612f64565b612449565b610260610725366004612d1a565b33600090815260106020526040902080546001600160a01b0319166001600160a01b0392909216919091179055565b6102ce610762366004612d1a565b612463565b61077a610775366004613249565b6124eb565b60405161029f9291906132a8565b6102ce610796366004612d1a565b60086020526000908152604090205481565b61028b6107b6366004612d37565b612858565b61064d6107c9366004612d1a565b6128ae565b6102ce6107dc3660046130ae565b6128c7565b60006107ec82612933565b905060006107fb836000612974565b6001600160a01b038416600090815260056020526040812091925090819061082390846129db565b90505b8215610931576108368184612a21565b15610860576001600160a01b038516600090815260056020526040902061085d90846129db565b90505b61086a8184612a3b565b61091f576108798260016132e0565b83146108d1576001600160a01b03851660009081526020818152604080832085845290915290205483146108cc576001600160a01b03851660009081526020818152604080832085845290915290208390555b61091b565b6001600160a01b0385166000908152602081815260408083208584529091529020541561091b576001600160a01b0385166000908152602081815260408083208584529091528120555b8291505b61092a858486612a5a565b9250610826565b6040513381526001600160a01b038616907f4a0f854ce3c180d56f3e9eb47eb064c595bf3de0ab9af45425291e5b1bb733a89060200160405180910390a25050505050565b6001600160a01b03808316600090815260016020908152604080832085845290915281205490911680156109ab5790506109c9565b50506001600160a01b038083166000908152600c6020526040902054165b92915050565b600081815b81811015610a44576001600160a01b038616600090815260036020526040812090610a16878785818110610a0a57610a0a6132f3565b90506020020135610db1565b8152602081019190915260400160002054610a3a906001600160501b0316846132e0565b92506001016109d4565b50509392505050565b806000805b82811015610ae457848482818110610a6c57610a6c6132f3565b336000908152600360209081526040808320938202959095013580835292905292909220549193505042600160501b90910464ffffffffff1610610ac357604051636b73d51160e11b815260040160405180910390fd5b336000908152600560205260409020610adc9083612aa5565b600101610a52565b5050505050565b6001600160a01b038116600090815260086020526040812054610b0c612c1b565b60005b82811015610c4d576001600160a01b0385166000908152600360209081526040808320600180860185529083529281902081516101408101835281546001600160501b038116825264ffffffffff600160501b8204811695830195909552600160781b8104851693820193909352600160a01b8304909316606084015261ffff600160c81b830481166080850152600160d81b83041660a084015260ff600160e81b8304811660c0850152600160f01b8304811660e0850152600160f81b909204821615156101008401528301541615156101208201529250610bff908690610bf99084906132e0565b84612ade565b82604001518360600151610c139190613309565b64ffffffffff16610c2491906132e0565b8251610c3991906001600160501b031661332e565b610c4390856132e0565b9350600101610b0f565b505050919050565b6001600160a01b0380841660009081526009602090815260408083209386168352928152828220848352905290812054808203610c96576000915050610cd3565b6001600160a01b0385166000908152600360209081526040808320868452909152902054610ccf90600160c81b900461ffff168261332e565b9150505b9392505050565b6001600160a01b0382166000908152600360209081526040808320848452825280832081516101408101835281546001600160501b038116825264ffffffffff600160501b8204811695830195909552600160781b8104851693820193909352600160a01b8304909316606084015261ffff600160c81b830481166080850152600160d81b83041660a084015260ff600160e81b8304811660c0850152600160f01b8304811660e0850152600160f81b9092048216151561010084015260010154161515610120820152610cd39084908490612ade565b60006109c9633b9aca0083613363565b33600090815260086020526040902054606090829061ffff610de383836132e0565b1115610e0257604051631bc68c8b60e11b815260040160405180910390fd5b6000610e0d33612933565b90508267ffffffffffffffff811115610e2857610e28613377565b604051908082528060200260200182016040528015610e51578160200160208202803683370190505b50935060008215610e6c57610e67336000612974565b610e6f565b60005b604080516101c081018252600080825260208201819052918101829052606081018290526080810182905260a0810182905260c0810182905260e08101829052610100810182905261012081018290526101408101829052610160810182905261018081018290526101a08101829052919250903360009081526004602090815260408083208151608081018352905460ff80821615158352610100820481161515948301949094526201000081048416151592820192909252630100000090910490911615156060820152905b8781101561175c578a8a82818110610f5757610f576132f3565b90506101c00201803603810190610f6e919061341c565b9250610f7f6001633b9aca00613525565b836040015164ffffffffff161115610faa576040516349016ea360e01b815260040160405180910390fd5b801561102d5760008b8b610fbf600185613525565b818110610fce57610fce6132f3565b90506101c00201803603810190610fe5919061341c565b905083610120015160ff166000148061100d575080610120015160ff1684610120015160ff16105b1561102b57604051631cabebd560e21b815260040160405180910390fd5b505b816020015180156110455750606083015161ffff1615155b1561106357604051630189200360e11b815260040160405180910390fd5b81518061107257508261014001515b80156110855750608083015161ffff1615155b156110a35760405163a75b1cd560e01b815260040160405180910390fd5b816040015180156110b657508261014001515b156110d4576040516330ec637f60e01b815260040160405180910390fd5b826040015164ffffffffff1660000361110057604051631e0a863160e31b815260040160405180910390fd5b600061110c82896132e0565b6111179060016132e0565b905060405180610140016040528085600001516001600160501b031681526020016363b0cd00866020015165ffffffffffff166111549190613525565b64ffffffffff168152602001856040015164ffffffffff168152602001856040015164ffffffffff168152602001856060015161ffff168152602001856080015161ffff1681526020018560c0015160ff16815260200185610120015160ff16815260200185610140015115158152602001856101a00151151581525060036000336001600160a01b03166001600160a01b03168152602001908152602001600020600083815260200190815260200160002060008201518160000160006101000a8154816001600160501b0302191690836001600160501b03160217905550602082015181600001600a6101000a81548164ffffffffff021916908364ffffffffff160217905550604082015181600001600f6101000a81548164ffffffffff021916908364ffffffffff16021790555060608201518160000160146101000a81548164ffffffffff021916908364ffffffffff16021790555060808201518160000160196101000a81548161ffff021916908361ffff16021790555060a082015181600001601b6101000a81548161ffff021916908361ffff16021790555060c082015181600001601d6101000a81548160ff021916908360ff16021790555060e082015181600001601e6101000a81548160ff021916908360ff16021790555061010082015181600001601f6101000a81548160ff0219169083151502179055506101208201518160010160006101000a81548160ff02191690831515021790555090505060076000336001600160a01b03166001600160a01b03168152602001908152602001600020600085610120015160ff168152602001908152602001600020546000036113e85733600090815260076020908152604080832061012088015160ff16845290915290208190555b60a08401516001600160a01b031615611479578361016001511561143c5760a0840151336000908152600c6020526040902080546001600160a01b0319166001600160a01b03909216919091179055611479565b60a0840151336000908152600160209081526040808320858452909152902080546001600160a01b0319166001600160a01b039092169190911790555b60e08401516001600160a01b03161561150a57836101800151156114cd5760e0840151336000908152600d6020526040902080546001600160a01b0319166001600160a01b0390921691909117905561150a565b60e0840151336000908152600260209081526040808320858452909152902080546001600160a01b0319166001600160a01b039092169190911790555b61010084015115611537576101008401513360009081526012602090815260408083208584529091529020555b85156117355733600090815260056020526040812087919061155990836129db565b905060005b82156117315761156e8284612a21565b1561158f5733600090815260056020526040902061158c90846129db565b91505b61159a33848c612a5a565b33600090815260036020908152604080832087845290915290205461012089015191925060ff600160f01b9091048116911610156116b7576115dd8460016132e0565b83146115ff573360009081526020818152604080832087845290915290208390555b61160a60018d613525565b851480156116275750336000908152600660205260409020548a14155b1561163f573360009081526006602052604090208a90555b61164a600185613525565b8814158061166f5750336000908152602081815260408083208b845290915290205415155b156116a85761167f600185613525565b881461168b578361168e565b60005b336000908152602081815260408083208c84529091529020555b8298508397506000925061155e565b8015806116c357508a81115b15611728576116d38360016132e0565b84146116f5573360009081526020818152604080832086845290915290208490555b3360009081526006602052604081205494995089949093501561172357336000908152600660205260408120555b61155e565b9196508161155e565b5050505b808a8381518110611748576117486132f3565b602090810291909101015250600101610f3d565b5061176787876132e0565b33600090815260086020526040902055509598975050505050505050565b6001600160a01b038216600090815260056020526040812081906117a990846129db565b90506117b58184612a3b565b949350505050565b336000908152600f602052604090206117d78284836135ba565b505050565b6117e4612c6f565b6001600160a01b038316600090815260036020908152604080832085845282529182902082516101408101845281546001600160501b03808216835264ffffffffff600160501b83048116848701908152600160781b8404821685890152600160a01b84048216606086015261ffff600160c81b850481166080870152600160d81b85041660a086015260ff600160e81b8504811660c0870152600160f01b8504811660e0870152600160f81b90940484161515610100860152600190950154909216151561012084015285516101c081018752888152835190911694810194909452915190938301916118dd91166363b0cd006132e0565b8152602001826040015164ffffffffff168152602001826060015164ffffffffff168152602001826080015161ffff1681526020018260a0015161ffff16815260200161192a8686610976565b6001600160a01b031681526020018260c0015160ff16815260200161194f8686612858565b6001600160a01b03908116825286166000908152601260209081526040808320888452825291829020549083015260e084015160ff169082015261010083015115156060820152610120909201511515608090920191909152905092915050565b806000805b82811015610ae4578484828181106119cf576119cf6132f3565b90506020020135915060006119e383610db1565b336000908152600b602090815260408083208484529091528120805492935090611a0c8361367a565b909155505033600090815260036020908152604080832084845290915290208054600160781b900464ffffffffff1690600f611a4783613693565b91906101000a81548164ffffffffff021916908364ffffffffff16021790555050816001019150506119b5565b6001600160a01b03821660009081526008602052604081205481815b8015611b1b576001600160a01b03808716600090815260096020908152604080832093891683529281528282208483529052205491508115611b12576001600160a01b0386166000908152600360209081526040808320848452909152902054611b0590600160c81b900461ffff168361332e565b611b0f90856132e0565b93505b60001901611a90565b50505092915050565b60116020526000908152604090208054611b3d90613538565b80601f0160208091040260200160405190810160405280929190818152602001828054611b6990613538565b8015611bb65780601f10611b8b57610100808354040283529160200191611bb6565b820191906000526020600020905b815481529060010190602001808311611b9957829003601f168201915b505050505081565b611bc6612c6f565b6000611bd183610db1565b6001600160a01b038516600090815260036020908152604080832084845282529182902082516101408101845281546001600160501b03808216835264ffffffffff600160501b83048116848701908152600160781b8404821685890152600160a01b84048216606086015261ffff600160c81b850481166080870152600160d81b85041660a086015260ff600160e81b8504811660c0870152600160f01b8504811660e0870152600160f81b90940484161515610100860152600190950154909216151561012084015285516101c0810187528781528351909116948101949094529151949550939192830191611cce91166363b0cd006132e0565b8152602001826040015164ffffffffff168152602001826060015164ffffffffff168152602001826080015161ffff1681526020018260a0015161ffff168152602001611d1b8785610976565b6001600160a01b031681526020018260c0015160ff168152602001611d408785612858565b6001600160a01b0316815260200160126000886001600160a01b03166001600160a01b0316815260200190815260200160002060008581526020019081526020016000205481526020018260e0015160ff1681526020018261010001511515815260200182610120015115158152509250505092915050565b336000818152600360209081526040808320868452825280832081516101408101835281546001600160501b038116825264ffffffffff600160501b8204811695830195909552600160781b8104851693820193909352600160a01b830490931660608481019190915261ffff600160c81b840481166080860152600160d81b84041660a085015260ff600160e81b8404811660c0860152600160f01b8404811660e0860152600160f81b90930483161515610100850152600182015490921615156101208401529093909291611e9291908790612ade565b905080841115611eb55760405163226f999960e11b815260040160405180910390fd5b336000908152600a6020908152604080832088845290915281208054869290611edf9084906132e0565b9091555084905067ffffffffffffffff811115611efe57611efe613377565b604051908082528060200260200182016040528015611f27578160200160208202803683370190505b50336000908152600b602090815260408083208984529091528120549194505b85811015611fef57611fca878386600001600f81819054906101000a900464ffffffffff16611f75906136b7565b91906101000a81548164ffffffffff021916908364ffffffffff16021790558760000160149054906101000a900464ffffffffff16611fb49190613309565b64ffffffffff16611fc591906132e0565b612c00565b858281518110611fdc57611fdc6132f3565b6020908102919091010152600101611f47565b5050505092915050565b6001600160a01b03821615612046573360009081526009602090815260408083206001600160a01b0386168452825280832086845290915281208054909190612041906136d8565b909155505b6001600160a01b038116156117d7573360009081526009602090815260408083206001600160a01b03851684528252808320868452909152902080546001019055505050565b6001600160a01b0382166000908152601260205260408120816120ae84610db1565b815260200190815260200160002054905092915050565b33600090815260046020526040902081906117d782826136fc565b606060006120ed86612933565b90508267ffffffffffffffff81111561210857612108613377565b60405190808252806020026020018201604052801561214157816020015b61212e612c6f565b8152602001906001900390816121265790505b5091506000808560000361215e576121598888612974565b612160565b855b905061216a612c1b565b6001600160a01b038916600090815260056020526040812061218c90846129db565b90505b821580159061219d57508684105b15612431576121ac8184612a21565b156121d6576001600160a01b038a1660009081526005602052604090206121d390846129db565b90505b6121e08184612a3b565b61241f576001600160a01b038a16600090815260036020908152604080832086845282529182902082516101408101845281546001600160501b038116825264ffffffffff600160501b8204811694830194909452600160781b8104841694820194909452600160a01b8404909216606083015261ffff600160c81b840481166080840152600160d81b84041660a083015260ff600160e81b8404811660c0840152600160f01b8404811660e0840152600160f81b9093048316151561010083015260010154909116151561012082015291508815806122c65750888260e0015160ff16145b156123ff57604051806101c0016040528084815260200183600001516001600160501b03168152602001836020015164ffffffffff166363b0cd0061230b91906132e0565b8152602001836040015164ffffffffff168152602001836060015164ffffffffff168152602001836080015161ffff1681526020018360a0015161ffff1681526020016123588c86610976565b6001600160a01b031681526020018360c0015160ff16815260200161237d8c86612858565b6001600160a01b0390811682528c166000908152601260209081526040808320888452825291829020549083015260e085015160ff169082015261010084015115156060820152610120840151151560809091015286856123dd8161367a565b9650815181106123ef576123ef6132f3565b602002602001018190525061241f565b6000891180156124155750888260e0015160ff16115b1561241f57600092505b61242a8a8487612a5a565b925061218f565b86841461243c578386525b5050505050949350505050565b3360009081526011602052604090206117d78284836135ba565b6001600160a01b0381166000908152600860205260408120548190805b8015610c4d576001600160a01b0385166000908152600360209081526040808320848452909152902080549093506124cf9064ffffffffff600160781b8204811691600160a01b900416613309565b6124e09064ffffffffff16856132e0565b935060001901612480565b606084836000808267ffffffffffffffff81111561250b5761250b613377565b604051908082528060200260200182016040528015612534578160200160208202803683370190505b509450600061257d8989600081811061254f5761254f6132f3565b90506020020160208101906125649190613799565b3360009081526005602052604090209061ffff166129db565b905060005b8481101561284a5789898281811061259c5761259c6132f3565b90506020020160208101906125b19190613799565b61ffff1692506125c18284612a21565b156125e2573360009081526005602052604090206125df90846129db565b91505b6125ec8284612a3b565b1561260a5760405163d32cb5c160e01b815260040160405180910390fd5b3360009081526003602090815260408083208684529091529020935087801561263c57508354600160f81b900460ff16155b1561265a57604051632f792d3960e11b815260040160405180910390fd5b8354600160a01b900464ffffffffff1660000361268a57604051630de5859f60e01b815260040160405180910390fd5b83546001600160501b03168610156126b557604051632cd294cf60e01b815260040160405180910390fd5b604080516101408101825285546001600160501b038116825264ffffffffff600160501b820481166020840152600160781b8204811693830193909352600160a01b8104909216606082015261ffff600160c81b830481166080830152600160d81b83041660a082015260ff600160e81b8304811660c0830152600160f01b8304811660e0830152600160f81b909204821615156101008201526001860154909116151561012082015261276c9033908590612ade565b84546127869190600160781b900464ffffffffff16613525565b6000036127a65760405163985a45d960e01b815260040160405180910390fd5b336000908152600b60209081526040808320868452909152902054845460001964ffffffffff600160781b808404821692830182160264ffffffffff60781b199093169290921780885561280e938793600160a01b9092048216929092036001011601612c00565b878281518110612820576128206132f3565b60209081029190910101528354612840906001600160501b031687613525565b9550600101612582565b505050505094509492505050565b6001600160a01b038083166000908152600260209081526040808320858452909152812054909116801561288d5790506109c9565b5050506001600160a01b039081166000908152600d60205260409020541690565b600f6020526000908152604090208054611b3d90613538565b6001600160a01b038216600090815260086020526040812054805b801561292b576001600160a01b03808616600090815260096020908152604080832093881683529281528282208483529052205461292090846132e0565b9250600019016128e2565b505092915050565b6001600160a01b0381166000908152600660205260408120549081900361296f57506001600160a01b0381166000908152600860205260409020545b919050565b600081156129a5576001600160a01b03831660009081526007602090815260408083208584529091529020546129c8565b6001600160a01b0383166000908152602081815260408083208380529091529020545b9050806000036109c95750600192915050565b604080518082019091526000808252602082015260006129fb8360081c90565b604080518082018252600083815260209788529190912054815294850152509192915050565b60008260200151612a328360081c90565b14159392505050565b6000612a49610100836137b4565b83516001911c811614905092915050565b6000818303612a6b57506000610cd3565b6001600160a01b0384166000908152602081815260408083208684529091529020548015612a9a579050610cd3565b610ccf8460016132e0565b6000612ab18260081c90565b9050612abf610100836137b4565b6000918252602093909352604090208054600190931b90921790915550565b60008160a0015161ffff1660001480612b0c5750816040015164ffffffffff16826060015164ffffffffff16145b15612b1957506000610cd3565b6001600160a01b0384166000908152600a60209081526040808320868452909152908190205490830151606084015164ffffffffff91821691612b5e91849116613525565b03612b6d576000915050610cd3565b60008184604001518560600151612b849190613309565b64ffffffffff16612b959190613525565b905060008460a0015161ffff1682612bad9190613363565b905060008560a0015161ffff1683612bc591906137b4565b1115612bd757612bd48161367a565b90505b80831115612beb5760009350505050610cd3565b612bf58382613525565b979650505050505050565b600081612c11633b9aca008561332e565b610cd391906132e0565b6040805161014081018252600080825260208201819052918101829052606081018290526080810182905260a0810182905260c0810182905260e08101829052610100810182905261012081019190915290565b604051806101c001604052806000815260200160008152602001600081526020016000815260200160008152602001600081526020016000815260200160006001600160a01b031681526020016000815260200160006001600160a01b0316815260200160008019168152602001600081526020016000151581526020016000151581525090565b6001600160a01b0381168114612d0c57600080fd5b50565b803561296f81612cf7565b600060208284031215612d2c57600080fd5b8135610cd381612cf7565b60008060408385031215612d4a57600080fd5b8235612d5581612cf7565b946020939093013593505050565b60008083601f840112612d7557600080fd5b50813567ffffffffffffffff811115612d8d57600080fd5b6020830191508360208260051b8501011115612da857600080fd5b9250929050565b600080600060408486031215612dc457600080fd5b8335612dcf81612cf7565b9250602084013567ffffffffffffffff811115612deb57600080fd5b612df786828701612d63565b9497909650939450505050565b60008060208385031215612e1757600080fd5b823567ffffffffffffffff811115612e2e57600080fd5b612e3a85828601612d63565b90969095509350505050565b600080600060608486031215612e5b57600080fd5b8335612e6681612cf7565b92506020840135612e7681612cf7565b929592945050506040919091013590565b600060208284031215612e9957600080fd5b5035919050565b60008060208385031215612eb357600080fd5b823567ffffffffffffffff80821115612ecb57600080fd5b818501915085601f830112612edf57600080fd5b813581811115612eee57600080fd5b8660206101c083028501011115612f0457600080fd5b60209290920196919550909350505050565b600081518084526020808501945080840160005b83811015612f4657815187529582019590820190600101612f2a565b509495945050505050565b602081526000610cd36020830184612f16565b60008060208385031215612f7757600080fd5b823567ffffffffffffffff80821115612f8f57600080fd5b818501915085601f830112612fa357600080fd5b813581811115612fb257600080fd5b866020828501011115612f0457600080fd5b805182526020810151602083015260408101516040830152606081015160608301526080810151608083015260a081015160a083015260c081015160c083015260e081015161301e60e08401826001600160a01b03169052565b506101008181015190830152610120808201516001600160a01b03169083015261014080820151908301526101608082015190830152610180808201511515908301526101a0908101511515910152565b6101c081016109c98284612fc4565b6000806040838503121561309157600080fd5b8235915060208301356130a381612cf7565b809150509250929050565b600080604083850312156130c157600080fd5b82356130cc81612cf7565b915060208301356130a381612cf7565b600060208083528351808285015260005b81811015613109578581018301518582016040015282016130ed565b506000604082860101526040601f19601f8301168501019250505092915050565b6000806040838503121561313d57600080fd5b50508035926020909101359150565b60008060006060848603121561316157600080fd5b83359250602084013561317381612cf7565b9150604084013561318381612cf7565b809150509250925092565b6000608082840312156131a057600080fd5b50919050565b600080600080608085870312156131bc57600080fd5b84356131c781612cf7565b966020860135965060408601359560600135945092505050565b6020808252825182820181905260009190848201906040850190845b8181101561322457613210838551612fc4565b928401926101c092909201916001016131fd565b50909695505050505050565b8015158114612d0c57600080fd5b803561296f81613230565b6000806000806060858703121561325f57600080fd5b84359350602085013567ffffffffffffffff81111561327d57600080fd5b61328987828801612d63565b909450925050604085013561329d81613230565b939692955090935050565b6040815260006132bb6040830185612f16565b90508260208301529392505050565b634e487b7160e01b600052601160045260246000fd5b808201808211156109c9576109c96132ca565b634e487b7160e01b600052603260045260246000fd5b64ffffffffff828116828216039080821115613327576133276132ca565b5092915050565b6000816000190483118215151615613348576133486132ca565b500290565b634e487b7160e01b600052601260045260246000fd5b6000826133725761337261334d565b500490565b634e487b7160e01b600052604160045260246000fd5b6040516101c0810167ffffffffffffffff811182821017156133b1576133b1613377565b60405290565b80356001600160501b038116811461296f57600080fd5b803565ffffffffffff8116811461296f57600080fd5b803564ffffffffff8116811461296f57600080fd5b803561ffff8116811461296f57600080fd5b803560ff8116811461296f57600080fd5b60006101c0828403121561342f57600080fd5b61343761338d565b613440836133b7565b815261344e602084016133ce565b602082015261345f604084016133e4565b6040820152613470606084016133f9565b6060820152613481608084016133f9565b608082015261349260a08401612d0f565b60a08201526134a360c0840161340b565b60c08201526134b460e08401612d0f565b60e082015261010083810135908201526101206134d281850161340b565b908201526101406134e484820161323e565b908201526101606134f684820161323e565b9082015261018061350884820161323e565b908201526101a061351a84820161323e565b908201529392505050565b818103818111156109c9576109c96132ca565b600181811c9082168061354c57607f821691505b6020821081036131a057634e487b7160e01b600052602260045260246000fd5b601f8211156117d757600081815260208120601f850160051c810160208610156135935750805b601f850160051c820191505b818110156135b25782815560010161359f565b505050505050565b67ffffffffffffffff8311156135d2576135d2613377565b6135e6836135e08354613538565b8361356c565b6000601f84116001811461361a57600085156136025750838201355b600019600387901b1c1916600186901b178355610ae4565b600083815260209020601f19861690835b8281101561364b578685013582556020948501946001909201910161362b565b50868210156136685760001960f88860031b161c19848701351681555b505060018560011b0183555050505050565b60006001820161368c5761368c6132ca565b5060010190565b600064ffffffffff8083168181036136ad576136ad6132ca565b6001019392505050565b600064ffffffffff8216806136ce576136ce6132ca565b6000190192915050565b6000816136e7576136e76132ca565b506000190190565b600081356109c981613230565b813561370781613230565b815460ff19811691151560ff169182178355602084013561372781613230565b61ff0090151560081b1661ffff198216831781178455604085013561374b81613230565b62ff000081151560101b168462ffffff19851617831717855550505050613795613777606084016136ef565b82805463ff000000191691151560181b63ff00000016919091179055565b5050565b6000602082840312156137ab57600080fd5b610cd3826133f9565b6000826137c3576137c361334d565b50069056fea2646970667358221220010d1baeebef8283961da7939beb8ce4abb4b28bc5de05458a7178c2f318b57964736f6c63430008100033",
    "linkReferences": {}
  },
  "methodIdentifiers": {
    "balanceOf(address,address)": "f7888aec",
    "baseUriOf(address)": "f682eeaf",
    "cleanTiers(address)": "086bb19a",
    "contractUriOf(address)": "aab0cd80",
    "defaultReservedTokenBeneficiaryOf(address)": "911c80b5",
    "defaultRoyaltyBeneficiaryOf(address)": "15fa7dff",
    "encodedIPFSUriOf(address,uint256)": "bd51923c",
    "encodedTierIPFSUriOf(address,uint256)": "c8df1710",
    "firstOwnerOf(address,uint256)": "8ed6c010",
    "flagsOf(address)": "845104de",
    "isTierRemoved(address,uint256)": "5f646611",
    "maxTierIdOf(address)": "f1bea54f",
    "numberOfBurnedFor(address,uint256)": "2b7e6ef0",
    "numberOfReservedTokensOutstandingFor(address,uint256)": "35314b92",
    "numberOfReservesMintedFor(address,uint256)": "6825bb80",
    "recordAddTiers((uint80,uint48,uint40,uint16,uint16,address,uint8,address,bytes32,uint8,bool,bool,bool,bool)[])": "453b5abe",
    "recordBurn(uint256[])": "86bc2be3",
    "recordFlags((bool,bool,bool,bool))": "cb827e32",
    "recordMint(uint256,uint16[],bool)": "eaa19ab3",
    "recordMintReservesFor(uint256,uint256)": "baa7e80e",
    "recordRemoveTierIds(uint256[])": "20512ba1",
    "recordSetBaseUri(string)": "6262bcb2",
    "recordSetContractUri(string)": "d67b78fd",
    "recordSetDefaultReservedTokenBeneficiary(address)": "17161f7d",
    "recordSetFirstOwnerOf(uint256,address)": "8cec7d39",
    "recordSetTokenUriResolver(address)": "d84a72c0",
    "recordTransferForTier(uint256,address,address)": "c2c55f94",
    "redemptionWeightOf(address,uint256[])": "144cc2d4",
    "reservedTokenBeneficiaryOf(address,uint256)": "136e651c",
    "royaltyBeneficiaryOf(address,uint256)": "f25abeda",
    "tier(address,uint256)": "7473c9a2",
    "tierBalanceOf(address,address,uint256)": "37f44652",
    "tierIdOfToken(uint256)": "42f9914b",
    "tierOfTokenId(address,uint256)": "b67cb047",
    "tierVotingUnitsOf(address,address,uint256)": "2e4d0ea8",
    "tiers(address,uint256,uint256,uint256)": "d65981a9",
    "tokenUriResolverOf(address)": "0fab0947",
    "totalRedemptionWeight(address)": "2ae5e492",
    "totalSupply(address)": "e4dc2aa4",
    "votingUnitsOf(address,address)": "93355578"
  },
  "id": 5
}