{
  "abi": [
    {
      "inputs": [],
      "name": "CANT_MINT_MANUALLY",
      "type": "error"
    },
    {
      "inputs": [],
      "name": "INSUFFICIENT_AMOUNT",
      "type": "error"
    },
    {
      "inputs": [],
      "name": "INSUFFICIENT_RESERVES",
      "type": "error"
    },
    {
      "inputs": [],
      "name": "INVALID_CATEGORY",
      "type": "error"
    },
    {
      "inputs": [],
      "name": "INVALID_CATEGORY_SORT_ORDER",
      "type": "error"
    },
    {
      "inputs": [],
      "name": "INVALID_QUANTITY",
      "type": "error"
    },
    {
      "inputs": [],
      "name": "INVALID_ROYALTY_RATE",
      "type": "error"
    },
    {
      "inputs": [],
      "name": "INVALID_TIER",
      "type": "error"
    },
    {
      "inputs": [],
      "name": "MANUAL_MINTING_NOT_ALLOWED",
      "type": "error"
    },
    {
      "inputs": [],
      "name": "MAX_TIERS_EXCEEDED",
      "type": "error"
    },
    {
      "inputs": [],
      "name": "NO_QUANTITY",
      "type": "error"
    },
    {
      "inputs": [],
      "name": "OUT",
      "type": "error"
    },
    {
      "inputs": [
        {
          "internalType": "uint256",
          "name": "prod1",
          "type": "uint256"
        },
        {
          "internalType": "uint256",
          "name": "denominator",
          "type": "uint256"
        }
      ],
      "name": "PRBMath__MulDivOverflow",
      "type": "error"
    },
    {
      "inputs": [],
      "name": "PRICING_RESOLVER_CHANGES_LOCKED",
      "type": "error"
    },
    {
      "inputs": [],
      "name": "RESERVED_RATE_NOT_ALLOWED",
      "type": "error"
    },
    {
      "inputs": [],
      "name": "TIER_REMOVED",
      "type": "error"
    },
    {
      "inputs": [],
      "name": "VOTING_UNITS_NOT_ALLOWED",
      "type": "error"
    },
    {
      "anonymous": false,
      "inputs": [
        {
          "indexed": true,
          "internalType": "address",
          "name": "nft",
          "type": "address"
        },
        {
          "indexed": false,
          "internalType": "address",
          "name": "caller",
          "type": "address"
        }
      ],
      "name": "CleanTiers",
      "type": "event"
    },
    {
      "inputs": [],
      "name": "MAX_ROYALTY_RATE",
      "outputs": [
        {
          "internalType": "uint256",
          "name": "",
          "type": "uint256"
        }
      ],
      "stateMutability": "view",
      "type": "function"
    },
    {
      "inputs": [
        {
          "internalType": "address",
          "name": "_nft",
          "type": "address"
        },
        {
          "internalType": "address",
          "name": "_owner",
          "type": "address"
        }
      ],
      "name": "balanceOf",
      "outputs": [
        {
          "internalType": "uint256",
          "name": "balance",
          "type": "uint256"
        }
      ],
      "stateMutability": "view",
      "type": "function"
    },
    {
      "inputs": [
        {
          "internalType": "address",
          "name": "",
          "type": "address"
        }
      ],
      "name": "baseUriOf",
      "outputs": [
        {
          "internalType": "string",
          "name": "",
          "type": "string"
        }
      ],
      "stateMutability": "view",
      "type": "function"
    },
    {
      "inputs": [
        {
          "internalType": "address",
          "name": "_nft",
          "type": "address"
        }
      ],
      "name": "cleanTiers",
      "outputs": [],
      "stateMutability": "nonpayable",
      "type": "function"
    },
    {
      "inputs": [
        {
          "internalType": "address",
          "name": "",
          "type": "address"
        }
      ],
      "name": "contractUriOf",
      "outputs": [
        {
          "internalType": "string",
          "name": "",
          "type": "string"
        }
      ],
      "stateMutability": "view",
      "type": "function"
    },
    {
      "inputs": [
        {
          "internalType": "address",
          "name": "",
          "type": "address"
        }
      ],
      "name": "defaultReservedTokenBeneficiaryOf",
      "outputs": [
        {
          "internalType": "address",
          "name": "",
          "type": "address"
        }
      ],
      "stateMutability": "view",
      "type": "function"
    },
    {
      "inputs": [
        {
          "internalType": "address",
          "name": "",
          "type": "address"
        }
      ],
      "name": "defaultRoyaltyBeneficiaryOf",
      "outputs": [
        {
          "internalType": "address",
          "name": "",
          "type": "address"
        }
      ],
      "stateMutability": "view",
      "type": "function"
    },
    {
      "inputs": [
        {
          "internalType": "address",
          "name": "",
          "type": "address"
        },
        {
          "internalType": "uint256",
          "name": "",
          "type": "uint256"
        }
      ],
      "name": "encodedIPFSUriOf",
      "outputs": [
        {
          "internalType": "bytes32",
          "name": "",
          "type": "bytes32"
        }
      ],
      "stateMutability": "view",
      "type": "function"
    },
    {
      "inputs": [
        {
          "internalType": "address",
          "name": "_nft",
          "type": "address"
        },
        {
          "internalType": "uint256",
          "name": "_tokenId",
          "type": "uint256"
        }
      ],
      "name": "encodedTierIPFSUriOf",
      "outputs": [
        {
          "internalType": "bytes32",
          "name": "",
          "type": "bytes32"
        }
      ],
      "stateMutability": "view",
      "type": "function"
    },
    {
      "inputs": [
        {
          "internalType": "address",
          "name": "",
          "type": "address"
        },
        {
          "internalType": "uint256",
          "name": "",
          "type": "uint256"
        }
      ],
      "name": "firstOwnerOf",
      "outputs": [
        {
          "internalType": "address",
          "name": "",
          "type": "address"
        }
      ],
      "stateMutability": "view",
      "type": "function"
    },
    {
      "inputs": [
        {
          "internalType": "address",
          "name": "_nft",
          "type": "address"
        }
      ],
      "name": "flagsOf",
      "outputs": [
        {
          "components": [
            {
              "internalType": "bool",
              "name": "lockReservedTokenChanges",
              "type": "bool"
            },
            {
              "internalType": "bool",
              "name": "lockVotingUnitChanges",
              "type": "bool"
            },
            {
              "internalType": "bool",
              "name": "lockManualMintingChanges",
              "type": "bool"
            },
            {
              "internalType": "bool",
              "name": "preventOverspending",
              "type": "bool"
            }
          ],
          "internalType": "struct JBTiered721Flags",
          "name": "",
          "type": "tuple"
        }
      ],
      "stateMutability": "view",
      "type": "function"
    },
    {
      "inputs": [
        {
          "internalType": "address",
          "name": "_nft",
          "type": "address"
        },
        {
          "internalType": "uint256",
          "name": "_tierId",
          "type": "uint256"
        }
      ],
      "name": "isTierRemoved",
      "outputs": [
        {
          "internalType": "bool",
          "name": "",
          "type": "bool"
        }
      ],
      "stateMutability": "view",
      "type": "function"
    },
    {
      "inputs": [
        {
          "internalType": "address",
          "name": "",
          "type": "address"
        }
      ],
      "name": "maxTierIdOf",
      "outputs": [
        {
          "internalType": "uint256",
          "name": "",
          "type": "uint256"
        }
      ],
      "stateMutability": "view",
      "type": "function"
    },
    {
      "inputs": [
        {
          "internalType": "address",
          "name": "",
          "type": "address"
        },
        {
          "internalType": "uint256",
          "name": "",
          "type": "uint256"
        }
      ],
      "name": "numberOfBurnedFor",
      "outputs": [
        {
          "internalType": "uint256",
          "name": "",
          "type": "uint256"
        }
      ],
      "stateMutability": "view",
      "type": "function"
    },
    {
      "inputs": [
        {
          "internalType": "address",
          "name": "_nft",
          "type": "address"
        },
        {
          "internalType": "uint256",
          "name": "_tierId",
          "type": "uint256"
        }
      ],
      "name": "numberOfReservedTokensOutstandingFor",
      "outputs": [
        {
          "internalType": "uint256",
          "name": "",
          "type": "uint256"
        }
      ],
      "stateMutability": "view",
      "type": "function"
    },
    {
      "inputs": [
        {
          "internalType": "address",
          "name": "",
          "type": "address"
        },
        {
          "internalType": "uint256",
          "name": "",
          "type": "uint256"
        }
      ],
      "name": "numberOfReservesMintedFor",
      "outputs": [
        {
          "internalType": "uint256",
          "name": "",
          "type": "uint256"
        }
      ],
      "stateMutability": "view",
      "type": "function"
    },
    {
      "inputs": [
        {
          "components": [
            {
              "internalType": "uint88",
              "name": "price",
              "type": "uint88"
            },
            {
              "internalType": "uint40",
              "name": "initialQuantity",
              "type": "uint40"
            },
            {
              "internalType": "uint40",
              "name": "votingUnits",
              "type": "uint40"
            },
            {
              "internalType": "uint16",
              "name": "reservedRate",
              "type": "uint16"
            },
            {
              "internalType": "address",
              "name": "reservedTokenBeneficiary",
              "type": "address"
            },
            {
              "internalType": "uint8",
              "name": "royaltyRate",
              "type": "uint8"
            },
            {
              "internalType": "address",
              "name": "royaltyBeneficiary",
              "type": "address"
            },
            {
              "internalType": "bytes32",
              "name": "encodedIPFSUri",
              "type": "bytes32"
            },
            {
              "internalType": "uint16",
              "name": "category",
              "type": "uint16"
            },
            {
              "internalType": "bool",
              "name": "allowManualMint",
              "type": "bool"
            },
            {
              "internalType": "bool",
              "name": "shouldUseReservedTokenBeneficiaryAsDefault",
              "type": "bool"
            },
            {
              "internalType": "bool",
              "name": "shouldUseRoyaltyBeneficiaryAsDefault",
              "type": "bool"
            },
            {
              "internalType": "bool",
              "name": "transfersPausable",
              "type": "bool"
            },
            {
              "internalType": "bool",
              "name": "useVotingUnits",
              "type": "bool"
            }
          ],
          "internalType": "struct JB721TierParams[]",
          "name": "_tiersToAdd",
          "type": "tuple[]"
        }
      ],
      "name": "recordAddTiers",
      "outputs": [
        {
          "internalType": "uint256[]",
          "name": "tierIds",
          "type": "uint256[]"
        }
      ],
      "stateMutability": "nonpayable",
      "type": "function"
    },
    {
      "inputs": [
        {
          "internalType": "uint256[]",
          "name": "_tokenIds",
          "type": "uint256[]"
        }
      ],
      "name": "recordBurn",
      "outputs": [],
      "stateMutability": "nonpayable",
      "type": "function"
    },
    {
      "inputs": [
        {
          "components": [
            {
              "internalType": "bool",
              "name": "lockReservedTokenChanges",
              "type": "bool"
            },
            {
              "internalType": "bool",
              "name": "lockVotingUnitChanges",
              "type": "bool"
            },
            {
              "internalType": "bool",
              "name": "lockManualMintingChanges",
              "type": "bool"
            },
            {
              "internalType": "bool",
              "name": "preventOverspending",
              "type": "bool"
            }
          ],
          "internalType": "struct JBTiered721Flags",
          "name": "_flags",
          "type": "tuple"
        }
      ],
      "name": "recordFlags",
      "outputs": [],
      "stateMutability": "nonpayable",
      "type": "function"
    },
    {
      "inputs": [
        {
          "internalType": "uint256",
          "name": "_amount",
          "type": "uint256"
        },
        {
          "internalType": "uint16[]",
          "name": "_tierIds",
          "type": "uint16[]"
        },
        {
          "internalType": "bool",
          "name": "_isManualMint",
          "type": "bool"
        }
      ],
      "name": "recordMint",
      "outputs": [
        {
          "internalType": "uint256[]",
          "name": "tokenIds",
          "type": "uint256[]"
        },
        {
          "internalType": "uint256",
          "name": "leftoverAmount",
          "type": "uint256"
        }
      ],
      "stateMutability": "nonpayable",
      "type": "function"
    },
    {
      "inputs": [
        {
          "internalType": "uint256",
          "name": "_tierId",
          "type": "uint256"
        },
        {
          "internalType": "uint256",
          "name": "_count",
          "type": "uint256"
        }
      ],
      "name": "recordMintReservesFor",
      "outputs": [
        {
          "internalType": "uint256[]",
          "name": "tokenIds",
          "type": "uint256[]"
        }
      ],
      "stateMutability": "nonpayable",
      "type": "function"
    },
    {
      "inputs": [
        {
          "internalType": "uint256[]",
          "name": "_tierIds",
          "type": "uint256[]"
        }
      ],
      "name": "recordRemoveTierIds",
      "outputs": [],
      "stateMutability": "nonpayable",
      "type": "function"
    },
    {
      "inputs": [
        {
          "internalType": "string",
          "name": "_uri",
          "type": "string"
        }
      ],
      "name": "recordSetBaseUri",
      "outputs": [],
      "stateMutability": "nonpayable",
      "type": "function"
    },
    {
      "inputs": [
        {
          "internalType": "string",
          "name": "_uri",
          "type": "string"
        }
      ],
      "name": "recordSetContractUri",
      "outputs": [],
      "stateMutability": "nonpayable",
      "type": "function"
    },
    {
      "inputs": [
        {
          "internalType": "address",
          "name": "_beneficiary",
          "type": "address"
        }
      ],
      "name": "recordSetDefaultReservedTokenBeneficiary",
      "outputs": [],
      "stateMutability": "nonpayable",
      "type": "function"
    },
    {
      "inputs": [
        {
          "internalType": "uint256",
          "name": "_tierId",
          "type": "uint256"
        },
        {
          "internalType": "bytes32",
          "name": "_encodedIPFSUri",
          "type": "bytes32"
        }
      ],
      "name": "recordSetEncodedIPFSUriOf",
      "outputs": [],
      "stateMutability": "nonpayable",
      "type": "function"
    },
    {
      "inputs": [
        {
          "internalType": "uint256",
          "name": "_tokenId",
          "type": "uint256"
        },
        {
          "internalType": "address",
          "name": "_owner",
          "type": "address"
        }
      ],
      "name": "recordSetFirstOwnerOf",
      "outputs": [],
      "stateMutability": "nonpayable",
      "type": "function"
    },
    {
      "inputs": [
        {
          "internalType": "contract IJBTokenUriResolver",
          "name": "_resolver",
          "type": "address"
        }
      ],
      "name": "recordSetTokenUriResolver",
      "outputs": [],
      "stateMutability": "nonpayable",
      "type": "function"
    },
    {
      "inputs": [
        {
          "internalType": "uint256",
          "name": "_tierId",
          "type": "uint256"
        },
        {
          "internalType": "address",
          "name": "_from",
          "type": "address"
        },
        {
          "internalType": "address",
          "name": "_to",
          "type": "address"
        }
      ],
      "name": "recordTransferForTier",
      "outputs": [],
      "stateMutability": "nonpayable",
      "type": "function"
    },
    {
      "inputs": [
        {
          "internalType": "address",
          "name": "_nft",
          "type": "address"
        },
        {
          "internalType": "uint256[]",
          "name": "_tokenIds",
          "type": "uint256[]"
        }
      ],
      "name": "redemptionWeightOf",
      "outputs": [
        {
          "internalType": "uint256",
          "name": "weight",
          "type": "uint256"
        }
      ],
      "stateMutability": "view",
      "type": "function"
    },
    {
      "inputs": [
        {
          "internalType": "address",
          "name": "_nft",
          "type": "address"
        },
        {
          "internalType": "uint256",
          "name": "_tierId",
          "type": "uint256"
        }
      ],
      "name": "reservedTokenBeneficiaryOf",
      "outputs": [
        {
          "internalType": "address",
          "name": "",
          "type": "address"
        }
      ],
      "stateMutability": "view",
      "type": "function"
    },
    {
      "inputs": [
        {
          "internalType": "address",
          "name": "_nft",
          "type": "address"
        },
        {
          "internalType": "uint256",
          "name": "_tokenId",
          "type": "uint256"
        },
        {
          "internalType": "uint256",
          "name": "_salePrice",
          "type": "uint256"
        }
      ],
      "name": "royaltyInfo",
      "outputs": [
        {
          "internalType": "address",
          "name": "receiver",
          "type": "address"
        },
        {
          "internalType": "uint256",
          "name": "royaltyAmount",
          "type": "uint256"
        }
      ],
      "stateMutability": "view",
      "type": "function"
    },
    {
      "inputs": [
        {
          "internalType": "address",
          "name": "_nft",
          "type": "address"
        },
        {
          "internalType": "uint256",
          "name": "_id",
          "type": "uint256"
        }
      ],
      "name": "tier",
      "outputs": [
        {
          "components": [
            {
              "internalType": "uint256",
              "name": "id",
              "type": "uint256"
            },
            {
              "internalType": "uint256",
              "name": "price",
              "type": "uint256"
            },
            {
              "internalType": "uint256",
              "name": "remainingQuantity",
              "type": "uint256"
            },
            {
              "internalType": "uint256",
              "name": "initialQuantity",
              "type": "uint256"
            },
            {
              "internalType": "uint256",
              "name": "votingUnits",
              "type": "uint256"
            },
            {
              "internalType": "uint256",
              "name": "reservedRate",
              "type": "uint256"
            },
            {
              "internalType": "address",
              "name": "reservedTokenBeneficiary",
              "type": "address"
            },
            {
              "internalType": "uint256",
              "name": "royaltyRate",
              "type": "uint256"
            },
            {
              "internalType": "address",
              "name": "royaltyBeneficiary",
              "type": "address"
            },
            {
              "internalType": "bytes32",
              "name": "encodedIPFSUri",
              "type": "bytes32"
            },
            {
              "internalType": "uint256",
              "name": "category",
              "type": "uint256"
            },
            {
              "internalType": "bool",
              "name": "allowManualMint",
              "type": "bool"
            },
            {
              "internalType": "bool",
              "name": "transfersPausable",
              "type": "bool"
            },
            {
              "internalType": "bool",
              "name": "useVotingUnits",
              "type": "bool"
            }
          ],
          "internalType": "struct JB721Tier",
          "name": "",
          "type": "tuple"
        }
      ],
      "stateMutability": "view",
      "type": "function"
    },
    {
      "inputs": [
        {
          "internalType": "address",
          "name": "",
          "type": "address"
        },
        {
          "internalType": "address",
          "name": "",
          "type": "address"
        },
        {
          "internalType": "uint256",
          "name": "",
          "type": "uint256"
        }
      ],
      "name": "tierBalanceOf",
      "outputs": [
        {
          "internalType": "uint256",
          "name": "",
          "type": "uint256"
        }
      ],
      "stateMutability": "view",
      "type": "function"
    },
    {
      "inputs": [
        {
          "internalType": "uint256",
          "name": "_tokenId",
          "type": "uint256"
        }
      ],
      "name": "tierIdOfToken",
      "outputs": [
        {
          "internalType": "uint256",
          "name": "",
          "type": "uint256"
        }
      ],
      "stateMutability": "pure",
      "type": "function"
    },
    {
      "inputs": [
        {
          "internalType": "address",
          "name": "_nft",
          "type": "address"
        },
        {
          "internalType": "uint256",
          "name": "_tokenId",
          "type": "uint256"
        }
      ],
      "name": "tierOfTokenId",
      "outputs": [
        {
          "components": [
            {
              "internalType": "uint256",
              "name": "id",
              "type": "uint256"
            },
            {
              "internalType": "uint256",
              "name": "price",
              "type": "uint256"
            },
            {
              "internalType": "uint256",
              "name": "remainingQuantity",
              "type": "uint256"
            },
            {
              "internalType": "uint256",
              "name": "initialQuantity",
              "type": "uint256"
            },
            {
              "internalType": "uint256",
              "name": "votingUnits",
              "type": "uint256"
            },
            {
              "internalType": "uint256",
              "name": "reservedRate",
              "type": "uint256"
            },
            {
              "internalType": "address",
              "name": "reservedTokenBeneficiary",
              "type": "address"
            },
            {
              "internalType": "uint256",
              "name": "royaltyRate",
              "type": "uint256"
            },
            {
              "internalType": "address",
              "name": "royaltyBeneficiary",
              "type": "address"
            },
            {
              "internalType": "bytes32",
              "name": "encodedIPFSUri",
              "type": "bytes32"
            },
            {
              "internalType": "uint256",
              "name": "category",
              "type": "uint256"
            },
            {
              "internalType": "bool",
              "name": "allowManualMint",
              "type": "bool"
            },
            {
              "internalType": "bool",
              "name": "transfersPausable",
              "type": "bool"
            },
            {
              "internalType": "bool",
              "name": "useVotingUnits",
              "type": "bool"
            }
          ],
          "internalType": "struct JB721Tier",
          "name": "",
          "type": "tuple"
        }
      ],
      "stateMutability": "view",
      "type": "function"
    },
    {
      "inputs": [
        {
          "internalType": "address",
          "name": "_nft",
          "type": "address"
        },
        {
          "internalType": "address",
          "name": "_account",
          "type": "address"
        },
        {
          "internalType": "uint256",
          "name": "_tierId",
          "type": "uint256"
        }
      ],
      "name": "tierVotingUnitsOf",
      "outputs": [
        {
          "internalType": "uint256",
          "name": "",
          "type": "uint256"
        }
      ],
      "stateMutability": "view",
      "type": "function"
    },
    {
      "inputs": [
        {
          "internalType": "address",
          "name": "_nft",
          "type": "address"
        },
        {
          "internalType": "uint256",
          "name": "_category",
          "type": "uint256"
        },
        {
          "internalType": "uint256",
          "name": "_startingId",
          "type": "uint256"
        },
        {
          "internalType": "uint256",
          "name": "_size",
          "type": "uint256"
        }
      ],
      "name": "tiers",
      "outputs": [
        {
          "components": [
            {
              "internalType": "uint256",
              "name": "id",
              "type": "uint256"
            },
            {
              "internalType": "uint256",
              "name": "price",
              "type": "uint256"
            },
            {
              "internalType": "uint256",
              "name": "remainingQuantity",
              "type": "uint256"
            },
            {
              "internalType": "uint256",
              "name": "initialQuantity",
              "type": "uint256"
            },
            {
              "internalType": "uint256",
              "name": "votingUnits",
              "type": "uint256"
            },
            {
              "internalType": "uint256",
              "name": "reservedRate",
              "type": "uint256"
            },
            {
              "internalType": "address",
              "name": "reservedTokenBeneficiary",
              "type": "address"
            },
            {
              "internalType": "uint256",
              "name": "royaltyRate",
              "type": "uint256"
            },
            {
              "internalType": "address",
              "name": "royaltyBeneficiary",
              "type": "address"
            },
            {
              "internalType": "bytes32",
              "name": "encodedIPFSUri",
              "type": "bytes32"
            },
            {
              "internalType": "uint256",
              "name": "category",
              "type": "uint256"
            },
            {
              "internalType": "bool",
              "name": "allowManualMint",
              "type": "bool"
            },
            {
              "internalType": "bool",
              "name": "transfersPausable",
              "type": "bool"
            },
            {
              "internalType": "bool",
              "name": "useVotingUnits",
              "type": "bool"
            }
          ],
          "internalType": "struct JB721Tier[]",
          "name": "_tiers",
          "type": "tuple[]"
        }
      ],
      "stateMutability": "view",
      "type": "function"
    },
    {
      "inputs": [
        {
          "internalType": "address",
          "name": "",
          "type": "address"
        }
      ],
      "name": "tokenUriResolverOf",
      "outputs": [
        {
          "internalType": "contract IJBTokenUriResolver",
          "name": "",
          "type": "address"
        }
      ],
      "stateMutability": "view",
      "type": "function"
    },
    {
      "inputs": [
        {
          "internalType": "address",
          "name": "_nft",
          "type": "address"
        }
      ],
      "name": "totalRedemptionWeight",
      "outputs": [
        {
          "internalType": "uint256",
          "name": "weight",
          "type": "uint256"
        }
      ],
      "stateMutability": "view",
      "type": "function"
    },
    {
      "inputs": [
        {
          "internalType": "address",
          "name": "_nft",
          "type": "address"
        }
      ],
      "name": "totalSupply",
      "outputs": [
        {
          "internalType": "uint256",
          "name": "supply",
          "type": "uint256"
        }
      ],
      "stateMutability": "view",
      "type": "function"
    },
    {
      "inputs": [
        {
          "internalType": "address",
          "name": "_nft",
          "type": "address"
        },
        {
          "internalType": "address",
          "name": "_account",
          "type": "address"
        }
      ],
      "name": "votingUnitsOf",
      "outputs": [
        {
          "internalType": "uint256",
          "name": "units",
          "type": "uint256"
        }
      ],
      "stateMutability": "view",
      "type": "function"
    }
  ],
  "bytecode": {
    "object": "0x608060405234801561001057600080fd5b50613c08806100206000396000f3fe608060405234801561001057600080fd5b506004361061025e5760003560e01c806386a5100711610146578063c2c55f94116100c3578063d84a72c011610087578063d84a72c014610794578063e4dc2aa4146107d1578063eaa19ab3146107e4578063f1bea54f14610805578063f682eeaf14610825578063f7888aec1461083857600080fd5b8063c2c55f9414610728578063c8df17101461073b578063cb827e321461074e578063d65981a914610761578063d67b78fd1461078157600080fd5b8063933555781161010a57806393355578146106a4578063aab0cd80146106b7578063b67cb047146106d7578063baa7e80e146106ea578063bd51923c146106fd57600080fd5b806386a51007146105cb57806386bc2be3146105eb5780638cec7d39146105fe5780638ed6c01014610647578063911c80b51461067b57600080fd5b806335314b92116101df5780635f646611116101a35780635f646611146104725780636262bcb2146104955780636825bb80146104a85780637473c9a2146104d357806379a75319146104f3578063845104de146104fb57600080fd5b806335314b92146103bc57806337f44652146103cf57806342f9914b1461040057806349bd1ac614610413578063538bd5ea1461044057600080fd5b806317161f7d1161022657806317161f7d1461031b57806320512ba1146103585780632ae5e4921461036b5780632b7e6ef01461037e5780632e4d0ea8146103a957600080fd5b8063086bb19a146102635780630fab094714610278578063136e651c146102be578063144cc2d4146102d157806315fa7dff146102f2575b600080fd5b610276610271366004613102565b61084b565b005b6102a1610286366004613102565b6010602052600090815260409020546001600160a01b031681565b6040516001600160a01b0390911681526020015b60405180910390f35b6102a16102cc36600461311f565b6109e0565b6102e46102df366004613197565b610a39565b6040519081526020016102b5565b6102a1610300366004613102565b600d602052600090815260409020546001600160a01b031681565b610276610329366004613102565b336000908152600c6020526040902080546001600160a01b0319166001600160a01b0392909216919091179055565b6102766103663660046131ec565b610ab7565b6102e4610379366004613102565b610b0c565b6102e461038c36600461311f565b600b60209081526000928352604080842090915290825290205481565b6102e46103b736600461322e565b610c78565b6102e46103ca36600461311f565b610d00565b6102e46103dd36600461322e565b600960209081526000938452604080852082529284528284209052825290205481565b6102e461040e36600461326f565b610dd9565b610276610421366004613288565b3360009081526012602090815260408083209483529390529190912055565b61045361044e3660046132aa565b610de9565b604080516001600160a01b0390931683526020830191909152016102b5565b61048561048036600461311f565b610f14565b60405190151581526020016102b5565b6102766104a33660046132df565b610f4c565b6102e46104b636600461311f565b600a60209081526000928352604080842090915290825290205481565b6104e66104e136600461311f565b610f6b565b6040516102b59190613407565b6102e460c881565b610590610509366004613102565b604080516080810182526000808252602082018190529181018290526060810191909152506001600160a01b03166000908152600460209081526040918290208251608081018452905460ff808216151583526101008204811615159383019390935262010000810483161515938201939093526301000000909204161515606082015290565b6040516102b5919081511515815260208083015115159082015260408083015115159082015260609182015115159181019190915260800190565b6105de6105d9366004613416565b611180565b6040516102b591906134b5565b6102766105f93660046131ec565b611b27565b61027661060c3660046134c8565b336000908152600e602090815260408083209483529390529190912080546001600160a01b0319166001600160a01b03909216919091179055565b6102a161065536600461311f565b600e6020908152600092835260408084209091529082529020546001600160a01b031681565b6102a1610689366004613102565b600c602052600090815260409020546001600160a01b031681565b6102e46106b23660046134f8565b611beb565b6106ca6106c5366004613102565b611d6d565b6040516102b59190613526565b6104e66106e536600461311f565b611e07565b6105de6106f8366004613288565b61202a565b6102e461070b36600461311f565b601260209081526000928352604080842090915290825290205481565b610276610736366004613574565b612262565b6102e461074936600461311f565b6122f5565b61027661075c3660046135b6565b61232e565b61077461076f3660046135ce565b612349565b6040516102b59190613609565b61027661078f3660046132df565b6126cb565b6102766107a2366004613102565b33600090815260106020526040902080546001600160a01b0319166001600160a01b0392909216919091179055565b6102e46107df366004613102565b6126e5565b6107f76107f2366004613671565b61276d565b6040516102b59291906136d0565b6102e4610813366004613102565b60086020526000908152604090205481565b6106ca610833366004613102565b612adc565b6102e46108463660046134f8565b612af5565b600061085682612b61565b90506000610865836000612ba2565b6001600160a01b038416600090815260056020526040812091925090819061088d9084612c09565b90505b821561099b576108a08184612c4f565b156108ca576001600160a01b03851660009081526005602052604090206108c79084612c09565b90505b6108d48184612c69565b610989576108e3826001613708565b831461093b576001600160a01b0385166000908152602081815260408083208584529091529020548314610936576001600160a01b03851660009081526020818152604080832085845290915290208390555b610985565b6001600160a01b03851660009081526020818152604080832085845290915290205415610985576001600160a01b0385166000908152602081815260408083208584529091528120555b8291505b610994858486612c88565b9250610890565b6040513381526001600160a01b038616907f4a0f854ce3c180d56f3e9eb47eb064c595bf3de0ab9af45425291e5b1bb733a89060200160405180910390a25050505050565b6001600160a01b0380831660009081526001602090815260408083208584529091528120549091168015610a15579050610a33565b50506001600160a01b038083166000908152600c6020526040902054165b92915050565b600081815b81811015610aae576001600160a01b038616600090815260036020526040812090610a80878785818110610a7457610a7461371b565b90506020020135610dd9565b8152602081019190915260400160002054610aa4906001600160581b031684613708565b9250600101610a3e565b50509392505050565b806000805b82811015610b0557848482818110610ad657610ad661371b565b336000908152600560209081526040909120910292909201359350610afd91905083612cd3565b600101610abc565b5050505050565b6001600160a01b038116600090815260086020526040812054610b2d612f8d565b60005b82811015610c70576001600160a01b0385166000908152600360209081526040808320600180860185529083529281902081516101408101835281546001600160581b038116825264ffffffffff600160581b8204811695830195909552600160801b8104851693820193909352600160a81b8304909316606084015261ffff600160d01b830481166080850152600160e01b83041660a084015260ff600160f01b8304811660c0850152600160f81b9092048216151560e084015283015480821615156101008085019190915290041615156101208201529250610c22908690610c1c908490613708565b84612d0c565b82602001518360400151610c369190613731565b64ffffffffff16610c479190613708565b8251610c5c91906001600160581b0316613756565b610c669085613708565b9350600101610b30565b505050919050565b6001600160a01b0380841660009081526009602090815260408083209386168352928152828220848352905290812054808203610cb9576000915050610cf9565b6001600160a01b0385166000908152600360209081526040808320868452909152902054610cf590600160a81b900464ffffffffff1682613756565b9150505b9392505050565b6001600160a01b0382166000908152600360209081526040808320848452825280832081516101408101835281546001600160581b038116825264ffffffffff600160581b8204811695830195909552600160801b8104851693820193909352600160a81b8304909316606084015261ffff600160d01b830481166080850152600160e01b83041660a084015260ff600160f01b8304811660c0850152600160f81b9092048216151560e0840152600101548082161515610100808501919091529004161515610120820152610cf99084908490612d0c565b6000610a33633b9aca0083613783565b6000806000610df785610dd9565b90506000610e058783612e4b565b90506001600160a01b038116610e2357600080935093505050610f0c565b6001600160a01b038716600090815260036020908152604080832085845282529182902082516101408101845281546001600160581b038116825264ffffffffff600160581b8204811694830194909452600160801b8104841694820194909452600160a81b8404909216606083015261ffff600160d01b840481166080840152600160e01b84041660a083015260ff600160f01b8404811660c08401819052600160f81b9094048116151560e08401526001909101548082161515610100808501919091529004161515610120820152908290610f0490889060c8612ea1565b945094505050505b935093915050565b6001600160a01b03821660009081526005602052604081208190610f389084612c09565b9050610f448184612c69565b949350505050565b336000908152600f60205260409020610f6682848361382f565b505050565b610f73612fe1565b6001600160a01b0383166000908152600360209081526040808320858452825280832081516101408101835281546001600160581b038116825264ffffffffff600160581b8204811695830195909552600160801b8104851693820193909352600160a81b8304909316606084015261ffff600160d01b830481166080850152600160e01b83041660a084015260ff600160f01b8304811660c0850152600160f81b9092048216151560e08401526001015480821615156101008085019190915290041615156101208201529061104a85856109e0565b9050604051806101c0016040528085815260200183600001516001600160581b03168152602001836020015164ffffffffff168152602001836040015164ffffffffff168152602001836060015164ffffffffff16815260200160006001600160a01b0316836001600160a01b0316146110c85783608001516110cb565b60005b61ffff168152602001826001600160a01b031681526020018360c0015160ff1681526020016110fa8787612e4b565b6001600160a01b0316815260200160126000886001600160a01b03166001600160a01b0316815260200190815260200160002060008781526020019081526020016000205481526020018360a0015161ffff1681526020018360e00151151581526020018361010001511515815260200183610120015115158152509250505092915050565b33600090815260086020526040902054606090829061ffff6111a28383613708565b11156111c157604051631bc68c8b60e11b815260040160405180910390fd5b60006111cc33612b61565b90508267ffffffffffffffff8111156111e7576111e7613797565b604051908082528060200260200182016040528015611210578160200160208202803683370190505b5093506000821561122b57611226336000612ba2565b61122e565b60005b9050600061123a61306b565b3360009081526004602090815260408083208151608081018352905460ff80821615158352610100820481161515948301949094526201000081048416151592820192909252630100000090910490911615156060820152905b87811015611afe578a8a828181106112ae576112ae61371b565b90506101c002018036038101906112c59190613968565b92506112d66001633b9aca00613a71565b836020015164ffffffffff161115611301576040516349016ea360e01b815260040160405180910390fd5b61130961306b565b83610100015161ffff16600003611333576040516305650b5760e31b815260040160405180910390fd5b81156113a1578b8b611346600185613a71565b8181106113555761135561371b565b90506101c0020180360381019061136c9190613968565b905080610100015161ffff1684610100015161ffff1610156113a157604051631cabebd560e21b815260040160405180910390fd5b826020015180156113bc5750604084015164ffffffffff1615155b156113da57604051630189200360e11b815260040160405180910390fd5b8251806113e957508361012001515b80156113fc5750606084015161ffff1615155b1561141a5760405163a75b1cd560e01b815260040160405180910390fd5b8260400151801561142d57508361012001515b1561144b576040516330ec637f60e01b815260040160405180910390fd5b836020015164ffffffffff1660000361147757604051631e0a863160e31b815260040160405180910390fd5b60c88460a0015160ff1611156114a05760405163fd912b8360e01b815260040160405180910390fd5b60006114ac838a613708565b6114b7906001613708565b905060405180610140016040528086600001516001600160581b03168152602001866020015164ffffffffff168152602001866020015164ffffffffff168152602001866040015164ffffffffff168152602001866060015161ffff16815260200186610100015161ffff1681526020018660a0015160ff1681526020018661012001511515815260200186610180015115158152602001866101a00151151581525060036000336001600160a01b03166001600160a01b03168152602001908152602001600020600083815260200190815260200160002060008201518160000160006101000a8154816001600160581b0302191690836001600160581b03160217905550602082015181600001600b6101000a81548164ffffffffff021916908364ffffffffff16021790555060408201518160000160106101000a81548164ffffffffff021916908364ffffffffff16021790555060608201518160000160156101000a81548164ffffffffff021916908364ffffffffff160217905550608082015181600001601a6101000a81548161ffff021916908361ffff16021790555060a082015181600001601c6101000a81548161ffff021916908361ffff16021790555060c082015181600001601e6101000a81548160ff021916908360ff16021790555060e082015181600001601f6101000a81548160ff0219169083151502179055506101008201518160010160006101000a81548160ff0219169083151502179055506101208201518160010160016101000a81548160ff02191690831515021790555090505084610100015161ffff1682610100015161ffff16146117445733600090815260076020908152604080832061010089015161ffff16845290915290208190555b60808501516001600160a01b0316156117fd57846101400151156117c0576080850151336000908152600c60205260409020546001600160a01b039081169116146117bb576080850151336000908152600c6020526040902080546001600160a01b0319166001600160a01b039092169190911790555b6117fd565b6080850151336000908152600160209081526040808320858452909152902080546001600160a01b0319166001600160a01b039092169190911790555b60c08501516001600160a01b0316156118b657846101600151156118795760c0850151336000908152600d60205260409020546001600160a01b039081169116146118745760c0850151336000908152600d6020526040902080546001600160a01b0319166001600160a01b039092169190911790555b6118b6565b60c0850151336000908152600260209081526040808320858452909152902080546001600160a01b0319166001600160a01b039092169190911790555b60e0850151156118e15760e08501513360009081526012602090815260408083208584529091529020555b8615611ad6573360009081526005602052604081208891906119039083612c09565b905060005b8215611ad2576119188284612c4f565b15611939573360009081526005602052604090206119369084612c09565b91505b61194433848d612c88565b3360009081526003602090815260408083208784529091529020546101008a015191925061ffff600160e01b909104811691161180159061198557508b8311155b15611a5857611995846001613708565b83146119b7573360009081526020818152604080832087845290915290208390555b336000908152600660205260409020548b146119e0573360009081526006602052604090208b90555b6119eb600185613a71565b89141580611a105750336000908152602081815260408083208c845290915290205415155b15611a4957611a20600185613a71565b8914611a2c5783611a2f565b60005b336000908152602081815260408083208d84529091529020555b82995083985060009250611908565b801580611a6457508b81115b15611ac957611a74836001613708565b8414611a96573360009081526020818152604080832086845290915290208490555b33600090815260066020526040812054949a508a9490935015611ac457336000908152600660205260408120555b611908565b91975081611908565b5050505b808b8481518110611ae957611ae961371b565b60209081029190910101525050600101611294565b50611b098787613708565b33600090815260086020526040902055509598975050505050505050565b806000805b82811015610b0557848482818110611b4657611b4661371b565b9050602002013591506000611b5a83610dd9565b336000908152600b602090815260408083208484529091528120805492935090611b8383613a84565b909155505033600090815260036020908152604080832084845290915290208054600160581b900464ffffffffff1690600b611bbe83613a9d565b91906101000a81548164ffffffffff021916908364ffffffffff1602179055505081600101915050611b2c565b6001600160a01b03821660009081526008602052604081205481611c0d612f8d565b825b8015611d63576001600160a01b038088166000908152600960209081526040808320938a1683529281528282208483529052205492508215611d1d576001600160a01b038716600090815260036020908152604080832084845282529182902082516101408101845281546001600160581b038116825264ffffffffff600160581b8204811694830194909452600160801b8104841694820194909452600160a81b8404909216606083015261ffff600160d01b840481166080840152600160e01b84041660a083015260ff600160f01b8404811660c0840152600160f81b9093048316151560e0830152600101548083161515610100808401919091529004909116151561012082015291505b816101200151611d2e578151611d3b565b816060015164ffffffffff165b611d4e906001600160581b031684613756565b611d589086613708565b945060001901611c0f565b5050505092915050565b60116020526000908152604090208054611d86906137ad565b80601f0160208091040260200160405190810160405280929190818152602001828054611db2906137ad565b8015611dff5780601f10611dd457610100808354040283529160200191611dff565b820191906000526020600020905b815481529060010190602001808311611de257829003601f168201915b505050505081565b611e0f612fe1565b6000611e1a83610dd9565b6001600160a01b0385166000908152600360209081526040808320848452825280832081516101408101835281546001600160581b038116825264ffffffffff600160581b8204811695830195909552600160801b8104851693820193909352600160a81b8304909316606084015261ffff600160d01b830481166080850152600160e01b83041660a084015260ff600160f01b8304811660c0850152600160f81b9092048216151560e0840152600101548082161515610100808501919091529004161515610120820152919250611ef386846109e0565b9050604051806101c0016040528084815260200183600001516001600160581b03168152602001836020015164ffffffffff168152602001836040015164ffffffffff168152602001836060015164ffffffffff16815260200160006001600160a01b0316836001600160a01b031614611f71578360800151611f74565b60005b61ffff168152602001826001600160a01b031681526020018360c0015160ff168152602001611fa38886612e4b565b6001600160a01b0316815260200160126000896001600160a01b03166001600160a01b0316815260200190815260200160002060008681526020019081526020016000205481526020018360a0015161ffff1681526020018360e0015115158152602001836101000151151581526020018361012001511515815250935050505092915050565b336000818152600360209081526040808320868452825280832081516101408101835281546001600160581b038116825264ffffffffff600160581b8204811695830195909552600160801b8104851693820193909352600160a81b830490931660608481019190915261ffff600160d01b840481166080860152600160e01b84041660a085015260ff600160f01b8404811660c0860152600160f81b9093048316151560e0850152600182015480841615156101008087019190915290049092161515610120840152909390929161210591908790612d0c565b9050808411156121285760405163226f999960e11b815260040160405180910390fd5b336000908152600a6020908152604080832088845290915281208054869290612152908490613708565b9091555084905067ffffffffffffffff81111561217157612171613797565b60405190808252806020026020018201604052801561219a578160200160208202803683370190505b50336000908152600b602090815260408083208984529091528120549194505b85811015611d635761223d878386600001600b81819054906101000a900464ffffffffff166121e890613ac1565b91906101000a81548164ffffffffff021916908364ffffffffff16021790558760000160109054906101000a900464ffffffffff166122279190613731565b64ffffffffff166122389190613708565b612f72565b85828151811061224f5761224f61371b565b60209081029190910101526001016121ba565b6001600160a01b038216156122af573360009081526009602090815260408083206001600160a01b03861684528252808320868452909152812080549091906122aa90613ae2565b909155505b6001600160a01b03811615610f66573360009081526009602090815260408083206001600160a01b03851684528252808320868452909152902080546001019055505050565b6001600160a01b03821660009081526012602052604081208161231784610dd9565b815260200190815260200160002054905092915050565b3360009081526004602052604090208190610f668282613b06565b6060600061235686612b61565b90508267ffffffffffffffff81111561237157612371613797565b6040519080825280602002602001820160405280156123aa57816020015b612397612fe1565b81526020019060019003908161238f5790505b509150600080856000036123c7576123c28888612ba2565b6123c9565b855b90506123d3612f8d565b6001600160a01b03891660009081526005602052604081206123f59084612c09565b90505b821580159061240657508684105b156126b3576124158184612c4f565b1561243f576001600160a01b038a16600090815260056020526040902061243c9084612c09565b90505b6124498184612c69565b6126a1576001600160a01b038a166000908152600360209081526040808320868452825280832081516101408101835281546001600160581b038116825264ffffffffff600160581b8204811695830195909552600160801b8104851693820193909352600160a81b8304909316606084015261ffff600160d01b830481166080850152600160e01b83041660a084015260ff600160f01b8304811660c0850152600160f81b9092048216151560e084015260010154808216151561010080850191909152900416151561012082015292506125258b856109e0565b905089158061253b5750898360a0015161ffff16145b1561267e57604051806101c0016040528085815260200184600001516001600160581b03168152602001846020015164ffffffffff168152602001846040015164ffffffffff168152602001846060015164ffffffffff16815260200160006001600160a01b0316836001600160a01b0316146125bc5784608001516125bf565b60005b61ffff168152602001826001600160a01b031681526020018460c0015160ff1681526020016125ee8d87612e4b565b6001600160a01b0390811682528d166000908152601260209081526040808320898452825291829020549083015260a08087015161ffff169183019190915260e086015115156060830152610100860151151560808301526101208601511515910152878661265c81613a84565b97508151811061266e5761266e61371b565b602002602001018190525061269f565b60008a1180156126955750898360a0015161ffff16115b1561269f57600093505b505b6126ac8a8487612c88565b92506123f8565b8684146126be578386525b5050505050949350505050565b336000908152601160205260409020610f6682848361382f565b6001600160a01b0381166000908152600860205260408120548190805b8015610c70576001600160a01b0385166000908152600360209081526040808320848452909152902080549093506127519064ffffffffff600160581b8204811691600160801b900416613731565b6127629064ffffffffff1685613708565b935060001901612702565b606084836000808267ffffffffffffffff81111561278d5761278d613797565b6040519080825280602002602001820160405280156127b6578160200160208202803683370190505b50945060006127ff898960008181106127d1576127d161371b565b90506020020160208101906127e69190613ba3565b3360009081526005602052604090209061ffff16612c09565b905060005b84811015612ace5789898281811061281e5761281e61371b565b90506020020160208101906128339190613ba3565b61ffff1692506128438284612c4f565b15612864573360009081526005602052604090206128619084612c09565b91505b61286e8284612c69565b1561288c5760405163d32cb5c160e01b815260040160405180910390fd5b336000908152600360209081526040808320868452909152902093508780156128be57508354600160f81b900460ff16155b156128dc57604051632f792d3960e11b815260040160405180910390fd5b8354600160801b900464ffffffffff1660000361290c57604051630de5859f60e01b815260040160405180910390fd5b83546001600160581b031686101561293757604051632cd294cf60e01b815260040160405180910390fd5b604080516101408101825285546001600160581b038116825264ffffffffff600160581b820481166020840152600160801b8204811693830193909352600160a81b8104909216606082015261ffff600160d01b830481166080830152600160e01b83041660a082015260ff600160f01b8304811660c0830152600160f81b9092048216151560e08201526001860154808316151561010080840191909152900490911615156101208201526129f09033908590612d0c565b8454612a0a9190600160581b900464ffffffffff16613a71565b600003612a2a5760405163985a45d960e01b815260040160405180910390fd5b336000908152600b60209081526040808320868452909152902054845460001964ffffffffff600160581b808404821692830182160264ffffffffff60581b1990931692909217808855612a92938793600160801b9092048216929092036001011601612f72565b878281518110612aa457612aa461371b565b60209081029190910101528354612ac4906001600160581b031687613a71565b9550600101612804565b505050505094509492505050565b600f6020526000908152604090208054611d86906137ad565b6001600160a01b038216600090815260086020526040812054805b8015612b59576001600160a01b038086166000908152600960209081526040808320938816835292815282822084835290522054612b4e9084613708565b925060001901612b10565b505092915050565b6001600160a01b03811660009081526006602052604081205490819003612b9d57506001600160a01b0381166000908152600860205260409020545b919050565b60008115612bd3576001600160a01b0383166000908152600760209081526040808320858452909152902054612bf6565b6001600160a01b0383166000908152602081815260408083208380529091529020545b905080600003610a335750600192915050565b60408051808201909152600080825260208201526000612c298360081c90565b604080518082018252600083815260209788529190912054815294850152509192915050565b60008260200151612c608360081c90565b14159392505050565b6000612c7761010083613bbe565b83516001911c811614905092915050565b6000818303612c9957506000610cf9565b6001600160a01b0384166000908152602081815260408083208684529091529020548015612cc8579050610cf9565b610cf5846001613708565b6000612cdf8260081c90565b9050612ced61010083613bbe565b6000918252602093909352604090208054600190931b90921790915550565b6000816080015161ffff1660001480612d3a5750816020015164ffffffffff16826040015164ffffffffff16145b80612d5757506000612d4c85856109e0565b6001600160a01b0316145b15612d6457506000610cf9565b6001600160a01b0384166000908152600a60209081526040808320868452825291829020549084015191840151909164ffffffffff90811691612da991849116613a71565b03612db8576000915050610cf9565b60008184602001518560400151612dcf9190613731565b64ffffffffff16612de09190613a71565b90506000846080015161ffff1682612df89190613783565b90506000856080015161ffff1683612e109190613bbe565b1115612e2257612e1f81613a84565b90505b80831115612e365760009350505050610cf9565b612e408382613a71565b979650505050505050565b6001600160a01b0380831660009081526002602090815260408083208584529091528120549091168015612e80579050610a33565b5050506001600160a01b039081166000908152600d60205260409020541690565b6000808060001985870985870292508281108382030391505080600003612edb57838281612ed157612ed161376d565b0492505050610cf9565b838110612f0957604051631dcf306360e21b8152600481018290526024810185905260440160405180910390fd5b60008486880960026001871981018816978890046003810283188082028403028082028403028082028403028082028403028082028403029081029092039091026000889003889004909101858311909403939093029303949094049190911702949350505050565b600081612f83633b9aca0085613756565b610cf99190613708565b6040805161014081018252600080825260208201819052918101829052606081018290526080810182905260a0810182905260c0810182905260e08101829052610100810182905261012081019190915290565b604051806101c0016040528060008152602001600081526020016000815260200160008152602001600081526020016000815260200160006001600160a01b031681526020016000815260200160006001600160a01b0316815260200160008019168152602001600081526020016000151581526020016000151581526020016000151581525090565b604080516101c081018252600080825260208201819052918101829052606081018290526080810182905260a0810182905260c0810182905260e08101829052610100810182905261012081018290526101408101829052610160810182905261018081018290526101a081019190915290565b6001600160a01b03811681146130f457600080fd5b50565b8035612b9d816130df565b60006020828403121561311457600080fd5b8135610cf9816130df565b6000806040838503121561313257600080fd5b823561313d816130df565b946020939093013593505050565b60008083601f84011261315d57600080fd5b50813567ffffffffffffffff81111561317557600080fd5b6020830191508360208260051b850101111561319057600080fd5b9250929050565b6000806000604084860312156131ac57600080fd5b83356131b7816130df565b9250602084013567ffffffffffffffff8111156131d357600080fd5b6131df8682870161314b565b9497909650939450505050565b600080602083850312156131ff57600080fd5b823567ffffffffffffffff81111561321657600080fd5b6132228582860161314b565b90969095509350505050565b60008060006060848603121561324357600080fd5b833561324e816130df565b9250602084013561325e816130df565b929592945050506040919091013590565b60006020828403121561328157600080fd5b5035919050565b6000806040838503121561329b57600080fd5b50508035926020909101359150565b6000806000606084860312156132bf57600080fd5b83356132ca816130df565b95602085013595506040909401359392505050565b600080602083850312156132f257600080fd5b823567ffffffffffffffff8082111561330a57600080fd5b818501915085601f83011261331e57600080fd5b81358181111561332d57600080fd5b86602082850101111561333f57600080fd5b60209290920196919550909350505050565b805182526020810151602083015260408101516040830152606081015160608301526080810151608083015260a081015160a083015260c08101516133a160c08401826001600160a01b03169052565b5060e081015160e0830152610100808201516133c7828501826001600160a01b03169052565b50506101208181015190830152610140808201519083015261016080820151151590830152610180808201511515908301526101a0908101511515910152565b6101c08101610a338284613351565b6000806020838503121561342957600080fd5b823567ffffffffffffffff8082111561344157600080fd5b818501915085601f83011261345557600080fd5b81358181111561346457600080fd5b8660206101c08302850101111561333f57600080fd5b600081518084526020808501945080840160005b838110156134aa5781518752958201959082019060010161348e565b509495945050505050565b602081526000610cf9602083018461347a565b600080604083850312156134db57600080fd5b8235915060208301356134ed816130df565b809150509250929050565b6000806040838503121561350b57600080fd5b8235613516816130df565b915060208301356134ed816130df565b600060208083528351808285015260005b8181101561355357858101830151858201604001528201613537565b506000604082860101526040601f19601f8301168501019250505092915050565b60008060006060848603121561358957600080fd5b83359250602084013561359b816130df565b915060408401356135ab816130df565b809150509250925092565b6000608082840312156135c857600080fd5b50919050565b600080600080608085870312156135e457600080fd5b84356135ef816130df565b966020860135965060408601359560600135945092505050565b6020808252825182820181905260009190848201906040850190845b8181101561364c57613638838551613351565b928401926101c09290920191600101613625565b50909695505050505050565b80151581146130f457600080fd5b8035612b9d81613658565b6000806000806060858703121561368757600080fd5b84359350602085013567ffffffffffffffff8111156136a557600080fd5b6136b18782880161314b565b90945092505060408501356136c581613658565b939692955090935050565b6040815260006136e3604083018561347a565b90508260208301529392505050565b634e487b7160e01b600052601160045260246000fd5b80820180821115610a3357610a336136f2565b634e487b7160e01b600052603260045260246000fd5b64ffffffffff82811682821603908082111561374f5761374f6136f2565b5092915050565b8082028115828204841417610a3357610a336136f2565b634e487b7160e01b600052601260045260246000fd5b6000826137925761379261376d565b500490565b634e487b7160e01b600052604160045260246000fd5b600181811c908216806137c157607f821691505b6020821081036135c857634e487b7160e01b600052602260045260246000fd5b601f821115610f6657600081815260208120601f850160051c810160208610156138085750805b601f850160051c820191505b8181101561382757828155600101613814565b505050505050565b67ffffffffffffffff83111561384757613847613797565b61385b8361385583546137ad565b836137e1565b6000601f84116001811461388f57600085156138775750838201355b600019600387901b1c1916600186901b178355610b05565b600083815260209020601f19861690835b828110156138c057868501358255602094850194600190920191016138a0565b50868210156138dd5760001960f88860031b161c19848701351681555b505060018560011b0183555050505050565b6040516101c0810167ffffffffffffffff8111828210171561391357613913613797565b60405290565b80356001600160581b0381168114612b9d57600080fd5b803564ffffffffff81168114612b9d57600080fd5b803561ffff81168114612b9d57600080fd5b803560ff81168114612b9d57600080fd5b60006101c0828403121561397b57600080fd5b6139836138ef565b61398c83613919565b815261399a60208401613930565b60208201526139ab60408401613930565b60408201526139bc60608401613945565b60608201526139cd608084016130f7565b60808201526139de60a08401613957565b60a08201526139ef60c084016130f7565b60c082015260e083013560e0820152610100613a0c818501613945565b90820152610120613a1e848201613666565b90820152610140613a30848201613666565b90820152610160613a42848201613666565b90820152610180613a54848201613666565b908201526101a0613a66848201613666565b908201529392505050565b81810381811115610a3357610a336136f2565b600060018201613a9657613a966136f2565b5060010190565b600064ffffffffff808316818103613ab757613ab76136f2565b6001019392505050565b600064ffffffffff821680613ad857613ad86136f2565b6000190192915050565b600081613af157613af16136f2565b506000190190565b60008135610a3381613658565b8135613b1181613658565b815460ff19811691151560ff1691821783556020840135613b3181613658565b61ff0090151560081b1661ffff1982168317811784556040850135613b5581613658565b62ff000081151560101b168462ffffff19851617831717855550505050613b9f613b8160608401613af9565b82805463ff000000191691151560181b63ff00000016919091179055565b5050565b600060208284031215613bb557600080fd5b610cf982613945565b600082613bcd57613bcd61376d565b50069056fea264697066735822122028e12458fe757852dee5ebe35f1e61f1425c8e0843e258c7f6aeb06b5808be9464736f6c63430008110033",
    "linkReferences": {}
  },
  "methodIdentifiers": {
    "MAX_ROYALTY_RATE()": "79a75319",
    "balanceOf(address,address)": "f7888aec",
    "baseUriOf(address)": "f682eeaf",
    "cleanTiers(address)": "086bb19a",
    "contractUriOf(address)": "aab0cd80",
    "defaultReservedTokenBeneficiaryOf(address)": "911c80b5",
    "defaultRoyaltyBeneficiaryOf(address)": "15fa7dff",
    "encodedIPFSUriOf(address,uint256)": "bd51923c",
    "encodedTierIPFSUriOf(address,uint256)": "c8df1710",
    "firstOwnerOf(address,uint256)": "8ed6c010",
    "flagsOf(address)": "845104de",
    "isTierRemoved(address,uint256)": "5f646611",
    "maxTierIdOf(address)": "f1bea54f",
    "numberOfBurnedFor(address,uint256)": "2b7e6ef0",
    "numberOfReservedTokensOutstandingFor(address,uint256)": "35314b92",
    "numberOfReservesMintedFor(address,uint256)": "6825bb80",
    "recordAddTiers((uint88,uint40,uint40,uint16,address,uint8,address,bytes32,uint16,bool,bool,bool,bool,bool)[])": "86a51007",
    "recordBurn(uint256[])": "86bc2be3",
    "recordFlags((bool,bool,bool,bool))": "cb827e32",
    "recordMint(uint256,uint16[],bool)": "eaa19ab3",
    "recordMintReservesFor(uint256,uint256)": "baa7e80e",
    "recordRemoveTierIds(uint256[])": "20512ba1",
    "recordSetBaseUri(string)": "6262bcb2",
    "recordSetContractUri(string)": "d67b78fd",
    "recordSetDefaultReservedTokenBeneficiary(address)": "17161f7d",
    "recordSetEncodedIPFSUriOf(uint256,bytes32)": "49bd1ac6",
    "recordSetFirstOwnerOf(uint256,address)": "8cec7d39",
    "recordSetTokenUriResolver(address)": "d84a72c0",
    "recordTransferForTier(uint256,address,address)": "c2c55f94",
    "redemptionWeightOf(address,uint256[])": "144cc2d4",
    "reservedTokenBeneficiaryOf(address,uint256)": "136e651c",
    "royaltyInfo(address,uint256,uint256)": "538bd5ea",
    "tier(address,uint256)": "7473c9a2",
    "tierBalanceOf(address,address,uint256)": "37f44652",
    "tierIdOfToken(uint256)": "42f9914b",
    "tierOfTokenId(address,uint256)": "b67cb047",
    "tierVotingUnitsOf(address,address,uint256)": "2e4d0ea8",
    "tiers(address,uint256,uint256,uint256)": "d65981a9",
    "tokenUriResolverOf(address)": "0fab0947",
    "totalRedemptionWeight(address)": "2ae5e492",
    "totalSupply(address)": "e4dc2aa4",
    "votingUnitsOf(address,address)": "93355578"
  },
  "id": 5
}