{
  "abi": [
    {
      "inputs": [],
      "name": "CANT_MINT_MANUALLY",
      "type": "error"
    },
    {
      "inputs": [],
      "name": "INSUFFICIENT_AMOUNT",
      "type": "error"
    },
    {
      "inputs": [],
      "name": "INSUFFICIENT_RESERVES",
      "type": "error"
    },
    {
      "inputs": [],
      "name": "INVALID_CATEGORY_SORT_ORDER",
      "type": "error"
    },
    {
      "inputs": [],
      "name": "INVALID_QUANTITY",
      "type": "error"
    },
    {
      "inputs": [],
      "name": "INVALID_ROYALTY_RATE",
      "type": "error"
    },
    {
      "inputs": [],
      "name": "INVALID_TIER",
      "type": "error"
    },
    {
      "inputs": [],
      "name": "MANUAL_MINTING_NOT_ALLOWED",
      "type": "error"
    },
    {
      "inputs": [],
      "name": "MAX_TIERS_EXCEEDED",
      "type": "error"
    },
    {
      "inputs": [],
      "name": "NO_QUANTITY",
      "type": "error"
    },
    {
      "inputs": [],
      "name": "OUT",
      "type": "error"
    },
    {
      "inputs": [
        {
          "internalType": "uint256",
          "name": "prod1",
          "type": "uint256"
        },
        {
          "internalType": "uint256",
          "name": "denominator",
          "type": "uint256"
        }
      ],
      "name": "PRBMath__MulDivOverflow",
      "type": "error"
    },
    {
      "inputs": [],
      "name": "PRICING_RESOLVER_CHANGES_LOCKED",
      "type": "error"
    },
    {
      "inputs": [],
      "name": "RESERVED_RATE_NOT_ALLOWED",
      "type": "error"
    },
    {
      "inputs": [],
      "name": "TIER_REMOVED",
      "type": "error"
    },
    {
      "inputs": [],
      "name": "VOTING_UNITS_NOT_ALLOWED",
      "type": "error"
    },
    {
      "anonymous": false,
      "inputs": [
        {
          "indexed": true,
          "internalType": "address",
          "name": "nft",
          "type": "address"
        },
        {
          "indexed": false,
          "internalType": "address",
          "name": "caller",
          "type": "address"
        }
      ],
      "name": "CleanTiers",
      "type": "event"
    },
    {
      "inputs": [],
      "name": "MAX_ROYALTY_RATE",
      "outputs": [
        {
          "internalType": "uint256",
          "name": "",
          "type": "uint256"
        }
      ],
      "stateMutability": "view",
      "type": "function"
    },
    {
      "inputs": [
        {
          "internalType": "address",
          "name": "_nft",
          "type": "address"
        },
        {
          "internalType": "address",
          "name": "_owner",
          "type": "address"
        }
      ],
      "name": "balanceOf",
      "outputs": [
        {
          "internalType": "uint256",
          "name": "balance",
          "type": "uint256"
        }
      ],
      "stateMutability": "view",
      "type": "function"
    },
    {
      "inputs": [
        {
          "internalType": "address",
          "name": "",
          "type": "address"
        }
      ],
      "name": "baseUriOf",
      "outputs": [
        {
          "internalType": "string",
          "name": "",
          "type": "string"
        }
      ],
      "stateMutability": "view",
      "type": "function"
    },
    {
      "inputs": [
        {
          "internalType": "address",
          "name": "_nft",
          "type": "address"
        }
      ],
      "name": "cleanTiers",
      "outputs": [],
      "stateMutability": "nonpayable",
      "type": "function"
    },
    {
      "inputs": [
        {
          "internalType": "address",
          "name": "",
          "type": "address"
        }
      ],
      "name": "contractUriOf",
      "outputs": [
        {
          "internalType": "string",
          "name": "",
          "type": "string"
        }
      ],
      "stateMutability": "view",
      "type": "function"
    },
    {
      "inputs": [
        {
          "internalType": "address",
          "name": "",
          "type": "address"
        }
      ],
      "name": "defaultReservedTokenBeneficiaryOf",
      "outputs": [
        {
          "internalType": "address",
          "name": "",
          "type": "address"
        }
      ],
      "stateMutability": "view",
      "type": "function"
    },
    {
      "inputs": [
        {
          "internalType": "address",
          "name": "",
          "type": "address"
        }
      ],
      "name": "defaultRoyaltyBeneficiaryOf",
      "outputs": [
        {
          "internalType": "address",
          "name": "",
          "type": "address"
        }
      ],
      "stateMutability": "view",
      "type": "function"
    },
    {
      "inputs": [
        {
          "internalType": "address",
          "name": "",
          "type": "address"
        },
        {
          "internalType": "uint256",
          "name": "",
          "type": "uint256"
        }
      ],
      "name": "encodedIPFSUriOf",
      "outputs": [
        {
          "internalType": "bytes32",
          "name": "",
          "type": "bytes32"
        }
      ],
      "stateMutability": "view",
      "type": "function"
    },
    {
      "inputs": [
        {
          "internalType": "address",
          "name": "_nft",
          "type": "address"
        },
        {
          "internalType": "uint256",
          "name": "_tokenId",
          "type": "uint256"
        }
      ],
      "name": "encodedTierIPFSUriOf",
      "outputs": [
        {
          "internalType": "bytes32",
          "name": "",
          "type": "bytes32"
        }
      ],
      "stateMutability": "view",
      "type": "function"
    },
    {
      "inputs": [
        {
          "internalType": "address",
          "name": "",
          "type": "address"
        },
        {
          "internalType": "uint256",
          "name": "",
          "type": "uint256"
        }
      ],
      "name": "firstOwnerOf",
      "outputs": [
        {
          "internalType": "address",
          "name": "",
          "type": "address"
        }
      ],
      "stateMutability": "view",
      "type": "function"
    },
    {
      "inputs": [
        {
          "internalType": "address",
          "name": "_nft",
          "type": "address"
        }
      ],
      "name": "flagsOf",
      "outputs": [
        {
          "components": [
            {
              "internalType": "bool",
              "name": "lockReservedTokenChanges",
              "type": "bool"
            },
            {
              "internalType": "bool",
              "name": "lockVotingUnitChanges",
              "type": "bool"
            },
            {
              "internalType": "bool",
              "name": "lockManualMintingChanges",
              "type": "bool"
            },
            {
              "internalType": "bool",
              "name": "preventOverspending",
              "type": "bool"
            }
          ],
          "internalType": "struct JBTiered721Flags",
          "name": "",
          "type": "tuple"
        }
      ],
      "stateMutability": "view",
      "type": "function"
    },
    {
      "inputs": [
        {
          "internalType": "address",
          "name": "_nft",
          "type": "address"
        },
        {
          "internalType": "uint256",
          "name": "_tierId",
          "type": "uint256"
        }
      ],
      "name": "isTierRemoved",
      "outputs": [
        {
          "internalType": "bool",
          "name": "",
          "type": "bool"
        }
      ],
      "stateMutability": "view",
      "type": "function"
    },
    {
      "inputs": [
        {
          "internalType": "address",
          "name": "",
          "type": "address"
        }
      ],
      "name": "maxTierIdOf",
      "outputs": [
        {
          "internalType": "uint256",
          "name": "",
          "type": "uint256"
        }
      ],
      "stateMutability": "view",
      "type": "function"
    },
    {
      "inputs": [
        {
          "internalType": "address",
          "name": "",
          "type": "address"
        },
        {
          "internalType": "uint256",
          "name": "",
          "type": "uint256"
        }
      ],
      "name": "numberOfBurnedFor",
      "outputs": [
        {
          "internalType": "uint256",
          "name": "",
          "type": "uint256"
        }
      ],
      "stateMutability": "view",
      "type": "function"
    },
    {
      "inputs": [
        {
          "internalType": "address",
          "name": "_nft",
          "type": "address"
        },
        {
          "internalType": "uint256",
          "name": "_tierId",
          "type": "uint256"
        }
      ],
      "name": "numberOfReservedTokensOutstandingFor",
      "outputs": [
        {
          "internalType": "uint256",
          "name": "",
          "type": "uint256"
        }
      ],
      "stateMutability": "view",
      "type": "function"
    },
    {
      "inputs": [
        {
          "internalType": "address",
          "name": "",
          "type": "address"
        },
        {
          "internalType": "uint256",
          "name": "",
          "type": "uint256"
        }
      ],
      "name": "numberOfReservesMintedFor",
      "outputs": [
        {
          "internalType": "uint256",
          "name": "",
          "type": "uint256"
        }
      ],
      "stateMutability": "view",
      "type": "function"
    },
    {
      "inputs": [
        {
          "components": [
            {
              "internalType": "uint88",
              "name": "price",
              "type": "uint88"
            },
            {
              "internalType": "uint40",
              "name": "initialQuantity",
              "type": "uint40"
            },
            {
              "internalType": "uint40",
              "name": "votingUnits",
              "type": "uint40"
            },
            {
              "internalType": "uint16",
              "name": "reservedRate",
              "type": "uint16"
            },
            {
              "internalType": "address",
              "name": "reservedTokenBeneficiary",
              "type": "address"
            },
            {
              "internalType": "uint8",
              "name": "royaltyRate",
              "type": "uint8"
            },
            {
              "internalType": "address",
              "name": "royaltyBeneficiary",
              "type": "address"
            },
            {
              "internalType": "bytes32",
              "name": "encodedIPFSUri",
              "type": "bytes32"
            },
            {
              "internalType": "uint16",
              "name": "category",
              "type": "uint16"
            },
            {
              "internalType": "bool",
              "name": "allowManualMint",
              "type": "bool"
            },
            {
              "internalType": "bool",
              "name": "shouldUseReservedTokenBeneficiaryAsDefault",
              "type": "bool"
            },
            {
              "internalType": "bool",
              "name": "shouldUseRoyaltyBeneficiaryAsDefault",
              "type": "bool"
            },
            {
              "internalType": "bool",
              "name": "transfersPausable",
              "type": "bool"
            },
            {
              "internalType": "bool",
              "name": "useVotingUnits",
              "type": "bool"
            }
          ],
          "internalType": "struct JB721TierParams[]",
          "name": "_tiersToAdd",
          "type": "tuple[]"
        }
      ],
      "name": "recordAddTiers",
      "outputs": [
        {
          "internalType": "uint256[]",
          "name": "tierIds",
          "type": "uint256[]"
        }
      ],
      "stateMutability": "nonpayable",
      "type": "function"
    },
    {
      "inputs": [
        {
          "internalType": "uint256[]",
          "name": "_tokenIds",
          "type": "uint256[]"
        }
      ],
      "name": "recordBurn",
      "outputs": [],
      "stateMutability": "nonpayable",
      "type": "function"
    },
    {
      "inputs": [
        {
          "components": [
            {
              "internalType": "bool",
              "name": "lockReservedTokenChanges",
              "type": "bool"
            },
            {
              "internalType": "bool",
              "name": "lockVotingUnitChanges",
              "type": "bool"
            },
            {
              "internalType": "bool",
              "name": "lockManualMintingChanges",
              "type": "bool"
            },
            {
              "internalType": "bool",
              "name": "preventOverspending",
              "type": "bool"
            }
          ],
          "internalType": "struct JBTiered721Flags",
          "name": "_flags",
          "type": "tuple"
        }
      ],
      "name": "recordFlags",
      "outputs": [],
      "stateMutability": "nonpayable",
      "type": "function"
    },
    {
      "inputs": [
        {
          "internalType": "uint256",
          "name": "_amount",
          "type": "uint256"
        },
        {
          "internalType": "uint16[]",
          "name": "_tierIds",
          "type": "uint16[]"
        },
        {
          "internalType": "bool",
          "name": "_isManualMint",
          "type": "bool"
        }
      ],
      "name": "recordMint",
      "outputs": [
        {
          "internalType": "uint256[]",
          "name": "tokenIds",
          "type": "uint256[]"
        },
        {
          "internalType": "uint256",
          "name": "leftoverAmount",
          "type": "uint256"
        }
      ],
      "stateMutability": "nonpayable",
      "type": "function"
    },
    {
      "inputs": [
        {
          "internalType": "uint256",
          "name": "_tierId",
          "type": "uint256"
        },
        {
          "internalType": "uint256",
          "name": "_count",
          "type": "uint256"
        }
      ],
      "name": "recordMintReservesFor",
      "outputs": [
        {
          "internalType": "uint256[]",
          "name": "tokenIds",
          "type": "uint256[]"
        }
      ],
      "stateMutability": "nonpayable",
      "type": "function"
    },
    {
      "inputs": [
        {
          "internalType": "uint256[]",
          "name": "_tierIds",
          "type": "uint256[]"
        }
      ],
      "name": "recordRemoveTierIds",
      "outputs": [],
      "stateMutability": "nonpayable",
      "type": "function"
    },
    {
      "inputs": [
        {
          "internalType": "string",
          "name": "_uri",
          "type": "string"
        }
      ],
      "name": "recordSetBaseUri",
      "outputs": [],
      "stateMutability": "nonpayable",
      "type": "function"
    },
    {
      "inputs": [
        {
          "internalType": "string",
          "name": "_uri",
          "type": "string"
        }
      ],
      "name": "recordSetContractUri",
      "outputs": [],
      "stateMutability": "nonpayable",
      "type": "function"
    },
    {
      "inputs": [
        {
          "internalType": "address",
          "name": "_beneficiary",
          "type": "address"
        }
      ],
      "name": "recordSetDefaultReservedTokenBeneficiary",
      "outputs": [],
      "stateMutability": "nonpayable",
      "type": "function"
    },
    {
      "inputs": [
        {
          "internalType": "uint256",
          "name": "_tierId",
          "type": "uint256"
        },
        {
          "internalType": "bytes32",
          "name": "_encodedIPFSUri",
          "type": "bytes32"
        }
      ],
      "name": "recordSetEncodedIPFSUriOf",
      "outputs": [],
      "stateMutability": "nonpayable",
      "type": "function"
    },
    {
      "inputs": [
        {
          "internalType": "uint256",
          "name": "_tokenId",
          "type": "uint256"
        },
        {
          "internalType": "address",
          "name": "_owner",
          "type": "address"
        }
      ],
      "name": "recordSetFirstOwnerOf",
      "outputs": [],
      "stateMutability": "nonpayable",
      "type": "function"
    },
    {
      "inputs": [
        {
          "internalType": "contract IJBTokenUriResolver",
          "name": "_resolver",
          "type": "address"
        }
      ],
      "name": "recordSetTokenUriResolver",
      "outputs": [],
      "stateMutability": "nonpayable",
      "type": "function"
    },
    {
      "inputs": [
        {
          "internalType": "uint256",
          "name": "_tierId",
          "type": "uint256"
        },
        {
          "internalType": "address",
          "name": "_from",
          "type": "address"
        },
        {
          "internalType": "address",
          "name": "_to",
          "type": "address"
        }
      ],
      "name": "recordTransferForTier",
      "outputs": [],
      "stateMutability": "nonpayable",
      "type": "function"
    },
    {
      "inputs": [
        {
          "internalType": "address",
          "name": "_nft",
          "type": "address"
        },
        {
          "internalType": "uint256[]",
          "name": "_tokenIds",
          "type": "uint256[]"
        }
      ],
      "name": "redemptionWeightOf",
      "outputs": [
        {
          "internalType": "uint256",
          "name": "weight",
          "type": "uint256"
        }
      ],
      "stateMutability": "view",
      "type": "function"
    },
    {
      "inputs": [
        {
          "internalType": "address",
          "name": "_nft",
          "type": "address"
        },
        {
          "internalType": "uint256",
          "name": "_tierId",
          "type": "uint256"
        }
      ],
      "name": "reservedTokenBeneficiaryOf",
      "outputs": [
        {
          "internalType": "address",
          "name": "",
          "type": "address"
        }
      ],
      "stateMutability": "view",
      "type": "function"
    },
    {
      "inputs": [
        {
          "internalType": "address",
          "name": "_nft",
          "type": "address"
        },
        {
          "internalType": "uint256",
          "name": "_tokenId",
          "type": "uint256"
        },
        {
          "internalType": "uint256",
          "name": "_salePrice",
          "type": "uint256"
        }
      ],
      "name": "royaltyInfo",
      "outputs": [
        {
          "internalType": "address",
          "name": "receiver",
          "type": "address"
        },
        {
          "internalType": "uint256",
          "name": "royaltyAmount",
          "type": "uint256"
        }
      ],
      "stateMutability": "view",
      "type": "function"
    },
    {
      "inputs": [
        {
          "internalType": "address",
          "name": "",
          "type": "address"
        },
        {
          "internalType": "address",
          "name": "",
          "type": "address"
        },
        {
          "internalType": "uint256",
          "name": "",
          "type": "uint256"
        }
      ],
      "name": "tierBalanceOf",
      "outputs": [
        {
          "internalType": "uint256",
          "name": "",
          "type": "uint256"
        }
      ],
      "stateMutability": "view",
      "type": "function"
    },
    {
      "inputs": [
        {
          "internalType": "uint256",
          "name": "_tokenId",
          "type": "uint256"
        }
      ],
      "name": "tierIdOfToken",
      "outputs": [
        {
          "internalType": "uint256",
          "name": "",
          "type": "uint256"
        }
      ],
      "stateMutability": "pure",
      "type": "function"
    },
    {
      "inputs": [
        {
          "internalType": "address",
          "name": "_nft",
          "type": "address"
        },
        {
          "internalType": "uint256",
          "name": "_id",
          "type": "uint256"
        }
      ],
      "name": "tierOf",
      "outputs": [
        {
          "components": [
            {
              "internalType": "uint256",
              "name": "id",
              "type": "uint256"
            },
            {
              "internalType": "uint256",
              "name": "price",
              "type": "uint256"
            },
            {
              "internalType": "uint256",
              "name": "remainingQuantity",
              "type": "uint256"
            },
            {
              "internalType": "uint256",
              "name": "initialQuantity",
              "type": "uint256"
            },
            {
              "internalType": "uint256",
              "name": "votingUnits",
              "type": "uint256"
            },
            {
              "internalType": "uint256",
              "name": "reservedRate",
              "type": "uint256"
            },
            {
              "internalType": "address",
              "name": "reservedTokenBeneficiary",
              "type": "address"
            },
            {
              "internalType": "uint256",
              "name": "royaltyRate",
              "type": "uint256"
            },
            {
              "internalType": "address",
              "name": "royaltyBeneficiary",
              "type": "address"
            },
            {
              "internalType": "bytes32",
              "name": "encodedIPFSUri",
              "type": "bytes32"
            },
            {
              "internalType": "uint256",
              "name": "category",
              "type": "uint256"
            },
            {
              "internalType": "bool",
              "name": "allowManualMint",
              "type": "bool"
            },
            {
              "internalType": "bool",
              "name": "transfersPausable",
              "type": "bool"
            }
          ],
          "internalType": "struct JB721Tier",
          "name": "",
          "type": "tuple"
        }
      ],
      "stateMutability": "view",
      "type": "function"
    },
    {
      "inputs": [
        {
          "internalType": "address",
          "name": "_nft",
          "type": "address"
        },
        {
          "internalType": "uint256",
          "name": "_tokenId",
          "type": "uint256"
        }
      ],
      "name": "tierOfTokenId",
      "outputs": [
        {
          "components": [
            {
              "internalType": "uint256",
              "name": "id",
              "type": "uint256"
            },
            {
              "internalType": "uint256",
              "name": "price",
              "type": "uint256"
            },
            {
              "internalType": "uint256",
              "name": "remainingQuantity",
              "type": "uint256"
            },
            {
              "internalType": "uint256",
              "name": "initialQuantity",
              "type": "uint256"
            },
            {
              "internalType": "uint256",
              "name": "votingUnits",
              "type": "uint256"
            },
            {
              "internalType": "uint256",
              "name": "reservedRate",
              "type": "uint256"
            },
            {
              "internalType": "address",
              "name": "reservedTokenBeneficiary",
              "type": "address"
            },
            {
              "internalType": "uint256",
              "name": "royaltyRate",
              "type": "uint256"
            },
            {
              "internalType": "address",
              "name": "royaltyBeneficiary",
              "type": "address"
            },
            {
              "internalType": "bytes32",
              "name": "encodedIPFSUri",
              "type": "bytes32"
            },
            {
              "internalType": "uint256",
              "name": "category",
              "type": "uint256"
            },
            {
              "internalType": "bool",
              "name": "allowManualMint",
              "type": "bool"
            },
            {
              "internalType": "bool",
              "name": "transfersPausable",
              "type": "bool"
            }
          ],
          "internalType": "struct JB721Tier",
          "name": "",
          "type": "tuple"
        }
      ],
      "stateMutability": "view",
      "type": "function"
    },
    {
      "inputs": [
        {
          "internalType": "address",
          "name": "_nft",
          "type": "address"
        },
        {
          "internalType": "address",
          "name": "_account",
          "type": "address"
        },
        {
          "internalType": "uint256",
          "name": "_tierId",
          "type": "uint256"
        }
      ],
      "name": "tierVotingUnitsOf",
      "outputs": [
        {
          "internalType": "uint256",
          "name": "",
          "type": "uint256"
        }
      ],
      "stateMutability": "view",
      "type": "function"
    },
    {
      "inputs": [
        {
          "internalType": "address",
          "name": "_nft",
          "type": "address"
        },
        {
          "internalType": "uint256[]",
          "name": "_categories",
          "type": "uint256[]"
        },
        {
          "internalType": "uint256",
          "name": "_startingId",
          "type": "uint256"
        },
        {
          "internalType": "uint256",
          "name": "_size",
          "type": "uint256"
        }
      ],
      "name": "tiersOf",
      "outputs": [
        {
          "components": [
            {
              "internalType": "uint256",
              "name": "id",
              "type": "uint256"
            },
            {
              "internalType": "uint256",
              "name": "price",
              "type": "uint256"
            },
            {
              "internalType": "uint256",
              "name": "remainingQuantity",
              "type": "uint256"
            },
            {
              "internalType": "uint256",
              "name": "initialQuantity",
              "type": "uint256"
            },
            {
              "internalType": "uint256",
              "name": "votingUnits",
              "type": "uint256"
            },
            {
              "internalType": "uint256",
              "name": "reservedRate",
              "type": "uint256"
            },
            {
              "internalType": "address",
              "name": "reservedTokenBeneficiary",
              "type": "address"
            },
            {
              "internalType": "uint256",
              "name": "royaltyRate",
              "type": "uint256"
            },
            {
              "internalType": "address",
              "name": "royaltyBeneficiary",
              "type": "address"
            },
            {
              "internalType": "bytes32",
              "name": "encodedIPFSUri",
              "type": "bytes32"
            },
            {
              "internalType": "uint256",
              "name": "category",
              "type": "uint256"
            },
            {
              "internalType": "bool",
              "name": "allowManualMint",
              "type": "bool"
            },
            {
              "internalType": "bool",
              "name": "transfersPausable",
              "type": "bool"
            }
          ],
          "internalType": "struct JB721Tier[]",
          "name": "_tiers",
          "type": "tuple[]"
        }
      ],
      "stateMutability": "view",
      "type": "function"
    },
    {
      "inputs": [
        {
          "internalType": "address",
          "name": "",
          "type": "address"
        }
      ],
      "name": "tokenUriResolverOf",
      "outputs": [
        {
          "internalType": "contract IJBTokenUriResolver",
          "name": "",
          "type": "address"
        }
      ],
      "stateMutability": "view",
      "type": "function"
    },
    {
      "inputs": [
        {
          "internalType": "address",
          "name": "_nft",
          "type": "address"
        }
      ],
      "name": "totalRedemptionWeight",
      "outputs": [
        {
          "internalType": "uint256",
          "name": "weight",
          "type": "uint256"
        }
      ],
      "stateMutability": "view",
      "type": "function"
    },
    {
      "inputs": [
        {
          "internalType": "address",
          "name": "_nft",
          "type": "address"
        }
      ],
      "name": "totalSupply",
      "outputs": [
        {
          "internalType": "uint256",
          "name": "supply",
          "type": "uint256"
        }
      ],
      "stateMutability": "view",
      "type": "function"
    },
    {
      "inputs": [
        {
          "internalType": "address",
          "name": "_nft",
          "type": "address"
        },
        {
          "internalType": "address",
          "name": "_account",
          "type": "address"
        }
      ],
      "name": "votingUnitsOf",
      "outputs": [
        {
          "internalType": "uint256",
          "name": "units",
          "type": "uint256"
        }
      ],
      "stateMutability": "view",
      "type": "function"
    }
  ],
  "bytecode": {
    "object": "0x608060405234801561001057600080fd5b50613d08806100206000396000f3fe608060405234801561001057600080fd5b506004361061025e5760003560e01c8063845104de11610146578063bd51923c116100c3578063d84a72c011610087578063d84a72c014610794578063e4dc2aa4146107d1578063eaa19ab3146107e4578063f1bea54f14610805578063f682eeaf14610825578063f7888aec1461083857600080fd5b8063bd51923c1461071d578063c2c55f9414610748578063c8df17101461075b578063cb827e321461076e578063d67b78fd1461078157600080fd5b8063911c80b51161010a578063911c80b51461069b57806393355578146106c4578063aab0cd80146106d7578063b67cb047146106f7578063baa7e80e1461070a57600080fd5b8063845104de1461051b57806386a51007146105eb57806386bc2be31461060b5780638cec7d391461061e5780638ed6c0101461066757600080fd5b806335314b92116101df578063538bd5ea116101a3578063538bd5ea146104605780635aff6200146104925780635f646611146104b25780636262bcb2146104d55780636825bb80146104e857806379a753191461051357600080fd5b806335314b92146103bc57806337f44652146103cf5780634223f60e1461040057806342f9914b1461042057806349bd1ac61461043357600080fd5b806317161f7d1161022657806317161f7d1461031b57806320512ba1146103585780632ae5e4921461036b5780632b7e6ef01461037e5780632e4d0ea8146103a957600080fd5b8063086bb19a146102635780630fab094714610278578063136e651c146102be578063144cc2d4146102d157806315fa7dff146102f2575b600080fd5b61027661027136600461315a565b61084b565b005b6102a161028636600461315a565b6010602052600090815260409020546001600160a01b031681565b6040516001600160a01b0390911681526020015b60405180910390f35b6102a16102cc366004613177565b6109e0565b6102e46102df3660046131ee565b610a39565b6040519081526020016102b5565b6102a161030036600461315a565b600d602052600090815260409020546001600160a01b031681565b61027661032936600461315a565b336000908152600c6020526040902080546001600160a01b0319166001600160a01b0392909216919091179055565b610276610366366004613242565b610ab7565b6102e461037936600461315a565b610b0c565b6102e461038c366004613177565b600b60209081526000928352604080842090915290825290205481565b6102e46103b7366004613283565b610c78565b6102e46103ca366004613177565b610d00565b6102e46103dd366004613283565b600960209081526000938452604080852082529284528284209052825290205481565b61041361040e366004613177565b610dd9565b6040516102b5919061336d565b6102e461042e36600461337c565b610fda565b610276610441366004613395565b3360009081526012602090815260408083209483529390529190912055565b61047361046e3660046133b7565b610fea565b604080516001600160a01b0390931683526020830191909152016102b5565b6104a56104a036600461345b565b611115565b6040516102b59190613523565b6104c56104c0366004613177565b611520565b60405190151581526020016102b5565b6102766104e3366004613572565b611558565b6102e46104f6366004613177565b600a60209081526000928352604080842090915290825290205481565b6102e460c881565b6105b061052936600461315a565b604080516080810182526000808252602082018190529181018290526060810191909152506001600160a01b03166000908152600460209081526040918290208251608081018452905460ff808216151583526101008204811615159383019390935262010000810483161515938201939093526301000000909204161515606082015290565b6040516102b5919081511515815260208083015115159082015260408083015115159082015260609182015115159181019190915260800190565b6105fe6105f93660046135e3565b611577565b6040516102b59190613681565b610276610619366004613242565b611f09565b61027661062c366004613694565b336000908152600e602090815260408083209483529390529190912080546001600160a01b0319166001600160a01b03909216919091179055565b6102a1610675366004613177565b600e6020908152600092835260408084209091529082529020546001600160a01b031681565b6102a16106a936600461315a565b600c602052600090815260409020546001600160a01b031681565b6102e46106d23660046136c4565b611fcd565b6106ea6106e536600461315a565b61214f565b6040516102b591906136f2565b610413610705366004613177565b6121e9565b6105fe610718366004613395565b61240f565b6102e461072b366004613177565b601260209081526000928352604080842090915290825290205481565b610276610756366004613740565b612646565b6102e4610769366004613177565b6126d9565b61027661077c366004613782565b612712565b61027661078f366004613572565b61272d565b6102766107a236600461315a565b33600090815260106020526040902080546001600160a01b0319166001600160a01b0392909216919091179055565b6102e46107df36600461315a565b612747565b6107f76107f23660046137b3565b6127cf565b6040516102b5929190613811565b6102e461081336600461315a565b60086020526000908152604090205481565b6106ea61083336600461315a565b612b3d565b6102e46108463660046136c4565b612b56565b600061085682612bc2565b90506000610865836000612c03565b6001600160a01b038416600090815260056020526040812091925090819061088d9084612c6a565b90505b821561099b576108a08184612cb0565b156108ca576001600160a01b03851660009081526005602052604090206108c79084612c6a565b90505b6108d48184612cca565b610989576108e3826001613849565b831461093b576001600160a01b0385166000908152602081815260408083208584529091529020548314610936576001600160a01b03851660009081526020818152604080832085845290915290208390555b610985565b6001600160a01b03851660009081526020818152604080832085845290915290205415610985576001600160a01b0385166000908152602081815260408083208584529091528120555b8291505b610994858486612ce9565b9250610890565b6040513381526001600160a01b038616907f4a0f854ce3c180d56f3e9eb47eb064c595bf3de0ab9af45425291e5b1bb733a89060200160405180910390a25050505050565b6001600160a01b0380831660009081526001602090815260408083208584529091528120549091168015610a15579050610a33565b50506001600160a01b038083166000908152600c6020526040902054165b92915050565b600081815b81811015610aae576001600160a01b038616600090815260036020526040812090610a80878785818110610a7457610a7461385c565b90506020020135610fda565b8152602081019190915260400160002054610aa4906001600160581b031684613849565b9250600101610a3e565b50509392505050565b806000805b82811015610b0557848482818110610ad657610ad661385c565b336000908152600560209081526040909120910292909201359350610afd91905083612d34565b600101610abc565b5050505050565b6001600160a01b038116600090815260086020526040812054610b2d612fee565b60005b82811015610c70576001600160a01b0385166000908152600360209081526040808320600180860185529083529281902081516101408101835281546001600160581b038116825264ffffffffff600160581b8204811695830195909552600160801b8104851693820193909352600160a81b8304909316606084015261ffff600160d01b830481166080850152600160e01b83041660a084015260ff600160f01b8304811660c0850152600160f81b9092048216151560e084015283015480821615156101008085019190915290041615156101208201529250610c22908690610c1c908490613849565b84612d6d565b82602001518360400151610c369190613872565b64ffffffffff16610c479190613849565b8251610c5c91906001600160581b0316613897565b610c669085613849565b9350600101610b30565b505050919050565b6001600160a01b0380841660009081526009602090815260408083209386168352928152828220848352905290812054808203610cb9576000915050610cf9565b6001600160a01b0385166000908152600360209081526040808320868452909152902054610cf590600160a81b900464ffffffffff1682613897565b9150505b9392505050565b6001600160a01b0382166000908152600360209081526040808320848452825280832081516101408101835281546001600160581b038116825264ffffffffff600160581b8204811695830195909552600160801b8104851693820193909352600160a81b8304909316606084015261ffff600160d01b830481166080850152600160e01b83041660a084015260ff600160f01b8304811660c0850152600160f81b9092048216151560e0840152600101548082161515610100808501919091529004161515610120820152610cf99084908490612d6d565b610de1613042565b6001600160a01b0383166000908152600360209081526040808320858452825280832081516101408101835281546001600160581b038116825264ffffffffff600160581b8204811695830195909552600160801b8104851693820193909352600160a81b8304909316606084015261ffff600160d01b830481166080850152600160e01b83041660a084015260ff600160f01b8304811660c0850152600160f81b9092048216151560e084015260010154808216151561010080850191909152900416151561012082015290610eb885856109e0565b9050604051806101a0016040528085815260200183600001516001600160581b03168152602001836020015164ffffffffff168152602001836040015164ffffffffff168152602001836101200151610f12578351610f1f565b836060015164ffffffffff165b6001600160581b031681526020016001600160a01b03831615610f46578360800151610f49565b60005b61ffff168152602001826001600160a01b031681526020018360c0015160ff168152602001610f788787612eac565b6001600160a01b03908116825287166000908152601260209081526040808320898452825291829020549083015260a085015161ffff169082015260e08401511515606082015261010090930151151560809093019290925250905092915050565b6000610a33633b9aca00836138c4565b6000806000610ff885610fda565b905060006110068783612eac565b90506001600160a01b0381166110245760008093509350505061110d565b6001600160a01b038716600090815260036020908152604080832085845282529182902082516101408101845281546001600160581b038116825264ffffffffff600160581b8204811694830194909452600160801b8104841694820194909452600160a81b8404909216606083015261ffff600160d01b840481166080840152600160e01b84041660a083015260ff600160f01b8404811660c08401819052600160f81b9094048116151560e0840152600190910154808216151561010080850191909152900416151561012082015290829061110590889060c8612f02565b945094505050505b935093915050565b6060600061112286612bc2565b9050826001600160401b0381111561113c5761113c6133ec565b60405190808252806020026020018201604052801561117557816020015b611162613042565b81526020019060019003908161115a5790505b5091506000611182612fee565b60005b875115611193578751611196565b60015b81101561150957828614611509576000876000036111e6576111e18a8a516000146111da578a84815181106111cd576111cd61385c565b6020026020010151612c03565b6000612c03565b6111e8565b875b6001600160a01b038b1660009081526005602052604081209192509061120e9083612c6a565b90505b811580159061121f57508785105b156114ff5761122e8183612cb0565b15611258576001600160a01b038b1660009081526005602052604090206112559083612c6a565b90505b6112628183612cca565b6114ed576001600160a01b038b16600090815260036020908152604080832085845282529182902082516101408101845281546001600160581b038116825264ffffffffff600160581b8204811694830194909452600160801b8104841694820194909452600160a81b8404909216606083015261ffff600160d01b840481166080840152600160e01b84041660a083015260ff600160f01b8404811660c0840152600160f81b9093048316151560e083015260010154808316151561010080840191909152900490911615156101208201528a519094501580159061136857508983815181106113555761135561385c565b60200260200101518460a0015161ffff16115b6114ff5760006113788c846109e0565b90508a51600014806113aa57508a84815181106113975761139761385c565b60200260200101518560a0015161ffff16145b156114eb57604051806101a0016040528084815260200186600001516001600160581b03168152602001866020015164ffffffffff168152602001866040015164ffffffffff168152602001866101200151611407578651611414565b866060015164ffffffffff165b6001600160581b031681526020016001600160a01b0383161561143b57866080015161143e565b60005b61ffff168152602001826001600160a01b031681526020018660c0015160ff16815260200161146d8e86612eac565b6001600160a01b0390811682528e166000908152601260209081526040808320888452825291829020549083015260a088015161ffff169082015260e087015115156060820152610100870151151560809091015288876114cd816138d8565b9850815181106114df576114df61385c565b60200260200101819052505b505b6114f88b8388612ce9565b9150611211565b5050600101611185565b50848214611515578184525b505050949350505050565b6001600160a01b038216600090815260056020526040812081906115449084612c6a565b90506115508184612cca565b949350505050565b336000908152600f60205260409020611572828483613973565b505050565b33600090815260086020526040902054606090829061ffff6115998383613849565b11156115b857604051631bc68c8b60e11b815260040160405180910390fd5b60006115c333612bc2565b9050826001600160401b038111156115dd576115dd6133ec565b604051908082528060200260200182016040528015611606578160200160208202803683370190505b509350600082156116215761161c336000612c03565b611624565b60005b905060006116306130c3565b3360009081526004602090815260408083208151608081018352905460ff80821615158352610100820481161515948301949094526201000081048416151592820192909252630100000090910490911615156060820152905b87811015611ee0578a8a828181106116a4576116a461385c565b90506101c002018036038101906116bb9190613a81565b92506116cc6001633b9aca00613b8a565b836020015164ffffffffff1611156116f7576040516349016ea360e01b815260040160405180910390fd5b6116ff6130c3565b811561176d578b8b611712600185613b8a565b8181106117215761172161385c565b90506101c002018036038101906117389190613a81565b905080610100015161ffff1684610100015161ffff16101561176d57604051631cabebd560e21b815260040160405180910390fd5b826020015180156117885750604084015164ffffffffff1615155b156117a657604051630189200360e11b815260040160405180910390fd5b8251806117b557508361012001515b80156117c85750606084015161ffff1615155b156117e65760405163a75b1cd560e01b815260040160405180910390fd5b826040015180156117f957508361012001515b15611817576040516330ec637f60e01b815260040160405180910390fd5b836020015164ffffffffff1660000361184357604051631e0a863160e31b815260040160405180910390fd5b60c88460a0015160ff16111561186c5760405163fd912b8360e01b815260040160405180910390fd5b6000611878838a613849565b611883906001613849565b905060405180610140016040528086600001516001600160581b03168152602001866020015164ffffffffff168152602001866020015164ffffffffff168152602001866040015164ffffffffff168152602001866060015161ffff16815260200186610100015161ffff1681526020018660a0015160ff1681526020018661012001511515815260200186610180015115158152602001866101a00151151581525060036000336001600160a01b03166001600160a01b03168152602001908152602001600020600083815260200190815260200160002060008201518160000160006101000a8154816001600160581b0302191690836001600160581b03160217905550602082015181600001600b6101000a81548164ffffffffff021916908364ffffffffff16021790555060408201518160000160106101000a81548164ffffffffff021916908364ffffffffff16021790555060608201518160000160156101000a81548164ffffffffff021916908364ffffffffff160217905550608082015181600001601a6101000a81548161ffff021916908361ffff16021790555060a082015181600001601c6101000a81548161ffff021916908361ffff16021790555060c082015181600001601e6101000a81548160ff021916908360ff16021790555060e082015181600001601f6101000a81548160ff0219169083151502179055506101008201518160010160006101000a81548160ff0219169083151502179055506101208201518160010160016101000a81548160ff02191690831515021790555090505084610100015161ffff1682610100015161ffff1614158015611afa575061010085015161ffff1615155b15611b265733600090815260076020908152604080832061010089015161ffff16845290915290208190555b60808501516001600160a01b031615611bdf5784610140015115611ba2576080850151336000908152600c60205260409020546001600160a01b03908116911614611b9d576080850151336000908152600c6020526040902080546001600160a01b0319166001600160a01b039092169190911790555b611bdf565b6080850151336000908152600160209081526040808320858452909152902080546001600160a01b0319166001600160a01b039092169190911790555b60c08501516001600160a01b031615611c985784610160015115611c5b5760c0850151336000908152600d60205260409020546001600160a01b03908116911614611c565760c0850151336000908152600d6020526040902080546001600160a01b0319166001600160a01b039092169190911790555b611c98565b60c0850151336000908152600260209081526040808320858452909152902080546001600160a01b0319166001600160a01b039092169190911790555b60e085015115611cc35760e08501513360009081526012602090815260408083208584529091529020555b8615611eb857336000908152600560205260408120889190611ce59083612c6a565b905060005b8215611eb457611cfa8284612cb0565b15611d1b57336000908152600560205260409020611d189084612c6a565b91505b611d2633848d612ce9565b3360009081526003602090815260408083208784529091529020546101008a015191925061ffff600160e01b9091048116911611801590611d6757508b8311155b15611e3a57611d77846001613849565b8314611d99573360009081526020818152604080832087845290915290208390555b336000908152600660205260409020548b14611dc2573360009081526006602052604090208b90555b611dcd600185613b8a565b89141580611df25750336000908152602081815260408083208c845290915290205415155b15611e2b57611e02600185613b8a565b8914611e0e5783611e11565b60005b336000908152602081815260408083208d84529091529020555b82995083985060009250611cea565b801580611e4657508b81115b15611eab57611e56836001613849565b8414611e78573360009081526020818152604080832086845290915290208490555b33600090815260066020526040812054949a508a9490935015611ea657336000908152600660205260408120555b611cea565b91975081611cea565b5050505b808b8481518110611ecb57611ecb61385c565b6020908102919091010152505060010161168a565b50611eeb8787613849565b33600090815260086020526040902055509598975050505050505050565b806000805b82811015610b0557848482818110611f2857611f2861385c565b9050602002013591506000611f3c83610fda565b336000908152600b602090815260408083208484529091528120805492935090611f65836138d8565b909155505033600090815260036020908152604080832084845290915290208054600160581b900464ffffffffff1690600b611fa083613b9d565b91906101000a81548164ffffffffff021916908364ffffffffff1602179055505081600101915050611f0e565b6001600160a01b03821660009081526008602052604081205481611fef612fee565b825b8015612145576001600160a01b038088166000908152600960209081526040808320938a16835292815282822084835290522054925082156120ff576001600160a01b038716600090815260036020908152604080832084845282529182902082516101408101845281546001600160581b038116825264ffffffffff600160581b8204811694830194909452600160801b8104841694820194909452600160a81b8404909216606083015261ffff600160d01b840481166080840152600160e01b84041660a083015260ff600160f01b8404811660c0840152600160f81b9093048316151560e0830152600101548083161515610100808401919091529004909116151561012082015291505b81610120015161211057815161211d565b816060015164ffffffffff165b612130906001600160581b031684613897565b61213a9086613849565b945060001901611ff1565b5050505092915050565b60116020526000908152604090208054612168906138f1565b80601f0160208091040260200160405190810160405280929190818152602001828054612194906138f1565b80156121e15780601f106121b6576101008083540402835291602001916121e1565b820191906000526020600020905b8154815290600101906020018083116121c457829003601f168201915b505050505081565b6121f1613042565b60006121fc83610fda565b6001600160a01b0385166000908152600360209081526040808320848452825280832081516101408101835281546001600160581b038116825264ffffffffff600160581b8204811695830195909552600160801b8104851693820193909352600160a81b8304909316606084015261ffff600160d01b830481166080850152600160e01b83041660a084015260ff600160f01b8304811660c0850152600160f81b9092048216151560e08401526001015480821615156101008085019190915290041615156101208201529192506122d586846109e0565b9050604051806101a0016040528084815260200183600001516001600160581b03168152602001836020015164ffffffffff168152602001836040015164ffffffffff16815260200183610120015161232f57835161233c565b836060015164ffffffffff165b6001600160581b031681526020016001600160a01b03831615612363578360800151612366565b60005b61ffff168152602001826001600160a01b031681526020018360c0015160ff1681526020016123958886612eac565b6001600160a01b0316815260200160126000896001600160a01b03166001600160a01b0316815260200190815260200160002060008681526020019081526020016000205481526020018360a0015161ffff1681526020018360e00151151581526020018361010001511515815250935050505092915050565b336000818152600360209081526040808320868452825280832081516101408101835281546001600160581b038116825264ffffffffff600160581b8204811695830195909552600160801b8104851693820193909352600160a81b830490931660608481019190915261ffff600160d01b840481166080860152600160e01b84041660a085015260ff600160f01b8404811660c0860152600160f81b9093048316151560e085015260018201548084161515610100808701919091529004909216151561012084015290939092916124ea91908790612d6d565b90508084111561250d5760405163226f999960e11b815260040160405180910390fd5b336000908152600a6020908152604080832088845290915281208054869290612537908490613849565b909155508490506001600160401b03811115612555576125556133ec565b60405190808252806020026020018201604052801561257e578160200160208202803683370190505b50336000908152600b602090815260408083208984529091528120549194505b8581101561214557612621878386600001600b81819054906101000a900464ffffffffff166125cc90613bc1565b91906101000a81548164ffffffffff021916908364ffffffffff16021790558760000160109054906101000a900464ffffffffff1661260b9190613872565b64ffffffffff1661261c9190613849565b612fd3565b8582815181106126335761263361385c565b602090810291909101015260010161259e565b6001600160a01b03821615612693573360009081526009602090815260408083206001600160a01b038616845282528083208684529091528120805490919061268e90613be2565b909155505b6001600160a01b03811615611572573360009081526009602090815260408083206001600160a01b03851684528252808320868452909152902080546001019055505050565b6001600160a01b0382166000908152601260205260408120816126fb84610fda565b815260200190815260200160002054905092915050565b33600090815260046020526040902081906115728282613c06565b336000908152601160205260409020611572828483613973565b6001600160a01b0381166000908152600860205260408120548190805b8015610c70576001600160a01b0385166000908152600360209081526040808320848452909152902080549093506127b39064ffffffffff600160581b8204811691600160801b900416613872565b6127c49064ffffffffff1685613849565b935060001901612764565b60608483600080826001600160401b038111156127ee576127ee6133ec565b604051908082528060200260200182016040528015612817578160200160208202803683370190505b5094506000612860898960008181106128325761283261385c565b90506020020160208101906128479190613ca3565b3360009081526005602052604090209061ffff16612c6a565b905060005b84811015612b2f5789898281811061287f5761287f61385c565b90506020020160208101906128949190613ca3565b61ffff1692506128a48284612cb0565b156128c5573360009081526005602052604090206128c29084612c6a565b91505b6128cf8284612cca565b156128ed5760405163d32cb5c160e01b815260040160405180910390fd5b3360009081526003602090815260408083208684529091529020935087801561291f57508354600160f81b900460ff16155b1561293d57604051632f792d3960e11b815260040160405180910390fd5b8354600160801b900464ffffffffff1660000361296d57604051630de5859f60e01b815260040160405180910390fd5b83546001600160581b031686101561299857604051632cd294cf60e01b815260040160405180910390fd5b604080516101408101825285546001600160581b038116825264ffffffffff600160581b820481166020840152600160801b8204811693830193909352600160a81b8104909216606082015261ffff600160d01b830481166080830152600160e01b83041660a082015260ff600160f01b8304811660c0830152600160f81b9092048216151560e0820152600186015480831615156101008084019190915290049091161515610120820152612a519033908590612d6d565b8454612a6b9190600160581b900464ffffffffff16613b8a565b600003612a8b5760405163985a45d960e01b815260040160405180910390fd5b336000908152600b60209081526040808320868452909152902054845460001964ffffffffff600160581b808404821692830182160264ffffffffff60581b1990931692909217808855612af3938793600160801b9092048216929092036001011601612fd3565b878281518110612b0557612b0561385c565b60209081029190910101528354612b25906001600160581b031687613b8a565b9550600101612865565b505050505094509492505050565b600f6020526000908152604090208054612168906138f1565b6001600160a01b038216600090815260086020526040812054805b8015612bba576001600160a01b038086166000908152600960209081526040808320938816835292815282822084835290522054612baf9084613849565b925060001901612b71565b505092915050565b6001600160a01b03811660009081526006602052604081205490819003612bfe57506001600160a01b0381166000908152600860205260409020545b919050565b60008115612c34576001600160a01b0383166000908152600760209081526040808320858452909152902054612c57565b6001600160a01b0383166000908152602081815260408083208380529091529020545b905080600003610a335750600192915050565b60408051808201909152600080825260208201526000612c8a8360081c90565b604080518082018252600083815260209788529190912054815294850152509192915050565b60008260200151612cc18360081c90565b14159392505050565b6000612cd861010083613cbe565b83516001911c811614905092915050565b6000818303612cfa57506000610cf9565b6001600160a01b0384166000908152602081815260408083208684529091529020548015612d29579050610cf9565b610cf5846001613849565b6000612d408260081c90565b9050612d4e61010083613cbe565b6000918252602093909352604090208054600190931b90921790915550565b6000816080015161ffff1660001480612d9b5750816020015164ffffffffff16826040015164ffffffffff16145b80612db857506000612dad85856109e0565b6001600160a01b0316145b15612dc557506000610cf9565b6001600160a01b0384166000908152600a60209081526040808320868452825291829020549084015191840151909164ffffffffff90811691612e0a91849116613b8a565b03612e19576000915050610cf9565b60008184602001518560400151612e309190613872565b64ffffffffff16612e419190613b8a565b90506000846080015161ffff1682612e5991906138c4565b90506000856080015161ffff1683612e719190613cbe565b1115612e8357612e80816138d8565b90505b80831115612e975760009350505050610cf9565b612ea18382613b8a565b979650505050505050565b6001600160a01b0380831660009081526002602090815260408083208584529091528120549091168015612ee1579050610a33565b5050506001600160a01b039081166000908152600d60205260409020541690565b6000808060001985870985870292508281108382030391505080600003612f3c57838281612f3257612f326138ae565b0492505050610cf9565b838110612f6a57604051631dcf306360e21b8152600481018290526024810185905260440160405180910390fd5b60008486880960026001871981018816978890046003810283188082028403028082028403028082028403028082028403028082028403029081029092039091026000889003889004909101858311909403939093029303949094049190911702949350505050565b600081612fe4633b9aca0085613897565b610cf99190613849565b6040805161014081018252600080825260208201819052918101829052606081018290526080810182905260a0810182905260c0810182905260e08101829052610100810182905261012081019190915290565b604051806101a0016040528060008152602001600081526020016000815260200160008152602001600081526020016000815260200160006001600160a01b031681526020016000815260200160006001600160a01b0316815260200160008019168152602001600081526020016000151581526020016000151581525090565b604080516101c081018252600080825260208201819052918101829052606081018290526080810182905260a0810182905260c0810182905260e08101829052610100810182905261012081018290526101408101829052610160810182905261018081018290526101a081019190915290565b6001600160a01b038116811461314c57600080fd5b50565b8035612bfe81613137565b60006020828403121561316c57600080fd5b8135610cf981613137565b6000806040838503121561318a57600080fd5b823561319581613137565b946020939093013593505050565b60008083601f8401126131b557600080fd5b5081356001600160401b038111156131cc57600080fd5b6020830191508360208260051b85010111156131e757600080fd5b9250929050565b60008060006040848603121561320357600080fd5b833561320e81613137565b925060208401356001600160401b0381111561322957600080fd5b613235868287016131a3565b9497909650939450505050565b6000806020838503121561325557600080fd5b82356001600160401b0381111561326b57600080fd5b613277858286016131a3565b90969095509350505050565b60008060006060848603121561329857600080fd5b83356132a381613137565b925060208401356132b381613137565b929592945050506040919091013590565b805182526020810151602083015260408101516040830152606081015160608301526080810151608083015260a081015160a083015260c081015161331460c08401826001600160a01b03169052565b5060e081015160e08301526101008082015161333a828501826001600160a01b03169052565b50506101208181015190830152610140808201519083015261016080820151151590830152610180908101511515910152565b6101a08101610a3382846132c4565b60006020828403121561338e57600080fd5b5035919050565b600080604083850312156133a857600080fd5b50508035926020909101359150565b6000806000606084860312156133cc57600080fd5b83356133d781613137565b95602085013595506040909401359392505050565b634e487b7160e01b600052604160045260246000fd5b6040516101c081016001600160401b0381118282101715613425576134256133ec565b60405290565b604051601f8201601f191681016001600160401b0381118282101715613453576134536133ec565b604052919050565b6000806000806080858703121561347157600080fd5b843561347c81613137565b93506020858101356001600160401b038082111561349957600080fd5b818801915088601f8301126134ad57600080fd5b8135818111156134bf576134bf6133ec565b8060051b91506134d084830161342b565b818152918301840191848101908b8411156134ea57600080fd5b938501935b83851015613508578435825293850193908501906134ef565b989b989a505050506040870135966060013595945050505050565b6020808252825182820181905260009190848201906040850190845b81811015613566576135528385516132c4565b928401926101a0929092019160010161353f565b50909695505050505050565b6000806020838503121561358557600080fd5b82356001600160401b038082111561359c57600080fd5b818501915085601f8301126135b057600080fd5b8135818111156135bf57600080fd5b8660208285010111156135d157600080fd5b60209290920196919550909350505050565b600080602083850312156135f657600080fd5b82356001600160401b038082111561360d57600080fd5b818501915085601f83011261362157600080fd5b81358181111561363057600080fd5b8660206101c0830285010111156135d157600080fd5b600081518084526020808501945080840160005b838110156136765781518752958201959082019060010161365a565b509495945050505050565b602081526000610cf96020830184613646565b600080604083850312156136a757600080fd5b8235915060208301356136b981613137565b809150509250929050565b600080604083850312156136d757600080fd5b82356136e281613137565b915060208301356136b981613137565b600060208083528351808285015260005b8181101561371f57858101830151858201604001528201613703565b506000604082860101526040601f19601f8301168501019250505092915050565b60008060006060848603121561375557600080fd5b83359250602084013561376781613137565b9150604084013561377781613137565b809150509250925092565b60006080828403121561379457600080fd5b50919050565b801515811461314c57600080fd5b8035612bfe8161379a565b600080600080606085870312156137c957600080fd5b8435935060208501356001600160401b038111156137e657600080fd5b6137f2878288016131a3565b90945092505060408501356138068161379a565b939692955090935050565b6040815260006138246040830185613646565b90508260208301529392505050565b634e487b7160e01b600052601160045260246000fd5b80820180821115610a3357610a33613833565b634e487b7160e01b600052603260045260246000fd5b64ffffffffff82811682821603908082111561389057613890613833565b5092915050565b8082028115828204841417610a3357610a33613833565b634e487b7160e01b600052601260045260246000fd5b6000826138d3576138d36138ae565b500490565b6000600182016138ea576138ea613833565b5060010190565b600181811c9082168061390557607f821691505b60208210810361379457634e487b7160e01b600052602260045260246000fd5b601f82111561157257600081815260208120601f850160051c8101602086101561394c5750805b601f850160051c820191505b8181101561396b57828155600101613958565b505050505050565b6001600160401b0383111561398a5761398a6133ec565b61399e8361399883546138f1565b83613925565b6000601f8411600181146139d257600085156139ba5750838201355b600019600387901b1c1916600186901b178355610b05565b600083815260209020601f19861690835b82811015613a0357868501358255602094850194600190920191016139e3565b5086821015613a205760001960f88860031b161c19848701351681555b505060018560011b0183555050505050565b80356001600160581b0381168114612bfe57600080fd5b803564ffffffffff81168114612bfe57600080fd5b803561ffff81168114612bfe57600080fd5b803560ff81168114612bfe57600080fd5b60006101c08284031215613a9457600080fd5b613a9c613402565b613aa583613a32565b8152613ab360208401613a49565b6020820152613ac460408401613a49565b6040820152613ad560608401613a5e565b6060820152613ae66080840161314f565b6080820152613af760a08401613a70565b60a0820152613b0860c0840161314f565b60c082015260e083013560e0820152610100613b25818501613a5e565b90820152610120613b378482016137a8565b90820152610140613b498482016137a8565b90820152610160613b5b8482016137a8565b90820152610180613b6d8482016137a8565b908201526101a0613b7f8482016137a8565b908201529392505050565b81810381811115610a3357610a33613833565b600064ffffffffff808316818103613bb757613bb7613833565b6001019392505050565b600064ffffffffff821680613bd857613bd8613833565b6000190192915050565b600081613bf157613bf1613833565b506000190190565b60008135610a338161379a565b8135613c118161379a565b815460ff19811691151560ff1691821783556020840135613c318161379a565b61ff0090151560081b1661ffff1982168317811784556040850135613c558161379a565b62ff000081151560101b168462ffffff19851617831717855550505050613c9f613c8160608401613bf9565b82805463ff000000191691151560181b63ff00000016919091179055565b5050565b600060208284031215613cb557600080fd5b610cf982613a5e565b600082613ccd57613ccd6138ae565b50069056fea2646970667358221220b5d3b983137663358c0106f989be27e914c2afe33a61b424953d1136eeead30764736f6c63430008110033",
    "linkReferences": {}
  },
  "methodIdentifiers": {
    "MAX_ROYALTY_RATE()": "79a75319",
    "balanceOf(address,address)": "f7888aec",
    "baseUriOf(address)": "f682eeaf",
    "cleanTiers(address)": "086bb19a",
    "contractUriOf(address)": "aab0cd80",
    "defaultReservedTokenBeneficiaryOf(address)": "911c80b5",
    "defaultRoyaltyBeneficiaryOf(address)": "15fa7dff",
    "encodedIPFSUriOf(address,uint256)": "bd51923c",
    "encodedTierIPFSUriOf(address,uint256)": "c8df1710",
    "firstOwnerOf(address,uint256)": "8ed6c010",
    "flagsOf(address)": "845104de",
    "isTierRemoved(address,uint256)": "5f646611",
    "maxTierIdOf(address)": "f1bea54f",
    "numberOfBurnedFor(address,uint256)": "2b7e6ef0",
    "numberOfReservedTokensOutstandingFor(address,uint256)": "35314b92",
    "numberOfReservesMintedFor(address,uint256)": "6825bb80",
    "recordAddTiers((uint88,uint40,uint40,uint16,address,uint8,address,bytes32,uint16,bool,bool,bool,bool,bool)[])": "86a51007",
    "recordBurn(uint256[])": "86bc2be3",
    "recordFlags((bool,bool,bool,bool))": "cb827e32",
    "recordMint(uint256,uint16[],bool)": "eaa19ab3",
    "recordMintReservesFor(uint256,uint256)": "baa7e80e",
    "recordRemoveTierIds(uint256[])": "20512ba1",
    "recordSetBaseUri(string)": "6262bcb2",
    "recordSetContractUri(string)": "d67b78fd",
    "recordSetDefaultReservedTokenBeneficiary(address)": "17161f7d",
    "recordSetEncodedIPFSUriOf(uint256,bytes32)": "49bd1ac6",
    "recordSetFirstOwnerOf(uint256,address)": "8cec7d39",
    "recordSetTokenUriResolver(address)": "d84a72c0",
    "recordTransferForTier(uint256,address,address)": "c2c55f94",
    "redemptionWeightOf(address,uint256[])": "144cc2d4",
    "reservedTokenBeneficiaryOf(address,uint256)": "136e651c",
    "royaltyInfo(address,uint256,uint256)": "538bd5ea",
    "tierBalanceOf(address,address,uint256)": "37f44652",
    "tierIdOfToken(uint256)": "42f9914b",
    "tierOf(address,uint256)": "4223f60e",
    "tierOfTokenId(address,uint256)": "b67cb047",
    "tierVotingUnitsOf(address,address,uint256)": "2e4d0ea8",
    "tiersOf(address,uint256[],uint256,uint256)": "5aff6200",
    "tokenUriResolverOf(address)": "0fab0947",
    "totalRedemptionWeight(address)": "2ae5e492",
    "totalSupply(address)": "e4dc2aa4",
    "votingUnitsOf(address,address)": "93355578"
  },
  "id": 5
}