{"abi":[{"type":"function","name":"balanceOf","inputs":[{"name":"_nft","type":"address","internalType":"address"},{"name":"_owner","type":"address","internalType":"address"}],"outputs":[{"name":"balance","type":"uint256","internalType":"uint256"}],"stateMutability":"view"},{"type":"function","name":"cleanTiers","inputs":[{"name":"_nft","type":"address","internalType":"address"}],"outputs":[],"stateMutability":"nonpayable"},{"type":"function","name":"defaultReservedTokenBeneficiaryOf","inputs":[{"name":"","type":"address","internalType":"address"}],"outputs":[{"name":"","type":"address","internalType":"address"}],"stateMutability":"view"},{"type":"function","name":"encodedIPFSUriOf","inputs":[{"name":"","type":"address","internalType":"address"},{"name":"","type":"uint256","internalType":"uint256"}],"outputs":[{"name":"","type":"bytes32","internalType":"bytes32"}],"stateMutability":"view"},{"type":"function","name":"encodedTierIPFSUriOf","inputs":[{"name":"_nft","type":"address","internalType":"address"},{"name":"_tokenId","type":"uint256","internalType":"uint256"}],"outputs":[{"name":"","type":"bytes32","internalType":"bytes32"}],"stateMutability":"view"},{"type":"function","name":"flagsOf","inputs":[{"name":"_nft","type":"address","internalType":"address"}],"outputs":[{"name":"","type":"tuple","internalType":"struct JBTiered721Flags","components":[{"name":"lockReservedTokenChanges","type":"bool","internalType":"bool"},{"name":"lockVotingUnitChanges","type":"bool","internalType":"bool"},{"name":"lockManualMintingChanges","type":"bool","internalType":"bool"},{"name":"preventOverspending","type":"bool","internalType":"bool"}]}],"stateMutability":"view"},{"type":"function","name":"isTierRemoved","inputs":[{"name":"_nft","type":"address","internalType":"address"},{"name":"_tierId","type":"uint256","internalType":"uint256"}],"outputs":[{"name":"","type":"bool","internalType":"bool"}],"stateMutability":"view"},{"type":"function","name":"maxTierIdOf","inputs":[{"name":"","type":"address","internalType":"address"}],"outputs":[{"name":"","type":"uint256","internalType":"uint256"}],"stateMutability":"view"},{"type":"function","name":"numberOfBurnedFor","inputs":[{"name":"","type":"address","internalType":"address"},{"name":"","type":"uint256","internalType":"uint256"}],"outputs":[{"name":"","type":"uint256","internalType":"uint256"}],"stateMutability":"view"},{"type":"function","name":"numberOfReservedTokensOutstandingFor","inputs":[{"name":"_nft","type":"address","internalType":"address"},{"name":"_tierId","type":"uint256","internalType":"uint256"}],"outputs":[{"name":"","type":"uint256","internalType":"uint256"}],"stateMutability":"view"},{"type":"function","name":"numberOfReservesMintedFor","inputs":[{"name":"","type":"address","internalType":"address"},{"name":"","type":"uint256","internalType":"uint256"}],"outputs":[{"name":"","type":"uint256","internalType":"uint256"}],"stateMutability":"view"},{"type":"function","name":"recordAddTiers","inputs":[{"name":"_tiersToAdd","type":"tuple[]","internalType":"struct JB721TierParams[]","components":[{"name":"price","type":"uint104","internalType":"uint104"},{"name":"initialQuantity","type":"uint32","internalType":"uint32"},{"name":"votingUnits","type":"uint32","internalType":"uint32"},{"name":"reservedRate","type":"uint16","internalType":"uint16"},{"name":"reservedTokenBeneficiary","type":"address","internalType":"address"},{"name":"encodedIPFSUri","type":"bytes32","internalType":"bytes32"},{"name":"category","type":"uint24","internalType":"uint24"},{"name":"allowManualMint","type":"bool","internalType":"bool"},{"name":"shouldUseReservedTokenBeneficiaryAsDefault","type":"bool","internalType":"bool"},{"name":"transfersPausable","type":"bool","internalType":"bool"},{"name":"useVotingUnits","type":"bool","internalType":"bool"}]}],"outputs":[{"name":"tierIds","type":"uint256[]","internalType":"uint256[]"}],"stateMutability":"nonpayable"},{"type":"function","name":"recordBurn","inputs":[{"name":"_tokenIds","type":"uint256[]","internalType":"uint256[]"}],"outputs":[],"stateMutability":"nonpayable"},{"type":"function","name":"recordFlags","inputs":[{"name":"_flags","type":"tuple","internalType":"struct JBTiered721Flags","components":[{"name":"lockReservedTokenChanges","type":"bool","internalType":"bool"},{"name":"lockVotingUnitChanges","type":"bool","internalType":"bool"},{"name":"lockManualMintingChanges","type":"bool","internalType":"bool"},{"name":"preventOverspending","type":"bool","internalType":"bool"}]}],"outputs":[],"stateMutability":"nonpayable"},{"type":"function","name":"recordMint","inputs":[{"name":"_amount","type":"uint256","internalType":"uint256"},{"name":"_tierIds","type":"uint16[]","internalType":"uint16[]"},{"name":"_isManualMint","type":"bool","internalType":"bool"}],"outputs":[{"name":"tokenIds","type":"uint256[]","internalType":"uint256[]"},{"name":"leftoverAmount","type":"uint256","internalType":"uint256"}],"stateMutability":"nonpayable"},{"type":"function","name":"recordMintReservesFor","inputs":[{"name":"_tierId","type":"uint256","internalType":"uint256"},{"name":"_count","type":"uint256","internalType":"uint256"}],"outputs":[{"name":"tokenIds","type":"uint256[]","internalType":"uint256[]"}],"stateMutability":"nonpayable"},{"type":"function","name":"recordRemoveTierIds","inputs":[{"name":"_tierIds","type":"uint256[]","internalType":"uint256[]"}],"outputs":[],"stateMutability":"nonpayable"},{"type":"function","name":"recordSetEncodedIPFSUriOf","inputs":[{"name":"_tierId","type":"uint256","internalType":"uint256"},{"name":"_encodedIPFSUri","type":"bytes32","internalType":"bytes32"}],"outputs":[],"stateMutability":"nonpayable"},{"type":"function","name":"recordSetTokenUriResolver","inputs":[{"name":"_resolver","type":"address","internalType":"contract IJB721TokenUriResolver"}],"outputs":[],"stateMutability":"nonpayable"},{"type":"function","name":"recordTransferForTier","inputs":[{"name":"_tierId","type":"uint256","internalType":"uint256"},{"name":"_from","type":"address","internalType":"address"},{"name":"_to","type":"address","internalType":"address"}],"outputs":[],"stateMutability":"nonpayable"},{"type":"function","name":"redemptionWeightOf","inputs":[{"name":"_nft","type":"address","internalType":"address"},{"name":"_tokenIds","type":"uint256[]","internalType":"uint256[]"}],"outputs":[{"name":"weight","type":"uint256","internalType":"uint256"}],"stateMutability":"view"},{"type":"function","name":"reservedTokenBeneficiaryOf","inputs":[{"name":"_nft","type":"address","internalType":"address"},{"name":"_tierId","type":"uint256","internalType":"uint256"}],"outputs":[{"name":"","type":"address","internalType":"address"}],"stateMutability":"view"},{"type":"function","name":"tierBalanceOf","inputs":[{"name":"","type":"address","internalType":"address"},{"name":"","type":"address","internalType":"address"},{"name":"","type":"uint256","internalType":"uint256"}],"outputs":[{"name":"","type":"uint256","internalType":"uint256"}],"stateMutability":"view"},{"type":"function","name":"tierIdOfToken","inputs":[{"name":"_tokenId","type":"uint256","internalType":"uint256"}],"outputs":[{"name":"","type":"uint256","internalType":"uint256"}],"stateMutability":"pure"},{"type":"function","name":"tierOf","inputs":[{"name":"_nft","type":"address","internalType":"address"},{"name":"_id","type":"uint256","internalType":"uint256"},{"name":"_includeResolvedUri","type":"bool","internalType":"bool"}],"outputs":[{"name":"","type":"tuple","internalType":"struct JB721Tier","components":[{"name":"id","type":"uint256","internalType":"uint256"},{"name":"price","type":"uint256","internalType":"uint256"},{"name":"remainingQuantity","type":"uint256","internalType":"uint256"},{"name":"initialQuantity","type":"uint256","internalType":"uint256"},{"name":"votingUnits","type":"uint256","internalType":"uint256"},{"name":"reservedRate","type":"uint256","internalType":"uint256"},{"name":"reservedTokenBeneficiary","type":"address","internalType":"address"},{"name":"encodedIPFSUri","type":"bytes32","internalType":"bytes32"},{"name":"category","type":"uint256","internalType":"uint256"},{"name":"allowManualMint","type":"bool","internalType":"bool"},{"name":"transfersPausable","type":"bool","internalType":"bool"},{"name":"resolvedUri","type":"string","internalType":"string"}]}],"stateMutability":"view"},{"type":"function","name":"tierOfTokenId","inputs":[{"name":"_nft","type":"address","internalType":"address"},{"name":"_tokenId","type":"uint256","internalType":"uint256"},{"name":"_includeResolvedUri","type":"bool","internalType":"bool"}],"outputs":[{"name":"","type":"tuple","internalType":"struct JB721Tier","components":[{"name":"id","type":"uint256","internalType":"uint256"},{"name":"price","type":"uint256","internalType":"uint256"},{"name":"remainingQuantity","type":"uint256","internalType":"uint256"},{"name":"initialQuantity","type":"uint256","internalType":"uint256"},{"name":"votingUnits","type":"uint256","internalType":"uint256"},{"name":"reservedRate","type":"uint256","internalType":"uint256"},{"name":"reservedTokenBeneficiary","type":"address","internalType":"address"},{"name":"encodedIPFSUri","type":"bytes32","internalType":"bytes32"},{"name":"category","type":"uint256","internalType":"uint256"},{"name":"allowManualMint","type":"bool","internalType":"bool"},{"name":"transfersPausable","type":"bool","internalType":"bool"},{"name":"resolvedUri","type":"string","internalType":"string"}]}],"stateMutability":"view"},{"type":"function","name":"tierVotingUnitsOf","inputs":[{"name":"_nft","type":"address","internalType":"address"},{"name":"_account","type":"address","internalType":"address"},{"name":"_tierId","type":"uint256","internalType":"uint256"}],"outputs":[{"name":"","type":"uint256","internalType":"uint256"}],"stateMutability":"view"},{"type":"function","name":"tiersOf","inputs":[{"name":"_nft","type":"address","internalType":"address"},{"name":"_categories","type":"uint256[]","internalType":"uint256[]"},{"name":"_includeResolvedUri","type":"bool","internalType":"bool"},{"name":"_startingId","type":"uint256","internalType":"uint256"},{"name":"_size","type":"uint256","internalType":"uint256"}],"outputs":[{"name":"_tiers","type":"tuple[]","internalType":"struct JB721Tier[]","components":[{"name":"id","type":"uint256","internalType":"uint256"},{"name":"price","type":"uint256","internalType":"uint256"},{"name":"remainingQuantity","type":"uint256","internalType":"uint256"},{"name":"initialQuantity","type":"uint256","internalType":"uint256"},{"name":"votingUnits","type":"uint256","internalType":"uint256"},{"name":"reservedRate","type":"uint256","internalType":"uint256"},{"name":"reservedTokenBeneficiary","type":"address","internalType":"address"},{"name":"encodedIPFSUri","type":"bytes32","internalType":"bytes32"},{"name":"category","type":"uint256","internalType":"uint256"},{"name":"allowManualMint","type":"bool","internalType":"bool"},{"name":"transfersPausable","type":"bool","internalType":"bool"},{"name":"resolvedUri","type":"string","internalType":"string"}]}],"stateMutability":"view"},{"type":"function","name":"tokenUriResolverOf","inputs":[{"name":"","type":"address","internalType":"address"}],"outputs":[{"name":"","type":"address","internalType":"contract IJB721TokenUriResolver"}],"stateMutability":"view"},{"type":"function","name":"totalRedemptionWeight","inputs":[{"name":"_nft","type":"address","internalType":"address"}],"outputs":[{"name":"weight","type":"uint256","internalType":"uint256"}],"stateMutability":"view"},{"type":"function","name":"totalSupplyOf","inputs":[{"name":"_nft","type":"address","internalType":"address"}],"outputs":[{"name":"supply","type":"uint256","internalType":"uint256"}],"stateMutability":"view"},{"type":"function","name":"votingUnitsOf","inputs":[{"name":"_nft","type":"address","internalType":"address"},{"name":"_account","type":"address","internalType":"address"}],"outputs":[{"name":"units","type":"uint256","internalType":"uint256"}],"stateMutability":"view"},{"type":"event","name":"CleanTiers","inputs":[{"name":"nft","type":"address","indexed":true,"internalType":"address"},{"name":"caller","type":"address","indexed":false,"internalType":"address"}],"anonymous":false},{"type":"error","name":"CANT_MINT_MANUALLY","inputs":[]},{"type":"error","name":"INSUFFICIENT_AMOUNT","inputs":[]},{"type":"error","name":"INSUFFICIENT_RESERVES","inputs":[]},{"type":"error","name":"INVALID_CATEGORY_SORT_ORDER","inputs":[]},{"type":"error","name":"INVALID_QUANTITY","inputs":[]},{"type":"error","name":"INVALID_TIER","inputs":[]},{"type":"error","name":"MANUAL_MINTING_NOT_ALLOWED","inputs":[]},{"type":"error","name":"MAX_TIERS_EXCEEDED","inputs":[]},{"type":"error","name":"NO_QUANTITY","inputs":[]},{"type":"error","name":"OUT","inputs":[]},{"type":"error","name":"RESERVED_RATE_NOT_ALLOWED","inputs":[]},{"type":"error","name":"TIER_REMOVED","inputs":[]},{"type":"error","name":"VOTING_UNITS_NOT_ALLOWED","inputs":[]}],"bytecode":{"object":"0x608060405234801561001057600080fd5b506131c4806100206000396000f3fe608060405234801561001057600080fd5b50600436106101f05760003560e01c806386bc2be31161010f578063c44a8e6d116100a2578063d84a72c011610071578063d84a72c0146105d6578063eaa19ab314610613578063f1bea54f14610634578063f7888aec1461065457600080fd5b8063c44a8e6d1461058a578063c8df17101461059d578063cb827e32146105b0578063cf9530d0146105c357600080fd5b80639403a74f116100de5780639403a74f14610519578063baa7e80e14610539578063bd51923c1461054c578063c2c55f941461057757600080fd5b806386bc2be3146104aa5780638da5e32b146104bd578063911c80b5146104dd578063933555781461050657600080fd5b806335314b92116101875780635f646611116101565780635f6466111461036c57806364faa1591461038f5780636825bb80146103af578063845104de146103da57600080fd5b806335314b92146102e857806337f44652146102fb57806342f9914b1461032c57806349bd1ac61461033f57600080fd5b806320512ba1116101c357806320512ba1146102845780632ae5e492146102975780632b7e6ef0146102aa5780632e4d0ea8146102d557600080fd5b8063086bb19a146101f55780630fab09471461020a578063136e651c14610250578063144cc2d414610263575b600080fd5b6102086102033660046127a8565b610667565b005b6102336102183660046127a8565b600c602052600090815260409020546001600160a01b031681565b6040516001600160a01b0390911681526020015b60405180910390f35b61023361025e3660046127c5565b6107bf565b61027661027136600461283d565b610818565b604051908152602001610247565b610208610292366004612892565b610896565b6102766102a53660046127a8565b6108eb565b6102766102b83660046127c5565b600a60209081526000928352604080842090915290825290205481565b6102766102e33660046128d4565b610a2f565b6102766102f63660046127c5565b610ab7565b6102766103093660046128d4565b600860209081526000938452604080852082529284528284209052825290205481565b61027661033a366004612915565b610b68565b61020861034d36600461292e565b336000908152600d602090815260408083209483529390529190912055565b61037f61037a3660046127c5565b610b78565b6040519015158152602001610247565b6103a261039d366004612969565b610bb0565b6040516102479190612a99565b6102766103bd3660046127c5565b600960209081526000928352604080842090915290825290205481565b61046f6103e83660046127a8565b604080516080810182526000808252602082018190529181018290526060810191909152506001600160a01b03166000908152600360209081526040918290208251608081018452905460ff808216151583526101008204811615159383019390935262010000810483161515938201939093526301000000909204161515606082015290565b604051610247919081511515815260208083015115159082015260408083015115159082015260609182015115159181019190915260800190565b6102086104b8366004612892565b610c6a565b6104d06104cb366004612aac565b610d2b565b6040516102479190612b5e565b6102336104eb3660046127a8565b600b602052600090815260409020546001600160a01b031681565b610276610514366004612b71565b611508565b61052c610527366004612baa565b61167f565b6040516102479190612c24565b6104d061054736600461292e565b6118f7565b61027661055a3660046127c5565b600d60209081526000928352604080842090915290825290205481565b610208610585366004612c88565b611afe565b6103a2610598366004612969565b611b92565b6102766105ab3660046127c5565b611c5a565b6102086105be366004612cbf565b611c93565b6102766105d13660046127a8565b611cae565b6102086105e43660046127a8565b336000908152600c6020526040902080546001600160a01b0319166001600160a01b0392909216919091179055565b610626610621366004612cd7565b611d9f565b604051610247929190612d36565b6102766106423660046127a8565b60076020526000908152604090205481565b610276610662366004612b71565b612079565b6000610672826120e5565b90506000610681836000612126565b905060006106a2604051806040016040528060008152602001600081525090565b821561077a576106b385848361218d565b610768576106c2826001612d6e565b831461071a576001600160a01b0385166000908152602081815260408083208584529091529020548314610715576001600160a01b03851660009081526020818152604080832085845290915290208390555b610764565b6001600160a01b03851660009081526020818152604080832085845290915290205415610764576001600160a01b0385166000908152602081815260408083208584529091528120555b8291505b6107738584866121e4565b92506106a2565b6040513381526001600160a01b038616907f4a0f854ce3c180d56f3e9eb47eb064c595bf3de0ab9af45425291e5b1bb733a89060200160405180910390a25050505050565b6001600160a01b03808316600090815260016020908152604080832085845290915281205490911680156107f4579050610812565b50506001600160a01b038083166000908152600b6020526040902054165b92915050565b600081815b8181101561088d576001600160a01b03861660009081526002602052604081209061085f87878581811061085357610853612d81565b90506020020135610b68565b8152602081019190915260400160002054610883906001600160681b031684612d6e565b925060010161081d565b50509392505050565b806000805b828110156108e4578484828181106108b5576108b5612d81565b3360009081526004602090815260409091209102929092013593506108dc9190508361222f565b60010161089b565b5050505050565b6001600160a01b03811660009081526007602052604081205461090c61267c565b60005b82811015610a27576001600160a01b03851660009081526002602090815260408083206001858101855290835292819020815160e08101835290546001600160681b0381168252600160681b810463ffffffff90811694830194909452600160881b810490931691810191909152600160a81b820464ffffffffff166060820152600160d01b820462ffffff166080820152600160e81b820461ffff1660a0820152600160f81b90910460ff1660c082015292506109da9086906109d4908490612d6e565b84612268565b826020015183604001516109ee9190612d97565b63ffffffff166109fe9190612d6e565b8251610a1391906001600160681b0316612dbb565b610a1d9085612d6e565b935060010161090f565b505050919050565b6001600160a01b0380841660009081526008602090815260408083209386168352928152828220848352905290812054808203610a70576000915050610ab0565b6001600160a01b0385166000908152600260209081526040808320868452909152902054610aac90600160a81b900464ffffffffff1682612dbb565b9150505b9392505050565b6001600160a01b03821660009081526002602090815260408083208484528252808320815160e08101835290546001600160681b0381168252600160681b810463ffffffff90811694830194909452600160881b810490931691810191909152600160a81b820464ffffffffff166060820152600160d01b820462ffffff166080820152600160e81b820461ffff1660a0820152600160f81b90910460ff1660c0820152610ab09084908490612268565b6000610812633b9aca0083612de8565b6001600160a01b03821660009081526004602052604081208190610b9c90846123d0565b9050610ba88184612416565b949350505050565b610bb86126b8565b6001600160a01b0384166000908152600260209081526040808320868452825291829020825160e08101845290546001600160681b038116825263ffffffff600160681b8204811693830193909352600160881b81049092169281019290925264ffffffffff600160a81b820416606083015262ffffff600160d01b820416608083015261ffff600160e81b82041660a083015260ff600160f81b9091041660c0820152610ba8908590859085612435565b806000805b828110156108e457848482818110610c8957610c89612d81565b9050602002013591506000610c9d83610b68565b336000908152600a602090815260408083208484529091528120805492935090610cc683612dfc565b909155505033600090815260026020908152604080832084845290915290208054600160681b900463ffffffff1690600d610d0083612e15565b91906101000a81548163ffffffff021916908363ffffffff1602179055505081600101915050610c6f565b33600090815260076020526040902054606090829061ffff610d4d8383612d6e565b1115610d6c57604051631bc68c8b60e11b815260040160405180910390fd5b6000610d77336120e5565b90508267ffffffffffffffff811115610d9257610d92612e38565b604051908082528060200260200182016040528015610dbb578160200160208202803683370190505b50935060008215610dd657610dd1336000612126565b610dd9565b60005b90506000610de5612729565b3360009081526003602090815260408083208151608081018352905460ff80821615158352610100820481161515948301949094526201000081048416151592820192909252630100000090910490911615156060820152905b878110156114df578a8a82818110610e5957610e59612d81565b90506101600201803603810190610e709190612ec8565b9250610e816001633b9aca00612f9b565b836020015163ffffffff161115610eab576040516349016ea360e01b815260040160405180910390fd5b610eb3612729565b8115610f21578b8b610ec6600185612f9b565b818110610ed557610ed5612d81565b90506101600201803603810190610eec9190612ec8565b90508060c0015162ffffff168460c0015162ffffff161015610f2157604051631cabebd560e21b815260040160405180910390fd5b82602001518015610f6a57508361014001518015610f485750604084015163ffffffff1615155b80610f6a5750836101400151158015610f6a575083516001600160681b031615155b15610f8857604051630189200360e11b815260040160405180910390fd5b825180610f9657508360e001515b8015610fa95750606084015161ffff1615155b15610fc75760405163a75b1cd560e01b815260040160405180910390fd5b82604001518015610fd957508360e001515b15610ff7576040516330ec637f60e01b815260040160405180910390fd5b836020015163ffffffff1660000361102257604051631e0a863160e31b815260040160405180910390fd5b600061102e838a612d6e565b611039906001612d6e565b90506040518060e0016040528086600001516001600160681b03168152602001866020015163ffffffff168152602001866020015163ffffffff168152602001866040015163ffffffff1664ffffffffff1681526020018660c0015162ffffff168152602001866060015161ffff1681526020016110d18760e0015188610120015189610140015160021b60019190911b9091171790565b60ff9081169091523360009081526002602090815260408083208684528252918290208451815492860151938601516060870151608088015160a089015160c0998a01516001600160681b0390951670ffffffffffffffffffffffffffffffffff1990971696909617600160681b63ffffffff988916021768ffffffffffffffffff60881b1916600160881b979093169690960264ffffffffff60a81b191691909117600160a81b64ffffffffff909216919091021764ffffffffff60d01b1916600160d01b62ffffff9586160261ffff60e81b191617600160e81b61ffff90941693909302929092176001600160f81b0316600160f81b92909416919091029290921790915586820151918401519181169116148015906111fb575060c085015162ffffff1615155b156112275733600090815260066020908152604080832060c089015162ffffff16845290915290208190555b60808501516001600160a01b0316156112e057846101000151156112a3576080850151336000908152600b60205260409020546001600160a01b0390811691161461129e576080850151336000908152600b6020526040902080546001600160a01b0319166001600160a01b039092169190911790555b6112e0565b6080850151336000908152600160209081526040808320858452909152902080546001600160a01b0319166001600160a01b039092169190911790555b60a08501511561130b5760a0850151336000908152600d602090815260408083208584529091529020555b86156114b7578660005b81156114b45761132633838c6121e4565b33600090815260026020908152604080832086845290915290205460c089015191925062ffffff600160d01b909104811691161180159061136757508a8211155b1561143a57611377836001612d6e565b8214611399573360009081526020818152604080832086845290915290208290555b336000908152600560205260409020548a146113c2573360009081526005602052604090208a90555b6113cd600184612f9b565b881415806113f25750336000908152602081815260408083208b845290915290205415155b1561142b57611402600184612f9b565b881461140e5782611411565b60005b336000908152602081815260408083208c84529091529020555b81985082975060009150611315565b80158061144657508a81115b156114ab57611456826001612d6e565b8314611478573360009081526020818152604080832085845290915290208390555b336000908152600560205260408120549399508993909250156114a657336000908152600560205260408120555b611315565b90965080611315565b50505b808b84815181106114ca576114ca612d81565b60209081029190910101525050600101610e3f565b506114ea8787612d6e565b33600090815260076020526040902055509598975050505050505050565b6001600160a01b0382166000908152600760205260408120548161152a61267c565b825b8015611675576001600160a01b038088166000908152600860209081526040808320938a168352928152828220848352905220549250821561160f576001600160a01b0387166000908152600260209081526040808320848452825291829020825160e08101845290546001600160681b038116825263ffffffff600160681b8204811693830193909352600160881b81049092169281019290925264ffffffffff600160a81b820416606083015262ffffff600160d01b820416608083015261ffff600160e81b82041660a083015260ff600160f81b9091041660c082015291505b600061162f8360c001516001811615159160028216151591600416151590565b925050508061163f57825161164c565b826060015164ffffffffff165b61165f906001600160681b031685612dbb565b6116699087612d6e565b9550506000190161152c565b5050505092915050565b6060600061168c886120e5565b90508060000361169c57506118ed565b8267ffffffffffffffff8111156116b5576116b5612e38565b6040519080825280602002602001820160405280156116ee57816020015b6116db6126b8565b8152602001906001900390816116d35790505b50915060006116fb61267c565b604080518082019091526000808252602082015260005b8387146118dc57600088600003611757576117528d8c1561174b578d8d8581811061173f5761173f612d81565b90506020020135612126565b6000612126565b611759565b885b90505b801580159061176a57508785105b156118d05761177a8d828561218d565b6118be576001600160a01b038d166000908152600260209081526040808320848452825291829020825160e08101845290546001600160681b038116825263ffffffff600160681b8204811693830193909352600160881b81049092169281019290925264ffffffffff600160a81b820416606083015262ffffff600160d01b820416608083015261ffff600160e81b82041660a083015260ff600160f81b9091041660c082015293508a1580159061185357508b8b8381811061184057611840612d81565b90506020020135846080015162ffffff16115b6118d0578a158061188457508b8b8381811061187157611871612d81565b90506020020135846080015162ffffff16145b156118be576118958d82868d612435565b87866118a081612dfc565b9750815181106118b2576118b2612d81565b60200260200101819052505b6118c98d82886121e4565b905061175c565b50600101898110611712575b8684146118e7578386525b50505050505b9695505050505050565b3360008181526002602090815260408083208684528252808320815160e08101835281546001600160681b0381168252600160681b810463ffffffff90811695830195909552600160881b810490941692810192909252600160a81b830464ffffffffff16606080840191909152600160d01b840462ffffff166080840152600160e81b840461ffff1660a0840152600160f81b90930460ff1660c083015291939192916119a6918790612268565b9050808411156119c95760405163226f999960e11b815260040160405180910390fd5b336000908152600960209081526040808320888452909152812080548692906119f3908490612d6e565b9091555084905067ffffffffffffffff811115611a1257611a12612e38565b604051908082528060200260200182016040528015611a3b578160200160208202803683370190505b50336000908152600a602090815260408083208984529091528120549194505b8581101561167557611ad9878386600001600d81819054906101000a900463ffffffff16611a8890612fae565b91906101000a81548163ffffffff021916908363ffffffff16021790558760000160119054906101000a900463ffffffff16611ac49190612d97565b63ffffffff16611ad49190612d6e565b612647565b858281518110611aeb57611aeb612d81565b6020908102919091010152600101611a5b565b6001600160a01b03821615611b4b573360009081526008602090815260408083206001600160a01b0386168452825280832086845290915281208054909190611b4690612fce565b909155505b6001600160a01b03811615611b8d573360009081526008602090815260408083206001600160a01b038516845282528083208684529091529020805460010190555b505050565b611b9a6126b8565b6000611ba584610b68565b6001600160a01b0386166000908152600260209081526040808320848452825291829020825160e08101845290546001600160681b038116825263ffffffff600160681b8204811693830193909352600160881b81049092169281019290925264ffffffffff600160a81b820416606083015262ffffff600160d01b820416608083015261ffff600160e81b82041660a083015260ff600160f81b9091041660c0820152909150610aac908690839086612435565b6001600160a01b0382166000908152600d6020526040812081611c7c84610b68565b815260200190815260200160002054905092915050565b3360009081526003602052604090208190611b8d8282612ff2565b6000611cb861267c565b6001600160a01b038316600090815260076020526040902054805b8015610a27576001600160a01b0385166000908152600260209081526040808320848452825291829020825160e08101845290546001600160681b038116825263ffffffff600160681b82048116938301849052600160881b82041693820184905264ffffffffff600160a81b820416606083015262ffffff600160d01b820416608083015261ffff600160e81b82041660a083015260ff600160f81b9091041660c08201529450611d8491612d97565b611d949063ffffffff1685612d6e565b935060001901611cd3565b606084836000808267ffffffffffffffff811115611dbf57611dbf612e38565b604051908082528060200260200182016040528015611de8578160200160208202803683370190505b509450611e08604051806040016040528060008152602001600081525090565b60005b8481101561206b57898982818110611e2557611e25612d81565b9050602002016020810190611e3a919061308f565b61ffff169250611e4b33848461218d565b15611e695760405163d32cb5c160e01b815260040160405180910390fd5b33600090815260026020908152604080832086845290915290208054909450600160f81b90046001161515888015611e9f575080155b15611ebd57604051632f792d3960e11b815260040160405180910390fd5b8454600160881b900463ffffffff16600003611eec57604051630de5859f60e01b815260040160405180910390fd5b84546001600160681b0316871015611f1757604051632cd294cf60e01b815260040160405180910390fd5b6040805160e08101825286546001600160681b0381168252600160681b810463ffffffff9081166020840152600160881b82041692820192909252600160a81b820464ffffffffff166060820152600160d01b820462ffffff166080820152600160e81b820461ffff1660a0820152600160f81b90910460ff1660c0820152611fa39033908690612268565b8554600160681b900463ffffffff1611611fd05760405163985a45d960e01b815260040160405180910390fd5b336000908152600a60209081526040808320878452909152902054855460001963ffffffff600160681b808404821692830182160263ffffffff60681b1990931692909217808955612036938893600160881b9092048216929092036001011601612647565b88838151811061204857612048612d81565b60209081029190910101525083546001600160681b031690950394600101611e0b565b505050505094509492505050565b6001600160a01b038216600090815260076020526040812054805b80156120dd576001600160a01b0380861660009081526008602090815260408083209388168352928152828220848352905220546120d29084612d6e565b925060001901612094565b505092915050565b6001600160a01b0381166000908152600560205260408120549081900361212157506001600160a01b0381166000908152600760205260409020545b919050565b60008115612157576001600160a01b038316600090815260066020908152604080832085845290915290205461217a565b6001600160a01b0383166000908152602081815260408083208380529091529020545b9050806000036108125750600192915050565b60006121998284612662565b806121b0575081511580156121b057506020820151155b156121da576001600160a01b03841660009081526004602052604090206121d790846123d0565b91505b610ba88284612416565b60008183036121f557506000610ab0565b6001600160a01b0384166000908152602081815260408083208684529091529020548015612224579050610ab0565b610aac846001612d6e565b600061223b8260081c90565b9050612249610100836130aa565b6000918252602093909352604090208054600190931b90921790915550565b60008160a0015161ffff16600014806122945750816020015163ffffffff16826040015163ffffffff16145b806122b1575060006122a685856107bf565b6001600160a01b0316145b156122be57506000610ab0565b6001600160a01b0384166000908152600960209081526040808320868452825291829020549084015191840151909163ffffffff9081169161230291849116612f9b565b03612311576000915050610ab0565b600081846020015185604001510363ffffffff1603905060008460a0015161ffff168261233e9190612de8565b905060008560a0015161ffff168361235691906130aa565b11156123685761236581612dfc565b90505b846040015163ffffffff16818660a0015161ffff16876040015161238c91906130be565b63ffffffff1661239c9190612d6e565b11156123af5750602084015163ffffffff165b808311156123c35760009350505050610ab0565b9190910395945050505050565b604080518082019091526000808252602082015260006123f08360081c90565b604080518082018252600083815260209788529190912054815294850152509192915050565b6000612424610100836130aa565b83516001911c811614905092915050565b61243d6126b8565b600061244986866107bf565b9050600080600061246e8760c001516001811615159160028216151591600416151590565b92509250925060405180610180016040528089815260200188600001516001600160681b03168152602001886020015163ffffffff168152602001886040015163ffffffff168152602001826124c55788516124d2565b886060015164ffffffffff165b6001600160681b031681526020016001600160a01b038616156124f9578860a001516124fc565b60005b61ffff1681526001600160a01b03808716602080840191909152908c166000908152600d825260408082208d835290925281902054908201526080808a015162ffffff1660608301528515159082015283151560a082015260c00187158061257c57506001600160a01b038b81166000908152600c602052604090205416155b612627576001600160a01b03808c166000908152600c602052604081205490911690635e703e71908d906125b1908e90612647565b6040516001600160e01b031960e085901b1681526001600160a01b0390921660048301526024820152604401600060405180830381865afa1580156125fa573d6000803e3d6000fd5b505050506040513d6000823e601f3d908101601f1916820160405261262291908101906130e1565b612638565b604051806020016040528060008152505b90529998505050505050505050565b600081612658633b9aca0085612dbb565b610ab09190612d6e565b600082602001516126738360081c90565b14159392505050565b6040805160e081018252600080825260208201819052918101829052606081018290526080810182905260a0810182905260c081019190915290565b60405180610180016040528060008152602001600081526020016000815260200160008152602001600081526020016000815260200160006001600160a01b031681526020016000801916815260200160008152602001600015158152602001600015158152602001606081525090565b6040805161016081018252600080825260208201819052918101829052606081018290526080810182905260a0810182905260c0810182905260e081018290526101008101829052610120810182905261014081019190915290565b6001600160a01b038116811461279a57600080fd5b50565b803561212181612785565b6000602082840312156127ba57600080fd5b8135610ab081612785565b600080604083850312156127d857600080fd5b82356127e381612785565b946020939093013593505050565b60008083601f84011261280357600080fd5b50813567ffffffffffffffff81111561281b57600080fd5b6020830191508360208260051b850101111561283657600080fd5b9250929050565b60008060006040848603121561285257600080fd5b833561285d81612785565b9250602084013567ffffffffffffffff81111561287957600080fd5b612885868287016127f1565b9497909650939450505050565b600080602083850312156128a557600080fd5b823567ffffffffffffffff8111156128bc57600080fd5b6128c8858286016127f1565b90969095509350505050565b6000806000606084860312156128e957600080fd5b83356128f481612785565b9250602084013561290481612785565b929592945050506040919091013590565b60006020828403121561292757600080fd5b5035919050565b6000806040838503121561294157600080fd5b50508035926020909101359150565b801515811461279a57600080fd5b803561212181612950565b60008060006060848603121561297e57600080fd5b833561298981612785565b92506020840135915060408401356129a081612950565b809150509250925092565b60005b838110156129c65781810151838201526020016129ae565b50506000910152565b600081518084526129e78160208601602086016129ab565b601f01601f19169290920160200192915050565b6000610180825184526020830151602085015260408301516040850152606083015160608501526080830151608085015260a083015160a085015260c0830151612a5060c08601826001600160a01b03169052565b5060e0838101519085015261010080840151908501526101208084015115159085015261014080840151151590850152610160808401518186018390526118ed838701826129cf565b602081526000610ab060208301846129fb565b60008060208385031215612abf57600080fd5b823567ffffffffffffffff80821115612ad757600080fd5b818501915085601f830112612aeb57600080fd5b813581811115612afa57600080fd5b86602061016083028501011115612b1057600080fd5b60209290920196919550909350505050565b60008151808452602080850194506020840160005b83811015612b5357815187529582019590820190600101612b37565b509495945050505050565b602081526000610ab06020830184612b22565b60008060408385031215612b8457600080fd5b8235612b8f81612785565b91506020830135612b9f81612785565b809150509250929050565b60008060008060008060a08789031215612bc357600080fd5b8635612bce81612785565b9550602087013567ffffffffffffffff811115612bea57600080fd5b612bf689828a016127f1565b9096509450506040870135612c0a81612950565b959894975092956060810135946080909101359350915050565b600060208083016020845280855180835260408601915060408160051b87010192506020870160005b82811015612c7b57603f19888603018452612c698583516129fb565b94509285019290850190600101612c4d565b5092979650505050505050565b600080600060608486031215612c9d57600080fd5b833592506020840135612caf81612785565b915060408401356129a081612785565b600060808284031215612cd157600080fd5b50919050565b60008060008060608587031215612ced57600080fd5b84359350602085013567ffffffffffffffff811115612d0b57600080fd5b612d17878288016127f1565b9094509250506040850135612d2b81612950565b939692955090935050565b604081526000612d496040830185612b22565b90508260208301529392505050565b634e487b7160e01b600052601160045260246000fd5b8082018082111561081257610812612d58565b634e487b7160e01b600052603260045260246000fd5b63ffffffff828116828216039080821115612db457612db4612d58565b5092915050565b808202811582820484141761081257610812612d58565b634e487b7160e01b600052601260045260246000fd5b600082612df757612df7612dd2565b500490565b600060018201612e0e57612e0e612d58565b5060010190565b600063ffffffff808316818103612e2e57612e2e612d58565b6001019392505050565b634e487b7160e01b600052604160045260246000fd5b604051610160810167ffffffffffffffff81118282101715612e7257612e72612e38565b60405290565b80356001600160681b038116811461212157600080fd5b803563ffffffff8116811461212157600080fd5b803561ffff8116811461212157600080fd5b803562ffffff8116811461212157600080fd5b60006101608284031215612edb57600080fd5b612ee3612e4e565b612eec83612e78565b8152612efa60208401612e8f565b6020820152612f0b60408401612e8f565b6040820152612f1c60608401612ea3565b6060820152612f2d6080840161279d565b608082015260a083013560a0820152612f4860c08401612eb5565b60c0820152612f5960e0840161295e565b60e0820152610100612f6c81850161295e565b90820152610120612f7e84820161295e565b90820152610140612f9084820161295e565b908201529392505050565b8181038181111561081257610812612d58565b600063ffffffff821680612fc457612fc4612d58565b6000190192915050565b600081612fdd57612fdd612d58565b506000190190565b6000813561081281612950565b8135612ffd81612950565b815460ff19811691151560ff169182178355602084013561301d81612950565b61ff0090151560081b1661ffff198216831781178455604085013561304181612950565b62ff000081151560101b168462ffffff1985161783171785555050505061308b61306d60608401612fe5565b82805463ff000000191691151560181b63ff00000016919091179055565b5050565b6000602082840312156130a157600080fd5b610ab082612ea3565b6000826130b9576130b9612dd2565b500690565b600063ffffffff808416806130d5576130d5612dd2565b92169190910692915050565b6000602082840312156130f357600080fd5b815167ffffffffffffffff8082111561310b57600080fd5b818401915084601f83011261311f57600080fd5b81518181111561313157613131612e38565b604051601f8201601f19908116603f0116810190838211818310171561315957613159612e38565b8160405282815287602084870101111561317257600080fd5b6131838360208301602088016129ab565b97965050505050505056fea264697066735822122003ce823ae89534c4ac83520a7551796dcef6da2792c75897200a5361be1b5afb64736f6c63430008170033","linkReferences":{}},"methodIdentifiers":{"balanceOf(address,address)":"f7888aec","cleanTiers(address)":"086bb19a","defaultReservedTokenBeneficiaryOf(address)":"911c80b5","encodedIPFSUriOf(address,uint256)":"bd51923c","encodedTierIPFSUriOf(address,uint256)":"c8df1710","flagsOf(address)":"845104de","isTierRemoved(address,uint256)":"5f646611","maxTierIdOf(address)":"f1bea54f","numberOfBurnedFor(address,uint256)":"2b7e6ef0","numberOfReservedTokensOutstandingFor(address,uint256)":"35314b92","numberOfReservesMintedFor(address,uint256)":"6825bb80","recordAddTiers((uint104,uint32,uint32,uint16,address,bytes32,uint24,bool,bool,bool,bool)[])":"8da5e32b","recordBurn(uint256[])":"86bc2be3","recordFlags((bool,bool,bool,bool))":"cb827e32","recordMint(uint256,uint16[],bool)":"eaa19ab3","recordMintReservesFor(uint256,uint256)":"baa7e80e","recordRemoveTierIds(uint256[])":"20512ba1","recordSetEncodedIPFSUriOf(uint256,bytes32)":"49bd1ac6","recordSetTokenUriResolver(address)":"d84a72c0","recordTransferForTier(uint256,address,address)":"c2c55f94","redemptionWeightOf(address,uint256[])":"144cc2d4","reservedTokenBeneficiaryOf(address,uint256)":"136e651c","tierBalanceOf(address,address,uint256)":"37f44652","tierIdOfToken(uint256)":"42f9914b","tierOf(address,uint256,bool)":"64faa159","tierOfTokenId(address,uint256,bool)":"c44a8e6d","tierVotingUnitsOf(address,address,uint256)":"2e4d0ea8","tiersOf(address,uint256[],bool,uint256,uint256)":"9403a74f","tokenUriResolverOf(address)":"0fab0947","totalRedemptionWeight(address)":"2ae5e492","totalSupplyOf(address)":"cf9530d0","votingUnitsOf(address,address)":"93355578"},"id":3}