{
  "abi": [
    {
      "inputs": [],
      "name": "INSUFFICIENT_AMOUNT",
      "type": "error"
    },
    {
      "inputs": [],
      "name": "INSUFFICIENT_RESERVES",
      "type": "error"
    },
    {
      "inputs": [],
      "name": "INVALID_PRICE_SORT_ORDER",
      "type": "error"
    },
    {
      "inputs": [],
      "name": "INVALID_TIER",
      "type": "error"
    },
    {
      "inputs": [],
      "name": "NO_QUANTITY",
      "type": "error"
    },
    {
      "inputs": [],
      "name": "OUT",
      "type": "error"
    },
    {
      "inputs": [],
      "name": "RESERVED_RATE_NOT_ALLOWED",
      "type": "error"
    },
    {
      "inputs": [],
      "name": "TIER_LOCKED",
      "type": "error"
    },
    {
      "inputs": [],
      "name": "TIER_REMOVED",
      "type": "error"
    },
    {
      "inputs": [],
      "name": "VOTING_UNITS_NOT_ALLOWED",
      "type": "error"
    },
    {
      "anonymous": false,
      "inputs": [
        {
          "indexed": true,
          "internalType": "address",
          "name": "nft",
          "type": "address"
        },
        {
          "indexed": false,
          "internalType": "address",
          "name": "caller",
          "type": "address"
        }
      ],
      "name": "CleanTiers",
      "type": "event"
    },
    {
      "inputs": [
        {
          "internalType": "address",
          "name": "_nft",
          "type": "address"
        },
        {
          "internalType": "address",
          "name": "_owner",
          "type": "address"
        }
      ],
      "name": "balanceOf",
      "outputs": [
        {
          "internalType": "uint256",
          "name": "balance",
          "type": "uint256"
        }
      ],
      "stateMutability": "view",
      "type": "function"
    },
    {
      "inputs": [
        {
          "internalType": "address",
          "name": "",
          "type": "address"
        }
      ],
      "name": "baseUriOf",
      "outputs": [
        {
          "internalType": "string",
          "name": "",
          "type": "string"
        }
      ],
      "stateMutability": "view",
      "type": "function"
    },
    {
      "inputs": [
        {
          "internalType": "address",
          "name": "_nft",
          "type": "address"
        }
      ],
      "name": "cleanTiers",
      "outputs": [],
      "stateMutability": "nonpayable",
      "type": "function"
    },
    {
      "inputs": [
        {
          "internalType": "address",
          "name": "",
          "type": "address"
        }
      ],
      "name": "contractUriOf",
      "outputs": [
        {
          "internalType": "string",
          "name": "",
          "type": "string"
        }
      ],
      "stateMutability": "view",
      "type": "function"
    },
    {
      "inputs": [
        {
          "internalType": "address",
          "name": "",
          "type": "address"
        }
      ],
      "name": "defaultReservedTokenBeneficiaryOf",
      "outputs": [
        {
          "internalType": "address",
          "name": "",
          "type": "address"
        }
      ],
      "stateMutability": "view",
      "type": "function"
    },
    {
      "inputs": [
        {
          "internalType": "address",
          "name": "",
          "type": "address"
        },
        {
          "internalType": "uint256",
          "name": "",
          "type": "uint256"
        }
      ],
      "name": "encodedIPFSUriOf",
      "outputs": [
        {
          "internalType": "bytes32",
          "name": "",
          "type": "bytes32"
        }
      ],
      "stateMutability": "view",
      "type": "function"
    },
    {
      "inputs": [
        {
          "internalType": "address",
          "name": "_nft",
          "type": "address"
        },
        {
          "internalType": "uint256",
          "name": "_tokenId",
          "type": "uint256"
        }
      ],
      "name": "encodedTierIPFSUriOf",
      "outputs": [
        {
          "internalType": "bytes32",
          "name": "",
          "type": "bytes32"
        }
      ],
      "stateMutability": "view",
      "type": "function"
    },
    {
      "inputs": [
        {
          "internalType": "address",
          "name": "",
          "type": "address"
        },
        {
          "internalType": "uint256",
          "name": "",
          "type": "uint256"
        }
      ],
      "name": "firstOwnerOf",
      "outputs": [
        {
          "internalType": "address",
          "name": "",
          "type": "address"
        }
      ],
      "stateMutability": "view",
      "type": "function"
    },
    {
      "inputs": [
        {
          "internalType": "address",
          "name": "",
          "type": "address"
        },
        {
          "internalType": "uint256",
          "name": "",
          "type": "uint256"
        }
      ],
      "name": "isTierRemoved",
      "outputs": [
        {
          "internalType": "bool",
          "name": "",
          "type": "bool"
        }
      ],
      "stateMutability": "view",
      "type": "function"
    },
    {
      "inputs": [
        {
          "internalType": "address",
          "name": "",
          "type": "address"
        }
      ],
      "name": "lockPricingResolverChangesFor",
      "outputs": [
        {
          "internalType": "bool",
          "name": "",
          "type": "bool"
        }
      ],
      "stateMutability": "view",
      "type": "function"
    },
    {
      "inputs": [
        {
          "internalType": "address",
          "name": "",
          "type": "address"
        }
      ],
      "name": "lockReservedTokenChangesFor",
      "outputs": [
        {
          "internalType": "bool",
          "name": "",
          "type": "bool"
        }
      ],
      "stateMutability": "view",
      "type": "function"
    },
    {
      "inputs": [
        {
          "internalType": "address",
          "name": "",
          "type": "address"
        }
      ],
      "name": "lockVotingUnitChangesFor",
      "outputs": [
        {
          "internalType": "bool",
          "name": "",
          "type": "bool"
        }
      ],
      "stateMutability": "view",
      "type": "function"
    },
    {
      "inputs": [
        {
          "internalType": "address",
          "name": "",
          "type": "address"
        }
      ],
      "name": "maxTierId",
      "outputs": [
        {
          "internalType": "uint256",
          "name": "",
          "type": "uint256"
        }
      ],
      "stateMutability": "view",
      "type": "function"
    },
    {
      "inputs": [
        {
          "internalType": "address",
          "name": "",
          "type": "address"
        },
        {
          "internalType": "uint256",
          "name": "",
          "type": "uint256"
        }
      ],
      "name": "numberOfBurnedFor",
      "outputs": [
        {
          "internalType": "uint256",
          "name": "",
          "type": "uint256"
        }
      ],
      "stateMutability": "view",
      "type": "function"
    },
    {
      "inputs": [
        {
          "internalType": "address",
          "name": "_nft",
          "type": "address"
        },
        {
          "internalType": "uint256",
          "name": "_tierId",
          "type": "uint256"
        }
      ],
      "name": "numberOfReservedTokensOutstandingFor",
      "outputs": [
        {
          "internalType": "uint256",
          "name": "",
          "type": "uint256"
        }
      ],
      "stateMutability": "view",
      "type": "function"
    },
    {
      "inputs": [
        {
          "internalType": "address",
          "name": "",
          "type": "address"
        },
        {
          "internalType": "uint256",
          "name": "",
          "type": "uint256"
        }
      ],
      "name": "numberOfReservesMintedFor",
      "outputs": [
        {
          "internalType": "uint256",
          "name": "",
          "type": "uint256"
        }
      ],
      "stateMutability": "view",
      "type": "function"
    },
    {
      "inputs": [
        {
          "components": [
            {
              "internalType": "uint256",
              "name": "contributionFloor",
              "type": "uint256"
            },
            {
              "internalType": "uint256",
              "name": "lockedUntil",
              "type": "uint256"
            },
            {
              "internalType": "uint256",
              "name": "initialQuantity",
              "type": "uint256"
            },
            {
              "internalType": "uint256",
              "name": "votingUnits",
              "type": "uint256"
            },
            {
              "internalType": "uint256",
              "name": "reservedRate",
              "type": "uint256"
            },
            {
              "internalType": "address",
              "name": "reservedTokenBeneficiary",
              "type": "address"
            },
            {
              "internalType": "bytes32",
              "name": "encodedIPFSUri",
              "type": "bytes32"
            },
            {
              "internalType": "bool",
              "name": "shouldUseBeneficiaryAsDefault",
              "type": "bool"
            }
          ],
          "internalType": "struct JB721TierParams[]",
          "name": "_tiersToAdd",
          "type": "tuple[]"
        }
      ],
      "name": "recordAddTiers",
      "outputs": [
        {
          "internalType": "uint256[]",
          "name": "tierIds",
          "type": "uint256[]"
        }
      ],
      "stateMutability": "nonpayable",
      "type": "function"
    },
    {
      "inputs": [
        {
          "internalType": "uint256[]",
          "name": "_tokenIds",
          "type": "uint256[]"
        }
      ],
      "name": "recordBurn",
      "outputs": [],
      "stateMutability": "nonpayable",
      "type": "function"
    },
    {
      "inputs": [
        {
          "internalType": "bool",
          "name": "_flag",
          "type": "bool"
        }
      ],
      "name": "recordLockPricingResolverChanges",
      "outputs": [],
      "stateMutability": "nonpayable",
      "type": "function"
    },
    {
      "inputs": [
        {
          "internalType": "bool",
          "name": "_flag",
          "type": "bool"
        }
      ],
      "name": "recordLockReservedTokenChanges",
      "outputs": [],
      "stateMutability": "nonpayable",
      "type": "function"
    },
    {
      "inputs": [
        {
          "internalType": "bool",
          "name": "_flag",
          "type": "bool"
        }
      ],
      "name": "recordLockVotingUnitChanges",
      "outputs": [],
      "stateMutability": "nonpayable",
      "type": "function"
    },
    {
      "inputs": [
        {
          "internalType": "uint256",
          "name": "_amount",
          "type": "uint256"
        },
        {
          "internalType": "uint16[]",
          "name": "_tierIds",
          "type": "uint16[]"
        },
        {
          "internalType": "address",
          "name": "_beneficiary",
          "type": "address"
        },
        {
          "internalType": "uint256",
          "name": "_currency",
          "type": "uint256"
        }
      ],
      "name": "recordMint",
      "outputs": [
        {
          "internalType": "uint256[]",
          "name": "tokenIds",
          "type": "uint256[]"
        },
        {
          "internalType": "uint256",
          "name": "leftoverAmount",
          "type": "uint256"
        }
      ],
      "stateMutability": "nonpayable",
      "type": "function"
    },
    {
      "inputs": [
        {
          "internalType": "uint256",
          "name": "_amount",
          "type": "uint256"
        }
      ],
      "name": "recordMintBestAvailableTier",
      "outputs": [
        {
          "internalType": "uint256",
          "name": "tokenId",
          "type": "uint256"
        },
        {
          "internalType": "uint256",
          "name": "tierId",
          "type": "uint256"
        },
        {
          "internalType": "uint256",
          "name": "leftoverAmount",
          "type": "uint256"
        }
      ],
      "stateMutability": "nonpayable",
      "type": "function"
    },
    {
      "inputs": [
        {
          "internalType": "uint256",
          "name": "_tierId",
          "type": "uint256"
        },
        {
          "internalType": "uint256",
          "name": "_count",
          "type": "uint256"
        }
      ],
      "name": "recordMintReservesFor",
      "outputs": [
        {
          "internalType": "uint256[]",
          "name": "tokenIds",
          "type": "uint256[]"
        }
      ],
      "stateMutability": "nonpayable",
      "type": "function"
    },
    {
      "inputs": [
        {
          "internalType": "uint256[]",
          "name": "_tierIds",
          "type": "uint256[]"
        }
      ],
      "name": "recordRemoveTierIds",
      "outputs": [],
      "stateMutability": "nonpayable",
      "type": "function"
    },
    {
      "inputs": [
        {
          "internalType": "string",
          "name": "_uri",
          "type": "string"
        }
      ],
      "name": "recordSetBaseUri",
      "outputs": [],
      "stateMutability": "nonpayable",
      "type": "function"
    },
    {
      "inputs": [
        {
          "internalType": "string",
          "name": "_uri",
          "type": "string"
        }
      ],
      "name": "recordSetContractUri",
      "outputs": [],
      "stateMutability": "nonpayable",
      "type": "function"
    },
    {
      "inputs": [
        {
          "internalType": "address",
          "name": "_beneficiary",
          "type": "address"
        }
      ],
      "name": "recordSetDefaultReservedTokenBeneficiary",
      "outputs": [],
      "stateMutability": "nonpayable",
      "type": "function"
    },
    {
      "inputs": [
        {
          "internalType": "uint256",
          "name": "_tokenId",
          "type": "uint256"
        },
        {
          "internalType": "address",
          "name": "_owner",
          "type": "address"
        }
      ],
      "name": "recordSetFirstOwnerOf",
      "outputs": [],
      "stateMutability": "nonpayable",
      "type": "function"
    },
    {
      "inputs": [
        {
          "internalType": "contract IJBTokenUriResolver",
          "name": "_resolver",
          "type": "address"
        }
      ],
      "name": "recordSetTokenUriResolver",
      "outputs": [],
      "stateMutability": "nonpayable",
      "type": "function"
    },
    {
      "inputs": [
        {
          "internalType": "uint256",
          "name": "_tierId",
          "type": "uint256"
        },
        {
          "internalType": "address",
          "name": "_from",
          "type": "address"
        },
        {
          "internalType": "address",
          "name": "_to",
          "type": "address"
        }
      ],
      "name": "recordTransferForTier",
      "outputs": [],
      "stateMutability": "nonpayable",
      "type": "function"
    },
    {
      "inputs": [
        {
          "internalType": "address",
          "name": "_nft",
          "type": "address"
        },
        {
          "internalType": "uint256[]",
          "name": "_tokenIds",
          "type": "uint256[]"
        }
      ],
      "name": "redemptionWeightOf",
      "outputs": [
        {
          "internalType": "uint256",
          "name": "weight",
          "type": "uint256"
        }
      ],
      "stateMutability": "view",
      "type": "function"
    },
    {
      "inputs": [
        {
          "internalType": "address",
          "name": "_nft",
          "type": "address"
        },
        {
          "internalType": "uint256",
          "name": "_tierId",
          "type": "uint256"
        }
      ],
      "name": "reservedTokenBeneficiaryOf",
      "outputs": [
        {
          "internalType": "address",
          "name": "",
          "type": "address"
        }
      ],
      "stateMutability": "view",
      "type": "function"
    },
    {
      "inputs": [
        {
          "internalType": "address",
          "name": "_nft",
          "type": "address"
        },
        {
          "internalType": "uint256",
          "name": "_id",
          "type": "uint256"
        }
      ],
      "name": "tier",
      "outputs": [
        {
          "components": [
            {
              "internalType": "uint256",
              "name": "id",
              "type": "uint256"
            },
            {
              "internalType": "uint256",
              "name": "contributionFloor",
              "type": "uint256"
            },
            {
              "internalType": "uint256",
              "name": "lockedUntil",
              "type": "uint256"
            },
            {
              "internalType": "uint256",
              "name": "remainingQuantity",
              "type": "uint256"
            },
            {
              "internalType": "uint256",
              "name": "initialQuantity",
              "type": "uint256"
            },
            {
              "internalType": "uint256",
              "name": "votingUnits",
              "type": "uint256"
            },
            {
              "internalType": "uint256",
              "name": "reservedRate",
              "type": "uint256"
            },
            {
              "internalType": "address",
              "name": "reservedTokenBeneficiary",
              "type": "address"
            },
            {
              "internalType": "bytes32",
              "name": "encodedIPFSUri",
              "type": "bytes32"
            }
          ],
          "internalType": "struct JB721Tier",
          "name": "",
          "type": "tuple"
        }
      ],
      "stateMutability": "view",
      "type": "function"
    },
    {
      "inputs": [
        {
          "internalType": "address",
          "name": "",
          "type": "address"
        },
        {
          "internalType": "address",
          "name": "",
          "type": "address"
        },
        {
          "internalType": "uint256",
          "name": "",
          "type": "uint256"
        }
      ],
      "name": "tierBalanceOf",
      "outputs": [
        {
          "internalType": "uint256",
          "name": "",
          "type": "uint256"
        }
      ],
      "stateMutability": "view",
      "type": "function"
    },
    {
      "inputs": [
        {
          "internalType": "uint256",
          "name": "_tokenId",
          "type": "uint256"
        }
      ],
      "name": "tierIdOfToken",
      "outputs": [
        {
          "internalType": "uint256",
          "name": "",
          "type": "uint256"
        }
      ],
      "stateMutability": "pure",
      "type": "function"
    },
    {
      "inputs": [
        {
          "internalType": "address",
          "name": "_nft",
          "type": "address"
        },
        {
          "internalType": "uint256",
          "name": "_tokenId",
          "type": "uint256"
        }
      ],
      "name": "tierOfTokenId",
      "outputs": [
        {
          "components": [
            {
              "internalType": "uint256",
              "name": "id",
              "type": "uint256"
            },
            {
              "internalType": "uint256",
              "name": "contributionFloor",
              "type": "uint256"
            },
            {
              "internalType": "uint256",
              "name": "lockedUntil",
              "type": "uint256"
            },
            {
              "internalType": "uint256",
              "name": "remainingQuantity",
              "type": "uint256"
            },
            {
              "internalType": "uint256",
              "name": "initialQuantity",
              "type": "uint256"
            },
            {
              "internalType": "uint256",
              "name": "votingUnits",
              "type": "uint256"
            },
            {
              "internalType": "uint256",
              "name": "reservedRate",
              "type": "uint256"
            },
            {
              "internalType": "address",
              "name": "reservedTokenBeneficiary",
              "type": "address"
            },
            {
              "internalType": "bytes32",
              "name": "encodedIPFSUri",
              "type": "bytes32"
            }
          ],
          "internalType": "struct JB721Tier",
          "name": "",
          "type": "tuple"
        }
      ],
      "stateMutability": "view",
      "type": "function"
    },
    {
      "inputs": [
        {
          "internalType": "address",
          "name": "_nft",
          "type": "address"
        },
        {
          "internalType": "address",
          "name": "_account",
          "type": "address"
        },
        {
          "internalType": "uint256",
          "name": "_tierId",
          "type": "uint256"
        }
      ],
      "name": "tierVotingUnitsOf",
      "outputs": [
        {
          "internalType": "uint256",
          "name": "",
          "type": "uint256"
        }
      ],
      "stateMutability": "view",
      "type": "function"
    },
    {
      "inputs": [
        {
          "internalType": "address",
          "name": "_nft",
          "type": "address"
        },
        {
          "internalType": "uint256",
          "name": "_startingId",
          "type": "uint256"
        },
        {
          "internalType": "uint256",
          "name": "_size",
          "type": "uint256"
        }
      ],
      "name": "tiers",
      "outputs": [
        {
          "components": [
            {
              "internalType": "uint256",
              "name": "id",
              "type": "uint256"
            },
            {
              "internalType": "uint256",
              "name": "contributionFloor",
              "type": "uint256"
            },
            {
              "internalType": "uint256",
              "name": "lockedUntil",
              "type": "uint256"
            },
            {
              "internalType": "uint256",
              "name": "remainingQuantity",
              "type": "uint256"
            },
            {
              "internalType": "uint256",
              "name": "initialQuantity",
              "type": "uint256"
            },
            {
              "internalType": "uint256",
              "name": "votingUnits",
              "type": "uint256"
            },
            {
              "internalType": "uint256",
              "name": "reservedRate",
              "type": "uint256"
            },
            {
              "internalType": "address",
              "name": "reservedTokenBeneficiary",
              "type": "address"
            },
            {
              "internalType": "bytes32",
              "name": "encodedIPFSUri",
              "type": "bytes32"
            }
          ],
          "internalType": "struct JB721Tier[]",
          "name": "_tiers",
          "type": "tuple[]"
        }
      ],
      "stateMutability": "view",
      "type": "function"
    },
    {
      "inputs": [
        {
          "internalType": "address",
          "name": "",
          "type": "address"
        }
      ],
      "name": "tokenUriResolverOf",
      "outputs": [
        {
          "internalType": "contract IJBTokenUriResolver",
          "name": "",
          "type": "address"
        }
      ],
      "stateMutability": "view",
      "type": "function"
    },
    {
      "inputs": [
        {
          "internalType": "address",
          "name": "_nft",
          "type": "address"
        }
      ],
      "name": "totalRedemptionWeight",
      "outputs": [
        {
          "internalType": "uint256",
          "name": "weight",
          "type": "uint256"
        }
      ],
      "stateMutability": "view",
      "type": "function"
    },
    {
      "inputs": [
        {
          "internalType": "address",
          "name": "_nft",
          "type": "address"
        }
      ],
      "name": "totalSupply",
      "outputs": [
        {
          "internalType": "uint256",
          "name": "supply",
          "type": "uint256"
        }
      ],
      "stateMutability": "view",
      "type": "function"
    },
    {
      "inputs": [
        {
          "internalType": "address",
          "name": "_nft",
          "type": "address"
        },
        {
          "internalType": "address",
          "name": "_account",
          "type": "address"
        }
      ],
      "name": "votingUnitsOf",
      "outputs": [
        {
          "internalType": "uint256",
          "name": "units",
          "type": "uint256"
        }
      ],
      "stateMutability": "view",
      "type": "function"
    }
  ],
  "bytecode": {
    "object": "0x608060405234801561001057600080fd5b50613025806100206000396000f3fe608060405234801561001057600080fd5b50600436106102695760003560e01c80636825bb8011610151578063b67cb047116100c3578063d67b78fd11610087578063d67b78fd146107a1578063d84a72c0146107b4578063e4dc2aa4146107f1578063ebc1c49d14610804578063f682eeaf14610827578063f7888aec1461083a57600080fd5b8063b67cb04714610702578063baa7e80e14610715578063bd51923c14610728578063c2c55f9414610753578063c8df17101461076657600080fd5b80638cec7d39116101155780638cec7d39146105fb5780638ed6c01014610644578063911c80b51461067857806393355578146106a1578063aab0cd80146106b4578063abc1b595146106d457600080fd5b80636825bb801461054f5780636c876fd81461057a5780637473c9a21461059a57806386bc2be3146105ba578063879791f3146105cd57600080fd5b80632ae5e492116101ea578063371d1c21116101ae578063371d1c211461048557806337f44652146104a85780633eb2556a146104d957806342f9914b146104f95780635f6466111461050e5780636262bcb21461053c57600080fd5b80632ae5e492146103ee5780632b7e6ef0146104015780632e4d0ea81461042c57806335314b921461043f578063366cf4231461045257600080fd5b8063144cc2d411610231578063144cc2d41461032f57806317161f7d146103505780631877d7b11461038d57806320512ba1146103bb57806327619754146103ce57600080fd5b806307cd94061461026e578063086bb19a1461029e5780630c72df1f146102b15780630fab0947146102db578063136e651c1461031c575b600080fd5b61029c61027c366004612635565b336000908152600d60205260409020805460ff1916911515919091179055565b005b61029c6102ac366004612668565b61084d565b6102c46102bf3660046126d0565b6109ac565b6040516102d2929190612771565b60405180910390f35b6103046102e9366004612668565b600b602052600090815260409020546001600160a01b031681565b6040516001600160a01b0390911681526020016102d2565b61030461032a366004612793565b610c47565b61034261033d3660046127bf565b610ca0565b6040519081526020016102d2565b61029c61035e366004612668565b33600090815260086020526040902080546001600160a01b0319166001600160a01b0392909216919091179055565b61029c61039b366004612635565b336000908152600e60205260409020805460ff1916911515919091179055565b61029c6103c9366004612813565b610d20565b6103e16103dc3660046128e6565b610dcc565b6040516102d291906129ef565b6103426103fc366004612668565b61136c565b61034261040f366004612793565b600660209081526000928352604080842090915290825290205481565b61034261043a366004612a02565b61149e565b61034261044d366004612793565b611523565b610475610460366004612668565b600e6020526000908152604090205460ff1681565b60405190151581526020016102d2565b610475610493366004612668565b600f6020526000908152604090205460ff1681565b6103426104b6366004612a02565b600460209081526000938452604080852082529284528284209052825290205481565b6104ec6104e7366004612a43565b6115be565b6040516102d29190612ad7565b610342610507366004612b26565b61ffff1690565b61047561051c366004612793565b600760209081526000928352604080842090915290825290205460ff1681565b61029c61054a366004612b3f565b6118c5565b61034261055d366004612793565b600560209081526000928352604080842090915290825290205481565b610342610588366004612668565b60036020526000908152604090205481565b6105ad6105a8366004612793565b6118e4565b6040516102d29190612bb0565b61029c6105c8366004612bbf565b611ada565b6105e06105db366004612b26565b611bab565b604080519384526020840192909252908201526060016102d2565b61029c610609366004612c44565b3360009081526009602090815260408083209483529390529190912080546001600160a01b0319166001600160a01b03909216919091179055565b610304610652366004612793565b60096020908152600092835260408084209091529082529020546001600160a01b031681565b610304610686366004612668565b6008602052600090815260409020546001600160a01b031681565b6103426106af366004612c74565b611d89565b6106c76106c2366004612668565b611e39565b6040516102d29190612ca2565b61029c6106e2366004612635565b336000908152600f60205260409020805460ff1916911515919091179055565b6105ad610710366004612793565b611ed3565b6103e1610723366004612cf0565b61200e565b610342610736366004612793565b601060209081526000928352604080842090915290825290205481565b61029c610761366004612d12565b612217565b610342610774366004612793565b6001600160a01b0391909116600090815260106020908152604080832061ffff9094168352929052205490565b61029c6107af366004612b3f565b6122aa565b61029c6107c2366004612668565b336000908152600b6020526040902080546001600160a01b0319166001600160a01b0392909216919091179055565b6103426107ff366004612668565b6122c4565b610475610812366004612668565b600d6020526000908152604090205460ff1681565b6106c7610835366004612668565b61234e565b610342610848366004612c74565b612367565b6001600160a01b03811660009081526003602052604081205490610870836123d3565b905060005b8115610968576001600160a01b038416600090815260076020908152604080832085845290915290205460ff16610956576108b1816001612d6a565b8214610909576001600160a01b0384166000908152602081815260408083208484529091529020548214610904576001600160a01b03841660009081526020818152604080832084845290915290208290555b610953565b6001600160a01b03841660009081526020818152604080832084845290915290205415610953576001600160a01b0384166000908152602081815260408083208484529091528120555b50805b610961848385612406565b9150610875565b6040513381526001600160a01b038516907f4a0f854ce3c180d56f3e9eb47eb064c595bf3de0ab9af45425291e5b1bb733a89060200160405180910390a250505050565b60608584600080826001600160401b038111156109cb576109cb612854565b6040519080825280602002602001820160405280156109f4578160200160208202803683370190505b50945060005b83811015610c3957898982818110610a1457610a14612d7d565b9050602002016020810190610a299190612d93565b33600090815260076020908152604080832061ffff949094168084529390915290205490925060ff1615610a705760405163d32cb5c160e01b815260040160405180910390fd5b33600090815260026020908152604080832085845290915281208054909450600160b01b900465ffffffffffff169003610abd57604051630de5859f60e01b815260040160405180910390fd5b82546001600160501b0316851015610ae857604051632cd294cf60e01b815260040160405180910390fd5b6040805160c08101825284546001600160501b038116825265ffffffffffff600160501b820481166020840152600160801b8204811693830193909352600160b01b8104909216606082015261ffff600160e01b830481166080830152600160f01b90920490911660a0820152610b629033908490612459565b8354610b7d9190600160801b900465ffffffffffff16612db7565b600003610b9d5760405163985a45d960e01b815260040160405180910390fd5b336000908152600660209081526040808320858452909152902054835460001965ffffffffffff600160801b808404821692830182160265ffffffffffff60801b1990931692909217808755600160b01b9004821603600101160160101b8217868281518110610c0f57610c0f612d7d565b60209081029190910101528254610c2f906001600160501b031686612db7565b94506001016109fa565b505050509550959350505050565b6001600160a01b0380831660009081526001602090815260408083208584529091528120549091168015610c7c579050610c9a565b50506001600160a01b03808316600090815260086020526040902054165b92915050565b600081815b81811015610d17576001600160a01b038616600090815260026020526040812090610ce9878785818110610cdb57610cdb612d7d565b9050602002013561ffff1690565b8152602081019190915260400160002054610d0d906001600160501b031684612d6a565b9250600101610ca5565b50509392505050565b806000805b82811015610dc557848482818110610d3f57610d3f612d7d565b336000908152600260209081526040808320938202959095013580835292905292909220549193505042600160501b90910465ffffffffffff1610610d9757604051636b73d51160e11b815260040160405180910390fd5b3360009081526007602090815260408083208584529091529020805460ff1916600190811790915501610d25565b5050505050565b80513360009081526003602052604090205460609190816001600160401b03811115610dfa57610dfa612854565b604051908082528060200260200182016040528015610e23578160200160208202803683370190505b50925060008115610e3c57610e37336123d3565b610e3f565b60005b90506000610e99604051806101000160405280600081526020016000815260200160008152602001600081526020016000815260200160006001600160a01b03168152602001600080191681526020016000151581525090565b60005b8581101561134657878181518110610eb657610eb6612d7d565b6020026020010151915080600014158015610efb575087610ed8600183612db7565b81518110610ee857610ee8612d7d565b6020026020010151600001518260000151105b15610f19576040516325ec4a9160e21b815260040160405180910390fd5b336000908152600e602052604090205460ff168015610f3b5750606082015115155b15610f5957604051630189200360e11b815260040160405180910390fd5b336000908152600d602052604090205460ff168015610f7b5750608082015115155b15610f995760405163a75b1cd560e01b815260040160405180910390fd5b8160400151600003610fbe57604051631e0a863160e31b815260040160405180910390fd5b6000610fca8287612d6a565b610fd5906001612d6a565b6040805160c08101825285516001600160501b03908116825260208088015165ffffffffffff908116828501908152898601805183168688019081529051831660608088019182528c015161ffff9081166080808a019182528e0151821660a0808b0191825233600090815260028a528c81208e82529099529a909720985189549551945193519151975198166fffffffffffffffffffffffffffffffff1990951694909417600160501b93861693909302929092176bffffffffffffffffffffffff60801b1916600160801b9185169190910265ffffffffffff60b01b191617600160b01b9290931691909102919091176001600160e01b0316600160e01b928216929092026001600160f01b031691909117600160f01b92909116919091021790558401519091506001600160a01b03161580159061113657503360009081526008602052604090205460a08401516001600160a01b03908116911614155b156111b8578260e001511561117b5760a083015133600090815260086020526040902080546001600160a01b0319166001600160a01b039092169190911790556111b8565b60a0830151336000908152600160209081526040808320858452909152902080546001600160a01b0319166001600160a01b039092169190911790555b60c0830151156111e35760c08301513360009081526010602090815260408083208584529091529020555b841561131f578460005b811561131c576111fe33838a612406565b33600090815260026020908152604080832086845290915290205486519192506001600160501b031611156112d257611238836001612d6a565b821461125a573360009081526020818152604080832086845290915290208290555b611265600184612db7565b8614158061128a57503360009081526020818152604080832089845290915290205415155b156112c35761129a600184612db7565b86146112a657826112a9565b60005b336000908152602081815260408083208a84529091529020555b819650829550600091506111ed565b80600003611313576112e5826001612d6a565b8314611307573360009081526020818152604080832085845290915290208390555b829650600091506111ed565b909450806111ed565b50505b8088838151811061133257611332612d7d565b602090810291909101015250600101610e9c565b506113518585612d6a565b33600090815260036020526040902055509395945050505050565b6001600160a01b03811660009081526003602052604081205461138d612598565b60005b82811015611496576001600160a01b0385166000908152600260205260408120906113bc836001612d6a565b81526020808201929092526040908101600020815160c08101835290546001600160501b038116825265ffffffffffff600160501b8204811694830194909452600160801b8104841692820192909252600160b01b8204909216606083015261ffff600160e01b820481166080840152600160f01b9091041660a08201529150611447858284612459565b8260400151836060015161145b9190612dca565b83516114789165ffffffffffff16906001600160501b0316612df0565b6114829190612d6a565b61148c9085612d6a565b9350600101611390565b505050919050565b6001600160a01b03808416600090815260046020908152604080832093861683529281528282208483529052908120548082036114df57600091505061151c565b6001600160a01b038516600090815260026020908152604080832086845290915290205461151890600160e01b900461ffff1682612df0565b9150505b9392505050565b6001600160a01b03821660009081526002602090815260408083208484528252808320815160c08101835290546001600160501b038116825265ffffffffffff600160501b8204811694830194909452600160801b8104841692820192909252600160b01b8204909216606083015261ffff600160e01b820481166080840152600160f01b9091041660a082015261151c9084908490612459565b6001600160a01b038316600090815260036020526040902054606090826001600160401b038111156115f2576115f2612854565b60405190808252806020026020018201604052801561162b57816020015b6116186125cd565b8152602001906001900390816116105790505b5091506000808560000361164757611642876123d3565b611649565b855b9050611653612598565b811580159061166157508583105b156118af576001600160a01b038816600090815260076020908152604080832085845290915290205460ff1661189d5760026000896001600160a01b03166001600160a01b0316815260200190815260200160002060008381526020019081526020016000206040518060c00160405290816000820160009054906101000a90046001600160501b03166001600160501b03166001600160501b0316815260200160008201600a9054906101000a900465ffffffffffff1665ffffffffffff1665ffffffffffff1681526020016000820160109054906101000a900465ffffffffffff1665ffffffffffff1665ffffffffffff1681526020016000820160169054906101000a900465ffffffffffff1665ffffffffffff1665ffffffffffff16815260200160008201601c9054906101000a900461ffff1661ffff1661ffff16815260200160008201601e9054906101000a900461ffff1661ffff1661ffff1681525050905060405180610120016040528083815260200182600001516001600160501b03168152602001826020015165ffffffffffff168152602001826040015165ffffffffffff168152602001826060015165ffffffffffff168152602001826080015161ffff1681526020018260a0015161ffff1681526020016118488a85610c47565b6001600160a01b0390811682528a166000908152601060209081526040808320878452825290912054910152858461187f81612e0f565b95508151811061189157611891612d7d565b60200260200101819052505b6118a8888386612406565b9150611653565b8583146118ba578285525b505050509392505050565b336000908152600a602052604090206118df828483612eb0565b505050565b6118ec6125cd565b600060026000856001600160a01b03166001600160a01b0316815260200190815260200160002060008481526020019081526020016000206040518060c00160405290816000820160009054906101000a90046001600160501b03166001600160501b03166001600160501b0316815260200160008201600a9054906101000a900465ffffffffffff1665ffffffffffff1665ffffffffffff1681526020016000820160109054906101000a900465ffffffffffff1665ffffffffffff1665ffffffffffff1681526020016000820160169054906101000a900465ffffffffffff1665ffffffffffff1665ffffffffffff16815260200160008201601c9054906101000a900461ffff1661ffff1661ffff16815260200160008201601e9054906101000a900461ffff1661ffff1661ffff1681525050905060405180610120016040528084815260200182600001516001600160501b03168152602001826020015165ffffffffffff168152602001826040015165ffffffffffff168152602001826060015165ffffffffffff168152602001826080015161ffff1681526020018260a0015161ffff168152602001611aa58686610c47565b6001600160a01b0390811682528616600090815260106020908152604080832088845282529091205491015291505092915050565b80516000805b82811015611ba557838181518110611afa57611afa612d7d565b602002602001015191506000611b118361ffff1690565b3360009081526006602090815260408083208484529091528120805492935090611b3a83612e0f565b909155505033600090815260026020908152604080832084845290915290208054600160801b900465ffffffffffff16906010611b7683612f6f565b91906101000a81548165ffffffffffff021916908365ffffffffffff1602179055505081600101915050611ae0565b50505050565b3360009081526003602052604081205481908190611bc7612598565b6000611bd2336123d3565b905060005b8115611cec57336000908152600260209081526040808320858452825291829020825160c08101845290546001600160501b03811680835265ffffffffffff600160501b8304811694840194909452600160801b8204841694830194909452600160b01b8104909216606082015261ffff600160e01b830481166080830152600160f01b90920490911660a08201529350881015611c785760009150611bd7565b33600090815260076020908152604080832085845290915290205460ff16158015611cc35750611ca9338385612459565b836040015165ffffffffffff16611cc09190612db7565b15155b15611cda5750815190945084906001600160501b03165b611ce5338386612406565b9150611bd7565b85600003611cfc57879450611d7e565b3360008181526002602090815260408083208a84528252808320938352600682528083208a8452909152902054815460001965ffffffffffff600160801b808404821692830182160265ffffffffffff60801b1990931692909217808555600160b01b9004821603600101160160101b87179750611d7a828a612db7565b9550505b505050509193909250565b6001600160a01b03821660009081526003602052604081205481815b8015611e30576001600160a01b03808716600090815260046020908152604080832093891683529281528282208483529052205491508115611e27576001600160a01b0386166000908152600260209081526040808320848452909152902054611e1a90600160e01b900461ffff1683612df0565b611e249085612d6a565b93505b60001901611da5565b50505092915050565b600c6020526000908152604090208054611e5290612e28565b80601f0160208091040260200160405190810160405280929190818152602001828054611e7e90612e28565b8015611ecb5780601f10611ea057610100808354040283529160200191611ecb565b820191906000526020600020905b815481529060010190602001808311611eae57829003601f168201915b505050505081565b611edb6125cd565b6001600160a01b038316600090815260026020908152604080832061ffff86811680865291845293829020825160c0808201855291546001600160501b03808216835265ffffffffffff600160501b83048116848901908152600160801b84048216858901908152600160b01b850483166060808801918252600160e01b87048d166080808a01918252600160f01b9098048e1660a0808b019182528d5161012081018f528d81528b519099169e89019e909e52945186169b87019b909b5291518416918501919091525190911692820192909252945187169585019590955293519094169382019390935260e08101611fd58785610c47565b6001600160a01b039081168252871660009081526010602090815260408083209683529581529490205493019290925250905092915050565b3360008181526002602090815260408083208684528252808320815160c08101835281546001600160501b038116825265ffffffffffff600160501b8204811695830195909552600160801b8104851693820193909352600160b01b830490931660608481019190915261ffff600160e01b840481166080860152600160f01b90930490921660a084015290939092916120aa91908790612459565b9050808411156120cd5760405163226f999960e11b815260040160405180910390fd5b336000908152600560209081526040808320888452909152812080548692906120f7908490612d6a565b909155508490506001600160401b0381111561211557612115612854565b60405190808252806020026020018201604052801561213e578160200160208202803683370190505b503360009081526006602090815260408083208984529091528120549194505b8581101561220d576121e8878386600001601081819054906101000a900465ffffffffffff1661218d90612f94565b91906101000a81548165ffffffffffff021916908365ffffffffffff16021790558760000160169054906101000a900465ffffffffffff166121cf9190612dca565b65ffffffffffff166121e19190612d6a565b60101b1790565b8582815181106121fa576121fa612d7d565b602090810291909101015260010161215e565b5050505092915050565b6001600160a01b03821615612264573360009081526004602090815260408083206001600160a01b038616845282528083208684529091528120805490919061225f90612fb6565b909155505b6001600160a01b038116156118df573360009081526004602090815260408083206001600160a01b03851684528252808320868452909152902080546001019055505050565b336000908152600c602052604090206118df828483612eb0565b6001600160a01b0381166000908152600360205260408120548190805b8015611496576001600160a01b0385166000908152600260209081526040808320848452909152902080549093506123319065ffffffffffff600160801b8204811691600160b01b900416612dca565b6123439065ffffffffffff1685612d6a565b9350600019016122e1565b600a6020526000908152604090208054611e5290612e28565b6001600160a01b038216600090815260036020526040812054805b80156123cb576001600160a01b0380861660009081526004602090815260408083209388168352928152828220848352905220546123c09084612d6a565b925060001901612382565b505092915050565b6001600160a01b03811660009081526020818152604080832083805290915281205490819003612401575060015b919050565b6001600160a01b038316600090815260208181526040808320858452909152812054801561243557905061151c565b82841061244657600091505061151c565b612451846001612d6a565b91505061151c565b6000816060015165ffffffffffff166000148061247c575060a082015161ffff16155b156124895750600061151c565b816040015165ffffffffffff16826060015165ffffffffffff16036124b05750600161151c565b6001600160a01b0384166000908152600560209081526040808320868452909152908190205490830151606084015165ffffffffffff918216916124f691849116612db7565b0361250557600091505061151c565b6000818460400151856060015161251c9190612dca565b65ffffffffffff1661252e9190612db7565b905060008460a0015161ffff16826125469190612df0565b9050600061255661271083612fcd565b9050600061256682612710612df0565b6125709084612db7565b11156125825761257f81612e0f565b90505b61258c8482612db7565b98975050505050505050565b6040805160c081018252600080825260208201819052918101829052606081018290526080810182905260a081019190915290565b6040518061012001604052806000815260200160008152602001600081526020016000815260200160008152602001600081526020016000815260200160006001600160a01b03168152602001600080191681525090565b8035801515811461240157600080fd5b60006020828403121561264757600080fd5b61151c82612625565b6001600160a01b038116811461266557600080fd5b50565b60006020828403121561267a57600080fd5b813561151c81612650565b60008083601f84011261269757600080fd5b5081356001600160401b038111156126ae57600080fd5b6020830191508360208260051b85010111156126c957600080fd5b9250929050565b6000806000806000608086880312156126e857600080fd5b8535945060208601356001600160401b0381111561270557600080fd5b61271188828901612685565b909550935050604086013561272581612650565b949793965091946060013592915050565b600081518084526020808501945080840160005b838110156127665781518752958201959082019060010161274a565b509495945050505050565b6040815260006127846040830185612736565b90508260208301529392505050565b600080604083850312156127a657600080fd5b82356127b181612650565b946020939093013593505050565b6000806000604084860312156127d457600080fd5b83356127df81612650565b925060208401356001600160401b038111156127fa57600080fd5b61280686828701612685565b9497909650939450505050565b6000806020838503121561282657600080fd5b82356001600160401b0381111561283c57600080fd5b61284885828601612685565b90969095509350505050565b634e487b7160e01b600052604160045260246000fd5b60405161010081016001600160401b038111828210171561288d5761288d612854565b60405290565b604051601f8201601f191681016001600160401b03811182821017156128bb576128bb612854565b604052919050565b60006001600160401b038211156128dc576128dc612854565b5060051b60200190565b600060208083850312156128f957600080fd5b82356001600160401b0381111561290f57600080fd5b8301601f8101851361292057600080fd5b803561293361292e826128c3565b612893565b81815260089190911b8201830190838101908783111561295257600080fd5b928401925b828410156129e45761010084890312156129715760008081fd5b61297961286a565b84358152858501358682015260408086013590820152606080860135908201526080808601359082015260a0808601356129b281612650565b9082015260c0858101359082015260e06129cd818701612625565b908201528252610100939093019290840190612957565b979650505050505050565b60208152600061151c6020830184612736565b600080600060608486031215612a1757600080fd5b8335612a2281612650565b92506020840135612a3281612650565b929592945050506040919091013590565b600080600060608486031215612a5857600080fd5b8335612a6381612650565b95602085013595506040909401359392505050565b805182526020808201519083015260408082015190830152606080820151908301526080808201519083015260a0808201519083015260c0808201519083015260e0808201516001600160a01b03169083015261010090810151910152565b6020808252825182820181905260009190848201906040850190845b81811015612b1a57612b06838551612a78565b928401926101209290920191600101612af3565b50909695505050505050565b600060208284031215612b3857600080fd5b5035919050565b60008060208385031215612b5257600080fd5b82356001600160401b0380821115612b6957600080fd5b818501915085601f830112612b7d57600080fd5b813581811115612b8c57600080fd5b866020828501011115612b9e57600080fd5b60209290920196919550909350505050565b6101208101610c9a8284612a78565b60006020808385031215612bd257600080fd5b82356001600160401b03811115612be857600080fd5b8301601f81018513612bf957600080fd5b8035612c0761292e826128c3565b81815260059190911b82018301908381019087831115612c2657600080fd5b928401925b828410156129e457833582529284019290840190612c2b565b60008060408385031215612c5757600080fd5b823591506020830135612c6981612650565b809150509250929050565b60008060408385031215612c8757600080fd5b8235612c9281612650565b91506020830135612c6981612650565b600060208083528351808285015260005b81811015612ccf57858101830151858201604001528201612cb3565b506000604082860101526040601f19601f8301168501019250505092915050565b60008060408385031215612d0357600080fd5b50508035926020909101359150565b600080600060608486031215612d2757600080fd5b833592506020840135612d3981612650565b91506040840135612d4981612650565b809150509250925092565b634e487b7160e01b600052601160045260246000fd5b80820180821115610c9a57610c9a612d54565b634e487b7160e01b600052603260045260246000fd5b600060208284031215612da557600080fd5b813561ffff8116811461151c57600080fd5b81810381811115610c9a57610c9a612d54565b65ffffffffffff828116828216039080821115612de957612de9612d54565b5092915050565b6000816000190483118215151615612e0a57612e0a612d54565b500290565b600060018201612e2157612e21612d54565b5060010190565b600181811c90821680612e3c57607f821691505b602082108103612e5c57634e487b7160e01b600052602260045260246000fd5b50919050565b601f8211156118df57600081815260208120601f850160051c81016020861015612e895750805b601f850160051c820191505b81811015612ea857828155600101612e95565b505050505050565b6001600160401b03831115612ec757612ec7612854565b612edb83612ed58354612e28565b83612e62565b6000601f841160018114612f0f5760008515612ef75750838201355b600019600387901b1c1916600186901b178355610dc5565b600083815260209020601f19861690835b82811015612f405786850135825560209485019460019092019101612f20565b5086821015612f5d5760001960f88860031b161c19848701351681555b505060018560011b0183555050505050565b600065ffffffffffff808316818103612f8a57612f8a612d54565b6001019392505050565b600065ffffffffffff821680612fac57612fac612d54565b6000190192915050565b600081612fc557612fc5612d54565b506000190190565b600082612fea57634e487b7160e01b600052601260045260246000fd5b50049056fea2646970667358221220829557b43271b97ca922b6c6b8a60a349c349743a39456724bbf9b97cc3ad41564736f6c63430008100033",
    "linkReferences": {}
  },
  "methodIdentifiers": {
    "balanceOf(address,address)": "f7888aec",
    "baseUriOf(address)": "f682eeaf",
    "cleanTiers(address)": "086bb19a",
    "contractUriOf(address)": "aab0cd80",
    "defaultReservedTokenBeneficiaryOf(address)": "911c80b5",
    "encodedIPFSUriOf(address,uint256)": "bd51923c",
    "encodedTierIPFSUriOf(address,uint256)": "c8df1710",
    "firstOwnerOf(address,uint256)": "8ed6c010",
    "isTierRemoved(address,uint256)": "5f646611",
    "lockPricingResolverChangesFor(address)": "371d1c21",
    "lockReservedTokenChangesFor(address)": "ebc1c49d",
    "lockVotingUnitChangesFor(address)": "366cf423",
    "maxTierId(address)": "6c876fd8",
    "numberOfBurnedFor(address,uint256)": "2b7e6ef0",
    "numberOfReservedTokensOutstandingFor(address,uint256)": "35314b92",
    "numberOfReservesMintedFor(address,uint256)": "6825bb80",
    "recordAddTiers((uint256,uint256,uint256,uint256,uint256,address,bytes32,bool)[])": "27619754",
    "recordBurn(uint256[])": "86bc2be3",
    "recordLockPricingResolverChanges(bool)": "abc1b595",
    "recordLockReservedTokenChanges(bool)": "07cd9406",
    "recordLockVotingUnitChanges(bool)": "1877d7b1",
    "recordMint(uint256,uint16[],address,uint256)": "0c72df1f",
    "recordMintBestAvailableTier(uint256)": "879791f3",
    "recordMintReservesFor(uint256,uint256)": "baa7e80e",
    "recordRemoveTierIds(uint256[])": "20512ba1",
    "recordSetBaseUri(string)": "6262bcb2",
    "recordSetContractUri(string)": "d67b78fd",
    "recordSetDefaultReservedTokenBeneficiary(address)": "17161f7d",
    "recordSetFirstOwnerOf(uint256,address)": "8cec7d39",
    "recordSetTokenUriResolver(address)": "d84a72c0",
    "recordTransferForTier(uint256,address,address)": "c2c55f94",
    "redemptionWeightOf(address,uint256[])": "144cc2d4",
    "reservedTokenBeneficiaryOf(address,uint256)": "136e651c",
    "tier(address,uint256)": "7473c9a2",
    "tierBalanceOf(address,address,uint256)": "37f44652",
    "tierIdOfToken(uint256)": "42f9914b",
    "tierOfTokenId(address,uint256)": "b67cb047",
    "tierVotingUnitsOf(address,address,uint256)": "2e4d0ea8",
    "tiers(address,uint256,uint256)": "3eb2556a",
    "tokenUriResolverOf(address)": "0fab0947",
    "totalRedemptionWeight(address)": "2ae5e492",
    "totalSupply(address)": "e4dc2aa4",
    "votingUnitsOf(address,address)": "93355578"
  },
  "id": 3
}