{
  "abi": [
    {
      "inputs": [],
      "name": "CANT_MINT_MANUALLY",
      "type": "error"
    },
    {
      "inputs": [],
      "name": "INSUFFICIENT_AMOUNT",
      "type": "error"
    },
    {
      "inputs": [],
      "name": "INSUFFICIENT_RESERVES",
      "type": "error"
    },
    {
      "inputs": [],
      "name": "INVALID_PRICE_SORT_ORDER",
      "type": "error"
    },
    {
      "inputs": [],
      "name": "INVALID_TIER",
      "type": "error"
    },
    {
      "inputs": [],
      "name": "MANUAL_MINTING_NOT_ALLOWED",
      "type": "error"
    },
    {
      "inputs": [],
      "name": "MAX_TIERS_EXCEEDED",
      "type": "error"
    },
    {
      "inputs": [],
      "name": "NO_QUANTITY",
      "type": "error"
    },
    {
      "inputs": [],
      "name": "OUT",
      "type": "error"
    },
    {
      "inputs": [],
      "name": "PRICING_RESOLVER_CHANGES_LOCKED",
      "type": "error"
    },
    {
      "inputs": [],
      "name": "RESERVED_RATE_NOT_ALLOWED",
      "type": "error"
    },
    {
      "inputs": [],
      "name": "TIER_LOCKED",
      "type": "error"
    },
    {
      "inputs": [],
      "name": "TIER_REMOVED",
      "type": "error"
    },
    {
      "inputs": [],
      "name": "VOTING_UNITS_NOT_ALLOWED",
      "type": "error"
    },
    {
      "anonymous": false,
      "inputs": [
        {
          "indexed": true,
          "internalType": "address",
          "name": "nft",
          "type": "address"
        },
        {
          "indexed": false,
          "internalType": "address",
          "name": "caller",
          "type": "address"
        }
      ],
      "name": "CleanTiers",
      "type": "event"
    },
    {
      "inputs": [
        {
          "internalType": "address",
          "name": "_nft",
          "type": "address"
        },
        {
          "internalType": "address",
          "name": "_owner",
          "type": "address"
        }
      ],
      "name": "balanceOf",
      "outputs": [
        {
          "internalType": "uint256",
          "name": "balance",
          "type": "uint256"
        }
      ],
      "stateMutability": "view",
      "type": "function"
    },
    {
      "inputs": [
        {
          "internalType": "address",
          "name": "",
          "type": "address"
        }
      ],
      "name": "baseUriOf",
      "outputs": [
        {
          "internalType": "string",
          "name": "",
          "type": "string"
        }
      ],
      "stateMutability": "view",
      "type": "function"
    },
    {
      "inputs": [
        {
          "internalType": "address",
          "name": "_nft",
          "type": "address"
        }
      ],
      "name": "cleanTiers",
      "outputs": [],
      "stateMutability": "nonpayable",
      "type": "function"
    },
    {
      "inputs": [
        {
          "internalType": "address",
          "name": "",
          "type": "address"
        }
      ],
      "name": "contractUriOf",
      "outputs": [
        {
          "internalType": "string",
          "name": "",
          "type": "string"
        }
      ],
      "stateMutability": "view",
      "type": "function"
    },
    {
      "inputs": [
        {
          "internalType": "address",
          "name": "",
          "type": "address"
        }
      ],
      "name": "defaultReservedTokenBeneficiaryOf",
      "outputs": [
        {
          "internalType": "address",
          "name": "",
          "type": "address"
        }
      ],
      "stateMutability": "view",
      "type": "function"
    },
    {
      "inputs": [
        {
          "internalType": "address",
          "name": "",
          "type": "address"
        },
        {
          "internalType": "uint256",
          "name": "",
          "type": "uint256"
        }
      ],
      "name": "encodedIPFSUriOf",
      "outputs": [
        {
          "internalType": "bytes32",
          "name": "",
          "type": "bytes32"
        }
      ],
      "stateMutability": "view",
      "type": "function"
    },
    {
      "inputs": [
        {
          "internalType": "address",
          "name": "_nft",
          "type": "address"
        },
        {
          "internalType": "uint256",
          "name": "_tokenId",
          "type": "uint256"
        }
      ],
      "name": "encodedTierIPFSUriOf",
      "outputs": [
        {
          "internalType": "bytes32",
          "name": "",
          "type": "bytes32"
        }
      ],
      "stateMutability": "view",
      "type": "function"
    },
    {
      "inputs": [
        {
          "internalType": "address",
          "name": "",
          "type": "address"
        },
        {
          "internalType": "uint256",
          "name": "",
          "type": "uint256"
        }
      ],
      "name": "firstOwnerOf",
      "outputs": [
        {
          "internalType": "address",
          "name": "",
          "type": "address"
        }
      ],
      "stateMutability": "view",
      "type": "function"
    },
    {
      "inputs": [
        {
          "internalType": "address",
          "name": "_nft",
          "type": "address"
        }
      ],
      "name": "flagsOf",
      "outputs": [
        {
          "components": [
            {
              "internalType": "bool",
              "name": "lockReservedTokenChanges",
              "type": "bool"
            },
            {
              "internalType": "bool",
              "name": "lockVotingUnitChanges",
              "type": "bool"
            },
            {
              "internalType": "bool",
              "name": "lockManualMintingChanges",
              "type": "bool"
            },
            {
              "internalType": "bool",
              "name": "pausable",
              "type": "bool"
            }
          ],
          "internalType": "struct JBTiered721Flags",
          "name": "",
          "type": "tuple"
        }
      ],
      "stateMutability": "view",
      "type": "function"
    },
    {
      "inputs": [
        {
          "internalType": "address",
          "name": "_nft",
          "type": "address"
        },
        {
          "internalType": "uint256",
          "name": "_tierId",
          "type": "uint256"
        }
      ],
      "name": "isTierRemoved",
      "outputs": [
        {
          "internalType": "bool",
          "name": "",
          "type": "bool"
        }
      ],
      "stateMutability": "view",
      "type": "function"
    },
    {
      "inputs": [
        {
          "internalType": "address",
          "name": "",
          "type": "address"
        }
      ],
      "name": "maxTierIdOf",
      "outputs": [
        {
          "internalType": "uint256",
          "name": "",
          "type": "uint256"
        }
      ],
      "stateMutability": "view",
      "type": "function"
    },
    {
      "inputs": [
        {
          "internalType": "address",
          "name": "",
          "type": "address"
        },
        {
          "internalType": "uint256",
          "name": "",
          "type": "uint256"
        }
      ],
      "name": "numberOfBurnedFor",
      "outputs": [
        {
          "internalType": "uint256",
          "name": "",
          "type": "uint256"
        }
      ],
      "stateMutability": "view",
      "type": "function"
    },
    {
      "inputs": [
        {
          "internalType": "address",
          "name": "_nft",
          "type": "address"
        },
        {
          "internalType": "uint256",
          "name": "_tierId",
          "type": "uint256"
        }
      ],
      "name": "numberOfReservedTokensOutstandingFor",
      "outputs": [
        {
          "internalType": "uint256",
          "name": "",
          "type": "uint256"
        }
      ],
      "stateMutability": "view",
      "type": "function"
    },
    {
      "inputs": [
        {
          "internalType": "address",
          "name": "",
          "type": "address"
        },
        {
          "internalType": "uint256",
          "name": "",
          "type": "uint256"
        }
      ],
      "name": "numberOfReservesMintedFor",
      "outputs": [
        {
          "internalType": "uint256",
          "name": "",
          "type": "uint256"
        }
      ],
      "stateMutability": "view",
      "type": "function"
    },
    {
      "inputs": [
        {
          "components": [
            {
              "internalType": "uint256",
              "name": "contributionFloor",
              "type": "uint256"
            },
            {
              "internalType": "uint256",
              "name": "lockedUntil",
              "type": "uint256"
            },
            {
              "internalType": "uint256",
              "name": "initialQuantity",
              "type": "uint256"
            },
            {
              "internalType": "uint256",
              "name": "votingUnits",
              "type": "uint256"
            },
            {
              "internalType": "uint256",
              "name": "reservedRate",
              "type": "uint256"
            },
            {
              "internalType": "address",
              "name": "reservedTokenBeneficiary",
              "type": "address"
            },
            {
              "internalType": "bytes32",
              "name": "encodedIPFSUri",
              "type": "bytes32"
            },
            {
              "internalType": "bool",
              "name": "allowManualMint",
              "type": "bool"
            },
            {
              "internalType": "bool",
              "name": "shouldUseBeneficiaryAsDefault",
              "type": "bool"
            }
          ],
          "internalType": "struct JB721TierParams[]",
          "name": "_tiersToAdd",
          "type": "tuple[]"
        }
      ],
      "name": "recordAddTiers",
      "outputs": [
        {
          "internalType": "uint256[]",
          "name": "tierIds",
          "type": "uint256[]"
        }
      ],
      "stateMutability": "nonpayable",
      "type": "function"
    },
    {
      "inputs": [
        {
          "internalType": "uint256[]",
          "name": "_tokenIds",
          "type": "uint256[]"
        }
      ],
      "name": "recordBurn",
      "outputs": [],
      "stateMutability": "nonpayable",
      "type": "function"
    },
    {
      "inputs": [
        {
          "components": [
            {
              "internalType": "bool",
              "name": "lockReservedTokenChanges",
              "type": "bool"
            },
            {
              "internalType": "bool",
              "name": "lockVotingUnitChanges",
              "type": "bool"
            },
            {
              "internalType": "bool",
              "name": "lockManualMintingChanges",
              "type": "bool"
            },
            {
              "internalType": "bool",
              "name": "pausable",
              "type": "bool"
            }
          ],
          "internalType": "struct JBTiered721Flags",
          "name": "_flags",
          "type": "tuple"
        }
      ],
      "name": "recordFlags",
      "outputs": [],
      "stateMutability": "nonpayable",
      "type": "function"
    },
    {
      "inputs": [
        {
          "internalType": "uint256",
          "name": "_amount",
          "type": "uint256"
        },
        {
          "internalType": "uint16[]",
          "name": "_tierIds",
          "type": "uint16[]"
        },
        {
          "internalType": "bool",
          "name": "_isManualMint",
          "type": "bool"
        }
      ],
      "name": "recordMint",
      "outputs": [
        {
          "internalType": "uint256[]",
          "name": "tokenIds",
          "type": "uint256[]"
        },
        {
          "internalType": "uint256",
          "name": "leftoverAmount",
          "type": "uint256"
        }
      ],
      "stateMutability": "nonpayable",
      "type": "function"
    },
    {
      "inputs": [
        {
          "internalType": "uint256",
          "name": "_amount",
          "type": "uint256"
        }
      ],
      "name": "recordMintBestAvailableTier",
      "outputs": [
        {
          "internalType": "uint256",
          "name": "tokenId",
          "type": "uint256"
        },
        {
          "internalType": "uint256",
          "name": "tierId",
          "type": "uint256"
        },
        {
          "internalType": "uint256",
          "name": "leftoverAmount",
          "type": "uint256"
        }
      ],
      "stateMutability": "nonpayable",
      "type": "function"
    },
    {
      "inputs": [
        {
          "internalType": "uint256",
          "name": "_tierId",
          "type": "uint256"
        },
        {
          "internalType": "uint256",
          "name": "_count",
          "type": "uint256"
        }
      ],
      "name": "recordMintReservesFor",
      "outputs": [
        {
          "internalType": "uint256[]",
          "name": "tokenIds",
          "type": "uint256[]"
        }
      ],
      "stateMutability": "nonpayable",
      "type": "function"
    },
    {
      "inputs": [
        {
          "internalType": "uint256[]",
          "name": "_tierIds",
          "type": "uint256[]"
        }
      ],
      "name": "recordRemoveTierIds",
      "outputs": [],
      "stateMutability": "nonpayable",
      "type": "function"
    },
    {
      "inputs": [
        {
          "internalType": "string",
          "name": "_uri",
          "type": "string"
        }
      ],
      "name": "recordSetBaseUri",
      "outputs": [],
      "stateMutability": "nonpayable",
      "type": "function"
    },
    {
      "inputs": [
        {
          "internalType": "string",
          "name": "_uri",
          "type": "string"
        }
      ],
      "name": "recordSetContractUri",
      "outputs": [],
      "stateMutability": "nonpayable",
      "type": "function"
    },
    {
      "inputs": [
        {
          "internalType": "address",
          "name": "_beneficiary",
          "type": "address"
        }
      ],
      "name": "recordSetDefaultReservedTokenBeneficiary",
      "outputs": [],
      "stateMutability": "nonpayable",
      "type": "function"
    },
    {
      "inputs": [
        {
          "internalType": "uint256",
          "name": "_tokenId",
          "type": "uint256"
        },
        {
          "internalType": "address",
          "name": "_owner",
          "type": "address"
        }
      ],
      "name": "recordSetFirstOwnerOf",
      "outputs": [],
      "stateMutability": "nonpayable",
      "type": "function"
    },
    {
      "inputs": [
        {
          "internalType": "contract IJBTokenUriResolver",
          "name": "_resolver",
          "type": "address"
        }
      ],
      "name": "recordSetTokenUriResolver",
      "outputs": [],
      "stateMutability": "nonpayable",
      "type": "function"
    },
    {
      "inputs": [
        {
          "internalType": "uint256",
          "name": "_tierId",
          "type": "uint256"
        },
        {
          "internalType": "address",
          "name": "_from",
          "type": "address"
        },
        {
          "internalType": "address",
          "name": "_to",
          "type": "address"
        }
      ],
      "name": "recordTransferForTier",
      "outputs": [],
      "stateMutability": "nonpayable",
      "type": "function"
    },
    {
      "inputs": [
        {
          "internalType": "address",
          "name": "_nft",
          "type": "address"
        },
        {
          "internalType": "uint256[]",
          "name": "_tokenIds",
          "type": "uint256[]"
        }
      ],
      "name": "redemptionWeightOf",
      "outputs": [
        {
          "internalType": "uint256",
          "name": "weight",
          "type": "uint256"
        }
      ],
      "stateMutability": "view",
      "type": "function"
    },
    {
      "inputs": [
        {
          "internalType": "address",
          "name": "_nft",
          "type": "address"
        },
        {
          "internalType": "uint256",
          "name": "_tierId",
          "type": "uint256"
        }
      ],
      "name": "reservedTokenBeneficiaryOf",
      "outputs": [
        {
          "internalType": "address",
          "name": "",
          "type": "address"
        }
      ],
      "stateMutability": "view",
      "type": "function"
    },
    {
      "inputs": [
        {
          "internalType": "address",
          "name": "_nft",
          "type": "address"
        },
        {
          "internalType": "uint256",
          "name": "_id",
          "type": "uint256"
        }
      ],
      "name": "tier",
      "outputs": [
        {
          "components": [
            {
              "internalType": "uint256",
              "name": "id",
              "type": "uint256"
            },
            {
              "internalType": "uint256",
              "name": "contributionFloor",
              "type": "uint256"
            },
            {
              "internalType": "uint256",
              "name": "lockedUntil",
              "type": "uint256"
            },
            {
              "internalType": "uint256",
              "name": "remainingQuantity",
              "type": "uint256"
            },
            {
              "internalType": "uint256",
              "name": "initialQuantity",
              "type": "uint256"
            },
            {
              "internalType": "uint256",
              "name": "votingUnits",
              "type": "uint256"
            },
            {
              "internalType": "uint256",
              "name": "reservedRate",
              "type": "uint256"
            },
            {
              "internalType": "address",
              "name": "reservedTokenBeneficiary",
              "type": "address"
            },
            {
              "internalType": "bytes32",
              "name": "encodedIPFSUri",
              "type": "bytes32"
            },
            {
              "internalType": "bool",
              "name": "allowManualMint",
              "type": "bool"
            }
          ],
          "internalType": "struct JB721Tier",
          "name": "",
          "type": "tuple"
        }
      ],
      "stateMutability": "view",
      "type": "function"
    },
    {
      "inputs": [
        {
          "internalType": "address",
          "name": "",
          "type": "address"
        },
        {
          "internalType": "address",
          "name": "",
          "type": "address"
        },
        {
          "internalType": "uint256",
          "name": "",
          "type": "uint256"
        }
      ],
      "name": "tierBalanceOf",
      "outputs": [
        {
          "internalType": "uint256",
          "name": "",
          "type": "uint256"
        }
      ],
      "stateMutability": "view",
      "type": "function"
    },
    {
      "inputs": [
        {
          "internalType": "uint256",
          "name": "_tokenId",
          "type": "uint256"
        }
      ],
      "name": "tierIdOfToken",
      "outputs": [
        {
          "internalType": "uint256",
          "name": "",
          "type": "uint256"
        }
      ],
      "stateMutability": "pure",
      "type": "function"
    },
    {
      "inputs": [
        {
          "internalType": "address",
          "name": "_nft",
          "type": "address"
        },
        {
          "internalType": "uint256",
          "name": "_tokenId",
          "type": "uint256"
        }
      ],
      "name": "tierOfTokenId",
      "outputs": [
        {
          "components": [
            {
              "internalType": "uint256",
              "name": "id",
              "type": "uint256"
            },
            {
              "internalType": "uint256",
              "name": "contributionFloor",
              "type": "uint256"
            },
            {
              "internalType": "uint256",
              "name": "lockedUntil",
              "type": "uint256"
            },
            {
              "internalType": "uint256",
              "name": "remainingQuantity",
              "type": "uint256"
            },
            {
              "internalType": "uint256",
              "name": "initialQuantity",
              "type": "uint256"
            },
            {
              "internalType": "uint256",
              "name": "votingUnits",
              "type": "uint256"
            },
            {
              "internalType": "uint256",
              "name": "reservedRate",
              "type": "uint256"
            },
            {
              "internalType": "address",
              "name": "reservedTokenBeneficiary",
              "type": "address"
            },
            {
              "internalType": "bytes32",
              "name": "encodedIPFSUri",
              "type": "bytes32"
            },
            {
              "internalType": "bool",
              "name": "allowManualMint",
              "type": "bool"
            }
          ],
          "internalType": "struct JB721Tier",
          "name": "",
          "type": "tuple"
        }
      ],
      "stateMutability": "view",
      "type": "function"
    },
    {
      "inputs": [
        {
          "internalType": "address",
          "name": "_nft",
          "type": "address"
        },
        {
          "internalType": "address",
          "name": "_account",
          "type": "address"
        },
        {
          "internalType": "uint256",
          "name": "_tierId",
          "type": "uint256"
        }
      ],
      "name": "tierVotingUnitsOf",
      "outputs": [
        {
          "internalType": "uint256",
          "name": "",
          "type": "uint256"
        }
      ],
      "stateMutability": "view",
      "type": "function"
    },
    {
      "inputs": [
        {
          "internalType": "address",
          "name": "_nft",
          "type": "address"
        },
        {
          "internalType": "uint256",
          "name": "_startingId",
          "type": "uint256"
        },
        {
          "internalType": "uint256",
          "name": "_size",
          "type": "uint256"
        }
      ],
      "name": "tiers",
      "outputs": [
        {
          "components": [
            {
              "internalType": "uint256",
              "name": "id",
              "type": "uint256"
            },
            {
              "internalType": "uint256",
              "name": "contributionFloor",
              "type": "uint256"
            },
            {
              "internalType": "uint256",
              "name": "lockedUntil",
              "type": "uint256"
            },
            {
              "internalType": "uint256",
              "name": "remainingQuantity",
              "type": "uint256"
            },
            {
              "internalType": "uint256",
              "name": "initialQuantity",
              "type": "uint256"
            },
            {
              "internalType": "uint256",
              "name": "votingUnits",
              "type": "uint256"
            },
            {
              "internalType": "uint256",
              "name": "reservedRate",
              "type": "uint256"
            },
            {
              "internalType": "address",
              "name": "reservedTokenBeneficiary",
              "type": "address"
            },
            {
              "internalType": "bytes32",
              "name": "encodedIPFSUri",
              "type": "bytes32"
            },
            {
              "internalType": "bool",
              "name": "allowManualMint",
              "type": "bool"
            }
          ],
          "internalType": "struct JB721Tier[]",
          "name": "_tiers",
          "type": "tuple[]"
        }
      ],
      "stateMutability": "view",
      "type": "function"
    },
    {
      "inputs": [
        {
          "internalType": "address",
          "name": "",
          "type": "address"
        }
      ],
      "name": "tokenUriResolverOf",
      "outputs": [
        {
          "internalType": "contract IJBTokenUriResolver",
          "name": "",
          "type": "address"
        }
      ],
      "stateMutability": "view",
      "type": "function"
    },
    {
      "inputs": [
        {
          "internalType": "address",
          "name": "_nft",
          "type": "address"
        }
      ],
      "name": "totalRedemptionWeight",
      "outputs": [
        {
          "internalType": "uint256",
          "name": "weight",
          "type": "uint256"
        }
      ],
      "stateMutability": "view",
      "type": "function"
    },
    {
      "inputs": [
        {
          "internalType": "address",
          "name": "_nft",
          "type": "address"
        }
      ],
      "name": "totalSupply",
      "outputs": [
        {
          "internalType": "uint256",
          "name": "supply",
          "type": "uint256"
        }
      ],
      "stateMutability": "view",
      "type": "function"
    },
    {
      "inputs": [
        {
          "internalType": "address",
          "name": "_nft",
          "type": "address"
        },
        {
          "internalType": "address",
          "name": "_account",
          "type": "address"
        }
      ],
      "name": "votingUnitsOf",
      "outputs": [
        {
          "internalType": "uint256",
          "name": "units",
          "type": "uint256"
        }
      ],
      "stateMutability": "view",
      "type": "function"
    }
  ],
  "bytecode": {
    "object": "0x608060405234801561001057600080fd5b506136e1806100206000396000f3fe608060405234801561001057600080fd5b506004361061023d5760003560e01c8063879791f31161013b578063c8df1710116100b8578063e4dc2aa41161007c578063e4dc2aa41461074e578063eaa19ab314610761578063f1bea54f14610782578063f682eeaf146107a2578063f7888aec146107b557600080fd5b8063c8df1710146106c5578063cb827e32146106d8578063d0cf48a5146106eb578063d67b78fd146106fe578063d84a72c01461071157600080fd5b8063aab0cd80116100ff578063aab0cd8014610634578063b67cb04714610654578063baa7e80e14610667578063bd51923c14610687578063c2c55f94146106b257600080fd5b8063879791f31461054d5780638cec7d391461057b5780638ed6c010146105c4578063911c80b5146105f8578063933555781461062157600080fd5b806335314b92116101c95780636262bcb21161018d5780636262bcb21461040c5780636825bb801461041f5780637473c9a21461044a578063845104de1461046a57806386bc2be31461053a57600080fd5b806335314b921461037257806337f44652146103855780633eb2556a146103b657806342f9914b146103d65780635f646611146103e957600080fd5b806317161f7d1161021057806317161f7d146102d157806320512ba11461030e5780632ae5e492146103215780632b7e6ef0146103345780632e4d0ea81461035f57600080fd5b8063086bb19a146102425780630fab094714610257578063136e651c1461029d578063144cc2d4146102b0575b600080fd5b610255610250366004612bde565b6107c8565b005b610280610265366004612bde565b600c602052600090815260409020546001600160a01b031681565b6040516001600160a01b0390911681526020015b60405180910390f35b6102806102ab366004612bfb565b610966565b6102c36102be366004612c72565b6109bf565b604051908152602001610294565b6102556102df366004612bde565b33600090815260096020526040902080546001600160a01b0319166001600160a01b0392909216919091179055565b61025561031c366004612cc6565b610a3d565b6102c361032f366004612bde565b610adc565b6102c3610342366004612bfb565b600860209081526000928352604080842090915290825290205481565b6102c361036d366004612d07565b610c25565b6102c3610380366004612bfb565b610caa565b6102c3610393366004612d07565b600660209081526000938452604080852082529284528284209052825290205481565b6103c96103c4366004612d48565b610d5d565b6040516102949190612df6565b6102c36103e4366004612e45565b6110c0565b6103fc6103f7366004612bfb565b6110cf565b6040519015158152602001610294565b61025561041a366004612e5e565b611107565b6102c361042d366004612bfb565b600760209081526000928352604080842090915290825290205481565b61045d610458366004612bfb565b611126565b6040516102949190612ecf565b6104ff610478366004612bde565b604080516080810182526000808252602082018190529181018290526060810191909152506001600160a01b03166000908152600360209081526040918290208251608081018452905460ff808216151583526101008204811615159383019390935262010000810483161515938201939093526301000000909204161515606082015290565b604051610294919081511515815260208083015115159082015260408083015115159082015260609182015115159181019190915260800190565b610255610548366004612f70565b61133e565b61056061055b366004612e45565b61140a565b60408051938452602084019290925290820152606001610294565b610255610589366004613005565b336000908152600a602090815260408083209483529390529190912080546001600160a01b0319166001600160a01b03909216919091179055565b6102806105d2366004612bfb565b600a6020908152600092835260408084209091529082529020546001600160a01b031681565b610280610606366004612bde565b6009602052600090815260409020546001600160a01b031681565b6102c361062f366004613035565b611659565b610647610642366004612bde565b611709565b6040516102949190613063565b61045d610662366004612bfb565b6117a3565b61067a6106753660046130b1565b6119ca565b604051610294919061310e565b6102c3610695366004612bfb565b600e60209081526000928352604080842090915290825290205481565b6102556106c0366004613121565b611be1565b6102c36106d3366004612bfb565b611c74565b6102556106e6366004613163565b611cad565b61067a6106f9366004613194565b611cc8565b61025561070c366004612e5e565b612415565b61025561071f366004612bde565b336000908152600c6020526040902080546001600160a01b0319166001600160a01b0392909216919091179055565b6102c361075c366004612bde565b61242f565b61077461076f3660046132a4565b6124b7565b604051610294929190613302565b6102c3610790366004612bde565b60056020526000908152604090205481565b6106476107b0366004612bde565b6127fc565b6102c36107c3366004613035565b612815565b6001600160a01b038116600090815260056020526040812054906107eb83612881565b6001600160a01b038416600090815260046020526040812091925090819061081390846128b4565b90505b82156109215761082681846128f9565b15610850576001600160a01b038516600090815260046020526040902061084d90846128b4565b90505b61085a8184612912565b61090f5761086982600161333a565b83146108c1576001600160a01b03851660009081526020818152604080832085845290915290205483146108bc576001600160a01b03851660009081526020818152604080832085845290915290208390555b61090b565b6001600160a01b0385166000908152602081815260408083208584529091529020541561090b576001600160a01b0385166000908152602081815260408083208584529091528120555b8291505b61091a858486612931565b9250610816565b6040513381526001600160a01b038616907f4a0f854ce3c180d56f3e9eb47eb064c595bf3de0ab9af45425291e5b1bb733a89060200160405180910390a25050505050565b6001600160a01b038083166000908152600160209081526040808320858452909152812054909116801561099b5790506109b9565b50506001600160a01b03808316600090815260096020526040902054165b92915050565b600081815b81811015610a34576001600160a01b038616600090815260026020526040812090610a068787858181106109fa576109fa61334d565b905060200201356110c0565b8152602081019190915260400160002054610a2a906001600160501b03168461333a565b92506001016109c4565b50509392505050565b806000805b82811015610ad557848482818110610a5c57610a5c61334d565b336000908152600260209081526040808320938202959095013580835292905292909220549193505042600160501b90910465ffffffffffff1610610ab457604051636b73d51160e11b815260040160405180910390fd5b336000908152600460205260409020610acd9083612984565b600101610a42565b5050505050565b6001600160a01b038116600090815260056020526040812054610afd612b1e565b60005b82811015610c1d576001600160a01b038516600090815260026020526040812090610b2c83600161333a565b81526020808201929092526040908101600020815160e08101835290546001600160501b0381168252600160501b810465ffffffffffff1693820193909352600160801b830464ffffffffff90811692820192909252600160a81b83049091166060820152600160d01b820461ffff9081166080830152600160e01b83041660a0820152600160f01b90910460ff16151560c08201529150610bcf8582846129bc565b82604001518360600151610be39190613363565b8351610bf69164ffffffffff1690613388565b6001600160501b0316610c09919061333a565b610c13908561333a565b9350600101610b00565b505050919050565b6001600160a01b0380841660009081526006602090815260408083209386168352928152828220848352905290812054808203610c66576000915050610ca3565b6001600160a01b0385166000908152600260209081526040808320868452909152902054610c9f90600160d01b900461ffff16826133b7565b9150505b9392505050565b6001600160a01b03821660009081526002602090815260408083208484528252808320815160e08101835290546001600160501b0381168252600160501b810465ffffffffffff1693820193909352600160801b830464ffffffffff90811692820192909252600160a81b83049091166060820152600160d01b820461ffff9081166080830152600160e01b83041660a0820152600160f01b90910460ff16151560c0820152610ca390849084906129bc565b6001600160a01b038316600090815260056020526040902054606090826001600160401b03811115610d9157610d91612ede565b604051908082528060200260200182016040528015610dca57816020015b610db7612b5a565b815260200190600190039081610daf5790505b50915060008085600003610de657610de187612881565b610de8565b855b9050610df2612b1e565b6001600160a01b0388166000908152600460205260408120610e1490846128b4565b90505b8215801590610e2557508684105b156110a957610e3481846128f9565b15610e5e576001600160a01b0389166000908152600460205260409020610e5b90846128b4565b90505b610e688184612912565b61109757600260008a6001600160a01b03166001600160a01b0316815260200190815260200160002060008481526020019081526020016000206040518060e00160405290816000820160009054906101000a90046001600160501b03166001600160501b03166001600160501b0316815260200160008201600a9054906101000a900465ffffffffffff1665ffffffffffff1665ffffffffffff1681526020016000820160109054906101000a900464ffffffffff1664ffffffffff1664ffffffffff1681526020016000820160159054906101000a900464ffffffffff1664ffffffffff1664ffffffffff16815260200160008201601a9054906101000a900461ffff1661ffff1661ffff16815260200160008201601c9054906101000a900461ffff1661ffff1661ffff16815260200160008201601e9054906101000a900460ff161515151581525050915060405180610140016040528084815260200183600001516001600160501b03168152602001836020015165ffffffffffff168152602001836040015164ffffffffff168152602001836060015164ffffffffff168152602001836080015161ffff1681526020018360a0015161ffff1681526020016110368b86610966565b6001600160a01b0390811682528b166000908152600e60209081526040808320888452825291829020549083015260c085015115159101528685611079816133d6565b96508151811061108b5761108b61334d565b60200260200101819052505b6110a2898487612931565b9250610e17565b8684146110b4578386525b50505050509392505050565b60006109b9620f424083613405565b6001600160a01b038216600090815260046020526040812081906110f390846128b4565b90506110ff8184612912565b949350505050565b336000908152600b6020526040902061112182848361349b565b505050565b61112e612b5a565b600060026000856001600160a01b03166001600160a01b0316815260200190815260200160002060008481526020019081526020016000206040518060e00160405290816000820160009054906101000a90046001600160501b03166001600160501b03166001600160501b0316815260200160008201600a9054906101000a900465ffffffffffff1665ffffffffffff1665ffffffffffff1681526020016000820160109054906101000a900464ffffffffff1664ffffffffff1664ffffffffff1681526020016000820160159054906101000a900464ffffffffff1664ffffffffff1664ffffffffff16815260200160008201601a9054906101000a900461ffff1661ffff1661ffff16815260200160008201601c9054906101000a900461ffff1661ffff1661ffff16815260200160008201601e9054906101000a900460ff161515151581525050905060405180610140016040528084815260200182600001516001600160501b03168152602001826020015165ffffffffffff168152602001826040015164ffffffffff168152602001826060015164ffffffffff168152602001826080015161ffff1681526020018260a0015161ffff1681526020016112fa8686610966565b6001600160a01b03908116825286166000908152600e60209081526040808320888452825291829020549083015260c0909301511515920191909152905092915050565b80516000805b828110156114045783818151811061135e5761135e61334d565b602002602001015191506000611373836110c0565b336000908152600860209081526040808320848452909152812080549293509061139c836133d6565b909155505033600090815260026020908152604080832084845290915290208054600160801b900464ffffffffff169060106113d78361355a565b91906101000a81548164ffffffffff021916908364ffffffffff1602179055505081600101915050611344565b50505050565b3360009081526005602052604081205481908190611426612b1e565b600061143133612881565b33600090815260046020526040812091925090819061145090846128b4565b90505b82156115b357336000908152600260209081526040808320868452825291829020825160e08101845290546001600160501b038116825265ffffffffffff600160501b8204169282019290925264ffffffffff600160801b8304811693820193909352600160a81b8204909216606083015261ffff600160d01b820481166080840152600160e01b82041660a083015260ff600160f01b90910416151560c0820152935061150181846128f9565b156115225733600090815260046020526040902061151f90846128b4565b90505b83516001600160501b031689101561153d5760009250611453565b6115478184612912565b15801561155d575083516001600160501b031682105b8015611588575061156f3384866129bc565b846040015164ffffffffff16611585919061357e565b15155b156115a15782965083600001516001600160501b031691505b6115ac338487612931565b9250611453565b866000036115c35788955061164d565b3360008181526002602090815260408083208b84528252808320938352600882528083208b8452909152902054815460001964ffffffffff600160801b808404821692830182160264ffffffffff60801b199093169290921780855561163d938c93600160a81b9092048216929092036001011601612af6565b9850611649838b61357e565b9650505b50505050509193909250565b6001600160a01b03821660009081526005602052604081205481815b8015611700576001600160a01b038087166000908152600660209081526040808320938916835292815282822084835290522054915081156116f7576001600160a01b03861660009081526002602090815260408083208484529091529020546116ea90600160d01b900461ffff16836133b7565b6116f4908561333a565b93505b60001901611675565b50505092915050565b600d602052600090815260409020805461172290613419565b80601f016020809104026020016040519081016040528092919081815260200182805461174e90613419565b801561179b5780601f106117705761010080835404028352916020019161179b565b820191906000526020600020905b81548152906001019060200180831161177e57829003601f168201915b505050505081565b6117ab612b5a565b60006117b6836110c0565b9050600060026000866001600160a01b03166001600160a01b0316815260200190815260200160002060008381526020019081526020016000206040518060e00160405290816000820160009054906101000a90046001600160501b03166001600160501b03166001600160501b0316815260200160008201600a9054906101000a900465ffffffffffff1665ffffffffffff1665ffffffffffff1681526020016000820160109054906101000a900464ffffffffff1664ffffffffff1664ffffffffff1681526020016000820160159054906101000a900464ffffffffff1664ffffffffff1664ffffffffff16815260200160008201601a9054906101000a900461ffff1661ffff1661ffff16815260200160008201601c9054906101000a900461ffff1661ffff1661ffff16815260200160008201601e9054906101000a900460ff161515151581525050905060405180610140016040528083815260200182600001516001600160501b03168152602001826020015165ffffffffffff168152602001826040015164ffffffffff168152602001826060015164ffffffffff168152602001826080015161ffff1681526020018260a0015161ffff1681526020016119848785610966565b6001600160a01b039081168252969096166000908152600e6020908152604080832095835294815290849020549087015260c09190910151151591909401525090919050565b3360008181526002602090815260408083208684528252808320815160e08101835281546001600160501b0381168252600160501b810465ffffffffffff1694820194909452600160801b840464ffffffffff90811693820193909352600160a81b8404909216606080840191909152600160d01b840461ffff9081166080850152600160e01b85041660a0840152600160f01b90930460ff16151560c08301529193919291611a7b9187906129bc565b905080841115611a9e5760405163226f999960e11b815260040160405180910390fd5b33600090815260076020908152604080832088845290915281208054869290611ac890849061333a565b909155508490506001600160401b03811115611ae657611ae6612ede565b604051908082528060200260200182016040528015611b0f578160200160208202803683370190505b503360009081526008602090815260408083208984529091528120549194505b85811015611bd757611bb2878386600001601081819054906101000a900464ffffffffff16611b5d90613591565b91906101000a81548164ffffffffff021916908364ffffffffff16021790558760000160159054906101000a900464ffffffffff16611b9c9190613363565b64ffffffffff16611bad919061333a565b612af6565b858281518110611bc457611bc461334d565b6020908102919091010152600101611b2f565b5050505092915050565b6001600160a01b03821615611c2e573360009081526006602090815260408083206001600160a01b0386168452825280832086845290915281208054909190611c29906135b2565b909155505b6001600160a01b03811615611121573360009081526006602090815260408083206001600160a01b03851684528252808320868452909152902080546001019055505050565b6001600160a01b0382166000908152600e6020526040812081611c96846110c0565b815260200190815260200160002054905092915050565b336000908152600360205260409020819061112182826135d6565b8051336000908152600560205260409020546060919061ffff611ceb838361333a565b1115611d0a57604051631bc68c8b60e11b815260040160405180910390fd5b816001600160401b03811115611d2257611d22612ede565b604051908082528060200260200182016040528015611d4b578160200160208202803683370190505b50925060008115611d6457611d5f33612881565b611d67565b60005b6040805161012081018252600080825260208201819052918101829052606081018290526080810182905260a0810182905260c0810182905260e081018290526101008101829052919250903360009081526003602090815260408083208151608081018352905460ff80821615158352610100820481161515948301949094526201000081048416151592820192909252630100000090910490911615156060820152905b868110156123ee57888181518110611e2757611e2761334d565b6020026020010151925080600014158015611e6c575088611e4960018361357e565b81518110611e5957611e5961334d565b6020026020010151600001518360000151105b15611e8a576040516325ec4a9160e21b815260040160405180910390fd5b81602001518015611e9e5750606083015115155b15611ebc57604051630189200360e11b815260040160405180910390fd5b815180611eca57508260e001515b8015611ed95750608083015115155b15611ef75760405163a75b1cd560e01b815260040160405180910390fd5b81604001518015611f0957508260e001515b15611f27576040516330ec637f60e01b815260040160405180910390fd5b8260400151600003611f4c57604051631e0a863160e31b815260040160405180910390fd5b6000611f58828861333a565b611f6390600161333a565b90506040518060e0016040528085600001516001600160501b03168152602001856020015165ffffffffffff168152602001856040015164ffffffffff168152602001856040015164ffffffffff168152602001856060015161ffff168152602001856080015161ffff1681526020018560e00151151581525060026000336001600160a01b03166001600160a01b03168152602001908152602001600020600083815260200190815260200160002060008201518160000160006101000a8154816001600160501b0302191690836001600160501b03160217905550602082015181600001600a6101000a81548165ffffffffffff021916908365ffffffffffff16021790555060408201518160000160106101000a81548164ffffffffff021916908364ffffffffff16021790555060608201518160000160156101000a81548164ffffffffff021916908364ffffffffff160217905550608082015181600001601a6101000a81548161ffff021916908361ffff16021790555060a082015181600001601c6101000a81548161ffff021916908361ffff16021790555060c082015181600001601e6101000a81548160ff02191690831515021790555090505060006001600160a01b03168460a001516001600160a01b03161415801561216d57503360009081526009602052604090205460a08501516001600160a01b03908116911614155b156121f057836101000151156121b35760a084015133600090815260096020526040902080546001600160a01b0319166001600160a01b039092169190911790556121f0565b60a0840151336000908152600160209081526040808320858452909152902080546001600160a01b0319166001600160a01b039092169190911790555b60c08401511561221b5760c0840151336000908152600e602090815260408083208584529091529020555b85156123c75733600090815260046020526040812087919061223d90836128b4565b905060005b82156123c35761225282846128f9565b156122735733600090815260046020526040902061227090846128b4565b91505b61227e33848c612931565b33600090815260026020908152604080832087845290915290205488519192506001600160501b03161115612379576122b884600161333a565b83146122da573360009081526020818152604080832087845290915290208390555b89831480156122ee57506122ee8284612912565b1561230157896122fd816135b2565b9a50505b61230c60018561357e565b881415806123315750336000908152602081815260408083208b845290915290205415155b1561236a5761234160018561357e565b881461234d5783612350565b60005b336000908152602081815260408083208c84529091529020555b82985083975060009250612242565b806000036123ba5761238c83600161333a565b84146123ae573360009081526020818152604080832086845290915290208490555b83985060009250612242565b91965081612242565b5050505b808983815181106123da576123da61334d565b602090810291909101015250600101611e0d565b506123f9868661333a565b3360009081526005602052604090205550949695505050505050565b336000908152600d6020526040902061112182848361349b565b6001600160a01b0381166000908152600560205260408120548190805b8015610c1d576001600160a01b03851660009081526002602090815260408083208484529091529020805490935061249b9064ffffffffff600160801b8204811691600160a81b900416613363565b6124ac9064ffffffffff168561333a565b93506000190161244c565b60608483600080826001600160401b038111156124d6576124d6612ede565b6040519080825280602002602001820160405280156124ff578160200160208202803683370190505b50945060006125488989600081811061251a5761251a61334d565b905060200201602081019061252f9190613673565b3360009081526004602052604090209061ffff166128b4565b905060005b848110156127ee578989828181106125675761256761334d565b905060200201602081019061257c9190613673565b61ffff16925061258c82846128f9565b156125ad573360009081526004602052604090206125aa90846128b4565b91505b6125b78284612912565b156125d55760405163d32cb5c160e01b815260040160405180910390fd5b3360009081526002602090815260408083208684529091529020935087801561260757508354600160f01b900460ff16155b1561262557604051632f792d3960e11b815260040160405180910390fd5b8354600160a81b900464ffffffffff1660000361265557604051630de5859f60e01b815260040160405180910390fd5b83546001600160501b031686101561268057604051632cd294cf60e01b815260040160405180910390fd5b6040805160e08101825285546001600160501b0381168252600160501b810465ffffffffffff166020830152600160801b810464ffffffffff90811693830193909352600160a81b81049092166060820152600160d01b820461ffff9081166080830152600160e01b83041660a0820152600160f01b90910460ff16151560c082015261271090339085906129bc565b845461272a9190600160801b900464ffffffffff1661357e565b60000361274a5760405163985a45d960e01b815260040160405180910390fd5b336000908152600860209081526040808320868452909152902054845460001964ffffffffff600160801b808404821692830182160264ffffffffff60801b19909316929092178088556127b2938793600160a81b9092048216929092036001011601612af6565b8782815181106127c4576127c461334d565b602090810291909101015283546127e4906001600160501b03168761357e565b955060010161254d565b505050505094509492505050565b600b602052600090815260409020805461172290613419565b6001600160a01b038216600090815260056020526040812054805b8015612879576001600160a01b03808616600090815260066020908152604080832093881683529281528282208483529052205461286e908461333a565b925060001901612830565b505092915050565b6001600160a01b038116600090815260208181526040808320838052909152812054908190036128af575060015b919050565b604080518082019091526000808252602082015260006128d383612b10565b604080518082018252600083815260209788529190912054815294850152509192915050565b6000826020015161290983612b10565b14159392505050565b600061292061010083613697565b83516001911c811614905092915050565b6001600160a01b0383166000908152602081815260408083208584529091528120548015612960579050610ca3565b828410612971576000915050610ca3565b61297c84600161333a565b915050610ca3565b600061298f82612b10565b905061299d61010083613697565b6000918252602093909352604090208054600190931b90921790915550565b6000816060015164ffffffffff16600014806129de575060a082015161ffff16155b156129eb57506000610ca3565b816040015164ffffffffff16826060015164ffffffffff1603612a1057506001610ca3565b6001600160a01b0384166000908152600760209081526040808320868452909152908190205490830151606084015164ffffffffff91821691612a559184911661357e565b03612a64576000915050610ca3565b60008184604001518560600151612a7b9190613363565b64ffffffffff16612a8c919061357e565b905060008460a0015161ffff1682612aa491906133b7565b90506000612ab461271083613405565b90506000612ac4826127106133b7565b612ace908461357e565b1115612ae057612add816133d6565b90505b612aea848261357e565b98975050505050505050565b600081612b06620f4240856133b7565b610ca3919061333a565b60006109b961010083613405565b6040805160e081018252600080825260208201819052918101829052606081018290526080810182905260a0810182905260c081019190915290565b6040518061014001604052806000815260200160008152602001600081526020016000815260200160008152602001600081526020016000815260200160006001600160a01b03168152602001600080191681526020016000151581525090565b6001600160a01b0381168114612bd057600080fd5b50565b80356128af81612bbb565b600060208284031215612bf057600080fd5b8135610ca381612bbb565b60008060408385031215612c0e57600080fd5b8235612c1981612bbb565b946020939093013593505050565b60008083601f840112612c3957600080fd5b5081356001600160401b03811115612c5057600080fd5b6020830191508360208260051b8501011115612c6b57600080fd5b9250929050565b600080600060408486031215612c8757600080fd5b8335612c9281612bbb565b925060208401356001600160401b03811115612cad57600080fd5b612cb986828701612c27565b9497909650939450505050565b60008060208385031215612cd957600080fd5b82356001600160401b03811115612cef57600080fd5b612cfb85828601612c27565b90969095509350505050565b600080600060608486031215612d1c57600080fd5b8335612d2781612bbb565b92506020840135612d3781612bbb565b929592945050506040919091013590565b600080600060608486031215612d5d57600080fd5b8335612d6881612bbb565b95602085013595506040909401359392505050565b805182526020810151602083015260408101516040830152606081015160608301526080810151608083015260a081015160a083015260c081015160c083015260e0810151612dd760e08401826001600160a01b03169052565b5061010081810151908301526101208082015180151582850152611404565b6020808252825182820181905260009190848201906040850190845b81811015612e3957612e25838551612d7d565b928401926101409290920191600101612e12565b50909695505050505050565b600060208284031215612e5757600080fd5b5035919050565b60008060208385031215612e7157600080fd5b82356001600160401b0380821115612e8857600080fd5b818501915085601f830112612e9c57600080fd5b813581811115612eab57600080fd5b866020828501011115612ebd57600080fd5b60209290920196919550909350505050565b61014081016109b98284612d7d565b634e487b7160e01b600052604160045260246000fd5b60405161012081016001600160401b0381118282101715612f1757612f17612ede565b60405290565b604051601f8201601f191681016001600160401b0381118282101715612f4557612f45612ede565b604052919050565b60006001600160401b03821115612f6657612f66612ede565b5060051b60200190565b60006020808385031215612f8357600080fd5b82356001600160401b03811115612f9957600080fd5b8301601f81018513612faa57600080fd5b8035612fbd612fb882612f4d565b612f1d565b81815260059190911b82018301908381019087831115612fdc57600080fd5b928401925b82841015612ffa57833582529284019290840190612fe1565b979650505050505050565b6000806040838503121561301857600080fd5b82359150602083013561302a81612bbb565b809150509250929050565b6000806040838503121561304857600080fd5b823561305381612bbb565b9150602083013561302a81612bbb565b600060208083528351808285015260005b8181101561309057858101830151858201604001528201613074565b506000604082860101526040601f19601f8301168501019250505092915050565b600080604083850312156130c457600080fd5b50508035926020909101359150565b600081518084526020808501945080840160005b83811015613103578151875295820195908201906001016130e7565b509495945050505050565b602081526000610ca360208301846130d3565b60008060006060848603121561313657600080fd5b83359250602084013561314881612bbb565b9150604084013561315881612bbb565b809150509250925092565b60006080828403121561317557600080fd5b50919050565b8015158114612bd057600080fd5b80356128af8161317b565b600060208083850312156131a757600080fd5b82356001600160401b038111156131bd57600080fd5b8301601f810185136131ce57600080fd5b80356131dc612fb882612f4d565b81815261012091820283018401918482019190888411156131fc57600080fd5b938501935b838510156132985780858a0312156132195760008081fd5b613221612ef4565b85358152868601358782015260408087013590820152606080870135908201526080808701359082015260a0613258818801612bd3565b9082015260c0868101359082015260e0613273818801613189565b90820152610100613285878201613189565b9082015283529384019391850191613201565b50979650505050505050565b600080600080606085870312156132ba57600080fd5b8435935060208501356001600160401b038111156132d757600080fd5b6132e387828801612c27565b90945092505060408501356132f78161317b565b939692955090935050565b60408152600061331560408301856130d3565b90508260208301529392505050565b634e487b7160e01b600052601160045260246000fd5b808201808211156109b9576109b9613324565b634e487b7160e01b600052603260045260246000fd5b64ffffffffff82811682821603908082111561338157613381613324565b5092915050565b60006001600160501b03808316818516818304811182151516156133ae576133ae613324565b02949350505050565b60008160001904831182151516156133d1576133d1613324565b500290565b6000600182016133e8576133e8613324565b5060010190565b634e487b7160e01b600052601260045260246000fd5b600082613414576134146133ef565b500490565b600181811c9082168061342d57607f821691505b60208210810361317557634e487b7160e01b600052602260045260246000fd5b601f82111561112157600081815260208120601f850160051c810160208610156134745750805b601f850160051c820191505b8181101561349357828155600101613480565b505050505050565b6001600160401b038311156134b2576134b2612ede565b6134c6836134c08354613419565b8361344d565b6000601f8411600181146134fa57600085156134e25750838201355b600019600387901b1c1916600186901b178355610ad5565b600083815260209020601f19861690835b8281101561352b578685013582556020948501946001909201910161350b565b50868210156135485760001960f88860031b161c19848701351681555b505060018560011b0183555050505050565b600064ffffffffff80831681810361357457613574613324565b6001019392505050565b818103818111156109b9576109b9613324565b600064ffffffffff8216806135a8576135a8613324565b6000190192915050565b6000816135c1576135c1613324565b506000190190565b600081356109b98161317b565b81356135e18161317b565b815460ff19811691151560ff16918217835560208401356136018161317b565b61ff0090151560081b1661ffff19821683178117845560408501356136258161317b565b62ff000081151560101b168462ffffff1985161783171785555050505061366f613651606084016135c9565b82805463ff000000191691151560181b63ff00000016919091179055565b5050565b60006020828403121561368557600080fd5b813561ffff81168114610ca357600080fd5b6000826136a6576136a66133ef565b50069056fea2646970667358221220d2c6e5b73715bf4162aaf3706a32c70d35732733c8aa8fe13014c8c89ccda9cf64736f6c63430008100033",
    "linkReferences": {}
  },
  "methodIdentifiers": {
    "balanceOf(address,address)": "f7888aec",
    "baseUriOf(address)": "f682eeaf",
    "cleanTiers(address)": "086bb19a",
    "contractUriOf(address)": "aab0cd80",
    "defaultReservedTokenBeneficiaryOf(address)": "911c80b5",
    "encodedIPFSUriOf(address,uint256)": "bd51923c",
    "encodedTierIPFSUriOf(address,uint256)": "c8df1710",
    "firstOwnerOf(address,uint256)": "8ed6c010",
    "flagsOf(address)": "845104de",
    "isTierRemoved(address,uint256)": "5f646611",
    "maxTierIdOf(address)": "f1bea54f",
    "numberOfBurnedFor(address,uint256)": "2b7e6ef0",
    "numberOfReservedTokensOutstandingFor(address,uint256)": "35314b92",
    "numberOfReservesMintedFor(address,uint256)": "6825bb80",
    "recordAddTiers((uint256,uint256,uint256,uint256,uint256,address,bytes32,bool,bool)[])": "d0cf48a5",
    "recordBurn(uint256[])": "86bc2be3",
    "recordFlags((bool,bool,bool,bool))": "cb827e32",
    "recordMint(uint256,uint16[],bool)": "eaa19ab3",
    "recordMintBestAvailableTier(uint256)": "879791f3",
    "recordMintReservesFor(uint256,uint256)": "baa7e80e",
    "recordRemoveTierIds(uint256[])": "20512ba1",
    "recordSetBaseUri(string)": "6262bcb2",
    "recordSetContractUri(string)": "d67b78fd",
    "recordSetDefaultReservedTokenBeneficiary(address)": "17161f7d",
    "recordSetFirstOwnerOf(uint256,address)": "8cec7d39",
    "recordSetTokenUriResolver(address)": "d84a72c0",
    "recordTransferForTier(uint256,address,address)": "c2c55f94",
    "redemptionWeightOf(address,uint256[])": "144cc2d4",
    "reservedTokenBeneficiaryOf(address,uint256)": "136e651c",
    "tier(address,uint256)": "7473c9a2",
    "tierBalanceOf(address,address,uint256)": "37f44652",
    "tierIdOfToken(uint256)": "42f9914b",
    "tierOfTokenId(address,uint256)": "b67cb047",
    "tierVotingUnitsOf(address,address,uint256)": "2e4d0ea8",
    "tiers(address,uint256,uint256)": "3eb2556a",
    "tokenUriResolverOf(address)": "0fab0947",
    "totalRedemptionWeight(address)": "2ae5e492",
    "totalSupply(address)": "e4dc2aa4",
    "votingUnitsOf(address,address)": "93355578"
  },
  "id": 5
}