{
  "abi": [
    {
      "inputs": [],
      "name": "INSUFFICIENT_AMOUNT",
      "type": "error"
    },
    {
      "inputs": [],
      "name": "INSUFFICIENT_RESERVES",
      "type": "error"
    },
    {
      "inputs": [],
      "name": "INVALID_PRICE_SORT_ORDER",
      "type": "error"
    },
    {
      "inputs": [],
      "name": "INVALID_TIER",
      "type": "error"
    },
    {
      "inputs": [],
      "name": "NO_QUANTITY",
      "type": "error"
    },
    {
      "inputs": [],
      "name": "OUT",
      "type": "error"
    },
    {
      "inputs": [],
      "name": "RESERVED_RATE_NOT_ALLOWED",
      "type": "error"
    },
    {
      "inputs": [],
      "name": "TIER_LOCKED",
      "type": "error"
    },
    {
      "inputs": [],
      "name": "TIER_REMOVED",
      "type": "error"
    },
    {
      "inputs": [],
      "name": "VOTING_UNITS_NOT_ALLOWED",
      "type": "error"
    },
    {
      "anonymous": false,
      "inputs": [
        {
          "indexed": true,
          "internalType": "address",
          "name": "nft",
          "type": "address"
        },
        {
          "indexed": false,
          "internalType": "address",
          "name": "caller",
          "type": "address"
        }
      ],
      "name": "CleanTiers",
      "type": "event"
    },
    {
      "inputs": [
        {
          "internalType": "address",
          "name": "_nft",
          "type": "address"
        },
        {
          "internalType": "address",
          "name": "_owner",
          "type": "address"
        }
      ],
      "name": "balanceOf",
      "outputs": [
        {
          "internalType": "uint256",
          "name": "balance",
          "type": "uint256"
        }
      ],
      "stateMutability": "view",
      "type": "function"
    },
    {
      "inputs": [
        {
          "internalType": "address",
          "name": "",
          "type": "address"
        }
      ],
      "name": "baseUriOf",
      "outputs": [
        {
          "internalType": "string",
          "name": "",
          "type": "string"
        }
      ],
      "stateMutability": "view",
      "type": "function"
    },
    {
      "inputs": [
        {
          "internalType": "address",
          "name": "_nft",
          "type": "address"
        }
      ],
      "name": "cleanTiers",
      "outputs": [],
      "stateMutability": "nonpayable",
      "type": "function"
    },
    {
      "inputs": [
        {
          "internalType": "address",
          "name": "",
          "type": "address"
        }
      ],
      "name": "contractUriOf",
      "outputs": [
        {
          "internalType": "string",
          "name": "",
          "type": "string"
        }
      ],
      "stateMutability": "view",
      "type": "function"
    },
    {
      "inputs": [
        {
          "internalType": "address",
          "name": "",
          "type": "address"
        }
      ],
      "name": "defaultReservedTokenBeneficiaryOf",
      "outputs": [
        {
          "internalType": "address",
          "name": "",
          "type": "address"
        }
      ],
      "stateMutability": "view",
      "type": "function"
    },
    {
      "inputs": [
        {
          "internalType": "address",
          "name": "",
          "type": "address"
        },
        {
          "internalType": "uint256",
          "name": "",
          "type": "uint256"
        }
      ],
      "name": "encodedIPFSUriOf",
      "outputs": [
        {
          "internalType": "bytes32",
          "name": "",
          "type": "bytes32"
        }
      ],
      "stateMutability": "view",
      "type": "function"
    },
    {
      "inputs": [
        {
          "internalType": "address",
          "name": "_nft",
          "type": "address"
        },
        {
          "internalType": "uint256",
          "name": "_tokenId",
          "type": "uint256"
        }
      ],
      "name": "encodedTierIPFSUriOf",
      "outputs": [
        {
          "internalType": "bytes32",
          "name": "",
          "type": "bytes32"
        }
      ],
      "stateMutability": "view",
      "type": "function"
    },
    {
      "inputs": [
        {
          "internalType": "address",
          "name": "",
          "type": "address"
        },
        {
          "internalType": "uint256",
          "name": "",
          "type": "uint256"
        }
      ],
      "name": "firstOwnerOf",
      "outputs": [
        {
          "internalType": "address",
          "name": "",
          "type": "address"
        }
      ],
      "stateMutability": "view",
      "type": "function"
    },
    {
      "inputs": [
        {
          "internalType": "address",
          "name": "",
          "type": "address"
        },
        {
          "internalType": "uint256",
          "name": "",
          "type": "uint256"
        }
      ],
      "name": "isTierRemoved",
      "outputs": [
        {
          "internalType": "bool",
          "name": "",
          "type": "bool"
        }
      ],
      "stateMutability": "view",
      "type": "function"
    },
    {
      "inputs": [
        {
          "internalType": "address",
          "name": "",
          "type": "address"
        }
      ],
      "name": "lockReservedTokenChangesFor",
      "outputs": [
        {
          "internalType": "bool",
          "name": "",
          "type": "bool"
        }
      ],
      "stateMutability": "view",
      "type": "function"
    },
    {
      "inputs": [
        {
          "internalType": "address",
          "name": "",
          "type": "address"
        }
      ],
      "name": "lockVotingUnitChangesFor",
      "outputs": [
        {
          "internalType": "bool",
          "name": "",
          "type": "bool"
        }
      ],
      "stateMutability": "view",
      "type": "function"
    },
    {
      "inputs": [
        {
          "internalType": "address",
          "name": "",
          "type": "address"
        }
      ],
      "name": "maxTierId",
      "outputs": [
        {
          "internalType": "uint256",
          "name": "",
          "type": "uint256"
        }
      ],
      "stateMutability": "view",
      "type": "function"
    },
    {
      "inputs": [
        {
          "internalType": "address",
          "name": "_nft",
          "type": "address"
        },
        {
          "internalType": "uint256",
          "name": "_tierId",
          "type": "uint256"
        }
      ],
      "name": "numberOfReservedTokensOutstandingFor",
      "outputs": [
        {
          "internalType": "uint256",
          "name": "",
          "type": "uint256"
        }
      ],
      "stateMutability": "view",
      "type": "function"
    },
    {
      "inputs": [
        {
          "internalType": "address",
          "name": "",
          "type": "address"
        },
        {
          "internalType": "uint256",
          "name": "",
          "type": "uint256"
        }
      ],
      "name": "numberOfReservesMintedFor",
      "outputs": [
        {
          "internalType": "uint256",
          "name": "",
          "type": "uint256"
        }
      ],
      "stateMutability": "view",
      "type": "function"
    },
    {
      "inputs": [
        {
          "components": [
            {
              "internalType": "uint256",
              "name": "contributionFloor",
              "type": "uint256"
            },
            {
              "internalType": "uint256",
              "name": "lockedUntil",
              "type": "uint256"
            },
            {
              "internalType": "uint256",
              "name": "initialQuantity",
              "type": "uint256"
            },
            {
              "internalType": "uint256",
              "name": "votingUnits",
              "type": "uint256"
            },
            {
              "internalType": "uint256",
              "name": "reservedRate",
              "type": "uint256"
            },
            {
              "internalType": "address",
              "name": "reservedTokenBeneficiary",
              "type": "address"
            },
            {
              "internalType": "bytes32",
              "name": "encodedIPFSUri",
              "type": "bytes32"
            },
            {
              "internalType": "bool",
              "name": "shouldUseBeneficiaryAsDefault",
              "type": "bool"
            }
          ],
          "internalType": "struct JB721TierParams[]",
          "name": "_tiersToAdd",
          "type": "tuple[]"
        }
      ],
      "name": "recordAddTiers",
      "outputs": [
        {
          "internalType": "uint256[]",
          "name": "tierIds",
          "type": "uint256[]"
        }
      ],
      "stateMutability": "nonpayable",
      "type": "function"
    },
    {
      "inputs": [
        {
          "internalType": "bool",
          "name": "_flag",
          "type": "bool"
        }
      ],
      "name": "recordLockReservedTokenChanges",
      "outputs": [],
      "stateMutability": "nonpayable",
      "type": "function"
    },
    {
      "inputs": [
        {
          "internalType": "bool",
          "name": "_flag",
          "type": "bool"
        }
      ],
      "name": "recordLockVotingUnitChanges",
      "outputs": [],
      "stateMutability": "nonpayable",
      "type": "function"
    },
    {
      "inputs": [
        {
          "internalType": "uint256",
          "name": "_amount",
          "type": "uint256"
        },
        {
          "internalType": "uint16[]",
          "name": "_tierIds",
          "type": "uint16[]"
        }
      ],
      "name": "recordMint",
      "outputs": [
        {
          "internalType": "uint256[]",
          "name": "tokenIds",
          "type": "uint256[]"
        },
        {
          "internalType": "uint256",
          "name": "leftoverAmount",
          "type": "uint256"
        }
      ],
      "stateMutability": "nonpayable",
      "type": "function"
    },
    {
      "inputs": [
        {
          "internalType": "uint256",
          "name": "_amount",
          "type": "uint256"
        }
      ],
      "name": "recordMintBestAvailableTier",
      "outputs": [
        {
          "internalType": "uint256",
          "name": "tokenId",
          "type": "uint256"
        },
        {
          "internalType": "uint256",
          "name": "tierId",
          "type": "uint256"
        },
        {
          "internalType": "uint256",
          "name": "leftoverAmount",
          "type": "uint256"
        }
      ],
      "stateMutability": "nonpayable",
      "type": "function"
    },
    {
      "inputs": [
        {
          "internalType": "uint256",
          "name": "_tierId",
          "type": "uint256"
        },
        {
          "internalType": "uint256",
          "name": "_count",
          "type": "uint256"
        }
      ],
      "name": "recordMintReservesFor",
      "outputs": [
        {
          "internalType": "uint256[]",
          "name": "tokenIds",
          "type": "uint256[]"
        }
      ],
      "stateMutability": "nonpayable",
      "type": "function"
    },
    {
      "inputs": [
        {
          "internalType": "uint256[]",
          "name": "_tierIds",
          "type": "uint256[]"
        }
      ],
      "name": "recordRemoveTierIds",
      "outputs": [],
      "stateMutability": "nonpayable",
      "type": "function"
    },
    {
      "inputs": [
        {
          "internalType": "string",
          "name": "_uri",
          "type": "string"
        }
      ],
      "name": "recordSetBaseUri",
      "outputs": [],
      "stateMutability": "nonpayable",
      "type": "function"
    },
    {
      "inputs": [
        {
          "internalType": "string",
          "name": "_uri",
          "type": "string"
        }
      ],
      "name": "recordSetContractUri",
      "outputs": [],
      "stateMutability": "nonpayable",
      "type": "function"
    },
    {
      "inputs": [
        {
          "internalType": "address",
          "name": "_beneficiary",
          "type": "address"
        }
      ],
      "name": "recordSetDefaultReservedTokenBeneficiary",
      "outputs": [],
      "stateMutability": "nonpayable",
      "type": "function"
    },
    {
      "inputs": [
        {
          "internalType": "uint256",
          "name": "_tokenId",
          "type": "uint256"
        },
        {
          "internalType": "address",
          "name": "_owner",
          "type": "address"
        }
      ],
      "name": "recordSetFirstOwnerOf",
      "outputs": [],
      "stateMutability": "nonpayable",
      "type": "function"
    },
    {
      "inputs": [
        {
          "internalType": "contract IJBTokenUriResolver",
          "name": "_resolver",
          "type": "address"
        }
      ],
      "name": "recordSetTokenUriResolver",
      "outputs": [],
      "stateMutability": "nonpayable",
      "type": "function"
    },
    {
      "inputs": [
        {
          "internalType": "uint256",
          "name": "_tierId",
          "type": "uint256"
        },
        {
          "internalType": "address",
          "name": "_from",
          "type": "address"
        },
        {
          "internalType": "address",
          "name": "_to",
          "type": "address"
        }
      ],
      "name": "recordTransferForTier",
      "outputs": [],
      "stateMutability": "nonpayable",
      "type": "function"
    },
    {
      "inputs": [
        {
          "internalType": "address",
          "name": "_nft",
          "type": "address"
        },
        {
          "internalType": "uint256[]",
          "name": "_tokenIds",
          "type": "uint256[]"
        }
      ],
      "name": "redemptionWeightOf",
      "outputs": [
        {
          "internalType": "uint256",
          "name": "weight",
          "type": "uint256"
        }
      ],
      "stateMutability": "view",
      "type": "function"
    },
    {
      "inputs": [
        {
          "internalType": "address",
          "name": "_nft",
          "type": "address"
        },
        {
          "internalType": "uint256",
          "name": "_tierId",
          "type": "uint256"
        }
      ],
      "name": "reservedTokenBeneficiaryOf",
      "outputs": [
        {
          "internalType": "address",
          "name": "",
          "type": "address"
        }
      ],
      "stateMutability": "view",
      "type": "function"
    },
    {
      "inputs": [
        {
          "internalType": "address",
          "name": "_nft",
          "type": "address"
        },
        {
          "internalType": "uint256",
          "name": "_id",
          "type": "uint256"
        }
      ],
      "name": "tier",
      "outputs": [
        {
          "components": [
            {
              "internalType": "uint256",
              "name": "id",
              "type": "uint256"
            },
            {
              "internalType": "uint256",
              "name": "contributionFloor",
              "type": "uint256"
            },
            {
              "internalType": "uint256",
              "name": "lockedUntil",
              "type": "uint256"
            },
            {
              "internalType": "uint256",
              "name": "remainingQuantity",
              "type": "uint256"
            },
            {
              "internalType": "uint256",
              "name": "initialQuantity",
              "type": "uint256"
            },
            {
              "internalType": "uint256",
              "name": "votingUnits",
              "type": "uint256"
            },
            {
              "internalType": "uint256",
              "name": "reservedRate",
              "type": "uint256"
            },
            {
              "internalType": "address",
              "name": "reservedTokenBeneficiary",
              "type": "address"
            },
            {
              "internalType": "bytes32",
              "name": "encodedIPFSUri",
              "type": "bytes32"
            }
          ],
          "internalType": "struct JB721Tier",
          "name": "",
          "type": "tuple"
        }
      ],
      "stateMutability": "view",
      "type": "function"
    },
    {
      "inputs": [
        {
          "internalType": "address",
          "name": "",
          "type": "address"
        },
        {
          "internalType": "address",
          "name": "",
          "type": "address"
        },
        {
          "internalType": "uint256",
          "name": "",
          "type": "uint256"
        }
      ],
      "name": "tierBalanceOf",
      "outputs": [
        {
          "internalType": "uint256",
          "name": "",
          "type": "uint256"
        }
      ],
      "stateMutability": "view",
      "type": "function"
    },
    {
      "inputs": [
        {
          "internalType": "uint256",
          "name": "_tokenId",
          "type": "uint256"
        }
      ],
      "name": "tierIdOfToken",
      "outputs": [
        {
          "internalType": "uint256",
          "name": "",
          "type": "uint256"
        }
      ],
      "stateMutability": "pure",
      "type": "function"
    },
    {
      "inputs": [
        {
          "internalType": "address",
          "name": "_nft",
          "type": "address"
        },
        {
          "internalType": "uint256",
          "name": "_tokenId",
          "type": "uint256"
        }
      ],
      "name": "tierOfTokenId",
      "outputs": [
        {
          "components": [
            {
              "internalType": "uint256",
              "name": "id",
              "type": "uint256"
            },
            {
              "internalType": "uint256",
              "name": "contributionFloor",
              "type": "uint256"
            },
            {
              "internalType": "uint256",
              "name": "lockedUntil",
              "type": "uint256"
            },
            {
              "internalType": "uint256",
              "name": "remainingQuantity",
              "type": "uint256"
            },
            {
              "internalType": "uint256",
              "name": "initialQuantity",
              "type": "uint256"
            },
            {
              "internalType": "uint256",
              "name": "votingUnits",
              "type": "uint256"
            },
            {
              "internalType": "uint256",
              "name": "reservedRate",
              "type": "uint256"
            },
            {
              "internalType": "address",
              "name": "reservedTokenBeneficiary",
              "type": "address"
            },
            {
              "internalType": "bytes32",
              "name": "encodedIPFSUri",
              "type": "bytes32"
            }
          ],
          "internalType": "struct JB721Tier",
          "name": "",
          "type": "tuple"
        }
      ],
      "stateMutability": "view",
      "type": "function"
    },
    {
      "inputs": [
        {
          "internalType": "address",
          "name": "_nft",
          "type": "address"
        },
        {
          "internalType": "address",
          "name": "_account",
          "type": "address"
        },
        {
          "internalType": "uint256",
          "name": "_tierId",
          "type": "uint256"
        }
      ],
      "name": "tierVotingUnitsOf",
      "outputs": [
        {
          "internalType": "uint256",
          "name": "",
          "type": "uint256"
        }
      ],
      "stateMutability": "view",
      "type": "function"
    },
    {
      "inputs": [
        {
          "internalType": "address",
          "name": "_nft",
          "type": "address"
        },
        {
          "internalType": "uint256",
          "name": "_startingId",
          "type": "uint256"
        },
        {
          "internalType": "uint256",
          "name": "_size",
          "type": "uint256"
        }
      ],
      "name": "tiers",
      "outputs": [
        {
          "components": [
            {
              "internalType": "uint256",
              "name": "id",
              "type": "uint256"
            },
            {
              "internalType": "uint256",
              "name": "contributionFloor",
              "type": "uint256"
            },
            {
              "internalType": "uint256",
              "name": "lockedUntil",
              "type": "uint256"
            },
            {
              "internalType": "uint256",
              "name": "remainingQuantity",
              "type": "uint256"
            },
            {
              "internalType": "uint256",
              "name": "initialQuantity",
              "type": "uint256"
            },
            {
              "internalType": "uint256",
              "name": "votingUnits",
              "type": "uint256"
            },
            {
              "internalType": "uint256",
              "name": "reservedRate",
              "type": "uint256"
            },
            {
              "internalType": "address",
              "name": "reservedTokenBeneficiary",
              "type": "address"
            },
            {
              "internalType": "bytes32",
              "name": "encodedIPFSUri",
              "type": "bytes32"
            }
          ],
          "internalType": "struct JB721Tier[]",
          "name": "_tiers",
          "type": "tuple[]"
        }
      ],
      "stateMutability": "view",
      "type": "function"
    },
    {
      "inputs": [
        {
          "internalType": "address",
          "name": "",
          "type": "address"
        }
      ],
      "name": "tokenUriResolverOf",
      "outputs": [
        {
          "internalType": "contract IJBTokenUriResolver",
          "name": "",
          "type": "address"
        }
      ],
      "stateMutability": "view",
      "type": "function"
    },
    {
      "inputs": [
        {
          "internalType": "address",
          "name": "_nft",
          "type": "address"
        }
      ],
      "name": "totalRedemptionWeight",
      "outputs": [
        {
          "internalType": "uint256",
          "name": "weight",
          "type": "uint256"
        }
      ],
      "stateMutability": "view",
      "type": "function"
    },
    {
      "inputs": [
        {
          "internalType": "address",
          "name": "_nft",
          "type": "address"
        }
      ],
      "name": "totalSupply",
      "outputs": [
        {
          "internalType": "uint256",
          "name": "supply",
          "type": "uint256"
        }
      ],
      "stateMutability": "view",
      "type": "function"
    },
    {
      "inputs": [
        {
          "internalType": "address",
          "name": "_nft",
          "type": "address"
        },
        {
          "internalType": "address",
          "name": "_account",
          "type": "address"
        }
      ],
      "name": "votingUnitsOf",
      "outputs": [
        {
          "internalType": "uint256",
          "name": "units",
          "type": "uint256"
        }
      ],
      "stateMutability": "view",
      "type": "function"
    }
  ],
  "bytecode": {
    "object": "0x608060405234801561001057600080fd5b50612cf1806100206000396000f3fe608060405234801561001057600080fd5b506004361061023d5760003560e01c80636825bb801161013b578063baa7e80e116100b8578063d84a72c01161007c578063d84a72c0146106f5578063e4dc2aa414610732578063ebc1c49d14610745578063f682eeaf14610768578063f7888aec1461077b57600080fd5b8063baa7e80e14610656578063bd51923c14610669578063c2c55f9414610694578063c8df1710146106a7578063d67b78fd146106e257600080fd5b80638ed6c010116100ff5780638ed6c010146105b3578063911c80b5146105e75780639335557814610610578063aab0cd8014610623578063b67cb0471461064357600080fd5b80636825bb80146104d15780636c876fd8146104fc5780637473c9a21461051c578063879791f31461053c5780638cec7d391461056a57600080fd5b806327619754116101c957806337f446521161018d57806337f446521461042a5780633eb2556a1461045b57806342f9914b1461047b5780635f646611146104905780636262bcb2146104be57600080fd5b8063276197541461039e5780632ae5e492146103be5780632e4d0ea8146103d157806335314b92146103e4578063366cf423146103f757600080fd5b8063144cc2d411610210578063144cc2d4146102de57806316b047de146102ff57806317161f7d146103205780631877d7b11461035d57806320512ba11461038b57600080fd5b806307cd940614610242578063086bb19a146102725780630fab094714610285578063136e651c146102cb575b600080fd5b6102706102503660046127d8565b336000908152600c60205260409020805460ff1916911515919091179055565b005b61027061028036600461252a565b61078e565b6102ae61029336600461252a565b600a602052600090815260409020546001600160a01b031681565b6040516001600160a01b0390911681526020015b60405180910390f35b6102ae6102d9366004612616565b6108ed565b6102f16102ec3660046125c1565b610946565b6040519081526020016102c2565b61031261030d366004612909565b6109c6565b6040516102c2929190612a5a565b61027061032e36600461252a565b33600090815260076020526040902080546001600160a01b0319166001600160a01b0392909216919091179055565b61027061036b3660046127d8565b336000908152600d60205260409020805460ff1916911515919091179055565b610270610399366004612796565b610c4b565b6103b16103ac366004612677565b610cf7565b6040516102c29190612a47565b6102f16103cc36600461252a565b611292565b6102f16103df366004612580565b6113c4565b6102f16103f2366004612616565b611447565b61041a61040536600461252a565b600d6020526000908152604090205460ff1681565b60405190151581526020016102c2565b6102f1610438366004612580565b600460209081526000938452604080852082529284528284209052825290205481565b61046e610469366004612642565b6114e2565b6040516102c291906129f8565b6102f1610489366004612889565b61ffff1690565b61041a61049e366004612616565b600660209081526000928352604080842090915290825290205460ff1681565b6102706104cc3660046127f3565b6117e7565b6102f16104df366004612616565b600560209081526000928352604080842090915290825290205481565b6102f161050a36600461252a565b60036020526000908152604090205481565b61052f61052a366004612616565b611806565b6040516102c29190612ad1565b61054f61054a366004612889565b6119fc565b604080519384526020840192909252908201526060016102c2565b6102706105783660046128a2565b3360009081526008602090815260408083209483529390529190912080546001600160a01b0319166001600160a01b03909216919091179055565b6102ae6105c1366004612616565b60086020908152600092835260408084209091529082529020546001600160a01b031681565b6102ae6105f536600461252a565b6007602052600090815260409020546001600160a01b031681565b6102f161061e366004612547565b611bc9565b61063661063136600461252a565b611c79565b6040516102c29190612a7c565b61052f610651366004612616565b611d13565b6103b161066436600461293c565b611e4e565b6102f1610677366004612616565b600e60209081526000928352604080842090915290825290205481565b6102706106a23660046128c7565b612028565b6102f16106b5366004612616565b6001600160a01b03919091166000908152600e6020908152604080832061ffff9094168352929052205490565b6102706106f03660046127f3565b6120bb565b61027061070336600461252a565b336000908152600a6020526040902080546001600160a01b0319166001600160a01b0392909216919091179055565b6102f161074036600461252a565b6120d5565b61041a61075336600461252a565b600c6020526000908152604090205460ff1681565b61063661077636600461252a565b61215f565b6102f1610789366004612547565b612178565b6001600160a01b038116600090815260036020526040812054906107b1836121e4565b905060005b81156108a9576001600160a01b038416600090815260066020908152604080832085845290915290205460ff16610897576107f2816001612b3b565b821461084a576001600160a01b0384166000908152602081815260408083208484529091529020548214610845576001600160a01b03841660009081526020818152604080832084845290915290208290555b610894565b6001600160a01b03841660009081526020818152604080832084845290915290205415610894576001600160a01b0384166000908152602081815260408083208484529091528120555b50805b6108a2848385612214565b91506107b6565b6040513381526001600160a01b038516907f4a0f854ce3c180d56f3e9eb47eb064c595bf3de0ab9af45425291e5b1bb733a89060200160405180910390a250505050565b6001600160a01b0380831660009081526001602090815260408083208584529091528120549091168015610922579050610940565b50506001600160a01b03808316600090815260076020526040902054165b92915050565b600081815b818110156109bd576001600160a01b03861660009081526002602052604081209061098f87878581811061098157610981612c77565b9050602002013561ffff1690565b81526020810191909152604001600020546109b3906001600160501b031684612b3b565b925060010161094b565b50509392505050565b606083826000808267ffffffffffffffff8111156109e6576109e6612c8d565b604051908082528060200260200182016040528015610a0f578160200160208202803683370190505b50945060005b83811015610c3f57878782818110610a2f57610a2f612c77565b9050602002016020810190610a449190612865565b33600090815260066020908152604080832061ffff949094168084529390915290205490925060ff1615610a8b5760405163d32cb5c160e01b815260040160405180910390fd5b33600090815260026020908152604080832085845290915290208054909350600160b01b900465ffffffffffff16610ad657604051630de5859f60e01b815260040160405180910390fd5b82546001600160501b0316851015610b0157604051632cd294cf60e01b815260040160405180910390fd5b6040805160c08101825284546001600160501b038116825265ffffffffffff600160501b820481166020840152600160801b8204811693830193909352600160b01b8104909216606082015261ffff600160e01b830481166080830152600160f01b90920490911660a0820152610b7b9033908490612267565b8354610b969190600160801b900465ffffffffffff16612b94565b610bb35760405163985a45d960e01b815260040160405180910390fd5b825460001965ffffffffffff600160801b808404821692830182160265ffffffffffff60801b1990931692909217808655610c03928592600160b01b9092048116919091036001011660101b1790565b868281518110610c1557610c15612c77565b60209081029190910101528254610c35906001600160501b031686612b94565b9450600101610a15565b50505050935093915050565b806000805b82811015610cf057848482818110610c6a57610c6a612c77565b336000908152600260209081526040808320938202959095013580835292905292909220549193505042600160501b90910465ffffffffffff1610610cc257604051636b73d51160e11b815260040160405180910390fd5b3360009081526006602090815260408083208584529091529020805460ff1916600190811790915501610c50565b5050505050565b805133600090815260036020526040902054606091908167ffffffffffffffff811115610d2657610d26612c8d565b604051908082528060200260200182016040528015610d4f578160200160208202803683370190505b50925060008115610d6857610d63336121e4565b610d6b565b60005b90506000610dc5604051806101000160405280600081526020016000815260200160008152602001600081526020016000815260200160006001600160a01b03168152602001600080191681526020016000151581525090565b60005b8581101561126c57878181518110610de257610de2612c77565b6020026020010151915080600014158015610e27575087610e04600183612b94565b81518110610e1457610e14612c77565b6020026020010151600001518260000151105b15610e45576040516325ec4a9160e21b815260040160405180910390fd5b336000908152600d602052604090205460ff168015610e675750606082015115155b15610e8557604051630189200360e11b815260040160405180910390fd5b336000908152600c602052604090205460ff168015610ea75750608082015115155b15610ec55760405163a75b1cd560e01b815260040160405180910390fd5b6040820151610ee757604051631e0a863160e31b815260040160405180910390fd5b6000610ef38287612b3b565b610efe906001612b3b565b6040805160c08101825285516001600160501b03908116825260208088015165ffffffffffff908116828501908152898601805183168688019081529051831660608088019182528c015161ffff9081166080808a019182528e0151821660a0808b0191825233600090815260028a528c81208e82529099529a909720985189549551945193519151975198166fffffffffffffffffffffffffffffffff1990951694909417600160501b93861693909302929092176bffffffffffffffffffffffff60801b1916600160801b9185169190910265ffffffffffff60b01b191617600160b01b9290931691909102919091176001600160e01b0316600160e01b928216929092026001600160f01b031691909117600160f01b92909116919091021790558401519091506001600160a01b03161580159061105f57503360009081526007602052604090205460a08401516001600160a01b03908116911614155b156110e1578260e00151156110a45760a083015133600090815260076020526040902080546001600160a01b0319166001600160a01b039092169190911790556110e1565b60a0830151336000908152600160209081526040808320858452909152902080546001600160a01b0319166001600160a01b039092169190911790555b60c08301511561110c5760c0830151336000908152600e602090815260408083208584529091529020555b8415611245578460005b81156112425761112733838a612214565b33600090815260026020908152604080832086845290915290205486519192506001600160501b031611156111fb57611161836001612b3b565b8214611183573360009081526020818152604080832086845290915290208290555b61118e600184612b94565b861415806111b357503360009081526020818152604080832089845290915290205415155b156111ec576111c3600184612b94565b86146111cf57826111d2565b60005b336000908152602081815260408083208a84529091529020555b81965082955060009150611116565b806112395761120b826001612b3b565b831461122d573360009081526020818152604080832085845290915290208390555b82965060009150611116565b90945080611116565b50505b8088838151811061125857611258612c77565b602090810291909101015250600101610dc8565b506112778585612b3b565b33600090815260036020526040902055509395945050505050565b6001600160a01b0381166000908152600360205260408120546112b36123a8565b60005b828110156113bc576001600160a01b0385166000908152600260205260408120906112e2836001612b3b565b81526020808201929092526040908101600020815160c08101835290546001600160501b038116825265ffffffffffff600160501b8204811694830194909452600160801b8104841692820192909252600160b01b8204909216606083015261ffff600160e01b820481166080840152600160f01b9091041660a0820152915061136d858284612267565b826040015183606001516113819190612bab565b835161139e9165ffffffffffff16906001600160501b0316612b75565b6113a89190612b3b565b6113b29085612b3b565b93506001016112b6565b505050919050565b6001600160a01b038084166000908152600460209081526040808320938616835292815282822084835290529081205480611403576000915050611440565b6001600160a01b038516600090815260026020908152604080832086845290915290205461143c90600160e01b900461ffff1682612b75565b9150505b9392505050565b6001600160a01b03821660009081526002602090815260408083208484528252808320815160c08101835290546001600160501b038116825265ffffffffffff600160501b8204811694830194909452600160801b8104841692820192909252600160b01b8204909216606083015261ffff600160e01b820481166080840152600160f01b9091041660a08201526114409084908490612267565b6001600160a01b0383166000908152600360205260409020546060908267ffffffffffffffff81111561151757611517612c8d565b60405190808252806020026020018201604052801561155057816020015b61153d6123dd565b8152602001906001900390816115355790505b5091506000808561156957611564876121e4565b61156b565b855b90506115756123a8565b811580159061158357508583105b156117d1576001600160a01b038816600090815260066020908152604080832085845290915290205460ff166117bf5760026000896001600160a01b03166001600160a01b0316815260200190815260200160002060008381526020019081526020016000206040518060c00160405290816000820160009054906101000a90046001600160501b03166001600160501b03166001600160501b0316815260200160008201600a9054906101000a900465ffffffffffff1665ffffffffffff1665ffffffffffff1681526020016000820160109054906101000a900465ffffffffffff1665ffffffffffff1665ffffffffffff1681526020016000820160169054906101000a900465ffffffffffff1665ffffffffffff1665ffffffffffff16815260200160008201601c9054906101000a900461ffff1661ffff1661ffff16815260200160008201601e9054906101000a900461ffff1661ffff1661ffff1681525050905060405180610120016040528083815260200182600001516001600160501b03168152602001826020015165ffffffffffff168152602001826040015165ffffffffffff168152602001826060015165ffffffffffff168152602001826080015161ffff1681526020018260a0015161ffff16815260200161176a8a856108ed565b6001600160a01b0390811682528a166000908152600e6020908152604080832087845282529091205491015285846117a181612c46565b9550815181106117b3576117b3612c77565b60200260200101819052505b6117ca888386612214565b9150611575565b8583146117dc578285525b505050509392505050565b336000908152600960205260409020611801908383612435565b505050565b61180e6123dd565b600060026000856001600160a01b03166001600160a01b0316815260200190815260200160002060008481526020019081526020016000206040518060c00160405290816000820160009054906101000a90046001600160501b03166001600160501b03166001600160501b0316815260200160008201600a9054906101000a900465ffffffffffff1665ffffffffffff1665ffffffffffff1681526020016000820160109054906101000a900465ffffffffffff1665ffffffffffff1665ffffffffffff1681526020016000820160169054906101000a900465ffffffffffff1665ffffffffffff1665ffffffffffff16815260200160008201601c9054906101000a900461ffff1661ffff1661ffff16815260200160008201601e9054906101000a900461ffff1661ffff1661ffff1681525050905060405180610120016040528084815260200182600001516001600160501b03168152602001826020015165ffffffffffff168152602001826040015165ffffffffffff168152602001826060015165ffffffffffff168152602001826080015161ffff1681526020018260a0015161ffff1681526020016119c786866108ed565b6001600160a01b03908116825286166000908152600e6020908152604080832088845282529091205491015291505092915050565b3360009081526003602052604081205481908190611a186123a8565b6000611a23336121e4565b90505b8015611b2c57336000908152600260209081526040808320848452825291829020825160c08101845290546001600160501b03811680835265ffffffffffff600160501b8304811694840194909452600160801b8204841694830194909452600160b01b8104909216606082015261ffff600160e01b830481166080830152600160f01b90920490911660a08201529250871015611ac657506000611a26565b33600090815260066020908152604080832084845290915290205460ff16158015611b115750611af7338284612267565b826040015165ffffffffffff16611b0e9190612b94565b15155b15611b1a578094505b611b25338285612214565b9050611a26565b84611b3957869350611bbf565b3360009081526002602090815260408083208884529091529020805460001965ffffffffffff600160801b808404821692830182160265ffffffffffff60801b1990931692909217808455611ba3928992600160b01b9092048116919091036001011660101b1790565b8154909750611bbb906001600160501b031689612b94565b9450505b5050509193909250565b6001600160a01b03821660009081526003602052604081205481815b8015611c70576001600160a01b03808716600090815260046020908152604080832093891683529281528282208483529052205491508115611c67576001600160a01b0386166000908152600260209081526040808320848452909152902054611c5a90600160e01b900461ffff1683612b75565b611c649085612b3b565b93505b60001901611be5565b50505092915050565b600b6020526000908152604090208054611c9290612c0b565b80601f0160208091040260200160405190810160405280929190818152602001828054611cbe90612c0b565b8015611d0b5780601f10611ce057610100808354040283529160200191611d0b565b820191906000526020600020905b815481529060010190602001808311611cee57829003601f168201915b505050505081565b611d1b6123dd565b6001600160a01b038316600090815260026020908152604080832061ffff86811680865291845293829020825160c0808201855291546001600160501b03808216835265ffffffffffff600160501b83048116848901908152600160801b84048216858901908152600160b01b850483166060808801918252600160e01b87048d166080808a01918252600160f01b9098048e1660a0808b019182528d5161012081018f528d81528b519099169e89019e909e52945186169b87019b909b5291518416918501919091525190911692820192909252945187169585019590955293519094169382019390935260e08101611e1587856108ed565b6001600160a01b03908116825287166000908152600e602090815260408083209683529581529490205493019290925250905092915050565b3360008181526002602090815260408083208684528252808320815160c08101835281546001600160501b038116825265ffffffffffff600160501b8204811695830195909552600160801b8104851693820193909352600160b01b830490931660608481019190915261ffff600160e01b840481166080860152600160f01b90930490921660a08401529093909291611eea91908790612267565b905080841115611f0d5760405163226f999960e11b815260040160405180910390fd5b33600090815260056020908152604080832088845290915281208054869290611f37908490612b3b565b9091555084905067ffffffffffffffff811115611f5657611f56612c8d565b604051908082528060200260200182016040528015611f7f578160200160208202803683370190505b50925060005b84811015611c705782546120039087908590601090611fb290600160801b900465ffffffffffff16612be9565b91906101000a81548165ffffffffffff021916908365ffffffffffff16021790558560000160169054906101000a900465ffffffffffff16611ff49190612bab565b65ffffffffffff1660101b1790565b84828151811061201557612015612c77565b6020908102919091010152600101611f85565b6001600160a01b03821615612075573360009081526004602090815260408083206001600160a01b038616845282528083208684529091528120805490919061207090612bd2565b909155505b6001600160a01b03811615611801573360009081526004602090815260408083206001600160a01b03851684528252808320868452909152902080546001019055505050565b336000908152600b60205260409020611801908383612435565b6001600160a01b0381166000908152600360205260408120548190805b80156113bc576001600160a01b0385166000908152600260209081526040808320848452909152902080549093506121429065ffffffffffff600160801b8204811691600160b01b900416612bab565b6121549065ffffffffffff1685612b3b565b9350600019016120f2565b60096020526000908152604090208054611c9290612c0b565b6001600160a01b038216600090815260036020526040812054805b80156121dc576001600160a01b0380861660009081526004602090815260408083209388168352928152828220848352905220546121d19084612b3b565b925060001901612193565b505092915050565b6001600160a01b0381166000908152602081815260408083208380529091529020548061220f575060015b919050565b6001600160a01b0383166000908152602081815260408083208584529091528120548015612243579050611440565b828410612254576000915050611440565b61225f846001612b3b565b915050611440565b6000816060015165ffffffffffff166000148061228a575060a082015161ffff16155b1561229757506000611440565b816040015165ffffffffffff16826060015165ffffffffffff1614156122bf57506001611440565b6001600160a01b0384166000908152600560209081526040808320868452909152908190205490830151606084015165ffffffffffff9182169161230591849116612b94565b1415612315576000915050611440565b6000818460400151856060015161232c9190612bab565b65ffffffffffff1661233e9190612b94565b905060008460a0015161ffff16826123569190612b75565b9050600061236661271083612b53565b9050600061237682612710612b75565b6123809084612b94565b11156123925761238f81612c46565b90505b61239c8482612b94565b98975050505050505050565b6040805160c081018252600080825260208201819052918101829052606081018290526080810182905260a081019190915290565b6040518061012001604052806000815260200160008152602001600081526020016000815260200160008152602001600081526020016000815260200160006001600160a01b03168152602001600080191681525090565b82805461244190612c0b565b90600052602060002090601f01602090048101928261246357600085556124a9565b82601f1061247c5782800160ff198235161785556124a9565b828001600101855582156124a9579182015b828111156124a957823582559160200191906001019061248e565b506124b59291506124b9565b5090565b5b808211156124b557600081556001016124ba565b60008083601f8401126124e057600080fd5b50813567ffffffffffffffff8111156124f857600080fd5b6020830191508360208260051b850101111561251357600080fd5b9250929050565b8035801515811461220f57600080fd5b60006020828403121561253c57600080fd5b813561144081612ca3565b6000806040838503121561255a57600080fd5b823561256581612ca3565b9150602083013561257581612ca3565b809150509250929050565b60008060006060848603121561259557600080fd5b83356125a081612ca3565b925060208401356125b081612ca3565b929592945050506040919091013590565b6000806000604084860312156125d657600080fd5b83356125e181612ca3565b9250602084013567ffffffffffffffff8111156125fd57600080fd5b612609868287016124ce565b9497909650939450505050565b6000806040838503121561262957600080fd5b823561263481612ca3565b946020939093013593505050565b60008060006060848603121561265757600080fd5b833561266281612ca3565b95602085013595506040909401359392505050565b6000602080838503121561268a57600080fd5b823567ffffffffffffffff808211156126a257600080fd5b818501915085601f8301126126b657600080fd5b8135818111156126c8576126c8612c8d565b6126d6848260051b01612b0a565b8181528481019250838501600883901b850186018910156126f657600080fd5b60009450845b838110156127885761010080838c031215612715578687fd5b61271d612ae0565b83358152888401358982015260408085013590820152606080850135908201526080808501359082015260a08085013561275681612ca3565b9082015260c0848101359082015260e061277181860161251a565b9082015286529487019491909101906001016126fc565b509098975050505050505050565b600080602083850312156127a957600080fd5b823567ffffffffffffffff8111156127c057600080fd5b6127cc858286016124ce565b90969095509350505050565b6000602082840312156127ea57600080fd5b6114408261251a565b6000806020838503121561280657600080fd5b823567ffffffffffffffff8082111561281e57600080fd5b818501915085601f83011261283257600080fd5b81358181111561284157600080fd5b86602082850101111561285357600080fd5b60209290920196919550909350505050565b60006020828403121561287757600080fd5b813561ffff8116811461144057600080fd5b60006020828403121561289b57600080fd5b5035919050565b600080604083850312156128b557600080fd5b82359150602083013561257581612ca3565b6000806000606084860312156128dc57600080fd5b8335925060208401356128ee81612ca3565b915060408401356128fe81612ca3565b809150509250925092565b60008060006040848603121561291e57600080fd5b83359250602084013567ffffffffffffffff8111156125fd57600080fd5b6000806040838503121561294f57600080fd5b50508035926020909101359150565b600081518084526020808501945080840160005b8381101561298e57815187529582019590820190600101612972565b509495945050505050565b805182526020808201519083015260408082015190830152606080820151908301526080808201519083015260a0808201519083015260c0808201519083015260e0808201516001600160a01b03169083015261010090810151910152565b6020808252825182820181905260009190848201906040850190845b81811015612a3b57612a27838551612999565b928401926101209290920191600101612a14565b50909695505050505050565b602081526000611440602083018461295e565b604081526000612a6d604083018561295e565b90508260208301529392505050565b600060208083528351808285015260005b81811015612aa957858101830151858201604001528201612a8d565b81811115612abb576000604083870101525b50601f01601f1916929092016040019392505050565b61012081016109408284612999565b604051610100810167ffffffffffffffff81118282101715612b0457612b04612c8d565b60405290565b604051601f8201601f1916810167ffffffffffffffff81118282101715612b3357612b33612c8d565b604052919050565b60008219821115612b4e57612b4e612c61565b500190565b600082612b7057634e487b7160e01b600052601260045260246000fd5b500490565b6000816000190483118215151615612b8f57612b8f612c61565b500290565b600082821015612ba657612ba6612c61565b500390565b600065ffffffffffff83811690831681811015612bca57612bca612c61565b039392505050565b600081612be157612be1612c61565b506000190190565b600065ffffffffffff821680612c0157612c01612c61565b6000190192915050565b600181811c90821680612c1f57607f821691505b60208210811415612c4057634e487b7160e01b600052602260045260246000fd5b50919050565b6000600019821415612c5a57612c5a612c61565b5060010190565b634e487b7160e01b600052601160045260246000fd5b634e487b7160e01b600052603260045260246000fd5b634e487b7160e01b600052604160045260246000fd5b6001600160a01b0381168114612cb857600080fd5b5056fea2646970667358221220b1a3c8100354b9886972773ef9e7f40277318ca03c8d8368874e494293dab7e764736f6c63430008060033",
    "linkReferences": {}
  },
  "methodIdentifiers": {
    "balanceOf(address,address)": "f7888aec",
    "baseUriOf(address)": "f682eeaf",
    "cleanTiers(address)": "086bb19a",
    "contractUriOf(address)": "aab0cd80",
    "defaultReservedTokenBeneficiaryOf(address)": "911c80b5",
    "encodedIPFSUriOf(address,uint256)": "bd51923c",
    "encodedTierIPFSUriOf(address,uint256)": "c8df1710",
    "firstOwnerOf(address,uint256)": "8ed6c010",
    "isTierRemoved(address,uint256)": "5f646611",
    "lockReservedTokenChangesFor(address)": "ebc1c49d",
    "lockVotingUnitChangesFor(address)": "366cf423",
    "maxTierId(address)": "6c876fd8",
    "numberOfReservedTokensOutstandingFor(address,uint256)": "35314b92",
    "numberOfReservesMintedFor(address,uint256)": "6825bb80",
    "recordAddTiers((uint256,uint256,uint256,uint256,uint256,address,bytes32,bool)[])": "27619754",
    "recordLockReservedTokenChanges(bool)": "07cd9406",
    "recordLockVotingUnitChanges(bool)": "1877d7b1",
    "recordMint(uint256,uint16[])": "16b047de",
    "recordMintBestAvailableTier(uint256)": "879791f3",
    "recordMintReservesFor(uint256,uint256)": "baa7e80e",
    "recordRemoveTierIds(uint256[])": "20512ba1",
    "recordSetBaseUri(string)": "6262bcb2",
    "recordSetContractUri(string)": "d67b78fd",
    "recordSetDefaultReservedTokenBeneficiary(address)": "17161f7d",
    "recordSetFirstOwnerOf(uint256,address)": "8cec7d39",
    "recordSetTokenUriResolver(address)": "d84a72c0",
    "recordTransferForTier(uint256,address,address)": "c2c55f94",
    "redemptionWeightOf(address,uint256[])": "144cc2d4",
    "reservedTokenBeneficiaryOf(address,uint256)": "136e651c",
    "tier(address,uint256)": "7473c9a2",
    "tierBalanceOf(address,address,uint256)": "37f44652",
    "tierIdOfToken(uint256)": "42f9914b",
    "tierOfTokenId(address,uint256)": "b67cb047",
    "tierVotingUnitsOf(address,address,uint256)": "2e4d0ea8",
    "tiers(address,uint256,uint256)": "3eb2556a",
    "tokenUriResolverOf(address)": "0fab0947",
    "totalRedemptionWeight(address)": "2ae5e492",
    "totalSupply(address)": "e4dc2aa4",
    "votingUnitsOf(address,address)": "93355578"
  },
  "id": 3
}