{
  "abi": [
    {
      "inputs": [],
      "name": "CANT_MINT_MANUALLY",
      "type": "error"
    },
    {
      "inputs": [],
      "name": "INSUFFICIENT_AMOUNT",
      "type": "error"
    },
    {
      "inputs": [],
      "name": "INSUFFICIENT_RESERVES",
      "type": "error"
    },
    {
      "inputs": [],
      "name": "INVALID_CATEGORY_SORT_ORDER",
      "type": "error"
    },
    {
      "inputs": [],
      "name": "INVALID_QUANTITY",
      "type": "error"
    },
    {
      "inputs": [],
      "name": "INVALID_TIER",
      "type": "error"
    },
    {
      "inputs": [],
      "name": "MANUAL_MINTING_NOT_ALLOWED",
      "type": "error"
    },
    {
      "inputs": [],
      "name": "MAX_TIERS_EXCEEDED",
      "type": "error"
    },
    {
      "inputs": [],
      "name": "NO_QUANTITY",
      "type": "error"
    },
    {
      "inputs": [],
      "name": "OUT",
      "type": "error"
    },
    {
      "inputs": [],
      "name": "RESERVED_RATE_NOT_ALLOWED",
      "type": "error"
    },
    {
      "inputs": [],
      "name": "TIER_REMOVED",
      "type": "error"
    },
    {
      "inputs": [],
      "name": "VOTING_UNITS_NOT_ALLOWED",
      "type": "error"
    },
    {
      "anonymous": false,
      "inputs": [
        {
          "indexed": true,
          "internalType": "address",
          "name": "nft",
          "type": "address"
        },
        {
          "indexed": false,
          "internalType": "address",
          "name": "caller",
          "type": "address"
        }
      ],
      "name": "CleanTiers",
      "type": "event"
    },
    {
      "inputs": [
        {
          "internalType": "address",
          "name": "_nft",
          "type": "address"
        },
        {
          "internalType": "address",
          "name": "_owner",
          "type": "address"
        }
      ],
      "name": "balanceOf",
      "outputs": [
        {
          "internalType": "uint256",
          "name": "balance",
          "type": "uint256"
        }
      ],
      "stateMutability": "view",
      "type": "function"
    },
    {
      "inputs": [
        {
          "internalType": "address",
          "name": "_nft",
          "type": "address"
        }
      ],
      "name": "cleanTiers",
      "outputs": [],
      "stateMutability": "nonpayable",
      "type": "function"
    },
    {
      "inputs": [
        {
          "internalType": "address",
          "name": "",
          "type": "address"
        }
      ],
      "name": "defaultReservedTokenBeneficiaryOf",
      "outputs": [
        {
          "internalType": "address",
          "name": "",
          "type": "address"
        }
      ],
      "stateMutability": "view",
      "type": "function"
    },
    {
      "inputs": [
        {
          "internalType": "address",
          "name": "",
          "type": "address"
        },
        {
          "internalType": "uint256",
          "name": "",
          "type": "uint256"
        }
      ],
      "name": "encodedIPFSUriOf",
      "outputs": [
        {
          "internalType": "bytes32",
          "name": "",
          "type": "bytes32"
        }
      ],
      "stateMutability": "view",
      "type": "function"
    },
    {
      "inputs": [
        {
          "internalType": "address",
          "name": "_nft",
          "type": "address"
        },
        {
          "internalType": "uint256",
          "name": "_tokenId",
          "type": "uint256"
        }
      ],
      "name": "encodedTierIPFSUriOf",
      "outputs": [
        {
          "internalType": "bytes32",
          "name": "",
          "type": "bytes32"
        }
      ],
      "stateMutability": "view",
      "type": "function"
    },
    {
      "inputs": [
        {
          "internalType": "address",
          "name": "_nft",
          "type": "address"
        }
      ],
      "name": "flagsOf",
      "outputs": [
        {
          "components": [
            {
              "internalType": "bool",
              "name": "lockReservedTokenChanges",
              "type": "bool"
            },
            {
              "internalType": "bool",
              "name": "lockVotingUnitChanges",
              "type": "bool"
            },
            {
              "internalType": "bool",
              "name": "lockManualMintingChanges",
              "type": "bool"
            },
            {
              "internalType": "bool",
              "name": "preventOverspending",
              "type": "bool"
            }
          ],
          "internalType": "struct JBTiered721Flags",
          "name": "",
          "type": "tuple"
        }
      ],
      "stateMutability": "view",
      "type": "function"
    },
    {
      "inputs": [
        {
          "internalType": "address",
          "name": "_nft",
          "type": "address"
        },
        {
          "internalType": "uint256",
          "name": "_tierId",
          "type": "uint256"
        }
      ],
      "name": "isTierRemoved",
      "outputs": [
        {
          "internalType": "bool",
          "name": "",
          "type": "bool"
        }
      ],
      "stateMutability": "view",
      "type": "function"
    },
    {
      "inputs": [
        {
          "internalType": "address",
          "name": "",
          "type": "address"
        }
      ],
      "name": "maxTierIdOf",
      "outputs": [
        {
          "internalType": "uint256",
          "name": "",
          "type": "uint256"
        }
      ],
      "stateMutability": "view",
      "type": "function"
    },
    {
      "inputs": [
        {
          "internalType": "address",
          "name": "",
          "type": "address"
        },
        {
          "internalType": "uint256",
          "name": "",
          "type": "uint256"
        }
      ],
      "name": "numberOfBurnedFor",
      "outputs": [
        {
          "internalType": "uint256",
          "name": "",
          "type": "uint256"
        }
      ],
      "stateMutability": "view",
      "type": "function"
    },
    {
      "inputs": [
        {
          "internalType": "address",
          "name": "_nft",
          "type": "address"
        },
        {
          "internalType": "uint256",
          "name": "_tierId",
          "type": "uint256"
        }
      ],
      "name": "numberOfReservedTokensOutstandingFor",
      "outputs": [
        {
          "internalType": "uint256",
          "name": "",
          "type": "uint256"
        }
      ],
      "stateMutability": "view",
      "type": "function"
    },
    {
      "inputs": [
        {
          "internalType": "address",
          "name": "",
          "type": "address"
        },
        {
          "internalType": "uint256",
          "name": "",
          "type": "uint256"
        }
      ],
      "name": "numberOfReservesMintedFor",
      "outputs": [
        {
          "internalType": "uint256",
          "name": "",
          "type": "uint256"
        }
      ],
      "stateMutability": "view",
      "type": "function"
    },
    {
      "inputs": [
        {
          "components": [
            {
              "internalType": "uint104",
              "name": "price",
              "type": "uint104"
            },
            {
              "internalType": "uint32",
              "name": "initialQuantity",
              "type": "uint32"
            },
            {
              "internalType": "uint32",
              "name": "votingUnits",
              "type": "uint32"
            },
            {
              "internalType": "uint16",
              "name": "reservedRate",
              "type": "uint16"
            },
            {
              "internalType": "address",
              "name": "reservedTokenBeneficiary",
              "type": "address"
            },
            {
              "internalType": "bytes32",
              "name": "encodedIPFSUri",
              "type": "bytes32"
            },
            {
              "internalType": "uint24",
              "name": "category",
              "type": "uint24"
            },
            {
              "internalType": "bool",
              "name": "allowManualMint",
              "type": "bool"
            },
            {
              "internalType": "bool",
              "name": "shouldUseReservedTokenBeneficiaryAsDefault",
              "type": "bool"
            },
            {
              "internalType": "bool",
              "name": "transfersPausable",
              "type": "bool"
            },
            {
              "internalType": "bool",
              "name": "useVotingUnits",
              "type": "bool"
            }
          ],
          "internalType": "struct JB721TierParams[]",
          "name": "_tiersToAdd",
          "type": "tuple[]"
        }
      ],
      "name": "recordAddTiers",
      "outputs": [
        {
          "internalType": "uint256[]",
          "name": "tierIds",
          "type": "uint256[]"
        }
      ],
      "stateMutability": "nonpayable",
      "type": "function"
    },
    {
      "inputs": [
        {
          "internalType": "uint256[]",
          "name": "_tokenIds",
          "type": "uint256[]"
        }
      ],
      "name": "recordBurn",
      "outputs": [],
      "stateMutability": "nonpayable",
      "type": "function"
    },
    {
      "inputs": [
        {
          "components": [
            {
              "internalType": "bool",
              "name": "lockReservedTokenChanges",
              "type": "bool"
            },
            {
              "internalType": "bool",
              "name": "lockVotingUnitChanges",
              "type": "bool"
            },
            {
              "internalType": "bool",
              "name": "lockManualMintingChanges",
              "type": "bool"
            },
            {
              "internalType": "bool",
              "name": "preventOverspending",
              "type": "bool"
            }
          ],
          "internalType": "struct JBTiered721Flags",
          "name": "_flags",
          "type": "tuple"
        }
      ],
      "name": "recordFlags",
      "outputs": [],
      "stateMutability": "nonpayable",
      "type": "function"
    },
    {
      "inputs": [
        {
          "internalType": "uint256",
          "name": "_amount",
          "type": "uint256"
        },
        {
          "internalType": "uint16[]",
          "name": "_tierIds",
          "type": "uint16[]"
        },
        {
          "internalType": "bool",
          "name": "_isManualMint",
          "type": "bool"
        }
      ],
      "name": "recordMint",
      "outputs": [
        {
          "internalType": "uint256[]",
          "name": "tokenIds",
          "type": "uint256[]"
        },
        {
          "internalType": "uint256",
          "name": "leftoverAmount",
          "type": "uint256"
        }
      ],
      "stateMutability": "nonpayable",
      "type": "function"
    },
    {
      "inputs": [
        {
          "internalType": "uint256",
          "name": "_tierId",
          "type": "uint256"
        },
        {
          "internalType": "uint256",
          "name": "_count",
          "type": "uint256"
        }
      ],
      "name": "recordMintReservesFor",
      "outputs": [
        {
          "internalType": "uint256[]",
          "name": "tokenIds",
          "type": "uint256[]"
        }
      ],
      "stateMutability": "nonpayable",
      "type": "function"
    },
    {
      "inputs": [
        {
          "internalType": "uint256[]",
          "name": "_tierIds",
          "type": "uint256[]"
        }
      ],
      "name": "recordRemoveTierIds",
      "outputs": [],
      "stateMutability": "nonpayable",
      "type": "function"
    },
    {
      "inputs": [
        {
          "internalType": "uint256",
          "name": "_tierId",
          "type": "uint256"
        },
        {
          "internalType": "bytes32",
          "name": "_encodedIPFSUri",
          "type": "bytes32"
        }
      ],
      "name": "recordSetEncodedIPFSUriOf",
      "outputs": [],
      "stateMutability": "nonpayable",
      "type": "function"
    },
    {
      "inputs": [
        {
          "internalType": "contract IJBTokenUriResolver",
          "name": "_resolver",
          "type": "address"
        }
      ],
      "name": "recordSetTokenUriResolver",
      "outputs": [],
      "stateMutability": "nonpayable",
      "type": "function"
    },
    {
      "inputs": [
        {
          "internalType": "uint256",
          "name": "_tierId",
          "type": "uint256"
        },
        {
          "internalType": "address",
          "name": "_from",
          "type": "address"
        },
        {
          "internalType": "address",
          "name": "_to",
          "type": "address"
        }
      ],
      "name": "recordTransferForTier",
      "outputs": [],
      "stateMutability": "nonpayable",
      "type": "function"
    },
    {
      "inputs": [
        {
          "internalType": "address",
          "name": "_nft",
          "type": "address"
        },
        {
          "internalType": "uint256[]",
          "name": "_tokenIds",
          "type": "uint256[]"
        }
      ],
      "name": "redemptionWeightOf",
      "outputs": [
        {
          "internalType": "uint256",
          "name": "weight",
          "type": "uint256"
        }
      ],
      "stateMutability": "view",
      "type": "function"
    },
    {
      "inputs": [
        {
          "internalType": "address",
          "name": "_nft",
          "type": "address"
        },
        {
          "internalType": "uint256",
          "name": "_tierId",
          "type": "uint256"
        }
      ],
      "name": "reservedTokenBeneficiaryOf",
      "outputs": [
        {
          "internalType": "address",
          "name": "",
          "type": "address"
        }
      ],
      "stateMutability": "view",
      "type": "function"
    },
    {
      "inputs": [
        {
          "internalType": "address",
          "name": "",
          "type": "address"
        },
        {
          "internalType": "address",
          "name": "",
          "type": "address"
        },
        {
          "internalType": "uint256",
          "name": "",
          "type": "uint256"
        }
      ],
      "name": "tierBalanceOf",
      "outputs": [
        {
          "internalType": "uint256",
          "name": "",
          "type": "uint256"
        }
      ],
      "stateMutability": "view",
      "type": "function"
    },
    {
      "inputs": [
        {
          "internalType": "uint256",
          "name": "_tokenId",
          "type": "uint256"
        }
      ],
      "name": "tierIdOfToken",
      "outputs": [
        {
          "internalType": "uint256",
          "name": "",
          "type": "uint256"
        }
      ],
      "stateMutability": "pure",
      "type": "function"
    },
    {
      "inputs": [
        {
          "internalType": "address",
          "name": "_nft",
          "type": "address"
        },
        {
          "internalType": "uint256",
          "name": "_id",
          "type": "uint256"
        },
        {
          "internalType": "bool",
          "name": "_includeResolvedUri",
          "type": "bool"
        }
      ],
      "name": "tierOf",
      "outputs": [
        {
          "components": [
            {
              "internalType": "uint256",
              "name": "id",
              "type": "uint256"
            },
            {
              "internalType": "uint256",
              "name": "price",
              "type": "uint256"
            },
            {
              "internalType": "uint256",
              "name": "remainingQuantity",
              "type": "uint256"
            },
            {
              "internalType": "uint256",
              "name": "initialQuantity",
              "type": "uint256"
            },
            {
              "internalType": "uint256",
              "name": "votingUnits",
              "type": "uint256"
            },
            {
              "internalType": "uint256",
              "name": "reservedRate",
              "type": "uint256"
            },
            {
              "internalType": "address",
              "name": "reservedTokenBeneficiary",
              "type": "address"
            },
            {
              "internalType": "bytes32",
              "name": "encodedIPFSUri",
              "type": "bytes32"
            },
            {
              "internalType": "uint256",
              "name": "category",
              "type": "uint256"
            },
            {
              "internalType": "bool",
              "name": "allowManualMint",
              "type": "bool"
            },
            {
              "internalType": "bool",
              "name": "transfersPausable",
              "type": "bool"
            },
            {
              "internalType": "string",
              "name": "resolvedUri",
              "type": "string"
            }
          ],
          "internalType": "struct JB721Tier",
          "name": "",
          "type": "tuple"
        }
      ],
      "stateMutability": "view",
      "type": "function"
    },
    {
      "inputs": [
        {
          "internalType": "address",
          "name": "_nft",
          "type": "address"
        },
        {
          "internalType": "uint256",
          "name": "_tokenId",
          "type": "uint256"
        },
        {
          "internalType": "bool",
          "name": "_includeResolvedUri",
          "type": "bool"
        }
      ],
      "name": "tierOfTokenId",
      "outputs": [
        {
          "components": [
            {
              "internalType": "uint256",
              "name": "id",
              "type": "uint256"
            },
            {
              "internalType": "uint256",
              "name": "price",
              "type": "uint256"
            },
            {
              "internalType": "uint256",
              "name": "remainingQuantity",
              "type": "uint256"
            },
            {
              "internalType": "uint256",
              "name": "initialQuantity",
              "type": "uint256"
            },
            {
              "internalType": "uint256",
              "name": "votingUnits",
              "type": "uint256"
            },
            {
              "internalType": "uint256",
              "name": "reservedRate",
              "type": "uint256"
            },
            {
              "internalType": "address",
              "name": "reservedTokenBeneficiary",
              "type": "address"
            },
            {
              "internalType": "bytes32",
              "name": "encodedIPFSUri",
              "type": "bytes32"
            },
            {
              "internalType": "uint256",
              "name": "category",
              "type": "uint256"
            },
            {
              "internalType": "bool",
              "name": "allowManualMint",
              "type": "bool"
            },
            {
              "internalType": "bool",
              "name": "transfersPausable",
              "type": "bool"
            },
            {
              "internalType": "string",
              "name": "resolvedUri",
              "type": "string"
            }
          ],
          "internalType": "struct JB721Tier",
          "name": "",
          "type": "tuple"
        }
      ],
      "stateMutability": "view",
      "type": "function"
    },
    {
      "inputs": [
        {
          "internalType": "address",
          "name": "_nft",
          "type": "address"
        },
        {
          "internalType": "address",
          "name": "_account",
          "type": "address"
        },
        {
          "internalType": "uint256",
          "name": "_tierId",
          "type": "uint256"
        }
      ],
      "name": "tierVotingUnitsOf",
      "outputs": [
        {
          "internalType": "uint256",
          "name": "",
          "type": "uint256"
        }
      ],
      "stateMutability": "view",
      "type": "function"
    },
    {
      "inputs": [
        {
          "internalType": "address",
          "name": "_nft",
          "type": "address"
        },
        {
          "internalType": "uint256[]",
          "name": "_categories",
          "type": "uint256[]"
        },
        {
          "internalType": "bool",
          "name": "_includeResolvedUri",
          "type": "bool"
        },
        {
          "internalType": "uint256",
          "name": "_startingId",
          "type": "uint256"
        },
        {
          "internalType": "uint256",
          "name": "_size",
          "type": "uint256"
        }
      ],
      "name": "tiersOf",
      "outputs": [
        {
          "components": [
            {
              "internalType": "uint256",
              "name": "id",
              "type": "uint256"
            },
            {
              "internalType": "uint256",
              "name": "price",
              "type": "uint256"
            },
            {
              "internalType": "uint256",
              "name": "remainingQuantity",
              "type": "uint256"
            },
            {
              "internalType": "uint256",
              "name": "initialQuantity",
              "type": "uint256"
            },
            {
              "internalType": "uint256",
              "name": "votingUnits",
              "type": "uint256"
            },
            {
              "internalType": "uint256",
              "name": "reservedRate",
              "type": "uint256"
            },
            {
              "internalType": "address",
              "name": "reservedTokenBeneficiary",
              "type": "address"
            },
            {
              "internalType": "bytes32",
              "name": "encodedIPFSUri",
              "type": "bytes32"
            },
            {
              "internalType": "uint256",
              "name": "category",
              "type": "uint256"
            },
            {
              "internalType": "bool",
              "name": "allowManualMint",
              "type": "bool"
            },
            {
              "internalType": "bool",
              "name": "transfersPausable",
              "type": "bool"
            },
            {
              "internalType": "string",
              "name": "resolvedUri",
              "type": "string"
            }
          ],
          "internalType": "struct JB721Tier[]",
          "name": "_tiers",
          "type": "tuple[]"
        }
      ],
      "stateMutability": "view",
      "type": "function"
    },
    {
      "inputs": [
        {
          "internalType": "address",
          "name": "",
          "type": "address"
        }
      ],
      "name": "tokenUriResolverOf",
      "outputs": [
        {
          "internalType": "contract IJBTokenUriResolver",
          "name": "",
          "type": "address"
        }
      ],
      "stateMutability": "view",
      "type": "function"
    },
    {
      "inputs": [
        {
          "internalType": "address",
          "name": "_nft",
          "type": "address"
        }
      ],
      "name": "totalRedemptionWeight",
      "outputs": [
        {
          "internalType": "uint256",
          "name": "weight",
          "type": "uint256"
        }
      ],
      "stateMutability": "view",
      "type": "function"
    },
    {
      "inputs": [
        {
          "internalType": "address",
          "name": "_nft",
          "type": "address"
        }
      ],
      "name": "totalSupply",
      "outputs": [
        {
          "internalType": "uint256",
          "name": "supply",
          "type": "uint256"
        }
      ],
      "stateMutability": "view",
      "type": "function"
    },
    {
      "inputs": [
        {
          "internalType": "address",
          "name": "_nft",
          "type": "address"
        },
        {
          "internalType": "address",
          "name": "_account",
          "type": "address"
        }
      ],
      "name": "votingUnitsOf",
      "outputs": [
        {
          "internalType": "uint256",
          "name": "units",
          "type": "uint256"
        }
      ],
      "stateMutability": "view",
      "type": "function"
    }
  ],
  "bytecode": {
    "object": "0x608060405234801561001057600080fd5b50613136806100206000396000f3fe608060405234801561001057600080fd5b50600436106101f05760003560e01c806386bc2be31161010f578063c44a8e6d116100a2578063e4dc2aa411610071578063e4dc2aa414610600578063eaa19ab314610613578063f1bea54f14610634578063f7888aec1461065457600080fd5b8063c44a8e6d1461058a578063c8df17101461059d578063cb827e32146105b0578063d84a72c0146105c357600080fd5b80639403a74f116100de5780639403a74f14610519578063baa7e80e14610539578063bd51923c1461054c578063c2c55f941461057757600080fd5b806386bc2be3146104aa5780638da5e32b146104bd578063911c80b5146104dd578063933555781461050657600080fd5b806335314b92116101875780635f646611116101565780635f6466111461036c57806364faa1591461038f5780636825bb80146103af578063845104de146103da57600080fd5b806335314b92146102e857806337f44652146102fb57806342f9914b1461032c57806349bd1ac61461033f57600080fd5b806320512ba1116101c357806320512ba1146102845780632ae5e492146102975780632b7e6ef0146102aa5780632e4d0ea8146102d557600080fd5b8063086bb19a146101f55780630fab09471461020a578063136e651c14610250578063144cc2d414610263575b600080fd5b610208610203366004612741565b610667565b005b610233610218366004612741565b600c602052600090815260409020546001600160a01b031681565b6040516001600160a01b0390911681526020015b60405180910390f35b61023361025e36600461275e565b6107bf565b6102766102713660046127d6565b610818565b604051908152602001610247565b61020861029236600461282b565b610896565b6102766102a5366004612741565b6108eb565b6102766102b836600461275e565b600a60209081526000928352604080842090915290825290205481565b6102766102e336600461286d565b610a2f565b6102766102f636600461275e565b610ab7565b61027661030936600461286d565b600860209081526000938452604080852082529284528284209052825290205481565b61027661033a3660046128ae565b610b68565b61020861034d3660046128c7565b336000908152600d602090815260408083209483529390529190912055565b61037f61037a36600461275e565b610b78565b6040519015158152602001610247565b6103a261039d366004612902565b610bb0565b6040516102479190612a3c565b6102766103bd36600461275e565b600960209081526000928352604080842090915290825290205481565b61046f6103e8366004612741565b604080516080810182526000808252602082018190529181018290526060810191909152506001600160a01b03166000908152600360209081526040918290208251608081018452905460ff808216151583526101008204811615159383019390935262010000810483161515938201939093526301000000909204161515606082015290565b604051610247919081511515815260208083015115159082015260408083015115159082015260609182015115159181019190915260800190565b6102086104b836600461282b565b610c6a565b6104d06104cb366004612a4f565b610d2b565b6040516102479190612b00565b6102336104eb366004612741565b600b602052600090815260409020546001600160a01b031681565b610276610514366004612b13565b6114d9565b61052c610527366004612b4c565b611650565b6040516102479190612bc6565b6104d06105473660046128c7565b6118b9565b61027661055a36600461275e565b600d60209081526000928352604080842090915290825290205481565b610208610585366004612c28565b611ac0565b6103a2610598366004612902565b611b54565b6102766105ab36600461275e565b611c1c565b6102086105be366004612c5f565b611c55565b6102086105d1366004612741565b336000908152600c6020526040902080546001600160a01b0319166001600160a01b0392909216919091179055565b61027661060e366004612741565b611c70565b610626610621366004612c77565b611d61565b604051610247929190612cd6565b610276610642366004612741565b60076020526000908152604090205481565b610276610662366004612b13565b61204f565b6000610672826120bb565b905060006106818360006120fc565b905060006106a2604051806040016040528060008152602001600081525090565b821561077a576106b3858483612163565b610768576106c2826001612d0e565b831461071a576001600160a01b0385166000908152602081815260408083208584529091529020548314610715576001600160a01b03851660009081526020818152604080832085845290915290208390555b610764565b6001600160a01b03851660009081526020818152604080832085845290915290205415610764576001600160a01b0385166000908152602081815260408083208584529091528120555b8291505b6107738584866121ba565b92506106a2565b6040513381526001600160a01b038616907f4a0f854ce3c180d56f3e9eb47eb064c595bf3de0ab9af45425291e5b1bb733a89060200160405180910390a25050505050565b6001600160a01b03808316600090815260016020908152604080832085845290915281205490911680156107f4579050610812565b50506001600160a01b038083166000908152600b6020526040902054165b92915050565b600081815b8181101561088d576001600160a01b03861660009081526002602052604081209061085f87878581811061085357610853612d21565b90506020020135610b68565b8152602081019190915260400160002054610883906001600160681b031684612d0e565b925060010161081d565b50509392505050565b806000805b828110156108e4578484828181106108b5576108b5612d21565b3360009081526004602090815260409091209102929092013593506108dc91905083612205565b60010161089b565b5050505050565b6001600160a01b03811660009081526007602052604081205461090c612615565b60005b82811015610a27576001600160a01b03851660009081526002602090815260408083206001858101855290835292819020815160e08101835290546001600160681b0381168252600160681b810463ffffffff90811694830194909452600160881b810490931691810191909152600160a81b820464ffffffffff166060820152600160d01b820462ffffff166080820152600160e81b820461ffff1660a0820152600160f81b90910460ff1660c082015292506109da9086906109d4908490612d0e565b8461223e565b826020015183604001516109ee9190612d37565b63ffffffff166109fe9190612d0e565b8251610a1391906001600160681b0316612d5b565b610a1d9085612d0e565b935060010161090f565b505050919050565b6001600160a01b0380841660009081526008602090815260408083209386168352928152828220848352905290812054808203610a70576000915050610ab0565b6001600160a01b0385166000908152600260209081526040808320868452909152902054610aac90600160a81b900464ffffffffff1682612d5b565b9150505b9392505050565b6001600160a01b03821660009081526002602090815260408083208484528252808320815160e08101835290546001600160681b0381168252600160681b810463ffffffff90811694830194909452600160881b810490931691810191909152600160a81b820464ffffffffff166060820152600160d01b820462ffffff166080820152600160e81b820461ffff1660a0820152600160f81b90910460ff1660c0820152610ab0908490849061223e565b6000610812633b9aca0083612d88565b6001600160a01b03821660009081526004602052604081208190610b9c9084612379565b9050610ba881846123bf565b949350505050565b610bb8612651565b6001600160a01b0384166000908152600260209081526040808320868452825291829020825160e08101845290546001600160681b038116825263ffffffff600160681b8204811693830193909352600160881b81049092169281019290925264ffffffffff600160a81b820416606083015262ffffff600160d01b820416608083015261ffff600160e81b82041660a083015260ff600160f81b9091041660c0820152610ba89085908590856123de565b806000805b828110156108e457848482818110610c8957610c89612d21565b9050602002013591506000610c9d83610b68565b336000908152600a602090815260408083208484529091528120805492935090610cc683612d9c565b909155505033600090815260026020908152604080832084845290915290208054600160681b900463ffffffff1690600d610d0083612db5565b91906101000a81548163ffffffff021916908363ffffffff1602179055505081600101915050610c6f565b33600090815260076020526040902054606090829061ffff610d4d8383612d0e565b1115610d6c57604051631bc68c8b60e11b815260040160405180910390fd5b6000610d77336120bb565b90508267ffffffffffffffff811115610d9257610d92612dd8565b604051908082528060200260200182016040528015610dbb578160200160208202803683370190505b50935060008215610dd657610dd13360006120fc565b610dd9565b60005b90506000610de56126c2565b3360009081526003602090815260408083208151608081018352905460ff80821615158352610100820481161515948301949094526201000081048416151592820192909252630100000090910490911615156060820152905b878110156114b0578a8a82818110610e5957610e59612d21565b90506101600201803603810190610e709190612e68565b9250610e816001633b9aca00612f3b565b836020015163ffffffff161115610eab576040516349016ea360e01b815260040160405180910390fd5b610eb36126c2565b8115610f21578b8b610ec6600185612f3b565b818110610ed557610ed5612d21565b90506101600201803603810190610eec9190612e68565b90508060c0015162ffffff168460c0015162ffffff161015610f2157604051631cabebd560e21b815260040160405180910390fd5b82602001518015610f3b5750604084015163ffffffff1615155b15610f5957604051630189200360e11b815260040160405180910390fd5b825180610f6757508360e001515b8015610f7a5750606084015161ffff1615155b15610f985760405163a75b1cd560e01b815260040160405180910390fd5b82604001518015610faa57508360e001515b15610fc8576040516330ec637f60e01b815260040160405180910390fd5b836020015163ffffffff16600003610ff357604051631e0a863160e31b815260040160405180910390fd5b6000610fff838a612d0e565b61100a906001612d0e565b90506040518060e0016040528086600001516001600160681b03168152602001866020015163ffffffff168152602001866020015163ffffffff168152602001866040015163ffffffff1664ffffffffff1681526020018660c0015162ffffff168152602001866060015161ffff1681526020016110a28760e0015188610120015189610140015160021b60019190911b9091171790565b60ff9081169091523360009081526002602090815260408083208684528252918290208451815492860151938601516060870151608088015160a089015160c0998a01516001600160681b0390951670ffffffffffffffffffffffffffffffffff1990971696909617600160681b63ffffffff988916021768ffffffffffffffffff60881b1916600160881b979093169690960264ffffffffff60a81b191691909117600160a81b64ffffffffff909216919091021764ffffffffff60d01b1916600160d01b62ffffff9586160261ffff60e81b191617600160e81b61ffff90941693909302929092176001600160f81b0316600160f81b92909416919091029290921790915586820151918401519181169116148015906111cc575060c085015162ffffff1615155b156111f85733600090815260066020908152604080832060c089015162ffffff16845290915290208190555b60808501516001600160a01b0316156112b15784610100015115611274576080850151336000908152600b60205260409020546001600160a01b0390811691161461126f576080850151336000908152600b6020526040902080546001600160a01b0319166001600160a01b039092169190911790555b6112b1565b6080850151336000908152600160209081526040808320858452909152902080546001600160a01b0319166001600160a01b039092169190911790555b60a0850151156112dc5760a0850151336000908152600d602090815260408083208584529091529020555b8615611488578660005b8115611485576112f733838c6121ba565b33600090815260026020908152604080832086845290915290205460c089015191925062ffffff600160d01b909104811691161180159061133857508a8211155b1561140b57611348836001612d0e565b821461136a573360009081526020818152604080832086845290915290208290555b336000908152600560205260409020548a14611393573360009081526005602052604090208a90555b61139e600184612f3b565b881415806113c35750336000908152602081815260408083208b845290915290205415155b156113fc576113d3600184612f3b565b88146113df57826113e2565b60005b336000908152602081815260408083208c84529091529020555b819850829750600091506112e6565b80158061141757508a81115b1561147c57611427826001612d0e565b8314611449573360009081526020818152604080832085845290915290208390555b3360009081526005602052604081205493995089939092501561147757336000908152600560205260408120555b6112e6565b909650806112e6565b50505b808b848151811061149b5761149b612d21565b60209081029190910101525050600101610e3f565b506114bb8787612d0e565b33600090815260076020526040902055509598975050505050505050565b6001600160a01b038216600090815260076020526040812054816114fb612615565b825b8015611646576001600160a01b038088166000908152600860209081526040808320938a16835292815282822084835290522054925082156115e0576001600160a01b0387166000908152600260209081526040808320848452825291829020825160e08101845290546001600160681b038116825263ffffffff600160681b8204811693830193909352600160881b81049092169281019290925264ffffffffff600160a81b820416606083015262ffffff600160d01b820416608083015261ffff600160e81b82041660a083015260ff600160f81b9091041660c082015291505b60006116008360c001516001811615159160028216151591600416151590565b925050508061161057825161161d565b826060015164ffffffffff165b611630906001600160681b031685612d5b565b61163a9087612d0e565b955050600019016114fd565b5050505092915050565b6060600061165d886120bb565b90508267ffffffffffffffff81111561167857611678612dd8565b6040519080825280602002602001820160405280156116b157816020015b61169e612651565b8152602001906001900390816116965790505b50915060006116be612615565b604080518082019091526000808252602082015260005b83871461189f5760008860000361171a576117158d8c1561170e578d8d8581811061170257611702612d21565b905060200201356120fc565b60006120fc565b61171c565b885b90505b801580159061172d57508785105b156118935761173d8d8285612163565b611881576001600160a01b038d166000908152600260209081526040808320848452825291829020825160e08101845290546001600160681b038116825263ffffffff600160681b8204811693830193909352600160881b81049092169281019290925264ffffffffff600160a81b820416606083015262ffffff600160d01b820416608083015261ffff600160e81b82041660a083015260ff600160f81b9091041660c082015293508a1580159061181657508b8b8381811061180357611803612d21565b90506020020135846080015162ffffff16115b611893578a158061184757508b8b8381811061183457611834612d21565b90506020020135846080015162ffffff16145b15611881576118588d82868d6123de565b878661186381612d9c565b97508151811061187557611875612d21565b60200260200101819052505b61188c8d82886121ba565b905061171f565b506001018981106116d5575b8684146118aa578386525b50505050509695505050505050565b3360008181526002602090815260408083208684528252808320815160e08101835281546001600160681b0381168252600160681b810463ffffffff90811695830195909552600160881b810490941692810192909252600160a81b830464ffffffffff16606080840191909152600160d01b840462ffffff166080840152600160e81b840461ffff1660a0840152600160f81b90930460ff1660c0830152919391929161196891879061223e565b90508084111561198b5760405163226f999960e11b815260040160405180910390fd5b336000908152600960209081526040808320888452909152812080548692906119b5908490612d0e565b9091555084905067ffffffffffffffff8111156119d4576119d4612dd8565b6040519080825280602002602001820160405280156119fd578160200160208202803683370190505b50336000908152600a602090815260408083208984529091528120549194505b8581101561164657611a9b878386600001600d81819054906101000a900463ffffffff16611a4a90612f4e565b91906101000a81548163ffffffff021916908363ffffffff16021790558760000160119054906101000a900463ffffffff16611a869190612d37565b63ffffffff16611a969190612d0e565b6125e0565b858281518110611aad57611aad612d21565b6020908102919091010152600101611a1d565b6001600160a01b03821615611b0d573360009081526008602090815260408083206001600160a01b0386168452825280832086845290915281208054909190611b0890612f6e565b909155505b6001600160a01b03811615611b4f573360009081526008602090815260408083206001600160a01b038516845282528083208684529091529020805460010190555b505050565b611b5c612651565b6000611b6784610b68565b6001600160a01b0386166000908152600260209081526040808320848452825291829020825160e08101845290546001600160681b038116825263ffffffff600160681b8204811693830193909352600160881b81049092169281019290925264ffffffffff600160a81b820416606083015262ffffff600160d01b820416608083015261ffff600160e81b82041660a083015260ff600160f81b9091041660c0820152909150610aac9086908390866123de565b6001600160a01b0382166000908152600d6020526040812081611c3e84610b68565b815260200190815260200160002054905092915050565b3360009081526003602052604090208190611b4f8282612f92565b6000611c7a612615565b6001600160a01b038316600090815260076020526040902054805b8015610a27576001600160a01b0385166000908152600260209081526040808320848452825291829020825160e08101845290546001600160681b038116825263ffffffff600160681b82048116938301849052600160881b82041693820184905264ffffffffff600160a81b820416606083015262ffffff600160d01b820416608083015261ffff600160e81b82041660a083015260ff600160f81b9091041660c08201529450611d4691612d37565b611d569063ffffffff1685612d0e565b935060001901611c95565b606084836000808267ffffffffffffffff811115611d8157611d81612dd8565b604051908082528060200260200182016040528015611daa578160200160208202803683370190505b509450611dca604051806040016040528060008152602001600081525090565b60005b8481101561204157898982818110611de757611de7612d21565b9050602002016020810190611dfc919061302f565b61ffff169250611e0d338484612163565b15611e2b5760405163d32cb5c160e01b815260040160405180910390fd5b33600090815260026020908152604080832086845290915290208054909450600160f81b90046001161515888015611e61575080155b15611e7f57604051632f792d3960e11b815260040160405180910390fd5b8454600160881b900463ffffffff16600003611eae57604051630de5859f60e01b815260040160405180910390fd5b84546001600160681b0316871015611ed957604051632cd294cf60e01b815260040160405180910390fd5b6040805160e08101825286546001600160681b0381168252600160681b810463ffffffff9081166020840152600160881b82041692820192909252600160a81b820464ffffffffff166060820152600160d01b820462ffffff166080820152600160e81b820461ffff1660a0820152600160f81b90910460ff1660c0820152611f65903390869061223e565b8554611f7e9190600160681b900463ffffffff16612f3b565b600003611f9e5760405163985a45d960e01b815260040160405180910390fd5b336000908152600a60209081526040808320878452909152902054855460001963ffffffff600160681b808404821692830182160263ffffffff60681b1990931692909217808955612004938893600160881b90920482169290920360010116016125e0565b88838151811061201657612016612d21565b60209081029190910101528454612036906001600160681b031688612f3b565b965050600101611dcd565b505050505094509492505050565b6001600160a01b038216600090815260076020526040812054805b80156120b3576001600160a01b0380861660009081526008602090815260408083209388168352928152828220848352905220546120a89084612d0e565b92506000190161206a565b505092915050565b6001600160a01b038116600090815260056020526040812054908190036120f757506001600160a01b0381166000908152600760205260409020545b919050565b6000811561212d576001600160a01b0383166000908152600660209081526040808320858452909152902054612150565b6001600160a01b0383166000908152602081815260408083208380529091529020545b9050806000036108125750600192915050565b600061216f82846125fb565b806121865750815115801561218657506020820151155b156121b0576001600160a01b03841660009081526004602052604090206121ad9084612379565b91505b610ba882846123bf565b60008183036121cb57506000610ab0565b6001600160a01b03841660009081526020818152604080832086845290915290205480156121fa579050610ab0565b610aac846001612d0e565b60006122118260081c90565b905061221f6101008361304a565b6000918252602093909352604090208054600190931b90921790915550565b60008160a0015161ffff166000148061226a5750816020015163ffffffff16826040015163ffffffff16145b806122875750600061227c85856107bf565b6001600160a01b0316145b1561229457506000610ab0565b6001600160a01b0384166000908152600960209081526040808320868452825291829020549084015191840151909163ffffffff908116916122d891849116612f3b565b036122e7576000915050610ab0565b600081846020015185604001516122fe9190612d37565b63ffffffff1661230e9190612f3b565b905060008460a0015161ffff16826123269190612d88565b905060008560a0015161ffff168361233e919061304a565b11156123505761234d81612d9c565b90505b808311156123645760009350505050610ab0565b61236e8382612f3b565b979650505050505050565b604080518082019091526000808252602082015260006123998360081c90565b604080518082018252600083815260209788529190912054815294850152509192915050565b60006123cd6101008361304a565b83516001911c811614905092915050565b6123e6612651565b60006123f286866107bf565b905060008060006124178760c001516001811615159160028216151591600416151590565b92509250925060405180610180016040528089815260200188600001516001600160681b03168152602001886020015163ffffffff168152602001886040015163ffffffff1681526020018261246e57885161247b565b886060015164ffffffffff165b6001600160681b031681526020016001600160a01b038616156124a2578860a001516124a5565b60005b61ffff1681526001600160a01b03808716602080840191909152908c166000908152600d825260408082208d835290925281902054908201526080808a015162ffffff1660608301528515159082015283151560a082015260c00187158061252557506001600160a01b038b81166000908152600c602052604090205416155b6125c0576001600160a01b03808c166000908152600c60205260408120549091169063da0544aa90612558908d906125e0565b6040518263ffffffff1660e01b815260040161257691815260200190565b600060405180830381865afa158015612593573d6000803e3d6000fd5b505050506040513d6000823e601f3d908101601f191682016040526125bb919081019061305e565b6125d1565b604051806020016040528060008152505b90529998505050505050505050565b6000816125f1633b9aca0085612d5b565b610ab09190612d0e565b6000826020015161260c8360081c90565b14159392505050565b6040805160e081018252600080825260208201819052918101829052606081018290526080810182905260a0810182905260c081019190915290565b60405180610180016040528060008152602001600081526020016000815260200160008152602001600081526020016000815260200160006001600160a01b031681526020016000801916815260200160008152602001600015158152602001600015158152602001606081525090565b6040805161016081018252600080825260208201819052918101829052606081018290526080810182905260a0810182905260c0810182905260e081018290526101008101829052610120810182905261014081019190915290565b6001600160a01b038116811461273357600080fd5b50565b80356120f78161271e565b60006020828403121561275357600080fd5b8135610ab08161271e565b6000806040838503121561277157600080fd5b823561277c8161271e565b946020939093013593505050565b60008083601f84011261279c57600080fd5b50813567ffffffffffffffff8111156127b457600080fd5b6020830191508360208260051b85010111156127cf57600080fd5b9250929050565b6000806000604084860312156127eb57600080fd5b83356127f68161271e565b9250602084013567ffffffffffffffff81111561281257600080fd5b61281e8682870161278a565b9497909650939450505050565b6000806020838503121561283e57600080fd5b823567ffffffffffffffff81111561285557600080fd5b6128618582860161278a565b90969095509350505050565b60008060006060848603121561288257600080fd5b833561288d8161271e565b9250602084013561289d8161271e565b929592945050506040919091013590565b6000602082840312156128c057600080fd5b5035919050565b600080604083850312156128da57600080fd5b50508035926020909101359150565b801515811461273357600080fd5b80356120f7816128e9565b60008060006060848603121561291757600080fd5b83356129228161271e565b9250602084013591506040840135612939816128e9565b809150509250925092565b60005b8381101561295f578181015183820152602001612947565b50506000910152565b60008151808452612980816020860160208601612944565b601f01601f19169290920160200192915050565b6000610180825184526020830151602085015260408301516040850152606083015160608501526080830151608085015260a083015160a085015260c08301516129e960c08601826001600160a01b03169052565b5060e083810151908501526101008084015190850152610120808401511515908501526101408084015115159085015261016080840151818601839052612a3283870182612968565b9695505050505050565b602081526000610ab06020830184612994565b60008060208385031215612a6257600080fd5b823567ffffffffffffffff80821115612a7a57600080fd5b818501915085601f830112612a8e57600080fd5b813581811115612a9d57600080fd5b86602061016083028501011115612ab357600080fd5b60209290920196919550909350505050565b600081518084526020808501945080840160005b83811015612af557815187529582019590820190600101612ad9565b509495945050505050565b602081526000610ab06020830184612ac5565b60008060408385031215612b2657600080fd5b8235612b318161271e565b91506020830135612b418161271e565b809150509250929050565b60008060008060008060a08789031215612b6557600080fd5b8635612b708161271e565b9550602087013567ffffffffffffffff811115612b8c57600080fd5b612b9889828a0161278a565b9096509450506040870135612bac816128e9565b959894975092956060810135946080909101359350915050565b6000602080830181845280855180835260408601915060408160051b870101925083870160005b82811015612c1b57603f19888603018452612c09858351612994565b94509285019290850190600101612bed565b5092979650505050505050565b600080600060608486031215612c3d57600080fd5b833592506020840135612c4f8161271e565b915060408401356129398161271e565b600060808284031215612c7157600080fd5b50919050565b60008060008060608587031215612c8d57600080fd5b84359350602085013567ffffffffffffffff811115612cab57600080fd5b612cb78782880161278a565b9094509250506040850135612ccb816128e9565b939692955090935050565b604081526000612ce96040830185612ac5565b90508260208301529392505050565b634e487b7160e01b600052601160045260246000fd5b8082018082111561081257610812612cf8565b634e487b7160e01b600052603260045260246000fd5b63ffffffff828116828216039080821115612d5457612d54612cf8565b5092915050565b808202811582820484141761081257610812612cf8565b634e487b7160e01b600052601260045260246000fd5b600082612d9757612d97612d72565b500490565b600060018201612dae57612dae612cf8565b5060010190565b600063ffffffff808316818103612dce57612dce612cf8565b6001019392505050565b634e487b7160e01b600052604160045260246000fd5b604051610160810167ffffffffffffffff81118282101715612e1257612e12612dd8565b60405290565b80356001600160681b03811681146120f757600080fd5b803563ffffffff811681146120f757600080fd5b803561ffff811681146120f757600080fd5b803562ffffff811681146120f757600080fd5b60006101608284031215612e7b57600080fd5b612e83612dee565b612e8c83612e18565b8152612e9a60208401612e2f565b6020820152612eab60408401612e2f565b6040820152612ebc60608401612e43565b6060820152612ecd60808401612736565b608082015260a083013560a0820152612ee860c08401612e55565b60c0820152612ef960e084016128f7565b60e0820152610100612f0c8185016128f7565b90820152610120612f1e8482016128f7565b90820152610140612f308482016128f7565b908201529392505050565b8181038181111561081257610812612cf8565b600063ffffffff821680612f6457612f64612cf8565b6000190192915050565b600081612f7d57612f7d612cf8565b506000190190565b60008135610812816128e9565b8135612f9d816128e9565b815460ff19811691151560ff1691821783556020840135612fbd816128e9565b61ff0090151560081b1661ffff1982168317811784556040850135612fe1816128e9565b62ff000081151560101b168462ffffff1985161783171785555050505061302b61300d60608401612f85565b82805463ff000000191691151560181b63ff00000016919091179055565b5050565b60006020828403121561304157600080fd5b610ab082612e43565b60008261305957613059612d72565b500690565b60006020828403121561307057600080fd5b815167ffffffffffffffff8082111561308857600080fd5b818401915084601f83011261309c57600080fd5b8151818111156130ae576130ae612dd8565b604051601f8201601f19908116603f011681019083821181831017156130d6576130d6612dd8565b816040528281528760208487010111156130ef57600080fd5b61236e83602083016020880161294456fea2646970667358221220dbf01c4360eab15f5a2400e1c326982c998d8fac1cdf091b9b17f0ccb02032b364736f6c63430008110033",
    "linkReferences": {}
  },
  "methodIdentifiers": {
    "balanceOf(address,address)": "f7888aec",
    "cleanTiers(address)": "086bb19a",
    "defaultReservedTokenBeneficiaryOf(address)": "911c80b5",
    "encodedIPFSUriOf(address,uint256)": "bd51923c",
    "encodedTierIPFSUriOf(address,uint256)": "c8df1710",
    "flagsOf(address)": "845104de",
    "isTierRemoved(address,uint256)": "5f646611",
    "maxTierIdOf(address)": "f1bea54f",
    "numberOfBurnedFor(address,uint256)": "2b7e6ef0",
    "numberOfReservedTokensOutstandingFor(address,uint256)": "35314b92",
    "numberOfReservesMintedFor(address,uint256)": "6825bb80",
    "recordAddTiers((uint104,uint32,uint32,uint16,address,bytes32,uint24,bool,bool,bool,bool)[])": "8da5e32b",
    "recordBurn(uint256[])": "86bc2be3",
    "recordFlags((bool,bool,bool,bool))": "cb827e32",
    "recordMint(uint256,uint16[],bool)": "eaa19ab3",
    "recordMintReservesFor(uint256,uint256)": "baa7e80e",
    "recordRemoveTierIds(uint256[])": "20512ba1",
    "recordSetEncodedIPFSUriOf(uint256,bytes32)": "49bd1ac6",
    "recordSetTokenUriResolver(address)": "d84a72c0",
    "recordTransferForTier(uint256,address,address)": "c2c55f94",
    "redemptionWeightOf(address,uint256[])": "144cc2d4",
    "reservedTokenBeneficiaryOf(address,uint256)": "136e651c",
    "tierBalanceOf(address,address,uint256)": "37f44652",
    "tierIdOfToken(uint256)": "42f9914b",
    "tierOf(address,uint256,bool)": "64faa159",
    "tierOfTokenId(address,uint256,bool)": "c44a8e6d",
    "tierVotingUnitsOf(address,address,uint256)": "2e4d0ea8",
    "tiersOf(address,uint256[],bool,uint256,uint256)": "9403a74f",
    "tokenUriResolverOf(address)": "0fab0947",
    "totalRedemptionWeight(address)": "2ae5e492",
    "totalSupply(address)": "e4dc2aa4",
    "votingUnitsOf(address,address)": "93355578"
  },
  "id": 3
}