{
  "abi": [
    {
      "inputs": [],
      "name": "CANT_MINT_MANUALLY",
      "type": "error"
    },
    {
      "inputs": [],
      "name": "INSUFFICIENT_AMOUNT",
      "type": "error"
    },
    {
      "inputs": [],
      "name": "INSUFFICIENT_RESERVES",
      "type": "error"
    },
    {
      "inputs": [],
      "name": "INVALID_CATEGORY_SORT_ORDER",
      "type": "error"
    },
    {
      "inputs": [],
      "name": "INVALID_QUANTITY",
      "type": "error"
    },
    {
      "inputs": [],
      "name": "INVALID_ROYALTY_RATE",
      "type": "error"
    },
    {
      "inputs": [],
      "name": "INVALID_TIER",
      "type": "error"
    },
    {
      "inputs": [],
      "name": "MANUAL_MINTING_NOT_ALLOWED",
      "type": "error"
    },
    {
      "inputs": [],
      "name": "MAX_TIERS_EXCEEDED",
      "type": "error"
    },
    {
      "inputs": [],
      "name": "NO_QUANTITY",
      "type": "error"
    },
    {
      "inputs": [],
      "name": "OUT",
      "type": "error"
    },
    {
      "inputs": [
        {
          "internalType": "uint256",
          "name": "prod1",
          "type": "uint256"
        },
        {
          "internalType": "uint256",
          "name": "denominator",
          "type": "uint256"
        }
      ],
      "name": "PRBMath__MulDivOverflow",
      "type": "error"
    },
    {
      "inputs": [],
      "name": "PRICING_RESOLVER_CHANGES_LOCKED",
      "type": "error"
    },
    {
      "inputs": [],
      "name": "RESERVED_RATE_NOT_ALLOWED",
      "type": "error"
    },
    {
      "inputs": [],
      "name": "TIER_REMOVED",
      "type": "error"
    },
    {
      "inputs": [],
      "name": "VOTING_UNITS_NOT_ALLOWED",
      "type": "error"
    },
    {
      "anonymous": false,
      "inputs": [
        {
          "indexed": true,
          "internalType": "address",
          "name": "nft",
          "type": "address"
        },
        {
          "indexed": false,
          "internalType": "address",
          "name": "caller",
          "type": "address"
        }
      ],
      "name": "CleanTiers",
      "type": "event"
    },
    {
      "inputs": [],
      "name": "MAX_ROYALTY_RATE",
      "outputs": [
        {
          "internalType": "uint256",
          "name": "",
          "type": "uint256"
        }
      ],
      "stateMutability": "view",
      "type": "function"
    },
    {
      "inputs": [
        {
          "internalType": "address",
          "name": "_nft",
          "type": "address"
        },
        {
          "internalType": "address",
          "name": "_owner",
          "type": "address"
        }
      ],
      "name": "balanceOf",
      "outputs": [
        {
          "internalType": "uint256",
          "name": "balance",
          "type": "uint256"
        }
      ],
      "stateMutability": "view",
      "type": "function"
    },
    {
      "inputs": [
        {
          "internalType": "address",
          "name": "",
          "type": "address"
        }
      ],
      "name": "baseUriOf",
      "outputs": [
        {
          "internalType": "string",
          "name": "",
          "type": "string"
        }
      ],
      "stateMutability": "view",
      "type": "function"
    },
    {
      "inputs": [
        {
          "internalType": "address",
          "name": "_nft",
          "type": "address"
        }
      ],
      "name": "cleanTiers",
      "outputs": [],
      "stateMutability": "nonpayable",
      "type": "function"
    },
    {
      "inputs": [
        {
          "internalType": "address",
          "name": "",
          "type": "address"
        }
      ],
      "name": "contractUriOf",
      "outputs": [
        {
          "internalType": "string",
          "name": "",
          "type": "string"
        }
      ],
      "stateMutability": "view",
      "type": "function"
    },
    {
      "inputs": [
        {
          "internalType": "address",
          "name": "",
          "type": "address"
        }
      ],
      "name": "defaultReservedTokenBeneficiaryOf",
      "outputs": [
        {
          "internalType": "address",
          "name": "",
          "type": "address"
        }
      ],
      "stateMutability": "view",
      "type": "function"
    },
    {
      "inputs": [
        {
          "internalType": "address",
          "name": "",
          "type": "address"
        }
      ],
      "name": "defaultRoyaltyBeneficiaryOf",
      "outputs": [
        {
          "internalType": "address",
          "name": "",
          "type": "address"
        }
      ],
      "stateMutability": "view",
      "type": "function"
    },
    {
      "inputs": [
        {
          "internalType": "address",
          "name": "",
          "type": "address"
        },
        {
          "internalType": "uint256",
          "name": "",
          "type": "uint256"
        }
      ],
      "name": "encodedIPFSUriOf",
      "outputs": [
        {
          "internalType": "bytes32",
          "name": "",
          "type": "bytes32"
        }
      ],
      "stateMutability": "view",
      "type": "function"
    },
    {
      "inputs": [
        {
          "internalType": "address",
          "name": "_nft",
          "type": "address"
        },
        {
          "internalType": "uint256",
          "name": "_tokenId",
          "type": "uint256"
        }
      ],
      "name": "encodedTierIPFSUriOf",
      "outputs": [
        {
          "internalType": "bytes32",
          "name": "",
          "type": "bytes32"
        }
      ],
      "stateMutability": "view",
      "type": "function"
    },
    {
      "inputs": [
        {
          "internalType": "address",
          "name": "",
          "type": "address"
        },
        {
          "internalType": "uint256",
          "name": "",
          "type": "uint256"
        }
      ],
      "name": "firstOwnerOf",
      "outputs": [
        {
          "internalType": "address",
          "name": "",
          "type": "address"
        }
      ],
      "stateMutability": "view",
      "type": "function"
    },
    {
      "inputs": [
        {
          "internalType": "address",
          "name": "_nft",
          "type": "address"
        }
      ],
      "name": "flagsOf",
      "outputs": [
        {
          "components": [
            {
              "internalType": "bool",
              "name": "lockReservedTokenChanges",
              "type": "bool"
            },
            {
              "internalType": "bool",
              "name": "lockVotingUnitChanges",
              "type": "bool"
            },
            {
              "internalType": "bool",
              "name": "lockManualMintingChanges",
              "type": "bool"
            },
            {
              "internalType": "bool",
              "name": "preventOverspending",
              "type": "bool"
            }
          ],
          "internalType": "struct JBTiered721Flags",
          "name": "",
          "type": "tuple"
        }
      ],
      "stateMutability": "view",
      "type": "function"
    },
    {
      "inputs": [
        {
          "internalType": "address",
          "name": "_nft",
          "type": "address"
        },
        {
          "internalType": "uint256",
          "name": "_tierId",
          "type": "uint256"
        }
      ],
      "name": "isTierRemoved",
      "outputs": [
        {
          "internalType": "bool",
          "name": "",
          "type": "bool"
        }
      ],
      "stateMutability": "view",
      "type": "function"
    },
    {
      "inputs": [
        {
          "internalType": "address",
          "name": "",
          "type": "address"
        }
      ],
      "name": "maxTierIdOf",
      "outputs": [
        {
          "internalType": "uint256",
          "name": "",
          "type": "uint256"
        }
      ],
      "stateMutability": "view",
      "type": "function"
    },
    {
      "inputs": [
        {
          "internalType": "address",
          "name": "",
          "type": "address"
        },
        {
          "internalType": "uint256",
          "name": "",
          "type": "uint256"
        }
      ],
      "name": "numberOfBurnedFor",
      "outputs": [
        {
          "internalType": "uint256",
          "name": "",
          "type": "uint256"
        }
      ],
      "stateMutability": "view",
      "type": "function"
    },
    {
      "inputs": [
        {
          "internalType": "address",
          "name": "_nft",
          "type": "address"
        },
        {
          "internalType": "uint256",
          "name": "_tierId",
          "type": "uint256"
        }
      ],
      "name": "numberOfReservedTokensOutstandingFor",
      "outputs": [
        {
          "internalType": "uint256",
          "name": "",
          "type": "uint256"
        }
      ],
      "stateMutability": "view",
      "type": "function"
    },
    {
      "inputs": [
        {
          "internalType": "address",
          "name": "",
          "type": "address"
        },
        {
          "internalType": "uint256",
          "name": "",
          "type": "uint256"
        }
      ],
      "name": "numberOfReservesMintedFor",
      "outputs": [
        {
          "internalType": "uint256",
          "name": "",
          "type": "uint256"
        }
      ],
      "stateMutability": "view",
      "type": "function"
    },
    {
      "inputs": [
        {
          "components": [
            {
              "internalType": "uint88",
              "name": "price",
              "type": "uint88"
            },
            {
              "internalType": "uint40",
              "name": "initialQuantity",
              "type": "uint40"
            },
            {
              "internalType": "uint40",
              "name": "votingUnits",
              "type": "uint40"
            },
            {
              "internalType": "uint16",
              "name": "reservedRate",
              "type": "uint16"
            },
            {
              "internalType": "address",
              "name": "reservedTokenBeneficiary",
              "type": "address"
            },
            {
              "internalType": "uint8",
              "name": "royaltyRate",
              "type": "uint8"
            },
            {
              "internalType": "address",
              "name": "royaltyBeneficiary",
              "type": "address"
            },
            {
              "internalType": "bytes32",
              "name": "encodedIPFSUri",
              "type": "bytes32"
            },
            {
              "internalType": "uint16",
              "name": "category",
              "type": "uint16"
            },
            {
              "internalType": "bool",
              "name": "allowManualMint",
              "type": "bool"
            },
            {
              "internalType": "bool",
              "name": "shouldUseReservedTokenBeneficiaryAsDefault",
              "type": "bool"
            },
            {
              "internalType": "bool",
              "name": "shouldUseRoyaltyBeneficiaryAsDefault",
              "type": "bool"
            },
            {
              "internalType": "bool",
              "name": "transfersPausable",
              "type": "bool"
            },
            {
              "internalType": "bool",
              "name": "useVotingUnits",
              "type": "bool"
            }
          ],
          "internalType": "struct JB721TierParams[]",
          "name": "_tiersToAdd",
          "type": "tuple[]"
        }
      ],
      "name": "recordAddTiers",
      "outputs": [
        {
          "internalType": "uint256[]",
          "name": "tierIds",
          "type": "uint256[]"
        }
      ],
      "stateMutability": "nonpayable",
      "type": "function"
    },
    {
      "inputs": [
        {
          "internalType": "uint256[]",
          "name": "_tokenIds",
          "type": "uint256[]"
        }
      ],
      "name": "recordBurn",
      "outputs": [],
      "stateMutability": "nonpayable",
      "type": "function"
    },
    {
      "inputs": [
        {
          "components": [
            {
              "internalType": "bool",
              "name": "lockReservedTokenChanges",
              "type": "bool"
            },
            {
              "internalType": "bool",
              "name": "lockVotingUnitChanges",
              "type": "bool"
            },
            {
              "internalType": "bool",
              "name": "lockManualMintingChanges",
              "type": "bool"
            },
            {
              "internalType": "bool",
              "name": "preventOverspending",
              "type": "bool"
            }
          ],
          "internalType": "struct JBTiered721Flags",
          "name": "_flags",
          "type": "tuple"
        }
      ],
      "name": "recordFlags",
      "outputs": [],
      "stateMutability": "nonpayable",
      "type": "function"
    },
    {
      "inputs": [
        {
          "internalType": "uint256",
          "name": "_amount",
          "type": "uint256"
        },
        {
          "internalType": "uint16[]",
          "name": "_tierIds",
          "type": "uint16[]"
        },
        {
          "internalType": "bool",
          "name": "_isManualMint",
          "type": "bool"
        }
      ],
      "name": "recordMint",
      "outputs": [
        {
          "internalType": "uint256[]",
          "name": "tokenIds",
          "type": "uint256[]"
        },
        {
          "internalType": "uint256",
          "name": "leftoverAmount",
          "type": "uint256"
        }
      ],
      "stateMutability": "nonpayable",
      "type": "function"
    },
    {
      "inputs": [
        {
          "internalType": "uint256",
          "name": "_tierId",
          "type": "uint256"
        },
        {
          "internalType": "uint256",
          "name": "_count",
          "type": "uint256"
        }
      ],
      "name": "recordMintReservesFor",
      "outputs": [
        {
          "internalType": "uint256[]",
          "name": "tokenIds",
          "type": "uint256[]"
        }
      ],
      "stateMutability": "nonpayable",
      "type": "function"
    },
    {
      "inputs": [
        {
          "internalType": "uint256[]",
          "name": "_tierIds",
          "type": "uint256[]"
        }
      ],
      "name": "recordRemoveTierIds",
      "outputs": [],
      "stateMutability": "nonpayable",
      "type": "function"
    },
    {
      "inputs": [
        {
          "internalType": "string",
          "name": "_uri",
          "type": "string"
        }
      ],
      "name": "recordSetBaseUri",
      "outputs": [],
      "stateMutability": "nonpayable",
      "type": "function"
    },
    {
      "inputs": [
        {
          "internalType": "string",
          "name": "_uri",
          "type": "string"
        }
      ],
      "name": "recordSetContractUri",
      "outputs": [],
      "stateMutability": "nonpayable",
      "type": "function"
    },
    {
      "inputs": [
        {
          "internalType": "address",
          "name": "_beneficiary",
          "type": "address"
        }
      ],
      "name": "recordSetDefaultReservedTokenBeneficiary",
      "outputs": [],
      "stateMutability": "nonpayable",
      "type": "function"
    },
    {
      "inputs": [
        {
          "internalType": "uint256",
          "name": "_tierId",
          "type": "uint256"
        },
        {
          "internalType": "bytes32",
          "name": "_encodedIPFSUri",
          "type": "bytes32"
        }
      ],
      "name": "recordSetEncodedIPFSUriOf",
      "outputs": [],
      "stateMutability": "nonpayable",
      "type": "function"
    },
    {
      "inputs": [
        {
          "internalType": "uint256",
          "name": "_tokenId",
          "type": "uint256"
        },
        {
          "internalType": "address",
          "name": "_owner",
          "type": "address"
        }
      ],
      "name": "recordSetFirstOwnerOf",
      "outputs": [],
      "stateMutability": "nonpayable",
      "type": "function"
    },
    {
      "inputs": [
        {
          "internalType": "contract IJBTokenUriResolver",
          "name": "_resolver",
          "type": "address"
        }
      ],
      "name": "recordSetTokenUriResolver",
      "outputs": [],
      "stateMutability": "nonpayable",
      "type": "function"
    },
    {
      "inputs": [
        {
          "internalType": "uint256",
          "name": "_tierId",
          "type": "uint256"
        },
        {
          "internalType": "address",
          "name": "_from",
          "type": "address"
        },
        {
          "internalType": "address",
          "name": "_to",
          "type": "address"
        }
      ],
      "name": "recordTransferForTier",
      "outputs": [],
      "stateMutability": "nonpayable",
      "type": "function"
    },
    {
      "inputs": [
        {
          "internalType": "address",
          "name": "_nft",
          "type": "address"
        },
        {
          "internalType": "uint256[]",
          "name": "_tokenIds",
          "type": "uint256[]"
        }
      ],
      "name": "redemptionWeightOf",
      "outputs": [
        {
          "internalType": "uint256",
          "name": "weight",
          "type": "uint256"
        }
      ],
      "stateMutability": "view",
      "type": "function"
    },
    {
      "inputs": [
        {
          "internalType": "address",
          "name": "_nft",
          "type": "address"
        },
        {
          "internalType": "uint256",
          "name": "_tierId",
          "type": "uint256"
        }
      ],
      "name": "reservedTokenBeneficiaryOf",
      "outputs": [
        {
          "internalType": "address",
          "name": "",
          "type": "address"
        }
      ],
      "stateMutability": "view",
      "type": "function"
    },
    {
      "inputs": [
        {
          "internalType": "address",
          "name": "_nft",
          "type": "address"
        },
        {
          "internalType": "uint256",
          "name": "_tokenId",
          "type": "uint256"
        },
        {
          "internalType": "uint256",
          "name": "_salePrice",
          "type": "uint256"
        }
      ],
      "name": "royaltyInfo",
      "outputs": [
        {
          "internalType": "address",
          "name": "receiver",
          "type": "address"
        },
        {
          "internalType": "uint256",
          "name": "royaltyAmount",
          "type": "uint256"
        }
      ],
      "stateMutability": "view",
      "type": "function"
    },
    {
      "inputs": [
        {
          "internalType": "address",
          "name": "",
          "type": "address"
        },
        {
          "internalType": "address",
          "name": "",
          "type": "address"
        },
        {
          "internalType": "uint256",
          "name": "",
          "type": "uint256"
        }
      ],
      "name": "tierBalanceOf",
      "outputs": [
        {
          "internalType": "uint256",
          "name": "",
          "type": "uint256"
        }
      ],
      "stateMutability": "view",
      "type": "function"
    },
    {
      "inputs": [
        {
          "internalType": "uint256",
          "name": "_tokenId",
          "type": "uint256"
        }
      ],
      "name": "tierIdOfToken",
      "outputs": [
        {
          "internalType": "uint256",
          "name": "",
          "type": "uint256"
        }
      ],
      "stateMutability": "pure",
      "type": "function"
    },
    {
      "inputs": [
        {
          "internalType": "address",
          "name": "_nft",
          "type": "address"
        },
        {
          "internalType": "uint256",
          "name": "_id",
          "type": "uint256"
        }
      ],
      "name": "tierOf",
      "outputs": [
        {
          "components": [
            {
              "internalType": "uint256",
              "name": "id",
              "type": "uint256"
            },
            {
              "internalType": "uint256",
              "name": "price",
              "type": "uint256"
            },
            {
              "internalType": "uint256",
              "name": "remainingQuantity",
              "type": "uint256"
            },
            {
              "internalType": "uint256",
              "name": "initialQuantity",
              "type": "uint256"
            },
            {
              "internalType": "uint256",
              "name": "votingUnits",
              "type": "uint256"
            },
            {
              "internalType": "uint256",
              "name": "reservedRate",
              "type": "uint256"
            },
            {
              "internalType": "address",
              "name": "reservedTokenBeneficiary",
              "type": "address"
            },
            {
              "internalType": "uint256",
              "name": "royaltyRate",
              "type": "uint256"
            },
            {
              "internalType": "address",
              "name": "royaltyBeneficiary",
              "type": "address"
            },
            {
              "internalType": "bytes32",
              "name": "encodedIPFSUri",
              "type": "bytes32"
            },
            {
              "internalType": "uint256",
              "name": "category",
              "type": "uint256"
            },
            {
              "internalType": "bool",
              "name": "allowManualMint",
              "type": "bool"
            },
            {
              "internalType": "bool",
              "name": "transfersPausable",
              "type": "bool"
            },
            {
              "internalType": "bool",
              "name": "useVotingUnits",
              "type": "bool"
            }
          ],
          "internalType": "struct JB721Tier",
          "name": "",
          "type": "tuple"
        }
      ],
      "stateMutability": "view",
      "type": "function"
    },
    {
      "inputs": [
        {
          "internalType": "address",
          "name": "_nft",
          "type": "address"
        },
        {
          "internalType": "uint256",
          "name": "_tokenId",
          "type": "uint256"
        }
      ],
      "name": "tierOfTokenId",
      "outputs": [
        {
          "components": [
            {
              "internalType": "uint256",
              "name": "id",
              "type": "uint256"
            },
            {
              "internalType": "uint256",
              "name": "price",
              "type": "uint256"
            },
            {
              "internalType": "uint256",
              "name": "remainingQuantity",
              "type": "uint256"
            },
            {
              "internalType": "uint256",
              "name": "initialQuantity",
              "type": "uint256"
            },
            {
              "internalType": "uint256",
              "name": "votingUnits",
              "type": "uint256"
            },
            {
              "internalType": "uint256",
              "name": "reservedRate",
              "type": "uint256"
            },
            {
              "internalType": "address",
              "name": "reservedTokenBeneficiary",
              "type": "address"
            },
            {
              "internalType": "uint256",
              "name": "royaltyRate",
              "type": "uint256"
            },
            {
              "internalType": "address",
              "name": "royaltyBeneficiary",
              "type": "address"
            },
            {
              "internalType": "bytes32",
              "name": "encodedIPFSUri",
              "type": "bytes32"
            },
            {
              "internalType": "uint256",
              "name": "category",
              "type": "uint256"
            },
            {
              "internalType": "bool",
              "name": "allowManualMint",
              "type": "bool"
            },
            {
              "internalType": "bool",
              "name": "transfersPausable",
              "type": "bool"
            },
            {
              "internalType": "bool",
              "name": "useVotingUnits",
              "type": "bool"
            }
          ],
          "internalType": "struct JB721Tier",
          "name": "",
          "type": "tuple"
        }
      ],
      "stateMutability": "view",
      "type": "function"
    },
    {
      "inputs": [
        {
          "internalType": "address",
          "name": "_nft",
          "type": "address"
        },
        {
          "internalType": "address",
          "name": "_account",
          "type": "address"
        },
        {
          "internalType": "uint256",
          "name": "_tierId",
          "type": "uint256"
        }
      ],
      "name": "tierVotingUnitsOf",
      "outputs": [
        {
          "internalType": "uint256",
          "name": "",
          "type": "uint256"
        }
      ],
      "stateMutability": "view",
      "type": "function"
    },
    {
      "inputs": [
        {
          "internalType": "address",
          "name": "_nft",
          "type": "address"
        },
        {
          "internalType": "uint256[]",
          "name": "_categories",
          "type": "uint256[]"
        },
        {
          "internalType": "uint256",
          "name": "_startingId",
          "type": "uint256"
        },
        {
          "internalType": "uint256",
          "name": "_size",
          "type": "uint256"
        }
      ],
      "name": "tiersOf",
      "outputs": [
        {
          "components": [
            {
              "internalType": "uint256",
              "name": "id",
              "type": "uint256"
            },
            {
              "internalType": "uint256",
              "name": "price",
              "type": "uint256"
            },
            {
              "internalType": "uint256",
              "name": "remainingQuantity",
              "type": "uint256"
            },
            {
              "internalType": "uint256",
              "name": "initialQuantity",
              "type": "uint256"
            },
            {
              "internalType": "uint256",
              "name": "votingUnits",
              "type": "uint256"
            },
            {
              "internalType": "uint256",
              "name": "reservedRate",
              "type": "uint256"
            },
            {
              "internalType": "address",
              "name": "reservedTokenBeneficiary",
              "type": "address"
            },
            {
              "internalType": "uint256",
              "name": "royaltyRate",
              "type": "uint256"
            },
            {
              "internalType": "address",
              "name": "royaltyBeneficiary",
              "type": "address"
            },
            {
              "internalType": "bytes32",
              "name": "encodedIPFSUri",
              "type": "bytes32"
            },
            {
              "internalType": "uint256",
              "name": "category",
              "type": "uint256"
            },
            {
              "internalType": "bool",
              "name": "allowManualMint",
              "type": "bool"
            },
            {
              "internalType": "bool",
              "name": "transfersPausable",
              "type": "bool"
            },
            {
              "internalType": "bool",
              "name": "useVotingUnits",
              "type": "bool"
            }
          ],
          "internalType": "struct JB721Tier[]",
          "name": "_tiers",
          "type": "tuple[]"
        }
      ],
      "stateMutability": "view",
      "type": "function"
    },
    {
      "inputs": [
        {
          "internalType": "address",
          "name": "",
          "type": "address"
        }
      ],
      "name": "tokenUriResolverOf",
      "outputs": [
        {
          "internalType": "contract IJBTokenUriResolver",
          "name": "",
          "type": "address"
        }
      ],
      "stateMutability": "view",
      "type": "function"
    },
    {
      "inputs": [
        {
          "internalType": "address",
          "name": "_nft",
          "type": "address"
        }
      ],
      "name": "totalRedemptionWeight",
      "outputs": [
        {
          "internalType": "uint256",
          "name": "weight",
          "type": "uint256"
        }
      ],
      "stateMutability": "view",
      "type": "function"
    },
    {
      "inputs": [
        {
          "internalType": "address",
          "name": "_nft",
          "type": "address"
        }
      ],
      "name": "totalSupply",
      "outputs": [
        {
          "internalType": "uint256",
          "name": "supply",
          "type": "uint256"
        }
      ],
      "stateMutability": "view",
      "type": "function"
    },
    {
      "inputs": [
        {
          "internalType": "address",
          "name": "_nft",
          "type": "address"
        },
        {
          "internalType": "address",
          "name": "_account",
          "type": "address"
        }
      ],
      "name": "votingUnitsOf",
      "outputs": [
        {
          "internalType": "uint256",
          "name": "units",
          "type": "uint256"
        }
      ],
      "stateMutability": "view",
      "type": "function"
    }
  ],
  "bytecode": {
    "object": "0x608060405234801561001057600080fd5b50613d58806100206000396000f3fe608060405234801561001057600080fd5b506004361061025e5760003560e01c8063845104de11610146578063bd51923c116100c3578063d84a72c011610087578063d84a72c014610794578063e4dc2aa4146107d1578063eaa19ab3146107e4578063f1bea54f14610805578063f682eeaf14610825578063f7888aec1461083857600080fd5b8063bd51923c1461071d578063c2c55f9414610748578063c8df17101461075b578063cb827e321461076e578063d67b78fd1461078157600080fd5b8063911c80b51161010a578063911c80b51461069b57806393355578146106c4578063aab0cd80146106d7578063b67cb047146106f7578063baa7e80e1461070a57600080fd5b8063845104de1461051b57806386a51007146105eb57806386bc2be31461060b5780638cec7d391461061e5780638ed6c0101461066757600080fd5b806335314b92116101df578063538bd5ea116101a3578063538bd5ea146104605780635aff6200146104925780635f646611146104b25780636262bcb2146104d55780636825bb80146104e857806379a753191461051357600080fd5b806335314b92146103bc57806337f44652146103cf5780634223f60e1461040057806342f9914b1461042057806349bd1ac61461043357600080fd5b806317161f7d1161022657806317161f7d1461031b57806320512ba1146103585780632ae5e4921461036b5780632b7e6ef01461037e5780632e4d0ea8146103a957600080fd5b8063086bb19a146102635780630fab094714610278578063136e651c146102be578063144cc2d4146102d157806315fa7dff146102f2575b600080fd5b61027661027136600461319d565b61084b565b005b6102a161028636600461319d565b6010602052600090815260409020546001600160a01b031681565b6040516001600160a01b0390911681526020015b60405180910390f35b6102a16102cc3660046131ba565b6109e0565b6102e46102df366004613231565b610a39565b6040519081526020016102b5565b6102a161030036600461319d565b600d602052600090815260409020546001600160a01b031681565b61027661032936600461319d565b336000908152600c6020526040902080546001600160a01b0319166001600160a01b0392909216919091179055565b610276610366366004613285565b610ab7565b6102e461037936600461319d565b610b0c565b6102e461038c3660046131ba565b600b60209081526000928352604080842090915290825290205481565b6102e46103b73660046132c6565b610c78565b6102e46103ca3660046131ba565b610d00565b6102e46103dd3660046132c6565b600960209081526000938452604080852082529284528284209052825290205481565b61041361040e3660046131ba565b610dd9565b6040516102b591906133bd565b6102e461042e3660046133cc565b610ffe565b6102766104413660046133e5565b3360009081526012602090815260408083209483529390529190912055565b61047361046e366004613407565b61100e565b604080516001600160a01b0390931683526020830191909152016102b5565b6104a56104a03660046134ab565b611139565b6040516102b59190613573565b6104c56104c03660046131ba565b61154d565b60405190151581526020016102b5565b6102766104e33660046135c2565b611585565b6102e46104f63660046131ba565b600a60209081526000928352604080842090915290825290205481565b6102e460c881565b6105b061052936600461319d565b604080516080810182526000808252602082018190529181018290526060810191909152506001600160a01b03166000908152600460209081526040918290208251608081018452905460ff808216151583526101008204811615159383019390935262010000810483161515938201939093526301000000909204161515606082015290565b6040516102b5919081511515815260208083015115159082015260408083015115159082015260609182015115159181019190915260800190565b6105fe6105f9366004613633565b6115a4565b6040516102b591906136d1565b610276610619366004613285565b611f36565b61027661062c3660046136e4565b336000908152600e602090815260408083209483529390529190912080546001600160a01b0319166001600160a01b03909216919091179055565b6102a16106753660046131ba565b600e6020908152600092835260408084209091529082529020546001600160a01b031681565b6102a16106a936600461319d565b600c602052600090815260409020546001600160a01b031681565b6102e46106d2366004613714565b611ffa565b6106ea6106e536600461319d565b61217c565b6040516102b59190613742565b6104136107053660046131ba565b612216565b6105fe6107183660046133e5565b612449565b6102e461072b3660046131ba565b601260209081526000928352604080842090915290825290205481565b610276610756366004613790565b612680565b6102e46107693660046131ba565b612713565b61027661077c3660046137d2565b61274c565b61027661078f3660046135c2565b612767565b6102766107a236600461319d565b33600090815260106020526040902080546001600160a01b0319166001600160a01b0392909216919091179055565b6102e46107df36600461319d565b612781565b6107f76107f2366004613803565b612809565b6040516102b5929190613861565b6102e461081336600461319d565b60086020526000908152604090205481565b6106ea61083336600461319d565b612b77565b6102e4610846366004613714565b612b90565b600061085682612bfc565b90506000610865836000612c3d565b6001600160a01b038416600090815260056020526040812091925090819061088d9084612ca4565b90505b821561099b576108a08184612cea565b156108ca576001600160a01b03851660009081526005602052604090206108c79084612ca4565b90505b6108d48184612d04565b610989576108e3826001613899565b831461093b576001600160a01b0385166000908152602081815260408083208584529091529020548314610936576001600160a01b03851660009081526020818152604080832085845290915290208390555b610985565b6001600160a01b03851660009081526020818152604080832085845290915290205415610985576001600160a01b0385166000908152602081815260408083208584529091528120555b8291505b610994858486612d23565b9250610890565b6040513381526001600160a01b038616907f4a0f854ce3c180d56f3e9eb47eb064c595bf3de0ab9af45425291e5b1bb733a89060200160405180910390a25050505050565b6001600160a01b0380831660009081526001602090815260408083208584529091528120549091168015610a15579050610a33565b50506001600160a01b038083166000908152600c6020526040902054165b92915050565b600081815b81811015610aae576001600160a01b038616600090815260036020526040812090610a80878785818110610a7457610a746138ac565b90506020020135610ffe565b8152602081019190915260400160002054610aa4906001600160581b031684613899565b9250600101610a3e565b50509392505050565b806000805b82811015610b0557848482818110610ad657610ad66138ac565b336000908152600560209081526040909120910292909201359350610afd91905083612d6e565b600101610abc565b5050505050565b6001600160a01b038116600090815260086020526040812054610b2d613028565b60005b82811015610c70576001600160a01b0385166000908152600360209081526040808320600180860185529083529281902081516101408101835281546001600160581b038116825264ffffffffff600160581b8204811695830195909552600160801b8104851693820193909352600160a81b8304909316606084015261ffff600160d01b830481166080850152600160e01b83041660a084015260ff600160f01b8304811660c0850152600160f81b9092048216151560e084015283015480821615156101008085019190915290041615156101208201529250610c22908690610c1c908490613899565b84612da7565b82602001518360400151610c3691906138c2565b64ffffffffff16610c479190613899565b8251610c5c91906001600160581b03166138e7565b610c669085613899565b9350600101610b30565b505050919050565b6001600160a01b0380841660009081526009602090815260408083209386168352928152828220848352905290812054808203610cb9576000915050610cf9565b6001600160a01b0385166000908152600360209081526040808320868452909152902054610cf590600160a81b900464ffffffffff16826138e7565b9150505b9392505050565b6001600160a01b0382166000908152600360209081526040808320848452825280832081516101408101835281546001600160581b038116825264ffffffffff600160581b8204811695830195909552600160801b8104851693820193909352600160a81b8304909316606084015261ffff600160d01b830481166080850152600160e01b83041660a084015260ff600160f01b8304811660c0850152600160f81b9092048216151560e0840152600101548082161515610100808501919091529004161515610120820152610cf99084908490612da7565b610de161307c565b6001600160a01b0383166000908152600360209081526040808320858452825280832081516101408101835281546001600160581b038116825264ffffffffff600160581b8204811695830195909552600160801b8104851693820193909352600160a81b8304909316606084015261ffff600160d01b830481166080850152600160e01b83041660a084015260ff600160f01b8304811660c0850152600160f81b9092048216151560e084015260010154808216151561010080850191909152900416151561012082015290610eb885856109e0565b9050604051806101c0016040528085815260200183600001516001600160581b03168152602001836020015164ffffffffff168152602001836040015164ffffffffff168152602001836101200151610f12578351610f1f565b836060015164ffffffffff165b6001600160581b031681526020016001600160a01b03831615610f46578360800151610f49565b60005b61ffff168152602001826001600160a01b031681526020018360c0015160ff168152602001610f788787612ee6565b6001600160a01b0316815260200160126000886001600160a01b03166001600160a01b0316815260200190815260200160002060008781526020019081526020016000205481526020018360a0015161ffff1681526020018360e00151151581526020018361010001511515815260200183610120015115158152509250505092915050565b6000610a33633b9aca0083613914565b600080600061101c85610ffe565b9050600061102a8783612ee6565b90506001600160a01b03811661104857600080935093505050611131565b6001600160a01b038716600090815260036020908152604080832085845282529182902082516101408101845281546001600160581b038116825264ffffffffff600160581b8204811694830194909452600160801b8104841694820194909452600160a81b8404909216606083015261ffff600160d01b840481166080840152600160e01b84041660a083015260ff600160f01b8404811660c08401819052600160f81b9094048116151560e0840152600190910154808216151561010080850191909152900416151561012082015290829061112990889060c8612f3c565b945094505050505b935093915050565b6060600061114686612bfc565b9050826001600160401b038111156111605761116061343c565b60405190808252806020026020018201604052801561119957816020015b61118661307c565b81526020019060019003908161117e5790505b50915060006111a6613028565b60005b8751156111b75787516111ba565b60015b811015611536578286146115365760008760000361120a576112058a8a516000146111fe578a84815181106111f1576111f16138ac565b6020026020010151612c3d565b6000612c3d565b61120c565b875b6001600160a01b038b166000908152600560205260408120919250906112329083612ca4565b90505b811580159061124357508785105b1561152c5760008a511180156112795750898381518110611266576112666138ac565b60200260200101518460a0015161ffff16115b61152c576112878183612cea565b156112b1576001600160a01b038b1660009081526005602052604090206112ae9083612ca4565b90505b6112bb8183612d04565b61151a576001600160a01b038b166000908152600360209081526040808320858452825280832081516101408101835281546001600160581b038116825264ffffffffff600160581b8204811695830195909552600160801b8104851693820193909352600160a81b8304909316606084015261ffff600160d01b830481166080850152600160e01b83041660a084015260ff600160f01b8304811660c0850152600160f81b9092048216151560e084015260010154808216151561010080850191909152900416151561012082015294506113978c846109e0565b90508a51600014806113c957508a84815181106113b6576113b66138ac565b60200260200101518560a0015161ffff16145b1561151857604051806101c0016040528084815260200186600001516001600160581b03168152602001866020015164ffffffffff168152602001866040015164ffffffffff168152602001866101200151611426578651611433565b866060015164ffffffffff165b6001600160581b031681526020016001600160a01b0383161561145a57866080015161145d565b60005b61ffff168152602001826001600160a01b031681526020018660c0015160ff16815260200161148c8e86612ee6565b6001600160a01b0390811682528e166000908152601260209081526040808320888452825291829020549083015260a08089015161ffff169183019190915260e08801511515606083015261010088015115156080830152610120880151151591015288876114fa81613928565b98508151811061150c5761150c6138ac565b60200260200101819052505b505b6115258b8388612d23565b9150611235565b50506001016111a9565b50848214611542578184525b505050949350505050565b6001600160a01b038216600090815260056020526040812081906115719084612ca4565b905061157d8184612d04565b949350505050565b336000908152600f6020526040902061159f8284836139c3565b505050565b33600090815260086020526040902054606090829061ffff6115c68383613899565b11156115e557604051631bc68c8b60e11b815260040160405180910390fd5b60006115f033612bfc565b9050826001600160401b0381111561160a5761160a61343c565b604051908082528060200260200182016040528015611633578160200160208202803683370190505b5093506000821561164e57611649336000612c3d565b611651565b60005b9050600061165d613106565b3360009081526004602090815260408083208151608081018352905460ff80821615158352610100820481161515948301949094526201000081048416151592820192909252630100000090910490911615156060820152905b87811015611f0d578a8a828181106116d1576116d16138ac565b90506101c002018036038101906116e89190613ad1565b92506116f96001633b9aca00613bda565b836020015164ffffffffff161115611724576040516349016ea360e01b815260040160405180910390fd5b61172c613106565b811561179a578b8b61173f600185613bda565b81811061174e5761174e6138ac565b90506101c002018036038101906117659190613ad1565b905080610100015161ffff1684610100015161ffff16101561179a57604051631cabebd560e21b815260040160405180910390fd5b826020015180156117b55750604084015164ffffffffff1615155b156117d357604051630189200360e11b815260040160405180910390fd5b8251806117e257508361012001515b80156117f55750606084015161ffff1615155b156118135760405163a75b1cd560e01b815260040160405180910390fd5b8260400151801561182657508361012001515b15611844576040516330ec637f60e01b815260040160405180910390fd5b836020015164ffffffffff1660000361187057604051631e0a863160e31b815260040160405180910390fd5b60c88460a0015160ff1611156118995760405163fd912b8360e01b815260040160405180910390fd5b60006118a5838a613899565b6118b0906001613899565b905060405180610140016040528086600001516001600160581b03168152602001866020015164ffffffffff168152602001866020015164ffffffffff168152602001866040015164ffffffffff168152602001866060015161ffff16815260200186610100015161ffff1681526020018660a0015160ff1681526020018661012001511515815260200186610180015115158152602001866101a00151151581525060036000336001600160a01b03166001600160a01b03168152602001908152602001600020600083815260200190815260200160002060008201518160000160006101000a8154816001600160581b0302191690836001600160581b03160217905550602082015181600001600b6101000a81548164ffffffffff021916908364ffffffffff16021790555060408201518160000160106101000a81548164ffffffffff021916908364ffffffffff16021790555060608201518160000160156101000a81548164ffffffffff021916908364ffffffffff160217905550608082015181600001601a6101000a81548161ffff021916908361ffff16021790555060a082015181600001601c6101000a81548161ffff021916908361ffff16021790555060c082015181600001601e6101000a81548160ff021916908360ff16021790555060e082015181600001601f6101000a81548160ff0219169083151502179055506101008201518160010160006101000a81548160ff0219169083151502179055506101208201518160010160016101000a81548160ff02191690831515021790555090505084610100015161ffff1682610100015161ffff1614158015611b27575061010085015161ffff1615155b15611b535733600090815260076020908152604080832061010089015161ffff16845290915290208190555b60808501516001600160a01b031615611c0c5784610140015115611bcf576080850151336000908152600c60205260409020546001600160a01b03908116911614611bca576080850151336000908152600c6020526040902080546001600160a01b0319166001600160a01b039092169190911790555b611c0c565b6080850151336000908152600160209081526040808320858452909152902080546001600160a01b0319166001600160a01b039092169190911790555b60c08501516001600160a01b031615611cc55784610160015115611c885760c0850151336000908152600d60205260409020546001600160a01b03908116911614611c835760c0850151336000908152600d6020526040902080546001600160a01b0319166001600160a01b039092169190911790555b611cc5565b60c0850151336000908152600260209081526040808320858452909152902080546001600160a01b0319166001600160a01b039092169190911790555b60e085015115611cf05760e08501513360009081526012602090815260408083208584529091529020555b8615611ee557336000908152600560205260408120889190611d129083612ca4565b905060005b8215611ee157611d278284612cea565b15611d4857336000908152600560205260409020611d459084612ca4565b91505b611d5333848d612d23565b3360009081526003602090815260408083208784529091529020546101008a015191925061ffff600160e01b9091048116911611801590611d9457508b8311155b15611e6757611da4846001613899565b8314611dc6573360009081526020818152604080832087845290915290208390555b336000908152600660205260409020548b14611def573360009081526006602052604090208b90555b611dfa600185613bda565b89141580611e1f5750336000908152602081815260408083208c845290915290205415155b15611e5857611e2f600185613bda565b8914611e3b5783611e3e565b60005b336000908152602081815260408083208d84529091529020555b82995083985060009250611d17565b801580611e7357508b81115b15611ed857611e83836001613899565b8414611ea5573360009081526020818152604080832086845290915290208490555b33600090815260066020526040812054949a508a9490935015611ed357336000908152600660205260408120555b611d17565b91975081611d17565b5050505b808b8481518110611ef857611ef86138ac565b602090810291909101015250506001016116b7565b50611f188787613899565b33600090815260086020526040902055509598975050505050505050565b806000805b82811015610b0557848482818110611f5557611f556138ac565b9050602002013591506000611f6983610ffe565b336000908152600b602090815260408083208484529091528120805492935090611f9283613928565b909155505033600090815260036020908152604080832084845290915290208054600160581b900464ffffffffff1690600b611fcd83613bed565b91906101000a81548164ffffffffff021916908364ffffffffff1602179055505081600101915050611f3b565b6001600160a01b0382166000908152600860205260408120548161201c613028565b825b8015612172576001600160a01b038088166000908152600960209081526040808320938a168352928152828220848352905220549250821561212c576001600160a01b038716600090815260036020908152604080832084845282529182902082516101408101845281546001600160581b038116825264ffffffffff600160581b8204811694830194909452600160801b8104841694820194909452600160a81b8404909216606083015261ffff600160d01b840481166080840152600160e01b84041660a083015260ff600160f01b8404811660c0840152600160f81b9093048316151560e0830152600101548083161515610100808401919091529004909116151561012082015291505b81610120015161213d57815161214a565b816060015164ffffffffff165b61215d906001600160581b0316846138e7565b6121679086613899565b94506000190161201e565b5050505092915050565b6011602052600090815260409020805461219590613941565b80601f01602080910402602001604051908101604052809291908181526020018280546121c190613941565b801561220e5780601f106121e35761010080835404028352916020019161220e565b820191906000526020600020905b8154815290600101906020018083116121f157829003601f168201915b505050505081565b61221e61307c565b600061222983610ffe565b6001600160a01b0385166000908152600360209081526040808320848452825280832081516101408101835281546001600160581b038116825264ffffffffff600160581b8204811695830195909552600160801b8104851693820193909352600160a81b8304909316606084015261ffff600160d01b830481166080850152600160e01b83041660a084015260ff600160f01b8304811660c0850152600160f81b9092048216151560e084015260010154808216151561010080850191909152900416151561012082015291925061230286846109e0565b9050604051806101c0016040528084815260200183600001516001600160581b03168152602001836020015164ffffffffff168152602001836040015164ffffffffff16815260200183610120015161235c578351612369565b836060015164ffffffffff165b6001600160581b031681526020016001600160a01b03831615612390578360800151612393565b60005b61ffff168152602001826001600160a01b031681526020018360c0015160ff1681526020016123c28886612ee6565b6001600160a01b0316815260200160126000896001600160a01b03166001600160a01b0316815260200190815260200160002060008681526020019081526020016000205481526020018360a0015161ffff1681526020018360e0015115158152602001836101000151151581526020018361012001511515815250935050505092915050565b336000818152600360209081526040808320868452825280832081516101408101835281546001600160581b038116825264ffffffffff600160581b8204811695830195909552600160801b8104851693820193909352600160a81b830490931660608481019190915261ffff600160d01b840481166080860152600160e01b84041660a085015260ff600160f01b8404811660c0860152600160f81b9093048316151560e0850152600182015480841615156101008087019190915290049092161515610120840152909390929161252491908790612da7565b9050808411156125475760405163226f999960e11b815260040160405180910390fd5b336000908152600a6020908152604080832088845290915281208054869290612571908490613899565b909155508490506001600160401b0381111561258f5761258f61343c565b6040519080825280602002602001820160405280156125b8578160200160208202803683370190505b50336000908152600b602090815260408083208984529091528120549194505b858110156121725761265b878386600001600b81819054906101000a900464ffffffffff1661260690613c11565b91906101000a81548164ffffffffff021916908364ffffffffff16021790558760000160109054906101000a900464ffffffffff1661264591906138c2565b64ffffffffff166126569190613899565b61300d565b85828151811061266d5761266d6138ac565b60209081029190910101526001016125d8565b6001600160a01b038216156126cd573360009081526009602090815260408083206001600160a01b03861684528252808320868452909152812080549091906126c890613c32565b909155505b6001600160a01b0381161561159f573360009081526009602090815260408083206001600160a01b03851684528252808320868452909152902080546001019055505050565b6001600160a01b03821660009081526012602052604081208161273584610ffe565b815260200190815260200160002054905092915050565b336000908152600460205260409020819061159f8282613c56565b33600090815260116020526040902061159f8284836139c3565b6001600160a01b0381166000908152600860205260408120548190805b8015610c70576001600160a01b0385166000908152600360209081526040808320848452909152902080549093506127ed9064ffffffffff600160581b8204811691600160801b9004166138c2565b6127fe9064ffffffffff1685613899565b93506000190161279e565b60608483600080826001600160401b038111156128285761282861343c565b604051908082528060200260200182016040528015612851578160200160208202803683370190505b509450600061289a8989600081811061286c5761286c6138ac565b90506020020160208101906128819190613cf3565b3360009081526005602052604090209061ffff16612ca4565b905060005b84811015612b69578989828181106128b9576128b96138ac565b90506020020160208101906128ce9190613cf3565b61ffff1692506128de8284612cea565b156128ff573360009081526005602052604090206128fc9084612ca4565b91505b6129098284612d04565b156129275760405163d32cb5c160e01b815260040160405180910390fd5b3360009081526003602090815260408083208684529091529020935087801561295957508354600160f81b900460ff16155b1561297757604051632f792d3960e11b815260040160405180910390fd5b8354600160801b900464ffffffffff166000036129a757604051630de5859f60e01b815260040160405180910390fd5b83546001600160581b03168610156129d257604051632cd294cf60e01b815260040160405180910390fd5b604080516101408101825285546001600160581b038116825264ffffffffff600160581b820481166020840152600160801b8204811693830193909352600160a81b8104909216606082015261ffff600160d01b830481166080830152600160e01b83041660a082015260ff600160f01b8304811660c0830152600160f81b9092048216151560e0820152600186015480831615156101008084019190915290049091161515610120820152612a8b9033908590612da7565b8454612aa59190600160581b900464ffffffffff16613bda565b600003612ac55760405163985a45d960e01b815260040160405180910390fd5b336000908152600b60209081526040808320868452909152902054845460001964ffffffffff600160581b808404821692830182160264ffffffffff60581b1990931692909217808855612b2d938793600160801b909204821692909203600101160161300d565b878281518110612b3f57612b3f6138ac565b60209081029190910101528354612b5f906001600160581b031687613bda565b955060010161289f565b505050505094509492505050565b600f602052600090815260409020805461219590613941565b6001600160a01b038216600090815260086020526040812054805b8015612bf4576001600160a01b038086166000908152600960209081526040808320938816835292815282822084835290522054612be99084613899565b925060001901612bab565b505092915050565b6001600160a01b03811660009081526006602052604081205490819003612c3857506001600160a01b0381166000908152600860205260409020545b919050565b60008115612c6e576001600160a01b0383166000908152600760209081526040808320858452909152902054612c91565b6001600160a01b0383166000908152602081815260408083208380529091529020545b905080600003610a335750600192915050565b60408051808201909152600080825260208201526000612cc48360081c90565b604080518082018252600083815260209788529190912054815294850152509192915050565b60008260200151612cfb8360081c90565b14159392505050565b6000612d1261010083613d0e565b83516001911c811614905092915050565b6000818303612d3457506000610cf9565b6001600160a01b0384166000908152602081815260408083208684529091529020548015612d63579050610cf9565b610cf5846001613899565b6000612d7a8260081c90565b9050612d8861010083613d0e565b6000918252602093909352604090208054600190931b90921790915550565b6000816080015161ffff1660001480612dd55750816020015164ffffffffff16826040015164ffffffffff16145b80612df257506000612de785856109e0565b6001600160a01b0316145b15612dff57506000610cf9565b6001600160a01b0384166000908152600a60209081526040808320868452825291829020549084015191840151909164ffffffffff90811691612e4491849116613bda565b03612e53576000915050610cf9565b60008184602001518560400151612e6a91906138c2565b64ffffffffff16612e7b9190613bda565b90506000846080015161ffff1682612e939190613914565b90506000856080015161ffff1683612eab9190613d0e565b1115612ebd57612eba81613928565b90505b80831115612ed15760009350505050610cf9565b612edb8382613bda565b979650505050505050565b6001600160a01b0380831660009081526002602090815260408083208584529091528120549091168015612f1b579050610a33565b5050506001600160a01b039081166000908152600d60205260409020541690565b6000808060001985870985870292508281108382030391505080600003612f7657838281612f6c57612f6c6138fe565b0492505050610cf9565b838110612fa457604051631dcf306360e21b8152600481018290526024810185905260440160405180910390fd5b60008486880960026001871981018816978890046003810283188082028403028082028403028082028403028082028403028082028403029081029092039091026000889003889004909101858311909403939093029303949094049190911702949350505050565b60008161301e633b9aca00856138e7565b610cf99190613899565b6040805161014081018252600080825260208201819052918101829052606081018290526080810182905260a0810182905260c0810182905260e08101829052610100810182905261012081019190915290565b604051806101c0016040528060008152602001600081526020016000815260200160008152602001600081526020016000815260200160006001600160a01b031681526020016000815260200160006001600160a01b0316815260200160008019168152602001600081526020016000151581526020016000151581526020016000151581525090565b604080516101c081018252600080825260208201819052918101829052606081018290526080810182905260a0810182905260c0810182905260e08101829052610100810182905261012081018290526101408101829052610160810182905261018081018290526101a081019190915290565b6001600160a01b038116811461318f57600080fd5b50565b8035612c388161317a565b6000602082840312156131af57600080fd5b8135610cf98161317a565b600080604083850312156131cd57600080fd5b82356131d88161317a565b946020939093013593505050565b60008083601f8401126131f857600080fd5b5081356001600160401b0381111561320f57600080fd5b6020830191508360208260051b850101111561322a57600080fd5b9250929050565b60008060006040848603121561324657600080fd5b83356132518161317a565b925060208401356001600160401b0381111561326c57600080fd5b613278868287016131e6565b9497909650939450505050565b6000806020838503121561329857600080fd5b82356001600160401b038111156132ae57600080fd5b6132ba858286016131e6565b90969095509350505050565b6000806000606084860312156132db57600080fd5b83356132e68161317a565b925060208401356132f68161317a565b929592945050506040919091013590565b805182526020810151602083015260408101516040830152606081015160608301526080810151608083015260a081015160a083015260c081015161335760c08401826001600160a01b03169052565b5060e081015160e08301526101008082015161337d828501826001600160a01b03169052565b50506101208181015190830152610140808201519083015261016080820151151590830152610180808201511515908301526101a0908101511515910152565b6101c08101610a338284613307565b6000602082840312156133de57600080fd5b5035919050565b600080604083850312156133f857600080fd5b50508035926020909101359150565b60008060006060848603121561341c57600080fd5b83356134278161317a565b95602085013595506040909401359392505050565b634e487b7160e01b600052604160045260246000fd5b6040516101c081016001600160401b03811182821017156134755761347561343c565b60405290565b604051601f8201601f191681016001600160401b03811182821017156134a3576134a361343c565b604052919050565b600080600080608085870312156134c157600080fd5b84356134cc8161317a565b93506020858101356001600160401b03808211156134e957600080fd5b818801915088601f8301126134fd57600080fd5b81358181111561350f5761350f61343c565b8060051b915061352084830161347b565b818152918301840191848101908b84111561353a57600080fd5b938501935b838510156135585784358252938501939085019061353f565b989b989a505050506040870135966060013595945050505050565b6020808252825182820181905260009190848201906040850190845b818110156135b6576135a2838551613307565b928401926101c0929092019160010161358f565b50909695505050505050565b600080602083850312156135d557600080fd5b82356001600160401b03808211156135ec57600080fd5b818501915085601f83011261360057600080fd5b81358181111561360f57600080fd5b86602082850101111561362157600080fd5b60209290920196919550909350505050565b6000806020838503121561364657600080fd5b82356001600160401b038082111561365d57600080fd5b818501915085601f83011261367157600080fd5b81358181111561368057600080fd5b8660206101c08302850101111561362157600080fd5b600081518084526020808501945080840160005b838110156136c6578151875295820195908201906001016136aa565b509495945050505050565b602081526000610cf96020830184613696565b600080604083850312156136f757600080fd5b8235915060208301356137098161317a565b809150509250929050565b6000806040838503121561372757600080fd5b82356137328161317a565b915060208301356137098161317a565b600060208083528351808285015260005b8181101561376f57858101830151858201604001528201613753565b506000604082860101526040601f19601f8301168501019250505092915050565b6000806000606084860312156137a557600080fd5b8335925060208401356137b78161317a565b915060408401356137c78161317a565b809150509250925092565b6000608082840312156137e457600080fd5b50919050565b801515811461318f57600080fd5b8035612c38816137ea565b6000806000806060858703121561381957600080fd5b8435935060208501356001600160401b0381111561383657600080fd5b613842878288016131e6565b9094509250506040850135613856816137ea565b939692955090935050565b6040815260006138746040830185613696565b90508260208301529392505050565b634e487b7160e01b600052601160045260246000fd5b80820180821115610a3357610a33613883565b634e487b7160e01b600052603260045260246000fd5b64ffffffffff8281168282160390808211156138e0576138e0613883565b5092915050565b8082028115828204841417610a3357610a33613883565b634e487b7160e01b600052601260045260246000fd5b600082613923576139236138fe565b500490565b60006001820161393a5761393a613883565b5060010190565b600181811c9082168061395557607f821691505b6020821081036137e457634e487b7160e01b600052602260045260246000fd5b601f82111561159f57600081815260208120601f850160051c8101602086101561399c5750805b601f850160051c820191505b818110156139bb578281556001016139a8565b505050505050565b6001600160401b038311156139da576139da61343c565b6139ee836139e88354613941565b83613975565b6000601f841160018114613a225760008515613a0a5750838201355b600019600387901b1c1916600186901b178355610b05565b600083815260209020601f19861690835b82811015613a535786850135825560209485019460019092019101613a33565b5086821015613a705760001960f88860031b161c19848701351681555b505060018560011b0183555050505050565b80356001600160581b0381168114612c3857600080fd5b803564ffffffffff81168114612c3857600080fd5b803561ffff81168114612c3857600080fd5b803560ff81168114612c3857600080fd5b60006101c08284031215613ae457600080fd5b613aec613452565b613af583613a82565b8152613b0360208401613a99565b6020820152613b1460408401613a99565b6040820152613b2560608401613aae565b6060820152613b3660808401613192565b6080820152613b4760a08401613ac0565b60a0820152613b5860c08401613192565b60c082015260e083013560e0820152610100613b75818501613aae565b90820152610120613b878482016137f8565b90820152610140613b998482016137f8565b90820152610160613bab8482016137f8565b90820152610180613bbd8482016137f8565b908201526101a0613bcf8482016137f8565b908201529392505050565b81810381811115610a3357610a33613883565b600064ffffffffff808316818103613c0757613c07613883565b6001019392505050565b600064ffffffffff821680613c2857613c28613883565b6000190192915050565b600081613c4157613c41613883565b506000190190565b60008135610a33816137ea565b8135613c61816137ea565b815460ff19811691151560ff1691821783556020840135613c81816137ea565b61ff0090151560081b1661ffff1982168317811784556040850135613ca5816137ea565b62ff000081151560101b168462ffffff19851617831717855550505050613cef613cd160608401613c49565b82805463ff000000191691151560181b63ff00000016919091179055565b5050565b600060208284031215613d0557600080fd5b610cf982613aae565b600082613d1d57613d1d6138fe565b50069056fea26469706673582212200e34ffc74ba2d0788b464b7ddcc6d490bb60d34bae23fd09ed17415f61af9a8264736f6c63430008110033",
    "linkReferences": {}
  },
  "methodIdentifiers": {
    "MAX_ROYALTY_RATE()": "79a75319",
    "balanceOf(address,address)": "f7888aec",
    "baseUriOf(address)": "f682eeaf",
    "cleanTiers(address)": "086bb19a",
    "contractUriOf(address)": "aab0cd80",
    "defaultReservedTokenBeneficiaryOf(address)": "911c80b5",
    "defaultRoyaltyBeneficiaryOf(address)": "15fa7dff",
    "encodedIPFSUriOf(address,uint256)": "bd51923c",
    "encodedTierIPFSUriOf(address,uint256)": "c8df1710",
    "firstOwnerOf(address,uint256)": "8ed6c010",
    "flagsOf(address)": "845104de",
    "isTierRemoved(address,uint256)": "5f646611",
    "maxTierIdOf(address)": "f1bea54f",
    "numberOfBurnedFor(address,uint256)": "2b7e6ef0",
    "numberOfReservedTokensOutstandingFor(address,uint256)": "35314b92",
    "numberOfReservesMintedFor(address,uint256)": "6825bb80",
    "recordAddTiers((uint88,uint40,uint40,uint16,address,uint8,address,bytes32,uint16,bool,bool,bool,bool,bool)[])": "86a51007",
    "recordBurn(uint256[])": "86bc2be3",
    "recordFlags((bool,bool,bool,bool))": "cb827e32",
    "recordMint(uint256,uint16[],bool)": "eaa19ab3",
    "recordMintReservesFor(uint256,uint256)": "baa7e80e",
    "recordRemoveTierIds(uint256[])": "20512ba1",
    "recordSetBaseUri(string)": "6262bcb2",
    "recordSetContractUri(string)": "d67b78fd",
    "recordSetDefaultReservedTokenBeneficiary(address)": "17161f7d",
    "recordSetEncodedIPFSUriOf(uint256,bytes32)": "49bd1ac6",
    "recordSetFirstOwnerOf(uint256,address)": "8cec7d39",
    "recordSetTokenUriResolver(address)": "d84a72c0",
    "recordTransferForTier(uint256,address,address)": "c2c55f94",
    "redemptionWeightOf(address,uint256[])": "144cc2d4",
    "reservedTokenBeneficiaryOf(address,uint256)": "136e651c",
    "royaltyInfo(address,uint256,uint256)": "538bd5ea",
    "tierBalanceOf(address,address,uint256)": "37f44652",
    "tierIdOfToken(uint256)": "42f9914b",
    "tierOf(address,uint256)": "4223f60e",
    "tierOfTokenId(address,uint256)": "b67cb047",
    "tierVotingUnitsOf(address,address,uint256)": "2e4d0ea8",
    "tiersOf(address,uint256[],uint256,uint256)": "5aff6200",
    "tokenUriResolverOf(address)": "0fab0947",
    "totalRedemptionWeight(address)": "2ae5e492",
    "totalSupply(address)": "e4dc2aa4",
    "votingUnitsOf(address,address)": "93355578"
  },
  "id": 5
}