{
  "abi": [
    {
      "inputs": [
        {
          "internalType": "contract IJBDirectory",
          "name": "_directory",
          "type": "address"
        },
        {
          "internalType": "contract IJBFundingCycleStore",
          "name": "_fundingCycleStore",
          "type": "address"
        },
        {
          "internalType": "contract IJBPrices",
          "name": "_prices",
          "type": "address"
        }
      ],
      "stateMutability": "nonpayable",
      "type": "constructor"
    },
    {
      "inputs": [],
      "name": "CURRENCY_MISMATCH",
      "type": "error"
    },
    {
      "inputs": [],
      "name": "DISTRIBUTION_AMOUNT_LIMIT_REACHED",
      "type": "error"
    },
    {
      "inputs": [],
      "name": "FUNDING_CYCLE_DISTRIBUTION_PAUSED",
      "type": "error"
    },
    {
      "inputs": [],
      "name": "FUNDING_CYCLE_PAYMENT_PAUSED",
      "type": "error"
    },
    {
      "inputs": [],
      "name": "FUNDING_CYCLE_REDEEM_PAUSED",
      "type": "error"
    },
    {
      "inputs": [],
      "name": "INADEQUATE_CONTROLLER_ALLOWANCE",
      "type": "error"
    },
    {
      "inputs": [],
      "name": "INADEQUATE_PAYMENT_TERMINAL_STORE_BALANCE",
      "type": "error"
    },
    {
      "inputs": [],
      "name": "INSUFFICIENT_TOKENS",
      "type": "error"
    },
    {
      "inputs": [],
      "name": "INVALID_AMOUNT_TO_SEND_DELEGATE",
      "type": "error"
    },
    {
      "inputs": [],
      "name": "INVALID_FUNDING_CYCLE",
      "type": "error"
    },
    {
      "inputs": [],
      "name": "PAYMENT_TERMINAL_MIGRATION_NOT_ALLOWED",
      "type": "error"
    },
    {
      "inputs": [
        {
          "internalType": "uint256",
          "name": "prod1",
          "type": "uint256"
        },
        {
          "internalType": "uint256",
          "name": "denominator",
          "type": "uint256"
        }
      ],
      "name": "PRBMath__MulDivOverflow",
      "type": "error"
    },
    {
      "inputs": [
        {
          "internalType": "contract IJBSingleTokenPaymentTerminal",
          "name": "",
          "type": "address"
        },
        {
          "internalType": "uint256",
          "name": "",
          "type": "uint256"
        }
      ],
      "name": "balanceOf",
      "outputs": [
        {
          "internalType": "uint256",
          "name": "",
          "type": "uint256"
        }
      ],
      "stateMutability": "view",
      "type": "function"
    },
    {
      "inputs": [
        {
          "internalType": "contract IJBSingleTokenPaymentTerminal",
          "name": "_terminal",
          "type": "address"
        },
        {
          "internalType": "uint256",
          "name": "_projectId",
          "type": "uint256"
        }
      ],
      "name": "currentOverflowOf",
      "outputs": [
        {
          "internalType": "uint256",
          "name": "",
          "type": "uint256"
        }
      ],
      "stateMutability": "view",
      "type": "function"
    },
    {
      "inputs": [
        {
          "internalType": "uint256",
          "name": "_projectId",
          "type": "uint256"
        },
        {
          "internalType": "uint256",
          "name": "_tokenCount",
          "type": "uint256"
        },
        {
          "internalType": "uint256",
          "name": "_totalSupply",
          "type": "uint256"
        },
        {
          "internalType": "uint256",
          "name": "_overflow",
          "type": "uint256"
        }
      ],
      "name": "currentReclaimableOverflowOf",
      "outputs": [
        {
          "internalType": "uint256",
          "name": "",
          "type": "uint256"
        }
      ],
      "stateMutability": "view",
      "type": "function"
    },
    {
      "inputs": [
        {
          "internalType": "contract IJBSingleTokenPaymentTerminal",
          "name": "_terminal",
          "type": "address"
        },
        {
          "internalType": "uint256",
          "name": "_projectId",
          "type": "uint256"
        },
        {
          "internalType": "uint256",
          "name": "_tokenCount",
          "type": "uint256"
        },
        {
          "internalType": "bool",
          "name": "_useTotalOverflow",
          "type": "bool"
        }
      ],
      "name": "currentReclaimableOverflowOf",
      "outputs": [
        {
          "internalType": "uint256",
          "name": "",
          "type": "uint256"
        }
      ],
      "stateMutability": "view",
      "type": "function"
    },
    {
      "inputs": [
        {
          "internalType": "uint256",
          "name": "_projectId",
          "type": "uint256"
        },
        {
          "internalType": "uint256",
          "name": "_decimals",
          "type": "uint256"
        },
        {
          "internalType": "uint256",
          "name": "_currency",
          "type": "uint256"
        }
      ],
      "name": "currentTotalOverflowOf",
      "outputs": [
        {
          "internalType": "uint256",
          "name": "",
          "type": "uint256"
        }
      ],
      "stateMutability": "view",
      "type": "function"
    },
    {
      "inputs": [],
      "name": "directory",
      "outputs": [
        {
          "internalType": "contract IJBDirectory",
          "name": "",
          "type": "address"
        }
      ],
      "stateMutability": "view",
      "type": "function"
    },
    {
      "inputs": [],
      "name": "fundingCycleStore",
      "outputs": [
        {
          "internalType": "contract IJBFundingCycleStore",
          "name": "",
          "type": "address"
        }
      ],
      "stateMutability": "view",
      "type": "function"
    },
    {
      "inputs": [],
      "name": "prices",
      "outputs": [
        {
          "internalType": "contract IJBPrices",
          "name": "",
          "type": "address"
        }
      ],
      "stateMutability": "view",
      "type": "function"
    },
    {
      "inputs": [
        {
          "internalType": "uint256",
          "name": "_projectId",
          "type": "uint256"
        },
        {
          "internalType": "uint256",
          "name": "_amount",
          "type": "uint256"
        }
      ],
      "name": "recordAddedBalanceFor",
      "outputs": [],
      "stateMutability": "nonpayable",
      "type": "function"
    },
    {
      "inputs": [
        {
          "internalType": "uint256",
          "name": "_projectId",
          "type": "uint256"
        },
        {
          "internalType": "uint256",
          "name": "_amount",
          "type": "uint256"
        },
        {
          "internalType": "uint256",
          "name": "_currency",
          "type": "uint256"
        }
      ],
      "name": "recordDistributionFor",
      "outputs": [
        {
          "components": [
            {
              "internalType": "uint256",
              "name": "number",
              "type": "uint256"
            },
            {
              "internalType": "uint256",
              "name": "configuration",
              "type": "uint256"
            },
            {
              "internalType": "uint256",
              "name": "basedOn",
              "type": "uint256"
            },
            {
              "internalType": "uint256",
              "name": "start",
              "type": "uint256"
            },
            {
              "internalType": "uint256",
              "name": "duration",
              "type": "uint256"
            },
            {
              "internalType": "uint256",
              "name": "weight",
              "type": "uint256"
            },
            {
              "internalType": "uint256",
              "name": "discountRate",
              "type": "uint256"
            },
            {
              "internalType": "contract IJBFundingCycleBallot",
              "name": "ballot",
              "type": "address"
            },
            {
              "internalType": "uint256",
              "name": "metadata",
              "type": "uint256"
            }
          ],
          "internalType": "struct JBFundingCycle",
          "name": "fundingCycle",
          "type": "tuple"
        },
        {
          "internalType": "uint256",
          "name": "distributedAmount",
          "type": "uint256"
        }
      ],
      "stateMutability": "nonpayable",
      "type": "function"
    },
    {
      "inputs": [
        {
          "internalType": "uint256",
          "name": "_projectId",
          "type": "uint256"
        }
      ],
      "name": "recordMigration",
      "outputs": [
        {
          "internalType": "uint256",
          "name": "balance",
          "type": "uint256"
        }
      ],
      "stateMutability": "nonpayable",
      "type": "function"
    },
    {
      "inputs": [
        {
          "internalType": "address",
          "name": "_payer",
          "type": "address"
        },
        {
          "components": [
            {
              "internalType": "address",
              "name": "token",
              "type": "address"
            },
            {
              "internalType": "uint256",
              "name": "value",
              "type": "uint256"
            },
            {
              "internalType": "uint256",
              "name": "decimals",
              "type": "uint256"
            },
            {
              "internalType": "uint256",
              "name": "currency",
              "type": "uint256"
            }
          ],
          "internalType": "struct JBTokenAmount",
          "name": "_amount",
          "type": "tuple"
        },
        {
          "internalType": "uint256",
          "name": "_projectId",
          "type": "uint256"
        },
        {
          "internalType": "uint256",
          "name": "_baseWeightCurrency",
          "type": "uint256"
        },
        {
          "internalType": "address",
          "name": "_beneficiary",
          "type": "address"
        },
        {
          "internalType": "string",
          "name": "_memo",
          "type": "string"
        },
        {
          "internalType": "bytes",
          "name": "_metadata",
          "type": "bytes"
        }
      ],
      "name": "recordPaymentFrom",
      "outputs": [
        {
          "components": [
            {
              "internalType": "uint256",
              "name": "number",
              "type": "uint256"
            },
            {
              "internalType": "uint256",
              "name": "configuration",
              "type": "uint256"
            },
            {
              "internalType": "uint256",
              "name": "basedOn",
              "type": "uint256"
            },
            {
              "internalType": "uint256",
              "name": "start",
              "type": "uint256"
            },
            {
              "internalType": "uint256",
              "name": "duration",
              "type": "uint256"
            },
            {
              "internalType": "uint256",
              "name": "weight",
              "type": "uint256"
            },
            {
              "internalType": "uint256",
              "name": "discountRate",
              "type": "uint256"
            },
            {
              "internalType": "contract IJBFundingCycleBallot",
              "name": "ballot",
              "type": "address"
            },
            {
              "internalType": "uint256",
              "name": "metadata",
              "type": "uint256"
            }
          ],
          "internalType": "struct JBFundingCycle",
          "name": "fundingCycle",
          "type": "tuple"
        },
        {
          "internalType": "uint256",
          "name": "tokenCount",
          "type": "uint256"
        },
        {
          "components": [
            {
              "internalType": "contract IJBPayDelegate",
              "name": "delegate",
              "type": "address"
            },
            {
              "internalType": "uint256",
              "name": "amount",
              "type": "uint256"
            }
          ],
          "internalType": "struct JBPayDelegateAllocation[]",
          "name": "delegateAllocations",
          "type": "tuple[]"
        },
        {
          "internalType": "string",
          "name": "memo",
          "type": "string"
        }
      ],
      "stateMutability": "nonpayable",
      "type": "function"
    },
    {
      "inputs": [
        {
          "internalType": "address",
          "name": "_holder",
          "type": "address"
        },
        {
          "internalType": "uint256",
          "name": "_projectId",
          "type": "uint256"
        },
        {
          "internalType": "uint256",
          "name": "_tokenCount",
          "type": "uint256"
        },
        {
          "internalType": "string",
          "name": "_memo",
          "type": "string"
        },
        {
          "internalType": "bytes",
          "name": "_metadata",
          "type": "bytes"
        }
      ],
      "name": "recordRedemptionFor",
      "outputs": [
        {
          "components": [
            {
              "internalType": "uint256",
              "name": "number",
              "type": "uint256"
            },
            {
              "internalType": "uint256",
              "name": "configuration",
              "type": "uint256"
            },
            {
              "internalType": "uint256",
              "name": "basedOn",
              "type": "uint256"
            },
            {
              "internalType": "uint256",
              "name": "start",
              "type": "uint256"
            },
            {
              "internalType": "uint256",
              "name": "duration",
              "type": "uint256"
            },
            {
              "internalType": "uint256",
              "name": "weight",
              "type": "uint256"
            },
            {
              "internalType": "uint256",
              "name": "discountRate",
              "type": "uint256"
            },
            {
              "internalType": "contract IJBFundingCycleBallot",
              "name": "ballot",
              "type": "address"
            },
            {
              "internalType": "uint256",
              "name": "metadata",
              "type": "uint256"
            }
          ],
          "internalType": "struct JBFundingCycle",
          "name": "fundingCycle",
          "type": "tuple"
        },
        {
          "internalType": "uint256",
          "name": "reclaimAmount",
          "type": "uint256"
        },
        {
          "components": [
            {
              "internalType": "contract IJBRedemptionDelegate",
              "name": "delegate",
              "type": "address"
            },
            {
              "internalType": "uint256",
              "name": "amount",
              "type": "uint256"
            }
          ],
          "internalType": "struct JBRedemptionDelegateAllocation[]",
          "name": "delegateAllocations",
          "type": "tuple[]"
        },
        {
          "internalType": "string",
          "name": "memo",
          "type": "string"
        }
      ],
      "stateMutability": "nonpayable",
      "type": "function"
    },
    {
      "inputs": [
        {
          "internalType": "uint256",
          "name": "_projectId",
          "type": "uint256"
        },
        {
          "internalType": "uint256",
          "name": "_amount",
          "type": "uint256"
        },
        {
          "internalType": "uint256",
          "name": "_currency",
          "type": "uint256"
        }
      ],
      "name": "recordUsedAllowanceOf",
      "outputs": [
        {
          "components": [
            {
              "internalType": "uint256",
              "name": "number",
              "type": "uint256"
            },
            {
              "internalType": "uint256",
              "name": "configuration",
              "type": "uint256"
            },
            {
              "internalType": "uint256",
              "name": "basedOn",
              "type": "uint256"
            },
            {
              "internalType": "uint256",
              "name": "start",
              "type": "uint256"
            },
            {
              "internalType": "uint256",
              "name": "duration",
              "type": "uint256"
            },
            {
              "internalType": "uint256",
              "name": "weight",
              "type": "uint256"
            },
            {
              "internalType": "uint256",
              "name": "discountRate",
              "type": "uint256"
            },
            {
              "internalType": "contract IJBFundingCycleBallot",
              "name": "ballot",
              "type": "address"
            },
            {
              "internalType": "uint256",
              "name": "metadata",
              "type": "uint256"
            }
          ],
          "internalType": "struct JBFundingCycle",
          "name": "fundingCycle",
          "type": "tuple"
        },
        {
          "internalType": "uint256",
          "name": "usedAmount",
          "type": "uint256"
        }
      ],
      "stateMutability": "nonpayable",
      "type": "function"
    },
    {
      "inputs": [
        {
          "internalType": "contract IJBSingleTokenPaymentTerminal",
          "name": "",
          "type": "address"
        },
        {
          "internalType": "uint256",
          "name": "",
          "type": "uint256"
        },
        {
          "internalType": "uint256",
          "name": "",
          "type": "uint256"
        }
      ],
      "name": "usedDistributionLimitOf",
      "outputs": [
        {
          "internalType": "uint256",
          "name": "",
          "type": "uint256"
        }
      ],
      "stateMutability": "view",
      "type": "function"
    },
    {
      "inputs": [
        {
          "internalType": "contract IJBSingleTokenPaymentTerminal",
          "name": "",
          "type": "address"
        },
        {
          "internalType": "uint256",
          "name": "",
          "type": "uint256"
        },
        {
          "internalType": "uint256",
          "name": "",
          "type": "uint256"
        }
      ],
      "name": "usedOverflowAllowanceOf",
      "outputs": [
        {
          "internalType": "uint256",
          "name": "",
          "type": "uint256"
        }
      ],
      "stateMutability": "view",
      "type": "function"
    }
  ],
  "bytecode": {
    "object": "0x60e06040523480156200001157600080fd5b506040516200342238038062003422833981016040819052620000349162000070565b60016000556001600160a01b0392831660805290821660a0521660c052620000c4565b6001600160a01b03811681146200006d57600080fd5b50565b6000806000606084860312156200008657600080fd5b8351620000938162000057565b6020850151909350620000a68162000057565b6040850151909250620000b98162000057565b809150509250925092565b60805160a05160c0516132a262000180600039600081816102630152818161066101528181610bab01528181612051015261222e01526000818161018b0152818161035f015281816107ce01528181610c9501528181610dab015281816111b8015281816114820152818161154b015281816118a001528181611c4501526122b50152600081816102290152818161040f01528181610feb0152818161172d0152818161197901528181611e8801526120cd01526132a26000f3fe608060405234801561001057600080fd5b50600436106100ff5760003560e01c8063c294b2f411610097578063d49031c011610066578063d49031c014610285578063d4c3a8d214610298578063e7c8e3e3146102c9578063e8ba563a146102de57600080fd5b8063c294b2f414610211578063c41c2f2414610224578063c66445971461024b578063d3419bf31461025e57600080fd5b80636bb6a5ad116100d35780636bb6a5ad146101c5578063a2df1f95146101d8578063a57c7f59146101eb578063b753d7e9146101fe57600080fd5b8062fdd58e1461010457806325386715146101425780632fa1b39114610163578063557e715514610186575b600080fd5b61012f6101123660046124c8565b600160209081526000928352604080842090915290825290205481565b6040519081526020015b60405180910390f35b6101556101503660046124f4565b61030f565b60405161013992919061257f565b6101766101713660046126ff565b610784565b6040516101399493929190612810565b6101ad7f000000000000000000000000000000000000000000000000000000000000000081565b6040516001600160a01b039091168152602001610139565b61012f6101d336600461288f565b610c54565b6101766101e63660046128a8565b610d61565b61012f6101f9366004612949565b611447565b61012f61020c3660046124f4565b611511565b61012f61021f36600461297b565b611528565b6101ad7f000000000000000000000000000000000000000000000000000000000000000081565b6101556102593660046124f4565b611859565b6101ad7f000000000000000000000000000000000000000000000000000000000000000081565b61012f6102933660046124c8565b611c3c565b61012f6102a63660046129ca565b600360209081526000938452604080852082529284528284209052825290205481565b6102dc6102d73660046129ff565b611d1a565b005b61012f6102ec3660046129ca565b600260209081526000938452604080852082529284528284209052825290205481565b61031761245b565b60006002600054036103445760405162461bcd60e51b815260040161033b90612a21565b60405180910390fd5b60026000556040516321d1336160e11b8152600481018690527f00000000000000000000000000000000000000000000000000000000000000006001600160a01b0316906343a266c29060240161012060405180830381865afa1580156103af573d6000803e3d6000fd5b505050506040513d601f19601f820116820180604052508101906103d39190612a68565b336000908152600360209081526040808320898452825280832082850151845290915281205491935090610408908690612afe565b90506000807f00000000000000000000000000000000000000000000000000000000000000006001600160a01b0316635dd8f6aa896040518263ffffffff1660e01b815260040161045b91815260200190565b602060405180830381865afa158015610478573d6000803e3d6000fd5b505050506040513d601f19601f8201168201806040525081019061049c9190612b11565b6001600160a01b0316637a81b56289876020015133336001600160a01b031663fc0c546a6040518163ffffffff1660e01b8152600401602060405180830381865afa1580156104ef573d6000803e3d6000fd5b505050506040513d601f19601f820116820180604052508101906105139190612b11565b6040518563ffffffff1660e01b81526004016105329493929190612b2e565b6040805180830381865afa15801561054e573d6000803e3d6000fd5b505050506040513d601f19601f820116820180604052508101906105729190612b55565b9150915081831180610582575081155b156105a057604051635b76558960e11b815260040160405180910390fd5b8086146105c05760405163e56ea4e760e01b815260040160405180910390fd5b6000336001600160a01b031663e5a6b10f6040518163ffffffff1660e01b8152600401602060405180830381865afa158015610600573d6000803e3d6000fd5b505050506040513d601f19601f820116820180604052508101906106249190612b79565b90508087146106df576106da8861063d6012600a612c76565b604051635268657960e11b8152600481018b905260248101859052601260448201527f00000000000000000000000000000000000000000000000000000000000000006001600160a01b03169063a4d0caf2906064015b602060405180830381865afa1580156106b1573d6000803e3d6000fd5b505050506040513d601f19601f820116820180604052508101906106d59190612b79565b611d63565b6106e1565b875b94506106ef338a8884611e30565b85111561070f576040516317e53f6760e11b815260040160405180910390fd5b3360008181526003602090815260408083208d845282528083208a83015184528252808320889055928252600181528282208c835290522054610753908690612c82565b3360009081526001602081815260408084209d84529c90529a81209190915598909855509296919550909350505050565b61078c61245b565b60006060806002600054036107b35760405162461bcd60e51b815260040161033b90612a21565b60026000556040516321d1336160e11b8152600481018b90527f00000000000000000000000000000000000000000000000000000000000000006001600160a01b0316906343a266c29060240161012060405180830381865afa15801561081e573d6000803e3d6000fd5b505050506040513d601f19601f820116820180604052508101906108429190612a68565b80519094506000036108675760405163174b338d60e11b815260040160405180910390fd5b61010084015160481c6001908116036108935760405163a3bb913360e01b815260040160405180910390fd5b61010084015160009060521c60019081161480156108c9575060006108bd86610100015160541c90565b6001600160a01b031614155b15610a1b576000604051806101400160405280336001600160a01b031681526020018f6001600160a01b031681526020018e80360381019061090b9190612c95565b815260208082018f905288015160408201526001600160a01b038c16606082015260a080890151608083015261010089015191019060181c61ffff1681526020018a8a8080601f016020809104026020016040519081016040528093929190818152602001838380828437600092019190915250505090825250602001889052905061099c86610100015160541c90565b6001600160a01b031663d46cf171826040518263ffffffff1660e01b81526004016109c79190612d04565b6000604051808303816000875af11580156109e6573d6000803e3d6000fd5b505050506040513d6000823e601f3d908101601f19168201604052610a0e9190810190612e6f565b955093509150610a5c9050565b8460a00151905087878080601f0160208091040260200160405190810160405280939291908181526020018383808284376000920191909152509294505050505b825160208d01359015610ad85760005b8451811015610ad6576000858281518110610a8957610a89612f60565b602002602001015160200151905080600014610acd5782811115610ac0576040516336a8da9360e11b815260040160405180910390fd5b610aca8184612c82565b92505b50600101610a6c565b505b8c60200135600003610af0575060009350610c3d9050565b8015610b57573360009081526001602090815260408083208f8452909152902054610b1c908290612afe565b60016000336001600160a01b03166001600160a01b0316815260200190815260200160002060008e8152602001908152602001600020819055505b5080600003610b6a575060009250610c3d565b60408c0135600060608e01358c14610c1b57604051635268657960e11b815260608f01356004820152602481018d9052604481018390526001600160a01b037f0000000000000000000000000000000000000000000000000000000000000000169063a4d0caf290606401602060405180830381865afa158015610bf2573d6000803e3d6000fd5b505050506040513d601f19601f82011682018060405250810190610c169190612b79565b610c26565b610c2682600a612c76565b9050610c378e602001358483611d63565b95505050505b600160008190555098509850985098945050505050565b6000600260005403610c785760405162461bcd60e51b815260040161033b90612a21565b600260009081556040516321d1336160e11b8152600481018490527f00000000000000000000000000000000000000000000000000000000000000006001600160a01b0316906343a266c29060240161012060405180830381865afa158015610ce5573d6000803e3d6000fd5b505050506040513d601f19601f82011682018060405250810190610d099190612a68565b610100810151909150604d1c600190811614610d38576040516373e4f05f60e11b815260040160405180910390fd5b505033600090815260016020818152604080842094845293905291812080549082905591905590565b610d6961245b565b6000606080600260005403610d905760405162461bcd60e51b815260040161033b90612a21565b60026000556040516321d1336160e11b8152600481018990527f00000000000000000000000000000000000000000000000000000000000000006001600160a01b0316906343a266c29060240161012060405180830381865afa158015610dfb573d6000803e3d6000fd5b505050506040513d601f19601f82011682018060405250810190610e1f9190612a68565b610100810151909450604a1c600190811603610e4e5760405163a97cf58f60e01b815260040160405180910390fd5b610e82604051806080016040528060006001600160a01b031681526020016000815260200160008152602001600081525090565b6000806000336001600160a01b031663fc0c546a6040518163ffffffff1660e01b8152600401602060405180830381865afa158015610ec5573d6000803e3d6000fd5b505050506040513d601f19601f82011682018060405250810190610ee99190612b11565b90506000336001600160a01b031663313ce5676040518163ffffffff1660e01b8152600401602060405180830381865afa158015610f2b573d6000803e3d6000fd5b505050506040513d601f19601f82011682018060405250810190610f4f9190612b79565b90506000336001600160a01b031663e5a6b10f6040518163ffffffff1660e01b8152600401602060405180830381865afa158015610f91573d6000803e3d6000fd5b505050506040513d601f19601f82011682018060405250810190610fb59190612b79565b6101008b015190915060511c600190811614610fdc57610fd7338f8c84611e30565b610fe7565b610fe78e83836120aa565b94507f00000000000000000000000000000000000000000000000000000000000000006001600160a01b0316635dd8f6aa8f6040518263ffffffff1660e01b815260040161103791815260200190565b602060405180830381865afa158015611054573d6000803e3d6000fd5b505050506040513d601f19601f820116820180604052508101906110789190612b11565b6001600160a01b031663b5f1e34d8f61109d8d610100015161ffff60189190911c1690565b6040516001600160e01b031960e085901b16815260048101929092526024820152604401602060405180830381865afa1580156110de573d6000803e3d6000fd5b505050506040513d601f19601f820116820180604052508101906111029190612b79565b9350838d111561112457604051625c579160e91b815260040160405180910390fd5b841561113a576111378e8b8f878961228c565b98505b604080516080810182526001600160a01b03949094168452602084018a9052830191909152606082015261010088015190935060531c600190811614801561119a5750600061118e88610100015160541c90565b6001600160a01b031614155b1561137157604051633157d5c760e21b8152600481018c90526000907f00000000000000000000000000000000000000000000000000000000000000006001600160a01b03169063c55f571c90602401602060405180830381865afa158015611207573d6000803e3d6000fd5b505050506040513d601f19601f8201168201806040525081019061122b9190612f76565b90506000604051806101800160405280336001600160a01b031681526020018f6001600160a01b031681526020018e81526020018a6020015181526020018d81526020018481526020018581526020018681526020016112988b6101000151600160519190911c81161490565b1515815260200160008460028111156112b3576112b3612f97565b146112c6576112c18b6123c4565b6112cf565b6112cf8b6123e1565b81526020018c81526020018b81525090506112ef89610100015160541c90565b6001600160a01b031663a51cfd18826040518263ffffffff1660e01b815260040161131a9190612fad565b6000604051808303816000875af1158015611339573d6000803e3d6000fd5b505050506040513d6000823e601f3d908101601f1916820160405261136191908101906130a5565b9199509097509550611375915050565b8893505b50508251849150156113cf5760005b83518110156113cd5760008482815181106113a1576113a1612f60565b6020026020010151602001519050806000146113c4576113c18184612afe565b92505b50600101611384565b505b3360009081526001602090815260408083208c845290915290205481111561140a576040516317e53f6760e11b815260040160405180910390fd5b8015611432573360009081526001602090815260408083208c84529091529020805482900390555b50600160008190555095509550955095915050565b60008160000361145957506000611509565b8284111561146957506000611509565b6040516321d1336160e11b8152600481018690526000907f00000000000000000000000000000000000000000000000000000000000000006001600160a01b0316906343a266c29060240161012060405180830381865afa1580156114d2573d6000803e3d6000fd5b505050506040513d601f19601f820116820180604052508101906114f69190612a68565b9050611505868287878761228c565b9150505b949350505050565b600061151e8484846120aa565b90505b9392505050565b6040516321d1336160e11b81526004810184905260009081906001600160a01b037f000000000000000000000000000000000000000000000000000000000000000016906343a266c29060240161012060405180830381865afa158015611593573d6000803e3d6000fd5b505050506040513d601f19601f820116820180604052508101906115b79190612a68565b90506000836116325761162d8787848a6001600160a01b031663e5a6b10f6040518163ffffffff1660e01b8152600401602060405180830381865afa158015611604573d6000803e3d6000fd5b505050506040513d601f19601f820116820180604052508101906116289190612b79565b611e30565b6116ff565b6116ff86886001600160a01b031663313ce5676040518163ffffffff1660e01b8152600401602060405180830381865afa158015611674573d6000803e3d6000fd5b505050506040513d601f19601f820116820180604052508101906116989190612b79565b896001600160a01b031663e5a6b10f6040518163ffffffff1660e01b8152600401602060405180830381865afa1580156116d6573d6000803e3d6000fd5b505050506040513d601f19601f820116820180604052508101906116fa9190612b79565b6120aa565b90508060000361171457600092505050611509565b604051632eec7b5560e11b8152600481018790526000907f00000000000000000000000000000000000000000000000000000000000000006001600160a01b031690635dd8f6aa90602401602060405180830381865afa15801561177c573d6000803e3d6000fd5b505050506040513d601f19601f820116820180604052508101906117a09190612b11565b6001600160a01b031663b5f1e34d886117c586610100015161ffff60189190911c1690565b6040516001600160e01b031960e085901b16815260048101929092526024820152604401602060405180830381865afa158015611806573d6000803e3d6000fd5b505050506040513d601f19601f8201168201806040525081019061182a9190612b79565b9050808611156118405760009350505050611509565b61184d878488848661228c565b98975050505050505050565b61186161245b565b60006002600054036118855760405162461bcd60e51b815260040161033b90612a21565b60026000556040516321d1336160e11b8152600481018690527f00000000000000000000000000000000000000000000000000000000000000006001600160a01b0316906343a266c29060240161012060405180830381865afa1580156118f0573d6000803e3d6000fd5b505050506040513d601f19601f820116820180604052508101906119149190612a68565b61010081015190925060491c6001908116036119435760405163861e9dcd60e01b815260040160405180910390fd5b336000908152600260209081526040808320888452825280832085518452909152812054611972908690612afe565b90506000807f00000000000000000000000000000000000000000000000000000000000000006001600160a01b0316635dd8f6aa896040518263ffffffff1660e01b81526004016119c591815260200190565b602060405180830381865afa1580156119e2573d6000803e3d6000fd5b505050506040513d601f19601f82011682018060405250810190611a069190612b11565b6001600160a01b031663e8db213089876020015133336001600160a01b031663fc0c546a6040518163ffffffff1660e01b8152600401602060405180830381865afa158015611a59573d6000803e3d6000fd5b505050506040513d601f19601f82011682018060405250810190611a7d9190612b11565b6040518563ffffffff1660e01b8152600401611a9c9493929190612b2e565b6040805180830381865afa158015611ab8573d6000803e3d6000fd5b505050506040513d601f19601f82011682018060405250810190611adc9190612b55565b9150915081831180611aec575081155b15611b0a57604051630236b92b60e21b815260040160405180910390fd5b808614611b2a5760405163e56ea4e760e01b815260040160405180910390fd5b6000336001600160a01b031663e5a6b10f6040518163ffffffff1660e01b8152600401602060405180830381865afa158015611b6a573d6000803e3d6000fd5b505050506040513d601f19601f82011682018060405250810190611b8e9190612b79565b9050808714611bac57611ba78861063d6012600a612c76565b611bae565b875b3360009081526001602090815260408083208d8452909152902054909550851115611bec576040516317e53f6760e11b815260040160405180910390fd5b50503360008181526002602090815260408083208b845282528083208851845282528083209590955591815260018083528482209982529890915291822080548490039055509490945593915050565b6000611d1183837f00000000000000000000000000000000000000000000000000000000000000006001600160a01b03166343a266c2866040518263ffffffff1660e01b8152600401611c9191815260200190565b61012060405180830381865afa158015611caf573d6000803e3d6000fd5b505050506040513d601f19601f82011682018060405250810190611cd39190612a68565b866001600160a01b031663e5a6b10f6040518163ffffffff1660e01b8152600401602060405180830381865afa158015611604573d6000803e3d6000fd5b90505b92915050565b336000908152600160209081526040808320858452909152902054611d40908290612afe565b336000908152600160209081526040808320958352949052929092209190915550565b6000808060001985870985870292508281108382030391505080600003611d9d57838281611d9357611d93613186565b0492505050611521565b838110611dc757604051631dcf306360e21b8152600481018290526024810185905260440161033b565b60008486880960026001871981018816978890046003810283188082028403028082028403028082028403028082028403028082028403029081029092039091026000889003889004909101858311909403939093029303949094049190911702949350505050565b6001600160a01b0384166000908152600160209081526040808320868452909152812054808203611e65576000915050611509565b604051632eec7b5560e11b81526004810186905260009081906001600160a01b037f00000000000000000000000000000000000000000000000000000000000000001690635dd8f6aa90602401602060405180830381865afa158015611ecf573d6000803e3d6000fd5b505050506040513d601f19601f82011682018060405250810190611ef39190612b11565b6001600160a01b031663e8db21308888602001518b8c6001600160a01b031663fc0c546a6040518163ffffffff1660e01b8152600401602060405180830381865afa158015611f46573d6000803e3d6000fd5b505050506040513d601f19601f82011682018060405250810190611f6a9190612b11565b6040518563ffffffff1660e01b8152600401611f899493929190612b2e565b6040805180830381865afa158015611fa5573d6000803e3d6000fd5b505050506040513d601f19601f82011682018060405250810190611fc99190612b55565b6001600160a01b038a1660009081526002602090815260408083208c845282528083208b518452909152812054929450909250906120079084612c82565b905080158015906120185750858214155b1561208b576120888161202d6012600a612c76565b604051635268657960e11b815260048101869052602481018a9052601260448201527f00000000000000000000000000000000000000000000000000000000000000006001600160a01b03169063a4d0caf290606401610694565b90505b80841161209957600061209d565b8084035b9998505050505050505050565b60405163d175415360e01b81526004810184905260009081906001600160a01b037f0000000000000000000000000000000000000000000000000000000000000000169063d175415390602401600060405180830381865afa158015612114573d6000803e3d6000fd5b505050506040513d6000823e601f3d908101601f1916820160405261213c919081019061319c565b90506000805b82518110156121e75782818151811061215d5761215d612f60565b60200260200101516001600160a01b031663a32e1e96886040518263ffffffff1660e01b815260040161219291815260200190565b602060405180830381865afa1580156121af573d6000803e3d6000fd5b505050506040513d601f19601f820116820180604052508101906121d39190612b79565b6121dd9083612afe565b9150600101612142565b5060006001851461226257604051635268657960e11b815260016004820152602481018690526012604482015261225d908390670de0b6b3a7640000906001600160a01b037f0000000000000000000000000000000000000000000000000000000000000000169063a4d0caf290606401610694565b612264565b815b90508560121461227f5761227a816012886123fe565b612281565b805b979650505050505050565b600082840361229c5750806123bb565b600080604051633157d5c760e21b8152600481018990527f00000000000000000000000000000000000000000000000000000000000000006001600160a01b03169063c55f571c90602401602060405180830381865afa158015612304573d6000803e3d6000fd5b505050506040513d601f19601f820116820180604052508101906123289190612f76565b600281111561233957612339612f97565b1461234c57612347866123c4565b612355565b612355866123e1565b9050806000036123695760009150506123bb565b6000612376848787611d63565b9050612710820361238a5791506123bb9050565b6123b6816123a48861239e86612710612c82565b89611d63565b6123ae9085612afe565b612710611d63565b925050505b95945050505050565b60006028826101000151901c61ffff16612710611d149190612c82565b60006038826101000151901c61ffff16612710611d149190612c82565b600082820361240e575082611521565b8282111561243c576124208383612c82565b61242b90600a612c76565b612435908561322b565b9050611521565b6124468284612c82565b61245190600a612c76565b612435908561324a565b6040518061012001604052806000815260200160008152602001600081526020016000815260200160008152602001600081526020016000815260200160006001600160a01b03168152602001600081525090565b6001600160a01b03811681146124c557600080fd5b50565b600080604083850312156124db57600080fd5b82356124e6816124b0565b946020939093013593505050565b60008060006060848603121561250957600080fd5b505081359360208301359350604090920135919050565b805182526020808201519083015260408082015190830152606080820151908301526080808201519083015260a0808201519083015260c0808201519083015260e0808201516001600160a01b03169083015261010090810151910152565b610140810161258e8285612520565b826101208301529392505050565b60008083601f8401126125ae57600080fd5b50813567ffffffffffffffff8111156125c657600080fd5b6020830191508360208285010111156125de57600080fd5b9250929050565b634e487b7160e01b600052604160045260246000fd5b604051610120810167ffffffffffffffff8111828210171561261f5761261f6125e5565b60405290565b6040805190810167ffffffffffffffff8111828210171561261f5761261f6125e5565b604051601f8201601f1916810167ffffffffffffffff81118282101715612671576126716125e5565b604052919050565b600067ffffffffffffffff821115612693576126936125e5565b50601f01601f191660200190565b60006126b46126af84612679565b612648565b90508281528383830111156126c857600080fd5b828260208301376000602084830101529392505050565b600082601f8301126126f057600080fd5b611d11838335602085016126a1565b600080600080600080600080888a0361014081121561271d57600080fd5b8935612728816124b0565b98506080601f198201121561273c57600080fd5b5060208901965060a0890135955060c0890135945060e089013561275f816124b0565b935061010089013567ffffffffffffffff8082111561277d57600080fd5b6127898c838d0161259c565b90955093506101208b01359150808211156127a357600080fd5b506127b08b828c016126df565b9150509295985092959890939650565b60005b838110156127db5781810151838201526020016127c3565b50506000910152565b600081518084526127fc8160208601602086016127c0565b601f01601f19169290920160200192915050565b60006101808083016128228489612520565b61012084018790526101408401919091528451908190526101a083019060209081870160005b8281101561287857815180516001600160a01b031686528401518486015260409094019390830190600101612848565b5050505082810361016084015261228181856127e4565b6000602082840312156128a157600080fd5b5035919050565b600080600080600060a086880312156128c057600080fd5b85356128cb816124b0565b94506020860135935060408601359250606086013567ffffffffffffffff808211156128f657600080fd5b818801915088601f83011261290a57600080fd5b612919898335602085016126a1565b9350608088013591508082111561292f57600080fd5b5061293c888289016126df565b9150509295509295909350565b6000806000806080858703121561295f57600080fd5b5050823594602084013594506040840135936060013592509050565b6000806000806080858703121561299157600080fd5b843561299c816124b0565b93506020850135925060408501359150606085013580151581146129bf57600080fd5b939692955090935050565b6000806000606084860312156129df57600080fd5b83356129ea816124b0565b95602085013595506040909401359392505050565b60008060408385031215612a1257600080fd5b50508035926020909101359150565b6020808252601f908201527f5265656e7472616e637947756172643a207265656e7472616e742063616c6c00604082015260600190565b8051612a63816124b0565b919050565b60006101208284031215612a7b57600080fd5b612a836125fb565b825181526020830151602082015260408301516040820152606083015160608201526080830151608082015260a083015160a082015260c083015160c0820152612acf60e08401612a58565b60e0820152610100928301519281019290925250919050565b634e487b7160e01b600052601160045260246000fd5b80820180821115611d1457611d14612ae8565b600060208284031215612b2357600080fd5b8151611521816124b0565b93845260208401929092526001600160a01b03908116604084015216606082015260800190565b60008060408385031215612b6857600080fd5b505080516020909101519092909150565b600060208284031215612b8b57600080fd5b5051919050565b600181815b80851115612bcd578160001904821115612bb357612bb3612ae8565b80851615612bc057918102915b93841c9390800290612b97565b509250929050565b600082612be457506001611d14565b81612bf157506000611d14565b8160018114612c075760028114612c1157612c2d565b6001915050611d14565b60ff841115612c2257612c22612ae8565b50506001821b611d14565b5060208310610133831016604e8410600b8410161715612c50575081810a611d14565b612c5a8383612b92565b8060001904821115612c6e57612c6e612ae8565b029392505050565b6000611d118383612bd5565b81810381811115611d1457611d14612ae8565b600060808284031215612ca757600080fd5b6040516080810181811067ffffffffffffffff82111715612cca57612cca6125e5565b6040528235612cd8816124b0565b808252506020830135602082015260408301356040820152606083013560608201528091505092915050565b60208152612d1e6020820183516001600160a01b03169052565b60006020830151612d3a60408401826001600160a01b03169052565b506040830151612d74606084018280516001600160a01b031682526020808201519083015260408082015190830152606090810151910152565b50606083015160e08301526080830151610100818185015260a08501519150610120612daa818601846001600160a01b03169052565b60c086015161014086015260e08601516101608601528186015192506101a0915081610180860152612de06101c08601846127e4565b90860151858203601f190183870152909250612dfc83826127e4565b9695505050505050565b600082601f830112612e1757600080fd5b8151612e256126af82612679565b818152846020838601011115612e3a57600080fd5b6115098260208301602087016127c0565b600067ffffffffffffffff821115612e6557612e656125e5565b5060051b60200190565b600080600060608486031215612e8457600080fd5b8351925060208085015167ffffffffffffffff80821115612ea457600080fd5b612eb088838901612e06565b9450604091508187015181811115612ec757600080fd5b87019050601f81018813612eda57600080fd5b8051612ee86126af82612e4b565b81815260069190911b8201840190848101908a831115612f0757600080fd5b928501925b82841015612f505784848c031215612f245760008081fd5b612f2c612625565b8451612f37816124b0565b8152848701518782015282529284019290850190612f0c565b8096505050505050509250925092565b634e487b7160e01b600052603260045260246000fd5b600060208284031215612f8857600080fd5b81516003811061152157600080fd5b634e487b7160e01b600052602160045260246000fd5b60208152612fc76020820183516001600160a01b03169052565b60006020830151612fe360408401826001600160a01b03169052565b506040830151606083015260608301516080830152608083015160a083015260a083015160c083015260c083015160e083015260e08301516101006130518185018380516001600160a01b031682526020808201519083015260408082015190830152606090810151910152565b8401511515610180840152506101208301516101a08301526101408301516101e06101c084018190526130886102008501836127e4565b9150610160850151601f198584030182860152612dfc83826127e4565b6000806000606084860312156130ba57600080fd5b8351925060208085015167ffffffffffffffff808211156130da57600080fd5b6130e688838901612e06565b94506040915081870151818111156130fd57600080fd5b87019050601f8101881361311057600080fd5b805161311e6126af82612e4b565b81815260069190911b8201840190848101908a83111561313d57600080fd5b928501925b82841015612f505784848c03121561315a5760008081fd5b613162612625565b845161316d816124b0565b8152848701518782015282529284019290850190613142565b634e487b7160e01b600052601260045260246000fd5b600060208083850312156131af57600080fd5b825167ffffffffffffffff8111156131c657600080fd5b8301601f810185136131d757600080fd5b80516131e56126af82612e4b565b81815260059190911b8201830190838101908783111561320457600080fd5b928401925b8284101561228157835161321c816124b0565b82529284019290840190613209565b600081600019048311821515161561324557613245612ae8565b500290565b60008261326757634e487b7160e01b600052601260045260246000fd5b50049056fea26469706673582212205dd2f003bbde3008ee9f1a7ee32e1397114eda438347760863c2126e508d958564736f6c63430008100033",
    "linkReferences": {}
  },
  "methodIdentifiers": {
    "balanceOf(address,uint256)": "00fdd58e",
    "currentOverflowOf(address,uint256)": "d49031c0",
    "currentReclaimableOverflowOf(address,uint256,uint256,bool)": "c294b2f4",
    "currentReclaimableOverflowOf(uint256,uint256,uint256,uint256)": "a57c7f59",
    "currentTotalOverflowOf(uint256,uint256,uint256)": "b753d7e9",
    "directory()": "c41c2f24",
    "fundingCycleStore()": "557e7155",
    "prices()": "d3419bf3",
    "recordAddedBalanceFor(uint256,uint256)": "e7c8e3e3",
    "recordDistributionFor(uint256,uint256,uint256)": "c6644597",
    "recordMigration(uint256)": "6bb6a5ad",
    "recordPaymentFrom(address,(address,uint256,uint256,uint256),uint256,uint256,address,string,bytes)": "2fa1b391",
    "recordRedemptionFor(address,uint256,uint256,string,bytes)": "a2df1f95",
    "recordUsedAllowanceOf(uint256,uint256,uint256)": "25386715",
    "usedDistributionLimitOf(address,uint256,uint256)": "e8ba563a",
    "usedOverflowAllowanceOf(address,uint256,uint256)": "d4c3a8d2"
  },
  "id": 54
}