{"abi":[{"type":"function","name":"ETH_PAYOUT","inputs":[],"outputs":[{"name":"","type":"uint256","internalType":"uint256"}],"stateMutability":"view"},{"type":"function","name":"RESERVED_TOKENS","inputs":[],"outputs":[{"name":"","type":"uint256","internalType":"uint256"}],"stateMutability":"view"}],"bytecode":{"object":"0x6098610038600b82828239805160001a607314602b57634e487b7160e01b600052600060045260246000fd5b30600052607381538281f3fe7300000000000000000000000000000000000000003014608060405260043610603d5760003560e01c806368fc68c7146042578063ad8710ad14605b575b600080fd5b6049600281565b60405190815260200160405180910390f35b604960018156fea264697066735822122052a3bbc2af2354ea649bdc1b2022219ebf69cb476a7a074ea06ddeacb3e603bb64736f6c63430008170033","linkReferences":{}},"methodIdentifiers":{"ETH_PAYOUT()":"ad8710ad","RESERVED_TOKENS()":"68fc68c7"},"id":126}