{
  "abi": [
    {
      "inputs": [],
      "name": "ETH_PAYOUT",
      "outputs": [
        {
          "internalType": "uint256",
          "name": "",
          "type": "uint256"
        }
      ],
      "stateMutability": "view",
      "type": "function"
    },
    {
      "inputs": [],
      "name": "RESERVED_TOKENS",
      "outputs": [
        {
          "internalType": "uint256",
          "name": "",
          "type": "uint256"
        }
      ],
      "stateMutability": "view",
      "type": "function"
    }
  ],
  "bytecode": {
    "object": "0x6098610038600b82828239805160001a607314602b57634e487b7160e01b600052600060045260246000fd5b30600052607381538281f3fe7300000000000000000000000000000000000000003014608060405260043610603d5760003560e01c806368fc68c7146042578063ad8710ad14605b575b600080fd5b6049600281565b60405190815260200160405180910390f35b604960018156fea2646970667358221220d6575e23b5c40bfbabc79b1859d441ca56503b898628d9025e8067a0be0c139464736f6c63430008110033",
    "linkReferences": {}
  },
  "methodIdentifiers": {
    "ETH_PAYOUT()": "ad8710ad",
    "RESERVED_TOKENS()": "68fc68c7"
  },
  "id": 100
}