{
  "abi": [
    {
      "inputs": [],
      "name": "ETH_PAYOUT",
      "outputs": [
        {
          "internalType": "uint256",
          "name": "",
          "type": "uint256"
        }
      ],
      "stateMutability": "view",
      "type": "function"
    },
    {
      "inputs": [],
      "name": "RESERVED_TOKENS",
      "outputs": [
        {
          "internalType": "uint256",
          "name": "",
          "type": "uint256"
        }
      ],
      "stateMutability": "view",
      "type": "function"
    }
  ],
  "bytecode": {
    "object": "0x6080806040523461001957609b908161001f823930815050f35b600080fdfe6080806040526004361015601257600080fd5b600090813560e01c90816368fc68c714604c575063ad8710ad14603457600080fd5b80600319360112604957602060405160018152f35b80fd5b90508160031936011260615780600260209252f35b5080fdfea2646970667358221220f6d35d888f482b062178316ff1fdf3c1caee865a87af94e90a010f75fb9ac72a64736f6c63430008100033",
    "linkReferences": {}
  },
  "methodIdentifiers": {
    "ETH_PAYOUT()": "ad8710ad",
    "RESERVED_TOKENS()": "68fc68c7"
  },
  "id": 98
}