{
  "abi": [
    {
      "inputs": [
        {
          "internalType": "contract IJBDirectory",
          "name": "_directory",
          "type": "address"
        },
        {
          "internalType": "contract IJBTiered721DelegateDeployer",
          "name": "_delegateDeployer",
          "type": "address"
        },
        {
          "internalType": "contract IJBOperatorStore",
          "name": "_operatorStore",
          "type": "address"
        }
      ],
      "stateMutability": "nonpayable",
      "type": "constructor"
    },
    {
      "inputs": [],
      "name": "UNAUTHORIZED",
      "type": "error"
    },
    {
      "inputs": [],
      "name": "delegateDeployer",
      "outputs": [
        {
          "internalType": "contract IJBTiered721DelegateDeployer",
          "name": "",
          "type": "address"
        }
      ],
      "stateMutability": "view",
      "type": "function"
    },
    {
      "inputs": [],
      "name": "directory",
      "outputs": [
        {
          "internalType": "contract IJBDirectory",
          "name": "",
          "type": "address"
        }
      ],
      "stateMutability": "view",
      "type": "function"
    },
    {
      "inputs": [
        {
          "internalType": "uint256",
          "name": "_projectId",
          "type": "uint256"
        },
        {
          "components": [
            {
              "internalType": "string",
              "name": "name",
              "type": "string"
            },
            {
              "internalType": "string",
              "name": "symbol",
              "type": "string"
            },
            {
              "internalType": "contract IJBFundingCycleStore",
              "name": "fundingCycleStore",
              "type": "address"
            },
            {
              "internalType": "string",
              "name": "baseUri",
              "type": "string"
            },
            {
              "internalType": "contract IJBTokenUriResolver",
              "name": "tokenUriResolver",
              "type": "address"
            },
            {
              "internalType": "string",
              "name": "contractUri",
              "type": "string"
            },
            {
              "internalType": "address",
              "name": "owner",
              "type": "address"
            },
            {
              "components": [
                {
                  "components": [
                    {
                      "internalType": "uint104",
                      "name": "price",
                      "type": "uint104"
                    },
                    {
                      "internalType": "uint32",
                      "name": "initialQuantity",
                      "type": "uint32"
                    },
                    {
                      "internalType": "uint32",
                      "name": "votingUnits",
                      "type": "uint32"
                    },
                    {
                      "internalType": "uint16",
                      "name": "reservedRate",
                      "type": "uint16"
                    },
                    {
                      "internalType": "address",
                      "name": "reservedTokenBeneficiary",
                      "type": "address"
                    },
                    {
                      "internalType": "bytes32",
                      "name": "encodedIPFSUri",
                      "type": "bytes32"
                    },
                    {
                      "internalType": "uint24",
                      "name": "category",
                      "type": "uint24"
                    },
                    {
                      "internalType": "bool",
                      "name": "allowManualMint",
                      "type": "bool"
                    },
                    {
                      "internalType": "bool",
                      "name": "shouldUseReservedTokenBeneficiaryAsDefault",
                      "type": "bool"
                    },
                    {
                      "internalType": "bool",
                      "name": "transfersPausable",
                      "type": "bool"
                    },
                    {
                      "internalType": "bool",
                      "name": "useVotingUnits",
                      "type": "bool"
                    }
                  ],
                  "internalType": "struct JB721TierParams[]",
                  "name": "tiers",
                  "type": "tuple[]"
                },
                {
                  "internalType": "uint48",
                  "name": "currency",
                  "type": "uint48"
                },
                {
                  "internalType": "uint48",
                  "name": "decimals",
                  "type": "uint48"
                },
                {
                  "internalType": "contract IJBPrices",
                  "name": "prices",
                  "type": "address"
                }
              ],
              "internalType": "struct JB721PricingParams",
              "name": "pricing",
              "type": "tuple"
            },
            {
              "internalType": "address",
              "name": "reservedTokenBeneficiary",
              "type": "address"
            },
            {
              "internalType": "contract IJBTiered721DelegateStore",
              "name": "store",
              "type": "address"
            },
            {
              "components": [
                {
                  "internalType": "bool",
                  "name": "lockReservedTokenChanges",
                  "type": "bool"
                },
                {
                  "internalType": "bool",
                  "name": "lockVotingUnitChanges",
                  "type": "bool"
                },
                {
                  "internalType": "bool",
                  "name": "lockManualMintingChanges",
                  "type": "bool"
                },
                {
                  "internalType": "bool",
                  "name": "preventOverspending",
                  "type": "bool"
                }
              ],
              "internalType": "struct JBTiered721Flags",
              "name": "flags",
              "type": "tuple"
            },
            {
              "internalType": "enum JB721GovernanceType",
              "name": "governanceType",
              "type": "uint8"
            }
          ],
          "internalType": "struct JBDeployTiered721DelegateData",
          "name": "_deployTiered721DelegateData",
          "type": "tuple"
        },
        {
          "components": [
            {
              "components": [
                {
                  "internalType": "uint256",
                  "name": "duration",
                  "type": "uint256"
                },
                {
                  "internalType": "uint256",
                  "name": "weight",
                  "type": "uint256"
                },
                {
                  "internalType": "uint256",
                  "name": "discountRate",
                  "type": "uint256"
                },
                {
                  "internalType": "contract IJBFundingCycleBallot",
                  "name": "ballot",
                  "type": "address"
                }
              ],
              "internalType": "struct JBFundingCycleData",
              "name": "data",
              "type": "tuple"
            },
            {
              "components": [
                {
                  "components": [
                    {
                      "internalType": "bool",
                      "name": "allowSetTerminals",
                      "type": "bool"
                    },
                    {
                      "internalType": "bool",
                      "name": "allowSetController",
                      "type": "bool"
                    },
                    {
                      "internalType": "bool",
                      "name": "pauseTransfers",
                      "type": "bool"
                    }
                  ],
                  "internalType": "struct JBGlobalFundingCycleMetadata",
                  "name": "global",
                  "type": "tuple"
                },
                {
                  "internalType": "uint256",
                  "name": "reservedRate",
                  "type": "uint256"
                },
                {
                  "internalType": "uint256",
                  "name": "redemptionRate",
                  "type": "uint256"
                },
                {
                  "internalType": "uint256",
                  "name": "ballotRedemptionRate",
                  "type": "uint256"
                },
                {
                  "internalType": "bool",
                  "name": "pausePay",
                  "type": "bool"
                },
                {
                  "internalType": "bool",
                  "name": "pauseDistributions",
                  "type": "bool"
                },
                {
                  "internalType": "bool",
                  "name": "pauseRedeem",
                  "type": "bool"
                },
                {
                  "internalType": "bool",
                  "name": "pauseBurn",
                  "type": "bool"
                },
                {
                  "internalType": "bool",
                  "name": "allowMinting",
                  "type": "bool"
                },
                {
                  "internalType": "bool",
                  "name": "allowTerminalMigration",
                  "type": "bool"
                },
                {
                  "internalType": "bool",
                  "name": "allowControllerMigration",
                  "type": "bool"
                },
                {
                  "internalType": "bool",
                  "name": "holdFees",
                  "type": "bool"
                },
                {
                  "internalType": "bool",
                  "name": "preferClaimedTokenOverride",
                  "type": "bool"
                },
                {
                  "internalType": "bool",
                  "name": "useTotalOverflowForRedemptions",
                  "type": "bool"
                },
                {
                  "internalType": "bool",
                  "name": "useDataSourceForRedeem",
                  "type": "bool"
                },
                {
                  "internalType": "uint256",
                  "name": "metadata",
                  "type": "uint256"
                }
              ],
              "internalType": "struct JBPayDataSourceFundingCycleMetadata",
              "name": "metadata",
              "type": "tuple"
            },
            {
              "internalType": "uint256",
              "name": "mustStartAtOrAfter",
              "type": "uint256"
            },
            {
              "components": [
                {
                  "internalType": "uint256",
                  "name": "group",
                  "type": "uint256"
                },
                {
                  "components": [
                    {
                      "internalType": "bool",
                      "name": "preferClaimed",
                      "type": "bool"
                    },
                    {
                      "internalType": "bool",
                      "name": "preferAddToBalance",
                      "type": "bool"
                    },
                    {
                      "internalType": "uint256",
                      "name": "percent",
                      "type": "uint256"
                    },
                    {
                      "internalType": "uint256",
                      "name": "projectId",
                      "type": "uint256"
                    },
                    {
                      "internalType": "address payable",
                      "name": "beneficiary",
                      "type": "address"
                    },
                    {
                      "internalType": "uint256",
                      "name": "lockedUntil",
                      "type": "uint256"
                    },
                    {
                      "internalType": "contract IJBSplitAllocator",
                      "name": "allocator",
                      "type": "address"
                    }
                  ],
                  "internalType": "struct JBSplit[]",
                  "name": "splits",
                  "type": "tuple[]"
                }
              ],
              "internalType": "struct JBGroupedSplits[]",
              "name": "groupedSplits",
              "type": "tuple[]"
            },
            {
              "components": [
                {
                  "internalType": "contract IJBPaymentTerminal",
                  "name": "terminal",
                  "type": "address"
                },
                {
                  "internalType": "address",
                  "name": "token",
                  "type": "address"
                },
                {
                  "internalType": "uint256",
                  "name": "distributionLimit",
                  "type": "uint256"
                },
                {
                  "internalType": "uint256",
                  "name": "distributionLimitCurrency",
                  "type": "uint256"
                },
                {
                  "internalType": "uint256",
                  "name": "overflowAllowance",
                  "type": "uint256"
                },
                {
                  "internalType": "uint256",
                  "name": "overflowAllowanceCurrency",
                  "type": "uint256"
                }
              ],
              "internalType": "struct JBFundAccessConstraints[]",
              "name": "fundAccessConstraints",
              "type": "tuple[]"
            },
            {
              "internalType": "contract IJBPaymentTerminal[]",
              "name": "terminals",
              "type": "address[]"
            },
            {
              "internalType": "string",
              "name": "memo",
              "type": "string"
            }
          ],
          "internalType": "struct JBLaunchFundingCyclesData",
          "name": "_launchFundingCyclesData",
          "type": "tuple"
        },
        {
          "internalType": "contract IJBController3_1",
          "name": "_controller",
          "type": "address"
        }
      ],
      "name": "launchFundingCyclesFor",
      "outputs": [
        {
          "internalType": "uint256",
          "name": "configuration",
          "type": "uint256"
        }
      ],
      "stateMutability": "nonpayable",
      "type": "function"
    },
    {
      "inputs": [
        {
          "internalType": "address",
          "name": "_owner",
          "type": "address"
        },
        {
          "components": [
            {
              "internalType": "string",
              "name": "name",
              "type": "string"
            },
            {
              "internalType": "string",
              "name": "symbol",
              "type": "string"
            },
            {
              "internalType": "contract IJBFundingCycleStore",
              "name": "fundingCycleStore",
              "type": "address"
            },
            {
              "internalType": "string",
              "name": "baseUri",
              "type": "string"
            },
            {
              "internalType": "contract IJBTokenUriResolver",
              "name": "tokenUriResolver",
              "type": "address"
            },
            {
              "internalType": "string",
              "name": "contractUri",
              "type": "string"
            },
            {
              "internalType": "address",
              "name": "owner",
              "type": "address"
            },
            {
              "components": [
                {
                  "components": [
                    {
                      "internalType": "uint104",
                      "name": "price",
                      "type": "uint104"
                    },
                    {
                      "internalType": "uint32",
                      "name": "initialQuantity",
                      "type": "uint32"
                    },
                    {
                      "internalType": "uint32",
                      "name": "votingUnits",
                      "type": "uint32"
                    },
                    {
                      "internalType": "uint16",
                      "name": "reservedRate",
                      "type": "uint16"
                    },
                    {
                      "internalType": "address",
                      "name": "reservedTokenBeneficiary",
                      "type": "address"
                    },
                    {
                      "internalType": "bytes32",
                      "name": "encodedIPFSUri",
                      "type": "bytes32"
                    },
                    {
                      "internalType": "uint24",
                      "name": "category",
                      "type": "uint24"
                    },
                    {
                      "internalType": "bool",
                      "name": "allowManualMint",
                      "type": "bool"
                    },
                    {
                      "internalType": "bool",
                      "name": "shouldUseReservedTokenBeneficiaryAsDefault",
                      "type": "bool"
                    },
                    {
                      "internalType": "bool",
                      "name": "transfersPausable",
                      "type": "bool"
                    },
                    {
                      "internalType": "bool",
                      "name": "useVotingUnits",
                      "type": "bool"
                    }
                  ],
                  "internalType": "struct JB721TierParams[]",
                  "name": "tiers",
                  "type": "tuple[]"
                },
                {
                  "internalType": "uint48",
                  "name": "currency",
                  "type": "uint48"
                },
                {
                  "internalType": "uint48",
                  "name": "decimals",
                  "type": "uint48"
                },
                {
                  "internalType": "contract IJBPrices",
                  "name": "prices",
                  "type": "address"
                }
              ],
              "internalType": "struct JB721PricingParams",
              "name": "pricing",
              "type": "tuple"
            },
            {
              "internalType": "address",
              "name": "reservedTokenBeneficiary",
              "type": "address"
            },
            {
              "internalType": "contract IJBTiered721DelegateStore",
              "name": "store",
              "type": "address"
            },
            {
              "components": [
                {
                  "internalType": "bool",
                  "name": "lockReservedTokenChanges",
                  "type": "bool"
                },
                {
                  "internalType": "bool",
                  "name": "lockVotingUnitChanges",
                  "type": "bool"
                },
                {
                  "internalType": "bool",
                  "name": "lockManualMintingChanges",
                  "type": "bool"
                },
                {
                  "internalType": "bool",
                  "name": "preventOverspending",
                  "type": "bool"
                }
              ],
              "internalType": "struct JBTiered721Flags",
              "name": "flags",
              "type": "tuple"
            },
            {
              "internalType": "enum JB721GovernanceType",
              "name": "governanceType",
              "type": "uint8"
            }
          ],
          "internalType": "struct JBDeployTiered721DelegateData",
          "name": "_deployTiered721DelegateData",
          "type": "tuple"
        },
        {
          "components": [
            {
              "components": [
                {
                  "internalType": "string",
                  "name": "content",
                  "type": "string"
                },
                {
                  "internalType": "uint256",
                  "name": "domain",
                  "type": "uint256"
                }
              ],
              "internalType": "struct JBProjectMetadata",
              "name": "projectMetadata",
              "type": "tuple"
            },
            {
              "components": [
                {
                  "internalType": "uint256",
                  "name": "duration",
                  "type": "uint256"
                },
                {
                  "internalType": "uint256",
                  "name": "weight",
                  "type": "uint256"
                },
                {
                  "internalType": "uint256",
                  "name": "discountRate",
                  "type": "uint256"
                },
                {
                  "internalType": "contract IJBFundingCycleBallot",
                  "name": "ballot",
                  "type": "address"
                }
              ],
              "internalType": "struct JBFundingCycleData",
              "name": "data",
              "type": "tuple"
            },
            {
              "components": [
                {
                  "components": [
                    {
                      "internalType": "bool",
                      "name": "allowSetTerminals",
                      "type": "bool"
                    },
                    {
                      "internalType": "bool",
                      "name": "allowSetController",
                      "type": "bool"
                    },
                    {
                      "internalType": "bool",
                      "name": "pauseTransfers",
                      "type": "bool"
                    }
                  ],
                  "internalType": "struct JBGlobalFundingCycleMetadata",
                  "name": "global",
                  "type": "tuple"
                },
                {
                  "internalType": "uint256",
                  "name": "reservedRate",
                  "type": "uint256"
                },
                {
                  "internalType": "uint256",
                  "name": "redemptionRate",
                  "type": "uint256"
                },
                {
                  "internalType": "uint256",
                  "name": "ballotRedemptionRate",
                  "type": "uint256"
                },
                {
                  "internalType": "bool",
                  "name": "pausePay",
                  "type": "bool"
                },
                {
                  "internalType": "bool",
                  "name": "pauseDistributions",
                  "type": "bool"
                },
                {
                  "internalType": "bool",
                  "name": "pauseRedeem",
                  "type": "bool"
                },
                {
                  "internalType": "bool",
                  "name": "pauseBurn",
                  "type": "bool"
                },
                {
                  "internalType": "bool",
                  "name": "allowMinting",
                  "type": "bool"
                },
                {
                  "internalType": "bool",
                  "name": "allowTerminalMigration",
                  "type": "bool"
                },
                {
                  "internalType": "bool",
                  "name": "allowControllerMigration",
                  "type": "bool"
                },
                {
                  "internalType": "bool",
                  "name": "holdFees",
                  "type": "bool"
                },
                {
                  "internalType": "bool",
                  "name": "preferClaimedTokenOverride",
                  "type": "bool"
                },
                {
                  "internalType": "bool",
                  "name": "useTotalOverflowForRedemptions",
                  "type": "bool"
                },
                {
                  "internalType": "bool",
                  "name": "useDataSourceForRedeem",
                  "type": "bool"
                },
                {
                  "internalType": "uint256",
                  "name": "metadata",
                  "type": "uint256"
                }
              ],
              "internalType": "struct JBPayDataSourceFundingCycleMetadata",
              "name": "metadata",
              "type": "tuple"
            },
            {
              "internalType": "uint256",
              "name": "mustStartAtOrAfter",
              "type": "uint256"
            },
            {
              "components": [
                {
                  "internalType": "uint256",
                  "name": "group",
                  "type": "uint256"
                },
                {
                  "components": [
                    {
                      "internalType": "bool",
                      "name": "preferClaimed",
                      "type": "bool"
                    },
                    {
                      "internalType": "bool",
                      "name": "preferAddToBalance",
                      "type": "bool"
                    },
                    {
                      "internalType": "uint256",
                      "name": "percent",
                      "type": "uint256"
                    },
                    {
                      "internalType": "uint256",
                      "name": "projectId",
                      "type": "uint256"
                    },
                    {
                      "internalType": "address payable",
                      "name": "beneficiary",
                      "type": "address"
                    },
                    {
                      "internalType": "uint256",
                      "name": "lockedUntil",
                      "type": "uint256"
                    },
                    {
                      "internalType": "contract IJBSplitAllocator",
                      "name": "allocator",
                      "type": "address"
                    }
                  ],
                  "internalType": "struct JBSplit[]",
                  "name": "splits",
                  "type": "tuple[]"
                }
              ],
              "internalType": "struct JBGroupedSplits[]",
              "name": "groupedSplits",
              "type": "tuple[]"
            },
            {
              "components": [
                {
                  "internalType": "contract IJBPaymentTerminal",
                  "name": "terminal",
                  "type": "address"
                },
                {
                  "internalType": "address",
                  "name": "token",
                  "type": "address"
                },
                {
                  "internalType": "uint256",
                  "name": "distributionLimit",
                  "type": "uint256"
                },
                {
                  "internalType": "uint256",
                  "name": "distributionLimitCurrency",
                  "type": "uint256"
                },
                {
                  "internalType": "uint256",
                  "name": "overflowAllowance",
                  "type": "uint256"
                },
                {
                  "internalType": "uint256",
                  "name": "overflowAllowanceCurrency",
                  "type": "uint256"
                }
              ],
              "internalType": "struct JBFundAccessConstraints[]",
              "name": "fundAccessConstraints",
              "type": "tuple[]"
            },
            {
              "internalType": "contract IJBPaymentTerminal[]",
              "name": "terminals",
              "type": "address[]"
            },
            {
              "internalType": "string",
              "name": "memo",
              "type": "string"
            }
          ],
          "internalType": "struct JBLaunchProjectData",
          "name": "_launchProjectData",
          "type": "tuple"
        },
        {
          "internalType": "contract IJBController3_1",
          "name": "_controller",
          "type": "address"
        }
      ],
      "name": "launchProjectFor",
      "outputs": [
        {
          "internalType": "uint256",
          "name": "projectId",
          "type": "uint256"
        }
      ],
      "stateMutability": "nonpayable",
      "type": "function"
    },
    {
      "inputs": [],
      "name": "operatorStore",
      "outputs": [
        {
          "internalType": "contract IJBOperatorStore",
          "name": "",
          "type": "address"
        }
      ],
      "stateMutability": "view",
      "type": "function"
    },
    {
      "inputs": [
        {
          "internalType": "uint256",
          "name": "_projectId",
          "type": "uint256"
        },
        {
          "components": [
            {
              "internalType": "string",
              "name": "name",
              "type": "string"
            },
            {
              "internalType": "string",
              "name": "symbol",
              "type": "string"
            },
            {
              "internalType": "contract IJBFundingCycleStore",
              "name": "fundingCycleStore",
              "type": "address"
            },
            {
              "internalType": "string",
              "name": "baseUri",
              "type": "string"
            },
            {
              "internalType": "contract IJBTokenUriResolver",
              "name": "tokenUriResolver",
              "type": "address"
            },
            {
              "internalType": "string",
              "name": "contractUri",
              "type": "string"
            },
            {
              "internalType": "address",
              "name": "owner",
              "type": "address"
            },
            {
              "components": [
                {
                  "components": [
                    {
                      "internalType": "uint104",
                      "name": "price",
                      "type": "uint104"
                    },
                    {
                      "internalType": "uint32",
                      "name": "initialQuantity",
                      "type": "uint32"
                    },
                    {
                      "internalType": "uint32",
                      "name": "votingUnits",
                      "type": "uint32"
                    },
                    {
                      "internalType": "uint16",
                      "name": "reservedRate",
                      "type": "uint16"
                    },
                    {
                      "internalType": "address",
                      "name": "reservedTokenBeneficiary",
                      "type": "address"
                    },
                    {
                      "internalType": "bytes32",
                      "name": "encodedIPFSUri",
                      "type": "bytes32"
                    },
                    {
                      "internalType": "uint24",
                      "name": "category",
                      "type": "uint24"
                    },
                    {
                      "internalType": "bool",
                      "name": "allowManualMint",
                      "type": "bool"
                    },
                    {
                      "internalType": "bool",
                      "name": "shouldUseReservedTokenBeneficiaryAsDefault",
                      "type": "bool"
                    },
                    {
                      "internalType": "bool",
                      "name": "transfersPausable",
                      "type": "bool"
                    },
                    {
                      "internalType": "bool",
                      "name": "useVotingUnits",
                      "type": "bool"
                    }
                  ],
                  "internalType": "struct JB721TierParams[]",
                  "name": "tiers",
                  "type": "tuple[]"
                },
                {
                  "internalType": "uint48",
                  "name": "currency",
                  "type": "uint48"
                },
                {
                  "internalType": "uint48",
                  "name": "decimals",
                  "type": "uint48"
                },
                {
                  "internalType": "contract IJBPrices",
                  "name": "prices",
                  "type": "address"
                }
              ],
              "internalType": "struct JB721PricingParams",
              "name": "pricing",
              "type": "tuple"
            },
            {
              "internalType": "address",
              "name": "reservedTokenBeneficiary",
              "type": "address"
            },
            {
              "internalType": "contract IJBTiered721DelegateStore",
              "name": "store",
              "type": "address"
            },
            {
              "components": [
                {
                  "internalType": "bool",
                  "name": "lockReservedTokenChanges",
                  "type": "bool"
                },
                {
                  "internalType": "bool",
                  "name": "lockVotingUnitChanges",
                  "type": "bool"
                },
                {
                  "internalType": "bool",
                  "name": "lockManualMintingChanges",
                  "type": "bool"
                },
                {
                  "internalType": "bool",
                  "name": "preventOverspending",
                  "type": "bool"
                }
              ],
              "internalType": "struct JBTiered721Flags",
              "name": "flags",
              "type": "tuple"
            },
            {
              "internalType": "enum JB721GovernanceType",
              "name": "governanceType",
              "type": "uint8"
            }
          ],
          "internalType": "struct JBDeployTiered721DelegateData",
          "name": "_deployTiered721DelegateData",
          "type": "tuple"
        },
        {
          "components": [
            {
              "components": [
                {
                  "internalType": "uint256",
                  "name": "duration",
                  "type": "uint256"
                },
                {
                  "internalType": "uint256",
                  "name": "weight",
                  "type": "uint256"
                },
                {
                  "internalType": "uint256",
                  "name": "discountRate",
                  "type": "uint256"
                },
                {
                  "internalType": "contract IJBFundingCycleBallot",
                  "name": "ballot",
                  "type": "address"
                }
              ],
              "internalType": "struct JBFundingCycleData",
              "name": "data",
              "type": "tuple"
            },
            {
              "components": [
                {
                  "components": [
                    {
                      "internalType": "bool",
                      "name": "allowSetTerminals",
                      "type": "bool"
                    },
                    {
                      "internalType": "bool",
                      "name": "allowSetController",
                      "type": "bool"
                    },
                    {
                      "internalType": "bool",
                      "name": "pauseTransfers",
                      "type": "bool"
                    }
                  ],
                  "internalType": "struct JBGlobalFundingCycleMetadata",
                  "name": "global",
                  "type": "tuple"
                },
                {
                  "internalType": "uint256",
                  "name": "reservedRate",
                  "type": "uint256"
                },
                {
                  "internalType": "uint256",
                  "name": "redemptionRate",
                  "type": "uint256"
                },
                {
                  "internalType": "uint256",
                  "name": "ballotRedemptionRate",
                  "type": "uint256"
                },
                {
                  "internalType": "bool",
                  "name": "pausePay",
                  "type": "bool"
                },
                {
                  "internalType": "bool",
                  "name": "pauseDistributions",
                  "type": "bool"
                },
                {
                  "internalType": "bool",
                  "name": "pauseRedeem",
                  "type": "bool"
                },
                {
                  "internalType": "bool",
                  "name": "pauseBurn",
                  "type": "bool"
                },
                {
                  "internalType": "bool",
                  "name": "allowMinting",
                  "type": "bool"
                },
                {
                  "internalType": "bool",
                  "name": "allowTerminalMigration",
                  "type": "bool"
                },
                {
                  "internalType": "bool",
                  "name": "allowControllerMigration",
                  "type": "bool"
                },
                {
                  "internalType": "bool",
                  "name": "holdFees",
                  "type": "bool"
                },
                {
                  "internalType": "bool",
                  "name": "preferClaimedTokenOverride",
                  "type": "bool"
                },
                {
                  "internalType": "bool",
                  "name": "useTotalOverflowForRedemptions",
                  "type": "bool"
                },
                {
                  "internalType": "bool",
                  "name": "useDataSourceForRedeem",
                  "type": "bool"
                },
                {
                  "internalType": "uint256",
                  "name": "metadata",
                  "type": "uint256"
                }
              ],
              "internalType": "struct JBPayDataSourceFundingCycleMetadata",
              "name": "metadata",
              "type": "tuple"
            },
            {
              "internalType": "uint256",
              "name": "mustStartAtOrAfter",
              "type": "uint256"
            },
            {
              "components": [
                {
                  "internalType": "uint256",
                  "name": "group",
                  "type": "uint256"
                },
                {
                  "components": [
                    {
                      "internalType": "bool",
                      "name": "preferClaimed",
                      "type": "bool"
                    },
                    {
                      "internalType": "bool",
                      "name": "preferAddToBalance",
                      "type": "bool"
                    },
                    {
                      "internalType": "uint256",
                      "name": "percent",
                      "type": "uint256"
                    },
                    {
                      "internalType": "uint256",
                      "name": "projectId",
                      "type": "uint256"
                    },
                    {
                      "internalType": "address payable",
                      "name": "beneficiary",
                      "type": "address"
                    },
                    {
                      "internalType": "uint256",
                      "name": "lockedUntil",
                      "type": "uint256"
                    },
                    {
                      "internalType": "contract IJBSplitAllocator",
                      "name": "allocator",
                      "type": "address"
                    }
                  ],
                  "internalType": "struct JBSplit[]",
                  "name": "splits",
                  "type": "tuple[]"
                }
              ],
              "internalType": "struct JBGroupedSplits[]",
              "name": "groupedSplits",
              "type": "tuple[]"
            },
            {
              "components": [
                {
                  "internalType": "contract IJBPaymentTerminal",
                  "name": "terminal",
                  "type": "address"
                },
                {
                  "internalType": "address",
                  "name": "token",
                  "type": "address"
                },
                {
                  "internalType": "uint256",
                  "name": "distributionLimit",
                  "type": "uint256"
                },
                {
                  "internalType": "uint256",
                  "name": "distributionLimitCurrency",
                  "type": "uint256"
                },
                {
                  "internalType": "uint256",
                  "name": "overflowAllowance",
                  "type": "uint256"
                },
                {
                  "internalType": "uint256",
                  "name": "overflowAllowanceCurrency",
                  "type": "uint256"
                }
              ],
              "internalType": "struct JBFundAccessConstraints[]",
              "name": "fundAccessConstraints",
              "type": "tuple[]"
            },
            {
              "internalType": "string",
              "name": "memo",
              "type": "string"
            }
          ],
          "internalType": "struct JBReconfigureFundingCyclesData",
          "name": "_reconfigureFundingCyclesData",
          "type": "tuple"
        },
        {
          "internalType": "contract IJBController3_1",
          "name": "_controller",
          "type": "address"
        }
      ],
      "name": "reconfigureFundingCyclesOf",
      "outputs": [
        {
          "internalType": "uint256",
          "name": "configuration",
          "type": "uint256"
        }
      ],
      "stateMutability": "nonpayable",
      "type": "function"
    }
  ],
  "bytecode": {
    "object": "0x60e06040523480156200001157600080fd5b506040516200258d3803806200258d83398101604081905262000034916200006b565b6001600160a01b0390811660805291821660a0521660c052620000bf565b6001600160a01b03811681146200006857600080fd5b50565b6000806000606084860312156200008157600080fd5b83516200008e8162000052565b6020850151909350620000a18162000052565b6040850151909250620000b48162000052565b809150509250925092565b60805160a05160c0516124536200013a6000396000818160a5015281816102360152818161041801526105e901526000818161010b01528181610144015281816102670152818161030201528181610449015281816104d3015261061a01526000818160e40152818161086c015261091301526124536000f3fe608060405234801561001057600080fd5b50600436106100625760003560e01c806326cbc68f146100675780635536118b1461008d5780638f3d964b146100a0578063ad007d63146100df578063c41c2f2414610106578063fd1c4e561461012d575b600080fd5b61007a6100753660046117bd565b610140565b6040519081526020015b60405180910390f35b61007a61009b366004611936565b6102fe565b6100c77f000000000000000000000000000000000000000000000000000000000000000081565b6040516001600160a01b039091168152602001610084565b6100c77f000000000000000000000000000000000000000000000000000000000000000081565b6100c77f000000000000000000000000000000000000000000000000000000000000000081565b61007a61013b366004611a52565b6104cf565b60007f00000000000000000000000000000000000000000000000000000000000000006001600160a01b0316638b79543c6040518163ffffffff1660e01b8152600401602060405180830381865afa1580156101a0573d6000803e3d6000fd5b505050506040513d601f19601f820116820180604052508101906101c49190611b93565b6001600160a01b03166306661abd6040518163ffffffff1660e01b8152600401602060405180830381865afa158015610201573d6000803e3d6000fd5b505050506040513d601f19601f820116820180604052508101906102259190611bb7565b610230906001611bd0565b905060007f00000000000000000000000000000000000000000000000000000000000000006001600160a01b031663063543d183877f00000000000000000000000000000000000000000000000000000000000000006040518463ffffffff1660e01b81526004016102a493929190611d8e565b6020604051808303816000875af11580156102c3573d6000803e3d6000fd5b505050506040513d601f19601f820116820180604052508101906102e79190611b93565b90506102f586858386610693565b50949350505050565b60007f00000000000000000000000000000000000000000000000000000000000000006001600160a01b0316638b79543c6040518163ffffffff1660e01b8152600401602060405180830381865afa15801561035e573d6000803e3d6000fd5b505050506040513d601f19601f820116820180604052508101906103829190611b93565b6001600160a01b0316636352211e866040518263ffffffff1660e01b81526004016103af91815260200190565b602060405180830381865afa1580156103cc573d6000803e3d6000fd5b505050506040513d601f19601f820116820180604052508101906103f09190611b93565b8560016103fe838383610825565b60405163063543d160e01b81526000906001600160a01b037f0000000000000000000000000000000000000000000000000000000000000000169063063543d190610471908c908c907f000000000000000000000000000000000000000000000000000000000000000090600401611d8e565b6020604051808303816000875af1158015610490573d6000803e3d6000fd5b505050506040513d601f19601f820116820180604052508101906104b49190611b93565b90506104c2898883896109a3565b9998505050505050505050565b60007f00000000000000000000000000000000000000000000000000000000000000006001600160a01b0316638b79543c6040518163ffffffff1660e01b8152600401602060405180830381865afa15801561052f573d6000803e3d6000fd5b505050506040513d601f19601f820116820180604052508101906105539190611b93565b6001600160a01b0316636352211e866040518263ffffffff1660e01b815260040161058091815260200190565b602060405180830381865afa15801561059d573d6000803e3d6000fd5b505050506040513d601f19601f820116820180604052508101906105c19190611b93565b8560016105cf838383610825565b60405163063543d160e01b81526000906001600160a01b037f0000000000000000000000000000000000000000000000000000000000000000169063063543d190610642908c908c907f000000000000000000000000000000000000000000000000000000000000000090600401611d8e565b6020604051808303816000875af1158015610661573d6000803e3d6000fd5b505050506040513d601f19601f820116820180604052508101906106859190611b93565b90506104c289888389610b5e565b8251602080850151604080516102408101825281880180515182528051850151948201949094528351820151818301528351606090810151818301528451608090810151151581840152855160a090810151151581850152865160c090810151151581860152875160e09081015115158187015288516101009081015115159087015288516101209081015115159087015288516101409081015115159087015288516101609081015115159087015288516101809081015115159087015288516101a09081015115159087015260016101c0808801919091528951015115156101e0808801919091526001600160a01b038d811661020089015299510151610220870152938c0151928c0151918c0151908c0151938c0151955163b3c5267360e01b8152978a169863b3c52673986107db988f989297909690959493929091600401612241565b6020604051808303816000875af11580156107fa573d6000803e3d6000fd5b505050506040513d601f19601f8201168201806040525081019061081e9190611bb7565b5050505050565b336001600160a01b038416148015906108d9575060405163c161c93f60e01b81523360048201526001600160a01b03848116602483015260448201849052606482018390527f0000000000000000000000000000000000000000000000000000000000000000169063c161c93f90608401602060405180830381865afa1580156108b3573d6000803e3d6000fd5b505050506040513d601f19601f820116820180604052508101906108d79190612302565b155b8015610980575060405163c161c93f60e01b81523360048201526001600160a01b03848116602483015260006044830152606482018390527f0000000000000000000000000000000000000000000000000000000000000000169063c161c93f90608401602060405180830381865afa15801561095a573d6000803e3d6000fd5b505050506040513d601f19601f8201168201806040525081019061097e9190612302565b155b1561099e5760405163075fd2b160e01b815260040160405180910390fd5b505050565b6000816001600160a01b031663badbdf28868660000151604051806102400160405280896020015160000151815260200189602001516020015181526020018960200151604001518152602001896020015160600151815260200189602001516080015115158152602001896020015160a0015115158152602001896020015160c0015115158152602001896020015160e00151151581526020018960200151610100015115158152602001896020015161012001511515815260200189602001516101400151151581526020018960200151610160015115158152602001896020015161018001511515815260200189602001516101a001511515815260200160011515815260200189602001516101c0015115158152602001886001600160a01b0316815260200189602001516101e00151815250886040015189606001518a608001518b60a001516040518863ffffffff1660e01b8152600401610b10979695949392919061231f565b6020604051808303816000875af1158015610b2f573d6000803e3d6000fd5b505050506040513d601f19601f82011682018060405250810190610b539190611bb7565b90505b949350505050565b6000816001600160a01b031663111d861b868660000151604051806102400160405280896020015160000151815260200189602001516020015181526020018960200151604001518152602001896020015160600151815260200189602001516080015115158152602001896020015160a0015115158152602001896020015160c0015115158152602001896020015160e00151151581526020018960200151610100015115158152602001896020015161012001511515815260200189602001516101400151151581526020018960200151610160015115158152602001896020015161018001511515815260200189602001516101a001511515815260200160011515815260200189602001516101c0015115158152602001886001600160a01b0316815260200189602001516101e00151815250886040015189606001518a608001518b60a001518c60c001516040518963ffffffff1660e01b8152600401610b10989796959493929190612393565b6001600160a01b0381168114610ce657600080fd5b50565b8035610cf481610cd1565b919050565b634e487b7160e01b600052604160045260246000fd5b604051608081016001600160401b0381118282101715610d3157610d31610cf9565b60405290565b60405161016081016001600160401b0381118282101715610d3157610d31610cf9565b60405161018081016001600160401b0381118282101715610d3157610d31610cf9565b604080519081016001600160401b0381118282101715610d3157610d31610cf9565b60405161020081016001600160401b0381118282101715610d3157610d31610cf9565b60405160e081016001600160401b0381118282101715610d3157610d31610cf9565b60405160c081016001600160401b0381118282101715610d3157610d31610cf9565b60405161010081016001600160401b0381118282101715610d3157610d31610cf9565b604051601f8201601f191681016001600160401b0381118282101715610e5157610e51610cf9565b604052919050565b600082601f830112610e6a57600080fd5b81356001600160401b03811115610e8357610e83610cf9565b610e96601f8201601f1916602001610e29565b818152846020838601011115610eab57600080fd5b816020850160208301376000918101602001919091529392505050565b60006001600160401b03821115610ee157610ee1610cf9565b5060051b60200190565b80356cffffffffffffffffffffffffff81168114610cf457600080fd5b803563ffffffff81168114610cf457600080fd5b803561ffff81168114610cf457600080fd5b803562ffffff81168114610cf457600080fd5b8015158114610ce657600080fd5b8035610cf481610f41565b803565ffffffffffff81168114610cf457600080fd5b60006080808385031215610f8357600080fd5b610f8b610d0f565b915082356001600160401b03811115610fa357600080fd5b8301601f81018513610fb457600080fd5b80356020610fc9610fc483610ec8565b610e29565b8281526101609283028401820192828201919089851115610fe957600080fd5b948301945b848610156110ca5780868b0312156110065760008081fd5b61100e610d37565b61101787610eeb565b8152611024858801610f08565b858201526040611035818901610f08565b908201526060611046888201610f1c565b90820152611055878901610ce9565b8189015260a0878101359082015260c0611070818901610f2e565b9082015260e0611081888201610f4f565b90820152610100611093888201610f4f565b908201526101206110a5888201610f4f565b908201526101406110b7888201610f4f565b9082015283529485019491830191610fee565b508652506110d9868201610f5a565b81860152505050506110ed60408301610f5a565b60408201526110fe60608301610ce9565b606082015292915050565b60006080828403121561111b57600080fd5b611123610d0f565b9050813561113081610f41565b8152602082013561114081610f41565b6020820152604082013561115381610f41565b604082015260608201356110fe81610f41565b803560028110610cf457600080fd5b60006101e0828403121561118857600080fd5b611190610d5a565b905081356001600160401b03808211156111a957600080fd5b6111b585838601610e59565b835260208401359150808211156111cb57600080fd5b6111d785838601610e59565b60208401526111e860408501610ce9565b6040840152606084013591508082111561120157600080fd5b61120d85838601610e59565b606084015261121e60808501610ce9565b608084015260a084013591508082111561123757600080fd5b61124385838601610e59565b60a084015261125460c08501610ce9565b60c084015260e084013591508082111561126d57600080fd5b5061127a84828501610f70565b60e08301525061010061128e818401610ce9565b908201526101206112a0838201610ce9565b908201526101406112b384848301611109565b908201526112c46101c08301611166565b61016082015292915050565b6000604082840312156112e257600080fd5b6112ea610d7d565b905081356001600160401b0381111561130257600080fd5b61130e84828501610e59565b8252506020820135602082015292915050565b60006080828403121561133357600080fd5b61133b610d0f565b905081358152602082013560208201526040820135604082015260608201356110fe81610cd1565b60006060828403121561137557600080fd5b604051606081018181106001600160401b038211171561139757611397610cf9565b60405290508082356113a881610f41565b815260208301356113b881610f41565b602082015260408301356113cb81610f41565b6040919091015292915050565b600061024082840312156113eb57600080fd5b6113f3610d9f565b90506113ff8383611363565b8152606082013560208201526080820135604082015260a0820135606082015261142b60c08301610f4f565b608082015261143c60e08301610f4f565b60a082015261010061144f818401610f4f565b60c0830152610120611462818501610f4f565b60e0840152610140611475818601610f4f565b838501526101609250611489838601610f4f565b82850152610180915061149d828601610f4f565b908401526101a06114af858201610f4f565b838501526101c092506114c3838601610f4f565b828501526101e091506114d7828601610f4f565b908401526114e86102008501610f4f565b8284015261022084013581840152505092915050565b600082601f83011261150f57600080fd5b8135602061151f610fc483610ec8565b82815260059290921b8401810191818101908684111561153e57600080fd5b8286015b8481101561168a5780356001600160401b038082111561156157600080fd5b908801906040828b03601f190181131561157a57600080fd5b611582610d7d565b878401358152818401358381111561159957600080fd5b8085019450508b603f8501126115ae57600080fd5b8784013592506115c0610fc484610ec8565b83815260e09093028401820192888101908d8511156115de57600080fd5b948301945b848610156116755760e0868f0312156115fb57600080fd5b611603610dc2565b863561160e81610f41565b8152868b013561161d81610f41565b818c0152868501358582015260608088013590820152608087013561164181610cd1565b608082015260a0878101359082015260c087013561165e81610cd1565b60c0820152825260e09590950194908901906115e3565b828a0152508652505050918301918301611542565b509695505050505050565b600082601f8301126116a657600080fd5b813560206116b6610fc483610ec8565b82815260c092830285018201928282019190878511156116d557600080fd5b8387015b8581101561174c5781818a0312156116f15760008081fd5b6116f9610de4565b813561170481610cd1565b81528186013561171381610cd1565b8187015260408281013590820152606080830135908201526080808301359082015260a0808301359082015284529284019281016116d9565b5090979650505050505050565b600082601f83011261176a57600080fd5b8135602061177a610fc483610ec8565b82815260059290921b8401810191818101908684111561179957600080fd5b8286015b8481101561168a5780356117b081610cd1565b835291830191830161179d565b600080600080608085870312156117d357600080fd5b84356117de81610cd1565b935060208501356001600160401b03808211156117fa57600080fd5b61180688838901611175565b9450604087013591508082111561181c57600080fd5b90860190610380828903121561183157600080fd5b611839610e06565b82358281111561184857600080fd5b6118548a8286016112d0565b8252506118648960208501611321565b60208201526118768960a085016113d8565b60408201526102e083013560608201526103008301358281111561189957600080fd5b6118a58a8286016114fe565b608083015250610320830135828111156118be57600080fd5b6118ca8a828601611695565b60a083015250610340830135828111156118e357600080fd5b6118ef8a828601611759565b60c0830152506103608301358281111561190857600080fd5b6119148a828601610e59565b60e083015250935061192b91505060608601610ce9565b905092959194509250565b6000806000806080858703121561194c57600080fd5b8435935060208501356001600160401b038082111561196a57600080fd5b61197688838901611175565b9450604087013591508082111561198c57600080fd5b9086019061034082890312156119a157600080fd5b6119a9610de4565b6119b38984611321565b81526119c289608085016113d8565b60208201526102c083013560408201526102e0830135828111156119e557600080fd5b6119f18a8286016114fe565b60608301525061030083013582811115611a0a57600080fd5b611a168a828601611695565b60808301525061032083013582811115611a2f57600080fd5b611a3b8a828601610e59565b60a083015250935061192b91505060608601610ce9565b60008060008060808587031215611a6857600080fd5b8435935060208501356001600160401b0380821115611a8657600080fd5b611a9288838901611175565b94506040870135915080821115611aa857600080fd5b908601906103608289031215611abd57600080fd5b611ac5610dc2565b611acf8984611321565b8152611ade89608085016113d8565b60208201526102c083013560408201526102e083013582811115611b0157600080fd5b611b0d8a8286016114fe565b60608301525061030083013582811115611b2657600080fd5b611b328a828601611695565b60808301525061032083013582811115611b4b57600080fd5b611b578a828601611759565b60a08301525061034083013582811115611b7057600080fd5b611b7c8a828601610e59565b60c083015250935061192b91505060608601610ce9565b600060208284031215611ba557600080fd5b8151611bb081610cd1565b9392505050565b600060208284031215611bc957600080fd5b5051919050565b80820180821115611bf157634e487b7160e01b600052601160045260246000fd5b92915050565b6000815180845260005b81811015611c1d57602081850181015186830182015201611c01565b506000602082860101526020601f19601f83011685010191505092915050565b80516080808452815184820181905260009260a0916020918201918388019190865b82811015611d1557845180516cffffffffffffffffffffffffff1685528281015163ffffffff908116848701526040808301519091169086015260608082015161ffff1690860152878101516001600160a01b031688860152868101518786015260c08082015162ffffff169086015260e0808201511515908601526101008082015115159086015261012080820151151590860152610140908101511515908501529381019361016090930192600101611c5f565b508781015165ffffffffffff81168a8301529550505060408601519350611d46604088018565ffffffffffff169052565b60608601519350611d6260608801856001600160a01b03169052565b9695505050505050565b60028110611d8a57634e487b7160e01b600052602160045260246000fd5b9052565b83815260606020820152600083516101e06060840152611db2610240840182611bf7565b90506020850151605f1980858403016080860152611dd08383611bf7565b925060408701519150611dee60a08601836001600160a01b03169052565b60608701519150808584030160c0860152611e098383611bf7565b925060808701519150611e2760e08601836001600160a01b03169052565b60a08701519150610100818685030181870152611e448484611bf7565b935060c08801519250610120611e64818801856001600160a01b03169052565b60e08901519350610140838887030181890152611e818686611c3d565b9550828a015194506101609350611ea2848901866001600160a01b03169052565b908901516001600160a01b0316610180880152880151805115156101a0880152602081015115156101c0880152604081015115156101e0880152606081015115156102008801529250611ef29050565b8601519050611f05610220850182611d6c565b506001600160a01b03841660408401529050610b56565b8051825260208082015190830152604080820151908301526060908101516001600160a01b0316910152565b611f6d8282518051151582526020808201511515908301526040908101511515910152565b6020810151606083015260408101516080830152606081015160a08301526080810151611f9e60c084018215159052565b5060a081015180151560e08401525060c0810151610100611fc28185018315159052565b60e08301519150610120611fd98186018415159052565b90830151915061014090611ff08583018415159052565b83015191506101606120058582018415159052565b9083015191506101809061201c8583018415159052565b83015191506101a06120318582018415159052565b9083015191506101c0906120488583018415159052565b83015191506101e061205d8582018415159052565b908301519150610200906120748583018415159052565b83015191506102206120898582018415159052565b908301516001600160a01b0316610240850152909101516102609092019190915250565b600081518084526020808501808196508360051b810191508286016000805b8681101561217f578385038a52825180518652860151604087870181905281518188018190529188019160609081890190865b818110156121685785518051151584528c81015115158d850152858101518685015284810151858501526080808201516001600160a01b039081169186019190915260a0808301519086015260c0918201511690840152948b019460e0909201916001016120ff565b50509c89019c9750505092860192506001016120cc565b509298975050505050505050565b600081518084526020808501945080840160005b838110156121fd57815180516001600160a01b03908116895284820151168489015260408082015190890152606080820151908901526080808201519089015260a0908101519088015260c090960195908201906001016121a1565b509495945050505050565b600081518084526020808501945080840160005b838110156121fd5781516001600160a01b03168752958201959082019060010161221c565b6001600160a01b038a1681526103e060208201819052895160408383015260009190612271610420850182611bf7565b91505060208b015161040084015261228c604084018b611f1c565b61229960c084018a611f48565b876103408401528281036103608401526122b381886120ad565b90508281036103808401526122c8818761218d565b90508281036103a08401526122dd8186612208565b90508281036103c08401526122f28185611bf7565b9c9b505050505050505050505050565b60006020828403121561231457600080fd5b8151611bb081610f41565b60006103a0898352612334602084018a611f1c565b61234160a0840189611f48565b866103208401528061034084015261235b818401876120ad565b9050828103610360840152612370818661218d565b90508281036103808401526123858185611bf7565b9a9950505050505050505050565b60006103c08a83526123a8602084018b611f1c565b6123b560a084018a611f48565b87610320840152806103408401526123cf818401886120ad565b90508281036103608401526123e4818761218d565b90508281036103808401526123f98186612208565b90508281036103a084015261240e8185611bf7565b9b9a505050505050505050505056fea2646970667358221220e9f5f834b02cecbc9afc6a340ceb9f5577181cb2219a0680f176a3a79e129d5964736f6c63430008140033",
    "linkReferences": {}
  },
  "methodIdentifiers": {
    "delegateDeployer()": "8f3d964b",
    "directory()": "c41c2f24",
    "launchFundingCyclesFor(uint256,(string,string,address,string,address,string,address,((uint104,uint32,uint32,uint16,address,bytes32,uint24,bool,bool,bool,bool)[],uint48,uint48,address),address,address,(bool,bool,bool,bool),uint8),((uint256,uint256,uint256,address),((bool,bool,bool),uint256,uint256,uint256,bool,bool,bool,bool,bool,bool,bool,bool,bool,bool,bool,uint256),uint256,(uint256,(bool,bool,uint256,uint256,address,uint256,address)[])[],(address,address,uint256,uint256,uint256,uint256)[],address[],string),address)": "fd1c4e56",
    "launchProjectFor(address,(string,string,address,string,address,string,address,((uint104,uint32,uint32,uint16,address,bytes32,uint24,bool,bool,bool,bool)[],uint48,uint48,address),address,address,(bool,bool,bool,bool),uint8),((string,uint256),(uint256,uint256,uint256,address),((bool,bool,bool),uint256,uint256,uint256,bool,bool,bool,bool,bool,bool,bool,bool,bool,bool,bool,uint256),uint256,(uint256,(bool,bool,uint256,uint256,address,uint256,address)[])[],(address,address,uint256,uint256,uint256,uint256)[],address[],string),address)": "26cbc68f",
    "operatorStore()": "ad007d63",
    "reconfigureFundingCyclesOf(uint256,(string,string,address,string,address,string,address,((uint104,uint32,uint32,uint16,address,bytes32,uint24,bool,bool,bool,bool)[],uint48,uint48,address),address,address,(bool,bool,bool,bool),uint8),((uint256,uint256,uint256,address),((bool,bool,bool),uint256,uint256,uint256,bool,bool,bool,bool,bool,bool,bool,bool,bool,bool,bool,uint256),uint256,(uint256,(bool,bool,uint256,uint256,address,uint256,address)[])[],(address,address,uint256,uint256,uint256,uint256)[],string),address)": "5536118b"
  },
  "id": 2
}