{
  "abi": [
    {
      "inputs": [
        {
          "internalType": "contract IJBController",
          "name": "_controller",
          "type": "address"
        },
        {
          "internalType": "contract IJBTiered721DelegateDeployer",
          "name": "_delegateDeployer",
          "type": "address"
        },
        {
          "internalType": "contract IJBOperatorStore",
          "name": "_operatorStore",
          "type": "address"
        }
      ],
      "stateMutability": "nonpayable",
      "type": "constructor"
    },
    {
      "inputs": [],
      "name": "UNAUTHORIZED",
      "type": "error"
    },
    {
      "inputs": [],
      "name": "controller",
      "outputs": [
        {
          "internalType": "contract IJBController",
          "name": "",
          "type": "address"
        }
      ],
      "stateMutability": "view",
      "type": "function"
    },
    {
      "inputs": [],
      "name": "delegateDeployer",
      "outputs": [
        {
          "internalType": "contract IJBTiered721DelegateDeployer",
          "name": "",
          "type": "address"
        }
      ],
      "stateMutability": "view",
      "type": "function"
    },
    {
      "inputs": [
        {
          "internalType": "uint256",
          "name": "_projectId",
          "type": "uint256"
        },
        {
          "components": [
            {
              "internalType": "contract IJBDirectory",
              "name": "directory",
              "type": "address"
            },
            {
              "internalType": "string",
              "name": "name",
              "type": "string"
            },
            {
              "internalType": "string",
              "name": "symbol",
              "type": "string"
            },
            {
              "internalType": "contract IJBFundingCycleStore",
              "name": "fundingCycleStore",
              "type": "address"
            },
            {
              "internalType": "string",
              "name": "baseUri",
              "type": "string"
            },
            {
              "internalType": "contract IJBTokenUriResolver",
              "name": "tokenUriResolver",
              "type": "address"
            },
            {
              "internalType": "string",
              "name": "contractUri",
              "type": "string"
            },
            {
              "internalType": "address",
              "name": "owner",
              "type": "address"
            },
            {
              "components": [
                {
                  "components": [
                    {
                      "internalType": "uint256",
                      "name": "contributionFloor",
                      "type": "uint256"
                    },
                    {
                      "internalType": "uint256",
                      "name": "lockedUntil",
                      "type": "uint256"
                    },
                    {
                      "internalType": "uint256",
                      "name": "initialQuantity",
                      "type": "uint256"
                    },
                    {
                      "internalType": "uint256",
                      "name": "votingUnits",
                      "type": "uint256"
                    },
                    {
                      "internalType": "uint256",
                      "name": "reservedRate",
                      "type": "uint256"
                    },
                    {
                      "internalType": "address",
                      "name": "reservedTokenBeneficiary",
                      "type": "address"
                    },
                    {
                      "internalType": "bytes32",
                      "name": "encodedIPFSUri",
                      "type": "bytes32"
                    },
                    {
                      "internalType": "bool",
                      "name": "allowManualMint",
                      "type": "bool"
                    },
                    {
                      "internalType": "bool",
                      "name": "shouldUseBeneficiaryAsDefault",
                      "type": "bool"
                    }
                  ],
                  "internalType": "struct JB721TierParams[]",
                  "name": "tiers",
                  "type": "tuple[]"
                },
                {
                  "internalType": "uint256",
                  "name": "currency",
                  "type": "uint256"
                },
                {
                  "internalType": "uint256",
                  "name": "decimals",
                  "type": "uint256"
                },
                {
                  "internalType": "contract IJBPrices",
                  "name": "prices",
                  "type": "address"
                }
              ],
              "internalType": "struct JB721PricingParams",
              "name": "pricing",
              "type": "tuple"
            },
            {
              "internalType": "address",
              "name": "reservedTokenBeneficiary",
              "type": "address"
            },
            {
              "internalType": "contract IJBTiered721DelegateStore",
              "name": "store",
              "type": "address"
            },
            {
              "components": [
                {
                  "internalType": "bool",
                  "name": "lockReservedTokenChanges",
                  "type": "bool"
                },
                {
                  "internalType": "bool",
                  "name": "lockVotingUnitChanges",
                  "type": "bool"
                },
                {
                  "internalType": "bool",
                  "name": "lockManualMintingChanges",
                  "type": "bool"
                },
                {
                  "internalType": "bool",
                  "name": "pausable",
                  "type": "bool"
                }
              ],
              "internalType": "struct JBTiered721Flags",
              "name": "flags",
              "type": "tuple"
            },
            {
              "internalType": "enum JB721GovernanceType",
              "name": "governanceType",
              "type": "uint8"
            }
          ],
          "internalType": "struct JBDeployTiered721DelegateData",
          "name": "_deployTiered721DelegateData",
          "type": "tuple"
        },
        {
          "components": [
            {
              "components": [
                {
                  "internalType": "uint256",
                  "name": "duration",
                  "type": "uint256"
                },
                {
                  "internalType": "uint256",
                  "name": "weight",
                  "type": "uint256"
                },
                {
                  "internalType": "uint256",
                  "name": "discountRate",
                  "type": "uint256"
                },
                {
                  "internalType": "contract IJBFundingCycleBallot",
                  "name": "ballot",
                  "type": "address"
                }
              ],
              "internalType": "struct JBFundingCycleData",
              "name": "data",
              "type": "tuple"
            },
            {
              "components": [
                {
                  "components": [
                    {
                      "internalType": "bool",
                      "name": "allowSetTerminals",
                      "type": "bool"
                    },
                    {
                      "internalType": "bool",
                      "name": "allowSetController",
                      "type": "bool"
                    },
                    {
                      "internalType": "bool",
                      "name": "pauseTransfers",
                      "type": "bool"
                    }
                  ],
                  "internalType": "struct JBGlobalFundingCycleMetadata",
                  "name": "global",
                  "type": "tuple"
                },
                {
                  "internalType": "uint256",
                  "name": "reservedRate",
                  "type": "uint256"
                },
                {
                  "internalType": "uint256",
                  "name": "redemptionRate",
                  "type": "uint256"
                },
                {
                  "internalType": "uint256",
                  "name": "ballotRedemptionRate",
                  "type": "uint256"
                },
                {
                  "internalType": "bool",
                  "name": "pausePay",
                  "type": "bool"
                },
                {
                  "internalType": "bool",
                  "name": "pauseDistributions",
                  "type": "bool"
                },
                {
                  "internalType": "bool",
                  "name": "pauseRedeem",
                  "type": "bool"
                },
                {
                  "internalType": "bool",
                  "name": "pauseBurn",
                  "type": "bool"
                },
                {
                  "internalType": "bool",
                  "name": "allowMinting",
                  "type": "bool"
                },
                {
                  "internalType": "bool",
                  "name": "allowTerminalMigration",
                  "type": "bool"
                },
                {
                  "internalType": "bool",
                  "name": "allowControllerMigration",
                  "type": "bool"
                },
                {
                  "internalType": "bool",
                  "name": "holdFees",
                  "type": "bool"
                },
                {
                  "internalType": "bool",
                  "name": "preferClaimedTokenOverride",
                  "type": "bool"
                },
                {
                  "internalType": "bool",
                  "name": "useTotalOverflowForRedemptions",
                  "type": "bool"
                },
                {
                  "internalType": "bool",
                  "name": "useDataSourceForPay",
                  "type": "bool"
                },
                {
                  "internalType": "bool",
                  "name": "useDataSourceForRedeem",
                  "type": "bool"
                },
                {
                  "internalType": "address",
                  "name": "dataSource",
                  "type": "address"
                },
                {
                  "internalType": "uint256",
                  "name": "metadata",
                  "type": "uint256"
                }
              ],
              "internalType": "struct JBFundingCycleMetadata",
              "name": "metadata",
              "type": "tuple"
            },
            {
              "internalType": "uint256",
              "name": "mustStartAtOrAfter",
              "type": "uint256"
            },
            {
              "components": [
                {
                  "internalType": "uint256",
                  "name": "group",
                  "type": "uint256"
                },
                {
                  "components": [
                    {
                      "internalType": "bool",
                      "name": "preferClaimed",
                      "type": "bool"
                    },
                    {
                      "internalType": "bool",
                      "name": "preferAddToBalance",
                      "type": "bool"
                    },
                    {
                      "internalType": "uint256",
                      "name": "percent",
                      "type": "uint256"
                    },
                    {
                      "internalType": "uint256",
                      "name": "projectId",
                      "type": "uint256"
                    },
                    {
                      "internalType": "address payable",
                      "name": "beneficiary",
                      "type": "address"
                    },
                    {
                      "internalType": "uint256",
                      "name": "lockedUntil",
                      "type": "uint256"
                    },
                    {
                      "internalType": "contract IJBSplitAllocator",
                      "name": "allocator",
                      "type": "address"
                    }
                  ],
                  "internalType": "struct JBSplit[]",
                  "name": "splits",
                  "type": "tuple[]"
                }
              ],
              "internalType": "struct JBGroupedSplits[]",
              "name": "groupedSplits",
              "type": "tuple[]"
            },
            {
              "components": [
                {
                  "internalType": "contract IJBPaymentTerminal",
                  "name": "terminal",
                  "type": "address"
                },
                {
                  "internalType": "address",
                  "name": "token",
                  "type": "address"
                },
                {
                  "internalType": "uint256",
                  "name": "distributionLimit",
                  "type": "uint256"
                },
                {
                  "internalType": "uint256",
                  "name": "distributionLimitCurrency",
                  "type": "uint256"
                },
                {
                  "internalType": "uint256",
                  "name": "overflowAllowance",
                  "type": "uint256"
                },
                {
                  "internalType": "uint256",
                  "name": "overflowAllowanceCurrency",
                  "type": "uint256"
                }
              ],
              "internalType": "struct JBFundAccessConstraints[]",
              "name": "fundAccessConstraints",
              "type": "tuple[]"
            },
            {
              "internalType": "contract IJBPaymentTerminal[]",
              "name": "terminals",
              "type": "address[]"
            },
            {
              "internalType": "string",
              "name": "memo",
              "type": "string"
            }
          ],
          "internalType": "struct JBLaunchFundingCyclesData",
          "name": "_launchFundingCyclesData",
          "type": "tuple"
        }
      ],
      "name": "launchFundingCyclesFor",
      "outputs": [
        {
          "internalType": "uint256",
          "name": "configuration",
          "type": "uint256"
        }
      ],
      "stateMutability": "nonpayable",
      "type": "function"
    },
    {
      "inputs": [
        {
          "internalType": "address",
          "name": "_owner",
          "type": "address"
        },
        {
          "components": [
            {
              "internalType": "contract IJBDirectory",
              "name": "directory",
              "type": "address"
            },
            {
              "internalType": "string",
              "name": "name",
              "type": "string"
            },
            {
              "internalType": "string",
              "name": "symbol",
              "type": "string"
            },
            {
              "internalType": "contract IJBFundingCycleStore",
              "name": "fundingCycleStore",
              "type": "address"
            },
            {
              "internalType": "string",
              "name": "baseUri",
              "type": "string"
            },
            {
              "internalType": "contract IJBTokenUriResolver",
              "name": "tokenUriResolver",
              "type": "address"
            },
            {
              "internalType": "string",
              "name": "contractUri",
              "type": "string"
            },
            {
              "internalType": "address",
              "name": "owner",
              "type": "address"
            },
            {
              "components": [
                {
                  "components": [
                    {
                      "internalType": "uint256",
                      "name": "contributionFloor",
                      "type": "uint256"
                    },
                    {
                      "internalType": "uint256",
                      "name": "lockedUntil",
                      "type": "uint256"
                    },
                    {
                      "internalType": "uint256",
                      "name": "initialQuantity",
                      "type": "uint256"
                    },
                    {
                      "internalType": "uint256",
                      "name": "votingUnits",
                      "type": "uint256"
                    },
                    {
                      "internalType": "uint256",
                      "name": "reservedRate",
                      "type": "uint256"
                    },
                    {
                      "internalType": "address",
                      "name": "reservedTokenBeneficiary",
                      "type": "address"
                    },
                    {
                      "internalType": "bytes32",
                      "name": "encodedIPFSUri",
                      "type": "bytes32"
                    },
                    {
                      "internalType": "bool",
                      "name": "allowManualMint",
                      "type": "bool"
                    },
                    {
                      "internalType": "bool",
                      "name": "shouldUseBeneficiaryAsDefault",
                      "type": "bool"
                    }
                  ],
                  "internalType": "struct JB721TierParams[]",
                  "name": "tiers",
                  "type": "tuple[]"
                },
                {
                  "internalType": "uint256",
                  "name": "currency",
                  "type": "uint256"
                },
                {
                  "internalType": "uint256",
                  "name": "decimals",
                  "type": "uint256"
                },
                {
                  "internalType": "contract IJBPrices",
                  "name": "prices",
                  "type": "address"
                }
              ],
              "internalType": "struct JB721PricingParams",
              "name": "pricing",
              "type": "tuple"
            },
            {
              "internalType": "address",
              "name": "reservedTokenBeneficiary",
              "type": "address"
            },
            {
              "internalType": "contract IJBTiered721DelegateStore",
              "name": "store",
              "type": "address"
            },
            {
              "components": [
                {
                  "internalType": "bool",
                  "name": "lockReservedTokenChanges",
                  "type": "bool"
                },
                {
                  "internalType": "bool",
                  "name": "lockVotingUnitChanges",
                  "type": "bool"
                },
                {
                  "internalType": "bool",
                  "name": "lockManualMintingChanges",
                  "type": "bool"
                },
                {
                  "internalType": "bool",
                  "name": "pausable",
                  "type": "bool"
                }
              ],
              "internalType": "struct JBTiered721Flags",
              "name": "flags",
              "type": "tuple"
            },
            {
              "internalType": "enum JB721GovernanceType",
              "name": "governanceType",
              "type": "uint8"
            }
          ],
          "internalType": "struct JBDeployTiered721DelegateData",
          "name": "_deployTiered721DelegateData",
          "type": "tuple"
        },
        {
          "components": [
            {
              "components": [
                {
                  "internalType": "string",
                  "name": "content",
                  "type": "string"
                },
                {
                  "internalType": "uint256",
                  "name": "domain",
                  "type": "uint256"
                }
              ],
              "internalType": "struct JBProjectMetadata",
              "name": "projectMetadata",
              "type": "tuple"
            },
            {
              "components": [
                {
                  "internalType": "uint256",
                  "name": "duration",
                  "type": "uint256"
                },
                {
                  "internalType": "uint256",
                  "name": "weight",
                  "type": "uint256"
                },
                {
                  "internalType": "uint256",
                  "name": "discountRate",
                  "type": "uint256"
                },
                {
                  "internalType": "contract IJBFundingCycleBallot",
                  "name": "ballot",
                  "type": "address"
                }
              ],
              "internalType": "struct JBFundingCycleData",
              "name": "data",
              "type": "tuple"
            },
            {
              "components": [
                {
                  "components": [
                    {
                      "internalType": "bool",
                      "name": "allowSetTerminals",
                      "type": "bool"
                    },
                    {
                      "internalType": "bool",
                      "name": "allowSetController",
                      "type": "bool"
                    },
                    {
                      "internalType": "bool",
                      "name": "pauseTransfers",
                      "type": "bool"
                    }
                  ],
                  "internalType": "struct JBGlobalFundingCycleMetadata",
                  "name": "global",
                  "type": "tuple"
                },
                {
                  "internalType": "uint256",
                  "name": "reservedRate",
                  "type": "uint256"
                },
                {
                  "internalType": "uint256",
                  "name": "redemptionRate",
                  "type": "uint256"
                },
                {
                  "internalType": "uint256",
                  "name": "ballotRedemptionRate",
                  "type": "uint256"
                },
                {
                  "internalType": "bool",
                  "name": "pausePay",
                  "type": "bool"
                },
                {
                  "internalType": "bool",
                  "name": "pauseDistributions",
                  "type": "bool"
                },
                {
                  "internalType": "bool",
                  "name": "pauseRedeem",
                  "type": "bool"
                },
                {
                  "internalType": "bool",
                  "name": "pauseBurn",
                  "type": "bool"
                },
                {
                  "internalType": "bool",
                  "name": "allowMinting",
                  "type": "bool"
                },
                {
                  "internalType": "bool",
                  "name": "allowTerminalMigration",
                  "type": "bool"
                },
                {
                  "internalType": "bool",
                  "name": "allowControllerMigration",
                  "type": "bool"
                },
                {
                  "internalType": "bool",
                  "name": "holdFees",
                  "type": "bool"
                },
                {
                  "internalType": "bool",
                  "name": "preferClaimedTokenOverride",
                  "type": "bool"
                },
                {
                  "internalType": "bool",
                  "name": "useTotalOverflowForRedemptions",
                  "type": "bool"
                },
                {
                  "internalType": "bool",
                  "name": "useDataSourceForPay",
                  "type": "bool"
                },
                {
                  "internalType": "bool",
                  "name": "useDataSourceForRedeem",
                  "type": "bool"
                },
                {
                  "internalType": "address",
                  "name": "dataSource",
                  "type": "address"
                },
                {
                  "internalType": "uint256",
                  "name": "metadata",
                  "type": "uint256"
                }
              ],
              "internalType": "struct JBFundingCycleMetadata",
              "name": "metadata",
              "type": "tuple"
            },
            {
              "internalType": "uint256",
              "name": "mustStartAtOrAfter",
              "type": "uint256"
            },
            {
              "components": [
                {
                  "internalType": "uint256",
                  "name": "group",
                  "type": "uint256"
                },
                {
                  "components": [
                    {
                      "internalType": "bool",
                      "name": "preferClaimed",
                      "type": "bool"
                    },
                    {
                      "internalType": "bool",
                      "name": "preferAddToBalance",
                      "type": "bool"
                    },
                    {
                      "internalType": "uint256",
                      "name": "percent",
                      "type": "uint256"
                    },
                    {
                      "internalType": "uint256",
                      "name": "projectId",
                      "type": "uint256"
                    },
                    {
                      "internalType": "address payable",
                      "name": "beneficiary",
                      "type": "address"
                    },
                    {
                      "internalType": "uint256",
                      "name": "lockedUntil",
                      "type": "uint256"
                    },
                    {
                      "internalType": "contract IJBSplitAllocator",
                      "name": "allocator",
                      "type": "address"
                    }
                  ],
                  "internalType": "struct JBSplit[]",
                  "name": "splits",
                  "type": "tuple[]"
                }
              ],
              "internalType": "struct JBGroupedSplits[]",
              "name": "groupedSplits",
              "type": "tuple[]"
            },
            {
              "components": [
                {
                  "internalType": "contract IJBPaymentTerminal",
                  "name": "terminal",
                  "type": "address"
                },
                {
                  "internalType": "address",
                  "name": "token",
                  "type": "address"
                },
                {
                  "internalType": "uint256",
                  "name": "distributionLimit",
                  "type": "uint256"
                },
                {
                  "internalType": "uint256",
                  "name": "distributionLimitCurrency",
                  "type": "uint256"
                },
                {
                  "internalType": "uint256",
                  "name": "overflowAllowance",
                  "type": "uint256"
                },
                {
                  "internalType": "uint256",
                  "name": "overflowAllowanceCurrency",
                  "type": "uint256"
                }
              ],
              "internalType": "struct JBFundAccessConstraints[]",
              "name": "fundAccessConstraints",
              "type": "tuple[]"
            },
            {
              "internalType": "contract IJBPaymentTerminal[]",
              "name": "terminals",
              "type": "address[]"
            },
            {
              "internalType": "string",
              "name": "memo",
              "type": "string"
            }
          ],
          "internalType": "struct JBLaunchProjectData",
          "name": "_launchProjectData",
          "type": "tuple"
        }
      ],
      "name": "launchProjectFor",
      "outputs": [
        {
          "internalType": "uint256",
          "name": "projectId",
          "type": "uint256"
        }
      ],
      "stateMutability": "nonpayable",
      "type": "function"
    },
    {
      "inputs": [],
      "name": "operatorStore",
      "outputs": [
        {
          "internalType": "contract IJBOperatorStore",
          "name": "",
          "type": "address"
        }
      ],
      "stateMutability": "view",
      "type": "function"
    },
    {
      "inputs": [
        {
          "internalType": "uint256",
          "name": "_projectId",
          "type": "uint256"
        },
        {
          "components": [
            {
              "internalType": "contract IJBDirectory",
              "name": "directory",
              "type": "address"
            },
            {
              "internalType": "string",
              "name": "name",
              "type": "string"
            },
            {
              "internalType": "string",
              "name": "symbol",
              "type": "string"
            },
            {
              "internalType": "contract IJBFundingCycleStore",
              "name": "fundingCycleStore",
              "type": "address"
            },
            {
              "internalType": "string",
              "name": "baseUri",
              "type": "string"
            },
            {
              "internalType": "contract IJBTokenUriResolver",
              "name": "tokenUriResolver",
              "type": "address"
            },
            {
              "internalType": "string",
              "name": "contractUri",
              "type": "string"
            },
            {
              "internalType": "address",
              "name": "owner",
              "type": "address"
            },
            {
              "components": [
                {
                  "components": [
                    {
                      "internalType": "uint256",
                      "name": "contributionFloor",
                      "type": "uint256"
                    },
                    {
                      "internalType": "uint256",
                      "name": "lockedUntil",
                      "type": "uint256"
                    },
                    {
                      "internalType": "uint256",
                      "name": "initialQuantity",
                      "type": "uint256"
                    },
                    {
                      "internalType": "uint256",
                      "name": "votingUnits",
                      "type": "uint256"
                    },
                    {
                      "internalType": "uint256",
                      "name": "reservedRate",
                      "type": "uint256"
                    },
                    {
                      "internalType": "address",
                      "name": "reservedTokenBeneficiary",
                      "type": "address"
                    },
                    {
                      "internalType": "bytes32",
                      "name": "encodedIPFSUri",
                      "type": "bytes32"
                    },
                    {
                      "internalType": "bool",
                      "name": "allowManualMint",
                      "type": "bool"
                    },
                    {
                      "internalType": "bool",
                      "name": "shouldUseBeneficiaryAsDefault",
                      "type": "bool"
                    }
                  ],
                  "internalType": "struct JB721TierParams[]",
                  "name": "tiers",
                  "type": "tuple[]"
                },
                {
                  "internalType": "uint256",
                  "name": "currency",
                  "type": "uint256"
                },
                {
                  "internalType": "uint256",
                  "name": "decimals",
                  "type": "uint256"
                },
                {
                  "internalType": "contract IJBPrices",
                  "name": "prices",
                  "type": "address"
                }
              ],
              "internalType": "struct JB721PricingParams",
              "name": "pricing",
              "type": "tuple"
            },
            {
              "internalType": "address",
              "name": "reservedTokenBeneficiary",
              "type": "address"
            },
            {
              "internalType": "contract IJBTiered721DelegateStore",
              "name": "store",
              "type": "address"
            },
            {
              "components": [
                {
                  "internalType": "bool",
                  "name": "lockReservedTokenChanges",
                  "type": "bool"
                },
                {
                  "internalType": "bool",
                  "name": "lockVotingUnitChanges",
                  "type": "bool"
                },
                {
                  "internalType": "bool",
                  "name": "lockManualMintingChanges",
                  "type": "bool"
                },
                {
                  "internalType": "bool",
                  "name": "pausable",
                  "type": "bool"
                }
              ],
              "internalType": "struct JBTiered721Flags",
              "name": "flags",
              "type": "tuple"
            },
            {
              "internalType": "enum JB721GovernanceType",
              "name": "governanceType",
              "type": "uint8"
            }
          ],
          "internalType": "struct JBDeployTiered721DelegateData",
          "name": "_deployTiered721DelegateData",
          "type": "tuple"
        },
        {
          "components": [
            {
              "components": [
                {
                  "internalType": "uint256",
                  "name": "duration",
                  "type": "uint256"
                },
                {
                  "internalType": "uint256",
                  "name": "weight",
                  "type": "uint256"
                },
                {
                  "internalType": "uint256",
                  "name": "discountRate",
                  "type": "uint256"
                },
                {
                  "internalType": "contract IJBFundingCycleBallot",
                  "name": "ballot",
                  "type": "address"
                }
              ],
              "internalType": "struct JBFundingCycleData",
              "name": "data",
              "type": "tuple"
            },
            {
              "components": [
                {
                  "components": [
                    {
                      "internalType": "bool",
                      "name": "allowSetTerminals",
                      "type": "bool"
                    },
                    {
                      "internalType": "bool",
                      "name": "allowSetController",
                      "type": "bool"
                    },
                    {
                      "internalType": "bool",
                      "name": "pauseTransfers",
                      "type": "bool"
                    }
                  ],
                  "internalType": "struct JBGlobalFundingCycleMetadata",
                  "name": "global",
                  "type": "tuple"
                },
                {
                  "internalType": "uint256",
                  "name": "reservedRate",
                  "type": "uint256"
                },
                {
                  "internalType": "uint256",
                  "name": "redemptionRate",
                  "type": "uint256"
                },
                {
                  "internalType": "uint256",
                  "name": "ballotRedemptionRate",
                  "type": "uint256"
                },
                {
                  "internalType": "bool",
                  "name": "pausePay",
                  "type": "bool"
                },
                {
                  "internalType": "bool",
                  "name": "pauseDistributions",
                  "type": "bool"
                },
                {
                  "internalType": "bool",
                  "name": "pauseRedeem",
                  "type": "bool"
                },
                {
                  "internalType": "bool",
                  "name": "pauseBurn",
                  "type": "bool"
                },
                {
                  "internalType": "bool",
                  "name": "allowMinting",
                  "type": "bool"
                },
                {
                  "internalType": "bool",
                  "name": "allowTerminalMigration",
                  "type": "bool"
                },
                {
                  "internalType": "bool",
                  "name": "allowControllerMigration",
                  "type": "bool"
                },
                {
                  "internalType": "bool",
                  "name": "holdFees",
                  "type": "bool"
                },
                {
                  "internalType": "bool",
                  "name": "preferClaimedTokenOverride",
                  "type": "bool"
                },
                {
                  "internalType": "bool",
                  "name": "useTotalOverflowForRedemptions",
                  "type": "bool"
                },
                {
                  "internalType": "bool",
                  "name": "useDataSourceForPay",
                  "type": "bool"
                },
                {
                  "internalType": "bool",
                  "name": "useDataSourceForRedeem",
                  "type": "bool"
                },
                {
                  "internalType": "address",
                  "name": "dataSource",
                  "type": "address"
                },
                {
                  "internalType": "uint256",
                  "name": "metadata",
                  "type": "uint256"
                }
              ],
              "internalType": "struct JBFundingCycleMetadata",
              "name": "metadata",
              "type": "tuple"
            },
            {
              "internalType": "uint256",
              "name": "mustStartAtOrAfter",
              "type": "uint256"
            },
            {
              "components": [
                {
                  "internalType": "uint256",
                  "name": "group",
                  "type": "uint256"
                },
                {
                  "components": [
                    {
                      "internalType": "bool",
                      "name": "preferClaimed",
                      "type": "bool"
                    },
                    {
                      "internalType": "bool",
                      "name": "preferAddToBalance",
                      "type": "bool"
                    },
                    {
                      "internalType": "uint256",
                      "name": "percent",
                      "type": "uint256"
                    },
                    {
                      "internalType": "uint256",
                      "name": "projectId",
                      "type": "uint256"
                    },
                    {
                      "internalType": "address payable",
                      "name": "beneficiary",
                      "type": "address"
                    },
                    {
                      "internalType": "uint256",
                      "name": "lockedUntil",
                      "type": "uint256"
                    },
                    {
                      "internalType": "contract IJBSplitAllocator",
                      "name": "allocator",
                      "type": "address"
                    }
                  ],
                  "internalType": "struct JBSplit[]",
                  "name": "splits",
                  "type": "tuple[]"
                }
              ],
              "internalType": "struct JBGroupedSplits[]",
              "name": "groupedSplits",
              "type": "tuple[]"
            },
            {
              "components": [
                {
                  "internalType": "contract IJBPaymentTerminal",
                  "name": "terminal",
                  "type": "address"
                },
                {
                  "internalType": "address",
                  "name": "token",
                  "type": "address"
                },
                {
                  "internalType": "uint256",
                  "name": "distributionLimit",
                  "type": "uint256"
                },
                {
                  "internalType": "uint256",
                  "name": "distributionLimitCurrency",
                  "type": "uint256"
                },
                {
                  "internalType": "uint256",
                  "name": "overflowAllowance",
                  "type": "uint256"
                },
                {
                  "internalType": "uint256",
                  "name": "overflowAllowanceCurrency",
                  "type": "uint256"
                }
              ],
              "internalType": "struct JBFundAccessConstraints[]",
              "name": "fundAccessConstraints",
              "type": "tuple[]"
            },
            {
              "internalType": "string",
              "name": "memo",
              "type": "string"
            }
          ],
          "internalType": "struct JBReconfigureFundingCyclesData",
          "name": "_reconfigureFundingCyclesData",
          "type": "tuple"
        }
      ],
      "name": "reconfigureFundingCyclesOf",
      "outputs": [
        {
          "internalType": "uint256",
          "name": "configuration",
          "type": "uint256"
        }
      ],
      "stateMutability": "nonpayable",
      "type": "function"
    }
  ],
  "bytecode": {
    "object": "0x60e0346100e657601f611dec38819003918201601f19168301916001600160401b038311848410176100eb578084926060946040528339810103126100e65780516001600160a01b0380821682036100e65760208301519281841684036100e6576040015190811681036100e65760805260a05260c052604051611cea9081610102823960805181818161047401528181611bc20152611c5c015260a05181818161015d015281816103290152818161042f01528181610696015281816108a10152610af7015260c051818181610208015281816104b9015281816107370152610b840152f35b600080fd5b634e487b7160e01b600052604160045260246000fdfe6080604052600436101561001257600080fd5b60003560e01c806367f0b553146109b65780636ae57b4d146104e85780638f3d964b146104a3578063ad007d631461045e578063f77c4791146104195763f7e0cb1e1461005e57600080fd5b34610397576060366003190112610397576001600160401b036024358181116103975761008f903690600401610e12565b6044359180831161039757610380600319843603011261039757604051926100b684610d2d565b6100c33682600401611179565b84526100d236608483016111d5565b60208501526103048101356040850152610324810135828111610397576100ff9060043691840101611365565b6060850152610344810135828111610397576101219060043691840101611507565b60808501526103648101359182116103975760046101429236920101610d84565b60a08301526040516322de550f60e21b8152906020826004817f00000000000000000000000000000000000000000000000000000000000000006001600160a01b03165afa9182156103a4576024926020916000916103fc575b506040516331a9108f60e11b8152600480359082015293849182906001600160a01b03165afa9081156103a4576101e5602092610202946000916103df575b5060043590611b58565b6040518093819263029b842960e61b835260043560048401611685565b038160007f00000000000000000000000000000000000000000000000000000000000000006001600160a01b03165af19081156103a4576000916103b0575b5060018060a01b03166102006020830151015260016101c06020830151015260206102d9825161032383850151946103106040820151916102fd606082015160a06080840151930151946102e36040519b8c9a8b9a63175b7be560e31b8c5260043560048d015260248c01906060908051835260208101516020840152604081015160408401528160018060a01b0391015116910152565b60a48a019061189c565b6103248801526103a06103448801526103a487019061199e565b8581036003190161036487015290611a8f565b8381036003190161038485015290611645565b038160007f00000000000000000000000000000000000000000000000000000000000000006001600160a01b03165af180156103a45760009061036c575b602090604051908152f35b506020813d60201161039c575b8161038660209383610d63565b810103126103975760209051610361565b600080fd5b3d9150610379565b6040513d6000823e3d90fd5b6103d2915060203d6020116103d8575b6103ca8183610d63565b810190611626565b38610241565b503d6103c0565b6103f69150843d86116103d8576103ca8183610d63565b386101db565b6104139150823d84116103d8576103ca8183610d63565b3861019c565b34610397576000366003190112610397576040517f00000000000000000000000000000000000000000000000000000000000000006001600160a01b03168152602090f35b34610397576000366003190112610397576040517f00000000000000000000000000000000000000000000000000000000000000006001600160a01b03168152602090f35b34610397576000366003190112610397576040517f00000000000000000000000000000000000000000000000000000000000000006001600160a01b03168152602090f35b34610397576060366003190112610397576004356001600160a01b0381168103610397576001600160401b036024358181116103975761052c903690600401610e12565b918160443511610397576103c06044353603600319011261039757604051916101008301838110828211176109a05780604052604435600401358281116103975760443501604060031982360301126103975761058882610d12565b600481013590838211610397576105a760249260043691840101610d84565b8352013561012085015283526105c236602460443501611179565b60208401526105d63660a4604435016111d5565b6040840152604435610324810135606085015261034401358181116103975761060790600436916044350101611365565b608084015261036460443501358181116103975761062d90600436916044350101611507565b60a0840152610384604435013581811161039757610653906004369160443501016115c0565b60c08401526103a46044350135116103975761067b366044356103a481013501600401610d84565b60e08301526040516322de550f60e21b8152926020846004817f00000000000000000000000000000000000000000000000000000000000000006001600160a01b03165afa9384156103a457600494602091600091610983575b506040516306661abd60e01b815295869182906001600160a01b03165afa9384156103a45760009461094f575b50600184018411610939576020610731916040518093819263029b842960e61b83526001890160048401611685565b038160007f00000000000000000000000000000000000000000000000000000000000000006001600160a01b03165af19081156103a45760009161091a575b50604083810180516001600160a01b0393841661020090910152805160016101c0909101528451602086015191516060870151608088015160a089015160c08a015160e0909a0151875163b3c5267360e01b81529990981660048a01526103e060248a015284516103e48a0197909752979889989096909591949391906107fc906104248b0190611645565b6020948501516104048b0152815160448b01529381015160648a0152604081015160848a0152606001516001600160a01b031660a489015260c488016108419161189c565b6103448701528581036003190161036487015261085d9161199e565b8481036003190161038486015261087391611a8f565b838103600319016103a485015261088991611b03565b828103600319016103c484015261089f91611645565b7f00000000000000000000000000000000000000000000000000000000000000006001600160a01b031691839103815a602094600091f180156103a4576108ef575b602082600160405191018152f35b602090813d8311610913575b6109058183610d63565b8101031261039757816108e1565b503d6108fb565b610933915060203d6020116103d8576103ca8183610d63565b84610770565b634e487b7160e01b600052601160045260246000fd5b9093506020813d60201161097b575b8161096b60209383610d63565b8101031261039757519284610702565b3d915061095e565b61099a9150823d84116103d8576103ca8183610d63565b866106d5565b634e487b7160e01b600052604160045260246000fd5b34610397576060366003190112610397576001600160401b03602435818111610397576109e7903690600401610e12565b8160443511610397576103a060443536036003190112610397576040519160e08301838110828211176109a057604052610a2636604435600401611179565b8352610a37366084604435016111d5565b60208401526044356103048101356040850152610324013581811161039757610a6890600436916044350101611365565b6060840152610344604435013581811161039757610a8e90600436916044350101611507565b6080840152610364604435013581811161039757610ab4906004369160443501016115c0565b60a084015261038460443501351161039757610adc3660443561038481013501600401610d84565b60c08301526040516322de550f60e21b8152906020826004817f00000000000000000000000000000000000000000000000000000000000000006001600160a01b03165afa9182156103a457602492602091600091610cf5575b506040516331a9108f60e11b8152600480359082015293849182906001600160a01b03165afa9081156103a4576101e5602092610b7e94600091610cd8575060043590611b58565b038160007f00000000000000000000000000000000000000000000000000000000000000006001600160a01b03165af19182156103a457610c5e92602092600091610cbb575b5060018060a01b031661020083830151015260016101c08383015101526024610323825192610ca88582015191610c956040820151610c826060840151608085015192610c6860c060a0880151970151986040519e8f9d8e9d8e63111d861b60e01b8152600435600482015201906060908051835260208101516020840152604081015160408401528160018060a01b0391015116910152565b60a48c019061189c565b6103248a01526103c06103448a01526103c489019061199e565b8781036003190161036489015290611a8f565b8581036003190161038487015290611b03565b838103600319016103a485015290611645565b610cd29150833d85116103d8576103ca8183610d63565b84610bc4565b610cef9150843d86116103d8576103ca8183610d63565b866101db565b610d0c9150823d84116103d8576103ca8183610d63565b85610b36565b604081019081106001600160401b038211176109a057604052565b60c081019081106001600160401b038211176109a057604052565b608081019081106001600160401b038211176109a057604052565b90601f801991011681019081106001600160401b038211176109a057604052565b81601f82011215610397578035906001600160401b0382116109a05760405192610db8601f8401601f191660200185610d63565b8284526020838301011161039757816000926020809301838601378301015290565b35906001600160a01b038216820361039757565b6001600160401b0381116109a05760051b60200190565b3590811515820361039757565b9190916102008184031261039757604051906101a082018281106001600160401b038211176109a057604052909283919081356001600160a01b038116810361039757835260208201356001600160401b0381116103975781610e76918401610d84565b602084015260408201356001600160401b0381116103975781610e9a918401610d84565b604084015260608201356001600160a01b038116810361039757606084015260808201356001600160401b0381116103975781610ed8918401610d84565b608084015260a08201356001600160a01b03811681036103975760a084015260c08201356001600160401b0381116103975781610f16918401610d84565b60c0840152610f2760e08301610dda565b60e08401526101008201356001600160401b0381116103975760808184018303126103975760405190610f5982610d48565b808401356001600160401b0381116103975783601f82848801010112156103975780828601013590610f8a82610dee565b91610f986040519384610d63565b8083526020830191866020610120840283888c01010101116103975791602083868a010101925b6020610120840282888c0101010184106110b9575050509083525083016020818101359083015260408082013590830152606001356001600160a01b038116810361039757606082015261010084015261101c6101208301610dda565b61012084015261014090828201356001600160a01b0381168103610397576080928501528261015f1991030112610397576101e06040519161105d83610d48565b6101609261106c848301610e05565b81526101809361107d858401610e05565b602083015261108f6101a08401610e05565b60408301526110a16101c08401610e05565b60608301528501520135916003831015610397570152565b6101208489031261039757604051916101208301928084106001600160401b03851117611164576020610120928392829660405288358152828901358382015260408901356040820152606089013560608201526080890135608082015261112360a08a01610dda565b60a082015260c089013560c082015261113e60e08a01610e05565b60e08201526111506101008a01610e05565b610100820152815201950194925050610fbf565b60246000634e487b7160e01b81526041600452fd5b919082608091031261039757604051608081018181106001600160401b038211176109a0576040908152833582526020808501359083015283810135908201529160600135826001600160a01b03821682036103975760600152565b8092910391610280908184126103975760405191610240918284016001600160401b03858210818311176109a0576060869812610397576102a08601908111828210176109a05760405261122882610e05565b815261123660208301610e05565b92610260938487015261124b60408401610e05565b908601528452606081013560208501526080810135604085015260a0810135606085015261127b60c08201610e05565b608085015261128c60e08201610e05565b60a085015261010061129f818301610e05565b60c086015261135a610120946112b6868501610e05565b60e0880152610140926112ca848601610e05565b90880152610160956112dd878601610e05565b90880152610180926112f0848601610e05565b908801526101a095611303878601610e05565b908801526101c092611316848601610e05565b908801526101e095611329878601610e05565b908801526102009261133c848601610e05565b908801526102209561134f878601610e05565b908801528301610dda565b908501520135910152565b9080601f8301121561039757813561137c81610dee565b9260409161138c83519586610d63565b808552602092838087019260051b8401019285841161039757848101925b8484106113bb575050505050505090565b6001600160401b0384358181116103975783019084601f19838b030112610397578451916113e883610d12565b8881013583528581013590828211610397570189603f8201121561039757888101359061141482610dee565b9261142188519485610d63565b8284528a8401908860e0809502840101928d841161039757918d979593918a8e98969401915b838310611465575050505050838095508201528152019301926113aa565b918496985080949193959799031261039757895185810181811084821117611164578b5261149284610e05565b81528d6114a0818601610e05565b90820152838b01358b820152606080850135908201526001600160a01b03916080808601359084821682036103975783015260a0808601359083015260c091828601359384168403610397578f9293889482015281520192018d979593918d979593611447565b81601f820112156103975780359061151e82610dee565b9260409061152e82519586610d63565b838552602091828601918360c080970286010194818611610397578401925b85841061155e575050505050505090565b868483031261039757848791845161157581610d2d565b61157e87610dda565b815261158b838801610dda565b838201528587013586820152606080880135908201526080808801359082015260a0808801359082015281520193019261154d565b81601f82011215610397578035916115d783610dee565b926115e56040519485610d63565b808452602092838086019260051b820101928311610397578301905b82821061160f575050505090565b83809161161b84610dda565b815201910190611601565b9081602091031261039757516001600160a01b03811681036103975790565b919082519283825260005b848110611671575050826000602080949584010152601f8019910116010190565b602081830181015184830182015201611650565b9081526040602082015260018060a01b03825116604082015261172b6117016116d86116c260208601516102006060870152610240860190611645565b6040860151858203603f19016080870152611645565b60608501516001600160a01b031660a08501526080850151848203603f190160c0860152611645565b60a08401516001600160a01b031660e084015260c0840151838203603f1901610100850152611645565b60e08301516001600160a01b0316610120830152610100830151828203603f190161014084015280516080808452815190840181905260a08401959392916020019060005b8181106118245750505060208082015183820152604080830151818501526060928301516001600160a01b03908116948401949094526101208501518416610160878101919091526101408601519094166101808088019190915293850151805115156101a08801529182015115156101c087015281015115156101e086015201511515610200840152015190600382101561180e57610220015290565b634e487b7160e01b600052602160045260246000fd5b90919660206101206001926101008b51805183528481015185840152604081015160408401526060810151606084015260808101516080840152858060a01b0360a08201511660a084015260c081015160c084015260e0810151151560e0840152015115156101008201520198019101919091611770565b61026090604081518051151585526020810151151560208601520151151560408401526020810151606084015260408101516080840152606081015160a08401526080810151151560c084015260a0810151151560e084015260c0810151151590610100918285015260e081015115159161012092838601528101511515916101409283860152810151151591610160928386015281015115159161018092838601528101511515916101a092838601528101511515916101c092838601528101511515916101e092838601528101511515916102009283860152810151151591610220928386015260018060a01b0390820151166102408501520151910152565b908082519081815260208091019281808460051b830101950193600080925b8584106119ce575050505050505090565b9091929380959697601f1983820301855288519060408381830193805184520151928185840152835180915284606080940194019287925b828410611a2857505050505090806001929901940194019295949391906119bd565b845180511515875287810151151588880152818101518288015282810151838801526080808201516001600160a01b039081169189019190915260a0808301519089015260c09182015116908701528b9660e0909601959094019360019390930192611a06565b90815180825260208080930193019160005b828110611aaf575050505090565b835180516001600160a01b03908116875281840151168684015260408082015190870152606080820151908701526080808201519087015260a0908101519086015260c09094019392810192600101611aa1565b90815180825260208080930193019160005b828110611b23575050505090565b83516001600160a01b031685529381019392810192600101611b15565b90816020910312610397575180151581036103975790565b6001600160a01b03908116338114159283611c2a575b5082611b8f575b5050611b7d57565b60405163075fd2b160e01b8152600490fd5b602091925060846040518094819363c161c93f60e01b8352336004840152602483015260006044830152600160648301527f0000000000000000000000000000000000000000000000000000000000000000165afa9081156103a457600091611bfc575b50153880611b75565b611c1d915060203d8111611c23575b611c158183610d63565b810190611b40565b38611bf3565b503d611c0b565b9092506040519063c161c93f60e01b8252336004830152836024830152604482015260016064820152602081608481857f0000000000000000000000000000000000000000000000000000000000000000165afa9081156103a457600091611c96575b50159138611b6e565b611cae915060203d8111611c2357611c158183610d63565b38611c8d56fea264697066735822122070521751a9cb8340304aec9bbe537805b105b228d89818261c5c6b2d6a4a2a3d64736f6c63430008100033",
    "linkReferences": {}
  },
  "methodIdentifiers": {
    "controller()": "f77c4791",
    "delegateDeployer()": "8f3d964b",
    "launchFundingCyclesFor(uint256,(address,string,string,address,string,address,string,address,((uint256,uint256,uint256,uint256,uint256,address,bytes32,bool,bool)[],uint256,uint256,address),address,address,(bool,bool,bool,bool),uint8),((uint256,uint256,uint256,address),((bool,bool,bool),uint256,uint256,uint256,bool,bool,bool,bool,bool,bool,bool,bool,bool,bool,bool,bool,address,uint256),uint256,(uint256,(bool,bool,uint256,uint256,address,uint256,address)[])[],(address,address,uint256,uint256,uint256,uint256)[],address[],string))": "67f0b553",
    "launchProjectFor(address,(address,string,string,address,string,address,string,address,((uint256,uint256,uint256,uint256,uint256,address,bytes32,bool,bool)[],uint256,uint256,address),address,address,(bool,bool,bool,bool),uint8),((string,uint256),(uint256,uint256,uint256,address),((bool,bool,bool),uint256,uint256,uint256,bool,bool,bool,bool,bool,bool,bool,bool,bool,bool,bool,bool,address,uint256),uint256,(uint256,(bool,bool,uint256,uint256,address,uint256,address)[])[],(address,address,uint256,uint256,uint256,uint256)[],address[],string))": "6ae57b4d",
    "operatorStore()": "ad007d63",
    "reconfigureFundingCyclesOf(uint256,(address,string,string,address,string,address,string,address,((uint256,uint256,uint256,uint256,uint256,address,bytes32,bool,bool)[],uint256,uint256,address),address,address,(bool,bool,bool,bool),uint8),((uint256,uint256,uint256,address),((bool,bool,bool),uint256,uint256,uint256,bool,bool,bool,bool,bool,bool,bool,bool,bool,bool,bool,bool,address,uint256),uint256,(uint256,(bool,bool,uint256,uint256,address,uint256,address)[])[],(address,address,uint256,uint256,uint256,uint256)[],string))": "f7e0cb1e"
  },
  "id": 4
}