{
  "abi": [
    {
      "inputs": [
        {
          "internalType": "contract IJBDirectory",
          "name": "_directory",
          "type": "address"
        },
        {
          "internalType": "contract IJBTiered721DelegateDeployer",
          "name": "_delegateDeployer",
          "type": "address"
        },
        {
          "internalType": "contract IJBOperatorStore",
          "name": "_operatorStore",
          "type": "address"
        }
      ],
      "stateMutability": "nonpayable",
      "type": "constructor"
    },
    {
      "inputs": [],
      "name": "UNAUTHORIZED",
      "type": "error"
    },
    {
      "inputs": [],
      "name": "delegateDeployer",
      "outputs": [
        {
          "internalType": "contract IJBTiered721DelegateDeployer",
          "name": "",
          "type": "address"
        }
      ],
      "stateMutability": "view",
      "type": "function"
    },
    {
      "inputs": [],
      "name": "directory",
      "outputs": [
        {
          "internalType": "contract IJBDirectory",
          "name": "",
          "type": "address"
        }
      ],
      "stateMutability": "view",
      "type": "function"
    },
    {
      "inputs": [
        {
          "internalType": "uint256",
          "name": "_projectId",
          "type": "uint256"
        },
        {
          "components": [
            {
              "internalType": "string",
              "name": "name",
              "type": "string"
            },
            {
              "internalType": "string",
              "name": "symbol",
              "type": "string"
            },
            {
              "internalType": "contract IJBFundingCycleStore",
              "name": "fundingCycleStore",
              "type": "address"
            },
            {
              "internalType": "string",
              "name": "baseUri",
              "type": "string"
            },
            {
              "internalType": "contract IJBTokenUriResolver",
              "name": "tokenUriResolver",
              "type": "address"
            },
            {
              "internalType": "string",
              "name": "contractUri",
              "type": "string"
            },
            {
              "internalType": "address",
              "name": "owner",
              "type": "address"
            },
            {
              "components": [
                {
                  "components": [
                    {
                      "internalType": "uint88",
                      "name": "price",
                      "type": "uint88"
                    },
                    {
                      "internalType": "uint40",
                      "name": "initialQuantity",
                      "type": "uint40"
                    },
                    {
                      "internalType": "uint40",
                      "name": "votingUnits",
                      "type": "uint40"
                    },
                    {
                      "internalType": "uint16",
                      "name": "reservedRate",
                      "type": "uint16"
                    },
                    {
                      "internalType": "address",
                      "name": "reservedTokenBeneficiary",
                      "type": "address"
                    },
                    {
                      "internalType": "uint8",
                      "name": "royaltyRate",
                      "type": "uint8"
                    },
                    {
                      "internalType": "address",
                      "name": "royaltyBeneficiary",
                      "type": "address"
                    },
                    {
                      "internalType": "bytes32",
                      "name": "encodedIPFSUri",
                      "type": "bytes32"
                    },
                    {
                      "internalType": "uint16",
                      "name": "category",
                      "type": "uint16"
                    },
                    {
                      "internalType": "bool",
                      "name": "allowManualMint",
                      "type": "bool"
                    },
                    {
                      "internalType": "bool",
                      "name": "shouldUseReservedTokenBeneficiaryAsDefault",
                      "type": "bool"
                    },
                    {
                      "internalType": "bool",
                      "name": "shouldUseRoyaltyBeneficiaryAsDefault",
                      "type": "bool"
                    },
                    {
                      "internalType": "bool",
                      "name": "transfersPausable",
                      "type": "bool"
                    },
                    {
                      "internalType": "bool",
                      "name": "useVotingUnits",
                      "type": "bool"
                    }
                  ],
                  "internalType": "struct JB721TierParams[]",
                  "name": "tiers",
                  "type": "tuple[]"
                },
                {
                  "internalType": "uint256",
                  "name": "currency",
                  "type": "uint256"
                },
                {
                  "internalType": "uint256",
                  "name": "decimals",
                  "type": "uint256"
                },
                {
                  "internalType": "contract IJBPrices",
                  "name": "prices",
                  "type": "address"
                }
              ],
              "internalType": "struct JB721PricingParams",
              "name": "pricing",
              "type": "tuple"
            },
            {
              "internalType": "address",
              "name": "reservedTokenBeneficiary",
              "type": "address"
            },
            {
              "internalType": "contract IJBTiered721DelegateStore",
              "name": "store",
              "type": "address"
            },
            {
              "components": [
                {
                  "internalType": "bool",
                  "name": "lockReservedTokenChanges",
                  "type": "bool"
                },
                {
                  "internalType": "bool",
                  "name": "lockVotingUnitChanges",
                  "type": "bool"
                },
                {
                  "internalType": "bool",
                  "name": "lockManualMintingChanges",
                  "type": "bool"
                },
                {
                  "internalType": "bool",
                  "name": "preventOverspending",
                  "type": "bool"
                }
              ],
              "internalType": "struct JBTiered721Flags",
              "name": "flags",
              "type": "tuple"
            },
            {
              "internalType": "enum JB721GovernanceType",
              "name": "governanceType",
              "type": "uint8"
            }
          ],
          "internalType": "struct JBDeployTiered721DelegateData",
          "name": "_deployTiered721DelegateData",
          "type": "tuple"
        },
        {
          "components": [
            {
              "components": [
                {
                  "internalType": "uint256",
                  "name": "duration",
                  "type": "uint256"
                },
                {
                  "internalType": "uint256",
                  "name": "weight",
                  "type": "uint256"
                },
                {
                  "internalType": "uint256",
                  "name": "discountRate",
                  "type": "uint256"
                },
                {
                  "internalType": "contract IJBFundingCycleBallot",
                  "name": "ballot",
                  "type": "address"
                }
              ],
              "internalType": "struct JBFundingCycleData",
              "name": "data",
              "type": "tuple"
            },
            {
              "components": [
                {
                  "components": [
                    {
                      "internalType": "bool",
                      "name": "allowSetTerminals",
                      "type": "bool"
                    },
                    {
                      "internalType": "bool",
                      "name": "allowSetController",
                      "type": "bool"
                    },
                    {
                      "internalType": "bool",
                      "name": "pauseTransfers",
                      "type": "bool"
                    }
                  ],
                  "internalType": "struct JBGlobalFundingCycleMetadata",
                  "name": "global",
                  "type": "tuple"
                },
                {
                  "internalType": "uint256",
                  "name": "reservedRate",
                  "type": "uint256"
                },
                {
                  "internalType": "uint256",
                  "name": "redemptionRate",
                  "type": "uint256"
                },
                {
                  "internalType": "uint256",
                  "name": "ballotRedemptionRate",
                  "type": "uint256"
                },
                {
                  "internalType": "bool",
                  "name": "pausePay",
                  "type": "bool"
                },
                {
                  "internalType": "bool",
                  "name": "pauseDistributions",
                  "type": "bool"
                },
                {
                  "internalType": "bool",
                  "name": "pauseRedeem",
                  "type": "bool"
                },
                {
                  "internalType": "bool",
                  "name": "pauseBurn",
                  "type": "bool"
                },
                {
                  "internalType": "bool",
                  "name": "allowMinting",
                  "type": "bool"
                },
                {
                  "internalType": "bool",
                  "name": "allowTerminalMigration",
                  "type": "bool"
                },
                {
                  "internalType": "bool",
                  "name": "allowControllerMigration",
                  "type": "bool"
                },
                {
                  "internalType": "bool",
                  "name": "holdFees",
                  "type": "bool"
                },
                {
                  "internalType": "bool",
                  "name": "preferClaimedTokenOverride",
                  "type": "bool"
                },
                {
                  "internalType": "bool",
                  "name": "useTotalOverflowForRedemptions",
                  "type": "bool"
                },
                {
                  "internalType": "bool",
                  "name": "useDataSourceForRedeem",
                  "type": "bool"
                },
                {
                  "internalType": "uint256",
                  "name": "metadata",
                  "type": "uint256"
                }
              ],
              "internalType": "struct JBPayDataSourceFundingCycleMetadata",
              "name": "metadata",
              "type": "tuple"
            },
            {
              "internalType": "uint256",
              "name": "mustStartAtOrAfter",
              "type": "uint256"
            },
            {
              "components": [
                {
                  "internalType": "uint256",
                  "name": "group",
                  "type": "uint256"
                },
                {
                  "components": [
                    {
                      "internalType": "bool",
                      "name": "preferClaimed",
                      "type": "bool"
                    },
                    {
                      "internalType": "bool",
                      "name": "preferAddToBalance",
                      "type": "bool"
                    },
                    {
                      "internalType": "uint256",
                      "name": "percent",
                      "type": "uint256"
                    },
                    {
                      "internalType": "uint256",
                      "name": "projectId",
                      "type": "uint256"
                    },
                    {
                      "internalType": "address payable",
                      "name": "beneficiary",
                      "type": "address"
                    },
                    {
                      "internalType": "uint256",
                      "name": "lockedUntil",
                      "type": "uint256"
                    },
                    {
                      "internalType": "contract IJBSplitAllocator",
                      "name": "allocator",
                      "type": "address"
                    }
                  ],
                  "internalType": "struct JBSplit[]",
                  "name": "splits",
                  "type": "tuple[]"
                }
              ],
              "internalType": "struct JBGroupedSplits[]",
              "name": "groupedSplits",
              "type": "tuple[]"
            },
            {
              "components": [
                {
                  "internalType": "contract IJBPaymentTerminal",
                  "name": "terminal",
                  "type": "address"
                },
                {
                  "internalType": "address",
                  "name": "token",
                  "type": "address"
                },
                {
                  "internalType": "uint256",
                  "name": "distributionLimit",
                  "type": "uint256"
                },
                {
                  "internalType": "uint256",
                  "name": "distributionLimitCurrency",
                  "type": "uint256"
                },
                {
                  "internalType": "uint256",
                  "name": "overflowAllowance",
                  "type": "uint256"
                },
                {
                  "internalType": "uint256",
                  "name": "overflowAllowanceCurrency",
                  "type": "uint256"
                }
              ],
              "internalType": "struct JBFundAccessConstraints[]",
              "name": "fundAccessConstraints",
              "type": "tuple[]"
            },
            {
              "internalType": "contract IJBPaymentTerminal[]",
              "name": "terminals",
              "type": "address[]"
            },
            {
              "internalType": "string",
              "name": "memo",
              "type": "string"
            }
          ],
          "internalType": "struct JBLaunchFundingCyclesData",
          "name": "_launchFundingCyclesData",
          "type": "tuple"
        },
        {
          "internalType": "contract IJBController3_1",
          "name": "_controller",
          "type": "address"
        }
      ],
      "name": "launchFundingCyclesFor",
      "outputs": [
        {
          "internalType": "uint256",
          "name": "configuration",
          "type": "uint256"
        }
      ],
      "stateMutability": "nonpayable",
      "type": "function"
    },
    {
      "inputs": [
        {
          "internalType": "address",
          "name": "_owner",
          "type": "address"
        },
        {
          "components": [
            {
              "internalType": "string",
              "name": "name",
              "type": "string"
            },
            {
              "internalType": "string",
              "name": "symbol",
              "type": "string"
            },
            {
              "internalType": "contract IJBFundingCycleStore",
              "name": "fundingCycleStore",
              "type": "address"
            },
            {
              "internalType": "string",
              "name": "baseUri",
              "type": "string"
            },
            {
              "internalType": "contract IJBTokenUriResolver",
              "name": "tokenUriResolver",
              "type": "address"
            },
            {
              "internalType": "string",
              "name": "contractUri",
              "type": "string"
            },
            {
              "internalType": "address",
              "name": "owner",
              "type": "address"
            },
            {
              "components": [
                {
                  "components": [
                    {
                      "internalType": "uint88",
                      "name": "price",
                      "type": "uint88"
                    },
                    {
                      "internalType": "uint40",
                      "name": "initialQuantity",
                      "type": "uint40"
                    },
                    {
                      "internalType": "uint40",
                      "name": "votingUnits",
                      "type": "uint40"
                    },
                    {
                      "internalType": "uint16",
                      "name": "reservedRate",
                      "type": "uint16"
                    },
                    {
                      "internalType": "address",
                      "name": "reservedTokenBeneficiary",
                      "type": "address"
                    },
                    {
                      "internalType": "uint8",
                      "name": "royaltyRate",
                      "type": "uint8"
                    },
                    {
                      "internalType": "address",
                      "name": "royaltyBeneficiary",
                      "type": "address"
                    },
                    {
                      "internalType": "bytes32",
                      "name": "encodedIPFSUri",
                      "type": "bytes32"
                    },
                    {
                      "internalType": "uint16",
                      "name": "category",
                      "type": "uint16"
                    },
                    {
                      "internalType": "bool",
                      "name": "allowManualMint",
                      "type": "bool"
                    },
                    {
                      "internalType": "bool",
                      "name": "shouldUseReservedTokenBeneficiaryAsDefault",
                      "type": "bool"
                    },
                    {
                      "internalType": "bool",
                      "name": "shouldUseRoyaltyBeneficiaryAsDefault",
                      "type": "bool"
                    },
                    {
                      "internalType": "bool",
                      "name": "transfersPausable",
                      "type": "bool"
                    },
                    {
                      "internalType": "bool",
                      "name": "useVotingUnits",
                      "type": "bool"
                    }
                  ],
                  "internalType": "struct JB721TierParams[]",
                  "name": "tiers",
                  "type": "tuple[]"
                },
                {
                  "internalType": "uint256",
                  "name": "currency",
                  "type": "uint256"
                },
                {
                  "internalType": "uint256",
                  "name": "decimals",
                  "type": "uint256"
                },
                {
                  "internalType": "contract IJBPrices",
                  "name": "prices",
                  "type": "address"
                }
              ],
              "internalType": "struct JB721PricingParams",
              "name": "pricing",
              "type": "tuple"
            },
            {
              "internalType": "address",
              "name": "reservedTokenBeneficiary",
              "type": "address"
            },
            {
              "internalType": "contract IJBTiered721DelegateStore",
              "name": "store",
              "type": "address"
            },
            {
              "components": [
                {
                  "internalType": "bool",
                  "name": "lockReservedTokenChanges",
                  "type": "bool"
                },
                {
                  "internalType": "bool",
                  "name": "lockVotingUnitChanges",
                  "type": "bool"
                },
                {
                  "internalType": "bool",
                  "name": "lockManualMintingChanges",
                  "type": "bool"
                },
                {
                  "internalType": "bool",
                  "name": "preventOverspending",
                  "type": "bool"
                }
              ],
              "internalType": "struct JBTiered721Flags",
              "name": "flags",
              "type": "tuple"
            },
            {
              "internalType": "enum JB721GovernanceType",
              "name": "governanceType",
              "type": "uint8"
            }
          ],
          "internalType": "struct JBDeployTiered721DelegateData",
          "name": "_deployTiered721DelegateData",
          "type": "tuple"
        },
        {
          "components": [
            {
              "components": [
                {
                  "internalType": "string",
                  "name": "content",
                  "type": "string"
                },
                {
                  "internalType": "uint256",
                  "name": "domain",
                  "type": "uint256"
                }
              ],
              "internalType": "struct JBProjectMetadata",
              "name": "projectMetadata",
              "type": "tuple"
            },
            {
              "components": [
                {
                  "internalType": "uint256",
                  "name": "duration",
                  "type": "uint256"
                },
                {
                  "internalType": "uint256",
                  "name": "weight",
                  "type": "uint256"
                },
                {
                  "internalType": "uint256",
                  "name": "discountRate",
                  "type": "uint256"
                },
                {
                  "internalType": "contract IJBFundingCycleBallot",
                  "name": "ballot",
                  "type": "address"
                }
              ],
              "internalType": "struct JBFundingCycleData",
              "name": "data",
              "type": "tuple"
            },
            {
              "components": [
                {
                  "components": [
                    {
                      "internalType": "bool",
                      "name": "allowSetTerminals",
                      "type": "bool"
                    },
                    {
                      "internalType": "bool",
                      "name": "allowSetController",
                      "type": "bool"
                    },
                    {
                      "internalType": "bool",
                      "name": "pauseTransfers",
                      "type": "bool"
                    }
                  ],
                  "internalType": "struct JBGlobalFundingCycleMetadata",
                  "name": "global",
                  "type": "tuple"
                },
                {
                  "internalType": "uint256",
                  "name": "reservedRate",
                  "type": "uint256"
                },
                {
                  "internalType": "uint256",
                  "name": "redemptionRate",
                  "type": "uint256"
                },
                {
                  "internalType": "uint256",
                  "name": "ballotRedemptionRate",
                  "type": "uint256"
                },
                {
                  "internalType": "bool",
                  "name": "pausePay",
                  "type": "bool"
                },
                {
                  "internalType": "bool",
                  "name": "pauseDistributions",
                  "type": "bool"
                },
                {
                  "internalType": "bool",
                  "name": "pauseRedeem",
                  "type": "bool"
                },
                {
                  "internalType": "bool",
                  "name": "pauseBurn",
                  "type": "bool"
                },
                {
                  "internalType": "bool",
                  "name": "allowMinting",
                  "type": "bool"
                },
                {
                  "internalType": "bool",
                  "name": "allowTerminalMigration",
                  "type": "bool"
                },
                {
                  "internalType": "bool",
                  "name": "allowControllerMigration",
                  "type": "bool"
                },
                {
                  "internalType": "bool",
                  "name": "holdFees",
                  "type": "bool"
                },
                {
                  "internalType": "bool",
                  "name": "preferClaimedTokenOverride",
                  "type": "bool"
                },
                {
                  "internalType": "bool",
                  "name": "useTotalOverflowForRedemptions",
                  "type": "bool"
                },
                {
                  "internalType": "bool",
                  "name": "useDataSourceForRedeem",
                  "type": "bool"
                },
                {
                  "internalType": "uint256",
                  "name": "metadata",
                  "type": "uint256"
                }
              ],
              "internalType": "struct JBPayDataSourceFundingCycleMetadata",
              "name": "metadata",
              "type": "tuple"
            },
            {
              "internalType": "uint256",
              "name": "mustStartAtOrAfter",
              "type": "uint256"
            },
            {
              "components": [
                {
                  "internalType": "uint256",
                  "name": "group",
                  "type": "uint256"
                },
                {
                  "components": [
                    {
                      "internalType": "bool",
                      "name": "preferClaimed",
                      "type": "bool"
                    },
                    {
                      "internalType": "bool",
                      "name": "preferAddToBalance",
                      "type": "bool"
                    },
                    {
                      "internalType": "uint256",
                      "name": "percent",
                      "type": "uint256"
                    },
                    {
                      "internalType": "uint256",
                      "name": "projectId",
                      "type": "uint256"
                    },
                    {
                      "internalType": "address payable",
                      "name": "beneficiary",
                      "type": "address"
                    },
                    {
                      "internalType": "uint256",
                      "name": "lockedUntil",
                      "type": "uint256"
                    },
                    {
                      "internalType": "contract IJBSplitAllocator",
                      "name": "allocator",
                      "type": "address"
                    }
                  ],
                  "internalType": "struct JBSplit[]",
                  "name": "splits",
                  "type": "tuple[]"
                }
              ],
              "internalType": "struct JBGroupedSplits[]",
              "name": "groupedSplits",
              "type": "tuple[]"
            },
            {
              "components": [
                {
                  "internalType": "contract IJBPaymentTerminal",
                  "name": "terminal",
                  "type": "address"
                },
                {
                  "internalType": "address",
                  "name": "token",
                  "type": "address"
                },
                {
                  "internalType": "uint256",
                  "name": "distributionLimit",
                  "type": "uint256"
                },
                {
                  "internalType": "uint256",
                  "name": "distributionLimitCurrency",
                  "type": "uint256"
                },
                {
                  "internalType": "uint256",
                  "name": "overflowAllowance",
                  "type": "uint256"
                },
                {
                  "internalType": "uint256",
                  "name": "overflowAllowanceCurrency",
                  "type": "uint256"
                }
              ],
              "internalType": "struct JBFundAccessConstraints[]",
              "name": "fundAccessConstraints",
              "type": "tuple[]"
            },
            {
              "internalType": "contract IJBPaymentTerminal[]",
              "name": "terminals",
              "type": "address[]"
            },
            {
              "internalType": "string",
              "name": "memo",
              "type": "string"
            }
          ],
          "internalType": "struct JBLaunchProjectData",
          "name": "_launchProjectData",
          "type": "tuple"
        },
        {
          "internalType": "contract IJBController3_1",
          "name": "_controller",
          "type": "address"
        }
      ],
      "name": "launchProjectFor",
      "outputs": [
        {
          "internalType": "uint256",
          "name": "projectId",
          "type": "uint256"
        }
      ],
      "stateMutability": "nonpayable",
      "type": "function"
    },
    {
      "inputs": [],
      "name": "operatorStore",
      "outputs": [
        {
          "internalType": "contract IJBOperatorStore",
          "name": "",
          "type": "address"
        }
      ],
      "stateMutability": "view",
      "type": "function"
    },
    {
      "inputs": [
        {
          "internalType": "uint256",
          "name": "_projectId",
          "type": "uint256"
        },
        {
          "components": [
            {
              "internalType": "string",
              "name": "name",
              "type": "string"
            },
            {
              "internalType": "string",
              "name": "symbol",
              "type": "string"
            },
            {
              "internalType": "contract IJBFundingCycleStore",
              "name": "fundingCycleStore",
              "type": "address"
            },
            {
              "internalType": "string",
              "name": "baseUri",
              "type": "string"
            },
            {
              "internalType": "contract IJBTokenUriResolver",
              "name": "tokenUriResolver",
              "type": "address"
            },
            {
              "internalType": "string",
              "name": "contractUri",
              "type": "string"
            },
            {
              "internalType": "address",
              "name": "owner",
              "type": "address"
            },
            {
              "components": [
                {
                  "components": [
                    {
                      "internalType": "uint88",
                      "name": "price",
                      "type": "uint88"
                    },
                    {
                      "internalType": "uint40",
                      "name": "initialQuantity",
                      "type": "uint40"
                    },
                    {
                      "internalType": "uint40",
                      "name": "votingUnits",
                      "type": "uint40"
                    },
                    {
                      "internalType": "uint16",
                      "name": "reservedRate",
                      "type": "uint16"
                    },
                    {
                      "internalType": "address",
                      "name": "reservedTokenBeneficiary",
                      "type": "address"
                    },
                    {
                      "internalType": "uint8",
                      "name": "royaltyRate",
                      "type": "uint8"
                    },
                    {
                      "internalType": "address",
                      "name": "royaltyBeneficiary",
                      "type": "address"
                    },
                    {
                      "internalType": "bytes32",
                      "name": "encodedIPFSUri",
                      "type": "bytes32"
                    },
                    {
                      "internalType": "uint16",
                      "name": "category",
                      "type": "uint16"
                    },
                    {
                      "internalType": "bool",
                      "name": "allowManualMint",
                      "type": "bool"
                    },
                    {
                      "internalType": "bool",
                      "name": "shouldUseReservedTokenBeneficiaryAsDefault",
                      "type": "bool"
                    },
                    {
                      "internalType": "bool",
                      "name": "shouldUseRoyaltyBeneficiaryAsDefault",
                      "type": "bool"
                    },
                    {
                      "internalType": "bool",
                      "name": "transfersPausable",
                      "type": "bool"
                    },
                    {
                      "internalType": "bool",
                      "name": "useVotingUnits",
                      "type": "bool"
                    }
                  ],
                  "internalType": "struct JB721TierParams[]",
                  "name": "tiers",
                  "type": "tuple[]"
                },
                {
                  "internalType": "uint256",
                  "name": "currency",
                  "type": "uint256"
                },
                {
                  "internalType": "uint256",
                  "name": "decimals",
                  "type": "uint256"
                },
                {
                  "internalType": "contract IJBPrices",
                  "name": "prices",
                  "type": "address"
                }
              ],
              "internalType": "struct JB721PricingParams",
              "name": "pricing",
              "type": "tuple"
            },
            {
              "internalType": "address",
              "name": "reservedTokenBeneficiary",
              "type": "address"
            },
            {
              "internalType": "contract IJBTiered721DelegateStore",
              "name": "store",
              "type": "address"
            },
            {
              "components": [
                {
                  "internalType": "bool",
                  "name": "lockReservedTokenChanges",
                  "type": "bool"
                },
                {
                  "internalType": "bool",
                  "name": "lockVotingUnitChanges",
                  "type": "bool"
                },
                {
                  "internalType": "bool",
                  "name": "lockManualMintingChanges",
                  "type": "bool"
                },
                {
                  "internalType": "bool",
                  "name": "preventOverspending",
                  "type": "bool"
                }
              ],
              "internalType": "struct JBTiered721Flags",
              "name": "flags",
              "type": "tuple"
            },
            {
              "internalType": "enum JB721GovernanceType",
              "name": "governanceType",
              "type": "uint8"
            }
          ],
          "internalType": "struct JBDeployTiered721DelegateData",
          "name": "_deployTiered721DelegateData",
          "type": "tuple"
        },
        {
          "components": [
            {
              "components": [
                {
                  "internalType": "uint256",
                  "name": "duration",
                  "type": "uint256"
                },
                {
                  "internalType": "uint256",
                  "name": "weight",
                  "type": "uint256"
                },
                {
                  "internalType": "uint256",
                  "name": "discountRate",
                  "type": "uint256"
                },
                {
                  "internalType": "contract IJBFundingCycleBallot",
                  "name": "ballot",
                  "type": "address"
                }
              ],
              "internalType": "struct JBFundingCycleData",
              "name": "data",
              "type": "tuple"
            },
            {
              "components": [
                {
                  "components": [
                    {
                      "internalType": "bool",
                      "name": "allowSetTerminals",
                      "type": "bool"
                    },
                    {
                      "internalType": "bool",
                      "name": "allowSetController",
                      "type": "bool"
                    },
                    {
                      "internalType": "bool",
                      "name": "pauseTransfers",
                      "type": "bool"
                    }
                  ],
                  "internalType": "struct JBGlobalFundingCycleMetadata",
                  "name": "global",
                  "type": "tuple"
                },
                {
                  "internalType": "uint256",
                  "name": "reservedRate",
                  "type": "uint256"
                },
                {
                  "internalType": "uint256",
                  "name": "redemptionRate",
                  "type": "uint256"
                },
                {
                  "internalType": "uint256",
                  "name": "ballotRedemptionRate",
                  "type": "uint256"
                },
                {
                  "internalType": "bool",
                  "name": "pausePay",
                  "type": "bool"
                },
                {
                  "internalType": "bool",
                  "name": "pauseDistributions",
                  "type": "bool"
                },
                {
                  "internalType": "bool",
                  "name": "pauseRedeem",
                  "type": "bool"
                },
                {
                  "internalType": "bool",
                  "name": "pauseBurn",
                  "type": "bool"
                },
                {
                  "internalType": "bool",
                  "name": "allowMinting",
                  "type": "bool"
                },
                {
                  "internalType": "bool",
                  "name": "allowTerminalMigration",
                  "type": "bool"
                },
                {
                  "internalType": "bool",
                  "name": "allowControllerMigration",
                  "type": "bool"
                },
                {
                  "internalType": "bool",
                  "name": "holdFees",
                  "type": "bool"
                },
                {
                  "internalType": "bool",
                  "name": "preferClaimedTokenOverride",
                  "type": "bool"
                },
                {
                  "internalType": "bool",
                  "name": "useTotalOverflowForRedemptions",
                  "type": "bool"
                },
                {
                  "internalType": "bool",
                  "name": "useDataSourceForRedeem",
                  "type": "bool"
                },
                {
                  "internalType": "uint256",
                  "name": "metadata",
                  "type": "uint256"
                }
              ],
              "internalType": "struct JBPayDataSourceFundingCycleMetadata",
              "name": "metadata",
              "type": "tuple"
            },
            {
              "internalType": "uint256",
              "name": "mustStartAtOrAfter",
              "type": "uint256"
            },
            {
              "components": [
                {
                  "internalType": "uint256",
                  "name": "group",
                  "type": "uint256"
                },
                {
                  "components": [
                    {
                      "internalType": "bool",
                      "name": "preferClaimed",
                      "type": "bool"
                    },
                    {
                      "internalType": "bool",
                      "name": "preferAddToBalance",
                      "type": "bool"
                    },
                    {
                      "internalType": "uint256",
                      "name": "percent",
                      "type": "uint256"
                    },
                    {
                      "internalType": "uint256",
                      "name": "projectId",
                      "type": "uint256"
                    },
                    {
                      "internalType": "address payable",
                      "name": "beneficiary",
                      "type": "address"
                    },
                    {
                      "internalType": "uint256",
                      "name": "lockedUntil",
                      "type": "uint256"
                    },
                    {
                      "internalType": "contract IJBSplitAllocator",
                      "name": "allocator",
                      "type": "address"
                    }
                  ],
                  "internalType": "struct JBSplit[]",
                  "name": "splits",
                  "type": "tuple[]"
                }
              ],
              "internalType": "struct JBGroupedSplits[]",
              "name": "groupedSplits",
              "type": "tuple[]"
            },
            {
              "components": [
                {
                  "internalType": "contract IJBPaymentTerminal",
                  "name": "terminal",
                  "type": "address"
                },
                {
                  "internalType": "address",
                  "name": "token",
                  "type": "address"
                },
                {
                  "internalType": "uint256",
                  "name": "distributionLimit",
                  "type": "uint256"
                },
                {
                  "internalType": "uint256",
                  "name": "distributionLimitCurrency",
                  "type": "uint256"
                },
                {
                  "internalType": "uint256",
                  "name": "overflowAllowance",
                  "type": "uint256"
                },
                {
                  "internalType": "uint256",
                  "name": "overflowAllowanceCurrency",
                  "type": "uint256"
                }
              ],
              "internalType": "struct JBFundAccessConstraints[]",
              "name": "fundAccessConstraints",
              "type": "tuple[]"
            },
            {
              "internalType": "string",
              "name": "memo",
              "type": "string"
            }
          ],
          "internalType": "struct JBReconfigureFundingCyclesData",
          "name": "_reconfigureFundingCyclesData",
          "type": "tuple"
        },
        {
          "internalType": "contract IJBController3_1",
          "name": "_controller",
          "type": "address"
        }
      ],
      "name": "reconfigureFundingCyclesOf",
      "outputs": [
        {
          "internalType": "uint256",
          "name": "configuration",
          "type": "uint256"
        }
      ],
      "stateMutability": "nonpayable",
      "type": "function"
    }
  ],
  "bytecode": {
    "object": "0x60e0346100e757601f6200231138819003918201601f19168301916001600160401b038311848410176100ec578084926060946040528339810103126100e75780516001600160a01b0380821682036100e75760208301519281841684036100e7576040015190811681036100e75760805260a05260c05260405161220e9081620001038239608051818181610710015281816120e60152612180015260a05181818160750152818161028801528181610318015281816108ce015281816109690152610df4015260c05181818161034b015281816107550152818161099b0152610e810152f35b600080fd5b634e487b7160e01b600052604160045260246000fdfe610280604052600436101561001357600080fd5b60003560e01c806366da681d14610cec5780638edcb811146107845780638f3d964b1461073f578063ad007d63146106fa578063b38b28aa146100a95763c41c2f241461005f57600080fd5b346100a45760003660031901126100a4576040517f00000000000000000000000000000000000000000000000000000000000000006001600160a01b03168152602090f35b600080fd5b346100a45760803660031901126100a45760043560808190526001600160a01b038116036100a4576001600160401b036024358181116100a4576100f1903690600401611280565b9080604435116100a457610380604435360360031901126100a457604051806101a0526101008101908110828211176106e45780604052604435600401358281116100a45760443501604060031982360301126100a4576101518261117a565b6004810135908382116100a457610170602492600436918401016111d1565b835201356101206101a05101526101a0515261019136602460443501611653565b60206101a05101526101a83660a4604435016116af565b60406101a05101526102e4604435013560606101a051015261030460443501358181116100a4576101e190600436916044350101611819565b60806101a051015261032460443501358181116100a45761020a906004369160443501016119bb565b60a06101a051015261034460443501358181116100a45761023390600436916044350101611a8a565b60c06101a05101526103646044350135116100a45761025e36604435610364810135016004016111d1565b60e06101a051015261026e611a74565b610180526040516322de550f60e21b8152906020826004817f00000000000000000000000000000000000000000000000000000000000000006001600160a01b03165afa918215610642576004926020916000916106c7575b506040516306661abd60e01b815293849182906001600160a01b03165afa91821561064257600092610693575b5060018201821161067d5760206103459160405180938192630bfb907b60e21b83527f0000000000000000000000000000000000000000000000000000000000000000906001880160048501611b4f565b038160007f00000000000000000000000000000000000000000000000000000000000000006001600160a01b03165af19081156106425760009161064e575b506101e06101c06101a061018061016061014061012061010060e060c060a0608060606040808c5180518a5260208101518c5201519d8e9d8e9d8e9d8e9d8e9d8e9d8e9d8e9d8e9d8e9d8e9d8e9d8e9d8e519e60208101518a5201519e01519e015115159e015115159e015115159e015115159e015115159e015115159e015115159e015115159e015115159e015115159e015115159e015161022052610431604051806101e05261115e565b6101e051526101405160206101e051015260406101e051015260606101e051015260806101e051015260a06101e051015260c06101e051015260e06101e05101526101006101e05101526101206101e05101526101406101e05101526101606101e05101526101806101e05101526101a06101e051015260016101c06101e05101526101e08051015260018060a01b03166102006101e0510152610220516102206101e05101526105b360206101a0516060810151906105ec6080820151916105d960a0820151916105c660e060c083015192015193604051998a98899863b3c5267360e01b8a5260018060a01b036080511660048b01526103e060248b015261054c610120515160406103e48d01526104248c0190611b0f565b610120518d01516104048c015261016051805160448d0152602081015160648d0152604081015160848d0152606001516001600160a01b031660a48c01529161059b60c48c016101e051611dc7565b6103448b0152898203600319016103648b0152611ec9565b8781036003190161038489015290611fb3565b858103600319016103a487015290612027565b838103600319016103c485015290611b0f565b0381600060018060a01b0361018051165af1801561064257610617575b602082600160405191018152f35b602090813d831161063b575b61062d81836111b0565b810103126100a45781610609565b503d610623565b6040513d6000823e3d90fd5b610670915060203d602011610676575b61066881836111b0565b810190611af0565b82610384565b503d61065e565b634e487b7160e01b600052601160045260246000fd5b9091506020813d6020116106bf575b816106af602093836111b0565b810103126100a4575190826102f4565b3d91506106a2565b6106de9150823d84116106765761066881836111b0565b846102c7565b634e487b7160e01b600052604160045260246000fd5b346100a45760003660031901126100a4576040517f00000000000000000000000000000000000000000000000000000000000000006001600160a01b03168152602090f35b346100a45760003660031901126100a4576040517f00000000000000000000000000000000000000000000000000000000000000006001600160a01b03168152602090f35b346100a45760803660031901126100a4576001600160401b036024358181116100a4576107b5903690600401611280565b81604435116100a457610360604435360360031901126100a4576040519160e08301838110828211176106e4576040526107f436604435600401611653565b8352610805366084604435016116af565b60208401526044356102c481013560408501526102e401358181116100a45761083690600436916044350101611819565b606084015261030460443501358181116100a45761085c906004369160443501016119bb565b608084015261032460443501358181116100a45761088290600436916044350101611a8a565b60a08401526103446044350135116100a4576108aa36604435610344810135016004016111d1565b60c08301526108b7611a74565b6040516322de550f60e21b815290916020826004817f00000000000000000000000000000000000000000000000000000000000000006001600160a01b03165afa91821561064257602492602091600091610ccf575b506040516331a9108f60e11b8152600480359082015293849182906001600160a01b03165afa9081156106425761095660209261099594600091610cb2575b506004359061207c565b60405180938192630bfb907b60e21b83527f00000000000000000000000000000000000000000000000000000000000000009060043560048501611b4f565b038160007f00000000000000000000000000000000000000000000000000000000000000006001600160a01b03165af19182156106425760209284610bcc93600092610c5e575b506101c06101a061018061016061014061012061010060e060c060a060808f60406060918e6101e09f516102605201519d8e9d8e9d8e9d8e9d8e9d8e9d8e9d8e9d8e9d8e9d8e9d8e9d8e9d8e519e6020810151865201519e01519e015115159e015115159e015115159e015115159e015115159e015115159e015115159e015115159e015115159e015115159e015115159e015160a052610a83604051806101005261115e565b610100515260c051602061010051015260406101005101526060610100510152608061010051015260a061010051015260c061010051015260e0610100510152610100805101526101206101005101526101406101005101526101606101005101526101806101005101526101a061010051015260016101c06101005101526101e061010051015260018060a01b031661020061010051015260a05161022061010051015260408401516000606086015191610c05608088015197610bf260c060a083015192015191610bdf6040519b8c9a8b998a9863111d861b60e01b8a5260043560048b0152610ba260248b01610260516060908051835260208101516020840152604081015160408401528160018060a01b0391015116910152565b610bb260a48b0161010051611dc7565b6103248a01526103c06103448a01526103c4890190611ec9565b8781036003190161036489015290611fb3565b8581036003190161038487015290612027565b838103600319016103a485015290611b0f565b03926001600160a01b03165af1801561064257600090610c2b575b602090604051908152f35b506020813d602011610c56575b81610c45602093836111b0565b810103126100a45760209051610c20565b3d9150610c38565b6101e09192506101a061018061016061014061012061010060e060c060a060808f604081610c9d6101c09e6060943d84116106765761066881836111b0565b9f9e50505050505050505050505050506109dc565b610cc99150843d86116106765761066881836111b0565b8761094c565b610ce69150823d84116106765761066881836111b0565b8661090d565b346100a45760803660031901126100a4576001600160401b036024358181116100a457610d1d903690600401611280565b604435918083116100a45761034060031984360301126100a45760405192610d4484611143565b610d513682600401611653565b8452610d6036608483016116af565b60208501526102c481013560408501526102e48101358281116100a457610d8d9060043691840101611819565b60608501526103048101358281116100a457610daf90600436918401016119bb565b60808501526103248101359182116100a4576004610dd092369201016111d1565b60a0830152610ddd611a74565b6040516322de550f60e21b815290916020826004817f00000000000000000000000000000000000000000000000000000000000000006001600160a01b03165afa91821561064257602492602091600091611126575b506040516331a9108f60e11b8152600480359082015293849182906001600160a01b03165afa90811561064257610956602092610e7b94600091610cb257506004359061207c565b038160007f00000000000000000000000000000000000000000000000000000000000000006001600160a01b03165af191821561064257602092846110ac936000926110d2575b506101c06101a061018061016061014061012061010060e060c060a060808f60406060918e6101e09f516102005201519d8e9d8e9d8e9d8e9d8e9d8e9d8e9d8e9d8e9d8e9d8e9d8e9d8e9d8e519e6020810151875201519e01519e015115159e015115159e015115159e015115159e015115159e015115159e015115159e015115159e015115159e015115159e015115159e01516101c052610f6a604051806102405261115e565b610240515260e051602061024051015260406102405101526060610240510152608061024051015260a061024051015260c061024051015260e06102405101526101006102405101526101206102405101526101406102405101526101606102405101526101806102405101526101a061024051015260016101c06102405101526101e061024051015260018060a01b03166102006102405101526101c05161022061024051015260408401516000606086015191610c0560a060808901519801516110bf604051998a988997889663175b7be560e31b8852600435600489015261108260248901610200516060908051835260208101516020840152604081015160408401528160018060a01b0391015116910152565b61109260a4890161024051611dc7565b6103248801526103a06103448801526103a4870190611ec9565b8581036003190161036487015290611fb3565b8381036003190161038485015290611b0f565b6101e09192506101a061018061016061014061012061010060e060c060a060808f6040816111116101c09e6060943d84116106765761066881836111b0565b9f9e5050505050505050505050505050610ec2565b61113d9150823d84116106765761066881836111b0565b86610e33565b60c081019081106001600160401b038211176106e457604052565b61024081019081106001600160401b038211176106e457604052565b604081019081106001600160401b038211176106e457604052565b608081019081106001600160401b038211176106e457604052565b90601f801991011681019081106001600160401b038211176106e457604052565b81601f820112156100a4578035906001600160401b0382116106e45760405192611205601f8401601f1916602001856111b0565b828452602083830101116100a457816000926020809301838601378301015290565b35906001600160a01b03821682036100a457565b6001600160401b0381116106e45760051b60200190565b359064ffffffffff821682036100a457565b359061ffff821682036100a457565b359081151582036100a457565b9190916101e0818403126100a4576040519061018082018281106001600160401b038211176106e457604052819381356001600160401b0381116100a457816112ca9184016111d1565b835260208201356001600160401b0381116100a457816112eb9184016111d1565b602084015260408201356001600160a01b03811681036100a457604084015260608201356001600160401b0381116100a457816113299184016111d1565b606084015260808201356001600160a01b03811681036100a457608084015260a08201356001600160401b0381116100a457816113679184016111d1565b60a084015261137860c08301611227565b60c084015260e08201356001600160401b0381116100a45760808184018303126100a457604051906113a982611195565b808401356001600160401b0381116100a45783601f82848801010112156100a4576113d881838701013561123b565b906113e660405192836111b0565b85830181018035808452602080850193926101c09092029091010186106100a4576020818589010101915b878501820180356101c00201602001831061150857505050825283016020818101359083015260408082013590830152606001356001600160a01b03811681036100a457606082015260e084015261010061146d818401611227565b9084015261012090828201356001600160a01b03811681036100a4576080928501528261013f19910301126100a4576101c0604051916114ac83611195565b610140926114bb848301611273565b8152610160936114cc858401611273565b60208301526114de6101808401611273565b60408301526114f06101a08401611273565b606083015285015201359160038310156100a4570152565b6101c0838803126100a4576040516101c081018181106001600160401b0382111761163e5760405283356affffffffffffffffffffff811681036100a457815261155460208501611252565b602082015261156560408501611252565b604082015261157660608501611264565b606082015261158760808501611227565b608082015260a084013560ff811681036100a45760209282849260a06101c09501526115b560c08801611227565b60c082015260e087013560e08201526101006115d2818901611264565b908201526101206115e4818901611273565b908201526101406115f6818901611273565b90820152610160611608818901611273565b908201526116196101808801611273565b6101808201526101a061162d818901611273565b908201528152019301929050611411565b60246000634e487b7160e01b81526041600452fd5b91908260809103126100a457604051608081018181106001600160401b038211176106e4576040908152833582526020808501359083015283810135908201529160600135826001600160a01b03821682036100a45760600152565b8092910391610240908184126100a45760405191610200918284016001600160401b03858210818311176106e45760608698126100a4576102608601908111828210176106e45760405261170282611273565b815261171060208301611273565b92610220938487015261172560408401611273565b908601528452606081013560208501526080810135604085015260a0810135606085015261175560c08201611273565b608085015261176660e08201611273565b60a0850152610100611779818301611273565b60c086015261180e61012094611790868501611273565b60e0880152610140926117a4848601611273565b90880152610160956117b7878601611273565b90880152610180926117ca848601611273565b908801526101a0956117dd878601611273565b908801526101c0926117f0848601611273565b908801526101e095611803878601611273565b908801528301611273565b908501520135910152565b9080601f830112156100a45781356118308161123b565b92604091611840835195866111b0565b808552602092838087019260051b840101928584116100a457848101925b84841061186f575050505050505090565b6001600160401b0384358181116100a45783019084601f19838b0301126100a45784519161189c8361117a565b88810135835285810135908282116100a4570189603f820112156100a45788810135906118c88261123b565b926118d5885194856111b0565b8284528a8401908860e0809502840101928d84116100a457918d979593918a8e98969401915b8383106119195750505050508380955082015281520193019261185e565b91849698508094919395979903126100a45789518581018181108482111761163e578b5261194684611273565b81528d611954818601611273565b90820152838b01358b820152606080850135908201526001600160a01b03916080808601359084821682036100a45783015260a0808601359083015260c0918286013593841684036100a4578f9293889482015281520192018d979593918d9795936118fb565b81601f820112156100a4578035906119d28261123b565b926040906119e2825195866111b0565b838552602091828601918360c0809702860101948186116100a4578401925b858410611a12575050505050505090565b86848303126100a4578487918451611a2981611143565b611a3287611227565b8152611a3f838801611227565b838201528587013586820152606080880135908201526080808801359082015260a08088013590820152815201930192611a01565b606435906001600160a01b03821682036100a457565b81601f820112156100a457803591611aa18361123b565b92611aaf60405194856111b0565b808452602092838086019260051b8201019283116100a4578301905b828210611ad9575050505090565b838091611ae584611227565b815201910190611acb565b908160209103126100a457516001600160a01b03811681036100a45790565b919082519283825260005b848110611b3b575050826000602080949584010152601f8019910116010190565b602081830181015184830182015201611b1a565b9190939293825260606020830152611b7581516101e06060850152610240840190611b0f565b90611be7611bbf611b98602084015194605f199586888303016080890152611b0f565b60408401516001600160a01b031660a08701526060840151868203860160c0880152611b0f565b60808301516001600160a01b031660e086015260a08301518582038501610100870152611b0f565b60c08201516001600160a01b031661012085015260e082015184820390930161014085015282516080808352815190830181905260a0830194916020019060005b818110611ce95750505060208082015183820152604080830151818501526060928301516001600160a01b0390811694840194909452610100850151841661016088810191909152610120860151909416610180880152610140850151805115156101a08901529182015115156101c088015281015115156101e0870152015115156102008501520151906003821015611cd3576040916102208401529360018060a01b0316910152565b634e487b7160e01b600052602160045260246000fd5b90919560206101c060019289516affffffffffffffffffffff815116825264ffffffffff80858301511685840152604082015116604083015261ffff806060830151166060840152858060a01b03608083015116608084015260ff60a08301511660a0840152858060a01b0360c08301511660c084015260e082015160e0840152610100820151166101008301526101208101511515610120830152610140810151151561014083015261016080820151151590830152610180808201511515908301526101a0809101511515908201520197019101919091611c28565b61026090604081518051151585526020810151151560208601520151151560408401526020810151606084015260408101516080840152606081015160a08401526080810151151560c084015260a0810151151560e084015260c0810151151590610100918285015260e081015115159161012092838601528101511515916101409283860152810151151591610160928386015281015115159161018092838601528101511515916101a092838601528101511515916101c092838601528101511515916101e092838601528101511515916102009283860152810151151591610220928386015260018060a01b0390820151166102408501520151910152565b90815180825260208092019182818360051b8501950193600080925b858410611ef6575050505050505090565b9091929387828297989903855288519060408381830193805184520151928185840152835180915284606080940194019287925b828410611f4c5750505050509080600192990194019401929594939190611ee5565b845180511515875287810151151588880152818101518288015282810151838801526080808201516001600160a01b039081169189019190915260a0808301519089015260c09182015116908701528b9660e0909601959094019360019390930192611f2a565b90815180825260208080930193019160005b828110611fd3575050505090565b835180516001600160a01b03908116875281840151168684015260408082015190870152606080820151908701526080808201519087015260a0908101519086015260c09094019392810192600101611fc5565b90815180825260208080930193019160005b828110612047575050505090565b83516001600160a01b031685529381019392810192600101612039565b908160209103126100a4575180151581036100a45790565b6001600160a01b0390811633811415928361214e575b50826120b3575b50506120a157565b60405163075fd2b160e01b8152600490fd5b602091925060846040518094819363c161c93f60e01b8352336004840152602483015260006044830152600160648301527f0000000000000000000000000000000000000000000000000000000000000000165afa90811561064257600091612120575b50153880612099565b612141915060203d8111612147575b61213981836111b0565b810190612064565b38612117565b503d61212f565b9092506040519063c161c93f60e01b8252336004830152836024830152604482015260016064820152602081608481857f0000000000000000000000000000000000000000000000000000000000000000165afa908115610642576000916121ba575b50159138612092565b6121d2915060203d81116121475761213981836111b0565b386121b156fea2646970667358221220f29753b9de09d767103c6975aa256ccde6ab80893c55f8ef448bdf4e3da1198f64736f6c63430008110033",
    "linkReferences": {}
  },
  "methodIdentifiers": {
    "delegateDeployer()": "8f3d964b",
    "directory()": "c41c2f24",
    "launchFundingCyclesFor(uint256,(string,string,address,string,address,string,address,((uint88,uint40,uint40,uint16,address,uint8,address,bytes32,uint16,bool,bool,bool,bool,bool)[],uint256,uint256,address),address,address,(bool,bool,bool,bool),uint8),((uint256,uint256,uint256,address),((bool,bool,bool),uint256,uint256,uint256,bool,bool,bool,bool,bool,bool,bool,bool,bool,bool,bool,uint256),uint256,(uint256,(bool,bool,uint256,uint256,address,uint256,address)[])[],(address,address,uint256,uint256,uint256,uint256)[],address[],string),address)": "8edcb811",
    "launchProjectFor(address,(string,string,address,string,address,string,address,((uint88,uint40,uint40,uint16,address,uint8,address,bytes32,uint16,bool,bool,bool,bool,bool)[],uint256,uint256,address),address,address,(bool,bool,bool,bool),uint8),((string,uint256),(uint256,uint256,uint256,address),((bool,bool,bool),uint256,uint256,uint256,bool,bool,bool,bool,bool,bool,bool,bool,bool,bool,bool,uint256),uint256,(uint256,(bool,bool,uint256,uint256,address,uint256,address)[])[],(address,address,uint256,uint256,uint256,uint256)[],address[],string),address)": "b38b28aa",
    "operatorStore()": "ad007d63",
    "reconfigureFundingCyclesOf(uint256,(string,string,address,string,address,string,address,((uint88,uint40,uint40,uint16,address,uint8,address,bytes32,uint16,bool,bool,bool,bool,bool)[],uint256,uint256,address),address,address,(bool,bool,bool,bool),uint8),((uint256,uint256,uint256,address),((bool,bool,bool),uint256,uint256,uint256,bool,bool,bool,bool,bool,bool,bool,bool,bool,bool,bool,uint256),uint256,(uint256,(bool,bool,uint256,uint256,address,uint256,address)[])[],(address,address,uint256,uint256,uint256,uint256)[],string),address)": "66da681d"
  },
  "id": 4
}