{
  "abi": [
    {
      "inputs": [
        {
          "internalType": "contract IJBController",
          "name": "_controller",
          "type": "address"
        },
        {
          "internalType": "contract IJBTiered721DelegateDeployer",
          "name": "_delegateDeployer",
          "type": "address"
        },
        {
          "internalType": "contract IJBOperatorStore",
          "name": "_operatorStore",
          "type": "address"
        }
      ],
      "stateMutability": "nonpayable",
      "type": "constructor"
    },
    {
      "inputs": [],
      "name": "UNAUTHORIZED",
      "type": "error"
    },
    {
      "inputs": [],
      "name": "controller",
      "outputs": [
        {
          "internalType": "contract IJBController",
          "name": "",
          "type": "address"
        }
      ],
      "stateMutability": "view",
      "type": "function"
    },
    {
      "inputs": [],
      "name": "delegateDeployer",
      "outputs": [
        {
          "internalType": "contract IJBTiered721DelegateDeployer",
          "name": "",
          "type": "address"
        }
      ],
      "stateMutability": "view",
      "type": "function"
    },
    {
      "inputs": [
        {
          "internalType": "uint256",
          "name": "_projectId",
          "type": "uint256"
        },
        {
          "components": [
            {
              "internalType": "contract IJBDirectory",
              "name": "directory",
              "type": "address"
            },
            {
              "internalType": "string",
              "name": "name",
              "type": "string"
            },
            {
              "internalType": "string",
              "name": "symbol",
              "type": "string"
            },
            {
              "internalType": "contract IJBFundingCycleStore",
              "name": "fundingCycleStore",
              "type": "address"
            },
            {
              "internalType": "string",
              "name": "baseUri",
              "type": "string"
            },
            {
              "internalType": "contract IJBTokenUriResolver",
              "name": "tokenUriResolver",
              "type": "address"
            },
            {
              "internalType": "string",
              "name": "contractUri",
              "type": "string"
            },
            {
              "internalType": "address",
              "name": "owner",
              "type": "address"
            },
            {
              "components": [
                {
                  "components": [
                    {
                      "internalType": "uint80",
                      "name": "contributionFloor",
                      "type": "uint80"
                    },
                    {
                      "internalType": "uint48",
                      "name": "lockedUntil",
                      "type": "uint48"
                    },
                    {
                      "internalType": "uint40",
                      "name": "initialQuantity",
                      "type": "uint40"
                    },
                    {
                      "internalType": "uint16",
                      "name": "votingUnits",
                      "type": "uint16"
                    },
                    {
                      "internalType": "uint16",
                      "name": "reservedRate",
                      "type": "uint16"
                    },
                    {
                      "internalType": "address",
                      "name": "reservedTokenBeneficiary",
                      "type": "address"
                    },
                    {
                      "internalType": "bytes32",
                      "name": "encodedIPFSUri",
                      "type": "bytes32"
                    },
                    {
                      "internalType": "bool",
                      "name": "allowManualMint",
                      "type": "bool"
                    },
                    {
                      "internalType": "bool",
                      "name": "shouldUseBeneficiaryAsDefault",
                      "type": "bool"
                    },
                    {
                      "internalType": "bool",
                      "name": "transfersPausable",
                      "type": "bool"
                    }
                  ],
                  "internalType": "struct JB721TierParams[]",
                  "name": "tiers",
                  "type": "tuple[]"
                },
                {
                  "internalType": "uint256",
                  "name": "currency",
                  "type": "uint256"
                },
                {
                  "internalType": "uint256",
                  "name": "decimals",
                  "type": "uint256"
                },
                {
                  "internalType": "contract IJBPrices",
                  "name": "prices",
                  "type": "address"
                }
              ],
              "internalType": "struct JB721PricingParams",
              "name": "pricing",
              "type": "tuple"
            },
            {
              "internalType": "address",
              "name": "reservedTokenBeneficiary",
              "type": "address"
            },
            {
              "internalType": "contract IJBTiered721DelegateStore",
              "name": "store",
              "type": "address"
            },
            {
              "components": [
                {
                  "internalType": "bool",
                  "name": "lockReservedTokenChanges",
                  "type": "bool"
                },
                {
                  "internalType": "bool",
                  "name": "lockVotingUnitChanges",
                  "type": "bool"
                },
                {
                  "internalType": "bool",
                  "name": "lockManualMintingChanges",
                  "type": "bool"
                }
              ],
              "internalType": "struct JBTiered721Flags",
              "name": "flags",
              "type": "tuple"
            },
            {
              "internalType": "enum JB721GovernanceType",
              "name": "governanceType",
              "type": "uint8"
            }
          ],
          "internalType": "struct JBDeployTiered721DelegateData",
          "name": "_deployTiered721DelegateData",
          "type": "tuple"
        },
        {
          "components": [
            {
              "components": [
                {
                  "internalType": "uint256",
                  "name": "duration",
                  "type": "uint256"
                },
                {
                  "internalType": "uint256",
                  "name": "weight",
                  "type": "uint256"
                },
                {
                  "internalType": "uint256",
                  "name": "discountRate",
                  "type": "uint256"
                },
                {
                  "internalType": "contract IJBFundingCycleBallot",
                  "name": "ballot",
                  "type": "address"
                }
              ],
              "internalType": "struct JBFundingCycleData",
              "name": "data",
              "type": "tuple"
            },
            {
              "components": [
                {
                  "components": [
                    {
                      "internalType": "bool",
                      "name": "allowSetTerminals",
                      "type": "bool"
                    },
                    {
                      "internalType": "bool",
                      "name": "allowSetController",
                      "type": "bool"
                    },
                    {
                      "internalType": "bool",
                      "name": "pauseTransfers",
                      "type": "bool"
                    }
                  ],
                  "internalType": "struct JBGlobalFundingCycleMetadata",
                  "name": "global",
                  "type": "tuple"
                },
                {
                  "internalType": "uint256",
                  "name": "reservedRate",
                  "type": "uint256"
                },
                {
                  "internalType": "uint256",
                  "name": "redemptionRate",
                  "type": "uint256"
                },
                {
                  "internalType": "uint256",
                  "name": "ballotRedemptionRate",
                  "type": "uint256"
                },
                {
                  "internalType": "bool",
                  "name": "pausePay",
                  "type": "bool"
                },
                {
                  "internalType": "bool",
                  "name": "pauseDistributions",
                  "type": "bool"
                },
                {
                  "internalType": "bool",
                  "name": "pauseRedeem",
                  "type": "bool"
                },
                {
                  "internalType": "bool",
                  "name": "pauseBurn",
                  "type": "bool"
                },
                {
                  "internalType": "bool",
                  "name": "allowMinting",
                  "type": "bool"
                },
                {
                  "internalType": "bool",
                  "name": "allowTerminalMigration",
                  "type": "bool"
                },
                {
                  "internalType": "bool",
                  "name": "allowControllerMigration",
                  "type": "bool"
                },
                {
                  "internalType": "bool",
                  "name": "holdFees",
                  "type": "bool"
                },
                {
                  "internalType": "bool",
                  "name": "preferClaimedTokenOverride",
                  "type": "bool"
                },
                {
                  "internalType": "bool",
                  "name": "useTotalOverflowForRedemptions",
                  "type": "bool"
                },
                {
                  "internalType": "bool",
                  "name": "useDataSourceForRedeem",
                  "type": "bool"
                },
                {
                  "internalType": "uint256",
                  "name": "metadata",
                  "type": "uint256"
                }
              ],
              "internalType": "struct JBPayDataSourceFundingCycleMetadata",
              "name": "metadata",
              "type": "tuple"
            },
            {
              "internalType": "uint256",
              "name": "mustStartAtOrAfter",
              "type": "uint256"
            },
            {
              "components": [
                {
                  "internalType": "uint256",
                  "name": "group",
                  "type": "uint256"
                },
                {
                  "components": [
                    {
                      "internalType": "bool",
                      "name": "preferClaimed",
                      "type": "bool"
                    },
                    {
                      "internalType": "bool",
                      "name": "preferAddToBalance",
                      "type": "bool"
                    },
                    {
                      "internalType": "uint256",
                      "name": "percent",
                      "type": "uint256"
                    },
                    {
                      "internalType": "uint256",
                      "name": "projectId",
                      "type": "uint256"
                    },
                    {
                      "internalType": "address payable",
                      "name": "beneficiary",
                      "type": "address"
                    },
                    {
                      "internalType": "uint256",
                      "name": "lockedUntil",
                      "type": "uint256"
                    },
                    {
                      "internalType": "contract IJBSplitAllocator",
                      "name": "allocator",
                      "type": "address"
                    }
                  ],
                  "internalType": "struct JBSplit[]",
                  "name": "splits",
                  "type": "tuple[]"
                }
              ],
              "internalType": "struct JBGroupedSplits[]",
              "name": "groupedSplits",
              "type": "tuple[]"
            },
            {
              "components": [
                {
                  "internalType": "contract IJBPaymentTerminal",
                  "name": "terminal",
                  "type": "address"
                },
                {
                  "internalType": "address",
                  "name": "token",
                  "type": "address"
                },
                {
                  "internalType": "uint256",
                  "name": "distributionLimit",
                  "type": "uint256"
                },
                {
                  "internalType": "uint256",
                  "name": "distributionLimitCurrency",
                  "type": "uint256"
                },
                {
                  "internalType": "uint256",
                  "name": "overflowAllowance",
                  "type": "uint256"
                },
                {
                  "internalType": "uint256",
                  "name": "overflowAllowanceCurrency",
                  "type": "uint256"
                }
              ],
              "internalType": "struct JBFundAccessConstraints[]",
              "name": "fundAccessConstraints",
              "type": "tuple[]"
            },
            {
              "internalType": "contract IJBPaymentTerminal[]",
              "name": "terminals",
              "type": "address[]"
            },
            {
              "internalType": "string",
              "name": "memo",
              "type": "string"
            }
          ],
          "internalType": "struct JBLaunchFundingCyclesData",
          "name": "_launchFundingCyclesData",
          "type": "tuple"
        }
      ],
      "name": "launchFundingCyclesFor",
      "outputs": [
        {
          "internalType": "uint256",
          "name": "configuration",
          "type": "uint256"
        }
      ],
      "stateMutability": "nonpayable",
      "type": "function"
    },
    {
      "inputs": [
        {
          "internalType": "address",
          "name": "_owner",
          "type": "address"
        },
        {
          "components": [
            {
              "internalType": "contract IJBDirectory",
              "name": "directory",
              "type": "address"
            },
            {
              "internalType": "string",
              "name": "name",
              "type": "string"
            },
            {
              "internalType": "string",
              "name": "symbol",
              "type": "string"
            },
            {
              "internalType": "contract IJBFundingCycleStore",
              "name": "fundingCycleStore",
              "type": "address"
            },
            {
              "internalType": "string",
              "name": "baseUri",
              "type": "string"
            },
            {
              "internalType": "contract IJBTokenUriResolver",
              "name": "tokenUriResolver",
              "type": "address"
            },
            {
              "internalType": "string",
              "name": "contractUri",
              "type": "string"
            },
            {
              "internalType": "address",
              "name": "owner",
              "type": "address"
            },
            {
              "components": [
                {
                  "components": [
                    {
                      "internalType": "uint80",
                      "name": "contributionFloor",
                      "type": "uint80"
                    },
                    {
                      "internalType": "uint48",
                      "name": "lockedUntil",
                      "type": "uint48"
                    },
                    {
                      "internalType": "uint40",
                      "name": "initialQuantity",
                      "type": "uint40"
                    },
                    {
                      "internalType": "uint16",
                      "name": "votingUnits",
                      "type": "uint16"
                    },
                    {
                      "internalType": "uint16",
                      "name": "reservedRate",
                      "type": "uint16"
                    },
                    {
                      "internalType": "address",
                      "name": "reservedTokenBeneficiary",
                      "type": "address"
                    },
                    {
                      "internalType": "bytes32",
                      "name": "encodedIPFSUri",
                      "type": "bytes32"
                    },
                    {
                      "internalType": "bool",
                      "name": "allowManualMint",
                      "type": "bool"
                    },
                    {
                      "internalType": "bool",
                      "name": "shouldUseBeneficiaryAsDefault",
                      "type": "bool"
                    },
                    {
                      "internalType": "bool",
                      "name": "transfersPausable",
                      "type": "bool"
                    }
                  ],
                  "internalType": "struct JB721TierParams[]",
                  "name": "tiers",
                  "type": "tuple[]"
                },
                {
                  "internalType": "uint256",
                  "name": "currency",
                  "type": "uint256"
                },
                {
                  "internalType": "uint256",
                  "name": "decimals",
                  "type": "uint256"
                },
                {
                  "internalType": "contract IJBPrices",
                  "name": "prices",
                  "type": "address"
                }
              ],
              "internalType": "struct JB721PricingParams",
              "name": "pricing",
              "type": "tuple"
            },
            {
              "internalType": "address",
              "name": "reservedTokenBeneficiary",
              "type": "address"
            },
            {
              "internalType": "contract IJBTiered721DelegateStore",
              "name": "store",
              "type": "address"
            },
            {
              "components": [
                {
                  "internalType": "bool",
                  "name": "lockReservedTokenChanges",
                  "type": "bool"
                },
                {
                  "internalType": "bool",
                  "name": "lockVotingUnitChanges",
                  "type": "bool"
                },
                {
                  "internalType": "bool",
                  "name": "lockManualMintingChanges",
                  "type": "bool"
                }
              ],
              "internalType": "struct JBTiered721Flags",
              "name": "flags",
              "type": "tuple"
            },
            {
              "internalType": "enum JB721GovernanceType",
              "name": "governanceType",
              "type": "uint8"
            }
          ],
          "internalType": "struct JBDeployTiered721DelegateData",
          "name": "_deployTiered721DelegateData",
          "type": "tuple"
        },
        {
          "components": [
            {
              "components": [
                {
                  "internalType": "string",
                  "name": "content",
                  "type": "string"
                },
                {
                  "internalType": "uint256",
                  "name": "domain",
                  "type": "uint256"
                }
              ],
              "internalType": "struct JBProjectMetadata",
              "name": "projectMetadata",
              "type": "tuple"
            },
            {
              "components": [
                {
                  "internalType": "uint256",
                  "name": "duration",
                  "type": "uint256"
                },
                {
                  "internalType": "uint256",
                  "name": "weight",
                  "type": "uint256"
                },
                {
                  "internalType": "uint256",
                  "name": "discountRate",
                  "type": "uint256"
                },
                {
                  "internalType": "contract IJBFundingCycleBallot",
                  "name": "ballot",
                  "type": "address"
                }
              ],
              "internalType": "struct JBFundingCycleData",
              "name": "data",
              "type": "tuple"
            },
            {
              "components": [
                {
                  "components": [
                    {
                      "internalType": "bool",
                      "name": "allowSetTerminals",
                      "type": "bool"
                    },
                    {
                      "internalType": "bool",
                      "name": "allowSetController",
                      "type": "bool"
                    },
                    {
                      "internalType": "bool",
                      "name": "pauseTransfers",
                      "type": "bool"
                    }
                  ],
                  "internalType": "struct JBGlobalFundingCycleMetadata",
                  "name": "global",
                  "type": "tuple"
                },
                {
                  "internalType": "uint256",
                  "name": "reservedRate",
                  "type": "uint256"
                },
                {
                  "internalType": "uint256",
                  "name": "redemptionRate",
                  "type": "uint256"
                },
                {
                  "internalType": "uint256",
                  "name": "ballotRedemptionRate",
                  "type": "uint256"
                },
                {
                  "internalType": "bool",
                  "name": "pausePay",
                  "type": "bool"
                },
                {
                  "internalType": "bool",
                  "name": "pauseDistributions",
                  "type": "bool"
                },
                {
                  "internalType": "bool",
                  "name": "pauseRedeem",
                  "type": "bool"
                },
                {
                  "internalType": "bool",
                  "name": "pauseBurn",
                  "type": "bool"
                },
                {
                  "internalType": "bool",
                  "name": "allowMinting",
                  "type": "bool"
                },
                {
                  "internalType": "bool",
                  "name": "allowTerminalMigration",
                  "type": "bool"
                },
                {
                  "internalType": "bool",
                  "name": "allowControllerMigration",
                  "type": "bool"
                },
                {
                  "internalType": "bool",
                  "name": "holdFees",
                  "type": "bool"
                },
                {
                  "internalType": "bool",
                  "name": "preferClaimedTokenOverride",
                  "type": "bool"
                },
                {
                  "internalType": "bool",
                  "name": "useTotalOverflowForRedemptions",
                  "type": "bool"
                },
                {
                  "internalType": "bool",
                  "name": "useDataSourceForRedeem",
                  "type": "bool"
                },
                {
                  "internalType": "uint256",
                  "name": "metadata",
                  "type": "uint256"
                }
              ],
              "internalType": "struct JBPayDataSourceFundingCycleMetadata",
              "name": "metadata",
              "type": "tuple"
            },
            {
              "internalType": "uint256",
              "name": "mustStartAtOrAfter",
              "type": "uint256"
            },
            {
              "components": [
                {
                  "internalType": "uint256",
                  "name": "group",
                  "type": "uint256"
                },
                {
                  "components": [
                    {
                      "internalType": "bool",
                      "name": "preferClaimed",
                      "type": "bool"
                    },
                    {
                      "internalType": "bool",
                      "name": "preferAddToBalance",
                      "type": "bool"
                    },
                    {
                      "internalType": "uint256",
                      "name": "percent",
                      "type": "uint256"
                    },
                    {
                      "internalType": "uint256",
                      "name": "projectId",
                      "type": "uint256"
                    },
                    {
                      "internalType": "address payable",
                      "name": "beneficiary",
                      "type": "address"
                    },
                    {
                      "internalType": "uint256",
                      "name": "lockedUntil",
                      "type": "uint256"
                    },
                    {
                      "internalType": "contract IJBSplitAllocator",
                      "name": "allocator",
                      "type": "address"
                    }
                  ],
                  "internalType": "struct JBSplit[]",
                  "name": "splits",
                  "type": "tuple[]"
                }
              ],
              "internalType": "struct JBGroupedSplits[]",
              "name": "groupedSplits",
              "type": "tuple[]"
            },
            {
              "components": [
                {
                  "internalType": "contract IJBPaymentTerminal",
                  "name": "terminal",
                  "type": "address"
                },
                {
                  "internalType": "address",
                  "name": "token",
                  "type": "address"
                },
                {
                  "internalType": "uint256",
                  "name": "distributionLimit",
                  "type": "uint256"
                },
                {
                  "internalType": "uint256",
                  "name": "distributionLimitCurrency",
                  "type": "uint256"
                },
                {
                  "internalType": "uint256",
                  "name": "overflowAllowance",
                  "type": "uint256"
                },
                {
                  "internalType": "uint256",
                  "name": "overflowAllowanceCurrency",
                  "type": "uint256"
                }
              ],
              "internalType": "struct JBFundAccessConstraints[]",
              "name": "fundAccessConstraints",
              "type": "tuple[]"
            },
            {
              "internalType": "contract IJBPaymentTerminal[]",
              "name": "terminals",
              "type": "address[]"
            },
            {
              "internalType": "string",
              "name": "memo",
              "type": "string"
            }
          ],
          "internalType": "struct JBLaunchProjectData",
          "name": "_launchProjectData",
          "type": "tuple"
        }
      ],
      "name": "launchProjectFor",
      "outputs": [
        {
          "internalType": "uint256",
          "name": "projectId",
          "type": "uint256"
        }
      ],
      "stateMutability": "nonpayable",
      "type": "function"
    },
    {
      "inputs": [],
      "name": "operatorStore",
      "outputs": [
        {
          "internalType": "contract IJBOperatorStore",
          "name": "",
          "type": "address"
        }
      ],
      "stateMutability": "view",
      "type": "function"
    },
    {
      "inputs": [
        {
          "internalType": "uint256",
          "name": "_projectId",
          "type": "uint256"
        },
        {
          "components": [
            {
              "internalType": "contract IJBDirectory",
              "name": "directory",
              "type": "address"
            },
            {
              "internalType": "string",
              "name": "name",
              "type": "string"
            },
            {
              "internalType": "string",
              "name": "symbol",
              "type": "string"
            },
            {
              "internalType": "contract IJBFundingCycleStore",
              "name": "fundingCycleStore",
              "type": "address"
            },
            {
              "internalType": "string",
              "name": "baseUri",
              "type": "string"
            },
            {
              "internalType": "contract IJBTokenUriResolver",
              "name": "tokenUriResolver",
              "type": "address"
            },
            {
              "internalType": "string",
              "name": "contractUri",
              "type": "string"
            },
            {
              "internalType": "address",
              "name": "owner",
              "type": "address"
            },
            {
              "components": [
                {
                  "components": [
                    {
                      "internalType": "uint80",
                      "name": "contributionFloor",
                      "type": "uint80"
                    },
                    {
                      "internalType": "uint48",
                      "name": "lockedUntil",
                      "type": "uint48"
                    },
                    {
                      "internalType": "uint40",
                      "name": "initialQuantity",
                      "type": "uint40"
                    },
                    {
                      "internalType": "uint16",
                      "name": "votingUnits",
                      "type": "uint16"
                    },
                    {
                      "internalType": "uint16",
                      "name": "reservedRate",
                      "type": "uint16"
                    },
                    {
                      "internalType": "address",
                      "name": "reservedTokenBeneficiary",
                      "type": "address"
                    },
                    {
                      "internalType": "bytes32",
                      "name": "encodedIPFSUri",
                      "type": "bytes32"
                    },
                    {
                      "internalType": "bool",
                      "name": "allowManualMint",
                      "type": "bool"
                    },
                    {
                      "internalType": "bool",
                      "name": "shouldUseBeneficiaryAsDefault",
                      "type": "bool"
                    },
                    {
                      "internalType": "bool",
                      "name": "transfersPausable",
                      "type": "bool"
                    }
                  ],
                  "internalType": "struct JB721TierParams[]",
                  "name": "tiers",
                  "type": "tuple[]"
                },
                {
                  "internalType": "uint256",
                  "name": "currency",
                  "type": "uint256"
                },
                {
                  "internalType": "uint256",
                  "name": "decimals",
                  "type": "uint256"
                },
                {
                  "internalType": "contract IJBPrices",
                  "name": "prices",
                  "type": "address"
                }
              ],
              "internalType": "struct JB721PricingParams",
              "name": "pricing",
              "type": "tuple"
            },
            {
              "internalType": "address",
              "name": "reservedTokenBeneficiary",
              "type": "address"
            },
            {
              "internalType": "contract IJBTiered721DelegateStore",
              "name": "store",
              "type": "address"
            },
            {
              "components": [
                {
                  "internalType": "bool",
                  "name": "lockReservedTokenChanges",
                  "type": "bool"
                },
                {
                  "internalType": "bool",
                  "name": "lockVotingUnitChanges",
                  "type": "bool"
                },
                {
                  "internalType": "bool",
                  "name": "lockManualMintingChanges",
                  "type": "bool"
                }
              ],
              "internalType": "struct JBTiered721Flags",
              "name": "flags",
              "type": "tuple"
            },
            {
              "internalType": "enum JB721GovernanceType",
              "name": "governanceType",
              "type": "uint8"
            }
          ],
          "internalType": "struct JBDeployTiered721DelegateData",
          "name": "_deployTiered721DelegateData",
          "type": "tuple"
        },
        {
          "components": [
            {
              "components": [
                {
                  "internalType": "uint256",
                  "name": "duration",
                  "type": "uint256"
                },
                {
                  "internalType": "uint256",
                  "name": "weight",
                  "type": "uint256"
                },
                {
                  "internalType": "uint256",
                  "name": "discountRate",
                  "type": "uint256"
                },
                {
                  "internalType": "contract IJBFundingCycleBallot",
                  "name": "ballot",
                  "type": "address"
                }
              ],
              "internalType": "struct JBFundingCycleData",
              "name": "data",
              "type": "tuple"
            },
            {
              "components": [
                {
                  "components": [
                    {
                      "internalType": "bool",
                      "name": "allowSetTerminals",
                      "type": "bool"
                    },
                    {
                      "internalType": "bool",
                      "name": "allowSetController",
                      "type": "bool"
                    },
                    {
                      "internalType": "bool",
                      "name": "pauseTransfers",
                      "type": "bool"
                    }
                  ],
                  "internalType": "struct JBGlobalFundingCycleMetadata",
                  "name": "global",
                  "type": "tuple"
                },
                {
                  "internalType": "uint256",
                  "name": "reservedRate",
                  "type": "uint256"
                },
                {
                  "internalType": "uint256",
                  "name": "redemptionRate",
                  "type": "uint256"
                },
                {
                  "internalType": "uint256",
                  "name": "ballotRedemptionRate",
                  "type": "uint256"
                },
                {
                  "internalType": "bool",
                  "name": "pausePay",
                  "type": "bool"
                },
                {
                  "internalType": "bool",
                  "name": "pauseDistributions",
                  "type": "bool"
                },
                {
                  "internalType": "bool",
                  "name": "pauseRedeem",
                  "type": "bool"
                },
                {
                  "internalType": "bool",
                  "name": "pauseBurn",
                  "type": "bool"
                },
                {
                  "internalType": "bool",
                  "name": "allowMinting",
                  "type": "bool"
                },
                {
                  "internalType": "bool",
                  "name": "allowTerminalMigration",
                  "type": "bool"
                },
                {
                  "internalType": "bool",
                  "name": "allowControllerMigration",
                  "type": "bool"
                },
                {
                  "internalType": "bool",
                  "name": "holdFees",
                  "type": "bool"
                },
                {
                  "internalType": "bool",
                  "name": "preferClaimedTokenOverride",
                  "type": "bool"
                },
                {
                  "internalType": "bool",
                  "name": "useTotalOverflowForRedemptions",
                  "type": "bool"
                },
                {
                  "internalType": "bool",
                  "name": "useDataSourceForRedeem",
                  "type": "bool"
                },
                {
                  "internalType": "uint256",
                  "name": "metadata",
                  "type": "uint256"
                }
              ],
              "internalType": "struct JBPayDataSourceFundingCycleMetadata",
              "name": "metadata",
              "type": "tuple"
            },
            {
              "internalType": "uint256",
              "name": "mustStartAtOrAfter",
              "type": "uint256"
            },
            {
              "components": [
                {
                  "internalType": "uint256",
                  "name": "group",
                  "type": "uint256"
                },
                {
                  "components": [
                    {
                      "internalType": "bool",
                      "name": "preferClaimed",
                      "type": "bool"
                    },
                    {
                      "internalType": "bool",
                      "name": "preferAddToBalance",
                      "type": "bool"
                    },
                    {
                      "internalType": "uint256",
                      "name": "percent",
                      "type": "uint256"
                    },
                    {
                      "internalType": "uint256",
                      "name": "projectId",
                      "type": "uint256"
                    },
                    {
                      "internalType": "address payable",
                      "name": "beneficiary",
                      "type": "address"
                    },
                    {
                      "internalType": "uint256",
                      "name": "lockedUntil",
                      "type": "uint256"
                    },
                    {
                      "internalType": "contract IJBSplitAllocator",
                      "name": "allocator",
                      "type": "address"
                    }
                  ],
                  "internalType": "struct JBSplit[]",
                  "name": "splits",
                  "type": "tuple[]"
                }
              ],
              "internalType": "struct JBGroupedSplits[]",
              "name": "groupedSplits",
              "type": "tuple[]"
            },
            {
              "components": [
                {
                  "internalType": "contract IJBPaymentTerminal",
                  "name": "terminal",
                  "type": "address"
                },
                {
                  "internalType": "address",
                  "name": "token",
                  "type": "address"
                },
                {
                  "internalType": "uint256",
                  "name": "distributionLimit",
                  "type": "uint256"
                },
                {
                  "internalType": "uint256",
                  "name": "distributionLimitCurrency",
                  "type": "uint256"
                },
                {
                  "internalType": "uint256",
                  "name": "overflowAllowance",
                  "type": "uint256"
                },
                {
                  "internalType": "uint256",
                  "name": "overflowAllowanceCurrency",
                  "type": "uint256"
                }
              ],
              "internalType": "struct JBFundAccessConstraints[]",
              "name": "fundAccessConstraints",
              "type": "tuple[]"
            },
            {
              "internalType": "string",
              "name": "memo",
              "type": "string"
            }
          ],
          "internalType": "struct JBReconfigureFundingCyclesData",
          "name": "_reconfigureFundingCyclesData",
          "type": "tuple"
        }
      ],
      "name": "reconfigureFundingCyclesOf",
      "outputs": [
        {
          "internalType": "uint256",
          "name": "configuration",
          "type": "uint256"
        }
      ],
      "stateMutability": "nonpayable",
      "type": "function"
    }
  ],
  "bytecode": {
    "object": "0x60e06040523480156200001157600080fd5b50604051620024ec380380620024ec83398101604081905262000034916200006b565b6001600160a01b0390811660805291821660a0521660c052620000bf565b6001600160a01b03811681146200006857600080fd5b50565b6000806000606084860312156200008157600080fd5b83516200008e8162000052565b6020850151909350620000a18162000052565b6040850151909250620000b48162000052565b809150509250925092565b60805160a05160c0516123b26200013a60003960008181609201528181610236015281816103f401526105a101526000818161011e01528181610144015281816102de0152818161048b0152818161062a0152818161098a0152610b6801526000818160e40152818161084f01526108f601526123b26000f3fe608060405234801561001057600080fd5b50600436106100625760003560e01c806339deb389146100675780638f3d964b1461008d578063a854fbe7146100cc578063ad007d63146100df578063c2a5d62314610106578063f77c479114610119575b600080fd5b61007a61007536600461175d565b610140565b6040519081526020015b60405180910390f35b6100b47f000000000000000000000000000000000000000000000000000000000000000081565b6040516001600160a01b039091168152602001610084565b61007a6100da3660046118c6565b6102da565b6100b47f000000000000000000000000000000000000000000000000000000000000000081565b61007a610114366004611a02565b610487565b6100b47f000000000000000000000000000000000000000000000000000000000000000081565b60007f00000000000000000000000000000000000000000000000000000000000000006001600160a01b0316638b79543c6040518163ffffffff1660e01b8152600401602060405180830381865afa1580156101a0573d6000803e3d6000fd5b505050506040513d601f19601f820116820180604052508101906101c49190611b19565b6001600160a01b03166306661abd6040518163ffffffff1660e01b8152600401602060405180830381865afa158015610201573d6000803e3d6000fd5b505050506040513d601f19601f820116820180604052508101906102259190611b3d565b610230906001611b56565b905060007f00000000000000000000000000000000000000000000000000000000000000006001600160a01b03166322a74c0a83866040518363ffffffff1660e01b8152600401610282929190611ced565b6020604051808303816000875af11580156102a1573d6000803e3d6000fd5b505050506040513d601f19601f820116820180604052508101906102c59190611b19565b90506102d2858483610628565b509392505050565b60007f00000000000000000000000000000000000000000000000000000000000000006001600160a01b0316638b79543c6040518163ffffffff1660e01b8152600401602060405180830381865afa15801561033a573d6000803e3d6000fd5b505050506040513d601f19601f8201168201806040525081019061035e9190611b19565b6001600160a01b0316636352211e856040518263ffffffff1660e01b815260040161038b91815260200190565b602060405180830381865afa1580156103a8573d6000803e3d6000fd5b505050506040513d601f19601f820116820180604052508101906103cc9190611b19565b8460016103da838383610808565b604051631153a60560e11b81526000906001600160a01b037f000000000000000000000000000000000000000000000000000000000000000016906322a74c0a9061042b908b908b90600401611ced565b6020604051808303816000875af115801561044a573d6000803e3d6000fd5b505050506040513d601f19601f8201168201806040525081019061046e9190611b19565b905061047b888783610986565b98975050505050505050565b60007f00000000000000000000000000000000000000000000000000000000000000006001600160a01b0316638b79543c6040518163ffffffff1660e01b8152600401602060405180830381865afa1580156104e7573d6000803e3d6000fd5b505050506040513d601f19601f8201168201806040525081019061050b9190611b19565b6001600160a01b0316636352211e856040518263ffffffff1660e01b815260040161053891815260200190565b602060405180830381865afa158015610555573d6000803e3d6000fd5b505050506040513d601f19601f820116820180604052508101906105799190611b19565b846001610587838383610808565b604051631153a60560e11b81526000906001600160a01b037f000000000000000000000000000000000000000000000000000000000000000016906322a74c0a906105d8908b908b90600401611ced565b6020604051808303816000875af11580156105f7573d6000803e3d6000fd5b505050506040513d601f19601f8201168201806040525081019061061b9190611b19565b905061047b888783610b64565b7f00000000000000000000000000000000000000000000000000000000000000006001600160a01b031663b3c526738484600001518560200151604051806102400160405280886040015160000151815260200188604001516020015181526020018860400151604001518152602001886040015160600151815260200188604001516080015115158152602001886040015160a0015115158152602001886040015160c0015115158152602001886040015160e00151151581526020018860400151610100015115158152602001886040015161012001511515815260200188604001516101400151151581526020018860400151610160015115158152602001886040015161018001511515815260200188604001516101a001511515815260200160011515815260200188604001516101c0015115158152602001876001600160a01b0316815260200188604001516101e00151815250876060015188608001518960a001518a60c001518b60e001516040518a63ffffffff1660e01b81526004016107bf999897969594939291906121a0565b6020604051808303816000875af11580156107de573d6000803e3d6000fd5b505050506040513d601f19601f820116820180604052508101906108029190611b3d565b50505050565b336001600160a01b038416148015906108bc575060405163c161c93f60e01b81523360048201526001600160a01b03848116602483015260448201849052606482018390527f0000000000000000000000000000000000000000000000000000000000000000169063c161c93f90608401602060405180830381865afa158015610896573d6000803e3d6000fd5b505050506040513d601f19601f820116820180604052508101906108ba9190612261565b155b8015610963575060405163c161c93f60e01b81523360048201526001600160a01b03848116602483015260006044830152606482018390527f0000000000000000000000000000000000000000000000000000000000000000169063c161c93f90608401602060405180830381865afa15801561093d573d6000803e3d6000fd5b505050506040513d601f19601f820116820180604052508101906109619190612261565b155b156109815760405163075fd2b160e01b815260040160405180910390fd5b505050565b60007f00000000000000000000000000000000000000000000000000000000000000006001600160a01b031663111d861b858560000151604051806102400160405280886020015160000151815260200188602001516020015181526020018860200151604001518152602001886020015160600151815260200188602001516080015115158152602001886020015160a0015115158152602001886020015160c0015115158152602001886020015160e00151151581526020018860200151610100015115158152602001886020015161012001511515815260200188602001516101400151151581526020018860200151610160015115158152602001886020015161018001511515815260200188602001516101a001511515815260200160011515815260200188602001516101c0015115158152602001876001600160a01b0316815260200188602001516101e001518152508760400151886060015189608001518a60a001518b60c001516040518963ffffffff1660e01b8152600401610b1998979695949392919061227e565b6020604051808303816000875af1158015610b38573d6000803e3d6000fd5b505050506040513d601f19601f82011682018060405250810190610b5c9190611b3d565b949350505050565b60007f00000000000000000000000000000000000000000000000000000000000000006001600160a01b031663badbdf28858560000151604051806102400160405280886020015160000151815260200188602001516020015181526020018860200151604001518152602001886020015160600151815260200188602001516080015115158152602001886020015160a0015115158152602001886020015160c0015115158152602001886020015160e00151151581526020018860200151610100015115158152602001886020015161012001511515815260200188602001516101400151151581526020018860200151610160015115158152602001886020015161018001511515815260200188602001516101a001511515815260200160011515815260200188602001516101c0015115158152602001876001600160a01b0316815260200188602001516101e001518152508760400151886060015189608001518a60a001516040518863ffffffff1660e01b8152600401610b199796959493929190612308565b6001600160a01b0381168114610d0657600080fd5b50565b8035610d1481610cf1565b919050565b634e487b7160e01b600052604160045260246000fd5b604051608081016001600160401b0381118282101715610d5157610d51610d19565b60405290565b60405161014081016001600160401b0381118282101715610d5157610d51610d19565b6040516101a081016001600160401b0381118282101715610d5157610d51610d19565b604080519081016001600160401b0381118282101715610d5157610d51610d19565b60405161020081016001600160401b0381118282101715610d5157610d51610d19565b60405160e081016001600160401b0381118282101715610d5157610d51610d19565b60405160c081016001600160401b0381118282101715610d5157610d51610d19565b60405161010081016001600160401b0381118282101715610d5157610d51610d19565b604051601f8201601f191681016001600160401b0381118282101715610e7157610e71610d19565b604052919050565b600082601f830112610e8a57600080fd5b81356001600160401b03811115610ea357610ea3610d19565b610eb6601f8201601f1916602001610e49565b818152846020838601011115610ecb57600080fd5b816020850160208301376000918101602001919091529392505050565b60006001600160401b03821115610f0157610f01610d19565b5060051b60200190565b803569ffffffffffffffffffff81168114610d1457600080fd5b803565ffffffffffff81168114610d1457600080fd5b803564ffffffffff81168114610d1457600080fd5b803561ffff81168114610d1457600080fd5b8015158114610d0657600080fd5b8035610d1481610f62565b60006080808385031215610f8e57600080fd5b610f96610d2f565b915082356001600160401b03811115610fae57600080fd5b8301601f81018513610fbf57600080fd5b80356020610fd4610fcf83610ee8565b610e49565b8281526101409283028401820192828201919089851115610ff457600080fd5b948301945b848610156110c35780868b0312156110115760008081fd5b611019610d57565b61102287610f0b565b815261102f858801610f25565b858201526040611040818901610f3b565b908201526060611051888201610f50565b90820152611060878901610f50565b8882015260a0611071818901610d09565b9082015260c0878101359082015260e061108c818901610f70565b9082015261010061109e888201610f70565b908201526101206110b0888201610f70565b9082015283529485019491830191610ff9565b508652508581013590850152505050604080830135908201526110e860608301610d09565b606082015292915050565b60006060828403121561110557600080fd5b604051606081018181106001600160401b038211171561112757611127610d19565b604052905080823561113881610f62565b8152602083013561114881610f62565b6020820152604083013561115b81610f62565b6040919091015292915050565b803560038110610d1457600080fd5b60006101e0828403121561118a57600080fd5b611192610d7a565b905061119d82610d09565b815260208201356001600160401b03808211156111b957600080fd5b6111c585838601610e79565b602084015260408401359150808211156111de57600080fd5b6111ea85838601610e79565b60408401526111fb60608501610d09565b6060840152608084013591508082111561121457600080fd5b61122085838601610e79565b608084015261123160a08501610d09565b60a084015260c084013591508082111561124a57600080fd5b61125685838601610e79565b60c084015261126760e08501610d09565b60e08401526101009150818401358181111561128257600080fd5b61128e86828701610f7b565b838501525050506101206112a3818401610d09565b908201526101406112b5838201610d09565b908201526101606112c8848483016110f3565b908201526112d96101c08301611168565b61018082015292915050565b6000604082840312156112f757600080fd5b6112ff610d9d565b905081356001600160401b0381111561131757600080fd5b61132384828501610e79565b8252506020820135602082015292915050565b60006080828403121561134857600080fd5b611350610d2f565b905081358152602082013560208201526040820135604082015260608201356110e881610cf1565b6000610240828403121561138b57600080fd5b611393610dbf565b905061139f83836110f3565b8152606082013560208201526080820135604082015260a082013560608201526113cb60c08301610f70565b60808201526113dc60e08301610f70565b60a08201526101006113ef818401610f70565b60c0830152610120611402818501610f70565b60e0840152610140611415818601610f70565b838501526101609250611429838601610f70565b82850152610180915061143d828601610f70565b908401526101a061144f858201610f70565b838501526101c09250611463838601610f70565b828501526101e09150611477828601610f70565b908401526114886102008501610f70565b8284015261022084013581840152505092915050565b600082601f8301126114af57600080fd5b813560206114bf610fcf83610ee8565b82815260059290921b840181019181810190868411156114de57600080fd5b8286015b8481101561162a5780356001600160401b038082111561150157600080fd5b908801906040828b03601f190181131561151a57600080fd5b611522610d9d565b878401358152818401358381111561153957600080fd5b8085019450508b603f85011261154e57600080fd5b878401359250611560610fcf84610ee8565b83815260e09093028401820192888101908d85111561157e57600080fd5b948301945b848610156116155760e0868f03121561159b57600080fd5b6115a3610de2565b86356115ae81610f62565b8152868b01356115bd81610f62565b818c015286850135858201526060808801359082015260808701356115e181610cf1565b608082015260a0878101359082015260c08701356115fe81610cf1565b60c0820152825260e0959095019490890190611583565b828a01525086525050509183019183016114e2565b509695505050505050565b600082601f83011261164657600080fd5b81356020611656610fcf83610ee8565b82815260c0928302850182019282820191908785111561167557600080fd5b8387015b858110156116ec5781818a0312156116915760008081fd5b611699610e04565b81356116a481610cf1565b8152818601356116b381610cf1565b8187015260408281013590820152606080830135908201526080808301359082015260a080830135908201528452928401928101611679565b5090979650505050505050565b600082601f83011261170a57600080fd5b8135602061171a610fcf83610ee8565b82815260059290921b8401810191818101908684111561173957600080fd5b8286015b8481101561162a57803561175081610cf1565b835291830191830161173d565b60008060006060848603121561177257600080fd5b833561177d81610cf1565b925060208401356001600160401b038082111561179957600080fd5b6117a587838801611177565b935060408601359150808211156117bb57600080fd5b9085019061038082880312156117d057600080fd5b6117d8610e26565b8235828111156117e757600080fd5b6117f3898286016112e5565b8252506118038860208501611336565b60208201526118158860a08501611378565b60408201526102e083013560608201526103008301358281111561183857600080fd5b6118448982860161149e565b6080830152506103208301358281111561185d57600080fd5b61186989828601611635565b60a0830152506103408301358281111561188257600080fd5b61188e898286016116f9565b60c083015250610360830135828111156118a757600080fd5b6118b389828601610e79565b60e0830152508093505050509250925092565b6000806000606084860312156118db57600080fd5b8335925060208401356001600160401b03808211156118f957600080fd5b61190587838801611177565b9350604086013591508082111561191b57600080fd5b90850190610360828803121561193057600080fd5b611938610de2565b6119428884611336565b81526119518860808501611378565b60208201526102c083013560408201526102e08301358281111561197457600080fd5b6119808982860161149e565b6060830152506103008301358281111561199957600080fd5b6119a589828601611635565b608083015250610320830135828111156119be57600080fd5b6119ca898286016116f9565b60a083015250610340830135828111156119e357600080fd5b6119ef89828601610e79565b60c0830152508093505050509250925092565b600080600060608486031215611a1757600080fd5b8335925060208401356001600160401b0380821115611a3557600080fd5b611a4187838801611177565b93506040860135915080821115611a5757600080fd5b908501906103408288031215611a6c57600080fd5b611a74610e04565b611a7e8884611336565b8152611a8d8860808501611378565b60208201526102c083013560408201526102e083013582811115611ab057600080fd5b611abc8982860161149e565b60608301525061030083013582811115611ad557600080fd5b611ae189828601611635565b60808301525061032083013582811115611afa57600080fd5b611b0689828601610e79565b60a0830152508093505050509250925092565b600060208284031215611b2b57600080fd5b8151611b3681610cf1565b9392505050565b600060208284031215611b4f57600080fd5b5051919050565b80820180821115611b7757634e487b7160e01b600052601160045260246000fd5b92915050565b6000815180845260005b81811015611ba357602081850181015186830182015201611b87565b506000602082860101526020601f19601f83011685010191505092915050565b80516080808452815184820181905260009260a0916020918201918388019190865b82811015611c90578451805169ffffffffffffffffffff1685528281015165ffffffffffff168386015260408082015164ffffffffff169086015260608082015161ffff90811691870191909152888201511688860152868101516001600160a01b03168786015260c0808201519086015260e08082015115159086015261010080820151151590860152610120908101511515908501529381019361014090930192600101611be5565b5080880151818a015250506040860151604088015260608601519350611cc160608801856001600160a01b03169052565b9695505050505050565b60038110611ce957634e487b7160e01b600052602160045260246000fd5b9052565b82815260406020820152611d0d6040820183516001600160a01b03169052565b600060208301516101e06060840152611d2a610220840182611b7d565b90506040840151603f1980858403016080860152611d488383611b7d565b925060608601519150611d6660a08601836001600160a01b03169052565b60808601519150808584030160c0860152611d818383611b7d565b925060a08601519150611d9f60e08601836001600160a01b03169052565b60c08601519150610100818685030181870152611dbc8484611b7d565b935060e08701519250610120611ddc818801856001600160a01b03169052565b8188015193506101409150828786030182880152611dfa8585611bc3565b9450808801519350506101609150611e1c828701846001600160a01b03169052565b8601519150610180611e38868201846001600160a01b03169052565b90860151805115156101a0870152602081015115156101c08701526040015115156101e08601528501519050611e72610200850182611ccb565b50949350505050565b8051825260208082015190830152604080820151908301526060908101516001600160a01b0316910152565b611ecc8282518051151582526020808201511515908301526040908101511515910152565b6020810151606083015260408101516080830152606081015160a08301526080810151611efd60c084018215159052565b5060a081015180151560e08401525060c0810151610100611f218185018315159052565b60e08301519150610120611f388186018415159052565b90830151915061014090611f4f8583018415159052565b8301519150610160611f648582018415159052565b90830151915061018090611f7b8583018415159052565b83015191506101a0611f908582018415159052565b9083015191506101c090611fa78583018415159052565b83015191506101e0611fbc8582018415159052565b90830151915061020090611fd38583018415159052565b8301519150610220611fe88582018415159052565b908301516001600160a01b0316610240850152909101516102609092019190915250565b600081518084526020808501808196508360051b810191508286016000805b868110156120de578385038a52825180518652860151604087870181905281518188018190529188019160609081890190865b818110156120c75785518051151584528c81015115158d850152858101518685015284810151858501526080808201516001600160a01b039081169186019190915260a0808301519086015260c0918201511690840152948b019460e09092019160010161205e565b50509c89019c97505050928601925060010161202b565b509298975050505050505050565b600081518084526020808501945080840160005b8381101561215c57815180516001600160a01b03908116895284820151168489015260408082015190890152606080820151908901526080808201519089015260a0908101519088015260c09096019590820190600101612100565b509495945050505050565b600081518084526020808501945080840160005b8381101561215c5781516001600160a01b03168752958201959082019060010161217b565b6001600160a01b038a1681526103e0602082018190528951604083830152600091906121d0610420850182611b7d565b91505060208b01516104008401526121eb604084018b611e7b565b6121f860c084018a611ea7565b87610340840152828103610360840152612212818861200c565b905082810361038084015261222781876120ec565b90508281036103a084015261223c8186612167565b90508281036103c08401526122518185611b7d565b9c9b505050505050505050505050565b60006020828403121561227357600080fd5b8151611b3681610f62565b60006103c08a8352612293602084018b611e7b565b6122a060a084018a611ea7565b87610320840152806103408401526122ba8184018861200c565b90508281036103608401526122cf81876120ec565b90508281036103808401526122e48186612167565b90508281036103a08401526122f98185611b7d565b9b9a5050505050505050505050565b60006103a089835261231d602084018a611e7b565b61232a60a0840189611ea7565b86610320840152806103408401526123448184018761200c565b905082810361036084015261235981866120ec565b905082810361038084015261236e8185611b7d565b9a995050505050505050505056fea2646970667358221220c1e7fdc1b86c51c275c4e17abab0e89b49ddaf87f978bc8885df18057975ed2d64736f6c63430008100033",
    "linkReferences": {}
  },
  "methodIdentifiers": {
    "controller()": "f77c4791",
    "delegateDeployer()": "8f3d964b",
    "launchFundingCyclesFor(uint256,(address,string,string,address,string,address,string,address,((uint80,uint48,uint40,uint16,uint16,address,bytes32,bool,bool,bool)[],uint256,uint256,address),address,address,(bool,bool,bool),uint8),((uint256,uint256,uint256,address),((bool,bool,bool),uint256,uint256,uint256,bool,bool,bool,bool,bool,bool,bool,bool,bool,bool,bool,uint256),uint256,(uint256,(bool,bool,uint256,uint256,address,uint256,address)[])[],(address,address,uint256,uint256,uint256,uint256)[],address[],string))": "a854fbe7",
    "launchProjectFor(address,(address,string,string,address,string,address,string,address,((uint80,uint48,uint40,uint16,uint16,address,bytes32,bool,bool,bool)[],uint256,uint256,address),address,address,(bool,bool,bool),uint8),((string,uint256),(uint256,uint256,uint256,address),((bool,bool,bool),uint256,uint256,uint256,bool,bool,bool,bool,bool,bool,bool,bool,bool,bool,bool,uint256),uint256,(uint256,(bool,bool,uint256,uint256,address,uint256,address)[])[],(address,address,uint256,uint256,uint256,uint256)[],address[],string))": "39deb389",
    "operatorStore()": "ad007d63",
    "reconfigureFundingCyclesOf(uint256,(address,string,string,address,string,address,string,address,((uint80,uint48,uint40,uint16,uint16,address,bytes32,bool,bool,bool)[],uint256,uint256,address),address,address,(bool,bool,bool),uint8),((uint256,uint256,uint256,address),((bool,bool,bool),uint256,uint256,uint256,bool,bool,bool,bool,bool,bool,bool,bool,bool,bool,bool,uint256),uint256,(uint256,(bool,bool,uint256,uint256,address,uint256,address)[])[],(address,address,uint256,uint256,uint256,uint256)[],string))": "c2a5d623"
  },
  "id": 4
}