{
  "_format": "hh-sol-artifact-1",
  "contractName": "JBIpfsDecoder",
  "sourceName": "contracts/libraries/JBIpfsDecoder.sol",
  "abi": [
    {
      "inputs": [
        {
          "internalType": "string",
          "name": "_baseUri",
          "type": "string"
        },
        {
          "internalType": "bytes32",
          "name": "_hexString",
          "type": "bytes32"
        }
      ],
      "name": "decode",
      "outputs": [
        {
          "internalType": "string",
          "name": "",
          "type": "string"
        }
      ],
      "stateMutability": "pure",
      "type": "function"
    }
  ],
  "bytecode": "0x61079461003a600b82828239805160001a60731461002d57634e487b7160e01b600052600060045260246000fd5b30600052607381538281f3fe73000000000000000000000000000000000000000030146080604052600436106100355760003560e01c8063030cecc71461003a575b600080fd5b61004d6100483660046104d5565b610063565b60405161005a91906105b8565b60405180910390f35b604051609160f51b6020820152602281018290526060906000906042016040516020818303038152906040529050600061009c826100ca565b905084816040516020016100b1929190610589565b6040516020818303038152906040529250505092915050565b60608151600014156100ef5760408051600080825260208201909252905b5092915050565b60408051602e8082526105e08201909252600091602082016105c080368337019050509050600081600081518110610129576101296106f8565b60ff90921660209283029190910190910152600160005b845181101561026257600085828151811061015d5761015d6106f8565b016020015160f81c905060005b8360ff168110156101f757848181518110610187576101876106f8565b602002602001015160ff1661010061019f9190610617565b6101a990836105eb565b91506101b6603a836106b8565b8582815181106101c8576101c86106f8565b60ff909216602092830291909101909101526101e5603a83610603565b91506101f08161067d565b905061016a565b505b80156102515761020a603a826106b8565b848460ff168151811061021f5761021f6106f8565b60ff909216602092830291909101909101528261023b81610698565b935061024a9050603a82610603565b90506101f9565b5061025b8161067d565b9050610140565b5061027d6102786102738484610285565b610336565b6103f3565b949350505050565b606060008260ff166001600160401b038111156102a4576102a461070e565b6040519080825280602002602001820160405280156102cd578160200160208202803683370190505b50905060005b8360ff1681101561032e578481815181106102f0576102f06106f8565b602002602001015182828151811061030a5761030a6106f8565b60ff90921660209283029190910190910152806103268161067d565b9150506102d3565b509392505050565b6060600082516001600160401b038111156103535761035361070e565b60405190808252806020026020018201604052801561037c578160200160208202803683370190505b50905060005b83518110156100e85783816001865161039b9190610636565b6103a59190610636565b815181106103b5576103b56106f8565b60200260200101518282815181106103cf576103cf6106f8565b60ff90921660209283029190910190910152806103eb8161067d565b915050610382565b6060600082516001600160401b038111156104105761041061070e565b6040519080825280601f01601f19166020018201604052801561043a576020820181803683370190505b50905060005b83518110156100e8576040518060600160405280603a8152602001610725603a9139848281518110610474576104746106f8565b602002602001015160ff168151811061048f5761048f6106f8565b602001015160f81c60f81b8282815181106104ac576104ac6106f8565b60200101906001600160f81b031916908160001a905350806104cd8161067d565b915050610440565b600080604083850312156104e857600080fd5b82356001600160401b03808211156104ff57600080fd5b818501915085601f83011261051357600080fd5b8135818111156105255761052561070e565b604051601f8201601f19908116603f0116810190838211818310171561054d5761054d61070e565b8160405282815288602084870101111561056657600080fd5b826020860160208301376000602093820184015298969091013596505050505050565b6000835161059b81846020880161064d565b8351908301906105af81836020880161064d565b01949350505050565b60208152600082518060208401526105d781604085016020870161064d565b601f01601f19169190910160400192915050565b600082198211156105fe576105fe6106cc565b500190565b600082610612576106126106e2565b500490565b6000816000190483118215151615610631576106316106cc565b500290565b600082821015610648576106486106cc565b500390565b60005b83811015610668578181015183820152602001610650565b83811115610677576000848401525b50505050565b6000600019821415610691576106916106cc565b5060010190565b600060ff821660ff8114156106af576106af6106cc565b60010192915050565b6000826106c7576106c76106e2565b500690565b634e487b7160e01b600052601160045260246000fd5b634e487b7160e01b600052601260045260246000fd5b634e487b7160e01b600052603260045260246000fd5b634e487b7160e01b600052604160045260246000fdfe31323334353637383941424344454647484a4b4c4d4e505152535455565758595a6162636465666768696a6b6d6e6f707172737475767778797aa2646970667358221220fb0aa5aee637266e45e61947b58018e7b1f4ccf2d517f7ffbe025da8ab12774f64736f6c63430008060033",
  "linkReferences": {},
  "deployedLinkReferences": {}
}