{
  "abi": [
    {
      "inputs": [
        {
          "internalType": "contract IJBOperatorStore",
          "name": "_operatorStore",
          "type": "address"
        }
      ],
      "stateMutability": "nonpayable",
      "type": "constructor"
    },
    {
      "inputs": [],
      "name": "UNAUTHORIZED",
      "type": "error"
    },
    {
      "anonymous": false,
      "inputs": [
        {
          "indexed": true,
          "internalType": "address",
          "name": "owner",
          "type": "address"
        },
        {
          "indexed": true,
          "internalType": "address",
          "name": "approved",
          "type": "address"
        },
        {
          "indexed": true,
          "internalType": "uint256",
          "name": "tokenId",
          "type": "uint256"
        }
      ],
      "name": "Approval",
      "type": "event"
    },
    {
      "anonymous": false,
      "inputs": [
        {
          "indexed": true,
          "internalType": "address",
          "name": "owner",
          "type": "address"
        },
        {
          "indexed": true,
          "internalType": "address",
          "name": "operator",
          "type": "address"
        },
        {
          "indexed": false,
          "internalType": "bool",
          "name": "approved",
          "type": "bool"
        }
      ],
      "name": "ApprovalForAll",
      "type": "event"
    },
    {
      "anonymous": false,
      "inputs": [
        {
          "indexed": true,
          "internalType": "uint256",
          "name": "projectId",
          "type": "uint256"
        },
        {
          "indexed": true,
          "internalType": "address",
          "name": "owner",
          "type": "address"
        },
        {
          "components": [
            {
              "internalType": "string",
              "name": "content",
              "type": "string"
            },
            {
              "internalType": "uint256",
              "name": "domain",
              "type": "uint256"
            }
          ],
          "indexed": false,
          "internalType": "struct JBProjectMetadata",
          "name": "metadata",
          "type": "tuple"
        },
        {
          "indexed": false,
          "internalType": "address",
          "name": "caller",
          "type": "address"
        }
      ],
      "name": "Create",
      "type": "event"
    },
    {
      "anonymous": false,
      "inputs": [
        {
          "indexed": true,
          "internalType": "address",
          "name": "delegator",
          "type": "address"
        },
        {
          "indexed": true,
          "internalType": "address",
          "name": "fromDelegate",
          "type": "address"
        },
        {
          "indexed": true,
          "internalType": "address",
          "name": "toDelegate",
          "type": "address"
        }
      ],
      "name": "DelegateChanged",
      "type": "event"
    },
    {
      "anonymous": false,
      "inputs": [
        {
          "indexed": true,
          "internalType": "address",
          "name": "delegate",
          "type": "address"
        },
        {
          "indexed": false,
          "internalType": "uint256",
          "name": "previousBalance",
          "type": "uint256"
        },
        {
          "indexed": false,
          "internalType": "uint256",
          "name": "newBalance",
          "type": "uint256"
        }
      ],
      "name": "DelegateVotesChanged",
      "type": "event"
    },
    {
      "anonymous": false,
      "inputs": [
        {
          "indexed": true,
          "internalType": "address",
          "name": "previousOwner",
          "type": "address"
        },
        {
          "indexed": true,
          "internalType": "address",
          "name": "newOwner",
          "type": "address"
        }
      ],
      "name": "OwnershipTransferred",
      "type": "event"
    },
    {
      "anonymous": false,
      "inputs": [
        {
          "indexed": true,
          "internalType": "uint256",
          "name": "projectId",
          "type": "uint256"
        },
        {
          "components": [
            {
              "internalType": "string",
              "name": "content",
              "type": "string"
            },
            {
              "internalType": "uint256",
              "name": "domain",
              "type": "uint256"
            }
          ],
          "indexed": false,
          "internalType": "struct JBProjectMetadata",
          "name": "metadata",
          "type": "tuple"
        },
        {
          "indexed": false,
          "internalType": "address",
          "name": "caller",
          "type": "address"
        }
      ],
      "name": "SetMetadata",
      "type": "event"
    },
    {
      "anonymous": false,
      "inputs": [
        {
          "indexed": true,
          "internalType": "contract IJBTokenUriResolver",
          "name": "resolver",
          "type": "address"
        },
        {
          "indexed": false,
          "internalType": "address",
          "name": "caller",
          "type": "address"
        }
      ],
      "name": "SetTokenUriResolver",
      "type": "event"
    },
    {
      "anonymous": false,
      "inputs": [
        {
          "indexed": true,
          "internalType": "address",
          "name": "from",
          "type": "address"
        },
        {
          "indexed": true,
          "internalType": "address",
          "name": "to",
          "type": "address"
        },
        {
          "indexed": true,
          "internalType": "uint256",
          "name": "tokenId",
          "type": "uint256"
        }
      ],
      "name": "Transfer",
      "type": "event"
    },
    {
      "inputs": [],
      "name": "DOMAIN_SEPARATOR",
      "outputs": [
        {
          "internalType": "bytes32",
          "name": "",
          "type": "bytes32"
        }
      ],
      "stateMutability": "view",
      "type": "function"
    },
    {
      "inputs": [
        {
          "internalType": "address",
          "name": "to",
          "type": "address"
        },
        {
          "internalType": "uint256",
          "name": "tokenId",
          "type": "uint256"
        }
      ],
      "name": "approve",
      "outputs": [],
      "stateMutability": "nonpayable",
      "type": "function"
    },
    {
      "inputs": [
        {
          "internalType": "address",
          "name": "owner",
          "type": "address"
        }
      ],
      "name": "balanceOf",
      "outputs": [
        {
          "internalType": "uint256",
          "name": "",
          "type": "uint256"
        }
      ],
      "stateMutability": "view",
      "type": "function"
    },
    {
      "inputs": [],
      "name": "count",
      "outputs": [
        {
          "internalType": "uint256",
          "name": "",
          "type": "uint256"
        }
      ],
      "stateMutability": "view",
      "type": "function"
    },
    {
      "inputs": [
        {
          "internalType": "address",
          "name": "_owner",
          "type": "address"
        },
        {
          "components": [
            {
              "internalType": "string",
              "name": "content",
              "type": "string"
            },
            {
              "internalType": "uint256",
              "name": "domain",
              "type": "uint256"
            }
          ],
          "internalType": "struct JBProjectMetadata",
          "name": "_metadata",
          "type": "tuple"
        }
      ],
      "name": "createFor",
      "outputs": [
        {
          "internalType": "uint256",
          "name": "projectId",
          "type": "uint256"
        }
      ],
      "stateMutability": "nonpayable",
      "type": "function"
    },
    {
      "inputs": [
        {
          "internalType": "address",
          "name": "delegatee",
          "type": "address"
        }
      ],
      "name": "delegate",
      "outputs": [],
      "stateMutability": "nonpayable",
      "type": "function"
    },
    {
      "inputs": [
        {
          "internalType": "address",
          "name": "delegatee",
          "type": "address"
        },
        {
          "internalType": "uint256",
          "name": "nonce",
          "type": "uint256"
        },
        {
          "internalType": "uint256",
          "name": "expiry",
          "type": "uint256"
        },
        {
          "internalType": "uint8",
          "name": "v",
          "type": "uint8"
        },
        {
          "internalType": "bytes32",
          "name": "r",
          "type": "bytes32"
        },
        {
          "internalType": "bytes32",
          "name": "s",
          "type": "bytes32"
        }
      ],
      "name": "delegateBySig",
      "outputs": [],
      "stateMutability": "nonpayable",
      "type": "function"
    },
    {
      "inputs": [
        {
          "internalType": "address",
          "name": "account",
          "type": "address"
        }
      ],
      "name": "delegates",
      "outputs": [
        {
          "internalType": "address",
          "name": "",
          "type": "address"
        }
      ],
      "stateMutability": "view",
      "type": "function"
    },
    {
      "inputs": [
        {
          "internalType": "uint256",
          "name": "tokenId",
          "type": "uint256"
        }
      ],
      "name": "getApproved",
      "outputs": [
        {
          "internalType": "address",
          "name": "",
          "type": "address"
        }
      ],
      "stateMutability": "view",
      "type": "function"
    },
    {
      "inputs": [
        {
          "internalType": "uint256",
          "name": "blockNumber",
          "type": "uint256"
        }
      ],
      "name": "getPastTotalSupply",
      "outputs": [
        {
          "internalType": "uint256",
          "name": "",
          "type": "uint256"
        }
      ],
      "stateMutability": "view",
      "type": "function"
    },
    {
      "inputs": [
        {
          "internalType": "address",
          "name": "account",
          "type": "address"
        },
        {
          "internalType": "uint256",
          "name": "blockNumber",
          "type": "uint256"
        }
      ],
      "name": "getPastVotes",
      "outputs": [
        {
          "internalType": "uint256",
          "name": "",
          "type": "uint256"
        }
      ],
      "stateMutability": "view",
      "type": "function"
    },
    {
      "inputs": [
        {
          "internalType": "address",
          "name": "account",
          "type": "address"
        }
      ],
      "name": "getVotes",
      "outputs": [
        {
          "internalType": "uint256",
          "name": "",
          "type": "uint256"
        }
      ],
      "stateMutability": "view",
      "type": "function"
    },
    {
      "inputs": [
        {
          "internalType": "address",
          "name": "owner",
          "type": "address"
        },
        {
          "internalType": "address",
          "name": "operator",
          "type": "address"
        }
      ],
      "name": "isApprovedForAll",
      "outputs": [
        {
          "internalType": "bool",
          "name": "",
          "type": "bool"
        }
      ],
      "stateMutability": "view",
      "type": "function"
    },
    {
      "inputs": [
        {
          "internalType": "uint256",
          "name": "",
          "type": "uint256"
        },
        {
          "internalType": "uint256",
          "name": "",
          "type": "uint256"
        }
      ],
      "name": "metadataContentOf",
      "outputs": [
        {
          "internalType": "string",
          "name": "",
          "type": "string"
        }
      ],
      "stateMutability": "view",
      "type": "function"
    },
    {
      "inputs": [],
      "name": "name",
      "outputs": [
        {
          "internalType": "string",
          "name": "",
          "type": "string"
        }
      ],
      "stateMutability": "view",
      "type": "function"
    },
    {
      "inputs": [
        {
          "internalType": "address",
          "name": "owner",
          "type": "address"
        }
      ],
      "name": "nonces",
      "outputs": [
        {
          "internalType": "uint256",
          "name": "",
          "type": "uint256"
        }
      ],
      "stateMutability": "view",
      "type": "function"
    },
    {
      "inputs": [],
      "name": "operatorStore",
      "outputs": [
        {
          "internalType": "contract IJBOperatorStore",
          "name": "",
          "type": "address"
        }
      ],
      "stateMutability": "view",
      "type": "function"
    },
    {
      "inputs": [],
      "name": "owner",
      "outputs": [
        {
          "internalType": "address",
          "name": "",
          "type": "address"
        }
      ],
      "stateMutability": "view",
      "type": "function"
    },
    {
      "inputs": [
        {
          "internalType": "uint256",
          "name": "tokenId",
          "type": "uint256"
        }
      ],
      "name": "ownerOf",
      "outputs": [
        {
          "internalType": "address",
          "name": "",
          "type": "address"
        }
      ],
      "stateMutability": "view",
      "type": "function"
    },
    {
      "inputs": [],
      "name": "renounceOwnership",
      "outputs": [],
      "stateMutability": "nonpayable",
      "type": "function"
    },
    {
      "inputs": [
        {
          "internalType": "address",
          "name": "from",
          "type": "address"
        },
        {
          "internalType": "address",
          "name": "to",
          "type": "address"
        },
        {
          "internalType": "uint256",
          "name": "tokenId",
          "type": "uint256"
        }
      ],
      "name": "safeTransferFrom",
      "outputs": [],
      "stateMutability": "nonpayable",
      "type": "function"
    },
    {
      "inputs": [
        {
          "internalType": "address",
          "name": "from",
          "type": "address"
        },
        {
          "internalType": "address",
          "name": "to",
          "type": "address"
        },
        {
          "internalType": "uint256",
          "name": "tokenId",
          "type": "uint256"
        },
        {
          "internalType": "bytes",
          "name": "data",
          "type": "bytes"
        }
      ],
      "name": "safeTransferFrom",
      "outputs": [],
      "stateMutability": "nonpayable",
      "type": "function"
    },
    {
      "inputs": [
        {
          "internalType": "address",
          "name": "operator",
          "type": "address"
        },
        {
          "internalType": "bool",
          "name": "approved",
          "type": "bool"
        }
      ],
      "name": "setApprovalForAll",
      "outputs": [],
      "stateMutability": "nonpayable",
      "type": "function"
    },
    {
      "inputs": [
        {
          "internalType": "uint256",
          "name": "_projectId",
          "type": "uint256"
        },
        {
          "components": [
            {
              "internalType": "string",
              "name": "content",
              "type": "string"
            },
            {
              "internalType": "uint256",
              "name": "domain",
              "type": "uint256"
            }
          ],
          "internalType": "struct JBProjectMetadata",
          "name": "_metadata",
          "type": "tuple"
        }
      ],
      "name": "setMetadataOf",
      "outputs": [],
      "stateMutability": "nonpayable",
      "type": "function"
    },
    {
      "inputs": [
        {
          "internalType": "contract IJBTokenUriResolver",
          "name": "_newResolver",
          "type": "address"
        }
      ],
      "name": "setTokenUriResolver",
      "outputs": [],
      "stateMutability": "nonpayable",
      "type": "function"
    },
    {
      "inputs": [
        {
          "internalType": "bytes4",
          "name": "_interfaceId",
          "type": "bytes4"
        }
      ],
      "name": "supportsInterface",
      "outputs": [
        {
          "internalType": "bool",
          "name": "",
          "type": "bool"
        }
      ],
      "stateMutability": "view",
      "type": "function"
    },
    {
      "inputs": [],
      "name": "symbol",
      "outputs": [
        {
          "internalType": "string",
          "name": "",
          "type": "string"
        }
      ],
      "stateMutability": "view",
      "type": "function"
    },
    {
      "inputs": [
        {
          "internalType": "uint256",
          "name": "_projectId",
          "type": "uint256"
        }
      ],
      "name": "tokenURI",
      "outputs": [
        {
          "internalType": "string",
          "name": "",
          "type": "string"
        }
      ],
      "stateMutability": "view",
      "type": "function"
    },
    {
      "inputs": [],
      "name": "tokenUriResolver",
      "outputs": [
        {
          "internalType": "contract IJBTokenUriResolver",
          "name": "",
          "type": "address"
        }
      ],
      "stateMutability": "view",
      "type": "function"
    },
    {
      "inputs": [
        {
          "internalType": "address",
          "name": "from",
          "type": "address"
        },
        {
          "internalType": "address",
          "name": "to",
          "type": "address"
        },
        {
          "internalType": "uint256",
          "name": "tokenId",
          "type": "uint256"
        }
      ],
      "name": "transferFrom",
      "outputs": [],
      "stateMutability": "nonpayable",
      "type": "function"
    },
    {
      "inputs": [
        {
          "internalType": "address",
          "name": "newOwner",
          "type": "address"
        }
      ],
      "name": "transferOwnership",
      "outputs": [],
      "stateMutability": "nonpayable",
      "type": "function"
    }
  ],
  "bytecode": {
    "object": "0x6101606040526000600b553480156200001757600080fd5b5060405162002d5538038062002d558339810160408190526200003a91620001ce565b6040805180820182526011808252704a75696365626f782050726f6a6563747360781b60208084018290528451808601865260018152603160f81b81830152855180870187529384528382019290925284518086019095526008855267094aa92868a849eb60c31b908501526001600160a01b03851660805291926000620000c38382620002a5565b506001620000d28282620002a5565b505082516020938401208251928401929092206101008390526101208190524660c0818152604080517f8b73c3c69bb8fe3d512ecc4cf759cc79239f7b179b0ffacaa9a75d522b39400f81890181905281830197909752606081019490945260808401929092523060a080850182905283518086038201815294909201909252825192909501919091209093525060e0919091526101405262000175336200017c565b5062000371565b600a80546001600160a01b038381166001600160a01b0319831681179093556040519116919082907f8be0079c531659141344cd1fd0a4f28419497f9722a3daafe3b4186f6b6457e090600090a35050565b600060208284031215620001e157600080fd5b81516001600160a01b0381168114620001f957600080fd5b9392505050565b634e487b7160e01b600052604160045260246000fd5b600181811c908216806200022b57607f821691505b6020821081036200024c57634e487b7160e01b600052602260045260246000fd5b50919050565b601f821115620002a057600081815260208120601f850160051c810160208610156200027b5750805b601f850160051c820191505b818110156200029c5782815560010162000287565b5050505b505050565b81516001600160401b03811115620002c157620002c162000200565b620002d981620002d2845462000216565b8462000252565b602080601f831160018114620003115760008415620002f85750858301515b600019600386901b1c1916600185901b1785556200029c565b600085815260208120601f198616915b82811015620003425788860151825594840194600190910190840162000321565b5085821015620003615787850151600019600388901b60f8161c191681555b5050505050600190811b01905550565b60805160a05160c05160e05161010051610120516101405161297b620003da60003960006111d101526000611220015260006111fb015260006111540152600061117e015260006111a80152600081816103e2015281816112b5015261135c015261297b6000f3fe608060405234801561001057600080fd5b50600436106101e55760003560e01c8063666d87a01161010f578063a22cb465116100a2578063c87b56dd11610071578063c87b56dd1461042a578063e131fc0c1461043d578063e985e9c514610450578063f2fde38b1461048c57600080fd5b8063a22cb465146103ca578063ad007d63146103dd578063b88d4fde14610404578063c3cda5201461041757600080fd5b80638da5cb5b116100de5780638da5cb5b1461038b5780638e539e8c1461039c57806395d89b41146103af5780639ab24eb0146103b757600080fd5b8063666d87a01461034a57806370a082311461035d578063715018a6146103705780637ecebe001461037857600080fd5b80633644e5151161018757806342842e0e1161015657806342842e0e146102e5578063587cde1e146102f85780635c19a95c146103245780636352211e1461033757600080fd5b80633644e515146102a457806336574975146102ac57806339fbc775146102bf5780633a46b1a8146102d257600080fd5b8063081812fc116101c3578063081812fc1461023e578063095ea7b31461026957806323b872dd1461027e5780632407497e1461029157600080fd5b806301ffc9a7146101ea57806306661abd1461021257806306fdde0314610229575b600080fd5b6101fd6101f8366004612116565b61049f565b60405190151581526020015b60405180910390f35b61021b600b5481565b604051908152602001610209565b6102316104e5565b6040516102099190612183565b61025161024c366004612196565b610577565b6040516001600160a01b039091168152602001610209565b61027c6102773660046121c4565b61059e565b005b61027c61028c3660046121f0565b6106b8565b61027c61029f366004612231565b6106e9565b61021b610745565b61027c6102ba366004612260565b610754565b6102316102cd3660046122a7565b6107df565b61021b6102e03660046121c4565b610884565b61027c6102f33660046121f0565b6108ad565b610251610306366004612231565b6001600160a01b039081166000908152600660205260409020541690565b61027c610332366004612231565b6108c8565b610251610345366004612196565b6108d7565b61021b6103583660046122c9565b610937565b61021b61036b366004612231565b6109eb565b61027c610a71565b61021b610386366004612231565b610a85565b600a546001600160a01b0316610251565b61021b6103aa366004612196565b610aa3565b610231610aff565b61021b6103c5366004612231565b610b0e565b61027c6103d8366004612311565b610b2f565b6102517f000000000000000000000000000000000000000000000000000000000000000081565b61027c6104123660046123b9565b610b3a565b61027c610425366004612468565b610b72565b610231610438366004612196565b610c9f565b600d54610251906001600160a01b031681565b6101fd61045e3660046124ca565b6001600160a01b03918216600090815260056020908152604080832093909416825291909152205460ff1690565b61027c61049a366004612231565b610d36565b60006001600160e01b0319821663aa91a66f60e01b14806104d057506001600160e01b0319821663ad007d6360e01b145b806104df57506104df82610daf565b92915050565b6060600080546104f4906124f8565b80601f0160208091040260200160405190810160405280929190818152602001828054610520906124f8565b801561056d5780601f106105425761010080835404028352916020019161056d565b820191906000526020600020905b81548152906001019060200180831161055057829003601f168201915b5050505050905090565b600061058282610dff565b506000908152600460205260409020546001600160a01b031690565b60006105a9826108d7565b9050806001600160a01b0316836001600160a01b03160361061b5760405162461bcd60e51b815260206004820152602160248201527f4552433732313a20617070726f76616c20746f2063757272656e74206f776e656044820152603960f91b60648201526084015b60405180910390fd5b336001600160a01b03821614806106375750610637813361045e565b6106a95760405162461bcd60e51b815260206004820152603e60248201527f4552433732313a20617070726f76652063616c6c6572206973206e6f7420746f60448201527f6b656e206f776e6572206e6f7220617070726f76656420666f7220616c6c00006064820152608401610612565b6106b38383610e5e565b505050565b6106c23382610ecc565b6106de5760405162461bcd60e51b81526004016106129061252c565b6106b3838383610f4b565b6106f16110ed565b600d80546001600160a01b0319166001600160a01b0383169081179091556040513381527fe7784d93cfbfa4408e19577e6cc0436f4dbb51214b70e100905dfce9def88c169060200160405180910390a250565b600061074f611147565b905090565b61075d826108d7565b82600661076b83838361126e565b610775848061257a565b6000878152600c6020908152604080832089830135845290915290209161079d91908361260f565b50847fd07720acb527321c9d1766f359139d0e0e3551bd99fb3ca353d4f008f3aad8e685336040516107d09291906126d0565b60405180910390a25050505050565b600c60209081526000928352604080842090915290825290208054610803906124f8565b80601f016020809104026020016040519081016040528092919081815260200182805461082f906124f8565b801561087c5780601f106108515761010080835404028352916020019161087c565b820191906000526020600020905b81548152906001019060200180831161085f57829003601f168201915b505050505081565b6001600160a01b03821660009081526007602052604081206108a690836113e7565b9392505050565b6106b383838360405180602001604052806000815250610b3a565b336108d381836114f6565b5050565b6000818152600260205260408120546001600160a01b0316806104df5760405162461bcd60e51b8152602060048201526018602482015277115490cdcc8c4e881a5b9d985b1a59081d1bdad95b88125160421b6044820152606401610612565b6000600b6000815461094890612778565b918290555090506109598382611568565b6000610965838061257a565b905011156109a157610977828061257a565b6000838152600c6020908152604080832087830135845290915290209161099f91908361260f565b505b826001600160a01b0316817fa1c6fd563bcbc3222f6031d7c26ff58cd6c701abff0bfffe652d055ce40629d484336040516109dd9291906126d0565b60405180910390a392915050565b60006001600160a01b038216610a555760405162461bcd60e51b815260206004820152602960248201527f4552433732313a2061646472657373207a65726f206973206e6f7420612076616044820152683634b21037bbb732b960b91b6064820152608401610612565b506001600160a01b031660009081526003602052604090205490565b610a796110ed565b610a836000611582565b565b6001600160a01b0381166000908152600960205260408120546104df565b6000438210610af45760405162461bcd60e51b815260206004820152601a60248201527f566f7465733a20626c6f636b206e6f7420796574206d696e65640000000000006044820152606401610612565b6104df6008836113e7565b6060600180546104f4906124f8565b6001600160a01b03811660009081526007602052604081206104df906115d4565b6108d3338383611630565b610b443383610ecc565b610b605760405162461bcd60e51b81526004016106129061252c565b610b6c848484846116fe565b50505050565b83421115610bc25760405162461bcd60e51b815260206004820152601860248201527f566f7465733a207369676e6174757265206578706972656400000000000000006044820152606401610612565b604080517fe48329057bfd03d55e49b547132e39cffd9c1820ad7b9d4c5307691425d15adf60208201526001600160a01b038816918101919091526060810186905260808101859052600090610c3c90610c349060a00160405160208183030381529060405280519060200120611731565b85858561177f565b9050610c47816117a7565b8614610c8c5760405162461bcd60e51b8152602060048201526014602482015273566f7465733a20696e76616c6964206e6f6e636560601b6044820152606401610612565b610c9681886114f6565b50505050505050565b600d546060906001600160a01b031680610cc9575050604080516020810190915260008152919050565b604051636d02a25560e11b8152600481018490526001600160a01b0382169063da0544aa90602401600060405180830381865afa158015610d0e573d6000803e3d6000fd5b505050506040513d6000823e601f3d908101601f191682016040526108a69190810190612791565b610d3e6110ed565b6001600160a01b038116610da35760405162461bcd60e51b815260206004820152602660248201527f4f776e61626c653a206e6577206f776e657220697320746865207a65726f206160448201526564647265737360d01b6064820152608401610612565b610dac81611582565b50565b60006001600160e01b031982166380ac58cd60e01b1480610de057506001600160e01b03198216635b5e139f60e01b145b806104df57506301ffc9a760e01b6001600160e01b03198316146104df565b6000818152600260205260409020546001600160a01b0316610dac5760405162461bcd60e51b8152602060048201526018602482015277115490cdcc8c4e881a5b9d985b1a59081d1bdad95b88125160421b6044820152606401610612565b600081815260046020526040902080546001600160a01b0319166001600160a01b0384169081179091558190610e93826108d7565b6001600160a01b03167f8c5be1e5ebec7d5bd14f71427d1e84f3dd0314c0f7b2291e5b200ac8c7c3b92560405160405180910390a45050565b600080610ed8836108d7565b9050806001600160a01b0316846001600160a01b03161480610f1f57506001600160a01b0380821660009081526005602090815260408083209388168352929052205460ff165b80610f435750836001600160a01b0316610f3884610577565b6001600160a01b0316145b949350505050565b826001600160a01b0316610f5e826108d7565b6001600160a01b031614610fc25760405162461bcd60e51b815260206004820152602560248201527f4552433732313a207472616e736665722066726f6d20696e636f72726563742060448201526437bbb732b960d91b6064820152608401610612565b6001600160a01b0382166110245760405162461bcd60e51b8152602060048201526024808201527f4552433732313a207472616e7366657220746f20746865207a65726f206164646044820152637265737360e01b6064820152608401610612565b61102f600082610e5e565b6001600160a01b0383166000908152600360205260408120805460019290611058908490612808565b90915550506001600160a01b038216600090815260036020526040812080546001929061108690849061281b565b909155505060008181526002602052604080822080546001600160a01b0319166001600160a01b0386811691821790925591518493918716917fddf252ad1be2c89b69c2b068fc378daa952ba7f163c4a11628f55a4df523b3ef91a46106b38383836117cf565b600a546001600160a01b03163314610a835760405162461bcd60e51b815260206004820181905260248201527f4f776e61626c653a2063616c6c6572206973206e6f7420746865206f776e65726044820152606401610612565b6000306001600160a01b037f0000000000000000000000000000000000000000000000000000000000000000161480156111a057507f000000000000000000000000000000000000000000000000000000000000000046145b156111ca57507f000000000000000000000000000000000000000000000000000000000000000090565b50604080517f00000000000000000000000000000000000000000000000000000000000000006020808301919091527f0000000000000000000000000000000000000000000000000000000000000000828401527f000000000000000000000000000000000000000000000000000000000000000060608301524660808301523060a0808401919091528351808403909101815260c0909201909252805191012090565b336001600160a01b03841614801590611322575060405163c161c93f60e01b81523360048201526001600160a01b03848116602483015260448201849052606482018390527f0000000000000000000000000000000000000000000000000000000000000000169063c161c93f90608401602060405180830381865afa1580156112fc573d6000803e3d6000fd5b505050506040513d601f19601f82011682018060405250810190611320919061282e565b155b80156113c9575060405163c161c93f60e01b81523360048201526001600160a01b03848116602483015260006044830152606482018390527f0000000000000000000000000000000000000000000000000000000000000000169063c161c93f90608401602060405180830381865afa1580156113a3573d6000803e3d6000fd5b505050506040513d601f19601f820116820180604052508101906113c7919061282e565b155b156106b35760405163075fd2b160e01b815260040160405180910390fd5b60004382106114385760405162461bcd60e51b815260206004820181905260248201527f436865636b706f696e74733a20626c6f636b206e6f7420796574206d696e65646044820152606401610612565b825460005b8181101561149d57600061145182846117db565b9050848660000182815481106114695761146961284b565b60009182526020909120015463ffffffff16111561148957809250611497565b61149481600161281b565b91505b5061143d565b81156114e157846114af600184612808565b815481106114bf576114bf61284b565b60009182526020909120015464010000000090046001600160e01b03166114e4565b60005b6001600160e01b031695945050505050565b6001600160a01b0382811660008181526006602052604080822080548686166001600160a01b0319821681179092559151919094169392849290917f3134e8a2e6d97e929a7e54011ea5485d7d196dd5f0ba4d4ef95803e8e3fc257f9190a46106b38183611563866117f6565b611801565b6108d382826040518060200160405280600081525061192f565b600a80546001600160a01b038381166001600160a01b0319831681179093556040519116919082907f8be0079c531659141344cd1fd0a4f28419497f9722a3daafe3b4186f6b6457e090600090a35050565b8054600090801561161d57826115eb600183612808565b815481106115fb576115fb61284b565b60009182526020909120015464010000000090046001600160e01b0316611620565b60005b6001600160e01b03169392505050565b816001600160a01b0316836001600160a01b0316036116915760405162461bcd60e51b815260206004820152601960248201527f4552433732313a20617070726f766520746f2063616c6c6572000000000000006044820152606401610612565b6001600160a01b03838116600081815260056020908152604080832094871680845294825291829020805460ff191686151590811790915591519182527f17307eab39ab6107e8899845ad3d59bd9653f200f220920489ca2b5937696c31910160405180910390a3505050565b611709848484610f4b565b61171584848484611962565b610b6c5760405162461bcd60e51b815260040161061290612861565b60006104df61173e611147565b8360405161190160f01b6020820152602281018390526042810182905260009060620160405160208183030381529060405280519060200120905092915050565b600080600061179087878787611a60565b9150915061179d81611b4d565b5095945050505050565b6001600160a01b03811660009081526009602052604090208054600181018255905b50919050565b6106b383836001611d03565b60006117ea60028484186128b3565b6108a69084841661281b565b60006104df826109eb565b816001600160a01b0316836001600160a01b0316141580156118235750600081115b156106b3576001600160a01b038316156118b1576001600160a01b0383166000908152600760205260408120819061185e90611d7385611d7f565b91509150846001600160a01b03167fdec2bacdd2f05b59de34da9b523dff8be42e5e38e818c82fdb0bae774387a72483836040516118a6929190918252602082015260400190565b60405180910390a250505b6001600160a01b038216156106b3576001600160a01b038216600090815260076020526040812081906118e790611dad85611d7f565b91509150836001600160a01b03167fdec2bacdd2f05b59de34da9b523dff8be42e5e38e818c82fdb0bae774387a72483836040516107d0929190918252602082015260400190565b6119398383611db9565b6119466000848484611962565b6106b35760405162461bcd60e51b815260040161061290612861565b60006001600160a01b0384163b15611a5857604051630a85bd0160e11b81526001600160a01b0385169063150b7a02906119a69033908990889088906004016128d5565b6020604051808303816000875af19250505080156119e1575060408051601f3d908101601f191682019092526119de91810190612912565b60015b611a3e573d808015611a0f576040519150601f19603f3d011682016040523d82523d6000602084013e611a14565b606091505b508051600003611a365760405162461bcd60e51b815260040161061290612861565b805181602001fd5b6001600160e01b031916630a85bd0160e11b149050610f43565b506001610f43565b6000807f7fffffffffffffffffffffffffffffff5d576e7357a4501ddfe92f46681b20a0831115611a975750600090506003611b44565b8460ff16601b14158015611aaf57508460ff16601c14155b15611ac05750600090506004611b44565b6040805160008082526020820180845289905260ff881692820192909252606081018690526080810185905260019060a0016020604051602081039080840390855afa158015611b14573d6000803e3d6000fd5b5050604051601f1901519150506001600160a01b038116611b3d57600060019250925050611b44565b9150600090505b94509492505050565b6000816004811115611b6157611b6161292f565b03611b695750565b6001816004811115611b7d57611b7d61292f565b03611bca5760405162461bcd60e51b815260206004820152601860248201527f45434453413a20696e76616c6964207369676e617475726500000000000000006044820152606401610612565b6002816004811115611bde57611bde61292f565b03611c2b5760405162461bcd60e51b815260206004820152601f60248201527f45434453413a20696e76616c6964207369676e6174757265206c656e677468006044820152606401610612565b6003816004811115611c3f57611c3f61292f565b03611c975760405162461bcd60e51b815260206004820152602260248201527f45434453413a20696e76616c6964207369676e6174757265202773272076616c604482015261756560f01b6064820152608401610612565b6004816004811115611cab57611cab61292f565b03610dac5760405162461bcd60e51b815260206004820152602260248201527f45434453413a20696e76616c6964207369676e6174757265202776272076616c604482015261756560f01b6064820152608401610612565b6001600160a01b038316611d2257611d1f6008611dad83611d7f565b50505b6001600160a01b038216611d4157611d3e6008611d7383611d7f565b50505b6001600160a01b038381166000908152600660205260408082205485841683529120546106b392918216911683611801565b60006108a68284612808565b600080611da185611d9c611d92886115d4565b868863ffffffff16565b611f03565b91509150935093915050565b60006108a6828461281b565b6001600160a01b038216611e0f5760405162461bcd60e51b815260206004820181905260248201527f4552433732313a206d696e7420746f20746865207a65726f20616464726573736044820152606401610612565b6000818152600260205260409020546001600160a01b031615611e745760405162461bcd60e51b815260206004820152601c60248201527f4552433732313a20746f6b656e20616c7265616479206d696e746564000000006044820152606401610612565b6001600160a01b0382166000908152600360205260408120805460019290611e9d90849061281b565b909155505060008181526002602052604080822080546001600160a01b0319166001600160a01b03861690811790915590518392907fddf252ad1be2c89b69c2b068fc378daa952ba7f163c4a11628f55a4df523b3ef908290a46108d3600083836117cf565b8154600090819081611f14866115d4565b9050600082118015611f5257504386611f2e600185612808565b81548110611f3e57611f3e61284b565b60009182526020909120015463ffffffff16145b15611fb257611f608561202e565b86611f6c600185612808565b81548110611f7c57611f7c61284b565b9060005260206000200160000160046101000a8154816001600160e01b0302191690836001600160e01b03160217905550612020565b856000016040518060400160405280611fca4361209b565b63ffffffff168152602001611fde8861202e565b6001600160e01b0390811690915282546001810184556000938452602093849020835194909301519091166401000000000263ffffffff909316929092179101555b9250839150505b9250929050565b60006001600160e01b038211156120975760405162461bcd60e51b815260206004820152602760248201527f53616665436173743a2076616c756520646f65736e27742066697420696e20326044820152663234206269747360c81b6064820152608401610612565b5090565b600063ffffffff8211156120975760405162461bcd60e51b815260206004820152602660248201527f53616665436173743a2076616c756520646f65736e27742066697420696e203360448201526532206269747360d01b6064820152608401610612565b6001600160e01b031981168114610dac57600080fd5b60006020828403121561212857600080fd5b81356108a681612100565b60005b8381101561214e578181015183820152602001612136565b50506000910152565b6000815180845261216f816020860160208601612133565b601f01601f19169290920160200192915050565b6020815260006108a66020830184612157565b6000602082840312156121a857600080fd5b5035919050565b6001600160a01b0381168114610dac57600080fd5b600080604083850312156121d757600080fd5b82356121e2816121af565b946020939093013593505050565b60008060006060848603121561220557600080fd5b8335612210816121af565b92506020840135612220816121af565b929592945050506040919091013590565b60006020828403121561224357600080fd5b81356108a6816121af565b6000604082840312156117c957600080fd5b6000806040838503121561227357600080fd5b82359150602083013567ffffffffffffffff81111561229157600080fd5b61229d8582860161224e565b9150509250929050565b600080604083850312156122ba57600080fd5b50508035926020909101359150565b600080604083850312156122dc57600080fd5b82356122e7816121af565b9150602083013567ffffffffffffffff81111561229157600080fd5b8015158114610dac57600080fd5b6000806040838503121561232457600080fd5b823561232f816121af565b9150602083013561233f81612303565b809150509250929050565b634e487b7160e01b600052604160045260246000fd5b604051601f8201601f1916810167ffffffffffffffff811182821017156123895761238961234a565b604052919050565b600067ffffffffffffffff8211156123ab576123ab61234a565b50601f01601f191660200190565b600080600080608085870312156123cf57600080fd5b84356123da816121af565b935060208501356123ea816121af565b925060408501359150606085013567ffffffffffffffff81111561240d57600080fd5b8501601f8101871361241e57600080fd5b803561243161242c82612391565b612360565b81815288602083850101111561244657600080fd5b8160208401602083013760006020838301015280935050505092959194509250565b60008060008060008060c0878903121561248157600080fd5b863561248c816121af565b95506020870135945060408701359350606087013560ff811681146124b057600080fd5b9598949750929560808101359460a0909101359350915050565b600080604083850312156124dd57600080fd5b82356124e8816121af565b9150602083013561233f816121af565b600181811c9082168061250c57607f821691505b6020821081036117c957634e487b7160e01b600052602260045260246000fd5b6020808252602e908201527f4552433732313a2063616c6c6572206973206e6f7420746f6b656e206f776e6560408201526d1c881b9bdc88185c1c1c9bdd995960921b606082015260800190565b6000808335601e1984360301811261259157600080fd5b83018035915067ffffffffffffffff8211156125ac57600080fd5b60200191503681900382131561202757600080fd5b601f8211156106b357600081815260208120601f850160051c810160208610156125e85750805b601f850160051c820191505b81811015612607578281556001016125f4565b505050505050565b67ffffffffffffffff8311156126275761262761234a565b61263b8361263583546124f8565b836125c1565b6000601f84116001811461266f57600085156126575750838201355b600019600387901b1c1916600186901b1783556126c9565b600083815260209020601f19861690835b828110156126a05786850135825560209485019460019092019101612680565b50868210156126bd5760001960f88860031b161c19848701351681555b505060018560011b0183555b5050505050565b6040815260008335601e198536030181126126ea57600080fd5b840160208101903567ffffffffffffffff81111561270757600080fd5b80360382131561271657600080fd5b604080850152806080850152808260a0860137600060a082860101526020860135606085015260a0601f19601f830116850101925050506108a660208301846001600160a01b03169052565b634e487b7160e01b600052601160045260246000fd5b60006001820161278a5761278a612762565b5060010190565b6000602082840312156127a357600080fd5b815167ffffffffffffffff8111156127ba57600080fd5b8201601f810184136127cb57600080fd5b80516127d961242c82612391565b8181528560208385010111156127ee57600080fd5b6127ff826020830160208601612133565b95945050505050565b818103818111156104df576104df612762565b808201808211156104df576104df612762565b60006020828403121561284057600080fd5b81516108a681612303565b634e487b7160e01b600052603260045260246000fd5b60208082526032908201527f4552433732313a207472616e7366657220746f206e6f6e20455243373231526560408201527131b2b4bb32b91034b6b83632b6b2b73a32b960711b606082015260800190565b6000826128d057634e487b7160e01b600052601260045260246000fd5b500490565b6001600160a01b038581168252841660208201526040810183905260806060820181905260009061290890830184612157565b9695505050505050565b60006020828403121561292457600080fd5b81516108a681612100565b634e487b7160e01b600052602160045260246000fdfea2646970667358221220843dc22cb157e181ee303a45895147e58a9410aed488e2c44ff9fb803f5336d064736f6c63430008100033",
    "linkReferences": {}
  },
  "methodIdentifiers": {
    "DOMAIN_SEPARATOR()": "3644e515",
    "approve(address,uint256)": "095ea7b3",
    "balanceOf(address)": "70a08231",
    "count()": "06661abd",
    "createFor(address,(string,uint256))": "666d87a0",
    "delegate(address)": "5c19a95c",
    "delegateBySig(address,uint256,uint256,uint8,bytes32,bytes32)": "c3cda520",
    "delegates(address)": "587cde1e",
    "getApproved(uint256)": "081812fc",
    "getPastTotalSupply(uint256)": "8e539e8c",
    "getPastVotes(address,uint256)": "3a46b1a8",
    "getVotes(address)": "9ab24eb0",
    "isApprovedForAll(address,address)": "e985e9c5",
    "metadataContentOf(uint256,uint256)": "39fbc775",
    "name()": "06fdde03",
    "nonces(address)": "7ecebe00",
    "operatorStore()": "ad007d63",
    "owner()": "8da5cb5b",
    "ownerOf(uint256)": "6352211e",
    "renounceOwnership()": "715018a6",
    "safeTransferFrom(address,address,uint256)": "42842e0e",
    "safeTransferFrom(address,address,uint256,bytes)": "b88d4fde",
    "setApprovalForAll(address,bool)": "a22cb465",
    "setMetadataOf(uint256,(string,uint256))": "36574975",
    "setTokenUriResolver(address)": "2407497e",
    "supportsInterface(bytes4)": "01ffc9a7",
    "symbol()": "95d89b41",
    "tokenURI(uint256)": "c87b56dd",
    "tokenUriResolver()": "e131fc0c",
    "transferFrom(address,address,uint256)": "23b872dd",
    "transferOwnership(address)": "f2fde38b"
  },
  "id": 53
}