{
  "abi": [
    {
      "inputs": [
        {
          "internalType": "contract IJBOperatorStore",
          "name": "_operatorStore",
          "type": "address"
        }
      ],
      "stateMutability": "nonpayable",
      "type": "constructor"
    },
    {
      "inputs": [],
      "name": "InvalidShortString",
      "type": "error"
    },
    {
      "inputs": [
        {
          "internalType": "string",
          "name": "str",
          "type": "string"
        }
      ],
      "name": "StringTooLong",
      "type": "error"
    },
    {
      "inputs": [],
      "name": "UNAUTHORIZED",
      "type": "error"
    },
    {
      "anonymous": false,
      "inputs": [
        {
          "indexed": true,
          "internalType": "address",
          "name": "owner",
          "type": "address"
        },
        {
          "indexed": true,
          "internalType": "address",
          "name": "approved",
          "type": "address"
        },
        {
          "indexed": true,
          "internalType": "uint256",
          "name": "tokenId",
          "type": "uint256"
        }
      ],
      "name": "Approval",
      "type": "event"
    },
    {
      "anonymous": false,
      "inputs": [
        {
          "indexed": true,
          "internalType": "address",
          "name": "owner",
          "type": "address"
        },
        {
          "indexed": true,
          "internalType": "address",
          "name": "operator",
          "type": "address"
        },
        {
          "indexed": false,
          "internalType": "bool",
          "name": "approved",
          "type": "bool"
        }
      ],
      "name": "ApprovalForAll",
      "type": "event"
    },
    {
      "anonymous": false,
      "inputs": [
        {
          "indexed": true,
          "internalType": "uint256",
          "name": "projectId",
          "type": "uint256"
        },
        {
          "indexed": true,
          "internalType": "address",
          "name": "owner",
          "type": "address"
        },
        {
          "components": [
            {
              "internalType": "string",
              "name": "content",
              "type": "string"
            },
            {
              "internalType": "uint256",
              "name": "domain",
              "type": "uint256"
            }
          ],
          "indexed": false,
          "internalType": "struct JBProjectMetadata",
          "name": "metadata",
          "type": "tuple"
        },
        {
          "indexed": false,
          "internalType": "address",
          "name": "caller",
          "type": "address"
        }
      ],
      "name": "Create",
      "type": "event"
    },
    {
      "anonymous": false,
      "inputs": [
        {
          "indexed": true,
          "internalType": "address",
          "name": "delegator",
          "type": "address"
        },
        {
          "indexed": true,
          "internalType": "address",
          "name": "fromDelegate",
          "type": "address"
        },
        {
          "indexed": true,
          "internalType": "address",
          "name": "toDelegate",
          "type": "address"
        }
      ],
      "name": "DelegateChanged",
      "type": "event"
    },
    {
      "anonymous": false,
      "inputs": [
        {
          "indexed": true,
          "internalType": "address",
          "name": "delegate",
          "type": "address"
        },
        {
          "indexed": false,
          "internalType": "uint256",
          "name": "previousBalance",
          "type": "uint256"
        },
        {
          "indexed": false,
          "internalType": "uint256",
          "name": "newBalance",
          "type": "uint256"
        }
      ],
      "name": "DelegateVotesChanged",
      "type": "event"
    },
    {
      "anonymous": false,
      "inputs": [],
      "name": "EIP712DomainChanged",
      "type": "event"
    },
    {
      "anonymous": false,
      "inputs": [
        {
          "indexed": true,
          "internalType": "address",
          "name": "previousOwner",
          "type": "address"
        },
        {
          "indexed": true,
          "internalType": "address",
          "name": "newOwner",
          "type": "address"
        }
      ],
      "name": "OwnershipTransferred",
      "type": "event"
    },
    {
      "anonymous": false,
      "inputs": [
        {
          "indexed": true,
          "internalType": "uint256",
          "name": "projectId",
          "type": "uint256"
        },
        {
          "components": [
            {
              "internalType": "string",
              "name": "content",
              "type": "string"
            },
            {
              "internalType": "uint256",
              "name": "domain",
              "type": "uint256"
            }
          ],
          "indexed": false,
          "internalType": "struct JBProjectMetadata",
          "name": "metadata",
          "type": "tuple"
        },
        {
          "indexed": false,
          "internalType": "address",
          "name": "caller",
          "type": "address"
        }
      ],
      "name": "SetMetadata",
      "type": "event"
    },
    {
      "anonymous": false,
      "inputs": [
        {
          "indexed": true,
          "internalType": "contract IJBTokenUriResolver",
          "name": "resolver",
          "type": "address"
        },
        {
          "indexed": false,
          "internalType": "address",
          "name": "caller",
          "type": "address"
        }
      ],
      "name": "SetTokenUriResolver",
      "type": "event"
    },
    {
      "anonymous": false,
      "inputs": [
        {
          "indexed": true,
          "internalType": "address",
          "name": "from",
          "type": "address"
        },
        {
          "indexed": true,
          "internalType": "address",
          "name": "to",
          "type": "address"
        },
        {
          "indexed": true,
          "internalType": "uint256",
          "name": "tokenId",
          "type": "uint256"
        }
      ],
      "name": "Transfer",
      "type": "event"
    },
    {
      "inputs": [],
      "name": "CLOCK_MODE",
      "outputs": [
        {
          "internalType": "string",
          "name": "",
          "type": "string"
        }
      ],
      "stateMutability": "view",
      "type": "function"
    },
    {
      "inputs": [],
      "name": "DOMAIN_SEPARATOR",
      "outputs": [
        {
          "internalType": "bytes32",
          "name": "",
          "type": "bytes32"
        }
      ],
      "stateMutability": "view",
      "type": "function"
    },
    {
      "inputs": [
        {
          "internalType": "address",
          "name": "to",
          "type": "address"
        },
        {
          "internalType": "uint256",
          "name": "tokenId",
          "type": "uint256"
        }
      ],
      "name": "approve",
      "outputs": [],
      "stateMutability": "nonpayable",
      "type": "function"
    },
    {
      "inputs": [
        {
          "internalType": "address",
          "name": "owner",
          "type": "address"
        }
      ],
      "name": "balanceOf",
      "outputs": [
        {
          "internalType": "uint256",
          "name": "",
          "type": "uint256"
        }
      ],
      "stateMutability": "view",
      "type": "function"
    },
    {
      "inputs": [],
      "name": "clock",
      "outputs": [
        {
          "internalType": "uint48",
          "name": "",
          "type": "uint48"
        }
      ],
      "stateMutability": "view",
      "type": "function"
    },
    {
      "inputs": [],
      "name": "count",
      "outputs": [
        {
          "internalType": "uint256",
          "name": "",
          "type": "uint256"
        }
      ],
      "stateMutability": "view",
      "type": "function"
    },
    {
      "inputs": [
        {
          "internalType": "address",
          "name": "_owner",
          "type": "address"
        },
        {
          "components": [
            {
              "internalType": "string",
              "name": "content",
              "type": "string"
            },
            {
              "internalType": "uint256",
              "name": "domain",
              "type": "uint256"
            }
          ],
          "internalType": "struct JBProjectMetadata",
          "name": "_metadata",
          "type": "tuple"
        }
      ],
      "name": "createFor",
      "outputs": [
        {
          "internalType": "uint256",
          "name": "projectId",
          "type": "uint256"
        }
      ],
      "stateMutability": "nonpayable",
      "type": "function"
    },
    {
      "inputs": [
        {
          "internalType": "address",
          "name": "delegatee",
          "type": "address"
        }
      ],
      "name": "delegate",
      "outputs": [],
      "stateMutability": "nonpayable",
      "type": "function"
    },
    {
      "inputs": [
        {
          "internalType": "address",
          "name": "delegatee",
          "type": "address"
        },
        {
          "internalType": "uint256",
          "name": "nonce",
          "type": "uint256"
        },
        {
          "internalType": "uint256",
          "name": "expiry",
          "type": "uint256"
        },
        {
          "internalType": "uint8",
          "name": "v",
          "type": "uint8"
        },
        {
          "internalType": "bytes32",
          "name": "r",
          "type": "bytes32"
        },
        {
          "internalType": "bytes32",
          "name": "s",
          "type": "bytes32"
        }
      ],
      "name": "delegateBySig",
      "outputs": [],
      "stateMutability": "nonpayable",
      "type": "function"
    },
    {
      "inputs": [
        {
          "internalType": "address",
          "name": "account",
          "type": "address"
        }
      ],
      "name": "delegates",
      "outputs": [
        {
          "internalType": "address",
          "name": "",
          "type": "address"
        }
      ],
      "stateMutability": "view",
      "type": "function"
    },
    {
      "inputs": [],
      "name": "eip712Domain",
      "outputs": [
        {
          "internalType": "bytes1",
          "name": "fields",
          "type": "bytes1"
        },
        {
          "internalType": "string",
          "name": "name",
          "type": "string"
        },
        {
          "internalType": "string",
          "name": "version",
          "type": "string"
        },
        {
          "internalType": "uint256",
          "name": "chainId",
          "type": "uint256"
        },
        {
          "internalType": "address",
          "name": "verifyingContract",
          "type": "address"
        },
        {
          "internalType": "bytes32",
          "name": "salt",
          "type": "bytes32"
        },
        {
          "internalType": "uint256[]",
          "name": "extensions",
          "type": "uint256[]"
        }
      ],
      "stateMutability": "view",
      "type": "function"
    },
    {
      "inputs": [
        {
          "internalType": "uint256",
          "name": "tokenId",
          "type": "uint256"
        }
      ],
      "name": "getApproved",
      "outputs": [
        {
          "internalType": "address",
          "name": "",
          "type": "address"
        }
      ],
      "stateMutability": "view",
      "type": "function"
    },
    {
      "inputs": [
        {
          "internalType": "uint256",
          "name": "timepoint",
          "type": "uint256"
        }
      ],
      "name": "getPastTotalSupply",
      "outputs": [
        {
          "internalType": "uint256",
          "name": "",
          "type": "uint256"
        }
      ],
      "stateMutability": "view",
      "type": "function"
    },
    {
      "inputs": [
        {
          "internalType": "address",
          "name": "account",
          "type": "address"
        },
        {
          "internalType": "uint256",
          "name": "timepoint",
          "type": "uint256"
        }
      ],
      "name": "getPastVotes",
      "outputs": [
        {
          "internalType": "uint256",
          "name": "",
          "type": "uint256"
        }
      ],
      "stateMutability": "view",
      "type": "function"
    },
    {
      "inputs": [
        {
          "internalType": "address",
          "name": "account",
          "type": "address"
        }
      ],
      "name": "getVotes",
      "outputs": [
        {
          "internalType": "uint256",
          "name": "",
          "type": "uint256"
        }
      ],
      "stateMutability": "view",
      "type": "function"
    },
    {
      "inputs": [
        {
          "internalType": "address",
          "name": "owner",
          "type": "address"
        },
        {
          "internalType": "address",
          "name": "operator",
          "type": "address"
        }
      ],
      "name": "isApprovedForAll",
      "outputs": [
        {
          "internalType": "bool",
          "name": "",
          "type": "bool"
        }
      ],
      "stateMutability": "view",
      "type": "function"
    },
    {
      "inputs": [
        {
          "internalType": "uint256",
          "name": "",
          "type": "uint256"
        },
        {
          "internalType": "uint256",
          "name": "",
          "type": "uint256"
        }
      ],
      "name": "metadataContentOf",
      "outputs": [
        {
          "internalType": "string",
          "name": "",
          "type": "string"
        }
      ],
      "stateMutability": "view",
      "type": "function"
    },
    {
      "inputs": [],
      "name": "name",
      "outputs": [
        {
          "internalType": "string",
          "name": "",
          "type": "string"
        }
      ],
      "stateMutability": "view",
      "type": "function"
    },
    {
      "inputs": [
        {
          "internalType": "address",
          "name": "owner",
          "type": "address"
        }
      ],
      "name": "nonces",
      "outputs": [
        {
          "internalType": "uint256",
          "name": "",
          "type": "uint256"
        }
      ],
      "stateMutability": "view",
      "type": "function"
    },
    {
      "inputs": [],
      "name": "operatorStore",
      "outputs": [
        {
          "internalType": "contract IJBOperatorStore",
          "name": "",
          "type": "address"
        }
      ],
      "stateMutability": "view",
      "type": "function"
    },
    {
      "inputs": [],
      "name": "owner",
      "outputs": [
        {
          "internalType": "address",
          "name": "",
          "type": "address"
        }
      ],
      "stateMutability": "view",
      "type": "function"
    },
    {
      "inputs": [
        {
          "internalType": "uint256",
          "name": "tokenId",
          "type": "uint256"
        }
      ],
      "name": "ownerOf",
      "outputs": [
        {
          "internalType": "address",
          "name": "",
          "type": "address"
        }
      ],
      "stateMutability": "view",
      "type": "function"
    },
    {
      "inputs": [],
      "name": "renounceOwnership",
      "outputs": [],
      "stateMutability": "nonpayable",
      "type": "function"
    },
    {
      "inputs": [
        {
          "internalType": "address",
          "name": "from",
          "type": "address"
        },
        {
          "internalType": "address",
          "name": "to",
          "type": "address"
        },
        {
          "internalType": "uint256",
          "name": "tokenId",
          "type": "uint256"
        }
      ],
      "name": "safeTransferFrom",
      "outputs": [],
      "stateMutability": "nonpayable",
      "type": "function"
    },
    {
      "inputs": [
        {
          "internalType": "address",
          "name": "from",
          "type": "address"
        },
        {
          "internalType": "address",
          "name": "to",
          "type": "address"
        },
        {
          "internalType": "uint256",
          "name": "tokenId",
          "type": "uint256"
        },
        {
          "internalType": "bytes",
          "name": "data",
          "type": "bytes"
        }
      ],
      "name": "safeTransferFrom",
      "outputs": [],
      "stateMutability": "nonpayable",
      "type": "function"
    },
    {
      "inputs": [
        {
          "internalType": "address",
          "name": "operator",
          "type": "address"
        },
        {
          "internalType": "bool",
          "name": "approved",
          "type": "bool"
        }
      ],
      "name": "setApprovalForAll",
      "outputs": [],
      "stateMutability": "nonpayable",
      "type": "function"
    },
    {
      "inputs": [
        {
          "internalType": "uint256",
          "name": "_projectId",
          "type": "uint256"
        },
        {
          "components": [
            {
              "internalType": "string",
              "name": "content",
              "type": "string"
            },
            {
              "internalType": "uint256",
              "name": "domain",
              "type": "uint256"
            }
          ],
          "internalType": "struct JBProjectMetadata",
          "name": "_metadata",
          "type": "tuple"
        }
      ],
      "name": "setMetadataOf",
      "outputs": [],
      "stateMutability": "nonpayable",
      "type": "function"
    },
    {
      "inputs": [
        {
          "internalType": "contract IJBTokenUriResolver",
          "name": "_newResolver",
          "type": "address"
        }
      ],
      "name": "setTokenUriResolver",
      "outputs": [],
      "stateMutability": "nonpayable",
      "type": "function"
    },
    {
      "inputs": [
        {
          "internalType": "bytes4",
          "name": "_interfaceId",
          "type": "bytes4"
        }
      ],
      "name": "supportsInterface",
      "outputs": [
        {
          "internalType": "bool",
          "name": "",
          "type": "bool"
        }
      ],
      "stateMutability": "view",
      "type": "function"
    },
    {
      "inputs": [],
      "name": "symbol",
      "outputs": [
        {
          "internalType": "string",
          "name": "",
          "type": "string"
        }
      ],
      "stateMutability": "view",
      "type": "function"
    },
    {
      "inputs": [
        {
          "internalType": "uint256",
          "name": "_projectId",
          "type": "uint256"
        }
      ],
      "name": "tokenURI",
      "outputs": [
        {
          "internalType": "string",
          "name": "",
          "type": "string"
        }
      ],
      "stateMutability": "view",
      "type": "function"
    },
    {
      "inputs": [],
      "name": "tokenUriResolver",
      "outputs": [
        {
          "internalType": "contract IJBTokenUriResolver",
          "name": "",
          "type": "address"
        }
      ],
      "stateMutability": "view",
      "type": "function"
    },
    {
      "inputs": [
        {
          "internalType": "address",
          "name": "from",
          "type": "address"
        },
        {
          "internalType": "address",
          "name": "to",
          "type": "address"
        },
        {
          "internalType": "uint256",
          "name": "tokenId",
          "type": "uint256"
        }
      ],
      "name": "transferFrom",
      "outputs": [],
      "stateMutability": "nonpayable",
      "type": "function"
    },
    {
      "inputs": [
        {
          "internalType": "address",
          "name": "newOwner",
          "type": "address"
        }
      ],
      "name": "transferOwnership",
      "outputs": [],
      "stateMutability": "nonpayable",
      "type": "function"
    }
  ],
  "bytecode": {
    "object": "0x6101806040526000600d553480156200001757600080fd5b50604051620034e7380380620034e78339810160408190526200003a9162000277565b6040805180820182526011808252704a75696365626f782050726f6a6563747360781b60208084018290528451808601865260018152603160f81b81830152855180870187529384528382019290925284518086019095526008855267094aa92868a849eb60c31b908501526001600160a01b03851660805291926000620000c383826200034e565b506001620000d282826200034e565b50620000e491508390506006620001a0565b61014052620000f5816007620001a0565b61016052815160208084019190912061010052815190820120610120524660c052620001856101005161012051604080517f8b73c3c69bb8fe3d512ecc4cf759cc79239f7b179b0ffacaa9a75d522b39400f60208201529081019290925260608201524660808201523060a082015260009060c00160405160208183030381529060405280519060200120905090565b60a05250503060e0526200019933620001d9565b506200048f565b6000602083511015620001c057620001b8836200022b565b9050620001d3565b81620001cd84826200034e565b5060ff90505b92915050565b600c80546001600160a01b038381166001600160a01b0319831681179093556040519116919082907f8be0079c531659141344cd1fd0a4f28419497f9722a3daafe3b4186f6b6457e090600090a35050565b600080829050601f8151111562000262578260405163305a27a960e01b81526004016200025991906200041a565b60405180910390fd5b80516200026f826200046a565b179392505050565b6000602082840312156200028a57600080fd5b81516001600160a01b0381168114620002a257600080fd5b9392505050565b634e487b7160e01b600052604160045260246000fd5b600181811c90821680620002d457607f821691505b602082108103620002f557634e487b7160e01b600052602260045260246000fd5b50919050565b601f8211156200034957600081815260208120601f850160051c81016020861015620003245750805b601f850160051c820191505b81811015620003455782815560010162000330565b5050505b505050565b81516001600160401b038111156200036a576200036a620002a9565b62000382816200037b8454620002bf565b84620002fb565b602080601f831160018114620003ba5760008415620003a15750858301515b600019600386901b1c1916600185901b17855562000345565b600085815260208120601f198616915b82811015620003eb57888601518255948401946001909101908401620003ca565b50858210156200040a5787850151600019600388901b60f8161c191681555b5050505050600190811b01905550565b600060208083528351808285015260005b8181101562000449578581018301518582016040015282016200042b565b506000604082860101526040601f19601f8301168501019250505092915050565b80516020808301519190811015620002f55760001960209190910360031b1b16919050565b60805160a05160c05160e05161010051610120516101405161016051612fe4620005036000396000610c3f01526000610c1401526000611407015260006113df0152600061133a015260006113640152600061138e0152600081816104450152818161149f01526115460152612fe46000f3fe608060405234801561001057600080fd5b50600436106102065760003560e01c806370a082311161011a5780639ab24eb0116100ad578063c3cda5201161007c578063c3cda5201461047a578063c87b56dd1461048d578063e131fc0c146104a0578063e985e9c5146104b3578063f2fde38b146104ef57600080fd5b80639ab24eb01461041a578063a22cb4651461042d578063ad007d6314610440578063b88d4fde1461046757600080fd5b80638da5cb5b116100e95780638da5cb5b146103cf5780638e539e8c146103e057806391ddadf4146103f357806395d89b411461041257600080fd5b806370a0823114610386578063715018a6146103995780637ecebe00146103a157806384b0196e146103b457600080fd5b8063365749751161019d5780634bf5d7e91161016c5780634bf5d7e914610319578063587cde1e146103215780635c19a95c1461034d5780636352211e14610360578063666d87a01461037357600080fd5b806336574975146102cd57806339fbc775146102e05780633a46b1a8146102f357806342842e0e1461030657600080fd5b8063095ea7b3116101d9578063095ea7b31461028a57806323b872dd1461029f5780632407497e146102b25780633644e515146102c557600080fd5b806301ffc9a71461020b57806306661abd1461023357806306fdde031461024a578063081812fc1461025f575b600080fd5b61021e610219366004612657565b610502565b60405190151581526020015b60405180910390f35b61023c600d5481565b60405190815260200161022a565b610252610548565b60405161022a91906126c4565b61027261026d3660046126d7565b6105da565b6040516001600160a01b03909116815260200161022a565b61029d610298366004612705565b610601565b005b61029d6102ad366004612731565b61071b565b61029d6102c0366004612772565b61074c565b61023c6107a8565b61029d6102db3660046127a1565b6107b7565b6102526102ee3660046127e8565b610842565b61023c610301366004612705565b6108e7565b61029d610314366004612731565b610978565b610252610993565b61027261032f366004612772565b6001600160a01b039081166000908152600860205260409020541690565b61029d61035b366004612772565b610a2b565b61027261036e3660046126d7565b610a3a565b61023c61038136600461280a565b610a9a565b61023c610394366004612772565b610b4e565b61029d610bd4565b61023c6103af366004612772565b610be8565b6103bc610c06565b60405161022a9796959493929190612844565b600c546001600160a01b0316610272565b61023c6103ee3660046126d7565b610c8f565b6103fb610d09565b60405165ffffffffffff909116815260200161022a565b610252610d14565b61023c610428366004612772565b610d23565b61029d61043b3660046128e8565b610d44565b6102727f000000000000000000000000000000000000000000000000000000000000000081565b61029d610475366004612990565b610d4f565b61029d610488366004612a3f565b610d87565b61025261049b3660046126d7565b610eb4565b600f54610272906001600160a01b031681565b61021e6104c1366004612aa1565b6001600160a01b03918216600090815260056020908152604080832093909416825291909152205460ff1690565b61029d6104fd366004612772565b610f52565b60006001600160e01b0319821663aa91a66f60e01b148061053357506001600160e01b0319821663ad007d6360e01b145b80610542575061054282610fcb565b92915050565b60606000805461055790612acf565b80601f016020809104026020016040519081016040528092919081815260200182805461058390612acf565b80156105d05780601f106105a5576101008083540402835291602001916105d0565b820191906000526020600020905b8154815290600101906020018083116105b357829003601f168201915b5050505050905090565b60006105e58261101b565b506000908152600460205260409020546001600160a01b031690565b600061060c82610a3a565b9050806001600160a01b0316836001600160a01b03160361067e5760405162461bcd60e51b815260206004820152602160248201527f4552433732313a20617070726f76616c20746f2063757272656e74206f776e656044820152603960f91b60648201526084015b60405180910390fd5b336001600160a01b038216148061069a575061069a81336104c1565b61070c5760405162461bcd60e51b815260206004820152603d60248201527f4552433732313a20617070726f76652063616c6c6572206973206e6f7420746f60448201527f6b656e206f776e6572206f7220617070726f76656420666f7220616c6c0000006064820152608401610675565b610716838361107a565b505050565b61072533826110e8565b6107415760405162461bcd60e51b815260040161067590612b03565b610716838383611167565b6107546112d3565b600f80546001600160a01b0319166001600160a01b0383169081179091556040513381527fe7784d93cfbfa4408e19577e6cc0436f4dbb51214b70e100905dfce9def88c169060200160405180910390a250565b60006107b261132d565b905090565b6107c082610a3a565b8260066107ce838383611458565b6107d88480612b50565b6000878152600e60209081526040808320898301358452909152902091610800919083612bec565b50847fd07720acb527321c9d1766f359139d0e0e3551bd99fb3ca353d4f008f3aad8e68533604051610833929190612cad565b60405180910390a25050505050565b600e6020908152600092835260408084209091529082529020805461086690612acf565b80601f016020809104026020016040519081016040528092919081815260200182805461089290612acf565b80156108df5780601f106108b4576101008083540402835291602001916108df565b820191906000526020600020905b8154815290600101906020018083116108c257829003601f168201915b505050505081565b60006108f1610d09565b65ffffffffffff16821061093e5760405162461bcd60e51b81526020600482015260146024820152730566f7465733a20667574757265206c6f6f6b75760641b6044820152606401610675565b61096861094a836115d1565b6001600160a01b03851660009081526009602052604090209061163a565b6001600160e01b03169392505050565b61071683838360405180602001604052806000815250610d4f565b60604361099e610d09565b65ffffffffffff16146109f35760405162461bcd60e51b815260206004820152601860248201527f566f7465733a2062726f6b656e20636c6f636b206d6f646500000000000000006044820152606401610675565b5060408051808201909152601d81527f6d6f64653d626c6f636b6e756d6265722666726f6d3d64656661756c74000000602082015290565b33610a3681836116ef565b5050565b6000818152600260205260408120546001600160a01b0316806105425760405162461bcd60e51b8152602060048201526018602482015277115490cdcc8c4e881a5b9d985b1a59081d1bdad95b88125160421b6044820152606401610675565b6000600d60008154610aab90612d55565b91829055509050610abc8382611761565b6000610ac88380612b50565b90501115610b0457610ada8280612b50565b6000838152600e60209081526040808320878301358452909152902091610b02919083612bec565b505b826001600160a01b0316817fa1c6fd563bcbc3222f6031d7c26ff58cd6c701abff0bfffe652d055ce40629d48433604051610b40929190612cad565b60405180910390a392915050565b60006001600160a01b038216610bb85760405162461bcd60e51b815260206004820152602960248201527f4552433732313a2061646472657373207a65726f206973206e6f7420612076616044820152683634b21037bbb732b960b91b6064820152608401610675565b506001600160a01b031660009081526003602052604090205490565b610bdc6112d3565b610be6600061177b565b565b6001600160a01b0381166000908152600b6020526040812054610542565b600060608082808083610c3a7f000000000000000000000000000000000000000000000000000000000000000060066117cd565b610c657f000000000000000000000000000000000000000000000000000000000000000060076117cd565b60408051600080825260208201909252600f60f81b9b939a50919850469750309650945092509050565b6000610c99610d09565b65ffffffffffff168210610ce65760405162461bcd60e51b81526020600482015260146024820152730566f7465733a20667574757265206c6f6f6b75760641b6044820152606401610675565b610cfa610cf2836115d1565b600a9061163a565b6001600160e01b031692915050565b60006107b243611878565b60606001805461055790612acf565b6001600160a01b0381166000908152600960205260408120610cfa906118df565b610a36338383611919565b610d5933836110e8565b610d755760405162461bcd60e51b815260040161067590612b03565b610d81848484846119e7565b50505050565b83421115610dd75760405162461bcd60e51b815260206004820152601860248201527f566f7465733a207369676e6174757265206578706972656400000000000000006044820152606401610675565b604080517fe48329057bfd03d55e49b547132e39cffd9c1820ad7b9d4c5307691425d15adf60208201526001600160a01b038816918101919091526060810186905260808101859052600090610e5190610e499060a00160405160208183030381529060405280519060200120611a1a565b858585611a47565b9050610e5c81611a6f565b8614610ea15760405162461bcd60e51b8152602060048201526014602482015273566f7465733a20696e76616c6964206e6f6e636560601b6044820152606401610675565b610eab81886116ef565b50505050505050565b600f546060906001600160a01b031680610ede575050604080516020810190915260008152919050565b604051636d02a25560e11b8152600481018490526001600160a01b0382169063da0544aa90602401600060405180830381865afa158015610f23573d6000803e3d6000fd5b505050506040513d6000823e601f3d908101601f19168201604052610f4b9190810190612d6e565b9392505050565b610f5a6112d3565b6001600160a01b038116610fbf5760405162461bcd60e51b815260206004820152602660248201527f4f776e61626c653a206e6577206f776e657220697320746865207a65726f206160448201526564647265737360d01b6064820152608401610675565b610fc88161177b565b50565b60006001600160e01b031982166380ac58cd60e01b1480610ffc57506001600160e01b03198216635b5e139f60e01b145b8061054257506301ffc9a760e01b6001600160e01b0319831614610542565b6000818152600260205260409020546001600160a01b0316610fc85760405162461bcd60e51b8152602060048201526018602482015277115490cdcc8c4e881a5b9d985b1a59081d1bdad95b88125160421b6044820152606401610675565b600081815260046020526040902080546001600160a01b0319166001600160a01b03841690811790915581906110af82610a3a565b6001600160a01b03167f8c5be1e5ebec7d5bd14f71427d1e84f3dd0314c0f7b2291e5b200ac8c7c3b92560405160405180910390a45050565b6000806110f483610a3a565b9050806001600160a01b0316846001600160a01b0316148061113b57506001600160a01b0380821660009081526005602090815260408083209388168352929052205460ff165b8061115f5750836001600160a01b0316611154846105da565b6001600160a01b0316145b949350505050565b826001600160a01b031661117a82610a3a565b6001600160a01b0316146111a05760405162461bcd60e51b815260040161067590612de5565b6001600160a01b0382166112025760405162461bcd60e51b8152602060048201526024808201527f4552433732313a207472616e7366657220746f20746865207a65726f206164646044820152637265737360e01b6064820152608401610675565b826001600160a01b031661121582610a3a565b6001600160a01b03161461123b5760405162461bcd60e51b815260040161067590612de5565b600081815260046020908152604080832080546001600160a01b03199081169091556001600160a01b0387811680865260038552838620805460001901905590871680865283862080546001019055868652600290945282852080549092168417909155905184937fddf252ad1be2c89b69c2b068fc378daa952ba7f163c4a11628f55a4df523b3ef91a46107168383836001611a97565b600c546001600160a01b03163314610be65760405162461bcd60e51b815260206004820181905260248201527f4f776e61626c653a2063616c6c6572206973206e6f7420746865206f776e65726044820152606401610675565b6000306001600160a01b037f00000000000000000000000000000000000000000000000000000000000000001614801561138657507f000000000000000000000000000000000000000000000000000000000000000046145b156113b057507f000000000000000000000000000000000000000000000000000000000000000090565b6107b2604080517f8b73c3c69bb8fe3d512ecc4cf759cc79239f7b179b0ffacaa9a75d522b39400f60208201527f0000000000000000000000000000000000000000000000000000000000000000918101919091527f000000000000000000000000000000000000000000000000000000000000000060608201524660808201523060a082015260009060c00160405160208183030381529060405280519060200120905090565b336001600160a01b0384161480159061150c575060405163c161c93f60e01b81523360048201526001600160a01b03848116602483015260448201849052606482018390527f0000000000000000000000000000000000000000000000000000000000000000169063c161c93f90608401602060405180830381865afa1580156114e6573d6000803e3d6000fd5b505050506040513d601f19601f8201168201806040525081019061150a9190612e2a565b155b80156115b3575060405163c161c93f60e01b81523360048201526001600160a01b03848116602483015260006044830152606482018390527f0000000000000000000000000000000000000000000000000000000000000000169063c161c93f90608401602060405180830381865afa15801561158d573d6000803e3d6000fd5b505050506040513d601f19601f820116820180604052508101906115b19190612e2a565b155b156107165760405163075fd2b160e01b815260040160405180910390fd5b600063ffffffff8211156116365760405162461bcd60e51b815260206004820152602660248201527f53616665436173743a2076616c756520646f65736e27742066697420696e203360448201526532206269747360d01b6064820152608401610675565b5090565b81546000908181600581111561169757600061165584611aa7565b61165f9085612e47565b60008881526020902090915081015463ffffffff908116908716101561168757809150611695565b611692816001612e5a565b92505b505b60006116a587878585611b8f565b905080156116e1576116ca876116bc600184612e47565b600091825260209091200190565b5464010000000090046001600160e01b03166116e4565b60005b979650505050505050565b6001600160a01b0382811660008181526008602052604080822080548686166001600160a01b0319821681179092559151919094169392849290917f3134e8a2e6d97e929a7e54011ea5485d7d196dd5f0ba4d4ef95803e8e3fc257f9190a4610716818361175c86611bed565b611bf8565b610a36828260405180602001604052806000815250611d55565b600c80546001600160a01b038381166001600160a01b0319831681179093556040519116919082907f8be0079c531659141344cd1fd0a4f28419497f9722a3daafe3b4186f6b6457e090600090a35050565b606060ff83146117e7576117e083611d88565b9050610542565b8180546117f390612acf565b80601f016020809104026020016040519081016040528092919081815260200182805461181f90612acf565b801561186c5780601f106118415761010080835404028352916020019161186c565b820191906000526020600020905b81548152906001019060200180831161184f57829003601f168201915b50505050509050610542565b600065ffffffffffff8211156116365760405162461bcd60e51b815260206004820152602660248201527f53616665436173743a2076616c756520646f65736e27742066697420696e203460448201526538206269747360d01b6064820152608401610675565b80546000908015611910576118f9836116bc600184612e47565b5464010000000090046001600160e01b0316610f4b565b60009392505050565b816001600160a01b0316836001600160a01b03160361197a5760405162461bcd60e51b815260206004820152601960248201527f4552433732313a20617070726f766520746f2063616c6c6572000000000000006044820152606401610675565b6001600160a01b03838116600081815260056020908152604080832094871680845294825291829020805460ff191686151590811790915591519182527f17307eab39ab6107e8899845ad3d59bd9653f200f220920489ca2b5937696c31910160405180910390a3505050565b6119f2848484611167565b6119fe84848484611dc7565b610d815760405162461bcd60e51b815260040161067590612e6d565b6000610542611a2761132d565b8360405161190160f01b8152600281019290925260228201526042902090565b6000806000611a5887878787611ec5565b91509150611a6581611f89565b5095945050505050565b6001600160a01b0381166000908152600b602052604090208054600181018255905b50919050565b611aa28484836120d3565b610d81565b600081600003611ab957506000919050565b60006001611ac684612149565b901c6001901b90506001818481611adf57611adf612ebf565b048201901c90506001818481611af757611af7612ebf565b048201901c90506001818481611b0f57611b0f612ebf565b048201901c90506001818481611b2757611b27612ebf565b048201901c90506001818481611b3f57611b3f612ebf565b048201901c90506001818481611b5757611b57612ebf565b048201901c90506001818481611b6f57611b6f612ebf565b048201901c9050610f4b81828581611b8957611b89612ebf565b046121dd565b60005b81831015611be5576000611ba684846121f3565b60008781526020902090915063ffffffff86169082015463ffffffff161115611bd157809250611bdf565b611bdc816001612e5a565b93505b50611b92565b509392505050565b600061054282610b4e565b816001600160a01b0316836001600160a01b031614158015611c1a5750600081115b15610716576001600160a01b03831615611cc2576001600160a01b03831660009081526009602052604081208190611c5d9061220e611c588661221a565b612283565b6001600160e01b031691506001600160e01b03169150846001600160a01b03167fdec2bacdd2f05b59de34da9b523dff8be42e5e38e818c82fdb0bae774387a7248383604051611cb7929190918252602082015260400190565b60405180910390a250505b6001600160a01b03821615610716576001600160a01b03821660009081526009602052604081208190611cfb906122cc611c588661221a565b6001600160e01b031691506001600160e01b03169150836001600160a01b03167fdec2bacdd2f05b59de34da9b523dff8be42e5e38e818c82fdb0bae774387a7248383604051610833929190918252602082015260400190565b611d5f83836122d8565b611d6c6000848484611dc7565b6107165760405162461bcd60e51b815260040161067590612e6d565b60606000611d958361246d565b604080516020808252818301909252919250600091906020820181803683375050509182525060208101929092525090565b60006001600160a01b0384163b15611ebd57604051630a85bd0160e11b81526001600160a01b0385169063150b7a0290611e0b903390899088908890600401612ed5565b6020604051808303816000875af1925050508015611e46575060408051601f3d908101601f19168201909252611e4391810190612f12565b60015b611ea3573d808015611e74576040519150601f19603f3d011682016040523d82523d6000602084013e611e79565b606091505b508051600003611e9b5760405162461bcd60e51b815260040161067590612e6d565b805181602001fd5b6001600160e01b031916630a85bd0160e11b14905061115f565b50600161115f565b6000807f7fffffffffffffffffffffffffffffff5d576e7357a4501ddfe92f46681b20a0831115611efc5750600090506003611f80565b6040805160008082526020820180845289905260ff881692820192909252606081018690526080810185905260019060a0016020604051602081039080840390855afa158015611f50573d6000803e3d6000fd5b5050604051601f1901519150506001600160a01b038116611f7957600060019250925050611f80565b9150600090505b94509492505050565b6000816004811115611f9d57611f9d612f2f565b03611fa55750565b6001816004811115611fb957611fb9612f2f565b036120065760405162461bcd60e51b815260206004820152601860248201527f45434453413a20696e76616c6964207369676e617475726500000000000000006044820152606401610675565b600281600481111561201a5761201a612f2f565b036120675760405162461bcd60e51b815260206004820152601f60248201527f45434453413a20696e76616c6964207369676e6174757265206c656e677468006044820152606401610675565b600381600481111561207b5761207b612f2f565b03610fc85760405162461bcd60e51b815260206004820152602260248201527f45434453413a20696e76616c6964207369676e6174757265202773272076616c604482015261756560f01b6064820152608401610675565b6001600160a01b0383166120f5576120f2600a6122cc611c588461221a565b50505b6001600160a01b03821661211757612114600a61220e611c588461221a565b50505b6001600160a01b0383811660009081526008602052604080822054858416835291205461071692918216911683611bf8565b600080608083901c1561215e57608092831c92015b604083901c1561217057604092831c92015b602083901c1561218257602092831c92015b601083901c1561219457601092831c92015b600883901c156121a657600892831c92015b600483901c156121b857600492831c92015b600283901c156121ca57600292831c92015b600183901c156105425760010192915050565b60008183106121ec5781610f4b565b5090919050565b60006122026002848418612f45565b610f4b90848416612e5a565b6000610f4b8284612f67565b60006001600160e01b038211156116365760405162461bcd60e51b815260206004820152602760248201527f53616665436173743a2076616c756520646f65736e27742066697420696e20326044820152663234206269747360c81b6064820152608401610675565b6000806122bf6122a1612294610d09565b65ffffffffffff166115d1565b6122b76122ad886118df565b868863ffffffff16565b879190612495565b915091505b935093915050565b6000610f4b8284612f8e565b6001600160a01b03821661232e5760405162461bcd60e51b815260206004820181905260248201527f4552433732313a206d696e7420746f20746865207a65726f20616464726573736044820152606401610675565b6000818152600260205260409020546001600160a01b0316156123935760405162461bcd60e51b815260206004820152601c60248201527f4552433732313a20746f6b656e20616c7265616479206d696e746564000000006044820152606401610675565b6000818152600260205260409020546001600160a01b0316156123f85760405162461bcd60e51b815260206004820152601c60248201527f4552433732313a20746f6b656e20616c7265616479206d696e746564000000006044820152606401610675565b6001600160a01b038216600081815260036020908152604080832080546001019055848352600290915280822080546001600160a01b0319168417905551839291907fddf252ad1be2c89b69c2b068fc378daa952ba7f163c4a11628f55a4df523b3ef908290a4610a36600083836001611a97565b600060ff8216601f81111561054257604051632cd44ac360e21b815260040160405180910390fd5b6000806122bf8585858254600090819080156125e75760006124bc876116bc600185612e47565b60408051808201909152905463ffffffff8082168084526401000000009092046001600160e01b03166020840152919250908716101561253e5760405162461bcd60e51b815260206004820152601b60248201527f436865636b706f696e743a2064656372656173696e67206b65797300000000006044820152606401610675565b805163ffffffff808816911603612587578461255f886116bc600186612e47565b80546001600160e01b03929092166401000000000263ffffffff9092169190911790556125d7565b6040805180820190915263ffffffff80881682526001600160e01b0380881660208085019182528b54600181018d5560008d81529190912094519151909216640100000000029216919091179101555b6020015192508391506122c49050565b50506040805180820190915263ffffffff80851682526001600160e01b0380851660208085019182528854600181018a5560008a8152918220955192519093166401000000000291909316179201919091559050816122c4565b6001600160e01b031981168114610fc857600080fd5b60006020828403121561266957600080fd5b8135610f4b81612641565b60005b8381101561268f578181015183820152602001612677565b50506000910152565b600081518084526126b0816020860160208601612674565b601f01601f19169290920160200192915050565b602081526000610f4b6020830184612698565b6000602082840312156126e957600080fd5b5035919050565b6001600160a01b0381168114610fc857600080fd5b6000806040838503121561271857600080fd5b8235612723816126f0565b946020939093013593505050565b60008060006060848603121561274657600080fd5b8335612751816126f0565b92506020840135612761816126f0565b929592945050506040919091013590565b60006020828403121561278457600080fd5b8135610f4b816126f0565b600060408284031215611a9157600080fd5b600080604083850312156127b457600080fd5b82359150602083013567ffffffffffffffff8111156127d257600080fd5b6127de8582860161278f565b9150509250929050565b600080604083850312156127fb57600080fd5b50508035926020909101359150565b6000806040838503121561281d57600080fd5b8235612828816126f0565b9150602083013567ffffffffffffffff8111156127d257600080fd5b60ff60f81b881681526000602060e08184015261286460e084018a612698565b8381036040850152612876818a612698565b606085018990526001600160a01b038816608086015260a0850187905284810360c0860152855180825283870192509083019060005b818110156128c8578351835292840192918401916001016128ac565b50909c9b505050505050505050505050565b8015158114610fc857600080fd5b600080604083850312156128fb57600080fd5b8235612906816126f0565b91506020830135612916816128da565b809150509250929050565b634e487b7160e01b600052604160045260246000fd5b604051601f8201601f1916810167ffffffffffffffff8111828210171561296057612960612921565b604052919050565b600067ffffffffffffffff82111561298257612982612921565b50601f01601f191660200190565b600080600080608085870312156129a657600080fd5b84356129b1816126f0565b935060208501356129c1816126f0565b925060408501359150606085013567ffffffffffffffff8111156129e457600080fd5b8501601f810187136129f557600080fd5b8035612a08612a0382612968565b612937565b818152886020838501011115612a1d57600080fd5b8160208401602083013760006020838301015280935050505092959194509250565b60008060008060008060c08789031215612a5857600080fd5b8635612a63816126f0565b95506020870135945060408701359350606087013560ff81168114612a8757600080fd5b9598949750929560808101359460a0909101359350915050565b60008060408385031215612ab457600080fd5b8235612abf816126f0565b91506020830135612916816126f0565b600181811c90821680612ae357607f821691505b602082108103611a9157634e487b7160e01b600052602260045260246000fd5b6020808252602d908201527f4552433732313a2063616c6c6572206973206e6f7420746f6b656e206f776e6560408201526c1c881bdc88185c1c1c9bdd9959609a1b606082015260800190565b6000808335601e19843603018112612b6757600080fd5b83018035915067ffffffffffffffff821115612b8257600080fd5b602001915036819003821315612b9757600080fd5b9250929050565b601f82111561071657600081815260208120601f850160051c81016020861015612bc55750805b601f850160051c820191505b81811015612be457828155600101612bd1565b505050505050565b67ffffffffffffffff831115612c0457612c04612921565b612c1883612c128354612acf565b83612b9e565b6000601f841160018114612c4c5760008515612c345750838201355b600019600387901b1c1916600186901b178355612ca6565b600083815260209020601f19861690835b82811015612c7d5786850135825560209485019460019092019101612c5d565b5086821015612c9a5760001960f88860031b161c19848701351681555b505060018560011b0183555b5050505050565b6040815260008335601e19853603018112612cc757600080fd5b840160208101903567ffffffffffffffff811115612ce457600080fd5b803603821315612cf357600080fd5b604080850152806080850152808260a0860137600060a082860101526020860135606085015260a0601f19601f83011685010192505050610f4b60208301846001600160a01b03169052565b634e487b7160e01b600052601160045260246000fd5b600060018201612d6757612d67612d3f565b5060010190565b600060208284031215612d8057600080fd5b815167ffffffffffffffff811115612d9757600080fd5b8201601f81018413612da857600080fd5b8051612db6612a0382612968565b818152856020838501011115612dcb57600080fd5b612ddc826020830160208601612674565b95945050505050565b60208082526025908201527f4552433732313a207472616e736665722066726f6d20696e636f72726563742060408201526437bbb732b960d91b606082015260800190565b600060208284031215612e3c57600080fd5b8151610f4b816128da565b8181038181111561054257610542612d3f565b8082018082111561054257610542612d3f565b60208082526032908201527f4552433732313a207472616e7366657220746f206e6f6e20455243373231526560408201527131b2b4bb32b91034b6b83632b6b2b73a32b960711b606082015260800190565b634e487b7160e01b600052601260045260246000fd5b6001600160a01b0385811682528416602082015260408101839052608060608201819052600090612f0890830184612698565b9695505050505050565b600060208284031215612f2457600080fd5b8151610f4b81612641565b634e487b7160e01b600052602160045260246000fd5b600082612f6257634e487b7160e01b600052601260045260246000fd5b500490565b6001600160e01b03828116828216039080821115612f8757612f87612d3f565b5092915050565b6001600160e01b03818116838216019080821115612f8757612f87612d3f56fea2646970667358221220d83e3cffb992b5ac7aa2d1ef0941fa43d424993a596b7c3a5250b9835f7ca21e64736f6c63430008140033",
    "linkReferences": {}
  },
  "methodIdentifiers": {
    "CLOCK_MODE()": "4bf5d7e9",
    "DOMAIN_SEPARATOR()": "3644e515",
    "approve(address,uint256)": "095ea7b3",
    "balanceOf(address)": "70a08231",
    "clock()": "91ddadf4",
    "count()": "06661abd",
    "createFor(address,(string,uint256))": "666d87a0",
    "delegate(address)": "5c19a95c",
    "delegateBySig(address,uint256,uint256,uint8,bytes32,bytes32)": "c3cda520",
    "delegates(address)": "587cde1e",
    "eip712Domain()": "84b0196e",
    "getApproved(uint256)": "081812fc",
    "getPastTotalSupply(uint256)": "8e539e8c",
    "getPastVotes(address,uint256)": "3a46b1a8",
    "getVotes(address)": "9ab24eb0",
    "isApprovedForAll(address,address)": "e985e9c5",
    "metadataContentOf(uint256,uint256)": "39fbc775",
    "name()": "06fdde03",
    "nonces(address)": "7ecebe00",
    "operatorStore()": "ad007d63",
    "owner()": "8da5cb5b",
    "ownerOf(uint256)": "6352211e",
    "renounceOwnership()": "715018a6",
    "safeTransferFrom(address,address,uint256)": "42842e0e",
    "safeTransferFrom(address,address,uint256,bytes)": "b88d4fde",
    "setApprovalForAll(address,bool)": "a22cb465",
    "setMetadataOf(uint256,(string,uint256))": "36574975",
    "setTokenUriResolver(address)": "2407497e",
    "supportsInterface(bytes4)": "01ffc9a7",
    "symbol()": "95d89b41",
    "tokenURI(uint256)": "c87b56dd",
    "tokenUriResolver()": "e131fc0c",
    "transferFrom(address,address,uint256)": "23b872dd",
    "transferOwnership(address)": "f2fde38b"
  },
  "id": 65
}