{
  "abi": [
    {
      "inputs": [
        {
          "internalType": "contract IJBOperatorStore",
          "name": "_operatorStore",
          "type": "address"
        }
      ],
      "stateMutability": "nonpayable",
      "type": "constructor"
    },
    {
      "inputs": [],
      "name": "UNAUTHORIZED",
      "type": "error"
    },
    {
      "anonymous": false,
      "inputs": [
        {
          "indexed": true,
          "internalType": "address",
          "name": "owner",
          "type": "address"
        },
        {
          "indexed": true,
          "internalType": "address",
          "name": "approved",
          "type": "address"
        },
        {
          "indexed": true,
          "internalType": "uint256",
          "name": "tokenId",
          "type": "uint256"
        }
      ],
      "name": "Approval",
      "type": "event"
    },
    {
      "anonymous": false,
      "inputs": [
        {
          "indexed": true,
          "internalType": "address",
          "name": "owner",
          "type": "address"
        },
        {
          "indexed": true,
          "internalType": "address",
          "name": "operator",
          "type": "address"
        },
        {
          "indexed": false,
          "internalType": "bool",
          "name": "approved",
          "type": "bool"
        }
      ],
      "name": "ApprovalForAll",
      "type": "event"
    },
    {
      "anonymous": false,
      "inputs": [
        {
          "indexed": true,
          "internalType": "uint256",
          "name": "projectId",
          "type": "uint256"
        },
        {
          "indexed": true,
          "internalType": "address",
          "name": "owner",
          "type": "address"
        },
        {
          "components": [
            {
              "internalType": "string",
              "name": "content",
              "type": "string"
            },
            {
              "internalType": "uint256",
              "name": "domain",
              "type": "uint256"
            }
          ],
          "indexed": false,
          "internalType": "struct JBProjectMetadata",
          "name": "metadata",
          "type": "tuple"
        },
        {
          "indexed": false,
          "internalType": "address",
          "name": "caller",
          "type": "address"
        }
      ],
      "name": "Create",
      "type": "event"
    },
    {
      "anonymous": false,
      "inputs": [
        {
          "indexed": true,
          "internalType": "address",
          "name": "delegator",
          "type": "address"
        },
        {
          "indexed": true,
          "internalType": "address",
          "name": "fromDelegate",
          "type": "address"
        },
        {
          "indexed": true,
          "internalType": "address",
          "name": "toDelegate",
          "type": "address"
        }
      ],
      "name": "DelegateChanged",
      "type": "event"
    },
    {
      "anonymous": false,
      "inputs": [
        {
          "indexed": true,
          "internalType": "address",
          "name": "delegate",
          "type": "address"
        },
        {
          "indexed": false,
          "internalType": "uint256",
          "name": "previousBalance",
          "type": "uint256"
        },
        {
          "indexed": false,
          "internalType": "uint256",
          "name": "newBalance",
          "type": "uint256"
        }
      ],
      "name": "DelegateVotesChanged",
      "type": "event"
    },
    {
      "anonymous": false,
      "inputs": [
        {
          "indexed": true,
          "internalType": "address",
          "name": "previousOwner",
          "type": "address"
        },
        {
          "indexed": true,
          "internalType": "address",
          "name": "newOwner",
          "type": "address"
        }
      ],
      "name": "OwnershipTransferred",
      "type": "event"
    },
    {
      "anonymous": false,
      "inputs": [
        {
          "indexed": true,
          "internalType": "uint256",
          "name": "projectId",
          "type": "uint256"
        },
        {
          "components": [
            {
              "internalType": "string",
              "name": "content",
              "type": "string"
            },
            {
              "internalType": "uint256",
              "name": "domain",
              "type": "uint256"
            }
          ],
          "indexed": false,
          "internalType": "struct JBProjectMetadata",
          "name": "metadata",
          "type": "tuple"
        },
        {
          "indexed": false,
          "internalType": "address",
          "name": "caller",
          "type": "address"
        }
      ],
      "name": "SetMetadata",
      "type": "event"
    },
    {
      "anonymous": false,
      "inputs": [
        {
          "indexed": true,
          "internalType": "contract IJBTokenUriResolver",
          "name": "resolver",
          "type": "address"
        },
        {
          "indexed": false,
          "internalType": "address",
          "name": "caller",
          "type": "address"
        }
      ],
      "name": "SetTokenUriResolver",
      "type": "event"
    },
    {
      "anonymous": false,
      "inputs": [
        {
          "indexed": true,
          "internalType": "address",
          "name": "from",
          "type": "address"
        },
        {
          "indexed": true,
          "internalType": "address",
          "name": "to",
          "type": "address"
        },
        {
          "indexed": true,
          "internalType": "uint256",
          "name": "tokenId",
          "type": "uint256"
        }
      ],
      "name": "Transfer",
      "type": "event"
    },
    {
      "inputs": [],
      "name": "DOMAIN_SEPARATOR",
      "outputs": [
        {
          "internalType": "bytes32",
          "name": "",
          "type": "bytes32"
        }
      ],
      "stateMutability": "view",
      "type": "function"
    },
    {
      "inputs": [
        {
          "internalType": "address",
          "name": "to",
          "type": "address"
        },
        {
          "internalType": "uint256",
          "name": "tokenId",
          "type": "uint256"
        }
      ],
      "name": "approve",
      "outputs": [],
      "stateMutability": "nonpayable",
      "type": "function"
    },
    {
      "inputs": [
        {
          "internalType": "address",
          "name": "owner",
          "type": "address"
        }
      ],
      "name": "balanceOf",
      "outputs": [
        {
          "internalType": "uint256",
          "name": "",
          "type": "uint256"
        }
      ],
      "stateMutability": "view",
      "type": "function"
    },
    {
      "inputs": [],
      "name": "count",
      "outputs": [
        {
          "internalType": "uint256",
          "name": "",
          "type": "uint256"
        }
      ],
      "stateMutability": "view",
      "type": "function"
    },
    {
      "inputs": [
        {
          "internalType": "address",
          "name": "_owner",
          "type": "address"
        },
        {
          "components": [
            {
              "internalType": "string",
              "name": "content",
              "type": "string"
            },
            {
              "internalType": "uint256",
              "name": "domain",
              "type": "uint256"
            }
          ],
          "internalType": "struct JBProjectMetadata",
          "name": "_metadata",
          "type": "tuple"
        }
      ],
      "name": "createFor",
      "outputs": [
        {
          "internalType": "uint256",
          "name": "projectId",
          "type": "uint256"
        }
      ],
      "stateMutability": "nonpayable",
      "type": "function"
    },
    {
      "inputs": [
        {
          "internalType": "address",
          "name": "delegatee",
          "type": "address"
        }
      ],
      "name": "delegate",
      "outputs": [],
      "stateMutability": "nonpayable",
      "type": "function"
    },
    {
      "inputs": [
        {
          "internalType": "address",
          "name": "delegatee",
          "type": "address"
        },
        {
          "internalType": "uint256",
          "name": "nonce",
          "type": "uint256"
        },
        {
          "internalType": "uint256",
          "name": "expiry",
          "type": "uint256"
        },
        {
          "internalType": "uint8",
          "name": "v",
          "type": "uint8"
        },
        {
          "internalType": "bytes32",
          "name": "r",
          "type": "bytes32"
        },
        {
          "internalType": "bytes32",
          "name": "s",
          "type": "bytes32"
        }
      ],
      "name": "delegateBySig",
      "outputs": [],
      "stateMutability": "nonpayable",
      "type": "function"
    },
    {
      "inputs": [
        {
          "internalType": "address",
          "name": "account",
          "type": "address"
        }
      ],
      "name": "delegates",
      "outputs": [
        {
          "internalType": "address",
          "name": "",
          "type": "address"
        }
      ],
      "stateMutability": "view",
      "type": "function"
    },
    {
      "inputs": [
        {
          "internalType": "uint256",
          "name": "tokenId",
          "type": "uint256"
        }
      ],
      "name": "getApproved",
      "outputs": [
        {
          "internalType": "address",
          "name": "",
          "type": "address"
        }
      ],
      "stateMutability": "view",
      "type": "function"
    },
    {
      "inputs": [
        {
          "internalType": "uint256",
          "name": "blockNumber",
          "type": "uint256"
        }
      ],
      "name": "getPastTotalSupply",
      "outputs": [
        {
          "internalType": "uint256",
          "name": "",
          "type": "uint256"
        }
      ],
      "stateMutability": "view",
      "type": "function"
    },
    {
      "inputs": [
        {
          "internalType": "address",
          "name": "account",
          "type": "address"
        },
        {
          "internalType": "uint256",
          "name": "blockNumber",
          "type": "uint256"
        }
      ],
      "name": "getPastVotes",
      "outputs": [
        {
          "internalType": "uint256",
          "name": "",
          "type": "uint256"
        }
      ],
      "stateMutability": "view",
      "type": "function"
    },
    {
      "inputs": [
        {
          "internalType": "address",
          "name": "account",
          "type": "address"
        }
      ],
      "name": "getVotes",
      "outputs": [
        {
          "internalType": "uint256",
          "name": "",
          "type": "uint256"
        }
      ],
      "stateMutability": "view",
      "type": "function"
    },
    {
      "inputs": [
        {
          "internalType": "address",
          "name": "owner",
          "type": "address"
        },
        {
          "internalType": "address",
          "name": "operator",
          "type": "address"
        }
      ],
      "name": "isApprovedForAll",
      "outputs": [
        {
          "internalType": "bool",
          "name": "",
          "type": "bool"
        }
      ],
      "stateMutability": "view",
      "type": "function"
    },
    {
      "inputs": [
        {
          "internalType": "uint256",
          "name": "",
          "type": "uint256"
        },
        {
          "internalType": "uint256",
          "name": "",
          "type": "uint256"
        }
      ],
      "name": "metadataContentOf",
      "outputs": [
        {
          "internalType": "string",
          "name": "",
          "type": "string"
        }
      ],
      "stateMutability": "view",
      "type": "function"
    },
    {
      "inputs": [],
      "name": "name",
      "outputs": [
        {
          "internalType": "string",
          "name": "",
          "type": "string"
        }
      ],
      "stateMutability": "view",
      "type": "function"
    },
    {
      "inputs": [
        {
          "internalType": "address",
          "name": "owner",
          "type": "address"
        }
      ],
      "name": "nonces",
      "outputs": [
        {
          "internalType": "uint256",
          "name": "",
          "type": "uint256"
        }
      ],
      "stateMutability": "view",
      "type": "function"
    },
    {
      "inputs": [],
      "name": "operatorStore",
      "outputs": [
        {
          "internalType": "contract IJBOperatorStore",
          "name": "",
          "type": "address"
        }
      ],
      "stateMutability": "view",
      "type": "function"
    },
    {
      "inputs": [],
      "name": "owner",
      "outputs": [
        {
          "internalType": "address",
          "name": "",
          "type": "address"
        }
      ],
      "stateMutability": "view",
      "type": "function"
    },
    {
      "inputs": [
        {
          "internalType": "uint256",
          "name": "tokenId",
          "type": "uint256"
        }
      ],
      "name": "ownerOf",
      "outputs": [
        {
          "internalType": "address",
          "name": "",
          "type": "address"
        }
      ],
      "stateMutability": "view",
      "type": "function"
    },
    {
      "inputs": [],
      "name": "renounceOwnership",
      "outputs": [],
      "stateMutability": "nonpayable",
      "type": "function"
    },
    {
      "inputs": [
        {
          "internalType": "address",
          "name": "from",
          "type": "address"
        },
        {
          "internalType": "address",
          "name": "to",
          "type": "address"
        },
        {
          "internalType": "uint256",
          "name": "tokenId",
          "type": "uint256"
        }
      ],
      "name": "safeTransferFrom",
      "outputs": [],
      "stateMutability": "nonpayable",
      "type": "function"
    },
    {
      "inputs": [
        {
          "internalType": "address",
          "name": "from",
          "type": "address"
        },
        {
          "internalType": "address",
          "name": "to",
          "type": "address"
        },
        {
          "internalType": "uint256",
          "name": "tokenId",
          "type": "uint256"
        },
        {
          "internalType": "bytes",
          "name": "data",
          "type": "bytes"
        }
      ],
      "name": "safeTransferFrom",
      "outputs": [],
      "stateMutability": "nonpayable",
      "type": "function"
    },
    {
      "inputs": [
        {
          "internalType": "address",
          "name": "operator",
          "type": "address"
        },
        {
          "internalType": "bool",
          "name": "approved",
          "type": "bool"
        }
      ],
      "name": "setApprovalForAll",
      "outputs": [],
      "stateMutability": "nonpayable",
      "type": "function"
    },
    {
      "inputs": [
        {
          "internalType": "uint256",
          "name": "_projectId",
          "type": "uint256"
        },
        {
          "components": [
            {
              "internalType": "string",
              "name": "content",
              "type": "string"
            },
            {
              "internalType": "uint256",
              "name": "domain",
              "type": "uint256"
            }
          ],
          "internalType": "struct JBProjectMetadata",
          "name": "_metadata",
          "type": "tuple"
        }
      ],
      "name": "setMetadataOf",
      "outputs": [],
      "stateMutability": "nonpayable",
      "type": "function"
    },
    {
      "inputs": [
        {
          "internalType": "contract IJBTokenUriResolver",
          "name": "_newResolver",
          "type": "address"
        }
      ],
      "name": "setTokenUriResolver",
      "outputs": [],
      "stateMutability": "nonpayable",
      "type": "function"
    },
    {
      "inputs": [
        {
          "internalType": "bytes4",
          "name": "_interfaceId",
          "type": "bytes4"
        }
      ],
      "name": "supportsInterface",
      "outputs": [
        {
          "internalType": "bool",
          "name": "",
          "type": "bool"
        }
      ],
      "stateMutability": "view",
      "type": "function"
    },
    {
      "inputs": [],
      "name": "symbol",
      "outputs": [
        {
          "internalType": "string",
          "name": "",
          "type": "string"
        }
      ],
      "stateMutability": "view",
      "type": "function"
    },
    {
      "inputs": [
        {
          "internalType": "uint256",
          "name": "_projectId",
          "type": "uint256"
        }
      ],
      "name": "tokenURI",
      "outputs": [
        {
          "internalType": "string",
          "name": "",
          "type": "string"
        }
      ],
      "stateMutability": "view",
      "type": "function"
    },
    {
      "inputs": [],
      "name": "tokenUriResolver",
      "outputs": [
        {
          "internalType": "contract IJBTokenUriResolver",
          "name": "",
          "type": "address"
        }
      ],
      "stateMutability": "view",
      "type": "function"
    },
    {
      "inputs": [
        {
          "internalType": "address",
          "name": "from",
          "type": "address"
        },
        {
          "internalType": "address",
          "name": "to",
          "type": "address"
        },
        {
          "internalType": "uint256",
          "name": "tokenId",
          "type": "uint256"
        }
      ],
      "name": "transferFrom",
      "outputs": [],
      "stateMutability": "nonpayable",
      "type": "function"
    },
    {
      "inputs": [
        {
          "internalType": "address",
          "name": "newOwner",
          "type": "address"
        }
      ],
      "name": "transferOwnership",
      "outputs": [],
      "stateMutability": "nonpayable",
      "type": "function"
    }
  ],
  "bytecode": {
    "object": "0x6101606040526000600b553480156200001757600080fd5b5060405162003062380380620030628339810160408190526200003a91620001ce565b6040805180820182526011808252704a75696365626f782050726f6a6563747360781b60208084018290528451808601865260018152603160f81b81830152855180870187529384528382019290925284518086019095526008855267094aa92868a849eb60c31b908501526001600160a01b03851660805291926000620000c38382620002a5565b506001620000d28282620002a5565b505082516020938401208251928401929092206101008390526101208190524660c0818152604080517f8b73c3c69bb8fe3d512ecc4cf759cc79239f7b179b0ffacaa9a75d522b39400f81890181905281830197909752606081019490945260808401929092523060a080850182905283518086038201815294909201909252825192909501919091209093525060e0919091526101405262000175336200017c565b5062000371565b600a80546001600160a01b038381166001600160a01b0319831681179093556040519116919082907f8be0079c531659141344cd1fd0a4f28419497f9722a3daafe3b4186f6b6457e090600090a35050565b600060208284031215620001e157600080fd5b81516001600160a01b0381168114620001f957600080fd5b9392505050565b634e487b7160e01b600052604160045260246000fd5b600181811c908216806200022b57607f821691505b6020821081036200024c57634e487b7160e01b600052602260045260246000fd5b50919050565b601f821115620002a057600081815260208120601f850160051c810160208610156200027b5750805b601f850160051c820191505b818110156200029c5782815560010162000287565b5050505b505050565b81516001600160401b03811115620002c157620002c162000200565b620002d981620002d2845462000216565b8462000252565b602080601f831160018114620003115760008415620002f85750858301515b600019600386901b1c1916600185901b1785556200029c565b600085815260208120601f198616915b82811015620003425788860151825594840194600190910190840162000321565b5085821015620003615787850151600019600388901b60f8161c191681555b5050505050600190811b01905550565b60805160a05160c05160e051610100516101205161014051612c88620003da60003960006111b701526000611206015260006111e10152600061113a015260006111640152600061118e0152600081816103e20152818161129b01526113420152612c886000f3fe608060405234801561001057600080fd5b50600436106101e55760003560e01c8063666d87a01161010f578063a22cb465116100a2578063c87b56dd11610071578063c87b56dd1461042a578063e131fc0c1461043d578063e985e9c514610450578063f2fde38b1461048c57600080fd5b8063a22cb465146103ca578063ad007d63146103dd578063b88d4fde14610404578063c3cda5201461041757600080fd5b80638da5cb5b116100de5780638da5cb5b1461038b5780638e539e8c1461039c57806395d89b41146103af5780639ab24eb0146103b757600080fd5b8063666d87a01461034a57806370a082311461035d578063715018a6146103705780637ecebe001461037857600080fd5b80633644e5151161018757806342842e0e1161015657806342842e0e146102e5578063587cde1e146102f85780635c19a95c146103245780636352211e1461033757600080fd5b80633644e515146102a457806336574975146102ac57806339fbc775146102bf5780633a46b1a8146102d257600080fd5b8063081812fc116101c3578063081812fc1461023e578063095ea7b31461026957806323b872dd1461027e5780632407497e1461029157600080fd5b806301ffc9a7146101ea57806306661abd1461021257806306fdde0314610229575b600080fd5b6101fd6101f83660046123df565b61049f565b60405190151581526020015b60405180910390f35b61021b600b5481565b604051908152602001610209565b6102316104e5565b604051610209919061244c565b61025161024c36600461245f565b610577565b6040516001600160a01b039091168152602001610209565b61027c61027736600461248d565b61059e565b005b61027c61028c3660046124b9565b6106b8565b61027c61029f3660046124fa565b6106e9565b61021b610745565b61027c6102ba366004612529565b610754565b6102316102cd366004612570565b6107df565b61021b6102e036600461248d565b610884565b61027c6102f33660046124b9565b6108ad565b6102516103063660046124fa565b6001600160a01b039081166000908152600660205260409020541690565b61027c6103323660046124fa565b6108c8565b61025161034536600461245f565b6108d7565b61021b610358366004612592565b610937565b61021b61036b3660046124fa565b6109eb565b61027c610a71565b61021b6103863660046124fa565b610a85565b600a546001600160a01b0316610251565b61021b6103aa36600461245f565b610aa3565b610231610aff565b61021b6103c53660046124fa565b610b0e565b61027c6103d83660046125da565b610b3e565b6102517f000000000000000000000000000000000000000000000000000000000000000081565b61027c610412366004612682565b610b49565b61027c610425366004612731565b610b81565b61023161043836600461245f565b610cae565b600d54610251906001600160a01b031681565b6101fd61045e366004612793565b6001600160a01b03918216600090815260056020908152604080832093909416825291909152205460ff1690565b61027c61049a3660046124fa565b610d45565b60006001600160e01b0319821663aa91a66f60e01b14806104d057506001600160e01b0319821663ad007d6360e01b145b806104df57506104df82610dbe565b92915050565b6060600080546104f4906127c1565b80601f0160208091040260200160405190810160405280929190818152602001828054610520906127c1565b801561056d5780601f106105425761010080835404028352916020019161056d565b820191906000526020600020905b81548152906001019060200180831161055057829003601f168201915b5050505050905090565b600061058282610e0e565b506000908152600460205260409020546001600160a01b031690565b60006105a9826108d7565b9050806001600160a01b0316836001600160a01b03160361061b5760405162461bcd60e51b815260206004820152602160248201527f4552433732313a20617070726f76616c20746f2063757272656e74206f776e656044820152603960f91b60648201526084015b60405180910390fd5b336001600160a01b03821614806106375750610637813361045e565b6106a95760405162461bcd60e51b815260206004820152603d60248201527f4552433732313a20617070726f76652063616c6c6572206973206e6f7420746f60448201527f6b656e206f776e6572206f7220617070726f76656420666f7220616c6c0000006064820152608401610612565b6106b38383610e6d565b505050565b6106c23382610edb565b6106de5760405162461bcd60e51b8152600401610612906127f5565b6106b3838383610f5a565b6106f16110d3565b600d80546001600160a01b0319166001600160a01b0383169081179091556040513381527fe7784d93cfbfa4408e19577e6cc0436f4dbb51214b70e100905dfce9def88c169060200160405180910390a250565b600061074f61112d565b905090565b61075d826108d7565b82600661076b838383611254565b6107758480612842565b6000878152600c6020908152604080832089830135845290915290209161079d9190836128d7565b50847fd07720acb527321c9d1766f359139d0e0e3551bd99fb3ca353d4f008f3aad8e685336040516107d0929190612998565b60405180910390a25050505050565b600c60209081526000928352604080842090915290825290208054610803906127c1565b80601f016020809104026020016040519081016040528092919081815260200182805461082f906127c1565b801561087c5780601f106108515761010080835404028352916020019161087c565b820191906000526020600020905b81548152906001019060200180831161085f57829003601f168201915b505050505081565b6001600160a01b03821660009081526007602052604081206108a690836113cd565b9392505050565b6106b383838360405180602001604052806000815250610b49565b336108d381836114e9565b5050565b6000818152600260205260408120546001600160a01b0316806104df5760405162461bcd60e51b8152602060048201526018602482015277115490cdcc8c4e881a5b9d985b1a59081d1bdad95b88125160421b6044820152606401610612565b6000600b6000815461094890612a40565b91829055509050610959838261155b565b60006109658380612842565b905011156109a1576109778280612842565b6000838152600c6020908152604080832087830135845290915290209161099f9190836128d7565b505b826001600160a01b0316817fa1c6fd563bcbc3222f6031d7c26ff58cd6c701abff0bfffe652d055ce40629d484336040516109dd929190612998565b60405180910390a392915050565b60006001600160a01b038216610a555760405162461bcd60e51b815260206004820152602960248201527f4552433732313a2061646472657373207a65726f206973206e6f7420612076616044820152683634b21037bbb732b960b91b6064820152608401610612565b506001600160a01b031660009081526003602052604090205490565b610a796110d3565b610a836000611575565b565b6001600160a01b0381166000908152600960205260408120546104df565b6000438210610af45760405162461bcd60e51b815260206004820152601a60248201527f566f7465733a20626c6f636b206e6f7420796574206d696e65640000000000006044820152606401610612565b6104df6008836113cd565b6060600180546104f4906127c1565b6001600160a01b0381166000908152600760205260408120610b2f906115c7565b6001600160e01b031692915050565b6108d3338383611601565b610b533383610edb565b610b6f5760405162461bcd60e51b8152600401610612906127f5565b610b7b848484846116cf565b50505050565b83421115610bd15760405162461bcd60e51b815260206004820152601860248201527f566f7465733a207369676e6174757265206578706972656400000000000000006044820152606401610612565b604080517fe48329057bfd03d55e49b547132e39cffd9c1820ad7b9d4c5307691425d15adf60208201526001600160a01b038816918101919091526060810186905260808101859052600090610c4b90610c439060a00160405160208183030381529060405280519060200120611702565b858585611750565b9050610c5681611778565b8614610c9b5760405162461bcd60e51b8152602060048201526014602482015273566f7465733a20696e76616c6964206e6f6e636560601b6044820152606401610612565b610ca581886114e9565b50505050505050565b600d546060906001600160a01b031680610cd8575050604080516020810190915260008152919050565b604051636d02a25560e11b8152600481018490526001600160a01b0382169063da0544aa90602401600060405180830381865afa158015610d1d573d6000803e3d6000fd5b505050506040513d6000823e601f3d908101601f191682016040526108a69190810190612a59565b610d4d6110d3565b6001600160a01b038116610db25760405162461bcd60e51b815260206004820152602660248201527f4f776e61626c653a206e6577206f776e657220697320746865207a65726f206160448201526564647265737360d01b6064820152608401610612565b610dbb81611575565b50565b60006001600160e01b031982166380ac58cd60e01b1480610def57506001600160e01b03198216635b5e139f60e01b145b806104df57506301ffc9a760e01b6001600160e01b03198316146104df565b6000818152600260205260409020546001600160a01b0316610dbb5760405162461bcd60e51b8152602060048201526018602482015277115490cdcc8c4e881a5b9d985b1a59081d1bdad95b88125160421b6044820152606401610612565b600081815260046020526040902080546001600160a01b0319166001600160a01b0384169081179091558190610ea2826108d7565b6001600160a01b03167f8c5be1e5ebec7d5bd14f71427d1e84f3dd0314c0f7b2291e5b200ac8c7c3b92560405160405180910390a45050565b600080610ee7836108d7565b9050806001600160a01b0316846001600160a01b03161480610f2e57506001600160a01b0380821660009081526005602090815260408083209388168352929052205460ff165b80610f525750836001600160a01b0316610f4784610577565b6001600160a01b0316145b949350505050565b826001600160a01b0316610f6d826108d7565b6001600160a01b031614610f935760405162461bcd60e51b815260040161061290612ad0565b6001600160a01b038216610ff55760405162461bcd60e51b8152602060048201526024808201527f4552433732313a207472616e7366657220746f20746865207a65726f206164646044820152637265737360e01b6064820152608401610612565b61100283838360016117a0565b826001600160a01b0316611015826108d7565b6001600160a01b03161461103b5760405162461bcd60e51b815260040161061290612ad0565b600081815260046020908152604080832080546001600160a01b03199081169091556001600160a01b0387811680865260038552838620805460001901905590871680865283862080546001019055868652600290945282852080549092168417909155905184937fddf252ad1be2c89b69c2b068fc378daa952ba7f163c4a11628f55a4df523b3ef91a46106b38383836001611828565b600a546001600160a01b03163314610a835760405162461bcd60e51b815260206004820181905260248201527f4f776e61626c653a2063616c6c6572206973206e6f7420746865206f776e65726044820152606401610612565b6000306001600160a01b037f00000000000000000000000000000000000000000000000000000000000000001614801561118657507f000000000000000000000000000000000000000000000000000000000000000046145b156111b057507f000000000000000000000000000000000000000000000000000000000000000090565b50604080517f00000000000000000000000000000000000000000000000000000000000000006020808301919091527f0000000000000000000000000000000000000000000000000000000000000000828401527f000000000000000000000000000000000000000000000000000000000000000060608301524660808301523060a0808401919091528351808403909101815260c0909201909252805191012090565b336001600160a01b03841614801590611308575060405163c161c93f60e01b81523360048201526001600160a01b03848116602483015260448201849052606482018390527f0000000000000000000000000000000000000000000000000000000000000000169063c161c93f90608401602060405180830381865afa1580156112e2573d6000803e3d6000fd5b505050506040513d601f19601f820116820180604052508101906113069190612b15565b155b80156113af575060405163c161c93f60e01b81523360048201526001600160a01b03848116602483015260006044830152606482018390527f0000000000000000000000000000000000000000000000000000000000000000169063c161c93f90608401602060405180830381865afa158015611389573d6000803e3d6000fd5b505050506040513d601f19601f820116820180604052508101906113ad9190612b15565b155b156106b35760405163075fd2b160e01b815260040160405180910390fd5b600043821061141e5760405162461bcd60e51b815260206004820181905260248201527f436865636b706f696e74733a20626c6f636b206e6f7420796574206d696e65646044820152606401610612565b600061142983611838565b84549091506000816005811115611487576000611445846118a1565b61144f9085612b32565b60008981526020902090915081015463ffffffff908116908616101561147757809150611485565b611482816001612b45565b92505b505b600061149588868585611989565b905080156114d1576114ba886114ac600184612b32565b600091825260209091200190565b5464010000000090046001600160e01b03166114d4565b60005b6001600160e01b031698975050505050505050565b6001600160a01b0382811660008181526006602052604080822080548686166001600160a01b0319821681179092559151919094169392849290917f3134e8a2e6d97e929a7e54011ea5485d7d196dd5f0ba4d4ef95803e8e3fc257f9190a46106b38183611556866119e7565b6119f2565b6108d3828260405180602001604052806000815250611b20565b600a80546001600160a01b038381166001600160a01b0319831681179093556040519116919082907f8be0079c531659141344cd1fd0a4f28419497f9722a3daafe3b4186f6b6457e090600090a35050565b805460009080156115f8576115e1836114ac600184612b32565b5464010000000090046001600160e01b03166108a6565b60009392505050565b816001600160a01b0316836001600160a01b0316036116625760405162461bcd60e51b815260206004820152601960248201527f4552433732313a20617070726f766520746f2063616c6c6572000000000000006044820152606401610612565b6001600160a01b03838116600081815260056020908152604080832094871680845294825291829020805460ff191686151590811790915591519182527f17307eab39ab6107e8899845ad3d59bd9653f200f220920489ca2b5937696c31910160405180910390a3505050565b6116da848484610f5a565b6116e684848484611b53565b610b7b5760405162461bcd60e51b815260040161061290612b58565b60006104df61170f61112d565b8360405161190160f01b6020820152602281018390526042810182905260009060620160405160208183030381529060405280519060200120905092915050565b600080600061176187878787611c51565b9150915061176e81611d15565b5095945050505050565b6001600160a01b03811660009081526009602052604090208054600181018255905b50919050565b6001811115610b7b576001600160a01b038416156117e6576001600160a01b038416600090815260036020526040812080548392906117e0908490612b32565b90915550505b6001600160a01b03831615610b7b576001600160a01b0383166000908152600360205260408120805483929061181d908490612b45565b909155505050505050565b611833848483611e5f565b610b7b565b600063ffffffff82111561189d5760405162461bcd60e51b815260206004820152602660248201527f53616665436173743a2076616c756520646f65736e27742066697420696e203360448201526532206269747360d01b6064820152608401610612565b5090565b6000816000036118b357506000919050565b600060016118c084611ecf565b901c6001901b905060018184816118d9576118d9612baa565b048201901c905060018184816118f1576118f1612baa565b048201901c9050600181848161190957611909612baa565b048201901c9050600181848161192157611921612baa565b048201901c9050600181848161193957611939612baa565b048201901c9050600181848161195157611951612baa565b048201901c9050600181848161196957611969612baa565b048201901c90506108a68182858161198357611983612baa565b04611f63565b60005b818310156119df5760006119a08484611f79565b60008781526020902090915063ffffffff86169082015463ffffffff1611156119cb578092506119d9565b6119d6816001612b45565b93505b5061198c565b509392505050565b60006104df826109eb565b816001600160a01b0316836001600160a01b031614158015611a145750600081115b156106b3576001600160a01b03831615611aa2576001600160a01b03831660009081526007602052604081208190611a4f90611f9485611fa0565b91509150846001600160a01b03167fdec2bacdd2f05b59de34da9b523dff8be42e5e38e818c82fdb0bae774387a7248383604051611a97929190918252602082015260400190565b60405180910390a250505b6001600160a01b038216156106b3576001600160a01b03821660009081526007602052604081208190611ad890611fd885611fa0565b91509150836001600160a01b03167fdec2bacdd2f05b59de34da9b523dff8be42e5e38e818c82fdb0bae774387a72483836040516107d0929190918252602082015260400190565b611b2a8383611fe4565b611b376000848484611b53565b6106b35760405162461bcd60e51b815260040161061290612b58565b60006001600160a01b0384163b15611c4957604051630a85bd0160e11b81526001600160a01b0385169063150b7a0290611b97903390899088908890600401612bc0565b6020604051808303816000875af1925050508015611bd2575060408051601f3d908101601f19168201909252611bcf91810190612bfd565b60015b611c2f573d808015611c00576040519150601f19603f3d011682016040523d82523d6000602084013e611c05565b606091505b508051600003611c275760405162461bcd60e51b815260040161061290612b58565b805181602001fd5b6001600160e01b031916630a85bd0160e11b149050610f52565b506001610f52565b6000807f7fffffffffffffffffffffffffffffff5d576e7357a4501ddfe92f46681b20a0831115611c885750600090506003611d0c565b6040805160008082526020820180845289905260ff881692820192909252606081018690526080810185905260019060a0016020604051602081039080840390855afa158015611cdc573d6000803e3d6000fd5b5050604051601f1901519150506001600160a01b038116611d0557600060019250925050611d0c565b9150600090505b94509492505050565b6000816004811115611d2957611d29612c1a565b03611d315750565b6001816004811115611d4557611d45612c1a565b03611d925760405162461bcd60e51b815260206004820152601860248201527f45434453413a20696e76616c6964207369676e617475726500000000000000006044820152606401610612565b6002816004811115611da657611da6612c1a565b03611df35760405162461bcd60e51b815260206004820152601f60248201527f45434453413a20696e76616c6964207369676e6174757265206c656e677468006044820152606401610612565b6003816004811115611e0757611e07612c1a565b03610dbb5760405162461bcd60e51b815260206004820152602260248201527f45434453413a20696e76616c6964207369676e6174757265202773272076616c604482015261756560f01b6064820152608401610612565b6001600160a01b038316611e7e57611e7b6008611fd883611fa0565b50505b6001600160a01b038216611e9d57611e9a6008611f9483611fa0565b50505b6001600160a01b038381166000908152600660205260408082205485841683529120546106b3929182169116836119f2565b600080608083901c15611ee457608092831c92015b604083901c15611ef657604092831c92015b602083901c15611f0857602092831c92015b601083901c15611f1a57601092831c92015b600883901c15611f2c57600892831c92015b600483901c15611f3e57600492831c92015b600283901c15611f5057600292831c92015b600183901c156104df5760010192915050565b6000818310611f7257816108a6565b5090919050565b6000611f886002848418612c30565b6108a690848416612b45565b60006108a68284612b32565b600080611fcb85611fc6611fb3886115c7565b6001600160e01b0316868863ffffffff16565b612187565b915091505b935093915050565b60006108a68284612b45565b6001600160a01b03821661203a5760405162461bcd60e51b815260206004820181905260248201527f4552433732313a206d696e7420746f20746865207a65726f20616464726573736044820152606401610612565b6000818152600260205260409020546001600160a01b03161561209f5760405162461bcd60e51b815260206004820152601c60248201527f4552433732313a20746f6b656e20616c7265616479206d696e746564000000006044820152606401610612565b6120ad6000838360016117a0565b6000818152600260205260409020546001600160a01b0316156121125760405162461bcd60e51b815260206004820152601c60248201527f4552433732313a20746f6b656e20616c7265616479206d696e746564000000006044820152606401610612565b6001600160a01b038216600081815260036020908152604080832080546001019055848352600290915280822080546001600160a01b0319168417905551839291907fddf252ad1be2c89b69c2b068fc378daa952ba7f163c4a11628f55a4df523b3ef908290a46108d3600083836001611828565b6000806121a58461219743611838565b6121a0866121bd565b612226565b6001600160e01b0391821693501690505b9250929050565b60006001600160e01b0382111561189d5760405162461bcd60e51b815260206004820152602760248201527f53616665436173743a2076616c756520646f65736e27742066697420696e20326044820152663234206269747360c81b6064820152608401610612565b82546000908190801561236f576000612244876114ac600185612b32565b60408051808201909152905463ffffffff8082168084526401000000009092046001600160e01b0316602084015291925090871610156122c65760405162461bcd60e51b815260206004820152601760248201527f436865636b706f696e743a20696e76616c6964206b65790000000000000000006044820152606401610612565b805163ffffffff80881691160361230f57846122e7886114ac600186612b32565b80546001600160e01b03929092166401000000000263ffffffff90921691909117905561235f565b6040805180820190915263ffffffff80881682526001600160e01b0380881660208085019182528b54600181018d5560008d81529190912094519151909216640100000000029216919091179101555b602001519250839150611fd09050565b50506040805180820190915263ffffffff80851682526001600160e01b0380851660208085019182528854600181018a5560008a815291822095519251909316640100000000029190931617920191909155905081611fd0565b6001600160e01b031981168114610dbb57600080fd5b6000602082840312156123f157600080fd5b81356108a6816123c9565b60005b838110156124175781810151838201526020016123ff565b50506000910152565b600081518084526124388160208601602086016123fc565b601f01601f19169290920160200192915050565b6020815260006108a66020830184612420565b60006020828403121561247157600080fd5b5035919050565b6001600160a01b0381168114610dbb57600080fd5b600080604083850312156124a057600080fd5b82356124ab81612478565b946020939093013593505050565b6000806000606084860312156124ce57600080fd5b83356124d981612478565b925060208401356124e981612478565b929592945050506040919091013590565b60006020828403121561250c57600080fd5b81356108a681612478565b60006040828403121561179a57600080fd5b6000806040838503121561253c57600080fd5b82359150602083013567ffffffffffffffff81111561255a57600080fd5b61256685828601612517565b9150509250929050565b6000806040838503121561258357600080fd5b50508035926020909101359150565b600080604083850312156125a557600080fd5b82356125b081612478565b9150602083013567ffffffffffffffff81111561255a57600080fd5b8015158114610dbb57600080fd5b600080604083850312156125ed57600080fd5b82356125f881612478565b91506020830135612608816125cc565b809150509250929050565b634e487b7160e01b600052604160045260246000fd5b604051601f8201601f1916810167ffffffffffffffff8111828210171561265257612652612613565b604052919050565b600067ffffffffffffffff82111561267457612674612613565b50601f01601f191660200190565b6000806000806080858703121561269857600080fd5b84356126a381612478565b935060208501356126b381612478565b925060408501359150606085013567ffffffffffffffff8111156126d657600080fd5b8501601f810187136126e757600080fd5b80356126fa6126f58261265a565b612629565b81815288602083850101111561270f57600080fd5b8160208401602083013760006020838301015280935050505092959194509250565b60008060008060008060c0878903121561274a57600080fd5b863561275581612478565b95506020870135945060408701359350606087013560ff8116811461277957600080fd5b9598949750929560808101359460a0909101359350915050565b600080604083850312156127a657600080fd5b82356127b181612478565b9150602083013561260881612478565b600181811c908216806127d557607f821691505b60208210810361179a57634e487b7160e01b600052602260045260246000fd5b6020808252602d908201527f4552433732313a2063616c6c6572206973206e6f7420746f6b656e206f776e6560408201526c1c881bdc88185c1c1c9bdd9959609a1b606082015260800190565b6000808335601e1984360301811261285957600080fd5b83018035915067ffffffffffffffff82111561287457600080fd5b6020019150368190038213156121b657600080fd5b601f8211156106b357600081815260208120601f850160051c810160208610156128b05750805b601f850160051c820191505b818110156128cf578281556001016128bc565b505050505050565b67ffffffffffffffff8311156128ef576128ef612613565b612903836128fd83546127c1565b83612889565b6000601f841160018114612937576000851561291f5750838201355b600019600387901b1c1916600186901b178355612991565b600083815260209020601f19861690835b828110156129685786850135825560209485019460019092019101612948565b50868210156129855760001960f88860031b161c19848701351681555b505060018560011b0183555b5050505050565b6040815260008335601e198536030181126129b257600080fd5b840160208101903567ffffffffffffffff8111156129cf57600080fd5b8036038213156129de57600080fd5b604080850152806080850152808260a0860137600060a082860101526020860135606085015260a0601f19601f830116850101925050506108a660208301846001600160a01b03169052565b634e487b7160e01b600052601160045260246000fd5b600060018201612a5257612a52612a2a565b5060010190565b600060208284031215612a6b57600080fd5b815167ffffffffffffffff811115612a8257600080fd5b8201601f81018413612a9357600080fd5b8051612aa16126f58261265a565b818152856020838501011115612ab657600080fd5b612ac78260208301602086016123fc565b95945050505050565b60208082526025908201527f4552433732313a207472616e736665722066726f6d20696e636f72726563742060408201526437bbb732b960d91b606082015260800190565b600060208284031215612b2757600080fd5b81516108a6816125cc565b818103818111156104df576104df612a2a565b808201808211156104df576104df612a2a565b60208082526032908201527f4552433732313a207472616e7366657220746f206e6f6e20455243373231526560408201527131b2b4bb32b91034b6b83632b6b2b73a32b960711b606082015260800190565b634e487b7160e01b600052601260045260246000fd5b6001600160a01b0385811682528416602082015260408101839052608060608201819052600090612bf390830184612420565b9695505050505050565b600060208284031215612c0f57600080fd5b81516108a6816123c9565b634e487b7160e01b600052602160045260246000fd5b600082612c4d57634e487b7160e01b600052601260045260246000fd5b50049056fea264697066735822122039bd5aaa61a0644b323e527bd7dd29c833307582e175341a057735fc9a20be3364736f6c63430008110033",
    "linkReferences": {}
  },
  "methodIdentifiers": {
    "DOMAIN_SEPARATOR()": "3644e515",
    "approve(address,uint256)": "095ea7b3",
    "balanceOf(address)": "70a08231",
    "count()": "06661abd",
    "createFor(address,(string,uint256))": "666d87a0",
    "delegate(address)": "5c19a95c",
    "delegateBySig(address,uint256,uint256,uint8,bytes32,bytes32)": "c3cda520",
    "delegates(address)": "587cde1e",
    "getApproved(uint256)": "081812fc",
    "getPastTotalSupply(uint256)": "8e539e8c",
    "getPastVotes(address,uint256)": "3a46b1a8",
    "getVotes(address)": "9ab24eb0",
    "isApprovedForAll(address,address)": "e985e9c5",
    "metadataContentOf(uint256,uint256)": "39fbc775",
    "name()": "06fdde03",
    "nonces(address)": "7ecebe00",
    "operatorStore()": "ad007d63",
    "owner()": "8da5cb5b",
    "ownerOf(uint256)": "6352211e",
    "renounceOwnership()": "715018a6",
    "safeTransferFrom(address,address,uint256)": "42842e0e",
    "safeTransferFrom(address,address,uint256,bytes)": "b88d4fde",
    "setApprovalForAll(address,bool)": "a22cb465",
    "setMetadataOf(uint256,(string,uint256))": "36574975",
    "setTokenUriResolver(address)": "2407497e",
    "supportsInterface(bytes4)": "01ffc9a7",
    "symbol()": "95d89b41",
    "tokenURI(uint256)": "c87b56dd",
    "tokenUriResolver()": "e131fc0c",
    "transferFrom(address,address,uint256)": "23b872dd",
    "transferOwnership(address)": "f2fde38b"
  },
  "id": 67
}