{"abi":[{"type":"constructor","inputs":[{"name":"_operatorStore","type":"address","internalType":"contract IJBOperatorStore"},{"name":"_projects","type":"address","internalType":"contract IJBProjects"},{"name":"_fundingCycleStore","type":"address","internalType":"contract IJBFundingCycleStore"},{"name":"_owner","type":"address","internalType":"address"}],"stateMutability":"nonpayable"},{"type":"function","name":"controllerOf","inputs":[{"name":"","type":"uint256","internalType":"uint256"}],"outputs":[{"name":"","type":"address","internalType":"address"}],"stateMutability":"view"},{"type":"function","name":"fundingCycleStore","inputs":[],"outputs":[{"name":"","type":"address","internalType":"contract IJBFundingCycleStore"}],"stateMutability":"view"},{"type":"function","name":"isAllowedToSetFirstController","inputs":[{"name":"","type":"address","internalType":"address"}],"outputs":[{"name":"","type":"bool","internalType":"bool"}],"stateMutability":"view"},{"type":"function","name":"isTerminalOf","inputs":[{"name":"_projectId","type":"uint256","internalType":"uint256"},{"name":"_terminal","type":"address","internalType":"contract IJBPaymentTerminal"}],"outputs":[{"name":"","type":"bool","internalType":"bool"}],"stateMutability":"view"},{"type":"function","name":"operatorStore","inputs":[],"outputs":[{"name":"","type":"address","internalType":"contract IJBOperatorStore"}],"stateMutability":"view"},{"type":"function","name":"owner","inputs":[],"outputs":[{"name":"","type":"address","internalType":"address"}],"stateMutability":"view"},{"type":"function","name":"primaryTerminalOf","inputs":[{"name":"_projectId","type":"uint256","internalType":"uint256"},{"name":"_token","type":"address","internalType":"address"}],"outputs":[{"name":"","type":"address","internalType":"contract IJBPaymentTerminal"}],"stateMutability":"view"},{"type":"function","name":"projects","inputs":[],"outputs":[{"name":"","type":"address","internalType":"contract IJBProjects"}],"stateMutability":"view"},{"type":"function","name":"renounceOwnership","inputs":[],"outputs":[],"stateMutability":"nonpayable"},{"type":"function","name":"setControllerOf","inputs":[{"name":"_projectId","type":"uint256","internalType":"uint256"},{"name":"_controller","type":"address","internalType":"address"}],"outputs":[],"stateMutability":"nonpayable"},{"type":"function","name":"setIsAllowedToSetFirstController","inputs":[{"name":"_address","type":"address","internalType":"address"},{"name":"_flag","type":"bool","internalType":"bool"}],"outputs":[],"stateMutability":"nonpayable"},{"type":"function","name":"setPrimaryTerminalOf","inputs":[{"name":"_projectId","type":"uint256","internalType":"uint256"},{"name":"_token","type":"address","internalType":"address"},{"name":"_terminal","type":"address","internalType":"contract IJBPaymentTerminal"}],"outputs":[],"stateMutability":"nonpayable"},{"type":"function","name":"setTerminalsOf","inputs":[{"name":"_projectId","type":"uint256","internalType":"uint256"},{"name":"_terminals","type":"address[]","internalType":"contract IJBPaymentTerminal[]"}],"outputs":[],"stateMutability":"nonpayable"},{"type":"function","name":"terminalsOf","inputs":[{"name":"_projectId","type":"uint256","internalType":"uint256"}],"outputs":[{"name":"","type":"address[]","internalType":"contract IJBPaymentTerminal[]"}],"stateMutability":"view"},{"type":"function","name":"transferOwnership","inputs":[{"name":"newOwner","type":"address","internalType":"address"}],"outputs":[],"stateMutability":"nonpayable"},{"type":"event","name":"AddTerminal","inputs":[{"name":"projectId","type":"uint256","indexed":true,"internalType":"uint256"},{"name":"terminal","type":"address","indexed":true,"internalType":"contract IJBPaymentTerminal"},{"name":"caller","type":"address","indexed":false,"internalType":"address"}],"anonymous":false},{"type":"event","name":"OwnershipTransferred","inputs":[{"name":"previousOwner","type":"address","indexed":true,"internalType":"address"},{"name":"newOwner","type":"address","indexed":true,"internalType":"address"}],"anonymous":false},{"type":"event","name":"SetController","inputs":[{"name":"projectId","type":"uint256","indexed":true,"internalType":"uint256"},{"name":"controller","type":"address","indexed":true,"internalType":"address"},{"name":"caller","type":"address","indexed":false,"internalType":"address"}],"anonymous":false},{"type":"event","name":"SetIsAllowedToSetFirstController","inputs":[{"name":"addr","type":"address","indexed":true,"internalType":"address"},{"name":"flag","type":"bool","indexed":true,"internalType":"bool"},{"name":"caller","type":"address","indexed":false,"internalType":"address"}],"anonymous":false},{"type":"event","name":"SetPrimaryTerminal","inputs":[{"name":"projectId","type":"uint256","indexed":true,"internalType":"uint256"},{"name":"token","type":"address","indexed":true,"internalType":"address"},{"name":"terminal","type":"address","indexed":true,"internalType":"contract IJBPaymentTerminal"},{"name":"caller","type":"address","indexed":false,"internalType":"address"}],"anonymous":false},{"type":"event","name":"SetTerminals","inputs":[{"name":"projectId","type":"uint256","indexed":true,"internalType":"uint256"},{"name":"terminals","type":"address[]","indexed":false,"internalType":"contract IJBPaymentTerminal[]"},{"name":"caller","type":"address","indexed":false,"internalType":"address"}],"anonymous":false},{"type":"error","name":"DUPLICATE_TERMINALS","inputs":[]},{"type":"error","name":"INVALID_PROJECT_ID_IN_DIRECTORY","inputs":[]},{"type":"error","name":"SET_CONTROLLER_NOT_ALLOWED","inputs":[]},{"type":"error","name":"SET_TERMINALS_NOT_ALLOWED","inputs":[]},{"type":"error","name":"TOKEN_NOT_ACCEPTED","inputs":[]},{"type":"error","name":"UNAUTHORIZED","inputs":[]}],"bytecode":{"object":"0x60e06040523480156200001157600080fd5b5060405162001875380380620018758339810160408190526200003491620000dd565b6001600160a01b0384166080526200004c3362000074565b6001600160a01b0380841660a052821660c0526200006a8162000074565b5050505062000145565b600080546001600160a01b038381166001600160a01b0319831681178455604051919092169283917f8be0079c531659141344cd1fd0a4f28419497f9722a3daafe3b4186f6b6457e09190a35050565b6001600160a01b0381168114620000da57600080fd5b50565b60008060008060808587031215620000f457600080fd5b84516200010181620000c4565b60208601519094506200011481620000c4565b60408601519093506200012781620000c4565b60608601519092506200013a81620000c4565b939692955090935050565b60805160a05160c0516116b4620001c16000396000818160ff01528181610675015281816108a70152610e930152600081816101e5015281816102be015281816104e2015281816105bd01526107f001526000818161023001528181610d2901528181610dc501528181610fff015261109b01526116b46000f3fe608060405234801561001057600080fd5b50600436106100f55760003560e01c80638620265011610097578063ad007d6311610066578063ad007d631461022b578063c5664e2114610252578063d175415314610275578063f2fde38b1461029557600080fd5b806386202650146101cd5780638b79543c146101e05780638da5cb5b14610207578063a1ed31751461021857600080fd5b80636e49181f116100d35780636e49181f1461017c578063714e7f321461019f578063715018a6146101b2578063821b9fd8146101ba57600080fd5b8063557e7155146100fa5780635dd8f6aa1461013e57806363d0850a14610167575b600080fd5b6101217f000000000000000000000000000000000000000000000000000000000000000081565b6040516001600160a01b0390911681526020015b60405180910390f35b61012161014c3660046112d4565b6003602052600090815260409020546001600160a01b031681565b61017a610175366004611302565b6102a8565b005b61018f61018a366004611344565b61044d565b6040519015158152602001610135565b61017a6101ad366004611344565b6104cc565b61017a6107c6565b61017a6101c8366004611374565b6107da565b6101216101db366004611344565b610a87565b6101217f000000000000000000000000000000000000000000000000000000000000000081565b6000546001600160a01b0316610121565b61017a610226366004611401565b610baa565b6101217f000000000000000000000000000000000000000000000000000000000000000081565b61018f61026036600461142f565b60046020526000908152604090205460ff1681565b6102886102833660046112d4565b610c14565b6040516101359190611453565b61017a6102a336600461142f565b610c80565b6040516331a9108f60e11b8152600481018490527f00000000000000000000000000000000000000000000000000000000000000006001600160a01b031690636352211e90602401602060405180830381865afa15801561030d573d6000803e3d6000fd5b505050506040513d601f19601f8201168201806040525081019061033191906114a0565b83601061033f838383610cfe565b60405163df21a7dd60e01b81526001600160a01b0386811660048301526024820188905285169063df21a7dd90604401602060405180830381865afa15801561038c573d6000803e3d6000fd5b505050506040513d601f19601f820116820180604052508101906103b091906114bd565b6103cd57604051630faa917b60e11b815260040160405180910390fd5b6103d78685610e67565b60008681526002602090815260408083206001600160a01b038981168086529184529382902080546001600160a01b03191694891694851790559051338152909189917fc670a502bbb9f8a4315f95eca901a9f99b65f89a2eb5705a58050e5c00f9d672910160405180910390a4505050505050565b600082815260016020526040812054815b818110156104bf57600085815260016020526040902080546001600160a01b038616919083908110610492576104926114da565b6000918252602090912001546001600160a01b0316036104b7576001925050506104c6565b60010161045e565b5060009150505b92915050565b6040516331a9108f60e11b8152600481018390527f00000000000000000000000000000000000000000000000000000000000000006001600160a01b031690636352211e90602401602060405180830381865afa158015610531573d6000803e3d6000fd5b505050506040513d601f19601f8201168201806040525081019061055591906114a0565b6000838152600360205260409020548390600e906001600160a01b03163314806105ae57503360009081526004602052604090205460ff1680156105ae57506000858152600360205260409020546001600160a01b0316155b6105ba84848484610fca565b857f00000000000000000000000000000000000000000000000000000000000000006001600160a01b03166306661abd6040518163ffffffff1660e01b8152600401602060405180830381865afa158015610619573d6000803e3d6000fd5b505050506040513d601f19601f8201168201806040525081019061063d91906114f0565b101561065c57604051634a283a5360e11b815260040160405180910390fd5b6040516321d1336160e11b8152600481018790526000907f00000000000000000000000000000000000000000000000000000000000000006001600160a01b0316906343a266c29060240161012060405180830381865afa1580156106c5573d6000803e3d6000fd5b505050506040513d601f19601f820116820180604052508101906106e99190611551565b6000888152600360205260409020549091506001600160a01b0316331480159061072957506000878152600360205260409020546001600160a01b031615155b801561073f57506107398161113e565b60200151155b1561075d5760405163a33db4cb60e01b815260040160405180910390fd5b60008781526003602090815260409182902080546001600160a01b0319166001600160a01b038a16908117909155915133815289917f7f9a7dcb234c909a09de2f344661ad9e5b24067adb97c908647c2edcbb121c30910160405180910390a350505050505050565b6107ce6111b2565b6107d8600061120c565b565b6040516331a9108f60e11b8152600481018490527f00000000000000000000000000000000000000000000000000000000000000006001600160a01b031690636352211e90602401602060405180830381865afa15801561083f573d6000803e3d6000fd5b505050506040513d601f19601f8201168201806040525081019061086391906114a0565b6000848152600360205260409020548490600f906001600160a01b0316331461088e84848484610fca565b6040516321d1336160e11b8152600481018890526000907f00000000000000000000000000000000000000000000000000000000000000006001600160a01b0316906343a266c29060240161012060405180830381865afa1580156108f7573d6000803e3d6000fd5b505050506040513d601f19601f8201168201806040525081019061091b9190611551565b6000898152600360205260409020549091506001600160a01b0316331480159061094c57506109498161113e565b51155b1561096a576040516375fef35f60e11b815260040160405180910390fd5b600088815260016020526040902061098390888861125c565b506001861115610a415760005b86811015610a3f5760006109a58260016115d1565b90505b87811015610a36578888828181106109c2576109c26114da565b90506020020160208101906109d7919061142f565b6001600160a01b03168989848181106109f2576109f26114da565b9050602002016020810190610a07919061142f565b6001600160a01b031603610a2e57604051633e3830ab60e11b815260040160405180910390fd5b6001016109a8565b50600101610990565b505b877fb648241d83df6540fc10f2acc641e4bf80a1e84e7ae2f1f6b0ad204b8fee635b888833604051610a75939291906115f2565b60405180910390a25050505050505050565b60008281526002602090815260408083206001600160a01b0380861685529252822054168015801590610abf5750610abf848261044d565b15610acb5790506104c6565b600084815260016020526040812054905b81811015610b9e576000868152600160205260408120805483908110610b0457610b046114da565b60009182526020909120015460405163df21a7dd60e01b81526001600160a01b038881166004830152602482018a90529091169150819063df21a7dd90604401602060405180830381865afa158015610b61573d6000803e3d6000fd5b505050506040513d601f19601f82011682018060405250810190610b8591906114bd565b15610b955793506104c692505050565b50600101610adc565b50600095945050505050565b610bb26111b2565b6001600160a01b038216600081815260046020908152604091829020805460ff191685151590811790915591513381529192917f11207664cc48b0fa81c8674795f1d8f642960f38d5d2d305ad813093bed85fab910160405180910390a35050565b600081815260016020908152604091829020805483518184028101840190945280845260609392830182828015610c7457602002820191906000526020600020905b81546001600160a01b03168152600190910190602001808311610c56575b50505050509050919050565b610c886111b2565b6001600160a01b038116610cf25760405162461bcd60e51b815260206004820152602660248201527f4f776e61626c653a206e6577206f776e657220697320746865207a65726f206160448201526564647265737360d01b60648201526084015b60405180910390fd5b610cfb8161120c565b50565b336001600160a01b03841614801590610da7575060405163c161c93f60e01b81526001600160a01b037f0000000000000000000000000000000000000000000000000000000000000000169063c161c93f90610d64903390879087908790600401611655565b602060405180830381865afa158015610d81573d6000803e3d6000fd5b505050506040513d601f19601f82011682018060405250810190610da591906114bd565b155b8015610e44575060405163c161c93f60e01b81526001600160a01b037f0000000000000000000000000000000000000000000000000000000000000000169063c161c93f90610e0190339087906000908790600401611655565b602060405180830381865afa158015610e1e573d6000803e3d6000fd5b505050506040513d601f19601f82011682018060405250810190610e4291906114bd565b155b15610e625760405163075fd2b160e01b815260040160405180910390fd5b505050565b610e71828261044d565b15610e7a575050565b6040516321d1336160e11b8152600481018390526000907f00000000000000000000000000000000000000000000000000000000000000006001600160a01b0316906343a266c29060240161012060405180830381865afa158015610ee3573d6000803e3d6000fd5b505050506040513d601f19601f82011682018060405250810190610f079190611551565b6000848152600360205260409020549091506001600160a01b03163314801590610f385750610f358161113e565b51155b15610f56576040516375fef35f60e11b815260040160405180910390fd5b60008381526001602081815260408084208054938401815584529281902090910180546001600160a01b0319166001600160a01b038616908117909155915133815285917f409bccc07b7cf7807930526a24318212d614c59f2dde05a017a41efee144e7c8910160405180910390a3505050565b80158015610fe15750336001600160a01b03851614155b801561107d575060405163c161c93f60e01b81526001600160a01b037f0000000000000000000000000000000000000000000000000000000000000000169063c161c93f9061103a903390889088908890600401611655565b602060405180830381865afa158015611057573d6000803e3d6000fd5b505050506040513d601f19601f8201168201806040525081019061107b91906114bd565b155b801561111a575060405163c161c93f60e01b81526001600160a01b037f0000000000000000000000000000000000000000000000000000000000000000169063c161c93f906110d790339088906000908890600401611655565b602060405180830381865afa1580156110f4573d6000803e3d6000fd5b505050506040513d601f19601f8201168201806040525081019061111891906114bd565b155b156111385760405163075fd2b160e01b815260040160405180910390fd5b50505050565b60408051606081018252600080825260208201819052918101919091526104c66008836101000151901c604080516060808201835260008083526020808401829052928401528251908101835260018481168114825284811c811681149282019290925260029390931c8116149082015290565b6000546001600160a01b031633146107d85760405162461bcd60e51b815260206004820181905260248201527f4f776e61626c653a2063616c6c6572206973206e6f7420746865206f776e65726044820152606401610ce9565b600080546001600160a01b038381166001600160a01b0319831681178455604051919092169283917f8be0079c531659141344cd1fd0a4f28419497f9722a3daafe3b4186f6b6457e09190a35050565b8280548282559060005260206000209081019282156112af579160200282015b828111156112af5781546001600160a01b0319166001600160a01b0384351617825560209092019160019091019061127c565b506112bb9291506112bf565b5090565b5b808211156112bb57600081556001016112c0565b6000602082840312156112e657600080fd5b5035919050565b6001600160a01b0381168114610cfb57600080fd5b60008060006060848603121561131757600080fd5b833592506020840135611329816112ed565b91506040840135611339816112ed565b809150509250925092565b6000806040838503121561135757600080fd5b823591506020830135611369816112ed565b809150509250929050565b60008060006040848603121561138957600080fd5b83359250602084013567ffffffffffffffff808211156113a857600080fd5b818601915086601f8301126113bc57600080fd5b8135818111156113cb57600080fd5b8760208260051b85010111156113e057600080fd5b6020830194508093505050509250925092565b8015158114610cfb57600080fd5b6000806040838503121561141457600080fd5b823561141f816112ed565b91506020830135611369816113f3565b60006020828403121561144157600080fd5b813561144c816112ed565b9392505050565b6020808252825182820181905260009190848201906040850190845b818110156114945783516001600160a01b03168352928401929184019160010161146f565b50909695505050505050565b6000602082840312156114b257600080fd5b815161144c816112ed565b6000602082840312156114cf57600080fd5b815161144c816113f3565b634e487b7160e01b600052603260045260246000fd5b60006020828403121561150257600080fd5b5051919050565b604051610120810167ffffffffffffffff8111828210171561153b57634e487b7160e01b600052604160045260246000fd5b60405290565b805161154c816112ed565b919050565b6000610120828403121561156457600080fd5b61156c611509565b825181526020830151602082015260408301516040820152606083015160608201526080830151608082015260a083015160a082015260c083015160c08201526115b860e08401611541565b60e0820152610100928301519281019290925250919050565b808201808211156104c657634e487b7160e01b600052601160045260246000fd5b6040808252810183905260008460608301825b86811015611635578235611618816112ed565b6001600160a01b0316825260209283019290910190600101611605565b506001600160a01b03949094166020939093019290925250909392505050565b6001600160a01b039485168152929093166020830152604082015260608101919091526080019056fea2646970667358221220058f4e397889be244b672da8bb746129538302097b387d907bade010869bd2be64736f6c63430008170033","linkReferences":{}},"methodIdentifiers":{"controllerOf(uint256)":"5dd8f6aa","fundingCycleStore()":"557e7155","isAllowedToSetFirstController(address)":"c5664e21","isTerminalOf(uint256,address)":"6e49181f","operatorStore()":"ad007d63","owner()":"8da5cb5b","primaryTerminalOf(uint256,address)":"86202650","projects()":"8b79543c","renounceOwnership()":"715018a6","setControllerOf(uint256,address)":"714e7f32","setIsAllowedToSetFirstController(address,bool)":"a1ed3175","setPrimaryTerminalOf(uint256,address,address)":"63d0850a","setTerminalsOf(uint256,address[])":"821b9fd8","terminalsOf(uint256)":"d1754153","transferOwnership(address)":"f2fde38b"},"id":68}