{
  "abi": [
    {
      "inputs": [
        {
          "internalType": "contract IJBOperatorStore",
          "name": "_operatorStore",
          "type": "address"
        },
        {
          "internalType": "contract IJBProjects",
          "name": "_projects",
          "type": "address"
        },
        {
          "internalType": "contract IJBFundingCycleStore",
          "name": "_fundingCycleStore",
          "type": "address"
        },
        {
          "internalType": "address",
          "name": "_owner",
          "type": "address"
        }
      ],
      "stateMutability": "nonpayable",
      "type": "constructor"
    },
    {
      "inputs": [],
      "name": "DUPLICATE_TERMINALS",
      "type": "error"
    },
    {
      "inputs": [],
      "name": "INVALID_PROJECT_ID_IN_DIRECTORY",
      "type": "error"
    },
    {
      "inputs": [],
      "name": "SET_CONTROLLER_NOT_ALLOWED",
      "type": "error"
    },
    {
      "inputs": [],
      "name": "SET_TERMINALS_NOT_ALLOWED",
      "type": "error"
    },
    {
      "inputs": [],
      "name": "TOKEN_NOT_ACCEPTED",
      "type": "error"
    },
    {
      "inputs": [],
      "name": "UNAUTHORIZED",
      "type": "error"
    },
    {
      "anonymous": false,
      "inputs": [
        {
          "indexed": true,
          "internalType": "uint256",
          "name": "projectId",
          "type": "uint256"
        },
        {
          "indexed": true,
          "internalType": "contract IJBPaymentTerminal",
          "name": "terminal",
          "type": "address"
        },
        {
          "indexed": false,
          "internalType": "address",
          "name": "caller",
          "type": "address"
        }
      ],
      "name": "AddTerminal",
      "type": "event"
    },
    {
      "anonymous": false,
      "inputs": [
        {
          "indexed": true,
          "internalType": "address",
          "name": "previousOwner",
          "type": "address"
        },
        {
          "indexed": true,
          "internalType": "address",
          "name": "newOwner",
          "type": "address"
        }
      ],
      "name": "OwnershipTransferred",
      "type": "event"
    },
    {
      "anonymous": false,
      "inputs": [
        {
          "indexed": true,
          "internalType": "uint256",
          "name": "projectId",
          "type": "uint256"
        },
        {
          "indexed": true,
          "internalType": "address",
          "name": "controller",
          "type": "address"
        },
        {
          "indexed": false,
          "internalType": "address",
          "name": "caller",
          "type": "address"
        }
      ],
      "name": "SetController",
      "type": "event"
    },
    {
      "anonymous": false,
      "inputs": [
        {
          "indexed": true,
          "internalType": "address",
          "name": "addr",
          "type": "address"
        },
        {
          "indexed": true,
          "internalType": "bool",
          "name": "flag",
          "type": "bool"
        },
        {
          "indexed": false,
          "internalType": "address",
          "name": "caller",
          "type": "address"
        }
      ],
      "name": "SetIsAllowedToSetFirstController",
      "type": "event"
    },
    {
      "anonymous": false,
      "inputs": [
        {
          "indexed": true,
          "internalType": "uint256",
          "name": "projectId",
          "type": "uint256"
        },
        {
          "indexed": true,
          "internalType": "address",
          "name": "token",
          "type": "address"
        },
        {
          "indexed": true,
          "internalType": "contract IJBPaymentTerminal",
          "name": "terminal",
          "type": "address"
        },
        {
          "indexed": false,
          "internalType": "address",
          "name": "caller",
          "type": "address"
        }
      ],
      "name": "SetPrimaryTerminal",
      "type": "event"
    },
    {
      "anonymous": false,
      "inputs": [
        {
          "indexed": true,
          "internalType": "uint256",
          "name": "projectId",
          "type": "uint256"
        },
        {
          "indexed": false,
          "internalType": "contract IJBPaymentTerminal[]",
          "name": "terminals",
          "type": "address[]"
        },
        {
          "indexed": false,
          "internalType": "address",
          "name": "caller",
          "type": "address"
        }
      ],
      "name": "SetTerminals",
      "type": "event"
    },
    {
      "inputs": [
        {
          "internalType": "uint256",
          "name": "",
          "type": "uint256"
        }
      ],
      "name": "controllerOf",
      "outputs": [
        {
          "internalType": "address",
          "name": "",
          "type": "address"
        }
      ],
      "stateMutability": "view",
      "type": "function"
    },
    {
      "inputs": [],
      "name": "fundingCycleStore",
      "outputs": [
        {
          "internalType": "contract IJBFundingCycleStore",
          "name": "",
          "type": "address"
        }
      ],
      "stateMutability": "view",
      "type": "function"
    },
    {
      "inputs": [
        {
          "internalType": "address",
          "name": "",
          "type": "address"
        }
      ],
      "name": "isAllowedToSetFirstController",
      "outputs": [
        {
          "internalType": "bool",
          "name": "",
          "type": "bool"
        }
      ],
      "stateMutability": "view",
      "type": "function"
    },
    {
      "inputs": [
        {
          "internalType": "uint256",
          "name": "_projectId",
          "type": "uint256"
        },
        {
          "internalType": "contract IJBPaymentTerminal",
          "name": "_terminal",
          "type": "address"
        }
      ],
      "name": "isTerminalOf",
      "outputs": [
        {
          "internalType": "bool",
          "name": "",
          "type": "bool"
        }
      ],
      "stateMutability": "view",
      "type": "function"
    },
    {
      "inputs": [],
      "name": "operatorStore",
      "outputs": [
        {
          "internalType": "contract IJBOperatorStore",
          "name": "",
          "type": "address"
        }
      ],
      "stateMutability": "view",
      "type": "function"
    },
    {
      "inputs": [],
      "name": "owner",
      "outputs": [
        {
          "internalType": "address",
          "name": "",
          "type": "address"
        }
      ],
      "stateMutability": "view",
      "type": "function"
    },
    {
      "inputs": [
        {
          "internalType": "uint256",
          "name": "_projectId",
          "type": "uint256"
        },
        {
          "internalType": "address",
          "name": "_token",
          "type": "address"
        }
      ],
      "name": "primaryTerminalOf",
      "outputs": [
        {
          "internalType": "contract IJBPaymentTerminal",
          "name": "",
          "type": "address"
        }
      ],
      "stateMutability": "view",
      "type": "function"
    },
    {
      "inputs": [],
      "name": "projects",
      "outputs": [
        {
          "internalType": "contract IJBProjects",
          "name": "",
          "type": "address"
        }
      ],
      "stateMutability": "view",
      "type": "function"
    },
    {
      "inputs": [],
      "name": "renounceOwnership",
      "outputs": [],
      "stateMutability": "nonpayable",
      "type": "function"
    },
    {
      "inputs": [
        {
          "internalType": "uint256",
          "name": "_projectId",
          "type": "uint256"
        },
        {
          "internalType": "address",
          "name": "_controller",
          "type": "address"
        }
      ],
      "name": "setControllerOf",
      "outputs": [],
      "stateMutability": "nonpayable",
      "type": "function"
    },
    {
      "inputs": [
        {
          "internalType": "address",
          "name": "_address",
          "type": "address"
        },
        {
          "internalType": "bool",
          "name": "_flag",
          "type": "bool"
        }
      ],
      "name": "setIsAllowedToSetFirstController",
      "outputs": [],
      "stateMutability": "nonpayable",
      "type": "function"
    },
    {
      "inputs": [
        {
          "internalType": "uint256",
          "name": "_projectId",
          "type": "uint256"
        },
        {
          "internalType": "address",
          "name": "_token",
          "type": "address"
        },
        {
          "internalType": "contract IJBPaymentTerminal",
          "name": "_terminal",
          "type": "address"
        }
      ],
      "name": "setPrimaryTerminalOf",
      "outputs": [],
      "stateMutability": "nonpayable",
      "type": "function"
    },
    {
      "inputs": [
        {
          "internalType": "uint256",
          "name": "_projectId",
          "type": "uint256"
        },
        {
          "internalType": "contract IJBPaymentTerminal[]",
          "name": "_terminals",
          "type": "address[]"
        }
      ],
      "name": "setTerminalsOf",
      "outputs": [],
      "stateMutability": "nonpayable",
      "type": "function"
    },
    {
      "inputs": [
        {
          "internalType": "uint256",
          "name": "_projectId",
          "type": "uint256"
        }
      ],
      "name": "terminalsOf",
      "outputs": [
        {
          "internalType": "contract IJBPaymentTerminal[]",
          "name": "",
          "type": "address[]"
        }
      ],
      "stateMutability": "view",
      "type": "function"
    },
    {
      "inputs": [
        {
          "internalType": "address",
          "name": "newOwner",
          "type": "address"
        }
      ],
      "name": "transferOwnership",
      "outputs": [],
      "stateMutability": "nonpayable",
      "type": "function"
    }
  ],
  "bytecode": {
    "object": "0x60e03461011857601f620016ab38819003918201601f19168301916001600160401b0383118484101761011d57808492608094604052833981010312610118578051906001600160a01b03908183168303610118576020810151828116810361011857604082015191838316830361011857606001519283168303610118576100999360805261008e33610133565b60a05260c052610133565b60405161153090816200017b823960805181818161028901528181610740015281816107df01528181610b4501528181610bcb01528181610e5e0152610ee1015260a0518181816103790152818161045c0152818161090d0152610d00015260c0518181816104d2015281816109be01528181610fa301526113220152f35b600080fd5b634e487b7160e01b600052604160045260246000fd5b600080546001600160a01b039283166001600160a01b03198216811783559216907f8be0079c531659141344cd1fd0a4f28419497f9722a3daafe3b4186f6b6457e09080a356fe6080604081815260048036101561001557600080fd5b600092833560e01c908163557e715514610f8f575080635dd8f6aa14610f5d57806363d0850a14610cad5780636e49181f14610c7c578063714e7f32146108cc578063715018a614610872578063821b9fd8146103e457806386202650146103a85780638b79543c146103645780638da5cb5b1461033c578063a1ed3175146102bc578063ad007d6314610274578063c5664e2114610238578063d17541531461018d5763f2fde38b146100c857600080fd5b34610189576020366003190112610189576100e1610fed565b906100ea6114a2565b6001600160a01b0391821692831561013757505082546001600160a01b0319811683178455167f8be0079c531659141344cd1fd0a4f28419497f9722a3daafe3b4186f6b6457e08380a380f35b906020608492519162461bcd60e51b8352820152602660248201527f4f776e61626c653a206e6577206f776e657220697320746865207a65726f206160448201526564647265737360d01b6064820152fd5b8280fd5b50346101895760209081600319360112610234573583526001808252828420835181548082529186528386208185019693949192879190855b81811061021857505050826101dc910383611035565b8451948186019282875251809352850195925b8281106101fc5785870386f35b83516001600160a01b03168752958101959281019284016101ef565b82546001600160a01b03168452928401929187019187016101c6565b8380fd5b50346101895760203660031901126101895760209260ff918391906001600160a01b03610263610fed565b168252855220541690519015158152f35b5050346102b857816003193601126102b857517f00000000000000000000000000000000000000000000000000000000000000006001600160a01b03168152602090f35b5080fd5b50346101895781600319360112610189576102d5610fed565b9160243592831515809403610338577f11207664cc48b0fa81c8674795f1d8f642960f38d5d2d305ad813093bed85fab916020916103116114a2565b6001600160a01b0316808752938252808620805460ff191660ff871617905551338152a380f35b8480fd5b5050346102b857816003193601126102b857905490516001600160a01b039091168152602090f35b5050346102b857816003193601126102b857517f00000000000000000000000000000000000000000000000000000000000000006001600160a01b03168152602090f35b5091346103e157816003193601126103e157506103d06020926103c9610fd2565b903561109d565b90516001600160a01b039091168152f35b80fd5b509190346102b857806003193601126102b85782359060249384359067ffffffffffffffff80831161086e573660238401121561086e578282013590811161086e57868301928736918360051b01011161086e5783516331a9108f60e11b81528281018690526020976001600160a01b0391898183817f000000000000000000000000000000000000000000000000000000000000000087165afa9081156107a6578991610841575b5087895260038a5282878a2054163314159081610834575b816107b0575b81610711575b506107015785516321d1336160e11b815284810188905261012090818184817f000000000000000000000000000000000000000000000000000000000000000088165afa9182156106f7578a926106ca575b505087895260038a5282878a20541633141590816106b8575b506106a857868852600193848a52868920600160401b851161069657805485825580861061066f575b50895289892086868b5b878110610656575091505084116105d7575b50509190808551958087019087525260608501939287905b8282106105b057338a88015288887fb648241d83df6540fc10f2acc641e4bf80a1e84e7ae2f1f6b0ad204b8fee635b8989038aa280f35b909192939485358281168091036105d35781528901948901939291830190610579565b8980fd5b885b8481106105e65750610561565b8581019081811161064457815b8681106106015750506105d9565b88868061062561061a858c61061f61061a8a838a6112d9565b6112c5565b966112d9565b169116146106345787016105f3565b8951633e3830ab60e11b81528490fd5b634e487b7160e01b8b5260118352838bfd5b8d610660846112c5565b9301928185015501879061054f565b818b5286868d8d2092830192015b82811061068b575050610545565b8c815501879061067d565b50634e487b7160e01b89526041905287fd5b85516375fef35f60e11b81528490fd5b6106c29150611455565b51153861051c565b6106e99250803d106106f0575b6106e18183611035565b810190611234565b3880610503565b503d6106d7565b88513d8c823e3d90fd5b855163075fd2b160e01b81528490fd5b875163c161c93f60e01b8152338782015290841683820152604481018a9052600f6064820152905089816084817f000000000000000000000000000000000000000000000000000000000000000087165afa9081156107a6578991610779575b5015386104b1565b61079991508a3d8c1161079f575b6107918183611035565b810190611085565b38610771565b503d610787565b87513d8b823e3d90fd5b9050865163c161c93f60e01b8152338682015283821683820152886044820152600f60648201528a81608481877f0000000000000000000000000000000000000000000000000000000000000000165afa9081156106f7578a91610817575b5015906104ab565b61082e91508b3d8d1161079f576107918183611035565b3861080f565b33848216141591506104a5565b61086191508a3d8c11610867575b6108598183611035565b810190611215565b3861048d565b503d61084f565b8580fd5b83346103e157806003193601126103e15761088b6114a2565b80546001600160a01b03198116825581906001600160a01b03167f8be0079c531659141344cd1fd0a4f28419497f9722a3daafe3b4186f6b6457e08280a380f35b50346101895781600319360112610189578035906108e8610fd2565b83516331a9108f60e11b8152808301849052909360209290916001600160a01b0391907f00000000000000000000000000000000000000000000000000000000000000008316908581602481855afa908115610aaf578991610c5f575b508689526003865283858a20541633148015610c37575b159081610c2a575b81610b9b575b81610b15575b50610b06578482918551928380926306661abd60e01b82525afa908115610afc579086918991610ac7575b5010610ab95782516321d1336160e11b81528181018690526101209081816024817f000000000000000000000000000000000000000000000000000000000000000088165afa918215610aaf578992610a92575b5050858852600385528483858a2054163314159182610a83575b82610a6e575b5050610a6057508386526003835281862080546001600160a01b031916959091169485179055513381527f7f9a7dcb234c909a09de2f344661ad9e5b24067adb97c908647c2edcbb121c309190a380f35b825163a33db4cb60e01b8152fd5b610a79919250611455565b0151158438610a0f565b858a2054851615159250610a09565b610aa89250803d106106f0576106e18183611035565b38806109ef565b85513d8b823e3d90fd5b8251634a283a5360e11b8152fd5b809250868092503d8311610af5575b610ae08183611035565b81010312610af1578590513861099b565b8780fd5b503d610ad6565b84513d8a823e3d90fd5b50825163075fd2b160e01b8152fd5b855163c161c93f60e01b815233858201529085166024820152604481018a9052600e6064820152905085816084817f000000000000000000000000000000000000000000000000000000000000000088165afa908115610aaf578991610b7e575b501538610970565b610b959150863d881161079f576107918183611035565b38610b76565b9050845163c161c93f60e01b815233848201528482166024820152876044820152600e60648201528681608481887f0000000000000000000000000000000000000000000000000000000000000000165afa908115610c20578a91610c03575b50159061096a565b610c1a9150873d891161079f576107918183611035565b38610bfb565b86513d8c823e3d90fd5b3385821614159150610964565b5033895282865260ff858a205416801561095c57508689526003865283858a2054161561095c565b610c769150863d8811610867576108598183611035565b38610945565b5091346103e157816003193601126103e15750610ca4602092610c9d610fd2565b90356111a9565b90519015158152f35b5034610189576060366003190112610189578035610cc9610fd2565b6044356001600160a01b038181169592949291868103610af15782516331a9108f60e11b81528481018690526020949085816024817f000000000000000000000000000000000000000000000000000000000000000088165afa908115610e18579084918b91610f40575b5016803314159081610eb3575b81610e30575b50610e2257835163df21a7dd60e01b81526001600160a01b0388168282019081526020810188905286908290819060400103818c5afa908115610e18578a91610dfb575b5015610ded575090610dc07fc670a502bbb9f8a4315f95eca901a9f99b65f89a2eb5705a58050e5c00f9d672949392866112e9565b84885260028352818820951680885294825280872080546001600160a01b0319168717905551338152a480f35b8351630faa917b60e11b8152fd5b610e129150863d881161079f576107918183611035565b38610d8b565b85513d8c823e3d90fd5b835163075fd2b160e01b8152fd5b905084519063c161c93f60e01b825233838301526024820152896044820152601060648201528581608481877f0000000000000000000000000000000000000000000000000000000000000000165afa908115610e18578a91610e96575b501538610d47565b610ead9150863d881161079f576107918183611035565b38610e8e565b9050845163c161c93f60e01b81523383820152816024820152876044820152601060648201528681608481887f0000000000000000000000000000000000000000000000000000000000000000165afa908115610f36578b91610f19575b501590610d41565b610f309150873d891161079f576107918183611035565b38610f11565b86513d8d823e3d90fd5b610f579150873d8911610867576108598183611035565b38610d34565b50346101895760203660031901126101895735825260036020908152918190205490516001600160a01b039091168152f35b8490346102b857816003193601126102b8577f00000000000000000000000000000000000000000000000000000000000000006001600160a01b03168152602090f35b602435906001600160a01b0382168203610fe857565b600080fd5b600435906001600160a01b0382168203610fe857565b6060810190811067ffffffffffffffff82111761101f57604052565b634e487b7160e01b600052604160045260246000fd5b90601f8019910116810190811067ffffffffffffffff82111761101f57604052565b805482101561106f5760005260206000200190600090565b634e487b7160e01b600052603260045260246000fd5b90816020910312610fe857518015158103610fe85790565b6000918183526020906002825260408085209260018060a01b03938484168752815283828720541680151580611199575b61118f57508486526001948582528287205494875b8681106110f557505050505050505090565b8289528784528161110882878c20611057565b9054875163df21a7dd60e01b81526001600160a01b038a1660048201526024810187905260039290921b1c91909116908581604481855afa908115611185578b91611168575b5061115b575087016110e3565b9850505050505050505090565b61117f9150863d881161079f576107918183611035565b3861114e565b87513d8d823e3d90fd5b9550505050505090565b506111a481876111a9565b6110ce565b919060009083825260019060209082825260408085205492855b8481106111d557509496505050505050565b8887528582526111e781848920611057565b905460039190911b1c6001600160a01b039081169085161461120a5785016111c3565b509396505050505050565b90816020910312610fe857516001600160a01b0381168103610fe85790565b80916101209283910312610fe85760405191820182811067ffffffffffffffff82111761101f57604052805182526020810151602083015260408101516040830152606081015160608301526080810151608083015260a081015160a083015260c081015160c083015260e081015160018060a01b0381168103610fe85760e0830152610100809101519082015290565b356001600160a01b0381168103610fe85790565b919081101561106f5760051b0190565b6112f382826111a9565b61143257604080516321d1336160e11b8152600481018390526001600160a01b039391906101209081816024817f00000000000000000000000000000000000000000000000000000000000000008a165afa9182156114275760009261140a575b50508360005260036020528482600020541633141590816113f8575b506113e8578260005260016020528060002090815492600160401b84101561101f57856113c68560209560017f409bccc07b7cf7807930526a24318212d614c59f2dde05a017a41efee144e7c898018155611057565b9790921696879183549160031b90811b9283911b1691191617905551338152a3565b516375fef35f60e11b8152600490fd5b6114029150611455565b511538611370565b6114209250803d106106f0576106e18183611035565b3880611354565b83513d6000823e3d90fd5b5050565b6040519061144382611003565b60006040838281528260208201520152565b61010090611461611436565b50015161146c611436565b506040519061147a82611003565b6001818180809460081c1614845281808260091c16146020850152600a1c1614604082015290565b6000546001600160a01b031633036114b657565b606460405162461bcd60e51b815260206004820152602060248201527f4f776e61626c653a2063616c6c6572206973206e6f7420746865206f776e65726044820152fdfea2646970667358221220d29c57678b10cae20e71acda5a43933603062458ebd58d0c4806974f97ecbed764736f6c63430008110033",
    "linkReferences": {}
  },
  "methodIdentifiers": {
    "controllerOf(uint256)": "5dd8f6aa",
    "fundingCycleStore()": "557e7155",
    "isAllowedToSetFirstController(address)": "c5664e21",
    "isTerminalOf(uint256,address)": "6e49181f",
    "operatorStore()": "ad007d63",
    "owner()": "8da5cb5b",
    "primaryTerminalOf(uint256,address)": "86202650",
    "projects()": "8b79543c",
    "renounceOwnership()": "715018a6",
    "setControllerOf(uint256,address)": "714e7f32",
    "setIsAllowedToSetFirstController(address,bool)": "a1ed3175",
    "setPrimaryTerminalOf(uint256,address,address)": "63d0850a",
    "setTerminalsOf(uint256,address[])": "821b9fd8",
    "terminalsOf(uint256)": "d1754153",
    "transferOwnership(address)": "f2fde38b"
  },
  "id": 59
}