{
  "abi": [
    {
      "inputs": [
        {
          "internalType": "uint256",
          "name": "_baseWeightCurrency",
          "type": "uint256"
        },
        {
          "internalType": "contract IJBOperatorStore",
          "name": "_operatorStore",
          "type": "address"
        },
        {
          "internalType": "contract IJBProjects",
          "name": "_projects",
          "type": "address"
        },
        {
          "internalType": "contract IJBDirectory",
          "name": "_directory",
          "type": "address"
        },
        {
          "internalType": "contract IJBSplitsStore",
          "name": "_splitsStore",
          "type": "address"
        },
        {
          "internalType": "contract IJBPrices",
          "name": "_prices",
          "type": "address"
        },
        {
          "internalType": "contract IJBSingleTokenPaymentTerminalStore",
          "name": "_store",
          "type": "address"
        },
        {
          "internalType": "address",
          "name": "_owner",
          "type": "address"
        }
      ],
      "stateMutability": "nonpayable",
      "type": "constructor"
    },
    {
      "inputs": [],
      "name": "FEE_TOO_HIGH",
      "type": "error"
    },
    {
      "inputs": [],
      "name": "INADEQUATE_DISTRIBUTION_AMOUNT",
      "type": "error"
    },
    {
      "inputs": [],
      "name": "INADEQUATE_RECLAIM_AMOUNT",
      "type": "error"
    },
    {
      "inputs": [],
      "name": "INADEQUATE_TOKEN_COUNT",
      "type": "error"
    },
    {
      "inputs": [],
      "name": "NO_MSG_VALUE_ALLOWED",
      "type": "error"
    },
    {
      "inputs": [],
      "name": "PAY_TO_ZERO_ADDRESS",
      "type": "error"
    },
    {
      "inputs": [
        {
          "internalType": "uint256",
          "name": "prod1",
          "type": "uint256"
        },
        {
          "internalType": "uint256",
          "name": "denominator",
          "type": "uint256"
        }
      ],
      "name": "PRBMath__MulDivOverflow",
      "type": "error"
    },
    {
      "inputs": [],
      "name": "PROJECT_TERMINAL_MISMATCH",
      "type": "error"
    },
    {
      "inputs": [],
      "name": "REDEEM_TO_ZERO_ADDRESS",
      "type": "error"
    },
    {
      "inputs": [],
      "name": "TERMINAL_IN_SPLIT_ZERO_ADDRESS",
      "type": "error"
    },
    {
      "inputs": [],
      "name": "TERMINAL_TOKENS_INCOMPATIBLE",
      "type": "error"
    },
    {
      "inputs": [],
      "name": "UNAUTHORIZED",
      "type": "error"
    },
    {
      "anonymous": false,
      "inputs": [
        {
          "indexed": true,
          "internalType": "uint256",
          "name": "projectId",
          "type": "uint256"
        },
        {
          "indexed": false,
          "internalType": "uint256",
          "name": "amount",
          "type": "uint256"
        },
        {
          "indexed": false,
          "internalType": "uint256",
          "name": "refundedFees",
          "type": "uint256"
        },
        {
          "indexed": false,
          "internalType": "string",
          "name": "memo",
          "type": "string"
        },
        {
          "indexed": false,
          "internalType": "bytes",
          "name": "metadata",
          "type": "bytes"
        },
        {
          "indexed": false,
          "internalType": "address",
          "name": "caller",
          "type": "address"
        }
      ],
      "name": "AddToBalance",
      "type": "event"
    },
    {
      "anonymous": false,
      "inputs": [
        {
          "indexed": true,
          "internalType": "contract IJBPayDelegate",
          "name": "delegate",
          "type": "address"
        },
        {
          "components": [
            {
              "internalType": "address",
              "name": "payer",
              "type": "address"
            },
            {
              "internalType": "uint256",
              "name": "projectId",
              "type": "uint256"
            },
            {
              "internalType": "uint256",
              "name": "currentFundingCycleConfiguration",
              "type": "uint256"
            },
            {
              "components": [
                {
                  "internalType": "address",
                  "name": "token",
                  "type": "address"
                },
                {
                  "internalType": "uint256",
                  "name": "value",
                  "type": "uint256"
                },
                {
                  "internalType": "uint256",
                  "name": "decimals",
                  "type": "uint256"
                },
                {
                  "internalType": "uint256",
                  "name": "currency",
                  "type": "uint256"
                }
              ],
              "internalType": "struct JBTokenAmount",
              "name": "amount",
              "type": "tuple"
            },
            {
              "components": [
                {
                  "internalType": "address",
                  "name": "token",
                  "type": "address"
                },
                {
                  "internalType": "uint256",
                  "name": "value",
                  "type": "uint256"
                },
                {
                  "internalType": "uint256",
                  "name": "decimals",
                  "type": "uint256"
                },
                {
                  "internalType": "uint256",
                  "name": "currency",
                  "type": "uint256"
                }
              ],
              "internalType": "struct JBTokenAmount",
              "name": "forwardedAmount",
              "type": "tuple"
            },
            {
              "internalType": "uint256",
              "name": "projectTokenCount",
              "type": "uint256"
            },
            {
              "internalType": "address",
              "name": "beneficiary",
              "type": "address"
            },
            {
              "internalType": "bool",
              "name": "preferClaimedTokens",
              "type": "bool"
            },
            {
              "internalType": "string",
              "name": "memo",
              "type": "string"
            },
            {
              "internalType": "bytes",
              "name": "metadata",
              "type": "bytes"
            }
          ],
          "indexed": false,
          "internalType": "struct JBDidPayData",
          "name": "data",
          "type": "tuple"
        },
        {
          "indexed": false,
          "internalType": "uint256",
          "name": "delegatedAmount",
          "type": "uint256"
        },
        {
          "indexed": false,
          "internalType": "address",
          "name": "caller",
          "type": "address"
        }
      ],
      "name": "DelegateDidPay",
      "type": "event"
    },
    {
      "anonymous": false,
      "inputs": [
        {
          "indexed": true,
          "internalType": "contract IJBRedemptionDelegate",
          "name": "delegate",
          "type": "address"
        },
        {
          "components": [
            {
              "internalType": "address",
              "name": "holder",
              "type": "address"
            },
            {
              "internalType": "uint256",
              "name": "projectId",
              "type": "uint256"
            },
            {
              "internalType": "uint256",
              "name": "currentFundingCycleConfiguration",
              "type": "uint256"
            },
            {
              "internalType": "uint256",
              "name": "projectTokenCount",
              "type": "uint256"
            },
            {
              "components": [
                {
                  "internalType": "address",
                  "name": "token",
                  "type": "address"
                },
                {
                  "internalType": "uint256",
                  "name": "value",
                  "type": "uint256"
                },
                {
                  "internalType": "uint256",
                  "name": "decimals",
                  "type": "uint256"
                },
                {
                  "internalType": "uint256",
                  "name": "currency",
                  "type": "uint256"
                }
              ],
              "internalType": "struct JBTokenAmount",
              "name": "reclaimedAmount",
              "type": "tuple"
            },
            {
              "components": [
                {
                  "internalType": "address",
                  "name": "token",
                  "type": "address"
                },
                {
                  "internalType": "uint256",
                  "name": "value",
                  "type": "uint256"
                },
                {
                  "internalType": "uint256",
                  "name": "decimals",
                  "type": "uint256"
                },
                {
                  "internalType": "uint256",
                  "name": "currency",
                  "type": "uint256"
                }
              ],
              "internalType": "struct JBTokenAmount",
              "name": "forwardedAmount",
              "type": "tuple"
            },
            {
              "internalType": "address payable",
              "name": "beneficiary",
              "type": "address"
            },
            {
              "internalType": "string",
              "name": "memo",
              "type": "string"
            },
            {
              "internalType": "bytes",
              "name": "metadata",
              "type": "bytes"
            }
          ],
          "indexed": false,
          "internalType": "struct JBDidRedeemData",
          "name": "data",
          "type": "tuple"
        },
        {
          "indexed": false,
          "internalType": "uint256",
          "name": "delegatedAmount",
          "type": "uint256"
        },
        {
          "indexed": false,
          "internalType": "address",
          "name": "caller",
          "type": "address"
        }
      ],
      "name": "DelegateDidRedeem",
      "type": "event"
    },
    {
      "anonymous": false,
      "inputs": [
        {
          "indexed": true,
          "internalType": "uint256",
          "name": "fundingCycleConfiguration",
          "type": "uint256"
        },
        {
          "indexed": true,
          "internalType": "uint256",
          "name": "fundingCycleNumber",
          "type": "uint256"
        },
        {
          "indexed": true,
          "internalType": "uint256",
          "name": "projectId",
          "type": "uint256"
        },
        {
          "indexed": false,
          "internalType": "address",
          "name": "beneficiary",
          "type": "address"
        },
        {
          "indexed": false,
          "internalType": "uint256",
          "name": "amount",
          "type": "uint256"
        },
        {
          "indexed": false,
          "internalType": "uint256",
          "name": "distributedAmount",
          "type": "uint256"
        },
        {
          "indexed": false,
          "internalType": "uint256",
          "name": "fee",
          "type": "uint256"
        },
        {
          "indexed": false,
          "internalType": "uint256",
          "name": "beneficiaryDistributionAmount",
          "type": "uint256"
        },
        {
          "indexed": false,
          "internalType": "string",
          "name": "memo",
          "type": "string"
        },
        {
          "indexed": false,
          "internalType": "address",
          "name": "caller",
          "type": "address"
        }
      ],
      "name": "DistributePayouts",
      "type": "event"
    },
    {
      "anonymous": false,
      "inputs": [
        {
          "indexed": true,
          "internalType": "uint256",
          "name": "projectId",
          "type": "uint256"
        },
        {
          "indexed": true,
          "internalType": "uint256",
          "name": "domain",
          "type": "uint256"
        },
        {
          "indexed": true,
          "internalType": "uint256",
          "name": "group",
          "type": "uint256"
        },
        {
          "components": [
            {
              "internalType": "bool",
              "name": "preferClaimed",
              "type": "bool"
            },
            {
              "internalType": "bool",
              "name": "preferAddToBalance",
              "type": "bool"
            },
            {
              "internalType": "uint256",
              "name": "percent",
              "type": "uint256"
            },
            {
              "internalType": "uint256",
              "name": "projectId",
              "type": "uint256"
            },
            {
              "internalType": "address payable",
              "name": "beneficiary",
              "type": "address"
            },
            {
              "internalType": "uint256",
              "name": "lockedUntil",
              "type": "uint256"
            },
            {
              "internalType": "contract IJBSplitAllocator",
              "name": "allocator",
              "type": "address"
            }
          ],
          "indexed": false,
          "internalType": "struct JBSplit",
          "name": "split",
          "type": "tuple"
        },
        {
          "indexed": false,
          "internalType": "uint256",
          "name": "amount",
          "type": "uint256"
        },
        {
          "indexed": false,
          "internalType": "address",
          "name": "caller",
          "type": "address"
        }
      ],
      "name": "DistributeToPayoutSplit",
      "type": "event"
    },
    {
      "anonymous": false,
      "inputs": [
        {
          "indexed": true,
          "internalType": "uint256",
          "name": "projectId",
          "type": "uint256"
        },
        {
          "indexed": true,
          "internalType": "uint256",
          "name": "amount",
          "type": "uint256"
        },
        {
          "indexed": true,
          "internalType": "uint256",
          "name": "fee",
          "type": "uint256"
        },
        {
          "indexed": false,
          "internalType": "uint256",
          "name": "feeDiscount",
          "type": "uint256"
        },
        {
          "indexed": false,
          "internalType": "address",
          "name": "beneficiary",
          "type": "address"
        },
        {
          "indexed": false,
          "internalType": "address",
          "name": "caller",
          "type": "address"
        }
      ],
      "name": "HoldFee",
      "type": "event"
    },
    {
      "anonymous": false,
      "inputs": [
        {
          "indexed": true,
          "internalType": "uint256",
          "name": "projectId",
          "type": "uint256"
        },
        {
          "indexed": true,
          "internalType": "contract IJBPaymentTerminal",
          "name": "to",
          "type": "address"
        },
        {
          "indexed": false,
          "internalType": "uint256",
          "name": "amount",
          "type": "uint256"
        },
        {
          "indexed": false,
          "internalType": "address",
          "name": "caller",
          "type": "address"
        }
      ],
      "name": "Migrate",
      "type": "event"
    },
    {
      "anonymous": false,
      "inputs": [
        {
          "indexed": true,
          "internalType": "address",
          "name": "previousOwner",
          "type": "address"
        },
        {
          "indexed": true,
          "internalType": "address",
          "name": "newOwner",
          "type": "address"
        }
      ],
      "name": "OwnershipTransferred",
      "type": "event"
    },
    {
      "anonymous": false,
      "inputs": [
        {
          "indexed": true,
          "internalType": "uint256",
          "name": "fundingCycleConfiguration",
          "type": "uint256"
        },
        {
          "indexed": true,
          "internalType": "uint256",
          "name": "fundingCycleNumber",
          "type": "uint256"
        },
        {
          "indexed": true,
          "internalType": "uint256",
          "name": "projectId",
          "type": "uint256"
        },
        {
          "indexed": false,
          "internalType": "address",
          "name": "payer",
          "type": "address"
        },
        {
          "indexed": false,
          "internalType": "address",
          "name": "beneficiary",
          "type": "address"
        },
        {
          "indexed": false,
          "internalType": "uint256",
          "name": "amount",
          "type": "uint256"
        },
        {
          "indexed": false,
          "internalType": "uint256",
          "name": "beneficiaryTokenCount",
          "type": "uint256"
        },
        {
          "indexed": false,
          "internalType": "string",
          "name": "memo",
          "type": "string"
        },
        {
          "indexed": false,
          "internalType": "bytes",
          "name": "metadata",
          "type": "bytes"
        },
        {
          "indexed": false,
          "internalType": "address",
          "name": "caller",
          "type": "address"
        }
      ],
      "name": "Pay",
      "type": "event"
    },
    {
      "anonymous": false,
      "inputs": [
        {
          "indexed": true,
          "internalType": "uint256",
          "name": "projectId",
          "type": "uint256"
        },
        {
          "indexed": true,
          "internalType": "uint256",
          "name": "amount",
          "type": "uint256"
        },
        {
          "indexed": true,
          "internalType": "bool",
          "name": "wasHeld",
          "type": "bool"
        },
        {
          "indexed": false,
          "internalType": "address",
          "name": "beneficiary",
          "type": "address"
        },
        {
          "indexed": false,
          "internalType": "address",
          "name": "caller",
          "type": "address"
        }
      ],
      "name": "ProcessFee",
      "type": "event"
    },
    {
      "anonymous": false,
      "inputs": [
        {
          "indexed": true,
          "internalType": "uint256",
          "name": "fundingCycleConfiguration",
          "type": "uint256"
        },
        {
          "indexed": true,
          "internalType": "uint256",
          "name": "fundingCycleNumber",
          "type": "uint256"
        },
        {
          "indexed": true,
          "internalType": "uint256",
          "name": "projectId",
          "type": "uint256"
        },
        {
          "indexed": false,
          "internalType": "address",
          "name": "holder",
          "type": "address"
        },
        {
          "indexed": false,
          "internalType": "address",
          "name": "beneficiary",
          "type": "address"
        },
        {
          "indexed": false,
          "internalType": "uint256",
          "name": "tokenCount",
          "type": "uint256"
        },
        {
          "indexed": false,
          "internalType": "uint256",
          "name": "reclaimedAmount",
          "type": "uint256"
        },
        {
          "indexed": false,
          "internalType": "string",
          "name": "memo",
          "type": "string"
        },
        {
          "indexed": false,
          "internalType": "bytes",
          "name": "metadata",
          "type": "bytes"
        },
        {
          "indexed": false,
          "internalType": "address",
          "name": "caller",
          "type": "address"
        }
      ],
      "name": "RedeemTokens",
      "type": "event"
    },
    {
      "anonymous": false,
      "inputs": [
        {
          "indexed": true,
          "internalType": "uint256",
          "name": "projectId",
          "type": "uint256"
        },
        {
          "indexed": true,
          "internalType": "uint256",
          "name": "amount",
          "type": "uint256"
        },
        {
          "indexed": true,
          "internalType": "uint256",
          "name": "refundedFees",
          "type": "uint256"
        },
        {
          "indexed": false,
          "internalType": "uint256",
          "name": "leftoverAmount",
          "type": "uint256"
        },
        {
          "indexed": false,
          "internalType": "address",
          "name": "caller",
          "type": "address"
        }
      ],
      "name": "RefundHeldFees",
      "type": "event"
    },
    {
      "anonymous": false,
      "inputs": [
        {
          "indexed": false,
          "internalType": "uint256",
          "name": "fee",
          "type": "uint256"
        },
        {
          "indexed": false,
          "internalType": "address",
          "name": "caller",
          "type": "address"
        }
      ],
      "name": "SetFee",
      "type": "event"
    },
    {
      "anonymous": false,
      "inputs": [
        {
          "indexed": true,
          "internalType": "contract IJBFeeGauge",
          "name": "feeGauge",
          "type": "address"
        },
        {
          "indexed": false,
          "internalType": "address",
          "name": "caller",
          "type": "address"
        }
      ],
      "name": "SetFeeGauge",
      "type": "event"
    },
    {
      "anonymous": false,
      "inputs": [
        {
          "indexed": true,
          "internalType": "address",
          "name": "addrs",
          "type": "address"
        },
        {
          "indexed": true,
          "internalType": "bool",
          "name": "flag",
          "type": "bool"
        },
        {
          "indexed": false,
          "internalType": "address",
          "name": "caller",
          "type": "address"
        }
      ],
      "name": "SetFeelessAddress",
      "type": "event"
    },
    {
      "anonymous": false,
      "inputs": [
        {
          "indexed": true,
          "internalType": "uint256",
          "name": "fundingCycleConfiguration",
          "type": "uint256"
        },
        {
          "indexed": true,
          "internalType": "uint256",
          "name": "fundingCycleNumber",
          "type": "uint256"
        },
        {
          "indexed": true,
          "internalType": "uint256",
          "name": "projectId",
          "type": "uint256"
        },
        {
          "indexed": false,
          "internalType": "address",
          "name": "beneficiary",
          "type": "address"
        },
        {
          "indexed": false,
          "internalType": "uint256",
          "name": "amount",
          "type": "uint256"
        },
        {
          "indexed": false,
          "internalType": "uint256",
          "name": "distributedAmount",
          "type": "uint256"
        },
        {
          "indexed": false,
          "internalType": "uint256",
          "name": "netDistributedamount",
          "type": "uint256"
        },
        {
          "indexed": false,
          "internalType": "string",
          "name": "memo",
          "type": "string"
        },
        {
          "indexed": false,
          "internalType": "address",
          "name": "caller",
          "type": "address"
        }
      ],
      "name": "UseAllowance",
      "type": "event"
    },
    {
      "inputs": [
        {
          "internalType": "address",
          "name": "_token",
          "type": "address"
        },
        {
          "internalType": "uint256",
          "name": "_projectId",
          "type": "uint256"
        }
      ],
      "name": "acceptsToken",
      "outputs": [
        {
          "internalType": "bool",
          "name": "",
          "type": "bool"
        }
      ],
      "stateMutability": "view",
      "type": "function"
    },
    {
      "inputs": [
        {
          "internalType": "uint256",
          "name": "_projectId",
          "type": "uint256"
        },
        {
          "internalType": "uint256",
          "name": "_amount",
          "type": "uint256"
        },
        {
          "internalType": "address",
          "name": "_token",
          "type": "address"
        },
        {
          "internalType": "string",
          "name": "_memo",
          "type": "string"
        },
        {
          "internalType": "bytes",
          "name": "_metadata",
          "type": "bytes"
        }
      ],
      "name": "addToBalanceOf",
      "outputs": [],
      "stateMutability": "payable",
      "type": "function"
    },
    {
      "inputs": [],
      "name": "baseWeightCurrency",
      "outputs": [
        {
          "internalType": "uint256",
          "name": "",
          "type": "uint256"
        }
      ],
      "stateMutability": "view",
      "type": "function"
    },
    {
      "inputs": [],
      "name": "currency",
      "outputs": [
        {
          "internalType": "uint256",
          "name": "",
          "type": "uint256"
        }
      ],
      "stateMutability": "view",
      "type": "function"
    },
    {
      "inputs": [
        {
          "internalType": "address",
          "name": "_token",
          "type": "address"
        }
      ],
      "name": "currencyForToken",
      "outputs": [
        {
          "internalType": "uint256",
          "name": "",
          "type": "uint256"
        }
      ],
      "stateMutability": "view",
      "type": "function"
    },
    {
      "inputs": [
        {
          "internalType": "uint256",
          "name": "_projectId",
          "type": "uint256"
        }
      ],
      "name": "currentEthOverflowOf",
      "outputs": [
        {
          "internalType": "uint256",
          "name": "",
          "type": "uint256"
        }
      ],
      "stateMutability": "view",
      "type": "function"
    },
    {
      "inputs": [],
      "name": "decimals",
      "outputs": [
        {
          "internalType": "uint256",
          "name": "",
          "type": "uint256"
        }
      ],
      "stateMutability": "view",
      "type": "function"
    },
    {
      "inputs": [
        {
          "internalType": "address",
          "name": "_token",
          "type": "address"
        }
      ],
      "name": "decimalsForToken",
      "outputs": [
        {
          "internalType": "uint256",
          "name": "",
          "type": "uint256"
        }
      ],
      "stateMutability": "view",
      "type": "function"
    },
    {
      "inputs": [],
      "name": "directory",
      "outputs": [
        {
          "internalType": "contract IJBDirectory",
          "name": "",
          "type": "address"
        }
      ],
      "stateMutability": "view",
      "type": "function"
    },
    {
      "inputs": [
        {
          "internalType": "uint256",
          "name": "_projectId",
          "type": "uint256"
        },
        {
          "internalType": "uint256",
          "name": "_amount",
          "type": "uint256"
        },
        {
          "internalType": "uint256",
          "name": "_currency",
          "type": "uint256"
        },
        {
          "internalType": "address",
          "name": "_token",
          "type": "address"
        },
        {
          "internalType": "uint256",
          "name": "_minReturnedTokens",
          "type": "uint256"
        },
        {
          "internalType": "string",
          "name": "_memo",
          "type": "string"
        }
      ],
      "name": "distributePayoutsOf",
      "outputs": [
        {
          "internalType": "uint256",
          "name": "netLeftoverDistributionAmount",
          "type": "uint256"
        }
      ],
      "stateMutability": "nonpayable",
      "type": "function"
    },
    {
      "inputs": [],
      "name": "fee",
      "outputs": [
        {
          "internalType": "uint256",
          "name": "",
          "type": "uint256"
        }
      ],
      "stateMutability": "view",
      "type": "function"
    },
    {
      "inputs": [],
      "name": "feeGauge",
      "outputs": [
        {
          "internalType": "contract IJBFeeGauge",
          "name": "",
          "type": "address"
        }
      ],
      "stateMutability": "view",
      "type": "function"
    },
    {
      "inputs": [
        {
          "internalType": "uint256",
          "name": "_projectId",
          "type": "uint256"
        }
      ],
      "name": "heldFeesOf",
      "outputs": [
        {
          "components": [
            {
              "internalType": "uint256",
              "name": "amount",
              "type": "uint256"
            },
            {
              "internalType": "uint32",
              "name": "fee",
              "type": "uint32"
            },
            {
              "internalType": "uint32",
              "name": "feeDiscount",
              "type": "uint32"
            },
            {
              "internalType": "address",
              "name": "beneficiary",
              "type": "address"
            }
          ],
          "internalType": "struct JBFee[]",
          "name": "",
          "type": "tuple[]"
        }
      ],
      "stateMutability": "view",
      "type": "function"
    },
    {
      "inputs": [
        {
          "internalType": "address",
          "name": "",
          "type": "address"
        }
      ],
      "name": "isFeelessAddress",
      "outputs": [
        {
          "internalType": "bool",
          "name": "",
          "type": "bool"
        }
      ],
      "stateMutability": "view",
      "type": "function"
    },
    {
      "inputs": [
        {
          "internalType": "uint256",
          "name": "_projectId",
          "type": "uint256"
        },
        {
          "internalType": "contract IJBPaymentTerminal",
          "name": "_to",
          "type": "address"
        }
      ],
      "name": "migrate",
      "outputs": [
        {
          "internalType": "uint256",
          "name": "balance",
          "type": "uint256"
        }
      ],
      "stateMutability": "nonpayable",
      "type": "function"
    },
    {
      "inputs": [],
      "name": "operatorStore",
      "outputs": [
        {
          "internalType": "contract IJBOperatorStore",
          "name": "",
          "type": "address"
        }
      ],
      "stateMutability": "view",
      "type": "function"
    },
    {
      "inputs": [],
      "name": "owner",
      "outputs": [
        {
          "internalType": "address",
          "name": "",
          "type": "address"
        }
      ],
      "stateMutability": "view",
      "type": "function"
    },
    {
      "inputs": [
        {
          "internalType": "uint256",
          "name": "_projectId",
          "type": "uint256"
        },
        {
          "internalType": "uint256",
          "name": "_amount",
          "type": "uint256"
        },
        {
          "internalType": "address",
          "name": "_token",
          "type": "address"
        },
        {
          "internalType": "address",
          "name": "_beneficiary",
          "type": "address"
        },
        {
          "internalType": "uint256",
          "name": "_minReturnedTokens",
          "type": "uint256"
        },
        {
          "internalType": "bool",
          "name": "_preferClaimedTokens",
          "type": "bool"
        },
        {
          "internalType": "string",
          "name": "_memo",
          "type": "string"
        },
        {
          "internalType": "bytes",
          "name": "_metadata",
          "type": "bytes"
        }
      ],
      "name": "pay",
      "outputs": [
        {
          "internalType": "uint256",
          "name": "",
          "type": "uint256"
        }
      ],
      "stateMutability": "payable",
      "type": "function"
    },
    {
      "inputs": [],
      "name": "payoutSplitsGroup",
      "outputs": [
        {
          "internalType": "uint256",
          "name": "",
          "type": "uint256"
        }
      ],
      "stateMutability": "view",
      "type": "function"
    },
    {
      "inputs": [],
      "name": "prices",
      "outputs": [
        {
          "internalType": "contract IJBPrices",
          "name": "",
          "type": "address"
        }
      ],
      "stateMutability": "view",
      "type": "function"
    },
    {
      "inputs": [
        {
          "internalType": "uint256",
          "name": "_projectId",
          "type": "uint256"
        }
      ],
      "name": "processFees",
      "outputs": [],
      "stateMutability": "nonpayable",
      "type": "function"
    },
    {
      "inputs": [],
      "name": "projects",
      "outputs": [
        {
          "internalType": "contract IJBProjects",
          "name": "",
          "type": "address"
        }
      ],
      "stateMutability": "view",
      "type": "function"
    },
    {
      "inputs": [
        {
          "internalType": "address",
          "name": "_holder",
          "type": "address"
        },
        {
          "internalType": "uint256",
          "name": "_projectId",
          "type": "uint256"
        },
        {
          "internalType": "uint256",
          "name": "_tokenCount",
          "type": "uint256"
        },
        {
          "internalType": "address",
          "name": "_token",
          "type": "address"
        },
        {
          "internalType": "uint256",
          "name": "_minReturnedTokens",
          "type": "uint256"
        },
        {
          "internalType": "address payable",
          "name": "_beneficiary",
          "type": "address"
        },
        {
          "internalType": "string",
          "name": "_memo",
          "type": "string"
        },
        {
          "internalType": "bytes",
          "name": "_metadata",
          "type": "bytes"
        }
      ],
      "name": "redeemTokensOf",
      "outputs": [
        {
          "internalType": "uint256",
          "name": "reclaimAmount",
          "type": "uint256"
        }
      ],
      "stateMutability": "nonpayable",
      "type": "function"
    },
    {
      "inputs": [],
      "name": "renounceOwnership",
      "outputs": [],
      "stateMutability": "nonpayable",
      "type": "function"
    },
    {
      "inputs": [
        {
          "internalType": "uint256",
          "name": "_fee",
          "type": "uint256"
        }
      ],
      "name": "setFee",
      "outputs": [],
      "stateMutability": "nonpayable",
      "type": "function"
    },
    {
      "inputs": [
        {
          "internalType": "contract IJBFeeGauge",
          "name": "_feeGauge",
          "type": "address"
        }
      ],
      "name": "setFeeGauge",
      "outputs": [],
      "stateMutability": "nonpayable",
      "type": "function"
    },
    {
      "inputs": [
        {
          "internalType": "address",
          "name": "_address",
          "type": "address"
        },
        {
          "internalType": "bool",
          "name": "_flag",
          "type": "bool"
        }
      ],
      "name": "setFeelessAddress",
      "outputs": [],
      "stateMutability": "nonpayable",
      "type": "function"
    },
    {
      "inputs": [],
      "name": "splitsStore",
      "outputs": [
        {
          "internalType": "contract IJBSplitsStore",
          "name": "",
          "type": "address"
        }
      ],
      "stateMutability": "view",
      "type": "function"
    },
    {
      "inputs": [],
      "name": "store",
      "outputs": [
        {
          "internalType": "contract IJBSingleTokenPaymentTerminalStore",
          "name": "",
          "type": "address"
        }
      ],
      "stateMutability": "view",
      "type": "function"
    },
    {
      "inputs": [
        {
          "internalType": "bytes4",
          "name": "_interfaceId",
          "type": "bytes4"
        }
      ],
      "name": "supportsInterface",
      "outputs": [
        {
          "internalType": "bool",
          "name": "",
          "type": "bool"
        }
      ],
      "stateMutability": "view",
      "type": "function"
    },
    {
      "inputs": [],
      "name": "token",
      "outputs": [
        {
          "internalType": "address",
          "name": "",
          "type": "address"
        }
      ],
      "stateMutability": "view",
      "type": "function"
    },
    {
      "inputs": [
        {
          "internalType": "address",
          "name": "newOwner",
          "type": "address"
        }
      ],
      "name": "transferOwnership",
      "outputs": [],
      "stateMutability": "nonpayable",
      "type": "function"
    },
    {
      "inputs": [
        {
          "internalType": "uint256",
          "name": "_projectId",
          "type": "uint256"
        },
        {
          "internalType": "uint256",
          "name": "_amount",
          "type": "uint256"
        },
        {
          "internalType": "uint256",
          "name": "_currency",
          "type": "uint256"
        },
        {
          "internalType": "address",
          "name": "_token",
          "type": "address"
        },
        {
          "internalType": "uint256",
          "name": "_minReturnedTokens",
          "type": "uint256"
        },
        {
          "internalType": "address payable",
          "name": "_beneficiary",
          "type": "address"
        },
        {
          "internalType": "string",
          "name": "_memo",
          "type": "string"
        }
      ],
      "name": "useAllowanceOf",
      "outputs": [
        {
          "internalType": "uint256",
          "name": "netDistributedAmount",
          "type": "uint256"
        }
      ],
      "stateMutability": "nonpayable",
      "type": "function"
    }
  ],
  "bytecode": {
    "object": "0x6101e060405263017d78406002553480156200001a57600080fd5b506040516200553e3803806200553e8339810160408190526200003d9162000216565b61eeee6080819052601260a0819052600160c08190526001600160a01b038a1660e0528a818b8b8b8b8b8b8b6200007433620000cf565b6101a08990526101c08890526001600160a01b0380871661010052858116610120528481166101405283811661016052821661018052620000b5816200011f565b5050505050505050505050505050505050505050620002cb565b600080546001600160a01b038381166001600160a01b0319831681178455604051919092169283917f8be0079c531659141344cd1fd0a4f28419497f9722a3daafe3b4186f6b6457e09190a35050565b62000129620001a2565b6001600160a01b038116620001945760405162461bcd60e51b815260206004820152602660248201527f4f776e61626c653a206e6577206f776e657220697320746865207a65726f206160448201526564647265737360d01b60648201526084015b60405180910390fd5b6200019f81620000cf565b50565b6000546001600160a01b03163314620001fe5760405162461bcd60e51b815260206004820181905260248201527f4f776e61626c653a2063616c6c6572206973206e6f7420746865206f776e657260448201526064016200018b565b565b6001600160a01b03811681146200019f57600080fd5b600080600080600080600080610100898b0312156200023457600080fd5b885197506020890151620002488162000200565b60408a01519097506200025b8162000200565b60608a01519096506200026e8162000200565b60808a0151909550620002818162000200565b60a08a0151909450620002948162000200565b60c08a0151909350620002a78162000200565b60e08a0151909250620002ba8162000200565b809150509295985092959890939650565b60805160a05160c05160e05161010051610120516101405161016051610180516101a0516101c05161501e62000520600039600081816103c40152611efb01526000818161031c01526119040152600081816104ec01528181610d0b0152818161135c01528181611740015281816118d201528181611da9015281816126eb015261292901526000818161063801526114e10152600081816102d0015261348f0152600081816106040152818161083b015281816109fc015281816119b5015281816123ef015281816129f40152818161333d015261372f01526000818161049a01528181610bc6015281816110060152818161158101528181611e5501526127a101526000818161054001528181612009015281816120a50152818161222101526122bd01526000818161025b015281816106f00152818161142c0152818161148e015281816118ac01528181611b5601528181612b5a0152612c19015260008181610350015281816105b0015281816113cd015281816113f901528181611459015281816114bb0152818161188601528181611b3001528181612b3401528181612bf301526136240152600081816106ae01528181610744015281816108cd01528181610a8601528181610c5e01528181610d8c01528181610dff0152818161185101528181611afb01528181611c16015281816123c4015281816124a20152818161251701528181612afe01528181612bbe01528181612c9b01528181613310015281816135ef0152818161367b0152818161375c0152818161393a015281816139f30152613a6c015261501e6000f3fe6080604052600436106101ee5760003560e01c80638b79543c1161010d578063c41c2f24116100a0578063df21a7dd1161006f578063df21a7dd14610690578063e5a6b10f146106de578063f2fde38b14610712578063fc0c546a14610732578063fe663f0f1461076657600080fd5b8063c41c2f24146105f2578063d3419bf314610626578063d6dacc531461065a578063ddca3f431461067a57600080fd5b8063ad007d63116100dc578063ad007d631461052e578063b631b50014610562578063b7bad1b114610592578063bc8926e9146105d257600080fd5b80638b79543c146104885780638da5cb5b146104bc578063975057e7146104da578063a32e1e961461050e57600080fd5b8063405b84fa11610185578063715018a611610154578063715018a6146104065780637258002c1461041b57806389701db51461043b5780638af560941461045b57600080fd5b8063405b84fa14610372578063637913ac1461039257806366248b86146103b257806369fe0e2d146103e657600080fd5b80632b267b4e116101c15780632b267b4e1461029e5780632bdfe004146102be5780632d1a59031461030a578063313ce5671461033e57600080fd5b806301ffc9a7146101f35780630cf8e858146102285780631982d6791461023d5780631ebc263f1461028b575b600080fd5b3480156101ff57600080fd5b5061021361020e366004613e1d565b610786565b60405190151581526020015b60405180910390f35b61023b610236366004613ea4565b61081d565b005b34801561024957600080fd5b5061027d610258366004613f39565b507f000000000000000000000000000000000000000000000000000000000000000090565b60405190815260200161021f565b61027d610299366004613f64565b6109d3565b3480156102aa57600080fd5b5061027d6102b936600461402b565b610b91565b3480156102ca57600080fd5b506102f27f000000000000000000000000000000000000000000000000000000000000000081565b6040516001600160a01b03909116815260200161021f565b34801561031657600080fd5b5061027d7f000000000000000000000000000000000000000000000000000000000000000081565b34801561034a57600080fd5b5061027d7f000000000000000000000000000000000000000000000000000000000000000081565b34801561037e57600080fd5b5061027d61038d366004614094565b610bad565b34801561039e57600080fd5b5061023b6103ad366004613f39565b610ea9565b3480156103be57600080fd5b5061027d7f000000000000000000000000000000000000000000000000000000000000000081565b3480156103f257600080fd5b5061023b6104013660046140c4565b610f05565b34801561041257600080fd5b5061023b610f72565b34801561042757600080fd5b5061023b6104363660046140dd565b610f86565b34801561044757600080fd5b5061023b6104563660046140c4565b610ff0565b34801561046757600080fd5b5061047b6104763660046140c4565b611286565b60405161021f919061410b565b34801561049457600080fd5b506102f27f000000000000000000000000000000000000000000000000000000000000000081565b3480156104c857600080fd5b506000546001600160a01b03166102f2565b3480156104e657600080fd5b506102f27f000000000000000000000000000000000000000000000000000000000000000081565b34801561051a57600080fd5b5061027d6105293660046140c4565b611333565b34801561053a57600080fd5b506102f27f000000000000000000000000000000000000000000000000000000000000000081565b34801561056e57600080fd5b5061021361057d366004613f39565b60046020526000908152604090205460ff1681565b34801561059e57600080fd5b5061027d6105ad366004613f39565b507f000000000000000000000000000000000000000000000000000000000000000090565b3480156105de57600080fd5b5061027d6105ed3660046142b1565b611568565b3480156105fe57600080fd5b506102f27f000000000000000000000000000000000000000000000000000000000000000081565b34801561063257600080fd5b506102f27f000000000000000000000000000000000000000000000000000000000000000081565b34801561066657600080fd5b506003546102f2906001600160a01b031681565b34801561068657600080fd5b5061027d60025481565b34801561069c57600080fd5b506102136106ab366004614339565b507f00000000000000000000000000000000000000000000000000000000000000006001600160a01b0390811691161490565b3480156106ea57600080fd5b5061027d7f000000000000000000000000000000000000000000000000000000000000000081565b34801561071e57600080fd5b5061023b61072d366004613f39565b61161f565b34801561073e57600080fd5b506102f27f000000000000000000000000000000000000000000000000000000000000000081565b34801561077257600080fd5b5061027d610781366004614365565b61169d565b60006001600160e01b0319821663edb527eb60e01b14806107b757506001600160e01b031982166315933da760e11b145b806107d257506001600160e01b0319821663bc8926e960e01b145b806107ed57506001600160e01b0319821663fe663f0f60e01b145b8061080857506001600160e01b0319821663ad007d6360e01b145b806108175750610817826116bd565b92915050565b604051636e49181f60e01b81526004810188905230602482015287907f00000000000000000000000000000000000000000000000000000000000000006001600160a01b031690636e49181f90604401602060405180830381865afa15801561088a573d6000803e3d6000fd5b505050506040513d601f19601f820116820180604052508101906108ae919061441d565b6108cb57604051631b1d5a5960e31b815260040160405180910390fd5b7f00000000000000000000000000000000000000000000000000000000000000006001600160a01b031661eeee1461093a57341561091c57604051635e7e9adf60e11b815260040160405180910390fd5b4761092833308a61170d565b6109328147614450565b97505061093e565b3496505b33600090815260046020908152604091829020548251601f88018390048302810183019093528683526109c9928b928b9260ff161591908a908a908190840183828082843760009201919091525050604080516020601f8c018190048102820181019092528a815292508a915089908190840183828082843760009201919091525061171c92505050565b5050505050505050565b604051636e49181f60e01b8152600481018b90523060248201526000908b906001600160a01b037f00000000000000000000000000000000000000000000000000000000000000001690636e49181f90604401602060405180830381865afa158015610a43573d6000803e3d6000fd5b505050506040513d601f19601f82011682018060405250810190610a67919061441d565b610a8457604051631b1d5a5960e31b815260040160405180910390fd5b7f00000000000000000000000000000000000000000000000000000000000000006001600160a01b031661eeee14610af3573415610ad557604051635e7e9adf60e11b815260040160405180910390fd5b47610ae133308e61170d565b610aeb8147614450565b9b5050610af7565b349a505b610b818b338e8c8c8c8c8c8080601f016020809104026020016040519081016040528093929190818152602001838380828437600081840152601f19601f820116905080830192505050505050508b8b8080601f01602080910402602001604051908101604052809392919081815260200183838082843760009201919091525061180e92505050565b9c9b505050505050505050505050565b6000610ba1888888878787611d76565b98975050505050505050565b6040516331a9108f60e11b8152600481018390526000907f00000000000000000000000000000000000000000000000000000000000000006001600160a01b031690636352211e90602401602060405180830381865afa158015610c15573d6000803e3d6000fd5b505050506040513d601f19601f82011682018060405250810190610c399190614463565b836004610c47838383611fde565b60405163df21a7dd60e01b81526001600160a01b037f0000000000000000000000000000000000000000000000000000000000000000811660048301526024820188905286169063df21a7dd90604401602060405180830381865afa158015610cb4573d6000803e3d6000fd5b505050506040513d601f19601f82011682018060405250810190610cd8919061441d565b610cf55760405163581010ed60e01b815260040160405180910390fd5b604051636bb6a5ad60e01b8152600481018790527f00000000000000000000000000000000000000000000000000000000000000006001600160a01b031690636bb6a5ad906024016020604051808303816000875af1158015610d5c573d6000803e3d6000fd5b505050506040513d601f19601f82011682018060405250810190610d809190614480565b93508315610e5b5760007f00000000000000000000000000000000000000000000000000000000000000006001600160a01b031661eeee14610dc3576000610dc5565b845b6040805160208101825260008152905163019f1d0b60e31b81529192506001600160a01b03881691630cf8e858918491610e27918c918b917f0000000000000000000000000000000000000000000000000000000000000000916004016144e9565b6000604051808303818588803b158015610e4057600080fd5b505af1158015610e54573d6000803e3d6000fd5b5050505050505b604080518581523360208201526001600160a01b0387169188917fa7519e5f94697b7f53e97c5eb46a0c730a296ab686ab8fd333835c5f735784eb910160405180910390a350505092915050565b610eb1612142565b600380546001600160a01b0319166001600160a01b0383169081179091556040513381527f0a9a80fe9716605b3e52abb3d792d6a4e7816d6afc02a5a4ef023081feaf9f609060200160405180910390a250565b610f0d612142565b6302faf080811115610f32576040516345fbd9c160e01b815260040160405180910390fd5b6002819055604080518281523360208201527fd7414e590e1cb532989ab2a34c8f4c2c17f7ab6f006efeeaef2e87cd5008c202910160405180910390a150565b610f7a612142565b610f84600061219c565b565b610f8e612142565b6001600160a01b038216600081815260046020908152604091829020805460ff191685151590811790915591513381529192917fa2653e25a502c023a5830d0de847ef6f458387865b1f4f575d7594f9f2c0d71e910160405180910390a35050565b6040516331a9108f60e11b8152600481018290527f00000000000000000000000000000000000000000000000000000000000000006001600160a01b031690636352211e90602401602060405180830381865afa158015611055573d6000803e3d6000fd5b505050506040513d601f19601f820116820180604052508101906110799190614463565b81600561108e6000546001600160a01b031690565b6001600160a01b0316336001600160a01b0316146110ae848484846121ec565b600085815260016020908152604080832080548251818502810185019093528083529192909190849084015b8282101561114757600084815260209081902060408051608081018252600286029092018054835260019081015463ffffffff8082168587015264010000000082041692840192909252600160401b9091046001600160a01b0316606083015290835290920191016110da565b5050506000888152600160205260408120929350611166929150613d7c565b805160005b818110156109c95760006111e384838151811061118a5761118a61452e565b6020026020010151600001518584815181106111a8576111a861452e565b60200260200101516020015163ffffffff168685815181106111cc576111cc61452e565b60200260200101516040015163ffffffff16612360565b905061120c818584815181106111fb576111fb61452e565b6020026020010151606001516123a6565b60011515818a7fcf0c92a2c6d7c42f488326b0cb900104b99984b6b218db81cd29371364a352518786815181106112455761124561452e565b602002602001015160600151336040516112759291906001600160a01b0392831681529116602082015260400190565b60405180910390a45060010161116b565b606060016000838152602001908152602001600020805480602002602001604051908101604052809291908181526020016000905b8282101561132857600084815260209081902060408051608081018252600286029092018054835260019081015463ffffffff8082168587015264010000000082041692840192909252600160401b9091046001600160a01b0316606083015290835290920191016112bb565b505050509050919050565b60405163035240c760e61b81523060048201526024810182905260009081906001600160a01b037f0000000000000000000000000000000000000000000000000000000000000000169063d49031c090604401602060405180830381865afa1580156113a3573d6000803e3d6000fd5b505050506040513d601f19601f820116820180604052508101906113c79190614480565b905060007f00000000000000000000000000000000000000000000000000000000000000006012146114245761141f827f0000000000000000000000000000000000000000000000000000000000000000601261258e565b611426565b815b905060017f00000000000000000000000000000000000000000000000000000000000000001461155e576115598161147f7f0000000000000000000000000000000000000000000000000000000000000000600a614628565b604051635268657960e11b81527f00000000000000000000000000000000000000000000000000000000000000006004820152600160248201527f000000000000000000000000000000000000000000000000000000000000000060448201527f00000000000000000000000000000000000000000000000000000000000000006001600160a01b03169063a4d0caf290606401602060405180830381865afa158015611530573d6000803e3d6000fd5b505050506040513d601f19601f820116820180604052508101906115549190614480565b6125eb565b611560565b805b949350505050565b6040516331a9108f60e11b8152600481018890526000907f00000000000000000000000000000000000000000000000000000000000000006001600160a01b031690636352211e90602401602060405180830381865afa1580156115d0573d6000803e3d6000fd5b505050506040513d601f19601f820116820180604052508101906115f49190614463565b886011611602838383611fde565b6116108b8b8b8a8a8a6126b8565b9b9a5050505050505050505050565b611627612142565b6001600160a01b0381166116915760405162461bcd60e51b815260206004820152602660248201527f4f776e61626c653a206e6577206f776e657220697320746865207a65726f206160448201526564647265737360d01b60648201526084015b60405180910390fd5b61169a8161219c565b50565b6000888860026116ae838383611fde565b610b818c8c8c8b8b8b8b6128de565b60006001600160e01b0319821663301cdc3960e21b14806116ee57506001600160e01b0319821663144b000160e11b145b8061081757506301ffc9a760e01b6001600160e01b0319831614610817565b6117178282612e09565b505050565b60008361172a576000611734565b6117348686612f22565b90506001600160a01b037f00000000000000000000000000000000000000000000000000000000000000001663e7c8e3e3876117708489614634565b6040516001600160e01b031960e085901b16815260048101929092526024820152604401600060405180830381600087803b1580156117ae57600080fd5b505af11580156117c2573d6000803e3d6000fd5b50505050857f9ecaf7fc3dfffd6867c175d6e684b1f1e3aef019398ba8db2c1ffab4a09db25386838686336040516117fe959493929190614647565b60405180910390a2505050505050565b60006001600160a01b0386166118375760405163a762251360e01b815260040160405180910390fd5b61183f613d9d565b606060008060405180608001604052807f00000000000000000000000000000000000000000000000000000000000000006001600160a01b031681526020018e81526020017f000000000000000000000000000000000000000000000000000000000000000081526020017f000000000000000000000000000000000000000000000000000000000000000081525090507f00000000000000000000000000000000000000000000000000000000000000006001600160a01b0316632fa1b3918d838e7f00000000000000000000000000000000000000000000000000000000000000008f8d8d6040518863ffffffff1660e01b815260040161194897969594939291906146bf565b6000604051808303816000875af1158015611967573d6000803e3d6000fd5b505050506040513d6000823e601f3d908101601f1916820160405261198f9190810190614823565b995091955090935091508115611ac457604051632eec7b5560e11b8152600481018c90527f00000000000000000000000000000000000000000000000000000000000000006001600160a01b031690635dd8f6aa90602401602060405180830381865afa158015611a04573d6000803e3d6000fd5b505050506040513d601f19601f82011682018060405250810190611a289190614463565b604051638ae9c07b60e01b8152600481018d9052602481018490526001600160a01b038c8116604483015260c06064830152600060c48301528a15156084830152600160a48301529190911690638ae9c07b9060e4016020604051808303816000875af1158015611a9d573d6000803e3d6000fd5b505050506040513d601f19601f82011682018060405250810190611ac19190614480565b94505b88851015611ae557604051633dca309360e11b815260040160405180910390fd5b825115611d1857600060405180608001604052807f00000000000000000000000000000000000000000000000000000000000000006001600160a01b031681526020018f81526020017f000000000000000000000000000000000000000000000000000000000000000081526020017f0000000000000000000000000000000000000000000000000000000000000000815250905060006040518061014001604052808f6001600160a01b031681526020018e8152602001876020015181526020018481526020018381526020018881526020018d6001600160a01b031681526020018b151581526020018a815260200189815250905060008551905060005b81811015611d13576000878281518110611c0157611c0161452e565b60209081029190910101519050600061eeed197f00000000000000000000000000000000000000000000000000000000000000006001600160a01b031601611c4a575060208101515b602080830151608087015190910152815160405163da9ee8b760e01b81526001600160a01b039091169063da9ee8b7908390611c8a9089906004016149da565b6000604051808303818588803b158015611ca357600080fd5b505af1158015611cb7573d6000803e3d6000fd5b505050505081600001516001600160a01b03167f16112c26e14efc4be6c690149aa5a1ba75160de245f60d2273e28adb277b9e1286846020015133604051611d01939291906149ed565b60405180910390a25050600101611be5565b505050505b50505087816000015182602001517f133161f1c9161488f777ab9a26aae91d47c0d9a3fafb398960f138db02c737978c8b8f888b8b33604051611d619796959493929190614a20565b60405180910390a45098975050505050505050565b60405163c664459760e01b8152600481018790526024810186905260448101859052600090819081906001600160a01b037f0000000000000000000000000000000000000000000000000000000000000000169063c664459790606401610140604051808303816000875af1158015611df3573d6000803e3d6000fd5b505050506040513d601f19601f82011682018060405250810190611e179190614a80565b9150915085811015611e3c5760405163b01493c160e01b815260040160405180910390fd5b6040516331a9108f60e11b8152600481018a90526000907f00000000000000000000000000000000000000000000000000000000000000006001600160a01b031690636352211e90602401602060405180830381865afa158015611ea4573d6000803e3d6000fd5b505050506040513d601f19601f82011682018060405250810190611ec89190614463565b9050600080600254600014611ee557611ee08c6132f2565b611eeb565b633b9aca005b9050600080611f218e88602001517f0000000000000000000000000000000000000000000000000000000000000000898761345e565b92509050633b9aca008314611f3557908101905b81600003611f44576000611f51565b611f518e88848887613bee565b93508015611f7d57611f668160025485612360565b611f709082614450565b9750611f7d30868a61170d565b5050508a846000015185602001517f24352f49df447b14e0e08a323625c663d865ce20c343c4638af12e1dc48aa760858e88878c8f8f33604051611fc8989796959493929190614aaf565b60405180910390a4505050509695505050505050565b336001600160a01b03841614801590612087575060405163c161c93f60e01b81526001600160a01b037f0000000000000000000000000000000000000000000000000000000000000000169063c161c93f90612044903390879087908790600401614b12565b602060405180830381865afa158015612061573d6000803e3d6000fd5b505050506040513d601f19601f82011682018060405250810190612085919061441d565b155b8015612124575060405163c161c93f60e01b81526001600160a01b037f0000000000000000000000000000000000000000000000000000000000000000169063c161c93f906120e190339087906000908790600401614b12565b602060405180830381865afa1580156120fe573d6000803e3d6000fd5b505050506040513d601f19601f82011682018060405250810190612122919061441d565b155b156117175760405163075fd2b160e01b815260040160405180910390fd5b6000546001600160a01b03163314610f845760405162461bcd60e51b815260206004820181905260248201527f4f776e61626c653a2063616c6c6572206973206e6f7420746865206f776e65726044820152606401611688565b600080546001600160a01b038381166001600160a01b0319831681178455604051919092169283917f8be0079c531659141344cd1fd0a4f28419497f9722a3daafe3b4186f6b6457e09190a35050565b801580156122035750336001600160a01b03851614155b801561229f575060405163c161c93f60e01b81526001600160a01b037f0000000000000000000000000000000000000000000000000000000000000000169063c161c93f9061225c903390889088908890600401614b12565b602060405180830381865afa158015612279573d6000803e3d6000fd5b505050506040513d601f19601f8201168201806040525081019061229d919061441d565b155b801561233c575060405163c161c93f60e01b81526001600160a01b037f0000000000000000000000000000000000000000000000000000000000000000169063c161c93f906122f990339088906000908890600401614b12565b602060405180830381865afa158015612316573d6000803e3d6000fd5b505050506040513d601f19601f8201168201806040525081019061233a919061441d565b155b1561235a5760405163075fd2b160e01b815260040160405180910390fd5b50505050565b6000806123728484633b9aca006125eb565b61237c9085614450565b905061239185633b9aca006115548185614634565b61239b9086614450565b9150505b9392505050565b604051630862026560e41b8152600160048201526001600160a01b037f0000000000000000000000000000000000000000000000000000000000000000811660248301526000917f000000000000000000000000000000000000000000000000000000000000000090911690638620265090604401602060405180830381865afa158015612438573d6000803e3d6000fd5b505050506040513d601f19601f8201168201806040525081019061245c9190614463565b9050306001600160a01b0382160361249e5761235a8330600185600080604051806020016040528060008152506040518060200160405280600081525061180e565b60007f00000000000000000000000000000000000000000000000000000000000000006001600160a01b031661eeee146124d95760006124db565b835b6040805160208101825260008082529151631ebc263f60e01b81529293506001600160a01b03851692631ebc263f928592612544926001928b927f0000000000000000000000000000000000000000000000000000000000000000928c92918291600401614b3b565b60206040518083038185885af1158015612562573d6000803e3d6000fd5b50505050506040513d601f19601f820116820180604052508101906125879190614480565b5050505050565b600082820361259e57508261239f565b828211156125cc576125b08383614450565b6125bb90600a614628565b6125c59085614b93565b905061239f565b6125d68284614450565b6125e190600a614628565b6125c59085614bc0565b60008080600019858709858702925082811083820303915050806000036126255783828161261b5761261b614baa565b049250505061239f565b83811061264f57604051631dcf306360e21b81526004810182905260248101859052604401611688565b60008486880960026001871981018816978890046003810283188082028403028082028403028082028403028082028403028082028403029081029092039091026000889003889004909101858311909403939093029303949094049190911702949350505050565b604051632538671560e01b8152600481018790526024810186905260448101859052600090819081906001600160a01b037f00000000000000000000000000000000000000000000000000000000000000001690632538671590606401610140604051808303816000875af1158015612735573d6000803e3d6000fd5b505050506040513d601f19601f820116820180604052508101906127599190614a80565b915091508581101561277e5760405163b01493c160e01b815260040160405180910390fd5b6040516331a9108f60e11b8152600481018a905260009081906001600160a01b037f00000000000000000000000000000000000000000000000000000000000000001690636352211e90602401602060405180830381865afa1580156127e8573d6000803e3d6000fd5b505050506040513d601f19601f8201168201806040525081019061280c9190614463565b905060006002546000148061283057503360009081526004602052604090205460ff165b6128425761283d8c6132f2565b612848565b633b9aca005b9050633b9aca008114612867576128628c86868585613bee565b61286a565b60005b808503965092508383146128835761288330898861170d565b50505088826000015183602001517f8657a0c05a68a912c23c1bd00124afaa8c669063b046bd9bfd22b21d573c5e6d888c86898b336040516128ca96959493929190614be2565b60405180910390a450509695505050505050565b60006001600160a01b03841661290757604051637ba50db360e11b815260040160405180910390fd5b61290f613d9d565b60405163a2df1f9560e01b81526060906001600160a01b037f0000000000000000000000000000000000000000000000000000000000000000169063a2df1f9590612966908d908d908d908b908b90600401614c2c565b6000604051808303816000875af1158015612985573d6000803e3d6000fd5b505050506040513d6000823e601f3d908101601f191682016040526129ad9190810190614c6b565b97509094509092509050868310156129d85760405163f896960b60e01b815260040160405180910390fd5b8715612ae857604051632eec7b5560e11b8152600481018a90527f00000000000000000000000000000000000000000000000000000000000000006001600160a01b031690635dd8f6aa90602401602060405180830381865afa158015612a43573d6000803e3d6000fd5b505050506040513d601f19601f82011682018060405250810190612a679190614463565b604051631665bc0f60e01b81526001600160a01b038c81166004830152602482018c9052604482018b905260a06064830152600060a4830181905260848301529190911690631665bc0f9060c401600060405180830381600087803b158015612acf57600080fd5b505af1158015612ae3573d6000803e3d6000fd5b505050505b805115612d9d57600060405180608001604052807f00000000000000000000000000000000000000000000000000000000000000006001600160a01b03168152602001600081526020017f000000000000000000000000000000000000000000000000000000000000000081526020017f0000000000000000000000000000000000000000000000000000000000000000815250905060006040518061012001604052808d6001600160a01b031681526020018c8152602001856020015181526020018b815260200160405180608001604052807f00000000000000000000000000000000000000000000000000000000000000006001600160a01b031681526020018881526020017f000000000000000000000000000000000000000000000000000000000000000081526020017f00000000000000000000000000000000000000000000000000000000000000008152508152602001838152602001896001600160a01b0316815260200188815260200187815250905060008351905060005b81811015612d98576000858281518110612c8657612c8661452e565b60209081029190910101519050600061eeed197f00000000000000000000000000000000000000000000000000000000000000006001600160a01b031601612ccf575060208101515b60208083015160a0870151909101528151604051632b13c58f60e01b81526001600160a01b0390911690632b13c58f908390612d0f908990600401614de2565b6000604051808303818588803b158015612d2857600080fd5b505af1158015612d3c573d6000803e3d6000fd5b505050505081600001516001600160a01b03167f54b3744c489f40987dd2726ca12131243334e8292f567389f761c5a432d813e486846020015133604051612d8693929190614df5565b60405180910390a25050600101612c6a565b505050505b508115612daf57612daf30868461170d565b87816000015182602001517f2be10f2a0203c77d0fcaa9fd6484a8a1d6904de31cd820587f60c1c8c338c8148c898c888b8b33604051612df59796959493929190614a20565b60405180910390a450979650505050505050565b80471015612e595760405162461bcd60e51b815260206004820152601d60248201527f416464726573733a20696e73756666696369656e742062616c616e63650000006044820152606401611688565b6000826001600160a01b03168260405160006040518083038185875af1925050503d8060008114612ea6576040519150601f19603f3d011682016040523d82523d6000602084013e612eab565b606091505b50509050806117175760405162461bcd60e51b815260206004820152603a60248201527f416464726573733a20756e61626c6520746f2073656e642076616c75652c207260448201527f6563697069656e74206d617920686176652072657665727465640000000000006064820152608401611688565b600082815260016020908152604080832080548251818502810185019093528083528493849084015b82821015612fb857600084815260209081902060408051608081018252600286029092018054835260019081015463ffffffff8082168587015264010000000082041692840192909252600160401b9091046001600160a01b031660608301529083529092019101612f4b565b5050506000868152600160205260408120929350612fd7929150613d7c565b8051839060005b818110156132aa578260000361309d57600087815260016020526040902084518590839081106130105761301061452e565b60209081029190910181015182546001818101855560009485529383902082516002909202019081559181015191909201805460408401516060909401516001600160a01b0316600160401b02600160401b600160e01b031963ffffffff9586166401000000000267ffffffffffffffff19909316959094169490941717919091169190911790556132a2565b8381815181106130af576130af61452e565b6020026020010151600001518310613143578381815181106130d3576130d361452e565b6020026020010151600001518303925061313a8482815181106130f8576130f861452e565b6020026020010151600001518583815181106131165761311661452e565b60200260200101516020015163ffffffff168684815181106111cc576111cc61452e565b850194506132a2565b600160008881526020019081526020016000206040518060800160405280858785815181106131745761317461452e565b6020026020010151600001510381526020018684815181106131985761319861452e565b60200260200101516020015163ffffffff1681526020018684815181106131c1576131c161452e565b60200260200101516040015163ffffffff1681526020018684815181106131ea576131ea61452e565b6020908102919091018101516060908101516001600160a01b0390811690935284546001818101875560009687529583902085516002909202019081559184015191909401805460408501519490950151909216600160401b02600160401b600160e01b031963ffffffff9485166401000000000267ffffffffffffffff199096169490921693909317939093179290921617905583516132999084908690849081106131165761311661452e565b85019450600092505b600101612fde565b50604080518381523360208201528591879189917f59860d79d97c1fce2be7f987915c631471f4b08f671200463cc40a3380194ffb910160405180910390a450505092915050565b604051630862026560e41b8152600160048201526001600160a01b037f00000000000000000000000000000000000000000000000000000000000000008116602483015260009182917f00000000000000000000000000000000000000000000000000000000000000001690638620265090604401602060405180830381865afa158015613384573d6000803e3d6000fd5b505050506040513d601f19601f820116820180604052508101906133a89190614463565b6001600160a01b0316036133c15750633b9aca00919050565b6003546001600160a01b03161561345657600354604051633bb4ac4b60e11b8152600481018490526001600160a01b0390911690637769589690602401602060405180830381865afa925050508015613437575060408051601f3d908101601f1916820190925261343491810190614480565b60015b61344357506000919050565b633b9aca0081116134545792915050565b505b506000919050565b6040516369e11cc560e01b81526004810186905260248101859052604481018490528290600090633b9aca009082907f00000000000000000000000000000000000000000000000000000000000000006001600160a01b0316906369e11cc590606401600060405180830381865afa1580156134de573d6000803e3d6000fd5b505050506040513d6000823e601f3d908101601f191682016040526135069190810190614e08565b905060005b8151811015613be15760008282815181106135285761352861452e565b6020026020010151905060008482604001511461355757613552898360400151633b9aca006125eb565b613559565b865b905081604001518561356b9190614450565b945060008115613b955760c08301516001600160a01b03161561370657633b9aca008914806135b6575060c08301516001600160a01b031660009081526004602052604090205460ff165b156135c25750806135e0565b6135cf826002548b612360565b820390506135dd8288614634565b96505b60006040518060c001604052807f00000000000000000000000000000000000000000000000000000000000000006001600160a01b031681526020018381526020017f000000000000000000000000000000000000000000000000000000000000000081526020018f81526020018d81526020018581525090508360c001516001600160a01b0316639d740bfa61eeee6001600160a01b03167f00000000000000000000000000000000000000000000000000000000000000006001600160a01b0316146136af5760006136b1565b835b836040518363ffffffff1660e01b81526004016136ce9190614f65565b6000604051808303818588803b1580156136e757600080fd5b505af11580156136fb573d6000803e3d6000fd5b505050505050613b8f565b606083015115613b2e576060830151604051630862026560e41b81526000916001600160a01b037f00000000000000000000000000000000000000000000000000000000000000001691638620265091613796917f0000000000000000000000000000000000000000000000000000000000000000906004019182526001600160a01b0316602082015260400190565b602060405180830381865afa1580156137b3573d6000803e3d6000fd5b505050506040513d601f19601f820116820180604052508101906137d79190614463565b90506001600160a01b03811661380057604051636921234360e01b815260040160405180910390fd5b306001600160a01b038216036138e1576040805160208082528183019092528493506000916020820181803683370190505090508e60405160200161384791815260200190565b6040516020818303038152906040529050846020015115613888576138838560600151846000604051806020016040528060008152508561171c565b6138db565b6138d98330876060015160006001600160a01b031689608001516001600160a01b0316036138b657336138bc565b88608001515b60008a60000151604051806020016040528060008152508861180e565b505b50613b28565b633b9aca008a148061390b57506001600160a01b03811660009081526004602052604090205460ff165b1561391857829150613936565b613925836002548c612360565b830391506139338389614634565b97505b60007f00000000000000000000000000000000000000000000000000000000000000006001600160a01b031661eeee14613971576000613973565b825b604080516020808252818301909252919250600091906020820181803683370190505090508f6040516020016139ab91815260200190565b6040516020818303038152906040529050856020015115613a5457606086015160405163019f1d0b60e31b81526001600160a01b03851691630cf8e858918591613a1d9189907f00000000000000000000000000000000000000000000000000000000000000009088906004016144e9565b6000604051808303818588803b158015613a3657600080fd5b505af1158015613a4a573d6000803e3d6000fd5b5050505050613b25565b826001600160a01b0316631ebc263f838860600151877f000000000000000000000000000000000000000000000000000000000000000060006001600160a01b03168c608001516001600160a01b031603613aaf5733613ab5565b8b608001515b8c516040516001600160e01b031960e089901b168152613ae095949392916000918b90600401614b3b565b60206040518083038185885af1158015613afe573d6000803e3d6000fd5b50505050506040513d601f19601f82011682018060405250810190613b239190614480565b505b50505b50613b8f565b60808301516000906001600160a01b0316613b495733613b4f565b83608001515b9050633b9aca008a03613b6457829150613b82565b613b71836002548c612360565b83039150613b7f8389614634565b97505b613b8d30828461170d565b505b81880397505b8a8c8e7f2a1f2df21da49f011c6165709ae4b279f8d6d7cffe9043c582352882d8c9698b868533604051613bcb93929190614fb9565b60405180910390a483600101935050505061350b565b5050509550959350505050565b6000613bfd8460025484612360565b610100860151909150604f1c600190811603613d2057600086815260016020818152604080842081516080810183528981526002805463ffffffff9081168387019081528a82168487019081526001600160a01b03808e16606087019081528754808c018955978c5298909a2094519584029094019485555193909601805492519551909716600160401b02600160401b600160e01b03199587166401000000000267ffffffffffffffff19909316939096169290921717929092169290921790925590549051859088907f77813be0661650ddc1a5193ff2837df4162b251cb432651e2c060c3fc39756be90613d13908790899033909283526001600160a01b03918216602084015216604082015260600190565b60405180910390a4613d73565b613d2a81846123a6565b604080516001600160a01b0385168152336020820152600091839189917fcf0c92a2c6d7c42f488326b0cb900104b99984b6b218db81cd29371364a35251910160405180910390a45b95945050505050565b508054600082556002029060005260206000209081019061169a9190613df2565b6040518061012001604052806000815260200160008152602001600081526020016000815260200160008152602001600081526020016000815260200160006001600160a01b03168152602001600081525090565b5b80821115613e1957600081556001810180546001600160e01b0319169055600201613df3565b5090565b600060208284031215613e2f57600080fd5b81356001600160e01b03198116811461239f57600080fd5b6001600160a01b038116811461169a57600080fd5b60008083601f840112613e6e57600080fd5b5081356001600160401b03811115613e8557600080fd5b602083019150836020828501011115613e9d57600080fd5b9250929050565b600080600080600080600060a0888a031215613ebf57600080fd5b87359650602088013595506040880135613ed881613e47565b945060608801356001600160401b0380821115613ef457600080fd5b613f008b838c01613e5c565b909650945060808a0135915080821115613f1957600080fd5b50613f268a828b01613e5c565b989b979a50959850939692959293505050565b600060208284031215613f4b57600080fd5b813561239f81613e47565b801515811461169a57600080fd5b6000806000806000806000806000806101008b8d031215613f8457600080fd5b8a35995060208b0135985060408b0135613f9d81613e47565b975060608b0135613fad81613e47565b965060808b0135955060a08b0135613fc481613f56565b945060c08b01356001600160401b0380821115613fe057600080fd5b613fec8e838f01613e5c565b909650945060e08d013591508082111561400557600080fd5b506140128d828e01613e5c565b915080935050809150509295989b9194979a5092959850565b600080600080600080600060c0888a03121561404657600080fd5b873596506020880135955060408801359450606088013561406681613e47565b93506080880135925060a08801356001600160401b0381111561408857600080fd5b613f268a828b01613e5c565b600080604083850312156140a757600080fd5b8235915060208301356140b981613e47565b809150509250929050565b6000602082840312156140d657600080fd5b5035919050565b600080604083850312156140f057600080fd5b82356140fb81613e47565b915060208301356140b981613f56565b602080825282518282018190526000919060409081850190868401855b82811015614174578151805185528681015163ffffffff908116888701528682015116868601526060908101516001600160a01b03169085015260809093019290850190600101614128565b5091979650505050505050565b634e487b7160e01b600052604160045260246000fd5b60405161012081016001600160401b03811182821017156141ba576141ba614181565b60405290565b604080519081016001600160401b03811182821017156141ba576141ba614181565b60405160e081016001600160401b03811182821017156141ba576141ba614181565b604051601f8201601f191681016001600160401b038111828210171561422c5761422c614181565b604052919050565b60006001600160401b0382111561424d5761424d614181565b50601f01601f191660200190565b600082601f83011261426c57600080fd5b813561427f61427a82614234565b614204565b81815284602083860101111561429457600080fd5b816020850160208301376000918101602001919091529392505050565b600080600080600080600060e0888a0312156142cc57600080fd5b87359650602088013595506040880135945060608801356142ec81613e47565b93506080880135925060a088013561430381613e47565b915060c08801356001600160401b0381111561431e57600080fd5b61432a8a828b0161425b565b91505092959891949750929550565b6000806040838503121561434c57600080fd5b823561435781613e47565b946020939093013593505050565b600080600080600080600080610100898b03121561438257600080fd5b883561438d81613e47565b9750602089013596506040890135955060608901356143ab81613e47565b94506080890135935060a08901356143c281613e47565b925060c08901356001600160401b03808211156143de57600080fd5b6143ea8c838d0161425b565b935060e08b013591508082111561440057600080fd5b5061440d8b828c0161425b565b9150509295985092959890939650565b60006020828403121561442f57600080fd5b815161239f81613f56565b634e487b7160e01b600052601160045260246000fd5b818103818111156108175761081761443a565b60006020828403121561447557600080fd5b815161239f81613e47565b60006020828403121561449257600080fd5b5051919050565b60005b838110156144b457818101518382015260200161449c565b50506000910152565b600081518084526144d5816020860160208601614499565b601f01601f19169290920160200192915050565b84815283602082015260018060a01b038316604082015260a06060820152600060a082015260c06080820152600061452460c08301846144bd565b9695505050505050565b634e487b7160e01b600052603260045260246000fd5b600181815b8085111561457f5781600019048211156145655761456561443a565b8085161561457257918102915b93841c9390800290614549565b509250929050565b60008261459657506001610817565b816145a357506000610817565b81600181146145b957600281146145c3576145df565b6001915050610817565b60ff8411156145d4576145d461443a565b50506001821b610817565b5060208310610133831016604e8410600b8410161715614602575081810a610817565b61460c8383614544565b80600019048211156146205761462061443a565b029392505050565b600061239f8383614587565b808201808211156108175761081761443a565b85815284602082015260a06040820152600061466660a08301866144bd565b828103606084015261467881866144bd565b91505060018060a01b03831660808301529695505050505050565b80516001600160a01b031682526020808201519083015260408082015190830152606090810151910152565b6001600160a01b038881168252600090610140906146e0602085018b614693565b8860a08501528760c085015280871660e08501525080610100840152614708818401866144bd565b905082810361012084015261471d81856144bd565b9a9950505050505050505050565b805161473681613e47565b919050565b6000610120828403121561474e57600080fd5b614756614197565b9050815181526020820151602082015260408201516040820152606082015160608201526080820151608082015260a082015160a082015260c082015160c08201526147a460e0830161472b565b60e082015261010080830151818301525092915050565b60006001600160401b038211156147d4576147d4614181565b5060051b60200190565b600082601f8301126147ef57600080fd5b81516147fd61427a82614234565b81815284602083860101111561481257600080fd5b611560826020830160208701614499565b600080600080610180858703121561483a57600080fd5b614844868661473b565b935061012085015192506101408501516001600160401b038082111561486957600080fd5b818701915087601f83011261487d57600080fd5b8151602061488d61427a836147bb565b82815260069290921b8401810191818101908b8411156148ac57600080fd5b948201945b838610156148f8576040868d0312156148ca5760008081fd5b6148d26141c0565b86516148dd81613e47565b815286840151848201528252604090950194908201906148b1565b6101608b015190975094505050508082111561491357600080fd5b50614920878288016147de565b91505092959194509250565b80516001600160a01b031682526000610200602083015160208501526040830151604085015260608301516149646060860182614693565b50608083015161497760e0860182614693565b5060a083015161016085015260c08301516001600160a01b031661018085015260e083015115156101a08501526101008301516101c085018290526149be828601826144bd565b9150506101208301518482036101e0860152613d7382826144bd565b60208152600061239f602083018461492c565b606081526000614a00606083018661492c565b6020830194909452506001600160a01b0391909116604090910152919050565b600060018060a01b03808a168352808916602084015287604084015286606084015260e06080840152614a5660e08401876144bd565b83810360a0850152614a6881876144bd565b92505080841660c08401525098975050505050505050565b6000806101408385031215614a9457600080fd5b614a9e848461473b565b915061012083015190509250929050565b600060018060a01b03808b16835289602084015288604084015287606084015286608084015260e060a08401528460e08401526101008587828601376000848701820152931660c083015250601f909201601f1916909101019695505050505050565b6001600160a01b0394851681529290931660208301526040820152606081019190915260800190565b878152602081018790526001600160a01b038681166040830152851660608201526080810184905282151560a082015261010060c08201819052600090820181905261012060e0830181905261471d818401856144bd565b80820281158282048414176108175761081761443a565b634e487b7160e01b600052601260045260246000fd5b600082614bdd57634e487b7160e01b600052601260045260246000fd5b500490565b600060018060a01b03808916835287602084015286604084015285606084015260c06080840152614c1660c08401866144bd565b915080841660a084015250979650505050505050565b60018060a01b038616815284602082015283604082015260a060608201526000614c5960a08301856144bd565b8281036080840152610ba181856144bd565b6000806000806101808587031215614c8257600080fd5b614c8c868661473b565b935061012085015192506101408501516001600160401b0380821115614cb157600080fd5b818701915087601f830112614cc557600080fd5b81516020614cd561427a836147bb565b82815260069290921b8401810191818101908b841115614cf457600080fd5b948201945b838610156148f8576040868d031215614d125760008081fd5b614d1a6141c0565b8651614d2581613e47565b81528684015184820152825260409095019490820190614cf9565b80516001600160a01b0316825260006101e06020830151602085015260408301516040850152606083015160608501526080830151614d826080860182614693565b5060a0830151610100614d9781870183614693565b60c08501516001600160a01b031661018087015260e08501516101a087018490529150614dc6838701836144bd565b9250808501519150508482036101c0860152613d7382826144bd565b60208152600061239f6020830184614d40565b606081526000614a006060830186614d40565b60006020808385031215614e1b57600080fd5b82516001600160401b03811115614e3157600080fd5b8301601f81018513614e4257600080fd5b8051614e5061427a826147bb565b81815260e09182028301840191848201919088841115614e6f57600080fd5b938501935b83851015614f055780858a031215614e8c5760008081fd5b614e946141e2565b8551614e9f81613f56565b815285870151614eae81613f56565b818801526040868101519082015260608087015190820152608080870151614ed581613e47565b9082015260a0868101519082015260c080870151614ef281613e47565b9082015283529384019391850191614e74565b50979650505050505050565b80511515825260208082015115159083015260408082015190830152606080820151908301526080808201516001600160a01b039081169184019190915260a0808301519084015260c09182015116910152565b81516001600160a01b031681526020808301519082015260408083015190820152606080830151908201526080808301519082015260a082810151610180830191614fb290840182614f11565b5092915050565b6101208101614fc88286614f11565b60e08201939093526001600160a01b03919091166101009091015291905056fea26469706673582212207937340b7a9173fd3d5f716439082aec4a764681614885a8e4cb7d0b0b9fe8b564736f6c63430008110033",
    "linkReferences": {}
  },
  "methodIdentifiers": {
    "acceptsToken(address,uint256)": "df21a7dd",
    "addToBalanceOf(uint256,uint256,address,string,bytes)": "0cf8e858",
    "baseWeightCurrency()": "2d1a5903",
    "currency()": "e5a6b10f",
    "currencyForToken(address)": "1982d679",
    "currentEthOverflowOf(uint256)": "a32e1e96",
    "decimals()": "313ce567",
    "decimalsForToken(address)": "b7bad1b1",
    "directory()": "c41c2f24",
    "distributePayoutsOf(uint256,uint256,uint256,address,uint256,string)": "2b267b4e",
    "fee()": "ddca3f43",
    "feeGauge()": "d6dacc53",
    "heldFeesOf(uint256)": "8af56094",
    "isFeelessAddress(address)": "b631b500",
    "migrate(uint256,address)": "405b84fa",
    "operatorStore()": "ad007d63",
    "owner()": "8da5cb5b",
    "pay(uint256,uint256,address,address,uint256,bool,string,bytes)": "1ebc263f",
    "payoutSplitsGroup()": "66248b86",
    "prices()": "d3419bf3",
    "processFees(uint256)": "89701db5",
    "projects()": "8b79543c",
    "redeemTokensOf(address,uint256,uint256,address,uint256,address,string,bytes)": "fe663f0f",
    "renounceOwnership()": "715018a6",
    "setFee(uint256)": "69fe0e2d",
    "setFeeGauge(address)": "637913ac",
    "setFeelessAddress(address,bool)": "7258002c",
    "splitsStore()": "2bdfe004",
    "store()": "975057e7",
    "supportsInterface(bytes4)": "01ffc9a7",
    "token()": "fc0c546a",
    "transferOwnership(address)": "f2fde38b",
    "useAllowanceOf(uint256,uint256,uint256,address,uint256,address,string)": "bc8926e9"
  },
  "id": 64
}