{
  "abi": [
    {
      "inputs": [
        {
          "internalType": "uint256",
          "name": "_projectId",
          "type": "uint256"
        },
        {
          "internalType": "contract IJBDirectory",
          "name": "_directory",
          "type": "address"
        },
        {
          "internalType": "string",
          "name": "_name",
          "type": "string"
        },
        {
          "internalType": "string",
          "name": "_symbol",
          "type": "string"
        },
        {
          "internalType": "contract IJBTokenUriResolver",
          "name": "_tokenUriResolver",
          "type": "address"
        },
        {
          "internalType": "string",
          "name": "_contractUri",
          "type": "string"
        },
        {
          "internalType": "address",
          "name": "_owner",
          "type": "address"
        },
        {
          "internalType": "address",
          "name": "_contributionToken",
          "type": "address"
        },
        {
          "components": [
            {
              "internalType": "uint128",
              "name": "contributionFloor",
              "type": "uint128"
            },
            {
              "internalType": "uint48",
              "name": "remainingQuantity",
              "type": "uint48"
            },
            {
              "internalType": "uint48",
              "name": "initialQuantity",
              "type": "uint48"
            },
            {
              "internalType": "uint16",
              "name": "votingUnits",
              "type": "uint16"
            },
            {
              "internalType": "uint16",
              "name": "reservedRate",
              "type": "uint16"
            },
            {
              "internalType": "string",
              "name": "tokenUri",
              "type": "string"
            }
          ],
          "internalType": "struct JBNFTRewardTier[]",
          "name": "_tiers",
          "type": "tuple[]"
        },
        {
          "internalType": "bool",
          "name": "_shouldMintByDefault",
          "type": "bool"
        }
      ],
      "stateMutability": "nonpayable",
      "type": "constructor"
    },
    {
      "inputs": [],
      "name": "INSUFFICIENT_AMOUNT",
      "type": "error"
    },
    {
      "inputs": [],
      "name": "INSUFFICIENT_RESERVES",
      "type": "error"
    },
    {
      "inputs": [],
      "name": "INVALID_PAYMENT_EVENT",
      "type": "error"
    },
    {
      "inputs": [],
      "name": "INVALID_PRICE_SORT_ORDER",
      "type": "error"
    },
    {
      "inputs": [],
      "name": "INVALID_TIER",
      "type": "error"
    },
    {
      "inputs": [],
      "name": "NOT_AVAILABLE",
      "type": "error"
    },
    {
      "inputs": [],
      "name": "NO_QUANTITY",
      "type": "error"
    },
    {
      "inputs": [],
      "name": "OUT",
      "type": "error"
    },
    {
      "anonymous": false,
      "inputs": [
        {
          "indexed": true,
          "internalType": "address",
          "name": "owner",
          "type": "address"
        },
        {
          "indexed": true,
          "internalType": "address",
          "name": "approved",
          "type": "address"
        },
        {
          "indexed": true,
          "internalType": "uint256",
          "name": "tokenId",
          "type": "uint256"
        }
      ],
      "name": "Approval",
      "type": "event"
    },
    {
      "anonymous": false,
      "inputs": [
        {
          "indexed": true,
          "internalType": "address",
          "name": "owner",
          "type": "address"
        },
        {
          "indexed": true,
          "internalType": "address",
          "name": "operator",
          "type": "address"
        },
        {
          "indexed": false,
          "internalType": "bool",
          "name": "approved",
          "type": "bool"
        }
      ],
      "name": "ApprovalForAll",
      "type": "event"
    },
    {
      "anonymous": false,
      "inputs": [
        {
          "indexed": true,
          "internalType": "address",
          "name": "delegator",
          "type": "address"
        },
        {
          "indexed": true,
          "internalType": "address",
          "name": "fromDelegate",
          "type": "address"
        },
        {
          "indexed": true,
          "internalType": "address",
          "name": "toDelegate",
          "type": "address"
        }
      ],
      "name": "DelegateChanged",
      "type": "event"
    },
    {
      "anonymous": false,
      "inputs": [
        {
          "indexed": true,
          "internalType": "address",
          "name": "delegate",
          "type": "address"
        },
        {
          "indexed": false,
          "internalType": "uint256",
          "name": "previousBalance",
          "type": "uint256"
        },
        {
          "indexed": false,
          "internalType": "uint256",
          "name": "newBalance",
          "type": "uint256"
        }
      ],
      "name": "DelegateVotesChanged",
      "type": "event"
    },
    {
      "anonymous": false,
      "inputs": [
        {
          "indexed": true,
          "internalType": "uint256",
          "name": "tokenId",
          "type": "uint256"
        },
        {
          "indexed": true,
          "internalType": "uint256",
          "name": "tierId",
          "type": "uint256"
        },
        {
          "indexed": true,
          "internalType": "address",
          "name": "beneficiary",
          "type": "address"
        },
        {
          "indexed": false,
          "internalType": "uint256",
          "name": "totalAmountContributed",
          "type": "uint256"
        },
        {
          "indexed": false,
          "internalType": "uint256",
          "name": "numRewards",
          "type": "uint256"
        },
        {
          "indexed": false,
          "internalType": "address",
          "name": "caller",
          "type": "address"
        }
      ],
      "name": "Mint",
      "type": "event"
    },
    {
      "anonymous": false,
      "inputs": [
        {
          "indexed": true,
          "internalType": "uint256",
          "name": "tokenId",
          "type": "uint256"
        },
        {
          "indexed": true,
          "internalType": "uint256",
          "name": "tierId",
          "type": "uint256"
        },
        {
          "indexed": true,
          "internalType": "address",
          "name": "beneficiary",
          "type": "address"
        },
        {
          "indexed": false,
          "internalType": "address",
          "name": "caller",
          "type": "address"
        }
      ],
      "name": "MintReservedToken",
      "type": "event"
    },
    {
      "anonymous": false,
      "inputs": [
        {
          "indexed": true,
          "internalType": "address",
          "name": "previousOwner",
          "type": "address"
        },
        {
          "indexed": true,
          "internalType": "address",
          "name": "newOwner",
          "type": "address"
        }
      ],
      "name": "OwnershipTransferred",
      "type": "event"
    },
    {
      "anonymous": false,
      "inputs": [
        {
          "indexed": true,
          "internalType": "string",
          "name": "baseUri",
          "type": "string"
        },
        {
          "indexed": false,
          "internalType": "address",
          "name": "caller",
          "type": "address"
        }
      ],
      "name": "SetBaseUri",
      "type": "event"
    },
    {
      "anonymous": false,
      "inputs": [
        {
          "indexed": true,
          "internalType": "string",
          "name": "contractUri",
          "type": "string"
        },
        {
          "indexed": false,
          "internalType": "address",
          "name": "caller",
          "type": "address"
        }
      ],
      "name": "SetContractUri",
      "type": "event"
    },
    {
      "anonymous": false,
      "inputs": [
        {
          "indexed": true,
          "internalType": "contract IJBTokenUriResolver",
          "name": "newResolver",
          "type": "address"
        },
        {
          "indexed": false,
          "internalType": "address",
          "name": "caller",
          "type": "address"
        }
      ],
      "name": "SetTokenUriResolver",
      "type": "event"
    },
    {
      "anonymous": false,
      "inputs": [
        {
          "indexed": true,
          "internalType": "address",
          "name": "from",
          "type": "address"
        },
        {
          "indexed": true,
          "internalType": "address",
          "name": "to",
          "type": "address"
        },
        {
          "indexed": true,
          "internalType": "uint256",
          "name": "tokenId",
          "type": "uint256"
        }
      ],
      "name": "Transfer",
      "type": "event"
    },
    {
      "inputs": [],
      "name": "DOMAIN_SEPARATOR",
      "outputs": [
        {
          "internalType": "bytes32",
          "name": "",
          "type": "bytes32"
        }
      ],
      "stateMutability": "view",
      "type": "function"
    },
    {
      "inputs": [],
      "name": "allTiers",
      "outputs": [
        {
          "components": [
            {
              "internalType": "uint128",
              "name": "contributionFloor",
              "type": "uint128"
            },
            {
              "internalType": "uint48",
              "name": "remainingQuantity",
              "type": "uint48"
            },
            {
              "internalType": "uint48",
              "name": "initialQuantity",
              "type": "uint48"
            },
            {
              "internalType": "uint16",
              "name": "votingUnits",
              "type": "uint16"
            },
            {
              "internalType": "uint16",
              "name": "reservedRate",
              "type": "uint16"
            },
            {
              "internalType": "string",
              "name": "tokenUri",
              "type": "string"
            }
          ],
          "internalType": "struct JBNFTRewardTier[]",
          "name": "_tiers",
          "type": "tuple[]"
        }
      ],
      "stateMutability": "view",
      "type": "function"
    },
    {
      "inputs": [
        {
          "internalType": "address",
          "name": "to",
          "type": "address"
        },
        {
          "internalType": "uint256",
          "name": "tokenId",
          "type": "uint256"
        }
      ],
      "name": "approve",
      "outputs": [],
      "stateMutability": "nonpayable",
      "type": "function"
    },
    {
      "inputs": [
        {
          "internalType": "address",
          "name": "_owner",
          "type": "address"
        }
      ],
      "name": "balanceOf",
      "outputs": [
        {
          "internalType": "uint256",
          "name": "balance",
          "type": "uint256"
        }
      ],
      "stateMutability": "view",
      "type": "function"
    },
    {
      "inputs": [],
      "name": "contractUri",
      "outputs": [
        {
          "internalType": "string",
          "name": "",
          "type": "string"
        }
      ],
      "stateMutability": "view",
      "type": "function"
    },
    {
      "inputs": [],
      "name": "contributionToken",
      "outputs": [
        {
          "internalType": "address",
          "name": "",
          "type": "address"
        }
      ],
      "stateMutability": "view",
      "type": "function"
    },
    {
      "inputs": [
        {
          "internalType": "address",
          "name": "delegatee",
          "type": "address"
        }
      ],
      "name": "delegate",
      "outputs": [],
      "stateMutability": "nonpayable",
      "type": "function"
    },
    {
      "inputs": [
        {
          "internalType": "address",
          "name": "delegatee",
          "type": "address"
        },
        {
          "internalType": "uint256",
          "name": "nonce",
          "type": "uint256"
        },
        {
          "internalType": "uint256",
          "name": "expiry",
          "type": "uint256"
        },
        {
          "internalType": "uint8",
          "name": "v",
          "type": "uint8"
        },
        {
          "internalType": "bytes32",
          "name": "r",
          "type": "bytes32"
        },
        {
          "internalType": "bytes32",
          "name": "s",
          "type": "bytes32"
        }
      ],
      "name": "delegateBySig",
      "outputs": [],
      "stateMutability": "nonpayable",
      "type": "function"
    },
    {
      "inputs": [
        {
          "internalType": "address",
          "name": "account",
          "type": "address"
        }
      ],
      "name": "delegates",
      "outputs": [
        {
          "internalType": "address",
          "name": "",
          "type": "address"
        }
      ],
      "stateMutability": "view",
      "type": "function"
    },
    {
      "inputs": [
        {
          "components": [
            {
              "internalType": "address",
              "name": "payer",
              "type": "address"
            },
            {
              "internalType": "uint256",
              "name": "projectId",
              "type": "uint256"
            },
            {
              "internalType": "uint256",
              "name": "currentFundingCycleConfiguration",
              "type": "uint256"
            },
            {
              "components": [
                {
                  "internalType": "address",
                  "name": "token",
                  "type": "address"
                },
                {
                  "internalType": "uint256",
                  "name": "value",
                  "type": "uint256"
                },
                {
                  "internalType": "uint256",
                  "name": "decimals",
                  "type": "uint256"
                },
                {
                  "internalType": "uint256",
                  "name": "currency",
                  "type": "uint256"
                }
              ],
              "internalType": "struct JBTokenAmount",
              "name": "amount",
              "type": "tuple"
            },
            {
              "internalType": "uint256",
              "name": "projectTokenCount",
              "type": "uint256"
            },
            {
              "internalType": "address",
              "name": "beneficiary",
              "type": "address"
            },
            {
              "internalType": "bool",
              "name": "preferClaimedTokens",
              "type": "bool"
            },
            {
              "internalType": "string",
              "name": "memo",
              "type": "string"
            },
            {
              "internalType": "bytes",
              "name": "metadata",
              "type": "bytes"
            }
          ],
          "internalType": "struct JBDidPayData",
          "name": "_data",
          "type": "tuple"
        }
      ],
      "name": "didPay",
      "outputs": [],
      "stateMutability": "nonpayable",
      "type": "function"
    },
    {
      "inputs": [],
      "name": "directory",
      "outputs": [
        {
          "internalType": "contract IJBDirectory",
          "name": "",
          "type": "address"
        }
      ],
      "stateMutability": "view",
      "type": "function"
    },
    {
      "inputs": [
        {
          "internalType": "uint256",
          "name": "tokenId",
          "type": "uint256"
        }
      ],
      "name": "getApproved",
      "outputs": [
        {
          "internalType": "address",
          "name": "",
          "type": "address"
        }
      ],
      "stateMutability": "view",
      "type": "function"
    },
    {
      "inputs": [
        {
          "internalType": "uint256",
          "name": "blockNumber",
          "type": "uint256"
        }
      ],
      "name": "getPastTotalSupply",
      "outputs": [
        {
          "internalType": "uint256",
          "name": "",
          "type": "uint256"
        }
      ],
      "stateMutability": "view",
      "type": "function"
    },
    {
      "inputs": [
        {
          "internalType": "address",
          "name": "account",
          "type": "address"
        },
        {
          "internalType": "uint256",
          "name": "blockNumber",
          "type": "uint256"
        }
      ],
      "name": "getPastVotes",
      "outputs": [
        {
          "internalType": "uint256",
          "name": "",
          "type": "uint256"
        }
      ],
      "stateMutability": "view",
      "type": "function"
    },
    {
      "inputs": [
        {
          "internalType": "address",
          "name": "account",
          "type": "address"
        }
      ],
      "name": "getVotes",
      "outputs": [
        {
          "internalType": "uint256",
          "name": "",
          "type": "uint256"
        }
      ],
      "stateMutability": "view",
      "type": "function"
    },
    {
      "inputs": [
        {
          "internalType": "address",
          "name": "_account",
          "type": "address"
        }
      ],
      "name": "getVotingUnits",
      "outputs": [
        {
          "internalType": "uint256",
          "name": "units",
          "type": "uint256"
        }
      ],
      "stateMutability": "view",
      "type": "function"
    },
    {
      "inputs": [
        {
          "internalType": "address",
          "name": "owner",
          "type": "address"
        },
        {
          "internalType": "address",
          "name": "operator",
          "type": "address"
        }
      ],
      "name": "isApprovedForAll",
      "outputs": [
        {
          "internalType": "bool",
          "name": "",
          "type": "bool"
        }
      ],
      "stateMutability": "view",
      "type": "function"
    },
    {
      "inputs": [
        {
          "internalType": "address",
          "name": "_beneficiary",
          "type": "address"
        },
        {
          "internalType": "uint256",
          "name": "_tierId",
          "type": "uint256"
        },
        {
          "internalType": "uint256",
          "name": "_count",
          "type": "uint256"
        }
      ],
      "name": "mintReservesFor",
      "outputs": [],
      "stateMutability": "nonpayable",
      "type": "function"
    },
    {
      "inputs": [],
      "name": "name",
      "outputs": [
        {
          "internalType": "string",
          "name": "",
          "type": "string"
        }
      ],
      "stateMutability": "view",
      "type": "function"
    },
    {
      "inputs": [
        {
          "internalType": "address",
          "name": "owner",
          "type": "address"
        }
      ],
      "name": "nonces",
      "outputs": [
        {
          "internalType": "uint256",
          "name": "",
          "type": "uint256"
        }
      ],
      "stateMutability": "view",
      "type": "function"
    },
    {
      "inputs": [
        {
          "internalType": "uint256",
          "name": "_tierId",
          "type": "uint256"
        }
      ],
      "name": "numberOfReservedTokensOutstandingFor",
      "outputs": [
        {
          "internalType": "uint256",
          "name": "",
          "type": "uint256"
        }
      ],
      "stateMutability": "view",
      "type": "function"
    },
    {
      "inputs": [
        {
          "internalType": "uint256",
          "name": "",
          "type": "uint256"
        }
      ],
      "name": "numberOfReservesMintedFor",
      "outputs": [
        {
          "internalType": "uint256",
          "name": "",
          "type": "uint256"
        }
      ],
      "stateMutability": "view",
      "type": "function"
    },
    {
      "inputs": [],
      "name": "numberOfTiers",
      "outputs": [
        {
          "internalType": "uint256",
          "name": "",
          "type": "uint256"
        }
      ],
      "stateMutability": "view",
      "type": "function"
    },
    {
      "inputs": [],
      "name": "owner",
      "outputs": [
        {
          "internalType": "address",
          "name": "",
          "type": "address"
        }
      ],
      "stateMutability": "view",
      "type": "function"
    },
    {
      "inputs": [
        {
          "internalType": "uint256",
          "name": "tokenId",
          "type": "uint256"
        }
      ],
      "name": "ownerOf",
      "outputs": [
        {
          "internalType": "address",
          "name": "",
          "type": "address"
        }
      ],
      "stateMutability": "view",
      "type": "function"
    },
    {
      "inputs": [
        {
          "internalType": "address",
          "name": "_owner",
          "type": "address"
        },
        {
          "internalType": "uint256",
          "name": "_tokenId",
          "type": "uint256"
        }
      ],
      "name": "ownerTokenBalanceOf",
      "outputs": [
        {
          "internalType": "uint256",
          "name": "",
          "type": "uint256"
        }
      ],
      "stateMutability": "view",
      "type": "function"
    },
    {
      "inputs": [
        {
          "components": [
            {
              "internalType": "contract IJBPaymentTerminal",
              "name": "terminal",
              "type": "address"
            },
            {
              "internalType": "address",
              "name": "payer",
              "type": "address"
            },
            {
              "components": [
                {
                  "internalType": "address",
                  "name": "token",
                  "type": "address"
                },
                {
                  "internalType": "uint256",
                  "name": "value",
                  "type": "uint256"
                },
                {
                  "internalType": "uint256",
                  "name": "decimals",
                  "type": "uint256"
                },
                {
                  "internalType": "uint256",
                  "name": "currency",
                  "type": "uint256"
                }
              ],
              "internalType": "struct JBTokenAmount",
              "name": "amount",
              "type": "tuple"
            },
            {
              "internalType": "uint256",
              "name": "projectId",
              "type": "uint256"
            },
            {
              "internalType": "uint256",
              "name": "currentFundingCycleConfiguration",
              "type": "uint256"
            },
            {
              "internalType": "address",
              "name": "beneficiary",
              "type": "address"
            },
            {
              "internalType": "uint256",
              "name": "weight",
              "type": "uint256"
            },
            {
              "internalType": "uint256",
              "name": "reservedRate",
              "type": "uint256"
            },
            {
              "internalType": "string",
              "name": "memo",
              "type": "string"
            },
            {
              "internalType": "bytes",
              "name": "metadata",
              "type": "bytes"
            }
          ],
          "internalType": "struct JBPayParamsData",
          "name": "_data",
          "type": "tuple"
        }
      ],
      "name": "payParams",
      "outputs": [
        {
          "internalType": "uint256",
          "name": "weight",
          "type": "uint256"
        },
        {
          "internalType": "string",
          "name": "memo",
          "type": "string"
        },
        {
          "internalType": "contract IJBPayDelegate",
          "name": "delegate",
          "type": "address"
        }
      ],
      "stateMutability": "view",
      "type": "function"
    },
    {
      "inputs": [],
      "name": "projectId",
      "outputs": [
        {
          "internalType": "uint256",
          "name": "",
          "type": "uint256"
        }
      ],
      "stateMutability": "view",
      "type": "function"
    },
    {
      "inputs": [
        {
          "components": [
            {
              "internalType": "contract IJBPaymentTerminal",
              "name": "terminal",
              "type": "address"
            },
            {
              "internalType": "address",
              "name": "holder",
              "type": "address"
            },
            {
              "internalType": "uint256",
              "name": "projectId",
              "type": "uint256"
            },
            {
              "internalType": "uint256",
              "name": "currentFundingCycleConfiguration",
              "type": "uint256"
            },
            {
              "internalType": "uint256",
              "name": "tokenCount",
              "type": "uint256"
            },
            {
              "internalType": "uint256",
              "name": "totalSupply",
              "type": "uint256"
            },
            {
              "internalType": "uint256",
              "name": "overflow",
              "type": "uint256"
            },
            {
              "components": [
                {
                  "internalType": "address",
                  "name": "token",
                  "type": "address"
                },
                {
                  "internalType": "uint256",
                  "name": "value",
                  "type": "uint256"
                },
                {
                  "internalType": "uint256",
                  "name": "decimals",
                  "type": "uint256"
                },
                {
                  "internalType": "uint256",
                  "name": "currency",
                  "type": "uint256"
                }
              ],
              "internalType": "struct JBTokenAmount",
              "name": "reclaimAmount",
              "type": "tuple"
            },
            {
              "internalType": "bool",
              "name": "useTotalOverflow",
              "type": "bool"
            },
            {
              "internalType": "uint256",
              "name": "redemptionRate",
              "type": "uint256"
            },
            {
              "internalType": "uint256",
              "name": "ballotRedemptionRate",
              "type": "uint256"
            },
            {
              "internalType": "string",
              "name": "memo",
              "type": "string"
            },
            {
              "internalType": "bytes",
              "name": "metadata",
              "type": "bytes"
            }
          ],
          "internalType": "struct JBRedeemParamsData",
          "name": "_data",
          "type": "tuple"
        }
      ],
      "name": "redeemParams",
      "outputs": [
        {
          "internalType": "uint256",
          "name": "reclaimAmount",
          "type": "uint256"
        },
        {
          "internalType": "string",
          "name": "memo",
          "type": "string"
        },
        {
          "internalType": "contract IJBRedemptionDelegate",
          "name": "delegate",
          "type": "address"
        }
      ],
      "stateMutability": "pure",
      "type": "function"
    },
    {
      "inputs": [],
      "name": "renounceOwnership",
      "outputs": [],
      "stateMutability": "nonpayable",
      "type": "function"
    },
    {
      "inputs": [
        {
          "internalType": "address",
          "name": "from",
          "type": "address"
        },
        {
          "internalType": "address",
          "name": "to",
          "type": "address"
        },
        {
          "internalType": "uint256",
          "name": "tokenId",
          "type": "uint256"
        }
      ],
      "name": "safeTransferFrom",
      "outputs": [],
      "stateMutability": "nonpayable",
      "type": "function"
    },
    {
      "inputs": [
        {
          "internalType": "address",
          "name": "from",
          "type": "address"
        },
        {
          "internalType": "address",
          "name": "to",
          "type": "address"
        },
        {
          "internalType": "uint256",
          "name": "tokenId",
          "type": "uint256"
        },
        {
          "internalType": "bytes",
          "name": "data",
          "type": "bytes"
        }
      ],
      "name": "safeTransferFrom",
      "outputs": [],
      "stateMutability": "nonpayable",
      "type": "function"
    },
    {
      "inputs": [
        {
          "internalType": "address",
          "name": "operator",
          "type": "address"
        },
        {
          "internalType": "bool",
          "name": "approved",
          "type": "bool"
        }
      ],
      "name": "setApprovalForAll",
      "outputs": [],
      "stateMutability": "nonpayable",
      "type": "function"
    },
    {
      "inputs": [
        {
          "internalType": "string",
          "name": "_contractUri",
          "type": "string"
        }
      ],
      "name": "setContractUri",
      "outputs": [],
      "stateMutability": "nonpayable",
      "type": "function"
    },
    {
      "inputs": [
        {
          "internalType": "contract IJBTokenUriResolver",
          "name": "_tokenUriResolver",
          "type": "address"
        }
      ],
      "name": "setTokenUriResolver",
      "outputs": [],
      "stateMutability": "nonpayable",
      "type": "function"
    },
    {
      "inputs": [],
      "name": "shouldMintByDefault",
      "outputs": [
        {
          "internalType": "bool",
          "name": "",
          "type": "bool"
        }
      ],
      "stateMutability": "view",
      "type": "function"
    },
    {
      "inputs": [
        {
          "internalType": "bytes4",
          "name": "_interfaceId",
          "type": "bytes4"
        }
      ],
      "name": "supportsInterface",
      "outputs": [
        {
          "internalType": "bool",
          "name": "",
          "type": "bool"
        }
      ],
      "stateMutability": "view",
      "type": "function"
    },
    {
      "inputs": [],
      "name": "symbol",
      "outputs": [
        {
          "internalType": "string",
          "name": "",
          "type": "string"
        }
      ],
      "stateMutability": "view",
      "type": "function"
    },
    {
      "inputs": [
        {
          "internalType": "address",
          "name": "",
          "type": "address"
        },
        {
          "internalType": "uint256",
          "name": "",
          "type": "uint256"
        }
      ],
      "name": "tierBalanceOf",
      "outputs": [
        {
          "internalType": "uint256",
          "name": "",
          "type": "uint256"
        }
      ],
      "stateMutability": "view",
      "type": "function"
    },
    {
      "inputs": [
        {
          "internalType": "uint256",
          "name": "_tokenId",
          "type": "uint256"
        }
      ],
      "name": "tierIdOfToken",
      "outputs": [
        {
          "internalType": "uint256",
          "name": "",
          "type": "uint256"
        }
      ],
      "stateMutability": "pure",
      "type": "function"
    },
    {
      "inputs": [
        {
          "internalType": "uint256",
          "name": "",
          "type": "uint256"
        }
      ],
      "name": "tiers",
      "outputs": [
        {
          "internalType": "uint128",
          "name": "contributionFloor",
          "type": "uint128"
        },
        {
          "internalType": "uint48",
          "name": "remainingQuantity",
          "type": "uint48"
        },
        {
          "internalType": "uint48",
          "name": "initialQuantity",
          "type": "uint48"
        },
        {
          "internalType": "uint16",
          "name": "votingUnits",
          "type": "uint16"
        },
        {
          "internalType": "uint16",
          "name": "reservedRate",
          "type": "uint16"
        },
        {
          "internalType": "string",
          "name": "tokenUri",
          "type": "string"
        }
      ],
      "stateMutability": "view",
      "type": "function"
    },
    {
      "inputs": [
        {
          "internalType": "uint256",
          "name": "_tokenId",
          "type": "uint256"
        }
      ],
      "name": "tokenSupplyOf",
      "outputs": [
        {
          "internalType": "uint256",
          "name": "",
          "type": "uint256"
        }
      ],
      "stateMutability": "view",
      "type": "function"
    },
    {
      "inputs": [
        {
          "internalType": "uint256",
          "name": "_tokenId",
          "type": "uint256"
        }
      ],
      "name": "tokenURI",
      "outputs": [
        {
          "internalType": "string",
          "name": "",
          "type": "string"
        }
      ],
      "stateMutability": "view",
      "type": "function"
    },
    {
      "inputs": [],
      "name": "tokenUriResolver",
      "outputs": [
        {
          "internalType": "contract IJBTokenUriResolver",
          "name": "",
          "type": "address"
        }
      ],
      "stateMutability": "view",
      "type": "function"
    },
    {
      "inputs": [
        {
          "internalType": "address",
          "name": "_owner",
          "type": "address"
        }
      ],
      "name": "totalOwnerBalanceOf",
      "outputs": [
        {
          "internalType": "uint256",
          "name": "",
          "type": "uint256"
        }
      ],
      "stateMutability": "view",
      "type": "function"
    },
    {
      "inputs": [],
      "name": "totalSupply",
      "outputs": [
        {
          "internalType": "uint256",
          "name": "supply",
          "type": "uint256"
        }
      ],
      "stateMutability": "view",
      "type": "function"
    },
    {
      "inputs": [
        {
          "internalType": "address",
          "name": "from",
          "type": "address"
        },
        {
          "internalType": "address",
          "name": "to",
          "type": "address"
        },
        {
          "internalType": "uint256",
          "name": "tokenId",
          "type": "uint256"
        }
      ],
      "name": "transferFrom",
      "outputs": [],
      "stateMutability": "nonpayable",
      "type": "function"
    },
    {
      "inputs": [
        {
          "internalType": "address",
          "name": "newOwner",
          "type": "address"
        }
      ],
      "name": "transferOwnership",
      "outputs": [],
      "stateMutability": "nonpayable",
      "type": "function"
    }
  ],
  "bytecode": {
    "object": "0x6101e06040523480156200001257600080fd5b506040516200444d3803806200444d8339810160408190526200003591620006fe565b8989898989898984604051806040016040528060018152602001603160f81b815250868681600090805190602001906200007192919062000417565b5080516200008790600190602084019062000417565b5050825160208085019190912083518483012060e08290526101008190524660a0818152604080517f8b73c3c69bb8fe3d512ecc4cf759cc79239f7b179b0ffacaa9a75d522b39400f81880181905281830187905260608201869052608082019490945230818401528151808203909301835260c0019052805194019390932091935091906080523060601b60c05261012052506200013292506200012c9150503390565b620003c5565b610140879052606086901b6001600160601b03191661016052600a80546001600160a01b0319166001600160a01b03851617905581516200017b90600b90602085019062000417565b506001600160a01b0381161562000197576200019781620003c5565b5050505050606085811b6001600160601b0319166101805283151560f81b6101c05284516101a08190526040805160c081018252600080825260208201819052918101829052808401829052608081019190915260a08101929092529250905060005b82811015620003b25784818151811062000218576200021862000907565b60200260200101519150816020015165ffffffffffff16600014156200025157604051631e0a863160e31b815260040160405180910390fd5b8015801590620002a25750846200026a6001836200089a565b815181106200027d576200027d62000907565b6020026020010151600001516001600160801b031682600001516001600160801b0316105b15620002c1576040516325ec4a9160e21b815260040160405180910390fd5b602082015165ffffffffffff16604083015281600c6000620002e58460016200087f565b81526020808201929092526040908101600020835181548585015193860151606087015160808801516001600160801b039094166001600160b01b031990931692909217600160801b65ffffffffffff9687160217600160b01b600160f01b031916600160b01b959091169490940261ffff60e01b191693909317600160e01b61ffff94851602176001600160f01b0316600160f01b939091169290920291909117815560a083015180519192620003a69260018501929091019062000417565b505050600101620001fa565b5050505050505050505050505062000933565b600980546001600160a01b038381166001600160a01b0319831681179093556040519116919082907f8be0079c531659141344cd1fd0a4f28419497f9722a3daafe3b4186f6b6457e090600090a35050565b8280546200042590620008b4565b90600052602060002090601f01602090048101928262000449576000855562000494565b82601f106200046457805160ff191683800117855562000494565b8280016001018555821562000494579182015b828111156200049457825182559160200191906001019062000477565b50620004a2929150620004a6565b5090565b5b80821115620004a25760008155600101620004a7565b80516001600160a01b0381168114620004d557600080fd5b919050565b600082601f830112620004ec57600080fd5b815160206001600160401b03808311156200050b576200050b6200091d565b8260051b6200051c8382016200084c565b8481528381019087850183890186018a10156200053857600080fd5b600093505b8684101562000621578051858111156200055657600080fd5b890160c0818c03601f19018113156200056e57600080fd5b6200057862000821565b828901516001600160801b03811681146200059257600080fd5b81526040620005a3848201620006e7565b8a8301526060620005b6818601620006e7565b8284015260809150620005cb828601620006d4565b9083015260a0620005de858201620006d4565b83830152928401519289841115620005f557600080fd5b620006058f8c868801016200063f565b908301525085525050600193909301929185019185016200053d565b5098975050505050505050565b80518015158114620004d557600080fd5b600082601f8301126200065157600080fd5b81516001600160401b038111156200066d576200066d6200091d565b602062000683601f8301601f191682016200084c565b82815285828487010111156200069857600080fd5b60005b83811015620006b85785810183015182820184015282016200069b565b83811115620006ca5760008385840101525b5095945050505050565b805161ffff81168114620004d557600080fd5b805165ffffffffffff81168114620004d557600080fd5b6000806000806000806000806000806101408b8d0312156200071f57600080fd5b8a5199506200073160208c01620004bd565b60408c01519099506001600160401b03808211156200074f57600080fd5b6200075d8e838f016200063f565b995060608d01519150808211156200077457600080fd5b620007828e838f016200063f565b98506200079260808e01620004bd565b975060a08d0151915080821115620007a957600080fd5b620007b78e838f016200063f565b9650620007c760c08e01620004bd565b9550620007d760e08e01620004bd565b94506101008d0151915080821115620007ef57600080fd5b50620007fe8d828e01620004da565b925050620008106101208c016200062e565b90509295989b9194979a5092959850565b60405160c081016001600160401b03811182821017156200084657620008466200091d565b60405290565b604051601f8201601f191681016001600160401b03811182821017156200087757620008776200091d565b604052919050565b60008219821115620008955762000895620008f1565b500190565b600082821015620008af57620008af620008f1565b500390565b600181811c90821680620008c957607f821691505b60208210811415620008eb57634e487b7160e01b600052602260045260246000fd5b50919050565b634e487b7160e01b600052601160045260246000fd5b634e487b7160e01b600052603260045260246000fd5b634e487b7160e01b600052604160045260246000fd5b60805160a05160c05160601c60e0516101005161012051610140516101605160601c6101805160601c6101a0516101c05160f81c613a4162000a0c6000396000818161054b0152611d770152600081816104f601528181610a3501528181610bcd01528181611169015281816121e3015261269b01526000818161047d0152611cd101526000818161065a0152610fc701526000818161042f01528181610f9b015261105201526000611e4401526000611e9301526000611e6e01526000611dc701526000611df101526000611e1b0152613a416000f3fe608060405234801561001057600080fd5b50600436106102a05760003560e01c806370a0823111610167578063abd050a6116100ce578063ccb4807b11610087578063ccb4807b1461068f578063d46cf171146106a2578063dcdfe0d9146106b5578063e131fc0c146106c8578063e985e9c5146106db578063f2fde38b1461071757600080fd5b8063abd050a614610614578063b88d4fde14610627578063c0e24d5e1461063a578063c3cda52014610642578063c41c2f2414610655578063c87b56dd1461067c57600080fd5b80638e539e8c116101205780638e539e8c146105a057806395d89b41146105b35780639a5a13e0146105bb5780639ab24eb0146105db5780639b04139f146105ee578063a22cb4651461060157600080fd5b806370a0823114610518578063715018a61461052b5780637ecebe00146105335780638ce79624146105465780638da5cb5b1461056d5780638dfc95981461057e57600080fd5b80632b32e9ca1161020b57806342f9914b116101c457806342f9914b146104645780634bedf9a814610478578063587cde1e1461049f5780635c19a95c146104cb5780636352211e146104de5780636e27a2e5146104f157600080fd5b80632b32e9ca146103d1578063304b1eea146103fc5780633644e5151461040f5780633a46b1a8146104175780633fafa1271461042a57806342842e0e1461045157600080fd5b806318160ddd1161025d57806318160ddd146103685780631cf89a9a14610370578063205e0c111461038357806323b872dd146103985780632407497e146103ab578063289d3f79146103be57600080fd5b806301ffc9a7146102a5578063039af9eb146102cd57806306fdde03146102f2578063081812fc14610307578063095ea7b3146103325780630c4ace1814610347575b600080fd5b6102b86102b336600461336d565b61072a565b60405190151581526020015b60405180910390f35b6102e06102db366004613544565b610770565b6040516102c49695949392919061373e565b6102fa610851565b6040516102c4919061368b565b61031a610315366004613544565b6108e3565b6040516001600160a01b0390911681526020016102c4565b6103456103403660046131d5565b61090a565b005b61035a610355366004613061565b610a25565b6040519081526020016102c4565b61035a610a30565b61035a61037e366004613544565b610ab4565b61038b610bc9565b6040516102c491906135cc565b6103456103a63660046130b7565b610db1565b6103456103b9366004613061565b610de2565b6103456103cc366004613201565b610e3e565b61035a6103df3660046131d5565b600d60209081526000928352604080842090915290825290205481565b61034561040a366004613490565b610f8c565b61035a6110a3565b61035a6104253660046131d5565b6110b2565b61035a7f000000000000000000000000000000000000000000000000000000000000000081565b61034561045f3660046130b7565b6110db565b61035a610472366004613544565b60ff1690565b61031a7f000000000000000000000000000000000000000000000000000000000000000081565b61031a6104ad366004613061565b6001600160a01b039081166000908152600560205260409020541690565b6103456104d9366004613061565b6110f6565b61031a6104ec366004613544565b611105565b61035a7f000000000000000000000000000000000000000000000000000000000000000081565b61035a610526366004613061565b611165565b6103456111d0565b61035a610541366004613061565b6111e4565b6102b87f000000000000000000000000000000000000000000000000000000000000000081565b6009546001600160a01b031661031a565b61059161058c366004613508565b611202565b6040516102c493929190613796565b61035a6105ae366004613544565b611263565b6102fa6112bf565b61035a6105c9366004613544565b600e6020526000908152604090205481565b61035a6105e9366004613061565b6112ce565b61035a6105fc3660046131d5565b6112ef565b61034561060f3660046131a7565b611326565b61035a610622366004613061565b611331565b6103456106353660046130f8565b61133c565b6102fa611374565b610345610650366004613236565b611402565b61031a7f000000000000000000000000000000000000000000000000000000000000000081565b6102fa61068a366004613544565b61152f565b61034561069d3660046133a7565b611698565b6105916106b03660046134cc565b6116fb565b61035a6106c3366004613544565b61175b565b600a5461031a906001600160a01b031681565b6102b86106e936600461307e565b6001600160a01b03918216600090815260046020908152604080832093909416825291909152205460ff1690565b610345610725366004613061565b611789565b60006001600160e01b03198216637cd7e2e360e11b148061075b57506001600160e01b03198216635387308360e01b145b8061076a575061076a826117ff565b92915050565b600c60205260009081526040902080546001820180546001600160801b0383169365ffffffffffff600160801b8504811694600160b01b81049091169361ffff600160e01b8304811694600160f01b9093041692916107ce9061392a565b80601f01602080910402602001604051908101604052809291908181526020018280546107fa9061392a565b80156108475780601f1061081c57610100808354040283529160200191610847565b820191906000526020600020905b81548152906001019060200180831161082a57829003601f168201915b5050505050905086565b6060600080546108609061392a565b80601f016020809104026020016040519081016040528092919081815260200182805461088c9061392a565b80156108d95780601f106108ae576101008083540402835291602001916108d9565b820191906000526020600020905b8154815290600101906020018083116108bc57829003601f168201915b5050505050905090565b60006108ee8261185a565b506000908152600360205260409020546001600160a01b031690565b600061091582611105565b9050806001600160a01b0316836001600160a01b031614156109885760405162461bcd60e51b815260206004820152602160248201527f4552433732313a20617070726f76616c20746f2063757272656e74206f776e656044820152603960f91b60648201526084015b60405180910390fd5b336001600160a01b03821614806109a457506109a481336106e9565b610a165760405162461bcd60e51b815260206004820152603e60248201527f4552433732313a20617070726f76652063616c6c6572206973206e6f7420746f60448201527f6b656e206f776e6572206e6f7220617070726f76656420666f7220616c6c0000606482015260840161097f565b610a2083836118b9565b505050565b600061076a82611165565b6000807f0000000000000000000000000000000000000000000000000000000000000000805b8015610aae576000818152600c602052604090208054909350610a919065ffffffffffff600160801b8204811691600160b01b9004166138d7565b610aa39065ffffffffffff1685613867565b935060001901610a56565b50505090565b6000818152600c60209081526040808320815160c08101835281546001600160801b038116825265ffffffffffff600160801b8204811695830195909552600160b01b81049094169281019290925261ffff600160e01b840481166060840152600160f01b909304909216608082015260018201805461076a93869392909160a084019190610b429061392a565b80601f0160208091040260200160405190810160405280929190818152602001828054610b6e9061392a565b8015610bbb5780601f10610b9057610100808354040283529160200191610bbb565b820191906000526020600020905b815481529060010190602001808311610b9e57829003601f168201915b505050505081525050611927565b60607f00000000000000000000000000000000000000000000000000000000000000008067ffffffffffffffff811115610c0557610c056139bc565b604051908082528060200260200182016040528015610c6757816020015b6040805160c081018252600080825260208083018290529282018190526060808301829052608083019190915260a08201528252600019909201910181610c235790505b509150805b8015610dac576000818152600c6020908152604091829020825160c08101845281546001600160801b038116825265ffffffffffff600160801b8204811694830194909452600160b01b81049093169381019390935261ffff600160e01b830481166060850152600160f01b909204909116608083015260018101805460a084019190610cf89061392a565b80601f0160208091040260200160405190810160405280929190818152602001828054610d249061392a565b8015610d715780601f10610d4657610100808354040283529160200191610d71565b820191906000526020600020905b815481529060010190602001808311610d5457829003601f168201915b50505050508152505083600183610d8891906138c0565b81518110610d9857610d986139a6565b602090810291909101015260001901610c6c565b505090565b610dbb3382611a19565b610dd75760405162461bcd60e51b815260040161097f906136f0565b610a20838383611a98565b610dea611bde565b600a80546001600160a01b0319166001600160a01b0383169081179091556040513381527fe7784d93cfbfa4408e19577e6cc0436f4dbb51214b70e100905dfce9def88c169060200160405180910390a250565b610e46611bde565b6000828152600c60209081526040808320815160c08101835281546001600160801b038116825265ffffffffffff600160801b8204811695830195909552600160b01b81049094169281019290925261ffff600160e01b840481166060840152600160f01b9093049092166080820152600182018054929392610ed79287929091869160a0840191610b429061392a565b905080831115610efa5760405163226f999960e11b815260040160405180910390fd5b6000848152600e602052604081208054859290610f18908490613867565b90915550600090505b83811015610f84576000610f36868589611c38565b6040513381529091506001600160a01b03881690879083907f031e1988c95a91ec4d655ff63a8f87a80bc9daf28d95ae10ee08c0022cfb5c8b9060200160405180910390a450600101610f21565b505050505050565b604051636e49181f60e01b81527f000000000000000000000000000000000000000000000000000000000000000060048201523360248201527f00000000000000000000000000000000000000000000000000000000000000006001600160a01b031690636e49181f9060440160206040518083038186803b15801561101157600080fd5b505afa158015611025573d6000803e3d6000fd5b505050506040513d601f19601f820116820180604052508101906110499190613290565b158061107957507f0000000000000000000000000000000000000000000000000000000000000000816020013514155b15611097576040516331c57b1b60e21b815260040160405180910390fd5b6110a081611cc7565b50565b60006110ad611dba565b905090565b6001600160a01b03821660009081526006602052604081206110d49083611ee1565b9392505050565b610a208383836040518060200160405280600081525061133c565b336111018183611ff0565b5050565b6000818152600260205260408120546001600160a01b03168061076a5760405162461bcd60e51b8152602060048201526018602482015277115490cdcc8c4e881a5b9d985b1a59081d1bdad95b88125160421b604482015260640161097f565b60007f0000000000000000000000000000000000000000000000000000000000000000805b80156111c9576001600160a01b0384166000908152600d602090815260408083208484529091529020546111be9084613867565b92506000190161118a565b5050919050565b6111d8611bde565b6111e26000612062565b565b6001600160a01b03811660009081526008602052604081205461076a565b600060608161010084013561121b6101c08601866137c7565b600082828080601f016020809104026020016040519081016040528093929190818152602001838380828437600092019190915250969b929a50929850909650505050505050565b60004382106112b45760405162461bcd60e51b815260206004820152601a60248201527f566f7465733a20626c6f636b206e6f7420796574206d696e6564000000000000604482015260640161097f565b61076a600783611ee1565b6060600180546108609061392a565b6001600160a01b038116600090815260066020526040812061076a906120b4565b6000826001600160a01b031661130483611105565b6001600160a01b03161461131957600061131c565b60015b60ff169392505050565b611101338383612110565b600061076a826121df565b6113463383611a19565b6113625760405162461bcd60e51b815260040161097f906136f0565b61136e8484848461226f565b50505050565b600b80546113819061392a565b80601f01602080910402602001604051908101604052809291908181526020018280546113ad9061392a565b80156113fa5780601f106113cf576101008083540402835291602001916113fa565b820191906000526020600020905b8154815290600101906020018083116113dd57829003601f168201915b505050505081565b834211156114525760405162461bcd60e51b815260206004820152601860248201527f566f7465733a207369676e617475726520657870697265640000000000000000604482015260640161097f565b604080517fe48329057bfd03d55e49b547132e39cffd9c1820ad7b9d4c5307691425d15adf60208201526001600160a01b0388169181019190915260608101869052608081018590526000906114cc906114c49060a001604051602081830303815290604052805190602001206122a2565b8585856122f0565b90506114d781612318565b861461151c5760405162461bcd60e51b8152602060048201526014602482015273566f7465733a20696e76616c6964206e6f6e636560601b604482015260640161097f565b6115268188611ff0565b50505050505050565b6000818152600260205260409020546060906001600160a01b031661156257505060408051602081019091526000815290565b600a546001600160a01b0316156115f357600a54604051636d02a25560e11b8152600481018490526001600160a01b039091169063da0544aa9060240160006040518083038186803b1580156115b757600080fd5b505afa1580156115cb573d6000803e3d6000fd5b505050506040513d6000823e601f3d908101601f1916820160405261076a9190810190613419565b60ff82166000908152600c6020526040902060010180546116139061392a565b80601f016020809104026020016040519081016040528092919081815260200182805461163f9061392a565b801561168c5780601f106116615761010080835404028352916020019161168c565b820191906000526020600020905b81548152906001019060200180831161166f57829003601f168201915b50505050509050919050565b6116a0611bde565b6116ac600b8383612fbb565b5081816040516116bd929190613589565b604051908190038120338252907fd36dc0c1a06103fdcaf15f3f6fb797d1a97997514c78de073640c8b5005454b89060200160405180910390a25050565b60006060816101208401356117146101608601866137c7565b3082828080601f016020809104026020016040519081016040528093929190818152602001838380828437600092019190915250969b929a50929850909650505050505050565b60008061176783611105565b6001600160a01b0316141561177d576000611780565b60015b60ff1692915050565b611791611bde565b6001600160a01b0381166117f65760405162461bcd60e51b815260206004820152602660248201527f4f776e61626c653a206e6577206f776e657220697320746865207a65726f206160448201526564647265737360d01b606482015260840161097f565b6110a081612062565b60006001600160e01b03198216630cb4fd9560e21b148061183057506001600160e01b0319821663599064e960e01b145b8061184b57506001600160e01b031982166318258f7560e11b145b8061076a575061076a82612340565b6000818152600260205260409020546001600160a01b03166110a05760405162461bcd60e51b8152602060048201526018602482015277115490cdcc8c4e881a5b9d985b1a59081d1bdad95b88125160421b604482015260640161097f565b600081815260036020526040902080546001600160a01b0319166001600160a01b03841690811790915581906118ee82611105565b6001600160a01b03167f8c5be1e5ebec7d5bd14f71427d1e84f3dd0314c0f7b2291e5b200ac8c7c3b92560405160405180910390a45050565b6000816040015165ffffffffffff166000148061194a5750608082015161ffff16155b156119575750600061076a565b816020015165ffffffffffff16826040015165ffffffffffff16141561197f5750600161076a565b6000838152600e6020908152604080832054918501519085015191929183916119a7916138d7565b65ffffffffffff166119b991906138c0565b90506000846080015161ffff16826119d1919061387f565b9050600081866080015161ffff166119e991906138a1565b6119f390846138c0565b1115611a0557611a028161395f565b90505b611a0f83826138c0565b9695505050505050565b600080611a2583611105565b9050806001600160a01b0316846001600160a01b03161480611a6c57506001600160a01b0380821660009081526004602090815260408083209388168352929052205460ff165b80611a905750836001600160a01b0316611a85846108e3565b6001600160a01b0316145b949350505050565b826001600160a01b0316611aab82611105565b6001600160a01b031614611b0f5760405162461bcd60e51b815260206004820152602560248201527f4552433732313a207472616e736665722066726f6d20696e636f72726563742060448201526437bbb732b960d91b606482015260840161097f565b6001600160a01b038216611b715760405162461bcd60e51b8152602060048201526024808201527f4552433732313a207472616e7366657220746f20746865207a65726f206164646044820152637265737360e01b606482015260840161097f565b611b7c6000826118b9565b60008181526002602052604080822080546001600160a01b0319166001600160a01b0386811691821790925591518493918716917fddf252ad1be2c89b69c2b068fc378daa952ba7f163c4a11628f55a4df523b3ef91a4610a20838383612390565b6009546001600160a01b031633146111e25760405162461bcd60e51b815260206004820181905260248201527f4f776e61626c653a2063616c6c6572206973206e6f7420746865206f776e6572604482015260640161097f565b815460001965ffffffffffff600160801b808404821692830182160265ffffffffffff60801b1990931692909217808555600092611c87928792600160b01b90048216036001011660081b1790565b6001600160a01b0383166000908152600d602090815260408083208884529091528120805492935091611cb99061395f565b909155506110d4828261239c565b6001600160a01b037f000000000000000000000000000000000000000000000000000000000000000016611d016080830160608401613061565b6001600160a01b031614611d125750565b6020611d226101608301836137c7565b90501115611d75576000611d3a6101608301836137c7565b810190611d4791906132ad565b9150508051600014611d7357611101608083013582611d6e61012086016101008701613061565b6124b8565b505b7f0000000000000000000000000000000000000000000000000000000000000000156110a0576110a06080820135611db561012084016101008501613061565b612699565b6000306001600160a01b037f000000000000000000000000000000000000000000000000000000000000000016148015611e1357507f000000000000000000000000000000000000000000000000000000000000000046145b15611e3d57507f000000000000000000000000000000000000000000000000000000000000000090565b50604080517f00000000000000000000000000000000000000000000000000000000000000006020808301919091527f0000000000000000000000000000000000000000000000000000000000000000828401527f000000000000000000000000000000000000000000000000000000000000000060608301524660808301523060a0808401919091528351808403909101815260c0909201909252805191012090565b6000438210611f325760405162461bcd60e51b815260206004820181905260248201527f436865636b706f696e74733a20626c6f636b206e6f7420796574206d696e6564604482015260640161097f565b825460005b81811015611f97576000611f4b82846127fe565b905084866000018281548110611f6357611f636139a6565b60009182526020909120015463ffffffff161115611f8357809250611f91565b611f8e816001613867565b91505b50611f37565b8115611fdb5784611fa96001846138c0565b81548110611fb957611fb96139a6565b60009182526020909120015464010000000090046001600160e01b0316611fde565b60005b6001600160e01b031695945050505050565b6001600160a01b0382811660008181526005602052604080822080548686166001600160a01b0319821681179092559151919094169392849290917f3134e8a2e6d97e929a7e54011ea5485d7d196dd5f0ba4d4ef95803e8e3fc257f9190a4610a20818361205d866121df565b612819565b600980546001600160a01b038381166001600160a01b0319831681179093556040519116919082907f8be0079c531659141344cd1fd0a4f28419497f9722a3daafe3b4186f6b6457e090600090a35050565b805460009080156120fd57826120cb6001836138c0565b815481106120db576120db6139a6565b60009182526020909120015464010000000090046001600160e01b0316612100565b60005b6001600160e01b03169392505050565b816001600160a01b0316836001600160a01b031614156121725760405162461bcd60e51b815260206004820152601960248201527f4552433732313a20617070726f766520746f2063616c6c657200000000000000604482015260640161097f565b6001600160a01b03838116600081815260046020908152604080832094871680845294825291829020805460ff191686151590811790915591519182527f17307eab39ab6107e8899845ad3d59bd9653f200f220920489ca2b5937696c31910160405180910390a3505050565b60007f0000000000000000000000000000000000000000000000000000000000000000805b80156111c9576001600160a01b0384166000908152600d602090815260408083208484529091529020548015612265576000828152600c602052604090205461225890600160e01b900461ffff16826138a1565b6122629085613867565b93505b5060001901612204565b61227a848484611a98565b61228684848484612956565b61136e5760405162461bcd60e51b815260040161097f9061369e565b600061076a6122af611dba565b8360405161190160f01b6020820152602281018390526042810182905260009060620160405160208183030381529060405280519060200120905092915050565b600080600061230187878787612a60565b9150915061230e81612b4d565b5095945050505050565b6001600160a01b03811660009081526008602052604090208054600181018255905b50919050565b60006001600160e01b031982166380ac58cd60e01b148061237157506001600160e01b03198216635b5e139f60e01b145b8061076a57506301ffc9a760e01b6001600160e01b031983161461076a565b610a2083836001612d08565b6001600160a01b0382166123f25760405162461bcd60e51b815260206004820181905260248201527f4552433732313a206d696e7420746f20746865207a65726f2061646472657373604482015260640161097f565b6000818152600260205260409020546001600160a01b0316156124575760405162461bcd60e51b815260206004820152601c60248201527f4552433732313a20746f6b656e20616c7265616479206d696e74656400000000604482015260640161097f565b60008181526002602052604080822080546001600160a01b0319166001600160a01b03861690811790915590518392907fddf252ad1be2c89b69c2b068fc378daa952ba7f163c4a11628f55a4df523b3ef908290a461110160008383612390565b815183906000908190815b8181101561268f578681815181106124dd576124dd6139a6565b602002602001015160ff16925082600014612687576000838152600c602052604090208054909450600160b01b900465ffffffffffff1661253157604051630de5859f60e01b815260040160405180910390fd5b83546001600160801b031685101561255c57604051632cd294cf60e01b815260040160405180910390fd5b6040805160c08101825285546001600160801b038116825265ffffffffffff600160801b820481166020840152600160b01b8204169282019290925261ffff600160e01b830481166060830152600160f01b90920490911660808201526001850180546125d79286929091889160a0840191610b429061392a565b84546125f29190600160801b900465ffffffffffff166138c0565b61260f5760405163985a45d960e01b815260040160405180910390fd5b600061261c848689611c38565b8554909150612634906001600160801b0316876138c0565b604080518b815260208101869052338183015290519197506001600160a01b03891691869184917fe1f4f07fba2f97b5763d2bcafd46bf61f28491b066928954b0b817ce06ff1e9e9181900360600190a4505b6001016124c3565b5050505050505050565b7f00000000000000000000000000000000000000000000000000000000000000006000815b80156127f7576000818152600c6020526040902080549092506001600160801b0316851080159061278357506040805160c08101825283546001600160801b038116825265ffffffffffff600160801b820481166020840152600160b01b8204169282019290925261ffff600160e01b830481166060830152600160f01b90920490911660808201526001830180546127659284929091869160a0840191610b429061392a565b82546127809190600160801b900465ffffffffffff166138c0565b15155b156127ee576000612795828487611c38565b6040805188815260006020820152338183015290519192506001600160a01b03871691849184917fe1f4f07fba2f97b5763d2bcafd46bf61f28491b066928954b0b817ce06ff1e9e9181900360600190a4505050505050565b600019016126be565b5050505050565b600061280d600284841861387f565b6110d490848416613867565b816001600160a01b0316836001600160a01b03161415801561283b5750600081115b15610a20576001600160a01b038316156128c9576001600160a01b0383166000908152600660205260408120819061287690612d7885612d84565b91509150846001600160a01b03167fdec2bacdd2f05b59de34da9b523dff8be42e5e38e818c82fdb0bae774387a72483836040516128be929190918252602082015260400190565b60405180910390a250505b6001600160a01b03821615610a20576001600160a01b038216600090815260066020526040812081906128ff90612db285612d84565b91509150836001600160a01b03167fdec2bacdd2f05b59de34da9b523dff8be42e5e38e818c82fdb0bae774387a7248383604051612947929190918252602082015260400190565b60405180910390a25050505050565b60006001600160a01b0384163b15612a5857604051630a85bd0160e11b81526001600160a01b0385169063150b7a029061299a903390899088908890600401613599565b602060405180830381600087803b1580156129b457600080fd5b505af19250505080156129e4575060408051601f3d908101601f191682019092526129e19181019061338a565b60015b612a3e573d808015612a12576040519150601f19603f3d011682016040523d82523d6000602084013e612a17565b606091505b508051612a365760405162461bcd60e51b815260040161097f9061369e565b805181602001fd5b6001600160e01b031916630a85bd0160e11b149050611a90565b506001611a90565b6000807f7fffffffffffffffffffffffffffffff5d576e7357a4501ddfe92f46681b20a0831115612a975750600090506003612b44565b8460ff16601b14158015612aaf57508460ff16601c14155b15612ac05750600090506004612b44565b6040805160008082526020820180845289905260ff881692820192909252606081018690526080810185905260019060a0016020604051602081039080840390855afa158015612b14573d6000803e3d6000fd5b5050604051601f1901519150506001600160a01b038116612b3d57600060019250925050612b44565b9150600090505b94509492505050565b6000816004811115612b6157612b61613990565b1415612b6a5750565b6001816004811115612b7e57612b7e613990565b1415612bcc5760405162461bcd60e51b815260206004820152601860248201527f45434453413a20696e76616c6964207369676e61747572650000000000000000604482015260640161097f565b6002816004811115612be057612be0613990565b1415612c2e5760405162461bcd60e51b815260206004820152601f60248201527f45434453413a20696e76616c6964207369676e6174757265206c656e67746800604482015260640161097f565b6003816004811115612c4257612c42613990565b1415612c9b5760405162461bcd60e51b815260206004820152602260248201527f45434453413a20696e76616c6964207369676e6174757265202773272076616c604482015261756560f01b606482015260840161097f565b6004816004811115612caf57612caf613990565b14156110a05760405162461bcd60e51b815260206004820152602260248201527f45434453413a20696e76616c6964207369676e6174757265202776272076616c604482015261756560f01b606482015260840161097f565b6001600160a01b038316612d2757612d246007612db283612d84565b50505b6001600160a01b038216612d4657612d436007612d7883612d84565b50505b6001600160a01b03838116600090815260056020526040808220548584168352912054610a2092918216911683612819565b60006110d482846138c0565b600080612da685612da1612d97886120b4565b868863ffffffff16565b612dbe565b91509150935093915050565b60006110d48284613867565b8154600090819081612dcf866120b4565b9050600082118015612e0d57504386612de96001856138c0565b81548110612df957612df96139a6565b60009182526020909120015463ffffffff16145b15612e6d57612e1b85612ee9565b86612e276001856138c0565b81548110612e3757612e376139a6565b9060005260206000200160000160046101000a8154816001600160e01b0302191690836001600160e01b03160217905550612edb565b856000016040518060400160405280612e8543612f56565b63ffffffff168152602001612e9988612ee9565b6001600160e01b0390811690915282546001810184556000938452602093849020835194909301519091166401000000000263ffffffff909316929092179101555b9250839150505b9250929050565b60006001600160e01b03821115612f525760405162461bcd60e51b815260206004820152602760248201527f53616665436173743a2076616c756520646f65736e27742066697420696e20326044820152663234206269747360c81b606482015260840161097f565b5090565b600063ffffffff821115612f525760405162461bcd60e51b815260206004820152602660248201527f53616665436173743a2076616c756520646f65736e27742066697420696e203360448201526532206269747360d01b606482015260840161097f565b828054612fc79061392a565b90600052602060002090601f016020900481019282612fe9576000855561302f565b82601f106130025782800160ff1982351617855561302f565b8280016001018555821561302f579182015b8281111561302f578235825591602001919060010190613014565b50612f529291505b80821115612f525760008155600101613037565b803560ff8116811461305c57600080fd5b919050565b60006020828403121561307357600080fd5b81356110d4816139d2565b6000806040838503121561309157600080fd5b823561309c816139d2565b915060208301356130ac816139d2565b809150509250929050565b6000806000606084860312156130cc57600080fd5b83356130d7816139d2565b925060208401356130e7816139d2565b929592945050506040919091013590565b6000806000806080858703121561310e57600080fd5b8435613119816139d2565b93506020850135613129816139d2565b925060408501359150606085013567ffffffffffffffff81111561314c57600080fd5b8501601f8101871361315d57600080fd5b803561317061316b8261383f565b61380e565b81815288602083850101111561318557600080fd5b8160208401602083013760006020838301015280935050505092959194509250565b600080604083850312156131ba57600080fd5b82356131c5816139d2565b915060208301356130ac816139e7565b600080604083850312156131e857600080fd5b82356131f3816139d2565b946020939093013593505050565b60008060006060848603121561321657600080fd5b8335613221816139d2565b95602085013595506040909401359392505050565b60008060008060008060c0878903121561324f57600080fd5b863561325a816139d2565b955060208701359450604087013593506132766060880161304b565b92506080870135915060a087013590509295509295509295565b6000602082840312156132a257600080fd5b81516110d4816139e7565b600080604083850312156132c057600080fd5b8235915060208084013567ffffffffffffffff808211156132e057600080fd5b818601915086601f8301126132f457600080fd5b813581811115613306576133066139bc565b8060051b915061331784830161380e565b8181528481019084860184860187018b101561333257600080fd5b600095505b8386101561335c576133488161304b565b835260019590950194918601918601613337565b508096505050505050509250929050565b60006020828403121561337f57600080fd5b81356110d4816139f5565b60006020828403121561339c57600080fd5b81516110d4816139f5565b600080602083850312156133ba57600080fd5b823567ffffffffffffffff808211156133d257600080fd5b818501915085601f8301126133e657600080fd5b8135818111156133f557600080fd5b86602082850101111561340757600080fd5b60209290920196919550909350505050565b60006020828403121561342b57600080fd5b815167ffffffffffffffff81111561344257600080fd5b8201601f8101841361345357600080fd5b805161346161316b8261383f565b81815285602083850101111561347657600080fd5b6134878260208301602086016138fe565b95945050505050565b6000602082840312156134a257600080fd5b813567ffffffffffffffff8111156134b957600080fd5b820161018081850312156110d457600080fd5b6000602082840312156134de57600080fd5b813567ffffffffffffffff8111156134f557600080fd5b82016101a081850312156110d457600080fd5b60006020828403121561351a57600080fd5b813567ffffffffffffffff81111561353157600080fd5b820161020081850312156110d457600080fd5b60006020828403121561355657600080fd5b5035919050565b600081518084526135758160208601602086016138fe565b601f01601f19169290920160200192915050565b8183823760009101908152919050565b6001600160a01b0385811682528416602082015260408101839052608060608201819052600090611a0f9083018461355d565b60006020808301818452808551808352604092508286019150828160051b87010184880160005b8381101561367d57888303603f19018552815180516001600160801b031684528781015165ffffffffffff9081168986015287820151168785015260608082015161ffff908116918601919091526080808301519091169085015260a09081015160c0918501829052906136698186018361355d565b9689019694505050908601906001016135f3565b509098975050505050505050565b6020815260006110d4602083018461355d565b60208082526032908201527f4552433732313a207472616e7366657220746f206e6f6e20455243373231526560408201527131b2b4bb32b91034b6b83632b6b2b73a32b960711b606082015260800190565b6020808252602e908201527f4552433732313a2063616c6c6572206973206e6f7420746f6b656e206f776e6560408201526d1c881b9bdc88185c1c1c9bdd995960921b606082015260800190565b6001600160801b038716815265ffffffffffff86811660208301528516604082015261ffff84811660608301528316608082015260c060a0820181905260009061378a9083018461355d565b98975050505050505050565b8381526060602082015260006137af606083018561355d565b905060018060a01b0383166040830152949350505050565b6000808335601e198436030181126137de57600080fd5b83018035915067ffffffffffffffff8211156137f957600080fd5b602001915036819003821315612ee257600080fd5b604051601f8201601f1916810167ffffffffffffffff81118282101715613837576138376139bc565b604052919050565b600067ffffffffffffffff821115613859576138596139bc565b50601f01601f191660200190565b6000821982111561387a5761387a61397a565b500190565b60008261389c57634e487b7160e01b600052601260045260246000fd5b500490565b60008160001904831182151516156138bb576138bb61397a565b500290565b6000828210156138d2576138d261397a565b500390565b600065ffffffffffff838116908316818110156138f6576138f661397a565b039392505050565b60005b83811015613919578181015183820152602001613901565b8381111561136e5750506000910152565b600181811c9082168061393e57607f821691505b6020821081141561233a57634e487b7160e01b600052602260045260246000fd5b60006000198214156139735761397361397a565b5060010190565b634e487b7160e01b600052601160045260246000fd5b634e487b7160e01b600052602160045260246000fd5b634e487b7160e01b600052603260045260246000fd5b634e487b7160e01b600052604160045260246000fd5b6001600160a01b03811681146110a057600080fd5b80151581146110a057600080fd5b6001600160e01b0319811681146110a057600080fdfea264697066735822122090a0c975e1c17d75cfc8e34425eeb812741b9a0adc32b859e3a69aa8e8d248b764736f6c63430008060033",
    "linkReferences": {}
  },
  "methodIdentifiers": {
    "DOMAIN_SEPARATOR()": "3644e515",
    "allTiers()": "205e0c11",
    "approve(address,uint256)": "095ea7b3",
    "balanceOf(address)": "70a08231",
    "contractUri()": "c0e24d5e",
    "contributionToken()": "4bedf9a8",
    "delegate(address)": "5c19a95c",
    "delegateBySig(address,uint256,uint256,uint8,bytes32,bytes32)": "c3cda520",
    "delegates(address)": "587cde1e",
    "didPay((address,uint256,uint256,(address,uint256,uint256,uint256),uint256,address,bool,string,bytes))": "304b1eea",
    "directory()": "c41c2f24",
    "getApproved(uint256)": "081812fc",
    "getPastTotalSupply(uint256)": "8e539e8c",
    "getPastVotes(address,uint256)": "3a46b1a8",
    "getVotes(address)": "9ab24eb0",
    "getVotingUnits(address)": "abd050a6",
    "isApprovedForAll(address,address)": "e985e9c5",
    "mintReservesFor(address,uint256,uint256)": "289d3f79",
    "name()": "06fdde03",
    "nonces(address)": "7ecebe00",
    "numberOfReservedTokensOutstandingFor(uint256)": "1cf89a9a",
    "numberOfReservesMintedFor(uint256)": "9a5a13e0",
    "numberOfTiers()": "6e27a2e5",
    "owner()": "8da5cb5b",
    "ownerOf(uint256)": "6352211e",
    "ownerTokenBalanceOf(address,uint256)": "9b04139f",
    "payParams((address,address,(address,uint256,uint256,uint256),uint256,uint256,address,uint256,uint256,string,bytes))": "d46cf171",
    "projectId()": "3fafa127",
    "redeemParams((address,address,uint256,uint256,uint256,uint256,uint256,(address,uint256,uint256,uint256),bool,uint256,uint256,string,bytes))": "8dfc9598",
    "renounceOwnership()": "715018a6",
    "safeTransferFrom(address,address,uint256)": "42842e0e",
    "safeTransferFrom(address,address,uint256,bytes)": "b88d4fde",
    "setApprovalForAll(address,bool)": "a22cb465",
    "setContractUri(string)": "ccb4807b",
    "setTokenUriResolver(address)": "2407497e",
    "shouldMintByDefault()": "8ce79624",
    "supportsInterface(bytes4)": "01ffc9a7",
    "symbol()": "95d89b41",
    "tierBalanceOf(address,uint256)": "2b32e9ca",
    "tierIdOfToken(uint256)": "42f9914b",
    "tiers(uint256)": "039af9eb",
    "tokenSupplyOf(uint256)": "dcdfe0d9",
    "tokenURI(uint256)": "c87b56dd",
    "tokenUriResolver()": "e131fc0c",
    "totalOwnerBalanceOf(address)": "0c4ace18",
    "totalSupply()": "18160ddd",
    "transferFrom(address,address,uint256)": "23b872dd",
    "transferOwnership(address)": "f2fde38b"
  },
  "id": 0
}