{
  "abi": [
    {
      "inputs": [
        {
          "internalType": "contract IJBController",
          "name": "_controller",
          "type": "address"
        }
      ],
      "stateMutability": "nonpayable",
      "type": "constructor"
    },
    {
      "anonymous": false,
      "inputs": [
        {
          "indexed": true,
          "internalType": "uint256",
          "name": "projectId",
          "type": "uint256"
        },
        {
          "indexed": false,
          "internalType": "address",
          "name": "newDatasource",
          "type": "address"
        }
      ],
      "name": "DatasourceDeployed",
      "type": "event"
    },
    {
      "inputs": [],
      "name": "controller",
      "outputs": [
        {
          "internalType": "contract IJBController",
          "name": "",
          "type": "address"
        }
      ],
      "stateMutability": "view",
      "type": "function"
    },
    {
      "inputs": [
        {
          "internalType": "uint256",
          "name": "_projectId",
          "type": "uint256"
        },
        {
          "components": [
            {
              "internalType": "contract IJBDirectory",
              "name": "directory",
              "type": "address"
            },
            {
              "internalType": "string",
              "name": "name",
              "type": "string"
            },
            {
              "internalType": "string",
              "name": "symbol",
              "type": "string"
            },
            {
              "internalType": "contract IJBTokenUriResolver",
              "name": "tokenUriResolver",
              "type": "address"
            },
            {
              "internalType": "string",
              "name": "contractUri",
              "type": "string"
            },
            {
              "internalType": "address",
              "name": "owner",
              "type": "address"
            },
            {
              "internalType": "address",
              "name": "contributionToken",
              "type": "address"
            },
            {
              "components": [
                {
                  "internalType": "uint128",
                  "name": "contributionFloor",
                  "type": "uint128"
                },
                {
                  "internalType": "uint48",
                  "name": "remainingQuantity",
                  "type": "uint48"
                },
                {
                  "internalType": "uint48",
                  "name": "initialQuantity",
                  "type": "uint48"
                },
                {
                  "internalType": "uint16",
                  "name": "votingUnits",
                  "type": "uint16"
                },
                {
                  "internalType": "uint16",
                  "name": "reservedRate",
                  "type": "uint16"
                },
                {
                  "internalType": "string",
                  "name": "tokenUri",
                  "type": "string"
                }
              ],
              "internalType": "struct JBNFTRewardTier[]",
              "name": "tiers",
              "type": "tuple[]"
            },
            {
              "internalType": "bool",
              "name": "shouldMintByDefault",
              "type": "bool"
            }
          ],
          "internalType": "struct JBDeployTieredNFTRewardDataSourceData",
          "name": "_deployTieredNFTRewardDataSourceData",
          "type": "tuple"
        }
      ],
      "name": "deployDataSource",
      "outputs": [
        {
          "internalType": "address",
          "name": "newDatasource",
          "type": "address"
        }
      ],
      "stateMutability": "nonpayable",
      "type": "function"
    },
    {
      "inputs": [
        {
          "internalType": "address",
          "name": "_owner",
          "type": "address"
        },
        {
          "components": [
            {
              "internalType": "contract IJBDirectory",
              "name": "directory",
              "type": "address"
            },
            {
              "internalType": "string",
              "name": "name",
              "type": "string"
            },
            {
              "internalType": "string",
              "name": "symbol",
              "type": "string"
            },
            {
              "internalType": "contract IJBTokenUriResolver",
              "name": "tokenUriResolver",
              "type": "address"
            },
            {
              "internalType": "string",
              "name": "contractUri",
              "type": "string"
            },
            {
              "internalType": "address",
              "name": "owner",
              "type": "address"
            },
            {
              "internalType": "address",
              "name": "contributionToken",
              "type": "address"
            },
            {
              "components": [
                {
                  "internalType": "uint128",
                  "name": "contributionFloor",
                  "type": "uint128"
                },
                {
                  "internalType": "uint48",
                  "name": "remainingQuantity",
                  "type": "uint48"
                },
                {
                  "internalType": "uint48",
                  "name": "initialQuantity",
                  "type": "uint48"
                },
                {
                  "internalType": "uint16",
                  "name": "votingUnits",
                  "type": "uint16"
                },
                {
                  "internalType": "uint16",
                  "name": "reservedRate",
                  "type": "uint16"
                },
                {
                  "internalType": "string",
                  "name": "tokenUri",
                  "type": "string"
                }
              ],
              "internalType": "struct JBNFTRewardTier[]",
              "name": "tiers",
              "type": "tuple[]"
            },
            {
              "internalType": "bool",
              "name": "shouldMintByDefault",
              "type": "bool"
            }
          ],
          "internalType": "struct JBDeployTieredNFTRewardDataSourceData",
          "name": "_deployTieredNFTRewardDataSourceData",
          "type": "tuple"
        },
        {
          "components": [
            {
              "components": [
                {
                  "internalType": "string",
                  "name": "content",
                  "type": "string"
                },
                {
                  "internalType": "uint256",
                  "name": "domain",
                  "type": "uint256"
                }
              ],
              "internalType": "struct JBProjectMetadata",
              "name": "projectMetadata",
              "type": "tuple"
            },
            {
              "components": [
                {
                  "internalType": "uint256",
                  "name": "duration",
                  "type": "uint256"
                },
                {
                  "internalType": "uint256",
                  "name": "weight",
                  "type": "uint256"
                },
                {
                  "internalType": "uint256",
                  "name": "discountRate",
                  "type": "uint256"
                },
                {
                  "internalType": "contract IJBFundingCycleBallot",
                  "name": "ballot",
                  "type": "address"
                }
              ],
              "internalType": "struct JBFundingCycleData",
              "name": "data",
              "type": "tuple"
            },
            {
              "components": [
                {
                  "components": [
                    {
                      "internalType": "bool",
                      "name": "allowSetTerminals",
                      "type": "bool"
                    },
                    {
                      "internalType": "bool",
                      "name": "allowSetController",
                      "type": "bool"
                    }
                  ],
                  "internalType": "struct JBGlobalFundingCycleMetadata",
                  "name": "global",
                  "type": "tuple"
                },
                {
                  "internalType": "uint256",
                  "name": "reservedRate",
                  "type": "uint256"
                },
                {
                  "internalType": "uint256",
                  "name": "redemptionRate",
                  "type": "uint256"
                },
                {
                  "internalType": "uint256",
                  "name": "ballotRedemptionRate",
                  "type": "uint256"
                },
                {
                  "internalType": "bool",
                  "name": "pausePay",
                  "type": "bool"
                },
                {
                  "internalType": "bool",
                  "name": "pauseDistributions",
                  "type": "bool"
                },
                {
                  "internalType": "bool",
                  "name": "pauseRedeem",
                  "type": "bool"
                },
                {
                  "internalType": "bool",
                  "name": "pauseBurn",
                  "type": "bool"
                },
                {
                  "internalType": "bool",
                  "name": "allowMinting",
                  "type": "bool"
                },
                {
                  "internalType": "bool",
                  "name": "allowChangeToken",
                  "type": "bool"
                },
                {
                  "internalType": "bool",
                  "name": "allowTerminalMigration",
                  "type": "bool"
                },
                {
                  "internalType": "bool",
                  "name": "allowControllerMigration",
                  "type": "bool"
                },
                {
                  "internalType": "bool",
                  "name": "holdFees",
                  "type": "bool"
                },
                {
                  "internalType": "bool",
                  "name": "useTotalOverflowForRedemptions",
                  "type": "bool"
                },
                {
                  "internalType": "bool",
                  "name": "useDataSourceForPay",
                  "type": "bool"
                },
                {
                  "internalType": "bool",
                  "name": "useDataSourceForRedeem",
                  "type": "bool"
                },
                {
                  "internalType": "address",
                  "name": "dataSource",
                  "type": "address"
                }
              ],
              "internalType": "struct JBFundingCycleMetadata",
              "name": "metadata",
              "type": "tuple"
            },
            {
              "internalType": "uint256",
              "name": "mustStartAtOrAfter",
              "type": "uint256"
            },
            {
              "components": [
                {
                  "internalType": "uint256",
                  "name": "group",
                  "type": "uint256"
                },
                {
                  "components": [
                    {
                      "internalType": "bool",
                      "name": "preferClaimed",
                      "type": "bool"
                    },
                    {
                      "internalType": "bool",
                      "name": "preferAddToBalance",
                      "type": "bool"
                    },
                    {
                      "internalType": "uint256",
                      "name": "percent",
                      "type": "uint256"
                    },
                    {
                      "internalType": "uint256",
                      "name": "projectId",
                      "type": "uint256"
                    },
                    {
                      "internalType": "address payable",
                      "name": "beneficiary",
                      "type": "address"
                    },
                    {
                      "internalType": "uint256",
                      "name": "lockedUntil",
                      "type": "uint256"
                    },
                    {
                      "internalType": "contract IJBSplitAllocator",
                      "name": "allocator",
                      "type": "address"
                    }
                  ],
                  "internalType": "struct JBSplit[]",
                  "name": "splits",
                  "type": "tuple[]"
                }
              ],
              "internalType": "struct JBGroupedSplits[]",
              "name": "groupedSplits",
              "type": "tuple[]"
            },
            {
              "components": [
                {
                  "internalType": "contract IJBPaymentTerminal",
                  "name": "terminal",
                  "type": "address"
                },
                {
                  "internalType": "address",
                  "name": "token",
                  "type": "address"
                },
                {
                  "internalType": "uint256",
                  "name": "distributionLimit",
                  "type": "uint256"
                },
                {
                  "internalType": "uint256",
                  "name": "distributionLimitCurrency",
                  "type": "uint256"
                },
                {
                  "internalType": "uint256",
                  "name": "overflowAllowance",
                  "type": "uint256"
                },
                {
                  "internalType": "uint256",
                  "name": "overflowAllowanceCurrency",
                  "type": "uint256"
                }
              ],
              "internalType": "struct JBFundAccessConstraints[]",
              "name": "fundAccessConstraints",
              "type": "tuple[]"
            },
            {
              "internalType": "contract IJBPaymentTerminal[]",
              "name": "terminals",
              "type": "address[]"
            },
            {
              "internalType": "string",
              "name": "memo",
              "type": "string"
            }
          ],
          "internalType": "struct JBLaunchProjectData",
          "name": "_launchProjectData",
          "type": "tuple"
        }
      ],
      "name": "launchProjectFor",
      "outputs": [
        {
          "internalType": "uint256",
          "name": "projectId",
          "type": "uint256"
        }
      ],
      "stateMutability": "nonpayable",
      "type": "function"
    }
  ],
  "bytecode": {
    "object": "0x60a060405234801561001057600080fd5b50604051615a97380380615a9783398101604081905261002f91610044565b60601b6001600160601b031916608052610074565b60006020828403121561005657600080fd5b81516001600160a01b038116811461006d57600080fd5b9392505050565b60805160601c6159f861009f6000396000818160ab0152818161018a01526102dc01526159f86000f3fe60806040523480156200001157600080fd5b5060043610620000465760003560e01c806394abac40146200004b578063e146effb146200007f578063f77c479114620000a5575b600080fd5b620000626200005c36600462000e26565b620000cd565b6040516001600160a01b0390911681526020015b60405180910390f35b620000966200009036600462000c5f565b62000186565b60405190815260200162000076565b620000627f000000000000000000000000000000000000000000000000000000000000000081565b600082826000015183602001518460400151856060015186608001518760a001518860c001518960e001518a61010001516040516200010c90620003b3565b620001219a999897969594939291906200129a565b604051809103906000f0801580156200013e573d6000803e3d6000fd5b506040516001600160a01b038216815290915083907fed75747d95d7af23fca2f0c7ea1a9300a4918aab9ba10da8322fd3d807ba21ae9060200160405180910390a292915050565b60007f00000000000000000000000000000000000000000000000000000000000000006001600160a01b0316638b79543c6040518163ffffffff1660e01b815260040160206040518083038186803b158015620001e257600080fd5b505afa158015620001f7573d6000803e3d6000fd5b505050506040513d601f19601f820116820180604052508101906200021d919062000de5565b6001600160a01b03166306661abd6040518163ffffffff1660e01b815260040160206040518083038186803b1580156200025657600080fd5b505afa1580156200026b573d6000803e3d6000fd5b505050506040513d601f19601f8201168201806040525081019062000291919062000e0c565b6200029e9060016200151f565b90506000620002ae8285620000cd565b60408401516001600160a01b038216610200909101529050620002d28584620002da565b509392505050565b7f00000000000000000000000000000000000000000000000000000000000000006001600160a01b0316637fc19af583836000015184602001518560400151866060015187608001518860a001518960c001518a60e001516040518a63ffffffff1660e01b81526004016200035899989796959493929190620011a5565b602060405180830381600087803b1580156200037357600080fd5b505af115801562000388573d6000803e3d6000fd5b505050506040513d601f19601f82011682018060405250810190620003ae919062000e0c565b505050565b61444d806200157683390190565b8035620003ce816200155c565b919050565b600082601f830112620003e557600080fd5b81356020620003fe620003f883620014f9565b620014c6565b80838252828201915082860187848660051b89010111156200041f57600080fd5b60005b858110156200044b57813562000438816200155c565b8452928401929084019060010162000422565b5090979650505050505050565b600082601f8301126200046a57600080fd5b813560206200047d620003f883620014f9565b8281528181019085830160c0808602880185018910156200049d57600080fd5b6000805b87811015620005205782848c031215620004b9578182fd5b620004c3620013df565b8435620004d0816200155c565b815284880135620004e1816200155c565b8189015260408581013590820152606080860135908201526080808601359082015260a0808601359082015286529486019492820192600101620004a1565b50929998505050505050505050565b600082601f8301126200054157600080fd5b602062000553620003f88435620014f9565b808435825282820191508285018684873560051b88010111156200057657600080fd5b60005b8635811015620006e2576001600160401b0380833511156200059a57600080fd5b823588016040818b03601f19011215620005b357600080fd5b620005bd6200140a565b878201358152604082013583811115620005d657600080fd5b82019250603f83018b13620005ea57600080fd5b878301359150620005ff620003f883620014f9565b808382528982019150604085018d604060e0870288010111156200062257600080fd5b600095505b84861015620006c75760e0818f0312156200064157600080fd5b6200064b6200142f565b620006568262000824565b8152620006658c830162000824565b8c820152604082013560408201526060820135606082015260808201356200068d816200155c565b608082015260a0828101359082015260c0820135620006ac816200155c565b60c0820152835260019590950194918a019160e00162000627565b50828a01525086525050928401929084019060010162000579565b50909695505050505050565b600082601f8301126200070057600080fd5b8135602062000713620003f883620014f9565b80838252828201915082860187848660051b89010111156200073457600080fd5b60005b858110156200044b5781356001600160401b03808211156200075857600080fd5b9089019060c0828c03601f19018113156200077257600080fd5b6200077c620013df565b888401356001600160801b03811681146200079657600080fd5b81526040620007a785820162000c48565b8a8301526060620007ba81870162000c48565b8284015260809150620007cf82870162000c35565b9083015260a0620007e286820162000c35565b83830152928501359284841115620007f957600080fd5b620008098f8c8689010162000835565b90830152508752505050928401929084019060010162000737565b80358015158114620003ce57600080fd5b600082601f8301126200084757600080fd5b81356001600160401b0381111562000863576200086362001546565b62000878601f8201601f1916602001620014c6565b8181528460208386010111156200088e57600080fd5b816020850160208301376000918101602001919091529392505050565b60006101208284031215620008bf57600080fd5b620008c962001454565b9050620008d682620003c1565b815260208201356001600160401b0380821115620008f357600080fd5b620009018583860162000835565b602084015260408401359150808211156200091b57600080fd5b620009298583860162000835565b60408401526200093c60608501620003c1565b606084015260808401359150808211156200095657600080fd5b620009648583860162000835565b60808401526200097760a08501620003c1565b60a08401526200098a60c08501620003c1565b60c084015260e0840135915080821115620009a457600080fd5b50620009b384828501620006ee565b60e083015250610100620009c981840162000824565b9082015292915050565b600060808284031215620009e657600080fd5b604051608081018181106001600160401b038211171562000a0b5762000a0b62001546565b8060405250809150823581526020830135602082015260408301356040820152606083013562000a3b816200155c565b6060919091015292915050565b6000610240828403121562000a5c57600080fd5b62000a666200147a565b905062000a74838362000b99565b815260408201356020820152606082013560408201526080820135606082015262000aa260a0830162000824565b608082015262000ab560c0830162000824565b60a082015262000ac860e0830162000824565b60c082015261010062000add81840162000824565b60e083015261012062000af281850162000824565b82840152610140915062000b0882850162000824565b9083015261016062000b1c84820162000824565b82840152610180915062000b3282850162000824565b908301526101a062000b4684820162000824565b828401526101c0915062000b5c82850162000824565b908301526101e062000b7084820162000824565b82840152610200915062000b8682850162000824565b90830152620009c96102208401620003c1565b60006040828403121562000bac57600080fd5b62000bb66200140a565b905062000bc38262000824565b815262000bd36020830162000824565b602082015292915050565b60006040828403121562000bf157600080fd5b62000bfb6200140a565b905081356001600160401b0381111562000c1457600080fd5b62000c228482850162000835565b8252506020820135602082015292915050565b803561ffff81168114620003ce57600080fd5b803565ffffffffffff81168114620003ce57600080fd5b60008060006060848603121562000c7557600080fd5b833562000c82816200155c565b925060208401356001600160401b038082111562000c9f57600080fd5b62000cad87838801620008ab565b9350604086013591508082111562000cc457600080fd5b90850190610380828803121562000cda57600080fd5b62000ce4620014a0565b82358281111562000cf457600080fd5b62000d028982860162000bde565b82525062000d148860208501620009d3565b602082015262000d288860a0850162000a48565b60408201526102e083013560608201526103008301358281111562000d4c57600080fd5b62000d5a898286016200052f565b6080830152506103208301358281111562000d7457600080fd5b62000d828982860162000458565b60a0830152506103408301358281111562000d9c57600080fd5b62000daa89828601620003d3565b60c0830152506103608301358281111562000dc457600080fd5b62000dd28982860162000835565b60e0830152508093505050509250925092565b60006020828403121562000df857600080fd5b815162000e05816200155c565b9392505050565b60006020828403121562000e1f57600080fd5b5051919050565b6000806040838503121562000e3a57600080fd5b8235915060208301356001600160401b0381111562000e5857600080fd5b62000e6685828601620008ab565b9150509250929050565b600081518084526020808501945080840160005b8381101562000eab5781516001600160a01b03168752958201959082019060010162000e84565b509495945050505050565b600081518084526020808501945080840160005b8381101562000eab57815180516001600160a01b03908116895284820151168489015260408082015190890152606080820151908901526080808201519089015260a0908101519088015260c0909601959082019060010162000eca565b600081518084526020808501808196508360051b810191508286016000805b8681101562000ffe578385038a52825180518652860151604087870181905281518188018190529188019160609081890190865b8181101562000fe65785518051151584528c81015115158d850152858101518685015284810151858501526080808201516001600160a01b039081169186019190915260a0808301519086015260c0918201511690840152948b019460e09092019160010162000f7b565b50509c89019c97505050928601925060010162000f47565b509298975050505050505050565b6000815180845260005b81811015620010345760208185018101518683018201520162001016565b8181111562001047576000602083870101525b50601f01601f19169290920160200192915050565b620010768282518051151582526020908101511515910152565b6020810151604083015260408101516060830152606081015160808301526080810151620010a860a084018215159052565b5060a081015180151560c08401525060c081015180151560e08401525060e0810151610100620010db8185018315159052565b8201519050610120620010f18482018315159052565b8201519050610140620011078482018315159052565b82015190506101606200111d8482018315159052565b8201519050610180620011338482018315159052565b82015190506101a0620011498482018315159052565b82015190506101c06200115f8482018315159052565b82015190506101e0620011758482018315159052565b82015190506102006200118b8482018315159052565b8201516001600160a01b0381166102208501529050505050565b6001600160a01b038a1681526103a060208201819052895160408383015260009190620011d76103e08501826200100c565b91505060208b01516103c08401526200121a604084018b8051825260208082015190830152604080820151908301526060908101516001600160a01b0316910152565b6200122960c084018a6200105c565b8761030084015282810361032084015262001245818862000f28565b90508281036103408401526200125c818762000eb6565b905082810361036084015262001273818662000e70565b90508281036103808401526200128a81856200100c565b9c9b505050505050505050505050565b60006101408c8352602060018060a01b03808e168286015260408381870152620012c78487018f6200100c565b9350606086850381880152620012de858f6200100c565b94506080838e168189015260a0888703818a0152620012fe878f6200100c565b965060c0858e16818b0152858d1660e08b01528988036101008b01528795508b518089528789019650878160051b8a0101888e0160005b83811015620013b3578b8303601f19018a52815180516001600160801b031684528b81015165ffffffffffff9081168d8601528a820151168a8501528881015161ffff9081168a8601528882015116888501528601518684018690526200139f868501826200100c565b9a8c019a935050908a019060010162001335565b50508c15156101208d01529950620013d098505050505050505050565b9b9a5050505050505050505050565b60405160c081016001600160401b038111828210171562001404576200140462001546565b60405290565b604080519081016001600160401b038111828210171562001404576200140462001546565b60405160e081016001600160401b038111828210171562001404576200140462001546565b60405161012081016001600160401b038111828210171562001404576200140462001546565b60405161022081016001600160401b038111828210171562001404576200140462001546565b60405161010081016001600160401b038111828210171562001404576200140462001546565b604051601f8201601f191681016001600160401b0381118282101715620014f157620014f162001546565b604052919050565b60006001600160401b0382111562001515576200151562001546565b5060051b60200190565b600082198211156200154157634e487b7160e01b600052601160045260246000fd5b500190565b634e487b7160e01b600052604160045260246000fd5b6001600160a01b03811681146200157257600080fd5b5056fe6101e06040523480156200001257600080fd5b506040516200444d3803806200444d8339810160408190526200003591620006fe565b8989898989898984604051806040016040528060018152602001603160f81b815250868681600090805190602001906200007192919062000417565b5080516200008790600190602084019062000417565b5050825160208085019190912083518483012060e08290526101008190524660a0818152604080517f8b73c3c69bb8fe3d512ecc4cf759cc79239f7b179b0ffacaa9a75d522b39400f81880181905281830187905260608201869052608082019490945230818401528151808203909301835260c0019052805194019390932091935091906080523060601b60c05261012052506200013292506200012c9150503390565b620003c5565b610140879052606086901b6001600160601b03191661016052600a80546001600160a01b0319166001600160a01b03851617905581516200017b90600b90602085019062000417565b506001600160a01b0381161562000197576200019781620003c5565b5050505050606085811b6001600160601b0319166101805283151560f81b6101c05284516101a08190526040805160c081018252600080825260208201819052918101829052808401829052608081019190915260a08101929092529250905060005b82811015620003b25784818151811062000218576200021862000907565b60200260200101519150816020015165ffffffffffff16600014156200025157604051631e0a863160e31b815260040160405180910390fd5b8015801590620002a25750846200026a6001836200089a565b815181106200027d576200027d62000907565b6020026020010151600001516001600160801b031682600001516001600160801b0316105b15620002c1576040516325ec4a9160e21b815260040160405180910390fd5b602082015165ffffffffffff16604083015281600c6000620002e58460016200087f565b81526020808201929092526040908101600020835181548585015193860151606087015160808801516001600160801b039094166001600160b01b031990931692909217600160801b65ffffffffffff9687160217600160b01b600160f01b031916600160b01b959091169490940261ffff60e01b191693909317600160e01b61ffff94851602176001600160f01b0316600160f01b939091169290920291909117815560a083015180519192620003a69260018501929091019062000417565b505050600101620001fa565b5050505050505050505050505062000933565b600980546001600160a01b038381166001600160a01b0319831681179093556040519116919082907f8be0079c531659141344cd1fd0a4f28419497f9722a3daafe3b4186f6b6457e090600090a35050565b8280546200042590620008b4565b90600052602060002090601f01602090048101928262000449576000855562000494565b82601f106200046457805160ff191683800117855562000494565b8280016001018555821562000494579182015b828111156200049457825182559160200191906001019062000477565b50620004a2929150620004a6565b5090565b5b80821115620004a25760008155600101620004a7565b80516001600160a01b0381168114620004d557600080fd5b919050565b600082601f830112620004ec57600080fd5b815160206001600160401b03808311156200050b576200050b6200091d565b8260051b6200051c8382016200084c565b8481528381019087850183890186018a10156200053857600080fd5b600093505b8684101562000621578051858111156200055657600080fd5b890160c0818c03601f19018113156200056e57600080fd5b6200057862000821565b828901516001600160801b03811681146200059257600080fd5b81526040620005a3848201620006e7565b8a8301526060620005b6818601620006e7565b8284015260809150620005cb828601620006d4565b9083015260a0620005de858201620006d4565b83830152928401519289841115620005f557600080fd5b620006058f8c868801016200063f565b908301525085525050600193909301929185019185016200053d565b5098975050505050505050565b80518015158114620004d557600080fd5b600082601f8301126200065157600080fd5b81516001600160401b038111156200066d576200066d6200091d565b602062000683601f8301601f191682016200084c565b82815285828487010111156200069857600080fd5b60005b83811015620006b85785810183015182820184015282016200069b565b83811115620006ca5760008385840101525b5095945050505050565b805161ffff81168114620004d557600080fd5b805165ffffffffffff81168114620004d557600080fd5b6000806000806000806000806000806101408b8d0312156200071f57600080fd5b8a5199506200073160208c01620004bd565b60408c01519099506001600160401b03808211156200074f57600080fd5b6200075d8e838f016200063f565b995060608d01519150808211156200077457600080fd5b620007828e838f016200063f565b98506200079260808e01620004bd565b975060a08d0151915080821115620007a957600080fd5b620007b78e838f016200063f565b9650620007c760c08e01620004bd565b9550620007d760e08e01620004bd565b94506101008d0151915080821115620007ef57600080fd5b50620007fe8d828e01620004da565b925050620008106101208c016200062e565b90509295989b9194979a5092959850565b60405160c081016001600160401b03811182821017156200084657620008466200091d565b60405290565b604051601f8201601f191681016001600160401b03811182821017156200087757620008776200091d565b604052919050565b60008219821115620008955762000895620008f1565b500190565b600082821015620008af57620008af620008f1565b500390565b600181811c90821680620008c957607f821691505b60208210811415620008eb57634e487b7160e01b600052602260045260246000fd5b50919050565b634e487b7160e01b600052601160045260246000fd5b634e487b7160e01b600052603260045260246000fd5b634e487b7160e01b600052604160045260246000fd5b60805160a05160c05160601c60e0516101005161012051610140516101605160601c6101805160601c6101a0516101c05160f81c613a4162000a0c6000396000818161054b0152611d770152600081816104f601528181610a3501528181610bcd01528181611169015281816121e3015261269b01526000818161047d0152611cd101526000818161065a0152610fc701526000818161042f01528181610f9b015261105201526000611e4401526000611e9301526000611e6e01526000611dc701526000611df101526000611e1b0152613a416000f3fe608060405234801561001057600080fd5b50600436106102a05760003560e01c806370a0823111610167578063abd050a6116100ce578063ccb4807b11610087578063ccb4807b1461068f578063d46cf171146106a2578063dcdfe0d9146106b5578063e131fc0c146106c8578063e985e9c5146106db578063f2fde38b1461071757600080fd5b8063abd050a614610614578063b88d4fde14610627578063c0e24d5e1461063a578063c3cda52014610642578063c41c2f2414610655578063c87b56dd1461067c57600080fd5b80638e539e8c116101205780638e539e8c146105a057806395d89b41146105b35780639a5a13e0146105bb5780639ab24eb0146105db5780639b04139f146105ee578063a22cb4651461060157600080fd5b806370a0823114610518578063715018a61461052b5780637ecebe00146105335780638ce79624146105465780638da5cb5b1461056d5780638dfc95981461057e57600080fd5b80632b32e9ca1161020b57806342f9914b116101c457806342f9914b146104645780634bedf9a814610478578063587cde1e1461049f5780635c19a95c146104cb5780636352211e146104de5780636e27a2e5146104f157600080fd5b80632b32e9ca146103d1578063304b1eea146103fc5780633644e5151461040f5780633a46b1a8146104175780633fafa1271461042a57806342842e0e1461045157600080fd5b806318160ddd1161025d57806318160ddd146103685780631cf89a9a14610370578063205e0c111461038357806323b872dd146103985780632407497e146103ab578063289d3f79146103be57600080fd5b806301ffc9a7146102a5578063039af9eb146102cd57806306fdde03146102f2578063081812fc14610307578063095ea7b3146103325780630c4ace1814610347575b600080fd5b6102b86102b336600461336d565b61072a565b60405190151581526020015b60405180910390f35b6102e06102db366004613544565b610770565b6040516102c49695949392919061373e565b6102fa610851565b6040516102c4919061368b565b61031a610315366004613544565b6108e3565b6040516001600160a01b0390911681526020016102c4565b6103456103403660046131d5565b61090a565b005b61035a610355366004613061565b610a25565b6040519081526020016102c4565b61035a610a30565b61035a61037e366004613544565b610ab4565b61038b610bc9565b6040516102c491906135cc565b6103456103a63660046130b7565b610db1565b6103456103b9366004613061565b610de2565b6103456103cc366004613201565b610e3e565b61035a6103df3660046131d5565b600d60209081526000928352604080842090915290825290205481565b61034561040a366004613490565b610f8c565b61035a6110a3565b61035a6104253660046131d5565b6110b2565b61035a7f000000000000000000000000000000000000000000000000000000000000000081565b61034561045f3660046130b7565b6110db565b61035a610472366004613544565b60ff1690565b61031a7f000000000000000000000000000000000000000000000000000000000000000081565b61031a6104ad366004613061565b6001600160a01b039081166000908152600560205260409020541690565b6103456104d9366004613061565b6110f6565b61031a6104ec366004613544565b611105565b61035a7f000000000000000000000000000000000000000000000000000000000000000081565b61035a610526366004613061565b611165565b6103456111d0565b61035a610541366004613061565b6111e4565b6102b87f000000000000000000000000000000000000000000000000000000000000000081565b6009546001600160a01b031661031a565b61059161058c366004613508565b611202565b6040516102c493929190613796565b61035a6105ae366004613544565b611263565b6102fa6112bf565b61035a6105c9366004613544565b600e6020526000908152604090205481565b61035a6105e9366004613061565b6112ce565b61035a6105fc3660046131d5565b6112ef565b61034561060f3660046131a7565b611326565b61035a610622366004613061565b611331565b6103456106353660046130f8565b61133c565b6102fa611374565b610345610650366004613236565b611402565b61031a7f000000000000000000000000000000000000000000000000000000000000000081565b6102fa61068a366004613544565b61152f565b61034561069d3660046133a7565b611698565b6105916106b03660046134cc565b6116fb565b61035a6106c3366004613544565b61175b565b600a5461031a906001600160a01b031681565b6102b86106e936600461307e565b6001600160a01b03918216600090815260046020908152604080832093909416825291909152205460ff1690565b610345610725366004613061565b611789565b60006001600160e01b03198216637cd7e2e360e11b148061075b57506001600160e01b03198216635387308360e01b145b8061076a575061076a826117ff565b92915050565b600c60205260009081526040902080546001820180546001600160801b0383169365ffffffffffff600160801b8504811694600160b01b81049091169361ffff600160e01b8304811694600160f01b9093041692916107ce9061392a565b80601f01602080910402602001604051908101604052809291908181526020018280546107fa9061392a565b80156108475780601f1061081c57610100808354040283529160200191610847565b820191906000526020600020905b81548152906001019060200180831161082a57829003601f168201915b5050505050905086565b6060600080546108609061392a565b80601f016020809104026020016040519081016040528092919081815260200182805461088c9061392a565b80156108d95780601f106108ae576101008083540402835291602001916108d9565b820191906000526020600020905b8154815290600101906020018083116108bc57829003601f168201915b5050505050905090565b60006108ee8261185a565b506000908152600360205260409020546001600160a01b031690565b600061091582611105565b9050806001600160a01b0316836001600160a01b031614156109885760405162461bcd60e51b815260206004820152602160248201527f4552433732313a20617070726f76616c20746f2063757272656e74206f776e656044820152603960f91b60648201526084015b60405180910390fd5b336001600160a01b03821614806109a457506109a481336106e9565b610a165760405162461bcd60e51b815260206004820152603e60248201527f4552433732313a20617070726f76652063616c6c6572206973206e6f7420746f60448201527f6b656e206f776e6572206e6f7220617070726f76656420666f7220616c6c0000606482015260840161097f565b610a2083836118b9565b505050565b600061076a82611165565b6000807f0000000000000000000000000000000000000000000000000000000000000000805b8015610aae576000818152600c602052604090208054909350610a919065ffffffffffff600160801b8204811691600160b01b9004166138d7565b610aa39065ffffffffffff1685613867565b935060001901610a56565b50505090565b6000818152600c60209081526040808320815160c08101835281546001600160801b038116825265ffffffffffff600160801b8204811695830195909552600160b01b81049094169281019290925261ffff600160e01b840481166060840152600160f01b909304909216608082015260018201805461076a93869392909160a084019190610b429061392a565b80601f0160208091040260200160405190810160405280929190818152602001828054610b6e9061392a565b8015610bbb5780601f10610b9057610100808354040283529160200191610bbb565b820191906000526020600020905b815481529060010190602001808311610b9e57829003601f168201915b505050505081525050611927565b60607f00000000000000000000000000000000000000000000000000000000000000008067ffffffffffffffff811115610c0557610c056139bc565b604051908082528060200260200182016040528015610c6757816020015b6040805160c081018252600080825260208083018290529282018190526060808301829052608083019190915260a08201528252600019909201910181610c235790505b509150805b8015610dac576000818152600c6020908152604091829020825160c08101845281546001600160801b038116825265ffffffffffff600160801b8204811694830194909452600160b01b81049093169381019390935261ffff600160e01b830481166060850152600160f01b909204909116608083015260018101805460a084019190610cf89061392a565b80601f0160208091040260200160405190810160405280929190818152602001828054610d249061392a565b8015610d715780601f10610d4657610100808354040283529160200191610d71565b820191906000526020600020905b815481529060010190602001808311610d5457829003601f168201915b50505050508152505083600183610d8891906138c0565b81518110610d9857610d986139a6565b602090810291909101015260001901610c6c565b505090565b610dbb3382611a19565b610dd75760405162461bcd60e51b815260040161097f906136f0565b610a20838383611a98565b610dea611bde565b600a80546001600160a01b0319166001600160a01b0383169081179091556040513381527fe7784d93cfbfa4408e19577e6cc0436f4dbb51214b70e100905dfce9def88c169060200160405180910390a250565b610e46611bde565b6000828152600c60209081526040808320815160c08101835281546001600160801b038116825265ffffffffffff600160801b8204811695830195909552600160b01b81049094169281019290925261ffff600160e01b840481166060840152600160f01b9093049092166080820152600182018054929392610ed79287929091869160a0840191610b429061392a565b905080831115610efa5760405163226f999960e11b815260040160405180910390fd5b6000848152600e602052604081208054859290610f18908490613867565b90915550600090505b83811015610f84576000610f36868589611c38565b6040513381529091506001600160a01b03881690879083907f031e1988c95a91ec4d655ff63a8f87a80bc9daf28d95ae10ee08c0022cfb5c8b9060200160405180910390a450600101610f21565b505050505050565b604051636e49181f60e01b81527f000000000000000000000000000000000000000000000000000000000000000060048201523360248201527f00000000000000000000000000000000000000000000000000000000000000006001600160a01b031690636e49181f9060440160206040518083038186803b15801561101157600080fd5b505afa158015611025573d6000803e3d6000fd5b505050506040513d601f19601f820116820180604052508101906110499190613290565b158061107957507f0000000000000000000000000000000000000000000000000000000000000000816020013514155b15611097576040516331c57b1b60e21b815260040160405180910390fd5b6110a081611cc7565b50565b60006110ad611dba565b905090565b6001600160a01b03821660009081526006602052604081206110d49083611ee1565b9392505050565b610a208383836040518060200160405280600081525061133c565b336111018183611ff0565b5050565b6000818152600260205260408120546001600160a01b03168061076a5760405162461bcd60e51b8152602060048201526018602482015277115490cdcc8c4e881a5b9d985b1a59081d1bdad95b88125160421b604482015260640161097f565b60007f0000000000000000000000000000000000000000000000000000000000000000805b80156111c9576001600160a01b0384166000908152600d602090815260408083208484529091529020546111be9084613867565b92506000190161118a565b5050919050565b6111d8611bde565b6111e26000612062565b565b6001600160a01b03811660009081526008602052604081205461076a565b600060608161010084013561121b6101c08601866137c7565b600082828080601f016020809104026020016040519081016040528093929190818152602001838380828437600092019190915250969b929a50929850909650505050505050565b60004382106112b45760405162461bcd60e51b815260206004820152601a60248201527f566f7465733a20626c6f636b206e6f7420796574206d696e6564000000000000604482015260640161097f565b61076a600783611ee1565b6060600180546108609061392a565b6001600160a01b038116600090815260066020526040812061076a906120b4565b6000826001600160a01b031661130483611105565b6001600160a01b03161461131957600061131c565b60015b60ff169392505050565b611101338383612110565b600061076a826121df565b6113463383611a19565b6113625760405162461bcd60e51b815260040161097f906136f0565b61136e8484848461226f565b50505050565b600b80546113819061392a565b80601f01602080910402602001604051908101604052809291908181526020018280546113ad9061392a565b80156113fa5780601f106113cf576101008083540402835291602001916113fa565b820191906000526020600020905b8154815290600101906020018083116113dd57829003601f168201915b505050505081565b834211156114525760405162461bcd60e51b815260206004820152601860248201527f566f7465733a207369676e617475726520657870697265640000000000000000604482015260640161097f565b604080517fe48329057bfd03d55e49b547132e39cffd9c1820ad7b9d4c5307691425d15adf60208201526001600160a01b0388169181019190915260608101869052608081018590526000906114cc906114c49060a001604051602081830303815290604052805190602001206122a2565b8585856122f0565b90506114d781612318565b861461151c5760405162461bcd60e51b8152602060048201526014602482015273566f7465733a20696e76616c6964206e6f6e636560601b604482015260640161097f565b6115268188611ff0565b50505050505050565b6000818152600260205260409020546060906001600160a01b031661156257505060408051602081019091526000815290565b600a546001600160a01b0316156115f357600a54604051636d02a25560e11b8152600481018490526001600160a01b039091169063da0544aa9060240160006040518083038186803b1580156115b757600080fd5b505afa1580156115cb573d6000803e3d6000fd5b505050506040513d6000823e601f3d908101601f1916820160405261076a9190810190613419565b60ff82166000908152600c6020526040902060010180546116139061392a565b80601f016020809104026020016040519081016040528092919081815260200182805461163f9061392a565b801561168c5780601f106116615761010080835404028352916020019161168c565b820191906000526020600020905b81548152906001019060200180831161166f57829003601f168201915b50505050509050919050565b6116a0611bde565b6116ac600b8383612fbb565b5081816040516116bd929190613589565b604051908190038120338252907fd36dc0c1a06103fdcaf15f3f6fb797d1a97997514c78de073640c8b5005454b89060200160405180910390a25050565b60006060816101208401356117146101608601866137c7565b3082828080601f016020809104026020016040519081016040528093929190818152602001838380828437600092019190915250969b929a50929850909650505050505050565b60008061176783611105565b6001600160a01b0316141561177d576000611780565b60015b60ff1692915050565b611791611bde565b6001600160a01b0381166117f65760405162461bcd60e51b815260206004820152602660248201527f4f776e61626c653a206e6577206f776e657220697320746865207a65726f206160448201526564647265737360d01b606482015260840161097f565b6110a081612062565b60006001600160e01b03198216630cb4fd9560e21b148061183057506001600160e01b0319821663599064e960e01b145b8061184b57506001600160e01b031982166318258f7560e11b145b8061076a575061076a82612340565b6000818152600260205260409020546001600160a01b03166110a05760405162461bcd60e51b8152602060048201526018602482015277115490cdcc8c4e881a5b9d985b1a59081d1bdad95b88125160421b604482015260640161097f565b600081815260036020526040902080546001600160a01b0319166001600160a01b03841690811790915581906118ee82611105565b6001600160a01b03167f8c5be1e5ebec7d5bd14f71427d1e84f3dd0314c0f7b2291e5b200ac8c7c3b92560405160405180910390a45050565b6000816040015165ffffffffffff166000148061194a5750608082015161ffff16155b156119575750600061076a565b816020015165ffffffffffff16826040015165ffffffffffff16141561197f5750600161076a565b6000838152600e6020908152604080832054918501519085015191929183916119a7916138d7565b65ffffffffffff166119b991906138c0565b90506000846080015161ffff16826119d1919061387f565b9050600081866080015161ffff166119e991906138a1565b6119f390846138c0565b1115611a0557611a028161395f565b90505b611a0f83826138c0565b9695505050505050565b600080611a2583611105565b9050806001600160a01b0316846001600160a01b03161480611a6c57506001600160a01b0380821660009081526004602090815260408083209388168352929052205460ff165b80611a905750836001600160a01b0316611a85846108e3565b6001600160a01b0316145b949350505050565b826001600160a01b0316611aab82611105565b6001600160a01b031614611b0f5760405162461bcd60e51b815260206004820152602560248201527f4552433732313a207472616e736665722066726f6d20696e636f72726563742060448201526437bbb732b960d91b606482015260840161097f565b6001600160a01b038216611b715760405162461bcd60e51b8152602060048201526024808201527f4552433732313a207472616e7366657220746f20746865207a65726f206164646044820152637265737360e01b606482015260840161097f565b611b7c6000826118b9565b60008181526002602052604080822080546001600160a01b0319166001600160a01b0386811691821790925591518493918716917fddf252ad1be2c89b69c2b068fc378daa952ba7f163c4a11628f55a4df523b3ef91a4610a20838383612390565b6009546001600160a01b031633146111e25760405162461bcd60e51b815260206004820181905260248201527f4f776e61626c653a2063616c6c6572206973206e6f7420746865206f776e6572604482015260640161097f565b815460001965ffffffffffff600160801b808404821692830182160265ffffffffffff60801b1990931692909217808555600092611c87928792600160b01b90048216036001011660081b1790565b6001600160a01b0383166000908152600d602090815260408083208884529091528120805492935091611cb99061395f565b909155506110d4828261239c565b6001600160a01b037f000000000000000000000000000000000000000000000000000000000000000016611d016080830160608401613061565b6001600160a01b031614611d125750565b6020611d226101608301836137c7565b90501115611d75576000611d3a6101608301836137c7565b810190611d4791906132ad565b9150508051600014611d7357611101608083013582611d6e61012086016101008701613061565b6124b8565b505b7f0000000000000000000000000000000000000000000000000000000000000000156110a0576110a06080820135611db561012084016101008501613061565b612699565b6000306001600160a01b037f000000000000000000000000000000000000000000000000000000000000000016148015611e1357507f000000000000000000000000000000000000000000000000000000000000000046145b15611e3d57507f000000000000000000000000000000000000000000000000000000000000000090565b50604080517f00000000000000000000000000000000000000000000000000000000000000006020808301919091527f0000000000000000000000000000000000000000000000000000000000000000828401527f000000000000000000000000000000000000000000000000000000000000000060608301524660808301523060a0808401919091528351808403909101815260c0909201909252805191012090565b6000438210611f325760405162461bcd60e51b815260206004820181905260248201527f436865636b706f696e74733a20626c6f636b206e6f7420796574206d696e6564604482015260640161097f565b825460005b81811015611f97576000611f4b82846127fe565b905084866000018281548110611f6357611f636139a6565b60009182526020909120015463ffffffff161115611f8357809250611f91565b611f8e816001613867565b91505b50611f37565b8115611fdb5784611fa96001846138c0565b81548110611fb957611fb96139a6565b60009182526020909120015464010000000090046001600160e01b0316611fde565b60005b6001600160e01b031695945050505050565b6001600160a01b0382811660008181526005602052604080822080548686166001600160a01b0319821681179092559151919094169392849290917f3134e8a2e6d97e929a7e54011ea5485d7d196dd5f0ba4d4ef95803e8e3fc257f9190a4610a20818361205d866121df565b612819565b600980546001600160a01b038381166001600160a01b0319831681179093556040519116919082907f8be0079c531659141344cd1fd0a4f28419497f9722a3daafe3b4186f6b6457e090600090a35050565b805460009080156120fd57826120cb6001836138c0565b815481106120db576120db6139a6565b60009182526020909120015464010000000090046001600160e01b0316612100565b60005b6001600160e01b03169392505050565b816001600160a01b0316836001600160a01b031614156121725760405162461bcd60e51b815260206004820152601960248201527f4552433732313a20617070726f766520746f2063616c6c657200000000000000604482015260640161097f565b6001600160a01b03838116600081815260046020908152604080832094871680845294825291829020805460ff191686151590811790915591519182527f17307eab39ab6107e8899845ad3d59bd9653f200f220920489ca2b5937696c31910160405180910390a3505050565b60007f0000000000000000000000000000000000000000000000000000000000000000805b80156111c9576001600160a01b0384166000908152600d602090815260408083208484529091529020548015612265576000828152600c602052604090205461225890600160e01b900461ffff16826138a1565b6122629085613867565b93505b5060001901612204565b61227a848484611a98565b61228684848484612956565b61136e5760405162461bcd60e51b815260040161097f9061369e565b600061076a6122af611dba565b8360405161190160f01b6020820152602281018390526042810182905260009060620160405160208183030381529060405280519060200120905092915050565b600080600061230187878787612a60565b9150915061230e81612b4d565b5095945050505050565b6001600160a01b03811660009081526008602052604090208054600181018255905b50919050565b60006001600160e01b031982166380ac58cd60e01b148061237157506001600160e01b03198216635b5e139f60e01b145b8061076a57506301ffc9a760e01b6001600160e01b031983161461076a565b610a2083836001612d08565b6001600160a01b0382166123f25760405162461bcd60e51b815260206004820181905260248201527f4552433732313a206d696e7420746f20746865207a65726f2061646472657373604482015260640161097f565b6000818152600260205260409020546001600160a01b0316156124575760405162461bcd60e51b815260206004820152601c60248201527f4552433732313a20746f6b656e20616c7265616479206d696e74656400000000604482015260640161097f565b60008181526002602052604080822080546001600160a01b0319166001600160a01b03861690811790915590518392907fddf252ad1be2c89b69c2b068fc378daa952ba7f163c4a11628f55a4df523b3ef908290a461110160008383612390565b815183906000908190815b8181101561268f578681815181106124dd576124dd6139a6565b602002602001015160ff16925082600014612687576000838152600c602052604090208054909450600160b01b900465ffffffffffff1661253157604051630de5859f60e01b815260040160405180910390fd5b83546001600160801b031685101561255c57604051632cd294cf60e01b815260040160405180910390fd5b6040805160c08101825285546001600160801b038116825265ffffffffffff600160801b820481166020840152600160b01b8204169282019290925261ffff600160e01b830481166060830152600160f01b90920490911660808201526001850180546125d79286929091889160a0840191610b429061392a565b84546125f29190600160801b900465ffffffffffff166138c0565b61260f5760405163985a45d960e01b815260040160405180910390fd5b600061261c848689611c38565b8554909150612634906001600160801b0316876138c0565b604080518b815260208101869052338183015290519197506001600160a01b03891691869184917fe1f4f07fba2f97b5763d2bcafd46bf61f28491b066928954b0b817ce06ff1e9e9181900360600190a4505b6001016124c3565b5050505050505050565b7f00000000000000000000000000000000000000000000000000000000000000006000815b80156127f7576000818152600c6020526040902080549092506001600160801b0316851080159061278357506040805160c08101825283546001600160801b038116825265ffffffffffff600160801b820481166020840152600160b01b8204169282019290925261ffff600160e01b830481166060830152600160f01b90920490911660808201526001830180546127659284929091869160a0840191610b429061392a565b82546127809190600160801b900465ffffffffffff166138c0565b15155b156127ee576000612795828487611c38565b6040805188815260006020820152338183015290519192506001600160a01b03871691849184917fe1f4f07fba2f97b5763d2bcafd46bf61f28491b066928954b0b817ce06ff1e9e9181900360600190a4505050505050565b600019016126be565b5050505050565b600061280d600284841861387f565b6110d490848416613867565b816001600160a01b0316836001600160a01b03161415801561283b5750600081115b15610a20576001600160a01b038316156128c9576001600160a01b0383166000908152600660205260408120819061287690612d7885612d84565b91509150846001600160a01b03167fdec2bacdd2f05b59de34da9b523dff8be42e5e38e818c82fdb0bae774387a72483836040516128be929190918252602082015260400190565b60405180910390a250505b6001600160a01b03821615610a20576001600160a01b038216600090815260066020526040812081906128ff90612db285612d84565b91509150836001600160a01b03167fdec2bacdd2f05b59de34da9b523dff8be42e5e38e818c82fdb0bae774387a7248383604051612947929190918252602082015260400190565b60405180910390a25050505050565b60006001600160a01b0384163b15612a5857604051630a85bd0160e11b81526001600160a01b0385169063150b7a029061299a903390899088908890600401613599565b602060405180830381600087803b1580156129b457600080fd5b505af19250505080156129e4575060408051601f3d908101601f191682019092526129e19181019061338a565b60015b612a3e573d808015612a12576040519150601f19603f3d011682016040523d82523d6000602084013e612a17565b606091505b508051612a365760405162461bcd60e51b815260040161097f9061369e565b805181602001fd5b6001600160e01b031916630a85bd0160e11b149050611a90565b506001611a90565b6000807f7fffffffffffffffffffffffffffffff5d576e7357a4501ddfe92f46681b20a0831115612a975750600090506003612b44565b8460ff16601b14158015612aaf57508460ff16601c14155b15612ac05750600090506004612b44565b6040805160008082526020820180845289905260ff881692820192909252606081018690526080810185905260019060a0016020604051602081039080840390855afa158015612b14573d6000803e3d6000fd5b5050604051601f1901519150506001600160a01b038116612b3d57600060019250925050612b44565b9150600090505b94509492505050565b6000816004811115612b6157612b61613990565b1415612b6a5750565b6001816004811115612b7e57612b7e613990565b1415612bcc5760405162461bcd60e51b815260206004820152601860248201527f45434453413a20696e76616c6964207369676e61747572650000000000000000604482015260640161097f565b6002816004811115612be057612be0613990565b1415612c2e5760405162461bcd60e51b815260206004820152601f60248201527f45434453413a20696e76616c6964207369676e6174757265206c656e67746800604482015260640161097f565b6003816004811115612c4257612c42613990565b1415612c9b5760405162461bcd60e51b815260206004820152602260248201527f45434453413a20696e76616c6964207369676e6174757265202773272076616c604482015261756560f01b606482015260840161097f565b6004816004811115612caf57612caf613990565b14156110a05760405162461bcd60e51b815260206004820152602260248201527f45434453413a20696e76616c6964207369676e6174757265202776272076616c604482015261756560f01b606482015260840161097f565b6001600160a01b038316612d2757612d246007612db283612d84565b50505b6001600160a01b038216612d4657612d436007612d7883612d84565b50505b6001600160a01b03838116600090815260056020526040808220548584168352912054610a2092918216911683612819565b60006110d482846138c0565b600080612da685612da1612d97886120b4565b868863ffffffff16565b612dbe565b91509150935093915050565b60006110d48284613867565b8154600090819081612dcf866120b4565b9050600082118015612e0d57504386612de96001856138c0565b81548110612df957612df96139a6565b60009182526020909120015463ffffffff16145b15612e6d57612e1b85612ee9565b86612e276001856138c0565b81548110612e3757612e376139a6565b9060005260206000200160000160046101000a8154816001600160e01b0302191690836001600160e01b03160217905550612edb565b856000016040518060400160405280612e8543612f56565b63ffffffff168152602001612e9988612ee9565b6001600160e01b0390811690915282546001810184556000938452602093849020835194909301519091166401000000000263ffffffff909316929092179101555b9250839150505b9250929050565b60006001600160e01b03821115612f525760405162461bcd60e51b815260206004820152602760248201527f53616665436173743a2076616c756520646f65736e27742066697420696e20326044820152663234206269747360c81b606482015260840161097f565b5090565b600063ffffffff821115612f525760405162461bcd60e51b815260206004820152602660248201527f53616665436173743a2076616c756520646f65736e27742066697420696e203360448201526532206269747360d01b606482015260840161097f565b828054612fc79061392a565b90600052602060002090601f016020900481019282612fe9576000855561302f565b82601f106130025782800160ff1982351617855561302f565b8280016001018555821561302f579182015b8281111561302f578235825591602001919060010190613014565b50612f529291505b80821115612f525760008155600101613037565b803560ff8116811461305c57600080fd5b919050565b60006020828403121561307357600080fd5b81356110d4816139d2565b6000806040838503121561309157600080fd5b823561309c816139d2565b915060208301356130ac816139d2565b809150509250929050565b6000806000606084860312156130cc57600080fd5b83356130d7816139d2565b925060208401356130e7816139d2565b929592945050506040919091013590565b6000806000806080858703121561310e57600080fd5b8435613119816139d2565b93506020850135613129816139d2565b925060408501359150606085013567ffffffffffffffff81111561314c57600080fd5b8501601f8101871361315d57600080fd5b803561317061316b8261383f565b61380e565b81815288602083850101111561318557600080fd5b8160208401602083013760006020838301015280935050505092959194509250565b600080604083850312156131ba57600080fd5b82356131c5816139d2565b915060208301356130ac816139e7565b600080604083850312156131e857600080fd5b82356131f3816139d2565b946020939093013593505050565b60008060006060848603121561321657600080fd5b8335613221816139d2565b95602085013595506040909401359392505050565b60008060008060008060c0878903121561324f57600080fd5b863561325a816139d2565b955060208701359450604087013593506132766060880161304b565b92506080870135915060a087013590509295509295509295565b6000602082840312156132a257600080fd5b81516110d4816139e7565b600080604083850312156132c057600080fd5b8235915060208084013567ffffffffffffffff808211156132e057600080fd5b818601915086601f8301126132f457600080fd5b813581811115613306576133066139bc565b8060051b915061331784830161380e565b8181528481019084860184860187018b101561333257600080fd5b600095505b8386101561335c576133488161304b565b835260019590950194918601918601613337565b508096505050505050509250929050565b60006020828403121561337f57600080fd5b81356110d4816139f5565b60006020828403121561339c57600080fd5b81516110d4816139f5565b600080602083850312156133ba57600080fd5b823567ffffffffffffffff808211156133d257600080fd5b818501915085601f8301126133e657600080fd5b8135818111156133f557600080fd5b86602082850101111561340757600080fd5b60209290920196919550909350505050565b60006020828403121561342b57600080fd5b815167ffffffffffffffff81111561344257600080fd5b8201601f8101841361345357600080fd5b805161346161316b8261383f565b81815285602083850101111561347657600080fd5b6134878260208301602086016138fe565b95945050505050565b6000602082840312156134a257600080fd5b813567ffffffffffffffff8111156134b957600080fd5b820161018081850312156110d457600080fd5b6000602082840312156134de57600080fd5b813567ffffffffffffffff8111156134f557600080fd5b82016101a081850312156110d457600080fd5b60006020828403121561351a57600080fd5b813567ffffffffffffffff81111561353157600080fd5b820161020081850312156110d457600080fd5b60006020828403121561355657600080fd5b5035919050565b600081518084526135758160208601602086016138fe565b601f01601f19169290920160200192915050565b8183823760009101908152919050565b6001600160a01b0385811682528416602082015260408101839052608060608201819052600090611a0f9083018461355d565b60006020808301818452808551808352604092508286019150828160051b87010184880160005b8381101561367d57888303603f19018552815180516001600160801b031684528781015165ffffffffffff9081168986015287820151168785015260608082015161ffff908116918601919091526080808301519091169085015260a09081015160c0918501829052906136698186018361355d565b9689019694505050908601906001016135f3565b509098975050505050505050565b6020815260006110d4602083018461355d565b60208082526032908201527f4552433732313a207472616e7366657220746f206e6f6e20455243373231526560408201527131b2b4bb32b91034b6b83632b6b2b73a32b960711b606082015260800190565b6020808252602e908201527f4552433732313a2063616c6c6572206973206e6f7420746f6b656e206f776e6560408201526d1c881b9bdc88185c1c1c9bdd995960921b606082015260800190565b6001600160801b038716815265ffffffffffff86811660208301528516604082015261ffff84811660608301528316608082015260c060a0820181905260009061378a9083018461355d565b98975050505050505050565b8381526060602082015260006137af606083018561355d565b905060018060a01b0383166040830152949350505050565b6000808335601e198436030181126137de57600080fd5b83018035915067ffffffffffffffff8211156137f957600080fd5b602001915036819003821315612ee257600080fd5b604051601f8201601f1916810167ffffffffffffffff81118282101715613837576138376139bc565b604052919050565b600067ffffffffffffffff821115613859576138596139bc565b50601f01601f191660200190565b6000821982111561387a5761387a61397a565b500190565b60008261389c57634e487b7160e01b600052601260045260246000fd5b500490565b60008160001904831182151516156138bb576138bb61397a565b500290565b6000828210156138d2576138d261397a565b500390565b600065ffffffffffff838116908316818110156138f6576138f661397a565b039392505050565b60005b83811015613919578181015183820152602001613901565b8381111561136e5750506000910152565b600181811c9082168061393e57607f821691505b6020821081141561233a57634e487b7160e01b600052602260045260246000fd5b60006000198214156139735761397361397a565b5060010190565b634e487b7160e01b600052601160045260246000fd5b634e487b7160e01b600052602160045260246000fd5b634e487b7160e01b600052603260045260246000fd5b634e487b7160e01b600052604160045260246000fd5b6001600160a01b03811681146110a057600080fd5b80151581146110a057600080fd5b6001600160e01b0319811681146110a057600080fdfea264697066735822122090a0c975e1c17d75cfc8e34425eeb812741b9a0adc32b859e3a69aa8e8d248b764736f6c63430008060033a2646970667358221220afd1344eda42ba501ea4127bc7373df99596a0ba2a185431cf57b1cdf62d58fc64736f6c63430008060033",
    "linkReferences": {}
  },
  "methodIdentifiers": {
    "controller()": "f77c4791",
    "deployDataSource(uint256,(address,string,string,address,string,address,address,(uint128,uint48,uint48,uint16,uint16,string)[],bool))": "94abac40",
    "launchProjectFor(address,(address,string,string,address,string,address,address,(uint128,uint48,uint48,uint16,uint16,string)[],bool),((string,uint256),(uint256,uint256,uint256,address),((bool,bool),uint256,uint256,uint256,bool,bool,bool,bool,bool,bool,bool,bool,bool,bool,bool,bool,address),uint256,(uint256,(bool,bool,uint256,uint256,address,uint256,address)[])[],(address,address,uint256,uint256,uint256,uint256)[],address[],string))": "e146effb"
  },
  "id": 1
}