{
  "_format": "hh-sol-artifact-1",
  "contractName": "JBTokens",
  "sourceName": "@jbx-protocol/contracts-v2/contracts/libraries/JBTokens.sol",
  "abi": [
    {
      "inputs": [],
      "name": "ETH",
      "outputs": [
        {
          "internalType": "address",
          "name": "",
          "type": "address"
        }
      ],
      "stateMutability": "view",
      "type": "function"
    }
  ],
  "bytecode": "0x6092610038600b82828239805160001a607314602b57634e487b7160e01b600052600060045260246000fd5b30600052607381538281f3fe730000000000000000000000000000000000000000301460806040526004361060335760003560e01c80638322fff2146038575b600080fd5b604061eeee81565b6040516001600160a01b03909116815260200160405180910390f3fea264697066735822122011612c814f207bd9b6e32b4936797ead02ac5d5b75b56528ba6baa28265c264b64736f6c63430008060033",
  "linkReferences": {},
  "deployedLinkReferences": {}
}