{
  "abi": [
    {
      "inputs": [
        {
          "internalType": "string",
          "name": "_name",
          "type": "string"
        },
        {
          "internalType": "string",
          "name": "_symbol",
          "type": "string"
        },
        {
          "internalType": "uint256",
          "name": "_projectId",
          "type": "uint256"
        }
      ],
      "stateMutability": "nonpayable",
      "type": "constructor"
    },
    {
      "inputs": [],
      "name": "BAD_PROJECT",
      "type": "error"
    },
    {
      "inputs": [],
      "name": "InvalidShortString",
      "type": "error"
    },
    {
      "inputs": [
        {
          "internalType": "string",
          "name": "str",
          "type": "string"
        }
      ],
      "name": "StringTooLong",
      "type": "error"
    },
    {
      "anonymous": false,
      "inputs": [
        {
          "indexed": true,
          "internalType": "address",
          "name": "owner",
          "type": "address"
        },
        {
          "indexed": true,
          "internalType": "address",
          "name": "spender",
          "type": "address"
        },
        {
          "indexed": false,
          "internalType": "uint256",
          "name": "value",
          "type": "uint256"
        }
      ],
      "name": "Approval",
      "type": "event"
    },
    {
      "anonymous": false,
      "inputs": [
        {
          "indexed": true,
          "internalType": "address",
          "name": "delegator",
          "type": "address"
        },
        {
          "indexed": true,
          "internalType": "address",
          "name": "fromDelegate",
          "type": "address"
        },
        {
          "indexed": true,
          "internalType": "address",
          "name": "toDelegate",
          "type": "address"
        }
      ],
      "name": "DelegateChanged",
      "type": "event"
    },
    {
      "anonymous": false,
      "inputs": [
        {
          "indexed": true,
          "internalType": "address",
          "name": "delegate",
          "type": "address"
        },
        {
          "indexed": false,
          "internalType": "uint256",
          "name": "previousBalance",
          "type": "uint256"
        },
        {
          "indexed": false,
          "internalType": "uint256",
          "name": "newBalance",
          "type": "uint256"
        }
      ],
      "name": "DelegateVotesChanged",
      "type": "event"
    },
    {
      "anonymous": false,
      "inputs": [],
      "name": "EIP712DomainChanged",
      "type": "event"
    },
    {
      "anonymous": false,
      "inputs": [
        {
          "indexed": true,
          "internalType": "address",
          "name": "previousOwner",
          "type": "address"
        },
        {
          "indexed": true,
          "internalType": "address",
          "name": "newOwner",
          "type": "address"
        }
      ],
      "name": "OwnershipTransferred",
      "type": "event"
    },
    {
      "anonymous": false,
      "inputs": [
        {
          "indexed": true,
          "internalType": "address",
          "name": "from",
          "type": "address"
        },
        {
          "indexed": true,
          "internalType": "address",
          "name": "to",
          "type": "address"
        },
        {
          "indexed": false,
          "internalType": "uint256",
          "name": "value",
          "type": "uint256"
        }
      ],
      "name": "Transfer",
      "type": "event"
    },
    {
      "inputs": [],
      "name": "CLOCK_MODE",
      "outputs": [
        {
          "internalType": "string",
          "name": "",
          "type": "string"
        }
      ],
      "stateMutability": "view",
      "type": "function"
    },
    {
      "inputs": [],
      "name": "DOMAIN_SEPARATOR",
      "outputs": [
        {
          "internalType": "bytes32",
          "name": "",
          "type": "bytes32"
        }
      ],
      "stateMutability": "view",
      "type": "function"
    },
    {
      "inputs": [
        {
          "internalType": "address",
          "name": "owner",
          "type": "address"
        },
        {
          "internalType": "address",
          "name": "spender",
          "type": "address"
        }
      ],
      "name": "allowance",
      "outputs": [
        {
          "internalType": "uint256",
          "name": "",
          "type": "uint256"
        }
      ],
      "stateMutability": "view",
      "type": "function"
    },
    {
      "inputs": [
        {
          "internalType": "address",
          "name": "spender",
          "type": "address"
        },
        {
          "internalType": "uint256",
          "name": "amount",
          "type": "uint256"
        }
      ],
      "name": "approve",
      "outputs": [
        {
          "internalType": "bool",
          "name": "",
          "type": "bool"
        }
      ],
      "stateMutability": "nonpayable",
      "type": "function"
    },
    {
      "inputs": [
        {
          "internalType": "uint256",
          "name": "_projectId",
          "type": "uint256"
        },
        {
          "internalType": "address",
          "name": "_spender",
          "type": "address"
        },
        {
          "internalType": "uint256",
          "name": "_amount",
          "type": "uint256"
        }
      ],
      "name": "approve",
      "outputs": [],
      "stateMutability": "nonpayable",
      "type": "function"
    },
    {
      "inputs": [
        {
          "internalType": "address",
          "name": "_account",
          "type": "address"
        },
        {
          "internalType": "uint256",
          "name": "_projectId",
          "type": "uint256"
        }
      ],
      "name": "balanceOf",
      "outputs": [
        {
          "internalType": "uint256",
          "name": "",
          "type": "uint256"
        }
      ],
      "stateMutability": "view",
      "type": "function"
    },
    {
      "inputs": [
        {
          "internalType": "address",
          "name": "account",
          "type": "address"
        }
      ],
      "name": "balanceOf",
      "outputs": [
        {
          "internalType": "uint256",
          "name": "",
          "type": "uint256"
        }
      ],
      "stateMutability": "view",
      "type": "function"
    },
    {
      "inputs": [
        {
          "internalType": "uint256",
          "name": "_projectId",
          "type": "uint256"
        },
        {
          "internalType": "address",
          "name": "_account",
          "type": "address"
        },
        {
          "internalType": "uint256",
          "name": "_amount",
          "type": "uint256"
        }
      ],
      "name": "burn",
      "outputs": [],
      "stateMutability": "nonpayable",
      "type": "function"
    },
    {
      "inputs": [
        {
          "internalType": "address",
          "name": "account",
          "type": "address"
        },
        {
          "internalType": "uint32",
          "name": "pos",
          "type": "uint32"
        }
      ],
      "name": "checkpoints",
      "outputs": [
        {
          "components": [
            {
              "internalType": "uint32",
              "name": "fromBlock",
              "type": "uint32"
            },
            {
              "internalType": "uint224",
              "name": "votes",
              "type": "uint224"
            }
          ],
          "internalType": "struct ERC20Votes.Checkpoint",
          "name": "",
          "type": "tuple"
        }
      ],
      "stateMutability": "view",
      "type": "function"
    },
    {
      "inputs": [],
      "name": "clock",
      "outputs": [
        {
          "internalType": "uint48",
          "name": "",
          "type": "uint48"
        }
      ],
      "stateMutability": "view",
      "type": "function"
    },
    {
      "inputs": [],
      "name": "decimals",
      "outputs": [
        {
          "internalType": "uint8",
          "name": "",
          "type": "uint8"
        }
      ],
      "stateMutability": "view",
      "type": "function"
    },
    {
      "inputs": [
        {
          "internalType": "address",
          "name": "spender",
          "type": "address"
        },
        {
          "internalType": "uint256",
          "name": "subtractedValue",
          "type": "uint256"
        }
      ],
      "name": "decreaseAllowance",
      "outputs": [
        {
          "internalType": "bool",
          "name": "",
          "type": "bool"
        }
      ],
      "stateMutability": "nonpayable",
      "type": "function"
    },
    {
      "inputs": [
        {
          "internalType": "address",
          "name": "delegatee",
          "type": "address"
        }
      ],
      "name": "delegate",
      "outputs": [],
      "stateMutability": "nonpayable",
      "type": "function"
    },
    {
      "inputs": [
        {
          "internalType": "address",
          "name": "delegatee",
          "type": "address"
        },
        {
          "internalType": "uint256",
          "name": "nonce",
          "type": "uint256"
        },
        {
          "internalType": "uint256",
          "name": "expiry",
          "type": "uint256"
        },
        {
          "internalType": "uint8",
          "name": "v",
          "type": "uint8"
        },
        {
          "internalType": "bytes32",
          "name": "r",
          "type": "bytes32"
        },
        {
          "internalType": "bytes32",
          "name": "s",
          "type": "bytes32"
        }
      ],
      "name": "delegateBySig",
      "outputs": [],
      "stateMutability": "nonpayable",
      "type": "function"
    },
    {
      "inputs": [
        {
          "internalType": "address",
          "name": "account",
          "type": "address"
        }
      ],
      "name": "delegates",
      "outputs": [
        {
          "internalType": "address",
          "name": "",
          "type": "address"
        }
      ],
      "stateMutability": "view",
      "type": "function"
    },
    {
      "inputs": [],
      "name": "eip712Domain",
      "outputs": [
        {
          "internalType": "bytes1",
          "name": "fields",
          "type": "bytes1"
        },
        {
          "internalType": "string",
          "name": "name",
          "type": "string"
        },
        {
          "internalType": "string",
          "name": "version",
          "type": "string"
        },
        {
          "internalType": "uint256",
          "name": "chainId",
          "type": "uint256"
        },
        {
          "internalType": "address",
          "name": "verifyingContract",
          "type": "address"
        },
        {
          "internalType": "bytes32",
          "name": "salt",
          "type": "bytes32"
        },
        {
          "internalType": "uint256[]",
          "name": "extensions",
          "type": "uint256[]"
        }
      ],
      "stateMutability": "view",
      "type": "function"
    },
    {
      "inputs": [
        {
          "internalType": "uint256",
          "name": "timepoint",
          "type": "uint256"
        }
      ],
      "name": "getPastTotalSupply",
      "outputs": [
        {
          "internalType": "uint256",
          "name": "",
          "type": "uint256"
        }
      ],
      "stateMutability": "view",
      "type": "function"
    },
    {
      "inputs": [
        {
          "internalType": "address",
          "name": "account",
          "type": "address"
        },
        {
          "internalType": "uint256",
          "name": "timepoint",
          "type": "uint256"
        }
      ],
      "name": "getPastVotes",
      "outputs": [
        {
          "internalType": "uint256",
          "name": "",
          "type": "uint256"
        }
      ],
      "stateMutability": "view",
      "type": "function"
    },
    {
      "inputs": [
        {
          "internalType": "address",
          "name": "account",
          "type": "address"
        }
      ],
      "name": "getVotes",
      "outputs": [
        {
          "internalType": "uint256",
          "name": "",
          "type": "uint256"
        }
      ],
      "stateMutability": "view",
      "type": "function"
    },
    {
      "inputs": [
        {
          "internalType": "address",
          "name": "spender",
          "type": "address"
        },
        {
          "internalType": "uint256",
          "name": "addedValue",
          "type": "uint256"
        }
      ],
      "name": "increaseAllowance",
      "outputs": [
        {
          "internalType": "bool",
          "name": "",
          "type": "bool"
        }
      ],
      "stateMutability": "nonpayable",
      "type": "function"
    },
    {
      "inputs": [
        {
          "internalType": "uint256",
          "name": "_projectId",
          "type": "uint256"
        },
        {
          "internalType": "address",
          "name": "_account",
          "type": "address"
        },
        {
          "internalType": "uint256",
          "name": "_amount",
          "type": "uint256"
        }
      ],
      "name": "mint",
      "outputs": [],
      "stateMutability": "nonpayable",
      "type": "function"
    },
    {
      "inputs": [],
      "name": "name",
      "outputs": [
        {
          "internalType": "string",
          "name": "",
          "type": "string"
        }
      ],
      "stateMutability": "view",
      "type": "function"
    },
    {
      "inputs": [
        {
          "internalType": "address",
          "name": "owner",
          "type": "address"
        }
      ],
      "name": "nonces",
      "outputs": [
        {
          "internalType": "uint256",
          "name": "",
          "type": "uint256"
        }
      ],
      "stateMutability": "view",
      "type": "function"
    },
    {
      "inputs": [
        {
          "internalType": "address",
          "name": "account",
          "type": "address"
        }
      ],
      "name": "numCheckpoints",
      "outputs": [
        {
          "internalType": "uint32",
          "name": "",
          "type": "uint32"
        }
      ],
      "stateMutability": "view",
      "type": "function"
    },
    {
      "inputs": [],
      "name": "owner",
      "outputs": [
        {
          "internalType": "address",
          "name": "",
          "type": "address"
        }
      ],
      "stateMutability": "view",
      "type": "function"
    },
    {
      "inputs": [
        {
          "internalType": "address",
          "name": "owner",
          "type": "address"
        },
        {
          "internalType": "address",
          "name": "spender",
          "type": "address"
        },
        {
          "internalType": "uint256",
          "name": "value",
          "type": "uint256"
        },
        {
          "internalType": "uint256",
          "name": "deadline",
          "type": "uint256"
        },
        {
          "internalType": "uint8",
          "name": "v",
          "type": "uint8"
        },
        {
          "internalType": "bytes32",
          "name": "r",
          "type": "bytes32"
        },
        {
          "internalType": "bytes32",
          "name": "s",
          "type": "bytes32"
        }
      ],
      "name": "permit",
      "outputs": [],
      "stateMutability": "nonpayable",
      "type": "function"
    },
    {
      "inputs": [],
      "name": "projectId",
      "outputs": [
        {
          "internalType": "uint256",
          "name": "",
          "type": "uint256"
        }
      ],
      "stateMutability": "view",
      "type": "function"
    },
    {
      "inputs": [],
      "name": "renounceOwnership",
      "outputs": [],
      "stateMutability": "nonpayable",
      "type": "function"
    },
    {
      "inputs": [],
      "name": "symbol",
      "outputs": [
        {
          "internalType": "string",
          "name": "",
          "type": "string"
        }
      ],
      "stateMutability": "view",
      "type": "function"
    },
    {
      "inputs": [],
      "name": "totalSupply",
      "outputs": [
        {
          "internalType": "uint256",
          "name": "",
          "type": "uint256"
        }
      ],
      "stateMutability": "view",
      "type": "function"
    },
    {
      "inputs": [
        {
          "internalType": "uint256",
          "name": "_projectId",
          "type": "uint256"
        }
      ],
      "name": "totalSupply",
      "outputs": [
        {
          "internalType": "uint256",
          "name": "",
          "type": "uint256"
        }
      ],
      "stateMutability": "view",
      "type": "function"
    },
    {
      "inputs": [
        {
          "internalType": "address",
          "name": "to",
          "type": "address"
        },
        {
          "internalType": "uint256",
          "name": "amount",
          "type": "uint256"
        }
      ],
      "name": "transfer",
      "outputs": [
        {
          "internalType": "bool",
          "name": "",
          "type": "bool"
        }
      ],
      "stateMutability": "nonpayable",
      "type": "function"
    },
    {
      "inputs": [
        {
          "internalType": "uint256",
          "name": "_projectId",
          "type": "uint256"
        },
        {
          "internalType": "address",
          "name": "_to",
          "type": "address"
        },
        {
          "internalType": "uint256",
          "name": "_amount",
          "type": "uint256"
        }
      ],
      "name": "transfer",
      "outputs": [],
      "stateMutability": "nonpayable",
      "type": "function"
    },
    {
      "inputs": [
        {
          "internalType": "uint256",
          "name": "_projectId",
          "type": "uint256"
        },
        {
          "internalType": "address",
          "name": "_from",
          "type": "address"
        },
        {
          "internalType": "address",
          "name": "_to",
          "type": "address"
        },
        {
          "internalType": "uint256",
          "name": "_amount",
          "type": "uint256"
        }
      ],
      "name": "transferFrom",
      "outputs": [],
      "stateMutability": "nonpayable",
      "type": "function"
    },
    {
      "inputs": [
        {
          "internalType": "address",
          "name": "from",
          "type": "address"
        },
        {
          "internalType": "address",
          "name": "to",
          "type": "address"
        },
        {
          "internalType": "uint256",
          "name": "amount",
          "type": "uint256"
        }
      ],
      "name": "transferFrom",
      "outputs": [
        {
          "internalType": "bool",
          "name": "",
          "type": "bool"
        }
      ],
      "stateMutability": "nonpayable",
      "type": "function"
    },
    {
      "inputs": [
        {
          "internalType": "address",
          "name": "newOwner",
          "type": "address"
        }
      ],
      "name": "transferOwnership",
      "outputs": [],
      "stateMutability": "nonpayable",
      "type": "function"
    }
  ],
  "bytecode": {
    "object": "0x6101806040523480156200001257600080fd5b5060405162002d1238038062002d128339810160408190526200003591620002e7565b6040805180820190915260018152603160f81b60208201528390819081856003620000618382620003e9565b506004620000708282620003e9565b50620000829150839050600562000143565b610120526200009381600662000143565b61014052815160208084019190912060e052815190820120610100524660a0526200012160e05161010051604080517f8b73c3c69bb8fe3d512ecc4cf759cc79239f7b179b0ffacaa9a75d522b39400f60208201529081019290925260608201524660808201523060a082015260009060c00160405160208183030381529060405280519060200120905090565b60805250503060c0525062000136336200017c565b61016052506200050f9050565b600060208351101562000163576200015b83620001ce565b905062000176565b81620001708482620003e9565b5060ff90505b92915050565b600c80546001600160a01b038381166001600160a01b0319831681179093556040519116919082907f8be0079c531659141344cd1fd0a4f28419497f9722a3daafe3b4186f6b6457e090600090a35050565b600080829050601f8151111562000205578260405163305a27a960e01b8152600401620001fc9190620004b5565b60405180910390fd5b80516200021282620004ea565b179392505050565b634e487b7160e01b600052604160045260246000fd5b60005b838110156200024d57818101518382015260200162000233565b50506000910152565b600082601f8301126200026857600080fd5b81516001600160401b03808211156200028557620002856200021a565b604051601f8301601f19908116603f01168101908282118183101715620002b057620002b06200021a565b81604052838152866020858801011115620002ca57600080fd5b620002dd84602083016020890162000230565b9695505050505050565b600080600060608486031215620002fd57600080fd5b83516001600160401b03808211156200031557600080fd5b620003238783880162000256565b945060208601519150808211156200033a57600080fd5b50620003498682870162000256565b925050604084015190509250925092565b600181811c908216806200036f57607f821691505b6020821081036200039057634e487b7160e01b600052602260045260246000fd5b50919050565b601f821115620003e457600081815260208120601f850160051c81016020861015620003bf5750805b601f850160051c820191505b81811015620003e057828155600101620003cb565b5050505b505050565b81516001600160401b038111156200040557620004056200021a565b6200041d816200041684546200035a565b8462000396565b602080601f8311600181146200045557600084156200043c5750858301515b600019600386901b1c1916600185901b178555620003e0565b600085815260208120601f198616915b82811015620004865788860151825594840194600190910190840162000465565b5085821015620004a55787850151600019600388901b60f8161c191681555b5050505050600190811b01905550565b6020815260008251806020840152620004d681604085016020870162000230565b601f01601f19169190910160400192915050565b80516020808301519190811015620003905760001960209190910360031b1b16919050565b60805160a05160c05160e05161010051610120516101405161016051612757620005bb600039600081816102f0015281816106330152818161065d0152818161088a015281816108b40152818161098e015281816109b801528181610b1501528181610b3f01528181610fde01526110080152600061093c015260006109110152600061146e01526000611446015260006113a1015260006113cb015260006113f501526127576000f3fe608060405234801561001057600080fd5b506004361061021b5760003560e01c8063836a104011610125578063a457c2d7116100ad578063d505accf1161007c578063d505accf146104db578063dd62ed3e146104ee578063f1127ed814610501578063f2fde38b1461053e578063f8548e361461055157600080fd5b8063a457c2d71461048f578063a9059cbb146104a2578063bd85b039146104b5578063c3cda520146104c857600080fd5b80638e539e8c116100f45780638e539e8c1461042f57806391ddadf41461044257806395d89b41146104615780639ab24eb0146104695780639eea5f661461047c57600080fd5b8063836a1040146103dd57806384b0196e146103f05780638cb0a5111461040b5780638da5cb5b1461041e57600080fd5b80633a46b1a8116101a85780635c19a95c116101775780635c19a95c1461035e5780636fcfff451461037157806370a0823114610399578063715018a6146103c25780637ecebe00146103ca57600080fd5b80633a46b1a8146102d85780633fafa127146102eb5780634bf5d7e914610312578063587cde1e1461031a57600080fd5b80631c0f12b6116101ef5780631c0f12b61461028657806323b872dd1461029b578063313ce567146102ae5780633644e515146102bd57806339509351146102c557600080fd5b8062fdd58e1461022057806306fdde0314610246578063095ea7b31461025b57806318160ddd1461027e575b600080fd5b61023361022e366004612315565b610564565b6040519081526020015b60405180910390f35b61024e610587565b60405161023d9190612385565b61026e610269366004612315565b610619565b604051901515815260200161023d565b600254610233565b610299610294366004612398565b610631565b005b61026e6102a93660046123dc565b6106af565b6040516012815260200161023d565b6102336106d8565b61026e6102d3366004612315565b6106e2565b6102336102e6366004612315565b610704565b6102337f000000000000000000000000000000000000000000000000000000000000000081565b61024e610787565b610346610328366004612418565b6001600160a01b039081166000908152600960205260409020541690565b6040516001600160a01b03909116815260200161023d565b61029961036c366004612418565b61081f565b61038461037f366004612418565b61082c565b60405163ffffffff909116815260200161023d565b6102336103a7366004612418565b6001600160a01b031660009081526020819052604090205490565b61029961084e565b6102336103d8366004612418565b610862565b6102996103eb366004612433565b610880565b6103f8610903565b60405161023d9796959493929190612458565b610299610419366004612433565b61098c565b600c546001600160a01b0316610346565b61023361043d3660046124ee565b610a08565b61044a610a6f565b60405165ffffffffffff909116815260200161023d565b61024e610a7a565b610233610477366004612418565b610a89565b61029961048a366004612433565b610b0b565b61026e61049d366004612315565b610b89565b61026e6104b0366004612315565b610c04565b6102336104c33660046124ee565b610c12565b6102996104d6366004612518565b610c1d565b6102996104e9366004612570565b610d53565b6102336104fc3660046125da565b610eb7565b61051461050f36600461260d565b610ee2565b60408051825163ffffffff1681526020928301516001600160e01b0316928101929092520161023d565b61029961054c366004612418565b610f66565b61029961055f366004612433565b610fdc565b6001600160a01b0382166000908152602081905260408120545b90505b92915050565b6060600380546105969061264d565b80601f01602080910402602001604051908101604052809291908181526020018280546105c29061264d565b801561060f5780601f106105e45761010080835404028352916020019161060f565b820191906000526020600020905b8154815290600101906020018083116105f257829003601f168201915b5050505050905090565b600033610627818585611052565b5060019392505050565b7f00000000000000000000000000000000000000000000000000000000000000001580159061068057507f00000000000000000000000000000000000000000000000000000000000000008414155b1561069d5760405162cdceed60e81b815260040160405180910390fd5b6106a88383836106af565b5050505050565b6000336106bd858285611176565b6106c88585856111ea565b506001949350505050565b905090565b60006106d3611394565b6000336106278185856106f58383610eb7565b6106ff9190612697565b611052565b600061070e610a6f565b65ffffffffffff1682106107655760405162461bcd60e51b815260206004820152601960248201527804552433230566f7465733a20667574757265206c6f6f6b757603c1b60448201526064015b60405180910390fd5b6001600160a01b0383166000908152600a6020526040902061057e90836114bf565b606043610792610a6f565b65ffffffffffff16146107e75760405162461bcd60e51b815260206004820152601d60248201527f4552433230566f7465733a2062726f6b656e20636c6f636b206d6f6465000000604482015260640161075c565b5060408051808201909152601d81527f6d6f64653d626c6f636b6e756d6265722666726f6d3d64656661756c74000000602082015290565b61082933826115a8565b50565b6001600160a01b0381166000908152600a602052604081205461058190611621565b61085661168a565b61086060006116e4565b565b6001600160a01b038116600090815260076020526040812054610581565b61088861168a565b7f0000000000000000000000000000000000000000000000000000000000000000158015906108d757507f00000000000000000000000000000000000000000000000000000000000000008314155b156108f45760405162cdceed60e81b815260040160405180910390fd5b6108fe8282611736565b505050565b6000606080828080836109377f000000000000000000000000000000000000000000000000000000000000000060056117c0565b6109627f000000000000000000000000000000000000000000000000000000000000000060066117c0565b60408051600080825260208201909252600f60f81b9b939a50919850469750309650945092509050565b7f0000000000000000000000000000000000000000000000000000000000000000158015906109db57507f00000000000000000000000000000000000000000000000000000000000000008314155b156109f85760405162cdceed60e81b815260040160405180910390fd5b610a028282610619565b50505050565b6000610a12610a6f565b65ffffffffffff168210610a645760405162461bcd60e51b815260206004820152601960248201527804552433230566f7465733a20667574757265206c6f6f6b757603c1b604482015260640161075c565b610581600b836114bf565b60006106d34361186b565b6060600480546105969061264d565b6001600160a01b0381166000908152600a60205260408120548015610af8576001600160a01b0383166000908152600a6020526040902080546000198301908110610ad657610ad66126aa565b60009182526020909120015464010000000090046001600160e01b0316610afb565b60005b6001600160e01b03169392505050565b610b1361168a565b7f000000000000000000000000000000000000000000000000000000000000000015801590610b6257507f00000000000000000000000000000000000000000000000000000000000000008314155b15610b7f5760405162cdceed60e81b815260040160405180910390fd5b6108fe82826118d2565b60003381610b978286610eb7565b905083811015610bf75760405162461bcd60e51b815260206004820152602560248201527f45524332303a2064656372656173656420616c6c6f77616e63652062656c6f77604482015264207a65726f60d81b606482015260840161075c565b6106c88286868403611052565b6000336106278185856111ea565b600061058160025490565b83421115610c6d5760405162461bcd60e51b815260206004820152601d60248201527f4552433230566f7465733a207369676e61747572652065787069726564000000604482015260640161075c565b604080517fe48329057bfd03d55e49b547132e39cffd9c1820ad7b9d4c5307691425d15adf60208201526001600160a01b038816918101919091526060810186905260808101859052600090610ce790610cdf9060a001604051602081830303815290604052805190602001206118ea565b858585611917565b9050610cf28161193f565b8614610d405760405162461bcd60e51b815260206004820152601960248201527f4552433230566f7465733a20696e76616c6964206e6f6e636500000000000000604482015260640161075c565b610d4a81886115a8565b50505050505050565b83421115610da35760405162461bcd60e51b815260206004820152601d60248201527f45524332305065726d69743a206578706972656420646561646c696e65000000604482015260640161075c565b60007f6e71edae12b1b97f4d1f60370fef10105fa2faae0126114a169c64845d6126c9888888610dd28c61193f565b6040805160208101969096526001600160a01b0394851690860152929091166060840152608083015260a082015260c0810186905260e0016040516020818303038152906040528051906020012090506000610e2d826118ea565b90506000610e3d82878787611917565b9050896001600160a01b0316816001600160a01b031614610ea05760405162461bcd60e51b815260206004820152601e60248201527f45524332305065726d69743a20696e76616c6964207369676e61747572650000604482015260640161075c565b610eab8a8a8a611052565b50505050505050505050565b6001600160a01b03918216600090815260016020908152604080832093909416825291909152205490565b60408051808201909152600080825260208201526001600160a01b0383166000908152600a60205260409020805463ffffffff8416908110610f2657610f266126aa565b60009182526020918290206040805180820190915291015463ffffffff8116825264010000000090046001600160e01b0316918101919091529392505050565b610f6e61168a565b6001600160a01b038116610fd35760405162461bcd60e51b815260206004820152602660248201527f4f776e61626c653a206e6577206f776e657220697320746865207a65726f206160448201526564647265737360d01b606482015260840161075c565b610829816116e4565b7f00000000000000000000000000000000000000000000000000000000000000001580159061102b57507f00000000000000000000000000000000000000000000000000000000000000008314155b156110485760405162cdceed60e81b815260040160405180910390fd5b610a028282610c04565b6001600160a01b0383166110b45760405162461bcd60e51b8152602060048201526024808201527f45524332303a20617070726f76652066726f6d20746865207a65726f206164646044820152637265737360e01b606482015260840161075c565b6001600160a01b0382166111155760405162461bcd60e51b815260206004820152602260248201527f45524332303a20617070726f766520746f20746865207a65726f206164647265604482015261737360f01b606482015260840161075c565b6001600160a01b0383811660008181526001602090815260408083209487168084529482529182902085905590518481527f8c5be1e5ebec7d5bd14f71427d1e84f3dd0314c0f7b2291e5b200ac8c7c3b925910160405180910390a3505050565b60006111828484610eb7565b90506000198114610a0257818110156111dd5760405162461bcd60e51b815260206004820152601d60248201527f45524332303a20696e73756666696369656e7420616c6c6f77616e6365000000604482015260640161075c565b610a028484848403611052565b6001600160a01b03831661124e5760405162461bcd60e51b815260206004820152602560248201527f45524332303a207472616e736665722066726f6d20746865207a65726f206164604482015264647265737360d81b606482015260840161075c565b6001600160a01b0382166112b05760405162461bcd60e51b815260206004820152602360248201527f45524332303a207472616e7366657220746f20746865207a65726f206164647260448201526265737360e81b606482015260840161075c565b6001600160a01b038316600090815260208190526040902054818110156113285760405162461bcd60e51b815260206004820152602660248201527f45524332303a207472616e7366657220616d6f756e7420657863656564732062604482015265616c616e636560d01b606482015260840161075c565b6001600160a01b03848116600081815260208181526040808320878703905593871680835291849020805487019055925185815290927fddf252ad1be2c89b69c2b068fc378daa952ba7f163c4a11628f55a4df523b3ef910160405180910390a3610a02848484611967565b6000306001600160a01b037f0000000000000000000000000000000000000000000000000000000000000000161480156113ed57507f000000000000000000000000000000000000000000000000000000000000000046145b1561141757507f000000000000000000000000000000000000000000000000000000000000000090565b6106d3604080517f8b73c3c69bb8fe3d512ecc4cf759cc79239f7b179b0ffacaa9a75d522b39400f60208201527f0000000000000000000000000000000000000000000000000000000000000000918101919091527f000000000000000000000000000000000000000000000000000000000000000060608201524660808201523060a082015260009060c00160405160208183030381529060405280519060200120905090565b8154600090818160058111156115195760006114da84611999565b6114e490856126c0565b600088815260209020909150869082015463ffffffff16111561150957809150611517565b611514816001612697565b92505b505b8082101561156657600061152d8383611a88565b600088815260209020909150869082015463ffffffff16111561155257809150611560565b61155d816001612697565b92505b50611519565b8015611592576000868152602090208101600019015464010000000090046001600160e01b0316611595565b60005b6001600160e01b03169695505050505050565b6001600160a01b038281166000818152600960208181526040808420805485845282862054949093528787166001600160a01b03198416811790915590519190951694919391928592917f3134e8a2e6d97e929a7e54011ea5485d7d196dd5f0ba4d4ef95803e8e3fc257f9190a4610a02828483611aa3565b600063ffffffff8211156116865760405162461bcd60e51b815260206004820152602660248201527f53616665436173743a2076616c756520646f65736e27742066697420696e203360448201526532206269747360d01b606482015260840161075c565b5090565b600c546001600160a01b031633146108605760405162461bcd60e51b815260206004820181905260248201527f4f776e61626c653a2063616c6c6572206973206e6f7420746865206f776e6572604482015260640161075c565b600c80546001600160a01b038381166001600160a01b0319831681179093556040519116919082907f8be0079c531659141344cd1fd0a4f28419497f9722a3daafe3b4186f6b6457e090600090a35050565b6117408282611be0565b6002546001600160e01b0310156117b25760405162461bcd60e51b815260206004820152603060248201527f4552433230566f7465733a20746f74616c20737570706c79207269736b73206f60448201526f766572666c6f77696e6720766f74657360801b606482015260840161075c565b610a02600b611cab83611cb7565b606060ff83146117da576117d383611e2c565b9050610581565b8180546117e69061264d565b80601f01602080910402602001604051908101604052809291908181526020018280546118129061264d565b801561185f5780601f106118345761010080835404028352916020019161185f565b820191906000526020600020905b81548152906001019060200180831161184257829003601f168201915b50505050509050610581565b600065ffffffffffff8211156116865760405162461bcd60e51b815260206004820152602660248201527f53616665436173743a2076616c756520646f65736e27742066697420696e203460448201526538206269747360d01b606482015260840161075c565b6118dc8282611e6b565b610a02600b611fa483611cb7565b60006105816118f7611394565b8360405161190160f01b8152600281019290925260228201526042902090565b600080600061192887878787611fb0565b9150915061193581612074565b5095945050505050565b6001600160a01b03811660009081526007602052604090208054600181018255905b50919050565b6001600160a01b038381166000908152600960205260408082205485841683529120546108fe92918216911683611aa3565b6000816000036119ab57506000919050565b600060016119b8846121be565b901c6001901b905060018184816119d1576119d16126d3565b048201901c905060018184816119e9576119e96126d3565b048201901c90506001818481611a0157611a016126d3565b048201901c90506001818481611a1957611a196126d3565b048201901c90506001818481611a3157611a316126d3565b048201901c90506001818481611a4957611a496126d3565b048201901c90506001818481611a6157611a616126d3565b048201901c9050611a8181828581611a7b57611a7b6126d3565b04612252565b9392505050565b6000611a9760028484186126e9565b61057e90848416612697565b816001600160a01b0316836001600160a01b031614158015611ac55750600081115b156108fe576001600160a01b03831615611b53576001600160a01b0383166000908152600a602052604081208190611b0090611fa485611cb7565b91509150846001600160a01b03167fdec2bacdd2f05b59de34da9b523dff8be42e5e38e818c82fdb0bae774387a7248383604051611b48929190918252602082015260400190565b60405180910390a250505b6001600160a01b038216156108fe576001600160a01b0382166000908152600a602052604081208190611b8990611cab85611cb7565b91509150836001600160a01b03167fdec2bacdd2f05b59de34da9b523dff8be42e5e38e818c82fdb0bae774387a7248383604051611bd1929190918252602082015260400190565b60405180910390a25050505050565b6001600160a01b038216611c365760405162461bcd60e51b815260206004820152601f60248201527f45524332303a206d696e7420746f20746865207a65726f206164647265737300604482015260640161075c565b8060026000828254611c489190612697565b90915550506001600160a01b038216600081815260208181526040808320805486019055518481527fddf252ad1be2c89b69c2b068fc378daa952ba7f163c4a11628f55a4df523b3ef910160405180910390a3611ca760008383611967565b5050565b600061057e8284612697565b82546000908190818115611d045760008781526020902082016000190160408051808201909152905463ffffffff8116825264010000000090046001600160e01b03166020820152611d19565b60408051808201909152600080825260208201525b905080602001516001600160e01b03169350611d3984868863ffffffff16565b9250600082118015611d635750611d4e610a6f565b65ffffffffffff16816000015163ffffffff16145b15611da857611d7183612268565b60008881526020902083016000190180546001600160e01b03929092166401000000000263ffffffff909216919091179055611e22565b866040518060400160405280611dcc611dbf610a6f565b65ffffffffffff16611621565b63ffffffff168152602001611de086612268565b6001600160e01b0390811690915282546001810184556000938452602093849020835194909301519091166401000000000263ffffffff909316929092179101555b5050935093915050565b60606000611e39836122d1565b604080516020808252818301909252919250600091906020820181803683375050509182525060208101929092525090565b6001600160a01b038216611ecb5760405162461bcd60e51b815260206004820152602160248201527f45524332303a206275726e2066726f6d20746865207a65726f206164647265736044820152607360f81b606482015260840161075c565b6001600160a01b03821660009081526020819052604090205481811015611f3f5760405162461bcd60e51b815260206004820152602260248201527f45524332303a206275726e20616d6f756e7420657863656564732062616c616e604482015261636560f01b606482015260840161075c565b6001600160a01b0383166000818152602081815260408083208686039055600280548790039055518581529192917fddf252ad1be2c89b69c2b068fc378daa952ba7f163c4a11628f55a4df523b3ef910160405180910390a36108fe83600084611967565b600061057e82846126c0565b6000807f7fffffffffffffffffffffffffffffff5d576e7357a4501ddfe92f46681b20a0831115611fe7575060009050600361206b565b6040805160008082526020820180845289905260ff881692820192909252606081018690526080810185905260019060a0016020604051602081039080840390855afa15801561203b573d6000803e3d6000fd5b5050604051601f1901519150506001600160a01b0381166120645760006001925092505061206b565b9150600090505b94509492505050565b60008160048111156120885761208861270b565b036120905750565b60018160048111156120a4576120a461270b565b036120f15760405162461bcd60e51b815260206004820152601860248201527f45434453413a20696e76616c6964207369676e61747572650000000000000000604482015260640161075c565b60028160048111156121055761210561270b565b036121525760405162461bcd60e51b815260206004820152601f60248201527f45434453413a20696e76616c6964207369676e6174757265206c656e67746800604482015260640161075c565b60038160048111156121665761216661270b565b036108295760405162461bcd60e51b815260206004820152602260248201527f45434453413a20696e76616c6964207369676e6174757265202773272076616c604482015261756560f01b606482015260840161075c565b600080608083901c156121d357608092831c92015b604083901c156121e557604092831c92015b602083901c156121f757602092831c92015b601083901c1561220957601092831c92015b600883901c1561221b57600892831c92015b600483901c1561222d57600492831c92015b600283901c1561223f57600292831c92015b600183901c156105815760010192915050565b6000818310612261578161057e565b5090919050565b60006001600160e01b038211156116865760405162461bcd60e51b815260206004820152602760248201527f53616665436173743a2076616c756520646f65736e27742066697420696e20326044820152663234206269747360c81b606482015260840161075c565b600060ff8216601f81111561058157604051632cd44ac360e21b815260040160405180910390fd5b80356001600160a01b038116811461231057600080fd5b919050565b6000806040838503121561232857600080fd5b612331836122f9565b946020939093013593505050565b6000815180845260005b8181101561236557602081850181015186830182015201612349565b506000602082860101526020601f19601f83011685010191505092915050565b60208152600061057e602083018461233f565b600080600080608085870312156123ae57600080fd5b843593506123be602086016122f9565b92506123cc604086016122f9565b9396929550929360600135925050565b6000806000606084860312156123f157600080fd5b6123fa846122f9565b9250612408602085016122f9565b9150604084013590509250925092565b60006020828403121561242a57600080fd5b61057e826122f9565b60008060006060848603121561244857600080fd5b83359250612408602085016122f9565b60ff60f81b881681526000602060e08184015261247860e084018a61233f565b838103604085015261248a818a61233f565b606085018990526001600160a01b038816608086015260a0850187905284810360c0860152855180825283870192509083019060005b818110156124dc578351835292840192918401916001016124c0565b50909c9b505050505050505050505050565b60006020828403121561250057600080fd5b5035919050565b803560ff8116811461231057600080fd5b60008060008060008060c0878903121561253157600080fd5b61253a876122f9565b9550602087013594506040870135935061255660608801612507565b92506080870135915060a087013590509295509295509295565b600080600080600080600060e0888a03121561258b57600080fd5b612594886122f9565b96506125a2602089016122f9565b955060408801359450606088013593506125be60808901612507565b925060a0880135915060c0880135905092959891949750929550565b600080604083850312156125ed57600080fd5b6125f6836122f9565b9150612604602084016122f9565b90509250929050565b6000806040838503121561262057600080fd5b612629836122f9565b9150602083013563ffffffff8116811461264257600080fd5b809150509250929050565b600181811c9082168061266157607f821691505b60208210810361196157634e487b7160e01b600052602260045260246000fd5b634e487b7160e01b600052601160045260246000fd5b8082018082111561058157610581612681565b634e487b7160e01b600052603260045260246000fd5b8181038181111561058157610581612681565b634e487b7160e01b600052601260045260246000fd5b60008261270657634e487b7160e01b600052601260045260246000fd5b500490565b634e487b7160e01b600052602160045260246000fdfea2646970667358221220dce430eb22a3a799ba77e63becccd0a98ae06cfbb3e9daa3a74e19771238909464736f6c63430008140033",
    "linkReferences": {}
  },
  "methodIdentifiers": {
    "CLOCK_MODE()": "4bf5d7e9",
    "DOMAIN_SEPARATOR()": "3644e515",
    "allowance(address,address)": "dd62ed3e",
    "approve(address,uint256)": "095ea7b3",
    "approve(uint256,address,uint256)": "8cb0a511",
    "balanceOf(address)": "70a08231",
    "balanceOf(address,uint256)": "00fdd58e",
    "burn(uint256,address,uint256)": "9eea5f66",
    "checkpoints(address,uint32)": "f1127ed8",
    "clock()": "91ddadf4",
    "decimals()": "313ce567",
    "decreaseAllowance(address,uint256)": "a457c2d7",
    "delegate(address)": "5c19a95c",
    "delegateBySig(address,uint256,uint256,uint8,bytes32,bytes32)": "c3cda520",
    "delegates(address)": "587cde1e",
    "eip712Domain()": "84b0196e",
    "getPastTotalSupply(uint256)": "8e539e8c",
    "getPastVotes(address,uint256)": "3a46b1a8",
    "getVotes(address)": "9ab24eb0",
    "increaseAllowance(address,uint256)": "39509351",
    "mint(uint256,address,uint256)": "836a1040",
    "name()": "06fdde03",
    "nonces(address)": "7ecebe00",
    "numCheckpoints(address)": "6fcfff45",
    "owner()": "8da5cb5b",
    "permit(address,address,uint256,uint256,uint8,bytes32,bytes32)": "d505accf",
    "projectId()": "3fafa127",
    "renounceOwnership()": "715018a6",
    "symbol()": "95d89b41",
    "totalSupply()": "18160ddd",
    "totalSupply(uint256)": "bd85b039",
    "transfer(address,uint256)": "a9059cbb",
    "transfer(uint256,address,uint256)": "f8548e36",
    "transferFrom(address,address,uint256)": "23b872dd",
    "transferFrom(uint256,address,address,uint256)": "1c0f12b6",
    "transferOwnership(address)": "f2fde38b"
  },
  "id": 68
}