{
  "abi": [
    {
      "inputs": [
        {
          "internalType": "string",
          "name": "_name",
          "type": "string"
        },
        {
          "internalType": "string",
          "name": "_symbol",
          "type": "string"
        },
        {
          "internalType": "uint256",
          "name": "_projectId",
          "type": "uint256"
        }
      ],
      "stateMutability": "nonpayable",
      "type": "constructor"
    },
    {
      "inputs": [],
      "name": "BAD_PROJECT",
      "type": "error"
    },
    {
      "anonymous": false,
      "inputs": [
        {
          "indexed": true,
          "internalType": "address",
          "name": "owner",
          "type": "address"
        },
        {
          "indexed": true,
          "internalType": "address",
          "name": "spender",
          "type": "address"
        },
        {
          "indexed": false,
          "internalType": "uint256",
          "name": "value",
          "type": "uint256"
        }
      ],
      "name": "Approval",
      "type": "event"
    },
    {
      "anonymous": false,
      "inputs": [
        {
          "indexed": true,
          "internalType": "address",
          "name": "delegator",
          "type": "address"
        },
        {
          "indexed": true,
          "internalType": "address",
          "name": "fromDelegate",
          "type": "address"
        },
        {
          "indexed": true,
          "internalType": "address",
          "name": "toDelegate",
          "type": "address"
        }
      ],
      "name": "DelegateChanged",
      "type": "event"
    },
    {
      "anonymous": false,
      "inputs": [
        {
          "indexed": true,
          "internalType": "address",
          "name": "delegate",
          "type": "address"
        },
        {
          "indexed": false,
          "internalType": "uint256",
          "name": "previousBalance",
          "type": "uint256"
        },
        {
          "indexed": false,
          "internalType": "uint256",
          "name": "newBalance",
          "type": "uint256"
        }
      ],
      "name": "DelegateVotesChanged",
      "type": "event"
    },
    {
      "anonymous": false,
      "inputs": [
        {
          "indexed": true,
          "internalType": "address",
          "name": "previousOwner",
          "type": "address"
        },
        {
          "indexed": true,
          "internalType": "address",
          "name": "newOwner",
          "type": "address"
        }
      ],
      "name": "OwnershipTransferred",
      "type": "event"
    },
    {
      "anonymous": false,
      "inputs": [
        {
          "indexed": true,
          "internalType": "address",
          "name": "from",
          "type": "address"
        },
        {
          "indexed": true,
          "internalType": "address",
          "name": "to",
          "type": "address"
        },
        {
          "indexed": false,
          "internalType": "uint256",
          "name": "value",
          "type": "uint256"
        }
      ],
      "name": "Transfer",
      "type": "event"
    },
    {
      "inputs": [],
      "name": "DOMAIN_SEPARATOR",
      "outputs": [
        {
          "internalType": "bytes32",
          "name": "",
          "type": "bytes32"
        }
      ],
      "stateMutability": "view",
      "type": "function"
    },
    {
      "inputs": [
        {
          "internalType": "address",
          "name": "owner",
          "type": "address"
        },
        {
          "internalType": "address",
          "name": "spender",
          "type": "address"
        }
      ],
      "name": "allowance",
      "outputs": [
        {
          "internalType": "uint256",
          "name": "",
          "type": "uint256"
        }
      ],
      "stateMutability": "view",
      "type": "function"
    },
    {
      "inputs": [
        {
          "internalType": "address",
          "name": "spender",
          "type": "address"
        },
        {
          "internalType": "uint256",
          "name": "amount",
          "type": "uint256"
        }
      ],
      "name": "approve",
      "outputs": [
        {
          "internalType": "bool",
          "name": "",
          "type": "bool"
        }
      ],
      "stateMutability": "nonpayable",
      "type": "function"
    },
    {
      "inputs": [
        {
          "internalType": "uint256",
          "name": "_projectId",
          "type": "uint256"
        },
        {
          "internalType": "address",
          "name": "_spender",
          "type": "address"
        },
        {
          "internalType": "uint256",
          "name": "_amount",
          "type": "uint256"
        }
      ],
      "name": "approve",
      "outputs": [],
      "stateMutability": "nonpayable",
      "type": "function"
    },
    {
      "inputs": [
        {
          "internalType": "address",
          "name": "_account",
          "type": "address"
        },
        {
          "internalType": "uint256",
          "name": "_projectId",
          "type": "uint256"
        }
      ],
      "name": "balanceOf",
      "outputs": [
        {
          "internalType": "uint256",
          "name": "",
          "type": "uint256"
        }
      ],
      "stateMutability": "view",
      "type": "function"
    },
    {
      "inputs": [
        {
          "internalType": "address",
          "name": "account",
          "type": "address"
        }
      ],
      "name": "balanceOf",
      "outputs": [
        {
          "internalType": "uint256",
          "name": "",
          "type": "uint256"
        }
      ],
      "stateMutability": "view",
      "type": "function"
    },
    {
      "inputs": [
        {
          "internalType": "uint256",
          "name": "_projectId",
          "type": "uint256"
        },
        {
          "internalType": "address",
          "name": "_account",
          "type": "address"
        },
        {
          "internalType": "uint256",
          "name": "_amount",
          "type": "uint256"
        }
      ],
      "name": "burn",
      "outputs": [],
      "stateMutability": "nonpayable",
      "type": "function"
    },
    {
      "inputs": [
        {
          "internalType": "address",
          "name": "account",
          "type": "address"
        },
        {
          "internalType": "uint32",
          "name": "pos",
          "type": "uint32"
        }
      ],
      "name": "checkpoints",
      "outputs": [
        {
          "components": [
            {
              "internalType": "uint32",
              "name": "fromBlock",
              "type": "uint32"
            },
            {
              "internalType": "uint224",
              "name": "votes",
              "type": "uint224"
            }
          ],
          "internalType": "struct ERC20Votes.Checkpoint",
          "name": "",
          "type": "tuple"
        }
      ],
      "stateMutability": "view",
      "type": "function"
    },
    {
      "inputs": [],
      "name": "decimals",
      "outputs": [
        {
          "internalType": "uint8",
          "name": "",
          "type": "uint8"
        }
      ],
      "stateMutability": "view",
      "type": "function"
    },
    {
      "inputs": [
        {
          "internalType": "address",
          "name": "spender",
          "type": "address"
        },
        {
          "internalType": "uint256",
          "name": "subtractedValue",
          "type": "uint256"
        }
      ],
      "name": "decreaseAllowance",
      "outputs": [
        {
          "internalType": "bool",
          "name": "",
          "type": "bool"
        }
      ],
      "stateMutability": "nonpayable",
      "type": "function"
    },
    {
      "inputs": [
        {
          "internalType": "address",
          "name": "delegatee",
          "type": "address"
        }
      ],
      "name": "delegate",
      "outputs": [],
      "stateMutability": "nonpayable",
      "type": "function"
    },
    {
      "inputs": [
        {
          "internalType": "address",
          "name": "delegatee",
          "type": "address"
        },
        {
          "internalType": "uint256",
          "name": "nonce",
          "type": "uint256"
        },
        {
          "internalType": "uint256",
          "name": "expiry",
          "type": "uint256"
        },
        {
          "internalType": "uint8",
          "name": "v",
          "type": "uint8"
        },
        {
          "internalType": "bytes32",
          "name": "r",
          "type": "bytes32"
        },
        {
          "internalType": "bytes32",
          "name": "s",
          "type": "bytes32"
        }
      ],
      "name": "delegateBySig",
      "outputs": [],
      "stateMutability": "nonpayable",
      "type": "function"
    },
    {
      "inputs": [
        {
          "internalType": "address",
          "name": "account",
          "type": "address"
        }
      ],
      "name": "delegates",
      "outputs": [
        {
          "internalType": "address",
          "name": "",
          "type": "address"
        }
      ],
      "stateMutability": "view",
      "type": "function"
    },
    {
      "inputs": [
        {
          "internalType": "uint256",
          "name": "blockNumber",
          "type": "uint256"
        }
      ],
      "name": "getPastTotalSupply",
      "outputs": [
        {
          "internalType": "uint256",
          "name": "",
          "type": "uint256"
        }
      ],
      "stateMutability": "view",
      "type": "function"
    },
    {
      "inputs": [
        {
          "internalType": "address",
          "name": "account",
          "type": "address"
        },
        {
          "internalType": "uint256",
          "name": "blockNumber",
          "type": "uint256"
        }
      ],
      "name": "getPastVotes",
      "outputs": [
        {
          "internalType": "uint256",
          "name": "",
          "type": "uint256"
        }
      ],
      "stateMutability": "view",
      "type": "function"
    },
    {
      "inputs": [
        {
          "internalType": "address",
          "name": "account",
          "type": "address"
        }
      ],
      "name": "getVotes",
      "outputs": [
        {
          "internalType": "uint256",
          "name": "",
          "type": "uint256"
        }
      ],
      "stateMutability": "view",
      "type": "function"
    },
    {
      "inputs": [
        {
          "internalType": "address",
          "name": "spender",
          "type": "address"
        },
        {
          "internalType": "uint256",
          "name": "addedValue",
          "type": "uint256"
        }
      ],
      "name": "increaseAllowance",
      "outputs": [
        {
          "internalType": "bool",
          "name": "",
          "type": "bool"
        }
      ],
      "stateMutability": "nonpayable",
      "type": "function"
    },
    {
      "inputs": [
        {
          "internalType": "uint256",
          "name": "_projectId",
          "type": "uint256"
        },
        {
          "internalType": "address",
          "name": "_account",
          "type": "address"
        },
        {
          "internalType": "uint256",
          "name": "_amount",
          "type": "uint256"
        }
      ],
      "name": "mint",
      "outputs": [],
      "stateMutability": "nonpayable",
      "type": "function"
    },
    {
      "inputs": [],
      "name": "name",
      "outputs": [
        {
          "internalType": "string",
          "name": "",
          "type": "string"
        }
      ],
      "stateMutability": "view",
      "type": "function"
    },
    {
      "inputs": [
        {
          "internalType": "address",
          "name": "owner",
          "type": "address"
        }
      ],
      "name": "nonces",
      "outputs": [
        {
          "internalType": "uint256",
          "name": "",
          "type": "uint256"
        }
      ],
      "stateMutability": "view",
      "type": "function"
    },
    {
      "inputs": [
        {
          "internalType": "address",
          "name": "account",
          "type": "address"
        }
      ],
      "name": "numCheckpoints",
      "outputs": [
        {
          "internalType": "uint32",
          "name": "",
          "type": "uint32"
        }
      ],
      "stateMutability": "view",
      "type": "function"
    },
    {
      "inputs": [],
      "name": "owner",
      "outputs": [
        {
          "internalType": "address",
          "name": "",
          "type": "address"
        }
      ],
      "stateMutability": "view",
      "type": "function"
    },
    {
      "inputs": [
        {
          "internalType": "address",
          "name": "owner",
          "type": "address"
        },
        {
          "internalType": "address",
          "name": "spender",
          "type": "address"
        },
        {
          "internalType": "uint256",
          "name": "value",
          "type": "uint256"
        },
        {
          "internalType": "uint256",
          "name": "deadline",
          "type": "uint256"
        },
        {
          "internalType": "uint8",
          "name": "v",
          "type": "uint8"
        },
        {
          "internalType": "bytes32",
          "name": "r",
          "type": "bytes32"
        },
        {
          "internalType": "bytes32",
          "name": "s",
          "type": "bytes32"
        }
      ],
      "name": "permit",
      "outputs": [],
      "stateMutability": "nonpayable",
      "type": "function"
    },
    {
      "inputs": [],
      "name": "projectId",
      "outputs": [
        {
          "internalType": "uint256",
          "name": "",
          "type": "uint256"
        }
      ],
      "stateMutability": "view",
      "type": "function"
    },
    {
      "inputs": [],
      "name": "renounceOwnership",
      "outputs": [],
      "stateMutability": "nonpayable",
      "type": "function"
    },
    {
      "inputs": [],
      "name": "symbol",
      "outputs": [
        {
          "internalType": "string",
          "name": "",
          "type": "string"
        }
      ],
      "stateMutability": "view",
      "type": "function"
    },
    {
      "inputs": [],
      "name": "totalSupply",
      "outputs": [
        {
          "internalType": "uint256",
          "name": "",
          "type": "uint256"
        }
      ],
      "stateMutability": "view",
      "type": "function"
    },
    {
      "inputs": [
        {
          "internalType": "uint256",
          "name": "_projectId",
          "type": "uint256"
        }
      ],
      "name": "totalSupply",
      "outputs": [
        {
          "internalType": "uint256",
          "name": "",
          "type": "uint256"
        }
      ],
      "stateMutability": "view",
      "type": "function"
    },
    {
      "inputs": [
        {
          "internalType": "address",
          "name": "to",
          "type": "address"
        },
        {
          "internalType": "uint256",
          "name": "amount",
          "type": "uint256"
        }
      ],
      "name": "transfer",
      "outputs": [
        {
          "internalType": "bool",
          "name": "",
          "type": "bool"
        }
      ],
      "stateMutability": "nonpayable",
      "type": "function"
    },
    {
      "inputs": [
        {
          "internalType": "uint256",
          "name": "_projectId",
          "type": "uint256"
        },
        {
          "internalType": "address",
          "name": "_to",
          "type": "address"
        },
        {
          "internalType": "uint256",
          "name": "_amount",
          "type": "uint256"
        }
      ],
      "name": "transfer",
      "outputs": [],
      "stateMutability": "nonpayable",
      "type": "function"
    },
    {
      "inputs": [
        {
          "internalType": "uint256",
          "name": "_projectId",
          "type": "uint256"
        },
        {
          "internalType": "address",
          "name": "_from",
          "type": "address"
        },
        {
          "internalType": "address",
          "name": "_to",
          "type": "address"
        },
        {
          "internalType": "uint256",
          "name": "_amount",
          "type": "uint256"
        }
      ],
      "name": "transferFrom",
      "outputs": [],
      "stateMutability": "nonpayable",
      "type": "function"
    },
    {
      "inputs": [
        {
          "internalType": "address",
          "name": "from",
          "type": "address"
        },
        {
          "internalType": "address",
          "name": "to",
          "type": "address"
        },
        {
          "internalType": "uint256",
          "name": "amount",
          "type": "uint256"
        }
      ],
      "name": "transferFrom",
      "outputs": [
        {
          "internalType": "bool",
          "name": "",
          "type": "bool"
        }
      ],
      "stateMutability": "nonpayable",
      "type": "function"
    },
    {
      "inputs": [
        {
          "internalType": "address",
          "name": "newOwner",
          "type": "address"
        }
      ],
      "name": "transferOwnership",
      "outputs": [],
      "stateMutability": "nonpayable",
      "type": "function"
    }
  ],
  "bytecode": {
    "object": "0x6101606040523480156200001257600080fd5b506040516200284938038062002849833981016040819052620000359162000233565b6040805180820190915260018152603160f81b6020820152839081908185600362000061838262000335565b50600462000070828262000335565b5050825160209384012082519284019290922060e08390526101008190524660a0818152604080517f8b73c3c69bb8fe3d512ecc4cf759cc79239f7b179b0ffacaa9a75d522b39400f818901819052818301979097526060810194909452608080850193909352308483018190528151808603909301835260c09485019091528151919096012090529290925261012052506200010f9050336200011c565b6101405250620004019050565b600a80546001600160a01b038381166001600160a01b0319831681179093556040519116919082907f8be0079c531659141344cd1fd0a4f28419497f9722a3daafe3b4186f6b6457e090600090a35050565b634e487b7160e01b600052604160045260246000fd5b600082601f8301126200019657600080fd5b81516001600160401b0380821115620001b357620001b36200016e565b604051601f8301601f19908116603f01168101908282118183101715620001de57620001de6200016e565b81604052838152602092508683858801011115620001fb57600080fd5b600091505b838210156200021f578582018301518183018401529082019062000200565b600093810190920192909252949350505050565b6000806000606084860312156200024957600080fd5b83516001600160401b03808211156200026157600080fd5b6200026f8783880162000184565b945060208601519150808211156200028657600080fd5b50620002958682870162000184565b925050604084015190509250925092565b600181811c90821680620002bb57607f821691505b602082108103620002dc57634e487b7160e01b600052602260045260246000fd5b50919050565b601f8211156200033057600081815260208120601f850160051c810160208610156200030b5750805b601f850160051c820191505b818110156200032c5782815560010162000317565b5050505b505050565b81516001600160401b038111156200035157620003516200016e565b6200036981620003628454620002a6565b84620002e2565b602080601f831160018114620003a15760008415620003885750858301515b600019600386901b1c1916600185901b1785556200032c565b600085815260208120601f198616915b82811015620003d257888601518255948401946001909101908401620003b1565b5085821015620003f15787850151600019600388901b60f8161c191681555b5050505050600190811b01905550565b60805160a05160c05160e0516101005161012051610140516123a7620004a2600039600081816102cf015281816105d0015281816105fa01528181610784015281816107ae015281816107ff01528181610829015281816109750152818161099f01528181610e3e0152610e680152600061127e015260006112cd015260006112a8015260006112010152600061122b0152600061125501526123a76000f3fe608060405234801561001057600080fd5b50600436106101fa5760003560e01c80637ecebe001161011a578063a457c2d7116100ad578063d505accf1161007c578063d505accf14610478578063dd62ed3e1461048b578063f1127ed81461049e578063f2fde38b146104db578063f8548e36146104ee57600080fd5b8063a457c2d71461042c578063a9059cbb1461043f578063bd85b03914610452578063c3cda5201461046557600080fd5b80638e539e8c116100e95780638e539e8c146103eb57806395d89b41146103fe5780639ab24eb0146104065780639eea5f661461041957600080fd5b80637ecebe00146103a1578063836a1040146103b45780638cb0a511146103c75780638da5cb5b146103da57600080fd5b806339509351116101925780635c19a95c116101615780635c19a95c146103355780636fcfff451461034857806370a0823114610370578063715018a61461039957600080fd5b806339509351146102a45780633a46b1a8146102b75780633fafa127146102ca578063587cde1e146102f157600080fd5b80631c0f12b6116101ce5780631c0f12b61461026557806323b872dd1461027a578063313ce5671461028d5780633644e5151461029c57600080fd5b8062fdd58e146101ff57806306fdde0314610225578063095ea7b31461023a57806318160ddd1461025d575b600080fd5b61021261020d366004612006565b610501565b6040519081526020015b60405180910390f35b61022d610524565b60405161021c9190612030565b61024d610248366004612006565b6105b6565b604051901515815260200161021c565b600254610212565b61027861027336600461207e565b6105ce565b005b61024d6102883660046120c2565b61064c565b6040516012815260200161021c565b610212610675565b61024d6102b2366004612006565b61067f565b6102126102c5366004612006565b6106a1565b6102127f000000000000000000000000000000000000000000000000000000000000000081565b61031d6102ff3660046120fe565b6001600160a01b039081166000908152600760205260409020541690565b6040516001600160a01b03909116815260200161021c565b6102786103433660046120fe565b610719565b61035b6103563660046120fe565b610726565b60405163ffffffff909116815260200161021c565b61021261037e3660046120fe565b6001600160a01b031660009081526020819052604090205490565b610278610748565b6102126103af3660046120fe565b61075c565b6102786103c2366004612119565b61077a565b6102786103d5366004612119565b6107fd565b600a546001600160a01b031661031d565b6102126103f936600461213e565b610879565b61022d6108d5565b6102126104143660046120fe565b6108e4565b610278610427366004612119565b61096b565b61024d61043a366004612006565b6109e9565b61024d61044d366004612006565b610a64565b61021261046036600461213e565b610a72565b610278610473366004612168565b610a7d565b6102786104863660046121c0565b610bb3565b61021261049936600461222a565b610d17565b6104b16104ac36600461225d565b610d42565b60408051825163ffffffff1681526020928301516001600160e01b0316928101929092520161021c565b6102786104e93660046120fe565b610dc6565b6102786104fc366004612119565b610e3c565b6001600160a01b0382166000908152602081905260408120545b90505b92915050565b6060600380546105339061229d565b80601f016020809104026020016040519081016040528092919081815260200182805461055f9061229d565b80156105ac5780601f10610581576101008083540402835291602001916105ac565b820191906000526020600020905b81548152906001019060200180831161058f57829003601f168201915b5050505050905090565b6000336105c4818585610eb2565b5060019392505050565b7f00000000000000000000000000000000000000000000000000000000000000001580159061061d57507f00000000000000000000000000000000000000000000000000000000000000008414155b1561063a5760405162cdceed60e81b815260040160405180910390fd5b61064583838361064c565b5050505050565b60003361065a858285610fd6565b61066585858561104a565b506001949350505050565b905090565b60006106706111f4565b6000336105c48185856106928383610d17565b61069c91906122e7565b610eb2565b60004382106106f75760405162461bcd60e51b815260206004820152601f60248201527f4552433230566f7465733a20626c6f636b206e6f7420796574206d696e65640060448201526064015b60405180910390fd5b6001600160a01b038316600090815260086020526040902061051b908361131b565b6107233382611412565b50565b6001600160a01b03811660009081526008602052604081205461051e9061148b565b6107506114f4565b61075a600061154e565b565b6001600160a01b03811660009081526005602052604081205461051e565b6107826114f4565b7f0000000000000000000000000000000000000000000000000000000000000000158015906107d157507f00000000000000000000000000000000000000000000000000000000000000008314155b156107ee5760405162cdceed60e81b815260040160405180910390fd5b6107f882826115a0565b505050565b7f00000000000000000000000000000000000000000000000000000000000000001580159061084c57507f00000000000000000000000000000000000000000000000000000000000000008314155b156108695760405162cdceed60e81b815260040160405180910390fd5b61087382826105b6565b50505050565b60004382106108ca5760405162461bcd60e51b815260206004820152601f60248201527f4552433230566f7465733a20626c6f636b206e6f7420796574206d696e65640060448201526064016106ee565b61051e60098361131b565b6060600480546105339061229d565b6001600160a01b0381166000908152600860205260408120548015610958576001600160a01b03831660009081526008602052604090206109266001836122fa565b815481106109365761093661230d565b60009182526020909120015464010000000090046001600160e01b031661095b565b60005b6001600160e01b03169392505050565b6109736114f4565b7f0000000000000000000000000000000000000000000000000000000000000000158015906109c257507f00000000000000000000000000000000000000000000000000000000000000008314155b156109df5760405162cdceed60e81b815260040160405180910390fd5b6107f8828261162a565b600033816109f78286610d17565b905083811015610a575760405162461bcd60e51b815260206004820152602560248201527f45524332303a2064656372656173656420616c6c6f77616e63652062656c6f77604482015264207a65726f60d81b60648201526084016106ee565b6106658286868403610eb2565b6000336105c481858561104a565b600061051e60025490565b83421115610acd5760405162461bcd60e51b815260206004820152601d60248201527f4552433230566f7465733a207369676e6174757265206578706972656400000060448201526064016106ee565b604080517fe48329057bfd03d55e49b547132e39cffd9c1820ad7b9d4c5307691425d15adf60208201526001600160a01b038816918101919091526060810186905260808101859052600090610b4790610b3f9060a00160405160208183030381529060405280519060200120611642565b858585611690565b9050610b52816116b8565b8614610ba05760405162461bcd60e51b815260206004820152601960248201527f4552433230566f7465733a20696e76616c6964206e6f6e63650000000000000060448201526064016106ee565b610baa8188611412565b50505050505050565b83421115610c035760405162461bcd60e51b815260206004820152601d60248201527f45524332305065726d69743a206578706972656420646561646c696e6500000060448201526064016106ee565b60007f6e71edae12b1b97f4d1f60370fef10105fa2faae0126114a169c64845d6126c9888888610c328c6116b8565b6040805160208101969096526001600160a01b0394851690860152929091166060840152608083015260a082015260c0810186905260e0016040516020818303038152906040528051906020012090506000610c8d82611642565b90506000610c9d82878787611690565b9050896001600160a01b0316816001600160a01b031614610d005760405162461bcd60e51b815260206004820152601e60248201527f45524332305065726d69743a20696e76616c6964207369676e6174757265000060448201526064016106ee565b610d0b8a8a8a610eb2565b50505050505050505050565b6001600160a01b03918216600090815260016020908152604080832093909416825291909152205490565b60408051808201909152600080825260208201526001600160a01b0383166000908152600860205260409020805463ffffffff8416908110610d8657610d8661230d565b60009182526020918290206040805180820190915291015463ffffffff8116825264010000000090046001600160e01b0316918101919091529392505050565b610dce6114f4565b6001600160a01b038116610e335760405162461bcd60e51b815260206004820152602660248201527f4f776e61626c653a206e6577206f776e657220697320746865207a65726f206160448201526564647265737360d01b60648201526084016106ee565b6107238161154e565b7f000000000000000000000000000000000000000000000000000000000000000015801590610e8b57507f00000000000000000000000000000000000000000000000000000000000000008314155b15610ea85760405162cdceed60e81b815260040160405180910390fd5b6108738282610a64565b6001600160a01b038316610f145760405162461bcd60e51b8152602060048201526024808201527f45524332303a20617070726f76652066726f6d20746865207a65726f206164646044820152637265737360e01b60648201526084016106ee565b6001600160a01b038216610f755760405162461bcd60e51b815260206004820152602260248201527f45524332303a20617070726f766520746f20746865207a65726f206164647265604482015261737360f01b60648201526084016106ee565b6001600160a01b0383811660008181526001602090815260408083209487168084529482529182902085905590518481527f8c5be1e5ebec7d5bd14f71427d1e84f3dd0314c0f7b2291e5b200ac8c7c3b925910160405180910390a3505050565b6000610fe28484610d17565b90506000198114610873578181101561103d5760405162461bcd60e51b815260206004820152601d60248201527f45524332303a20696e73756666696369656e7420616c6c6f77616e636500000060448201526064016106ee565b6108738484848403610eb2565b6001600160a01b0383166110ae5760405162461bcd60e51b815260206004820152602560248201527f45524332303a207472616e736665722066726f6d20746865207a65726f206164604482015264647265737360d81b60648201526084016106ee565b6001600160a01b0382166111105760405162461bcd60e51b815260206004820152602360248201527f45524332303a207472616e7366657220746f20746865207a65726f206164647260448201526265737360e81b60648201526084016106ee565b6001600160a01b038316600090815260208190526040902054818110156111885760405162461bcd60e51b815260206004820152602660248201527f45524332303a207472616e7366657220616d6f756e7420657863656564732062604482015265616c616e636560d01b60648201526084016106ee565b6001600160a01b03848116600081815260208181526040808320878703905593871680835291849020805487019055925185815290927fddf252ad1be2c89b69c2b068fc378daa952ba7f163c4a11628f55a4df523b3ef910160405180910390a36108738484846116e0565b6000306001600160a01b037f00000000000000000000000000000000000000000000000000000000000000001614801561124d57507f000000000000000000000000000000000000000000000000000000000000000046145b1561127757507f000000000000000000000000000000000000000000000000000000000000000090565b50604080517f00000000000000000000000000000000000000000000000000000000000000006020808301919091527f0000000000000000000000000000000000000000000000000000000000000000828401527f000000000000000000000000000000000000000000000000000000000000000060608301524660808301523060a0808401919091528351808403909101815260c0909201909252805191012090565b81546000908181600581111561137557600061133684611712565b61134090856122fa565b600088815260209020909150869082015463ffffffff16111561136557809150611373565b6113708160016122e7565b92505b505b808210156113c25760006113898383611801565b600088815260209020909150869082015463ffffffff1611156113ae578091506113bc565b6113b98160016122e7565b92505b50611375565b80156113fc576113e5866113d76001846122fa565b600091825260209091200190565b5464010000000090046001600160e01b03166113ff565b60005b6001600160e01b03169695505050505050565b6001600160a01b038281166000818152600760208181526040808420805485845282862054949093528787166001600160a01b03198416811790915590519190951694919391928592917f3134e8a2e6d97e929a7e54011ea5485d7d196dd5f0ba4d4ef95803e8e3fc257f9190a461087382848361181c565b600063ffffffff8211156114f05760405162461bcd60e51b815260206004820152602660248201527f53616665436173743a2076616c756520646f65736e27742066697420696e203360448201526532206269747360d01b60648201526084016106ee565b5090565b600a546001600160a01b0316331461075a5760405162461bcd60e51b815260206004820181905260248201527f4f776e61626c653a2063616c6c6572206973206e6f7420746865206f776e657260448201526064016106ee565b600a80546001600160a01b038381166001600160a01b0319831681179093556040519116919082907f8be0079c531659141344cd1fd0a4f28419497f9722a3daafe3b4186f6b6457e090600090a35050565b6115aa8282611959565b6002546001600160e01b03101561161c5760405162461bcd60e51b815260206004820152603060248201527f4552433230566f7465733a20746f74616c20737570706c79207269736b73206f60448201526f766572666c6f77696e6720766f74657360801b60648201526084016106ee565b6108736009611a2483611a30565b6116348282611b84565b6108736009611cbd83611a30565b600061051e61164f6111f4565b8360405161190160f01b6020820152602281018390526042810182905260009060620160405160208183030381529060405280519060200120905092915050565b60008060006116a187878787611cc9565b915091506116ae81611d8d565b5095945050505050565b6001600160a01b03811660009081526005602052604090208054600181018255905b50919050565b6001600160a01b038381166000908152600760205260408082205485841683529120546107f89291821691168361181c565b60008160000361172457506000919050565b6000600161173184611ed7565b901c6001901b9050600181848161174a5761174a612323565b048201901c9050600181848161176257611762612323565b048201901c9050600181848161177a5761177a612323565b048201901c9050600181848161179257611792612323565b048201901c905060018184816117aa576117aa612323565b048201901c905060018184816117c2576117c2612323565b048201901c905060018184816117da576117da612323565b048201901c90506117fa818285816117f4576117f4612323565b04611f6b565b9392505050565b60006118106002848418612339565b61051b908484166122e7565b816001600160a01b0316836001600160a01b03161415801561183e5750600081115b156107f8576001600160a01b038316156118cc576001600160a01b0383166000908152600860205260408120819061187990611cbd85611a30565b91509150846001600160a01b03167fdec2bacdd2f05b59de34da9b523dff8be42e5e38e818c82fdb0bae774387a72483836040516118c1929190918252602082015260400190565b60405180910390a250505b6001600160a01b038216156107f8576001600160a01b0382166000908152600860205260408120819061190290611a2485611a30565b91509150836001600160a01b03167fdec2bacdd2f05b59de34da9b523dff8be42e5e38e818c82fdb0bae774387a724838360405161194a929190918252602082015260400190565b60405180910390a25050505050565b6001600160a01b0382166119af5760405162461bcd60e51b815260206004820152601f60248201527f45524332303a206d696e7420746f20746865207a65726f20616464726573730060448201526064016106ee565b80600260008282546119c191906122e7565b90915550506001600160a01b038216600081815260208181526040808320805486019055518481527fddf252ad1be2c89b69c2b068fc378daa952ba7f163c4a11628f55a4df523b3ef910160405180910390a3611a20600083836116e0565b5050565b600061051b82846122e7565b82546000908190818115611a7d57611a4d876113d76001856122fa565b60408051808201909152905463ffffffff8116825264010000000090046001600160e01b03166020820152611a92565b60408051808201909152600080825260208201525b905080602001516001600160e01b03169350611ab284868863ffffffff16565b9250600082118015611aca5750805163ffffffff1643145b15611b0f57611ad883611f81565b611ae7886113d76001866122fa565b80546001600160e01b03929092166401000000000263ffffffff909216919091179055611b7a565b866040518060400160405280611b244361148b565b63ffffffff168152602001611b3886611f81565b6001600160e01b0390811690915282546001810184556000938452602093849020835194909301519091166401000000000263ffffffff909316929092179101555b5050935093915050565b6001600160a01b038216611be45760405162461bcd60e51b815260206004820152602160248201527f45524332303a206275726e2066726f6d20746865207a65726f206164647265736044820152607360f81b60648201526084016106ee565b6001600160a01b03821660009081526020819052604090205481811015611c585760405162461bcd60e51b815260206004820152602260248201527f45524332303a206275726e20616d6f756e7420657863656564732062616c616e604482015261636560f01b60648201526084016106ee565b6001600160a01b0383166000818152602081815260408083208686039055600280548790039055518581529192917fddf252ad1be2c89b69c2b068fc378daa952ba7f163c4a11628f55a4df523b3ef910160405180910390a36107f8836000846116e0565b600061051b82846122fa565b6000807f7fffffffffffffffffffffffffffffff5d576e7357a4501ddfe92f46681b20a0831115611d005750600090506003611d84565b6040805160008082526020820180845289905260ff881692820192909252606081018690526080810185905260019060a0016020604051602081039080840390855afa158015611d54573d6000803e3d6000fd5b5050604051601f1901519150506001600160a01b038116611d7d57600060019250925050611d84565b9150600090505b94509492505050565b6000816004811115611da157611da161235b565b03611da95750565b6001816004811115611dbd57611dbd61235b565b03611e0a5760405162461bcd60e51b815260206004820152601860248201527f45434453413a20696e76616c6964207369676e6174757265000000000000000060448201526064016106ee565b6002816004811115611e1e57611e1e61235b565b03611e6b5760405162461bcd60e51b815260206004820152601f60248201527f45434453413a20696e76616c6964207369676e6174757265206c656e6774680060448201526064016106ee565b6003816004811115611e7f57611e7f61235b565b036107235760405162461bcd60e51b815260206004820152602260248201527f45434453413a20696e76616c6964207369676e6174757265202773272076616c604482015261756560f01b60648201526084016106ee565b600080608083901c15611eec57608092831c92015b604083901c15611efe57604092831c92015b602083901c15611f1057602092831c92015b601083901c15611f2257601092831c92015b600883901c15611f3457600892831c92015b600483901c15611f4657600492831c92015b600283901c15611f5857600292831c92015b600183901c1561051e5760010192915050565b6000818310611f7a578161051b565b5090919050565b60006001600160e01b038211156114f05760405162461bcd60e51b815260206004820152602760248201527f53616665436173743a2076616c756520646f65736e27742066697420696e20326044820152663234206269747360c81b60648201526084016106ee565b80356001600160a01b038116811461200157600080fd5b919050565b6000806040838503121561201957600080fd5b61202283611fea565b946020939093013593505050565b600060208083528351808285015260005b8181101561205d57858101830151858201604001528201612041565b506000604082860101526040601f19601f8301168501019250505092915050565b6000806000806080858703121561209457600080fd5b843593506120a460208601611fea565b92506120b260408601611fea565b9396929550929360600135925050565b6000806000606084860312156120d757600080fd5b6120e084611fea565b92506120ee60208501611fea565b9150604084013590509250925092565b60006020828403121561211057600080fd5b61051b82611fea565b60008060006060848603121561212e57600080fd5b833592506120ee60208501611fea565b60006020828403121561215057600080fd5b5035919050565b803560ff8116811461200157600080fd5b60008060008060008060c0878903121561218157600080fd5b61218a87611fea565b955060208701359450604087013593506121a660608801612157565b92506080870135915060a087013590509295509295509295565b600080600080600080600060e0888a0312156121db57600080fd5b6121e488611fea565b96506121f260208901611fea565b9550604088013594506060880135935061220e60808901612157565b925060a0880135915060c0880135905092959891949750929550565b6000806040838503121561223d57600080fd5b61224683611fea565b915061225460208401611fea565b90509250929050565b6000806040838503121561227057600080fd5b61227983611fea565b9150602083013563ffffffff8116811461229257600080fd5b809150509250929050565b600181811c908216806122b157607f821691505b6020821081036116da57634e487b7160e01b600052602260045260246000fd5b634e487b7160e01b600052601160045260246000fd5b8082018082111561051e5761051e6122d1565b8181038181111561051e5761051e6122d1565b634e487b7160e01b600052603260045260246000fd5b634e487b7160e01b600052601260045260246000fd5b60008261235657634e487b7160e01b600052601260045260246000fd5b500490565b634e487b7160e01b600052602160045260246000fdfea26469706673582212205dc3ad2540f258e62e2e3537f9174e34c57ccc893d8fd0e4f3f2ca874473ffc364736f6c63430008110033",
    "linkReferences": {}
  },
  "methodIdentifiers": {
    "DOMAIN_SEPARATOR()": "3644e515",
    "allowance(address,address)": "dd62ed3e",
    "approve(address,uint256)": "095ea7b3",
    "approve(uint256,address,uint256)": "8cb0a511",
    "balanceOf(address)": "70a08231",
    "balanceOf(address,uint256)": "00fdd58e",
    "burn(uint256,address,uint256)": "9eea5f66",
    "checkpoints(address,uint32)": "f1127ed8",
    "decimals()": "313ce567",
    "decreaseAllowance(address,uint256)": "a457c2d7",
    "delegate(address)": "5c19a95c",
    "delegateBySig(address,uint256,uint256,uint8,bytes32,bytes32)": "c3cda520",
    "delegates(address)": "587cde1e",
    "getPastTotalSupply(uint256)": "8e539e8c",
    "getPastVotes(address,uint256)": "3a46b1a8",
    "getVotes(address)": "9ab24eb0",
    "increaseAllowance(address,uint256)": "39509351",
    "mint(uint256,address,uint256)": "836a1040",
    "name()": "06fdde03",
    "nonces(address)": "7ecebe00",
    "numCheckpoints(address)": "6fcfff45",
    "owner()": "8da5cb5b",
    "permit(address,address,uint256,uint256,uint8,bytes32,bytes32)": "d505accf",
    "projectId()": "3fafa127",
    "renounceOwnership()": "715018a6",
    "symbol()": "95d89b41",
    "totalSupply()": "18160ddd",
    "totalSupply(uint256)": "bd85b039",
    "transfer(address,uint256)": "a9059cbb",
    "transfer(uint256,address,uint256)": "f8548e36",
    "transferFrom(address,address,uint256)": "23b872dd",
    "transferFrom(uint256,address,address,uint256)": "1c0f12b6",
    "transferOwnership(address)": "f2fde38b"
  },
  "id": 68
}