{
  "abi": [
    {
      "inputs": [
        {
          "internalType": "string",
          "name": "_name",
          "type": "string"
        },
        {
          "internalType": "string",
          "name": "_symbol",
          "type": "string"
        },
        {
          "internalType": "uint256",
          "name": "_projectId",
          "type": "uint256"
        }
      ],
      "stateMutability": "nonpayable",
      "type": "constructor"
    },
    {
      "inputs": [],
      "name": "BAD_PROJECT",
      "type": "error"
    },
    {
      "anonymous": false,
      "inputs": [
        {
          "indexed": true,
          "internalType": "address",
          "name": "owner",
          "type": "address"
        },
        {
          "indexed": true,
          "internalType": "address",
          "name": "spender",
          "type": "address"
        },
        {
          "indexed": false,
          "internalType": "uint256",
          "name": "value",
          "type": "uint256"
        }
      ],
      "name": "Approval",
      "type": "event"
    },
    {
      "anonymous": false,
      "inputs": [
        {
          "indexed": true,
          "internalType": "address",
          "name": "delegator",
          "type": "address"
        },
        {
          "indexed": true,
          "internalType": "address",
          "name": "fromDelegate",
          "type": "address"
        },
        {
          "indexed": true,
          "internalType": "address",
          "name": "toDelegate",
          "type": "address"
        }
      ],
      "name": "DelegateChanged",
      "type": "event"
    },
    {
      "anonymous": false,
      "inputs": [
        {
          "indexed": true,
          "internalType": "address",
          "name": "delegate",
          "type": "address"
        },
        {
          "indexed": false,
          "internalType": "uint256",
          "name": "previousBalance",
          "type": "uint256"
        },
        {
          "indexed": false,
          "internalType": "uint256",
          "name": "newBalance",
          "type": "uint256"
        }
      ],
      "name": "DelegateVotesChanged",
      "type": "event"
    },
    {
      "anonymous": false,
      "inputs": [
        {
          "indexed": true,
          "internalType": "address",
          "name": "previousOwner",
          "type": "address"
        },
        {
          "indexed": true,
          "internalType": "address",
          "name": "newOwner",
          "type": "address"
        }
      ],
      "name": "OwnershipTransferred",
      "type": "event"
    },
    {
      "anonymous": false,
      "inputs": [
        {
          "indexed": true,
          "internalType": "address",
          "name": "from",
          "type": "address"
        },
        {
          "indexed": true,
          "internalType": "address",
          "name": "to",
          "type": "address"
        },
        {
          "indexed": false,
          "internalType": "uint256",
          "name": "value",
          "type": "uint256"
        }
      ],
      "name": "Transfer",
      "type": "event"
    },
    {
      "inputs": [],
      "name": "DOMAIN_SEPARATOR",
      "outputs": [
        {
          "internalType": "bytes32",
          "name": "",
          "type": "bytes32"
        }
      ],
      "stateMutability": "view",
      "type": "function"
    },
    {
      "inputs": [
        {
          "internalType": "address",
          "name": "owner",
          "type": "address"
        },
        {
          "internalType": "address",
          "name": "spender",
          "type": "address"
        }
      ],
      "name": "allowance",
      "outputs": [
        {
          "internalType": "uint256",
          "name": "",
          "type": "uint256"
        }
      ],
      "stateMutability": "view",
      "type": "function"
    },
    {
      "inputs": [
        {
          "internalType": "address",
          "name": "spender",
          "type": "address"
        },
        {
          "internalType": "uint256",
          "name": "amount",
          "type": "uint256"
        }
      ],
      "name": "approve",
      "outputs": [
        {
          "internalType": "bool",
          "name": "",
          "type": "bool"
        }
      ],
      "stateMutability": "nonpayable",
      "type": "function"
    },
    {
      "inputs": [
        {
          "internalType": "uint256",
          "name": "_projectId",
          "type": "uint256"
        },
        {
          "internalType": "address",
          "name": "_spender",
          "type": "address"
        },
        {
          "internalType": "uint256",
          "name": "_amount",
          "type": "uint256"
        }
      ],
      "name": "approve",
      "outputs": [],
      "stateMutability": "nonpayable",
      "type": "function"
    },
    {
      "inputs": [
        {
          "internalType": "address",
          "name": "_account",
          "type": "address"
        },
        {
          "internalType": "uint256",
          "name": "_projectId",
          "type": "uint256"
        }
      ],
      "name": "balanceOf",
      "outputs": [
        {
          "internalType": "uint256",
          "name": "",
          "type": "uint256"
        }
      ],
      "stateMutability": "view",
      "type": "function"
    },
    {
      "inputs": [
        {
          "internalType": "address",
          "name": "account",
          "type": "address"
        }
      ],
      "name": "balanceOf",
      "outputs": [
        {
          "internalType": "uint256",
          "name": "",
          "type": "uint256"
        }
      ],
      "stateMutability": "view",
      "type": "function"
    },
    {
      "inputs": [
        {
          "internalType": "uint256",
          "name": "_projectId",
          "type": "uint256"
        },
        {
          "internalType": "address",
          "name": "_account",
          "type": "address"
        },
        {
          "internalType": "uint256",
          "name": "_amount",
          "type": "uint256"
        }
      ],
      "name": "burn",
      "outputs": [],
      "stateMutability": "nonpayable",
      "type": "function"
    },
    {
      "inputs": [
        {
          "internalType": "address",
          "name": "account",
          "type": "address"
        },
        {
          "internalType": "uint32",
          "name": "pos",
          "type": "uint32"
        }
      ],
      "name": "checkpoints",
      "outputs": [
        {
          "components": [
            {
              "internalType": "uint32",
              "name": "fromBlock",
              "type": "uint32"
            },
            {
              "internalType": "uint224",
              "name": "votes",
              "type": "uint224"
            }
          ],
          "internalType": "struct ERC20Votes.Checkpoint",
          "name": "",
          "type": "tuple"
        }
      ],
      "stateMutability": "view",
      "type": "function"
    },
    {
      "inputs": [],
      "name": "decimals",
      "outputs": [
        {
          "internalType": "uint8",
          "name": "",
          "type": "uint8"
        }
      ],
      "stateMutability": "view",
      "type": "function"
    },
    {
      "inputs": [
        {
          "internalType": "address",
          "name": "spender",
          "type": "address"
        },
        {
          "internalType": "uint256",
          "name": "subtractedValue",
          "type": "uint256"
        }
      ],
      "name": "decreaseAllowance",
      "outputs": [
        {
          "internalType": "bool",
          "name": "",
          "type": "bool"
        }
      ],
      "stateMutability": "nonpayable",
      "type": "function"
    },
    {
      "inputs": [
        {
          "internalType": "address",
          "name": "delegatee",
          "type": "address"
        }
      ],
      "name": "delegate",
      "outputs": [],
      "stateMutability": "nonpayable",
      "type": "function"
    },
    {
      "inputs": [
        {
          "internalType": "address",
          "name": "delegatee",
          "type": "address"
        },
        {
          "internalType": "uint256",
          "name": "nonce",
          "type": "uint256"
        },
        {
          "internalType": "uint256",
          "name": "expiry",
          "type": "uint256"
        },
        {
          "internalType": "uint8",
          "name": "v",
          "type": "uint8"
        },
        {
          "internalType": "bytes32",
          "name": "r",
          "type": "bytes32"
        },
        {
          "internalType": "bytes32",
          "name": "s",
          "type": "bytes32"
        }
      ],
      "name": "delegateBySig",
      "outputs": [],
      "stateMutability": "nonpayable",
      "type": "function"
    },
    {
      "inputs": [
        {
          "internalType": "address",
          "name": "account",
          "type": "address"
        }
      ],
      "name": "delegates",
      "outputs": [
        {
          "internalType": "address",
          "name": "",
          "type": "address"
        }
      ],
      "stateMutability": "view",
      "type": "function"
    },
    {
      "inputs": [
        {
          "internalType": "uint256",
          "name": "blockNumber",
          "type": "uint256"
        }
      ],
      "name": "getPastTotalSupply",
      "outputs": [
        {
          "internalType": "uint256",
          "name": "",
          "type": "uint256"
        }
      ],
      "stateMutability": "view",
      "type": "function"
    },
    {
      "inputs": [
        {
          "internalType": "address",
          "name": "account",
          "type": "address"
        },
        {
          "internalType": "uint256",
          "name": "blockNumber",
          "type": "uint256"
        }
      ],
      "name": "getPastVotes",
      "outputs": [
        {
          "internalType": "uint256",
          "name": "",
          "type": "uint256"
        }
      ],
      "stateMutability": "view",
      "type": "function"
    },
    {
      "inputs": [
        {
          "internalType": "address",
          "name": "account",
          "type": "address"
        }
      ],
      "name": "getVotes",
      "outputs": [
        {
          "internalType": "uint256",
          "name": "",
          "type": "uint256"
        }
      ],
      "stateMutability": "view",
      "type": "function"
    },
    {
      "inputs": [
        {
          "internalType": "address",
          "name": "spender",
          "type": "address"
        },
        {
          "internalType": "uint256",
          "name": "addedValue",
          "type": "uint256"
        }
      ],
      "name": "increaseAllowance",
      "outputs": [
        {
          "internalType": "bool",
          "name": "",
          "type": "bool"
        }
      ],
      "stateMutability": "nonpayable",
      "type": "function"
    },
    {
      "inputs": [
        {
          "internalType": "uint256",
          "name": "_projectId",
          "type": "uint256"
        },
        {
          "internalType": "address",
          "name": "_account",
          "type": "address"
        },
        {
          "internalType": "uint256",
          "name": "_amount",
          "type": "uint256"
        }
      ],
      "name": "mint",
      "outputs": [],
      "stateMutability": "nonpayable",
      "type": "function"
    },
    {
      "inputs": [],
      "name": "name",
      "outputs": [
        {
          "internalType": "string",
          "name": "",
          "type": "string"
        }
      ],
      "stateMutability": "view",
      "type": "function"
    },
    {
      "inputs": [
        {
          "internalType": "address",
          "name": "owner",
          "type": "address"
        }
      ],
      "name": "nonces",
      "outputs": [
        {
          "internalType": "uint256",
          "name": "",
          "type": "uint256"
        }
      ],
      "stateMutability": "view",
      "type": "function"
    },
    {
      "inputs": [
        {
          "internalType": "address",
          "name": "account",
          "type": "address"
        }
      ],
      "name": "numCheckpoints",
      "outputs": [
        {
          "internalType": "uint32",
          "name": "",
          "type": "uint32"
        }
      ],
      "stateMutability": "view",
      "type": "function"
    },
    {
      "inputs": [],
      "name": "owner",
      "outputs": [
        {
          "internalType": "address",
          "name": "",
          "type": "address"
        }
      ],
      "stateMutability": "view",
      "type": "function"
    },
    {
      "inputs": [
        {
          "internalType": "address",
          "name": "owner",
          "type": "address"
        },
        {
          "internalType": "address",
          "name": "spender",
          "type": "address"
        },
        {
          "internalType": "uint256",
          "name": "value",
          "type": "uint256"
        },
        {
          "internalType": "uint256",
          "name": "deadline",
          "type": "uint256"
        },
        {
          "internalType": "uint8",
          "name": "v",
          "type": "uint8"
        },
        {
          "internalType": "bytes32",
          "name": "r",
          "type": "bytes32"
        },
        {
          "internalType": "bytes32",
          "name": "s",
          "type": "bytes32"
        }
      ],
      "name": "permit",
      "outputs": [],
      "stateMutability": "nonpayable",
      "type": "function"
    },
    {
      "inputs": [],
      "name": "projectId",
      "outputs": [
        {
          "internalType": "uint256",
          "name": "",
          "type": "uint256"
        }
      ],
      "stateMutability": "view",
      "type": "function"
    },
    {
      "inputs": [],
      "name": "renounceOwnership",
      "outputs": [],
      "stateMutability": "nonpayable",
      "type": "function"
    },
    {
      "inputs": [],
      "name": "symbol",
      "outputs": [
        {
          "internalType": "string",
          "name": "",
          "type": "string"
        }
      ],
      "stateMutability": "view",
      "type": "function"
    },
    {
      "inputs": [],
      "name": "totalSupply",
      "outputs": [
        {
          "internalType": "uint256",
          "name": "",
          "type": "uint256"
        }
      ],
      "stateMutability": "view",
      "type": "function"
    },
    {
      "inputs": [
        {
          "internalType": "uint256",
          "name": "_projectId",
          "type": "uint256"
        }
      ],
      "name": "totalSupply",
      "outputs": [
        {
          "internalType": "uint256",
          "name": "",
          "type": "uint256"
        }
      ],
      "stateMutability": "view",
      "type": "function"
    },
    {
      "inputs": [
        {
          "internalType": "address",
          "name": "to",
          "type": "address"
        },
        {
          "internalType": "uint256",
          "name": "amount",
          "type": "uint256"
        }
      ],
      "name": "transfer",
      "outputs": [
        {
          "internalType": "bool",
          "name": "",
          "type": "bool"
        }
      ],
      "stateMutability": "nonpayable",
      "type": "function"
    },
    {
      "inputs": [
        {
          "internalType": "uint256",
          "name": "_projectId",
          "type": "uint256"
        },
        {
          "internalType": "address",
          "name": "_to",
          "type": "address"
        },
        {
          "internalType": "uint256",
          "name": "_amount",
          "type": "uint256"
        }
      ],
      "name": "transfer",
      "outputs": [],
      "stateMutability": "nonpayable",
      "type": "function"
    },
    {
      "inputs": [
        {
          "internalType": "uint256",
          "name": "_projectId",
          "type": "uint256"
        },
        {
          "internalType": "address",
          "name": "_from",
          "type": "address"
        },
        {
          "internalType": "address",
          "name": "_to",
          "type": "address"
        },
        {
          "internalType": "uint256",
          "name": "_amount",
          "type": "uint256"
        }
      ],
      "name": "transferFrom",
      "outputs": [],
      "stateMutability": "nonpayable",
      "type": "function"
    },
    {
      "inputs": [
        {
          "internalType": "address",
          "name": "from",
          "type": "address"
        },
        {
          "internalType": "address",
          "name": "to",
          "type": "address"
        },
        {
          "internalType": "uint256",
          "name": "amount",
          "type": "uint256"
        }
      ],
      "name": "transferFrom",
      "outputs": [
        {
          "internalType": "bool",
          "name": "",
          "type": "bool"
        }
      ],
      "stateMutability": "nonpayable",
      "type": "function"
    },
    {
      "inputs": [
        {
          "internalType": "address",
          "name": "newOwner",
          "type": "address"
        }
      ],
      "name": "transferOwnership",
      "outputs": [],
      "stateMutability": "nonpayable",
      "type": "function"
    }
  ],
  "bytecode": {
    "object": "0x6101606040818152346200047057620027fa803803809162000022828662000475565b84398201606083820312620004705782516001600160401b0392908381116200047057826200005391860162000499565b9060209283860151858111620004705782916200007291880162000499565b95015192815192828401848110878211176200037d57835260019081855282850191603160f81b835281518881116200037d5760038054918383811c9316801562000465575b878410146200044f57601f9283811162000404575b5080878482116001146200039f5760009162000393575b5060001982841b1c191690841b1781555b8a51918a83116200037d5760049b8c548581811c9116801562000372575b898210146200035d5782811162000312575b5087918411600114620002a7579383949184926000956200029b575b50501b92600019911b1c19161788555b82815191012093519020918360e052610100968388524660a0528151928301937f8b73c3c69bb8fe3d512ecc4cf759cc79239f7b179b0ffacaa9a75d522b39400f958686528385015260608401524660808401523060a084015260a0835260c0830196838810908811176200028657508590525190206080523060c052610120908152600a8054336001600160a01b0319821681179092556001600160a01b03167f8be0079c531659141344cd1fd0a4f28419497f9722a3daafe3b4186f6b6457e0600086a36101409182526122e993846200051185396080518461208b015260a05184612157015260c05184612055015260e051846120da01525183612100015251826120b701525181818161019e015281816107eb01528181610d6e01528181610dd10152818161112a01526113360152f35b604190634e487b7160e01b6000525260246000fd5b01519350388062000141565b9190601f198416928d60005284896000209460005b8b89838310620002fa5750505010620002df575b50505050811b01885562000151565b01519060f884600019921b161c1916905538808080620002d0565b868601518955909701969485019488935001620002bc565b8d600052886000208380870160051c8201928b881062000353575b0160051c019086905b8281106200034657505062000125565b6000815501869062000336565b925081926200032d565b60228e634e487b7160e01b6000525260246000fd5b90607f169062000113565b634e487b7160e01b600052604160045260246000fd5b905085015138620000e4565b859250601f1982169084600052896000209160005b8b828210620003ed5750508311620003d4575b5050811b018155620000f5565b87015160001983861b60f8161c191690553880620003c7565b838b015185558996909401939283019201620003b4565b82600052876000208480840160051c8201928a851062000445575b0160051c019085905b82811062000438575050620000cd565b6000815501859062000428565b925081926200041f565b634e487b7160e01b600052602260045260246000fd5b92607f1692620000b8565b600080fd5b601f909101601f19168101906001600160401b038211908210176200037d57604052565b919080601f8401121562000470578251906001600160401b0382116200037d5760405191602091620004d5601f8301601f191684018562000475565b818452828287010111620004705760005b818110620004fc57508260009394955001015290565b8581018301518482018401528201620004e656fe6040608081526004908136101561001557600080fd5b600091823560e01c8062fdd58e146114c457806306fdde03146113d0578063095ea7b3146113a657806318160ddd146113875780631c0f12b61461130557806323b872dd146112ca578063313ce567146112ae5780633644e5151461129157806339509351146112415780633a46b1a81461114d5780633fafa12714611112578063587cde1e146110d75780635c19a95c146110b35780636fcfff451461106b57806370a0823114611028578063715018a614610fc85780637ecebe0014610f90578063836a104014610db45780638cb0a51114610d5a5780638da5cb5b14610d315780638e539e8c14610c6157806395d89b4114610b5d5780639ab24eb014610ad55780639eea5f66146107ce578063a457c2d71461072a578063a9059cbb146106f9578063bd85b039146106d9578063c3cda52014610553578063d505accf146103a8578063dd62ed3e1461035f578063f1127ed8146102c3578063f2fde38b146101f85763f8548e361461018b57600080fd5b346101f4576101993661155a565b9290917f000000000000000000000000000000000000000000000000000000000000000080151591826101e9575b50506101dc5750906101d991336116f3565b51f35b835162cdceed60e81b8152fd5b1415905038806101c7565b8280fd5b50346101f45760203660031901126101f4576102126114e0565b61021a611584565b6001600160a01b039081169182156102715750600a5492826bffffffffffffffffffffffff60a01b851617600a555192167f8be0079c531659141344cd1fd0a4f28419497f9722a3daafe3b4186f6b6457e08484a3f35b608490602085519162461bcd60e51b8352820152602660248201527f4f776e61626c653a206e6577206f776e657220697320746865207a65726f206160448201526564647265737360d01b6064820152fd5b82843461035c578160031936011261035c576102dd6114e0565b63ffffffff9160243591838316830361035857818591610320949360208451610305816115dc565b82815201526001600160a01b031681526008602052206119d9565b50906020835192610330846115dc565b54918216808452602092831c919093019081528351928352516001600160e01b031690820152f35b5080fd5b80fd5b5050346103585780600319360112610358578060209261037d6114e0565b6103856114fb565b6001600160a01b0391821683526001865283832091168252845220549051908152f35b509190346103585760e0366003190112610358576103c46114e0565b926103cd6114fb565b6044359160843560643560ff8216820361054f5780421161050c576001600160a01b038816600090815260056020526040902080546001810190915591865160208101917f6e71edae12b1b97f4d1f60370fef10105fa2faae0126114a169c64845d6126c9835260018060a01b0393848c1695868b850152858916606085015289608085015260a084015260c083015260c0825260e0820182811067ffffffffffffffff8211176104f957916104a4939161049c938b5261049760c4359360a4359351902061217d565b611f9d565b919091611e2b565b16036104b657506101d992939461188a565b606490602085519162461bcd60e51b8352820152601e60248201527f45524332305065726d69743a20696e76616c6964207369676e617475726500006044820152fd5b634e487b7160e01b8b526041875260248bfd5b855162461bcd60e51b8152602081850152601d60248201527f45524332305065726d69743a206578706972656420646561646c696e650000006044820152606490fd5b8680fd5b50346101f45760c03660031901126101f45761056d6114e0565b9060243560443560643560ff8116810361054f578142116106965785519060208201927fe48329057bfd03d55e49b547132e39cffd9c1820ad7b9d4c5307691425d15adf845260018060a01b0387168884015284606084015260808301526080825260a0820182811067ffffffffffffffff821117610683579161060f9594939161060793895261049760a435936084359351902061217d565b939093611e2b565b6001600160a01b0383166000908152600560205260409020805460018101909155036106405750906101d991611a4a565b606490602085519162461bcd60e51b8352820152601960248201527f4552433230566f7465733a20696e76616c6964206e6f6e6365000000000000006044820152fd5b634e487b7160e01b895260418652602489fd5b855162461bcd60e51b8152602081860152601d60248201527f4552433230566f7465733a207369676e617475726520657870697265640000006044820152606490fd5b505034610358576020366003190112610358576020906002549051908152f35b5050346103585780600319360112610358576020906107236107196114e0565b60243590336116f3565b5160018152f35b50823461035c578260031936011261035c576107446114e0565b918360243592338152600160205281812060018060a01b038616825260205220549082821061077d57602085610723858503873361188a565b608490602086519162461bcd60e51b8352820152602560248201527f45524332303a2064656372656173656420616c6c6f77616e63652062656c6f77604482015264207a65726f60d81b6064820152fd5b50919034610358576107df3661155a565b90916107e9611584565b7f00000000000000000000000000000000000000000000000000000000000000008015159182610aca575b5050610abb576001600160a01b03918216918215610a6e5782855260209285845284862054838110610a20579181846108a69481948a52898852038789205561085f836002546119f1565b60025587817fddf252ad1be2c89b69c2b068fc378daa952ba7f163c4a11628f55a4df523b3ef888a51878152a3875260078552858720548780528688205482169116611ac0565b6009549081159081156109fe576108c986915b6001600160e01b039283166119f1565b9115806109c6575b1561092a57506108e29192506121c5565b906000198101908111610917576101d9929394506108ff9061198c565b509063ffffffff82549181199060201b169116179055565b634e487b7160e01b845260118552602484fd5b919061093e6109384361222e565b916121c5565b918386519561094c876115dc565b63ffffffff8094168752860193168352600160401b8110156109b357806001610978920160095561198c565b9490946109a15751915163ffffffff9190921616911660201b63ffffffff191617905590915051f35b634e487b7160e01b8752868852602487fd5b634e487b7160e01b875260418852602487fd5b5060001983018381116109eb576109e163ffffffff9161198c565b50541643146108d1565b634e487b7160e01b875260118852602487fd5b60001983018381116109eb57610a166108c99161198c565b5054851c916108b9565b855162461bcd60e51b8152808901869052602260248201527f45524332303a206275726e20616d6f756e7420657863656564732062616c616e604482015261636560f01b6064820152608490fd5b835162461bcd60e51b8152602081880152602160248201527f45524332303a206275726e2066726f6d20746865207a65726f206164647265736044820152607360f81b6064820152608490fd5b825162cdceed60e81b81528590fd5b141590503880610814565b50913461035c57602036600319011261035c576001600160a01b03610af86114e0565b16815260086020528181205480610b20575060209250905b516001600160e01b039091168152f35b82822060001982019290918311610b4a57506020935090610b40916119d9565b5054821c90610b10565b634e487b7160e01b815260118552602490fd5b50919034610358578160031936011261035857805191809380549160019083821c92828516948515610c57575b6020958686108114610c4457858952908115610c205750600114610bc8575b610bc48787610bba828c038361160e565b5191829182611511565b0390f35b81529295507f8a35acfbc15ff81a39ae7d344fd709f28e8600b4aa8c65c6b64bfe7fe36bd19b5b828410610c0d5750505082610bc494610bba92820101943880610ba9565b8054868501880152928601928101610bef565b60ff19168887015250505050151560051b8301019250610bba82610bc43880610ba9565b634e487b7160e01b845260228352602484fd5b93607f1693610b8a565b50913461035c57602036600319011261035c57823592610c824385106119fe565b6009549382905b858210610cd957505083610cad57506020925090516001600160e01b039091168152f35b6000198401938411610cc6575050610b4060209261198c565b634e487b7160e01b825260119052602490fd5b9094600190610cee818818831c8289166116d0565b918363ffffffff610cfe8561198c565b5054161115610d11575050945b90610c89565b909650810180911115610d0b57634e487b7160e01b845260118352602484fd5b505034610358578160031936011261035857600a5490516001600160a01b039091168152602090f35b50346101f457610d693661155a565b9290917f00000000000000000000000000000000000000000000000000000000000000008015159182610da9575b50506101dc5750906101d9913361188a565b141590503880610d97565b5091903461035857610dc53661155a565b9091610dcf611584565b7f00000000000000000000000000000000000000000000000000000000000000008015159182610f85575b5050610abb576001600160a01b039182168015610f425781610e8391610e22826002546116d0565b600255808752602094878652868820610e3c8482546116d0565b905581887fddf252ad1be2c89b69c2b068fc378daa952ba7f163c4a11628f55a4df523b3ef888a51878152a387805260078652808789205416918852868820541690611ac0565b6002546001600160e01b0391908210610ee657600954918215918215610eb0576108c99082885b166116d0565b6000198401848111610ed3579082610eca6108c99361198c565b5054871c610eaa565b634e487b7160e01b885260118952602488fd5b835162461bcd60e51b8152808701849052603060248201527f4552433230566f7465733a20746f74616c20737570706c79207269736b73206f60448201526f766572666c6f77696e6720766f74657360801b6064820152608490fd5b835162461bcd60e51b8152602081880152601f60248201527f45524332303a206d696e7420746f20746865207a65726f2061646472657373006044820152606490fd5b141590503880610dfa565b5050346103585760203660031901126103585760209181906001600160a01b03610fb86114e0565b1681526005845220549051908152f35b505034610358578160031936011261035857610fe2611584565b600a80546001600160a01b0319811690915590519082906001600160a01b03167f8be0079c531659141344cd1fd0a4f28419497f9722a3daafe3b4186f6b6457e08284a3f35b505034610358576020366003190112610358576020906110646110496114e0565b6001600160a01b031660009081526020819052604090205490565b9051908152f35b5050346103585760203660031901126103585760209163ffffffff906110ab9083906001600160a01b0361109d6114e0565b16815260088652205461222e565b915191168152f35b505034610358576020366003190112610358576101d96110d16114e0565b33611a4a565b505034610358576020366003190112610358576020916001600160a01b03908290826111016114e0565b168152600785522054169051908152f35b505034610358578160031936011261035857602090517f00000000000000000000000000000000000000000000000000000000000000008152f35b50913461035c578160031936011261035c576111676114e0565b9260248035946111784387106119fe565b6001600160a01b03168352600860205283832080549590929084905b8782106111e9575050856111ba575050506020925090516001600160e01b039091168152f35b6000198601959293919286116111d957505050602092610b40916119d9565b634e487b7160e01b825260119052fd5b90966001906111fe818a18831c828b166116d0565b918363ffffffff61120f858a6119d9565b5054161115611222575050965b90611194565b90985081018091111561121c57634e487b7160e01b8652601183528386fd5b50503461035857806003193601126103585761072360209261128a6112646114e0565b338352600186528483206001600160a01b038216845286529184902054602435906116d0565b903361188a565b505034610358578160031936011261035857602090611064612052565b5050346103585781600319360112610358576020905160128152f35b505034610358576060366003190112610358576020906112fc6112eb6114e0565b6112f36114fb565b60443591611630565b90519015158152f35b50346101f45760803660031901126101f45761131f6114fb565b90604435906001600160a01b0382168203611383577f00000000000000000000000000000000000000000000000000000000000000008015159081611377575b506101dc5750906113739160643591611630565b5051f35b9050813514153861135f565b8480fd5b5050346103585781600319360112610358576020906002549051908152f35b5050346103585780600319360112610358576020906107236113c66114e0565b602435903361188a565b5090346101f457826003193601126101f457805191836003549060019082821c9282811680156114ba575b60209586861082146114a75750848852908115611485575060011461142c575b610bc48686610bba828b038361160e565b929550600383527fc2575a0e9e593c00f959f8c92f12db2869c3395a3b0502d05e2516446f71f85b5b8284106114725750505082610bc494610bba92820101943861141b565b8054868501880152928601928101611455565b60ff191687860152505050151560051b8301019250610bba82610bc43861141b565b634e487b7160e01b845260229052602483fd5b93607f16936113fb565b5050346103585780600319360112610358576020906110646110495b600435906001600160a01b03821682036114f657565b600080fd5b602435906001600160a01b03821682036114f657565b6020808252825181830181905290939260005b82811061154657505060409293506000838284010152601f8019910116010190565b818101860151848201604001528501611524565b60609060031901126114f657600435906024356001600160a01b03811681036114f6579060443590565b600a546001600160a01b0316330361159857565b606460405162461bcd60e51b815260206004820152602060248201527f4f776e61626c653a2063616c6c6572206973206e6f7420746865206f776e65726044820152fd5b6040810190811067ffffffffffffffff8211176115f857604052565b634e487b7160e01b600052604160045260246000fd5b90601f8019910116810190811067ffffffffffffffff8211176115f857604052565b919060018060a01b038316600052600160205260406000203360005260205260406000205492600019840361166f575b61166a93506116f3565b600190565b82841061168b576116868361166a9503338361188a565b611660565b60405162461bcd60e51b815260206004820152601d60248201527f45524332303a20696e73756666696369656e7420616c6c6f77616e63650000006044820152606490fd5b919082018092116116dd57565b634e487b7160e01b600052601160045260246000fd5b6001600160a01b0390811693929184156118375781169081156117e65760008581528060205260409081812054968588106117935785611791979882845283602052038383205584825282822061174b8782546116d0565b905584817fddf252ad1be2c89b69c2b068fc378daa952ba7f163c4a11628f55a4df523b3ef602086518a8152a38152600760205282828220541693815220541690611ac0565b565b825162461bcd60e51b815260206004820152602660248201527f45524332303a207472616e7366657220616d6f756e7420657863656564732062604482015265616c616e636560d01b6064820152608490fd5b60405162461bcd60e51b815260206004820152602360248201527f45524332303a207472616e7366657220746f20746865207a65726f206164647260448201526265737360e81b6064820152608490fd5b60405162461bcd60e51b815260206004820152602560248201527f45524332303a207472616e736665722066726f6d20746865207a65726f206164604482015264647265737360d81b6064820152608490fd5b6001600160a01b0390811691821561193b57169182156118eb5760207f8c5be1e5ebec7d5bd14f71427d1e84f3dd0314c0f7b2291e5b200ac8c7c3b925918360005260018252604060002085600052825280604060002055604051908152a3565b60405162461bcd60e51b815260206004820152602260248201527f45524332303a20617070726f766520746f20746865207a65726f206164647265604482015261737360f01b6064820152608490fd5b60405162461bcd60e51b8152602060048201526024808201527f45524332303a20617070726f76652066726f6d20746865207a65726f206164646044820152637265737360e01b6064820152608490fd5b6009548110156119c35760096000527f6e1540171b6c0c960b71a7020d9f60077f6af931a8bbf590da0223dacf75c7af0190600090565b634e487b7160e01b600052603260045260246000fd5b80548210156119c35760005260206000200190600090565b919082039182116116dd57565b15611a0557565b60405162461bcd60e51b815260206004820152601f60248201527f4552433230566f7465733a20626c6f636b206e6f7420796574206d696e6564006044820152606490fd5b6117919160018060a01b038092166000928184526007602052806040852054168092856020527f3134e8a2e6d97e929a7e54011ea5485d7d196dd5f0ba4d4ef95803e8e3fc257f60408720549660076020526040812094871694856bffffffffffffffffffffffff60a01b825416179055604051a45b6001600160a01b039182169291168083141580611e22575b611ae157505050565b80611cae575b5081611af1575050565b60008281526008602052604081208054801592918315611c7a57825b6001600160e01b0390811695611b2390876116d0565b941580611c40575b15611b8a5750611b3a846121c5565b926000198301928311611b76575060008051602061229483398151915294926108ff60409593611b69936119d9565b82519182526020820152a2565b634e487b7160e01b81526011600452602490fd5b9190611b954361222e565b90611b9f866121c5565b9260405191611bad836115dc565b63ffffffff8094168352856020840195168552600160401b821015611c2c5790611bdc916001820181556119d9565b959095611c18575051915163ffffffff9190921616911660201b63ffffffff191617905560008051602061229483398151915291604091611b69565b634e487b7160e01b81526004819052602490fd5b634e487b7160e01b87526041600452602487fd5b506000198301838111611c6657611c5c63ffffffff91846119d9565b5054164314611b2b565b634e487b7160e01b85526011600452602485fd5b6000198201828111611c9a57611c9090826119d9565b505460201c611b0d565b634e487b7160e01b84526011600452602484fd5b6000818152600860205260408120805490918115918215611ded5781935b6001600160e01b0394851694611ce288876119f1565b941580611dc7575b15611d395750611cf9846121c5565b926000198301928311611b76575060008051602061229483398151915294926108ff60409593611d28936119d9565b82519182526020820152a238611ae7565b9190611d444361222e565b90611d4e866121c5565b9260405191611d5c836115dc565b63ffffffff8094168352856020840195168552600160401b821015611c2c5790611d8b916001820181556119d9565b959095611c18575051915163ffffffff9190921616911660201b63ffffffff191617905560008051602061229483398151915291604091611d28565b506000198301838111611c6657611de363ffffffff91846119d9565b5054164314611cea565b6000198101818111611e0e57611e0390856119d9565b505460201c93611ccc565b634e487b7160e01b83526011600452602483fd5b50811515611ad8565b6005811015611f875780611e3c5750565b60018103611e895760405162461bcd60e51b815260206004820152601860248201527f45434453413a20696e76616c6964207369676e617475726500000000000000006044820152606490fd5b60028103611ed65760405162461bcd60e51b815260206004820152601f60248201527f45434453413a20696e76616c6964207369676e6174757265206c656e677468006044820152606490fd5b60038103611f2e5760405162461bcd60e51b815260206004820152602260248201527f45434453413a20696e76616c6964207369676e6174757265202773272076616c604482015261756560f01b6064820152608490fd5b600414611f3757565b60405162461bcd60e51b815260206004820152602260248201527f45434453413a20696e76616c6964207369676e6174757265202776272076616c604482015261756560f01b6064820152608490fd5b634e487b7160e01b600052602160045260246000fd5b9291907f7fffffffffffffffffffffffffffffff5d576e7357a4501ddfe92f46681b20a083116120465760ff16601b8114158061203b575b61202f579160809493916020936040519384528484015260408301526060820152600093849182805260015afa156120225781516001600160a01b0381161561201c579190565b50600190565b50604051903d90823e3d90fd5b50505050600090600490565b50601c811415611fd5565b50505050600090600390565b307f00000000000000000000000000000000000000000000000000000000000000006001600160a01b03161480612154575b156120ad577f000000000000000000000000000000000000000000000000000000000000000090565b60405160208101907f000000000000000000000000000000000000000000000000000000000000000082527f000000000000000000000000000000000000000000000000000000000000000060408201527f000000000000000000000000000000000000000000000000000000000000000060608201524660808201523060a082015260a0815260c0810181811067ffffffffffffffff8211176115f85760405251902090565b507f00000000000000000000000000000000000000000000000000000000000000004614612084565b612185612052565b9060405190602082019261190160f01b845260228301526042820152604281526080810181811067ffffffffffffffff8211176115f85760405251902090565b6001600160e01b03908181116121d9571690565b60405162461bcd60e51b815260206004820152602760248201527f53616665436173743a2076616c756520646f65736e27742066697420696e20326044820152663234206269747360c81b6064820152608490fd5b63ffffffff9081811161223f571690565b60405162461bcd60e51b815260206004820152602660248201527f53616665436173743a2076616c756520646f65736e27742066697420696e203360448201526532206269747360d01b6064820152608490fdfedec2bacdd2f05b59de34da9b523dff8be42e5e38e818c82fdb0bae774387a724a26469706673582212203aa9eed06b6c52906fb9952b6f3878fe33d6489a8dbd60396104b6ec3b6f451564736f6c63430008100033",
    "linkReferences": {}
  },
  "methodIdentifiers": {
    "DOMAIN_SEPARATOR()": "3644e515",
    "allowance(address,address)": "dd62ed3e",
    "approve(address,uint256)": "095ea7b3",
    "approve(uint256,address,uint256)": "8cb0a511",
    "balanceOf(address)": "70a08231",
    "balanceOf(address,uint256)": "00fdd58e",
    "burn(uint256,address,uint256)": "9eea5f66",
    "checkpoints(address,uint32)": "f1127ed8",
    "decimals()": "313ce567",
    "decreaseAllowance(address,uint256)": "a457c2d7",
    "delegate(address)": "5c19a95c",
    "delegateBySig(address,uint256,uint256,uint8,bytes32,bytes32)": "c3cda520",
    "delegates(address)": "587cde1e",
    "getPastTotalSupply(uint256)": "8e539e8c",
    "getPastVotes(address,uint256)": "3a46b1a8",
    "getVotes(address)": "9ab24eb0",
    "increaseAllowance(address,uint256)": "39509351",
    "mint(uint256,address,uint256)": "836a1040",
    "name()": "06fdde03",
    "nonces(address)": "7ecebe00",
    "numCheckpoints(address)": "6fcfff45",
    "owner()": "8da5cb5b",
    "permit(address,address,uint256,uint256,uint8,bytes32,bytes32)": "d505accf",
    "projectId()": "3fafa127",
    "renounceOwnership()": "715018a6",
    "symbol()": "95d89b41",
    "totalSupply()": "18160ddd",
    "totalSupply(uint256)": "bd85b039",
    "transfer(address,uint256)": "a9059cbb",
    "transfer(uint256,address,uint256)": "f8548e36",
    "transferFrom(address,address,uint256)": "23b872dd",
    "transferFrom(uint256,address,address,uint256)": "1c0f12b6",
    "transferOwnership(address)": "f2fde38b"
  },
  "id": 58
}