{
  "abi": [
    {
      "inputs": [
        {
          "internalType": "contract IJBOperatorStore",
          "name": "_operatorStore",
          "type": "address"
        },
        {
          "internalType": "contract IJBProjects",
          "name": "_projects",
          "type": "address"
        },
        {
          "internalType": "contract IJBDirectory",
          "name": "_directory",
          "type": "address"
        },
        {
          "internalType": "contract IJBFundingCycleStore",
          "name": "_fundingCycleStore",
          "type": "address"
        }
      ],
      "stateMutability": "nonpayable",
      "type": "constructor"
    },
    {
      "inputs": [],
      "name": "ALREADY_SET",
      "type": "error"
    },
    {
      "inputs": [],
      "name": "CONTROLLER_UNAUTHORIZED",
      "type": "error"
    },
    {
      "inputs": [],
      "name": "EMPTY_NAME",
      "type": "error"
    },
    {
      "inputs": [],
      "name": "EMPTY_SYMBOL",
      "type": "error"
    },
    {
      "inputs": [],
      "name": "EMPTY_TOKEN",
      "type": "error"
    },
    {
      "inputs": [],
      "name": "INSUFFICIENT_FUNDS",
      "type": "error"
    },
    {
      "inputs": [],
      "name": "INSUFFICIENT_UNCLAIMED_TOKENS",
      "type": "error"
    },
    {
      "inputs": [],
      "name": "OVERFLOW_ALERT",
      "type": "error"
    },
    {
      "inputs": [],
      "name": "PROJECT_ALREADY_HAS_TOKEN",
      "type": "error"
    },
    {
      "inputs": [],
      "name": "RECIPIENT_ZERO_ADDRESS",
      "type": "error"
    },
    {
      "inputs": [],
      "name": "TOKENS_MUST_HAVE_18_DECIMALS",
      "type": "error"
    },
    {
      "inputs": [],
      "name": "TOKEN_NOT_FOUND",
      "type": "error"
    },
    {
      "inputs": [],
      "name": "TRANSFERS_PAUSED",
      "type": "error"
    },
    {
      "inputs": [],
      "name": "UNAUTHORIZED",
      "type": "error"
    },
    {
      "anonymous": false,
      "inputs": [
        {
          "indexed": true,
          "internalType": "address",
          "name": "holder",
          "type": "address"
        },
        {
          "indexed": true,
          "internalType": "uint256",
          "name": "projectId",
          "type": "uint256"
        },
        {
          "indexed": false,
          "internalType": "uint256",
          "name": "amount",
          "type": "uint256"
        },
        {
          "indexed": false,
          "internalType": "uint256",
          "name": "initialUnclaimedBalance",
          "type": "uint256"
        },
        {
          "indexed": false,
          "internalType": "uint256",
          "name": "initialClaimedBalance",
          "type": "uint256"
        },
        {
          "indexed": false,
          "internalType": "bool",
          "name": "preferClaimedTokens",
          "type": "bool"
        },
        {
          "indexed": false,
          "internalType": "address",
          "name": "caller",
          "type": "address"
        }
      ],
      "name": "Burn",
      "type": "event"
    },
    {
      "anonymous": false,
      "inputs": [
        {
          "indexed": true,
          "internalType": "address",
          "name": "holder",
          "type": "address"
        },
        {
          "indexed": true,
          "internalType": "uint256",
          "name": "projectId",
          "type": "uint256"
        },
        {
          "indexed": false,
          "internalType": "uint256",
          "name": "initialUnclaimedBalance",
          "type": "uint256"
        },
        {
          "indexed": false,
          "internalType": "uint256",
          "name": "amount",
          "type": "uint256"
        },
        {
          "indexed": false,
          "internalType": "address",
          "name": "caller",
          "type": "address"
        }
      ],
      "name": "Claim",
      "type": "event"
    },
    {
      "anonymous": false,
      "inputs": [
        {
          "indexed": true,
          "internalType": "uint256",
          "name": "projectId",
          "type": "uint256"
        },
        {
          "indexed": true,
          "internalType": "contract IJBToken",
          "name": "token",
          "type": "address"
        },
        {
          "indexed": false,
          "internalType": "string",
          "name": "name",
          "type": "string"
        },
        {
          "indexed": false,
          "internalType": "string",
          "name": "symbol",
          "type": "string"
        },
        {
          "indexed": false,
          "internalType": "address",
          "name": "caller",
          "type": "address"
        }
      ],
      "name": "Issue",
      "type": "event"
    },
    {
      "anonymous": false,
      "inputs": [
        {
          "indexed": true,
          "internalType": "address",
          "name": "holder",
          "type": "address"
        },
        {
          "indexed": true,
          "internalType": "uint256",
          "name": "projectId",
          "type": "uint256"
        },
        {
          "indexed": false,
          "internalType": "uint256",
          "name": "amount",
          "type": "uint256"
        },
        {
          "indexed": false,
          "internalType": "bool",
          "name": "tokensWereClaimed",
          "type": "bool"
        },
        {
          "indexed": false,
          "internalType": "bool",
          "name": "preferClaimedTokens",
          "type": "bool"
        },
        {
          "indexed": false,
          "internalType": "address",
          "name": "caller",
          "type": "address"
        }
      ],
      "name": "Mint",
      "type": "event"
    },
    {
      "anonymous": false,
      "inputs": [
        {
          "indexed": true,
          "internalType": "uint256",
          "name": "projectId",
          "type": "uint256"
        },
        {
          "indexed": true,
          "internalType": "contract IJBToken",
          "name": "newToken",
          "type": "address"
        },
        {
          "indexed": false,
          "internalType": "address",
          "name": "caller",
          "type": "address"
        }
      ],
      "name": "Set",
      "type": "event"
    },
    {
      "anonymous": false,
      "inputs": [
        {
          "indexed": true,
          "internalType": "address",
          "name": "holder",
          "type": "address"
        },
        {
          "indexed": true,
          "internalType": "uint256",
          "name": "projectId",
          "type": "uint256"
        },
        {
          "indexed": true,
          "internalType": "address",
          "name": "recipient",
          "type": "address"
        },
        {
          "indexed": false,
          "internalType": "uint256",
          "name": "amount",
          "type": "uint256"
        },
        {
          "indexed": false,
          "internalType": "address",
          "name": "caller",
          "type": "address"
        }
      ],
      "name": "Transfer",
      "type": "event"
    },
    {
      "inputs": [
        {
          "internalType": "address",
          "name": "_holder",
          "type": "address"
        },
        {
          "internalType": "uint256",
          "name": "_projectId",
          "type": "uint256"
        }
      ],
      "name": "balanceOf",
      "outputs": [
        {
          "internalType": "uint256",
          "name": "balance",
          "type": "uint256"
        }
      ],
      "stateMutability": "view",
      "type": "function"
    },
    {
      "inputs": [
        {
          "internalType": "address",
          "name": "_holder",
          "type": "address"
        },
        {
          "internalType": "uint256",
          "name": "_projectId",
          "type": "uint256"
        },
        {
          "internalType": "uint256",
          "name": "_amount",
          "type": "uint256"
        },
        {
          "internalType": "bool",
          "name": "_preferClaimedTokens",
          "type": "bool"
        }
      ],
      "name": "burnFrom",
      "outputs": [],
      "stateMutability": "nonpayable",
      "type": "function"
    },
    {
      "inputs": [
        {
          "internalType": "address",
          "name": "_holder",
          "type": "address"
        },
        {
          "internalType": "uint256",
          "name": "_projectId",
          "type": "uint256"
        },
        {
          "internalType": "uint256",
          "name": "_amount",
          "type": "uint256"
        }
      ],
      "name": "claimFor",
      "outputs": [],
      "stateMutability": "nonpayable",
      "type": "function"
    },
    {
      "inputs": [],
      "name": "directory",
      "outputs": [
        {
          "internalType": "contract IJBDirectory",
          "name": "",
          "type": "address"
        }
      ],
      "stateMutability": "view",
      "type": "function"
    },
    {
      "inputs": [],
      "name": "fundingCycleStore",
      "outputs": [
        {
          "internalType": "contract IJBFundingCycleStore",
          "name": "",
          "type": "address"
        }
      ],
      "stateMutability": "view",
      "type": "function"
    },
    {
      "inputs": [
        {
          "internalType": "uint256",
          "name": "_projectId",
          "type": "uint256"
        },
        {
          "internalType": "string",
          "name": "_name",
          "type": "string"
        },
        {
          "internalType": "string",
          "name": "_symbol",
          "type": "string"
        }
      ],
      "name": "issueFor",
      "outputs": [
        {
          "internalType": "contract IJBToken",
          "name": "token",
          "type": "address"
        }
      ],
      "stateMutability": "nonpayable",
      "type": "function"
    },
    {
      "inputs": [
        {
          "internalType": "address",
          "name": "_holder",
          "type": "address"
        },
        {
          "internalType": "uint256",
          "name": "_projectId",
          "type": "uint256"
        },
        {
          "internalType": "uint256",
          "name": "_amount",
          "type": "uint256"
        },
        {
          "internalType": "bool",
          "name": "_preferClaimedTokens",
          "type": "bool"
        }
      ],
      "name": "mintFor",
      "outputs": [],
      "stateMutability": "nonpayable",
      "type": "function"
    },
    {
      "inputs": [],
      "name": "operatorStore",
      "outputs": [
        {
          "internalType": "contract IJBOperatorStore",
          "name": "",
          "type": "address"
        }
      ],
      "stateMutability": "view",
      "type": "function"
    },
    {
      "inputs": [],
      "name": "projects",
      "outputs": [
        {
          "internalType": "contract IJBProjects",
          "name": "",
          "type": "address"
        }
      ],
      "stateMutability": "view",
      "type": "function"
    },
    {
      "inputs": [
        {
          "internalType": "uint256",
          "name": "_projectId",
          "type": "uint256"
        },
        {
          "internalType": "contract IJBToken",
          "name": "_token",
          "type": "address"
        }
      ],
      "name": "setFor",
      "outputs": [],
      "stateMutability": "nonpayable",
      "type": "function"
    },
    {
      "inputs": [
        {
          "internalType": "uint256",
          "name": "",
          "type": "uint256"
        }
      ],
      "name": "tokenOf",
      "outputs": [
        {
          "internalType": "contract IJBToken",
          "name": "",
          "type": "address"
        }
      ],
      "stateMutability": "view",
      "type": "function"
    },
    {
      "inputs": [
        {
          "internalType": "uint256",
          "name": "_projectId",
          "type": "uint256"
        }
      ],
      "name": "totalSupplyOf",
      "outputs": [
        {
          "internalType": "uint256",
          "name": "totalSupply",
          "type": "uint256"
        }
      ],
      "stateMutability": "view",
      "type": "function"
    },
    {
      "inputs": [
        {
          "internalType": "address",
          "name": "_holder",
          "type": "address"
        },
        {
          "internalType": "uint256",
          "name": "_projectId",
          "type": "uint256"
        },
        {
          "internalType": "address",
          "name": "_recipient",
          "type": "address"
        },
        {
          "internalType": "uint256",
          "name": "_amount",
          "type": "uint256"
        }
      ],
      "name": "transferFrom",
      "outputs": [],
      "stateMutability": "nonpayable",
      "type": "function"
    },
    {
      "inputs": [
        {
          "internalType": "address",
          "name": "",
          "type": "address"
        },
        {
          "internalType": "uint256",
          "name": "",
          "type": "uint256"
        }
      ],
      "name": "unclaimedBalanceOf",
      "outputs": [
        {
          "internalType": "uint256",
          "name": "",
          "type": "uint256"
        }
      ],
      "stateMutability": "view",
      "type": "function"
    },
    {
      "inputs": [
        {
          "internalType": "uint256",
          "name": "",
          "type": "uint256"
        }
      ],
      "name": "unclaimedTotalSupplyOf",
      "outputs": [
        {
          "internalType": "uint256",
          "name": "",
          "type": "uint256"
        }
      ],
      "stateMutability": "view",
      "type": "function"
    }
  ],
  "bytecode": {
    "object": "0x6101006040523480156200001257600080fd5b50604051620040f5380380620040f5833981016040819052620000359162000072565b6001600160a01b0391821660805292811660a05290811660c0521660e052620000da565b6001600160a01b03811681146200006f57600080fd5b50565b600080600080608085870312156200008957600080fd5b8451620000968162000059565b6020860151909450620000a98162000059565b6040860151909350620000bc8162000059565b6060860151909250620000cf8162000059565b939692955090935050565b60805160a05160c05160e051613fb0620001456000396000818161018e0152610d230152600081816102160152818161060f0152610b36015260008181610283015281816111a801526112530152600081816102ab015281816108040152610f150152613fb06000f3fe60806040523480156200001157600080fd5b5060043610620001085760003560e01c80638b79543c11620000a3578063ad007d63116200006e578063ad007d63146200027d578063c41c2f2414620002a5578063ceddd3e414620002cd578063ea78803f14620002e457600080fd5b80638b79543c1462000210578063906ebd0f1462000238578063a7f2a70b146200024f578063ac689bcd146200026657600080fd5b8063557e715511620000e4578063557e715514620001885780636607955d14620001c957806375b0d9cd14620001e2578063831d7fac14620001f957600080fd5b8062fdd58e146200010d5780631412884f14620001375780635287af37146200015a575b600080fd5b620001246200011e36600462001389565b62000310565b6040519081526020015b60405180910390f35b6200012462000148366004620013b8565b60016020526000908152604090205481565b620001246200016b36600462001389565b600260209081526000928352604080842090915290825290205481565b620001b07f000000000000000000000000000000000000000000000000000000000000000081565b6040516001600160a01b0390911681526020016200012e565b620001e0620001da366004620013d2565b620003cf565b005b62000124620001f3366004620013b8565b6200054e565b620001e06200020a3660046200140a565b620005f9565b620001b07f000000000000000000000000000000000000000000000000000000000000000081565b620001e0620002493660046200144c565b620007e2565b620001b062000260366004620014e7565b62000b1d565b620001e06200027736600462001568565b62000cf9565b620001b07f000000000000000000000000000000000000000000000000000000000000000081565b620001b07f000000000000000000000000000000000000000000000000000000000000000081565b620001e0620002de3660046200144c565b62000ef3565b620001b0620002f5366004620013b8565b6000602081905290815260409020546001600160a01b031681565b6001600160a01b03808316600090815260026020908152604080832085845282528083205491839052909120549091168015620003c857604051627eeac760e11b81526001600160a01b0385811660048301526024820185905282169062fdd58e90604401602060405180830381865afa15801562000393573d6000803e3d6000fd5b505050506040513d601f19601f82011682018060405250810190620003b99190620015b5565b620003c59083620015e5565b91505b5092915050565b8282600b620003e083838362001160565b6000858152602081905260409020546001600160a01b03168062000417576040516339e231e760e11b815260040160405180910390fd5b6001600160a01b0387166000908152600260209081526040808320898452909152902054858110156200045d576040516383fc8b2d60e01b815260040160405180910390fd5b6001600160a01b0388811660008181526002602090815260408083208c845282528083208b8703905560019091529081902080548a900390555163020da84160e61b8152600481018a90526024810191909152604481018890529083169063836a104090606401600060405180830381600087803b158015620004df57600080fd5b505af1158015620004f4573d6000803e3d6000fd5b505060408051848152602081018a9052338183015290518a93506001600160a01b038c1692507fe718784128df3c3d45fbd6519133fee450494f7cdb2b53830a5087cd47f980829181900360600190a35050505050505050565b60008181526001602090815260408083205491839052909120546001600160a01b03168015620005f35760405163bd85b03960e01b8152600481018490526001600160a01b0382169063bd85b03990602401602060405180830381865afa158015620005be573d6000803e3d6000fd5b505050506040513d601f19601f82011682018060405250810190620005e49190620015b5565b620005f09083620015e5565b91505b50919050565b6040516331a9108f60e11b8152600481018390527f00000000000000000000000000000000000000000000000000000000000000006001600160a01b031690636352211e90602401602060405180830381865afa1580156200065f573d6000803e3d6000fd5b505050506040513d601f19601f82011682018060405250810190620006859190620015fb565b8260086200069583838362001160565b6001600160a01b038416620006bd576040516324679e7b60e01b815260040160405180910390fd5b6000858152602081905260409020546001600160a01b031615620006f4576040516397f9d95760e01b815260040160405180910390fd5b836001600160a01b031663313ce5676040518163ffffffff1660e01b8152600401602060405180830381865afa15801562000733573d6000803e3d6000fd5b505050506040513d601f19601f8201168201806040525081019062000759919062001622565b60ff166012146200077d57604051632b70e32560e21b815260040160405180910390fd5b6000858152602081815260409182902080546001600160a01b0319166001600160a01b038816908117909155915133815287917ff2b3bb02e24e3ecd8d6fbce63d308207ce06307b9f7ba575bef710e1e70ac60e910160405180910390a35050505050565b604051632eec7b5560e11b815260048101849052839033906001600160a01b037f00000000000000000000000000000000000000000000000000000000000000001690635dd8f6aa90602401602060405180830381865afa1580156200084c573d6000803e3d6000fd5b505050506040513d601f19601f82011682018060405250810190620008729190620015fb565b6001600160a01b0316146200089a57604051632adfdd0560e21b815260040160405180910390fd5b600084815260208181526040808320546001600160a01b038981168552600284528285208986529093529083205491169182156200094a57604051627eeac760e11b81526001600160a01b0389811660048301526024820189905284169062fdd58e90604401602060405180830381865afa1580156200091e573d6000803e3d6000fd5b505050506040513d601f19601f82011682018060405250810190620009449190620015b5565b6200094d565b60005b90506200095b8282620015e5565b8611156200097c57604051631cf2628760e31b815260040160405180910390fd5b60008115620009bc578515620009a5578682106200099b57866200099d565b815b9050620009bc565b868310620009b5576000620009b9565b8287035b90505b80870387821462000a42576001600160a01b038a1660009081526002602090815260408083208c8452909152902054620009f890829062001647565b6001600160a01b038b1660009081526002602090815260408083208d845282528083209390935560019052205462000a3290829062001647565b60008a8152600160205260409020555b811562000ab557604051634f752fb360e11b8152600481018a90526001600160a01b038b8116602483015260448201849052861690639eea5f6690606401600060405180830381600087803b15801562000a9b57600080fd5b505af115801562000ab0573d6000803e3d6000fd5b505050505b6040805189815260208101869052908101849052871515606082015233608082015289906001600160a01b038c16907fbe100da6adaa492f7ba1b0de916ae2606126ec7b044d7aa8ec74971a607ceecd9060a00160405180910390a350505050505050505050565b6040516331a9108f60e11b8152600481018690526000907f00000000000000000000000000000000000000000000000000000000000000006001600160a01b031690636352211e90602401602060405180830381865afa15801562000b86573d6000803e3d6000fd5b505050506040513d601f19601f8201168201806040525081019062000bac9190620015fb565b86600762000bbc83838362001160565b600087900362000bdf576040516392bf449d60e01b815260040160405180910390fd5b600085900362000c025760405163571431a760e01b815260040160405180910390fd5b6000898152602081905260409020546001600160a01b03161562000c39576040516329518c2b60e21b815260040160405180910390fd5b878787878c60405162000c4c9062001362565b62000c5c95949392919062001686565b604051809103906000f08015801562000c79573d6000803e3d6000fd5b5060008a8152602081905260409081902080546001600160a01b0319166001600160a01b0384169081179091559051919550908a907f1b1705bef26552c8f314c5eb80e9c84f02876c2f7f30a7f9ad5cafd17d5fa6da9062000ce5908c908c908c908c903390620016c4565b60405180910390a350505095945050505050565b8383600c62000d0a83838362001160565b6040516321d1336160e11b8152600481018790526000907f00000000000000000000000000000000000000000000000000000000000000006001600160a01b0316906343a266c29060240161012060405180830381865afa15801562000d74573d6000803e3d6000fd5b505050506040513d601f19601f8201168201806040525081019062000d9a919062001755565b905062000da781620012e7565b604001511562000dca576040516318cdaf9760e01b815260040160405180910390fd5b6001600160a01b03861662000df25760405163c6587bab60e01b815260040160405180910390fd5b6001600160a01b03881660009081526002602090815260408083208a84529091529020548086111562000e38576040516383fc8b2d60e01b815260040160405180910390fd5b6001600160a01b03808a1660009081526002602081815260408084208d855282528084208b87039055938b1683529081528282208b83529052205462000e80908790620015e5565b6001600160a01b0388811660008181526002602090815260408083208e84528252918290209490945580518a8152339481019490945290928b928d16917fae47e55abe3902569528abe4272b889079230a248aec0659a2939a90354982c6910160405180910390a4505050505050505050565b604051632eec7b5560e11b815260048101849052839033906001600160a01b037f00000000000000000000000000000000000000000000000000000000000000001690635dd8f6aa90602401602060405180830381865afa15801562000f5d573d6000803e3d6000fd5b505050506040513d601f19601f8201168201806040525081019062000f839190620015fb565b6001600160a01b03161462000fab57604051632adfdd0560e21b815260040160405180910390fd5b6000848152602081905260408120546001600160a01b03169083801562000fda57506001600160a01b03821615155b90508015620010545760405163020da84160e61b8152600481018790526001600160a01b0388811660248301526044820187905283169063836a104090606401600060405180830381600087803b1580156200103557600080fd5b505af11580156200104a573d6000803e3d6000fd5b50505050620010cf565b6001600160a01b038716600090815260026020908152604080832089845290915290205462001085908690620015e5565b6001600160a01b03881660009081526002602090815260408083208a8452825280832093909355600190522054620010bf908690620015e5565b6000878152600160205260409020555b6001600160e01b03620010e2876200054e565b11156200110257604051633062f38960e11b815260040160405180910390fd5b60408051868152821515602082015285151581830152336060820152905187916001600160a01b038a16917f5dd3ead325af435e56bc762b40de54c96de6071938d18a26414245807591d86f9181900360800190a350505050505050565b336001600160a01b0384161480159062001218575060405163c161c93f60e01b81523360048201526001600160a01b03848116602483015260448201849052606482018390527f0000000000000000000000000000000000000000000000000000000000000000169063c161c93f90608401602060405180830381865afa158015620011f0573d6000803e3d6000fd5b505050506040513d601f19601f82011682018060405250810190620012169190620017da565b155b8015620012c3575060405163c161c93f60e01b81523360048201526001600160a01b03848116602483015260006044830152606482018390527f0000000000000000000000000000000000000000000000000000000000000000169063c161c93f90608401602060405180830381865afa1580156200129b573d6000803e3d6000fd5b505050506040513d601f19601f82011682018060405250810190620012c19190620017da565b155b15620012e25760405163075fd2b160e01b815260040160405180910390fd5b505050565b60408051606081018252600080825260208201819052918101919091526200135c6008836101000151901c604080516060808201835260008083526020808401829052928401528251908101835260018481168114825284811c811681149282019290925260029390931c8116149082015290565b92915050565b61278080620017fb83390190565b6001600160a01b03811681146200138657600080fd5b50565b600080604083850312156200139d57600080fd5b8235620013aa8162001370565b946020939093013593505050565b600060208284031215620013cb57600080fd5b5035919050565b600080600060608486031215620013e857600080fd5b8335620013f58162001370565b95602085013595506040909401359392505050565b600080604083850312156200141e57600080fd5b823591506020830135620014328162001370565b809150509250929050565b80151581146200138657600080fd5b600080600080608085870312156200146357600080fd5b8435620014708162001370565b93506020850135925060408501359150606085013562001490816200143d565b939692955090935050565b60008083601f840112620014ae57600080fd5b50813567ffffffffffffffff811115620014c757600080fd5b602083019150836020828501011115620014e057600080fd5b9250929050565b6000806000806000606086880312156200150057600080fd5b85359450602086013567ffffffffffffffff808211156200152057600080fd5b6200152e89838a016200149b565b909650945060408801359150808211156200154857600080fd5b5062001557888289016200149b565b969995985093965092949392505050565b600080600080608085870312156200157f57600080fd5b84356200158c8162001370565b9350602085013592506040850135620015a58162001370565b9396929550929360600135925050565b600060208284031215620015c857600080fd5b5051919050565b634e487b7160e01b600052601160045260246000fd5b808201808211156200135c576200135c620015cf565b6000602082840312156200160e57600080fd5b81516200161b8162001370565b9392505050565b6000602082840312156200163557600080fd5b815160ff811681146200161b57600080fd5b818103818111156200135c576200135c620015cf565b81835281816020850137506000828201602090810191909152601f909101601f19169091010190565b6060815260006200169c6060830187896200165d565b8281036020840152620016b18186886200165d565b9150508260408301529695505050505050565b606081526000620016da6060830187896200165d565b8281036020840152620016ef8186886200165d565b91505060018060a01b03831660408301529695505050505050565b604051610120810167ffffffffffffffff811182821017156200173d57634e487b7160e01b600052604160045260246000fd5b60405290565b8051620017508162001370565b919050565b600061012082840312156200176957600080fd5b620017736200170a565b825181526020830151602082015260408301516040820152606083015160608201526080830151608082015260a083015160a082015260c083015160c0820152620017c160e0840162001743565b60e0820152610100928301519281019290925250919050565b600060208284031215620017ed57600080fd5b81516200161b816200143d56fe6101606040523480156200001257600080fd5b506040516200278038038062002780833981016040819052620000359162000233565b6040805180820190915260018152603160f81b6020820152839081908185600362000061838262000335565b50600462000070828262000335565b5050825160209384012082519284019290922060e08390526101008190524660a0818152604080517f8b73c3c69bb8fe3d512ecc4cf759cc79239f7b179b0ffacaa9a75d522b39400f818901819052818301979097526060810194909452608080850193909352308483018190528151808603909301835260c09485019091528151919096012090529290925261012052506200010f9050336200011c565b6101405250620004019050565b600a80546001600160a01b038381166001600160a01b0319831681179093556040519116919082907f8be0079c531659141344cd1fd0a4f28419497f9722a3daafe3b4186f6b6457e090600090a35050565b634e487b7160e01b600052604160045260246000fd5b600082601f8301126200019657600080fd5b81516001600160401b0380821115620001b357620001b36200016e565b604051601f8301601f19908116603f01168101908282118183101715620001de57620001de6200016e565b81604052838152602092508683858801011115620001fb57600080fd5b600091505b838210156200021f578582018301518183018401529082019062000200565b600093810190920192909252949350505050565b6000806000606084860312156200024957600080fd5b83516001600160401b03808211156200026157600080fd5b6200026f8783880162000184565b945060208601519150808211156200028657600080fd5b50620002958682870162000184565b925050604084015190509250925092565b600181811c90821680620002bb57607f821691505b602082108103620002dc57634e487b7160e01b600052602260045260246000fd5b50919050565b601f8211156200033057600081815260208120601f850160051c810160208610156200030b5750805b601f850160051c820191505b818110156200032c5782815560010162000317565b5050505b505050565b81516001600160401b038111156200035157620003516200016e565b6200036981620003628454620002a6565b84620002e2565b602080601f831160018114620003a15760008415620003885750858301515b600019600386901b1c1916600185901b1785556200032c565b600085815260208120601f198616915b82811015620003d257888601518255948401946001909101908401620003b1565b5085821015620003f15787850151600019600388901b60f8161c191681555b5050505050600190811b01905550565b60805160a05160c05160e0516101005161012051610140516122de620004a2600039600081816102cf015281816105d0015281816105fa01528181610784015281816107ae015281816107ff01528181610829015281816109750152818161099f01528181610e3e0152610e68015260006112a8015260006112f7015260006112d20152600061122b015260006112550152600061127f01526122de6000f3fe608060405234801561001057600080fd5b50600436106101fa5760003560e01c80637ecebe001161011a578063a457c2d7116100ad578063d505accf1161007c578063d505accf14610478578063dd62ed3e1461048b578063f1127ed81461049e578063f2fde38b146104db578063f8548e36146104ee57600080fd5b8063a457c2d71461042c578063a9059cbb1461043f578063bd85b03914610452578063c3cda5201461046557600080fd5b80638e539e8c116100e95780638e539e8c146103eb57806395d89b41146103fe5780639ab24eb0146104065780639eea5f661461041957600080fd5b80637ecebe00146103a1578063836a1040146103b45780638cb0a511146103c75780638da5cb5b146103da57600080fd5b806339509351116101925780635c19a95c116101615780635c19a95c146103355780636fcfff451461034857806370a0823114610370578063715018a61461039957600080fd5b806339509351146102a45780633a46b1a8146102b75780633fafa127146102ca578063587cde1e146102f157600080fd5b80631c0f12b6116101ce5780631c0f12b61461026557806323b872dd1461027a578063313ce5671461028d5780633644e5151461029c57600080fd5b8062fdd58e146101ff57806306fdde0314610225578063095ea7b31461023a57806318160ddd1461025d575b600080fd5b61021261020d366004611f53565b610501565b6040519081526020015b60405180910390f35b61022d610524565b60405161021c9190611f7d565b61024d610248366004611f53565b6105b6565b604051901515815260200161021c565b600254610212565b610278610273366004611fcb565b6105ce565b005b61024d61028836600461200f565b61064c565b6040516012815260200161021c565b610212610675565b61024d6102b2366004611f53565b61067f565b6102126102c5366004611f53565b6106a1565b6102127f000000000000000000000000000000000000000000000000000000000000000081565b61031d6102ff36600461204b565b6001600160a01b039081166000908152600760205260409020541690565b6040516001600160a01b03909116815260200161021c565b61027861034336600461204b565b610719565b61035b61035636600461204b565b610726565b60405163ffffffff909116815260200161021c565b61021261037e36600461204b565b6001600160a01b031660009081526020819052604090205490565b610278610748565b6102126103af36600461204b565b61075c565b6102786103c2366004612066565b61077a565b6102786103d5366004612066565b6107fd565b600a546001600160a01b031661031d565b6102126103f936600461208b565b610879565b61022d6108d5565b61021261041436600461204b565b6108e4565b610278610427366004612066565b61096b565b61024d61043a366004611f53565b6109e9565b61024d61044d366004611f53565b610a64565b61021261046036600461208b565b610a72565b6102786104733660046120b5565b610a7d565b61027861048636600461210d565b610bb3565b610212610499366004612177565b610d17565b6104b16104ac3660046121aa565b610d42565b60408051825163ffffffff1681526020928301516001600160e01b0316928101929092520161021c565b6102786104e936600461204b565b610dc6565b6102786104fc366004612066565b610e3c565b6001600160a01b0382166000908152602081905260408120545b90505b92915050565b606060038054610533906121ea565b80601f016020809104026020016040519081016040528092919081815260200182805461055f906121ea565b80156105ac5780601f10610581576101008083540402835291602001916105ac565b820191906000526020600020905b81548152906001019060200180831161058f57829003601f168201915b5050505050905090565b6000336105c4818585610eb2565b5060019392505050565b7f00000000000000000000000000000000000000000000000000000000000000001580159061061d57507f00000000000000000000000000000000000000000000000000000000000000008414155b1561063a5760405162cdceed60e81b815260040160405180910390fd5b61064583838361064c565b5050505050565b60003361065a858285610fd6565b61066585858561104a565b506001949350505050565b905090565b600061067061121e565b6000336105c48185856106928383610d17565b61069c9190612234565b610eb2565b60004382106106f75760405162461bcd60e51b815260206004820152601f60248201527f4552433230566f7465733a20626c6f636b206e6f7420796574206d696e65640060448201526064015b60405180910390fd5b6001600160a01b038316600090815260086020526040902061051b9083611345565b6107233382611402565b50565b6001600160a01b03811660009081526008602052604081205461051e9061147b565b6107506114e4565b61075a600061153e565b565b6001600160a01b03811660009081526005602052604081205461051e565b6107826114e4565b7f0000000000000000000000000000000000000000000000000000000000000000158015906107d157507f00000000000000000000000000000000000000000000000000000000000000008314155b156107ee5760405162cdceed60e81b815260040160405180910390fd5b6107f88282611590565b505050565b7f00000000000000000000000000000000000000000000000000000000000000001580159061084c57507f00000000000000000000000000000000000000000000000000000000000000008314155b156108695760405162cdceed60e81b815260040160405180910390fd5b61087382826105b6565b50505050565b60004382106108ca5760405162461bcd60e51b815260206004820152601f60248201527f4552433230566f7465733a20626c6f636b206e6f7420796574206d696e65640060448201526064016106ee565b61051e600983611345565b606060048054610533906121ea565b6001600160a01b0381166000908152600860205260408120548015610958576001600160a01b0383166000908152600860205260409020610926600183612247565b815481106109365761093661225a565b60009182526020909120015464010000000090046001600160e01b031661095b565b60005b6001600160e01b03169392505050565b6109736114e4565b7f0000000000000000000000000000000000000000000000000000000000000000158015906109c257507f00000000000000000000000000000000000000000000000000000000000000008314155b156109df5760405162cdceed60e81b815260040160405180910390fd5b6107f8828261161a565b600033816109f78286610d17565b905083811015610a575760405162461bcd60e51b815260206004820152602560248201527f45524332303a2064656372656173656420616c6c6f77616e63652062656c6f77604482015264207a65726f60d81b60648201526084016106ee565b6106658286868403610eb2565b6000336105c481858561104a565b600061051e60025490565b83421115610acd5760405162461bcd60e51b815260206004820152601d60248201527f4552433230566f7465733a207369676e6174757265206578706972656400000060448201526064016106ee565b604080517fe48329057bfd03d55e49b547132e39cffd9c1820ad7b9d4c5307691425d15adf60208201526001600160a01b038816918101919091526060810186905260808101859052600090610b4790610b3f9060a00160405160208183030381529060405280519060200120611632565b858585611680565b9050610b52816116a8565b8614610ba05760405162461bcd60e51b815260206004820152601960248201527f4552433230566f7465733a20696e76616c6964206e6f6e63650000000000000060448201526064016106ee565b610baa8188611402565b50505050505050565b83421115610c035760405162461bcd60e51b815260206004820152601d60248201527f45524332305065726d69743a206578706972656420646561646c696e6500000060448201526064016106ee565b60007f6e71edae12b1b97f4d1f60370fef10105fa2faae0126114a169c64845d6126c9888888610c328c6116a8565b6040805160208101969096526001600160a01b0394851690860152929091166060840152608083015260a082015260c0810186905260e0016040516020818303038152906040528051906020012090506000610c8d82611632565b90506000610c9d82878787611680565b9050896001600160a01b0316816001600160a01b031614610d005760405162461bcd60e51b815260206004820152601e60248201527f45524332305065726d69743a20696e76616c6964207369676e6174757265000060448201526064016106ee565b610d0b8a8a8a610eb2565b50505050505050505050565b6001600160a01b03918216600090815260016020908152604080832093909416825291909152205490565b60408051808201909152600080825260208201526001600160a01b0383166000908152600860205260409020805463ffffffff8416908110610d8657610d8661225a565b60009182526020918290206040805180820190915291015463ffffffff8116825264010000000090046001600160e01b0316918101919091529392505050565b610dce6114e4565b6001600160a01b038116610e335760405162461bcd60e51b815260206004820152602660248201527f4f776e61626c653a206e6577206f776e657220697320746865207a65726f206160448201526564647265737360d01b60648201526084016106ee565b6107238161153e565b7f000000000000000000000000000000000000000000000000000000000000000015801590610e8b57507f00000000000000000000000000000000000000000000000000000000000000008314155b15610ea85760405162cdceed60e81b815260040160405180910390fd5b6108738282610a64565b6001600160a01b038316610f145760405162461bcd60e51b8152602060048201526024808201527f45524332303a20617070726f76652066726f6d20746865207a65726f206164646044820152637265737360e01b60648201526084016106ee565b6001600160a01b038216610f755760405162461bcd60e51b815260206004820152602260248201527f45524332303a20617070726f766520746f20746865207a65726f206164647265604482015261737360f01b60648201526084016106ee565b6001600160a01b0383811660008181526001602090815260408083209487168084529482529182902085905590518481527f8c5be1e5ebec7d5bd14f71427d1e84f3dd0314c0f7b2291e5b200ac8c7c3b925910160405180910390a3505050565b6000610fe28484610d17565b90506000198114610873578181101561103d5760405162461bcd60e51b815260206004820152601d60248201527f45524332303a20696e73756666696369656e7420616c6c6f77616e636500000060448201526064016106ee565b6108738484848403610eb2565b6001600160a01b0383166110ae5760405162461bcd60e51b815260206004820152602560248201527f45524332303a207472616e736665722066726f6d20746865207a65726f206164604482015264647265737360d81b60648201526084016106ee565b6001600160a01b0382166111105760405162461bcd60e51b815260206004820152602360248201527f45524332303a207472616e7366657220746f20746865207a65726f206164647260448201526265737360e81b60648201526084016106ee565b6001600160a01b038316600090815260208190526040902054818110156111885760405162461bcd60e51b815260206004820152602660248201527f45524332303a207472616e7366657220616d6f756e7420657863656564732062604482015265616c616e636560d01b60648201526084016106ee565b6001600160a01b038085166000908152602081905260408082208585039055918516815290812080548492906111bf908490612234565b92505081905550826001600160a01b0316846001600160a01b03167fddf252ad1be2c89b69c2b068fc378daa952ba7f163c4a11628f55a4df523b3ef8460405161120b91815260200190565b60405180910390a36108738484846116d0565b6000306001600160a01b037f00000000000000000000000000000000000000000000000000000000000000001614801561127757507f000000000000000000000000000000000000000000000000000000000000000046145b156112a157507f000000000000000000000000000000000000000000000000000000000000000090565b50604080517f00000000000000000000000000000000000000000000000000000000000000006020808301919091527f0000000000000000000000000000000000000000000000000000000000000000828401527f000000000000000000000000000000000000000000000000000000000000000060608301524660808301523060a0808401919091528351808403909101815260c0909201909252805191012090565b8154600090815b818110156113a95760006113608284611702565b9050848682815481106113755761137561225a565b60009182526020909120015463ffffffff161115611395578092506113a3565b6113a0816001612234565b91505b5061134c565b81156113ed57846113bb600184612247565b815481106113cb576113cb61225a565b60009182526020909120015464010000000090046001600160e01b03166113f0565b60005b6001600160e01b031695945050505050565b6001600160a01b038281166000818152600760208181526040808420805485845282862054949093528787166001600160a01b03198416811790915590519190951694919391928592917f3134e8a2e6d97e929a7e54011ea5485d7d196dd5f0ba4d4ef95803e8e3fc257f9190a461087382848361171d565b600063ffffffff8211156114e05760405162461bcd60e51b815260206004820152602660248201527f53616665436173743a2076616c756520646f65736e27742066697420696e203360448201526532206269747360d01b60648201526084016106ee565b5090565b600a546001600160a01b0316331461075a5760405162461bcd60e51b815260206004820181905260248201527f4f776e61626c653a2063616c6c6572206973206e6f7420746865206f776e657260448201526064016106ee565b600a80546001600160a01b038381166001600160a01b0319831681179093556040519116919082907f8be0079c531659141344cd1fd0a4f28419497f9722a3daafe3b4186f6b6457e090600090a35050565b61159a828261185a565b6002546001600160e01b03101561160c5760405162461bcd60e51b815260206004820152603060248201527f4552433230566f7465733a20746f74616c20737570706c79207269736b73206f60448201526f766572666c6f77696e6720766f74657360801b60648201526084016106ee565b610873600961194583611951565b6116248282611aca565b6108736009611c1f83611951565b600061051e61163f61121e565b8360405161190160f01b6020820152602281018390526042810182905260009060620160405160208183030381529060405280519060200120905092915050565b600080600061169187878787611c2b565b9150915061169e81611d18565b5095945050505050565b6001600160a01b03811660009081526005602052604090208054600181018255905b50919050565b6001600160a01b038381166000908152600760205260408082205485841683529120546107f89291821691168361171d565b60006117116002848418612270565b61051b90848416612234565b816001600160a01b0316836001600160a01b03161415801561173f5750600081115b156107f8576001600160a01b038316156117cd576001600160a01b0383166000908152600860205260408120819061177a90611c1f85611951565b91509150846001600160a01b03167fdec2bacdd2f05b59de34da9b523dff8be42e5e38e818c82fdb0bae774387a72483836040516117c2929190918252602082015260400190565b60405180910390a250505b6001600160a01b038216156107f8576001600160a01b038216600090815260086020526040812081906118039061194585611951565b91509150836001600160a01b03167fdec2bacdd2f05b59de34da9b523dff8be42e5e38e818c82fdb0bae774387a724838360405161184b929190918252602082015260400190565b60405180910390a25050505050565b6001600160a01b0382166118b05760405162461bcd60e51b815260206004820152601f60248201527f45524332303a206d696e7420746f20746865207a65726f20616464726573730060448201526064016106ee565b80600260008282546118c29190612234565b90915550506001600160a01b038216600090815260208190526040812080548392906118ef908490612234565b90915550506040518181526001600160a01b038316906000907fddf252ad1be2c89b69c2b068fc378daa952ba7f163c4a11628f55a4df523b3ef9060200160405180910390a3611941600083836116d0565b5050565b600061051b8284612234565b82546000908190801561199c578561196a600183612247565b8154811061197a5761197a61225a565b60009182526020909120015464010000000090046001600160e01b031661199f565b60005b6001600160e01b031692506119b883858763ffffffff16565b91506000811180156119f6575043866119d2600184612247565b815481106119e2576119e261225a565b60009182526020909120015463ffffffff16145b15611a5657611a0482611ece565b86611a10600184612247565b81548110611a2057611a2061225a565b9060005260206000200160000160046101000a8154816001600160e01b0302191690836001600160e01b03160217905550611ac1565b856040518060400160405280611a6b4361147b565b63ffffffff168152602001611a7f85611ece565b6001600160e01b0390811690915282546001810184556000938452602093849020835194909301519091166401000000000263ffffffff909316929092179101555b50935093915050565b6001600160a01b038216611b2a5760405162461bcd60e51b815260206004820152602160248201527f45524332303a206275726e2066726f6d20746865207a65726f206164647265736044820152607360f81b60648201526084016106ee565b6001600160a01b03821660009081526020819052604090205481811015611b9e5760405162461bcd60e51b815260206004820152602260248201527f45524332303a206275726e20616d6f756e7420657863656564732062616c616e604482015261636560f01b60648201526084016106ee565b6001600160a01b0383166000908152602081905260408120838303905560028054849290611bcd908490612247565b90915550506040518281526000906001600160a01b038516907fddf252ad1be2c89b69c2b068fc378daa952ba7f163c4a11628f55a4df523b3ef9060200160405180910390a36107f8836000846116d0565b600061051b8284612247565b6000807f7fffffffffffffffffffffffffffffff5d576e7357a4501ddfe92f46681b20a0831115611c625750600090506003611d0f565b8460ff16601b14158015611c7a57508460ff16601c14155b15611c8b5750600090506004611d0f565b6040805160008082526020820180845289905260ff881692820192909252606081018690526080810185905260019060a0016020604051602081039080840390855afa158015611cdf573d6000803e3d6000fd5b5050604051601f1901519150506001600160a01b038116611d0857600060019250925050611d0f565b9150600090505b94509492505050565b6000816004811115611d2c57611d2c612292565b03611d345750565b6001816004811115611d4857611d48612292565b03611d955760405162461bcd60e51b815260206004820152601860248201527f45434453413a20696e76616c6964207369676e6174757265000000000000000060448201526064016106ee565b6002816004811115611da957611da9612292565b03611df65760405162461bcd60e51b815260206004820152601f60248201527f45434453413a20696e76616c6964207369676e6174757265206c656e6774680060448201526064016106ee565b6003816004811115611e0a57611e0a612292565b03611e625760405162461bcd60e51b815260206004820152602260248201527f45434453413a20696e76616c6964207369676e6174757265202773272076616c604482015261756560f01b60648201526084016106ee565b6004816004811115611e7657611e76612292565b036107235760405162461bcd60e51b815260206004820152602260248201527f45434453413a20696e76616c6964207369676e6174757265202776272076616c604482015261756560f01b60648201526084016106ee565b60006001600160e01b038211156114e05760405162461bcd60e51b815260206004820152602760248201527f53616665436173743a2076616c756520646f65736e27742066697420696e20326044820152663234206269747360c81b60648201526084016106ee565b80356001600160a01b0381168114611f4e57600080fd5b919050565b60008060408385031215611f6657600080fd5b611f6f83611f37565b946020939093013593505050565b600060208083528351808285015260005b81811015611faa57858101830151858201604001528201611f8e565b506000604082860101526040601f19601f8301168501019250505092915050565b60008060008060808587031215611fe157600080fd5b84359350611ff160208601611f37565b9250611fff60408601611f37565b9396929550929360600135925050565b60008060006060848603121561202457600080fd5b61202d84611f37565b925061203b60208501611f37565b9150604084013590509250925092565b60006020828403121561205d57600080fd5b61051b82611f37565b60008060006060848603121561207b57600080fd5b8335925061203b60208501611f37565b60006020828403121561209d57600080fd5b5035919050565b803560ff81168114611f4e57600080fd5b60008060008060008060c087890312156120ce57600080fd5b6120d787611f37565b955060208701359450604087013593506120f3606088016120a4565b92506080870135915060a087013590509295509295509295565b600080600080600080600060e0888a03121561212857600080fd5b61213188611f37565b965061213f60208901611f37565b9550604088013594506060880135935061215b608089016120a4565b925060a0880135915060c0880135905092959891949750929550565b6000806040838503121561218a57600080fd5b61219383611f37565b91506121a160208401611f37565b90509250929050565b600080604083850312156121bd57600080fd5b6121c683611f37565b9150602083013563ffffffff811681146121df57600080fd5b809150509250929050565b600181811c908216806121fe57607f821691505b6020821081036116ca57634e487b7160e01b600052602260045260246000fd5b634e487b7160e01b600052601160045260246000fd5b8082018082111561051e5761051e61221e565b8181038181111561051e5761051e61221e565b634e487b7160e01b600052603260045260246000fd5b60008261228d57634e487b7160e01b600052601260045260246000fd5b500490565b634e487b7160e01b600052602160045260246000fdfea2646970667358221220a4b5f96d1b9d2f2cf384b26d70d8318fbb757c4937b117a84a7374cce2d82a8564736f6c63430008100033a264697066735822122033288b1e3c493395b6b81c66f95572fe74cbf78ab5cc8b2530d2796ac041eed164736f6c63430008100033",
    "linkReferences": {}
  },
  "methodIdentifiers": {
    "balanceOf(address,uint256)": "00fdd58e",
    "burnFrom(address,uint256,uint256,bool)": "906ebd0f",
    "claimFor(address,uint256,uint256)": "6607955d",
    "directory()": "c41c2f24",
    "fundingCycleStore()": "557e7155",
    "issueFor(uint256,string,string)": "a7f2a70b",
    "mintFor(address,uint256,uint256,bool)": "ceddd3e4",
    "operatorStore()": "ad007d63",
    "projects()": "8b79543c",
    "setFor(uint256,address)": "831d7fac",
    "tokenOf(uint256)": "ea78803f",
    "totalSupplyOf(uint256)": "75b0d9cd",
    "transferFrom(address,uint256,address,uint256)": "ac689bcd",
    "unclaimedBalanceOf(address,uint256)": "5287af37",
    "unclaimedTotalSupplyOf(uint256)": "1412884f"
  },
  "id": 47
}