{
  "abi": [
    {
      "inputs": [
        {
          "internalType": "contract IJBOperatorStore",
          "name": "_operatorStore",
          "type": "address"
        },
        {
          "internalType": "contract IJBProjects",
          "name": "_projects",
          "type": "address"
        },
        {
          "internalType": "contract IJBDirectory",
          "name": "_directory",
          "type": "address"
        }
      ],
      "stateMutability": "nonpayable",
      "type": "constructor"
    },
    {
      "inputs": [],
      "name": "INVALID_LOCKED_UNTIL",
      "type": "error"
    },
    {
      "inputs": [],
      "name": "INVALID_PROJECT_ID",
      "type": "error"
    },
    {
      "inputs": [],
      "name": "INVALID_SPLIT_PERCENT",
      "type": "error"
    },
    {
      "inputs": [],
      "name": "INVALID_TOTAL_PERCENT",
      "type": "error"
    },
    {
      "inputs": [],
      "name": "PREVIOUS_LOCKED_SPLITS_NOT_INCLUDED",
      "type": "error"
    },
    {
      "inputs": [],
      "name": "UNAUTHORIZED",
      "type": "error"
    },
    {
      "anonymous": false,
      "inputs": [
        {
          "indexed": true,
          "internalType": "uint256",
          "name": "projectId",
          "type": "uint256"
        },
        {
          "indexed": true,
          "internalType": "uint256",
          "name": "domain",
          "type": "uint256"
        },
        {
          "indexed": true,
          "internalType": "uint256",
          "name": "group",
          "type": "uint256"
        },
        {
          "components": [
            {
              "internalType": "bool",
              "name": "preferClaimed",
              "type": "bool"
            },
            {
              "internalType": "bool",
              "name": "preferAddToBalance",
              "type": "bool"
            },
            {
              "internalType": "uint256",
              "name": "percent",
              "type": "uint256"
            },
            {
              "internalType": "uint256",
              "name": "projectId",
              "type": "uint256"
            },
            {
              "internalType": "address payable",
              "name": "beneficiary",
              "type": "address"
            },
            {
              "internalType": "uint256",
              "name": "lockedUntil",
              "type": "uint256"
            },
            {
              "internalType": "contract IJBSplitAllocator",
              "name": "allocator",
              "type": "address"
            }
          ],
          "indexed": false,
          "internalType": "struct JBSplit",
          "name": "split",
          "type": "tuple"
        },
        {
          "indexed": false,
          "internalType": "address",
          "name": "caller",
          "type": "address"
        }
      ],
      "name": "SetSplit",
      "type": "event"
    },
    {
      "inputs": [],
      "name": "directory",
      "outputs": [
        {
          "internalType": "contract IJBDirectory",
          "name": "",
          "type": "address"
        }
      ],
      "stateMutability": "view",
      "type": "function"
    },
    {
      "inputs": [],
      "name": "operatorStore",
      "outputs": [
        {
          "internalType": "contract IJBOperatorStore",
          "name": "",
          "type": "address"
        }
      ],
      "stateMutability": "view",
      "type": "function"
    },
    {
      "inputs": [],
      "name": "projects",
      "outputs": [
        {
          "internalType": "contract IJBProjects",
          "name": "",
          "type": "address"
        }
      ],
      "stateMutability": "view",
      "type": "function"
    },
    {
      "inputs": [
        {
          "internalType": "uint256",
          "name": "_projectId",
          "type": "uint256"
        },
        {
          "internalType": "uint256",
          "name": "_domain",
          "type": "uint256"
        },
        {
          "internalType": "uint256",
          "name": "_group",
          "type": "uint256"
        },
        {
          "components": [
            {
              "internalType": "bool",
              "name": "preferClaimed",
              "type": "bool"
            },
            {
              "internalType": "bool",
              "name": "preferAddToBalance",
              "type": "bool"
            },
            {
              "internalType": "uint256",
              "name": "percent",
              "type": "uint256"
            },
            {
              "internalType": "uint256",
              "name": "projectId",
              "type": "uint256"
            },
            {
              "internalType": "address payable",
              "name": "beneficiary",
              "type": "address"
            },
            {
              "internalType": "uint256",
              "name": "lockedUntil",
              "type": "uint256"
            },
            {
              "internalType": "contract IJBSplitAllocator",
              "name": "allocator",
              "type": "address"
            }
          ],
          "internalType": "struct JBSplit[]",
          "name": "_splits",
          "type": "tuple[]"
        }
      ],
      "name": "set",
      "outputs": [],
      "stateMutability": "nonpayable",
      "type": "function"
    },
    {
      "inputs": [
        {
          "internalType": "uint256",
          "name": "_projectId",
          "type": "uint256"
        },
        {
          "internalType": "uint256",
          "name": "_domain",
          "type": "uint256"
        },
        {
          "internalType": "uint256",
          "name": "_group",
          "type": "uint256"
        }
      ],
      "name": "splitsOf",
      "outputs": [
        {
          "components": [
            {
              "internalType": "bool",
              "name": "preferClaimed",
              "type": "bool"
            },
            {
              "internalType": "bool",
              "name": "preferAddToBalance",
              "type": "bool"
            },
            {
              "internalType": "uint256",
              "name": "percent",
              "type": "uint256"
            },
            {
              "internalType": "uint256",
              "name": "projectId",
              "type": "uint256"
            },
            {
              "internalType": "address payable",
              "name": "beneficiary",
              "type": "address"
            },
            {
              "internalType": "uint256",
              "name": "lockedUntil",
              "type": "uint256"
            },
            {
              "internalType": "contract IJBSplitAllocator",
              "name": "allocator",
              "type": "address"
            }
          ],
          "internalType": "struct JBSplit[]",
          "name": "",
          "type": "tuple[]"
        }
      ],
      "stateMutability": "view",
      "type": "function"
    }
  ],
  "bytecode": {
    "object": "0x60e060405234801561001057600080fd5b506040516110f63803806110f683398101604081905261002f91610056565b6001600160601b0319606093841b811660805291831b821660a05290911b1660c0526100bb565b60008060006060848603121561006b57600080fd5b8351610076816100a3565b6020850151909350610087816100a3565b6040850151909250610098816100a3565b809150509250925092565b6001600160a01b03811681146100b857600080fd5b50565b60805160601c60a05160601c60c05160601c610fe961010d6000396000818161010501526101e4015260008181609f015261013d01526000818160de0152818161092c01526109e20152610fe96000f3fe608060405234801561001057600080fd5b50600436106100575760003560e01c806312e7c4c61461005c57806369e11cc5146100715780638b79543c1461009a578063ad007d63146100d9578063c41c2f2414610100575b600080fd5b61006f61006a366004610cb0565b610127565b005b61008461007f366004610c84565b6108c6565b6040516100919190610e49565b60405180910390f35b6100c17f000000000000000000000000000000000000000000000000000000000000000081565b6040516001600160a01b039091168152602001610091565b6100c17f000000000000000000000000000000000000000000000000000000000000000081565b6100c17f000000000000000000000000000000000000000000000000000000000000000081565b6040516331a9108f60e11b8152600481018590527f00000000000000000000000000000000000000000000000000000000000000006001600160a01b031690636352211e9060240160206040518083038186803b15801561018757600080fd5b505afa15801561019b573d6000803e3d6000fd5b505050506040513d601f19601f820116820180604052508101906101bf9190610c43565b604051632eec7b5560e11b815260048101869052859060129033906001600160a01b037f00000000000000000000000000000000000000000000000000000000000000001690635dd8f6aa9060240160206040518083038186803b15801561022657600080fd5b505afa15801561023a573d6000803e3d6000fd5b505050506040513d601f19601f8201168201806040525081019061025e9190610c43565b6001600160a01b031614610274848484846108db565b6000610281898989610a82565b905060005b815181101561048a578181815181106102a1576102a1610f61565b602002602001015160a0015142106102b857610478565b6000805b8851811015610457578383815181106102d7576102d7610f61565b6020026020010151604001518982815181106102f5576102f5610f61565b602002602001015160400151148015610359575083838151811061031b5761031b610f61565b6020026020010151608001516001600160a01b031689828151811061034257610342610f61565b6020026020010151608001516001600160a01b0316145b80156103b0575083838151811061037257610372610f61565b602002602001015160c001516001600160a01b031689828151811061039957610399610f61565b602002602001015160c001516001600160a01b0316145b80156103f557508383815181106103c9576103c9610f61565b6020026020010151606001518982815181106103e7576103e7610f61565b602002602001015160600151145b801561043b575083838151811061040e5761040e610f61565b602002602001015160a0015189828151811061042c5761042c610f61565b602002602001015160a0015110155b1561044557600191505b8061044f81610f30565b9150506102bc565b508061047657604051631974459560e01b815260040160405180910390fd5b505b8061048281610f30565b915050610286565b506000805b8751811015610897578781815181106104aa576104aa610f61565b602002602001015160400151600014156104d75760405163e119ba4560e01b815260040160405180910390fd5b66ffffffffffffff80168882815181106104f3576104f3610f61565b602002602001015160600151111561051e57604051631da26cc960e11b815260040160405180910390fd5b87818151811061053057610530610f61565b602002602001015160400151826105479190610f18565b9150633b9aca0082111561056e57604051630eca736160e41b815260040160405180910390fd5b600088828151811061058257610582610f61565b60200260200101516000015115610597575060015b8882815181106105a9576105a9610f61565b602002602001015160200151156105be576002175b60028983815181106105d2576105d2610f61565b602002602001015160400151901b8117905060228983815181106105f8576105f8610f61565b602002602001015160600151901b81179050605a89838151811061061e5761061e610f61565b6020026020010151608001516001600160a01b0316901b8117905080600160008e815260200190815260200160002060008d815260200190815260200160002060008c8152602001908152602001600020600084815260200190815260200160002081905550600089838151811061069857610698610f61565b602002602001015160a0015111806106e0575060006001600160a01b03168983815181106106c8576106c8610f61565b602002602001015160c001516001600160a01b031614155b156107d55765ffffffffffff801689838151811061070057610700610f61565b602002602001015160a00151111561072b5760405163d509b54d60e01b815260040160405180910390fd5b600089838151811061073f5761073f610f61565b602002602001015160a0015165ffffffffffff16905060308a848151811061076957610769610f61565b602002602001015160c001516001600160a01b0316901b8117905080600260008f815260200190815260200160002060008e815260200190815260200160002060008d81526020019081526020016000206000858152602001908152602001600020819055505061082f565b60008c81526002602090815260408083208e845282528083208d845282528083208584529091529020541561082f5760008c81526002602090815260408083208e845282528083208d845282528083208584529091528120555b898b8d7f1d65eeba667d8160993d485b4782f11eef3bc64186c6521f2a0801f816e752e78c868151811061086557610865610f61565b60200260200101513360405161087c929190610e97565b60405180910390a4508061088f81610f30565b91505061048f565b50509451600098895260208981526040808b20998b52988152888a20978a529690965250505092909320555050565b60606108d3848484610a82565b949350505050565b801580156108f25750336001600160a01b03851614155b80156109a8575060405163c161c93f60e01b81523360048201526001600160a01b03858116602483015260448201859052606482018490527f0000000000000000000000000000000000000000000000000000000000000000169063c161c93f9060840160206040518083038186803b15801561096e57600080fd5b505afa158015610982573d6000803e3d6000fd5b505050506040513d601f19601f820116820180604052508101906109a69190610c67565b155b8015610a5e575060405163c161c93f60e01b81523360048201526001600160a01b03858116602483015260006044830152606482018490527f0000000000000000000000000000000000000000000000000000000000000000169063c161c93f9060840160206040518083038186803b158015610a2457600080fd5b505afa158015610a38573d6000803e3d6000fd5b505050506040513d601f19601f82011682018060405250810190610a5c9190610c67565b155b15610a7c5760405163075fd2b160e01b815260040160405180910390fd5b50505050565b60008381526020818152604080832085845282528083208484529091528120546060918167ffffffffffffffff811115610abe57610abe610f77565b604051908082528060200260200182016040528015610b2557816020015b6040805160e08101825260008082526020808301829052928201819052606082018190526080820181905260a0820181905260c08201528252600019909201910181610adc5790505b50905060005b82811015610c395760008781526001602081815260408084208a855282528084208985528252808420858552825280842054815160e08101835260a0810186905260c081018690528185168514815281851c851690941484840152600281811c63ffffffff1685840152602282901c66ffffffffffffff166060860152605a82901c6001600160a01b031660808601528c865283528185208b865283528185208a86528352818520868652909252909220548015610c055765ffffffffffff811660a08301526001600160a01b03603082901c1660c08301525b81858581518110610c1857610c18610f61565b60200260200101819052505050508080610c3190610f30565b915050610b2b565b5095945050505050565b600060208284031215610c5557600080fd5b8151610c6081610f8d565b9392505050565b600060208284031215610c7957600080fd5b8151610c6081610fa5565b600080600060608486031215610c9957600080fd5b505081359360208301359350604090920135919050565b60008060008060808587031215610cc657600080fd5b84359350602080860135935060408601359250606086013567ffffffffffffffff80821115610cf457600080fd5b818801915088601f830112610d0857600080fd5b813581811115610d1a57610d1a610f77565b610d28848260051b01610ee7565b818152848101925083850160e0808402860187018d1015610d4857600080fd5b60009550855b84811015610de25781838f031215610d64578687fd5b610d6c610ebe565b8335610d7781610fa5565b815283890135610d8681610fa5565b808a8301525060408401356040820152606084013560608201526080840135610dae81610f8d565b608082015260a0848101359082015260c080850135610dcc81610f8d565b9082015286529487019491810191600101610d4e565b50999c989b509699509750505050505050565b80511515825260208082015115159083015260408082015190830152606080820151908301526080808201516001600160a01b039081169184019190915260a0808301519084015260c09182015116910152565b6020808252825182820181905260009190848201906040850190845b81811015610e8b57610e78838551610df5565b9284019260e09290920191600101610e65565b50909695505050505050565b6101008101610ea68285610df5565b6001600160a01b039290921660e09190910152919050565b60405160e0810167ffffffffffffffff81118282101715610ee157610ee1610f77565b60405290565b604051601f8201601f1916810167ffffffffffffffff81118282101715610f1057610f10610f77565b604052919050565b60008219821115610f2b57610f2b610f4b565b500190565b6000600019821415610f4457610f44610f4b565b5060010190565b634e487b7160e01b600052601160045260246000fd5b634e487b7160e01b600052603260045260246000fd5b634e487b7160e01b600052604160045260246000fd5b6001600160a01b0381168114610fa257600080fd5b50565b8015158114610fa257600080fdfea26469706673582212201ec03dfc8d41d2b518e4b6c026c3ea107a3974368790bd1d0f7f36dd1092234f64736f6c63430008060033",
    "linkReferences": {}
  },
  "methodIdentifiers": {
    "directory()": "c41c2f24",
    "operatorStore()": "ad007d63",
    "projects()": "8b79543c",
    "set(uint256,uint256,uint256,(bool,bool,uint256,uint256,address,uint256,address)[])": "12e7c4c6",
    "splitsOf(uint256,uint256,uint256)": "69e11cc5"
  },
  "id": 41
}