{
  "abi": [
    {
      "inputs": [
        {
          "internalType": "uint256",
          "name": "_projectId",
          "type": "uint256"
        },
        {
          "internalType": "contract IJBDirectory",
          "name": "_directory",
          "type": "address"
        },
        {
          "internalType": "string",
          "name": "_name",
          "type": "string"
        },
        {
          "internalType": "string",
          "name": "_symbol",
          "type": "string"
        },
        {
          "internalType": "string",
          "name": "_baseUri",
          "type": "string"
        },
        {
          "internalType": "contract IJBTokenUriResolver",
          "name": "_tokenUriResolver",
          "type": "address"
        },
        {
          "internalType": "string",
          "name": "_contractUri",
          "type": "string"
        },
        {
          "internalType": "address",
          "name": "_owner",
          "type": "address"
        },
        {
          "components": [
            {
              "internalType": "uint80",
              "name": "contributionFloor",
              "type": "uint80"
            },
            {
              "internalType": "uint48",
              "name": "lockedUntil",
              "type": "uint48"
            },
            {
              "internalType": "uint48",
              "name": "remainingQuantity",
              "type": "uint48"
            },
            {
              "internalType": "uint48",
              "name": "initialQuantity",
              "type": "uint48"
            },
            {
              "internalType": "uint16",
              "name": "votingUnits",
              "type": "uint16"
            },
            {
              "internalType": "uint16",
              "name": "reservedRate",
              "type": "uint16"
            },
            {
              "internalType": "bytes32",
              "name": "tokenUri",
              "type": "bytes32"
            }
          ],
          "internalType": "struct JBNFTRewardTierData[]",
          "name": "_tierData",
          "type": "tuple[]"
        },
        {
          "internalType": "contract IJBTieredLimitedNFTRewardDataSourceStore",
          "name": "_store",
          "type": "address"
        }
      ],
      "stateMutability": "nonpayable",
      "type": "constructor"
    },
    {
      "inputs": [],
      "name": "ALEADY_MINTED",
      "type": "error"
    },
    {
      "inputs": [],
      "name": "APPROVAL_TO_CURRENT_OWNER",
      "type": "error"
    },
    {
      "inputs": [],
      "name": "APPROVE_TO_CALLER",
      "type": "error"
    },
    {
      "inputs": [],
      "name": "CALLER_NOT_OWNER_OR_APPROVED",
      "type": "error"
    },
    {
      "inputs": [],
      "name": "INCORRECT_OWNER",
      "type": "error"
    },
    {
      "inputs": [],
      "name": "INVALID_PAYMENT_EVENT",
      "type": "error"
    },
    {
      "inputs": [],
      "name": "INVALID_REDEMPTION_EVENT",
      "type": "error"
    },
    {
      "inputs": [],
      "name": "INVALID_TOKEN_ID",
      "type": "error"
    },
    {
      "inputs": [],
      "name": "MINT_TO_ZERO",
      "type": "error"
    },
    {
      "inputs": [],
      "name": "OVERSPENDING",
      "type": "error"
    },
    {
      "inputs": [
        {
          "internalType": "uint256",
          "name": "prod1",
          "type": "uint256"
        },
        {
          "internalType": "uint256",
          "name": "denominator",
          "type": "uint256"
        }
      ],
      "name": "PRBMath__MulDivOverflow",
      "type": "error"
    },
    {
      "inputs": [],
      "name": "TRANSFER_TO_NON_IMPLEMENTER",
      "type": "error"
    },
    {
      "inputs": [],
      "name": "TRANSFER_TO_ZERO_ADDRESS",
      "type": "error"
    },
    {
      "inputs": [],
      "name": "UNAUTHORIZED",
      "type": "error"
    },
    {
      "inputs": [],
      "name": "UNEXPECTED",
      "type": "error"
    },
    {
      "anonymous": false,
      "inputs": [
        {
          "indexed": true,
          "internalType": "uint256",
          "name": "tierId",
          "type": "uint256"
        },
        {
          "components": [
            {
              "internalType": "uint80",
              "name": "contributionFloor",
              "type": "uint80"
            },
            {
              "internalType": "uint48",
              "name": "lockedUntil",
              "type": "uint48"
            },
            {
              "internalType": "uint48",
              "name": "remainingQuantity",
              "type": "uint48"
            },
            {
              "internalType": "uint48",
              "name": "initialQuantity",
              "type": "uint48"
            },
            {
              "internalType": "uint16",
              "name": "votingUnits",
              "type": "uint16"
            },
            {
              "internalType": "uint16",
              "name": "reservedRate",
              "type": "uint16"
            },
            {
              "internalType": "bytes32",
              "name": "tokenUri",
              "type": "bytes32"
            }
          ],
          "indexed": false,
          "internalType": "struct JBNFTRewardTierData",
          "name": "data",
          "type": "tuple"
        },
        {
          "indexed": false,
          "internalType": "address",
          "name": "caller",
          "type": "address"
        }
      ],
      "name": "AddTier",
      "type": "event"
    },
    {
      "anonymous": false,
      "inputs": [
        {
          "indexed": true,
          "internalType": "address",
          "name": "owner",
          "type": "address"
        },
        {
          "indexed": true,
          "internalType": "address",
          "name": "approved",
          "type": "address"
        },
        {
          "indexed": true,
          "internalType": "uint256",
          "name": "tokenId",
          "type": "uint256"
        }
      ],
      "name": "Approval",
      "type": "event"
    },
    {
      "anonymous": false,
      "inputs": [
        {
          "indexed": true,
          "internalType": "address",
          "name": "owner",
          "type": "address"
        },
        {
          "indexed": true,
          "internalType": "address",
          "name": "operator",
          "type": "address"
        },
        {
          "indexed": false,
          "internalType": "bool",
          "name": "approved",
          "type": "bool"
        }
      ],
      "name": "ApprovalForAll",
      "type": "event"
    },
    {
      "anonymous": false,
      "inputs": [
        {
          "indexed": true,
          "internalType": "address",
          "name": "delegator",
          "type": "address"
        },
        {
          "indexed": true,
          "internalType": "address",
          "name": "fromDelegate",
          "type": "address"
        },
        {
          "indexed": true,
          "internalType": "address",
          "name": "toDelegate",
          "type": "address"
        }
      ],
      "name": "DelegateChanged",
      "type": "event"
    },
    {
      "anonymous": false,
      "inputs": [
        {
          "indexed": true,
          "internalType": "address",
          "name": "delegate",
          "type": "address"
        },
        {
          "indexed": false,
          "internalType": "uint256",
          "name": "previousBalance",
          "type": "uint256"
        },
        {
          "indexed": false,
          "internalType": "uint256",
          "name": "newBalance",
          "type": "uint256"
        }
      ],
      "name": "DelegateVotesChanged",
      "type": "event"
    },
    {
      "anonymous": false,
      "inputs": [
        {
          "indexed": true,
          "internalType": "uint256",
          "name": "tokenId",
          "type": "uint256"
        },
        {
          "indexed": true,
          "internalType": "uint256",
          "name": "tierId",
          "type": "uint256"
        },
        {
          "indexed": true,
          "internalType": "address",
          "name": "beneficiary",
          "type": "address"
        },
        {
          "indexed": false,
          "internalType": "uint256",
          "name": "totalAmountContributed",
          "type": "uint256"
        },
        {
          "indexed": false,
          "internalType": "uint256",
          "name": "numRewards",
          "type": "uint256"
        },
        {
          "indexed": false,
          "internalType": "address",
          "name": "caller",
          "type": "address"
        }
      ],
      "name": "Mint",
      "type": "event"
    },
    {
      "anonymous": false,
      "inputs": [
        {
          "indexed": true,
          "internalType": "uint256",
          "name": "tokenId",
          "type": "uint256"
        },
        {
          "indexed": true,
          "internalType": "uint256",
          "name": "tierId",
          "type": "uint256"
        },
        {
          "indexed": true,
          "internalType": "address",
          "name": "beneficiary",
          "type": "address"
        },
        {
          "indexed": false,
          "internalType": "address",
          "name": "caller",
          "type": "address"
        }
      ],
      "name": "MintReservedToken",
      "type": "event"
    },
    {
      "anonymous": false,
      "inputs": [
        {
          "indexed": true,
          "internalType": "address",
          "name": "previousOwner",
          "type": "address"
        },
        {
          "indexed": true,
          "internalType": "address",
          "name": "newOwner",
          "type": "address"
        }
      ],
      "name": "OwnershipTransferred",
      "type": "event"
    },
    {
      "anonymous": false,
      "inputs": [
        {
          "indexed": true,
          "internalType": "uint256",
          "name": "tierId",
          "type": "uint256"
        },
        {
          "indexed": false,
          "internalType": "address",
          "name": "caller",
          "type": "address"
        }
      ],
      "name": "RemoveTier",
      "type": "event"
    },
    {
      "anonymous": false,
      "inputs": [
        {
          "indexed": true,
          "internalType": "string",
          "name": "baseUri",
          "type": "string"
        },
        {
          "indexed": false,
          "internalType": "address",
          "name": "caller",
          "type": "address"
        }
      ],
      "name": "SetBaseUri",
      "type": "event"
    },
    {
      "anonymous": false,
      "inputs": [
        {
          "indexed": true,
          "internalType": "string",
          "name": "contractUri",
          "type": "string"
        },
        {
          "indexed": false,
          "internalType": "address",
          "name": "caller",
          "type": "address"
        }
      ],
      "name": "SetContractUri",
      "type": "event"
    },
    {
      "anonymous": false,
      "inputs": [
        {
          "indexed": true,
          "internalType": "address",
          "name": "beneficiary",
          "type": "address"
        },
        {
          "indexed": false,
          "internalType": "address",
          "name": "caller",
          "type": "address"
        }
      ],
      "name": "SetReservedTokenBeneficiary",
      "type": "event"
    },
    {
      "anonymous": false,
      "inputs": [
        {
          "indexed": true,
          "internalType": "contract IJBTokenUriResolver",
          "name": "newResolver",
          "type": "address"
        },
        {
          "indexed": false,
          "internalType": "address",
          "name": "caller",
          "type": "address"
        }
      ],
      "name": "SetTokenUriResolver",
      "type": "event"
    },
    {
      "anonymous": false,
      "inputs": [
        {
          "indexed": true,
          "internalType": "address",
          "name": "from",
          "type": "address"
        },
        {
          "indexed": true,
          "internalType": "address",
          "name": "to",
          "type": "address"
        },
        {
          "indexed": true,
          "internalType": "uint256",
          "name": "tokenId",
          "type": "uint256"
        }
      ],
      "name": "Transfer",
      "type": "event"
    },
    {
      "inputs": [],
      "name": "DOMAIN_SEPARATOR",
      "outputs": [
        {
          "internalType": "bytes32",
          "name": "",
          "type": "bytes32"
        }
      ],
      "stateMutability": "view",
      "type": "function"
    },
    {
      "inputs": [
        {
          "components": [
            {
              "internalType": "uint80",
              "name": "contributionFloor",
              "type": "uint80"
            },
            {
              "internalType": "uint48",
              "name": "lockedUntil",
              "type": "uint48"
            },
            {
              "internalType": "uint48",
              "name": "remainingQuantity",
              "type": "uint48"
            },
            {
              "internalType": "uint48",
              "name": "initialQuantity",
              "type": "uint48"
            },
            {
              "internalType": "uint16",
              "name": "votingUnits",
              "type": "uint16"
            },
            {
              "internalType": "uint16",
              "name": "reservedRate",
              "type": "uint16"
            },
            {
              "internalType": "bytes32",
              "name": "tokenUri",
              "type": "bytes32"
            }
          ],
          "internalType": "struct JBNFTRewardTierData[]",
          "name": "_tierDataToAdd",
          "type": "tuple[]"
        },
        {
          "internalType": "uint256[]",
          "name": "_tierIdsToRemove",
          "type": "uint256[]"
        }
      ],
      "name": "adjustTiers",
      "outputs": [],
      "stateMutability": "nonpayable",
      "type": "function"
    },
    {
      "inputs": [
        {
          "internalType": "address",
          "name": "to",
          "type": "address"
        },
        {
          "internalType": "uint256",
          "name": "tokenId",
          "type": "uint256"
        }
      ],
      "name": "approve",
      "outputs": [],
      "stateMutability": "nonpayable",
      "type": "function"
    },
    {
      "inputs": [
        {
          "internalType": "address",
          "name": "_owner",
          "type": "address"
        }
      ],
      "name": "balanceOf",
      "outputs": [
        {
          "internalType": "uint256",
          "name": "balance",
          "type": "uint256"
        }
      ],
      "stateMutability": "view",
      "type": "function"
    },
    {
      "inputs": [
        {
          "internalType": "address",
          "name": "delegatee",
          "type": "address"
        }
      ],
      "name": "delegate",
      "outputs": [],
      "stateMutability": "nonpayable",
      "type": "function"
    },
    {
      "inputs": [
        {
          "internalType": "address",
          "name": "delegatee",
          "type": "address"
        },
        {
          "internalType": "uint256",
          "name": "nonce",
          "type": "uint256"
        },
        {
          "internalType": "uint256",
          "name": "expiry",
          "type": "uint256"
        },
        {
          "internalType": "uint8",
          "name": "v",
          "type": "uint8"
        },
        {
          "internalType": "bytes32",
          "name": "r",
          "type": "bytes32"
        },
        {
          "internalType": "bytes32",
          "name": "s",
          "type": "bytes32"
        }
      ],
      "name": "delegateBySig",
      "outputs": [],
      "stateMutability": "nonpayable",
      "type": "function"
    },
    {
      "inputs": [
        {
          "internalType": "address",
          "name": "account",
          "type": "address"
        }
      ],
      "name": "delegates",
      "outputs": [
        {
          "internalType": "address",
          "name": "",
          "type": "address"
        }
      ],
      "stateMutability": "view",
      "type": "function"
    },
    {
      "inputs": [
        {
          "components": [
            {
              "internalType": "address",
              "name": "payer",
              "type": "address"
            },
            {
              "internalType": "uint256",
              "name": "projectId",
              "type": "uint256"
            },
            {
              "internalType": "uint256",
              "name": "currentFundingCycleConfiguration",
              "type": "uint256"
            },
            {
              "components": [
                {
                  "internalType": "address",
                  "name": "token",
                  "type": "address"
                },
                {
                  "internalType": "uint256",
                  "name": "value",
                  "type": "uint256"
                },
                {
                  "internalType": "uint256",
                  "name": "decimals",
                  "type": "uint256"
                },
                {
                  "internalType": "uint256",
                  "name": "currency",
                  "type": "uint256"
                }
              ],
              "internalType": "struct JBTokenAmount",
              "name": "amount",
              "type": "tuple"
            },
            {
              "internalType": "uint256",
              "name": "projectTokenCount",
              "type": "uint256"
            },
            {
              "internalType": "address",
              "name": "beneficiary",
              "type": "address"
            },
            {
              "internalType": "bool",
              "name": "preferClaimedTokens",
              "type": "bool"
            },
            {
              "internalType": "string",
              "name": "memo",
              "type": "string"
            },
            {
              "internalType": "bytes",
              "name": "metadata",
              "type": "bytes"
            }
          ],
          "internalType": "struct JBDidPayData",
          "name": "_data",
          "type": "tuple"
        }
      ],
      "name": "didPay",
      "outputs": [],
      "stateMutability": "nonpayable",
      "type": "function"
    },
    {
      "inputs": [
        {
          "components": [
            {
              "internalType": "address",
              "name": "holder",
              "type": "address"
            },
            {
              "internalType": "uint256",
              "name": "projectId",
              "type": "uint256"
            },
            {
              "internalType": "uint256",
              "name": "currentFundingCycleConfiguration",
              "type": "uint256"
            },
            {
              "internalType": "uint256",
              "name": "projectTokenCount",
              "type": "uint256"
            },
            {
              "components": [
                {
                  "internalType": "address",
                  "name": "token",
                  "type": "address"
                },
                {
                  "internalType": "uint256",
                  "name": "value",
                  "type": "uint256"
                },
                {
                  "internalType": "uint256",
                  "name": "decimals",
                  "type": "uint256"
                },
                {
                  "internalType": "uint256",
                  "name": "currency",
                  "type": "uint256"
                }
              ],
              "internalType": "struct JBTokenAmount",
              "name": "reclaimedAmount",
              "type": "tuple"
            },
            {
              "internalType": "address payable",
              "name": "beneficiary",
              "type": "address"
            },
            {
              "internalType": "string",
              "name": "memo",
              "type": "string"
            },
            {
              "internalType": "bytes",
              "name": "metadata",
              "type": "bytes"
            }
          ],
          "internalType": "struct JBDidRedeemData",
          "name": "_data",
          "type": "tuple"
        }
      ],
      "name": "didRedeem",
      "outputs": [],
      "stateMutability": "nonpayable",
      "type": "function"
    },
    {
      "inputs": [],
      "name": "directory",
      "outputs": [
        {
          "internalType": "contract IJBDirectory",
          "name": "",
          "type": "address"
        }
      ],
      "stateMutability": "view",
      "type": "function"
    },
    {
      "inputs": [
        {
          "internalType": "uint256",
          "name": "_tokenId",
          "type": "uint256"
        }
      ],
      "name": "firstOwnerOf",
      "outputs": [
        {
          "internalType": "address",
          "name": "",
          "type": "address"
        }
      ],
      "stateMutability": "view",
      "type": "function"
    },
    {
      "inputs": [
        {
          "internalType": "uint256",
          "name": "tokenId",
          "type": "uint256"
        }
      ],
      "name": "getApproved",
      "outputs": [
        {
          "internalType": "address",
          "name": "",
          "type": "address"
        }
      ],
      "stateMutability": "view",
      "type": "function"
    },
    {
      "inputs": [
        {
          "internalType": "uint256",
          "name": "blockNumber",
          "type": "uint256"
        }
      ],
      "name": "getPastTotalSupply",
      "outputs": [
        {
          "internalType": "uint256",
          "name": "",
          "type": "uint256"
        }
      ],
      "stateMutability": "view",
      "type": "function"
    },
    {
      "inputs": [
        {
          "internalType": "address",
          "name": "account",
          "type": "address"
        },
        {
          "internalType": "uint256",
          "name": "blockNumber",
          "type": "uint256"
        }
      ],
      "name": "getPastVotes",
      "outputs": [
        {
          "internalType": "uint256",
          "name": "",
          "type": "uint256"
        }
      ],
      "stateMutability": "view",
      "type": "function"
    },
    {
      "inputs": [
        {
          "internalType": "address",
          "name": "account",
          "type": "address"
        }
      ],
      "name": "getVotes",
      "outputs": [
        {
          "internalType": "uint256",
          "name": "",
          "type": "uint256"
        }
      ],
      "stateMutability": "view",
      "type": "function"
    },
    {
      "inputs": [
        {
          "internalType": "address",
          "name": "owner",
          "type": "address"
        },
        {
          "internalType": "address",
          "name": "operator",
          "type": "address"
        }
      ],
      "name": "isApprovedForAll",
      "outputs": [
        {
          "internalType": "bool",
          "name": "",
          "type": "bool"
        }
      ],
      "stateMutability": "view",
      "type": "function"
    },
    {
      "inputs": [
        {
          "internalType": "uint256",
          "name": "_tierId",
          "type": "uint256"
        },
        {
          "internalType": "uint256",
          "name": "_count",
          "type": "uint256"
        }
      ],
      "name": "mintReservesFor",
      "outputs": [],
      "stateMutability": "nonpayable",
      "type": "function"
    },
    {
      "inputs": [],
      "name": "name",
      "outputs": [
        {
          "internalType": "string",
          "name": "",
          "type": "string"
        }
      ],
      "stateMutability": "view",
      "type": "function"
    },
    {
      "inputs": [
        {
          "internalType": "address",
          "name": "owner",
          "type": "address"
        }
      ],
      "name": "nonces",
      "outputs": [
        {
          "internalType": "uint256",
          "name": "",
          "type": "uint256"
        }
      ],
      "stateMutability": "view",
      "type": "function"
    },
    {
      "inputs": [],
      "name": "owner",
      "outputs": [
        {
          "internalType": "address",
          "name": "",
          "type": "address"
        }
      ],
      "stateMutability": "view",
      "type": "function"
    },
    {
      "inputs": [
        {
          "internalType": "uint256",
          "name": "tokenId",
          "type": "uint256"
        }
      ],
      "name": "ownerOf",
      "outputs": [
        {
          "internalType": "address",
          "name": "",
          "type": "address"
        }
      ],
      "stateMutability": "view",
      "type": "function"
    },
    {
      "inputs": [
        {
          "internalType": "address",
          "name": "_owner",
          "type": "address"
        },
        {
          "internalType": "uint256",
          "name": "_tokenId",
          "type": "uint256"
        }
      ],
      "name": "ownerTokenBalanceOf",
      "outputs": [
        {
          "internalType": "uint256",
          "name": "",
          "type": "uint256"
        }
      ],
      "stateMutability": "view",
      "type": "function"
    },
    {
      "inputs": [
        {
          "components": [
            {
              "internalType": "contract IJBPaymentTerminal",
              "name": "terminal",
              "type": "address"
            },
            {
              "internalType": "address",
              "name": "payer",
              "type": "address"
            },
            {
              "components": [
                {
                  "internalType": "address",
                  "name": "token",
                  "type": "address"
                },
                {
                  "internalType": "uint256",
                  "name": "value",
                  "type": "uint256"
                },
                {
                  "internalType": "uint256",
                  "name": "decimals",
                  "type": "uint256"
                },
                {
                  "internalType": "uint256",
                  "name": "currency",
                  "type": "uint256"
                }
              ],
              "internalType": "struct JBTokenAmount",
              "name": "amount",
              "type": "tuple"
            },
            {
              "internalType": "uint256",
              "name": "projectId",
              "type": "uint256"
            },
            {
              "internalType": "uint256",
              "name": "currentFundingCycleConfiguration",
              "type": "uint256"
            },
            {
              "internalType": "address",
              "name": "beneficiary",
              "type": "address"
            },
            {
              "internalType": "uint256",
              "name": "weight",
              "type": "uint256"
            },
            {
              "internalType": "uint256",
              "name": "reservedRate",
              "type": "uint256"
            },
            {
              "internalType": "string",
              "name": "memo",
              "type": "string"
            },
            {
              "internalType": "bytes",
              "name": "metadata",
              "type": "bytes"
            }
          ],
          "internalType": "struct JBPayParamsData",
          "name": "_data",
          "type": "tuple"
        }
      ],
      "name": "payParams",
      "outputs": [
        {
          "internalType": "uint256",
          "name": "weight",
          "type": "uint256"
        },
        {
          "internalType": "string",
          "name": "memo",
          "type": "string"
        },
        {
          "internalType": "contract IJBPayDelegate",
          "name": "delegate",
          "type": "address"
        }
      ],
      "stateMutability": "view",
      "type": "function"
    },
    {
      "inputs": [],
      "name": "projectId",
      "outputs": [
        {
          "internalType": "uint256",
          "name": "",
          "type": "uint256"
        }
      ],
      "stateMutability": "view",
      "type": "function"
    },
    {
      "inputs": [
        {
          "components": [
            {
              "internalType": "contract IJBPaymentTerminal",
              "name": "terminal",
              "type": "address"
            },
            {
              "internalType": "address",
              "name": "holder",
              "type": "address"
            },
            {
              "internalType": "uint256",
              "name": "projectId",
              "type": "uint256"
            },
            {
              "internalType": "uint256",
              "name": "currentFundingCycleConfiguration",
              "type": "uint256"
            },
            {
              "internalType": "uint256",
              "name": "tokenCount",
              "type": "uint256"
            },
            {
              "internalType": "uint256",
              "name": "totalSupply",
              "type": "uint256"
            },
            {
              "internalType": "uint256",
              "name": "overflow",
              "type": "uint256"
            },
            {
              "components": [
                {
                  "internalType": "address",
                  "name": "token",
                  "type": "address"
                },
                {
                  "internalType": "uint256",
                  "name": "value",
                  "type": "uint256"
                },
                {
                  "internalType": "uint256",
                  "name": "decimals",
                  "type": "uint256"
                },
                {
                  "internalType": "uint256",
                  "name": "currency",
                  "type": "uint256"
                }
              ],
              "internalType": "struct JBTokenAmount",
              "name": "reclaimAmount",
              "type": "tuple"
            },
            {
              "internalType": "bool",
              "name": "useTotalOverflow",
              "type": "bool"
            },
            {
              "internalType": "uint256",
              "name": "redemptionRate",
              "type": "uint256"
            },
            {
              "internalType": "uint256",
              "name": "ballotRedemptionRate",
              "type": "uint256"
            },
            {
              "internalType": "string",
              "name": "memo",
              "type": "string"
            },
            {
              "internalType": "bytes",
              "name": "metadata",
              "type": "bytes"
            }
          ],
          "internalType": "struct JBRedeemParamsData",
          "name": "_data",
          "type": "tuple"
        }
      ],
      "name": "redeemParams",
      "outputs": [
        {
          "internalType": "uint256",
          "name": "reclaimAmount",
          "type": "uint256"
        },
        {
          "internalType": "string",
          "name": "memo",
          "type": "string"
        },
        {
          "internalType": "contract IJBRedemptionDelegate",
          "name": "delegate",
          "type": "address"
        }
      ],
      "stateMutability": "view",
      "type": "function"
    },
    {
      "inputs": [],
      "name": "renounceOwnership",
      "outputs": [],
      "stateMutability": "nonpayable",
      "type": "function"
    },
    {
      "inputs": [
        {
          "internalType": "address",
          "name": "from",
          "type": "address"
        },
        {
          "internalType": "address",
          "name": "to",
          "type": "address"
        },
        {
          "internalType": "uint256",
          "name": "tokenId",
          "type": "uint256"
        }
      ],
      "name": "safeTransferFrom",
      "outputs": [],
      "stateMutability": "nonpayable",
      "type": "function"
    },
    {
      "inputs": [
        {
          "internalType": "address",
          "name": "from",
          "type": "address"
        },
        {
          "internalType": "address",
          "name": "to",
          "type": "address"
        },
        {
          "internalType": "uint256",
          "name": "tokenId",
          "type": "uint256"
        },
        {
          "internalType": "bytes",
          "name": "data",
          "type": "bytes"
        }
      ],
      "name": "safeTransferFrom",
      "outputs": [],
      "stateMutability": "nonpayable",
      "type": "function"
    },
    {
      "inputs": [
        {
          "internalType": "address",
          "name": "operator",
          "type": "address"
        },
        {
          "internalType": "bool",
          "name": "approved",
          "type": "bool"
        }
      ],
      "name": "setApprovalForAll",
      "outputs": [],
      "stateMutability": "nonpayable",
      "type": "function"
    },
    {
      "inputs": [
        {
          "internalType": "string",
          "name": "_baseUri",
          "type": "string"
        }
      ],
      "name": "setBaseUri",
      "outputs": [],
      "stateMutability": "nonpayable",
      "type": "function"
    },
    {
      "inputs": [
        {
          "internalType": "string",
          "name": "_contractUri",
          "type": "string"
        }
      ],
      "name": "setContractUri",
      "outputs": [],
      "stateMutability": "nonpayable",
      "type": "function"
    },
    {
      "inputs": [
        {
          "internalType": "address",
          "name": "_beneficiary",
          "type": "address"
        }
      ],
      "name": "setReservedTokenBeneficiary",
      "outputs": [],
      "stateMutability": "nonpayable",
      "type": "function"
    },
    {
      "inputs": [
        {
          "internalType": "contract IJBTokenUriResolver",
          "name": "_tokenUriResolver",
          "type": "address"
        }
      ],
      "name": "setTokenUriResolver",
      "outputs": [],
      "stateMutability": "nonpayable",
      "type": "function"
    },
    {
      "inputs": [],
      "name": "store",
      "outputs": [
        {
          "internalType": "contract IJBTieredLimitedNFTRewardDataSourceStore",
          "name": "",
          "type": "address"
        }
      ],
      "stateMutability": "view",
      "type": "function"
    },
    {
      "inputs": [
        {
          "internalType": "bytes4",
          "name": "_interfaceId",
          "type": "bytes4"
        }
      ],
      "name": "supportsInterface",
      "outputs": [
        {
          "internalType": "bool",
          "name": "",
          "type": "bool"
        }
      ],
      "stateMutability": "view",
      "type": "function"
    },
    {
      "inputs": [],
      "name": "symbol",
      "outputs": [
        {
          "internalType": "string",
          "name": "",
          "type": "string"
        }
      ],
      "stateMutability": "view",
      "type": "function"
    },
    {
      "inputs": [
        {
          "internalType": "uint256",
          "name": "_tokenId",
          "type": "uint256"
        }
      ],
      "name": "tokenSupplyOf",
      "outputs": [
        {
          "internalType": "uint256",
          "name": "",
          "type": "uint256"
        }
      ],
      "stateMutability": "view",
      "type": "function"
    },
    {
      "inputs": [
        {
          "internalType": "uint256",
          "name": "_tokenId",
          "type": "uint256"
        }
      ],
      "name": "tokenURI",
      "outputs": [
        {
          "internalType": "string",
          "name": "",
          "type": "string"
        }
      ],
      "stateMutability": "view",
      "type": "function"
    },
    {
      "inputs": [
        {
          "internalType": "address",
          "name": "_owner",
          "type": "address"
        }
      ],
      "name": "totalOwnerBalanceOf",
      "outputs": [
        {
          "internalType": "uint256",
          "name": "",
          "type": "uint256"
        }
      ],
      "stateMutability": "view",
      "type": "function"
    },
    {
      "inputs": [],
      "name": "totalSupply",
      "outputs": [
        {
          "internalType": "uint256",
          "name": "supply",
          "type": "uint256"
        }
      ],
      "stateMutability": "view",
      "type": "function"
    },
    {
      "inputs": [
        {
          "internalType": "address",
          "name": "from",
          "type": "address"
        },
        {
          "internalType": "address",
          "name": "to",
          "type": "address"
        },
        {
          "internalType": "uint256",
          "name": "tokenId",
          "type": "uint256"
        }
      ],
      "name": "transferFrom",
      "outputs": [],
      "stateMutability": "nonpayable",
      "type": "function"
    },
    {
      "inputs": [
        {
          "internalType": "address",
          "name": "newOwner",
          "type": "address"
        }
      ],
      "name": "transferOwnership",
      "outputs": [],
      "stateMutability": "nonpayable",
      "type": "function"
    }
  ],
  "bytecode": {
    "object": "0x6101a06040523480156200001257600080fd5b5060405162004fe738038062004fe78339810160408190526200003591620006c9565b87604051806040016040528060018152602001603160f81b8152508b8b8b8b88828281600090805190602001906200006f929190620003b5565b50805162000085906001906020840190620003b5565b505050620000a26200009c6200035f60201b60201c565b62000363565b60808590526001600160601b0319606085901b1660a0526001600160a01b03811615620000d457620000d48162000363565b505084516020958601208451948601949094206101208590526101408190524660e0819052604080517f8b73c3c69bb8fe3d512ecc4cf759cc79239f7b179b0ffacaa9a75d522b39400f818a018190528183019890985260608181019490945260808101929092523060a08084018290528251808503909101815260c093840190925281519190980120905294851b610100525050506101605281901b6001600160601b03191661018052855115620001ea576040516331315e5960e11b81526001600160a01b03821690636262bcb290620001b5908990600401620008bf565b600060405180830381600087803b158015620001d057600080fd5b505af1158015620001e5573d6000803e3d6000fd5b505050505b835115620002555760405163d67b78fd60e01b81526001600160a01b0382169063d67b78fd9062000220908790600401620008bf565b600060405180830381600087803b1580156200023b57600080fd5b505af115801562000250573d6000803e3d6000fd5b505050505b6001600160a01b03851615620002c35760405163036129cb60e61b81526001600160a01b03868116600483015282169063d84a72c090602401600060405180830381600087803b158015620002a957600080fd5b505af1158015620002be573d6000803e3d6000fd5b505050505b60405163399716e560e11b81526001600160a01b0382169063732e2dca90620002f490859060019060040162000801565b600060405180830381600087803b1580156200030f57600080fd5b505af115801562000324573d6000803e3d6000fd5b505050506040513d6000823e601f3d908101601f191682016040526200034e919081019062000629565b5050505050505050505050620009fe565b3390565b600580546001600160a01b038381166001600160a01b0319831681179093556040519116919082907f8be0079c531659141344cd1fd0a4f28419497f9722a3daafe3b4186f6b6457e090600090a35050565b828054620003c390620009ab565b90600052602060002090601f016020900481019282620003e7576000855562000432565b82601f106200040257805160ff191683800117855562000432565b8280016001018555821562000432579182015b828111156200043257825182559160200191906001019062000415565b506200044092915062000444565b5090565b5b8082111562000440576000815560010162000445565b80516001600160a01b03811681146200047357600080fd5b919050565b600082601f8301126200048a57600080fd5b81516020620004a36200049d8362000952565b6200091f565b8281528181019085830160e080860288018501891015620004c357600080fd5b60005b868110156200057d5781838b031215620004df57600080fd5b620004e9620008f4565b83516001600160501b03811681146200050157600080fd5b81526200051084880162000612565b8782015260406200052381860162000612565b9082015260606200053685820162000612565b90820152608062000549858201620005ff565b9082015260a06200055c858201620005ff565b9082015260c0848101519082015285529385019391810191600101620004c6565b509198975050505050505050565b600082601f8301126200059d57600080fd5b81516001600160401b03811115620005b957620005b9620009e8565b620005ce601f8201601f19166020016200091f565b818152846020838601011115620005e457600080fd5b620005f782602083016020870162000978565b949350505050565b805161ffff811681146200047357600080fd5b805165ffffffffffff811681146200047357600080fd5b600060208083850312156200063d57600080fd5b82516001600160401b038111156200065457600080fd5b8301601f810185136200066657600080fd5b8051620006776200049d8262000952565b80828252848201915084840188868560051b87010111156200069857600080fd5b600094505b83851015620006bd5780518352600194909401939185019185016200069d565b50979650505050505050565b6000806000806000806000806000806101408b8d031215620006ea57600080fd5b8a519950620006fc60208c016200045b565b60408c01519099506001600160401b03808211156200071a57600080fd5b620007288e838f016200058b565b995060608d01519150808211156200073f57600080fd5b6200074d8e838f016200058b565b985060808d01519150808211156200076457600080fd5b620007728e838f016200058b565b97506200078260a08e016200045b565b965060c08d01519150808211156200079957600080fd5b620007a78e838f016200058b565b9550620007b760e08e016200045b565b94506101008d0151915080821115620007cf57600080fd5b50620007de8d828e0162000478565b925050620007f06101208c016200045b565b90509295989b9194979a5092959850565b6040808252835182820181905260009190606090818501906020808901865b83811015620008a057815180516001600160501b031686528381015165ffffffffffff908116858801528882015181168988015287820151168787015260808082015161ffff169087015260a080820151620008818289018261ffff169052565b505060c0908101519086015260e0909401939082019060010162000820565b5050829550620008b38188018915159052565b50505050509392505050565b6020815260008251806020840152620008e081604085016020870162000978565b601f01601f19169190910160400192915050565b60405160e081016001600160401b0381118282101715620009195762000919620009e8565b60405290565b604051601f8201601f191681016001600160401b03811182821017156200094a576200094a620009e8565b604052919050565b60006001600160401b038211156200096e576200096e620009e8565b5060051b60200190565b60005b83811015620009955781810151838201526020016200097b565b83811115620009a5576000848401525b50505050565b600181811c90821680620009c057607f821691505b60208210811415620009e257634e487b7160e01b600052602260045260246000fd5b50919050565b634e487b7160e01b600052604160045260246000fd5b60805160a05160601c60c05160e0516101005160601c6101205161014051610160516101805160601c6144ab62000b3c600039600081816104a3015281816107b301528181610a4e01528181610c5f01528181610d8e01528181610ea701528181610fc201528181611322015281816113f9015281816114a6015281816117450152818161188d0152818161192701528181611a1a01528181611bfc0152818161242a015281816124790152818161288c0152818161294f015281816129c601528181612a9601528181612c140152612d53015260006121a0015260006121ef015260006121ca015260006121230152600061214d0152600061217701526000818161054f015281816108a80152610b270152600081816103750152818161087c0152818161093301528181610afb0152610bb201526144ab6000f3fe608060405234801561001057600080fd5b506004361061025e5760003560e01c80637ecebe0011610146578063aa4fb15b116100c3578063ccb4807b11610087578063ccb4807b14610584578063d46cf17114610597578063dcdfe0d9146105aa578063e985e9c5146105bd578063f2fde38b146105f9578063fa28c7f51461060c57600080fd5b8063aa4fb15b14610511578063b88d4fde14610524578063c3cda52014610537578063c41c2f241461054a578063c87b56dd1461057157600080fd5b8063975057e71161010a578063975057e71461049e5780639ab24eb0146104c55780639b04139f146104d8578063a0bcfc7f146104eb578063a22cb465146104fe57600080fd5b80637ecebe001461043d5780638da5cb5b146104505780638dfc9598146104615780638e539e8c1461048357806395d89b411461049657600080fd5b80633644e515116101df57806354c6d1f5116101a357806354c6d1f5146103bd578063587cde1e146103d05780635c19a95c146103fc5780636352211e1461040f57806370a0823114610422578063715018a61461043557600080fd5b80633644e515146103555780633a46b1a81461035d5780633fafa1271461037057806342012e8a1461039757806342842e0e146103aa57600080fd5b806318160ddd1161022657806318160ddd1461030157806323b872dd146103095780632400e8f71461031c5780632407497e1461032f578063304b1eea1461034257600080fd5b806301ffc9a71461026357806306fdde031461028b578063081812fc146102a0578063095ea7b3146102cb5780630c4ace18146102e0575b600080fd5b610276610271366004613ac2565b61061f565b60405190151581526020015b60405180910390f35b61029361064a565b6040516102829190614089565b6102b36102ae366004613dd5565b6106dc565b6040516001600160a01b039091168152602001610282565b6102de6102d9366004613754565b610703565b005b6102f36102ee3660046135f3565b610790565b604051908152602001610282565b6102f361079b565b6102de610317366004613666565b61083b565b6102de61032a366004613c66565b61086d565b6102de61033d3660046135f3565b610a27565b6102de610350366004613c2b565b610aec565b6102f3610c03565b6102f361036b366004613754565b610c0d565b6102f37f000000000000000000000000000000000000000000000000000000000000000081565b6102de6103a53660046137da565b610c36565b6102de6103b8366004613666565b610e63565b6102b36103cb366004613dd5565b610e7e565b6102b36103de3660046135f3565b6001600160a01b039081166000908152600660205260409020541690565b6102de61040a3660046135f3565b610f55565b6102b361041d366004613dd5565b610f64565b6102f36104303660046135f3565b610f9a565b6102de61103f565b6102f361044b3660046135f3565b611053565b6005546001600160a01b03166102b3565b61047461046f366004613d9a565b611071565b6040516102829392919061414b565b6102f3610491366004613dd5565b61123b565b61029361129c565b6102b37f000000000000000000000000000000000000000000000000000000000000000081565b6102f36104d33660046135f3565b6112ab565b6102f36104e6366004613754565b6112cc565b6102de6104f9366004613b6d565b611303565b6102de61050c366004613726565b6113ce565b6102de61051f366004613e07565b6113d9565b6102de6105323660046136a7565b61159d565b6102de610545366004613780565b6115d6565b6102b37f000000000000000000000000000000000000000000000000000000000000000081565b61029361057f366004613dd5565b6116fa565b6102de610592366004613afc565b6119fb565b6104746105a5366004613d5f565b611ad1565b6102f36105b8366004613dd5565b611b31565b6102766105cb36600461362d565b6001600160a01b03918216600090815260046020908152604080832093909416825291909152205460ff1690565b6102de6106073660046135f3565b611b5f565b6102de61061a3660046135f3565b611bd5565b60006001600160e01b031982166368f86f1b60e11b1480610644575061064482611c93565b92915050565b6060600080546106599061435d565b80601f01602080910402602001604051908101604052809291908181526020018280546106859061435d565b80156106d25780601f106106a7576101008083540402835291602001916106d2565b820191906000526020600020905b8154815290600101906020018083116106b557829003601f168201915b5050505050905090565b60006106e782611d09565b506000908152600360205260409020546001600160a01b031690565b600061070e82610f64565b9050806001600160a01b0316836001600160a01b031614156107435760405163133f8be960e01b815260040160405180910390fd5b336001600160a01b03821614801590610763575061076181336105cb565b155b156107815760405163e5fa0e3560e01b815260040160405180910390fd5b61078b8383611d3e565b505050565b600061064482610f9a565b6040516339370aa960e21b81523060048201526000907f00000000000000000000000000000000000000000000000000000000000000006001600160a01b03169063e4dc2aa4906024015b60206040518083038186803b1580156107fe57600080fd5b505afa158015610812573d6000803e3d6000fd5b505050506040513d601f19601f820116820180604052508101906108369190613dee565b905090565b6108453382611dac565b6108625760405163e5fa0e3560e01b815260040160405180910390fd5b61078b838383611e2b565b604051636e49181f60e01b81527f000000000000000000000000000000000000000000000000000000000000000060048201523360248201527f00000000000000000000000000000000000000000000000000000000000000006001600160a01b031690636e49181f9060440160206040518083038186803b1580156108f257600080fd5b505afa158015610906573d6000803e3d6000fd5b505050506040513d601f19601f8201168201806040525081019061092a91906139b2565b158061095a57507f0000000000000000000000000000000000000000000000000000000000000000816020013514155b1561097857604051633efca5c360e11b815260040160405180910390fd5b600061098861014083018361417c565b81019061099591906138a1565b80519091506000805b82811015610a20578381815181106109b8576109b86143d4565b602002602001015191508460000160208101906109d591906135f3565b6000838152600260205260409020546001600160a01b03908116911614610a0f5760405163075fd2b160e01b815260040160405180910390fd5b610a1882611f04565b60010161099e565b5050505050565b610a2f611f85565b60405163036129cb60e61b81526001600160a01b0382811660048301527f0000000000000000000000000000000000000000000000000000000000000000169063d84a72c090602401600060405180830381600087803b158015610a9257600080fd5b505af1158015610aa6573d6000803e3d6000fd5b50506040513381526001600160a01b03841692507fe7784d93cfbfa4408e19577e6cc0436f4dbb51214b70e100905dfce9def88c1691506020015b60405180910390a250565b604051636e49181f60e01b81527f000000000000000000000000000000000000000000000000000000000000000060048201523360248201527f00000000000000000000000000000000000000000000000000000000000000006001600160a01b031690636e49181f9060440160206040518083038186803b158015610b7157600080fd5b505afa158015610b85573d6000803e3d6000fd5b505050506040513d601f19601f82011682018060405250810190610ba991906139b2565b1580610bd957507f0000000000000000000000000000000000000000000000000000000000000000816020013514155b15610bf7576040516331c57b1b60e21b815260040160405180910390fd5b610c0081611fdf565b50565b6000610836612116565b6001600160a01b0382166000908152600760205260408120610c2f908361223d565b9392505050565b610c3e611f85565b828015610d705760405163399716e560e11b81526000906001600160a01b037f0000000000000000000000000000000000000000000000000000000000000000169063732e2dca90610c9890899089908690600401613fd0565b600060405180830381600087803b158015610cb257600080fd5b505af1158015610cc6573d6000803e3d6000fd5b505050506040513d6000823e601f3d908101601f19168201604052610cee9190810190613938565b905060005b82811015610d6d57818181518110610d0d57610d0d6143d4565b60200260200101517f164c8d909d91efa7de5ec3faed46c54567500654902357d6398a97eaf0f00a5a888884818110610d4857610d486143d4565b905060e0020133604051610d5d9291906140be565b60405180910390a2600101610cf3565b50505b818015610e5b576040516320512ba160e01b81526001600160a01b037f000000000000000000000000000000000000000000000000000000000000000016906320512ba190610dc5908790879060040161401e565b600060405180830381600087803b158015610ddf57600080fd5b505af1158015610df3573d6000803e3d6000fd5b5050505060005b81811015610e5957848482818110610e1457610e146143d4565b60405133815260209182029390930135927f832d89d991be5351d793c20faf4b7dd44f8aa9ce39e3cb160c6317de6fbba72992500160405180910390a2600101610dfa565b505b505050505050565b61078b8383836040518060200160405280600081525061159d565b6040516308ed6c0160e41b81523060048201526024810182905260009081906001600160a01b037f00000000000000000000000000000000000000000000000000000000000000001690638ed6c0109060440160206040518083038186803b158015610ee957600080fd5b505afa158015610efd573d6000803e3d6000fd5b505050506040513d601f19601f82011682018060405250810190610f219190613610565b90506001600160a01b03811615610f385792915050565b50506000908152600260205260409020546001600160a01b031690565b33610f60818361234c565b5050565b6000818152600260205260408120546001600160a01b0316806106445760405163b49aa3b560e01b815260040160405180910390fd5b604051633de222bb60e21b81523060048201526001600160a01b0382811660248301526000917f00000000000000000000000000000000000000000000000000000000000000009091169063f7888aec906044015b60206040518083038186803b15801561100757600080fd5b505afa15801561101b573d6000803e3d6000fd5b505050506040513d601f19601f820116820180604052508101906106449190613dee565b611047611f85565b61105160006123be565b565b6001600160a01b038116600090815260096020526040812054610644565b600060608160808401351561109957604051637b52876960e01b815260040160405180910390fd5b6101808401356110fb5760006110b36101c086018661417c565b3082828080601f016020809104026020016040519081016040528093929190818152602001838380828437600092019190915250969950919750919550611234945050505050565b600061112061110e6101e087018761417c565b81019061111b91906138a1565b612410565b9050600061112c612461565b9050600061113f8760c0013584846124b0565b905061271087610180013514156111aa578061115f6101c089018961417c565b3082828080601f016020809104026020016040519081016040528093929190818152602001838380828437600092019190915250969c50919a50919850611234975050505050505050565b6111e0816111c9856111c36101808c01356127106142ea565b866124b0565b6111d8906101808b01356142b0565b6127106124b0565b6111ee6101c089018961417c565b3082828080601f016020809104026020016040519081016040528093929190818152602001838380828437600092019190915250969c50919a5091985050505050505050505b9193909250565b60004382106112915760405162461bcd60e51b815260206004820152601a60248201527f566f7465733a20626c6f636b206e6f7420796574206d696e656400000000000060448201526064015b60405180910390fd5b61064460088361223d565b6060600180546106599061435d565b6001600160a01b03811660009081526007602052604081206106449061257d565b6000826001600160a01b03166112e183610f64565b6001600160a01b0316146112f65760006112f9565b60015b60ff169392505050565b61130b611f85565b6040516331315e5960e11b81526001600160a01b037f00000000000000000000000000000000000000000000000000000000000000001690636262bcb290611357908490600401614089565b600060405180830381600087803b15801561137157600080fd5b505af1158015611385573d6000803e3d6000fd5b50505050806040516113979190613f2e565b604051908190038120338252907f7bc9110d5de090dd59e07912d2b93a5a27ac70a60c8d8e324db4f9ee8b8b5c1390602001610ae1565b610f603383836125d9565b604051635d53f40760e11b815260048101839052602481018290526000907f00000000000000000000000000000000000000000000000000000000000000006001600160a01b03169063baa7e80e90604401600060405180830381600087803b15801561144557600080fd5b505af1158015611459573d6000803e3d6000fd5b505050506040513d6000823e601f3d908101601f191682016040526114819190810190613938565b604051630660da7960e11b815230600482015290915060009081906001600160a01b037f00000000000000000000000000000000000000000000000000000000000000001690630cc1b4f29060240160206040518083038186803b1580156114e857600080fd5b505afa1580156114fc573d6000803e3d6000fd5b505050506040513d601f19601f820116820180604052508101906115209190613610565b905060005b84811015610e5b5783818151811061153f5761153f6143d4565b602002602001015192506115538284612679565b6040513381526001600160a01b03831690879085907f031e1988c95a91ec4d655ff63a8f87a80bc9daf28d95ae10ee08c0022cfb5c8b9060200160405180910390a4600101611525565b6115a73383611dac565b6115c45760405163e5fa0e3560e01b815260040160405180910390fd5b6115d084848484612743565b50505050565b834211156116265760405162461bcd60e51b815260206004820152601860248201527f566f7465733a207369676e6174757265206578706972656400000000000000006044820152606401611288565b604080517fe48329057bfd03d55e49b547132e39cffd9c1820ad7b9d4c5307691425d15adf60208201526001600160a01b0388169181019190915260608101869052608081018590526000906116a0906116989060a00160405160208183030381529060405280519060200120612777565b8585856127c5565b90506116ab816127ed565b86146116f05760405162461bcd60e51b8152602060048201526014602482015273566f7465733a20696e76616c6964206e6f6e636560601b6044820152606401611288565b610e59818861234c565b6000818152600260205260409020546060906001600160a01b031661172d57505060408051602081019091526000815290565b604051630fab094760e01b81523060048201526000907f00000000000000000000000000000000000000000000000000000000000000006001600160a01b031690630fab09479060240160206040518083038186803b15801561178f57600080fd5b505afa1580156117a3573d6000803e3d6000fd5b505050506040513d601f19601f820116820180604052508101906117c79190613610565b90506001600160a01b0381161561185457604051636d02a25560e11b8152600481018490526001600160a01b0382169063da0544aa9060240160006040518083038186803b15801561181857600080fd5b505afa15801561182c573d6000803e3d6000fd5b505050506040513d6000823e601f3d908101601f19168201604052610c2f9190810190613bb5565b60405163f682eeaf60e01b815230600482015273__$2e464bbf4a8803569df10b07372aceee57$__9063030cecc7906001600160a01b037f0000000000000000000000000000000000000000000000000000000000000000169063f682eeaf9060240160006040518083038186803b1580156118cf57600080fd5b505afa1580156118e3573d6000803e3d6000fd5b505050506040513d6000823e601f3d908101601f1916820160405261190b9190810190613bb5565b604051633a39e4d160e11b8152306004820152602481018790527f00000000000000000000000000000000000000000000000000000000000000006001600160a01b031690637473c9a2906044016101006040518083038186803b15801561197257600080fd5b505afa158015611986573d6000803e3d6000fd5b505050506040513d601f19601f820116820180604052508101906119aa9190613ca1565b6020015160c001516040518363ffffffff1660e01b81526004016119cf92919061409c565b60006040518083038186803b1580156119e757600080fd5b505af415801561182c573d6000803e3d6000fd5b611a03611f85565b60405163d67b78fd60e01b81526001600160a01b037f0000000000000000000000000000000000000000000000000000000000000000169063d67b78fd90611a51908590859060040161405a565b600060405180830381600087803b158015611a6b57600080fd5b505af1158015611a7f573d6000803e3d6000fd5b505050508181604051611a93929190613f1e565b604051908190038120338252907fd36dc0c1a06103fdcaf15f3f6fb797d1a97997514c78de073640c8b5005454b89060200160405180910390a25050565b6000606081610120840135611aea61016086018661417c565b3082828080601f016020809104026020016040519081016040528093929190818152602001838380828437600092019190915250969b929a50929850909650505050505050565b600080611b3d83610f64565b6001600160a01b03161415611b53576000611b56565b60015b60ff1692915050565b611b67611f85565b6001600160a01b038116611bcc5760405162461bcd60e51b815260206004820152602660248201527f4f776e61626c653a206e6577206f776e657220697320746865207a65726f206160448201526564647265737360d01b6064820152608401611288565b610c00816123be565b611bdd611f85565b60405163103fdbc960e01b81526001600160a01b0382811660048301527f0000000000000000000000000000000000000000000000000000000000000000169063103fdbc990602401600060405180830381600087803b158015611c4057600080fd5b505af1158015611c54573d6000803e3d6000fd5b50506040513381526001600160a01b03841692507f03cea1b7696d8d5856261834c91e26b430eda5aa7b03a565d2be663df2a0a0469150602001610ae1565b60006001600160e01b0319821663b3bcbb7960e01b1480611cc457506001600160e01b0319821663599064e960e01b145b80611cdf57506001600160e01b031982166318258f7560e11b145b80611cfa57506001600160e01b03198216632400e8f760e01b145b80610644575061064482612815565b6000818152600260205260409020546001600160a01b0316610c005760405163b49aa3b560e01b815260040160405180910390fd5b600081815260036020526040902080546001600160a01b0319166001600160a01b0384169081179091558190611d7382610f64565b6001600160a01b03167f8c5be1e5ebec7d5bd14f71427d1e84f3dd0314c0f7b2291e5b200ac8c7c3b92560405160405180910390a45050565b600080611db883610f64565b9050806001600160a01b0316846001600160a01b03161480611dff57506001600160a01b0380821660009081526004602090815260408083209388168352929052205460ff165b80611e235750836001600160a01b0316611e18846106dc565b6001600160a01b0316145b949350505050565b826001600160a01b0316611e3e82610f64565b6001600160a01b031614611e655760405163a195bc5360e01b815260040160405180910390fd5b6001600160a01b038216611e8c57604051632c95542760e01b815260040160405180910390fd5b611e97838383612865565b611ea2600082611d3e565b60008181526002602052604080822080546001600160a01b0319166001600160a01b0386811691821790925591518493918716917fddf252ad1be2c89b69c2b068fc378daa952ba7f163c4a11628f55a4df523b3ef91a461078b8383836129a7565b6000611f0f82610f64565b9050611f1d81600084612865565b611f28600083611d3e565b60008281526002602052604080822080546001600160a01b0319169055518391906001600160a01b038416907fddf252ad1be2c89b69c2b068fc378daa952ba7f163c4a11628f55a4df523b3ef908390a4610f60816000846129a7565b6005546001600160a01b031633146110515760405162461bcd60e51b815260206004820181905260248201527f4f776e61626c653a2063616c6c6572206973206e6f7420746865206f776e65726044820152606401611288565b61eeee611ff260808301606084016135f3565b6001600160a01b0316146120035750565b6080810135600080602461201b61016086018661417c565b905011801561205f575063b3bcbb7960e01b61203b61016086018661417c565b61204a91602491602091614286565b61205391614301565b6001600160e01b031916145b156120c7576000606061207661016087018761417c565b81019061208391906139cf565b91985096509094509250508215905061209e57505050505050565b8051156120c4576120c185826120bc6101208a016101008b016135f3565b612a7a565b94505b50505b82156120ec576120e9836120e3610120870161010088016135f3565b84612bdf565b92505b8080156120f857508215155b156115d057604051631b57826960e21b815260040160405180910390fd5b6000306001600160a01b037f00000000000000000000000000000000000000000000000000000000000000001614801561216f57507f000000000000000000000000000000000000000000000000000000000000000046145b1561219957507f000000000000000000000000000000000000000000000000000000000000000090565b50604080517f00000000000000000000000000000000000000000000000000000000000000006020808301919091527f0000000000000000000000000000000000000000000000000000000000000000828401527f000000000000000000000000000000000000000000000000000000000000000060608301524660808301523060a0808401919091528351808403909101815260c0909201909252805191012090565b600043821061228e5760405162461bcd60e51b815260206004820181905260248201527f436865636b706f696e74733a20626c6f636b206e6f7420796574206d696e65646044820152606401611288565b825460005b818110156122f35760006122a78284612d10565b9050848660000182815481106122bf576122bf6143d4565b60009182526020909120015463ffffffff1611156122df578092506122ed565b6122ea8160016142b0565b91505b50612293565b811561233757846123056001846142ea565b81548110612315576123156143d4565b60009182526020909120015464010000000090046001600160e01b031661233a565b60005b6001600160e01b031695945050505050565b6001600160a01b0382811660008181526006602052604080822080548686166001600160a01b0319821681179092559151919094169392849290917f3134e8a2e6d97e929a7e54011ea5485d7d196dd5f0ba4d4ef95803e8e3fc257f9190a461078b81836123b986612d2b565b612d84565b600580546001600160a01b038381166001600160a01b0319831681179093556040519116919082907f8be0079c531659141344cd1fd0a4f28419497f9722a3daafe3b4186f6b6457e090600090a35050565b60405163051330b560e21b81526000906001600160a01b037f0000000000000000000000000000000000000000000000000000000000000000169063144cc2d490610fef9030908690600401613f87565b604051631572f24960e11b81523060048201526000907f00000000000000000000000000000000000000000000000000000000000000006001600160a01b031690632ae5e492906024016107e6565b6000808060001985870985870292508281108382030391505080600014156124eb578382816124e1576124e16143a8565b0492505050610c2f565b83811061251557604051631dcf306360e21b81526004810182905260248101859052604401611288565b600084868809600260036001881981018916988990049182028318808302840302808302840302808302840302808302840302808302840302918202909203026000889003889004909101858311909403939093029303949094049190911702949350505050565b805460009080156125c657826125946001836142ea565b815481106125a4576125a46143d4565b60009182526020909120015464010000000090046001600160e01b03166125c9565b60005b6001600160e01b03169392505050565b816001600160a01b0316836001600160a01b0316141561260c576040516306f8139d60e11b815260040160405180910390fd5b6001600160a01b03838116600081815260046020908152604080832094871680845294825291829020805460ff191686151590811790915591519182527f17307eab39ab6107e8899845ad3d59bd9653f200f220920489ca2b5937696c31910160405180910390a3505050565b6001600160a01b0382166126a057604051633904578f60e11b815260040160405180910390fd5b6000818152600260205260409020546001600160a01b0316156126d657604051632eb5f0c360e21b815260040160405180910390fd5b6126e260008383612865565b60008181526002602052604080822080546001600160a01b0319166001600160a01b03861690811790915590518392907fddf252ad1be2c89b69c2b068fc378daa952ba7f163c4a11628f55a4df523b3ef908290a4610f60600083836129a7565b61274e848484611e2b565b61275a84848484612ec1565b6115d0576040516336f57c1b60e11b815260040160405180910390fd5b6000610644612784612116565b8360405161190160f01b6020820152602281018390526042810182905260009060620160405160208183030381529060405280519060200120905092915050565b60008060006127d687878787612fcc565b915091506127e3816130b9565b5095945050505050565b6001600160a01b03811660009081526009602052604090208054600181018255905b50919050565b60006001600160e01b031982166380ac58cd60e01b148061284657506001600160e01b03198216635b5e139f60e01b145b8061064457506301ffc9a760e01b6001600160e01b0319831614610644565b6040516308ed6c0160e41b8152306004820152602481018290526000906001600160a01b037f00000000000000000000000000000000000000000000000000000000000000001690638ed6c0109060440160206040518083038186803b1580156128ce57600080fd5b505afa1580156128e2573d6000803e3d6000fd5b505050506040513d601f19601f820116820180604052508101906129069190613610565b6001600160a01b031614801561292457506001600160a01b03831615155b1561078b57604051638cec7d3960e01b8152600481018290526001600160a01b0384811660248301527f00000000000000000000000000000000000000000000000000000000000000001690638cec7d3990604401600060405180830381600087803b15801561299357600080fd5b505af1158015610e59573d6000803e3d6000fd5b60405163b67cb04760e01b8152306004820152602481018290526000907f00000000000000000000000000000000000000000000000000000000000000006001600160a01b03169063b67cb047906044016101006040518083038186803b158015612a1157600080fd5b505afa158015612a25573d6000803e3d6000fd5b505050506040513d601f19601f82011682018060405250810190612a499190613ca1565b60208101516080015190915061ffff1615612a7557612a75848483602001516080015161ffff16613274565b6115d0565b604051630b2a2e8560e11b815283906060906001600160a01b037f000000000000000000000000000000000000000000000000000000000000000016906316545d0a90612acf908590889088906004016140e5565b600060405180830381600087803b158015612ae957600080fd5b505af1158015612afd573d6000803e3d6000fd5b505050506040513d6000823e601f3d908101601f19168201604052612b25919081019061396c565b81519093509091506000805b82811015612bd457838181518110612b4b57612b4b6143d4565b60200260200101519150612b5f8683612679565b856001600160a01b0316878281518110612b7b57612b7b6143d4565b602090810291909101810151604080518c8152928301879052339083015260ff169084907fe1f4f07fba2f97b5763d2bcafd46bf61f28491b066928954b0b817ce06ff1e9e9060600160405180910390a4600101612b31565b505050509392505050565b60405163d16cbf9360e01b8152600481018490526001600160a01b0383811660248301528215156044830152600091829182917f00000000000000000000000000000000000000000000000000000000000000009091169063d16cbf9390606401606060405180830381600087803b158015612c5a57600080fd5b505af1158015612c6e573d6000803e3d6000fd5b505050506040513d601f19601f82011682018060405250810190612c929190613e29565b9450909250905081612ca8578592505050610c2f565b612cb28583612679565b6001600160a01b03851681837fe1f4f07fba2f97b5763d2bcafd46bf61f28491b066928954b0b817ce06ff1e9e612ce9878b6142ea565b6040805191825260006020830152339082015260600160405180910390a450509392505050565b6000612d1f60028484186142c8565b610c2f908484166142b0565b604051631266aaaf60e31b81523060048201526001600160a01b0382811660248301526000917f000000000000000000000000000000000000000000000000000000000000000090911690639335557890604401610fef565b816001600160a01b0316836001600160a01b031614158015612da65750600081115b1561078b576001600160a01b03831615612e34576001600160a01b03831660009081526007602052604081208190612de1906132e4856132f0565b91509150846001600160a01b03167fdec2bacdd2f05b59de34da9b523dff8be42e5e38e818c82fdb0bae774387a7248383604051612e29929190918252602082015260400190565b60405180910390a250505b6001600160a01b0382161561078b576001600160a01b03821660009081526007602052604081208190612e6a9061331e856132f0565b91509150836001600160a01b03167fdec2bacdd2f05b59de34da9b523dff8be42e5e38e818c82fdb0bae774387a7248383604051612eb2929190918252602082015260400190565b60405180910390a25050505050565b60006001600160a01b0384163b15612fc457604051630a85bd0160e11b81526001600160a01b0385169063150b7a0290612f05903390899088908890600401613f4a565b602060405180830381600087803b158015612f1f57600080fd5b505af1925050508015612f4f575060408051601f3d908101601f19168201909252612f4c91810190613adf565b60015b612faa573d808015612f7d576040519150601f19603f3d011682016040523d82523d6000602084013e612f82565b606091505b508051612fa2576040516336f57c1b60e11b815260040160405180910390fd5b805181602001fd5b6001600160e01b031916630a85bd0160e11b149050611e23565b506001611e23565b6000807f7fffffffffffffffffffffffffffffff5d576e7357a4501ddfe92f46681b20a083111561300357506000905060036130b0565b8460ff16601b1415801561301b57508460ff16601c14155b1561302c57506000905060046130b0565b6040805160008082526020820180845289905260ff881692820192909252606081018690526080810185905260019060a0016020604051602081039080840390855afa158015613080573d6000803e3d6000fd5b5050604051601f1901519150506001600160a01b0381166130a9576000600192509250506130b0565b9150600090505b94509492505050565b60008160048111156130cd576130cd6143be565b14156130d65750565b60018160048111156130ea576130ea6143be565b14156131385760405162461bcd60e51b815260206004820152601860248201527f45434453413a20696e76616c6964207369676e617475726500000000000000006044820152606401611288565b600281600481111561314c5761314c6143be565b141561319a5760405162461bcd60e51b815260206004820152601f60248201527f45434453413a20696e76616c6964207369676e6174757265206c656e677468006044820152606401611288565b60038160048111156131ae576131ae6143be565b14156132075760405162461bcd60e51b815260206004820152602260248201527f45434453413a20696e76616c6964207369676e6174757265202773272076616c604482015261756560f01b6064820152608401611288565b600481600481111561321b5761321b6143be565b1415610c005760405162461bcd60e51b815260206004820152602260248201527f45434453413a20696e76616c6964207369676e6174757265202776272076616c604482015261756560f01b6064820152608401611288565b6001600160a01b03831661329357613290600861331e836132f0565b50505b6001600160a01b0382166132b2576132af60086132e4836132f0565b50505b6001600160a01b0383811660009081526006602052604080822054858416835291205461078b92918216911683612d84565b6000610c2f82846142ea565b6000806133128561330d6133038861257d565b868863ffffffff16565b61332a565b91509150935093915050565b6000610c2f82846142b0565b815460009081908161333b8661257d565b9050600082118015613379575043866133556001856142ea565b81548110613365576133656143d4565b60009182526020909120015463ffffffff16145b156133d95761338785613455565b866133936001856142ea565b815481106133a3576133a36143d4565b9060005260206000200160000160046101000a8154816001600160e01b0302191690836001600160e01b03160217905550613447565b8560000160405180604001604052806133f1436134c2565b63ffffffff16815260200161340588613455565b6001600160e01b0390811690915282546001810184556000938452602093849020835194909301519091166401000000000263ffffffff909316929092179101555b9250839150505b9250929050565b60006001600160e01b038211156134be5760405162461bcd60e51b815260206004820152602760248201527f53616665436173743a2076616c756520646f65736e27742066697420696e20326044820152663234206269747360c81b6064820152608401611288565b5090565b600063ffffffff8211156134be5760405162461bcd60e51b815260206004820152602660248201527f53616665436173743a2076616c756520646f65736e27742066697420696e203360448201526532206269747360d01b6064820152608401611288565b600061353a6135358461425f565b61420c565b905082815283838301111561354e57600080fd5b828260208301376000602084830101529392505050565b600082601f83011261357657600080fd5b815160206135866135358361423c565b80838252828201915082860187848660051b89010111156135a657600080fd5b60005b858110156135c5578151845292840192908401906001016135a9565b5090979650505050505050565b80516135dd81614439565b919050565b803560ff811681146135dd57600080fd5b60006020828403121561360557600080fd5b8135610c2f81614400565b60006020828403121561362257600080fd5b8151610c2f81614400565b6000806040838503121561364057600080fd5b823561364b81614400565b9150602083013561365b81614400565b809150509250929050565b60008060006060848603121561367b57600080fd5b833561368681614400565b9250602084013561369681614400565b929592945050506040919091013590565b600080600080608085870312156136bd57600080fd5b84356136c881614400565b935060208501356136d881614400565b92506040850135915060608501356001600160401b038111156136fa57600080fd5b8501601f8101871361370b57600080fd5b61371a87823560208401613527565b91505092959194509250565b6000806040838503121561373957600080fd5b823561374481614400565b9150602083013561365b81614415565b6000806040838503121561376757600080fd5b823561377281614400565b946020939093013593505050565b60008060008060008060c0878903121561379957600080fd5b86356137a481614400565b955060208701359450604087013593506137c0606088016135e2565b92506080870135915060a087013590509295509295509295565b600080600080604085870312156137f057600080fd5b84356001600160401b038082111561380757600080fd5b818701915087601f83011261381b57600080fd5b81358181111561382a57600080fd5b88602060e08302850101111561383f57600080fd5b60209283019650945090860135908082111561385a57600080fd5b818701915087601f83011261386e57600080fd5b81358181111561387d57600080fd5b8860208260051b850101111561389257600080fd5b95989497505060200194505050565b600060208083850312156138b457600080fd5b82356001600160401b038111156138ca57600080fd5b8301601f810185136138db57600080fd5b80356138e96135358261423c565b80828252848201915084840188868560051b870101111561390957600080fd5b600094505b8385101561392c57803583526001949094019391850191850161390e565b50979650505050505050565b60006020828403121561394a57600080fd5b81516001600160401b0381111561396057600080fd5b611e2384828501613565565b6000806040838503121561397f57600080fd5b82516001600160401b0381111561399557600080fd5b6139a185828601613565565b925050602083015190509250929050565b6000602082840312156139c457600080fd5b8151610c2f81614415565b60008060008060008060c087890312156139e857600080fd5b863595506020808801356139fb81614423565b95506040880135613a0b81614415565b94506060880135613a1b81614415565b93506080880135613a2b81614415565b925060a08801356001600160401b03811115613a4657600080fd5b8801601f81018a13613a5757600080fd5b8035613a656135358261423c565b8082825284820191508484018d868560051b8701011115613a8557600080fd5b600094505b83851015613aaf57613a9b816135e2565b835260019490940193918501918501613a8a565b5080955050505050509295509295509295565b600060208284031215613ad457600080fd5b8135610c2f81614423565b600060208284031215613af157600080fd5b8151610c2f81614423565b60008060208385031215613b0f57600080fd5b82356001600160401b0380821115613b2657600080fd5b818501915085601f830112613b3a57600080fd5b813581811115613b4957600080fd5b866020828501011115613b5b57600080fd5b60209290920196919550909350505050565b600060208284031215613b7f57600080fd5b81356001600160401b03811115613b9557600080fd5b8201601f81018413613ba657600080fd5b611e2384823560208401613527565b600060208284031215613bc757600080fd5b81516001600160401b03811115613bdd57600080fd5b8201601f81018413613bee57600080fd5b8051613bfc6135358261425f565b818152856020838501011115613c1157600080fd5b613c22826020830160208601614331565b95945050505050565b600060208284031215613c3d57600080fd5b81356001600160401b03811115613c5357600080fd5b82016101808185031215610c2f57600080fd5b600060208284031215613c7857600080fd5b81356001600160401b03811115613c8e57600080fd5b82016101608185031215610c2f57600080fd5b6000818303610100811215613cb557600080fd5b613cbd6141c2565b8351815260e0601f1983011215613cd357600080fd5b613cdb6141ea565b91506020840151613ceb8161445d565b82526040840151613cfb81614449565b60208301526060840151613d0e81614449565b60408301526080840151613d2181614449565b6060830152613d3260a085016135d2565b6080830152613d4360c085016135d2565b60a083015260e0939093015160c0820152602083015250919050565b600060208284031215613d7157600080fd5b81356001600160401b03811115613d8757600080fd5b82016101a08185031215610c2f57600080fd5b600060208284031215613dac57600080fd5b81356001600160401b03811115613dc257600080fd5b82016102008185031215610c2f57600080fd5b600060208284031215613de757600080fd5b5035919050565b600060208284031215613e0057600080fd5b5051919050565b60008060408385031215613e1a57600080fd5b50508035926020909101359150565b600080600060608486031215613e3e57600080fd5b8351925060208401519150604084015190509250925092565b60008151808452613e6f816020860160208601614331565b601f01601f19169290920160200192915050565b8035613e8e8161445d565b69ffffffffffffffffffff1682526020810135613eaa81614449565b65ffffffffffff9081166020840152604082013590613ec882614449565b9081166040840152606082013590613edf82614449565b1660608301526080810135613ef381614439565b61ffff16608083015260a0810135613f0a81614439565b61ffff1660a083015260c090810135910152565b8183823760009101908152919050565b60008251613f40818460208701614331565b9190910192915050565b6001600160a01b0385811682528416602082015260408101839052608060608201819052600090613f7d90830184613e57565b9695505050505050565b6001600160a01b038316815260406020808301829052835191830182905260009184820191906060850190845b818110156135c557845183529383019391830191600101613fb4565b6040808252810183905260008460608301825b8681101561400857613ff58284613e83565b60e0928301929190910190600101613fe3565b5080925050508215156020830152949350505050565b6020808252810182905260006001600160fb1b0383111561403e57600080fd5b8260051b80856040850137600092016040019182525092915050565b60208152816020820152818360408301376000818301604090810191909152601f909201601f19160101919050565b602081526000610c2f6020830184613e57565b6040815260006140af6040830185613e57565b90508260208301529392505050565b61010081016140cd8285613e83565b6001600160a01b039290921660e09190910152919050565b6000606082018583526020606081850152818651808452608086019150828801935060005b8181101561412957845160ff168352938301939183019160010161410a565b50506001600160a01b0395909516604094909401939093525091949350505050565b8381526060602082015260006141646060830185613e57565b905060018060a01b0383166040830152949350505050565b6000808335601e1984360301811261419357600080fd5b8301803591506001600160401b038211156141ad57600080fd5b60200191503681900382131561344e57600080fd5b604080519081016001600160401b03811182821017156141e4576141e46143ea565b60405290565b60405160e081016001600160401b03811182821017156141e4576141e46143ea565b604051601f8201601f191681016001600160401b0381118282101715614234576142346143ea565b604052919050565b60006001600160401b03821115614255576142556143ea565b5060051b60200190565b60006001600160401b03821115614278576142786143ea565b50601f01601f191660200190565b6000808585111561429657600080fd5b838611156142a357600080fd5b5050820193919092039150565b600082198211156142c3576142c3614392565b500190565b6000826142e557634e487b7160e01b600052601260045260246000fd5b500490565b6000828210156142fc576142fc614392565b500390565b6001600160e01b031981358181169160048510156143295780818660040360031b1b83161692505b505092915050565b60005b8381101561434c578181015183820152602001614334565b838111156115d05750506000910152565b600181811c9082168061437157607f821691505b6020821081141561280f57634e487b7160e01b600052602260045260246000fd5b634e487b7160e01b600052601160045260246000fd5b634e487b7160e01b600052601260045260246000fd5b634e487b7160e01b600052602160045260246000fd5b634e487b7160e01b600052603260045260246000fd5b634e487b7160e01b600052604160045260246000fd5b6001600160a01b0381168114610c0057600080fd5b8015158114610c0057600080fd5b6001600160e01b031981168114610c0057600080fd5b61ffff81168114610c0057600080fd5b65ffffffffffff81168114610c0057600080fd5b69ffffffffffffffffffff81168114610c0057600080fdfea26469706673582212208ab2fd0c59c6e4f36905f1b9cd6b0a015dff3b635c4165623ff7ad17fbf55d7664736f6c63430008060033",
    "linkReferences": {
      "contracts/libraries/JBIpfsDecoder.sol": {
        "JBIpfsDecoder": [
          {
            "start": 9125,
            "length": 20
          }
        ]
      }
    }
  },
  "methodIdentifiers": {
    "DOMAIN_SEPARATOR()": "3644e515",
    "adjustTiers((uint80,uint48,uint48,uint48,uint16,uint16,bytes32)[],uint256[])": "42012e8a",
    "approve(address,uint256)": "095ea7b3",
    "balanceOf(address)": "70a08231",
    "delegate(address)": "5c19a95c",
    "delegateBySig(address,uint256,uint256,uint8,bytes32,bytes32)": "c3cda520",
    "delegates(address)": "587cde1e",
    "didPay((address,uint256,uint256,(address,uint256,uint256,uint256),uint256,address,bool,string,bytes))": "304b1eea",
    "didRedeem((address,uint256,uint256,uint256,(address,uint256,uint256,uint256),address,string,bytes))": "2400e8f7",
    "directory()": "c41c2f24",
    "firstOwnerOf(uint256)": "54c6d1f5",
    "getApproved(uint256)": "081812fc",
    "getPastTotalSupply(uint256)": "8e539e8c",
    "getPastVotes(address,uint256)": "3a46b1a8",
    "getVotes(address)": "9ab24eb0",
    "isApprovedForAll(address,address)": "e985e9c5",
    "mintReservesFor(uint256,uint256)": "aa4fb15b",
    "name()": "06fdde03",
    "nonces(address)": "7ecebe00",
    "owner()": "8da5cb5b",
    "ownerOf(uint256)": "6352211e",
    "ownerTokenBalanceOf(address,uint256)": "9b04139f",
    "payParams((address,address,(address,uint256,uint256,uint256),uint256,uint256,address,uint256,uint256,string,bytes))": "d46cf171",
    "projectId()": "3fafa127",
    "redeemParams((address,address,uint256,uint256,uint256,uint256,uint256,(address,uint256,uint256,uint256),bool,uint256,uint256,string,bytes))": "8dfc9598",
    "renounceOwnership()": "715018a6",
    "safeTransferFrom(address,address,uint256)": "42842e0e",
    "safeTransferFrom(address,address,uint256,bytes)": "b88d4fde",
    "setApprovalForAll(address,bool)": "a22cb465",
    "setBaseUri(string)": "a0bcfc7f",
    "setContractUri(string)": "ccb4807b",
    "setReservedTokenBeneficiary(address)": "fa28c7f5",
    "setTokenUriResolver(address)": "2407497e",
    "store()": "975057e7",
    "supportsInterface(bytes4)": "01ffc9a7",
    "symbol()": "95d89b41",
    "tokenSupplyOf(uint256)": "dcdfe0d9",
    "tokenURI(uint256)": "c87b56dd",
    "totalOwnerBalanceOf(address)": "0c4ace18",
    "totalSupply()": "18160ddd",
    "transferFrom(address,address,uint256)": "23b872dd",
    "transferOwnership(address)": "f2fde38b"
  },
  "id": 0
}