{
  "abi": [
    {
      "inputs": [
        {
          "internalType": "contract IJBOperatorStore",
          "name": "_operatorStore",
          "type": "address"
        },
        {
          "internalType": "contract IJBProjects",
          "name": "_projects",
          "type": "address"
        },
        {
          "internalType": "contract IJBDirectory",
          "name": "_directory",
          "type": "address"
        },
        {
          "internalType": "contract IJBFundingCycleStore",
          "name": "_fundingCycleStore",
          "type": "address"
        },
        {
          "internalType": "contract IJBTokenStore",
          "name": "_tokenStore",
          "type": "address"
        },
        {
          "internalType": "contract IJBSplitsStore",
          "name": "_splitsStore",
          "type": "address"
        }
      ],
      "stateMutability": "nonpayable",
      "type": "constructor"
    },
    {
      "inputs": [],
      "name": "BURN_PAUSED_AND_SENDER_NOT_VALID_TERMINAL_DELEGATE",
      "type": "error"
    },
    {
      "inputs": [],
      "name": "CANT_MIGRATE_TO_CURRENT_CONTROLLER",
      "type": "error"
    },
    {
      "inputs": [],
      "name": "FUNDING_CYCLE_ALREADY_LAUNCHED",
      "type": "error"
    },
    {
      "inputs": [],
      "name": "INVALID_BALLOT_REDEMPTION_RATE",
      "type": "error"
    },
    {
      "inputs": [],
      "name": "INVALID_DISTRIBUTION_LIMIT",
      "type": "error"
    },
    {
      "inputs": [],
      "name": "INVALID_DISTRIBUTION_LIMIT_CURRENCY",
      "type": "error"
    },
    {
      "inputs": [],
      "name": "INVALID_OVERFLOW_ALLOWANCE",
      "type": "error"
    },
    {
      "inputs": [],
      "name": "INVALID_OVERFLOW_ALLOWANCE_CURRENCY",
      "type": "error"
    },
    {
      "inputs": [],
      "name": "INVALID_REDEMPTION_RATE",
      "type": "error"
    },
    {
      "inputs": [],
      "name": "INVALID_RESERVED_RATE",
      "type": "error"
    },
    {
      "inputs": [],
      "name": "MIGRATION_NOT_ALLOWED",
      "type": "error"
    },
    {
      "inputs": [],
      "name": "MINT_NOT_ALLOWED_AND_NOT_TERMINAL_DELEGATE",
      "type": "error"
    },
    {
      "inputs": [],
      "name": "NOT_CURRENT_CONTROLLER",
      "type": "error"
    },
    {
      "inputs": [],
      "name": "NO_BURNABLE_TOKENS",
      "type": "error"
    },
    {
      "inputs": [],
      "name": "OVERFLOW_ALERT",
      "type": "error"
    },
    {
      "inputs": [
        {
          "internalType": "uint256",
          "name": "prod1",
          "type": "uint256"
        },
        {
          "internalType": "uint256",
          "name": "denominator",
          "type": "uint256"
        }
      ],
      "name": "PRBMath__MulDivOverflow",
      "type": "error"
    },
    {
      "inputs": [],
      "name": "UNAUTHORIZED",
      "type": "error"
    },
    {
      "inputs": [],
      "name": "ZERO_TOKENS_TO_MINT",
      "type": "error"
    },
    {
      "anonymous": false,
      "inputs": [
        {
          "indexed": true,
          "internalType": "address",
          "name": "holder",
          "type": "address"
        },
        {
          "indexed": true,
          "internalType": "uint256",
          "name": "projectId",
          "type": "uint256"
        },
        {
          "indexed": false,
          "internalType": "uint256",
          "name": "tokenCount",
          "type": "uint256"
        },
        {
          "indexed": false,
          "internalType": "string",
          "name": "memo",
          "type": "string"
        },
        {
          "indexed": false,
          "internalType": "address",
          "name": "caller",
          "type": "address"
        }
      ],
      "name": "BurnTokens",
      "type": "event"
    },
    {
      "anonymous": false,
      "inputs": [
        {
          "indexed": true,
          "internalType": "uint256",
          "name": "fundingCycleConfiguration",
          "type": "uint256"
        },
        {
          "indexed": true,
          "internalType": "uint256",
          "name": "fundingCycleNumber",
          "type": "uint256"
        },
        {
          "indexed": true,
          "internalType": "uint256",
          "name": "projectId",
          "type": "uint256"
        },
        {
          "indexed": false,
          "internalType": "address",
          "name": "beneficiary",
          "type": "address"
        },
        {
          "indexed": false,
          "internalType": "uint256",
          "name": "tokenCount",
          "type": "uint256"
        },
        {
          "indexed": false,
          "internalType": "uint256",
          "name": "beneficiaryTokenCount",
          "type": "uint256"
        },
        {
          "indexed": false,
          "internalType": "string",
          "name": "memo",
          "type": "string"
        },
        {
          "indexed": false,
          "internalType": "address",
          "name": "caller",
          "type": "address"
        }
      ],
      "name": "DistributeReservedTokens",
      "type": "event"
    },
    {
      "anonymous": false,
      "inputs": [
        {
          "indexed": true,
          "internalType": "uint256",
          "name": "projectId",
          "type": "uint256"
        },
        {
          "indexed": true,
          "internalType": "uint256",
          "name": "domain",
          "type": "uint256"
        },
        {
          "indexed": true,
          "internalType": "uint256",
          "name": "group",
          "type": "uint256"
        },
        {
          "components": [
            {
              "internalType": "bool",
              "name": "preferClaimed",
              "type": "bool"
            },
            {
              "internalType": "bool",
              "name": "preferAddToBalance",
              "type": "bool"
            },
            {
              "internalType": "uint256",
              "name": "percent",
              "type": "uint256"
            },
            {
              "internalType": "uint256",
              "name": "projectId",
              "type": "uint256"
            },
            {
              "internalType": "address payable",
              "name": "beneficiary",
              "type": "address"
            },
            {
              "internalType": "uint256",
              "name": "lockedUntil",
              "type": "uint256"
            },
            {
              "internalType": "contract IJBSplitAllocator",
              "name": "allocator",
              "type": "address"
            }
          ],
          "indexed": false,
          "internalType": "struct JBSplit",
          "name": "split",
          "type": "tuple"
        },
        {
          "indexed": false,
          "internalType": "uint256",
          "name": "tokenCount",
          "type": "uint256"
        },
        {
          "indexed": false,
          "internalType": "address",
          "name": "caller",
          "type": "address"
        }
      ],
      "name": "DistributeToReservedTokenSplit",
      "type": "event"
    },
    {
      "anonymous": false,
      "inputs": [
        {
          "indexed": false,
          "internalType": "uint256",
          "name": "configuration",
          "type": "uint256"
        },
        {
          "indexed": false,
          "internalType": "uint256",
          "name": "projectId",
          "type": "uint256"
        },
        {
          "indexed": false,
          "internalType": "string",
          "name": "memo",
          "type": "string"
        },
        {
          "indexed": false,
          "internalType": "address",
          "name": "caller",
          "type": "address"
        }
      ],
      "name": "LaunchFundingCycles",
      "type": "event"
    },
    {
      "anonymous": false,
      "inputs": [
        {
          "indexed": false,
          "internalType": "uint256",
          "name": "configuration",
          "type": "uint256"
        },
        {
          "indexed": false,
          "internalType": "uint256",
          "name": "projectId",
          "type": "uint256"
        },
        {
          "indexed": false,
          "internalType": "string",
          "name": "memo",
          "type": "string"
        },
        {
          "indexed": false,
          "internalType": "address",
          "name": "caller",
          "type": "address"
        }
      ],
      "name": "LaunchProject",
      "type": "event"
    },
    {
      "anonymous": false,
      "inputs": [
        {
          "indexed": true,
          "internalType": "uint256",
          "name": "projectId",
          "type": "uint256"
        },
        {
          "indexed": false,
          "internalType": "contract IJBMigratable",
          "name": "to",
          "type": "address"
        },
        {
          "indexed": false,
          "internalType": "address",
          "name": "caller",
          "type": "address"
        }
      ],
      "name": "Migrate",
      "type": "event"
    },
    {
      "anonymous": false,
      "inputs": [
        {
          "indexed": true,
          "internalType": "address",
          "name": "beneficiary",
          "type": "address"
        },
        {
          "indexed": true,
          "internalType": "uint256",
          "name": "projectId",
          "type": "uint256"
        },
        {
          "indexed": false,
          "internalType": "uint256",
          "name": "tokenCount",
          "type": "uint256"
        },
        {
          "indexed": false,
          "internalType": "uint256",
          "name": "beneficiaryTokenCount",
          "type": "uint256"
        },
        {
          "indexed": false,
          "internalType": "string",
          "name": "memo",
          "type": "string"
        },
        {
          "indexed": false,
          "internalType": "uint256",
          "name": "reservedRate",
          "type": "uint256"
        },
        {
          "indexed": false,
          "internalType": "address",
          "name": "caller",
          "type": "address"
        }
      ],
      "name": "MintTokens",
      "type": "event"
    },
    {
      "anonymous": false,
      "inputs": [
        {
          "indexed": true,
          "internalType": "uint256",
          "name": "projectId",
          "type": "uint256"
        },
        {
          "indexed": false,
          "internalType": "address",
          "name": "from",
          "type": "address"
        },
        {
          "indexed": false,
          "internalType": "address",
          "name": "caller",
          "type": "address"
        }
      ],
      "name": "PrepMigration",
      "type": "event"
    },
    {
      "anonymous": false,
      "inputs": [
        {
          "indexed": false,
          "internalType": "uint256",
          "name": "configuration",
          "type": "uint256"
        },
        {
          "indexed": false,
          "internalType": "uint256",
          "name": "projectId",
          "type": "uint256"
        },
        {
          "indexed": false,
          "internalType": "string",
          "name": "memo",
          "type": "string"
        },
        {
          "indexed": false,
          "internalType": "address",
          "name": "caller",
          "type": "address"
        }
      ],
      "name": "ReconfigureFundingCycles",
      "type": "event"
    },
    {
      "anonymous": false,
      "inputs": [
        {
          "indexed": true,
          "internalType": "uint256",
          "name": "fundingCycleConfiguration",
          "type": "uint256"
        },
        {
          "indexed": true,
          "internalType": "uint256",
          "name": "fundingCycleNumber",
          "type": "uint256"
        },
        {
          "indexed": true,
          "internalType": "uint256",
          "name": "projectId",
          "type": "uint256"
        },
        {
          "components": [
            {
              "internalType": "contract IJBPaymentTerminal",
              "name": "terminal",
              "type": "address"
            },
            {
              "internalType": "address",
              "name": "token",
              "type": "address"
            },
            {
              "internalType": "uint256",
              "name": "distributionLimit",
              "type": "uint256"
            },
            {
              "internalType": "uint256",
              "name": "distributionLimitCurrency",
              "type": "uint256"
            },
            {
              "internalType": "uint256",
              "name": "overflowAllowance",
              "type": "uint256"
            },
            {
              "internalType": "uint256",
              "name": "overflowAllowanceCurrency",
              "type": "uint256"
            }
          ],
          "indexed": false,
          "internalType": "struct JBFundAccessConstraints",
          "name": "constraints",
          "type": "tuple"
        },
        {
          "indexed": false,
          "internalType": "address",
          "name": "caller",
          "type": "address"
        }
      ],
      "name": "SetFundAccessConstraints",
      "type": "event"
    },
    {
      "inputs": [
        {
          "internalType": "address",
          "name": "_holder",
          "type": "address"
        },
        {
          "internalType": "uint256",
          "name": "_projectId",
          "type": "uint256"
        },
        {
          "internalType": "uint256",
          "name": "_tokenCount",
          "type": "uint256"
        },
        {
          "internalType": "string",
          "name": "_memo",
          "type": "string"
        },
        {
          "internalType": "bool",
          "name": "_preferClaimedTokens",
          "type": "bool"
        }
      ],
      "name": "burnTokensOf",
      "outputs": [],
      "stateMutability": "nonpayable",
      "type": "function"
    },
    {
      "inputs": [
        {
          "internalType": "uint256",
          "name": "_projectId",
          "type": "uint256"
        }
      ],
      "name": "currentFundingCycleOf",
      "outputs": [
        {
          "components": [
            {
              "internalType": "uint256",
              "name": "number",
              "type": "uint256"
            },
            {
              "internalType": "uint256",
              "name": "configuration",
              "type": "uint256"
            },
            {
              "internalType": "uint256",
              "name": "basedOn",
              "type": "uint256"
            },
            {
              "internalType": "uint256",
              "name": "start",
              "type": "uint256"
            },
            {
              "internalType": "uint256",
              "name": "duration",
              "type": "uint256"
            },
            {
              "internalType": "uint256",
              "name": "weight",
              "type": "uint256"
            },
            {
              "internalType": "uint256",
              "name": "discountRate",
              "type": "uint256"
            },
            {
              "internalType": "contract IJBFundingCycleBallot",
              "name": "ballot",
              "type": "address"
            },
            {
              "internalType": "uint256",
              "name": "metadata",
              "type": "uint256"
            }
          ],
          "internalType": "struct JBFundingCycle",
          "name": "fundingCycle",
          "type": "tuple"
        },
        {
          "components": [
            {
              "components": [
                {
                  "internalType": "bool",
                  "name": "allowSetTerminals",
                  "type": "bool"
                },
                {
                  "internalType": "bool",
                  "name": "allowSetController",
                  "type": "bool"
                },
                {
                  "internalType": "bool",
                  "name": "pauseTransfers",
                  "type": "bool"
                }
              ],
              "internalType": "struct JBGlobalFundingCycleMetadata",
              "name": "global",
              "type": "tuple"
            },
            {
              "internalType": "uint256",
              "name": "reservedRate",
              "type": "uint256"
            },
            {
              "internalType": "uint256",
              "name": "redemptionRate",
              "type": "uint256"
            },
            {
              "internalType": "uint256",
              "name": "ballotRedemptionRate",
              "type": "uint256"
            },
            {
              "internalType": "bool",
              "name": "pausePay",
              "type": "bool"
            },
            {
              "internalType": "bool",
              "name": "pauseDistributions",
              "type": "bool"
            },
            {
              "internalType": "bool",
              "name": "pauseRedeem",
              "type": "bool"
            },
            {
              "internalType": "bool",
              "name": "pauseBurn",
              "type": "bool"
            },
            {
              "internalType": "bool",
              "name": "allowMinting",
              "type": "bool"
            },
            {
              "internalType": "bool",
              "name": "allowTerminalMigration",
              "type": "bool"
            },
            {
              "internalType": "bool",
              "name": "allowControllerMigration",
              "type": "bool"
            },
            {
              "internalType": "bool",
              "name": "holdFees",
              "type": "bool"
            },
            {
              "internalType": "bool",
              "name": "preferClaimedTokenOverride",
              "type": "bool"
            },
            {
              "internalType": "bool",
              "name": "useTotalOverflowForRedemptions",
              "type": "bool"
            },
            {
              "internalType": "bool",
              "name": "useDataSourceForPay",
              "type": "bool"
            },
            {
              "internalType": "bool",
              "name": "useDataSourceForRedeem",
              "type": "bool"
            },
            {
              "internalType": "address",
              "name": "dataSource",
              "type": "address"
            },
            {
              "internalType": "uint256",
              "name": "metadata",
              "type": "uint256"
            }
          ],
          "internalType": "struct JBFundingCycleMetadata",
          "name": "metadata",
          "type": "tuple"
        }
      ],
      "stateMutability": "view",
      "type": "function"
    },
    {
      "inputs": [],
      "name": "directory",
      "outputs": [
        {
          "internalType": "contract IJBDirectory",
          "name": "",
          "type": "address"
        }
      ],
      "stateMutability": "view",
      "type": "function"
    },
    {
      "inputs": [
        {
          "internalType": "uint256",
          "name": "_projectId",
          "type": "uint256"
        },
        {
          "internalType": "string",
          "name": "_memo",
          "type": "string"
        }
      ],
      "name": "distributeReservedTokensOf",
      "outputs": [
        {
          "internalType": "uint256",
          "name": "",
          "type": "uint256"
        }
      ],
      "stateMutability": "nonpayable",
      "type": "function"
    },
    {
      "inputs": [
        {
          "internalType": "uint256",
          "name": "_projectId",
          "type": "uint256"
        },
        {
          "internalType": "uint256",
          "name": "_configuration",
          "type": "uint256"
        },
        {
          "internalType": "contract IJBPaymentTerminal",
          "name": "_terminal",
          "type": "address"
        },
        {
          "internalType": "address",
          "name": "_token",
          "type": "address"
        }
      ],
      "name": "distributionLimitOf",
      "outputs": [
        {
          "internalType": "uint256",
          "name": "",
          "type": "uint256"
        },
        {
          "internalType": "uint256",
          "name": "",
          "type": "uint256"
        }
      ],
      "stateMutability": "view",
      "type": "function"
    },
    {
      "inputs": [],
      "name": "fundingCycleStore",
      "outputs": [
        {
          "internalType": "contract IJBFundingCycleStore",
          "name": "",
          "type": "address"
        }
      ],
      "stateMutability": "view",
      "type": "function"
    },
    {
      "inputs": [
        {
          "internalType": "uint256",
          "name": "_projectId",
          "type": "uint256"
        },
        {
          "internalType": "uint256",
          "name": "_configuration",
          "type": "uint256"
        }
      ],
      "name": "getFundingCycleOf",
      "outputs": [
        {
          "components": [
            {
              "internalType": "uint256",
              "name": "number",
              "type": "uint256"
            },
            {
              "internalType": "uint256",
              "name": "configuration",
              "type": "uint256"
            },
            {
              "internalType": "uint256",
              "name": "basedOn",
              "type": "uint256"
            },
            {
              "internalType": "uint256",
              "name": "start",
              "type": "uint256"
            },
            {
              "internalType": "uint256",
              "name": "duration",
              "type": "uint256"
            },
            {
              "internalType": "uint256",
              "name": "weight",
              "type": "uint256"
            },
            {
              "internalType": "uint256",
              "name": "discountRate",
              "type": "uint256"
            },
            {
              "internalType": "contract IJBFundingCycleBallot",
              "name": "ballot",
              "type": "address"
            },
            {
              "internalType": "uint256",
              "name": "metadata",
              "type": "uint256"
            }
          ],
          "internalType": "struct JBFundingCycle",
          "name": "fundingCycle",
          "type": "tuple"
        },
        {
          "components": [
            {
              "components": [
                {
                  "internalType": "bool",
                  "name": "allowSetTerminals",
                  "type": "bool"
                },
                {
                  "internalType": "bool",
                  "name": "allowSetController",
                  "type": "bool"
                },
                {
                  "internalType": "bool",
                  "name": "pauseTransfers",
                  "type": "bool"
                }
              ],
              "internalType": "struct JBGlobalFundingCycleMetadata",
              "name": "global",
              "type": "tuple"
            },
            {
              "internalType": "uint256",
              "name": "reservedRate",
              "type": "uint256"
            },
            {
              "internalType": "uint256",
              "name": "redemptionRate",
              "type": "uint256"
            },
            {
              "internalType": "uint256",
              "name": "ballotRedemptionRate",
              "type": "uint256"
            },
            {
              "internalType": "bool",
              "name": "pausePay",
              "type": "bool"
            },
            {
              "internalType": "bool",
              "name": "pauseDistributions",
              "type": "bool"
            },
            {
              "internalType": "bool",
              "name": "pauseRedeem",
              "type": "bool"
            },
            {
              "internalType": "bool",
              "name": "pauseBurn",
              "type": "bool"
            },
            {
              "internalType": "bool",
              "name": "allowMinting",
              "type": "bool"
            },
            {
              "internalType": "bool",
              "name": "allowTerminalMigration",
              "type": "bool"
            },
            {
              "internalType": "bool",
              "name": "allowControllerMigration",
              "type": "bool"
            },
            {
              "internalType": "bool",
              "name": "holdFees",
              "type": "bool"
            },
            {
              "internalType": "bool",
              "name": "preferClaimedTokenOverride",
              "type": "bool"
            },
            {
              "internalType": "bool",
              "name": "useTotalOverflowForRedemptions",
              "type": "bool"
            },
            {
              "internalType": "bool",
              "name": "useDataSourceForPay",
              "type": "bool"
            },
            {
              "internalType": "bool",
              "name": "useDataSourceForRedeem",
              "type": "bool"
            },
            {
              "internalType": "address",
              "name": "dataSource",
              "type": "address"
            },
            {
              "internalType": "uint256",
              "name": "metadata",
              "type": "uint256"
            }
          ],
          "internalType": "struct JBFundingCycleMetadata",
          "name": "metadata",
          "type": "tuple"
        }
      ],
      "stateMutability": "view",
      "type": "function"
    },
    {
      "inputs": [
        {
          "internalType": "uint256",
          "name": "_projectId",
          "type": "uint256"
        }
      ],
      "name": "latestConfiguredFundingCycleOf",
      "outputs": [
        {
          "components": [
            {
              "internalType": "uint256",
              "name": "number",
              "type": "uint256"
            },
            {
              "internalType": "uint256",
              "name": "configuration",
              "type": "uint256"
            },
            {
              "internalType": "uint256",
              "name": "basedOn",
              "type": "uint256"
            },
            {
              "internalType": "uint256",
              "name": "start",
              "type": "uint256"
            },
            {
              "internalType": "uint256",
              "name": "duration",
              "type": "uint256"
            },
            {
              "internalType": "uint256",
              "name": "weight",
              "type": "uint256"
            },
            {
              "internalType": "uint256",
              "name": "discountRate",
              "type": "uint256"
            },
            {
              "internalType": "contract IJBFundingCycleBallot",
              "name": "ballot",
              "type": "address"
            },
            {
              "internalType": "uint256",
              "name": "metadata",
              "type": "uint256"
            }
          ],
          "internalType": "struct JBFundingCycle",
          "name": "fundingCycle",
          "type": "tuple"
        },
        {
          "components": [
            {
              "components": [
                {
                  "internalType": "bool",
                  "name": "allowSetTerminals",
                  "type": "bool"
                },
                {
                  "internalType": "bool",
                  "name": "allowSetController",
                  "type": "bool"
                },
                {
                  "internalType": "bool",
                  "name": "pauseTransfers",
                  "type": "bool"
                }
              ],
              "internalType": "struct JBGlobalFundingCycleMetadata",
              "name": "global",
              "type": "tuple"
            },
            {
              "internalType": "uint256",
              "name": "reservedRate",
              "type": "uint256"
            },
            {
              "internalType": "uint256",
              "name": "redemptionRate",
              "type": "uint256"
            },
            {
              "internalType": "uint256",
              "name": "ballotRedemptionRate",
              "type": "uint256"
            },
            {
              "internalType": "bool",
              "name": "pausePay",
              "type": "bool"
            },
            {
              "internalType": "bool",
              "name": "pauseDistributions",
              "type": "bool"
            },
            {
              "internalType": "bool",
              "name": "pauseRedeem",
              "type": "bool"
            },
            {
              "internalType": "bool",
              "name": "pauseBurn",
              "type": "bool"
            },
            {
              "internalType": "bool",
              "name": "allowMinting",
              "type": "bool"
            },
            {
              "internalType": "bool",
              "name": "allowTerminalMigration",
              "type": "bool"
            },
            {
              "internalType": "bool",
              "name": "allowControllerMigration",
              "type": "bool"
            },
            {
              "internalType": "bool",
              "name": "holdFees",
              "type": "bool"
            },
            {
              "internalType": "bool",
              "name": "preferClaimedTokenOverride",
              "type": "bool"
            },
            {
              "internalType": "bool",
              "name": "useTotalOverflowForRedemptions",
              "type": "bool"
            },
            {
              "internalType": "bool",
              "name": "useDataSourceForPay",
              "type": "bool"
            },
            {
              "internalType": "bool",
              "name": "useDataSourceForRedeem",
              "type": "bool"
            },
            {
              "internalType": "address",
              "name": "dataSource",
              "type": "address"
            },
            {
              "internalType": "uint256",
              "name": "metadata",
              "type": "uint256"
            }
          ],
          "internalType": "struct JBFundingCycleMetadata",
          "name": "metadata",
          "type": "tuple"
        },
        {
          "internalType": "enum JBBallotState",
          "name": "ballotState",
          "type": "uint8"
        }
      ],
      "stateMutability": "view",
      "type": "function"
    },
    {
      "inputs": [
        {
          "internalType": "uint256",
          "name": "_projectId",
          "type": "uint256"
        },
        {
          "components": [
            {
              "internalType": "uint256",
              "name": "duration",
              "type": "uint256"
            },
            {
              "internalType": "uint256",
              "name": "weight",
              "type": "uint256"
            },
            {
              "internalType": "uint256",
              "name": "discountRate",
              "type": "uint256"
            },
            {
              "internalType": "contract IJBFundingCycleBallot",
              "name": "ballot",
              "type": "address"
            }
          ],
          "internalType": "struct JBFundingCycleData",
          "name": "_data",
          "type": "tuple"
        },
        {
          "components": [
            {
              "components": [
                {
                  "internalType": "bool",
                  "name": "allowSetTerminals",
                  "type": "bool"
                },
                {
                  "internalType": "bool",
                  "name": "allowSetController",
                  "type": "bool"
                },
                {
                  "internalType": "bool",
                  "name": "pauseTransfers",
                  "type": "bool"
                }
              ],
              "internalType": "struct JBGlobalFundingCycleMetadata",
              "name": "global",
              "type": "tuple"
            },
            {
              "internalType": "uint256",
              "name": "reservedRate",
              "type": "uint256"
            },
            {
              "internalType": "uint256",
              "name": "redemptionRate",
              "type": "uint256"
            },
            {
              "internalType": "uint256",
              "name": "ballotRedemptionRate",
              "type": "uint256"
            },
            {
              "internalType": "bool",
              "name": "pausePay",
              "type": "bool"
            },
            {
              "internalType": "bool",
              "name": "pauseDistributions",
              "type": "bool"
            },
            {
              "internalType": "bool",
              "name": "pauseRedeem",
              "type": "bool"
            },
            {
              "internalType": "bool",
              "name": "pauseBurn",
              "type": "bool"
            },
            {
              "internalType": "bool",
              "name": "allowMinting",
              "type": "bool"
            },
            {
              "internalType": "bool",
              "name": "allowTerminalMigration",
              "type": "bool"
            },
            {
              "internalType": "bool",
              "name": "allowControllerMigration",
              "type": "bool"
            },
            {
              "internalType": "bool",
              "name": "holdFees",
              "type": "bool"
            },
            {
              "internalType": "bool",
              "name": "preferClaimedTokenOverride",
              "type": "bool"
            },
            {
              "internalType": "bool",
              "name": "useTotalOverflowForRedemptions",
              "type": "bool"
            },
            {
              "internalType": "bool",
              "name": "useDataSourceForPay",
              "type": "bool"
            },
            {
              "internalType": "bool",
              "name": "useDataSourceForRedeem",
              "type": "bool"
            },
            {
              "internalType": "address",
              "name": "dataSource",
              "type": "address"
            },
            {
              "internalType": "uint256",
              "name": "metadata",
              "type": "uint256"
            }
          ],
          "internalType": "struct JBFundingCycleMetadata",
          "name": "_metadata",
          "type": "tuple"
        },
        {
          "internalType": "uint256",
          "name": "_mustStartAtOrAfter",
          "type": "uint256"
        },
        {
          "components": [
            {
              "internalType": "uint256",
              "name": "group",
              "type": "uint256"
            },
            {
              "components": [
                {
                  "internalType": "bool",
                  "name": "preferClaimed",
                  "type": "bool"
                },
                {
                  "internalType": "bool",
                  "name": "preferAddToBalance",
                  "type": "bool"
                },
                {
                  "internalType": "uint256",
                  "name": "percent",
                  "type": "uint256"
                },
                {
                  "internalType": "uint256",
                  "name": "projectId",
                  "type": "uint256"
                },
                {
                  "internalType": "address payable",
                  "name": "beneficiary",
                  "type": "address"
                },
                {
                  "internalType": "uint256",
                  "name": "lockedUntil",
                  "type": "uint256"
                },
                {
                  "internalType": "contract IJBSplitAllocator",
                  "name": "allocator",
                  "type": "address"
                }
              ],
              "internalType": "struct JBSplit[]",
              "name": "splits",
              "type": "tuple[]"
            }
          ],
          "internalType": "struct JBGroupedSplits[]",
          "name": "_groupedSplits",
          "type": "tuple[]"
        },
        {
          "components": [
            {
              "internalType": "contract IJBPaymentTerminal",
              "name": "terminal",
              "type": "address"
            },
            {
              "internalType": "address",
              "name": "token",
              "type": "address"
            },
            {
              "internalType": "uint256",
              "name": "distributionLimit",
              "type": "uint256"
            },
            {
              "internalType": "uint256",
              "name": "distributionLimitCurrency",
              "type": "uint256"
            },
            {
              "internalType": "uint256",
              "name": "overflowAllowance",
              "type": "uint256"
            },
            {
              "internalType": "uint256",
              "name": "overflowAllowanceCurrency",
              "type": "uint256"
            }
          ],
          "internalType": "struct JBFundAccessConstraints[]",
          "name": "_fundAccessConstraints",
          "type": "tuple[]"
        },
        {
          "internalType": "contract IJBPaymentTerminal[]",
          "name": "_terminals",
          "type": "address[]"
        },
        {
          "internalType": "string",
          "name": "_memo",
          "type": "string"
        }
      ],
      "name": "launchFundingCyclesFor",
      "outputs": [
        {
          "internalType": "uint256",
          "name": "configuration",
          "type": "uint256"
        }
      ],
      "stateMutability": "nonpayable",
      "type": "function"
    },
    {
      "inputs": [
        {
          "internalType": "address",
          "name": "_owner",
          "type": "address"
        },
        {
          "components": [
            {
              "internalType": "string",
              "name": "content",
              "type": "string"
            },
            {
              "internalType": "uint256",
              "name": "domain",
              "type": "uint256"
            }
          ],
          "internalType": "struct JBProjectMetadata",
          "name": "_projectMetadata",
          "type": "tuple"
        },
        {
          "components": [
            {
              "internalType": "uint256",
              "name": "duration",
              "type": "uint256"
            },
            {
              "internalType": "uint256",
              "name": "weight",
              "type": "uint256"
            },
            {
              "internalType": "uint256",
              "name": "discountRate",
              "type": "uint256"
            },
            {
              "internalType": "contract IJBFundingCycleBallot",
              "name": "ballot",
              "type": "address"
            }
          ],
          "internalType": "struct JBFundingCycleData",
          "name": "_data",
          "type": "tuple"
        },
        {
          "components": [
            {
              "components": [
                {
                  "internalType": "bool",
                  "name": "allowSetTerminals",
                  "type": "bool"
                },
                {
                  "internalType": "bool",
                  "name": "allowSetController",
                  "type": "bool"
                },
                {
                  "internalType": "bool",
                  "name": "pauseTransfers",
                  "type": "bool"
                }
              ],
              "internalType": "struct JBGlobalFundingCycleMetadata",
              "name": "global",
              "type": "tuple"
            },
            {
              "internalType": "uint256",
              "name": "reservedRate",
              "type": "uint256"
            },
            {
              "internalType": "uint256",
              "name": "redemptionRate",
              "type": "uint256"
            },
            {
              "internalType": "uint256",
              "name": "ballotRedemptionRate",
              "type": "uint256"
            },
            {
              "internalType": "bool",
              "name": "pausePay",
              "type": "bool"
            },
            {
              "internalType": "bool",
              "name": "pauseDistributions",
              "type": "bool"
            },
            {
              "internalType": "bool",
              "name": "pauseRedeem",
              "type": "bool"
            },
            {
              "internalType": "bool",
              "name": "pauseBurn",
              "type": "bool"
            },
            {
              "internalType": "bool",
              "name": "allowMinting",
              "type": "bool"
            },
            {
              "internalType": "bool",
              "name": "allowTerminalMigration",
              "type": "bool"
            },
            {
              "internalType": "bool",
              "name": "allowControllerMigration",
              "type": "bool"
            },
            {
              "internalType": "bool",
              "name": "holdFees",
              "type": "bool"
            },
            {
              "internalType": "bool",
              "name": "preferClaimedTokenOverride",
              "type": "bool"
            },
            {
              "internalType": "bool",
              "name": "useTotalOverflowForRedemptions",
              "type": "bool"
            },
            {
              "internalType": "bool",
              "name": "useDataSourceForPay",
              "type": "bool"
            },
            {
              "internalType": "bool",
              "name": "useDataSourceForRedeem",
              "type": "bool"
            },
            {
              "internalType": "address",
              "name": "dataSource",
              "type": "address"
            },
            {
              "internalType": "uint256",
              "name": "metadata",
              "type": "uint256"
            }
          ],
          "internalType": "struct JBFundingCycleMetadata",
          "name": "_metadata",
          "type": "tuple"
        },
        {
          "internalType": "uint256",
          "name": "_mustStartAtOrAfter",
          "type": "uint256"
        },
        {
          "components": [
            {
              "internalType": "uint256",
              "name": "group",
              "type": "uint256"
            },
            {
              "components": [
                {
                  "internalType": "bool",
                  "name": "preferClaimed",
                  "type": "bool"
                },
                {
                  "internalType": "bool",
                  "name": "preferAddToBalance",
                  "type": "bool"
                },
                {
                  "internalType": "uint256",
                  "name": "percent",
                  "type": "uint256"
                },
                {
                  "internalType": "uint256",
                  "name": "projectId",
                  "type": "uint256"
                },
                {
                  "internalType": "address payable",
                  "name": "beneficiary",
                  "type": "address"
                },
                {
                  "internalType": "uint256",
                  "name": "lockedUntil",
                  "type": "uint256"
                },
                {
                  "internalType": "contract IJBSplitAllocator",
                  "name": "allocator",
                  "type": "address"
                }
              ],
              "internalType": "struct JBSplit[]",
              "name": "splits",
              "type": "tuple[]"
            }
          ],
          "internalType": "struct JBGroupedSplits[]",
          "name": "_groupedSplits",
          "type": "tuple[]"
        },
        {
          "components": [
            {
              "internalType": "contract IJBPaymentTerminal",
              "name": "terminal",
              "type": "address"
            },
            {
              "internalType": "address",
              "name": "token",
              "type": "address"
            },
            {
              "internalType": "uint256",
              "name": "distributionLimit",
              "type": "uint256"
            },
            {
              "internalType": "uint256",
              "name": "distributionLimitCurrency",
              "type": "uint256"
            },
            {
              "internalType": "uint256",
              "name": "overflowAllowance",
              "type": "uint256"
            },
            {
              "internalType": "uint256",
              "name": "overflowAllowanceCurrency",
              "type": "uint256"
            }
          ],
          "internalType": "struct JBFundAccessConstraints[]",
          "name": "_fundAccessConstraints",
          "type": "tuple[]"
        },
        {
          "internalType": "contract IJBPaymentTerminal[]",
          "name": "_terminals",
          "type": "address[]"
        },
        {
          "internalType": "string",
          "name": "_memo",
          "type": "string"
        }
      ],
      "name": "launchProjectFor",
      "outputs": [
        {
          "internalType": "uint256",
          "name": "projectId",
          "type": "uint256"
        }
      ],
      "stateMutability": "nonpayable",
      "type": "function"
    },
    {
      "inputs": [
        {
          "internalType": "uint256",
          "name": "_projectId",
          "type": "uint256"
        },
        {
          "internalType": "contract IJBMigratable",
          "name": "_to",
          "type": "address"
        }
      ],
      "name": "migrate",
      "outputs": [],
      "stateMutability": "nonpayable",
      "type": "function"
    },
    {
      "inputs": [
        {
          "internalType": "uint256",
          "name": "_projectId",
          "type": "uint256"
        },
        {
          "internalType": "uint256",
          "name": "_tokenCount",
          "type": "uint256"
        },
        {
          "internalType": "address",
          "name": "_beneficiary",
          "type": "address"
        },
        {
          "internalType": "string",
          "name": "_memo",
          "type": "string"
        },
        {
          "internalType": "bool",
          "name": "_preferClaimedTokens",
          "type": "bool"
        },
        {
          "internalType": "bool",
          "name": "_useReservedRate",
          "type": "bool"
        }
      ],
      "name": "mintTokensOf",
      "outputs": [
        {
          "internalType": "uint256",
          "name": "beneficiaryTokenCount",
          "type": "uint256"
        }
      ],
      "stateMutability": "nonpayable",
      "type": "function"
    },
    {
      "inputs": [],
      "name": "operatorStore",
      "outputs": [
        {
          "internalType": "contract IJBOperatorStore",
          "name": "",
          "type": "address"
        }
      ],
      "stateMutability": "view",
      "type": "function"
    },
    {
      "inputs": [
        {
          "internalType": "uint256",
          "name": "_projectId",
          "type": "uint256"
        },
        {
          "internalType": "uint256",
          "name": "_configuration",
          "type": "uint256"
        },
        {
          "internalType": "contract IJBPaymentTerminal",
          "name": "_terminal",
          "type": "address"
        },
        {
          "internalType": "address",
          "name": "_token",
          "type": "address"
        }
      ],
      "name": "overflowAllowanceOf",
      "outputs": [
        {
          "internalType": "uint256",
          "name": "",
          "type": "uint256"
        },
        {
          "internalType": "uint256",
          "name": "",
          "type": "uint256"
        }
      ],
      "stateMutability": "view",
      "type": "function"
    },
    {
      "inputs": [
        {
          "internalType": "uint256",
          "name": "_projectId",
          "type": "uint256"
        },
        {
          "internalType": "address",
          "name": "_from",
          "type": "address"
        }
      ],
      "name": "prepForMigrationOf",
      "outputs": [],
      "stateMutability": "nonpayable",
      "type": "function"
    },
    {
      "inputs": [],
      "name": "projects",
      "outputs": [
        {
          "internalType": "contract IJBProjects",
          "name": "",
          "type": "address"
        }
      ],
      "stateMutability": "view",
      "type": "function"
    },
    {
      "inputs": [
        {
          "internalType": "uint256",
          "name": "_projectId",
          "type": "uint256"
        }
      ],
      "name": "queuedFundingCycleOf",
      "outputs": [
        {
          "components": [
            {
              "internalType": "uint256",
              "name": "number",
              "type": "uint256"
            },
            {
              "internalType": "uint256",
              "name": "configuration",
              "type": "uint256"
            },
            {
              "internalType": "uint256",
              "name": "basedOn",
              "type": "uint256"
            },
            {
              "internalType": "uint256",
              "name": "start",
              "type": "uint256"
            },
            {
              "internalType": "uint256",
              "name": "duration",
              "type": "uint256"
            },
            {
              "internalType": "uint256",
              "name": "weight",
              "type": "uint256"
            },
            {
              "internalType": "uint256",
              "name": "discountRate",
              "type": "uint256"
            },
            {
              "internalType": "contract IJBFundingCycleBallot",
              "name": "ballot",
              "type": "address"
            },
            {
              "internalType": "uint256",
              "name": "metadata",
              "type": "uint256"
            }
          ],
          "internalType": "struct JBFundingCycle",
          "name": "fundingCycle",
          "type": "tuple"
        },
        {
          "components": [
            {
              "components": [
                {
                  "internalType": "bool",
                  "name": "allowSetTerminals",
                  "type": "bool"
                },
                {
                  "internalType": "bool",
                  "name": "allowSetController",
                  "type": "bool"
                },
                {
                  "internalType": "bool",
                  "name": "pauseTransfers",
                  "type": "bool"
                }
              ],
              "internalType": "struct JBGlobalFundingCycleMetadata",
              "name": "global",
              "type": "tuple"
            },
            {
              "internalType": "uint256",
              "name": "reservedRate",
              "type": "uint256"
            },
            {
              "internalType": "uint256",
              "name": "redemptionRate",
              "type": "uint256"
            },
            {
              "internalType": "uint256",
              "name": "ballotRedemptionRate",
              "type": "uint256"
            },
            {
              "internalType": "bool",
              "name": "pausePay",
              "type": "bool"
            },
            {
              "internalType": "bool",
              "name": "pauseDistributions",
              "type": "bool"
            },
            {
              "internalType": "bool",
              "name": "pauseRedeem",
              "type": "bool"
            },
            {
              "internalType": "bool",
              "name": "pauseBurn",
              "type": "bool"
            },
            {
              "internalType": "bool",
              "name": "allowMinting",
              "type": "bool"
            },
            {
              "internalType": "bool",
              "name": "allowTerminalMigration",
              "type": "bool"
            },
            {
              "internalType": "bool",
              "name": "allowControllerMigration",
              "type": "bool"
            },
            {
              "internalType": "bool",
              "name": "holdFees",
              "type": "bool"
            },
            {
              "internalType": "bool",
              "name": "preferClaimedTokenOverride",
              "type": "bool"
            },
            {
              "internalType": "bool",
              "name": "useTotalOverflowForRedemptions",
              "type": "bool"
            },
            {
              "internalType": "bool",
              "name": "useDataSourceForPay",
              "type": "bool"
            },
            {
              "internalType": "bool",
              "name": "useDataSourceForRedeem",
              "type": "bool"
            },
            {
              "internalType": "address",
              "name": "dataSource",
              "type": "address"
            },
            {
              "internalType": "uint256",
              "name": "metadata",
              "type": "uint256"
            }
          ],
          "internalType": "struct JBFundingCycleMetadata",
          "name": "metadata",
          "type": "tuple"
        }
      ],
      "stateMutability": "view",
      "type": "function"
    },
    {
      "inputs": [
        {
          "internalType": "uint256",
          "name": "_projectId",
          "type": "uint256"
        },
        {
          "components": [
            {
              "internalType": "uint256",
              "name": "duration",
              "type": "uint256"
            },
            {
              "internalType": "uint256",
              "name": "weight",
              "type": "uint256"
            },
            {
              "internalType": "uint256",
              "name": "discountRate",
              "type": "uint256"
            },
            {
              "internalType": "contract IJBFundingCycleBallot",
              "name": "ballot",
              "type": "address"
            }
          ],
          "internalType": "struct JBFundingCycleData",
          "name": "_data",
          "type": "tuple"
        },
        {
          "components": [
            {
              "components": [
                {
                  "internalType": "bool",
                  "name": "allowSetTerminals",
                  "type": "bool"
                },
                {
                  "internalType": "bool",
                  "name": "allowSetController",
                  "type": "bool"
                },
                {
                  "internalType": "bool",
                  "name": "pauseTransfers",
                  "type": "bool"
                }
              ],
              "internalType": "struct JBGlobalFundingCycleMetadata",
              "name": "global",
              "type": "tuple"
            },
            {
              "internalType": "uint256",
              "name": "reservedRate",
              "type": "uint256"
            },
            {
              "internalType": "uint256",
              "name": "redemptionRate",
              "type": "uint256"
            },
            {
              "internalType": "uint256",
              "name": "ballotRedemptionRate",
              "type": "uint256"
            },
            {
              "internalType": "bool",
              "name": "pausePay",
              "type": "bool"
            },
            {
              "internalType": "bool",
              "name": "pauseDistributions",
              "type": "bool"
            },
            {
              "internalType": "bool",
              "name": "pauseRedeem",
              "type": "bool"
            },
            {
              "internalType": "bool",
              "name": "pauseBurn",
              "type": "bool"
            },
            {
              "internalType": "bool",
              "name": "allowMinting",
              "type": "bool"
            },
            {
              "internalType": "bool",
              "name": "allowTerminalMigration",
              "type": "bool"
            },
            {
              "internalType": "bool",
              "name": "allowControllerMigration",
              "type": "bool"
            },
            {
              "internalType": "bool",
              "name": "holdFees",
              "type": "bool"
            },
            {
              "internalType": "bool",
              "name": "preferClaimedTokenOverride",
              "type": "bool"
            },
            {
              "internalType": "bool",
              "name": "useTotalOverflowForRedemptions",
              "type": "bool"
            },
            {
              "internalType": "bool",
              "name": "useDataSourceForPay",
              "type": "bool"
            },
            {
              "internalType": "bool",
              "name": "useDataSourceForRedeem",
              "type": "bool"
            },
            {
              "internalType": "address",
              "name": "dataSource",
              "type": "address"
            },
            {
              "internalType": "uint256",
              "name": "metadata",
              "type": "uint256"
            }
          ],
          "internalType": "struct JBFundingCycleMetadata",
          "name": "_metadata",
          "type": "tuple"
        },
        {
          "internalType": "uint256",
          "name": "_mustStartAtOrAfter",
          "type": "uint256"
        },
        {
          "components": [
            {
              "internalType": "uint256",
              "name": "group",
              "type": "uint256"
            },
            {
              "components": [
                {
                  "internalType": "bool",
                  "name": "preferClaimed",
                  "type": "bool"
                },
                {
                  "internalType": "bool",
                  "name": "preferAddToBalance",
                  "type": "bool"
                },
                {
                  "internalType": "uint256",
                  "name": "percent",
                  "type": "uint256"
                },
                {
                  "internalType": "uint256",
                  "name": "projectId",
                  "type": "uint256"
                },
                {
                  "internalType": "address payable",
                  "name": "beneficiary",
                  "type": "address"
                },
                {
                  "internalType": "uint256",
                  "name": "lockedUntil",
                  "type": "uint256"
                },
                {
                  "internalType": "contract IJBSplitAllocator",
                  "name": "allocator",
                  "type": "address"
                }
              ],
              "internalType": "struct JBSplit[]",
              "name": "splits",
              "type": "tuple[]"
            }
          ],
          "internalType": "struct JBGroupedSplits[]",
          "name": "_groupedSplits",
          "type": "tuple[]"
        },
        {
          "components": [
            {
              "internalType": "contract IJBPaymentTerminal",
              "name": "terminal",
              "type": "address"
            },
            {
              "internalType": "address",
              "name": "token",
              "type": "address"
            },
            {
              "internalType": "uint256",
              "name": "distributionLimit",
              "type": "uint256"
            },
            {
              "internalType": "uint256",
              "name": "distributionLimitCurrency",
              "type": "uint256"
            },
            {
              "internalType": "uint256",
              "name": "overflowAllowance",
              "type": "uint256"
            },
            {
              "internalType": "uint256",
              "name": "overflowAllowanceCurrency",
              "type": "uint256"
            }
          ],
          "internalType": "struct JBFundAccessConstraints[]",
          "name": "_fundAccessConstraints",
          "type": "tuple[]"
        },
        {
          "internalType": "string",
          "name": "_memo",
          "type": "string"
        }
      ],
      "name": "reconfigureFundingCyclesOf",
      "outputs": [
        {
          "internalType": "uint256",
          "name": "configuration",
          "type": "uint256"
        }
      ],
      "stateMutability": "nonpayable",
      "type": "function"
    },
    {
      "inputs": [
        {
          "internalType": "uint256",
          "name": "_projectId",
          "type": "uint256"
        },
        {
          "internalType": "uint256",
          "name": "_reservedRate",
          "type": "uint256"
        }
      ],
      "name": "reservedTokenBalanceOf",
      "outputs": [
        {
          "internalType": "uint256",
          "name": "",
          "type": "uint256"
        }
      ],
      "stateMutability": "view",
      "type": "function"
    },
    {
      "inputs": [],
      "name": "splitsStore",
      "outputs": [
        {
          "internalType": "contract IJBSplitsStore",
          "name": "",
          "type": "address"
        }
      ],
      "stateMutability": "view",
      "type": "function"
    },
    {
      "inputs": [
        {
          "internalType": "bytes4",
          "name": "_interfaceId",
          "type": "bytes4"
        }
      ],
      "name": "supportsInterface",
      "outputs": [
        {
          "internalType": "bool",
          "name": "",
          "type": "bool"
        }
      ],
      "stateMutability": "view",
      "type": "function"
    },
    {
      "inputs": [],
      "name": "tokenStore",
      "outputs": [
        {
          "internalType": "contract IJBTokenStore",
          "name": "",
          "type": "address"
        }
      ],
      "stateMutability": "view",
      "type": "function"
    },
    {
      "inputs": [
        {
          "internalType": "uint256",
          "name": "_projectId",
          "type": "uint256"
        },
        {
          "internalType": "uint256",
          "name": "_reservedRate",
          "type": "uint256"
        }
      ],
      "name": "totalOutstandingTokensOf",
      "outputs": [
        {
          "internalType": "uint256",
          "name": "",
          "type": "uint256"
        }
      ],
      "stateMutability": "view",
      "type": "function"
    }
  ],
  "bytecode": {
    "object": "0x610140346200029e57601f6200563938819003918201601f19168301916001600160401b03831184841017620002a35780849260c0946040528339810103126200029e5780516001600160a01b039182821682036200029e5760208101519183831683036200029e5760408201519284841684036200029e5760608301519185831683036200029e5760808401519386851685036200029e5760a0015195861686036200029e5760805260a05261012092835260c05260e0526101009182526040519061537f9283620002ba843960805183818161188401528181611ee001528181611fa00152818161265e015281816126fb01528181612dd901528181612e7801528181614eb00152614f55015260a05183818161037e01528181610ec6015281816119c001528181611ac9015281816122c0015281816130900152818161452a0152614adc015260c051838181610705015281816112cd015281816118fc01528181611a730152818161213f015281816122460152818161237d015281816129a701528181612b7501528181612f7b015281816130f3015281816134ee0152614430015260e05183818161015901528181610cc401528181611c8c015281816122010152818161252c0152818161282701528181612bee01528181614487015281816145d301528181614640015281816147c40152818161483001526148f0015251828181610746015281816107cf0152818161130e01528181611395015281816129340152818161352f015281816135b801526146e20152518181816102a901528181610f0101528181610f59015281816115b00152818161160301528181611b2d01528181611e130152818161230d015281816127d001528181612af5015281816131320152818161318b015281816137cf01526138240152f35b600080fd5b634e487b7160e01b600052604160045260246000fdfe608080604052600436101561001357600080fd5b600090813560e01c90816301ffc9a714613a5f57508063111d861b14612fc357806312b37b1414612f365780631665bc0f14612a7c5780631f510453146129635780632bdfe0041461291e5780633e8c615b14612786578063405b84fa14612275578063557e71551461223057806361930630146121eb5780637a81b562146121875780638776c499146120fa5780638ae9c07b146119ef5780638b79543c146119aa578063a40bb9c7146118b3578063ad007d631461186e578063b3c5267314610d59578063b5f1e34d14610c92578063badbdf28146102d8578063c41c2f2414610293578063e867c59c1461024b578063e8db2130146101e75763f033b3b41461011e57600080fd5b346101e45761012c36613f51565b818352602083815260408085205490516375b0d9cd60e01b815260048101949094529093919084846024817f00000000000000000000000000000000000000000000000000000000000000006001600160a01b03165afa9283156101d857926101a2575b61019a9350614dd6565b604051908152f35b91508383813d83116101d1575b6101b98183613b74565b810103126101cc5761019a925191610190565b600080fd5b503d6101af565b604051903d90823e3d90fd5b80fd5b50346101e4576040906101f936613f18565b9492849291945260016020528282209082526020522060018060a01b03809216600052602052604060002091166000526020526040806000205481519060018060e81b038116825260e81c6020820152f35b50346101e45760403660031901126101e457602435906001600160401b0382116101e457602061019a61028b6102843660048701613ecf565b3691613d0b565b600435614411565b50346101e457806003193601126101e4576040517f00000000000000000000000000000000000000000000000000000000000000006001600160a01b03168152602090f35b50346101e4576103a03660031901126101e45760803660231901126101e4576102803660a31901126101e4576001600160401b039061034435828111610c8e57610326903690600401613ae4565b9261036435818111610c8a57610340903690600401613f67565b92909161038435908111610c865761035c903690600401613ecf565b6040516331a9108f60e11b8152600480359082015290969195906020816024817f00000000000000000000000000000000000000000000000000000000000000006001600160a01b03165afa9182156101d8576103dd9594926103d594926103ce9291610c57575b5060043590614e58565b369161416c565b923691613bd6565b6000936127106101043511610c45576127106101243511610c33576127106101443511610c215760405161041081613b58565b60603660a3190112610c1d5760405161042881613b3d565b60a4358015158103610b2957815260c435151560c43503610ae25760c435602082015260e435151560e43503610ae25760e43560408201528082526101043560208301526101243560408301526101443560608301526101643515156101643503610ae2576101643560808301526101843515156101843503610ae2576101843560a08301526101a4358015158103610b295760c08301526101c43515156101c43503610ae2576101c43560e08301526101e4358015158103610b2957610100830152610204358015158103610b2957610120830152610224358015158103610b2957610140830152610244358015158103610b2957610160830152610264358015158103610b2957610180830152610284358015158103610b29576101a08301526102a43515156102a43503610ae2576102a4356101c08301526102c43515156102c43503610ae2576102c4356101e08301526102e4356001600160a01b0381169003610ae2576102e4356102008301526103043561022083015286908051610c14575b6020810151610c09575b60400151610c01575b61271061012435810311610bed57606082015161271003906127108211610bd957906102209160018260381b610124356127100360281b6101043560181b8460081b17171717916080850151610ba6575b505060a0830151610b9b575b60c0830151610b90575b60e0830151610b85575b610100830151610b7a575b610120830151610b6f575b610140830151610b64575b610160830151610b59575b610180830151610b4e575b6101a0830151610b43575b6101c0830151610b38575b6101e0830151610b2d575b600160541b600160f41b0361020084015160541b161791015160f41b17926040519363a249d42560e01b8552600435600486015260243560248601526044356044860152606435606486015260843560018060a01b038116809103610b2957608486015260a48501526103243560c48501526101208460e481897f00000000000000000000000000000000000000000000000000000000000000006001600160a01b03165af1938415610a61578694610ae6575b506020840151907f00000000000000000000000000000000000000000000000000000000000000006001600160a01b03163b15610ae25790869060405192839163796d225b60e11b83526064830190600435600485015260248401526060604484015281518091526084830190602060848260051b86010193019185905b828210610a6c5750505090829003905081837f00000000000000000000000000000000000000000000000000000000000000006001600160a01b03165af18015610a6157610a4e575b50845b82518110156109ef5761081a8184614d5c565b5160408101519091906001600160e81b03106109dd5762ffffff6060830151116109cb5760808201516001600160e81b03106109b95762ffffff60a0830151116109a757816040600193015180610951575b506080810151806108fa575b50602086015186519060a0604051938680831b0381511685528680831b036020820151166020860152604081015160408601526060810151606086015260808101516080860152015160a08401523360c08401527f8a1c80ab9ab05d6bf02096dd94aa2fa05a9de212e793835a50dd5ffe8d8cbab860e060043594a401610807565b60a082015160e81b17600435895260026020526040892060208801518a5260205260408920848060a01b038351166000526020526040600020848060a01b0360208401511660005260205260406000205538610878565b606082015160e81b176004358952836020526040892060208801518a5260205260408920848060a01b038351166000526020526040600020848060a01b036020840151166000526020526040600020553861086c565b60405163d9b93c2560e01b8152600490fd5b604051635730278360e01b8152600490fd5b604051639583faed60e01b8152600490fd5b60405163a9b8fbcf60e01b8152600490fd5b6020827f1a08ad37c93969a586fd0605d240c17113b20a9c9ac3847595d0ab425225f6af878388015192610a3d6040519283928684526004358885015260806040850152608084019161414b565b3360608301520390a1604051908152f35b610a5a90959195613b14565b9338610804565b6040513d88823e3d90fd5b92955092909350608319868203018252845160206060816040850193805186520151936040838201528451809452019201908c905b808210610ac2575050506020806001929601920192019285938b95936107bb565b909192602060e082610ad76001948851614d86565b019401920190610aa1565b8680fd5b909350610120903d61012011610b21575b610b018282613b74565b610120818381010312610ae257610b1a918101906140ba565b923861073d565b3d9150610af7565b8780fd5b600160531b17610689565b600160521b1761067e565b600160511b17610673565b600160501b17610668565b6001604f1b1761065d565b6001604e1b17610652565b6001604d1b17610647565b6001604c1b1761063c565b6001604b1b17610631565b6001604a1b17610627565b600160491b1761061d565b6901000000000000000001925060381b90610124356127100360281b906101043560181b9060081b171717173880610611565b634e487b7160e01b88526011600452602488fd5b634e487b7160e01b87526011600452602487fd5b6004176105c0565b6002909117906105b7565b600191506105ad565b8580fd5b604051636edf8de360e11b8152600490fd5b604051639db9ee9360e01b8152600490fd5b604051635623289560e01b8152600490fd5b610c79915060203d602011610c7f575b610c718183613b74565b8101906143bf565b386103c4565b503d610c67565b8480fd5b8380fd5b5080fd5b50346101e457610ca136613f51565b6040516375b0d9cd60e01b815260048101839052602093919290919084836024817f00000000000000000000000000000000000000000000000000000000000000006001600160a01b03165afa928315610d4e578293610d1b575b5061019a936040838593610d1595528088522054614dd6565b90613f97565b9192508482813d8311610d47575b610d338183613b74565b810103126101cc579051919061019a610cfc565b503d610d29565b6040513d84823e3d90fd5b50346101e457600319906103e0368301126101e457610d76613bc0565b916001600160401b0360243511610c8e57604090602435360301126101e45760803660431901126101e4576102803660c31901126101e457610364356001600160401b038111610c8e57610dce903690600401613ae4565b9290610384356001600160401b038111610c8a57610df0903690600401613f67565b91906103a4356001600160401b038111610c1d57610e12903690600401613ca5565b916001600160401b036103c43511610c1d57610e34366103c435600401613d51565b96604051956303336c3d60e51b875260018060a01b031660048701526040602487015260243560040135602219602435360301811215610b2957602435016001600160401b03600482013511610b2957600481013536036024820113610b29578680610eb660209360406044840152608483019060246004820135910161414b565b602480350135606483015203818a7f00000000000000000000000000000000000000000000000000000000000000006001600160a01b03165af195861561186357879661182f575b507f00000000000000000000000000000000000000000000000000000000000000006001600160a01b03163b15610ae2576040516338a73f9960e11b8152600481018790523060248201528781604481836001600160a01b037f0000000000000000000000000000000000000000000000000000000000000000165af1801561165f5790889161181b575b5050610fa39291610f9b91369161416c565b933691613bd6565b906000956127106101243511610c45576127106101443511610c33576127106101643511610c2157604051610fd781613b58565b60603660c3190112610b2957604051610fef81613b3d565b60c435801515810361172757815260e435151560e435036116e05760e435602082015261010435151561010435036116e0576101043560408201528082526101243560208301526101443560408301526101643560608301526101843580151581036117275760808301526101a43515156101a435036116e0576101a43560a08301526101c43515156101c435036116e0576101c43560c08301526101e43515156101e435036116e0576101e43560e083015261020435801515810361172757610100830152610224358015158103611727576101208301526102443580151581036117275761014083015261026435801515810361172757610160830152610284358015158103611727576101808301526102a4358015158103611727576101a08301526102c43515156102c435036116e0576102c4356101c08301526102e43515156102e435036116e0576102e4356101e0830152610304356001600160a01b03811690036116e057610304356102008301526103243561022083015288908051611812575b6020810151611807575b604001516117ff575b612710610144358103116117eb576060820151612710039061271082116117d757906102209160018260381b610144356127100360281b6101243560181b8460081b171717179160808501516117a4575b505060a0830151611799575b60c083015161178e575b60e0830151611783575b610100830151611778575b61012083015161176d575b610140830151611762575b610160830151611757575b61018083015161174c575b6101a0830151611741575b6101c0830151611736575b6101e083015161172b575b600160541b600160f41b0361020084015160541b161791015160f41b17936040519463a249d42560e01b865286600487015260443560248701526064356044870152608435606487015260a43560018060a01b03811680910361172757608487015260a48601526103443560c48601526101208560e4818b7f00000000000000000000000000000000000000000000000000000000000000006001600160a01b03165af194851561165f5788956116e4575b506020850151907f00000000000000000000000000000000000000000000000000000000000000006001600160a01b03163b156116e05790889060405192839163796d225b60e11b835260648301908a600485015260248401526060604484015281518091526084830190602060848260051b86010193019185905b82821061166a5750505090829003905081837f00000000000000000000000000000000000000000000000000000000000000006001600160a01b03165af1801561165f5761164c575b50865b835181101561155a576113e08185614d5c565b519060018060e81b03806040840151116109dd5762ffffff90816060850151116109cb576080840151116109b95760a0830151116109a75786826040600194015180611506575b506080810151806114b1575b5060208801517f8a1c80ab9ab05d6bf02096dd94aa2fa05a9de212e793835a50dd5ffe8d8cbab860e08a519360a0604051918980831b0381511683528980831b036020820151166020840152604081015160408401526060810151606084015260808101516080840152015160a08201523360c0820152a4016113cd565b60a082015160e81b17828c52600260205260408c2060208a01518d5260205260408c20858060a01b038351166000526020526040600020858060a01b0360208401511660005260205260406000205538611433565b606082015160e81b17828c528460205260408c2060208a01518d5260205260408c20858060a01b038351166000526020526040600020858060a01b0360208401511660005260205260406000205538611427565b5084908660208601519380516115ae575b6020847ff3e6948ba8b32d557363ea08470121c47c0127659aed09320812174d373afef287866115a36040519283928633928561438c565b0390a1604051908152f35b7f00000000000000000000000000000000000000000000000000000000000000006001600160a01b03163b15610c8e57816115fe916040518093819263104373fb60e31b835288600484016142ff565b0381837f00000000000000000000000000000000000000000000000000000000000000006001600160a01b03165af18015610d4e571561156b576116428291613b14565b6101e4578061156b565b61165890979197613b14565b95386113ca565b6040513d8a823e3d90fd5b929550929093506083198682030182528c85516020606081604086019380518752015194604083820152855180945201930191905b8082106116c0575050506020806001929601920192019285938d9593611381565b909192602060e0826116d56001948851614d86565b01940192019061169f565b8880fd5b909450610120903d6101201161171f575b6116ff8282613b74565b6101208183810103126116e057611718918101906140ba565b9338611305565b3d91506116f5565b8980fd5b600160531b17611253565b600160521b17611248565b600160511b1761123d565b600160501b17611232565b6001604f1b17611227565b6001604e1b1761121c565b6001604d1b17611211565b6001604c1b17611206565b6001604b1b176111fb565b6001604a1b176111f1565b600160491b176111e7565b6901000000000000000001925060381b90610144356127100360281b906101243560181b9060081b1717171738806111db565b634e487b7160e01b8a52601160045260248afd5b634e487b7160e01b89526011600452602489fd5b60041761118a565b600290911790611181565b60019150611177565b61182490613b14565b610ae2578638610f89565b9095506020813d60201161185b575b8161184b60209383613b74565b810103126101cc57519438610efe565b3d915061183e565b6040513d89823e3d90fd5b50346101e457806003193601126101e4576040517f00000000000000000000000000000000000000000000000000000000000000006001600160a01b03168152602090f35b50346101e4576118c236613f51565b6118cd929192613fba565b506118d661402f565b5060405163334f245560e11b8152600481019390935260248301526101209081836044817f00000000000000000000000000000000000000000000000000000000000000006001600160a01b03165afa92831561199d57819361195d575b6103a08461195b8561194583614fc8565b906119536040518095613d6f565b830190613dcd565bf35b909250813d8311611996575b6119738183613b74565b81019282828503126101e457506119906103a09361195b926140ba565b92611934565b503d611969565b50604051903d90823e3d90fd5b50346101e457806003193601126101e4576040517f00000000000000000000000000000000000000000000000000000000000000006001600160a01b03168152602090f35b50346101e45760c03660031901126101e4576044356001600160a01b03811690036101cc576064356001600160401b038111610c8e57611a33903690600401613ecf565b611a3e929192613efc565b60a435151560a435036101cc5782602435156120e8576040516321d1336160e11b8152600480359082015291610120836024817f00000000000000000000000000000000000000000000000000000000000000006001600160a01b03165afa928315610d4e5782936120a8575b506040516331a9108f60e11b815260048035908201526020816024817f00000000000000000000000000000000000000000000000000000000000000006001600160a01b03165afa908115611e84578391612089575b50604051636e49181f60e01b815260048035908201523360248201526020816044816001600160a01b037f0000000000000000000000000000000000000000000000000000000000000000165afa90811561207e578491612044575b508015612027575b159081612013575b81611f5f575b81611ea1575b50611e8f57600180610100850151604c1c16141580611de7575b80611dc9575b611db75760a43515611db05761ffff61010084015160181c16925b811515600103611d9b57505b612710838103611c69575050602094611c209160043581528087526040611bf581832054611bef602435615130565b906143f8565b91600435815280895220555b604051936024358552858786015260a0604086015260a085019161414b565b9060608301523360808301527fe6fee9c572244c0c2238c3112ac12d411750a7ee00eeebd32521c3e5a666c14b600435928060018060a01b0360443516930390a3604051908152f35b909450828103908111611d8757611c8290602435615197565b938215611d32575b7f00000000000000000000000000000000000000000000000000000000000000006001600160a01b031690813b15611d2e576040516333b774f960e21b8152604480356001600160a01b03166004808401919091523560248301528101879052901515606482015290829082908183816084810103925af18015610d4e57611d1a575b5050611c20602094611c01565b611d248291613b14565b6101e45780611d0d565b8280fd5b6004358252816020526040822054611d4986615130565b90838282019283129112908015821691151617611d73576004358352826020526040832055611c8a565b634e487b7160e01b83526011600452602483fd5b634e487b7160e01b82526011600452602482fd5b600191506101008291015160501c1614611bc0565b8192611bb4565b604051639d0ca8fd60e01b8152600490fd5b506101008301513360549190911c6001600160a01b03161415611b99565b50604051636e49181f60e01b815260048035908201523360248201526020816044816001600160a01b037f0000000000000000000000000000000000000000000000000000000000000000165afa908115611e84578391611e4a575b5015611b93565b90506020813d602011611e7c575b81611e6560209383613b74565b81010312611d2e57611e76906143de565b38611e43565b3d9150611e58565b6040513d85823e3d90fd5b60405163075fd2b160e01b8152600490fd5b60405163c161c93f60e01b81523360048201526001600160a01b03918216602482015260006044820152600960648201529150602090829060849082907f0000000000000000000000000000000000000000000000000000000000000000165afa908115611f5357600091611f19575b501538611b79565b906020823d602011611f4b575b81611f3360209383613b74565b810103126101e45750611f45906143de565b38611f11565b3d9150611f26565b6040513d6000823e3d90fd5b905060405163c161c93f60e01b815233600482015260018060a01b038216602482015260043560448201526009606482015260208160848160018060a01b037f0000000000000000000000000000000000000000000000000000000000000000165afa908115611f5357600091611fd9575b501590611b73565b906020823d60201161200b575b81611ff360209383613b74565b810103126101e45750612005906143de565b38611fd1565b3d9150611fe6565b336001600160a01b03821614159150611b6d565b506101008401513360549190911c6001600160a01b031614611b65565b90506020813d602011612076575b8161205f60209383613b74565b81010312610c8a57612070906143de565b38611b5d565b3d9150612052565b6040513d86823e3d90fd5b6120a2915060203d602011610c7f57610c718183613b74565b38611b01565b9092506101203d610120116120e1575b6120c28183613b74565b81019061012081830312611d2e57906120da916140ba565b9138611aab565b503d6120b8565b6040516327f44f9560e21b8152600490fd5b50346101e45760203660031901126101e457612114613fba565b5061211d61402f565b506040516321d1336160e11b81526004803590820152906101209081836024817f00000000000000000000000000000000000000000000000000000000000000006001600160a01b03165afa92831561199d57819361195d576103a08461195b8561194583614fc8565b50346101e45760409061219936613f18565b9492849291945260026020528282209082526020522060018060a01b03809216600052602052604060002091166000526020526040806000205481519060018060e81b038116825260e81c6020820152f35b50346101e457806003193601126101e4576040517f00000000000000000000000000000000000000000000000000000000000000006001600160a01b03168152602090f35b50346101e457806003193601126101e4576040517f00000000000000000000000000000000000000000000000000000000000000006001600160a01b03168152602090f35b50346101e45760403660031901126101e4576004356001600160a01b03602480358281169290839003610c86576040516331a9108f60e11b81526004810185905260209290838183817f000000000000000000000000000000000000000000000000000000000000000087165afa80156118635783918891612769575b50168033141590816126cc575b8161262e575b50611e8f57817f00000000000000000000000000000000000000000000000000000000000000001690604051632eec7b5560e11b815286600482015284818381865afa90811561165f578891612611575b5083309116036125ff576040516321d1336160e11b815260048101879052610120808284817f000000000000000000000000000000000000000000000000000000000000000089165afa9182156125f45789926125b5575b5050600161010081920151604e1c16036125a35786928684528385528184604081205412918215612509575b50506124be575b50833b15610c8e57604051633e8c615b60e01b815260048101869052306024820152828160448183895af1908115611e845783916124aa575b5050803b15610c8e576040516338a73f9960e11b8152600481018690526001600160a01b03851660248201529082908290604490829084905af18015610d4e57612496575b50507f01f954abace731a88ab86e71186040cc2be49fe517ea06bc0d24f25b82b834569160409182519182523390820152a2604051f35b61249f90613b14565b610c8a57833861245f565b6124b390613b14565b610c8e57813861241a565b604051919250838201906001600160401b038211838310176124f557508692916124ee9160405283815286614411565b50386123e1565b634e487b7160e01b60009081526041600452fd5b90915085604086205491604051938480926375b0d9cd60e01b82528c60048301527f0000000000000000000000000000000000000000000000000000000000000000165afa918215612598578592612566575b50141581386123da565b945090508484813d8111612591575b61257f8183613b74565b810103126101cc57879351903861255c565b503d612575565b6040513d87823e3d90fd5b6040516346ace3f960e01b8152600490fd5b908092503d83116125ed575b6125cb8183613b74565b810191818303126116e0576101006125e660019384936140ba565b92506123ae565b503d6125c1565b6040513d8b823e3d90fd5b60405163e0a0a87d60e01b8152600490fd5b6126289150853d8711610c7f57610c718183613b74565b38612356565b90506040519063c161c93f60e01b82523360048301528282015260006044820152600360648201528381608481867f0000000000000000000000000000000000000000000000000000000000000000165afa908115611f5357600091612697575b501538612305565b908482813d83116126c5575b6126ad8183613b74565b810103126101e457506126bf906143de565b3861268f565b503d6126a3565b905060405163c161c93f60e01b81523360048201528183820152866044820152600360648201528481608481877f0000000000000000000000000000000000000000000000000000000000000000165afa908115611f5357600091612734575b5015906122ff565b908582813d8311612762575b61274a8183613b74565b810103126101e4575061275c906143de565b3861272c565b503d612740565b6127809150853d8711610c7f57610c718183613b74565b386122f2565b50346101e45760403660031901126101e4576004356001600160a01b03602435818116908190036101cc57604051632eec7b5560e11b8152600481018490526020929083816024817f000000000000000000000000000000000000000000000000000000000000000086165afa908115610a61578691612901575b50811630146128ef5782602491604051928380926375b0d9cd60e01b82528860048301527f0000000000000000000000000000000000000000000000000000000000000000165afa9081156125985785916128a0575b50907ff389f4f5d01fe4903d6a7a63b8790b7bf80d374b6afed808c03795c3b323d4d392612886604093615130565b8587528682528387205582519182523390820152a2604051f35b9190508282813d83116128e8575b6128b88183613b74565b810103126101cc5790517ff389f4f5d01fe4903d6a7a63b8790b7bf80d374b6afed808c03795c3b323d4d3612857565b503d6128ae565b604051637e16712d60e11b8152600490fd5b6129189150843d8611610c7f57610c718183613b74565b38612801565b50346101e457806003193601126101e4576040517f00000000000000000000000000000000000000000000000000000000000000006001600160a01b03168152602090f35b50346101e45760203660031901126101e45761297d613fba565b5061298661402f565b5060405163ebc8ca1f60e01b815260048035908201526101409081816024817f00000000000000000000000000000000000000000000000000000000000000006001600160a01b03165afa908115611e845783928492612a31575b5050612a076129ef83614fc8565b6129fc6040518095613d6f565b610120840190613dcd565b6003811015612a1d576103c092506103a0820152f35b634e487b7160e01b83526021600452602483fd5b91509150803d8211612a75575b612a488184613b74565b82019082820312611d2e57612a6061012091836140ba565b910151906003821015611d2e579038806129e1565b503d612a3e565b50346101e45760a03660031901126101e457612a96613bc0565b602435906044356064356001600160401b038111610c8657612abf612b24913690600401613ecf565b612aca939193613efc565b604051636e49181f60e01b808252600482018990523360248301526020956001600160a01b039493927f00000000000000000000000000000000000000000000000000000000000000008616918890829081906044820190565b0381855afa908115612f2b578c91612ef2575b501580612ee6575b80612e47575b80612da8575b611e8f578515612d96578a604051916321d1336160e11b83528b600484015261012080846024818b7f0000000000000000000000000000000000000000000000000000000000000000165afa908115611e84578a948e9492612d4e575b5050600161010081920151604b1c16149384612cd5575b50505050612cc3578890888252818652612be06040832054611bef87615130565b8983528287526040832055837f000000000000000000000000000000000000000000000000000000000000000016803b15611d2e5760405163906ebd0f60e01b81526001600160a01b038a166004820152602481018b905260448101879052911515606483015282908290608490829084905af18015610d4e57612caf575b50507fdf04e13ee4fcd48a81ab2fd114757093740a3efa9b6475d86e05878b4c59d07994612c9e9160606040519687968752860152606085019161414b565b9433604084015216930390a3604051f35b612cb890613b14565b610b29578738612c5f565b604051630f1490e360e31b8152600490fd5b6040519081526004810192909252336024830152909250829060449082905afa908115612d43578a91612d0e575b501585893880612bbf565b90508581813d8311612d3c575b612d258183613b74565b8101031261172757612d36906143de565b38612d03565b503d612d1b565b6040513d8c823e3d90fd5b9350935050823d8411612d8f575b612d668184613b74565b82019282840312612d8b57600180610100612d848f95968d976140ba565b9250612ba8565b8c80fd5b503d612d5c565b604051637b38547b60e01b8152600490fd5b5060405163c161c93f60e01b8152336004820152898616602482015260006044820152600a606482015287816084817f00000000000000000000000000000000000000000000000000000000000000008a165afa908115611f5357600091612e12575b5015612b4b565b908882813d8311612e40575b612e288183613b74565b810103126101e45750612e3a906143de565b38612e0b565b503d612e1e565b5060405163c161c93f60e01b81523360048201528986166024820152604481018b9052600a606482015287816084817f00000000000000000000000000000000000000000000000000000000000000008a165afa908115611f5357600091612eb1575b5015612b45565b908882813d8311612edf575b612ec78183613b74565b810103126101e45750612ed9906143de565b38612eaa565b503d612ebd565b50848916331415612b3f565b90508781813d8311612f24575b612f098183613b74565b81010312612f2057612f1a906143de565b38612b37565b8b80fd5b503d612eff565b6040513d8e823e3d90fd5b50346101e45760203660031901126101e457612f50613fba565b50612f5961402f565b50604051630b8aa00f60e31b81526004803590820152906101209081836024817f00000000000000000000000000000000000000000000000000000000000000006001600160a01b03165afa92831561199d57819361195d576103a08461195b8561194583614fc8565b50346101e4576103c03660031901126101e45760803660231901126101e4576102803660a31901126101e4576001600160401b039061034435828111610c8e57613011903690600401613ae4565b9061036435848111610c8a5736602382011215610c8a5761303c903690602481600401359101613bd6565b9061038435858111610c8657613056903690600401613ca5565b946103a435908111610c8657613070903690600401613d51565b6040516331a9108f60e11b815260048035908201529093906020816024817f00000000000000000000000000000000000000000000000000000000000000006001600160a01b03165afa908115610a6157906130d6918791610c57575060043590614e58565b604051632cee6deb60e01b815260048035908201526020816024817f00000000000000000000000000000000000000000000000000000000000000006001600160a01b03165afa908115610a61578691613a2d575b50613a18577f00000000000000000000000000000000000000000000000000000000000000006001600160a01b03163b15610c86576040516338a73f9960e11b815260048035908201523060248201528581604481836001600160a01b037f0000000000000000000000000000000000000000000000000000000000000000165af18015610a6157613a01575b50906131c591369161416c565b916000946127106101043511610c45576127106101243511610c33576127106101443511610c21576040516131f981613b58565b60603660a3190112610ae25760405161321181613b3d565b60a43580151581036116e057815260c435151560c43503610b295760c435602082015260e435151560e43503610b295760e43560408201528082526101043560208301526101243560408301526101443560608301526101643580151581036116e05760808301526101843515156101843503610b29576101843560a08301526101a43515156101a43503610b29576101a43560c08301526101c43515156101c43503610b29576101c43560e08301526101e43580151581036116e0576101008301526102043580151581036116e0576101208301526102243580151581036116e0576101408301526102443580151581036116e0576101608301526102643580151581036116e0576101808301526102843580151581036116e0576101a08301526102a43515156102a43503610b29576102a4356101c08301526102c43515156102c43503610b29576102c4356101e08301526102e4356001600160a01b0381169003610b29576102e43561020083015261030435610220830152879080516139f8575b60208101516139ed575b604001516139e5575b61271061012435810311610bd9576060820151612710039061271082116117eb57906102209160018260381b610124356127100360281b6101043560181b8460081b171717179160808501516139b2575b505060a08301516139a7575b60c083015161399c575b60e0830151613991575b610100830151613986575b61012083015161397b575b610140830151613970575b610160830151613965575b61018083015161395a575b6101a083015161394f575b6101c0830151613944575b6101e0830151613939575b600160541b600160f41b0361020084015160541b161791015160f41b17936040519463a249d42560e01b8652600435600487015260243560248701526044356044870152606435606487015260843560018060a01b0381168091036116e057608487015260a48601526103243560c48601526101208560e4818a7f00000000000000000000000000000000000000000000000000000000000000006001600160a01b03165af19485156118635787956138f6575b506020850151907f00000000000000000000000000000000000000000000000000000000000000006001600160a01b03163b15610b295790879060405192839163796d225b60e11b83526064830190600435600485015260248401526060604484015281518091526084830190602060848260051b86010193019185905b8282106138805750505090829003905081837f00000000000000000000000000000000000000000000000000000000000000006001600160a01b03165af180156118635761386d575b50855b8351811015613784576136038185614d5c565b519060018060e81b03806040840151116109dd5762ffffff90816060850151116109cb576080840151116109b95760a0830151116109a75781604060019301518061372e575b506080810151806136d7575b50602087015187519060a0604051938680831b0381511685528680831b036020820151166020860152604081015160408601526060810151606086015260808101516080860152015160a08401523360c08401527f8a1c80ab9ab05d6bf02096dd94aa2fa05a9de212e793835a50dd5ffe8d8cbab860e060043594a4016135f0565b60a082015160e81b176004358a52600260205260408a2060208901518b5260205260408a20848060a01b038351166000526020526040600020848060a01b0360208401511660005260205260406000205538613655565b606082015160e81b176004358a528360205260408a2060208901518b5260205260408a20848060a01b038351166000526020526040600020848060a01b0360208401511660005260205260406000205538613649565b508460208501519180516137cd575b6020837f8621c3692c18d8ddd4cd26457d6a3e1d916e7001c4243a6c8dfa862a7e10a8236115a3876040519182913390600435878561438c565b7f00000000000000000000000000000000000000000000000000000000000000006001600160a01b03163b15610c8e578161381f916040518093819263104373fb60e31b8352600435600484016142ff565b0381837f00000000000000000000000000000000000000000000000000000000000000006001600160a01b03165af18015610d4e5715613793576138638291613b14565b6101e45780613793565b61387990969196613b14565b94386135ed565b92955092909350608319868203018252845160206060816040850193805186520151936040838201528451809452019201908d905b8082106138d6575050506020806001929601920192019285938c95936135a4565b909192602060e0826138eb6001948851614d86565b0194019201906138b5565b909450610120903d61012011613931575b6139118282613b74565b610120818381010312610b295761392a918101906140ba565b9338613526565b3d9150613907565b600160531b17613472565b600160521b17613467565b600160511b1761345c565b600160501b17613451565b6001604f1b17613446565b6001604e1b1761343b565b6001604d1b17613430565b6001604c1b17613425565b6001604b1b1761341a565b6001604a1b17613410565b600160491b17613406565b6901000000000000000001925060381b90610124356127100360281b906101043560181b9060081b1717171738806133fa565b6004176133a9565b6002909117906133a0565b60019150613396565b94613a106131c5939296613b14565b9490916131b8565b60405160016217a1f760e11b03198152600490fd5b90506020813d602011613a57575b81613a4860209383613b74565b81010312610c1d57513861312b565b3d9150613a3b565b905034610c8e576020366003190112610c8e5760043563ffffffff60e01b8116809103611d2e57602092506385e3689960e01b8114908115613ad3575b8115613ac2575b8115613ab1575b5015158152f35b6301ffc9a760e01b14905038613aaa565b63ad007d6360e01b81149150613aa3565b633e8c615b60e01b81149150613a9c565b9181601f840112156101cc578235916001600160401b0383116101cc576020808501948460051b0101116101cc57565b6001600160401b038111613b2757604052565b634e487b7160e01b600052604160045260246000fd5b606081019081106001600160401b03821117613b2757604052565b61024081019081106001600160401b03821117613b2757604052565b90601f801991011681019081106001600160401b03821117613b2757604052565b6001600160401b038111613b275760051b60200190565b35906001600160a01b03821682036101cc57565b600435906001600160a01b03821682036101cc57565b929192613be282613b95565b604094613bf186519283613b74565b819584835260208093019160c08096028501948186116101cc57925b858410613c1d5750505050505050565b86848303126101cc57825190878201908282106001600160401b03831117613c9057889287928652613c4e87613bac565b8152613c5b838801613bac565b838201528587013586820152606080880135908201526080808801359082015260a08088013590820152815201930192613c0d565b60246000634e487b7160e01b81526041600452fd5b81601f820112156101cc57803591613cbc83613b95565b92613cca6040519485613b74565b808452602092838086019260051b8201019283116101cc578301905b828210613cf4575050505090565b838091613d0084613bac565b815201910190613ce6565b9291926001600160401b038211613b275760405191613d34601f8201601f191660200184613b74565b8294818452818301116101cc578281602093846000960137010152565b9080601f830112156101cc57816020613d6c93359101613d0b565b90565b805182526020810151602083015260408101516040830152606081015160608301526080810151608083015260a081015160a083015260c081015160c083015260018060a01b0360e08201511660e083015261010080910151910152565b61026090604081518051151585526020810151151560208601520151151560408401526020810151606084015260408101516080840152606081015160a08401526080810151151560c084015260a0810151151560e084015260c0810151151590610100918285015260e081015115159161012092838601528101511515916101409283860152810151151591610160928386015281015115159161018092838601528101511515916101a092838601528101511515916101c092838601528101511515916101e092838601528101511515916102009283860152810151151591610220928386015260018060a01b0390820151166102408501520151910152565b9181601f840112156101cc578235916001600160401b0383116101cc57602083818601950101116101cc57565b6084359081151582036101cc57565b359081151582036101cc57565b60809060031901126101cc5760043590602435906001600160a01b039060443582811681036101cc579160643590811681036101cc5790565b60409060031901126101cc576004359060243590565b9181601f840112156101cc578235916001600160401b0383116101cc5760208085019460c085020101116101cc57565b91908201809211613fa457565b634e487b7160e01b600052601160045260246000fd5b6040519061012082018281106001600160401b03821117613b2757604052816101006000918281528260208201528260408201528260608201528260808201528260a08201528260c08201528260e08201520152565b6040519061401d82613b3d565b60006040838281528260208201520152565b6040519061403c82613b58565b81614045614010565b81526102206000918260208201528260408201528260608201528260808201528260a08201528260c08201528260e08201528261010082015282610120820152826101408201528261016082015282610180820152826101a0820152826101c0820152826101e0820152826102008201520152565b80929161012091829103126101cc576040519081018181106001600160401b03821117613b27576040528092805182526020810151602083015260408101516040830152606081015160608301526080810151608083015260a081015160a083015260c081015160c083015260e081015160018060a01b03811681036101cc5760e083015261010080910151910152565b908060209392818452848401376000828201840152601f01601f1916010190565b9291909261417984613b95565b9060409461418986519384613b74565b829581845260208094019160051b8301928584116101cc5780925b8484106141b45750505050505050565b6001600160401b0384358181116101cc5783019084828a03126101cc5784519185830183811083821117613c905786528035835288810135908282116101cc570189601f820112156101cc5780359061420c82613b95565b9261421988519485613b74565b8284528a8401908b60e0809502840101928d84116101cc57918d979593918d8098969401915b83831061425d575050505050838095508201528152019301926141a4565b91849698508094919395979903126101cc57895185810181811084821117613c90578b5261428a84613f0b565b81528d614298818601613f0b565b90820152838b01358b820152606080850135908201526001600160a01b03916080808601359084821682036101cc5783015260a0808601359083015260c0918286013593841684036101cc578f9293889482015281520192018d979593918d97959361423f565b9060609160408101918152602092816040858094015285518094520193019160005b82811061432f575050505090565b83516001600160a01b031685529381019392810192600101614321565b919082519283825260005b848110614378575050826000602080949584010152601f8019910116010190565b602081830181015184830182015201614357565b926060926143af929695968552602085015260806040850152608084019061434c565b6001600160a01b03909416910152565b908160209103126101cc57516001600160a01b03811681036101cc5790565b519081151582036101cc57565b91908203918211613fa457565b81810392916000138015828513169184121617613fa457565b6040516321d1336160e11b8152600481018290529291610120846024817f00000000000000000000000000000000000000000000000000000000000000006001600160a01b03165afa938415611f5357600094614d1b575b506040516375b0d9cd60e01b815260048101839052936020856024817f00000000000000000000000000000000000000000000000000000000000000006001600160a01b03165afa948515611f5357600095614ce7575b508260005260006020526144f96144f46144ed8760406000205461ffff61010087015160181c1690614dd6565b8097613f97565b615130565b8360005260006020526040600020556040516331a9108f60e11b815283600482015260208160248160018060a01b037f0000000000000000000000000000000000000000000000000000000000000000165afa908115611f5357600091614cc8575b506000866146a7575060005b806145d1575b7fb12d7a78048433f69fe6d30145bf08aad8e82985b96e4db6d5c6a7e94d57086e916145c6602085015194519560405193849360018060a01b031684528a6020850152604084015260a0606084015260a083019061434c565b3360808301520390a4565b7f00000000000000000000000000000000000000000000000000000000000000006001600160a01b03163b156101cc57604051916333b774f960e21b835260018060a01b0381166004840152856024840152816044840152600060648401526000836084818360018060a01b037f0000000000000000000000000000000000000000000000000000000000000000165af1928315611f53577fb12d7a78048433f69fe6d30145bf08aad8e82985b96e4db6d5c6a7e94d57086e93614698575b50915061456d565b6146a190613b14565b38614690565b60208301516040516369e11cc560e01b81526004810187905260248101829052600260448201529097929692949193859391929085846064817f00000000000000000000000000000000000000000000000000000000000000006001600160a01b03165afa938415610a61578694614b68575b50855b8451811015614b59578a896147328388614d5c565b5161474160408201518c61521f565b80614794575b917f990c1da5d280602f972ae3c429b6dc66a66569875205cc6e67f14e0b3fc4d2ac61012060019695936002956147816040518093614d86565b60e082015233610100820152a40161471d565b60c082015190999193509091506001600160a01b031615614ab45760c08201516001600160a01b03165b825115157f00000000000000000000000000000000000000000000000000000000000000006001600160a01b03163b15614a8e576040516333b774f960e21b81526001600160a01b039092166004830152602482018d9052604482018a905215156064820152898180608481010381837f00000000000000000000000000000000000000000000000000000000000000006001600160a01b03165af18015612d43578c928f94928b92614aa5575b5060c08301516001600160a01b0316806148c7575b5061012060019695936148b8600296947f990c1da5d280602f972ae3c429b6dc66a66569875205cc6e67f14e0b3fc4d2ac946143eb565b9c939550939596505050614747565b9294509250506040519063ea78803f60e01b82528c600483015260208260248160018060a01b037f0000000000000000000000000000000000000000000000000000000000000000165afa918215614a9a578b92614a52575b50604051918260c08101106001600160401b0360c085011117614a3e5790829160c08f940160405260018060a01b0316825260208201908b82526040830192601284526060810194855260808101600281528760a0830152823b15614a3a57604051634eba05fd60e11b815282516001600160a01b031660048201529351602485015293516044840152935160648301529151608482015260a0909201518b9183916101849183918591906149d99060a4850190614d86565b5af18015612d43577f990c1da5d280602f972ae3c429b6dc66a66569875205cc6e67f14e0b3fc4d2ac8f92600196958f938d600297610120946148b893614a2b575b5094509496505093959650614881565b614a3490613b14565b38614a1b565b8e80fd5b634e487b7160e01b8c52604160045260248cfd5b9091506020813d602011614a92575b81614a6e60209383613b74565b81010312614a8e57516001600160a01b0381168103614a8e579038614920565b8a80fd5b3d9150614a61565b6040513d8d823e3d90fd5b614aae90613b14565b3861486c565b60608201518015614b39576040516331a9108f60e11b815260048101919091526020816024817f00000000000000000000000000000000000000000000000000000000000000006001600160a01b03165afa908115612d43578a91614b1a575b506147be565b614b33915060203d602011610c7f57610c718183613b74565b38614b14565b5060808201516001600160a01b03168015156000036147be5750336147be565b50945094975095919050614567565b9093503d8087833e614b7a8183613b74565b6020828281010312610ae2578151906001600160401b038211610b2957808301601f838501011215610b29578183015190614bb482613b95565b93614bc26040519586613b74565b8285526020850193828201602060e08602838501010111614a8e57602081830101945b602060e0860283850101018610614c0357505050505050923861471a565b60e0868585010312612f20576040518060e08101106001600160401b0360e083011117614cb45760e08101604052614c3a876143de565b8152614c48602088016143de565b6020820152604087810151908201526060808801519082015260808701516001600160a01b0381168103614cb057608082015260a0878101519082015260c080880151906001600160a01b0382168203614a3a57820152815260e09590950194602001614be5565b8d80fd5b634e487b7160e01b8d52604160045260248dfd5b614ce1915060203d602011610c7f57610c718183613b74565b3861455b565b90946020823d602011614d13575b81614d0260209383613b74565b810103126101e457505193386144c0565b3d9150614cf5565b6101209491943d61012011614d55575b614d358183613b74565b810191610120828403126101e4575090614d4e916140ba565b9238614469565b503d614d2b565b8051821015614d705760209160051b010190565b634e487b7160e01b600052603260045260246000fd5b60c09080511515835260208101511515602084015260408101516040840152606081015160608401528160018060a01b039182608082015116608086015260a081015160a0860152015116910152565b60009392848212614e2657614ded929394506143eb565b8015614e1f5761271091828114614e19578203918211613fa457614e14613d6c928261528d565b6143eb565b50905090565b5050600090565b90600160ff1b8114614e4457614e3f9293940390613f97565b614ded565b634e487b7160e01b85526011600452602485fd5b6001600160a01b03908116338114159283614f23575b5082614e7d575b5050611e8f57565b602091925060846040518094819363c161c93f60e01b8352336004840152602483015260006044830152600160648301527f0000000000000000000000000000000000000000000000000000000000000000165afa908115611f5357600091614eea575b50153880614e75565b906020823d8211614f1b575b81614f0360209383613b74565b810103126101e45750614f15906143de565b38614ee1565b3d9150614ef6565b9092506040519063c161c93f60e01b8252336004830152836024830152604482015260016064820152602081608481857f0000000000000000000000000000000000000000000000000000000000000000165afa908115611f5357600091614f8f575b50159138614e6e565b906020823d8211614fc0575b81614fa860209383613b74565b810103126101e45750614fba906143de565b38614f86565b3d9150614f9b565b614fd061402f565b50614fd9614010565b50610100809101805191614feb614010565b5060405192614ff984613b3d565b600180828180809560081c1614875281808260091c16146020880152600a1c1614604085015282519161ffff61271090808560281c16820390828211613fa45780875160381c168303928311613fa45760ff9651956040519861505b8a613b58565b895260181c1660208801526040870152606086015281808460481c1614608086015281808460491c161460a0860152818084604a1c161460c0860152818084604b1c161460e0860152818084604c1c161490850152808083604d1c1614610120850152808083604e1c1614610140850152808083604f1c161461016085015280808360501c161461018085015280808360511c16146101a085015280808360521c16146101c0850152808260531c16146101e084015260018060a01b038160541c1661020084015260f41c1661022082015290565b6001600160ff1b0381116151415790565b60405162461bcd60e51b815260206004820152602860248201527f53616665436173743a2076616c756520646f65736e27742066697420696e2061604482015267371034b73a191a9b60c11b6064820152608490fd5b9190600019818409818402918280831092039180830392146152145761271090818310156151f6577fbc01a36e2eb1c432ca57a786c226809d495182a9930be0ded288ce703afb7e9194950990828211900360fc1b910360041c170290565b6044838360405191631dcf306360e21b835260048301526024820152fd5b505061271090049150565b91906000198184098184029182808310920391808303921461528057633b9aca0090818310156151f6577f88f2cfb83100cb4e69e7c79c58b316e597157d372fb9787e8e47ce423a2e9c6d94950990828211900360f71b910360091c170290565b5050633b9aca0090049150565b612710916000198383099280830292838086109503948086039514615325578285101561530757908291096001821901821680920460028082600302188083028203028083028203028083028203028083028203028083028203028092029003029360018380600003040190848311900302920304170290565b6044858460405191631dcf306360e21b835260048301526024820152fd5b505080925015615333570490565b634e487b7160e01b600052601260045260246000fdfea2646970667358221220f569126baaedf45177e9c419268e0b153f867dd4241bd34706b72fa0c4c7bf7e64736f6c63430008100033",
    "linkReferences": {}
  },
  "methodIdentifiers": {
    "burnTokensOf(address,uint256,uint256,string,bool)": "1665bc0f",
    "currentFundingCycleOf(uint256)": "8776c499",
    "directory()": "c41c2f24",
    "distributeReservedTokensOf(uint256,string)": "e867c59c",
    "distributionLimitOf(uint256,uint256,address,address)": "e8db2130",
    "fundingCycleStore()": "557e7155",
    "getFundingCycleOf(uint256,uint256)": "a40bb9c7",
    "latestConfiguredFundingCycleOf(uint256)": "1f510453",
    "launchFundingCyclesFor(uint256,(uint256,uint256,uint256,address),((bool,bool,bool),uint256,uint256,uint256,bool,bool,bool,bool,bool,bool,bool,bool,bool,bool,bool,bool,address,uint256),uint256,(uint256,(bool,bool,uint256,uint256,address,uint256,address)[])[],(address,address,uint256,uint256,uint256,uint256)[],address[],string)": "111d861b",
    "launchProjectFor(address,(string,uint256),(uint256,uint256,uint256,address),((bool,bool,bool),uint256,uint256,uint256,bool,bool,bool,bool,bool,bool,bool,bool,bool,bool,bool,bool,address,uint256),uint256,(uint256,(bool,bool,uint256,uint256,address,uint256,address)[])[],(address,address,uint256,uint256,uint256,uint256)[],address[],string)": "b3c52673",
    "migrate(uint256,address)": "405b84fa",
    "mintTokensOf(uint256,uint256,address,string,bool,bool)": "8ae9c07b",
    "operatorStore()": "ad007d63",
    "overflowAllowanceOf(uint256,uint256,address,address)": "7a81b562",
    "prepForMigrationOf(uint256,address)": "3e8c615b",
    "projects()": "8b79543c",
    "queuedFundingCycleOf(uint256)": "12b37b14",
    "reconfigureFundingCyclesOf(uint256,(uint256,uint256,uint256,address),((bool,bool,bool),uint256,uint256,uint256,bool,bool,bool,bool,bool,bool,bool,bool,bool,bool,bool,bool,address,uint256),uint256,(uint256,(bool,bool,uint256,uint256,address,uint256,address)[])[],(address,address,uint256,uint256,uint256,uint256)[],string)": "badbdf28",
    "reservedTokenBalanceOf(uint256,uint256)": "f033b3b4",
    "splitsStore()": "2bdfe004",
    "supportsInterface(bytes4)": "01ffc9a7",
    "tokenStore()": "61930630",
    "totalOutstandingTokensOf(uint256,uint256)": "b5f1e34d"
  },
  "id": 48
}