{
  "abi": [
    {
      "inputs": [
        {
          "internalType": "contract IERC20Metadata",
          "name": "_token",
          "type": "address"
        },
        {
          "internalType": "uint256",
          "name": "_currency",
          "type": "uint256"
        },
        {
          "internalType": "uint256",
          "name": "_baseWeightCurrency",
          "type": "uint256"
        },
        {
          "internalType": "uint256",
          "name": "_payoutSplitsGroup",
          "type": "uint256"
        },
        {
          "internalType": "contract IJBOperatorStore",
          "name": "_operatorStore",
          "type": "address"
        },
        {
          "internalType": "contract IJBProjects",
          "name": "_projects",
          "type": "address"
        },
        {
          "internalType": "contract IJBDirectory",
          "name": "_directory",
          "type": "address"
        },
        {
          "internalType": "contract IJBSplitsStore",
          "name": "_splitsStore",
          "type": "address"
        },
        {
          "internalType": "contract IJBPrices",
          "name": "_prices",
          "type": "address"
        },
        {
          "internalType": "contract IJBSingleTokenPaymentTerminalStore",
          "name": "_store",
          "type": "address"
        },
        {
          "internalType": "address",
          "name": "_owner",
          "type": "address"
        }
      ],
      "stateMutability": "nonpayable",
      "type": "constructor"
    },
    {
      "inputs": [],
      "name": "FEE_TOO_HIGH",
      "type": "error"
    },
    {
      "inputs": [],
      "name": "INADEQUATE_DISTRIBUTION_AMOUNT",
      "type": "error"
    },
    {
      "inputs": [],
      "name": "INADEQUATE_RECLAIM_AMOUNT",
      "type": "error"
    },
    {
      "inputs": [],
      "name": "INADEQUATE_TOKEN_COUNT",
      "type": "error"
    },
    {
      "inputs": [],
      "name": "NO_MSG_VALUE_ALLOWED",
      "type": "error"
    },
    {
      "inputs": [],
      "name": "PAY_TO_ZERO_ADDRESS",
      "type": "error"
    },
    {
      "inputs": [
        {
          "internalType": "uint256",
          "name": "prod1",
          "type": "uint256"
        },
        {
          "internalType": "uint256",
          "name": "denominator",
          "type": "uint256"
        }
      ],
      "name": "PRBMath__MulDivOverflow",
      "type": "error"
    },
    {
      "inputs": [],
      "name": "PROJECT_TERMINAL_MISMATCH",
      "type": "error"
    },
    {
      "inputs": [],
      "name": "REDEEM_TO_ZERO_ADDRESS",
      "type": "error"
    },
    {
      "inputs": [],
      "name": "TERMINAL_IN_SPLIT_ZERO_ADDRESS",
      "type": "error"
    },
    {
      "inputs": [],
      "name": "TERMINAL_TOKENS_INCOMPATIBLE",
      "type": "error"
    },
    {
      "inputs": [],
      "name": "UNAUTHORIZED",
      "type": "error"
    },
    {
      "anonymous": false,
      "inputs": [
        {
          "indexed": true,
          "internalType": "uint256",
          "name": "projectId",
          "type": "uint256"
        },
        {
          "indexed": false,
          "internalType": "uint256",
          "name": "amount",
          "type": "uint256"
        },
        {
          "indexed": false,
          "internalType": "uint256",
          "name": "refundedFees",
          "type": "uint256"
        },
        {
          "indexed": false,
          "internalType": "string",
          "name": "memo",
          "type": "string"
        },
        {
          "indexed": false,
          "internalType": "bytes",
          "name": "metadata",
          "type": "bytes"
        },
        {
          "indexed": false,
          "internalType": "address",
          "name": "caller",
          "type": "address"
        }
      ],
      "name": "AddToBalance",
      "type": "event"
    },
    {
      "anonymous": false,
      "inputs": [
        {
          "indexed": true,
          "internalType": "contract IJBPayDelegate",
          "name": "delegate",
          "type": "address"
        },
        {
          "components": [
            {
              "internalType": "address",
              "name": "payer",
              "type": "address"
            },
            {
              "internalType": "uint256",
              "name": "projectId",
              "type": "uint256"
            },
            {
              "internalType": "uint256",
              "name": "currentFundingCycleConfiguration",
              "type": "uint256"
            },
            {
              "components": [
                {
                  "internalType": "address",
                  "name": "token",
                  "type": "address"
                },
                {
                  "internalType": "uint256",
                  "name": "value",
                  "type": "uint256"
                },
                {
                  "internalType": "uint256",
                  "name": "decimals",
                  "type": "uint256"
                },
                {
                  "internalType": "uint256",
                  "name": "currency",
                  "type": "uint256"
                }
              ],
              "internalType": "struct JBTokenAmount",
              "name": "amount",
              "type": "tuple"
            },
            {
              "components": [
                {
                  "internalType": "address",
                  "name": "token",
                  "type": "address"
                },
                {
                  "internalType": "uint256",
                  "name": "value",
                  "type": "uint256"
                },
                {
                  "internalType": "uint256",
                  "name": "decimals",
                  "type": "uint256"
                },
                {
                  "internalType": "uint256",
                  "name": "currency",
                  "type": "uint256"
                }
              ],
              "internalType": "struct JBTokenAmount",
              "name": "forwardedAmount",
              "type": "tuple"
            },
            {
              "internalType": "uint256",
              "name": "projectTokenCount",
              "type": "uint256"
            },
            {
              "internalType": "address",
              "name": "beneficiary",
              "type": "address"
            },
            {
              "internalType": "bool",
              "name": "preferClaimedTokens",
              "type": "bool"
            },
            {
              "internalType": "string",
              "name": "memo",
              "type": "string"
            },
            {
              "internalType": "bytes",
              "name": "metadata",
              "type": "bytes"
            }
          ],
          "indexed": false,
          "internalType": "struct JBDidPayData",
          "name": "data",
          "type": "tuple"
        },
        {
          "indexed": false,
          "internalType": "uint256",
          "name": "delegatedAmount",
          "type": "uint256"
        },
        {
          "indexed": false,
          "internalType": "address",
          "name": "caller",
          "type": "address"
        }
      ],
      "name": "DelegateDidPay",
      "type": "event"
    },
    {
      "anonymous": false,
      "inputs": [
        {
          "indexed": true,
          "internalType": "contract IJBRedemptionDelegate",
          "name": "delegate",
          "type": "address"
        },
        {
          "components": [
            {
              "internalType": "address",
              "name": "holder",
              "type": "address"
            },
            {
              "internalType": "uint256",
              "name": "projectId",
              "type": "uint256"
            },
            {
              "internalType": "uint256",
              "name": "currentFundingCycleConfiguration",
              "type": "uint256"
            },
            {
              "internalType": "uint256",
              "name": "projectTokenCount",
              "type": "uint256"
            },
            {
              "components": [
                {
                  "internalType": "address",
                  "name": "token",
                  "type": "address"
                },
                {
                  "internalType": "uint256",
                  "name": "value",
                  "type": "uint256"
                },
                {
                  "internalType": "uint256",
                  "name": "decimals",
                  "type": "uint256"
                },
                {
                  "internalType": "uint256",
                  "name": "currency",
                  "type": "uint256"
                }
              ],
              "internalType": "struct JBTokenAmount",
              "name": "reclaimedAmount",
              "type": "tuple"
            },
            {
              "components": [
                {
                  "internalType": "address",
                  "name": "token",
                  "type": "address"
                },
                {
                  "internalType": "uint256",
                  "name": "value",
                  "type": "uint256"
                },
                {
                  "internalType": "uint256",
                  "name": "decimals",
                  "type": "uint256"
                },
                {
                  "internalType": "uint256",
                  "name": "currency",
                  "type": "uint256"
                }
              ],
              "internalType": "struct JBTokenAmount",
              "name": "forwardedAmount",
              "type": "tuple"
            },
            {
              "internalType": "address payable",
              "name": "beneficiary",
              "type": "address"
            },
            {
              "internalType": "string",
              "name": "memo",
              "type": "string"
            },
            {
              "internalType": "bytes",
              "name": "metadata",
              "type": "bytes"
            }
          ],
          "indexed": false,
          "internalType": "struct JBDidRedeemData",
          "name": "data",
          "type": "tuple"
        },
        {
          "indexed": false,
          "internalType": "uint256",
          "name": "delegatedAmount",
          "type": "uint256"
        },
        {
          "indexed": false,
          "internalType": "address",
          "name": "caller",
          "type": "address"
        }
      ],
      "name": "DelegateDidRedeem",
      "type": "event"
    },
    {
      "anonymous": false,
      "inputs": [
        {
          "indexed": true,
          "internalType": "uint256",
          "name": "fundingCycleConfiguration",
          "type": "uint256"
        },
        {
          "indexed": true,
          "internalType": "uint256",
          "name": "fundingCycleNumber",
          "type": "uint256"
        },
        {
          "indexed": true,
          "internalType": "uint256",
          "name": "projectId",
          "type": "uint256"
        },
        {
          "indexed": false,
          "internalType": "address",
          "name": "beneficiary",
          "type": "address"
        },
        {
          "indexed": false,
          "internalType": "uint256",
          "name": "amount",
          "type": "uint256"
        },
        {
          "indexed": false,
          "internalType": "uint256",
          "name": "distributedAmount",
          "type": "uint256"
        },
        {
          "indexed": false,
          "internalType": "uint256",
          "name": "fee",
          "type": "uint256"
        },
        {
          "indexed": false,
          "internalType": "uint256",
          "name": "beneficiaryDistributionAmount",
          "type": "uint256"
        },
        {
          "indexed": false,
          "internalType": "string",
          "name": "memo",
          "type": "string"
        },
        {
          "indexed": false,
          "internalType": "address",
          "name": "caller",
          "type": "address"
        }
      ],
      "name": "DistributePayouts",
      "type": "event"
    },
    {
      "anonymous": false,
      "inputs": [
        {
          "indexed": true,
          "internalType": "uint256",
          "name": "projectId",
          "type": "uint256"
        },
        {
          "indexed": true,
          "internalType": "uint256",
          "name": "domain",
          "type": "uint256"
        },
        {
          "indexed": true,
          "internalType": "uint256",
          "name": "group",
          "type": "uint256"
        },
        {
          "components": [
            {
              "internalType": "bool",
              "name": "preferClaimed",
              "type": "bool"
            },
            {
              "internalType": "bool",
              "name": "preferAddToBalance",
              "type": "bool"
            },
            {
              "internalType": "uint256",
              "name": "percent",
              "type": "uint256"
            },
            {
              "internalType": "uint256",
              "name": "projectId",
              "type": "uint256"
            },
            {
              "internalType": "address payable",
              "name": "beneficiary",
              "type": "address"
            },
            {
              "internalType": "uint256",
              "name": "lockedUntil",
              "type": "uint256"
            },
            {
              "internalType": "contract IJBSplitAllocator",
              "name": "allocator",
              "type": "address"
            }
          ],
          "indexed": false,
          "internalType": "struct JBSplit",
          "name": "split",
          "type": "tuple"
        },
        {
          "indexed": false,
          "internalType": "uint256",
          "name": "amount",
          "type": "uint256"
        },
        {
          "indexed": false,
          "internalType": "address",
          "name": "caller",
          "type": "address"
        }
      ],
      "name": "DistributeToPayoutSplit",
      "type": "event"
    },
    {
      "anonymous": false,
      "inputs": [
        {
          "indexed": true,
          "internalType": "uint256",
          "name": "projectId",
          "type": "uint256"
        },
        {
          "indexed": true,
          "internalType": "uint256",
          "name": "amount",
          "type": "uint256"
        },
        {
          "indexed": true,
          "internalType": "uint256",
          "name": "fee",
          "type": "uint256"
        },
        {
          "indexed": false,
          "internalType": "uint256",
          "name": "feeDiscount",
          "type": "uint256"
        },
        {
          "indexed": false,
          "internalType": "address",
          "name": "beneficiary",
          "type": "address"
        },
        {
          "indexed": false,
          "internalType": "address",
          "name": "caller",
          "type": "address"
        }
      ],
      "name": "HoldFee",
      "type": "event"
    },
    {
      "anonymous": false,
      "inputs": [
        {
          "indexed": true,
          "internalType": "uint256",
          "name": "projectId",
          "type": "uint256"
        },
        {
          "indexed": true,
          "internalType": "contract IJBPaymentTerminal",
          "name": "to",
          "type": "address"
        },
        {
          "indexed": false,
          "internalType": "uint256",
          "name": "amount",
          "type": "uint256"
        },
        {
          "indexed": false,
          "internalType": "address",
          "name": "caller",
          "type": "address"
        }
      ],
      "name": "Migrate",
      "type": "event"
    },
    {
      "anonymous": false,
      "inputs": [
        {
          "indexed": true,
          "internalType": "address",
          "name": "previousOwner",
          "type": "address"
        },
        {
          "indexed": true,
          "internalType": "address",
          "name": "newOwner",
          "type": "address"
        }
      ],
      "name": "OwnershipTransferred",
      "type": "event"
    },
    {
      "anonymous": false,
      "inputs": [
        {
          "indexed": true,
          "internalType": "uint256",
          "name": "fundingCycleConfiguration",
          "type": "uint256"
        },
        {
          "indexed": true,
          "internalType": "uint256",
          "name": "fundingCycleNumber",
          "type": "uint256"
        },
        {
          "indexed": true,
          "internalType": "uint256",
          "name": "projectId",
          "type": "uint256"
        },
        {
          "indexed": false,
          "internalType": "address",
          "name": "payer",
          "type": "address"
        },
        {
          "indexed": false,
          "internalType": "address",
          "name": "beneficiary",
          "type": "address"
        },
        {
          "indexed": false,
          "internalType": "uint256",
          "name": "amount",
          "type": "uint256"
        },
        {
          "indexed": false,
          "internalType": "uint256",
          "name": "beneficiaryTokenCount",
          "type": "uint256"
        },
        {
          "indexed": false,
          "internalType": "string",
          "name": "memo",
          "type": "string"
        },
        {
          "indexed": false,
          "internalType": "bytes",
          "name": "metadata",
          "type": "bytes"
        },
        {
          "indexed": false,
          "internalType": "address",
          "name": "caller",
          "type": "address"
        }
      ],
      "name": "Pay",
      "type": "event"
    },
    {
      "anonymous": false,
      "inputs": [
        {
          "indexed": true,
          "internalType": "uint256",
          "name": "projectId",
          "type": "uint256"
        },
        {
          "indexed": true,
          "internalType": "uint256",
          "name": "amount",
          "type": "uint256"
        },
        {
          "indexed": true,
          "internalType": "bool",
          "name": "wasHeld",
          "type": "bool"
        },
        {
          "indexed": false,
          "internalType": "address",
          "name": "beneficiary",
          "type": "address"
        },
        {
          "indexed": false,
          "internalType": "address",
          "name": "caller",
          "type": "address"
        }
      ],
      "name": "ProcessFee",
      "type": "event"
    },
    {
      "anonymous": false,
      "inputs": [
        {
          "indexed": true,
          "internalType": "uint256",
          "name": "fundingCycleConfiguration",
          "type": "uint256"
        },
        {
          "indexed": true,
          "internalType": "uint256",
          "name": "fundingCycleNumber",
          "type": "uint256"
        },
        {
          "indexed": true,
          "internalType": "uint256",
          "name": "projectId",
          "type": "uint256"
        },
        {
          "indexed": false,
          "internalType": "address",
          "name": "holder",
          "type": "address"
        },
        {
          "indexed": false,
          "internalType": "address",
          "name": "beneficiary",
          "type": "address"
        },
        {
          "indexed": false,
          "internalType": "uint256",
          "name": "tokenCount",
          "type": "uint256"
        },
        {
          "indexed": false,
          "internalType": "uint256",
          "name": "reclaimedAmount",
          "type": "uint256"
        },
        {
          "indexed": false,
          "internalType": "string",
          "name": "memo",
          "type": "string"
        },
        {
          "indexed": false,
          "internalType": "bytes",
          "name": "metadata",
          "type": "bytes"
        },
        {
          "indexed": false,
          "internalType": "address",
          "name": "caller",
          "type": "address"
        }
      ],
      "name": "RedeemTokens",
      "type": "event"
    },
    {
      "anonymous": false,
      "inputs": [
        {
          "indexed": true,
          "internalType": "uint256",
          "name": "projectId",
          "type": "uint256"
        },
        {
          "indexed": true,
          "internalType": "uint256",
          "name": "amount",
          "type": "uint256"
        },
        {
          "indexed": true,
          "internalType": "uint256",
          "name": "refundedFees",
          "type": "uint256"
        },
        {
          "indexed": false,
          "internalType": "uint256",
          "name": "leftoverAmount",
          "type": "uint256"
        },
        {
          "indexed": false,
          "internalType": "address",
          "name": "caller",
          "type": "address"
        }
      ],
      "name": "RefundHeldFees",
      "type": "event"
    },
    {
      "anonymous": false,
      "inputs": [
        {
          "indexed": false,
          "internalType": "uint256",
          "name": "fee",
          "type": "uint256"
        },
        {
          "indexed": false,
          "internalType": "address",
          "name": "caller",
          "type": "address"
        }
      ],
      "name": "SetFee",
      "type": "event"
    },
    {
      "anonymous": false,
      "inputs": [
        {
          "indexed": true,
          "internalType": "contract IJBFeeGauge",
          "name": "feeGauge",
          "type": "address"
        },
        {
          "indexed": false,
          "internalType": "address",
          "name": "caller",
          "type": "address"
        }
      ],
      "name": "SetFeeGauge",
      "type": "event"
    },
    {
      "anonymous": false,
      "inputs": [
        {
          "indexed": true,
          "internalType": "address",
          "name": "addrs",
          "type": "address"
        },
        {
          "indexed": true,
          "internalType": "bool",
          "name": "flag",
          "type": "bool"
        },
        {
          "indexed": false,
          "internalType": "address",
          "name": "caller",
          "type": "address"
        }
      ],
      "name": "SetFeelessAddress",
      "type": "event"
    },
    {
      "anonymous": false,
      "inputs": [
        {
          "indexed": true,
          "internalType": "uint256",
          "name": "fundingCycleConfiguration",
          "type": "uint256"
        },
        {
          "indexed": true,
          "internalType": "uint256",
          "name": "fundingCycleNumber",
          "type": "uint256"
        },
        {
          "indexed": true,
          "internalType": "uint256",
          "name": "projectId",
          "type": "uint256"
        },
        {
          "indexed": false,
          "internalType": "address",
          "name": "beneficiary",
          "type": "address"
        },
        {
          "indexed": false,
          "internalType": "uint256",
          "name": "amount",
          "type": "uint256"
        },
        {
          "indexed": false,
          "internalType": "uint256",
          "name": "distributedAmount",
          "type": "uint256"
        },
        {
          "indexed": false,
          "internalType": "uint256",
          "name": "netDistributedamount",
          "type": "uint256"
        },
        {
          "indexed": false,
          "internalType": "string",
          "name": "memo",
          "type": "string"
        },
        {
          "indexed": false,
          "internalType": "address",
          "name": "caller",
          "type": "address"
        }
      ],
      "name": "UseAllowance",
      "type": "event"
    },
    {
      "inputs": [
        {
          "internalType": "address",
          "name": "_token",
          "type": "address"
        },
        {
          "internalType": "uint256",
          "name": "_projectId",
          "type": "uint256"
        }
      ],
      "name": "acceptsToken",
      "outputs": [
        {
          "internalType": "bool",
          "name": "",
          "type": "bool"
        }
      ],
      "stateMutability": "view",
      "type": "function"
    },
    {
      "inputs": [
        {
          "internalType": "uint256",
          "name": "_projectId",
          "type": "uint256"
        },
        {
          "internalType": "uint256",
          "name": "_amount",
          "type": "uint256"
        },
        {
          "internalType": "address",
          "name": "_token",
          "type": "address"
        },
        {
          "internalType": "string",
          "name": "_memo",
          "type": "string"
        },
        {
          "internalType": "bytes",
          "name": "_metadata",
          "type": "bytes"
        }
      ],
      "name": "addToBalanceOf",
      "outputs": [],
      "stateMutability": "payable",
      "type": "function"
    },
    {
      "inputs": [],
      "name": "baseWeightCurrency",
      "outputs": [
        {
          "internalType": "uint256",
          "name": "",
          "type": "uint256"
        }
      ],
      "stateMutability": "view",
      "type": "function"
    },
    {
      "inputs": [],
      "name": "currency",
      "outputs": [
        {
          "internalType": "uint256",
          "name": "",
          "type": "uint256"
        }
      ],
      "stateMutability": "view",
      "type": "function"
    },
    {
      "inputs": [
        {
          "internalType": "address",
          "name": "_token",
          "type": "address"
        }
      ],
      "name": "currencyForToken",
      "outputs": [
        {
          "internalType": "uint256",
          "name": "",
          "type": "uint256"
        }
      ],
      "stateMutability": "view",
      "type": "function"
    },
    {
      "inputs": [
        {
          "internalType": "uint256",
          "name": "_projectId",
          "type": "uint256"
        }
      ],
      "name": "currentEthOverflowOf",
      "outputs": [
        {
          "internalType": "uint256",
          "name": "",
          "type": "uint256"
        }
      ],
      "stateMutability": "view",
      "type": "function"
    },
    {
      "inputs": [],
      "name": "decimals",
      "outputs": [
        {
          "internalType": "uint256",
          "name": "",
          "type": "uint256"
        }
      ],
      "stateMutability": "view",
      "type": "function"
    },
    {
      "inputs": [
        {
          "internalType": "address",
          "name": "_token",
          "type": "address"
        }
      ],
      "name": "decimalsForToken",
      "outputs": [
        {
          "internalType": "uint256",
          "name": "",
          "type": "uint256"
        }
      ],
      "stateMutability": "view",
      "type": "function"
    },
    {
      "inputs": [],
      "name": "directory",
      "outputs": [
        {
          "internalType": "contract IJBDirectory",
          "name": "",
          "type": "address"
        }
      ],
      "stateMutability": "view",
      "type": "function"
    },
    {
      "inputs": [
        {
          "internalType": "uint256",
          "name": "_projectId",
          "type": "uint256"
        },
        {
          "internalType": "uint256",
          "name": "_amount",
          "type": "uint256"
        },
        {
          "internalType": "uint256",
          "name": "_currency",
          "type": "uint256"
        },
        {
          "internalType": "address",
          "name": "_token",
          "type": "address"
        },
        {
          "internalType": "uint256",
          "name": "_minReturnedTokens",
          "type": "uint256"
        },
        {
          "internalType": "string",
          "name": "_memo",
          "type": "string"
        }
      ],
      "name": "distributePayoutsOf",
      "outputs": [
        {
          "internalType": "uint256",
          "name": "netLeftoverDistributionAmount",
          "type": "uint256"
        }
      ],
      "stateMutability": "nonpayable",
      "type": "function"
    },
    {
      "inputs": [],
      "name": "fee",
      "outputs": [
        {
          "internalType": "uint256",
          "name": "",
          "type": "uint256"
        }
      ],
      "stateMutability": "view",
      "type": "function"
    },
    {
      "inputs": [],
      "name": "feeGauge",
      "outputs": [
        {
          "internalType": "contract IJBFeeGauge",
          "name": "",
          "type": "address"
        }
      ],
      "stateMutability": "view",
      "type": "function"
    },
    {
      "inputs": [
        {
          "internalType": "uint256",
          "name": "_projectId",
          "type": "uint256"
        }
      ],
      "name": "heldFeesOf",
      "outputs": [
        {
          "components": [
            {
              "internalType": "uint256",
              "name": "amount",
              "type": "uint256"
            },
            {
              "internalType": "uint32",
              "name": "fee",
              "type": "uint32"
            },
            {
              "internalType": "uint32",
              "name": "feeDiscount",
              "type": "uint32"
            },
            {
              "internalType": "address",
              "name": "beneficiary",
              "type": "address"
            }
          ],
          "internalType": "struct JBFee[]",
          "name": "",
          "type": "tuple[]"
        }
      ],
      "stateMutability": "view",
      "type": "function"
    },
    {
      "inputs": [
        {
          "internalType": "address",
          "name": "",
          "type": "address"
        }
      ],
      "name": "isFeelessAddress",
      "outputs": [
        {
          "internalType": "bool",
          "name": "",
          "type": "bool"
        }
      ],
      "stateMutability": "view",
      "type": "function"
    },
    {
      "inputs": [
        {
          "internalType": "uint256",
          "name": "_projectId",
          "type": "uint256"
        },
        {
          "internalType": "contract IJBPaymentTerminal",
          "name": "_to",
          "type": "address"
        }
      ],
      "name": "migrate",
      "outputs": [
        {
          "internalType": "uint256",
          "name": "balance",
          "type": "uint256"
        }
      ],
      "stateMutability": "nonpayable",
      "type": "function"
    },
    {
      "inputs": [],
      "name": "operatorStore",
      "outputs": [
        {
          "internalType": "contract IJBOperatorStore",
          "name": "",
          "type": "address"
        }
      ],
      "stateMutability": "view",
      "type": "function"
    },
    {
      "inputs": [],
      "name": "owner",
      "outputs": [
        {
          "internalType": "address",
          "name": "",
          "type": "address"
        }
      ],
      "stateMutability": "view",
      "type": "function"
    },
    {
      "inputs": [
        {
          "internalType": "uint256",
          "name": "_projectId",
          "type": "uint256"
        },
        {
          "internalType": "uint256",
          "name": "_amount",
          "type": "uint256"
        },
        {
          "internalType": "address",
          "name": "_token",
          "type": "address"
        },
        {
          "internalType": "address",
          "name": "_beneficiary",
          "type": "address"
        },
        {
          "internalType": "uint256",
          "name": "_minReturnedTokens",
          "type": "uint256"
        },
        {
          "internalType": "bool",
          "name": "_preferClaimedTokens",
          "type": "bool"
        },
        {
          "internalType": "string",
          "name": "_memo",
          "type": "string"
        },
        {
          "internalType": "bytes",
          "name": "_metadata",
          "type": "bytes"
        }
      ],
      "name": "pay",
      "outputs": [
        {
          "internalType": "uint256",
          "name": "",
          "type": "uint256"
        }
      ],
      "stateMutability": "payable",
      "type": "function"
    },
    {
      "inputs": [],
      "name": "payoutSplitsGroup",
      "outputs": [
        {
          "internalType": "uint256",
          "name": "",
          "type": "uint256"
        }
      ],
      "stateMutability": "view",
      "type": "function"
    },
    {
      "inputs": [],
      "name": "prices",
      "outputs": [
        {
          "internalType": "contract IJBPrices",
          "name": "",
          "type": "address"
        }
      ],
      "stateMutability": "view",
      "type": "function"
    },
    {
      "inputs": [
        {
          "internalType": "uint256",
          "name": "_projectId",
          "type": "uint256"
        }
      ],
      "name": "processFees",
      "outputs": [],
      "stateMutability": "nonpayable",
      "type": "function"
    },
    {
      "inputs": [],
      "name": "projects",
      "outputs": [
        {
          "internalType": "contract IJBProjects",
          "name": "",
          "type": "address"
        }
      ],
      "stateMutability": "view",
      "type": "function"
    },
    {
      "inputs": [
        {
          "internalType": "address",
          "name": "_holder",
          "type": "address"
        },
        {
          "internalType": "uint256",
          "name": "_projectId",
          "type": "uint256"
        },
        {
          "internalType": "uint256",
          "name": "_tokenCount",
          "type": "uint256"
        },
        {
          "internalType": "address",
          "name": "_token",
          "type": "address"
        },
        {
          "internalType": "uint256",
          "name": "_minReturnedTokens",
          "type": "uint256"
        },
        {
          "internalType": "address payable",
          "name": "_beneficiary",
          "type": "address"
        },
        {
          "internalType": "string",
          "name": "_memo",
          "type": "string"
        },
        {
          "internalType": "bytes",
          "name": "_metadata",
          "type": "bytes"
        }
      ],
      "name": "redeemTokensOf",
      "outputs": [
        {
          "internalType": "uint256",
          "name": "reclaimAmount",
          "type": "uint256"
        }
      ],
      "stateMutability": "nonpayable",
      "type": "function"
    },
    {
      "inputs": [],
      "name": "renounceOwnership",
      "outputs": [],
      "stateMutability": "nonpayable",
      "type": "function"
    },
    {
      "inputs": [
        {
          "internalType": "uint256",
          "name": "_fee",
          "type": "uint256"
        }
      ],
      "name": "setFee",
      "outputs": [],
      "stateMutability": "nonpayable",
      "type": "function"
    },
    {
      "inputs": [
        {
          "internalType": "contract IJBFeeGauge",
          "name": "_feeGauge",
          "type": "address"
        }
      ],
      "name": "setFeeGauge",
      "outputs": [],
      "stateMutability": "nonpayable",
      "type": "function"
    },
    {
      "inputs": [
        {
          "internalType": "address",
          "name": "_address",
          "type": "address"
        },
        {
          "internalType": "bool",
          "name": "_flag",
          "type": "bool"
        }
      ],
      "name": "setFeelessAddress",
      "outputs": [],
      "stateMutability": "nonpayable",
      "type": "function"
    },
    {
      "inputs": [],
      "name": "splitsStore",
      "outputs": [
        {
          "internalType": "contract IJBSplitsStore",
          "name": "",
          "type": "address"
        }
      ],
      "stateMutability": "view",
      "type": "function"
    },
    {
      "inputs": [],
      "name": "store",
      "outputs": [
        {
          "internalType": "contract IJBSingleTokenPaymentTerminalStore",
          "name": "",
          "type": "address"
        }
      ],
      "stateMutability": "view",
      "type": "function"
    },
    {
      "inputs": [
        {
          "internalType": "bytes4",
          "name": "_interfaceId",
          "type": "bytes4"
        }
      ],
      "name": "supportsInterface",
      "outputs": [
        {
          "internalType": "bool",
          "name": "",
          "type": "bool"
        }
      ],
      "stateMutability": "view",
      "type": "function"
    },
    {
      "inputs": [],
      "name": "token",
      "outputs": [
        {
          "internalType": "address",
          "name": "",
          "type": "address"
        }
      ],
      "stateMutability": "view",
      "type": "function"
    },
    {
      "inputs": [
        {
          "internalType": "address",
          "name": "newOwner",
          "type": "address"
        }
      ],
      "name": "transferOwnership",
      "outputs": [],
      "stateMutability": "nonpayable",
      "type": "function"
    },
    {
      "inputs": [
        {
          "internalType": "uint256",
          "name": "_projectId",
          "type": "uint256"
        },
        {
          "internalType": "uint256",
          "name": "_amount",
          "type": "uint256"
        },
        {
          "internalType": "uint256",
          "name": "_currency",
          "type": "uint256"
        },
        {
          "internalType": "address",
          "name": "_token",
          "type": "address"
        },
        {
          "internalType": "uint256",
          "name": "_minReturnedTokens",
          "type": "uint256"
        },
        {
          "internalType": "address payable",
          "name": "_beneficiary",
          "type": "address"
        },
        {
          "internalType": "string",
          "name": "_memo",
          "type": "string"
        }
      ],
      "name": "useAllowanceOf",
      "outputs": [
        {
          "internalType": "uint256",
          "name": "netDistributedAmount",
          "type": "uint256"
        }
      ],
      "stateMutability": "nonpayable",
      "type": "function"
    }
  ],
  "bytecode": {
    "object": "0x6101e0806040523462000582576101608162005f1d803803809162000025828562000587565b833981010312620005825780516001600160a01b038116810362000582576020820151604083015191606084015191608085015160018060a01b0381168103620005825760a08601516001600160a01b0381168103620005825760c0870151906001600160a01b0382168203620005825760e0880151926001600160a01b03841684036200058257610100890151946001600160a01b038616860362000582576101208a0151996001600160a01b038b168b0362000582576101400151966001600160a01b0388168803620005825760405163313ce56760e01b81526020816004816001600160a01b0386165afa90811562000576576000916200052b575b506001600160a01b0390911660805260ff1660a05260c05260e0526200014a33620005c1565b63017d78406002556101a09687526101c095865261010052610120526101405261016052610180938452600054336001600160a01b0390911603620004e7576001600160a01b038116156200049357620001a490620005c1565b6040519161591493846200060985396080518481816103b5015281816104450152818161054c01528181610a3001528181610b8c01528181611ac9015281816121a701528181612246015281816123a2015281816125ef015281816127e9015281816128ee01528181612c7c01528181612d1b01528181612dd10152818161333d015281816133da015281816135cf015281816136dc01528181613baa0152818161428001528181614346015281816143b50152818161447d01528181614a4b01528181614b1701528181614ce401528181614ded01528181615184015281816151f10152615396015260a0518481816103e00152818161046f0152818161109c015281816111b701528181611e18015281816121d301528181612622015281816128130152818161340d015281816135f901528181614b4a0152614d0e015260c0518481816104060152818161049501528181610b40015281816111e60152818161264c01528181612839015281816134370152818161361f01528181613ac801528181614b740152614d34015260e0518481816108f7015281816109a901528181610f5201528181610ff001528181611114015281816116f80152818161179901528181611cd70152611d75015261010051848181610cee015281816113810152818161150a01528181611a6f0152611f9101526101205184818161068001528181610c55015281816123d301528181612a12015281816133010152818161381401528181613b6c01528181614a8101528181614f1201526153c6015261014051848181611e8c0152612043015261016051848181610c10015261125001525183818161029e01528181610d77015281816111820152818161131301528181611b3a01528181611f3501528181612483015281816124d5015281816126fb015281816134e701528181613cc30152614c10015251828181611e530152818161269c015281816134880152614bc401525181818161199001528181612002015281816120e201526122010152f35b60405162461bcd60e51b815260206004820152602660248201527f4f776e61626c653a206e6577206f776e657220697320746865207a65726f206160448201526564647265737360d01b6064820152608490fd5b606460405162461bcd60e51b815260206004820152602060248201527f4f776e61626c653a2063616c6c6572206973206e6f7420746865206f776e65726044820152fd5b6020813d6020116200056d575b81620005476020938362000587565b810103126200056957519060ff8216820362000566575060ff62000124565b80fd5b5080fd5b3d915062000538565b6040513d6000823e3d90fd5b600080fd5b601f909101601f19168101906001600160401b03821190821017620005ab57604052565b634e487b7160e01b600052604160045260246000fd5b600080546001600160a01b039283166001600160a01b03198216811783559216907f8be0079c531659141344cd1fd0a4f28419497f9722a3daafe3b4186f6b6457e09080a356fe60e080604052600436101561001357600080fd5b60003560e01c90816301ffc9a714613f79575080630cf8e85814613aeb5780631982d67914613aa75780631ebc263f146132665780632b267b4e14611ebb5780632bdfe00414611e765780632d1a590314611e3b578063313ce56714611e00578063405b84fa14611a26578063637913ac146119b357806366248b861461197857806369fe0e2d14611908578063715018a6146118af5780637258002c1461183157806389701db5146114d05780638af56094146113b05780638b79543c1461136b5780638da5cb5b14611342578063975057e7146112fd578063a32e1e9614611143578063ad007d63146110fe578063b631b500146110bf578063b7bad1b11461107b578063bc8926e914610c84578063c41c2f2414610c3f578063d3419bf314610bfa578063d6dacc5314610bd1578063ddca3f4314610bb3578063df21a7dd14610b63578063e5a6b10f14610b28578063f2fde38b14610a5f578063fc0c546a14610a1a5763fe663f0f1461018a57600080fd5b3461065157610100366003190112610651576101a4614074565b6101ac61408a565b506101b56140cd565b9060c4356001600160401b038111610651576101d59036906004016141f2565b9060e4356001600160401b0381116106515736602382011215610651576102069036906024816004013591016141bb565b92336001600160a01b038316141580610968575b806108b9575b6108a7576001600160a01b0381161561089557600061028761029994610244614658565b5060405163a2df1f9560e01b81526001600160a01b03861660048201526024803590820152604480359082015260a06064820152958692839260a484019061441c565b8281036003190160848401528861441c565b0381837f00000000000000000000000000000000000000000000000000000000000000006001600160a01b03165af1801561064557600090600094600090600092610774575b50608435861061076257604435610662575b805161039f575b5061037860209661036a7f2be10f2a0203c77d0fcaa9fd6484a8a1d6904de31cd820587f60c1c8c338c814938861038f575b898601519551966040519860018060a01b0316895260018060a01b03168a890152604435604089015288606089015260e0608089015260e088019061441c565b9086820360a088015261441c565b933360c082015280602435950390a4604051908152f35b61039a8988306142ed565b61032a565b604051906103ac826140f6565b60018060a01b037f0000000000000000000000000000000000000000000000000000000000000000168252600060208301527f000000000000000000000000000000000000000000000000000000000000000060408301527f0000000000000000000000000000000000000000000000000000000000000000606083015260208401519160405161043c816140f6565b60018060a01b037f00000000000000000000000000000000000000000000000000000000000000001681528860208201527f000000000000000000000000000000000000000000000000000000000000000060408201527f00000000000000000000000000000000000000000000000000000000000000006060820152604051936104c68561412c565b60018060a01b0389168552602435602086015260408501526044356060850152608084015260a083015260018060a01b03851660c08301528260e08301528761010083015280519060005b828110610520575050506102f8565b61052a818361462e565b5180516020820151919291610547916001600160a01b031661447a565b6000917f00000000000000000000000000000000000000000000000000000000000000006001600160a01b031661eeee14610656575b60208181015160a08801519091015280516001600160a01b031692833b156106515760009060405194858092632b13c58f60e01b825260206004830152816105c8602482018d61479c565b03925af192831561064557600193610636575b507f54b3744c489f40987dd2726ca12131243334e8292f567389f761c5a432d813e46020848060a01b03835116920151604051809160608252610621606083018b61479c565b9060208301523360408301520390a201610511565b61063f906140e3565b386105db565b6040513d6000823e3d90fd5b600080fd5b6020810151925061057d565b604051632eec7b5560e11b81526024803560048301526020908290817f00000000000000000000000000000000000000000000000000000000000000006001600160a01b03165afa90811561064557600091610734575b506001600160a01b0316803b15610651576000809160c460405180948193631665bc0f60e01b835260018060a01b038c1660048401526024356024840152604435604484015260a060648401528160a48401528160848401525af1801561064557610725575b506102f1565b61072e906140e3565b3861071f565b610755915060203d811161075b575b61074d818361417f565b8101906143da565b386106b9565b503d610743565b60405163f896960b60e01b8152600490fd5b95505050503d806000853e610789818561417f565b610180848281010312610651576107a28185018561469d565b61012085015191610140860151956001600160401b03871161065157818101601f8883010112156106515786810151966107db88614234565b976107e9604051998a61417f565b808952602089019184840160208360061b8387010101116106515791602083850101925b60208360061b8287010101841061084c57505050506101608101516001600160401b03811161065157610843928201910161472e565b909194386102df565b60408487870103126106515760405161086481614111565b84516001600160a01b038116810361065157602093828592604094528288015183820152815201940193915061080d565b604051637ba50db360e11b8152600490fd5b60405163075fd2b160e01b8152600490fd5b5060405163c161c93f60e01b81523360048201526001600160a01b0383811660248301526000604483015260026064830152602090829060849082907f0000000000000000000000000000000000000000000000000000000000000000165afa9081156106455760009161092f575b5015610220565b90506020813d8211610960575b816109496020938361417f565b810103126106515761095a9061424b565b38610928565b3d915061093c565b5060405163c161c93f60e01b81523360048201526001600160a01b0383811660248084019190915235604483015260026064830152602090829060849082907f0000000000000000000000000000000000000000000000000000000000000000165afa908115610645576000916109e1575b501561021a565b90506020813d8211610a12575b816109fb6020938361417f565b8101031261065157610a0c9061424b565b386109da565b3d91506109ee565b34610651576000366003190112610651576040517f00000000000000000000000000000000000000000000000000000000000000006001600160a01b03168152602090f35b3461065157602036600319011261065157610a78614074565b610a80615533565b6001600160a01b03908116908115610ad457600054826bffffffffffffffffffffffff60a01b821617600055167f8be0079c531659141344cd1fd0a4f28419497f9722a3daafe3b4186f6b6457e0600080a3005b60405162461bcd60e51b815260206004820152602660248201527f4f776e61626c653a206e6577206f776e657220697320746865207a65726f206160448201526564647265737360d01b6064820152608490fd5b346106515760003660031901126106515760206040517f00000000000000000000000000000000000000000000000000000000000000008152f35b34610651576040366003190112610651576020610b7e614074565b6040519060018060a01b03807f0000000000000000000000000000000000000000000000000000000000000000169116148152f35b34610651576000366003190112610651576020600254604051908152f35b34610651576000366003190112610651576003546040516001600160a01b039091168152602090f35b34610651576000366003190112610651576040517f00000000000000000000000000000000000000000000000000000000000000006001600160a01b03168152602090f35b34610651576000366003190112610651576040517f00000000000000000000000000000000000000000000000000000000000000006001600160a01b03168152602090f35b346106515760e036600319011261065157600435602435610ca361408a565b50610cac6140cd565b9160c4356001600160401b03811161065157610ccc9036906004016141f2565b6040516331a9108f60e11b808252600482018490526020956001600160a01b037f000000000000000000000000000000000000000000000000000000000000000081169694929390919088816024818b5afa801561064557839160009161105e575b5016803314159081610fc0575b81610f21575b506108a757604051632538671560e01b8152600481018790526024810186905260448035908201529661014094858960648160007f000000000000000000000000000000000000000000000000000000000000000089165af19889156106455760009660009a610eea575b50506084358910610ed857899060246040518094819382528b60048301525afa938415610645577f8657a0c05a68a912c23c1bd00124afaa8c669063b046bd9bfd22b21d573c5e6d94610e6392600091610ebb575b50600254158015610ea4575b15610e9657633b9aca005b633b9aca008103610e845750506000985b9889039889610e74575b8a8701519651976040519586951685528b850152604084015288606084015260c0608084015260c083019061441c565b3360a08301520390a4604051908152f35b610e7f8a85306142ed565b610e33565b610e90918b898c614920565b98610e29565b610e9f89615378565b610e18565b503360005260048b5260ff60406000205416610e0d565b610ed291508b3d8d1161075b5761074d818361417f565b8b610e01565b60405163b01493c160e01b8152600490fd5b8091929a50610f0f939750903d10610f1a575b610f07818361417f565b81019061482b565b949094978a80610dac565b503d610efd565b90506040519063c161c93f60e01b8252336004830152602482015260006044820152601160648201528881608481867f0000000000000000000000000000000000000000000000000000000000000000165afa90811561064557600091610f8b575b501589610d41565b90508881813d8311610fb9575b610fa2818361417f565b8101031261065157610fb39061424b565b89610f83565b503d610f98565b905060405163c161c93f60e01b8152336004820152816024820152876044820152601160648201528981608481877f0000000000000000000000000000000000000000000000000000000000000000165afa90811561064557600091611029575b501590610d3b565b90508981813d8311611057575b611040818361417f565b81010312610651576110519061424b565b8a611021565b503d611036565b61107591508a3d8c1161075b5761074d818361417f565b8a610d2e565b3461065157602036600319011261065157611094614074565b5060206040517f00000000000000000000000000000000000000000000000000000000000000008152f35b34610651576020366003190112610651576001600160a01b036110e0614074565b166000526004602052602060ff604060002054166040519015158152f35b34610651576000366003190112610651576040517f00000000000000000000000000000000000000000000000000000000000000006001600160a01b03168152602090f35b34610651576020806003193601126106515760405163035240c760e61b8152306004808301919091523560248201526001600160a01b039082816044817f000000000000000000000000000000000000000000000000000000000000000086165afa908115610645576000916112d0575b507f00000000000000000000000000000000000000000000000000000000000000009081601281036112c15750905b837f0000000000000000000000000000000000000000000000000000000000000000916001831460001461121f5750505090505b604051908152f35b606461122a82614210565b936040519687938492635268657960e11b845260048401526001602484015260448301527f0000000000000000000000000000000000000000000000000000000000000000165afa91821561064557600092611290575b61128b9350615866565b611217565b91508383813d83116112ba575b6112a7818361417f565b810103126106515761128b925191611281565b503d61129d565b6112ca916154d4565b906111e3565b90508281813d83116112f6575b6112e7818361417f565b810103126106515751836111b4565b503d6112dd565b34610651576000366003190112610651576040517f00000000000000000000000000000000000000000000000000000000000000006001600160a01b03168152602090f35b34610651576000366003190112610651576000546040516001600160a01b039091168152602090f35b34610651576000366003190112610651576040517f00000000000000000000000000000000000000000000000000000000000000006001600160a01b03168152602090f35b3461065157602080600319360112610651576004356000526001908181526040600020918254916113e083614234565b926113ee604051948561417f565b8084528184018095600052826000206000915b838310611478575050505060405192818401908285525180915260408401949160005b8281106114315785870386f35b8351805188528281015163ffffffff908116848a0152604080830151909116908901526060908101516001600160a01b031690880152608090960195928101928401611424565b9460028582999760409997995161148e816140f6565b855481528486015463ffffffff8082168584015281851c16604083015260018060a01b039060401c166060820152815201920192019190969496959395611401565b3461065157602080600319360112610651576040516331a9108f60e11b815260048035908201819052916001600160a01b039181816024817f000000000000000000000000000000000000000000000000000000000000000087165afa90811561064557600091611814575b5082600054163314159081611807575b81611767575b816116c6575b506108a75782600052600192838252604060002090815461157881614234565b92611586604051948561417f565b8184526000908152848120878686015b8785851061168057505050505050806000528483526115b860406000206145c9565b81519360005b8581106115c757005b80876116056115d782948861462e565b515163ffffffff808a6115ea878c61462e565b510151169060406115fb878c61462e565b510151169161534d565b857fcf0c92a2c6d7c42f488326b0cb900104b99984b6b218db81cd29371364a352516116778786611648828d61163e606094859261462e565b5101511687614a2d565b611652888d61462e565b51015160408051929091166001600160a01b0316825233602083015290918291820190565b0390a4016115be565b60029160405161168f816140f6565b855481528b8587015463ffffffff8082168685015281861c16604084015260401c1660608201528152019201920191908890611596565b60405163c161c93f60e01b815233600482015290841660248201526000604482015260056064820152905081816084817f000000000000000000000000000000000000000000000000000000000000000087165afa90811561064557600091611732575b501584611558565b90508181813d8311611760575b611749818361417f565b810103126106515761175a9061424b565b8461172a565b503d61173f565b905060405163c161c93f60e01b81523360048201528382166024820152846044820152600560648201528281608481877f0000000000000000000000000000000000000000000000000000000000000000165afa908115610645576000916117d2575b501590611552565b90508281813d8311611800575b6117e9818361417f565b81010312610651576117fa9061424b565b856117ca565b503d6117df565b338482161415915061154c565b61182b9150823d841161075b5761074d818361417f565b8461153c565b346106515760403660031901126106515761184a614074565b6024359081151580920361065157611860615533565b60018060a01b0316806000526004602052604060002060ff1981541660ff84161790557fa2653e25a502c023a5830d0de847ef6f458387865b1f4f575d7594f9f2c0d71e6020604051338152a3005b34610651576000366003190112610651576118c8615533565b600080546001600160a01b0319811682556001600160a01b03167f8be0079c531659141344cd1fd0a4f28419497f9722a3daafe3b4186f6b6457e08280a3005b3461065157602036600319011261065157600435611924615533565b6302faf0808111611966576002819055604080519182523360208301527fd7414e590e1cb532989ab2a34c8f4c2c17f7ab6f006efeeaef2e87cd5008c20291a1005b6040516345fbd9c160e01b8152600490fd5b346106515760003660031901126106515760206040517f00000000000000000000000000000000000000000000000000000000000000008152f35b34610651576020366003190112610651576004356001600160a01b03811690819003610651576119e1615533565b806bffffffffffffffffffffffff60a01b60035416176003557f0a9a80fe9716605b3e52abb3d792d6a4e7816d6afc02a5a4ef023081feaf9f606020604051338152a2005b34610651576040366003190112610651576004356001600160a01b0360243581811690819003610651576040516331a9108f60e11b8152600481018490526020939084816024817f000000000000000000000000000000000000000000000000000000000000000088165afa8015610645578491600091611de3575b5016803314159081611d45575b81611ca6575b506108a75760405163df21a7dd60e01b81527f00000000000000000000000000000000000000000000000000000000000000006001600160a01b038116600483015260248201839052908581604481875afa90811561064557600091611c71575b5015611c5f57604051636bb6a5ad60e01b81526004810183905293858560248160007f000000000000000000000000000000000000000000000000000000000000000086165af194851561064557600095611c30575b5084611bae575b5050604080518481523360208201527fa7519e5f94697b7f53e97c5eb46a0c730a296ab686ab8fd333835c5f735784eb9190a3604051908152f35b61eeee90611bbc868661447a565b821603611c285783905b604051611bd281614164565b60008152843b156106515760405163019f1d0b60e31b815292600092849283918291611c03918b8a60048601614441565b0391875af1801561064557611c19575b80611b73565b611c22906140e3565b84611c13565b600090611bc6565b9094508581813d8311611c58575b611c48818361417f565b8101031261065157519386611b6c565b503d611c3e565b60405163581010ed60e01b8152600490fd5b90508581813d8311611c9f575b611c88818361417f565b8101031261065157611c999061424b565b86611b16565b503d611c7e565b90506040519063c161c93f60e01b8252336004830152602482015260006044820152600460648201528481608481877f0000000000000000000000000000000000000000000000000000000000000000165afa90811561064557600091611d10575b501585611ab5565b90508481813d8311611d3e575b611d27818361417f565b8101031261065157611d389061424b565b85611d08565b503d611d1d565b905060405163c161c93f60e01b8152336004820152816024820152826044820152600460648201528581608481887f0000000000000000000000000000000000000000000000000000000000000000165afa90811561064557600091611dae575b501590611aaf565b90508581813d8311611ddc575b611dc5818361417f565b8101031261065157611dd69061424b565b86611da6565b503d611dbb565b611dfa9150863d881161075b5761074d818361417f565b86611aa2565b346106515760003660031901126106515760206040517f00000000000000000000000000000000000000000000000000000000000000008152f35b346106515760003660031901126106515760206040517f00000000000000000000000000000000000000000000000000000000000000008152f35b34610651576000366003190112610651576040517f00000000000000000000000000000000000000000000000000000000000000006001600160a01b03168152602090f35b346106515760c036600319011261065157611ed461408a565b5060a4356001600160401b03811161065157611ef49036906004016140a0565b60a09190915260405163c664459760e01b81526004803590820152602480359082015260448035908201526000919061014081606481866001600160a01b037f0000000000000000000000000000000000000000000000000000000000000000165af190811561064557600090600092613242575b506084358210610ed8576040516331a9108f60e11b81526004803590820152926020846024817f00000000000000000000000000000000000000000000000000000000000000006001600160a01b03165afa93841561064557600094613221575b5060025461321157633b9aca005b602083015192600060c0528496633b9aca0093604051926369e11cc560e01b84526000848061203f7f00000000000000000000000000000000000000000000000000000000000000008b600435600485016040919493926060820195825260208201520152565b03817f00000000000000000000000000000000000000000000000000000000000000006001600160a01b03165afa938415610645576000946130bf575b5060005b8451811015612f8057612093818661462e565b516040810151888103612f6d57506120b28c985b604083015190614258565b97600060805280612131575b50906001916120d06040518092614858565b60805160e082015233610100820152897f0000000000000000000000000000000000000000000000000000000000000000917f2a1f2df21da49f011c6165709ae4b279f8d6d7cffe9043c582352882d8c9698b61012060043592a401612080565b60c0820151919c92916001600160a01b03161561237357633b9aca008814801561234d575b1561232757806080525b60805160c08e015161217b91906001600160a01b031661447a565b604051928360c08101106001600160401b0360c0860111176123115760c0840160405260018060a01b037f000000000000000000000000000000000000000000000000000000000000000016845260805160208501527f0000000000000000000000000000000000000000000000000000000000000000604085015260043560608501527f000000000000000000000000000000000000000000000000000000000000000060808501528d60a08501528d60c060018060a01b03910151169361eeee60018060a01b037f0000000000000000000000000000000000000000000000000000000000000000161460001461230a576080515b853b156106515760408051634eba05fd60e11b815283516001600160a01b0316600482015260208401516024820152908301516044820152606083015160648201526080830151608482015260a090920151919560009287926101849284926122df9060a4850190614858565b5af1938415610645576001946122fb575b505b039b90916120be565b612304906140e3565b8e6122f0565b6000612272565b634e487b7160e01b600052604160045260246000fd5b612334886002548361534d565b81036080526123458160c05161484b565b60c052612160565b5060c08d01516001600160a01b031660009081526004602052604090205460ff16612156565b60608d01518d9015612f075760600151604051630862026560e41b815260048101919091526001600160a01b037f0000000000000000000000000000000000000000000000000000000000000000166024820152602081806044810103817f00000000000000000000000000000000000000000000000000000000000000006001600160a01b03165afa90811561064557600091612ee8575b506001600160a01b03811615612ed6576001600160a01b0381163003612c4b575080608052602060405161243f81614111565b81815281369101376040519260043560208501526020845261246084614111565b60208e01518e901561258557606001516040519461247d86614164565b600086527f00000000000000000000000000000000000000000000000000000000000000006001600160a01b03163b156106515760405163e7c8e3e360e01b81526004810183905260248101859052600081604481837f00000000000000000000000000000000000000000000000000000000000000006001600160a01b03165af1968715610645576125677f9ecaf7fc3dfffd6867c175d6e684b1f1e3aef019398ba8db2c1ffab4a09db253936125599360019a612576575b506040519384938985526000602086015260a0604086015260a085019061441c565b90838203606085015261441c565b3360808301520390a25b6122f2565b61257f906140e3565b38612537565b6060810151608082015194959394929390926001600160a01b03168015612c4357915b51151590604051926125b984614164565b6000808552916001600160a01b03821615612c31576126f6946125da614658565b5060006126e3604051926125ed846140f6565b7f00000000000000000000000000000000000000000000000000000000000000006001600160a01b03168452602084018c90527f00000000000000000000000000000000000000000000000000000000000000006040808601919091527f0000000000000000000000000000000000000000000000000000000000000000606086015251632fa1b39160e01b815230600482015298899283926126936024850188614770565b60a484018d90527f000000000000000000000000000000000000000000000000000000000000000060c48501526001600160a01b03891660e485015261014061010485015261014484019061441c565b828103600319016101248401528661441c565b0381837f00000000000000000000000000000000000000000000000000000000000000006001600160a01b03165af19586156106455760009560008092600099612b11575b50806129f3575b5081516127d4575b505050917f133161f1c9161488f777ab9a26aae91d47c0d9a3fafb398960f138db02c73797916127c685946127b8602060019d9c9b9a999801519651976040519586953087528f8060a01b031660208701528c6040870152606086015260e0608086015260e085019061441c565b9083820360a085015261441c565b3360c08301520390a46122f2565b6040516127e0816140f6565b60018060a01b037f00000000000000000000000000000000000000000000000000000000000000001681528b60208201527f000000000000000000000000000000000000000000000000000000000000000060408201527f000000000000000000000000000000000000000000000000000000000000000060608201526020880151936040519461287086614148565b3086528b60208701526040860152606085015260808401528560a084015260018060a01b03851660c084015260e0830152866101008301528261012083015280519060005b8281106128c2575061274a565b6128cc818361462e565b51805160208201519192916128e9916001600160a01b031661447a565b6000917f00000000000000000000000000000000000000000000000000000000000000006001600160a01b031661eeee146129e7575b60208181015160808801519091015280516001600160a01b031692833b15610651576000906040519485809263da9ee8b760e01b8252602060048301528161296a602482018d6152b0565b03925af1928315610645576001936129d8575b507f16112c26e14efc4be6c690149aa5a1ba75160de245f60d2273e28adb277b9e126020848060a01b038351169201516040518091606082526129c3606083018b6152b0565b9060208301523360408301520390a2016128b5565b6129e1906140e3565b3861297d565b6020810151925061291f565b604051632eec7b5560e11b8152600481018b90529196506020826024817f00000000000000000000000000000000000000000000000000000000000000006001600160a01b03165afa91821561064557600092612aef575b50604051638ae9c07b60e01b8152600481018b905260248101919091526001600160a01b03868116604483015260c06064830152600060c4830181905260848301899052600160a48401529192602092849260e492849291165af190811561064557600091612abd575b509438612742565b90506020813d602011612ae7575b81612ad86020938361417f565b81010312610651575138612ab5565b3d9150612acb565b6020919250612b0a90823d841161075b5761074d818361417f565b9190612a4b565b9850509550503d94856000883e612b28868861417f565b61018087878101031261065157612b418688018861469d565b9061012088015196610140890151986001600160401b038a1161065157818101601f8b8301011215610651578981015199612b7b8b614234565b9a612b896040519c8d61417f565b808c5260208c0184840160208360061b85870101011161065157602083850101905b60208360061b85870101018210612bea57505050506101608101516001600160401b03811161065157612be1928201910161472e565b9791963861273b565b60408287870103126106515760405190612c0382614111565b8251906001600160a01b03821682036106515782602092604094528285015183820152815201910190612bab565b60405163a762251360e01b8152600490fd5b5033916125a8565b92633b9aca0089148015612eb4575b15612e8e57816080525b608051612c7a906001600160a01b03861661447a565b7f00000000000000000000000000000000000000000000000000000000000000006001600160a01b031661eeee03612e86576080518e5b6020604051612cbf81614111565b818152813691013760405190600435602083015260208252612ce082614111565b602081015115612d795760600151956001600160a01b0381163b1561065157612d489660009360405180998195829463019f1d0b60e31b84527f0000000000000000000000000000000000000000000000000000000000000000906080519060048601614441565b03926001600160a01b03165af193841561064557600194612d6a575b506122f2565b612d73906140e3565b8e612d64565b606081015160808201519497929460209491939291906001600160a01b03168015612e7e57915b51151593612e3260405197889687958694631ebc263f60e01b86526004860152608051602486015260018060a01b037f000000000000000000000000000000000000000000000000000000000000000016604486015260018060a01b031660648501526000608485015260a484015261010060c4840152600061010484015261012060e484015261012483019061441c565b03926001600160a01b03165af1801561064557612e53575b506001926122f2565b602090813d8311612e77575b612e69818361417f565b81010312610651578d612e4a565b503d612e5f565b503391612da0565b60008e612cb1565b612e9b896002548461534d565b8203608052612eac8260c05161484b565b60c052612c64565b506001600160a01b03841660009081526004602052604090205460ff16612c5a565b604051636921234360e01b8152600490fd5b612f01915060203d60201161075b5761074d818361417f565b8e61240c565b60800151600193906001600160a01b03168015612f6357612571905b633b9aca008b03612f3d57836080525b60805190306142ed565b612f4a8b6002548661534d565b8403608052612f5b8460c05161484b565b60c052612f33565b5061257133612f23565b612f7a6120b2918c615733565b986120a7565b5060209350879089868c60c05181633b9aca0084036130b8575b508281156130ae57612fba916001600160a01b0386169087600435614920565b915b81613055575b5050907f24352f49df447b14e0e08a323625c663d865ce20c343c4638af12e1dc48aa76091878401519351946040519260018060a01b03168352602435898401526040830152606082015285608082015260e060a08201528460e082015260a05185610100918284013760008287018201523360c083015260043595601f01601f191682018290030190a4604051908152f35b7f24352f49df447b14e0e08a323625c663d865ce20c343c4638af12e1dc48aa760939297509061308b613091926002548361534d565b90614258565b956130a6876001600160a01b038416306142ed565b909188612fc2565b5050600091612fbc565b0181612f9a565b9093503d806000833e6130d2818361417f565b6020828281010312610651578151906001600160401b03821161065157808301601f83850101121561065157818301519061310c82614234565b9361311a604051958661417f565b8285526020850193828201602060e086028385010101116106515793602085830101945b602060e086028285010101861061315c57505050505050928a61207c565b60e086858501031261065157604051918260e08101106001600160401b0360e0850111176123115760e083016040526131948761424b565b83526131a26020880161424b565b6020840152604087810151908401526060808801519084015260808701516001600160a01b038116810361065157608084015260a0878101519084015260c0870151926001600160a01b038416840361065157602060e09282829660c08695015281520197019692505061313e565b61321c600435615378565b611fd8565b61323b91945060203d60201161075b5761074d818361417f565b9285611fca565b905061325f91506101403d61014011610f1a57610f07818361417f565b9084611f69565b6101003660031901126106515761327b61405e565b5061328461408a565b60a4359081151582036106515760c4356001600160401b038111610651576132b09036906004016140a0565b60e4929192356001600160401b038111610651576132d29036906004016140a0565b604051636e49181f60e01b81526004803590820152306024820152909491906020816044816001600160a01b037f0000000000000000000000000000000000000000000000000000000000000000165afa90811561064557600091613a6d575b5015613a5b576024357f00000000000000000000000000000000000000000000000000000000000000006001600160a01b031661eeee14613a4c5734613a3a576133a69261339d61339d92613390613388614265565b9130336142ed565b613398614265565b614258565b945b36916141bb565b936000936001600160a01b03841615612c31576134e2906133c5614658565b5060006134cf604051926133d8846140f6565b7f00000000000000000000000000000000000000000000000000000000000000006001600160a01b03168452602084018790527f00000000000000000000000000000000000000000000000000000000000000006040808601919091527f0000000000000000000000000000000000000000000000000000000000000000606086015251632fa1b39160e01b8152336004820152948592839261347e6024850188614770565b60043560a48501527f000000000000000000000000000000000000000000000000000000000000000060c48501526001600160a01b038b1660e485015261014061010485015261014484019061441c565b828103600319016101248401528b61441c565b0381837f00000000000000000000000000000000000000000000000000000000000000006001600160a01b03165af19182156106455760009360008092600095613914575b50806137f3575b5060843588106137e15781516135ba575b5050506135a360209661036a7f133161f1c9161488f777ab9a26aae91d47c0d9a3fafb398960f138db02c73797938986015195519660405198338a5260018060a01b03168b8a0152604089015288606089015260e0608089015260e088019061441c565b933360c082015280600435950390a4604051908152f35b6040516135c6816140f6565b60018060a01b037f00000000000000000000000000000000000000000000000000000000000000001681528660208201527f000000000000000000000000000000000000000000000000000000000000000060408201527f000000000000000000000000000000000000000000000000000000000000000060608201526020860151936040519461365686614148565b338652600435602087015260408601526060850152608084015260a083018890526001600160a01b03871660c0840152151560e08301526101008201839052610120820188905280519060005b8281106136b0575061353f565b6136ba818361462e565b51805160208201519192916136d7916001600160a01b031661447a565b6000917f00000000000000000000000000000000000000000000000000000000000000006001600160a01b031661eeee146137d5575b60208181015160808801519091015280516001600160a01b031692833b15610651576000906040519485809263da9ee8b760e01b82526020600483015281613758602482018d6152b0565b03925af1928315610645576001936137c6575b507f16112c26e14efc4be6c690149aa5a1ba75160de245f60d2273e28adb277b9e126020848060a01b038351169201516040518091606082526137b1606083018b6152b0565b9060208301523360408301520390a2016136a3565b6137cf906140e3565b8c61376b565b6020810151925061370d565b604051633dca309360e11b8152600490fd5b604051632eec7b5560e11b81526004803590820152919850906020816024817f00000000000000000000000000000000000000000000000000000000000000006001600160a01b03165afa80156106455760009260209284926138f2575b50604051638ae9c07b60e01b8152600480359082015260248101919091526001600160a01b038a8116604483015260c0606483015260c482018590528b15156084830152600160a48301529093849260e492849291165af1908115610645576000916138c0575b50968961352e565b90506020813d6020116138ea575b816138db6020938361417f565b810103126106515751896138b8565b3d91506138ce565b60e491925061390d90843d861161075b5761074d818361417f565b9190613851565b9450509350503d92836000843e61392b848461417f565b610180838581010312610651576139448484018461469d565b9061012084015194610140850151946001600160401b03861161065157818101601f87830101121561065157858101519561397e87614234565b9661398c604051988961417f565b808852602088019184840160208360061b8387010101116106515791602083850101925b60208360061b828701010184106139f157505050506101608101516001600160401b038111610651576139e6928201910161472e565b91949391938a613527565b604084878701031261065157604051613a0981614111565b84516001600160a01b03811681036106515760209382859260409452828801518382015281520194019391506139b0565b604051635e7e9adf60e11b8152600490fd5b5061339d6133a692349461339f565b604051631b1d5a5960e31b8152600490fd5b90506020813d602011613a9f575b81613a886020938361417f565b8101031261065157613a999061424b565b87613332565b3d9150613a7b565b3461065157602036600319011261065157613ac0614074565b5060206040517f00000000000000000000000000000000000000000000000000000000000000008152f35b60a036600319011261065157600435613b0261405e565b506001600160401b0360643581811161065157613b239036906004016140a0565b9160843590811161065157613b3c9036906004016140a0565b604051636e49181f60e01b8152600481018690523060248201526001600160a01b039460209493909185816044817f00000000000000000000000000000000000000000000000000000000000000008b165afa90811561064557600091613f44575b5015613a5b57602435907f0000000000000000000000000000000000000000000000000000000000000000871661eeee14613f355734613a3a57613c09613bed613c1193613390613388614265565b955b336000526004885260ff60406000205416159436916141bb565b9336916141bb565b9015613f2d57600086600052808488600180895260406000209081548b613c3782614234565b93613c45604051958661417f565b8285528c8501906000528c80600020916000935b858510613ed35750505050505082600052808a52613c7a60406000206145c9565b8151849260005b828110613d88575050604080519384523360208501527f59860d79d97c1fce2be7f987915c631471f4b08f671200463cc40a3380194ffb939092509050a4945b7f00000000000000000000000000000000000000000000000000000000000000001691613cee868561484b565b833b156106515760009360448592604051968793849263e7c8e3e360e01b84528d600485015260248401525af1908115610645577f9ecaf7fc3dfffd6867c175d6e684b1f1e3aef019398ba8db2c1ffab4a09db25396613d6e9461255993613d79575b50604051968796875286015260a0604086015260a085019061441c565b3360808301520390a2005b613d82906140e3565b89613d51565b92955092955092508415600014613dca5783908c600052818b52613dbb6040600020613db4838661462e565b51906148a8565b01919288938695928d94613c81565b9493613dd6868361462e565b51518110613e27578390613dea878461462e565b5151900394613e20613dfc888561462e565b515163ffffffff808e613e0f8c8961462e565b510151169060406115fb8c8961462e565b0195613dbb565b613ec8908c60009796939752848b528b613eab8c604060002084613e4b8b8d61462e565b515103918a8c63ffffffff968784613e63858561462e565b5101511690886040613e75868661462e565b5101511692613e87606095869261462e565b510151169360405196613e99886140f6565b875286015260408501528301526148a8565b808c613eb7898b61462e565b510151169060406115fb898b61462e565b019382600094613dbb565b9091929598506002939699508894975060405190613ef0826140f6565b865482528587015463ffffffff8082168685015281861c16604084015260401c16606082015281520192019201928c938796938c8c97948f613c59565b600094613cc1565b613c119150613c093495613bef565b90508581813d8311613f72575b613f5b818361417f565b8101031261065157613f6c9061424b565b88613b9e565b503d613f51565b34610651576020366003190112610651576004359063ffffffff60e01b82168092036106515760209163edb527eb60e01b811490811561404d575b811561403c575b811561402b575b811561401a575b8115613fd7575b5015158152f35b63301cdc3960e21b811491508115614009575b8115613ff8575b5083613fd0565b6301ffc9a760e01b14905083613ff1565b63144b000160e11b81149150613fea565b63ad007d6360e01b81149150613fc9565b63fe663f0f60e01b81149150613fc2565b63bc8926e960e01b81149150613fbb565b6315933da760e11b81149150613fb4565b604435906001600160a01b038216820361065157565b600435906001600160a01b038216820361065157565b606435906001600160a01b038216820361065157565b9181601f84011215610651578235916001600160401b038311610651576020838186019501011161065157565b60a435906001600160a01b038216820361065157565b6001600160401b03811161231157604052565b608081019081106001600160401b0382111761231157604052565b604081019081106001600160401b0382111761231157604052565b61012081019081106001600160401b0382111761231157604052565b61014081019081106001600160401b0382111761231157604052565b602081019081106001600160401b0382111761231157604052565b90601f801991011681019081106001600160401b0382111761231157604052565b6001600160401b03811161231157601f01601f191660200190565b9291926141c7826141a0565b916141d5604051938461417f565b829481845281830111610651578281602093846000960137010152565b9080601f830112156106515781602061420d933591016141bb565b90565b604d811161421e57600a0a90565b634e487b7160e01b600052601160045260246000fd5b6001600160401b0381116123115760051b60200190565b5190811515820361065157565b9190820391821161421e57565b6040516370a0823160e01b81523060048201526020816024817f00000000000000000000000000000000000000000000000000000000000000006001600160a01b03165afa908115610645576000916142bc575090565b906020823d82116142e5575b816142d56020938361417f565b810103126142e257505190565b80fd5b3d91506142c8565b90916001600160a01b0391821630810361436d575060405163a9059cbb60e01b60208201529282166001600160a01b03166024840152604483015261436b919061434482606481015b03601f19810184528361417f565b7f00000000000000000000000000000000000000000000000000000000000000001661558b565b565b918093604051936323b872dd60e01b6020860152602485015216604483015260648201526064815260a08101918183106001600160401b038411176123115761436b926040527f00000000000000000000000000000000000000000000000000000000000000001661558b565b9081602091031261065157516001600160a01b03811681036106515790565b60005b83811061440c5750506000910152565b81810151838201526020016143fc565b90602091614435815180928185528580860191016143f9565b601f01601f1916010190565b909260c09261420d95948352602083015260018060a01b0316604082015260a06060820152600060a0820152816080820152019061441c565b907f00000000000000000000000000000000000000000000000000000000000000006001600160a01b031681158015614556575b156144f25760405163095ea7b360e01b60208201526001600160a01b039093166024840152604483019190915261436b91906144ed8260648101614336565b61558b565b60405162461bcd60e51b815260206004820152603660248201527f5361666545524332303a20617070726f76652066726f6d206e6f6e2d7a65726f60448201527520746f206e6f6e2d7a65726f20616c6c6f77616e636560501b6064820152608490fd5b50604051636eb1769f60e11b81523060048201526001600160a01b0384166024820152602081604481855afa90811561064557600091614598575b50156144ae565b906020823d82116145c1575b816145b16020938361417f565b810103126142e257505138614591565b3d91506145a4565b805490600090818155826145dc57505050565b6001600160ff1b038316830361461a5781526020812091600190811b8301925b8381106146095750505050565b8083600292558383820155016145fc565b634e487b7160e01b82526011600452602482fd5b80518210156146425760209160051b010190565b634e487b7160e01b600052603260045260246000fd5b604051906146658261412c565b816101006000918281528260208201528260408201528260608201528260808201528260a08201528260c08201528260e08201520152565b8092916101209182910312610651576040519081018181106001600160401b03821117612311576040528092805182526020810151602083015260408101516040830152606081015160608301526080810151608083015260a081015160a083015260c081015160c083015260e081015160018060a01b03811681036106515760e083015261010080910151910152565b81601f82011215610651578051614744816141a0565b92614752604051948561417f565b818452602082840101116106515761420d91602080850191016143f9565b80516001600160a01b031682526020808201519083015260408082015190830152606090810151910152565b61420d9160018060a01b038083511682526020830151602083015260408301516040830152606083015160608301526147dd60808401516080840190614770565b60a0830151906147f36101009283850190614770565b60c08401511661018083015261481960e08401516101e0806101a086015284019061441c565b920151906101c081840391015261441c565b91906101408382031261065157614845610120918461469d565b92015190565b9190820180921161421e57565b60c09080511515835260208101511515602084015260408101516040840152606081015160608401528160018060a01b039182608082015116608086015260a081015160a0860152015116910152565b8054600160401b811015612311576001810180835581101561464257600191600052602060002090821b0182518155019063ffffffff6020820151169082549167ffffffff00000000604083015160201b16916060600160401b600160e01b0391015160401b169263ffffffff60e01b161717179055565b90936101009594600180614937846002548861534d565b9889930151604f1c16146000146149d4575060607f77813be0661650ddc1a5193ff2837df4162b251cb432651e2c060c3fc39756be918360005260016020526149bc60406000209663ffffffff9081600254169160405192614998846140f6565b8984526020840152841660408301526001600160a01b0316848201819052976148a8565b600254956040519182526020820152336040820152a4565b9250507fcf0c92a2c6d7c42f488326b0cb900104b99984b6b218db81cd29371364a35251614a2884614a0860009686614a2d565b604080516001600160a01b03909216825233602083015290918291820190565b0390a4565b604051630862026560e41b8152600160048201526001600160a01b037f00000000000000000000000000000000000000000000000000000000000000008116602483015291939291602090829060449082907f0000000000000000000000000000000000000000000000000000000000000000165afa90811561064557600091615291575b506001600160a01b031630810361516d575060405190614ad182614164565b6000825260405190614ae282614164565b6000808352926001600160a01b03821615612c3157614c0b92614b03614658565b50846126e360405192614b15846140f6565b7f00000000000000000000000000000000000000000000000000000000000000006001600160a01b03168452602084018a90527f00000000000000000000000000000000000000000000000000000000000000006040808601919091527f0000000000000000000000000000000000000000000000000000000000000000606086015251632fa1b39160e01b81523060048201529687928392614bbb6024850188614770565b600160a48501527f000000000000000000000000000000000000000000000000000000000000000060c48501526001600160a01b03891660e485015261014061010485015261014484019061441c565b0381837f00000000000000000000000000000000000000000000000000000000000000006001600160a01b03165af19081156151625785948687918894615029575b5080614ef2575b508051614ccf575b505091614cc460019697926127b87f133161f1c9161488f777ab9a26aae91d47c0d9a3fafb398960f138db02c737979560208801519751986040519687963088528c8060a01b031660208801526040870152606086015260e0608086015260e085019061441c565b3360c08301520390a4565b604051614cdb816140f6565b60018060a01b037f00000000000000000000000000000000000000000000000000000000000000001681528960208201527f000000000000000000000000000000000000000000000000000000000000000060408201527f0000000000000000000000000000000000000000000000000000000000000000606082015260208701519260405193614d6b85614148565b308552600160208601526040850152606084015260808301528660a083015260018060a01b03851660c0830152600060e0830152826101008301528361012083015280519060005b828110614dc1575050614c5c565b614dcb818361462e565b5180516020820151919291614de8916001600160a01b031661447a565b6000917f00000000000000000000000000000000000000000000000000000000000000006001600160a01b031661eeee14614ee6575b60208181015160808801519091015280516001600160a01b031692833b15610651576000906040519485809263da9ee8b760e01b82526020600483015281614e69602482018d6152b0565b03925af192831561064557600193614ed7575b507f16112c26e14efc4be6c690149aa5a1ba75160de245f60d2273e28adb277b9e126020848060a01b03835116920151604051809160608252614ec2606083018b6152b0565b9060208301523360408301520390a201614db3565b614ee0906140e3565b38614e7c565b60208101519250614e1e565b604051632eec7b5560e11b815260016004820152919791906020826024817f00000000000000000000000000000000000000000000000000000000000000006001600160a01b03165afa91821561501e579160209184938492614ffc575b5060e4906040519485938492638ae9c07b60e01b845260016004850152602484015260018060a01b038c16604484015260c060648401528160c4840152816084840152600160a484015260018060a01b03165af1918215614ff0578092614fbb575b50509538614c54565b9091506020823d602011614fe8575b81614fd76020938361417f565b810103126142e25750513880614fb2565b3d9150614fca565b604051903d90823e3d90fd5b60e491925061501790843d861161075b5761074d818361417f565b9190614f50565b6040513d85823e3d90fd5b9650505090503d908186863e61503f828661417f565b61018085838101031261515e576150588286018661469d565b61012086015195610140810151936001600160401b03851161515a57808201601f86840101121561515a57848201519461509186614234565b9561509f604051978861417f565b808752602087019183850160208360061b83880101011161515657602081860101925b60208360061b838801010184106151095750505050610160820151906001600160401b038211615105576150fa92908101910161472e565b909592909238614c4d565b8980fd5b60408486880103126151525760405161512181614111565b84516001600160a01b038116810361514e57815260208581015181830152908252604090940193016150c2565b8e80fd5b8c80fd5b8b80fd5b8880fd5b8580fd5b6040513d87823e3d90fd5b928360209261518083615254969761447a565b60007f00000000000000000000000000000000000000000000000000000000000000006001600160a01b031661eeee0361528c5750825b604051936151c485614164565b6000855260405196879586948593631ebc263f60e01b855260016004860152602485015260018060a01b037f000000000000000000000000000000000000000000000000000000000000000016604485015260018060a01b0316606484015260006084840152600060a484015261010060c4840152600061010484015261012060e484015261012483019061441c565b03925af18015610645576152655750565b602090813d8311615285575b61527b818361417f565b8101031261065157565b503d615271565b6151b7565b6152aa915060203d60201161075b5761074d818361417f565b38614ab2565b61420d9160018060a01b0380835116825260208301516020830152604083015160408301526152e760608401516060840190614770565b6152f9608084015160e0840190614770565b60a083015161016083015260c08301511661018082015260e082015115156101a082015261012061533b610100840151610200806101c086015284019061441c565b920151906101e081840391015261441c565b919061308b61535c9282615733565b90633b9aca00820180921161421e5761308b61420d92826157bf565b604051630862026560e41b8152600160048201526001600160a01b037f00000000000000000000000000000000000000000000000000000000000000008116602483015260209182816044817f000000000000000000000000000000000000000000000000000000000000000086165afa8015610645578291600091615497575b50161561548c57600354169182615413575b505050600090565b8190602460405180958193633bb4ac4b60e11b835260048301525afa91829160009361545b575b50506154465750600090565b633b9aca0081111561420d575038808061540b565b8181949293943d8311615485575b615473818361417f565b810103126142e257505190388061543a565b503d615469565b505050633b9aca0090565b6154ae9150843d861161075b5761074d818361417f565b386153f9565b81156154be570490565b634e487b7160e01b600052601260045260246000fd5b90601281036154e1575090565b80601211600014615514576012036012811161421e5761550090614210565b9081810291818304149015171561421e5790565b60111981019190821161421e5761552d61420d92614210565b906154b4565b6000546001600160a01b0316330361554757565b606460405162461bcd60e51b815260206004820152602060248201527f4f776e61626c653a2063616c6c6572206973206e6f7420746865206f776e65726044820152fd5b60018060a01b0316906156086040516155a381614111565b6020938482527f5361666545524332303a206c6f772d6c6576656c2063616c6c206661696c6564858301526000808587829751910182855af13d15615692573d916155ed836141a0565b926155fb604051948561417f565b83523d868885013e615696565b90815180615617575b50505050565b828491810103126142e257508161562e910161424b565b1561563b57808080615611565b6084906040519062461bcd60e51b82526004820152602a60248201527f5361666545524332303a204552433230206f7065726174696f6e20646964206e6044820152691bdd081cdd58d8d9595960b21b6064820152fd5b6060915b919290156156f857508151156156aa575090565b3b156156b35790565b60405162461bcd60e51b815260206004820152601d60248201527f416464726573733a2063616c6c20746f206e6f6e2d636f6e74726163740000006044820152606490fd5b82519091501561570b5750805190602001fd5b60405162461bcd60e51b81526020600482015290819061572f90602483019061441c565b0390fd5b9190600019818409818402918280831092039180830392146157b257633b9aca009081831015615794577f88f2cfb83100cb4e69e7c79c58b316e597157d372fb9787e8e47ce423a2e9c6d94950990828211900360f71b910360091c170290565b6044838360405191631dcf306360e21b835260048301526024820152fd5b5050633b9aca0090049150565b633b9aca00916000198383099280830292838086109503948086039514615859578285101561583b57908291096001821901821680920460028082600302188083028203028083028203028083028203028083028203028083028203028092029003029360018380600003040190848311900302920304170290565b6044858460405191631dcf306360e21b835260048301526024820152fd5b50509061420d92506154b4565b90916000198383099280830292838086109503948086039514615859578285101561583b5790829109600182190182168092046002808260030218808302820302808302820302808302820302808302820302808302820302809202900302936001838060000304019084831190030292030417029056fea26469706673582212208e4b41ec3eb6e5b5c4ce951505059893b6efcfaacc857ac4e17aade7e75ddab564736f6c63430008110033",
    "linkReferences": {}
  },
  "methodIdentifiers": {
    "acceptsToken(address,uint256)": "df21a7dd",
    "addToBalanceOf(uint256,uint256,address,string,bytes)": "0cf8e858",
    "baseWeightCurrency()": "2d1a5903",
    "currency()": "e5a6b10f",
    "currencyForToken(address)": "1982d679",
    "currentEthOverflowOf(uint256)": "a32e1e96",
    "decimals()": "313ce567",
    "decimalsForToken(address)": "b7bad1b1",
    "directory()": "c41c2f24",
    "distributePayoutsOf(uint256,uint256,uint256,address,uint256,string)": "2b267b4e",
    "fee()": "ddca3f43",
    "feeGauge()": "d6dacc53",
    "heldFeesOf(uint256)": "8af56094",
    "isFeelessAddress(address)": "b631b500",
    "migrate(uint256,address)": "405b84fa",
    "operatorStore()": "ad007d63",
    "owner()": "8da5cb5b",
    "pay(uint256,uint256,address,address,uint256,bool,string,bytes)": "1ebc263f",
    "payoutSplitsGroup()": "66248b86",
    "prices()": "d3419bf3",
    "processFees(uint256)": "89701db5",
    "projects()": "8b79543c",
    "redeemTokensOf(address,uint256,uint256,address,uint256,address,string,bytes)": "fe663f0f",
    "renounceOwnership()": "715018a6",
    "setFee(uint256)": "69fe0e2d",
    "setFeeGauge(address)": "637913ac",
    "setFeelessAddress(address,bool)": "7258002c",
    "splitsStore()": "2bdfe004",
    "store()": "975057e7",
    "supportsInterface(bytes4)": "01ffc9a7",
    "token()": "fc0c546a",
    "transferOwnership(address)": "f2fde38b",
    "useAllowanceOf(uint256,uint256,uint256,address,uint256,address,string)": "bc8926e9"
  },
  "id": 60
}