{
  "abi": [
    {
      "inputs": [
        {
          "internalType": "address",
          "name": "_owner",
          "type": "address"
        }
      ],
      "stateMutability": "nonpayable",
      "type": "constructor"
    },
    {
      "inputs": [
        {
          "internalType": "uint256",
          "name": "prod1",
          "type": "uint256"
        },
        {
          "internalType": "uint256",
          "name": "denominator",
          "type": "uint256"
        }
      ],
      "name": "PRBMath__MulDivOverflow",
      "type": "error"
    },
    {
      "inputs": [],
      "name": "PRICE_FEED_ALREADY_EXISTS",
      "type": "error"
    },
    {
      "inputs": [],
      "name": "PRICE_FEED_NOT_FOUND",
      "type": "error"
    },
    {
      "anonymous": false,
      "inputs": [
        {
          "indexed": true,
          "internalType": "uint256",
          "name": "currency",
          "type": "uint256"
        },
        {
          "indexed": true,
          "internalType": "uint256",
          "name": "base",
          "type": "uint256"
        },
        {
          "indexed": false,
          "internalType": "contract IJBPriceFeed",
          "name": "feed",
          "type": "address"
        }
      ],
      "name": "AddFeed",
      "type": "event"
    },
    {
      "anonymous": false,
      "inputs": [
        {
          "indexed": true,
          "internalType": "address",
          "name": "previousOwner",
          "type": "address"
        },
        {
          "indexed": true,
          "internalType": "address",
          "name": "newOwner",
          "type": "address"
        }
      ],
      "name": "OwnershipTransferred",
      "type": "event"
    },
    {
      "inputs": [
        {
          "internalType": "uint256",
          "name": "_currency",
          "type": "uint256"
        },
        {
          "internalType": "uint256",
          "name": "_base",
          "type": "uint256"
        },
        {
          "internalType": "contract IJBPriceFeed",
          "name": "_feed",
          "type": "address"
        }
      ],
      "name": "addFeedFor",
      "outputs": [],
      "stateMutability": "nonpayable",
      "type": "function"
    },
    {
      "inputs": [
        {
          "internalType": "uint256",
          "name": "",
          "type": "uint256"
        },
        {
          "internalType": "uint256",
          "name": "",
          "type": "uint256"
        }
      ],
      "name": "feedFor",
      "outputs": [
        {
          "internalType": "contract IJBPriceFeed",
          "name": "",
          "type": "address"
        }
      ],
      "stateMutability": "view",
      "type": "function"
    },
    {
      "inputs": [],
      "name": "owner",
      "outputs": [
        {
          "internalType": "address",
          "name": "",
          "type": "address"
        }
      ],
      "stateMutability": "view",
      "type": "function"
    },
    {
      "inputs": [
        {
          "internalType": "uint256",
          "name": "_currency",
          "type": "uint256"
        },
        {
          "internalType": "uint256",
          "name": "_base",
          "type": "uint256"
        },
        {
          "internalType": "uint256",
          "name": "_decimals",
          "type": "uint256"
        }
      ],
      "name": "priceFor",
      "outputs": [
        {
          "internalType": "uint256",
          "name": "",
          "type": "uint256"
        }
      ],
      "stateMutability": "view",
      "type": "function"
    },
    {
      "inputs": [],
      "name": "renounceOwnership",
      "outputs": [],
      "stateMutability": "nonpayable",
      "type": "function"
    },
    {
      "inputs": [
        {
          "internalType": "address",
          "name": "newOwner",
          "type": "address"
        }
      ],
      "name": "transferOwnership",
      "outputs": [],
      "stateMutability": "nonpayable",
      "type": "function"
    }
  ],
  "bytecode": {
    "object": "0x60803461011b57601f61079938819003918201601f19168301916001600160401b038311848410176101205780849260209460405283398101031261011b57516001600160a01b038082169081830361011b5761005b33610136565b339060005416036100d757156100835761007490610136565b60405161061690816101838239f35b60405162461bcd60e51b815260206004820152602660248201527f4f776e61626c653a206e6577206f776e657220697320746865207a65726f206160448201526564647265737360d01b6064820152608490fd5b606460405162461bcd60e51b815260206004820152602060248201527f4f776e61626c653a2063616c6c6572206973206e6f7420746865206f776e65726044820152fd5b600080fd5b634e487b7160e01b600052604160045260246000fd5b600080546001600160a01b039283166001600160a01b03198216811783556040519093909116917f8be0079c531659141344cd1fd0a4f28419497f9722a3daafe3b4186f6b6457e091a356fe6080604081815260048036101561001557600080fd5b600092833560e01c90816315d63a91146102c757508063715018a61461026a5780638da5cb5b1461023e57806396364e6d14610162578063a4d0caf2146101305763f2fde38b1461006557600080fd5b3461012c57602036600319011261012c576001600160a01b0381358181169290839003610128576100946104ce565b82156100d6575083546001600160a01b0319811683178555925192167f8be0079c531659141344cd1fd0a4f28419497f9722a3daafe3b4186f6b6457e08484a3f35b608490602085519162461bcd60e51b8352820152602660248201527f4f776e61626c653a206e6577206f776e657220697320746865207a65726f206160448201526564647265737360d01b6064820152fd5b8480fd5b8280fd5b50913461015f57606036600319011261015f575061015860209260443590602435903561035d565b9051908152f35b80fd5b503461012c57606036600319011261012c57602435908035906001600160a01b0390604435828116919082900361023a5761019b6104ce565b838752602092600184528688208689528452808789205416159081159161021f575b50610211575082865260018252848620848752825284862080546001600160a01b0319168217905584519081527f2809ef679fa4c20b88a6467f2660840ad173b5205fef76c270c5d7ba44cb70579190a351f35b855163d28d564f60e01b8152fd5b905060018452868820858952845286882054161515386101bd565b8680fd5b505034610266578160031936011261026657905490516001600160a01b039091168152602090f35b5080fd5b5050346102665781600319360112610266576102846104ce565b81546001600160a01b03198116835590519082906001600160a01b03167f8be0079c531659141344cd1fd0a4f28419497f9722a3daafe3b4186f6b6457e08284a3f35b9050838334610266578060031936011261026657923581526001602090815283822060243583528152929020546001600160a01b03168152f35b604d811161030f57600a0a90565b634e487b7160e01b600052601160045260246000fd5b90601f8019910116810190811067ffffffffffffffff82111761034757604052565b634e487b7160e01b600052604160045260246000fd5b919290926000938084146104c05783855260209060018252604094858720828852835260018060a01b03918287892054168061044d575087526001835285872090875282528486205416806103bd578451633ae4eae560e11b8152600490fd5b6103c983959495610301565b91806103d485610301565b946024875180958193637a3c4c1760e01b835260048301525afa9485156104445750869461040d575b505061040a939450610526565b90565b9080929450813d831161043d575b6104258183610325565b810103126101285761040a93945051918493386103fd565b503d61041b565b513d88823e3d90fd5b9597949150508291506024865180968193637a3c4c1760e01b835260048301525afa9384156104b557508193610484575b50505090565b9091809350813d83116104ae575b61049c8183610325565b8101031261015f57505138808061047e565b503d610492565b51913d9150823e3d90fd5b5090925061040a9150610301565b6000546001600160a01b031633036104e257565b606460405162461bcd60e51b815260206004820152602060248201527f4f776e61626c653a2063616c6c6572206973206e6f7420746865206f776e65726044820152fd5b909160001983830992808302928380861095039480860395146105bc578285101561059e57908291096001821901821680920460028082600302188083028203028083028203028083028203028083028203028083028203028092029003029360018380600003040190848311900302920304170290565b6044858460405191631dcf306360e21b835260048301526024820152fd5b5050809250156105ca570490565b634e487b7160e01b600052601260045260246000fdfea264697066735822122049df7e81d67ad5a7dc8f54a184a9659ddf53c144fbc58ffbcd3f5ce8dbd4838464736f6c63430008100033",
    "linkReferences": {}
  },
  "methodIdentifiers": {
    "addFeedFor(uint256,uint256,address)": "96364e6d",
    "feedFor(uint256,uint256)": "15d63a91",
    "owner()": "8da5cb5b",
    "priceFor(uint256,uint256,uint256)": "a4d0caf2",
    "renounceOwnership()": "715018a6",
    "transferOwnership(address)": "f2fde38b"
  },
  "id": 54
}