{
  "abi": [
    {
      "inputs": [
        {
          "internalType": "contract IJBProjects",
          "name": "_projects",
          "type": "address"
        },
        {
          "internalType": "contract IJBOperatorStore",
          "name": "_operatorStore",
          "type": "address"
        }
      ],
      "stateMutability": "nonpayable",
      "type": "constructor"
    },
    {
      "inputs": [],
      "name": "ALEADY_MINTED",
      "type": "error"
    },
    {
      "inputs": [],
      "name": "APPROVAL_TO_CURRENT_OWNER",
      "type": "error"
    },
    {
      "inputs": [],
      "name": "APPROVE_TO_CALLER",
      "type": "error"
    },
    {
      "inputs": [],
      "name": "BLOCK_NOT_YET_MINED",
      "type": "error"
    },
    {
      "inputs": [],
      "name": "CALLER_NOT_OWNER_OR_APPROVED",
      "type": "error"
    },
    {
      "inputs": [],
      "name": "DELEGATE_ADDRESS_ZERO",
      "type": "error"
    },
    {
      "inputs": [],
      "name": "INCORRECT_OWNER",
      "type": "error"
    },
    {
      "inputs": [
        {
          "internalType": "address",
          "name": "ownerAddress",
          "type": "address"
        },
        {
          "internalType": "uint256",
          "name": "projectId",
          "type": "uint256"
        }
      ],
      "name": "INVALID_NEW_OWNER",
      "type": "error"
    },
    {
      "inputs": [],
      "name": "INVALID_PAYMENT_EVENT",
      "type": "error"
    },
    {
      "inputs": [],
      "name": "INVALID_REDEMPTION_EVENT",
      "type": "error"
    },
    {
      "inputs": [],
      "name": "INVALID_REDEMPTION_METADATA",
      "type": "error"
    },
    {
      "inputs": [],
      "name": "INVALID_TOKEN_ID",
      "type": "error"
    },
    {
      "inputs": [],
      "name": "MINT_TO_ZERO",
      "type": "error"
    },
    {
      "inputs": [],
      "name": "NOT_AVAILABLE",
      "type": "error"
    },
    {
      "inputs": [],
      "name": "OVERSPENDING",
      "type": "error"
    },
    {
      "inputs": [
        {
          "internalType": "uint256",
          "name": "prod1",
          "type": "uint256"
        },
        {
          "internalType": "uint256",
          "name": "denominator",
          "type": "uint256"
        }
      ],
      "name": "PRBMath__MulDivOverflow",
      "type": "error"
    },
    {
      "inputs": [],
      "name": "PRICING_RESOLVER_CHANGES_PAUSED",
      "type": "error"
    },
    {
      "inputs": [],
      "name": "RESERVED_TOKEN_MINTING_PAUSED",
      "type": "error"
    },
    {
      "inputs": [],
      "name": "TRANSFERS_PAUSED",
      "type": "error"
    },
    {
      "inputs": [],
      "name": "TRANSFER_TO_NON_IMPLEMENTER",
      "type": "error"
    },
    {
      "inputs": [],
      "name": "TRANSFER_TO_ZERO_ADDRESS",
      "type": "error"
    },
    {
      "inputs": [],
      "name": "UNAUTHORIZED",
      "type": "error"
    },
    {
      "inputs": [
        {
          "internalType": "uint256",
          "name": "_tokenId",
          "type": "uint256"
        }
      ],
      "name": "UNAUTHORIZED_TOKEN",
      "type": "error"
    },
    {
      "inputs": [],
      "name": "UNEXPECTED_TOKEN_REDEEMED",
      "type": "error"
    },
    {
      "anonymous": false,
      "inputs": [
        {
          "indexed": true,
          "internalType": "uint256",
          "name": "changeAmount",
          "type": "uint256"
        },
        {
          "indexed": true,
          "internalType": "uint256",
          "name": "newTotalCredits",
          "type": "uint256"
        },
        {
          "indexed": true,
          "internalType": "address",
          "name": "account",
          "type": "address"
        },
        {
          "indexed": false,
          "internalType": "address",
          "name": "caller",
          "type": "address"
        }
      ],
      "name": "AddCredits",
      "type": "event"
    },
    {
      "anonymous": false,
      "inputs": [
        {
          "indexed": true,
          "internalType": "uint256",
          "name": "tierId",
          "type": "uint256"
        },
        {
          "components": [
            {
              "internalType": "uint88",
              "name": "price",
              "type": "uint88"
            },
            {
              "internalType": "uint40",
              "name": "initialQuantity",
              "type": "uint40"
            },
            {
              "internalType": "uint40",
              "name": "votingUnits",
              "type": "uint40"
            },
            {
              "internalType": "uint16",
              "name": "reservedRate",
              "type": "uint16"
            },
            {
              "internalType": "address",
              "name": "reservedTokenBeneficiary",
              "type": "address"
            },
            {
              "internalType": "uint8",
              "name": "royaltyRate",
              "type": "uint8"
            },
            {
              "internalType": "address",
              "name": "royaltyBeneficiary",
              "type": "address"
            },
            {
              "internalType": "bytes32",
              "name": "encodedIPFSUri",
              "type": "bytes32"
            },
            {
              "internalType": "uint16",
              "name": "category",
              "type": "uint16"
            },
            {
              "internalType": "bool",
              "name": "allowManualMint",
              "type": "bool"
            },
            {
              "internalType": "bool",
              "name": "shouldUseReservedTokenBeneficiaryAsDefault",
              "type": "bool"
            },
            {
              "internalType": "bool",
              "name": "shouldUseRoyaltyBeneficiaryAsDefault",
              "type": "bool"
            },
            {
              "internalType": "bool",
              "name": "transfersPausable",
              "type": "bool"
            },
            {
              "internalType": "bool",
              "name": "useVotingUnits",
              "type": "bool"
            }
          ],
          "indexed": false,
          "internalType": "struct JB721TierParams",
          "name": "data",
          "type": "tuple"
        },
        {
          "indexed": false,
          "internalType": "address",
          "name": "caller",
          "type": "address"
        }
      ],
      "name": "AddTier",
      "type": "event"
    },
    {
      "anonymous": false,
      "inputs": [
        {
          "indexed": true,
          "internalType": "address",
          "name": "owner",
          "type": "address"
        },
        {
          "indexed": true,
          "internalType": "address",
          "name": "approved",
          "type": "address"
        },
        {
          "indexed": true,
          "internalType": "uint256",
          "name": "tokenId",
          "type": "uint256"
        }
      ],
      "name": "Approval",
      "type": "event"
    },
    {
      "anonymous": false,
      "inputs": [
        {
          "indexed": true,
          "internalType": "address",
          "name": "owner",
          "type": "address"
        },
        {
          "indexed": true,
          "internalType": "address",
          "name": "operator",
          "type": "address"
        },
        {
          "indexed": false,
          "internalType": "bool",
          "name": "approved",
          "type": "bool"
        }
      ],
      "name": "ApprovalForAll",
      "type": "event"
    },
    {
      "anonymous": false,
      "inputs": [
        {
          "indexed": true,
          "internalType": "address",
          "name": "delegator",
          "type": "address"
        },
        {
          "indexed": true,
          "internalType": "address",
          "name": "fromDelegate",
          "type": "address"
        },
        {
          "indexed": true,
          "internalType": "address",
          "name": "toDelegate",
          "type": "address"
        }
      ],
      "name": "DelegateChanged",
      "type": "event"
    },
    {
      "anonymous": false,
      "inputs": [
        {
          "indexed": true,
          "internalType": "uint256",
          "name": "tokenId",
          "type": "uint256"
        },
        {
          "indexed": true,
          "internalType": "uint256",
          "name": "tierId",
          "type": "uint256"
        },
        {
          "indexed": true,
          "internalType": "address",
          "name": "beneficiary",
          "type": "address"
        },
        {
          "indexed": false,
          "internalType": "uint256",
          "name": "totalAmountContributed",
          "type": "uint256"
        },
        {
          "indexed": false,
          "internalType": "address",
          "name": "caller",
          "type": "address"
        }
      ],
      "name": "Mint",
      "type": "event"
    },
    {
      "anonymous": false,
      "inputs": [
        {
          "indexed": true,
          "internalType": "uint256",
          "name": "tokenId",
          "type": "uint256"
        },
        {
          "indexed": true,
          "internalType": "uint256",
          "name": "tierId",
          "type": "uint256"
        },
        {
          "indexed": true,
          "internalType": "address",
          "name": "beneficiary",
          "type": "address"
        },
        {
          "indexed": false,
          "internalType": "address",
          "name": "caller",
          "type": "address"
        }
      ],
      "name": "MintReservedToken",
      "type": "event"
    },
    {
      "anonymous": false,
      "inputs": [
        {
          "indexed": true,
          "internalType": "address",
          "name": "previousOwner",
          "type": "address"
        },
        {
          "indexed": true,
          "internalType": "address",
          "name": "newOwner",
          "type": "address"
        }
      ],
      "name": "OwnershipTransferred",
      "type": "event"
    },
    {
      "anonymous": false,
      "inputs": [
        {
          "indexed": false,
          "internalType": "uint8",
          "name": "newIndex",
          "type": "uint8"
        }
      ],
      "name": "PermissionIndexChanged",
      "type": "event"
    },
    {
      "anonymous": false,
      "inputs": [
        {
          "indexed": true,
          "internalType": "uint256",
          "name": "tierId",
          "type": "uint256"
        },
        {
          "indexed": false,
          "internalType": "address",
          "name": "caller",
          "type": "address"
        }
      ],
      "name": "RemoveTier",
      "type": "event"
    },
    {
      "anonymous": false,
      "inputs": [
        {
          "indexed": true,
          "internalType": "string",
          "name": "baseUri",
          "type": "string"
        },
        {
          "indexed": false,
          "internalType": "address",
          "name": "caller",
          "type": "address"
        }
      ],
      "name": "SetBaseUri",
      "type": "event"
    },
    {
      "anonymous": false,
      "inputs": [
        {
          "indexed": true,
          "internalType": "string",
          "name": "contractUri",
          "type": "string"
        },
        {
          "indexed": false,
          "internalType": "address",
          "name": "caller",
          "type": "address"
        }
      ],
      "name": "SetContractUri",
      "type": "event"
    },
    {
      "anonymous": false,
      "inputs": [
        {
          "indexed": true,
          "internalType": "address",
          "name": "beneficiary",
          "type": "address"
        },
        {
          "indexed": false,
          "internalType": "address",
          "name": "caller",
          "type": "address"
        }
      ],
      "name": "SetDefaultReservedTokenBeneficiary",
      "type": "event"
    },
    {
      "anonymous": false,
      "inputs": [
        {
          "indexed": true,
          "internalType": "uint256",
          "name": "tierId",
          "type": "uint256"
        },
        {
          "indexed": false,
          "internalType": "bytes32",
          "name": "encodedIPFSUri",
          "type": "bytes32"
        },
        {
          "indexed": false,
          "internalType": "address",
          "name": "caller",
          "type": "address"
        }
      ],
      "name": "SetEncodedIPFSUri",
      "type": "event"
    },
    {
      "anonymous": false,
      "inputs": [
        {
          "indexed": true,
          "internalType": "contract IJBTokenUriResolver",
          "name": "newResolver",
          "type": "address"
        },
        {
          "indexed": false,
          "internalType": "address",
          "name": "caller",
          "type": "address"
        }
      ],
      "name": "SetTokenUriResolver",
      "type": "event"
    },
    {
      "anonymous": false,
      "inputs": [
        {
          "indexed": true,
          "internalType": "address",
          "name": "delegator",
          "type": "address"
        },
        {
          "indexed": true,
          "internalType": "address",
          "name": "fromDelegate",
          "type": "address"
        },
        {
          "indexed": true,
          "internalType": "address",
          "name": "toDelegate",
          "type": "address"
        },
        {
          "indexed": false,
          "internalType": "uint256",
          "name": "tierId",
          "type": "uint256"
        },
        {
          "indexed": false,
          "internalType": "address",
          "name": "caller",
          "type": "address"
        }
      ],
      "name": "TierDelegateChanged",
      "type": "event"
    },
    {
      "anonymous": false,
      "inputs": [
        {
          "indexed": true,
          "internalType": "address",
          "name": "delegate",
          "type": "address"
        },
        {
          "indexed": true,
          "internalType": "uint256",
          "name": "tierId",
          "type": "uint256"
        },
        {
          "indexed": false,
          "internalType": "uint256",
          "name": "previousBalance",
          "type": "uint256"
        },
        {
          "indexed": false,
          "internalType": "uint256",
          "name": "newBalance",
          "type": "uint256"
        },
        {
          "indexed": false,
          "internalType": "address",
          "name": "caller",
          "type": "address"
        }
      ],
      "name": "TierDelegateVotesChanged",
      "type": "event"
    },
    {
      "anonymous": false,
      "inputs": [
        {
          "indexed": true,
          "internalType": "address",
          "name": "from",
          "type": "address"
        },
        {
          "indexed": true,
          "internalType": "address",
          "name": "to",
          "type": "address"
        },
        {
          "indexed": true,
          "internalType": "uint256",
          "name": "tokenId",
          "type": "uint256"
        }
      ],
      "name": "Transfer",
      "type": "event"
    },
    {
      "anonymous": false,
      "inputs": [
        {
          "indexed": true,
          "internalType": "uint256",
          "name": "changeAmount",
          "type": "uint256"
        },
        {
          "indexed": true,
          "internalType": "uint256",
          "name": "newTotalCredits",
          "type": "uint256"
        },
        {
          "indexed": true,
          "internalType": "address",
          "name": "account",
          "type": "address"
        },
        {
          "indexed": false,
          "internalType": "address",
          "name": "caller",
          "type": "address"
        }
      ],
      "name": "UseCredits",
      "type": "event"
    },
    {
      "inputs": [
        {
          "components": [
            {
              "internalType": "uint88",
              "name": "price",
              "type": "uint88"
            },
            {
              "internalType": "uint40",
              "name": "initialQuantity",
              "type": "uint40"
            },
            {
              "internalType": "uint40",
              "name": "votingUnits",
              "type": "uint40"
            },
            {
              "internalType": "uint16",
              "name": "reservedRate",
              "type": "uint16"
            },
            {
              "internalType": "address",
              "name": "reservedTokenBeneficiary",
              "type": "address"
            },
            {
              "internalType": "uint8",
              "name": "royaltyRate",
              "type": "uint8"
            },
            {
              "internalType": "address",
              "name": "royaltyBeneficiary",
              "type": "address"
            },
            {
              "internalType": "bytes32",
              "name": "encodedIPFSUri",
              "type": "bytes32"
            },
            {
              "internalType": "uint16",
              "name": "category",
              "type": "uint16"
            },
            {
              "internalType": "bool",
              "name": "allowManualMint",
              "type": "bool"
            },
            {
              "internalType": "bool",
              "name": "shouldUseReservedTokenBeneficiaryAsDefault",
              "type": "bool"
            },
            {
              "internalType": "bool",
              "name": "shouldUseRoyaltyBeneficiaryAsDefault",
              "type": "bool"
            },
            {
              "internalType": "bool",
              "name": "transfersPausable",
              "type": "bool"
            },
            {
              "internalType": "bool",
              "name": "useVotingUnits",
              "type": "bool"
            }
          ],
          "internalType": "struct JB721TierParams[]",
          "name": "_tiersToAdd",
          "type": "tuple[]"
        },
        {
          "internalType": "uint256[]",
          "name": "_tierIdsToRemove",
          "type": "uint256[]"
        }
      ],
      "name": "adjustTiers",
      "outputs": [],
      "stateMutability": "nonpayable",
      "type": "function"
    },
    {
      "inputs": [
        {
          "internalType": "address",
          "name": "to",
          "type": "address"
        },
        {
          "internalType": "uint256",
          "name": "tokenId",
          "type": "uint256"
        }
      ],
      "name": "approve",
      "outputs": [],
      "stateMutability": "nonpayable",
      "type": "function"
    },
    {
      "inputs": [
        {
          "internalType": "address",
          "name": "_owner",
          "type": "address"
        }
      ],
      "name": "balanceOf",
      "outputs": [
        {
          "internalType": "uint256",
          "name": "balance",
          "type": "uint256"
        }
      ],
      "stateMutability": "view",
      "type": "function"
    },
    {
      "inputs": [],
      "name": "codeOrigin",
      "outputs": [
        {
          "internalType": "address",
          "name": "",
          "type": "address"
        }
      ],
      "stateMutability": "view",
      "type": "function"
    },
    {
      "inputs": [],
      "name": "contractURI",
      "outputs": [
        {
          "internalType": "string",
          "name": "",
          "type": "string"
        }
      ],
      "stateMutability": "view",
      "type": "function"
    },
    {
      "inputs": [
        {
          "internalType": "address",
          "name": "",
          "type": "address"
        }
      ],
      "name": "creditsOf",
      "outputs": [
        {
          "internalType": "uint256",
          "name": "",
          "type": "uint256"
        }
      ],
      "stateMutability": "view",
      "type": "function"
    },
    {
      "inputs": [
        {
          "components": [
            {
              "internalType": "address",
              "name": "payer",
              "type": "address"
            },
            {
              "internalType": "uint256",
              "name": "projectId",
              "type": "uint256"
            },
            {
              "internalType": "uint256",
              "name": "currentFundingCycleConfiguration",
              "type": "uint256"
            },
            {
              "components": [
                {
                  "internalType": "address",
                  "name": "token",
                  "type": "address"
                },
                {
                  "internalType": "uint256",
                  "name": "value",
                  "type": "uint256"
                },
                {
                  "internalType": "uint256",
                  "name": "decimals",
                  "type": "uint256"
                },
                {
                  "internalType": "uint256",
                  "name": "currency",
                  "type": "uint256"
                }
              ],
              "internalType": "struct JBTokenAmount",
              "name": "amount",
              "type": "tuple"
            },
            {
              "components": [
                {
                  "internalType": "address",
                  "name": "token",
                  "type": "address"
                },
                {
                  "internalType": "uint256",
                  "name": "value",
                  "type": "uint256"
                },
                {
                  "internalType": "uint256",
                  "name": "decimals",
                  "type": "uint256"
                },
                {
                  "internalType": "uint256",
                  "name": "currency",
                  "type": "uint256"
                }
              ],
              "internalType": "struct JBTokenAmount",
              "name": "forwardedAmount",
              "type": "tuple"
            },
            {
              "internalType": "uint256",
              "name": "projectTokenCount",
              "type": "uint256"
            },
            {
              "internalType": "address",
              "name": "beneficiary",
              "type": "address"
            },
            {
              "internalType": "bool",
              "name": "preferClaimedTokens",
              "type": "bool"
            },
            {
              "internalType": "string",
              "name": "memo",
              "type": "string"
            },
            {
              "internalType": "bytes",
              "name": "metadata",
              "type": "bytes"
            }
          ],
          "internalType": "struct JBDidPayData",
          "name": "_data",
          "type": "tuple"
        }
      ],
      "name": "didPay",
      "outputs": [],
      "stateMutability": "payable",
      "type": "function"
    },
    {
      "inputs": [
        {
          "components": [
            {
              "internalType": "address",
              "name": "holder",
              "type": "address"
            },
            {
              "internalType": "uint256",
              "name": "projectId",
              "type": "uint256"
            },
            {
              "internalType": "uint256",
              "name": "currentFundingCycleConfiguration",
              "type": "uint256"
            },
            {
              "internalType": "uint256",
              "name": "projectTokenCount",
              "type": "uint256"
            },
            {
              "components": [
                {
                  "internalType": "address",
                  "name": "token",
                  "type": "address"
                },
                {
                  "internalType": "uint256",
                  "name": "value",
                  "type": "uint256"
                },
                {
                  "internalType": "uint256",
                  "name": "decimals",
                  "type": "uint256"
                },
                {
                  "internalType": "uint256",
                  "name": "currency",
                  "type": "uint256"
                }
              ],
              "internalType": "struct JBTokenAmount",
              "name": "reclaimedAmount",
              "type": "tuple"
            },
            {
              "components": [
                {
                  "internalType": "address",
                  "name": "token",
                  "type": "address"
                },
                {
                  "internalType": "uint256",
                  "name": "value",
                  "type": "uint256"
                },
                {
                  "internalType": "uint256",
                  "name": "decimals",
                  "type": "uint256"
                },
                {
                  "internalType": "uint256",
                  "name": "currency",
                  "type": "uint256"
                }
              ],
              "internalType": "struct JBTokenAmount",
              "name": "forwardedAmount",
              "type": "tuple"
            },
            {
              "internalType": "address payable",
              "name": "beneficiary",
              "type": "address"
            },
            {
              "internalType": "string",
              "name": "memo",
              "type": "string"
            },
            {
              "internalType": "bytes",
              "name": "metadata",
              "type": "bytes"
            }
          ],
          "internalType": "struct JBDidRedeemData",
          "name": "_data",
          "type": "tuple"
        }
      ],
      "name": "didRedeem",
      "outputs": [],
      "stateMutability": "payable",
      "type": "function"
    },
    {
      "inputs": [],
      "name": "directory",
      "outputs": [
        {
          "internalType": "contract IJBDirectory",
          "name": "",
          "type": "address"
        }
      ],
      "stateMutability": "view",
      "type": "function"
    },
    {
      "inputs": [
        {
          "internalType": "uint256",
          "name": "_tokenId",
          "type": "uint256"
        }
      ],
      "name": "firstOwnerOf",
      "outputs": [
        {
          "internalType": "address",
          "name": "",
          "type": "address"
        }
      ],
      "stateMutability": "view",
      "type": "function"
    },
    {
      "inputs": [],
      "name": "fundingCycleStore",
      "outputs": [
        {
          "internalType": "contract IJBFundingCycleStore",
          "name": "",
          "type": "address"
        }
      ],
      "stateMutability": "view",
      "type": "function"
    },
    {
      "inputs": [
        {
          "internalType": "uint256",
          "name": "tokenId",
          "type": "uint256"
        }
      ],
      "name": "getApproved",
      "outputs": [
        {
          "internalType": "address",
          "name": "",
          "type": "address"
        }
      ],
      "stateMutability": "view",
      "type": "function"
    },
    {
      "inputs": [
        {
          "internalType": "uint256",
          "name": "_tier",
          "type": "uint256"
        },
        {
          "internalType": "uint256",
          "name": "_blockNumber",
          "type": "uint256"
        }
      ],
      "name": "getPastTierTotalVotes",
      "outputs": [
        {
          "internalType": "uint256",
          "name": "",
          "type": "uint256"
        }
      ],
      "stateMutability": "view",
      "type": "function"
    },
    {
      "inputs": [
        {
          "internalType": "address",
          "name": "_account",
          "type": "address"
        },
        {
          "internalType": "uint256",
          "name": "_tier",
          "type": "uint256"
        },
        {
          "internalType": "uint256",
          "name": "_blockNumber",
          "type": "uint256"
        }
      ],
      "name": "getPastTierVotes",
      "outputs": [
        {
          "internalType": "uint256",
          "name": "",
          "type": "uint256"
        }
      ],
      "stateMutability": "view",
      "type": "function"
    },
    {
      "inputs": [
        {
          "internalType": "address",
          "name": "_account",
          "type": "address"
        },
        {
          "internalType": "uint256",
          "name": "_tier",
          "type": "uint256"
        }
      ],
      "name": "getTierDelegate",
      "outputs": [
        {
          "internalType": "address",
          "name": "",
          "type": "address"
        }
      ],
      "stateMutability": "view",
      "type": "function"
    },
    {
      "inputs": [
        {
          "internalType": "uint256",
          "name": "_tier",
          "type": "uint256"
        }
      ],
      "name": "getTierTotalVotes",
      "outputs": [
        {
          "internalType": "uint256",
          "name": "",
          "type": "uint256"
        }
      ],
      "stateMutability": "view",
      "type": "function"
    },
    {
      "inputs": [
        {
          "internalType": "address",
          "name": "_account",
          "type": "address"
        },
        {
          "internalType": "uint256",
          "name": "_tier",
          "type": "uint256"
        }
      ],
      "name": "getTierVotes",
      "outputs": [
        {
          "internalType": "uint256",
          "name": "",
          "type": "uint256"
        }
      ],
      "stateMutability": "view",
      "type": "function"
    },
    {
      "inputs": [
        {
          "internalType": "uint256",
          "name": "_projectId",
          "type": "uint256"
        },
        {
          "internalType": "contract IJBDirectory",
          "name": "_directory",
          "type": "address"
        },
        {
          "internalType": "string",
          "name": "_name",
          "type": "string"
        },
        {
          "internalType": "string",
          "name": "_symbol",
          "type": "string"
        },
        {
          "internalType": "contract IJBFundingCycleStore",
          "name": "_fundingCycleStore",
          "type": "address"
        },
        {
          "internalType": "string",
          "name": "_baseUri",
          "type": "string"
        },
        {
          "internalType": "contract IJBTokenUriResolver",
          "name": "_tokenUriResolver",
          "type": "address"
        },
        {
          "internalType": "string",
          "name": "_contractUri",
          "type": "string"
        },
        {
          "components": [
            {
              "components": [
                {
                  "internalType": "uint88",
                  "name": "price",
                  "type": "uint88"
                },
                {
                  "internalType": "uint40",
                  "name": "initialQuantity",
                  "type": "uint40"
                },
                {
                  "internalType": "uint40",
                  "name": "votingUnits",
                  "type": "uint40"
                },
                {
                  "internalType": "uint16",
                  "name": "reservedRate",
                  "type": "uint16"
                },
                {
                  "internalType": "address",
                  "name": "reservedTokenBeneficiary",
                  "type": "address"
                },
                {
                  "internalType": "uint8",
                  "name": "royaltyRate",
                  "type": "uint8"
                },
                {
                  "internalType": "address",
                  "name": "royaltyBeneficiary",
                  "type": "address"
                },
                {
                  "internalType": "bytes32",
                  "name": "encodedIPFSUri",
                  "type": "bytes32"
                },
                {
                  "internalType": "uint16",
                  "name": "category",
                  "type": "uint16"
                },
                {
                  "internalType": "bool",
                  "name": "allowManualMint",
                  "type": "bool"
                },
                {
                  "internalType": "bool",
                  "name": "shouldUseReservedTokenBeneficiaryAsDefault",
                  "type": "bool"
                },
                {
                  "internalType": "bool",
                  "name": "shouldUseRoyaltyBeneficiaryAsDefault",
                  "type": "bool"
                },
                {
                  "internalType": "bool",
                  "name": "transfersPausable",
                  "type": "bool"
                },
                {
                  "internalType": "bool",
                  "name": "useVotingUnits",
                  "type": "bool"
                }
              ],
              "internalType": "struct JB721TierParams[]",
              "name": "tiers",
              "type": "tuple[]"
            },
            {
              "internalType": "uint256",
              "name": "currency",
              "type": "uint256"
            },
            {
              "internalType": "uint256",
              "name": "decimals",
              "type": "uint256"
            },
            {
              "internalType": "contract IJBPrices",
              "name": "prices",
              "type": "address"
            }
          ],
          "internalType": "struct JB721PricingParams",
          "name": "_pricing",
          "type": "tuple"
        },
        {
          "internalType": "contract IJBTiered721DelegateStore",
          "name": "_store",
          "type": "address"
        },
        {
          "components": [
            {
              "internalType": "bool",
              "name": "lockReservedTokenChanges",
              "type": "bool"
            },
            {
              "internalType": "bool",
              "name": "lockVotingUnitChanges",
              "type": "bool"
            },
            {
              "internalType": "bool",
              "name": "lockManualMintingChanges",
              "type": "bool"
            },
            {
              "internalType": "bool",
              "name": "preventOverspending",
              "type": "bool"
            }
          ],
          "internalType": "struct JBTiered721Flags",
          "name": "_flags",
          "type": "tuple"
        }
      ],
      "name": "initialize",
      "outputs": [],
      "stateMutability": "nonpayable",
      "type": "function"
    },
    {
      "inputs": [
        {
          "internalType": "address",
          "name": "owner",
          "type": "address"
        },
        {
          "internalType": "address",
          "name": "operator",
          "type": "address"
        }
      ],
      "name": "isApprovedForAll",
      "outputs": [
        {
          "internalType": "bool",
          "name": "",
          "type": "bool"
        }
      ],
      "stateMutability": "view",
      "type": "function"
    },
    {
      "inputs": [],
      "name": "jbOwner",
      "outputs": [
        {
          "internalType": "address",
          "name": "owner",
          "type": "address"
        },
        {
          "internalType": "uint88",
          "name": "projectId",
          "type": "uint88"
        },
        {
          "internalType": "uint8",
          "name": "permissionIndex",
          "type": "uint8"
        }
      ],
      "stateMutability": "view",
      "type": "function"
    },
    {
      "inputs": [
        {
          "components": [
            {
              "internalType": "uint16[]",
              "name": "tierIds",
              "type": "uint16[]"
            },
            {
              "internalType": "address",
              "name": "beneficiary",
              "type": "address"
            }
          ],
          "internalType": "struct JBTiered721MintForTiersData[]",
          "name": "_mintForTiersData",
          "type": "tuple[]"
        }
      ],
      "name": "mintFor",
      "outputs": [],
      "stateMutability": "nonpayable",
      "type": "function"
    },
    {
      "inputs": [
        {
          "internalType": "uint16[]",
          "name": "_tierIds",
          "type": "uint16[]"
        },
        {
          "internalType": "address",
          "name": "_beneficiary",
          "type": "address"
        }
      ],
      "name": "mintFor",
      "outputs": [
        {
          "internalType": "uint256[]",
          "name": "tokenIds",
          "type": "uint256[]"
        }
      ],
      "stateMutability": "nonpayable",
      "type": "function"
    },
    {
      "inputs": [
        {
          "components": [
            {
              "internalType": "uint256",
              "name": "tierId",
              "type": "uint256"
            },
            {
              "internalType": "uint256",
              "name": "count",
              "type": "uint256"
            }
          ],
          "internalType": "struct JBTiered721MintReservesForTiersData[]",
          "name": "_mintReservesForTiersData",
          "type": "tuple[]"
        }
      ],
      "name": "mintReservesFor",
      "outputs": [],
      "stateMutability": "nonpayable",
      "type": "function"
    },
    {
      "inputs": [
        {
          "internalType": "uint256",
          "name": "_tierId",
          "type": "uint256"
        },
        {
          "internalType": "uint256",
          "name": "_count",
          "type": "uint256"
        }
      ],
      "name": "mintReservesFor",
      "outputs": [],
      "stateMutability": "nonpayable",
      "type": "function"
    },
    {
      "inputs": [],
      "name": "name",
      "outputs": [
        {
          "internalType": "string",
          "name": "",
          "type": "string"
        }
      ],
      "stateMutability": "view",
      "type": "function"
    },
    {
      "inputs": [],
      "name": "operatorStore",
      "outputs": [
        {
          "internalType": "contract IJBOperatorStore",
          "name": "",
          "type": "address"
        }
      ],
      "stateMutability": "view",
      "type": "function"
    },
    {
      "inputs": [],
      "name": "owner",
      "outputs": [
        {
          "internalType": "address",
          "name": "",
          "type": "address"
        }
      ],
      "stateMutability": "view",
      "type": "function"
    },
    {
      "inputs": [
        {
          "internalType": "uint256",
          "name": "tokenId",
          "type": "uint256"
        }
      ],
      "name": "ownerOf",
      "outputs": [
        {
          "internalType": "address",
          "name": "",
          "type": "address"
        }
      ],
      "stateMutability": "view",
      "type": "function"
    },
    {
      "inputs": [
        {
          "components": [
            {
              "internalType": "contract IJBPaymentTerminal",
              "name": "terminal",
              "type": "address"
            },
            {
              "internalType": "address",
              "name": "payer",
              "type": "address"
            },
            {
              "components": [
                {
                  "internalType": "address",
                  "name": "token",
                  "type": "address"
                },
                {
                  "internalType": "uint256",
                  "name": "value",
                  "type": "uint256"
                },
                {
                  "internalType": "uint256",
                  "name": "decimals",
                  "type": "uint256"
                },
                {
                  "internalType": "uint256",
                  "name": "currency",
                  "type": "uint256"
                }
              ],
              "internalType": "struct JBTokenAmount",
              "name": "amount",
              "type": "tuple"
            },
            {
              "internalType": "uint256",
              "name": "projectId",
              "type": "uint256"
            },
            {
              "internalType": "uint256",
              "name": "currentFundingCycleConfiguration",
              "type": "uint256"
            },
            {
              "internalType": "address",
              "name": "beneficiary",
              "type": "address"
            },
            {
              "internalType": "uint256",
              "name": "weight",
              "type": "uint256"
            },
            {
              "internalType": "uint256",
              "name": "reservedRate",
              "type": "uint256"
            },
            {
              "internalType": "string",
              "name": "memo",
              "type": "string"
            },
            {
              "internalType": "bytes",
              "name": "metadata",
              "type": "bytes"
            }
          ],
          "internalType": "struct JBPayParamsData",
          "name": "_data",
          "type": "tuple"
        }
      ],
      "name": "payParams",
      "outputs": [
        {
          "internalType": "uint256",
          "name": "weight",
          "type": "uint256"
        },
        {
          "internalType": "string",
          "name": "memo",
          "type": "string"
        },
        {
          "components": [
            {
              "internalType": "contract IJBPayDelegate",
              "name": "delegate",
              "type": "address"
            },
            {
              "internalType": "uint256",
              "name": "amount",
              "type": "uint256"
            }
          ],
          "internalType": "struct JBPayDelegateAllocation[]",
          "name": "delegateAllocations",
          "type": "tuple[]"
        }
      ],
      "stateMutability": "view",
      "type": "function"
    },
    {
      "inputs": [],
      "name": "prices",
      "outputs": [
        {
          "internalType": "contract IJBPrices",
          "name": "",
          "type": "address"
        }
      ],
      "stateMutability": "view",
      "type": "function"
    },
    {
      "inputs": [],
      "name": "pricingCurrency",
      "outputs": [
        {
          "internalType": "uint256",
          "name": "",
          "type": "uint256"
        }
      ],
      "stateMutability": "view",
      "type": "function"
    },
    {
      "inputs": [],
      "name": "pricingDecimals",
      "outputs": [
        {
          "internalType": "uint256",
          "name": "",
          "type": "uint256"
        }
      ],
      "stateMutability": "view",
      "type": "function"
    },
    {
      "inputs": [],
      "name": "projectId",
      "outputs": [
        {
          "internalType": "uint256",
          "name": "",
          "type": "uint256"
        }
      ],
      "stateMutability": "view",
      "type": "function"
    },
    {
      "inputs": [],
      "name": "projects",
      "outputs": [
        {
          "internalType": "contract IJBProjects",
          "name": "",
          "type": "address"
        }
      ],
      "stateMutability": "view",
      "type": "function"
    },
    {
      "inputs": [
        {
          "components": [
            {
              "internalType": "contract IJBPaymentTerminal",
              "name": "terminal",
              "type": "address"
            },
            {
              "internalType": "address",
              "name": "holder",
              "type": "address"
            },
            {
              "internalType": "uint256",
              "name": "projectId",
              "type": "uint256"
            },
            {
              "internalType": "uint256",
              "name": "currentFundingCycleConfiguration",
              "type": "uint256"
            },
            {
              "internalType": "uint256",
              "name": "tokenCount",
              "type": "uint256"
            },
            {
              "internalType": "uint256",
              "name": "totalSupply",
              "type": "uint256"
            },
            {
              "internalType": "uint256",
              "name": "overflow",
              "type": "uint256"
            },
            {
              "components": [
                {
                  "internalType": "address",
                  "name": "token",
                  "type": "address"
                },
                {
                  "internalType": "uint256",
                  "name": "value",
                  "type": "uint256"
                },
                {
                  "internalType": "uint256",
                  "name": "decimals",
                  "type": "uint256"
                },
                {
                  "internalType": "uint256",
                  "name": "currency",
                  "type": "uint256"
                }
              ],
              "internalType": "struct JBTokenAmount",
              "name": "reclaimAmount",
              "type": "tuple"
            },
            {
              "internalType": "bool",
              "name": "useTotalOverflow",
              "type": "bool"
            },
            {
              "internalType": "uint256",
              "name": "redemptionRate",
              "type": "uint256"
            },
            {
              "internalType": "string",
              "name": "memo",
              "type": "string"
            },
            {
              "internalType": "bytes",
              "name": "metadata",
              "type": "bytes"
            }
          ],
          "internalType": "struct JBRedeemParamsData",
          "name": "_data",
          "type": "tuple"
        }
      ],
      "name": "redeemParams",
      "outputs": [
        {
          "internalType": "uint256",
          "name": "reclaimAmount",
          "type": "uint256"
        },
        {
          "internalType": "string",
          "name": "memo",
          "type": "string"
        },
        {
          "components": [
            {
              "internalType": "contract IJBRedemptionDelegate",
              "name": "delegate",
              "type": "address"
            },
            {
              "internalType": "uint256",
              "name": "amount",
              "type": "uint256"
            }
          ],
          "internalType": "struct JBRedemptionDelegateAllocation[]",
          "name": "delegateAllocations",
          "type": "tuple[]"
        }
      ],
      "stateMutability": "view",
      "type": "function"
    },
    {
      "inputs": [
        {
          "internalType": "uint256[]",
          "name": "_tokenIds",
          "type": "uint256[]"
        },
        {
          "components": [
            {
              "internalType": "contract IJBPaymentTerminal",
              "name": "terminal",
              "type": "address"
            },
            {
              "internalType": "address",
              "name": "holder",
              "type": "address"
            },
            {
              "internalType": "uint256",
              "name": "projectId",
              "type": "uint256"
            },
            {
              "internalType": "uint256",
              "name": "currentFundingCycleConfiguration",
              "type": "uint256"
            },
            {
              "internalType": "uint256",
              "name": "tokenCount",
              "type": "uint256"
            },
            {
              "internalType": "uint256",
              "name": "totalSupply",
              "type": "uint256"
            },
            {
              "internalType": "uint256",
              "name": "overflow",
              "type": "uint256"
            },
            {
              "components": [
                {
                  "internalType": "address",
                  "name": "token",
                  "type": "address"
                },
                {
                  "internalType": "uint256",
                  "name": "value",
                  "type": "uint256"
                },
                {
                  "internalType": "uint256",
                  "name": "decimals",
                  "type": "uint256"
                },
                {
                  "internalType": "uint256",
                  "name": "currency",
                  "type": "uint256"
                }
              ],
              "internalType": "struct JBTokenAmount",
              "name": "reclaimAmount",
              "type": "tuple"
            },
            {
              "internalType": "bool",
              "name": "useTotalOverflow",
              "type": "bool"
            },
            {
              "internalType": "uint256",
              "name": "redemptionRate",
              "type": "uint256"
            },
            {
              "internalType": "string",
              "name": "memo",
              "type": "string"
            },
            {
              "internalType": "bytes",
              "name": "metadata",
              "type": "bytes"
            }
          ],
          "internalType": "struct JBRedeemParamsData",
          "name": "",
          "type": "tuple"
        }
      ],
      "name": "redemptionWeightOf",
      "outputs": [
        {
          "internalType": "uint256",
          "name": "",
          "type": "uint256"
        }
      ],
      "stateMutability": "view",
      "type": "function"
    },
    {
      "inputs": [],
      "name": "renounceOwnership",
      "outputs": [],
      "stateMutability": "nonpayable",
      "type": "function"
    },
    {
      "inputs": [
        {
          "internalType": "uint256",
          "name": "_tokenId",
          "type": "uint256"
        },
        {
          "internalType": "uint256",
          "name": "_salePrice",
          "type": "uint256"
        }
      ],
      "name": "royaltyInfo",
      "outputs": [
        {
          "internalType": "address",
          "name": "",
          "type": "address"
        },
        {
          "internalType": "uint256",
          "name": "",
          "type": "uint256"
        }
      ],
      "stateMutability": "view",
      "type": "function"
    },
    {
      "inputs": [
        {
          "internalType": "address",
          "name": "from",
          "type": "address"
        },
        {
          "internalType": "address",
          "name": "to",
          "type": "address"
        },
        {
          "internalType": "uint256",
          "name": "tokenId",
          "type": "uint256"
        }
      ],
      "name": "safeTransferFrom",
      "outputs": [],
      "stateMutability": "nonpayable",
      "type": "function"
    },
    {
      "inputs": [
        {
          "internalType": "address",
          "name": "from",
          "type": "address"
        },
        {
          "internalType": "address",
          "name": "to",
          "type": "address"
        },
        {
          "internalType": "uint256",
          "name": "tokenId",
          "type": "uint256"
        },
        {
          "internalType": "bytes",
          "name": "data",
          "type": "bytes"
        }
      ],
      "name": "safeTransferFrom",
      "outputs": [],
      "stateMutability": "nonpayable",
      "type": "function"
    },
    {
      "inputs": [
        {
          "internalType": "address",
          "name": "operator",
          "type": "address"
        },
        {
          "internalType": "bool",
          "name": "approved",
          "type": "bool"
        }
      ],
      "name": "setApprovalForAll",
      "outputs": [],
      "stateMutability": "nonpayable",
      "type": "function"
    },
    {
      "inputs": [
        {
          "internalType": "string",
          "name": "_baseUri",
          "type": "string"
        }
      ],
      "name": "setBaseUri",
      "outputs": [],
      "stateMutability": "nonpayable",
      "type": "function"
    },
    {
      "inputs": [
        {
          "internalType": "string",
          "name": "_contractUri",
          "type": "string"
        }
      ],
      "name": "setContractUri",
      "outputs": [],
      "stateMutability": "nonpayable",
      "type": "function"
    },
    {
      "inputs": [
        {
          "internalType": "address",
          "name": "_beneficiary",
          "type": "address"
        }
      ],
      "name": "setDefaultReservedTokenBeneficiary",
      "outputs": [],
      "stateMutability": "nonpayable",
      "type": "function"
    },
    {
      "inputs": [
        {
          "internalType": "uint256",
          "name": "_tierId",
          "type": "uint256"
        },
        {
          "internalType": "bytes32",
          "name": "_encodedIPFSUri",
          "type": "bytes32"
        }
      ],
      "name": "setEncodedIPFSUriOf",
      "outputs": [],
      "stateMutability": "nonpayable",
      "type": "function"
    },
    {
      "inputs": [
        {
          "internalType": "uint8",
          "name": "_permissionIndex",
          "type": "uint8"
        }
      ],
      "name": "setPermissionIndex",
      "outputs": [],
      "stateMutability": "nonpayable",
      "type": "function"
    },
    {
      "inputs": [
        {
          "internalType": "address",
          "name": "_delegatee",
          "type": "address"
        },
        {
          "internalType": "uint256",
          "name": "_tierId",
          "type": "uint256"
        }
      ],
      "name": "setTierDelegate",
      "outputs": [],
      "stateMutability": "nonpayable",
      "type": "function"
    },
    {
      "inputs": [
        {
          "components": [
            {
              "internalType": "address",
              "name": "delegatee",
              "type": "address"
            },
            {
              "internalType": "uint256",
              "name": "tierId",
              "type": "uint256"
            }
          ],
          "internalType": "struct JBTiered721SetTierDelegatesData[]",
          "name": "_setTierDelegatesData",
          "type": "tuple[]"
        }
      ],
      "name": "setTierDelegates",
      "outputs": [],
      "stateMutability": "nonpayable",
      "type": "function"
    },
    {
      "inputs": [
        {
          "internalType": "contract IJBTokenUriResolver",
          "name": "_tokenUriResolver",
          "type": "address"
        }
      ],
      "name": "setTokenUriResolver",
      "outputs": [],
      "stateMutability": "nonpayable",
      "type": "function"
    },
    {
      "inputs": [],
      "name": "store",
      "outputs": [
        {
          "internalType": "contract IJBTiered721DelegateStore",
          "name": "",
          "type": "address"
        }
      ],
      "stateMutability": "view",
      "type": "function"
    },
    {
      "inputs": [
        {
          "internalType": "bytes4",
          "name": "_interfaceId",
          "type": "bytes4"
        }
      ],
      "name": "supportsInterface",
      "outputs": [
        {
          "internalType": "bool",
          "name": "",
          "type": "bool"
        }
      ],
      "stateMutability": "view",
      "type": "function"
    },
    {
      "inputs": [],
      "name": "symbol",
      "outputs": [
        {
          "internalType": "string",
          "name": "",
          "type": "string"
        }
      ],
      "stateMutability": "view",
      "type": "function"
    },
    {
      "inputs": [
        {
          "internalType": "uint256",
          "name": "_tokenId",
          "type": "uint256"
        }
      ],
      "name": "tokenURI",
      "outputs": [
        {
          "internalType": "string",
          "name": "",
          "type": "string"
        }
      ],
      "stateMutability": "view",
      "type": "function"
    },
    {
      "inputs": [
        {
          "components": [
            {
              "internalType": "contract IJBPaymentTerminal",
              "name": "terminal",
              "type": "address"
            },
            {
              "internalType": "address",
              "name": "holder",
              "type": "address"
            },
            {
              "internalType": "uint256",
              "name": "projectId",
              "type": "uint256"
            },
            {
              "internalType": "uint256",
              "name": "currentFundingCycleConfiguration",
              "type": "uint256"
            },
            {
              "internalType": "uint256",
              "name": "tokenCount",
              "type": "uint256"
            },
            {
              "internalType": "uint256",
              "name": "totalSupply",
              "type": "uint256"
            },
            {
              "internalType": "uint256",
              "name": "overflow",
              "type": "uint256"
            },
            {
              "components": [
                {
                  "internalType": "address",
                  "name": "token",
                  "type": "address"
                },
                {
                  "internalType": "uint256",
                  "name": "value",
                  "type": "uint256"
                },
                {
                  "internalType": "uint256",
                  "name": "decimals",
                  "type": "uint256"
                },
                {
                  "internalType": "uint256",
                  "name": "currency",
                  "type": "uint256"
                }
              ],
              "internalType": "struct JBTokenAmount",
              "name": "reclaimAmount",
              "type": "tuple"
            },
            {
              "internalType": "bool",
              "name": "useTotalOverflow",
              "type": "bool"
            },
            {
              "internalType": "uint256",
              "name": "redemptionRate",
              "type": "uint256"
            },
            {
              "internalType": "string",
              "name": "memo",
              "type": "string"
            },
            {
              "internalType": "bytes",
              "name": "metadata",
              "type": "bytes"
            }
          ],
          "internalType": "struct JBRedeemParamsData",
          "name": "",
          "type": "tuple"
        }
      ],
      "name": "totalRedemptionWeight",
      "outputs": [
        {
          "internalType": "uint256",
          "name": "",
          "type": "uint256"
        }
      ],
      "stateMutability": "view",
      "type": "function"
    },
    {
      "inputs": [
        {
          "internalType": "address",
          "name": "from",
          "type": "address"
        },
        {
          "internalType": "address",
          "name": "to",
          "type": "address"
        },
        {
          "internalType": "uint256",
          "name": "tokenId",
          "type": "uint256"
        }
      ],
      "name": "transferFrom",
      "outputs": [],
      "stateMutability": "nonpayable",
      "type": "function"
    },
    {
      "inputs": [
        {
          "internalType": "address",
          "name": "_newOwner",
          "type": "address"
        }
      ],
      "name": "transferOwnership",
      "outputs": [],
      "stateMutability": "nonpayable",
      "type": "function"
    },
    {
      "inputs": [
        {
          "internalType": "uint256",
          "name": "_projectId",
          "type": "uint256"
        }
      ],
      "name": "transferOwnershipToProject",
      "outputs": [],
      "stateMutability": "nonpayable",
      "type": "function"
    }
  ],
  "bytecode": {
    "object": "0x60c0604090808252346200020557818162006d8e80380380916200002482856200023c565b833981010312620002055780516001600160a01b039290838116810362000205576020809301518481168103620002055760805260a052828151916200006a836200020a565b600080938154848116825260018060581b038160a01c1690818884015260f81c84830152801560001462000165575060008051602062006d6e8339815191529383915116955b82825191620000bf836200020a565b338352820152015233835551933393169180a3600880546001600160a01b03191630179055616b0d9081620002618239608051818181611ea001528181615f990152818161603b015281816161450152818161624f015281816163590152818161642701526164ca015260a0518181816109d5015281816112740152818161152001528181611bb201528181611c4201528181615c2601528181615d5c0152615ebd0152f35b93905085915060a051169260248351809581936331a9108f60e11b835260048301525afa918215620001fb5783908193620001b5575b508160008051602062006d6e8339815191529395620000b0565b80929350858092503d8311620001f3575b620001d281836200023c565b81010312620001ef57518481168103620001ef579082816200019b565b8280fd5b503d620001c6565b81513d85823e3d90fd5b600080fd5b606081019081106001600160401b038211176200022657604052565b634e487b7160e01b600052604160045260246000fd5b601f909101601f19168101906001600160401b03821190821017620002265760405256fe60806040526004361015610013575b600080fd5b60003560e01c806301ffc9a71461048757806306fdde031461047e578063081812fc14610475578063095ea7b31461046c57806314ea9b06146104635780631d153ca41461045a57806323b872dd146104515780632407497e14610448578063245a45b51461043f5780632a55205a146104365780632a596e531461042d5780632b13c58f1461042457806336c1a93b1461041b5780633fafa1271461041257806342842e0e146104095780634ecba62514610400578063525350ba146103f757806354c6d1f5146103ee578063557e7155146103e557806361aec7a9146103dc5780636352211e146103d357806364640c1e146103ca5780636ac6d941146103c157806370a08231146103b8578063715018a6146103af5780637ba62bf9146103a657806382732b6d1461039d5780638b79543c146103945780638da5cb5b1461038b5780639494bf721461038257806394c5c5ca146103795780639521e3811461037057806395d89b4114610367578063975057e71461035e578063a0bcfc7f14610355578063a220d6961461034c578063a22cb46514610343578063a51cfd181461033a578063aa4fb15b14610331578063ab951e3914610328578063ad007d631461031f578063b88d4fde14610316578063ba23c36e1461030d578063c41c2f2414610304578063c74b13d9146102fb578063c87b56dd146102f2578063ca323efe146102e9578063ccb4807b146102e0578063d31cc52c146102d7578063d3419bf3146102ce578063d40e7146146102c5578063d46cf171146102bc578063da9ee8b7146102b3578063df487e26146102aa578063e8a3d485146102a1578063e985e9c5146102985763f2fde38b1461029057600080fd5b61000e612519565b5061000e6124b0565b5061000e612419565b5061000e6123c6565b5061000e6122d0565b5061000e612214565b5061000e612159565b5061000e61212f565b5061000e612100565b5061000e6120dd565b5061000e612089565b5061000e612055565b5061000e611fa3565b5061000e611f79565b5061000e611f37565b5061000e611ecf565b5061000e611e89565b5061000e611e5e565b5061000e611e3e565b5061000e611db3565b5061000e611d03565b5061000e611ac8565b5061000e611aa5565b5061000e611a32565b5061000e61198a565b5061000e6118c1565b5061000e611585565b5061000e61156b565b5061000e61154f565b5061000e611509565b5061000e6114bc565b5061000e61145d565b5061000e6111d7565b5061000e611126565b5061000e6110c9565b5061000e611076565b5061000e611057565b5061000e610fdd565b5061000e610fa5565b5061000e610f86565b5061000e610f5b565b5061000e610f3c565b5061000e610ef5565b5061000e610ed6565b5061000e610e2a565b5061000e610c30565b5061000e610b3f565b5061000e610a85565b5061000e610a47565b5061000e610918565b5061000e6108e3565b5061000e61088d565b5061000e61081a565b5061000e610748565b5061000e6106f9565b5061000e610619565b5061000e6104a2565b6001600160e01b031981160361000e57565b503461000e57602036600319011261000e576104f16004356104c381610490565b63ffffffff60e01b166304c494e160e31b81149081156104f5575b5060405190151581529081906020820190565b0390f35b63fbb38e0360e01b8114915081156105a1575b8115610590575b811561057f575b811561056e575b811561052b575b50386104de565b6380ac58cd60e01b81149150811561055d575b811561054c575b5038610524565b6301ffc9a760e01b14905038610545565b635b5e139f60e01b8114915061053e565b63152a902d60e11b8114915061051d565b632b13c58f60e01b81149150610516565b63da9ee8b760e01b8114915061050f565b6371700c6960e01b81149150610508565b600091031261000e57565b60005b8381106105d05750506000910152565b81810151838201526020016105c0565b906020916105f9815180928185528580860191016105bd565b601f01601f1916010190565b9060206106169281815201906105e0565b90565b503461000e576000806003193601126106f6576040519080600180549161063f83613d18565b808652928281169081156106cc5750600114610672575b6104f1856106668187038261135e565b60405191829182610605565b92508083527fb10e2d527612073b26eecdfd717e6a320cf44b4afac2b0732d9fcbe2b7fa0cf65b8284106106b4575050508101602001610666826104f1610656565b80546020858701810191909152909301928101610699565b8695506104f19693506020925061066694915060ff191682840152151560051b8201019293610656565b80fd5b503461000e57602036600319011261000e576020610718600435613d52565b6040516001600160a01b039091168152f35b6001600160a01b0381160361000e57565b35906107468261072a565b565b503461000e57604036600319011261000e576004356107668161072a565b6024356001600160a01b038061077b83613ce5565b1680918416146107d8578033141590816107b2575b506107a05761079e91614807565b005b60405163e5fa0e3560e01b8152600490fd5b600090815260056020908152604080832033845290915290205460ff1615905038610790565b60405163133f8be960e01b8152600490fd5b9181601f8401121561000e578235916001600160401b03831161000e576020808501948460051b01011161000e57565b503461000e57604036600319011261000e576004356001600160401b0380821161000e573660238301121561000e5781600401359181831161000e573660246101c085028301011161000e5760243591821161000e5761079e9261088460249336906004016107ea565b93909201613182565b503461000e57600036600319011261000e576008546040516001600160a01b039091168152602090f35b606090600319011261000e576004356108cf8161072a565b906024356108dc8161072a565b9060443590565b503461000e576108f2366108b7565b906108fd8233613dc9565b156107a05761079e926144e4565b60c435906107468261072a565b503461000e57602036600319011261000e5761079e6004356109398161072a565b6109a0610944613149565b61099a61098e602083019261096084516001600160581b031690565b600091906001600160581b0381166109a55750516001600160a01b03169050925b516001600160581b031690565b6001600160581b031690565b90615f1f565b61374d565b6040516331a9108f60e11b81526001600160581b0391909116600482015290506020816024816001600160a01b037f0000000000000000000000000000000000000000000000000000000000000000165afa918215610a3a575b91610a0c575b5092610981565b610a2d915060203d8111610a33575b610a25818361135e565b8101906128cf565b38610a05565b503d610a1b565b610a4261273a565b6109ff565b503461000e57602036600319011261000e57600435610a658161072a565b60018060a01b0316600052600e6020526020604060002054604051908152f35b503461000e5760408060031936011261000e5760648160018060a01b03600954168151928380926329c5eaf560e11b8252306004830152600435602483015260243560448301525afa918215610b32575b6000918293610afd575b50516001600160a01b039190911681526020810191909152604090f35b81610b239294506104f193503d8511610b2b575b610b1b818361135e565b81019061297c565b929091610ae0565b503d610b11565b610b3a61273a565b610ad6565b503461000e5760208060031936011261000e576001600160401b039060043582811161000e573660238201121561000e5780600401359183831161000e576024916006368486831b8401011161000e5760005b858110610b9b57005b80821b83019060409182602319823603011261000e5785610be491846001955190808201908d83831090831117610bea575b5260448a83013592838352013592839101526138f3565b01610b92565b610bf26112d6565b610bcd565b90816101e091031261000e5790565b602060031982011261000e57600435906001600160401b03821161000e5761061691600401610bf7565b50610c3a36610c06565b3415801590610d8a575b8015610d7a575b610d68576101c081016024610c60828461499d565b9050108015610d30575b610d1e57610c7b610c83918361499d565b810190614a59565b915050805160005b818110610c9b5761079e8361554d565b610ca581846125c1565b51610cca610cbd826000526003602052604060002090565b546001600160a01b031690565b610ce2610cd68761313f565b6001600160a01b031690565b6001600160a01b0390911603610d045790610cfe6001926155b6565b01610c8b565b604051635caf197560e01b81526004810191909152602490fd5b604051632a84050f60e01b8152600490fd5b50610d44610d3e828461499d565b906149cf565b63fbb38e0360e01b916001600160e01b031991610d60916149f1565b161415610c6a565b604051633efca5c360e11b8152600490fd5b5060065460208201351415610c4b565b50600754610dd490602090610da7906001600160a01b0316610cd6565b600654604051636e49181f60e01b8152600481019190915233602482015292839190829081906044820190565b03915afa908115610e1d575b600091610def575b5015610c44565b610e10915060203d8111610e16575b610e08818361135e565b810190614edd565b38610de8565b503d610dfe565b610e2561273a565b610de0565b503461000e5760208060031936011261000e576001600160401b039060043582811161000e57610e5e9036906004016107ea565b9190610e68615e23565b60005b838110610e7457005b60059080821b830135603e198436030181121561000e5783018035601e198236030181121561000e5781019283359388851161000e5786859101911b3603811361000e57600193610ec987610ecf940161313f565b91613b0f565b5001610e6b565b503461000e57600036600319011261000e576020600654604051908152f35b503461000e5761079e610f07366108b7565b9060405192602084018481106001600160401b03821117610f2f575b60405260008452613d8a565b610f376112d6565b610f23565b503461000e57600036600319011261000e576020600d54604051908152f35b503461000e57604036600319011261000e57610f78610944613149565b61079e6024356004356137db565b503461000e57602036600319011261000e5760206107186004356128e4565b503461000e57600036600319011261000e57600a546040516001600160a01b039091168152602090f35b359060ff8216820361000e57565b503461000e57602036600319011261000e5760043560ff81169081810361000e577f197cbe84f592e417694036927858418efc958896363c034f9aaa25af88953beb9160209161102b615e23565b600080546001600160f81b031660f89290921b6001600160f81b031916919091179055604051908152a1005b503461000e57602036600319011261000e576020610718600435613ce5565b503461000e57600036600319011261000e576020600c54604051908152f35b90815180825260208080930193019160005b8281106110b5575050505090565b8351855293810193928101926001016110a7565b503461000e57604036600319011261000e576004356001600160401b03811161000e576111126111006104f19236906004016107ea565b6024359161110d8361072a565b613b0f565b604051918291602083526020830190611095565b503461000e57602036600319011261000e576104f16004356111478161072a565b600954604051633de222bb60e21b81523060048201526001600160a01b0392831660248201529160209183916044918391165afa9081156111ca575b60009161119c575b506040519081529081906020820190565b6111bd915060203d81116111c3575b6111b5818361135e565b81019061272b565b3861118b565b503d6111ab565b6111d261273a565b611183565b503461000e576000806003193601126106f6576111f2615e23565b6112426111fd613149565b60208101516001600160581b0316908161124557516001600160a01b031690505b61123d6112296113cc565b848152846020820152846040820152615c97565b615dbd565b80f35b506040516331a9108f60e11b81526001600160581b039190911660048201526020816024816001600160a01b037f0000000000000000000000000000000000000000000000000000000000000000165afa9081156112c9575b83916112ab575b5061121e565b6112c3915060203d8111610a3357610a25818361135e565b386112a5565b6112d161273a565b61129e565b50634e487b7160e01b600052604160045260246000fd5b608081019081106001600160401b0382111761130857604052565b6113106112d6565b604052565b604081019081106001600160401b0382111761130857604052565b6001600160401b03811161130857604052565b606081019081106001600160401b0382111761130857604052565b90601f801991011681019081106001600160401b0382111761130857604052565b604051906101c082018281106001600160401b0382111761130857604052565b6040519061074682611315565b6040519061012082018281106001600160401b0382111761130857604052565b6040519061074682611343565b6020906001600160401b0381116113f2575b60051b0190565b6113fa6112d6565b6113eb565b81601f8201121561000e57803591611416836113d9565b92611424604051948561135e565b808452602092838086019260051b82010192831161000e578301905b82821061144e575050505090565b81358152908301908301611440565b503461000e57604036600319011261000e576001600160401b0360043581811161000e5761148f9036906004016113ff565b9060243590811161000e576020916114ae6114b4923690600401610bf7565b50612ba4565b604051908152f35b503461000e57604036600319011261000e5760206004356114dc8161072a565b60018060a01b03809116600052600f82526040600020602435600052825260406000205416604051908152f35b503461000e57600036600319011261000e576040517f00000000000000000000000000000000000000000000000000000000000000006001600160a01b03168152602090f35b503461000e57600036600319011261000e576020610718615beb565b503461000e5761157a36610c06565b5060206114b4612c1a565b503461000e57602036600319011261000e576004356000526011602052602060018060e01b036115b86040600020616716565b16604051908152f35b602435906107468261072a565b6020906001600160401b0381116115eb575b601f01601f19160190565b6115f36112d6565b6115e0565b929192611604826115ce565b91611612604051938461135e565b82948184528183011161000e578281602093846000960137010152565b9080601f8301121561000e57816020610616933591016115f8565b608435906107468261072a565b35906001600160581b038216820361000e57565b359064ffffffffff8216820361000e57565b61ffff81160361000e57565b35906107468261167d565b8015150361000e57565b359061074682611694565b919091608090818185031261000e5760408051926116c6846112ed565b839583356001600160401b03811161000e57840181601f8201121561000e578035906116f1826113d9565b926116fe8651948561135e565b82845260209485850191866101c08096028501019381851161000e578701925b848410611751575050509287525050508083013590840152808201359083015260609061174c90820161073b565b910152565b858483031261000e5787869161176561137f565b61176e87611657565b815261177b83880161166b565b8382015261178a8c880161166b565b8c820152606061179b818901611689565b908201526117aa86880161073b565b8682015260a06117bb818901610fcf565b9082015260c06117cc81890161073b565b9082015260e080880135908201526101006117e8818901611689565b908201526101206117fa81890161169e565b9082015261014061180c81890161169e565b9082015261016061181e81890161169e565b9082015261018061183081890161169e565b908201526101a061184281890161169e565b9082015281520193019261171e565b61012435906107468261072a565b60809061014319011261000e5760405190611879826112ed565b816101443561188781611694565b81526101643561189681611694565b6020820152610184356118a881611694565b604082015260606101a435916118bd83611694565b0152565b503461000e576101c036600319011261000e576118dc6115c1565b6044356001600160401b039182821161000e576118fe6004923690840161162f565b60643584811161000e57611915903690850161162f565b61191d61164a565b60a43586811161000e57611934903690870161162f565b61193c61090b565b9160e43588811161000e57611954903690890161162f565b936101043598891161000e5761197061079e9936908a016116a9565b95611979611851565b976119833661185f565b9935612df1565b503461000e576000806003193601126106f65760405190806002546119ae81613d18565b808552916001918083169081156106cc57506001146119d7576104f1856106668187038261135e565b9250600283527f405787fa12a823e0f2b7631cc41b3ba8828b3321ca811111fa75cd3aa3bb5ace5b828410611a1a575050508101602001610666826104f1610656565b805460208587018101919091529093019281016119ff565b503461000e57600036600319011261000e576009546040516001600160a01b039091168152602090f35b90602060031983011261000e576004356001600160401b039283821161000e578060238301121561000e57816004013593841161000e576024848301011161000e576024019190565b503461000e5761079e611ab736611a5c565b90611ac3610944613149565b61364b565b503461000e5760208060031936011261000e5760043590611ae7615e23565b81158015611cf3575b611cd3576001600160581b0380921691821590811580611ccb575b611ca3579261079e93611b1c613149565b84611b30818301516001600160581b031690565b6000938116611c14575050516001600160a01b03169050925b611b72611b546113cc565b600081526001600160581b0384168382015260006040820152615c97565b60009215611b8557505050600090615def565b6040516331a9108f60e11b81526001600160581b0392909216600483015280826024816001600160a01b037f0000000000000000000000000000000000000000000000000000000000000000165afa928315611c07575b92611bea575b505090615def565b611c009250803d10610a3357610a25818361135e565b3880611be2565b611c0f61273a565b611bdc565b6040516331a9108f60e11b81526001600160581b039190911660048201529150816024816001600160a01b037f0000000000000000000000000000000000000000000000000000000000000000165afa918215611c96575b91611c79575b5092611b49565b611c909150843d8611610a3357610a25818361135e565b38611c72565b611c9e61273a565b611c6c565b6040516324abfd1160e11b8152600060048201526001600160581b0385166024820152604490fd5b506000611b0b565b6040516324abfd1160e11b81526000600482015260248101839052604490fd5b506001600160581b038211611af0565b503461000e57604036600319011261000e57600435611d218161072a565b602435611d2d81611694565b6001600160a01b03821691338314611da1573360009081526005602090815260408083206001600160a01b039094168352929052209015159060ff1981541660ff83161790556040519081527f17307eab39ab6107e8899845ad3d59bd9653f200f220920489ca2b5937696c3160203392a3005b6040516306f8139d60e11b8152600490fd5b503461000e57611dca611dc536610c06565b614a93565b604092919280519384938452611dec60209160608387015260608601906105e0565b90848203838601528080855193848152019401926000905b838210611e115786860387f35b845180516001600160a01b0316875283015186840152879650948501949382019360019190910190611e04565b503461000e57604036600319011261000e5761079e6024356004356138f3565b503461000e57604036600319011261000e5761079e600435611e7f8161072a565b602435903361264c565b503461000e57600036600319011261000e576040517f00000000000000000000000000000000000000000000000000000000000000006001600160a01b03168152602090f35b503461000e57608036600319011261000e57600435611eed8161072a565b602435611ef98161072a565b606435916001600160401b03831161000e573660238401121561000e57611f2d61079e9336906024816004013591016115f8565b9160443591613d8a565b503461000e57600036600319011261000e5760606000546040519060018060a01b03811682526001600160581b038160a01c16602083015260f81c6040820152f35b503461000e57600036600319011261000e576007546040516001600160a01b039091168152602090f35b503461000e5760208060031936011261000e57600435906001600160401b03821161000e573660238301121561000e57816004013591611fe2836113d9565b91604093611ff28551948561135e565b80845260248285019160061b8401019236841161000e57602401905b83821061201e5761079e856125e3565b858236031261000e57828691825161203581611315565b84356120408161072a565b8152828501358382015281520191019061200e565b503461000e57602036600319011261000e576104f1612075600435612a02565b6040519182916020835260208301906105e0565b503461000e57604036600319011261000e576004356120a78161072a565b6001600160a01b03166000908152601060209081526040808320602435845282529091206001600160e01b03906115b890616716565b503461000e5761079e6120ef36611a5c565b906120fb610944613149565b6136e5565b503461000e57604036600319011261000e57600435600052601160205260206114b46024356040600020616531565b503461000e57600036600319011261000e57600b546040516001600160a01b039091168152602090f35b503461000e57606036600319011261000e576004356121778161072a565b60018060a01b03166000526010602052604060002060243560005260205260206114b46044356040600020616531565b919082526121c160209160608385015260608401906105e0565b90604092838184039101528080855193848152019401926000905b8382106121eb57505050505090565b845180516001600160a01b031687528301518684015294850194938201936001909101906121dc565b503461000e576020600319818136011261000e57600435906001600160401b03821161000e576101a090823603011261000e5761226261225b61016483018360040161499d565b36916115f8565b6040519061226f82611315565b6001825260005b8481106122ba5750906104f19161012494600061229161139f565b308152918201526122a1836125a7565b526122ab826125a7565b506040519485940135846121a7565b84906122c4612577565b82828601015201612276565b5060031960203682011261000e57600435906001600160401b03821161000e5761020090823603011261000e57600654341590811591612344575b8115612335575b506123235761079e9060040161503a565b6040516331c57b1b60e21b8152600490fd5b90506024820135141538612312565b60075490915061235c906001600160a01b0316610cd6565b604051636e49181f60e01b81526004810183905233602482015290602090829060449082905afa9081156123b9575b60009161239b575b50159061230b565b6123b3915060203d8111610e1657610e08818361135e565b38612393565b6123c161273a565b61238b565b503461000e57602036600319011261000e5761079e6004356123e78161072a565b6124146123f2613149565b61240e61098e602083019261096084516001600160581b031690565b906160a2565b613580565b503461000e576000806003193601126106f657600954604051630155619b60e71b81523060048201526104f192918290829060249082906001600160a01b03165afa9182156124a3575b8092612480575b50506040519182916020835260208301906105e0565b61249c92503d8091833e612494818361135e565b8101906129dd565b388061246a565b6124ab61273a565b612463565b503461000e57604036600319011261000e57602060ff61250d6004356124d58161072a565b602435906124e28261072a565b60018060a01b03166000526005845260406000209060018060a01b0316600052602052604060002090565b54166040519015158152f35b503461000e57602036600319011261000e576004356125378161072a565b61253f615e23565b6001600160a01b03811680156125585761079e82615ccc565b604490604051906324abfd1160e11b8252600482015260006024820152fd5b6040519061258482611315565b60006020838281520152565b50634e487b7160e01b600052603260045260246000fd5b6020908051156125b5570190565b6125bd612590565b0190565b60209181518110156125d6575b60051b010190565b6125de612590565b6125ce565b8051906125ee612577565b5060005b8281106125fe57505050565b61260881836125c1565b5180519091906001600160a01b039081161561263a57826020612634926001955116910151903361264c565b016125f2565b6040516314f4c13d60e21b8152600490fd5b6001600160a01b039081166000818152600f602090815260408083208784528252822080548686166001600160a01b03198216179091556107469692959294929390831692909190819080861685857f3134e8a2e6d97e929a7e54011ea5485d7d196dd5f0ba4d4ef95803e8e3fc257f8b80a460095416926064604051809581936305c9a1d560e31b835230600484015260248301528960448301525afa95861561271e575b956126ff575b5050612747565b612716929550803d106111c3576111b5818361135e565b9238806126f8565b61272661273a565b6126f2565b9081602091031261000e575190565b506040513d6000823e3d90fd5b91926001600160a01b03808316939192919081168085148015612864575b61285c578591816127ef575b50505082612780575b50505050565b6001600160a01b031660009081526010602052604090207fed0c1e94c302bdbbd8bbd6a4fb7c3ed335c2292407cd816eadd075d019d0ce04916127ce918560005260205260406000206166ee565b6040805192835260208301919091523390820152606090a33880808061277a565b6001600160a01b03166000908152601060205260409020826000526020527fed0c1e94c302bdbbd8bbd6a4fb7c3ed335c2292407cd816eadd075d019d0ce0461283c856040600020616646565b6040805192835260208301919091523390820152606090a3833880612771565b505050505050565b508315612765565b50634e487b7160e01b600052601160045260246000fd5b9190820180921161289057565b61074661286c565b9061271091820391821161289057565b60001981019190821161289057565b9190820391821161289057565b51906107468261072a565b9081602091031261000e57516106168161072a565b6009546040516308ed6c0160e41b8152306004820152602481018390526001600160a01b0392916020908290604490829087165afa90811561296f575b600091612951575b5082811661294b5750612946906000526003602052604060002090565b541690565b91505090565b612969915060203d8111610a3357610a25818361135e565b38612929565b61297761273a565b612921565b919082604091031261000e57602082516129958161072a565b92015190565b81601f8201121561000e5780516129b1816115ce565b926129bf604051948561135e565b8184526020828401011161000e5761061691602080850191016105bd565b9060208282031261000e5781516001600160401b03811161000e57610616920161299b565b600954612a17906001600160a01b0316610cd6565b604051630fab094760e01b815230600482015290916020918281602481875afa908115612b97575b600091612b7a575b506001600160a01b031680612b22575060405163f682eeaf60e01b815230600482015261061693918390600083602481875afa928315612b15575b600093612af8575b50604051630c8df17160e41b81523060048201526024810191909152919282908180604481015b03915afa928315612aeb575b600093612acc575b5050615814565b612ae3929350803d106111c3576111b5818361135e565b903880612ac5565b612af361273a565b612abd565b612b0f90612ab1943d8091833e612494818361135e565b92612a8a565b612b1d61273a565b612a82565b604051636d02a25560e11b8152600481019290925290925060009150829060249082905afa908115612b6d575b600091612b5a575090565b610616913d8091833e612494818361135e565b612b7561273a565b612b4f565b612b919150833d8511610a3357610a25818361135e565b38612a47565b612b9f61273a565b612a3f565b6020612bde9160018060a01b0360095416604051808095819463051330b560e21b8352306004840152604060248401526044830190611095565b03915afa908115612c0d575b600091612bf5575090565b610616915060203d81116111c3576111b5818361135e565b612c1561273a565b612bea565b600954604051631572f24960e11b815230600482015290602090829060249082906001600160a01b03165afa908115612c0d57600091612bf5575090565b81601f8201121561000e57805191612c6f836113d9565b92612c7d604051948561135e565b808452602092838086019260051b82010192831161000e578301905b828210612ca7575050505090565b81518152908301908301612c99565b9060208282031261000e5781516001600160401b03811161000e576106169201612c58565b60208082019080835283518092528060408094019401926000905b838210612d0557505050505090565b9091929394836101c0600192612de48951612d298382516001600160581b03169052565b8085015164ffffffffff16838601528087015164ffffffffff168388015260608181015161ffff16908401526080818101516001600160a01b03169084015260a08181015160ff169084015260c0818101516001600160a01b03169084015260e081810151908401526101008082015161ffff1690840152610120818101511515908401526101408181015115159084015261016081810151151590840152610180818101511515908401526101a090810151151590830152565b0196019493920190612cf6565b9092999896939197959499612e10610cd660085460018060a01b031690565b301461000e576009546001600160a01b0399908a90612e30908216610cd6565b1661000e57612e6494612e4293614bc4565b60018060a01b03166bffffffffffffffffffffffff60a01b600a541617600a55565b600980546001600160a01b0319166001600160a01b038616179055612e8c6020840151600c55565b604096612e9b88850151600d55565b6060840151600b80546001600160a01b0319166001600160a01b0390921691909117905580516130e0575b508051613081575b50838116613020575b50518051612fbd575b50825115158015612fb0575b8015612fa4575b8015612f97575b612f0c575b5050505061074633615ccc565b1691823b1561000e57516365c13f1960e11b815281511515600482015260208201511515602482015260408201511515604482015260609091015115156064820152906000908290608490829084905af18015612f8a575b612f71575b808080612eff565b80612f7e612f8492611330565b806105b2565b38612f69565b612f9261273a565b612f64565b5060608301511515612efa565b50828401511515612ef3565b5060208301511515612eec565b6000612fdc918651809381926386a5100760e01b835260048301612cdb565b0381838787165af18015613013575b15612ee05761300c903d806000833e613004818361135e565b810190612cb6565b5038612ee0565b61301b61273a565b612feb565b838316803b1561000e57865163036129cb60e61b81526001600160a01b039290921660048301526000908290602490829084905af18015613074575b15612ed75780612f7e61306e92611330565b38612ed7565b61307c61273a565b61305c565b848416803b1561000e57875163d67b78fd60e01b81529160009183918290849082906130b09060048301610605565b03925af180156130d3575b15612ece5780612f7e6130cd92611330565b38612ece565b6130db61273a565b6130bb565b858516803b1561000e5788516331315e5960e11b815291600091839182908490829061310f9060048301610605565b03925af18015613132575b15612ec65780612f7e61312c92611330565b38612ec6565b61313a61273a565b61311a565b356106168161072a565b6040519061315682611343565b6000546001600160a01b038116835260a081901c6001600160581b0316602084015260f81c6040830152565b906107469392916131b6613194613149565b6131b061098e602083019261096084516001600160581b031690565b906161ac565b6133cc565b602080825281018390526001600160fb1b03831161000e5760409260051b809284830137010190565b91908110156131f45760051b0190565b6113fa612590565b906107469161321b8261320e83611657565b6001600160581b03169052565b61323861322a6020830161166b565b64ffffffffff166020840152565b6132556132476040830161166b565b64ffffffffff166040840152565b61326f61326460608301611689565b61ffff166060840152565b61328e61327e6080830161073b565b6001600160a01b03166080840152565b6132a761329d60a08301610fcf565b60ff1660a0840152565b6132c66132b660c0830161073b565b6001600160a01b031660c0840152565b60e081013560e08301526132eb6101006132e1818401611689565b61ffff1690840152565b6133046101206132fc81840161169e565b151590840152565b6133156101406132fc81840161169e565b6133266101606132fc81840161169e565b6133376101806132fc81840161169e565b6133456101a080920161169e565b1515910152565b602080825281018390526040019160005b81811061336a5750505090565b9091928061337a600192866131fc565b6101c0908101940192910161335d565b916101c09181101561339b57020190565b6133a3612590565b020190565b9092916101c0906133be836101e08101966131fc565b6001600160a01b0316910152565b919092806134bb575b5050816133e0575050565b6009546133f5906001600160a01b0316610cd6565b916040906000825180956386a5100760e01b825281838161341a878a6004840161334c565b03925af19384156134ae575b600094613493575b5060005b818110613440575050505050565b8061344d600192876125c1565b517f94fa90e7e0c9e633db6056cdda599aa1c789587d7971ed761612032de6237c7f61348a61347d84878a61338a565b87519182913390836133a8565b0390a201613432565b6134a791943d8091833e613004818361135e565b923861342e565b6134b661273a565b613426565b6009546134d0906001600160a01b0316610cd6565b90813b1561000e576040916000835180926320512ba160e01b82528183816134fc888b600484016131bb565b03925af18015613573575b613560575b5060005b81811061351e5750506133d5565b8061352c60019284876131e4565b84513381529035907f832d89d991be5351d793c20faf4b7dd44f8aa9ce39e3cb160c6317de6fbba72990602090a201613510565b80612f7e61356d92611330565b3861350c565b61357b61273a565b613507565b6009546001600160a01b0390811691823b1561000e576000916024839260405194859384926317161f7d60e01b845216968760048401525af18015613601575b6135f2575b507fab0014d4c7a642a02a31b303a318908c22b0fb2001f107278fc6076b4c671b656020604051338152a2565b6135fb90611330565b386135c5565b61360961273a565b6135c0565b90918060409360208452816020850152848401376000828201840152601f01601f1916010190565b81604051928392833781016000815203902090565b6009546001600160a01b03169190823b1561000e576040516331315e5960e11b815261369d93600090829081838161368789896004840161360e565b03925af180156136d8575b6136c9575b50613636565b7f7bc9110d5de090dd59e07912d2b93a5a27ac70a60c8d8e324db4f9ee8b8b5c136020604051338152a2565b6136d290611330565b38613697565b6136e061273a565b613692565b6009546001600160a01b03169190823b1561000e5760405163d67b78fd60e01b815261372193600090829081838161368789896004840161360e565b7fd36dc0c1a06103fdcaf15f3f6fb797d1a97997514c78de073640c8b5005454b86020604051338152a2565b6009546001600160a01b0390811691823b1561000e5760009160248392604051948593849263036129cb60e61b845216968760048401525af180156137ce575b6137bf575b507fe7784d93cfbfa4408e19577e6cc0436f4dbb51214b70e100905dfce9def88c166020604051338152a2565b6137c890611330565b38613792565b6137d661273a565b61378d565b6009549091906001600160a01b0316803b1561000e577f677da4fed654db8e604791fa2582f342e2001aa217e27f6985eb3e0f67e5a7fc9160008061385e936044604051809481936324de8d6360e11b83528a60048401528760248401525af18015613872575b613863575b506040805191825233602083015290918291820190565b0390a2565b61386c90611330565b38613847565b61387a61273a565b613842565b908161012091031261000e576138936113ac565b90805182526020810151602083015260408101516040830152606081015160608301526080810151608083015260a081015160a083015260c081015160c08301526138e060e082016128c4565b60e0830152610100809101519082015290565b600a54613908906001600160a01b0316610cd6565b9061396660ff61010061393f60065495604096875180926321d1336160e11b82528180610120968795600483019190602083019252565b03915afa918215613b02575b600092613ad5575b5050015160f41c1660018091811c161490565b613ac45760095461397f906001600160a01b0316610cd6565b8251635d53f40760e11b8152600481018390526024810185905292906000908490604490829084905af1928315613ab7575b600093613a9c575b506009546139cf906001600160a01b0316610cd6565b81516304db994760e21b8152306004820152602481018490529390602090859060449082905afa938415613a8f575b600094613a6f575b5060005b858110613a1957505050505050565b80613a26600192846125c1565b51613a318188613e41565b845133815260a084901b84900388169187917f031e1988c95a91ec4d655ff63a8f87a80bc9daf28d95ae10ee08c0022cfb5c8b90602090a401613a0a565b613a8891945060203d8111610a3357610a25818361135e565b9238613a06565b613a9761273a565b6139fe565b613ab091933d8091833e613004818361135e565b91386139b9565b613abf61273a565b6139b1565b8151631d2c125760e31b8152600490fd5b613af49250803d10613afb575b613aec818361135e565b81019061387f565b3880613953565b503d613ae2565b613b0a61273a565b61394b565b906106169291613b42613b20613149565b613b3c61098e602083019261096084516001600160581b031690565b906162b6565b613bd6565b919060408382031261000e5782516001600160401b03811161000e57602091612995918501612c58565b929160608401906000198552806020926060848801525260808501929160005b828110613ba657505050506040600191930152565b90919293828060019261ffff8835613bbd8161167d565b16815201950193929101613b91565b356106168161167d565b6009549193929091613bf0906001600160a01b0316610cd6565b9160409060008251809563eaa19ab360e01b8252818381613c158c8860048401613b71565b03925af1938415613cd8575b600094613cb4575b50839560005b818110613c3e57505050505050565b80613c4b600192886125c1565b51613c568188613e41565b61ffff613c6c613c678487896131e4565b613bcc565b87516000815233602082015260a086901b8690038a169391909216917f598baf7bf150ca2f42be9e9f8f55e81d45f5715c3ff22bf46d697fabec7f31d690604090a401613c2f565b613cd091943d8091833e613cc8818361135e565b810190613b47565b509238613c29565b613ce061273a565b613c21565b6000908152600360205260409020546001600160a01b03168015613d065790565b60405163b49aa3b560e01b8152600490fd5b90600182811c92168015613d48575b6020831014613d3257565b634e487b7160e01b600052602260045260246000fd5b91607f1691613d27565b6000818152600360205260409020546001600160a01b031615613d06576000908152600460205260409020546001600160a01b031690565b929190613d978233613dc9565b156107a05783613dab8383613db0976144e4565b6148e1565b15613db757565b6040516336f57c1b60e11b8152600490fd5b6001600160a01b0380613ddb84613ce5565b169281831692848414948515613e11575b50508315613dfb575b50505090565b613e0791929350613d52565b1614388080613df5565b60009081526005602090815260408083206001600160a01b03949094168352929052205460ff1693503880613dec565b6001600160a01b0381169291908315613fd7576000828152600360205260409020546001600160a01b0316613fc557600082815260036020526040812080546001600160a01b0319166001600160a01b03841617905593613f0392908190867fddf252ad1be2c89b69c2b068fc378daa952ba7f163c4a11628f55a4df523b3ef8180a46009548590613edb906001600160a01b0316610cd6565b60405163b67cb04760e01b815230600482015260248101939093529193849081906044820190565b0381845afa928315613fb8575b8593613f94575b508251813b15613f90576040516330b157e560e21b81526004810191909152600060248201526001600160a01b0383166044820152939461074694918290606490829084905af18015613f83575b613f70575b506142e2565b80612f7e613f7d92611330565b38613f6a565b613f8b61273a565b613f65565b8580fd5b613fb19193503d8087833e613fa9818361135e565b810190613ff4565b9138613f17565b613fc061273a565b613f10565b604051632eb5f0c360e21b8152600490fd5b604051633904578f60e11b8152600490fd5b519061074682611694565b60208183031261000e5780516001600160401b039182821161000e57016101c08184031261000e5761402461137f565b92815184526020820151602085015260408201516040850152606082015160608501526080820151608085015260a082015160a085015261406760c083016128c4565b60c085015260e082015160e08501526101006140848184016128c4565b90850152610120808301519085015261014080830151908501526101606140ac818401613fe9565b908501526101806140be818401613fe9565b908501526101a0928383015190811161000e576140db920161299b565b9082015290565b600954614129939291906140fe906001600160a01b0316610cd6565b60405163b67cb04760e01b815230600482015260248101939093526000948590849081906044820190565b0381845afa9283156141d2575b85936141b6575b508251813b15613f90576040516330b157e560e21b815260048101919091526001600160a01b038316602482015260006044820152939461074694918290606490829084905af180156141a9575b614196575b50614383565b80612f7e6141a392611330565b38614190565b6141b161273a565b61418b565b6141cb9193503d8087833e613fa9818361135e565b913861413d565b6141da61273a565b614136565b60095461422794939291906141fc906001600160a01b0316610cd6565b60405163b67cb04760e01b815230600482015260248101949094526000958690859081906044820190565b0381845afa9384156142d5575b86946142b9575b508351813b156142b5576040516330b157e560e21b815260048101919091526001600160a01b03838116602483015284166044820152949561074695918290606490829084905af180156142a8575b614295575b50614418565b80612f7e6142a292611330565b3861428f565b6142b061273a565b61428a565b8680fd5b6142ce9194503d8088833e613fa9818361135e565b923861423b565b6142dd61273a565b614234565b608082015190816142f257505050565b6107469251906000828152601160205261430f84604083206166ee565b506001600160a01b03916040915083831615614368575b808052600f6020528181208582526020526143598383832054169460018060a01b0316600052600f602052604060002090565b85825260205220541690612747565b848152601160205261437c86838320616646565b5050614326565b6080820151908161439357505050565b9151610746926001600160a01b039081169081156143fa575b60009183835260116020526143c48560408520616646565b50508252600f60205260408220838352602052604081818420541692808052600f60205281812085825260205220541690612747565b8260005260116020526144118460406000206166ee565b50506143ac565b916080810151918261442a5750505050565b614499610cbd61449f9561448a945194859160018060a01b0380911680156144c6575b818716156144a8575b600052600f602052604060002083600052602052604060002054169460018060a01b0316600052600f602052604060002090565b90600052602052604060002090565b90612747565b3880808061277a565b8360005260116020526144bf896040600020616646565b5050614456565b8360005260116020526144dd8960406000206166ee565b505061444d565b9291906144f082613ce5565b6001600160a01b03808616959181168690036147a15780831690811561478f5786614578575b5083906107469596614527836147b3565b600083815260036020526040902080546001600160a01b0319166001600160a01b0387161790557fddf252ad1be2c89b69c2b068fc378daa952ba7f163c4a11628f55a4df523b3ef600080a46141df565b600954909690614590906001600160a01b0316610cd6565b60405163b67cb04760e01b815230600482015260248101879052600098906145d590610180908b81604481885afa908115614782575b8c91614768575b500151151590565b6146c3575b6040516308ed6c0160e41b815230600482015260248101889052602081604481865afa9081156146b6575b8a91614698575b50161561461b575b5095614516565b803b1561469457604051638cec7d3960e01b8152600481018790526001600160a01b0385166024820152969761074697879493929091908290604490829084905af18015614687575b614674575b509091879650614614565b80612f7e61468192611330565b38614669565b61468f61273a565b614664565b8780fd5b6146b0915060203d8111610a3357610a25818361135e565b3861460c565b6146be61273a565b614605565b61472760ff6101008b6146e0610cd6600a5460018060a01b031690565b6006546040516321d1336160e11b8152600481019190915290610120908190839060249082905afa92831561475b575b9261473e575b5050015160f41c1660018091161490565b156145da576040516318cdaf9760e01b8152600490fd5b6147549250803d10613afb57613aec818361135e565b3880614716565b61476361273a565b614710565b61477c91503d808e833e613fa9818361135e565b386145cd565b61478a61273a565b6145c6565b604051632c95542760e01b8152600490fd5b60405163a195bc5360e01b8152600490fd5b600081815260046020526040812080546001600160a01b03191690556001600160a01b036147e083613ce5565b167f8c5be1e5ebec7d5bd14f71427d1e84f3dd0314c0f7b2291e5b200ac8c7c3b9258280a4565b600082815260046020526040902080546001600160a01b0319166001600160a01b0383161790556001600160a01b038061484084613ce5565b169116907f8c5be1e5ebec7d5bd14f71427d1e84f3dd0314c0f7b2291e5b200ac8c7c3b925600080a4565b9081602091031261000e575161061681610490565b6001600160a01b039182168152911660208201526040810191909152608060608201819052610616929101906105e0565b3d156148dc573d906148c2826115ce565b916148d0604051938461135e565b82523d6000602084013e565b606090565b92909190823b1561499457614914926020926000604051809681958294630a85bd0160e11b9a8b85523360048601614880565b03926001600160a01b03165af160009181614964575b50614956576149376148b1565b80519081614951576040516336f57c1b60e11b8152600490fd5b602001fd5b6001600160e01b0319161490565b61498691925060203d811161498d575b61497e818361135e565b81019061486b565b903861492a565b503d614974565b50505050600190565b903590601e198136030182121561000e57018035906001600160401b03821161000e5760200191813603831361000e57565b9060241161000e5760200190600490565b9060441161000e5760400190600490565b6001600160e01b03199035818116939260048110614a0e57505050565b60040360031b82901b16169150565b60405190614a2a82611315565b600182528160005b60209081811015614a5457602091614a48612577565b90828501015201614a32565b505050565b9160608383031261000e578235926020810135614a7581610490565b9260408201356001600160401b03811161000e5761061692016113ff565b906080820135614bb2576101c08201906024614aaf838561499d565b9050108015614b80575b610d1e57614b03614afb610c7b614ace614a1d565b94614ad761139f565b30815260006020820152614aea876125a7565b52614af4866125a7565b508661499d565b915050612ba4565b614b0b612c1a565b90614b1b828260c0880135616a32565b91610180860135916127108314614b6a5792614b5483614b4e614b5a94614b6697614b4861225b98612898565b90616a32565b90612883565b906169aa565b946101a081019061499d565b9190565b5050509261225b816101a0614b6693019061499d565b50614b8e610d3e838561499d565b63fbb38e0360e01b916001600160e01b031991614baa916149f1565b161415614ab9565b6040516309f82f1b60e31b8152600490fd5b9192909280516001600160401b038111614cf4575b600191614bef82614bea8554613d18565b614d01565b60209081601f8411600114614c6257509282614c3093614c359693610746999896600092614c57575b5050600019600383901b1c191690821b179055614de6565b600655565b60018060a01b03166bffffffffffffffffffffffff60a01b6007541617600755565b015190503880614c18565b60016000529190601f1984167fb10e2d527612073b26eecdfd717e6a320cf44b4afac2b0732d9fcbe2b7fa0cf6936000905b828210614cdd57505093614c35969386936107469a99979383614c309810614cc4575b505050811b019055614de6565b015160001960f88460031b161c19169055388080614cb7565b808886978294978701518155019601940190614c94565b614cfc6112d6565b614bd9565b90601f8211614d0e575050565b6001916000908382527fb10e2d527612073b26eecdfd717e6a320cf44b4afac2b0732d9fcbe2b7fa0cf6906020601f850160051c83019410614d6b575b601f0160051c01915b828110614d615750505050565b8181558301614d54565b9092508290614d4b565b601f8111614d81575050565b600090600282527f405787fa12a823e0f2b7631cc41b3ba8828b3321ca811111fa75cd3aa3bb5ace906020601f850160051c83019410614ddc575b601f0160051c01915b828110614dd157505050565b818155600101614dc5565b9092508290614dbc565b9081516001600160401b038111614ed0575b614e0c81614e07600254613d18565b614d75565b602080601f8311600114614e485750819293600092614e3d575b50508160011b916000199060031b1c191617600255565b015190503880614e26565b90601f19831694614e7b60026000527f405787fa12a823e0f2b7631cc41b3ba8828b3321ca811111fa75cd3aa3bb5ace90565b926000905b878210614eb8575050836001959610614e9f575b505050811b01600255565b015160001960f88460031b161c19169055388080614e94565b80600185968294968601518155019501930190614e80565b614ed86112d6565b614df8565b9081602091031261000e575161061681611694565b604d8111614f01575b600a0a90565b614f0961286c565b614efb565b9160a08383031261000e5782359260209182820135936040830135614f3281610490565b936060840135614f4181611694565b936080810135906001600160401b03821161000e57019180601f8401121561000e578235614f6e816113d9565b93614f7c604051958661135e565b818552838086019260051b82010192831161000e578301905b828210614fa3575050505090565b8380918335614fb18161167d565b815201910190614f95565b9081608091031261000e57606060405191608083018381106001600160401b0382111761502d575b6040528051614ff281611694565b8352602081015161500281611694565b6020840152604081015161501581611694565b6040840152015161502581611694565b606082015290565b6150356112d6565b614fe4565b600060c082013590600c5480831460001461533c5750505060808101355b61018082019161508461506a8461313f565b6001600160a01b03166000908152600e6020526040902090565b549282936000936150948461313f565b956150a1610cd68561313f565b6001600160a01b039788160361533157508101925b6000906101e081019060446150cb838361499d565b905011806152fa575b615212575b505083156151a657156151945761513f9361506a93018095828211600014615142577f2fb2733fb01b76e3290fa8b695d18e026ddd19c0a265ab90e95152e57da303366151258561313f565b60405133815292169383039180602081015b0390a461313f565b55565b818311615152575b50505061313f565b7fe0e7c81cf67a96dd0e39bcf11521b1f4c0098cc1dbe8c30750a11d9ebfc3ed4d8261517d8661313f565b6040513381529316940391602090a438848161514a565b604051631b57826960e21b8152600490fd5b5091508282949394036151b95750505050565b61520892846151cb8161506a956128b7565b7fe0e7c81cf67a96dd0e39bcf11521b1f4c0098cc1dbe8c30750a11d9ebfc3ed4d6151f58561313f565b6040513381529416938060208101615137565b553880808061277a565b6152299250906152219161499d565b810190614f0e565b9250925050818061526c575b615263575b8051615247575b806150d9565b9361525c91946152568561313f565b9161543e565b9238615241565b6000915061523a565b506009546152c090606090615289906001600160a01b0316610cd6565b604051634228826f60e11b815230600482015290608090829060249082905afa9081156152ed575b6000916152c557500151151590565b615235565b61477c915060803d81116152e6575b6152de818361135e565b810190614fbc565b503d6152d4565b6152f561273a565b6152b1565b5061530e615308838361499d565b906149e0565b63fbb38e0360e01b916001600160e01b03199161532a916149f1565b16146150d4565b9394505080936150b6565b600b546001600160a01b03169283156153e7576020615398916153b595615364600d54614ef2565b94604051809581948293635268657960e11b845260a08d013591600485016040919493926060820195825260208201520152565b03915afa9283156153da575b926153ba575b506080840135616a32565b615058565b6153d391925060203d81116111c3576111b5818361135e565b90386153aa565b6153e261273a565b6153a4565b5050505050565b929190606084019084526020906060828601528251809152816080860193019160005b82811061542657505050506040600091930152565b835161ffff1685529381019392810192600101615411565b600954929392615456906001600160a01b0316610cd6565b6040805163eaa19ab360e01b81529560009491928590889081838161547f888b600484016153ee565b03925af18015615540575b85978691615520575b50968051955b8681106154a95750505050505050565b806154b6600192846125c1565b516154c18186613e41565b61ffff6154d96154d184896125c1565b5161ffff1690565b88518a815233602082015260a086901b86900388169391909216917f598baf7bf150ca2f42be9e9f8f55e81d45f5715c3ff22bf46d697fabec7f31d690604090a401615499565b90506155379197503d8087833e613cc8818361135e565b96909638615493565b61554861273a565b61548a565b6009546001600160a01b0316803b1561000e576040516386bc2be360e01b81526020600482015291600091839182908490829061558e906024830190611095565b03925af180156155a9575b6155a05750565b61074690611330565b6155b161273a565b615599565b906155c082613ce5565b6001600160a01b0380821693919084615629575b5081600061074694956155e6836147b3565b82825260036020526040822080546001600160a01b03191690557fddf252ad1be2c89b69c2b068fc378daa952ba7f163c4a11628f55a4df523b3ef8280a46140e2565b600954909490615641906001600160a01b0316610cd6565b60405163b67cb04760e01b8152306004820152602481018590526000969061568590610180908981604481885afa908115615807575b8a916157f357500151151590565b615770575b6040516308ed6c0160e41b815230600482015260248101869052602081604481865afa908115615763575b8891615745575b5016156156cb575b50936155d4565b803b15613f9057604051638cec7d3960e01b8152600481018590526001600160a01b038416602482015294956107469585936000939092908290604490829084905af18015615738575b615725575b5091508594506156c4565b80612f7e61573292611330565b3861571a565b61574061273a565b615715565b61575d915060203d8111610a3357610a25818361135e565b386156bc565b61576b61273a565b6156b5565b600a546157b190615789906001600160a01b0316610cd6565b60065460405180926321d1336160e11b82528180610120968795600483019190602083019252565b03915afa80156157e6575b6157c8575b505061568a565b816157de92903d10613afb57613aec818361135e565b5038806157c1565b6157ee61273a565b6157bc565b61477c91503d808c833e613fa9818361135e565b61580f61273a565b615677565b9061061690615842604051602092609160f51b8483015260228201526022815261583d81611343565b61595d565b92604051938161585b86935180928680870191016105bd565b820161586f825180938680850191016105bd565b0103808452018261135e565b604051602081018181106001600160401b038211176158a4575b60405260008152906000368137565b6158ac6112d6565b615895565b604051906105e082018281106001600160401b038211176158df575b604052602e82526105c0366020840137565b6158e76112d6565b6158cd565b906158f6826113d9565b615903604051918261135e565b8281528092615914601f19916113d9565b0190602036910137565b90602091805182101561593057010190565b615938612590565b010190565b8115615947570490565b634e487b7160e01b600052601260045260246000fd5b90815115615a7c5761596d6158b1565b916000908161597b856125a7565b5260019181519181925b8084106159ab57505050506159a16159a6916106169394615a86565b615ac9565b615b10565b909192946159dc6159d66159d06159c2898761591e565b516001600160f81b03191690565b60f81c90565b60ff1690565b9184925b60ff9089828916861015615a3b5760019291614b4e615a0f6159d6615a088a615a15966125c1565b5160ff1690565b60081b90565b615a328b615a2a88603a9586860616926125c1565b9060ff169052565b049301926159e0565b50919594935050809691965b615a55575060010192615985565b9460ff6001603a92615a7283858b0616615a2a8d868516906125c1565b0116950480615a47565b905061061661587b565b9060ff80911690615a96826158ec565b9260005b838110615aa8575050505090565b8083615ab6600193856125c1565b5116615ac282886125c1565b5201615a9a565b908151615ad5816158ec565b9060005b818110615ae7575090925050565b60019060ff615afd6000198389510301886125c1565b5116615b0982866125c1565b5201615ad9565b8051615b1b816115ce565b91604090615b2b8251948561135e565b828452601f19615b3a846115ce565b016020903682870137600092835b858110615b585750505050505090565b6001908251615b6681611343565b603a81527f31323334353637383941424344454647484a4b4c4d4e50515253545556575859858201527f5a6162636465666768696a6b6d6e6f707172737475767778797a000000000000848201526001600160f81b031990615bd69060ff615bce858a6125c1565b51169061591e565b5116861a615be4828a61591e565b5301615b48565b615bf3613149565b6001600160581b03602082015116908115615c8857506040516331a9108f60e11b815260048101919091526020816024817f00000000000000000000000000000000000000000000000000000000000000006001600160a01b03165afa908115615c7b575b600091615c63575090565b610616915060203d8111610a3357610a25818361135e565b615c8361273a565b615c58565b516001600160a01b0316919050565b60018060a01b038151166001600160581b0360a01b602083015160a01b1691604060ff60f81b91015160f81b16911717600055565b61074690615cd8613149565b6020810151600091906001600160581b031680615d2c5750516001600160a01b031690505b615d27615d086113cc565b6001600160a01b03841681526000602082015260006040820152615c97565b615def565b6040516331a9108f60e11b81526001600160581b0391909116600482015290506020816024816001600160a01b037f0000000000000000000000000000000000000000000000000000000000000000165afa918215615db0575b91615d92575b50615cfd565b615daa915060203d8111610a3357610a25818361135e565b38615d8c565b615db861273a565b615d86565b6000906001600160a01b03167f8be0079c531659141344cd1fd0a4f28419497f9722a3daafe3b4186f6b6457e08280a3565b6001600160a01b0391821691167f8be0079c531659141344cd1fd0a4f28419497f9722a3daafe3b4186f6b6457e0600080a3565b610746615e2e613149565b6020810180516001600160581b0390600090821680615e82575050825160ff90615e7990604090615e70906001600160a01b031695516001600160581b031690565b95015160ff1690565b169216906163c0565b604080516331a9108f60e11b81526001600160581b0392909216600483015260ff92615e7992615e7091906020816024816001600160a01b037f0000000000000000000000000000000000000000000000000000000000000000165afa918215615f12575b91615ef4575b5095610981565b615f0c915060203d8111610a3357610a25818361135e565b38615eed565b615f1a61273a565b615ee7565b6001600160a01b038181163314159283615fff575b5082615f55575b5050615f4357565b60405163075fd2b160e01b8152600490fd5b60405163c161c93f60e01b81523360048201526001600160a01b039092166024830152600060448301526016606483015290915060209082908180608481015b03917f0000000000000000000000000000000000000000000000000000000000000000165afa908115615ff2575b600091615fd4575b50153880615f3b565b615fec915060203d8111610e1657610e08818361135e565b38615fcb565b615ffa61273a565b615fc3565b60405163c161c93f60e01b81523360048201526001600160a01b03841660248201526044810191909152601660648201529092506020816084817f000000000000000000000000000000000000000000000000000000000000000087165afa908115616095575b600091616077575b50159138615f34565b61608f915060203d8111610e1657610e08818361135e565b3861606e565b61609d61273a565b616066565b6001600160a01b038181163314159283616109575b50826160c5575050615f4357565b60405163c161c93f60e01b81523360048201526001600160a01b03909216602483015260006044830152601760648301529091506020908290818060848101615f95565b60405163c161c93f60e01b81523360048201526001600160a01b03841660248201526044810191909152601760648201529092506020816084817f000000000000000000000000000000000000000000000000000000000000000087165afa90811561619f575b600091616181575b501591386160b7565b616199915060203d8111610e1657610e08818361135e565b38616178565b6161a761273a565b616170565b6001600160a01b038181163314159283616213575b50826161cf575050615f4357565b60405163c161c93f60e01b81523360048201526001600160a01b03909216602483015260006044830152601560648301529091506020908290818060848101615f95565b60405163c161c93f60e01b81523360048201526001600160a01b03841660248201526044810191909152601560648201529092506020816084817f000000000000000000000000000000000000000000000000000000000000000087165afa9081156162a9575b60009161628b575b501591386161c1565b6162a3915060203d8111610e1657610e08818361135e565b38616282565b6162b161273a565b61627a565b6001600160a01b03818116331415928361631d575b50826162d9575050615f4357565b60405163c161c93f60e01b81523360048201526001600160a01b03909216602483015260006044830152601860648301529091506020908290818060848101615f95565b60405163c161c93f60e01b81523360048201526001600160a01b03841660248201526044810191909152601860648201529092506020816084817f000000000000000000000000000000000000000000000000000000000000000087165afa9081156163b3575b600091616395575b501591386162cb565b6163ad915060203d8111610e1657610e08818361135e565b3861638c565b6163bb61273a565b616384565b916001600160a01b03808416331415928361648e575b50826163e7575b50509050615f4357565b60405163c161c93f60e01b81523360048201526001600160a01b0394909416602485015260006044850152606484019190915260209150829060849082907f0000000000000000000000000000000000000000000000000000000000000000165afa908115616481575b600091616463575b50158038806163dd565b61647b915060203d8111610e1657610e08818361135e565b38616459565b61648961273a565b616451565b60405163c161c93f60e01b81523360048201526001600160a01b03861660248201526044810191909152606481018390529092506020816084817f000000000000000000000000000000000000000000000000000000000000000087165afa908115616524575b600091616506575b501591386163d6565b61651e915060203d8111610e1657610e08818361135e565b386164fd565b61652c61273a565b6164f5565b90438110156166025761654390616945565b815490600063ffffffff8092165b83821061659a575050508061657157505060005b6001600160e01b031690565b6165959161658161658e926128a8565b9060005260206000200190565b5460201c90565b616565565b909192808316906001818518811c83018093116165f5575b866000528386846020600020015416116000146165d4575050925b9190616551565b9094935081018091116165e8575b916165cd565b6165f061286c565b6165e2565b6165fd61286c565b6165b2565b606460405162461bcd60e51b815260206004820152602060248201527f436865636b706f696e74733a20626c6f636b206e6f7420796574206d696e65646044820152fd5b6001600160e01b0392918361665a83616716565b169081039081116166e1575b61666f43616945565b9184821161668c5784928361668593169161682e565b9316921690565b60405162461bcd60e51b815260206004820152602760248201527f53616665436173743a2076616c756520646f65736e27742066697420696e20326044820152663234206269747360c81b6064820152608490fd5b6166e961286c565b616666565b6001600160e01b0392918361670283616716565b169081018091116166e15761666f43616945565b805460008161672757505050600090565b602090600019938385810111616744575b81522001015460201c90565b61674c61286c565b616738565b80546107469291680100000000000000008210156167b3575b600182018082558210156167a6575b600090815260209081902083519382015190911b63ffffffff191663ffffffff9390931692909217910155565b6167ae612590565b616779565b6167bb6112d6565b61676a565b906040516167cd81611315565b602081935463ffffffff81168352811c910152565b156167e957565b60405162461bcd60e51b815260206004820152601760248201527f436865636b706f696e743a20696e76616c6964206b65790000000000000000006044820152606490fd5b9092919283825480151560001461691a57926020929184616869616864616857614b66986128a8565b8560005260206000200190565b6167c0565b93616878855163ffffffff1690565b61688f63ffffffff918284169283911611156167e2565b6168a96168a0875163ffffffff1690565b63ffffffff1690565b036168e457506168d6926165816168bf926128a8565b9063ffffffff82549181199060201b169116179055565b01516001600160e01b031690565b915050616915916169026168f661139f565b63ffffffff9093168352565b6001600160e01b03881682860152616751565b6168d6565b505061693f9161692b6168f661139f565b6001600160e01b0385166020830152616751565b60009190565b63ffffffff90818111616956571690565b60405162461bcd60e51b815260206004820152602660248201527f53616665436173743a2076616c756520646f65736e27742066697420696e203360448201526532206269747360d01b6064820152608490fd5b919060001981840981840291828083109203918083039214616a27576127109081831015616a09577fbc01a36e2eb1c432ca57a786c226809d495182a9930be0ded288ce703afb7e9194950990828211900360fc1b910360041c170290565b6044838360405191631dcf306360e21b835260048301526024820152fd5b505061271090049150565b90916000198383099280830292838086109503948086039514616aca5782851015616aaa57908291096001821901821680920460028082600302188083028203028083028203028083028203028083028203028083028203028092029003029360018380600003040190848311900302920304170290565b604051631dcf306360e21b81526004810186905260248101849052604490fd5b505090610616925061593d56fea264697066735822122042d6e93b5fc565cc3be0e5e68dc1ccd35bec8a15f6ec6536aef705eaf8e0c21f64736f6c634300081100338be0079c531659141344cd1fd0a4f28419497f9722a3daafe3b4186f6b6457e0",
    "linkReferences": {}
  },
  "methodIdentifiers": {
    "adjustTiers((uint88,uint40,uint40,uint16,address,uint8,address,bytes32,uint16,bool,bool,bool,bool,bool)[],uint256[])": "14ea9b06",
    "approve(address,uint256)": "095ea7b3",
    "balanceOf(address)": "70a08231",
    "codeOrigin()": "1d153ca4",
    "contractURI()": "e8a3d485",
    "creditsOf(address)": "245a45b5",
    "didPay((address,uint256,uint256,(address,uint256,uint256,uint256),(address,uint256,uint256,uint256),uint256,address,bool,string,bytes))": "da9ee8b7",
    "didRedeem((address,uint256,uint256,uint256,(address,uint256,uint256,uint256),(address,uint256,uint256,uint256),address,string,bytes))": "2b13c58f",
    "directory()": "c41c2f24",
    "firstOwnerOf(uint256)": "54c6d1f5",
    "fundingCycleStore()": "557e7155",
    "getApproved(uint256)": "081812fc",
    "getPastTierTotalVotes(uint256,uint256)": "d31cc52c",
    "getPastTierVotes(address,uint256,uint256)": "d40e7146",
    "getTierDelegate(address,uint256)": "82732b6d",
    "getTierTotalVotes(uint256)": "94c5c5ca",
    "getTierVotes(address,uint256)": "ca323efe",
    "initialize(uint256,address,string,string,address,string,address,string,((uint88,uint40,uint40,uint16,address,uint8,address,bytes32,uint16,bool,bool,bool,bool,bool)[],uint256,uint256,address),address,(bool,bool,bool,bool))": "9521e381",
    "isApprovedForAll(address,address)": "e985e9c5",
    "jbOwner()": "ba23c36e",
    "mintFor((uint16[],address)[])": "36c1a93b",
    "mintFor(uint16[],address)": "6ac6d941",
    "mintReservesFor((uint256,uint256)[])": "2a596e53",
    "mintReservesFor(uint256,uint256)": "aa4fb15b",
    "name()": "06fdde03",
    "operatorStore()": "ad007d63",
    "owner()": "8da5cb5b",
    "ownerOf(uint256)": "6352211e",
    "payParams((address,address,(address,uint256,uint256,uint256),uint256,uint256,address,uint256,uint256,string,bytes))": "d46cf171",
    "prices()": "d3419bf3",
    "pricingCurrency()": "64640c1e",
    "pricingDecimals()": "4ecba625",
    "projectId()": "3fafa127",
    "projects()": "8b79543c",
    "redeemParams((address,address,uint256,uint256,uint256,uint256,uint256,(address,uint256,uint256,uint256),bool,uint256,string,bytes))": "a51cfd18",
    "redemptionWeightOf(uint256[],(address,address,uint256,uint256,uint256,uint256,uint256,(address,uint256,uint256,uint256),bool,uint256,string,bytes))": "7ba62bf9",
    "renounceOwnership()": "715018a6",
    "royaltyInfo(uint256,uint256)": "2a55205a",
    "safeTransferFrom(address,address,uint256)": "42842e0e",
    "safeTransferFrom(address,address,uint256,bytes)": "b88d4fde",
    "setApprovalForAll(address,bool)": "a22cb465",
    "setBaseUri(string)": "a0bcfc7f",
    "setContractUri(string)": "ccb4807b",
    "setDefaultReservedTokenBeneficiary(address)": "df487e26",
    "setEncodedIPFSUriOf(uint256,bytes32)": "525350ba",
    "setPermissionIndex(uint8)": "61aec7a9",
    "setTierDelegate(address,uint256)": "ab951e39",
    "setTierDelegates((address,uint256)[])": "c74b13d9",
    "setTokenUriResolver(address)": "2407497e",
    "store()": "975057e7",
    "supportsInterface(bytes4)": "01ffc9a7",
    "symbol()": "95d89b41",
    "tokenURI(uint256)": "c87b56dd",
    "totalRedemptionWeight((address,address,uint256,uint256,uint256,uint256,uint256,(address,uint256,uint256,uint256),bool,uint256,string,bytes))": "9494bf72",
    "transferFrom(address,address,uint256)": "23b872dd",
    "transferOwnership(address)": "f2fde38b",
    "transferOwnershipToProject(uint256)": "a220d696"
  },
  "id": 1
}