{
  "abi": [
    {
      "inputs": [],
      "name": "ALEADY_MINTED",
      "type": "error"
    },
    {
      "inputs": [],
      "name": "APPROVAL_TO_CURRENT_OWNER",
      "type": "error"
    },
    {
      "inputs": [],
      "name": "APPROVE_TO_CALLER",
      "type": "error"
    },
    {
      "inputs": [],
      "name": "BLOCK_NOT_YET_MINED",
      "type": "error"
    },
    {
      "inputs": [],
      "name": "CALLER_NOT_OWNER_OR_APPROVED",
      "type": "error"
    },
    {
      "inputs": [],
      "name": "DELEGATE_ADDRESS_ZERO",
      "type": "error"
    },
    {
      "inputs": [],
      "name": "INCORRECT_OWNER",
      "type": "error"
    },
    {
      "inputs": [],
      "name": "INVALID_PAYMENT_EVENT",
      "type": "error"
    },
    {
      "inputs": [],
      "name": "INVALID_REDEMPTION_EVENT",
      "type": "error"
    },
    {
      "inputs": [],
      "name": "INVALID_REDEMPTION_METADATA",
      "type": "error"
    },
    {
      "inputs": [],
      "name": "INVALID_TOKEN_ID",
      "type": "error"
    },
    {
      "inputs": [],
      "name": "MINT_TO_ZERO",
      "type": "error"
    },
    {
      "inputs": [],
      "name": "NOT_AVAILABLE",
      "type": "error"
    },
    {
      "inputs": [],
      "name": "OVERSPENDING",
      "type": "error"
    },
    {
      "inputs": [
        {
          "internalType": "uint256",
          "name": "prod1",
          "type": "uint256"
        },
        {
          "internalType": "uint256",
          "name": "denominator",
          "type": "uint256"
        }
      ],
      "name": "PRBMath__MulDivOverflow",
      "type": "error"
    },
    {
      "inputs": [],
      "name": "PRICING_RESOLVER_CHANGES_PAUSED",
      "type": "error"
    },
    {
      "inputs": [],
      "name": "RESERVED_TOKEN_MINTING_PAUSED",
      "type": "error"
    },
    {
      "inputs": [],
      "name": "TRANSFERS_PAUSED",
      "type": "error"
    },
    {
      "inputs": [],
      "name": "TRANSFER_TO_NON_IMPLEMENTER",
      "type": "error"
    },
    {
      "inputs": [],
      "name": "TRANSFER_TO_ZERO_ADDRESS",
      "type": "error"
    },
    {
      "inputs": [],
      "name": "UNAUTHORIZED",
      "type": "error"
    },
    {
      "inputs": [],
      "name": "UNEXPECTED_TOKEN_REDEEMED",
      "type": "error"
    },
    {
      "anonymous": false,
      "inputs": [
        {
          "indexed": true,
          "internalType": "uint256",
          "name": "tierId",
          "type": "uint256"
        },
        {
          "components": [
            {
              "internalType": "uint80",
              "name": "contributionFloor",
              "type": "uint80"
            },
            {
              "internalType": "uint48",
              "name": "lockedUntil",
              "type": "uint48"
            },
            {
              "internalType": "uint40",
              "name": "initialQuantity",
              "type": "uint40"
            },
            {
              "internalType": "uint16",
              "name": "votingUnits",
              "type": "uint16"
            },
            {
              "internalType": "uint16",
              "name": "reservedRate",
              "type": "uint16"
            },
            {
              "internalType": "address",
              "name": "reservedTokenBeneficiary",
              "type": "address"
            },
            {
              "internalType": "uint8",
              "name": "royaltyRate",
              "type": "uint8"
            },
            {
              "internalType": "address",
              "name": "royaltyBeneficiary",
              "type": "address"
            },
            {
              "internalType": "bytes32",
              "name": "encodedIPFSUri",
              "type": "bytes32"
            },
            {
              "internalType": "uint8",
              "name": "category",
              "type": "uint8"
            },
            {
              "internalType": "bool",
              "name": "allowManualMint",
              "type": "bool"
            },
            {
              "internalType": "bool",
              "name": "shouldUseReservedTokenBeneficiaryAsDefault",
              "type": "bool"
            },
            {
              "internalType": "bool",
              "name": "shouldUseRoyaltyBeneficiaryAsDefault",
              "type": "bool"
            },
            {
              "internalType": "bool",
              "name": "transfersPausable",
              "type": "bool"
            }
          ],
          "indexed": false,
          "internalType": "struct JB721TierParams",
          "name": "data",
          "type": "tuple"
        },
        {
          "indexed": false,
          "internalType": "address",
          "name": "caller",
          "type": "address"
        }
      ],
      "name": "AddTier",
      "type": "event"
    },
    {
      "anonymous": false,
      "inputs": [
        {
          "indexed": true,
          "internalType": "address",
          "name": "owner",
          "type": "address"
        },
        {
          "indexed": true,
          "internalType": "address",
          "name": "approved",
          "type": "address"
        },
        {
          "indexed": true,
          "internalType": "uint256",
          "name": "tokenId",
          "type": "uint256"
        }
      ],
      "name": "Approval",
      "type": "event"
    },
    {
      "anonymous": false,
      "inputs": [
        {
          "indexed": true,
          "internalType": "address",
          "name": "owner",
          "type": "address"
        },
        {
          "indexed": true,
          "internalType": "address",
          "name": "operator",
          "type": "address"
        },
        {
          "indexed": false,
          "internalType": "bool",
          "name": "approved",
          "type": "bool"
        }
      ],
      "name": "ApprovalForAll",
      "type": "event"
    },
    {
      "anonymous": false,
      "inputs": [
        {
          "indexed": true,
          "internalType": "address",
          "name": "delegator",
          "type": "address"
        },
        {
          "indexed": true,
          "internalType": "address",
          "name": "fromDelegate",
          "type": "address"
        },
        {
          "indexed": true,
          "internalType": "address",
          "name": "toDelegate",
          "type": "address"
        }
      ],
      "name": "DelegateChanged",
      "type": "event"
    },
    {
      "anonymous": false,
      "inputs": [
        {
          "indexed": true,
          "internalType": "uint256",
          "name": "tokenId",
          "type": "uint256"
        },
        {
          "indexed": true,
          "internalType": "uint256",
          "name": "tierId",
          "type": "uint256"
        },
        {
          "indexed": true,
          "internalType": "address",
          "name": "beneficiary",
          "type": "address"
        },
        {
          "indexed": false,
          "internalType": "uint256",
          "name": "totalAmountContributed",
          "type": "uint256"
        },
        {
          "indexed": false,
          "internalType": "address",
          "name": "caller",
          "type": "address"
        }
      ],
      "name": "Mint",
      "type": "event"
    },
    {
      "anonymous": false,
      "inputs": [
        {
          "indexed": true,
          "internalType": "uint256",
          "name": "tokenId",
          "type": "uint256"
        },
        {
          "indexed": true,
          "internalType": "uint256",
          "name": "tierId",
          "type": "uint256"
        },
        {
          "indexed": true,
          "internalType": "address",
          "name": "beneficiary",
          "type": "address"
        },
        {
          "indexed": false,
          "internalType": "address",
          "name": "caller",
          "type": "address"
        }
      ],
      "name": "MintReservedToken",
      "type": "event"
    },
    {
      "anonymous": false,
      "inputs": [
        {
          "indexed": true,
          "internalType": "address",
          "name": "previousOwner",
          "type": "address"
        },
        {
          "indexed": true,
          "internalType": "address",
          "name": "newOwner",
          "type": "address"
        }
      ],
      "name": "OwnershipTransferred",
      "type": "event"
    },
    {
      "anonymous": false,
      "inputs": [
        {
          "indexed": true,
          "internalType": "uint256",
          "name": "tierId",
          "type": "uint256"
        },
        {
          "indexed": false,
          "internalType": "address",
          "name": "caller",
          "type": "address"
        }
      ],
      "name": "RemoveTier",
      "type": "event"
    },
    {
      "anonymous": false,
      "inputs": [
        {
          "indexed": true,
          "internalType": "string",
          "name": "baseUri",
          "type": "string"
        },
        {
          "indexed": false,
          "internalType": "address",
          "name": "caller",
          "type": "address"
        }
      ],
      "name": "SetBaseUri",
      "type": "event"
    },
    {
      "anonymous": false,
      "inputs": [
        {
          "indexed": true,
          "internalType": "string",
          "name": "contractUri",
          "type": "string"
        },
        {
          "indexed": false,
          "internalType": "address",
          "name": "caller",
          "type": "address"
        }
      ],
      "name": "SetContractUri",
      "type": "event"
    },
    {
      "anonymous": false,
      "inputs": [
        {
          "indexed": true,
          "internalType": "address",
          "name": "beneficiary",
          "type": "address"
        },
        {
          "indexed": false,
          "internalType": "address",
          "name": "caller",
          "type": "address"
        }
      ],
      "name": "SetDefaultReservedTokenBeneficiary",
      "type": "event"
    },
    {
      "anonymous": false,
      "inputs": [
        {
          "indexed": true,
          "internalType": "uint256",
          "name": "tierId",
          "type": "uint256"
        },
        {
          "indexed": false,
          "internalType": "bytes32",
          "name": "encodedIPFSUri",
          "type": "bytes32"
        },
        {
          "indexed": false,
          "internalType": "address",
          "name": "caller",
          "type": "address"
        }
      ],
      "name": "SetEncodedIPFSUri",
      "type": "event"
    },
    {
      "anonymous": false,
      "inputs": [
        {
          "indexed": true,
          "internalType": "contract IJBTokenUriResolver",
          "name": "newResolver",
          "type": "address"
        },
        {
          "indexed": false,
          "internalType": "address",
          "name": "caller",
          "type": "address"
        }
      ],
      "name": "SetTokenUriResolver",
      "type": "event"
    },
    {
      "anonymous": false,
      "inputs": [
        {
          "indexed": true,
          "internalType": "address",
          "name": "delegator",
          "type": "address"
        },
        {
          "indexed": true,
          "internalType": "address",
          "name": "fromDelegate",
          "type": "address"
        },
        {
          "indexed": true,
          "internalType": "address",
          "name": "toDelegate",
          "type": "address"
        },
        {
          "indexed": false,
          "internalType": "uint256",
          "name": "tierId",
          "type": "uint256"
        },
        {
          "indexed": false,
          "internalType": "address",
          "name": "caller",
          "type": "address"
        }
      ],
      "name": "TierDelegateChanged",
      "type": "event"
    },
    {
      "anonymous": false,
      "inputs": [
        {
          "indexed": true,
          "internalType": "address",
          "name": "delegate",
          "type": "address"
        },
        {
          "indexed": true,
          "internalType": "uint256",
          "name": "tierId",
          "type": "uint256"
        },
        {
          "indexed": false,
          "internalType": "uint256",
          "name": "previousBalance",
          "type": "uint256"
        },
        {
          "indexed": false,
          "internalType": "uint256",
          "name": "newBalance",
          "type": "uint256"
        },
        {
          "indexed": false,
          "internalType": "address",
          "name": "caller",
          "type": "address"
        }
      ],
      "name": "TierDelegateVotesChanged",
      "type": "event"
    },
    {
      "anonymous": false,
      "inputs": [
        {
          "indexed": true,
          "internalType": "address",
          "name": "from",
          "type": "address"
        },
        {
          "indexed": true,
          "internalType": "address",
          "name": "to",
          "type": "address"
        },
        {
          "indexed": true,
          "internalType": "uint256",
          "name": "tokenId",
          "type": "uint256"
        }
      ],
      "name": "Transfer",
      "type": "event"
    },
    {
      "inputs": [],
      "name": "MAX_ROYALTY_RATE",
      "outputs": [
        {
          "internalType": "uint256",
          "name": "",
          "type": "uint256"
        }
      ],
      "stateMutability": "view",
      "type": "function"
    },
    {
      "inputs": [
        {
          "components": [
            {
              "internalType": "uint80",
              "name": "contributionFloor",
              "type": "uint80"
            },
            {
              "internalType": "uint48",
              "name": "lockedUntil",
              "type": "uint48"
            },
            {
              "internalType": "uint40",
              "name": "initialQuantity",
              "type": "uint40"
            },
            {
              "internalType": "uint16",
              "name": "votingUnits",
              "type": "uint16"
            },
            {
              "internalType": "uint16",
              "name": "reservedRate",
              "type": "uint16"
            },
            {
              "internalType": "address",
              "name": "reservedTokenBeneficiary",
              "type": "address"
            },
            {
              "internalType": "uint8",
              "name": "royaltyRate",
              "type": "uint8"
            },
            {
              "internalType": "address",
              "name": "royaltyBeneficiary",
              "type": "address"
            },
            {
              "internalType": "bytes32",
              "name": "encodedIPFSUri",
              "type": "bytes32"
            },
            {
              "internalType": "uint8",
              "name": "category",
              "type": "uint8"
            },
            {
              "internalType": "bool",
              "name": "allowManualMint",
              "type": "bool"
            },
            {
              "internalType": "bool",
              "name": "shouldUseReservedTokenBeneficiaryAsDefault",
              "type": "bool"
            },
            {
              "internalType": "bool",
              "name": "shouldUseRoyaltyBeneficiaryAsDefault",
              "type": "bool"
            },
            {
              "internalType": "bool",
              "name": "transfersPausable",
              "type": "bool"
            }
          ],
          "internalType": "struct JB721TierParams[]",
          "name": "_tiersToAdd",
          "type": "tuple[]"
        },
        {
          "internalType": "uint256[]",
          "name": "_tierIdsToRemove",
          "type": "uint256[]"
        }
      ],
      "name": "adjustTiers",
      "outputs": [],
      "stateMutability": "nonpayable",
      "type": "function"
    },
    {
      "inputs": [
        {
          "internalType": "address",
          "name": "to",
          "type": "address"
        },
        {
          "internalType": "uint256",
          "name": "tokenId",
          "type": "uint256"
        }
      ],
      "name": "approve",
      "outputs": [],
      "stateMutability": "nonpayable",
      "type": "function"
    },
    {
      "inputs": [
        {
          "internalType": "address",
          "name": "_owner",
          "type": "address"
        }
      ],
      "name": "balanceOf",
      "outputs": [
        {
          "internalType": "uint256",
          "name": "balance",
          "type": "uint256"
        }
      ],
      "stateMutability": "view",
      "type": "function"
    },
    {
      "inputs": [],
      "name": "codeOrigin",
      "outputs": [
        {
          "internalType": "address",
          "name": "",
          "type": "address"
        }
      ],
      "stateMutability": "view",
      "type": "function"
    },
    {
      "inputs": [],
      "name": "contractURI",
      "outputs": [
        {
          "internalType": "string",
          "name": "",
          "type": "string"
        }
      ],
      "stateMutability": "view",
      "type": "function"
    },
    {
      "inputs": [
        {
          "internalType": "address",
          "name": "",
          "type": "address"
        }
      ],
      "name": "creditsOf",
      "outputs": [
        {
          "internalType": "uint256",
          "name": "",
          "type": "uint256"
        }
      ],
      "stateMutability": "view",
      "type": "function"
    },
    {
      "inputs": [
        {
          "components": [
            {
              "internalType": "address",
              "name": "payer",
              "type": "address"
            },
            {
              "internalType": "uint256",
              "name": "projectId",
              "type": "uint256"
            },
            {
              "internalType": "uint256",
              "name": "currentFundingCycleConfiguration",
              "type": "uint256"
            },
            {
              "components": [
                {
                  "internalType": "address",
                  "name": "token",
                  "type": "address"
                },
                {
                  "internalType": "uint256",
                  "name": "value",
                  "type": "uint256"
                },
                {
                  "internalType": "uint256",
                  "name": "decimals",
                  "type": "uint256"
                },
                {
                  "internalType": "uint256",
                  "name": "currency",
                  "type": "uint256"
                }
              ],
              "internalType": "struct JBTokenAmount",
              "name": "amount",
              "type": "tuple"
            },
            {
              "components": [
                {
                  "internalType": "address",
                  "name": "token",
                  "type": "address"
                },
                {
                  "internalType": "uint256",
                  "name": "value",
                  "type": "uint256"
                },
                {
                  "internalType": "uint256",
                  "name": "decimals",
                  "type": "uint256"
                },
                {
                  "internalType": "uint256",
                  "name": "currency",
                  "type": "uint256"
                }
              ],
              "internalType": "struct JBTokenAmount",
              "name": "forwardedAmount",
              "type": "tuple"
            },
            {
              "internalType": "uint256",
              "name": "projectTokenCount",
              "type": "uint256"
            },
            {
              "internalType": "address",
              "name": "beneficiary",
              "type": "address"
            },
            {
              "internalType": "bool",
              "name": "preferClaimedTokens",
              "type": "bool"
            },
            {
              "internalType": "string",
              "name": "memo",
              "type": "string"
            },
            {
              "internalType": "bytes",
              "name": "metadata",
              "type": "bytes"
            }
          ],
          "internalType": "struct JBDidPayData",
          "name": "_data",
          "type": "tuple"
        }
      ],
      "name": "didPay",
      "outputs": [],
      "stateMutability": "payable",
      "type": "function"
    },
    {
      "inputs": [
        {
          "components": [
            {
              "internalType": "address",
              "name": "holder",
              "type": "address"
            },
            {
              "internalType": "uint256",
              "name": "projectId",
              "type": "uint256"
            },
            {
              "internalType": "uint256",
              "name": "currentFundingCycleConfiguration",
              "type": "uint256"
            },
            {
              "internalType": "uint256",
              "name": "projectTokenCount",
              "type": "uint256"
            },
            {
              "components": [
                {
                  "internalType": "address",
                  "name": "token",
                  "type": "address"
                },
                {
                  "internalType": "uint256",
                  "name": "value",
                  "type": "uint256"
                },
                {
                  "internalType": "uint256",
                  "name": "decimals",
                  "type": "uint256"
                },
                {
                  "internalType": "uint256",
                  "name": "currency",
                  "type": "uint256"
                }
              ],
              "internalType": "struct JBTokenAmount",
              "name": "reclaimedAmount",
              "type": "tuple"
            },
            {
              "components": [
                {
                  "internalType": "address",
                  "name": "token",
                  "type": "address"
                },
                {
                  "internalType": "uint256",
                  "name": "value",
                  "type": "uint256"
                },
                {
                  "internalType": "uint256",
                  "name": "decimals",
                  "type": "uint256"
                },
                {
                  "internalType": "uint256",
                  "name": "currency",
                  "type": "uint256"
                }
              ],
              "internalType": "struct JBTokenAmount",
              "name": "forwardedAmount",
              "type": "tuple"
            },
            {
              "internalType": "address payable",
              "name": "beneficiary",
              "type": "address"
            },
            {
              "internalType": "string",
              "name": "memo",
              "type": "string"
            },
            {
              "internalType": "bytes",
              "name": "metadata",
              "type": "bytes"
            }
          ],
          "internalType": "struct JBDidRedeemData",
          "name": "_data",
          "type": "tuple"
        }
      ],
      "name": "didRedeem",
      "outputs": [],
      "stateMutability": "payable",
      "type": "function"
    },
    {
      "inputs": [],
      "name": "directory",
      "outputs": [
        {
          "internalType": "contract IJBDirectory",
          "name": "",
          "type": "address"
        }
      ],
      "stateMutability": "view",
      "type": "function"
    },
    {
      "inputs": [
        {
          "internalType": "uint256",
          "name": "_tokenId",
          "type": "uint256"
        }
      ],
      "name": "firstOwnerOf",
      "outputs": [
        {
          "internalType": "address",
          "name": "",
          "type": "address"
        }
      ],
      "stateMutability": "view",
      "type": "function"
    },
    {
      "inputs": [],
      "name": "fundingCycleStore",
      "outputs": [
        {
          "internalType": "contract IJBFundingCycleStore",
          "name": "",
          "type": "address"
        }
      ],
      "stateMutability": "view",
      "type": "function"
    },
    {
      "inputs": [
        {
          "internalType": "uint256",
          "name": "tokenId",
          "type": "uint256"
        }
      ],
      "name": "getApproved",
      "outputs": [
        {
          "internalType": "address",
          "name": "",
          "type": "address"
        }
      ],
      "stateMutability": "view",
      "type": "function"
    },
    {
      "inputs": [
        {
          "internalType": "uint256",
          "name": "_tier",
          "type": "uint256"
        },
        {
          "internalType": "uint256",
          "name": "_blockNumber",
          "type": "uint256"
        }
      ],
      "name": "getPastTierTotalVotes",
      "outputs": [
        {
          "internalType": "uint256",
          "name": "",
          "type": "uint256"
        }
      ],
      "stateMutability": "view",
      "type": "function"
    },
    {
      "inputs": [
        {
          "internalType": "address",
          "name": "_account",
          "type": "address"
        },
        {
          "internalType": "uint256",
          "name": "_tier",
          "type": "uint256"
        },
        {
          "internalType": "uint256",
          "name": "_blockNumber",
          "type": "uint256"
        }
      ],
      "name": "getPastTierVotes",
      "outputs": [
        {
          "internalType": "uint256",
          "name": "",
          "type": "uint256"
        }
      ],
      "stateMutability": "view",
      "type": "function"
    },
    {
      "inputs": [
        {
          "internalType": "address",
          "name": "_account",
          "type": "address"
        },
        {
          "internalType": "uint256",
          "name": "_tier",
          "type": "uint256"
        }
      ],
      "name": "getTierDelegate",
      "outputs": [
        {
          "internalType": "address",
          "name": "",
          "type": "address"
        }
      ],
      "stateMutability": "view",
      "type": "function"
    },
    {
      "inputs": [
        {
          "internalType": "uint256",
          "name": "_tier",
          "type": "uint256"
        }
      ],
      "name": "getTierTotalVotes",
      "outputs": [
        {
          "internalType": "uint256",
          "name": "",
          "type": "uint256"
        }
      ],
      "stateMutability": "view",
      "type": "function"
    },
    {
      "inputs": [
        {
          "internalType": "address",
          "name": "_account",
          "type": "address"
        },
        {
          "internalType": "uint256",
          "name": "_tier",
          "type": "uint256"
        }
      ],
      "name": "getTierVotes",
      "outputs": [
        {
          "internalType": "uint256",
          "name": "",
          "type": "uint256"
        }
      ],
      "stateMutability": "view",
      "type": "function"
    },
    {
      "inputs": [
        {
          "internalType": "uint256",
          "name": "_projectId",
          "type": "uint256"
        },
        {
          "internalType": "contract IJBDirectory",
          "name": "_directory",
          "type": "address"
        },
        {
          "internalType": "string",
          "name": "_name",
          "type": "string"
        },
        {
          "internalType": "string",
          "name": "_symbol",
          "type": "string"
        },
        {
          "internalType": "contract IJBFundingCycleStore",
          "name": "_fundingCycleStore",
          "type": "address"
        },
        {
          "internalType": "string",
          "name": "_baseUri",
          "type": "string"
        },
        {
          "internalType": "contract IJBTokenUriResolver",
          "name": "_tokenUriResolver",
          "type": "address"
        },
        {
          "internalType": "string",
          "name": "_contractUri",
          "type": "string"
        },
        {
          "components": [
            {
              "components": [
                {
                  "internalType": "uint80",
                  "name": "contributionFloor",
                  "type": "uint80"
                },
                {
                  "internalType": "uint48",
                  "name": "lockedUntil",
                  "type": "uint48"
                },
                {
                  "internalType": "uint40",
                  "name": "initialQuantity",
                  "type": "uint40"
                },
                {
                  "internalType": "uint16",
                  "name": "votingUnits",
                  "type": "uint16"
                },
                {
                  "internalType": "uint16",
                  "name": "reservedRate",
                  "type": "uint16"
                },
                {
                  "internalType": "address",
                  "name": "reservedTokenBeneficiary",
                  "type": "address"
                },
                {
                  "internalType": "uint8",
                  "name": "royaltyRate",
                  "type": "uint8"
                },
                {
                  "internalType": "address",
                  "name": "royaltyBeneficiary",
                  "type": "address"
                },
                {
                  "internalType": "bytes32",
                  "name": "encodedIPFSUri",
                  "type": "bytes32"
                },
                {
                  "internalType": "uint8",
                  "name": "category",
                  "type": "uint8"
                },
                {
                  "internalType": "bool",
                  "name": "allowManualMint",
                  "type": "bool"
                },
                {
                  "internalType": "bool",
                  "name": "shouldUseReservedTokenBeneficiaryAsDefault",
                  "type": "bool"
                },
                {
                  "internalType": "bool",
                  "name": "shouldUseRoyaltyBeneficiaryAsDefault",
                  "type": "bool"
                },
                {
                  "internalType": "bool",
                  "name": "transfersPausable",
                  "type": "bool"
                }
              ],
              "internalType": "struct JB721TierParams[]",
              "name": "tiers",
              "type": "tuple[]"
            },
            {
              "internalType": "uint256",
              "name": "currency",
              "type": "uint256"
            },
            {
              "internalType": "uint256",
              "name": "decimals",
              "type": "uint256"
            },
            {
              "internalType": "contract IJBPrices",
              "name": "prices",
              "type": "address"
            }
          ],
          "internalType": "struct JB721PricingParams",
          "name": "_pricing",
          "type": "tuple"
        },
        {
          "internalType": "contract IJBTiered721DelegateStore",
          "name": "_store",
          "type": "address"
        },
        {
          "components": [
            {
              "internalType": "bool",
              "name": "lockReservedTokenChanges",
              "type": "bool"
            },
            {
              "internalType": "bool",
              "name": "lockVotingUnitChanges",
              "type": "bool"
            },
            {
              "internalType": "bool",
              "name": "lockManualMintingChanges",
              "type": "bool"
            },
            {
              "internalType": "bool",
              "name": "preventOverspending",
              "type": "bool"
            }
          ],
          "internalType": "struct JBTiered721Flags",
          "name": "_flags",
          "type": "tuple"
        }
      ],
      "name": "initialize",
      "outputs": [],
      "stateMutability": "nonpayable",
      "type": "function"
    },
    {
      "inputs": [
        {
          "internalType": "address",
          "name": "owner",
          "type": "address"
        },
        {
          "internalType": "address",
          "name": "operator",
          "type": "address"
        }
      ],
      "name": "isApprovedForAll",
      "outputs": [
        {
          "internalType": "bool",
          "name": "",
          "type": "bool"
        }
      ],
      "stateMutability": "view",
      "type": "function"
    },
    {
      "inputs": [
        {
          "components": [
            {
              "internalType": "uint16[]",
              "name": "tierIds",
              "type": "uint16[]"
            },
            {
              "internalType": "address",
              "name": "beneficiary",
              "type": "address"
            }
          ],
          "internalType": "struct JBTiered721MintForTiersData[]",
          "name": "_mintForTiersData",
          "type": "tuple[]"
        }
      ],
      "name": "mintFor",
      "outputs": [],
      "stateMutability": "nonpayable",
      "type": "function"
    },
    {
      "inputs": [
        {
          "internalType": "uint16[]",
          "name": "_tierIds",
          "type": "uint16[]"
        },
        {
          "internalType": "address",
          "name": "_beneficiary",
          "type": "address"
        }
      ],
      "name": "mintFor",
      "outputs": [
        {
          "internalType": "uint256[]",
          "name": "tokenIds",
          "type": "uint256[]"
        }
      ],
      "stateMutability": "nonpayable",
      "type": "function"
    },
    {
      "inputs": [
        {
          "components": [
            {
              "internalType": "uint256",
              "name": "tierId",
              "type": "uint256"
            },
            {
              "internalType": "uint256",
              "name": "count",
              "type": "uint256"
            }
          ],
          "internalType": "struct JBTiered721MintReservesForTiersData[]",
          "name": "_mintReservesForTiersData",
          "type": "tuple[]"
        }
      ],
      "name": "mintReservesFor",
      "outputs": [],
      "stateMutability": "nonpayable",
      "type": "function"
    },
    {
      "inputs": [
        {
          "internalType": "uint256",
          "name": "_tierId",
          "type": "uint256"
        },
        {
          "internalType": "uint256",
          "name": "_count",
          "type": "uint256"
        }
      ],
      "name": "mintReservesFor",
      "outputs": [],
      "stateMutability": "nonpayable",
      "type": "function"
    },
    {
      "inputs": [],
      "name": "name",
      "outputs": [
        {
          "internalType": "string",
          "name": "",
          "type": "string"
        }
      ],
      "stateMutability": "view",
      "type": "function"
    },
    {
      "inputs": [],
      "name": "owner",
      "outputs": [
        {
          "internalType": "address",
          "name": "",
          "type": "address"
        }
      ],
      "stateMutability": "view",
      "type": "function"
    },
    {
      "inputs": [
        {
          "internalType": "uint256",
          "name": "tokenId",
          "type": "uint256"
        }
      ],
      "name": "ownerOf",
      "outputs": [
        {
          "internalType": "address",
          "name": "",
          "type": "address"
        }
      ],
      "stateMutability": "view",
      "type": "function"
    },
    {
      "inputs": [
        {
          "components": [
            {
              "internalType": "contract IJBPaymentTerminal",
              "name": "terminal",
              "type": "address"
            },
            {
              "internalType": "address",
              "name": "payer",
              "type": "address"
            },
            {
              "components": [
                {
                  "internalType": "address",
                  "name": "token",
                  "type": "address"
                },
                {
                  "internalType": "uint256",
                  "name": "value",
                  "type": "uint256"
                },
                {
                  "internalType": "uint256",
                  "name": "decimals",
                  "type": "uint256"
                },
                {
                  "internalType": "uint256",
                  "name": "currency",
                  "type": "uint256"
                }
              ],
              "internalType": "struct JBTokenAmount",
              "name": "amount",
              "type": "tuple"
            },
            {
              "internalType": "uint256",
              "name": "projectId",
              "type": "uint256"
            },
            {
              "internalType": "uint256",
              "name": "currentFundingCycleConfiguration",
              "type": "uint256"
            },
            {
              "internalType": "address",
              "name": "beneficiary",
              "type": "address"
            },
            {
              "internalType": "uint256",
              "name": "weight",
              "type": "uint256"
            },
            {
              "internalType": "uint256",
              "name": "reservedRate",
              "type": "uint256"
            },
            {
              "internalType": "string",
              "name": "memo",
              "type": "string"
            },
            {
              "internalType": "bytes",
              "name": "metadata",
              "type": "bytes"
            }
          ],
          "internalType": "struct JBPayParamsData",
          "name": "_data",
          "type": "tuple"
        }
      ],
      "name": "payParams",
      "outputs": [
        {
          "internalType": "uint256",
          "name": "weight",
          "type": "uint256"
        },
        {
          "internalType": "string",
          "name": "memo",
          "type": "string"
        },
        {
          "components": [
            {
              "internalType": "contract IJBPayDelegate",
              "name": "delegate",
              "type": "address"
            },
            {
              "internalType": "uint256",
              "name": "amount",
              "type": "uint256"
            }
          ],
          "internalType": "struct JBPayDelegateAllocation[]",
          "name": "delegateAllocations",
          "type": "tuple[]"
        }
      ],
      "stateMutability": "view",
      "type": "function"
    },
    {
      "inputs": [],
      "name": "prices",
      "outputs": [
        {
          "internalType": "contract IJBPrices",
          "name": "",
          "type": "address"
        }
      ],
      "stateMutability": "view",
      "type": "function"
    },
    {
      "inputs": [],
      "name": "pricingCurrency",
      "outputs": [
        {
          "internalType": "uint256",
          "name": "",
          "type": "uint256"
        }
      ],
      "stateMutability": "view",
      "type": "function"
    },
    {
      "inputs": [],
      "name": "pricingDecimals",
      "outputs": [
        {
          "internalType": "uint256",
          "name": "",
          "type": "uint256"
        }
      ],
      "stateMutability": "view",
      "type": "function"
    },
    {
      "inputs": [],
      "name": "projectId",
      "outputs": [
        {
          "internalType": "uint256",
          "name": "",
          "type": "uint256"
        }
      ],
      "stateMutability": "view",
      "type": "function"
    },
    {
      "inputs": [
        {
          "components": [
            {
              "internalType": "contract IJBPaymentTerminal",
              "name": "terminal",
              "type": "address"
            },
            {
              "internalType": "address",
              "name": "holder",
              "type": "address"
            },
            {
              "internalType": "uint256",
              "name": "projectId",
              "type": "uint256"
            },
            {
              "internalType": "uint256",
              "name": "currentFundingCycleConfiguration",
              "type": "uint256"
            },
            {
              "internalType": "uint256",
              "name": "tokenCount",
              "type": "uint256"
            },
            {
              "internalType": "uint256",
              "name": "totalSupply",
              "type": "uint256"
            },
            {
              "internalType": "uint256",
              "name": "overflow",
              "type": "uint256"
            },
            {
              "components": [
                {
                  "internalType": "address",
                  "name": "token",
                  "type": "address"
                },
                {
                  "internalType": "uint256",
                  "name": "value",
                  "type": "uint256"
                },
                {
                  "internalType": "uint256",
                  "name": "decimals",
                  "type": "uint256"
                },
                {
                  "internalType": "uint256",
                  "name": "currency",
                  "type": "uint256"
                }
              ],
              "internalType": "struct JBTokenAmount",
              "name": "reclaimAmount",
              "type": "tuple"
            },
            {
              "internalType": "bool",
              "name": "useTotalOverflow",
              "type": "bool"
            },
            {
              "internalType": "uint256",
              "name": "redemptionRate",
              "type": "uint256"
            },
            {
              "internalType": "string",
              "name": "memo",
              "type": "string"
            },
            {
              "internalType": "bytes",
              "name": "metadata",
              "type": "bytes"
            }
          ],
          "internalType": "struct JBRedeemParamsData",
          "name": "_data",
          "type": "tuple"
        }
      ],
      "name": "redeemParams",
      "outputs": [
        {
          "internalType": "uint256",
          "name": "reclaimAmount",
          "type": "uint256"
        },
        {
          "internalType": "string",
          "name": "memo",
          "type": "string"
        },
        {
          "components": [
            {
              "internalType": "contract IJBRedemptionDelegate",
              "name": "delegate",
              "type": "address"
            },
            {
              "internalType": "uint256",
              "name": "amount",
              "type": "uint256"
            }
          ],
          "internalType": "struct JBRedemptionDelegateAllocation[]",
          "name": "delegateAllocations",
          "type": "tuple[]"
        }
      ],
      "stateMutability": "view",
      "type": "function"
    },
    {
      "inputs": [
        {
          "internalType": "uint256[]",
          "name": "_tokenIds",
          "type": "uint256[]"
        },
        {
          "components": [
            {
              "internalType": "contract IJBPaymentTerminal",
              "name": "terminal",
              "type": "address"
            },
            {
              "internalType": "address",
              "name": "holder",
              "type": "address"
            },
            {
              "internalType": "uint256",
              "name": "projectId",
              "type": "uint256"
            },
            {
              "internalType": "uint256",
              "name": "currentFundingCycleConfiguration",
              "type": "uint256"
            },
            {
              "internalType": "uint256",
              "name": "tokenCount",
              "type": "uint256"
            },
            {
              "internalType": "uint256",
              "name": "totalSupply",
              "type": "uint256"
            },
            {
              "internalType": "uint256",
              "name": "overflow",
              "type": "uint256"
            },
            {
              "components": [
                {
                  "internalType": "address",
                  "name": "token",
                  "type": "address"
                },
                {
                  "internalType": "uint256",
                  "name": "value",
                  "type": "uint256"
                },
                {
                  "internalType": "uint256",
                  "name": "decimals",
                  "type": "uint256"
                },
                {
                  "internalType": "uint256",
                  "name": "currency",
                  "type": "uint256"
                }
              ],
              "internalType": "struct JBTokenAmount",
              "name": "reclaimAmount",
              "type": "tuple"
            },
            {
              "internalType": "bool",
              "name": "useTotalOverflow",
              "type": "bool"
            },
            {
              "internalType": "uint256",
              "name": "redemptionRate",
              "type": "uint256"
            },
            {
              "internalType": "string",
              "name": "memo",
              "type": "string"
            },
            {
              "internalType": "bytes",
              "name": "metadata",
              "type": "bytes"
            }
          ],
          "internalType": "struct JBRedeemParamsData",
          "name": "",
          "type": "tuple"
        }
      ],
      "name": "redemptionWeightOf",
      "outputs": [
        {
          "internalType": "uint256",
          "name": "",
          "type": "uint256"
        }
      ],
      "stateMutability": "view",
      "type": "function"
    },
    {
      "inputs": [],
      "name": "renounceOwnership",
      "outputs": [],
      "stateMutability": "nonpayable",
      "type": "function"
    },
    {
      "inputs": [
        {
          "internalType": "uint256",
          "name": "_tokenId",
          "type": "uint256"
        },
        {
          "internalType": "uint256",
          "name": "_salePrice",
          "type": "uint256"
        }
      ],
      "name": "royaltyInfo",
      "outputs": [
        {
          "internalType": "address",
          "name": "receiver",
          "type": "address"
        },
        {
          "internalType": "uint256",
          "name": "royaltyAmount",
          "type": "uint256"
        }
      ],
      "stateMutability": "view",
      "type": "function"
    },
    {
      "inputs": [
        {
          "internalType": "address",
          "name": "from",
          "type": "address"
        },
        {
          "internalType": "address",
          "name": "to",
          "type": "address"
        },
        {
          "internalType": "uint256",
          "name": "tokenId",
          "type": "uint256"
        }
      ],
      "name": "safeTransferFrom",
      "outputs": [],
      "stateMutability": "nonpayable",
      "type": "function"
    },
    {
      "inputs": [
        {
          "internalType": "address",
          "name": "from",
          "type": "address"
        },
        {
          "internalType": "address",
          "name": "to",
          "type": "address"
        },
        {
          "internalType": "uint256",
          "name": "tokenId",
          "type": "uint256"
        },
        {
          "internalType": "bytes",
          "name": "data",
          "type": "bytes"
        }
      ],
      "name": "safeTransferFrom",
      "outputs": [],
      "stateMutability": "nonpayable",
      "type": "function"
    },
    {
      "inputs": [
        {
          "internalType": "address",
          "name": "operator",
          "type": "address"
        },
        {
          "internalType": "bool",
          "name": "approved",
          "type": "bool"
        }
      ],
      "name": "setApprovalForAll",
      "outputs": [],
      "stateMutability": "nonpayable",
      "type": "function"
    },
    {
      "inputs": [
        {
          "internalType": "string",
          "name": "_baseUri",
          "type": "string"
        }
      ],
      "name": "setBaseUri",
      "outputs": [],
      "stateMutability": "nonpayable",
      "type": "function"
    },
    {
      "inputs": [
        {
          "internalType": "string",
          "name": "_contractUri",
          "type": "string"
        }
      ],
      "name": "setContractUri",
      "outputs": [],
      "stateMutability": "nonpayable",
      "type": "function"
    },
    {
      "inputs": [
        {
          "internalType": "address",
          "name": "_beneficiary",
          "type": "address"
        }
      ],
      "name": "setDefaultReservedTokenBeneficiary",
      "outputs": [],
      "stateMutability": "nonpayable",
      "type": "function"
    },
    {
      "inputs": [
        {
          "internalType": "uint256",
          "name": "_tierId",
          "type": "uint256"
        },
        {
          "internalType": "bytes32",
          "name": "_encodedIPFSUri",
          "type": "bytes32"
        }
      ],
      "name": "setEncodedIPFSUriOf",
      "outputs": [],
      "stateMutability": "nonpayable",
      "type": "function"
    },
    {
      "inputs": [
        {
          "internalType": "address",
          "name": "_delegatee",
          "type": "address"
        },
        {
          "internalType": "uint256",
          "name": "_tierId",
          "type": "uint256"
        }
      ],
      "name": "setTierDelegate",
      "outputs": [],
      "stateMutability": "nonpayable",
      "type": "function"
    },
    {
      "inputs": [
        {
          "components": [
            {
              "internalType": "address",
              "name": "delegatee",
              "type": "address"
            },
            {
              "internalType": "uint256",
              "name": "tierId",
              "type": "uint256"
            }
          ],
          "internalType": "struct JBTiered721SetTierDelegatesData[]",
          "name": "_setTierDelegatesData",
          "type": "tuple[]"
        }
      ],
      "name": "setTierDelegates",
      "outputs": [],
      "stateMutability": "nonpayable",
      "type": "function"
    },
    {
      "inputs": [
        {
          "internalType": "contract IJBTokenUriResolver",
          "name": "_tokenUriResolver",
          "type": "address"
        }
      ],
      "name": "setTokenUriResolver",
      "outputs": [],
      "stateMutability": "nonpayable",
      "type": "function"
    },
    {
      "inputs": [],
      "name": "store",
      "outputs": [
        {
          "internalType": "contract IJBTiered721DelegateStore",
          "name": "",
          "type": "address"
        }
      ],
      "stateMutability": "view",
      "type": "function"
    },
    {
      "inputs": [
        {
          "internalType": "bytes4",
          "name": "_interfaceId",
          "type": "bytes4"
        }
      ],
      "name": "supportsInterface",
      "outputs": [
        {
          "internalType": "bool",
          "name": "",
          "type": "bool"
        }
      ],
      "stateMutability": "view",
      "type": "function"
    },
    {
      "inputs": [],
      "name": "symbol",
      "outputs": [
        {
          "internalType": "string",
          "name": "",
          "type": "string"
        }
      ],
      "stateMutability": "view",
      "type": "function"
    },
    {
      "inputs": [
        {
          "internalType": "uint256",
          "name": "_tokenId",
          "type": "uint256"
        }
      ],
      "name": "tokenURI",
      "outputs": [
        {
          "internalType": "string",
          "name": "",
          "type": "string"
        }
      ],
      "stateMutability": "view",
      "type": "function"
    },
    {
      "inputs": [
        {
          "components": [
            {
              "internalType": "contract IJBPaymentTerminal",
              "name": "terminal",
              "type": "address"
            },
            {
              "internalType": "address",
              "name": "holder",
              "type": "address"
            },
            {
              "internalType": "uint256",
              "name": "projectId",
              "type": "uint256"
            },
            {
              "internalType": "uint256",
              "name": "currentFundingCycleConfiguration",
              "type": "uint256"
            },
            {
              "internalType": "uint256",
              "name": "tokenCount",
              "type": "uint256"
            },
            {
              "internalType": "uint256",
              "name": "totalSupply",
              "type": "uint256"
            },
            {
              "internalType": "uint256",
              "name": "overflow",
              "type": "uint256"
            },
            {
              "components": [
                {
                  "internalType": "address",
                  "name": "token",
                  "type": "address"
                },
                {
                  "internalType": "uint256",
                  "name": "value",
                  "type": "uint256"
                },
                {
                  "internalType": "uint256",
                  "name": "decimals",
                  "type": "uint256"
                },
                {
                  "internalType": "uint256",
                  "name": "currency",
                  "type": "uint256"
                }
              ],
              "internalType": "struct JBTokenAmount",
              "name": "reclaimAmount",
              "type": "tuple"
            },
            {
              "internalType": "bool",
              "name": "useTotalOverflow",
              "type": "bool"
            },
            {
              "internalType": "uint256",
              "name": "redemptionRate",
              "type": "uint256"
            },
            {
              "internalType": "string",
              "name": "memo",
              "type": "string"
            },
            {
              "internalType": "bytes",
              "name": "metadata",
              "type": "bytes"
            }
          ],
          "internalType": "struct JBRedeemParamsData",
          "name": "",
          "type": "tuple"
        }
      ],
      "name": "totalRedemptionWeight",
      "outputs": [
        {
          "internalType": "uint256",
          "name": "",
          "type": "uint256"
        }
      ],
      "stateMutability": "view",
      "type": "function"
    },
    {
      "inputs": [
        {
          "internalType": "address",
          "name": "from",
          "type": "address"
        },
        {
          "internalType": "address",
          "name": "to",
          "type": "address"
        },
        {
          "internalType": "uint256",
          "name": "tokenId",
          "type": "uint256"
        }
      ],
      "name": "transferFrom",
      "outputs": [],
      "stateMutability": "nonpayable",
      "type": "function"
    },
    {
      "inputs": [
        {
          "internalType": "address",
          "name": "newOwner",
          "type": "address"
        }
      ],
      "name": "transferOwnership",
      "outputs": [],
      "stateMutability": "nonpayable",
      "type": "function"
    }
  ],
  "bytecode": {
    "object": "0x60806040523480156200001157600080fd5b506200001d3362000035565b600880546001600160a01b0319163017905562000087565b600780546001600160a01b038381166001600160a01b0319831681179093556040519116919082907f8be0079c531659141344cd1fd0a4f28419497f9722a3daafe3b4186f6b6457e090600090a35050565b615b1280620000976000396000f3fe60806040526004361061031a5760003560e01c806382732b6d116101ab578063c74b13d9116100f7578063d40e714611610095578063df487e261161006f578063df487e261461098e578063e8a3d485146109ae578063e985e9c5146109c3578063f2fde38b14610a0c57600080fd5b8063d40e71461461093b578063d46cf1711461095b578063da9ee8b71461097b57600080fd5b8063ccb4807b116100d1578063ccb4807b146108bb578063d1704baf146108db578063d31cc52c146108fb578063d3419bf31461091b57600080fd5b8063c74b13d91461085b578063c87b56dd1461087b578063ca323efe1461089b57600080fd5b8063a0bcfc7f11610164578063aa4fb15b1161013e578063aa4fb15b146107db578063ab951e39146107fb578063b88d4fde1461081b578063c41c2f241461083b57600080fd5b8063a0bcfc7f1461076c578063a22cb4651461078c578063a51cfd18146107ac57600080fd5b806382732b6d146106965780638da5cb5b146106d95780639494bf72146106f757806394c5c5ca1461071757806395d89b4114610737578063975057e71461074c57600080fd5b80633fafa1271161026a5780636352211e1161022357806370a08231116101fd57806370a082311461062c578063715018a61461064c57806379a75319146106615780637ba62bf91461067657600080fd5b80636352211e146105c957806364640c1e146105e95780636ac6d941146105ff57600080fd5b80633fafa1271461051d57806342842e0e146105335780634ecba62514610553578063525350ba1461056957806354c6d1f514610589578063557e7155146105a957600080fd5b80632407497e116102d75780632a55205a116102b15780632a55205a1461048b5780632a596e53146104ca5780632b13c58f146104ea57806336c1a93b146104fd57600080fd5b80632407497e14610410578063245a45b51461043057806325eb91ee1461046b57600080fd5b806301ffc9a71461031f57806306fdde0314610354578063081812fc14610376578063095ea7b3146103ae5780631d153ca4146103d057806323b872dd146103f0575b600080fd5b34801561032b57600080fd5b5061033f61033a366004614010565b610a2c565b60405190151581526020015b60405180910390f35b34801561036057600080fd5b50610369610a57565b60405161034b919061407d565b34801561038257600080fd5b50610396610391366004614090565b610ae9565b6040516001600160a01b03909116815260200161034b565b3480156103ba57600080fd5b506103ce6103c93660046140ce565b610b10565b005b3480156103dc57600080fd5b50600854610396906001600160a01b031681565b3480156103fc57600080fd5b506103ce61040b3660046140fa565b610b9c565b34801561041c57600080fd5b506103ce61042b36600461413b565b610bce565b34801561043c57600080fd5b5061045d61044b36600461413b565b600e6020526000908152604090205481565b60405190815260200161034b565b34801561047757600080fd5b506103ce61048636600461419c565b610c77565b34801561049757600080fd5b506104ab6104a6366004614236565b610e5a565b604080516001600160a01b03909316835260208301919091520161034b565b3480156104d657600080fd5b506103ce6104e5366004614258565b610f8d565b6103ce6104f83660046142e5565b610fe6565b34801561050957600080fd5b506103ce610518366004614319565b6111c0565b34801561052957600080fd5b5061045d60055481565b34801561053f57600080fd5b506103ce61054e3660046140fa565b611222565b34801561055f57600080fd5b5061045d600d5481565b34801561057557600080fd5b506103ce610584366004614236565b61123d565b34801561059557600080fd5b506103966105a4366004614090565b6112e9565b3480156105b557600080fd5b50600a54610396906001600160a01b031681565b3480156105d557600080fd5b506103966105e4366004614090565b611395565b3480156105f557600080fd5b5061045d600c5481565b34801561060b57600080fd5b5061061f61061a36600461435a565b6113cb565b60405161034b91906143eb565b34801561063857600080fd5b5061045d61064736600461413b565b611511565b34801561065857600080fd5b506103ce611587565b34801561066d57600080fd5b5061045d60c881565b34801561068257600080fd5b5061045d610691366004614562565b61159b565b3480156106a257600080fd5b506103966106b13660046140ce565b6001600160a01b039182166000908152600f6020908152604080832093835292905220541690565b3480156106e557600080fd5b506007546001600160a01b0316610396565b34801561070357600080fd5b5061045d6107123660046142e5565b611616565b34801561072357600080fd5b5061045d610732366004614090565b611647565b34801561074357600080fd5b5061036961165e565b34801561075857600080fd5b50600954610396906001600160a01b031681565b34801561077857600080fd5b506103ce6107873660046145c5565b61166d565b34801561079857600080fd5b506103ce6107a736600461463d565b611720565b3480156107b857600080fd5b506107cc6107c73660046142e5565b61172f565b60405161034b93929190614676565b3480156107e757600080fd5b506103ce6107f6366004614236565b61198e565b34801561080757600080fd5b506103ce6108163660046140ce565b611bab565b34801561082757600080fd5b506103ce610836366004614748565b611bb6565b34801561084757600080fd5b50600654610396906001600160a01b031681565b34801561086757600080fd5b506103ce6108763660046147c7565b611be9565b34801561088757600080fd5b50610369610896366004614090565b611c6d565b3480156108a757600080fd5b5061045d6108b63660046140ce565b611e47565b3480156108c757600080fd5b506103ce6108d63660046145c5565b611e73565b3480156108e757600080fd5b506103ce6108f6366004614b25565b611f26565b34801561090757600080fd5b5061045d610916366004614236565b612224565b34801561092757600080fd5b50600b54610396906001600160a01b031681565b34801561094757600080fd5b5061045d610956366004614c5e565b61223c565b34801561096757600080fd5b506107cc610976366004614c93565b612271565b6103ce610989366004614cce565b612354565b34801561099a57600080fd5b506103ce6109a936600461413b565b61240b565b3480156109ba57600080fd5b506103696124ad565b3480156109cf57600080fd5b5061033f6109de366004614d09565b6001600160a01b03918216600090815260046020908152604080832093909416825291909152205460ff1690565b348015610a1857600080fd5b506103ce610a2736600461413b565b612523565b60006001600160e01b031982166306decc2d60e21b1480610a515750610a51826125a1565b92915050565b606060008054610a6690614d37565b80601f0160208091040260200160405190810160405280929190818152602001828054610a9290614d37565b8015610adf5780601f10610ab457610100808354040283529160200191610adf565b820191906000526020600020905b815481529060010190602001808311610ac257829003601f168201915b5050505050905090565b6000610af482612632565b506000908152600360205260409020546001600160a01b031690565b6000610b1b82611395565b9050806001600160a01b0316836001600160a01b031603610b4f5760405163133f8be960e01b815260040160405180910390fd5b336001600160a01b03821614801590610b6f5750610b6d81336109de565b155b15610b8d5760405163e5fa0e3560e01b815260040160405180910390fd5b610b978383612667565b505050565b610ba633826126d5565b610bc35760405163e5fa0e3560e01b815260040160405180910390fd5b610b97838383612753565b610bd661282c565b60095460405163036129cb60e61b81526001600160a01b0383811660048301529091169063d84a72c090602401600060405180830381600087803b158015610c1d57600080fd5b505af1158015610c31573d6000803e3d6000fd5b50506040513381526001600160a01b03841692507fe7784d93cfbfa4408e19577e6cc0436f4dbb51214b70e100905dfce9def88c1691506020015b60405180910390a250565b610c7f61282c565b82818015610d4f576009546040516320512ba160e01b81526001600160a01b03909116906320512ba190610cb99087908790600401614d6b565b600060405180830381600087803b158015610cd357600080fd5b505af1158015610ce7573d6000803e3d6000fd5b5050505060005b81811015610d4d57848482818110610d0857610d08614da4565b60405133815260209182029390930135927f832d89d991be5351d793c20faf4b7dd44f8aa9ce39e3cb160c6317de6fbba72992500160405180910390a2600101610cee565b505b8115610e525760095460405163229dad5f60e11b81526000916001600160a01b03169063453b5abe90610d88908a908a90600401614ef0565b6000604051808303816000875af1158015610da7573d6000803e3d6000fd5b505050506040513d6000823e601f3d908101601f19168201604052610dcf9190810190614f8e565b905060005b83811015610e4f57818181518110610dee57610dee614da4565b60200260200101517f8aa4a03deb8db10032373886aa0376c918ccf36bcdb59ca4da2a807ac7ff1a04898984818110610e2957610e29614da4565b90506101c0020133604051610e3f929190614fc2565b60405180910390a2600101610dd4565b50505b505050505050565b600954604051633a39e4d160e11b815230600482015260248101849052600091829182916001600160a01b031690637473c9a2906044016101c060405180830381865afa158015610eaf573d6000803e3d6000fd5b505050506040513d601f19601f82011682018060405250810190610ed39190615000565b600954815160405163792d5f6d60e11b815230600482015260248101919091529192506000916001600160a01b039091169063f25abeda90604401602060405180830381865afa158015610f2b573d6000803e3d6000fd5b505050506040513d601f19601f82011682018060405250810190610f4f91906150ca565b90506001600160a01b038116610f6d57600080935093505050610f86565b80610f7f8684610100015160c8612886565b9350935050505b9250929050565b8060005b81811015610fe0576000848483818110610fad57610fad614da4565b905060400201803603810190610fc391906150e7565b9050610fd78160000151826020015161198e565b50600101610f91565b50505050565b341515806110685750600654600554604051636e49181f60e01b815260048101919091523360248201526001600160a01b0390911690636e49181f90604401602060405180830381865afa158015611042573d6000803e3d6000fd5b505050506040513d601f19601f820116820180604052508101906110669190615135565b155b806110795750600554816020013514155b1561109757604051633efca5c360e11b815260040160405180910390fd5b60246110a76101c0830183615152565b905010806110eb575063b3bcbb7960e01b6110c66101c0830183615152565b6110d591602491602091615198565b6110de916151c2565b6001600160e01b03191614155b1561110957604051632a84050f60e01b815260040160405180910390fd5b60006111196101c0830183615152565b81019061112691906151f2565b925050506000815190506000805b828110156111b65783818151811061114e5761114e614da4565b6020026020010151915084600001602081019061116b919061413b565b6000838152600260205260409020546001600160a01b039081169116146111a55760405163075fd2b160e01b815260040160405180910390fd5b6111ae82612953565b600101611134565b50610fe0836129d4565b6111c861282c565b8060005b81811015610fe057368484838181106111e7576111e7614da4565b90506020028101906111f9919061524a565b9050611218611208828061526a565b61061a604085016020860161413b565b50506001016111cc565b610b9783838360405180602001604052806000815250611bb6565b61124561282c565b6009546040516324de8d6360e11b815260048101849052602481018390526001600160a01b03909116906349bd1ac690604401600060405180830381600087803b15801561129257600080fd5b505af11580156112a6573d6000803e3d6000fd5b5050604080518481523360208201528593507f677da4fed654db8e604791fa2582f342e2001aa217e27f6985eb3e0f67e5a7fc9250015b60405180910390a25050565b6009546040516308ed6c0160e41b81523060048201526024810183905260009182916001600160a01b0390911690638ed6c01090604401602060405180830381865afa15801561133d573d6000803e3d6000fd5b505050506040513d601f19601f8201168201806040525081019061136191906150ca565b90506001600160a01b038116156113785792915050565b50506000908152600260205260409020546001600160a01b031690565b6000818152600260205260408120546001600160a01b031680610a515760405163b49aa3b560e01b815260040160405180910390fd5b60606113d561282c565b60095460405163eaa19ab360e01b81526001600160a01b039091169063eaa19ab39061140e9060001990889088906001906004016152b3565b6000604051808303816000875af115801561142d573d6000803e3d6000fd5b505050506040513d6000823e601f3d908101601f191682016040526114559190810190615310565b509050826000805b828110156115075783818151811061147757611477614da4565b6020026020010151915061148b8583612a39565b846001600160a01b03168787838181106114a7576114a7614da4565b90506020020160208101906114bc9190615356565b604080516000815233602082015261ffff929092169185917f598baf7bf150ca2f42be9e9f8f55e81d45f5715c3ff22bf46d697fabec7f31d6910160405180910390a460010161145d565b5050509392505050565b600954604051633de222bb60e21b81523060048201526001600160a01b038381166024830152600092169063f7888aec906044015b602060405180830381865afa158015611563573d6000803e3d6000fd5b505050506040513d601f19601f82011682018060405250810190610a519190615371565b61158f61282c565b6115996000612b03565b565b60095460405163051330b560e21b81526000916001600160a01b03169063144cc2d4906115ce903090879060040161538a565b602060405180830381865afa1580156115eb573d6000803e3d6000fd5b505050506040513d601f19601f8201168201806040525081019061160f9190615371565b9392505050565b600954604051631572f24960e11b81523060048201526000916001600160a01b031690632ae5e49290602401611546565b6000818152601160205260408120610a5190612b55565b606060018054610a6690614d37565b61167561282c565b6009546040516331315e5960e11b81526001600160a01b0390911690636262bcb2906116a790859085906004016153ae565b600060405180830381600087803b1580156116c157600080fd5b505af11580156116d5573d6000803e3d6000fd5b5050505081816040516116e99291906153dd565b604051908190038120338252907f7bc9110d5de090dd59e07912d2b93a5a27ac70a60c8d8e324db4f9ee8b8b5c13906020016112dd565b61172b338383612bb1565b5050565b6000606080608084013515611757576040516309f82f1b60e31b815260040160405180910390fd5b60246117676101c0860186615152565b905010806117ab575063b3bcbb7960e01b6117866101c0860186615152565b61179591602491602091615198565b61179e916151c2565b6001600160e01b03191614155b156117c957604051632a84050f60e01b815260040160405180910390fd5b60408051600180825281830190925290816020015b60408051808201909152600080825260208201528152602001906001900390816117de5790505090506040518060400160405280306001600160a01b0316815260200160008152508160008151811061183957611839614da4565b602090810291909101015260006118546101c0860186615152565b81019061186191906151f2565b925050506000611871828761159b565b9050600061187e87611616565b905060006118918860c001358484612886565b9050612710886101800135036118fc57806118b06101a08a018a615152565b8782828080601f016020809104026020016040519081016040528093929190818152602001838380828437600092019190915250969d50919b5091995061198798505050505050505050565b6119328161191b856119156101808d0135612710615403565b86612886565b61192a906101808c0135615416565b612710612886565b6119406101a08a018a615152565b8782828080601f016020809104026020016040519081016040528093929190818152602001838380828437600092019190915250969d50919b509199505050505050505050505b9193909250565b600a546005546040516321d1336160e11b815260048101919091526000916001600160a01b0316906343a266c29060240161012060405180830381865afa1580156119dd573d6000803e3d6000fd5b505050506040513d601f19601f82011682018060405250810190611a019190615429565b61010081015190915060f51c600190811603611a3057604051631d2c125760e31b815260040160405180910390fd5b600954604051635d53f40760e11b815260048101859052602481018490526000916001600160a01b03169063baa7e80e906044016000604051808303816000875af1158015611a83573d6000803e3d6000fd5b505050506040513d6000823e601f3d908101601f19168201604052611aab9190810190614f8e565b6009546040516304db994760e21b8152306004820152602481018790529192506000916001600160a01b039091169063136e651c90604401602060405180830381865afa158015611b00573d6000803e3d6000fd5b505050506040513d601f19601f82011682018060405250810190611b2491906150ca565b90506000805b85811015611ba257838181518110611b4457611b44614da4565b60200260200101519150611b588383612a39565b6040513381526001600160a01b03841690889084907f031e1988c95a91ec4d655ff63a8f87a80bc9daf28d95ae10ee08c0022cfb5c8b9060200160405180910390a4600101611b2a565b50505050505050565b61172b338383612c50565b611bc033836126d5565b611bdd5760405163e5fa0e3560e01b815260040160405180910390fd5b610fe084848484612ccf565b8051604080518082019091526000808252602082015260005b82811015610fe057838181518110611c1c57611c1c614da4565b602090810291909101015180519092506001600160a01b0316611c52576040516314f4c13d60e21b815260040160405180910390fd5b611c653383600001518460200151612c50565b600101611c02565b600954604051630fab094760e01b81523060048201526060916000916001600160a01b0390911690630fab094790602401602060405180830381865afa158015611cbb573d6000803e3d6000fd5b505050506040513d601f19601f82011682018060405250810190611cdf91906150ca565b90506001600160a01b03811615611d5d57604051636d02a25560e11b8152600481018490526001600160a01b0382169063da0544aa90602401600060405180830381865afa158015611d35573d6000803e3d6000fd5b505050506040513d6000823e601f3d908101601f1916820160405261160f91908101906154a9565b60095460405163f682eeaf60e01b815230600482015261160f916001600160a01b03169063f682eeaf90602401600060405180830381865afa158015611da7573d6000803e3d6000fd5b505050506040513d6000823e601f3d908101601f19168201604052611dcf91908101906154a9565b600954604051630c8df17160e41b8152306004820152602481018790526001600160a01b039091169063c8df171090604401602060405180830381865afa158015611e1e573d6000803e3d6000fd5b505050506040513d601f19601f82011682018060405250810190611e429190615371565b612d03565b6001600160a01b0382166000908152601060209081526040808320848452909152812061160f90612b55565b611e7b61282c565b60095460405163d67b78fd60e01b81526001600160a01b039091169063d67b78fd90611ead90859085906004016153ae565b600060405180830381600087803b158015611ec757600080fd5b505af1158015611edb573d6000803e3d6000fd5b505050508181604051611eef9291906153dd565b604051908190038120338252907fd36dc0c1a06103fdcaf15f3f6fb797d1a97997514c78de073640c8b5005454b8906020016112dd565b6008546001600160a01b03163003611f3d57600080fd5b6009546001600160a01b031615611f5357600080fd5b611f5f8b8b8b8b612d6a565b600a80546001600160a01b03808a166001600160a01b031992831617909255600980548584169083161790556020850151600c556040850151600d556060850151600b8054919093169116179055855115612013576040516331315e5960e11b81526001600160a01b03831690636262bcb290611fe090899060040161407d565b600060405180830381600087803b158015611ffa57600080fd5b505af115801561200e573d6000803e3d6000fd5b505050505b8351156120795760405163d67b78fd60e01b81526001600160a01b0383169063d67b78fd9061204690879060040161407d565b600060405180830381600087803b15801561206057600080fd5b505af1158015612074573d6000803e3d6000fd5b505050505b6001600160a01b038516156120e45760405163036129cb60e61b81526001600160a01b03868116600483015283169063d84a72c090602401600060405180830381600087803b1580156120cb57600080fd5b505af11580156120df573d6000803e3d6000fd5b505050505b8251511561216257825160405163229dad5f60e11b81526001600160a01b0384169163453b5abe916121199190600401615516565b6000604051808303816000875af1158015612138573d6000803e3d6000fd5b505050506040513d6000823e601f3d908101601f191682016040526121609190810190614f8e565b505b805180612170575080602001515b8061217c575080604001515b80612188575080606001515b1561220e57604080516365c13f1960e11b815282511515600482015260208301511515602482015290820151151560448201526060820151151560648201526001600160a01b0383169063cb827e3290608401600060405180830381600087803b1580156121f557600080fd5b505af1158015612209573d6000803e3d6000fd5b505050505b61221733612b03565b5050505050505050505050565b600082815260116020526040812061160f9083612d9d565b6001600160a01b038316600090815260106020908152604080832085845290915281206122699083612d9d565b949350505050565b610120810135606080612288610160850185615152565b8080601f016020809104026020016040519081016040528093929190818152602001838380828437600092019190915250929450600192506122c8915050565b60405190808252806020026020018201604052801561230d57816020015b60408051808201909152600080825260208201528152602001906001900390816122e65790505b5090506040518060400160405280306001600160a01b0316815260200160008152508160008151811061234257612342614da4565b60200260200101819052509193909250565b600554341515806123d55750600654604051636e49181f60e01b8152600481018390523360248201526001600160a01b0390911690636e49181f90604401602060405180830381865afa1580156123af573d6000803e3d6000fd5b505050506040513d601f19601f820116820180604052508101906123d39190615135565b155b806123e4575080826020013514155b15612402576040516331c57b1b60e21b815260040160405180910390fd5b61172b82612eac565b61241361282c565b6009546040516317161f7d60e01b81526001600160a01b038381166004830152909116906317161f7d90602401600060405180830381600087803b15801561245a57600080fd5b505af115801561246e573d6000803e3d6000fd5b50506040513381526001600160a01b03841692507fab0014d4c7a642a02a31b303a318908c22b0fb2001f107278fc6076b4c671b659150602001610c6c565b600954604051630155619b60e71b81523060048201526060916001600160a01b03169063aab0cd8090602401600060405180830381865afa1580156124f6573d6000803e3d6000fd5b505050506040513d6000823e601f3d908101601f1916820160405261251e91908101906154a9565b905090565b61252b61282c565b6001600160a01b0381166125955760405162461bcd60e51b815260206004820152602660248201527f4f776e61626c653a206e6577206f776e657220697320746865207a65726f206160448201526564647265737360d01b60648201526084015b60405180910390fd5b61259e81612b03565b50565b60006001600160e01b0319821663b3bcbb7960e01b14806125d257506001600160e01b031982166371700c6960e01b145b806125ed57506001600160e01b0319821663da9ee8b760e01b145b8061260857506001600160e01b03198216632b13c58f60e01b145b8061262357506001600160e01b0319821663152a902d60e11b145b80610a515750610a51826131bf565b6000818152600260205260409020546001600160a01b031661259e5760405163b49aa3b560e01b815260040160405180910390fd5b600081815260036020526040902080546001600160a01b0319166001600160a01b038416908117909155819061269c82611395565b6001600160a01b03167f8c5be1e5ebec7d5bd14f71427d1e84f3dd0314c0f7b2291e5b200ac8c7c3b92560405160405180910390a45050565b6000806126e183611395565b9050806001600160a01b0316846001600160a01b0316148061272857506001600160a01b0380821660009081526004602090815260408083209388168352929052205460ff165b806122695750836001600160a01b031661274184610ae9565b6001600160a01b031614949350505050565b826001600160a01b031661276682611395565b6001600160a01b03161461278d5760405163a195bc5360e01b815260040160405180910390fd5b6001600160a01b0382166127b457604051632c95542760e01b815260040160405180910390fd5b6127bf83838361320f565b6127ca600082612667565b60008181526002602052604080822080546001600160a01b0319166001600160a01b0386811691821790925591518493918716917fddf252ad1be2c89b69c2b068fc378daa952ba7f163c4a11628f55a4df523b3ef91a4610b9783838361343c565b6007546001600160a01b031633146115995760405162461bcd60e51b815260206004820181905260248201527f4f776e61626c653a2063616c6c6572206973206e6f7420746865206f776e6572604482015260640161258c565b60008080600019858709858702925082811083820303915050806000036128c0578382816128b6576128b6615633565b049250505061160f565b8381106128ea57604051631dcf306360e21b8152600481018290526024810185905260440161258c565b60008486880960026001871981018816978890046003810283188082028403028082028403028082028403028082028403028082028403029081029092039091026000889003889004909101858311909403939093029303949094049190911702949350505050565b600061295e82611395565b905061296c8160008461320f565b612977600083612667565b60008281526002602052604080822080546001600160a01b0319169055518391906001600160a01b038416907fddf252ad1be2c89b69c2b068fc378daa952ba7f163c4a11628f55a4df523b3ef908390a461172b8160008461343c565b6009546040516386bc2be360e01b81526001600160a01b03909116906386bc2be390612a049084906004016143eb565b600060405180830381600087803b158015612a1e57600080fd5b505af1158015612a32573d6000803e3d6000fd5b5050505050565b6001600160a01b038216612a6057604051633904578f60e11b815260040160405180910390fd5b6000818152600260205260409020546001600160a01b031615612a9657604051632eb5f0c360e21b815260040160405180910390fd5b612aa26000838361320f565b60008181526002602052604080822080546001600160a01b0319166001600160a01b03861690811790915590518392907fddf252ad1be2c89b69c2b068fc378daa952ba7f163c4a11628f55a4df523b3ef908290a461172b6000838361343c565b600780546001600160a01b038381166001600160a01b0319831681179093556040519116919082907f8be0079c531659141344cd1fd0a4f28419497f9722a3daafe3b4186f6b6457e090600090a35050565b80546000908015612b9e5782612b6c600183615403565b81548110612b7c57612b7c614da4565b60009182526020909120015464010000000090046001600160e01b0316612ba1565b60005b6001600160e01b03169392505050565b816001600160a01b0316836001600160a01b031603612be3576040516306f8139d60e11b815260040160405180910390fd5b6001600160a01b03838116600081815260046020908152604080832094871680845294825291829020805460ff191686151590811790915591519182527f17307eab39ab6107e8899845ad3d59bd9653f200f220920489ca2b5937696c31910160405180910390a3505050565b6001600160a01b038381166000818152600f6020908152604080832086845290915280822080548786166001600160a01b0319821681179092559151919094169392849290917f3134e8a2e6d97e929a7e54011ea5485d7d196dd5f0ba4d4ef95803e8e3fc257f9190a4610fe0818484612cca8887613535565b613575565b612cda848484612753565b612ce6848484846136ca565b610fe0576040516336f57c1b60e11b815260040160405180910390fd5b604051609160f51b60208201526022810182905260609060009060420160405160208183030381529060405290506000612d3c826137cc565b90508481604051602001612d51929190615649565b6040516020818303038152906040529250505092915050565b612d748282613964565b5050600591909155600680546001600160a01b0319166001600160a01b03909216919091179055565b6000438210612dee5760405162461bcd60e51b815260206004820181905260248201527f436865636b706f696e74733a20626c6f636b206e6f7420796574206d696e6564604482015260640161258c565b825460005b81811015612e53576000612e07828461397d565b905084866000018281548110612e1f57612e1f614da4565b60009182526020909120015463ffffffff161115612e3f57809250612e4d565b612e4a816001615416565b91505b50612df3565b8115612e975784612e65600184615403565b81548110612e7557612e75614da4565b60009182526020909120015464010000000090046001600160e01b0316612e9a565b60005b6001600160e01b031695945050505050565b600c5460009060c083013503612ec757506080810135612f7d565b600b546001600160a01b03161561172b57600d54612f7a90608084013590612ef090600a61575c565b600b54600c54604051635268657960e11b815260c08801356004820152602481019190915260a087013560448201526001600160a01b039091169063a4d0caf290606401602060405180830381865afa158015612f51573d6000803e3d6000fd5b505050506040513d601f19601f82011682018060405250810190612f759190615371565b612886565b90505b6000600e81612f946101a08601610180870161413b565b6001600160a01b03168152602081019190915260400160009081205491508290612fc66101a08601610180870161413b565b6001600160a01b0316612fdc602087018761413b565b6001600160a01b031603612ff35790820190612ff6565b50815b600060446130086101e0880188615152565b905011801561304c575063b3bcbb7960e01b6130286101e0880188615152565b61303791604491604091615198565b613040916151c2565b6001600160e01b031916145b156131235760606130616101e0880188615152565b81019061306e9190615768565b909550935084925050811590506130f15750600954604051634228826f60e11b81523060048201526001600160a01b039091169063845104de90602401608060405180830381865afa1580156130c8573d6000803e3d6000fd5b505050506040513d601f19601f820116820180604052508101906130ec919061583a565b606001515b156130fb57600091505b8051156131215761311e84826131196101a08b016101808c0161413b565b613998565b93505b505b821561317f578061314757604051631b57826960e21b815260040160405180910390fd5b828201600e60006131606101a08a016101808b0161413b565b6001600160a01b03168152602081019190915260400160002055610e52565b818414610e525781600e600061319d6101a08a016101808b0161413b565b6001600160a01b03168152602081019190915260400160002055505050505050565b60006001600160e01b031982166380ac58cd60e01b14806131f057506001600160e01b03198216635b5e139f60e01b145b80610a5157506301ffc9a760e01b6001600160e01b0319831614610a51565b6001600160a01b03831615610b975760095460405163b67cb04760e01b8152306004820152602481018390526000916001600160a01b03169063b67cb047906044016101c060405180830381865afa15801561326f573d6000803e3d6000fd5b505050506040513d601f19601f820116820180604052508101906132939190615000565b9050806101a001511561335857600a546005546040516321d1336160e11b815260048101919091526000916001600160a01b0316906343a266c29060240161012060405180830381865afa1580156132ef573d6000803e3d6000fd5b505050506040513d601f19601f820116820180604052508101906133139190615429565b90506001600160a01b03841615801590613338575061010081015160f41c6001908116145b15613356576040516318cdaf9760e01b815260040160405180910390fd5b505b6009546040516308ed6c0160e41b8152306004820152602481018490526000916001600160a01b031690638ed6c01090604401602060405180830381865afa1580156133a8573d6000803e3d6000fd5b505050506040513d601f19601f820116820180604052508101906133cc91906150ca565b6001600160a01b031603610fe057600954604051638cec7d3960e01b8152600481018490526001600160a01b03868116602483015290911690638cec7d3990604401600060405180830381600087803b15801561342857600080fd5b505af1158015610e4f573d6000803e3d6000fd5b60095460405163b67cb04760e01b8152306004820152602481018390526000916001600160a01b03169063b67cb047906044016101c060405180830381865afa15801561348d573d6000803e3d6000fd5b505050506040513d601f19601f820116820180604052508101906134b19190615000565b60095481516040516330b157e560e21b815260048101919091526001600160a01b038781166024830152868116604483015292935091169063c2c55f9490606401600060405180830381600087803b15801561350c57600080fd5b505af1158015613520573d6000803e3d6000fd5b5050505061353084848484613ada565b610fe0565b6009546040516305c9a1d560e31b81523060048201526001600160a01b038481166024830152604482018490526000921690632e4d0ea8906064016115ce565b826001600160a01b0316846001600160a01b03161480613593575080155b610fe0576001600160a01b0384161561362e576001600160a01b0384166000908152601060209081526040808320858452909152812081906135d890613af885613b04565b60408051838152602081018390523381830152905192945090925085916001600160a01b038916917fed0c1e94c302bdbbd8bbd6a4fb7c3ed335c2292407cd816eadd075d019d0ce04919081900360600190a350505b6001600160a01b03831615610fe0576001600160a01b03831660009081526010602090815260408083208584529091528120819061366f90613b3285613b04565b60408051838152602081018390523381830152905192945090925085916001600160a01b038816917fed0c1e94c302bdbbd8bbd6a4fb7c3ed335c2292407cd816eadd075d019d0ce04919081900360600190a3505050505050565b60006001600160a01b0384163b156137c157604051630a85bd0160e11b81526001600160a01b0385169063150b7a029061370e9033908990889088906004016158be565b6020604051808303816000875af1925050508015613749575060408051601f3d908101601f19168201909252613746918101906158fb565b60015b6137a7573d808015613777576040519150601f19603f3d011682016040523d82523d6000602084013e61377c565b606091505b50805160000361379f576040516336f57c1b60e11b815260040160405180910390fd5b805181602001fd5b6001600160e01b031916630a85bd0160e11b149050612269565b506001949350505050565b606081516000036137eb57505060408051600081526020810190915290565b60408051602e8082526105e08201909252600091602082016105c08036833701905050905060008160008151811061382557613825614da4565b60ff90921660209283029190910190910152825160019060005b8181101561394057600086828151811061385b5761385b614da4565b016020015160f81c905060005b8460ff168110156138e557600886828151811061388757613887614da4565b602002602001015160ff16901b8261389f9190615416565b91506138ac603a83615918565b8682815181106138be576138be614da4565b60ff909216602092830291909101909101526138db603a8361592c565b9150600101613868565b505b8015613937576138f8603a82615918565b858560ff168151811061390d5761390d614da4565b60ff90921660209283029190910190910152600190930192613930603a8261592c565b90506138e7565b5060010161383f565b5061395b6139566139518585613b3e565b613be5565b613c87565b95945050505050565b60006139708382615986565b506001610b978282615986565b600061398c600284841861592c565b61160f90848416615416565b60095460405163eaa19ab360e01b81526000916060916001600160a01b039091169063eaa19ab3906139d290889088908790600401615a45565b6000604051808303816000875af11580156139f1573d6000803e3d6000fd5b505050506040513d6000823e601f3d908101601f19168201604052613a199190810190615310565b81519093509091506000805b82811015613acf57838181518110613a3f57613a3f614da4565b60200260200101519150613a538683612a39565b856001600160a01b0316878281518110613a6f57613a6f614da4565b602002602001015161ffff16837f598baf7bf150ca2f42be9e9f8f55e81d45f5715c3ff22bf46d697fabec7f31d68b33604051613abf9291909182526001600160a01b0316602082015260400190565b60405180910390a4600101613a25565b505050509392505050565b60a081015115610fe057610fe0848483600001518460a00151613d60565b600061160f8284615403565b600080613b2685613b21613b1788612b55565b868863ffffffff16565b613e02565b91509150935093915050565b600061160f8284615416565b606060008260ff166001600160401b03811115613b5d57613b5d6143fe565b604051908082528060200260200182016040528015613b86578160200160208202803683370190505b50905060005b8360ff16811015613bdd57848181518110613ba957613ba9614da4565b6020026020010151828281518110613bc357613bc3614da4565b60ff90921660209283029190910190910152600101613b8c565b509392505050565b80516060906000816001600160401b03811115613c0457613c046143fe565b604051908082528060200260200182016040528015613c2d578160200160208202803683370190505b50905060005b82811015613bdd57848160018751030381518110613c5357613c53614da4565b6020026020010151828281518110613c6d57613c6d614da4565b60ff90921660209283029190910190910152600101613c33565b80516060906000816001600160401b03811115613ca657613ca66143fe565b6040519080825280601f01601f191660200182016040528015613cd0576020820181803683370190505b50905060005b82811015613bdd576040518060600160405280603a8152602001615aa3603a9139858281518110613d0957613d09614da4565b602002602001015160ff1681518110613d2457613d24614da4565b602001015160f81c60f81b828281518110613d4157613d41614da4565b60200101906001600160f81b031916908160001a905350600101613cd6565b6001600160a01b038416613d8c576000828152601160205260409020613d8990613b3283613b04565b50505b6001600160a01b038316613db8576000828152601160205260409020613db590613af883613b04565b50505b6001600160a01b038085166000908152600f60208181526040808420878552825280842054888616855292825280842087855290915290912054610fe09291821691168484613575565b8154600090819081613e1386612b55565b9050600082118015613e5157504386613e2d600185615403565b81548110613e3d57613e3d614da4565b60009182526020909120015463ffffffff16145b15613eb157613e5f85613f28565b86613e6b600185615403565b81548110613e7b57613e7b614da4565b9060005260206000200160000160046101000a8154816001600160e01b0302191690836001600160e01b03160217905550613f1f565b856000016040518060400160405280613ec943613f95565b63ffffffff168152602001613edd88613f28565b6001600160e01b0390811690915282546001810184556000938452602093849020835194909301519091166401000000000263ffffffff909316929092179101555b95939450505050565b60006001600160e01b03821115613f915760405162461bcd60e51b815260206004820152602760248201527f53616665436173743a2076616c756520646f65736e27742066697420696e20326044820152663234206269747360c81b606482015260840161258c565b5090565b600063ffffffff821115613f915760405162461bcd60e51b815260206004820152602660248201527f53616665436173743a2076616c756520646f65736e27742066697420696e203360448201526532206269747360d01b606482015260840161258c565b6001600160e01b03198116811461259e57600080fd5b60006020828403121561402257600080fd5b813561160f81613ffa565b60005b83811015614048578181015183820152602001614030565b50506000910152565b6000815180845261406981602086016020860161402d565b601f01601f19169290920160200192915050565b60208152600061160f6020830184614051565b6000602082840312156140a257600080fd5b5035919050565b6001600160a01b038116811461259e57600080fd5b80356140c9816140a9565b919050565b600080604083850312156140e157600080fd5b82356140ec816140a9565b946020939093013593505050565b60008060006060848603121561410f57600080fd5b833561411a816140a9565b9250602084013561412a816140a9565b929592945050506040919091013590565b60006020828403121561414d57600080fd5b813561160f816140a9565b60008083601f84011261416a57600080fd5b5081356001600160401b0381111561418157600080fd5b6020830191508360208260051b8501011115610f8657600080fd5b600080600080604085870312156141b257600080fd5b84356001600160401b03808211156141c957600080fd5b818701915087601f8301126141dd57600080fd5b8135818111156141ec57600080fd5b8860206101c08302850101111561420257600080fd5b60209283019650945090860135908082111561421d57600080fd5b5061422a87828801614158565b95989497509550505050565b6000806040838503121561424957600080fd5b50508035926020909101359150565b6000806020838503121561426b57600080fd5b82356001600160401b038082111561428257600080fd5b818501915085601f83011261429657600080fd5b8135818111156142a557600080fd5b8660208260061b85010111156142ba57600080fd5b60209290920196919550909350505050565b60006101e082840312156142df57600080fd5b50919050565b6000602082840312156142f757600080fd5b81356001600160401b0381111561430d57600080fd5b612269848285016142cc565b6000806020838503121561432c57600080fd5b82356001600160401b0381111561434257600080fd5b61434e85828601614158565b90969095509350505050565b60008060006040848603121561436f57600080fd5b83356001600160401b0381111561438557600080fd5b61439186828701614158565b90945092505060208401356143a5816140a9565b809150509250925092565b600081518084526020808501945080840160005b838110156143e0578151875295820195908201906001016143c4565b509495945050505050565b60208152600061160f60208301846143b0565b634e487b7160e01b600052604160045260246000fd5b604080519081016001600160401b0381118282101715614436576144366143fe565b60405290565b604051608081016001600160401b0381118282101715614436576144366143fe565b6040516101c081016001600160401b0381118282101715614436576144366143fe565b60405161012081016001600160401b0381118282101715614436576144366143fe565b604051601f8201601f191681016001600160401b03811182821017156144cc576144cc6143fe565b604052919050565b60006001600160401b038211156144ed576144ed6143fe565b5060051b60200190565b600082601f83011261450857600080fd5b8135602061451d614518836144d4565b6144a4565b82815260059290921b8401810191818101908684111561453c57600080fd5b8286015b848110156145575780358352918301918301614540565b509695505050505050565b6000806040838503121561457557600080fd5b82356001600160401b038082111561458c57600080fd5b614598868387016144f7565b935060208501359150808211156145ae57600080fd5b506145bb858286016142cc565b9150509250929050565b600080602083850312156145d857600080fd5b82356001600160401b03808211156145ef57600080fd5b818501915085601f83011261460357600080fd5b81358181111561461257600080fd5b8660208285010111156142ba57600080fd5b801515811461259e57600080fd5b80356140c981614624565b6000806040838503121561465057600080fd5b823561465b816140a9565b9150602083013561466b81614624565b809150509250929050565b838152600060206060818401526146906060840186614051565b83810360408581019190915285518083528387019284019060005b818110156146d957845180516001600160a01b031684528601518684015293850193918301916001016146ab565b50909998505050505050505050565b60006001600160401b03821115614701576147016143fe565b50601f01601f191660200190565b600061471d614518846146e8565b905082815283838301111561473157600080fd5b828260208301376000602084830101529392505050565b6000806000806080858703121561475e57600080fd5b8435614769816140a9565b93506020850135614779816140a9565b92506040850135915060608501356001600160401b0381111561479b57600080fd5b8501601f810187136147ac57600080fd5b6147bb8782356020840161470f565b91505092959194509250565b600060208083850312156147da57600080fd5b82356001600160401b038111156147f057600080fd5b8301601f8101851361480157600080fd5b803561480f614518826144d4565b81815260069190911b8201830190838101908783111561482e57600080fd5b928401925b8284101561487a576040848903121561484c5760008081fd5b614854614414565b843561485f816140a9565b81528486013586820152825260409093019290840190614833565b979650505050505050565b600082601f83011261489657600080fd5b61160f8383356020850161470f565b803569ffffffffffffffffffff811681146140c957600080fd5b803565ffffffffffff811681146140c957600080fd5b803564ffffffffff811681146140c957600080fd5b803561ffff811681146140c957600080fd5b803560ff811681146140c957600080fd5b6000608080838503121561492057600080fd5b61492861443c565b915082356001600160401b0381111561494057600080fd5b8301601f8101851361495157600080fd5b80356020614961614518836144d4565b8281526101c0928302840182019282820191908985111561498157600080fd5b948301945b84861015614a985780868b03121561499e5760008081fd5b6149a661445e565b6149af876148a5565b81526149bc8588016148bf565b8582015260406149cd8189016148d5565b9082015260606149de8882016148ea565b908201526149ed8789016148ea565b8882015260a06149fe8189016140be565b9082015260c0614a0f8882016148fc565b9082015260e0614a208882016140be565b908201526101008781013590820152610120614a3d8189016148fc565b90820152610140614a4f888201614632565b90820152610160614a61888201614632565b90820152610180614a73888201614632565b908201526101a0614a85888201614632565b9082015283529485019491830191614986565b50865250858101359085015250505060408083013590820152614abd606083016140be565b606082015292915050565b600060808284031215614ada57600080fd5b614ae261443c565b90508135614aef81614624565b81526020820135614aff81614624565b60208201526040820135614b1281614624565b60408201526060820135614abd81614624565b60008060008060008060008060008060006101c08c8e031215614b4757600080fd5b8b359a50614b5760208d016140be565b99506001600160401b038060408e01351115614b7257600080fd5b614b828e60408f01358f01614885565b99508060608e01351115614b9557600080fd5b614ba58e60608f01358f01614885565b9850614bb360808e016140be565b97508060a08e01351115614bc657600080fd5b614bd68e60a08f01358f01614885565b9650614be460c08e016140be565b95508060e08e01351115614bf757600080fd5b614c078e60e08f01358f01614885565b9450806101008e01351115614c1b57600080fd5b50614c2d8d6101008e01358e0161490d565b9250614c3c6101208d016140be565b9150614c4c8d6101408e01614ac8565b90509295989b509295989b9093969950565b600080600060608486031215614c7357600080fd5b8335614c7e816140a9565b95602085013595506040909401359392505050565b600060208284031215614ca557600080fd5b81356001600160401b03811115614cbb57600080fd5b82016101a0818503121561160f57600080fd5b600060208284031215614ce057600080fd5b81356001600160401b03811115614cf657600080fd5b8201610200818503121561160f57600080fd5b60008060408385031215614d1c57600080fd5b8235614d27816140a9565b9150602083013561466b816140a9565b600181811c90821680614d4b57607f821691505b6020821081036142df57634e487b7160e01b600052602260045260246000fd5b6020808252810182905260006001600160fb1b03831115614d8b57600080fd5b8260051b80856040850137919091016040019392505050565b634e487b7160e01b600052603260045260246000fd5b614dd782614dc7836148a5565b69ffffffffffffffffffff169052565b614de3602082016148bf565b65ffffffffffff166020830152614dfc604082016148d5565b64ffffffffff166040830152614e14606082016148ea565b61ffff166060830152614e29608082016148ea565b61ffff166080830152614e3e60a082016140be565b6001600160a01b031660a0830152614e5860c082016148fc565b60ff1660c0830152614e6c60e082016140be565b6001600160a01b031660e08301526101008181013590830152610120614e938183016148fc565b60ff1690830152610140614ea8828201614632565b151590830152610160614ebc828201614632565b151590830152610180614ed0828201614632565b1515908301526101a0614ee4828201614632565b80151584830152610fe0565b6020808252810182905260008360408301825b85811015614f2957614f158284614dba565b6101c0928301929190910190600101614f03565b5095945050505050565b600082601f830112614f4457600080fd5b81516020614f54614518836144d4565b82815260059290921b84018101918181019086841115614f7357600080fd5b8286015b848110156145575780518352918301918301614f77565b600060208284031215614fa057600080fd5b81516001600160401b03811115614fb657600080fd5b61226984828501614f33565b6101e08101614fd18285614dba565b6001600160a01b03929092166101c09190910152919050565b80516140c9816140a9565b80516140c981614624565b60006101c0828403121561501357600080fd5b61501b61445e565b825181526020830151602082015260408301516040820152606083015160608201526080830151608082015260a083015160a082015260c083015160c082015261506760e08401614fea565b60e08201526101008381015190820152610120615085818501614fea565b90820152610140838101519082015261016080840151908201526101806150ad818501614ff5565b908201526101a06150bf848201614ff5565b908201529392505050565b6000602082840312156150dc57600080fd5b815161160f816140a9565b6000604082840312156150f957600080fd5b604051604081018181106001600160401b038211171561511b5761511b6143fe565b604052823581526020928301359281019290925250919050565b60006020828403121561514757600080fd5b815161160f81614624565b6000808335601e1984360301811261516957600080fd5b8301803591506001600160401b0382111561518357600080fd5b602001915036819003821315610f8657600080fd5b600080858511156151a857600080fd5b838611156151b557600080fd5b5050820193919092039150565b6001600160e01b031981358181169160048510156151ea5780818660040360031b1b83161692505b505092915050565b60008060006060848603121561520757600080fd5b83359250602084013561521981613ffa565b915060408401356001600160401b0381111561523457600080fd5b615240868287016144f7565b9150509250925092565b60008235603e1983360301811261526057600080fd5b9190910192915050565b6000808335601e1984360301811261528157600080fd5b8301803591506001600160401b0382111561529b57600080fd5b6020019150600581901b3603821315610f8657600080fd5b84815260606020808301829052908201849052600090859060808401835b878110156152f85761ffff6152e5856148ea565b16825292820192908201906001016152d1565b50809350505050821515604083015295945050505050565b6000806040838503121561532357600080fd5b82516001600160401b0381111561533957600080fd5b61534585828601614f33565b925050602083015190509250929050565b60006020828403121561536857600080fd5b61160f826148ea565b60006020828403121561538357600080fd5b5051919050565b6001600160a01b0383168152604060208201819052600090612269908301846143b0565b60208152816020820152818360408301376000818301604090810191909152601f909201601f19160101919050565b8183823760009101908152919050565b634e487b7160e01b600052601160045260246000fd5b81810381811115610a5157610a516153ed565b80820180821115610a5157610a516153ed565b6000610120828403121561543c57600080fd5b615444614481565b825181526020830151602082015260408301516040820152606083015160608201526080830151608082015260a083015160a082015260c083015160c082015261549060e08401614fea565b60e0820152610100928301519281019290925250919050565b6000602082840312156154bb57600080fd5b81516001600160401b038111156154d157600080fd5b8201601f810184136154e257600080fd5b80516154f0614518826146e8565b81815285602083850101111561550557600080fd5b61395b82602083016020860161402d565b602080825282518282018190526000919060409081850190868401855b82811015615626578151805169ffffffffffffffffffff1685528681015165ffffffffffff16878601528581015164ffffffffff168686015260608082015161ffff908116918701919091526080808301519091169086015260a0808201516001600160a01b039081169187019190915260c08083015160ff9081169188019190915260e08084015190921691870191909152610100808301519087015261012080830151909116908601526101408082015115159086015261016080820151151590860152610180808201511515908601526101a0908101511515908501526101c09093019290850190600101615533565b5091979650505050505050565b634e487b7160e01b600052601260045260246000fd5b6000835161565b81846020880161402d565b83519083019061566f81836020880161402d565b01949350505050565b600181815b808511156156b3578160001904821115615699576156996153ed565b808516156156a657918102915b93841c939080029061567d565b509250929050565b6000826156ca57506001610a51565b816156d757506000610a51565b81600181146156ed57600281146156f757615713565b6001915050610a51565b60ff841115615708576157086153ed565b50506001821b610a51565b5060208310610133831016604e8410600b8410161715615736575081810a610a51565b6157408383615678565b8060001904821115615754576157546153ed565b029392505050565b600061160f83836156bb565b600080600080600060a0868803121561578057600080fd5b853594506020808701359450604087013561579a81613ffa565b935060608701356157aa81614624565b925060808701356001600160401b038111156157c557600080fd5b8701601f810189136157d657600080fd5b80356157e4614518826144d4565b81815260059190911b8201830190838101908b83111561580357600080fd5b928401925b8284101561582857615819846148ea565b82529284019290840190615808565b80955050505050509295509295909350565b60006080828403121561584c57600080fd5b604051608081018181106001600160401b038211171561586e5761586e6143fe565b604052825161587c81614624565b8152602083015161588c81614624565b6020820152604083015161589f81614624565b604082015260608301516158b281614624565b60608201529392505050565b6001600160a01b03858116825284166020820152604081018390526080606082018190526000906158f190830184614051565b9695505050505050565b60006020828403121561590d57600080fd5b815161160f81613ffa565b60008261592757615927615633565b500690565b60008261593b5761593b615633565b500490565b601f821115610b9757600081815260208120601f850160051c810160208610156159675750805b601f850160051c820191505b81811015610e5257828155600101615973565b81516001600160401b0381111561599f5761599f6143fe565b6159b3816159ad8454614d37565b84615940565b602080601f8311600181146159e857600084156159d05750858301515b600019600386901b1c1916600185901b178555610e52565b600085815260208120601f198616915b82811015615a17578886015182559484019460019091019084016159f8565b5085821015615a355787850151600019600388901b60f8161c191681555b5050505050600190811b01905550565b6000606082018583526020606081850152818651808452608086019150828801935060005b81811015615a8a57845161ffff1683529383019391830191600101615a6a565b5050809350505050821515604083015294935050505056fe31323334353637383941424344454647484a4b4c4d4e505152535455565758595a6162636465666768696a6b6d6e6f707172737475767778797aa2646970667358221220d949a256ef02e87704e49fbb7c4b67f680359ba3542cd07f4a0eb598b316235264736f6c63430008110033",
    "linkReferences": {}
  },
  "methodIdentifiers": {
    "MAX_ROYALTY_RATE()": "79a75319",
    "adjustTiers((uint80,uint48,uint40,uint16,uint16,address,uint8,address,bytes32,uint8,bool,bool,bool,bool)[],uint256[])": "25eb91ee",
    "approve(address,uint256)": "095ea7b3",
    "balanceOf(address)": "70a08231",
    "codeOrigin()": "1d153ca4",
    "contractURI()": "e8a3d485",
    "creditsOf(address)": "245a45b5",
    "didPay((address,uint256,uint256,(address,uint256,uint256,uint256),(address,uint256,uint256,uint256),uint256,address,bool,string,bytes))": "da9ee8b7",
    "didRedeem((address,uint256,uint256,uint256,(address,uint256,uint256,uint256),(address,uint256,uint256,uint256),address,string,bytes))": "2b13c58f",
    "directory()": "c41c2f24",
    "firstOwnerOf(uint256)": "54c6d1f5",
    "fundingCycleStore()": "557e7155",
    "getApproved(uint256)": "081812fc",
    "getPastTierTotalVotes(uint256,uint256)": "d31cc52c",
    "getPastTierVotes(address,uint256,uint256)": "d40e7146",
    "getTierDelegate(address,uint256)": "82732b6d",
    "getTierTotalVotes(uint256)": "94c5c5ca",
    "getTierVotes(address,uint256)": "ca323efe",
    "initialize(uint256,address,string,string,address,string,address,string,((uint80,uint48,uint40,uint16,uint16,address,uint8,address,bytes32,uint8,bool,bool,bool,bool)[],uint256,uint256,address),address,(bool,bool,bool,bool))": "d1704baf",
    "isApprovedForAll(address,address)": "e985e9c5",
    "mintFor((uint16[],address)[])": "36c1a93b",
    "mintFor(uint16[],address)": "6ac6d941",
    "mintReservesFor((uint256,uint256)[])": "2a596e53",
    "mintReservesFor(uint256,uint256)": "aa4fb15b",
    "name()": "06fdde03",
    "owner()": "8da5cb5b",
    "ownerOf(uint256)": "6352211e",
    "payParams((address,address,(address,uint256,uint256,uint256),uint256,uint256,address,uint256,uint256,string,bytes))": "d46cf171",
    "prices()": "d3419bf3",
    "pricingCurrency()": "64640c1e",
    "pricingDecimals()": "4ecba625",
    "projectId()": "3fafa127",
    "redeemParams((address,address,uint256,uint256,uint256,uint256,uint256,(address,uint256,uint256,uint256),bool,uint256,string,bytes))": "a51cfd18",
    "redemptionWeightOf(uint256[],(address,address,uint256,uint256,uint256,uint256,uint256,(address,uint256,uint256,uint256),bool,uint256,string,bytes))": "7ba62bf9",
    "renounceOwnership()": "715018a6",
    "royaltyInfo(uint256,uint256)": "2a55205a",
    "safeTransferFrom(address,address,uint256)": "42842e0e",
    "safeTransferFrom(address,address,uint256,bytes)": "b88d4fde",
    "setApprovalForAll(address,bool)": "a22cb465",
    "setBaseUri(string)": "a0bcfc7f",
    "setContractUri(string)": "ccb4807b",
    "setDefaultReservedTokenBeneficiary(address)": "df487e26",
    "setEncodedIPFSUriOf(uint256,bytes32)": "525350ba",
    "setTierDelegate(address,uint256)": "ab951e39",
    "setTierDelegates((address,uint256)[])": "c74b13d9",
    "setTokenUriResolver(address)": "2407497e",
    "store()": "975057e7",
    "supportsInterface(bytes4)": "01ffc9a7",
    "symbol()": "95d89b41",
    "tokenURI(uint256)": "c87b56dd",
    "totalRedemptionWeight((address,address,uint256,uint256,uint256,uint256,uint256,(address,uint256,uint256,uint256),bool,uint256,string,bytes))": "9494bf72",
    "transferFrom(address,address,uint256)": "23b872dd",
    "transferOwnership(address)": "f2fde38b"
  },
  "id": 1
}