{
  "abi": [
    {
      "inputs": [
        {
          "internalType": "contract IJBProjects",
          "name": "_projects",
          "type": "address"
        },
        {
          "internalType": "contract IJBOperatorStore",
          "name": "_operatorStore",
          "type": "address"
        }
      ],
      "stateMutability": "nonpayable",
      "type": "constructor"
    },
    {
      "inputs": [],
      "name": "ALEADY_MINTED",
      "type": "error"
    },
    {
      "inputs": [],
      "name": "APPROVAL_TO_CURRENT_OWNER",
      "type": "error"
    },
    {
      "inputs": [],
      "name": "APPROVE_TO_CALLER",
      "type": "error"
    },
    {
      "inputs": [],
      "name": "BLOCK_NOT_YET_MINED",
      "type": "error"
    },
    {
      "inputs": [],
      "name": "CALLER_NOT_OWNER_OR_APPROVED",
      "type": "error"
    },
    {
      "inputs": [],
      "name": "DELEGATE_ADDRESS_ZERO",
      "type": "error"
    },
    {
      "inputs": [],
      "name": "INCORRECT_OWNER",
      "type": "error"
    },
    {
      "inputs": [
        {
          "internalType": "address",
          "name": "ownerAddress",
          "type": "address"
        },
        {
          "internalType": "uint256",
          "name": "projectId",
          "type": "uint256"
        }
      ],
      "name": "INVALID_NEW_OWNER",
      "type": "error"
    },
    {
      "inputs": [],
      "name": "INVALID_PAYMENT_EVENT",
      "type": "error"
    },
    {
      "inputs": [],
      "name": "INVALID_REDEMPTION_EVENT",
      "type": "error"
    },
    {
      "inputs": [],
      "name": "INVALID_REDEMPTION_METADATA",
      "type": "error"
    },
    {
      "inputs": [],
      "name": "INVALID_TOKEN_ID",
      "type": "error"
    },
    {
      "inputs": [],
      "name": "MINT_TO_ZERO",
      "type": "error"
    },
    {
      "inputs": [],
      "name": "OVERSPENDING",
      "type": "error"
    },
    {
      "inputs": [
        {
          "internalType": "uint256",
          "name": "prod1",
          "type": "uint256"
        },
        {
          "internalType": "uint256",
          "name": "denominator",
          "type": "uint256"
        }
      ],
      "name": "PRBMath__MulDivOverflow",
      "type": "error"
    },
    {
      "inputs": [],
      "name": "RESERVED_TOKEN_MINTING_PAUSED",
      "type": "error"
    },
    {
      "inputs": [],
      "name": "TRANSFERS_PAUSED",
      "type": "error"
    },
    {
      "inputs": [],
      "name": "TRANSFER_TO_NON_IMPLEMENTER",
      "type": "error"
    },
    {
      "inputs": [],
      "name": "TRANSFER_TO_ZERO_ADDRESS",
      "type": "error"
    },
    {
      "inputs": [],
      "name": "UNAUTHORIZED",
      "type": "error"
    },
    {
      "inputs": [
        {
          "internalType": "uint256",
          "name": "_tokenId",
          "type": "uint256"
        }
      ],
      "name": "UNAUTHORIZED_TOKEN",
      "type": "error"
    },
    {
      "inputs": [],
      "name": "UNEXPECTED_TOKEN_REDEEMED",
      "type": "error"
    },
    {
      "anonymous": false,
      "inputs": [
        {
          "indexed": true,
          "internalType": "uint256",
          "name": "changeAmount",
          "type": "uint256"
        },
        {
          "indexed": true,
          "internalType": "uint256",
          "name": "newTotalCredits",
          "type": "uint256"
        },
        {
          "indexed": true,
          "internalType": "address",
          "name": "account",
          "type": "address"
        },
        {
          "indexed": false,
          "internalType": "address",
          "name": "caller",
          "type": "address"
        }
      ],
      "name": "AddCredits",
      "type": "event"
    },
    {
      "anonymous": false,
      "inputs": [
        {
          "indexed": true,
          "internalType": "uint256",
          "name": "tierId",
          "type": "uint256"
        },
        {
          "components": [
            {
              "internalType": "uint88",
              "name": "price",
              "type": "uint88"
            },
            {
              "internalType": "uint40",
              "name": "initialQuantity",
              "type": "uint40"
            },
            {
              "internalType": "uint40",
              "name": "votingUnits",
              "type": "uint40"
            },
            {
              "internalType": "uint16",
              "name": "reservedRate",
              "type": "uint16"
            },
            {
              "internalType": "address",
              "name": "reservedTokenBeneficiary",
              "type": "address"
            },
            {
              "internalType": "uint8",
              "name": "royaltyRate",
              "type": "uint8"
            },
            {
              "internalType": "address",
              "name": "royaltyBeneficiary",
              "type": "address"
            },
            {
              "internalType": "bytes32",
              "name": "encodedIPFSUri",
              "type": "bytes32"
            },
            {
              "internalType": "uint16",
              "name": "category",
              "type": "uint16"
            },
            {
              "internalType": "bool",
              "name": "allowManualMint",
              "type": "bool"
            },
            {
              "internalType": "bool",
              "name": "shouldUseReservedTokenBeneficiaryAsDefault",
              "type": "bool"
            },
            {
              "internalType": "bool",
              "name": "shouldUseRoyaltyBeneficiaryAsDefault",
              "type": "bool"
            },
            {
              "internalType": "bool",
              "name": "transfersPausable",
              "type": "bool"
            },
            {
              "internalType": "bool",
              "name": "useVotingUnits",
              "type": "bool"
            }
          ],
          "indexed": false,
          "internalType": "struct JB721TierParams",
          "name": "data",
          "type": "tuple"
        },
        {
          "indexed": false,
          "internalType": "address",
          "name": "caller",
          "type": "address"
        }
      ],
      "name": "AddTier",
      "type": "event"
    },
    {
      "anonymous": false,
      "inputs": [
        {
          "indexed": true,
          "internalType": "address",
          "name": "owner",
          "type": "address"
        },
        {
          "indexed": true,
          "internalType": "address",
          "name": "approved",
          "type": "address"
        },
        {
          "indexed": true,
          "internalType": "uint256",
          "name": "tokenId",
          "type": "uint256"
        }
      ],
      "name": "Approval",
      "type": "event"
    },
    {
      "anonymous": false,
      "inputs": [
        {
          "indexed": true,
          "internalType": "address",
          "name": "owner",
          "type": "address"
        },
        {
          "indexed": true,
          "internalType": "address",
          "name": "operator",
          "type": "address"
        },
        {
          "indexed": false,
          "internalType": "bool",
          "name": "approved",
          "type": "bool"
        }
      ],
      "name": "ApprovalForAll",
      "type": "event"
    },
    {
      "anonymous": false,
      "inputs": [
        {
          "indexed": true,
          "internalType": "address",
          "name": "delegator",
          "type": "address"
        },
        {
          "indexed": true,
          "internalType": "address",
          "name": "fromDelegate",
          "type": "address"
        },
        {
          "indexed": true,
          "internalType": "address",
          "name": "toDelegate",
          "type": "address"
        }
      ],
      "name": "DelegateChanged",
      "type": "event"
    },
    {
      "anonymous": false,
      "inputs": [
        {
          "indexed": true,
          "internalType": "uint256",
          "name": "tokenId",
          "type": "uint256"
        },
        {
          "indexed": true,
          "internalType": "uint256",
          "name": "tierId",
          "type": "uint256"
        },
        {
          "indexed": true,
          "internalType": "address",
          "name": "beneficiary",
          "type": "address"
        },
        {
          "indexed": false,
          "internalType": "uint256",
          "name": "totalAmountContributed",
          "type": "uint256"
        },
        {
          "indexed": false,
          "internalType": "address",
          "name": "caller",
          "type": "address"
        }
      ],
      "name": "Mint",
      "type": "event"
    },
    {
      "anonymous": false,
      "inputs": [
        {
          "indexed": true,
          "internalType": "uint256",
          "name": "tokenId",
          "type": "uint256"
        },
        {
          "indexed": true,
          "internalType": "uint256",
          "name": "tierId",
          "type": "uint256"
        },
        {
          "indexed": true,
          "internalType": "address",
          "name": "beneficiary",
          "type": "address"
        },
        {
          "indexed": false,
          "internalType": "address",
          "name": "caller",
          "type": "address"
        }
      ],
      "name": "MintReservedToken",
      "type": "event"
    },
    {
      "anonymous": false,
      "inputs": [
        {
          "indexed": true,
          "internalType": "address",
          "name": "previousOwner",
          "type": "address"
        },
        {
          "indexed": true,
          "internalType": "address",
          "name": "newOwner",
          "type": "address"
        }
      ],
      "name": "OwnershipTransferred",
      "type": "event"
    },
    {
      "anonymous": false,
      "inputs": [
        {
          "indexed": false,
          "internalType": "uint8",
          "name": "newIndex",
          "type": "uint8"
        }
      ],
      "name": "PermissionIndexChanged",
      "type": "event"
    },
    {
      "anonymous": false,
      "inputs": [
        {
          "indexed": true,
          "internalType": "uint256",
          "name": "tierId",
          "type": "uint256"
        },
        {
          "indexed": false,
          "internalType": "address",
          "name": "caller",
          "type": "address"
        }
      ],
      "name": "RemoveTier",
      "type": "event"
    },
    {
      "anonymous": false,
      "inputs": [
        {
          "indexed": true,
          "internalType": "string",
          "name": "baseUri",
          "type": "string"
        },
        {
          "indexed": false,
          "internalType": "address",
          "name": "caller",
          "type": "address"
        }
      ],
      "name": "SetBaseUri",
      "type": "event"
    },
    {
      "anonymous": false,
      "inputs": [
        {
          "indexed": true,
          "internalType": "string",
          "name": "contractUri",
          "type": "string"
        },
        {
          "indexed": false,
          "internalType": "address",
          "name": "caller",
          "type": "address"
        }
      ],
      "name": "SetContractUri",
      "type": "event"
    },
    {
      "anonymous": false,
      "inputs": [
        {
          "indexed": true,
          "internalType": "address",
          "name": "beneficiary",
          "type": "address"
        },
        {
          "indexed": false,
          "internalType": "address",
          "name": "caller",
          "type": "address"
        }
      ],
      "name": "SetDefaultReservedTokenBeneficiary",
      "type": "event"
    },
    {
      "anonymous": false,
      "inputs": [
        {
          "indexed": true,
          "internalType": "uint256",
          "name": "tierId",
          "type": "uint256"
        },
        {
          "indexed": false,
          "internalType": "bytes32",
          "name": "encodedIPFSUri",
          "type": "bytes32"
        },
        {
          "indexed": false,
          "internalType": "address",
          "name": "caller",
          "type": "address"
        }
      ],
      "name": "SetEncodedIPFSUri",
      "type": "event"
    },
    {
      "anonymous": false,
      "inputs": [
        {
          "indexed": true,
          "internalType": "contract IJBTokenUriResolver",
          "name": "newResolver",
          "type": "address"
        },
        {
          "indexed": false,
          "internalType": "address",
          "name": "caller",
          "type": "address"
        }
      ],
      "name": "SetTokenUriResolver",
      "type": "event"
    },
    {
      "anonymous": false,
      "inputs": [
        {
          "indexed": true,
          "internalType": "address",
          "name": "delegator",
          "type": "address"
        },
        {
          "indexed": true,
          "internalType": "address",
          "name": "fromDelegate",
          "type": "address"
        },
        {
          "indexed": true,
          "internalType": "address",
          "name": "toDelegate",
          "type": "address"
        },
        {
          "indexed": false,
          "internalType": "uint256",
          "name": "tierId",
          "type": "uint256"
        },
        {
          "indexed": false,
          "internalType": "address",
          "name": "caller",
          "type": "address"
        }
      ],
      "name": "TierDelegateChanged",
      "type": "event"
    },
    {
      "anonymous": false,
      "inputs": [
        {
          "indexed": true,
          "internalType": "address",
          "name": "delegate",
          "type": "address"
        },
        {
          "indexed": true,
          "internalType": "uint256",
          "name": "tierId",
          "type": "uint256"
        },
        {
          "indexed": false,
          "internalType": "uint256",
          "name": "previousBalance",
          "type": "uint256"
        },
        {
          "indexed": false,
          "internalType": "uint256",
          "name": "newBalance",
          "type": "uint256"
        },
        {
          "indexed": false,
          "internalType": "address",
          "name": "caller",
          "type": "address"
        }
      ],
      "name": "TierDelegateVotesChanged",
      "type": "event"
    },
    {
      "anonymous": false,
      "inputs": [
        {
          "indexed": true,
          "internalType": "address",
          "name": "from",
          "type": "address"
        },
        {
          "indexed": true,
          "internalType": "address",
          "name": "to",
          "type": "address"
        },
        {
          "indexed": true,
          "internalType": "uint256",
          "name": "tokenId",
          "type": "uint256"
        }
      ],
      "name": "Transfer",
      "type": "event"
    },
    {
      "anonymous": false,
      "inputs": [
        {
          "indexed": true,
          "internalType": "uint256",
          "name": "changeAmount",
          "type": "uint256"
        },
        {
          "indexed": true,
          "internalType": "uint256",
          "name": "newTotalCredits",
          "type": "uint256"
        },
        {
          "indexed": true,
          "internalType": "address",
          "name": "account",
          "type": "address"
        },
        {
          "indexed": false,
          "internalType": "address",
          "name": "caller",
          "type": "address"
        }
      ],
      "name": "UseCredits",
      "type": "event"
    },
    {
      "inputs": [
        {
          "components": [
            {
              "internalType": "uint88",
              "name": "price",
              "type": "uint88"
            },
            {
              "internalType": "uint40",
              "name": "initialQuantity",
              "type": "uint40"
            },
            {
              "internalType": "uint40",
              "name": "votingUnits",
              "type": "uint40"
            },
            {
              "internalType": "uint16",
              "name": "reservedRate",
              "type": "uint16"
            },
            {
              "internalType": "address",
              "name": "reservedTokenBeneficiary",
              "type": "address"
            },
            {
              "internalType": "uint8",
              "name": "royaltyRate",
              "type": "uint8"
            },
            {
              "internalType": "address",
              "name": "royaltyBeneficiary",
              "type": "address"
            },
            {
              "internalType": "bytes32",
              "name": "encodedIPFSUri",
              "type": "bytes32"
            },
            {
              "internalType": "uint16",
              "name": "category",
              "type": "uint16"
            },
            {
              "internalType": "bool",
              "name": "allowManualMint",
              "type": "bool"
            },
            {
              "internalType": "bool",
              "name": "shouldUseReservedTokenBeneficiaryAsDefault",
              "type": "bool"
            },
            {
              "internalType": "bool",
              "name": "shouldUseRoyaltyBeneficiaryAsDefault",
              "type": "bool"
            },
            {
              "internalType": "bool",
              "name": "transfersPausable",
              "type": "bool"
            },
            {
              "internalType": "bool",
              "name": "useVotingUnits",
              "type": "bool"
            }
          ],
          "internalType": "struct JB721TierParams[]",
          "name": "_tiersToAdd",
          "type": "tuple[]"
        },
        {
          "internalType": "uint256[]",
          "name": "_tierIdsToRemove",
          "type": "uint256[]"
        }
      ],
      "name": "adjustTiers",
      "outputs": [],
      "stateMutability": "nonpayable",
      "type": "function"
    },
    {
      "inputs": [
        {
          "internalType": "address",
          "name": "to",
          "type": "address"
        },
        {
          "internalType": "uint256",
          "name": "tokenId",
          "type": "uint256"
        }
      ],
      "name": "approve",
      "outputs": [],
      "stateMutability": "nonpayable",
      "type": "function"
    },
    {
      "inputs": [
        {
          "internalType": "address",
          "name": "_owner",
          "type": "address"
        }
      ],
      "name": "balanceOf",
      "outputs": [
        {
          "internalType": "uint256",
          "name": "balance",
          "type": "uint256"
        }
      ],
      "stateMutability": "view",
      "type": "function"
    },
    {
      "inputs": [],
      "name": "baseURI",
      "outputs": [
        {
          "internalType": "string",
          "name": "",
          "type": "string"
        }
      ],
      "stateMutability": "view",
      "type": "function"
    },
    {
      "inputs": [],
      "name": "codeOrigin",
      "outputs": [
        {
          "internalType": "address",
          "name": "",
          "type": "address"
        }
      ],
      "stateMutability": "view",
      "type": "function"
    },
    {
      "inputs": [],
      "name": "contractURI",
      "outputs": [
        {
          "internalType": "string",
          "name": "",
          "type": "string"
        }
      ],
      "stateMutability": "view",
      "type": "function"
    },
    {
      "inputs": [
        {
          "internalType": "address",
          "name": "",
          "type": "address"
        }
      ],
      "name": "creditsOf",
      "outputs": [
        {
          "internalType": "uint256",
          "name": "",
          "type": "uint256"
        }
      ],
      "stateMutability": "view",
      "type": "function"
    },
    {
      "inputs": [
        {
          "components": [
            {
              "internalType": "address",
              "name": "payer",
              "type": "address"
            },
            {
              "internalType": "uint256",
              "name": "projectId",
              "type": "uint256"
            },
            {
              "internalType": "uint256",
              "name": "currentFundingCycleConfiguration",
              "type": "uint256"
            },
            {
              "components": [
                {
                  "internalType": "address",
                  "name": "token",
                  "type": "address"
                },
                {
                  "internalType": "uint256",
                  "name": "value",
                  "type": "uint256"
                },
                {
                  "internalType": "uint256",
                  "name": "decimals",
                  "type": "uint256"
                },
                {
                  "internalType": "uint256",
                  "name": "currency",
                  "type": "uint256"
                }
              ],
              "internalType": "struct JBTokenAmount",
              "name": "amount",
              "type": "tuple"
            },
            {
              "components": [
                {
                  "internalType": "address",
                  "name": "token",
                  "type": "address"
                },
                {
                  "internalType": "uint256",
                  "name": "value",
                  "type": "uint256"
                },
                {
                  "internalType": "uint256",
                  "name": "decimals",
                  "type": "uint256"
                },
                {
                  "internalType": "uint256",
                  "name": "currency",
                  "type": "uint256"
                }
              ],
              "internalType": "struct JBTokenAmount",
              "name": "forwardedAmount",
              "type": "tuple"
            },
            {
              "internalType": "uint256",
              "name": "projectTokenCount",
              "type": "uint256"
            },
            {
              "internalType": "address",
              "name": "beneficiary",
              "type": "address"
            },
            {
              "internalType": "bool",
              "name": "preferClaimedTokens",
              "type": "bool"
            },
            {
              "internalType": "string",
              "name": "memo",
              "type": "string"
            },
            {
              "internalType": "bytes",
              "name": "metadata",
              "type": "bytes"
            }
          ],
          "internalType": "struct JBDidPayData",
          "name": "_data",
          "type": "tuple"
        }
      ],
      "name": "didPay",
      "outputs": [],
      "stateMutability": "payable",
      "type": "function"
    },
    {
      "inputs": [
        {
          "components": [
            {
              "internalType": "address",
              "name": "holder",
              "type": "address"
            },
            {
              "internalType": "uint256",
              "name": "projectId",
              "type": "uint256"
            },
            {
              "internalType": "uint256",
              "name": "currentFundingCycleConfiguration",
              "type": "uint256"
            },
            {
              "internalType": "uint256",
              "name": "projectTokenCount",
              "type": "uint256"
            },
            {
              "components": [
                {
                  "internalType": "address",
                  "name": "token",
                  "type": "address"
                },
                {
                  "internalType": "uint256",
                  "name": "value",
                  "type": "uint256"
                },
                {
                  "internalType": "uint256",
                  "name": "decimals",
                  "type": "uint256"
                },
                {
                  "internalType": "uint256",
                  "name": "currency",
                  "type": "uint256"
                }
              ],
              "internalType": "struct JBTokenAmount",
              "name": "reclaimedAmount",
              "type": "tuple"
            },
            {
              "components": [
                {
                  "internalType": "address",
                  "name": "token",
                  "type": "address"
                },
                {
                  "internalType": "uint256",
                  "name": "value",
                  "type": "uint256"
                },
                {
                  "internalType": "uint256",
                  "name": "decimals",
                  "type": "uint256"
                },
                {
                  "internalType": "uint256",
                  "name": "currency",
                  "type": "uint256"
                }
              ],
              "internalType": "struct JBTokenAmount",
              "name": "forwardedAmount",
              "type": "tuple"
            },
            {
              "internalType": "address payable",
              "name": "beneficiary",
              "type": "address"
            },
            {
              "internalType": "string",
              "name": "memo",
              "type": "string"
            },
            {
              "internalType": "bytes",
              "name": "metadata",
              "type": "bytes"
            }
          ],
          "internalType": "struct JBDidRedeemData",
          "name": "_data",
          "type": "tuple"
        }
      ],
      "name": "didRedeem",
      "outputs": [],
      "stateMutability": "payable",
      "type": "function"
    },
    {
      "inputs": [],
      "name": "directory",
      "outputs": [
        {
          "internalType": "contract IJBDirectory",
          "name": "",
          "type": "address"
        }
      ],
      "stateMutability": "view",
      "type": "function"
    },
    {
      "inputs": [
        {
          "internalType": "uint256",
          "name": "_tokenId",
          "type": "uint256"
        }
      ],
      "name": "firstOwnerOf",
      "outputs": [
        {
          "internalType": "address",
          "name": "",
          "type": "address"
        }
      ],
      "stateMutability": "view",
      "type": "function"
    },
    {
      "inputs": [],
      "name": "fundingCycleStore",
      "outputs": [
        {
          "internalType": "contract IJBFundingCycleStore",
          "name": "",
          "type": "address"
        }
      ],
      "stateMutability": "view",
      "type": "function"
    },
    {
      "inputs": [
        {
          "internalType": "uint256",
          "name": "tokenId",
          "type": "uint256"
        }
      ],
      "name": "getApproved",
      "outputs": [
        {
          "internalType": "address",
          "name": "",
          "type": "address"
        }
      ],
      "stateMutability": "view",
      "type": "function"
    },
    {
      "inputs": [
        {
          "internalType": "uint256",
          "name": "_tier",
          "type": "uint256"
        },
        {
          "internalType": "uint256",
          "name": "_blockNumber",
          "type": "uint256"
        }
      ],
      "name": "getPastTierTotalVotes",
      "outputs": [
        {
          "internalType": "uint256",
          "name": "",
          "type": "uint256"
        }
      ],
      "stateMutability": "view",
      "type": "function"
    },
    {
      "inputs": [
        {
          "internalType": "address",
          "name": "_account",
          "type": "address"
        },
        {
          "internalType": "uint256",
          "name": "_tier",
          "type": "uint256"
        },
        {
          "internalType": "uint256",
          "name": "_blockNumber",
          "type": "uint256"
        }
      ],
      "name": "getPastTierVotes",
      "outputs": [
        {
          "internalType": "uint256",
          "name": "",
          "type": "uint256"
        }
      ],
      "stateMutability": "view",
      "type": "function"
    },
    {
      "inputs": [
        {
          "internalType": "address",
          "name": "_account",
          "type": "address"
        },
        {
          "internalType": "uint256",
          "name": "_tier",
          "type": "uint256"
        }
      ],
      "name": "getTierDelegate",
      "outputs": [
        {
          "internalType": "address",
          "name": "",
          "type": "address"
        }
      ],
      "stateMutability": "view",
      "type": "function"
    },
    {
      "inputs": [
        {
          "internalType": "uint256",
          "name": "_tier",
          "type": "uint256"
        }
      ],
      "name": "getTierTotalVotes",
      "outputs": [
        {
          "internalType": "uint256",
          "name": "",
          "type": "uint256"
        }
      ],
      "stateMutability": "view",
      "type": "function"
    },
    {
      "inputs": [
        {
          "internalType": "address",
          "name": "_account",
          "type": "address"
        },
        {
          "internalType": "uint256",
          "name": "_tier",
          "type": "uint256"
        }
      ],
      "name": "getTierVotes",
      "outputs": [
        {
          "internalType": "uint256",
          "name": "",
          "type": "uint256"
        }
      ],
      "stateMutability": "view",
      "type": "function"
    },
    {
      "inputs": [
        {
          "internalType": "uint256",
          "name": "_projectId",
          "type": "uint256"
        },
        {
          "internalType": "contract IJBDirectory",
          "name": "_directory",
          "type": "address"
        },
        {
          "internalType": "string",
          "name": "_name",
          "type": "string"
        },
        {
          "internalType": "string",
          "name": "_symbol",
          "type": "string"
        },
        {
          "internalType": "contract IJBFundingCycleStore",
          "name": "_fundingCycleStore",
          "type": "address"
        },
        {
          "internalType": "string",
          "name": "_baseUri",
          "type": "string"
        },
        {
          "internalType": "contract IJBTokenUriResolver",
          "name": "_tokenUriResolver",
          "type": "address"
        },
        {
          "internalType": "string",
          "name": "_contractUri",
          "type": "string"
        },
        {
          "components": [
            {
              "components": [
                {
                  "internalType": "uint88",
                  "name": "price",
                  "type": "uint88"
                },
                {
                  "internalType": "uint40",
                  "name": "initialQuantity",
                  "type": "uint40"
                },
                {
                  "internalType": "uint40",
                  "name": "votingUnits",
                  "type": "uint40"
                },
                {
                  "internalType": "uint16",
                  "name": "reservedRate",
                  "type": "uint16"
                },
                {
                  "internalType": "address",
                  "name": "reservedTokenBeneficiary",
                  "type": "address"
                },
                {
                  "internalType": "uint8",
                  "name": "royaltyRate",
                  "type": "uint8"
                },
                {
                  "internalType": "address",
                  "name": "royaltyBeneficiary",
                  "type": "address"
                },
                {
                  "internalType": "bytes32",
                  "name": "encodedIPFSUri",
                  "type": "bytes32"
                },
                {
                  "internalType": "uint16",
                  "name": "category",
                  "type": "uint16"
                },
                {
                  "internalType": "bool",
                  "name": "allowManualMint",
                  "type": "bool"
                },
                {
                  "internalType": "bool",
                  "name": "shouldUseReservedTokenBeneficiaryAsDefault",
                  "type": "bool"
                },
                {
                  "internalType": "bool",
                  "name": "shouldUseRoyaltyBeneficiaryAsDefault",
                  "type": "bool"
                },
                {
                  "internalType": "bool",
                  "name": "transfersPausable",
                  "type": "bool"
                },
                {
                  "internalType": "bool",
                  "name": "useVotingUnits",
                  "type": "bool"
                }
              ],
              "internalType": "struct JB721TierParams[]",
              "name": "tiers",
              "type": "tuple[]"
            },
            {
              "internalType": "uint256",
              "name": "currency",
              "type": "uint256"
            },
            {
              "internalType": "uint256",
              "name": "decimals",
              "type": "uint256"
            },
            {
              "internalType": "contract IJBPrices",
              "name": "prices",
              "type": "address"
            }
          ],
          "internalType": "struct JB721PricingParams",
          "name": "_pricing",
          "type": "tuple"
        },
        {
          "internalType": "contract IJBTiered721DelegateStore",
          "name": "_store",
          "type": "address"
        },
        {
          "components": [
            {
              "internalType": "bool",
              "name": "lockReservedTokenChanges",
              "type": "bool"
            },
            {
              "internalType": "bool",
              "name": "lockVotingUnitChanges",
              "type": "bool"
            },
            {
              "internalType": "bool",
              "name": "lockManualMintingChanges",
              "type": "bool"
            },
            {
              "internalType": "bool",
              "name": "preventOverspending",
              "type": "bool"
            }
          ],
          "internalType": "struct JBTiered721Flags",
          "name": "_flags",
          "type": "tuple"
        }
      ],
      "name": "initialize",
      "outputs": [],
      "stateMutability": "nonpayable",
      "type": "function"
    },
    {
      "inputs": [
        {
          "internalType": "address",
          "name": "owner",
          "type": "address"
        },
        {
          "internalType": "address",
          "name": "operator",
          "type": "address"
        }
      ],
      "name": "isApprovedForAll",
      "outputs": [
        {
          "internalType": "bool",
          "name": "",
          "type": "bool"
        }
      ],
      "stateMutability": "view",
      "type": "function"
    },
    {
      "inputs": [],
      "name": "jbOwner",
      "outputs": [
        {
          "internalType": "address",
          "name": "owner",
          "type": "address"
        },
        {
          "internalType": "uint88",
          "name": "projectId",
          "type": "uint88"
        },
        {
          "internalType": "uint8",
          "name": "permissionIndex",
          "type": "uint8"
        }
      ],
      "stateMutability": "view",
      "type": "function"
    },
    {
      "inputs": [
        {
          "internalType": "uint16[]",
          "name": "_tierIds",
          "type": "uint16[]"
        },
        {
          "internalType": "address",
          "name": "_beneficiary",
          "type": "address"
        }
      ],
      "name": "mintFor",
      "outputs": [
        {
          "internalType": "uint256[]",
          "name": "tokenIds",
          "type": "uint256[]"
        }
      ],
      "stateMutability": "nonpayable",
      "type": "function"
    },
    {
      "inputs": [
        {
          "components": [
            {
              "internalType": "uint256",
              "name": "tierId",
              "type": "uint256"
            },
            {
              "internalType": "uint256",
              "name": "count",
              "type": "uint256"
            }
          ],
          "internalType": "struct JBTiered721MintReservesForTiersData[]",
          "name": "_mintReservesForTiersData",
          "type": "tuple[]"
        }
      ],
      "name": "mintReservesFor",
      "outputs": [],
      "stateMutability": "nonpayable",
      "type": "function"
    },
    {
      "inputs": [
        {
          "internalType": "uint256",
          "name": "_tierId",
          "type": "uint256"
        },
        {
          "internalType": "uint256",
          "name": "_count",
          "type": "uint256"
        }
      ],
      "name": "mintReservesFor",
      "outputs": [],
      "stateMutability": "nonpayable",
      "type": "function"
    },
    {
      "inputs": [],
      "name": "name",
      "outputs": [
        {
          "internalType": "string",
          "name": "",
          "type": "string"
        }
      ],
      "stateMutability": "view",
      "type": "function"
    },
    {
      "inputs": [],
      "name": "operatorStore",
      "outputs": [
        {
          "internalType": "contract IJBOperatorStore",
          "name": "",
          "type": "address"
        }
      ],
      "stateMutability": "view",
      "type": "function"
    },
    {
      "inputs": [],
      "name": "owner",
      "outputs": [
        {
          "internalType": "address",
          "name": "",
          "type": "address"
        }
      ],
      "stateMutability": "view",
      "type": "function"
    },
    {
      "inputs": [
        {
          "internalType": "uint256",
          "name": "tokenId",
          "type": "uint256"
        }
      ],
      "name": "ownerOf",
      "outputs": [
        {
          "internalType": "address",
          "name": "",
          "type": "address"
        }
      ],
      "stateMutability": "view",
      "type": "function"
    },
    {
      "inputs": [
        {
          "components": [
            {
              "internalType": "contract IJBPaymentTerminal",
              "name": "terminal",
              "type": "address"
            },
            {
              "internalType": "address",
              "name": "payer",
              "type": "address"
            },
            {
              "components": [
                {
                  "internalType": "address",
                  "name": "token",
                  "type": "address"
                },
                {
                  "internalType": "uint256",
                  "name": "value",
                  "type": "uint256"
                },
                {
                  "internalType": "uint256",
                  "name": "decimals",
                  "type": "uint256"
                },
                {
                  "internalType": "uint256",
                  "name": "currency",
                  "type": "uint256"
                }
              ],
              "internalType": "struct JBTokenAmount",
              "name": "amount",
              "type": "tuple"
            },
            {
              "internalType": "uint256",
              "name": "projectId",
              "type": "uint256"
            },
            {
              "internalType": "uint256",
              "name": "currentFundingCycleConfiguration",
              "type": "uint256"
            },
            {
              "internalType": "address",
              "name": "beneficiary",
              "type": "address"
            },
            {
              "internalType": "uint256",
              "name": "weight",
              "type": "uint256"
            },
            {
              "internalType": "uint256",
              "name": "reservedRate",
              "type": "uint256"
            },
            {
              "internalType": "string",
              "name": "memo",
              "type": "string"
            },
            {
              "internalType": "bytes",
              "name": "metadata",
              "type": "bytes"
            }
          ],
          "internalType": "struct JBPayParamsData",
          "name": "_data",
          "type": "tuple"
        }
      ],
      "name": "payParams",
      "outputs": [
        {
          "internalType": "uint256",
          "name": "weight",
          "type": "uint256"
        },
        {
          "internalType": "string",
          "name": "memo",
          "type": "string"
        },
        {
          "components": [
            {
              "internalType": "contract IJBPayDelegate",
              "name": "delegate",
              "type": "address"
            },
            {
              "internalType": "uint256",
              "name": "amount",
              "type": "uint256"
            }
          ],
          "internalType": "struct JBPayDelegateAllocation[]",
          "name": "delegateAllocations",
          "type": "tuple[]"
        }
      ],
      "stateMutability": "view",
      "type": "function"
    },
    {
      "inputs": [],
      "name": "prices",
      "outputs": [
        {
          "internalType": "contract IJBPrices",
          "name": "",
          "type": "address"
        }
      ],
      "stateMutability": "view",
      "type": "function"
    },
    {
      "inputs": [],
      "name": "pricingCurrency",
      "outputs": [
        {
          "internalType": "uint256",
          "name": "",
          "type": "uint256"
        }
      ],
      "stateMutability": "view",
      "type": "function"
    },
    {
      "inputs": [],
      "name": "pricingDecimals",
      "outputs": [
        {
          "internalType": "uint256",
          "name": "",
          "type": "uint256"
        }
      ],
      "stateMutability": "view",
      "type": "function"
    },
    {
      "inputs": [],
      "name": "projectId",
      "outputs": [
        {
          "internalType": "uint256",
          "name": "",
          "type": "uint256"
        }
      ],
      "stateMutability": "view",
      "type": "function"
    },
    {
      "inputs": [],
      "name": "projects",
      "outputs": [
        {
          "internalType": "contract IJBProjects",
          "name": "",
          "type": "address"
        }
      ],
      "stateMutability": "view",
      "type": "function"
    },
    {
      "inputs": [
        {
          "components": [
            {
              "internalType": "contract IJBPaymentTerminal",
              "name": "terminal",
              "type": "address"
            },
            {
              "internalType": "address",
              "name": "holder",
              "type": "address"
            },
            {
              "internalType": "uint256",
              "name": "projectId",
              "type": "uint256"
            },
            {
              "internalType": "uint256",
              "name": "currentFundingCycleConfiguration",
              "type": "uint256"
            },
            {
              "internalType": "uint256",
              "name": "tokenCount",
              "type": "uint256"
            },
            {
              "internalType": "uint256",
              "name": "totalSupply",
              "type": "uint256"
            },
            {
              "internalType": "uint256",
              "name": "overflow",
              "type": "uint256"
            },
            {
              "components": [
                {
                  "internalType": "address",
                  "name": "token",
                  "type": "address"
                },
                {
                  "internalType": "uint256",
                  "name": "value",
                  "type": "uint256"
                },
                {
                  "internalType": "uint256",
                  "name": "decimals",
                  "type": "uint256"
                },
                {
                  "internalType": "uint256",
                  "name": "currency",
                  "type": "uint256"
                }
              ],
              "internalType": "struct JBTokenAmount",
              "name": "reclaimAmount",
              "type": "tuple"
            },
            {
              "internalType": "bool",
              "name": "useTotalOverflow",
              "type": "bool"
            },
            {
              "internalType": "uint256",
              "name": "redemptionRate",
              "type": "uint256"
            },
            {
              "internalType": "string",
              "name": "memo",
              "type": "string"
            },
            {
              "internalType": "bytes",
              "name": "metadata",
              "type": "bytes"
            }
          ],
          "internalType": "struct JBRedeemParamsData",
          "name": "_data",
          "type": "tuple"
        }
      ],
      "name": "redeemParams",
      "outputs": [
        {
          "internalType": "uint256",
          "name": "reclaimAmount",
          "type": "uint256"
        },
        {
          "internalType": "string",
          "name": "memo",
          "type": "string"
        },
        {
          "components": [
            {
              "internalType": "contract IJBRedemptionDelegate",
              "name": "delegate",
              "type": "address"
            },
            {
              "internalType": "uint256",
              "name": "amount",
              "type": "uint256"
            }
          ],
          "internalType": "struct JBRedemptionDelegateAllocation[]",
          "name": "delegateAllocations",
          "type": "tuple[]"
        }
      ],
      "stateMutability": "view",
      "type": "function"
    },
    {
      "inputs": [
        {
          "internalType": "uint256[]",
          "name": "_tokenIds",
          "type": "uint256[]"
        },
        {
          "components": [
            {
              "internalType": "contract IJBPaymentTerminal",
              "name": "terminal",
              "type": "address"
            },
            {
              "internalType": "address",
              "name": "holder",
              "type": "address"
            },
            {
              "internalType": "uint256",
              "name": "projectId",
              "type": "uint256"
            },
            {
              "internalType": "uint256",
              "name": "currentFundingCycleConfiguration",
              "type": "uint256"
            },
            {
              "internalType": "uint256",
              "name": "tokenCount",
              "type": "uint256"
            },
            {
              "internalType": "uint256",
              "name": "totalSupply",
              "type": "uint256"
            },
            {
              "internalType": "uint256",
              "name": "overflow",
              "type": "uint256"
            },
            {
              "components": [
                {
                  "internalType": "address",
                  "name": "token",
                  "type": "address"
                },
                {
                  "internalType": "uint256",
                  "name": "value",
                  "type": "uint256"
                },
                {
                  "internalType": "uint256",
                  "name": "decimals",
                  "type": "uint256"
                },
                {
                  "internalType": "uint256",
                  "name": "currency",
                  "type": "uint256"
                }
              ],
              "internalType": "struct JBTokenAmount",
              "name": "reclaimAmount",
              "type": "tuple"
            },
            {
              "internalType": "bool",
              "name": "useTotalOverflow",
              "type": "bool"
            },
            {
              "internalType": "uint256",
              "name": "redemptionRate",
              "type": "uint256"
            },
            {
              "internalType": "string",
              "name": "memo",
              "type": "string"
            },
            {
              "internalType": "bytes",
              "name": "metadata",
              "type": "bytes"
            }
          ],
          "internalType": "struct JBRedeemParamsData",
          "name": "",
          "type": "tuple"
        }
      ],
      "name": "redemptionWeightOf",
      "outputs": [
        {
          "internalType": "uint256",
          "name": "",
          "type": "uint256"
        }
      ],
      "stateMutability": "view",
      "type": "function"
    },
    {
      "inputs": [],
      "name": "renounceOwnership",
      "outputs": [],
      "stateMutability": "nonpayable",
      "type": "function"
    },
    {
      "inputs": [
        {
          "internalType": "address",
          "name": "from",
          "type": "address"
        },
        {
          "internalType": "address",
          "name": "to",
          "type": "address"
        },
        {
          "internalType": "uint256",
          "name": "tokenId",
          "type": "uint256"
        }
      ],
      "name": "safeTransferFrom",
      "outputs": [],
      "stateMutability": "nonpayable",
      "type": "function"
    },
    {
      "inputs": [
        {
          "internalType": "address",
          "name": "from",
          "type": "address"
        },
        {
          "internalType": "address",
          "name": "to",
          "type": "address"
        },
        {
          "internalType": "uint256",
          "name": "tokenId",
          "type": "uint256"
        },
        {
          "internalType": "bytes",
          "name": "data",
          "type": "bytes"
        }
      ],
      "name": "safeTransferFrom",
      "outputs": [],
      "stateMutability": "nonpayable",
      "type": "function"
    },
    {
      "inputs": [
        {
          "internalType": "address",
          "name": "operator",
          "type": "address"
        },
        {
          "internalType": "bool",
          "name": "approved",
          "type": "bool"
        }
      ],
      "name": "setApprovalForAll",
      "outputs": [],
      "stateMutability": "nonpayable",
      "type": "function"
    },
    {
      "inputs": [
        {
          "internalType": "string",
          "name": "_baseUri",
          "type": "string"
        },
        {
          "internalType": "string",
          "name": "_contractUri",
          "type": "string"
        },
        {
          "internalType": "contract IJBTokenUriResolver",
          "name": "_tokenUriResolver",
          "type": "address"
        },
        {
          "internalType": "uint256",
          "name": "_encodedIPFSUriTierId",
          "type": "uint256"
        },
        {
          "internalType": "bytes32",
          "name": "_encodedIPFSUri",
          "type": "bytes32"
        }
      ],
      "name": "setMetadata",
      "outputs": [],
      "stateMutability": "nonpayable",
      "type": "function"
    },
    {
      "inputs": [
        {
          "internalType": "uint8",
          "name": "_permissionIndex",
          "type": "uint8"
        }
      ],
      "name": "setPermissionIndex",
      "outputs": [],
      "stateMutability": "nonpayable",
      "type": "function"
    },
    {
      "inputs": [
        {
          "internalType": "address",
          "name": "_delegatee",
          "type": "address"
        },
        {
          "internalType": "uint256",
          "name": "_tierId",
          "type": "uint256"
        }
      ],
      "name": "setTierDelegate",
      "outputs": [],
      "stateMutability": "nonpayable",
      "type": "function"
    },
    {
      "inputs": [
        {
          "components": [
            {
              "internalType": "address",
              "name": "delegatee",
              "type": "address"
            },
            {
              "internalType": "uint256",
              "name": "tierId",
              "type": "uint256"
            }
          ],
          "internalType": "struct JBTiered721SetTierDelegatesData[]",
          "name": "_setTierDelegatesData",
          "type": "tuple[]"
        }
      ],
      "name": "setTierDelegates",
      "outputs": [],
      "stateMutability": "nonpayable",
      "type": "function"
    },
    {
      "inputs": [],
      "name": "store",
      "outputs": [
        {
          "internalType": "contract IJBTiered721DelegateStore",
          "name": "",
          "type": "address"
        }
      ],
      "stateMutability": "view",
      "type": "function"
    },
    {
      "inputs": [
        {
          "internalType": "bytes4",
          "name": "_interfaceId",
          "type": "bytes4"
        }
      ],
      "name": "supportsInterface",
      "outputs": [
        {
          "internalType": "bool",
          "name": "",
          "type": "bool"
        }
      ],
      "stateMutability": "view",
      "type": "function"
    },
    {
      "inputs": [],
      "name": "symbol",
      "outputs": [
        {
          "internalType": "string",
          "name": "",
          "type": "string"
        }
      ],
      "stateMutability": "view",
      "type": "function"
    },
    {
      "inputs": [
        {
          "internalType": "uint256",
          "name": "_tokenId",
          "type": "uint256"
        }
      ],
      "name": "tokenURI",
      "outputs": [
        {
          "internalType": "string",
          "name": "",
          "type": "string"
        }
      ],
      "stateMutability": "view",
      "type": "function"
    },
    {
      "inputs": [
        {
          "components": [
            {
              "internalType": "contract IJBPaymentTerminal",
              "name": "terminal",
              "type": "address"
            },
            {
              "internalType": "address",
              "name": "holder",
              "type": "address"
            },
            {
              "internalType": "uint256",
              "name": "projectId",
              "type": "uint256"
            },
            {
              "internalType": "uint256",
              "name": "currentFundingCycleConfiguration",
              "type": "uint256"
            },
            {
              "internalType": "uint256",
              "name": "tokenCount",
              "type": "uint256"
            },
            {
              "internalType": "uint256",
              "name": "totalSupply",
              "type": "uint256"
            },
            {
              "internalType": "uint256",
              "name": "overflow",
              "type": "uint256"
            },
            {
              "components": [
                {
                  "internalType": "address",
                  "name": "token",
                  "type": "address"
                },
                {
                  "internalType": "uint256",
                  "name": "value",
                  "type": "uint256"
                },
                {
                  "internalType": "uint256",
                  "name": "decimals",
                  "type": "uint256"
                },
                {
                  "internalType": "uint256",
                  "name": "currency",
                  "type": "uint256"
                }
              ],
              "internalType": "struct JBTokenAmount",
              "name": "reclaimAmount",
              "type": "tuple"
            },
            {
              "internalType": "bool",
              "name": "useTotalOverflow",
              "type": "bool"
            },
            {
              "internalType": "uint256",
              "name": "redemptionRate",
              "type": "uint256"
            },
            {
              "internalType": "string",
              "name": "memo",
              "type": "string"
            },
            {
              "internalType": "bytes",
              "name": "metadata",
              "type": "bytes"
            }
          ],
          "internalType": "struct JBRedeemParamsData",
          "name": "",
          "type": "tuple"
        }
      ],
      "name": "totalRedemptionWeight",
      "outputs": [
        {
          "internalType": "uint256",
          "name": "",
          "type": "uint256"
        }
      ],
      "stateMutability": "view",
      "type": "function"
    },
    {
      "inputs": [
        {
          "internalType": "address",
          "name": "from",
          "type": "address"
        },
        {
          "internalType": "address",
          "name": "to",
          "type": "address"
        },
        {
          "internalType": "uint256",
          "name": "tokenId",
          "type": "uint256"
        }
      ],
      "name": "transferFrom",
      "outputs": [],
      "stateMutability": "nonpayable",
      "type": "function"
    },
    {
      "inputs": [
        {
          "internalType": "address",
          "name": "_newOwner",
          "type": "address"
        }
      ],
      "name": "transferOwnership",
      "outputs": [],
      "stateMutability": "nonpayable",
      "type": "function"
    },
    {
      "inputs": [
        {
          "internalType": "uint256",
          "name": "_projectId",
          "type": "uint256"
        }
      ],
      "name": "transferOwnershipToProject",
      "outputs": [],
      "stateMutability": "nonpayable",
      "type": "function"
    }
  ],
  "bytecode": {
    "object": "0x60c06040523480156200001157600080fd5b506040516200663338038062006633833981016040819052620000349162000317565b6001600160a01b03808216608052821660a052818181818181620000583362000079565b5050600980546001600160a01b03191630179055506200037d945050505050565b6200008681600062000089565b50565b6001600160581b03811615801590620000aa57506001600160a01b03821615155b15620000e7576040516324abfd1160e11b81526001600160a01b03831660048201526001600160581b038216602482015260440160405180910390fd5b60408051606081018252600080546001600160a01b0381168352600160a01b81046001600160581b031660208401819052600160f81b90910460ff1693830193909352909115620001b65760a05160208301516040516331a9108f60e11b81526001600160581b0390911660048201526001600160a01b0390911690636352211e90602401602060405180830381865afa1580156200018a573d6000803e3d6000fd5b505050506040513d601f19601f82011682018060405250810190620001b0919062000356565b620001b9565b81515b604080516060810182526001600160a01b0387168082526001600160581b0387166020830181905260009290930182905281547fff000000000000000000000000000000000000000000000000000000000000001617600160a01b8302176001600160f81b03169055909150620002b790829015620002b05760a0516040516331a9108f60e11b81526001600160581b03871660048201526001600160a01b0390911690636352211e90602401602060405180830381865afa15801562000284573d6000803e3d6000fd5b505050506040513d601f19601f82011682018060405250810190620002aa919062000356565b620002bd565b85620002bd565b50505050565b806001600160a01b0316826001600160a01b03167f8be0079c531659141344cd1fd0a4f28419497f9722a3daafe3b4186f6b6457e060405160405180910390a35050565b6001600160a01b03811681146200008657600080fd5b600080604083850312156200032b57600080fd5b8251620003388162000301565b60208401519092506200034b8162000301565b809150509250929050565b6000602082840312156200036957600080fd5b8151620003768162000301565b9392505050565b60805160a051616251620003e26000396000818161067101528181610c1d01528181610f4d015281816115470152818161192301528181612bbc01528181612e3e0152612f360152600081816107fe015281816127dd015261288601526162516000f3fe6080604052600436106102ff5760003560e01c80638da5cb5b11610190578063ba23c36e116100dc578063d3419bf311610095578063da9ee8b71161006f578063da9ee8b7146109ad578063e8a3d485146109c0578063e985e9c5146109d5578063f2fde38b14610a1e57600080fd5b8063d3419bf31461094d578063d40e71461461096d578063d46cf1711461098d57600080fd5b8063ba23c36e14610840578063c41c2f24146108ad578063c74b13d9146108cd578063c87b56dd146108ed578063ca323efe1461090d578063d31cc52c1461092d57600080fd5b8063a220d69611610149578063aa4fb15b11610123578063aa4fb15b146107ac578063ab951e39146107cc578063ad007d63146107ec578063b88d4fde1461082057600080fd5b8063a220d6961461073d578063a22cb4651461075d578063a51cfd181461077d57600080fd5b80638da5cb5b146106935780639494bf72146106a857806394c5c5ca146106c85780639521e381146106e857806395d89b4114610708578063975057e71461071d57600080fd5b80634ecba6251161024f5780636ac6d94111610208578063715018a6116101e2578063715018a6146105e75780637ba62bf9146105fc57806382732b6d1461061c5780638b79543c1461065f57600080fd5b80636ac6d941146105855780636c0360eb146105b257806370a08231146105c757600080fd5b80634ecba625146104d957806354c6d1f5146104ef578063557e71551461050f57806361aec7a91461052f5780636352211e1461054f57806364640c1e1461056f57600080fd5b80631d153ca4116102bc5780632a596e53116102965780632a596e53146104705780632b13c58f146104905780633fafa127146104a357806342842e0e146104b957600080fd5b80631d153ca4146103f557806323b872dd14610415578063245a45b51461043557600080fd5b806301ffc9a71461030457806306fdde0314610339578063081812fc1461035b578063095ea7b3146103935780631435aad5146103b557806314ea9b06146103d5575b600080fd5b34801561031057600080fd5b5061032461031f3660046146b0565b610a3e565b60405190151581526020015b60405180910390f35b34801561034557600080fd5b5061034e610a69565b604051610330919061471d565b34801561036757600080fd5b5061037b610376366004614730565b610afb565b6040516001600160a01b039091168152602001610330565b34801561039f57600080fd5b506103b36103ae36600461476e565b610b22565b005b3480156103c157600080fd5b506103b36103d03660046147db565b610bae565b3480156103e157600080fd5b506103b36103f03660046148b4565b610ede565b34801561040157600080fd5b5060095461037b906001600160a01b031681565b34801561042157600080fd5b506103b361043036600461494e565b6111c0565b34801561044157600080fd5b5061046261045036600461498f565b600f6020526000908152604090205481565b604051908152602001610330565b34801561047c57600080fd5b506103b361048b3660046149ac565b6111f2565b6103b361049e366004614a39565b61124b565b3480156104af57600080fd5b5061046260065481565b3480156104c557600080fd5b506103b36104d436600461494e565b61142d565b3480156104e557600080fd5b50610462600e5481565b3480156104fb57600080fd5b5061037b61050a366004614730565b611448565b34801561051b57600080fd5b50600b5461037b906001600160a01b031681565b34801561053b57600080fd5b506103b361054a366004614a7e565b611489565b34801561055b57600080fd5b5061037b61056a366004614730565b61149d565b34801561057b57600080fd5b50610462600d5481565b34801561059157600080fd5b506105a56105a0366004614a99565b6114d3565b6040516103309190614b2a565b3480156105be57600080fd5b5061034e61171b565b3480156105d357600080fd5b506104626105e236600461498f565b6117a9565b3480156105f357600080fd5b506103b361181f565b34801561060857600080fd5b50610462610617366004614ca1565b611834565b34801561062857600080fd5b5061037b61063736600461476e565b6001600160a01b03918216600090815260126020908152604080832093835292905220541690565b34801561066b57600080fd5b5061037b7f000000000000000000000000000000000000000000000000000000000000000081565b34801561069f57600080fd5b5061037b6118af565b3480156106b457600080fd5b506104626106c3366004614a39565b61199c565b3480156106d457600080fd5b506104626106e3366004614730565b6119cd565b3480156106f457600080fd5b506103b3610703366004614ff3565b6119f3565b34801561071457600080fd5b5061034e611c42565b34801561072957600080fd5b50600a5461037b906001600160a01b031681565b34801561074957600080fd5b506103b3610758366004614730565b611c51565b34801561076957600080fd5b506103b361077836600461512c565b611c9f565b34801561078957600080fd5b5061079d610798366004614a39565b611cae565b60405161033093929190615165565b3480156107b857600080fd5b506103b36107c73660046151d7565b611f0d565b3480156107d857600080fd5b506103b36107e736600461476e565b61212a565b3480156107f857600080fd5b5061037b7f000000000000000000000000000000000000000000000000000000000000000081565b34801561082c57600080fd5b506103b361083b3660046151f9565b612135565b34801561084c57600080fd5b5060005461087d906001600160a01b03811690600160a01b81046001600160581b031690600160f81b900460ff1683565b604080516001600160a01b0390941684526001600160581b03909216602084015260ff1690820152606001610330565b3480156108b957600080fd5b5060075461037b906001600160a01b031681565b3480156108d957600080fd5b506103b36108e8366004615278565b612168565b3480156108f957600080fd5b5061034e610908366004614730565b6121ec565b34801561091957600080fd5b5061046261092836600461476e565b6123e3565b34801561093957600080fd5b506104626109483660046151d7565b61241f565b34801561095957600080fd5b50600c5461037b906001600160a01b031681565b34801561097957600080fd5b50610462610988366004615336565b612437565b34801561099957600080fd5b5061079d6109a836600461536b565b61246c565b6103b36109bb3660046153a6565b61254f565b3480156109cc57600080fd5b5061034e612606565b3480156109e157600080fd5b506103246109f03660046153e1565b6001600160a01b03918216600090815260056020908152604080832093909416825291909152205460ff1690565b348015610a2a57600080fd5b506103b3610a3936600461498f565b612613565b60006001600160e01b0319821663adc7dfeb60e01b1480610a635750610a638261265f565b92915050565b606060018054610a789061540f565b80601f0160208091040260200160405190810160405280929190818152602001828054610aa49061540f565b8015610af15780601f10610ac657610100808354040283529160200191610af1565b820191906000526020600020905b815481529060010190602001808311610ad457829003601f168201915b5050505050905090565b6000610b06826126f0565b506000908152600460205260409020546001600160a01b031690565b6000610b2d8261149d565b9050806001600160a01b0316836001600160a01b031603610b615760405163133f8be960e01b815260040160405180910390fd5b336001600160a01b03821614801590610b815750610b7f81336109f0565b155b15610b9f5760405163e5fa0e3560e01b815260040160405180910390fd5b610ba98383612725565b505050565b60408051606081018252600080546001600160a01b0381168352600160a01b81046001600160581b031660208401819052600160f81b90910460ff169383019390935260169215610c955760208201516040516331a9108f60e11b81526001600160581b0390911660048201527f00000000000000000000000000000000000000000000000000000000000000006001600160a01b031690636352211e90602401602060405180830381865afa158015610c6c573d6000803e3d6000fd5b505050506040513d601f19601f82011682018060405250810190610c90919061544e565b610c98565b81515b9050610cb28183602001516001600160581b031685612793565b8815610d11576010610cc58a8c836154b1565b508989604051610cd6929190615570565b604051908190038120338252907f7bc9110d5de090dd59e07912d2b93a5a27ac70a60c8d8e324db4f9ee8b8b5c139060200160405180910390a25b8615610d70576011610d24888a836154b1565b508787604051610d35929190615570565b604051908190038120338252907fd36dc0c1a06103fdcaf15f3f6fb797d1a97997514c78de073640c8b5005454b89060200160405180910390a25b6001600160a01b0386163014610e1e57600a5460405163036129cb60e61b81526001600160a01b0388811660048301529091169063d84a72c090602401600060405180830381600087803b158015610dc757600080fd5b505af1158015610ddb573d6000803e3d6000fd5b50506040513381526001600160a01b03891692507fe7784d93cfbfa4408e19577e6cc0436f4dbb51214b70e100905dfce9def88c16915060200160405180910390a25b600085118015610e2d57508315155b15610ed257600a546040516324de8d6360e11b815260048101879052602481018690526001600160a01b03909116906349bd1ac690604401600060405180830381600087803b158015610e7f57600080fd5b505af1158015610e93573d6000803e3d6000fd5b5050604080518781523360208201528893507f677da4fed654db8e604791fa2582f342e2001aa217e27f6985eb3e0f67e5a7fc92500160405180910390a25b50505050505050505050565b60408051606081018252600080546001600160a01b0381168352600160a01b81046001600160581b031660208401819052600160f81b90910460ff169383019390935260159215610fc55760208201516040516331a9108f60e11b81526001600160581b0390911660048201527f00000000000000000000000000000000000000000000000000000000000000006001600160a01b031690636352211e90602401602060405180830381865afa158015610f9c573d6000803e3d6000fd5b505050506040513d601f19601f82011682018060405250810190610fc0919061544e565b610fc8565b81515b9050610fe28183602001516001600160581b031685612793565b858480156110b257600a546040516320512ba160e01b81526001600160a01b03909116906320512ba19061101c908a908a90600401615580565b600060405180830381600087803b15801561103657600080fd5b505af115801561104a573d6000803e3d6000fd5b5050505060005b818110156110b05787878281811061106b5761106b6155b9565b60405133815260209182029390930135927f832d89d991be5351d793c20faf4b7dd44f8aa9ce39e3cb160c6317de6fbba72992500160405180910390a2600101611051565b505b81156111b557600a546040516386a5100760e01b81526000916001600160a01b0316906386a51007906110eb908d908d90600401615700565b6000604051808303816000875af115801561110a573d6000803e3d6000fd5b505050506040513d6000823e601f3d908101601f19168201604052611132919081019061579e565b905060005b838110156111b257818181518110611151576111516155b9565b60200260200101517f94fa90e7e0c9e633db6056cdda599aa1c789587d7971ed761612032de6237c7f8c8c8481811061118c5761118c6155b9565b90506101c00201336040516111a29291906157d2565b60405180910390a2600101611137565b50505b505050505050505050565b6111ca3382612911565b6111e75760405163e5fa0e3560e01b815260040160405180910390fd5b610ba983838361298f565b8060005b81811015611245576000848483818110611212576112126155b9565b90506040020180360381019061122891906157fa565b905061123c81600001518260200151611f0d565b506001016111f6565b50505050565b341515806112cd5750600754600654604051636e49181f60e01b815260048101919091523360248201526001600160a01b0390911690636e49181f90604401602060405180830381865afa1580156112a7573d6000803e3d6000fd5b505050506040513d601f19601f820116820180604052508101906112cb9190615853565b155b806112de5750600654816020013514155b156112fc57604051633efca5c360e11b815260040160405180910390fd5b602461130c6101c0830183615870565b90501080611350575063fbb38e0360e01b61132b6101c0830183615870565b61133a916024916020916158b6565b611343916158e0565b6001600160e01b03191614155b1561136e57604051632a84050f60e01b815260040160405180910390fd5b600061137e6101c0830183615870565b81019061138b9190615910565b925050506000815190506000805b82811015611423578381815181106113b3576113b36155b9565b602002602001015191508460000160208101906113d0919061498f565b6000838152600360205260409020546001600160a01b0390811691161461141257604051635caf197560e01b8152600481018390526024015b60405180910390fd5b61141b82612a68565b600101611399565b5061124583612ae9565b610ba983838360405180602001604052806000815250612135565b6000818152600860205260408120546001600160a01b0316801561146c5792915050565b50506000908152600360205260409020546001600160a01b031690565b611491612b4e565b61149a81612c58565b50565b6000818152600360205260408120546001600160a01b031680610a635760405163b49aa3b560e01b815260040160405180910390fd5b6040805160608082018352600080546001600160a01b0381168452600160a01b81046001600160581b031660208501819052600160f81b90910460ff169484019490945290926018929190156115bf5760208201516040516331a9108f60e11b81526001600160581b0390911660048201527f00000000000000000000000000000000000000000000000000000000000000006001600160a01b031690636352211e90602401602060405180830381865afa158015611596573d6000803e3d6000fd5b505050506040513d601f19601f820116820180604052508101906115ba919061544e565b6115c2565b81515b90506115dc8183602001516001600160581b031685612793565b600a5460405163eaa19ab360e01b81526001600160a01b039091169063eaa19ab39061161590600019908b908b90600190600401615968565b6000604051808303816000875af1158015611634573d6000803e3d6000fd5b505050506040513d6000823e601f3d908101601f1916820160405261165c91908101906159c5565b509350856000805b8281101561170e5786818151811061167e5761167e6155b9565b602002602001015191506116928883612cae565b876001600160a01b03168a8a838181106116ae576116ae6155b9565b90506020020160208101906116c39190615a0b565b604080516000815233602082015261ffff929092169185917f598baf7bf150ca2f42be9e9f8f55e81d45f5715c3ff22bf46d697fabec7f31d6910160405180910390a4600101611664565b5050505050509392505050565b601080546117289061540f565b80601f01602080910402602001604051908101604052809291908181526020018280546117549061540f565b80156117a15780601f10611776576101008083540402835291602001916117a1565b820191906000526020600020905b81548152906001019060200180831161178457829003601f168201915b505050505081565b600a54604051633de222bb60e21b81523060048201526001600160a01b038381166024830152600092169063f7888aec906044015b602060405180830381865afa1580156117fb573d6000803e3d6000fd5b505050506040513d601f19601f82011682018060405250810190610a639190615a26565b611827612b4e565b611832600080612d78565b565b600a5460405163051330b560e21b81526000916001600160a01b03169063144cc2d4906118679030908790600401615a3f565b602060405180830381865afa158015611884573d6000803e3d6000fd5b505050506040513d601f19601f820116820180604052508101906118a89190615a26565b9392505050565b60408051606081018252600080546001600160a01b0381168352600160a01b81046001600160581b031660208401819052600160f81b90910460ff16938301939093529182036118ff5751919050565b60208101516040516331a9108f60e11b81526001600160581b0390911660048201527f00000000000000000000000000000000000000000000000000000000000000006001600160a01b031690636352211e90602401602060405180830381865afa158015611972573d6000803e3d6000fd5b505050506040513d601f19601f82011682018060405250810190611996919061544e565b91505090565b600a54604051631572f24960e11b81523060048201526000916001600160a01b031690632ae5e492906024016117de565b60008181526014602052604081206119e490612fb4565b6001600160e01b031692915050565b6009546001600160a01b03163003611a0a57600080fd5b600a546001600160a01b031615611a2057600080fd5b611a2c8b8b8b8b612ffc565b600b80546001600160a01b03808a166001600160a01b031992831617909255600a80548584169083161790556020850151600d556040850151600e556060850151600c8054919093169116179055855115611a8f576010611a8d8782615a63565b505b835115611aa4576011611aa28582615a63565b505b6001600160a01b03851615611b0f5760405163036129cb60e61b81526001600160a01b03868116600483015283169063d84a72c090602401600060405180830381600087803b158015611af657600080fd5b505af1158015611b0a573d6000803e3d6000fd5b505050505b82515115611b8d5782516040516386a5100760e01b81526001600160a01b038416916386a5100791611b449190600401615b22565b6000604051808303816000875af1158015611b63573d6000803e3d6000fd5b505050506040513d6000823e601f3d908101601f19168201604052611b8b919081019061579e565b505b805180611b9b575080602001515b80611ba7575080604001515b80611bb3575080606001515b15611c3957604080516365c13f1960e11b815282511515600482015260208301511515602482015290820151151560448201526060820151151560648201526001600160a01b0383169063cb827e3290608401600060405180830381600087803b158015611c2057600080fd5b505af1158015611c34573d6000803e3d6000fd5b505050505b6111b233612654565b606060028054610a789061540f565b611c59612b4e565b801580611c6c57506001600160581b0381115b15611c94576040516324abfd1160e11b81526000600482015260248101829052604401611409565b61149a600082612d78565b611caa33838361302f565b5050565b6000606080608084013515611cd6576040516309f82f1b60e31b815260040160405180910390fd5b6024611ce66101c0860186615870565b90501080611d2a575063fbb38e0360e01b611d056101c0860186615870565b611d14916024916020916158b6565b611d1d916158e0565b6001600160e01b03191614155b15611d4857604051632a84050f60e01b815260040160405180910390fd5b60408051600180825281830190925290816020015b6040805180820190915260008082526020820152815260200190600190039081611d5d5790505090506040518060400160405280306001600160a01b03168152602001600081525081600081518110611db857611db86155b9565b60209081029190910101526000611dd36101c0860186615870565b810190611de09190615910565b925050506000611df08287611834565b90506000611dfd8761199c565b90506000611e108860c0013584846130ce565b905061271088610180013503611e7b5780611e2f6101a08a018a615870565b8782828080601f016020809104026020016040519081016040528093929190818152602001838380828437600092019190915250969d50919b50919950611f0698505050505050505050565b611eb181611e9a85611e946101808d0135612710615c44565b866130ce565b611ea9906101808c0135615c57565b6127106130ce565b611ebf6101a08a018a615870565b8782828080601f016020809104026020016040519081016040528093929190818152602001838380828437600092019190915250969d50919b509199505050505050505050505b9193909250565b600b546006546040516321d1336160e11b815260048101919091526000916001600160a01b0316906343a266c29060240161012060405180830381865afa158015611f5c573d6000803e3d6000fd5b505050506040513d601f19601f82011682018060405250810190611f809190615c6a565b61010081015190915060f51c600190811603611faf57604051631d2c125760e31b815260040160405180910390fd5b600a54604051635d53f40760e11b815260048101859052602481018490526000916001600160a01b03169063baa7e80e906044016000604051808303816000875af1158015612002573d6000803e3d6000fd5b505050506040513d6000823e601f3d908101601f1916820160405261202a919081019061579e565b600a546040516304db994760e21b8152306004820152602481018790529192506000916001600160a01b039091169063136e651c90604401602060405180830381865afa15801561207f573d6000803e3d6000fd5b505050506040513d601f19601f820116820180604052508101906120a3919061544e565b90506000805b85811015612121578381815181106120c3576120c36155b9565b602002602001015191506120d78383612cae565b6040513381526001600160a01b03841690889084907f031e1988c95a91ec4d655ff63a8f87a80bc9daf28d95ae10ee08c0022cfb5c8b9060200160405180910390a46001016120a9565b50505050505050565b611caa33838361319b565b61213f3383612911565b61215c5760405163e5fa0e3560e01b815260040160405180910390fd5b6112458484848461321a565b8051604080518082019091526000808252602082015260005b828110156112455783818151811061219b5761219b6155b9565b602090810291909101015180519092506001600160a01b03166121d1576040516314f4c13d60e21b815260040160405180910390fd5b6121e4338360000151846020015161319b565b600101612181565b600a54604051630fab094760e01b81523060048201526060916000916001600160a01b0390911690630fab094790602401602060405180830381865afa15801561223a573d6000803e3d6000fd5b505050506040513d601f19601f8201168201806040525081019061225e919061544e565b90506001600160a01b038116156122dc57604051636d02a25560e11b8152600481018490526001600160a01b0382169063da0544aa90602401600060405180830381865afa1580156122b4573d6000803e3d6000fd5b505050506040513d6000823e601f3d908101601f191682016040526118a89190810190615d2f565b6118a8601080546122ec9061540f565b80601f01602080910402602001604051908101604052809291908181526020018280546123189061540f565b80156123655780601f1061233a57610100808354040283529160200191612365565b820191906000526020600020905b81548152906001019060200180831161234857829003601f168201915b5050600a54604051630c8df17160e41b8152306004820152602481018a90526001600160a01b03909116935063c8df171092506044019050602060405180830381865afa1580156123ba573d6000803e3d6000fd5b505050506040513d601f19601f820116820180604052508101906123de9190615a26565b61324e565b6001600160a01b0382166000908152601360209081526040808320848452909152812061240f90612fb4565b6001600160e01b03169392505050565b60008281526014602052604081206118a890836132b5565b6001600160a01b0383166000908152601360209081526040808320858452909152812061246490836132b5565b949350505050565b610120810135606080612483610160850185615870565b8080601f016020809104026020016040519081016040528093929190818152602001838380828437600092019190915250929450600192506124c3915050565b60405190808252806020026020018201604052801561250857816020015b60408051808201909152600080825260208201528152602001906001900390816124e15790505b5090506040518060400160405280306001600160a01b0316815260200160008152508160008151811061253d5761253d6155b9565b60200260200101819052509193909250565b600654341515806125d05750600754604051636e49181f60e01b8152600481018390523360248201526001600160a01b0390911690636e49181f90604401602060405180830381865afa1580156125aa573d6000803e3d6000fd5b505050506040513d601f19601f820116820180604052508101906125ce9190615853565b155b806125df575080826020013514155b156125fd576040516331c57b1b60e21b815260040160405180910390fd5b611caa82613368565b601180546117289061540f565b61261b612b4e565b6001600160a01b038116612654576040516324abfd1160e11b81526001600160a01b038216600482015260006024820152604401611409565b61149a816000612d78565b60006001600160e01b0319821663fbb38e0360e01b148061269057506001600160e01b031982166371700c6960e01b145b806126ab57506001600160e01b0319821663da9ee8b760e01b145b806126c657506001600160e01b03198216632b13c58f60e01b145b806126e157506001600160e01b0319821663152a902d60e11b145b80610a635750610a638261379d565b6000818152600360205260409020546001600160a01b031661149a5760405163b49aa3b560e01b815260040160405180910390fd5b600081815260046020526040902080546001600160a01b0319166001600160a01b038416908117909155819061275a8261149d565b6001600160a01b03167f8c5be1e5ebec7d5bd14f71427d1e84f3dd0314c0f7b2291e5b200ac8c7c3b92560405160405180910390a45050565b336001600160a01b038416811480159061284a575060405163c161c93f60e01b81526001600160a01b038281166004830152858116602483015260448201859052606482018490527f0000000000000000000000000000000000000000000000000000000000000000169063c161c93f90608401602060405180830381865afa158015612824573d6000803e3d6000fd5b505050506040513d601f19601f820116820180604052508101906128489190615853565b155b80156128f3575060405163c161c93f60e01b81526001600160a01b038281166004830152858116602483015260006044830152606482018490527f0000000000000000000000000000000000000000000000000000000000000000169063c161c93f90608401602060405180830381865afa1580156128cd573d6000803e3d6000fd5b505050506040513d601f19601f820116820180604052508101906128f19190615853565b155b156112455760405163075fd2b160e01b815260040160405180910390fd5b60008061291d8361149d565b9050806001600160a01b0316846001600160a01b0316148061296457506001600160a01b0380821660009081526005602090815260408083209388168352929052205460ff165b806124645750836001600160a01b031661297d84610afb565b6001600160a01b031614949350505050565b826001600160a01b03166129a28261149d565b6001600160a01b0316146129c95760405163a195bc5360e01b815260040160405180910390fd5b6001600160a01b0382166129f057604051632c95542760e01b815260040160405180910390fd5b6129fb8383836137ed565b612a06600082612725565b60008181526003602052604080822080546001600160a01b0319166001600160a01b0386811691821790925591518493918716917fddf252ad1be2c89b69c2b068fc378daa952ba7f163c4a11628f55a4df523b3ef91a4610ba9838383613982565b6000612a738261149d565b9050612a81816000846137ed565b612a8c600083612725565b60008281526003602052604080822080546001600160a01b0319169055518391906001600160a01b038416907fddf252ad1be2c89b69c2b068fc378daa952ba7f163c4a11628f55a4df523b3ef908390a4611caa81600084613982565b600a546040516386bc2be360e01b81526001600160a01b03909116906386bc2be390612b19908490600401614b2a565b600060405180830381600087803b158015612b3357600080fd5b505af1158015612b47573d6000803e3d6000fd5b5050505050565b60408051606081018252600080546001600160a01b0381168352600160a01b81046001600160581b031660208401819052600160f81b90910460ff1693830193909352909115612c345760208201516040516331a9108f60e11b81526001600160581b0390911660048201527f00000000000000000000000000000000000000000000000000000000000000006001600160a01b031690636352211e90602401602060405180830381865afa158015612c0b573d6000803e3d6000fd5b505050506040513d601f19601f82011682018060405250810190612c2f919061544e565b612c37565b81515b9050611caa8183602001516001600160581b0316846040015160ff16612793565b600080546001600160f81b0316600160f81b60ff8416908102919091179091556040519081527f197cbe84f592e417694036927858418efc958896363c034f9aaa25af88953beb9060200160405180910390a150565b6001600160a01b038216612cd557604051633904578f60e11b815260040160405180910390fd5b6000818152600360205260409020546001600160a01b031615612d0b57604051632eb5f0c360e21b815260040160405180910390fd5b612d17600083836137ed565b60008181526003602052604080822080546001600160a01b0319166001600160a01b03861690811790915590518392907fddf252ad1be2c89b69c2b068fc378daa952ba7f163c4a11628f55a4df523b3ef908290a4611caa60008383613982565b6001600160581b03811615801590612d9857506001600160a01b03821615155b15612dd0576040516324abfd1160e11b81526001600160a01b03831660048201526001600160581b0382166024820152604401611409565b60408051606081018252600080546001600160a01b0381168352600160a01b81046001600160581b031660208401819052600160f81b90910460ff1693830193909352909115612eb65760208201516040516331a9108f60e11b81526001600160581b0390911660048201527f00000000000000000000000000000000000000000000000000000000000000006001600160a01b031690636352211e90602401602060405180830381865afa158015612e8d573d6000803e3d6000fd5b505050506040513d601f19601f82011682018060405250810190612eb1919061544e565b612eb9565b81515b604080516060810182526001600160a01b0387168082526001600160581b0387166020830181905260009290930182905281546001600160f81b03191617600160a01b8302176001600160f81b0316905590915061124590829015612fae576040516331a9108f60e11b81526001600160581b03861660048201527f00000000000000000000000000000000000000000000000000000000000000006001600160a01b031690636352211e90602401602060405180830381865afa158015612f85573d6000803e3d6000fd5b505050506040513d601f19601f82011682018060405250810190612fa9919061544e565b613a7e565b85613a7e565b80546000908015612ff357612fdc83612fce600184615c44565b600091825260209091200190565b5464010000000090046001600160e01b03166118a8565b60009392505050565b6130068282613ac2565b5050600691909155600780546001600160a01b0319166001600160a01b03909216919091179055565b816001600160a01b0316836001600160a01b031603613061576040516306f8139d60e11b815260040160405180910390fd5b6001600160a01b03838116600081815260056020908152604080832094871680845294825291829020805460ff191686151590811790915591519182527f17307eab39ab6107e8899845ad3d59bd9653f200f220920489ca2b5937696c31910160405180910390a3505050565b6000808060001985870985870292508281108382030391505080600003613108578382816130fe576130fe615d63565b04925050506118a8565b83811061313257604051631dcf306360e21b81526004810182905260248101859052604401611409565b60008486880960026001871981018816978890046003810283188082028403028082028403028082028403028082028403028082028403029081029092039091026000889003889004909101858311909403939093029303949094049190911702949350505050565b6001600160a01b03838116600081815260126020908152604080832086845290915280822080548786166001600160a01b0319821681179092559151919094169392849290917f3134e8a2e6d97e929a7e54011ea5485d7d196dd5f0ba4d4ef95803e8e3fc257f9190a46112458184846132158887613adb565b613b1b565b61322584848461298f565b61323184848484613c70565b611245576040516336f57c1b60e11b815260040160405180910390fd5b604051609160f51b6020820152602281018290526060906000906042016040516020818303038152906040529050600061328782613d72565b9050848160405160200161329c929190615d79565b6040516020818303038152906040529250505092915050565b60004382106133065760405162461bcd60e51b815260206004820181905260248201527f436865636b706f696e74733a20626c6f636b206e6f7420796574206d696e65646044820152606401611409565b600061331183613f0a565b8454909150600061332486848385613f73565b905080156133525761333b86612fce600184615c44565b5464010000000090046001600160e01b0316613355565b60005b6001600160e01b03169695505050505050565b600d5460009060c08301350361338357506080810135613439565b600c546001600160a01b031615611caa57600e54613436906080840135906133ac90600a615e8c565b600c54600d54604051635268657960e11b815260c08801356004820152602481019190915260a087013560448201526001600160a01b039091169063a4d0caf290606401602060405180830381865afa15801561340d573d6000803e3d6000fd5b505050506040513d601f19601f820116820180604052508101906134319190615a26565b6130ce565b90505b6000600f816134506101a08601610180870161498f565b6001600160a01b031681526020810191909152604001600090812054915082906134826101a08601610180870161498f565b6001600160a01b0316613498602087018761498f565b6001600160a01b0316036134af57908201906134b2565b50815b600060446134c46101e0880188615870565b9050118015613508575063fbb38e0360e01b6134e46101e0880188615870565b6134f3916044916040916158b6565b6134fc916158e0565b6001600160e01b031916145b156135df57606061351d6101e0880188615870565b81019061352a9190615e98565b909550935084925050811590506135ad5750600a54604051634228826f60e11b81523060048201526001600160a01b039091169063845104de90602401608060405180830381865afa158015613584573d6000803e3d6000fd5b505050506040513d601f19601f820116820180604052508101906135a89190615f6a565b606001515b156135b757600091505b8051156135dd576135da84826135d56101a08b016101808c0161498f565b613fd1565b93505b505b8215613703578061360357604051631b57826960e21b815260040160405180910390fd5b8282018481111561366b576136206101a08801610180890161498f565b6040513381526001600160a01b0391909116908290878203907f2fb2733fb01b76e3290fa8b695d18e026ddd19c0a265ab90e95152e57da303369060200160405180910390a46136cc565b808511156136cc576136856101a08801610180890161498f565b6040513381526001600160a01b0391909116908290818803907fe0e7c81cf67a96dd0e39bcf11521b1f4c0098cc1dbe8c30750a11d9ebfc3ed4d9060200160405180910390a45b80600f60006136e36101a08b016101808c0161498f565b6001600160a01b0316815260208101919091526040016000205550613795565b8184146137955761371c6101a08701610180880161498f565b6001600160a01b0316826137308187615c44565b6040513381527fe0e7c81cf67a96dd0e39bcf11521b1f4c0098cc1dbe8c30750a11d9ebfc3ed4d9060200160405180910390a481600f600061377a6101a08a016101808b0161498f565b6001600160a01b031681526020810191909152604001600020555b505050505050565b60006001600160e01b031982166380ac58cd60e01b14806137ce57506001600160e01b03198216635b5e139f60e01b145b80610a6357506301ffc9a760e01b6001600160e01b0319831614610a63565b6001600160a01b03831615610ba957600a5460405163b67cb04760e01b8152306004820152602481018390526000916001600160a01b03169063b67cb04790604401600060405180830381865afa15801561384c573d6000803e3d6000fd5b505050506040513d6000823e601f3d908101601f191682016040526138749190810190615fee565b90508061018001511561393957600b546006546040516321d1336160e11b815260048101919091526000916001600160a01b0316906343a266c29060240161012060405180830381865afa1580156138d0573d6000803e3d6000fd5b505050506040513d601f19601f820116820180604052508101906138f49190615c6a565b90506001600160a01b03841615801590613919575061010081015160f41c6001908116145b15613937576040516318cdaf9760e01b815260040160405180910390fd5b505b6000828152600860205260409020546001600160a01b031661124557600082815260086020526040902080546001600160a01b0319166001600160a01b03861617905550505050565b600a5460405163b67cb04760e01b8152306004820152602481018390526000916001600160a01b03169063b67cb04790604401600060405180830381865afa1580156139d2573d6000803e3d6000fd5b505050506040513d6000823e601f3d908101601f191682016040526139fa9190810190615fee565b600a5481516040516330b157e560e21b815260048101919091526001600160a01b038781166024830152868116604483015292935091169063c2c55f9490606401600060405180830381600087803b158015613a5557600080fd5b505af1158015613a69573d6000803e3d6000fd5b50505050613a7984848484614113565b611245565b806001600160a01b0316826001600160a01b03167f8be0079c531659141344cd1fd0a4f28419497f9722a3daafe3b4186f6b6457e060405160405180910390a35050565b6001613ace8382615a63565b506002610ba98282615a63565b600a546040516305c9a1d560e31b81523060048201526001600160a01b038481166024830152604482018490526000921690632e4d0ea890606401611867565b826001600160a01b0316846001600160a01b03161480613b39575080155b611245576001600160a01b03841615613bd4576001600160a01b038416600090815260136020908152604080832085845290915281208190613b7e906141318561413d565b60408051838152602081018390523381830152905192945090925085916001600160a01b038916917fed0c1e94c302bdbbd8bbd6a4fb7c3ed335c2292407cd816eadd075d019d0ce04919081900360600190a350505b6001600160a01b03831615611245576001600160a01b038316600090815260136020908152604080832085845290915281208190613c15906141758561413d565b60408051838152602081018390523381830152905192945090925085916001600160a01b038816917fed0c1e94c302bdbbd8bbd6a4fb7c3ed335c2292407cd816eadd075d019d0ce04919081900360600190a3505050505050565b60006001600160a01b0384163b15613d6757604051630a85bd0160e11b81526001600160a01b0385169063150b7a0290613cb4903390899088908890600401616102565b6020604051808303816000875af1925050508015613cef575060408051601f3d908101601f19168201909252613cec9181019061613f565b60015b613d4d573d808015613d1d576040519150601f19603f3d011682016040523d82523d6000602084013e613d22565b606091505b508051600003613d45576040516336f57c1b60e11b815260040160405180910390fd5b805181602001fd5b6001600160e01b031916630a85bd0160e11b149050612464565b506001949350505050565b60608151600003613d9157505060408051600081526020810190915290565b60408051602e8082526105e08201909252600091602082016105c080368337019050509050600081600081518110613dcb57613dcb6155b9565b60ff90921660209283029190910190910152825160019060005b81811015613ee6576000868281518110613e0157613e016155b9565b016020015160f81c905060005b8460ff16811015613e8b576008868281518110613e2d57613e2d6155b9565b602002602001015160ff16901b82613e459190615c57565b9150613e52603a8361615c565b868281518110613e6457613e646155b9565b60ff90921660209283029190910190910152613e81603a83616170565b9150600101613e0e565b505b8015613edd57613e9e603a8261615c565b858560ff1681518110613eb357613eb36155b9565b60ff90921660209283029190910190910152600190930192613ed6603a82616170565b9050613e8d565b50600101613de5565b50613f01613efc613ef78585614181565b614220565b6142c2565b95945050505050565b600063ffffffff821115613f6f5760405162461bcd60e51b815260206004820152602660248201527f53616665436173743a2076616c756520646f65736e27742066697420696e203360448201526532206269747360d01b6064820152608401611409565b5090565b60005b81831015613fc9576000613f8a848461439b565b60008781526020902090915063ffffffff86169082015463ffffffff161115613fb557809250613fc3565b613fc0816001615c57565b93505b50613f76565b509392505050565b600a5460405163eaa19ab360e01b81526000916060916001600160a01b039091169063eaa19ab39061400b90889088908790600401616184565b6000604051808303816000875af115801561402a573d6000803e3d6000fd5b505050506040513d6000823e601f3d908101601f1916820160405261405291908101906159c5565b81519093509091506000805b8281101561410857838181518110614078576140786155b9565b6020026020010151915061408c8683612cae565b856001600160a01b03168782815181106140a8576140a86155b9565b602002602001015161ffff16837f598baf7bf150ca2f42be9e9f8f55e81d45f5715c3ff22bf46d697fabec7f31d68b336040516140f89291909182526001600160a01b0316602082015260400190565b60405180910390a460010161405e565b505050509392505050565b608081015115611245576112458484836000015184608001516143b6565b60006118a88284615c44565b6000806141688561416361415088612fb4565b6001600160e01b0316868863ffffffff16565b614458565b915091505b935093915050565b60006118a88284615c57565b606060008260ff166001600160401b038111156141a0576141a0614b3d565b6040519080825280602002602001820160405280156141c9578160200160208202803683370190505b50905060005b8360ff16811015613fc9578481815181106141ec576141ec6155b9565b6020026020010151828281518110614206576142066155b9565b60ff909216602092830291909101909101526001016141cf565b80516060906000816001600160401b0381111561423f5761423f614b3d565b604051908082528060200260200182016040528015614268578160200160208202803683370190505b50905060005b82811015613fc95784816001875103038151811061428e5761428e6155b9565b60200260200101518282815181106142a8576142a86155b9565b60ff9092166020928302919091019091015260010161426e565b80516060906000816001600160401b038111156142e1576142e1614b3d565b6040519080825280601f01601f19166020018201604052801561430b576020820181803683370190505b50905060005b82811015613fc9576040518060600160405280603a81526020016161e2603a9139858281518110614344576143446155b9565b602002602001015160ff168151811061435f5761435f6155b9565b602001015160f81c60f81b82828151811061437c5761437c6155b9565b60200101906001600160f81b031916908160001a905350600101614311565b60006143aa6002848418616170565b6118a890848416615c57565b6001600160a01b0384166143e25760008281526014602052604090206143df906141758361413d565b50505b6001600160a01b03831661440e57600082815260146020526040902061440b906141318361413d565b50505b6001600160a01b0380851660009081526012602081815260408084208785528252808420548886168552928252808420878552909152909120546112459291821691168484613b1b565b6000806144768461446843613f0a565b6144718661448e565b6144f7565b6001600160e01b0391821693501690505b9250929050565b60006001600160e01b03821115613f6f5760405162461bcd60e51b815260206004820152602760248201527f53616665436173743a2076616c756520646f65736e27742066697420696e20326044820152663234206269747360c81b6064820152608401611409565b82546000908190801561464057600061451587612fce600185615c44565b60408051808201909152905463ffffffff8082168084526401000000009092046001600160e01b0316602084015291925090871610156145975760405162461bcd60e51b815260206004820152601760248201527f436865636b706f696e743a20696e76616c6964206b65790000000000000000006044820152606401611409565b805163ffffffff8088169116036145e057846145b888612fce600186615c44565b80546001600160e01b03929092166401000000000263ffffffff909216919091179055614630565b6040805180820190915263ffffffff80881682526001600160e01b0380881660208085019182528b54600181018d5560008d81529190912094519151909216640100000000029216919091179101555b60200151925083915061416d9050565b50506040805180820190915263ffffffff80851682526001600160e01b0380851660208085019182528854600181018a5560008a81529182209551925190931664010000000002919093161792019190915590508161416d565b6001600160e01b03198116811461149a57600080fd5b6000602082840312156146c257600080fd5b81356118a88161469a565b60005b838110156146e85781810151838201526020016146d0565b50506000910152565b600081518084526147098160208601602086016146cd565b601f01601f19169290920160200192915050565b6020815260006118a860208301846146f1565b60006020828403121561474257600080fd5b5035919050565b6001600160a01b038116811461149a57600080fd5b803561476981614749565b919050565b6000806040838503121561478157600080fd5b823561478c81614749565b946020939093013593505050565b60008083601f8401126147ac57600080fd5b5081356001600160401b038111156147c357600080fd5b60208301915083602082850101111561448757600080fd5b600080600080600080600060a0888a0312156147f657600080fd5b87356001600160401b038082111561480d57600080fd5b6148198b838c0161479a565b909950975060208a013591508082111561483257600080fd5b5061483f8a828b0161479a565b909650945050604088013561485381614749565b969995985093969295946060840135945060809093013592915050565b60008083601f84011261488257600080fd5b5081356001600160401b0381111561489957600080fd5b6020830191508360208260051b850101111561448757600080fd5b600080600080604085870312156148ca57600080fd5b84356001600160401b03808211156148e157600080fd5b818701915087601f8301126148f557600080fd5b81358181111561490457600080fd5b8860206101c08302850101111561491a57600080fd5b60209283019650945090860135908082111561493557600080fd5b5061494287828801614870565b95989497509550505050565b60008060006060848603121561496357600080fd5b833561496e81614749565b9250602084013561497e81614749565b929592945050506040919091013590565b6000602082840312156149a157600080fd5b81356118a881614749565b600080602083850312156149bf57600080fd5b82356001600160401b03808211156149d657600080fd5b818501915085601f8301126149ea57600080fd5b8135818111156149f957600080fd5b8660208260061b8501011115614a0e57600080fd5b60209290920196919550909350505050565b60006101e08284031215614a3357600080fd5b50919050565b600060208284031215614a4b57600080fd5b81356001600160401b03811115614a6157600080fd5b61246484828501614a20565b803560ff8116811461476957600080fd5b600060208284031215614a9057600080fd5b6118a882614a6d565b600080600060408486031215614aae57600080fd5b83356001600160401b03811115614ac457600080fd5b614ad086828701614870565b9094509250506020840135614ae481614749565b809150509250925092565b600081518084526020808501945080840160005b83811015614b1f57815187529582019590820190600101614b03565b509495945050505050565b6020815260006118a86020830184614aef565b634e487b7160e01b600052604160045260246000fd5b604051608081016001600160401b0381118282101715614b7557614b75614b3d565b60405290565b6040516101c081016001600160401b0381118282101715614b7557614b75614b3d565b604080519081016001600160401b0381118282101715614b7557614b75614b3d565b60405161012081016001600160401b0381118282101715614b7557614b75614b3d565b604051601f8201601f191681016001600160401b0381118282101715614c0b57614c0b614b3d565b604052919050565b60006001600160401b03821115614c2c57614c2c614b3d565b5060051b60200190565b600082601f830112614c4757600080fd5b81356020614c5c614c5783614c13565b614be3565b82815260059290921b84018101918181019086841115614c7b57600080fd5b8286015b84811015614c965780358352918301918301614c7f565b509695505050505050565b60008060408385031215614cb457600080fd5b82356001600160401b0380821115614ccb57600080fd5b614cd786838701614c36565b93506020850135915080821115614ced57600080fd5b50614cfa85828601614a20565b9150509250929050565b60006001600160401b03821115614d1d57614d1d614b3d565b50601f01601f191660200190565b6000614d39614c5784614d04565b9050828152838383011115614d4d57600080fd5b828260208301376000602084830101529392505050565b600082601f830112614d7557600080fd5b6118a883833560208501614d2b565b80356001600160581b038116811461476957600080fd5b803564ffffffffff8116811461476957600080fd5b803561ffff8116811461476957600080fd5b801515811461149a57600080fd5b803561476981614dc2565b60006080808385031215614dee57600080fd5b614df6614b53565b915082356001600160401b03811115614e0e57600080fd5b8301601f81018513614e1f57600080fd5b80356020614e2f614c5783614c13565b8281526101c09283028401820192828201919089851115614e4f57600080fd5b948301945b84861015614f665780868b031215614e6c5760008081fd5b614e74614b7b565b614e7d87614d84565b8152614e8a858801614d9b565b858201526040614e9b818901614d9b565b908201526060614eac888201614db0565b90820152614ebb87890161475e565b8882015260a0614ecc818901614a6d565b9082015260c0614edd88820161475e565b9082015260e08781013590820152610100614ef9818901614db0565b90820152610120614f0b888201614dd0565b90820152610140614f1d888201614dd0565b90820152610160614f2f888201614dd0565b90820152610180614f41888201614dd0565b908201526101a0614f53888201614dd0565b9082015283529485019491830191614e54565b50865250858101359085015250505060408083013590820152614f8b6060830161475e565b606082015292915050565b600060808284031215614fa857600080fd5b614fb0614b53565b90508135614fbd81614dc2565b81526020820135614fcd81614dc2565b60208201526040820135614fe081614dc2565b60408201526060820135614f8b81614dc2565b60008060008060008060008060008060006101c08c8e03121561501557600080fd5b8b359a5061502560208d0161475e565b99506001600160401b038060408e0135111561504057600080fd5b6150508e60408f01358f01614d64565b99508060608e0135111561506357600080fd5b6150738e60608f01358f01614d64565b985061508160808e0161475e565b97508060a08e0135111561509457600080fd5b6150a48e60a08f01358f01614d64565b96506150b260c08e0161475e565b95508060e08e013511156150c557600080fd5b6150d58e60e08f01358f01614d64565b9450806101008e013511156150e957600080fd5b506150fb8d6101008e01358e01614ddb565b925061510a6101208d0161475e565b915061511a8d6101408e01614f96565b90509295989b509295989b9093969950565b6000806040838503121561513f57600080fd5b823561514a81614749565b9150602083013561515a81614dc2565b809150509250929050565b8381526000602060608184015261517f60608401866146f1565b83810360408581019190915285518083528387019284019060005b818110156151c857845180516001600160a01b0316845286015186840152938501939183019160010161519a565b50909998505050505050505050565b600080604083850312156151ea57600080fd5b50508035926020909101359150565b6000806000806080858703121561520f57600080fd5b843561521a81614749565b9350602085013561522a81614749565b92506040850135915060608501356001600160401b0381111561524c57600080fd5b8501601f8101871361525d57600080fd5b61526c87823560208401614d2b565b91505092959194509250565b6000602080838503121561528b57600080fd5b82356001600160401b038111156152a157600080fd5b8301601f810185136152b257600080fd5b80356152c0614c5782614c13565b81815260069190911b820183019083810190878311156152df57600080fd5b928401925b8284101561532b57604084890312156152fd5760008081fd5b615305614b9e565b843561531081614749565b815284860135868201528252604090930192908401906152e4565b979650505050505050565b60008060006060848603121561534b57600080fd5b833561535681614749565b95602085013595506040909401359392505050565b60006020828403121561537d57600080fd5b81356001600160401b0381111561539357600080fd5b82016101a081850312156118a857600080fd5b6000602082840312156153b857600080fd5b81356001600160401b038111156153ce57600080fd5b820161020081850312156118a857600080fd5b600080604083850312156153f457600080fd5b82356153ff81614749565b9150602083013561515a81614749565b600181811c9082168061542357607f821691505b602082108103614a3357634e487b7160e01b600052602260045260246000fd5b805161476981614749565b60006020828403121561546057600080fd5b81516118a881614749565b601f821115610ba957600081815260208120601f850160051c810160208610156154925750805b601f850160051c820191505b818110156137955782815560010161549e565b6001600160401b038311156154c8576154c8614b3d565b6154dc836154d6835461540f565b8361546b565b6000601f84116001811461551057600085156154f85750838201355b600019600387901b1c1916600186901b178355612b47565b600083815260209020601f19861690835b828110156155415786850135825560209485019460019092019101615521565b508682101561555e5760001960f88860031b161c19848701351681555b505060018560011b0183555050505050565b8183823760009101908152919050565b6020808252810182905260006001600160fb1b038311156155a057600080fd5b8260051b80856040850137919091016040019392505050565b634e487b7160e01b600052603260045260246000fd5b6155e9826155dc83614d84565b6001600160581b03169052565b6155f560208201614d9b565b64ffffffffff16602083015261560d60408201614d9b565b64ffffffffff16604083015261562560608201614db0565b61ffff16606083015261563a6080820161475e565b6001600160a01b0316608083015261565460a08201614a6d565b60ff1660a083015261566860c0820161475e565b6001600160a01b031660c083015260e0818101359083015261010061568e818301614db0565b61ffff16908301526101206156a4828201614dd0565b1515908301526101406156b8828201614dd0565b1515908301526101606156cc828201614dd0565b1515908301526101806156e0828201614dd0565b1515908301526101a06156f4828201614dd0565b80151584830152611245565b6020808252810182905260008360408301825b858110156157395761572582846155cf565b6101c0928301929190910190600101615713565b5095945050505050565b600082601f83011261575457600080fd5b81516020615764614c5783614c13565b82815260059290921b8401810191818101908684111561578357600080fd5b8286015b84811015614c965780518352918301918301615787565b6000602082840312156157b057600080fd5b81516001600160401b038111156157c657600080fd5b61246484828501615743565b6101e081016157e182856155cf565b6001600160a01b03929092166101c09190910152919050565b60006040828403121561580c57600080fd5b604051604081018181106001600160401b038211171561582e5761582e614b3d565b604052823581526020928301359281019290925250919050565b805161476981614dc2565b60006020828403121561586557600080fd5b81516118a881614dc2565b6000808335601e1984360301811261588757600080fd5b8301803591506001600160401b038211156158a157600080fd5b60200191503681900382131561448757600080fd5b600080858511156158c657600080fd5b838611156158d357600080fd5b5050820193919092039150565b6001600160e01b031981358181169160048510156159085780818660040360031b1b83161692505b505092915050565b60008060006060848603121561592557600080fd5b8335925060208401356159378161469a565b915060408401356001600160401b0381111561595257600080fd5b61595e86828701614c36565b9150509250925092565b84815260606020808301829052908201849052600090859060808401835b878110156159ad5761ffff61599a85614db0565b1682529282019290820190600101615986565b50809350505050821515604083015295945050505050565b600080604083850312156159d857600080fd5b82516001600160401b038111156159ee57600080fd5b6159fa85828601615743565b925050602083015190509250929050565b600060208284031215615a1d57600080fd5b6118a882614db0565b600060208284031215615a3857600080fd5b5051919050565b6001600160a01b038316815260406020820181905260009061246490830184614aef565b81516001600160401b03811115615a7c57615a7c614b3d565b615a9081615a8a845461540f565b8461546b565b602080601f831160018114615ac55760008415615aad5750858301515b600019600386901b1c1916600185901b178555613795565b600085815260208120601f198616915b82811015615af457888601518255948401946001909101908401615ad5565b5085821015615b125787850151600019600388901b60f8161c191681555b5050505050600190811b01905550565b602080825282518282018190526000919060409081850190868401855b82811015615c2157815180516001600160581b031685528681015164ffffffffff9081168887015286820151168686015260608082015161ffff908116918701919091526080808301516001600160a01b039081169188019190915260a08084015160ff169088015260c0808401519091169087015260e080830151908701526101008083015190911690860152610120808201511515908601526101408082015115159086015261016080820151151590860152610180808201511515908601526101a0908101511515908501526101c09093019290850190600101615b3f565b5091979650505050505050565b634e487b7160e01b600052601160045260246000fd5b81810381811115610a6357610a63615c2e565b80820180821115610a6357610a63615c2e565b60006101208284031215615c7d57600080fd5b615c85614bc0565b825181526020830151602082015260408301516040820152606083015160608201526080830151608082015260a083015160a082015260c083015160c0820152615cd160e08401615443565b60e0820152610100928301519281019290925250919050565b600082601f830112615cfb57600080fd5b8151615d09614c5782614d04565b818152846020838601011115615d1e57600080fd5b6124648260208301602087016146cd565b600060208284031215615d4157600080fd5b81516001600160401b03811115615d5757600080fd5b61246484828501615cea565b634e487b7160e01b600052601260045260246000fd5b60008351615d8b8184602088016146cd565b835190830190615d9f8183602088016146cd565b01949350505050565b600181815b80851115615de3578160001904821115615dc957615dc9615c2e565b80851615615dd657918102915b93841c9390800290615dad565b509250929050565b600082615dfa57506001610a63565b81615e0757506000610a63565b8160018114615e1d5760028114615e2757615e43565b6001915050610a63565b60ff841115615e3857615e38615c2e565b50506001821b610a63565b5060208310610133831016604e8410600b8410161715615e66575081810a610a63565b615e708383615da8565b8060001904821115615e8457615e84615c2e565b029392505050565b60006118a88383615deb565b600080600080600060a08688031215615eb057600080fd5b8535945060208087013594506040870135615eca8161469a565b93506060870135615eda81614dc2565b925060808701356001600160401b03811115615ef557600080fd5b8701601f81018913615f0657600080fd5b8035615f14614c5782614c13565b81815260059190911b8201830190838101908b831115615f3357600080fd5b928401925b82841015615f5857615f4984614db0565b82529284019290840190615f38565b80955050505050509295509295909350565b600060808284031215615f7c57600080fd5b604051608081018181106001600160401b0382111715615f9e57615f9e614b3d565b6040528251615fac81614dc2565b81526020830151615fbc81614dc2565b60208201526040830151615fcf81614dc2565b60408201526060830151615fe281614dc2565b60608201529392505050565b60006020828403121561600057600080fd5b81516001600160401b038082111561601757600080fd5b908301906101c0828603121561602c57600080fd5b616034614b7b565b825181526020830151602082015260408301516040820152606083015160608201526080830151608082015260a083015160a082015261607660c08401615443565b60c082015260e083015160e0820152610100616093818501615443565b90820152610120838101519082015261014080840151908201526101606160bb818501615848565b908201526101806160cd848201615848565b908201526101a083810151838111156160e557600080fd5b6160f188828701615cea565b918301919091525095945050505050565b6001600160a01b0385811682528416602082015260408101839052608060608201819052600090616135908301846146f1565b9695505050505050565b60006020828403121561615157600080fd5b81516118a88161469a565b60008261616b5761616b615d63565b500690565b60008261617f5761617f615d63565b500490565b6000606082018583526020606081850152818651808452608086019150828801935060005b818110156161c957845161ffff16835293830193918301916001016161a9565b5050809350505050821515604083015294935050505056fe31323334353637383941424344454647484a4b4c4d4e505152535455565758595a6162636465666768696a6b6d6e6f707172737475767778797aa26469706673582212205a72c6570048e943f7ec9d0f21cddb0f234ddce9a5dcf3bfa255eb3c5a1419e864736f6c63430008110033",
    "linkReferences": {}
  },
  "methodIdentifiers": {
    "adjustTiers((uint88,uint40,uint40,uint16,address,uint8,address,bytes32,uint16,bool,bool,bool,bool,bool)[],uint256[])": "14ea9b06",
    "approve(address,uint256)": "095ea7b3",
    "balanceOf(address)": "70a08231",
    "baseURI()": "6c0360eb",
    "codeOrigin()": "1d153ca4",
    "contractURI()": "e8a3d485",
    "creditsOf(address)": "245a45b5",
    "didPay((address,uint256,uint256,(address,uint256,uint256,uint256),(address,uint256,uint256,uint256),uint256,address,bool,string,bytes))": "da9ee8b7",
    "didRedeem((address,uint256,uint256,uint256,(address,uint256,uint256,uint256),(address,uint256,uint256,uint256),address,string,bytes))": "2b13c58f",
    "directory()": "c41c2f24",
    "firstOwnerOf(uint256)": "54c6d1f5",
    "fundingCycleStore()": "557e7155",
    "getApproved(uint256)": "081812fc",
    "getPastTierTotalVotes(uint256,uint256)": "d31cc52c",
    "getPastTierVotes(address,uint256,uint256)": "d40e7146",
    "getTierDelegate(address,uint256)": "82732b6d",
    "getTierTotalVotes(uint256)": "94c5c5ca",
    "getTierVotes(address,uint256)": "ca323efe",
    "initialize(uint256,address,string,string,address,string,address,string,((uint88,uint40,uint40,uint16,address,uint8,address,bytes32,uint16,bool,bool,bool,bool,bool)[],uint256,uint256,address),address,(bool,bool,bool,bool))": "9521e381",
    "isApprovedForAll(address,address)": "e985e9c5",
    "jbOwner()": "ba23c36e",
    "mintFor(uint16[],address)": "6ac6d941",
    "mintReservesFor((uint256,uint256)[])": "2a596e53",
    "mintReservesFor(uint256,uint256)": "aa4fb15b",
    "name()": "06fdde03",
    "operatorStore()": "ad007d63",
    "owner()": "8da5cb5b",
    "ownerOf(uint256)": "6352211e",
    "payParams((address,address,(address,uint256,uint256,uint256),uint256,uint256,address,uint256,uint256,string,bytes))": "d46cf171",
    "prices()": "d3419bf3",
    "pricingCurrency()": "64640c1e",
    "pricingDecimals()": "4ecba625",
    "projectId()": "3fafa127",
    "projects()": "8b79543c",
    "redeemParams((address,address,uint256,uint256,uint256,uint256,uint256,(address,uint256,uint256,uint256),bool,uint256,string,bytes))": "a51cfd18",
    "redemptionWeightOf(uint256[],(address,address,uint256,uint256,uint256,uint256,uint256,(address,uint256,uint256,uint256),bool,uint256,string,bytes))": "7ba62bf9",
    "renounceOwnership()": "715018a6",
    "safeTransferFrom(address,address,uint256)": "42842e0e",
    "safeTransferFrom(address,address,uint256,bytes)": "b88d4fde",
    "setApprovalForAll(address,bool)": "a22cb465",
    "setMetadata(string,string,address,uint256,bytes32)": "1435aad5",
    "setPermissionIndex(uint8)": "61aec7a9",
    "setTierDelegate(address,uint256)": "ab951e39",
    "setTierDelegates((address,uint256)[])": "c74b13d9",
    "store()": "975057e7",
    "supportsInterface(bytes4)": "01ffc9a7",
    "symbol()": "95d89b41",
    "tokenURI(uint256)": "c87b56dd",
    "totalRedemptionWeight((address,address,uint256,uint256,uint256,uint256,uint256,(address,uint256,uint256,uint256),bool,uint256,string,bytes))": "9494bf72",
    "transferFrom(address,address,uint256)": "23b872dd",
    "transferOwnership(address)": "f2fde38b",
    "transferOwnershipToProject(uint256)": "a220d696"
  },
  "id": 1
}