{
  "abi": [
    {
      "inputs": [],
      "name": "ALEADY_MINTED",
      "type": "error"
    },
    {
      "inputs": [],
      "name": "APPROVAL_TO_CURRENT_OWNER",
      "type": "error"
    },
    {
      "inputs": [],
      "name": "APPROVE_TO_CALLER",
      "type": "error"
    },
    {
      "inputs": [],
      "name": "BLOCK_NOT_YET_MINED",
      "type": "error"
    },
    {
      "inputs": [],
      "name": "CALLER_NOT_OWNER_OR_APPROVED",
      "type": "error"
    },
    {
      "inputs": [],
      "name": "INCORRECT_OWNER",
      "type": "error"
    },
    {
      "inputs": [],
      "name": "INVALID_PAYMENT_EVENT",
      "type": "error"
    },
    {
      "inputs": [],
      "name": "INVALID_REDEMPTION_EVENT",
      "type": "error"
    },
    {
      "inputs": [],
      "name": "INVALID_REDEMPTION_METADATA",
      "type": "error"
    },
    {
      "inputs": [],
      "name": "INVALID_TOKEN_ID",
      "type": "error"
    },
    {
      "inputs": [],
      "name": "MINT_TO_ZERO",
      "type": "error"
    },
    {
      "inputs": [],
      "name": "NOT_AVAILABLE",
      "type": "error"
    },
    {
      "inputs": [],
      "name": "OVERSPENDING",
      "type": "error"
    },
    {
      "inputs": [
        {
          "internalType": "uint256",
          "name": "prod1",
          "type": "uint256"
        },
        {
          "internalType": "uint256",
          "name": "denominator",
          "type": "uint256"
        }
      ],
      "name": "PRBMath__MulDivOverflow",
      "type": "error"
    },
    {
      "inputs": [],
      "name": "PRICING_RESOLVER_CHANGES_PAUSED",
      "type": "error"
    },
    {
      "inputs": [],
      "name": "RESERVED_TOKEN_MINTING_PAUSED",
      "type": "error"
    },
    {
      "inputs": [],
      "name": "TRANSFERS_PAUSED",
      "type": "error"
    },
    {
      "inputs": [],
      "name": "TRANSFER_TO_NON_IMPLEMENTER",
      "type": "error"
    },
    {
      "inputs": [],
      "name": "TRANSFER_TO_ZERO_ADDRESS",
      "type": "error"
    },
    {
      "inputs": [],
      "name": "UNAUTHORIZED",
      "type": "error"
    },
    {
      "inputs": [],
      "name": "UNEXPECTED_TOKEN_REDEEMED",
      "type": "error"
    },
    {
      "anonymous": false,
      "inputs": [
        {
          "indexed": true,
          "internalType": "uint256",
          "name": "tierId",
          "type": "uint256"
        },
        {
          "components": [
            {
              "internalType": "uint256",
              "name": "contributionFloor",
              "type": "uint256"
            },
            {
              "internalType": "uint256",
              "name": "lockedUntil",
              "type": "uint256"
            },
            {
              "internalType": "uint256",
              "name": "initialQuantity",
              "type": "uint256"
            },
            {
              "internalType": "uint256",
              "name": "votingUnits",
              "type": "uint256"
            },
            {
              "internalType": "uint256",
              "name": "reservedRate",
              "type": "uint256"
            },
            {
              "internalType": "address",
              "name": "reservedTokenBeneficiary",
              "type": "address"
            },
            {
              "internalType": "bytes32",
              "name": "encodedIPFSUri",
              "type": "bytes32"
            },
            {
              "internalType": "bool",
              "name": "allowManualMint",
              "type": "bool"
            },
            {
              "internalType": "bool",
              "name": "shouldUseBeneficiaryAsDefault",
              "type": "bool"
            }
          ],
          "indexed": false,
          "internalType": "struct JB721TierParams",
          "name": "data",
          "type": "tuple"
        },
        {
          "indexed": false,
          "internalType": "address",
          "name": "caller",
          "type": "address"
        }
      ],
      "name": "AddTier",
      "type": "event"
    },
    {
      "anonymous": false,
      "inputs": [
        {
          "indexed": true,
          "internalType": "address",
          "name": "owner",
          "type": "address"
        },
        {
          "indexed": true,
          "internalType": "address",
          "name": "approved",
          "type": "address"
        },
        {
          "indexed": true,
          "internalType": "uint256",
          "name": "tokenId",
          "type": "uint256"
        }
      ],
      "name": "Approval",
      "type": "event"
    },
    {
      "anonymous": false,
      "inputs": [
        {
          "indexed": true,
          "internalType": "address",
          "name": "owner",
          "type": "address"
        },
        {
          "indexed": true,
          "internalType": "address",
          "name": "operator",
          "type": "address"
        },
        {
          "indexed": false,
          "internalType": "bool",
          "name": "approved",
          "type": "bool"
        }
      ],
      "name": "ApprovalForAll",
      "type": "event"
    },
    {
      "anonymous": false,
      "inputs": [
        {
          "indexed": true,
          "internalType": "address",
          "name": "delegator",
          "type": "address"
        },
        {
          "indexed": true,
          "internalType": "address",
          "name": "fromDelegate",
          "type": "address"
        },
        {
          "indexed": true,
          "internalType": "address",
          "name": "toDelegate",
          "type": "address"
        }
      ],
      "name": "DelegateChanged",
      "type": "event"
    },
    {
      "anonymous": false,
      "inputs": [
        {
          "indexed": true,
          "internalType": "uint256",
          "name": "tokenId",
          "type": "uint256"
        },
        {
          "indexed": true,
          "internalType": "uint256",
          "name": "tierId",
          "type": "uint256"
        },
        {
          "indexed": true,
          "internalType": "address",
          "name": "beneficiary",
          "type": "address"
        },
        {
          "indexed": false,
          "internalType": "uint256",
          "name": "totalAmountContributed",
          "type": "uint256"
        },
        {
          "indexed": false,
          "internalType": "address",
          "name": "caller",
          "type": "address"
        }
      ],
      "name": "Mint",
      "type": "event"
    },
    {
      "anonymous": false,
      "inputs": [
        {
          "indexed": true,
          "internalType": "uint256",
          "name": "tokenId",
          "type": "uint256"
        },
        {
          "indexed": true,
          "internalType": "uint256",
          "name": "tierId",
          "type": "uint256"
        },
        {
          "indexed": true,
          "internalType": "address",
          "name": "beneficiary",
          "type": "address"
        },
        {
          "indexed": false,
          "internalType": "address",
          "name": "caller",
          "type": "address"
        }
      ],
      "name": "MintReservedToken",
      "type": "event"
    },
    {
      "anonymous": false,
      "inputs": [
        {
          "indexed": true,
          "internalType": "address",
          "name": "previousOwner",
          "type": "address"
        },
        {
          "indexed": true,
          "internalType": "address",
          "name": "newOwner",
          "type": "address"
        }
      ],
      "name": "OwnershipTransferred",
      "type": "event"
    },
    {
      "anonymous": false,
      "inputs": [
        {
          "indexed": true,
          "internalType": "uint256",
          "name": "tierId",
          "type": "uint256"
        },
        {
          "indexed": false,
          "internalType": "address",
          "name": "caller",
          "type": "address"
        }
      ],
      "name": "RemoveTier",
      "type": "event"
    },
    {
      "anonymous": false,
      "inputs": [
        {
          "indexed": true,
          "internalType": "string",
          "name": "baseUri",
          "type": "string"
        },
        {
          "indexed": false,
          "internalType": "address",
          "name": "caller",
          "type": "address"
        }
      ],
      "name": "SetBaseUri",
      "type": "event"
    },
    {
      "anonymous": false,
      "inputs": [
        {
          "indexed": true,
          "internalType": "string",
          "name": "contractUri",
          "type": "string"
        },
        {
          "indexed": false,
          "internalType": "address",
          "name": "caller",
          "type": "address"
        }
      ],
      "name": "SetContractUri",
      "type": "event"
    },
    {
      "anonymous": false,
      "inputs": [
        {
          "indexed": true,
          "internalType": "address",
          "name": "beneficiary",
          "type": "address"
        },
        {
          "indexed": false,
          "internalType": "address",
          "name": "caller",
          "type": "address"
        }
      ],
      "name": "SetDefaultReservedTokenBeneficiary",
      "type": "event"
    },
    {
      "anonymous": false,
      "inputs": [
        {
          "indexed": true,
          "internalType": "contract IJBTokenUriResolver",
          "name": "newResolver",
          "type": "address"
        },
        {
          "indexed": false,
          "internalType": "address",
          "name": "caller",
          "type": "address"
        }
      ],
      "name": "SetTokenUriResolver",
      "type": "event"
    },
    {
      "anonymous": false,
      "inputs": [
        {
          "indexed": true,
          "internalType": "address",
          "name": "delegator",
          "type": "address"
        },
        {
          "indexed": true,
          "internalType": "address",
          "name": "fromDelegate",
          "type": "address"
        },
        {
          "indexed": true,
          "internalType": "address",
          "name": "toDelegate",
          "type": "address"
        },
        {
          "indexed": false,
          "internalType": "uint256",
          "name": "tierId",
          "type": "uint256"
        },
        {
          "indexed": false,
          "internalType": "address",
          "name": "caller",
          "type": "address"
        }
      ],
      "name": "TierDelegateChanged",
      "type": "event"
    },
    {
      "anonymous": false,
      "inputs": [
        {
          "indexed": true,
          "internalType": "address",
          "name": "delegate",
          "type": "address"
        },
        {
          "indexed": true,
          "internalType": "uint256",
          "name": "tierId",
          "type": "uint256"
        },
        {
          "indexed": false,
          "internalType": "uint256",
          "name": "previousBalance",
          "type": "uint256"
        },
        {
          "indexed": false,
          "internalType": "uint256",
          "name": "newBalance",
          "type": "uint256"
        },
        {
          "indexed": false,
          "internalType": "address",
          "name": "callre",
          "type": "address"
        }
      ],
      "name": "TierDelegateVotesChanged",
      "type": "event"
    },
    {
      "anonymous": false,
      "inputs": [
        {
          "indexed": true,
          "internalType": "address",
          "name": "from",
          "type": "address"
        },
        {
          "indexed": true,
          "internalType": "address",
          "name": "to",
          "type": "address"
        },
        {
          "indexed": true,
          "internalType": "uint256",
          "name": "tokenId",
          "type": "uint256"
        }
      ],
      "name": "Transfer",
      "type": "event"
    },
    {
      "inputs": [
        {
          "components": [
            {
              "internalType": "uint256",
              "name": "contributionFloor",
              "type": "uint256"
            },
            {
              "internalType": "uint256",
              "name": "lockedUntil",
              "type": "uint256"
            },
            {
              "internalType": "uint256",
              "name": "initialQuantity",
              "type": "uint256"
            },
            {
              "internalType": "uint256",
              "name": "votingUnits",
              "type": "uint256"
            },
            {
              "internalType": "uint256",
              "name": "reservedRate",
              "type": "uint256"
            },
            {
              "internalType": "address",
              "name": "reservedTokenBeneficiary",
              "type": "address"
            },
            {
              "internalType": "bytes32",
              "name": "encodedIPFSUri",
              "type": "bytes32"
            },
            {
              "internalType": "bool",
              "name": "allowManualMint",
              "type": "bool"
            },
            {
              "internalType": "bool",
              "name": "shouldUseBeneficiaryAsDefault",
              "type": "bool"
            }
          ],
          "internalType": "struct JB721TierParams[]",
          "name": "_tiersToAdd",
          "type": "tuple[]"
        },
        {
          "internalType": "uint256[]",
          "name": "_tierIdsToRemove",
          "type": "uint256[]"
        }
      ],
      "name": "adjustTiers",
      "outputs": [],
      "stateMutability": "nonpayable",
      "type": "function"
    },
    {
      "inputs": [
        {
          "internalType": "address",
          "name": "to",
          "type": "address"
        },
        {
          "internalType": "uint256",
          "name": "tokenId",
          "type": "uint256"
        }
      ],
      "name": "approve",
      "outputs": [],
      "stateMutability": "nonpayable",
      "type": "function"
    },
    {
      "inputs": [
        {
          "internalType": "address",
          "name": "_owner",
          "type": "address"
        }
      ],
      "name": "balanceOf",
      "outputs": [
        {
          "internalType": "uint256",
          "name": "balance",
          "type": "uint256"
        }
      ],
      "stateMutability": "view",
      "type": "function"
    },
    {
      "inputs": [],
      "name": "codeOrigin",
      "outputs": [
        {
          "internalType": "address",
          "name": "",
          "type": "address"
        }
      ],
      "stateMutability": "view",
      "type": "function"
    },
    {
      "inputs": [],
      "name": "contractURI",
      "outputs": [
        {
          "internalType": "string",
          "name": "",
          "type": "string"
        }
      ],
      "stateMutability": "view",
      "type": "function"
    },
    {
      "inputs": [
        {
          "internalType": "address",
          "name": "",
          "type": "address"
        }
      ],
      "name": "creditsOf",
      "outputs": [
        {
          "internalType": "uint256",
          "name": "",
          "type": "uint256"
        }
      ],
      "stateMutability": "view",
      "type": "function"
    },
    {
      "inputs": [
        {
          "components": [
            {
              "internalType": "address",
              "name": "payer",
              "type": "address"
            },
            {
              "internalType": "uint256",
              "name": "projectId",
              "type": "uint256"
            },
            {
              "internalType": "uint256",
              "name": "currentFundingCycleConfiguration",
              "type": "uint256"
            },
            {
              "components": [
                {
                  "internalType": "address",
                  "name": "token",
                  "type": "address"
                },
                {
                  "internalType": "uint256",
                  "name": "value",
                  "type": "uint256"
                },
                {
                  "internalType": "uint256",
                  "name": "decimals",
                  "type": "uint256"
                },
                {
                  "internalType": "uint256",
                  "name": "currency",
                  "type": "uint256"
                }
              ],
              "internalType": "struct JBTokenAmount",
              "name": "amount",
              "type": "tuple"
            },
            {
              "components": [
                {
                  "internalType": "address",
                  "name": "token",
                  "type": "address"
                },
                {
                  "internalType": "uint256",
                  "name": "value",
                  "type": "uint256"
                },
                {
                  "internalType": "uint256",
                  "name": "decimals",
                  "type": "uint256"
                },
                {
                  "internalType": "uint256",
                  "name": "currency",
                  "type": "uint256"
                }
              ],
              "internalType": "struct JBTokenAmount",
              "name": "forwardedAmount",
              "type": "tuple"
            },
            {
              "internalType": "uint256",
              "name": "projectTokenCount",
              "type": "uint256"
            },
            {
              "internalType": "address",
              "name": "beneficiary",
              "type": "address"
            },
            {
              "internalType": "bool",
              "name": "preferClaimedTokens",
              "type": "bool"
            },
            {
              "internalType": "string",
              "name": "memo",
              "type": "string"
            },
            {
              "internalType": "bytes",
              "name": "metadata",
              "type": "bytes"
            }
          ],
          "internalType": "struct JBDidPayData",
          "name": "_data",
          "type": "tuple"
        }
      ],
      "name": "didPay",
      "outputs": [],
      "stateMutability": "payable",
      "type": "function"
    },
    {
      "inputs": [
        {
          "components": [
            {
              "internalType": "address",
              "name": "holder",
              "type": "address"
            },
            {
              "internalType": "uint256",
              "name": "projectId",
              "type": "uint256"
            },
            {
              "internalType": "uint256",
              "name": "currentFundingCycleConfiguration",
              "type": "uint256"
            },
            {
              "internalType": "uint256",
              "name": "projectTokenCount",
              "type": "uint256"
            },
            {
              "components": [
                {
                  "internalType": "address",
                  "name": "token",
                  "type": "address"
                },
                {
                  "internalType": "uint256",
                  "name": "value",
                  "type": "uint256"
                },
                {
                  "internalType": "uint256",
                  "name": "decimals",
                  "type": "uint256"
                },
                {
                  "internalType": "uint256",
                  "name": "currency",
                  "type": "uint256"
                }
              ],
              "internalType": "struct JBTokenAmount",
              "name": "reclaimedAmount",
              "type": "tuple"
            },
            {
              "components": [
                {
                  "internalType": "address",
                  "name": "token",
                  "type": "address"
                },
                {
                  "internalType": "uint256",
                  "name": "value",
                  "type": "uint256"
                },
                {
                  "internalType": "uint256",
                  "name": "decimals",
                  "type": "uint256"
                },
                {
                  "internalType": "uint256",
                  "name": "currency",
                  "type": "uint256"
                }
              ],
              "internalType": "struct JBTokenAmount",
              "name": "forwardedAmount",
              "type": "tuple"
            },
            {
              "internalType": "address payable",
              "name": "beneficiary",
              "type": "address"
            },
            {
              "internalType": "string",
              "name": "memo",
              "type": "string"
            },
            {
              "internalType": "bytes",
              "name": "metadata",
              "type": "bytes"
            }
          ],
          "internalType": "struct JBDidRedeemData",
          "name": "_data",
          "type": "tuple"
        }
      ],
      "name": "didRedeem",
      "outputs": [],
      "stateMutability": "payable",
      "type": "function"
    },
    {
      "inputs": [],
      "name": "directory",
      "outputs": [
        {
          "internalType": "contract IJBDirectory",
          "name": "",
          "type": "address"
        }
      ],
      "stateMutability": "view",
      "type": "function"
    },
    {
      "inputs": [
        {
          "internalType": "uint256",
          "name": "_tokenId",
          "type": "uint256"
        }
      ],
      "name": "firstOwnerOf",
      "outputs": [
        {
          "internalType": "address",
          "name": "",
          "type": "address"
        }
      ],
      "stateMutability": "view",
      "type": "function"
    },
    {
      "inputs": [],
      "name": "fundingCycleStore",
      "outputs": [
        {
          "internalType": "contract IJBFundingCycleStore",
          "name": "",
          "type": "address"
        }
      ],
      "stateMutability": "view",
      "type": "function"
    },
    {
      "inputs": [
        {
          "internalType": "uint256",
          "name": "tokenId",
          "type": "uint256"
        }
      ],
      "name": "getApproved",
      "outputs": [
        {
          "internalType": "address",
          "name": "",
          "type": "address"
        }
      ],
      "stateMutability": "view",
      "type": "function"
    },
    {
      "inputs": [
        {
          "internalType": "uint256",
          "name": "_tier",
          "type": "uint256"
        },
        {
          "internalType": "uint256",
          "name": "_blockNumber",
          "type": "uint256"
        }
      ],
      "name": "getPastTierTotalVotes",
      "outputs": [
        {
          "internalType": "uint256",
          "name": "",
          "type": "uint256"
        }
      ],
      "stateMutability": "view",
      "type": "function"
    },
    {
      "inputs": [
        {
          "internalType": "address",
          "name": "_account",
          "type": "address"
        },
        {
          "internalType": "uint256",
          "name": "_tier",
          "type": "uint256"
        },
        {
          "internalType": "uint256",
          "name": "_blockNumber",
          "type": "uint256"
        }
      ],
      "name": "getPastTierVotes",
      "outputs": [
        {
          "internalType": "uint256",
          "name": "",
          "type": "uint256"
        }
      ],
      "stateMutability": "view",
      "type": "function"
    },
    {
      "inputs": [
        {
          "internalType": "address",
          "name": "_account",
          "type": "address"
        },
        {
          "internalType": "uint256",
          "name": "_tier",
          "type": "uint256"
        }
      ],
      "name": "getTierDelegate",
      "outputs": [
        {
          "internalType": "address",
          "name": "",
          "type": "address"
        }
      ],
      "stateMutability": "view",
      "type": "function"
    },
    {
      "inputs": [
        {
          "internalType": "uint256",
          "name": "_tier",
          "type": "uint256"
        }
      ],
      "name": "getTierTotalVotes",
      "outputs": [
        {
          "internalType": "uint256",
          "name": "",
          "type": "uint256"
        }
      ],
      "stateMutability": "view",
      "type": "function"
    },
    {
      "inputs": [
        {
          "internalType": "address",
          "name": "_account",
          "type": "address"
        },
        {
          "internalType": "uint256",
          "name": "_tier",
          "type": "uint256"
        }
      ],
      "name": "getTierVotes",
      "outputs": [
        {
          "internalType": "uint256",
          "name": "",
          "type": "uint256"
        }
      ],
      "stateMutability": "view",
      "type": "function"
    },
    {
      "inputs": [
        {
          "internalType": "uint256",
          "name": "_projectId",
          "type": "uint256"
        },
        {
          "internalType": "contract IJBDirectory",
          "name": "_directory",
          "type": "address"
        },
        {
          "internalType": "string",
          "name": "_name",
          "type": "string"
        },
        {
          "internalType": "string",
          "name": "_symbol",
          "type": "string"
        },
        {
          "internalType": "contract IJBFundingCycleStore",
          "name": "_fundingCycleStore",
          "type": "address"
        },
        {
          "internalType": "string",
          "name": "_baseUri",
          "type": "string"
        },
        {
          "internalType": "contract IJBTokenUriResolver",
          "name": "_tokenUriResolver",
          "type": "address"
        },
        {
          "internalType": "string",
          "name": "_contractUri",
          "type": "string"
        },
        {
          "components": [
            {
              "components": [
                {
                  "internalType": "uint256",
                  "name": "contributionFloor",
                  "type": "uint256"
                },
                {
                  "internalType": "uint256",
                  "name": "lockedUntil",
                  "type": "uint256"
                },
                {
                  "internalType": "uint256",
                  "name": "initialQuantity",
                  "type": "uint256"
                },
                {
                  "internalType": "uint256",
                  "name": "votingUnits",
                  "type": "uint256"
                },
                {
                  "internalType": "uint256",
                  "name": "reservedRate",
                  "type": "uint256"
                },
                {
                  "internalType": "address",
                  "name": "reservedTokenBeneficiary",
                  "type": "address"
                },
                {
                  "internalType": "bytes32",
                  "name": "encodedIPFSUri",
                  "type": "bytes32"
                },
                {
                  "internalType": "bool",
                  "name": "allowManualMint",
                  "type": "bool"
                },
                {
                  "internalType": "bool",
                  "name": "shouldUseBeneficiaryAsDefault",
                  "type": "bool"
                }
              ],
              "internalType": "struct JB721TierParams[]",
              "name": "tiers",
              "type": "tuple[]"
            },
            {
              "internalType": "uint256",
              "name": "currency",
              "type": "uint256"
            },
            {
              "internalType": "uint256",
              "name": "decimals",
              "type": "uint256"
            },
            {
              "internalType": "contract IJBPrices",
              "name": "prices",
              "type": "address"
            }
          ],
          "internalType": "struct JB721PricingParams",
          "name": "_pricing",
          "type": "tuple"
        },
        {
          "internalType": "contract IJBTiered721DelegateStore",
          "name": "_store",
          "type": "address"
        },
        {
          "components": [
            {
              "internalType": "bool",
              "name": "lockReservedTokenChanges",
              "type": "bool"
            },
            {
              "internalType": "bool",
              "name": "lockVotingUnitChanges",
              "type": "bool"
            },
            {
              "internalType": "bool",
              "name": "lockManualMintingChanges",
              "type": "bool"
            },
            {
              "internalType": "bool",
              "name": "pausable",
              "type": "bool"
            }
          ],
          "internalType": "struct JBTiered721Flags",
          "name": "_flags",
          "type": "tuple"
        }
      ],
      "name": "initialize",
      "outputs": [],
      "stateMutability": "nonpayable",
      "type": "function"
    },
    {
      "inputs": [
        {
          "internalType": "address",
          "name": "owner",
          "type": "address"
        },
        {
          "internalType": "address",
          "name": "operator",
          "type": "address"
        }
      ],
      "name": "isApprovedForAll",
      "outputs": [
        {
          "internalType": "bool",
          "name": "",
          "type": "bool"
        }
      ],
      "stateMutability": "view",
      "type": "function"
    },
    {
      "inputs": [
        {
          "components": [
            {
              "internalType": "uint16[]",
              "name": "tierIds",
              "type": "uint16[]"
            },
            {
              "internalType": "address",
              "name": "beneficiary",
              "type": "address"
            }
          ],
          "internalType": "struct JBTiered721MintForTiersData[]",
          "name": "_mintForTiersData",
          "type": "tuple[]"
        }
      ],
      "name": "mintFor",
      "outputs": [],
      "stateMutability": "nonpayable",
      "type": "function"
    },
    {
      "inputs": [
        {
          "internalType": "uint16[]",
          "name": "_tierIds",
          "type": "uint16[]"
        },
        {
          "internalType": "address",
          "name": "_beneficiary",
          "type": "address"
        }
      ],
      "name": "mintFor",
      "outputs": [
        {
          "internalType": "uint256[]",
          "name": "tokenIds",
          "type": "uint256[]"
        }
      ],
      "stateMutability": "nonpayable",
      "type": "function"
    },
    {
      "inputs": [
        {
          "components": [
            {
              "internalType": "uint256",
              "name": "tierId",
              "type": "uint256"
            },
            {
              "internalType": "uint256",
              "name": "count",
              "type": "uint256"
            }
          ],
          "internalType": "struct JBTiered721MintReservesForTiersData[]",
          "name": "_mintReservesForTiersData",
          "type": "tuple[]"
        }
      ],
      "name": "mintReservesFor",
      "outputs": [],
      "stateMutability": "nonpayable",
      "type": "function"
    },
    {
      "inputs": [
        {
          "internalType": "uint256",
          "name": "_tierId",
          "type": "uint256"
        },
        {
          "internalType": "uint256",
          "name": "_count",
          "type": "uint256"
        }
      ],
      "name": "mintReservesFor",
      "outputs": [],
      "stateMutability": "nonpayable",
      "type": "function"
    },
    {
      "inputs": [],
      "name": "name",
      "outputs": [
        {
          "internalType": "string",
          "name": "",
          "type": "string"
        }
      ],
      "stateMutability": "view",
      "type": "function"
    },
    {
      "inputs": [],
      "name": "owner",
      "outputs": [
        {
          "internalType": "address",
          "name": "",
          "type": "address"
        }
      ],
      "stateMutability": "view",
      "type": "function"
    },
    {
      "inputs": [
        {
          "internalType": "uint256",
          "name": "tokenId",
          "type": "uint256"
        }
      ],
      "name": "ownerOf",
      "outputs": [
        {
          "internalType": "address",
          "name": "",
          "type": "address"
        }
      ],
      "stateMutability": "view",
      "type": "function"
    },
    {
      "inputs": [
        {
          "components": [
            {
              "internalType": "contract IJBPaymentTerminal",
              "name": "terminal",
              "type": "address"
            },
            {
              "internalType": "address",
              "name": "payer",
              "type": "address"
            },
            {
              "components": [
                {
                  "internalType": "address",
                  "name": "token",
                  "type": "address"
                },
                {
                  "internalType": "uint256",
                  "name": "value",
                  "type": "uint256"
                },
                {
                  "internalType": "uint256",
                  "name": "decimals",
                  "type": "uint256"
                },
                {
                  "internalType": "uint256",
                  "name": "currency",
                  "type": "uint256"
                }
              ],
              "internalType": "struct JBTokenAmount",
              "name": "amount",
              "type": "tuple"
            },
            {
              "internalType": "uint256",
              "name": "projectId",
              "type": "uint256"
            },
            {
              "internalType": "uint256",
              "name": "currentFundingCycleConfiguration",
              "type": "uint256"
            },
            {
              "internalType": "address",
              "name": "beneficiary",
              "type": "address"
            },
            {
              "internalType": "uint256",
              "name": "weight",
              "type": "uint256"
            },
            {
              "internalType": "uint256",
              "name": "reservedRate",
              "type": "uint256"
            },
            {
              "internalType": "string",
              "name": "memo",
              "type": "string"
            },
            {
              "internalType": "bytes",
              "name": "metadata",
              "type": "bytes"
            }
          ],
          "internalType": "struct JBPayParamsData",
          "name": "_data",
          "type": "tuple"
        }
      ],
      "name": "payParams",
      "outputs": [
        {
          "internalType": "uint256",
          "name": "weight",
          "type": "uint256"
        },
        {
          "internalType": "string",
          "name": "memo",
          "type": "string"
        },
        {
          "components": [
            {
              "internalType": "contract IJBPayDelegate",
              "name": "delegate",
              "type": "address"
            },
            {
              "internalType": "uint256",
              "name": "amount",
              "type": "uint256"
            }
          ],
          "internalType": "struct JBPayDelegateAllocation[]",
          "name": "delegateAllocations",
          "type": "tuple[]"
        }
      ],
      "stateMutability": "view",
      "type": "function"
    },
    {
      "inputs": [],
      "name": "prices",
      "outputs": [
        {
          "internalType": "contract IJBPrices",
          "name": "",
          "type": "address"
        }
      ],
      "stateMutability": "view",
      "type": "function"
    },
    {
      "inputs": [],
      "name": "pricingCurrency",
      "outputs": [
        {
          "internalType": "uint256",
          "name": "",
          "type": "uint256"
        }
      ],
      "stateMutability": "view",
      "type": "function"
    },
    {
      "inputs": [],
      "name": "pricingDecimals",
      "outputs": [
        {
          "internalType": "uint256",
          "name": "",
          "type": "uint256"
        }
      ],
      "stateMutability": "view",
      "type": "function"
    },
    {
      "inputs": [],
      "name": "projectId",
      "outputs": [
        {
          "internalType": "uint256",
          "name": "",
          "type": "uint256"
        }
      ],
      "stateMutability": "view",
      "type": "function"
    },
    {
      "inputs": [
        {
          "components": [
            {
              "internalType": "contract IJBPaymentTerminal",
              "name": "terminal",
              "type": "address"
            },
            {
              "internalType": "address",
              "name": "holder",
              "type": "address"
            },
            {
              "internalType": "uint256",
              "name": "projectId",
              "type": "uint256"
            },
            {
              "internalType": "uint256",
              "name": "currentFundingCycleConfiguration",
              "type": "uint256"
            },
            {
              "internalType": "uint256",
              "name": "tokenCount",
              "type": "uint256"
            },
            {
              "internalType": "uint256",
              "name": "totalSupply",
              "type": "uint256"
            },
            {
              "internalType": "uint256",
              "name": "overflow",
              "type": "uint256"
            },
            {
              "components": [
                {
                  "internalType": "address",
                  "name": "token",
                  "type": "address"
                },
                {
                  "internalType": "uint256",
                  "name": "value",
                  "type": "uint256"
                },
                {
                  "internalType": "uint256",
                  "name": "decimals",
                  "type": "uint256"
                },
                {
                  "internalType": "uint256",
                  "name": "currency",
                  "type": "uint256"
                }
              ],
              "internalType": "struct JBTokenAmount",
              "name": "reclaimAmount",
              "type": "tuple"
            },
            {
              "internalType": "bool",
              "name": "useTotalOverflow",
              "type": "bool"
            },
            {
              "internalType": "uint256",
              "name": "redemptionRate",
              "type": "uint256"
            },
            {
              "internalType": "string",
              "name": "memo",
              "type": "string"
            },
            {
              "internalType": "bytes",
              "name": "metadata",
              "type": "bytes"
            }
          ],
          "internalType": "struct JBRedeemParamsData",
          "name": "_data",
          "type": "tuple"
        }
      ],
      "name": "redeemParams",
      "outputs": [
        {
          "internalType": "uint256",
          "name": "reclaimAmount",
          "type": "uint256"
        },
        {
          "internalType": "string",
          "name": "memo",
          "type": "string"
        },
        {
          "components": [
            {
              "internalType": "contract IJBRedemptionDelegate",
              "name": "delegate",
              "type": "address"
            },
            {
              "internalType": "uint256",
              "name": "amount",
              "type": "uint256"
            }
          ],
          "internalType": "struct JBRedemptionDelegateAllocation[]",
          "name": "delegateAllocations",
          "type": "tuple[]"
        }
      ],
      "stateMutability": "view",
      "type": "function"
    },
    {
      "inputs": [],
      "name": "renounceOwnership",
      "outputs": [],
      "stateMutability": "nonpayable",
      "type": "function"
    },
    {
      "inputs": [
        {
          "internalType": "address",
          "name": "from",
          "type": "address"
        },
        {
          "internalType": "address",
          "name": "to",
          "type": "address"
        },
        {
          "internalType": "uint256",
          "name": "tokenId",
          "type": "uint256"
        }
      ],
      "name": "safeTransferFrom",
      "outputs": [],
      "stateMutability": "nonpayable",
      "type": "function"
    },
    {
      "inputs": [
        {
          "internalType": "address",
          "name": "from",
          "type": "address"
        },
        {
          "internalType": "address",
          "name": "to",
          "type": "address"
        },
        {
          "internalType": "uint256",
          "name": "tokenId",
          "type": "uint256"
        },
        {
          "internalType": "bytes",
          "name": "data",
          "type": "bytes"
        }
      ],
      "name": "safeTransferFrom",
      "outputs": [],
      "stateMutability": "nonpayable",
      "type": "function"
    },
    {
      "inputs": [
        {
          "internalType": "address",
          "name": "operator",
          "type": "address"
        },
        {
          "internalType": "bool",
          "name": "approved",
          "type": "bool"
        }
      ],
      "name": "setApprovalForAll",
      "outputs": [],
      "stateMutability": "nonpayable",
      "type": "function"
    },
    {
      "inputs": [
        {
          "internalType": "string",
          "name": "_baseUri",
          "type": "string"
        }
      ],
      "name": "setBaseUri",
      "outputs": [],
      "stateMutability": "nonpayable",
      "type": "function"
    },
    {
      "inputs": [
        {
          "internalType": "string",
          "name": "_contractUri",
          "type": "string"
        }
      ],
      "name": "setContractUri",
      "outputs": [],
      "stateMutability": "nonpayable",
      "type": "function"
    },
    {
      "inputs": [
        {
          "internalType": "address",
          "name": "_beneficiary",
          "type": "address"
        }
      ],
      "name": "setDefaultReservedTokenBeneficiary",
      "outputs": [],
      "stateMutability": "nonpayable",
      "type": "function"
    },
    {
      "inputs": [
        {
          "internalType": "address",
          "name": "_delegatee",
          "type": "address"
        },
        {
          "internalType": "uint256",
          "name": "_tierId",
          "type": "uint256"
        }
      ],
      "name": "setTierDelegate",
      "outputs": [],
      "stateMutability": "nonpayable",
      "type": "function"
    },
    {
      "inputs": [
        {
          "components": [
            {
              "internalType": "address",
              "name": "delegatee",
              "type": "address"
            },
            {
              "internalType": "uint256",
              "name": "tierId",
              "type": "uint256"
            }
          ],
          "internalType": "struct JBTiered721SetTierDelegatesData[]",
          "name": "_setTierDelegatesData",
          "type": "tuple[]"
        }
      ],
      "name": "setTierDelegates",
      "outputs": [],
      "stateMutability": "nonpayable",
      "type": "function"
    },
    {
      "inputs": [
        {
          "internalType": "contract IJBTokenUriResolver",
          "name": "_tokenUriResolver",
          "type": "address"
        }
      ],
      "name": "setTokenUriResolver",
      "outputs": [],
      "stateMutability": "nonpayable",
      "type": "function"
    },
    {
      "inputs": [],
      "name": "store",
      "outputs": [
        {
          "internalType": "contract IJBTiered721DelegateStore",
          "name": "",
          "type": "address"
        }
      ],
      "stateMutability": "view",
      "type": "function"
    },
    {
      "inputs": [
        {
          "internalType": "bytes4",
          "name": "_interfaceId",
          "type": "bytes4"
        }
      ],
      "name": "supportsInterface",
      "outputs": [
        {
          "internalType": "bool",
          "name": "",
          "type": "bool"
        }
      ],
      "stateMutability": "view",
      "type": "function"
    },
    {
      "inputs": [],
      "name": "symbol",
      "outputs": [
        {
          "internalType": "string",
          "name": "",
          "type": "string"
        }
      ],
      "stateMutability": "view",
      "type": "function"
    },
    {
      "inputs": [
        {
          "internalType": "uint256",
          "name": "_tokenId",
          "type": "uint256"
        }
      ],
      "name": "tokenURI",
      "outputs": [
        {
          "internalType": "string",
          "name": "",
          "type": "string"
        }
      ],
      "stateMutability": "view",
      "type": "function"
    },
    {
      "inputs": [
        {
          "internalType": "address",
          "name": "from",
          "type": "address"
        },
        {
          "internalType": "address",
          "name": "to",
          "type": "address"
        },
        {
          "internalType": "uint256",
          "name": "tokenId",
          "type": "uint256"
        }
      ],
      "name": "transferFrom",
      "outputs": [],
      "stateMutability": "nonpayable",
      "type": "function"
    },
    {
      "inputs": [
        {
          "internalType": "address",
          "name": "newOwner",
          "type": "address"
        }
      ],
      "name": "transferOwnership",
      "outputs": [],
      "stateMutability": "nonpayable",
      "type": "function"
    }
  ],
  "bytecode": {
    "object": "0x60806040523480156200001157600080fd5b506200001d3362000035565b600880546001600160a01b0319163017905562000087565b600780546001600160a01b038381166001600160a01b0319831681179093556040519116919082907f8be0079c531659141344cd1fd0a4f28419497f9722a3daafe3b4186f6b6457e090600090a35050565b61529f80620000976000396000f3fe6080604052600436106102935760003560e01c806394c5c5ca1161015a578063ca323efe116100c1578063da9ee8b71161007a578063da9ee8b714610820578063df487e2614610833578063dfedb3af14610853578063e8a3d48514610873578063e985e9c514610888578063f2fde38b146108d157600080fd5b8063ca323efe14610760578063ccb4807b14610780578063d31cc52c146107a0578063d3419bf3146107c0578063d40e7146146107e0578063d46cf1711461080057600080fd5b8063aa4fb15b11610113578063aa4fb15b146106a0578063ab951e39146106c0578063b88d4fde146106e0578063c41c2f2414610700578063c74b13d914610720578063c87b56dd1461074057600080fd5b806394c5c5ca146105dc57806395d89b41146105fc578063975057e714610611578063a0bcfc7f14610631578063a22cb46514610651578063a51cfd181461067157600080fd5b80633fafa127116101fe57806364640c1e116101b757806364640c1e146105035780636ac6d9411461051957806370a0823114610546578063715018a61461056657806382732b6d1461057b5780638da5cb5b146105be57600080fd5b80633fafa1271461045757806342842e0e1461046d5780634ecba6251461048d57806354c6d1f5146104a3578063557e7155146104c35780636352211e146104e357600080fd5b806323b872dd1161025057806323b872dd146103895780632407497e146103a9578063245a45b5146103c95780632a596e53146104045780632b13c58f1461042457806336c1a93b1461043757600080fd5b806301ffc9a71461029857806306fdde03146102cd578063081812fc146102ef578063095ea7b3146103275780631d153ca414610349578063211eb00114610369575b600080fd5b3480156102a457600080fd5b506102b86102b3366004613a4b565b6108f1565b60405190151581526020015b60405180910390f35b3480156102d957600080fd5b506102e261091c565b6040516102c49190613ab8565b3480156102fb57600080fd5b5061030f61030a366004613acb565b6109ae565b6040516001600160a01b0390911681526020016102c4565b34801561033357600080fd5b50610347610342366004613b09565b6109d5565b005b34801561035557600080fd5b5060085461030f906001600160a01b031681565b34801561037557600080fd5b50610347610384366004613b35565b610a61565b34801561039557600080fd5b506103476103a4366004613bfd565b610c44565b3480156103b557600080fd5b506103476103c4366004613c3e565b610c76565b3480156103d557600080fd5b506103f66103e4366004613c3e565b600e6020526000908152604090205481565b6040519081526020016102c4565b34801561041057600080fd5b5061034761041f366004613d54565b610d1f565b610347610432366004613e27565b610d65565b34801561044357600080fd5b50610347610452366004613ed2565b610f42565b34801561046357600080fd5b506103f660055481565b34801561047957600080fd5b50610347610488366004613bfd565b610f91565b34801561049957600080fd5b506103f6600d5481565b3480156104af57600080fd5b5061030f6104be366004613acb565b610fac565b3480156104cf57600080fd5b50600a5461030f906001600160a01b031681565b3480156104ef57600080fd5b5061030f6104fe366004613acb565b611058565b34801561050f57600080fd5b506103f6600c5481565b34801561052557600080fd5b50610539610534366004613fcc565b61108e565b6040516102c49190614058565b34801561055257600080fd5b506103f6610561366004613c3e565b6111d4565b34801561057257600080fd5b5061034761124a565b34801561058757600080fd5b5061030f610596366004613b09565b6001600160a01b039182166000908152600f6020908152604080832093835292905220541690565b3480156105ca57600080fd5b506007546001600160a01b031661030f565b3480156105e857600080fd5b506103f66105f7366004613acb565b61125e565b34801561060857600080fd5b506102e2611275565b34801561061d57600080fd5b5060095461030f906001600160a01b031681565b34801561063d57600080fd5b5061034761064c3660046140eb565b611284565b34801561065d57600080fd5b5061034761066c366004614138565b611333565b34801561067d57600080fd5b5061069161068c366004613e27565b611342565b6040516102c493929190614166565b3480156106ac57600080fd5b506103476106bb3660046141d8565b611603565b3480156106cc57600080fd5b506103476106db366004613b09565b611820565b3480156106ec57600080fd5b506103476106fb3660046141fa565b61182b565b34801561070c57600080fd5b5060065461030f906001600160a01b031681565b34801561072c57600080fd5b5061034761073b366004614279565b61185e565b34801561074c57600080fd5b506102e261075b366004613acb565b6118b6565b34801561076c57600080fd5b506103f661077b366004613b09565b611b14565b34801561078c57600080fd5b5061034761079b36600461432c565b611b40565b3480156107ac57600080fd5b506103f66107bb3660046141d8565b611bfa565b3480156107cc57600080fd5b50600b5461030f906001600160a01b031681565b3480156107ec57600080fd5b506103f66107fb36600461439d565b611c34565b34801561080c57600080fd5b5061069161081b3660046143d2565b611c69565b61034761082e36600461440d565b611d4c565b34801561083f57600080fd5b5061034761084e366004613c3e565b611e09565b34801561085f57600080fd5b5061034761086e3660046145e3565b611eab565b34801561087f57600080fd5b506102e26121a9565b34801561089457600080fd5b506102b86108a336600461471c565b6001600160a01b03918216600090815260046020908152604080832093909416825291909152205460ff1690565b3480156108dd57600080fd5b506103476108ec366004613c3e565b61221f565b60006001600160e01b03198216634340b9e160e01b148061091657506109168261229a565b92915050565b60606000805461092b9061474a565b80601f01602080910402602001604051908101604052809291908181526020018280546109579061474a565b80156109a45780601f10610979576101008083540402835291602001916109a4565b820191906000526020600020905b81548152906001019060200180831161098757829003601f168201915b5050505050905090565b60006109b982612310565b506000908152600360205260409020546001600160a01b031690565b60006109e082611058565b9050806001600160a01b0316836001600160a01b031603610a145760405163133f8be960e01b815260040160405180910390fd5b336001600160a01b03821614801590610a345750610a3281336108a3565b155b15610a525760405163e5fa0e3560e01b815260040160405180910390fd5b610a5c8383612345565b505050565b610a696123b3565b82818015610b39576009546040516320512ba160e01b81526001600160a01b03909116906320512ba190610aa3908790879060040161477e565b600060405180830381600087803b158015610abd57600080fd5b505af1158015610ad1573d6000803e3d6000fd5b5050505060005b81811015610b3757848482818110610af257610af26147b7565b60405133815260209182029390930135927f832d89d991be5351d793c20faf4b7dd44f8aa9ce39e3cb160c6317de6fbba72992500160405180910390a2600101610ad8565b505b8115610c3c5760095460405163d0cf48a560e01b81526000916001600160a01b03169063d0cf48a590610b72908a908a9060040161484e565b6000604051808303816000875af1158015610b91573d6000803e3d6000fd5b505050506040513d6000823e601f3d908101601f19168201604052610bb991908101906148ec565b905060005b83811015610c3957818181518110610bd857610bd86147b7565b60200260200101517f9c1ee455d7c9ab291045babfeef5ef20cea4d096dc64c4b2b29977289b4b0641898984818110610c1357610c136147b7565b9050610120020133604051610c29929190614920565b60405180910390a2600101610bbe565b50505b505050505050565b610c4e338261240d565b610c6b5760405163e5fa0e3560e01b815260040160405180910390fd5b610a5c83838361248b565b610c7e6123b3565b60095460405163036129cb60e61b81526001600160a01b0383811660048301529091169063d84a72c090602401600060405180830381600087803b158015610cc557600080fd5b505af1158015610cd9573d6000803e3d6000fd5b50506040513381526001600160a01b03841692507fe7784d93cfbfa4408e19577e6cc0436f4dbb51214b70e100905dfce9def88c1691506020015b60405180910390a250565b805160005b81811015610a5c576000838281518110610d4057610d406147b7565b60200260200101519050610d5c81600001518260200151611603565b50600101610d24565b34151580610de75750600654600554604051636e49181f60e01b815260048101919091523360248201526001600160a01b0390911690636e49181f90604401602060405180830381865afa158015610dc1573d6000803e3d6000fd5b505050506040513d601f19601f82011682018060405250810190610de59190614953565b155b80610df85750600554816020013514155b15610e1657604051633efca5c360e11b815260040160405180910390fd5b6004610e266101c0830183614970565b90501080610e6a575063b3bcbb7960e01b610e456101c0830183614970565b610e54916004916000916149b6565b610e5d916149e0565b6001600160e01b03191614155b15610e8857604051632a84050f60e01b815260040160405180910390fd5b6000610e986101c0830183614970565b810190610ea59190614a10565b805190925090506000805b82811015610f3257838181518110610eca57610eca6147b7565b60200260200101519150846000016020810190610ee79190613c3e565b6000838152600260205260409020546001600160a01b03908116911614610f215760405163075fd2b160e01b815260040160405180910390fd5b610f2a82612564565b600101610eb0565b50610f3c836125e5565b50505050565b610f4a6123b3565b805160005b81811015610a5c576000838281518110610f6b57610f6b6147b7565b60200260200101519050610f878160000151826020015161108e565b5050600101610f4f565b610a5c8383836040518060200160405280600081525061182b565b6009546040516308ed6c0160e41b81523060048201526024810183905260009182916001600160a01b0390911690638ed6c01090604401602060405180830381865afa158015611000573d6000803e3d6000fd5b505050506040513d601f19601f820116820180604052508101906110249190614ac0565b90506001600160a01b0381161561103b5792915050565b50506000908152600260205260409020546001600160a01b031690565b6000818152600260205260408120546001600160a01b0316806109165760405163b49aa3b560e01b815260040160405180910390fd5b60606110986123b3565b60095460405163eaa19ab360e01b81526001600160a01b039091169063eaa19ab3906110cf90600019908790600190600401614add565b6000604051808303816000875af11580156110ee573d6000803e3d6000fd5b505050506040513d6000823e601f3d908101601f191682016040526111169190810190614b3a565b5083519091506000805b828110156111cb5783818151811061113a5761113a6147b7565b6020026020010151915061114e858361264a565b846001600160a01b031686828151811061116a5761116a6147b7565b602002602001015161ffff16837f598baf7bf150ca2f42be9e9f8f55e81d45f5715c3ff22bf46d697fabec7f31d66000336040516111bb9291909182526001600160a01b0316602082015260400190565b60405180910390a4600101611120565b50505092915050565b600954604051633de222bb60e21b81523060048201526001600160a01b038381166024830152600092169063f7888aec906044015b602060405180830381865afa158015611226573d6000803e3d6000fd5b505050506040513d601f19601f820116820180604052508101906109169190614b80565b6112526123b3565b61125c6000612714565b565b600081815260116020526040812061091690612766565b60606001805461092b9061474a565b61128c6123b3565b6009546040516331315e5960e11b81526001600160a01b0390911690636262bcb2906112bc908490600401613ab8565b600060405180830381600087803b1580156112d657600080fd5b505af11580156112ea573d6000803e3d6000fd5b50505050806040516112fc9190614b99565b604051908190038120338252907f7bc9110d5de090dd59e07912d2b93a5a27ac70a60c8d8e324db4f9ee8b8b5c1390602001610d14565b61133e3383836127c2565b5050565b600060608060808401351561136a576040516309f82f1b60e31b815260040160405180910390fd5b600461137a6101c0860186614970565b905010806113be575063b3bcbb7960e01b6113996101c0860186614970565b6113a8916004916000916149b6565b6113b1916149e0565b6001600160e01b03191614155b156113dc57604051632a84050f60e01b815260040160405180910390fd5b60408051600180825281830190925290816020015b60408051808201909152600080825260208201528152602001906001900390816113f15790505090506040518060400160405280306001600160a01b0316815260200160008152508160008151811061144c5761144c6147b7565b60200260200101819052508361018001356000036114bc5760006114746101a0860186614970565b8382828080601f0160208091040260200160405190810160405280939291908181526020018383808284376000920191909152509699509197509195506115fc945050505050565b60006114cc6101c0860186614970565b8101906114d99190614a10565b91505060006114e782612861565b905060006114f3612894565b905060006115068860c001358484612901565b90506127108861018001350361157157806115256101a08a018a614970565b8782828080601f016020809104026020016040519081016040528093929190818152602001838380828437600092019190915250969d50919b509199506115fc98505050505050505050565b6115a7816115908561158a6101808d0135612710614bcb565b86612901565b61159f906101808c0135614bde565b612710612901565b6115b56101a08a018a614970565b8782828080601f016020809104026020016040519081016040528093929190818152602001838380828437600092019190915250969d50919b509199505050505050505050505b9193909250565b600a546005546040516321d1336160e11b815260048101919091526000916001600160a01b0316906343a266c29060240161012060405180830381865afa158015611652573d6000803e3d6000fd5b505050506040513d601f19601f820116820180604052508101906116769190614bf1565b61010081015190915060f51c6001908116036116a557604051631d2c125760e31b815260040160405180910390fd5b600954604051635d53f40760e11b815260048101859052602481018490526000916001600160a01b03169063baa7e80e906044016000604051808303816000875af11580156116f8573d6000803e3d6000fd5b505050506040513d6000823e601f3d908101601f1916820160405261172091908101906148ec565b6009546040516304db994760e21b8152306004820152602481018790529192506000916001600160a01b039091169063136e651c90604401602060405180830381865afa158015611775573d6000803e3d6000fd5b505050506040513d601f19601f820116820180604052508101906117999190614ac0565b90506000805b85811015611817578381815181106117b9576117b96147b7565b602002602001015191506117cd838361264a565b6040513381526001600160a01b03841690889084907f031e1988c95a91ec4d655ff63a8f87a80bc9daf28d95ae10ee08c0022cfb5c8b9060200160405180910390a460010161179f565b50505050505050565b61133e3383836129ce565b611835338361240d565b6118525760405163e5fa0e3560e01b815260040160405180910390fd5b610f3c84848484612a4d565b8051604080518082019091526000808252602082015260005b82811015610f3c57838181518110611891576118916147b7565b602002602001015191506118ae33836000015184602001516129ce565b600101611877565b6000818152600260205260409020546060906001600160a01b03166118e957505060408051602081019091526000815290565b600954604051630fab094760e01b81523060048201526000916001600160a01b031690630fab094790602401602060405180830381865afa158015611932573d6000803e3d6000fd5b505050506040513d601f19601f820116820180604052508101906119569190614ac0565b90506001600160a01b038116156119db57604051636d02a25560e11b8152600481018490526001600160a01b0382169063da0544aa90602401600060405180830381865afa1580156119ac573d6000803e3d6000fd5b505050506040513d6000823e601f3d908101601f191682016040526119d49190810190614c71565b9392505050565b60095460405163f682eeaf60e01b815230600482015273__$2e464bbf4a8803569df10b07372aceee57$__9163030cecc7916001600160a01b039091169063f682eeaf90602401600060405180830381865afa158015611a3f573d6000803e3d6000fd5b505050506040513d6000823e601f3d908101601f19168201604052611a679190810190614c71565b600954604051630c8df17160e41b8152306004820152602481018890526001600160a01b039091169063c8df171090604401602060405180830381865afa158015611ab6573d6000803e3d6000fd5b505050506040513d601f19601f82011682018060405250810190611ada9190614b80565b6040518363ffffffff1660e01b8152600401611af7929190614ce7565b600060405180830381865af41580156119ac573d6000803e3d6000fd5b6001600160a01b038216600090815260106020908152604080832084845290915281206119d490612766565b611b486123b3565b60095460405163d67b78fd60e01b81526001600160a01b039091169063d67b78fd90611b7a9085908590600401614d09565b600060405180830381600087803b158015611b9457600080fd5b505af1158015611ba8573d6000803e3d6000fd5b505050508181604051611bbc929190614d38565b604051908190038120338252907fd36dc0c1a06103fdcaf15f3f6fb797d1a97997514c78de073640c8b5005454b89060200160405180910390a25050565b6000438210611c1c576040516305b5e09b60e51b815260040160405180910390fd5b60008381526011602052604090206119d49083612a81565b6001600160a01b03831660009081526010602090815260408083208584529091528120611c619083612a81565b949350505050565b610120810135606080611c80610160850185614970565b8080601f01602080910402602001604051908101604052809392919081815260200183838082843760009201919091525092945060019250611cc0915050565b604051908082528060200260200182016040528015611d0557816020015b6040805180820190915260008082526020820152815260200190600190039081611cde5790505b5090506040518060400160405280306001600160a01b03168152602001600081525081600081518110611d3a57611d3a6147b7565b60200260200101819052509193909250565b34151580611dce5750600654600554604051636e49181f60e01b815260048101919091523360248201526001600160a01b0390911690636e49181f90604401602060405180830381865afa158015611da8573d6000803e3d6000fd5b505050506040513d601f19601f82011682018060405250810190611dcc9190614953565b155b80611ddf5750600554816020013514155b15611dfd576040516331c57b1b60e21b815260040160405180910390fd5b611e0681612b90565b50565b611e116123b3565b6009546040516317161f7d60e01b81526001600160a01b038381166004830152909116906317161f7d90602401600060405180830381600087803b158015611e5857600080fd5b505af1158015611e6c573d6000803e3d6000fd5b50506040513381526001600160a01b03841692507fab0014d4c7a642a02a31b303a318908c22b0fb2001f107278fc6076b4c671b659150602001610d14565b6008546001600160a01b03163003611ec257600080fd5b6009546001600160a01b031615611ed857600080fd5b611ee48b8b8b8b612e43565b600a80546001600160a01b03808a166001600160a01b031992831617909255600980548584169083161790556020850151600c556040850151600d556060850151600b8054919093169116179055855115611f98576040516331315e5960e11b81526001600160a01b03831690636262bcb290611f65908990600401613ab8565b600060405180830381600087803b158015611f7f57600080fd5b505af1158015611f93573d6000803e3d6000fd5b505050505b835115611ffe5760405163d67b78fd60e01b81526001600160a01b0383169063d67b78fd90611fcb908790600401613ab8565b600060405180830381600087803b158015611fe557600080fd5b505af1158015611ff9573d6000803e3d6000fd5b505050505b6001600160a01b038516156120695760405163036129cb60e61b81526001600160a01b03868116600483015283169063d84a72c090602401600060405180830381600087803b15801561205057600080fd5b505af1158015612064573d6000803e3d6000fd5b505050505b825151156120e757825160405163d0cf48a560e01b81526001600160a01b0384169163d0cf48a59161209e9190600401614d48565b6000604051808303816000875af11580156120bd573d6000803e3d6000fd5b505050506040513d6000823e601f3d908101601f191682016040526120e591908101906148ec565b505b8051806120f5575080602001515b80612101575080604001515b8061210d575080606001515b1561219357604080516365c13f1960e11b815282511515600482015260208301511515602482015290820151151560448201526060820151151560648201526001600160a01b0383169063cb827e3290608401600060405180830381600087803b15801561217a57600080fd5b505af115801561218e573d6000803e3d6000fd5b505050505b61219c33612714565b5050505050505050505050565b600954604051630155619b60e71b81523060048201526060916001600160a01b03169063aab0cd8090602401600060405180830381865afa1580156121f2573d6000803e3d6000fd5b505050506040513d6000823e601f3d908101601f1916820160405261221a9190810190614c71565b905090565b6122276123b3565b6001600160a01b0381166122915760405162461bcd60e51b815260206004820152602660248201527f4f776e61626c653a206e6577206f776e657220697320746865207a65726f206160448201526564647265737360d01b60648201526084015b60405180910390fd5b611e0681612714565b60006001600160e01b0319821663b3bcbb7960e01b14806122cb57506001600160e01b031982166371700c6960e01b145b806122e657506001600160e01b0319821663da9ee8b760e01b145b8061230157506001600160e01b03198216632b13c58f60e01b145b80610916575061091682612e76565b6000818152600260205260409020546001600160a01b0316611e065760405163b49aa3b560e01b815260040160405180910390fd5b600081815260036020526040902080546001600160a01b0319166001600160a01b038416908117909155819061237a82611058565b6001600160a01b03167f8c5be1e5ebec7d5bd14f71427d1e84f3dd0314c0f7b2291e5b200ac8c7c3b92560405160405180910390a45050565b6007546001600160a01b0316331461125c5760405162461bcd60e51b815260206004820181905260248201527f4f776e61626c653a2063616c6c6572206973206e6f7420746865206f776e65726044820152606401612288565b60008061241983611058565b9050806001600160a01b0316846001600160a01b0316148061246057506001600160a01b0380821660009081526004602090815260408083209388168352929052205460ff165b80611c615750836001600160a01b0316612479846109ae565b6001600160a01b031614949350505050565b826001600160a01b031661249e82611058565b6001600160a01b0316146124c55760405163a195bc5360e01b815260040160405180910390fd5b6001600160a01b0382166124ec57604051632c95542760e01b815260040160405180910390fd5b6124f7838383612ec6565b612502600082612345565b60008181526002602052604080822080546001600160a01b0319166001600160a01b0386811691821790925591518493918716917fddf252ad1be2c89b69c2b068fc378daa952ba7f163c4a11628f55a4df523b3ef91a4610a5c8383836130e6565b600061256f82611058565b905061257d81600084612ec6565b612588600083612345565b60008281526002602052604080822080546001600160a01b0319169055518391906001600160a01b038416907fddf252ad1be2c89b69c2b068fc378daa952ba7f163c4a11628f55a4df523b3ef908390a461133e816000846130e6565b6009546040516386bc2be360e01b81526001600160a01b03909116906386bc2be390612615908490600401614058565b600060405180830381600087803b15801561262f57600080fd5b505af1158015612643573d6000803e3d6000fd5b5050505050565b6001600160a01b03821661267157604051633904578f60e11b815260040160405180910390fd5b6000818152600260205260409020546001600160a01b0316156126a757604051632eb5f0c360e21b815260040160405180910390fd5b6126b360008383612ec6565b60008181526002602052604080822080546001600160a01b0319166001600160a01b03861690811790915590518392907fddf252ad1be2c89b69c2b068fc378daa952ba7f163c4a11628f55a4df523b3ef908290a461133e600083836130e6565b600780546001600160a01b038381166001600160a01b0319831681179093556040519116919082907f8be0079c531659141344cd1fd0a4f28419497f9722a3daafe3b4186f6b6457e090600090a35050565b805460009080156127af578261277d600183614bcb565b8154811061278d5761278d6147b7565b60009182526020909120015464010000000090046001600160e01b03166127b2565b60005b6001600160e01b03169392505050565b816001600160a01b0316836001600160a01b0316036127f4576040516306f8139d60e11b815260040160405180910390fd5b6001600160a01b03838116600081815260046020908152604080832094871680845294825291829020805460ff191686151590811790915591519182527f17307eab39ab6107e8899845ad3d59bd9653f200f220920489ca2b5937696c31910160405180910390a3505050565b60095460405163051330b560e21b81526000916001600160a01b03169063144cc2d4906112099030908690600401614ded565b600954604051631572f24960e11b81523060048201526000916001600160a01b031690632ae5e49290602401602060405180830381865afa1580156128dd573d6000803e3d6000fd5b505050506040513d601f19601f8201168201806040525081019061221a9190614b80565b600080806000198587098587029250828110838203039150508060000361293b5783828161293157612931614e11565b04925050506119d4565b83811061296557604051631dcf306360e21b81526004810182905260248101859052604401612288565b60008486880960026001871981018816978890046003810283188082028403028082028403028082028403028082028403028082028403029081029092039091026000889003889004909101858311909403939093029303949094049190911702949350505050565b6001600160a01b038381166000818152600f6020908152604080832086845290915280822080548786166001600160a01b0319821681179092559151919094169392849290917f3134e8a2e6d97e929a7e54011ea5485d7d196dd5f0ba4d4ef95803e8e3fc257f9190a4610f3c818484612a4888876131df565b61325b565b612a5884848461248b565b612a64848484846133b0565b610f3c576040516336f57c1b60e11b815260040160405180910390fd5b6000438210612ad25760405162461bcd60e51b815260206004820181905260248201527f436865636b706f696e74733a20626c6f636b206e6f7420796574206d696e65646044820152606401612288565b825460005b81811015612b37576000612aeb82846134b2565b905084866000018281548110612b0357612b036147b7565b60009182526020909120015463ffffffff161115612b2357809250612b31565b612b2e816001614bde565b91505b50612ad7565b8115612b7b5784612b49600184614bcb565b81548110612b5957612b596147b7565b60009182526020909120015464010000000090046001600160e01b0316612b7e565b60005b6001600160e01b031695945050505050565b600c5460009060c083013503612bab57506080810135612c61565b600b546001600160a01b03161561133e57600d54612c5e90608084013590612bd490600a614f0b565b600b54600c54604051635268657960e11b815260c08801356004820152602481019190915260a087013560448201526001600160a01b039091169063a4d0caf290606401602060405180830381865afa158015612c35573d6000803e3d6000fd5b505050506040513d601f19601f82011682018060405250810190612c599190614b80565b612901565b90505b6000600e81612c786101a086016101808701613c3e565b6001600160a01b0316815260208101919091526040016000908120549150612ca08284614bde565b90506000806024612cb56101e0880188614970565b9050118015612cf9575063b3bcbb7960e01b612cd56101e0880188614970565b612ce4916024916020916149b6565b612ced916149e0565b6001600160e01b031916145b15612d635760006060612d106101e0890189614970565b810190612d1d9190614f17565b919850965090945092505082159050612d3a575050505050505050565b805115612d6057612d5d8582612d586101a08c016101808d01613c3e565b6134cd565b94505b50505b8215612e0457612d8583612d7f6101a089016101808a01613c3e565b8461360f565b92508215612de2578015612dac57604051631b57826960e21b815260040160405180910390fd5b82600e6000612dc36101a08a016101808b01613c3e565b6001600160a01b03168152602081019190915260400160002055610c3c565b8315612dff576000600e81612dc36101a08a016101808b01613c3e565b610c3c565b8315610c3c576000600e81612e216101a08a016101808b01613c3e565b6001600160a01b03168152602081019190915260400160002055505050505050565b612e4d8282613719565b5050600591909155600680546001600160a01b0319166001600160a01b03909216919091179055565b60006001600160e01b031982166380ac58cd60e01b1480612ea757506001600160e01b03198216635b5e139f60e01b145b8061091657506301ffc9a760e01b6001600160e01b0319831614610916565b6001600160a01b03831615610a5c57600954604051634228826f60e11b81523060048201526001600160a01b039091169063845104de90602401608060405180830381865afa158015612f1d573d6000803e3d6000fd5b505050506040513d601f19601f82011682018060405250810190612f419190614fa6565b606001511561300257600a546005546040516321d1336160e11b815260048101919091526000916001600160a01b0316906343a266c29060240161012060405180830381865afa158015612f99573d6000803e3d6000fd5b505050506040513d601f19601f82011682018060405250810190612fbd9190614bf1565b90506001600160a01b03831615801590612fe2575061010081015160f41c6001908116145b15613000576040516318cdaf9760e01b815260040160405180910390fd5b505b6009546040516308ed6c0160e41b8152306004820152602481018390526000916001600160a01b031690638ed6c01090604401602060405180830381865afa158015613052573d6000803e3d6000fd5b505050506040513d601f19601f820116820180604052508101906130769190614ac0565b6001600160a01b031603610a5c57600954604051638cec7d3960e01b8152600481018390526001600160a01b03858116602483015290911690638cec7d3990604401600060405180830381600087803b1580156130d257600080fd5b505af1158015611817573d6000803e3d6000fd5b60095460405163b67cb04760e01b8152306004820152602481018390526000916001600160a01b03169063b67cb0479060440161014060405180830381865afa158015613137573d6000803e3d6000fd5b505050506040513d601f19601f8201168201806040525081019061315b919061502a565b60095481516040516330b157e560e21b815260048101919091526001600160a01b038781166024830152868116604483015292935091169063c2c55f9490606401600060405180830381600087803b1580156131b657600080fd5b505af11580156131ca573d6000803e3d6000fd5b505050506131da84848484613732565b610f3c565b6009546040516305c9a1d560e31b81523060048201526001600160a01b038481166024830152604482018490526000921690632e4d0ea890606401602060405180830381865afa158015613237573d6000803e3d6000fd5b505050506040513d601f19601f820116820180604052508101906119d49190614b80565b826001600160a01b0316846001600160a01b03161480613279575080155b610f3c576001600160a01b03841615613314576001600160a01b0384166000908152601060209081526040808320858452909152812081906132be906137508561375c565b60408051828152602081018890523381830152905192945090925083916001600160a01b038916917fed0c1e94c302bdbbd8bbd6a4fb7c3ed335c2292407cd816eadd075d019d0ce04919081900360600190a350505b6001600160a01b03831615610f3c576001600160a01b0383166000908152601060209081526040808320858452909152812081906133559061378a8561375c565b60408051838152602081018390523381830152905192945090925085916001600160a01b038816917fed0c1e94c302bdbbd8bbd6a4fb7c3ed335c2292407cd816eadd075d019d0ce04919081900360600190a3505050505050565b60006001600160a01b0384163b156134a757604051630a85bd0160e11b81526001600160a01b0385169063150b7a02906133f49033908990889088906004016150ba565b6020604051808303816000875af192505050801561342f575060408051601f3d908101601f1916820190925261342c918101906150f7565b60015b61348d573d80801561345d576040519150601f19603f3d011682016040523d82523d6000602084013e613462565b606091505b508051600003613485576040516336f57c1b60e11b815260040160405180910390fd5b805181602001fd5b6001600160e01b031916630a85bd0160e11b149050611c61565b506001949350505050565b60006134c16002848418615114565b6119d490848416614bde565b60095460405163eaa19ab360e01b81526000916060916001600160a01b039091169063eaa19ab39061350790889088908790600401614add565b6000604051808303816000875af1158015613526573d6000803e3d6000fd5b505050506040513d6000823e601f3d908101601f1916820160405261354e9190810190614b3a565b81519093509091506000805b8281101561360457838181518110613574576135746147b7565b60200260200101519150613588868361264a565b856001600160a01b03168782815181106135a4576135a46147b7565b602002602001015161ffff16837f598baf7bf150ca2f42be9e9f8f55e81d45f5715c3ff22bf46d697fabec7f31d68b336040516135f49291909182526001600160a01b0316602082015260400190565b60405180910390a460010161355a565b505050509392505050565b60095460405163879791f360e01b815260048101859052600091829182916001600160a01b03169063879791f3906024016060604051808303816000875af115801561365f573d6000803e3d6000fd5b505050506040513d601f19601f820116820180604052508101906136839190615136565b9450909250905060008290036136b95783156136b257604051630e5313df60e41b815260040160405180910390fd5b50506119d4565b6136c3858361264a565b6001600160a01b03851681837f598baf7bf150ca2f42be9e9f8f55e81d45f5715c3ff22bf46d697fabec7f31d66136fa878b614bcb565b604080519182523360208301520160405180910390a450509392505050565b600061372583826151aa565b506001610a5c82826151aa565b60a081015115610f3c57610f3c848483600001518460a00151613796565b60006119d48284614bcb565b60008061377e8561377961376f88612766565b868863ffffffff16565b613838565b91509150935093915050565b60006119d48284614bde565b6001600160a01b0384166137c25760008281526011602052604090206137bf9061378a8361375c565b50505b6001600160a01b0383166137ee5760008281526011602052604090206137eb906137508361375c565b50505b6001600160a01b038085166000908152600f60208181526040808420878552825280842054888616855292825280842087855290915290912054610f3c929182169116848461325b565b815460009081908161384986612766565b905060008211801561388757504386613863600185614bcb565b81548110613873576138736147b7565b60009182526020909120015463ffffffff16145b156138e75761389585613963565b866138a1600185614bcb565b815481106138b1576138b16147b7565b9060005260206000200160000160046101000a8154816001600160e01b0302191690836001600160e01b03160217905550613955565b8560000160405180604001604052806138ff436139d0565b63ffffffff16815260200161391388613963565b6001600160e01b0390811690915282546001810184556000938452602093849020835194909301519091166401000000000263ffffffff909316929092179101555b9250839150505b9250929050565b60006001600160e01b038211156139cc5760405162461bcd60e51b815260206004820152602760248201527f53616665436173743a2076616c756520646f65736e27742066697420696e20326044820152663234206269747360c81b6064820152608401612288565b5090565b600063ffffffff8211156139cc5760405162461bcd60e51b815260206004820152602660248201527f53616665436173743a2076616c756520646f65736e27742066697420696e203360448201526532206269747360d01b6064820152608401612288565b6001600160e01b031981168114611e0657600080fd5b600060208284031215613a5d57600080fd5b81356119d481613a35565b60005b83811015613a83578181015183820152602001613a6b565b50506000910152565b60008151808452613aa4816020860160208601613a68565b601f01601f19169290920160200192915050565b6020815260006119d46020830184613a8c565b600060208284031215613add57600080fd5b5035919050565b6001600160a01b0381168114611e0657600080fd5b8035613b0481613ae4565b919050565b60008060408385031215613b1c57600080fd5b8235613b2781613ae4565b946020939093013593505050565b60008060008060408587031215613b4b57600080fd5b84356001600160401b0380821115613b6257600080fd5b818701915087601f830112613b7657600080fd5b813581811115613b8557600080fd5b88602061012083028501011115613b9b57600080fd5b602092830196509450908601359080821115613bb657600080fd5b818701915087601f830112613bca57600080fd5b813581811115613bd957600080fd5b8860208260051b8501011115613bee57600080fd5b95989497505060200194505050565b600080600060608486031215613c1257600080fd5b8335613c1d81613ae4565b92506020840135613c2d81613ae4565b929592945050506040919091013590565b600060208284031215613c5057600080fd5b81356119d481613ae4565b634e487b7160e01b600052604160045260246000fd5b604080519081016001600160401b0381118282101715613c9357613c93613c5b565b60405290565b604051608081016001600160401b0381118282101715613c9357613c93613c5b565b60405161012081016001600160401b0381118282101715613c9357613c93613c5b565b60405161014081016001600160401b0381118282101715613c9357613c93613c5b565b604051601f8201601f191681016001600160401b0381118282101715613d2957613d29613c5b565b604052919050565b60006001600160401b03821115613d4a57613d4a613c5b565b5060051b60200190565b60006020808385031215613d6757600080fd5b82356001600160401b03811115613d7d57600080fd5b8301601f81018513613d8e57600080fd5b8035613da1613d9c82613d31565b613d01565b81815260069190911b82018301908381019087831115613dc057600080fd5b928401925b82841015613e035760408489031215613dde5760008081fd5b613de6613c71565b843581528585013586820152825260409093019290840190613dc5565b979650505050505050565b60006101e08284031215613e2157600080fd5b50919050565b600060208284031215613e3957600080fd5b81356001600160401b03811115613e4f57600080fd5b611c6184828501613e0e565b600082601f830112613e6c57600080fd5b81356020613e7c613d9c83613d31565b82815260059290921b84018101918181019086841115613e9b57600080fd5b8286015b84811015613ec757803561ffff81168114613eba5760008081fd5b8352918301918301613e9f565b509695505050505050565b60006020808385031215613ee557600080fd5b82356001600160401b0380821115613efc57600080fd5b818501915085601f830112613f1057600080fd5b8135613f1e613d9c82613d31565b81815260059190911b83018401908481019088831115613f3d57600080fd5b8585015b83811015613fbf57803585811115613f595760008081fd5b86016040818c03601f1901811315613f715760008081fd5b613f79613c71565b8983013588811115613f8b5760008081fd5b613f998e8c83870101613e5b565b8252509181013591613faa83613ae4565b808a0192909252508352918601918601613f41565b5098975050505050505050565b60008060408385031215613fdf57600080fd5b82356001600160401b03811115613ff557600080fd5b61400185828601613e5b565b925050602083013561401281613ae4565b809150509250929050565b600081518084526020808501945080840160005b8381101561404d57815187529582019590820190600101614031565b509495945050505050565b6020815260006119d4602083018461401d565b60006001600160401b0382111561408457614084613c5b565b50601f01601f191660200190565b60006140a0613d9c8461406b565b90508281528383830111156140b457600080fd5b828260208301376000602084830101529392505050565b600082601f8301126140dc57600080fd5b6119d483833560208501614092565b6000602082840312156140fd57600080fd5b81356001600160401b0381111561411357600080fd5b611c61848285016140cb565b8015158114611e0657600080fd5b8035613b048161411f565b6000806040838503121561414b57600080fd5b823561415681613ae4565b915060208301356140128161411f565b838152600060206060818401526141806060840186613a8c565b83810360408581019190915285518083528387019284019060005b818110156141c957845180516001600160a01b0316845286015186840152938501939183019160010161419b565b50909998505050505050505050565b600080604083850312156141eb57600080fd5b50508035926020909101359150565b6000806000806080858703121561421057600080fd5b843561421b81613ae4565b9350602085013561422b81613ae4565b92506040850135915060608501356001600160401b0381111561424d57600080fd5b8501601f8101871361425e57600080fd5b61426d87823560208401614092565b91505092959194509250565b6000602080838503121561428c57600080fd5b82356001600160401b038111156142a257600080fd5b8301601f810185136142b357600080fd5b80356142c1613d9c82613d31565b81815260069190911b820183019083810190878311156142e057600080fd5b928401925b82841015613e0357604084890312156142fe5760008081fd5b614306613c71565b843561431181613ae4565b815284860135868201528252604090930192908401906142e5565b6000806020838503121561433f57600080fd5b82356001600160401b038082111561435657600080fd5b818501915085601f83011261436a57600080fd5b81358181111561437957600080fd5b86602082850101111561438b57600080fd5b60209290920196919550909350505050565b6000806000606084860312156143b257600080fd5b83356143bd81613ae4565b95602085013595506040909401359392505050565b6000602082840312156143e457600080fd5b81356001600160401b038111156143fa57600080fd5b82016101a081850312156119d457600080fd5b60006020828403121561441f57600080fd5b81356001600160401b0381111561443557600080fd5b820161020081850312156119d457600080fd5b6000608080838503121561445b57600080fd5b614463613c99565b915082356001600160401b0381111561447b57600080fd5b8301601f8101851361448c57600080fd5b8035602061449c613d9c83613d31565b82815261012092830284018201928282019190898511156144bc57600080fd5b948301945b848610156145565780868b0312156144d95760008081fd5b6144e1613cbb565b8635815284870135858201526040808801359082015260608088013590820152878701358882015260a0614516818901613af9565b9082015260c0878101359082015260e061453181890161412d565b9082015261010061454388820161412d565b90820152835294850194918301916144c1565b5086525085810135908501525050506040808301359082015261457b60608301613af9565b606082015292915050565b60006080828403121561459857600080fd5b6145a0613c99565b905081356145ad8161411f565b815260208201356145bd8161411f565b602082015260408201356145d08161411f565b6040820152606082013561457b8161411f565b60008060008060008060008060008060006101c08c8e03121561460557600080fd5b8b359a5061461560208d01613af9565b99506001600160401b038060408e0135111561463057600080fd5b6146408e60408f01358f016140cb565b99508060608e0135111561465357600080fd5b6146638e60608f01358f016140cb565b985061467160808e01613af9565b97508060a08e0135111561468457600080fd5b6146948e60a08f01358f016140cb565b96506146a260c08e01613af9565b95508060e08e013511156146b557600080fd5b6146c58e60e08f01358f016140cb565b9450806101008e013511156146d957600080fd5b506146eb8d6101008e01358e01614448565b92506146fa6101208d01613af9565b915061470a8d6101408e01614586565b90509295989b509295989b9093969950565b6000806040838503121561472f57600080fd5b823561473a81613ae4565b9150602083013561401281613ae4565b600181811c9082168061475e57607f821691505b602082108103613e2157634e487b7160e01b600052602260045260246000fd5b6020808252810182905260006001600160fb1b0383111561479e57600080fd5b8260051b80856040850137919091016040019392505050565b634e487b7160e01b600052603260045260246000fd5b803582526020810135602083015260408101356040830152606081013560608301526080810135608083015260a081013561480781613ae4565b6001600160a01b031660a083015260c0818101359083015260e081013561482d8161411f565b151560e083015261010061484282820161412d565b80151584830152610f3c565b6020808252810182905260008360408301825b858110156148875761487382846147cd565b610120928301929190910190600101614861565b5095945050505050565b600082601f8301126148a257600080fd5b815160206148b2613d9c83613d31565b82815260059290921b840181019181810190868411156148d157600080fd5b8286015b84811015613ec757805183529183019183016148d5565b6000602082840312156148fe57600080fd5b81516001600160401b0381111561491457600080fd5b611c6184828501614891565b610140810161492f82856147cd565b6001600160a01b03929092166101209190910152919050565b8051613b048161411f565b60006020828403121561496557600080fd5b81516119d48161411f565b6000808335601e1984360301811261498757600080fd5b8301803591506001600160401b038211156149a157600080fd5b60200191503681900382131561395c57600080fd5b600080858511156149c657600080fd5b838611156149d357600080fd5b5050820193919092039150565b6001600160e01b03198135818116916004851015614a085780818660040360031b1b83161692505b505092915050565b60008060408385031215614a2357600080fd5b8235614a2e81613a35565b91506020838101356001600160401b03811115614a4a57600080fd5b8401601f81018613614a5b57600080fd5b8035614a69613d9c82613d31565b81815260059190911b82018301908381019088831115614a8857600080fd5b928401925b82841015614aa657833582529284019290840190614a8d565b80955050505050509250929050565b8051613b0481613ae4565b600060208284031215614ad257600080fd5b81516119d481613ae4565b6000606082018583526020606081850152818651808452608086019150828801935060005b81811015614b2257845161ffff1683529383019391830191600101614b02565b50508093505050508215156040830152949350505050565b60008060408385031215614b4d57600080fd5b82516001600160401b03811115614b6357600080fd5b614b6f85828601614891565b925050602083015190509250929050565b600060208284031215614b9257600080fd5b5051919050565b60008251614bab818460208701613a68565b9190910192915050565b634e487b7160e01b600052601160045260246000fd5b8181038181111561091657610916614bb5565b8082018082111561091657610916614bb5565b60006101208284031215614c0457600080fd5b614c0c613cbb565b825181526020830151602082015260408301516040820152606083015160608201526080830151608082015260a083015160a082015260c083015160c0820152614c5860e08401614ab5565b60e0820152610100928301519281019290925250919050565b600060208284031215614c8357600080fd5b81516001600160401b03811115614c9957600080fd5b8201601f81018413614caa57600080fd5b8051614cb8613d9c8261406b565b818152856020838501011115614ccd57600080fd5b614cde826020830160208601613a68565b95945050505050565b604081526000614cfa6040830185613a8c565b90508260208301529392505050565b60208152816020820152818360408301376000818301604090810191909152601f909201601f19160101919050565b8183823760009101908152919050565b602080825282518282018190526000919060409081850190868401855b82811015614de05781518051855286810151878601528581015186860152606080820151908601526080808201519086015260a0808201516001600160a01b03169086015260c0808201519086015260e080820151151590860152610100908101511515908501526101209093019290850190600101614d65565b5091979650505050505050565b6001600160a01b0383168152604060208201819052600090611c619083018461401d565b634e487b7160e01b600052601260045260246000fd5b600181815b80851115614e62578160001904821115614e4857614e48614bb5565b80851615614e5557918102915b93841c9390800290614e2c565b509250929050565b600082614e7957506001610916565b81614e8657506000610916565b8160018114614e9c5760028114614ea657614ec2565b6001915050610916565b60ff841115614eb757614eb7614bb5565b50506001821b610916565b5060208310610133831016604e8410600b8410161715614ee5575081810a610916565b614eef8383614e27565b8060001904821115614f0357614f03614bb5565b029392505050565b60006119d48383614e6a565b60008060008060008060c08789031215614f3057600080fd5b863595506020870135614f4281613a35565b94506040870135614f528161411f565b93506060870135614f628161411f565b92506080870135614f728161411f565b915060a08701356001600160401b03811115614f8d57600080fd5b614f9989828a01613e5b565b9150509295509295509295565b600060808284031215614fb857600080fd5b604051608081018181106001600160401b0382111715614fda57614fda613c5b565b6040528251614fe88161411f565b81526020830151614ff88161411f565b6020820152604083015161500b8161411f565b6040820152606083015161501e8161411f565b60608201529392505050565b6000610140828403121561503d57600080fd5b615045613cde565b825181526020830151602082015260408301516040820152606083015160608201526080830151608082015260a083015160a082015260c083015160c082015261509160e08401614ab5565b60e082015261010083810151908201526101206150af818501614948565b908201529392505050565b6001600160a01b03858116825284166020820152604081018390526080606082018190526000906150ed90830184613a8c565b9695505050505050565b60006020828403121561510957600080fd5b81516119d481613a35565b60008261513157634e487b7160e01b600052601260045260246000fd5b500490565b60008060006060848603121561514b57600080fd5b8351925060208401519150604084015190509250925092565b601f821115610a5c57600081815260208120601f850160051c8101602086101561518b5750805b601f850160051c820191505b81811015610c3c57828155600101615197565b81516001600160401b038111156151c3576151c3613c5b565b6151d7816151d1845461474a565b84615164565b602080601f83116001811461520c57600084156151f45750858301515b600019600386901b1c1916600185901b178555610c3c565b600085815260208120601f198616915b8281101561523b5788860151825594840194600190910190840161521c565b50858210156152595787850151600019600388901b60f8161c191681555b5050505050600190811b0190555056fea26469706673582212205830823617ac562da7dfd6b715cb2cded2c96e51b0368eb5ba7b198715d86b6f64736f6c63430008100033",
    "linkReferences": {
      "contracts/libraries/JBIpfsDecoder.sol": {
        "JBIpfsDecoder": [
          {
            "start": 6794,
            "length": 20
          }
        ]
      }
    }
  },
  "methodIdentifiers": {
    "adjustTiers((uint256,uint256,uint256,uint256,uint256,address,bytes32,bool,bool)[],uint256[])": "211eb001",
    "approve(address,uint256)": "095ea7b3",
    "balanceOf(address)": "70a08231",
    "codeOrigin()": "1d153ca4",
    "contractURI()": "e8a3d485",
    "creditsOf(address)": "245a45b5",
    "didPay((address,uint256,uint256,(address,uint256,uint256,uint256),(address,uint256,uint256,uint256),uint256,address,bool,string,bytes))": "da9ee8b7",
    "didRedeem((address,uint256,uint256,uint256,(address,uint256,uint256,uint256),(address,uint256,uint256,uint256),address,string,bytes))": "2b13c58f",
    "directory()": "c41c2f24",
    "firstOwnerOf(uint256)": "54c6d1f5",
    "fundingCycleStore()": "557e7155",
    "getApproved(uint256)": "081812fc",
    "getPastTierTotalVotes(uint256,uint256)": "d31cc52c",
    "getPastTierVotes(address,uint256,uint256)": "d40e7146",
    "getTierDelegate(address,uint256)": "82732b6d",
    "getTierTotalVotes(uint256)": "94c5c5ca",
    "getTierVotes(address,uint256)": "ca323efe",
    "initialize(uint256,address,string,string,address,string,address,string,((uint256,uint256,uint256,uint256,uint256,address,bytes32,bool,bool)[],uint256,uint256,address),address,(bool,bool,bool,bool))": "dfedb3af",
    "isApprovedForAll(address,address)": "e985e9c5",
    "mintFor((uint16[],address)[])": "36c1a93b",
    "mintFor(uint16[],address)": "6ac6d941",
    "mintReservesFor((uint256,uint256)[])": "2a596e53",
    "mintReservesFor(uint256,uint256)": "aa4fb15b",
    "name()": "06fdde03",
    "owner()": "8da5cb5b",
    "ownerOf(uint256)": "6352211e",
    "payParams((address,address,(address,uint256,uint256,uint256),uint256,uint256,address,uint256,uint256,string,bytes))": "d46cf171",
    "prices()": "d3419bf3",
    "pricingCurrency()": "64640c1e",
    "pricingDecimals()": "4ecba625",
    "projectId()": "3fafa127",
    "redeemParams((address,address,uint256,uint256,uint256,uint256,uint256,(address,uint256,uint256,uint256),bool,uint256,string,bytes))": "a51cfd18",
    "renounceOwnership()": "715018a6",
    "safeTransferFrom(address,address,uint256)": "42842e0e",
    "safeTransferFrom(address,address,uint256,bytes)": "b88d4fde",
    "setApprovalForAll(address,bool)": "a22cb465",
    "setBaseUri(string)": "a0bcfc7f",
    "setContractUri(string)": "ccb4807b",
    "setDefaultReservedTokenBeneficiary(address)": "df487e26",
    "setTierDelegate(address,uint256)": "ab951e39",
    "setTierDelegates((address,uint256)[])": "c74b13d9",
    "setTokenUriResolver(address)": "2407497e",
    "store()": "975057e7",
    "supportsInterface(bytes4)": "01ffc9a7",
    "symbol()": "95d89b41",
    "tokenURI(uint256)": "c87b56dd",
    "transferFrom(address,address,uint256)": "23b872dd",
    "transferOwnership(address)": "f2fde38b"
  },
  "id": 1
}