{
  "abi": [
    {
      "inputs": [],
      "name": "ALEADY_MINTED",
      "type": "error"
    },
    {
      "inputs": [],
      "name": "APPROVAL_TO_CURRENT_OWNER",
      "type": "error"
    },
    {
      "inputs": [],
      "name": "APPROVE_TO_CALLER",
      "type": "error"
    },
    {
      "inputs": [],
      "name": "BLOCK_NOT_YET_MINED",
      "type": "error"
    },
    {
      "inputs": [],
      "name": "CALLER_NOT_OWNER_OR_APPROVED",
      "type": "error"
    },
    {
      "inputs": [],
      "name": "DELEGATE_ADDRESS_ZERO",
      "type": "error"
    },
    {
      "inputs": [],
      "name": "INCORRECT_OWNER",
      "type": "error"
    },
    {
      "inputs": [],
      "name": "INVALID_PAYMENT_EVENT",
      "type": "error"
    },
    {
      "inputs": [],
      "name": "INVALID_REDEMPTION_EVENT",
      "type": "error"
    },
    {
      "inputs": [],
      "name": "INVALID_REDEMPTION_METADATA",
      "type": "error"
    },
    {
      "inputs": [],
      "name": "INVALID_TOKEN_ID",
      "type": "error"
    },
    {
      "inputs": [],
      "name": "MINT_TO_ZERO",
      "type": "error"
    },
    {
      "inputs": [],
      "name": "NOT_AVAILABLE",
      "type": "error"
    },
    {
      "inputs": [],
      "name": "OVERSPENDING",
      "type": "error"
    },
    {
      "inputs": [
        {
          "internalType": "uint256",
          "name": "prod1",
          "type": "uint256"
        },
        {
          "internalType": "uint256",
          "name": "denominator",
          "type": "uint256"
        }
      ],
      "name": "PRBMath__MulDivOverflow",
      "type": "error"
    },
    {
      "inputs": [],
      "name": "PRICING_RESOLVER_CHANGES_PAUSED",
      "type": "error"
    },
    {
      "inputs": [],
      "name": "RESERVED_TOKEN_MINTING_PAUSED",
      "type": "error"
    },
    {
      "inputs": [],
      "name": "TRANSFERS_PAUSED",
      "type": "error"
    },
    {
      "inputs": [],
      "name": "TRANSFER_TO_NON_IMPLEMENTER",
      "type": "error"
    },
    {
      "inputs": [],
      "name": "TRANSFER_TO_ZERO_ADDRESS",
      "type": "error"
    },
    {
      "inputs": [],
      "name": "UNAUTHORIZED",
      "type": "error"
    },
    {
      "inputs": [],
      "name": "UNEXPECTED_TOKEN_REDEEMED",
      "type": "error"
    },
    {
      "anonymous": false,
      "inputs": [
        {
          "indexed": true,
          "internalType": "uint256",
          "name": "tierId",
          "type": "uint256"
        },
        {
          "components": [
            {
              "internalType": "uint80",
              "name": "contributionFloor",
              "type": "uint80"
            },
            {
              "internalType": "uint48",
              "name": "lockedUntil",
              "type": "uint48"
            },
            {
              "internalType": "uint40",
              "name": "initialQuantity",
              "type": "uint40"
            },
            {
              "internalType": "uint16",
              "name": "votingUnits",
              "type": "uint16"
            },
            {
              "internalType": "uint16",
              "name": "reservedRate",
              "type": "uint16"
            },
            {
              "internalType": "address",
              "name": "reservedTokenBeneficiary",
              "type": "address"
            },
            {
              "internalType": "bytes32",
              "name": "encodedIPFSUri",
              "type": "bytes32"
            },
            {
              "internalType": "uint8",
              "name": "category",
              "type": "uint8"
            },
            {
              "internalType": "bool",
              "name": "allowManualMint",
              "type": "bool"
            },
            {
              "internalType": "bool",
              "name": "shouldUseBeneficiaryAsDefault",
              "type": "bool"
            },
            {
              "internalType": "bool",
              "name": "transfersPausable",
              "type": "bool"
            }
          ],
          "indexed": false,
          "internalType": "struct JB721TierParams",
          "name": "data",
          "type": "tuple"
        },
        {
          "indexed": false,
          "internalType": "address",
          "name": "caller",
          "type": "address"
        }
      ],
      "name": "AddTier",
      "type": "event"
    },
    {
      "anonymous": false,
      "inputs": [
        {
          "indexed": true,
          "internalType": "address",
          "name": "owner",
          "type": "address"
        },
        {
          "indexed": true,
          "internalType": "address",
          "name": "approved",
          "type": "address"
        },
        {
          "indexed": true,
          "internalType": "uint256",
          "name": "tokenId",
          "type": "uint256"
        }
      ],
      "name": "Approval",
      "type": "event"
    },
    {
      "anonymous": false,
      "inputs": [
        {
          "indexed": true,
          "internalType": "address",
          "name": "owner",
          "type": "address"
        },
        {
          "indexed": true,
          "internalType": "address",
          "name": "operator",
          "type": "address"
        },
        {
          "indexed": false,
          "internalType": "bool",
          "name": "approved",
          "type": "bool"
        }
      ],
      "name": "ApprovalForAll",
      "type": "event"
    },
    {
      "anonymous": false,
      "inputs": [
        {
          "indexed": true,
          "internalType": "address",
          "name": "delegator",
          "type": "address"
        },
        {
          "indexed": true,
          "internalType": "address",
          "name": "fromDelegate",
          "type": "address"
        },
        {
          "indexed": true,
          "internalType": "address",
          "name": "toDelegate",
          "type": "address"
        }
      ],
      "name": "DelegateChanged",
      "type": "event"
    },
    {
      "anonymous": false,
      "inputs": [
        {
          "indexed": true,
          "internalType": "uint256",
          "name": "tokenId",
          "type": "uint256"
        },
        {
          "indexed": true,
          "internalType": "uint256",
          "name": "tierId",
          "type": "uint256"
        },
        {
          "indexed": true,
          "internalType": "address",
          "name": "beneficiary",
          "type": "address"
        },
        {
          "indexed": false,
          "internalType": "uint256",
          "name": "totalAmountContributed",
          "type": "uint256"
        },
        {
          "indexed": false,
          "internalType": "address",
          "name": "caller",
          "type": "address"
        }
      ],
      "name": "Mint",
      "type": "event"
    },
    {
      "anonymous": false,
      "inputs": [
        {
          "indexed": true,
          "internalType": "uint256",
          "name": "tokenId",
          "type": "uint256"
        },
        {
          "indexed": true,
          "internalType": "uint256",
          "name": "tierId",
          "type": "uint256"
        },
        {
          "indexed": true,
          "internalType": "address",
          "name": "beneficiary",
          "type": "address"
        },
        {
          "indexed": false,
          "internalType": "address",
          "name": "caller",
          "type": "address"
        }
      ],
      "name": "MintReservedToken",
      "type": "event"
    },
    {
      "anonymous": false,
      "inputs": [
        {
          "indexed": true,
          "internalType": "address",
          "name": "previousOwner",
          "type": "address"
        },
        {
          "indexed": true,
          "internalType": "address",
          "name": "newOwner",
          "type": "address"
        }
      ],
      "name": "OwnershipTransferred",
      "type": "event"
    },
    {
      "anonymous": false,
      "inputs": [
        {
          "indexed": true,
          "internalType": "uint256",
          "name": "tierId",
          "type": "uint256"
        },
        {
          "indexed": false,
          "internalType": "address",
          "name": "caller",
          "type": "address"
        }
      ],
      "name": "RemoveTier",
      "type": "event"
    },
    {
      "anonymous": false,
      "inputs": [
        {
          "indexed": true,
          "internalType": "string",
          "name": "baseUri",
          "type": "string"
        },
        {
          "indexed": false,
          "internalType": "address",
          "name": "caller",
          "type": "address"
        }
      ],
      "name": "SetBaseUri",
      "type": "event"
    },
    {
      "anonymous": false,
      "inputs": [
        {
          "indexed": true,
          "internalType": "string",
          "name": "contractUri",
          "type": "string"
        },
        {
          "indexed": false,
          "internalType": "address",
          "name": "caller",
          "type": "address"
        }
      ],
      "name": "SetContractUri",
      "type": "event"
    },
    {
      "anonymous": false,
      "inputs": [
        {
          "indexed": true,
          "internalType": "address",
          "name": "beneficiary",
          "type": "address"
        },
        {
          "indexed": false,
          "internalType": "address",
          "name": "caller",
          "type": "address"
        }
      ],
      "name": "SetDefaultReservedTokenBeneficiary",
      "type": "event"
    },
    {
      "anonymous": false,
      "inputs": [
        {
          "indexed": true,
          "internalType": "contract IJBTokenUriResolver",
          "name": "newResolver",
          "type": "address"
        },
        {
          "indexed": false,
          "internalType": "address",
          "name": "caller",
          "type": "address"
        }
      ],
      "name": "SetTokenUriResolver",
      "type": "event"
    },
    {
      "anonymous": false,
      "inputs": [
        {
          "indexed": true,
          "internalType": "address",
          "name": "delegator",
          "type": "address"
        },
        {
          "indexed": true,
          "internalType": "address",
          "name": "fromDelegate",
          "type": "address"
        },
        {
          "indexed": true,
          "internalType": "address",
          "name": "toDelegate",
          "type": "address"
        },
        {
          "indexed": false,
          "internalType": "uint256",
          "name": "tierId",
          "type": "uint256"
        },
        {
          "indexed": false,
          "internalType": "address",
          "name": "caller",
          "type": "address"
        }
      ],
      "name": "TierDelegateChanged",
      "type": "event"
    },
    {
      "anonymous": false,
      "inputs": [
        {
          "indexed": true,
          "internalType": "address",
          "name": "delegate",
          "type": "address"
        },
        {
          "indexed": true,
          "internalType": "uint256",
          "name": "tierId",
          "type": "uint256"
        },
        {
          "indexed": false,
          "internalType": "uint256",
          "name": "previousBalance",
          "type": "uint256"
        },
        {
          "indexed": false,
          "internalType": "uint256",
          "name": "newBalance",
          "type": "uint256"
        },
        {
          "indexed": false,
          "internalType": "address",
          "name": "caller",
          "type": "address"
        }
      ],
      "name": "TierDelegateVotesChanged",
      "type": "event"
    },
    {
      "anonymous": false,
      "inputs": [
        {
          "indexed": true,
          "internalType": "address",
          "name": "from",
          "type": "address"
        },
        {
          "indexed": true,
          "internalType": "address",
          "name": "to",
          "type": "address"
        },
        {
          "indexed": true,
          "internalType": "uint256",
          "name": "tokenId",
          "type": "uint256"
        }
      ],
      "name": "Transfer",
      "type": "event"
    },
    {
      "inputs": [
        {
          "components": [
            {
              "internalType": "uint80",
              "name": "contributionFloor",
              "type": "uint80"
            },
            {
              "internalType": "uint48",
              "name": "lockedUntil",
              "type": "uint48"
            },
            {
              "internalType": "uint40",
              "name": "initialQuantity",
              "type": "uint40"
            },
            {
              "internalType": "uint16",
              "name": "votingUnits",
              "type": "uint16"
            },
            {
              "internalType": "uint16",
              "name": "reservedRate",
              "type": "uint16"
            },
            {
              "internalType": "address",
              "name": "reservedTokenBeneficiary",
              "type": "address"
            },
            {
              "internalType": "bytes32",
              "name": "encodedIPFSUri",
              "type": "bytes32"
            },
            {
              "internalType": "uint8",
              "name": "category",
              "type": "uint8"
            },
            {
              "internalType": "bool",
              "name": "allowManualMint",
              "type": "bool"
            },
            {
              "internalType": "bool",
              "name": "shouldUseBeneficiaryAsDefault",
              "type": "bool"
            },
            {
              "internalType": "bool",
              "name": "transfersPausable",
              "type": "bool"
            }
          ],
          "internalType": "struct JB721TierParams[]",
          "name": "_tiersToAdd",
          "type": "tuple[]"
        },
        {
          "internalType": "uint256[]",
          "name": "_tierIdsToRemove",
          "type": "uint256[]"
        }
      ],
      "name": "adjustTiers",
      "outputs": [],
      "stateMutability": "nonpayable",
      "type": "function"
    },
    {
      "inputs": [
        {
          "internalType": "address",
          "name": "to",
          "type": "address"
        },
        {
          "internalType": "uint256",
          "name": "tokenId",
          "type": "uint256"
        }
      ],
      "name": "approve",
      "outputs": [],
      "stateMutability": "nonpayable",
      "type": "function"
    },
    {
      "inputs": [
        {
          "internalType": "address",
          "name": "_owner",
          "type": "address"
        }
      ],
      "name": "balanceOf",
      "outputs": [
        {
          "internalType": "uint256",
          "name": "balance",
          "type": "uint256"
        }
      ],
      "stateMutability": "view",
      "type": "function"
    },
    {
      "inputs": [],
      "name": "codeOrigin",
      "outputs": [
        {
          "internalType": "address",
          "name": "",
          "type": "address"
        }
      ],
      "stateMutability": "view",
      "type": "function"
    },
    {
      "inputs": [],
      "name": "contractURI",
      "outputs": [
        {
          "internalType": "string",
          "name": "",
          "type": "string"
        }
      ],
      "stateMutability": "view",
      "type": "function"
    },
    {
      "inputs": [
        {
          "internalType": "address",
          "name": "",
          "type": "address"
        }
      ],
      "name": "creditsOf",
      "outputs": [
        {
          "internalType": "uint256",
          "name": "",
          "type": "uint256"
        }
      ],
      "stateMutability": "view",
      "type": "function"
    },
    {
      "inputs": [
        {
          "components": [
            {
              "internalType": "address",
              "name": "payer",
              "type": "address"
            },
            {
              "internalType": "uint256",
              "name": "projectId",
              "type": "uint256"
            },
            {
              "internalType": "uint256",
              "name": "currentFundingCycleConfiguration",
              "type": "uint256"
            },
            {
              "components": [
                {
                  "internalType": "address",
                  "name": "token",
                  "type": "address"
                },
                {
                  "internalType": "uint256",
                  "name": "value",
                  "type": "uint256"
                },
                {
                  "internalType": "uint256",
                  "name": "decimals",
                  "type": "uint256"
                },
                {
                  "internalType": "uint256",
                  "name": "currency",
                  "type": "uint256"
                }
              ],
              "internalType": "struct JBTokenAmount",
              "name": "amount",
              "type": "tuple"
            },
            {
              "components": [
                {
                  "internalType": "address",
                  "name": "token",
                  "type": "address"
                },
                {
                  "internalType": "uint256",
                  "name": "value",
                  "type": "uint256"
                },
                {
                  "internalType": "uint256",
                  "name": "decimals",
                  "type": "uint256"
                },
                {
                  "internalType": "uint256",
                  "name": "currency",
                  "type": "uint256"
                }
              ],
              "internalType": "struct JBTokenAmount",
              "name": "forwardedAmount",
              "type": "tuple"
            },
            {
              "internalType": "uint256",
              "name": "projectTokenCount",
              "type": "uint256"
            },
            {
              "internalType": "address",
              "name": "beneficiary",
              "type": "address"
            },
            {
              "internalType": "bool",
              "name": "preferClaimedTokens",
              "type": "bool"
            },
            {
              "internalType": "string",
              "name": "memo",
              "type": "string"
            },
            {
              "internalType": "bytes",
              "name": "metadata",
              "type": "bytes"
            }
          ],
          "internalType": "struct JBDidPayData",
          "name": "_data",
          "type": "tuple"
        }
      ],
      "name": "didPay",
      "outputs": [],
      "stateMutability": "payable",
      "type": "function"
    },
    {
      "inputs": [
        {
          "components": [
            {
              "internalType": "address",
              "name": "holder",
              "type": "address"
            },
            {
              "internalType": "uint256",
              "name": "projectId",
              "type": "uint256"
            },
            {
              "internalType": "uint256",
              "name": "currentFundingCycleConfiguration",
              "type": "uint256"
            },
            {
              "internalType": "uint256",
              "name": "projectTokenCount",
              "type": "uint256"
            },
            {
              "components": [
                {
                  "internalType": "address",
                  "name": "token",
                  "type": "address"
                },
                {
                  "internalType": "uint256",
                  "name": "value",
                  "type": "uint256"
                },
                {
                  "internalType": "uint256",
                  "name": "decimals",
                  "type": "uint256"
                },
                {
                  "internalType": "uint256",
                  "name": "currency",
                  "type": "uint256"
                }
              ],
              "internalType": "struct JBTokenAmount",
              "name": "reclaimedAmount",
              "type": "tuple"
            },
            {
              "components": [
                {
                  "internalType": "address",
                  "name": "token",
                  "type": "address"
                },
                {
                  "internalType": "uint256",
                  "name": "value",
                  "type": "uint256"
                },
                {
                  "internalType": "uint256",
                  "name": "decimals",
                  "type": "uint256"
                },
                {
                  "internalType": "uint256",
                  "name": "currency",
                  "type": "uint256"
                }
              ],
              "internalType": "struct JBTokenAmount",
              "name": "forwardedAmount",
              "type": "tuple"
            },
            {
              "internalType": "address payable",
              "name": "beneficiary",
              "type": "address"
            },
            {
              "internalType": "string",
              "name": "memo",
              "type": "string"
            },
            {
              "internalType": "bytes",
              "name": "metadata",
              "type": "bytes"
            }
          ],
          "internalType": "struct JBDidRedeemData",
          "name": "_data",
          "type": "tuple"
        }
      ],
      "name": "didRedeem",
      "outputs": [],
      "stateMutability": "payable",
      "type": "function"
    },
    {
      "inputs": [],
      "name": "directory",
      "outputs": [
        {
          "internalType": "contract IJBDirectory",
          "name": "",
          "type": "address"
        }
      ],
      "stateMutability": "view",
      "type": "function"
    },
    {
      "inputs": [
        {
          "internalType": "uint256",
          "name": "_tokenId",
          "type": "uint256"
        }
      ],
      "name": "firstOwnerOf",
      "outputs": [
        {
          "internalType": "address",
          "name": "",
          "type": "address"
        }
      ],
      "stateMutability": "view",
      "type": "function"
    },
    {
      "inputs": [],
      "name": "fundingCycleStore",
      "outputs": [
        {
          "internalType": "contract IJBFundingCycleStore",
          "name": "",
          "type": "address"
        }
      ],
      "stateMutability": "view",
      "type": "function"
    },
    {
      "inputs": [
        {
          "internalType": "uint256",
          "name": "tokenId",
          "type": "uint256"
        }
      ],
      "name": "getApproved",
      "outputs": [
        {
          "internalType": "address",
          "name": "",
          "type": "address"
        }
      ],
      "stateMutability": "view",
      "type": "function"
    },
    {
      "inputs": [
        {
          "internalType": "uint256",
          "name": "_tier",
          "type": "uint256"
        },
        {
          "internalType": "uint256",
          "name": "_blockNumber",
          "type": "uint256"
        }
      ],
      "name": "getPastTierTotalVotes",
      "outputs": [
        {
          "internalType": "uint256",
          "name": "",
          "type": "uint256"
        }
      ],
      "stateMutability": "view",
      "type": "function"
    },
    {
      "inputs": [
        {
          "internalType": "address",
          "name": "_account",
          "type": "address"
        },
        {
          "internalType": "uint256",
          "name": "_tier",
          "type": "uint256"
        },
        {
          "internalType": "uint256",
          "name": "_blockNumber",
          "type": "uint256"
        }
      ],
      "name": "getPastTierVotes",
      "outputs": [
        {
          "internalType": "uint256",
          "name": "",
          "type": "uint256"
        }
      ],
      "stateMutability": "view",
      "type": "function"
    },
    {
      "inputs": [
        {
          "internalType": "address",
          "name": "_account",
          "type": "address"
        },
        {
          "internalType": "uint256",
          "name": "_tier",
          "type": "uint256"
        }
      ],
      "name": "getTierDelegate",
      "outputs": [
        {
          "internalType": "address",
          "name": "",
          "type": "address"
        }
      ],
      "stateMutability": "view",
      "type": "function"
    },
    {
      "inputs": [
        {
          "internalType": "uint256",
          "name": "_tier",
          "type": "uint256"
        }
      ],
      "name": "getTierTotalVotes",
      "outputs": [
        {
          "internalType": "uint256",
          "name": "",
          "type": "uint256"
        }
      ],
      "stateMutability": "view",
      "type": "function"
    },
    {
      "inputs": [
        {
          "internalType": "address",
          "name": "_account",
          "type": "address"
        },
        {
          "internalType": "uint256",
          "name": "_tier",
          "type": "uint256"
        }
      ],
      "name": "getTierVotes",
      "outputs": [
        {
          "internalType": "uint256",
          "name": "",
          "type": "uint256"
        }
      ],
      "stateMutability": "view",
      "type": "function"
    },
    {
      "inputs": [
        {
          "internalType": "uint256",
          "name": "_projectId",
          "type": "uint256"
        },
        {
          "internalType": "contract IJBDirectory",
          "name": "_directory",
          "type": "address"
        },
        {
          "internalType": "string",
          "name": "_name",
          "type": "string"
        },
        {
          "internalType": "string",
          "name": "_symbol",
          "type": "string"
        },
        {
          "internalType": "contract IJBFundingCycleStore",
          "name": "_fundingCycleStore",
          "type": "address"
        },
        {
          "internalType": "string",
          "name": "_baseUri",
          "type": "string"
        },
        {
          "internalType": "contract IJBTokenUriResolver",
          "name": "_tokenUriResolver",
          "type": "address"
        },
        {
          "internalType": "string",
          "name": "_contractUri",
          "type": "string"
        },
        {
          "components": [
            {
              "components": [
                {
                  "internalType": "uint80",
                  "name": "contributionFloor",
                  "type": "uint80"
                },
                {
                  "internalType": "uint48",
                  "name": "lockedUntil",
                  "type": "uint48"
                },
                {
                  "internalType": "uint40",
                  "name": "initialQuantity",
                  "type": "uint40"
                },
                {
                  "internalType": "uint16",
                  "name": "votingUnits",
                  "type": "uint16"
                },
                {
                  "internalType": "uint16",
                  "name": "reservedRate",
                  "type": "uint16"
                },
                {
                  "internalType": "address",
                  "name": "reservedTokenBeneficiary",
                  "type": "address"
                },
                {
                  "internalType": "bytes32",
                  "name": "encodedIPFSUri",
                  "type": "bytes32"
                },
                {
                  "internalType": "uint8",
                  "name": "category",
                  "type": "uint8"
                },
                {
                  "internalType": "bool",
                  "name": "allowManualMint",
                  "type": "bool"
                },
                {
                  "internalType": "bool",
                  "name": "shouldUseBeneficiaryAsDefault",
                  "type": "bool"
                },
                {
                  "internalType": "bool",
                  "name": "transfersPausable",
                  "type": "bool"
                }
              ],
              "internalType": "struct JB721TierParams[]",
              "name": "tiers",
              "type": "tuple[]"
            },
            {
              "internalType": "uint256",
              "name": "currency",
              "type": "uint256"
            },
            {
              "internalType": "uint256",
              "name": "decimals",
              "type": "uint256"
            },
            {
              "internalType": "contract IJBPrices",
              "name": "prices",
              "type": "address"
            }
          ],
          "internalType": "struct JB721PricingParams",
          "name": "_pricing",
          "type": "tuple"
        },
        {
          "internalType": "contract IJBTiered721DelegateStore",
          "name": "_store",
          "type": "address"
        },
        {
          "components": [
            {
              "internalType": "bool",
              "name": "lockReservedTokenChanges",
              "type": "bool"
            },
            {
              "internalType": "bool",
              "name": "lockVotingUnitChanges",
              "type": "bool"
            },
            {
              "internalType": "bool",
              "name": "lockManualMintingChanges",
              "type": "bool"
            },
            {
              "internalType": "bool",
              "name": "preventOverspending",
              "type": "bool"
            }
          ],
          "internalType": "struct JBTiered721Flags",
          "name": "_flags",
          "type": "tuple"
        }
      ],
      "name": "initialize",
      "outputs": [],
      "stateMutability": "nonpayable",
      "type": "function"
    },
    {
      "inputs": [
        {
          "internalType": "address",
          "name": "owner",
          "type": "address"
        },
        {
          "internalType": "address",
          "name": "operator",
          "type": "address"
        }
      ],
      "name": "isApprovedForAll",
      "outputs": [
        {
          "internalType": "bool",
          "name": "",
          "type": "bool"
        }
      ],
      "stateMutability": "view",
      "type": "function"
    },
    {
      "inputs": [
        {
          "components": [
            {
              "internalType": "uint16[]",
              "name": "tierIds",
              "type": "uint16[]"
            },
            {
              "internalType": "address",
              "name": "beneficiary",
              "type": "address"
            }
          ],
          "internalType": "struct JBTiered721MintForTiersData[]",
          "name": "_mintForTiersData",
          "type": "tuple[]"
        }
      ],
      "name": "mintFor",
      "outputs": [],
      "stateMutability": "nonpayable",
      "type": "function"
    },
    {
      "inputs": [
        {
          "internalType": "uint16[]",
          "name": "_tierIds",
          "type": "uint16[]"
        },
        {
          "internalType": "address",
          "name": "_beneficiary",
          "type": "address"
        }
      ],
      "name": "mintFor",
      "outputs": [
        {
          "internalType": "uint256[]",
          "name": "tokenIds",
          "type": "uint256[]"
        }
      ],
      "stateMutability": "nonpayable",
      "type": "function"
    },
    {
      "inputs": [
        {
          "components": [
            {
              "internalType": "uint256",
              "name": "tierId",
              "type": "uint256"
            },
            {
              "internalType": "uint256",
              "name": "count",
              "type": "uint256"
            }
          ],
          "internalType": "struct JBTiered721MintReservesForTiersData[]",
          "name": "_mintReservesForTiersData",
          "type": "tuple[]"
        }
      ],
      "name": "mintReservesFor",
      "outputs": [],
      "stateMutability": "nonpayable",
      "type": "function"
    },
    {
      "inputs": [
        {
          "internalType": "uint256",
          "name": "_tierId",
          "type": "uint256"
        },
        {
          "internalType": "uint256",
          "name": "_count",
          "type": "uint256"
        }
      ],
      "name": "mintReservesFor",
      "outputs": [],
      "stateMutability": "nonpayable",
      "type": "function"
    },
    {
      "inputs": [],
      "name": "name",
      "outputs": [
        {
          "internalType": "string",
          "name": "",
          "type": "string"
        }
      ],
      "stateMutability": "view",
      "type": "function"
    },
    {
      "inputs": [],
      "name": "owner",
      "outputs": [
        {
          "internalType": "address",
          "name": "",
          "type": "address"
        }
      ],
      "stateMutability": "view",
      "type": "function"
    },
    {
      "inputs": [
        {
          "internalType": "uint256",
          "name": "tokenId",
          "type": "uint256"
        }
      ],
      "name": "ownerOf",
      "outputs": [
        {
          "internalType": "address",
          "name": "",
          "type": "address"
        }
      ],
      "stateMutability": "view",
      "type": "function"
    },
    {
      "inputs": [
        {
          "components": [
            {
              "internalType": "contract IJBPaymentTerminal",
              "name": "terminal",
              "type": "address"
            },
            {
              "internalType": "address",
              "name": "payer",
              "type": "address"
            },
            {
              "components": [
                {
                  "internalType": "address",
                  "name": "token",
                  "type": "address"
                },
                {
                  "internalType": "uint256",
                  "name": "value",
                  "type": "uint256"
                },
                {
                  "internalType": "uint256",
                  "name": "decimals",
                  "type": "uint256"
                },
                {
                  "internalType": "uint256",
                  "name": "currency",
                  "type": "uint256"
                }
              ],
              "internalType": "struct JBTokenAmount",
              "name": "amount",
              "type": "tuple"
            },
            {
              "internalType": "uint256",
              "name": "projectId",
              "type": "uint256"
            },
            {
              "internalType": "uint256",
              "name": "currentFundingCycleConfiguration",
              "type": "uint256"
            },
            {
              "internalType": "address",
              "name": "beneficiary",
              "type": "address"
            },
            {
              "internalType": "uint256",
              "name": "weight",
              "type": "uint256"
            },
            {
              "internalType": "uint256",
              "name": "reservedRate",
              "type": "uint256"
            },
            {
              "internalType": "string",
              "name": "memo",
              "type": "string"
            },
            {
              "internalType": "bytes",
              "name": "metadata",
              "type": "bytes"
            }
          ],
          "internalType": "struct JBPayParamsData",
          "name": "_data",
          "type": "tuple"
        }
      ],
      "name": "payParams",
      "outputs": [
        {
          "internalType": "uint256",
          "name": "weight",
          "type": "uint256"
        },
        {
          "internalType": "string",
          "name": "memo",
          "type": "string"
        },
        {
          "components": [
            {
              "internalType": "contract IJBPayDelegate",
              "name": "delegate",
              "type": "address"
            },
            {
              "internalType": "uint256",
              "name": "amount",
              "type": "uint256"
            }
          ],
          "internalType": "struct JBPayDelegateAllocation[]",
          "name": "delegateAllocations",
          "type": "tuple[]"
        }
      ],
      "stateMutability": "view",
      "type": "function"
    },
    {
      "inputs": [],
      "name": "prices",
      "outputs": [
        {
          "internalType": "contract IJBPrices",
          "name": "",
          "type": "address"
        }
      ],
      "stateMutability": "view",
      "type": "function"
    },
    {
      "inputs": [],
      "name": "pricingCurrency",
      "outputs": [
        {
          "internalType": "uint256",
          "name": "",
          "type": "uint256"
        }
      ],
      "stateMutability": "view",
      "type": "function"
    },
    {
      "inputs": [],
      "name": "pricingDecimals",
      "outputs": [
        {
          "internalType": "uint256",
          "name": "",
          "type": "uint256"
        }
      ],
      "stateMutability": "view",
      "type": "function"
    },
    {
      "inputs": [],
      "name": "projectId",
      "outputs": [
        {
          "internalType": "uint256",
          "name": "",
          "type": "uint256"
        }
      ],
      "stateMutability": "view",
      "type": "function"
    },
    {
      "inputs": [
        {
          "components": [
            {
              "internalType": "contract IJBPaymentTerminal",
              "name": "terminal",
              "type": "address"
            },
            {
              "internalType": "address",
              "name": "holder",
              "type": "address"
            },
            {
              "internalType": "uint256",
              "name": "projectId",
              "type": "uint256"
            },
            {
              "internalType": "uint256",
              "name": "currentFundingCycleConfiguration",
              "type": "uint256"
            },
            {
              "internalType": "uint256",
              "name": "tokenCount",
              "type": "uint256"
            },
            {
              "internalType": "uint256",
              "name": "totalSupply",
              "type": "uint256"
            },
            {
              "internalType": "uint256",
              "name": "overflow",
              "type": "uint256"
            },
            {
              "components": [
                {
                  "internalType": "address",
                  "name": "token",
                  "type": "address"
                },
                {
                  "internalType": "uint256",
                  "name": "value",
                  "type": "uint256"
                },
                {
                  "internalType": "uint256",
                  "name": "decimals",
                  "type": "uint256"
                },
                {
                  "internalType": "uint256",
                  "name": "currency",
                  "type": "uint256"
                }
              ],
              "internalType": "struct JBTokenAmount",
              "name": "reclaimAmount",
              "type": "tuple"
            },
            {
              "internalType": "bool",
              "name": "useTotalOverflow",
              "type": "bool"
            },
            {
              "internalType": "uint256",
              "name": "redemptionRate",
              "type": "uint256"
            },
            {
              "internalType": "string",
              "name": "memo",
              "type": "string"
            },
            {
              "internalType": "bytes",
              "name": "metadata",
              "type": "bytes"
            }
          ],
          "internalType": "struct JBRedeemParamsData",
          "name": "_data",
          "type": "tuple"
        }
      ],
      "name": "redeemParams",
      "outputs": [
        {
          "internalType": "uint256",
          "name": "reclaimAmount",
          "type": "uint256"
        },
        {
          "internalType": "string",
          "name": "memo",
          "type": "string"
        },
        {
          "components": [
            {
              "internalType": "contract IJBRedemptionDelegate",
              "name": "delegate",
              "type": "address"
            },
            {
              "internalType": "uint256",
              "name": "amount",
              "type": "uint256"
            }
          ],
          "internalType": "struct JBRedemptionDelegateAllocation[]",
          "name": "delegateAllocations",
          "type": "tuple[]"
        }
      ],
      "stateMutability": "view",
      "type": "function"
    },
    {
      "inputs": [
        {
          "internalType": "uint256[]",
          "name": "_tokenIds",
          "type": "uint256[]"
        },
        {
          "components": [
            {
              "internalType": "contract IJBPaymentTerminal",
              "name": "terminal",
              "type": "address"
            },
            {
              "internalType": "address",
              "name": "holder",
              "type": "address"
            },
            {
              "internalType": "uint256",
              "name": "projectId",
              "type": "uint256"
            },
            {
              "internalType": "uint256",
              "name": "currentFundingCycleConfiguration",
              "type": "uint256"
            },
            {
              "internalType": "uint256",
              "name": "tokenCount",
              "type": "uint256"
            },
            {
              "internalType": "uint256",
              "name": "totalSupply",
              "type": "uint256"
            },
            {
              "internalType": "uint256",
              "name": "overflow",
              "type": "uint256"
            },
            {
              "components": [
                {
                  "internalType": "address",
                  "name": "token",
                  "type": "address"
                },
                {
                  "internalType": "uint256",
                  "name": "value",
                  "type": "uint256"
                },
                {
                  "internalType": "uint256",
                  "name": "decimals",
                  "type": "uint256"
                },
                {
                  "internalType": "uint256",
                  "name": "currency",
                  "type": "uint256"
                }
              ],
              "internalType": "struct JBTokenAmount",
              "name": "reclaimAmount",
              "type": "tuple"
            },
            {
              "internalType": "bool",
              "name": "useTotalOverflow",
              "type": "bool"
            },
            {
              "internalType": "uint256",
              "name": "redemptionRate",
              "type": "uint256"
            },
            {
              "internalType": "string",
              "name": "memo",
              "type": "string"
            },
            {
              "internalType": "bytes",
              "name": "metadata",
              "type": "bytes"
            }
          ],
          "internalType": "struct JBRedeemParamsData",
          "name": "",
          "type": "tuple"
        }
      ],
      "name": "redemptionWeightOf",
      "outputs": [
        {
          "internalType": "uint256",
          "name": "",
          "type": "uint256"
        }
      ],
      "stateMutability": "view",
      "type": "function"
    },
    {
      "inputs": [],
      "name": "renounceOwnership",
      "outputs": [],
      "stateMutability": "nonpayable",
      "type": "function"
    },
    {
      "inputs": [
        {
          "internalType": "address",
          "name": "from",
          "type": "address"
        },
        {
          "internalType": "address",
          "name": "to",
          "type": "address"
        },
        {
          "internalType": "uint256",
          "name": "tokenId",
          "type": "uint256"
        }
      ],
      "name": "safeTransferFrom",
      "outputs": [],
      "stateMutability": "nonpayable",
      "type": "function"
    },
    {
      "inputs": [
        {
          "internalType": "address",
          "name": "from",
          "type": "address"
        },
        {
          "internalType": "address",
          "name": "to",
          "type": "address"
        },
        {
          "internalType": "uint256",
          "name": "tokenId",
          "type": "uint256"
        },
        {
          "internalType": "bytes",
          "name": "data",
          "type": "bytes"
        }
      ],
      "name": "safeTransferFrom",
      "outputs": [],
      "stateMutability": "nonpayable",
      "type": "function"
    },
    {
      "inputs": [
        {
          "internalType": "address",
          "name": "operator",
          "type": "address"
        },
        {
          "internalType": "bool",
          "name": "approved",
          "type": "bool"
        }
      ],
      "name": "setApprovalForAll",
      "outputs": [],
      "stateMutability": "nonpayable",
      "type": "function"
    },
    {
      "inputs": [
        {
          "internalType": "string",
          "name": "_baseUri",
          "type": "string"
        }
      ],
      "name": "setBaseUri",
      "outputs": [],
      "stateMutability": "nonpayable",
      "type": "function"
    },
    {
      "inputs": [
        {
          "internalType": "string",
          "name": "_contractUri",
          "type": "string"
        }
      ],
      "name": "setContractUri",
      "outputs": [],
      "stateMutability": "nonpayable",
      "type": "function"
    },
    {
      "inputs": [
        {
          "internalType": "address",
          "name": "_beneficiary",
          "type": "address"
        }
      ],
      "name": "setDefaultReservedTokenBeneficiary",
      "outputs": [],
      "stateMutability": "nonpayable",
      "type": "function"
    },
    {
      "inputs": [
        {
          "internalType": "address",
          "name": "_delegatee",
          "type": "address"
        },
        {
          "internalType": "uint256",
          "name": "_tierId",
          "type": "uint256"
        }
      ],
      "name": "setTierDelegate",
      "outputs": [],
      "stateMutability": "nonpayable",
      "type": "function"
    },
    {
      "inputs": [
        {
          "components": [
            {
              "internalType": "address",
              "name": "delegatee",
              "type": "address"
            },
            {
              "internalType": "uint256",
              "name": "tierId",
              "type": "uint256"
            }
          ],
          "internalType": "struct JBTiered721SetTierDelegatesData[]",
          "name": "_setTierDelegatesData",
          "type": "tuple[]"
        }
      ],
      "name": "setTierDelegates",
      "outputs": [],
      "stateMutability": "nonpayable",
      "type": "function"
    },
    {
      "inputs": [
        {
          "internalType": "contract IJBTokenUriResolver",
          "name": "_tokenUriResolver",
          "type": "address"
        }
      ],
      "name": "setTokenUriResolver",
      "outputs": [],
      "stateMutability": "nonpayable",
      "type": "function"
    },
    {
      "inputs": [],
      "name": "store",
      "outputs": [
        {
          "internalType": "contract IJBTiered721DelegateStore",
          "name": "",
          "type": "address"
        }
      ],
      "stateMutability": "view",
      "type": "function"
    },
    {
      "inputs": [
        {
          "internalType": "bytes4",
          "name": "_interfaceId",
          "type": "bytes4"
        }
      ],
      "name": "supportsInterface",
      "outputs": [
        {
          "internalType": "bool",
          "name": "",
          "type": "bool"
        }
      ],
      "stateMutability": "view",
      "type": "function"
    },
    {
      "inputs": [],
      "name": "symbol",
      "outputs": [
        {
          "internalType": "string",
          "name": "",
          "type": "string"
        }
      ],
      "stateMutability": "view",
      "type": "function"
    },
    {
      "inputs": [
        {
          "internalType": "uint256",
          "name": "_tokenId",
          "type": "uint256"
        }
      ],
      "name": "tokenURI",
      "outputs": [
        {
          "internalType": "string",
          "name": "",
          "type": "string"
        }
      ],
      "stateMutability": "view",
      "type": "function"
    },
    {
      "inputs": [
        {
          "components": [
            {
              "internalType": "contract IJBPaymentTerminal",
              "name": "terminal",
              "type": "address"
            },
            {
              "internalType": "address",
              "name": "holder",
              "type": "address"
            },
            {
              "internalType": "uint256",
              "name": "projectId",
              "type": "uint256"
            },
            {
              "internalType": "uint256",
              "name": "currentFundingCycleConfiguration",
              "type": "uint256"
            },
            {
              "internalType": "uint256",
              "name": "tokenCount",
              "type": "uint256"
            },
            {
              "internalType": "uint256",
              "name": "totalSupply",
              "type": "uint256"
            },
            {
              "internalType": "uint256",
              "name": "overflow",
              "type": "uint256"
            },
            {
              "components": [
                {
                  "internalType": "address",
                  "name": "token",
                  "type": "address"
                },
                {
                  "internalType": "uint256",
                  "name": "value",
                  "type": "uint256"
                },
                {
                  "internalType": "uint256",
                  "name": "decimals",
                  "type": "uint256"
                },
                {
                  "internalType": "uint256",
                  "name": "currency",
                  "type": "uint256"
                }
              ],
              "internalType": "struct JBTokenAmount",
              "name": "reclaimAmount",
              "type": "tuple"
            },
            {
              "internalType": "bool",
              "name": "useTotalOverflow",
              "type": "bool"
            },
            {
              "internalType": "uint256",
              "name": "redemptionRate",
              "type": "uint256"
            },
            {
              "internalType": "string",
              "name": "memo",
              "type": "string"
            },
            {
              "internalType": "bytes",
              "name": "metadata",
              "type": "bytes"
            }
          ],
          "internalType": "struct JBRedeemParamsData",
          "name": "",
          "type": "tuple"
        }
      ],
      "name": "totalRedemptionWeight",
      "outputs": [
        {
          "internalType": "uint256",
          "name": "",
          "type": "uint256"
        }
      ],
      "stateMutability": "view",
      "type": "function"
    },
    {
      "inputs": [
        {
          "internalType": "address",
          "name": "from",
          "type": "address"
        },
        {
          "internalType": "address",
          "name": "to",
          "type": "address"
        },
        {
          "internalType": "uint256",
          "name": "tokenId",
          "type": "uint256"
        }
      ],
      "name": "transferFrom",
      "outputs": [],
      "stateMutability": "nonpayable",
      "type": "function"
    },
    {
      "inputs": [
        {
          "internalType": "address",
          "name": "newOwner",
          "type": "address"
        }
      ],
      "name": "transferOwnership",
      "outputs": [],
      "stateMutability": "nonpayable",
      "type": "function"
    }
  ],
  "bytecode": {
    "object": "0x60806040523480156200001157600080fd5b506200001d3362000035565b600880546001600160a01b0319163017905562000087565b600780546001600160a01b038381166001600160a01b0319831681179093556040519116919082907f8be0079c531659141344cd1fd0a4f28419497f9722a3daafe3b4186f6b6457e090600090a35050565b6157aa80620000976000396000f3fe6080604052600436106102c95760003560e01c80639494bf7211610175578063c87b56dd116100dc578063d46cf17111610095578063e8a3d4851161006f578063e8a3d485146108c9578063e8ed5d67146108de578063e985e9c5146108fe578063f2fde38b1461094757600080fd5b8063d46cf17114610876578063da9ee8b714610896578063df487e26146108a957600080fd5b8063c87b56dd146107b6578063ca323efe146107d6578063ccb4807b146107f6578063d31cc52c14610816578063d3419bf314610836578063d40e71461461085657600080fd5b8063a51cfd181161012e578063a51cfd18146106e7578063aa4fb15b14610716578063ab951e3914610736578063b88d4fde14610756578063c41c2f2414610776578063c74b13d91461079657600080fd5b80639494bf721461063257806394c5c5ca1461065257806395d89b4114610672578063975057e714610687578063a0bcfc7f146106a7578063a22cb465146106c757600080fd5b80633fafa1271161023457806364640c1e116101ed578063715018a6116101c7578063715018a61461059c5780637ba62bf9146105b157806382732b6d146105d15780638da5cb5b1461061457600080fd5b806364640c1e146105395780636ac6d9411461054f57806370a082311461057c57600080fd5b80633fafa1271461048d57806342842e0e146104a35780634ecba625146104c357806354c6d1f5146104d9578063557e7155146104f95780636352211e1461051957600080fd5b806323b872dd1161028657806323b872dd146103bf5780632407497e146103df578063245a45b5146103ff5780632a596e531461043a5780632b13c58f1461045a57806336c1a93b1461046d57600080fd5b806301ffc9a7146102ce5780630575ea7a1461030357806306fdde0314610325578063081812fc14610347578063095ea7b31461037f5780631d153ca41461039f575b600080fd5b3480156102da57600080fd5b506102ee6102e9366004613d52565b610967565b60405190151581526020015b60405180910390f35b34801561030f57600080fd5b5061032361031e366004613db3565b610992565b005b34801561033157600080fd5b5061033a610b75565b6040516102fa9190613e9d565b34801561035357600080fd5b50610367610362366004613eb0565b610c07565b6040516001600160a01b0390911681526020016102fa565b34801561038b57600080fd5b5061032361039a366004613eee565b610c2e565b3480156103ab57600080fd5b50600854610367906001600160a01b031681565b3480156103cb57600080fd5b506103236103da366004613f1a565b610cba565b3480156103eb57600080fd5b506103236103fa366004613f5b565b610cec565b34801561040b57600080fd5b5061042c61041a366004613f5b565b600e6020526000908152604090205481565b6040519081526020016102fa565b34801561044657600080fd5b50610323610455366004613f78565b610d95565b610323610468366004614005565b610dee565b34801561047957600080fd5b50610323610488366004614039565b610fc8565b34801561049957600080fd5b5061042c60055481565b3480156104af57600080fd5b506103236104be366004613f1a565b61102a565b3480156104cf57600080fd5b5061042c600d5481565b3480156104e557600080fd5b506103676104f4366004613eb0565b611045565b34801561050557600080fd5b50600a54610367906001600160a01b031681565b34801561052557600080fd5b50610367610534366004613eb0565b6110f1565b34801561054557600080fd5b5061042c600c5481565b34801561055b57600080fd5b5061056f61056a36600461407a565b611127565b6040516102fa919061410b565b34801561058857600080fd5b5061042c610597366004613f5b565b61126d565b3480156105a857600080fd5b506103236112e3565b3480156105bd57600080fd5b5061042c6105cc3660046142a5565b6112f7565b3480156105dd57600080fd5b506103676105ec366004613eee565b6001600160a01b039182166000908152600f6020908152604080832093835292905220541690565b34801561062057600080fd5b506007546001600160a01b0316610367565b34801561063e57600080fd5b5061042c61064d366004614005565b611372565b34801561065e57600080fd5b5061042c61066d366004613eb0565b6113a3565b34801561067e57600080fd5b5061033a6113ba565b34801561069357600080fd5b50600954610367906001600160a01b031681565b3480156106b357600080fd5b506103236106c2366004614308565b6113c9565b3480156106d357600080fd5b506103236106e2366004614380565b611484565b3480156106f357600080fd5b50610707610702366004614005565b611493565b6040516102fa939291906143b9565b34801561072257600080fd5b5061032361073136600461442b565b6116f2565b34801561074257600080fd5b50610323610751366004613eee565b61190f565b34801561076257600080fd5b506103236107713660046144ad565b61191a565b34801561078257600080fd5b50600654610367906001600160a01b031681565b3480156107a257600080fd5b506103236107b136600461452c565b61194d565b3480156107c257600080fd5b5061033a6107d1366004613eb0565b6119d1565b3480156107e257600080fd5b5061042c6107f1366004613eee565b611bab565b34801561080257600080fd5b50610323610811366004614308565b611bd7565b34801561082257600080fd5b5061042c61083136600461442b565b611c8a565b34801561084257600080fd5b50600b54610367906001600160a01b031681565b34801561086257600080fd5b5061042c6108713660046145ea565b611ca2565b34801561088257600080fd5b5061070761089136600461461f565b611cd7565b6103236108a436600461465a565b611dba565b3480156108b557600080fd5b506103236108c4366004613f5b565b611e71565b3480156108d557600080fd5b5061033a611f13565b3480156108ea57600080fd5b506103236108f93660046148ff565b611f89565b34801561090a57600080fd5b506102ee610919366004614a38565b6001600160a01b03918216600090815260046020908152604080832093909416825291909152205460ff1690565b34801561095357600080fd5b50610323610962366004613f5b565b61227b565b60006001600160e01b0319821663281586a960e11b148061098c575061098c826122f9565b92915050565b61099a61236f565b82818015610a6a576009546040516320512ba160e01b81526001600160a01b03909116906320512ba1906109d49087908790600401614a66565b600060405180830381600087803b1580156109ee57600080fd5b505af1158015610a02573d6000803e3d6000fd5b5050505060005b81811015610a6857848482818110610a2357610a23614a9f565b60405133815260209182029390930135927f832d89d991be5351d793c20faf4b7dd44f8aa9ce39e3cb160c6317de6fbba72992500160405180910390a2600101610a09565b505b8115610b6d57600954604051631dd7fb3f60e31b81526000916001600160a01b03169063eebfd9f890610aa3908a908a90600401614ba7565b6000604051808303816000875af1158015610ac2573d6000803e3d6000fd5b505050506040513d6000823e601f3d908101601f19168201604052610aea9190810190614c45565b905060005b83811015610b6a57818181518110610b0957610b09614a9f565b60200260200101517f3dc3b6685c6b880840d7902979f926412f2b9e9ad1c67a4e28816bea10c8c447898984818110610b4457610b44614a9f565b9050610160020133604051610b5a929190614c79565b60405180910390a2600101610aef565b50505b505050505050565b606060008054610b8490614ca1565b80601f0160208091040260200160405190810160405280929190818152602001828054610bb090614ca1565b8015610bfd5780601f10610bd257610100808354040283529160200191610bfd565b820191906000526020600020905b815481529060010190602001808311610be057829003601f168201915b5050505050905090565b6000610c12826123c9565b506000908152600360205260409020546001600160a01b031690565b6000610c39826110f1565b9050806001600160a01b0316836001600160a01b031603610c6d5760405163133f8be960e01b815260040160405180910390fd5b336001600160a01b03821614801590610c8d5750610c8b8133610919565b155b15610cab5760405163e5fa0e3560e01b815260040160405180910390fd5b610cb583836123fe565b505050565b610cc4338261246c565b610ce15760405163e5fa0e3560e01b815260040160405180910390fd5b610cb58383836124ea565b610cf461236f565b60095460405163036129cb60e61b81526001600160a01b0383811660048301529091169063d84a72c090602401600060405180830381600087803b158015610d3b57600080fd5b505af1158015610d4f573d6000803e3d6000fd5b50506040513381526001600160a01b03841692507fe7784d93cfbfa4408e19577e6cc0436f4dbb51214b70e100905dfce9def88c1691506020015b60405180910390a250565b8060005b81811015610de8576000848483818110610db557610db5614a9f565b905060400201803603810190610dcb9190614cd5565b9050610ddf816000015182602001516116f2565b50600101610d99565b50505050565b34151580610e705750600654600554604051636e49181f60e01b815260048101919091523360248201526001600160a01b0390911690636e49181f90604401602060405180830381865afa158015610e4a573d6000803e3d6000fd5b505050506040513d601f19601f82011682018060405250810190610e6e9190614d2e565b155b80610e815750600554816020013514155b15610e9f57604051633efca5c360e11b815260040160405180910390fd5b6024610eaf6101c0830183614d4b565b90501080610ef3575063b3bcbb7960e01b610ece6101c0830183614d4b565b610edd91602491602091614d91565b610ee691614dbb565b6001600160e01b03191614155b15610f1157604051632a84050f60e01b815260040160405180910390fd5b6000610f216101c0830183614d4b565b810190610f2e9190614deb565b925050506000815190506000805b82811015610fbe57838181518110610f5657610f56614a9f565b60200260200101519150846000016020810190610f739190613f5b565b6000838152600260205260409020546001600160a01b03908116911614610fad5760405163075fd2b160e01b815260040160405180910390fd5b610fb6826125c3565b600101610f3c565b50610de883612644565b610fd061236f565b8060005b81811015610de85736848483818110610fef57610fef614a9f565b90506020028101906110019190614e43565b90506110206110108280614e63565b61056a6040850160208601613f5b565b5050600101610fd4565b610cb58383836040518060200160405280600081525061191a565b6009546040516308ed6c0160e41b81523060048201526024810183905260009182916001600160a01b0390911690638ed6c01090604401602060405180830381865afa158015611099573d6000803e3d6000fd5b505050506040513d601f19601f820116820180604052508101906110bd9190614eb7565b90506001600160a01b038116156110d45792915050565b50506000908152600260205260409020546001600160a01b031690565b6000818152600260205260408120546001600160a01b03168061098c5760405163b49aa3b560e01b815260040160405180910390fd5b606061113161236f565b60095460405163eaa19ab360e01b81526001600160a01b039091169063eaa19ab39061116a906000199088908890600190600401614ed4565b6000604051808303816000875af1158015611189573d6000803e3d6000fd5b505050506040513d6000823e601f3d908101601f191682016040526111b19190810190614f31565b509050826000805b82811015611263578381815181106111d3576111d3614a9f565b602002602001015191506111e785836126a9565b846001600160a01b031687878381811061120357611203614a9f565b90506020020160208101906112189190614f77565b604080516000815233602082015261ffff929092169185917f598baf7bf150ca2f42be9e9f8f55e81d45f5715c3ff22bf46d697fabec7f31d6910160405180910390a46001016111b9565b5050509392505050565b600954604051633de222bb60e21b81523060048201526001600160a01b038381166024830152600092169063f7888aec906044015b602060405180830381865afa1580156112bf573d6000803e3d6000fd5b505050506040513d601f19601f8201168201806040525081019061098c9190614f92565b6112eb61236f565b6112f56000612773565b565b60095460405163051330b560e21b81526000916001600160a01b03169063144cc2d49061132a9030908790600401614fab565b602060405180830381865afa158015611347573d6000803e3d6000fd5b505050506040513d601f19601f8201168201806040525081019061136b9190614f92565b9392505050565b600954604051631572f24960e11b81523060048201526000916001600160a01b031690632ae5e492906024016112a2565b600081815260116020526040812061098c906127c5565b606060018054610b8490614ca1565b6113d161236f565b6009546040516331315e5960e11b81526001600160a01b0390911690636262bcb2906114039085908590600401614fcf565b600060405180830381600087803b15801561141d57600080fd5b505af1158015611431573d6000803e3d6000fd5b505050508181604051611445929190614ffe565b604051908190038120338252907f7bc9110d5de090dd59e07912d2b93a5a27ac70a60c8d8e324db4f9ee8b8b5c13906020015b60405180910390a25050565b61148f338383612821565b5050565b60006060806080840135156114bb576040516309f82f1b60e31b815260040160405180910390fd5b60246114cb6101c0860186614d4b565b9050108061150f575063b3bcbb7960e01b6114ea6101c0860186614d4b565b6114f991602491602091614d91565b61150291614dbb565b6001600160e01b03191614155b1561152d57604051632a84050f60e01b815260040160405180910390fd5b60408051600180825281830190925290816020015b60408051808201909152600080825260208201528152602001906001900390816115425790505090506040518060400160405280306001600160a01b0316815260200160008152508160008151811061159d5761159d614a9f565b602090810291909101015260006115b86101c0860186614d4b565b8101906115c59190614deb565b9250505060006115d582876112f7565b905060006115e287611372565b905060006115f58860c0013584846128c0565b90506127108861018001350361166057806116146101a08a018a614d4b565b8782828080601f016020809104026020016040519081016040528093929190818152602001838380828437600092019190915250969d50919b509199506116eb98505050505050505050565b6116968161167f856116796101808d0135612710615024565b866128c0565b61168e906101808c0135615037565b6127106128c0565b6116a46101a08a018a614d4b565b8782828080601f016020809104026020016040519081016040528093929190818152602001838380828437600092019190915250969d50919b509199505050505050505050505b9193909250565b600a546005546040516321d1336160e11b815260048101919091526000916001600160a01b0316906343a266c29060240161012060405180830381865afa158015611741573d6000803e3d6000fd5b505050506040513d601f19601f82011682018060405250810190611765919061504a565b61010081015190915060f51c60019081160361179457604051631d2c125760e31b815260040160405180910390fd5b600954604051635d53f40760e11b815260048101859052602481018490526000916001600160a01b03169063baa7e80e906044016000604051808303816000875af11580156117e7573d6000803e3d6000fd5b505050506040513d6000823e601f3d908101601f1916820160405261180f9190810190614c45565b6009546040516304db994760e21b8152306004820152602481018790529192506000916001600160a01b039091169063136e651c90604401602060405180830381865afa158015611864573d6000803e3d6000fd5b505050506040513d601f19601f820116820180604052508101906118889190614eb7565b90506000805b85811015611906578381815181106118a8576118a8614a9f565b602002602001015191506118bc83836126a9565b6040513381526001600160a01b03841690889084907f031e1988c95a91ec4d655ff63a8f87a80bc9daf28d95ae10ee08c0022cfb5c8b9060200160405180910390a460010161188e565b50505050505050565b61148f33838361298d565b611924338361246c565b6119415760405163e5fa0e3560e01b815260040160405180910390fd5b610de884848484612a0c565b8051604080518082019091526000808252602082015260005b82811015610de85783818151811061198057611980614a9f565b602090810291909101015180519092506001600160a01b03166119b6576040516314f4c13d60e21b815260040160405180910390fd5b6119c9338360000151846020015161298d565b600101611966565b600954604051630fab094760e01b81523060048201526060916000916001600160a01b0390911690630fab094790602401602060405180830381865afa158015611a1f573d6000803e3d6000fd5b505050506040513d601f19601f82011682018060405250810190611a439190614eb7565b90506001600160a01b03811615611ac157604051636d02a25560e11b8152600481018490526001600160a01b0382169063da0544aa90602401600060405180830381865afa158015611a99573d6000803e3d6000fd5b505050506040513d6000823e601f3d908101601f1916820160405261136b91908101906150ca565b60095460405163f682eeaf60e01b815230600482015261136b916001600160a01b03169063f682eeaf90602401600060405180830381865afa158015611b0b573d6000803e3d6000fd5b505050506040513d6000823e601f3d908101601f19168201604052611b3391908101906150ca565b600954604051630c8df17160e41b8152306004820152602481018790526001600160a01b039091169063c8df171090604401602060405180830381865afa158015611b82573d6000803e3d6000fd5b505050506040513d601f19601f82011682018060405250810190611ba69190614f92565b612a40565b6001600160a01b0382166000908152601060209081526040808320848452909152812061136b906127c5565b611bdf61236f565b60095460405163d67b78fd60e01b81526001600160a01b039091169063d67b78fd90611c119085908590600401614fcf565b600060405180830381600087803b158015611c2b57600080fd5b505af1158015611c3f573d6000803e3d6000fd5b505050508181604051611c53929190614ffe565b604051908190038120338252907fd36dc0c1a06103fdcaf15f3f6fb797d1a97997514c78de073640c8b5005454b890602001611478565b600082815260116020526040812061136b9083612aa7565b6001600160a01b03831660009081526010602090815260408083208584529091528120611ccf9083612aa7565b949350505050565b610120810135606080611cee610160850185614d4b565b8080601f01602080910402602001604051908101604052809392919081815260200183838082843760009201919091525092945060019250611d2e915050565b604051908082528060200260200182016040528015611d7357816020015b6040805180820190915260008082526020820152815260200190600190039081611d4c5790505b5090506040518060400160405280306001600160a01b03168152602001600081525081600081518110611da857611da8614a9f565b60200260200101819052509193909250565b60055434151580611e3b5750600654604051636e49181f60e01b8152600481018390523360248201526001600160a01b0390911690636e49181f90604401602060405180830381865afa158015611e15573d6000803e3d6000fd5b505050506040513d601f19601f82011682018060405250810190611e399190614d2e565b155b80611e4a575080826020013514155b15611e68576040516331c57b1b60e21b815260040160405180910390fd5b61148f82612bb6565b611e7961236f565b6009546040516317161f7d60e01b81526001600160a01b038381166004830152909116906317161f7d90602401600060405180830381600087803b158015611ec057600080fd5b505af1158015611ed4573d6000803e3d6000fd5b50506040513381526001600160a01b03841692507fab0014d4c7a642a02a31b303a318908c22b0fb2001f107278fc6076b4c671b659150602001610d8a565b600954604051630155619b60e71b81523060048201526060916001600160a01b03169063aab0cd8090602401600060405180830381865afa158015611f5c573d6000803e3d6000fd5b505050506040513d6000823e601f3d908101601f19168201604052611f8491908101906150ca565b905090565b6008546001600160a01b03163003611fa057600080fd5b6009546001600160a01b031615611fb657600080fd5b611fc28b8b8b8b612ec9565b600a80546001600160a01b03808a166001600160a01b031992831617909255600980548584169083161790556020850151600c556040850151600d556060850151600b8054919093169116179055855115612076576040516331315e5960e11b81526001600160a01b03831690636262bcb290612043908990600401613e9d565b600060405180830381600087803b15801561205d57600080fd5b505af1158015612071573d6000803e3d6000fd5b505050505b8351156120dc5760405163d67b78fd60e01b81526001600160a01b0383169063d67b78fd906120a9908790600401613e9d565b600060405180830381600087803b1580156120c357600080fd5b505af11580156120d7573d6000803e3d6000fd5b505050505b6001600160a01b038516156121475760405163036129cb60e61b81526001600160a01b03868116600483015283169063d84a72c090602401600060405180830381600087803b15801561212e57600080fd5b505af1158015612142573d6000803e3d6000fd5b505050505b825151156121c5578251604051631dd7fb3f60e31b81526001600160a01b0384169163eebfd9f89161217c9190600401615137565b6000604051808303816000875af115801561219b573d6000803e3d6000fd5b505050506040513d6000823e601f3d908101601f191682016040526121c39190810190614c45565b505b8051806121d3575080602001515b806121df575080604001515b1561226557604080516365c13f1960e11b815282511515600482015260208301511515602482015290820151151560448201526060820151151560648201526001600160a01b0383169063cb827e3290608401600060405180830381600087803b15801561224c57600080fd5b505af1158015612260573d6000803e3d6000fd5b505050505b61226e33612773565b5050505050505050505050565b61228361236f565b6001600160a01b0381166122ed5760405162461bcd60e51b815260206004820152602660248201527f4f776e61626c653a206e6577206f776e657220697320746865207a65726f206160448201526564647265737360d01b60648201526084015b60405180910390fd5b6122f681612773565b50565b60006001600160e01b0319821663b3bcbb7960e01b148061232a57506001600160e01b031982166371700c6960e01b145b8061234557506001600160e01b0319821663da9ee8b760e01b145b8061236057506001600160e01b03198216632b13c58f60e01b145b8061098c575061098c82612efc565b6007546001600160a01b031633146112f55760405162461bcd60e51b815260206004820181905260248201527f4f776e61626c653a2063616c6c6572206973206e6f7420746865206f776e657260448201526064016122e4565b6000818152600260205260409020546001600160a01b03166122f65760405163b49aa3b560e01b815260040160405180910390fd5b600081815260036020526040902080546001600160a01b0319166001600160a01b0384169081179091558190612433826110f1565b6001600160a01b03167f8c5be1e5ebec7d5bd14f71427d1e84f3dd0314c0f7b2291e5b200ac8c7c3b92560405160405180910390a45050565b600080612478836110f1565b9050806001600160a01b0316846001600160a01b031614806124bf57506001600160a01b0380821660009081526004602090815260408083209388168352929052205460ff165b80611ccf5750836001600160a01b03166124d884610c07565b6001600160a01b031614949350505050565b826001600160a01b03166124fd826110f1565b6001600160a01b0316146125245760405163a195bc5360e01b815260040160405180910390fd5b6001600160a01b03821661254b57604051632c95542760e01b815260040160405180910390fd5b612556838383612f4c565b6125616000826123fe565b60008181526002602052604080822080546001600160a01b0319166001600160a01b0386811691821790925591518493918716917fddf252ad1be2c89b69c2b068fc378daa952ba7f163c4a11628f55a4df523b3ef91a4610cb5838383613179565b60006125ce826110f1565b90506125dc81600084612f4c565b6125e76000836123fe565b60008281526002602052604080822080546001600160a01b0319169055518391906001600160a01b038416907fddf252ad1be2c89b69c2b068fc378daa952ba7f163c4a11628f55a4df523b3ef908390a461148f81600084613179565b6009546040516386bc2be360e01b81526001600160a01b03909116906386bc2be39061267490849060040161410b565b600060405180830381600087803b15801561268e57600080fd5b505af11580156126a2573d6000803e3d6000fd5b5050505050565b6001600160a01b0382166126d057604051633904578f60e11b815260040160405180910390fd5b6000818152600260205260409020546001600160a01b03161561270657604051632eb5f0c360e21b815260040160405180910390fd5b61271260008383612f4c565b60008181526002602052604080822080546001600160a01b0319166001600160a01b03861690811790915590518392907fddf252ad1be2c89b69c2b068fc378daa952ba7f163c4a11628f55a4df523b3ef908290a461148f60008383613179565b600780546001600160a01b038381166001600160a01b0319831681179093556040519116919082907f8be0079c531659141344cd1fd0a4f28419497f9722a3daafe3b4186f6b6457e090600090a35050565b8054600090801561280e57826127dc600183615024565b815481106127ec576127ec614a9f565b60009182526020909120015464010000000090046001600160e01b0316612811565b60005b6001600160e01b03169392505050565b816001600160a01b0316836001600160a01b031603612853576040516306f8139d60e11b815260040160405180910390fd5b6001600160a01b03838116600081815260046020908152604080832094871680845294825291829020805460ff191686151590811790915591519182527f17307eab39ab6107e8899845ad3d59bd9653f200f220920489ca2b5937696c31910160405180910390a3505050565b60008080600019858709858702925082811083820303915050806000036128fa578382816128f0576128f061521e565b049250505061136b565b83811061292457604051631dcf306360e21b815260048101829052602481018590526044016122e4565b60008486880960026001871981018816978890046003810283188082028403028082028403028082028403028082028403028082028403029081029092039091026000889003889004909101858311909403939093029303949094049190911702949350505050565b6001600160a01b038381166000818152600f6020908152604080832086845290915280822080548786166001600160a01b0319821681179092559151919094169392849290917f3134e8a2e6d97e929a7e54011ea5485d7d196dd5f0ba4d4ef95803e8e3fc257f9190a4610de8818484612a078887613272565b6132b2565b612a178484846124ea565b612a2384848484613407565b610de8576040516336f57c1b60e11b815260040160405180910390fd5b604051609160f51b60208201526022810182905260609060009060420160405160208183030381529060405290506000612a7982613509565b90508481604051602001612a8e929190615234565b6040516020818303038152906040529250505092915050565b6000438210612af85760405162461bcd60e51b815260206004820181905260248201527f436865636b706f696e74733a20626c6f636b206e6f7420796574206d696e656460448201526064016122e4565b825460005b81811015612b5d576000612b1182846136a1565b905084866000018281548110612b2957612b29614a9f565b60009182526020909120015463ffffffff161115612b4957809250612b57565b612b54816001615037565b91505b50612afd565b8115612ba15784612b6f600184615024565b81548110612b7f57612b7f614a9f565b60009182526020909120015464010000000090046001600160e01b0316612ba4565b60005b6001600160e01b031695945050505050565b600c5460009060c083013503612bd157506080810135612c87565b600b546001600160a01b03161561148f57600d54612c8490608084013590612bfa90600a615347565b600b54600c54604051635268657960e11b815260c08801356004820152602481019190915260a087013560448201526001600160a01b039091169063a4d0caf290606401602060405180830381865afa158015612c5b573d6000803e3d6000fd5b505050506040513d601f19601f82011682018060405250810190612c7f9190614f92565b6128c0565b90505b6000600e81612c9e6101a086016101808701613f5b565b6001600160a01b03168152602081019190915260400160009081205491508290612cd06101a086016101808701613f5b565b6001600160a01b0316612ce66020870187613f5b565b6001600160a01b031603612cfd5790820190612d00565b50815b60006044612d126101e0880188614d4b565b9050118015612d56575063b3bcbb7960e01b612d326101e0880188614d4b565b612d4191604491604091614d91565b612d4a91614dbb565b6001600160e01b031916145b15612e2d576060612d6b6101e0880188614d4b565b810190612d789190615353565b90955093508492505081159050612dfb5750600954604051634228826f60e11b81523060048201526001600160a01b039091169063845104de90602401608060405180830381865afa158015612dd2573d6000803e3d6000fd5b505050506040513d601f19601f82011682018060405250810190612df69190615425565b606001515b15612e0557600091505b805115612e2b57612e288482612e236101a08b016101808c01613f5b565b6136bc565b93505b505b8215612e895780612e5157604051631b57826960e21b815260040160405180910390fd5b828201600e6000612e6a6101a08a016101808b01613f5b565b6001600160a01b03168152602081019190915260400160002055610b6d565b818414610b6d5781600e6000612ea76101a08a016101808b01613f5b565b6001600160a01b03168152602081019190915260400160002055505050505050565b612ed382826137fe565b5050600591909155600680546001600160a01b0319166001600160a01b03909216919091179055565b60006001600160e01b031982166380ac58cd60e01b1480612f2d57506001600160e01b03198216635b5e139f60e01b145b8061098c57506301ffc9a760e01b6001600160e01b031983161461098c565b6001600160a01b03831615610cb55760095460405163b67cb04760e01b8152306004820152602481018390526000916001600160a01b03169063b67cb0479060440161018060405180830381865afa158015612fac573d6000803e3d6000fd5b505050506040513d601f19601f82011682018060405250810190612fd091906154a9565b90508061016001511561309557600a546005546040516321d1336160e11b815260048101919091526000916001600160a01b0316906343a266c29060240161012060405180830381865afa15801561302c573d6000803e3d6000fd5b505050506040513d601f19601f82011682018060405250810190613050919061504a565b90506001600160a01b03841615801590613075575061010081015160f41c6001908116145b15613093576040516318cdaf9760e01b815260040160405180910390fd5b505b6009546040516308ed6c0160e41b8152306004820152602481018490526000916001600160a01b031690638ed6c01090604401602060405180830381865afa1580156130e5573d6000803e3d6000fd5b505050506040513d601f19601f820116820180604052508101906131099190614eb7565b6001600160a01b031603610de857600954604051638cec7d3960e01b8152600481018490526001600160a01b03868116602483015290911690638cec7d3990604401600060405180830381600087803b15801561316557600080fd5b505af1158015610b6a573d6000803e3d6000fd5b60095460405163b67cb04760e01b8152306004820152602481018390526000916001600160a01b03169063b67cb0479060440161018060405180830381865afa1580156131ca573d6000803e3d6000fd5b505050506040513d601f19601f820116820180604052508101906131ee91906154a9565b60095481516040516330b157e560e21b815260048101919091526001600160a01b038781166024830152868116604483015292935091169063c2c55f9490606401600060405180830381600087803b15801561324957600080fd5b505af115801561325d573d6000803e3d6000fd5b5050505061326d84848484613817565b610de8565b6009546040516305c9a1d560e31b81523060048201526001600160a01b038481166024830152604482018490526000921690632e4d0ea89060640161132a565b826001600160a01b0316846001600160a01b031614806132d0575080155b610de8576001600160a01b0384161561336b576001600160a01b0384166000908152601060209081526040808320858452909152812081906133159061383585613841565b60408051838152602081018390523381830152905192945090925085916001600160a01b038916917fed0c1e94c302bdbbd8bbd6a4fb7c3ed335c2292407cd816eadd075d019d0ce04919081900360600190a350505b6001600160a01b03831615610de8576001600160a01b0383166000908152601060209081526040808320858452909152812081906133ac9061386f85613841565b60408051838152602081018390523381830152905192945090925085916001600160a01b038816917fed0c1e94c302bdbbd8bbd6a4fb7c3ed335c2292407cd816eadd075d019d0ce04919081900360600190a3505050505050565b60006001600160a01b0384163b156134fe57604051630a85bd0160e11b81526001600160a01b0385169063150b7a029061344b903390899088908890600401615556565b6020604051808303816000875af1925050508015613486575060408051601f3d908101601f1916820190925261348391810190615593565b60015b6134e4573d8080156134b4576040519150601f19603f3d011682016040523d82523d6000602084013e6134b9565b606091505b5080516000036134dc576040516336f57c1b60e11b815260040160405180910390fd5b805181602001fd5b6001600160e01b031916630a85bd0160e11b149050611ccf565b506001949350505050565b6060815160000361352857505060408051600081526020810190915290565b60408051602e8082526105e08201909252600091602082016105c08036833701905050905060008160008151811061356257613562614a9f565b60ff90921660209283029190910190910152825160019060005b8181101561367d57600086828151811061359857613598614a9f565b016020015160f81c905060005b8460ff168110156136225760088682815181106135c4576135c4614a9f565b602002602001015160ff16901b826135dc9190615037565b91506135e9603a836155b0565b8682815181106135fb576135fb614a9f565b60ff90921660209283029190910190910152613618603a836155c4565b91506001016135a5565b505b801561367457613635603a826155b0565b858560ff168151811061364a5761364a614a9f565b60ff9092166020928302919091019091015260019093019261366d603a826155c4565b9050613624565b5060010161357c565b5061369861369361368e858561387b565b613922565b6139c4565b95945050505050565b60006136b060028484186155c4565b61136b90848416615037565b60095460405163eaa19ab360e01b81526000916060916001600160a01b039091169063eaa19ab3906136f6908890889087906004016155d8565b6000604051808303816000875af1158015613715573d6000803e3d6000fd5b505050506040513d6000823e601f3d908101601f1916820160405261373d9190810190614f31565b81519093509091506000805b828110156137f35783818151811061376357613763614a9f565b6020026020010151915061377786836126a9565b856001600160a01b031687828151811061379357613793614a9f565b602002602001015161ffff16837f598baf7bf150ca2f42be9e9f8f55e81d45f5715c3ff22bf46d697fabec7f31d68b336040516137e39291909182526001600160a01b0316602082015260400190565b60405180910390a4600101613749565b505050509392505050565b600061380a838261567b565b506001610cb5828261567b565b60a081015115610de857610de8848483600001518460a00151613a9d565b600061136b8284615024565b6000806138638561385e613854886127c5565b868863ffffffff16565b613b3f565b91509150935093915050565b600061136b8284615037565b606060008260ff166001600160401b0381111561389a5761389a61411e565b6040519080825280602002602001820160405280156138c3578160200160208202803683370190505b50905060005b8360ff1681101561391a578481815181106138e6576138e6614a9f565b602002602001015182828151811061390057613900614a9f565b60ff909216602092830291909101909101526001016138c9565b509392505050565b80516060906000816001600160401b038111156139415761394161411e565b60405190808252806020026020018201604052801561396a578160200160208202803683370190505b50905060005b8281101561391a5784816001875103038151811061399057613990614a9f565b60200260200101518282815181106139aa576139aa614a9f565b60ff90921660209283029190910190910152600101613970565b80516060906000816001600160401b038111156139e3576139e361411e565b6040519080825280601f01601f191660200182016040528015613a0d576020820181803683370190505b50905060005b8281101561391a576040518060600160405280603a815260200161573b603a9139858281518110613a4657613a46614a9f565b602002602001015160ff1681518110613a6157613a61614a9f565b602001015160f81c60f81b828281518110613a7e57613a7e614a9f565b60200101906001600160f81b031916908160001a905350600101613a13565b6001600160a01b038416613ac9576000828152601160205260409020613ac69061386f83613841565b50505b6001600160a01b038316613af5576000828152601160205260409020613af29061383583613841565b50505b6001600160a01b038085166000908152600f60208181526040808420878552825280842054888616855292825280842087855290915290912054610de892918216911684846132b2565b8154600090819081613b50866127c5565b9050600082118015613b8e57504386613b6a600185615024565b81548110613b7a57613b7a614a9f565b60009182526020909120015463ffffffff16145b15613bee57613b9c85613c6a565b86613ba8600185615024565b81548110613bb857613bb8614a9f565b9060005260206000200160000160046101000a8154816001600160e01b0302191690836001600160e01b03160217905550613c5c565b856000016040518060400160405280613c0643613cd7565b63ffffffff168152602001613c1a88613c6a565b6001600160e01b0390811690915282546001810184556000938452602093849020835194909301519091166401000000000263ffffffff909316929092179101555b9250839150505b9250929050565b60006001600160e01b03821115613cd35760405162461bcd60e51b815260206004820152602760248201527f53616665436173743a2076616c756520646f65736e27742066697420696e20326044820152663234206269747360c81b60648201526084016122e4565b5090565b600063ffffffff821115613cd35760405162461bcd60e51b815260206004820152602660248201527f53616665436173743a2076616c756520646f65736e27742066697420696e203360448201526532206269747360d01b60648201526084016122e4565b6001600160e01b0319811681146122f657600080fd5b600060208284031215613d6457600080fd5b813561136b81613d3c565b60008083601f840112613d8157600080fd5b5081356001600160401b03811115613d9857600080fd5b6020830191508360208260051b8501011115613c6357600080fd5b60008060008060408587031215613dc957600080fd5b84356001600160401b0380821115613de057600080fd5b818701915087601f830112613df457600080fd5b813581811115613e0357600080fd5b88602061016083028501011115613e1957600080fd5b602092830196509450908601359080821115613e3457600080fd5b50613e4187828801613d6f565b95989497509550505050565b60005b83811015613e68578181015183820152602001613e50565b50506000910152565b60008151808452613e89816020860160208601613e4d565b601f01601f19169290920160200192915050565b60208152600061136b6020830184613e71565b600060208284031215613ec257600080fd5b5035919050565b6001600160a01b03811681146122f657600080fd5b8035613ee981613ec9565b919050565b60008060408385031215613f0157600080fd5b8235613f0c81613ec9565b946020939093013593505050565b600080600060608486031215613f2f57600080fd5b8335613f3a81613ec9565b92506020840135613f4a81613ec9565b929592945050506040919091013590565b600060208284031215613f6d57600080fd5b813561136b81613ec9565b60008060208385031215613f8b57600080fd5b82356001600160401b0380821115613fa257600080fd5b818501915085601f830112613fb657600080fd5b813581811115613fc557600080fd5b8660208260061b8501011115613fda57600080fd5b60209290920196919550909350505050565b60006101e08284031215613fff57600080fd5b50919050565b60006020828403121561401757600080fd5b81356001600160401b0381111561402d57600080fd5b611ccf84828501613fec565b6000806020838503121561404c57600080fd5b82356001600160401b0381111561406257600080fd5b61406e85828601613d6f565b90969095509350505050565b60008060006040848603121561408f57600080fd5b83356001600160401b038111156140a557600080fd5b6140b186828701613d6f565b90945092505060208401356140c581613ec9565b809150509250925092565b600081518084526020808501945080840160005b83811015614100578151875295820195908201906001016140e4565b509495945050505050565b60208152600061136b60208301846140d0565b634e487b7160e01b600052604160045260246000fd5b604080519081016001600160401b03811182821017156141565761415661411e565b60405290565b604051608081016001600160401b03811182821017156141565761415661411e565b60405161016081016001600160401b03811182821017156141565761415661411e565b60405161012081016001600160401b03811182821017156141565761415661411e565b60405161018081016001600160401b03811182821017156141565761415661411e565b604051601f8201601f191681016001600160401b038111828210171561420f5761420f61411e565b604052919050565b60006001600160401b038211156142305761423061411e565b5060051b60200190565b600082601f83011261424b57600080fd5b8135602061426061425b83614217565b6141e7565b82815260059290921b8401810191818101908684111561427f57600080fd5b8286015b8481101561429a5780358352918301918301614283565b509695505050505050565b600080604083850312156142b857600080fd5b82356001600160401b03808211156142cf57600080fd5b6142db8683870161423a565b935060208501359150808211156142f157600080fd5b506142fe85828601613fec565b9150509250929050565b6000806020838503121561431b57600080fd5b82356001600160401b038082111561433257600080fd5b818501915085601f83011261434657600080fd5b81358181111561435557600080fd5b866020828501011115613fda57600080fd5b80151581146122f657600080fd5b8035613ee981614367565b6000806040838503121561439357600080fd5b823561439e81613ec9565b915060208301356143ae81614367565b809150509250929050565b838152600060206060818401526143d36060840186613e71565b83810360408581019190915285518083528387019284019060005b8181101561441c57845180516001600160a01b031684528601518684015293850193918301916001016143ee565b50909998505050505050505050565b6000806040838503121561443e57600080fd5b50508035926020909101359150565b60006001600160401b038211156144665761446661411e565b50601f01601f191660200190565b600061448261425b8461444d565b905082815283838301111561449657600080fd5b828260208301376000602084830101529392505050565b600080600080608085870312156144c357600080fd5b84356144ce81613ec9565b935060208501356144de81613ec9565b92506040850135915060608501356001600160401b0381111561450057600080fd5b8501601f8101871361451157600080fd5b61452087823560208401614474565b91505092959194509250565b6000602080838503121561453f57600080fd5b82356001600160401b0381111561455557600080fd5b8301601f8101851361456657600080fd5b803561457461425b82614217565b81815260069190911b8201830190838101908783111561459357600080fd5b928401925b828410156145df57604084890312156145b15760008081fd5b6145b9614134565b84356145c481613ec9565b81528486013586820152825260409093019290840190614598565b979650505050505050565b6000806000606084860312156145ff57600080fd5b833561460a81613ec9565b95602085013595506040909401359392505050565b60006020828403121561463157600080fd5b81356001600160401b0381111561464757600080fd5b82016101a0818503121561136b57600080fd5b60006020828403121561466c57600080fd5b81356001600160401b0381111561468257600080fd5b8201610200818503121561136b57600080fd5b600082601f8301126146a657600080fd5b61136b83833560208501614474565b803569ffffffffffffffffffff81168114613ee957600080fd5b803565ffffffffffff81168114613ee957600080fd5b803564ffffffffff81168114613ee957600080fd5b803561ffff81168114613ee957600080fd5b803560ff81168114613ee957600080fd5b6000608080838503121561473057600080fd5b61473861415c565b915082356001600160401b0381111561475057600080fd5b8301601f8101851361476157600080fd5b8035602061477161425b83614217565b828152610160928302840182019282820191908985111561479157600080fd5b948301945b848610156148725780868b0312156147ae5760008081fd5b6147b661417e565b6147bf876146b5565b81526147cc8588016146cf565b8582015260406147dd8189016146e5565b9082015260606147ee8882016146fa565b908201526147fd8789016146fa565b8882015260a061480e818901613ede565b9082015260c0878101359082015260e061482981890161470c565b9082015261010061483b888201614375565b9082015261012061484d888201614375565b9082015261014061485f888201614375565b9082015283529485019491830191614796565b5086525085810135908501525050506040808301359082015261489760608301613ede565b606082015292915050565b6000608082840312156148b457600080fd5b6148bc61415c565b905081356148c981614367565b815260208201356148d981614367565b602082015260408201356148ec81614367565b6040820152606082013561489781614367565b60008060008060008060008060008060006101c08c8e03121561492157600080fd5b8b359a5061493160208d01613ede565b99506001600160401b038060408e0135111561494c57600080fd5b61495c8e60408f01358f01614695565b99508060608e0135111561496f57600080fd5b61497f8e60608f01358f01614695565b985061498d60808e01613ede565b97508060a08e013511156149a057600080fd5b6149b08e60a08f01358f01614695565b96506149be60c08e01613ede565b95508060e08e013511156149d157600080fd5b6149e18e60e08f01358f01614695565b9450806101008e013511156149f557600080fd5b50614a078d6101008e01358e0161471d565b9250614a166101208d01613ede565b9150614a268d6101408e016148a2565b90509295989b509295989b9093969950565b60008060408385031215614a4b57600080fd5b8235614a5681613ec9565b915060208301356143ae81613ec9565b6020808252810182905260006001600160fb1b03831115614a8657600080fd5b8260051b80856040850137919091016040019392505050565b634e487b7160e01b600052603260045260246000fd5b614ad282614ac2836146b5565b69ffffffffffffffffffff169052565b614ade602082016146cf565b65ffffffffffff166020830152614af7604082016146e5565b64ffffffffff166040830152614b0f606082016146fa565b61ffff166060830152614b24608082016146fa565b61ffff166080830152614b3960a08201613ede565b6001600160a01b031660a083015260c08181013590830152614b5d60e0820161470c565b60ff1660e0830152610100614b73828201614375565b151590830152610120614b87828201614375565b151590830152610140614b9b828201614375565b80151584830152610de8565b6020808252810182905260008360408301825b85811015614be057614bcc8284614ab5565b610160928301929190910190600101614bba565b5095945050505050565b600082601f830112614bfb57600080fd5b81516020614c0b61425b83614217565b82815260059290921b84018101918181019086841115614c2a57600080fd5b8286015b8481101561429a5780518352918301918301614c2e565b600060208284031215614c5757600080fd5b81516001600160401b03811115614c6d57600080fd5b611ccf84828501614bea565b6101808101614c888285614ab5565b6001600160a01b03929092166101609190910152919050565b600181811c90821680614cb557607f821691505b602082108103613fff57634e487b7160e01b600052602260045260246000fd5b600060408284031215614ce757600080fd5b604051604081018181106001600160401b0382111715614d0957614d0961411e565b604052823581526020928301359281019290925250919050565b8051613ee981614367565b600060208284031215614d4057600080fd5b815161136b81614367565b6000808335601e19843603018112614d6257600080fd5b8301803591506001600160401b03821115614d7c57600080fd5b602001915036819003821315613c6357600080fd5b60008085851115614da157600080fd5b83861115614dae57600080fd5b5050820193919092039150565b6001600160e01b03198135818116916004851015614de35780818660040360031b1b83161692505b505092915050565b600080600060608486031215614e0057600080fd5b833592506020840135614e1281613d3c565b915060408401356001600160401b03811115614e2d57600080fd5b614e398682870161423a565b9150509250925092565b60008235603e19833603018112614e5957600080fd5b9190910192915050565b6000808335601e19843603018112614e7a57600080fd5b8301803591506001600160401b03821115614e9457600080fd5b6020019150600581901b3603821315613c6357600080fd5b8051613ee981613ec9565b600060208284031215614ec957600080fd5b815161136b81613ec9565b84815260606020808301829052908201849052600090859060808401835b87811015614f195761ffff614f06856146fa565b1682529282019290820190600101614ef2565b50809350505050821515604083015295945050505050565b60008060408385031215614f4457600080fd5b82516001600160401b03811115614f5a57600080fd5b614f6685828601614bea565b925050602083015190509250929050565b600060208284031215614f8957600080fd5b61136b826146fa565b600060208284031215614fa457600080fd5b5051919050565b6001600160a01b0383168152604060208201819052600090611ccf908301846140d0565b60208152816020820152818360408301376000818301604090810191909152601f909201601f19160101919050565b8183823760009101908152919050565b634e487b7160e01b600052601160045260246000fd5b8181038181111561098c5761098c61500e565b8082018082111561098c5761098c61500e565b6000610120828403121561505d57600080fd5b6150656141a1565b825181526020830151602082015260408301516040820152606083015160608201526080830151608082015260a083015160a082015260c083015160c08201526150b160e08401614eac565b60e0820152610100928301519281019290925250919050565b6000602082840312156150dc57600080fd5b81516001600160401b038111156150f257600080fd5b8201601f8101841361510357600080fd5b805161511161425b8261444d565b81815285602083850101111561512657600080fd5b613698826020830160208601613e4d565b602080825282518282018190526000919060409081850190868401855b82811015615211578151805169ffffffffffffffffffff1685528681015165ffffffffffff16878601528581015164ffffffffff168686015260608082015161ffff908116918701919091526080808301519091169086015260a0808201516001600160a01b03169086015260c0808201519086015260e08082015160ff16908601526101008082015115159086015261012080820151151590860152610140908101511515908501526101609093019290850190600101615154565b5091979650505050505050565b634e487b7160e01b600052601260045260246000fd5b60008351615246818460208801613e4d565b83519083019061525a818360208801613e4d565b01949350505050565b600181815b8085111561529e5781600019048211156152845761528461500e565b8085161561529157918102915b93841c9390800290615268565b509250929050565b6000826152b55750600161098c565b816152c25750600061098c565b81600181146152d857600281146152e2576152fe565b600191505061098c565b60ff8411156152f3576152f361500e565b50506001821b61098c565b5060208310610133831016604e8410600b8410161715615321575081810a61098c565b61532b8383615263565b806000190482111561533f5761533f61500e565b029392505050565b600061136b83836152a6565b600080600080600060a0868803121561536b57600080fd5b853594506020808701359450604087013561538581613d3c565b9350606087013561539581614367565b925060808701356001600160401b038111156153b057600080fd5b8701601f810189136153c157600080fd5b80356153cf61425b82614217565b81815260059190911b8201830190838101908b8311156153ee57600080fd5b928401925b8284101561541357615404846146fa565b825292840192908401906153f3565b80955050505050509295509295909350565b60006080828403121561543757600080fd5b604051608081018181106001600160401b03821117156154595761545961411e565b604052825161546781614367565b8152602083015161547781614367565b6020820152604083015161548a81614367565b6040820152606083015161549d81614367565b60608201529392505050565b600061018082840312156154bc57600080fd5b6154c46141c4565b825181526020830151602082015260408301516040820152606083015160608201526080830151608082015260a083015160a082015260c083015160c082015261551060e08401614eac565b60e082015261010083810151908201526101208084015190820152610140615539818501614d23565b9082015261016061554b848201614d23565b908201529392505050565b6001600160a01b038581168252841660208201526040810183905260806060820181905260009061558990830184613e71565b9695505050505050565b6000602082840312156155a557600080fd5b815161136b81613d3c565b6000826155bf576155bf61521e565b500690565b6000826155d3576155d361521e565b500490565b6000606082018583526020606081850152818651808452608086019150828801935060005b8181101561561d57845161ffff16835293830193918301916001016155fd565b50508093505050508215156040830152949350505050565b601f821115610cb557600081815260208120601f850160051c8101602086101561565c5750805b601f850160051c820191505b81811015610b6d57828155600101615668565b81516001600160401b038111156156945761569461411e565b6156a8816156a28454614ca1565b84615635565b602080601f8311600181146156dd57600084156156c55750858301515b600019600386901b1c1916600185901b178555610b6d565b600085815260208120601f198616915b8281101561570c578886015182559484019460019091019084016156ed565b508582101561572a5787850151600019600388901b60f8161c191681555b5050505050600190811b0190555056fe31323334353637383941424344454647484a4b4c4d4e505152535455565758595a6162636465666768696a6b6d6e6f707172737475767778797aa2646970667358221220b660c5a48fa6b49e2f7be3a8538dd5ee4a5148293998e12d32235ef8e634c32964736f6c63430008100033",
    "linkReferences": {}
  },
  "methodIdentifiers": {
    "adjustTiers((uint80,uint48,uint40,uint16,uint16,address,bytes32,uint8,bool,bool,bool)[],uint256[])": "0575ea7a",
    "approve(address,uint256)": "095ea7b3",
    "balanceOf(address)": "70a08231",
    "codeOrigin()": "1d153ca4",
    "contractURI()": "e8a3d485",
    "creditsOf(address)": "245a45b5",
    "didPay((address,uint256,uint256,(address,uint256,uint256,uint256),(address,uint256,uint256,uint256),uint256,address,bool,string,bytes))": "da9ee8b7",
    "didRedeem((address,uint256,uint256,uint256,(address,uint256,uint256,uint256),(address,uint256,uint256,uint256),address,string,bytes))": "2b13c58f",
    "directory()": "c41c2f24",
    "firstOwnerOf(uint256)": "54c6d1f5",
    "fundingCycleStore()": "557e7155",
    "getApproved(uint256)": "081812fc",
    "getPastTierTotalVotes(uint256,uint256)": "d31cc52c",
    "getPastTierVotes(address,uint256,uint256)": "d40e7146",
    "getTierDelegate(address,uint256)": "82732b6d",
    "getTierTotalVotes(uint256)": "94c5c5ca",
    "getTierVotes(address,uint256)": "ca323efe",
    "initialize(uint256,address,string,string,address,string,address,string,((uint80,uint48,uint40,uint16,uint16,address,bytes32,uint8,bool,bool,bool)[],uint256,uint256,address),address,(bool,bool,bool,bool))": "e8ed5d67",
    "isApprovedForAll(address,address)": "e985e9c5",
    "mintFor((uint16[],address)[])": "36c1a93b",
    "mintFor(uint16[],address)": "6ac6d941",
    "mintReservesFor((uint256,uint256)[])": "2a596e53",
    "mintReservesFor(uint256,uint256)": "aa4fb15b",
    "name()": "06fdde03",
    "owner()": "8da5cb5b",
    "ownerOf(uint256)": "6352211e",
    "payParams((address,address,(address,uint256,uint256,uint256),uint256,uint256,address,uint256,uint256,string,bytes))": "d46cf171",
    "prices()": "d3419bf3",
    "pricingCurrency()": "64640c1e",
    "pricingDecimals()": "4ecba625",
    "projectId()": "3fafa127",
    "redeemParams((address,address,uint256,uint256,uint256,uint256,uint256,(address,uint256,uint256,uint256),bool,uint256,string,bytes))": "a51cfd18",
    "redemptionWeightOf(uint256[],(address,address,uint256,uint256,uint256,uint256,uint256,(address,uint256,uint256,uint256),bool,uint256,string,bytes))": "7ba62bf9",
    "renounceOwnership()": "715018a6",
    "safeTransferFrom(address,address,uint256)": "42842e0e",
    "safeTransferFrom(address,address,uint256,bytes)": "b88d4fde",
    "setApprovalForAll(address,bool)": "a22cb465",
    "setBaseUri(string)": "a0bcfc7f",
    "setContractUri(string)": "ccb4807b",
    "setDefaultReservedTokenBeneficiary(address)": "df487e26",
    "setTierDelegate(address,uint256)": "ab951e39",
    "setTierDelegates((address,uint256)[])": "c74b13d9",
    "setTokenUriResolver(address)": "2407497e",
    "store()": "975057e7",
    "supportsInterface(bytes4)": "01ffc9a7",
    "symbol()": "95d89b41",
    "tokenURI(uint256)": "c87b56dd",
    "totalRedemptionWeight((address,address,uint256,uint256,uint256,uint256,uint256,(address,uint256,uint256,uint256),bool,uint256,string,bytes))": "9494bf72",
    "transferFrom(address,address,uint256)": "23b872dd",
    "transferOwnership(address)": "f2fde38b"
  },
  "id": 1
}