{
  "abi": [
    {
      "inputs": [],
      "name": "ALEADY_MINTED",
      "type": "error"
    },
    {
      "inputs": [],
      "name": "APPROVAL_TO_CURRENT_OWNER",
      "type": "error"
    },
    {
      "inputs": [],
      "name": "APPROVE_TO_CALLER",
      "type": "error"
    },
    {
      "inputs": [],
      "name": "BLOCK_NOT_YET_MINED",
      "type": "error"
    },
    {
      "inputs": [],
      "name": "CALLER_NOT_OWNER_OR_APPROVED",
      "type": "error"
    },
    {
      "inputs": [],
      "name": "DELEGATE_ADDRESS_ZERO",
      "type": "error"
    },
    {
      "inputs": [],
      "name": "INCORRECT_OWNER",
      "type": "error"
    },
    {
      "inputs": [],
      "name": "INVALID_PAYMENT_EVENT",
      "type": "error"
    },
    {
      "inputs": [],
      "name": "INVALID_REDEMPTION_EVENT",
      "type": "error"
    },
    {
      "inputs": [],
      "name": "INVALID_REDEMPTION_METADATA",
      "type": "error"
    },
    {
      "inputs": [],
      "name": "INVALID_TOKEN_ID",
      "type": "error"
    },
    {
      "inputs": [],
      "name": "MINT_TO_ZERO",
      "type": "error"
    },
    {
      "inputs": [],
      "name": "NOT_AVAILABLE",
      "type": "error"
    },
    {
      "inputs": [],
      "name": "OVERSPENDING",
      "type": "error"
    },
    {
      "inputs": [
        {
          "internalType": "uint256",
          "name": "prod1",
          "type": "uint256"
        },
        {
          "internalType": "uint256",
          "name": "denominator",
          "type": "uint256"
        }
      ],
      "name": "PRBMath__MulDivOverflow",
      "type": "error"
    },
    {
      "inputs": [],
      "name": "PRICING_RESOLVER_CHANGES_PAUSED",
      "type": "error"
    },
    {
      "inputs": [],
      "name": "RESERVED_TOKEN_MINTING_PAUSED",
      "type": "error"
    },
    {
      "inputs": [],
      "name": "TRANSFERS_PAUSED",
      "type": "error"
    },
    {
      "inputs": [],
      "name": "TRANSFER_TO_NON_IMPLEMENTER",
      "type": "error"
    },
    {
      "inputs": [],
      "name": "TRANSFER_TO_ZERO_ADDRESS",
      "type": "error"
    },
    {
      "inputs": [],
      "name": "UNAUTHORIZED",
      "type": "error"
    },
    {
      "inputs": [],
      "name": "UNEXPECTED_TOKEN_REDEEMED",
      "type": "error"
    },
    {
      "anonymous": false,
      "inputs": [
        {
          "indexed": true,
          "internalType": "uint256",
          "name": "changeAmount",
          "type": "uint256"
        },
        {
          "indexed": true,
          "internalType": "uint256",
          "name": "newTotalCredits",
          "type": "uint256"
        },
        {
          "indexed": true,
          "internalType": "address",
          "name": "account",
          "type": "address"
        },
        {
          "indexed": false,
          "internalType": "address",
          "name": "caller",
          "type": "address"
        }
      ],
      "name": "AddCredits",
      "type": "event"
    },
    {
      "anonymous": false,
      "inputs": [
        {
          "indexed": true,
          "internalType": "uint256",
          "name": "tierId",
          "type": "uint256"
        },
        {
          "components": [
            {
              "internalType": "uint80",
              "name": "contributionFloor",
              "type": "uint80"
            },
            {
              "internalType": "uint48",
              "name": "lockedUntil",
              "type": "uint48"
            },
            {
              "internalType": "uint40",
              "name": "initialQuantity",
              "type": "uint40"
            },
            {
              "internalType": "uint16",
              "name": "votingUnits",
              "type": "uint16"
            },
            {
              "internalType": "uint16",
              "name": "reservedRate",
              "type": "uint16"
            },
            {
              "internalType": "address",
              "name": "reservedTokenBeneficiary",
              "type": "address"
            },
            {
              "internalType": "uint8",
              "name": "royaltyRate",
              "type": "uint8"
            },
            {
              "internalType": "address",
              "name": "royaltyBeneficiary",
              "type": "address"
            },
            {
              "internalType": "bytes32",
              "name": "encodedIPFSUri",
              "type": "bytes32"
            },
            {
              "internalType": "uint8",
              "name": "category",
              "type": "uint8"
            },
            {
              "internalType": "bool",
              "name": "allowManualMint",
              "type": "bool"
            },
            {
              "internalType": "bool",
              "name": "shouldUseReservedTokenBeneficiaryAsDefault",
              "type": "bool"
            },
            {
              "internalType": "bool",
              "name": "shouldUseRoyaltyBeneficiaryAsDefault",
              "type": "bool"
            },
            {
              "internalType": "bool",
              "name": "transfersPausable",
              "type": "bool"
            }
          ],
          "indexed": false,
          "internalType": "struct JB721TierParams",
          "name": "data",
          "type": "tuple"
        },
        {
          "indexed": false,
          "internalType": "address",
          "name": "caller",
          "type": "address"
        }
      ],
      "name": "AddTier",
      "type": "event"
    },
    {
      "anonymous": false,
      "inputs": [
        {
          "indexed": true,
          "internalType": "address",
          "name": "owner",
          "type": "address"
        },
        {
          "indexed": true,
          "internalType": "address",
          "name": "approved",
          "type": "address"
        },
        {
          "indexed": true,
          "internalType": "uint256",
          "name": "tokenId",
          "type": "uint256"
        }
      ],
      "name": "Approval",
      "type": "event"
    },
    {
      "anonymous": false,
      "inputs": [
        {
          "indexed": true,
          "internalType": "address",
          "name": "owner",
          "type": "address"
        },
        {
          "indexed": true,
          "internalType": "address",
          "name": "operator",
          "type": "address"
        },
        {
          "indexed": false,
          "internalType": "bool",
          "name": "approved",
          "type": "bool"
        }
      ],
      "name": "ApprovalForAll",
      "type": "event"
    },
    {
      "anonymous": false,
      "inputs": [
        {
          "indexed": true,
          "internalType": "address",
          "name": "delegator",
          "type": "address"
        },
        {
          "indexed": true,
          "internalType": "address",
          "name": "fromDelegate",
          "type": "address"
        },
        {
          "indexed": true,
          "internalType": "address",
          "name": "toDelegate",
          "type": "address"
        }
      ],
      "name": "DelegateChanged",
      "type": "event"
    },
    {
      "anonymous": false,
      "inputs": [
        {
          "indexed": true,
          "internalType": "uint256",
          "name": "tokenId",
          "type": "uint256"
        },
        {
          "indexed": true,
          "internalType": "uint256",
          "name": "tierId",
          "type": "uint256"
        },
        {
          "indexed": true,
          "internalType": "address",
          "name": "beneficiary",
          "type": "address"
        },
        {
          "indexed": false,
          "internalType": "uint256",
          "name": "totalAmountContributed",
          "type": "uint256"
        },
        {
          "indexed": false,
          "internalType": "address",
          "name": "caller",
          "type": "address"
        }
      ],
      "name": "Mint",
      "type": "event"
    },
    {
      "anonymous": false,
      "inputs": [
        {
          "indexed": true,
          "internalType": "uint256",
          "name": "tokenId",
          "type": "uint256"
        },
        {
          "indexed": true,
          "internalType": "uint256",
          "name": "tierId",
          "type": "uint256"
        },
        {
          "indexed": true,
          "internalType": "address",
          "name": "beneficiary",
          "type": "address"
        },
        {
          "indexed": false,
          "internalType": "address",
          "name": "caller",
          "type": "address"
        }
      ],
      "name": "MintReservedToken",
      "type": "event"
    },
    {
      "anonymous": false,
      "inputs": [
        {
          "indexed": true,
          "internalType": "address",
          "name": "previousOwner",
          "type": "address"
        },
        {
          "indexed": true,
          "internalType": "address",
          "name": "newOwner",
          "type": "address"
        }
      ],
      "name": "OwnershipTransferred",
      "type": "event"
    },
    {
      "anonymous": false,
      "inputs": [
        {
          "indexed": true,
          "internalType": "uint256",
          "name": "tierId",
          "type": "uint256"
        },
        {
          "indexed": false,
          "internalType": "address",
          "name": "caller",
          "type": "address"
        }
      ],
      "name": "RemoveTier",
      "type": "event"
    },
    {
      "anonymous": false,
      "inputs": [
        {
          "indexed": true,
          "internalType": "string",
          "name": "baseUri",
          "type": "string"
        },
        {
          "indexed": false,
          "internalType": "address",
          "name": "caller",
          "type": "address"
        }
      ],
      "name": "SetBaseUri",
      "type": "event"
    },
    {
      "anonymous": false,
      "inputs": [
        {
          "indexed": true,
          "internalType": "string",
          "name": "contractUri",
          "type": "string"
        },
        {
          "indexed": false,
          "internalType": "address",
          "name": "caller",
          "type": "address"
        }
      ],
      "name": "SetContractUri",
      "type": "event"
    },
    {
      "anonymous": false,
      "inputs": [
        {
          "indexed": true,
          "internalType": "address",
          "name": "beneficiary",
          "type": "address"
        },
        {
          "indexed": false,
          "internalType": "address",
          "name": "caller",
          "type": "address"
        }
      ],
      "name": "SetDefaultReservedTokenBeneficiary",
      "type": "event"
    },
    {
      "anonymous": false,
      "inputs": [
        {
          "indexed": true,
          "internalType": "uint256",
          "name": "tierId",
          "type": "uint256"
        },
        {
          "indexed": false,
          "internalType": "bytes32",
          "name": "encodedIPFSUri",
          "type": "bytes32"
        },
        {
          "indexed": false,
          "internalType": "address",
          "name": "caller",
          "type": "address"
        }
      ],
      "name": "SetEncodedIPFSUri",
      "type": "event"
    },
    {
      "anonymous": false,
      "inputs": [
        {
          "indexed": true,
          "internalType": "contract IJBTokenUriResolver",
          "name": "newResolver",
          "type": "address"
        },
        {
          "indexed": false,
          "internalType": "address",
          "name": "caller",
          "type": "address"
        }
      ],
      "name": "SetTokenUriResolver",
      "type": "event"
    },
    {
      "anonymous": false,
      "inputs": [
        {
          "indexed": true,
          "internalType": "address",
          "name": "delegator",
          "type": "address"
        },
        {
          "indexed": true,
          "internalType": "address",
          "name": "fromDelegate",
          "type": "address"
        },
        {
          "indexed": true,
          "internalType": "address",
          "name": "toDelegate",
          "type": "address"
        },
        {
          "indexed": false,
          "internalType": "uint256",
          "name": "tierId",
          "type": "uint256"
        },
        {
          "indexed": false,
          "internalType": "address",
          "name": "caller",
          "type": "address"
        }
      ],
      "name": "TierDelegateChanged",
      "type": "event"
    },
    {
      "anonymous": false,
      "inputs": [
        {
          "indexed": true,
          "internalType": "address",
          "name": "delegate",
          "type": "address"
        },
        {
          "indexed": true,
          "internalType": "uint256",
          "name": "tierId",
          "type": "uint256"
        },
        {
          "indexed": false,
          "internalType": "uint256",
          "name": "previousBalance",
          "type": "uint256"
        },
        {
          "indexed": false,
          "internalType": "uint256",
          "name": "newBalance",
          "type": "uint256"
        },
        {
          "indexed": false,
          "internalType": "address",
          "name": "caller",
          "type": "address"
        }
      ],
      "name": "TierDelegateVotesChanged",
      "type": "event"
    },
    {
      "anonymous": false,
      "inputs": [
        {
          "indexed": true,
          "internalType": "address",
          "name": "from",
          "type": "address"
        },
        {
          "indexed": true,
          "internalType": "address",
          "name": "to",
          "type": "address"
        },
        {
          "indexed": true,
          "internalType": "uint256",
          "name": "tokenId",
          "type": "uint256"
        }
      ],
      "name": "Transfer",
      "type": "event"
    },
    {
      "anonymous": false,
      "inputs": [
        {
          "indexed": true,
          "internalType": "uint256",
          "name": "changeAmount",
          "type": "uint256"
        },
        {
          "indexed": true,
          "internalType": "uint256",
          "name": "newTotalCredits",
          "type": "uint256"
        },
        {
          "indexed": true,
          "internalType": "address",
          "name": "account",
          "type": "address"
        },
        {
          "indexed": false,
          "internalType": "address",
          "name": "caller",
          "type": "address"
        }
      ],
      "name": "UseCredits",
      "type": "event"
    },
    {
      "inputs": [
        {
          "components": [
            {
              "internalType": "uint80",
              "name": "contributionFloor",
              "type": "uint80"
            },
            {
              "internalType": "uint48",
              "name": "lockedUntil",
              "type": "uint48"
            },
            {
              "internalType": "uint40",
              "name": "initialQuantity",
              "type": "uint40"
            },
            {
              "internalType": "uint16",
              "name": "votingUnits",
              "type": "uint16"
            },
            {
              "internalType": "uint16",
              "name": "reservedRate",
              "type": "uint16"
            },
            {
              "internalType": "address",
              "name": "reservedTokenBeneficiary",
              "type": "address"
            },
            {
              "internalType": "uint8",
              "name": "royaltyRate",
              "type": "uint8"
            },
            {
              "internalType": "address",
              "name": "royaltyBeneficiary",
              "type": "address"
            },
            {
              "internalType": "bytes32",
              "name": "encodedIPFSUri",
              "type": "bytes32"
            },
            {
              "internalType": "uint8",
              "name": "category",
              "type": "uint8"
            },
            {
              "internalType": "bool",
              "name": "allowManualMint",
              "type": "bool"
            },
            {
              "internalType": "bool",
              "name": "shouldUseReservedTokenBeneficiaryAsDefault",
              "type": "bool"
            },
            {
              "internalType": "bool",
              "name": "shouldUseRoyaltyBeneficiaryAsDefault",
              "type": "bool"
            },
            {
              "internalType": "bool",
              "name": "transfersPausable",
              "type": "bool"
            }
          ],
          "internalType": "struct JB721TierParams[]",
          "name": "_tiersToAdd",
          "type": "tuple[]"
        },
        {
          "internalType": "uint256[]",
          "name": "_tierIdsToRemove",
          "type": "uint256[]"
        }
      ],
      "name": "adjustTiers",
      "outputs": [],
      "stateMutability": "nonpayable",
      "type": "function"
    },
    {
      "inputs": [
        {
          "internalType": "address",
          "name": "to",
          "type": "address"
        },
        {
          "internalType": "uint256",
          "name": "tokenId",
          "type": "uint256"
        }
      ],
      "name": "approve",
      "outputs": [],
      "stateMutability": "nonpayable",
      "type": "function"
    },
    {
      "inputs": [
        {
          "internalType": "address",
          "name": "_owner",
          "type": "address"
        }
      ],
      "name": "balanceOf",
      "outputs": [
        {
          "internalType": "uint256",
          "name": "balance",
          "type": "uint256"
        }
      ],
      "stateMutability": "view",
      "type": "function"
    },
    {
      "inputs": [],
      "name": "codeOrigin",
      "outputs": [
        {
          "internalType": "address",
          "name": "",
          "type": "address"
        }
      ],
      "stateMutability": "view",
      "type": "function"
    },
    {
      "inputs": [],
      "name": "contractURI",
      "outputs": [
        {
          "internalType": "string",
          "name": "",
          "type": "string"
        }
      ],
      "stateMutability": "view",
      "type": "function"
    },
    {
      "inputs": [
        {
          "internalType": "address",
          "name": "",
          "type": "address"
        }
      ],
      "name": "creditsOf",
      "outputs": [
        {
          "internalType": "uint256",
          "name": "",
          "type": "uint256"
        }
      ],
      "stateMutability": "view",
      "type": "function"
    },
    {
      "inputs": [
        {
          "components": [
            {
              "internalType": "address",
              "name": "payer",
              "type": "address"
            },
            {
              "internalType": "uint256",
              "name": "projectId",
              "type": "uint256"
            },
            {
              "internalType": "uint256",
              "name": "currentFundingCycleConfiguration",
              "type": "uint256"
            },
            {
              "components": [
                {
                  "internalType": "address",
                  "name": "token",
                  "type": "address"
                },
                {
                  "internalType": "uint256",
                  "name": "value",
                  "type": "uint256"
                },
                {
                  "internalType": "uint256",
                  "name": "decimals",
                  "type": "uint256"
                },
                {
                  "internalType": "uint256",
                  "name": "currency",
                  "type": "uint256"
                }
              ],
              "internalType": "struct JBTokenAmount",
              "name": "amount",
              "type": "tuple"
            },
            {
              "components": [
                {
                  "internalType": "address",
                  "name": "token",
                  "type": "address"
                },
                {
                  "internalType": "uint256",
                  "name": "value",
                  "type": "uint256"
                },
                {
                  "internalType": "uint256",
                  "name": "decimals",
                  "type": "uint256"
                },
                {
                  "internalType": "uint256",
                  "name": "currency",
                  "type": "uint256"
                }
              ],
              "internalType": "struct JBTokenAmount",
              "name": "forwardedAmount",
              "type": "tuple"
            },
            {
              "internalType": "uint256",
              "name": "projectTokenCount",
              "type": "uint256"
            },
            {
              "internalType": "address",
              "name": "beneficiary",
              "type": "address"
            },
            {
              "internalType": "bool",
              "name": "preferClaimedTokens",
              "type": "bool"
            },
            {
              "internalType": "string",
              "name": "memo",
              "type": "string"
            },
            {
              "internalType": "bytes",
              "name": "metadata",
              "type": "bytes"
            }
          ],
          "internalType": "struct JBDidPayData",
          "name": "_data",
          "type": "tuple"
        }
      ],
      "name": "didPay",
      "outputs": [],
      "stateMutability": "payable",
      "type": "function"
    },
    {
      "inputs": [
        {
          "components": [
            {
              "internalType": "address",
              "name": "holder",
              "type": "address"
            },
            {
              "internalType": "uint256",
              "name": "projectId",
              "type": "uint256"
            },
            {
              "internalType": "uint256",
              "name": "currentFundingCycleConfiguration",
              "type": "uint256"
            },
            {
              "internalType": "uint256",
              "name": "projectTokenCount",
              "type": "uint256"
            },
            {
              "components": [
                {
                  "internalType": "address",
                  "name": "token",
                  "type": "address"
                },
                {
                  "internalType": "uint256",
                  "name": "value",
                  "type": "uint256"
                },
                {
                  "internalType": "uint256",
                  "name": "decimals",
                  "type": "uint256"
                },
                {
                  "internalType": "uint256",
                  "name": "currency",
                  "type": "uint256"
                }
              ],
              "internalType": "struct JBTokenAmount",
              "name": "reclaimedAmount",
              "type": "tuple"
            },
            {
              "components": [
                {
                  "internalType": "address",
                  "name": "token",
                  "type": "address"
                },
                {
                  "internalType": "uint256",
                  "name": "value",
                  "type": "uint256"
                },
                {
                  "internalType": "uint256",
                  "name": "decimals",
                  "type": "uint256"
                },
                {
                  "internalType": "uint256",
                  "name": "currency",
                  "type": "uint256"
                }
              ],
              "internalType": "struct JBTokenAmount",
              "name": "forwardedAmount",
              "type": "tuple"
            },
            {
              "internalType": "address payable",
              "name": "beneficiary",
              "type": "address"
            },
            {
              "internalType": "string",
              "name": "memo",
              "type": "string"
            },
            {
              "internalType": "bytes",
              "name": "metadata",
              "type": "bytes"
            }
          ],
          "internalType": "struct JBDidRedeemData",
          "name": "_data",
          "type": "tuple"
        }
      ],
      "name": "didRedeem",
      "outputs": [],
      "stateMutability": "payable",
      "type": "function"
    },
    {
      "inputs": [],
      "name": "directory",
      "outputs": [
        {
          "internalType": "contract IJBDirectory",
          "name": "",
          "type": "address"
        }
      ],
      "stateMutability": "view",
      "type": "function"
    },
    {
      "inputs": [
        {
          "internalType": "uint256",
          "name": "_tokenId",
          "type": "uint256"
        }
      ],
      "name": "firstOwnerOf",
      "outputs": [
        {
          "internalType": "address",
          "name": "",
          "type": "address"
        }
      ],
      "stateMutability": "view",
      "type": "function"
    },
    {
      "inputs": [],
      "name": "fundingCycleStore",
      "outputs": [
        {
          "internalType": "contract IJBFundingCycleStore",
          "name": "",
          "type": "address"
        }
      ],
      "stateMutability": "view",
      "type": "function"
    },
    {
      "inputs": [
        {
          "internalType": "uint256",
          "name": "tokenId",
          "type": "uint256"
        }
      ],
      "name": "getApproved",
      "outputs": [
        {
          "internalType": "address",
          "name": "",
          "type": "address"
        }
      ],
      "stateMutability": "view",
      "type": "function"
    },
    {
      "inputs": [
        {
          "internalType": "uint256",
          "name": "_tier",
          "type": "uint256"
        },
        {
          "internalType": "uint256",
          "name": "_blockNumber",
          "type": "uint256"
        }
      ],
      "name": "getPastTierTotalVotes",
      "outputs": [
        {
          "internalType": "uint256",
          "name": "",
          "type": "uint256"
        }
      ],
      "stateMutability": "view",
      "type": "function"
    },
    {
      "inputs": [
        {
          "internalType": "address",
          "name": "_account",
          "type": "address"
        },
        {
          "internalType": "uint256",
          "name": "_tier",
          "type": "uint256"
        },
        {
          "internalType": "uint256",
          "name": "_blockNumber",
          "type": "uint256"
        }
      ],
      "name": "getPastTierVotes",
      "outputs": [
        {
          "internalType": "uint256",
          "name": "",
          "type": "uint256"
        }
      ],
      "stateMutability": "view",
      "type": "function"
    },
    {
      "inputs": [
        {
          "internalType": "address",
          "name": "_account",
          "type": "address"
        },
        {
          "internalType": "uint256",
          "name": "_tier",
          "type": "uint256"
        }
      ],
      "name": "getTierDelegate",
      "outputs": [
        {
          "internalType": "address",
          "name": "",
          "type": "address"
        }
      ],
      "stateMutability": "view",
      "type": "function"
    },
    {
      "inputs": [
        {
          "internalType": "uint256",
          "name": "_tier",
          "type": "uint256"
        }
      ],
      "name": "getTierTotalVotes",
      "outputs": [
        {
          "internalType": "uint256",
          "name": "",
          "type": "uint256"
        }
      ],
      "stateMutability": "view",
      "type": "function"
    },
    {
      "inputs": [
        {
          "internalType": "address",
          "name": "_account",
          "type": "address"
        },
        {
          "internalType": "uint256",
          "name": "_tier",
          "type": "uint256"
        }
      ],
      "name": "getTierVotes",
      "outputs": [
        {
          "internalType": "uint256",
          "name": "",
          "type": "uint256"
        }
      ],
      "stateMutability": "view",
      "type": "function"
    },
    {
      "inputs": [
        {
          "internalType": "uint256",
          "name": "_projectId",
          "type": "uint256"
        },
        {
          "internalType": "contract IJBDirectory",
          "name": "_directory",
          "type": "address"
        },
        {
          "internalType": "string",
          "name": "_name",
          "type": "string"
        },
        {
          "internalType": "string",
          "name": "_symbol",
          "type": "string"
        },
        {
          "internalType": "contract IJBFundingCycleStore",
          "name": "_fundingCycleStore",
          "type": "address"
        },
        {
          "internalType": "string",
          "name": "_baseUri",
          "type": "string"
        },
        {
          "internalType": "contract IJBTokenUriResolver",
          "name": "_tokenUriResolver",
          "type": "address"
        },
        {
          "internalType": "string",
          "name": "_contractUri",
          "type": "string"
        },
        {
          "components": [
            {
              "components": [
                {
                  "internalType": "uint80",
                  "name": "contributionFloor",
                  "type": "uint80"
                },
                {
                  "internalType": "uint48",
                  "name": "lockedUntil",
                  "type": "uint48"
                },
                {
                  "internalType": "uint40",
                  "name": "initialQuantity",
                  "type": "uint40"
                },
                {
                  "internalType": "uint16",
                  "name": "votingUnits",
                  "type": "uint16"
                },
                {
                  "internalType": "uint16",
                  "name": "reservedRate",
                  "type": "uint16"
                },
                {
                  "internalType": "address",
                  "name": "reservedTokenBeneficiary",
                  "type": "address"
                },
                {
                  "internalType": "uint8",
                  "name": "royaltyRate",
                  "type": "uint8"
                },
                {
                  "internalType": "address",
                  "name": "royaltyBeneficiary",
                  "type": "address"
                },
                {
                  "internalType": "bytes32",
                  "name": "encodedIPFSUri",
                  "type": "bytes32"
                },
                {
                  "internalType": "uint8",
                  "name": "category",
                  "type": "uint8"
                },
                {
                  "internalType": "bool",
                  "name": "allowManualMint",
                  "type": "bool"
                },
                {
                  "internalType": "bool",
                  "name": "shouldUseReservedTokenBeneficiaryAsDefault",
                  "type": "bool"
                },
                {
                  "internalType": "bool",
                  "name": "shouldUseRoyaltyBeneficiaryAsDefault",
                  "type": "bool"
                },
                {
                  "internalType": "bool",
                  "name": "transfersPausable",
                  "type": "bool"
                }
              ],
              "internalType": "struct JB721TierParams[]",
              "name": "tiers",
              "type": "tuple[]"
            },
            {
              "internalType": "uint256",
              "name": "currency",
              "type": "uint256"
            },
            {
              "internalType": "uint256",
              "name": "decimals",
              "type": "uint256"
            },
            {
              "internalType": "contract IJBPrices",
              "name": "prices",
              "type": "address"
            }
          ],
          "internalType": "struct JB721PricingParams",
          "name": "_pricing",
          "type": "tuple"
        },
        {
          "internalType": "contract IJBTiered721DelegateStore",
          "name": "_store",
          "type": "address"
        },
        {
          "components": [
            {
              "internalType": "bool",
              "name": "lockReservedTokenChanges",
              "type": "bool"
            },
            {
              "internalType": "bool",
              "name": "lockVotingUnitChanges",
              "type": "bool"
            },
            {
              "internalType": "bool",
              "name": "lockManualMintingChanges",
              "type": "bool"
            },
            {
              "internalType": "bool",
              "name": "preventOverspending",
              "type": "bool"
            }
          ],
          "internalType": "struct JBTiered721Flags",
          "name": "_flags",
          "type": "tuple"
        }
      ],
      "name": "initialize",
      "outputs": [],
      "stateMutability": "nonpayable",
      "type": "function"
    },
    {
      "inputs": [
        {
          "internalType": "address",
          "name": "owner",
          "type": "address"
        },
        {
          "internalType": "address",
          "name": "operator",
          "type": "address"
        }
      ],
      "name": "isApprovedForAll",
      "outputs": [
        {
          "internalType": "bool",
          "name": "",
          "type": "bool"
        }
      ],
      "stateMutability": "view",
      "type": "function"
    },
    {
      "inputs": [
        {
          "components": [
            {
              "internalType": "uint16[]",
              "name": "tierIds",
              "type": "uint16[]"
            },
            {
              "internalType": "address",
              "name": "beneficiary",
              "type": "address"
            }
          ],
          "internalType": "struct JBTiered721MintForTiersData[]",
          "name": "_mintForTiersData",
          "type": "tuple[]"
        }
      ],
      "name": "mintFor",
      "outputs": [],
      "stateMutability": "nonpayable",
      "type": "function"
    },
    {
      "inputs": [
        {
          "internalType": "uint16[]",
          "name": "_tierIds",
          "type": "uint16[]"
        },
        {
          "internalType": "address",
          "name": "_beneficiary",
          "type": "address"
        }
      ],
      "name": "mintFor",
      "outputs": [
        {
          "internalType": "uint256[]",
          "name": "tokenIds",
          "type": "uint256[]"
        }
      ],
      "stateMutability": "nonpayable",
      "type": "function"
    },
    {
      "inputs": [
        {
          "components": [
            {
              "internalType": "uint256",
              "name": "tierId",
              "type": "uint256"
            },
            {
              "internalType": "uint256",
              "name": "count",
              "type": "uint256"
            }
          ],
          "internalType": "struct JBTiered721MintReservesForTiersData[]",
          "name": "_mintReservesForTiersData",
          "type": "tuple[]"
        }
      ],
      "name": "mintReservesFor",
      "outputs": [],
      "stateMutability": "nonpayable",
      "type": "function"
    },
    {
      "inputs": [
        {
          "internalType": "uint256",
          "name": "_tierId",
          "type": "uint256"
        },
        {
          "internalType": "uint256",
          "name": "_count",
          "type": "uint256"
        }
      ],
      "name": "mintReservesFor",
      "outputs": [],
      "stateMutability": "nonpayable",
      "type": "function"
    },
    {
      "inputs": [],
      "name": "name",
      "outputs": [
        {
          "internalType": "string",
          "name": "",
          "type": "string"
        }
      ],
      "stateMutability": "view",
      "type": "function"
    },
    {
      "inputs": [],
      "name": "owner",
      "outputs": [
        {
          "internalType": "address",
          "name": "",
          "type": "address"
        }
      ],
      "stateMutability": "view",
      "type": "function"
    },
    {
      "inputs": [
        {
          "internalType": "uint256",
          "name": "tokenId",
          "type": "uint256"
        }
      ],
      "name": "ownerOf",
      "outputs": [
        {
          "internalType": "address",
          "name": "",
          "type": "address"
        }
      ],
      "stateMutability": "view",
      "type": "function"
    },
    {
      "inputs": [
        {
          "components": [
            {
              "internalType": "contract IJBPaymentTerminal",
              "name": "terminal",
              "type": "address"
            },
            {
              "internalType": "address",
              "name": "payer",
              "type": "address"
            },
            {
              "components": [
                {
                  "internalType": "address",
                  "name": "token",
                  "type": "address"
                },
                {
                  "internalType": "uint256",
                  "name": "value",
                  "type": "uint256"
                },
                {
                  "internalType": "uint256",
                  "name": "decimals",
                  "type": "uint256"
                },
                {
                  "internalType": "uint256",
                  "name": "currency",
                  "type": "uint256"
                }
              ],
              "internalType": "struct JBTokenAmount",
              "name": "amount",
              "type": "tuple"
            },
            {
              "internalType": "uint256",
              "name": "projectId",
              "type": "uint256"
            },
            {
              "internalType": "uint256",
              "name": "currentFundingCycleConfiguration",
              "type": "uint256"
            },
            {
              "internalType": "address",
              "name": "beneficiary",
              "type": "address"
            },
            {
              "internalType": "uint256",
              "name": "weight",
              "type": "uint256"
            },
            {
              "internalType": "uint256",
              "name": "reservedRate",
              "type": "uint256"
            },
            {
              "internalType": "string",
              "name": "memo",
              "type": "string"
            },
            {
              "internalType": "bytes",
              "name": "metadata",
              "type": "bytes"
            }
          ],
          "internalType": "struct JBPayParamsData",
          "name": "_data",
          "type": "tuple"
        }
      ],
      "name": "payParams",
      "outputs": [
        {
          "internalType": "uint256",
          "name": "weight",
          "type": "uint256"
        },
        {
          "internalType": "string",
          "name": "memo",
          "type": "string"
        },
        {
          "components": [
            {
              "internalType": "contract IJBPayDelegate",
              "name": "delegate",
              "type": "address"
            },
            {
              "internalType": "uint256",
              "name": "amount",
              "type": "uint256"
            }
          ],
          "internalType": "struct JBPayDelegateAllocation[]",
          "name": "delegateAllocations",
          "type": "tuple[]"
        }
      ],
      "stateMutability": "view",
      "type": "function"
    },
    {
      "inputs": [],
      "name": "prices",
      "outputs": [
        {
          "internalType": "contract IJBPrices",
          "name": "",
          "type": "address"
        }
      ],
      "stateMutability": "view",
      "type": "function"
    },
    {
      "inputs": [],
      "name": "pricingCurrency",
      "outputs": [
        {
          "internalType": "uint256",
          "name": "",
          "type": "uint256"
        }
      ],
      "stateMutability": "view",
      "type": "function"
    },
    {
      "inputs": [],
      "name": "pricingDecimals",
      "outputs": [
        {
          "internalType": "uint256",
          "name": "",
          "type": "uint256"
        }
      ],
      "stateMutability": "view",
      "type": "function"
    },
    {
      "inputs": [],
      "name": "projectId",
      "outputs": [
        {
          "internalType": "uint256",
          "name": "",
          "type": "uint256"
        }
      ],
      "stateMutability": "view",
      "type": "function"
    },
    {
      "inputs": [
        {
          "components": [
            {
              "internalType": "contract IJBPaymentTerminal",
              "name": "terminal",
              "type": "address"
            },
            {
              "internalType": "address",
              "name": "holder",
              "type": "address"
            },
            {
              "internalType": "uint256",
              "name": "projectId",
              "type": "uint256"
            },
            {
              "internalType": "uint256",
              "name": "currentFundingCycleConfiguration",
              "type": "uint256"
            },
            {
              "internalType": "uint256",
              "name": "tokenCount",
              "type": "uint256"
            },
            {
              "internalType": "uint256",
              "name": "totalSupply",
              "type": "uint256"
            },
            {
              "internalType": "uint256",
              "name": "overflow",
              "type": "uint256"
            },
            {
              "components": [
                {
                  "internalType": "address",
                  "name": "token",
                  "type": "address"
                },
                {
                  "internalType": "uint256",
                  "name": "value",
                  "type": "uint256"
                },
                {
                  "internalType": "uint256",
                  "name": "decimals",
                  "type": "uint256"
                },
                {
                  "internalType": "uint256",
                  "name": "currency",
                  "type": "uint256"
                }
              ],
              "internalType": "struct JBTokenAmount",
              "name": "reclaimAmount",
              "type": "tuple"
            },
            {
              "internalType": "bool",
              "name": "useTotalOverflow",
              "type": "bool"
            },
            {
              "internalType": "uint256",
              "name": "redemptionRate",
              "type": "uint256"
            },
            {
              "internalType": "string",
              "name": "memo",
              "type": "string"
            },
            {
              "internalType": "bytes",
              "name": "metadata",
              "type": "bytes"
            }
          ],
          "internalType": "struct JBRedeemParamsData",
          "name": "_data",
          "type": "tuple"
        }
      ],
      "name": "redeemParams",
      "outputs": [
        {
          "internalType": "uint256",
          "name": "reclaimAmount",
          "type": "uint256"
        },
        {
          "internalType": "string",
          "name": "memo",
          "type": "string"
        },
        {
          "components": [
            {
              "internalType": "contract IJBRedemptionDelegate",
              "name": "delegate",
              "type": "address"
            },
            {
              "internalType": "uint256",
              "name": "amount",
              "type": "uint256"
            }
          ],
          "internalType": "struct JBRedemptionDelegateAllocation[]",
          "name": "delegateAllocations",
          "type": "tuple[]"
        }
      ],
      "stateMutability": "view",
      "type": "function"
    },
    {
      "inputs": [
        {
          "internalType": "uint256[]",
          "name": "_tokenIds",
          "type": "uint256[]"
        },
        {
          "components": [
            {
              "internalType": "contract IJBPaymentTerminal",
              "name": "terminal",
              "type": "address"
            },
            {
              "internalType": "address",
              "name": "holder",
              "type": "address"
            },
            {
              "internalType": "uint256",
              "name": "projectId",
              "type": "uint256"
            },
            {
              "internalType": "uint256",
              "name": "currentFundingCycleConfiguration",
              "type": "uint256"
            },
            {
              "internalType": "uint256",
              "name": "tokenCount",
              "type": "uint256"
            },
            {
              "internalType": "uint256",
              "name": "totalSupply",
              "type": "uint256"
            },
            {
              "internalType": "uint256",
              "name": "overflow",
              "type": "uint256"
            },
            {
              "components": [
                {
                  "internalType": "address",
                  "name": "token",
                  "type": "address"
                },
                {
                  "internalType": "uint256",
                  "name": "value",
                  "type": "uint256"
                },
                {
                  "internalType": "uint256",
                  "name": "decimals",
                  "type": "uint256"
                },
                {
                  "internalType": "uint256",
                  "name": "currency",
                  "type": "uint256"
                }
              ],
              "internalType": "struct JBTokenAmount",
              "name": "reclaimAmount",
              "type": "tuple"
            },
            {
              "internalType": "bool",
              "name": "useTotalOverflow",
              "type": "bool"
            },
            {
              "internalType": "uint256",
              "name": "redemptionRate",
              "type": "uint256"
            },
            {
              "internalType": "string",
              "name": "memo",
              "type": "string"
            },
            {
              "internalType": "bytes",
              "name": "metadata",
              "type": "bytes"
            }
          ],
          "internalType": "struct JBRedeemParamsData",
          "name": "",
          "type": "tuple"
        }
      ],
      "name": "redemptionWeightOf",
      "outputs": [
        {
          "internalType": "uint256",
          "name": "",
          "type": "uint256"
        }
      ],
      "stateMutability": "view",
      "type": "function"
    },
    {
      "inputs": [],
      "name": "renounceOwnership",
      "outputs": [],
      "stateMutability": "nonpayable",
      "type": "function"
    },
    {
      "inputs": [
        {
          "internalType": "uint256",
          "name": "_tokenId",
          "type": "uint256"
        },
        {
          "internalType": "uint256",
          "name": "_salePrice",
          "type": "uint256"
        }
      ],
      "name": "royaltyInfo",
      "outputs": [
        {
          "internalType": "address",
          "name": "",
          "type": "address"
        },
        {
          "internalType": "uint256",
          "name": "",
          "type": "uint256"
        }
      ],
      "stateMutability": "view",
      "type": "function"
    },
    {
      "inputs": [
        {
          "internalType": "address",
          "name": "from",
          "type": "address"
        },
        {
          "internalType": "address",
          "name": "to",
          "type": "address"
        },
        {
          "internalType": "uint256",
          "name": "tokenId",
          "type": "uint256"
        }
      ],
      "name": "safeTransferFrom",
      "outputs": [],
      "stateMutability": "nonpayable",
      "type": "function"
    },
    {
      "inputs": [
        {
          "internalType": "address",
          "name": "from",
          "type": "address"
        },
        {
          "internalType": "address",
          "name": "to",
          "type": "address"
        },
        {
          "internalType": "uint256",
          "name": "tokenId",
          "type": "uint256"
        },
        {
          "internalType": "bytes",
          "name": "data",
          "type": "bytes"
        }
      ],
      "name": "safeTransferFrom",
      "outputs": [],
      "stateMutability": "nonpayable",
      "type": "function"
    },
    {
      "inputs": [
        {
          "internalType": "address",
          "name": "operator",
          "type": "address"
        },
        {
          "internalType": "bool",
          "name": "approved",
          "type": "bool"
        }
      ],
      "name": "setApprovalForAll",
      "outputs": [],
      "stateMutability": "nonpayable",
      "type": "function"
    },
    {
      "inputs": [
        {
          "internalType": "string",
          "name": "_baseUri",
          "type": "string"
        }
      ],
      "name": "setBaseUri",
      "outputs": [],
      "stateMutability": "nonpayable",
      "type": "function"
    },
    {
      "inputs": [
        {
          "internalType": "string",
          "name": "_contractUri",
          "type": "string"
        }
      ],
      "name": "setContractUri",
      "outputs": [],
      "stateMutability": "nonpayable",
      "type": "function"
    },
    {
      "inputs": [
        {
          "internalType": "address",
          "name": "_beneficiary",
          "type": "address"
        }
      ],
      "name": "setDefaultReservedTokenBeneficiary",
      "outputs": [],
      "stateMutability": "nonpayable",
      "type": "function"
    },
    {
      "inputs": [
        {
          "internalType": "uint256",
          "name": "_tierId",
          "type": "uint256"
        },
        {
          "internalType": "bytes32",
          "name": "_encodedIPFSUri",
          "type": "bytes32"
        }
      ],
      "name": "setEncodedIPFSUriOf",
      "outputs": [],
      "stateMutability": "nonpayable",
      "type": "function"
    },
    {
      "inputs": [
        {
          "internalType": "address",
          "name": "_delegatee",
          "type": "address"
        },
        {
          "internalType": "uint256",
          "name": "_tierId",
          "type": "uint256"
        }
      ],
      "name": "setTierDelegate",
      "outputs": [],
      "stateMutability": "nonpayable",
      "type": "function"
    },
    {
      "inputs": [
        {
          "components": [
            {
              "internalType": "address",
              "name": "delegatee",
              "type": "address"
            },
            {
              "internalType": "uint256",
              "name": "tierId",
              "type": "uint256"
            }
          ],
          "internalType": "struct JBTiered721SetTierDelegatesData[]",
          "name": "_setTierDelegatesData",
          "type": "tuple[]"
        }
      ],
      "name": "setTierDelegates",
      "outputs": [],
      "stateMutability": "nonpayable",
      "type": "function"
    },
    {
      "inputs": [
        {
          "internalType": "contract IJBTokenUriResolver",
          "name": "_tokenUriResolver",
          "type": "address"
        }
      ],
      "name": "setTokenUriResolver",
      "outputs": [],
      "stateMutability": "nonpayable",
      "type": "function"
    },
    {
      "inputs": [],
      "name": "store",
      "outputs": [
        {
          "internalType": "contract IJBTiered721DelegateStore",
          "name": "",
          "type": "address"
        }
      ],
      "stateMutability": "view",
      "type": "function"
    },
    {
      "inputs": [
        {
          "internalType": "bytes4",
          "name": "_interfaceId",
          "type": "bytes4"
        }
      ],
      "name": "supportsInterface",
      "outputs": [
        {
          "internalType": "bool",
          "name": "",
          "type": "bool"
        }
      ],
      "stateMutability": "view",
      "type": "function"
    },
    {
      "inputs": [],
      "name": "symbol",
      "outputs": [
        {
          "internalType": "string",
          "name": "",
          "type": "string"
        }
      ],
      "stateMutability": "view",
      "type": "function"
    },
    {
      "inputs": [
        {
          "internalType": "uint256",
          "name": "_tokenId",
          "type": "uint256"
        }
      ],
      "name": "tokenURI",
      "outputs": [
        {
          "internalType": "string",
          "name": "",
          "type": "string"
        }
      ],
      "stateMutability": "view",
      "type": "function"
    },
    {
      "inputs": [
        {
          "components": [
            {
              "internalType": "contract IJBPaymentTerminal",
              "name": "terminal",
              "type": "address"
            },
            {
              "internalType": "address",
              "name": "holder",
              "type": "address"
            },
            {
              "internalType": "uint256",
              "name": "projectId",
              "type": "uint256"
            },
            {
              "internalType": "uint256",
              "name": "currentFundingCycleConfiguration",
              "type": "uint256"
            },
            {
              "internalType": "uint256",
              "name": "tokenCount",
              "type": "uint256"
            },
            {
              "internalType": "uint256",
              "name": "totalSupply",
              "type": "uint256"
            },
            {
              "internalType": "uint256",
              "name": "overflow",
              "type": "uint256"
            },
            {
              "components": [
                {
                  "internalType": "address",
                  "name": "token",
                  "type": "address"
                },
                {
                  "internalType": "uint256",
                  "name": "value",
                  "type": "uint256"
                },
                {
                  "internalType": "uint256",
                  "name": "decimals",
                  "type": "uint256"
                },
                {
                  "internalType": "uint256",
                  "name": "currency",
                  "type": "uint256"
                }
              ],
              "internalType": "struct JBTokenAmount",
              "name": "reclaimAmount",
              "type": "tuple"
            },
            {
              "internalType": "bool",
              "name": "useTotalOverflow",
              "type": "bool"
            },
            {
              "internalType": "uint256",
              "name": "redemptionRate",
              "type": "uint256"
            },
            {
              "internalType": "string",
              "name": "memo",
              "type": "string"
            },
            {
              "internalType": "bytes",
              "name": "metadata",
              "type": "bytes"
            }
          ],
          "internalType": "struct JBRedeemParamsData",
          "name": "",
          "type": "tuple"
        }
      ],
      "name": "totalRedemptionWeight",
      "outputs": [
        {
          "internalType": "uint256",
          "name": "",
          "type": "uint256"
        }
      ],
      "stateMutability": "view",
      "type": "function"
    },
    {
      "inputs": [
        {
          "internalType": "address",
          "name": "from",
          "type": "address"
        },
        {
          "internalType": "address",
          "name": "to",
          "type": "address"
        },
        {
          "internalType": "uint256",
          "name": "tokenId",
          "type": "uint256"
        }
      ],
      "name": "transferFrom",
      "outputs": [],
      "stateMutability": "nonpayable",
      "type": "function"
    },
    {
      "inputs": [
        {
          "internalType": "address",
          "name": "newOwner",
          "type": "address"
        }
      ],
      "name": "transferOwnership",
      "outputs": [],
      "stateMutability": "nonpayable",
      "type": "function"
    }
  ],
  "bytecode": {
    "object": "0x60806040523480156200001157600080fd5b506200001d3362000035565b600880546001600160a01b0319163017905562000087565b600780546001600160a01b038381166001600160a01b0319831681179093556040519116919082907f8be0079c531659141344cd1fd0a4f28419497f9722a3daafe3b4186f6b6457e090600090a35050565b615c0f80620000976000396000f3fe6080604052600436106102ff5760003560e01c80638da5cb5b11610190578063c87b56dd116100dc578063d40e714611610095578063df487e261161006f578063df487e261461095e578063e8a3d4851461097e578063e985e9c514610993578063f2fde38b146109dc57600080fd5b8063d40e71461461090b578063d46cf1711461092b578063da9ee8b71461094b57600080fd5b8063c87b56dd1461084b578063ca323efe1461086b578063ccb4807b1461088b578063d1704baf146108ab578063d31cc52c146108cb578063d3419bf3146108eb57600080fd5b8063a22cb46511610149578063ab951e3911610123578063ab951e39146107cb578063b88d4fde146107eb578063c41c2f241461080b578063c74b13d91461082b57600080fd5b8063a22cb4651461075c578063a51cfd181461077c578063aa4fb15b146107ab57600080fd5b80638da5cb5b146106a95780639494bf72146106c757806394c5c5ca146106e757806395d89b4114610707578063975057e71461071c578063a0bcfc7f1461073c57600080fd5b80633fafa1271161024f5780636352211e1161020857806370a08231116101e257806370a0823114610611578063715018a6146106315780637ba62bf91461064657806382732b6d1461066657600080fd5b80636352211e146105ae57806364640c1e146105ce5780636ac6d941146105e457600080fd5b80633fafa1271461050257806342842e0e146105185780634ecba62514610538578063525350ba1461054e57806354c6d1f51461056e578063557e71551461058e57600080fd5b80632407497e116102bc5780632a55205a116102965780632a55205a146104705780632a596e53146104af5780632b13c58f146104cf57806336c1a93b146104e257600080fd5b80632407497e146103f5578063245a45b51461041557806325eb91ee1461045057600080fd5b806301ffc9a71461030457806306fdde0314610339578063081812fc1461035b578063095ea7b3146103935780631d153ca4146103b557806323b872dd146103d5575b600080fd5b34801561031057600080fd5b5061032461031f366004614118565b6109fc565b60405190151581526020015b60405180910390f35b34801561034557600080fd5b5061034e610a27565b6040516103309190614185565b34801561036757600080fd5b5061037b610376366004614198565b610ab9565b6040516001600160a01b039091168152602001610330565b34801561039f57600080fd5b506103b36103ae3660046141d6565b610ae0565b005b3480156103c157600080fd5b5060085461037b906001600160a01b031681565b3480156103e157600080fd5b506103b36103f0366004614202565b610b6c565b34801561040157600080fd5b506103b3610410366004614243565b610b9e565b34801561042157600080fd5b50610442610430366004614243565b600e6020526000908152604090205481565b604051908152602001610330565b34801561045c57600080fd5b506103b361046b3660046142a4565b610c47565b34801561047c57600080fd5b5061049061048b36600461433e565b610e2a565b604080516001600160a01b039093168352602083019190915201610330565b3480156104bb57600080fd5b506103b36104ca366004614360565b610eb4565b6103b36104dd3660046143ed565b610f0d565b3480156104ee57600080fd5b506103b36104fd366004614421565b6110e7565b34801561050e57600080fd5b5061044260055481565b34801561052457600080fd5b506103b3610533366004614202565b611149565b34801561054457600080fd5b50610442600d5481565b34801561055a57600080fd5b506103b361056936600461433e565b611164565b34801561057a57600080fd5b5061037b610589366004614198565b611210565b34801561059a57600080fd5b50600a5461037b906001600160a01b031681565b3480156105ba57600080fd5b5061037b6105c9366004614198565b6112bc565b3480156105da57600080fd5b50610442600c5481565b3480156105f057600080fd5b506106046105ff366004614462565b6112f2565b60405161033091906144f3565b34801561061d57600080fd5b5061044261062c366004614243565b611438565b34801561063d57600080fd5b506103b36114ae565b34801561065257600080fd5b5061044261066136600461466a565b6114c2565b34801561067257600080fd5b5061037b6106813660046141d6565b6001600160a01b039182166000908152600f6020908152604080832093835292905220541690565b3480156106b557600080fd5b506007546001600160a01b031661037b565b3480156106d357600080fd5b506104426106e23660046143ed565b61153d565b3480156106f357600080fd5b50610442610702366004614198565b61156e565b34801561071357600080fd5b5061034e611594565b34801561072857600080fd5b5060095461037b906001600160a01b031681565b34801561074857600080fd5b506103b36107573660046146cd565b6115a3565b34801561076857600080fd5b506103b3610777366004614745565b611656565b34801561078857600080fd5b5061079c6107973660046143ed565b611665565b6040516103309392919061477e565b3480156107b757600080fd5b506103b36107c636600461433e565b6118c4565b3480156107d757600080fd5b506103b36107e63660046141d6565b611ae1565b3480156107f757600080fd5b506103b3610806366004614850565b611aec565b34801561081757600080fd5b5060065461037b906001600160a01b031681565b34801561083757600080fd5b506103b36108463660046148cf565b611b1f565b34801561085757600080fd5b5061034e610866366004614198565b611ba3565b34801561087757600080fd5b506104426108863660046141d6565b611d7d565b34801561089757600080fd5b506103b36108a63660046146cd565b611db9565b3480156108b757600080fd5b506103b36108c6366004614c2d565b611e6c565b3480156108d757600080fd5b506104426108e636600461433e565b61216a565b3480156108f757600080fd5b50600b5461037b906001600160a01b031681565b34801561091757600080fd5b50610442610926366004614d66565b612182565b34801561093757600080fd5b5061079c610946366004614d9b565b6121b7565b6103b3610959366004614dd6565b61229a565b34801561096a57600080fd5b506103b3610979366004614243565b612351565b34801561098a57600080fd5b5061034e6123f3565b34801561099f57600080fd5b506103246109ae366004614e11565b6001600160a01b03918216600090815260046020908152604080832093909416825291909152205460ff1690565b3480156109e857600080fd5b506103b36109f7366004614243565b612469565b60006001600160e01b031982166306decc2d60e21b1480610a215750610a21826124e7565b92915050565b606060008054610a3690614e3f565b80601f0160208091040260200160405190810160405280929190818152602001828054610a6290614e3f565b8015610aaf5780601f10610a8457610100808354040283529160200191610aaf565b820191906000526020600020905b815481529060010190602001808311610a9257829003601f168201915b5050505050905090565b6000610ac482612578565b506000908152600360205260409020546001600160a01b031690565b6000610aeb826112bc565b9050806001600160a01b0316836001600160a01b031603610b1f5760405163133f8be960e01b815260040160405180910390fd5b336001600160a01b03821614801590610b3f5750610b3d81336109ae565b155b15610b5d5760405163e5fa0e3560e01b815260040160405180910390fd5b610b6783836125ad565b505050565b610b76338261261b565b610b935760405163e5fa0e3560e01b815260040160405180910390fd5b610b67838383612699565b610ba6612772565b60095460405163036129cb60e61b81526001600160a01b0383811660048301529091169063d84a72c090602401600060405180830381600087803b158015610bed57600080fd5b505af1158015610c01573d6000803e3d6000fd5b50506040513381526001600160a01b03841692507fe7784d93cfbfa4408e19577e6cc0436f4dbb51214b70e100905dfce9def88c1691506020015b60405180910390a250565b610c4f612772565b82818015610d1f576009546040516320512ba160e01b81526001600160a01b03909116906320512ba190610c899087908790600401614e73565b600060405180830381600087803b158015610ca357600080fd5b505af1158015610cb7573d6000803e3d6000fd5b5050505060005b81811015610d1d57848482818110610cd857610cd8614eac565b60405133815260209182029390930135927f832d89d991be5351d793c20faf4b7dd44f8aa9ce39e3cb160c6317de6fbba72992500160405180910390a2600101610cbe565b505b8115610e225760095460405163229dad5f60e11b81526000916001600160a01b03169063453b5abe90610d58908a908a90600401614ff8565b6000604051808303816000875af1158015610d77573d6000803e3d6000fd5b505050506040513d6000823e601f3d908101601f19168201604052610d9f9190810190615096565b905060005b83811015610e1f57818181518110610dbe57610dbe614eac565b60200260200101517f8aa4a03deb8db10032373886aa0376c918ccf36bcdb59ca4da2a807ac7ff1a04898984818110610df957610df9614eac565b90506101c0020133604051610e0f9291906150ca565b60405180910390a2600101610da4565b50505b505050505050565b6009546040516329c5eaf560e11b8152306004820152602481018490526044810183905260009182916001600160a01b039091169063538bd5ea906064016040805180830381865afa158015610e84573d6000803e3d6000fd5b505050506040513d601f19601f82011682018060405250810190610ea891906150fd565b915091505b9250929050565b8060005b81811015610f07576000848483818110610ed457610ed4614eac565b905060400201803603810190610eea919061512b565b9050610efe816000015182602001516118c4565b50600101610eb8565b50505050565b34151580610f8f5750600654600554604051636e49181f60e01b815260048101919091523360248201526001600160a01b0390911690636e49181f90604401602060405180830381865afa158015610f69573d6000803e3d6000fd5b505050506040513d601f19601f82011682018060405250810190610f8d9190615168565b155b80610fa05750600554816020013514155b15610fbe57604051633efca5c360e11b815260040160405180910390fd5b6024610fce6101c0830183615185565b90501080611012575063b3bcbb7960e01b610fed6101c0830183615185565b610ffc916024916020916151cb565b611005916151f5565b6001600160e01b03191614155b1561103057604051632a84050f60e01b815260040160405180910390fd5b60006110406101c0830183615185565b81019061104d9190615225565b925050506000815190506000805b828110156110dd5783818151811061107557611075614eac565b602002602001015191508460000160208101906110929190614243565b6000838152600260205260409020546001600160a01b039081169116146110cc5760405163075fd2b160e01b815260040160405180910390fd5b6110d5826127cc565b60010161105b565b50610f078361284d565b6110ef612772565b8060005b81811015610f07573684848381811061110e5761110e614eac565b9050602002810190611120919061527d565b905061113f61112f828061529d565b6105ff6040850160208601614243565b50506001016110f3565b610b6783838360405180602001604052806000815250611aec565b61116c612772565b6009546040516324de8d6360e11b815260048101849052602481018390526001600160a01b03909116906349bd1ac690604401600060405180830381600087803b1580156111b957600080fd5b505af11580156111cd573d6000803e3d6000fd5b5050604080518481523360208201528593507f677da4fed654db8e604791fa2582f342e2001aa217e27f6985eb3e0f67e5a7fc9250015b60405180910390a25050565b6009546040516308ed6c0160e41b81523060048201526024810183905260009182916001600160a01b0390911690638ed6c01090604401602060405180830381865afa158015611264573d6000803e3d6000fd5b505050506040513d601f19601f8201168201806040525081019061128891906152e6565b90506001600160a01b0381161561129f5792915050565b50506000908152600260205260409020546001600160a01b031690565b6000818152600260205260408120546001600160a01b031680610a215760405163b49aa3b560e01b815260040160405180910390fd5b60606112fc612772565b60095460405163eaa19ab360e01b81526001600160a01b039091169063eaa19ab390611335906000199088908890600190600401615303565b6000604051808303816000875af1158015611354573d6000803e3d6000fd5b505050506040513d6000823e601f3d908101601f1916820160405261137c9190810190615360565b509050826000805b8281101561142e5783818151811061139e5761139e614eac565b602002602001015191506113b285836128b2565b846001600160a01b03168787838181106113ce576113ce614eac565b90506020020160208101906113e391906153a6565b604080516000815233602082015261ffff929092169185917f598baf7bf150ca2f42be9e9f8f55e81d45f5715c3ff22bf46d697fabec7f31d6910160405180910390a4600101611384565b5050509392505050565b600954604051633de222bb60e21b81523060048201526001600160a01b038381166024830152600092169063f7888aec906044015b602060405180830381865afa15801561148a573d6000803e3d6000fd5b505050506040513d601f19601f82011682018060405250810190610a2191906153c1565b6114b6612772565b6114c0600061297c565b565b60095460405163051330b560e21b81526000916001600160a01b03169063144cc2d4906114f590309087906004016153da565b602060405180830381865afa158015611512573d6000803e3d6000fd5b505050506040513d601f19601f8201168201806040525081019061153691906153c1565b9392505050565b600954604051631572f24960e11b81523060048201526000916001600160a01b031690632ae5e4929060240161146d565b6000818152601160205260408120611585906129ce565b6001600160e01b031692915050565b606060018054610a3690614e3f565b6115ab612772565b6009546040516331315e5960e11b81526001600160a01b0390911690636262bcb2906115dd90859085906004016153fe565b600060405180830381600087803b1580156115f757600080fd5b505af115801561160b573d6000803e3d6000fd5b50505050818160405161161f92919061542d565b604051908190038120338252907f7bc9110d5de090dd59e07912d2b93a5a27ac70a60c8d8e324db4f9ee8b8b5c1390602001611204565b611661338383612a16565b5050565b600060608060808401351561168d576040516309f82f1b60e31b815260040160405180910390fd5b602461169d6101c0860186615185565b905010806116e1575063b3bcbb7960e01b6116bc6101c0860186615185565b6116cb916024916020916151cb565b6116d4916151f5565b6001600160e01b03191614155b156116ff57604051632a84050f60e01b815260040160405180910390fd5b60408051600180825281830190925290816020015b60408051808201909152600080825260208201528152602001906001900390816117145790505090506040518060400160405280306001600160a01b0316815260200160008152508160008151811061176f5761176f614eac565b6020908102919091010152600061178a6101c0860186615185565b8101906117979190615225565b9250505060006117a782876114c2565b905060006117b48761153d565b905060006117c78860c001358484612ab5565b90506127108861018001350361183257806117e66101a08a018a615185565b8782828080601f016020809104026020016040519081016040528093929190818152602001838380828437600092019190915250969d50919b509199506118bd98505050505050505050565b611868816118518561184b6101808d0135612710615453565b86612ab5565b611860906101808c0135615466565b612710612ab5565b6118766101a08a018a615185565b8782828080601f016020809104026020016040519081016040528093929190818152602001838380828437600092019190915250969d50919b509199505050505050505050505b9193909250565b600a546005546040516321d1336160e11b815260048101919091526000916001600160a01b0316906343a266c29060240161012060405180830381865afa158015611913573d6000803e3d6000fd5b505050506040513d601f19601f820116820180604052508101906119379190615479565b61010081015190915060f51c60019081160361196657604051631d2c125760e31b815260040160405180910390fd5b600954604051635d53f40760e11b815260048101859052602481018490526000916001600160a01b03169063baa7e80e906044016000604051808303816000875af11580156119b9573d6000803e3d6000fd5b505050506040513d6000823e601f3d908101601f191682016040526119e19190810190615096565b6009546040516304db994760e21b8152306004820152602481018790529192506000916001600160a01b039091169063136e651c90604401602060405180830381865afa158015611a36573d6000803e3d6000fd5b505050506040513d601f19601f82011682018060405250810190611a5a91906152e6565b90506000805b85811015611ad857838181518110611a7a57611a7a614eac565b60200260200101519150611a8e83836128b2565b6040513381526001600160a01b03841690889084907f031e1988c95a91ec4d655ff63a8f87a80bc9daf28d95ae10ee08c0022cfb5c8b9060200160405180910390a4600101611a60565b50505050505050565b611661338383612b82565b611af6338361261b565b611b135760405163e5fa0e3560e01b815260040160405180910390fd5b610f0784848484612c01565b8051604080518082019091526000808252602082015260005b82811015610f0757838181518110611b5257611b52614eac565b602090810291909101015180519092506001600160a01b0316611b88576040516314f4c13d60e21b815260040160405180910390fd5b611b9b3383600001518460200151612b82565b600101611b38565b600954604051630fab094760e01b81523060048201526060916000916001600160a01b0390911690630fab094790602401602060405180830381865afa158015611bf1573d6000803e3d6000fd5b505050506040513d601f19601f82011682018060405250810190611c1591906152e6565b90506001600160a01b03811615611c9357604051636d02a25560e11b8152600481018490526001600160a01b0382169063da0544aa90602401600060405180830381865afa158015611c6b573d6000803e3d6000fd5b505050506040513d6000823e601f3d908101601f1916820160405261153691908101906154f9565b60095460405163f682eeaf60e01b8152306004820152611536916001600160a01b03169063f682eeaf90602401600060405180830381865afa158015611cdd573d6000803e3d6000fd5b505050506040513d6000823e601f3d908101601f19168201604052611d0591908101906154f9565b600954604051630c8df17160e41b8152306004820152602481018790526001600160a01b039091169063c8df171090604401602060405180830381865afa158015611d54573d6000803e3d6000fd5b505050506040513d601f19601f82011682018060405250810190611d7891906153c1565b612c35565b6001600160a01b03821660009081526010602090815260408083208484529091528120611da9906129ce565b6001600160e01b03169392505050565b611dc1612772565b60095460405163d67b78fd60e01b81526001600160a01b039091169063d67b78fd90611df390859085906004016153fe565b600060405180830381600087803b158015611e0d57600080fd5b505af1158015611e21573d6000803e3d6000fd5b505050508181604051611e3592919061542d565b604051908190038120338252907fd36dc0c1a06103fdcaf15f3f6fb797d1a97997514c78de073640c8b5005454b890602001611204565b6008546001600160a01b03163003611e8357600080fd5b6009546001600160a01b031615611e9957600080fd5b611ea58b8b8b8b612c9c565b600a80546001600160a01b03808a166001600160a01b031992831617909255600980548584169083161790556020850151600c556040850151600d556060850151600b8054919093169116179055855115611f59576040516331315e5960e11b81526001600160a01b03831690636262bcb290611f26908990600401614185565b600060405180830381600087803b158015611f4057600080fd5b505af1158015611f54573d6000803e3d6000fd5b505050505b835115611fbf5760405163d67b78fd60e01b81526001600160a01b0383169063d67b78fd90611f8c908790600401614185565b600060405180830381600087803b158015611fa657600080fd5b505af1158015611fba573d6000803e3d6000fd5b505050505b6001600160a01b0385161561202a5760405163036129cb60e61b81526001600160a01b03868116600483015283169063d84a72c090602401600060405180830381600087803b15801561201157600080fd5b505af1158015612025573d6000803e3d6000fd5b505050505b825151156120a857825160405163229dad5f60e11b81526001600160a01b0384169163453b5abe9161205f9190600401615566565b6000604051808303816000875af115801561207e573d6000803e3d6000fd5b505050506040513d6000823e601f3d908101601f191682016040526120a69190810190615096565b505b8051806120b6575080602001515b806120c2575080604001515b806120ce575080606001515b1561215457604080516365c13f1960e11b815282511515600482015260208301511515602482015290820151151560448201526060820151151560648201526001600160a01b0383169063cb827e3290608401600060405180830381600087803b15801561213b57600080fd5b505af115801561214f573d6000803e3d6000fd5b505050505b61215d3361297c565b5050505050505050505050565b60008281526011602052604081206115369083612ccf565b6001600160a01b038316600090815260106020908152604080832085845290915281206121af9083612ccf565b949350505050565b6101208101356060806121ce610160850185615185565b8080601f0160208091040260200160405190810160405280939291908181526020018383808284376000920191909152509294506001925061220e915050565b60405190808252806020026020018201604052801561225357816020015b604080518082019091526000808252602082015281526020019060019003908161222c5790505b5090506040518060400160405280306001600160a01b0316815260200160008152508160008151811061228857612288614eac565b60200260200101819052509193909250565b6005543415158061231b5750600654604051636e49181f60e01b8152600481018390523360248201526001600160a01b0390911690636e49181f90604401602060405180830381865afa1580156122f5573d6000803e3d6000fd5b505050506040513d601f19601f820116820180604052508101906123199190615168565b155b8061232a575080826020013514155b15612348576040516331c57b1b60e21b815260040160405180910390fd5b61166182612d82565b612359612772565b6009546040516317161f7d60e01b81526001600160a01b038381166004830152909116906317161f7d90602401600060405180830381600087803b1580156123a057600080fd5b505af11580156123b4573d6000803e3d6000fd5b50506040513381526001600160a01b03841692507fab0014d4c7a642a02a31b303a318908c22b0fb2001f107278fc6076b4c671b659150602001610c3c565b600954604051630155619b60e71b81523060048201526060916001600160a01b03169063aab0cd8090602401600060405180830381865afa15801561243c573d6000803e3d6000fd5b505050506040513d6000823e601f3d908101601f1916820160405261246491908101906154f9565b905090565b612471612772565b6001600160a01b0381166124db5760405162461bcd60e51b815260206004820152602660248201527f4f776e61626c653a206e6577206f776e657220697320746865207a65726f206160448201526564647265737360d01b60648201526084015b60405180910390fd5b6124e48161297c565b50565b60006001600160e01b0319821663b3bcbb7960e01b148061251857506001600160e01b031982166371700c6960e01b145b8061253357506001600160e01b0319821663da9ee8b760e01b145b8061254e57506001600160e01b03198216632b13c58f60e01b145b8061256957506001600160e01b0319821663152a902d60e11b145b80610a215750610a21826131b6565b6000818152600260205260409020546001600160a01b03166124e45760405163b49aa3b560e01b815260040160405180910390fd5b600081815260036020526040902080546001600160a01b0319166001600160a01b03841690811790915581906125e2826112bc565b6001600160a01b03167f8c5be1e5ebec7d5bd14f71427d1e84f3dd0314c0f7b2291e5b200ac8c7c3b92560405160405180910390a45050565b600080612627836112bc565b9050806001600160a01b0316846001600160a01b0316148061266e57506001600160a01b0380821660009081526004602090815260408083209388168352929052205460ff165b806121af5750836001600160a01b031661268784610ab9565b6001600160a01b031614949350505050565b826001600160a01b03166126ac826112bc565b6001600160a01b0316146126d35760405163a195bc5360e01b815260040160405180910390fd5b6001600160a01b0382166126fa57604051632c95542760e01b815260040160405180910390fd5b612705838383613206565b6127106000826125ad565b60008181526002602052604080822080546001600160a01b0319166001600160a01b0386811691821790925591518493918716917fddf252ad1be2c89b69c2b068fc378daa952ba7f163c4a11628f55a4df523b3ef91a4610b67838383613433565b6007546001600160a01b031633146114c05760405162461bcd60e51b815260206004820181905260248201527f4f776e61626c653a2063616c6c6572206973206e6f7420746865206f776e657260448201526064016124d2565b60006127d7826112bc565b90506127e581600084613206565b6127f06000836125ad565b60008281526002602052604080822080546001600160a01b0319169055518391906001600160a01b038416907fddf252ad1be2c89b69c2b068fc378daa952ba7f163c4a11628f55a4df523b3ef908390a461166181600084613433565b6009546040516386bc2be360e01b81526001600160a01b03909116906386bc2be39061287d9084906004016144f3565b600060405180830381600087803b15801561289757600080fd5b505af11580156128ab573d6000803e3d6000fd5b5050505050565b6001600160a01b0382166128d957604051633904578f60e11b815260040160405180910390fd5b6000818152600260205260409020546001600160a01b03161561290f57604051632eb5f0c360e21b815260040160405180910390fd5b61291b60008383613206565b60008181526002602052604080822080546001600160a01b0319166001600160a01b03861690811790915590518392907fddf252ad1be2c89b69c2b068fc378daa952ba7f163c4a11628f55a4df523b3ef908290a461166160008383613433565b600780546001600160a01b038381166001600160a01b0319831681179093556040519116919082907f8be0079c531659141344cd1fd0a4f28419497f9722a3daafe3b4186f6b6457e090600090a35050565b80546000908015612a0d576129f6836129e8600184615453565b600091825260209091200190565b5464010000000090046001600160e01b0316611536565b60009392505050565b816001600160a01b0316836001600160a01b031603612a48576040516306f8139d60e11b815260040160405180910390fd5b6001600160a01b03838116600081815260046020908152604080832094871680845294825291829020805460ff191686151590811790915591519182527f17307eab39ab6107e8899845ad3d59bd9653f200f220920489ca2b5937696c31910160405180910390a3505050565b6000808060001985870985870292508281108382030391505080600003612aef57838281612ae557612ae5615683565b0492505050611536565b838110612b1957604051631dcf306360e21b815260048101829052602481018590526044016124d2565b60008486880960026001871981018816978890046003810283188082028403028082028403028082028403028082028403028082028403029081029092039091026000889003889004909101858311909403939093029303949094049190911702949350505050565b6001600160a01b038381166000818152600f6020908152604080832086845290915280822080548786166001600160a01b0319821681179092559151919094169392849290917f3134e8a2e6d97e929a7e54011ea5485d7d196dd5f0ba4d4ef95803e8e3fc257f9190a4610f07818484612bfc888761352c565b61356c565b612c0c848484612699565b612c18848484846136c1565b610f07576040516336f57c1b60e11b815260040160405180910390fd5b604051609160f51b60208201526022810182905260609060009060420160405160208183030381529060405290506000612c6e826137c3565b90508481604051602001612c83929190615699565b6040516020818303038152906040529250505092915050565b612ca6828261395b565b5050600591909155600680546001600160a01b0319166001600160a01b03909216919091179055565b6000438210612d205760405162461bcd60e51b815260206004820181905260248201527f436865636b706f696e74733a20626c6f636b206e6f7420796574206d696e656460448201526064016124d2565b6000612d2b83613974565b84549091506000612d3e868483856139dd565b90508015612d6c57612d55866129e8600184615453565b5464010000000090046001600160e01b0316612d6f565b60005b6001600160e01b03169695505050505050565b600c5460009060c083013503612d9d57506080810135612e53565b600b546001600160a01b03161561166157600d54612e5090608084013590612dc690600a6157ac565b600b54600c54604051635268657960e11b815260c08801356004820152602481019190915260a087013560448201526001600160a01b039091169063a4d0caf290606401602060405180830381865afa158015612e27573d6000803e3d6000fd5b505050506040513d601f19601f82011682018060405250810190612e4b91906153c1565b612ab5565b90505b6000600e81612e6a6101a086016101808701614243565b6001600160a01b03168152602081019190915260400160009081205491508290612e9c6101a086016101808701614243565b6001600160a01b0316612eb26020870187614243565b6001600160a01b031603612ec95790820190612ecc565b50815b60006044612ede6101e0880188615185565b9050118015612f22575063b3bcbb7960e01b612efe6101e0880188615185565b612f0d916044916040916151cb565b612f16916151f5565b6001600160e01b031916145b15612ff9576060612f376101e0880188615185565b810190612f4491906157b8565b90955093508492505081159050612fc75750600954604051634228826f60e11b81523060048201526001600160a01b039091169063845104de90602401608060405180830381865afa158015612f9e573d6000803e3d6000fd5b505050506040513d601f19601f82011682018060405250810190612fc2919061588a565b606001515b15612fd157600091505b805115612ff757612ff48482612fef6101a08b016101808c01614243565b613a3b565b93505b505b821561311d578061301d57604051631b57826960e21b815260040160405180910390fd5b828201848111156130855761303a6101a088016101808901614243565b6040513381526001600160a01b0391909116908290878203907f2fb2733fb01b76e3290fa8b695d18e026ddd19c0a265ab90e95152e57da303369060200160405180910390a46130e6565b808511156130e65761309f6101a088016101808901614243565b6040513381526001600160a01b0391909116908290818803907fe0e7c81cf67a96dd0e39bcf11521b1f4c0098cc1dbe8c30750a11d9ebfc3ed4d9060200160405180910390a45b80600e60006130fd6101a08b016101808c01614243565b6001600160a01b0316815260208101919091526040016000205550610e22565b818414610e22576131366101a087016101808801614243565b6001600160a01b03168261314a8187615453565b6040513381527fe0e7c81cf67a96dd0e39bcf11521b1f4c0098cc1dbe8c30750a11d9ebfc3ed4d9060200160405180910390a481600e60006131946101a08a016101808b01614243565b6001600160a01b03168152602081019190915260400160002055505050505050565b60006001600160e01b031982166380ac58cd60e01b14806131e757506001600160e01b03198216635b5e139f60e01b145b80610a2157506301ffc9a760e01b6001600160e01b0319831614610a21565b6001600160a01b03831615610b675760095460405163b67cb04760e01b8152306004820152602481018390526000916001600160a01b03169063b67cb047906044016101c060405180830381865afa158015613266573d6000803e3d6000fd5b505050506040513d601f19601f8201168201806040525081019061328a91906158f1565b9050806101a001511561334f57600a546005546040516321d1336160e11b815260048101919091526000916001600160a01b0316906343a266c29060240161012060405180830381865afa1580156132e6573d6000803e3d6000fd5b505050506040513d601f19601f8201168201806040525081019061330a9190615479565b90506001600160a01b0384161580159061332f575061010081015160f41c6001908116145b1561334d576040516318cdaf9760e01b815260040160405180910390fd5b505b6009546040516308ed6c0160e41b8152306004820152602481018490526000916001600160a01b031690638ed6c01090604401602060405180830381865afa15801561339f573d6000803e3d6000fd5b505050506040513d601f19601f820116820180604052508101906133c391906152e6565b6001600160a01b031603610f0757600954604051638cec7d3960e01b8152600481018490526001600160a01b03868116602483015290911690638cec7d3990604401600060405180830381600087803b15801561341f57600080fd5b505af1158015610e1f573d6000803e3d6000fd5b60095460405163b67cb04760e01b8152306004820152602481018390526000916001600160a01b03169063b67cb047906044016101c060405180830381865afa158015613484573d6000803e3d6000fd5b505050506040513d601f19601f820116820180604052508101906134a891906158f1565b60095481516040516330b157e560e21b815260048101919091526001600160a01b038781166024830152868116604483015292935091169063c2c55f9490606401600060405180830381600087803b15801561350357600080fd5b505af1158015613517573d6000803e3d6000fd5b5050505061352784848484613b7d565b610f07565b6009546040516305c9a1d560e31b81523060048201526001600160a01b038481166024830152604482018490526000921690632e4d0ea8906064016114f5565b826001600160a01b0316846001600160a01b0316148061358a575080155b610f07576001600160a01b03841615613625576001600160a01b0384166000908152601060209081526040808320858452909152812081906135cf90613b9b85613ba7565b60408051838152602081018390523381830152905192945090925085916001600160a01b038916917fed0c1e94c302bdbbd8bbd6a4fb7c3ed335c2292407cd816eadd075d019d0ce04919081900360600190a350505b6001600160a01b03831615610f07576001600160a01b03831660009081526010602090815260408083208584529091528120819061366690613bdf85613ba7565b60408051838152602081018390523381830152905192945090925085916001600160a01b038816917fed0c1e94c302bdbbd8bbd6a4fb7c3ed335c2292407cd816eadd075d019d0ce04919081900360600190a3505050505050565b60006001600160a01b0384163b156137b857604051630a85bd0160e11b81526001600160a01b0385169063150b7a02906137059033908990889088906004016159bb565b6020604051808303816000875af1925050508015613740575060408051601f3d908101601f1916820190925261373d918101906159f8565b60015b61379e573d80801561376e576040519150601f19603f3d011682016040523d82523d6000602084013e613773565b606091505b508051600003613796576040516336f57c1b60e11b815260040160405180910390fd5b805181602001fd5b6001600160e01b031916630a85bd0160e11b1490506121af565b506001949350505050565b606081516000036137e257505060408051600081526020810190915290565b60408051602e8082526105e08201909252600091602082016105c08036833701905050905060008160008151811061381c5761381c614eac565b60ff90921660209283029190910190910152825160019060005b8181101561393757600086828151811061385257613852614eac565b016020015160f81c905060005b8460ff168110156138dc57600886828151811061387e5761387e614eac565b602002602001015160ff16901b826138969190615466565b91506138a3603a83615a15565b8682815181106138b5576138b5614eac565b60ff909216602092830291909101909101526138d2603a83615a29565b915060010161385f565b505b801561392e576138ef603a82615a15565b858560ff168151811061390457613904614eac565b60ff90921660209283029190910190910152600190930192613927603a82615a29565b90506138de565b50600101613836565b5061395261394d6139488585613beb565b613c8a565b613d2c565b95945050505050565b60006139678382615a83565b506001610b678282615a83565b600063ffffffff8211156139d95760405162461bcd60e51b815260206004820152602660248201527f53616665436173743a2076616c756520646f65736e27742066697420696e203360448201526532206269747360d01b60648201526084016124d2565b5090565b60005b81831015613a335760006139f48484613e05565b60008781526020902090915063ffffffff86169082015463ffffffff161115613a1f57809250613a2d565b613a2a816001615466565b93505b506139e0565b509392505050565b60095460405163eaa19ab360e01b81526000916060916001600160a01b039091169063eaa19ab390613a7590889088908790600401615b42565b6000604051808303816000875af1158015613a94573d6000803e3d6000fd5b505050506040513d6000823e601f3d908101601f19168201604052613abc9190810190615360565b81519093509091506000805b82811015613b7257838181518110613ae257613ae2614eac565b60200260200101519150613af686836128b2565b856001600160a01b0316878281518110613b1257613b12614eac565b602002602001015161ffff16837f598baf7bf150ca2f42be9e9f8f55e81d45f5715c3ff22bf46d697fabec7f31d68b33604051613b629291909182526001600160a01b0316602082015260400190565b60405180910390a4600101613ac8565b505050509392505050565b60a081015115610f0757610f07848483600001518460a00151613e20565b60006115368284615453565b600080613bd285613bcd613bba886129ce565b6001600160e01b0316868863ffffffff16565b613ec2565b915091505b935093915050565b60006115368284615466565b606060008260ff166001600160401b03811115613c0a57613c0a614506565b604051908082528060200260200182016040528015613c33578160200160208202803683370190505b50905060005b8360ff16811015613a3357848181518110613c5657613c56614eac565b6020026020010151828281518110613c7057613c70614eac565b60ff90921660209283029190910190910152600101613c39565b80516060906000816001600160401b03811115613ca957613ca9614506565b604051908082528060200260200182016040528015613cd2578160200160208202803683370190505b50905060005b82811015613a3357848160018751030381518110613cf857613cf8614eac565b6020026020010151828281518110613d1257613d12614eac565b60ff90921660209283029190910190910152600101613cd8565b80516060906000816001600160401b03811115613d4b57613d4b614506565b6040519080825280601f01601f191660200182016040528015613d75576020820181803683370190505b50905060005b82811015613a33576040518060600160405280603a8152602001615ba0603a9139858281518110613dae57613dae614eac565b602002602001015160ff1681518110613dc957613dc9614eac565b602001015160f81c60f81b828281518110613de657613de6614eac565b60200101906001600160f81b031916908160001a905350600101613d7b565b6000613e146002848418615a29565b61153690848416615466565b6001600160a01b038416613e4c576000828152601160205260409020613e4990613bdf83613ba7565b50505b6001600160a01b038316613e78576000828152601160205260409020613e7590613b9b83613ba7565b50505b6001600160a01b038085166000908152600f60208181526040808420878552825280842054888616855292825280842087855290915290912054610f07929182169116848461356c565b600080613ee084613ed243613974565b613edb86613ef6565b613f5f565b6001600160e01b03918216969116945092505050565b60006001600160e01b038211156139d95760405162461bcd60e51b815260206004820152602760248201527f53616665436173743a2076616c756520646f65736e27742066697420696e20326044820152663234206269747360c81b60648201526084016124d2565b8254600090819080156140a8576000613f7d876129e8600185615453565b60408051808201909152905463ffffffff8082168084526401000000009092046001600160e01b031660208401529192509087161015613fff5760405162461bcd60e51b815260206004820152601760248201527f436865636b706f696e743a20696e76616c6964206b657900000000000000000060448201526064016124d2565b805163ffffffff8088169116036140485784614020886129e8600186615453565b80546001600160e01b03929092166401000000000263ffffffff909216919091179055614098565b6040805180820190915263ffffffff80881682526001600160e01b0380881660208085019182528b54600181018d5560008d81529190912094519151909216640100000000029216919091179101555b602001519250839150613bd79050565b50506040805180820190915263ffffffff80851682526001600160e01b0380851660208085019182528854600181018a5560008a815291822095519251909316640100000000029190931617920191909155905081613bd7565b6001600160e01b0319811681146124e457600080fd5b60006020828403121561412a57600080fd5b813561153681614102565b60005b83811015614150578181015183820152602001614138565b50506000910152565b60008151808452614171816020860160208601614135565b601f01601f19169290920160200192915050565b6020815260006115366020830184614159565b6000602082840312156141aa57600080fd5b5035919050565b6001600160a01b03811681146124e457600080fd5b80356141d1816141b1565b919050565b600080604083850312156141e957600080fd5b82356141f4816141b1565b946020939093013593505050565b60008060006060848603121561421757600080fd5b8335614222816141b1565b92506020840135614232816141b1565b929592945050506040919091013590565b60006020828403121561425557600080fd5b8135611536816141b1565b60008083601f84011261427257600080fd5b5081356001600160401b0381111561428957600080fd5b6020830191508360208260051b8501011115610ead57600080fd5b600080600080604085870312156142ba57600080fd5b84356001600160401b03808211156142d157600080fd5b818701915087601f8301126142e557600080fd5b8135818111156142f457600080fd5b8860206101c08302850101111561430a57600080fd5b60209283019650945090860135908082111561432557600080fd5b5061433287828801614260565b95989497509550505050565b6000806040838503121561435157600080fd5b50508035926020909101359150565b6000806020838503121561437357600080fd5b82356001600160401b038082111561438a57600080fd5b818501915085601f83011261439e57600080fd5b8135818111156143ad57600080fd5b8660208260061b85010111156143c257600080fd5b60209290920196919550909350505050565b60006101e082840312156143e757600080fd5b50919050565b6000602082840312156143ff57600080fd5b81356001600160401b0381111561441557600080fd5b6121af848285016143d4565b6000806020838503121561443457600080fd5b82356001600160401b0381111561444a57600080fd5b61445685828601614260565b90969095509350505050565b60008060006040848603121561447757600080fd5b83356001600160401b0381111561448d57600080fd5b61449986828701614260565b90945092505060208401356144ad816141b1565b809150509250925092565b600081518084526020808501945080840160005b838110156144e8578151875295820195908201906001016144cc565b509495945050505050565b60208152600061153660208301846144b8565b634e487b7160e01b600052604160045260246000fd5b604080519081016001600160401b038111828210171561453e5761453e614506565b60405290565b604051608081016001600160401b038111828210171561453e5761453e614506565b6040516101c081016001600160401b038111828210171561453e5761453e614506565b60405161012081016001600160401b038111828210171561453e5761453e614506565b604051601f8201601f191681016001600160401b03811182821017156145d4576145d4614506565b604052919050565b60006001600160401b038211156145f5576145f5614506565b5060051b60200190565b600082601f83011261461057600080fd5b81356020614625614620836145dc565b6145ac565b82815260059290921b8401810191818101908684111561464457600080fd5b8286015b8481101561465f5780358352918301918301614648565b509695505050505050565b6000806040838503121561467d57600080fd5b82356001600160401b038082111561469457600080fd5b6146a0868387016145ff565b935060208501359150808211156146b657600080fd5b506146c3858286016143d4565b9150509250929050565b600080602083850312156146e057600080fd5b82356001600160401b03808211156146f757600080fd5b818501915085601f83011261470b57600080fd5b81358181111561471a57600080fd5b8660208285010111156143c257600080fd5b80151581146124e457600080fd5b80356141d18161472c565b6000806040838503121561475857600080fd5b8235614763816141b1565b915060208301356147738161472c565b809150509250929050565b838152600060206060818401526147986060840186614159565b83810360408581019190915285518083528387019284019060005b818110156147e157845180516001600160a01b031684528601518684015293850193918301916001016147b3565b50909998505050505050505050565b60006001600160401b0382111561480957614809614506565b50601f01601f191660200190565b6000614825614620846147f0565b905082815283838301111561483957600080fd5b828260208301376000602084830101529392505050565b6000806000806080858703121561486657600080fd5b8435614871816141b1565b93506020850135614881816141b1565b92506040850135915060608501356001600160401b038111156148a357600080fd5b8501601f810187136148b457600080fd5b6148c387823560208401614817565b91505092959194509250565b600060208083850312156148e257600080fd5b82356001600160401b038111156148f857600080fd5b8301601f8101851361490957600080fd5b8035614917614620826145dc565b81815260069190911b8201830190838101908783111561493657600080fd5b928401925b8284101561498257604084890312156149545760008081fd5b61495c61451c565b8435614967816141b1565b8152848601358682015282526040909301929084019061493b565b979650505050505050565b600082601f83011261499e57600080fd5b61153683833560208501614817565b803569ffffffffffffffffffff811681146141d157600080fd5b803565ffffffffffff811681146141d157600080fd5b803564ffffffffff811681146141d157600080fd5b803561ffff811681146141d157600080fd5b803560ff811681146141d157600080fd5b60006080808385031215614a2857600080fd5b614a30614544565b915082356001600160401b03811115614a4857600080fd5b8301601f81018513614a5957600080fd5b80356020614a69614620836145dc565b8281526101c09283028401820192828201919089851115614a8957600080fd5b948301945b84861015614ba05780868b031215614aa65760008081fd5b614aae614566565b614ab7876149ad565b8152614ac48588016149c7565b858201526040614ad58189016149dd565b908201526060614ae68882016149f2565b90820152614af58789016149f2565b8882015260a0614b068189016141c6565b9082015260c0614b17888201614a04565b9082015260e0614b288882016141c6565b908201526101008781013590820152610120614b45818901614a04565b90820152610140614b5788820161473a565b90820152610160614b6988820161473a565b90820152610180614b7b88820161473a565b908201526101a0614b8d88820161473a565b9082015283529485019491830191614a8e565b50865250858101359085015250505060408083013590820152614bc5606083016141c6565b606082015292915050565b600060808284031215614be257600080fd5b614bea614544565b90508135614bf78161472c565b81526020820135614c078161472c565b60208201526040820135614c1a8161472c565b60408201526060820135614bc58161472c565b60008060008060008060008060008060006101c08c8e031215614c4f57600080fd5b8b359a50614c5f60208d016141c6565b99506001600160401b038060408e01351115614c7a57600080fd5b614c8a8e60408f01358f0161498d565b99508060608e01351115614c9d57600080fd5b614cad8e60608f01358f0161498d565b9850614cbb60808e016141c6565b97508060a08e01351115614cce57600080fd5b614cde8e60a08f01358f0161498d565b9650614cec60c08e016141c6565b95508060e08e01351115614cff57600080fd5b614d0f8e60e08f01358f0161498d565b9450806101008e01351115614d2357600080fd5b50614d358d6101008e01358e01614a15565b9250614d446101208d016141c6565b9150614d548d6101408e01614bd0565b90509295989b509295989b9093969950565b600080600060608486031215614d7b57600080fd5b8335614d86816141b1565b95602085013595506040909401359392505050565b600060208284031215614dad57600080fd5b81356001600160401b03811115614dc357600080fd5b82016101a0818503121561153657600080fd5b600060208284031215614de857600080fd5b81356001600160401b03811115614dfe57600080fd5b8201610200818503121561153657600080fd5b60008060408385031215614e2457600080fd5b8235614e2f816141b1565b91506020830135614773816141b1565b600181811c90821680614e5357607f821691505b6020821081036143e757634e487b7160e01b600052602260045260246000fd5b6020808252810182905260006001600160fb1b03831115614e9357600080fd5b8260051b80856040850137919091016040019392505050565b634e487b7160e01b600052603260045260246000fd5b614edf82614ecf836149ad565b69ffffffffffffffffffff169052565b614eeb602082016149c7565b65ffffffffffff166020830152614f04604082016149dd565b64ffffffffff166040830152614f1c606082016149f2565b61ffff166060830152614f31608082016149f2565b61ffff166080830152614f4660a082016141c6565b6001600160a01b031660a0830152614f6060c08201614a04565b60ff1660c0830152614f7460e082016141c6565b6001600160a01b031660e08301526101008181013590830152610120614f9b818301614a04565b60ff1690830152610140614fb082820161473a565b151590830152610160614fc482820161473a565b151590830152610180614fd882820161473a565b1515908301526101a0614fec82820161473a565b80151584830152610f07565b6020808252810182905260008360408301825b858110156150315761501d8284614ec2565b6101c092830192919091019060010161500b565b5095945050505050565b600082601f83011261504c57600080fd5b8151602061505c614620836145dc565b82815260059290921b8401810191818101908684111561507b57600080fd5b8286015b8481101561465f578051835291830191830161507f565b6000602082840312156150a857600080fd5b81516001600160401b038111156150be57600080fd5b6121af8482850161503b565b6101e081016150d98285614ec2565b6001600160a01b03929092166101c09190910152919050565b80516141d1816141b1565b6000806040838503121561511057600080fd5b825161511b816141b1565b6020939093015192949293505050565b60006040828403121561513d57600080fd5b61514561451c565b82358152602083013560208201528091505092915050565b80516141d18161472c565b60006020828403121561517a57600080fd5b81516115368161472c565b6000808335601e1984360301811261519c57600080fd5b8301803591506001600160401b038211156151b657600080fd5b602001915036819003821315610ead57600080fd5b600080858511156151db57600080fd5b838611156151e857600080fd5b5050820193919092039150565b6001600160e01b0319813581811691600485101561521d5780818660040360031b1b83161692505b505092915050565b60008060006060848603121561523a57600080fd5b83359250602084013561524c81614102565b915060408401356001600160401b0381111561526757600080fd5b615273868287016145ff565b9150509250925092565b60008235603e1983360301811261529357600080fd5b9190910192915050565b6000808335601e198436030181126152b457600080fd5b8301803591506001600160401b038211156152ce57600080fd5b6020019150600581901b3603821315610ead57600080fd5b6000602082840312156152f857600080fd5b8151611536816141b1565b84815260606020808301829052908201849052600090859060808401835b878110156153485761ffff615335856149f2565b1682529282019290820190600101615321565b50809350505050821515604083015295945050505050565b6000806040838503121561537357600080fd5b82516001600160401b0381111561538957600080fd5b6153958582860161503b565b925050602083015190509250929050565b6000602082840312156153b857600080fd5b611536826149f2565b6000602082840312156153d357600080fd5b5051919050565b6001600160a01b03831681526040602082018190526000906121af908301846144b8565b60208152816020820152818360408301376000818301604090810191909152601f909201601f19160101919050565b8183823760009101908152919050565b634e487b7160e01b600052601160045260246000fd5b81810381811115610a2157610a2161543d565b80820180821115610a2157610a2161543d565b6000610120828403121561548c57600080fd5b615494614589565b825181526020830151602082015260408301516040820152606083015160608201526080830151608082015260a083015160a082015260c083015160c08201526154e060e084016150f2565b60e0820152610100928301519281019290925250919050565b60006020828403121561550b57600080fd5b81516001600160401b0381111561552157600080fd5b8201601f8101841361553257600080fd5b8051615540614620826147f0565b81815285602083850101111561555557600080fd5b613952826020830160208601614135565b602080825282518282018190526000919060409081850190868401855b82811015615676578151805169ffffffffffffffffffff1685528681015165ffffffffffff16878601528581015164ffffffffff168686015260608082015161ffff908116918701919091526080808301519091169086015260a0808201516001600160a01b039081169187019190915260c08083015160ff9081169188019190915260e08084015190921691870191909152610100808301519087015261012080830151909116908601526101408082015115159086015261016080820151151590860152610180808201511515908601526101a0908101511515908501526101c09093019290850190600101615583565b5091979650505050505050565b634e487b7160e01b600052601260045260246000fd5b600083516156ab818460208801614135565b8351908301906156bf818360208801614135565b01949350505050565b600181815b808511156157035781600019048211156156e9576156e961543d565b808516156156f657918102915b93841c93908002906156cd565b509250929050565b60008261571a57506001610a21565b8161572757506000610a21565b816001811461573d576002811461574757615763565b6001915050610a21565b60ff8411156157585761575861543d565b50506001821b610a21565b5060208310610133831016604e8410600b8410161715615786575081810a610a21565b61579083836156c8565b80600019048211156157a4576157a461543d565b029392505050565b6000611536838361570b565b600080600080600060a086880312156157d057600080fd5b85359450602080870135945060408701356157ea81614102565b935060608701356157fa8161472c565b925060808701356001600160401b0381111561581557600080fd5b8701601f8101891361582657600080fd5b8035615834614620826145dc565b81815260059190911b8201830190838101908b83111561585357600080fd5b928401925b8284101561587857615869846149f2565b82529284019290840190615858565b80955050505050509295509295909350565b60006080828403121561589c57600080fd5b6158a4614544565b82516158af8161472c565b815260208301516158bf8161472c565b602082015260408301516158d28161472c565b604082015260608301516158e58161472c565b60608201529392505050565b60006101c0828403121561590457600080fd5b61590c614566565b825181526020830151602082015260408301516040820152606083015160608201526080830151608082015260a083015160a082015260c083015160c082015261595860e084016150f2565b60e082015261010083810151908201526101206159768185016150f2565b908201526101408381015190820152610160808401519082015261018061599e81850161515d565b908201526101a06159b084820161515d565b908201529392505050565b6001600160a01b03858116825284166020820152604081018390526080606082018190526000906159ee90830184614159565b9695505050505050565b600060208284031215615a0a57600080fd5b815161153681614102565b600082615a2457615a24615683565b500690565b600082615a3857615a38615683565b500490565b601f821115610b6757600081815260208120601f850160051c81016020861015615a645750805b601f850160051c820191505b81811015610e2257828155600101615a70565b81516001600160401b03811115615a9c57615a9c614506565b615ab081615aaa8454614e3f565b84615a3d565b602080601f831160018114615ae55760008415615acd5750858301515b600019600386901b1c1916600185901b178555610e22565b600085815260208120601f198616915b82811015615b1457888601518255948401946001909101908401615af5565b5085821015615b325787850151600019600388901b60f8161c191681555b5050505050600190811b01905550565b6000606082018583526020606081850152818651808452608086019150828801935060005b81811015615b8757845161ffff1683529383019391830191600101615b67565b5050809350505050821515604083015294935050505056fe31323334353637383941424344454647484a4b4c4d4e505152535455565758595a6162636465666768696a6b6d6e6f707172737475767778797aa26469706673582212206251c0190d4ec9d1d465b9a19a28dcc354f8e70849b32a93330e9ba6f0cb2e0764736f6c63430008120033",
    "linkReferences": {}
  },
  "methodIdentifiers": {
    "adjustTiers((uint80,uint48,uint40,uint16,uint16,address,uint8,address,bytes32,uint8,bool,bool,bool,bool)[],uint256[])": "25eb91ee",
    "approve(address,uint256)": "095ea7b3",
    "balanceOf(address)": "70a08231",
    "codeOrigin()": "1d153ca4",
    "contractURI()": "e8a3d485",
    "creditsOf(address)": "245a45b5",
    "didPay((address,uint256,uint256,(address,uint256,uint256,uint256),(address,uint256,uint256,uint256),uint256,address,bool,string,bytes))": "da9ee8b7",
    "didRedeem((address,uint256,uint256,uint256,(address,uint256,uint256,uint256),(address,uint256,uint256,uint256),address,string,bytes))": "2b13c58f",
    "directory()": "c41c2f24",
    "firstOwnerOf(uint256)": "54c6d1f5",
    "fundingCycleStore()": "557e7155",
    "getApproved(uint256)": "081812fc",
    "getPastTierTotalVotes(uint256,uint256)": "d31cc52c",
    "getPastTierVotes(address,uint256,uint256)": "d40e7146",
    "getTierDelegate(address,uint256)": "82732b6d",
    "getTierTotalVotes(uint256)": "94c5c5ca",
    "getTierVotes(address,uint256)": "ca323efe",
    "initialize(uint256,address,string,string,address,string,address,string,((uint80,uint48,uint40,uint16,uint16,address,uint8,address,bytes32,uint8,bool,bool,bool,bool)[],uint256,uint256,address),address,(bool,bool,bool,bool))": "d1704baf",
    "isApprovedForAll(address,address)": "e985e9c5",
    "mintFor((uint16[],address)[])": "36c1a93b",
    "mintFor(uint16[],address)": "6ac6d941",
    "mintReservesFor((uint256,uint256)[])": "2a596e53",
    "mintReservesFor(uint256,uint256)": "aa4fb15b",
    "name()": "06fdde03",
    "owner()": "8da5cb5b",
    "ownerOf(uint256)": "6352211e",
    "payParams((address,address,(address,uint256,uint256,uint256),uint256,uint256,address,uint256,uint256,string,bytes))": "d46cf171",
    "prices()": "d3419bf3",
    "pricingCurrency()": "64640c1e",
    "pricingDecimals()": "4ecba625",
    "projectId()": "3fafa127",
    "redeemParams((address,address,uint256,uint256,uint256,uint256,uint256,(address,uint256,uint256,uint256),bool,uint256,string,bytes))": "a51cfd18",
    "redemptionWeightOf(uint256[],(address,address,uint256,uint256,uint256,uint256,uint256,(address,uint256,uint256,uint256),bool,uint256,string,bytes))": "7ba62bf9",
    "renounceOwnership()": "715018a6",
    "royaltyInfo(uint256,uint256)": "2a55205a",
    "safeTransferFrom(address,address,uint256)": "42842e0e",
    "safeTransferFrom(address,address,uint256,bytes)": "b88d4fde",
    "setApprovalForAll(address,bool)": "a22cb465",
    "setBaseUri(string)": "a0bcfc7f",
    "setContractUri(string)": "ccb4807b",
    "setDefaultReservedTokenBeneficiary(address)": "df487e26",
    "setEncodedIPFSUriOf(uint256,bytes32)": "525350ba",
    "setTierDelegate(address,uint256)": "ab951e39",
    "setTierDelegates((address,uint256)[])": "c74b13d9",
    "setTokenUriResolver(address)": "2407497e",
    "store()": "975057e7",
    "supportsInterface(bytes4)": "01ffc9a7",
    "symbol()": "95d89b41",
    "tokenURI(uint256)": "c87b56dd",
    "totalRedemptionWeight((address,address,uint256,uint256,uint256,uint256,uint256,(address,uint256,uint256,uint256),bool,uint256,string,bytes))": "9494bf72",
    "transferFrom(address,address,uint256)": "23b872dd",
    "transferOwnership(address)": "f2fde38b"
  },
  "id": 1
}