{
  "abi": [
    {
      "inputs": [],
      "name": "ALEADY_MINTED",
      "type": "error"
    },
    {
      "inputs": [],
      "name": "APPROVAL_TO_CURRENT_OWNER",
      "type": "error"
    },
    {
      "inputs": [],
      "name": "APPROVE_TO_CALLER",
      "type": "error"
    },
    {
      "inputs": [],
      "name": "BLOCK_NOT_YET_MINED",
      "type": "error"
    },
    {
      "inputs": [],
      "name": "CALLER_NOT_OWNER_OR_APPROVED",
      "type": "error"
    },
    {
      "inputs": [],
      "name": "INCORRECT_OWNER",
      "type": "error"
    },
    {
      "inputs": [],
      "name": "INVALID_PAYMENT_EVENT",
      "type": "error"
    },
    {
      "inputs": [],
      "name": "INVALID_REDEMPTION_EVENT",
      "type": "error"
    },
    {
      "inputs": [],
      "name": "INVALID_REDEMPTION_METADATA",
      "type": "error"
    },
    {
      "inputs": [],
      "name": "INVALID_TOKEN_ID",
      "type": "error"
    },
    {
      "inputs": [],
      "name": "MINT_TO_ZERO",
      "type": "error"
    },
    {
      "inputs": [],
      "name": "NOT_AVAILABLE",
      "type": "error"
    },
    {
      "inputs": [],
      "name": "OVERSPENDING",
      "type": "error"
    },
    {
      "inputs": [
        {
          "internalType": "uint256",
          "name": "prod1",
          "type": "uint256"
        },
        {
          "internalType": "uint256",
          "name": "denominator",
          "type": "uint256"
        }
      ],
      "name": "PRBMath__MulDivOverflow",
      "type": "error"
    },
    {
      "inputs": [],
      "name": "PRICING_RESOLVER_CHANGES_PAUSED",
      "type": "error"
    },
    {
      "inputs": [],
      "name": "RESERVED_TOKEN_MINTING_PAUSED",
      "type": "error"
    },
    {
      "inputs": [],
      "name": "TRANSFERS_PAUSED",
      "type": "error"
    },
    {
      "inputs": [],
      "name": "TRANSFER_TO_NON_IMPLEMENTER",
      "type": "error"
    },
    {
      "inputs": [],
      "name": "TRANSFER_TO_ZERO_ADDRESS",
      "type": "error"
    },
    {
      "inputs": [],
      "name": "UNAUTHORIZED",
      "type": "error"
    },
    {
      "inputs": [],
      "name": "UNEXPECTED_TOKEN_REDEEMED",
      "type": "error"
    },
    {
      "anonymous": false,
      "inputs": [
        {
          "indexed": true,
          "internalType": "uint256",
          "name": "tierId",
          "type": "uint256"
        },
        {
          "components": [
            {
              "internalType": "uint256",
              "name": "contributionFloor",
              "type": "uint256"
            },
            {
              "internalType": "uint256",
              "name": "lockedUntil",
              "type": "uint256"
            },
            {
              "internalType": "uint256",
              "name": "initialQuantity",
              "type": "uint256"
            },
            {
              "internalType": "uint256",
              "name": "votingUnits",
              "type": "uint256"
            },
            {
              "internalType": "uint256",
              "name": "reservedRate",
              "type": "uint256"
            },
            {
              "internalType": "address",
              "name": "reservedTokenBeneficiary",
              "type": "address"
            },
            {
              "internalType": "bytes32",
              "name": "encodedIPFSUri",
              "type": "bytes32"
            },
            {
              "internalType": "bool",
              "name": "allowManualMint",
              "type": "bool"
            },
            {
              "internalType": "bool",
              "name": "shouldUseBeneficiaryAsDefault",
              "type": "bool"
            }
          ],
          "indexed": false,
          "internalType": "struct JB721TierParams",
          "name": "data",
          "type": "tuple"
        },
        {
          "indexed": false,
          "internalType": "address",
          "name": "caller",
          "type": "address"
        }
      ],
      "name": "AddTier",
      "type": "event"
    },
    {
      "anonymous": false,
      "inputs": [
        {
          "indexed": true,
          "internalType": "address",
          "name": "owner",
          "type": "address"
        },
        {
          "indexed": true,
          "internalType": "address",
          "name": "approved",
          "type": "address"
        },
        {
          "indexed": true,
          "internalType": "uint256",
          "name": "tokenId",
          "type": "uint256"
        }
      ],
      "name": "Approval",
      "type": "event"
    },
    {
      "anonymous": false,
      "inputs": [
        {
          "indexed": true,
          "internalType": "address",
          "name": "owner",
          "type": "address"
        },
        {
          "indexed": true,
          "internalType": "address",
          "name": "operator",
          "type": "address"
        },
        {
          "indexed": false,
          "internalType": "bool",
          "name": "approved",
          "type": "bool"
        }
      ],
      "name": "ApprovalForAll",
      "type": "event"
    },
    {
      "anonymous": false,
      "inputs": [
        {
          "indexed": true,
          "internalType": "address",
          "name": "delegator",
          "type": "address"
        },
        {
          "indexed": true,
          "internalType": "address",
          "name": "fromDelegate",
          "type": "address"
        },
        {
          "indexed": true,
          "internalType": "address",
          "name": "toDelegate",
          "type": "address"
        }
      ],
      "name": "DelegateChanged",
      "type": "event"
    },
    {
      "anonymous": false,
      "inputs": [
        {
          "indexed": true,
          "internalType": "uint256",
          "name": "tokenId",
          "type": "uint256"
        },
        {
          "indexed": true,
          "internalType": "uint256",
          "name": "tierId",
          "type": "uint256"
        },
        {
          "indexed": true,
          "internalType": "address",
          "name": "beneficiary",
          "type": "address"
        },
        {
          "indexed": false,
          "internalType": "uint256",
          "name": "totalAmountContributed",
          "type": "uint256"
        },
        {
          "indexed": false,
          "internalType": "address",
          "name": "caller",
          "type": "address"
        }
      ],
      "name": "Mint",
      "type": "event"
    },
    {
      "anonymous": false,
      "inputs": [
        {
          "indexed": true,
          "internalType": "uint256",
          "name": "tokenId",
          "type": "uint256"
        },
        {
          "indexed": true,
          "internalType": "uint256",
          "name": "tierId",
          "type": "uint256"
        },
        {
          "indexed": true,
          "internalType": "address",
          "name": "beneficiary",
          "type": "address"
        },
        {
          "indexed": false,
          "internalType": "address",
          "name": "caller",
          "type": "address"
        }
      ],
      "name": "MintReservedToken",
      "type": "event"
    },
    {
      "anonymous": false,
      "inputs": [
        {
          "indexed": true,
          "internalType": "address",
          "name": "previousOwner",
          "type": "address"
        },
        {
          "indexed": true,
          "internalType": "address",
          "name": "newOwner",
          "type": "address"
        }
      ],
      "name": "OwnershipTransferred",
      "type": "event"
    },
    {
      "anonymous": false,
      "inputs": [
        {
          "indexed": true,
          "internalType": "uint256",
          "name": "tierId",
          "type": "uint256"
        },
        {
          "indexed": false,
          "internalType": "address",
          "name": "caller",
          "type": "address"
        }
      ],
      "name": "RemoveTier",
      "type": "event"
    },
    {
      "anonymous": false,
      "inputs": [
        {
          "indexed": true,
          "internalType": "string",
          "name": "baseUri",
          "type": "string"
        },
        {
          "indexed": false,
          "internalType": "address",
          "name": "caller",
          "type": "address"
        }
      ],
      "name": "SetBaseUri",
      "type": "event"
    },
    {
      "anonymous": false,
      "inputs": [
        {
          "indexed": true,
          "internalType": "string",
          "name": "contractUri",
          "type": "string"
        },
        {
          "indexed": false,
          "internalType": "address",
          "name": "caller",
          "type": "address"
        }
      ],
      "name": "SetContractUri",
      "type": "event"
    },
    {
      "anonymous": false,
      "inputs": [
        {
          "indexed": true,
          "internalType": "address",
          "name": "beneficiary",
          "type": "address"
        },
        {
          "indexed": false,
          "internalType": "address",
          "name": "caller",
          "type": "address"
        }
      ],
      "name": "SetDefaultReservedTokenBeneficiary",
      "type": "event"
    },
    {
      "anonymous": false,
      "inputs": [
        {
          "indexed": true,
          "internalType": "contract IJBTokenUriResolver",
          "name": "newResolver",
          "type": "address"
        },
        {
          "indexed": false,
          "internalType": "address",
          "name": "caller",
          "type": "address"
        }
      ],
      "name": "SetTokenUriResolver",
      "type": "event"
    },
    {
      "anonymous": false,
      "inputs": [
        {
          "indexed": true,
          "internalType": "address",
          "name": "delegator",
          "type": "address"
        },
        {
          "indexed": true,
          "internalType": "address",
          "name": "fromDelegate",
          "type": "address"
        },
        {
          "indexed": true,
          "internalType": "address",
          "name": "toDelegate",
          "type": "address"
        },
        {
          "indexed": false,
          "internalType": "uint256",
          "name": "tierId",
          "type": "uint256"
        },
        {
          "indexed": false,
          "internalType": "address",
          "name": "caller",
          "type": "address"
        }
      ],
      "name": "TierDelegateChanged",
      "type": "event"
    },
    {
      "anonymous": false,
      "inputs": [
        {
          "indexed": true,
          "internalType": "address",
          "name": "delegate",
          "type": "address"
        },
        {
          "indexed": true,
          "internalType": "uint256",
          "name": "tierId",
          "type": "uint256"
        },
        {
          "indexed": false,
          "internalType": "uint256",
          "name": "previousBalance",
          "type": "uint256"
        },
        {
          "indexed": false,
          "internalType": "uint256",
          "name": "newBalance",
          "type": "uint256"
        },
        {
          "indexed": false,
          "internalType": "address",
          "name": "callre",
          "type": "address"
        }
      ],
      "name": "TierDelegateVotesChanged",
      "type": "event"
    },
    {
      "anonymous": false,
      "inputs": [
        {
          "indexed": true,
          "internalType": "address",
          "name": "from",
          "type": "address"
        },
        {
          "indexed": true,
          "internalType": "address",
          "name": "to",
          "type": "address"
        },
        {
          "indexed": true,
          "internalType": "uint256",
          "name": "tokenId",
          "type": "uint256"
        }
      ],
      "name": "Transfer",
      "type": "event"
    },
    {
      "inputs": [
        {
          "components": [
            {
              "internalType": "uint256",
              "name": "contributionFloor",
              "type": "uint256"
            },
            {
              "internalType": "uint256",
              "name": "lockedUntil",
              "type": "uint256"
            },
            {
              "internalType": "uint256",
              "name": "initialQuantity",
              "type": "uint256"
            },
            {
              "internalType": "uint256",
              "name": "votingUnits",
              "type": "uint256"
            },
            {
              "internalType": "uint256",
              "name": "reservedRate",
              "type": "uint256"
            },
            {
              "internalType": "address",
              "name": "reservedTokenBeneficiary",
              "type": "address"
            },
            {
              "internalType": "bytes32",
              "name": "encodedIPFSUri",
              "type": "bytes32"
            },
            {
              "internalType": "bool",
              "name": "allowManualMint",
              "type": "bool"
            },
            {
              "internalType": "bool",
              "name": "shouldUseBeneficiaryAsDefault",
              "type": "bool"
            }
          ],
          "internalType": "struct JB721TierParams[]",
          "name": "_tiersToAdd",
          "type": "tuple[]"
        },
        {
          "internalType": "uint256[]",
          "name": "_tierIdsToRemove",
          "type": "uint256[]"
        }
      ],
      "name": "adjustTiers",
      "outputs": [],
      "stateMutability": "nonpayable",
      "type": "function"
    },
    {
      "inputs": [
        {
          "internalType": "address",
          "name": "to",
          "type": "address"
        },
        {
          "internalType": "uint256",
          "name": "tokenId",
          "type": "uint256"
        }
      ],
      "name": "approve",
      "outputs": [],
      "stateMutability": "nonpayable",
      "type": "function"
    },
    {
      "inputs": [
        {
          "internalType": "address",
          "name": "_owner",
          "type": "address"
        }
      ],
      "name": "balanceOf",
      "outputs": [
        {
          "internalType": "uint256",
          "name": "balance",
          "type": "uint256"
        }
      ],
      "stateMutability": "view",
      "type": "function"
    },
    {
      "inputs": [],
      "name": "contractURI",
      "outputs": [
        {
          "internalType": "string",
          "name": "",
          "type": "string"
        }
      ],
      "stateMutability": "view",
      "type": "function"
    },
    {
      "inputs": [
        {
          "internalType": "address",
          "name": "",
          "type": "address"
        }
      ],
      "name": "creditsOf",
      "outputs": [
        {
          "internalType": "uint256",
          "name": "",
          "type": "uint256"
        }
      ],
      "stateMutability": "view",
      "type": "function"
    },
    {
      "inputs": [
        {
          "components": [
            {
              "internalType": "address",
              "name": "payer",
              "type": "address"
            },
            {
              "internalType": "uint256",
              "name": "projectId",
              "type": "uint256"
            },
            {
              "internalType": "uint256",
              "name": "currentFundingCycleConfiguration",
              "type": "uint256"
            },
            {
              "components": [
                {
                  "internalType": "address",
                  "name": "token",
                  "type": "address"
                },
                {
                  "internalType": "uint256",
                  "name": "value",
                  "type": "uint256"
                },
                {
                  "internalType": "uint256",
                  "name": "decimals",
                  "type": "uint256"
                },
                {
                  "internalType": "uint256",
                  "name": "currency",
                  "type": "uint256"
                }
              ],
              "internalType": "struct JBTokenAmount",
              "name": "amount",
              "type": "tuple"
            },
            {
              "components": [
                {
                  "internalType": "address",
                  "name": "token",
                  "type": "address"
                },
                {
                  "internalType": "uint256",
                  "name": "value",
                  "type": "uint256"
                },
                {
                  "internalType": "uint256",
                  "name": "decimals",
                  "type": "uint256"
                },
                {
                  "internalType": "uint256",
                  "name": "currency",
                  "type": "uint256"
                }
              ],
              "internalType": "struct JBTokenAmount",
              "name": "forwardedAmount",
              "type": "tuple"
            },
            {
              "internalType": "uint256",
              "name": "projectTokenCount",
              "type": "uint256"
            },
            {
              "internalType": "address",
              "name": "beneficiary",
              "type": "address"
            },
            {
              "internalType": "bool",
              "name": "preferClaimedTokens",
              "type": "bool"
            },
            {
              "internalType": "string",
              "name": "memo",
              "type": "string"
            },
            {
              "internalType": "bytes",
              "name": "metadata",
              "type": "bytes"
            }
          ],
          "internalType": "struct JBDidPayData",
          "name": "_data",
          "type": "tuple"
        }
      ],
      "name": "didPay",
      "outputs": [],
      "stateMutability": "payable",
      "type": "function"
    },
    {
      "inputs": [
        {
          "components": [
            {
              "internalType": "address",
              "name": "holder",
              "type": "address"
            },
            {
              "internalType": "uint256",
              "name": "projectId",
              "type": "uint256"
            },
            {
              "internalType": "uint256",
              "name": "currentFundingCycleConfiguration",
              "type": "uint256"
            },
            {
              "internalType": "uint256",
              "name": "projectTokenCount",
              "type": "uint256"
            },
            {
              "components": [
                {
                  "internalType": "address",
                  "name": "token",
                  "type": "address"
                },
                {
                  "internalType": "uint256",
                  "name": "value",
                  "type": "uint256"
                },
                {
                  "internalType": "uint256",
                  "name": "decimals",
                  "type": "uint256"
                },
                {
                  "internalType": "uint256",
                  "name": "currency",
                  "type": "uint256"
                }
              ],
              "internalType": "struct JBTokenAmount",
              "name": "reclaimedAmount",
              "type": "tuple"
            },
            {
              "components": [
                {
                  "internalType": "address",
                  "name": "token",
                  "type": "address"
                },
                {
                  "internalType": "uint256",
                  "name": "value",
                  "type": "uint256"
                },
                {
                  "internalType": "uint256",
                  "name": "decimals",
                  "type": "uint256"
                },
                {
                  "internalType": "uint256",
                  "name": "currency",
                  "type": "uint256"
                }
              ],
              "internalType": "struct JBTokenAmount",
              "name": "forwardedAmount",
              "type": "tuple"
            },
            {
              "internalType": "address payable",
              "name": "beneficiary",
              "type": "address"
            },
            {
              "internalType": "string",
              "name": "memo",
              "type": "string"
            },
            {
              "internalType": "bytes",
              "name": "metadata",
              "type": "bytes"
            }
          ],
          "internalType": "struct JBDidRedeemData",
          "name": "_data",
          "type": "tuple"
        }
      ],
      "name": "didRedeem",
      "outputs": [],
      "stateMutability": "payable",
      "type": "function"
    },
    {
      "inputs": [],
      "name": "directory",
      "outputs": [
        {
          "internalType": "contract IJBDirectory",
          "name": "",
          "type": "address"
        }
      ],
      "stateMutability": "view",
      "type": "function"
    },
    {
      "inputs": [
        {
          "internalType": "uint256",
          "name": "_tokenId",
          "type": "uint256"
        }
      ],
      "name": "firstOwnerOf",
      "outputs": [
        {
          "internalType": "address",
          "name": "",
          "type": "address"
        }
      ],
      "stateMutability": "view",
      "type": "function"
    },
    {
      "inputs": [],
      "name": "fundingCycleStore",
      "outputs": [
        {
          "internalType": "contract IJBFundingCycleStore",
          "name": "",
          "type": "address"
        }
      ],
      "stateMutability": "view",
      "type": "function"
    },
    {
      "inputs": [
        {
          "internalType": "uint256",
          "name": "tokenId",
          "type": "uint256"
        }
      ],
      "name": "getApproved",
      "outputs": [
        {
          "internalType": "address",
          "name": "",
          "type": "address"
        }
      ],
      "stateMutability": "view",
      "type": "function"
    },
    {
      "inputs": [
        {
          "internalType": "uint256",
          "name": "_tier",
          "type": "uint256"
        },
        {
          "internalType": "uint256",
          "name": "_blockNumber",
          "type": "uint256"
        }
      ],
      "name": "getPastTierTotalVotes",
      "outputs": [
        {
          "internalType": "uint256",
          "name": "",
          "type": "uint256"
        }
      ],
      "stateMutability": "view",
      "type": "function"
    },
    {
      "inputs": [
        {
          "internalType": "address",
          "name": "_account",
          "type": "address"
        },
        {
          "internalType": "uint256",
          "name": "_tier",
          "type": "uint256"
        },
        {
          "internalType": "uint256",
          "name": "_blockNumber",
          "type": "uint256"
        }
      ],
      "name": "getPastTierVotes",
      "outputs": [
        {
          "internalType": "uint256",
          "name": "",
          "type": "uint256"
        }
      ],
      "stateMutability": "view",
      "type": "function"
    },
    {
      "inputs": [
        {
          "internalType": "address",
          "name": "_account",
          "type": "address"
        },
        {
          "internalType": "uint256",
          "name": "_tier",
          "type": "uint256"
        }
      ],
      "name": "getTierDelegate",
      "outputs": [
        {
          "internalType": "address",
          "name": "",
          "type": "address"
        }
      ],
      "stateMutability": "view",
      "type": "function"
    },
    {
      "inputs": [
        {
          "internalType": "uint256",
          "name": "_tier",
          "type": "uint256"
        }
      ],
      "name": "getTierTotalVotes",
      "outputs": [
        {
          "internalType": "uint256",
          "name": "",
          "type": "uint256"
        }
      ],
      "stateMutability": "view",
      "type": "function"
    },
    {
      "inputs": [
        {
          "internalType": "address",
          "name": "_account",
          "type": "address"
        },
        {
          "internalType": "uint256",
          "name": "_tier",
          "type": "uint256"
        }
      ],
      "name": "getTierVotes",
      "outputs": [
        {
          "internalType": "uint256",
          "name": "",
          "type": "uint256"
        }
      ],
      "stateMutability": "view",
      "type": "function"
    },
    {
      "inputs": [
        {
          "internalType": "uint256",
          "name": "_projectId",
          "type": "uint256"
        },
        {
          "internalType": "contract IJBDirectory",
          "name": "_directory",
          "type": "address"
        },
        {
          "internalType": "string",
          "name": "_name",
          "type": "string"
        },
        {
          "internalType": "string",
          "name": "_symbol",
          "type": "string"
        },
        {
          "internalType": "contract IJBFundingCycleStore",
          "name": "_fundingCycleStore",
          "type": "address"
        },
        {
          "internalType": "string",
          "name": "_baseUri",
          "type": "string"
        },
        {
          "internalType": "contract IJBTokenUriResolver",
          "name": "_tokenUriResolver",
          "type": "address"
        },
        {
          "internalType": "string",
          "name": "_contractUri",
          "type": "string"
        },
        {
          "components": [
            {
              "components": [
                {
                  "internalType": "uint256",
                  "name": "contributionFloor",
                  "type": "uint256"
                },
                {
                  "internalType": "uint256",
                  "name": "lockedUntil",
                  "type": "uint256"
                },
                {
                  "internalType": "uint256",
                  "name": "initialQuantity",
                  "type": "uint256"
                },
                {
                  "internalType": "uint256",
                  "name": "votingUnits",
                  "type": "uint256"
                },
                {
                  "internalType": "uint256",
                  "name": "reservedRate",
                  "type": "uint256"
                },
                {
                  "internalType": "address",
                  "name": "reservedTokenBeneficiary",
                  "type": "address"
                },
                {
                  "internalType": "bytes32",
                  "name": "encodedIPFSUri",
                  "type": "bytes32"
                },
                {
                  "internalType": "bool",
                  "name": "allowManualMint",
                  "type": "bool"
                },
                {
                  "internalType": "bool",
                  "name": "shouldUseBeneficiaryAsDefault",
                  "type": "bool"
                }
              ],
              "internalType": "struct JB721TierParams[]",
              "name": "tiers",
              "type": "tuple[]"
            },
            {
              "internalType": "uint256",
              "name": "currency",
              "type": "uint256"
            },
            {
              "internalType": "uint256",
              "name": "decimals",
              "type": "uint256"
            },
            {
              "internalType": "contract IJBPrices",
              "name": "prices",
              "type": "address"
            }
          ],
          "internalType": "struct JB721PricingParams",
          "name": "_pricing",
          "type": "tuple"
        },
        {
          "internalType": "contract IJBTiered721DelegateStore",
          "name": "_store",
          "type": "address"
        },
        {
          "components": [
            {
              "internalType": "bool",
              "name": "lockReservedTokenChanges",
              "type": "bool"
            },
            {
              "internalType": "bool",
              "name": "lockVotingUnitChanges",
              "type": "bool"
            },
            {
              "internalType": "bool",
              "name": "lockManualMintingChanges",
              "type": "bool"
            },
            {
              "internalType": "bool",
              "name": "pausable",
              "type": "bool"
            }
          ],
          "internalType": "struct JBTiered721Flags",
          "name": "_flags",
          "type": "tuple"
        }
      ],
      "name": "initialize",
      "outputs": [],
      "stateMutability": "nonpayable",
      "type": "function"
    },
    {
      "inputs": [
        {
          "internalType": "address",
          "name": "owner",
          "type": "address"
        },
        {
          "internalType": "address",
          "name": "operator",
          "type": "address"
        }
      ],
      "name": "isApprovedForAll",
      "outputs": [
        {
          "internalType": "bool",
          "name": "",
          "type": "bool"
        }
      ],
      "stateMutability": "view",
      "type": "function"
    },
    {
      "inputs": [
        {
          "components": [
            {
              "internalType": "uint16[]",
              "name": "tierIds",
              "type": "uint16[]"
            },
            {
              "internalType": "address",
              "name": "beneficiary",
              "type": "address"
            }
          ],
          "internalType": "struct JBTiered721MintForTiersData[]",
          "name": "_mintForTiersData",
          "type": "tuple[]"
        }
      ],
      "name": "mintFor",
      "outputs": [],
      "stateMutability": "nonpayable",
      "type": "function"
    },
    {
      "inputs": [
        {
          "internalType": "uint16[]",
          "name": "_tierIds",
          "type": "uint16[]"
        },
        {
          "internalType": "address",
          "name": "_beneficiary",
          "type": "address"
        }
      ],
      "name": "mintFor",
      "outputs": [
        {
          "internalType": "uint256[]",
          "name": "tokenIds",
          "type": "uint256[]"
        }
      ],
      "stateMutability": "nonpayable",
      "type": "function"
    },
    {
      "inputs": [
        {
          "components": [
            {
              "internalType": "uint256",
              "name": "tierId",
              "type": "uint256"
            },
            {
              "internalType": "uint256",
              "name": "count",
              "type": "uint256"
            }
          ],
          "internalType": "struct JBTiered721MintReservesForTiersData[]",
          "name": "_mintReservesForTiersData",
          "type": "tuple[]"
        }
      ],
      "name": "mintReservesFor",
      "outputs": [],
      "stateMutability": "nonpayable",
      "type": "function"
    },
    {
      "inputs": [
        {
          "internalType": "uint256",
          "name": "_tierId",
          "type": "uint256"
        },
        {
          "internalType": "uint256",
          "name": "_count",
          "type": "uint256"
        }
      ],
      "name": "mintReservesFor",
      "outputs": [],
      "stateMutability": "nonpayable",
      "type": "function"
    },
    {
      "inputs": [],
      "name": "name",
      "outputs": [
        {
          "internalType": "string",
          "name": "",
          "type": "string"
        }
      ],
      "stateMutability": "view",
      "type": "function"
    },
    {
      "inputs": [],
      "name": "owner",
      "outputs": [
        {
          "internalType": "address",
          "name": "",
          "type": "address"
        }
      ],
      "stateMutability": "view",
      "type": "function"
    },
    {
      "inputs": [
        {
          "internalType": "uint256",
          "name": "tokenId",
          "type": "uint256"
        }
      ],
      "name": "ownerOf",
      "outputs": [
        {
          "internalType": "address",
          "name": "",
          "type": "address"
        }
      ],
      "stateMutability": "view",
      "type": "function"
    },
    {
      "inputs": [
        {
          "components": [
            {
              "internalType": "contract IJBPaymentTerminal",
              "name": "terminal",
              "type": "address"
            },
            {
              "internalType": "address",
              "name": "payer",
              "type": "address"
            },
            {
              "components": [
                {
                  "internalType": "address",
                  "name": "token",
                  "type": "address"
                },
                {
                  "internalType": "uint256",
                  "name": "value",
                  "type": "uint256"
                },
                {
                  "internalType": "uint256",
                  "name": "decimals",
                  "type": "uint256"
                },
                {
                  "internalType": "uint256",
                  "name": "currency",
                  "type": "uint256"
                }
              ],
              "internalType": "struct JBTokenAmount",
              "name": "amount",
              "type": "tuple"
            },
            {
              "internalType": "uint256",
              "name": "projectId",
              "type": "uint256"
            },
            {
              "internalType": "uint256",
              "name": "currentFundingCycleConfiguration",
              "type": "uint256"
            },
            {
              "internalType": "address",
              "name": "beneficiary",
              "type": "address"
            },
            {
              "internalType": "uint256",
              "name": "weight",
              "type": "uint256"
            },
            {
              "internalType": "uint256",
              "name": "reservedRate",
              "type": "uint256"
            },
            {
              "internalType": "string",
              "name": "memo",
              "type": "string"
            },
            {
              "internalType": "bytes",
              "name": "metadata",
              "type": "bytes"
            }
          ],
          "internalType": "struct JBPayParamsData",
          "name": "_data",
          "type": "tuple"
        }
      ],
      "name": "payParams",
      "outputs": [
        {
          "internalType": "uint256",
          "name": "weight",
          "type": "uint256"
        },
        {
          "internalType": "string",
          "name": "memo",
          "type": "string"
        },
        {
          "components": [
            {
              "internalType": "contract IJBPayDelegate",
              "name": "delegate",
              "type": "address"
            },
            {
              "internalType": "uint256",
              "name": "amount",
              "type": "uint256"
            }
          ],
          "internalType": "struct JBPayDelegateAllocation[]",
          "name": "delegateAllocations",
          "type": "tuple[]"
        }
      ],
      "stateMutability": "view",
      "type": "function"
    },
    {
      "inputs": [],
      "name": "prices",
      "outputs": [
        {
          "internalType": "contract IJBPrices",
          "name": "",
          "type": "address"
        }
      ],
      "stateMutability": "view",
      "type": "function"
    },
    {
      "inputs": [],
      "name": "pricingCurrency",
      "outputs": [
        {
          "internalType": "uint256",
          "name": "",
          "type": "uint256"
        }
      ],
      "stateMutability": "view",
      "type": "function"
    },
    {
      "inputs": [],
      "name": "pricingDecimals",
      "outputs": [
        {
          "internalType": "uint256",
          "name": "",
          "type": "uint256"
        }
      ],
      "stateMutability": "view",
      "type": "function"
    },
    {
      "inputs": [],
      "name": "projectId",
      "outputs": [
        {
          "internalType": "uint256",
          "name": "",
          "type": "uint256"
        }
      ],
      "stateMutability": "view",
      "type": "function"
    },
    {
      "inputs": [
        {
          "components": [
            {
              "internalType": "contract IJBPaymentTerminal",
              "name": "terminal",
              "type": "address"
            },
            {
              "internalType": "address",
              "name": "holder",
              "type": "address"
            },
            {
              "internalType": "uint256",
              "name": "projectId",
              "type": "uint256"
            },
            {
              "internalType": "uint256",
              "name": "currentFundingCycleConfiguration",
              "type": "uint256"
            },
            {
              "internalType": "uint256",
              "name": "tokenCount",
              "type": "uint256"
            },
            {
              "internalType": "uint256",
              "name": "totalSupply",
              "type": "uint256"
            },
            {
              "internalType": "uint256",
              "name": "overflow",
              "type": "uint256"
            },
            {
              "components": [
                {
                  "internalType": "address",
                  "name": "token",
                  "type": "address"
                },
                {
                  "internalType": "uint256",
                  "name": "value",
                  "type": "uint256"
                },
                {
                  "internalType": "uint256",
                  "name": "decimals",
                  "type": "uint256"
                },
                {
                  "internalType": "uint256",
                  "name": "currency",
                  "type": "uint256"
                }
              ],
              "internalType": "struct JBTokenAmount",
              "name": "reclaimAmount",
              "type": "tuple"
            },
            {
              "internalType": "bool",
              "name": "useTotalOverflow",
              "type": "bool"
            },
            {
              "internalType": "uint256",
              "name": "redemptionRate",
              "type": "uint256"
            },
            {
              "internalType": "string",
              "name": "memo",
              "type": "string"
            },
            {
              "internalType": "bytes",
              "name": "metadata",
              "type": "bytes"
            }
          ],
          "internalType": "struct JBRedeemParamsData",
          "name": "_data",
          "type": "tuple"
        }
      ],
      "name": "redeemParams",
      "outputs": [
        {
          "internalType": "uint256",
          "name": "reclaimAmount",
          "type": "uint256"
        },
        {
          "internalType": "string",
          "name": "memo",
          "type": "string"
        },
        {
          "components": [
            {
              "internalType": "contract IJBRedemptionDelegate",
              "name": "delegate",
              "type": "address"
            },
            {
              "internalType": "uint256",
              "name": "amount",
              "type": "uint256"
            }
          ],
          "internalType": "struct JBRedemptionDelegateAllocation[]",
          "name": "delegateAllocations",
          "type": "tuple[]"
        }
      ],
      "stateMutability": "view",
      "type": "function"
    },
    {
      "inputs": [],
      "name": "renounceOwnership",
      "outputs": [],
      "stateMutability": "nonpayable",
      "type": "function"
    },
    {
      "inputs": [
        {
          "internalType": "address",
          "name": "from",
          "type": "address"
        },
        {
          "internalType": "address",
          "name": "to",
          "type": "address"
        },
        {
          "internalType": "uint256",
          "name": "tokenId",
          "type": "uint256"
        }
      ],
      "name": "safeTransferFrom",
      "outputs": [],
      "stateMutability": "nonpayable",
      "type": "function"
    },
    {
      "inputs": [
        {
          "internalType": "address",
          "name": "from",
          "type": "address"
        },
        {
          "internalType": "address",
          "name": "to",
          "type": "address"
        },
        {
          "internalType": "uint256",
          "name": "tokenId",
          "type": "uint256"
        },
        {
          "internalType": "bytes",
          "name": "data",
          "type": "bytes"
        }
      ],
      "name": "safeTransferFrom",
      "outputs": [],
      "stateMutability": "nonpayable",
      "type": "function"
    },
    {
      "inputs": [
        {
          "internalType": "address",
          "name": "operator",
          "type": "address"
        },
        {
          "internalType": "bool",
          "name": "approved",
          "type": "bool"
        }
      ],
      "name": "setApprovalForAll",
      "outputs": [],
      "stateMutability": "nonpayable",
      "type": "function"
    },
    {
      "inputs": [
        {
          "internalType": "string",
          "name": "_baseUri",
          "type": "string"
        }
      ],
      "name": "setBaseUri",
      "outputs": [],
      "stateMutability": "nonpayable",
      "type": "function"
    },
    {
      "inputs": [
        {
          "internalType": "string",
          "name": "_contractUri",
          "type": "string"
        }
      ],
      "name": "setContractUri",
      "outputs": [],
      "stateMutability": "nonpayable",
      "type": "function"
    },
    {
      "inputs": [
        {
          "internalType": "address",
          "name": "_beneficiary",
          "type": "address"
        }
      ],
      "name": "setDefaultReservedTokenBeneficiary",
      "outputs": [],
      "stateMutability": "nonpayable",
      "type": "function"
    },
    {
      "inputs": [
        {
          "internalType": "address",
          "name": "_delegatee",
          "type": "address"
        },
        {
          "internalType": "uint256",
          "name": "_tierId",
          "type": "uint256"
        }
      ],
      "name": "setTierDelegate",
      "outputs": [],
      "stateMutability": "nonpayable",
      "type": "function"
    },
    {
      "inputs": [
        {
          "components": [
            {
              "internalType": "address",
              "name": "delegatee",
              "type": "address"
            },
            {
              "internalType": "uint256",
              "name": "tierId",
              "type": "uint256"
            }
          ],
          "internalType": "struct JBTiered721SetTierDelegatesData[]",
          "name": "_setTierDelegatesData",
          "type": "tuple[]"
        }
      ],
      "name": "setTierDelegates",
      "outputs": [],
      "stateMutability": "nonpayable",
      "type": "function"
    },
    {
      "inputs": [
        {
          "internalType": "contract IJBTokenUriResolver",
          "name": "_tokenUriResolver",
          "type": "address"
        }
      ],
      "name": "setTokenUriResolver",
      "outputs": [],
      "stateMutability": "nonpayable",
      "type": "function"
    },
    {
      "inputs": [],
      "name": "store",
      "outputs": [
        {
          "internalType": "contract IJBTiered721DelegateStore",
          "name": "",
          "type": "address"
        }
      ],
      "stateMutability": "view",
      "type": "function"
    },
    {
      "inputs": [
        {
          "internalType": "bytes4",
          "name": "_interfaceId",
          "type": "bytes4"
        }
      ],
      "name": "supportsInterface",
      "outputs": [
        {
          "internalType": "bool",
          "name": "",
          "type": "bool"
        }
      ],
      "stateMutability": "view",
      "type": "function"
    },
    {
      "inputs": [],
      "name": "symbol",
      "outputs": [
        {
          "internalType": "string",
          "name": "",
          "type": "string"
        }
      ],
      "stateMutability": "view",
      "type": "function"
    },
    {
      "inputs": [
        {
          "internalType": "uint256",
          "name": "_tokenId",
          "type": "uint256"
        }
      ],
      "name": "tokenURI",
      "outputs": [
        {
          "internalType": "string",
          "name": "",
          "type": "string"
        }
      ],
      "stateMutability": "view",
      "type": "function"
    },
    {
      "inputs": [
        {
          "internalType": "address",
          "name": "from",
          "type": "address"
        },
        {
          "internalType": "address",
          "name": "to",
          "type": "address"
        },
        {
          "internalType": "uint256",
          "name": "tokenId",
          "type": "uint256"
        }
      ],
      "name": "transferFrom",
      "outputs": [],
      "stateMutability": "nonpayable",
      "type": "function"
    },
    {
      "inputs": [
        {
          "internalType": "address",
          "name": "newOwner",
          "type": "address"
        }
      ],
      "name": "transferOwnership",
      "outputs": [],
      "stateMutability": "nonpayable",
      "type": "function"
    }
  ],
  "bytecode": {
    "object": "0x60806040523480156200001157600080fd5b506200001d3362000035565b600880546001600160a01b0319163017905562000087565b600780546001600160a01b038381166001600160a01b0319831681179093556040519116919082907f8be0079c531659141344cd1fd0a4f28419497f9722a3daafe3b4186f6b6457e090600090a35050565b61527280620000976000396000f3fe6080604052600436106102885760003560e01c806394c5c5ca1161015a578063ca323efe116100c1578063da9ee8b71161007a578063da9ee8b7146107f5578063df487e2614610808578063dfedb3af14610828578063e8a3d48514610848578063e985e9c51461085d578063f2fde38b146108a657600080fd5b8063ca323efe14610735578063ccb4807b14610755578063d31cc52c14610775578063d3419bf314610795578063d40e7146146107b5578063d46cf171146107d557600080fd5b8063aa4fb15b11610113578063aa4fb15b14610675578063ab951e3914610695578063b88d4fde146106b5578063c41c2f24146106d5578063c74b13d9146106f5578063c87b56dd1461071557600080fd5b806394c5c5ca146105b157806395d89b41146105d1578063975057e7146105e6578063a0bcfc7f14610606578063a22cb46514610626578063a51cfd181461064657600080fd5b80633fafa127116101fe57806364640c1e116101b757806364640c1e146104d85780636ac6d941146104ee57806370a082311461051b578063715018a61461053b57806382732b6d146105505780638da5cb5b1461059357600080fd5b80633fafa1271461042c57806342842e0e146104425780634ecba6251461046257806354c6d1f514610478578063557e7155146104985780636352211e146104b857600080fd5b806323b872dd1161025057806323b872dd1461035e5780632407497e1461037e578063245a45b51461039e5780632a596e53146103d95780632b13c58f146103f957806336c1a93b1461040c57600080fd5b806301ffc9a71461028d57806306fdde03146102c2578063081812fc146102e4578063095ea7b31461031c578063211eb0011461033e575b600080fd5b34801561029957600080fd5b506102ad6102a8366004613a1e565b6108c6565b60405190151581526020015b60405180910390f35b3480156102ce57600080fd5b506102d76108f1565b6040516102b99190613a8b565b3480156102f057600080fd5b506103046102ff366004613a9e565b610983565b6040516001600160a01b0390911681526020016102b9565b34801561032857600080fd5b5061033c610337366004613adc565b6109aa565b005b34801561034a57600080fd5b5061033c610359366004613b08565b610a36565b34801561036a57600080fd5b5061033c610379366004613bd0565b610c19565b34801561038a57600080fd5b5061033c610399366004613c11565b610c4b565b3480156103aa57600080fd5b506103cb6103b9366004613c11565b600e6020526000908152604090205481565b6040519081526020016102b9565b3480156103e557600080fd5b5061033c6103f4366004613d27565b610cf4565b61033c610407366004613dfa565b610d3a565b34801561041857600080fd5b5061033c610427366004613ea5565b610f17565b34801561043857600080fd5b506103cb60055481565b34801561044e57600080fd5b5061033c61045d366004613bd0565b610f66565b34801561046e57600080fd5b506103cb600d5481565b34801561048457600080fd5b50610304610493366004613a9e565b610f81565b3480156104a457600080fd5b50600a54610304906001600160a01b031681565b3480156104c457600080fd5b506103046104d3366004613a9e565b61102d565b3480156104e457600080fd5b506103cb600c5481565b3480156104fa57600080fd5b5061050e610509366004613f9f565b611063565b6040516102b9919061402b565b34801561052757600080fd5b506103cb610536366004613c11565b6111a7565b34801561054757600080fd5b5061033c61121d565b34801561055c57600080fd5b5061030461056b366004613adc565b6001600160a01b039182166000908152600f6020908152604080832093835292905220541690565b34801561059f57600080fd5b506007546001600160a01b0316610304565b3480156105bd57600080fd5b506103cb6105cc366004613a9e565b611231565b3480156105dd57600080fd5b506102d7611248565b3480156105f257600080fd5b50600954610304906001600160a01b031681565b34801561061257600080fd5b5061033c6106213660046140be565b611257565b34801561063257600080fd5b5061033c61064136600461410b565b611306565b34801561065257600080fd5b50610666610661366004613dfa565b611315565b6040516102b993929190614139565b34801561068157600080fd5b5061033c6106903660046141ab565b6115d6565b3480156106a157600080fd5b5061033c6106b0366004613adc565b6117f3565b3480156106c157600080fd5b5061033c6106d03660046141cd565b6117fe565b3480156106e157600080fd5b50600654610304906001600160a01b031681565b34801561070157600080fd5b5061033c61071036600461424c565b611831565b34801561072157600080fd5b506102d7610730366004613a9e565b611889565b34801561074157600080fd5b506103cb610750366004613adc565b611ae7565b34801561076157600080fd5b5061033c6107703660046142ff565b611b13565b34801561078157600080fd5b506103cb6107903660046141ab565b611bcd565b3480156107a157600080fd5b50600b54610304906001600160a01b031681565b3480156107c157600080fd5b506103cb6107d0366004614370565b611c07565b3480156107e157600080fd5b506106666107f03660046143a5565b611c3c565b61033c6108033660046143e0565b611d1f565b34801561081457600080fd5b5061033c610823366004613c11565b611ddc565b34801561083457600080fd5b5061033c6108433660046145b6565b611e7e565b34801561085457600080fd5b506102d761217c565b34801561086957600080fd5b506102ad6108783660046146ef565b6001600160a01b03918216600090815260046020908152604080832093909416825291909152205460ff1690565b3480156108b257600080fd5b5061033c6108c1366004613c11565b6121f2565b60006001600160e01b031982166340dc1b7560e11b14806108eb57506108eb8261226d565b92915050565b6060600080546109009061471d565b80601f016020809104026020016040519081016040528092919081815260200182805461092c9061471d565b80156109795780601f1061094e57610100808354040283529160200191610979565b820191906000526020600020905b81548152906001019060200180831161095c57829003601f168201915b5050505050905090565b600061098e826122e3565b506000908152600360205260409020546001600160a01b031690565b60006109b58261102d565b9050806001600160a01b0316836001600160a01b0316036109e95760405163133f8be960e01b815260040160405180910390fd5b336001600160a01b03821614801590610a095750610a078133610878565b155b15610a275760405163e5fa0e3560e01b815260040160405180910390fd5b610a318383612318565b505050565b610a3e612386565b82818015610b0e576009546040516320512ba160e01b81526001600160a01b03909116906320512ba190610a789087908790600401614751565b600060405180830381600087803b158015610a9257600080fd5b505af1158015610aa6573d6000803e3d6000fd5b5050505060005b81811015610b0c57848482818110610ac757610ac761478a565b60405133815260209182029390930135927f832d89d991be5351d793c20faf4b7dd44f8aa9ce39e3cb160c6317de6fbba72992500160405180910390a2600101610aad565b505b8115610c115760095460405163d0cf48a560e01b81526000916001600160a01b03169063d0cf48a590610b47908a908a90600401614821565b6000604051808303816000875af1158015610b66573d6000803e3d6000fd5b505050506040513d6000823e601f3d908101601f19168201604052610b8e91908101906148bf565b905060005b83811015610c0e57818181518110610bad57610bad61478a565b60200260200101517f9c1ee455d7c9ab291045babfeef5ef20cea4d096dc64c4b2b29977289b4b0641898984818110610be857610be861478a565b9050610120020133604051610bfe9291906148f3565b60405180910390a2600101610b93565b50505b505050505050565b610c2333826123e0565b610c405760405163e5fa0e3560e01b815260040160405180910390fd5b610a3183838361245e565b610c53612386565b60095460405163036129cb60e61b81526001600160a01b0383811660048301529091169063d84a72c090602401600060405180830381600087803b158015610c9a57600080fd5b505af1158015610cae573d6000803e3d6000fd5b50506040513381526001600160a01b03841692507fe7784d93cfbfa4408e19577e6cc0436f4dbb51214b70e100905dfce9def88c1691506020015b60405180910390a250565b805160005b81811015610a31576000838281518110610d1557610d1561478a565b60200260200101519050610d31816000015182602001516115d6565b50600101610cf9565b34151580610dbc5750600654600554604051636e49181f60e01b815260048101919091523360248201526001600160a01b0390911690636e49181f90604401602060405180830381865afa158015610d96573d6000803e3d6000fd5b505050506040513d601f19601f82011682018060405250810190610dba9190614926565b155b80610dcd5750600554816020013514155b15610deb57604051633efca5c360e11b815260040160405180910390fd5b6004610dfb6101c0830183614943565b90501080610e3f575063b3bcbb7960e01b610e1a6101c0830183614943565b610e2991600491600091614989565b610e32916149b3565b6001600160e01b03191614155b15610e5d57604051632a84050f60e01b815260040160405180910390fd5b6000610e6d6101c0830183614943565b810190610e7a91906149e3565b805190925090506000805b82811015610f0757838181518110610e9f57610e9f61478a565b60200260200101519150846000016020810190610ebc9190613c11565b6000838152600260205260409020546001600160a01b03908116911614610ef65760405163075fd2b160e01b815260040160405180910390fd5b610eff82612537565b600101610e85565b50610f11836125b8565b50505050565b610f1f612386565b805160005b81811015610a31576000838281518110610f4057610f4061478a565b60200260200101519050610f5c81600001518260200151611063565b5050600101610f24565b610a31838383604051806020016040528060008152506117fe565b6009546040516308ed6c0160e41b81523060048201526024810183905260009182916001600160a01b0390911690638ed6c01090604401602060405180830381865afa158015610fd5573d6000803e3d6000fd5b505050506040513d601f19601f82011682018060405250810190610ff99190614a93565b90506001600160a01b038116156110105792915050565b50506000908152600260205260409020546001600160a01b031690565b6000818152600260205260408120546001600160a01b0316806108eb5760405163b49aa3b560e01b815260040160405180910390fd5b606061106d612386565b60095460405163eaa19ab360e01b81526001600160a01b039091169063eaa19ab3906110a490600019908790600190600401614ab0565b6000604051808303816000875af11580156110c3573d6000803e3d6000fd5b505050506040513d6000823e601f3d908101601f191682016040526110eb9190810190614b0d565b509050600080805b8281101561119e5783818151811061110d5761110d61478a565b60200260200101519150611121858361261d565b846001600160a01b031686828151811061113d5761113d61478a565b602002602001015161ffff16837f598baf7bf150ca2f42be9e9f8f55e81d45f5715c3ff22bf46d697fabec7f31d660003360405161118e9291909182526001600160a01b0316602082015260400190565b60405180910390a46001016110f3565b50505092915050565b600954604051633de222bb60e21b81523060048201526001600160a01b038381166024830152600092169063f7888aec906044015b602060405180830381865afa1580156111f9573d6000803e3d6000fd5b505050506040513d601f19601f820116820180604052508101906108eb9190614b53565b611225612386565b61122f60006126e7565b565b60008181526011602052604081206108eb90612739565b6060600180546109009061471d565b61125f612386565b6009546040516331315e5960e11b81526001600160a01b0390911690636262bcb29061128f908490600401613a8b565b600060405180830381600087803b1580156112a957600080fd5b505af11580156112bd573d6000803e3d6000fd5b50505050806040516112cf9190614b6c565b604051908190038120338252907f7bc9110d5de090dd59e07912d2b93a5a27ac70a60c8d8e324db4f9ee8b8b5c1390602001610ce9565b611311338383612795565b5050565b600060608060808401351561133d576040516309f82f1b60e31b815260040160405180910390fd5b600461134d6101c0860186614943565b90501080611391575063b3bcbb7960e01b61136c6101c0860186614943565b61137b91600491600091614989565b611384916149b3565b6001600160e01b03191614155b156113af57604051632a84050f60e01b815260040160405180910390fd5b60408051600180825281830190925290816020015b60408051808201909152600080825260208201528152602001906001900390816113c45790505090506040518060400160405280306001600160a01b0316815260200160008152508160008151811061141f5761141f61478a565b602002602001018190525083610180013560000361148f5760006114476101a0860186614943565b8382828080601f0160208091040260200160405190810160405280939291908181526020018383808284376000920191909152509699509197509195506115cf945050505050565b600061149f6101c0860186614943565b8101906114ac91906149e3565b91505060006114ba82612834565b905060006114c6612867565b905060006114d98860c0013584846128d4565b90506127108861018001350361154457806114f86101a08a018a614943565b8782828080601f016020809104026020016040519081016040528093929190818152602001838380828437600092019190915250969d50919b509199506115cf98505050505050505050565b61157a816115638561155d6101808d0135612710614b9e565b866128d4565b611572906101808c0135614bb1565b6127106128d4565b6115886101a08a018a614943565b8782828080601f016020809104026020016040519081016040528093929190818152602001838380828437600092019190915250969d50919b509199505050505050505050505b9193909250565b600a546005546040516321d1336160e11b815260048101919091526000916001600160a01b0316906343a266c29060240161012060405180830381865afa158015611625573d6000803e3d6000fd5b505050506040513d601f19601f820116820180604052508101906116499190614bc4565b61010081015190915060f51c60019081160361167857604051631d2c125760e31b815260040160405180910390fd5b600954604051635d53f40760e11b815260048101859052602481018490526000916001600160a01b03169063baa7e80e906044016000604051808303816000875af11580156116cb573d6000803e3d6000fd5b505050506040513d6000823e601f3d908101601f191682016040526116f391908101906148bf565b6009546040516304db994760e21b8152306004820152602481018790529192506000916001600160a01b039091169063136e651c90604401602060405180830381865afa158015611748573d6000803e3d6000fd5b505050506040513d601f19601f8201168201806040525081019061176c9190614a93565b90506000805b858110156117ea5783818151811061178c5761178c61478a565b602002602001015191506117a0838361261d565b6040513381526001600160a01b03841690889084907f031e1988c95a91ec4d655ff63a8f87a80bc9daf28d95ae10ee08c0022cfb5c8b9060200160405180910390a4600101611772565b50505050505050565b6113113383836129a1565b61180833836123e0565b6118255760405163e5fa0e3560e01b815260040160405180910390fd5b610f1184848484612a20565b8051604080518082019091526000808252602082015260005b82811015610f11578381815181106118645761186461478a565b6020026020010151915061188133836000015184602001516129a1565b60010161184a565b6000818152600260205260409020546060906001600160a01b03166118bc57505060408051602081019091526000815290565b600954604051630fab094760e01b81523060048201526000916001600160a01b031690630fab094790602401602060405180830381865afa158015611905573d6000803e3d6000fd5b505050506040513d601f19601f820116820180604052508101906119299190614a93565b90506001600160a01b038116156119ae57604051636d02a25560e11b8152600481018490526001600160a01b0382169063da0544aa90602401600060405180830381865afa15801561197f573d6000803e3d6000fd5b505050506040513d6000823e601f3d908101601f191682016040526119a79190810190614c44565b9392505050565b60095460405163f682eeaf60e01b815230600482015273__$2e464bbf4a8803569df10b07372aceee57$__9163030cecc7916001600160a01b039091169063f682eeaf90602401600060405180830381865afa158015611a12573d6000803e3d6000fd5b505050506040513d6000823e601f3d908101601f19168201604052611a3a9190810190614c44565b600954604051630c8df17160e41b8152306004820152602481018890526001600160a01b039091169063c8df171090604401602060405180830381865afa158015611a89573d6000803e3d6000fd5b505050506040513d601f19601f82011682018060405250810190611aad9190614b53565b6040518363ffffffff1660e01b8152600401611aca929190614cba565b600060405180830381865af415801561197f573d6000803e3d6000fd5b6001600160a01b038216600090815260106020908152604080832084845290915281206119a790612739565b611b1b612386565b60095460405163d67b78fd60e01b81526001600160a01b039091169063d67b78fd90611b4d9085908590600401614cdc565b600060405180830381600087803b158015611b6757600080fd5b505af1158015611b7b573d6000803e3d6000fd5b505050508181604051611b8f929190614d0b565b604051908190038120338252907fd36dc0c1a06103fdcaf15f3f6fb797d1a97997514c78de073640c8b5005454b89060200160405180910390a25050565b6000438210611bef576040516305b5e09b60e51b815260040160405180910390fd5b60008381526011602052604090206119a79083612a54565b6001600160a01b03831660009081526010602090815260408083208584529091528120611c349083612a54565b949350505050565b610120810135606080611c53610160850185614943565b8080601f01602080910402602001604051908101604052809392919081815260200183838082843760009201919091525092945060019250611c93915050565b604051908082528060200260200182016040528015611cd857816020015b6040805180820190915260008082526020820152815260200190600190039081611cb15790505b5090506040518060400160405280306001600160a01b03168152602001600081525081600081518110611d0d57611d0d61478a565b60200260200101819052509193909250565b34151580611da15750600654600554604051636e49181f60e01b815260048101919091523360248201526001600160a01b0390911690636e49181f90604401602060405180830381865afa158015611d7b573d6000803e3d6000fd5b505050506040513d601f19601f82011682018060405250810190611d9f9190614926565b155b80611db25750600554816020013514155b15611dd0576040516331c57b1b60e21b815260040160405180910390fd5b611dd981612b63565b50565b611de4612386565b6009546040516317161f7d60e01b81526001600160a01b038381166004830152909116906317161f7d90602401600060405180830381600087803b158015611e2b57600080fd5b505af1158015611e3f573d6000803e3d6000fd5b50506040513381526001600160a01b03841692507fab0014d4c7a642a02a31b303a318908c22b0fb2001f107278fc6076b4c671b659150602001610ce9565b6008546001600160a01b03163003611e9557600080fd5b6009546001600160a01b031615611eab57600080fd5b611eb78b8b8b8b612e16565b600a80546001600160a01b03808a166001600160a01b031992831617909255600980548584169083161790556020850151600c556040850151600d556060850151600b8054919093169116179055855115611f6b576040516331315e5960e11b81526001600160a01b03831690636262bcb290611f38908990600401613a8b565b600060405180830381600087803b158015611f5257600080fd5b505af1158015611f66573d6000803e3d6000fd5b505050505b835115611fd15760405163d67b78fd60e01b81526001600160a01b0383169063d67b78fd90611f9e908790600401613a8b565b600060405180830381600087803b158015611fb857600080fd5b505af1158015611fcc573d6000803e3d6000fd5b505050505b6001600160a01b0385161561203c5760405163036129cb60e61b81526001600160a01b03868116600483015283169063d84a72c090602401600060405180830381600087803b15801561202357600080fd5b505af1158015612037573d6000803e3d6000fd5b505050505b825151156120ba57825160405163d0cf48a560e01b81526001600160a01b0384169163d0cf48a5916120719190600401614d1b565b6000604051808303816000875af1158015612090573d6000803e3d6000fd5b505050506040513d6000823e601f3d908101601f191682016040526120b891908101906148bf565b505b8051806120c8575080602001515b806120d4575080604001515b806120e0575080606001515b1561216657604080516365c13f1960e11b815282511515600482015260208301511515602482015290820151151560448201526060820151151560648201526001600160a01b0383169063cb827e3290608401600060405180830381600087803b15801561214d57600080fd5b505af1158015612161573d6000803e3d6000fd5b505050505b61216f336126e7565b5050505050505050505050565b600954604051630155619b60e71b81523060048201526060916001600160a01b03169063aab0cd8090602401600060405180830381865afa1580156121c5573d6000803e3d6000fd5b505050506040513d6000823e601f3d908101601f191682016040526121ed9190810190614c44565b905090565b6121fa612386565b6001600160a01b0381166122645760405162461bcd60e51b815260206004820152602660248201527f4f776e61626c653a206e6577206f776e657220697320746865207a65726f206160448201526564647265737360d01b60648201526084015b60405180910390fd5b611dd9816126e7565b60006001600160e01b0319821663b3bcbb7960e01b148061229e57506001600160e01b031982166371700c6960e01b145b806122b957506001600160e01b0319821663da9ee8b760e01b145b806122d457506001600160e01b03198216632b13c58f60e01b145b806108eb57506108eb82612e49565b6000818152600260205260409020546001600160a01b0316611dd95760405163b49aa3b560e01b815260040160405180910390fd5b600081815260036020526040902080546001600160a01b0319166001600160a01b038416908117909155819061234d8261102d565b6001600160a01b03167f8c5be1e5ebec7d5bd14f71427d1e84f3dd0314c0f7b2291e5b200ac8c7c3b92560405160405180910390a45050565b6007546001600160a01b0316331461122f5760405162461bcd60e51b815260206004820181905260248201527f4f776e61626c653a2063616c6c6572206973206e6f7420746865206f776e6572604482015260640161225b565b6000806123ec8361102d565b9050806001600160a01b0316846001600160a01b0316148061243357506001600160a01b0380821660009081526004602090815260408083209388168352929052205460ff165b80611c345750836001600160a01b031661244c84610983565b6001600160a01b031614949350505050565b826001600160a01b03166124718261102d565b6001600160a01b0316146124985760405163a195bc5360e01b815260040160405180910390fd5b6001600160a01b0382166124bf57604051632c95542760e01b815260040160405180910390fd5b6124ca838383612e99565b6124d5600082612318565b60008181526002602052604080822080546001600160a01b0319166001600160a01b0386811691821790925591518493918716917fddf252ad1be2c89b69c2b068fc378daa952ba7f163c4a11628f55a4df523b3ef91a4610a318383836130b9565b60006125428261102d565b905061255081600084612e99565b61255b600083612318565b60008281526002602052604080822080546001600160a01b0319169055518391906001600160a01b038416907fddf252ad1be2c89b69c2b068fc378daa952ba7f163c4a11628f55a4df523b3ef908390a4611311816000846130b9565b6009546040516386bc2be360e01b81526001600160a01b03909116906386bc2be3906125e890849060040161402b565b600060405180830381600087803b15801561260257600080fd5b505af1158015612616573d6000803e3d6000fd5b5050505050565b6001600160a01b03821661264457604051633904578f60e11b815260040160405180910390fd5b6000818152600260205260409020546001600160a01b03161561267a57604051632eb5f0c360e21b815260040160405180910390fd5b61268660008383612e99565b60008181526002602052604080822080546001600160a01b0319166001600160a01b03861690811790915590518392907fddf252ad1be2c89b69c2b068fc378daa952ba7f163c4a11628f55a4df523b3ef908290a4611311600083836130b9565b600780546001600160a01b038381166001600160a01b0319831681179093556040519116919082907f8be0079c531659141344cd1fd0a4f28419497f9722a3daafe3b4186f6b6457e090600090a35050565b805460009080156127825782612750600183614b9e565b815481106127605761276061478a565b60009182526020909120015464010000000090046001600160e01b0316612785565b60005b6001600160e01b03169392505050565b816001600160a01b0316836001600160a01b0316036127c7576040516306f8139d60e11b815260040160405180910390fd5b6001600160a01b03838116600081815260046020908152604080832094871680845294825291829020805460ff191686151590811790915591519182527f17307eab39ab6107e8899845ad3d59bd9653f200f220920489ca2b5937696c31910160405180910390a3505050565b60095460405163051330b560e21b81526000916001600160a01b03169063144cc2d4906111dc9030908690600401614dc0565b600954604051631572f24960e11b81523060048201526000916001600160a01b031690632ae5e49290602401602060405180830381865afa1580156128b0573d6000803e3d6000fd5b505050506040513d601f19601f820116820180604052508101906121ed9190614b53565b600080806000198587098587029250828110838203039150508060000361290e5783828161290457612904614de4565b04925050506119a7565b83811061293857604051631dcf306360e21b8152600481018290526024810185905260440161225b565b60008486880960026001871981018816978890046003810283188082028403028082028403028082028403028082028403028082028403029081029092039091026000889003889004909101858311909403939093029303949094049190911702949350505050565b6001600160a01b038381166000818152600f6020908152604080832086845290915280822080548786166001600160a01b0319821681179092559151919094169392849290917f3134e8a2e6d97e929a7e54011ea5485d7d196dd5f0ba4d4ef95803e8e3fc257f9190a4610f11818484612a1b88876131b2565b61322e565b612a2b84848461245e565b612a3784848484613383565b610f11576040516336f57c1b60e11b815260040160405180910390fd5b6000438210612aa55760405162461bcd60e51b815260206004820181905260248201527f436865636b706f696e74733a20626c6f636b206e6f7420796574206d696e6564604482015260640161225b565b825460005b81811015612b0a576000612abe8284613485565b905084866000018281548110612ad657612ad661478a565b60009182526020909120015463ffffffff161115612af657809250612b04565b612b01816001614bb1565b91505b50612aaa565b8115612b4e5784612b1c600184614b9e565b81548110612b2c57612b2c61478a565b60009182526020909120015464010000000090046001600160e01b0316612b51565b60005b6001600160e01b031695945050505050565b600c5460009060c083013503612b7e57506080810135612c34565b600b546001600160a01b03161561131157600d54612c3190608084013590612ba790600a614ede565b600b54600c54604051635268657960e11b815260c08801356004820152602481019190915260a087013560448201526001600160a01b039091169063a4d0caf290606401602060405180830381865afa158015612c08573d6000803e3d6000fd5b505050506040513d601f19601f82011682018060405250810190612c2c9190614b53565b6128d4565b90505b6000600e81612c4b6101a086016101808701613c11565b6001600160a01b0316815260208101919091526040016000908120549150612c738284614bb1565b90506000806024612c886101e0880188614943565b9050118015612ccc575063b3bcbb7960e01b612ca86101e0880188614943565b612cb791602491602091614989565b612cc0916149b3565b6001600160e01b031916145b15612d365760006060612ce36101e0890189614943565b810190612cf09190614eea565b919850965090945092505082159050612d0d575050505050505050565b805115612d3357612d308582612d2b6101a08c016101808d01613c11565b6134a0565b94505b50505b8215612dd757612d5883612d526101a089016101808a01613c11565b846135e2565b92508215612db5578015612d7f57604051631b57826960e21b815260040160405180910390fd5b82600e6000612d966101a08a016101808b01613c11565b6001600160a01b03168152602081019190915260400160002055610c11565b8315612dd2576000600e81612d966101a08a016101808b01613c11565b610c11565b8315610c11576000600e81612df46101a08a016101808b01613c11565b6001600160a01b03168152602081019190915260400160002055505050505050565b612e2082826136ec565b5050600591909155600680546001600160a01b0319166001600160a01b03909216919091179055565b60006001600160e01b031982166380ac58cd60e01b1480612e7a57506001600160e01b03198216635b5e139f60e01b145b806108eb57506301ffc9a760e01b6001600160e01b03198316146108eb565b6001600160a01b03831615610a3157600954604051634228826f60e11b81523060048201526001600160a01b039091169063845104de90602401608060405180830381865afa158015612ef0573d6000803e3d6000fd5b505050506040513d601f19601f82011682018060405250810190612f149190614f79565b6060015115612fd557600a546005546040516321d1336160e11b815260048101919091526000916001600160a01b0316906343a266c29060240161012060405180830381865afa158015612f6c573d6000803e3d6000fd5b505050506040513d601f19601f82011682018060405250810190612f909190614bc4565b90506001600160a01b03831615801590612fb5575061010081015160f41c6001908116145b15612fd3576040516318cdaf9760e01b815260040160405180910390fd5b505b6009546040516308ed6c0160e41b8152306004820152602481018390526000916001600160a01b031690638ed6c01090604401602060405180830381865afa158015613025573d6000803e3d6000fd5b505050506040513d601f19601f820116820180604052508101906130499190614a93565b6001600160a01b031603610a3157600954604051638cec7d3960e01b8152600481018390526001600160a01b03858116602483015290911690638cec7d3990604401600060405180830381600087803b1580156130a557600080fd5b505af11580156117ea573d6000803e3d6000fd5b60095460405163b67cb04760e01b8152306004820152602481018390526000916001600160a01b03169063b67cb0479060440161014060405180830381865afa15801561310a573d6000803e3d6000fd5b505050506040513d601f19601f8201168201806040525081019061312e9190614ffd565b60095481516040516330b157e560e21b815260048101919091526001600160a01b038781166024830152868116604483015292935091169063c2c55f9490606401600060405180830381600087803b15801561318957600080fd5b505af115801561319d573d6000803e3d6000fd5b505050506131ad84848484613705565b610f11565b6009546040516305c9a1d560e31b81523060048201526001600160a01b038481166024830152604482018490526000921690632e4d0ea890606401602060405180830381865afa15801561320a573d6000803e3d6000fd5b505050506040513d601f19601f820116820180604052508101906119a79190614b53565b826001600160a01b0316846001600160a01b0316148061324c575080155b610f11576001600160a01b038416156132e7576001600160a01b038416600090815260106020908152604080832085845290915281208190613291906137238561372f565b60408051828152602081018890523381830152905192945090925083916001600160a01b038916917fed0c1e94c302bdbbd8bbd6a4fb7c3ed335c2292407cd816eadd075d019d0ce04919081900360600190a350505b6001600160a01b03831615610f11576001600160a01b0383166000908152601060209081526040808320858452909152812081906133289061375d8561372f565b60408051838152602081018390523381830152905192945090925085916001600160a01b038816917fed0c1e94c302bdbbd8bbd6a4fb7c3ed335c2292407cd816eadd075d019d0ce04919081900360600190a3505050505050565b60006001600160a01b0384163b1561347a57604051630a85bd0160e11b81526001600160a01b0385169063150b7a02906133c790339089908890889060040161508d565b6020604051808303816000875af1925050508015613402575060408051601f3d908101601f191682019092526133ff918101906150ca565b60015b613460573d808015613430576040519150601f19603f3d011682016040523d82523d6000602084013e613435565b606091505b508051600003613458576040516336f57c1b60e11b815260040160405180910390fd5b805181602001fd5b6001600160e01b031916630a85bd0160e11b149050611c34565b506001949350505050565b600061349460028484186150e7565b6119a790848416614bb1565b60095460405163eaa19ab360e01b81526000916060916001600160a01b039091169063eaa19ab3906134da90889088908790600401614ab0565b6000604051808303816000875af11580156134f9573d6000803e3d6000fd5b505050506040513d6000823e601f3d908101601f191682016040526135219190810190614b0d565b81519093509091506000805b828110156135d7578381815181106135475761354761478a565b6020026020010151915061355b868361261d565b856001600160a01b03168782815181106135775761357761478a565b602002602001015161ffff16837f598baf7bf150ca2f42be9e9f8f55e81d45f5715c3ff22bf46d697fabec7f31d68b336040516135c79291909182526001600160a01b0316602082015260400190565b60405180910390a460010161352d565b505050509392505050565b60095460405163879791f360e01b815260048101859052600091829182916001600160a01b03169063879791f3906024016060604051808303816000875af1158015613632573d6000803e3d6000fd5b505050506040513d601f19601f820116820180604052508101906136569190615109565b94509092509050600082900361368c57831561368557604051630e5313df60e41b815260040160405180910390fd5b50506119a7565b613696858361261d565b6001600160a01b03851681837f598baf7bf150ca2f42be9e9f8f55e81d45f5715c3ff22bf46d697fabec7f31d66136cd878b614b9e565b604080519182523360208301520160405180910390a450509392505050565b60006136f8838261517d565b506001610a31828261517d565b60a081015115610f1157610f11848483600001518460a00151613769565b60006119a78284614b9e565b6000806137518561374c61374288612739565b868863ffffffff16565b61380b565b91509150935093915050565b60006119a78284614bb1565b6001600160a01b0384166137955760008281526011602052604090206137929061375d8361372f565b50505b6001600160a01b0383166137c15760008281526011602052604090206137be906137238361372f565b50505b6001600160a01b038085166000908152600f60208181526040808420878552825280842054888616855292825280842087855290915290912054610f11929182169116848461322e565b815460009081908161381c86612739565b905060008211801561385a57504386613836600185614b9e565b815481106138465761384661478a565b60009182526020909120015463ffffffff16145b156138ba5761386885613936565b86613874600185614b9e565b815481106138845761388461478a565b9060005260206000200160000160046101000a8154816001600160e01b0302191690836001600160e01b03160217905550613928565b8560000160405180604001604052806138d2436139a3565b63ffffffff1681526020016138e688613936565b6001600160e01b0390811690915282546001810184556000938452602093849020835194909301519091166401000000000263ffffffff909316929092179101555b9250839150505b9250929050565b60006001600160e01b0382111561399f5760405162461bcd60e51b815260206004820152602760248201527f53616665436173743a2076616c756520646f65736e27742066697420696e20326044820152663234206269747360c81b606482015260840161225b565b5090565b600063ffffffff82111561399f5760405162461bcd60e51b815260206004820152602660248201527f53616665436173743a2076616c756520646f65736e27742066697420696e203360448201526532206269747360d01b606482015260840161225b565b6001600160e01b031981168114611dd957600080fd5b600060208284031215613a3057600080fd5b81356119a781613a08565b60005b83811015613a56578181015183820152602001613a3e565b50506000910152565b60008151808452613a77816020860160208601613a3b565b601f01601f19169290920160200192915050565b6020815260006119a76020830184613a5f565b600060208284031215613ab057600080fd5b5035919050565b6001600160a01b0381168114611dd957600080fd5b8035613ad781613ab7565b919050565b60008060408385031215613aef57600080fd5b8235613afa81613ab7565b946020939093013593505050565b60008060008060408587031215613b1e57600080fd5b84356001600160401b0380821115613b3557600080fd5b818701915087601f830112613b4957600080fd5b813581811115613b5857600080fd5b88602061012083028501011115613b6e57600080fd5b602092830196509450908601359080821115613b8957600080fd5b818701915087601f830112613b9d57600080fd5b813581811115613bac57600080fd5b8860208260051b8501011115613bc157600080fd5b95989497505060200194505050565b600080600060608486031215613be557600080fd5b8335613bf081613ab7565b92506020840135613c0081613ab7565b929592945050506040919091013590565b600060208284031215613c2357600080fd5b81356119a781613ab7565b634e487b7160e01b600052604160045260246000fd5b604080519081016001600160401b0381118282101715613c6657613c66613c2e565b60405290565b604051608081016001600160401b0381118282101715613c6657613c66613c2e565b60405161012081016001600160401b0381118282101715613c6657613c66613c2e565b60405161014081016001600160401b0381118282101715613c6657613c66613c2e565b604051601f8201601f191681016001600160401b0381118282101715613cfc57613cfc613c2e565b604052919050565b60006001600160401b03821115613d1d57613d1d613c2e565b5060051b60200190565b60006020808385031215613d3a57600080fd5b82356001600160401b03811115613d5057600080fd5b8301601f81018513613d6157600080fd5b8035613d74613d6f82613d04565b613cd4565b81815260069190911b82018301908381019087831115613d9357600080fd5b928401925b82841015613dd65760408489031215613db15760008081fd5b613db9613c44565b843581528585013586820152825260409093019290840190613d98565b979650505050505050565b60006101e08284031215613df457600080fd5b50919050565b600060208284031215613e0c57600080fd5b81356001600160401b03811115613e2257600080fd5b611c3484828501613de1565b600082601f830112613e3f57600080fd5b81356020613e4f613d6f83613d04565b82815260059290921b84018101918181019086841115613e6e57600080fd5b8286015b84811015613e9a57803561ffff81168114613e8d5760008081fd5b8352918301918301613e72565b509695505050505050565b60006020808385031215613eb857600080fd5b82356001600160401b0380821115613ecf57600080fd5b818501915085601f830112613ee357600080fd5b8135613ef1613d6f82613d04565b81815260059190911b83018401908481019088831115613f1057600080fd5b8585015b83811015613f9257803585811115613f2c5760008081fd5b86016040818c03601f1901811315613f445760008081fd5b613f4c613c44565b8983013588811115613f5e5760008081fd5b613f6c8e8c83870101613e2e565b8252509181013591613f7d83613ab7565b808a0192909252508352918601918601613f14565b5098975050505050505050565b60008060408385031215613fb257600080fd5b82356001600160401b03811115613fc857600080fd5b613fd485828601613e2e565b9250506020830135613fe581613ab7565b809150509250929050565b600081518084526020808501945080840160005b8381101561402057815187529582019590820190600101614004565b509495945050505050565b6020815260006119a76020830184613ff0565b60006001600160401b0382111561405757614057613c2e565b50601f01601f191660200190565b6000614073613d6f8461403e565b905082815283838301111561408757600080fd5b828260208301376000602084830101529392505050565b600082601f8301126140af57600080fd5b6119a783833560208501614065565b6000602082840312156140d057600080fd5b81356001600160401b038111156140e657600080fd5b611c348482850161409e565b8015158114611dd957600080fd5b8035613ad7816140f2565b6000806040838503121561411e57600080fd5b823561412981613ab7565b91506020830135613fe5816140f2565b838152600060206060818401526141536060840186613a5f565b83810360408581019190915285518083528387019284019060005b8181101561419c57845180516001600160a01b0316845286015186840152938501939183019160010161416e565b50909998505050505050505050565b600080604083850312156141be57600080fd5b50508035926020909101359150565b600080600080608085870312156141e357600080fd5b84356141ee81613ab7565b935060208501356141fe81613ab7565b92506040850135915060608501356001600160401b0381111561422057600080fd5b8501601f8101871361423157600080fd5b61424087823560208401614065565b91505092959194509250565b6000602080838503121561425f57600080fd5b82356001600160401b0381111561427557600080fd5b8301601f8101851361428657600080fd5b8035614294613d6f82613d04565b81815260069190911b820183019083810190878311156142b357600080fd5b928401925b82841015613dd657604084890312156142d15760008081fd5b6142d9613c44565b84356142e481613ab7565b815284860135868201528252604090930192908401906142b8565b6000806020838503121561431257600080fd5b82356001600160401b038082111561432957600080fd5b818501915085601f83011261433d57600080fd5b81358181111561434c57600080fd5b86602082850101111561435e57600080fd5b60209290920196919550909350505050565b60008060006060848603121561438557600080fd5b833561439081613ab7565b95602085013595506040909401359392505050565b6000602082840312156143b757600080fd5b81356001600160401b038111156143cd57600080fd5b82016101a081850312156119a757600080fd5b6000602082840312156143f257600080fd5b81356001600160401b0381111561440857600080fd5b820161020081850312156119a757600080fd5b6000608080838503121561442e57600080fd5b614436613c6c565b915082356001600160401b0381111561444e57600080fd5b8301601f8101851361445f57600080fd5b8035602061446f613d6f83613d04565b828152610120928302840182019282820191908985111561448f57600080fd5b948301945b848610156145295780868b0312156144ac5760008081fd5b6144b4613c8e565b8635815284870135858201526040808801359082015260608088013590820152878701358882015260a06144e9818901613acc565b9082015260c0878101359082015260e0614504818901614100565b90820152610100614516888201614100565b9082015283529485019491830191614494565b5086525085810135908501525050506040808301359082015261454e60608301613acc565b606082015292915050565b60006080828403121561456b57600080fd5b614573613c6c565b90508135614580816140f2565b81526020820135614590816140f2565b602082015260408201356145a3816140f2565b6040820152606082013561454e816140f2565b60008060008060008060008060008060006101c08c8e0312156145d857600080fd5b8b359a506145e860208d01613acc565b99506001600160401b038060408e0135111561460357600080fd5b6146138e60408f01358f0161409e565b99508060608e0135111561462657600080fd5b6146368e60608f01358f0161409e565b985061464460808e01613acc565b97508060a08e0135111561465757600080fd5b6146678e60a08f01358f0161409e565b965061467560c08e01613acc565b95508060e08e0135111561468857600080fd5b6146988e60e08f01358f0161409e565b9450806101008e013511156146ac57600080fd5b506146be8d6101008e01358e0161441b565b92506146cd6101208d01613acc565b91506146dd8d6101408e01614559565b90509295989b509295989b9093969950565b6000806040838503121561470257600080fd5b823561470d81613ab7565b91506020830135613fe581613ab7565b600181811c9082168061473157607f821691505b602082108103613df457634e487b7160e01b600052602260045260246000fd5b6020808252810182905260006001600160fb1b0383111561477157600080fd5b8260051b80856040850137919091016040019392505050565b634e487b7160e01b600052603260045260246000fd5b803582526020810135602083015260408101356040830152606081013560608301526080810135608083015260a08101356147da81613ab7565b6001600160a01b031660a083015260c0818101359083015260e0810135614800816140f2565b151560e0830152610100614815828201614100565b80151584830152610f11565b6020808252810182905260008360408301825b8581101561485a5761484682846147a0565b610120928301929190910190600101614834565b5095945050505050565b600082601f83011261487557600080fd5b81516020614885613d6f83613d04565b82815260059290921b840181019181810190868411156148a457600080fd5b8286015b84811015613e9a57805183529183019183016148a8565b6000602082840312156148d157600080fd5b81516001600160401b038111156148e757600080fd5b611c3484828501614864565b610140810161490282856147a0565b6001600160a01b03929092166101209190910152919050565b8051613ad7816140f2565b60006020828403121561493857600080fd5b81516119a7816140f2565b6000808335601e1984360301811261495a57600080fd5b8301803591506001600160401b0382111561497457600080fd5b60200191503681900382131561392f57600080fd5b6000808585111561499957600080fd5b838611156149a657600080fd5b5050820193919092039150565b6001600160e01b031981358181169160048510156149db5780818660040360031b1b83161692505b505092915050565b600080604083850312156149f657600080fd5b8235614a0181613a08565b91506020838101356001600160401b03811115614a1d57600080fd5b8401601f81018613614a2e57600080fd5b8035614a3c613d6f82613d04565b81815260059190911b82018301908381019088831115614a5b57600080fd5b928401925b82841015614a7957833582529284019290840190614a60565b80955050505050509250929050565b8051613ad781613ab7565b600060208284031215614aa557600080fd5b81516119a781613ab7565b6000606082018583526020606081850152818651808452608086019150828801935060005b81811015614af557845161ffff1683529383019391830191600101614ad5565b50508093505050508215156040830152949350505050565b60008060408385031215614b2057600080fd5b82516001600160401b03811115614b3657600080fd5b614b4285828601614864565b925050602083015190509250929050565b600060208284031215614b6557600080fd5b5051919050565b60008251614b7e818460208701613a3b565b9190910192915050565b634e487b7160e01b600052601160045260246000fd5b818103818111156108eb576108eb614b88565b808201808211156108eb576108eb614b88565b60006101208284031215614bd757600080fd5b614bdf613c8e565b825181526020830151602082015260408301516040820152606083015160608201526080830151608082015260a083015160a082015260c083015160c0820152614c2b60e08401614a88565b60e0820152610100928301519281019290925250919050565b600060208284031215614c5657600080fd5b81516001600160401b03811115614c6c57600080fd5b8201601f81018413614c7d57600080fd5b8051614c8b613d6f8261403e565b818152856020838501011115614ca057600080fd5b614cb1826020830160208601613a3b565b95945050505050565b604081526000614ccd6040830185613a5f565b90508260208301529392505050565b60208152816020820152818360408301376000818301604090810191909152601f909201601f19160101919050565b8183823760009101908152919050565b602080825282518282018190526000919060409081850190868401855b82811015614db35781518051855286810151878601528581015186860152606080820151908601526080808201519086015260a0808201516001600160a01b03169086015260c0808201519086015260e080820151151590860152610100908101511515908501526101209093019290850190600101614d38565b5091979650505050505050565b6001600160a01b0383168152604060208201819052600090611c3490830184613ff0565b634e487b7160e01b600052601260045260246000fd5b600181815b80851115614e35578160001904821115614e1b57614e1b614b88565b80851615614e2857918102915b93841c9390800290614dff565b509250929050565b600082614e4c575060016108eb565b81614e59575060006108eb565b8160018114614e6f5760028114614e7957614e95565b60019150506108eb565b60ff841115614e8a57614e8a614b88565b50506001821b6108eb565b5060208310610133831016604e8410600b8410161715614eb8575081810a6108eb565b614ec28383614dfa565b8060001904821115614ed657614ed6614b88565b029392505050565b60006119a78383614e3d565b60008060008060008060c08789031215614f0357600080fd5b863595506020870135614f1581613a08565b94506040870135614f25816140f2565b93506060870135614f35816140f2565b92506080870135614f45816140f2565b915060a08701356001600160401b03811115614f6057600080fd5b614f6c89828a01613e2e565b9150509295509295509295565b600060808284031215614f8b57600080fd5b604051608081018181106001600160401b0382111715614fad57614fad613c2e565b6040528251614fbb816140f2565b81526020830151614fcb816140f2565b60208201526040830151614fde816140f2565b60408201526060830151614ff1816140f2565b60608201529392505050565b6000610140828403121561501057600080fd5b615018613cb1565b825181526020830151602082015260408301516040820152606083015160608201526080830151608082015260a083015160a082015260c083015160c082015261506460e08401614a88565b60e0820152610100838101519082015261012061508281850161491b565b908201529392505050565b6001600160a01b03858116825284166020820152604081018390526080606082018190526000906150c090830184613a5f565b9695505050505050565b6000602082840312156150dc57600080fd5b81516119a781613a08565b60008261510457634e487b7160e01b600052601260045260246000fd5b500490565b60008060006060848603121561511e57600080fd5b8351925060208401519150604084015190509250925092565b601f821115610a3157600081815260208120601f850160051c8101602086101561515e5750805b601f850160051c820191505b81811015610c115782815560010161516a565b81516001600160401b0381111561519657615196613c2e565b6151aa816151a4845461471d565b84615137565b602080601f8311600181146151df57600084156151c75750858301515b600019600386901b1c1916600185901b178555610c11565b600085815260208120601f198616915b8281101561520e578886015182559484019460019091019084016151ef565b508582101561522c5787850151600019600388901b60f8161c191681555b5050505050600190811b0190555056fea2646970667358221220f302c583e3a4e738d8210d921cd95c62c773f5bc46a3024b2413db02bd3be63464736f6c63430008100033",
    "linkReferences": {
      "contracts/libraries/JBIpfsDecoder.sol": {
        "JBIpfsDecoder": [
          {
            "start": 6749,
            "length": 20
          }
        ]
      }
    }
  },
  "methodIdentifiers": {
    "adjustTiers((uint256,uint256,uint256,uint256,uint256,address,bytes32,bool,bool)[],uint256[])": "211eb001",
    "approve(address,uint256)": "095ea7b3",
    "balanceOf(address)": "70a08231",
    "contractURI()": "e8a3d485",
    "creditsOf(address)": "245a45b5",
    "didPay((address,uint256,uint256,(address,uint256,uint256,uint256),(address,uint256,uint256,uint256),uint256,address,bool,string,bytes))": "da9ee8b7",
    "didRedeem((address,uint256,uint256,uint256,(address,uint256,uint256,uint256),(address,uint256,uint256,uint256),address,string,bytes))": "2b13c58f",
    "directory()": "c41c2f24",
    "firstOwnerOf(uint256)": "54c6d1f5",
    "fundingCycleStore()": "557e7155",
    "getApproved(uint256)": "081812fc",
    "getPastTierTotalVotes(uint256,uint256)": "d31cc52c",
    "getPastTierVotes(address,uint256,uint256)": "d40e7146",
    "getTierDelegate(address,uint256)": "82732b6d",
    "getTierTotalVotes(uint256)": "94c5c5ca",
    "getTierVotes(address,uint256)": "ca323efe",
    "initialize(uint256,address,string,string,address,string,address,string,((uint256,uint256,uint256,uint256,uint256,address,bytes32,bool,bool)[],uint256,uint256,address),address,(bool,bool,bool,bool))": "dfedb3af",
    "isApprovedForAll(address,address)": "e985e9c5",
    "mintFor((uint16[],address)[])": "36c1a93b",
    "mintFor(uint16[],address)": "6ac6d941",
    "mintReservesFor((uint256,uint256)[])": "2a596e53",
    "mintReservesFor(uint256,uint256)": "aa4fb15b",
    "name()": "06fdde03",
    "owner()": "8da5cb5b",
    "ownerOf(uint256)": "6352211e",
    "payParams((address,address,(address,uint256,uint256,uint256),uint256,uint256,address,uint256,uint256,string,bytes))": "d46cf171",
    "prices()": "d3419bf3",
    "pricingCurrency()": "64640c1e",
    "pricingDecimals()": "4ecba625",
    "projectId()": "3fafa127",
    "redeemParams((address,address,uint256,uint256,uint256,uint256,uint256,(address,uint256,uint256,uint256),bool,uint256,string,bytes))": "a51cfd18",
    "renounceOwnership()": "715018a6",
    "safeTransferFrom(address,address,uint256)": "42842e0e",
    "safeTransferFrom(address,address,uint256,bytes)": "b88d4fde",
    "setApprovalForAll(address,bool)": "a22cb465",
    "setBaseUri(string)": "a0bcfc7f",
    "setContractUri(string)": "ccb4807b",
    "setDefaultReservedTokenBeneficiary(address)": "df487e26",
    "setTierDelegate(address,uint256)": "ab951e39",
    "setTierDelegates((address,uint256)[])": "c74b13d9",
    "setTokenUriResolver(address)": "2407497e",
    "store()": "975057e7",
    "supportsInterface(bytes4)": "01ffc9a7",
    "symbol()": "95d89b41",
    "tokenURI(uint256)": "c87b56dd",
    "transferFrom(address,address,uint256)": "23b872dd",
    "transferOwnership(address)": "f2fde38b"
  },
  "id": 1
}