{
  "abi": [
    {
      "inputs": [],
      "name": "ALEADY_MINTED",
      "type": "error"
    },
    {
      "inputs": [],
      "name": "APPROVAL_TO_CURRENT_OWNER",
      "type": "error"
    },
    {
      "inputs": [],
      "name": "APPROVE_TO_CALLER",
      "type": "error"
    },
    {
      "inputs": [],
      "name": "BLOCK_NOT_YET_MINED",
      "type": "error"
    },
    {
      "inputs": [],
      "name": "CALLER_NOT_OWNER_OR_APPROVED",
      "type": "error"
    },
    {
      "inputs": [],
      "name": "DELEGATE_ADDRESS_ZERO",
      "type": "error"
    },
    {
      "inputs": [],
      "name": "INCORRECT_OWNER",
      "type": "error"
    },
    {
      "inputs": [],
      "name": "INVALID_PAYMENT_EVENT",
      "type": "error"
    },
    {
      "inputs": [],
      "name": "INVALID_REDEMPTION_EVENT",
      "type": "error"
    },
    {
      "inputs": [],
      "name": "INVALID_REDEMPTION_METADATA",
      "type": "error"
    },
    {
      "inputs": [],
      "name": "INVALID_TOKEN_ID",
      "type": "error"
    },
    {
      "inputs": [],
      "name": "MINT_TO_ZERO",
      "type": "error"
    },
    {
      "inputs": [],
      "name": "NOT_AVAILABLE",
      "type": "error"
    },
    {
      "inputs": [],
      "name": "OVERSPENDING",
      "type": "error"
    },
    {
      "inputs": [
        {
          "internalType": "uint256",
          "name": "prod1",
          "type": "uint256"
        },
        {
          "internalType": "uint256",
          "name": "denominator",
          "type": "uint256"
        }
      ],
      "name": "PRBMath__MulDivOverflow",
      "type": "error"
    },
    {
      "inputs": [],
      "name": "PRICING_RESOLVER_CHANGES_PAUSED",
      "type": "error"
    },
    {
      "inputs": [],
      "name": "RESERVED_TOKEN_MINTING_PAUSED",
      "type": "error"
    },
    {
      "inputs": [],
      "name": "TRANSFERS_PAUSED",
      "type": "error"
    },
    {
      "inputs": [],
      "name": "TRANSFER_TO_NON_IMPLEMENTER",
      "type": "error"
    },
    {
      "inputs": [],
      "name": "TRANSFER_TO_ZERO_ADDRESS",
      "type": "error"
    },
    {
      "inputs": [],
      "name": "UNAUTHORIZED",
      "type": "error"
    },
    {
      "inputs": [],
      "name": "UNEXPECTED_TOKEN_REDEEMED",
      "type": "error"
    },
    {
      "anonymous": false,
      "inputs": [
        {
          "indexed": true,
          "internalType": "uint256",
          "name": "tierId",
          "type": "uint256"
        },
        {
          "components": [
            {
              "internalType": "uint80",
              "name": "contributionFloor",
              "type": "uint80"
            },
            {
              "internalType": "uint48",
              "name": "lockedUntil",
              "type": "uint48"
            },
            {
              "internalType": "uint40",
              "name": "initialQuantity",
              "type": "uint40"
            },
            {
              "internalType": "uint16",
              "name": "votingUnits",
              "type": "uint16"
            },
            {
              "internalType": "uint16",
              "name": "reservedRate",
              "type": "uint16"
            },
            {
              "internalType": "address",
              "name": "reservedTokenBeneficiary",
              "type": "address"
            },
            {
              "internalType": "bytes32",
              "name": "encodedIPFSUri",
              "type": "bytes32"
            },
            {
              "internalType": "bool",
              "name": "allowManualMint",
              "type": "bool"
            },
            {
              "internalType": "bool",
              "name": "shouldUseBeneficiaryAsDefault",
              "type": "bool"
            },
            {
              "internalType": "bool",
              "name": "transfersPausable",
              "type": "bool"
            }
          ],
          "indexed": false,
          "internalType": "struct JB721TierParams",
          "name": "data",
          "type": "tuple"
        },
        {
          "indexed": false,
          "internalType": "address",
          "name": "caller",
          "type": "address"
        }
      ],
      "name": "AddTier",
      "type": "event"
    },
    {
      "anonymous": false,
      "inputs": [
        {
          "indexed": true,
          "internalType": "address",
          "name": "owner",
          "type": "address"
        },
        {
          "indexed": true,
          "internalType": "address",
          "name": "approved",
          "type": "address"
        },
        {
          "indexed": true,
          "internalType": "uint256",
          "name": "tokenId",
          "type": "uint256"
        }
      ],
      "name": "Approval",
      "type": "event"
    },
    {
      "anonymous": false,
      "inputs": [
        {
          "indexed": true,
          "internalType": "address",
          "name": "owner",
          "type": "address"
        },
        {
          "indexed": true,
          "internalType": "address",
          "name": "operator",
          "type": "address"
        },
        {
          "indexed": false,
          "internalType": "bool",
          "name": "approved",
          "type": "bool"
        }
      ],
      "name": "ApprovalForAll",
      "type": "event"
    },
    {
      "anonymous": false,
      "inputs": [
        {
          "indexed": true,
          "internalType": "address",
          "name": "delegator",
          "type": "address"
        },
        {
          "indexed": true,
          "internalType": "address",
          "name": "fromDelegate",
          "type": "address"
        },
        {
          "indexed": true,
          "internalType": "address",
          "name": "toDelegate",
          "type": "address"
        }
      ],
      "name": "DelegateChanged",
      "type": "event"
    },
    {
      "anonymous": false,
      "inputs": [
        {
          "indexed": true,
          "internalType": "uint256",
          "name": "tokenId",
          "type": "uint256"
        },
        {
          "indexed": true,
          "internalType": "uint256",
          "name": "tierId",
          "type": "uint256"
        },
        {
          "indexed": true,
          "internalType": "address",
          "name": "beneficiary",
          "type": "address"
        },
        {
          "indexed": false,
          "internalType": "uint256",
          "name": "totalAmountContributed",
          "type": "uint256"
        },
        {
          "indexed": false,
          "internalType": "address",
          "name": "caller",
          "type": "address"
        }
      ],
      "name": "Mint",
      "type": "event"
    },
    {
      "anonymous": false,
      "inputs": [
        {
          "indexed": true,
          "internalType": "uint256",
          "name": "tokenId",
          "type": "uint256"
        },
        {
          "indexed": true,
          "internalType": "uint256",
          "name": "tierId",
          "type": "uint256"
        },
        {
          "indexed": true,
          "internalType": "address",
          "name": "beneficiary",
          "type": "address"
        },
        {
          "indexed": false,
          "internalType": "address",
          "name": "caller",
          "type": "address"
        }
      ],
      "name": "MintReservedToken",
      "type": "event"
    },
    {
      "anonymous": false,
      "inputs": [
        {
          "indexed": true,
          "internalType": "address",
          "name": "previousOwner",
          "type": "address"
        },
        {
          "indexed": true,
          "internalType": "address",
          "name": "newOwner",
          "type": "address"
        }
      ],
      "name": "OwnershipTransferred",
      "type": "event"
    },
    {
      "anonymous": false,
      "inputs": [
        {
          "indexed": true,
          "internalType": "uint256",
          "name": "tierId",
          "type": "uint256"
        },
        {
          "indexed": false,
          "internalType": "address",
          "name": "caller",
          "type": "address"
        }
      ],
      "name": "RemoveTier",
      "type": "event"
    },
    {
      "anonymous": false,
      "inputs": [
        {
          "indexed": true,
          "internalType": "string",
          "name": "baseUri",
          "type": "string"
        },
        {
          "indexed": false,
          "internalType": "address",
          "name": "caller",
          "type": "address"
        }
      ],
      "name": "SetBaseUri",
      "type": "event"
    },
    {
      "anonymous": false,
      "inputs": [
        {
          "indexed": true,
          "internalType": "string",
          "name": "contractUri",
          "type": "string"
        },
        {
          "indexed": false,
          "internalType": "address",
          "name": "caller",
          "type": "address"
        }
      ],
      "name": "SetContractUri",
      "type": "event"
    },
    {
      "anonymous": false,
      "inputs": [
        {
          "indexed": true,
          "internalType": "address",
          "name": "beneficiary",
          "type": "address"
        },
        {
          "indexed": false,
          "internalType": "address",
          "name": "caller",
          "type": "address"
        }
      ],
      "name": "SetDefaultReservedTokenBeneficiary",
      "type": "event"
    },
    {
      "anonymous": false,
      "inputs": [
        {
          "indexed": true,
          "internalType": "contract IJBTokenUriResolver",
          "name": "newResolver",
          "type": "address"
        },
        {
          "indexed": false,
          "internalType": "address",
          "name": "caller",
          "type": "address"
        }
      ],
      "name": "SetTokenUriResolver",
      "type": "event"
    },
    {
      "anonymous": false,
      "inputs": [
        {
          "indexed": true,
          "internalType": "address",
          "name": "delegator",
          "type": "address"
        },
        {
          "indexed": true,
          "internalType": "address",
          "name": "fromDelegate",
          "type": "address"
        },
        {
          "indexed": true,
          "internalType": "address",
          "name": "toDelegate",
          "type": "address"
        },
        {
          "indexed": false,
          "internalType": "uint256",
          "name": "tierId",
          "type": "uint256"
        },
        {
          "indexed": false,
          "internalType": "address",
          "name": "caller",
          "type": "address"
        }
      ],
      "name": "TierDelegateChanged",
      "type": "event"
    },
    {
      "anonymous": false,
      "inputs": [
        {
          "indexed": true,
          "internalType": "address",
          "name": "delegate",
          "type": "address"
        },
        {
          "indexed": true,
          "internalType": "uint256",
          "name": "tierId",
          "type": "uint256"
        },
        {
          "indexed": false,
          "internalType": "uint256",
          "name": "previousBalance",
          "type": "uint256"
        },
        {
          "indexed": false,
          "internalType": "uint256",
          "name": "newBalance",
          "type": "uint256"
        },
        {
          "indexed": false,
          "internalType": "address",
          "name": "callre",
          "type": "address"
        }
      ],
      "name": "TierDelegateVotesChanged",
      "type": "event"
    },
    {
      "anonymous": false,
      "inputs": [
        {
          "indexed": true,
          "internalType": "address",
          "name": "from",
          "type": "address"
        },
        {
          "indexed": true,
          "internalType": "address",
          "name": "to",
          "type": "address"
        },
        {
          "indexed": true,
          "internalType": "uint256",
          "name": "tokenId",
          "type": "uint256"
        }
      ],
      "name": "Transfer",
      "type": "event"
    },
    {
      "inputs": [
        {
          "components": [
            {
              "internalType": "uint80",
              "name": "contributionFloor",
              "type": "uint80"
            },
            {
              "internalType": "uint48",
              "name": "lockedUntil",
              "type": "uint48"
            },
            {
              "internalType": "uint40",
              "name": "initialQuantity",
              "type": "uint40"
            },
            {
              "internalType": "uint16",
              "name": "votingUnits",
              "type": "uint16"
            },
            {
              "internalType": "uint16",
              "name": "reservedRate",
              "type": "uint16"
            },
            {
              "internalType": "address",
              "name": "reservedTokenBeneficiary",
              "type": "address"
            },
            {
              "internalType": "bytes32",
              "name": "encodedIPFSUri",
              "type": "bytes32"
            },
            {
              "internalType": "bool",
              "name": "allowManualMint",
              "type": "bool"
            },
            {
              "internalType": "bool",
              "name": "shouldUseBeneficiaryAsDefault",
              "type": "bool"
            },
            {
              "internalType": "bool",
              "name": "transfersPausable",
              "type": "bool"
            }
          ],
          "internalType": "struct JB721TierParams[]",
          "name": "_tiersToAdd",
          "type": "tuple[]"
        },
        {
          "internalType": "uint256[]",
          "name": "_tierIdsToRemove",
          "type": "uint256[]"
        }
      ],
      "name": "adjustTiers",
      "outputs": [],
      "stateMutability": "nonpayable",
      "type": "function"
    },
    {
      "inputs": [
        {
          "internalType": "address",
          "name": "to",
          "type": "address"
        },
        {
          "internalType": "uint256",
          "name": "tokenId",
          "type": "uint256"
        }
      ],
      "name": "approve",
      "outputs": [],
      "stateMutability": "nonpayable",
      "type": "function"
    },
    {
      "inputs": [
        {
          "internalType": "address",
          "name": "_owner",
          "type": "address"
        }
      ],
      "name": "balanceOf",
      "outputs": [
        {
          "internalType": "uint256",
          "name": "balance",
          "type": "uint256"
        }
      ],
      "stateMutability": "view",
      "type": "function"
    },
    {
      "inputs": [],
      "name": "codeOrigin",
      "outputs": [
        {
          "internalType": "address",
          "name": "",
          "type": "address"
        }
      ],
      "stateMutability": "view",
      "type": "function"
    },
    {
      "inputs": [],
      "name": "contractURI",
      "outputs": [
        {
          "internalType": "string",
          "name": "",
          "type": "string"
        }
      ],
      "stateMutability": "view",
      "type": "function"
    },
    {
      "inputs": [
        {
          "internalType": "address",
          "name": "",
          "type": "address"
        }
      ],
      "name": "creditsOf",
      "outputs": [
        {
          "internalType": "uint256",
          "name": "",
          "type": "uint256"
        }
      ],
      "stateMutability": "view",
      "type": "function"
    },
    {
      "inputs": [
        {
          "components": [
            {
              "internalType": "address",
              "name": "payer",
              "type": "address"
            },
            {
              "internalType": "uint256",
              "name": "projectId",
              "type": "uint256"
            },
            {
              "internalType": "uint256",
              "name": "currentFundingCycleConfiguration",
              "type": "uint256"
            },
            {
              "components": [
                {
                  "internalType": "address",
                  "name": "token",
                  "type": "address"
                },
                {
                  "internalType": "uint256",
                  "name": "value",
                  "type": "uint256"
                },
                {
                  "internalType": "uint256",
                  "name": "decimals",
                  "type": "uint256"
                },
                {
                  "internalType": "uint256",
                  "name": "currency",
                  "type": "uint256"
                }
              ],
              "internalType": "struct JBTokenAmount",
              "name": "amount",
              "type": "tuple"
            },
            {
              "components": [
                {
                  "internalType": "address",
                  "name": "token",
                  "type": "address"
                },
                {
                  "internalType": "uint256",
                  "name": "value",
                  "type": "uint256"
                },
                {
                  "internalType": "uint256",
                  "name": "decimals",
                  "type": "uint256"
                },
                {
                  "internalType": "uint256",
                  "name": "currency",
                  "type": "uint256"
                }
              ],
              "internalType": "struct JBTokenAmount",
              "name": "forwardedAmount",
              "type": "tuple"
            },
            {
              "internalType": "uint256",
              "name": "projectTokenCount",
              "type": "uint256"
            },
            {
              "internalType": "address",
              "name": "beneficiary",
              "type": "address"
            },
            {
              "internalType": "bool",
              "name": "preferClaimedTokens",
              "type": "bool"
            },
            {
              "internalType": "string",
              "name": "memo",
              "type": "string"
            },
            {
              "internalType": "bytes",
              "name": "metadata",
              "type": "bytes"
            }
          ],
          "internalType": "struct JBDidPayData",
          "name": "_data",
          "type": "tuple"
        }
      ],
      "name": "didPay",
      "outputs": [],
      "stateMutability": "payable",
      "type": "function"
    },
    {
      "inputs": [
        {
          "components": [
            {
              "internalType": "address",
              "name": "holder",
              "type": "address"
            },
            {
              "internalType": "uint256",
              "name": "projectId",
              "type": "uint256"
            },
            {
              "internalType": "uint256",
              "name": "currentFundingCycleConfiguration",
              "type": "uint256"
            },
            {
              "internalType": "uint256",
              "name": "projectTokenCount",
              "type": "uint256"
            },
            {
              "components": [
                {
                  "internalType": "address",
                  "name": "token",
                  "type": "address"
                },
                {
                  "internalType": "uint256",
                  "name": "value",
                  "type": "uint256"
                },
                {
                  "internalType": "uint256",
                  "name": "decimals",
                  "type": "uint256"
                },
                {
                  "internalType": "uint256",
                  "name": "currency",
                  "type": "uint256"
                }
              ],
              "internalType": "struct JBTokenAmount",
              "name": "reclaimedAmount",
              "type": "tuple"
            },
            {
              "components": [
                {
                  "internalType": "address",
                  "name": "token",
                  "type": "address"
                },
                {
                  "internalType": "uint256",
                  "name": "value",
                  "type": "uint256"
                },
                {
                  "internalType": "uint256",
                  "name": "decimals",
                  "type": "uint256"
                },
                {
                  "internalType": "uint256",
                  "name": "currency",
                  "type": "uint256"
                }
              ],
              "internalType": "struct JBTokenAmount",
              "name": "forwardedAmount",
              "type": "tuple"
            },
            {
              "internalType": "address payable",
              "name": "beneficiary",
              "type": "address"
            },
            {
              "internalType": "string",
              "name": "memo",
              "type": "string"
            },
            {
              "internalType": "bytes",
              "name": "metadata",
              "type": "bytes"
            }
          ],
          "internalType": "struct JBDidRedeemData",
          "name": "_data",
          "type": "tuple"
        }
      ],
      "name": "didRedeem",
      "outputs": [],
      "stateMutability": "payable",
      "type": "function"
    },
    {
      "inputs": [],
      "name": "directory",
      "outputs": [
        {
          "internalType": "contract IJBDirectory",
          "name": "",
          "type": "address"
        }
      ],
      "stateMutability": "view",
      "type": "function"
    },
    {
      "inputs": [
        {
          "internalType": "uint256",
          "name": "_tokenId",
          "type": "uint256"
        }
      ],
      "name": "firstOwnerOf",
      "outputs": [
        {
          "internalType": "address",
          "name": "",
          "type": "address"
        }
      ],
      "stateMutability": "view",
      "type": "function"
    },
    {
      "inputs": [],
      "name": "fundingCycleStore",
      "outputs": [
        {
          "internalType": "contract IJBFundingCycleStore",
          "name": "",
          "type": "address"
        }
      ],
      "stateMutability": "view",
      "type": "function"
    },
    {
      "inputs": [
        {
          "internalType": "uint256",
          "name": "tokenId",
          "type": "uint256"
        }
      ],
      "name": "getApproved",
      "outputs": [
        {
          "internalType": "address",
          "name": "",
          "type": "address"
        }
      ],
      "stateMutability": "view",
      "type": "function"
    },
    {
      "inputs": [
        {
          "internalType": "uint256",
          "name": "_tier",
          "type": "uint256"
        },
        {
          "internalType": "uint256",
          "name": "_blockNumber",
          "type": "uint256"
        }
      ],
      "name": "getPastTierTotalVotes",
      "outputs": [
        {
          "internalType": "uint256",
          "name": "",
          "type": "uint256"
        }
      ],
      "stateMutability": "view",
      "type": "function"
    },
    {
      "inputs": [
        {
          "internalType": "address",
          "name": "_account",
          "type": "address"
        },
        {
          "internalType": "uint256",
          "name": "_tier",
          "type": "uint256"
        },
        {
          "internalType": "uint256",
          "name": "_blockNumber",
          "type": "uint256"
        }
      ],
      "name": "getPastTierVotes",
      "outputs": [
        {
          "internalType": "uint256",
          "name": "",
          "type": "uint256"
        }
      ],
      "stateMutability": "view",
      "type": "function"
    },
    {
      "inputs": [
        {
          "internalType": "address",
          "name": "_account",
          "type": "address"
        },
        {
          "internalType": "uint256",
          "name": "_tier",
          "type": "uint256"
        }
      ],
      "name": "getTierDelegate",
      "outputs": [
        {
          "internalType": "address",
          "name": "",
          "type": "address"
        }
      ],
      "stateMutability": "view",
      "type": "function"
    },
    {
      "inputs": [
        {
          "internalType": "uint256",
          "name": "_tier",
          "type": "uint256"
        }
      ],
      "name": "getTierTotalVotes",
      "outputs": [
        {
          "internalType": "uint256",
          "name": "",
          "type": "uint256"
        }
      ],
      "stateMutability": "view",
      "type": "function"
    },
    {
      "inputs": [
        {
          "internalType": "address",
          "name": "_account",
          "type": "address"
        },
        {
          "internalType": "uint256",
          "name": "_tier",
          "type": "uint256"
        }
      ],
      "name": "getTierVotes",
      "outputs": [
        {
          "internalType": "uint256",
          "name": "",
          "type": "uint256"
        }
      ],
      "stateMutability": "view",
      "type": "function"
    },
    {
      "inputs": [
        {
          "internalType": "uint256",
          "name": "_projectId",
          "type": "uint256"
        },
        {
          "internalType": "contract IJBDirectory",
          "name": "_directory",
          "type": "address"
        },
        {
          "internalType": "string",
          "name": "_name",
          "type": "string"
        },
        {
          "internalType": "string",
          "name": "_symbol",
          "type": "string"
        },
        {
          "internalType": "contract IJBFundingCycleStore",
          "name": "_fundingCycleStore",
          "type": "address"
        },
        {
          "internalType": "string",
          "name": "_baseUri",
          "type": "string"
        },
        {
          "internalType": "contract IJBTokenUriResolver",
          "name": "_tokenUriResolver",
          "type": "address"
        },
        {
          "internalType": "string",
          "name": "_contractUri",
          "type": "string"
        },
        {
          "components": [
            {
              "components": [
                {
                  "internalType": "uint80",
                  "name": "contributionFloor",
                  "type": "uint80"
                },
                {
                  "internalType": "uint48",
                  "name": "lockedUntil",
                  "type": "uint48"
                },
                {
                  "internalType": "uint40",
                  "name": "initialQuantity",
                  "type": "uint40"
                },
                {
                  "internalType": "uint16",
                  "name": "votingUnits",
                  "type": "uint16"
                },
                {
                  "internalType": "uint16",
                  "name": "reservedRate",
                  "type": "uint16"
                },
                {
                  "internalType": "address",
                  "name": "reservedTokenBeneficiary",
                  "type": "address"
                },
                {
                  "internalType": "bytes32",
                  "name": "encodedIPFSUri",
                  "type": "bytes32"
                },
                {
                  "internalType": "bool",
                  "name": "allowManualMint",
                  "type": "bool"
                },
                {
                  "internalType": "bool",
                  "name": "shouldUseBeneficiaryAsDefault",
                  "type": "bool"
                },
                {
                  "internalType": "bool",
                  "name": "transfersPausable",
                  "type": "bool"
                }
              ],
              "internalType": "struct JB721TierParams[]",
              "name": "tiers",
              "type": "tuple[]"
            },
            {
              "internalType": "uint256",
              "name": "currency",
              "type": "uint256"
            },
            {
              "internalType": "uint256",
              "name": "decimals",
              "type": "uint256"
            },
            {
              "internalType": "contract IJBPrices",
              "name": "prices",
              "type": "address"
            }
          ],
          "internalType": "struct JB721PricingParams",
          "name": "_pricing",
          "type": "tuple"
        },
        {
          "internalType": "contract IJBTiered721DelegateStore",
          "name": "_store",
          "type": "address"
        },
        {
          "components": [
            {
              "internalType": "bool",
              "name": "lockReservedTokenChanges",
              "type": "bool"
            },
            {
              "internalType": "bool",
              "name": "lockVotingUnitChanges",
              "type": "bool"
            },
            {
              "internalType": "bool",
              "name": "lockManualMintingChanges",
              "type": "bool"
            }
          ],
          "internalType": "struct JBTiered721Flags",
          "name": "_flags",
          "type": "tuple"
        }
      ],
      "name": "initialize",
      "outputs": [],
      "stateMutability": "nonpayable",
      "type": "function"
    },
    {
      "inputs": [
        {
          "internalType": "address",
          "name": "owner",
          "type": "address"
        },
        {
          "internalType": "address",
          "name": "operator",
          "type": "address"
        }
      ],
      "name": "isApprovedForAll",
      "outputs": [
        {
          "internalType": "bool",
          "name": "",
          "type": "bool"
        }
      ],
      "stateMutability": "view",
      "type": "function"
    },
    {
      "inputs": [
        {
          "components": [
            {
              "internalType": "uint16[]",
              "name": "tierIds",
              "type": "uint16[]"
            },
            {
              "internalType": "address",
              "name": "beneficiary",
              "type": "address"
            }
          ],
          "internalType": "struct JBTiered721MintForTiersData[]",
          "name": "_mintForTiersData",
          "type": "tuple[]"
        }
      ],
      "name": "mintFor",
      "outputs": [],
      "stateMutability": "nonpayable",
      "type": "function"
    },
    {
      "inputs": [
        {
          "internalType": "uint16[]",
          "name": "_tierIds",
          "type": "uint16[]"
        },
        {
          "internalType": "address",
          "name": "_beneficiary",
          "type": "address"
        }
      ],
      "name": "mintFor",
      "outputs": [
        {
          "internalType": "uint256[]",
          "name": "tokenIds",
          "type": "uint256[]"
        }
      ],
      "stateMutability": "nonpayable",
      "type": "function"
    },
    {
      "inputs": [
        {
          "components": [
            {
              "internalType": "uint256",
              "name": "tierId",
              "type": "uint256"
            },
            {
              "internalType": "uint256",
              "name": "count",
              "type": "uint256"
            }
          ],
          "internalType": "struct JBTiered721MintReservesForTiersData[]",
          "name": "_mintReservesForTiersData",
          "type": "tuple[]"
        }
      ],
      "name": "mintReservesFor",
      "outputs": [],
      "stateMutability": "nonpayable",
      "type": "function"
    },
    {
      "inputs": [
        {
          "internalType": "uint256",
          "name": "_tierId",
          "type": "uint256"
        },
        {
          "internalType": "uint256",
          "name": "_count",
          "type": "uint256"
        }
      ],
      "name": "mintReservesFor",
      "outputs": [],
      "stateMutability": "nonpayable",
      "type": "function"
    },
    {
      "inputs": [],
      "name": "name",
      "outputs": [
        {
          "internalType": "string",
          "name": "",
          "type": "string"
        }
      ],
      "stateMutability": "view",
      "type": "function"
    },
    {
      "inputs": [],
      "name": "owner",
      "outputs": [
        {
          "internalType": "address",
          "name": "",
          "type": "address"
        }
      ],
      "stateMutability": "view",
      "type": "function"
    },
    {
      "inputs": [
        {
          "internalType": "uint256",
          "name": "tokenId",
          "type": "uint256"
        }
      ],
      "name": "ownerOf",
      "outputs": [
        {
          "internalType": "address",
          "name": "",
          "type": "address"
        }
      ],
      "stateMutability": "view",
      "type": "function"
    },
    {
      "inputs": [
        {
          "components": [
            {
              "internalType": "contract IJBPaymentTerminal",
              "name": "terminal",
              "type": "address"
            },
            {
              "internalType": "address",
              "name": "payer",
              "type": "address"
            },
            {
              "components": [
                {
                  "internalType": "address",
                  "name": "token",
                  "type": "address"
                },
                {
                  "internalType": "uint256",
                  "name": "value",
                  "type": "uint256"
                },
                {
                  "internalType": "uint256",
                  "name": "decimals",
                  "type": "uint256"
                },
                {
                  "internalType": "uint256",
                  "name": "currency",
                  "type": "uint256"
                }
              ],
              "internalType": "struct JBTokenAmount",
              "name": "amount",
              "type": "tuple"
            },
            {
              "internalType": "uint256",
              "name": "projectId",
              "type": "uint256"
            },
            {
              "internalType": "uint256",
              "name": "currentFundingCycleConfiguration",
              "type": "uint256"
            },
            {
              "internalType": "address",
              "name": "beneficiary",
              "type": "address"
            },
            {
              "internalType": "uint256",
              "name": "weight",
              "type": "uint256"
            },
            {
              "internalType": "uint256",
              "name": "reservedRate",
              "type": "uint256"
            },
            {
              "internalType": "string",
              "name": "memo",
              "type": "string"
            },
            {
              "internalType": "bytes",
              "name": "metadata",
              "type": "bytes"
            }
          ],
          "internalType": "struct JBPayParamsData",
          "name": "_data",
          "type": "tuple"
        }
      ],
      "name": "payParams",
      "outputs": [
        {
          "internalType": "uint256",
          "name": "weight",
          "type": "uint256"
        },
        {
          "internalType": "string",
          "name": "memo",
          "type": "string"
        },
        {
          "components": [
            {
              "internalType": "contract IJBPayDelegate",
              "name": "delegate",
              "type": "address"
            },
            {
              "internalType": "uint256",
              "name": "amount",
              "type": "uint256"
            }
          ],
          "internalType": "struct JBPayDelegateAllocation[]",
          "name": "delegateAllocations",
          "type": "tuple[]"
        }
      ],
      "stateMutability": "view",
      "type": "function"
    },
    {
      "inputs": [],
      "name": "prices",
      "outputs": [
        {
          "internalType": "contract IJBPrices",
          "name": "",
          "type": "address"
        }
      ],
      "stateMutability": "view",
      "type": "function"
    },
    {
      "inputs": [],
      "name": "pricingCurrency",
      "outputs": [
        {
          "internalType": "uint256",
          "name": "",
          "type": "uint256"
        }
      ],
      "stateMutability": "view",
      "type": "function"
    },
    {
      "inputs": [],
      "name": "pricingDecimals",
      "outputs": [
        {
          "internalType": "uint256",
          "name": "",
          "type": "uint256"
        }
      ],
      "stateMutability": "view",
      "type": "function"
    },
    {
      "inputs": [],
      "name": "projectId",
      "outputs": [
        {
          "internalType": "uint256",
          "name": "",
          "type": "uint256"
        }
      ],
      "stateMutability": "view",
      "type": "function"
    },
    {
      "inputs": [
        {
          "components": [
            {
              "internalType": "contract IJBPaymentTerminal",
              "name": "terminal",
              "type": "address"
            },
            {
              "internalType": "address",
              "name": "holder",
              "type": "address"
            },
            {
              "internalType": "uint256",
              "name": "projectId",
              "type": "uint256"
            },
            {
              "internalType": "uint256",
              "name": "currentFundingCycleConfiguration",
              "type": "uint256"
            },
            {
              "internalType": "uint256",
              "name": "tokenCount",
              "type": "uint256"
            },
            {
              "internalType": "uint256",
              "name": "totalSupply",
              "type": "uint256"
            },
            {
              "internalType": "uint256",
              "name": "overflow",
              "type": "uint256"
            },
            {
              "components": [
                {
                  "internalType": "address",
                  "name": "token",
                  "type": "address"
                },
                {
                  "internalType": "uint256",
                  "name": "value",
                  "type": "uint256"
                },
                {
                  "internalType": "uint256",
                  "name": "decimals",
                  "type": "uint256"
                },
                {
                  "internalType": "uint256",
                  "name": "currency",
                  "type": "uint256"
                }
              ],
              "internalType": "struct JBTokenAmount",
              "name": "reclaimAmount",
              "type": "tuple"
            },
            {
              "internalType": "bool",
              "name": "useTotalOverflow",
              "type": "bool"
            },
            {
              "internalType": "uint256",
              "name": "redemptionRate",
              "type": "uint256"
            },
            {
              "internalType": "string",
              "name": "memo",
              "type": "string"
            },
            {
              "internalType": "bytes",
              "name": "metadata",
              "type": "bytes"
            }
          ],
          "internalType": "struct JBRedeemParamsData",
          "name": "_data",
          "type": "tuple"
        }
      ],
      "name": "redeemParams",
      "outputs": [
        {
          "internalType": "uint256",
          "name": "reclaimAmount",
          "type": "uint256"
        },
        {
          "internalType": "string",
          "name": "memo",
          "type": "string"
        },
        {
          "components": [
            {
              "internalType": "contract IJBRedemptionDelegate",
              "name": "delegate",
              "type": "address"
            },
            {
              "internalType": "uint256",
              "name": "amount",
              "type": "uint256"
            }
          ],
          "internalType": "struct JBRedemptionDelegateAllocation[]",
          "name": "delegateAllocations",
          "type": "tuple[]"
        }
      ],
      "stateMutability": "view",
      "type": "function"
    },
    {
      "inputs": [],
      "name": "renounceOwnership",
      "outputs": [],
      "stateMutability": "nonpayable",
      "type": "function"
    },
    {
      "inputs": [
        {
          "internalType": "address",
          "name": "from",
          "type": "address"
        },
        {
          "internalType": "address",
          "name": "to",
          "type": "address"
        },
        {
          "internalType": "uint256",
          "name": "tokenId",
          "type": "uint256"
        }
      ],
      "name": "safeTransferFrom",
      "outputs": [],
      "stateMutability": "nonpayable",
      "type": "function"
    },
    {
      "inputs": [
        {
          "internalType": "address",
          "name": "from",
          "type": "address"
        },
        {
          "internalType": "address",
          "name": "to",
          "type": "address"
        },
        {
          "internalType": "uint256",
          "name": "tokenId",
          "type": "uint256"
        },
        {
          "internalType": "bytes",
          "name": "data",
          "type": "bytes"
        }
      ],
      "name": "safeTransferFrom",
      "outputs": [],
      "stateMutability": "nonpayable",
      "type": "function"
    },
    {
      "inputs": [
        {
          "internalType": "address",
          "name": "operator",
          "type": "address"
        },
        {
          "internalType": "bool",
          "name": "approved",
          "type": "bool"
        }
      ],
      "name": "setApprovalForAll",
      "outputs": [],
      "stateMutability": "nonpayable",
      "type": "function"
    },
    {
      "inputs": [
        {
          "internalType": "string",
          "name": "_baseUri",
          "type": "string"
        }
      ],
      "name": "setBaseUri",
      "outputs": [],
      "stateMutability": "nonpayable",
      "type": "function"
    },
    {
      "inputs": [
        {
          "internalType": "string",
          "name": "_contractUri",
          "type": "string"
        }
      ],
      "name": "setContractUri",
      "outputs": [],
      "stateMutability": "nonpayable",
      "type": "function"
    },
    {
      "inputs": [
        {
          "internalType": "address",
          "name": "_beneficiary",
          "type": "address"
        }
      ],
      "name": "setDefaultReservedTokenBeneficiary",
      "outputs": [],
      "stateMutability": "nonpayable",
      "type": "function"
    },
    {
      "inputs": [
        {
          "internalType": "address",
          "name": "_delegatee",
          "type": "address"
        },
        {
          "internalType": "uint256",
          "name": "_tierId",
          "type": "uint256"
        }
      ],
      "name": "setTierDelegate",
      "outputs": [],
      "stateMutability": "nonpayable",
      "type": "function"
    },
    {
      "inputs": [
        {
          "components": [
            {
              "internalType": "address",
              "name": "delegatee",
              "type": "address"
            },
            {
              "internalType": "uint256",
              "name": "tierId",
              "type": "uint256"
            }
          ],
          "internalType": "struct JBTiered721SetTierDelegatesData[]",
          "name": "_setTierDelegatesData",
          "type": "tuple[]"
        }
      ],
      "name": "setTierDelegates",
      "outputs": [],
      "stateMutability": "nonpayable",
      "type": "function"
    },
    {
      "inputs": [
        {
          "internalType": "contract IJBTokenUriResolver",
          "name": "_tokenUriResolver",
          "type": "address"
        }
      ],
      "name": "setTokenUriResolver",
      "outputs": [],
      "stateMutability": "nonpayable",
      "type": "function"
    },
    {
      "inputs": [],
      "name": "store",
      "outputs": [
        {
          "internalType": "contract IJBTiered721DelegateStore",
          "name": "",
          "type": "address"
        }
      ],
      "stateMutability": "view",
      "type": "function"
    },
    {
      "inputs": [
        {
          "internalType": "bytes4",
          "name": "_interfaceId",
          "type": "bytes4"
        }
      ],
      "name": "supportsInterface",
      "outputs": [
        {
          "internalType": "bool",
          "name": "",
          "type": "bool"
        }
      ],
      "stateMutability": "view",
      "type": "function"
    },
    {
      "inputs": [],
      "name": "symbol",
      "outputs": [
        {
          "internalType": "string",
          "name": "",
          "type": "string"
        }
      ],
      "stateMutability": "view",
      "type": "function"
    },
    {
      "inputs": [
        {
          "internalType": "uint256",
          "name": "_tokenId",
          "type": "uint256"
        }
      ],
      "name": "tokenURI",
      "outputs": [
        {
          "internalType": "string",
          "name": "",
          "type": "string"
        }
      ],
      "stateMutability": "view",
      "type": "function"
    },
    {
      "inputs": [
        {
          "internalType": "address",
          "name": "from",
          "type": "address"
        },
        {
          "internalType": "address",
          "name": "to",
          "type": "address"
        },
        {
          "internalType": "uint256",
          "name": "tokenId",
          "type": "uint256"
        }
      ],
      "name": "transferFrom",
      "outputs": [],
      "stateMutability": "nonpayable",
      "type": "function"
    },
    {
      "inputs": [
        {
          "internalType": "address",
          "name": "newOwner",
          "type": "address"
        }
      ],
      "name": "transferOwnership",
      "outputs": [],
      "stateMutability": "nonpayable",
      "type": "function"
    }
  ],
  "bytecode": {
    "object": "0x60806040523480156200001157600080fd5b506200001d3362000035565b600880546001600160a01b0319163017905562000087565b600780546001600160a01b038381166001600160a01b0319831681179093556040519116919082907f8be0079c531659141344cd1fd0a4f28419497f9722a3daafe3b4186f6b6457e090600090a35050565b6153e580620000976000396000f3fe6080604052600436106102935760003560e01c806395d89b411161015a578063ca323efe116100c1578063da9ee8b71161007a578063da9ee8b714610820578063df487e2614610833578063e8a3d48514610853578063e985e9c514610868578063f2fde38b146108b1578063f5a38e63146108d157600080fd5b8063ca323efe14610760578063ccb4807b14610780578063d31cc52c146107a0578063d3419bf3146107c0578063d40e7146146107e0578063d46cf1711461080057600080fd5b8063ab951e3911610113578063ab951e39146106a0578063b88d4fde146106c0578063bb52b6e4146106e0578063c41c2f2414610700578063c74b13d914610720578063c87b56dd1461074057600080fd5b806395d89b41146105dc578063975057e7146105f1578063a0bcfc7f14610611578063a22cb46514610631578063a51cfd1814610651578063aa4fb15b1461068057600080fd5b806342842e0e116101fe5780636ac6d941116101b75780636ac6d941146104f957806370a0823114610526578063715018a61461054657806382732b6d1461055b5780638da5cb5b1461059e57806394c5c5ca146105bc57600080fd5b806342842e0e1461044d5780634ecba6251461046d57806354c6d1f514610483578063557e7155146104a35780636352211e146104c357806364640c1e146104e357600080fd5b80632407497e116102505780632407497e14610389578063245a45b5146103a95780632a596e53146103e45780632b13c58f1461040457806336c1a93b146104175780633fafa1271461043757600080fd5b806301ffc9a71461029857806306fdde03146102cd578063081812fc146102ef578063095ea7b3146103275780631d153ca41461034957806323b872dd14610369575b600080fd5b3480156102a457600080fd5b506102b86102b3366004613aa3565b6108f1565b60405190151581526020015b60405180910390f35b3480156102d957600080fd5b506102e261091c565b6040516102c49190613b10565b3480156102fb57600080fd5b5061030f61030a366004613b23565b6109ae565b6040516001600160a01b0390911681526020016102c4565b34801561033357600080fd5b50610347610342366004613b61565b6109d5565b005b34801561035557600080fd5b5060085461030f906001600160a01b031681565b34801561037557600080fd5b50610347610384366004613b8d565b610a61565b34801561039557600080fd5b506103476103a4366004613bce565b610a93565b3480156103b557600080fd5b506103d66103c4366004613bce565b600e6020526000908152604090205481565b6040519081526020016102c4565b3480156103f057600080fd5b506103476103ff366004613beb565b610b3c565b610347610412366004613c78565b610b95565b34801561042357600080fd5b50610347610432366004613cf0565b610d6f565b34801561044357600080fd5b506103d660055481565b34801561045957600080fd5b50610347610468366004613b8d565b610dd1565b34801561047957600080fd5b506103d6600d5481565b34801561048f57600080fd5b5061030f61049e366004613b23565b610dec565b3480156104af57600080fd5b50600a5461030f906001600160a01b031681565b3480156104cf57600080fd5b5061030f6104de366004613b23565b610e98565b3480156104ef57600080fd5b506103d6600c5481565b34801561050557600080fd5b50610519610514366004613d31565b610ece565b6040516102c49190613dc2565b34801561053257600080fd5b506103d6610541366004613bce565b611014565b34801561055257600080fd5b5061034761108a565b34801561056757600080fd5b5061030f610576366004613b61565b6001600160a01b039182166000908152600f6020908152604080832093835292905220541690565b3480156105aa57600080fd5b506007546001600160a01b031661030f565b3480156105c857600080fd5b506103d66105d7366004613b23565b61109e565b3480156105e857600080fd5b506102e26110b5565b3480156105fd57600080fd5b5060095461030f906001600160a01b031681565b34801561061d57600080fd5b5061034761062c366004613dd5565b6110c4565b34801561063d57600080fd5b5061034761064c366004613e4d565b61117f565b34801561065d57600080fd5b5061067161066c366004613c78565b61118e565b6040516102c493929190613e86565b34801561068c57600080fd5b5061034761069b366004613ef8565b611450565b3480156106ac57600080fd5b506103476106bb366004613b61565b61166d565b3480156106cc57600080fd5b506103476106db366004614078565b611678565b3480156106ec57600080fd5b506103476106fb366004614379565b6116ab565b34801561070c57600080fd5b5060065461030f906001600160a01b031681565b34801561072c57600080fd5b5061034761073b3660046144b2565b611991565b34801561074c57600080fd5b506102e261075b366004613b23565b611a15565b34801561076c57600080fd5b506103d661077b366004613b61565b611c73565b34801561078c57600080fd5b5061034761079b366004613dd5565b611c9f565b3480156107ac57600080fd5b506103d66107bb366004613ef8565b611d52565b3480156107cc57600080fd5b50600b5461030f906001600160a01b031681565b3480156107ec57600080fd5b506103d66107fb366004614570565b611d6a565b34801561080c57600080fd5b5061067161081b3660046145a5565b611d9f565b61034761082e3660046145e0565b611e82565b34801561083f57600080fd5b5061034761084e366004613bce565b611f39565b34801561085f57600080fd5b506102e2611fdb565b34801561087457600080fd5b506102b861088336600461461b565b6001600160a01b03918216600090815260046020908152604080832093909416825291909152205460ff1690565b3480156108bd57600080fd5b506103476108cc366004613bce565b612051565b3480156108dd57600080fd5b506103476108ec366004614649565b6120cf565b60006001600160e01b03198216631e68505960e31b14806109165750610916826122b2565b92915050565b60606000805461092b906146e3565b80601f0160208091040260200160405190810160405280929190818152602001828054610957906146e3565b80156109a45780601f10610979576101008083540402835291602001916109a4565b820191906000526020600020905b81548152906001019060200180831161098757829003601f168201915b5050505050905090565b60006109b982612328565b506000908152600360205260409020546001600160a01b031690565b60006109e082610e98565b9050806001600160a01b0316836001600160a01b031603610a145760405163133f8be960e01b815260040160405180910390fd5b336001600160a01b03821614801590610a345750610a328133610883565b155b15610a525760405163e5fa0e3560e01b815260040160405180910390fd5b610a5c838361235d565b505050565b610a6b33826123cb565b610a885760405163e5fa0e3560e01b815260040160405180910390fd5b610a5c838383612449565b610a9b612522565b60095460405163036129cb60e61b81526001600160a01b0383811660048301529091169063d84a72c090602401600060405180830381600087803b158015610ae257600080fd5b505af1158015610af6573d6000803e3d6000fd5b50506040513381526001600160a01b03841692507fe7784d93cfbfa4408e19577e6cc0436f4dbb51214b70e100905dfce9def88c1691506020015b60405180910390a250565b8060005b81811015610b8f576000848483818110610b5c57610b5c614717565b905060400201803603810190610b72919061472d565b9050610b8681600001518260200151611450565b50600101610b40565b50505050565b34151580610c175750600654600554604051636e49181f60e01b815260048101919091523360248201526001600160a01b0390911690636e49181f90604401602060405180830381865afa158015610bf1573d6000803e3d6000fd5b505050506040513d601f19601f82011682018060405250810190610c159190614786565b155b80610c285750600554816020013514155b15610c4657604051633efca5c360e11b815260040160405180910390fd5b6024610c566101c08301836147a3565b90501080610c9a575063b3bcbb7960e01b610c756101c08301836147a3565b610c84916024916020916147e9565b610c8d91614813565b6001600160e01b03191614155b15610cb857604051632a84050f60e01b815260040160405180910390fd5b6000610cc86101c08301836147a3565b810190610cd59190614843565b925050506000815190506000805b82811015610d6557838181518110610cfd57610cfd614717565b60200260200101519150846000016020810190610d1a9190613bce565b6000838152600260205260409020546001600160a01b03908116911614610d545760405163075fd2b160e01b815260040160405180910390fd5b610d5d8261257c565b600101610ce3565b50610b8f836125fd565b610d77612522565b8060005b81811015610b8f5736848483818110610d9657610d96614717565b9050602002810190610da891906148f1565b9050610dc7610db78280614911565b6105146040850160208601613bce565b5050600101610d7b565b610a5c83838360405180602001604052806000815250611678565b6009546040516308ed6c0160e41b81523060048201526024810183905260009182916001600160a01b0390911690638ed6c01090604401602060405180830381865afa158015610e40573d6000803e3d6000fd5b505050506040513d601f19601f82011682018060405250810190610e649190614965565b90506001600160a01b03811615610e7b5792915050565b50506000908152600260205260409020546001600160a01b031690565b6000818152600260205260408120546001600160a01b0316806109165760405163b49aa3b560e01b815260040160405180910390fd5b6060610ed8612522565b60095460405163eaa19ab360e01b81526001600160a01b039091169063eaa19ab390610f11906000199088908890600190600401614982565b6000604051808303816000875af1158015610f30573d6000803e3d6000fd5b505050506040513d6000823e601f3d908101601f19168201604052610f589190810190614a45565b509050826000805b8281101561100a57838181518110610f7a57610f7a614717565b60200260200101519150610f8e8583612662565b846001600160a01b0316878783818110610faa57610faa614717565b9050602002016020810190610fbf9190614a8b565b604080516000815233602082015261ffff929092169185917f598baf7bf150ca2f42be9e9f8f55e81d45f5715c3ff22bf46d697fabec7f31d6910160405180910390a4600101610f60565b5050509392505050565b600954604051633de222bb60e21b81523060048201526001600160a01b038381166024830152600092169063f7888aec906044015b602060405180830381865afa158015611066573d6000803e3d6000fd5b505050506040513d601f19601f820116820180604052508101906109169190614aa6565b611092612522565b61109c600061272c565b565b60008181526011602052604081206109169061277e565b60606001805461092b906146e3565b6110cc612522565b6009546040516331315e5960e11b81526001600160a01b0390911690636262bcb2906110fe9085908590600401614abf565b600060405180830381600087803b15801561111857600080fd5b505af115801561112c573d6000803e3d6000fd5b505050508181604051611140929190614aee565b604051908190038120338252907f7bc9110d5de090dd59e07912d2b93a5a27ac70a60c8d8e324db4f9ee8b8b5c13906020015b60405180910390a25050565b61118a3383836127da565b5050565b60006060806080840135156111b6576040516309f82f1b60e31b815260040160405180910390fd5b60246111c66101c08601866147a3565b9050108061120a575063b3bcbb7960e01b6111e56101c08601866147a3565b6111f4916024916020916147e9565b6111fd91614813565b6001600160e01b03191614155b1561122857604051632a84050f60e01b815260040160405180910390fd5b60408051600180825281830190925290816020015b604080518082019091526000808252602082015281526020019060019003908161123d5790505090506040518060400160405280306001600160a01b0316815260200160008152508160008151811061129857611298614717565b60200260200101819052508361018001356000036113085760006112c06101a08601866147a3565b8382828080601f016020809104026020016040519081016040528093929190818152602001838380828437600092019190915250969950919750919550611449945050505050565b60006113186101c08601866147a3565b8101906113259190614843565b92505050600061133482612879565b905060006113406128ac565b905060006113538860c001358484612919565b9050612710886101800135036113be57806113726101a08a018a6147a3565b8782828080601f016020809104026020016040519081016040528093929190818152602001838380828437600092019190915250969d50919b5091995061144998505050505050505050565b6113f4816113dd856113d76101808d0135612710614b14565b86612919565b6113ec906101808c0135614b27565b612710612919565b6114026101a08a018a6147a3565b8782828080601f016020809104026020016040519081016040528093929190818152602001838380828437600092019190915250969d50919b509199505050505050505050505b9193909250565b600a546005546040516321d1336160e11b815260048101919091526000916001600160a01b0316906343a266c29060240161012060405180830381865afa15801561149f573d6000803e3d6000fd5b505050506040513d601f19601f820116820180604052508101906114c39190614b3a565b61010081015190915060f51c6001908116036114f257604051631d2c125760e31b815260040160405180910390fd5b600954604051635d53f40760e11b815260048101859052602481018490526000916001600160a01b03169063baa7e80e906044016000604051808303816000875af1158015611545573d6000803e3d6000fd5b505050506040513d6000823e601f3d908101601f1916820160405261156d9190810190614bba565b6009546040516304db994760e21b8152306004820152602481018790529192506000916001600160a01b039091169063136e651c90604401602060405180830381865afa1580156115c2573d6000803e3d6000fd5b505050506040513d601f19601f820116820180604052508101906115e69190614965565b90506000805b858110156116645783818151811061160657611606614717565b6020026020010151915061161a8383612662565b6040513381526001600160a01b03841690889084907f031e1988c95a91ec4d655ff63a8f87a80bc9daf28d95ae10ee08c0022cfb5c8b9060200160405180910390a46001016115ec565b50505050505050565b61118a3383836129e6565b61168233836123cb565b61169f5760405163e5fa0e3560e01b815260040160405180910390fd5b610b8f84848484612a65565b6008546001600160a01b031630036116c257600080fd5b6009546001600160a01b0316156116d857600080fd5b6116e48b8b8b8b612a99565b600a80546001600160a01b03808a166001600160a01b031992831617909255600980548584169083161790556020850151600c556040850151600d556060850151600b8054919093169116179055855115611798576040516331315e5960e11b81526001600160a01b03831690636262bcb290611765908990600401613b10565b600060405180830381600087803b15801561177f57600080fd5b505af1158015611793573d6000803e3d6000fd5b505050505b8351156117fe5760405163d67b78fd60e01b81526001600160a01b0383169063d67b78fd906117cb908790600401613b10565b600060405180830381600087803b1580156117e557600080fd5b505af11580156117f9573d6000803e3d6000fd5b505050505b6001600160a01b038516156118695760405163036129cb60e61b81526001600160a01b03868116600483015283169063d84a72c090602401600060405180830381600087803b15801561185057600080fd5b505af1158015611864573d6000803e3d6000fd5b505050505b825151156118e757825160405163eadd8b3760e01b81526001600160a01b0384169163eadd8b379161189e9190600401614bee565b6000604051808303816000875af11580156118bd573d6000803e3d6000fd5b505050506040513d6000823e601f3d908101601f191682016040526118e59190810190614bba565b505b8051806118f5575080602001515b80611901575080604001515b1561197b576040805163cdb0af6d60e01b815282511515600482015260208301511515602482015290820151151560448201526001600160a01b0383169063cdb0af6d90606401600060405180830381600087803b15801561196257600080fd5b505af1158015611976573d6000803e3d6000fd5b505050505b6119843361272c565b5050505050505050505050565b8051604080518082019091526000808252602082015260005b82811015610b8f578381815181106119c4576119c4614717565b602090810291909101015180519092506001600160a01b03166119fa576040516314f4c13d60e21b815260040160405180910390fd5b611a0d33836000015184602001516129e6565b6001016119aa565b6000818152600260205260409020546060906001600160a01b0316611a4857505060408051602081019091526000815290565b600954604051630fab094760e01b81523060048201526000916001600160a01b031690630fab094790602401602060405180830381865afa158015611a91573d6000803e3d6000fd5b505050506040513d601f19601f82011682018060405250810190611ab59190614965565b90506001600160a01b03811615611b3a57604051636d02a25560e11b8152600481018490526001600160a01b0382169063da0544aa90602401600060405180830381865afa158015611b0b573d6000803e3d6000fd5b505050506040513d6000823e601f3d908101601f19168201604052611b339190810190614cc7565b9392505050565b60095460405163f682eeaf60e01b815230600482015273__$2e464bbf4a8803569df10b07372aceee57$__9163030cecc7916001600160a01b039091169063f682eeaf90602401600060405180830381865afa158015611b9e573d6000803e3d6000fd5b505050506040513d6000823e601f3d908101601f19168201604052611bc69190810190614cc7565b600954604051630c8df17160e41b8152306004820152602481018890526001600160a01b039091169063c8df171090604401602060405180830381865afa158015611c15573d6000803e3d6000fd5b505050506040513d601f19601f82011682018060405250810190611c399190614aa6565b6040518363ffffffff1660e01b8152600401611c56929190614d3d565b600060405180830381865af4158015611b0b573d6000803e3d6000fd5b6001600160a01b03821660009081526010602090815260408083208484529091528120611b339061277e565b611ca7612522565b60095460405163d67b78fd60e01b81526001600160a01b039091169063d67b78fd90611cd99085908590600401614abf565b600060405180830381600087803b158015611cf357600080fd5b505af1158015611d07573d6000803e3d6000fd5b505050508181604051611d1b929190614aee565b604051908190038120338252907fd36dc0c1a06103fdcaf15f3f6fb797d1a97997514c78de073640c8b5005454b890602001611173565b6000828152601160205260408120611b339083612acc565b6001600160a01b03831660009081526010602090815260408083208584529091528120611d979083612acc565b949350505050565b610120810135606080611db66101608501856147a3565b8080601f01602080910402602001604051908101604052809392919081815260200183838082843760009201919091525092945060019250611df6915050565b604051908082528060200260200182016040528015611e3b57816020015b6040805180820190915260008082526020820152815260200190600190039081611e145790505b5090506040518060400160405280306001600160a01b03168152602001600081525081600081518110611e7057611e70614717565b60200260200101819052509193909250565b60055434151580611f035750600654604051636e49181f60e01b8152600481018390523360248201526001600160a01b0390911690636e49181f90604401602060405180830381865afa158015611edd573d6000803e3d6000fd5b505050506040513d601f19601f82011682018060405250810190611f019190614786565b155b80611f12575080826020013514155b15611f30576040516331c57b1b60e21b815260040160405180910390fd5b61118a82612bdb565b611f41612522565b6009546040516317161f7d60e01b81526001600160a01b038381166004830152909116906317161f7d90602401600060405180830381600087803b158015611f8857600080fd5b505af1158015611f9c573d6000803e3d6000fd5b50506040513381526001600160a01b03841692507fab0014d4c7a642a02a31b303a318908c22b0fb2001f107278fc6076b4c671b659150602001610b31565b600954604051630155619b60e71b81523060048201526060916001600160a01b03169063aab0cd8090602401600060405180830381865afa158015612024573d6000803e3d6000fd5b505050506040513d6000823e601f3d908101601f1916820160405261204c9190810190614cc7565b905090565b612059612522565b6001600160a01b0381166120c35760405162461bcd60e51b815260206004820152602660248201527f4f776e61626c653a206e6577206f776e657220697320746865207a65726f206160448201526564647265737360d01b60648201526084015b60405180910390fd5b6120cc8161272c565b50565b6120d7612522565b828180156121a7576009546040516320512ba160e01b81526001600160a01b03909116906320512ba1906121119087908790600401614d5f565b600060405180830381600087803b15801561212b57600080fd5b505af115801561213f573d6000803e3d6000fd5b5050505060005b818110156121a55784848281811061216057612160614717565b60405133815260209182029390930135927f832d89d991be5351d793c20faf4b7dd44f8aa9ce39e3cb160c6317de6fbba72992500160405180910390a2600101612146565b505b81156122aa5760095460405163eadd8b3760e01b81526000916001600160a01b03169063eadd8b37906121e0908a908a90600401614e75565b6000604051808303816000875af11580156121ff573d6000803e3d6000fd5b505050506040513d6000823e601f3d908101601f191682016040526122279190810190614bba565b905060005b838110156122a75781818151811061224657612246614717565b60200260200101517f85b5b4c4e44e342c8dac3c3a5364494d455043decb9f4bb8e7e0a3020d22fed489898481811061228157612281614717565b9050610140020133604051612297929190614eb8565b60405180910390a260010161222c565b50505b505050505050565b60006001600160e01b0319821663b3bcbb7960e01b14806122e357506001600160e01b031982166371700c6960e01b145b806122fe57506001600160e01b0319821663da9ee8b760e01b145b8061231957506001600160e01b03198216632b13c58f60e01b145b80610916575061091682612ec1565b6000818152600260205260409020546001600160a01b03166120cc5760405163b49aa3b560e01b815260040160405180910390fd5b600081815260036020526040902080546001600160a01b0319166001600160a01b038416908117909155819061239282610e98565b6001600160a01b03167f8c5be1e5ebec7d5bd14f71427d1e84f3dd0314c0f7b2291e5b200ac8c7c3b92560405160405180910390a45050565b6000806123d783610e98565b9050806001600160a01b0316846001600160a01b0316148061241e57506001600160a01b0380821660009081526004602090815260408083209388168352929052205460ff165b80611d975750836001600160a01b0316612437846109ae565b6001600160a01b031614949350505050565b826001600160a01b031661245c82610e98565b6001600160a01b0316146124835760405163a195bc5360e01b815260040160405180910390fd5b6001600160a01b0382166124aa57604051632c95542760e01b815260040160405180910390fd5b6124b5838383612f11565b6124c060008261235d565b60008181526002602052604080822080546001600160a01b0319166001600160a01b0386811691821790925591518493918716917fddf252ad1be2c89b69c2b068fc378daa952ba7f163c4a11628f55a4df523b3ef91a4610a5c83838361313e565b6007546001600160a01b0316331461109c5760405162461bcd60e51b815260206004820181905260248201527f4f776e61626c653a2063616c6c6572206973206e6f7420746865206f776e657260448201526064016120ba565b600061258782610e98565b905061259581600084612f11565b6125a060008361235d565b60008281526002602052604080822080546001600160a01b0319169055518391906001600160a01b038416907fddf252ad1be2c89b69c2b068fc378daa952ba7f163c4a11628f55a4df523b3ef908390a461118a8160008461313e565b6009546040516386bc2be360e01b81526001600160a01b03909116906386bc2be39061262d908490600401613dc2565b600060405180830381600087803b15801561264757600080fd5b505af115801561265b573d6000803e3d6000fd5b5050505050565b6001600160a01b03821661268957604051633904578f60e11b815260040160405180910390fd5b6000818152600260205260409020546001600160a01b0316156126bf57604051632eb5f0c360e21b815260040160405180910390fd5b6126cb60008383612f11565b60008181526002602052604080822080546001600160a01b0319166001600160a01b03861690811790915590518392907fddf252ad1be2c89b69c2b068fc378daa952ba7f163c4a11628f55a4df523b3ef908290a461118a6000838361313e565b600780546001600160a01b038381166001600160a01b0319831681179093556040519116919082907f8be0079c531659141344cd1fd0a4f28419497f9722a3daafe3b4186f6b6457e090600090a35050565b805460009080156127c75782612795600183614b14565b815481106127a5576127a5614717565b60009182526020909120015464010000000090046001600160e01b03166127ca565b60005b6001600160e01b03169392505050565b816001600160a01b0316836001600160a01b03160361280c576040516306f8139d60e11b815260040160405180910390fd5b6001600160a01b03838116600081815260046020908152604080832094871680845294825291829020805460ff191686151590811790915591519182527f17307eab39ab6107e8899845ad3d59bd9653f200f220920489ca2b5937696c31910160405180910390a3505050565b60095460405163051330b560e21b81526000916001600160a01b03169063144cc2d4906110499030908690600401614ee0565b600954604051631572f24960e11b81523060048201526000916001600160a01b031690632ae5e49290602401602060405180830381865afa1580156128f5573d6000803e3d6000fd5b505050506040513d601f19601f8201168201806040525081019061204c9190614aa6565b60008080600019858709858702925082811083820303915050806000036129535783828161294957612949614f04565b0492505050611b33565b83811061297d57604051631dcf306360e21b815260048101829052602481018590526044016120ba565b60008486880960026001871981018816978890046003810283188082028403028082028403028082028403028082028403028082028403029081029092039091026000889003889004909101858311909403939093029303949094049190911702949350505050565b6001600160a01b038381166000818152600f6020908152604080832086845290915280822080548786166001600160a01b0319821681179092559151919094169392849290917f3134e8a2e6d97e929a7e54011ea5485d7d196dd5f0ba4d4ef95803e8e3fc257f9190a4610b8f818484612a608887613237565b6132b3565b612a70848484612449565b612a7c84848484613408565b610b8f576040516336f57c1b60e11b815260040160405180910390fd5b612aa3828261350a565b5050600591909155600680546001600160a01b0319166001600160a01b03909216919091179055565b6000438210612b1d5760405162461bcd60e51b815260206004820181905260248201527f436865636b706f696e74733a20626c6f636b206e6f7420796574206d696e656460448201526064016120ba565b825460005b81811015612b82576000612b368284613523565b905084866000018281548110612b4e57612b4e614717565b60009182526020909120015463ffffffff161115612b6e57809250612b7c565b612b79816001614b27565b91505b50612b22565b8115612bc65784612b94600184614b14565b81548110612ba457612ba4614717565b60009182526020909120015464010000000090046001600160e01b0316612bc9565b60005b6001600160e01b031695945050505050565b600c5460009060c083013503612bf657506080810135612cac565b600b546001600160a01b03161561118a57600d54612ca990608084013590612c1f90600a614ffe565b600b54600c54604051635268657960e11b815260c08801356004820152602481019190915260a087013560448201526001600160a01b039091169063a4d0caf290606401602060405180830381865afa158015612c80573d6000803e3d6000fd5b505050506040513d601f19601f82011682018060405250810190612ca49190614aa6565b612919565b90505b6000600e81612cc36101a086016101808701613bce565b6001600160a01b0316815260208101919091526040016000908120549150612ceb8284614b27565b90506000806044612d006101e08801886147a3565b9050118015612d44575063b3bcbb7960e01b612d206101e08801886147a3565b612d2f916044916040916147e9565b612d3891614813565b6001600160e01b031916145b15612de15760006060612d5b6101e08901896147a3565b810190612d68919061500a565b919950975090955093505083159150612db890505784600e6000612d946101a08c016101808d01613bce565b6001600160a01b031681526020810191909152604001600020555050505050505050565b805115612dde57612ddb8582612dd66101a08c016101808d01613bce565b61353e565b94505b50505b8215612e8257612e0383612dfd6101a089016101808a01613bce565b84613680565b92508215612e60578015612e2a57604051631b57826960e21b815260040160405180910390fd5b82600e6000612e416101a08a016101808b01613bce565b6001600160a01b031681526020810191909152604001600020556122aa565b8315612e7d576000600e81612e416101a08a016101808b01613bce565b6122aa565b83156122aa576000600e81612e9f6101a08a016101808b01613bce565b6001600160a01b03168152602081019190915260400160002055505050505050565b60006001600160e01b031982166380ac58cd60e01b1480612ef257506001600160e01b03198216635b5e139f60e01b145b8061091657506301ffc9a760e01b6001600160e01b0319831614610916565b6001600160a01b03831615610a5c5760095460405163b67cb04760e01b8152306004820152602481018390526000916001600160a01b03169063b67cb0479060440161016060405180830381865afa158015612f71573d6000803e3d6000fd5b505050506040513d601f19601f82011682018060405250810190612f959190615101565b90508061014001511561305a57600a546005546040516321d1336160e11b815260048101919091526000916001600160a01b0316906343a266c29060240161012060405180830381865afa158015612ff1573d6000803e3d6000fd5b505050506040513d601f19601f820116820180604052508101906130159190614b3a565b90506001600160a01b0384161580159061303a575061010081015160f41c6001908116145b15613058576040516318cdaf9760e01b815260040160405180910390fd5b505b6009546040516308ed6c0160e41b8152306004820152602481018490526000916001600160a01b031690638ed6c01090604401602060405180830381865afa1580156130aa573d6000803e3d6000fd5b505050506040513d601f19601f820116820180604052508101906130ce9190614965565b6001600160a01b031603610b8f57600954604051638cec7d3960e01b8152600481018490526001600160a01b03868116602483015290911690638cec7d3990604401600060405180830381600087803b15801561312a57600080fd5b505af11580156122a7573d6000803e3d6000fd5b60095460405163b67cb04760e01b8152306004820152602481018390526000916001600160a01b03169063b67cb0479060440161016060405180830381865afa15801561318f573d6000803e3d6000fd5b505050506040513d601f19601f820116820180604052508101906131b39190615101565b60095481516040516330b157e560e21b815260048101919091526001600160a01b038781166024830152868116604483015292935091169063c2c55f9490606401600060405180830381600087803b15801561320e57600080fd5b505af1158015613222573d6000803e3d6000fd5b505050506132328484848461378a565b610b8f565b6009546040516305c9a1d560e31b81523060048201526001600160a01b038481166024830152604482018490526000921690632e4d0ea890606401602060405180830381865afa15801561328f573d6000803e3d6000fd5b505050506040513d601f19601f82011682018060405250810190611b339190614aa6565b826001600160a01b0316846001600160a01b031614806132d1575080155b610b8f576001600160a01b0384161561336c576001600160a01b038416600090815260106020908152604080832085845290915281208190613316906137a8856137b4565b60408051838152602081018390523381830152905192945090925085916001600160a01b038916917fed0c1e94c302bdbbd8bbd6a4fb7c3ed335c2292407cd816eadd075d019d0ce04919081900360600190a350505b6001600160a01b03831615610b8f576001600160a01b0383166000908152601060209081526040808320858452909152812081906133ad906137e2856137b4565b60408051838152602081018390523381830152905192945090925085916001600160a01b038816917fed0c1e94c302bdbbd8bbd6a4fb7c3ed335c2292407cd816eadd075d019d0ce04919081900360600190a3505050505050565b60006001600160a01b0384163b156134ff57604051630a85bd0160e11b81526001600160a01b0385169063150b7a029061344c9033908990889088906004016151a3565b6020604051808303816000875af1925050508015613487575060408051601f3d908101601f19168201909252613484918101906151e0565b60015b6134e5573d8080156134b5576040519150601f19603f3d011682016040523d82523d6000602084013e6134ba565b606091505b5080516000036134dd576040516336f57c1b60e11b815260040160405180910390fd5b805181602001fd5b6001600160e01b031916630a85bd0160e11b149050611d97565b506001949350505050565b60006135168382615243565b506001610a5c8282615243565b60006135326002848418615302565b611b3390848416614b27565b60095460405163eaa19ab360e01b81526000916060916001600160a01b039091169063eaa19ab39061357890889088908790600401615324565b6000604051808303816000875af1158015613597573d6000803e3d6000fd5b505050506040513d6000823e601f3d908101601f191682016040526135bf9190810190614a45565b81519093509091506000805b82811015613675578381815181106135e5576135e5614717565b602002602001015191506135f98683612662565b856001600160a01b031687828151811061361557613615614717565b602002602001015161ffff16837f598baf7bf150ca2f42be9e9f8f55e81d45f5715c3ff22bf46d697fabec7f31d68b336040516136659291909182526001600160a01b0316602082015260400190565b60405180910390a46001016135cb565b505050509392505050565b60095460405163879791f360e01b815260048101859052600091829182916001600160a01b03169063879791f3906024016060604051808303816000875af11580156136d0573d6000803e3d6000fd5b505050506040513d601f19601f820116820180604052508101906136f49190615381565b94509092509050600082900361372a57831561372357604051630e5313df60e41b815260040160405180910390fd5b5050611b33565b6137348583612662565b6001600160a01b03851681837f598baf7bf150ca2f42be9e9f8f55e81d45f5715c3ff22bf46d697fabec7f31d661376b878b614b14565b604080519182523360208301520160405180910390a450509392505050565b60a081015115610b8f57610b8f848483600001518460a001516137ee565b6000611b338284614b14565b6000806137d6856137d16137c78861277e565b868863ffffffff16565b613890565b91509150935093915050565b6000611b338284614b27565b6001600160a01b03841661381a576000828152601160205260409020613817906137e2836137b4565b50505b6001600160a01b038316613846576000828152601160205260409020613843906137a8836137b4565b50505b6001600160a01b038085166000908152600f60208181526040808420878552825280842054888616855292825280842087855290915290912054610b8f92918216911684846132b3565b81546000908190816138a18661277e565b90506000821180156138df575043866138bb600185614b14565b815481106138cb576138cb614717565b60009182526020909120015463ffffffff16145b1561393f576138ed856139bb565b866138f9600185614b14565b8154811061390957613909614717565b9060005260206000200160000160046101000a8154816001600160e01b0302191690836001600160e01b031602179055506139ad565b85600001604051806040016040528061395743613a28565b63ffffffff16815260200161396b886139bb565b6001600160e01b0390811690915282546001810184556000938452602093849020835194909301519091166401000000000263ffffffff909316929092179101555b9250839150505b9250929050565b60006001600160e01b03821115613a245760405162461bcd60e51b815260206004820152602760248201527f53616665436173743a2076616c756520646f65736e27742066697420696e20326044820152663234206269747360c81b60648201526084016120ba565b5090565b600063ffffffff821115613a245760405162461bcd60e51b815260206004820152602660248201527f53616665436173743a2076616c756520646f65736e27742066697420696e203360448201526532206269747360d01b60648201526084016120ba565b6001600160e01b0319811681146120cc57600080fd5b600060208284031215613ab557600080fd5b8135611b3381613a8d565b60005b83811015613adb578181015183820152602001613ac3565b50506000910152565b60008151808452613afc816020860160208601613ac0565b601f01601f19169290920160200192915050565b602081526000611b336020830184613ae4565b600060208284031215613b3557600080fd5b5035919050565b6001600160a01b03811681146120cc57600080fd5b8035613b5c81613b3c565b919050565b60008060408385031215613b7457600080fd5b8235613b7f81613b3c565b946020939093013593505050565b600080600060608486031215613ba257600080fd5b8335613bad81613b3c565b92506020840135613bbd81613b3c565b929592945050506040919091013590565b600060208284031215613be057600080fd5b8135611b3381613b3c565b60008060208385031215613bfe57600080fd5b82356001600160401b0380821115613c1557600080fd5b818501915085601f830112613c2957600080fd5b813581811115613c3857600080fd5b8660208260061b8501011115613c4d57600080fd5b60209290920196919550909350505050565b60006101e08284031215613c7257600080fd5b50919050565b600060208284031215613c8a57600080fd5b81356001600160401b03811115613ca057600080fd5b611d9784828501613c5f565b60008083601f840112613cbe57600080fd5b5081356001600160401b03811115613cd557600080fd5b6020830191508360208260051b85010111156139b457600080fd5b60008060208385031215613d0357600080fd5b82356001600160401b03811115613d1957600080fd5b613d2585828601613cac565b90969095509350505050565b600080600060408486031215613d4657600080fd5b83356001600160401b03811115613d5c57600080fd5b613d6886828701613cac565b9094509250506020840135613d7c81613b3c565b809150509250925092565b600081518084526020808501945080840160005b83811015613db757815187529582019590820190600101613d9b565b509495945050505050565b602081526000611b336020830184613d87565b60008060208385031215613de857600080fd5b82356001600160401b0380821115613dff57600080fd5b818501915085601f830112613e1357600080fd5b813581811115613e2257600080fd5b866020828501011115613c4d57600080fd5b80151581146120cc57600080fd5b8035613b5c81613e34565b60008060408385031215613e6057600080fd5b8235613e6b81613b3c565b91506020830135613e7b81613e34565b809150509250929050565b83815260006020606081840152613ea06060840186613ae4565b83810360408581019190915285518083528387019284019060005b81811015613ee957845180516001600160a01b03168452860151868401529385019391830191600101613ebb565b50909998505050505050505050565b60008060408385031215613f0b57600080fd5b50508035926020909101359150565b634e487b7160e01b600052604160045260246000fd5b604051608081016001600160401b0381118282101715613f5257613f52613f1a565b60405290565b60405161014081016001600160401b0381118282101715613f5257613f52613f1a565b604080519081016001600160401b0381118282101715613f5257613f52613f1a565b60405161012081016001600160401b0381118282101715613f5257613f52613f1a565b60405161016081016001600160401b0381118282101715613f5257613f52613f1a565b604051601f8201601f191681016001600160401b038111828210171561400b5761400b613f1a565b604052919050565b60006001600160401b0382111561402c5761402c613f1a565b50601f01601f191660200190565b600061404d61404884614013565b613fe3565b905082815283838301111561406157600080fd5b828260208301376000602084830101529392505050565b6000806000806080858703121561408e57600080fd5b843561409981613b3c565b935060208501356140a981613b3c565b92506040850135915060608501356001600160401b038111156140cb57600080fd5b8501601f810187136140dc57600080fd5b6140eb8782356020840161403a565b91505092959194509250565b600082601f83011261410857600080fd5b611b338383356020850161403a565b60006001600160401b0382111561413057614130613f1a565b5060051b60200190565b803569ffffffffffffffffffff81168114613b5c57600080fd5b803565ffffffffffff81168114613b5c57600080fd5b803564ffffffffff81168114613b5c57600080fd5b803561ffff81168114613b5c57600080fd5b600060808083850312156141a457600080fd5b6141ac613f30565b915082356001600160401b038111156141c457600080fd5b8301601f810185136141d557600080fd5b803560206141e561404883614117565b828152610140928302840182019282820191908985111561420557600080fd5b948301945b848610156142d45780868b0312156142225760008081fd5b61422a613f58565b6142338761413a565b8152614240858801614154565b85820152604061425181890161416a565b90820152606061426288820161417f565b9082015261427187890161417f565b8882015260a0614282818901613b51565b9082015260c0878101359082015260e061429d818901613e42565b908201526101006142af888201613e42565b908201526101206142c1888201613e42565b908201528352948501949183019161420a565b508652508581013590850152505050604080830135908201526142f960608301613b51565b606082015292915050565b60006060828403121561431657600080fd5b604051606081018181106001600160401b038211171561433857614338613f1a565b604052905080823561434981613e34565b8152602083013561435981613e34565b6020820152604083013561436c81613e34565b6040919091015292915050565b60008060008060008060008060008060006101a08c8e03121561439b57600080fd5b8b359a506143ab60208d01613b51565b99506001600160401b038060408e013511156143c657600080fd5b6143d68e60408f01358f016140f7565b99508060608e013511156143e957600080fd5b6143f98e60608f01358f016140f7565b985061440760808e01613b51565b97508060a08e0135111561441a57600080fd5b61442a8e60a08f01358f016140f7565b965061443860c08e01613b51565b95508060e08e0135111561444b57600080fd5b61445b8e60e08f01358f016140f7565b9450806101008e0135111561446f57600080fd5b506144818d6101008e01358e01614191565b92506144906101208d01613b51565b91506144a08d6101408e01614304565b90509295989b509295989b9093969950565b600060208083850312156144c557600080fd5b82356001600160401b038111156144db57600080fd5b8301601f810185136144ec57600080fd5b80356144fa61404882614117565b81815260069190911b8201830190838101908783111561451957600080fd5b928401925b8284101561456557604084890312156145375760008081fd5b61453f613f7b565b843561454a81613b3c565b8152848601358682015282526040909301929084019061451e565b979650505050505050565b60008060006060848603121561458557600080fd5b833561459081613b3c565b95602085013595506040909401359392505050565b6000602082840312156145b757600080fd5b81356001600160401b038111156145cd57600080fd5b82016101a08185031215611b3357600080fd5b6000602082840312156145f257600080fd5b81356001600160401b0381111561460857600080fd5b82016102008185031215611b3357600080fd5b6000806040838503121561462e57600080fd5b823561463981613b3c565b91506020830135613e7b81613b3c565b6000806000806040858703121561465f57600080fd5b84356001600160401b038082111561467657600080fd5b818701915087601f83011261468a57600080fd5b81358181111561469957600080fd5b886020610140830285010111156146af57600080fd5b6020928301965094509086013590808211156146ca57600080fd5b506146d787828801613cac565b95989497509550505050565b600181811c908216806146f757607f821691505b602082108103613c7257634e487b7160e01b600052602260045260246000fd5b634e487b7160e01b600052603260045260246000fd5b60006040828403121561473f57600080fd5b604051604081018181106001600160401b038211171561476157614761613f1a565b604052823581526020928301359281019290925250919050565b8051613b5c81613e34565b60006020828403121561479857600080fd5b8151611b3381613e34565b6000808335601e198436030181126147ba57600080fd5b8301803591506001600160401b038211156147d457600080fd5b6020019150368190038213156139b457600080fd5b600080858511156147f957600080fd5b8386111561480657600080fd5b5050820193919092039150565b6001600160e01b0319813581811691600485101561483b5780818660040360031b1b83161692505b505092915050565b60008060006060848603121561485857600080fd5b8335925060208085013561486b81613a8d565b925060408501356001600160401b0381111561488657600080fd5b8501601f8101871361489757600080fd5b80356148a561404882614117565b81815260059190911b820183019083810190898311156148c457600080fd5b928401925b828410156148e2578335825292840192908401906148c9565b80955050505050509250925092565b60008235603e1983360301811261490757600080fd5b9190910192915050565b6000808335601e1984360301811261492857600080fd5b8301803591506001600160401b0382111561494257600080fd5b6020019150600581901b36038213156139b457600080fd5b8051613b5c81613b3c565b60006020828403121561497757600080fd5b8151611b3381613b3c565b84815260606020808301829052908201849052600090859060808401835b878110156149c75761ffff6149b48561417f565b16825292820192908201906001016149a0565b50809350505050821515604083015295945050505050565b600082601f8301126149f057600080fd5b81516020614a0061404883614117565b82815260059290921b84018101918181019086841115614a1f57600080fd5b8286015b84811015614a3a5780518352918301918301614a23565b509695505050505050565b60008060408385031215614a5857600080fd5b82516001600160401b03811115614a6e57600080fd5b614a7a858286016149df565b925050602083015190509250929050565b600060208284031215614a9d57600080fd5b611b338261417f565b600060208284031215614ab857600080fd5b5051919050565b60208152816020820152818360408301376000818301604090810191909152601f909201601f19160101919050565b8183823760009101908152919050565b634e487b7160e01b600052601160045260246000fd5b8181038181111561091657610916614afe565b8082018082111561091657610916614afe565b60006101208284031215614b4d57600080fd5b614b55613f9d565b825181526020830151602082015260408301516040820152606083015160608201526080830151608082015260a083015160a082015260c083015160c0820152614ba160e0840161495a565b60e0820152610100928301519281019290925250919050565b600060208284031215614bcc57600080fd5b81516001600160401b03811115614be257600080fd5b611d97848285016149df565b602080825282518282018190526000919060409081850190868401855b82811015614cba578151805169ffffffffffffffffffff1685528681015165ffffffffffff16878601528581015164ffffffffff168686015260608082015161ffff908116918701919091526080808301519091169086015260a0808201516001600160a01b03169086015260c0808201519086015260e08082015115159086015261010080820151151590860152610120908101511515908501526101409093019290850190600101614c0b565b5091979650505050505050565b600060208284031215614cd957600080fd5b81516001600160401b03811115614cef57600080fd5b8201601f81018413614d0057600080fd5b8051614d0e61404882614013565b818152856020838501011115614d2357600080fd5b614d34826020830160208601613ac0565b95945050505050565b604081526000614d506040830185613ae4565b90508260208301529392505050565b6020808252810182905260006001600160fb1b03831115614d7f57600080fd5b8260051b80856040850137919091016040019392505050565b614db582614da58361413a565b69ffffffffffffffffffff169052565b614dc160208201614154565b65ffffffffffff166020830152614dda6040820161416a565b64ffffffffff166040830152614df26060820161417f565b61ffff166060830152614e076080820161417f565b61ffff166080830152614e1c60a08201613b51565b6001600160a01b031660a083015260c08181013590830152614e4060e08201613e42565b151560e0830152610100614e55828201613e42565b151590830152610120614e69828201613e42565b80151584830152610b8f565b6020808252810182905260008360408301825b85811015614eae57614e9a8284614d98565b610140928301929190910190600101614e88565b5095945050505050565b6101608101614ec78285614d98565b6001600160a01b03929092166101409190910152919050565b6001600160a01b0383168152604060208201819052600090611d9790830184613d87565b634e487b7160e01b600052601260045260246000fd5b600181815b80851115614f55578160001904821115614f3b57614f3b614afe565b80851615614f4857918102915b93841c9390800290614f1f565b509250929050565b600082614f6c57506001610916565b81614f7957506000610916565b8160018114614f8f5760028114614f9957614fb5565b6001915050610916565b60ff841115614faa57614faa614afe565b50506001821b610916565b5060208310610133831016604e8410600b8410161715614fd8575081810a610916565b614fe28383614f1a565b8060001904821115614ff657614ff6614afe565b029392505050565b6000611b338383614f5d565b600080600080600080600060e0888a03121561502557600080fd5b873596506020808901359650604089013561503f81613a8d565b9550606089013561504f81613e34565b9450608089013561505f81613e34565b935060a089013561506f81613e34565b925060c08901356001600160401b0381111561508a57600080fd5b8901601f81018b1361509b57600080fd5b80356150a961404882614117565b81815260059190911b8201830190838101908d8311156150c857600080fd5b928401925b828410156150ed576150de8461417f565b825292840192908401906150cd565b809550505050505092959891949750929550565b6000610160828403121561511457600080fd5b61511c613fc0565b825181526020830151602082015260408301516040820152606083015160608201526080830151608082015260a083015160a082015260c083015160c082015261516860e0840161495a565b60e0820152610100838101519082015261012061518681850161477b565b9082015261014061519884820161477b565b908201529392505050565b6001600160a01b03858116825284166020820152604081018390526080606082018190526000906151d690830184613ae4565b9695505050505050565b6000602082840312156151f257600080fd5b8151611b3381613a8d565b601f821115610a5c57600081815260208120601f850160051c810160208610156152245750805b601f850160051c820191505b818110156122aa57828155600101615230565b81516001600160401b0381111561525c5761525c613f1a565b6152708161526a84546146e3565b846151fd565b602080601f8311600181146152a5576000841561528d5750858301515b600019600386901b1c1916600185901b1785556122aa565b600085815260208120601f198616915b828110156152d4578886015182559484019460019091019084016152b5565b50858210156152f25787850151600019600388901b60f8161c191681555b5050505050600190811b01905550565b60008261531f57634e487b7160e01b600052601260045260246000fd5b500490565b6000606082018583526020606081850152818651808452608086019150828801935060005b8181101561536957845161ffff1683529383019391830191600101615349565b50508093505050508215156040830152949350505050565b60008060006060848603121561539657600080fd5b835192506020840151915060408401519050925092509256fea264697066735822122007648025dcd63a4d4741d92b54cb16bfdb5bd232d465f4f7ffee33e2e3fa0b3b64736f6c63430008110033",
    "linkReferences": {
      "contracts/libraries/JBIpfsDecoder.sol": {
        "JBIpfsDecoder": [
          {
            "start": 7145,
            "length": 20
          }
        ]
      }
    }
  },
  "methodIdentifiers": {
    "adjustTiers((uint80,uint48,uint40,uint16,uint16,address,bytes32,bool,bool,bool)[],uint256[])": "f5a38e63",
    "approve(address,uint256)": "095ea7b3",
    "balanceOf(address)": "70a08231",
    "codeOrigin()": "1d153ca4",
    "contractURI()": "e8a3d485",
    "creditsOf(address)": "245a45b5",
    "didPay((address,uint256,uint256,(address,uint256,uint256,uint256),(address,uint256,uint256,uint256),uint256,address,bool,string,bytes))": "da9ee8b7",
    "didRedeem((address,uint256,uint256,uint256,(address,uint256,uint256,uint256),(address,uint256,uint256,uint256),address,string,bytes))": "2b13c58f",
    "directory()": "c41c2f24",
    "firstOwnerOf(uint256)": "54c6d1f5",
    "fundingCycleStore()": "557e7155",
    "getApproved(uint256)": "081812fc",
    "getPastTierTotalVotes(uint256,uint256)": "d31cc52c",
    "getPastTierVotes(address,uint256,uint256)": "d40e7146",
    "getTierDelegate(address,uint256)": "82732b6d",
    "getTierTotalVotes(uint256)": "94c5c5ca",
    "getTierVotes(address,uint256)": "ca323efe",
    "initialize(uint256,address,string,string,address,string,address,string,((uint80,uint48,uint40,uint16,uint16,address,bytes32,bool,bool,bool)[],uint256,uint256,address),address,(bool,bool,bool))": "bb52b6e4",
    "isApprovedForAll(address,address)": "e985e9c5",
    "mintFor((uint16[],address)[])": "36c1a93b",
    "mintFor(uint16[],address)": "6ac6d941",
    "mintReservesFor((uint256,uint256)[])": "2a596e53",
    "mintReservesFor(uint256,uint256)": "aa4fb15b",
    "name()": "06fdde03",
    "owner()": "8da5cb5b",
    "ownerOf(uint256)": "6352211e",
    "payParams((address,address,(address,uint256,uint256,uint256),uint256,uint256,address,uint256,uint256,string,bytes))": "d46cf171",
    "prices()": "d3419bf3",
    "pricingCurrency()": "64640c1e",
    "pricingDecimals()": "4ecba625",
    "projectId()": "3fafa127",
    "redeemParams((address,address,uint256,uint256,uint256,uint256,uint256,(address,uint256,uint256,uint256),bool,uint256,string,bytes))": "a51cfd18",
    "renounceOwnership()": "715018a6",
    "safeTransferFrom(address,address,uint256)": "42842e0e",
    "safeTransferFrom(address,address,uint256,bytes)": "b88d4fde",
    "setApprovalForAll(address,bool)": "a22cb465",
    "setBaseUri(string)": "a0bcfc7f",
    "setContractUri(string)": "ccb4807b",
    "setDefaultReservedTokenBeneficiary(address)": "df487e26",
    "setTierDelegate(address,uint256)": "ab951e39",
    "setTierDelegates((address,uint256)[])": "c74b13d9",
    "setTokenUriResolver(address)": "2407497e",
    "store()": "975057e7",
    "supportsInterface(bytes4)": "01ffc9a7",
    "symbol()": "95d89b41",
    "tokenURI(uint256)": "c87b56dd",
    "transferFrom(address,address,uint256)": "23b872dd",
    "transferOwnership(address)": "f2fde38b"
  },
  "id": 1
}