{
  "abi": [
    {
      "inputs": [],
      "name": "ALEADY_MINTED",
      "type": "error"
    },
    {
      "inputs": [],
      "name": "APPROVAL_TO_CURRENT_OWNER",
      "type": "error"
    },
    {
      "inputs": [],
      "name": "APPROVE_TO_CALLER",
      "type": "error"
    },
    {
      "inputs": [],
      "name": "BLOCK_NOT_YET_MINED",
      "type": "error"
    },
    {
      "inputs": [],
      "name": "CALLER_NOT_OWNER_OR_APPROVED",
      "type": "error"
    },
    {
      "inputs": [],
      "name": "INCORRECT_OWNER",
      "type": "error"
    },
    {
      "inputs": [],
      "name": "INVALID_PAYMENT_EVENT",
      "type": "error"
    },
    {
      "inputs": [],
      "name": "INVALID_REDEMPTION_EVENT",
      "type": "error"
    },
    {
      "inputs": [],
      "name": "INVALID_REDEMPTION_METADATA",
      "type": "error"
    },
    {
      "inputs": [],
      "name": "INVALID_TOKEN_ID",
      "type": "error"
    },
    {
      "inputs": [],
      "name": "MINT_TO_ZERO",
      "type": "error"
    },
    {
      "inputs": [],
      "name": "NOT_AVAILABLE",
      "type": "error"
    },
    {
      "inputs": [],
      "name": "OVERSPENDING",
      "type": "error"
    },
    {
      "inputs": [
        {
          "internalType": "uint256",
          "name": "prod1",
          "type": "uint256"
        },
        {
          "internalType": "uint256",
          "name": "denominator",
          "type": "uint256"
        }
      ],
      "name": "PRBMath__MulDivOverflow",
      "type": "error"
    },
    {
      "inputs": [],
      "name": "PRICING_RESOLVER_CHANGES_PAUSED",
      "type": "error"
    },
    {
      "inputs": [],
      "name": "RESERVED_TOKEN_MINTING_PAUSED",
      "type": "error"
    },
    {
      "inputs": [],
      "name": "TRANSFERS_PAUSED",
      "type": "error"
    },
    {
      "inputs": [],
      "name": "TRANSFER_TO_NON_IMPLEMENTER",
      "type": "error"
    },
    {
      "inputs": [],
      "name": "TRANSFER_TO_ZERO_ADDRESS",
      "type": "error"
    },
    {
      "inputs": [],
      "name": "UNAUTHORIZED",
      "type": "error"
    },
    {
      "inputs": [],
      "name": "UNEXPECTED_TOKEN_REDEEMED",
      "type": "error"
    },
    {
      "anonymous": false,
      "inputs": [
        {
          "indexed": true,
          "internalType": "uint256",
          "name": "tierId",
          "type": "uint256"
        },
        {
          "components": [
            {
              "internalType": "uint256",
              "name": "contributionFloor",
              "type": "uint256"
            },
            {
              "internalType": "uint256",
              "name": "lockedUntil",
              "type": "uint256"
            },
            {
              "internalType": "uint256",
              "name": "initialQuantity",
              "type": "uint256"
            },
            {
              "internalType": "uint256",
              "name": "votingUnits",
              "type": "uint256"
            },
            {
              "internalType": "uint256",
              "name": "reservedRate",
              "type": "uint256"
            },
            {
              "internalType": "address",
              "name": "reservedTokenBeneficiary",
              "type": "address"
            },
            {
              "internalType": "bytes32",
              "name": "encodedIPFSUri",
              "type": "bytes32"
            },
            {
              "internalType": "bool",
              "name": "allowManualMint",
              "type": "bool"
            },
            {
              "internalType": "bool",
              "name": "shouldUseBeneficiaryAsDefault",
              "type": "bool"
            }
          ],
          "indexed": false,
          "internalType": "struct JB721TierParams",
          "name": "data",
          "type": "tuple"
        },
        {
          "indexed": false,
          "internalType": "address",
          "name": "caller",
          "type": "address"
        }
      ],
      "name": "AddTier",
      "type": "event"
    },
    {
      "anonymous": false,
      "inputs": [
        {
          "indexed": true,
          "internalType": "address",
          "name": "owner",
          "type": "address"
        },
        {
          "indexed": true,
          "internalType": "address",
          "name": "approved",
          "type": "address"
        },
        {
          "indexed": true,
          "internalType": "uint256",
          "name": "tokenId",
          "type": "uint256"
        }
      ],
      "name": "Approval",
      "type": "event"
    },
    {
      "anonymous": false,
      "inputs": [
        {
          "indexed": true,
          "internalType": "address",
          "name": "owner",
          "type": "address"
        },
        {
          "indexed": true,
          "internalType": "address",
          "name": "operator",
          "type": "address"
        },
        {
          "indexed": false,
          "internalType": "bool",
          "name": "approved",
          "type": "bool"
        }
      ],
      "name": "ApprovalForAll",
      "type": "event"
    },
    {
      "anonymous": false,
      "inputs": [
        {
          "indexed": true,
          "internalType": "address",
          "name": "delegator",
          "type": "address"
        },
        {
          "indexed": true,
          "internalType": "address",
          "name": "fromDelegate",
          "type": "address"
        },
        {
          "indexed": true,
          "internalType": "address",
          "name": "toDelegate",
          "type": "address"
        }
      ],
      "name": "DelegateChanged",
      "type": "event"
    },
    {
      "anonymous": false,
      "inputs": [
        {
          "indexed": true,
          "internalType": "uint256",
          "name": "tokenId",
          "type": "uint256"
        },
        {
          "indexed": true,
          "internalType": "uint256",
          "name": "tierId",
          "type": "uint256"
        },
        {
          "indexed": true,
          "internalType": "address",
          "name": "beneficiary",
          "type": "address"
        },
        {
          "indexed": false,
          "internalType": "uint256",
          "name": "totalAmountContributed",
          "type": "uint256"
        },
        {
          "indexed": false,
          "internalType": "address",
          "name": "caller",
          "type": "address"
        }
      ],
      "name": "Mint",
      "type": "event"
    },
    {
      "anonymous": false,
      "inputs": [
        {
          "indexed": true,
          "internalType": "uint256",
          "name": "tokenId",
          "type": "uint256"
        },
        {
          "indexed": true,
          "internalType": "uint256",
          "name": "tierId",
          "type": "uint256"
        },
        {
          "indexed": true,
          "internalType": "address",
          "name": "beneficiary",
          "type": "address"
        },
        {
          "indexed": false,
          "internalType": "address",
          "name": "caller",
          "type": "address"
        }
      ],
      "name": "MintReservedToken",
      "type": "event"
    },
    {
      "anonymous": false,
      "inputs": [
        {
          "indexed": true,
          "internalType": "address",
          "name": "previousOwner",
          "type": "address"
        },
        {
          "indexed": true,
          "internalType": "address",
          "name": "newOwner",
          "type": "address"
        }
      ],
      "name": "OwnershipTransferred",
      "type": "event"
    },
    {
      "anonymous": false,
      "inputs": [
        {
          "indexed": true,
          "internalType": "uint256",
          "name": "tierId",
          "type": "uint256"
        },
        {
          "indexed": false,
          "internalType": "address",
          "name": "caller",
          "type": "address"
        }
      ],
      "name": "RemoveTier",
      "type": "event"
    },
    {
      "anonymous": false,
      "inputs": [
        {
          "indexed": true,
          "internalType": "string",
          "name": "baseUri",
          "type": "string"
        },
        {
          "indexed": false,
          "internalType": "address",
          "name": "caller",
          "type": "address"
        }
      ],
      "name": "SetBaseUri",
      "type": "event"
    },
    {
      "anonymous": false,
      "inputs": [
        {
          "indexed": true,
          "internalType": "string",
          "name": "contractUri",
          "type": "string"
        },
        {
          "indexed": false,
          "internalType": "address",
          "name": "caller",
          "type": "address"
        }
      ],
      "name": "SetContractUri",
      "type": "event"
    },
    {
      "anonymous": false,
      "inputs": [
        {
          "indexed": true,
          "internalType": "address",
          "name": "beneficiary",
          "type": "address"
        },
        {
          "indexed": false,
          "internalType": "address",
          "name": "caller",
          "type": "address"
        }
      ],
      "name": "SetDefaultReservedTokenBeneficiary",
      "type": "event"
    },
    {
      "anonymous": false,
      "inputs": [
        {
          "indexed": true,
          "internalType": "contract IJBTokenUriResolver",
          "name": "newResolver",
          "type": "address"
        },
        {
          "indexed": false,
          "internalType": "address",
          "name": "caller",
          "type": "address"
        }
      ],
      "name": "SetTokenUriResolver",
      "type": "event"
    },
    {
      "anonymous": false,
      "inputs": [
        {
          "indexed": true,
          "internalType": "address",
          "name": "delegator",
          "type": "address"
        },
        {
          "indexed": true,
          "internalType": "address",
          "name": "fromDelegate",
          "type": "address"
        },
        {
          "indexed": true,
          "internalType": "address",
          "name": "toDelegate",
          "type": "address"
        },
        {
          "indexed": false,
          "internalType": "uint256",
          "name": "tierId",
          "type": "uint256"
        },
        {
          "indexed": false,
          "internalType": "address",
          "name": "caller",
          "type": "address"
        }
      ],
      "name": "TierDelegateChanged",
      "type": "event"
    },
    {
      "anonymous": false,
      "inputs": [
        {
          "indexed": true,
          "internalType": "address",
          "name": "delegate",
          "type": "address"
        },
        {
          "indexed": true,
          "internalType": "uint256",
          "name": "tierId",
          "type": "uint256"
        },
        {
          "indexed": false,
          "internalType": "uint256",
          "name": "previousBalance",
          "type": "uint256"
        },
        {
          "indexed": false,
          "internalType": "uint256",
          "name": "newBalance",
          "type": "uint256"
        },
        {
          "indexed": false,
          "internalType": "address",
          "name": "callre",
          "type": "address"
        }
      ],
      "name": "TierDelegateVotesChanged",
      "type": "event"
    },
    {
      "anonymous": false,
      "inputs": [
        {
          "indexed": true,
          "internalType": "address",
          "name": "from",
          "type": "address"
        },
        {
          "indexed": true,
          "internalType": "address",
          "name": "to",
          "type": "address"
        },
        {
          "indexed": true,
          "internalType": "uint256",
          "name": "tokenId",
          "type": "uint256"
        }
      ],
      "name": "Transfer",
      "type": "event"
    },
    {
      "inputs": [
        {
          "components": [
            {
              "internalType": "uint256",
              "name": "contributionFloor",
              "type": "uint256"
            },
            {
              "internalType": "uint256",
              "name": "lockedUntil",
              "type": "uint256"
            },
            {
              "internalType": "uint256",
              "name": "initialQuantity",
              "type": "uint256"
            },
            {
              "internalType": "uint256",
              "name": "votingUnits",
              "type": "uint256"
            },
            {
              "internalType": "uint256",
              "name": "reservedRate",
              "type": "uint256"
            },
            {
              "internalType": "address",
              "name": "reservedTokenBeneficiary",
              "type": "address"
            },
            {
              "internalType": "bytes32",
              "name": "encodedIPFSUri",
              "type": "bytes32"
            },
            {
              "internalType": "bool",
              "name": "allowManualMint",
              "type": "bool"
            },
            {
              "internalType": "bool",
              "name": "shouldUseBeneficiaryAsDefault",
              "type": "bool"
            }
          ],
          "internalType": "struct JB721TierParams[]",
          "name": "_tiersToAdd",
          "type": "tuple[]"
        },
        {
          "internalType": "uint256[]",
          "name": "_tierIdsToRemove",
          "type": "uint256[]"
        }
      ],
      "name": "adjustTiers",
      "outputs": [],
      "stateMutability": "nonpayable",
      "type": "function"
    },
    {
      "inputs": [
        {
          "internalType": "address",
          "name": "to",
          "type": "address"
        },
        {
          "internalType": "uint256",
          "name": "tokenId",
          "type": "uint256"
        }
      ],
      "name": "approve",
      "outputs": [],
      "stateMutability": "nonpayable",
      "type": "function"
    },
    {
      "inputs": [
        {
          "internalType": "address",
          "name": "_owner",
          "type": "address"
        }
      ],
      "name": "balanceOf",
      "outputs": [
        {
          "internalType": "uint256",
          "name": "balance",
          "type": "uint256"
        }
      ],
      "stateMutability": "view",
      "type": "function"
    },
    {
      "inputs": [],
      "name": "contractURI",
      "outputs": [
        {
          "internalType": "string",
          "name": "",
          "type": "string"
        }
      ],
      "stateMutability": "view",
      "type": "function"
    },
    {
      "inputs": [
        {
          "internalType": "address",
          "name": "",
          "type": "address"
        }
      ],
      "name": "creditsOf",
      "outputs": [
        {
          "internalType": "uint256",
          "name": "",
          "type": "uint256"
        }
      ],
      "stateMutability": "view",
      "type": "function"
    },
    {
      "inputs": [
        {
          "components": [
            {
              "internalType": "address",
              "name": "payer",
              "type": "address"
            },
            {
              "internalType": "uint256",
              "name": "projectId",
              "type": "uint256"
            },
            {
              "internalType": "uint256",
              "name": "currentFundingCycleConfiguration",
              "type": "uint256"
            },
            {
              "components": [
                {
                  "internalType": "address",
                  "name": "token",
                  "type": "address"
                },
                {
                  "internalType": "uint256",
                  "name": "value",
                  "type": "uint256"
                },
                {
                  "internalType": "uint256",
                  "name": "decimals",
                  "type": "uint256"
                },
                {
                  "internalType": "uint256",
                  "name": "currency",
                  "type": "uint256"
                }
              ],
              "internalType": "struct JBTokenAmount",
              "name": "amount",
              "type": "tuple"
            },
            {
              "components": [
                {
                  "internalType": "address",
                  "name": "token",
                  "type": "address"
                },
                {
                  "internalType": "uint256",
                  "name": "value",
                  "type": "uint256"
                },
                {
                  "internalType": "uint256",
                  "name": "decimals",
                  "type": "uint256"
                },
                {
                  "internalType": "uint256",
                  "name": "currency",
                  "type": "uint256"
                }
              ],
              "internalType": "struct JBTokenAmount",
              "name": "forwardedAmount",
              "type": "tuple"
            },
            {
              "internalType": "uint256",
              "name": "projectTokenCount",
              "type": "uint256"
            },
            {
              "internalType": "address",
              "name": "beneficiary",
              "type": "address"
            },
            {
              "internalType": "bool",
              "name": "preferClaimedTokens",
              "type": "bool"
            },
            {
              "internalType": "string",
              "name": "memo",
              "type": "string"
            },
            {
              "internalType": "bytes",
              "name": "metadata",
              "type": "bytes"
            }
          ],
          "internalType": "struct JBDidPayData",
          "name": "_data",
          "type": "tuple"
        }
      ],
      "name": "didPay",
      "outputs": [],
      "stateMutability": "payable",
      "type": "function"
    },
    {
      "inputs": [
        {
          "components": [
            {
              "internalType": "address",
              "name": "holder",
              "type": "address"
            },
            {
              "internalType": "uint256",
              "name": "projectId",
              "type": "uint256"
            },
            {
              "internalType": "uint256",
              "name": "currentFundingCycleConfiguration",
              "type": "uint256"
            },
            {
              "internalType": "uint256",
              "name": "projectTokenCount",
              "type": "uint256"
            },
            {
              "components": [
                {
                  "internalType": "address",
                  "name": "token",
                  "type": "address"
                },
                {
                  "internalType": "uint256",
                  "name": "value",
                  "type": "uint256"
                },
                {
                  "internalType": "uint256",
                  "name": "decimals",
                  "type": "uint256"
                },
                {
                  "internalType": "uint256",
                  "name": "currency",
                  "type": "uint256"
                }
              ],
              "internalType": "struct JBTokenAmount",
              "name": "reclaimedAmount",
              "type": "tuple"
            },
            {
              "components": [
                {
                  "internalType": "address",
                  "name": "token",
                  "type": "address"
                },
                {
                  "internalType": "uint256",
                  "name": "value",
                  "type": "uint256"
                },
                {
                  "internalType": "uint256",
                  "name": "decimals",
                  "type": "uint256"
                },
                {
                  "internalType": "uint256",
                  "name": "currency",
                  "type": "uint256"
                }
              ],
              "internalType": "struct JBTokenAmount",
              "name": "forwardedAmount",
              "type": "tuple"
            },
            {
              "internalType": "address payable",
              "name": "beneficiary",
              "type": "address"
            },
            {
              "internalType": "string",
              "name": "memo",
              "type": "string"
            },
            {
              "internalType": "bytes",
              "name": "metadata",
              "type": "bytes"
            }
          ],
          "internalType": "struct JBDidRedeemData",
          "name": "_data",
          "type": "tuple"
        }
      ],
      "name": "didRedeem",
      "outputs": [],
      "stateMutability": "payable",
      "type": "function"
    },
    {
      "inputs": [],
      "name": "directory",
      "outputs": [
        {
          "internalType": "contract IJBDirectory",
          "name": "",
          "type": "address"
        }
      ],
      "stateMutability": "view",
      "type": "function"
    },
    {
      "inputs": [
        {
          "internalType": "uint256",
          "name": "_tokenId",
          "type": "uint256"
        }
      ],
      "name": "firstOwnerOf",
      "outputs": [
        {
          "internalType": "address",
          "name": "",
          "type": "address"
        }
      ],
      "stateMutability": "view",
      "type": "function"
    },
    {
      "inputs": [],
      "name": "fundingCycleStore",
      "outputs": [
        {
          "internalType": "contract IJBFundingCycleStore",
          "name": "",
          "type": "address"
        }
      ],
      "stateMutability": "view",
      "type": "function"
    },
    {
      "inputs": [
        {
          "internalType": "uint256",
          "name": "tokenId",
          "type": "uint256"
        }
      ],
      "name": "getApproved",
      "outputs": [
        {
          "internalType": "address",
          "name": "",
          "type": "address"
        }
      ],
      "stateMutability": "view",
      "type": "function"
    },
    {
      "inputs": [
        {
          "internalType": "uint256",
          "name": "_tier",
          "type": "uint256"
        },
        {
          "internalType": "uint256",
          "name": "_blockNumber",
          "type": "uint256"
        }
      ],
      "name": "getPastTierTotalVotes",
      "outputs": [
        {
          "internalType": "uint256",
          "name": "",
          "type": "uint256"
        }
      ],
      "stateMutability": "view",
      "type": "function"
    },
    {
      "inputs": [
        {
          "internalType": "address",
          "name": "_account",
          "type": "address"
        },
        {
          "internalType": "uint256",
          "name": "_tier",
          "type": "uint256"
        },
        {
          "internalType": "uint256",
          "name": "_blockNumber",
          "type": "uint256"
        }
      ],
      "name": "getPastTierVotes",
      "outputs": [
        {
          "internalType": "uint256",
          "name": "",
          "type": "uint256"
        }
      ],
      "stateMutability": "view",
      "type": "function"
    },
    {
      "inputs": [
        {
          "internalType": "address",
          "name": "_account",
          "type": "address"
        },
        {
          "internalType": "uint256",
          "name": "_tier",
          "type": "uint256"
        }
      ],
      "name": "getTierDelegate",
      "outputs": [
        {
          "internalType": "address",
          "name": "",
          "type": "address"
        }
      ],
      "stateMutability": "view",
      "type": "function"
    },
    {
      "inputs": [
        {
          "internalType": "uint256",
          "name": "_tier",
          "type": "uint256"
        }
      ],
      "name": "getTierTotalVotes",
      "outputs": [
        {
          "internalType": "uint256",
          "name": "",
          "type": "uint256"
        }
      ],
      "stateMutability": "view",
      "type": "function"
    },
    {
      "inputs": [
        {
          "internalType": "address",
          "name": "_account",
          "type": "address"
        },
        {
          "internalType": "uint256",
          "name": "_tier",
          "type": "uint256"
        }
      ],
      "name": "getTierVotes",
      "outputs": [
        {
          "internalType": "uint256",
          "name": "",
          "type": "uint256"
        }
      ],
      "stateMutability": "view",
      "type": "function"
    },
    {
      "inputs": [
        {
          "internalType": "uint256",
          "name": "_projectId",
          "type": "uint256"
        },
        {
          "internalType": "contract IJBDirectory",
          "name": "_directory",
          "type": "address"
        },
        {
          "internalType": "string",
          "name": "_name",
          "type": "string"
        },
        {
          "internalType": "string",
          "name": "_symbol",
          "type": "string"
        },
        {
          "internalType": "contract IJBFundingCycleStore",
          "name": "_fundingCycleStore",
          "type": "address"
        },
        {
          "internalType": "string",
          "name": "_baseUri",
          "type": "string"
        },
        {
          "internalType": "contract IJBTokenUriResolver",
          "name": "_tokenUriResolver",
          "type": "address"
        },
        {
          "internalType": "string",
          "name": "_contractUri",
          "type": "string"
        },
        {
          "components": [
            {
              "components": [
                {
                  "internalType": "uint256",
                  "name": "contributionFloor",
                  "type": "uint256"
                },
                {
                  "internalType": "uint256",
                  "name": "lockedUntil",
                  "type": "uint256"
                },
                {
                  "internalType": "uint256",
                  "name": "initialQuantity",
                  "type": "uint256"
                },
                {
                  "internalType": "uint256",
                  "name": "votingUnits",
                  "type": "uint256"
                },
                {
                  "internalType": "uint256",
                  "name": "reservedRate",
                  "type": "uint256"
                },
                {
                  "internalType": "address",
                  "name": "reservedTokenBeneficiary",
                  "type": "address"
                },
                {
                  "internalType": "bytes32",
                  "name": "encodedIPFSUri",
                  "type": "bytes32"
                },
                {
                  "internalType": "bool",
                  "name": "allowManualMint",
                  "type": "bool"
                },
                {
                  "internalType": "bool",
                  "name": "shouldUseBeneficiaryAsDefault",
                  "type": "bool"
                }
              ],
              "internalType": "struct JB721TierParams[]",
              "name": "tiers",
              "type": "tuple[]"
            },
            {
              "internalType": "uint256",
              "name": "currency",
              "type": "uint256"
            },
            {
              "internalType": "uint256",
              "name": "decimals",
              "type": "uint256"
            },
            {
              "internalType": "contract IJBPrices",
              "name": "prices",
              "type": "address"
            }
          ],
          "internalType": "struct JB721PricingParams",
          "name": "_pricing",
          "type": "tuple"
        },
        {
          "internalType": "contract IJBTiered721DelegateStore",
          "name": "_store",
          "type": "address"
        },
        {
          "components": [
            {
              "internalType": "bool",
              "name": "lockReservedTokenChanges",
              "type": "bool"
            },
            {
              "internalType": "bool",
              "name": "lockVotingUnitChanges",
              "type": "bool"
            },
            {
              "internalType": "bool",
              "name": "lockManualMintingChanges",
              "type": "bool"
            },
            {
              "internalType": "bool",
              "name": "pausable",
              "type": "bool"
            }
          ],
          "internalType": "struct JBTiered721Flags",
          "name": "_flags",
          "type": "tuple"
        }
      ],
      "name": "initialize",
      "outputs": [],
      "stateMutability": "nonpayable",
      "type": "function"
    },
    {
      "inputs": [
        {
          "internalType": "address",
          "name": "owner",
          "type": "address"
        },
        {
          "internalType": "address",
          "name": "operator",
          "type": "address"
        }
      ],
      "name": "isApprovedForAll",
      "outputs": [
        {
          "internalType": "bool",
          "name": "",
          "type": "bool"
        }
      ],
      "stateMutability": "view",
      "type": "function"
    },
    {
      "inputs": [
        {
          "components": [
            {
              "internalType": "uint16[]",
              "name": "tierIds",
              "type": "uint16[]"
            },
            {
              "internalType": "address",
              "name": "beneficiary",
              "type": "address"
            }
          ],
          "internalType": "struct JBTiered721MintForTiersData[]",
          "name": "_mintForTiersData",
          "type": "tuple[]"
        }
      ],
      "name": "mintFor",
      "outputs": [],
      "stateMutability": "nonpayable",
      "type": "function"
    },
    {
      "inputs": [
        {
          "internalType": "uint16[]",
          "name": "_tierIds",
          "type": "uint16[]"
        },
        {
          "internalType": "address",
          "name": "_beneficiary",
          "type": "address"
        }
      ],
      "name": "mintFor",
      "outputs": [
        {
          "internalType": "uint256[]",
          "name": "tokenIds",
          "type": "uint256[]"
        }
      ],
      "stateMutability": "nonpayable",
      "type": "function"
    },
    {
      "inputs": [
        {
          "components": [
            {
              "internalType": "uint256",
              "name": "tierId",
              "type": "uint256"
            },
            {
              "internalType": "uint256",
              "name": "count",
              "type": "uint256"
            }
          ],
          "internalType": "struct JBTiered721MintReservesForTiersData[]",
          "name": "_mintReservesForTiersData",
          "type": "tuple[]"
        }
      ],
      "name": "mintReservesFor",
      "outputs": [],
      "stateMutability": "nonpayable",
      "type": "function"
    },
    {
      "inputs": [
        {
          "internalType": "uint256",
          "name": "_tierId",
          "type": "uint256"
        },
        {
          "internalType": "uint256",
          "name": "_count",
          "type": "uint256"
        }
      ],
      "name": "mintReservesFor",
      "outputs": [],
      "stateMutability": "nonpayable",
      "type": "function"
    },
    {
      "inputs": [],
      "name": "name",
      "outputs": [
        {
          "internalType": "string",
          "name": "",
          "type": "string"
        }
      ],
      "stateMutability": "view",
      "type": "function"
    },
    {
      "inputs": [],
      "name": "owner",
      "outputs": [
        {
          "internalType": "address",
          "name": "",
          "type": "address"
        }
      ],
      "stateMutability": "view",
      "type": "function"
    },
    {
      "inputs": [
        {
          "internalType": "uint256",
          "name": "tokenId",
          "type": "uint256"
        }
      ],
      "name": "ownerOf",
      "outputs": [
        {
          "internalType": "address",
          "name": "",
          "type": "address"
        }
      ],
      "stateMutability": "view",
      "type": "function"
    },
    {
      "inputs": [
        {
          "components": [
            {
              "internalType": "contract IJBPaymentTerminal",
              "name": "terminal",
              "type": "address"
            },
            {
              "internalType": "address",
              "name": "payer",
              "type": "address"
            },
            {
              "components": [
                {
                  "internalType": "address",
                  "name": "token",
                  "type": "address"
                },
                {
                  "internalType": "uint256",
                  "name": "value",
                  "type": "uint256"
                },
                {
                  "internalType": "uint256",
                  "name": "decimals",
                  "type": "uint256"
                },
                {
                  "internalType": "uint256",
                  "name": "currency",
                  "type": "uint256"
                }
              ],
              "internalType": "struct JBTokenAmount",
              "name": "amount",
              "type": "tuple"
            },
            {
              "internalType": "uint256",
              "name": "projectId",
              "type": "uint256"
            },
            {
              "internalType": "uint256",
              "name": "currentFundingCycleConfiguration",
              "type": "uint256"
            },
            {
              "internalType": "address",
              "name": "beneficiary",
              "type": "address"
            },
            {
              "internalType": "uint256",
              "name": "weight",
              "type": "uint256"
            },
            {
              "internalType": "uint256",
              "name": "reservedRate",
              "type": "uint256"
            },
            {
              "internalType": "string",
              "name": "memo",
              "type": "string"
            },
            {
              "internalType": "bytes",
              "name": "metadata",
              "type": "bytes"
            }
          ],
          "internalType": "struct JBPayParamsData",
          "name": "_data",
          "type": "tuple"
        }
      ],
      "name": "payParams",
      "outputs": [
        {
          "internalType": "uint256",
          "name": "weight",
          "type": "uint256"
        },
        {
          "internalType": "string",
          "name": "memo",
          "type": "string"
        },
        {
          "components": [
            {
              "internalType": "contract IJBPayDelegate",
              "name": "delegate",
              "type": "address"
            },
            {
              "internalType": "uint256",
              "name": "amount",
              "type": "uint256"
            }
          ],
          "internalType": "struct JBPayDelegateAllocation[]",
          "name": "delegateAllocations",
          "type": "tuple[]"
        }
      ],
      "stateMutability": "view",
      "type": "function"
    },
    {
      "inputs": [],
      "name": "prices",
      "outputs": [
        {
          "internalType": "contract IJBPrices",
          "name": "",
          "type": "address"
        }
      ],
      "stateMutability": "view",
      "type": "function"
    },
    {
      "inputs": [],
      "name": "pricingCurrency",
      "outputs": [
        {
          "internalType": "uint256",
          "name": "",
          "type": "uint256"
        }
      ],
      "stateMutability": "view",
      "type": "function"
    },
    {
      "inputs": [],
      "name": "pricingDecimals",
      "outputs": [
        {
          "internalType": "uint256",
          "name": "",
          "type": "uint256"
        }
      ],
      "stateMutability": "view",
      "type": "function"
    },
    {
      "inputs": [],
      "name": "projectId",
      "outputs": [
        {
          "internalType": "uint256",
          "name": "",
          "type": "uint256"
        }
      ],
      "stateMutability": "view",
      "type": "function"
    },
    {
      "inputs": [
        {
          "components": [
            {
              "internalType": "contract IJBPaymentTerminal",
              "name": "terminal",
              "type": "address"
            },
            {
              "internalType": "address",
              "name": "holder",
              "type": "address"
            },
            {
              "internalType": "uint256",
              "name": "projectId",
              "type": "uint256"
            },
            {
              "internalType": "uint256",
              "name": "currentFundingCycleConfiguration",
              "type": "uint256"
            },
            {
              "internalType": "uint256",
              "name": "tokenCount",
              "type": "uint256"
            },
            {
              "internalType": "uint256",
              "name": "totalSupply",
              "type": "uint256"
            },
            {
              "internalType": "uint256",
              "name": "overflow",
              "type": "uint256"
            },
            {
              "components": [
                {
                  "internalType": "address",
                  "name": "token",
                  "type": "address"
                },
                {
                  "internalType": "uint256",
                  "name": "value",
                  "type": "uint256"
                },
                {
                  "internalType": "uint256",
                  "name": "decimals",
                  "type": "uint256"
                },
                {
                  "internalType": "uint256",
                  "name": "currency",
                  "type": "uint256"
                }
              ],
              "internalType": "struct JBTokenAmount",
              "name": "reclaimAmount",
              "type": "tuple"
            },
            {
              "internalType": "bool",
              "name": "useTotalOverflow",
              "type": "bool"
            },
            {
              "internalType": "uint256",
              "name": "redemptionRate",
              "type": "uint256"
            },
            {
              "internalType": "string",
              "name": "memo",
              "type": "string"
            },
            {
              "internalType": "bytes",
              "name": "metadata",
              "type": "bytes"
            }
          ],
          "internalType": "struct JBRedeemParamsData",
          "name": "_data",
          "type": "tuple"
        }
      ],
      "name": "redeemParams",
      "outputs": [
        {
          "internalType": "uint256",
          "name": "reclaimAmount",
          "type": "uint256"
        },
        {
          "internalType": "string",
          "name": "memo",
          "type": "string"
        },
        {
          "components": [
            {
              "internalType": "contract IJBRedemptionDelegate",
              "name": "delegate",
              "type": "address"
            },
            {
              "internalType": "uint256",
              "name": "amount",
              "type": "uint256"
            }
          ],
          "internalType": "struct JBRedemptionDelegateAllocation[]",
          "name": "delegateAllocations",
          "type": "tuple[]"
        }
      ],
      "stateMutability": "view",
      "type": "function"
    },
    {
      "inputs": [],
      "name": "renounceOwnership",
      "outputs": [],
      "stateMutability": "nonpayable",
      "type": "function"
    },
    {
      "inputs": [
        {
          "internalType": "address",
          "name": "from",
          "type": "address"
        },
        {
          "internalType": "address",
          "name": "to",
          "type": "address"
        },
        {
          "internalType": "uint256",
          "name": "tokenId",
          "type": "uint256"
        }
      ],
      "name": "safeTransferFrom",
      "outputs": [],
      "stateMutability": "nonpayable",
      "type": "function"
    },
    {
      "inputs": [
        {
          "internalType": "address",
          "name": "from",
          "type": "address"
        },
        {
          "internalType": "address",
          "name": "to",
          "type": "address"
        },
        {
          "internalType": "uint256",
          "name": "tokenId",
          "type": "uint256"
        },
        {
          "internalType": "bytes",
          "name": "data",
          "type": "bytes"
        }
      ],
      "name": "safeTransferFrom",
      "outputs": [],
      "stateMutability": "nonpayable",
      "type": "function"
    },
    {
      "inputs": [
        {
          "internalType": "address",
          "name": "operator",
          "type": "address"
        },
        {
          "internalType": "bool",
          "name": "approved",
          "type": "bool"
        }
      ],
      "name": "setApprovalForAll",
      "outputs": [],
      "stateMutability": "nonpayable",
      "type": "function"
    },
    {
      "inputs": [
        {
          "internalType": "string",
          "name": "_baseUri",
          "type": "string"
        }
      ],
      "name": "setBaseUri",
      "outputs": [],
      "stateMutability": "nonpayable",
      "type": "function"
    },
    {
      "inputs": [
        {
          "internalType": "string",
          "name": "_contractUri",
          "type": "string"
        }
      ],
      "name": "setContractUri",
      "outputs": [],
      "stateMutability": "nonpayable",
      "type": "function"
    },
    {
      "inputs": [
        {
          "internalType": "address",
          "name": "_beneficiary",
          "type": "address"
        }
      ],
      "name": "setDefaultReservedTokenBeneficiary",
      "outputs": [],
      "stateMutability": "nonpayable",
      "type": "function"
    },
    {
      "inputs": [
        {
          "internalType": "address",
          "name": "_delegatee",
          "type": "address"
        },
        {
          "internalType": "uint256",
          "name": "_tierId",
          "type": "uint256"
        }
      ],
      "name": "setTierDelegate",
      "outputs": [],
      "stateMutability": "nonpayable",
      "type": "function"
    },
    {
      "inputs": [
        {
          "components": [
            {
              "internalType": "address",
              "name": "delegatee",
              "type": "address"
            },
            {
              "internalType": "uint256",
              "name": "tierId",
              "type": "uint256"
            }
          ],
          "internalType": "struct JBTiered721SetTierDelegatesData[]",
          "name": "_setTierDelegatesData",
          "type": "tuple[]"
        }
      ],
      "name": "setTierDelegates",
      "outputs": [],
      "stateMutability": "nonpayable",
      "type": "function"
    },
    {
      "inputs": [
        {
          "internalType": "contract IJBTokenUriResolver",
          "name": "_tokenUriResolver",
          "type": "address"
        }
      ],
      "name": "setTokenUriResolver",
      "outputs": [],
      "stateMutability": "nonpayable",
      "type": "function"
    },
    {
      "inputs": [],
      "name": "store",
      "outputs": [
        {
          "internalType": "contract IJBTiered721DelegateStore",
          "name": "",
          "type": "address"
        }
      ],
      "stateMutability": "view",
      "type": "function"
    },
    {
      "inputs": [
        {
          "internalType": "bytes4",
          "name": "_interfaceId",
          "type": "bytes4"
        }
      ],
      "name": "supportsInterface",
      "outputs": [
        {
          "internalType": "bool",
          "name": "",
          "type": "bool"
        }
      ],
      "stateMutability": "view",
      "type": "function"
    },
    {
      "inputs": [],
      "name": "symbol",
      "outputs": [
        {
          "internalType": "string",
          "name": "",
          "type": "string"
        }
      ],
      "stateMutability": "view",
      "type": "function"
    },
    {
      "inputs": [
        {
          "internalType": "uint256",
          "name": "_tokenId",
          "type": "uint256"
        }
      ],
      "name": "tokenURI",
      "outputs": [
        {
          "internalType": "string",
          "name": "",
          "type": "string"
        }
      ],
      "stateMutability": "view",
      "type": "function"
    },
    {
      "inputs": [
        {
          "internalType": "address",
          "name": "from",
          "type": "address"
        },
        {
          "internalType": "address",
          "name": "to",
          "type": "address"
        },
        {
          "internalType": "uint256",
          "name": "tokenId",
          "type": "uint256"
        }
      ],
      "name": "transferFrom",
      "outputs": [],
      "stateMutability": "nonpayable",
      "type": "function"
    },
    {
      "inputs": [
        {
          "internalType": "address",
          "name": "newOwner",
          "type": "address"
        }
      ],
      "name": "transferOwnership",
      "outputs": [],
      "stateMutability": "nonpayable",
      "type": "function"
    }
  ],
  "bytecode": {
    "object": "0x608080604052346100655760078054336001600160a01b03198083168217909355906001600160a01b03167f8be0079c531659141344cd1fd0a4f28419497f9722a3daafe3b4186f6b6457e0600085a330906008541617600855614d8e908161006b8239f35b600080fdfe608080604052600436101561001357600080fd5b600090813560e01c90816301ffc9a7146127cb5750806306fdde0314612739578063081812fc1461271a578063095ea7b31461264a578063211eb001146123dd57806323b872dd146123a35780632407497e146122f6578063245a45b5146122bd5780632a596e53146121e55780632b13c58f14611b4257806336c1a93b14611a215780633fafa12714611a0357806342842e0e146119db5780634ecba625146119bd57806354c6d1f51461199e578063557e7155146119755780636352211e1461194457806364640c1e146119265780636ac6d941146118cd57806370a082311461182f578063715018a6146117ce57806382732b6d146117885780638da5cb5b1461175f57806394c5c5ca1461173657806395d89b4114611679578063975057e714611650578063a0bcfc7f1461156e578063a22cb465146114cd578063a51cfd181461144e578063aa4fb15b14611436578063ab951e391461140f578063b88d4fde146113af578063c41c2f2414611386578063c74b13d91461128b578063c87b56dd14611257578063ca323efe14611214578063ccb4807b1461110a578063d31cc52c146110c9578063d3419bf3146110a0578063d40e714614611051578063d46cf17114610f29578063da9ee8b714610e33578063df487e2614610d86578063dfedb3af146103a5578063e8a3d4851461030f578063e985e9c5146102bb5763f2fde38b1461022657600080fd5b346102b85760203660031901126102b85761023f612911565b610247614814565b6001600160a01b038116156102645761025f9061486c565b604051f35b60405162461bcd60e51b815260206004820152602660248201527f4f776e61626c653a206e6577206f776e657220697320746865207a65726f206160448201526564647265737360d01b6064820152608490fd5b80fd5b50346102b85760403660031901126102b8576102d5612911565b60406102df612927565b9260018060a01b0380931681526004602052209116600052602052602060ff604060002054166040519015158152f35b50346102b857806003193601126102b857600954604051630155619b60e71b8152306004820152908290829060249082906001600160a01b03165afa90811561039a57826103739392610377575b50506040519182916020835260208301906128ec565b0390f35b61039392503d8091833e61038b8183612a06565b810190612ec8565b388061035d565b6040513d84823e3d90fd5b50346102b857600319906101c0368301126102b857602435916001600160a01b038316830361098d576044356001600160401b038111610991576103ed903690600401612b5f565b926064356001600160401b038111610a145761040d903690600401612b5f565b91608435916001600160a01b0383168303610a975760a4356001600160401b038111610d8257610441903690600401612b5f565b60c435939091906001600160a01b0385168503610caa5760e4356001600160401b038111610caf57610477903690600401612b5f565b936001600160401b036101043511610caf576080906101043536030112610d7e57604051956104a5876129b4565b61010435600401356001600160401b038111610ca657366023826101043501011215610ca6576104dd60048261010435010135612a27565b906104eb6040519283612a06565b6101043581016004810135808452602084019291366101209092020160240111610d7a57602481610104350101915b610104358201600481013561012002016024018310610cb3575050508752610104356024810135602089015260448101356040890152606401356001600160a01b0381169003610caf5761010435606401356060880152610124356001600160a01b0381169003610caf57608036610143190112610caf576040519861059f8a6129b4565b610144358015158103610caa578a526101643515156101643503610caa576101643560208b01526101843515156101843503610caa576101843560408b01526101a43515156101a43503610caa576101a43560608b01526008546001600160a01b03163014610ca6576009546001600160a01b0316610ca6578051906001600160401b038211610c925781906106358b5461364e565b601f8111610c21575b50602090601f8311600114610bad578b92610ba2575b50508160011b916000199060031b1c19161788555b8051906001600160401b038211610b8e57819061068760015461364e565b601f8111610b1c575b50602090601f8311600114610aa6578a92610a9b575b50508160011b916000199060031b1c1916176001555b600435600555600680546001600160a01b03199081166001600160a01b0394851617909155600a80548216928416929092179091556009805482166101243584161790556020860151600c556040860151600d556060860151600b805490921692169190911790558051610a18575b508051610995575b506001600160a01b038116610922575b5051918251610824575b819250805115801590610817575b801561080a575b80156107fd575b610778575b5061025f3361486c565b610124356001600160a01b03163b156107fa57604080516365c13f1960e11b81528251151560048201526020830151151560248201529082015115156044820152606090910151151560648201528181608481836001600160a01b0361012435165af1801561039a571561076e576107ef90612986565b6102b857803861076e565b50fd5b5060608101511515610769565b5060408101511515610762565b506020810151151561075b565b60405163d0cf48a560e01b815260248101602060048301528451809152602060448301950190845b8181106108aa57505050828180829603818360018060a01b0361012435165af1801561089f5761087d575b5061074d565b610898903d8085833e6108908183612a06565b8101906131a1565b5038610877565b6040513d85823e3d90fd5b9091956020610120600192895180518252838101518483015260408101516040830152606081015160608301526080810151608083015260a0858060a01b0381830151169083015260c0808201519083015260e0810151151560e083015261010080910151151590820152019701910191909161084c565b610124356001600160a01b03163b156109915760405163036129cb60e61b81526001600160a01b03918216600482015290839082906024908290849061012435165af1801561089f57908391610979575b50610743565b61098290612986565b61098d578138610973565b5080fd5b8280fd5b610124356001600160a01b03163b15610a1457836109cf916040518093819263d67b78fd60e01b83526020600484015260248301906128ec565b038183610124356001600160a01b03165af18015610a09579084916109f5575b50610733565b6109fe90612986565b6109915782386109ef565b6040513d86823e3d90fd5b8380fd5b610124356001600160a01b03163b15610a975784610a5291604051809381926331315e5960e11b83526020600484015260248301906128ec565b038183610124356001600160a01b03165af18015610a8c57908591610a78575b5061072b565b610a8190612986565b610a14578338610a72565b6040513d87823e3d90fd5b8480fd5b0151905038806106a6565b925060018a52600080516020614d39833981519152908a935b601f1984168510610b01576001945083601f19811610610ae8575b505050811b016001556106bc565b015160001960f88460031b161c19169055388080610ada565b81810151835560209485019460019093019290910190610abf565b90915060018a52601f830160051c600080516020614d398339815191520160208410610b79575b908392915b601f820160051c600080516020614d39833981519152018110610b6b5750610690565b8b8155849350600101610b48565b50600080516020614d39833981519152610b43565b634e487b7160e01b89526041600452602489fd5b015190503880610654565b92508a8052600080516020614d19833981519152908b935b601f1984168510610c06576001945083601f19811610610bed575b505050811b018855610669565b015160001960f88460031b161c19169055388080610be0565b81810151835560209485019460019093019290910190610bc5565b9091508a8052601f830160051c600080516020614d198339815191520160208410610c7d575b908392915b601f820160051c600080516020614d19833981519152018110610c6f575061063e565b8c8155849350600101610c4c565b50600080516020614d19833981519152610c47565b634e487b7160e01b8a52604160045260248afd5b8880fd5b600080fd5b8780fd5b61012083360312610d765760405190816101208101106001600160401b0361012084011117610d605760206101209183836024950160405286358152828701358382015260408701356040820152606080880135908201526080870135608082015260a0610d2281890161293d565b9082015260c08088013590820152610d3c60e08801612b7d565b60e0820152610100610d4f818901612b7d565b90820152815201930192905061051a565b634e487b7160e01b600052604160045260246000fd5b8b80fd5b8a80fd5b8680fd5b8580fd5b50346102b85760203660031901126102b857610da0612911565b610da8614814565b6009546001600160a01b0390811691839190833b156109915782916024839260405194859384926317161f7d60e01b845216978860048401525af1801561039a57610e1f575b50507fab0014d4c7a642a02a31b303a318908c22b0fb2001f107278fc6076b4c671b656020604051338152a2604051f35b610e2890612986565b61098d578138610dee565b5060031960203682011261098d57600435906001600160401b0382116109915761020090823603011261098d573415801590610ea3575b8015610e93575b610e815761025f9060040161436b565b6040516331c57b1b60e21b8152600490fd5b5060055460248201351415610e71565b50600654600554604051636e49181f60e01b8152600481019190915233602482015290602090829060449082906001600160a01b03165afa90811561089f578391610ef0575b5015610e6a565b90506020813d8211610f21575b81610f0a60209383612a06565b8101031261099157610f1b906139d2565b38610ee9565b3d9150610efd565b50346102b8576003196020368201811361099157600435916001600160401b038311610a14576101a09083360301126109915791610f78610f71610164840184600401613ffb565b3691612b28565b9060405193610f8685612999565b600192838652825b8281106110275750610fdd90604051610fa681612999565b3081528484820152610fb788612ba0565b52610fc187612ba0565b50610124604051960135865260608387015260608601906128ec565b9084820360408601528080875193848152019601925b8281106110005785870386f35b835180516001600160a01b0316885282015182880152604090960195928101928401610ff3565b829060409795975161103881612999565b6000815260008382015282828801015201959395610f8e565b50346102b85760603660031901126102b857602090611098906001600160a01b0361107a612911565b1681526010835260408120602435825283526040604435912061490e565b604051908152f35b50346102b857806003193601126102b857600b546040516001600160a01b039091168152602090f35b50346102b8576110d836612b8a565b919091438110156110f8576040826020946110989452601185522061490e565b6040516305b5e09b60e51b8152600490fd5b50346102b85760203660031901126102b8576001600160401b03600435818111610991573660238201121561099157806004013591821161099157602481019060248336920101116109915761115e614814565b60095483906001600160a01b0316803b1561098d5781604051809263d67b78fd60e01b8252602060048301528660248301528686604484013782604488840101528183604482601f19601f8c011681010301925af1801561039a57611200575b505081604051928392833781018381520390207fd36dc0c1a06103fdcaf15f3f6fb797d1a97997514c78de073640c8b5005454b86020604051338152a2604051f35b61120990612986565b6109915782386111be565b50346102b85760403660031901126102b857602090611098906040906001600160a01b03611240612911565b1681526010845281812060243582528452206148cf565b50346102b85760203660031901126102b857610373611277600435612f26565b6040519182916020835260208301906128ec565b50346102b85760208060031936011261098d57600435906001600160401b0382116109915736602383011215610991578160040135916112ca83612a27565b926112d86040519485612a06565b80845260248385019160061b83010191368311610d8257602401905b82821061134f5750505081519160008260405161131081612999565b8281520152835b8381106113245784604051f35b8061134961133460019385612bc3565b5185848060a01b038251169101519033612bd7565b01611317565b604082360312610d825783604091825161136881612999565b6113718561293d565b815282850135838201528152019101906112f4565b50346102b857806003193601126102b8576006546040516001600160a01b039091168152602090f35b50346102b85760803660031901126102b8576113c9612911565b6113d1612927565b606435916001600160401b038311610a145736602384011215610a145761140561025f933690602481600401359101612b28565b91604435916136c0565b50346102b85760403660031901126102b85761025f61142c612911565b6024359033612bd7565b50346102b85761025f61144836612b8a565b906132cd565b50346102b85761146561146036612a3e565b6140b5565b9060405192835261148260209160608386015260608501906128ec565b9083820360408501528080845193848152019301945b8281106114a55784840385f35b855180516001600160a01b031685528201518483015294810194604090930192600101611498565b50346102b85760403660031901126102b8576114e7612911565b60243590811515809203610caa576001600160a01b03169033821461155c5733835260046020526040832082600052602052604060002060ff1981541660ff83161790556040519081527f17307eab39ab6107e8899845ad3d59bd9653f200f220920489ca2b5937696c3160203392a3604051f35b6040516306f8139d60e11b8152600490fd5b50346102b85760203660031901126102b8576004356001600160401b03811161098d5761159f903690600401612b5f565b6115a7614814565b60095482906001600160a01b0316803b1561098d578160405180926331315e5960e11b8252602060048301528183816115e3602482018a6128ec565b03925af1801561039a5761163c575b50604051825181906116088183602088016128c9565b81010390207f7bc9110d5de090dd59e07912d2b93a5a27ac70a60c8d8e324db4f9ee8b8b5c136020604051338152a2604051f35b61164590612986565b61098d5781386115f2565b50346102b857806003193601126102b8576009546040516001600160a01b039091168152602090f35b50346102b857806003193601126102b8576040519080600180549161169d8361364e565b8086529282811690811561170c57506001146116c4575b6103738561127781870382612a06565b9250808352600080516020614d398339815191525b8284106116f4575050508101602001611277826103736116b4565b805460208587018101919091529093019281016116d9565b8695506103739693506020925061127794915060ff191682840152151560051b82010192936116b4565b50346102b85760203660031901126102b8576110986040602092600435815260118452206148cf565b50346102b857806003193601126102b8576007546040516001600160a01b039091168152602090f35b50346102b85760403660031901126102b8576020906001600160a01b0390604090826117b2612911565b168152600f845281812060243582528452205416604051908152f35b50346102b857806003193601126102b8576117e7614814565b600780546001600160a01b03198116909155604051906000906001600160a01b03167f8be0079c531659141344cd1fd0a4f28419497f9722a3daafe3b4186f6b6457e08284a3f35b50346102b857602090816003193601126102b85761184b612911565b600954604051633de222bb60e21b81523060048201526001600160a01b03928316602482015291849183916044918391165afa9182156118c15791611894575b50604051908152f35b90508181813d83116118ba575b6118ab8183612a06565b81010312610caa57513861188b565b503d6118a1565b604051903d90823e3d90fd5b50346102b85760403660031901126102b857600435906001600160401b0382116102b8576103736119126119043660048601612a70565b61190c612927565b906134a9565b604051918291602083526020830190612ad9565b50346102b857806003193601126102b8576020600c54604051908152f35b50346102b85760203660031901126102b857602061196360043561361b565b6040516001600160a01b039091168152f35b50346102b857806003193601126102b857600a546040516001600160a01b039091168152602090f35b50346102b85760203660031901126102b8576020611963600435612e2a565b50346102b857806003193601126102b8576020600d54604051908152f35b50346102b85761025f6119ed36612951565b90604051926119fb846129eb565b8584526136c0565b50346102b857806003193601126102b8576020600554604051908152f35b50346102b85760208060031936011261098d576001600160401b0390600435828111610a145736602382011215610a1457806004013592611a6184612a27565b93611a6f6040519586612a06565b808552838501916024809260051b85010193368511610caf57828101935b858510611add57888888611a9f614814565b815191835b838110611ab15784604051f35b80611ad6611ac160019385612bc3565b5180519086858060a01b0391015116906134a9565b5001611aa4565b8435838111611b3e5782019060406023198336030112611b3e5760405190611b0482612999565b8583013591858311610d7657611b2f60448b95611b2787968b3691840101612a70565b84520161293d565b83820152815201940193611a8d565b8980fd5b50611b4c36612a3e565b90341580159061215f575b801561214f575b61213d576101c082016004611b738285613ffb565b9050108015612111575b6120ff57611b8e611b969184613ffb565b81019061402d565b809150519282935b808510611c18576009548490819085906001600160a01b0316803b15611c14576040516386bc2be360e01b8152602060048201529183918391829084908290611beb906024830190612ad9565b03925af1801561039a57611c00575b50604051f35b611c0990612986565b6102b8578082611bfa565b5050fd5b611c258584939594612bc3565b51808452600260205260408420549095906001600160a01b0390811690611c4b87614357565b16036120ed57611c5a8661361b565b6001600160a01b038116611ed3575b611d0090611c7688613e8b565b8786526002602052604080872080546001600160a01b03191690555188876001600160a01b0384167fddf252ad1be2c89b69c2b068fc378daa952ba7f163c4a11628f55a4df523b3ef8285a460095463b67cb04760e01b82523060048301526024820199909952600098610140938a926001600160a01b0390921691908590829081906044820190565b0381855afa94851561089f578395611e29575b5050835190803b1561099157606483926040519c8d9384926330b157e560e21b8452600484015260018060a01b03881660248401528160448401525af1988915611e1c5760019596979899611e0d575b509060a08301519182611d7f575b505050500190939093611b9e565b611de8935191868060a01b03811615611df1575b8282526011602052611da884604084206149dc565b505060a087901b8790039081168252600f602081815260408085208686528252808520548580529282528085208686529091529092205481169116612cdb565b38808080611d71565b8282526011602052611e068460408420614b59565b5050611d93565b611e1690612986565b38611d63565b50604051903d90823e3d90fd5b9080929550813d8311611ecc575b611e418183612a06565b8101031261098d5760405190611e56826129cf565b805182526020810151602083015260408101516040830152606080820151908301526080808201519083015260a0808201519083015260c08082015190830152611ea260e08201612e16565b60e08301526101008082015190830152611ec06101208092016139d2565b90820152923880611d13565b503d611e37565b600954604051634228826f60e11b81523060048201526001600160a01b039091169190608081602481865afa8015611fbf57600090612072575b606091500151612005575b6040516308ed6c0160e41b815230600482015260248101899052602081604481865afa908115611fbf57600091611fcb575b506001600160a01b031615611f61575b9050611c69565b813b15610caa57604051638cec7d3960e01b8152600481018990526001600160a01b0382166024820152916000908390604490829084905af1918215611fbf57611d0092611fb0575b50611f5a565b611fb990612986565b38611faa565b6040513d6000823e3d90fd5b906020823d602011611ffd575b81611fe560209383612a06565b810103126102b85750611ff790612e16565b38611f4a565b3d9150611fd8565b60018060a01b03600a54166101206005546024604051809481936321d1336160e11b835260048301525afa8015611fbf57612041575b50611f18565b612064906101203d6101201161206b575b61205c8183612a06565b81019061323d565b503861203b565b503d612052565b6080823d6080116120e5575b8161208b60809383612a06565b810103126102b857506040516060916120a3826129b4565b6120ac816139d2565b82526120ba602082016139d2565b60208301526120cb604082016139d2565b60408301526120dc838092016139d2565b90820152611f0d565b3d915061207e565b60405163075fd2b160e01b8152600490fd5b604051632a84050f60e01b8152600490fd5b5061211c8184613ffb565b60041161099157356001600160e01b03191663b3bcbb7960e01b1415611b7d565b604051633efca5c360e11b8152600490fd5b5060055460208301351415611b5e565b50600654600554604051636e49181f60e01b8152600481019190915233602482015290602090829060449082906001600160a01b03165afa90811561039a5782916121ac575b5015611b57565b90506020813d82116121dd575b816121c660209383612a06565b8101031261098d576121d7906139d2565b386121a5565b3d91506121b9565b50346102b85760208060031936011261098d57600435906001600160401b03821161099157366023830112156109915781600401359161222483612a27565b926122326040519485612a06565b80845260248385019160061b83010191368311610d8257602401905b82821061228d57505050815191835b83811061226a5784604051f35b8061228761227a60019385612bc3565b51858151910151906132cd565b0161225d565b604082360312610d82578360409182516122a681612999565b84358152828501358382015281520191019061224e565b50346102b85760203660031901126102b8576020906040906001600160a01b036122e5612911565b168152600e83522054604051908152f35b50346102b85760203660031901126102b857612310612911565b612318614814565b6009546001600160a01b0390811691839190833b1561099157829160248392604051948593849263036129cb60e61b845216978860048401525af1801561039a5761238f575b50507fe7784d93cfbfa4408e19577e6cc0436f4dbb51214b70e100905dfce9def88c166020604051338152a2604051f35b61239890612986565b61098d57813861235e565b50346102b8576123b236612951565b906123bd82336136ff565b156123cb5761025f926139df565b60405163e5fa0e3560e01b8152600490fd5b50346102b85760403660031901126102b8576001600160401b03600435818111610991573660238201121561099157806004013591808311610a145760249061012090368383870286010111610d82578235818111610d7e5736602382011215610d7e578060040135918211610d7e5760059082821b9036868383010111610ca657612467614814565b8361257d575b505050508361247d575b84604051f35b60095460405163d0cf48a560e01b81526020600482015283810186905290869082906001600160a01b031660448201878701845b878b8210612559575050508383809203925af190811561254e578691612534575b50855b8581106124e3575050612477565b806124f060019284612bc3565b517f9c1ee455d7c9ab291045babfeef5ef20cea4d096dc64c4b2b29977289b4b0641610140604051612528818a8a88028d01016131c6565b3388820152a2016124d5565b61254891503d8088833e6108908183612a06565b386124d2565b6040513d88823e3d90fd5b919450929450808261256d600194876131c6565b01930191019189939185936124b1565b6009546001600160a01b031691823b15611b3e576040516320512ba160e01b81526020600482018190528882018790529390918b916001600160fb1b0388116109915783836044828581968f8b018484013781010301925af1801561263f5761262c575b50885b8481106125f1575061246d565b6001906040513381527f832d89d991be5351d793c20faf4b7dd44f8aa9ce39e3cb160c6317de6fbba729858a84891b8701013592a2016125e4565b61263890999199612986565b97386125e1565b6040513d8c823e3d90fd5b50346102b85760403660031901126102b857612664612911565b6024356001600160a01b03808061267a8461361b565b16931692808414612708578033141590816126e6575b506123cb5781845260036020526040842080546001600160a01b031916841790556126ba8261361b565b1691604051927f8c5be1e5ebec7d5bd14f71427d1e84f3dd0314c0f7b2291e5b200ac8c7c3b9258585a4f35b9050845260046020526040842033855260205260ff6040852054161538612690565b60405163133f8be960e01b8152600490fd5b50346102b85760203660031901126102b8576020611963600435613688565b50346102b857806003193601126102b8576040519080805461275a8161364e565b8085529160019180831690811561170c5750600114612783576103738561127781870382612a06565b8080945052600080516020614d198339815191525b8284106127b3575050508101602001611277826103736116b4565b80546020858701810191909152909301928101612798565b90503461098d57602036600319011261098d5760043563ffffffff60e01b81168091036109915760209250635e55854560e01b811490811561280f575b5015158152f35b63b3bcbb7960e01b8114915081156128a3575b8115612892575b8115612881575b811561283e575b5038612808565b6380ac58cd60e01b811491508115612870575b811561285f575b5038612837565b6301ffc9a760e01b14905038612858565b635b5e139f60e01b81149150612851565b632b13c58f60e01b81149150612830565b63da9ee8b760e01b81149150612829565b6371700c6960e01b81149150612822565b35906001600160e01b031982168203610caa57565b60005b8381106128dc5750506000910152565b81810151838201526020016128cc565b90602091612905815180928185528580860191016128c9565b601f01601f1916010190565b600435906001600160a01b0382168203610caa57565b602435906001600160a01b0382168203610caa57565b35906001600160a01b0382168203610caa57565b6060906003190112610caa576001600160a01b03906004358281168103610caa57916024359081168103610caa579060443590565b6001600160401b038111610d6057604052565b604081019081106001600160401b03821117610d6057604052565b608081019081106001600160401b03821117610d6057604052565b61014081019081106001600160401b03821117610d6057604052565b602081019081106001600160401b03821117610d6057604052565b90601f801991011681019081106001600160401b03821117610d6057604052565b6001600160401b038111610d605760051b60200190565b60031990602081830112610caa57600435916001600160401b038311610caa57826101e092030112610caa5760040190565b81601f82011215610caa57803591612a8783612a27565b92612a956040519485612a06565b808452602092838086019260051b820101928311610caa578301905b828210612abf575050505090565b813561ffff81168103610caa578152908301908301612ab1565b90815180825260208080930193019160005b828110612af9575050505090565b835185529381019392810192600101612aeb565b6001600160401b038111610d6057601f01601f191660200190565b929192612b3482612b0d565b91612b426040519384612a06565b829481845281830111610caa578281602093846000960137010152565b9080601f83011215610caa57816020612b7a93359101612b28565b90565b35908115158203610caa57565b6040906003190112610caa576004359060243590565b805115612bad5760200190565b634e487b7160e01b600052603260045260246000fd5b8051821015612bad5760209160051b010190565b929160018060a01b0380941691600094838652602093600f85526040948588208589528152807f3134e8a2e6d97e929a7e54011ea5485d7d196dd5f0ba4d4ef95803e8e3fc257f60648a85878b8320541697818352600f86528b83208b845286528b8320818b1690816001600160601b0360a01b825416179055898d51998a97889687a460095416906305c9a1d560e31b835230600484015260248301528960448301525afa958615612cd257508795612c9b575b5050612c99949550612cdb565b565b9080929550813d8311612ccb575b612cb38183612a06565b81010312610d8257612c999495505192859438612c8c565b503d612ca9565b513d89823e3d90fd5b91926001600160a01b03918216929091168083148015612dde575b612dd85780612d69575b5081612d0b57505050565b612d4f7fed0c1e94c302bdbbd8bbd6a4fb7c3ed335c2292407cd816eadd075d019d0ce04918360005260106020526040600020856000526020526040600020614b59565b6040805192835260208301919091523390820152606090a3565b80612dcf9160005260106020526040600020856000526020527fed0c1e94c302bdbbd8bbd6a4fb7c3ed335c2292407cd816eadd075d019d0ce04612db18460406000206149dc565b60408051918252602082018990523390820152909381906060820190565b0390a338612d00565b50505050565b508115612cf6565b91908201809211612df357565b634e487b7160e01b600052601160045260246000fd5b91908203918211612df357565b51906001600160a01b0382168203610caa57565b6009546040516308ed6c0160e41b8152306004820152602481018390526001600160a01b0392916020908290604490829087165afa908115611fbf57600091612e8f575b50828116612e89575060005260026020526040600020541690565b91505090565b906020823d8211612ec0575b81612ea860209383612a06565b810103126102b85750612eba90612e16565b38612e6e565b3d9150612e9b565b602081830312610caa578051906001600160401b038211610caa570181601f82011215610caa578051612efa81612b0d565b92612f086040519485612a06565b81845260208284010111610caa57612b7a91602080850191016128c9565b60008181526020906002825260018060a01b036040938185842054161561312e578160095416918551630fab094760e01b81523060048201528581602481875afa9081156131245785916130ee575b5016806130bd5750845163f682eeaf60e01b8152306004820152908382602481865afa9182156130b3579085918593613095575b508651630c8df17160e41b81523060048201526024810191909152919282908180604481015b03915afa93841561308b578394613059575b505061300982918551948592839263030cecc760e01b845288600485015260448401906128ec565b906024830152038173__$2e464bbf4a8803569df10b07372aceee57$__5af492831561304f5750809261303b57505090565b612b7a92503d8091833e61038b8183612a06565b51903d90823e3d90fd5b9080929450813d8311613084575b6130718183612a06565b8101031261098d57519161300982612fe1565b503d613067565b85513d85823e3d90fd5b612fcf93506130ad903d8088833e61038b8183612a06565b92612fa9565b86513d86823e3d90fd5b93508291506024855180958193636d02a25560e11b835260048301525afa92831561304f5750809261303b57505090565b90508581813d831161311d575b6131058183612a06565b81010312610a9757518181168103610a975738612f75565b503d6130fb565b87513d87823e3d90fd5b5050919050519061313e826129eb565b815290565b81601f82011215610caa5780519161315a83612a27565b926131686040519485612a06565b808452602092838086019260051b820101928311610caa578301905b828210613192575050505090565b81518152908301908301613184565b90602082820312610caa5781516001600160401b038111610caa57612b7a9201613143565b803582526020810135602083015260408101356040830152606081013560608301526080810135608083015260018060a01b0361320560a0830161293d565b1660a083015260c081013560c083015261322160e08201612b7d565b151560e0830152613236610100809201612b7d565b1515910152565b80916101209283910312610caa576040519182018281106001600160401b03821117610d6057604052805182526020810151602083015260408101516040830152606081015160608301526080810151608083015260a081015160a083015260c081015160c083015260e081015160018060a01b0381168103610caa5760e0830152610100809101519082015290565b600a54600554604080516321d1336160e11b815260048101929092526101209594939290916001600160a01b039187908290602490829086165afa90811561349e576101009697600092613481575b5050600180968192015160f51c16146134705790816000809493600954166044845180978193635d53f40760e11b83528860048401528a60248401525af19384156134655760009461344a575b5060095482516304db994760e21b815230600482015260248101859052946020929183908790604490829086165afa95861561343f57600096613408575b5060005b8781106133bd57505050505050505050565b806133c98a9284612bc3565b516133d4818a61376d565b878751913383527f031e1988c95a91ec4d655ff63a8f87a80bc9daf28d95ae10ee08c0022cfb5c8b88888d1694a4016133ab565b90958382813d8311613438575b61341f8183612a06565b810103126102b8575061343190612e16565b94386133a7565b503d613415565b84513d6000823e3d90fd5b61345e91943d8091833e6108908183612a06565b9238613369565b82513d6000823e3d90fd5b8151631d2c125760e31b8152600490fd5b6134979250803d1061206b5761205c8183612a06565b388061331c565b83513d6000823e3d90fd5b906134b2614814565b6009546040805163eaa19ab360e01b8152600019600482015260606024820152845160648201819052909460848601946001600160a01b0394602094919388918716908685019060005b8181106135d0575050509060009181838160019b8c604483015203925af19687156135c5576000976135a1575b5081519460005b86811061354257505050505050505090565b8061354e89928b612bc3565b51613559818861376d565b61ffff6135668388612bc3565b511685519160008352338a8401527f598baf7bf150ca2f42be9e9f8f55e81d45f5715c3ff22bf46d697fabec7f31d687878b1694a401613530565b6135bd91973d8091833e6135b58183612a06565b8101906135eb565b509538613529565b50513d6000823e3d90fd5b825161ffff168b52998801998b9450918801916001016134fc565b9190604083820312610caa5782516001600160401b038111610caa57602091613615918501613143565b92015190565b6000908152600260205260409020546001600160a01b0316801561363c5790565b60405163b49aa3b560e01b8152600490fd5b90600182811c9216801561367e575b602083101461366857565b634e487b7160e01b600052602260045260246000fd5b91607f169161365d565b6000818152600260205260409020546001600160a01b03161561363c576000908152600360205260409020546001600160a01b031690565b9291906136cd82336136ff565b156123cb57836136e183836136e6976139df565b613ee1565b156136ed57565b6040516336f57c1b60e11b8152600490fd5b906001600160a01b0380806137138461361b565b16931691838314938415613746575b508315613730575b50505090565b61373c91929350613688565b161438808061372a565b909350600052600460205260406000208260005260205260ff604060002054169238613722565b6001600160a01b03908116919082156139c0576000828152600260205260409020546001600160a01b03166139ae576138239260009183835260209260028452604090818120846001600160601b0360a01b8254161790558151958085837fddf252ad1be2c89b69c2b068fc378daa952ba7f163c4a11628f55a4df523b3ef818ba460095463b67cb04760e01b885230600489015260248801919091526101409791968792918516918990829081906044820190565b0381855afa9889156139a45783996138ff575b50508751813b1561099157829160648392865194859384926330b157e560e21b845260048401528160248401528a60448401525af180156138f5576138e1575b505060a0860151948561388d575b50505050505050565b6138d5965194858252601181526138a687848420614b59565b5050818052600f81528282208683528152838383205416948252600f8152828220908683525220541690612cdb565b38808080808080613884565b6138ed91929650612986565b933880613876565b83513d84823e3d90fd5b9080929950813d831161399d575b6139178183612a06565b8101031261098d5782519061392b826129cf565b8051825286810151878301528381015184830152606081015160608301526080810151608083015260a081015160a083015260c081015160c083015261397360e08201612e16565b60e083015261010080820151908301526139916101208092016139d2565b90820152963880613836565b503d61390d565b84513d85823e3d90fd5b604051632eb5f0c360e21b8152600490fd5b604051633904578f60e11b8152600490fd5b51908115158203610caa57565b92916139ea8161361b565b6001600160a01b038581169390918216849003613e79578116908115613e67578315928315613c3c575b613aa5959650613a2381613e8b565b600090808252602060028152604092838120866001600160601b0360a01b82541617905583519280878a7fddf252ad1be2c89b69c2b068fc378daa952ba7f163c4a11628f55a4df523b3ef8588a460095463b67cb04760e01b855230600486015260248501919091526101409991938492918716918b90829081906044820190565b0381855afa9a8b15613c3257839b613b8d575b50508951813b1561099157896064849283895195869485936330b157e560e21b8552600485015260248401528c60448401525af18015613b8357613b6f575b505060a08801519687613b10575b505050505050505050565b613b47985196613b55575b8252600f81528282208683528152838383205416948252600f8152828220908683525220541690612cdb565b388080808080808080613b05565b86835260118252613b6888858520614b59565b5050613b1b565b613b7b91929350612986565b903880613af7565b85513d84823e3d90fd5b9080929b50813d8311613c2b575b613ba58183612a06565b8101031261098d57845190613bb9826129cf565b8051825283810151848301528581015186830152606081015160608301526080810151608083015260a081015160a083015260c081015160c0830152613c0160e08201612e16565b60e08301526101008082015190830152613c1f6101208092016139d2565b90820152983880613ab8565b503d613b9b565b86513d85823e3d90fd5b8160095416966040978851634228826f60e11b8152306004820152608081602481855afa8015613d6057600090613df0575b606091500151613d6b575b88516308ed6c0160e41b815230600482015260248101849052602081604481855afa8015613d60578591600091613d25575b501615613cba575b5050613a14565b803b15610caa578851638cec7d3960e01b8152600481018490526001600160a01b039290921660248301526000908290604490829084905af18015613d1a57613aa5979850613d0b575b8796613cb3565b613d1490612986565b38613d04565b88513d6000823e3d90fd5b91506020823d8211613d58575b81613d3f60209383612a06565b810103126102b85750613d528591612e16565b38613cab565b3d9150613d32565b8a513d6000823e3d90fd5b83600a54166005548a519182916321d1336160e11b835260048301528160246101209485935afa918215613de557600192839261010092600092613dc8575b5050015160f41c1603613c795788516318cdaf9760e01b8152600490fd5b613dde9250803d1061206b5761205c8183612a06565b3880613daa565b8b513d6000823e3d90fd5b6080823d8211613e5f575b81613e0860809383612a06565b810103126102b85750606090613e56828c5192613e24846129b4565b613e2d816139d2565b8452613e3b602082016139d2565b60208501528d613e4c8183016139d2565b90850152016139d2565b82820152613c6e565b3d9150613dfb565b604051632c95542760e01b8152600490fd5b60405163a195bc5360e01b8152600490fd5b600081815260036020526040812080546001600160a01b03191690556001600160a01b03613eb88361361b565b167f8c5be1e5ebec7d5bd14f71427d1e84f3dd0314c0f7b2291e5b200ac8c7c3b92582604051a4565b9293600093909291803b15613ff057948491613f3b9660405180948193630a85bd0160e11b9788845233600485015260018060a01b0380921660248501526044840152608060648401528260209b8c9760848301906128ec565b0393165af1849181613fb0575b50613f9f575050503d600014613f97573d613f6281612b0d565b90613f706040519283612a06565b81528091833d92013e5b80519182613f94576040516336f57c1b60e11b8152600490fd5b01fd5b506060613f7a565b6001600160e01b0319161492509050565b9091508581813d8311613fe9575b613fc88183612a06565b81010312610a9757516001600160e01b031981168103610a97579038613f48565b503d613fbe565b505050915050600190565b903590601e1981360301821215610caa57018035906001600160401b038211610caa57602001918136038313610caa57565b9190604083820312610caa57614042836128b4565b9260209081810135906001600160401b038211610caa57019180601f84011215610caa57823561407181612a27565b9361407f6040519586612a06565b818552838086019260051b820101928311610caa578301905b8282106140a6575050505090565b81358152908301908301614098565b906080820135614345576101c082016140ce8184613ffb565b90506004809110801561431a575b61430b5760408051926140ee84612999565b6001845260005b6020808210156141235783516020929161410e82612999565b600082526000818301528288010152016140f5565b5050939291829482519061413682612999565b30825260209160008382015261414b86612ba0565b5261415585612ba0565b506101808801359485156142e6575090614178611b8e6141b1969594938a613ffb565b600954855163051330b560e21b8152308682015260248101879052976001600160a01b0390911692508391889182916044830190612ad9565b0381845afa95861561343f576000966142b7575b509080602492855193848092631572f24960e11b825230888301525afa9384156142ad575060009361427c575b5050614203828560c08a0135614c5e565b93612710918285146142645784830392831161424f5750610f719361423361423f9461424b979461423994614c5e565b90612de6565b90614bd6565b946101a0810190613ffb565b9190565b601190634e487b7160e01b6000525260246000fd5b505050505092610f71816101a061424b930190613ffb565b8181949293943d83116142a6575b6142948183612a06565b810103126102b85750519038806141f2565b503d61428a565b513d6000823e3d90fd5b90958282813d83116142df575b6142ce8183612a06565b810103126102b857505194816141c5565b503d6142c4565b965050505050506142ff836101a061424b950190613ffb565b93906000943691612b28565b604051632a84050f60e01b8152fd5b506143258285613ffb565b8211610caa57356001600160e01b03191663b3bcbb7960e01b14156140dc565b6040516309f82f1b60e31b8152600490fd5b356001600160a01b0381168103610caa5790565b600060c082013590600c5480831460001461464f575050506080810135905b61018081016001600160a01b03806143a183614357565b16600052602091600e83526040936143be85600020548097612de6565b60009081926101e081019060246143d58383613ffb565b90501180614622575b614472575b5050801561446257906143ff916143f985614357565b90614714565b95861561443457506144235790614418600e9392614357565b166000525260002055565b8351631b57826960e21b8152600490fd5b9193929550506144445750505050565b600093614452600e93614357565b1684525281205538808080612dd8565b5050509190936144445750505050565b61447e92939450613ffb565b8101919060c081840312610a14576144978782016128b4565b506144a3888201612b7d565b926144b060608301612b7d565b946144bd60808401612b7d565b9260a0810135916001600160401b0383116102b857506144de929101612a70565b909392613b055780516144f2575b806143e3565b6144fb85614357565b9086600954169189519263eaa19ab360e01b8452836064810186600483015260606024830152845180915260848201908c8601908d6000905b82821061460657505050509181600081819582604483015203925af1938415613d605760009384956145e5575b50835193828a1693908c60005b878110614583575050505050505050386144ec565b866001926145918386612bc3565b5161459c818a61376d565b7f598baf7bf150ca2f42be9e9f8f55e81d45f5715c3ff22bf46d697fabec7f31d661ffff6145ca868a612bc3565b5193518a8152336020820152931692604090a4018d9061456e565b9094506145fc91933d8091833e6135b58183612a06565b9290929338614561565b835161ffff16855289955093840193909201916001018e614534565b5061462d8282613ffb565b602411610a97578801356001600160e01b03191663b3bcbb7960e01b146143de565b600b546001600160a01b031690811561470d57600d5493604d85116146f9579060646020926040519485938492635268657960e11b84526004840152602483015260a089013560448301525afa9182156118c15780926146c3575b50506146bd91600a0a6080840135614c5e565b9061438a565b9091506020823d82116146f1575b816146de60209383612a06565b810103126102b85750516146bd386146aa565b3d91506146d1565b634e487b7160e01b84526011600452602484fd5b5050505050565b92919260018060a01b03908160095416916040519163879791f360e01b8352806004840152606083602481600080985af18015610a095784938580926147ce575b5050809784156147ac57505090614797877f598baf7bf150ca2f42be9e9f8f55e81d45f5715c3ff22bf46d697fabec7f31d693614792868961376d565b612e09565b604080519182523360208301529190951694a4565b9550959650505050506147bc5790565b604051630e5313df60e41b8152600490fd5b9295509350506060833d821161480c575b816147ec60609383612a06565b810103126102b85750815192604060208401519301519392933880614755565b3d91506147df565b6007546001600160a01b0316330361482857565b606460405162461bcd60e51b815260206004820152602060248201527f4f776e61626c653a2063616c6c6572206973206e6f7420746865206f776e65726044820152fd5b6007549060018060a01b0380911691826001600160601b0360a01b821617600755167f8be0079c531659141344cd1fd0a4f28419497f9722a3daafe3b4186f6b6457e06000604051a3565b8054821015612bad5760005260206000200190600090565b805460009291816148ed575050905060005b6001600160e01b031690565b60001982019182116146f9576149049293506148b7565b505460201c6148e1565b919043811015614998578254906000905b82821061493c57505060009281156000146148ed57506000925050565b9091600190614951818518831c828616612de6565b918363ffffffff614962858a6148b7565b5054161115614975575050915b9061491f565b90935081018091111561496f57634e487b7160e01b600052601160045260246000fd5b606460405162461bcd60e51b815260206004820152602060248201527f436865636b706f696e74733a20626c6f636b206e6f7420796574206d696e65646044820152fd5b91906149eb90614792846148cf565b9180546149f7826148cf565b9181151580614b33575b15614a4157614a0f85614b6d565b906000198301928311612df35761424b92614a29916148b7565b509063ffffffff82549181199060201b169116179055565b9063ffffffff90814311614adf57614a5886614b6d565b9060405193614a6685612999565b43841685526001600160e01b03928316602086019081529168010000000000000000811015610d6057614a9e916001820181556148b7565b939093614ac9579351905163ffffffff9190941616921660201b63ffffffff19169190911790559190565b634e487b7160e01b600052600060045260246000fd5b60405162461bcd60e51b815260206004820152602660248201527f53616665436173743a2076616c756520646f65736e27742066697420696e203360448201526532206269747360d01b6064820152608490fd5b506000198201828111612df357614b4f63ffffffff91836148b7565b5054164314614a01565b91906149eb90614b68846148cf565b612de6565b6001600160e01b0390818111614b81571690565b60405162461bcd60e51b815260206004820152602760248201527f53616665436173743a2076616c756520646f65736e27742066697420696e20326044820152663234206269747360c81b6064820152608490fd5b919060001981840981840291828083109203918083039214614c53576127109081831015614c35577fbc01a36e2eb1c432ca57a786c226809d495182a9930be0ded288ce703afb7e9194950990828211900360fc1b910360041c170290565b6044838360405191631dcf306360e21b835260048301526024820152fd5b505061271090049150565b90916000198383099280830292838086109503948086039514614cf45782851015614cd657908291096001821901821680920460028082600302188083028203028083028203028083028203028083028203028083028203028092029003029360018380600003040190848311900302920304170290565b6044858460405191631dcf306360e21b835260048301526024820152fd5b505080925015614d02570490565b634e487b7160e01b600052601260045260246000fdfe290decd9548b62a8d60345a988386fc84ba6bc95484008f6362f93160ef3e563b10e2d527612073b26eecdfd717e6a320cf44b4afac2b0732d9fcbe2b7fa0cf6a2646970667358221220ba7dc79d4f6e305b5087ad42988ac4245dffd6132b28a7c9f5523950e956500764736f6c63430008100033",
    "linkReferences": {
      "contracts/libraries/JBIpfsDecoder.sol": {
        "JBIpfsDecoder": [
          {
            "start": 12414,
            "length": 20
          }
        ]
      }
    }
  },
  "methodIdentifiers": {
    "adjustTiers((uint256,uint256,uint256,uint256,uint256,address,bytes32,bool,bool)[],uint256[])": "211eb001",
    "approve(address,uint256)": "095ea7b3",
    "balanceOf(address)": "70a08231",
    "contractURI()": "e8a3d485",
    "creditsOf(address)": "245a45b5",
    "didPay((address,uint256,uint256,(address,uint256,uint256,uint256),(address,uint256,uint256,uint256),uint256,address,bool,string,bytes))": "da9ee8b7",
    "didRedeem((address,uint256,uint256,uint256,(address,uint256,uint256,uint256),(address,uint256,uint256,uint256),address,string,bytes))": "2b13c58f",
    "directory()": "c41c2f24",
    "firstOwnerOf(uint256)": "54c6d1f5",
    "fundingCycleStore()": "557e7155",
    "getApproved(uint256)": "081812fc",
    "getPastTierTotalVotes(uint256,uint256)": "d31cc52c",
    "getPastTierVotes(address,uint256,uint256)": "d40e7146",
    "getTierDelegate(address,uint256)": "82732b6d",
    "getTierTotalVotes(uint256)": "94c5c5ca",
    "getTierVotes(address,uint256)": "ca323efe",
    "initialize(uint256,address,string,string,address,string,address,string,((uint256,uint256,uint256,uint256,uint256,address,bytes32,bool,bool)[],uint256,uint256,address),address,(bool,bool,bool,bool))": "dfedb3af",
    "isApprovedForAll(address,address)": "e985e9c5",
    "mintFor((uint16[],address)[])": "36c1a93b",
    "mintFor(uint16[],address)": "6ac6d941",
    "mintReservesFor((uint256,uint256)[])": "2a596e53",
    "mintReservesFor(uint256,uint256)": "aa4fb15b",
    "name()": "06fdde03",
    "owner()": "8da5cb5b",
    "ownerOf(uint256)": "6352211e",
    "payParams((address,address,(address,uint256,uint256,uint256),uint256,uint256,address,uint256,uint256,string,bytes))": "d46cf171",
    "prices()": "d3419bf3",
    "pricingCurrency()": "64640c1e",
    "pricingDecimals()": "4ecba625",
    "projectId()": "3fafa127",
    "redeemParams((address,address,uint256,uint256,uint256,uint256,uint256,(address,uint256,uint256,uint256),bool,uint256,string,bytes))": "a51cfd18",
    "renounceOwnership()": "715018a6",
    "safeTransferFrom(address,address,uint256)": "42842e0e",
    "safeTransferFrom(address,address,uint256,bytes)": "b88d4fde",
    "setApprovalForAll(address,bool)": "a22cb465",
    "setBaseUri(string)": "a0bcfc7f",
    "setContractUri(string)": "ccb4807b",
    "setDefaultReservedTokenBeneficiary(address)": "df487e26",
    "setTierDelegate(address,uint256)": "ab951e39",
    "setTierDelegates((address,uint256)[])": "c74b13d9",
    "setTokenUriResolver(address)": "2407497e",
    "store()": "975057e7",
    "supportsInterface(bytes4)": "01ffc9a7",
    "symbol()": "95d89b41",
    "tokenURI(uint256)": "c87b56dd",
    "transferFrom(address,address,uint256)": "23b872dd",
    "transferOwnership(address)": "f2fde38b"
  },
  "id": 1
}