{
  "abi": [
    {
      "inputs": [],
      "name": "ALEADY_MINTED",
      "type": "error"
    },
    {
      "inputs": [],
      "name": "APPROVAL_TO_CURRENT_OWNER",
      "type": "error"
    },
    {
      "inputs": [],
      "name": "APPROVE_TO_CALLER",
      "type": "error"
    },
    {
      "inputs": [],
      "name": "BLOCK_NOT_YET_MINED",
      "type": "error"
    },
    {
      "inputs": [],
      "name": "CALLER_NOT_OWNER_OR_APPROVED",
      "type": "error"
    },
    {
      "inputs": [],
      "name": "DELEGATE_ADDRESS_ZERO",
      "type": "error"
    },
    {
      "inputs": [],
      "name": "INCORRECT_OWNER",
      "type": "error"
    },
    {
      "inputs": [],
      "name": "INVALID_PAYMENT_EVENT",
      "type": "error"
    },
    {
      "inputs": [],
      "name": "INVALID_REDEMPTION_EVENT",
      "type": "error"
    },
    {
      "inputs": [],
      "name": "INVALID_REDEMPTION_METADATA",
      "type": "error"
    },
    {
      "inputs": [],
      "name": "INVALID_TOKEN_ID",
      "type": "error"
    },
    {
      "inputs": [],
      "name": "MINT_TO_ZERO",
      "type": "error"
    },
    {
      "inputs": [],
      "name": "NOT_AVAILABLE",
      "type": "error"
    },
    {
      "inputs": [],
      "name": "OVERSPENDING",
      "type": "error"
    },
    {
      "inputs": [
        {
          "internalType": "uint256",
          "name": "prod1",
          "type": "uint256"
        },
        {
          "internalType": "uint256",
          "name": "denominator",
          "type": "uint256"
        }
      ],
      "name": "PRBMath__MulDivOverflow",
      "type": "error"
    },
    {
      "inputs": [],
      "name": "PRICING_RESOLVER_CHANGES_PAUSED",
      "type": "error"
    },
    {
      "inputs": [],
      "name": "RESERVED_TOKEN_MINTING_PAUSED",
      "type": "error"
    },
    {
      "inputs": [],
      "name": "TRANSFERS_PAUSED",
      "type": "error"
    },
    {
      "inputs": [],
      "name": "TRANSFER_TO_NON_IMPLEMENTER",
      "type": "error"
    },
    {
      "inputs": [],
      "name": "TRANSFER_TO_ZERO_ADDRESS",
      "type": "error"
    },
    {
      "inputs": [],
      "name": "UNAUTHORIZED",
      "type": "error"
    },
    {
      "inputs": [],
      "name": "UNEXPECTED_TOKEN_REDEEMED",
      "type": "error"
    },
    {
      "anonymous": false,
      "inputs": [
        {
          "indexed": true,
          "internalType": "uint256",
          "name": "tierId",
          "type": "uint256"
        },
        {
          "components": [
            {
              "internalType": "uint80",
              "name": "contributionFloor",
              "type": "uint80"
            },
            {
              "internalType": "uint48",
              "name": "lockedUntil",
              "type": "uint48"
            },
            {
              "internalType": "uint40",
              "name": "initialQuantity",
              "type": "uint40"
            },
            {
              "internalType": "uint16",
              "name": "votingUnits",
              "type": "uint16"
            },
            {
              "internalType": "uint16",
              "name": "reservedRate",
              "type": "uint16"
            },
            {
              "internalType": "address",
              "name": "reservedTokenBeneficiary",
              "type": "address"
            },
            {
              "internalType": "uint8",
              "name": "royaltyRate",
              "type": "uint8"
            },
            {
              "internalType": "address",
              "name": "royaltyBeneficiary",
              "type": "address"
            },
            {
              "internalType": "bytes32",
              "name": "encodedIPFSUri",
              "type": "bytes32"
            },
            {
              "internalType": "uint8",
              "name": "category",
              "type": "uint8"
            },
            {
              "internalType": "bool",
              "name": "allowManualMint",
              "type": "bool"
            },
            {
              "internalType": "bool",
              "name": "shouldUseReservedTokenBeneficiaryAsDefault",
              "type": "bool"
            },
            {
              "internalType": "bool",
              "name": "shouldUseRoyaltyBeneficiaryAsDefault",
              "type": "bool"
            },
            {
              "internalType": "bool",
              "name": "transfersPausable",
              "type": "bool"
            }
          ],
          "indexed": false,
          "internalType": "struct JB721TierParams",
          "name": "data",
          "type": "tuple"
        },
        {
          "indexed": false,
          "internalType": "address",
          "name": "caller",
          "type": "address"
        }
      ],
      "name": "AddTier",
      "type": "event"
    },
    {
      "anonymous": false,
      "inputs": [
        {
          "indexed": true,
          "internalType": "address",
          "name": "owner",
          "type": "address"
        },
        {
          "indexed": true,
          "internalType": "address",
          "name": "approved",
          "type": "address"
        },
        {
          "indexed": true,
          "internalType": "uint256",
          "name": "tokenId",
          "type": "uint256"
        }
      ],
      "name": "Approval",
      "type": "event"
    },
    {
      "anonymous": false,
      "inputs": [
        {
          "indexed": true,
          "internalType": "address",
          "name": "owner",
          "type": "address"
        },
        {
          "indexed": true,
          "internalType": "address",
          "name": "operator",
          "type": "address"
        },
        {
          "indexed": false,
          "internalType": "bool",
          "name": "approved",
          "type": "bool"
        }
      ],
      "name": "ApprovalForAll",
      "type": "event"
    },
    {
      "anonymous": false,
      "inputs": [
        {
          "indexed": true,
          "internalType": "address",
          "name": "delegator",
          "type": "address"
        },
        {
          "indexed": true,
          "internalType": "address",
          "name": "fromDelegate",
          "type": "address"
        },
        {
          "indexed": true,
          "internalType": "address",
          "name": "toDelegate",
          "type": "address"
        }
      ],
      "name": "DelegateChanged",
      "type": "event"
    },
    {
      "anonymous": false,
      "inputs": [
        {
          "indexed": true,
          "internalType": "uint256",
          "name": "tokenId",
          "type": "uint256"
        },
        {
          "indexed": true,
          "internalType": "uint256",
          "name": "tierId",
          "type": "uint256"
        },
        {
          "indexed": true,
          "internalType": "address",
          "name": "beneficiary",
          "type": "address"
        },
        {
          "indexed": false,
          "internalType": "uint256",
          "name": "totalAmountContributed",
          "type": "uint256"
        },
        {
          "indexed": false,
          "internalType": "address",
          "name": "caller",
          "type": "address"
        }
      ],
      "name": "Mint",
      "type": "event"
    },
    {
      "anonymous": false,
      "inputs": [
        {
          "indexed": true,
          "internalType": "uint256",
          "name": "tokenId",
          "type": "uint256"
        },
        {
          "indexed": true,
          "internalType": "uint256",
          "name": "tierId",
          "type": "uint256"
        },
        {
          "indexed": true,
          "internalType": "address",
          "name": "beneficiary",
          "type": "address"
        },
        {
          "indexed": false,
          "internalType": "address",
          "name": "caller",
          "type": "address"
        }
      ],
      "name": "MintReservedToken",
      "type": "event"
    },
    {
      "anonymous": false,
      "inputs": [
        {
          "indexed": true,
          "internalType": "address",
          "name": "previousOwner",
          "type": "address"
        },
        {
          "indexed": true,
          "internalType": "address",
          "name": "newOwner",
          "type": "address"
        }
      ],
      "name": "OwnershipTransferred",
      "type": "event"
    },
    {
      "anonymous": false,
      "inputs": [
        {
          "indexed": true,
          "internalType": "uint256",
          "name": "tierId",
          "type": "uint256"
        },
        {
          "indexed": false,
          "internalType": "address",
          "name": "caller",
          "type": "address"
        }
      ],
      "name": "RemoveTier",
      "type": "event"
    },
    {
      "anonymous": false,
      "inputs": [
        {
          "indexed": true,
          "internalType": "string",
          "name": "baseUri",
          "type": "string"
        },
        {
          "indexed": false,
          "internalType": "address",
          "name": "caller",
          "type": "address"
        }
      ],
      "name": "SetBaseUri",
      "type": "event"
    },
    {
      "anonymous": false,
      "inputs": [
        {
          "indexed": true,
          "internalType": "string",
          "name": "contractUri",
          "type": "string"
        },
        {
          "indexed": false,
          "internalType": "address",
          "name": "caller",
          "type": "address"
        }
      ],
      "name": "SetContractUri",
      "type": "event"
    },
    {
      "anonymous": false,
      "inputs": [
        {
          "indexed": true,
          "internalType": "address",
          "name": "beneficiary",
          "type": "address"
        },
        {
          "indexed": false,
          "internalType": "address",
          "name": "caller",
          "type": "address"
        }
      ],
      "name": "SetDefaultReservedTokenBeneficiary",
      "type": "event"
    },
    {
      "anonymous": false,
      "inputs": [
        {
          "indexed": true,
          "internalType": "contract IJBTokenUriResolver",
          "name": "newResolver",
          "type": "address"
        },
        {
          "indexed": false,
          "internalType": "address",
          "name": "caller",
          "type": "address"
        }
      ],
      "name": "SetTokenUriResolver",
      "type": "event"
    },
    {
      "anonymous": false,
      "inputs": [
        {
          "indexed": true,
          "internalType": "address",
          "name": "delegator",
          "type": "address"
        },
        {
          "indexed": true,
          "internalType": "address",
          "name": "fromDelegate",
          "type": "address"
        },
        {
          "indexed": true,
          "internalType": "address",
          "name": "toDelegate",
          "type": "address"
        },
        {
          "indexed": false,
          "internalType": "uint256",
          "name": "tierId",
          "type": "uint256"
        },
        {
          "indexed": false,
          "internalType": "address",
          "name": "caller",
          "type": "address"
        }
      ],
      "name": "TierDelegateChanged",
      "type": "event"
    },
    {
      "anonymous": false,
      "inputs": [
        {
          "indexed": true,
          "internalType": "address",
          "name": "delegate",
          "type": "address"
        },
        {
          "indexed": true,
          "internalType": "uint256",
          "name": "tierId",
          "type": "uint256"
        },
        {
          "indexed": false,
          "internalType": "uint256",
          "name": "previousBalance",
          "type": "uint256"
        },
        {
          "indexed": false,
          "internalType": "uint256",
          "name": "newBalance",
          "type": "uint256"
        },
        {
          "indexed": false,
          "internalType": "address",
          "name": "caller",
          "type": "address"
        }
      ],
      "name": "TierDelegateVotesChanged",
      "type": "event"
    },
    {
      "anonymous": false,
      "inputs": [
        {
          "indexed": true,
          "internalType": "address",
          "name": "from",
          "type": "address"
        },
        {
          "indexed": true,
          "internalType": "address",
          "name": "to",
          "type": "address"
        },
        {
          "indexed": true,
          "internalType": "uint256",
          "name": "tokenId",
          "type": "uint256"
        }
      ],
      "name": "Transfer",
      "type": "event"
    },
    {
      "inputs": [],
      "name": "MAX_ROYALTY_RATE",
      "outputs": [
        {
          "internalType": "uint256",
          "name": "",
          "type": "uint256"
        }
      ],
      "stateMutability": "view",
      "type": "function"
    },
    {
      "inputs": [
        {
          "components": [
            {
              "internalType": "uint80",
              "name": "contributionFloor",
              "type": "uint80"
            },
            {
              "internalType": "uint48",
              "name": "lockedUntil",
              "type": "uint48"
            },
            {
              "internalType": "uint40",
              "name": "initialQuantity",
              "type": "uint40"
            },
            {
              "internalType": "uint16",
              "name": "votingUnits",
              "type": "uint16"
            },
            {
              "internalType": "uint16",
              "name": "reservedRate",
              "type": "uint16"
            },
            {
              "internalType": "address",
              "name": "reservedTokenBeneficiary",
              "type": "address"
            },
            {
              "internalType": "uint8",
              "name": "royaltyRate",
              "type": "uint8"
            },
            {
              "internalType": "address",
              "name": "royaltyBeneficiary",
              "type": "address"
            },
            {
              "internalType": "bytes32",
              "name": "encodedIPFSUri",
              "type": "bytes32"
            },
            {
              "internalType": "uint8",
              "name": "category",
              "type": "uint8"
            },
            {
              "internalType": "bool",
              "name": "allowManualMint",
              "type": "bool"
            },
            {
              "internalType": "bool",
              "name": "shouldUseReservedTokenBeneficiaryAsDefault",
              "type": "bool"
            },
            {
              "internalType": "bool",
              "name": "shouldUseRoyaltyBeneficiaryAsDefault",
              "type": "bool"
            },
            {
              "internalType": "bool",
              "name": "transfersPausable",
              "type": "bool"
            }
          ],
          "internalType": "struct JB721TierParams[]",
          "name": "_tiersToAdd",
          "type": "tuple[]"
        },
        {
          "internalType": "uint256[]",
          "name": "_tierIdsToRemove",
          "type": "uint256[]"
        }
      ],
      "name": "adjustTiers",
      "outputs": [],
      "stateMutability": "nonpayable",
      "type": "function"
    },
    {
      "inputs": [
        {
          "internalType": "address",
          "name": "to",
          "type": "address"
        },
        {
          "internalType": "uint256",
          "name": "tokenId",
          "type": "uint256"
        }
      ],
      "name": "approve",
      "outputs": [],
      "stateMutability": "nonpayable",
      "type": "function"
    },
    {
      "inputs": [
        {
          "internalType": "address",
          "name": "_owner",
          "type": "address"
        }
      ],
      "name": "balanceOf",
      "outputs": [
        {
          "internalType": "uint256",
          "name": "balance",
          "type": "uint256"
        }
      ],
      "stateMutability": "view",
      "type": "function"
    },
    {
      "inputs": [],
      "name": "codeOrigin",
      "outputs": [
        {
          "internalType": "address",
          "name": "",
          "type": "address"
        }
      ],
      "stateMutability": "view",
      "type": "function"
    },
    {
      "inputs": [],
      "name": "contractURI",
      "outputs": [
        {
          "internalType": "string",
          "name": "",
          "type": "string"
        }
      ],
      "stateMutability": "view",
      "type": "function"
    },
    {
      "inputs": [
        {
          "internalType": "address",
          "name": "",
          "type": "address"
        }
      ],
      "name": "creditsOf",
      "outputs": [
        {
          "internalType": "uint256",
          "name": "",
          "type": "uint256"
        }
      ],
      "stateMutability": "view",
      "type": "function"
    },
    {
      "inputs": [
        {
          "components": [
            {
              "internalType": "address",
              "name": "payer",
              "type": "address"
            },
            {
              "internalType": "uint256",
              "name": "projectId",
              "type": "uint256"
            },
            {
              "internalType": "uint256",
              "name": "currentFundingCycleConfiguration",
              "type": "uint256"
            },
            {
              "components": [
                {
                  "internalType": "address",
                  "name": "token",
                  "type": "address"
                },
                {
                  "internalType": "uint256",
                  "name": "value",
                  "type": "uint256"
                },
                {
                  "internalType": "uint256",
                  "name": "decimals",
                  "type": "uint256"
                },
                {
                  "internalType": "uint256",
                  "name": "currency",
                  "type": "uint256"
                }
              ],
              "internalType": "struct JBTokenAmount",
              "name": "amount",
              "type": "tuple"
            },
            {
              "components": [
                {
                  "internalType": "address",
                  "name": "token",
                  "type": "address"
                },
                {
                  "internalType": "uint256",
                  "name": "value",
                  "type": "uint256"
                },
                {
                  "internalType": "uint256",
                  "name": "decimals",
                  "type": "uint256"
                },
                {
                  "internalType": "uint256",
                  "name": "currency",
                  "type": "uint256"
                }
              ],
              "internalType": "struct JBTokenAmount",
              "name": "forwardedAmount",
              "type": "tuple"
            },
            {
              "internalType": "uint256",
              "name": "projectTokenCount",
              "type": "uint256"
            },
            {
              "internalType": "address",
              "name": "beneficiary",
              "type": "address"
            },
            {
              "internalType": "bool",
              "name": "preferClaimedTokens",
              "type": "bool"
            },
            {
              "internalType": "string",
              "name": "memo",
              "type": "string"
            },
            {
              "internalType": "bytes",
              "name": "metadata",
              "type": "bytes"
            }
          ],
          "internalType": "struct JBDidPayData",
          "name": "_data",
          "type": "tuple"
        }
      ],
      "name": "didPay",
      "outputs": [],
      "stateMutability": "payable",
      "type": "function"
    },
    {
      "inputs": [
        {
          "components": [
            {
              "internalType": "address",
              "name": "holder",
              "type": "address"
            },
            {
              "internalType": "uint256",
              "name": "projectId",
              "type": "uint256"
            },
            {
              "internalType": "uint256",
              "name": "currentFundingCycleConfiguration",
              "type": "uint256"
            },
            {
              "internalType": "uint256",
              "name": "projectTokenCount",
              "type": "uint256"
            },
            {
              "components": [
                {
                  "internalType": "address",
                  "name": "token",
                  "type": "address"
                },
                {
                  "internalType": "uint256",
                  "name": "value",
                  "type": "uint256"
                },
                {
                  "internalType": "uint256",
                  "name": "decimals",
                  "type": "uint256"
                },
                {
                  "internalType": "uint256",
                  "name": "currency",
                  "type": "uint256"
                }
              ],
              "internalType": "struct JBTokenAmount",
              "name": "reclaimedAmount",
              "type": "tuple"
            },
            {
              "components": [
                {
                  "internalType": "address",
                  "name": "token",
                  "type": "address"
                },
                {
                  "internalType": "uint256",
                  "name": "value",
                  "type": "uint256"
                },
                {
                  "internalType": "uint256",
                  "name": "decimals",
                  "type": "uint256"
                },
                {
                  "internalType": "uint256",
                  "name": "currency",
                  "type": "uint256"
                }
              ],
              "internalType": "struct JBTokenAmount",
              "name": "forwardedAmount",
              "type": "tuple"
            },
            {
              "internalType": "address payable",
              "name": "beneficiary",
              "type": "address"
            },
            {
              "internalType": "string",
              "name": "memo",
              "type": "string"
            },
            {
              "internalType": "bytes",
              "name": "metadata",
              "type": "bytes"
            }
          ],
          "internalType": "struct JBDidRedeemData",
          "name": "_data",
          "type": "tuple"
        }
      ],
      "name": "didRedeem",
      "outputs": [],
      "stateMutability": "payable",
      "type": "function"
    },
    {
      "inputs": [],
      "name": "directory",
      "outputs": [
        {
          "internalType": "contract IJBDirectory",
          "name": "",
          "type": "address"
        }
      ],
      "stateMutability": "view",
      "type": "function"
    },
    {
      "inputs": [
        {
          "internalType": "uint256",
          "name": "_tokenId",
          "type": "uint256"
        }
      ],
      "name": "firstOwnerOf",
      "outputs": [
        {
          "internalType": "address",
          "name": "",
          "type": "address"
        }
      ],
      "stateMutability": "view",
      "type": "function"
    },
    {
      "inputs": [],
      "name": "fundingCycleStore",
      "outputs": [
        {
          "internalType": "contract IJBFundingCycleStore",
          "name": "",
          "type": "address"
        }
      ],
      "stateMutability": "view",
      "type": "function"
    },
    {
      "inputs": [
        {
          "internalType": "uint256",
          "name": "tokenId",
          "type": "uint256"
        }
      ],
      "name": "getApproved",
      "outputs": [
        {
          "internalType": "address",
          "name": "",
          "type": "address"
        }
      ],
      "stateMutability": "view",
      "type": "function"
    },
    {
      "inputs": [
        {
          "internalType": "uint256",
          "name": "_tier",
          "type": "uint256"
        },
        {
          "internalType": "uint256",
          "name": "_blockNumber",
          "type": "uint256"
        }
      ],
      "name": "getPastTierTotalVotes",
      "outputs": [
        {
          "internalType": "uint256",
          "name": "",
          "type": "uint256"
        }
      ],
      "stateMutability": "view",
      "type": "function"
    },
    {
      "inputs": [
        {
          "internalType": "address",
          "name": "_account",
          "type": "address"
        },
        {
          "internalType": "uint256",
          "name": "_tier",
          "type": "uint256"
        },
        {
          "internalType": "uint256",
          "name": "_blockNumber",
          "type": "uint256"
        }
      ],
      "name": "getPastTierVotes",
      "outputs": [
        {
          "internalType": "uint256",
          "name": "",
          "type": "uint256"
        }
      ],
      "stateMutability": "view",
      "type": "function"
    },
    {
      "inputs": [
        {
          "internalType": "address",
          "name": "_account",
          "type": "address"
        },
        {
          "internalType": "uint256",
          "name": "_tier",
          "type": "uint256"
        }
      ],
      "name": "getTierDelegate",
      "outputs": [
        {
          "internalType": "address",
          "name": "",
          "type": "address"
        }
      ],
      "stateMutability": "view",
      "type": "function"
    },
    {
      "inputs": [
        {
          "internalType": "uint256",
          "name": "_tier",
          "type": "uint256"
        }
      ],
      "name": "getTierTotalVotes",
      "outputs": [
        {
          "internalType": "uint256",
          "name": "",
          "type": "uint256"
        }
      ],
      "stateMutability": "view",
      "type": "function"
    },
    {
      "inputs": [
        {
          "internalType": "address",
          "name": "_account",
          "type": "address"
        },
        {
          "internalType": "uint256",
          "name": "_tier",
          "type": "uint256"
        }
      ],
      "name": "getTierVotes",
      "outputs": [
        {
          "internalType": "uint256",
          "name": "",
          "type": "uint256"
        }
      ],
      "stateMutability": "view",
      "type": "function"
    },
    {
      "inputs": [
        {
          "internalType": "uint256",
          "name": "_projectId",
          "type": "uint256"
        },
        {
          "internalType": "contract IJBDirectory",
          "name": "_directory",
          "type": "address"
        },
        {
          "internalType": "string",
          "name": "_name",
          "type": "string"
        },
        {
          "internalType": "string",
          "name": "_symbol",
          "type": "string"
        },
        {
          "internalType": "contract IJBFundingCycleStore",
          "name": "_fundingCycleStore",
          "type": "address"
        },
        {
          "internalType": "string",
          "name": "_baseUri",
          "type": "string"
        },
        {
          "internalType": "contract IJBTokenUriResolver",
          "name": "_tokenUriResolver",
          "type": "address"
        },
        {
          "internalType": "string",
          "name": "_contractUri",
          "type": "string"
        },
        {
          "components": [
            {
              "components": [
                {
                  "internalType": "uint80",
                  "name": "contributionFloor",
                  "type": "uint80"
                },
                {
                  "internalType": "uint48",
                  "name": "lockedUntil",
                  "type": "uint48"
                },
                {
                  "internalType": "uint40",
                  "name": "initialQuantity",
                  "type": "uint40"
                },
                {
                  "internalType": "uint16",
                  "name": "votingUnits",
                  "type": "uint16"
                },
                {
                  "internalType": "uint16",
                  "name": "reservedRate",
                  "type": "uint16"
                },
                {
                  "internalType": "address",
                  "name": "reservedTokenBeneficiary",
                  "type": "address"
                },
                {
                  "internalType": "uint8",
                  "name": "royaltyRate",
                  "type": "uint8"
                },
                {
                  "internalType": "address",
                  "name": "royaltyBeneficiary",
                  "type": "address"
                },
                {
                  "internalType": "bytes32",
                  "name": "encodedIPFSUri",
                  "type": "bytes32"
                },
                {
                  "internalType": "uint8",
                  "name": "category",
                  "type": "uint8"
                },
                {
                  "internalType": "bool",
                  "name": "allowManualMint",
                  "type": "bool"
                },
                {
                  "internalType": "bool",
                  "name": "shouldUseReservedTokenBeneficiaryAsDefault",
                  "type": "bool"
                },
                {
                  "internalType": "bool",
                  "name": "shouldUseRoyaltyBeneficiaryAsDefault",
                  "type": "bool"
                },
                {
                  "internalType": "bool",
                  "name": "transfersPausable",
                  "type": "bool"
                }
              ],
              "internalType": "struct JB721TierParams[]",
              "name": "tiers",
              "type": "tuple[]"
            },
            {
              "internalType": "uint256",
              "name": "currency",
              "type": "uint256"
            },
            {
              "internalType": "uint256",
              "name": "decimals",
              "type": "uint256"
            },
            {
              "internalType": "contract IJBPrices",
              "name": "prices",
              "type": "address"
            }
          ],
          "internalType": "struct JB721PricingParams",
          "name": "_pricing",
          "type": "tuple"
        },
        {
          "internalType": "contract IJBTiered721DelegateStore",
          "name": "_store",
          "type": "address"
        },
        {
          "components": [
            {
              "internalType": "bool",
              "name": "lockReservedTokenChanges",
              "type": "bool"
            },
            {
              "internalType": "bool",
              "name": "lockVotingUnitChanges",
              "type": "bool"
            },
            {
              "internalType": "bool",
              "name": "lockManualMintingChanges",
              "type": "bool"
            },
            {
              "internalType": "bool",
              "name": "preventOverspending",
              "type": "bool"
            }
          ],
          "internalType": "struct JBTiered721Flags",
          "name": "_flags",
          "type": "tuple"
        }
      ],
      "name": "initialize",
      "outputs": [],
      "stateMutability": "nonpayable",
      "type": "function"
    },
    {
      "inputs": [
        {
          "internalType": "address",
          "name": "owner",
          "type": "address"
        },
        {
          "internalType": "address",
          "name": "operator",
          "type": "address"
        }
      ],
      "name": "isApprovedForAll",
      "outputs": [
        {
          "internalType": "bool",
          "name": "",
          "type": "bool"
        }
      ],
      "stateMutability": "view",
      "type": "function"
    },
    {
      "inputs": [
        {
          "components": [
            {
              "internalType": "uint16[]",
              "name": "tierIds",
              "type": "uint16[]"
            },
            {
              "internalType": "address",
              "name": "beneficiary",
              "type": "address"
            }
          ],
          "internalType": "struct JBTiered721MintForTiersData[]",
          "name": "_mintForTiersData",
          "type": "tuple[]"
        }
      ],
      "name": "mintFor",
      "outputs": [],
      "stateMutability": "nonpayable",
      "type": "function"
    },
    {
      "inputs": [
        {
          "internalType": "uint16[]",
          "name": "_tierIds",
          "type": "uint16[]"
        },
        {
          "internalType": "address",
          "name": "_beneficiary",
          "type": "address"
        }
      ],
      "name": "mintFor",
      "outputs": [
        {
          "internalType": "uint256[]",
          "name": "tokenIds",
          "type": "uint256[]"
        }
      ],
      "stateMutability": "nonpayable",
      "type": "function"
    },
    {
      "inputs": [
        {
          "components": [
            {
              "internalType": "uint256",
              "name": "tierId",
              "type": "uint256"
            },
            {
              "internalType": "uint256",
              "name": "count",
              "type": "uint256"
            }
          ],
          "internalType": "struct JBTiered721MintReservesForTiersData[]",
          "name": "_mintReservesForTiersData",
          "type": "tuple[]"
        }
      ],
      "name": "mintReservesFor",
      "outputs": [],
      "stateMutability": "nonpayable",
      "type": "function"
    },
    {
      "inputs": [
        {
          "internalType": "uint256",
          "name": "_tierId",
          "type": "uint256"
        },
        {
          "internalType": "uint256",
          "name": "_count",
          "type": "uint256"
        }
      ],
      "name": "mintReservesFor",
      "outputs": [],
      "stateMutability": "nonpayable",
      "type": "function"
    },
    {
      "inputs": [],
      "name": "name",
      "outputs": [
        {
          "internalType": "string",
          "name": "",
          "type": "string"
        }
      ],
      "stateMutability": "view",
      "type": "function"
    },
    {
      "inputs": [],
      "name": "owner",
      "outputs": [
        {
          "internalType": "address",
          "name": "",
          "type": "address"
        }
      ],
      "stateMutability": "view",
      "type": "function"
    },
    {
      "inputs": [
        {
          "internalType": "uint256",
          "name": "tokenId",
          "type": "uint256"
        }
      ],
      "name": "ownerOf",
      "outputs": [
        {
          "internalType": "address",
          "name": "",
          "type": "address"
        }
      ],
      "stateMutability": "view",
      "type": "function"
    },
    {
      "inputs": [
        {
          "components": [
            {
              "internalType": "contract IJBPaymentTerminal",
              "name": "terminal",
              "type": "address"
            },
            {
              "internalType": "address",
              "name": "payer",
              "type": "address"
            },
            {
              "components": [
                {
                  "internalType": "address",
                  "name": "token",
                  "type": "address"
                },
                {
                  "internalType": "uint256",
                  "name": "value",
                  "type": "uint256"
                },
                {
                  "internalType": "uint256",
                  "name": "decimals",
                  "type": "uint256"
                },
                {
                  "internalType": "uint256",
                  "name": "currency",
                  "type": "uint256"
                }
              ],
              "internalType": "struct JBTokenAmount",
              "name": "amount",
              "type": "tuple"
            },
            {
              "internalType": "uint256",
              "name": "projectId",
              "type": "uint256"
            },
            {
              "internalType": "uint256",
              "name": "currentFundingCycleConfiguration",
              "type": "uint256"
            },
            {
              "internalType": "address",
              "name": "beneficiary",
              "type": "address"
            },
            {
              "internalType": "uint256",
              "name": "weight",
              "type": "uint256"
            },
            {
              "internalType": "uint256",
              "name": "reservedRate",
              "type": "uint256"
            },
            {
              "internalType": "string",
              "name": "memo",
              "type": "string"
            },
            {
              "internalType": "bytes",
              "name": "metadata",
              "type": "bytes"
            }
          ],
          "internalType": "struct JBPayParamsData",
          "name": "_data",
          "type": "tuple"
        }
      ],
      "name": "payParams",
      "outputs": [
        {
          "internalType": "uint256",
          "name": "weight",
          "type": "uint256"
        },
        {
          "internalType": "string",
          "name": "memo",
          "type": "string"
        },
        {
          "components": [
            {
              "internalType": "contract IJBPayDelegate",
              "name": "delegate",
              "type": "address"
            },
            {
              "internalType": "uint256",
              "name": "amount",
              "type": "uint256"
            }
          ],
          "internalType": "struct JBPayDelegateAllocation[]",
          "name": "delegateAllocations",
          "type": "tuple[]"
        }
      ],
      "stateMutability": "view",
      "type": "function"
    },
    {
      "inputs": [],
      "name": "prices",
      "outputs": [
        {
          "internalType": "contract IJBPrices",
          "name": "",
          "type": "address"
        }
      ],
      "stateMutability": "view",
      "type": "function"
    },
    {
      "inputs": [],
      "name": "pricingCurrency",
      "outputs": [
        {
          "internalType": "uint256",
          "name": "",
          "type": "uint256"
        }
      ],
      "stateMutability": "view",
      "type": "function"
    },
    {
      "inputs": [],
      "name": "pricingDecimals",
      "outputs": [
        {
          "internalType": "uint256",
          "name": "",
          "type": "uint256"
        }
      ],
      "stateMutability": "view",
      "type": "function"
    },
    {
      "inputs": [],
      "name": "projectId",
      "outputs": [
        {
          "internalType": "uint256",
          "name": "",
          "type": "uint256"
        }
      ],
      "stateMutability": "view",
      "type": "function"
    },
    {
      "inputs": [
        {
          "components": [
            {
              "internalType": "contract IJBPaymentTerminal",
              "name": "terminal",
              "type": "address"
            },
            {
              "internalType": "address",
              "name": "holder",
              "type": "address"
            },
            {
              "internalType": "uint256",
              "name": "projectId",
              "type": "uint256"
            },
            {
              "internalType": "uint256",
              "name": "currentFundingCycleConfiguration",
              "type": "uint256"
            },
            {
              "internalType": "uint256",
              "name": "tokenCount",
              "type": "uint256"
            },
            {
              "internalType": "uint256",
              "name": "totalSupply",
              "type": "uint256"
            },
            {
              "internalType": "uint256",
              "name": "overflow",
              "type": "uint256"
            },
            {
              "components": [
                {
                  "internalType": "address",
                  "name": "token",
                  "type": "address"
                },
                {
                  "internalType": "uint256",
                  "name": "value",
                  "type": "uint256"
                },
                {
                  "internalType": "uint256",
                  "name": "decimals",
                  "type": "uint256"
                },
                {
                  "internalType": "uint256",
                  "name": "currency",
                  "type": "uint256"
                }
              ],
              "internalType": "struct JBTokenAmount",
              "name": "reclaimAmount",
              "type": "tuple"
            },
            {
              "internalType": "bool",
              "name": "useTotalOverflow",
              "type": "bool"
            },
            {
              "internalType": "uint256",
              "name": "redemptionRate",
              "type": "uint256"
            },
            {
              "internalType": "string",
              "name": "memo",
              "type": "string"
            },
            {
              "internalType": "bytes",
              "name": "metadata",
              "type": "bytes"
            }
          ],
          "internalType": "struct JBRedeemParamsData",
          "name": "_data",
          "type": "tuple"
        }
      ],
      "name": "redeemParams",
      "outputs": [
        {
          "internalType": "uint256",
          "name": "reclaimAmount",
          "type": "uint256"
        },
        {
          "internalType": "string",
          "name": "memo",
          "type": "string"
        },
        {
          "components": [
            {
              "internalType": "contract IJBRedemptionDelegate",
              "name": "delegate",
              "type": "address"
            },
            {
              "internalType": "uint256",
              "name": "amount",
              "type": "uint256"
            }
          ],
          "internalType": "struct JBRedemptionDelegateAllocation[]",
          "name": "delegateAllocations",
          "type": "tuple[]"
        }
      ],
      "stateMutability": "view",
      "type": "function"
    },
    {
      "inputs": [
        {
          "internalType": "uint256[]",
          "name": "_tokenIds",
          "type": "uint256[]"
        },
        {
          "components": [
            {
              "internalType": "contract IJBPaymentTerminal",
              "name": "terminal",
              "type": "address"
            },
            {
              "internalType": "address",
              "name": "holder",
              "type": "address"
            },
            {
              "internalType": "uint256",
              "name": "projectId",
              "type": "uint256"
            },
            {
              "internalType": "uint256",
              "name": "currentFundingCycleConfiguration",
              "type": "uint256"
            },
            {
              "internalType": "uint256",
              "name": "tokenCount",
              "type": "uint256"
            },
            {
              "internalType": "uint256",
              "name": "totalSupply",
              "type": "uint256"
            },
            {
              "internalType": "uint256",
              "name": "overflow",
              "type": "uint256"
            },
            {
              "components": [
                {
                  "internalType": "address",
                  "name": "token",
                  "type": "address"
                },
                {
                  "internalType": "uint256",
                  "name": "value",
                  "type": "uint256"
                },
                {
                  "internalType": "uint256",
                  "name": "decimals",
                  "type": "uint256"
                },
                {
                  "internalType": "uint256",
                  "name": "currency",
                  "type": "uint256"
                }
              ],
              "internalType": "struct JBTokenAmount",
              "name": "reclaimAmount",
              "type": "tuple"
            },
            {
              "internalType": "bool",
              "name": "useTotalOverflow",
              "type": "bool"
            },
            {
              "internalType": "uint256",
              "name": "redemptionRate",
              "type": "uint256"
            },
            {
              "internalType": "string",
              "name": "memo",
              "type": "string"
            },
            {
              "internalType": "bytes",
              "name": "metadata",
              "type": "bytes"
            }
          ],
          "internalType": "struct JBRedeemParamsData",
          "name": "",
          "type": "tuple"
        }
      ],
      "name": "redemptionWeightOf",
      "outputs": [
        {
          "internalType": "uint256",
          "name": "",
          "type": "uint256"
        }
      ],
      "stateMutability": "view",
      "type": "function"
    },
    {
      "inputs": [],
      "name": "renounceOwnership",
      "outputs": [],
      "stateMutability": "nonpayable",
      "type": "function"
    },
    {
      "inputs": [
        {
          "internalType": "uint256",
          "name": "_tokenId",
          "type": "uint256"
        },
        {
          "internalType": "uint256",
          "name": "_salePrice",
          "type": "uint256"
        }
      ],
      "name": "royaltyInfo",
      "outputs": [
        {
          "internalType": "address",
          "name": "receiver",
          "type": "address"
        },
        {
          "internalType": "uint256",
          "name": "royaltyAmount",
          "type": "uint256"
        }
      ],
      "stateMutability": "view",
      "type": "function"
    },
    {
      "inputs": [
        {
          "internalType": "address",
          "name": "from",
          "type": "address"
        },
        {
          "internalType": "address",
          "name": "to",
          "type": "address"
        },
        {
          "internalType": "uint256",
          "name": "tokenId",
          "type": "uint256"
        }
      ],
      "name": "safeTransferFrom",
      "outputs": [],
      "stateMutability": "nonpayable",
      "type": "function"
    },
    {
      "inputs": [
        {
          "internalType": "address",
          "name": "from",
          "type": "address"
        },
        {
          "internalType": "address",
          "name": "to",
          "type": "address"
        },
        {
          "internalType": "uint256",
          "name": "tokenId",
          "type": "uint256"
        },
        {
          "internalType": "bytes",
          "name": "data",
          "type": "bytes"
        }
      ],
      "name": "safeTransferFrom",
      "outputs": [],
      "stateMutability": "nonpayable",
      "type": "function"
    },
    {
      "inputs": [
        {
          "internalType": "address",
          "name": "operator",
          "type": "address"
        },
        {
          "internalType": "bool",
          "name": "approved",
          "type": "bool"
        }
      ],
      "name": "setApprovalForAll",
      "outputs": [],
      "stateMutability": "nonpayable",
      "type": "function"
    },
    {
      "inputs": [
        {
          "internalType": "string",
          "name": "_baseUri",
          "type": "string"
        }
      ],
      "name": "setBaseUri",
      "outputs": [],
      "stateMutability": "nonpayable",
      "type": "function"
    },
    {
      "inputs": [
        {
          "internalType": "string",
          "name": "_contractUri",
          "type": "string"
        }
      ],
      "name": "setContractUri",
      "outputs": [],
      "stateMutability": "nonpayable",
      "type": "function"
    },
    {
      "inputs": [
        {
          "internalType": "address",
          "name": "_beneficiary",
          "type": "address"
        }
      ],
      "name": "setDefaultReservedTokenBeneficiary",
      "outputs": [],
      "stateMutability": "nonpayable",
      "type": "function"
    },
    {
      "inputs": [
        {
          "internalType": "address",
          "name": "_delegatee",
          "type": "address"
        },
        {
          "internalType": "uint256",
          "name": "_tierId",
          "type": "uint256"
        }
      ],
      "name": "setTierDelegate",
      "outputs": [],
      "stateMutability": "nonpayable",
      "type": "function"
    },
    {
      "inputs": [
        {
          "components": [
            {
              "internalType": "address",
              "name": "delegatee",
              "type": "address"
            },
            {
              "internalType": "uint256",
              "name": "tierId",
              "type": "uint256"
            }
          ],
          "internalType": "struct JBTiered721SetTierDelegatesData[]",
          "name": "_setTierDelegatesData",
          "type": "tuple[]"
        }
      ],
      "name": "setTierDelegates",
      "outputs": [],
      "stateMutability": "nonpayable",
      "type": "function"
    },
    {
      "inputs": [
        {
          "internalType": "contract IJBTokenUriResolver",
          "name": "_tokenUriResolver",
          "type": "address"
        }
      ],
      "name": "setTokenUriResolver",
      "outputs": [],
      "stateMutability": "nonpayable",
      "type": "function"
    },
    {
      "inputs": [],
      "name": "store",
      "outputs": [
        {
          "internalType": "contract IJBTiered721DelegateStore",
          "name": "",
          "type": "address"
        }
      ],
      "stateMutability": "view",
      "type": "function"
    },
    {
      "inputs": [
        {
          "internalType": "bytes4",
          "name": "_interfaceId",
          "type": "bytes4"
        }
      ],
      "name": "supportsInterface",
      "outputs": [
        {
          "internalType": "bool",
          "name": "",
          "type": "bool"
        }
      ],
      "stateMutability": "view",
      "type": "function"
    },
    {
      "inputs": [],
      "name": "symbol",
      "outputs": [
        {
          "internalType": "string",
          "name": "",
          "type": "string"
        }
      ],
      "stateMutability": "view",
      "type": "function"
    },
    {
      "inputs": [
        {
          "internalType": "uint256",
          "name": "_tokenId",
          "type": "uint256"
        }
      ],
      "name": "tokenURI",
      "outputs": [
        {
          "internalType": "string",
          "name": "",
          "type": "string"
        }
      ],
      "stateMutability": "view",
      "type": "function"
    },
    {
      "inputs": [
        {
          "components": [
            {
              "internalType": "contract IJBPaymentTerminal",
              "name": "terminal",
              "type": "address"
            },
            {
              "internalType": "address",
              "name": "holder",
              "type": "address"
            },
            {
              "internalType": "uint256",
              "name": "projectId",
              "type": "uint256"
            },
            {
              "internalType": "uint256",
              "name": "currentFundingCycleConfiguration",
              "type": "uint256"
            },
            {
              "internalType": "uint256",
              "name": "tokenCount",
              "type": "uint256"
            },
            {
              "internalType": "uint256",
              "name": "totalSupply",
              "type": "uint256"
            },
            {
              "internalType": "uint256",
              "name": "overflow",
              "type": "uint256"
            },
            {
              "components": [
                {
                  "internalType": "address",
                  "name": "token",
                  "type": "address"
                },
                {
                  "internalType": "uint256",
                  "name": "value",
                  "type": "uint256"
                },
                {
                  "internalType": "uint256",
                  "name": "decimals",
                  "type": "uint256"
                },
                {
                  "internalType": "uint256",
                  "name": "currency",
                  "type": "uint256"
                }
              ],
              "internalType": "struct JBTokenAmount",
              "name": "reclaimAmount",
              "type": "tuple"
            },
            {
              "internalType": "bool",
              "name": "useTotalOverflow",
              "type": "bool"
            },
            {
              "internalType": "uint256",
              "name": "redemptionRate",
              "type": "uint256"
            },
            {
              "internalType": "string",
              "name": "memo",
              "type": "string"
            },
            {
              "internalType": "bytes",
              "name": "metadata",
              "type": "bytes"
            }
          ],
          "internalType": "struct JBRedeemParamsData",
          "name": "",
          "type": "tuple"
        }
      ],
      "name": "totalRedemptionWeight",
      "outputs": [
        {
          "internalType": "uint256",
          "name": "",
          "type": "uint256"
        }
      ],
      "stateMutability": "view",
      "type": "function"
    },
    {
      "inputs": [
        {
          "internalType": "address",
          "name": "from",
          "type": "address"
        },
        {
          "internalType": "address",
          "name": "to",
          "type": "address"
        },
        {
          "internalType": "uint256",
          "name": "tokenId",
          "type": "uint256"
        }
      ],
      "name": "transferFrom",
      "outputs": [],
      "stateMutability": "nonpayable",
      "type": "function"
    },
    {
      "inputs": [
        {
          "internalType": "address",
          "name": "newOwner",
          "type": "address"
        }
      ],
      "name": "transferOwnership",
      "outputs": [],
      "stateMutability": "nonpayable",
      "type": "function"
    }
  ],
  "bytecode": {
    "object": "0x60806040523480156200001157600080fd5b506200001d3362000035565b600880546001600160a01b0319163017905562000087565b600780546001600160a01b038381166001600160a01b0319831681179093556040519116919082907f8be0079c531659141344cd1fd0a4f28419497f9722a3daafe3b4186f6b6457e090600090a35050565b615a2780620000976000396000f3fe6080604052600436106102ff5760003560e01c80638da5cb5b11610190578063c87b56dd116100dc578063d40e714611610095578063df487e261161006f578063df487e2614610953578063e8a3d48514610973578063e985e9c514610988578063f2fde38b146109d157600080fd5b8063d40e714614610900578063d46cf17114610920578063da9ee8b71461094057600080fd5b8063c87b56dd14610840578063ca323efe14610860578063ccb4807b14610880578063d1704baf146108a0578063d31cc52c146108c0578063d3419bf3146108e057600080fd5b8063a22cb46511610149578063ab951e3911610123578063ab951e39146107c0578063b88d4fde146107e0578063c41c2f2414610800578063c74b13d91461082057600080fd5b8063a22cb46514610751578063a51cfd1814610771578063aa4fb15b146107a057600080fd5b80638da5cb5b1461069e5780639494bf72146106bc57806394c5c5ca146106dc57806395d89b41146106fc578063975057e714610711578063a0bcfc7f1461073157600080fd5b80633fafa1271161024f57806364640c1e11610208578063715018a6116101e2578063715018a61461061157806379a75319146106265780637ba62bf91461063b57806382732b6d1461065b57600080fd5b806364640c1e146105ae5780636ac6d941146105c457806370a08231146105f157600080fd5b80633fafa1271461050257806342842e0e146105185780634ecba6251461053857806354c6d1f51461054e578063557e71551461056e5780636352211e1461058e57600080fd5b80632407497e116102bc5780632a55205a116102965780632a55205a146104705780632a596e53146104af5780632b13c58f146104cf57806336c1a93b146104e257600080fd5b80632407497e146103f5578063245a45b51461041557806325eb91ee1461045057600080fd5b806301ffc9a71461030457806306fdde0314610339578063081812fc1461035b578063095ea7b3146103935780631d153ca4146103b557806323b872dd146103d5575b600080fd5b34801561031057600080fd5b5061032461031f366004613f25565b6109f1565b60405190151581526020015b60405180910390f35b34801561034557600080fd5b5061034e610a1c565b6040516103309190613f92565b34801561036757600080fd5b5061037b610376366004613fa5565b610aae565b6040516001600160a01b039091168152602001610330565b34801561039f57600080fd5b506103b36103ae366004613fe3565b610ad5565b005b3480156103c157600080fd5b5060085461037b906001600160a01b031681565b3480156103e157600080fd5b506103b36103f036600461400f565b610b61565b34801561040157600080fd5b506103b3610410366004614050565b610b93565b34801561042157600080fd5b50610442610430366004614050565b600e6020526000908152604090205481565b604051908152602001610330565b34801561045c57600080fd5b506103b361046b3660046140b1565b610c3c565b34801561047c57600080fd5b5061049061048b36600461414b565b610e1f565b604080516001600160a01b039093168352602083019190915201610330565b3480156104bb57600080fd5b506103b36104ca36600461416d565b610f52565b6103b36104dd3660046141fa565b610fab565b3480156104ee57600080fd5b506103b36104fd36600461422e565b611185565b34801561050e57600080fd5b5061044260055481565b34801561052457600080fd5b506103b361053336600461400f565b6111e7565b34801561054457600080fd5b50610442600d5481565b34801561055a57600080fd5b5061037b610569366004613fa5565b611202565b34801561057a57600080fd5b50600a5461037b906001600160a01b031681565b34801561059a57600080fd5b5061037b6105a9366004613fa5565b6112ae565b3480156105ba57600080fd5b50610442600c5481565b3480156105d057600080fd5b506105e46105df36600461426f565b6112e4565b6040516103309190614300565b3480156105fd57600080fd5b5061044261060c366004614050565b61142a565b34801561061d57600080fd5b506103b36114a0565b34801561063257600080fd5b5061044260c881565b34801561064757600080fd5b50610442610656366004614477565b6114b4565b34801561066757600080fd5b5061037b610676366004613fe3565b6001600160a01b039182166000908152600f6020908152604080832093835292905220541690565b3480156106aa57600080fd5b506007546001600160a01b031661037b565b3480156106c857600080fd5b506104426106d73660046141fa565b61152f565b3480156106e857600080fd5b506104426106f7366004613fa5565b611560565b34801561070857600080fd5b5061034e611577565b34801561071d57600080fd5b5060095461037b906001600160a01b031681565b34801561073d57600080fd5b506103b361074c3660046144da565b611586565b34801561075d57600080fd5b506103b361076c366004614552565b611641565b34801561077d57600080fd5b5061079161078c3660046141fa565b611650565b6040516103309392919061458b565b3480156107ac57600080fd5b506103b36107bb36600461414b565b6118af565b3480156107cc57600080fd5b506103b36107db366004613fe3565b611acc565b3480156107ec57600080fd5b506103b36107fb36600461465d565b611ad7565b34801561080c57600080fd5b5060065461037b906001600160a01b031681565b34801561082c57600080fd5b506103b361083b3660046146dc565b611b0a565b34801561084c57600080fd5b5061034e61085b366004613fa5565b611b8e565b34801561086c57600080fd5b5061044261087b366004613fe3565b611d68565b34801561088c57600080fd5b506103b361089b3660046144da565b611d94565b3480156108ac57600080fd5b506103b36108bb366004614a3a565b611e47565b3480156108cc57600080fd5b506104426108db36600461414b565b612139565b3480156108ec57600080fd5b50600b5461037b906001600160a01b031681565b34801561090c57600080fd5b5061044261091b366004614b73565b612151565b34801561092c57600080fd5b5061079161093b366004614ba8565b612186565b6103b361094e366004614be3565b612269565b34801561095f57600080fd5b506103b361096e366004614050565b612320565b34801561097f57600080fd5b5061034e6123c2565b34801561099457600080fd5b506103246109a3366004614c1e565b6001600160a01b03918216600090815260046020908152604080832093909416825291909152205460ff1690565b3480156109dd57600080fd5b506103b36109ec366004614050565b612438565b60006001600160e01b03198216632494300760e11b1480610a165750610a16826124b6565b92915050565b606060008054610a2b90614c4c565b80601f0160208091040260200160405190810160405280929190818152602001828054610a5790614c4c565b8015610aa45780601f10610a7957610100808354040283529160200191610aa4565b820191906000526020600020905b815481529060010190602001808311610a8757829003601f168201915b5050505050905090565b6000610ab982612547565b506000908152600360205260409020546001600160a01b031690565b6000610ae0826112ae565b9050806001600160a01b0316836001600160a01b031603610b145760405163133f8be960e01b815260040160405180910390fd5b336001600160a01b03821614801590610b345750610b3281336109a3565b155b15610b525760405163e5fa0e3560e01b815260040160405180910390fd5b610b5c838361257c565b505050565b610b6b33826125ea565b610b885760405163e5fa0e3560e01b815260040160405180910390fd5b610b5c838383612668565b610b9b612741565b60095460405163036129cb60e61b81526001600160a01b0383811660048301529091169063d84a72c090602401600060405180830381600087803b158015610be257600080fd5b505af1158015610bf6573d6000803e3d6000fd5b50506040513381526001600160a01b03841692507fe7784d93cfbfa4408e19577e6cc0436f4dbb51214b70e100905dfce9def88c1691506020015b60405180910390a250565b610c44612741565b82818015610d14576009546040516320512ba160e01b81526001600160a01b03909116906320512ba190610c7e9087908790600401614c80565b600060405180830381600087803b158015610c9857600080fd5b505af1158015610cac573d6000803e3d6000fd5b5050505060005b81811015610d1257848482818110610ccd57610ccd614cb9565b60405133815260209182029390930135927f832d89d991be5351d793c20faf4b7dd44f8aa9ce39e3cb160c6317de6fbba72992500160405180910390a2600101610cb3565b505b8115610e175760095460405163229dad5f60e11b81526000916001600160a01b03169063453b5abe90610d4d908a908a90600401614e05565b6000604051808303816000875af1158015610d6c573d6000803e3d6000fd5b505050506040513d6000823e601f3d908101601f19168201604052610d949190810190614ea3565b905060005b83811015610e1457818181518110610db357610db3614cb9565b60200260200101517f8aa4a03deb8db10032373886aa0376c918ccf36bcdb59ca4da2a807ac7ff1a04898984818110610dee57610dee614cb9565b90506101c0020133604051610e04929190614ed7565b60405180910390a2600101610d99565b50505b505050505050565b600954604051633a39e4d160e11b815230600482015260248101849052600091829182916001600160a01b031690637473c9a2906044016101c060405180830381865afa158015610e74573d6000803e3d6000fd5b505050506040513d601f19601f82011682018060405250810190610e989190614f15565b600954815160405163792d5f6d60e11b815230600482015260248101919091529192506000916001600160a01b039091169063f25abeda90604401602060405180830381865afa158015610ef0573d6000803e3d6000fd5b505050506040513d601f19601f82011682018060405250810190610f149190614fdf565b90506001600160a01b038116610f3257600080935093505050610f4b565b80610f448684610100015160c861279b565b9350935050505b9250929050565b8060005b81811015610fa5576000848483818110610f7257610f72614cb9565b905060400201803603810190610f889190614ffc565b9050610f9c816000015182602001516118af565b50600101610f56565b50505050565b3415158061102d5750600654600554604051636e49181f60e01b815260048101919091523360248201526001600160a01b0390911690636e49181f90604401602060405180830381865afa158015611007573d6000803e3d6000fd5b505050506040513d601f19601f8201168201806040525081019061102b919061504a565b155b8061103e5750600554816020013514155b1561105c57604051633efca5c360e11b815260040160405180910390fd5b602461106c6101c0830183615067565b905010806110b0575063b3bcbb7960e01b61108b6101c0830183615067565b61109a916024916020916150ad565b6110a3916150d7565b6001600160e01b03191614155b156110ce57604051632a84050f60e01b815260040160405180910390fd5b60006110de6101c0830183615067565b8101906110eb9190615107565b925050506000815190506000805b8281101561117b5783818151811061111357611113614cb9565b602002602001015191508460000160208101906111309190614050565b6000838152600260205260409020546001600160a01b0390811691161461116a5760405163075fd2b160e01b815260040160405180910390fd5b61117382612868565b6001016110f9565b50610fa5836128e9565b61118d612741565b8060005b81811015610fa557368484838181106111ac576111ac614cb9565b90506020028101906111be919061515f565b90506111dd6111cd828061517f565b6105df6040850160208601614050565b5050600101611191565b610b5c83838360405180602001604052806000815250611ad7565b6009546040516308ed6c0160e41b81523060048201526024810183905260009182916001600160a01b0390911690638ed6c01090604401602060405180830381865afa158015611256573d6000803e3d6000fd5b505050506040513d601f19601f8201168201806040525081019061127a9190614fdf565b90506001600160a01b038116156112915792915050565b50506000908152600260205260409020546001600160a01b031690565b6000818152600260205260408120546001600160a01b031680610a165760405163b49aa3b560e01b815260040160405180910390fd5b60606112ee612741565b60095460405163eaa19ab360e01b81526001600160a01b039091169063eaa19ab3906113279060001990889088906001906004016151c8565b6000604051808303816000875af1158015611346573d6000803e3d6000fd5b505050506040513d6000823e601f3d908101601f1916820160405261136e9190810190615225565b509050826000805b828110156114205783818151811061139057611390614cb9565b602002602001015191506113a4858361294e565b846001600160a01b03168787838181106113c0576113c0614cb9565b90506020020160208101906113d5919061526b565b604080516000815233602082015261ffff929092169185917f598baf7bf150ca2f42be9e9f8f55e81d45f5715c3ff22bf46d697fabec7f31d6910160405180910390a4600101611376565b5050509392505050565b600954604051633de222bb60e21b81523060048201526001600160a01b038381166024830152600092169063f7888aec906044015b602060405180830381865afa15801561147c573d6000803e3d6000fd5b505050506040513d601f19601f82011682018060405250810190610a169190615286565b6114a8612741565b6114b26000612a18565b565b60095460405163051330b560e21b81526000916001600160a01b03169063144cc2d4906114e7903090879060040161529f565b602060405180830381865afa158015611504573d6000803e3d6000fd5b505050506040513d601f19601f820116820180604052508101906115289190615286565b9392505050565b600954604051631572f24960e11b81523060048201526000916001600160a01b031690632ae5e4929060240161145f565b6000818152601160205260408120610a1690612a6a565b606060018054610a2b90614c4c565b61158e612741565b6009546040516331315e5960e11b81526001600160a01b0390911690636262bcb2906115c090859085906004016152c3565b600060405180830381600087803b1580156115da57600080fd5b505af11580156115ee573d6000803e3d6000fd5b5050505081816040516116029291906152f2565b604051908190038120338252907f7bc9110d5de090dd59e07912d2b93a5a27ac70a60c8d8e324db4f9ee8b8b5c13906020015b60405180910390a25050565b61164c338383612ac6565b5050565b6000606080608084013515611678576040516309f82f1b60e31b815260040160405180910390fd5b60246116886101c0860186615067565b905010806116cc575063b3bcbb7960e01b6116a76101c0860186615067565b6116b6916024916020916150ad565b6116bf916150d7565b6001600160e01b03191614155b156116ea57604051632a84050f60e01b815260040160405180910390fd5b60408051600180825281830190925290816020015b60408051808201909152600080825260208201528152602001906001900390816116ff5790505090506040518060400160405280306001600160a01b0316815260200160008152508160008151811061175a5761175a614cb9565b602090810291909101015260006117756101c0860186615067565b8101906117829190615107565b92505050600061179282876114b4565b9050600061179f8761152f565b905060006117b28860c00135848461279b565b90506127108861018001350361181d57806117d16101a08a018a615067565b8782828080601f016020809104026020016040519081016040528093929190818152602001838380828437600092019190915250969d50919b509199506118a898505050505050505050565b6118538161183c856118366101808d0135612710615318565b8661279b565b61184b906101808c013561532b565b61271061279b565b6118616101a08a018a615067565b8782828080601f016020809104026020016040519081016040528093929190818152602001838380828437600092019190915250969d50919b509199505050505050505050505b9193909250565b600a546005546040516321d1336160e11b815260048101919091526000916001600160a01b0316906343a266c29060240161012060405180830381865afa1580156118fe573d6000803e3d6000fd5b505050506040513d601f19601f82011682018060405250810190611922919061533e565b61010081015190915060f51c60019081160361195157604051631d2c125760e31b815260040160405180910390fd5b600954604051635d53f40760e11b815260048101859052602481018490526000916001600160a01b03169063baa7e80e906044016000604051808303816000875af11580156119a4573d6000803e3d6000fd5b505050506040513d6000823e601f3d908101601f191682016040526119cc9190810190614ea3565b6009546040516304db994760e21b8152306004820152602481018790529192506000916001600160a01b039091169063136e651c90604401602060405180830381865afa158015611a21573d6000803e3d6000fd5b505050506040513d601f19601f82011682018060405250810190611a459190614fdf565b90506000805b85811015611ac357838181518110611a6557611a65614cb9565b60200260200101519150611a79838361294e565b6040513381526001600160a01b03841690889084907f031e1988c95a91ec4d655ff63a8f87a80bc9daf28d95ae10ee08c0022cfb5c8b9060200160405180910390a4600101611a4b565b50505050505050565b61164c338383612b65565b611ae133836125ea565b611afe5760405163e5fa0e3560e01b815260040160405180910390fd5b610fa584848484612be4565b8051604080518082019091526000808252602082015260005b82811015610fa557838181518110611b3d57611b3d614cb9565b602090810291909101015180519092506001600160a01b0316611b73576040516314f4c13d60e21b815260040160405180910390fd5b611b863383600001518460200151612b65565b600101611b23565b600954604051630fab094760e01b81523060048201526060916000916001600160a01b0390911690630fab094790602401602060405180830381865afa158015611bdc573d6000803e3d6000fd5b505050506040513d601f19601f82011682018060405250810190611c009190614fdf565b90506001600160a01b03811615611c7e57604051636d02a25560e11b8152600481018490526001600160a01b0382169063da0544aa90602401600060405180830381865afa158015611c56573d6000803e3d6000fd5b505050506040513d6000823e601f3d908101601f1916820160405261152891908101906153be565b60095460405163f682eeaf60e01b8152306004820152611528916001600160a01b03169063f682eeaf90602401600060405180830381865afa158015611cc8573d6000803e3d6000fd5b505050506040513d6000823e601f3d908101601f19168201604052611cf091908101906153be565b600954604051630c8df17160e41b8152306004820152602481018790526001600160a01b039091169063c8df171090604401602060405180830381865afa158015611d3f573d6000803e3d6000fd5b505050506040513d601f19601f82011682018060405250810190611d639190615286565b612c18565b6001600160a01b0382166000908152601060209081526040808320848452909152812061152890612a6a565b611d9c612741565b60095460405163d67b78fd60e01b81526001600160a01b039091169063d67b78fd90611dce90859085906004016152c3565b600060405180830381600087803b158015611de857600080fd5b505af1158015611dfc573d6000803e3d6000fd5b505050508181604051611e109291906152f2565b604051908190038120338252907fd36dc0c1a06103fdcaf15f3f6fb797d1a97997514c78de073640c8b5005454b890602001611635565b6008546001600160a01b03163003611e5e57600080fd5b6009546001600160a01b031615611e7457600080fd5b611e808b8b8b8b612c7f565b600a80546001600160a01b03808a166001600160a01b031992831617909255600980548584169083161790556020850151600c556040850151600d556060850151600b8054919093169116179055855115611f34576040516331315e5960e11b81526001600160a01b03831690636262bcb290611f01908990600401613f92565b600060405180830381600087803b158015611f1b57600080fd5b505af1158015611f2f573d6000803e3d6000fd5b505050505b835115611f9a5760405163d67b78fd60e01b81526001600160a01b0383169063d67b78fd90611f67908790600401613f92565b600060405180830381600087803b158015611f8157600080fd5b505af1158015611f95573d6000803e3d6000fd5b505050505b6001600160a01b038516156120055760405163036129cb60e61b81526001600160a01b03868116600483015283169063d84a72c090602401600060405180830381600087803b158015611fec57600080fd5b505af1158015612000573d6000803e3d6000fd5b505050505b8251511561208357825160405163229dad5f60e11b81526001600160a01b0384169163453b5abe9161203a919060040161542b565b6000604051808303816000875af1158015612059573d6000803e3d6000fd5b505050506040513d6000823e601f3d908101601f191682016040526120819190810190614ea3565b505b805180612091575080602001515b8061209d575080604001515b1561212357604080516365c13f1960e11b815282511515600482015260208301511515602482015290820151151560448201526060820151151560648201526001600160a01b0383169063cb827e3290608401600060405180830381600087803b15801561210a57600080fd5b505af115801561211e573d6000803e3d6000fd5b505050505b61212c33612a18565b5050505050505050505050565b60008281526011602052604081206115289083612cb2565b6001600160a01b0383166000908152601060209081526040808320858452909152812061217e9083612cb2565b949350505050565b61012081013560608061219d610160850185615067565b8080601f016020809104026020016040519081016040528093929190818152602001838380828437600092019190915250929450600192506121dd915050565b60405190808252806020026020018201604052801561222257816020015b60408051808201909152600080825260208201528152602001906001900390816121fb5790505b5090506040518060400160405280306001600160a01b0316815260200160008152508160008151811061225757612257614cb9565b60200260200101819052509193909250565b600554341515806122ea5750600654604051636e49181f60e01b8152600481018390523360248201526001600160a01b0390911690636e49181f90604401602060405180830381865afa1580156122c4573d6000803e3d6000fd5b505050506040513d601f19601f820116820180604052508101906122e8919061504a565b155b806122f9575080826020013514155b15612317576040516331c57b1b60e21b815260040160405180910390fd5b61164c82612dc1565b612328612741565b6009546040516317161f7d60e01b81526001600160a01b038381166004830152909116906317161f7d90602401600060405180830381600087803b15801561236f57600080fd5b505af1158015612383573d6000803e3d6000fd5b50506040513381526001600160a01b03841692507fab0014d4c7a642a02a31b303a318908c22b0fb2001f107278fc6076b4c671b659150602001610c31565b600954604051630155619b60e71b81523060048201526060916001600160a01b03169063aab0cd8090602401600060405180830381865afa15801561240b573d6000803e3d6000fd5b505050506040513d6000823e601f3d908101601f1916820160405261243391908101906153be565b905090565b612440612741565b6001600160a01b0381166124aa5760405162461bcd60e51b815260206004820152602660248201527f4f776e61626c653a206e6577206f776e657220697320746865207a65726f206160448201526564647265737360d01b60648201526084015b60405180910390fd5b6124b381612a18565b50565b60006001600160e01b0319821663b3bcbb7960e01b14806124e757506001600160e01b031982166371700c6960e01b145b8061250257506001600160e01b0319821663da9ee8b760e01b145b8061251d57506001600160e01b03198216632b13c58f60e01b145b8061253857506001600160e01b0319821663152a902d60e11b145b80610a165750610a16826130d4565b6000818152600260205260409020546001600160a01b03166124b35760405163b49aa3b560e01b815260040160405180910390fd5b600081815260036020526040902080546001600160a01b0319166001600160a01b03841690811790915581906125b1826112ae565b6001600160a01b03167f8c5be1e5ebec7d5bd14f71427d1e84f3dd0314c0f7b2291e5b200ac8c7c3b92560405160405180910390a45050565b6000806125f6836112ae565b9050806001600160a01b0316846001600160a01b0316148061263d57506001600160a01b0380821660009081526004602090815260408083209388168352929052205460ff165b8061217e5750836001600160a01b031661265684610aae565b6001600160a01b031614949350505050565b826001600160a01b031661267b826112ae565b6001600160a01b0316146126a25760405163a195bc5360e01b815260040160405180910390fd5b6001600160a01b0382166126c957604051632c95542760e01b815260040160405180910390fd5b6126d4838383613124565b6126df60008261257c565b60008181526002602052604080822080546001600160a01b0319166001600160a01b0386811691821790925591518493918716917fddf252ad1be2c89b69c2b068fc378daa952ba7f163c4a11628f55a4df523b3ef91a4610b5c838383613351565b6007546001600160a01b031633146114b25760405162461bcd60e51b815260206004820181905260248201527f4f776e61626c653a2063616c6c6572206973206e6f7420746865206f776e657260448201526064016124a1565b60008080600019858709858702925082811083820303915050806000036127d5578382816127cb576127cb615548565b0492505050611528565b8381106127ff57604051631dcf306360e21b815260048101829052602481018590526044016124a1565b60008486880960026001871981018816978890046003810283188082028403028082028403028082028403028082028403028082028403029081029092039091026000889003889004909101858311909403939093029303949094049190911702949350505050565b6000612873826112ae565b905061288181600084613124565b61288c60008361257c565b60008281526002602052604080822080546001600160a01b0319169055518391906001600160a01b038416907fddf252ad1be2c89b69c2b068fc378daa952ba7f163c4a11628f55a4df523b3ef908390a461164c81600084613351565b6009546040516386bc2be360e01b81526001600160a01b03909116906386bc2be390612919908490600401614300565b600060405180830381600087803b15801561293357600080fd5b505af1158015612947573d6000803e3d6000fd5b5050505050565b6001600160a01b03821661297557604051633904578f60e11b815260040160405180910390fd5b6000818152600260205260409020546001600160a01b0316156129ab57604051632eb5f0c360e21b815260040160405180910390fd5b6129b760008383613124565b60008181526002602052604080822080546001600160a01b0319166001600160a01b03861690811790915590518392907fddf252ad1be2c89b69c2b068fc378daa952ba7f163c4a11628f55a4df523b3ef908290a461164c60008383613351565b600780546001600160a01b038381166001600160a01b0319831681179093556040519116919082907f8be0079c531659141344cd1fd0a4f28419497f9722a3daafe3b4186f6b6457e090600090a35050565b80546000908015612ab35782612a81600183615318565b81548110612a9157612a91614cb9565b60009182526020909120015464010000000090046001600160e01b0316612ab6565b60005b6001600160e01b03169392505050565b816001600160a01b0316836001600160a01b031603612af8576040516306f8139d60e11b815260040160405180910390fd5b6001600160a01b03838116600081815260046020908152604080832094871680845294825291829020805460ff191686151590811790915591519182527f17307eab39ab6107e8899845ad3d59bd9653f200f220920489ca2b5937696c31910160405180910390a3505050565b6001600160a01b038381166000818152600f6020908152604080832086845290915280822080548786166001600160a01b0319821681179092559151919094169392849290917f3134e8a2e6d97e929a7e54011ea5485d7d196dd5f0ba4d4ef95803e8e3fc257f9190a4610fa5818484612bdf888761344a565b61348a565b612bef848484612668565b612bfb848484846135df565b610fa5576040516336f57c1b60e11b815260040160405180910390fd5b604051609160f51b60208201526022810182905260609060009060420160405160208183030381529060405290506000612c51826136e1565b90508481604051602001612c6692919061555e565b6040516020818303038152906040529250505092915050565b612c898282613879565b5050600591909155600680546001600160a01b0319166001600160a01b03909216919091179055565b6000438210612d035760405162461bcd60e51b815260206004820181905260248201527f436865636b706f696e74733a20626c6f636b206e6f7420796574206d696e656460448201526064016124a1565b825460005b81811015612d68576000612d1c8284613892565b905084866000018281548110612d3457612d34614cb9565b60009182526020909120015463ffffffff161115612d5457809250612d62565b612d5f81600161532b565b91505b50612d08565b8115612dac5784612d7a600184615318565b81548110612d8a57612d8a614cb9565b60009182526020909120015464010000000090046001600160e01b0316612daf565b60005b6001600160e01b031695945050505050565b600c5460009060c083013503612ddc57506080810135612e92565b600b546001600160a01b03161561164c57600d54612e8f90608084013590612e0590600a615671565b600b54600c54604051635268657960e11b815260c08801356004820152602481019190915260a087013560448201526001600160a01b039091169063a4d0caf290606401602060405180830381865afa158015612e66573d6000803e3d6000fd5b505050506040513d601f19601f82011682018060405250810190612e8a9190615286565b61279b565b90505b6000600e81612ea96101a086016101808701614050565b6001600160a01b03168152602081019190915260400160009081205491508290612edb6101a086016101808701614050565b6001600160a01b0316612ef16020870187614050565b6001600160a01b031603612f085790820190612f0b565b50815b60006044612f1d6101e0880188615067565b9050118015612f61575063b3bcbb7960e01b612f3d6101e0880188615067565b612f4c916044916040916150ad565b612f55916150d7565b6001600160e01b031916145b15613038576060612f766101e0880188615067565b810190612f83919061567d565b909550935084925050811590506130065750600954604051634228826f60e11b81523060048201526001600160a01b039091169063845104de90602401608060405180830381865afa158015612fdd573d6000803e3d6000fd5b505050506040513d601f19601f82011682018060405250810190613001919061574f565b606001515b1561301057600091505b80511561303657613033848261302e6101a08b016101808c01614050565b6138ad565b93505b505b8215613094578061305c57604051631b57826960e21b815260040160405180910390fd5b828201600e60006130756101a08a016101808b01614050565b6001600160a01b03168152602081019190915260400160002055610e17565b818414610e175781600e60006130b26101a08a016101808b01614050565b6001600160a01b03168152602081019190915260400160002055505050505050565b60006001600160e01b031982166380ac58cd60e01b148061310557506001600160e01b03198216635b5e139f60e01b145b80610a1657506301ffc9a760e01b6001600160e01b0319831614610a16565b6001600160a01b03831615610b5c5760095460405163b67cb04760e01b8152306004820152602481018390526000916001600160a01b03169063b67cb047906044016101c060405180830381865afa158015613184573d6000803e3d6000fd5b505050506040513d601f19601f820116820180604052508101906131a89190614f15565b9050806101a001511561326d57600a546005546040516321d1336160e11b815260048101919091526000916001600160a01b0316906343a266c29060240161012060405180830381865afa158015613204573d6000803e3d6000fd5b505050506040513d601f19601f82011682018060405250810190613228919061533e565b90506001600160a01b0384161580159061324d575061010081015160f41c6001908116145b1561326b576040516318cdaf9760e01b815260040160405180910390fd5b505b6009546040516308ed6c0160e41b8152306004820152602481018490526000916001600160a01b031690638ed6c01090604401602060405180830381865afa1580156132bd573d6000803e3d6000fd5b505050506040513d601f19601f820116820180604052508101906132e19190614fdf565b6001600160a01b031603610fa557600954604051638cec7d3960e01b8152600481018490526001600160a01b03868116602483015290911690638cec7d3990604401600060405180830381600087803b15801561333d57600080fd5b505af1158015610e14573d6000803e3d6000fd5b60095460405163b67cb04760e01b8152306004820152602481018390526000916001600160a01b03169063b67cb047906044016101c060405180830381865afa1580156133a2573d6000803e3d6000fd5b505050506040513d601f19601f820116820180604052508101906133c69190614f15565b60095481516040516330b157e560e21b815260048101919091526001600160a01b038781166024830152868116604483015292935091169063c2c55f9490606401600060405180830381600087803b15801561342157600080fd5b505af1158015613435573d6000803e3d6000fd5b50505050613445848484846139ef565b610fa5565b6009546040516305c9a1d560e31b81523060048201526001600160a01b038481166024830152604482018490526000921690632e4d0ea8906064016114e7565b826001600160a01b0316846001600160a01b031614806134a8575080155b610fa5576001600160a01b03841615613543576001600160a01b0384166000908152601060209081526040808320858452909152812081906134ed90613a0d85613a19565b60408051838152602081018390523381830152905192945090925085916001600160a01b038916917fed0c1e94c302bdbbd8bbd6a4fb7c3ed335c2292407cd816eadd075d019d0ce04919081900360600190a350505b6001600160a01b03831615610fa5576001600160a01b03831660009081526010602090815260408083208584529091528120819061358490613a4785613a19565b60408051838152602081018390523381830152905192945090925085916001600160a01b038816917fed0c1e94c302bdbbd8bbd6a4fb7c3ed335c2292407cd816eadd075d019d0ce04919081900360600190a3505050505050565b60006001600160a01b0384163b156136d657604051630a85bd0160e11b81526001600160a01b0385169063150b7a02906136239033908990889088906004016157d3565b6020604051808303816000875af192505050801561365e575060408051601f3d908101601f1916820190925261365b91810190615810565b60015b6136bc573d80801561368c576040519150601f19603f3d011682016040523d82523d6000602084013e613691565b606091505b5080516000036136b4576040516336f57c1b60e11b815260040160405180910390fd5b805181602001fd5b6001600160e01b031916630a85bd0160e11b14905061217e565b506001949350505050565b6060815160000361370057505060408051600081526020810190915290565b60408051602e8082526105e08201909252600091602082016105c08036833701905050905060008160008151811061373a5761373a614cb9565b60ff90921660209283029190910190910152825160019060005b8181101561385557600086828151811061377057613770614cb9565b016020015160f81c905060005b8460ff168110156137fa57600886828151811061379c5761379c614cb9565b602002602001015160ff16901b826137b4919061532b565b91506137c1603a8361582d565b8682815181106137d3576137d3614cb9565b60ff909216602092830291909101909101526137f0603a83615841565b915060010161377d565b505b801561384c5761380d603a8261582d565b858560ff168151811061382257613822614cb9565b60ff90921660209283029190910190910152600190930192613845603a82615841565b90506137fc565b50600101613754565b5061387061386b6138668585613a53565b613afa565b613b9c565b95945050505050565b6000613885838261589b565b506001610b5c828261589b565b60006138a16002848418615841565b6115289084841661532b565b60095460405163eaa19ab360e01b81526000916060916001600160a01b039091169063eaa19ab3906138e79088908890879060040161595a565b6000604051808303816000875af1158015613906573d6000803e3d6000fd5b505050506040513d6000823e601f3d908101601f1916820160405261392e9190810190615225565b81519093509091506000805b828110156139e45783818151811061395457613954614cb9565b60200260200101519150613968868361294e565b856001600160a01b031687828151811061398457613984614cb9565b602002602001015161ffff16837f598baf7bf150ca2f42be9e9f8f55e81d45f5715c3ff22bf46d697fabec7f31d68b336040516139d49291909182526001600160a01b0316602082015260400190565b60405180910390a460010161393a565b505050509392505050565b60a081015115610fa557610fa5848483600001518460a00151613c75565b60006115288284615318565b600080613a3b85613a36613a2c88612a6a565b868863ffffffff16565b613d17565b91509150935093915050565b6000611528828461532b565b606060008260ff166001600160401b03811115613a7257613a72614313565b604051908082528060200260200182016040528015613a9b578160200160208202803683370190505b50905060005b8360ff16811015613af257848181518110613abe57613abe614cb9565b6020026020010151828281518110613ad857613ad8614cb9565b60ff90921660209283029190910190910152600101613aa1565b509392505050565b80516060906000816001600160401b03811115613b1957613b19614313565b604051908082528060200260200182016040528015613b42578160200160208202803683370190505b50905060005b82811015613af257848160018751030381518110613b6857613b68614cb9565b6020026020010151828281518110613b8257613b82614cb9565b60ff90921660209283029190910190910152600101613b48565b80516060906000816001600160401b03811115613bbb57613bbb614313565b6040519080825280601f01601f191660200182016040528015613be5576020820181803683370190505b50905060005b82811015613af2576040518060600160405280603a81526020016159b8603a9139858281518110613c1e57613c1e614cb9565b602002602001015160ff1681518110613c3957613c39614cb9565b602001015160f81c60f81b828281518110613c5657613c56614cb9565b60200101906001600160f81b031916908160001a905350600101613beb565b6001600160a01b038416613ca1576000828152601160205260409020613c9e90613a4783613a19565b50505b6001600160a01b038316613ccd576000828152601160205260409020613cca90613a0d83613a19565b50505b6001600160a01b038085166000908152600f60208181526040808420878552825280842054888616855292825280842087855290915290912054610fa5929182169116848461348a565b8154600090819081613d2886612a6a565b9050600082118015613d6657504386613d42600185615318565b81548110613d5257613d52614cb9565b60009182526020909120015463ffffffff16145b15613dc657613d7485613e3d565b86613d80600185615318565b81548110613d9057613d90614cb9565b9060005260206000200160000160046101000a8154816001600160e01b0302191690836001600160e01b03160217905550613e34565b856000016040518060400160405280613dde43613eaa565b63ffffffff168152602001613df288613e3d565b6001600160e01b0390811690915282546001810184556000938452602093849020835194909301519091166401000000000263ffffffff909316929092179101555b95939450505050565b60006001600160e01b03821115613ea65760405162461bcd60e51b815260206004820152602760248201527f53616665436173743a2076616c756520646f65736e27742066697420696e20326044820152663234206269747360c81b60648201526084016124a1565b5090565b600063ffffffff821115613ea65760405162461bcd60e51b815260206004820152602660248201527f53616665436173743a2076616c756520646f65736e27742066697420696e203360448201526532206269747360d01b60648201526084016124a1565b6001600160e01b0319811681146124b357600080fd5b600060208284031215613f3757600080fd5b813561152881613f0f565b60005b83811015613f5d578181015183820152602001613f45565b50506000910152565b60008151808452613f7e816020860160208601613f42565b601f01601f19169290920160200192915050565b6020815260006115286020830184613f66565b600060208284031215613fb757600080fd5b5035919050565b6001600160a01b03811681146124b357600080fd5b8035613fde81613fbe565b919050565b60008060408385031215613ff657600080fd5b823561400181613fbe565b946020939093013593505050565b60008060006060848603121561402457600080fd5b833561402f81613fbe565b9250602084013561403f81613fbe565b929592945050506040919091013590565b60006020828403121561406257600080fd5b813561152881613fbe565b60008083601f84011261407f57600080fd5b5081356001600160401b0381111561409657600080fd5b6020830191508360208260051b8501011115610f4b57600080fd5b600080600080604085870312156140c757600080fd5b84356001600160401b03808211156140de57600080fd5b818701915087601f8301126140f257600080fd5b81358181111561410157600080fd5b8860206101c08302850101111561411757600080fd5b60209283019650945090860135908082111561413257600080fd5b5061413f8782880161406d565b95989497509550505050565b6000806040838503121561415e57600080fd5b50508035926020909101359150565b6000806020838503121561418057600080fd5b82356001600160401b038082111561419757600080fd5b818501915085601f8301126141ab57600080fd5b8135818111156141ba57600080fd5b8660208260061b85010111156141cf57600080fd5b60209290920196919550909350505050565b60006101e082840312156141f457600080fd5b50919050565b60006020828403121561420c57600080fd5b81356001600160401b0381111561422257600080fd5b61217e848285016141e1565b6000806020838503121561424157600080fd5b82356001600160401b0381111561425757600080fd5b6142638582860161406d565b90969095509350505050565b60008060006040848603121561428457600080fd5b83356001600160401b0381111561429a57600080fd5b6142a68682870161406d565b90945092505060208401356142ba81613fbe565b809150509250925092565b600081518084526020808501945080840160005b838110156142f5578151875295820195908201906001016142d9565b509495945050505050565b60208152600061152860208301846142c5565b634e487b7160e01b600052604160045260246000fd5b604080519081016001600160401b038111828210171561434b5761434b614313565b60405290565b604051608081016001600160401b038111828210171561434b5761434b614313565b6040516101c081016001600160401b038111828210171561434b5761434b614313565b60405161012081016001600160401b038111828210171561434b5761434b614313565b604051601f8201601f191681016001600160401b03811182821017156143e1576143e1614313565b604052919050565b60006001600160401b0382111561440257614402614313565b5060051b60200190565b600082601f83011261441d57600080fd5b8135602061443261442d836143e9565b6143b9565b82815260059290921b8401810191818101908684111561445157600080fd5b8286015b8481101561446c5780358352918301918301614455565b509695505050505050565b6000806040838503121561448a57600080fd5b82356001600160401b03808211156144a157600080fd5b6144ad8683870161440c565b935060208501359150808211156144c357600080fd5b506144d0858286016141e1565b9150509250929050565b600080602083850312156144ed57600080fd5b82356001600160401b038082111561450457600080fd5b818501915085601f83011261451857600080fd5b81358181111561452757600080fd5b8660208285010111156141cf57600080fd5b80151581146124b357600080fd5b8035613fde81614539565b6000806040838503121561456557600080fd5b823561457081613fbe565b9150602083013561458081614539565b809150509250929050565b838152600060206060818401526145a56060840186613f66565b83810360408581019190915285518083528387019284019060005b818110156145ee57845180516001600160a01b031684528601518684015293850193918301916001016145c0565b50909998505050505050505050565b60006001600160401b0382111561461657614616614313565b50601f01601f191660200190565b600061463261442d846145fd565b905082815283838301111561464657600080fd5b828260208301376000602084830101529392505050565b6000806000806080858703121561467357600080fd5b843561467e81613fbe565b9350602085013561468e81613fbe565b92506040850135915060608501356001600160401b038111156146b057600080fd5b8501601f810187136146c157600080fd5b6146d087823560208401614624565b91505092959194509250565b600060208083850312156146ef57600080fd5b82356001600160401b0381111561470557600080fd5b8301601f8101851361471657600080fd5b803561472461442d826143e9565b81815260069190911b8201830190838101908783111561474357600080fd5b928401925b8284101561478f57604084890312156147615760008081fd5b614769614329565b843561477481613fbe565b81528486013586820152825260409093019290840190614748565b979650505050505050565b600082601f8301126147ab57600080fd5b61152883833560208501614624565b803569ffffffffffffffffffff81168114613fde57600080fd5b803565ffffffffffff81168114613fde57600080fd5b803564ffffffffff81168114613fde57600080fd5b803561ffff81168114613fde57600080fd5b803560ff81168114613fde57600080fd5b6000608080838503121561483557600080fd5b61483d614351565b915082356001600160401b0381111561485557600080fd5b8301601f8101851361486657600080fd5b8035602061487661442d836143e9565b8281526101c0928302840182019282820191908985111561489657600080fd5b948301945b848610156149ad5780868b0312156148b35760008081fd5b6148bb614373565b6148c4876147ba565b81526148d18588016147d4565b8582015260406148e28189016147ea565b9082015260606148f38882016147ff565b908201526149028789016147ff565b8882015260a0614913818901613fd3565b9082015260c0614924888201614811565b9082015260e0614935888201613fd3565b908201526101008781013590820152610120614952818901614811565b90820152610140614964888201614547565b90820152610160614976888201614547565b90820152610180614988888201614547565b908201526101a061499a888201614547565b908201528352948501949183019161489b565b508652508581013590850152505050604080830135908201526149d260608301613fd3565b606082015292915050565b6000608082840312156149ef57600080fd5b6149f7614351565b90508135614a0481614539565b81526020820135614a1481614539565b60208201526040820135614a2781614539565b604082015260608201356149d281614539565b60008060008060008060008060008060006101c08c8e031215614a5c57600080fd5b8b359a50614a6c60208d01613fd3565b99506001600160401b038060408e01351115614a8757600080fd5b614a978e60408f01358f0161479a565b99508060608e01351115614aaa57600080fd5b614aba8e60608f01358f0161479a565b9850614ac860808e01613fd3565b97508060a08e01351115614adb57600080fd5b614aeb8e60a08f01358f0161479a565b9650614af960c08e01613fd3565b95508060e08e01351115614b0c57600080fd5b614b1c8e60e08f01358f0161479a565b9450806101008e01351115614b3057600080fd5b50614b428d6101008e01358e01614822565b9250614b516101208d01613fd3565b9150614b618d6101408e016149dd565b90509295989b509295989b9093969950565b600080600060608486031215614b8857600080fd5b8335614b9381613fbe565b95602085013595506040909401359392505050565b600060208284031215614bba57600080fd5b81356001600160401b03811115614bd057600080fd5b82016101a0818503121561152857600080fd5b600060208284031215614bf557600080fd5b81356001600160401b03811115614c0b57600080fd5b8201610200818503121561152857600080fd5b60008060408385031215614c3157600080fd5b8235614c3c81613fbe565b9150602083013561458081613fbe565b600181811c90821680614c6057607f821691505b6020821081036141f457634e487b7160e01b600052602260045260246000fd5b6020808252810182905260006001600160fb1b03831115614ca057600080fd5b8260051b80856040850137919091016040019392505050565b634e487b7160e01b600052603260045260246000fd5b614cec82614cdc836147ba565b69ffffffffffffffffffff169052565b614cf8602082016147d4565b65ffffffffffff166020830152614d11604082016147ea565b64ffffffffff166040830152614d29606082016147ff565b61ffff166060830152614d3e608082016147ff565b61ffff166080830152614d5360a08201613fd3565b6001600160a01b031660a0830152614d6d60c08201614811565b60ff1660c0830152614d8160e08201613fd3565b6001600160a01b031660e08301526101008181013590830152610120614da8818301614811565b60ff1690830152610140614dbd828201614547565b151590830152610160614dd1828201614547565b151590830152610180614de5828201614547565b1515908301526101a0614df9828201614547565b80151584830152610fa5565b6020808252810182905260008360408301825b85811015614e3e57614e2a8284614ccf565b6101c0928301929190910190600101614e18565b5095945050505050565b600082601f830112614e5957600080fd5b81516020614e6961442d836143e9565b82815260059290921b84018101918181019086841115614e8857600080fd5b8286015b8481101561446c5780518352918301918301614e8c565b600060208284031215614eb557600080fd5b81516001600160401b03811115614ecb57600080fd5b61217e84828501614e48565b6101e08101614ee68285614ccf565b6001600160a01b03929092166101c09190910152919050565b8051613fde81613fbe565b8051613fde81614539565b60006101c08284031215614f2857600080fd5b614f30614373565b825181526020830151602082015260408301516040820152606083015160608201526080830151608082015260a083015160a082015260c083015160c0820152614f7c60e08401614eff565b60e08201526101008381015190820152610120614f9a818501614eff565b9082015261014083810151908201526101608084015190820152610180614fc2818501614f0a565b908201526101a0614fd4848201614f0a565b908201529392505050565b600060208284031215614ff157600080fd5b815161152881613fbe565b60006040828403121561500e57600080fd5b604051604081018181106001600160401b038211171561503057615030614313565b604052823581526020928301359281019290925250919050565b60006020828403121561505c57600080fd5b815161152881614539565b6000808335601e1984360301811261507e57600080fd5b8301803591506001600160401b0382111561509857600080fd5b602001915036819003821315610f4b57600080fd5b600080858511156150bd57600080fd5b838611156150ca57600080fd5b5050820193919092039150565b6001600160e01b031981358181169160048510156150ff5780818660040360031b1b83161692505b505092915050565b60008060006060848603121561511c57600080fd5b83359250602084013561512e81613f0f565b915060408401356001600160401b0381111561514957600080fd5b6151558682870161440c565b9150509250925092565b60008235603e1983360301811261517557600080fd5b9190910192915050565b6000808335601e1984360301811261519657600080fd5b8301803591506001600160401b038211156151b057600080fd5b6020019150600581901b3603821315610f4b57600080fd5b84815260606020808301829052908201849052600090859060808401835b8781101561520d5761ffff6151fa856147ff565b16825292820192908201906001016151e6565b50809350505050821515604083015295945050505050565b6000806040838503121561523857600080fd5b82516001600160401b0381111561524e57600080fd5b61525a85828601614e48565b925050602083015190509250929050565b60006020828403121561527d57600080fd5b611528826147ff565b60006020828403121561529857600080fd5b5051919050565b6001600160a01b038316815260406020820181905260009061217e908301846142c5565b60208152816020820152818360408301376000818301604090810191909152601f909201601f19160101919050565b8183823760009101908152919050565b634e487b7160e01b600052601160045260246000fd5b81810381811115610a1657610a16615302565b80820180821115610a1657610a16615302565b6000610120828403121561535157600080fd5b615359614396565b825181526020830151602082015260408301516040820152606083015160608201526080830151608082015260a083015160a082015260c083015160c08201526153a560e08401614eff565b60e0820152610100928301519281019290925250919050565b6000602082840312156153d057600080fd5b81516001600160401b038111156153e657600080fd5b8201601f810184136153f757600080fd5b805161540561442d826145fd565b81815285602083850101111561541a57600080fd5b613870826020830160208601613f42565b602080825282518282018190526000919060409081850190868401855b8281101561553b578151805169ffffffffffffffffffff1685528681015165ffffffffffff16878601528581015164ffffffffff168686015260608082015161ffff908116918701919091526080808301519091169086015260a0808201516001600160a01b039081169187019190915260c08083015160ff9081169188019190915260e08084015190921691870191909152610100808301519087015261012080830151909116908601526101408082015115159086015261016080820151151590860152610180808201511515908601526101a0908101511515908501526101c09093019290850190600101615448565b5091979650505050505050565b634e487b7160e01b600052601260045260246000fd5b60008351615570818460208801613f42565b835190830190615584818360208801613f42565b01949350505050565b600181815b808511156155c85781600019048211156155ae576155ae615302565b808516156155bb57918102915b93841c9390800290615592565b509250929050565b6000826155df57506001610a16565b816155ec57506000610a16565b8160018114615602576002811461560c57615628565b6001915050610a16565b60ff84111561561d5761561d615302565b50506001821b610a16565b5060208310610133831016604e8410600b841016171561564b575081810a610a16565b615655838361558d565b806000190482111561566957615669615302565b029392505050565b600061152883836155d0565b600080600080600060a0868803121561569557600080fd5b85359450602080870135945060408701356156af81613f0f565b935060608701356156bf81614539565b925060808701356001600160401b038111156156da57600080fd5b8701601f810189136156eb57600080fd5b80356156f961442d826143e9565b81815260059190911b8201830190838101908b83111561571857600080fd5b928401925b8284101561573d5761572e846147ff565b8252928401929084019061571d565b80955050505050509295509295909350565b60006080828403121561576157600080fd5b604051608081018181106001600160401b038211171561578357615783614313565b604052825161579181614539565b815260208301516157a181614539565b602082015260408301516157b481614539565b604082015260608301516157c781614539565b60608201529392505050565b6001600160a01b038581168252841660208201526040810183905260806060820181905260009061580690830184613f66565b9695505050505050565b60006020828403121561582257600080fd5b815161152881613f0f565b60008261583c5761583c615548565b500690565b60008261585057615850615548565b500490565b601f821115610b5c57600081815260208120601f850160051c8101602086101561587c5750805b601f850160051c820191505b81811015610e1757828155600101615888565b81516001600160401b038111156158b4576158b4614313565b6158c8816158c28454614c4c565b84615855565b602080601f8311600181146158fd57600084156158e55750858301515b600019600386901b1c1916600185901b178555610e17565b600085815260208120601f198616915b8281101561592c5788860151825594840194600190910190840161590d565b508582101561594a5787850151600019600388901b60f8161c191681555b5050505050600190811b01905550565b6000606082018583526020606081850152818651808452608086019150828801935060005b8181101561599f57845161ffff168352938301939183019160010161597f565b5050809350505050821515604083015294935050505056fe31323334353637383941424344454647484a4b4c4d4e505152535455565758595a6162636465666768696a6b6d6e6f707172737475767778797aa264697066735822122085cec68c4d85702b936dbb11a0ca042fa21b914a7d42071daac91eb24719b0f564736f6c63430008100033",
    "linkReferences": {}
  },
  "methodIdentifiers": {
    "MAX_ROYALTY_RATE()": "79a75319",
    "adjustTiers((uint80,uint48,uint40,uint16,uint16,address,uint8,address,bytes32,uint8,bool,bool,bool,bool)[],uint256[])": "25eb91ee",
    "approve(address,uint256)": "095ea7b3",
    "balanceOf(address)": "70a08231",
    "codeOrigin()": "1d153ca4",
    "contractURI()": "e8a3d485",
    "creditsOf(address)": "245a45b5",
    "didPay((address,uint256,uint256,(address,uint256,uint256,uint256),(address,uint256,uint256,uint256),uint256,address,bool,string,bytes))": "da9ee8b7",
    "didRedeem((address,uint256,uint256,uint256,(address,uint256,uint256,uint256),(address,uint256,uint256,uint256),address,string,bytes))": "2b13c58f",
    "directory()": "c41c2f24",
    "firstOwnerOf(uint256)": "54c6d1f5",
    "fundingCycleStore()": "557e7155",
    "getApproved(uint256)": "081812fc",
    "getPastTierTotalVotes(uint256,uint256)": "d31cc52c",
    "getPastTierVotes(address,uint256,uint256)": "d40e7146",
    "getTierDelegate(address,uint256)": "82732b6d",
    "getTierTotalVotes(uint256)": "94c5c5ca",
    "getTierVotes(address,uint256)": "ca323efe",
    "initialize(uint256,address,string,string,address,string,address,string,((uint80,uint48,uint40,uint16,uint16,address,uint8,address,bytes32,uint8,bool,bool,bool,bool)[],uint256,uint256,address),address,(bool,bool,bool,bool))": "d1704baf",
    "isApprovedForAll(address,address)": "e985e9c5",
    "mintFor((uint16[],address)[])": "36c1a93b",
    "mintFor(uint16[],address)": "6ac6d941",
    "mintReservesFor((uint256,uint256)[])": "2a596e53",
    "mintReservesFor(uint256,uint256)": "aa4fb15b",
    "name()": "06fdde03",
    "owner()": "8da5cb5b",
    "ownerOf(uint256)": "6352211e",
    "payParams((address,address,(address,uint256,uint256,uint256),uint256,uint256,address,uint256,uint256,string,bytes))": "d46cf171",
    "prices()": "d3419bf3",
    "pricingCurrency()": "64640c1e",
    "pricingDecimals()": "4ecba625",
    "projectId()": "3fafa127",
    "redeemParams((address,address,uint256,uint256,uint256,uint256,uint256,(address,uint256,uint256,uint256),bool,uint256,string,bytes))": "a51cfd18",
    "redemptionWeightOf(uint256[],(address,address,uint256,uint256,uint256,uint256,uint256,(address,uint256,uint256,uint256),bool,uint256,string,bytes))": "7ba62bf9",
    "renounceOwnership()": "715018a6",
    "royaltyInfo(uint256,uint256)": "2a55205a",
    "safeTransferFrom(address,address,uint256)": "42842e0e",
    "safeTransferFrom(address,address,uint256,bytes)": "b88d4fde",
    "setApprovalForAll(address,bool)": "a22cb465",
    "setBaseUri(string)": "a0bcfc7f",
    "setContractUri(string)": "ccb4807b",
    "setDefaultReservedTokenBeneficiary(address)": "df487e26",
    "setTierDelegate(address,uint256)": "ab951e39",
    "setTierDelegates((address,uint256)[])": "c74b13d9",
    "setTokenUriResolver(address)": "2407497e",
    "store()": "975057e7",
    "supportsInterface(bytes4)": "01ffc9a7",
    "symbol()": "95d89b41",
    "tokenURI(uint256)": "c87b56dd",
    "totalRedemptionWeight((address,address,uint256,uint256,uint256,uint256,uint256,(address,uint256,uint256,uint256),bool,uint256,string,bytes))": "9494bf72",
    "transferFrom(address,address,uint256)": "23b872dd",
    "transferOwnership(address)": "f2fde38b"
  },
  "id": 1
}