{"abi":[{"type":"function","name":"MAX_DISCOUNT_RATE","inputs":[],"outputs":[{"name":"","type":"uint256","internalType":"uint256"}],"stateMutability":"view"},{"type":"function","name":"MAX_FEE","inputs":[],"outputs":[{"name":"","type":"uint256","internalType":"uint256"}],"stateMutability":"view"},{"type":"function","name":"MAX_FEE_DISCOUNT","inputs":[],"outputs":[{"name":"","type":"uint256","internalType":"uint256"}],"stateMutability":"view"},{"type":"function","name":"MAX_REDEMPTION_RATE","inputs":[],"outputs":[{"name":"","type":"uint256","internalType":"uint256"}],"stateMutability":"view"},{"type":"function","name":"MAX_RESERVED_RATE","inputs":[],"outputs":[{"name":"","type":"uint256","internalType":"uint256"}],"stateMutability":"view"},{"type":"function","name":"SPLITS_TOTAL_PERCENT","inputs":[],"outputs":[{"name":"","type":"uint256","internalType":"uint256"}],"stateMutability":"view"}],"bytecode":{"object":"0x60c4610039600b82828239805160001a60731461002c57634e487b7160e01b600052600060045260246000fd5b30600052607381538281f3fe730000000000000000000000000000000000000000301460806040526004361060655760003560e01c806319a9f94114606a5780634bb970421460865780635d14fef8146086578063870bc1fd14606a578063bc063e1a14606a578063d3c4fca914606a575b600080fd5b6074633b9aca0081565b60405190815260200160405180910390f35b60746127108156fea2646970667358221220ae545877b43ec2f171af33035de947bd4a2e2a6807f4f7441e3c162d877c775264736f6c63430008170033","linkReferences":{}},"methodIdentifiers":{"MAX_DISCOUNT_RATE()":"870bc1fd","MAX_FEE()":"bc063e1a","MAX_FEE_DISCOUNT()":"19a9f941","MAX_REDEMPTION_RATE()":"4bb97042","MAX_RESERVED_RATE()":"5d14fef8","SPLITS_TOTAL_PERCENT()":"d3c4fca9"},"id":120}