{
  "abi": [
    {
      "inputs": [],
      "name": "PERMISSION_INDEX_OUT_OF_BOUNDS",
      "type": "error"
    },
    {
      "anonymous": false,
      "inputs": [
        {
          "indexed": true,
          "internalType": "address",
          "name": "operator",
          "type": "address"
        },
        {
          "indexed": true,
          "internalType": "address",
          "name": "account",
          "type": "address"
        },
        {
          "indexed": true,
          "internalType": "uint256",
          "name": "domain",
          "type": "uint256"
        },
        {
          "indexed": false,
          "internalType": "uint256[]",
          "name": "permissionIndexes",
          "type": "uint256[]"
        },
        {
          "indexed": false,
          "internalType": "uint256",
          "name": "packed",
          "type": "uint256"
        }
      ],
      "name": "SetOperator",
      "type": "event"
    },
    {
      "inputs": [
        {
          "internalType": "address",
          "name": "_operator",
          "type": "address"
        },
        {
          "internalType": "address",
          "name": "_account",
          "type": "address"
        },
        {
          "internalType": "uint256",
          "name": "_domain",
          "type": "uint256"
        },
        {
          "internalType": "uint256",
          "name": "_permissionIndex",
          "type": "uint256"
        }
      ],
      "name": "hasPermission",
      "outputs": [
        {
          "internalType": "bool",
          "name": "",
          "type": "bool"
        }
      ],
      "stateMutability": "view",
      "type": "function"
    },
    {
      "inputs": [
        {
          "internalType": "address",
          "name": "_operator",
          "type": "address"
        },
        {
          "internalType": "address",
          "name": "_account",
          "type": "address"
        },
        {
          "internalType": "uint256",
          "name": "_domain",
          "type": "uint256"
        },
        {
          "internalType": "uint256[]",
          "name": "_permissionIndexes",
          "type": "uint256[]"
        }
      ],
      "name": "hasPermissions",
      "outputs": [
        {
          "internalType": "bool",
          "name": "",
          "type": "bool"
        }
      ],
      "stateMutability": "view",
      "type": "function"
    },
    {
      "inputs": [
        {
          "internalType": "address",
          "name": "",
          "type": "address"
        },
        {
          "internalType": "address",
          "name": "",
          "type": "address"
        },
        {
          "internalType": "uint256",
          "name": "",
          "type": "uint256"
        }
      ],
      "name": "permissionsOf",
      "outputs": [
        {
          "internalType": "uint256",
          "name": "",
          "type": "uint256"
        }
      ],
      "stateMutability": "view",
      "type": "function"
    },
    {
      "inputs": [
        {
          "components": [
            {
              "internalType": "address",
              "name": "operator",
              "type": "address"
            },
            {
              "internalType": "uint256",
              "name": "domain",
              "type": "uint256"
            },
            {
              "internalType": "uint256[]",
              "name": "permissionIndexes",
              "type": "uint256[]"
            }
          ],
          "internalType": "struct JBOperatorData",
          "name": "_operatorData",
          "type": "tuple"
        }
      ],
      "name": "setOperator",
      "outputs": [],
      "stateMutability": "nonpayable",
      "type": "function"
    },
    {
      "inputs": [
        {
          "components": [
            {
              "internalType": "address",
              "name": "operator",
              "type": "address"
            },
            {
              "internalType": "uint256",
              "name": "domain",
              "type": "uint256"
            },
            {
              "internalType": "uint256[]",
              "name": "permissionIndexes",
              "type": "uint256[]"
            }
          ],
          "internalType": "struct JBOperatorData[]",
          "name": "_operatorData",
          "type": "tuple[]"
        }
      ],
      "name": "setOperators",
      "outputs": [],
      "stateMutability": "nonpayable",
      "type": "function"
    }
  ],
  "bytecode": {
    "object": "0x608060405234801561001057600080fd5b506107cd806100206000396000f3fe608060405234801561001057600080fd5b50600436106100575760003560e01c80630f5932f01461005c578063529cdd2e1461008457806380deb230146100995780638d5f697f146100d7578063c161c93f146100ea575b600080fd5b61006f61006a36600461054d565b6100fd565b60405190151581526020015b60405180910390f35b6100976100923660046105bc565b6101a4565b005b6100c96100a73660046105fe565b6000602081815293815260408082208552928152828120909352825290205481565b60405190815260200161007b565b6100976100e536600461063a565b610269565b61006f6100f836600461067c565b610421565b6000805b8281101561019557600084848381811061011d5761011d6106be565b90506020020135905060ff81111561014857604051638e9503a960e01b815260040160405180910390fd5b6001600160a01b03888116600090815260208181526040808320938b168352928152828220898352905290812054821c600116900361018c5760009250505061019b565b50600101610101565b50600190505b95945050505050565b60006101bb6101b660408401846106d4565b610482565b9050806000806101ce602086018661071e565b6001600160a01b03168152602080820192909252604090810160009081203380835290845282822087850180358085529190955292909120939093559190610216908561071e565b6001600160a01b03167f9dee2ffb464e2d0198cd20321be1ae3f79ed49f7ed4abfaa7ee4fe982bbeb32061024d60408701876106d4565b8660405161025d93929190610739565b60405180910390a45050565b60005b8181101561041c5760006102ab84848481811061028b5761028b6106be565b905060200281019061029d9190610777565b6101b69060408101906106d4565b9050806000808686868181106102c3576102c36106be565b90506020028101906102d59190610777565b6102e390602081019061071e565b6001600160a01b031681526020808201929092526040908101600090812033825290925281209086868681811061031c5761031c6106be565b905060200281019061032e9190610777565b60200135815260200190815260200160002081905550838383818110610356576103566106be565b90506020028101906103689190610777565b602001353385858581811061037f5761037f6106be565b90506020028101906103919190610777565b61039f90602081019061071e565b6001600160a01b03167f9dee2ffb464e2d0198cd20321be1ae3f79ed49f7ed4abfaa7ee4fe982bbeb3208787878181106103db576103db6106be565b90506020028101906103ed9190610777565b6103fb9060408101906106d4565b8660405161040b93929190610739565b60405180910390a45060010161026c565b505050565b600060ff82111561044557604051638e9503a960e01b815260040160405180910390fd5b506001600160a01b03808516600090815260208181526040808320938716835292815282822085835290522054600190821c811614949350505050565b6000805b828110156104de5760008484838181106104a2576104a26106be565b90506020020135905060ff8111156104cd57604051638e9503a960e01b815260040160405180910390fd5b60019081901b929092179101610486565b5092915050565b80356001600160a01b03811681146104fc57600080fd5b919050565b60008083601f84011261051357600080fd5b50813567ffffffffffffffff81111561052b57600080fd5b6020830191508360208260051b850101111561054657600080fd5b9250929050565b60008060008060006080868803121561056557600080fd5b61056e866104e5565b945061057c602087016104e5565b935060408601359250606086013567ffffffffffffffff81111561059f57600080fd5b6105ab88828901610501565b969995985093965092949392505050565b6000602082840312156105ce57600080fd5b813567ffffffffffffffff8111156105e557600080fd5b8201606081850312156105f757600080fd5b9392505050565b60008060006060848603121561061357600080fd5b61061c846104e5565b925061062a602085016104e5565b9150604084013590509250925092565b6000806020838503121561064d57600080fd5b823567ffffffffffffffff81111561066457600080fd5b61067085828601610501565b90969095509350505050565b6000806000806080858703121561069257600080fd5b61069b856104e5565b93506106a9602086016104e5565b93969395505050506040820135916060013590565b634e487b7160e01b600052603260045260246000fd5b6000808335601e198436030181126106eb57600080fd5b83018035915067ffffffffffffffff82111561070657600080fd5b6020019150600581901b360382131561054657600080fd5b60006020828403121561073057600080fd5b6105f7826104e5565b6040808252810183905260006001600160fb1b0384111561075957600080fd5b8360051b808660608501376020830193909352500160600192915050565b60008235605e1983360301811261078d57600080fd5b919091019291505056fea2646970667358221220fedb6222cef350fb1478980c717ffe8d8a4b21d477be9de1aca07b9dd465415464736f6c63430008140033",
    "linkReferences": {}
  },
  "methodIdentifiers": {
    "hasPermission(address,address,uint256,uint256)": "c161c93f",
    "hasPermissions(address,address,uint256,uint256[])": "0f5932f0",
    "permissionsOf(address,address,uint256)": "80deb230",
    "setOperator((address,uint256,uint256[]))": "529cdd2e",
    "setOperators((address,uint256,uint256[])[])": "8d5f697f"
  },
  "id": 63
}