{
  "abi": [
    {
      "inputs": [],
      "name": "PERMISSION_INDEX_OUT_OF_BOUNDS",
      "type": "error"
    },
    {
      "anonymous": false,
      "inputs": [
        {
          "indexed": true,
          "internalType": "address",
          "name": "operator",
          "type": "address"
        },
        {
          "indexed": true,
          "internalType": "address",
          "name": "account",
          "type": "address"
        },
        {
          "indexed": true,
          "internalType": "uint256",
          "name": "domain",
          "type": "uint256"
        },
        {
          "indexed": false,
          "internalType": "uint256[]",
          "name": "permissionIndexes",
          "type": "uint256[]"
        },
        {
          "indexed": false,
          "internalType": "uint256",
          "name": "packed",
          "type": "uint256"
        }
      ],
      "name": "SetOperator",
      "type": "event"
    },
    {
      "inputs": [
        {
          "internalType": "address",
          "name": "_operator",
          "type": "address"
        },
        {
          "internalType": "address",
          "name": "_account",
          "type": "address"
        },
        {
          "internalType": "uint256",
          "name": "_domain",
          "type": "uint256"
        },
        {
          "internalType": "uint256",
          "name": "_permissionIndex",
          "type": "uint256"
        }
      ],
      "name": "hasPermission",
      "outputs": [
        {
          "internalType": "bool",
          "name": "",
          "type": "bool"
        }
      ],
      "stateMutability": "view",
      "type": "function"
    },
    {
      "inputs": [
        {
          "internalType": "address",
          "name": "_operator",
          "type": "address"
        },
        {
          "internalType": "address",
          "name": "_account",
          "type": "address"
        },
        {
          "internalType": "uint256",
          "name": "_domain",
          "type": "uint256"
        },
        {
          "internalType": "uint256[]",
          "name": "_permissionIndexes",
          "type": "uint256[]"
        }
      ],
      "name": "hasPermissions",
      "outputs": [
        {
          "internalType": "bool",
          "name": "",
          "type": "bool"
        }
      ],
      "stateMutability": "view",
      "type": "function"
    },
    {
      "inputs": [
        {
          "internalType": "address",
          "name": "",
          "type": "address"
        },
        {
          "internalType": "address",
          "name": "",
          "type": "address"
        },
        {
          "internalType": "uint256",
          "name": "",
          "type": "uint256"
        }
      ],
      "name": "permissionsOf",
      "outputs": [
        {
          "internalType": "uint256",
          "name": "",
          "type": "uint256"
        }
      ],
      "stateMutability": "view",
      "type": "function"
    },
    {
      "inputs": [
        {
          "components": [
            {
              "internalType": "address",
              "name": "operator",
              "type": "address"
            },
            {
              "internalType": "uint256",
              "name": "domain",
              "type": "uint256"
            },
            {
              "internalType": "uint256[]",
              "name": "permissionIndexes",
              "type": "uint256[]"
            }
          ],
          "internalType": "struct JBOperatorData",
          "name": "_operatorData",
          "type": "tuple"
        }
      ],
      "name": "setOperator",
      "outputs": [],
      "stateMutability": "nonpayable",
      "type": "function"
    },
    {
      "inputs": [
        {
          "components": [
            {
              "internalType": "address",
              "name": "operator",
              "type": "address"
            },
            {
              "internalType": "uint256",
              "name": "domain",
              "type": "uint256"
            },
            {
              "internalType": "uint256[]",
              "name": "permissionIndexes",
              "type": "uint256[]"
            }
          ],
          "internalType": "struct JBOperatorData[]",
          "name": "_operatorData",
          "type": "tuple[]"
        }
      ],
      "name": "setOperators",
      "outputs": [],
      "stateMutability": "nonpayable",
      "type": "function"
    }
  ],
  "bytecode": {
    "object": "0x60808060405234610016576105a7908161001c8239f35b600080fdfe6040608081526004908136101561001557600080fd5b6000803560e01c80630f5932f014610322578063529cdd2e1461025357806380deb230146101fc5780638d5f697f146100d35763c161c93f1461005757600080fd5b346100d05760803660031901126100d057610070610383565b61007861039e565b906064359460ff86116100c257506001600160a01b0390811683526020838152848420919092168352815282822060443583528152908290205491519190921c6001908116148152f35b8451638e9503a960e01b8152fd5b80fd5b5091346101f857602090816003193601126101f45780359067ffffffffffffffff82116101f057610106913691016103b4565b919092845b838110610116578580f35b808561013a61013461012b600195898561050f565b86810190610493565b90610531565b838060a01b039081610155610150868b8761050f565b6104c9565b168a52898752858a20338b528752858a2087610172868b8761050f565b01358b52875280868b20557f9dee2ffb464e2d0198cd20321be1ae3f79ed49f7ed4abfaa7ee4fe982bbeb3206101e76101af610150878c8861050f565b936101d56101cc888d8d6101c483838d61050f565b01359961050f565b8a810190610493565b9290948a5193849333981696846104dd565b0390a40161010b565b8480fd5b8380fd5b8280fd5b50903461024f57606036600319011261024f578060209261021b610383565b61022361039e565b6001600160a01b0391821683528286528383209116825284528181206044358252845220549051908152f35b5080fd5b509190346101f857600319906020368301126101f45782359267ffffffffffffffff84116101f05783606091019284360301126101f4577f9dee2ffb464e2d0198cd20321be1ae3f79ed49f7ed4abfaa7ee4fe982bbeb320604484016102bc6101348286610493565b906001600160a01b039061031c9061030b90836102d8896104c9565b168a5289602052868a20338b526020526024878b2099013598898b5260205284878b2055610305886104c9565b97610493565b9390955193849333981696846104dd565b0390a480f35b50346100d05760803660031901126100d05761033c610383565b9261034561039e565b916064359067ffffffffffffffff82116100d057509161036e6020959261037a943691016103b4565b9290916044359161040b565b90519015158152f35b600435906001600160a01b038216820361039957565b600080fd5b602435906001600160a01b038216820361039957565b9181601f840112156103995782359167ffffffffffffffff8311610399576020808501948460051b01011161039957565b91908110156103f55760051b0190565b634e487b7160e01b600052603260045260246000fd5b91909360005b81811061042357505050505050600190565b61042e8183876103e5565b359060ff8211610481576001600160a01b03858116600090815260208181526040808320938b168352928152828220878352905220546001921c8216156104755701610411565b50505050505050600090565b604051638e9503a960e01b8152600490fd5b903590601e1981360301821215610399570180359067ffffffffffffffff821161039957602001918160051b3603831361039957565b356001600160a01b03811681036103995790565b604080825281018390529392916001600160fb1b0381116103995760209160609160051b809183880137850101930152565b91908110156103f55760051b81013590605e1981360301821215610399570190565b91906000926000915b80831061054657505050565b909291936105558583866103e5565b359060ff821161048157600180921b179401909290919261053a56fea2646970667358221220c69e36ac11e1067dadb211fd65daa3ea5aaa127d2f3d33dcb6348d05fa97500164736f6c63430008110033",
    "linkReferences": {}
  },
  "methodIdentifiers": {
    "hasPermission(address,address,uint256,uint256)": "c161c93f",
    "hasPermissions(address,address,uint256,uint256[])": "0f5932f0",
    "permissionsOf(address,address,uint256)": "80deb230",
    "setOperator((address,uint256,uint256[]))": "529cdd2e",
    "setOperators((address,uint256,uint256[])[])": "8d5f697f"
  },
  "id": 63
}