{
  "abi": [
    {
      "inputs": [
        {
          "internalType": "contract JBTiered721GovernanceDelegate",
          "name": "_onchainGovernance",
          "type": "address"
        },
        {
          "internalType": "contract JBTiered721Delegate",
          "name": "_noGovernance",
          "type": "address"
        },
        {
          "internalType": "contract IJBDelegatesRegistry",
          "name": "_delegatesRegistry",
          "type": "address"
        }
      ],
      "stateMutability": "nonpayable",
      "type": "constructor"
    },
    {
      "inputs": [],
      "name": "INVALID_GOVERNANCE_TYPE",
      "type": "error"
    },
    {
      "anonymous": false,
      "inputs": [
        {
          "indexed": true,
          "internalType": "uint256",
          "name": "projectId",
          "type": "uint256"
        },
        {
          "indexed": false,
          "internalType": "contract IJBTiered721Delegate",
          "name": "newDelegate",
          "type": "address"
        },
        {
          "indexed": false,
          "internalType": "enum JB721GovernanceType",
          "name": "governanceType",
          "type": "uint8"
        },
        {
          "indexed": false,
          "internalType": "contract IJBDirectory",
          "name": "directory",
          "type": "address"
        }
      ],
      "name": "DelegateDeployed",
      "type": "event"
    },
    {
      "inputs": [],
      "name": "delegatesRegistry",
      "outputs": [
        {
          "internalType": "contract IJBDelegatesRegistry",
          "name": "",
          "type": "address"
        }
      ],
      "stateMutability": "view",
      "type": "function"
    },
    {
      "inputs": [
        {
          "internalType": "uint256",
          "name": "_projectId",
          "type": "uint256"
        },
        {
          "components": [
            {
              "internalType": "string",
              "name": "name",
              "type": "string"
            },
            {
              "internalType": "string",
              "name": "symbol",
              "type": "string"
            },
            {
              "internalType": "contract IJBFundingCycleStore",
              "name": "fundingCycleStore",
              "type": "address"
            },
            {
              "internalType": "string",
              "name": "baseUri",
              "type": "string"
            },
            {
              "internalType": "contract IJBTokenUriResolver",
              "name": "tokenUriResolver",
              "type": "address"
            },
            {
              "internalType": "string",
              "name": "contractUri",
              "type": "string"
            },
            {
              "internalType": "address",
              "name": "owner",
              "type": "address"
            },
            {
              "components": [
                {
                  "components": [
                    {
                      "internalType": "uint104",
                      "name": "price",
                      "type": "uint104"
                    },
                    {
                      "internalType": "uint32",
                      "name": "initialQuantity",
                      "type": "uint32"
                    },
                    {
                      "internalType": "uint32",
                      "name": "votingUnits",
                      "type": "uint32"
                    },
                    {
                      "internalType": "uint16",
                      "name": "reservedRate",
                      "type": "uint16"
                    },
                    {
                      "internalType": "address",
                      "name": "reservedTokenBeneficiary",
                      "type": "address"
                    },
                    {
                      "internalType": "bytes32",
                      "name": "encodedIPFSUri",
                      "type": "bytes32"
                    },
                    {
                      "internalType": "uint24",
                      "name": "category",
                      "type": "uint24"
                    },
                    {
                      "internalType": "bool",
                      "name": "allowManualMint",
                      "type": "bool"
                    },
                    {
                      "internalType": "bool",
                      "name": "shouldUseReservedTokenBeneficiaryAsDefault",
                      "type": "bool"
                    },
                    {
                      "internalType": "bool",
                      "name": "transfersPausable",
                      "type": "bool"
                    },
                    {
                      "internalType": "bool",
                      "name": "useVotingUnits",
                      "type": "bool"
                    }
                  ],
                  "internalType": "struct JB721TierParams[]",
                  "name": "tiers",
                  "type": "tuple[]"
                },
                {
                  "internalType": "uint256",
                  "name": "currency",
                  "type": "uint256"
                },
                {
                  "internalType": "uint256",
                  "name": "decimals",
                  "type": "uint256"
                },
                {
                  "internalType": "contract IJBPrices",
                  "name": "prices",
                  "type": "address"
                }
              ],
              "internalType": "struct JB721PricingParams",
              "name": "pricing",
              "type": "tuple"
            },
            {
              "internalType": "address",
              "name": "reservedTokenBeneficiary",
              "type": "address"
            },
            {
              "internalType": "contract IJBTiered721DelegateStore",
              "name": "store",
              "type": "address"
            },
            {
              "components": [
                {
                  "internalType": "bool",
                  "name": "lockReservedTokenChanges",
                  "type": "bool"
                },
                {
                  "internalType": "bool",
                  "name": "lockVotingUnitChanges",
                  "type": "bool"
                },
                {
                  "internalType": "bool",
                  "name": "lockManualMintingChanges",
                  "type": "bool"
                },
                {
                  "internalType": "bool",
                  "name": "preventOverspending",
                  "type": "bool"
                }
              ],
              "internalType": "struct JBTiered721Flags",
              "name": "flags",
              "type": "tuple"
            },
            {
              "internalType": "enum JB721GovernanceType",
              "name": "governanceType",
              "type": "uint8"
            }
          ],
          "internalType": "struct JBDeployTiered721DelegateData",
          "name": "_deployTiered721DelegateData",
          "type": "tuple"
        },
        {
          "internalType": "contract IJBDirectory",
          "name": "_directory",
          "type": "address"
        }
      ],
      "name": "deployDelegateFor",
      "outputs": [
        {
          "internalType": "contract IJBTiered721Delegate",
          "name": "newDelegate",
          "type": "address"
        }
      ],
      "stateMutability": "nonpayable",
      "type": "function"
    },
    {
      "inputs": [],
      "name": "noGovernance",
      "outputs": [
        {
          "internalType": "contract JBTiered721Delegate",
          "name": "",
          "type": "address"
        }
      ],
      "stateMutability": "view",
      "type": "function"
    },
    {
      "inputs": [],
      "name": "onchainGovernance",
      "outputs": [
        {
          "internalType": "contract JBTiered721GovernanceDelegate",
          "name": "",
          "type": "address"
        }
      ],
      "stateMutability": "view",
      "type": "function"
    }
  ],
  "bytecode": {
    "object": "0x60e0346100b657601f610d8438819003918201601f19168301916001600160401b038311848410176100bb578084926060946040528339810103126100b65780516001600160a01b03919082811681036100b65760208201519183831683036100b6576040015192831683036100b65760805260a05260c052604051610cb290816100d282396080518181816108870152610a87015260a0518181816104240152610a44015260c051818181606201526105ff0152f35b600080fd5b634e487b7160e01b600052604160045260246000fdfe608080604052600436101561001357600080fd5b600090813560e01c90816303f3ddbf14610a735750806338b6bcf414610a2e5780633d2d945a146100945763d574ff041461004d57600080fd5b346100915780600319360112610091576040517f00000000000000000000000000000000000000000000000000000000000000006001600160a01b03168152602090f35b80fd5b5034610091576060366003190112610091576001600160401b0360243511610091576101e0602435360360031901126100915760405161018081018181106001600160401b03821117610a1a57604052602435600401356001600160401b03811161070a5761010b90600436916024350101610b1b565b81526024803501356001600160401b03811161070a5761013390600436916024350101610b1b565b6020820152602435604401356001600160a01b038116810361070a576040820152606460243501356001600160401b03811161070a5761017b90600436916024350101610b1b565b6060820152602435608401356001600160a01b0381169003610783576084602435013560808201526001600160401b0360a4602435013511610783576101cc3660243560a481013501600401610b1b565b60a08201526101df60c460243501610b76565b60c08201526001600160401b0360e460243501351161078357608060243560e481013501360360031901126107835760405161021a81610ab6565b60243560e481013501600401356001600160401b038111610a16573660243560e48101350182016023011215610a16576001600160401b0360243560e48101350182016004013511610a02576040519061028860243560e48101350182016004013560051b60200183610afa565b6024803560e4810135018201600481013580855260208501939236610160909202909201909101116109fe576024803560e481013501820101915b6024803560e4810135018301600481013561016002010183106108c65750505081526024803560e48101350190810135602083015260448101356040830152606401356001600160a01b038116900361070a57606460e46024350135602435010135606082015260e082015261033e61010460243501610b76565b61010082015260243561012401356001600160a01b0381169003610783576101246024350135610120820152608061014319602435360301126107835760405161038781610ab6565b61039661014460243501610b9b565b81526103a761016460243501610b9b565b60208201526103bb61018460243501610b9b565b60408201526103cf6101a460243501610b9b565b606082015261014082015260026101c460243501351015610783576024356101c401356101608201526044356001600160a01b0381169003610783576024356101c4013561086b576001600160a01b0361044a7f00000000000000000000000000000000000000000000000000000000000000008216610be8565b16905b8051602082015160408301516060840151608085015160a086015160e08701516101208801516101408901519497919694956001600160a01b039182169592948216939291908116908b163b156108675760405163584a8fb160e01b81526004803590820152604480356001600160a01b031660248301526101c0908201529895978c978a979196909593919291906104eb906101c48a0190610ba8565b8881036003190160648a015261050091610ba8565b9060848801526003198782030160a488015261051b91610ba8565b9060c48601526003198582030160e486015261053691610ba8565b94600319848703016101048501528251926080875260808701845180915260a088019460200190875b8181106107a55750505090849596606083602082969501516020840152604081015160408401528160018060a01b0391015116910152610124850152805115156101448501526020810151151561016485015260408101511515610184850152015115156101a483015203818360018060a01b0388165af1801561079a57610787575b5060c081015183906001600160a01b03168061072d575b505082547f00000000000000000000000000000000000000000000000000000000000000006001600160a01b031690600019811461071957906001859201808355813b1561070a578291604483926040519485938492632de7e90960e11b845230600485015260248401525af1801561070e576106f6575b5050610160015160028110156106e257602092506040519060018060a01b03831682528382015260018060a01b036044351660408201527fdf94a2124c0e7799cd42ca5abaf9ce6628a22214138de0716c14fb34aea8f67f606060043592a26040516001600160a01b039091168152f35b634e487b7160e01b83526021600452602483fd5b6106ff90610ae7565b61070a578238610671565b8280fd5b6040513d84823e3d90fd5b634e487b7160e01b85526011600452602485fd5b6001600160a01b0384163b156107835760405163f2fde38b60e01b815260048101919091528181602481836001600160a01b0389165af1801561070e57156105f95761077890610ae7565b61070a5782386105f9565b5080fd5b61079390939193610ae7565b91386105e2565b6040513d86823e3d90fd5b92949750929550969360206101606001926101408b516cffffffffffffffffffffffffff815116835263ffffffff80868301511686850152604082015116604084015261ffff6060820151166060840152858060a01b03608082015116608084015260a081015160a084015262ffffff60c08201511660c084015260e0810151151560e084015261010081015115156101008401526101208101511515610120840152015115156101408201520198019101908895928c97949298959861055f565b8b80fd5b6024356101c401356001036108b4576001600160a01b036108ad7f00000000000000000000000000000000000000000000000000000000000000008216610be8565b169061044d565b604051637c1d93dd60e01b8152600490fd5b610160833603126109fa5760405190816101608101106001600160401b03610160840111176109e65761016082016040526cffffffffffffffffffffffffff8435168435036109e2578335825261091f60208501610b8a565b602083015261093060408501610b8a565b6040830152606084013561ffff811690036109e2576060840135606083015261095b60808501610b76565b608083015260a0848101359083015260c084013562ffffff811690036109e25760206101609160249360c087013560c082015261099a60e08801610b9b565b60e08201526101006109ad818901610b9b565b908201526101206109bf818901610b9b565b908201526101406109d1818901610b9b565b9082015281520193019290506102c3565b8780fd5b634e487b7160e01b88526041600452602488fd5b8680fd5b8580fd5b634e487b7160e01b84526041600452602484fd5b8380fd5b634e487b7160e01b83526041600452602483fd5b50346100915780600319360112610091576040517f00000000000000000000000000000000000000000000000000000000000000006001600160a01b03168152602090f35b9050346107835781600319360112610783577f00000000000000000000000000000000000000000000000000000000000000006001600160a01b03168152602090f35b608081019081106001600160401b03821117610ad157604052565b634e487b7160e01b600052604160045260246000fd5b6001600160401b038111610ad157604052565b90601f801991011681019081106001600160401b03821117610ad157604052565b81601f82011215610b71578035906001600160401b038211610ad15760405192610b4f601f8401601f191660200185610afa565b82845260208383010111610b7157816000926020809301838601378301015290565b600080fd5b35906001600160a01b0382168203610b7157565b359063ffffffff82168203610b7157565b35908115158203610b7157565b919082519283825260005b848110610bd4575050826000602080949584010152601f8019910116010190565b602081830181015184830182015201610bb3565b6e5af43d82803e903d91602b57fd5bf390763d602d80600a3d3981f3363d3d373d3d3d363d7300000062ffffff8260881c161760005260781b17602052603760096000f0906001600160a01b03821615610c3e57565b60405162461bcd60e51b8152602060048201526016602482015275115490cc4c4d8dce8818dc99585d194819985a5b195960521b6044820152606490fdfea26469706673582212207d3f3666888a43b6cf1faaf9f3fecd9d24db80a33877a9f7cbd299acdd2b3d0264736f6c63430008110033",
    "linkReferences": {}
  },
  "methodIdentifiers": {
    "delegatesRegistry()": "d574ff04",
    "deployDelegateFor(uint256,(string,string,address,string,address,string,address,((uint104,uint32,uint32,uint16,address,bytes32,uint24,bool,bool,bool,bool)[],uint256,uint256,address),address,address,(bool,bool,bool,bool),uint8),address)": "3d2d945a",
    "noGovernance()": "38b6bcf4",
    "onchainGovernance()": "03f3ddbf"
  },
  "id": 1
}