{
  "abi": [
    {
      "inputs": [
        {
          "internalType": "contract JBTiered721GovernanceDelegate",
          "name": "_onchainGovernance",
          "type": "address"
        },
        {
          "internalType": "contract JBTiered721Delegate",
          "name": "_noGovernance",
          "type": "address"
        },
        {
          "internalType": "contract IJBDelegatesRegistry",
          "name": "_delegatesRegistry",
          "type": "address"
        }
      ],
      "stateMutability": "nonpayable",
      "type": "constructor"
    },
    {
      "inputs": [],
      "name": "INVALID_GOVERNANCE_TYPE",
      "type": "error"
    },
    {
      "anonymous": false,
      "inputs": [
        {
          "indexed": true,
          "internalType": "uint256",
          "name": "projectId",
          "type": "uint256"
        },
        {
          "indexed": false,
          "internalType": "contract IJBTiered721Delegate",
          "name": "newDelegate",
          "type": "address"
        },
        {
          "indexed": false,
          "internalType": "enum JB721GovernanceType",
          "name": "governanceType",
          "type": "uint8"
        }
      ],
      "name": "DelegateDeployed",
      "type": "event"
    },
    {
      "inputs": [],
      "name": "delegatesRegistry",
      "outputs": [
        {
          "internalType": "contract IJBDelegatesRegistry",
          "name": "",
          "type": "address"
        }
      ],
      "stateMutability": "view",
      "type": "function"
    },
    {
      "inputs": [
        {
          "internalType": "uint256",
          "name": "_projectId",
          "type": "uint256"
        },
        {
          "components": [
            {
              "internalType": "string",
              "name": "name",
              "type": "string"
            },
            {
              "internalType": "string",
              "name": "symbol",
              "type": "string"
            },
            {
              "internalType": "contract IJBFundingCycleStore",
              "name": "fundingCycleStore",
              "type": "address"
            },
            {
              "internalType": "string",
              "name": "baseUri",
              "type": "string"
            },
            {
              "internalType": "contract IJB721TokenUriResolver",
              "name": "tokenUriResolver",
              "type": "address"
            },
            {
              "internalType": "string",
              "name": "contractUri",
              "type": "string"
            },
            {
              "components": [
                {
                  "components": [
                    {
                      "internalType": "uint104",
                      "name": "price",
                      "type": "uint104"
                    },
                    {
                      "internalType": "uint32",
                      "name": "initialQuantity",
                      "type": "uint32"
                    },
                    {
                      "internalType": "uint32",
                      "name": "votingUnits",
                      "type": "uint32"
                    },
                    {
                      "internalType": "uint16",
                      "name": "reservedRate",
                      "type": "uint16"
                    },
                    {
                      "internalType": "address",
                      "name": "reservedTokenBeneficiary",
                      "type": "address"
                    },
                    {
                      "internalType": "bytes32",
                      "name": "encodedIPFSUri",
                      "type": "bytes32"
                    },
                    {
                      "internalType": "uint24",
                      "name": "category",
                      "type": "uint24"
                    },
                    {
                      "internalType": "bool",
                      "name": "allowManualMint",
                      "type": "bool"
                    },
                    {
                      "internalType": "bool",
                      "name": "shouldUseReservedTokenBeneficiaryAsDefault",
                      "type": "bool"
                    },
                    {
                      "internalType": "bool",
                      "name": "transfersPausable",
                      "type": "bool"
                    },
                    {
                      "internalType": "bool",
                      "name": "useVotingUnits",
                      "type": "bool"
                    }
                  ],
                  "internalType": "struct JB721TierParams[]",
                  "name": "tiers",
                  "type": "tuple[]"
                },
                {
                  "internalType": "uint48",
                  "name": "currency",
                  "type": "uint48"
                },
                {
                  "internalType": "uint48",
                  "name": "decimals",
                  "type": "uint48"
                },
                {
                  "internalType": "contract IJBPrices",
                  "name": "prices",
                  "type": "address"
                }
              ],
              "internalType": "struct JB721PricingParams",
              "name": "pricing",
              "type": "tuple"
            },
            {
              "internalType": "address",
              "name": "reservedTokenBeneficiary",
              "type": "address"
            },
            {
              "internalType": "contract IJBTiered721DelegateStore",
              "name": "store",
              "type": "address"
            },
            {
              "components": [
                {
                  "internalType": "bool",
                  "name": "lockReservedTokenChanges",
                  "type": "bool"
                },
                {
                  "internalType": "bool",
                  "name": "lockVotingUnitChanges",
                  "type": "bool"
                },
                {
                  "internalType": "bool",
                  "name": "lockManualMintingChanges",
                  "type": "bool"
                },
                {
                  "internalType": "bool",
                  "name": "preventOverspending",
                  "type": "bool"
                }
              ],
              "internalType": "struct JBTiered721Flags",
              "name": "flags",
              "type": "tuple"
            },
            {
              "internalType": "enum JB721GovernanceType",
              "name": "governanceType",
              "type": "uint8"
            }
          ],
          "internalType": "struct JBDeployTiered721DelegateData",
          "name": "_deployTiered721DelegateData",
          "type": "tuple"
        }
      ],
      "name": "deployDelegateFor",
      "outputs": [
        {
          "internalType": "contract IJBTiered721Delegate",
          "name": "newDelegate",
          "type": "address"
        }
      ],
      "stateMutability": "nonpayable",
      "type": "function"
    },
    {
      "inputs": [],
      "name": "noGovernance",
      "outputs": [
        {
          "internalType": "contract JBTiered721Delegate",
          "name": "",
          "type": "address"
        }
      ],
      "stateMutability": "view",
      "type": "function"
    },
    {
      "inputs": [],
      "name": "onchainGovernance",
      "outputs": [
        {
          "internalType": "contract JBTiered721GovernanceDelegate",
          "name": "",
          "type": "address"
        }
      ],
      "stateMutability": "view",
      "type": "function"
    }
  ],
  "bytecode": {
    "object": "0x60e060405234801561001057600080fd5b50604051610d1b380380610d1b83398101604081905261002f91610064565b6001600160a01b0392831660805290821660a0521660c0526100b1565b6001600160a01b038116811461006157600080fd5b50565b60008060006060848603121561007957600080fd5b83516100848161004c565b60208501519093506100958161004c565b60408501519092506100a68161004c565b809150509250925092565b60805160a05160c051610c296100f26000396000818160d3015261029501526000818160990152610119015260008181605601526101670152610c296000f3fe608060405234801561001057600080fd5b506004361061004c5760003560e01c806303f3ddbf1461005157806338b6bcf41461009457806370d7f249146100bb578063d574ff04146100ce575b600080fd5b6100787f000000000000000000000000000000000000000000000000000000000000000081565b6040516001600160a01b03909116815260200160405180910390f35b6100787f000000000000000000000000000000000000000000000000000000000000000081565b6100786100c93660046107bd565b6100f5565b6100787f000000000000000000000000000000000000000000000000000000000000000081565b600080826101400151600181111561010f5761010f610936565b036101445761013d7f0000000000000000000000000000000000000000000000000000000000000000610379565b90506101a4565b6001826101400151600181111561015d5761015d610936565b0361018b5761013d7f0000000000000000000000000000000000000000000000000000000000000000610379565b604051637c1d93dd60e01b815260040160405180910390fd5b806001600160a01b031663a1250d7f84846000015185602001518660400151876060015188608001518960a001518a60c001518b61010001518c61012001516040518b63ffffffff1660e01b81526004016102089a99989796959493929190610992565b600060405180830381600087803b15801561022257600080fd5b505af1158015610236573d6000803e3d6000fd5b505060405163f2fde38b60e01b81523360048201526001600160a01b038416925063f2fde38b9150602401600060405180830381600087803b15801561027b57600080fd5b505af115801561028f573d6000803e3d6000fd5b505050507f00000000000000000000000000000000000000000000000000000000000000006001600160a01b0316635bcfd2123060008081546102d190610b91565b91829055506040516001600160e01b031960e085901b1681526001600160a01b0390921660048301526024820152604401600060405180830381600087803b15801561031c57600080fd5b505af1158015610330573d6000803e3d6000fd5b50505050827fa1dcc57d57a99af26e68a9d0181c52742fdf009c0bbe62ed6a635c312b2ec2f58284610140015160405161036b929190610bb8565b60405180910390a292915050565b6000763d602d80600a3d3981f3363d3d373d3d3d363d730000008260601b60e81c176000526e5af43d82803e903d91602b57fd5bf38260781b17602052603760096000f090506001600160a01b0381166104125760405162461bcd60e51b8152602060048201526016602482015275115490cc4c4d8dce8818dc99585d194819985a5b195960521b604482015260640160405180910390fd5b919050565b634e487b7160e01b600052604160045260246000fd5b6040516080810167ffffffffffffffff8111828210171561045057610450610417565b60405290565b604051610160810167ffffffffffffffff8111828210171561045057610450610417565b604051601f8201601f1916810167ffffffffffffffff811182821017156104a3576104a3610417565b604052919050565b600082601f8301126104bc57600080fd5b813567ffffffffffffffff8111156104d6576104d6610417565b6104e9601f8201601f191660200161047a565b8181528460208386010111156104fe57600080fd5b816020850160208301376000918101602001919091529392505050565b80356001600160a01b038116811461041257600080fd5b80356cffffffffffffffffffffffffff8116811461041257600080fd5b803563ffffffff8116811461041257600080fd5b803561ffff8116811461041257600080fd5b803562ffffff8116811461041257600080fd5b8035801515811461041257600080fd5b803565ffffffffffff8116811461041257600080fd5b600060808083850312156105c157600080fd5b6105c961042d565b9150823567ffffffffffffffff808211156105e357600080fd5b818501915085601f8301126105f757600080fd5b813560208282111561060b5761060b610417565b610619818360051b0161047a565b828152818101935061016092830285018201928984111561063957600080fd5b948201945b8386101561071a5780868b0312156106565760008081fd5b61065e610456565b61066787610532565b815261067484880161054f565b84820152604061068581890161054f565b908201526060610696888201610563565b908201526106a587890161051b565b8189015260a0878101359082015260c06106c0818901610575565b9082015260e06106d1888201610588565b908201526101006106e3888201610588565b908201526101206106f5888201610588565b90820152610140610707888201610588565b908201528552948501949382019361063e565b508652610728878201610598565b81870152505050505061073d60408301610598565b604082015261074e6060830161051b565b606082015292915050565b60006080828403121561076b57600080fd5b61077361042d565b905061077e82610588565b815261078c60208301610588565b602082015261079d60408301610588565b604082015261074e60608301610588565b80356002811061041257600080fd5b600080604083850312156107d057600080fd5b82359150602083013567ffffffffffffffff808211156107ef57600080fd5b908401906101c0828703121561080457600080fd5b61080c610456565b82358281111561081b57600080fd5b610827888286016104ab565b82525060208301358281111561083c57600080fd5b610848888286016104ab565b60208301525061085a6040840161051b565b604082015260608301358281111561087157600080fd5b61087d888286016104ab565b60608301525061088f6080840161051b565b608082015260a0830135828111156108a657600080fd5b6108b2888286016104ab565b60a08301525060c0830135828111156108ca57600080fd5b6108d6888286016105ae565b60c0830152506108e860e0840161051b565b60e082015261010091506108fd82840161051b565b82820152610120915061091287838501610759565b828201526109236101a084016107ae565b6101408201528093505050509250929050565b634e487b7160e01b600052602160045260246000fd5b6000815180845260005b8181101561097257602081850181015186830182015201610956565b506000602082860101526020601f19601f83011685010191505092915050565b60006101a08c8352602081818501526109ad8285018e61094c565b915083820360408501526109c1828d61094c565b9150606060018060a01b03808d16828701526080868503818801526109e6858e61094c565b945060a0828d168189015260c0925087860383890152610a06868d61094c565b955060e0888703818a01528287018c51848952818151808452858b0191508983019350600092505b80831015610aed57835180516cffffffffffffffffffffffffff168352808b015163ffffffff8116848d0152506040810151610a72604085018263ffffffff169052565b508981015161ffff16838b0152878101516001600160a01b03168884015286810151878401528881015162ffffff168984015285810151151586840152610100808201511515908401526101208082015115159084015261014090810151151590830152928901926001929092019161016090910190610a2e565b508e89015165ffffffffffff81168b8b0152965060408f01519850610b1c60408b018a65ffffffffffff169052565b8e8801516001600160a01b0381168b8a015298506001600160a01b038e166101008d01529950610b5198505050505050505050565b825115156101208301526020830151151561014083015260408301511515610160830152606083015115156101808301529b9a5050505050505050505050565b600060018201610bb157634e487b7160e01b600052601160045260246000fd5b5060010190565b6001600160a01b03831681526040810160028310610be657634e487b7160e01b600052602160045260246000fd5b826020830152939250505056fea26469706673582212202a1435c75b11d7c90a0bc6d426698b6f8e02b598b1c3d89a8b96b5d3f588ed2364736f6c63430008150033",
    "linkReferences": {}
  },
  "methodIdentifiers": {
    "delegatesRegistry()": "d574ff04",
    "deployDelegateFor(uint256,(string,string,address,string,address,string,((uint104,uint32,uint32,uint16,address,bytes32,uint24,bool,bool,bool,bool)[],uint48,uint48,address),address,address,(bool,bool,bool,bool),uint8))": "70d7f249",
    "noGovernance()": "38b6bcf4",
    "onchainGovernance()": "03f3ddbf"
  },
  "id": 1
}