{
  "abi": [
    {
      "inputs": [
        {
          "internalType": "contract JB721GlobalGovernance",
          "name": "_globalGovernance",
          "type": "address"
        },
        {
          "internalType": "contract JB721TieredGovernance",
          "name": "_tieredGovernance",
          "type": "address"
        },
        {
          "internalType": "contract JBTiered721Delegate",
          "name": "_noGovernance",
          "type": "address"
        },
        {
          "internalType": "contract IJBDelegatesRegistry",
          "name": "_delegatesRegistry",
          "type": "address"
        }
      ],
      "stateMutability": "nonpayable",
      "type": "constructor"
    },
    {
      "inputs": [],
      "name": "INVALID_GOVERNANCE_TYPE",
      "type": "error"
    },
    {
      "anonymous": false,
      "inputs": [
        {
          "indexed": true,
          "internalType": "uint256",
          "name": "projectId",
          "type": "uint256"
        },
        {
          "indexed": false,
          "internalType": "contract IJBTiered721Delegate",
          "name": "newDelegate",
          "type": "address"
        },
        {
          "indexed": false,
          "internalType": "enum JB721GovernanceType",
          "name": "governanceType",
          "type": "uint8"
        },
        {
          "indexed": false,
          "internalType": "contract IJBDirectory",
          "name": "directory",
          "type": "address"
        }
      ],
      "name": "DelegateDeployed",
      "type": "event"
    },
    {
      "inputs": [],
      "name": "delegatesRegistry",
      "outputs": [
        {
          "internalType": "contract IJBDelegatesRegistry",
          "name": "",
          "type": "address"
        }
      ],
      "stateMutability": "view",
      "type": "function"
    },
    {
      "inputs": [
        {
          "internalType": "uint256",
          "name": "_projectId",
          "type": "uint256"
        },
        {
          "components": [
            {
              "internalType": "string",
              "name": "name",
              "type": "string"
            },
            {
              "internalType": "string",
              "name": "symbol",
              "type": "string"
            },
            {
              "internalType": "contract IJBFundingCycleStore",
              "name": "fundingCycleStore",
              "type": "address"
            },
            {
              "internalType": "string",
              "name": "baseUri",
              "type": "string"
            },
            {
              "internalType": "contract IJBTokenUriResolver",
              "name": "tokenUriResolver",
              "type": "address"
            },
            {
              "internalType": "string",
              "name": "contractUri",
              "type": "string"
            },
            {
              "internalType": "address",
              "name": "owner",
              "type": "address"
            },
            {
              "components": [
                {
                  "components": [
                    {
                      "internalType": "uint80",
                      "name": "contributionFloor",
                      "type": "uint80"
                    },
                    {
                      "internalType": "uint48",
                      "name": "lockedUntil",
                      "type": "uint48"
                    },
                    {
                      "internalType": "uint40",
                      "name": "initialQuantity",
                      "type": "uint40"
                    },
                    {
                      "internalType": "uint16",
                      "name": "votingUnits",
                      "type": "uint16"
                    },
                    {
                      "internalType": "uint16",
                      "name": "reservedRate",
                      "type": "uint16"
                    },
                    {
                      "internalType": "address",
                      "name": "reservedTokenBeneficiary",
                      "type": "address"
                    },
                    {
                      "internalType": "uint8",
                      "name": "royaltyRate",
                      "type": "uint8"
                    },
                    {
                      "internalType": "address",
                      "name": "royaltyBeneficiary",
                      "type": "address"
                    },
                    {
                      "internalType": "bytes32",
                      "name": "encodedIPFSUri",
                      "type": "bytes32"
                    },
                    {
                      "internalType": "uint8",
                      "name": "category",
                      "type": "uint8"
                    },
                    {
                      "internalType": "bool",
                      "name": "allowManualMint",
                      "type": "bool"
                    },
                    {
                      "internalType": "bool",
                      "name": "shouldUseReservedTokenBeneficiaryAsDefault",
                      "type": "bool"
                    },
                    {
                      "internalType": "bool",
                      "name": "shouldUseRoyaltyBeneficiaryAsDefault",
                      "type": "bool"
                    },
                    {
                      "internalType": "bool",
                      "name": "transfersPausable",
                      "type": "bool"
                    }
                  ],
                  "internalType": "struct JB721TierParams[]",
                  "name": "tiers",
                  "type": "tuple[]"
                },
                {
                  "internalType": "uint256",
                  "name": "currency",
                  "type": "uint256"
                },
                {
                  "internalType": "uint256",
                  "name": "decimals",
                  "type": "uint256"
                },
                {
                  "internalType": "contract IJBPrices",
                  "name": "prices",
                  "type": "address"
                }
              ],
              "internalType": "struct JB721PricingParams",
              "name": "pricing",
              "type": "tuple"
            },
            {
              "internalType": "address",
              "name": "reservedTokenBeneficiary",
              "type": "address"
            },
            {
              "internalType": "contract IJBTiered721DelegateStore",
              "name": "store",
              "type": "address"
            },
            {
              "components": [
                {
                  "internalType": "bool",
                  "name": "lockReservedTokenChanges",
                  "type": "bool"
                },
                {
                  "internalType": "bool",
                  "name": "lockVotingUnitChanges",
                  "type": "bool"
                },
                {
                  "internalType": "bool",
                  "name": "lockManualMintingChanges",
                  "type": "bool"
                },
                {
                  "internalType": "bool",
                  "name": "preventOverspending",
                  "type": "bool"
                }
              ],
              "internalType": "struct JBTiered721Flags",
              "name": "flags",
              "type": "tuple"
            },
            {
              "internalType": "enum JB721GovernanceType",
              "name": "governanceType",
              "type": "uint8"
            }
          ],
          "internalType": "struct JBDeployTiered721DelegateData",
          "name": "_deployTiered721DelegateData",
          "type": "tuple"
        },
        {
          "internalType": "contract IJBDirectory",
          "name": "_directory",
          "type": "address"
        }
      ],
      "name": "deployDelegateFor",
      "outputs": [
        {
          "internalType": "contract IJBTiered721Delegate",
          "name": "newDelegate",
          "type": "address"
        }
      ],
      "stateMutability": "nonpayable",
      "type": "function"
    },
    {
      "inputs": [],
      "name": "globalGovernance",
      "outputs": [
        {
          "internalType": "contract JB721GlobalGovernance",
          "name": "",
          "type": "address"
        }
      ],
      "stateMutability": "view",
      "type": "function"
    },
    {
      "inputs": [],
      "name": "noGovernance",
      "outputs": [
        {
          "internalType": "contract JBTiered721Delegate",
          "name": "",
          "type": "address"
        }
      ],
      "stateMutability": "view",
      "type": "function"
    },
    {
      "inputs": [],
      "name": "tieredGovernance",
      "outputs": [
        {
          "internalType": "contract JB721TieredGovernance",
          "name": "",
          "type": "address"
        }
      ],
      "stateMutability": "view",
      "type": "function"
    }
  ],
  "bytecode": {
    "object": "0x61010060405234801561001157600080fd5b50604051610e7f380380610e7f8339810160408190526100309161006a565b6001600160a01b0393841660805291831660a052821660c0521660e0526100c9565b6001600160a01b038116811461006757600080fd5b50565b6000806000806080858703121561008057600080fd5b845161008b81610052565b602086015190945061009c81610052565b60408601519093506100ad81610052565b60608601519092506100be81610052565b939692955090935050565b60805160a05160c05160e051610d6561011a6000396000818160cb01526103270152600081816061015261014601526000818160a4015261019401526000818160f201526101db0152610d656000f3fe608060405234801561001057600080fd5b50600436106100575760003560e01c806338b6bcf41461005c5780637dd6a4511461009f578063d574ff04146100c6578063d5fe3d2b146100ed578063e12284b414610114575b600080fd5b6100837f000000000000000000000000000000000000000000000000000000000000000081565b6040516001600160a01b03909116815260200160405180910390f35b6100837f000000000000000000000000000000000000000000000000000000000000000081565b6100837f000000000000000000000000000000000000000000000000000000000000000081565b6100837f000000000000000000000000000000000000000000000000000000000000000081565b610083610122366004610899565b600080836101600151600281111561013c5761013c610a35565b036101715761016a7f000000000000000000000000000000000000000000000000000000000000000061040e565b9050610218565b6001836101600151600281111561018a5761018a610a35565b036101b85761016a7f000000000000000000000000000000000000000000000000000000000000000061040e565b600283610160015160028111156101d1576101d1610a35565b036101ff5761016a7f000000000000000000000000000000000000000000000000000000000000000061040e565b604051637c1d93dd60e01b815260040160405180910390fd5b806001600160a01b031663d1704baf858486600001518760200151886040015189606001518a608001518b60a001518c60e001518d61012001518e61014001516040518c63ffffffff1660e01b815260040161027e9b9a99989796959493929190610bda565b600060405180830381600087803b15801561029857600080fd5b505af11580156102ac573d6000803e3d6000fd5b5050505060c08301516001600160a01b0316156103255760c083015160405163f2fde38b60e01b81526001600160a01b0391821660048201529082169063f2fde38b90602401600060405180830381600087803b15801561030c57600080fd5b505af1158015610320573d6000803e3d6000fd5b505050505b7f00000000000000000000000000000000000000000000000000000000000000006001600160a01b0316635bcfd21230600080815461036390610cc1565b91829055506040516001600160e01b031960e085901b1681526001600160a01b0390921660048301526024820152604401600060405180830381600087803b1580156103ae57600080fd5b505af11580156103c2573d6000803e3d6000fd5b50505050837fdf94a2124c0e7799cd42ca5abaf9ce6628a22214138de0716c14fb34aea8f67f82856101600151856040516103ff93929190610ce8565b60405180910390a29392505050565b6000763d602d80600a3d3981f3363d3d373d3d3d363d730000008260601b60e81c176000526e5af43d82803e903d91602b57fd5bf38260781b17602052603760096000f090506001600160a01b0381166104a75760405162461bcd60e51b8152602060048201526016602482015275115490cc4c4d8dce8818dc99585d194819985a5b195960521b604482015260640160405180910390fd5b919050565b634e487b7160e01b600052604160045260246000fd5b6040516080810167ffffffffffffffff811182821017156104e5576104e56104ac565b60405290565b6040516101c0810167ffffffffffffffff811182821017156104e5576104e56104ac565b604051610180810167ffffffffffffffff811182821017156104e5576104e56104ac565b604051601f8201601f1916810167ffffffffffffffff8111828210171561055c5761055c6104ac565b604052919050565b600082601f83011261057557600080fd5b813567ffffffffffffffff81111561058f5761058f6104ac565b6105a2601f8201601f1916602001610533565b8181528460208386010111156105b757600080fd5b816020850160208301376000918101602001919091529392505050565b80356001600160a01b03811681146104a757600080fd5b803569ffffffffffffffffffff811681146104a757600080fd5b803565ffffffffffff811681146104a757600080fd5b803564ffffffffff811681146104a757600080fd5b803561ffff811681146104a757600080fd5b803560ff811681146104a757600080fd5b803580151581146104a757600080fd5b6000608080838503121561067657600080fd5b61067e6104c2565b9150823567ffffffffffffffff8082111561069857600080fd5b818501915085601f8301126106ac57600080fd5b81356020828211156106c0576106c06104ac565b6106ce818360051b01610533565b82815281810193506101c09283028501820192898411156106ee57600080fd5b948201945b838610156108055780868b03121561070b5760008081fd5b6107136104eb565b61071c876105eb565b8152610729848801610605565b84820152604061073a81890161061b565b90820152606061074b888201610630565b9082015261075a878901610630565b8882015260a061076b8189016105d4565b9082015260c061077c888201610642565b9082015260e061078d8882016105d4565b9082015261010087810135908201526101206107aa818901610642565b908201526101406107bc888201610653565b908201526101606107ce888201610653565b908201526101806107e0888201610653565b908201526101a06107f2888201610653565b90820152855294850194938201936106f3565b5086528681013590860152505050506040808301359082015261082a606083016105d4565b606082015292915050565b60006080828403121561084757600080fd5b61084f6104c2565b905061085a82610653565b815261086860208301610653565b602082015261087960408301610653565b604082015261082a60608301610653565b8035600381106104a757600080fd5b6000806000606084860312156108ae57600080fd5b83359250602084013567ffffffffffffffff808211156108cd57600080fd5b908501906101e082880312156108e257600080fd5b6108ea61050f565b8235828111156108f957600080fd5b61090589828601610564565b82525060208301358281111561091a57600080fd5b61092689828601610564565b602083015250610938604084016105d4565b604082015260608301358281111561094f57600080fd5b61095b89828601610564565b60608301525061096d608084016105d4565b608082015260a08301358281111561098457600080fd5b61099089828601610564565b60a0830152506109a260c084016105d4565b60c082015260e0830135828111156109b957600080fd5b6109c589828601610663565b60e08301525061010091506109db8284016105d4565b8282015261012091506109ef8284016105d4565b828201526101409150610a0488838501610835565b82820152610a156101c0840161088a565b6101608201529350610a2c915050604085016105d4565b90509250925092565b634e487b7160e01b600052602160045260246000fd5b6000815180845260005b81811015610a7157602081850181015186830182015201610a55565b506000602082860101526020601f19601f83011685010191505092915050565b80516080808452815184820181905260009260a0916020918201918388019190865b82811015610b9f578451805169ffffffffffffffffffff1685528281015165ffffffffffff168386015260408082015164ffffffffff169086015260608082015161ffff90811691870191909152888201511688860152868101516001600160a01b039081168887015260c08083015160ff9081169188019190915260e08084015190921691870191909152610100808301519087015261012080830151909116908601526101408082015115159086015261016080820151151590860152610180808201511515908601526101a090810151151590850152938101936101c090930192600101610ab3565b5080880151818a015250506040860151604088015260608601519350610bd060608801856001600160a01b03169052565b9695505050505050565b8b81526001600160a01b038b811660208301526101c060408301819052600091610c068483018e610a4b565b91508382036060850152610c1a828d610a4b565b9150808b16608085015283820360a0850152610c36828b610a4b565b90891660c085015283810360e08501529050610c528188610a4b565b9050828103610100840152610c678187610a91565b915050610c806101208301856001600160a01b03169052565b825115156101408301526020830151151561016083015260408301511515610180830152606083015115156101a08301529c9b505050505050505050505050565b600060018201610ce157634e487b7160e01b600052601160045260246000fd5b5060010190565b6001600160a01b038481168252606082019060038510610d1857634e487b7160e01b600052602160045260246000fd5b84602084015280841660408401525094935050505056fea2646970667358221220d4fa998e921364416d1ace93bf9287e9a41ecf361fa244af3aa4cd97e5cfb2d064736f6c63430008120033",
    "linkReferences": {}
  },
  "methodIdentifiers": {
    "delegatesRegistry()": "d574ff04",
    "deployDelegateFor(uint256,(string,string,address,string,address,string,address,((uint80,uint48,uint40,uint16,uint16,address,uint8,address,bytes32,uint8,bool,bool,bool,bool)[],uint256,uint256,address),address,address,(bool,bool,bool,bool),uint8),address)": "e12284b4",
    "globalGovernance()": "d5fe3d2b",
    "noGovernance()": "38b6bcf4",
    "tieredGovernance()": "7dd6a451"
  },
  "id": 3
}