{
  "abi": [
    {
      "inputs": [],
      "stateMutability": "nonpayable",
      "type": "constructor"
    },
    {
      "anonymous": false,
      "inputs": [
        {
          "indexed": true,
          "internalType": "uint256",
          "name": "projectId",
          "type": "uint256"
        },
        {
          "indexed": false,
          "internalType": "contract IJBTiered721Delegate",
          "name": "newDelegate",
          "type": "address"
        }
      ],
      "name": "DelegateDeployed",
      "type": "event"
    },
    {
      "inputs": [
        {
          "internalType": "uint256",
          "name": "_projectId",
          "type": "uint256"
        },
        {
          "components": [
            {
              "internalType": "contract IJBDirectory",
              "name": "directory",
              "type": "address"
            },
            {
              "internalType": "string",
              "name": "name",
              "type": "string"
            },
            {
              "internalType": "string",
              "name": "symbol",
              "type": "string"
            },
            {
              "internalType": "string",
              "name": "baseUri",
              "type": "string"
            },
            {
              "internalType": "contract IJBTokenUriResolver",
              "name": "tokenUriResolver",
              "type": "address"
            },
            {
              "internalType": "string",
              "name": "contractUri",
              "type": "string"
            },
            {
              "internalType": "address",
              "name": "owner",
              "type": "address"
            },
            {
              "components": [
                {
                  "internalType": "uint256",
                  "name": "contributionFloor",
                  "type": "uint256"
                },
                {
                  "internalType": "uint256",
                  "name": "lockedUntil",
                  "type": "uint256"
                },
                {
                  "internalType": "uint256",
                  "name": "initialQuantity",
                  "type": "uint256"
                },
                {
                  "internalType": "uint256",
                  "name": "votingUnits",
                  "type": "uint256"
                },
                {
                  "internalType": "uint256",
                  "name": "reservedRate",
                  "type": "uint256"
                },
                {
                  "internalType": "address",
                  "name": "reservedTokenBeneficiary",
                  "type": "address"
                },
                {
                  "internalType": "bytes32",
                  "name": "encodedIPFSUri",
                  "type": "bytes32"
                },
                {
                  "internalType": "bool",
                  "name": "shouldUseBeneficiaryAsDefault",
                  "type": "bool"
                }
              ],
              "internalType": "struct JB721TierParams[]",
              "name": "tiers",
              "type": "tuple[]"
            },
            {
              "internalType": "address",
              "name": "reservedTokenBeneficiary",
              "type": "address"
            },
            {
              "internalType": "contract IJBTiered721DelegateStore",
              "name": "store",
              "type": "address"
            },
            {
              "internalType": "bool",
              "name": "lockReservedTokenChanges",
              "type": "bool"
            },
            {
              "internalType": "bool",
              "name": "lockVotingUnitChanges",
              "type": "bool"
            }
          ],
          "internalType": "struct JBDeployTiered721DelegateData",
          "name": "_deployTiered721DelegateData",
          "type": "tuple"
        }
      ],
      "name": "deployDelegateFor",
      "outputs": [
        {
          "internalType": "contract IJBTiered721Delegate",
          "name": "",
          "type": "address"
        }
      ],
      "stateMutability": "nonpayable",
      "type": "function"
    }
  ],
  "bytecode": {
    "object": "0x608060405234801561001057600080fd5b50615c1b806100206000396000f3fe60806040523480156200001157600080fd5b50600436106200002e5760003560e01c80630a2125621462000033575b600080fd5b6200004a6200004436600462000352565b62000066565b6040516001600160a01b03909116815260200160405180910390f35b60008083836000015184602001518560400151866060015187608001518860a001518960e001518a61012001518b61014001518c6101600151604051620000ad90620001a1565b620000c39b9a9998979695949392919062000551565b604051809103906000f080158015620000e0573d6000803e3d6000fd5b5060c08401519091506001600160a01b0316156200015c5760c083015160405163f2fde38b60e01b81526001600160a01b0391821660048201529082169063f2fde38b90602401600060405180830381600087803b1580156200014257600080fd5b505af115801562000157573d6000803e3d6000fd5b505050505b6040516001600160a01b038216815284907f56aebd85b73f8febafa588d2cb31bc947e70c7e03db0610eb351258d06a44bdd9060200160405180910390a29392505050565b6154a0806200074683390190565b8035620001bc816200072c565b919050565b600082601f830112620001d357600080fd5b8135602067ffffffffffffffff821115620001f257620001f262000716565b62000202818360051b01620006e2565b80838252828201915082860187848660081b89010111156200022357600080fd5b6000805b86811015620002bc5761010080848c03121562000242578283fd5b6200024c6200068e565b84358152878501358882015260408086013590820152606080860135908201526080808601359082015260a08086013562000287816200072c565b9082015260c0858101359082015260e0620002a4818701620002ca565b90820152865294860194929092019160010162000227565b509198975050505050505050565b80358015158114620001bc57600080fd5b600082601f830112620002ed57600080fd5b813567ffffffffffffffff8111156200030a576200030a62000716565b6200031f601f8201601f1916602001620006e2565b8181528460208386010111156200033557600080fd5b816020850160208301376000918101602001919091529392505050565b600080604083850312156200036657600080fd5b82359150602083013567ffffffffffffffff808211156200038657600080fd5b9084019061018082870312156200039c57600080fd5b620003a6620006bb565b620003b183620001af565b8152602083013582811115620003c657600080fd5b620003d488828601620002db565b602083015250604083013582811115620003ed57600080fd5b620003fb88828601620002db565b6040830152506060830135828111156200041457600080fd5b6200042288828601620002db565b6060830152506200043660808401620001af565b608082015260a0830135828111156200044e57600080fd5b6200045c88828601620002db565b60a0830152506200047060c08401620001af565b60c082015260e0830135828111156200048857600080fd5b6200049688828601620001c1565b60e0830152506101009150620004ae828401620001af565b828201526101209150620004c4828401620001af565b828201526101409150620004da828401620002ca565b828201526101609150620004f0828401620002ca565b828201528093505050509250929050565b6000815180845260005b8181101562000529576020818501810151868301820152016200050b565b818111156200053c576000602083870101525b50601f01601f19169290920160200192915050565b60006101608d8352602060018060a01b03808f16828601528260408601526200057d8386018f62000501565b9250848303606086015262000593838e62000501565b92508483036080860152620005a9838d62000501565b9250808b1660a086015284830360c0860152620005c7838b62000501565b85810360e08701528951808252838b0194509083019060005b81811015620006505785518051845285810151868501526040810151604085015260608101516060850152608081015160808501528460a08201511660a085015260c081015160c085015260e0810151151560e085015250610100830192508486019550600181019050620005e0565b50506001600160a01b03891661010087015293506200066e92505050565b921515610120820152901515610140909101529998505050505050505050565b604051610100810167ffffffffffffffff81118282101715620006b557620006b562000716565b60405290565b604051610180810167ffffffffffffffff81118282101715620006b557620006b562000716565b604051601f8201601f1916810167ffffffffffffffff811182821017156200070e576200070e62000716565b604052919050565b634e487b7160e01b600052604160045260246000fd5b6001600160a01b03811681146200074257600080fd5b5056fe6101c06040526deeee0000000000000000000000006101a0523480156200002557600080fd5b50604051620054a0380380620054a0833981016040819052620000489162000754565b88604051806040016040528060018152602001603160f81b8152508c8c8c8c818181600090805190602001906200008192919062000484565b5080516200009790600190602084019062000484565b5050506080939093525060601b6001600160601b03191660a0525081516020808401919091208251918301919091206101208290526101408190524660e0527f8b73c3c69bb8fe3d512ecc4cf759cc79239f7b179b0ffacaa9a75d522b39400f620001478184846040805160208101859052908101839052606081018290524660808201523060a082015260009060c0016040516020818303038152906040528051906020012090509392505050565b60c0523060601b6101005261016052506200016e9250620001689150503390565b62000432565b6001600160601b0319606084901b1661018052865115620001ec576040516331315e5960e11b81526001600160a01b03841690636262bcb290620001b7908a9060040162000957565b600060405180830381600087803b158015620001d257600080fd5b505af1158015620001e7573d6000803e3d6000fd5b505050505b845115620002575760405163d67b78fd60e01b81526001600160a01b0384169063d67b78fd906200022290889060040162000957565b600060405180830381600087803b1580156200023d57600080fd5b505af115801562000252573d6000803e3d6000fd5b505050505b6001600160a01b03861615620002c55760405163036129cb60e61b81526001600160a01b03878116600483015284169063d84a72c090602401600060405180830381600087803b158015620002ab57600080fd5b505af1158015620002c0573d6000803e3d6000fd5b505050505b83511562000357576040516309d865d560e21b81526001600160a01b03841690632761975490620002fb908790600401620008bd565b600060405180830381600087803b1580156200031657600080fd5b505af11580156200032b573d6000803e3d6000fd5b505050506040513d6000823e601f3d908101601f19168201604052620003559190810190620006b4565b505b8115620003bc576040516303e6ca0360e11b815282151560048201526001600160a01b038416906307cd940690602401600060405180830381600087803b158015620003a257600080fd5b505af1158015620003b7573d6000803e3d6000fd5b505050505b80156200042157604051631877d7b160e01b815281151560048201526001600160a01b03841690631877d7b190602401600060405180830381600087803b1580156200040757600080fd5b505af11580156200041c573d6000803e3d6000fd5b505050505b505050505050505050505062000ab0565b600980546001600160a01b038381166001600160a01b0319831681179093556040519116919082907f8be0079c531659141344cd1fd0a4f28419497f9722a3daafe3b4186f6b6457e090600090a35050565b828054620004929062000a44565b90600052602060002090601f016020900481019282620004b6576000855562000501565b82601f10620004d157805160ff191683800117855562000501565b8280016001018555821562000501579182015b8281111562000501578251825591602001919060010190620004e4565b506200050f92915062000513565b5090565b5b808211156200050f576000815560010162000514565b600082601f8301126200053c57600080fd5b81516020620005556200054f83620009eb565b620009b8565b80838252828201915082860187848660081b89010111156200057657600080fd5b6000805b868110156200060f5761010080848c03121562000595578283fd5b6200059f6200098c565b84518152878501518882015260408086015190820152606080860151908201526080808601519082015260a080860151620005da8162000a97565b9082015260c0858101519082015260e0620005f78187016200061d565b9082015286529486019492909201916001016200057a565b509198975050505050505050565b805180151581146200062e57600080fd5b919050565b80516200062e8162000a97565b600082601f8301126200065257600080fd5b81516001600160401b038111156200066e576200066e62000a81565b62000683601f8201601f1916602001620009b8565b8181528460208386010111156200069957600080fd5b620006ac82602083016020870162000a11565b949350505050565b60006020808385031215620006c857600080fd5b82516001600160401b03811115620006df57600080fd5b8301601f81018513620006f157600080fd5b8051620007026200054f82620009eb565b80828252848201915084840188868560051b87010111156200072357600080fd5b600094505b838510156200074857805183526001949094019391850191850162000728565b50979650505050505050565b60008060008060008060008060008060006101608c8e0312156200077757600080fd5b8b519a506200078960208d0162000633565b60408d0151909a506001600160401b03811115620007a657600080fd5b620007b48e828f0162000640565b60608e0151909a5090506001600160401b03811115620007d357600080fd5b620007e18e828f0162000640565b60808e015190995090506001600160401b038111156200080057600080fd5b6200080e8e828f0162000640565b9750506200081f60a08d0162000633565b60c08d01519096506001600160401b038111156200083c57600080fd5b6200084a8e828f0162000640565b60e08e015190965090506001600160401b038111156200086957600080fd5b620008778e828f016200052a565b945050620008896101008d0162000633565b92506200089a6101208d016200061d565b9150620008ab6101408d016200061d565b90509295989b509295989b9093969950565b602080825282518282018190526000919060409081850190868401855b828110156200094a5781518051855286810151878601528581015186860152606080820151908601526080808201519086015260a0808201516001600160a01b03169086015260c0808201519086015260e0908101511515908501526101009093019290850190600101620008da565b5091979650505050505050565b60208152600082518060208401526200097881604085016020870162000a11565b601f01601f19169190910160400192915050565b60405161010081016001600160401b0381118282101715620009b257620009b262000a81565b60405290565b604051601f8201601f191681016001600160401b0381118282101715620009e357620009e362000a81565b604052919050565b60006001600160401b0382111562000a075762000a0762000a81565b5060051b60200190565b60005b8381101562000a2e57818101518382015260200162000a14565b8381111562000a3e576000848401525b50505050565b600181811c9082168062000a5957607f821691505b6020821081141562000a7b57634e487b7160e01b600052602260045260246000fd5b50919050565b634e487b7160e01b600052604160045260246000fd5b6001600160a01b038116811462000aad57600080fd5b50565b60805160a05160601c60c05160e0516101005160601c6101205161014051610160516101805160601c6101a05160601c61488f62000c11600039600081816103c0015261205e01526000818161051101528181610a5201528181610c8301528181610d99015281816110af015281816111dd015281816112d1015281816113ac0152818161145e015281816116b4015281816117fc01528181611896015281816119ac01528181611b5901528181611c08015281816124c60152818161251501528181612a0601528181612ab601528181612b2d01528181612be401528181612c7c01528181612de601528181612f5901526130f60152600061223c0152600061228b01526000612266015260006121bf015260006121e9015260006122130152600081816105d0015281816108ac0152610b2b015260008181610386015281816108800152818161093701528181610aff0152610bb6015261488f6000f3fe608060405234801561001057600080fd5b506004361061028a5760003560e01c80638e539e8c1161015c578063c3cda520116100ce578063d40e714611610087578063d40e71461461063e578063d46cf17114610651578063df487e2614610664578063e8a3d48514610677578063e985e9c51461067f578063f2fde38b146106bb57600080fd5b8063c3cda520146105b8578063c41c2f24146105cb578063c87b56dd146105f2578063ca323efe14610605578063ccb4807b14610618578063d31cc52c1461062b57600080fd5b80639d927a50116101205780639d927a5014610546578063a0bcfc7f14610559578063a22cb4651461056c578063aa4fb15b1461057f578063ab951e3914610592578063b88d4fde146105a557600080fd5b80638e539e8c146104de57806394c5c5ca146104f157806395d89b4114610504578063975057e71461050c5780639ab24eb01461053357600080fd5b806342842e0e1161020057806370a08231116101b957806370a0823114610447578063715018a61461045a5780637ecebe001461046257806382732b6d146104755780638da5cb5b146104ab5780638dfc9598146104bc57600080fd5b806342842e0e146103a85780634bedf9a8146103bb57806354c6d1f5146103e2578063587cde1e146103f55780635c19a95c146104215780636352211e1461043457600080fd5b80632400e8f7116102525780632400e8f71461031f5780632407497e14610332578063304b1eea146103455780633644e515146103585780633a46b1a81461036e5780633fafa1271461038157600080fd5b806301ffc9a71461028f57806306fdde03146102b7578063081812fc146102cc578063095ea7b3146102f757806323b872dd1461030c575b600080fd5b6102a261029d366004613fbd565b6106ce565b60405190151581526020015b60405180910390f35b6102bf6106f9565b6040516102ae91906144ea565b6102df6102da366004614292565b61078b565b6040516001600160a01b0390911681526020016102ae565b61030a610305366004613bf1565b6107b2565b005b61030a61031a366004613b03565b61083f565b61030a61032d3660046141e1565b610871565b61030a610340366004613a90565b610a2b565b61030a6103533660046141a6565b610af0565b610360610c07565b6040519081526020016102ae565b61036061037c366004613bf1565b610c16565b6103607f000000000000000000000000000000000000000000000000000000000000000081565b61030a6103b6366004613b03565b610c3f565b6102df7f000000000000000000000000000000000000000000000000000000000000000081565b6102df6103f0366004614292565b610c5a565b6102df610403366004613a90565b6001600160a01b039081166000908152600560205260409020541690565b61030a61042f366004613a90565b610d31565b6102df610442366004614292565b610d3b565b610360610455366004613a90565b610d71565b61030a610e16565b610360610470366004613a90565b610e2a565b6102df610483366004613bf1565b6001600160a01b039182166000908152600a6020908152604080832093835292905220541690565b6009546001600160a01b03166102df565b6104cf6104ca366004614257565b610e48565b6040516102ae9392919061458c565b6103606104ec366004614292565b611012565b6103606104ff366004614292565b61103f565b6102bf611056565b6102df7f000000000000000000000000000000000000000000000000000000000000000081565b610360610541366004613a90565b611065565b61030a610554366004613cb4565b611086565b61030a610567366004614068565b6112b2565b61030a61057a366004613bc3565b61137d565b61030a61058d3660046142ab565b61138c565b61030a6105a0366004613bf1565b611556565b61030a6105b3366004613b44565b611561565b61030a6105c6366004613c52565b61159a565b6102df7f000000000000000000000000000000000000000000000000000000000000000081565b6102bf610600366004614292565b611669565b610360610613366004613bf1565b611961565b61030a610626366004613ff7565b61198d565b6103606106393660046142ab565b611a63565b61036061064c366004613c1d565b611a9d565b6104cf61065f36600461421c565b611ad2565b61030a610672366004613a90565b611b32565b6102bf611bf0565b6102a261068d366004613aca565b6001600160a01b03918216600090815260046020908152604080832093909416825291909152205460ff1690565b61030a6106c9366004613a90565b611c8e565b60006001600160e01b03198216631f09cc8360e31b14806106f357506106f382611d09565b92915050565b6060600080546107089061477d565b80601f01602080910402602001604051908101604052809291908181526020018280546107349061477d565b80156107815780601f1061075657610100808354040283529160200191610781565b820191906000526020600020905b81548152906001019060200180831161076457829003601f168201915b5050505050905090565b600061079682611d7f565b506000908152600360205260409020546001600160a01b031690565b60006107bd82610d3b565b9050806001600160a01b0316836001600160a01b031614156107f25760405163133f8be960e01b815260040160405180910390fd5b336001600160a01b038216148015906108125750610810813361068d565b155b156108305760405163e5fa0e3560e01b815260040160405180910390fd5b61083a8383611db4565b505050565b6108493382611e22565b6108665760405163e5fa0e3560e01b815260040160405180910390fd5b61083a838383611ea0565b604051636e49181f60e01b81527f000000000000000000000000000000000000000000000000000000000000000060048201523360248201527f00000000000000000000000000000000000000000000000000000000000000006001600160a01b031690636e49181f9060440160206040518083038186803b1580156108f657600080fd5b505afa15801561090a573d6000803e3d6000fd5b505050506040513d601f19601f8201168201806040525081019061092e9190613e8c565b158061095e57507f0000000000000000000000000000000000000000000000000000000000000000816020013514155b1561097c57604051633efca5c360e11b815260040160405180910390fd5b600061098c6101408301836145bd565b8101906109999190613d7b565b80519091506000805b82811015610a24578381815181106109bc576109bc6147f4565b602002602001015191508460000160208101906109d99190613a90565b6000838152600260205260409020546001600160a01b03908116911614610a135760405163075fd2b160e01b815260040160405180910390fd5b610a1c82611f79565b6001016109a2565b5050505050565b610a33611ffa565b60405163036129cb60e61b81526001600160a01b0382811660048301527f0000000000000000000000000000000000000000000000000000000000000000169063d84a72c090602401600060405180830381600087803b158015610a9657600080fd5b505af1158015610aaa573d6000803e3d6000fd5b50506040513381526001600160a01b03841692507fe7784d93cfbfa4408e19577e6cc0436f4dbb51214b70e100905dfce9def88c1691506020015b60405180910390a250565b604051636e49181f60e01b81527f000000000000000000000000000000000000000000000000000000000000000060048201523360248201527f00000000000000000000000000000000000000000000000000000000000000006001600160a01b031690636e49181f9060440160206040518083038186803b158015610b7557600080fd5b505afa158015610b89573d6000803e3d6000fd5b505050506040513d601f19601f82011682018060405250810190610bad9190613e8c565b1580610bdd57507f0000000000000000000000000000000000000000000000000000000000000000816020013514155b15610bfb576040516331c57b1b60e21b815260040160405180910390fd5b610c0481612054565b50565b6000610c116121b2565b905090565b6001600160a01b0382166000908152600660205260408120610c3890836122d9565b9392505050565b61083a83838360405180602001604052806000815250611561565b6040516308ed6c0160e41b81523060048201526024810182905260009081906001600160a01b037f00000000000000000000000000000000000000000000000000000000000000001690638ed6c0109060440160206040518083038186803b158015610cc557600080fd5b505afa158015610cd9573d6000803e3d6000fd5b505050506040513d601f19601f82011682018060405250810190610cfd9190613aad565b90506001600160a01b03811615610d145792915050565b50506000908152600260205260409020546001600160a01b031690565b610c0433826123e8565b6000818152600260205260408120546001600160a01b0316806106f35760405163b49aa3b560e01b815260040160405180910390fd5b604051633de222bb60e21b81523060048201526001600160a01b0382811660248301526000917f00000000000000000000000000000000000000000000000000000000000000009091169063f7888aec906044015b60206040518083038186803b158015610dde57600080fd5b505afa158015610df2573d6000803e3d6000fd5b505050506040513d601f19601f820116820180604052508101906106f39190613ea9565b610e1e611ffa565b610e28600061245a565b565b6001600160a01b0381166000908152600860205260408120546106f3565b6000606081608084013515610e7057604051637b52876960e01b815260040160405180910390fd5b610180840135610ed2576000610e8a6101c08601866145bd565b3082828080601f01602080910402602001604051908101604052809392919081815260200183838082843760009201919091525096995091975091955061100b945050505050565b6000610ef7610ee56101e08701876145bd565b810190610ef29190613d7b565b6124ac565b90506000610f036124fd565b90506000610f168760c001358484612597565b90506127108761018001351415610f815780610f366101c08901896145bd565b3082828080601f016020809104026020016040519081016040528093929190818152602001838380828437600092019190915250969c50919a5091985061100b975050505050505050565b610fb781610fa085610f9a6101808c013561271061470a565b86612597565b610faf906101808b01356146d0565b612710612597565b610fc56101c08901896145bd565b3082828080601f016020809104026020016040519081016040528093929190818152602001838380828437600092019190915250969c50919a5091985050505050505050505b9193909250565b6000438210611034576040516305b5e09b60e51b815260040160405180910390fd5b6106f36007836122d9565b6000818152600c602052604081206106f390612665565b6060600180546107089061477d565b6001600160a01b03811660009081526006602052604081206106f390612665565b61108e611ffa565b8280156111bf576040516309d865d560e21b81526000906001600160a01b037f000000000000000000000000000000000000000000000000000000000000000016906327619754906110e69089908990600401614446565b600060405180830381600087803b15801561110057600080fd5b505af1158015611114573d6000803e3d6000fd5b505050506040513d6000823e601f3d908101601f1916820160405261113c9190810190613e12565b905060005b828110156111bc5781818151811061115b5761115b6147f4565b60200260200101517ff2f59fef50c01641d6562b4ceb2f10dbbea88250f8d4fb2f77f42d397b00210c888884818110611196576111966147f4565b90506101000201336040516111ac92919061451f565b60405180910390a2600101611141565b50505b8180156112aa576040516320512ba160e01b81526001600160a01b037f000000000000000000000000000000000000000000000000000000000000000016906320512ba190611214908790879060040161447f565b600060405180830381600087803b15801561122e57600080fd5b505af1158015611242573d6000803e3d6000fd5b5050505060005b818110156112a857848482818110611263576112636147f4565b60405133815260209182029390930135927f832d89d991be5351d793c20faf4b7dd44f8aa9ce39e3cb160c6317de6fbba72992500160405180910390a2600101611249565b505b505050505050565b6112ba611ffa565b6040516331315e5960e11b81526001600160a01b037f00000000000000000000000000000000000000000000000000000000000000001690636262bcb2906113069084906004016144ea565b600060405180830381600087803b15801561132057600080fd5b505af1158015611334573d6000803e3d6000fd5b505050508060405161134691906143a4565b604051908190038120338252907f7bc9110d5de090dd59e07912d2b93a5a27ac70a60c8d8e324db4f9ee8b8b5c1390602001610ae5565b6113883383836126c1565b5050565b604051635d53f40760e11b815260048101839052602481018290526000907f00000000000000000000000000000000000000000000000000000000000000006001600160a01b03169063baa7e80e90604401600060405180830381600087803b1580156113f857600080fd5b505af115801561140c573d6000803e3d6000fd5b505050506040513d6000823e601f3d908101601f191682016040526114349190810190613e12565b6040516304db994760e21b8152306004820152602481018590529091506000906001600160a01b037f0000000000000000000000000000000000000000000000000000000000000000169063136e651c9060440160206040518083038186803b1580156114a057600080fd5b505afa1580156114b4573d6000803e3d6000fd5b505050506040513d601f19601f820116820180604052508101906114d89190613aad565b90506000805b848110156112aa578381815181106114f8576114f86147f4565b6020026020010151915061150c8383612761565b6040513381526001600160a01b03841690879084907f031e1988c95a91ec4d655ff63a8f87a80bc9daf28d95ae10ee08c0022cfb5c8b9060200160405180910390a46001016114de565b61138833838361282b565b61156b3383611e22565b6115885760405163e5fa0e3560e01b815260040160405180910390fd5b611594848484846128aa565b50505050565b834211156115bb57604051631931982760e01b815260040160405180910390fd5b604080517fe48329057bfd03d55e49b547132e39cffd9c1820ad7b9d4c5307691425d15adf60208201526001600160a01b0388169181019190915260608101869052608081018590526000906116359061162d9060a001604051602081830303815290604052805190602001206128de565b85858561292c565b905061164081612954565b861461165f57604051637fcce2a960e01b815260040160405180910390fd5b6112a881886123e8565b6000818152600260205260409020546060906001600160a01b031661169c57505060408051602081019091526000815290565b604051630fab094760e01b81523060048201526000907f00000000000000000000000000000000000000000000000000000000000000006001600160a01b031690630fab09479060240160206040518083038186803b1580156116fe57600080fd5b505afa158015611712573d6000803e3d6000fd5b505050506040513d601f19601f820116820180604052508101906117369190613aad565b90506001600160a01b038116156117c357604051636d02a25560e11b8152600481018490526001600160a01b0382169063da0544aa9060240160006040518083038186803b15801561178757600080fd5b505afa15801561179b573d6000803e3d6000fd5b505050506040513d6000823e601f3d908101601f19168201604052610c3891908101906140b0565b60405163f682eeaf60e01b815230600482015273__$2e464bbf4a8803569df10b07372aceee57$__9063030cecc7906001600160a01b037f0000000000000000000000000000000000000000000000000000000000000000169063f682eeaf9060240160006040518083038186803b15801561183e57600080fd5b505afa158015611852573d6000803e3d6000fd5b505050506040513d6000823e601f3d908101601f1916820160405261187a91908101906140b0565b604051630c8df17160e41b8152306004820152602481018790527f00000000000000000000000000000000000000000000000000000000000000006001600160a01b03169063c8df17109060440160206040518083038186803b1580156118e057600080fd5b505afa1580156118f4573d6000803e3d6000fd5b505050506040513d601f19601f820116820180604052508101906119189190613ea9565b6040518363ffffffff1660e01b81526004016119359291906144fd565b60006040518083038186803b15801561194d57600080fd5b505af415801561179b573d6000803e3d6000fd5b6001600160a01b0382166000908152600b602090815260408083208484529091528120610c3890612665565b611995611ffa565b60405163d67b78fd60e01b81526001600160a01b037f0000000000000000000000000000000000000000000000000000000000000000169063d67b78fd906119e390859085906004016144bb565b600060405180830381600087803b1580156119fd57600080fd5b505af1158015611a11573d6000803e3d6000fd5b505050508181604051611a25929190614394565b604051908190038120338252907fd36dc0c1a06103fdcaf15f3f6fb797d1a97997514c78de073640c8b5005454b89060200160405180910390a25050565b6000438210611a85576040516305b5e09b60e51b815260040160405180910390fd5b6000838152600c60205260409020610c3890836122d9565b6001600160a01b0383166000908152600b602090815260408083208584529091528120611aca90836122d9565b949350505050565b6000606081610120840135611aeb6101608601866145bd565b3082828080601f016020809104026020016040519081016040528093929190818152602001838380828437600092019190915250969b929a50929850909650505050505050565b611b3a611ffa565b6040516317161f7d60e01b81526001600160a01b0382811660048301527f000000000000000000000000000000000000000000000000000000000000000016906317161f7d90602401600060405180830381600087803b158015611b9d57600080fd5b505af1158015611bb1573d6000803e3d6000fd5b50506040513381526001600160a01b03841692507fab0014d4c7a642a02a31b303a318908c22b0fb2001f107278fc6076b4c671b659150602001610ae5565b604051630155619b60e71b81523060048201526060907f00000000000000000000000000000000000000000000000000000000000000006001600160a01b03169063aab0cd809060240160006040518083038186803b158015611c5257600080fd5b505afa158015611c66573d6000803e3d6000fd5b505050506040513d6000823e601f3d908101601f19168201604052610c1191908101906140b0565b611c96611ffa565b6001600160a01b038116611d005760405162461bcd60e51b815260206004820152602660248201527f4f776e61626c653a206e6577206f776e657220697320746865207a65726f206160448201526564647265737360d01b60648201526084015b60405180910390fd5b610c048161245a565b60006001600160e01b0319821663b3bcbb7960e01b1480611d3a57506001600160e01b0319821663599064e960e01b145b80611d5557506001600160e01b031982166318258f7560e11b145b80611d7057506001600160e01b03198216632400e8f760e01b145b806106f357506106f38261297c565b6000818152600260205260409020546001600160a01b0316610c045760405163b49aa3b560e01b815260040160405180910390fd5b600081815260036020526040902080546001600160a01b0319166001600160a01b0384169081179091558190611de982610d3b565b6001600160a01b03167f8c5be1e5ebec7d5bd14f71427d1e84f3dd0314c0f7b2291e5b200ac8c7c3b92560405160405180910390a45050565b600080611e2e83610d3b565b9050806001600160a01b0316846001600160a01b03161480611e7557506001600160a01b0380821660009081526004602090815260408083209388168352929052205460ff165b80611aca5750836001600160a01b0316611e8e8461078b565b6001600160a01b031614949350505050565b826001600160a01b0316611eb382610d3b565b6001600160a01b031614611eda5760405163a195bc5360e01b815260040160405180910390fd5b6001600160a01b038216611f0157604051632c95542760e01b815260040160405180910390fd5b611f0c8383836129cc565b611f17600082611db4565b60008181526002602052604080822080546001600160a01b0319166001600160a01b0386811691821790925591518493918716917fddf252ad1be2c89b69c2b068fc378daa952ba7f163c4a11628f55a4df523b3ef91a461083a838383612b0e565b6000611f8482610d3b565b9050611f92816000846129cc565b611f9d600083611db4565b60008281526002602052604080822080546001600160a01b0319169055518391906001600160a01b038416907fddf252ad1be2c89b69c2b068fc378daa952ba7f163c4a11628f55a4df523b3ef908390a461138881600084612b0e565b6009546001600160a01b03163314610e285760405162461bcd60e51b815260206004820181905260248201527f4f776e61626c653a2063616c6c6572206973206e6f7420746865206f776e65726044820152606401611cf7565b6001600160a01b037f00000000000000000000000000000000000000000000000000000000000000001661208e6080830160608401613a90565b6001600160a01b03161461209f5750565b608081013560008060246120b76101608601866145bd565b90501180156120fb575063b3bcbb7960e01b6120d76101608601866145bd565b6120e6916024916020916146a6565b6120ef91614721565b6001600160e01b031916145b1561216357600060606121126101608701876145bd565b81019061211f9190613ec2565b91985096509094509250508215905061213a57505050505050565b8051156121605761215d85826121586101208a016101008b01613a90565b612c76565b94505b50505b8215612188576121858361217f61012087016101008801613a90565b84612ddf565b92505b80801561219457508215155b1561159457604051631b57826960e21b815260040160405180910390fd5b6000306001600160a01b037f00000000000000000000000000000000000000000000000000000000000000001614801561220b57507f000000000000000000000000000000000000000000000000000000000000000046145b1561223557507f000000000000000000000000000000000000000000000000000000000000000090565b50604080517f00000000000000000000000000000000000000000000000000000000000000006020808301919091527f0000000000000000000000000000000000000000000000000000000000000000828401527f000000000000000000000000000000000000000000000000000000000000000060608301524660808301523060a0808401919091528351808403909101815260c0909201909252805191012090565b600043821061232a5760405162461bcd60e51b815260206004820181905260248201527f436865636b706f696e74733a20626c6f636b206e6f7420796574206d696e65646044820152606401611cf7565b825460005b8181101561238f5760006123438284612f16565b90508486600001828154811061235b5761235b6147f4565b60009182526020909120015463ffffffff16111561237b57809250612389565b6123868160016146d0565b91505b5061232f565b81156123d357846123a160018461470a565b815481106123b1576123b16147f4565b60009182526020909120015464010000000090046001600160e01b03166123d6565b60005b6001600160e01b031695945050505050565b6001600160a01b0382811660008181526005602052604080822080548686166001600160a01b0319821681179092559151919094169392849290917f3134e8a2e6d97e929a7e54011ea5485d7d196dd5f0ba4d4ef95803e8e3fc257f9190a461083a818361245586612f31565b612f8a565b600980546001600160a01b038381166001600160a01b0319831681179093556040519116919082907f8be0079c531659141344cd1fd0a4f28419497f9722a3daafe3b4186f6b6457e090600090a35050565b60405163051330b560e21b81526000906001600160a01b037f0000000000000000000000000000000000000000000000000000000000000000169063144cc2d490610dc690309086906004016143fd565b604051631572f24960e11b81523060048201526000907f00000000000000000000000000000000000000000000000000000000000000006001600160a01b031690632ae5e4929060240160206040518083038186803b15801561255f57600080fd5b505afa158015612573573d6000803e3d6000fd5b505050506040513d601f19601f82011682018060405250810190610c119190613ea9565b6000808060001985870985870292508281108382030391505080600014156125d2578382816125c8576125c86147c8565b0492505050610c38565b8381106125fc57604051631dcf306360e21b81526004810182905260248101859052604401611cf7565b60008486880960026001871981018816978890046003810283188082028403028082028403028082028403028082028403028082028403029081029092039091026000889003889004909101858311909403939093029303949094049190911702949350505050565b805460009080156126ae578261267c60018361470a565b8154811061268c5761268c6147f4565b60009182526020909120015464010000000090046001600160e01b03166126b1565b60005b6001600160e01b03169392505050565b816001600160a01b0316836001600160a01b031614156126f4576040516306f8139d60e11b815260040160405180910390fd5b6001600160a01b03838116600081815260046020908152604080832094871680845294825291829020805460ff191686151590811790915591519182527f17307eab39ab6107e8899845ad3d59bd9653f200f220920489ca2b5937696c31910160405180910390a3505050565b6001600160a01b03821661278857604051633904578f60e11b815260040160405180910390fd5b6000818152600260205260409020546001600160a01b0316156127be57604051632eb5f0c360e21b815260040160405180910390fd5b6127ca600083836129cc565b60008181526002602052604080822080546001600160a01b0319166001600160a01b03861690811790915590518392907fddf252ad1be2c89b69c2b068fc378daa952ba7f163c4a11628f55a4df523b3ef908290a461138860008383612b0e565b6001600160a01b038381166000818152600a6020908152604080832086845290915280822080548786166001600160a01b0319821681179092559151919094169392849290917f3134e8a2e6d97e929a7e54011ea5485d7d196dd5f0ba4d4ef95803e8e3fc257f9190a46115948184846128a588876130c7565b613172565b6128b5848484611ea0565b6128c1848484846132cd565b611594576040516336f57c1b60e11b815260040160405180910390fd5b60006106f36128eb6121b2565b8360405161190160f01b6020820152602281018390526042810182905260009060620160405160208183030381529060405280519060200120905092915050565b600080600061293d878787876133d8565b9150915061294a816134c5565b5095945050505050565b6001600160a01b03811660009081526008602052604090208054600181018255905b50919050565b60006001600160e01b031982166380ac58cd60e01b14806129ad57506001600160e01b03198216635b5e139f60e01b145b806106f357506301ffc9a760e01b6001600160e01b03198316146106f3565b6001600160a01b03831615801590612a8b57506040516308ed6c0160e41b8152306004820152602481018290526000906001600160a01b037f00000000000000000000000000000000000000000000000000000000000000001690638ed6c0109060440160206040518083038186803b158015612a4857600080fd5b505afa158015612a5c573d6000803e3d6000fd5b505050506040513d601f19601f82011682018060405250810190612a809190613aad565b6001600160a01b0316145b1561083a57604051638cec7d3960e01b8152600481018290526001600160a01b0384811660248301527f00000000000000000000000000000000000000000000000000000000000000001690638cec7d3990604401600060405180830381600087803b158015612afa57600080fd5b505af11580156112a8573d6000803e3d6000fd5b60405163b67cb04760e01b8152306004820152602481018290526000907f00000000000000000000000000000000000000000000000000000000000000006001600160a01b03169063b67cb047906044016101206040518083038186803b158015612b7857600080fd5b505afa158015612b8c573d6000803e3d6000fd5b505050506040513d601f19601f82011682018060405250810190612bb09190614126565b80516040516330b157e560e21b815260048101919091526001600160a01b03868116602483015285811660448301529192507f00000000000000000000000000000000000000000000000000000000000000009091169063c2c55f9490606401600060405180830381600087803b158015612c2a57600080fd5b505af1158015612c3e573d6000803e3d6000fd5b505050508060a00151600014612c7157612c5d84848360a00151613680565b612c71848483600001518460a001516136f0565b611594565b600060607f00000000000000000000000000000000000000000000000000000000000000006001600160a01b03166316b047de86866040518363ffffffff1660e01b8152600401612cc8929190614547565b600060405180830381600087803b158015612ce257600080fd5b505af1158015612cf6573d6000803e3d6000fd5b505050506040513d6000823e601f3d908101601f19168201604052612d1e9190810190613e46565b81519093509091506000805b82811015612dd457838181518110612d4457612d446147f4565b60200260200101519150612d588683612761565b856001600160a01b0316878281518110612d7457612d746147f4565b602002602001015161ffff16837f598baf7bf150ca2f42be9e9f8f55e81d45f5715c3ff22bf46d697fabec7f31d68b33604051612dc49291909182526001600160a01b0316602082015260400190565b60405180910390a4600101612d2a565b505050509392505050565b60008060007f00000000000000000000000000000000000000000000000000000000000000006001600160a01b031663879791f3876040518263ffffffff1660e01b8152600401612e3291815260200190565b606060405180830381600087803b158015612e4c57600080fd5b505af1158015612e60573d6000803e3d6000fd5b505050506040513d601f19601f82011682018060405250810190612e8491906142cd565b9450909250905081612eb6578315612eaf57604051630e5313df60e41b815260040160405180910390fd5b5050610c38565b612ec08583612761565b6001600160a01b03851681837f598baf7bf150ca2f42be9e9f8f55e81d45f5715c3ff22bf46d697fabec7f31d6612ef7878b61470a565b604080519182523360208301520160405180910390a450509392505050565b6000612f2560028484186146e8565b610c38908484166146d0565b604051631266aaaf60e31b81523060048201526001600160a01b0382811660248301526000917f000000000000000000000000000000000000000000000000000000000000000090911690639335557890604401610dc6565b816001600160a01b0316836001600160a01b031614158015612fac5750600081115b1561083a576001600160a01b0383161561303a576001600160a01b03831660009081526006602052604081208190612fe7906137928561379e565b91509150846001600160a01b03167fdec2bacdd2f05b59de34da9b523dff8be42e5e38e818c82fdb0bae774387a724838360405161302f929190918252602082015260400190565b60405180910390a250505b6001600160a01b0382161561083a576001600160a01b03821660009081526006602052604081208190613070906137cc8561379e565b91509150836001600160a01b03167fdec2bacdd2f05b59de34da9b523dff8be42e5e38e818c82fdb0bae774387a72483836040516130b8929190918252602082015260400190565b60405180910390a25050505050565b6040516305c9a1d560e31b81523060048201526001600160a01b038381166024830152604482018390526000917f000000000000000000000000000000000000000000000000000000000000000090911690632e4d0ea89060640160206040518083038186803b15801561313a57600080fd5b505afa15801561314e573d6000803e3d6000fd5b505050506040513d601f19601f82011682018060405250810190610c389190613ea9565b826001600160a01b0316846001600160a01b03161480613190575080155b1561319a57611594565b6001600160a01b03841615613231576001600160a01b0384166000908152600b60209081526040808320858452909152812081906131db906137928561379e565b60408051828152602081018890523381830152905192945090925083916001600160a01b038916917fed0c1e94c302bdbbd8bbd6a4fb7c3ed335c2292407cd816eadd075d019d0ce04919081900360600190a350505b6001600160a01b03831615611594576001600160a01b0383166000908152600b6020908152604080832085845290915281208190613272906137cc8561379e565b60408051838152602081018390523381830152905192945090925085916001600160a01b038816917fed0c1e94c302bdbbd8bbd6a4fb7c3ed335c2292407cd816eadd075d019d0ce04919081900360600190a3505050505050565b60006001600160a01b0384163b156133d057604051630a85bd0160e11b81526001600160a01b0385169063150b7a02906133119033908990889088906004016143c0565b602060405180830381600087803b15801561332b57600080fd5b505af192505050801561335b575060408051601f3d908101601f1916820190925261335891810190613fda565b60015b6133b6573d808015613389576040519150601f19603f3d011682016040523d82523d6000602084013e61338e565b606091505b5080516133ae576040516336f57c1b60e11b815260040160405180910390fd5b805181602001fd5b6001600160e01b031916630a85bd0160e11b149050611aca565b506001611aca565b6000807f7fffffffffffffffffffffffffffffff5d576e7357a4501ddfe92f46681b20a083111561340f57506000905060036134bc565b8460ff16601b1415801561342757508460ff16601c14155b1561343857506000905060046134bc565b6040805160008082526020820180845289905260ff881692820192909252606081018690526080810185905260019060a0016020604051602081039080840390855afa15801561348c573d6000803e3d6000fd5b5050604051601f1901519150506001600160a01b0381166134b5576000600192509250506134bc565b9150600090505b94509492505050565b60008160048111156134d9576134d96147de565b14156134e25750565b60018160048111156134f6576134f66147de565b14156135445760405162461bcd60e51b815260206004820152601860248201527f45434453413a20696e76616c6964207369676e617475726500000000000000006044820152606401611cf7565b6002816004811115613558576135586147de565b14156135a65760405162461bcd60e51b815260206004820152601f60248201527f45434453413a20696e76616c6964207369676e6174757265206c656e677468006044820152606401611cf7565b60038160048111156135ba576135ba6147de565b14156136135760405162461bcd60e51b815260206004820152602260248201527f45434453413a20696e76616c6964207369676e6174757265202773272076616c604482015261756560f01b6064820152608401611cf7565b6004816004811115613627576136276147de565b1415610c045760405162461bcd60e51b815260206004820152602260248201527f45434453413a20696e76616c6964207369676e6174757265202776272076616c604482015261756560f01b6064820152608401611cf7565b6001600160a01b03831661369f5761369c60076137cc8361379e565b50505b6001600160a01b0382166136be576136bb60076137928361379e565b50505b6001600160a01b0383811660009081526005602052604080822054858416835291205461083a92918216911683612f8a565b6001600160a01b03841661371c576000828152600c60205260409020613719906137cc8361379e565b50505b6001600160a01b038316613748576000828152600c60205260409020613745906137928361379e565b50505b6001600160a01b038085166000908152600a602081815260408084208785528252808420548886168552928252808420878552909152909120546115949291821691168484613172565b6000610c38828461470a565b6000806137c0856137bb6137b188612665565b868863ffffffff16565b6137d8565b91509150935093915050565b6000610c3882846146d0565b81546000908190816137e986612665565b90506000821180156138275750438661380360018561470a565b81548110613813576138136147f4565b60009182526020909120015463ffffffff16145b156138875761383585613903565b8661384160018561470a565b81548110613851576138516147f4565b9060005260206000200160000160046101000a8154816001600160e01b0302191690836001600160e01b031602179055506138f5565b85600001604051806040016040528061389f43613970565b63ffffffff1681526020016138b388613903565b6001600160e01b0390811690915282546001810184556000938452602093849020835194909301519091166401000000000263ffffffff909316929092179101555b9250839150505b9250929050565b60006001600160e01b0382111561396c5760405162461bcd60e51b815260206004820152602760248201527f53616665436173743a2076616c756520646f65736e27742066697420696e20326044820152663234206269747360c81b6064820152608401611cf7565b5090565b600063ffffffff82111561396c5760405162461bcd60e51b815260206004820152602660248201527f53616665436173743a2076616c756520646f65736e27742066697420696e203360448201526532206269747360d01b6064820152608401611cf7565b60006139e86139e38461467f565b61462c565b90508281528383830111156139fc57600080fd5b828260208301376000602084830101529392505050565b8051613a1e81614820565b919050565b600082601f830112613a3457600080fd5b81516020613a446139e38361465c565b80838252828201915082860187848660051b8901011115613a6457600080fd5b60005b85811015613a8357815184529284019290840190600101613a67565b5090979650505050505050565b600060208284031215613aa257600080fd5b8135610c3881614820565b600060208284031215613abf57600080fd5b8151610c3881614820565b60008060408385031215613add57600080fd5b8235613ae881614820565b91506020830135613af881614820565b809150509250929050565b600080600060608486031215613b1857600080fd5b8335613b2381614820565b92506020840135613b3381614820565b929592945050506040919091013590565b60008060008060808587031215613b5a57600080fd5b8435613b6581614820565b93506020850135613b7581614820565b92506040850135915060608501356001600160401b03811115613b9757600080fd5b8501601f81018713613ba857600080fd5b613bb7878235602084016139d5565b91505092959194509250565b60008060408385031215613bd657600080fd5b8235613be181614820565b91506020830135613af881614835565b60008060408385031215613c0457600080fd5b8235613c0f81614820565b946020939093013593505050565b600080600060608486031215613c3257600080fd5b8335613c3d81614820565b95602085013595506040909401359392505050565b60008060008060008060c08789031215613c6b57600080fd5b8635613c7681614820565b95506020870135945060408701359350606087013560ff81168114613c9a57600080fd5b9598949750929560808101359460a0909101359350915050565b60008060008060408587031215613cca57600080fd5b84356001600160401b0380821115613ce157600080fd5b818701915087601f830112613cf557600080fd5b813581811115613d0457600080fd5b8860208260081b8501011115613d1957600080fd5b602092830196509450908601359080821115613d3457600080fd5b818701915087601f830112613d4857600080fd5b813581811115613d5757600080fd5b8860208260051b8501011115613d6c57600080fd5b95989497505060200194505050565b60006020808385031215613d8e57600080fd5b82356001600160401b03811115613da457600080fd5b8301601f81018513613db557600080fd5b8035613dc36139e38261465c565b80828252848201915084840188868560051b8701011115613de357600080fd5b600094505b83851015613e06578035835260019490940193918501918501613de8565b50979650505050505050565b600060208284031215613e2457600080fd5b81516001600160401b03811115613e3a57600080fd5b611aca84828501613a23565b60008060408385031215613e5957600080fd5b82516001600160401b03811115613e6f57600080fd5b613e7b85828601613a23565b925050602083015190509250929050565b600060208284031215613e9e57600080fd5b8151610c3881614835565b600060208284031215613ebb57600080fd5b5051919050565b60008060008060008060c08789031215613edb57600080fd5b86359550602080880135613eee81614843565b95506040880135613efe81614835565b94506060880135613f0e81614835565b93506080880135613f1e81614835565b925060a08801356001600160401b03811115613f3957600080fd5b8801601f81018a13613f4a57600080fd5b8035613f586139e38261465c565b8082825284820191508484018d868560051b8701011115613f7857600080fd5b60009450845b84811015613fa957813561ffff81168114613f97578687fd5b84529286019290860190600101613f7e565b505080955050505050509295509295509295565b600060208284031215613fcf57600080fd5b8135610c3881614843565b600060208284031215613fec57600080fd5b8151610c3881614843565b6000806020838503121561400a57600080fd5b82356001600160401b038082111561402157600080fd5b818501915085601f83011261403557600080fd5b81358181111561404457600080fd5b86602082850101111561405657600080fd5b60209290920196919550909350505050565b60006020828403121561407a57600080fd5b81356001600160401b0381111561409057600080fd5b8201601f810184136140a157600080fd5b611aca848235602084016139d5565b6000602082840312156140c257600080fd5b81516001600160401b038111156140d857600080fd5b8201601f810184136140e957600080fd5b80516140f76139e38261467f565b81815285602083850101111561410c57600080fd5b61411d826020830160208601614751565b95945050505050565b6000610120828403121561413957600080fd5b614141614603565b825181526020830151602082015260408301516040820152606083015160608201526080830151608082015260a083015160a082015260c083015160c082015261418d60e08401613a13565b60e0820152610100928301519281019290925250919050565b6000602082840312156141b857600080fd5b81356001600160401b038111156141ce57600080fd5b82016101808185031215610c3857600080fd5b6000602082840312156141f357600080fd5b81356001600160401b0381111561420957600080fd5b82016101608185031215610c3857600080fd5b60006020828403121561422e57600080fd5b81356001600160401b0381111561424457600080fd5b82016101a08185031215610c3857600080fd5b60006020828403121561426957600080fd5b81356001600160401b0381111561427f57600080fd5b82016102008185031215610c3857600080fd5b6000602082840312156142a457600080fd5b5035919050565b600080604083850312156142be57600080fd5b50508035926020909101359150565b6000806000606084860312156142e257600080fd5b8351925060208401519150604084015190509250925092565b60008151808452614313816020860160208601614751565b601f01601f19169290920160200192915050565b803582526020810135602083015260408101356040830152606081013560608301526080810135608083015260a081013561436181614820565b6001600160a01b031660a083015260c0818101359083015260e081013561438781614835565b80151560e0840152505050565b8183823760009101908152919050565b600082516143b6818460208701614751565b9190910192915050565b6001600160a01b03858116825284166020820152604081018390526080606082018190526000906143f3908301846142fb565b9695505050505050565b6001600160a01b038316815260406020808301829052835191830182905260009184820191906060850190845b81811015613a835784518352938301939183019160010161442a565b6020808252810182905260008360408301825b8581101561294a5761446b8284614327565b610100928301929190910190600101614459565b6020808252810182905260006001600160fb1b0383111561449f57600080fd5b8260051b80856040850137600092016040019182525092915050565b60208152816020820152818360408301376000818301604090810191909152601f909201601f19160101919050565b602081526000610c3860208301846142fb565b60408152600061451060408301856142fb565b90508260208301529392505050565b610120810161452e8285614327565b6001600160a01b03929092166101009190910152919050565b6000604082018483526020604081850152818551808452606086019150828701935060005b81811015613a8357845161ffff168352938301939183019160010161456c565b8381526060602082015260006145a560608301856142fb565b905060018060a01b0383166040830152949350505050565b6000808335601e198436030181126145d457600080fd5b8301803591506001600160401b038211156145ee57600080fd5b6020019150368190038213156138fc57600080fd5b60405161012081016001600160401b03811182821017156146265761462661480a565b60405290565b604051601f8201601f191681016001600160401b03811182821017156146545761465461480a565b604052919050565b60006001600160401b038211156146755761467561480a565b5060051b60200190565b60006001600160401b038211156146985761469861480a565b50601f01601f191660200190565b600080858511156146b657600080fd5b838611156146c357600080fd5b5050820193919092039150565b600082198211156146e3576146e36147b2565b500190565b60008261470557634e487b7160e01b600052601260045260246000fd5b500490565b60008282101561471c5761471c6147b2565b500390565b6001600160e01b031981358181169160048510156147495780818660040360031b1b83161692505b505092915050565b60005b8381101561476c578181015183820152602001614754565b838111156115945750506000910152565b600181811c9082168061479157607f821691505b6020821081141561297657634e487b7160e01b600052602260045260246000fd5b634e487b7160e01b600052601160045260246000fd5b634e487b7160e01b600052601260045260246000fd5b634e487b7160e01b600052602160045260246000fd5b634e487b7160e01b600052603260045260246000fd5b634e487b7160e01b600052604160045260246000fd5b6001600160a01b0381168114610c0457600080fd5b8015158114610c0457600080fd5b6001600160e01b031981168114610c0457600080fdfea264697066735822122071e4a7960b4da1426272f0cb8730e561e93d49df02f173f484860975956ad8f164736f6c63430008060033a2646970667358221220ac256d103731c4c65f9b939bfe2e99a8d125b33281a2e7c80cbcd2dec9fa6e5d64736f6c63430008060033",
    "linkReferences": {
      "contracts/libraries/JBIpfsDecoder.sol": {
        "JBIpfsDecoder": [
          {
            "start": 11087,
            "length": 20
          }
        ]
      }
    }
  },
  "methodIdentifiers": {
    "deployDelegateFor(uint256,(address,string,string,string,address,string,address,(uint256,uint256,uint256,uint256,uint256,address,bytes32,bool)[],address,address,bool,bool))": "0a212562"
  },
  "id": 1
}