{
  "abi": [
    {
      "inputs": [
        {
          "internalType": "contract JB721GlobalGovernance",
          "name": "_globalGovernance",
          "type": "address"
        },
        {
          "internalType": "contract JB721TieredGovernance",
          "name": "_tieredGovernance",
          "type": "address"
        },
        {
          "internalType": "contract JBTiered721Delegate",
          "name": "_noGovernance",
          "type": "address"
        }
      ],
      "stateMutability": "nonpayable",
      "type": "constructor"
    },
    {
      "inputs": [],
      "name": "INVALID_GOVERNANCE_TYPE",
      "type": "error"
    },
    {
      "anonymous": false,
      "inputs": [
        {
          "indexed": true,
          "internalType": "uint256",
          "name": "projectId",
          "type": "uint256"
        },
        {
          "indexed": false,
          "internalType": "contract IJBTiered721Delegate",
          "name": "newDelegate",
          "type": "address"
        },
        {
          "indexed": false,
          "internalType": "enum IJBTiered721DelegateDeployer.GovernanceType",
          "name": "governanceType",
          "type": "uint8"
        }
      ],
      "name": "DelegateDeployed",
      "type": "event"
    },
    {
      "inputs": [
        {
          "internalType": "uint256",
          "name": "_projectId",
          "type": "uint256"
        },
        {
          "components": [
            {
              "internalType": "contract IJBDirectory",
              "name": "directory",
              "type": "address"
            },
            {
              "internalType": "string",
              "name": "name",
              "type": "string"
            },
            {
              "internalType": "string",
              "name": "symbol",
              "type": "string"
            },
            {
              "internalType": "contract IJBFundingCycleStore",
              "name": "fundingCycleStore",
              "type": "address"
            },
            {
              "internalType": "string",
              "name": "baseUri",
              "type": "string"
            },
            {
              "internalType": "contract IJBTokenUriResolver",
              "name": "tokenUriResolver",
              "type": "address"
            },
            {
              "internalType": "string",
              "name": "contractUri",
              "type": "string"
            },
            {
              "internalType": "address",
              "name": "owner",
              "type": "address"
            },
            {
              "components": [
                {
                  "components": [
                    {
                      "internalType": "uint256",
                      "name": "contributionFloor",
                      "type": "uint256"
                    },
                    {
                      "internalType": "uint256",
                      "name": "lockedUntil",
                      "type": "uint256"
                    },
                    {
                      "internalType": "uint256",
                      "name": "initialQuantity",
                      "type": "uint256"
                    },
                    {
                      "internalType": "uint256",
                      "name": "votingUnits",
                      "type": "uint256"
                    },
                    {
                      "internalType": "uint256",
                      "name": "reservedRate",
                      "type": "uint256"
                    },
                    {
                      "internalType": "address",
                      "name": "reservedTokenBeneficiary",
                      "type": "address"
                    },
                    {
                      "internalType": "bytes32",
                      "name": "encodedIPFSUri",
                      "type": "bytes32"
                    },
                    {
                      "internalType": "bool",
                      "name": "allowManualMint",
                      "type": "bool"
                    },
                    {
                      "internalType": "bool",
                      "name": "shouldUseBeneficiaryAsDefault",
                      "type": "bool"
                    }
                  ],
                  "internalType": "struct JB721TierParams[]",
                  "name": "tiers",
                  "type": "tuple[]"
                },
                {
                  "internalType": "uint256",
                  "name": "currency",
                  "type": "uint256"
                },
                {
                  "internalType": "uint256",
                  "name": "decimals",
                  "type": "uint256"
                },
                {
                  "internalType": "contract IJBPrices",
                  "name": "prices",
                  "type": "address"
                }
              ],
              "internalType": "struct JB721PricingParams",
              "name": "pricing",
              "type": "tuple"
            },
            {
              "internalType": "address",
              "name": "reservedTokenBeneficiary",
              "type": "address"
            },
            {
              "internalType": "contract IJBTiered721DelegateStore",
              "name": "store",
              "type": "address"
            },
            {
              "components": [
                {
                  "internalType": "bool",
                  "name": "lockReservedTokenChanges",
                  "type": "bool"
                },
                {
                  "internalType": "bool",
                  "name": "lockVotingUnitChanges",
                  "type": "bool"
                },
                {
                  "internalType": "bool",
                  "name": "lockManualMintingChanges",
                  "type": "bool"
                },
                {
                  "internalType": "bool",
                  "name": "pausable",
                  "type": "bool"
                }
              ],
              "internalType": "struct JBTiered721Flags",
              "name": "flags",
              "type": "tuple"
            },
            {
              "internalType": "enum IJBTiered721DelegateDeployer.GovernanceType",
              "name": "governanceType",
              "type": "uint8"
            }
          ],
          "internalType": "struct JBDeployTiered721DelegateData",
          "name": "_deployTiered721DelegateData",
          "type": "tuple"
        }
      ],
      "name": "deployDelegateFor",
      "outputs": [
        {
          "internalType": "contract IJBTiered721Delegate",
          "name": "",
          "type": "address"
        }
      ],
      "stateMutability": "nonpayable",
      "type": "function"
    }
  ],
  "bytecode": {
    "object": "0x60e060405234801561001057600080fd5b50604051610b01380380610b0183398101604081905261002f91610064565b6001600160a01b0392831660805290821660a0521660c0526100b1565b6001600160a01b038116811461006157600080fd5b50565b60008060006060848603121561007957600080fd5b83516100848161004c565b60208501519093506100958161004c565b60408501519092506100a68161004c565b809150509250925092565b60805160a05160c051610a236100de600039600060820152600060c70152600061010c0152610a236000f3fe608060405234801561001057600080fd5b506004361061002b5760003560e01c8063a6e10a4014610030575b600080fd5b61004361003e3660046105f9565b61005f565b6040516001600160a01b03909116815260200160405180910390f35b60008080836101800151600281111561007a5761007a610799565b036100a657507f0000000000000000000000000000000000000000000000000000000000000000610149565b600183610180015160028111156100bf576100bf610799565b036100eb57507f0000000000000000000000000000000000000000000000000000000000000000610149565b6002836101800151600281111561010457610104610799565b0361013057507f0000000000000000000000000000000000000000000000000000000000000000610149565b604051637c1d93dd60e01b815260040160405180910390fd5b6000610154826102af565b9050806001600160a01b031663dfedb3af8686600001518760200151886040015189606001518a608001518b60a001518c60c001518d61010001518e61014001518f61016001516040518c63ffffffff1660e01b81526004016101c19b9a999897969594939291906108cb565b600060405180830381600087803b1580156101db57600080fd5b505af11580156101ef573d6000803e3d6000fd5b5050505060e08401516001600160a01b0316156102685760e084015160405163f2fde38b60e01b81526001600160a01b0391821660048201529082169063f2fde38b90602401600060405180830381600087803b15801561024f57600080fd5b505af1158015610263573d6000803e3d6000fd5b505050505b847fa1dcc57d57a99af26e68a9d0181c52742fdf009c0bbe62ed6a635c312b2ec2f58286610180015160405161029f9291906109b2565b60405180910390a2949350505050565b6000813b604051600160e01b82026c31000000300040b006c11cf9ff60991b8117905080825250816000600d8301863c81816000f0949350505050565b634e487b7160e01b600052604160045260246000fd5b6040516080810167ffffffffffffffff81118282101715610325576103256102ec565b60405290565b604051610120810167ffffffffffffffff81118282101715610325576103256102ec565b6040516101a0810167ffffffffffffffff81118282101715610325576103256102ec565b604051601f8201601f1916810167ffffffffffffffff8111828210171561039c5761039c6102ec565b604052919050565b80356001600160a01b03811681146103bb57600080fd5b919050565b600082601f8301126103d157600080fd5b813567ffffffffffffffff8111156103eb576103eb6102ec565b6103fe601f8201601f1916602001610373565b81815284602083860101111561041357600080fd5b816020850160208301376000918101602001919091529392505050565b803580151581146103bb57600080fd5b6000608080838503121561045357600080fd5b61045b610302565b9150823567ffffffffffffffff8082111561047557600080fd5b818501915085601f83011261048957600080fd5b813560208282111561049d5761049d6102ec565b6104ab818360051b01610373565b82815281810193506101209283028501820192898411156104cb57600080fd5b948201945b838610156105655780868b0312156104e85760008081fd5b6104f061032b565b8635815283870135848201526040808801359082015260608088013590820152878701358882015260a06105258189016103a4565b9082015260c0878101359082015260e0610540818901610430565b90820152610100610552888201610430565b90820152855294850194938201936104d0565b5086528681013590860152505050506040808301359082015261058a606083016103a4565b606082015292915050565b6000608082840312156105a757600080fd5b6105af610302565b90506105ba82610430565b81526105c860208301610430565b60208201526105d960408301610430565b604082015261058a60608301610430565b8035600381106103bb57600080fd5b6000806040838503121561060c57600080fd5b82359150602083013567ffffffffffffffff8082111561062b57600080fd5b90840190610200828703121561064057600080fd5b61064861034f565b610651836103a4565b815260208301358281111561066557600080fd5b610671888286016103c0565b60208301525060408301358281111561068957600080fd5b610695888286016103c0565b6040830152506106a7606084016103a4565b60608201526080830135828111156106be57600080fd5b6106ca888286016103c0565b6080830152506106dc60a084016103a4565b60a082015260c0830135828111156106f357600080fd5b6106ff888286016103c0565b60c08301525061071160e084016103a4565b60e0820152610100808401358381111561072a57600080fd5b61073689828701610440565b828401525050610120915061074c8284016103a4565b8282015261014091506107608284016103a4565b82820152610160915061077587838501610595565b828201526107866101e084016105ea565b6101808201528093505050509250929050565b634e487b7160e01b600052602160045260246000fd5b6000815180845260005b818110156107d5576020818501810151868301820152016107b9565b506000602082860101526020601f19601f83011685010191505092915050565b80516080808452815184820181905260009260a0916020918201918388019190865b8281101561089057845180518552828101518386015260408082015190860152606080820151908601528781015188860152868101516001600160a01b03168786015260c0808201519086015260e080820151151590860152610100908101511515908501529381019361012090930192600101610817565b5080880151818a0152505060408601516040880152606086015193506108c160608801856001600160a01b03169052565b9695505050505050565b8b81526001600160a01b038b811660208301526101c0604083018190526000916108f78483018e6107af565b9150838203606085015261090b828d6107af565b9150808b16608085015283820360a0850152610927828b6107af565b90891660c085015283810360e0850152905061094381886107af565b905082810361010084015261095881876107f5565b9150506109716101208301856001600160a01b03169052565b825115156101408301526020830151151561016083015260408301511515610180830152606083015115156101a08301529c9b505050505050505050505050565b6001600160a01b038316815260408101600383106109e057634e487b7160e01b600052602160045260246000fd5b826020830152939250505056fea264697066735822122029df2f9ec2fb25a5a24d85b23d0a67d6ce89a25aa34eb5e0736229566cfc77a364736f6c63430008100033",
    "linkReferences": {}
  },
  "methodIdentifiers": {
    "deployDelegateFor(uint256,(address,string,string,address,string,address,string,address,((uint256,uint256,uint256,uint256,uint256,address,bytes32,bool,bool)[],uint256,uint256,address),address,address,(bool,bool,bool,bool),uint8))": "a6e10a40"
  },
  "id": 3
}