{
  "abi": [
    {
      "inputs": [
        {
          "internalType": "contract JBTiered721GovernanceDelegate",
          "name": "_onchainGovernance",
          "type": "address"
        },
        {
          "internalType": "contract JBTiered721Delegate",
          "name": "_noGovernance",
          "type": "address"
        },
        {
          "internalType": "contract IJBDelegatesRegistry",
          "name": "_delegatesRegistry",
          "type": "address"
        }
      ],
      "stateMutability": "nonpayable",
      "type": "constructor"
    },
    {
      "inputs": [],
      "name": "INVALID_GOVERNANCE_TYPE",
      "type": "error"
    },
    {
      "anonymous": false,
      "inputs": [
        {
          "indexed": true,
          "internalType": "uint256",
          "name": "projectId",
          "type": "uint256"
        },
        {
          "indexed": false,
          "internalType": "contract IJBTiered721Delegate",
          "name": "newDelegate",
          "type": "address"
        },
        {
          "indexed": false,
          "internalType": "enum JB721GovernanceType",
          "name": "governanceType",
          "type": "uint8"
        },
        {
          "indexed": false,
          "internalType": "contract IJBDirectory",
          "name": "directory",
          "type": "address"
        }
      ],
      "name": "DelegateDeployed",
      "type": "event"
    },
    {
      "inputs": [],
      "name": "delegatesRegistry",
      "outputs": [
        {
          "internalType": "contract IJBDelegatesRegistry",
          "name": "",
          "type": "address"
        }
      ],
      "stateMutability": "view",
      "type": "function"
    },
    {
      "inputs": [
        {
          "internalType": "uint256",
          "name": "_projectId",
          "type": "uint256"
        },
        {
          "components": [
            {
              "internalType": "string",
              "name": "name",
              "type": "string"
            },
            {
              "internalType": "string",
              "name": "symbol",
              "type": "string"
            },
            {
              "internalType": "contract IJBFundingCycleStore",
              "name": "fundingCycleStore",
              "type": "address"
            },
            {
              "internalType": "string",
              "name": "baseUri",
              "type": "string"
            },
            {
              "internalType": "contract IJBTokenUriResolver",
              "name": "tokenUriResolver",
              "type": "address"
            },
            {
              "internalType": "string",
              "name": "contractUri",
              "type": "string"
            },
            {
              "internalType": "address",
              "name": "owner",
              "type": "address"
            },
            {
              "components": [
                {
                  "components": [
                    {
                      "internalType": "uint96",
                      "name": "price",
                      "type": "uint96"
                    },
                    {
                      "internalType": "uint32",
                      "name": "initialQuantity",
                      "type": "uint32"
                    },
                    {
                      "internalType": "uint32",
                      "name": "votingUnits",
                      "type": "uint32"
                    },
                    {
                      "internalType": "uint16",
                      "name": "reservedRate",
                      "type": "uint16"
                    },
                    {
                      "internalType": "address",
                      "name": "reservedTokenBeneficiary",
                      "type": "address"
                    },
                    {
                      "internalType": "bytes32",
                      "name": "encodedIPFSUri",
                      "type": "bytes32"
                    },
                    {
                      "internalType": "uint16",
                      "name": "category",
                      "type": "uint16"
                    },
                    {
                      "internalType": "bool",
                      "name": "allowManualMint",
                      "type": "bool"
                    },
                    {
                      "internalType": "bool",
                      "name": "shouldUseReservedTokenBeneficiaryAsDefault",
                      "type": "bool"
                    },
                    {
                      "internalType": "bool",
                      "name": "transfersPausable",
                      "type": "bool"
                    },
                    {
                      "internalType": "bool",
                      "name": "useVotingUnits",
                      "type": "bool"
                    }
                  ],
                  "internalType": "struct JB721TierParams[]",
                  "name": "tiers",
                  "type": "tuple[]"
                },
                {
                  "internalType": "uint256",
                  "name": "currency",
                  "type": "uint256"
                },
                {
                  "internalType": "uint256",
                  "name": "decimals",
                  "type": "uint256"
                },
                {
                  "internalType": "contract IJBPrices",
                  "name": "prices",
                  "type": "address"
                }
              ],
              "internalType": "struct JB721PricingParams",
              "name": "pricing",
              "type": "tuple"
            },
            {
              "internalType": "address",
              "name": "reservedTokenBeneficiary",
              "type": "address"
            },
            {
              "internalType": "contract IJBTiered721DelegateStore",
              "name": "store",
              "type": "address"
            },
            {
              "components": [
                {
                  "internalType": "bool",
                  "name": "lockReservedTokenChanges",
                  "type": "bool"
                },
                {
                  "internalType": "bool",
                  "name": "lockVotingUnitChanges",
                  "type": "bool"
                },
                {
                  "internalType": "bool",
                  "name": "lockManualMintingChanges",
                  "type": "bool"
                },
                {
                  "internalType": "bool",
                  "name": "preventOverspending",
                  "type": "bool"
                }
              ],
              "internalType": "struct JBTiered721Flags",
              "name": "flags",
              "type": "tuple"
            },
            {
              "internalType": "enum JB721GovernanceType",
              "name": "governanceType",
              "type": "uint8"
            }
          ],
          "internalType": "struct JBDeployTiered721DelegateData",
          "name": "_deployTiered721DelegateData",
          "type": "tuple"
        },
        {
          "internalType": "contract IJBDirectory",
          "name": "_directory",
          "type": "address"
        }
      ],
      "name": "deployDelegateFor",
      "outputs": [
        {
          "internalType": "contract IJBTiered721Delegate",
          "name": "newDelegate",
          "type": "address"
        }
      ],
      "stateMutability": "nonpayable",
      "type": "function"
    },
    {
      "inputs": [],
      "name": "noGovernance",
      "outputs": [
        {
          "internalType": "contract JBTiered721Delegate",
          "name": "",
          "type": "address"
        }
      ],
      "stateMutability": "view",
      "type": "function"
    },
    {
      "inputs": [],
      "name": "onchainGovernance",
      "outputs": [
        {
          "internalType": "contract JBTiered721GovernanceDelegate",
          "name": "",
          "type": "address"
        }
      ],
      "stateMutability": "view",
      "type": "function"
    }
  ],
  "bytecode": {
    "object": "0x60e060405234801561001057600080fd5b50604051610d53380380610d5383398101604081905261002f91610064565b6001600160a01b0392831660805290821660a0521660c0526100b1565b6001600160a01b038116811461006157600080fd5b50565b60008060006060848603121561007957600080fd5b83516100848161004c565b60208501519093506100958161004c565b60408501519092506100a68161004c565b809150509250925092565b60805160a05160c051610c616100f26000396000818160d301526102b301526000818160990152610119015260008181605601526101670152610c616000f3fe608060405234801561001057600080fd5b506004361061004c5760003560e01c806303f3ddbf1461005157806338b6bcf4146100945780637233b899146100bb578063d574ff04146100ce575b600080fd5b6100787f000000000000000000000000000000000000000000000000000000000000000081565b6040516001600160a01b03909116815260200160405180910390f35b6100787f000000000000000000000000000000000000000000000000000000000000000081565b6100786100c93660046107c9565b6100f5565b6100787f000000000000000000000000000000000000000000000000000000000000000081565b600080836101600151600181111561010f5761010f610965565b036101445761013d7f000000000000000000000000000000000000000000000000000000000000000061039a565b90506101a4565b6001836101600151600181111561015d5761015d610965565b0361018b5761013d7f000000000000000000000000000000000000000000000000000000000000000061039a565b604051637c1d93dd60e01b815260040160405180910390fd5b806001600160a01b031663126d89f8858486600001518760200151886040015189606001518a608001518b60a001518c60e001518d61012001518e61014001516040518c63ffffffff1660e01b815260040161020a9b9a99989796959493929190610ad6565b600060405180830381600087803b15801561022457600080fd5b505af1158015610238573d6000803e3d6000fd5b5050505060c08301516001600160a01b0316156102b15760c083015160405163f2fde38b60e01b81526001600160a01b0391821660048201529082169063f2fde38b90602401600060405180830381600087803b15801561029857600080fd5b505af11580156102ac573d6000803e3d6000fd5b505050505b7f00000000000000000000000000000000000000000000000000000000000000006001600160a01b0316635bcfd2123060008081546102ef90610bbd565b91829055506040516001600160e01b031960e085901b1681526001600160a01b0390921660048301526024820152604401600060405180830381600087803b15801561033a57600080fd5b505af115801561034e573d6000803e3d6000fd5b50505050837fdf94a2124c0e7799cd42ca5abaf9ce6628a22214138de0716c14fb34aea8f67f828561016001518560405161038b93929190610be4565b60405180910390a29392505050565b6000763d602d80600a3d3981f3363d3d373d3d3d363d730000008260601b60e81c176000526e5af43d82803e903d91602b57fd5bf38260781b17602052603760096000f090506001600160a01b0381166104335760405162461bcd60e51b8152602060048201526016602482015275115490cc4c4d8dce8818dc99585d194819985a5b195960521b604482015260640160405180910390fd5b919050565b634e487b7160e01b600052604160045260246000fd5b6040516080810167ffffffffffffffff8111828210171561047157610471610438565b60405290565b604051610160810167ffffffffffffffff8111828210171561047157610471610438565b604051610180810167ffffffffffffffff8111828210171561047157610471610438565b604051601f8201601f1916810167ffffffffffffffff811182821017156104e8576104e8610438565b604052919050565b600082601f83011261050157600080fd5b813567ffffffffffffffff81111561051b5761051b610438565b61052e601f8201601f19166020016104bf565b81815284602083860101111561054357600080fd5b816020850160208301376000918101602001919091529392505050565b80356001600160a01b038116811461043357600080fd5b80356bffffffffffffffffffffffff8116811461043357600080fd5b803563ffffffff8116811461043357600080fd5b803561ffff8116811461043357600080fd5b8035801515811461043357600080fd5b600060808083850312156105dc57600080fd5b6105e461044e565b9150823567ffffffffffffffff808211156105fe57600080fd5b818501915085601f83011261061257600080fd5b813560208282111561062657610626610438565b610634818360051b016104bf565b828152818101935061016092830285018201928984111561065457600080fd5b948201945b838610156107355780868b0312156106715760008081fd5b610679610477565b61068287610577565b815261068f848801610593565b8482015260406106a0818901610593565b9082015260606106b18882016105a7565b908201526106c0878901610560565b8189015260a0878101359082015260c06106db8189016105a7565b9082015260e06106ec8882016105b9565b908201526101006106fe8882016105b9565b908201526101206107108882016105b9565b908201526101406107228882016105b9565b9082015285529485019493820193610659565b5086528681013590860152505050506040808301359082015261075a60608301610560565b606082015292915050565b60006080828403121561077757600080fd5b61077f61044e565b905061078a826105b9565b8152610798602083016105b9565b60208201526107a9604083016105b9565b604082015261075a606083016105b9565b80356002811061043357600080fd5b6000806000606084860312156107de57600080fd5b83359250602084013567ffffffffffffffff808211156107fd57600080fd5b908501906101e0828803121561081257600080fd5b61081a61049b565b82358281111561082957600080fd5b610835898286016104f0565b82525060208301358281111561084a57600080fd5b610856898286016104f0565b60208301525061086860408401610560565b604082015260608301358281111561087f57600080fd5b61088b898286016104f0565b60608301525061089d60808401610560565b608082015260a0830135828111156108b457600080fd5b6108c0898286016104f0565b60a0830152506108d260c08401610560565b60c082015260e0830135828111156108e957600080fd5b6108f5898286016105c9565b60e083015250610100915061090b828401610560565b82820152610120915061091f828401610560565b82820152610140915061093488838501610765565b828201526109456101c084016107ba565b610160820152935061095c91505060408501610560565b90509250925092565b634e487b7160e01b600052602160045260246000fd5b6000815180845260005b818110156109a157602081850181015186830182015201610985565b506000602082860101526020601f19601f83011685010191505092915050565b80516080808452815184820181905260009260a0916020918201918388019190865b82811015610a9b57845180516bffffffffffffffffffffffff1685528281015163ffffffff908116848701526040808301519091169086015260608082015161ffff90811691870191909152888201516001600160a01b031689870152878201518887015260c0808301519091169086015260e08082015115159086015261010080820151151590860152610120808201511515908601526101409081015115159085015293810193610160909301926001016109e3565b5080880151818a015250506040860151604088015260608601519350610acc60608801856001600160a01b03169052565b9695505050505050565b8b81526001600160a01b038b811660208301526101c060408301819052600091610b028483018e61097b565b91508382036060850152610b16828d61097b565b9150808b16608085015283820360a0850152610b32828b61097b565b90891660c085015283810360e08501529050610b4e818861097b565b9050828103610100840152610b6381876109c1565b915050610b7c6101208301856001600160a01b03169052565b825115156101408301526020830151151561016083015260408301511515610180830152606083015115156101a08301529c9b505050505050505050505050565b600060018201610bdd57634e487b7160e01b600052601160045260246000fd5b5060010190565b6001600160a01b038481168252606082019060028510610c1457634e487b7160e01b600052602160045260246000fd5b84602084015280841660408401525094935050505056fea2646970667358221220a48f06334cf05e1774297e7573a0ddadbb596339a45ee9512e54e54ce1cf673a64736f6c63430008110033",
    "linkReferences": {}
  },
  "methodIdentifiers": {
    "delegatesRegistry()": "d574ff04",
    "deployDelegateFor(uint256,(string,string,address,string,address,string,address,((uint96,uint32,uint32,uint16,address,bytes32,uint16,bool,bool,bool,bool)[],uint256,uint256,address),address,address,(bool,bool,bool,bool),uint8),address)": "7233b899",
    "noGovernance()": "38b6bcf4",
    "onchainGovernance()": "03f3ddbf"
  },
  "id": 1
}