{
  "abi": [
    {
      "inputs": [
        {
          "internalType": "contract JB721GlobalGovernance",
          "name": "_globalGovernance",
          "type": "address"
        },
        {
          "internalType": "contract JB721TieredGovernance",
          "name": "_tieredGovernance",
          "type": "address"
        },
        {
          "internalType": "contract JBTiered721Delegate",
          "name": "_noGovernance",
          "type": "address"
        }
      ],
      "stateMutability": "nonpayable",
      "type": "constructor"
    },
    {
      "inputs": [],
      "name": "INVALID_GOVERNANCE_TYPE",
      "type": "error"
    },
    {
      "anonymous": false,
      "inputs": [
        {
          "indexed": true,
          "internalType": "uint256",
          "name": "projectId",
          "type": "uint256"
        },
        {
          "indexed": false,
          "internalType": "contract IJBTiered721Delegate",
          "name": "newDelegate",
          "type": "address"
        },
        {
          "indexed": false,
          "internalType": "enum JB721GovernanceType",
          "name": "governanceType",
          "type": "uint8"
        }
      ],
      "name": "DelegateDeployed",
      "type": "event"
    },
    {
      "inputs": [
        {
          "internalType": "uint256",
          "name": "_projectId",
          "type": "uint256"
        },
        {
          "components": [
            {
              "internalType": "contract IJBDirectory",
              "name": "directory",
              "type": "address"
            },
            {
              "internalType": "string",
              "name": "name",
              "type": "string"
            },
            {
              "internalType": "string",
              "name": "symbol",
              "type": "string"
            },
            {
              "internalType": "contract IJBFundingCycleStore",
              "name": "fundingCycleStore",
              "type": "address"
            },
            {
              "internalType": "string",
              "name": "baseUri",
              "type": "string"
            },
            {
              "internalType": "contract IJBTokenUriResolver",
              "name": "tokenUriResolver",
              "type": "address"
            },
            {
              "internalType": "string",
              "name": "contractUri",
              "type": "string"
            },
            {
              "internalType": "address",
              "name": "owner",
              "type": "address"
            },
            {
              "components": [
                {
                  "components": [
                    {
                      "internalType": "uint80",
                      "name": "contributionFloor",
                      "type": "uint80"
                    },
                    {
                      "internalType": "uint48",
                      "name": "lockedUntil",
                      "type": "uint48"
                    },
                    {
                      "internalType": "uint40",
                      "name": "initialQuantity",
                      "type": "uint40"
                    },
                    {
                      "internalType": "uint16",
                      "name": "votingUnits",
                      "type": "uint16"
                    },
                    {
                      "internalType": "uint16",
                      "name": "reservedRate",
                      "type": "uint16"
                    },
                    {
                      "internalType": "address",
                      "name": "reservedTokenBeneficiary",
                      "type": "address"
                    },
                    {
                      "internalType": "uint8",
                      "name": "royaltyRate",
                      "type": "uint8"
                    },
                    {
                      "internalType": "address",
                      "name": "royaltyBeneficiary",
                      "type": "address"
                    },
                    {
                      "internalType": "bytes32",
                      "name": "encodedIPFSUri",
                      "type": "bytes32"
                    },
                    {
                      "internalType": "uint8",
                      "name": "category",
                      "type": "uint8"
                    },
                    {
                      "internalType": "bool",
                      "name": "allowManualMint",
                      "type": "bool"
                    },
                    {
                      "internalType": "bool",
                      "name": "shouldUseReservedTokenBeneficiaryAsDefault",
                      "type": "bool"
                    },
                    {
                      "internalType": "bool",
                      "name": "shouldUseRoyaltyBeneficiaryAsDefault",
                      "type": "bool"
                    },
                    {
                      "internalType": "bool",
                      "name": "transfersPausable",
                      "type": "bool"
                    }
                  ],
                  "internalType": "struct JB721TierParams[]",
                  "name": "tiers",
                  "type": "tuple[]"
                },
                {
                  "internalType": "uint256",
                  "name": "currency",
                  "type": "uint256"
                },
                {
                  "internalType": "uint256",
                  "name": "decimals",
                  "type": "uint256"
                },
                {
                  "internalType": "contract IJBPrices",
                  "name": "prices",
                  "type": "address"
                }
              ],
              "internalType": "struct JB721PricingParams",
              "name": "pricing",
              "type": "tuple"
            },
            {
              "internalType": "address",
              "name": "reservedTokenBeneficiary",
              "type": "address"
            },
            {
              "internalType": "contract IJBTiered721DelegateStore",
              "name": "store",
              "type": "address"
            },
            {
              "components": [
                {
                  "internalType": "bool",
                  "name": "lockReservedTokenChanges",
                  "type": "bool"
                },
                {
                  "internalType": "bool",
                  "name": "lockVotingUnitChanges",
                  "type": "bool"
                },
                {
                  "internalType": "bool",
                  "name": "lockManualMintingChanges",
                  "type": "bool"
                },
                {
                  "internalType": "bool",
                  "name": "preventOverspending",
                  "type": "bool"
                }
              ],
              "internalType": "struct JBTiered721Flags",
              "name": "flags",
              "type": "tuple"
            },
            {
              "internalType": "enum JB721GovernanceType",
              "name": "governanceType",
              "type": "uint8"
            }
          ],
          "internalType": "struct JBDeployTiered721DelegateData",
          "name": "_deployTiered721DelegateData",
          "type": "tuple"
        }
      ],
      "name": "deployDelegateFor",
      "outputs": [
        {
          "internalType": "contract IJBTiered721Delegate",
          "name": "newDelegate",
          "type": "address"
        }
      ],
      "stateMutability": "nonpayable",
      "type": "function"
    },
    {
      "inputs": [],
      "name": "globalGovernance",
      "outputs": [
        {
          "internalType": "contract JB721GlobalGovernance",
          "name": "",
          "type": "address"
        }
      ],
      "stateMutability": "view",
      "type": "function"
    },
    {
      "inputs": [],
      "name": "noGovernance",
      "outputs": [
        {
          "internalType": "contract JBTiered721Delegate",
          "name": "",
          "type": "address"
        }
      ],
      "stateMutability": "view",
      "type": "function"
    },
    {
      "inputs": [],
      "name": "tieredGovernance",
      "outputs": [
        {
          "internalType": "contract JB721TieredGovernance",
          "name": "",
          "type": "address"
        }
      ],
      "stateMutability": "view",
      "type": "function"
    }
  ],
  "bytecode": {
    "object": "0x60e060405234801561001057600080fd5b50604051610d5f380380610d5f83398101604081905261002f91610064565b6001600160a01b0392831660805290821660a0521660c0526100b1565b6001600160a01b038116811461006157600080fd5b50565b60008060006060848603121561007957600080fd5b83516100848161004c565b60208501519093506100958161004c565b60408501519092506100a68161004c565b809150509250925092565b60805160a05160c051610c6d6100f2600039600081816056015261011901526000818160ac015261016701526000818160d301526101ae0152610c6d6000f3fe608060405234801561001057600080fd5b506004361061004c5760003560e01c806338b6bcf41461005157806369854153146100945780637dd6a451146100a7578063d5fe3d2b146100ce575b600080fd5b6100787f000000000000000000000000000000000000000000000000000000000000000081565b6040516001600160a01b03909116815260200160405180910390f35b6100786100a23660046107d0565b6100f5565b6100787f000000000000000000000000000000000000000000000000000000000000000081565b6100787f000000000000000000000000000000000000000000000000000000000000000081565b600080826101800151600281111561010f5761010f610970565b036101445761013d7f0000000000000000000000000000000000000000000000000000000000000000610342565b90506101eb565b6001826101800151600281111561015d5761015d610970565b0361018b5761013d7f0000000000000000000000000000000000000000000000000000000000000000610342565b600282610180015160028111156101a4576101a4610970565b036101d25761013d7f0000000000000000000000000000000000000000000000000000000000000000610342565b604051637c1d93dd60e01b815260040160405180910390fd5b806001600160a01b031663d1704baf84846000015185602001518660400151876060015188608001518960a001518a60c001518b61010001518c61014001518d61016001516040518c63ffffffff1660e01b81526004016102569b9a99989796959493929190610b15565b600060405180830381600087803b15801561027057600080fd5b505af1158015610284573d6000803e3d6000fd5b5050505060e08201516001600160a01b0316156102fd5760e082015160405163f2fde38b60e01b81526001600160a01b0391821660048201529082169063f2fde38b90602401600060405180830381600087803b1580156102e457600080fd5b505af11580156102f8573d6000803e3d6000fd5b505050505b827fa1dcc57d57a99af26e68a9d0181c52742fdf009c0bbe62ed6a635c312b2ec2f582846101800151604051610334929190610bfc565b60405180910390a292915050565b6000604051733d602d80600a3d3981f3363d3d373d3d3d363d7360601b81528260601b60148201526e5af43d82803e903d91602b57fd5bf360881b60288201526037816000f09150506001600160a01b0381166103de5760405162461bcd60e51b8152602060048201526016602482015275115490cc4c4d8dce8818dc99585d194819985a5b195960521b604482015260640160405180910390fd5b919050565b634e487b7160e01b600052604160045260246000fd5b6040516080810167ffffffffffffffff8111828210171561041c5761041c6103e3565b60405290565b6040516101c0810167ffffffffffffffff8111828210171561041c5761041c6103e3565b6040516101a0810167ffffffffffffffff8111828210171561041c5761041c6103e3565b604051601f8201601f1916810167ffffffffffffffff81118282101715610493576104936103e3565b604052919050565b80356001600160a01b03811681146103de57600080fd5b600082601f8301126104c357600080fd5b813567ffffffffffffffff8111156104dd576104dd6103e3565b6104f0601f8201601f191660200161046a565b81815284602083860101111561050557600080fd5b816020850160208301376000918101602001919091529392505050565b803569ffffffffffffffffffff811681146103de57600080fd5b803565ffffffffffff811681146103de57600080fd5b803564ffffffffff811681146103de57600080fd5b803561ffff811681146103de57600080fd5b803560ff811681146103de57600080fd5b803580151581146103de57600080fd5b600060808083850312156105ad57600080fd5b6105b56103f9565b9150823567ffffffffffffffff808211156105cf57600080fd5b818501915085601f8301126105e357600080fd5b81356020828211156105f7576105f76103e3565b610605818360051b0161046a565b82815281810193506101c092830285018201928984111561062557600080fd5b948201945b8386101561073c5780868b0312156106425760008081fd5b61064a610422565b61065387610522565b815261066084880161053c565b848201526040610671818901610552565b908201526060610682888201610567565b90820152610691878901610567565b8882015260a06106a281890161049b565b9082015260c06106b3888201610579565b9082015260e06106c488820161049b565b9082015261010087810135908201526101206106e1818901610579565b908201526101406106f388820161058a565b9082015261016061070588820161058a565b9082015261018061071788820161058a565b908201526101a061072988820161058a565b908201528552948501949382019361062a565b508652868101359086015250505050604080830135908201526107616060830161049b565b606082015292915050565b60006080828403121561077e57600080fd5b6107866103f9565b90506107918261058a565b815261079f6020830161058a565b60208201526107b06040830161058a565b60408201526107616060830161058a565b8035600381106103de57600080fd5b600080604083850312156107e357600080fd5b82359150602083013567ffffffffffffffff8082111561080257600080fd5b90840190610200828703121561081757600080fd5b61081f610446565b6108288361049b565b815260208301358281111561083c57600080fd5b610848888286016104b2565b60208301525060408301358281111561086057600080fd5b61086c888286016104b2565b60408301525061087e6060840161049b565b606082015260808301358281111561089557600080fd5b6108a1888286016104b2565b6080830152506108b360a0840161049b565b60a082015260c0830135828111156108ca57600080fd5b6108d6888286016104b2565b60c0830152506108e860e0840161049b565b60e0820152610100808401358381111561090157600080fd5b61090d8982870161059a565b828401525050610120915061092382840161049b565b82820152610140915061093782840161049b565b82820152610160915061094c8783850161076c565b8282015261095d6101e084016107c1565b6101808201528093505050509250929050565b634e487b7160e01b600052602160045260246000fd5b6000815180845260005b818110156109ac57602081850181015186830182015201610990565b506000602082860101526020601f19601f83011685010191505092915050565b80516080808452815184820181905260009260a0916020918201918388019190865b82811015610ada578451805169ffffffffffffffffffff1685528281015165ffffffffffff168386015260408082015164ffffffffff169086015260608082015161ffff90811691870191909152888201511688860152868101516001600160a01b039081168887015260c08083015160ff9081169188019190915260e08084015190921691870191909152610100808301519087015261012080830151909116908601526101408082015115159086015261016080820151151590860152610180808201511515908601526101a090810151151590850152938101936101c0909301926001016109ee565b5080880151818a015250506040860151604088015260608601519350610b0b60608801856001600160a01b03169052565b9695505050505050565b8b81526001600160a01b038b811660208301526101c060408301819052600091610b418483018e610986565b91508382036060850152610b55828d610986565b9150808b16608085015283820360a0850152610b71828b610986565b90891660c085015283810360e08501529050610b8d8188610986565b9050828103610100840152610ba281876109cc565b915050610bbb6101208301856001600160a01b03169052565b825115156101408301526020830151151561016083015260408301511515610180830152606083015115156101a08301529c9b505050505050505050505050565b6001600160a01b03831681526040810160038310610c2a57634e487b7160e01b600052602160045260246000fd5b826020830152939250505056fea26469706673582212204e636882c8ea3b143cd78e9d0fffa7b0bb94c754865072c7c28f9ffc7553060a64736f6c63430008110033",
    "linkReferences": {}
  },
  "methodIdentifiers": {
    "deployDelegateFor(uint256,(address,string,string,address,string,address,string,address,((uint80,uint48,uint40,uint16,uint16,address,uint8,address,bytes32,uint8,bool,bool,bool,bool)[],uint256,uint256,address),address,address,(bool,bool,bool,bool),uint8))": "69854153",
    "globalGovernance()": "d5fe3d2b",
    "noGovernance()": "38b6bcf4",
    "tieredGovernance()": "7dd6a451"
  },
  "id": 3
}