{
  "abi": [
    {
      "inputs": [
        {
          "internalType": "contract JB721GlobalGovernance",
          "name": "_globalGovernance",
          "type": "address"
        },
        {
          "internalType": "contract JB721TieredGovernance",
          "name": "_tieredGovernance",
          "type": "address"
        },
        {
          "internalType": "contract JBTiered721Delegate",
          "name": "_noGovernance",
          "type": "address"
        },
        {
          "internalType": "contract IJBDelegatesRegistry",
          "name": "_delegatesRegistry",
          "type": "address"
        }
      ],
      "stateMutability": "nonpayable",
      "type": "constructor"
    },
    {
      "inputs": [],
      "name": "INVALID_GOVERNANCE_TYPE",
      "type": "error"
    },
    {
      "anonymous": false,
      "inputs": [
        {
          "indexed": true,
          "internalType": "uint256",
          "name": "projectId",
          "type": "uint256"
        },
        {
          "indexed": false,
          "internalType": "contract IJBTiered721Delegate",
          "name": "newDelegate",
          "type": "address"
        },
        {
          "indexed": false,
          "internalType": "enum JB721GovernanceType",
          "name": "governanceType",
          "type": "uint8"
        },
        {
          "indexed": false,
          "internalType": "contract IJBDirectory",
          "name": "directory",
          "type": "address"
        }
      ],
      "name": "DelegateDeployed",
      "type": "event"
    },
    {
      "inputs": [],
      "name": "delegatesRegistry",
      "outputs": [
        {
          "internalType": "contract IJBDelegatesRegistry",
          "name": "",
          "type": "address"
        }
      ],
      "stateMutability": "view",
      "type": "function"
    },
    {
      "inputs": [
        {
          "internalType": "uint256",
          "name": "_projectId",
          "type": "uint256"
        },
        {
          "components": [
            {
              "internalType": "string",
              "name": "name",
              "type": "string"
            },
            {
              "internalType": "string",
              "name": "symbol",
              "type": "string"
            },
            {
              "internalType": "contract IJBFundingCycleStore",
              "name": "fundingCycleStore",
              "type": "address"
            },
            {
              "internalType": "string",
              "name": "baseUri",
              "type": "string"
            },
            {
              "internalType": "contract IJBTokenUriResolver",
              "name": "tokenUriResolver",
              "type": "address"
            },
            {
              "internalType": "string",
              "name": "contractUri",
              "type": "string"
            },
            {
              "internalType": "address",
              "name": "owner",
              "type": "address"
            },
            {
              "components": [
                {
                  "components": [
                    {
                      "internalType": "uint88",
                      "name": "price",
                      "type": "uint88"
                    },
                    {
                      "internalType": "uint40",
                      "name": "initialQuantity",
                      "type": "uint40"
                    },
                    {
                      "internalType": "uint40",
                      "name": "votingUnits",
                      "type": "uint40"
                    },
                    {
                      "internalType": "uint16",
                      "name": "reservedRate",
                      "type": "uint16"
                    },
                    {
                      "internalType": "address",
                      "name": "reservedTokenBeneficiary",
                      "type": "address"
                    },
                    {
                      "internalType": "uint8",
                      "name": "royaltyRate",
                      "type": "uint8"
                    },
                    {
                      "internalType": "address",
                      "name": "royaltyBeneficiary",
                      "type": "address"
                    },
                    {
                      "internalType": "bytes32",
                      "name": "encodedIPFSUri",
                      "type": "bytes32"
                    },
                    {
                      "internalType": "uint16",
                      "name": "category",
                      "type": "uint16"
                    },
                    {
                      "internalType": "bool",
                      "name": "allowManualMint",
                      "type": "bool"
                    },
                    {
                      "internalType": "bool",
                      "name": "shouldUseReservedTokenBeneficiaryAsDefault",
                      "type": "bool"
                    },
                    {
                      "internalType": "bool",
                      "name": "shouldUseRoyaltyBeneficiaryAsDefault",
                      "type": "bool"
                    },
                    {
                      "internalType": "bool",
                      "name": "transfersPausable",
                      "type": "bool"
                    },
                    {
                      "internalType": "bool",
                      "name": "useVotingUnits",
                      "type": "bool"
                    }
                  ],
                  "internalType": "struct JB721TierParams[]",
                  "name": "tiers",
                  "type": "tuple[]"
                },
                {
                  "internalType": "uint256",
                  "name": "currency",
                  "type": "uint256"
                },
                {
                  "internalType": "uint256",
                  "name": "decimals",
                  "type": "uint256"
                },
                {
                  "internalType": "contract IJBPrices",
                  "name": "prices",
                  "type": "address"
                }
              ],
              "internalType": "struct JB721PricingParams",
              "name": "pricing",
              "type": "tuple"
            },
            {
              "internalType": "address",
              "name": "reservedTokenBeneficiary",
              "type": "address"
            },
            {
              "internalType": "contract IJBTiered721DelegateStore",
              "name": "store",
              "type": "address"
            },
            {
              "components": [
                {
                  "internalType": "bool",
                  "name": "lockReservedTokenChanges",
                  "type": "bool"
                },
                {
                  "internalType": "bool",
                  "name": "lockVotingUnitChanges",
                  "type": "bool"
                },
                {
                  "internalType": "bool",
                  "name": "lockManualMintingChanges",
                  "type": "bool"
                },
                {
                  "internalType": "bool",
                  "name": "preventOverspending",
                  "type": "bool"
                }
              ],
              "internalType": "struct JBTiered721Flags",
              "name": "flags",
              "type": "tuple"
            },
            {
              "internalType": "enum JB721GovernanceType",
              "name": "governanceType",
              "type": "uint8"
            }
          ],
          "internalType": "struct JBDeployTiered721DelegateData",
          "name": "_deployTiered721DelegateData",
          "type": "tuple"
        },
        {
          "internalType": "contract IJBDirectory",
          "name": "_directory",
          "type": "address"
        }
      ],
      "name": "deployDelegateFor",
      "outputs": [
        {
          "internalType": "contract IJBTiered721Delegate",
          "name": "newDelegate",
          "type": "address"
        }
      ],
      "stateMutability": "nonpayable",
      "type": "function"
    },
    {
      "inputs": [],
      "name": "globalGovernance",
      "outputs": [
        {
          "internalType": "contract JB721GlobalGovernance",
          "name": "",
          "type": "address"
        }
      ],
      "stateMutability": "view",
      "type": "function"
    },
    {
      "inputs": [],
      "name": "noGovernance",
      "outputs": [
        {
          "internalType": "contract JBTiered721Delegate",
          "name": "",
          "type": "address"
        }
      ],
      "stateMutability": "view",
      "type": "function"
    },
    {
      "inputs": [],
      "name": "tieredGovernance",
      "outputs": [
        {
          "internalType": "contract JB721TieredGovernance",
          "name": "",
          "type": "address"
        }
      ],
      "stateMutability": "view",
      "type": "function"
    }
  ],
  "bytecode": {
    "object": "0x61010060405234801561001157600080fd5b50604051610e67380380610e678339810160408190526100309161006a565b6001600160a01b0393841660805291831660a052821660c0521660e0526100c9565b6001600160a01b038116811461006757600080fd5b50565b6000806000806080858703121561008057600080fd5b845161008b81610052565b602086015190945061009c81610052565b60408601519093506100ad81610052565b60608601519092506100be81610052565b939692955090935050565b60805160a05160c05160e051610d4c61011b6000396000818160de015261032c0152600081816090015261014b01526000818160b7015261019901526000818161010501526101e00152610d4c6000f3fe608060405234801561001057600080fd5b50600436106100575760003560e01c80632fee41ec1461005c57806338b6bcf41461008b5780637dd6a451146100b2578063d574ff04146100d9578063d5fe3d2b14610100575b600080fd5b61006f61006a366004610889565b610127565b6040516001600160a01b03909116815260200160405180910390f35b61006f7f000000000000000000000000000000000000000000000000000000000000000081565b61006f7f000000000000000000000000000000000000000000000000000000000000000081565b61006f7f000000000000000000000000000000000000000000000000000000000000000081565b61006f7f000000000000000000000000000000000000000000000000000000000000000081565b600080836101600151600281111561014157610141610a25565b036101765761016f7f0000000000000000000000000000000000000000000000000000000000000000610413565b905061021d565b6001836101600151600281111561018f5761018f610a25565b036101bd5761016f7f0000000000000000000000000000000000000000000000000000000000000000610413565b600283610160015160028111156101d6576101d6610a25565b036102045761016f7f0000000000000000000000000000000000000000000000000000000000000000610413565b604051637c1d93dd60e01b815260040160405180910390fd5b806001600160a01b0316639521e381858486600001518760200151886040015189606001518a608001518b60a001518c60e001518d61012001518e61014001516040518c63ffffffff1660e01b81526004016102839b9a99989796959493929190610bc1565b600060405180830381600087803b15801561029d57600080fd5b505af11580156102b1573d6000803e3d6000fd5b5050505060c08301516001600160a01b03161561032a5760c083015160405163f2fde38b60e01b81526001600160a01b0391821660048201529082169063f2fde38b90602401600060405180830381600087803b15801561031157600080fd5b505af1158015610325573d6000803e3d6000fd5b505050505b7f00000000000000000000000000000000000000000000000000000000000000006001600160a01b0316635bcfd21230600080815461036890610ca8565b91829055506040516001600160e01b031960e085901b1681526001600160a01b0390921660048301526024820152604401600060405180830381600087803b1580156103b357600080fd5b505af11580156103c7573d6000803e3d6000fd5b50505050837fdf94a2124c0e7799cd42ca5abaf9ce6628a22214138de0716c14fb34aea8f67f828561016001518560405161040493929190610ccf565b60405180910390a29392505050565b6000763d602d80600a3d3981f3363d3d373d3d3d363d730000008260601b60e81c176000526e5af43d82803e903d91602b57fd5bf38260781b17602052603760096000f090506001600160a01b0381166104ac5760405162461bcd60e51b8152602060048201526016602482015275115490cc4c4d8dce8818dc99585d194819985a5b195960521b604482015260640160405180910390fd5b919050565b634e487b7160e01b600052604160045260246000fd5b6040516080810167ffffffffffffffff811182821017156104ea576104ea6104b1565b60405290565b6040516101c0810167ffffffffffffffff811182821017156104ea576104ea6104b1565b604051610180810167ffffffffffffffff811182821017156104ea576104ea6104b1565b604051601f8201601f1916810167ffffffffffffffff81118282101715610561576105616104b1565b604052919050565b600082601f83011261057a57600080fd5b813567ffffffffffffffff811115610594576105946104b1565b6105a7601f8201601f1916602001610538565b8181528460208386010111156105bc57600080fd5b816020850160208301376000918101602001919091529392505050565b80356001600160a01b03811681146104ac57600080fd5b80356affffffffffffffffffffff811681146104ac57600080fd5b803564ffffffffff811681146104ac57600080fd5b803561ffff811681146104ac57600080fd5b803560ff811681146104ac57600080fd5b803580151581146104ac57600080fd5b6000608080838503121561066657600080fd5b61066e6104c7565b9150823567ffffffffffffffff8082111561068857600080fd5b818501915085601f83011261069c57600080fd5b81356020828211156106b0576106b06104b1565b6106be818360051b01610538565b82815281810193506101c09283028501820192898411156106de57600080fd5b948201945b838610156107f55780868b0312156106fb5760008081fd5b6107036104f0565b61070c876105f0565b815261071984880161060b565b84820152604061072a81890161060b565b90820152606061073b888201610620565b9082015261074a8789016105d9565b8882015260a061075b818901610632565b9082015260c061076c8882016105d9565b9082015260e08781013590820152610100610788818901610620565b9082015261012061079a888201610643565b908201526101406107ac888201610643565b908201526101606107be888201610643565b908201526101806107d0888201610643565b908201526101a06107e2888201610643565b90820152855294850194938201936106e3565b5086528681013590860152505050506040808301359082015261081a606083016105d9565b606082015292915050565b60006080828403121561083757600080fd5b61083f6104c7565b905061084a82610643565b815261085860208301610643565b602082015261086960408301610643565b604082015261081a60608301610643565b8035600381106104ac57600080fd5b60008060006060848603121561089e57600080fd5b83359250602084013567ffffffffffffffff808211156108bd57600080fd5b908501906101e082880312156108d257600080fd5b6108da610514565b8235828111156108e957600080fd5b6108f589828601610569565b82525060208301358281111561090a57600080fd5b61091689828601610569565b602083015250610928604084016105d9565b604082015260608301358281111561093f57600080fd5b61094b89828601610569565b60608301525061095d608084016105d9565b608082015260a08301358281111561097457600080fd5b61098089828601610569565b60a08301525061099260c084016105d9565b60c082015260e0830135828111156109a957600080fd5b6109b589828601610653565b60e08301525061010091506109cb8284016105d9565b8282015261012091506109df8284016105d9565b8282015261014091506109f488838501610825565b82820152610a056101c0840161087a565b6101608201529350610a1c915050604085016105d9565b90509250925092565b634e487b7160e01b600052602160045260246000fd5b6000815180845260005b81811015610a6157602081850181015186830182015201610a45565b506000602082860101526020601f19601f83011685010191505092915050565b80516080808452815184820181905260009260a0916020918201918388019190865b82811015610b8657845180516affffffffffffffffffffff1685528281015164ffffffffff908116848701526040808301519091169086015260608082015161ffff90811691870191909152888201516001600160a01b039081168a8801528883015160ff168988015260c0808401519091169087015260e080830151908701526101008083015190911690860152610120808201511515908601526101408082015115159086015261016080820151151590860152610180808201511515908601526101a090810151151590850152938101936101c090930192600101610aa3565b5080880151818a015250506040860151604088015260608601519350610bb760608801856001600160a01b03169052565b9695505050505050565b8b81526001600160a01b038b811660208301526101c060408301819052600091610bed8483018e610a3b565b91508382036060850152610c01828d610a3b565b9150808b16608085015283820360a0850152610c1d828b610a3b565b90891660c085015283810360e08501529050610c398188610a3b565b9050828103610100840152610c4e8187610a81565b915050610c676101208301856001600160a01b03169052565b825115156101408301526020830151151561016083015260408301511515610180830152606083015115156101a08301529c9b505050505050505050505050565b600060018201610cc857634e487b7160e01b600052601160045260246000fd5b5060010190565b6001600160a01b038481168252606082019060038510610cff57634e487b7160e01b600052602160045260246000fd5b84602084015280841660408401525094935050505056fea2646970667358221220dbece225650271621f7065cd86e4edc9c561a475a5bedce8c5132272f2b2ba8864736f6c63430008110033",
    "linkReferences": {}
  },
  "methodIdentifiers": {
    "delegatesRegistry()": "d574ff04",
    "deployDelegateFor(uint256,(string,string,address,string,address,string,address,((uint88,uint40,uint40,uint16,address,uint8,address,bytes32,uint16,bool,bool,bool,bool,bool)[],uint256,uint256,address),address,address,(bool,bool,bool,bool),uint8),address)": "2fee41ec",
    "globalGovernance()": "d5fe3d2b",
    "noGovernance()": "38b6bcf4",
    "tieredGovernance()": "7dd6a451"
  },
  "id": 3
}