{
  "abi": [
    {
      "inputs": [],
      "name": "ALEADY_MINTED",
      "type": "error"
    },
    {
      "inputs": [],
      "name": "APPROVAL_TO_CURRENT_OWNER",
      "type": "error"
    },
    {
      "inputs": [],
      "name": "APPROVE_TO_CALLER",
      "type": "error"
    },
    {
      "inputs": [],
      "name": "BLOCK_NOT_YET_MINED",
      "type": "error"
    },
    {
      "inputs": [],
      "name": "CALLER_NOT_OWNER_OR_APPROVED",
      "type": "error"
    },
    {
      "inputs": [],
      "name": "INCORRECT_OWNER",
      "type": "error"
    },
    {
      "inputs": [],
      "name": "INVALID",
      "type": "error"
    },
    {
      "inputs": [],
      "name": "INVALID_PAYMENT_EVENT",
      "type": "error"
    },
    {
      "inputs": [],
      "name": "INVALID_REDEMPTION_EVENT",
      "type": "error"
    },
    {
      "inputs": [],
      "name": "INVALID_REDEMPTION_METADATA",
      "type": "error"
    },
    {
      "inputs": [],
      "name": "INVALID_TOKEN_ID",
      "type": "error"
    },
    {
      "inputs": [],
      "name": "MINT_TO_ZERO",
      "type": "error"
    },
    {
      "inputs": [],
      "name": "NOT_AVAILABLE",
      "type": "error"
    },
    {
      "inputs": [],
      "name": "OVERSPENDING",
      "type": "error"
    },
    {
      "inputs": [
        {
          "internalType": "uint256",
          "name": "prod1",
          "type": "uint256"
        },
        {
          "internalType": "uint256",
          "name": "denominator",
          "type": "uint256"
        }
      ],
      "name": "PRBMath__MulDivOverflow",
      "type": "error"
    },
    {
      "inputs": [],
      "name": "PRICING_RESOLVER_CHANGES_PAUSED",
      "type": "error"
    },
    {
      "inputs": [],
      "name": "RESERVED_TOKEN_MINTING_PAUSED",
      "type": "error"
    },
    {
      "inputs": [],
      "name": "SIGNATURE_EXPIRED",
      "type": "error"
    },
    {
      "inputs": [],
      "name": "TRANSFERS_PAUSED",
      "type": "error"
    },
    {
      "inputs": [],
      "name": "TRANSFER_TO_NON_IMPLEMENTER",
      "type": "error"
    },
    {
      "inputs": [],
      "name": "TRANSFER_TO_ZERO_ADDRESS",
      "type": "error"
    },
    {
      "inputs": [],
      "name": "UNAUTHORIZED",
      "type": "error"
    },
    {
      "inputs": [],
      "name": "UNEXPECTED_TOKEN_REDEEMED",
      "type": "error"
    },
    {
      "anonymous": false,
      "inputs": [
        {
          "indexed": true,
          "internalType": "uint256",
          "name": "tierId",
          "type": "uint256"
        },
        {
          "components": [
            {
              "internalType": "uint256",
              "name": "contributionFloor",
              "type": "uint256"
            },
            {
              "internalType": "uint256",
              "name": "lockedUntil",
              "type": "uint256"
            },
            {
              "internalType": "uint256",
              "name": "initialQuantity",
              "type": "uint256"
            },
            {
              "internalType": "uint256",
              "name": "votingUnits",
              "type": "uint256"
            },
            {
              "internalType": "uint256",
              "name": "reservedRate",
              "type": "uint256"
            },
            {
              "internalType": "address",
              "name": "reservedTokenBeneficiary",
              "type": "address"
            },
            {
              "internalType": "bytes32",
              "name": "encodedIPFSUri",
              "type": "bytes32"
            },
            {
              "internalType": "bool",
              "name": "allowManualMint",
              "type": "bool"
            },
            {
              "internalType": "bool",
              "name": "shouldUseBeneficiaryAsDefault",
              "type": "bool"
            }
          ],
          "indexed": false,
          "internalType": "struct JB721TierParams",
          "name": "data",
          "type": "tuple"
        },
        {
          "indexed": false,
          "internalType": "address",
          "name": "caller",
          "type": "address"
        }
      ],
      "name": "AddTier",
      "type": "event"
    },
    {
      "anonymous": false,
      "inputs": [
        {
          "indexed": true,
          "internalType": "address",
          "name": "owner",
          "type": "address"
        },
        {
          "indexed": true,
          "internalType": "address",
          "name": "approved",
          "type": "address"
        },
        {
          "indexed": true,
          "internalType": "uint256",
          "name": "tokenId",
          "type": "uint256"
        }
      ],
      "name": "Approval",
      "type": "event"
    },
    {
      "anonymous": false,
      "inputs": [
        {
          "indexed": true,
          "internalType": "address",
          "name": "owner",
          "type": "address"
        },
        {
          "indexed": true,
          "internalType": "address",
          "name": "operator",
          "type": "address"
        },
        {
          "indexed": false,
          "internalType": "bool",
          "name": "approved",
          "type": "bool"
        }
      ],
      "name": "ApprovalForAll",
      "type": "event"
    },
    {
      "anonymous": false,
      "inputs": [
        {
          "indexed": true,
          "internalType": "address",
          "name": "delegator",
          "type": "address"
        },
        {
          "indexed": true,
          "internalType": "address",
          "name": "fromDelegate",
          "type": "address"
        },
        {
          "indexed": true,
          "internalType": "address",
          "name": "toDelegate",
          "type": "address"
        }
      ],
      "name": "DelegateChanged",
      "type": "event"
    },
    {
      "anonymous": false,
      "inputs": [
        {
          "indexed": true,
          "internalType": "address",
          "name": "delegate",
          "type": "address"
        },
        {
          "indexed": false,
          "internalType": "uint256",
          "name": "previousBalance",
          "type": "uint256"
        },
        {
          "indexed": false,
          "internalType": "uint256",
          "name": "newBalance",
          "type": "uint256"
        }
      ],
      "name": "DelegateVotesChanged",
      "type": "event"
    },
    {
      "anonymous": false,
      "inputs": [
        {
          "indexed": true,
          "internalType": "uint256",
          "name": "tokenId",
          "type": "uint256"
        },
        {
          "indexed": true,
          "internalType": "uint256",
          "name": "tierId",
          "type": "uint256"
        },
        {
          "indexed": true,
          "internalType": "address",
          "name": "beneficiary",
          "type": "address"
        },
        {
          "indexed": false,
          "internalType": "uint256",
          "name": "totalAmountContributed",
          "type": "uint256"
        },
        {
          "indexed": false,
          "internalType": "address",
          "name": "caller",
          "type": "address"
        }
      ],
      "name": "Mint",
      "type": "event"
    },
    {
      "anonymous": false,
      "inputs": [
        {
          "indexed": true,
          "internalType": "uint256",
          "name": "tokenId",
          "type": "uint256"
        },
        {
          "indexed": true,
          "internalType": "uint256",
          "name": "tierId",
          "type": "uint256"
        },
        {
          "indexed": true,
          "internalType": "address",
          "name": "beneficiary",
          "type": "address"
        },
        {
          "indexed": false,
          "internalType": "address",
          "name": "caller",
          "type": "address"
        }
      ],
      "name": "MintReservedToken",
      "type": "event"
    },
    {
      "anonymous": false,
      "inputs": [
        {
          "indexed": true,
          "internalType": "address",
          "name": "previousOwner",
          "type": "address"
        },
        {
          "indexed": true,
          "internalType": "address",
          "name": "newOwner",
          "type": "address"
        }
      ],
      "name": "OwnershipTransferred",
      "type": "event"
    },
    {
      "anonymous": false,
      "inputs": [
        {
          "indexed": true,
          "internalType": "uint256",
          "name": "tierId",
          "type": "uint256"
        },
        {
          "indexed": false,
          "internalType": "address",
          "name": "caller",
          "type": "address"
        }
      ],
      "name": "RemoveTier",
      "type": "event"
    },
    {
      "anonymous": false,
      "inputs": [
        {
          "indexed": true,
          "internalType": "string",
          "name": "baseUri",
          "type": "string"
        },
        {
          "indexed": false,
          "internalType": "address",
          "name": "caller",
          "type": "address"
        }
      ],
      "name": "SetBaseUri",
      "type": "event"
    },
    {
      "anonymous": false,
      "inputs": [
        {
          "indexed": true,
          "internalType": "string",
          "name": "contractUri",
          "type": "string"
        },
        {
          "indexed": false,
          "internalType": "address",
          "name": "caller",
          "type": "address"
        }
      ],
      "name": "SetContractUri",
      "type": "event"
    },
    {
      "anonymous": false,
      "inputs": [
        {
          "indexed": true,
          "internalType": "address",
          "name": "beneficiary",
          "type": "address"
        },
        {
          "indexed": false,
          "internalType": "address",
          "name": "caller",
          "type": "address"
        }
      ],
      "name": "SetDefaultReservedTokenBeneficiary",
      "type": "event"
    },
    {
      "anonymous": false,
      "inputs": [
        {
          "indexed": true,
          "internalType": "contract IJBTokenUriResolver",
          "name": "newResolver",
          "type": "address"
        },
        {
          "indexed": false,
          "internalType": "address",
          "name": "caller",
          "type": "address"
        }
      ],
      "name": "SetTokenUriResolver",
      "type": "event"
    },
    {
      "anonymous": false,
      "inputs": [
        {
          "indexed": true,
          "internalType": "address",
          "name": "from",
          "type": "address"
        },
        {
          "indexed": true,
          "internalType": "address",
          "name": "to",
          "type": "address"
        },
        {
          "indexed": true,
          "internalType": "uint256",
          "name": "tokenId",
          "type": "uint256"
        }
      ],
      "name": "Transfer",
      "type": "event"
    },
    {
      "inputs": [
        {
          "components": [
            {
              "internalType": "uint256",
              "name": "contributionFloor",
              "type": "uint256"
            },
            {
              "internalType": "uint256",
              "name": "lockedUntil",
              "type": "uint256"
            },
            {
              "internalType": "uint256",
              "name": "initialQuantity",
              "type": "uint256"
            },
            {
              "internalType": "uint256",
              "name": "votingUnits",
              "type": "uint256"
            },
            {
              "internalType": "uint256",
              "name": "reservedRate",
              "type": "uint256"
            },
            {
              "internalType": "address",
              "name": "reservedTokenBeneficiary",
              "type": "address"
            },
            {
              "internalType": "bytes32",
              "name": "encodedIPFSUri",
              "type": "bytes32"
            },
            {
              "internalType": "bool",
              "name": "allowManualMint",
              "type": "bool"
            },
            {
              "internalType": "bool",
              "name": "shouldUseBeneficiaryAsDefault",
              "type": "bool"
            }
          ],
          "internalType": "struct JB721TierParams[]",
          "name": "_tiersToAdd",
          "type": "tuple[]"
        },
        {
          "internalType": "uint256[]",
          "name": "_tierIdsToRemove",
          "type": "uint256[]"
        }
      ],
      "name": "adjustTiers",
      "outputs": [],
      "stateMutability": "nonpayable",
      "type": "function"
    },
    {
      "inputs": [
        {
          "internalType": "address",
          "name": "to",
          "type": "address"
        },
        {
          "internalType": "uint256",
          "name": "tokenId",
          "type": "uint256"
        }
      ],
      "name": "approve",
      "outputs": [],
      "stateMutability": "nonpayable",
      "type": "function"
    },
    {
      "inputs": [
        {
          "internalType": "address",
          "name": "_owner",
          "type": "address"
        }
      ],
      "name": "balanceOf",
      "outputs": [
        {
          "internalType": "uint256",
          "name": "balance",
          "type": "uint256"
        }
      ],
      "stateMutability": "view",
      "type": "function"
    },
    {
      "inputs": [],
      "name": "contractURI",
      "outputs": [
        {
          "internalType": "string",
          "name": "",
          "type": "string"
        }
      ],
      "stateMutability": "view",
      "type": "function"
    },
    {
      "inputs": [
        {
          "internalType": "address",
          "name": "",
          "type": "address"
        }
      ],
      "name": "creditsOf",
      "outputs": [
        {
          "internalType": "uint256",
          "name": "",
          "type": "uint256"
        }
      ],
      "stateMutability": "view",
      "type": "function"
    },
    {
      "inputs": [
        {
          "internalType": "address",
          "name": "delegatee",
          "type": "address"
        }
      ],
      "name": "delegate",
      "outputs": [],
      "stateMutability": "nonpayable",
      "type": "function"
    },
    {
      "inputs": [
        {
          "internalType": "address",
          "name": "account",
          "type": "address"
        }
      ],
      "name": "delegates",
      "outputs": [
        {
          "internalType": "address",
          "name": "",
          "type": "address"
        }
      ],
      "stateMutability": "view",
      "type": "function"
    },
    {
      "inputs": [
        {
          "components": [
            {
              "internalType": "address",
              "name": "payer",
              "type": "address"
            },
            {
              "internalType": "uint256",
              "name": "projectId",
              "type": "uint256"
            },
            {
              "internalType": "uint256",
              "name": "currentFundingCycleConfiguration",
              "type": "uint256"
            },
            {
              "components": [
                {
                  "internalType": "address",
                  "name": "token",
                  "type": "address"
                },
                {
                  "internalType": "uint256",
                  "name": "value",
                  "type": "uint256"
                },
                {
                  "internalType": "uint256",
                  "name": "decimals",
                  "type": "uint256"
                },
                {
                  "internalType": "uint256",
                  "name": "currency",
                  "type": "uint256"
                }
              ],
              "internalType": "struct JBTokenAmount",
              "name": "amount",
              "type": "tuple"
            },
            {
              "components": [
                {
                  "internalType": "address",
                  "name": "token",
                  "type": "address"
                },
                {
                  "internalType": "uint256",
                  "name": "value",
                  "type": "uint256"
                },
                {
                  "internalType": "uint256",
                  "name": "decimals",
                  "type": "uint256"
                },
                {
                  "internalType": "uint256",
                  "name": "currency",
                  "type": "uint256"
                }
              ],
              "internalType": "struct JBTokenAmount",
              "name": "forwardedAmount",
              "type": "tuple"
            },
            {
              "internalType": "uint256",
              "name": "projectTokenCount",
              "type": "uint256"
            },
            {
              "internalType": "address",
              "name": "beneficiary",
              "type": "address"
            },
            {
              "internalType": "bool",
              "name": "preferClaimedTokens",
              "type": "bool"
            },
            {
              "internalType": "string",
              "name": "memo",
              "type": "string"
            },
            {
              "internalType": "bytes",
              "name": "metadata",
              "type": "bytes"
            }
          ],
          "internalType": "struct JBDidPayData",
          "name": "_data",
          "type": "tuple"
        }
      ],
      "name": "didPay",
      "outputs": [],
      "stateMutability": "payable",
      "type": "function"
    },
    {
      "inputs": [
        {
          "components": [
            {
              "internalType": "address",
              "name": "holder",
              "type": "address"
            },
            {
              "internalType": "uint256",
              "name": "projectId",
              "type": "uint256"
            },
            {
              "internalType": "uint256",
              "name": "currentFundingCycleConfiguration",
              "type": "uint256"
            },
            {
              "internalType": "uint256",
              "name": "projectTokenCount",
              "type": "uint256"
            },
            {
              "components": [
                {
                  "internalType": "address",
                  "name": "token",
                  "type": "address"
                },
                {
                  "internalType": "uint256",
                  "name": "value",
                  "type": "uint256"
                },
                {
                  "internalType": "uint256",
                  "name": "decimals",
                  "type": "uint256"
                },
                {
                  "internalType": "uint256",
                  "name": "currency",
                  "type": "uint256"
                }
              ],
              "internalType": "struct JBTokenAmount",
              "name": "reclaimedAmount",
              "type": "tuple"
            },
            {
              "components": [
                {
                  "internalType": "address",
                  "name": "token",
                  "type": "address"
                },
                {
                  "internalType": "uint256",
                  "name": "value",
                  "type": "uint256"
                },
                {
                  "internalType": "uint256",
                  "name": "decimals",
                  "type": "uint256"
                },
                {
                  "internalType": "uint256",
                  "name": "currency",
                  "type": "uint256"
                }
              ],
              "internalType": "struct JBTokenAmount",
              "name": "forwardedAmount",
              "type": "tuple"
            },
            {
              "internalType": "address payable",
              "name": "beneficiary",
              "type": "address"
            },
            {
              "internalType": "string",
              "name": "memo",
              "type": "string"
            },
            {
              "internalType": "bytes",
              "name": "metadata",
              "type": "bytes"
            }
          ],
          "internalType": "struct JBDidRedeemData",
          "name": "_data",
          "type": "tuple"
        }
      ],
      "name": "didRedeem",
      "outputs": [],
      "stateMutability": "payable",
      "type": "function"
    },
    {
      "inputs": [],
      "name": "directory",
      "outputs": [
        {
          "internalType": "contract IJBDirectory",
          "name": "",
          "type": "address"
        }
      ],
      "stateMutability": "view",
      "type": "function"
    },
    {
      "inputs": [
        {
          "internalType": "uint256",
          "name": "_tokenId",
          "type": "uint256"
        }
      ],
      "name": "firstOwnerOf",
      "outputs": [
        {
          "internalType": "address",
          "name": "",
          "type": "address"
        }
      ],
      "stateMutability": "view",
      "type": "function"
    },
    {
      "inputs": [],
      "name": "fundingCycleStore",
      "outputs": [
        {
          "internalType": "contract IJBFundingCycleStore",
          "name": "",
          "type": "address"
        }
      ],
      "stateMutability": "view",
      "type": "function"
    },
    {
      "inputs": [
        {
          "internalType": "uint256",
          "name": "tokenId",
          "type": "uint256"
        }
      ],
      "name": "getApproved",
      "outputs": [
        {
          "internalType": "address",
          "name": "",
          "type": "address"
        }
      ],
      "stateMutability": "view",
      "type": "function"
    },
    {
      "inputs": [
        {
          "internalType": "uint256",
          "name": "blockNumber",
          "type": "uint256"
        }
      ],
      "name": "getPastTotalSupply",
      "outputs": [
        {
          "internalType": "uint256",
          "name": "",
          "type": "uint256"
        }
      ],
      "stateMutability": "view",
      "type": "function"
    },
    {
      "inputs": [
        {
          "internalType": "address",
          "name": "account",
          "type": "address"
        },
        {
          "internalType": "uint256",
          "name": "blockNumber",
          "type": "uint256"
        }
      ],
      "name": "getPastVotes",
      "outputs": [
        {
          "internalType": "uint256",
          "name": "",
          "type": "uint256"
        }
      ],
      "stateMutability": "view",
      "type": "function"
    },
    {
      "inputs": [
        {
          "internalType": "address",
          "name": "account",
          "type": "address"
        }
      ],
      "name": "getVotes",
      "outputs": [
        {
          "internalType": "uint256",
          "name": "",
          "type": "uint256"
        }
      ],
      "stateMutability": "view",
      "type": "function"
    },
    {
      "inputs": [
        {
          "internalType": "uint256",
          "name": "_projectId",
          "type": "uint256"
        },
        {
          "internalType": "contract IJBDirectory",
          "name": "_directory",
          "type": "address"
        },
        {
          "internalType": "string",
          "name": "_name",
          "type": "string"
        },
        {
          "internalType": "string",
          "name": "_symbol",
          "type": "string"
        },
        {
          "internalType": "contract IJBFundingCycleStore",
          "name": "_fundingCycleStore",
          "type": "address"
        },
        {
          "internalType": "string",
          "name": "_baseUri",
          "type": "string"
        },
        {
          "internalType": "contract IJBTokenUriResolver",
          "name": "_tokenUriResolver",
          "type": "address"
        },
        {
          "internalType": "string",
          "name": "_contractUri",
          "type": "string"
        },
        {
          "components": [
            {
              "components": [
                {
                  "internalType": "uint256",
                  "name": "contributionFloor",
                  "type": "uint256"
                },
                {
                  "internalType": "uint256",
                  "name": "lockedUntil",
                  "type": "uint256"
                },
                {
                  "internalType": "uint256",
                  "name": "initialQuantity",
                  "type": "uint256"
                },
                {
                  "internalType": "uint256",
                  "name": "votingUnits",
                  "type": "uint256"
                },
                {
                  "internalType": "uint256",
                  "name": "reservedRate",
                  "type": "uint256"
                },
                {
                  "internalType": "address",
                  "name": "reservedTokenBeneficiary",
                  "type": "address"
                },
                {
                  "internalType": "bytes32",
                  "name": "encodedIPFSUri",
                  "type": "bytes32"
                },
                {
                  "internalType": "bool",
                  "name": "allowManualMint",
                  "type": "bool"
                },
                {
                  "internalType": "bool",
                  "name": "shouldUseBeneficiaryAsDefault",
                  "type": "bool"
                }
              ],
              "internalType": "struct JB721TierParams[]",
              "name": "tiers",
              "type": "tuple[]"
            },
            {
              "internalType": "uint256",
              "name": "currency",
              "type": "uint256"
            },
            {
              "internalType": "uint256",
              "name": "decimals",
              "type": "uint256"
            },
            {
              "internalType": "contract IJBPrices",
              "name": "prices",
              "type": "address"
            }
          ],
          "internalType": "struct JB721PricingParams",
          "name": "_pricing",
          "type": "tuple"
        },
        {
          "internalType": "contract IJBTiered721DelegateStore",
          "name": "_store",
          "type": "address"
        },
        {
          "components": [
            {
              "internalType": "bool",
              "name": "lockReservedTokenChanges",
              "type": "bool"
            },
            {
              "internalType": "bool",
              "name": "lockVotingUnitChanges",
              "type": "bool"
            },
            {
              "internalType": "bool",
              "name": "lockManualMintingChanges",
              "type": "bool"
            },
            {
              "internalType": "bool",
              "name": "pausable",
              "type": "bool"
            }
          ],
          "internalType": "struct JBTiered721Flags",
          "name": "_flags",
          "type": "tuple"
        }
      ],
      "name": "initialize",
      "outputs": [],
      "stateMutability": "nonpayable",
      "type": "function"
    },
    {
      "inputs": [
        {
          "internalType": "address",
          "name": "owner",
          "type": "address"
        },
        {
          "internalType": "address",
          "name": "operator",
          "type": "address"
        }
      ],
      "name": "isApprovedForAll",
      "outputs": [
        {
          "internalType": "bool",
          "name": "",
          "type": "bool"
        }
      ],
      "stateMutability": "view",
      "type": "function"
    },
    {
      "inputs": [
        {
          "components": [
            {
              "internalType": "uint16[]",
              "name": "tierIds",
              "type": "uint16[]"
            },
            {
              "internalType": "address",
              "name": "beneficiary",
              "type": "address"
            }
          ],
          "internalType": "struct JBTiered721MintForTiersData[]",
          "name": "_mintForTiersData",
          "type": "tuple[]"
        }
      ],
      "name": "mintFor",
      "outputs": [],
      "stateMutability": "nonpayable",
      "type": "function"
    },
    {
      "inputs": [
        {
          "internalType": "uint16[]",
          "name": "_tierIds",
          "type": "uint16[]"
        },
        {
          "internalType": "address",
          "name": "_beneficiary",
          "type": "address"
        }
      ],
      "name": "mintFor",
      "outputs": [
        {
          "internalType": "uint256[]",
          "name": "tokenIds",
          "type": "uint256[]"
        }
      ],
      "stateMutability": "nonpayable",
      "type": "function"
    },
    {
      "inputs": [
        {
          "components": [
            {
              "internalType": "uint256",
              "name": "tierId",
              "type": "uint256"
            },
            {
              "internalType": "uint256",
              "name": "count",
              "type": "uint256"
            }
          ],
          "internalType": "struct JBTiered721MintReservesForTiersData[]",
          "name": "_mintReservesForTiersData",
          "type": "tuple[]"
        }
      ],
      "name": "mintReservesFor",
      "outputs": [],
      "stateMutability": "nonpayable",
      "type": "function"
    },
    {
      "inputs": [
        {
          "internalType": "uint256",
          "name": "_tierId",
          "type": "uint256"
        },
        {
          "internalType": "uint256",
          "name": "_count",
          "type": "uint256"
        }
      ],
      "name": "mintReservesFor",
      "outputs": [],
      "stateMutability": "nonpayable",
      "type": "function"
    },
    {
      "inputs": [],
      "name": "name",
      "outputs": [
        {
          "internalType": "string",
          "name": "",
          "type": "string"
        }
      ],
      "stateMutability": "view",
      "type": "function"
    },
    {
      "inputs": [],
      "name": "owner",
      "outputs": [
        {
          "internalType": "address",
          "name": "",
          "type": "address"
        }
      ],
      "stateMutability": "view",
      "type": "function"
    },
    {
      "inputs": [
        {
          "internalType": "uint256",
          "name": "tokenId",
          "type": "uint256"
        }
      ],
      "name": "ownerOf",
      "outputs": [
        {
          "internalType": "address",
          "name": "",
          "type": "address"
        }
      ],
      "stateMutability": "view",
      "type": "function"
    },
    {
      "inputs": [
        {
          "components": [
            {
              "internalType": "contract IJBPaymentTerminal",
              "name": "terminal",
              "type": "address"
            },
            {
              "internalType": "address",
              "name": "payer",
              "type": "address"
            },
            {
              "components": [
                {
                  "internalType": "address",
                  "name": "token",
                  "type": "address"
                },
                {
                  "internalType": "uint256",
                  "name": "value",
                  "type": "uint256"
                },
                {
                  "internalType": "uint256",
                  "name": "decimals",
                  "type": "uint256"
                },
                {
                  "internalType": "uint256",
                  "name": "currency",
                  "type": "uint256"
                }
              ],
              "internalType": "struct JBTokenAmount",
              "name": "amount",
              "type": "tuple"
            },
            {
              "internalType": "uint256",
              "name": "projectId",
              "type": "uint256"
            },
            {
              "internalType": "uint256",
              "name": "currentFundingCycleConfiguration",
              "type": "uint256"
            },
            {
              "internalType": "address",
              "name": "beneficiary",
              "type": "address"
            },
            {
              "internalType": "uint256",
              "name": "weight",
              "type": "uint256"
            },
            {
              "internalType": "uint256",
              "name": "reservedRate",
              "type": "uint256"
            },
            {
              "internalType": "string",
              "name": "memo",
              "type": "string"
            },
            {
              "internalType": "bytes",
              "name": "metadata",
              "type": "bytes"
            }
          ],
          "internalType": "struct JBPayParamsData",
          "name": "_data",
          "type": "tuple"
        }
      ],
      "name": "payParams",
      "outputs": [
        {
          "internalType": "uint256",
          "name": "weight",
          "type": "uint256"
        },
        {
          "internalType": "string",
          "name": "memo",
          "type": "string"
        },
        {
          "components": [
            {
              "internalType": "contract IJBPayDelegate",
              "name": "delegate",
              "type": "address"
            },
            {
              "internalType": "uint256",
              "name": "amount",
              "type": "uint256"
            }
          ],
          "internalType": "struct JBPayDelegateAllocation[]",
          "name": "delegateAllocations",
          "type": "tuple[]"
        }
      ],
      "stateMutability": "view",
      "type": "function"
    },
    {
      "inputs": [],
      "name": "prices",
      "outputs": [
        {
          "internalType": "contract IJBPrices",
          "name": "",
          "type": "address"
        }
      ],
      "stateMutability": "view",
      "type": "function"
    },
    {
      "inputs": [],
      "name": "pricingCurrency",
      "outputs": [
        {
          "internalType": "uint256",
          "name": "",
          "type": "uint256"
        }
      ],
      "stateMutability": "view",
      "type": "function"
    },
    {
      "inputs": [],
      "name": "pricingDecimals",
      "outputs": [
        {
          "internalType": "uint256",
          "name": "",
          "type": "uint256"
        }
      ],
      "stateMutability": "view",
      "type": "function"
    },
    {
      "inputs": [],
      "name": "projectId",
      "outputs": [
        {
          "internalType": "uint256",
          "name": "",
          "type": "uint256"
        }
      ],
      "stateMutability": "view",
      "type": "function"
    },
    {
      "inputs": [
        {
          "components": [
            {
              "internalType": "contract IJBPaymentTerminal",
              "name": "terminal",
              "type": "address"
            },
            {
              "internalType": "address",
              "name": "holder",
              "type": "address"
            },
            {
              "internalType": "uint256",
              "name": "projectId",
              "type": "uint256"
            },
            {
              "internalType": "uint256",
              "name": "currentFundingCycleConfiguration",
              "type": "uint256"
            },
            {
              "internalType": "uint256",
              "name": "tokenCount",
              "type": "uint256"
            },
            {
              "internalType": "uint256",
              "name": "totalSupply",
              "type": "uint256"
            },
            {
              "internalType": "uint256",
              "name": "overflow",
              "type": "uint256"
            },
            {
              "components": [
                {
                  "internalType": "address",
                  "name": "token",
                  "type": "address"
                },
                {
                  "internalType": "uint256",
                  "name": "value",
                  "type": "uint256"
                },
                {
                  "internalType": "uint256",
                  "name": "decimals",
                  "type": "uint256"
                },
                {
                  "internalType": "uint256",
                  "name": "currency",
                  "type": "uint256"
                }
              ],
              "internalType": "struct JBTokenAmount",
              "name": "reclaimAmount",
              "type": "tuple"
            },
            {
              "internalType": "bool",
              "name": "useTotalOverflow",
              "type": "bool"
            },
            {
              "internalType": "uint256",
              "name": "redemptionRate",
              "type": "uint256"
            },
            {
              "internalType": "string",
              "name": "memo",
              "type": "string"
            },
            {
              "internalType": "bytes",
              "name": "metadata",
              "type": "bytes"
            }
          ],
          "internalType": "struct JBRedeemParamsData",
          "name": "_data",
          "type": "tuple"
        }
      ],
      "name": "redeemParams",
      "outputs": [
        {
          "internalType": "uint256",
          "name": "reclaimAmount",
          "type": "uint256"
        },
        {
          "internalType": "string",
          "name": "memo",
          "type": "string"
        },
        {
          "components": [
            {
              "internalType": "contract IJBRedemptionDelegate",
              "name": "delegate",
              "type": "address"
            },
            {
              "internalType": "uint256",
              "name": "amount",
              "type": "uint256"
            }
          ],
          "internalType": "struct JBRedemptionDelegateAllocation[]",
          "name": "delegateAllocations",
          "type": "tuple[]"
        }
      ],
      "stateMutability": "view",
      "type": "function"
    },
    {
      "inputs": [],
      "name": "renounceOwnership",
      "outputs": [],
      "stateMutability": "nonpayable",
      "type": "function"
    },
    {
      "inputs": [
        {
          "internalType": "address",
          "name": "from",
          "type": "address"
        },
        {
          "internalType": "address",
          "name": "to",
          "type": "address"
        },
        {
          "internalType": "uint256",
          "name": "tokenId",
          "type": "uint256"
        }
      ],
      "name": "safeTransferFrom",
      "outputs": [],
      "stateMutability": "nonpayable",
      "type": "function"
    },
    {
      "inputs": [
        {
          "internalType": "address",
          "name": "from",
          "type": "address"
        },
        {
          "internalType": "address",
          "name": "to",
          "type": "address"
        },
        {
          "internalType": "uint256",
          "name": "tokenId",
          "type": "uint256"
        },
        {
          "internalType": "bytes",
          "name": "data",
          "type": "bytes"
        }
      ],
      "name": "safeTransferFrom",
      "outputs": [],
      "stateMutability": "nonpayable",
      "type": "function"
    },
    {
      "inputs": [
        {
          "internalType": "address",
          "name": "operator",
          "type": "address"
        },
        {
          "internalType": "bool",
          "name": "approved",
          "type": "bool"
        }
      ],
      "name": "setApprovalForAll",
      "outputs": [],
      "stateMutability": "nonpayable",
      "type": "function"
    },
    {
      "inputs": [
        {
          "internalType": "string",
          "name": "_baseUri",
          "type": "string"
        }
      ],
      "name": "setBaseUri",
      "outputs": [],
      "stateMutability": "nonpayable",
      "type": "function"
    },
    {
      "inputs": [
        {
          "internalType": "string",
          "name": "_contractUri",
          "type": "string"
        }
      ],
      "name": "setContractUri",
      "outputs": [],
      "stateMutability": "nonpayable",
      "type": "function"
    },
    {
      "inputs": [
        {
          "internalType": "address",
          "name": "_beneficiary",
          "type": "address"
        }
      ],
      "name": "setDefaultReservedTokenBeneficiary",
      "outputs": [],
      "stateMutability": "nonpayable",
      "type": "function"
    },
    {
      "inputs": [
        {
          "internalType": "contract IJBTokenUriResolver",
          "name": "_tokenUriResolver",
          "type": "address"
        }
      ],
      "name": "setTokenUriResolver",
      "outputs": [],
      "stateMutability": "nonpayable",
      "type": "function"
    },
    {
      "inputs": [],
      "name": "store",
      "outputs": [
        {
          "internalType": "contract IJBTiered721DelegateStore",
          "name": "",
          "type": "address"
        }
      ],
      "stateMutability": "view",
      "type": "function"
    },
    {
      "inputs": [
        {
          "internalType": "bytes4",
          "name": "_interfaceId",
          "type": "bytes4"
        }
      ],
      "name": "supportsInterface",
      "outputs": [
        {
          "internalType": "bool",
          "name": "",
          "type": "bool"
        }
      ],
      "stateMutability": "view",
      "type": "function"
    },
    {
      "inputs": [],
      "name": "symbol",
      "outputs": [
        {
          "internalType": "string",
          "name": "",
          "type": "string"
        }
      ],
      "stateMutability": "view",
      "type": "function"
    },
    {
      "inputs": [
        {
          "internalType": "uint256",
          "name": "_tokenId",
          "type": "uint256"
        }
      ],
      "name": "tokenURI",
      "outputs": [
        {
          "internalType": "string",
          "name": "",
          "type": "string"
        }
      ],
      "stateMutability": "view",
      "type": "function"
    },
    {
      "inputs": [
        {
          "internalType": "address",
          "name": "from",
          "type": "address"
        },
        {
          "internalType": "address",
          "name": "to",
          "type": "address"
        },
        {
          "internalType": "uint256",
          "name": "tokenId",
          "type": "uint256"
        }
      ],
      "name": "transferFrom",
      "outputs": [],
      "stateMutability": "nonpayable",
      "type": "function"
    },
    {
      "inputs": [
        {
          "internalType": "address",
          "name": "newOwner",
          "type": "address"
        }
      ],
      "name": "transferOwnership",
      "outputs": [],
      "stateMutability": "nonpayable",
      "type": "function"
    }
  ],
  "bytecode": {
    "object": "0x6080806040523461006557600a8054336001600160a01b03198083168217909355906001600160a01b03167f8be0079c531659141344cd1fd0a4f28419497f9722a3daafe3b4186f6b6457e0600085a33090600b541617600b55614f9e908161006b8239f35b600080fdfe608080604052600436101561001357600080fd5b600090813560e01c90816301ffc9a714612a465750806306fdde03146129b2578063081812fc14612993578063095ea7b3146128c3578063211eb0011461265657806323b872dd1461261c5780632407497e1461256f578063245a45b5146125365780632a596e531461245e5780632b13c58f14611c6957806336c1a93b14611b485780633a46b1a814611a145780633fafa127146119f657806342842e0e146119ce5780634ecba625146119b057806354c6d1f514611991578063557e715514611968578063587cde1e1461192d5780635c19a95c146118495780636352211e1461181857806364640c1e146117fa5780636ac6d941146117a157806370a08231146116f6578063715018a6146116955780638da5cb5b1461166c5780638e539e8c1461157b57806395d89b41146114bc578063975057e7146114935780639ab24eb014611452578063a0bcfc7f14611370578063a22cb465146112cf578063a51cfd1814611250578063aa4fb15b14611230578063b88d4fde146111d0578063c41c2f24146111a7578063c87b56dd14611173578063ccb4807b14611069578063d3419bf314611040578063d46cf17114610f18578063da9ee8b714610e22578063df487e2614610d75578063dfedb3af1461038f578063e8a3d485146102f9578063e985e9c5146102a55763f2fde38b1461021057600080fd5b346102a25760203660031901126102a257610229612b8c565b610231614b18565b6001600160a01b0381161561024e5761024990614b70565b604051f35b60405162461bcd60e51b815260206004820152602660248201527f4f776e61626c653a206e6577206f776e657220697320746865207a65726f206160448201526564647265737360d01b6064820152608490fd5b80fd5b50346102a25760403660031901126102a2576102bf612b8c565b60406102c9612ba2565b9260018060a01b0380931681526007602052209116600052602052602060ff604060002054166040519015158152f35b50346102a257806003193601126102a257600c54604051630155619b60e71b8152306004820152908290829060249082906001600160a01b03165afa908115610384578261035d9392610361575b5050604051918291602083526020830190612b67565b0390f35b61037d92503d8091833e6103758183612c81565b810190612eb7565b3880610347565b6040513d84823e3d90fd5b50346102a257600319906101c0368301126102a257602435916001600160a01b0383168303610979576044356001600160401b03811161097d576103d7903690600401612dda565b926064356001600160401b038111610a00576103f7903690600401612dda565b91608435916001600160a01b0383168303610a835760a4356001600160401b038111610d715761042b903690600401612dda565b60c435939091906001600160a01b0385168503610c995760e4356001600160401b038111610c9e57610461903690600401612dda565b936001600160401b036101043511610c9e576080906101043536030112610d6d576040519561048f87612c2f565b61010435600401356001600160401b038111610c9557366023826101043501011215610c95576104c760048261010435010135612ca2565b906104d56040519283612c81565b6101043581016004810135808452602084019291366101209092020160240111610d6957602481610104350101915b610104358201600481013561012002016024018310610ca2575050508752610104356024810135602089015260448101356040890152606401356001600160a01b0381169003610c9e5761010435606401356060880152610124356001600160a01b0381169003610c9e57608036610143190112610c9e57604051986105898a612c2f565b610144358015158103610c99578a526101643515156101643503610c99576101643560208b01526101843515156101843503610c99576101843560408b01526101a43515156101a43503610c99576101a43560608b0152600b546001600160a01b03163014610c9557600c546001600160a01b0316610c95578051906001600160401b038211610c81578190610620600354613674565b601f8111610c0f575b50602090601f8311600114610b99578b92610b8e575b50508160011b916000199060031b1c1916176003555b8051906001600160401b038211610b7a578190610673600454613674565b601f8111610b08575b50602090601f8311600114610a92578a92610a87575b50508160011b916000199060031b1c1916176004555b600435600855600980546001600160a01b03199081166001600160a01b0394851617909155600d8054821692841692909217909155600c805482166101243584161790556020860151600f5560408601516010556060860151600e805490921692169190911790558051610a04575b508051610981575b506001600160a01b03811661090e575b5051918251610810575b819250805115801590610803575b80156107f6575b80156107e9575b610764575b5061024933614b70565b610124356001600160a01b03163b156107e657604080516365c13f1960e11b81528251151560048201526020830151151560248201529082015115156044820152606090910151151560648201528181608481836001600160a01b0361012435165af18015610384571561075a576107db90612c01565b6102a257803861075a565b50fd5b5060608101511515610755565b506040810151151561074e565b5060208101511515610747565b60405163d0cf48a560e01b815260248101602060048301528451809152602060448301950190845b81811061089657505050828180829603818360018060a01b0361012435165af1801561088b57610869575b50610739565b610884903d8085833e61087c8183612c81565b810190613190565b5038610863565b6040513d85823e3d90fd5b9091956020610120600192895180518252838101518483015260408101516040830152606081015160608301526080810151608083015260a0858060a01b0381830151169083015260c0808201519083015260e0810151151560e0830152610100809101511515908201520197019101919091610838565b610124356001600160a01b03163b1561097d5760405163036129cb60e61b81526001600160a01b03918216600482015290839082906024908290849061012435165af1801561088b57908391610965575b5061072f565b61096e90612c01565b61097957813861095f565b5080fd5b8280fd5b610124356001600160a01b03163b15610a0057836109bb916040518093819263d67b78fd60e01b8352602060048401526024830190612b67565b038183610124356001600160a01b03165af180156109f5579084916109e1575b5061071f565b6109ea90612c01565b61097d5782386109db565b6040513d86823e3d90fd5b8380fd5b610124356001600160a01b03163b15610a835784610a3e91604051809381926331315e5960e11b8352602060048401526024830190612b67565b038183610124356001600160a01b03165af18015610a7857908591610a64575b50610717565b610a6d90612c01565b610a00578338610a5e565b6040513d87823e3d90fd5b8480fd5b015190503880610692565b925060048a52600080516020614f29833981519152908a935b601f1984168510610aed576001945083601f19811610610ad4575b505050811b016004556106a8565b015160001960f88460031b161c19169055388080610ac6565b81810151835560209485019460019093019290910190610aab565b90915060048a52601f830160051c600080516020614f298339815191520160208410610b65575b908392915b601f820160051c600080516020614f29833981519152018110610b57575061067c565b8b8155849350600101610b34565b50600080516020614f29833981519152610b2f565b634e487b7160e01b89526041600452602489fd5b01519050388061063f565b925060038b52600080516020614f09833981519152908b935b601f1984168510610bf4576001945083601f19811610610bdb575b505050811b01600355610655565b015160001960f88460031b161c19169055388080610bcd565b81810151835560209485019460019093019290910190610bb2565b90915060038b52601f830160051c600080516020614f098339815191520160208410610c6c575b908392915b601f820160051c600080516020614f09833981519152018110610c5e5750610629565b8c8155849350600101610c3b565b50600080516020614f09833981519152610c36565b634e487b7160e01b8a52604160045260248afd5b8880fd5b600080fd5b8780fd5b61012083360312610d655760405190816101208101106001600160401b0361012084011117610d4f5760206101209183836024950160405286358152828701358382015260408701356040820152606080880135908201526080870135608082015260a0610d11818901612bb8565b9082015260c08088013590820152610d2b60e08801612df8565b60e0820152610100610d3e818901612df8565b908201528152019301929050610504565b634e487b7160e01b600052604160045260246000fd5b8b80fd5b8a80fd5b8680fd5b8580fd5b50346102a25760203660031901126102a257610d8f612b8c565b610d97614b18565b600c546001600160a01b0390811691839190833b1561097d5782916024839260405194859384926317161f7d60e01b845216978860048401525af1801561038457610e0e575b50507fab0014d4c7a642a02a31b303a318908c22b0fb2001f107278fc6076b4c671b656020604051338152a2604051f35b610e1790612c01565b610979578138610ddd565b5060031960203682011261097957600435906001600160401b03821161097d57610200908236030112610979573415801590610e92575b8015610e82575b610e70576102499060040161433c565b6040516331c57b1b60e21b8152600490fd5b5060085460248201351415610e60565b50600954600854604051636e49181f60e01b8152600481019190915233602482015290602090829060449082906001600160a01b03165afa90811561088b578391610edf575b5015610e59565b90506020813d8211610f10575b81610ef960209383612c81565b8101031261097d57610f0a906139d2565b38610ed8565b3d9150610eec565b50346102a2576003196020368201811361097d57600435916001600160401b038311610a00576101a090833603011261097d5791610f67610f60610164840184600401613fbc565b3691612da3565b9060405193610f7585612c14565b600192838652825b8281106110165750610fcc90604051610f9581612c14565b3081528484820152610fa6886131b5565b52610fb0876131b5565b5061012460405196013586526060838701526060860190612b67565b9084820360408601528080875193848152019601925b828110610fef5785870386f35b835180516001600160a01b0316885282015182880152604090960195928101928401610fe2565b829060409795975161102781612c14565b6000815260008382015282828801015201959395610f7d565b50346102a257806003193601126102a257600e546040516001600160a01b039091168152602090f35b50346102a25760203660031901126102a2576001600160401b0360043581811161097d573660238201121561097d57806004013591821161097d576024810190602483369201011161097d576110bd614b18565b600c5483906001600160a01b0316803b156109795781604051809263d67b78fd60e01b8252602060048301528660248301528686604484013782604488840101528183604482601f19601f8c011681010301925af180156103845761115f575b505081604051928392833781018381520390207fd36dc0c1a06103fdcaf15f3f6fb797d1a97997514c78de073640c8b5005454b86020604051338152a2604051f35b61116890612c01565b61097d57823861111d565b50346102a25760203660031901126102a25761035d611193600435612f15565b604051918291602083526020830190612b67565b50346102a257806003193601126102a2576009546040516001600160a01b039091168152602090f35b50346102a25760803660031901126102a2576111ea612b8c565b6111f2612ba2565b606435916001600160401b038311610a005736602384011215610a0057611226610249933690602481600401359101612da3565b91604435916136e6565b50346102a25760403660031901126102a2576102496024356004356132f3565b50346102a25761126761126236612cb9565b614090565b906040519283526112846020916060838601526060850190612b67565b9083820360408501528080845193848152019301945b8281106112a75784840385f35b855180516001600160a01b03168552820151848301529481019460409093019260010161129a565b50346102a25760403660031901126102a2576112e9612b8c565b60243590811515809203610c99576001600160a01b03169033821461135e5733835260076020526040832082600052602052604060002060ff1981541660ff83161790556040519081527f17307eab39ab6107e8899845ad3d59bd9653f200f220920489ca2b5937696c3160203392a3604051f35b6040516306f8139d60e11b8152600490fd5b50346102a25760203660031901126102a2576004356001600160401b038111610979576113a1903690600401612dda565b6113a9614b18565b600c5482906001600160a01b0316803b15610979578160405180926331315e5960e11b8252602060048301528183816113e5602482018a612b67565b03925af180156103845761143e575b506040518251819061140a818360208801612b44565b81010390207f7bc9110d5de090dd59e07912d2b93a5a27ac70a60c8d8e324db4f9ee8b8b5c136020604051338152a2604051f35b61144790612c01565b6109795781386113f4565b50346102a25760203660031901126102a25760209061148b906040906001600160a01b0361147e612b8c565b1681526001845220614c45565b604051908152f35b50346102a257806003193601126102a257600c546040516001600160a01b039091168152602090f35b50346102a257806003193601126102a25760405190806004546114de81613674565b808552916001918083169081156115515750600114611508575b61035d8561119381870382612c81565b925060048352600080516020614f298339815191525b8284106115395750505081016020016111938261035d6114f8565b8054602085870181019190915290930192810161151e565b86955061035d9693506020925061119394915060ff191682840152151560051b82010192936114f8565b50346102a25760203660031901126102a2576004354381101561165a576002549060005b8281106115fc57826000816115c7575050602060005b6040516001600160e01b039091168152f35b60001982019182116115e857506115df602091614bbb565b5054811c6115b5565b634e487b7160e01b81526011600452602490fd5b9091600190611611818418831c828516614083565b918463ffffffff61162185614bbb565b5054161115611636575050905b91909161159f565b90925081018091111561162e575b634e487b7160e01b600052601160045260246000fd5b6040516305b5e09b60e51b8152600490fd5b50346102a257806003193601126102a257600a546040516001600160a01b039091168152602090f35b50346102a257806003193601126102a2576116ae614b18565b600a80546001600160a01b03198116909155604051906000906001600160a01b03167f8be0079c531659141344cd1fd0a4f28419497f9722a3daafe3b4186f6b6457e08284a3f35b50346102a257602090816003193601126102a25761174e82611716612b8c565b600c54604051633de222bb60e21b81523060048201526001600160a01b03928316602482015293849290911690829081906044820190565b03915afa9182156117955791611768575b50604051908152f35b90508181813d831161178e575b61177f8183612c81565b81010312610c9957513861175f565b503d611775565b604051903d90823e3d90fd5b50346102a25760403660031901126102a257600435906001600160401b0382116102a25761035d6117e66117d83660048601612ceb565b6117e0612ba2565b906134cf565b604051918291602083526020830190612d54565b50346102a257806003193601126102a2576020600f54604051908152f35b50346102a25760203660031901126102a2576020611837600435613641565b6040516001600160a01b039091168152f35b50346102a25760208060031936011261097957611864612b8c565b9033835282815260018060a01b039182604085205416826040862085841690816001600160601b0360a01b82541617905560405195869184337f3134e8a2e6d97e929a7e54011ea5485d7d196dd5f0ba4d4ef95803e8e3fc257f8b86a4600c54631266aaaf60e31b83523060048401523360248401526044918391165afa928315610a785785936118fb575b5061024993506147f0565b90925083813d8311611926575b6119128183612c81565b81010312610c9957610249925191386118f0565b503d611908565b50346102a25760203660031901126102a2576020906001600160a01b039060409082611957612b8c565b168152808452205416604051908152f35b50346102a257806003193601126102a257600d546040516001600160a01b039091168152602090f35b50346102a25760203660031901126102a2576020611837600435612e19565b50346102a257806003193601126102a2576020601054604051908152f35b50346102a2576102496119e036612bcc565b90604051926119ee84612c66565b8584526136e6565b50346102a257806003193601126102a2576020600854604051908152f35b50346102a25760403660031901126102a257611a2e612b8c565b6001600160a01b03168152600160208190526040909120602480359243841015611b0457928254936000915b858310611aab5750505060008315600014611a8057505060405160008152602092509050f35b6000198401938411611a9a5750506020916115df91614bf2565b634e487b7160e01b81526011600452fd5b909194611abe818718841c828816614083565b908263ffffffff611acf8489614bf2565b5054161115611ae25750945b9190611a5a565b955082810180911115611adb5783634e487b7160e01b60005260116004526000fd5b60405162461bcd60e51b8152602060048201819052818401527f436865636b706f696e74733a20626c6f636b206e6f7420796574206d696e65646044820152606490fd5b50346102a257602080600319360112610979576001600160401b0390600435828111610a005736602382011215610a0057806004013592611b8884612ca2565b93611b966040519586612c81565b808552838501916024809260051b85010193368511610c9e57828101935b858510611c0457888888611bc6614b18565b815191835b838110611bd85784604051f35b80611bfd611be8600193856131d8565b5180519086858060a01b0391015116906134cf565b5001611bcb565b8435838111611c655782019060406023198336030112611c655760405190611c2b82612c14565b8583013591858311610d6557611c5660448b95611c4e87968b3691840101612ceb565b845201612bb8565b83820152815201940193611bb4565b8980fd5b50611c7336612cb9565b34158015906123d8575b80156123c8575b6123b6576101c08101906004611c9a8383613fbc565b905010801561238a575b6123785782611cbe611cb68484613fbc565b810190613fee565b8091505182935b818510611d3f57600c548490819085906001600160a01b0316803b15611d3b576040516386bc2be360e01b8152602060048201529183918391829084908290611d12906024830190612d54565b03925af1801561038457611d27575b50604051f35b611d3090612c01565b6102a2578082611d21565b5050fd5b611d4985846131d8565b51808552600560205260408520549095906001600160a01b0390811690611d6f84614328565b160361236657611d7e86613641565b6001600160a01b03811661214c575b86611d9a611e2398613e4c565b8087526005602052604080882080546001600160a01b0319169055519080886001600160a01b0385167fddf252ad1be2c89b69c2b068fc378daa952ba7f163c4a11628f55a4df523b3ef8286a4600c5463b67cb04760e01b83523060048401526024830191909152610140986000926001600160a01b0390921691908a90829081906044820190565b0381855afa998a1561088b57839a6120a2575b5050885198813b1561097d579082916040519a6330b157e560e21b8c5260048c015260018060a01b03851660248c0152828b60449382858301528160649788925af19a8b1561088b578a9b61208e575b5060a001519081611ea1575b50505050506001019450611cc5565b9398509193929091906001600160a01b0389161561207e575b611ecb82611ec6614c0a565b614076565b9060025495611ed8614c0a565b5086151580612059575b15611f5c575050611ef290614d5d565b916000198501948511611644578998611f2b611f5294611f13600198614bbb565b509063ffffffff82549181199060201b169116179055565b60a086901b86900390811682526020829052604080832054838052922054811691166147f0565b9087808080611e92565b63ffffffff9694964311612007575050611f7590614d5d565b9360405198611f838a612c14565b4363ffffffff168a526001600160e01b0395861660208b0190815293600160401b811015610d4f57806001611fbb9201600255614bbb565b9a909a611ff15751935190951660201b63ffffffff191663ffffffff93909316929092179097558796600193611f529290611f2b565b634e487b7160e01b600052600060045260246000fd5b906532206269747360d01b6084927f53616665436173743a2076616c756520646f65736e27742066697420696e20336040519362461bcd60e51b85526020600486015260266024860152840152820152fd5b5060001987018781116116445761207463ffffffff91614bbb565b5054164314611ee2565b61208782614c6f565b5050611eba565b9261209b60a09294612c01565b9290611e86565b9080929a50813d8311612145575b6120ba8183612c81565b8101031261097957604051906120cf82612c4a565b805182526020810151602083015260408101516040830152606080820151908301526080808201519083015260a0808201519083015260c0808201519083015261211b60e08201612e05565b60e083015261010080820151908301526121396101208092016139d2565b90820152978980611e36565b503d6120b0565b600c54604051634228826f60e11b81523060048201526001600160a01b0390911697906080816024818c5afa8015612238576000906122eb575b60609150015161227e575b6040516308ed6c0160e41b8152306004820152602481018290526020816044818c5afa90811561223857600091612244575b506001600160a01b0316156121da575b9650611d8d565b873b15610c9957604051638cec7d3960e01b8152600481018290526001600160a01b0383166024820152976000908990604490829084905af197881561223857611e2398612229575b506121d3565b61223290612c01565b88612223565b6040513d6000823e3d90fd5b906020823d602011612276575b8161225e60209383612c81565b810103126102a2575061227090612e05565b896121c3565b3d9150612251565b60018060a01b03600d54166101206008546024604051809481936321d1336160e11b835260048301525afa8015612238576122ba575b50612191565b6122dd906101203d610120116122e4575b6122d58183612c81565b810190613263565b50886122b4565b503d6122cb565b6080823d60801161235e575b8161230460809383612c81565b810103126102a2575060405160609161231c82612c2f565b612325816139d2565b8252612333602082016139d2565b6020830152612344604082016139d2565b6040830152612355838092016139d2565b90820152612186565b3d91506122f7565b60405163075fd2b160e01b8152600490fd5b604051632a84050f60e01b8152600490fd5b506123958282613fbc565b600411610a0057356001600160e01b03191663b3bcbb7960e01b1415611ca4565b604051633efca5c360e11b8152600490fd5b5060085460208201351415611c84565b50600954600854604051636e49181f60e01b8152600481019190915233602482015290602090829060449082906001600160a01b03165afa90811561088b578391612425575b5015611c7d565b90506020813d8211612456575b8161243f60209383612c81565b8101031261097d57612450906139d2565b3861241e565b3d9150612432565b50346102a25760208060031936011261097957600435906001600160401b03821161097d573660238301121561097d5781600401359161249d83612ca2565b926124ab6040519485612c81565b80845260248385019160061b83010191368311610d7157602401905b82821061250657505050815191835b8381106124e35784604051f35b806125006124f3600193856131d8565b51858151910151906132f3565b016124d6565b604082360312610d715783604091825161251f81612c14565b8435815282850135838201528152019101906124c7565b50346102a25760203660031901126102a2576020906040906001600160a01b0361255e612b8c565b168152601183522054604051908152f35b50346102a25760203660031901126102a257612589612b8c565b612591614b18565b600c546001600160a01b0390811691839190833b1561097d57829160248392604051948593849263036129cb60e61b845216978860048401525af1801561038457612608575b50507fe7784d93cfbfa4408e19577e6cc0436f4dbb51214b70e100905dfce9def88c166020604051338152a2604051f35b61261190612c01565b6109795781386125d7565b50346102a25761262b36612bcc565b906126368233613725565b1561264457610249926139df565b60405163e5fa0e3560e01b8152600490fd5b50346102a25760403660031901126102a2576001600160401b0360043581811161097d573660238201121561097d57806004013591808311610a005760249061012090368383870286010111610d71578235818111610d6d5736602382011215610d6d578060040135918211610d6d5760059082821b9036868383010111610c95576126e0614b18565b836127f6575b50505050836126f6575b84604051f35b600c5460405163d0cf48a560e01b81526020600482015283810186905290869082906001600160a01b031660448201878701845b878b82106127d2575050508383809203925af19081156127c75786916127ad575b50855b85811061275c5750506126f0565b80612769600192846131d8565b517f9c1ee455d7c9ab291045babfeef5ef20cea4d096dc64c4b2b29977289b4b06416101406040516127a1818a8a88028d01016131ec565b3388820152a20161274e565b6127c191503d8088833e61087c8183612c81565b3861274b565b6040513d88823e3d90fd5b91945092945080826127e6600194876131ec565b019301910191899391859361272a565b600c546001600160a01b031691823b15611c65576040516320512ba160e01b81526020600482018190528882018790529390918b916001600160fb1b03881161097d5783836044828581968f8b018484013781010301925af180156128b8576128a5575b50885b84811061286a57506126e6565b6001906040513381527f832d89d991be5351d793c20faf4b7dd44f8aa9ce39e3cb160c6317de6fbba729858a84891b8701013592a20161285d565b6128b190999199612c01565b973861285a565b6040513d8c823e3d90fd5b50346102a25760403660031901126102a2576128dd612b8c565b6024356001600160a01b0380806128f384613641565b169316928084146129815780331415908161295f575b506126445781845260066020526040842080546001600160a01b0319168417905561293382613641565b1691604051927f8c5be1e5ebec7d5bd14f71427d1e84f3dd0314c0f7b2291e5b200ac8c7c3b9258585a4f35b9050845260076020526040842033855260205260ff6040852054161538612909565b60405163133f8be960e01b8152600490fd5b50346102a25760203660031901126102a25760206118376004356136ae565b50346102a257806003193601126102a25760405190806003546129d481613674565b8085529160019180831690811561155157506001146129fd5761035d8561119381870382612c81565b925060038352600080516020614f098339815191525b828410612a2e5750505081016020016111938261035d6114f8565b80546020858701810191909152909301928101612a13565b9050346109795760203660031901126109795760043563ffffffff60e01b811680910361097d5760209250635e55854560e01b8114908115612a8a575b5015158152f35b63b3bcbb7960e01b811491508115612b1e575b8115612b0d575b8115612afc575b8115612ab9575b5038612a83565b6380ac58cd60e01b811491508115612aeb575b8115612ada575b5038612ab2565b6301ffc9a760e01b14905038612ad3565b635b5e139f60e01b81149150612acc565b632b13c58f60e01b81149150612aab565b63da9ee8b760e01b81149150612aa4565b6371700c6960e01b81149150612a9d565b35906001600160e01b031982168203610c9957565b60005b838110612b575750506000910152565b8181015183820152602001612b47565b90602091612b8081518092818552858086019101612b44565b601f01601f1916010190565b600435906001600160a01b0382168203610c9957565b602435906001600160a01b0382168203610c9957565b35906001600160a01b0382168203610c9957565b6060906003190112610c99576001600160a01b03906004358281168103610c9957916024359081168103610c99579060443590565b6001600160401b038111610d4f57604052565b604081019081106001600160401b03821117610d4f57604052565b608081019081106001600160401b03821117610d4f57604052565b61014081019081106001600160401b03821117610d4f57604052565b602081019081106001600160401b03821117610d4f57604052565b90601f801991011681019081106001600160401b03821117610d4f57604052565b6001600160401b038111610d4f5760051b60200190565b60031990602081830112610c9957600435916001600160401b038311610c9957826101e092030112610c995760040190565b81601f82011215610c9957803591612d0283612ca2565b92612d106040519485612c81565b808452602092838086019260051b820101928311610c99578301905b828210612d3a575050505090565b813561ffff81168103610c99578152908301908301612d2c565b90815180825260208080930193019160005b828110612d74575050505090565b835185529381019392810192600101612d66565b6001600160401b038111610d4f57601f01601f191660200190565b929192612daf82612d88565b91612dbd6040519384612c81565b829481845281830111610c99578281602093846000960137010152565b9080601f83011215610c9957816020612df593359101612da3565b90565b35908115158203610c9957565b51906001600160a01b0382168203610c9957565b600c546040516308ed6c0160e41b8152306004820152602481018390526001600160a01b0392916020908290604490829087165afa90811561223857600091612e7e575b50828116612e78575060005260056020526040600020541690565b91505090565b906020823d8211612eaf575b81612e9760209383612c81565b810103126102a25750612ea990612e05565b38612e5d565b3d9150612e8a565b602081830312610c99578051906001600160401b038211610c99570181601f82011215610c99578051612ee981612d88565b92612ef76040519485612c81565b81845260208284010111610c9957612df59160208085019101612b44565b60008181526020906005825260018060a01b036040938185842054161561311d5781600c5416918551630fab094760e01b81523060048201528581602481875afa9081156131135785916130dd575b5016806130ac5750845163f682eeaf60e01b8152306004820152908382602481865afa9182156130a2579085918593613084575b508651630c8df17160e41b81523060048201526024810191909152919282908180604481015b03915afa93841561307a578394613048575b5050612ff882918551948592839263030cecc760e01b84528860048501526044840190612b67565b906024830152038173__$2e464bbf4a8803569df10b07372aceee57$__5af492831561303e5750809261302a57505090565b612df592503d8091833e6103758183612c81565b51903d90823e3d90fd5b9080929450813d8311613073575b6130608183612c81565b81010312610979575191612ff882612fd0565b503d613056565b85513d85823e3d90fd5b612fbe935061309c903d8088833e6103758183612c81565b92612f98565b86513d86823e3d90fd5b93508291506024855180958193636d02a25560e11b835260048301525afa92831561303e5750809261302a57505090565b90508581813d831161310c575b6130f48183612c81565b81010312610a8357518181168103610a835738612f64565b503d6130ea565b87513d87823e3d90fd5b5050919050519061312d82612c66565b815290565b81601f82011215610c995780519161314983612ca2565b926131576040519485612c81565b808452602092838086019260051b820101928311610c99578301905b828210613181575050505090565b81518152908301908301613173565b90602082820312610c995781516001600160401b038111610c9957612df59201613132565b8051156131c25760200190565b634e487b7160e01b600052603260045260246000fd5b80518210156131c25760209160051b010190565b803582526020810135602083015260408101356040830152606081013560608301526080810135608083015260018060a01b0361322b60a08301612bb8565b1660a083015260c081013560c083015261324760e08201612df8565b151560e083015261325c610100809201612df8565b1515910152565b80916101209283910312610c99576040519182018281106001600160401b03821117610d4f57604052805182526020810151602083015260408101516040830152606081015160608301526080810151608083015260a081015160a083015260c081015160c083015260e081015160018060a01b0381168103610c995760e0830152610100809101519082015290565b600d54600854604080516321d1336160e11b815260048101929092526101209594939290916001600160a01b039187908290602490829086165afa9081156134c45761010096976000926134a7575b5050600180968192015160f51c16146134965790816000809493600c54166044845180978193635d53f40760e11b83528860048401528a60248401525af193841561348b57600094613470575b50600c5482516304db994760e21b815230600482015260248101859052946020929183908790604490829086165afa9586156134655760009661342e575b5060005b8781106133e357505050505050505050565b806133ef8a92846131d8565b516133fa818a613793565b878751913383527f031e1988c95a91ec4d655ff63a8f87a80bc9daf28d95ae10ee08c0022cfb5c8b88888d1694a4016133d1565b90958382813d831161345e575b6134458183612c81565b810103126102a2575061345790612e05565b94386133cd565b503d61343b565b84513d6000823e3d90fd5b61348491943d8091833e61087c8183612c81565b923861338f565b82513d6000823e3d90fd5b8151631d2c125760e31b8152600490fd5b6134bd9250803d106122e4576122d58183612c81565b3880613342565b83513d6000823e3d90fd5b906134d8614b18565b600c546040805163eaa19ab360e01b8152600019600482015260606024820152845160648201819052909460848601946001600160a01b0394602094919388918716908685019060005b8181106135f6575050509060009181838160019b8c604483015203925af19687156135eb576000976135c7575b5081519460005b86811061356857505050505050505090565b8061357489928b6131d8565b5161357f8188613793565b61ffff61358c83886131d8565b511685519160008352338a8401527f598baf7bf150ca2f42be9e9f8f55e81d45f5715c3ff22bf46d697fabec7f31d687878b1694a401613556565b6135e391973d8091833e6135db8183612c81565b810190613611565b50953861354f565b50513d6000823e3d90fd5b825161ffff168b52998801998b945091880191600101613522565b9190604083820312610c995782516001600160401b038111610c995760209161363b918501613132565b92015190565b6000908152600560205260409020546001600160a01b031680156136625790565b60405163b49aa3b560e01b8152600490fd5b90600182811c921680156136a4575b602083101461368e57565b634e487b7160e01b600052602260045260246000fd5b91607f1691613683565b6000818152600560205260409020546001600160a01b031615613662576000908152600660205260409020546001600160a01b031690565b9291906136f38233613725565b156126445783613707838361370c976139df565b613ea2565b1561371357565b6040516336f57c1b60e11b8152600490fd5b906001600160a01b03808061373984613641565b1693169183831493841561376c575b508315613756575b50505090565b613762919293506136ae565b1614388080613750565b909350600052600760205260406000208260005260205260ff604060002054169238613748565b6001600160a01b0390811680156139c0576000838152600560205260409020546001600160a01b03166139ae576000918383526005602052613844604093848120846001600160601b0360a01b8254161790558451958085837fddf252ad1be2c89b69c2b068fc378daa952ba7f163c4a11628f55a4df523b3ef818ba4600c5463b67cb04760e01b885230600489015260248801919091529095610140928792851691908490829081906044820190565b0381855afa9384156139a45783946138fd575b50508251813b1561097d57829160648392895194859384926330b157e560e21b845260048401528160248401528a60448401525af180156138f3576138dd575b505060a0015192836138ab575b5050505050565b6138d3946138b885614c6f565b505080805280602052828282205416938152205416906147f0565b38808080806138a4565b60a09296506138eb90612c01565b949038613897565b86513d84823e3d90fd5b9080929450813d831161399d575b6139158183612c81565b810103126109795785519061392982612c4a565b80518252602081015160208301528681015187830152606081015160608301526080810151608083015260a081015160a083015260c081015160c083015261397360e08201612e05565b60e083015261010080820151908301526139916101208092016139d2565b90820152913880613857565b503d61390b565b87513d85823e3d90fd5b604051632eb5f0c360e21b8152600490fd5b604051633904578f60e11b8152600490fd5b51908115158203610c9957565b916139e981613641565b6001600160a01b038481169390918216849003613e3a578116918215613e28578315948515613c18575b50613a1d81613e4c565b6000908082526005602052613aa1604092838120866001600160601b0360a01b8254161790558351928087897fddf252ad1be2c89b69c2b068fc378daa952ba7f163c4a11628f55a4df523b3ef8588a4600c5463b67cb04760e01b855230600486015260248501919091529092610140928492871691908490829081906044820190565b0381855afa938415613c0e578394613b67575b50508251813b1561097d57829160648392885194859384926330b157e560e21b845260048401528d60248401528c60448401525af18015613b5d57613b47575b505060a001519485613b0a575b50505050505050565b613b2b96613b37575b815280602052828282205416938152205416906147f0565b38808080808080613b01565b613b4086614c6f565b5050613b13565b60a0929350613b5590612c01565b919038613af4565b85513d84823e3d90fd5b9080929450813d8311613c07575b613b7f8183612c81565b8101031261097957845190613b9382612c4a565b80518252602081015160208301528581015186830152606081015160608301526080810151608083015260a081015160a083015260c081015160c0830152613bdd60e08201612e05565b60e08301526101008082015190830152613bfb6101208092016139d2565b90820152913880613ab4565b503d613b75565b86513d85823e3d90fd5b82600c54166040908151634228826f60e11b8152306004820152608081602481855afa80156134c457600090613db2575b606091500151613d38575b81516308ed6c0160e41b815230600482015260248101859052602081604481855afa9081156134c457908691600091613cfd575b501615613c97575b5050613a13565b803b15610c99578151638cec7d3960e01b8152600481018590526001600160a01b039390931660248401526000908390604490829084905af1908115613cf35750613ce4575b8080613c90565b613ced90612c01565b38613cdd565b513d6000823e3d90fd5b91506020823d8211613d30575b81613d1760209383612c81565b810103126102a25750613d2a8691612e05565b38613c88565b3d9150613d0a565b84600d541660085483519182916321d1336160e11b835260048301528160246101209485935afa91821561346557600192839261010092600092613d95575b5050015160f41c1603613c545781516318cdaf9760e01b8152600490fd5b613dab9250803d106122e4576122d58183612c81565b3880613d77565b6080823d8211613e20575b81613dca60809383612c81565b810103126102a25750606090613e1782855192613de684612c2f565b613def816139d2565b8452613dfd602082016139d2565b6020850152613e0d8782016139d2565b87850152016139d2565b82820152613c49565b3d9150613dbd565b604051632c95542760e01b8152600490fd5b60405163a195bc5360e01b8152600490fd5b600081815260066020526040812080546001600160a01b03191690556001600160a01b03613e7983613641565b167f8c5be1e5ebec7d5bd14f71427d1e84f3dd0314c0f7b2291e5b200ac8c7c3b92582604051a4565b9293600093909291803b15613fb157948491613efc9660405180948193630a85bd0160e11b9788845233600485015260018060a01b0380921660248501526044840152608060648401528260209b8c976084830190612b67565b0393165af1849181613f71575b50613f60575050503d600014613f58573d613f2381612d88565b90613f316040519283612c81565b81528091833d92013e5b80519182613f55576040516336f57c1b60e11b8152600490fd5b01fd5b506060613f3b565b6001600160e01b0319161492509050565b9091508581813d8311613faa575b613f898183612c81565b81010312610a8357516001600160e01b031981168103610a83579038613f09565b503d613f7f565b505050915050600190565b903590601e1981360301821215610c9957018035906001600160401b038211610c9957602001918136038313610c9957565b9190604083820312610c995761400383612b2f565b9260209081810135906001600160401b038211610c9957019180601f84011215610c9957823561403281612ca2565b936140406040519586612c81565b818552838086019260051b820101928311610c99578301905b828210614067575050505090565b81358152908301908301614059565b9190820391821161164457565b9190820180921161164457565b906080820135614316576101c082016140a98184613fbc565b9050600480911080156142eb575b6142dc5760408051926140c984612c14565b6001845260005b6020808210156140fe578351602092916140e982612c14565b600082526000818301528288010152016140d0565b5050939291829482519061411182612c14565b308252602091600083820152614126866131b5565b52614130856131b5565b506101808801359485156142b7575090614153611cb661418c969594938a613fbc565b600c54855163051330b560e21b8152308682015260248101879052976001600160a01b0390911692508391889182916044830190612d54565b0381845afa95861561346557600096614288575b509080602492855193848092631572f24960e11b825230888301525afa938415613cf35750600093614257575b50506141de828560c08a0135614e4e565b936127109182851461423f5784830392831161422a5750610f609361420e61421a94614226979461421494614e4e565b90614083565b90614dc6565b946101a0810190613fbc565b9190565b601190634e487b7160e01b6000525260246000fd5b505050505092610f60816101a0614226930190613fbc565b8181949293943d8311614281575b61426f8183612c81565b810103126102a25750519038806141cd565b503d614265565b90958282813d83116142b0575b61429f8183612c81565b810103126102a257505194816141a0565b503d614295565b965050505050506142d0836101a0614226950190613fbc565b93906000943691612da3565b604051632a84050f60e01b8152fd5b506142f68285613fbc565b8211610c9957356001600160e01b03191663b3bcbb7960e01b14156140b7565b6040516309f82f1b60e31b8152600490fd5b356001600160a01b0381168103610c995790565b600060c082013590600f54808314600014614637575050506080810135905b61018081016001600160a01b038061437283614328565b166000526020916011835260409361438f85600020548097614083565b60009081926101e081019060246143a68383613fbc565b9050118061460a575b614444575b5050801561443457906143d0916143ca85614328565b906146f5565b95861561440557506143f457906143e960119392614328565b166000525260002055565b8351631b57826960e21b8152600490fd5b919392955050614416575b50505050565b600093614424601193614328565b1684525281205538808080614410565b5050509190936144165750505050565b61445092939450613fbc565b8101919060c081840312610a0057614469878201612b2f565b50614475888201612df8565b9261448260608301612df8565b9461448f60808401612df8565b9260a0810135916001600160401b0383116102a257506144b0929101612ceb565b9093926145ff5780516144c4575b806143b4565b6144cd85614328565b9086600c54169189519263eaa19ab360e01b8452836064810186600483015260606024830152845180915260848201908c8601908d6000905b8282106145e357505050509181600081819582604483015203925af19384156145d85760009384956145b7575b50835193828a1693908c60005b878110614555575050505050505050386144be565b8660019261456383866131d8565b5161456e818a613793565b7f598baf7bf150ca2f42be9e9f8f55e81d45f5715c3ff22bf46d697fabec7f31d661ffff61459c868a6131d8565b5193518a8152336020820152931692604090a4018d90614540565b9094506145ce91933d8091833e6135db8183612c81565b9290929338614533565b8a513d6000823e3d90fd5b835161ffff16855289955093840193909201916001018e614506565b505050505050505050565b506146158282613fbc565b602411610a83578801356001600160e01b03191663b3bcbb7960e01b146143af565b600e546001600160a01b03169081156138a45760105493604d85116146e1579060646020926040519485938492635268657960e11b84526004840152602483015260a089013560448301525afa9182156117955780926146ab575b50506146a591600a0a6080840135614e4e565b9061435b565b9091506020823d82116146d9575b816146c660209383612c81565b810103126102a25750516146a538614692565b3d91506146b9565b634e487b7160e01b84526011600452602484fd5b92919260018060a01b039081600c5416916040519163879791f360e01b8352806004840152606083602481600080985af180156109f55784938580926147aa575b50508097841561478857505090614773877f598baf7bf150ca2f42be9e9f8f55e81d45f5715c3ff22bf46d697fabec7f31d693611ec68689613793565b604080519182523360208301529190951694a4565b9550959650505050506147985790565b604051630e5313df60e41b8152600490fd5b9295509350506060833d82116147e8575b816147c860609383612c81565b810103126102a25750815192604060208401519301519392933880614736565b3d91506147bb565b6001600160a01b039182169291168083141580614b0f575b61481157505050565b806149d6575b5081614821575050565b60008281526001602052614841604082209261483c84614c45565b614083565b90825461484d84614c45565b93811515806149b0575b156148a15761486584614d5d565b9260001983019283116115e85750600080516020614f498339815191529492611f136040959361489493614bf2565b82519182526020820152a2565b63ffffffff80431161495c576148b685614d5d565b92604051906148c482612c14565b43831682526001600160e01b039485166020830190815293600160401b82101561494857906148f891600182018155614bf2565b959095614934575051915163ffffffff9190921616911660201b63ffffffff1916179055600080516020614f4983398151915291604091614894565b634e487b7160e01b81526004819052602490fd5b634e487b7160e01b87526041600452602487fd5b60405162461bcd60e51b815260206004820152602660248201527f53616665436173743a2076616c756520646f65736e27742066697420696e203360448201526532206269747360d01b6064820152608490fd5b5060001982018281116146e1576149cc63ffffffff9183614bf2565b5054164314614857565b6000818152600160205260408120906149f284611ec684614c45565b9082546149fe84614c45565b9381151580614ae9575b15614a5657614a1684614d5d565b9260001983019283116115e85750600080516020614f498339815191529492611f1360409593614a4593614bf2565b82519182526020820152a238614817565b63ffffffff80431161495c57614a6b85614d5d565b9260405190614a7982612c14565b43831682526001600160e01b039485166020830190815293600160401b8210156149485790614aad91600182018155614bf2565b959095614934575051915163ffffffff9190921616911660201b63ffffffff1916179055600080516020614f4983398151915291604091614a45565b5060001982018281116146e157614b0563ffffffff9183614bf2565b5054164314614a08565b50811515614808565b600a546001600160a01b03163303614b2c57565b606460405162461bcd60e51b815260206004820152602060248201527f4f776e61626c653a2063616c6c6572206973206e6f7420746865206f776e65726044820152fd5b600a549060018060a01b0380911691826001600160601b0360a01b821617600a55167f8be0079c531659141344cd1fd0a4f28419497f9722a3daafe3b4186f6b6457e06000604051a3565b6002548110156131c25760026000527f405787fa12a823e0f2b7631cc41b3ba8828b3321ca811111fa75cd3aa3bb5ace0190600090565b80548210156131c25760005260206000200190600090565b600254600081614c2557505060005b6001600160e01b031690565b60001982019182116115e85750614c3b90614bbb565b505460201c614c19565b80546000929181614c5857506000925050565b60001982019182116146e157614c3b929350614bf2565b614c7b9061483c614c0a565b90600254614c87614c0a565b9080151580614d38575b15614cb757614c9f84614d5d565b600019820191821161164457611f1361422692614bbb565b63ffffffff80431161495c57614ccc85614d5d565b60405192614cd984612c14565b43831684526001600160e01b039182166020850190815290600160401b811015610d4f57806001614d0d9201600255614bbb565b939093611ff1579351905163ffffffff9190941616921660201b63ffffffff19169190911790559190565b50600019810181811161164457614d5363ffffffff91614bbb565b5054164314614c91565b6001600160e01b0390818111614d71571690565b60405162461bcd60e51b815260206004820152602760248201527f53616665436173743a2076616c756520646f65736e27742066697420696e20326044820152663234206269747360c81b6064820152608490fd5b919060001981840981840291828083109203918083039214614e43576127109081831015614e25577fbc01a36e2eb1c432ca57a786c226809d495182a9930be0ded288ce703afb7e9194950990828211900360fc1b910360041c170290565b6044838360405191631dcf306360e21b835260048301526024820152fd5b505061271090049150565b90916000198383099280830292838086109503948086039514614ee45782851015614ec657908291096001821901821680920460028082600302188083028203028083028203028083028203028083028203028083028203028092029003029360018380600003040190848311900302920304170290565b6044858460405191631dcf306360e21b835260048301526024820152fd5b505080925015614ef2570490565b634e487b7160e01b600052601260045260246000fdfec2575a0e9e593c00f959f8c92f12db2869c3395a3b0502d05e2516446f71f85b8a35acfbc15ff81a39ae7d344fd709f28e8600b4aa8c65c6b64bfe7fe36bd19bdec2bacdd2f05b59de34da9b523dff8be42e5e38e818c82fdb0bae774387a724a264697066735822122027296003d4f34bb17dc78e2953a11e42053fbe0e8ceebe36d3b567ab311bfcfb64736f6c63430008100033",
    "linkReferences": {
      "contracts/libraries/JBIpfsDecoder.sol": {
        "JBIpfsDecoder": [
          {
            "start": 12397,
            "length": 20
          }
        ]
      }
    }
  },
  "methodIdentifiers": {
    "adjustTiers((uint256,uint256,uint256,uint256,uint256,address,bytes32,bool,bool)[],uint256[])": "211eb001",
    "approve(address,uint256)": "095ea7b3",
    "balanceOf(address)": "70a08231",
    "contractURI()": "e8a3d485",
    "creditsOf(address)": "245a45b5",
    "delegate(address)": "5c19a95c",
    "delegates(address)": "587cde1e",
    "didPay((address,uint256,uint256,(address,uint256,uint256,uint256),(address,uint256,uint256,uint256),uint256,address,bool,string,bytes))": "da9ee8b7",
    "didRedeem((address,uint256,uint256,uint256,(address,uint256,uint256,uint256),(address,uint256,uint256,uint256),address,string,bytes))": "2b13c58f",
    "directory()": "c41c2f24",
    "firstOwnerOf(uint256)": "54c6d1f5",
    "fundingCycleStore()": "557e7155",
    "getApproved(uint256)": "081812fc",
    "getPastTotalSupply(uint256)": "8e539e8c",
    "getPastVotes(address,uint256)": "3a46b1a8",
    "getVotes(address)": "9ab24eb0",
    "initialize(uint256,address,string,string,address,string,address,string,((uint256,uint256,uint256,uint256,uint256,address,bytes32,bool,bool)[],uint256,uint256,address),address,(bool,bool,bool,bool))": "dfedb3af",
    "isApprovedForAll(address,address)": "e985e9c5",
    "mintFor((uint16[],address)[])": "36c1a93b",
    "mintFor(uint16[],address)": "6ac6d941",
    "mintReservesFor((uint256,uint256)[])": "2a596e53",
    "mintReservesFor(uint256,uint256)": "aa4fb15b",
    "name()": "06fdde03",
    "owner()": "8da5cb5b",
    "ownerOf(uint256)": "6352211e",
    "payParams((address,address,(address,uint256,uint256,uint256),uint256,uint256,address,uint256,uint256,string,bytes))": "d46cf171",
    "prices()": "d3419bf3",
    "pricingCurrency()": "64640c1e",
    "pricingDecimals()": "4ecba625",
    "projectId()": "3fafa127",
    "redeemParams((address,address,uint256,uint256,uint256,uint256,uint256,(address,uint256,uint256,uint256),bool,uint256,string,bytes))": "a51cfd18",
    "renounceOwnership()": "715018a6",
    "safeTransferFrom(address,address,uint256)": "42842e0e",
    "safeTransferFrom(address,address,uint256,bytes)": "b88d4fde",
    "setApprovalForAll(address,bool)": "a22cb465",
    "setBaseUri(string)": "a0bcfc7f",
    "setContractUri(string)": "ccb4807b",
    "setDefaultReservedTokenBeneficiary(address)": "df487e26",
    "setTokenUriResolver(address)": "2407497e",
    "store()": "975057e7",
    "supportsInterface(bytes4)": "01ffc9a7",
    "symbol()": "95d89b41",
    "tokenURI(uint256)": "c87b56dd",
    "transferFrom(address,address,uint256)": "23b872dd",
    "transferOwnership(address)": "f2fde38b"
  },
  "id": 0
}