{
  "abi": [
    {
      "inputs": [],
      "name": "ALEADY_MINTED",
      "type": "error"
    },
    {
      "inputs": [],
      "name": "APPROVAL_TO_CURRENT_OWNER",
      "type": "error"
    },
    {
      "inputs": [],
      "name": "APPROVE_TO_CALLER",
      "type": "error"
    },
    {
      "inputs": [],
      "name": "BLOCK_NOT_YET_MINED",
      "type": "error"
    },
    {
      "inputs": [],
      "name": "CALLER_NOT_OWNER_OR_APPROVED",
      "type": "error"
    },
    {
      "inputs": [],
      "name": "INCORRECT_OWNER",
      "type": "error"
    },
    {
      "inputs": [],
      "name": "INVALID",
      "type": "error"
    },
    {
      "inputs": [],
      "name": "INVALID_PAYMENT_EVENT",
      "type": "error"
    },
    {
      "inputs": [],
      "name": "INVALID_REDEMPTION_EVENT",
      "type": "error"
    },
    {
      "inputs": [],
      "name": "INVALID_REDEMPTION_METADATA",
      "type": "error"
    },
    {
      "inputs": [],
      "name": "INVALID_TOKEN_ID",
      "type": "error"
    },
    {
      "inputs": [],
      "name": "MINT_TO_ZERO",
      "type": "error"
    },
    {
      "inputs": [],
      "name": "NOT_AVAILABLE",
      "type": "error"
    },
    {
      "inputs": [],
      "name": "OVERSPENDING",
      "type": "error"
    },
    {
      "inputs": [
        {
          "internalType": "uint256",
          "name": "prod1",
          "type": "uint256"
        },
        {
          "internalType": "uint256",
          "name": "denominator",
          "type": "uint256"
        }
      ],
      "name": "PRBMath__MulDivOverflow",
      "type": "error"
    },
    {
      "inputs": [],
      "name": "PRICING_RESOLVER_CHANGES_PAUSED",
      "type": "error"
    },
    {
      "inputs": [],
      "name": "RESERVED_TOKEN_MINTING_PAUSED",
      "type": "error"
    },
    {
      "inputs": [],
      "name": "SIGNATURE_EXPIRED",
      "type": "error"
    },
    {
      "inputs": [],
      "name": "TRANSFERS_PAUSED",
      "type": "error"
    },
    {
      "inputs": [],
      "name": "TRANSFER_TO_NON_IMPLEMENTER",
      "type": "error"
    },
    {
      "inputs": [],
      "name": "TRANSFER_TO_ZERO_ADDRESS",
      "type": "error"
    },
    {
      "inputs": [],
      "name": "UNAUTHORIZED",
      "type": "error"
    },
    {
      "inputs": [],
      "name": "UNEXPECTED_TOKEN_REDEEMED",
      "type": "error"
    },
    {
      "anonymous": false,
      "inputs": [
        {
          "indexed": true,
          "internalType": "uint256",
          "name": "tierId",
          "type": "uint256"
        },
        {
          "components": [
            {
              "internalType": "uint80",
              "name": "contributionFloor",
              "type": "uint80"
            },
            {
              "internalType": "uint48",
              "name": "lockedUntil",
              "type": "uint48"
            },
            {
              "internalType": "uint40",
              "name": "initialQuantity",
              "type": "uint40"
            },
            {
              "internalType": "uint16",
              "name": "votingUnits",
              "type": "uint16"
            },
            {
              "internalType": "uint16",
              "name": "reservedRate",
              "type": "uint16"
            },
            {
              "internalType": "address",
              "name": "reservedTokenBeneficiary",
              "type": "address"
            },
            {
              "internalType": "uint8",
              "name": "royaltyRate",
              "type": "uint8"
            },
            {
              "internalType": "address",
              "name": "royaltyBeneficiary",
              "type": "address"
            },
            {
              "internalType": "bytes32",
              "name": "encodedIPFSUri",
              "type": "bytes32"
            },
            {
              "internalType": "uint8",
              "name": "category",
              "type": "uint8"
            },
            {
              "internalType": "bool",
              "name": "allowManualMint",
              "type": "bool"
            },
            {
              "internalType": "bool",
              "name": "shouldUseReservedTokenBeneficiaryAsDefault",
              "type": "bool"
            },
            {
              "internalType": "bool",
              "name": "shouldUseRoyaltyBeneficiaryAsDefault",
              "type": "bool"
            },
            {
              "internalType": "bool",
              "name": "transfersPausable",
              "type": "bool"
            }
          ],
          "indexed": false,
          "internalType": "struct JB721TierParams",
          "name": "data",
          "type": "tuple"
        },
        {
          "indexed": false,
          "internalType": "address",
          "name": "caller",
          "type": "address"
        }
      ],
      "name": "AddTier",
      "type": "event"
    },
    {
      "anonymous": false,
      "inputs": [
        {
          "indexed": true,
          "internalType": "address",
          "name": "owner",
          "type": "address"
        },
        {
          "indexed": true,
          "internalType": "address",
          "name": "approved",
          "type": "address"
        },
        {
          "indexed": true,
          "internalType": "uint256",
          "name": "tokenId",
          "type": "uint256"
        }
      ],
      "name": "Approval",
      "type": "event"
    },
    {
      "anonymous": false,
      "inputs": [
        {
          "indexed": true,
          "internalType": "address",
          "name": "owner",
          "type": "address"
        },
        {
          "indexed": true,
          "internalType": "address",
          "name": "operator",
          "type": "address"
        },
        {
          "indexed": false,
          "internalType": "bool",
          "name": "approved",
          "type": "bool"
        }
      ],
      "name": "ApprovalForAll",
      "type": "event"
    },
    {
      "anonymous": false,
      "inputs": [
        {
          "indexed": true,
          "internalType": "address",
          "name": "delegator",
          "type": "address"
        },
        {
          "indexed": true,
          "internalType": "address",
          "name": "fromDelegate",
          "type": "address"
        },
        {
          "indexed": true,
          "internalType": "address",
          "name": "toDelegate",
          "type": "address"
        }
      ],
      "name": "DelegateChanged",
      "type": "event"
    },
    {
      "anonymous": false,
      "inputs": [
        {
          "indexed": true,
          "internalType": "address",
          "name": "delegate",
          "type": "address"
        },
        {
          "indexed": false,
          "internalType": "uint256",
          "name": "previousBalance",
          "type": "uint256"
        },
        {
          "indexed": false,
          "internalType": "uint256",
          "name": "newBalance",
          "type": "uint256"
        }
      ],
      "name": "DelegateVotesChanged",
      "type": "event"
    },
    {
      "anonymous": false,
      "inputs": [
        {
          "indexed": true,
          "internalType": "uint256",
          "name": "tokenId",
          "type": "uint256"
        },
        {
          "indexed": true,
          "internalType": "uint256",
          "name": "tierId",
          "type": "uint256"
        },
        {
          "indexed": true,
          "internalType": "address",
          "name": "beneficiary",
          "type": "address"
        },
        {
          "indexed": false,
          "internalType": "uint256",
          "name": "totalAmountContributed",
          "type": "uint256"
        },
        {
          "indexed": false,
          "internalType": "address",
          "name": "caller",
          "type": "address"
        }
      ],
      "name": "Mint",
      "type": "event"
    },
    {
      "anonymous": false,
      "inputs": [
        {
          "indexed": true,
          "internalType": "uint256",
          "name": "tokenId",
          "type": "uint256"
        },
        {
          "indexed": true,
          "internalType": "uint256",
          "name": "tierId",
          "type": "uint256"
        },
        {
          "indexed": true,
          "internalType": "address",
          "name": "beneficiary",
          "type": "address"
        },
        {
          "indexed": false,
          "internalType": "address",
          "name": "caller",
          "type": "address"
        }
      ],
      "name": "MintReservedToken",
      "type": "event"
    },
    {
      "anonymous": false,
      "inputs": [
        {
          "indexed": true,
          "internalType": "address",
          "name": "previousOwner",
          "type": "address"
        },
        {
          "indexed": true,
          "internalType": "address",
          "name": "newOwner",
          "type": "address"
        }
      ],
      "name": "OwnershipTransferred",
      "type": "event"
    },
    {
      "anonymous": false,
      "inputs": [
        {
          "indexed": true,
          "internalType": "uint256",
          "name": "tierId",
          "type": "uint256"
        },
        {
          "indexed": false,
          "internalType": "address",
          "name": "caller",
          "type": "address"
        }
      ],
      "name": "RemoveTier",
      "type": "event"
    },
    {
      "anonymous": false,
      "inputs": [
        {
          "indexed": true,
          "internalType": "string",
          "name": "baseUri",
          "type": "string"
        },
        {
          "indexed": false,
          "internalType": "address",
          "name": "caller",
          "type": "address"
        }
      ],
      "name": "SetBaseUri",
      "type": "event"
    },
    {
      "anonymous": false,
      "inputs": [
        {
          "indexed": true,
          "internalType": "string",
          "name": "contractUri",
          "type": "string"
        },
        {
          "indexed": false,
          "internalType": "address",
          "name": "caller",
          "type": "address"
        }
      ],
      "name": "SetContractUri",
      "type": "event"
    },
    {
      "anonymous": false,
      "inputs": [
        {
          "indexed": true,
          "internalType": "address",
          "name": "beneficiary",
          "type": "address"
        },
        {
          "indexed": false,
          "internalType": "address",
          "name": "caller",
          "type": "address"
        }
      ],
      "name": "SetDefaultReservedTokenBeneficiary",
      "type": "event"
    },
    {
      "anonymous": false,
      "inputs": [
        {
          "indexed": true,
          "internalType": "uint256",
          "name": "tierId",
          "type": "uint256"
        },
        {
          "indexed": false,
          "internalType": "bytes32",
          "name": "encodedIPFSUri",
          "type": "bytes32"
        },
        {
          "indexed": false,
          "internalType": "address",
          "name": "caller",
          "type": "address"
        }
      ],
      "name": "SetEncodedIPFSUri",
      "type": "event"
    },
    {
      "anonymous": false,
      "inputs": [
        {
          "indexed": true,
          "internalType": "contract IJBTokenUriResolver",
          "name": "newResolver",
          "type": "address"
        },
        {
          "indexed": false,
          "internalType": "address",
          "name": "caller",
          "type": "address"
        }
      ],
      "name": "SetTokenUriResolver",
      "type": "event"
    },
    {
      "anonymous": false,
      "inputs": [
        {
          "indexed": true,
          "internalType": "address",
          "name": "from",
          "type": "address"
        },
        {
          "indexed": true,
          "internalType": "address",
          "name": "to",
          "type": "address"
        },
        {
          "indexed": true,
          "internalType": "uint256",
          "name": "tokenId",
          "type": "uint256"
        }
      ],
      "name": "Transfer",
      "type": "event"
    },
    {
      "inputs": [],
      "name": "MAX_ROYALTY_RATE",
      "outputs": [
        {
          "internalType": "uint256",
          "name": "",
          "type": "uint256"
        }
      ],
      "stateMutability": "view",
      "type": "function"
    },
    {
      "inputs": [
        {
          "components": [
            {
              "internalType": "uint80",
              "name": "contributionFloor",
              "type": "uint80"
            },
            {
              "internalType": "uint48",
              "name": "lockedUntil",
              "type": "uint48"
            },
            {
              "internalType": "uint40",
              "name": "initialQuantity",
              "type": "uint40"
            },
            {
              "internalType": "uint16",
              "name": "votingUnits",
              "type": "uint16"
            },
            {
              "internalType": "uint16",
              "name": "reservedRate",
              "type": "uint16"
            },
            {
              "internalType": "address",
              "name": "reservedTokenBeneficiary",
              "type": "address"
            },
            {
              "internalType": "uint8",
              "name": "royaltyRate",
              "type": "uint8"
            },
            {
              "internalType": "address",
              "name": "royaltyBeneficiary",
              "type": "address"
            },
            {
              "internalType": "bytes32",
              "name": "encodedIPFSUri",
              "type": "bytes32"
            },
            {
              "internalType": "uint8",
              "name": "category",
              "type": "uint8"
            },
            {
              "internalType": "bool",
              "name": "allowManualMint",
              "type": "bool"
            },
            {
              "internalType": "bool",
              "name": "shouldUseReservedTokenBeneficiaryAsDefault",
              "type": "bool"
            },
            {
              "internalType": "bool",
              "name": "shouldUseRoyaltyBeneficiaryAsDefault",
              "type": "bool"
            },
            {
              "internalType": "bool",
              "name": "transfersPausable",
              "type": "bool"
            }
          ],
          "internalType": "struct JB721TierParams[]",
          "name": "_tiersToAdd",
          "type": "tuple[]"
        },
        {
          "internalType": "uint256[]",
          "name": "_tierIdsToRemove",
          "type": "uint256[]"
        }
      ],
      "name": "adjustTiers",
      "outputs": [],
      "stateMutability": "nonpayable",
      "type": "function"
    },
    {
      "inputs": [
        {
          "internalType": "address",
          "name": "to",
          "type": "address"
        },
        {
          "internalType": "uint256",
          "name": "tokenId",
          "type": "uint256"
        }
      ],
      "name": "approve",
      "outputs": [],
      "stateMutability": "nonpayable",
      "type": "function"
    },
    {
      "inputs": [
        {
          "internalType": "address",
          "name": "_owner",
          "type": "address"
        }
      ],
      "name": "balanceOf",
      "outputs": [
        {
          "internalType": "uint256",
          "name": "balance",
          "type": "uint256"
        }
      ],
      "stateMutability": "view",
      "type": "function"
    },
    {
      "inputs": [],
      "name": "codeOrigin",
      "outputs": [
        {
          "internalType": "address",
          "name": "",
          "type": "address"
        }
      ],
      "stateMutability": "view",
      "type": "function"
    },
    {
      "inputs": [],
      "name": "contractURI",
      "outputs": [
        {
          "internalType": "string",
          "name": "",
          "type": "string"
        }
      ],
      "stateMutability": "view",
      "type": "function"
    },
    {
      "inputs": [
        {
          "internalType": "address",
          "name": "",
          "type": "address"
        }
      ],
      "name": "creditsOf",
      "outputs": [
        {
          "internalType": "uint256",
          "name": "",
          "type": "uint256"
        }
      ],
      "stateMutability": "view",
      "type": "function"
    },
    {
      "inputs": [
        {
          "internalType": "address",
          "name": "delegatee",
          "type": "address"
        }
      ],
      "name": "delegate",
      "outputs": [],
      "stateMutability": "nonpayable",
      "type": "function"
    },
    {
      "inputs": [
        {
          "internalType": "address",
          "name": "account",
          "type": "address"
        }
      ],
      "name": "delegates",
      "outputs": [
        {
          "internalType": "address",
          "name": "",
          "type": "address"
        }
      ],
      "stateMutability": "view",
      "type": "function"
    },
    {
      "inputs": [
        {
          "components": [
            {
              "internalType": "address",
              "name": "payer",
              "type": "address"
            },
            {
              "internalType": "uint256",
              "name": "projectId",
              "type": "uint256"
            },
            {
              "internalType": "uint256",
              "name": "currentFundingCycleConfiguration",
              "type": "uint256"
            },
            {
              "components": [
                {
                  "internalType": "address",
                  "name": "token",
                  "type": "address"
                },
                {
                  "internalType": "uint256",
                  "name": "value",
                  "type": "uint256"
                },
                {
                  "internalType": "uint256",
                  "name": "decimals",
                  "type": "uint256"
                },
                {
                  "internalType": "uint256",
                  "name": "currency",
                  "type": "uint256"
                }
              ],
              "internalType": "struct JBTokenAmount",
              "name": "amount",
              "type": "tuple"
            },
            {
              "components": [
                {
                  "internalType": "address",
                  "name": "token",
                  "type": "address"
                },
                {
                  "internalType": "uint256",
                  "name": "value",
                  "type": "uint256"
                },
                {
                  "internalType": "uint256",
                  "name": "decimals",
                  "type": "uint256"
                },
                {
                  "internalType": "uint256",
                  "name": "currency",
                  "type": "uint256"
                }
              ],
              "internalType": "struct JBTokenAmount",
              "name": "forwardedAmount",
              "type": "tuple"
            },
            {
              "internalType": "uint256",
              "name": "projectTokenCount",
              "type": "uint256"
            },
            {
              "internalType": "address",
              "name": "beneficiary",
              "type": "address"
            },
            {
              "internalType": "bool",
              "name": "preferClaimedTokens",
              "type": "bool"
            },
            {
              "internalType": "string",
              "name": "memo",
              "type": "string"
            },
            {
              "internalType": "bytes",
              "name": "metadata",
              "type": "bytes"
            }
          ],
          "internalType": "struct JBDidPayData",
          "name": "_data",
          "type": "tuple"
        }
      ],
      "name": "didPay",
      "outputs": [],
      "stateMutability": "payable",
      "type": "function"
    },
    {
      "inputs": [
        {
          "components": [
            {
              "internalType": "address",
              "name": "holder",
              "type": "address"
            },
            {
              "internalType": "uint256",
              "name": "projectId",
              "type": "uint256"
            },
            {
              "internalType": "uint256",
              "name": "currentFundingCycleConfiguration",
              "type": "uint256"
            },
            {
              "internalType": "uint256",
              "name": "projectTokenCount",
              "type": "uint256"
            },
            {
              "components": [
                {
                  "internalType": "address",
                  "name": "token",
                  "type": "address"
                },
                {
                  "internalType": "uint256",
                  "name": "value",
                  "type": "uint256"
                },
                {
                  "internalType": "uint256",
                  "name": "decimals",
                  "type": "uint256"
                },
                {
                  "internalType": "uint256",
                  "name": "currency",
                  "type": "uint256"
                }
              ],
              "internalType": "struct JBTokenAmount",
              "name": "reclaimedAmount",
              "type": "tuple"
            },
            {
              "components": [
                {
                  "internalType": "address",
                  "name": "token",
                  "type": "address"
                },
                {
                  "internalType": "uint256",
                  "name": "value",
                  "type": "uint256"
                },
                {
                  "internalType": "uint256",
                  "name": "decimals",
                  "type": "uint256"
                },
                {
                  "internalType": "uint256",
                  "name": "currency",
                  "type": "uint256"
                }
              ],
              "internalType": "struct JBTokenAmount",
              "name": "forwardedAmount",
              "type": "tuple"
            },
            {
              "internalType": "address payable",
              "name": "beneficiary",
              "type": "address"
            },
            {
              "internalType": "string",
              "name": "memo",
              "type": "string"
            },
            {
              "internalType": "bytes",
              "name": "metadata",
              "type": "bytes"
            }
          ],
          "internalType": "struct JBDidRedeemData",
          "name": "_data",
          "type": "tuple"
        }
      ],
      "name": "didRedeem",
      "outputs": [],
      "stateMutability": "payable",
      "type": "function"
    },
    {
      "inputs": [],
      "name": "directory",
      "outputs": [
        {
          "internalType": "contract IJBDirectory",
          "name": "",
          "type": "address"
        }
      ],
      "stateMutability": "view",
      "type": "function"
    },
    {
      "inputs": [
        {
          "internalType": "uint256",
          "name": "_tokenId",
          "type": "uint256"
        }
      ],
      "name": "firstOwnerOf",
      "outputs": [
        {
          "internalType": "address",
          "name": "",
          "type": "address"
        }
      ],
      "stateMutability": "view",
      "type": "function"
    },
    {
      "inputs": [],
      "name": "fundingCycleStore",
      "outputs": [
        {
          "internalType": "contract IJBFundingCycleStore",
          "name": "",
          "type": "address"
        }
      ],
      "stateMutability": "view",
      "type": "function"
    },
    {
      "inputs": [
        {
          "internalType": "uint256",
          "name": "tokenId",
          "type": "uint256"
        }
      ],
      "name": "getApproved",
      "outputs": [
        {
          "internalType": "address",
          "name": "",
          "type": "address"
        }
      ],
      "stateMutability": "view",
      "type": "function"
    },
    {
      "inputs": [
        {
          "internalType": "uint256",
          "name": "blockNumber",
          "type": "uint256"
        }
      ],
      "name": "getPastTotalSupply",
      "outputs": [
        {
          "internalType": "uint256",
          "name": "",
          "type": "uint256"
        }
      ],
      "stateMutability": "view",
      "type": "function"
    },
    {
      "inputs": [
        {
          "internalType": "address",
          "name": "account",
          "type": "address"
        },
        {
          "internalType": "uint256",
          "name": "blockNumber",
          "type": "uint256"
        }
      ],
      "name": "getPastVotes",
      "outputs": [
        {
          "internalType": "uint256",
          "name": "",
          "type": "uint256"
        }
      ],
      "stateMutability": "view",
      "type": "function"
    },
    {
      "inputs": [
        {
          "internalType": "address",
          "name": "account",
          "type": "address"
        }
      ],
      "name": "getVotes",
      "outputs": [
        {
          "internalType": "uint256",
          "name": "",
          "type": "uint256"
        }
      ],
      "stateMutability": "view",
      "type": "function"
    },
    {
      "inputs": [
        {
          "internalType": "uint256",
          "name": "_projectId",
          "type": "uint256"
        },
        {
          "internalType": "contract IJBDirectory",
          "name": "_directory",
          "type": "address"
        },
        {
          "internalType": "string",
          "name": "_name",
          "type": "string"
        },
        {
          "internalType": "string",
          "name": "_symbol",
          "type": "string"
        },
        {
          "internalType": "contract IJBFundingCycleStore",
          "name": "_fundingCycleStore",
          "type": "address"
        },
        {
          "internalType": "string",
          "name": "_baseUri",
          "type": "string"
        },
        {
          "internalType": "contract IJBTokenUriResolver",
          "name": "_tokenUriResolver",
          "type": "address"
        },
        {
          "internalType": "string",
          "name": "_contractUri",
          "type": "string"
        },
        {
          "components": [
            {
              "components": [
                {
                  "internalType": "uint80",
                  "name": "contributionFloor",
                  "type": "uint80"
                },
                {
                  "internalType": "uint48",
                  "name": "lockedUntil",
                  "type": "uint48"
                },
                {
                  "internalType": "uint40",
                  "name": "initialQuantity",
                  "type": "uint40"
                },
                {
                  "internalType": "uint16",
                  "name": "votingUnits",
                  "type": "uint16"
                },
                {
                  "internalType": "uint16",
                  "name": "reservedRate",
                  "type": "uint16"
                },
                {
                  "internalType": "address",
                  "name": "reservedTokenBeneficiary",
                  "type": "address"
                },
                {
                  "internalType": "uint8",
                  "name": "royaltyRate",
                  "type": "uint8"
                },
                {
                  "internalType": "address",
                  "name": "royaltyBeneficiary",
                  "type": "address"
                },
                {
                  "internalType": "bytes32",
                  "name": "encodedIPFSUri",
                  "type": "bytes32"
                },
                {
                  "internalType": "uint8",
                  "name": "category",
                  "type": "uint8"
                },
                {
                  "internalType": "bool",
                  "name": "allowManualMint",
                  "type": "bool"
                },
                {
                  "internalType": "bool",
                  "name": "shouldUseReservedTokenBeneficiaryAsDefault",
                  "type": "bool"
                },
                {
                  "internalType": "bool",
                  "name": "shouldUseRoyaltyBeneficiaryAsDefault",
                  "type": "bool"
                },
                {
                  "internalType": "bool",
                  "name": "transfersPausable",
                  "type": "bool"
                }
              ],
              "internalType": "struct JB721TierParams[]",
              "name": "tiers",
              "type": "tuple[]"
            },
            {
              "internalType": "uint256",
              "name": "currency",
              "type": "uint256"
            },
            {
              "internalType": "uint256",
              "name": "decimals",
              "type": "uint256"
            },
            {
              "internalType": "contract IJBPrices",
              "name": "prices",
              "type": "address"
            }
          ],
          "internalType": "struct JB721PricingParams",
          "name": "_pricing",
          "type": "tuple"
        },
        {
          "internalType": "contract IJBTiered721DelegateStore",
          "name": "_store",
          "type": "address"
        },
        {
          "components": [
            {
              "internalType": "bool",
              "name": "lockReservedTokenChanges",
              "type": "bool"
            },
            {
              "internalType": "bool",
              "name": "lockVotingUnitChanges",
              "type": "bool"
            },
            {
              "internalType": "bool",
              "name": "lockManualMintingChanges",
              "type": "bool"
            },
            {
              "internalType": "bool",
              "name": "preventOverspending",
              "type": "bool"
            }
          ],
          "internalType": "struct JBTiered721Flags",
          "name": "_flags",
          "type": "tuple"
        }
      ],
      "name": "initialize",
      "outputs": [],
      "stateMutability": "nonpayable",
      "type": "function"
    },
    {
      "inputs": [
        {
          "internalType": "address",
          "name": "owner",
          "type": "address"
        },
        {
          "internalType": "address",
          "name": "operator",
          "type": "address"
        }
      ],
      "name": "isApprovedForAll",
      "outputs": [
        {
          "internalType": "bool",
          "name": "",
          "type": "bool"
        }
      ],
      "stateMutability": "view",
      "type": "function"
    },
    {
      "inputs": [
        {
          "components": [
            {
              "internalType": "uint16[]",
              "name": "tierIds",
              "type": "uint16[]"
            },
            {
              "internalType": "address",
              "name": "beneficiary",
              "type": "address"
            }
          ],
          "internalType": "struct JBTiered721MintForTiersData[]",
          "name": "_mintForTiersData",
          "type": "tuple[]"
        }
      ],
      "name": "mintFor",
      "outputs": [],
      "stateMutability": "nonpayable",
      "type": "function"
    },
    {
      "inputs": [
        {
          "internalType": "uint16[]",
          "name": "_tierIds",
          "type": "uint16[]"
        },
        {
          "internalType": "address",
          "name": "_beneficiary",
          "type": "address"
        }
      ],
      "name": "mintFor",
      "outputs": [
        {
          "internalType": "uint256[]",
          "name": "tokenIds",
          "type": "uint256[]"
        }
      ],
      "stateMutability": "nonpayable",
      "type": "function"
    },
    {
      "inputs": [
        {
          "components": [
            {
              "internalType": "uint256",
              "name": "tierId",
              "type": "uint256"
            },
            {
              "internalType": "uint256",
              "name": "count",
              "type": "uint256"
            }
          ],
          "internalType": "struct JBTiered721MintReservesForTiersData[]",
          "name": "_mintReservesForTiersData",
          "type": "tuple[]"
        }
      ],
      "name": "mintReservesFor",
      "outputs": [],
      "stateMutability": "nonpayable",
      "type": "function"
    },
    {
      "inputs": [
        {
          "internalType": "uint256",
          "name": "_tierId",
          "type": "uint256"
        },
        {
          "internalType": "uint256",
          "name": "_count",
          "type": "uint256"
        }
      ],
      "name": "mintReservesFor",
      "outputs": [],
      "stateMutability": "nonpayable",
      "type": "function"
    },
    {
      "inputs": [],
      "name": "name",
      "outputs": [
        {
          "internalType": "string",
          "name": "",
          "type": "string"
        }
      ],
      "stateMutability": "view",
      "type": "function"
    },
    {
      "inputs": [],
      "name": "owner",
      "outputs": [
        {
          "internalType": "address",
          "name": "",
          "type": "address"
        }
      ],
      "stateMutability": "view",
      "type": "function"
    },
    {
      "inputs": [
        {
          "internalType": "uint256",
          "name": "tokenId",
          "type": "uint256"
        }
      ],
      "name": "ownerOf",
      "outputs": [
        {
          "internalType": "address",
          "name": "",
          "type": "address"
        }
      ],
      "stateMutability": "view",
      "type": "function"
    },
    {
      "inputs": [
        {
          "components": [
            {
              "internalType": "contract IJBPaymentTerminal",
              "name": "terminal",
              "type": "address"
            },
            {
              "internalType": "address",
              "name": "payer",
              "type": "address"
            },
            {
              "components": [
                {
                  "internalType": "address",
                  "name": "token",
                  "type": "address"
                },
                {
                  "internalType": "uint256",
                  "name": "value",
                  "type": "uint256"
                },
                {
                  "internalType": "uint256",
                  "name": "decimals",
                  "type": "uint256"
                },
                {
                  "internalType": "uint256",
                  "name": "currency",
                  "type": "uint256"
                }
              ],
              "internalType": "struct JBTokenAmount",
              "name": "amount",
              "type": "tuple"
            },
            {
              "internalType": "uint256",
              "name": "projectId",
              "type": "uint256"
            },
            {
              "internalType": "uint256",
              "name": "currentFundingCycleConfiguration",
              "type": "uint256"
            },
            {
              "internalType": "address",
              "name": "beneficiary",
              "type": "address"
            },
            {
              "internalType": "uint256",
              "name": "weight",
              "type": "uint256"
            },
            {
              "internalType": "uint256",
              "name": "reservedRate",
              "type": "uint256"
            },
            {
              "internalType": "string",
              "name": "memo",
              "type": "string"
            },
            {
              "internalType": "bytes",
              "name": "metadata",
              "type": "bytes"
            }
          ],
          "internalType": "struct JBPayParamsData",
          "name": "_data",
          "type": "tuple"
        }
      ],
      "name": "payParams",
      "outputs": [
        {
          "internalType": "uint256",
          "name": "weight",
          "type": "uint256"
        },
        {
          "internalType": "string",
          "name": "memo",
          "type": "string"
        },
        {
          "components": [
            {
              "internalType": "contract IJBPayDelegate",
              "name": "delegate",
              "type": "address"
            },
            {
              "internalType": "uint256",
              "name": "amount",
              "type": "uint256"
            }
          ],
          "internalType": "struct JBPayDelegateAllocation[]",
          "name": "delegateAllocations",
          "type": "tuple[]"
        }
      ],
      "stateMutability": "view",
      "type": "function"
    },
    {
      "inputs": [],
      "name": "prices",
      "outputs": [
        {
          "internalType": "contract IJBPrices",
          "name": "",
          "type": "address"
        }
      ],
      "stateMutability": "view",
      "type": "function"
    },
    {
      "inputs": [],
      "name": "pricingCurrency",
      "outputs": [
        {
          "internalType": "uint256",
          "name": "",
          "type": "uint256"
        }
      ],
      "stateMutability": "view",
      "type": "function"
    },
    {
      "inputs": [],
      "name": "pricingDecimals",
      "outputs": [
        {
          "internalType": "uint256",
          "name": "",
          "type": "uint256"
        }
      ],
      "stateMutability": "view",
      "type": "function"
    },
    {
      "inputs": [],
      "name": "projectId",
      "outputs": [
        {
          "internalType": "uint256",
          "name": "",
          "type": "uint256"
        }
      ],
      "stateMutability": "view",
      "type": "function"
    },
    {
      "inputs": [
        {
          "components": [
            {
              "internalType": "contract IJBPaymentTerminal",
              "name": "terminal",
              "type": "address"
            },
            {
              "internalType": "address",
              "name": "holder",
              "type": "address"
            },
            {
              "internalType": "uint256",
              "name": "projectId",
              "type": "uint256"
            },
            {
              "internalType": "uint256",
              "name": "currentFundingCycleConfiguration",
              "type": "uint256"
            },
            {
              "internalType": "uint256",
              "name": "tokenCount",
              "type": "uint256"
            },
            {
              "internalType": "uint256",
              "name": "totalSupply",
              "type": "uint256"
            },
            {
              "internalType": "uint256",
              "name": "overflow",
              "type": "uint256"
            },
            {
              "components": [
                {
                  "internalType": "address",
                  "name": "token",
                  "type": "address"
                },
                {
                  "internalType": "uint256",
                  "name": "value",
                  "type": "uint256"
                },
                {
                  "internalType": "uint256",
                  "name": "decimals",
                  "type": "uint256"
                },
                {
                  "internalType": "uint256",
                  "name": "currency",
                  "type": "uint256"
                }
              ],
              "internalType": "struct JBTokenAmount",
              "name": "reclaimAmount",
              "type": "tuple"
            },
            {
              "internalType": "bool",
              "name": "useTotalOverflow",
              "type": "bool"
            },
            {
              "internalType": "uint256",
              "name": "redemptionRate",
              "type": "uint256"
            },
            {
              "internalType": "string",
              "name": "memo",
              "type": "string"
            },
            {
              "internalType": "bytes",
              "name": "metadata",
              "type": "bytes"
            }
          ],
          "internalType": "struct JBRedeemParamsData",
          "name": "_data",
          "type": "tuple"
        }
      ],
      "name": "redeemParams",
      "outputs": [
        {
          "internalType": "uint256",
          "name": "reclaimAmount",
          "type": "uint256"
        },
        {
          "internalType": "string",
          "name": "memo",
          "type": "string"
        },
        {
          "components": [
            {
              "internalType": "contract IJBRedemptionDelegate",
              "name": "delegate",
              "type": "address"
            },
            {
              "internalType": "uint256",
              "name": "amount",
              "type": "uint256"
            }
          ],
          "internalType": "struct JBRedemptionDelegateAllocation[]",
          "name": "delegateAllocations",
          "type": "tuple[]"
        }
      ],
      "stateMutability": "view",
      "type": "function"
    },
    {
      "inputs": [
        {
          "internalType": "uint256[]",
          "name": "_tokenIds",
          "type": "uint256[]"
        },
        {
          "components": [
            {
              "internalType": "contract IJBPaymentTerminal",
              "name": "terminal",
              "type": "address"
            },
            {
              "internalType": "address",
              "name": "holder",
              "type": "address"
            },
            {
              "internalType": "uint256",
              "name": "projectId",
              "type": "uint256"
            },
            {
              "internalType": "uint256",
              "name": "currentFundingCycleConfiguration",
              "type": "uint256"
            },
            {
              "internalType": "uint256",
              "name": "tokenCount",
              "type": "uint256"
            },
            {
              "internalType": "uint256",
              "name": "totalSupply",
              "type": "uint256"
            },
            {
              "internalType": "uint256",
              "name": "overflow",
              "type": "uint256"
            },
            {
              "components": [
                {
                  "internalType": "address",
                  "name": "token",
                  "type": "address"
                },
                {
                  "internalType": "uint256",
                  "name": "value",
                  "type": "uint256"
                },
                {
                  "internalType": "uint256",
                  "name": "decimals",
                  "type": "uint256"
                },
                {
                  "internalType": "uint256",
                  "name": "currency",
                  "type": "uint256"
                }
              ],
              "internalType": "struct JBTokenAmount",
              "name": "reclaimAmount",
              "type": "tuple"
            },
            {
              "internalType": "bool",
              "name": "useTotalOverflow",
              "type": "bool"
            },
            {
              "internalType": "uint256",
              "name": "redemptionRate",
              "type": "uint256"
            },
            {
              "internalType": "string",
              "name": "memo",
              "type": "string"
            },
            {
              "internalType": "bytes",
              "name": "metadata",
              "type": "bytes"
            }
          ],
          "internalType": "struct JBRedeemParamsData",
          "name": "",
          "type": "tuple"
        }
      ],
      "name": "redemptionWeightOf",
      "outputs": [
        {
          "internalType": "uint256",
          "name": "",
          "type": "uint256"
        }
      ],
      "stateMutability": "view",
      "type": "function"
    },
    {
      "inputs": [],
      "name": "renounceOwnership",
      "outputs": [],
      "stateMutability": "nonpayable",
      "type": "function"
    },
    {
      "inputs": [
        {
          "internalType": "uint256",
          "name": "_tokenId",
          "type": "uint256"
        },
        {
          "internalType": "uint256",
          "name": "_salePrice",
          "type": "uint256"
        }
      ],
      "name": "royaltyInfo",
      "outputs": [
        {
          "internalType": "address",
          "name": "receiver",
          "type": "address"
        },
        {
          "internalType": "uint256",
          "name": "royaltyAmount",
          "type": "uint256"
        }
      ],
      "stateMutability": "view",
      "type": "function"
    },
    {
      "inputs": [
        {
          "internalType": "address",
          "name": "from",
          "type": "address"
        },
        {
          "internalType": "address",
          "name": "to",
          "type": "address"
        },
        {
          "internalType": "uint256",
          "name": "tokenId",
          "type": "uint256"
        }
      ],
      "name": "safeTransferFrom",
      "outputs": [],
      "stateMutability": "nonpayable",
      "type": "function"
    },
    {
      "inputs": [
        {
          "internalType": "address",
          "name": "from",
          "type": "address"
        },
        {
          "internalType": "address",
          "name": "to",
          "type": "address"
        },
        {
          "internalType": "uint256",
          "name": "tokenId",
          "type": "uint256"
        },
        {
          "internalType": "bytes",
          "name": "data",
          "type": "bytes"
        }
      ],
      "name": "safeTransferFrom",
      "outputs": [],
      "stateMutability": "nonpayable",
      "type": "function"
    },
    {
      "inputs": [
        {
          "internalType": "address",
          "name": "operator",
          "type": "address"
        },
        {
          "internalType": "bool",
          "name": "approved",
          "type": "bool"
        }
      ],
      "name": "setApprovalForAll",
      "outputs": [],
      "stateMutability": "nonpayable",
      "type": "function"
    },
    {
      "inputs": [
        {
          "internalType": "string",
          "name": "_baseUri",
          "type": "string"
        }
      ],
      "name": "setBaseUri",
      "outputs": [],
      "stateMutability": "nonpayable",
      "type": "function"
    },
    {
      "inputs": [
        {
          "internalType": "string",
          "name": "_contractUri",
          "type": "string"
        }
      ],
      "name": "setContractUri",
      "outputs": [],
      "stateMutability": "nonpayable",
      "type": "function"
    },
    {
      "inputs": [
        {
          "internalType": "address",
          "name": "_beneficiary",
          "type": "address"
        }
      ],
      "name": "setDefaultReservedTokenBeneficiary",
      "outputs": [],
      "stateMutability": "nonpayable",
      "type": "function"
    },
    {
      "inputs": [
        {
          "internalType": "uint256",
          "name": "_tierId",
          "type": "uint256"
        },
        {
          "internalType": "bytes32",
          "name": "_encodedIPFSUri",
          "type": "bytes32"
        }
      ],
      "name": "setEncodedIPFSUriOf",
      "outputs": [],
      "stateMutability": "nonpayable",
      "type": "function"
    },
    {
      "inputs": [
        {
          "internalType": "contract IJBTokenUriResolver",
          "name": "_tokenUriResolver",
          "type": "address"
        }
      ],
      "name": "setTokenUriResolver",
      "outputs": [],
      "stateMutability": "nonpayable",
      "type": "function"
    },
    {
      "inputs": [],
      "name": "store",
      "outputs": [
        {
          "internalType": "contract IJBTiered721DelegateStore",
          "name": "",
          "type": "address"
        }
      ],
      "stateMutability": "view",
      "type": "function"
    },
    {
      "inputs": [
        {
          "internalType": "bytes4",
          "name": "_interfaceId",
          "type": "bytes4"
        }
      ],
      "name": "supportsInterface",
      "outputs": [
        {
          "internalType": "bool",
          "name": "",
          "type": "bool"
        }
      ],
      "stateMutability": "view",
      "type": "function"
    },
    {
      "inputs": [],
      "name": "symbol",
      "outputs": [
        {
          "internalType": "string",
          "name": "",
          "type": "string"
        }
      ],
      "stateMutability": "view",
      "type": "function"
    },
    {
      "inputs": [
        {
          "internalType": "uint256",
          "name": "_tokenId",
          "type": "uint256"
        }
      ],
      "name": "tokenURI",
      "outputs": [
        {
          "internalType": "string",
          "name": "",
          "type": "string"
        }
      ],
      "stateMutability": "view",
      "type": "function"
    },
    {
      "inputs": [
        {
          "components": [
            {
              "internalType": "contract IJBPaymentTerminal",
              "name": "terminal",
              "type": "address"
            },
            {
              "internalType": "address",
              "name": "holder",
              "type": "address"
            },
            {
              "internalType": "uint256",
              "name": "projectId",
              "type": "uint256"
            },
            {
              "internalType": "uint256",
              "name": "currentFundingCycleConfiguration",
              "type": "uint256"
            },
            {
              "internalType": "uint256",
              "name": "tokenCount",
              "type": "uint256"
            },
            {
              "internalType": "uint256",
              "name": "totalSupply",
              "type": "uint256"
            },
            {
              "internalType": "uint256",
              "name": "overflow",
              "type": "uint256"
            },
            {
              "components": [
                {
                  "internalType": "address",
                  "name": "token",
                  "type": "address"
                },
                {
                  "internalType": "uint256",
                  "name": "value",
                  "type": "uint256"
                },
                {
                  "internalType": "uint256",
                  "name": "decimals",
                  "type": "uint256"
                },
                {
                  "internalType": "uint256",
                  "name": "currency",
                  "type": "uint256"
                }
              ],
              "internalType": "struct JBTokenAmount",
              "name": "reclaimAmount",
              "type": "tuple"
            },
            {
              "internalType": "bool",
              "name": "useTotalOverflow",
              "type": "bool"
            },
            {
              "internalType": "uint256",
              "name": "redemptionRate",
              "type": "uint256"
            },
            {
              "internalType": "string",
              "name": "memo",
              "type": "string"
            },
            {
              "internalType": "bytes",
              "name": "metadata",
              "type": "bytes"
            }
          ],
          "internalType": "struct JBRedeemParamsData",
          "name": "",
          "type": "tuple"
        }
      ],
      "name": "totalRedemptionWeight",
      "outputs": [
        {
          "internalType": "uint256",
          "name": "",
          "type": "uint256"
        }
      ],
      "stateMutability": "view",
      "type": "function"
    },
    {
      "inputs": [
        {
          "internalType": "address",
          "name": "from",
          "type": "address"
        },
        {
          "internalType": "address",
          "name": "to",
          "type": "address"
        },
        {
          "internalType": "uint256",
          "name": "tokenId",
          "type": "uint256"
        }
      ],
      "name": "transferFrom",
      "outputs": [],
      "stateMutability": "nonpayable",
      "type": "function"
    },
    {
      "inputs": [
        {
          "internalType": "address",
          "name": "newOwner",
          "type": "address"
        }
      ],
      "name": "transferOwnership",
      "outputs": [],
      "stateMutability": "nonpayable",
      "type": "function"
    }
  ],
  "bytecode": {
    "object": "0x60806040523480156200001157600080fd5b506200001d3362000035565b600b80546001600160a01b0319163017905562000087565b600a80546001600160a01b038381166001600160a01b0319831681179093556040519116919082907f8be0079c531659141344cd1fd0a4f28419497f9722a3daafe3b4186f6b6457e090600090a35050565b61587580620000976000396000f3fe6080604052600436106102e45760003560e01c806370a0823111610190578063aa4fb15b116100dc578063d3419bf311610095578063df487e261161006f578063df487e261461090e578063e8a3d4851461092e578063e985e9c514610943578063f2fde38b1461098c57600080fd5b8063d3419bf3146108bb578063d46cf171146108db578063da9ee8b7146108fb57600080fd5b8063aa4fb15b146107fb578063b88d4fde1461081b578063c41c2f241461083b578063c87b56dd1461085b578063ccb4807b1461087b578063d1704baf1461089b57600080fd5b80639494bf72116101495780639ab24eb0116101235780639ab24eb01461076c578063a0bcfc7f1461078c578063a22cb465146107ac578063a51cfd18146107cc57600080fd5b80639494bf721461071757806395d89b4114610737578063975057e71461074c57600080fd5b806370a082311461066f578063715018a61461068f57806379a75319146106a45780637ba62bf9146106b95780638da5cb5b146106d95780638e539e8c146106f757600080fd5b806336c1a93b1161024f57806354c6d1f5116102085780635c19a95c116101e25780635c19a95c146105ec5780636352211e1461060c57806364640c1e1461062c5780636ac6d9411461064257600080fd5b806354c6d1f514610573578063557e715514610593578063587cde1e146105b357600080fd5b806336c1a93b146104c75780633a46b1a8146104e75780633fafa1271461050757806342842e0e1461051d5780634ecba6251461053d578063525350ba1461055357600080fd5b80632407497e116102a15780632407497e146103da578063245a45b5146103fa57806325eb91ee146104355780632a55205a146104555780632a596e53146104945780632b13c58f146104b457600080fd5b806301ffc9a7146102e957806306fdde031461031e578063081812fc14610340578063095ea7b3146103785780631d153ca41461039a57806323b872dd146103ba575b600080fd5b3480156102f557600080fd5b50610309610304366004613e88565b6109ac565b60405190151581526020015b60405180910390f35b34801561032a57600080fd5b506103336109d7565b6040516103159190613ef5565b34801561034c57600080fd5b5061036061035b366004613f08565b610a69565b6040516001600160a01b039091168152602001610315565b34801561038457600080fd5b50610398610393366004613f46565b610a90565b005b3480156103a657600080fd5b50600b54610360906001600160a01b031681565b3480156103c657600080fd5b506103986103d5366004613f72565b610b1c565b3480156103e657600080fd5b506103986103f5366004613fb3565b610b4e565b34801561040657600080fd5b50610427610415366004613fb3565b60116020526000908152604090205481565b604051908152602001610315565b34801561044157600080fd5b50610398610450366004614014565b610bf7565b34801561046157600080fd5b506104756104703660046140ae565b610dda565b604080516001600160a01b039093168352602083019190915201610315565b3480156104a057600080fd5b506103986104af3660046140d0565b610f0d565b6103986104c236600461415d565b610f66565b3480156104d357600080fd5b506103986104e2366004614191565b611140565b3480156104f357600080fd5b50610427610502366004613f46565b6111a2565b34801561051357600080fd5b5061042760085481565b34801561052957600080fd5b50610398610538366004613f72565b6111cb565b34801561054957600080fd5b5061042760105481565b34801561055f57600080fd5b5061039861056e3660046140ae565b6111e6565b34801561057f57600080fd5b5061036061058e366004613f08565b611292565b34801561059f57600080fd5b50600d54610360906001600160a01b031681565b3480156105bf57600080fd5b506103606105ce366004613fb3565b6001600160a01b039081166000908152602081905260409020541690565b3480156105f857600080fd5b50610398610607366004613fb3565b61133e565b34801561061857600080fd5b50610360610627366004613f08565b61134b565b34801561063857600080fd5b50610427600f5481565b34801561064e57600080fd5b5061066261065d3660046141d2565b611381565b6040516103159190614263565b34801561067b57600080fd5b5061042761068a366004613fb3565b6114c7565b34801561069b57600080fd5b5061039861153d565b3480156106b057600080fd5b5061042760c881565b3480156106c557600080fd5b506104276106d43660046143b8565b611551565b3480156106e557600080fd5b50600a546001600160a01b0316610360565b34801561070357600080fd5b50610427610712366004613f08565b6115c5565b34801561072357600080fd5b5061042761073236600461415d565b6115f2565b34801561074357600080fd5b50610333611623565b34801561075857600080fd5b50600c54610360906001600160a01b031681565b34801561077857600080fd5b50610427610787366004613fb3565b611632565b34801561079857600080fd5b506103986107a736600461441b565b611653565b3480156107b857600080fd5b506103986107c7366004614493565b611706565b3480156107d857600080fd5b506107ec6107e736600461415d565b611715565b604051610315939291906144cc565b34801561080757600080fd5b506103986108163660046140ae565b611974565b34801561082757600080fd5b5061039861083636600461459e565b611b91565b34801561084757600080fd5b50600954610360906001600160a01b031681565b34801561086757600080fd5b50610333610876366004613f08565b611bc4565b34801561088757600080fd5b5061039861089636600461441b565b611d9e565b3480156108a757600080fd5b506103986108b63660046148bd565b611e51565b3480156108c757600080fd5b50600e54610360906001600160a01b031681565b3480156108e757600080fd5b506107ec6108f63660046149f6565b61214f565b610398610909366004614a31565b612232565b34801561091a57600080fd5b50610398610929366004613fb3565b6122e9565b34801561093a57600080fd5b5061033361238b565b34801561094f57600080fd5b5061030961095e366004614a6c565b6001600160a01b03918216600090815260076020908152604080832093909416825291909152205460ff1690565b34801561099857600080fd5b506103986109a7366004613fb3565b612401565b60006001600160e01b031982166306decc2d60e21b14806109d157506109d18261247c565b92915050565b6060600380546109e690614a9a565b80601f0160208091040260200160405190810160405280929190818152602001828054610a1290614a9a565b8015610a5f5780601f10610a3457610100808354040283529160200191610a5f565b820191906000526020600020905b815481529060010190602001808311610a4257829003601f168201915b5050505050905090565b6000610a748261250d565b506000908152600660205260409020546001600160a01b031690565b6000610a9b8261134b565b9050806001600160a01b0316836001600160a01b031603610acf5760405163133f8be960e01b815260040160405180910390fd5b336001600160a01b03821614801590610aef5750610aed813361095e565b155b15610b0d5760405163e5fa0e3560e01b815260040160405180910390fd5b610b178383612542565b505050565b610b2633826125b0565b610b435760405163e5fa0e3560e01b815260040160405180910390fd5b610b1783838361262f565b610b56612708565b600c5460405163036129cb60e61b81526001600160a01b0383811660048301529091169063d84a72c090602401600060405180830381600087803b158015610b9d57600080fd5b505af1158015610bb1573d6000803e3d6000fd5b50506040513381526001600160a01b03841692507fe7784d93cfbfa4408e19577e6cc0436f4dbb51214b70e100905dfce9def88c1691506020015b60405180910390a250565b610bff612708565b82818015610ccf57600c546040516320512ba160e01b81526001600160a01b03909116906320512ba190610c399087908790600401614ace565b600060405180830381600087803b158015610c5357600080fd5b505af1158015610c67573d6000803e3d6000fd5b5050505060005b81811015610ccd57848482818110610c8857610c88614b07565b60405133815260209182029390930135927f832d89d991be5351d793c20faf4b7dd44f8aa9ce39e3cb160c6317de6fbba72992500160405180910390a2600101610c6e565b505b8115610dd257600c5460405163229dad5f60e11b81526000916001600160a01b03169063453b5abe90610d08908a908a90600401614c53565b6000604051808303816000875af1158015610d27573d6000803e3d6000fd5b505050506040513d6000823e601f3d908101601f19168201604052610d4f9190810190614cf1565b905060005b83811015610dcf57818181518110610d6e57610d6e614b07565b60200260200101517f8aa4a03deb8db10032373886aa0376c918ccf36bcdb59ca4da2a807ac7ff1a04898984818110610da957610da9614b07565b90506101c0020133604051610dbf929190614d25565b60405180910390a2600101610d54565b50505b505050505050565b600c54604051633a39e4d160e11b815230600482015260248101849052600091829182916001600160a01b031690637473c9a2906044016101c060405180830381865afa158015610e2f573d6000803e3d6000fd5b505050506040513d601f19601f82011682018060405250810190610e539190614d63565b600c54815160405163792d5f6d60e11b815230600482015260248101919091529192506000916001600160a01b039091169063f25abeda90604401602060405180830381865afa158015610eab573d6000803e3d6000fd5b505050506040513d601f19601f82011682018060405250810190610ecf9190614e2d565b90506001600160a01b038116610eed57600080935093505050610f06565b80610eff8684610100015160c8612762565b9350935050505b9250929050565b8060005b81811015610f60576000848483818110610f2d57610f2d614b07565b905060400201803603810190610f439190614e4a565b9050610f5781600001518260200151611974565b50600101610f11565b50505050565b34151580610fe85750600954600854604051636e49181f60e01b815260048101919091523360248201526001600160a01b0390911690636e49181f90604401602060405180830381865afa158015610fc2573d6000803e3d6000fd5b505050506040513d601f19601f82011682018060405250810190610fe69190614e98565b155b80610ff95750600854816020013514155b1561101757604051633efca5c360e11b815260040160405180910390fd5b60246110276101c0830183614eb5565b9050108061106b575063b3bcbb7960e01b6110466101c0830183614eb5565b61105591602491602091614efb565b61105e91614f25565b6001600160e01b03191614155b1561108957604051632a84050f60e01b815260040160405180910390fd5b60006110996101c0830183614eb5565b8101906110a69190614f55565b925050506000815190506000805b82811015611136578381815181106110ce576110ce614b07565b602002602001015191508460000160208101906110eb9190613fb3565b6000838152600560205260409020546001600160a01b039081169116146111255760405163075fd2b160e01b815260040160405180910390fd5b61112e8261282e565b6001016110b4565b50610f60836128af565b611148612708565b8060005b81811015610f60573684848381811061116757611167614b07565b90506020028101906111799190614fad565b90506111986111888280614fcd565b61065d6040850160208601613fb3565b505060010161114c565b6001600160a01b03821660009081526001602052604081206111c49083612914565b9392505050565b610b1783838360405180602001604052806000815250611b91565b6111ee612708565b600c546040516324de8d6360e11b815260048101849052602481018390526001600160a01b03909116906349bd1ac690604401600060405180830381600087803b15801561123b57600080fd5b505af115801561124f573d6000803e3d6000fd5b5050604080518481523360208201528593507f677da4fed654db8e604791fa2582f342e2001aa217e27f6985eb3e0f67e5a7fc9250015b60405180910390a25050565b600c546040516308ed6c0160e41b81523060048201526024810183905260009182916001600160a01b0390911690638ed6c01090604401602060405180830381865afa1580156112e6573d6000803e3d6000fd5b505050506040513d601f19601f8201168201806040525081019061130a9190614e2d565b90506001600160a01b038116156113215792915050565b50506000908152600560205260409020546001600160a01b031690565b6113483382612a23565b50565b6000818152600560205260408120546001600160a01b0316806109d15760405163b49aa3b560e01b815260040160405180910390fd5b606061138b612708565b600c5460405163eaa19ab360e01b81526001600160a01b039091169063eaa19ab3906113c4906000199088908890600190600401615016565b6000604051808303816000875af11580156113e3573d6000803e3d6000fd5b505050506040513d6000823e601f3d908101601f1916820160405261140b9190810190615073565b509050826000805b828110156114bd5783818151811061142d5761142d614b07565b602002602001015191506114418583612a95565b846001600160a01b031687878381811061145d5761145d614b07565b905060200201602081019061147291906150b9565b604080516000815233602082015261ffff929092169185917f598baf7bf150ca2f42be9e9f8f55e81d45f5715c3ff22bf46d697fabec7f31d6910160405180910390a4600101611413565b5050509392505050565b600c54604051633de222bb60e21b81523060048201526001600160a01b038381166024830152600092169063f7888aec906044015b602060405180830381865afa158015611519573d6000803e3d6000fd5b505050506040513d601f19601f820116820180604052508101906109d191906150d4565b611545612708565b61154f6000612b5f565b565b600c5460405163051330b560e21b81526000916001600160a01b03169063144cc2d49061158490309087906004016150ed565b602060405180830381865afa1580156115a1573d6000803e3d6000fd5b505050506040513d601f19601f820116820180604052508101906111c491906150d4565b60004382106115e7576040516305b5e09b60e51b815260040160405180910390fd5b6109d1600283612914565b600c54604051631572f24960e11b81523060048201526000916001600160a01b031690632ae5e492906024016114fc565b6060600480546109e690614a9a565b6001600160a01b03811660009081526001602052604081206109d190612bb1565b61165b612708565b600c546040516331315e5960e11b81526001600160a01b0390911690636262bcb29061168d9085908590600401615111565b600060405180830381600087803b1580156116a757600080fd5b505af11580156116bb573d6000803e3d6000fd5b5050505081816040516116cf929190615140565b604051908190038120338252907f7bc9110d5de090dd59e07912d2b93a5a27ac70a60c8d8e324db4f9ee8b8b5c1390602001611286565b611711338383612c0d565b5050565b600060608060808401351561173d576040516309f82f1b60e31b815260040160405180910390fd5b602461174d6101c0860186614eb5565b90501080611791575063b3bcbb7960e01b61176c6101c0860186614eb5565b61177b91602491602091614efb565b61178491614f25565b6001600160e01b03191614155b156117af57604051632a84050f60e01b815260040160405180910390fd5b60408051600180825281830190925290816020015b60408051808201909152600080825260208201528152602001906001900390816117c45790505090506040518060400160405280306001600160a01b0316815260200160008152508160008151811061181f5761181f614b07565b6020908102919091010152600061183a6101c0860186614eb5565b8101906118479190614f55565b9250505060006118578287611551565b90506000611864876115f2565b905060006118778860c001358484612762565b9050612710886101800135036118e257806118966101a08a018a614eb5565b8782828080601f016020809104026020016040519081016040528093929190818152602001838380828437600092019190915250969d50919b5091995061196d98505050505050505050565b61191881611901856118fb6101808d0135612710615166565b86612762565b611910906101808c0135615179565b612710612762565b6119266101a08a018a614eb5565b8782828080601f016020809104026020016040519081016040528093929190818152602001838380828437600092019190915250969d50919b509199505050505050505050505b9193909250565b600d546008546040516321d1336160e11b815260048101919091526000916001600160a01b0316906343a266c29060240161012060405180830381865afa1580156119c3573d6000803e3d6000fd5b505050506040513d601f19601f820116820180604052508101906119e7919061518c565b61010081015190915060f51c600190811603611a1657604051631d2c125760e31b815260040160405180910390fd5b600c54604051635d53f40760e11b815260048101859052602481018490526000916001600160a01b03169063baa7e80e906044016000604051808303816000875af1158015611a69573d6000803e3d6000fd5b505050506040513d6000823e601f3d908101601f19168201604052611a919190810190614cf1565b600c546040516304db994760e21b8152306004820152602481018790529192506000916001600160a01b039091169063136e651c90604401602060405180830381865afa158015611ae6573d6000803e3d6000fd5b505050506040513d601f19601f82011682018060405250810190611b0a9190614e2d565b90506000805b85811015611b8857838181518110611b2a57611b2a614b07565b60200260200101519150611b3e8383612a95565b6040513381526001600160a01b03841690889084907f031e1988c95a91ec4d655ff63a8f87a80bc9daf28d95ae10ee08c0022cfb5c8b9060200160405180910390a4600101611b10565b50505050505050565b611b9b33836125b0565b611bb85760405163e5fa0e3560e01b815260040160405180910390fd5b610f6084848484612cac565b600c54604051630fab094760e01b81523060048201526060916000916001600160a01b0390911690630fab094790602401602060405180830381865afa158015611c12573d6000803e3d6000fd5b505050506040513d601f19601f82011682018060405250810190611c369190614e2d565b90506001600160a01b03811615611cb457604051636d02a25560e11b8152600481018490526001600160a01b0382169063da0544aa90602401600060405180830381865afa158015611c8c573d6000803e3d6000fd5b505050506040513d6000823e601f3d908101601f191682016040526111c4919081019061520c565b600c5460405163f682eeaf60e01b81523060048201526111c4916001600160a01b03169063f682eeaf90602401600060405180830381865afa158015611cfe573d6000803e3d6000fd5b505050506040513d6000823e601f3d908101601f19168201604052611d26919081019061520c565b600c54604051630c8df17160e41b8152306004820152602481018790526001600160a01b039091169063c8df171090604401602060405180830381865afa158015611d75573d6000803e3d6000fd5b505050506040513d601f19601f82011682018060405250810190611d9991906150d4565b612ce0565b611da6612708565b600c5460405163d67b78fd60e01b81526001600160a01b039091169063d67b78fd90611dd89085908590600401615111565b600060405180830381600087803b158015611df257600080fd5b505af1158015611e06573d6000803e3d6000fd5b505050508181604051611e1a929190615140565b604051908190038120338252907fd36dc0c1a06103fdcaf15f3f6fb797d1a97997514c78de073640c8b5005454b890602001611286565b600b546001600160a01b03163003611e6857600080fd5b600c546001600160a01b031615611e7e57600080fd5b611e8a8b8b8b8b612d47565b600d80546001600160a01b03808a166001600160a01b031992831617909255600c80548584169083161790556020850151600f5560408501516010556060850151600e8054919093169116179055855115611f3e576040516331315e5960e11b81526001600160a01b03831690636262bcb290611f0b908990600401613ef5565b600060405180830381600087803b158015611f2557600080fd5b505af1158015611f39573d6000803e3d6000fd5b505050505b835115611fa45760405163d67b78fd60e01b81526001600160a01b0383169063d67b78fd90611f71908790600401613ef5565b600060405180830381600087803b158015611f8b57600080fd5b505af1158015611f9f573d6000803e3d6000fd5b505050505b6001600160a01b0385161561200f5760405163036129cb60e61b81526001600160a01b03868116600483015283169063d84a72c090602401600060405180830381600087803b158015611ff657600080fd5b505af115801561200a573d6000803e3d6000fd5b505050505b8251511561208d57825160405163229dad5f60e11b81526001600160a01b0384169163453b5abe916120449190600401615279565b6000604051808303816000875af1158015612063573d6000803e3d6000fd5b505050506040513d6000823e601f3d908101601f1916820160405261208b9190810190614cf1565b505b80518061209b575080602001515b806120a7575080604001515b806120b3575080606001515b1561213957604080516365c13f1960e11b815282511515600482015260208301511515602482015290820151151560448201526060820151151560648201526001600160a01b0383169063cb827e3290608401600060405180830381600087803b15801561212057600080fd5b505af1158015612134573d6000803e3d6000fd5b505050505b61214233612b5f565b5050505050505050505050565b610120810135606080612166610160850185614eb5565b8080601f016020809104026020016040519081016040528093929190818152602001838380828437600092019190915250929450600192506121a6915050565b6040519080825280602002602001820160405280156121eb57816020015b60408051808201909152600080825260208201528152602001906001900390816121c45790505b5090506040518060400160405280306001600160a01b0316815260200160008152508160008151811061222057612220614b07565b60200260200101819052509193909250565b600854341515806122b35750600954604051636e49181f60e01b8152600481018390523360248201526001600160a01b0390911690636e49181f90604401602060405180830381865afa15801561228d573d6000803e3d6000fd5b505050506040513d601f19601f820116820180604052508101906122b19190614e98565b155b806122c2575080826020013514155b156122e0576040516331c57b1b60e21b815260040160405180910390fd5b61171182612d7a565b6122f1612708565b600c546040516317161f7d60e01b81526001600160a01b038381166004830152909116906317161f7d90602401600060405180830381600087803b15801561233857600080fd5b505af115801561234c573d6000803e3d6000fd5b50506040513381526001600160a01b03841692507fab0014d4c7a642a02a31b303a318908c22b0fb2001f107278fc6076b4c671b659150602001610bec565b600c54604051630155619b60e71b81523060048201526060916001600160a01b03169063aab0cd8090602401600060405180830381865afa1580156123d4573d6000803e3d6000fd5b505050506040513d6000823e601f3d908101601f191682016040526123fc919081019061520c565b905090565b612409612708565b6001600160a01b0381166124735760405162461bcd60e51b815260206004820152602660248201527f4f776e61626c653a206e6577206f776e657220697320746865207a65726f206160448201526564647265737360d01b60648201526084015b60405180910390fd5b61134881612b5f565b60006001600160e01b0319821663b3bcbb7960e01b14806124ad57506001600160e01b031982166371700c6960e01b145b806124c857506001600160e01b0319821663da9ee8b760e01b145b806124e357506001600160e01b03198216632b13c58f60e01b145b806124fe57506001600160e01b0319821663152a902d60e11b145b806109d157506109d18261308d565b6000818152600560205260409020546001600160a01b03166113485760405163b49aa3b560e01b815260040160405180910390fd5b600081815260066020526040902080546001600160a01b0319166001600160a01b03841690811790915581906125778261134b565b6001600160a01b03167f8c5be1e5ebec7d5bd14f71427d1e84f3dd0314c0f7b2291e5b200ac8c7c3b92560405160405180910390a45050565b6000806125bc8361134b565b9050806001600160a01b0316846001600160a01b0316148061260357506001600160a01b0380821660009081526007602090815260408083209388168352929052205460ff165b806126275750836001600160a01b031661261c84610a69565b6001600160a01b0316145b949350505050565b826001600160a01b03166126428261134b565b6001600160a01b0316146126695760405163a195bc5360e01b815260040160405180910390fd5b6001600160a01b03821661269057604051632c95542760e01b815260040160405180910390fd5b61269b8383836130dd565b6126a6600082612542565b60008181526005602052604080822080546001600160a01b0319166001600160a01b0386811691821790925591518493918716917fddf252ad1be2c89b69c2b068fc378daa952ba7f163c4a11628f55a4df523b3ef91a4610b1783838361330a565b600a546001600160a01b0316331461154f5760405162461bcd60e51b815260206004820181905260248201527f4f776e61626c653a2063616c6c6572206973206e6f7420746865206f776e6572604482015260640161246a565b600080806000198587098587029250828110838203039150508060000361279c5783828161279257612792615396565b04925050506111c4565b8381106127c657604051631dcf306360e21b8152600481018290526024810185905260440161246a565b600084868809600260036001881981018916988990049182028318808302840302808302840302808302840302808302840302808302840302918202909203026000889003889004909101858311909403939093029303949094049190911702949350505050565b60006128398261134b565b9050612847816000846130dd565b612852600083612542565b60008281526005602052604080822080546001600160a01b0319169055518391906001600160a01b038416907fddf252ad1be2c89b69c2b068fc378daa952ba7f163c4a11628f55a4df523b3ef908390a46117118160008461330a565b600c546040516386bc2be360e01b81526001600160a01b03909116906386bc2be3906128df908490600401614263565b600060405180830381600087803b1580156128f957600080fd5b505af115801561290d573d6000803e3d6000fd5b5050505050565b60004382106129655760405162461bcd60e51b815260206004820181905260248201527f436865636b706f696e74733a20626c6f636b206e6f7420796574206d696e6564604482015260640161246a565b825460005b818110156129ca57600061297e8284613403565b90508486600001828154811061299657612996614b07565b60009182526020909120015463ffffffff1611156129b6578092506129c4565b6129c1816001615179565b91505b5061296a565b8115612a0e57846129dc600184615166565b815481106129ec576129ec614b07565b60009182526020909120015464010000000090046001600160e01b0316612a11565b60005b6001600160e01b031695945050505050565b6001600160a01b0382811660008181526020819052604080822080548686166001600160a01b0319821681179092559151919094169392849290917f3134e8a2e6d97e929a7e54011ea5485d7d196dd5f0ba4d4ef95803e8e3fc257f9190a4610b178183612a908661341e565b613457565b6001600160a01b038216612abc57604051633904578f60e11b815260040160405180910390fd5b6000818152600560205260409020546001600160a01b031615612af257604051632eb5f0c360e21b815260040160405180910390fd5b612afe600083836130dd565b60008181526005602052604080822080546001600160a01b0319166001600160a01b03861690811790915590518392907fddf252ad1be2c89b69c2b068fc378daa952ba7f163c4a11628f55a4df523b3ef908290a46117116000838361330a565b600a80546001600160a01b038381166001600160a01b0319831681179093556040519116919082907f8be0079c531659141344cd1fd0a4f28419497f9722a3daafe3b4186f6b6457e090600090a35050565b80546000908015612bfa5782612bc8600183615166565b81548110612bd857612bd8614b07565b60009182526020909120015464010000000090046001600160e01b0316612bfd565b60005b6001600160e01b03169392505050565b816001600160a01b0316836001600160a01b031603612c3f576040516306f8139d60e11b815260040160405180910390fd5b6001600160a01b03838116600081815260076020908152604080832094871680845294825291829020805460ff191686151590811790915591519182527f17307eab39ab6107e8899845ad3d59bd9653f200f220920489ca2b5937696c31910160405180910390a3505050565b612cb784848461262f565b612cc384848484613594565b610f60576040516336f57c1b60e11b815260040160405180910390fd5b604051609160f51b60208201526022810182905260609060009060420160405160208183030381529060405290506000612d1982613696565b90508481604051602001612d2e9291906153ac565b6040516020818303038152906040529250505092915050565b612d51828261382e565b5050600891909155600980546001600160a01b0319166001600160a01b03909216919091179055565b600f5460009060c083013503612d9557506080810135612e4b565b600e546001600160a01b03161561171157601054612e4890608084013590612dbe90600a6154bf565b600e54600f54604051635268657960e11b815260c08801356004820152602481019190915260a087013560448201526001600160a01b039091169063a4d0caf290606401602060405180830381865afa158015612e1f573d6000803e3d6000fd5b505050506040513d601f19601f82011682018060405250810190612e4391906150d4565b612762565b90505b6000601181612e626101a086016101808701613fb3565b6001600160a01b03168152602081019190915260400160009081205491508290612e946101a086016101808701613fb3565b6001600160a01b0316612eaa6020870187613fb3565b6001600160a01b031603612ec15790820190612ec4565b50815b60006044612ed66101e0880188614eb5565b9050118015612f1a575063b3bcbb7960e01b612ef66101e0880188614eb5565b612f0591604491604091614efb565b612f0e91614f25565b6001600160e01b031916145b15612ff1576060612f2f6101e0880188614eb5565b810190612f3c91906154cb565b90955093508492505081159050612fbf5750600c54604051634228826f60e11b81523060048201526001600160a01b039091169063845104de90602401608060405180830381865afa158015612f96573d6000803e3d6000fd5b505050506040513d601f19601f82011682018060405250810190612fba919061559d565b606001515b15612fc957600091505b805115612fef57612fec8482612fe76101a08b016101808c01613fb3565b613847565b93505b505b821561304d578061301557604051631b57826960e21b815260040160405180910390fd5b8282016011600061302e6101a08a016101808b01613fb3565b6001600160a01b03168152602081019190915260400160002055610dd2565b818414610dd257816011600061306b6101a08a016101808b01613fb3565b6001600160a01b03168152602081019190915260400160002055505050505050565b60006001600160e01b031982166380ac58cd60e01b14806130be57506001600160e01b03198216635b5e139f60e01b145b806109d157506301ffc9a760e01b6001600160e01b03198316146109d1565b6001600160a01b03831615610b1757600c5460405163b67cb04760e01b8152306004820152602481018390526000916001600160a01b03169063b67cb047906044016101c060405180830381865afa15801561313d573d6000803e3d6000fd5b505050506040513d601f19601f820116820180604052508101906131619190614d63565b9050806101a001511561322657600d546008546040516321d1336160e11b815260048101919091526000916001600160a01b0316906343a266c29060240161012060405180830381865afa1580156131bd573d6000803e3d6000fd5b505050506040513d601f19601f820116820180604052508101906131e1919061518c565b90506001600160a01b03841615801590613206575061010081015160f41c6001908116145b15613224576040516318cdaf9760e01b815260040160405180910390fd5b505b600c546040516308ed6c0160e41b8152306004820152602481018490526000916001600160a01b031690638ed6c01090604401602060405180830381865afa158015613276573d6000803e3d6000fd5b505050506040513d601f19601f8201168201806040525081019061329a9190614e2d565b6001600160a01b031603610f6057600c54604051638cec7d3960e01b8152600481018490526001600160a01b03868116602483015290911690638cec7d3990604401600060405180830381600087803b1580156132f657600080fd5b505af1158015610dcf573d6000803e3d6000fd5b600c5460405163b67cb04760e01b8152306004820152602481018390526000916001600160a01b03169063b67cb047906044016101c060405180830381865afa15801561335b573d6000803e3d6000fd5b505050506040513d601f19601f8201168201806040525081019061337f9190614d63565b600c5481516040516330b157e560e21b815260048101919091526001600160a01b038781166024830152868116604483015292935091169063c2c55f9490606401600060405180830381600087803b1580156133da57600080fd5b505af11580156133ee573d6000803e3d6000fd5b505050506133fe84848484613989565b610f60565b60006134126002848418615621565b6111c490848416615179565b600c54604051631266aaaf60e31b81523060048201526001600160a01b03838116602483015260009216906393355578906044016114fc565b816001600160a01b0316836001600160a01b0316141580156134795750600081115b15610b17576001600160a01b03831615613507576001600160a01b038316600090815260016020526040812081906134b4906139a2856139ae565b91509150846001600160a01b03167fdec2bacdd2f05b59de34da9b523dff8be42e5e38e818c82fdb0bae774387a72483836040516134fc929190918252602082015260400190565b60405180910390a250505b6001600160a01b03821615610b17576001600160a01b0382166000908152600160205260408120819061353d906139dc856139ae565b91509150836001600160a01b03167fdec2bacdd2f05b59de34da9b523dff8be42e5e38e818c82fdb0bae774387a7248383604051613585929190918252602082015260400190565b60405180910390a25050505050565b60006001600160a01b0384163b1561368b57604051630a85bd0160e11b81526001600160a01b0385169063150b7a02906135d8903390899088908890600401615635565b6020604051808303816000875af1925050508015613613575060408051601f3d908101601f1916820190925261361091810190615672565b60015b613671573d808015613641576040519150601f19603f3d011682016040523d82523d6000602084013e613646565b606091505b508051600003613669576040516336f57c1b60e11b815260040160405180910390fd5b805181602001fd5b6001600160e01b031916630a85bd0160e11b149050612627565b506001949350505050565b606081516000036136b557505060408051600081526020810190915290565b60408051602e8082526105e08201909252600091602082016105c0803683370190505090506000816000815181106136ef576136ef614b07565b60ff90921660209283029190910190910152825160019060005b8181101561380a57600086828151811061372557613725614b07565b016020015160f81c905060005b8460ff168110156137af57600886828151811061375157613751614b07565b602002602001015160ff16901b826137699190615179565b9150613776603a8361568f565b86828151811061378857613788614b07565b60ff909216602092830291909101909101526137a5603a83615621565b9150600101613732565b505b8015613801576137c2603a8261568f565b858560ff16815181106137d7576137d7614b07565b60ff909216602092830291909101909101526001909301926137fa603a82615621565b90506137b1565b50600101613709565b5061382561382061381b85856139e8565b613a8f565b613b31565b95945050505050565b600361383a83826156e9565b506004610b1782826156e9565b600c5460405163eaa19ab360e01b81526000916060916001600160a01b039091169063eaa19ab390613881908890889087906004016157a8565b6000604051808303816000875af11580156138a0573d6000803e3d6000fd5b505050506040513d6000823e601f3d908101601f191682016040526138c89190810190615073565b81519093509091506000805b8281101561397e578381815181106138ee576138ee614b07565b602002602001015191506139028683612a95565b856001600160a01b031687828151811061391e5761391e614b07565b602002602001015161ffff16837f598baf7bf150ca2f42be9e9f8f55e81d45f5715c3ff22bf46d697fabec7f31d68b3360405161396e9291909182526001600160a01b0316602082015260400190565b60405180910390a46001016138d4565b505050509392505050565b60a081015115610f6057610f6084848360a00151613c0a565b60006111c48284615166565b6000806139d0856139cb6139c188612bb1565b868863ffffffff16565b613c7a565b91509150935093915050565b60006111c48284615179565b606060008260ff166001600160401b03811115613a0757613a07614276565b604051908082528060200260200182016040528015613a30578160200160208202803683370190505b50905060005b8360ff16811015613a8757848181518110613a5357613a53614b07565b6020026020010151828281518110613a6d57613a6d614b07565b60ff90921660209283029190910190910152600101613a36565b509392505050565b80516060906000816001600160401b03811115613aae57613aae614276565b604051908082528060200260200182016040528015613ad7578160200160208202803683370190505b50905060005b82811015613a8757848160018751030381518110613afd57613afd614b07565b6020026020010151828281518110613b1757613b17614b07565b60ff90921660209283029190910190910152600101613add565b80516060906000816001600160401b03811115613b5057613b50614276565b6040519080825280601f01601f191660200182016040528015613b7a576020820181803683370190505b50905060005b82811015613a87576040518060600160405280603a8152602001615806603a9139858281518110613bb357613bb3614b07565b602002602001015160ff1681518110613bce57613bce614b07565b602001015160f81c60f81b828281518110613beb57613beb614b07565b60200101906001600160f81b031916908160001a905350600101613b80565b6001600160a01b038316613c2957613c2660026139dc836139ae565b50505b6001600160a01b038216613c4857613c4560026139a2836139ae565b50505b6001600160a01b03838116600090815260208190526040808220548584168352912054610b1792918216911683613457565b8154600090819081613c8b86612bb1565b9050600082118015613cc957504386613ca5600185615166565b81548110613cb557613cb5614b07565b60009182526020909120015463ffffffff16145b15613d2957613cd785613da0565b86613ce3600185615166565b81548110613cf357613cf3614b07565b9060005260206000200160000160046101000a8154816001600160e01b0302191690836001600160e01b03160217905550613d97565b856000016040518060400160405280613d4143613e0d565b63ffffffff168152602001613d5588613da0565b6001600160e01b0390811690915282546001810184556000938452602093849020835194909301519091166401000000000263ffffffff909316929092179101555b95939450505050565b60006001600160e01b03821115613e095760405162461bcd60e51b815260206004820152602760248201527f53616665436173743a2076616c756520646f65736e27742066697420696e20326044820152663234206269747360c81b606482015260840161246a565b5090565b600063ffffffff821115613e095760405162461bcd60e51b815260206004820152602660248201527f53616665436173743a2076616c756520646f65736e27742066697420696e203360448201526532206269747360d01b606482015260840161246a565b6001600160e01b03198116811461134857600080fd5b600060208284031215613e9a57600080fd5b81356111c481613e72565b60005b83811015613ec0578181015183820152602001613ea8565b50506000910152565b60008151808452613ee1816020860160208601613ea5565b601f01601f19169290920160200192915050565b6020815260006111c46020830184613ec9565b600060208284031215613f1a57600080fd5b5035919050565b6001600160a01b038116811461134857600080fd5b8035613f4181613f21565b919050565b60008060408385031215613f5957600080fd5b8235613f6481613f21565b946020939093013593505050565b600080600060608486031215613f8757600080fd5b8335613f9281613f21565b92506020840135613fa281613f21565b929592945050506040919091013590565b600060208284031215613fc557600080fd5b81356111c481613f21565b60008083601f840112613fe257600080fd5b5081356001600160401b03811115613ff957600080fd5b6020830191508360208260051b8501011115610f0657600080fd5b6000806000806040858703121561402a57600080fd5b84356001600160401b038082111561404157600080fd5b818701915087601f83011261405557600080fd5b81358181111561406457600080fd5b8860206101c08302850101111561407a57600080fd5b60209283019650945090860135908082111561409557600080fd5b506140a287828801613fd0565b95989497509550505050565b600080604083850312156140c157600080fd5b50508035926020909101359150565b600080602083850312156140e357600080fd5b82356001600160401b03808211156140fa57600080fd5b818501915085601f83011261410e57600080fd5b81358181111561411d57600080fd5b8660208260061b850101111561413257600080fd5b60209290920196919550909350505050565b60006101e0828403121561415757600080fd5b50919050565b60006020828403121561416f57600080fd5b81356001600160401b0381111561418557600080fd5b61262784828501614144565b600080602083850312156141a457600080fd5b82356001600160401b038111156141ba57600080fd5b6141c685828601613fd0565b90969095509350505050565b6000806000604084860312156141e757600080fd5b83356001600160401b038111156141fd57600080fd5b61420986828701613fd0565b909450925050602084013561421d81613f21565b809150509250925092565b600081518084526020808501945080840160005b838110156142585781518752958201959082019060010161423c565b509495945050505050565b6020815260006111c46020830184614228565b634e487b7160e01b600052604160045260246000fd5b604051608081016001600160401b03811182821017156142ae576142ae614276565b60405290565b6040516101c081016001600160401b03811182821017156142ae576142ae614276565b60405161012081016001600160401b03811182821017156142ae576142ae614276565b604051601f8201601f191681016001600160401b038111828210171561432257614322614276565b604052919050565b60006001600160401b0382111561434357614343614276565b5060051b60200190565b600082601f83011261435e57600080fd5b8135602061437361436e8361432a565b6142fa565b82815260059290921b8401810191818101908684111561439257600080fd5b8286015b848110156143ad5780358352918301918301614396565b509695505050505050565b600080604083850312156143cb57600080fd5b82356001600160401b03808211156143e257600080fd5b6143ee8683870161434d565b9350602085013591508082111561440457600080fd5b5061441185828601614144565b9150509250929050565b6000806020838503121561442e57600080fd5b82356001600160401b038082111561444557600080fd5b818501915085601f83011261445957600080fd5b81358181111561446857600080fd5b86602082850101111561413257600080fd5b801515811461134857600080fd5b8035613f418161447a565b600080604083850312156144a657600080fd5b82356144b181613f21565b915060208301356144c18161447a565b809150509250929050565b838152600060206060818401526144e66060840186613ec9565b83810360408581019190915285518083528387019284019060005b8181101561452f57845180516001600160a01b03168452860151868401529385019391830191600101614501565b50909998505050505050505050565b60006001600160401b0382111561455757614557614276565b50601f01601f191660200190565b600061457361436e8461453e565b905082815283838301111561458757600080fd5b828260208301376000602084830101529392505050565b600080600080608085870312156145b457600080fd5b84356145bf81613f21565b935060208501356145cf81613f21565b92506040850135915060608501356001600160401b038111156145f157600080fd5b8501601f8101871361460257600080fd5b61461187823560208401614565565b91505092959194509250565b600082601f83011261462e57600080fd5b6111c483833560208501614565565b803569ffffffffffffffffffff81168114613f4157600080fd5b803565ffffffffffff81168114613f4157600080fd5b803564ffffffffff81168114613f4157600080fd5b803561ffff81168114613f4157600080fd5b803560ff81168114613f4157600080fd5b600060808083850312156146b857600080fd5b6146c061428c565b915082356001600160401b038111156146d857600080fd5b8301601f810185136146e957600080fd5b803560206146f961436e8361432a565b8281526101c0928302840182019282820191908985111561471957600080fd5b948301945b848610156148305780868b0312156147365760008081fd5b61473e6142b4565b6147478761463d565b8152614754858801614657565b85820152604061476581890161466d565b908201526060614776888201614682565b90820152614785878901614682565b8882015260a0614796818901613f36565b9082015260c06147a7888201614694565b9082015260e06147b8888201613f36565b9082015261010087810135908201526101206147d5818901614694565b908201526101406147e7888201614488565b908201526101606147f9888201614488565b9082015261018061480b888201614488565b908201526101a061481d888201614488565b908201528352948501949183019161471e565b5086525085810135908501525050506040808301359082015261485560608301613f36565b606082015292915050565b60006080828403121561487257600080fd5b61487a61428c565b905081356148878161447a565b815260208201356148978161447a565b602082015260408201356148aa8161447a565b604082015260608201356148558161447a565b60008060008060008060008060008060006101c08c8e0312156148df57600080fd5b8b359a506148ef60208d01613f36565b99506001600160401b038060408e0135111561490a57600080fd5b61491a8e60408f01358f0161461d565b99508060608e0135111561492d57600080fd5b61493d8e60608f01358f0161461d565b985061494b60808e01613f36565b97508060a08e0135111561495e57600080fd5b61496e8e60a08f01358f0161461d565b965061497c60c08e01613f36565b95508060e08e0135111561498f57600080fd5b61499f8e60e08f01358f0161461d565b9450806101008e013511156149b357600080fd5b506149c58d6101008e01358e016146a5565b92506149d46101208d01613f36565b91506149e48d6101408e01614860565b90509295989b509295989b9093969950565b600060208284031215614a0857600080fd5b81356001600160401b03811115614a1e57600080fd5b82016101a081850312156111c457600080fd5b600060208284031215614a4357600080fd5b81356001600160401b03811115614a5957600080fd5b820161020081850312156111c457600080fd5b60008060408385031215614a7f57600080fd5b8235614a8a81613f21565b915060208301356144c181613f21565b600181811c90821680614aae57607f821691505b60208210810361415757634e487b7160e01b600052602260045260246000fd5b6020808252810182905260006001600160fb1b03831115614aee57600080fd5b8260051b80856040850137919091016040019392505050565b634e487b7160e01b600052603260045260246000fd5b614b3a82614b2a8361463d565b69ffffffffffffffffffff169052565b614b4660208201614657565b65ffffffffffff166020830152614b5f6040820161466d565b64ffffffffff166040830152614b7760608201614682565b61ffff166060830152614b8c60808201614682565b61ffff166080830152614ba160a08201613f36565b6001600160a01b031660a0830152614bbb60c08201614694565b60ff1660c0830152614bcf60e08201613f36565b6001600160a01b031660e08301526101008181013590830152610120614bf6818301614694565b60ff1690830152610140614c0b828201614488565b151590830152610160614c1f828201614488565b151590830152610180614c33828201614488565b1515908301526101a0614c47828201614488565b80151584830152610f60565b6020808252810182905260008360408301825b85811015614c8c57614c788284614b1d565b6101c0928301929190910190600101614c66565b5095945050505050565b600082601f830112614ca757600080fd5b81516020614cb761436e8361432a565b82815260059290921b84018101918181019086841115614cd657600080fd5b8286015b848110156143ad5780518352918301918301614cda565b600060208284031215614d0357600080fd5b81516001600160401b03811115614d1957600080fd5b61262784828501614c96565b6101e08101614d348285614b1d565b6001600160a01b03929092166101c09190910152919050565b8051613f4181613f21565b8051613f418161447a565b60006101c08284031215614d7657600080fd5b614d7e6142b4565b825181526020830151602082015260408301516040820152606083015160608201526080830151608082015260a083015160a082015260c083015160c0820152614dca60e08401614d4d565b60e08201526101008381015190820152610120614de8818501614d4d565b9082015261014083810151908201526101608084015190820152610180614e10818501614d58565b908201526101a0614e22848201614d58565b908201529392505050565b600060208284031215614e3f57600080fd5b81516111c481613f21565b600060408284031215614e5c57600080fd5b604051604081018181106001600160401b0382111715614e7e57614e7e614276565b604052823581526020928301359281019290925250919050565b600060208284031215614eaa57600080fd5b81516111c48161447a565b6000808335601e19843603018112614ecc57600080fd5b8301803591506001600160401b03821115614ee657600080fd5b602001915036819003821315610f0657600080fd5b60008085851115614f0b57600080fd5b83861115614f1857600080fd5b5050820193919092039150565b6001600160e01b03198135818116916004851015614f4d5780818660040360031b1b83161692505b505092915050565b600080600060608486031215614f6a57600080fd5b833592506020840135614f7c81613e72565b915060408401356001600160401b03811115614f9757600080fd5b614fa38682870161434d565b9150509250925092565b60008235603e19833603018112614fc357600080fd5b9190910192915050565b6000808335601e19843603018112614fe457600080fd5b8301803591506001600160401b03821115614ffe57600080fd5b6020019150600581901b3603821315610f0657600080fd5b84815260606020808301829052908201849052600090859060808401835b8781101561505b5761ffff61504885614682565b1682529282019290820190600101615034565b50809350505050821515604083015295945050505050565b6000806040838503121561508657600080fd5b82516001600160401b0381111561509c57600080fd5b6150a885828601614c96565b925050602083015190509250929050565b6000602082840312156150cb57600080fd5b6111c482614682565b6000602082840312156150e657600080fd5b5051919050565b6001600160a01b038316815260406020820181905260009061262790830184614228565b60208152816020820152818360408301376000818301604090810191909152601f909201601f19160101919050565b8183823760009101908152919050565b634e487b7160e01b600052601160045260246000fd5b818103818111156109d1576109d1615150565b808201808211156109d1576109d1615150565b6000610120828403121561519f57600080fd5b6151a76142d7565b825181526020830151602082015260408301516040820152606083015160608201526080830151608082015260a083015160a082015260c083015160c08201526151f360e08401614d4d565b60e0820152610100928301519281019290925250919050565b60006020828403121561521e57600080fd5b81516001600160401b0381111561523457600080fd5b8201601f8101841361524557600080fd5b805161525361436e8261453e565b81815285602083850101111561526857600080fd5b613825826020830160208601613ea5565b602080825282518282018190526000919060409081850190868401855b82811015615389578151805169ffffffffffffffffffff1685528681015165ffffffffffff16878601528581015164ffffffffff168686015260608082015161ffff908116918701919091526080808301519091169086015260a0808201516001600160a01b039081169187019190915260c08083015160ff9081169188019190915260e08084015190921691870191909152610100808301519087015261012080830151909116908601526101408082015115159086015261016080820151151590860152610180808201511515908601526101a0908101511515908501526101c09093019290850190600101615296565b5091979650505050505050565b634e487b7160e01b600052601260045260246000fd5b600083516153be818460208801613ea5565b8351908301906153d2818360208801613ea5565b01949350505050565b600181815b808511156154165781600019048211156153fc576153fc615150565b8085161561540957918102915b93841c93908002906153e0565b509250929050565b60008261542d575060016109d1565b8161543a575060006109d1565b8160018114615450576002811461545a57615476565b60019150506109d1565b60ff84111561546b5761546b615150565b50506001821b6109d1565b5060208310610133831016604e8410600b8410161715615499575081810a6109d1565b6154a383836153db565b80600019048211156154b7576154b7615150565b029392505050565b60006111c4838361541e565b600080600080600060a086880312156154e357600080fd5b85359450602080870135945060408701356154fd81613e72565b9350606087013561550d8161447a565b925060808701356001600160401b0381111561552857600080fd5b8701601f8101891361553957600080fd5b803561554761436e8261432a565b81815260059190911b8201830190838101908b83111561556657600080fd5b928401925b8284101561558b5761557c84614682565b8252928401929084019061556b565b80955050505050509295509295909350565b6000608082840312156155af57600080fd5b604051608081018181106001600160401b03821117156155d1576155d1614276565b60405282516155df8161447a565b815260208301516155ef8161447a565b602082015260408301516156028161447a565b604082015260608301516156158161447a565b60608201529392505050565b60008261563057615630615396565b500490565b6001600160a01b038581168252841660208201526040810183905260806060820181905260009061566890830184613ec9565b9695505050505050565b60006020828403121561568457600080fd5b81516111c481613e72565b60008261569e5761569e615396565b500690565b601f821115610b1757600081815260208120601f850160051c810160208610156156ca5750805b601f850160051c820191505b81811015610dd2578281556001016156d6565b81516001600160401b0381111561570257615702614276565b615716816157108454614a9a565b846156a3565b602080601f83116001811461574b57600084156157335750858301515b600019600386901b1c1916600185901b178555610dd2565b600085815260208120601f198616915b8281101561577a5788860151825594840194600190910190840161575b565b50858210156157985787850151600019600388901b60f8161c191681555b5050505050600190811b01905550565b6000606082018583526020606081850152818651808452608086019150828801935060005b818110156157ed57845161ffff16835293830193918301916001016157cd565b5050809350505050821515604083015294935050505056fe31323334353637383941424344454647484a4b4c4d4e505152535455565758595a6162636465666768696a6b6d6e6f707172737475767778797aa2646970667358221220ca54edbc6995d07f4e6f58315a3095ffc000ce3a21ce8c92285cf086eb5028d664736f6c63430008110033",
    "linkReferences": {}
  },
  "methodIdentifiers": {
    "MAX_ROYALTY_RATE()": "79a75319",
    "adjustTiers((uint80,uint48,uint40,uint16,uint16,address,uint8,address,bytes32,uint8,bool,bool,bool,bool)[],uint256[])": "25eb91ee",
    "approve(address,uint256)": "095ea7b3",
    "balanceOf(address)": "70a08231",
    "codeOrigin()": "1d153ca4",
    "contractURI()": "e8a3d485",
    "creditsOf(address)": "245a45b5",
    "delegate(address)": "5c19a95c",
    "delegates(address)": "587cde1e",
    "didPay((address,uint256,uint256,(address,uint256,uint256,uint256),(address,uint256,uint256,uint256),uint256,address,bool,string,bytes))": "da9ee8b7",
    "didRedeem((address,uint256,uint256,uint256,(address,uint256,uint256,uint256),(address,uint256,uint256,uint256),address,string,bytes))": "2b13c58f",
    "directory()": "c41c2f24",
    "firstOwnerOf(uint256)": "54c6d1f5",
    "fundingCycleStore()": "557e7155",
    "getApproved(uint256)": "081812fc",
    "getPastTotalSupply(uint256)": "8e539e8c",
    "getPastVotes(address,uint256)": "3a46b1a8",
    "getVotes(address)": "9ab24eb0",
    "initialize(uint256,address,string,string,address,string,address,string,((uint80,uint48,uint40,uint16,uint16,address,uint8,address,bytes32,uint8,bool,bool,bool,bool)[],uint256,uint256,address),address,(bool,bool,bool,bool))": "d1704baf",
    "isApprovedForAll(address,address)": "e985e9c5",
    "mintFor((uint16[],address)[])": "36c1a93b",
    "mintFor(uint16[],address)": "6ac6d941",
    "mintReservesFor((uint256,uint256)[])": "2a596e53",
    "mintReservesFor(uint256,uint256)": "aa4fb15b",
    "name()": "06fdde03",
    "owner()": "8da5cb5b",
    "ownerOf(uint256)": "6352211e",
    "payParams((address,address,(address,uint256,uint256,uint256),uint256,uint256,address,uint256,uint256,string,bytes))": "d46cf171",
    "prices()": "d3419bf3",
    "pricingCurrency()": "64640c1e",
    "pricingDecimals()": "4ecba625",
    "projectId()": "3fafa127",
    "redeemParams((address,address,uint256,uint256,uint256,uint256,uint256,(address,uint256,uint256,uint256),bool,uint256,string,bytes))": "a51cfd18",
    "redemptionWeightOf(uint256[],(address,address,uint256,uint256,uint256,uint256,uint256,(address,uint256,uint256,uint256),bool,uint256,string,bytes))": "7ba62bf9",
    "renounceOwnership()": "715018a6",
    "royaltyInfo(uint256,uint256)": "2a55205a",
    "safeTransferFrom(address,address,uint256)": "42842e0e",
    "safeTransferFrom(address,address,uint256,bytes)": "b88d4fde",
    "setApprovalForAll(address,bool)": "a22cb465",
    "setBaseUri(string)": "a0bcfc7f",
    "setContractUri(string)": "ccb4807b",
    "setDefaultReservedTokenBeneficiary(address)": "df487e26",
    "setEncodedIPFSUriOf(uint256,bytes32)": "525350ba",
    "setTokenUriResolver(address)": "2407497e",
    "store()": "975057e7",
    "supportsInterface(bytes4)": "01ffc9a7",
    "symbol()": "95d89b41",
    "tokenURI(uint256)": "c87b56dd",
    "totalRedemptionWeight((address,address,uint256,uint256,uint256,uint256,uint256,(address,uint256,uint256,uint256),bool,uint256,string,bytes))": "9494bf72",
    "transferFrom(address,address,uint256)": "23b872dd",
    "transferOwnership(address)": "f2fde38b"
  },
  "id": 0
}