{
  "abi": [
    {
      "inputs": [],
      "name": "ALEADY_MINTED",
      "type": "error"
    },
    {
      "inputs": [],
      "name": "APPROVAL_TO_CURRENT_OWNER",
      "type": "error"
    },
    {
      "inputs": [],
      "name": "APPROVE_TO_CALLER",
      "type": "error"
    },
    {
      "inputs": [],
      "name": "BLOCK_NOT_YET_MINED",
      "type": "error"
    },
    {
      "inputs": [],
      "name": "CALLER_NOT_OWNER_OR_APPROVED",
      "type": "error"
    },
    {
      "inputs": [],
      "name": "INCORRECT_OWNER",
      "type": "error"
    },
    {
      "inputs": [],
      "name": "INVALID",
      "type": "error"
    },
    {
      "inputs": [],
      "name": "INVALID_PAYMENT_EVENT",
      "type": "error"
    },
    {
      "inputs": [],
      "name": "INVALID_REDEMPTION_EVENT",
      "type": "error"
    },
    {
      "inputs": [],
      "name": "INVALID_REDEMPTION_METADATA",
      "type": "error"
    },
    {
      "inputs": [],
      "name": "INVALID_TOKEN_ID",
      "type": "error"
    },
    {
      "inputs": [],
      "name": "MINT_TO_ZERO",
      "type": "error"
    },
    {
      "inputs": [],
      "name": "NOT_AVAILABLE",
      "type": "error"
    },
    {
      "inputs": [],
      "name": "OVERSPENDING",
      "type": "error"
    },
    {
      "inputs": [
        {
          "internalType": "uint256",
          "name": "prod1",
          "type": "uint256"
        },
        {
          "internalType": "uint256",
          "name": "denominator",
          "type": "uint256"
        }
      ],
      "name": "PRBMath__MulDivOverflow",
      "type": "error"
    },
    {
      "inputs": [],
      "name": "PRICING_RESOLVER_CHANGES_PAUSED",
      "type": "error"
    },
    {
      "inputs": [],
      "name": "RESERVED_TOKEN_MINTING_PAUSED",
      "type": "error"
    },
    {
      "inputs": [],
      "name": "SIGNATURE_EXPIRED",
      "type": "error"
    },
    {
      "inputs": [],
      "name": "TRANSFERS_PAUSED",
      "type": "error"
    },
    {
      "inputs": [],
      "name": "TRANSFER_TO_NON_IMPLEMENTER",
      "type": "error"
    },
    {
      "inputs": [],
      "name": "TRANSFER_TO_ZERO_ADDRESS",
      "type": "error"
    },
    {
      "inputs": [],
      "name": "UNAUTHORIZED",
      "type": "error"
    },
    {
      "inputs": [],
      "name": "UNEXPECTED_TOKEN_REDEEMED",
      "type": "error"
    },
    {
      "anonymous": false,
      "inputs": [
        {
          "indexed": true,
          "internalType": "uint256",
          "name": "tierId",
          "type": "uint256"
        },
        {
          "components": [
            {
              "internalType": "uint256",
              "name": "contributionFloor",
              "type": "uint256"
            },
            {
              "internalType": "uint256",
              "name": "lockedUntil",
              "type": "uint256"
            },
            {
              "internalType": "uint256",
              "name": "initialQuantity",
              "type": "uint256"
            },
            {
              "internalType": "uint256",
              "name": "votingUnits",
              "type": "uint256"
            },
            {
              "internalType": "uint256",
              "name": "reservedRate",
              "type": "uint256"
            },
            {
              "internalType": "address",
              "name": "reservedTokenBeneficiary",
              "type": "address"
            },
            {
              "internalType": "bytes32",
              "name": "encodedIPFSUri",
              "type": "bytes32"
            },
            {
              "internalType": "bool",
              "name": "allowManualMint",
              "type": "bool"
            },
            {
              "internalType": "bool",
              "name": "shouldUseBeneficiaryAsDefault",
              "type": "bool"
            }
          ],
          "indexed": false,
          "internalType": "struct JB721TierParams",
          "name": "data",
          "type": "tuple"
        },
        {
          "indexed": false,
          "internalType": "address",
          "name": "caller",
          "type": "address"
        }
      ],
      "name": "AddTier",
      "type": "event"
    },
    {
      "anonymous": false,
      "inputs": [
        {
          "indexed": true,
          "internalType": "address",
          "name": "owner",
          "type": "address"
        },
        {
          "indexed": true,
          "internalType": "address",
          "name": "approved",
          "type": "address"
        },
        {
          "indexed": true,
          "internalType": "uint256",
          "name": "tokenId",
          "type": "uint256"
        }
      ],
      "name": "Approval",
      "type": "event"
    },
    {
      "anonymous": false,
      "inputs": [
        {
          "indexed": true,
          "internalType": "address",
          "name": "owner",
          "type": "address"
        },
        {
          "indexed": true,
          "internalType": "address",
          "name": "operator",
          "type": "address"
        },
        {
          "indexed": false,
          "internalType": "bool",
          "name": "approved",
          "type": "bool"
        }
      ],
      "name": "ApprovalForAll",
      "type": "event"
    },
    {
      "anonymous": false,
      "inputs": [
        {
          "indexed": true,
          "internalType": "address",
          "name": "delegator",
          "type": "address"
        },
        {
          "indexed": true,
          "internalType": "address",
          "name": "fromDelegate",
          "type": "address"
        },
        {
          "indexed": true,
          "internalType": "address",
          "name": "toDelegate",
          "type": "address"
        }
      ],
      "name": "DelegateChanged",
      "type": "event"
    },
    {
      "anonymous": false,
      "inputs": [
        {
          "indexed": true,
          "internalType": "address",
          "name": "delegate",
          "type": "address"
        },
        {
          "indexed": false,
          "internalType": "uint256",
          "name": "previousBalance",
          "type": "uint256"
        },
        {
          "indexed": false,
          "internalType": "uint256",
          "name": "newBalance",
          "type": "uint256"
        }
      ],
      "name": "DelegateVotesChanged",
      "type": "event"
    },
    {
      "anonymous": false,
      "inputs": [
        {
          "indexed": true,
          "internalType": "uint256",
          "name": "tokenId",
          "type": "uint256"
        },
        {
          "indexed": true,
          "internalType": "uint256",
          "name": "tierId",
          "type": "uint256"
        },
        {
          "indexed": true,
          "internalType": "address",
          "name": "beneficiary",
          "type": "address"
        },
        {
          "indexed": false,
          "internalType": "uint256",
          "name": "totalAmountContributed",
          "type": "uint256"
        },
        {
          "indexed": false,
          "internalType": "address",
          "name": "caller",
          "type": "address"
        }
      ],
      "name": "Mint",
      "type": "event"
    },
    {
      "anonymous": false,
      "inputs": [
        {
          "indexed": true,
          "internalType": "uint256",
          "name": "tokenId",
          "type": "uint256"
        },
        {
          "indexed": true,
          "internalType": "uint256",
          "name": "tierId",
          "type": "uint256"
        },
        {
          "indexed": true,
          "internalType": "address",
          "name": "beneficiary",
          "type": "address"
        },
        {
          "indexed": false,
          "internalType": "address",
          "name": "caller",
          "type": "address"
        }
      ],
      "name": "MintReservedToken",
      "type": "event"
    },
    {
      "anonymous": false,
      "inputs": [
        {
          "indexed": true,
          "internalType": "address",
          "name": "previousOwner",
          "type": "address"
        },
        {
          "indexed": true,
          "internalType": "address",
          "name": "newOwner",
          "type": "address"
        }
      ],
      "name": "OwnershipTransferred",
      "type": "event"
    },
    {
      "anonymous": false,
      "inputs": [
        {
          "indexed": true,
          "internalType": "uint256",
          "name": "tierId",
          "type": "uint256"
        },
        {
          "indexed": false,
          "internalType": "address",
          "name": "caller",
          "type": "address"
        }
      ],
      "name": "RemoveTier",
      "type": "event"
    },
    {
      "anonymous": false,
      "inputs": [
        {
          "indexed": true,
          "internalType": "string",
          "name": "baseUri",
          "type": "string"
        },
        {
          "indexed": false,
          "internalType": "address",
          "name": "caller",
          "type": "address"
        }
      ],
      "name": "SetBaseUri",
      "type": "event"
    },
    {
      "anonymous": false,
      "inputs": [
        {
          "indexed": true,
          "internalType": "string",
          "name": "contractUri",
          "type": "string"
        },
        {
          "indexed": false,
          "internalType": "address",
          "name": "caller",
          "type": "address"
        }
      ],
      "name": "SetContractUri",
      "type": "event"
    },
    {
      "anonymous": false,
      "inputs": [
        {
          "indexed": true,
          "internalType": "address",
          "name": "beneficiary",
          "type": "address"
        },
        {
          "indexed": false,
          "internalType": "address",
          "name": "caller",
          "type": "address"
        }
      ],
      "name": "SetDefaultReservedTokenBeneficiary",
      "type": "event"
    },
    {
      "anonymous": false,
      "inputs": [
        {
          "indexed": true,
          "internalType": "contract IJBTokenUriResolver",
          "name": "newResolver",
          "type": "address"
        },
        {
          "indexed": false,
          "internalType": "address",
          "name": "caller",
          "type": "address"
        }
      ],
      "name": "SetTokenUriResolver",
      "type": "event"
    },
    {
      "anonymous": false,
      "inputs": [
        {
          "indexed": true,
          "internalType": "address",
          "name": "from",
          "type": "address"
        },
        {
          "indexed": true,
          "internalType": "address",
          "name": "to",
          "type": "address"
        },
        {
          "indexed": true,
          "internalType": "uint256",
          "name": "tokenId",
          "type": "uint256"
        }
      ],
      "name": "Transfer",
      "type": "event"
    },
    {
      "inputs": [
        {
          "components": [
            {
              "internalType": "uint256",
              "name": "contributionFloor",
              "type": "uint256"
            },
            {
              "internalType": "uint256",
              "name": "lockedUntil",
              "type": "uint256"
            },
            {
              "internalType": "uint256",
              "name": "initialQuantity",
              "type": "uint256"
            },
            {
              "internalType": "uint256",
              "name": "votingUnits",
              "type": "uint256"
            },
            {
              "internalType": "uint256",
              "name": "reservedRate",
              "type": "uint256"
            },
            {
              "internalType": "address",
              "name": "reservedTokenBeneficiary",
              "type": "address"
            },
            {
              "internalType": "bytes32",
              "name": "encodedIPFSUri",
              "type": "bytes32"
            },
            {
              "internalType": "bool",
              "name": "allowManualMint",
              "type": "bool"
            },
            {
              "internalType": "bool",
              "name": "shouldUseBeneficiaryAsDefault",
              "type": "bool"
            }
          ],
          "internalType": "struct JB721TierParams[]",
          "name": "_tiersToAdd",
          "type": "tuple[]"
        },
        {
          "internalType": "uint256[]",
          "name": "_tierIdsToRemove",
          "type": "uint256[]"
        }
      ],
      "name": "adjustTiers",
      "outputs": [],
      "stateMutability": "nonpayable",
      "type": "function"
    },
    {
      "inputs": [
        {
          "internalType": "address",
          "name": "to",
          "type": "address"
        },
        {
          "internalType": "uint256",
          "name": "tokenId",
          "type": "uint256"
        }
      ],
      "name": "approve",
      "outputs": [],
      "stateMutability": "nonpayable",
      "type": "function"
    },
    {
      "inputs": [
        {
          "internalType": "address",
          "name": "_owner",
          "type": "address"
        }
      ],
      "name": "balanceOf",
      "outputs": [
        {
          "internalType": "uint256",
          "name": "balance",
          "type": "uint256"
        }
      ],
      "stateMutability": "view",
      "type": "function"
    },
    {
      "inputs": [],
      "name": "contractURI",
      "outputs": [
        {
          "internalType": "string",
          "name": "",
          "type": "string"
        }
      ],
      "stateMutability": "view",
      "type": "function"
    },
    {
      "inputs": [
        {
          "internalType": "address",
          "name": "",
          "type": "address"
        }
      ],
      "name": "creditsOf",
      "outputs": [
        {
          "internalType": "uint256",
          "name": "",
          "type": "uint256"
        }
      ],
      "stateMutability": "view",
      "type": "function"
    },
    {
      "inputs": [
        {
          "internalType": "address",
          "name": "delegatee",
          "type": "address"
        }
      ],
      "name": "delegate",
      "outputs": [],
      "stateMutability": "nonpayable",
      "type": "function"
    },
    {
      "inputs": [
        {
          "internalType": "address",
          "name": "account",
          "type": "address"
        }
      ],
      "name": "delegates",
      "outputs": [
        {
          "internalType": "address",
          "name": "",
          "type": "address"
        }
      ],
      "stateMutability": "view",
      "type": "function"
    },
    {
      "inputs": [
        {
          "components": [
            {
              "internalType": "address",
              "name": "payer",
              "type": "address"
            },
            {
              "internalType": "uint256",
              "name": "projectId",
              "type": "uint256"
            },
            {
              "internalType": "uint256",
              "name": "currentFundingCycleConfiguration",
              "type": "uint256"
            },
            {
              "components": [
                {
                  "internalType": "address",
                  "name": "token",
                  "type": "address"
                },
                {
                  "internalType": "uint256",
                  "name": "value",
                  "type": "uint256"
                },
                {
                  "internalType": "uint256",
                  "name": "decimals",
                  "type": "uint256"
                },
                {
                  "internalType": "uint256",
                  "name": "currency",
                  "type": "uint256"
                }
              ],
              "internalType": "struct JBTokenAmount",
              "name": "amount",
              "type": "tuple"
            },
            {
              "components": [
                {
                  "internalType": "address",
                  "name": "token",
                  "type": "address"
                },
                {
                  "internalType": "uint256",
                  "name": "value",
                  "type": "uint256"
                },
                {
                  "internalType": "uint256",
                  "name": "decimals",
                  "type": "uint256"
                },
                {
                  "internalType": "uint256",
                  "name": "currency",
                  "type": "uint256"
                }
              ],
              "internalType": "struct JBTokenAmount",
              "name": "forwardedAmount",
              "type": "tuple"
            },
            {
              "internalType": "uint256",
              "name": "projectTokenCount",
              "type": "uint256"
            },
            {
              "internalType": "address",
              "name": "beneficiary",
              "type": "address"
            },
            {
              "internalType": "bool",
              "name": "preferClaimedTokens",
              "type": "bool"
            },
            {
              "internalType": "string",
              "name": "memo",
              "type": "string"
            },
            {
              "internalType": "bytes",
              "name": "metadata",
              "type": "bytes"
            }
          ],
          "internalType": "struct JBDidPayData",
          "name": "_data",
          "type": "tuple"
        }
      ],
      "name": "didPay",
      "outputs": [],
      "stateMutability": "payable",
      "type": "function"
    },
    {
      "inputs": [
        {
          "components": [
            {
              "internalType": "address",
              "name": "holder",
              "type": "address"
            },
            {
              "internalType": "uint256",
              "name": "projectId",
              "type": "uint256"
            },
            {
              "internalType": "uint256",
              "name": "currentFundingCycleConfiguration",
              "type": "uint256"
            },
            {
              "internalType": "uint256",
              "name": "projectTokenCount",
              "type": "uint256"
            },
            {
              "components": [
                {
                  "internalType": "address",
                  "name": "token",
                  "type": "address"
                },
                {
                  "internalType": "uint256",
                  "name": "value",
                  "type": "uint256"
                },
                {
                  "internalType": "uint256",
                  "name": "decimals",
                  "type": "uint256"
                },
                {
                  "internalType": "uint256",
                  "name": "currency",
                  "type": "uint256"
                }
              ],
              "internalType": "struct JBTokenAmount",
              "name": "reclaimedAmount",
              "type": "tuple"
            },
            {
              "components": [
                {
                  "internalType": "address",
                  "name": "token",
                  "type": "address"
                },
                {
                  "internalType": "uint256",
                  "name": "value",
                  "type": "uint256"
                },
                {
                  "internalType": "uint256",
                  "name": "decimals",
                  "type": "uint256"
                },
                {
                  "internalType": "uint256",
                  "name": "currency",
                  "type": "uint256"
                }
              ],
              "internalType": "struct JBTokenAmount",
              "name": "forwardedAmount",
              "type": "tuple"
            },
            {
              "internalType": "address payable",
              "name": "beneficiary",
              "type": "address"
            },
            {
              "internalType": "string",
              "name": "memo",
              "type": "string"
            },
            {
              "internalType": "bytes",
              "name": "metadata",
              "type": "bytes"
            }
          ],
          "internalType": "struct JBDidRedeemData",
          "name": "_data",
          "type": "tuple"
        }
      ],
      "name": "didRedeem",
      "outputs": [],
      "stateMutability": "payable",
      "type": "function"
    },
    {
      "inputs": [],
      "name": "directory",
      "outputs": [
        {
          "internalType": "contract IJBDirectory",
          "name": "",
          "type": "address"
        }
      ],
      "stateMutability": "view",
      "type": "function"
    },
    {
      "inputs": [
        {
          "internalType": "uint256",
          "name": "_tokenId",
          "type": "uint256"
        }
      ],
      "name": "firstOwnerOf",
      "outputs": [
        {
          "internalType": "address",
          "name": "",
          "type": "address"
        }
      ],
      "stateMutability": "view",
      "type": "function"
    },
    {
      "inputs": [],
      "name": "fundingCycleStore",
      "outputs": [
        {
          "internalType": "contract IJBFundingCycleStore",
          "name": "",
          "type": "address"
        }
      ],
      "stateMutability": "view",
      "type": "function"
    },
    {
      "inputs": [
        {
          "internalType": "uint256",
          "name": "tokenId",
          "type": "uint256"
        }
      ],
      "name": "getApproved",
      "outputs": [
        {
          "internalType": "address",
          "name": "",
          "type": "address"
        }
      ],
      "stateMutability": "view",
      "type": "function"
    },
    {
      "inputs": [
        {
          "internalType": "uint256",
          "name": "blockNumber",
          "type": "uint256"
        }
      ],
      "name": "getPastTotalSupply",
      "outputs": [
        {
          "internalType": "uint256",
          "name": "",
          "type": "uint256"
        }
      ],
      "stateMutability": "view",
      "type": "function"
    },
    {
      "inputs": [
        {
          "internalType": "address",
          "name": "account",
          "type": "address"
        },
        {
          "internalType": "uint256",
          "name": "blockNumber",
          "type": "uint256"
        }
      ],
      "name": "getPastVotes",
      "outputs": [
        {
          "internalType": "uint256",
          "name": "",
          "type": "uint256"
        }
      ],
      "stateMutability": "view",
      "type": "function"
    },
    {
      "inputs": [
        {
          "internalType": "address",
          "name": "account",
          "type": "address"
        }
      ],
      "name": "getVotes",
      "outputs": [
        {
          "internalType": "uint256",
          "name": "",
          "type": "uint256"
        }
      ],
      "stateMutability": "view",
      "type": "function"
    },
    {
      "inputs": [
        {
          "internalType": "uint256",
          "name": "_projectId",
          "type": "uint256"
        },
        {
          "internalType": "contract IJBDirectory",
          "name": "_directory",
          "type": "address"
        },
        {
          "internalType": "string",
          "name": "_name",
          "type": "string"
        },
        {
          "internalType": "string",
          "name": "_symbol",
          "type": "string"
        },
        {
          "internalType": "contract IJBFundingCycleStore",
          "name": "_fundingCycleStore",
          "type": "address"
        },
        {
          "internalType": "string",
          "name": "_baseUri",
          "type": "string"
        },
        {
          "internalType": "contract IJBTokenUriResolver",
          "name": "_tokenUriResolver",
          "type": "address"
        },
        {
          "internalType": "string",
          "name": "_contractUri",
          "type": "string"
        },
        {
          "components": [
            {
              "components": [
                {
                  "internalType": "uint256",
                  "name": "contributionFloor",
                  "type": "uint256"
                },
                {
                  "internalType": "uint256",
                  "name": "lockedUntil",
                  "type": "uint256"
                },
                {
                  "internalType": "uint256",
                  "name": "initialQuantity",
                  "type": "uint256"
                },
                {
                  "internalType": "uint256",
                  "name": "votingUnits",
                  "type": "uint256"
                },
                {
                  "internalType": "uint256",
                  "name": "reservedRate",
                  "type": "uint256"
                },
                {
                  "internalType": "address",
                  "name": "reservedTokenBeneficiary",
                  "type": "address"
                },
                {
                  "internalType": "bytes32",
                  "name": "encodedIPFSUri",
                  "type": "bytes32"
                },
                {
                  "internalType": "bool",
                  "name": "allowManualMint",
                  "type": "bool"
                },
                {
                  "internalType": "bool",
                  "name": "shouldUseBeneficiaryAsDefault",
                  "type": "bool"
                }
              ],
              "internalType": "struct JB721TierParams[]",
              "name": "tiers",
              "type": "tuple[]"
            },
            {
              "internalType": "uint256",
              "name": "currency",
              "type": "uint256"
            },
            {
              "internalType": "uint256",
              "name": "decimals",
              "type": "uint256"
            },
            {
              "internalType": "contract IJBPrices",
              "name": "prices",
              "type": "address"
            }
          ],
          "internalType": "struct JB721PricingParams",
          "name": "_pricing",
          "type": "tuple"
        },
        {
          "internalType": "contract IJBTiered721DelegateStore",
          "name": "_store",
          "type": "address"
        },
        {
          "components": [
            {
              "internalType": "bool",
              "name": "lockReservedTokenChanges",
              "type": "bool"
            },
            {
              "internalType": "bool",
              "name": "lockVotingUnitChanges",
              "type": "bool"
            },
            {
              "internalType": "bool",
              "name": "lockManualMintingChanges",
              "type": "bool"
            },
            {
              "internalType": "bool",
              "name": "pausable",
              "type": "bool"
            }
          ],
          "internalType": "struct JBTiered721Flags",
          "name": "_flags",
          "type": "tuple"
        }
      ],
      "name": "initialize",
      "outputs": [],
      "stateMutability": "nonpayable",
      "type": "function"
    },
    {
      "inputs": [
        {
          "internalType": "address",
          "name": "owner",
          "type": "address"
        },
        {
          "internalType": "address",
          "name": "operator",
          "type": "address"
        }
      ],
      "name": "isApprovedForAll",
      "outputs": [
        {
          "internalType": "bool",
          "name": "",
          "type": "bool"
        }
      ],
      "stateMutability": "view",
      "type": "function"
    },
    {
      "inputs": [
        {
          "components": [
            {
              "internalType": "uint16[]",
              "name": "tierIds",
              "type": "uint16[]"
            },
            {
              "internalType": "address",
              "name": "beneficiary",
              "type": "address"
            }
          ],
          "internalType": "struct JBTiered721MintForTiersData[]",
          "name": "_mintForTiersData",
          "type": "tuple[]"
        }
      ],
      "name": "mintFor",
      "outputs": [],
      "stateMutability": "nonpayable",
      "type": "function"
    },
    {
      "inputs": [
        {
          "internalType": "uint16[]",
          "name": "_tierIds",
          "type": "uint16[]"
        },
        {
          "internalType": "address",
          "name": "_beneficiary",
          "type": "address"
        }
      ],
      "name": "mintFor",
      "outputs": [
        {
          "internalType": "uint256[]",
          "name": "tokenIds",
          "type": "uint256[]"
        }
      ],
      "stateMutability": "nonpayable",
      "type": "function"
    },
    {
      "inputs": [
        {
          "components": [
            {
              "internalType": "uint256",
              "name": "tierId",
              "type": "uint256"
            },
            {
              "internalType": "uint256",
              "name": "count",
              "type": "uint256"
            }
          ],
          "internalType": "struct JBTiered721MintReservesForTiersData[]",
          "name": "_mintReservesForTiersData",
          "type": "tuple[]"
        }
      ],
      "name": "mintReservesFor",
      "outputs": [],
      "stateMutability": "nonpayable",
      "type": "function"
    },
    {
      "inputs": [
        {
          "internalType": "uint256",
          "name": "_tierId",
          "type": "uint256"
        },
        {
          "internalType": "uint256",
          "name": "_count",
          "type": "uint256"
        }
      ],
      "name": "mintReservesFor",
      "outputs": [],
      "stateMutability": "nonpayable",
      "type": "function"
    },
    {
      "inputs": [],
      "name": "name",
      "outputs": [
        {
          "internalType": "string",
          "name": "",
          "type": "string"
        }
      ],
      "stateMutability": "view",
      "type": "function"
    },
    {
      "inputs": [],
      "name": "owner",
      "outputs": [
        {
          "internalType": "address",
          "name": "",
          "type": "address"
        }
      ],
      "stateMutability": "view",
      "type": "function"
    },
    {
      "inputs": [
        {
          "internalType": "uint256",
          "name": "tokenId",
          "type": "uint256"
        }
      ],
      "name": "ownerOf",
      "outputs": [
        {
          "internalType": "address",
          "name": "",
          "type": "address"
        }
      ],
      "stateMutability": "view",
      "type": "function"
    },
    {
      "inputs": [
        {
          "components": [
            {
              "internalType": "contract IJBPaymentTerminal",
              "name": "terminal",
              "type": "address"
            },
            {
              "internalType": "address",
              "name": "payer",
              "type": "address"
            },
            {
              "components": [
                {
                  "internalType": "address",
                  "name": "token",
                  "type": "address"
                },
                {
                  "internalType": "uint256",
                  "name": "value",
                  "type": "uint256"
                },
                {
                  "internalType": "uint256",
                  "name": "decimals",
                  "type": "uint256"
                },
                {
                  "internalType": "uint256",
                  "name": "currency",
                  "type": "uint256"
                }
              ],
              "internalType": "struct JBTokenAmount",
              "name": "amount",
              "type": "tuple"
            },
            {
              "internalType": "uint256",
              "name": "projectId",
              "type": "uint256"
            },
            {
              "internalType": "uint256",
              "name": "currentFundingCycleConfiguration",
              "type": "uint256"
            },
            {
              "internalType": "address",
              "name": "beneficiary",
              "type": "address"
            },
            {
              "internalType": "uint256",
              "name": "weight",
              "type": "uint256"
            },
            {
              "internalType": "uint256",
              "name": "reservedRate",
              "type": "uint256"
            },
            {
              "internalType": "string",
              "name": "memo",
              "type": "string"
            },
            {
              "internalType": "bytes",
              "name": "metadata",
              "type": "bytes"
            }
          ],
          "internalType": "struct JBPayParamsData",
          "name": "_data",
          "type": "tuple"
        }
      ],
      "name": "payParams",
      "outputs": [
        {
          "internalType": "uint256",
          "name": "weight",
          "type": "uint256"
        },
        {
          "internalType": "string",
          "name": "memo",
          "type": "string"
        },
        {
          "components": [
            {
              "internalType": "contract IJBPayDelegate",
              "name": "delegate",
              "type": "address"
            },
            {
              "internalType": "uint256",
              "name": "amount",
              "type": "uint256"
            }
          ],
          "internalType": "struct JBPayDelegateAllocation[]",
          "name": "delegateAllocations",
          "type": "tuple[]"
        }
      ],
      "stateMutability": "view",
      "type": "function"
    },
    {
      "inputs": [],
      "name": "prices",
      "outputs": [
        {
          "internalType": "contract IJBPrices",
          "name": "",
          "type": "address"
        }
      ],
      "stateMutability": "view",
      "type": "function"
    },
    {
      "inputs": [],
      "name": "pricingCurrency",
      "outputs": [
        {
          "internalType": "uint256",
          "name": "",
          "type": "uint256"
        }
      ],
      "stateMutability": "view",
      "type": "function"
    },
    {
      "inputs": [],
      "name": "pricingDecimals",
      "outputs": [
        {
          "internalType": "uint256",
          "name": "",
          "type": "uint256"
        }
      ],
      "stateMutability": "view",
      "type": "function"
    },
    {
      "inputs": [],
      "name": "projectId",
      "outputs": [
        {
          "internalType": "uint256",
          "name": "",
          "type": "uint256"
        }
      ],
      "stateMutability": "view",
      "type": "function"
    },
    {
      "inputs": [
        {
          "components": [
            {
              "internalType": "contract IJBPaymentTerminal",
              "name": "terminal",
              "type": "address"
            },
            {
              "internalType": "address",
              "name": "holder",
              "type": "address"
            },
            {
              "internalType": "uint256",
              "name": "projectId",
              "type": "uint256"
            },
            {
              "internalType": "uint256",
              "name": "currentFundingCycleConfiguration",
              "type": "uint256"
            },
            {
              "internalType": "uint256",
              "name": "tokenCount",
              "type": "uint256"
            },
            {
              "internalType": "uint256",
              "name": "totalSupply",
              "type": "uint256"
            },
            {
              "internalType": "uint256",
              "name": "overflow",
              "type": "uint256"
            },
            {
              "components": [
                {
                  "internalType": "address",
                  "name": "token",
                  "type": "address"
                },
                {
                  "internalType": "uint256",
                  "name": "value",
                  "type": "uint256"
                },
                {
                  "internalType": "uint256",
                  "name": "decimals",
                  "type": "uint256"
                },
                {
                  "internalType": "uint256",
                  "name": "currency",
                  "type": "uint256"
                }
              ],
              "internalType": "struct JBTokenAmount",
              "name": "reclaimAmount",
              "type": "tuple"
            },
            {
              "internalType": "bool",
              "name": "useTotalOverflow",
              "type": "bool"
            },
            {
              "internalType": "uint256",
              "name": "redemptionRate",
              "type": "uint256"
            },
            {
              "internalType": "string",
              "name": "memo",
              "type": "string"
            },
            {
              "internalType": "bytes",
              "name": "metadata",
              "type": "bytes"
            }
          ],
          "internalType": "struct JBRedeemParamsData",
          "name": "_data",
          "type": "tuple"
        }
      ],
      "name": "redeemParams",
      "outputs": [
        {
          "internalType": "uint256",
          "name": "reclaimAmount",
          "type": "uint256"
        },
        {
          "internalType": "string",
          "name": "memo",
          "type": "string"
        },
        {
          "components": [
            {
              "internalType": "contract IJBRedemptionDelegate",
              "name": "delegate",
              "type": "address"
            },
            {
              "internalType": "uint256",
              "name": "amount",
              "type": "uint256"
            }
          ],
          "internalType": "struct JBRedemptionDelegateAllocation[]",
          "name": "delegateAllocations",
          "type": "tuple[]"
        }
      ],
      "stateMutability": "view",
      "type": "function"
    },
    {
      "inputs": [],
      "name": "renounceOwnership",
      "outputs": [],
      "stateMutability": "nonpayable",
      "type": "function"
    },
    {
      "inputs": [
        {
          "internalType": "address",
          "name": "from",
          "type": "address"
        },
        {
          "internalType": "address",
          "name": "to",
          "type": "address"
        },
        {
          "internalType": "uint256",
          "name": "tokenId",
          "type": "uint256"
        }
      ],
      "name": "safeTransferFrom",
      "outputs": [],
      "stateMutability": "nonpayable",
      "type": "function"
    },
    {
      "inputs": [
        {
          "internalType": "address",
          "name": "from",
          "type": "address"
        },
        {
          "internalType": "address",
          "name": "to",
          "type": "address"
        },
        {
          "internalType": "uint256",
          "name": "tokenId",
          "type": "uint256"
        },
        {
          "internalType": "bytes",
          "name": "data",
          "type": "bytes"
        }
      ],
      "name": "safeTransferFrom",
      "outputs": [],
      "stateMutability": "nonpayable",
      "type": "function"
    },
    {
      "inputs": [
        {
          "internalType": "address",
          "name": "operator",
          "type": "address"
        },
        {
          "internalType": "bool",
          "name": "approved",
          "type": "bool"
        }
      ],
      "name": "setApprovalForAll",
      "outputs": [],
      "stateMutability": "nonpayable",
      "type": "function"
    },
    {
      "inputs": [
        {
          "internalType": "string",
          "name": "_baseUri",
          "type": "string"
        }
      ],
      "name": "setBaseUri",
      "outputs": [],
      "stateMutability": "nonpayable",
      "type": "function"
    },
    {
      "inputs": [
        {
          "internalType": "string",
          "name": "_contractUri",
          "type": "string"
        }
      ],
      "name": "setContractUri",
      "outputs": [],
      "stateMutability": "nonpayable",
      "type": "function"
    },
    {
      "inputs": [
        {
          "internalType": "address",
          "name": "_beneficiary",
          "type": "address"
        }
      ],
      "name": "setDefaultReservedTokenBeneficiary",
      "outputs": [],
      "stateMutability": "nonpayable",
      "type": "function"
    },
    {
      "inputs": [
        {
          "internalType": "contract IJBTokenUriResolver",
          "name": "_tokenUriResolver",
          "type": "address"
        }
      ],
      "name": "setTokenUriResolver",
      "outputs": [],
      "stateMutability": "nonpayable",
      "type": "function"
    },
    {
      "inputs": [],
      "name": "store",
      "outputs": [
        {
          "internalType": "contract IJBTiered721DelegateStore",
          "name": "",
          "type": "address"
        }
      ],
      "stateMutability": "view",
      "type": "function"
    },
    {
      "inputs": [
        {
          "internalType": "bytes4",
          "name": "_interfaceId",
          "type": "bytes4"
        }
      ],
      "name": "supportsInterface",
      "outputs": [
        {
          "internalType": "bool",
          "name": "",
          "type": "bool"
        }
      ],
      "stateMutability": "view",
      "type": "function"
    },
    {
      "inputs": [],
      "name": "symbol",
      "outputs": [
        {
          "internalType": "string",
          "name": "",
          "type": "string"
        }
      ],
      "stateMutability": "view",
      "type": "function"
    },
    {
      "inputs": [
        {
          "internalType": "uint256",
          "name": "_tokenId",
          "type": "uint256"
        }
      ],
      "name": "tokenURI",
      "outputs": [
        {
          "internalType": "string",
          "name": "",
          "type": "string"
        }
      ],
      "stateMutability": "view",
      "type": "function"
    },
    {
      "inputs": [
        {
          "internalType": "address",
          "name": "from",
          "type": "address"
        },
        {
          "internalType": "address",
          "name": "to",
          "type": "address"
        },
        {
          "internalType": "uint256",
          "name": "tokenId",
          "type": "uint256"
        }
      ],
      "name": "transferFrom",
      "outputs": [],
      "stateMutability": "nonpayable",
      "type": "function"
    },
    {
      "inputs": [
        {
          "internalType": "address",
          "name": "newOwner",
          "type": "address"
        }
      ],
      "name": "transferOwnership",
      "outputs": [],
      "stateMutability": "nonpayable",
      "type": "function"
    }
  ],
  "bytecode": {
    "object": "0x60806040523480156200001157600080fd5b506200001d3362000035565b600b80546001600160a01b0319163017905562000087565b600a80546001600160a01b038381166001600160a01b0319831681179093556040519116919082907f8be0079c531659141344cd1fd0a4f28419497f9722a3daafe3b4186f6b6457e090600090a35050565b614ff080620000976000396000f3fe6080604052600436106102725760003560e01c806370a082311161014f578063b88d4fde116100c1578063da9ee8b71161007a578063da9ee8b714610795578063df487e26146107a8578063dfedb3af146107c8578063e8a3d485146107e8578063e985e9c5146107fd578063f2fde38b1461084657600080fd5b8063b88d4fde146106d5578063c41c2f24146106f5578063c87b56dd14610715578063ccb4807b14610735578063d3419bf314610755578063d46cf1711461077557600080fd5b8063975057e711610113578063975057e7146106065780639ab24eb014610626578063a0bcfc7f14610646578063a22cb46514610666578063a51cfd1814610686578063aa4fb15b146106b557600080fd5b806370a082311461057e578063715018a61461059e5780638da5cb5b146105b35780638e539e8c146105d157806395d89b41146105f157600080fd5b80633a46b1a8116101e8578063557e7155116101ac578063557e7155146104a2578063587cde1e146104c25780635c19a95c146104fb5780636352211e1461051b57806364640c1e1461053b5780636ac6d9411461055157600080fd5b80633a46b1a8146104165780633fafa1271461043657806342842e0e1461044c5780634ecba6251461046c57806354c6d1f51461048257600080fd5b806323b872dd1161023a57806323b872dd146103485780632407497e14610368578063245a45b5146103885780632a596e53146103c35780632b13c58f146103e357806336c1a93b146103f657600080fd5b806301ffc9a71461027757806306fdde03146102ac578063081812fc146102ce578063095ea7b314610306578063211eb00114610328575b600080fd5b34801561028357600080fd5b50610297610292366004613884565b610866565b60405190151581526020015b60405180910390f35b3480156102b857600080fd5b506102c1610891565b6040516102a391906138f1565b3480156102da57600080fd5b506102ee6102e9366004613904565b610923565b6040516001600160a01b0390911681526020016102a3565b34801561031257600080fd5b50610326610321366004613942565b61094a565b005b34801561033457600080fd5b5061032661034336600461396e565b6109d6565b34801561035457600080fd5b50610326610363366004613a36565b610bb9565b34801561037457600080fd5b50610326610383366004613a77565b610beb565b34801561039457600080fd5b506103b56103a3366004613a77565b60116020526000908152604090205481565b6040519081526020016102a3565b3480156103cf57600080fd5b506103266103de366004613b8d565b610c94565b6103266103f1366004613c60565b610cda565b34801561040257600080fd5b50610326610411366004613d0b565b610eb7565b34801561042257600080fd5b506103b5610431366004613942565b610f06565b34801561044257600080fd5b506103b560085481565b34801561045857600080fd5b50610326610467366004613a36565b610f2f565b34801561047857600080fd5b506103b560105481565b34801561048e57600080fd5b506102ee61049d366004613904565b610f4a565b3480156104ae57600080fd5b50600d546102ee906001600160a01b031681565b3480156104ce57600080fd5b506102ee6104dd366004613a77565b6001600160a01b039081166000908152602081905260409020541690565b34801561050757600080fd5b50610326610516366004613a77565b610ff6565b34801561052757600080fd5b506102ee610536366004613904565b611003565b34801561054757600080fd5b506103b5600f5481565b34801561055d57600080fd5b5061057161056c366004613e05565b611039565b6040516102a39190613e91565b34801561058a57600080fd5b506103b5610599366004613a77565b61117d565b3480156105aa57600080fd5b506103266111f3565b3480156105bf57600080fd5b50600a546001600160a01b03166102ee565b3480156105dd57600080fd5b506103b56105ec366004613904565b611207565b3480156105fd57600080fd5b506102c1611234565b34801561061257600080fd5b50600c546102ee906001600160a01b031681565b34801561063257600080fd5b506103b5610641366004613a77565b611243565b34801561065257600080fd5b50610326610661366004613f24565b611264565b34801561067257600080fd5b50610326610681366004613f71565b611313565b34801561069257600080fd5b506106a66106a1366004613c60565b611322565b6040516102a393929190613f9f565b3480156106c157600080fd5b506103266106d0366004614011565b6115e3565b3480156106e157600080fd5b506103266106f0366004614033565b611800565b34801561070157600080fd5b506009546102ee906001600160a01b031681565b34801561072157600080fd5b506102c1610730366004613904565b611833565b34801561074157600080fd5b506103266107503660046140b2565b611a8a565b34801561076157600080fd5b50600e546102ee906001600160a01b031681565b34801561078157600080fd5b506106a6610790366004614123565b611b44565b6103266107a336600461415e565b611c27565b3480156107b457600080fd5b506103266107c3366004613a77565b611ce1565b3480156107d457600080fd5b506103266107e3366004614334565b611d83565b3480156107f457600080fd5b506102c1612081565b34801561080957600080fd5b5061029761081836600461446d565b6001600160a01b03918216600090815260076020908152604080832093909416825291909152205460ff1690565b34801561085257600080fd5b50610326610861366004613a77565b6120f7565b60006001600160e01b031982166340dc1b7560e11b148061088b575061088b82612172565b92915050565b6060600380546108a09061449b565b80601f01602080910402602001604051908101604052809291908181526020018280546108cc9061449b565b80156109195780601f106108ee57610100808354040283529160200191610919565b820191906000526020600020905b8154815290600101906020018083116108fc57829003601f168201915b5050505050905090565b600061092e826121e8565b506000908152600660205260409020546001600160a01b031690565b600061095582611003565b9050806001600160a01b0316836001600160a01b0316036109895760405163133f8be960e01b815260040160405180910390fd5b336001600160a01b038216148015906109a957506109a78133610818565b155b156109c75760405163e5fa0e3560e01b815260040160405180910390fd5b6109d1838361221d565b505050565b6109de61228b565b82818015610aae57600c546040516320512ba160e01b81526001600160a01b03909116906320512ba190610a1890879087906004016144cf565b600060405180830381600087803b158015610a3257600080fd5b505af1158015610a46573d6000803e3d6000fd5b5050505060005b81811015610aac57848482818110610a6757610a67614508565b60405133815260209182029390930135927f832d89d991be5351d793c20faf4b7dd44f8aa9ce39e3cb160c6317de6fbba72992500160405180910390a2600101610a4d565b505b8115610bb157600c5460405163d0cf48a560e01b81526000916001600160a01b03169063d0cf48a590610ae7908a908a9060040161459f565b6000604051808303816000875af1158015610b06573d6000803e3d6000fd5b505050506040513d6000823e601f3d908101601f19168201604052610b2e919081019061463d565b905060005b83811015610bae57818181518110610b4d57610b4d614508565b60200260200101517f9c1ee455d7c9ab291045babfeef5ef20cea4d096dc64c4b2b29977289b4b0641898984818110610b8857610b88614508565b9050610120020133604051610b9e929190614671565b60405180910390a2600101610b33565b50505b505050505050565b610bc333826122e5565b610be05760405163e5fa0e3560e01b815260040160405180910390fd5b6109d1838383612364565b610bf361228b565b600c5460405163036129cb60e61b81526001600160a01b0383811660048301529091169063d84a72c090602401600060405180830381600087803b158015610c3a57600080fd5b505af1158015610c4e573d6000803e3d6000fd5b50506040513381526001600160a01b03841692507fe7784d93cfbfa4408e19577e6cc0436f4dbb51214b70e100905dfce9def88c1691506020015b60405180910390a250565b805160005b818110156109d1576000838281518110610cb557610cb5614508565b60200260200101519050610cd1816000015182602001516115e3565b50600101610c99565b34151580610d5c5750600954600854604051636e49181f60e01b815260048101919091523360248201526001600160a01b0390911690636e49181f90604401602060405180830381865afa158015610d36573d6000803e3d6000fd5b505050506040513d601f19601f82011682018060405250810190610d5a91906146a4565b155b80610d6d5750600854816020013514155b15610d8b57604051633efca5c360e11b815260040160405180910390fd5b6004610d9b6101c08301836146c1565b90501080610ddf575063b3bcbb7960e01b610dba6101c08301836146c1565b610dc991600491600091614707565b610dd291614731565b6001600160e01b03191614155b15610dfd57604051632a84050f60e01b815260040160405180910390fd5b6000610e0d6101c08301836146c1565b810190610e1a9190614761565b805190925090506000805b82811015610ea757838181518110610e3f57610e3f614508565b60200260200101519150846000016020810190610e5c9190613a77565b6000838152600560205260409020546001600160a01b03908116911614610e965760405163075fd2b160e01b815260040160405180910390fd5b610e9f8261243d565b600101610e25565b50610eb1836124be565b50505050565b610ebf61228b565b805160005b818110156109d1576000838281518110610ee057610ee0614508565b60200260200101519050610efc81600001518260200151611039565b5050600101610ec4565b6001600160a01b0382166000908152600160205260408120610f289083612523565b9392505050565b6109d183838360405180602001604052806000815250611800565b600c546040516308ed6c0160e41b81523060048201526024810183905260009182916001600160a01b0390911690638ed6c01090604401602060405180830381865afa158015610f9e573d6000803e3d6000fd5b505050506040513d601f19601f82011682018060405250810190610fc29190614811565b90506001600160a01b03811615610fd95792915050565b50506000908152600560205260409020546001600160a01b031690565b6110003382612632565b50565b6000818152600560205260408120546001600160a01b03168061088b5760405163b49aa3b560e01b815260040160405180910390fd5b606061104361228b565b600c5460405163eaa19ab360e01b81526001600160a01b039091169063eaa19ab39061107a9060001990879060019060040161482e565b6000604051808303816000875af1158015611099573d6000803e3d6000fd5b505050506040513d6000823e601f3d908101601f191682016040526110c1919081019061488b565b509050600080805b82811015611174578381815181106110e3576110e3614508565b602002602001015191506110f785836126a4565b846001600160a01b031686828151811061111357611113614508565b602002602001015161ffff16837f598baf7bf150ca2f42be9e9f8f55e81d45f5715c3ff22bf46d697fabec7f31d66000336040516111649291909182526001600160a01b0316602082015260400190565b60405180910390a46001016110c9565b50505092915050565b600c54604051633de222bb60e21b81523060048201526001600160a01b038381166024830152600092169063f7888aec906044015b602060405180830381865afa1580156111cf573d6000803e3d6000fd5b505050506040513d601f19601f8201168201806040525081019061088b91906148d1565b6111fb61228b565b611205600061276e565b565b6000438210611229576040516305b5e09b60e51b815260040160405180910390fd5b61088b600283612523565b6060600480546108a09061449b565b6001600160a01b038116600090815260016020526040812061088b906127c0565b61126c61228b565b600c546040516331315e5960e11b81526001600160a01b0390911690636262bcb29061129c9084906004016138f1565b600060405180830381600087803b1580156112b657600080fd5b505af11580156112ca573d6000803e3d6000fd5b50505050806040516112dc91906148ea565b604051908190038120338252907f7bc9110d5de090dd59e07912d2b93a5a27ac70a60c8d8e324db4f9ee8b8b5c1390602001610c89565b61131e33838361281c565b5050565b600060608060808401351561134a576040516309f82f1b60e31b815260040160405180910390fd5b600461135a6101c08601866146c1565b9050108061139e575063b3bcbb7960e01b6113796101c08601866146c1565b61138891600491600091614707565b61139191614731565b6001600160e01b03191614155b156113bc57604051632a84050f60e01b815260040160405180910390fd5b60408051600180825281830190925290816020015b60408051808201909152600080825260208201528152602001906001900390816113d15790505090506040518060400160405280306001600160a01b0316815260200160008152508160008151811061142c5761142c614508565b602002602001018190525083610180013560000361149c5760006114546101a08601866146c1565b8382828080601f0160208091040260200160405190810160405280939291908181526020018383808284376000920191909152509699509197509195506115dc945050505050565b60006114ac6101c08601866146c1565b8101906114b99190614761565b91505060006114c7826128bb565b905060006114d36128ee565b905060006114e68860c00135848461295b565b90506127108861018001350361155157806115056101a08a018a6146c1565b8782828080601f016020809104026020016040519081016040528093929190818152602001838380828437600092019190915250969d50919b509199506115dc98505050505050505050565b611587816115708561156a6101808d013561271061491c565b8661295b565b61157f906101808c013561492f565b61271061295b565b6115956101a08a018a6146c1565b8782828080601f016020809104026020016040519081016040528093929190818152602001838380828437600092019190915250969d50919b509199505050505050505050505b9193909250565b600d546008546040516321d1336160e11b815260048101919091526000916001600160a01b0316906343a266c29060240161012060405180830381865afa158015611632573d6000803e3d6000fd5b505050506040513d601f19601f820116820180604052508101906116569190614942565b61010081015190915060f51c60019081160361168557604051631d2c125760e31b815260040160405180910390fd5b600c54604051635d53f40760e11b815260048101859052602481018490526000916001600160a01b03169063baa7e80e906044016000604051808303816000875af11580156116d8573d6000803e3d6000fd5b505050506040513d6000823e601f3d908101601f19168201604052611700919081019061463d565b600c546040516304db994760e21b8152306004820152602481018790529192506000916001600160a01b039091169063136e651c90604401602060405180830381865afa158015611755573d6000803e3d6000fd5b505050506040513d601f19601f820116820180604052508101906117799190614811565b90506000805b858110156117f75783818151811061179957611799614508565b602002602001015191506117ad83836126a4565b6040513381526001600160a01b03841690889084907f031e1988c95a91ec4d655ff63a8f87a80bc9daf28d95ae10ee08c0022cfb5c8b9060200160405180910390a460010161177f565b50505050505050565b61180a33836122e5565b6118275760405163e5fa0e3560e01b815260040160405180910390fd5b610eb184848484612a27565b6000818152600560205260409020546060906001600160a01b031661186657505060408051602081019091526000815290565b600c54604051630fab094760e01b81523060048201526000916001600160a01b031690630fab094790602401602060405180830381865afa1580156118af573d6000803e3d6000fd5b505050506040513d601f19601f820116820180604052508101906118d39190614811565b90506001600160a01b0381161561195157604051636d02a25560e11b8152600481018490526001600160a01b0382169063da0544aa90602401600060405180830381865afa158015611929573d6000803e3d6000fd5b505050506040513d6000823e601f3d908101601f19168201604052610f2891908101906149c2565b600c5460405163f682eeaf60e01b815230600482015273__$2e464bbf4a8803569df10b07372aceee57$__9163030cecc7916001600160a01b039091169063f682eeaf90602401600060405180830381865afa1580156119b5573d6000803e3d6000fd5b505050506040513d6000823e601f3d908101601f191682016040526119dd91908101906149c2565b600c54604051630c8df17160e41b8152306004820152602481018890526001600160a01b039091169063c8df171090604401602060405180830381865afa158015611a2c573d6000803e3d6000fd5b505050506040513d601f19601f82011682018060405250810190611a5091906148d1565b6040518363ffffffff1660e01b8152600401611a6d929190614a38565b600060405180830381865af4158015611929573d6000803e3d6000fd5b611a9261228b565b600c5460405163d67b78fd60e01b81526001600160a01b039091169063d67b78fd90611ac49085908590600401614a5a565b600060405180830381600087803b158015611ade57600080fd5b505af1158015611af2573d6000803e3d6000fd5b505050508181604051611b06929190614a89565b604051908190038120338252907fd36dc0c1a06103fdcaf15f3f6fb797d1a97997514c78de073640c8b5005454b89060200160405180910390a25050565b610120810135606080611b5b6101608501856146c1565b8080601f01602080910402602001604051908101604052809392919081815260200183838082843760009201919091525092945060019250611b9b915050565b604051908082528060200260200182016040528015611be057816020015b6040805180820190915260008082526020820152815260200190600190039081611bb95790505b5090506040518060400160405280306001600160a01b03168152602001600081525081600081518110611c1557611c15614508565b60200260200101819052509193909250565b34151580611ca95750600954600854604051636e49181f60e01b815260048101919091523360248201526001600160a01b0390911690636e49181f90604401602060405180830381865afa158015611c83573d6000803e3d6000fd5b505050506040513d601f19601f82011682018060405250810190611ca791906146a4565b155b80611cba5750600854816020013514155b15611cd8576040516331c57b1b60e21b815260040160405180910390fd5b61100081612a5b565b611ce961228b565b600c546040516317161f7d60e01b81526001600160a01b038381166004830152909116906317161f7d90602401600060405180830381600087803b158015611d3057600080fd5b505af1158015611d44573d6000803e3d6000fd5b50506040513381526001600160a01b03841692507fab0014d4c7a642a02a31b303a318908c22b0fb2001f107278fc6076b4c671b659150602001610c89565b600b546001600160a01b03163003611d9a57600080fd5b600c546001600160a01b031615611db057600080fd5b611dbc8b8b8b8b612d0e565b600d80546001600160a01b03808a166001600160a01b031992831617909255600c80548584169083161790556020850151600f5560408501516010556060850151600e8054919093169116179055855115611e70576040516331315e5960e11b81526001600160a01b03831690636262bcb290611e3d9089906004016138f1565b600060405180830381600087803b158015611e5757600080fd5b505af1158015611e6b573d6000803e3d6000fd5b505050505b835115611ed65760405163d67b78fd60e01b81526001600160a01b0383169063d67b78fd90611ea39087906004016138f1565b600060405180830381600087803b158015611ebd57600080fd5b505af1158015611ed1573d6000803e3d6000fd5b505050505b6001600160a01b03851615611f415760405163036129cb60e61b81526001600160a01b03868116600483015283169063d84a72c090602401600060405180830381600087803b158015611f2857600080fd5b505af1158015611f3c573d6000803e3d6000fd5b505050505b82515115611fbf57825160405163d0cf48a560e01b81526001600160a01b0384169163d0cf48a591611f769190600401614a99565b6000604051808303816000875af1158015611f95573d6000803e3d6000fd5b505050506040513d6000823e601f3d908101601f19168201604052611fbd919081019061463d565b505b805180611fcd575080602001515b80611fd9575080604001515b80611fe5575080606001515b1561206b57604080516365c13f1960e11b815282511515600482015260208301511515602482015290820151151560448201526060820151151560648201526001600160a01b0383169063cb827e3290608401600060405180830381600087803b15801561205257600080fd5b505af1158015612066573d6000803e3d6000fd5b505050505b6120743361276e565b5050505050505050505050565b600c54604051630155619b60e71b81523060048201526060916001600160a01b03169063aab0cd8090602401600060405180830381865afa1580156120ca573d6000803e3d6000fd5b505050506040513d6000823e601f3d908101601f191682016040526120f291908101906149c2565b905090565b6120ff61228b565b6001600160a01b0381166121695760405162461bcd60e51b815260206004820152602660248201527f4f776e61626c653a206e6577206f776e657220697320746865207a65726f206160448201526564647265737360d01b60648201526084015b60405180910390fd5b6110008161276e565b60006001600160e01b0319821663b3bcbb7960e01b14806121a357506001600160e01b031982166371700c6960e01b145b806121be57506001600160e01b0319821663da9ee8b760e01b145b806121d957506001600160e01b03198216632b13c58f60e01b145b8061088b575061088b82612d41565b6000818152600560205260409020546001600160a01b03166110005760405163b49aa3b560e01b815260040160405180910390fd5b600081815260066020526040902080546001600160a01b0319166001600160a01b038416908117909155819061225282611003565b6001600160a01b03167f8c5be1e5ebec7d5bd14f71427d1e84f3dd0314c0f7b2291e5b200ac8c7c3b92560405160405180910390a45050565b600a546001600160a01b031633146112055760405162461bcd60e51b815260206004820181905260248201527f4f776e61626c653a2063616c6c6572206973206e6f7420746865206f776e65726044820152606401612160565b6000806122f183611003565b9050806001600160a01b0316846001600160a01b0316148061233857506001600160a01b0380821660009081526007602090815260408083209388168352929052205460ff165b8061235c5750836001600160a01b031661235184610923565b6001600160a01b0316145b949350505050565b826001600160a01b031661237782611003565b6001600160a01b03161461239e5760405163a195bc5360e01b815260040160405180910390fd5b6001600160a01b0382166123c557604051632c95542760e01b815260040160405180910390fd5b6123d0838383612d91565b6123db60008261221d565b60008181526005602052604080822080546001600160a01b0319166001600160a01b0386811691821790925591518493918716917fddf252ad1be2c89b69c2b068fc378daa952ba7f163c4a11628f55a4df523b3ef91a46109d1838383612fb1565b600061244882611003565b905061245681600084612d91565b61246160008361221d565b60008281526005602052604080822080546001600160a01b0319169055518391906001600160a01b038416907fddf252ad1be2c89b69c2b068fc378daa952ba7f163c4a11628f55a4df523b3ef908390a461131e81600084612fb1565b600c546040516386bc2be360e01b81526001600160a01b03909116906386bc2be3906124ee908490600401613e91565b600060405180830381600087803b15801561250857600080fd5b505af115801561251c573d6000803e3d6000fd5b5050505050565b60004382106125745760405162461bcd60e51b815260206004820181905260248201527f436865636b706f696e74733a20626c6f636b206e6f7420796574206d696e65646044820152606401612160565b825460005b818110156125d957600061258d82846130aa565b9050848660000182815481106125a5576125a5614508565b60009182526020909120015463ffffffff1611156125c5578092506125d3565b6125d081600161492f565b91505b50612579565b811561261d57846125eb60018461491c565b815481106125fb576125fb614508565b60009182526020909120015464010000000090046001600160e01b0316612620565b60005b6001600160e01b031695945050505050565b6001600160a01b0382811660008181526020819052604080822080548686166001600160a01b0319821681179092559151919094169392849290917f3134e8a2e6d97e929a7e54011ea5485d7d196dd5f0ba4d4ef95803e8e3fc257f9190a46109d1818361269f866130c5565b6130fe565b6001600160a01b0382166126cb57604051633904578f60e11b815260040160405180910390fd5b6000818152600560205260409020546001600160a01b03161561270157604051632eb5f0c360e21b815260040160405180910390fd5b61270d60008383612d91565b60008181526005602052604080822080546001600160a01b0319166001600160a01b03861690811790915590518392907fddf252ad1be2c89b69c2b068fc378daa952ba7f163c4a11628f55a4df523b3ef908290a461131e60008383612fb1565b600a80546001600160a01b038381166001600160a01b0319831681179093556040519116919082907f8be0079c531659141344cd1fd0a4f28419497f9722a3daafe3b4186f6b6457e090600090a35050565b8054600090801561280957826127d760018361491c565b815481106127e7576127e7614508565b60009182526020909120015464010000000090046001600160e01b031661280c565b60005b6001600160e01b03169392505050565b816001600160a01b0316836001600160a01b03160361284e576040516306f8139d60e11b815260040160405180910390fd5b6001600160a01b03838116600081815260076020908152604080832094871680845294825291829020805460ff191686151590811790915591519182527f17307eab39ab6107e8899845ad3d59bd9653f200f220920489ca2b5937696c31910160405180910390a3505050565b600c5460405163051330b560e21b81526000916001600160a01b03169063144cc2d4906111b29030908690600401614b3e565b600c54604051631572f24960e11b81523060048201526000916001600160a01b031690632ae5e49290602401602060405180830381865afa158015612937573d6000803e3d6000fd5b505050506040513d601f19601f820116820180604052508101906120f291906148d1565b60008080600019858709858702925082811083820303915050806000036129955783828161298b5761298b614b62565b0492505050610f28565b8381106129bf57604051631dcf306360e21b81526004810182905260248101859052604401612160565b600084868809600260036001881981018916988990049182028318808302840302808302840302808302840302808302840302808302840302918202909203026000889003889004909101858311909403939093029303949094049190911702949350505050565b612a32848484612364565b612a3e8484848461323b565b610eb1576040516336f57c1b60e11b815260040160405180910390fd5b600f5460009060c083013503612a7657506080810135612b2c565b600e546001600160a01b03161561131e57601054612b2990608084013590612a9f90600a614c5c565b600e54600f54604051635268657960e11b815260c08801356004820152602481019190915260a087013560448201526001600160a01b039091169063a4d0caf290606401602060405180830381865afa158015612b00573d6000803e3d6000fd5b505050506040513d601f19601f82011682018060405250810190612b2491906148d1565b61295b565b90505b6000601181612b436101a086016101808701613a77565b6001600160a01b0316815260208101919091526040016000908120549150612b6b828461492f565b90506000806024612b806101e08801886146c1565b9050118015612bc4575063b3bcbb7960e01b612ba06101e08801886146c1565b612baf91602491602091614707565b612bb891614731565b6001600160e01b031916145b15612c2e5760006060612bdb6101e08901896146c1565b810190612be89190614c68565b919850965090945092505082159050612c05575050505050505050565b805115612c2b57612c288582612c236101a08c016101808d01613a77565b61333d565b94505b50505b8215612ccf57612c5083612c4a6101a089016101808a01613a77565b8461347f565b92508215612cad578015612c7757604051631b57826960e21b815260040160405180910390fd5b8260116000612c8e6101a08a016101808b01613a77565b6001600160a01b03168152602081019190915260400160002055610bb1565b8315612cca576000601181612c8e6101a08a016101808b01613a77565b610bb1565b8315610bb1576000601181612cec6101a08a016101808b01613a77565b6001600160a01b03168152602081019190915260400160002055505050505050565b612d188282613589565b5050600891909155600980546001600160a01b0319166001600160a01b03909216919091179055565b60006001600160e01b031982166380ac58cd60e01b1480612d7257506001600160e01b03198216635b5e139f60e01b145b8061088b57506301ffc9a760e01b6001600160e01b031983161461088b565b6001600160a01b038316156109d157600c54604051634228826f60e11b81523060048201526001600160a01b039091169063845104de90602401608060405180830381865afa158015612de8573d6000803e3d6000fd5b505050506040513d601f19601f82011682018060405250810190612e0c9190614cf7565b6060015115612ecd57600d546008546040516321d1336160e11b815260048101919091526000916001600160a01b0316906343a266c29060240161012060405180830381865afa158015612e64573d6000803e3d6000fd5b505050506040513d601f19601f82011682018060405250810190612e889190614942565b90506001600160a01b03831615801590612ead575061010081015160f41c6001908116145b15612ecb576040516318cdaf9760e01b815260040160405180910390fd5b505b600c546040516308ed6c0160e41b8152306004820152602481018390526000916001600160a01b031690638ed6c01090604401602060405180830381865afa158015612f1d573d6000803e3d6000fd5b505050506040513d601f19601f82011682018060405250810190612f419190614811565b6001600160a01b0316036109d157600c54604051638cec7d3960e01b8152600481018390526001600160a01b03858116602483015290911690638cec7d3990604401600060405180830381600087803b158015612f9d57600080fd5b505af11580156117f7573d6000803e3d6000fd5b600c5460405163b67cb04760e01b8152306004820152602481018390526000916001600160a01b03169063b67cb0479060440161014060405180830381865afa158015613002573d6000803e3d6000fd5b505050506040513d601f19601f820116820180604052508101906130269190614d7b565b600c5481516040516330b157e560e21b815260048101919091526001600160a01b038781166024830152868116604483015292935091169063c2c55f9490606401600060405180830381600087803b15801561308157600080fd5b505af1158015613095573d6000803e3d6000fd5b505050506130a5848484846135a2565b610eb1565b60006130b96002848418614e0b565b610f289084841661492f565b600c54604051631266aaaf60e31b81523060048201526001600160a01b03838116602483015260009216906393355578906044016111b2565b816001600160a01b0316836001600160a01b0316141580156131205750600081115b156109d1576001600160a01b038316156131ae576001600160a01b0383166000908152600160205260408120819061315b906135bb856135c7565b91509150846001600160a01b03167fdec2bacdd2f05b59de34da9b523dff8be42e5e38e818c82fdb0bae774387a72483836040516131a3929190918252602082015260400190565b60405180910390a250505b6001600160a01b038216156109d1576001600160a01b038216600090815260016020526040812081906131e4906135f5856135c7565b91509150836001600160a01b03167fdec2bacdd2f05b59de34da9b523dff8be42e5e38e818c82fdb0bae774387a724838360405161322c929190918252602082015260400190565b60405180910390a25050505050565b60006001600160a01b0384163b1561333257604051630a85bd0160e11b81526001600160a01b0385169063150b7a029061327f903390899088908890600401614e2d565b6020604051808303816000875af19250505080156132ba575060408051601f3d908101601f191682019092526132b791810190614e6a565b60015b613318573d8080156132e8576040519150601f19603f3d011682016040523d82523d6000602084013e6132ed565b606091505b508051600003613310576040516336f57c1b60e11b815260040160405180910390fd5b805181602001fd5b6001600160e01b031916630a85bd0160e11b14905061235c565b506001949350505050565b600c5460405163eaa19ab360e01b81526000916060916001600160a01b039091169063eaa19ab3906133779088908890879060040161482e565b6000604051808303816000875af1158015613396573d6000803e3d6000fd5b505050506040513d6000823e601f3d908101601f191682016040526133be919081019061488b565b81519093509091506000805b82811015613474578381815181106133e4576133e4614508565b602002602001015191506133f886836126a4565b856001600160a01b031687828151811061341457613414614508565b602002602001015161ffff16837f598baf7bf150ca2f42be9e9f8f55e81d45f5715c3ff22bf46d697fabec7f31d68b336040516134649291909182526001600160a01b0316602082015260400190565b60405180910390a46001016133ca565b505050509392505050565b600c5460405163879791f360e01b815260048101859052600091829182916001600160a01b03169063879791f3906024016060604051808303816000875af11580156134cf573d6000803e3d6000fd5b505050506040513d601f19601f820116820180604052508101906134f39190614e87565b94509092509050600082900361352957831561352257604051630e5313df60e41b815260040160405180910390fd5b5050610f28565b61353385836126a4565b6001600160a01b03851681837f598baf7bf150ca2f42be9e9f8f55e81d45f5715c3ff22bf46d697fabec7f31d661356a878b61491c565b604080519182523360208301520160405180910390a450509392505050565b60036135958382614efb565b5060046109d18282614efb565b60a081015115610eb157610eb184848360a00151613601565b6000610f28828461491c565b6000806135e9856135e46135da886127c0565b868863ffffffff16565b613671565b91509150935093915050565b6000610f28828461492f565b6001600160a01b0383166136205761361d60026135f5836135c7565b50505b6001600160a01b03821661363f5761363c60026135bb836135c7565b50505b6001600160a01b038381166000908152602081905260408082205485841683529120546109d1929182169116836130fe565b8154600090819081613682866127c0565b90506000821180156136c05750438661369c60018561491c565b815481106136ac576136ac614508565b60009182526020909120015463ffffffff16145b15613720576136ce8561379c565b866136da60018561491c565b815481106136ea576136ea614508565b9060005260206000200160000160046101000a8154816001600160e01b0302191690836001600160e01b0316021790555061378e565b85600001604051806040016040528061373843613809565b63ffffffff16815260200161374c8861379c565b6001600160e01b0390811690915282546001810184556000938452602093849020835194909301519091166401000000000263ffffffff909316929092179101555b9250839150505b9250929050565b60006001600160e01b038211156138055760405162461bcd60e51b815260206004820152602760248201527f53616665436173743a2076616c756520646f65736e27742066697420696e20326044820152663234206269747360c81b6064820152608401612160565b5090565b600063ffffffff8211156138055760405162461bcd60e51b815260206004820152602660248201527f53616665436173743a2076616c756520646f65736e27742066697420696e203360448201526532206269747360d01b6064820152608401612160565b6001600160e01b03198116811461100057600080fd5b60006020828403121561389657600080fd5b8135610f288161386e565b60005b838110156138bc5781810151838201526020016138a4565b50506000910152565b600081518084526138dd8160208601602086016138a1565b601f01601f19169290920160200192915050565b602081526000610f2860208301846138c5565b60006020828403121561391657600080fd5b5035919050565b6001600160a01b038116811461100057600080fd5b803561393d8161391d565b919050565b6000806040838503121561395557600080fd5b82356139608161391d565b946020939093013593505050565b6000806000806040858703121561398457600080fd5b84356001600160401b038082111561399b57600080fd5b818701915087601f8301126139af57600080fd5b8135818111156139be57600080fd5b886020610120830285010111156139d457600080fd5b6020928301965094509086013590808211156139ef57600080fd5b818701915087601f830112613a0357600080fd5b813581811115613a1257600080fd5b8860208260051b8501011115613a2757600080fd5b95989497505060200194505050565b600080600060608486031215613a4b57600080fd5b8335613a568161391d565b92506020840135613a668161391d565b929592945050506040919091013590565b600060208284031215613a8957600080fd5b8135610f288161391d565b634e487b7160e01b600052604160045260246000fd5b604080519081016001600160401b0381118282101715613acc57613acc613a94565b60405290565b604051608081016001600160401b0381118282101715613acc57613acc613a94565b60405161012081016001600160401b0381118282101715613acc57613acc613a94565b60405161014081016001600160401b0381118282101715613acc57613acc613a94565b604051601f8201601f191681016001600160401b0381118282101715613b6257613b62613a94565b604052919050565b60006001600160401b03821115613b8357613b83613a94565b5060051b60200190565b60006020808385031215613ba057600080fd5b82356001600160401b03811115613bb657600080fd5b8301601f81018513613bc757600080fd5b8035613bda613bd582613b6a565b613b3a565b81815260069190911b82018301908381019087831115613bf957600080fd5b928401925b82841015613c3c5760408489031215613c175760008081fd5b613c1f613aaa565b843581528585013586820152825260409093019290840190613bfe565b979650505050505050565b60006101e08284031215613c5a57600080fd5b50919050565b600060208284031215613c7257600080fd5b81356001600160401b03811115613c8857600080fd5b61235c84828501613c47565b600082601f830112613ca557600080fd5b81356020613cb5613bd583613b6a565b82815260059290921b84018101918181019086841115613cd457600080fd5b8286015b84811015613d0057803561ffff81168114613cf35760008081fd5b8352918301918301613cd8565b509695505050505050565b60006020808385031215613d1e57600080fd5b82356001600160401b0380821115613d3557600080fd5b818501915085601f830112613d4957600080fd5b8135613d57613bd582613b6a565b81815260059190911b83018401908481019088831115613d7657600080fd5b8585015b83811015613df857803585811115613d925760008081fd5b86016040818c03601f1901811315613daa5760008081fd5b613db2613aaa565b8983013588811115613dc45760008081fd5b613dd28e8c83870101613c94565b8252509181013591613de38361391d565b808a0192909252508352918601918601613d7a565b5098975050505050505050565b60008060408385031215613e1857600080fd5b82356001600160401b03811115613e2e57600080fd5b613e3a85828601613c94565b9250506020830135613e4b8161391d565b809150509250929050565b600081518084526020808501945080840160005b83811015613e8657815187529582019590820190600101613e6a565b509495945050505050565b602081526000610f286020830184613e56565b60006001600160401b03821115613ebd57613ebd613a94565b50601f01601f191660200190565b6000613ed9613bd584613ea4565b9050828152838383011115613eed57600080fd5b828260208301376000602084830101529392505050565b600082601f830112613f1557600080fd5b610f2883833560208501613ecb565b600060208284031215613f3657600080fd5b81356001600160401b03811115613f4c57600080fd5b61235c84828501613f04565b801515811461100057600080fd5b803561393d81613f58565b60008060408385031215613f8457600080fd5b8235613f8f8161391d565b91506020830135613e4b81613f58565b83815260006020606081840152613fb960608401866138c5565b83810360408581019190915285518083528387019284019060005b8181101561400257845180516001600160a01b03168452860151868401529385019391830191600101613fd4565b50909998505050505050505050565b6000806040838503121561402457600080fd5b50508035926020909101359150565b6000806000806080858703121561404957600080fd5b84356140548161391d565b935060208501356140648161391d565b92506040850135915060608501356001600160401b0381111561408657600080fd5b8501601f8101871361409757600080fd5b6140a687823560208401613ecb565b91505092959194509250565b600080602083850312156140c557600080fd5b82356001600160401b03808211156140dc57600080fd5b818501915085601f8301126140f057600080fd5b8135818111156140ff57600080fd5b86602082850101111561411157600080fd5b60209290920196919550909350505050565b60006020828403121561413557600080fd5b81356001600160401b0381111561414b57600080fd5b82016101a08185031215610f2857600080fd5b60006020828403121561417057600080fd5b81356001600160401b0381111561418657600080fd5b82016102008185031215610f2857600080fd5b600060808083850312156141ac57600080fd5b6141b4613ad2565b915082356001600160401b038111156141cc57600080fd5b8301601f810185136141dd57600080fd5b803560206141ed613bd583613b6a565b828152610120928302840182019282820191908985111561420d57600080fd5b948301945b848610156142a75780868b03121561422a5760008081fd5b614232613af4565b8635815284870135858201526040808801359082015260608088013590820152878701358882015260a0614267818901613932565b9082015260c0878101359082015260e0614282818901613f66565b90820152610100614294888201613f66565b9082015283529485019491830191614212565b508652508581013590850152505050604080830135908201526142cc60608301613932565b606082015292915050565b6000608082840312156142e957600080fd5b6142f1613ad2565b905081356142fe81613f58565b8152602082013561430e81613f58565b6020820152604082013561432181613f58565b604082015260608201356142cc81613f58565b60008060008060008060008060008060006101c08c8e03121561435657600080fd5b8b359a5061436660208d01613932565b99506001600160401b038060408e0135111561438157600080fd5b6143918e60408f01358f01613f04565b99508060608e013511156143a457600080fd5b6143b48e60608f01358f01613f04565b98506143c260808e01613932565b97508060a08e013511156143d557600080fd5b6143e58e60a08f01358f01613f04565b96506143f360c08e01613932565b95508060e08e0135111561440657600080fd5b6144168e60e08f01358f01613f04565b9450806101008e0135111561442a57600080fd5b5061443c8d6101008e01358e01614199565b925061444b6101208d01613932565b915061445b8d6101408e016142d7565b90509295989b509295989b9093969950565b6000806040838503121561448057600080fd5b823561448b8161391d565b91506020830135613e4b8161391d565b600181811c908216806144af57607f821691505b602082108103613c5a57634e487b7160e01b600052602260045260246000fd5b6020808252810182905260006001600160fb1b038311156144ef57600080fd5b8260051b80856040850137919091016040019392505050565b634e487b7160e01b600052603260045260246000fd5b803582526020810135602083015260408101356040830152606081013560608301526080810135608083015260a08101356145588161391d565b6001600160a01b031660a083015260c0818101359083015260e081013561457e81613f58565b151560e0830152610100614593828201613f66565b80151584830152610eb1565b6020808252810182905260008360408301825b858110156145d8576145c4828461451e565b6101209283019291909101906001016145b2565b5095945050505050565b600082601f8301126145f357600080fd5b81516020614603613bd583613b6a565b82815260059290921b8401810191818101908684111561462257600080fd5b8286015b84811015613d005780518352918301918301614626565b60006020828403121561464f57600080fd5b81516001600160401b0381111561466557600080fd5b61235c848285016145e2565b6101408101614680828561451e565b6001600160a01b03929092166101209190910152919050565b805161393d81613f58565b6000602082840312156146b657600080fd5b8151610f2881613f58565b6000808335601e198436030181126146d857600080fd5b8301803591506001600160401b038211156146f257600080fd5b60200191503681900382131561379557600080fd5b6000808585111561471757600080fd5b8386111561472457600080fd5b5050820193919092039150565b6001600160e01b031981358181169160048510156147595780818660040360031b1b83161692505b505092915050565b6000806040838503121561477457600080fd5b823561477f8161386e565b91506020838101356001600160401b0381111561479b57600080fd5b8401601f810186136147ac57600080fd5b80356147ba613bd582613b6a565b81815260059190911b820183019083810190888311156147d957600080fd5b928401925b828410156147f7578335825292840192908401906147de565b80955050505050509250929050565b805161393d8161391d565b60006020828403121561482357600080fd5b8151610f288161391d565b6000606082018583526020606081850152818651808452608086019150828801935060005b8181101561487357845161ffff1683529383019391830191600101614853565b50508093505050508215156040830152949350505050565b6000806040838503121561489e57600080fd5b82516001600160401b038111156148b457600080fd5b6148c0858286016145e2565b925050602083015190509250929050565b6000602082840312156148e357600080fd5b5051919050565b600082516148fc8184602087016138a1565b9190910192915050565b634e487b7160e01b600052601160045260246000fd5b8181038181111561088b5761088b614906565b8082018082111561088b5761088b614906565b6000610120828403121561495557600080fd5b61495d613af4565b825181526020830151602082015260408301516040820152606083015160608201526080830151608082015260a083015160a082015260c083015160c08201526149a960e08401614806565b60e0820152610100928301519281019290925250919050565b6000602082840312156149d457600080fd5b81516001600160401b038111156149ea57600080fd5b8201601f810184136149fb57600080fd5b8051614a09613bd582613ea4565b818152856020838501011115614a1e57600080fd5b614a2f8260208301602086016138a1565b95945050505050565b604081526000614a4b60408301856138c5565b90508260208301529392505050565b60208152816020820152818360408301376000818301604090810191909152601f909201601f19160101919050565b8183823760009101908152919050565b602080825282518282018190526000919060409081850190868401855b82811015614b315781518051855286810151878601528581015186860152606080820151908601526080808201519086015260a0808201516001600160a01b03169086015260c0808201519086015260e080820151151590860152610100908101511515908501526101209093019290850190600101614ab6565b5091979650505050505050565b6001600160a01b038316815260406020820181905260009061235c90830184613e56565b634e487b7160e01b600052601260045260246000fd5b600181815b80851115614bb3578160001904821115614b9957614b99614906565b80851615614ba657918102915b93841c9390800290614b7d565b509250929050565b600082614bca5750600161088b565b81614bd75750600061088b565b8160018114614bed5760028114614bf757614c13565b600191505061088b565b60ff841115614c0857614c08614906565b50506001821b61088b565b5060208310610133831016604e8410600b8410161715614c36575081810a61088b565b614c408383614b78565b8060001904821115614c5457614c54614906565b029392505050565b6000610f288383614bbb565b60008060008060008060c08789031215614c8157600080fd5b863595506020870135614c938161386e565b94506040870135614ca381613f58565b93506060870135614cb381613f58565b92506080870135614cc381613f58565b915060a08701356001600160401b03811115614cde57600080fd5b614cea89828a01613c94565b9150509295509295509295565b600060808284031215614d0957600080fd5b604051608081018181106001600160401b0382111715614d2b57614d2b613a94565b6040528251614d3981613f58565b81526020830151614d4981613f58565b60208201526040830151614d5c81613f58565b60408201526060830151614d6f81613f58565b60608201529392505050565b60006101408284031215614d8e57600080fd5b614d96613b17565b825181526020830151602082015260408301516040820152606083015160608201526080830151608082015260a083015160a082015260c083015160c0820152614de260e08401614806565b60e08201526101008381015190820152610120614e00818501614699565b908201529392505050565b600082614e2857634e487b7160e01b600052601260045260246000fd5b500490565b6001600160a01b0385811682528416602082015260408101839052608060608201819052600090614e60908301846138c5565b9695505050505050565b600060208284031215614e7c57600080fd5b8151610f288161386e565b600080600060608486031215614e9c57600080fd5b8351925060208401519150604084015190509250925092565b601f8211156109d157600081815260208120601f850160051c81016020861015614edc5750805b601f850160051c820191505b81811015610bb157828155600101614ee8565b81516001600160401b03811115614f1457614f14613a94565b614f2881614f22845461449b565b84614eb5565b602080601f831160018114614f5d5760008415614f455750858301515b600019600386901b1c1916600185901b178555610bb1565b600085815260208120601f198616915b82811015614f8c57888601518255948401946001909101908401614f6d565b5085821015614faa5787850151600019600388901b60f8161c191681555b5050505050600190811b0190555056fea26469706673582212209e09e30ac1c82f40d247ab57292996e617d7bf1986ef6ab146bdd5fafab9634764736f6c63430008100033",
    "linkReferences": {
      "contracts/libraries/JBIpfsDecoder.sol": {
        "JBIpfsDecoder": [
          {
            "start": 6656,
            "length": 20
          }
        ]
      }
    }
  },
  "methodIdentifiers": {
    "adjustTiers((uint256,uint256,uint256,uint256,uint256,address,bytes32,bool,bool)[],uint256[])": "211eb001",
    "approve(address,uint256)": "095ea7b3",
    "balanceOf(address)": "70a08231",
    "contractURI()": "e8a3d485",
    "creditsOf(address)": "245a45b5",
    "delegate(address)": "5c19a95c",
    "delegates(address)": "587cde1e",
    "didPay((address,uint256,uint256,(address,uint256,uint256,uint256),(address,uint256,uint256,uint256),uint256,address,bool,string,bytes))": "da9ee8b7",
    "didRedeem((address,uint256,uint256,uint256,(address,uint256,uint256,uint256),(address,uint256,uint256,uint256),address,string,bytes))": "2b13c58f",
    "directory()": "c41c2f24",
    "firstOwnerOf(uint256)": "54c6d1f5",
    "fundingCycleStore()": "557e7155",
    "getApproved(uint256)": "081812fc",
    "getPastTotalSupply(uint256)": "8e539e8c",
    "getPastVotes(address,uint256)": "3a46b1a8",
    "getVotes(address)": "9ab24eb0",
    "initialize(uint256,address,string,string,address,string,address,string,((uint256,uint256,uint256,uint256,uint256,address,bytes32,bool,bool)[],uint256,uint256,address),address,(bool,bool,bool,bool))": "dfedb3af",
    "isApprovedForAll(address,address)": "e985e9c5",
    "mintFor((uint16[],address)[])": "36c1a93b",
    "mintFor(uint16[],address)": "6ac6d941",
    "mintReservesFor((uint256,uint256)[])": "2a596e53",
    "mintReservesFor(uint256,uint256)": "aa4fb15b",
    "name()": "06fdde03",
    "owner()": "8da5cb5b",
    "ownerOf(uint256)": "6352211e",
    "payParams((address,address,(address,uint256,uint256,uint256),uint256,uint256,address,uint256,uint256,string,bytes))": "d46cf171",
    "prices()": "d3419bf3",
    "pricingCurrency()": "64640c1e",
    "pricingDecimals()": "4ecba625",
    "projectId()": "3fafa127",
    "redeemParams((address,address,uint256,uint256,uint256,uint256,uint256,(address,uint256,uint256,uint256),bool,uint256,string,bytes))": "a51cfd18",
    "renounceOwnership()": "715018a6",
    "safeTransferFrom(address,address,uint256)": "42842e0e",
    "safeTransferFrom(address,address,uint256,bytes)": "b88d4fde",
    "setApprovalForAll(address,bool)": "a22cb465",
    "setBaseUri(string)": "a0bcfc7f",
    "setContractUri(string)": "ccb4807b",
    "setDefaultReservedTokenBeneficiary(address)": "df487e26",
    "setTokenUriResolver(address)": "2407497e",
    "store()": "975057e7",
    "supportsInterface(bytes4)": "01ffc9a7",
    "symbol()": "95d89b41",
    "tokenURI(uint256)": "c87b56dd",
    "transferFrom(address,address,uint256)": "23b872dd",
    "transferOwnership(address)": "f2fde38b"
  },
  "id": 0
}