{
  "abi": [
    {
      "inputs": [
        {
          "internalType": "contract IJBProjects",
          "name": "_projects",
          "type": "address"
        },
        {
          "internalType": "contract IJBOperatorStore",
          "name": "_operatorStore",
          "type": "address"
        }
      ],
      "stateMutability": "nonpayable",
      "type": "constructor"
    },
    {
      "inputs": [],
      "name": "ALEADY_MINTED",
      "type": "error"
    },
    {
      "inputs": [],
      "name": "APPROVAL_TO_CURRENT_OWNER",
      "type": "error"
    },
    {
      "inputs": [],
      "name": "APPROVE_TO_CALLER",
      "type": "error"
    },
    {
      "inputs": [],
      "name": "BLOCK_NOT_YET_MINED",
      "type": "error"
    },
    {
      "inputs": [],
      "name": "CALLER_NOT_OWNER_OR_APPROVED",
      "type": "error"
    },
    {
      "inputs": [],
      "name": "INCORRECT_OWNER",
      "type": "error"
    },
    {
      "inputs": [],
      "name": "INVALID",
      "type": "error"
    },
    {
      "inputs": [
        {
          "internalType": "address",
          "name": "ownerAddress",
          "type": "address"
        },
        {
          "internalType": "uint256",
          "name": "projectId",
          "type": "uint256"
        }
      ],
      "name": "INVALID_NEW_OWNER",
      "type": "error"
    },
    {
      "inputs": [],
      "name": "INVALID_PAYMENT_EVENT",
      "type": "error"
    },
    {
      "inputs": [],
      "name": "INVALID_REDEMPTION_EVENT",
      "type": "error"
    },
    {
      "inputs": [],
      "name": "INVALID_REDEMPTION_METADATA",
      "type": "error"
    },
    {
      "inputs": [],
      "name": "INVALID_TOKEN_ID",
      "type": "error"
    },
    {
      "inputs": [],
      "name": "MINT_TO_ZERO",
      "type": "error"
    },
    {
      "inputs": [],
      "name": "NOT_AVAILABLE",
      "type": "error"
    },
    {
      "inputs": [],
      "name": "OVERSPENDING",
      "type": "error"
    },
    {
      "inputs": [
        {
          "internalType": "uint256",
          "name": "prod1",
          "type": "uint256"
        },
        {
          "internalType": "uint256",
          "name": "denominator",
          "type": "uint256"
        }
      ],
      "name": "PRBMath__MulDivOverflow",
      "type": "error"
    },
    {
      "inputs": [],
      "name": "PRICING_RESOLVER_CHANGES_PAUSED",
      "type": "error"
    },
    {
      "inputs": [],
      "name": "RESERVED_TOKEN_MINTING_PAUSED",
      "type": "error"
    },
    {
      "inputs": [],
      "name": "SIGNATURE_EXPIRED",
      "type": "error"
    },
    {
      "inputs": [],
      "name": "TRANSFERS_PAUSED",
      "type": "error"
    },
    {
      "inputs": [],
      "name": "TRANSFER_TO_NON_IMPLEMENTER",
      "type": "error"
    },
    {
      "inputs": [],
      "name": "TRANSFER_TO_ZERO_ADDRESS",
      "type": "error"
    },
    {
      "inputs": [],
      "name": "UNAUTHORIZED",
      "type": "error"
    },
    {
      "inputs": [
        {
          "internalType": "uint256",
          "name": "_tokenId",
          "type": "uint256"
        }
      ],
      "name": "UNAUTHORIZED_TOKEN",
      "type": "error"
    },
    {
      "inputs": [],
      "name": "UNEXPECTED_TOKEN_REDEEMED",
      "type": "error"
    },
    {
      "anonymous": false,
      "inputs": [
        {
          "indexed": true,
          "internalType": "uint256",
          "name": "changeAmount",
          "type": "uint256"
        },
        {
          "indexed": true,
          "internalType": "uint256",
          "name": "newTotalCredits",
          "type": "uint256"
        },
        {
          "indexed": true,
          "internalType": "address",
          "name": "account",
          "type": "address"
        },
        {
          "indexed": false,
          "internalType": "address",
          "name": "caller",
          "type": "address"
        }
      ],
      "name": "AddCredits",
      "type": "event"
    },
    {
      "anonymous": false,
      "inputs": [
        {
          "indexed": true,
          "internalType": "uint256",
          "name": "tierId",
          "type": "uint256"
        },
        {
          "components": [
            {
              "internalType": "uint88",
              "name": "price",
              "type": "uint88"
            },
            {
              "internalType": "uint40",
              "name": "initialQuantity",
              "type": "uint40"
            },
            {
              "internalType": "uint40",
              "name": "votingUnits",
              "type": "uint40"
            },
            {
              "internalType": "uint16",
              "name": "reservedRate",
              "type": "uint16"
            },
            {
              "internalType": "address",
              "name": "reservedTokenBeneficiary",
              "type": "address"
            },
            {
              "internalType": "uint8",
              "name": "royaltyRate",
              "type": "uint8"
            },
            {
              "internalType": "address",
              "name": "royaltyBeneficiary",
              "type": "address"
            },
            {
              "internalType": "bytes32",
              "name": "encodedIPFSUri",
              "type": "bytes32"
            },
            {
              "internalType": "uint16",
              "name": "category",
              "type": "uint16"
            },
            {
              "internalType": "bool",
              "name": "allowManualMint",
              "type": "bool"
            },
            {
              "internalType": "bool",
              "name": "shouldUseReservedTokenBeneficiaryAsDefault",
              "type": "bool"
            },
            {
              "internalType": "bool",
              "name": "shouldUseRoyaltyBeneficiaryAsDefault",
              "type": "bool"
            },
            {
              "internalType": "bool",
              "name": "transfersPausable",
              "type": "bool"
            },
            {
              "internalType": "bool",
              "name": "useVotingUnits",
              "type": "bool"
            }
          ],
          "indexed": false,
          "internalType": "struct JB721TierParams",
          "name": "data",
          "type": "tuple"
        },
        {
          "indexed": false,
          "internalType": "address",
          "name": "caller",
          "type": "address"
        }
      ],
      "name": "AddTier",
      "type": "event"
    },
    {
      "anonymous": false,
      "inputs": [
        {
          "indexed": true,
          "internalType": "address",
          "name": "owner",
          "type": "address"
        },
        {
          "indexed": true,
          "internalType": "address",
          "name": "approved",
          "type": "address"
        },
        {
          "indexed": true,
          "internalType": "uint256",
          "name": "tokenId",
          "type": "uint256"
        }
      ],
      "name": "Approval",
      "type": "event"
    },
    {
      "anonymous": false,
      "inputs": [
        {
          "indexed": true,
          "internalType": "address",
          "name": "owner",
          "type": "address"
        },
        {
          "indexed": true,
          "internalType": "address",
          "name": "operator",
          "type": "address"
        },
        {
          "indexed": false,
          "internalType": "bool",
          "name": "approved",
          "type": "bool"
        }
      ],
      "name": "ApprovalForAll",
      "type": "event"
    },
    {
      "anonymous": false,
      "inputs": [
        {
          "indexed": true,
          "internalType": "address",
          "name": "delegator",
          "type": "address"
        },
        {
          "indexed": true,
          "internalType": "address",
          "name": "fromDelegate",
          "type": "address"
        },
        {
          "indexed": true,
          "internalType": "address",
          "name": "toDelegate",
          "type": "address"
        }
      ],
      "name": "DelegateChanged",
      "type": "event"
    },
    {
      "anonymous": false,
      "inputs": [
        {
          "indexed": true,
          "internalType": "address",
          "name": "delegate",
          "type": "address"
        },
        {
          "indexed": false,
          "internalType": "uint256",
          "name": "previousBalance",
          "type": "uint256"
        },
        {
          "indexed": false,
          "internalType": "uint256",
          "name": "newBalance",
          "type": "uint256"
        }
      ],
      "name": "DelegateVotesChanged",
      "type": "event"
    },
    {
      "anonymous": false,
      "inputs": [
        {
          "indexed": true,
          "internalType": "uint256",
          "name": "tokenId",
          "type": "uint256"
        },
        {
          "indexed": true,
          "internalType": "uint256",
          "name": "tierId",
          "type": "uint256"
        },
        {
          "indexed": true,
          "internalType": "address",
          "name": "beneficiary",
          "type": "address"
        },
        {
          "indexed": false,
          "internalType": "uint256",
          "name": "totalAmountContributed",
          "type": "uint256"
        },
        {
          "indexed": false,
          "internalType": "address",
          "name": "caller",
          "type": "address"
        }
      ],
      "name": "Mint",
      "type": "event"
    },
    {
      "anonymous": false,
      "inputs": [
        {
          "indexed": true,
          "internalType": "uint256",
          "name": "tokenId",
          "type": "uint256"
        },
        {
          "indexed": true,
          "internalType": "uint256",
          "name": "tierId",
          "type": "uint256"
        },
        {
          "indexed": true,
          "internalType": "address",
          "name": "beneficiary",
          "type": "address"
        },
        {
          "indexed": false,
          "internalType": "address",
          "name": "caller",
          "type": "address"
        }
      ],
      "name": "MintReservedToken",
      "type": "event"
    },
    {
      "anonymous": false,
      "inputs": [
        {
          "indexed": true,
          "internalType": "address",
          "name": "previousOwner",
          "type": "address"
        },
        {
          "indexed": true,
          "internalType": "address",
          "name": "newOwner",
          "type": "address"
        }
      ],
      "name": "OwnershipTransferred",
      "type": "event"
    },
    {
      "anonymous": false,
      "inputs": [
        {
          "indexed": false,
          "internalType": "uint8",
          "name": "newIndex",
          "type": "uint8"
        }
      ],
      "name": "PermissionIndexChanged",
      "type": "event"
    },
    {
      "anonymous": false,
      "inputs": [
        {
          "indexed": true,
          "internalType": "uint256",
          "name": "tierId",
          "type": "uint256"
        },
        {
          "indexed": false,
          "internalType": "address",
          "name": "caller",
          "type": "address"
        }
      ],
      "name": "RemoveTier",
      "type": "event"
    },
    {
      "anonymous": false,
      "inputs": [
        {
          "indexed": true,
          "internalType": "string",
          "name": "baseUri",
          "type": "string"
        },
        {
          "indexed": false,
          "internalType": "address",
          "name": "caller",
          "type": "address"
        }
      ],
      "name": "SetBaseUri",
      "type": "event"
    },
    {
      "anonymous": false,
      "inputs": [
        {
          "indexed": true,
          "internalType": "string",
          "name": "contractUri",
          "type": "string"
        },
        {
          "indexed": false,
          "internalType": "address",
          "name": "caller",
          "type": "address"
        }
      ],
      "name": "SetContractUri",
      "type": "event"
    },
    {
      "anonymous": false,
      "inputs": [
        {
          "indexed": true,
          "internalType": "address",
          "name": "beneficiary",
          "type": "address"
        },
        {
          "indexed": false,
          "internalType": "address",
          "name": "caller",
          "type": "address"
        }
      ],
      "name": "SetDefaultReservedTokenBeneficiary",
      "type": "event"
    },
    {
      "anonymous": false,
      "inputs": [
        {
          "indexed": true,
          "internalType": "uint256",
          "name": "tierId",
          "type": "uint256"
        },
        {
          "indexed": false,
          "internalType": "bytes32",
          "name": "encodedIPFSUri",
          "type": "bytes32"
        },
        {
          "indexed": false,
          "internalType": "address",
          "name": "caller",
          "type": "address"
        }
      ],
      "name": "SetEncodedIPFSUri",
      "type": "event"
    },
    {
      "anonymous": false,
      "inputs": [
        {
          "indexed": true,
          "internalType": "contract IJBTokenUriResolver",
          "name": "newResolver",
          "type": "address"
        },
        {
          "indexed": false,
          "internalType": "address",
          "name": "caller",
          "type": "address"
        }
      ],
      "name": "SetTokenUriResolver",
      "type": "event"
    },
    {
      "anonymous": false,
      "inputs": [
        {
          "indexed": true,
          "internalType": "address",
          "name": "from",
          "type": "address"
        },
        {
          "indexed": true,
          "internalType": "address",
          "name": "to",
          "type": "address"
        },
        {
          "indexed": true,
          "internalType": "uint256",
          "name": "tokenId",
          "type": "uint256"
        }
      ],
      "name": "Transfer",
      "type": "event"
    },
    {
      "anonymous": false,
      "inputs": [
        {
          "indexed": true,
          "internalType": "uint256",
          "name": "changeAmount",
          "type": "uint256"
        },
        {
          "indexed": true,
          "internalType": "uint256",
          "name": "newTotalCredits",
          "type": "uint256"
        },
        {
          "indexed": true,
          "internalType": "address",
          "name": "account",
          "type": "address"
        },
        {
          "indexed": false,
          "internalType": "address",
          "name": "caller",
          "type": "address"
        }
      ],
      "name": "UseCredits",
      "type": "event"
    },
    {
      "inputs": [
        {
          "components": [
            {
              "internalType": "uint88",
              "name": "price",
              "type": "uint88"
            },
            {
              "internalType": "uint40",
              "name": "initialQuantity",
              "type": "uint40"
            },
            {
              "internalType": "uint40",
              "name": "votingUnits",
              "type": "uint40"
            },
            {
              "internalType": "uint16",
              "name": "reservedRate",
              "type": "uint16"
            },
            {
              "internalType": "address",
              "name": "reservedTokenBeneficiary",
              "type": "address"
            },
            {
              "internalType": "uint8",
              "name": "royaltyRate",
              "type": "uint8"
            },
            {
              "internalType": "address",
              "name": "royaltyBeneficiary",
              "type": "address"
            },
            {
              "internalType": "bytes32",
              "name": "encodedIPFSUri",
              "type": "bytes32"
            },
            {
              "internalType": "uint16",
              "name": "category",
              "type": "uint16"
            },
            {
              "internalType": "bool",
              "name": "allowManualMint",
              "type": "bool"
            },
            {
              "internalType": "bool",
              "name": "shouldUseReservedTokenBeneficiaryAsDefault",
              "type": "bool"
            },
            {
              "internalType": "bool",
              "name": "shouldUseRoyaltyBeneficiaryAsDefault",
              "type": "bool"
            },
            {
              "internalType": "bool",
              "name": "transfersPausable",
              "type": "bool"
            },
            {
              "internalType": "bool",
              "name": "useVotingUnits",
              "type": "bool"
            }
          ],
          "internalType": "struct JB721TierParams[]",
          "name": "_tiersToAdd",
          "type": "tuple[]"
        },
        {
          "internalType": "uint256[]",
          "name": "_tierIdsToRemove",
          "type": "uint256[]"
        }
      ],
      "name": "adjustTiers",
      "outputs": [],
      "stateMutability": "nonpayable",
      "type": "function"
    },
    {
      "inputs": [
        {
          "internalType": "address",
          "name": "to",
          "type": "address"
        },
        {
          "internalType": "uint256",
          "name": "tokenId",
          "type": "uint256"
        }
      ],
      "name": "approve",
      "outputs": [],
      "stateMutability": "nonpayable",
      "type": "function"
    },
    {
      "inputs": [
        {
          "internalType": "address",
          "name": "_owner",
          "type": "address"
        }
      ],
      "name": "balanceOf",
      "outputs": [
        {
          "internalType": "uint256",
          "name": "balance",
          "type": "uint256"
        }
      ],
      "stateMutability": "view",
      "type": "function"
    },
    {
      "inputs": [],
      "name": "codeOrigin",
      "outputs": [
        {
          "internalType": "address",
          "name": "",
          "type": "address"
        }
      ],
      "stateMutability": "view",
      "type": "function"
    },
    {
      "inputs": [],
      "name": "contractURI",
      "outputs": [
        {
          "internalType": "string",
          "name": "",
          "type": "string"
        }
      ],
      "stateMutability": "view",
      "type": "function"
    },
    {
      "inputs": [
        {
          "internalType": "address",
          "name": "",
          "type": "address"
        }
      ],
      "name": "creditsOf",
      "outputs": [
        {
          "internalType": "uint256",
          "name": "",
          "type": "uint256"
        }
      ],
      "stateMutability": "view",
      "type": "function"
    },
    {
      "inputs": [
        {
          "internalType": "address",
          "name": "delegatee",
          "type": "address"
        }
      ],
      "name": "delegate",
      "outputs": [],
      "stateMutability": "nonpayable",
      "type": "function"
    },
    {
      "inputs": [
        {
          "internalType": "address",
          "name": "account",
          "type": "address"
        }
      ],
      "name": "delegates",
      "outputs": [
        {
          "internalType": "address",
          "name": "",
          "type": "address"
        }
      ],
      "stateMutability": "view",
      "type": "function"
    },
    {
      "inputs": [
        {
          "components": [
            {
              "internalType": "address",
              "name": "payer",
              "type": "address"
            },
            {
              "internalType": "uint256",
              "name": "projectId",
              "type": "uint256"
            },
            {
              "internalType": "uint256",
              "name": "currentFundingCycleConfiguration",
              "type": "uint256"
            },
            {
              "components": [
                {
                  "internalType": "address",
                  "name": "token",
                  "type": "address"
                },
                {
                  "internalType": "uint256",
                  "name": "value",
                  "type": "uint256"
                },
                {
                  "internalType": "uint256",
                  "name": "decimals",
                  "type": "uint256"
                },
                {
                  "internalType": "uint256",
                  "name": "currency",
                  "type": "uint256"
                }
              ],
              "internalType": "struct JBTokenAmount",
              "name": "amount",
              "type": "tuple"
            },
            {
              "components": [
                {
                  "internalType": "address",
                  "name": "token",
                  "type": "address"
                },
                {
                  "internalType": "uint256",
                  "name": "value",
                  "type": "uint256"
                },
                {
                  "internalType": "uint256",
                  "name": "decimals",
                  "type": "uint256"
                },
                {
                  "internalType": "uint256",
                  "name": "currency",
                  "type": "uint256"
                }
              ],
              "internalType": "struct JBTokenAmount",
              "name": "forwardedAmount",
              "type": "tuple"
            },
            {
              "internalType": "uint256",
              "name": "projectTokenCount",
              "type": "uint256"
            },
            {
              "internalType": "address",
              "name": "beneficiary",
              "type": "address"
            },
            {
              "internalType": "bool",
              "name": "preferClaimedTokens",
              "type": "bool"
            },
            {
              "internalType": "string",
              "name": "memo",
              "type": "string"
            },
            {
              "internalType": "bytes",
              "name": "metadata",
              "type": "bytes"
            }
          ],
          "internalType": "struct JBDidPayData",
          "name": "_data",
          "type": "tuple"
        }
      ],
      "name": "didPay",
      "outputs": [],
      "stateMutability": "payable",
      "type": "function"
    },
    {
      "inputs": [
        {
          "components": [
            {
              "internalType": "address",
              "name": "holder",
              "type": "address"
            },
            {
              "internalType": "uint256",
              "name": "projectId",
              "type": "uint256"
            },
            {
              "internalType": "uint256",
              "name": "currentFundingCycleConfiguration",
              "type": "uint256"
            },
            {
              "internalType": "uint256",
              "name": "projectTokenCount",
              "type": "uint256"
            },
            {
              "components": [
                {
                  "internalType": "address",
                  "name": "token",
                  "type": "address"
                },
                {
                  "internalType": "uint256",
                  "name": "value",
                  "type": "uint256"
                },
                {
                  "internalType": "uint256",
                  "name": "decimals",
                  "type": "uint256"
                },
                {
                  "internalType": "uint256",
                  "name": "currency",
                  "type": "uint256"
                }
              ],
              "internalType": "struct JBTokenAmount",
              "name": "reclaimedAmount",
              "type": "tuple"
            },
            {
              "components": [
                {
                  "internalType": "address",
                  "name": "token",
                  "type": "address"
                },
                {
                  "internalType": "uint256",
                  "name": "value",
                  "type": "uint256"
                },
                {
                  "internalType": "uint256",
                  "name": "decimals",
                  "type": "uint256"
                },
                {
                  "internalType": "uint256",
                  "name": "currency",
                  "type": "uint256"
                }
              ],
              "internalType": "struct JBTokenAmount",
              "name": "forwardedAmount",
              "type": "tuple"
            },
            {
              "internalType": "address payable",
              "name": "beneficiary",
              "type": "address"
            },
            {
              "internalType": "string",
              "name": "memo",
              "type": "string"
            },
            {
              "internalType": "bytes",
              "name": "metadata",
              "type": "bytes"
            }
          ],
          "internalType": "struct JBDidRedeemData",
          "name": "_data",
          "type": "tuple"
        }
      ],
      "name": "didRedeem",
      "outputs": [],
      "stateMutability": "payable",
      "type": "function"
    },
    {
      "inputs": [],
      "name": "directory",
      "outputs": [
        {
          "internalType": "contract IJBDirectory",
          "name": "",
          "type": "address"
        }
      ],
      "stateMutability": "view",
      "type": "function"
    },
    {
      "inputs": [
        {
          "internalType": "uint256",
          "name": "_tokenId",
          "type": "uint256"
        }
      ],
      "name": "firstOwnerOf",
      "outputs": [
        {
          "internalType": "address",
          "name": "",
          "type": "address"
        }
      ],
      "stateMutability": "view",
      "type": "function"
    },
    {
      "inputs": [],
      "name": "fundingCycleStore",
      "outputs": [
        {
          "internalType": "contract IJBFundingCycleStore",
          "name": "",
          "type": "address"
        }
      ],
      "stateMutability": "view",
      "type": "function"
    },
    {
      "inputs": [
        {
          "internalType": "uint256",
          "name": "tokenId",
          "type": "uint256"
        }
      ],
      "name": "getApproved",
      "outputs": [
        {
          "internalType": "address",
          "name": "",
          "type": "address"
        }
      ],
      "stateMutability": "view",
      "type": "function"
    },
    {
      "inputs": [
        {
          "internalType": "uint256",
          "name": "blockNumber",
          "type": "uint256"
        }
      ],
      "name": "getPastTotalSupply",
      "outputs": [
        {
          "internalType": "uint256",
          "name": "",
          "type": "uint256"
        }
      ],
      "stateMutability": "view",
      "type": "function"
    },
    {
      "inputs": [
        {
          "internalType": "address",
          "name": "account",
          "type": "address"
        },
        {
          "internalType": "uint256",
          "name": "blockNumber",
          "type": "uint256"
        }
      ],
      "name": "getPastVotes",
      "outputs": [
        {
          "internalType": "uint256",
          "name": "",
          "type": "uint256"
        }
      ],
      "stateMutability": "view",
      "type": "function"
    },
    {
      "inputs": [
        {
          "internalType": "address",
          "name": "account",
          "type": "address"
        }
      ],
      "name": "getVotes",
      "outputs": [
        {
          "internalType": "uint256",
          "name": "",
          "type": "uint256"
        }
      ],
      "stateMutability": "view",
      "type": "function"
    },
    {
      "inputs": [
        {
          "internalType": "uint256",
          "name": "_projectId",
          "type": "uint256"
        },
        {
          "internalType": "contract IJBDirectory",
          "name": "_directory",
          "type": "address"
        },
        {
          "internalType": "string",
          "name": "_name",
          "type": "string"
        },
        {
          "internalType": "string",
          "name": "_symbol",
          "type": "string"
        },
        {
          "internalType": "contract IJBFundingCycleStore",
          "name": "_fundingCycleStore",
          "type": "address"
        },
        {
          "internalType": "string",
          "name": "_baseUri",
          "type": "string"
        },
        {
          "internalType": "contract IJBTokenUriResolver",
          "name": "_tokenUriResolver",
          "type": "address"
        },
        {
          "internalType": "string",
          "name": "_contractUri",
          "type": "string"
        },
        {
          "components": [
            {
              "components": [
                {
                  "internalType": "uint88",
                  "name": "price",
                  "type": "uint88"
                },
                {
                  "internalType": "uint40",
                  "name": "initialQuantity",
                  "type": "uint40"
                },
                {
                  "internalType": "uint40",
                  "name": "votingUnits",
                  "type": "uint40"
                },
                {
                  "internalType": "uint16",
                  "name": "reservedRate",
                  "type": "uint16"
                },
                {
                  "internalType": "address",
                  "name": "reservedTokenBeneficiary",
                  "type": "address"
                },
                {
                  "internalType": "uint8",
                  "name": "royaltyRate",
                  "type": "uint8"
                },
                {
                  "internalType": "address",
                  "name": "royaltyBeneficiary",
                  "type": "address"
                },
                {
                  "internalType": "bytes32",
                  "name": "encodedIPFSUri",
                  "type": "bytes32"
                },
                {
                  "internalType": "uint16",
                  "name": "category",
                  "type": "uint16"
                },
                {
                  "internalType": "bool",
                  "name": "allowManualMint",
                  "type": "bool"
                },
                {
                  "internalType": "bool",
                  "name": "shouldUseReservedTokenBeneficiaryAsDefault",
                  "type": "bool"
                },
                {
                  "internalType": "bool",
                  "name": "shouldUseRoyaltyBeneficiaryAsDefault",
                  "type": "bool"
                },
                {
                  "internalType": "bool",
                  "name": "transfersPausable",
                  "type": "bool"
                },
                {
                  "internalType": "bool",
                  "name": "useVotingUnits",
                  "type": "bool"
                }
              ],
              "internalType": "struct JB721TierParams[]",
              "name": "tiers",
              "type": "tuple[]"
            },
            {
              "internalType": "uint256",
              "name": "currency",
              "type": "uint256"
            },
            {
              "internalType": "uint256",
              "name": "decimals",
              "type": "uint256"
            },
            {
              "internalType": "contract IJBPrices",
              "name": "prices",
              "type": "address"
            }
          ],
          "internalType": "struct JB721PricingParams",
          "name": "_pricing",
          "type": "tuple"
        },
        {
          "internalType": "contract IJBTiered721DelegateStore",
          "name": "_store",
          "type": "address"
        },
        {
          "components": [
            {
              "internalType": "bool",
              "name": "lockReservedTokenChanges",
              "type": "bool"
            },
            {
              "internalType": "bool",
              "name": "lockVotingUnitChanges",
              "type": "bool"
            },
            {
              "internalType": "bool",
              "name": "lockManualMintingChanges",
              "type": "bool"
            },
            {
              "internalType": "bool",
              "name": "preventOverspending",
              "type": "bool"
            }
          ],
          "internalType": "struct JBTiered721Flags",
          "name": "_flags",
          "type": "tuple"
        }
      ],
      "name": "initialize",
      "outputs": [],
      "stateMutability": "nonpayable",
      "type": "function"
    },
    {
      "inputs": [
        {
          "internalType": "address",
          "name": "owner",
          "type": "address"
        },
        {
          "internalType": "address",
          "name": "operator",
          "type": "address"
        }
      ],
      "name": "isApprovedForAll",
      "outputs": [
        {
          "internalType": "bool",
          "name": "",
          "type": "bool"
        }
      ],
      "stateMutability": "view",
      "type": "function"
    },
    {
      "inputs": [],
      "name": "jbOwner",
      "outputs": [
        {
          "internalType": "address",
          "name": "owner",
          "type": "address"
        },
        {
          "internalType": "uint88",
          "name": "projectId",
          "type": "uint88"
        },
        {
          "internalType": "uint8",
          "name": "permissionIndex",
          "type": "uint8"
        }
      ],
      "stateMutability": "view",
      "type": "function"
    },
    {
      "inputs": [
        {
          "components": [
            {
              "internalType": "uint16[]",
              "name": "tierIds",
              "type": "uint16[]"
            },
            {
              "internalType": "address",
              "name": "beneficiary",
              "type": "address"
            }
          ],
          "internalType": "struct JBTiered721MintForTiersData[]",
          "name": "_mintForTiersData",
          "type": "tuple[]"
        }
      ],
      "name": "mintFor",
      "outputs": [],
      "stateMutability": "nonpayable",
      "type": "function"
    },
    {
      "inputs": [
        {
          "internalType": "uint16[]",
          "name": "_tierIds",
          "type": "uint16[]"
        },
        {
          "internalType": "address",
          "name": "_beneficiary",
          "type": "address"
        }
      ],
      "name": "mintFor",
      "outputs": [
        {
          "internalType": "uint256[]",
          "name": "tokenIds",
          "type": "uint256[]"
        }
      ],
      "stateMutability": "nonpayable",
      "type": "function"
    },
    {
      "inputs": [
        {
          "components": [
            {
              "internalType": "uint256",
              "name": "tierId",
              "type": "uint256"
            },
            {
              "internalType": "uint256",
              "name": "count",
              "type": "uint256"
            }
          ],
          "internalType": "struct JBTiered721MintReservesForTiersData[]",
          "name": "_mintReservesForTiersData",
          "type": "tuple[]"
        }
      ],
      "name": "mintReservesFor",
      "outputs": [],
      "stateMutability": "nonpayable",
      "type": "function"
    },
    {
      "inputs": [
        {
          "internalType": "uint256",
          "name": "_tierId",
          "type": "uint256"
        },
        {
          "internalType": "uint256",
          "name": "_count",
          "type": "uint256"
        }
      ],
      "name": "mintReservesFor",
      "outputs": [],
      "stateMutability": "nonpayable",
      "type": "function"
    },
    {
      "inputs": [],
      "name": "name",
      "outputs": [
        {
          "internalType": "string",
          "name": "",
          "type": "string"
        }
      ],
      "stateMutability": "view",
      "type": "function"
    },
    {
      "inputs": [],
      "name": "operatorStore",
      "outputs": [
        {
          "internalType": "contract IJBOperatorStore",
          "name": "",
          "type": "address"
        }
      ],
      "stateMutability": "view",
      "type": "function"
    },
    {
      "inputs": [],
      "name": "owner",
      "outputs": [
        {
          "internalType": "address",
          "name": "",
          "type": "address"
        }
      ],
      "stateMutability": "view",
      "type": "function"
    },
    {
      "inputs": [
        {
          "internalType": "uint256",
          "name": "tokenId",
          "type": "uint256"
        }
      ],
      "name": "ownerOf",
      "outputs": [
        {
          "internalType": "address",
          "name": "",
          "type": "address"
        }
      ],
      "stateMutability": "view",
      "type": "function"
    },
    {
      "inputs": [
        {
          "components": [
            {
              "internalType": "contract IJBPaymentTerminal",
              "name": "terminal",
              "type": "address"
            },
            {
              "internalType": "address",
              "name": "payer",
              "type": "address"
            },
            {
              "components": [
                {
                  "internalType": "address",
                  "name": "token",
                  "type": "address"
                },
                {
                  "internalType": "uint256",
                  "name": "value",
                  "type": "uint256"
                },
                {
                  "internalType": "uint256",
                  "name": "decimals",
                  "type": "uint256"
                },
                {
                  "internalType": "uint256",
                  "name": "currency",
                  "type": "uint256"
                }
              ],
              "internalType": "struct JBTokenAmount",
              "name": "amount",
              "type": "tuple"
            },
            {
              "internalType": "uint256",
              "name": "projectId",
              "type": "uint256"
            },
            {
              "internalType": "uint256",
              "name": "currentFundingCycleConfiguration",
              "type": "uint256"
            },
            {
              "internalType": "address",
              "name": "beneficiary",
              "type": "address"
            },
            {
              "internalType": "uint256",
              "name": "weight",
              "type": "uint256"
            },
            {
              "internalType": "uint256",
              "name": "reservedRate",
              "type": "uint256"
            },
            {
              "internalType": "string",
              "name": "memo",
              "type": "string"
            },
            {
              "internalType": "bytes",
              "name": "metadata",
              "type": "bytes"
            }
          ],
          "internalType": "struct JBPayParamsData",
          "name": "_data",
          "type": "tuple"
        }
      ],
      "name": "payParams",
      "outputs": [
        {
          "internalType": "uint256",
          "name": "weight",
          "type": "uint256"
        },
        {
          "internalType": "string",
          "name": "memo",
          "type": "string"
        },
        {
          "components": [
            {
              "internalType": "contract IJBPayDelegate",
              "name": "delegate",
              "type": "address"
            },
            {
              "internalType": "uint256",
              "name": "amount",
              "type": "uint256"
            }
          ],
          "internalType": "struct JBPayDelegateAllocation[]",
          "name": "delegateAllocations",
          "type": "tuple[]"
        }
      ],
      "stateMutability": "view",
      "type": "function"
    },
    {
      "inputs": [],
      "name": "prices",
      "outputs": [
        {
          "internalType": "contract IJBPrices",
          "name": "",
          "type": "address"
        }
      ],
      "stateMutability": "view",
      "type": "function"
    },
    {
      "inputs": [],
      "name": "pricingCurrency",
      "outputs": [
        {
          "internalType": "uint256",
          "name": "",
          "type": "uint256"
        }
      ],
      "stateMutability": "view",
      "type": "function"
    },
    {
      "inputs": [],
      "name": "pricingDecimals",
      "outputs": [
        {
          "internalType": "uint256",
          "name": "",
          "type": "uint256"
        }
      ],
      "stateMutability": "view",
      "type": "function"
    },
    {
      "inputs": [],
      "name": "projectId",
      "outputs": [
        {
          "internalType": "uint256",
          "name": "",
          "type": "uint256"
        }
      ],
      "stateMutability": "view",
      "type": "function"
    },
    {
      "inputs": [],
      "name": "projects",
      "outputs": [
        {
          "internalType": "contract IJBProjects",
          "name": "",
          "type": "address"
        }
      ],
      "stateMutability": "view",
      "type": "function"
    },
    {
      "inputs": [
        {
          "components": [
            {
              "internalType": "contract IJBPaymentTerminal",
              "name": "terminal",
              "type": "address"
            },
            {
              "internalType": "address",
              "name": "holder",
              "type": "address"
            },
            {
              "internalType": "uint256",
              "name": "projectId",
              "type": "uint256"
            },
            {
              "internalType": "uint256",
              "name": "currentFundingCycleConfiguration",
              "type": "uint256"
            },
            {
              "internalType": "uint256",
              "name": "tokenCount",
              "type": "uint256"
            },
            {
              "internalType": "uint256",
              "name": "totalSupply",
              "type": "uint256"
            },
            {
              "internalType": "uint256",
              "name": "overflow",
              "type": "uint256"
            },
            {
              "components": [
                {
                  "internalType": "address",
                  "name": "token",
                  "type": "address"
                },
                {
                  "internalType": "uint256",
                  "name": "value",
                  "type": "uint256"
                },
                {
                  "internalType": "uint256",
                  "name": "decimals",
                  "type": "uint256"
                },
                {
                  "internalType": "uint256",
                  "name": "currency",
                  "type": "uint256"
                }
              ],
              "internalType": "struct JBTokenAmount",
              "name": "reclaimAmount",
              "type": "tuple"
            },
            {
              "internalType": "bool",
              "name": "useTotalOverflow",
              "type": "bool"
            },
            {
              "internalType": "uint256",
              "name": "redemptionRate",
              "type": "uint256"
            },
            {
              "internalType": "string",
              "name": "memo",
              "type": "string"
            },
            {
              "internalType": "bytes",
              "name": "metadata",
              "type": "bytes"
            }
          ],
          "internalType": "struct JBRedeemParamsData",
          "name": "_data",
          "type": "tuple"
        }
      ],
      "name": "redeemParams",
      "outputs": [
        {
          "internalType": "uint256",
          "name": "reclaimAmount",
          "type": "uint256"
        },
        {
          "internalType": "string",
          "name": "memo",
          "type": "string"
        },
        {
          "components": [
            {
              "internalType": "contract IJBRedemptionDelegate",
              "name": "delegate",
              "type": "address"
            },
            {
              "internalType": "uint256",
              "name": "amount",
              "type": "uint256"
            }
          ],
          "internalType": "struct JBRedemptionDelegateAllocation[]",
          "name": "delegateAllocations",
          "type": "tuple[]"
        }
      ],
      "stateMutability": "view",
      "type": "function"
    },
    {
      "inputs": [
        {
          "internalType": "uint256[]",
          "name": "_tokenIds",
          "type": "uint256[]"
        },
        {
          "components": [
            {
              "internalType": "contract IJBPaymentTerminal",
              "name": "terminal",
              "type": "address"
            },
            {
              "internalType": "address",
              "name": "holder",
              "type": "address"
            },
            {
              "internalType": "uint256",
              "name": "projectId",
              "type": "uint256"
            },
            {
              "internalType": "uint256",
              "name": "currentFundingCycleConfiguration",
              "type": "uint256"
            },
            {
              "internalType": "uint256",
              "name": "tokenCount",
              "type": "uint256"
            },
            {
              "internalType": "uint256",
              "name": "totalSupply",
              "type": "uint256"
            },
            {
              "internalType": "uint256",
              "name": "overflow",
              "type": "uint256"
            },
            {
              "components": [
                {
                  "internalType": "address",
                  "name": "token",
                  "type": "address"
                },
                {
                  "internalType": "uint256",
                  "name": "value",
                  "type": "uint256"
                },
                {
                  "internalType": "uint256",
                  "name": "decimals",
                  "type": "uint256"
                },
                {
                  "internalType": "uint256",
                  "name": "currency",
                  "type": "uint256"
                }
              ],
              "internalType": "struct JBTokenAmount",
              "name": "reclaimAmount",
              "type": "tuple"
            },
            {
              "internalType": "bool",
              "name": "useTotalOverflow",
              "type": "bool"
            },
            {
              "internalType": "uint256",
              "name": "redemptionRate",
              "type": "uint256"
            },
            {
              "internalType": "string",
              "name": "memo",
              "type": "string"
            },
            {
              "internalType": "bytes",
              "name": "metadata",
              "type": "bytes"
            }
          ],
          "internalType": "struct JBRedeemParamsData",
          "name": "",
          "type": "tuple"
        }
      ],
      "name": "redemptionWeightOf",
      "outputs": [
        {
          "internalType": "uint256",
          "name": "",
          "type": "uint256"
        }
      ],
      "stateMutability": "view",
      "type": "function"
    },
    {
      "inputs": [],
      "name": "renounceOwnership",
      "outputs": [],
      "stateMutability": "nonpayable",
      "type": "function"
    },
    {
      "inputs": [
        {
          "internalType": "uint256",
          "name": "_tokenId",
          "type": "uint256"
        },
        {
          "internalType": "uint256",
          "name": "_salePrice",
          "type": "uint256"
        }
      ],
      "name": "royaltyInfo",
      "outputs": [
        {
          "internalType": "address",
          "name": "",
          "type": "address"
        },
        {
          "internalType": "uint256",
          "name": "",
          "type": "uint256"
        }
      ],
      "stateMutability": "view",
      "type": "function"
    },
    {
      "inputs": [
        {
          "internalType": "address",
          "name": "from",
          "type": "address"
        },
        {
          "internalType": "address",
          "name": "to",
          "type": "address"
        },
        {
          "internalType": "uint256",
          "name": "tokenId",
          "type": "uint256"
        }
      ],
      "name": "safeTransferFrom",
      "outputs": [],
      "stateMutability": "nonpayable",
      "type": "function"
    },
    {
      "inputs": [
        {
          "internalType": "address",
          "name": "from",
          "type": "address"
        },
        {
          "internalType": "address",
          "name": "to",
          "type": "address"
        },
        {
          "internalType": "uint256",
          "name": "tokenId",
          "type": "uint256"
        },
        {
          "internalType": "bytes",
          "name": "data",
          "type": "bytes"
        }
      ],
      "name": "safeTransferFrom",
      "outputs": [],
      "stateMutability": "nonpayable",
      "type": "function"
    },
    {
      "inputs": [
        {
          "internalType": "address",
          "name": "operator",
          "type": "address"
        },
        {
          "internalType": "bool",
          "name": "approved",
          "type": "bool"
        }
      ],
      "name": "setApprovalForAll",
      "outputs": [],
      "stateMutability": "nonpayable",
      "type": "function"
    },
    {
      "inputs": [
        {
          "internalType": "string",
          "name": "_baseUri",
          "type": "string"
        }
      ],
      "name": "setBaseUri",
      "outputs": [],
      "stateMutability": "nonpayable",
      "type": "function"
    },
    {
      "inputs": [
        {
          "internalType": "string",
          "name": "_contractUri",
          "type": "string"
        }
      ],
      "name": "setContractUri",
      "outputs": [],
      "stateMutability": "nonpayable",
      "type": "function"
    },
    {
      "inputs": [
        {
          "internalType": "address",
          "name": "_beneficiary",
          "type": "address"
        }
      ],
      "name": "setDefaultReservedTokenBeneficiary",
      "outputs": [],
      "stateMutability": "nonpayable",
      "type": "function"
    },
    {
      "inputs": [
        {
          "internalType": "uint256",
          "name": "_tierId",
          "type": "uint256"
        },
        {
          "internalType": "bytes32",
          "name": "_encodedIPFSUri",
          "type": "bytes32"
        }
      ],
      "name": "setEncodedIPFSUriOf",
      "outputs": [],
      "stateMutability": "nonpayable",
      "type": "function"
    },
    {
      "inputs": [
        {
          "internalType": "uint8",
          "name": "_permissionIndex",
          "type": "uint8"
        }
      ],
      "name": "setPermissionIndex",
      "outputs": [],
      "stateMutability": "nonpayable",
      "type": "function"
    },
    {
      "inputs": [
        {
          "internalType": "contract IJBTokenUriResolver",
          "name": "_tokenUriResolver",
          "type": "address"
        }
      ],
      "name": "setTokenUriResolver",
      "outputs": [],
      "stateMutability": "nonpayable",
      "type": "function"
    },
    {
      "inputs": [],
      "name": "store",
      "outputs": [
        {
          "internalType": "contract IJBTiered721DelegateStore",
          "name": "",
          "type": "address"
        }
      ],
      "stateMutability": "view",
      "type": "function"
    },
    {
      "inputs": [
        {
          "internalType": "bytes4",
          "name": "_interfaceId",
          "type": "bytes4"
        }
      ],
      "name": "supportsInterface",
      "outputs": [
        {
          "internalType": "bool",
          "name": "",
          "type": "bool"
        }
      ],
      "stateMutability": "view",
      "type": "function"
    },
    {
      "inputs": [],
      "name": "symbol",
      "outputs": [
        {
          "internalType": "string",
          "name": "",
          "type": "string"
        }
      ],
      "stateMutability": "view",
      "type": "function"
    },
    {
      "inputs": [
        {
          "internalType": "uint256",
          "name": "_tokenId",
          "type": "uint256"
        }
      ],
      "name": "tokenURI",
      "outputs": [
        {
          "internalType": "string",
          "name": "",
          "type": "string"
        }
      ],
      "stateMutability": "view",
      "type": "function"
    },
    {
      "inputs": [
        {
          "components": [
            {
              "internalType": "contract IJBPaymentTerminal",
              "name": "terminal",
              "type": "address"
            },
            {
              "internalType": "address",
              "name": "holder",
              "type": "address"
            },
            {
              "internalType": "uint256",
              "name": "projectId",
              "type": "uint256"
            },
            {
              "internalType": "uint256",
              "name": "currentFundingCycleConfiguration",
              "type": "uint256"
            },
            {
              "internalType": "uint256",
              "name": "tokenCount",
              "type": "uint256"
            },
            {
              "internalType": "uint256",
              "name": "totalSupply",
              "type": "uint256"
            },
            {
              "internalType": "uint256",
              "name": "overflow",
              "type": "uint256"
            },
            {
              "components": [
                {
                  "internalType": "address",
                  "name": "token",
                  "type": "address"
                },
                {
                  "internalType": "uint256",
                  "name": "value",
                  "type": "uint256"
                },
                {
                  "internalType": "uint256",
                  "name": "decimals",
                  "type": "uint256"
                },
                {
                  "internalType": "uint256",
                  "name": "currency",
                  "type": "uint256"
                }
              ],
              "internalType": "struct JBTokenAmount",
              "name": "reclaimAmount",
              "type": "tuple"
            },
            {
              "internalType": "bool",
              "name": "useTotalOverflow",
              "type": "bool"
            },
            {
              "internalType": "uint256",
              "name": "redemptionRate",
              "type": "uint256"
            },
            {
              "internalType": "string",
              "name": "memo",
              "type": "string"
            },
            {
              "internalType": "bytes",
              "name": "metadata",
              "type": "bytes"
            }
          ],
          "internalType": "struct JBRedeemParamsData",
          "name": "",
          "type": "tuple"
        }
      ],
      "name": "totalRedemptionWeight",
      "outputs": [
        {
          "internalType": "uint256",
          "name": "",
          "type": "uint256"
        }
      ],
      "stateMutability": "view",
      "type": "function"
    },
    {
      "inputs": [
        {
          "internalType": "address",
          "name": "from",
          "type": "address"
        },
        {
          "internalType": "address",
          "name": "to",
          "type": "address"
        },
        {
          "internalType": "uint256",
          "name": "tokenId",
          "type": "uint256"
        }
      ],
      "name": "transferFrom",
      "outputs": [],
      "stateMutability": "nonpayable",
      "type": "function"
    },
    {
      "inputs": [
        {
          "internalType": "address",
          "name": "_newOwner",
          "type": "address"
        }
      ],
      "name": "transferOwnership",
      "outputs": [],
      "stateMutability": "nonpayable",
      "type": "function"
    },
    {
      "inputs": [
        {
          "internalType": "uint256",
          "name": "_projectId",
          "type": "uint256"
        }
      ],
      "name": "transferOwnershipToProject",
      "outputs": [],
      "stateMutability": "nonpayable",
      "type": "function"
    }
  ],
  "bytecode": {
    "object": "0x60c0604090808252346200021257818162006ebe803803809162000024828562000249565b833981010312620002125780516001600160a01b039290838116810362000212576020809301518481168103620002125760805260a0528051620000688162000217565b818460035492818416815260018060581b038460a01c1693848783015260f81c8382015260009380156000146200017a5750600093505116935b82825191620000b18362000217565b33835282015201523360035551913391167f8be0079c531659141344cd1fd0a4f28419497f9722a3daafe3b4186f6b6457e0600080a3600b80546001600160a01b03191630179055616c5090816200026e82396080518181816121c00152818161608401528181616126015281816162300152818161633a015281816164440152818161651201526165b5015260a0518181816109af015281816114d00152818161172f01528181611efd01528181611f8d01528181615d1101528181615e470152615fa80152f35b925050849060a051169160248551809481936331a9108f60e11b835260048301525afa90811562000208579083918391620001bc575b506000925093620000a2565b809250858092503d831162000200575b620001d8818362000249565b81010312620001fc5751908482168203620001f957508160009138620001b0565b80fd5b5080fd5b503d620001cc565b83513d84823e3d90fd5b600080fd5b606081019081106001600160401b038211176200023357604052565b634e487b7160e01b600052604160045260246000fd5b601f909101601f19168101906001600160401b03821190821017620002335760405256fe60806040526004361015610013575b600080fd5b60003560e01c806301ffc9a71461045f57806306fdde0314610456578063081812fc1461044d578063095ea7b31461044457806314ea9b061461043b5780631d153ca41461043257806323b872dd146104295780632407497e14610420578063245a45b5146104175780632a55205a1461040e5780632a596e53146104055780632b13c58f146103fc57806336c1a93b146103f35780633a46b1a8146103ea5780633fafa127146103e157806342842e0e146103d85780634ecba625146103cf578063525350ba146103c657806354c6d1f5146103bd578063557e7155146103b4578063587cde1e146103ab5780635c19a95c146103a257806361aec7a9146103995780636352211e1461039057806364640c1e146103875780636ac6d9411461037e57806370a0823114610375578063715018a61461036c5780637ba62bf9146103635780638b79543c1461035a5780638da5cb5b146103515780638e539e8c146103485780639494bf721461033f5780639521e3811461033657806395d89b411461032d578063975057e7146103245780639ab24eb01461031b578063a0bcfc7f14610312578063a220d69614610309578063a22cb46514610300578063a51cfd18146102f7578063aa4fb15b146102ee578063ad007d63146102e5578063b88d4fde146102dc578063ba23c36e146102d3578063c41c2f24146102ca578063c87b56dd146102c1578063ccb4807b146102b8578063d3419bf3146102af578063d46cf171146102a6578063da9ee8b71461029d578063df487e2614610294578063e8a3d4851461028b578063e985e9c5146102825763f2fde38b1461027a57600080fd5b61000e6126b6565b5061000e61264d565b5061000e6125b6565b5061000e612563565b5061000e61246d565b5061000e6123b1565b5061000e61231a565b5061000e6122f7565b5061000e6122c3565b5061000e612299565b5061000e612257565b5061000e6121ef565b5061000e6121a9565b5061000e612189565b5061000e6120fe565b5061000e61204e565b5061000e611e13565b5061000e611df0565b5061000e611d54565b5061000e611d2a565b5061000e611c82565b5061000e611bb9565b5061000e61189f565b5061000e61177a565b5061000e61175e565b5061000e611718565b5061000e6116b9565b5061000e611436565b5061000e611388565b5061000e61132b565b5061000e6112d8565b5061000e6112b9565b5061000e61123f565b5061000e61113a565b5061000e6110fa565b5061000e6110d0565b5061000e6110b1565b5061000e611086565b5061000e611067565b5061000e611020565b5061000e611001565b5061000e610eb0565b5061000e610e04565b5061000e610c0a565b5061000e610b19565b5061000e610a5f565b5061000e610a21565b5061000e6108f2565b5061000e6108bd565b5061000e610867565b5061000e6107f4565b5061000e610722565b5061000e6106d3565b5061000e6105f1565b5061000e61047a565b6001600160e01b031981160361000e57565b503461000e57602036600319011261000e576104c960043561049b81610468565b63ffffffff60e01b166304c494e160e31b81149081156104cd575b5060405190151581529081906020820190565b0390f35b63fbb38e0360e01b811491508115610579575b8115610568575b8115610557575b8115610546575b8115610503575b50386104b6565b6380ac58cd60e01b811491508115610535575b8115610524575b50386104fc565b6301ffc9a760e01b1490503861051d565b635b5e139f60e01b81149150610516565b63152a902d60e11b811491506104f5565b632b13c58f60e01b811491506104ee565b63da9ee8b760e01b811491506104e7565b6371700c6960e01b811491506104e0565b600091031261000e57565b60005b8381106105a85750506000910152565b8181015183820152602001610598565b906020916105d181518092818552858086019101610595565b601f01601f1916010190565b9060206105ee9281815201906105b8565b90565b503461000e576000806003193601126106d057604051908060045461061581613bd7565b808552916001918083169081156106a6575060011461064b575b6104c98561063f818703826115ba565b604051918291826105dd565b9250600483527f8a35acfbc15ff81a39ae7d344fd709f28e8600b4aa8c65c6b64bfe7fe36bd19b5b82841061068e57505050810160200161063f826104c961062f565b80546020858701810191909152909301928101610673565b8695506104c99693506020925061063f94915060ff191682840152151560051b820101929361062f565b80fd5b503461000e57602036600319011261000e5760206106f2600435613c11565b6040516001600160a01b039091168152f35b6001600160a01b0381160361000e57565b359061072082610704565b565b503461000e57604036600319011261000e5760043561074081610704565b6024356001600160a01b038061075583613ba4565b1680918416146107b25780331415908161078c575b5061077a5761077891614749565b005b60405163e5fa0e3560e01b8152600490fd5b600090815260086020908152604080832033845290915290205460ff161590503861076a565b60405163133f8be960e01b8152600490fd5b9181601f8401121561000e578235916001600160401b03831161000e576020808501948460051b01011161000e57565b503461000e57604036600319011261000e576004356001600160401b0380821161000e573660238301121561000e5781600401359181831161000e573660246101c085028301011161000e5760243591821161000e576107789261085e60249336906004016107c4565b93909201613005565b503461000e57600036600319011261000e57600b546040516001600160a01b039091168152602090f35b606090600319011261000e576004356108a981610704565b906024356108b681610704565b9060443590565b503461000e576108cc36610891565b906108d78233613c88565b1561077a5761077892614426565b60c4359061072082610704565b503461000e57602036600319011261000e5761077860043561091381610704565b61097a61091e612fcc565b610974610968602083019261093a84516001600160581b031690565b600091906001600160581b03811661097f5750516001600160a01b03169050925b516001600160581b031690565b6001600160581b031690565b9061600a565b61360c565b6040516331a9108f60e11b81526001600160581b0391909116600482015290506020816024816001600160a01b037f0000000000000000000000000000000000000000000000000000000000000000165afa918215610a14575b916109e6575b509261095b565b610a07915060203d8111610a0d575b6109ff81836115ba565b81019061271f565b386109df565b503d6109f5565b610a1c612734565b6109d9565b503461000e57602036600319011261000e57600435610a3f81610704565b60018060a01b031660005260116020526020604060002054604051908152f35b503461000e5760408060031936011261000e5760648160018060a01b03600c54168151928380926329c5eaf560e11b8252306004830152600435602483015260243560448301525afa918215610b0c575b6000918293610ad7575b50516001600160a01b039190911681526020810191909152604090f35b81610afd9294506104c993503d8511610b05575b610af581836115ba565b8101906127d9565b929091610aba565b503d610aeb565b610b14612734565b610ab0565b503461000e5760208060031936011261000e576001600160401b039060043582811161000e573660238201121561000e5780600401359183831161000e576024916006368486831b8401011161000e5760005b858110610b7557005b80821b83019060409182602319823603011261000e5785610bbe91846001955190808201908d83831090831117610bc4575b5260448a83013592838352013592839101526137b2565b01610b6c565b610bcc611532565b610ba7565b90816101e091031261000e5790565b602060031982011261000e57600435906001600160401b03821161000e576105ee91600401610bd1565b50610c1436610be0565b3415801590610d64575b8015610d54575b610d42576101c081016024610c3a82846148df565b9050108015610d0a575b610cf857610c55610c5d91836148df565b8101906149b4565b915050805160005b818110610c755761077883615500565b610c7f8184613227565b51610ca4610c97826000526006602052604060002090565b546001600160a01b031690565b610cbc610cb087612fc2565b6001600160a01b031690565b6001600160a01b0390911603610cde5790610cd8600192615569565b01610c65565b604051635caf197560e01b81526004810191909152602490fd5b604051632a84050f60e01b8152600490fd5b50610d1e610d1882846148df565b9061492a565b63fbb38e0360e01b916001600160e01b031991610d3a9161494c565b161415610c44565b604051633efca5c360e11b8152600490fd5b5060095460208201351415610c25565b50600a54610dae90602090610d81906001600160a01b0316610cb0565b600954604051636e49181f60e01b8152600481019190915233602482015292839190829081906044820190565b03915afa908115610df7575b600091610dc9575b5015610c1e565b610dea915060203d8111610df0575b610de281836115ba565b810190614e8f565b38610dc2565b503d610dd8565b610dff612734565b610dba565b503461000e5760208060031936011261000e576001600160401b039060043582811161000e57610e389036906004016107c4565b9190610e42615f0e565b60005b838110610e4e57005b60059080821b830135603e198436030181121561000e5783018035601e198236030181121561000e5781019283359388851161000e5786859101911b3603811361000e57600193610ea387610ea99401612fc2565b916139ce565b5001610e45565b503461000e57604036600319011261000e57600435610ece81610704565b6001600160a01b03166000908152600160208181526040832090929160243543811015610fbe57610efe90616a88565b825491849163ffffffff908116905b848410610f6157505050508015600014610f365750505b6040516001600160e01b039091168152f35b610f5c925090610f48610f5592614a1d565b9060005260206000200190565b5460201c90565b610f24565b9091929380851690808618851c8201809211610fb1575b8688528383838b8b2001541611600014610f975750935b929190610f0d565b945083810180911115610f8f57610fac6149ee565b610f8f565b610fb96149ee565b610f78565b6064856040519062461bcd60e51b825280600483015260248201527f436865636b706f696e74733a20626c6f636b206e6f7420796574206d696e65646044820152fd5b503461000e57600036600319011261000e576020600954604051908152f35b503461000e5761077861103236610891565b9060405192602084018481106001600160401b0382111761105a575b60405260008452613c49565b611062611532565b61104e565b503461000e57600036600319011261000e576020601054604051908152f35b503461000e57604036600319011261000e576110a361091e612fcc565b61077860243560043561369a565b503461000e57602036600319011261000e5760206106f2600435612741565b503461000e57600036600319011261000e57600d546040516001600160a01b039091168152602090f35b503461000e57602036600319011261000e57602060043561111a81610704565b60018060a01b038091166000526000825260406000205416604051908152f35b503461000e57602036600319011261000e5760043561115881610704565b33600090815260208190526040812080546001600160a01b038481166001600160a01b031983161790925591926111f19282166020604051848195851684337f3134e8a2e6d97e929a7e54011ea5485d7d196dd5f0ba4d4ef95803e8e3fc257f8b80a4600c54631266aaaf60e31b83523060048401523360248401526044918391165afa928315611224575b85936111f4575b506157c7565b80f35b61121691935060203d811161121d575b61120e81836115ba565b8101906127f8565b91386111eb565b503d611204565b61122c612734565b6111e4565b359060ff8216820361000e57565b503461000e57602036600319011261000e5760043560ff81169081810361000e577f197cbe84f592e417694036927858418efc958896363c034f9aaa25af88953beb9160209161128d615f0e565b600380546001600160f81b031660f89290921b6001600160f81b031916919091179055604051908152a1005b503461000e57602036600319011261000e5760206106f2600435613ba4565b503461000e57600036600319011261000e576020600f54604051908152f35b90815180825260208080930193019160005b828110611317575050505090565b835185529381019392810192600101611309565b503461000e57604036600319011261000e576004356001600160401b03811161000e576113746113626104c99236906004016107c4565b6024359161136f83610704565b6139ce565b6040519182916020835260208301906112f7565b503461000e57602036600319011261000e576104c96113e660206004356113ae81610704565b600c54604051633de222bb60e21b81523060048201526001600160a01b03928316602482015293849290911690829081906044820190565b03915afa908115611429575b60009161140b575b506040519081529081906020820190565b611423915060203d811161121d5761120e81836115ba565b386113fa565b611431612734565b6113f2565b503461000e576000806003193601126106d057611451615f0e565b6111f161145c612fcc565b60208101516001600160581b031690816114a157516001600160a01b031690505b61149c611488611628565b848152846020820152846040820152615d82565b615ea8565b506040516331a9108f60e11b81526001600160581b039190911660048201526020816024816001600160a01b037f0000000000000000000000000000000000000000000000000000000000000000165afa908115611525575b8391611507575b5061147d565b61151f915060203d8111610a0d576109ff81836115ba565b38611501565b61152d612734565b6114fa565b50634e487b7160e01b600052604160045260246000fd5b608081019081106001600160401b0382111761156457604052565b61156c611532565b604052565b6001600160401b03811161156457604052565b606081019081106001600160401b0382111761156457604052565b604081019081106001600160401b0382111761156457604052565b90601f801991011681019081106001600160401b0382111761156457604052565b604051906101c082018281106001600160401b0382111761156457604052565b604051906107208261159f565b6040519061012082018281106001600160401b0382111761156457604052565b6040519061072082611584565b6020906001600160401b03811161164e575b60051b0190565b611656611532565b611647565b81601f8201121561000e5780359161167283611635565b9261168060405194856115ba565b808452602092838086019260051b82010192831161000e578301905b8282106116aa575050505090565b8135815290830190830161169c565b503461000e57604036600319011261000e576001600160401b0360043581811161000e576116eb90369060040161165b565b9060243590811161000e5760209161170a611710923690600401610bd1565b50612a10565b604051908152f35b503461000e57600036600319011261000e576040517f00000000000000000000000000000000000000000000000000000000000000006001600160a01b03168152602090f35b503461000e57600036600319011261000e5760206106f2615cd6565b503461000e57602036600319011261000e576004354381101561188d576117a090616a88565b600280546000909263ffffffff809116905b8483106118075784806117cc575060405160008152602090f35b610f5c610f556117dd602093614a1d565b60026000527f405787fa12a823e0f2b7631cc41b3ba8828b3321ca811111fa75cd3aa3bb5ace0190565b90919293808416906001818618811c8301809311611880575b866000528484847f405787fa12a823e0f2b7631cc41b3ba8828b3321ca811111fa75cd3aa3bb5ace0154161160001461185f575050935b9291906117b2565b909594508101809111611873575b92611857565b61187b6149ee565b61186d565b6118886149ee565b611820565b6040516305b5e09b60e51b8152600490fd5b503461000e576118ae36610be0565b506020611710612a86565b6024359061072082610704565b6020906001600160401b0381116118e3575b601f01601f19160190565b6118eb611532565b6118d8565b9291926118fc826118c6565b9161190a60405193846115ba565b82948184528183011161000e578281602093846000960137010152565b9080601f8301121561000e578160206105ee933591016118f0565b6084359061072082610704565b35906001600160581b038216820361000e57565b359064ffffffffff8216820361000e57565b61ffff81160361000e57565b359061072082611975565b8015150361000e57565b35906107208261198c565b919091608090818185031261000e5760408051926119be84611549565b839583356001600160401b03811161000e57840181601f8201121561000e578035906119e982611635565b926119f6865194856115ba565b82845260209485850191866101c08096028501019381851161000e578701925b848410611a495750505092875250505080830135908401528082013590830152606090611a44908201610715565b910152565b858483031261000e57878691611a5d6115db565b611a668761194f565b8152611a73838801611963565b83820152611a828c8801611963565b8c8201526060611a93818901611981565b90820152611aa2868801610715565b8682015260a0611ab3818901611231565b9082015260c0611ac4818901610715565b9082015260e08088013590820152610100611ae0818901611981565b90820152610120611af2818901611996565b90820152610140611b04818901611996565b90820152610160611b16818901611996565b90820152610180611b28818901611996565b908201526101a0611b3a818901611996565b90820152815201930192611a16565b610124359061072082610704565b60809061014319011261000e5760405190611b7182611549565b8161014435611b7f8161198c565b815261016435611b8e8161198c565b602082015261018435611ba08161198c565b604082015260606101a43591611bb58361198c565b0152565b503461000e576101c036600319011261000e57611bd46118b9565b6044356001600160401b039182821161000e57611bf660049236908401611927565b60643584811161000e57611c0d9036908501611927565b611c15611942565b60a43586811161000e57611c2c9036908701611927565b611c346108e5565b9160e43588811161000e57611c4c9036908901611927565b936101043598891161000e57611c686107789936908a016119a1565b95611c71611b49565b97611c7b36611b57565b9935612c5d565b503461000e576000806003193601126106d0576040519080600554611ca681613bd7565b808552916001918083169081156106a65750600114611ccf576104c98561063f818703826115ba565b9250600583527f036b6384b5eca791c62761152d0c79bb0604c104a5fb6f4eb0703f3154bb3db05b828410611d1257505050810160200161063f826104c961062f565b80546020858701810191909152909301928101611cf7565b503461000e57600036600319011261000e57600c546040516001600160a01b039091168152602090f35b503461000e57602036600319011261000e57600435611d7281610704565b6001600160a01b031660009081526001602090815260409091206001600160e01b0390611d9e90616712565b16604051908152f35b90602060031983011261000e576004356001600160401b039283821161000e578060238301121561000e57816004013593841161000e576024848301011161000e576024019190565b503461000e57610778611e0236611da7565b90611e0e61091e612fcc565b61350a565b503461000e5760208060031936011261000e5760043590611e32615f0e565b8115801561203e575b61201e576001600160581b0380921691821590811580612016575b611fee579261077893611e67612fcc565b84611e7b818301516001600160581b031690565b6000938116611f5f575050516001600160a01b03169050925b611ebd611e9f611628565b600081526001600160581b0384168382015260006040820152615d82565b60009215611ed057505050600090615eda565b6040516331a9108f60e11b81526001600160581b0392909216600483015280826024816001600160a01b037f0000000000000000000000000000000000000000000000000000000000000000165afa928315611f52575b92611f35575b505090615eda565b611f4b9250803d10610a0d576109ff81836115ba565b3880611f2d565b611f5a612734565b611f27565b6040516331a9108f60e11b81526001600160581b039190911660048201529150816024816001600160a01b037f0000000000000000000000000000000000000000000000000000000000000000165afa918215611fe1575b91611fc4575b5092611e94565b611fdb9150843d8611610a0d576109ff81836115ba565b38611fbd565b611fe9612734565b611fb7565b6040516324abfd1160e11b8152600060048201526001600160581b0385166024820152604490fd5b506000611e56565b6040516324abfd1160e11b81526000600482015260248101839052604490fd5b506001600160581b038211611e3b565b503461000e57604036600319011261000e5760043561206c81610704565b6024356120788161198c565b6001600160a01b038216913383146120ec573360009081526008602090815260408083206001600160a01b039094168352929052209015159060ff1981541660ff83161790556040519081527f17307eab39ab6107e8899845ad3d59bd9653f200f220920489ca2b5937696c3160203392a3005b6040516306f8139d60e11b8152600490fd5b503461000e5761211561211036610be0565b614a46565b60409291928051938493845261213760209160608387015260608601906105b8565b90848203838601528080855193848152019401926000905b83821061215c5786860387f35b845180516001600160a01b031687528301518684015287965094850194938201936001919091019061214f565b503461000e57604036600319011261000e576107786024356004356137b2565b503461000e57600036600319011261000e576040517f00000000000000000000000000000000000000000000000000000000000000006001600160a01b03168152602090f35b503461000e57608036600319011261000e5760043561220d81610704565b60243561221981610704565b606435916001600160401b03831161000e573660238401121561000e5761224d6107789336906024816004013591016118f0565b9160443591613c49565b503461000e57600036600319011261000e5760606003546040519060018060a01b03811682526001600160581b038160a01c16602083015260f81c6040820152f35b503461000e57600036600319011261000e57600a546040516001600160a01b039091168152602090f35b503461000e57602036600319011261000e576104c96122e360043561286e565b6040519182916020835260208301906105b8565b503461000e5761077861230936611da7565b9061231561091e612fcc565b6135a4565b503461000e57600036600319011261000e57600e546040516001600160a01b039091168152602090f35b9190825261235e60209160608385015260608401906105b8565b90604092838184039101528080855193848152019401926000905b83821061238857505050505090565b845180516001600160a01b03168752830151868401529485019493820193600190910190612379565b503461000e576020600319818136011261000e57600435906001600160401b03821161000e576101a090823603011261000e576123ff6123f86101648301836004016148df565b36916118f0565b6040519061240c8261159f565b6001825260005b8481106124575750906104c99161012494600061242e6115fb565b3081529182015261243e8361320d565b526124488261320d565b50604051948594013584612344565b8490612461614911565b82828601015201612413565b5060031960203682011261000e57600435906001600160401b03821161000e5761020090823603011261000e576009543415908115916124e1575b81156124d2575b506124c05761077890600401614fec565b6040516331c57b1b60e21b8152600490fd5b905060248201351415386124af565b600a549091506124f9906001600160a01b0316610cb0565b604051636e49181f60e01b81526004810183905233602482015290602090829060449082905afa908115612556575b600091612538575b5015906124a8565b612550915060203d8111610df057610de281836115ba565b38612530565b61255e612734565b612528565b503461000e57602036600319011261000e5761077860043561258481610704565b6125b161258f612fcc565b6125ab610968602083019261093a84516001600160581b031690565b9061618d565b61343f565b503461000e576000806003193601126106d057600c54604051630155619b60e71b81523060048201526104c992918290829060249082906001600160a01b03165afa918215612640575b809261261d575b50506040519182916020835260208301906105b8565b61263992503d8091833e61263181836115ba565b810190612849565b3880612607565b612648612734565b612600565b503461000e57604036600319011261000e57602060ff6126aa60043561267281610704565b6024359061267f82610704565b60018060a01b03166000526008845260406000209060018060a01b0316600052602052604060002090565b54166040519015158152f35b503461000e57602036600319011261000e576004356126d481610704565b6126dc615f0e565b6001600160a01b03811680156126f55761077882615db7565b604490604051906324abfd1160e11b8252600482015260006024820152fd5b519061072082610704565b9081602091031261000e57516105ee81610704565b506040513d6000823e3d90fd5b600c546040516308ed6c0160e41b8152306004820152602481018390526001600160a01b0392916020908290604490829087165afa9081156127cc575b6000916127ae575b508281166127a857506127a3906000526006602052604060002090565b541690565b91505090565b6127c6915060203d8111610a0d576109ff81836115ba565b38612786565b6127d4612734565b61277e565b919082604091031261000e57602082516127f281610704565b92015190565b9081602091031261000e575190565b81601f8201121561000e57805161281d816118c6565b9261282b60405194856115ba565b8184526020828401011161000e576105ee9160208085019101610595565b9060208282031261000e5781516001600160401b03811161000e576105ee9201612807565b600c54612883906001600160a01b0316610cb0565b604051630fab094760e01b815230600482015290916020918281602481875afa908115612a03575b6000916129e6575b506001600160a01b03168061298e575060405163f682eeaf60e01b81523060048201526105ee93918390600083602481875afa928315612981575b600093612964575b50604051630c8df17160e41b81523060048201526024810191909152919282908180604481015b03915afa928315612957575b600093612938575b50506158ff565b61294f929350803d1061121d5761120e81836115ba565b903880612931565b61295f612734565b612929565b61297b9061291d943d8091833e61263181836115ba565b926128f6565b612989612734565b6128ee565b604051636d02a25560e11b8152600481019290925290925060009150829060249082905afa9081156129d9575b6000916129c6575090565b6105ee913d8091833e61263181836115ba565b6129e1612734565b6129bb565b6129fd9150833d8511610a0d576109ff81836115ba565b386128b3565b612a0b612734565b6128ab565b6020612a4a9160018060a01b03600c5416604051808095819463051330b560e21b83523060048401526040602484015260448301906112f7565b03915afa908115612a79575b600091612a61575090565b6105ee915060203d811161121d5761120e81836115ba565b612a81612734565b612a56565b600c54604051631572f24960e11b815230600482015290602090829060249082906001600160a01b03165afa908115612a7957600091612a61575090565b81601f8201121561000e57805191612adb83611635565b92612ae960405194856115ba565b808452602092838086019260051b82010192831161000e578301905b828210612b13575050505090565b81518152908301908301612b05565b9060208282031261000e5781516001600160401b03811161000e576105ee9201612ac4565b60208082019080835283518092528060408094019401926000905b838210612b7157505050505090565b9091929394836101c0600192612c508951612b958382516001600160581b03169052565b8085015164ffffffffff16838601528087015164ffffffffff168388015260608181015161ffff16908401526080818101516001600160a01b03169084015260a08181015160ff169084015260c0818101516001600160a01b03169084015260e081810151908401526101008082015161ffff1690840152610120818101511515908401526101408181015115159084015261016081810151151590840152610180818101511515908401526101a090810151151590830152565b0196019493920190612b62565b9092999896939197959499612c7c610cb0600b5460018060a01b031690565b301461000e57600c546001600160a01b0399908a90612c9c908216610cb0565b1661000e57612cd094612cae93614b77565b60018060a01b03166bffffffffffffffffffffffff60a01b600d541617600d55565b600c80546001600160a01b0319166001600160a01b038616179055612cf86020840151600f55565b604096612d0788850151601055565b6060840151600e80546001600160a01b0319166001600160a01b039092169190911790558051612f4c575b508051612eed575b50838116612e8c575b50518051612e29575b50825115158015612e1c575b8015612e10575b8015612e03575b612d78575b5050505061072033615db7565b1691823b1561000e57516365c13f1960e11b815281511515600482015260208201511515602482015260408201511515604482015260609091015115156064820152906000908290608490829084905af18015612df6575b612ddd575b808080612d6b565b80612dea612df092611571565b8061058a565b38612dd5565b612dfe612734565b612dd0565b5060608301511515612d66565b50828401511515612d5f565b5060208301511515612d58565b6000612e48918651809381926386a5100760e01b835260048301612b47565b0381838787165af18015612e7f575b15612d4c57612e78903d806000833e612e7081836115ba565b810190612b22565b5038612d4c565b612e87612734565b612e57565b838316803b1561000e57865163036129cb60e61b81526001600160a01b039290921660048301526000908290602490829084905af18015612ee0575b15612d435780612dea612eda92611571565b38612d43565b612ee8612734565b612ec8565b848416803b1561000e57875163d67b78fd60e01b8152916000918391829084908290612f1c90600483016105dd565b03925af18015612f3f575b15612d3a5780612dea612f3992611571565b38612d3a565b612f47612734565b612f27565b858516803b1561000e5788516331315e5960e11b8152916000918391829084908290612f7b90600483016105dd565b03925af18015612f9e575b15612d325780612dea612f9892611571565b38612d32565b612fa6612734565b612f86565b50634e487b7160e01b600052603260045260246000fd5b356105ee81610704565b60405190612fd982611584565b6003546001600160a01b038116835260a081901c6001600160581b0316602084015260f81c6040830152565b90610720939291613039613017612fcc565b613033610968602083019261093a84516001600160581b031690565b90616297565b61328b565b602080825281018390526001600160fb1b03831161000e5760409260051b809284830137010190565b91908110156130775760051b0190565b611656612fab565b906107209161309e826130918361194f565b6001600160581b03169052565b6130bb6130ad60208301611963565b64ffffffffff166020840152565b6130d86130ca60408301611963565b64ffffffffff166040840152565b6130f26130e760608301611981565b61ffff166060840152565b61311161310160808301610715565b6001600160a01b03166080840152565b61312a61312060a08301611231565b60ff1660a0840152565b61314961313960c08301610715565b6001600160a01b031660c0840152565b60e081013560e083015261316e610100613164818401611981565b61ffff1690840152565b61318761012061317f818401611996565b151590840152565b61319861014061317f818401611996565b6131a961016061317f818401611996565b6131ba61018061317f818401611996565b6131c86101a0809201611996565b1515910152565b602080825281018390526040019160005b8181106131ed5750505090565b909192806131fd6001928661307f565b6101c090810194019291016131e0565b60209080511561321b570190565b613223612fab565b0190565b602091815181101561323c575b60051b010190565b613244612fab565b613234565b916101c09181101561325a57020190565b613262612fab565b020190565b9092916101c09061327d836101e081019661307f565b6001600160a01b0316910152565b9190928061337a575b50508161329f575050565b600c546132b4906001600160a01b0316610cb0565b916040906000825180956386a5100760e01b82528183816132d9878a600484016131cf565b03925af193841561336d575b600094613352575b5060005b8181106132ff575050505050565b8061330c60019287613227565b517f94fa90e7e0c9e633db6056cdda599aa1c789587d7971ed761612032de6237c7f61334961333c84878a613249565b8751918291339083613267565b0390a2016132f1565b61336691943d8091833e612e7081836115ba565b92386132ed565b613375612734565b6132e5565b600c5461338f906001600160a01b0316610cb0565b90813b1561000e576040916000835180926320512ba160e01b82528183816133bb888b6004840161303e565b03925af18015613432575b61341f575b5060005b8181106133dd575050613294565b806133eb6001928487613067565b84513381529035907f832d89d991be5351d793c20faf4b7dd44f8aa9ce39e3cb160c6317de6fbba72990602090a2016133cf565b80612dea61342c92611571565b386133cb565b61343a612734565b6133c6565b600c546001600160a01b0390811691823b1561000e576000916024839260405194859384926317161f7d60e01b845216968760048401525af180156134c0575b6134b1575b507fab0014d4c7a642a02a31b303a318908c22b0fb2001f107278fc6076b4c671b656020604051338152a2565b6134ba90611571565b38613484565b6134c8612734565b61347f565b90918060409360208452816020850152848401376000828201840152601f01601f1916010190565b81604051928392833781016000815203902090565b600c546001600160a01b03169190823b1561000e576040516331315e5960e11b815261355c9360009082908183816135468989600484016134cd565b03925af18015613597575b613588575b506134f5565b7f7bc9110d5de090dd59e07912d2b93a5a27ac70a60c8d8e324db4f9ee8b8b5c136020604051338152a2565b61359190611571565b38613556565b61359f612734565b613551565b600c546001600160a01b03169190823b1561000e5760405163d67b78fd60e01b81526135e09360009082908183816135468989600484016134cd565b7fd36dc0c1a06103fdcaf15f3f6fb797d1a97997514c78de073640c8b5005454b86020604051338152a2565b600c546001600160a01b0390811691823b1561000e5760009160248392604051948593849263036129cb60e61b845216968760048401525af1801561368d575b61367e575b507fe7784d93cfbfa4408e19577e6cc0436f4dbb51214b70e100905dfce9def88c166020604051338152a2565b61368790611571565b38613651565b613695612734565b61364c565b600c549091906001600160a01b0316803b1561000e577f677da4fed654db8e604791fa2582f342e2001aa217e27f6985eb3e0f67e5a7fc9160008061371d936044604051809481936324de8d6360e11b83528a60048401528760248401525af18015613731575b613722575b506040805191825233602083015290918291820190565b0390a2565b61372b90611571565b38613706565b613739612734565b613701565b908161012091031261000e57613752611608565b90805182526020810151602083015260408101516040830152606081015160608301526080810151608083015260a081015160a083015260c081015160c083015261379f60e08201612714565b60e0830152610100809101519082015290565b600d546137c7906001600160a01b0316610cb0565b9061382560ff6101006137fe60095495604096875180926321d1336160e11b82528180610120968795600483019190602083019252565b03915afa9182156139c1575b600092613994575b5050015160f41c1660018091811c161490565b61398357600c5461383e906001600160a01b0316610cb0565b8251635d53f40760e11b8152600481018390526024810185905292906000908490604490829084905af1928315613976575b60009361395b575b50600c5461388e906001600160a01b0316610cb0565b81516304db994760e21b8152306004820152602481018490529390602090859060449082905afa93841561394e575b60009461392e575b5060005b8581106138d857505050505050565b806138e560019284613227565b516138f08188613d00565b845133815260a084901b84900388169187917f031e1988c95a91ec4d655ff63a8f87a80bc9daf28d95ae10ee08c0022cfb5c8b90602090a4016138c9565b61394791945060203d8111610a0d576109ff81836115ba565b92386138c5565b613956612734565b6138bd565b61396f91933d8091833e612e7081836115ba565b9138613878565b61397e612734565b613870565b8151631d2c125760e31b8152600490fd5b6139b39250803d106139ba575b6139ab81836115ba565b81019061373e565b3880613812565b503d6139a1565b6139c9612734565b61380a565b906105ee9291613a016139df612fcc565b6139fb610968602083019261093a84516001600160581b031690565b906163a1565b613a95565b919060408382031261000e5782516001600160401b03811161000e576020916127f2918501612ac4565b929160608401906000198552806020926060848801525260808501929160005b828110613a6557505050506040600191930152565b90919293828060019261ffff8835613a7c81611975565b16815201950193929101613a50565b356105ee81611975565b600c549193929091613aaf906001600160a01b0316610cb0565b9160409060008251809563eaa19ab360e01b8252818381613ad48c8860048401613a30565b03925af1938415613b97575b600094613b73575b50839560005b818110613afd57505050505050565b80613b0a60019288613227565b51613b158188613d00565b61ffff613b2b613b26848789613067565b613a8b565b87516000815233602082015260a086901b8690038a169391909216917f598baf7bf150ca2f42be9e9f8f55e81d45f5715c3ff22bf46d697fabec7f31d690604090a401613aee565b613b8f91943d8091833e613b8781836115ba565b810190613a06565b509238613ae8565b613b9f612734565b613ae0565b6000908152600660205260409020546001600160a01b03168015613bc55790565b60405163b49aa3b560e01b8152600490fd5b90600182811c92168015613c07575b6020831014613bf157565b634e487b7160e01b600052602260045260246000fd5b91607f1691613be6565b6000818152600660205260409020546001600160a01b031615613bc5576000908152600760205260409020546001600160a01b031690565b929190613c568233613c88565b1561077a5783613c6a8383613c6f97614426565b614823565b15613c7657565b6040516336f57c1b60e11b8152600490fd5b6001600160a01b0380613c9a84613ba4565b169281831692848414948515613cd0575b50508315613cba575b50505090565b613cc691929350613c11565b1614388080613cb4565b60009081526008602090815260408083206001600160a01b03949094168352929052205460ff1693503880613cab565b6001600160a01b0381169291908315613e96576000828152600660205260409020546001600160a01b0316613e8457600082815260066020526040812080546001600160a01b0319166001600160a01b03841617905593613dc292908190867fddf252ad1be2c89b69c2b068fc378daa952ba7f163c4a11628f55a4df523b3ef8180a4600c548590613d9a906001600160a01b0316610cb0565b60405163b67cb04760e01b815230600482015260248101939093529193849081906044820190565b0381845afa928315613e77575b8593613e53575b508251813b15613e4f576040516330b157e560e21b81526004810191909152600060248201526001600160a01b0383166044820152939461072094918290606490829084905af18015613e42575b613e2f575b506141a1565b80612dea613e3c92611571565b38613e29565b613e4a612734565b613e24565b8580fd5b613e709193503d8087833e613e6881836115ba565b810190613eb3565b9138613dd6565b613e7f612734565b613dcf565b604051632eb5f0c360e21b8152600490fd5b604051633904578f60e11b8152600490fd5b51906107208261198c565b60208183031261000e5780516001600160401b039182821161000e57016101c08184031261000e57613ee36115db565b92815184526020820151602085015260408201516040850152606082015160608501526080820151608085015260a082015160a0850152613f2660c08301612714565b60c085015260e082015160e0850152610100613f43818401612714565b9085015261012080830151908501526101408083015190850152610160613f6b818401613ea8565b90850152610180613f7d818401613ea8565b908501526101a0928383015190811161000e57613f9a9201612807565b9082015290565b600c54613fe893929190613fbd906001600160a01b0316610cb0565b60405163b67cb04760e01b815230600482015260248101939093526000948590849081906044820190565b0381845afa928315614091575b8593614075575b508251813b15613e4f576040516330b157e560e21b815260048101919091526001600160a01b038316602482015260006044820152939461072094918290606490829084905af18015614068575b614055575b506142ad565b80612dea61406292611571565b3861404f565b614070612734565b61404a565b61408a9193503d8087833e613e6881836115ba565b9138613ffc565b614099612734565b613ff5565b600c546140e694939291906140bb906001600160a01b0316610cb0565b60405163b67cb04760e01b815230600482015260248101949094526000958690859081906044820190565b0381845afa938415614194575b8694614178575b508351813b15614174576040516330b157e560e21b815260048101919091526001600160a01b03838116602483015284166044820152949561072095918290606490829084905af18015614167575b614154575b5061436c565b80612dea61416192611571565b3861414e565b61416f612734565b614149565b8680fd5b61418d9194503d8088833e613e6881836115ba565b92386140fa565b61419c612734565b6140f3565b9060800151806141af575050565b6001600160e01b0391826141c16166ba565b168281018091116142a0575b6141d643616a88565b84821161424b57610720946141ec9216906168ad565b50506001600160a01b0390811690811561423b575b600060208190527fad3228b676f7d3cd4284a5443f17f1962b36e491b30a40b2405849e597ba5fb5549281526040902054811691166157c7565b6142448361661c565b5050614201565b60405162461bcd60e51b815260206004820152602760248201527f53616665436173743a2076616c756520646f65736e27742066697420696e20326044820152663234206269747360c81b6064820152608490fd5b6142a86149ee565b6141cd565b9060800151806142bb575050565b6001600160a01b039182168015614319575b610720926142da8361661c565b50506000918252602082905260408220549180527fad3228b676f7d3cd4284a5443f17f1962b36e491b30a40b2405849e597ba5fb554811691166157c7565b6001600160e01b03928361432b6166ba565b1683810180911161435f575b61434043616a88565b85821161424b57610720956143569216906168ad565b505092506142cd565b6143676149ee565b614337565b909160800151908161437d57505050565b6001600160a01b039081169081156143cf575b8061072094169182156143bf575b600052600060205280604060002054169160005260406000205416906157c7565b6143c88461661c565b505061439e565b6001600160e01b03806143e06166ba565b1694848601809611614419575b6143f643616a88565b9582811161424b5761072096849361440f9216906168ad565b5050945050614390565b6144216149ee565b6143ed565b92919061443282613ba4565b6001600160a01b03808616959181168690036146e3578083169081156146d157866144ba575b5083906107209596614469836146f5565b600083815260066020526040902080546001600160a01b0319166001600160a01b0387161790557fddf252ad1be2c89b69c2b068fc378daa952ba7f163c4a11628f55a4df523b3ef600080a461409e565b600c549096906144d2906001600160a01b0316610cb0565b60405163b67cb04760e01b8152306004820152602481018790526000989061451790610180908b81604481885afa9081156146c4575b8c916146aa575b500151151590565b614605575b6040516308ed6c0160e41b815230600482015260248101889052602081604481865afa9081156145f8575b8a916145da575b50161561455d575b5095614458565b803b156145d657604051638cec7d3960e01b8152600481018790526001600160a01b0385166024820152969761072097879493929091908290604490829084905af180156145c9575b6145b6575b509091879650614556565b80612dea6145c392611571565b386145ab565b6145d1612734565b6145a6565b8780fd5b6145f2915060203d8111610a0d576109ff81836115ba565b3861454e565b614600612734565b614547565b61466960ff6101008b614622610cb0600d5460018060a01b031690565b6009546040516321d1336160e11b8152600481019190915290610120908190839060249082905afa92831561469d575b92614680575b5050015160f41c1660018091161490565b1561451c576040516318cdaf9760e01b8152600490fd5b6146969250803d106139ba576139ab81836115ba565b3880614658565b6146a5612734565b614652565b6146be91503d808e833e613e6881836115ba565b3861450f565b6146cc612734565b614508565b604051632c95542760e01b8152600490fd5b60405163a195bc5360e01b8152600490fd5b600081815260076020526040812080546001600160a01b03191690556001600160a01b0361472283613ba4565b167f8c5be1e5ebec7d5bd14f71427d1e84f3dd0314c0f7b2291e5b200ac8c7c3b9258280a4565b600082815260076020526040902080546001600160a01b0319166001600160a01b0383161790556001600160a01b038061478284613ba4565b169116907f8c5be1e5ebec7d5bd14f71427d1e84f3dd0314c0f7b2291e5b200ac8c7c3b925600080a4565b9081602091031261000e57516105ee81610468565b6001600160a01b0391821681529116602082015260408101919091526080606082018190526105ee929101906105b8565b3d1561481e573d90614804826118c6565b9161481260405193846115ba565b82523d6000602084013e565b606090565b92909190823b156148d657614856926020926000604051809681958294630a85bd0160e11b9a8b855233600486016147c2565b03926001600160a01b03165af1600091816148a6575b50614898576148796147f3565b80519081614893576040516336f57c1b60e11b8152600490fd5b602001fd5b6001600160e01b0319161490565b6148c891925060203d81116148cf575b6148c081836115ba565b8101906147ad565b903861486c565b503d6148b6565b50505050600190565b903590601e198136030182121561000e57018035906001600160401b03821161000e5760200191813603831361000e57565b6040519061491e8261159f565b60006020838281520152565b9060241161000e5760200190600490565b9060441161000e5760400190600490565b6001600160e01b0319903581811693926004811061496957505050565b60040360031b82901b16169150565b604051906149858261159f565b600182528160005b602090818110156149af576020916149a3614911565b9082850101520161498d565b505050565b9160608383031261000e5782359260208101356149d081610468565b9260408201356001600160401b03811161000e576105ee920161165b565b50634e487b7160e01b600052601160045260246000fd5b90612710918203918211614a1557565b6107206149ee565b600019810191908211614a1557565b91908203918211614a1557565b91908201809211614a1557565b906080820135614b65576101c08201906024614a6283856148df565b9050108015614b33575b610cf857614ab6614aae610c55614a81614978565b94614a8a6115fb565b30815260006020820152614a9d8761320d565b52614aa78661320d565b50866148df565b915050612a10565b614abe612a86565b90614ace828260c0880135616b75565b91610180860135916127108314614b1d5792614b0783614b01614b0d94614b1997614afb6123f898614a05565b90616b75565b90614a39565b90616aed565b946101a08101906148df565b9190565b505050926123f8816101a0614b199301906148df565b50614b41610d1883856148df565b63fbb38e0360e01b916001600160e01b031991614b5d9161494c565b161415614a6c565b6040516309f82f1b60e31b8152600490fd5b919290928051906001600160401b038211614ca9575b614ba182614b9c600454613bd7565b614cb6565b60209081601f8411600114614c1557509282610720969593614be393614be896600092614c0a575b50508160011b916000199060031b1c191617600455614d98565b600955565b60018060a01b03166bffffffffffffffffffffffff60a01b600a541617600a55565b015190503880614bc9565b60046000529190601f1984167f8a35acfbc15ff81a39ae7d344fd709f28e8600b4aa8c65c6b64bfe7fe36bd19b936000905b828210614c9157505093614be393614be89693600193836107209b9a9810614c78575b505050811b01600455614d98565b015160001960f88460031b161c19169055388080614c6a565b80600186978294978701518155019601940190614c47565b614cb1611532565b614b8d565b601f8111614cc2575050565b600090600482527f8a35acfbc15ff81a39ae7d344fd709f28e8600b4aa8c65c6b64bfe7fe36bd19b906020601f850160051c83019410614d1d575b601f0160051c01915b828110614d1257505050565b818155600101614d06565b9092508290614cfd565b601f8111614d33575050565b600090600582527f036b6384b5eca791c62761152d0c79bb0604c104a5fb6f4eb0703f3154bb3db0906020601f850160051c83019410614d8e575b601f0160051c01915b828110614d8357505050565b818155600101614d77565b9092508290614d6e565b9081516001600160401b038111614e82575b614dbe81614db9600554613bd7565b614d27565b602080601f8311600114614dfa5750819293600092614def575b50508160011b916000199060031b1c191617600555565b015190503880614dd8565b90601f19831694614e2d60056000527f036b6384b5eca791c62761152d0c79bb0604c104a5fb6f4eb0703f3154bb3db090565b926000905b878210614e6a575050836001959610614e51575b505050811b01600555565b015160001960f88460031b161c19169055388080614e46565b80600185968294968601518155019501930190614e32565b614e8a611532565b614daa565b9081602091031261000e57516105ee8161198c565b604d8111614eb3575b600a0a90565b614ebb6149ee565b614ead565b9160a08383031261000e5782359260209182820135936040830135614ee481610468565b936060840135614ef38161198c565b936080810135906001600160401b03821161000e57019180601f8401121561000e578235614f2081611635565b93614f2e60405195866115ba565b818552838086019260051b82010192831161000e578301905b828210614f55575050505090565b8380918335614f6381611975565b815201910190614f47565b9081608091031261000e57606060405191608083018381106001600160401b03821117614fdf575b6040528051614fa48161198c565b83526020810151614fb48161198c565b60208401526040810151614fc78161198c565b60408401520151614fd78161198c565b606082015290565b614fe7611532565b614f96565b600060c082013590600f548083146000146152ef5750505060808101355b61018082019161503661501c84612fc2565b6001600160a01b0316600090815260116020526040902090565b5492829360009361504684612fc2565b95615053610cb085612fc2565b6001600160a01b03978816036152e457508101925b6000906101e0810190604461507d83836148df565b905011806152ad575b6151c5575b505083156151585715615146576150f19361501c930180958282116000146150f4577f2fb2733fb01b76e3290fa8b695d18e026ddd19c0a265ab90e95152e57da303366150d785612fc2565b60405133815292169383039180602081015b0390a4612fc2565b55565b818311615104575b505050612fc2565b7fe0e7c81cf67a96dd0e39bcf11521b1f4c0098cc1dbe8c30750a11d9ebfc3ed4d8261512f86612fc2565b6040513381529316940391602090a43884816150fc565b604051631b57826960e21b8152600490fd5b50915082829493940361516c575b50505050565b6151bb928461517e8161501c95614a2c565b7fe0e7c81cf67a96dd0e39bcf11521b1f4c0098cc1dbe8c30750a11d9ebfc3ed4d6151a885612fc2565b60405133815294169380602081016150e9565b5538808080615166565b6151dc9250906151d4916148df565b810190614ec0565b9250925050818061521f575b615216575b80516151fa575b8061508b565b9361520f919461520985612fc2565b916153f1565b92386151f4565b600091506151ed565b50600c546152739060609061523c906001600160a01b0316610cb0565b604051634228826f60e11b815230600482015290608090829060249082905afa9081156152a0575b60009161527857500151151590565b6151e8565b6146be915060803d8111615299575b61529181836115ba565b810190614f6e565b503d615287565b6152a8612734565b615264565b506152c16152bb83836148df565b9061493b565b63fbb38e0360e01b916001600160e01b0319916152dd9161494c565b1614615086565b939450508093615068565b600e546001600160a01b031692831561539a57602061534b9161536895615317601054614ea4565b94604051809581948293635268657960e11b845260a08d013591600485016040919493926060820195825260208201520152565b03915afa92831561538d575b9261536d575b506080840135616b75565b61500a565b61538691925060203d811161121d5761120e81836115ba565b903861535d565b615395612734565b615357565b5050505050565b929190606084019084526020906060828601528251809152816080860193019160005b8281106153d957505050506040600091930152565b835161ffff16855293810193928101926001016153c4565b600c54929392615409906001600160a01b0316610cb0565b6040805163eaa19ab360e01b815295600094919285908890818381615432888b600484016153a1565b03925af180156154f3575b859786916154d3575b50968051955b86811061545c5750505050505050565b8061546960019284613227565b516154748186613d00565b61ffff61548c6154848489613227565b5161ffff1690565b88518a815233602082015260a086901b86900388169391909216917f598baf7bf150ca2f42be9e9f8f55e81d45f5715c3ff22bf46d697fabec7f31d690604090a40161544c565b90506154ea9197503d8087833e613b8781836115ba565b96909638615446565b6154fb612734565b61543d565b600c546001600160a01b0316803b1561000e576040516386bc2be360e01b8152602060048201529160009183918290849082906155419060248301906112f7565b03925af1801561555c575b6155535750565b61072090611571565b615564612734565b61554c565b9061557382613ba4565b6001600160a01b03808216939190846155dc575b508160006107209495615599836146f5565b82825260066020526040822080546001600160a01b03191690557fddf252ad1be2c89b69c2b068fc378daa952ba7f163c4a11628f55a4df523b3ef8280a4613fa1565b600c549094906155f4906001600160a01b0316610cb0565b60405163b67cb04760e01b8152306004820152602481018590526000969061563890610180908981604481885afa9081156157ba575b8a916157a657500151151590565b615723575b6040516308ed6c0160e41b815230600482015260248101869052602081604481865afa908115615716575b88916156f8575b50161561567e575b5093615587565b803b15613e4f57604051638cec7d3960e01b8152600481018590526001600160a01b038416602482015294956107209585936000939092908290604490829084905af180156156eb575b6156d8575b509150859450615677565b80612dea6156e592611571565b386156cd565b6156f3612734565b6156c8565b615710915060203d8111610a0d576109ff81836115ba565b3861566f565b61571e612734565b615668565b600d546157649061573c906001600160a01b0316610cb0565b60095460405180926321d1336160e11b82528180610120968795600483019190602083019252565b03915afa8015615799575b61577b575b505061563d565b8161579192903d106139ba576139ab81836115ba565b503880615774565b6157a1612734565b61576f565b6146be91503d808c833e613e6881836115ba565b6157c2612734565b61562a565b6001600160a01b038083169392911680841415806158f6575b6157ea5750505050565b80615858575b50826157fd575b80615166565b6001600160a01b031660009081526001602052604090207fdec2bacdd2f05b59de34da9b523dff8be42e5e38e818c82fdb0bae774387a7249161583f9161666e565b60408051928352602083019190915290a23880806157f7565b60008181526001602052604090206001600160e01b038061587883616712565b168581039081116158e9575b61588d43616a88565b9082811161424b577fdec2bacdd2f05b59de34da9b523dff8be42e5e38e818c82fdb0bae774387a724936158e092846158c79316916169af565b6040805192851683529316602082015291829190820190565b0390a2386157f0565b6158f16149ee565b615884565b508215156157e0565b906105ee9061592d604051602092609160f51b8483015260228201526022815261592881611584565b615a48565b9260405193816159468693518092868087019101610595565b820161595a82518093868085019101610595565b010380845201826115ba565b604051602081018181106001600160401b0382111761598f575b60405260008152906000368137565b615997611532565b615980565b604051906105e082018281106001600160401b038211176159ca575b604052602e82526105c0366020840137565b6159d2611532565b6159b8565b906159e182611635565b6159ee60405191826115ba565b82815280926159ff601f1991611635565b0190602036910137565b906020918051821015615a1b57010190565b615a23612fab565b010190565b8115615a32570490565b634e487b7160e01b600052601260045260246000fd5b90815115615b6757615a5861599c565b9160009081615a668561320d565b5260019181519181925b808410615a965750505050615a8c615a91916105ee9394615b71565b615bb4565b615bfb565b90919294615ac7615ac1615abb615aad8987615a09565b516001600160f81b03191690565b60f81c90565b60ff1690565b9184925b60ff9089828916861015615b265760019291614b01615afa615ac1615af38a615b0096613227565b5160ff1690565b60081b90565b615b1d8b615b1588603a958686061692613227565b9060ff169052565b04930192615acb565b50919594935050809691965b615b40575060010192615a70565b9460ff6001603a92615b5d83858b0616615b158d86851690613227565b0116950480615b32565b90506105ee615966565b9060ff80911690615b81826159d7565b9260005b838110615b93575050505090565b8083615ba160019385613227565b5116615bad8288613227565b5201615b85565b908151615bc0816159d7565b9060005b818110615bd2575090925050565b60019060ff615be8600019838951030188613227565b5116615bf48286613227565b5201615bc4565b8051615c06816118c6565b91604090615c16825194856115ba565b828452601f19615c25846118c6565b016020903682870137600092835b858110615c435750505050505090565b6001908251615c5181611584565b603a81527f31323334353637383941424344454647484a4b4c4d4e50515253545556575859858201527f5a6162636465666768696a6b6d6e6f707172737475767778797a000000000000848201526001600160f81b031990615cc19060ff615cb9858a613227565b511690615a09565b5116861a615ccf828a615a09565b5301615c33565b615cde612fcc565b6001600160581b03602082015116908115615d7357506040516331a9108f60e11b815260048101919091526020816024817f00000000000000000000000000000000000000000000000000000000000000006001600160a01b03165afa908115615d66575b600091615d4e575090565b6105ee915060203d8111610a0d576109ff81836115ba565b615d6e612734565b615d43565b516001600160a01b0316919050565b60018060a01b038151166001600160581b0360a01b602083015160a01b1691604060ff60f81b91015160f81b16911717600355565b61072090615dc3612fcc565b6020810151600091906001600160581b031680615e175750516001600160a01b031690505b615e12615df3611628565b6001600160a01b03841681526000602082015260006040820152615d82565b615eda565b6040516331a9108f60e11b81526001600160581b0391909116600482015290506020816024816001600160a01b037f0000000000000000000000000000000000000000000000000000000000000000165afa918215615e9b575b91615e7d575b50615de8565b615e95915060203d8111610a0d576109ff81836115ba565b38615e77565b615ea3612734565b615e71565b6000906001600160a01b03167f8be0079c531659141344cd1fd0a4f28419497f9722a3daafe3b4186f6b6457e08280a3565b6001600160a01b0391821691167f8be0079c531659141344cd1fd0a4f28419497f9722a3daafe3b4186f6b6457e0600080a3565b610720615f19612fcc565b6020810180516001600160581b0390600090821680615f6d575050825160ff90615f6490604090615f5b906001600160a01b031695516001600160581b031690565b95015160ff1690565b169216906164ab565b604080516331a9108f60e11b81526001600160581b0392909216600483015260ff92615f6492615f5b91906020816024816001600160a01b037f0000000000000000000000000000000000000000000000000000000000000000165afa918215615ffd575b91615fdf575b509561095b565b615ff7915060203d8111610a0d576109ff81836115ba565b38615fd8565b616005612734565b615fd2565b6001600160a01b0381811633141592836160ea575b5082616040575b505061602e57565b60405163075fd2b160e01b8152600490fd5b60405163c161c93f60e01b81523360048201526001600160a01b039092166024830152600060448301526016606483015290915060209082908180608481015b03917f0000000000000000000000000000000000000000000000000000000000000000165afa9081156160dd575b6000916160bf575b50153880616026565b6160d7915060203d8111610df057610de281836115ba565b386160b6565b6160e5612734565b6160ae565b60405163c161c93f60e01b81523360048201526001600160a01b03841660248201526044810191909152601660648201529092506020816084817f000000000000000000000000000000000000000000000000000000000000000087165afa908115616180575b600091616162575b5015913861601f565b61617a915060203d8111610df057610de281836115ba565b38616159565b616188612734565b616151565b6001600160a01b0381811633141592836161f4575b50826161b057505061602e57565b60405163c161c93f60e01b81523360048201526001600160a01b03909216602483015260006044830152601760648301529091506020908290818060848101616080565b60405163c161c93f60e01b81523360048201526001600160a01b03841660248201526044810191909152601760648201529092506020816084817f000000000000000000000000000000000000000000000000000000000000000087165afa90811561628a575b60009161626c575b501591386161a2565b616284915060203d8111610df057610de281836115ba565b38616263565b616292612734565b61625b565b6001600160a01b0381811633141592836162fe575b50826162ba57505061602e57565b60405163c161c93f60e01b81523360048201526001600160a01b03909216602483015260006044830152601560648301529091506020908290818060848101616080565b60405163c161c93f60e01b81523360048201526001600160a01b03841660248201526044810191909152601560648201529092506020816084817f000000000000000000000000000000000000000000000000000000000000000087165afa908115616394575b600091616376575b501591386162ac565b61638e915060203d8111610df057610de281836115ba565b3861636d565b61639c612734565b616365565b6001600160a01b038181163314159283616408575b50826163c457505061602e57565b60405163c161c93f60e01b81523360048201526001600160a01b03909216602483015260006044830152601860648301529091506020908290818060848101616080565b60405163c161c93f60e01b81523360048201526001600160a01b03841660248201526044810191909152601860648201529092506020816084817f000000000000000000000000000000000000000000000000000000000000000087165afa90811561649e575b600091616480575b501591386163b6565b616498915060203d8111610df057610de281836115ba565b38616477565b6164a6612734565b61646f565b916001600160a01b038084163314159283616579575b50826164d2575b5050905061602e57565b60405163c161c93f60e01b81523360048201526001600160a01b0394909416602485015260006044850152606484019190915260209150829060849082907f0000000000000000000000000000000000000000000000000000000000000000165afa90811561656c575b60009161654e575b50158038806164c8565b616566915060203d8111610df057610de281836115ba565b38616544565b616574612734565b61653c565b60405163c161c93f60e01b81523360048201526001600160a01b03861660248201526044810191909152606481018390529092506020816084817f000000000000000000000000000000000000000000000000000000000000000087165afa90811561660f575b6000916165f1575b501591386164c1565b616609915060203d8111610df057610de281836115ba565b386165e8565b616617612734565b6165e0565b6001600160e01b0391908261662f6166ba565b16908103908111616661575b61664443616a88565b9083811161424b5783918261665a9216906168ad565b9316921690565b6166696149ee565b61663b565b6001600160e01b0392918361668283616712565b169081018091116166ad575b61669743616a88565b9184821161424b5784928361665a9316916169af565b6166b56149ee565b61668e565b600254600090806166cc575050600090565b60027f405787fa12a823e0f2b7631cc41b3ba8828b3321ca811111fa75cd3aa3bb5acd9282600019810111616705575b52015460201c90565b61670d6149ee565b6166fc565b805460008161672357505050600090565b602090600019938385810111616740575b81522001015460201c90565b6167486149ee565b616734565b61072090600254600160401b8110156167c8575b60018101806002558110156167bb575b6002600052815160209283015190921b63ffffffff191663ffffffff909216919091177f405787fa12a823e0f2b7631cc41b3ba8828b3321ca811111fa75cd3aa3bb5ace90910155565b6167c3612fab565b616771565b6167d0611532565b616761565b80546107209291600160401b821015616832575b60018201808255821015616825575b600090815260209081902083519382015190911b63ffffffff191663ffffffff9390931692909217910155565b61682d612fab565b6167f8565b61683a611532565b6167e9565b9060405161684c8161159f565b602081935463ffffffff81168352811c910152565b1561686857565b60405162461bcd60e51b815260206004820152601760248201527f436865636b706f696e743a20696e76616c6964206b65790000000000000000006044820152606490fd5b600254919291801561698557614b199181856168d56168d06117dd602096614a1d565b61683f565b926168e4845163ffffffff1690565b6168fb63ffffffff91828416928391161115616861565b61691561690c865163ffffffff1690565b63ffffffff1690565b0361694f575061692a6117dd61694193614a1d565b9063ffffffff82549181199060201b169116179055565b01516001600160e01b031690565b9050616980915061696d6169616115fb565b63ffffffff9092168252565b6001600160e01b0387168185015261674d565b616941565b506169a9906169956169616115fb565b6001600160e01b038416602082015261674d565b60009190565b90929192838254801515600014616a63579260209291846169e56168d06169d8614b1998614a1d565b8560005260206000200190565b936169f4855163ffffffff1690565b616a0b63ffffffff91828416928391161115616861565b616a1c61690c875163ffffffff1690565b03616a32575061694192610f4861692a92614a1d565b91505061698091616a50616a446115fb565b63ffffffff9093168352565b6001600160e01b038816828601526167d5565b50506169a991616a74616a446115fb565b6001600160e01b03851660208301526167d5565b63ffffffff90818111616a99571690565b60405162461bcd60e51b815260206004820152602660248201527f53616665436173743a2076616c756520646f65736e27742066697420696e203360448201526532206269747360d01b6064820152608490fd5b919060001981840981840291828083109203918083039214616b6a576127109081831015616b4c577fbc01a36e2eb1c432ca57a786c226809d495182a9930be0ded288ce703afb7e9194950990828211900360fc1b910360041c170290565b6044838360405191631dcf306360e21b835260048301526024820152fd5b505061271090049150565b90916000198383099280830292838086109503948086039514616c0d5782851015616bed57908291096001821901821680920460028082600302188083028203028083028203028083028203028083028203028083028203028092029003029360018380600003040190848311900302920304170290565b604051631dcf306360e21b81526004810186905260248101849052604490fd5b5050906105ee9250615a2856fea2646970667358221220a856ffa0ae0c0b9fc9867a530ea087e061f6c9f1a3ace88ac3681de8e0646e6364736f6c63430008110033",
    "linkReferences": {}
  },
  "methodIdentifiers": {
    "adjustTiers((uint88,uint40,uint40,uint16,address,uint8,address,bytes32,uint16,bool,bool,bool,bool,bool)[],uint256[])": "14ea9b06",
    "approve(address,uint256)": "095ea7b3",
    "balanceOf(address)": "70a08231",
    "codeOrigin()": "1d153ca4",
    "contractURI()": "e8a3d485",
    "creditsOf(address)": "245a45b5",
    "delegate(address)": "5c19a95c",
    "delegates(address)": "587cde1e",
    "didPay((address,uint256,uint256,(address,uint256,uint256,uint256),(address,uint256,uint256,uint256),uint256,address,bool,string,bytes))": "da9ee8b7",
    "didRedeem((address,uint256,uint256,uint256,(address,uint256,uint256,uint256),(address,uint256,uint256,uint256),address,string,bytes))": "2b13c58f",
    "directory()": "c41c2f24",
    "firstOwnerOf(uint256)": "54c6d1f5",
    "fundingCycleStore()": "557e7155",
    "getApproved(uint256)": "081812fc",
    "getPastTotalSupply(uint256)": "8e539e8c",
    "getPastVotes(address,uint256)": "3a46b1a8",
    "getVotes(address)": "9ab24eb0",
    "initialize(uint256,address,string,string,address,string,address,string,((uint88,uint40,uint40,uint16,address,uint8,address,bytes32,uint16,bool,bool,bool,bool,bool)[],uint256,uint256,address),address,(bool,bool,bool,bool))": "9521e381",
    "isApprovedForAll(address,address)": "e985e9c5",
    "jbOwner()": "ba23c36e",
    "mintFor((uint16[],address)[])": "36c1a93b",
    "mintFor(uint16[],address)": "6ac6d941",
    "mintReservesFor((uint256,uint256)[])": "2a596e53",
    "mintReservesFor(uint256,uint256)": "aa4fb15b",
    "name()": "06fdde03",
    "operatorStore()": "ad007d63",
    "owner()": "8da5cb5b",
    "ownerOf(uint256)": "6352211e",
    "payParams((address,address,(address,uint256,uint256,uint256),uint256,uint256,address,uint256,uint256,string,bytes))": "d46cf171",
    "prices()": "d3419bf3",
    "pricingCurrency()": "64640c1e",
    "pricingDecimals()": "4ecba625",
    "projectId()": "3fafa127",
    "projects()": "8b79543c",
    "redeemParams((address,address,uint256,uint256,uint256,uint256,uint256,(address,uint256,uint256,uint256),bool,uint256,string,bytes))": "a51cfd18",
    "redemptionWeightOf(uint256[],(address,address,uint256,uint256,uint256,uint256,uint256,(address,uint256,uint256,uint256),bool,uint256,string,bytes))": "7ba62bf9",
    "renounceOwnership()": "715018a6",
    "royaltyInfo(uint256,uint256)": "2a55205a",
    "safeTransferFrom(address,address,uint256)": "42842e0e",
    "safeTransferFrom(address,address,uint256,bytes)": "b88d4fde",
    "setApprovalForAll(address,bool)": "a22cb465",
    "setBaseUri(string)": "a0bcfc7f",
    "setContractUri(string)": "ccb4807b",
    "setDefaultReservedTokenBeneficiary(address)": "df487e26",
    "setEncodedIPFSUriOf(uint256,bytes32)": "525350ba",
    "setPermissionIndex(uint8)": "61aec7a9",
    "setTokenUriResolver(address)": "2407497e",
    "store()": "975057e7",
    "supportsInterface(bytes4)": "01ffc9a7",
    "symbol()": "95d89b41",
    "tokenURI(uint256)": "c87b56dd",
    "totalRedemptionWeight((address,address,uint256,uint256,uint256,uint256,uint256,(address,uint256,uint256,uint256),bool,uint256,string,bytes))": "9494bf72",
    "transferFrom(address,address,uint256)": "23b872dd",
    "transferOwnership(address)": "f2fde38b",
    "transferOwnershipToProject(uint256)": "a220d696"
  },
  "id": 0
}