{
  "abi": [
    {
      "inputs": [],
      "name": "ALEADY_MINTED",
      "type": "error"
    },
    {
      "inputs": [],
      "name": "APPROVAL_TO_CURRENT_OWNER",
      "type": "error"
    },
    {
      "inputs": [],
      "name": "APPROVE_TO_CALLER",
      "type": "error"
    },
    {
      "inputs": [],
      "name": "BLOCK_NOT_YET_MINED",
      "type": "error"
    },
    {
      "inputs": [],
      "name": "CALLER_NOT_OWNER_OR_APPROVED",
      "type": "error"
    },
    {
      "inputs": [],
      "name": "INCORRECT_OWNER",
      "type": "error"
    },
    {
      "inputs": [],
      "name": "INVALID",
      "type": "error"
    },
    {
      "inputs": [],
      "name": "INVALID_PAYMENT_EVENT",
      "type": "error"
    },
    {
      "inputs": [],
      "name": "INVALID_REDEMPTION_EVENT",
      "type": "error"
    },
    {
      "inputs": [],
      "name": "INVALID_REDEMPTION_METADATA",
      "type": "error"
    },
    {
      "inputs": [],
      "name": "INVALID_TOKEN_ID",
      "type": "error"
    },
    {
      "inputs": [],
      "name": "MINT_TO_ZERO",
      "type": "error"
    },
    {
      "inputs": [],
      "name": "NOT_AVAILABLE",
      "type": "error"
    },
    {
      "inputs": [],
      "name": "OVERSPENDING",
      "type": "error"
    },
    {
      "inputs": [
        {
          "internalType": "uint256",
          "name": "prod1",
          "type": "uint256"
        },
        {
          "internalType": "uint256",
          "name": "denominator",
          "type": "uint256"
        }
      ],
      "name": "PRBMath__MulDivOverflow",
      "type": "error"
    },
    {
      "inputs": [],
      "name": "PRICING_RESOLVER_CHANGES_PAUSED",
      "type": "error"
    },
    {
      "inputs": [],
      "name": "RESERVED_TOKEN_MINTING_PAUSED",
      "type": "error"
    },
    {
      "inputs": [],
      "name": "SIGNATURE_EXPIRED",
      "type": "error"
    },
    {
      "inputs": [],
      "name": "TRANSFERS_PAUSED",
      "type": "error"
    },
    {
      "inputs": [],
      "name": "TRANSFER_TO_NON_IMPLEMENTER",
      "type": "error"
    },
    {
      "inputs": [],
      "name": "TRANSFER_TO_ZERO_ADDRESS",
      "type": "error"
    },
    {
      "inputs": [],
      "name": "UNAUTHORIZED",
      "type": "error"
    },
    {
      "inputs": [],
      "name": "UNEXPECTED_TOKEN_REDEEMED",
      "type": "error"
    },
    {
      "anonymous": false,
      "inputs": [
        {
          "indexed": true,
          "internalType": "uint256",
          "name": "tierId",
          "type": "uint256"
        },
        {
          "components": [
            {
              "internalType": "uint80",
              "name": "contributionFloor",
              "type": "uint80"
            },
            {
              "internalType": "uint48",
              "name": "lockedUntil",
              "type": "uint48"
            },
            {
              "internalType": "uint40",
              "name": "initialQuantity",
              "type": "uint40"
            },
            {
              "internalType": "uint16",
              "name": "votingUnits",
              "type": "uint16"
            },
            {
              "internalType": "uint16",
              "name": "reservedRate",
              "type": "uint16"
            },
            {
              "internalType": "address",
              "name": "reservedTokenBeneficiary",
              "type": "address"
            },
            {
              "internalType": "bytes32",
              "name": "encodedIPFSUri",
              "type": "bytes32"
            },
            {
              "internalType": "uint8",
              "name": "category",
              "type": "uint8"
            },
            {
              "internalType": "bool",
              "name": "allowManualMint",
              "type": "bool"
            },
            {
              "internalType": "bool",
              "name": "shouldUseBeneficiaryAsDefault",
              "type": "bool"
            },
            {
              "internalType": "bool",
              "name": "transfersPausable",
              "type": "bool"
            }
          ],
          "indexed": false,
          "internalType": "struct JB721TierParams",
          "name": "data",
          "type": "tuple"
        },
        {
          "indexed": false,
          "internalType": "address",
          "name": "caller",
          "type": "address"
        }
      ],
      "name": "AddTier",
      "type": "event"
    },
    {
      "anonymous": false,
      "inputs": [
        {
          "indexed": true,
          "internalType": "address",
          "name": "owner",
          "type": "address"
        },
        {
          "indexed": true,
          "internalType": "address",
          "name": "approved",
          "type": "address"
        },
        {
          "indexed": true,
          "internalType": "uint256",
          "name": "tokenId",
          "type": "uint256"
        }
      ],
      "name": "Approval",
      "type": "event"
    },
    {
      "anonymous": false,
      "inputs": [
        {
          "indexed": true,
          "internalType": "address",
          "name": "owner",
          "type": "address"
        },
        {
          "indexed": true,
          "internalType": "address",
          "name": "operator",
          "type": "address"
        },
        {
          "indexed": false,
          "internalType": "bool",
          "name": "approved",
          "type": "bool"
        }
      ],
      "name": "ApprovalForAll",
      "type": "event"
    },
    {
      "anonymous": false,
      "inputs": [
        {
          "indexed": true,
          "internalType": "address",
          "name": "delegator",
          "type": "address"
        },
        {
          "indexed": true,
          "internalType": "address",
          "name": "fromDelegate",
          "type": "address"
        },
        {
          "indexed": true,
          "internalType": "address",
          "name": "toDelegate",
          "type": "address"
        }
      ],
      "name": "DelegateChanged",
      "type": "event"
    },
    {
      "anonymous": false,
      "inputs": [
        {
          "indexed": true,
          "internalType": "address",
          "name": "delegate",
          "type": "address"
        },
        {
          "indexed": false,
          "internalType": "uint256",
          "name": "previousBalance",
          "type": "uint256"
        },
        {
          "indexed": false,
          "internalType": "uint256",
          "name": "newBalance",
          "type": "uint256"
        }
      ],
      "name": "DelegateVotesChanged",
      "type": "event"
    },
    {
      "anonymous": false,
      "inputs": [
        {
          "indexed": true,
          "internalType": "uint256",
          "name": "tokenId",
          "type": "uint256"
        },
        {
          "indexed": true,
          "internalType": "uint256",
          "name": "tierId",
          "type": "uint256"
        },
        {
          "indexed": true,
          "internalType": "address",
          "name": "beneficiary",
          "type": "address"
        },
        {
          "indexed": false,
          "internalType": "uint256",
          "name": "totalAmountContributed",
          "type": "uint256"
        },
        {
          "indexed": false,
          "internalType": "address",
          "name": "caller",
          "type": "address"
        }
      ],
      "name": "Mint",
      "type": "event"
    },
    {
      "anonymous": false,
      "inputs": [
        {
          "indexed": true,
          "internalType": "uint256",
          "name": "tokenId",
          "type": "uint256"
        },
        {
          "indexed": true,
          "internalType": "uint256",
          "name": "tierId",
          "type": "uint256"
        },
        {
          "indexed": true,
          "internalType": "address",
          "name": "beneficiary",
          "type": "address"
        },
        {
          "indexed": false,
          "internalType": "address",
          "name": "caller",
          "type": "address"
        }
      ],
      "name": "MintReservedToken",
      "type": "event"
    },
    {
      "anonymous": false,
      "inputs": [
        {
          "indexed": true,
          "internalType": "address",
          "name": "previousOwner",
          "type": "address"
        },
        {
          "indexed": true,
          "internalType": "address",
          "name": "newOwner",
          "type": "address"
        }
      ],
      "name": "OwnershipTransferred",
      "type": "event"
    },
    {
      "anonymous": false,
      "inputs": [
        {
          "indexed": true,
          "internalType": "uint256",
          "name": "tierId",
          "type": "uint256"
        },
        {
          "indexed": false,
          "internalType": "address",
          "name": "caller",
          "type": "address"
        }
      ],
      "name": "RemoveTier",
      "type": "event"
    },
    {
      "anonymous": false,
      "inputs": [
        {
          "indexed": true,
          "internalType": "string",
          "name": "baseUri",
          "type": "string"
        },
        {
          "indexed": false,
          "internalType": "address",
          "name": "caller",
          "type": "address"
        }
      ],
      "name": "SetBaseUri",
      "type": "event"
    },
    {
      "anonymous": false,
      "inputs": [
        {
          "indexed": true,
          "internalType": "string",
          "name": "contractUri",
          "type": "string"
        },
        {
          "indexed": false,
          "internalType": "address",
          "name": "caller",
          "type": "address"
        }
      ],
      "name": "SetContractUri",
      "type": "event"
    },
    {
      "anonymous": false,
      "inputs": [
        {
          "indexed": true,
          "internalType": "address",
          "name": "beneficiary",
          "type": "address"
        },
        {
          "indexed": false,
          "internalType": "address",
          "name": "caller",
          "type": "address"
        }
      ],
      "name": "SetDefaultReservedTokenBeneficiary",
      "type": "event"
    },
    {
      "anonymous": false,
      "inputs": [
        {
          "indexed": true,
          "internalType": "contract IJBTokenUriResolver",
          "name": "newResolver",
          "type": "address"
        },
        {
          "indexed": false,
          "internalType": "address",
          "name": "caller",
          "type": "address"
        }
      ],
      "name": "SetTokenUriResolver",
      "type": "event"
    },
    {
      "anonymous": false,
      "inputs": [
        {
          "indexed": true,
          "internalType": "address",
          "name": "from",
          "type": "address"
        },
        {
          "indexed": true,
          "internalType": "address",
          "name": "to",
          "type": "address"
        },
        {
          "indexed": true,
          "internalType": "uint256",
          "name": "tokenId",
          "type": "uint256"
        }
      ],
      "name": "Transfer",
      "type": "event"
    },
    {
      "inputs": [
        {
          "components": [
            {
              "internalType": "uint80",
              "name": "contributionFloor",
              "type": "uint80"
            },
            {
              "internalType": "uint48",
              "name": "lockedUntil",
              "type": "uint48"
            },
            {
              "internalType": "uint40",
              "name": "initialQuantity",
              "type": "uint40"
            },
            {
              "internalType": "uint16",
              "name": "votingUnits",
              "type": "uint16"
            },
            {
              "internalType": "uint16",
              "name": "reservedRate",
              "type": "uint16"
            },
            {
              "internalType": "address",
              "name": "reservedTokenBeneficiary",
              "type": "address"
            },
            {
              "internalType": "bytes32",
              "name": "encodedIPFSUri",
              "type": "bytes32"
            },
            {
              "internalType": "uint8",
              "name": "category",
              "type": "uint8"
            },
            {
              "internalType": "bool",
              "name": "allowManualMint",
              "type": "bool"
            },
            {
              "internalType": "bool",
              "name": "shouldUseBeneficiaryAsDefault",
              "type": "bool"
            },
            {
              "internalType": "bool",
              "name": "transfersPausable",
              "type": "bool"
            }
          ],
          "internalType": "struct JB721TierParams[]",
          "name": "_tiersToAdd",
          "type": "tuple[]"
        },
        {
          "internalType": "uint256[]",
          "name": "_tierIdsToRemove",
          "type": "uint256[]"
        }
      ],
      "name": "adjustTiers",
      "outputs": [],
      "stateMutability": "nonpayable",
      "type": "function"
    },
    {
      "inputs": [
        {
          "internalType": "address",
          "name": "to",
          "type": "address"
        },
        {
          "internalType": "uint256",
          "name": "tokenId",
          "type": "uint256"
        }
      ],
      "name": "approve",
      "outputs": [],
      "stateMutability": "nonpayable",
      "type": "function"
    },
    {
      "inputs": [
        {
          "internalType": "address",
          "name": "_owner",
          "type": "address"
        }
      ],
      "name": "balanceOf",
      "outputs": [
        {
          "internalType": "uint256",
          "name": "balance",
          "type": "uint256"
        }
      ],
      "stateMutability": "view",
      "type": "function"
    },
    {
      "inputs": [],
      "name": "codeOrigin",
      "outputs": [
        {
          "internalType": "address",
          "name": "",
          "type": "address"
        }
      ],
      "stateMutability": "view",
      "type": "function"
    },
    {
      "inputs": [],
      "name": "contractURI",
      "outputs": [
        {
          "internalType": "string",
          "name": "",
          "type": "string"
        }
      ],
      "stateMutability": "view",
      "type": "function"
    },
    {
      "inputs": [
        {
          "internalType": "address",
          "name": "",
          "type": "address"
        }
      ],
      "name": "creditsOf",
      "outputs": [
        {
          "internalType": "uint256",
          "name": "",
          "type": "uint256"
        }
      ],
      "stateMutability": "view",
      "type": "function"
    },
    {
      "inputs": [
        {
          "internalType": "address",
          "name": "delegatee",
          "type": "address"
        }
      ],
      "name": "delegate",
      "outputs": [],
      "stateMutability": "nonpayable",
      "type": "function"
    },
    {
      "inputs": [
        {
          "internalType": "address",
          "name": "account",
          "type": "address"
        }
      ],
      "name": "delegates",
      "outputs": [
        {
          "internalType": "address",
          "name": "",
          "type": "address"
        }
      ],
      "stateMutability": "view",
      "type": "function"
    },
    {
      "inputs": [
        {
          "components": [
            {
              "internalType": "address",
              "name": "payer",
              "type": "address"
            },
            {
              "internalType": "uint256",
              "name": "projectId",
              "type": "uint256"
            },
            {
              "internalType": "uint256",
              "name": "currentFundingCycleConfiguration",
              "type": "uint256"
            },
            {
              "components": [
                {
                  "internalType": "address",
                  "name": "token",
                  "type": "address"
                },
                {
                  "internalType": "uint256",
                  "name": "value",
                  "type": "uint256"
                },
                {
                  "internalType": "uint256",
                  "name": "decimals",
                  "type": "uint256"
                },
                {
                  "internalType": "uint256",
                  "name": "currency",
                  "type": "uint256"
                }
              ],
              "internalType": "struct JBTokenAmount",
              "name": "amount",
              "type": "tuple"
            },
            {
              "components": [
                {
                  "internalType": "address",
                  "name": "token",
                  "type": "address"
                },
                {
                  "internalType": "uint256",
                  "name": "value",
                  "type": "uint256"
                },
                {
                  "internalType": "uint256",
                  "name": "decimals",
                  "type": "uint256"
                },
                {
                  "internalType": "uint256",
                  "name": "currency",
                  "type": "uint256"
                }
              ],
              "internalType": "struct JBTokenAmount",
              "name": "forwardedAmount",
              "type": "tuple"
            },
            {
              "internalType": "uint256",
              "name": "projectTokenCount",
              "type": "uint256"
            },
            {
              "internalType": "address",
              "name": "beneficiary",
              "type": "address"
            },
            {
              "internalType": "bool",
              "name": "preferClaimedTokens",
              "type": "bool"
            },
            {
              "internalType": "string",
              "name": "memo",
              "type": "string"
            },
            {
              "internalType": "bytes",
              "name": "metadata",
              "type": "bytes"
            }
          ],
          "internalType": "struct JBDidPayData",
          "name": "_data",
          "type": "tuple"
        }
      ],
      "name": "didPay",
      "outputs": [],
      "stateMutability": "payable",
      "type": "function"
    },
    {
      "inputs": [
        {
          "components": [
            {
              "internalType": "address",
              "name": "holder",
              "type": "address"
            },
            {
              "internalType": "uint256",
              "name": "projectId",
              "type": "uint256"
            },
            {
              "internalType": "uint256",
              "name": "currentFundingCycleConfiguration",
              "type": "uint256"
            },
            {
              "internalType": "uint256",
              "name": "projectTokenCount",
              "type": "uint256"
            },
            {
              "components": [
                {
                  "internalType": "address",
                  "name": "token",
                  "type": "address"
                },
                {
                  "internalType": "uint256",
                  "name": "value",
                  "type": "uint256"
                },
                {
                  "internalType": "uint256",
                  "name": "decimals",
                  "type": "uint256"
                },
                {
                  "internalType": "uint256",
                  "name": "currency",
                  "type": "uint256"
                }
              ],
              "internalType": "struct JBTokenAmount",
              "name": "reclaimedAmount",
              "type": "tuple"
            },
            {
              "components": [
                {
                  "internalType": "address",
                  "name": "token",
                  "type": "address"
                },
                {
                  "internalType": "uint256",
                  "name": "value",
                  "type": "uint256"
                },
                {
                  "internalType": "uint256",
                  "name": "decimals",
                  "type": "uint256"
                },
                {
                  "internalType": "uint256",
                  "name": "currency",
                  "type": "uint256"
                }
              ],
              "internalType": "struct JBTokenAmount",
              "name": "forwardedAmount",
              "type": "tuple"
            },
            {
              "internalType": "address payable",
              "name": "beneficiary",
              "type": "address"
            },
            {
              "internalType": "string",
              "name": "memo",
              "type": "string"
            },
            {
              "internalType": "bytes",
              "name": "metadata",
              "type": "bytes"
            }
          ],
          "internalType": "struct JBDidRedeemData",
          "name": "_data",
          "type": "tuple"
        }
      ],
      "name": "didRedeem",
      "outputs": [],
      "stateMutability": "payable",
      "type": "function"
    },
    {
      "inputs": [],
      "name": "directory",
      "outputs": [
        {
          "internalType": "contract IJBDirectory",
          "name": "",
          "type": "address"
        }
      ],
      "stateMutability": "view",
      "type": "function"
    },
    {
      "inputs": [
        {
          "internalType": "uint256",
          "name": "_tokenId",
          "type": "uint256"
        }
      ],
      "name": "firstOwnerOf",
      "outputs": [
        {
          "internalType": "address",
          "name": "",
          "type": "address"
        }
      ],
      "stateMutability": "view",
      "type": "function"
    },
    {
      "inputs": [],
      "name": "fundingCycleStore",
      "outputs": [
        {
          "internalType": "contract IJBFundingCycleStore",
          "name": "",
          "type": "address"
        }
      ],
      "stateMutability": "view",
      "type": "function"
    },
    {
      "inputs": [
        {
          "internalType": "uint256",
          "name": "tokenId",
          "type": "uint256"
        }
      ],
      "name": "getApproved",
      "outputs": [
        {
          "internalType": "address",
          "name": "",
          "type": "address"
        }
      ],
      "stateMutability": "view",
      "type": "function"
    },
    {
      "inputs": [
        {
          "internalType": "uint256",
          "name": "blockNumber",
          "type": "uint256"
        }
      ],
      "name": "getPastTotalSupply",
      "outputs": [
        {
          "internalType": "uint256",
          "name": "",
          "type": "uint256"
        }
      ],
      "stateMutability": "view",
      "type": "function"
    },
    {
      "inputs": [
        {
          "internalType": "address",
          "name": "account",
          "type": "address"
        },
        {
          "internalType": "uint256",
          "name": "blockNumber",
          "type": "uint256"
        }
      ],
      "name": "getPastVotes",
      "outputs": [
        {
          "internalType": "uint256",
          "name": "",
          "type": "uint256"
        }
      ],
      "stateMutability": "view",
      "type": "function"
    },
    {
      "inputs": [
        {
          "internalType": "address",
          "name": "account",
          "type": "address"
        }
      ],
      "name": "getVotes",
      "outputs": [
        {
          "internalType": "uint256",
          "name": "",
          "type": "uint256"
        }
      ],
      "stateMutability": "view",
      "type": "function"
    },
    {
      "inputs": [
        {
          "internalType": "uint256",
          "name": "_projectId",
          "type": "uint256"
        },
        {
          "internalType": "contract IJBDirectory",
          "name": "_directory",
          "type": "address"
        },
        {
          "internalType": "string",
          "name": "_name",
          "type": "string"
        },
        {
          "internalType": "string",
          "name": "_symbol",
          "type": "string"
        },
        {
          "internalType": "contract IJBFundingCycleStore",
          "name": "_fundingCycleStore",
          "type": "address"
        },
        {
          "internalType": "string",
          "name": "_baseUri",
          "type": "string"
        },
        {
          "internalType": "contract IJBTokenUriResolver",
          "name": "_tokenUriResolver",
          "type": "address"
        },
        {
          "internalType": "string",
          "name": "_contractUri",
          "type": "string"
        },
        {
          "components": [
            {
              "components": [
                {
                  "internalType": "uint80",
                  "name": "contributionFloor",
                  "type": "uint80"
                },
                {
                  "internalType": "uint48",
                  "name": "lockedUntil",
                  "type": "uint48"
                },
                {
                  "internalType": "uint40",
                  "name": "initialQuantity",
                  "type": "uint40"
                },
                {
                  "internalType": "uint16",
                  "name": "votingUnits",
                  "type": "uint16"
                },
                {
                  "internalType": "uint16",
                  "name": "reservedRate",
                  "type": "uint16"
                },
                {
                  "internalType": "address",
                  "name": "reservedTokenBeneficiary",
                  "type": "address"
                },
                {
                  "internalType": "bytes32",
                  "name": "encodedIPFSUri",
                  "type": "bytes32"
                },
                {
                  "internalType": "uint8",
                  "name": "category",
                  "type": "uint8"
                },
                {
                  "internalType": "bool",
                  "name": "allowManualMint",
                  "type": "bool"
                },
                {
                  "internalType": "bool",
                  "name": "shouldUseBeneficiaryAsDefault",
                  "type": "bool"
                },
                {
                  "internalType": "bool",
                  "name": "transfersPausable",
                  "type": "bool"
                }
              ],
              "internalType": "struct JB721TierParams[]",
              "name": "tiers",
              "type": "tuple[]"
            },
            {
              "internalType": "uint256",
              "name": "currency",
              "type": "uint256"
            },
            {
              "internalType": "uint256",
              "name": "decimals",
              "type": "uint256"
            },
            {
              "internalType": "contract IJBPrices",
              "name": "prices",
              "type": "address"
            }
          ],
          "internalType": "struct JB721PricingParams",
          "name": "_pricing",
          "type": "tuple"
        },
        {
          "internalType": "contract IJBTiered721DelegateStore",
          "name": "_store",
          "type": "address"
        },
        {
          "components": [
            {
              "internalType": "bool",
              "name": "lockReservedTokenChanges",
              "type": "bool"
            },
            {
              "internalType": "bool",
              "name": "lockVotingUnitChanges",
              "type": "bool"
            },
            {
              "internalType": "bool",
              "name": "lockManualMintingChanges",
              "type": "bool"
            },
            {
              "internalType": "bool",
              "name": "preventOverspending",
              "type": "bool"
            }
          ],
          "internalType": "struct JBTiered721Flags",
          "name": "_flags",
          "type": "tuple"
        }
      ],
      "name": "initialize",
      "outputs": [],
      "stateMutability": "nonpayable",
      "type": "function"
    },
    {
      "inputs": [
        {
          "internalType": "address",
          "name": "owner",
          "type": "address"
        },
        {
          "internalType": "address",
          "name": "operator",
          "type": "address"
        }
      ],
      "name": "isApprovedForAll",
      "outputs": [
        {
          "internalType": "bool",
          "name": "",
          "type": "bool"
        }
      ],
      "stateMutability": "view",
      "type": "function"
    },
    {
      "inputs": [
        {
          "components": [
            {
              "internalType": "uint16[]",
              "name": "tierIds",
              "type": "uint16[]"
            },
            {
              "internalType": "address",
              "name": "beneficiary",
              "type": "address"
            }
          ],
          "internalType": "struct JBTiered721MintForTiersData[]",
          "name": "_mintForTiersData",
          "type": "tuple[]"
        }
      ],
      "name": "mintFor",
      "outputs": [],
      "stateMutability": "nonpayable",
      "type": "function"
    },
    {
      "inputs": [
        {
          "internalType": "uint16[]",
          "name": "_tierIds",
          "type": "uint16[]"
        },
        {
          "internalType": "address",
          "name": "_beneficiary",
          "type": "address"
        }
      ],
      "name": "mintFor",
      "outputs": [
        {
          "internalType": "uint256[]",
          "name": "tokenIds",
          "type": "uint256[]"
        }
      ],
      "stateMutability": "nonpayable",
      "type": "function"
    },
    {
      "inputs": [
        {
          "components": [
            {
              "internalType": "uint256",
              "name": "tierId",
              "type": "uint256"
            },
            {
              "internalType": "uint256",
              "name": "count",
              "type": "uint256"
            }
          ],
          "internalType": "struct JBTiered721MintReservesForTiersData[]",
          "name": "_mintReservesForTiersData",
          "type": "tuple[]"
        }
      ],
      "name": "mintReservesFor",
      "outputs": [],
      "stateMutability": "nonpayable",
      "type": "function"
    },
    {
      "inputs": [
        {
          "internalType": "uint256",
          "name": "_tierId",
          "type": "uint256"
        },
        {
          "internalType": "uint256",
          "name": "_count",
          "type": "uint256"
        }
      ],
      "name": "mintReservesFor",
      "outputs": [],
      "stateMutability": "nonpayable",
      "type": "function"
    },
    {
      "inputs": [],
      "name": "name",
      "outputs": [
        {
          "internalType": "string",
          "name": "",
          "type": "string"
        }
      ],
      "stateMutability": "view",
      "type": "function"
    },
    {
      "inputs": [],
      "name": "owner",
      "outputs": [
        {
          "internalType": "address",
          "name": "",
          "type": "address"
        }
      ],
      "stateMutability": "view",
      "type": "function"
    },
    {
      "inputs": [
        {
          "internalType": "uint256",
          "name": "tokenId",
          "type": "uint256"
        }
      ],
      "name": "ownerOf",
      "outputs": [
        {
          "internalType": "address",
          "name": "",
          "type": "address"
        }
      ],
      "stateMutability": "view",
      "type": "function"
    },
    {
      "inputs": [
        {
          "components": [
            {
              "internalType": "contract IJBPaymentTerminal",
              "name": "terminal",
              "type": "address"
            },
            {
              "internalType": "address",
              "name": "payer",
              "type": "address"
            },
            {
              "components": [
                {
                  "internalType": "address",
                  "name": "token",
                  "type": "address"
                },
                {
                  "internalType": "uint256",
                  "name": "value",
                  "type": "uint256"
                },
                {
                  "internalType": "uint256",
                  "name": "decimals",
                  "type": "uint256"
                },
                {
                  "internalType": "uint256",
                  "name": "currency",
                  "type": "uint256"
                }
              ],
              "internalType": "struct JBTokenAmount",
              "name": "amount",
              "type": "tuple"
            },
            {
              "internalType": "uint256",
              "name": "projectId",
              "type": "uint256"
            },
            {
              "internalType": "uint256",
              "name": "currentFundingCycleConfiguration",
              "type": "uint256"
            },
            {
              "internalType": "address",
              "name": "beneficiary",
              "type": "address"
            },
            {
              "internalType": "uint256",
              "name": "weight",
              "type": "uint256"
            },
            {
              "internalType": "uint256",
              "name": "reservedRate",
              "type": "uint256"
            },
            {
              "internalType": "string",
              "name": "memo",
              "type": "string"
            },
            {
              "internalType": "bytes",
              "name": "metadata",
              "type": "bytes"
            }
          ],
          "internalType": "struct JBPayParamsData",
          "name": "_data",
          "type": "tuple"
        }
      ],
      "name": "payParams",
      "outputs": [
        {
          "internalType": "uint256",
          "name": "weight",
          "type": "uint256"
        },
        {
          "internalType": "string",
          "name": "memo",
          "type": "string"
        },
        {
          "components": [
            {
              "internalType": "contract IJBPayDelegate",
              "name": "delegate",
              "type": "address"
            },
            {
              "internalType": "uint256",
              "name": "amount",
              "type": "uint256"
            }
          ],
          "internalType": "struct JBPayDelegateAllocation[]",
          "name": "delegateAllocations",
          "type": "tuple[]"
        }
      ],
      "stateMutability": "view",
      "type": "function"
    },
    {
      "inputs": [],
      "name": "prices",
      "outputs": [
        {
          "internalType": "contract IJBPrices",
          "name": "",
          "type": "address"
        }
      ],
      "stateMutability": "view",
      "type": "function"
    },
    {
      "inputs": [],
      "name": "pricingCurrency",
      "outputs": [
        {
          "internalType": "uint256",
          "name": "",
          "type": "uint256"
        }
      ],
      "stateMutability": "view",
      "type": "function"
    },
    {
      "inputs": [],
      "name": "pricingDecimals",
      "outputs": [
        {
          "internalType": "uint256",
          "name": "",
          "type": "uint256"
        }
      ],
      "stateMutability": "view",
      "type": "function"
    },
    {
      "inputs": [],
      "name": "projectId",
      "outputs": [
        {
          "internalType": "uint256",
          "name": "",
          "type": "uint256"
        }
      ],
      "stateMutability": "view",
      "type": "function"
    },
    {
      "inputs": [
        {
          "components": [
            {
              "internalType": "contract IJBPaymentTerminal",
              "name": "terminal",
              "type": "address"
            },
            {
              "internalType": "address",
              "name": "holder",
              "type": "address"
            },
            {
              "internalType": "uint256",
              "name": "projectId",
              "type": "uint256"
            },
            {
              "internalType": "uint256",
              "name": "currentFundingCycleConfiguration",
              "type": "uint256"
            },
            {
              "internalType": "uint256",
              "name": "tokenCount",
              "type": "uint256"
            },
            {
              "internalType": "uint256",
              "name": "totalSupply",
              "type": "uint256"
            },
            {
              "internalType": "uint256",
              "name": "overflow",
              "type": "uint256"
            },
            {
              "components": [
                {
                  "internalType": "address",
                  "name": "token",
                  "type": "address"
                },
                {
                  "internalType": "uint256",
                  "name": "value",
                  "type": "uint256"
                },
                {
                  "internalType": "uint256",
                  "name": "decimals",
                  "type": "uint256"
                },
                {
                  "internalType": "uint256",
                  "name": "currency",
                  "type": "uint256"
                }
              ],
              "internalType": "struct JBTokenAmount",
              "name": "reclaimAmount",
              "type": "tuple"
            },
            {
              "internalType": "bool",
              "name": "useTotalOverflow",
              "type": "bool"
            },
            {
              "internalType": "uint256",
              "name": "redemptionRate",
              "type": "uint256"
            },
            {
              "internalType": "string",
              "name": "memo",
              "type": "string"
            },
            {
              "internalType": "bytes",
              "name": "metadata",
              "type": "bytes"
            }
          ],
          "internalType": "struct JBRedeemParamsData",
          "name": "_data",
          "type": "tuple"
        }
      ],
      "name": "redeemParams",
      "outputs": [
        {
          "internalType": "uint256",
          "name": "reclaimAmount",
          "type": "uint256"
        },
        {
          "internalType": "string",
          "name": "memo",
          "type": "string"
        },
        {
          "components": [
            {
              "internalType": "contract IJBRedemptionDelegate",
              "name": "delegate",
              "type": "address"
            },
            {
              "internalType": "uint256",
              "name": "amount",
              "type": "uint256"
            }
          ],
          "internalType": "struct JBRedemptionDelegateAllocation[]",
          "name": "delegateAllocations",
          "type": "tuple[]"
        }
      ],
      "stateMutability": "view",
      "type": "function"
    },
    {
      "inputs": [
        {
          "internalType": "uint256[]",
          "name": "_tokenIds",
          "type": "uint256[]"
        },
        {
          "components": [
            {
              "internalType": "contract IJBPaymentTerminal",
              "name": "terminal",
              "type": "address"
            },
            {
              "internalType": "address",
              "name": "holder",
              "type": "address"
            },
            {
              "internalType": "uint256",
              "name": "projectId",
              "type": "uint256"
            },
            {
              "internalType": "uint256",
              "name": "currentFundingCycleConfiguration",
              "type": "uint256"
            },
            {
              "internalType": "uint256",
              "name": "tokenCount",
              "type": "uint256"
            },
            {
              "internalType": "uint256",
              "name": "totalSupply",
              "type": "uint256"
            },
            {
              "internalType": "uint256",
              "name": "overflow",
              "type": "uint256"
            },
            {
              "components": [
                {
                  "internalType": "address",
                  "name": "token",
                  "type": "address"
                },
                {
                  "internalType": "uint256",
                  "name": "value",
                  "type": "uint256"
                },
                {
                  "internalType": "uint256",
                  "name": "decimals",
                  "type": "uint256"
                },
                {
                  "internalType": "uint256",
                  "name": "currency",
                  "type": "uint256"
                }
              ],
              "internalType": "struct JBTokenAmount",
              "name": "reclaimAmount",
              "type": "tuple"
            },
            {
              "internalType": "bool",
              "name": "useTotalOverflow",
              "type": "bool"
            },
            {
              "internalType": "uint256",
              "name": "redemptionRate",
              "type": "uint256"
            },
            {
              "internalType": "string",
              "name": "memo",
              "type": "string"
            },
            {
              "internalType": "bytes",
              "name": "metadata",
              "type": "bytes"
            }
          ],
          "internalType": "struct JBRedeemParamsData",
          "name": "",
          "type": "tuple"
        }
      ],
      "name": "redemptionWeightOf",
      "outputs": [
        {
          "internalType": "uint256",
          "name": "",
          "type": "uint256"
        }
      ],
      "stateMutability": "view",
      "type": "function"
    },
    {
      "inputs": [],
      "name": "renounceOwnership",
      "outputs": [],
      "stateMutability": "nonpayable",
      "type": "function"
    },
    {
      "inputs": [
        {
          "internalType": "address",
          "name": "from",
          "type": "address"
        },
        {
          "internalType": "address",
          "name": "to",
          "type": "address"
        },
        {
          "internalType": "uint256",
          "name": "tokenId",
          "type": "uint256"
        }
      ],
      "name": "safeTransferFrom",
      "outputs": [],
      "stateMutability": "nonpayable",
      "type": "function"
    },
    {
      "inputs": [
        {
          "internalType": "address",
          "name": "from",
          "type": "address"
        },
        {
          "internalType": "address",
          "name": "to",
          "type": "address"
        },
        {
          "internalType": "uint256",
          "name": "tokenId",
          "type": "uint256"
        },
        {
          "internalType": "bytes",
          "name": "data",
          "type": "bytes"
        }
      ],
      "name": "safeTransferFrom",
      "outputs": [],
      "stateMutability": "nonpayable",
      "type": "function"
    },
    {
      "inputs": [
        {
          "internalType": "address",
          "name": "operator",
          "type": "address"
        },
        {
          "internalType": "bool",
          "name": "approved",
          "type": "bool"
        }
      ],
      "name": "setApprovalForAll",
      "outputs": [],
      "stateMutability": "nonpayable",
      "type": "function"
    },
    {
      "inputs": [
        {
          "internalType": "string",
          "name": "_baseUri",
          "type": "string"
        }
      ],
      "name": "setBaseUri",
      "outputs": [],
      "stateMutability": "nonpayable",
      "type": "function"
    },
    {
      "inputs": [
        {
          "internalType": "string",
          "name": "_contractUri",
          "type": "string"
        }
      ],
      "name": "setContractUri",
      "outputs": [],
      "stateMutability": "nonpayable",
      "type": "function"
    },
    {
      "inputs": [
        {
          "internalType": "address",
          "name": "_beneficiary",
          "type": "address"
        }
      ],
      "name": "setDefaultReservedTokenBeneficiary",
      "outputs": [],
      "stateMutability": "nonpayable",
      "type": "function"
    },
    {
      "inputs": [
        {
          "internalType": "contract IJBTokenUriResolver",
          "name": "_tokenUriResolver",
          "type": "address"
        }
      ],
      "name": "setTokenUriResolver",
      "outputs": [],
      "stateMutability": "nonpayable",
      "type": "function"
    },
    {
      "inputs": [],
      "name": "store",
      "outputs": [
        {
          "internalType": "contract IJBTiered721DelegateStore",
          "name": "",
          "type": "address"
        }
      ],
      "stateMutability": "view",
      "type": "function"
    },
    {
      "inputs": [
        {
          "internalType": "bytes4",
          "name": "_interfaceId",
          "type": "bytes4"
        }
      ],
      "name": "supportsInterface",
      "outputs": [
        {
          "internalType": "bool",
          "name": "",
          "type": "bool"
        }
      ],
      "stateMutability": "view",
      "type": "function"
    },
    {
      "inputs": [],
      "name": "symbol",
      "outputs": [
        {
          "internalType": "string",
          "name": "",
          "type": "string"
        }
      ],
      "stateMutability": "view",
      "type": "function"
    },
    {
      "inputs": [
        {
          "internalType": "uint256",
          "name": "_tokenId",
          "type": "uint256"
        }
      ],
      "name": "tokenURI",
      "outputs": [
        {
          "internalType": "string",
          "name": "",
          "type": "string"
        }
      ],
      "stateMutability": "view",
      "type": "function"
    },
    {
      "inputs": [
        {
          "components": [
            {
              "internalType": "contract IJBPaymentTerminal",
              "name": "terminal",
              "type": "address"
            },
            {
              "internalType": "address",
              "name": "holder",
              "type": "address"
            },
            {
              "internalType": "uint256",
              "name": "projectId",
              "type": "uint256"
            },
            {
              "internalType": "uint256",
              "name": "currentFundingCycleConfiguration",
              "type": "uint256"
            },
            {
              "internalType": "uint256",
              "name": "tokenCount",
              "type": "uint256"
            },
            {
              "internalType": "uint256",
              "name": "totalSupply",
              "type": "uint256"
            },
            {
              "internalType": "uint256",
              "name": "overflow",
              "type": "uint256"
            },
            {
              "components": [
                {
                  "internalType": "address",
                  "name": "token",
                  "type": "address"
                },
                {
                  "internalType": "uint256",
                  "name": "value",
                  "type": "uint256"
                },
                {
                  "internalType": "uint256",
                  "name": "decimals",
                  "type": "uint256"
                },
                {
                  "internalType": "uint256",
                  "name": "currency",
                  "type": "uint256"
                }
              ],
              "internalType": "struct JBTokenAmount",
              "name": "reclaimAmount",
              "type": "tuple"
            },
            {
              "internalType": "bool",
              "name": "useTotalOverflow",
              "type": "bool"
            },
            {
              "internalType": "uint256",
              "name": "redemptionRate",
              "type": "uint256"
            },
            {
              "internalType": "string",
              "name": "memo",
              "type": "string"
            },
            {
              "internalType": "bytes",
              "name": "metadata",
              "type": "bytes"
            }
          ],
          "internalType": "struct JBRedeemParamsData",
          "name": "",
          "type": "tuple"
        }
      ],
      "name": "totalRedemptionWeight",
      "outputs": [
        {
          "internalType": "uint256",
          "name": "",
          "type": "uint256"
        }
      ],
      "stateMutability": "view",
      "type": "function"
    },
    {
      "inputs": [
        {
          "internalType": "address",
          "name": "from",
          "type": "address"
        },
        {
          "internalType": "address",
          "name": "to",
          "type": "address"
        },
        {
          "internalType": "uint256",
          "name": "tokenId",
          "type": "uint256"
        }
      ],
      "name": "transferFrom",
      "outputs": [],
      "stateMutability": "nonpayable",
      "type": "function"
    },
    {
      "inputs": [
        {
          "internalType": "address",
          "name": "newOwner",
          "type": "address"
        }
      ],
      "name": "transferOwnership",
      "outputs": [],
      "stateMutability": "nonpayable",
      "type": "function"
    }
  ],
  "bytecode": {
    "object": "0x60806040523480156200001157600080fd5b506200001d3362000035565b600b80546001600160a01b0319163017905562000087565b600a80546001600160a01b038381166001600160a01b0319831681179093556040519116919082907f8be0079c531659141344cd1fd0a4f28419497f9722a3daafe3b4186f6b6457e090600090a35050565b61550d80620000976000396000f3fe6080604052600436106102935760003560e01c8063715018a61161015a578063b88d4fde116100c1578063da9ee8b71161007a578063da9ee8b714610816578063df487e2614610829578063e8a3d48514610849578063e8ed5d671461085e578063e985e9c51461087e578063f2fde38b146108c757600080fd5b8063b88d4fde14610756578063c41c2f2414610776578063c87b56dd14610796578063ccb4807b146107b6578063d3419bf3146107d6578063d46cf171146107f657600080fd5b8063975057e711610113578063975057e7146106875780639ab24eb0146106a7578063a0bcfc7f146106c7578063a22cb465146106e7578063a51cfd1814610707578063aa4fb15b1461073657600080fd5b8063715018a6146105df5780637ba62bf9146105f45780638da5cb5b146106145780638e539e8c146106325780639494bf721461065257806395d89b411461067257600080fd5b80633a46b1a8116101fe578063587cde1e116101b7578063587cde1e146105035780635c19a95c1461053c5780636352211e1461055c57806364640c1e1461057c5780636ac6d9411461059257806370a08231146105bf57600080fd5b80633a46b1a8146104575780633fafa1271461047757806342842e0e1461048d5780634ecba625146104ad57806354c6d1f5146104c3578063557e7155146104e357600080fd5b806323b872dd1161025057806323b872dd146103895780632407497e146103a9578063245a45b5146103c95780632a596e53146104045780632b13c58f1461042457806336c1a93b1461043757600080fd5b806301ffc9a7146102985780630575ea7a146102cd57806306fdde03146102ef578063081812fc14610311578063095ea7b3146103495780631d153ca414610369575b600080fd5b3480156102a457600080fd5b506102b86102b3366004613bca565b6108e7565b60405190151581526020015b60405180910390f35b3480156102d957600080fd5b506102ed6102e8366004613c2b565b610912565b005b3480156102fb57600080fd5b50610304610af5565b6040516102c49190613d15565b34801561031d57600080fd5b5061033161032c366004613d28565b610b87565b6040516001600160a01b0390911681526020016102c4565b34801561035557600080fd5b506102ed610364366004613d66565b610bae565b34801561037557600080fd5b50600b54610331906001600160a01b031681565b34801561039557600080fd5b506102ed6103a4366004613d92565b610c3a565b3480156103b557600080fd5b506102ed6103c4366004613dd3565b610c6c565b3480156103d557600080fd5b506103f66103e4366004613dd3565b60116020526000908152604090205481565b6040519081526020016102c4565b34801561041057600080fd5b506102ed61041f366004613df0565b610d15565b6102ed610432366004613e7d565b610d6e565b34801561044357600080fd5b506102ed610452366004613eb1565b610f48565b34801561046357600080fd5b506103f6610472366004613d66565b610faa565b34801561048357600080fd5b506103f660085481565b34801561049957600080fd5b506102ed6104a8366004613d92565b610fd3565b3480156104b957600080fd5b506103f660105481565b3480156104cf57600080fd5b506103316104de366004613d28565b610fee565b3480156104ef57600080fd5b50600d54610331906001600160a01b031681565b34801561050f57600080fd5b5061033161051e366004613dd3565b6001600160a01b039081166000908152602081905260409020541690565b34801561054857600080fd5b506102ed610557366004613dd3565b61109a565b34801561056857600080fd5b50610331610577366004613d28565b6110a7565b34801561058857600080fd5b506103f6600f5481565b34801561059e57600080fd5b506105b26105ad366004613ef2565b6110dd565b6040516102c49190613f83565b3480156105cb57600080fd5b506103f66105da366004613dd3565b611223565b3480156105eb57600080fd5b506102ed611299565b34801561060057600080fd5b506103f661060f3660046140fb565b6112ad565b34801561062057600080fd5b50600a546001600160a01b0316610331565b34801561063e57600080fd5b506103f661064d366004613d28565b611321565b34801561065e57600080fd5b506103f661066d366004613e7d565b61134e565b34801561067e57600080fd5b5061030461137f565b34801561069357600080fd5b50600c54610331906001600160a01b031681565b3480156106b357600080fd5b506103f66106c2366004613dd3565b61138e565b3480156106d357600080fd5b506102ed6106e236600461415e565b6113af565b3480156106f357600080fd5b506102ed6107023660046141d6565b61146a565b34801561071357600080fd5b50610727610722366004613e7d565b611479565b6040516102c49392919061420f565b34801561074257600080fd5b506102ed610751366004614281565b6116d8565b34801561076257600080fd5b506102ed610771366004614303565b6118f5565b34801561078257600080fd5b50600954610331906001600160a01b031681565b3480156107a257600080fd5b506103046107b1366004613d28565b611928565b3480156107c257600080fd5b506102ed6107d136600461415e565b611b02565b3480156107e257600080fd5b50600e54610331906001600160a01b031681565b34801561080257600080fd5b50610727610811366004614382565b611bb5565b6102ed6108243660046143bd565b611c98565b34801561083557600080fd5b506102ed610844366004613dd3565b611d4f565b34801561085557600080fd5b50610304611df1565b34801561086a57600080fd5b506102ed610879366004614662565b611e67565b34801561088a57600080fd5b506102b861089936600461479b565b6001600160a01b03918216600090815260076020908152604080832093909416825291909152205460ff1690565b3480156108d357600080fd5b506102ed6108e2366004613dd3565b612159565b60006001600160e01b0319821663281586a960e11b148061090c575061090c826121d4565b92915050565b61091a61224a565b828180156109ea57600c546040516320512ba160e01b81526001600160a01b03909116906320512ba19061095490879087906004016147c9565b600060405180830381600087803b15801561096e57600080fd5b505af1158015610982573d6000803e3d6000fd5b5050505060005b818110156109e8578484828181106109a3576109a3614802565b60405133815260209182029390930135927f832d89d991be5351d793c20faf4b7dd44f8aa9ce39e3cb160c6317de6fbba72992500160405180910390a2600101610989565b505b8115610aed57600c54604051631dd7fb3f60e31b81526000916001600160a01b03169063eebfd9f890610a23908a908a9060040161490a565b6000604051808303816000875af1158015610a42573d6000803e3d6000fd5b505050506040513d6000823e601f3d908101601f19168201604052610a6a91908101906149a8565b905060005b83811015610aea57818181518110610a8957610a89614802565b60200260200101517f3dc3b6685c6b880840d7902979f926412f2b9e9ad1c67a4e28816bea10c8c447898984818110610ac457610ac4614802565b9050610160020133604051610ada9291906149dc565b60405180910390a2600101610a6f565b50505b505050505050565b606060038054610b0490614a04565b80601f0160208091040260200160405190810160405280929190818152602001828054610b3090614a04565b8015610b7d5780601f10610b5257610100808354040283529160200191610b7d565b820191906000526020600020905b815481529060010190602001808311610b6057829003601f168201915b5050505050905090565b6000610b92826122a4565b506000908152600660205260409020546001600160a01b031690565b6000610bb9826110a7565b9050806001600160a01b0316836001600160a01b031603610bed5760405163133f8be960e01b815260040160405180910390fd5b336001600160a01b03821614801590610c0d5750610c0b8133610899565b155b15610c2b5760405163e5fa0e3560e01b815260040160405180910390fd5b610c3583836122d9565b505050565b610c443382612347565b610c615760405163e5fa0e3560e01b815260040160405180910390fd5b610c358383836123c6565b610c7461224a565b600c5460405163036129cb60e61b81526001600160a01b0383811660048301529091169063d84a72c090602401600060405180830381600087803b158015610cbb57600080fd5b505af1158015610ccf573d6000803e3d6000fd5b50506040513381526001600160a01b03841692507fe7784d93cfbfa4408e19577e6cc0436f4dbb51214b70e100905dfce9def88c1691506020015b60405180910390a250565b8060005b81811015610d68576000848483818110610d3557610d35614802565b905060400201803603810190610d4b9190614a38565b9050610d5f816000015182602001516116d8565b50600101610d19565b50505050565b34151580610df05750600954600854604051636e49181f60e01b815260048101919091523360248201526001600160a01b0390911690636e49181f90604401602060405180830381865afa158015610dca573d6000803e3d6000fd5b505050506040513d601f19601f82011682018060405250810190610dee9190614a91565b155b80610e015750600854816020013514155b15610e1f57604051633efca5c360e11b815260040160405180910390fd5b6024610e2f6101c0830183614aae565b90501080610e73575063b3bcbb7960e01b610e4e6101c0830183614aae565b610e5d91602491602091614af4565b610e6691614b1e565b6001600160e01b03191614155b15610e9157604051632a84050f60e01b815260040160405180910390fd5b6000610ea16101c0830183614aae565b810190610eae9190614b4e565b925050506000815190506000805b82811015610f3e57838181518110610ed657610ed6614802565b60200260200101519150846000016020810190610ef39190613dd3565b6000838152600560205260409020546001600160a01b03908116911614610f2d5760405163075fd2b160e01b815260040160405180910390fd5b610f368261249f565b600101610ebc565b50610d6883612520565b610f5061224a565b8060005b81811015610d685736848483818110610f6f57610f6f614802565b9050602002810190610f819190614ba6565b9050610fa0610f908280614bc6565b6105ad6040850160208601613dd3565b5050600101610f54565b6001600160a01b0382166000908152600160205260408120610fcc9083612585565b9392505050565b610c35838383604051806020016040528060008152506118f5565b600c546040516308ed6c0160e41b81523060048201526024810183905260009182916001600160a01b0390911690638ed6c01090604401602060405180830381865afa158015611042573d6000803e3d6000fd5b505050506040513d601f19601f820116820180604052508101906110669190614c1a565b90506001600160a01b0381161561107d5792915050565b50506000908152600560205260409020546001600160a01b031690565b6110a43382612694565b50565b6000818152600560205260408120546001600160a01b03168061090c5760405163b49aa3b560e01b815260040160405180910390fd5b60606110e761224a565b600c5460405163eaa19ab360e01b81526001600160a01b039091169063eaa19ab390611120906000199088908890600190600401614c37565b6000604051808303816000875af115801561113f573d6000803e3d6000fd5b505050506040513d6000823e601f3d908101601f191682016040526111679190810190614c94565b509050826000805b828110156112195783818151811061118957611189614802565b6020026020010151915061119d8583612706565b846001600160a01b03168787838181106111b9576111b9614802565b90506020020160208101906111ce9190614cda565b604080516000815233602082015261ffff929092169185917f598baf7bf150ca2f42be9e9f8f55e81d45f5715c3ff22bf46d697fabec7f31d6910160405180910390a460010161116f565b5050509392505050565b600c54604051633de222bb60e21b81523060048201526001600160a01b038381166024830152600092169063f7888aec906044015b602060405180830381865afa158015611275573d6000803e3d6000fd5b505050506040513d601f19601f8201168201806040525081019061090c9190614cf5565b6112a161224a565b6112ab60006127d0565b565b600c5460405163051330b560e21b81526000916001600160a01b03169063144cc2d4906112e09030908790600401614d0e565b602060405180830381865afa1580156112fd573d6000803e3d6000fd5b505050506040513d601f19601f82011682018060405250810190610fcc9190614cf5565b6000438210611343576040516305b5e09b60e51b815260040160405180910390fd5b61090c600283612585565b600c54604051631572f24960e11b81523060048201526000916001600160a01b031690632ae5e49290602401611258565b606060048054610b0490614a04565b6001600160a01b038116600090815260016020526040812061090c90612822565b6113b761224a565b600c546040516331315e5960e11b81526001600160a01b0390911690636262bcb2906113e99085908590600401614d32565b600060405180830381600087803b15801561140357600080fd5b505af1158015611417573d6000803e3d6000fd5b50505050818160405161142b929190614d61565b604051908190038120338252907f7bc9110d5de090dd59e07912d2b93a5a27ac70a60c8d8e324db4f9ee8b8b5c13906020015b60405180910390a25050565b61147533838361287e565b5050565b60006060806080840135156114a1576040516309f82f1b60e31b815260040160405180910390fd5b60246114b16101c0860186614aae565b905010806114f5575063b3bcbb7960e01b6114d06101c0860186614aae565b6114df91602491602091614af4565b6114e891614b1e565b6001600160e01b03191614155b1561151357604051632a84050f60e01b815260040160405180910390fd5b60408051600180825281830190925290816020015b60408051808201909152600080825260208201528152602001906001900390816115285790505090506040518060400160405280306001600160a01b0316815260200160008152508160008151811061158357611583614802565b6020908102919091010152600061159e6101c0860186614aae565b8101906115ab9190614b4e565b9250505060006115bb82876112ad565b905060006115c88761134e565b905060006115db8860c00135848461291d565b90506127108861018001350361164657806115fa6101a08a018a614aae565b8782828080601f016020809104026020016040519081016040528093929190818152602001838380828437600092019190915250969d50919b509199506116d198505050505050505050565b61167c816116658561165f6101808d0135612710614d87565b8661291d565b611674906101808c0135614d9a565b61271061291d565b61168a6101a08a018a614aae565b8782828080601f016020809104026020016040519081016040528093929190818152602001838380828437600092019190915250969d50919b509199505050505050505050505b9193909250565b600d546008546040516321d1336160e11b815260048101919091526000916001600160a01b0316906343a266c29060240161012060405180830381865afa158015611727573d6000803e3d6000fd5b505050506040513d601f19601f8201168201806040525081019061174b9190614dad565b61010081015190915060f51c60019081160361177a57604051631d2c125760e31b815260040160405180910390fd5b600c54604051635d53f40760e11b815260048101859052602481018490526000916001600160a01b03169063baa7e80e906044016000604051808303816000875af11580156117cd573d6000803e3d6000fd5b505050506040513d6000823e601f3d908101601f191682016040526117f591908101906149a8565b600c546040516304db994760e21b8152306004820152602481018790529192506000916001600160a01b039091169063136e651c90604401602060405180830381865afa15801561184a573d6000803e3d6000fd5b505050506040513d601f19601f8201168201806040525081019061186e9190614c1a565b90506000805b858110156118ec5783818151811061188e5761188e614802565b602002602001015191506118a28383612706565b6040513381526001600160a01b03841690889084907f031e1988c95a91ec4d655ff63a8f87a80bc9daf28d95ae10ee08c0022cfb5c8b9060200160405180910390a4600101611874565b50505050505050565b6118ff3383612347565b61191c5760405163e5fa0e3560e01b815260040160405180910390fd5b610d68848484846129e9565b600c54604051630fab094760e01b81523060048201526060916000916001600160a01b0390911690630fab094790602401602060405180830381865afa158015611976573d6000803e3d6000fd5b505050506040513d601f19601f8201168201806040525081019061199a9190614c1a565b90506001600160a01b03811615611a1857604051636d02a25560e11b8152600481018490526001600160a01b0382169063da0544aa90602401600060405180830381865afa1580156119f0573d6000803e3d6000fd5b505050506040513d6000823e601f3d908101601f19168201604052610fcc9190810190614e2d565b600c5460405163f682eeaf60e01b8152306004820152610fcc916001600160a01b03169063f682eeaf90602401600060405180830381865afa158015611a62573d6000803e3d6000fd5b505050506040513d6000823e601f3d908101601f19168201604052611a8a9190810190614e2d565b600c54604051630c8df17160e41b8152306004820152602481018790526001600160a01b039091169063c8df171090604401602060405180830381865afa158015611ad9573d6000803e3d6000fd5b505050506040513d601f19601f82011682018060405250810190611afd9190614cf5565b612a1d565b611b0a61224a565b600c5460405163d67b78fd60e01b81526001600160a01b039091169063d67b78fd90611b3c9085908590600401614d32565b600060405180830381600087803b158015611b5657600080fd5b505af1158015611b6a573d6000803e3d6000fd5b505050508181604051611b7e929190614d61565b604051908190038120338252907fd36dc0c1a06103fdcaf15f3f6fb797d1a97997514c78de073640c8b5005454b89060200161145e565b610120810135606080611bcc610160850185614aae565b8080601f01602080910402602001604051908101604052809392919081815260200183838082843760009201919091525092945060019250611c0c915050565b604051908082528060200260200182016040528015611c5157816020015b6040805180820190915260008082526020820152815260200190600190039081611c2a5790505b5090506040518060400160405280306001600160a01b03168152602001600081525081600081518110611c8657611c86614802565b60200260200101819052509193909250565b60085434151580611d195750600954604051636e49181f60e01b8152600481018390523360248201526001600160a01b0390911690636e49181f90604401602060405180830381865afa158015611cf3573d6000803e3d6000fd5b505050506040513d601f19601f82011682018060405250810190611d179190614a91565b155b80611d28575080826020013514155b15611d46576040516331c57b1b60e21b815260040160405180910390fd5b61147582612a84565b611d5761224a565b600c546040516317161f7d60e01b81526001600160a01b038381166004830152909116906317161f7d90602401600060405180830381600087803b158015611d9e57600080fd5b505af1158015611db2573d6000803e3d6000fd5b50506040513381526001600160a01b03841692507fab0014d4c7a642a02a31b303a318908c22b0fb2001f107278fc6076b4c671b659150602001610d0a565b600c54604051630155619b60e71b81523060048201526060916001600160a01b03169063aab0cd8090602401600060405180830381865afa158015611e3a573d6000803e3d6000fd5b505050506040513d6000823e601f3d908101601f19168201604052611e629190810190614e2d565b905090565b600b546001600160a01b03163003611e7e57600080fd5b600c546001600160a01b031615611e9457600080fd5b611ea08b8b8b8b612d97565b600d80546001600160a01b03808a166001600160a01b031992831617909255600c80548584169083161790556020850151600f5560408501516010556060850151600e8054919093169116179055855115611f54576040516331315e5960e11b81526001600160a01b03831690636262bcb290611f21908990600401613d15565b600060405180830381600087803b158015611f3b57600080fd5b505af1158015611f4f573d6000803e3d6000fd5b505050505b835115611fba5760405163d67b78fd60e01b81526001600160a01b0383169063d67b78fd90611f87908790600401613d15565b600060405180830381600087803b158015611fa157600080fd5b505af1158015611fb5573d6000803e3d6000fd5b505050505b6001600160a01b038516156120255760405163036129cb60e61b81526001600160a01b03868116600483015283169063d84a72c090602401600060405180830381600087803b15801561200c57600080fd5b505af1158015612020573d6000803e3d6000fd5b505050505b825151156120a3578251604051631dd7fb3f60e31b81526001600160a01b0384169163eebfd9f89161205a9190600401614e9a565b6000604051808303816000875af1158015612079573d6000803e3d6000fd5b505050506040513d6000823e601f3d908101601f191682016040526120a191908101906149a8565b505b8051806120b1575080602001515b806120bd575080604001515b1561214357604080516365c13f1960e11b815282511515600482015260208301511515602482015290820151151560448201526060820151151560648201526001600160a01b0383169063cb827e3290608401600060405180830381600087803b15801561212a57600080fd5b505af115801561213e573d6000803e3d6000fd5b505050505b61214c336127d0565b5050505050505050505050565b61216161224a565b6001600160a01b0381166121cb5760405162461bcd60e51b815260206004820152602660248201527f4f776e61626c653a206e6577206f776e657220697320746865207a65726f206160448201526564647265737360d01b60648201526084015b60405180910390fd5b6110a4816127d0565b60006001600160e01b0319821663b3bcbb7960e01b148061220557506001600160e01b031982166371700c6960e01b145b8061222057506001600160e01b0319821663da9ee8b760e01b145b8061223b57506001600160e01b03198216632b13c58f60e01b145b8061090c575061090c82612dca565b600a546001600160a01b031633146112ab5760405162461bcd60e51b815260206004820181905260248201527f4f776e61626c653a2063616c6c6572206973206e6f7420746865206f776e657260448201526064016121c2565b6000818152600560205260409020546001600160a01b03166110a45760405163b49aa3b560e01b815260040160405180910390fd5b600081815260066020526040902080546001600160a01b0319166001600160a01b038416908117909155819061230e826110a7565b6001600160a01b03167f8c5be1e5ebec7d5bd14f71427d1e84f3dd0314c0f7b2291e5b200ac8c7c3b92560405160405180910390a45050565b600080612353836110a7565b9050806001600160a01b0316846001600160a01b0316148061239a57506001600160a01b0380821660009081526007602090815260408083209388168352929052205460ff165b806123be5750836001600160a01b03166123b384610b87565b6001600160a01b0316145b949350505050565b826001600160a01b03166123d9826110a7565b6001600160a01b0316146124005760405163a195bc5360e01b815260040160405180910390fd5b6001600160a01b03821661242757604051632c95542760e01b815260040160405180910390fd5b612432838383612e1a565b61243d6000826122d9565b60008181526005602052604080822080546001600160a01b0319166001600160a01b0386811691821790925591518493918716917fddf252ad1be2c89b69c2b068fc378daa952ba7f163c4a11628f55a4df523b3ef91a4610c35838383613047565b60006124aa826110a7565b90506124b881600084612e1a565b6124c36000836122d9565b60008281526005602052604080822080546001600160a01b0319169055518391906001600160a01b038416907fddf252ad1be2c89b69c2b068fc378daa952ba7f163c4a11628f55a4df523b3ef908390a461147581600084613047565b600c546040516386bc2be360e01b81526001600160a01b03909116906386bc2be390612550908490600401613f83565b600060405180830381600087803b15801561256a57600080fd5b505af115801561257e573d6000803e3d6000fd5b5050505050565b60004382106125d65760405162461bcd60e51b815260206004820181905260248201527f436865636b706f696e74733a20626c6f636b206e6f7420796574206d696e656460448201526064016121c2565b825460005b8181101561263b5760006125ef8284613140565b90508486600001828154811061260757612607614802565b60009182526020909120015463ffffffff16111561262757809250612635565b612632816001614d9a565b91505b506125db565b811561267f578461264d600184614d87565b8154811061265d5761265d614802565b60009182526020909120015464010000000090046001600160e01b0316612682565b60005b6001600160e01b031695945050505050565b6001600160a01b0382811660008181526020819052604080822080548686166001600160a01b0319821681179092559151919094169392849290917f3134e8a2e6d97e929a7e54011ea5485d7d196dd5f0ba4d4ef95803e8e3fc257f9190a4610c3581836127018661315b565b613194565b6001600160a01b03821661272d57604051633904578f60e11b815260040160405180910390fd5b6000818152600560205260409020546001600160a01b03161561276357604051632eb5f0c360e21b815260040160405180910390fd5b61276f60008383612e1a565b60008181526005602052604080822080546001600160a01b0319166001600160a01b03861690811790915590518392907fddf252ad1be2c89b69c2b068fc378daa952ba7f163c4a11628f55a4df523b3ef908290a461147560008383613047565b600a80546001600160a01b038381166001600160a01b0319831681179093556040519116919082907f8be0079c531659141344cd1fd0a4f28419497f9722a3daafe3b4186f6b6457e090600090a35050565b8054600090801561286b5782612839600183614d87565b8154811061284957612849614802565b60009182526020909120015464010000000090046001600160e01b031661286e565b60005b6001600160e01b03169392505050565b816001600160a01b0316836001600160a01b0316036128b0576040516306f8139d60e11b815260040160405180910390fd5b6001600160a01b03838116600081815260076020908152604080832094871680845294825291829020805460ff191686151590811790915591519182527f17307eab39ab6107e8899845ad3d59bd9653f200f220920489ca2b5937696c31910160405180910390a3505050565b60008080600019858709858702925082811083820303915050806000036129575783828161294d5761294d614f81565b0492505050610fcc565b83811061298157604051631dcf306360e21b815260048101829052602481018590526044016121c2565b600084868809600260036001881981018916988990049182028318808302840302808302840302808302840302808302840302808302840302918202909203026000889003889004909101858311909403939093029303949094049190911702949350505050565b6129f48484846123c6565b612a00848484846132d1565b610d68576040516336f57c1b60e11b815260040160405180910390fd5b604051609160f51b60208201526022810182905260609060009060420160405160208183030381529060405290506000612a56826133d3565b90508481604051602001612a6b929190614f97565b6040516020818303038152906040529250505092915050565b600f5460009060c083013503612a9f57506080810135612b55565b600e546001600160a01b03161561147557601054612b5290608084013590612ac890600a6150aa565b600e54600f54604051635268657960e11b815260c08801356004820152602481019190915260a087013560448201526001600160a01b039091169063a4d0caf290606401602060405180830381865afa158015612b29573d6000803e3d6000fd5b505050506040513d601f19601f82011682018060405250810190612b4d9190614cf5565b61291d565b90505b6000601181612b6c6101a086016101808701613dd3565b6001600160a01b03168152602081019190915260400160009081205491508290612b9e6101a086016101808701613dd3565b6001600160a01b0316612bb46020870187613dd3565b6001600160a01b031603612bcb5790820190612bce565b50815b60006044612be06101e0880188614aae565b9050118015612c24575063b3bcbb7960e01b612c006101e0880188614aae565b612c0f91604491604091614af4565b612c1891614b1e565b6001600160e01b031916145b15612cfb576060612c396101e0880188614aae565b810190612c4691906150b6565b90955093508492505081159050612cc95750600c54604051634228826f60e11b81523060048201526001600160a01b039091169063845104de90602401608060405180830381865afa158015612ca0573d6000803e3d6000fd5b505050506040513d601f19601f82011682018060405250810190612cc49190615188565b606001515b15612cd357600091505b805115612cf957612cf68482612cf16101a08b016101808c01613dd3565b61356b565b93505b505b8215612d575780612d1f57604051631b57826960e21b815260040160405180910390fd5b82820160116000612d386101a08a016101808b01613dd3565b6001600160a01b03168152602081019190915260400160002055610aed565b818414610aed578160116000612d756101a08a016101808b01613dd3565b6001600160a01b03168152602081019190915260400160002055505050505050565b612da182826136ad565b5050600891909155600980546001600160a01b0319166001600160a01b03909216919091179055565b60006001600160e01b031982166380ac58cd60e01b1480612dfb57506001600160e01b03198216635b5e139f60e01b145b8061090c57506301ffc9a760e01b6001600160e01b031983161461090c565b6001600160a01b03831615610c3557600c5460405163b67cb04760e01b8152306004820152602481018390526000916001600160a01b03169063b67cb0479060440161018060405180830381865afa158015612e7a573d6000803e3d6000fd5b505050506040513d601f19601f82011682018060405250810190612e9e919061520c565b905080610160015115612f6357600d546008546040516321d1336160e11b815260048101919091526000916001600160a01b0316906343a266c29060240161012060405180830381865afa158015612efa573d6000803e3d6000fd5b505050506040513d601f19601f82011682018060405250810190612f1e9190614dad565b90506001600160a01b03841615801590612f43575061010081015160f41c6001908116145b15612f61576040516318cdaf9760e01b815260040160405180910390fd5b505b600c546040516308ed6c0160e41b8152306004820152602481018490526000916001600160a01b031690638ed6c01090604401602060405180830381865afa158015612fb3573d6000803e3d6000fd5b505050506040513d601f19601f82011682018060405250810190612fd79190614c1a565b6001600160a01b031603610d6857600c54604051638cec7d3960e01b8152600481018490526001600160a01b03868116602483015290911690638cec7d3990604401600060405180830381600087803b15801561303357600080fd5b505af1158015610aea573d6000803e3d6000fd5b600c5460405163b67cb04760e01b8152306004820152602481018390526000916001600160a01b03169063b67cb0479060440161018060405180830381865afa158015613098573d6000803e3d6000fd5b505050506040513d601f19601f820116820180604052508101906130bc919061520c565b600c5481516040516330b157e560e21b815260048101919091526001600160a01b038781166024830152868116604483015292935091169063c2c55f9490606401600060405180830381600087803b15801561311757600080fd5b505af115801561312b573d6000803e3d6000fd5b5050505061313b848484846136c6565b610d68565b600061314f60028484186152b9565b610fcc90848416614d9a565b600c54604051631266aaaf60e31b81523060048201526001600160a01b0383811660248301526000921690639335557890604401611258565b816001600160a01b0316836001600160a01b0316141580156131b65750600081115b15610c35576001600160a01b03831615613244576001600160a01b038316600090815260016020526040812081906131f1906136df856136eb565b91509150846001600160a01b03167fdec2bacdd2f05b59de34da9b523dff8be42e5e38e818c82fdb0bae774387a7248383604051613239929190918252602082015260400190565b60405180910390a250505b6001600160a01b03821615610c35576001600160a01b0382166000908152600160205260408120819061327a90613719856136eb565b91509150836001600160a01b03167fdec2bacdd2f05b59de34da9b523dff8be42e5e38e818c82fdb0bae774387a72483836040516132c2929190918252602082015260400190565b60405180910390a25050505050565b60006001600160a01b0384163b156133c857604051630a85bd0160e11b81526001600160a01b0385169063150b7a02906133159033908990889088906004016152cd565b6020604051808303816000875af1925050508015613350575060408051601f3d908101601f1916820190925261334d9181019061530a565b60015b6133ae573d80801561337e576040519150601f19603f3d011682016040523d82523d6000602084013e613383565b606091505b5080516000036133a6576040516336f57c1b60e11b815260040160405180910390fd5b805181602001fd5b6001600160e01b031916630a85bd0160e11b1490506123be565b506001949350505050565b606081516000036133f257505060408051600081526020810190915290565b60408051602e8082526105e08201909252600091602082016105c08036833701905050905060008160008151811061342c5761342c614802565b60ff90921660209283029190910190910152825160019060005b8181101561354757600086828151811061346257613462614802565b016020015160f81c905060005b8460ff168110156134ec57600886828151811061348e5761348e614802565b602002602001015160ff16901b826134a69190614d9a565b91506134b3603a83615327565b8682815181106134c5576134c5614802565b60ff909216602092830291909101909101526134e2603a836152b9565b915060010161346f565b505b801561353e576134ff603a82615327565b858560ff168151811061351457613514614802565b60ff90921660209283029190910190910152600190930192613537603a826152b9565b90506134ee565b50600101613446565b5061356261355d6135588585613725565b6137cc565b61386e565b95945050505050565b600c5460405163eaa19ab360e01b81526000916060916001600160a01b039091169063eaa19ab3906135a59088908890879060040161533b565b6000604051808303816000875af11580156135c4573d6000803e3d6000fd5b505050506040513d6000823e601f3d908101601f191682016040526135ec9190810190614c94565b81519093509091506000805b828110156136a25783818151811061361257613612614802565b602002602001015191506136268683612706565b856001600160a01b031687828151811061364257613642614802565b602002602001015161ffff16837f598baf7bf150ca2f42be9e9f8f55e81d45f5715c3ff22bf46d697fabec7f31d68b336040516136929291909182526001600160a01b0316602082015260400190565b60405180910390a46001016135f8565b505050509392505050565b60036136b983826153de565b506004610c3582826153de565b60a081015115610d6857610d6884848360a00151613947565b6000610fcc8284614d87565b60008061370d856137086136fe88612822565b868863ffffffff16565b6139b7565b91509150935093915050565b6000610fcc8284614d9a565b606060008260ff166001600160401b0381111561374457613744613f96565b60405190808252806020026020018201604052801561376d578160200160208202803683370190505b50905060005b8360ff168110156137c45784818151811061379057613790614802565b60200260200101518282815181106137aa576137aa614802565b60ff90921660209283029190910190910152600101613773565b509392505050565b80516060906000816001600160401b038111156137eb576137eb613f96565b604051908082528060200260200182016040528015613814578160200160208202803683370190505b50905060005b828110156137c45784816001875103038151811061383a5761383a614802565b602002602001015182828151811061385457613854614802565b60ff9092166020928302919091019091015260010161381a565b80516060906000816001600160401b0381111561388d5761388d613f96565b6040519080825280601f01601f1916602001820160405280156138b7576020820181803683370190505b50905060005b828110156137c4576040518060600160405280603a815260200161549e603a91398582815181106138f0576138f0614802565b602002602001015160ff168151811061390b5761390b614802565b602001015160f81c60f81b82828151811061392857613928614802565b60200101906001600160f81b031916908160001a9053506001016138bd565b6001600160a01b038316613966576139636002613719836136eb565b50505b6001600160a01b0382166139855761398260026136df836136eb565b50505b6001600160a01b03838116600090815260208190526040808220548584168352912054610c3592918216911683613194565b81546000908190816139c886612822565b9050600082118015613a06575043866139e2600185614d87565b815481106139f2576139f2614802565b60009182526020909120015463ffffffff16145b15613a6657613a1485613ae2565b86613a20600185614d87565b81548110613a3057613a30614802565b9060005260206000200160000160046101000a8154816001600160e01b0302191690836001600160e01b03160217905550613ad4565b856000016040518060400160405280613a7e43613b4f565b63ffffffff168152602001613a9288613ae2565b6001600160e01b0390811690915282546001810184556000938452602093849020835194909301519091166401000000000263ffffffff909316929092179101555b9250839150505b9250929050565b60006001600160e01b03821115613b4b5760405162461bcd60e51b815260206004820152602760248201527f53616665436173743a2076616c756520646f65736e27742066697420696e20326044820152663234206269747360c81b60648201526084016121c2565b5090565b600063ffffffff821115613b4b5760405162461bcd60e51b815260206004820152602660248201527f53616665436173743a2076616c756520646f65736e27742066697420696e203360448201526532206269747360d01b60648201526084016121c2565b6001600160e01b0319811681146110a457600080fd5b600060208284031215613bdc57600080fd5b8135610fcc81613bb4565b60008083601f840112613bf957600080fd5b5081356001600160401b03811115613c1057600080fd5b6020830191508360208260051b8501011115613adb57600080fd5b60008060008060408587031215613c4157600080fd5b84356001600160401b0380821115613c5857600080fd5b818701915087601f830112613c6c57600080fd5b813581811115613c7b57600080fd5b88602061016083028501011115613c9157600080fd5b602092830196509450908601359080821115613cac57600080fd5b50613cb987828801613be7565b95989497509550505050565b60005b83811015613ce0578181015183820152602001613cc8565b50506000910152565b60008151808452613d01816020860160208601613cc5565b601f01601f19169290920160200192915050565b602081526000610fcc6020830184613ce9565b600060208284031215613d3a57600080fd5b5035919050565b6001600160a01b03811681146110a457600080fd5b8035613d6181613d41565b919050565b60008060408385031215613d7957600080fd5b8235613d8481613d41565b946020939093013593505050565b600080600060608486031215613da757600080fd5b8335613db281613d41565b92506020840135613dc281613d41565b929592945050506040919091013590565b600060208284031215613de557600080fd5b8135610fcc81613d41565b60008060208385031215613e0357600080fd5b82356001600160401b0380821115613e1a57600080fd5b818501915085601f830112613e2e57600080fd5b813581811115613e3d57600080fd5b8660208260061b8501011115613e5257600080fd5b60209290920196919550909350505050565b60006101e08284031215613e7757600080fd5b50919050565b600060208284031215613e8f57600080fd5b81356001600160401b03811115613ea557600080fd5b6123be84828501613e64565b60008060208385031215613ec457600080fd5b82356001600160401b03811115613eda57600080fd5b613ee685828601613be7565b90969095509350505050565b600080600060408486031215613f0757600080fd5b83356001600160401b03811115613f1d57600080fd5b613f2986828701613be7565b9094509250506020840135613f3d81613d41565b809150509250925092565b600081518084526020808501945080840160005b83811015613f7857815187529582019590820190600101613f5c565b509495945050505050565b602081526000610fcc6020830184613f48565b634e487b7160e01b600052604160045260246000fd5b604051608081016001600160401b0381118282101715613fce57613fce613f96565b60405290565b60405161016081016001600160401b0381118282101715613fce57613fce613f96565b60405161012081016001600160401b0381118282101715613fce57613fce613f96565b60405161018081016001600160401b0381118282101715613fce57613fce613f96565b604051601f8201601f191681016001600160401b038111828210171561406557614065613f96565b604052919050565b60006001600160401b0382111561408657614086613f96565b5060051b60200190565b600082601f8301126140a157600080fd5b813560206140b66140b18361406d565b61403d565b82815260059290921b840181019181810190868411156140d557600080fd5b8286015b848110156140f057803583529183019183016140d9565b509695505050505050565b6000806040838503121561410e57600080fd5b82356001600160401b038082111561412557600080fd5b61413186838701614090565b9350602085013591508082111561414757600080fd5b5061415485828601613e64565b9150509250929050565b6000806020838503121561417157600080fd5b82356001600160401b038082111561418857600080fd5b818501915085601f83011261419c57600080fd5b8135818111156141ab57600080fd5b866020828501011115613e5257600080fd5b80151581146110a457600080fd5b8035613d61816141bd565b600080604083850312156141e957600080fd5b82356141f481613d41565b91506020830135614204816141bd565b809150509250929050565b838152600060206060818401526142296060840186613ce9565b83810360408581019190915285518083528387019284019060005b8181101561427257845180516001600160a01b03168452860151868401529385019391830191600101614244565b50909998505050505050505050565b6000806040838503121561429457600080fd5b50508035926020909101359150565b60006001600160401b038211156142bc576142bc613f96565b50601f01601f191660200190565b60006142d86140b1846142a3565b90508281528383830111156142ec57600080fd5b828260208301376000602084830101529392505050565b6000806000806080858703121561431957600080fd5b843561432481613d41565b9350602085013561433481613d41565b92506040850135915060608501356001600160401b0381111561435657600080fd5b8501601f8101871361436757600080fd5b614376878235602084016142ca565b91505092959194509250565b60006020828403121561439457600080fd5b81356001600160401b038111156143aa57600080fd5b82016101a08185031215610fcc57600080fd5b6000602082840312156143cf57600080fd5b81356001600160401b038111156143e557600080fd5b82016102008185031215610fcc57600080fd5b600082601f83011261440957600080fd5b610fcc838335602085016142ca565b803569ffffffffffffffffffff81168114613d6157600080fd5b803565ffffffffffff81168114613d6157600080fd5b803564ffffffffff81168114613d6157600080fd5b803561ffff81168114613d6157600080fd5b803560ff81168114613d6157600080fd5b6000608080838503121561449357600080fd5b61449b613fac565b915082356001600160401b038111156144b357600080fd5b8301601f810185136144c457600080fd5b803560206144d46140b18361406d565b82815261016092830284018201928282019190898511156144f457600080fd5b948301945b848610156145d55780868b0312156145115760008081fd5b614519613fd4565b61452287614418565b815261452f858801614432565b858201526040614540818901614448565b90820152606061455188820161445d565b9082015261456087890161445d565b8882015260a0614571818901613d56565b9082015260c0878101359082015260e061458c81890161446f565b9082015261010061459e8882016141cb565b908201526101206145b08882016141cb565b908201526101406145c28882016141cb565b90820152835294850194918301916144f9565b508652508581013590850152505050604080830135908201526145fa60608301613d56565b606082015292915050565b60006080828403121561461757600080fd5b61461f613fac565b9050813561462c816141bd565b8152602082013561463c816141bd565b6020820152604082013561464f816141bd565b604082015260608201356145fa816141bd565b60008060008060008060008060008060006101c08c8e03121561468457600080fd5b8b359a5061469460208d01613d56565b99506001600160401b038060408e013511156146af57600080fd5b6146bf8e60408f01358f016143f8565b99508060608e013511156146d257600080fd5b6146e28e60608f01358f016143f8565b98506146f060808e01613d56565b97508060a08e0135111561470357600080fd5b6147138e60a08f01358f016143f8565b965061472160c08e01613d56565b95508060e08e0135111561473457600080fd5b6147448e60e08f01358f016143f8565b9450806101008e0135111561475857600080fd5b5061476a8d6101008e01358e01614480565b92506147796101208d01613d56565b91506147898d6101408e01614605565b90509295989b509295989b9093969950565b600080604083850312156147ae57600080fd5b82356147b981613d41565b9150602083013561420481613d41565b6020808252810182905260006001600160fb1b038311156147e957600080fd5b8260051b80856040850137919091016040019392505050565b634e487b7160e01b600052603260045260246000fd5b6148358261482583614418565b69ffffffffffffffffffff169052565b61484160208201614432565b65ffffffffffff16602083015261485a60408201614448565b64ffffffffff1660408301526148726060820161445d565b61ffff1660608301526148876080820161445d565b61ffff16608083015261489c60a08201613d56565b6001600160a01b031660a083015260c081810135908301526148c060e0820161446f565b60ff1660e08301526101006148d68282016141cb565b1515908301526101206148ea8282016141cb565b1515908301526101406148fe8282016141cb565b80151584830152610d68565b6020808252810182905260008360408301825b858110156149435761492f8284614818565b61016092830192919091019060010161491d565b5095945050505050565b600082601f83011261495e57600080fd5b8151602061496e6140b18361406d565b82815260059290921b8401810191818101908684111561498d57600080fd5b8286015b848110156140f05780518352918301918301614991565b6000602082840312156149ba57600080fd5b81516001600160401b038111156149d057600080fd5b6123be8482850161494d565b61018081016149eb8285614818565b6001600160a01b03929092166101609190910152919050565b600181811c90821680614a1857607f821691505b602082108103613e7757634e487b7160e01b600052602260045260246000fd5b600060408284031215614a4a57600080fd5b604051604081018181106001600160401b0382111715614a6c57614a6c613f96565b604052823581526020928301359281019290925250919050565b8051613d61816141bd565b600060208284031215614aa357600080fd5b8151610fcc816141bd565b6000808335601e19843603018112614ac557600080fd5b8301803591506001600160401b03821115614adf57600080fd5b602001915036819003821315613adb57600080fd5b60008085851115614b0457600080fd5b83861115614b1157600080fd5b5050820193919092039150565b6001600160e01b03198135818116916004851015614b465780818660040360031b1b83161692505b505092915050565b600080600060608486031215614b6357600080fd5b833592506020840135614b7581613bb4565b915060408401356001600160401b03811115614b9057600080fd5b614b9c86828701614090565b9150509250925092565b60008235603e19833603018112614bbc57600080fd5b9190910192915050565b6000808335601e19843603018112614bdd57600080fd5b8301803591506001600160401b03821115614bf757600080fd5b6020019150600581901b3603821315613adb57600080fd5b8051613d6181613d41565b600060208284031215614c2c57600080fd5b8151610fcc81613d41565b84815260606020808301829052908201849052600090859060808401835b87811015614c7c5761ffff614c698561445d565b1682529282019290820190600101614c55565b50809350505050821515604083015295945050505050565b60008060408385031215614ca757600080fd5b82516001600160401b03811115614cbd57600080fd5b614cc98582860161494d565b925050602083015190509250929050565b600060208284031215614cec57600080fd5b610fcc8261445d565b600060208284031215614d0757600080fd5b5051919050565b6001600160a01b03831681526040602082018190526000906123be90830184613f48565b60208152816020820152818360408301376000818301604090810191909152601f909201601f19160101919050565b8183823760009101908152919050565b634e487b7160e01b600052601160045260246000fd5b8181038181111561090c5761090c614d71565b8082018082111561090c5761090c614d71565b60006101208284031215614dc057600080fd5b614dc8613ff7565b825181526020830151602082015260408301516040820152606083015160608201526080830151608082015260a083015160a082015260c083015160c0820152614e1460e08401614c0f565b60e0820152610100928301519281019290925250919050565b600060208284031215614e3f57600080fd5b81516001600160401b03811115614e5557600080fd5b8201601f81018413614e6657600080fd5b8051614e746140b1826142a3565b818152856020838501011115614e8957600080fd5b613562826020830160208601613cc5565b602080825282518282018190526000919060409081850190868401855b82811015614f74578151805169ffffffffffffffffffff1685528681015165ffffffffffff16878601528581015164ffffffffff168686015260608082015161ffff908116918701919091526080808301519091169086015260a0808201516001600160a01b03169086015260c0808201519086015260e08082015160ff16908601526101008082015115159086015261012080820151151590860152610140908101511515908501526101609093019290850190600101614eb7565b5091979650505050505050565b634e487b7160e01b600052601260045260246000fd5b60008351614fa9818460208801613cc5565b835190830190614fbd818360208801613cc5565b01949350505050565b600181815b80851115615001578160001904821115614fe757614fe7614d71565b80851615614ff457918102915b93841c9390800290614fcb565b509250929050565b6000826150185750600161090c565b816150255750600061090c565b816001811461503b576002811461504557615061565b600191505061090c565b60ff84111561505657615056614d71565b50506001821b61090c565b5060208310610133831016604e8410600b8410161715615084575081810a61090c565b61508e8383614fc6565b80600019048211156150a2576150a2614d71565b029392505050565b6000610fcc8383615009565b600080600080600060a086880312156150ce57600080fd5b85359450602080870135945060408701356150e881613bb4565b935060608701356150f8816141bd565b925060808701356001600160401b0381111561511357600080fd5b8701601f8101891361512457600080fd5b80356151326140b18261406d565b81815260059190911b8201830190838101908b83111561515157600080fd5b928401925b82841015615176576151678461445d565b82529284019290840190615156565b80955050505050509295509295909350565b60006080828403121561519a57600080fd5b604051608081018181106001600160401b03821117156151bc576151bc613f96565b60405282516151ca816141bd565b815260208301516151da816141bd565b602082015260408301516151ed816141bd565b60408201526060830151615200816141bd565b60608201529392505050565b6000610180828403121561521f57600080fd5b61522761401a565b825181526020830151602082015260408301516040820152606083015160608201526080830151608082015260a083015160a082015260c083015160c082015261527360e08401614c0f565b60e08201526101008381015190820152610120808401519082015261014061529c818501614a86565b908201526101606152ae848201614a86565b908201529392505050565b6000826152c8576152c8614f81565b500490565b6001600160a01b038581168252841660208201526040810183905260806060820181905260009061530090830184613ce9565b9695505050505050565b60006020828403121561531c57600080fd5b8151610fcc81613bb4565b60008261533657615336614f81565b500690565b6000606082018583526020606081850152818651808452608086019150828801935060005b8181101561538057845161ffff1683529383019391830191600101615360565b50508093505050508215156040830152949350505050565b601f821115610c3557600081815260208120601f850160051c810160208610156153bf5750805b601f850160051c820191505b81811015610aed578281556001016153cb565b81516001600160401b038111156153f7576153f7613f96565b61540b816154058454614a04565b84615398565b602080601f83116001811461544057600084156154285750858301515b600019600386901b1c1916600185901b178555610aed565b600085815260208120601f198616915b8281101561546f57888601518255948401946001909101908401615450565b508582101561548d5787850151600019600388901b60f8161c191681555b5050505050600190811b0190555056fe31323334353637383941424344454647484a4b4c4d4e505152535455565758595a6162636465666768696a6b6d6e6f707172737475767778797aa26469706673582212204d6c62eafe1982999ae2234bd1fe45ada34d876d639cd654ad07a0a48d2823de64736f6c63430008100033",
    "linkReferences": {}
  },
  "methodIdentifiers": {
    "adjustTiers((uint80,uint48,uint40,uint16,uint16,address,bytes32,uint8,bool,bool,bool)[],uint256[])": "0575ea7a",
    "approve(address,uint256)": "095ea7b3",
    "balanceOf(address)": "70a08231",
    "codeOrigin()": "1d153ca4",
    "contractURI()": "e8a3d485",
    "creditsOf(address)": "245a45b5",
    "delegate(address)": "5c19a95c",
    "delegates(address)": "587cde1e",
    "didPay((address,uint256,uint256,(address,uint256,uint256,uint256),(address,uint256,uint256,uint256),uint256,address,bool,string,bytes))": "da9ee8b7",
    "didRedeem((address,uint256,uint256,uint256,(address,uint256,uint256,uint256),(address,uint256,uint256,uint256),address,string,bytes))": "2b13c58f",
    "directory()": "c41c2f24",
    "firstOwnerOf(uint256)": "54c6d1f5",
    "fundingCycleStore()": "557e7155",
    "getApproved(uint256)": "081812fc",
    "getPastTotalSupply(uint256)": "8e539e8c",
    "getPastVotes(address,uint256)": "3a46b1a8",
    "getVotes(address)": "9ab24eb0",
    "initialize(uint256,address,string,string,address,string,address,string,((uint80,uint48,uint40,uint16,uint16,address,bytes32,uint8,bool,bool,bool)[],uint256,uint256,address),address,(bool,bool,bool,bool))": "e8ed5d67",
    "isApprovedForAll(address,address)": "e985e9c5",
    "mintFor((uint16[],address)[])": "36c1a93b",
    "mintFor(uint16[],address)": "6ac6d941",
    "mintReservesFor((uint256,uint256)[])": "2a596e53",
    "mintReservesFor(uint256,uint256)": "aa4fb15b",
    "name()": "06fdde03",
    "owner()": "8da5cb5b",
    "ownerOf(uint256)": "6352211e",
    "payParams((address,address,(address,uint256,uint256,uint256),uint256,uint256,address,uint256,uint256,string,bytes))": "d46cf171",
    "prices()": "d3419bf3",
    "pricingCurrency()": "64640c1e",
    "pricingDecimals()": "4ecba625",
    "projectId()": "3fafa127",
    "redeemParams((address,address,uint256,uint256,uint256,uint256,uint256,(address,uint256,uint256,uint256),bool,uint256,string,bytes))": "a51cfd18",
    "redemptionWeightOf(uint256[],(address,address,uint256,uint256,uint256,uint256,uint256,(address,uint256,uint256,uint256),bool,uint256,string,bytes))": "7ba62bf9",
    "renounceOwnership()": "715018a6",
    "safeTransferFrom(address,address,uint256)": "42842e0e",
    "safeTransferFrom(address,address,uint256,bytes)": "b88d4fde",
    "setApprovalForAll(address,bool)": "a22cb465",
    "setBaseUri(string)": "a0bcfc7f",
    "setContractUri(string)": "ccb4807b",
    "setDefaultReservedTokenBeneficiary(address)": "df487e26",
    "setTokenUriResolver(address)": "2407497e",
    "store()": "975057e7",
    "supportsInterface(bytes4)": "01ffc9a7",
    "symbol()": "95d89b41",
    "tokenURI(uint256)": "c87b56dd",
    "totalRedemptionWeight((address,address,uint256,uint256,uint256,uint256,uint256,(address,uint256,uint256,uint256),bool,uint256,string,bytes))": "9494bf72",
    "transferFrom(address,address,uint256)": "23b872dd",
    "transferOwnership(address)": "f2fde38b"
  },
  "id": 0
}