{
  "abi": [
    {
      "inputs": [
        {
          "internalType": "contract IJBProjects",
          "name": "_projects",
          "type": "address"
        },
        {
          "internalType": "contract IJBOperatorStore",
          "name": "_operatorStore",
          "type": "address"
        }
      ],
      "stateMutability": "nonpayable",
      "type": "constructor"
    },
    {
      "inputs": [],
      "name": "ALEADY_MINTED",
      "type": "error"
    },
    {
      "inputs": [],
      "name": "APPROVAL_TO_CURRENT_OWNER",
      "type": "error"
    },
    {
      "inputs": [],
      "name": "APPROVE_TO_CALLER",
      "type": "error"
    },
    {
      "inputs": [],
      "name": "BLOCK_NOT_YET_MINED",
      "type": "error"
    },
    {
      "inputs": [],
      "name": "CALLER_NOT_OWNER_OR_APPROVED",
      "type": "error"
    },
    {
      "inputs": [],
      "name": "INCORRECT_OWNER",
      "type": "error"
    },
    {
      "inputs": [],
      "name": "INVALID",
      "type": "error"
    },
    {
      "inputs": [
        {
          "internalType": "address",
          "name": "ownerAddress",
          "type": "address"
        },
        {
          "internalType": "uint256",
          "name": "projectId",
          "type": "uint256"
        }
      ],
      "name": "INVALID_NEW_OWNER",
      "type": "error"
    },
    {
      "inputs": [],
      "name": "INVALID_PAYMENT_EVENT",
      "type": "error"
    },
    {
      "inputs": [],
      "name": "INVALID_REDEMPTION_EVENT",
      "type": "error"
    },
    {
      "inputs": [],
      "name": "INVALID_REDEMPTION_METADATA",
      "type": "error"
    },
    {
      "inputs": [],
      "name": "INVALID_TOKEN_ID",
      "type": "error"
    },
    {
      "inputs": [],
      "name": "MINT_TO_ZERO",
      "type": "error"
    },
    {
      "inputs": [],
      "name": "OVERSPENDING",
      "type": "error"
    },
    {
      "inputs": [
        {
          "internalType": "uint256",
          "name": "prod1",
          "type": "uint256"
        },
        {
          "internalType": "uint256",
          "name": "denominator",
          "type": "uint256"
        }
      ],
      "name": "PRBMath__MulDivOverflow",
      "type": "error"
    },
    {
      "inputs": [],
      "name": "RESERVED_TOKEN_MINTING_PAUSED",
      "type": "error"
    },
    {
      "inputs": [],
      "name": "SIGNATURE_EXPIRED",
      "type": "error"
    },
    {
      "inputs": [],
      "name": "TRANSFERS_PAUSED",
      "type": "error"
    },
    {
      "inputs": [],
      "name": "TRANSFER_TO_NON_IMPLEMENTER",
      "type": "error"
    },
    {
      "inputs": [],
      "name": "TRANSFER_TO_ZERO_ADDRESS",
      "type": "error"
    },
    {
      "inputs": [],
      "name": "UNAUTHORIZED",
      "type": "error"
    },
    {
      "inputs": [
        {
          "internalType": "uint256",
          "name": "_tokenId",
          "type": "uint256"
        }
      ],
      "name": "UNAUTHORIZED_TOKEN",
      "type": "error"
    },
    {
      "inputs": [],
      "name": "UNEXPECTED_TOKEN_REDEEMED",
      "type": "error"
    },
    {
      "anonymous": false,
      "inputs": [
        {
          "indexed": true,
          "internalType": "uint256",
          "name": "changeAmount",
          "type": "uint256"
        },
        {
          "indexed": true,
          "internalType": "uint256",
          "name": "newTotalCredits",
          "type": "uint256"
        },
        {
          "indexed": true,
          "internalType": "address",
          "name": "account",
          "type": "address"
        },
        {
          "indexed": false,
          "internalType": "address",
          "name": "caller",
          "type": "address"
        }
      ],
      "name": "AddCredits",
      "type": "event"
    },
    {
      "anonymous": false,
      "inputs": [
        {
          "indexed": true,
          "internalType": "uint256",
          "name": "tierId",
          "type": "uint256"
        },
        {
          "components": [
            {
              "internalType": "uint88",
              "name": "price",
              "type": "uint88"
            },
            {
              "internalType": "uint40",
              "name": "initialQuantity",
              "type": "uint40"
            },
            {
              "internalType": "uint40",
              "name": "votingUnits",
              "type": "uint40"
            },
            {
              "internalType": "uint16",
              "name": "reservedRate",
              "type": "uint16"
            },
            {
              "internalType": "address",
              "name": "reservedTokenBeneficiary",
              "type": "address"
            },
            {
              "internalType": "uint8",
              "name": "royaltyRate",
              "type": "uint8"
            },
            {
              "internalType": "address",
              "name": "royaltyBeneficiary",
              "type": "address"
            },
            {
              "internalType": "bytes32",
              "name": "encodedIPFSUri",
              "type": "bytes32"
            },
            {
              "internalType": "uint16",
              "name": "category",
              "type": "uint16"
            },
            {
              "internalType": "bool",
              "name": "allowManualMint",
              "type": "bool"
            },
            {
              "internalType": "bool",
              "name": "shouldUseReservedTokenBeneficiaryAsDefault",
              "type": "bool"
            },
            {
              "internalType": "bool",
              "name": "shouldUseRoyaltyBeneficiaryAsDefault",
              "type": "bool"
            },
            {
              "internalType": "bool",
              "name": "transfersPausable",
              "type": "bool"
            },
            {
              "internalType": "bool",
              "name": "useVotingUnits",
              "type": "bool"
            }
          ],
          "indexed": false,
          "internalType": "struct JB721TierParams",
          "name": "data",
          "type": "tuple"
        },
        {
          "indexed": false,
          "internalType": "address",
          "name": "caller",
          "type": "address"
        }
      ],
      "name": "AddTier",
      "type": "event"
    },
    {
      "anonymous": false,
      "inputs": [
        {
          "indexed": true,
          "internalType": "address",
          "name": "owner",
          "type": "address"
        },
        {
          "indexed": true,
          "internalType": "address",
          "name": "approved",
          "type": "address"
        },
        {
          "indexed": true,
          "internalType": "uint256",
          "name": "tokenId",
          "type": "uint256"
        }
      ],
      "name": "Approval",
      "type": "event"
    },
    {
      "anonymous": false,
      "inputs": [
        {
          "indexed": true,
          "internalType": "address",
          "name": "owner",
          "type": "address"
        },
        {
          "indexed": true,
          "internalType": "address",
          "name": "operator",
          "type": "address"
        },
        {
          "indexed": false,
          "internalType": "bool",
          "name": "approved",
          "type": "bool"
        }
      ],
      "name": "ApprovalForAll",
      "type": "event"
    },
    {
      "anonymous": false,
      "inputs": [
        {
          "indexed": true,
          "internalType": "address",
          "name": "delegator",
          "type": "address"
        },
        {
          "indexed": true,
          "internalType": "address",
          "name": "fromDelegate",
          "type": "address"
        },
        {
          "indexed": true,
          "internalType": "address",
          "name": "toDelegate",
          "type": "address"
        }
      ],
      "name": "DelegateChanged",
      "type": "event"
    },
    {
      "anonymous": false,
      "inputs": [
        {
          "indexed": true,
          "internalType": "address",
          "name": "delegate",
          "type": "address"
        },
        {
          "indexed": false,
          "internalType": "uint256",
          "name": "previousBalance",
          "type": "uint256"
        },
        {
          "indexed": false,
          "internalType": "uint256",
          "name": "newBalance",
          "type": "uint256"
        }
      ],
      "name": "DelegateVotesChanged",
      "type": "event"
    },
    {
      "anonymous": false,
      "inputs": [
        {
          "indexed": true,
          "internalType": "uint256",
          "name": "tokenId",
          "type": "uint256"
        },
        {
          "indexed": true,
          "internalType": "uint256",
          "name": "tierId",
          "type": "uint256"
        },
        {
          "indexed": true,
          "internalType": "address",
          "name": "beneficiary",
          "type": "address"
        },
        {
          "indexed": false,
          "internalType": "uint256",
          "name": "totalAmountContributed",
          "type": "uint256"
        },
        {
          "indexed": false,
          "internalType": "address",
          "name": "caller",
          "type": "address"
        }
      ],
      "name": "Mint",
      "type": "event"
    },
    {
      "anonymous": false,
      "inputs": [
        {
          "indexed": true,
          "internalType": "uint256",
          "name": "tokenId",
          "type": "uint256"
        },
        {
          "indexed": true,
          "internalType": "uint256",
          "name": "tierId",
          "type": "uint256"
        },
        {
          "indexed": true,
          "internalType": "address",
          "name": "beneficiary",
          "type": "address"
        },
        {
          "indexed": false,
          "internalType": "address",
          "name": "caller",
          "type": "address"
        }
      ],
      "name": "MintReservedToken",
      "type": "event"
    },
    {
      "anonymous": false,
      "inputs": [
        {
          "indexed": true,
          "internalType": "address",
          "name": "previousOwner",
          "type": "address"
        },
        {
          "indexed": true,
          "internalType": "address",
          "name": "newOwner",
          "type": "address"
        }
      ],
      "name": "OwnershipTransferred",
      "type": "event"
    },
    {
      "anonymous": false,
      "inputs": [
        {
          "indexed": false,
          "internalType": "uint8",
          "name": "newIndex",
          "type": "uint8"
        }
      ],
      "name": "PermissionIndexChanged",
      "type": "event"
    },
    {
      "anonymous": false,
      "inputs": [
        {
          "indexed": true,
          "internalType": "uint256",
          "name": "tierId",
          "type": "uint256"
        },
        {
          "indexed": false,
          "internalType": "address",
          "name": "caller",
          "type": "address"
        }
      ],
      "name": "RemoveTier",
      "type": "event"
    },
    {
      "anonymous": false,
      "inputs": [
        {
          "indexed": true,
          "internalType": "string",
          "name": "baseUri",
          "type": "string"
        },
        {
          "indexed": false,
          "internalType": "address",
          "name": "caller",
          "type": "address"
        }
      ],
      "name": "SetBaseUri",
      "type": "event"
    },
    {
      "anonymous": false,
      "inputs": [
        {
          "indexed": true,
          "internalType": "string",
          "name": "contractUri",
          "type": "string"
        },
        {
          "indexed": false,
          "internalType": "address",
          "name": "caller",
          "type": "address"
        }
      ],
      "name": "SetContractUri",
      "type": "event"
    },
    {
      "anonymous": false,
      "inputs": [
        {
          "indexed": true,
          "internalType": "address",
          "name": "beneficiary",
          "type": "address"
        },
        {
          "indexed": false,
          "internalType": "address",
          "name": "caller",
          "type": "address"
        }
      ],
      "name": "SetDefaultReservedTokenBeneficiary",
      "type": "event"
    },
    {
      "anonymous": false,
      "inputs": [
        {
          "indexed": true,
          "internalType": "uint256",
          "name": "tierId",
          "type": "uint256"
        },
        {
          "indexed": false,
          "internalType": "bytes32",
          "name": "encodedIPFSUri",
          "type": "bytes32"
        },
        {
          "indexed": false,
          "internalType": "address",
          "name": "caller",
          "type": "address"
        }
      ],
      "name": "SetEncodedIPFSUri",
      "type": "event"
    },
    {
      "anonymous": false,
      "inputs": [
        {
          "indexed": true,
          "internalType": "contract IJBTokenUriResolver",
          "name": "newResolver",
          "type": "address"
        },
        {
          "indexed": false,
          "internalType": "address",
          "name": "caller",
          "type": "address"
        }
      ],
      "name": "SetTokenUriResolver",
      "type": "event"
    },
    {
      "anonymous": false,
      "inputs": [
        {
          "indexed": true,
          "internalType": "address",
          "name": "from",
          "type": "address"
        },
        {
          "indexed": true,
          "internalType": "address",
          "name": "to",
          "type": "address"
        },
        {
          "indexed": true,
          "internalType": "uint256",
          "name": "tokenId",
          "type": "uint256"
        }
      ],
      "name": "Transfer",
      "type": "event"
    },
    {
      "anonymous": false,
      "inputs": [
        {
          "indexed": true,
          "internalType": "uint256",
          "name": "changeAmount",
          "type": "uint256"
        },
        {
          "indexed": true,
          "internalType": "uint256",
          "name": "newTotalCredits",
          "type": "uint256"
        },
        {
          "indexed": true,
          "internalType": "address",
          "name": "account",
          "type": "address"
        },
        {
          "indexed": false,
          "internalType": "address",
          "name": "caller",
          "type": "address"
        }
      ],
      "name": "UseCredits",
      "type": "event"
    },
    {
      "inputs": [
        {
          "components": [
            {
              "internalType": "uint88",
              "name": "price",
              "type": "uint88"
            },
            {
              "internalType": "uint40",
              "name": "initialQuantity",
              "type": "uint40"
            },
            {
              "internalType": "uint40",
              "name": "votingUnits",
              "type": "uint40"
            },
            {
              "internalType": "uint16",
              "name": "reservedRate",
              "type": "uint16"
            },
            {
              "internalType": "address",
              "name": "reservedTokenBeneficiary",
              "type": "address"
            },
            {
              "internalType": "uint8",
              "name": "royaltyRate",
              "type": "uint8"
            },
            {
              "internalType": "address",
              "name": "royaltyBeneficiary",
              "type": "address"
            },
            {
              "internalType": "bytes32",
              "name": "encodedIPFSUri",
              "type": "bytes32"
            },
            {
              "internalType": "uint16",
              "name": "category",
              "type": "uint16"
            },
            {
              "internalType": "bool",
              "name": "allowManualMint",
              "type": "bool"
            },
            {
              "internalType": "bool",
              "name": "shouldUseReservedTokenBeneficiaryAsDefault",
              "type": "bool"
            },
            {
              "internalType": "bool",
              "name": "shouldUseRoyaltyBeneficiaryAsDefault",
              "type": "bool"
            },
            {
              "internalType": "bool",
              "name": "transfersPausable",
              "type": "bool"
            },
            {
              "internalType": "bool",
              "name": "useVotingUnits",
              "type": "bool"
            }
          ],
          "internalType": "struct JB721TierParams[]",
          "name": "_tiersToAdd",
          "type": "tuple[]"
        },
        {
          "internalType": "uint256[]",
          "name": "_tierIdsToRemove",
          "type": "uint256[]"
        }
      ],
      "name": "adjustTiers",
      "outputs": [],
      "stateMutability": "nonpayable",
      "type": "function"
    },
    {
      "inputs": [
        {
          "internalType": "address",
          "name": "to",
          "type": "address"
        },
        {
          "internalType": "uint256",
          "name": "tokenId",
          "type": "uint256"
        }
      ],
      "name": "approve",
      "outputs": [],
      "stateMutability": "nonpayable",
      "type": "function"
    },
    {
      "inputs": [
        {
          "internalType": "address",
          "name": "_owner",
          "type": "address"
        }
      ],
      "name": "balanceOf",
      "outputs": [
        {
          "internalType": "uint256",
          "name": "balance",
          "type": "uint256"
        }
      ],
      "stateMutability": "view",
      "type": "function"
    },
    {
      "inputs": [],
      "name": "baseURI",
      "outputs": [
        {
          "internalType": "string",
          "name": "",
          "type": "string"
        }
      ],
      "stateMutability": "view",
      "type": "function"
    },
    {
      "inputs": [],
      "name": "codeOrigin",
      "outputs": [
        {
          "internalType": "address",
          "name": "",
          "type": "address"
        }
      ],
      "stateMutability": "view",
      "type": "function"
    },
    {
      "inputs": [],
      "name": "contractURI",
      "outputs": [
        {
          "internalType": "string",
          "name": "",
          "type": "string"
        }
      ],
      "stateMutability": "view",
      "type": "function"
    },
    {
      "inputs": [
        {
          "internalType": "address",
          "name": "",
          "type": "address"
        }
      ],
      "name": "creditsOf",
      "outputs": [
        {
          "internalType": "uint256",
          "name": "",
          "type": "uint256"
        }
      ],
      "stateMutability": "view",
      "type": "function"
    },
    {
      "inputs": [
        {
          "internalType": "address",
          "name": "delegatee",
          "type": "address"
        }
      ],
      "name": "delegate",
      "outputs": [],
      "stateMutability": "nonpayable",
      "type": "function"
    },
    {
      "inputs": [
        {
          "internalType": "address",
          "name": "account",
          "type": "address"
        }
      ],
      "name": "delegates",
      "outputs": [
        {
          "internalType": "address",
          "name": "",
          "type": "address"
        }
      ],
      "stateMutability": "view",
      "type": "function"
    },
    {
      "inputs": [
        {
          "components": [
            {
              "internalType": "address",
              "name": "payer",
              "type": "address"
            },
            {
              "internalType": "uint256",
              "name": "projectId",
              "type": "uint256"
            },
            {
              "internalType": "uint256",
              "name": "currentFundingCycleConfiguration",
              "type": "uint256"
            },
            {
              "components": [
                {
                  "internalType": "address",
                  "name": "token",
                  "type": "address"
                },
                {
                  "internalType": "uint256",
                  "name": "value",
                  "type": "uint256"
                },
                {
                  "internalType": "uint256",
                  "name": "decimals",
                  "type": "uint256"
                },
                {
                  "internalType": "uint256",
                  "name": "currency",
                  "type": "uint256"
                }
              ],
              "internalType": "struct JBTokenAmount",
              "name": "amount",
              "type": "tuple"
            },
            {
              "components": [
                {
                  "internalType": "address",
                  "name": "token",
                  "type": "address"
                },
                {
                  "internalType": "uint256",
                  "name": "value",
                  "type": "uint256"
                },
                {
                  "internalType": "uint256",
                  "name": "decimals",
                  "type": "uint256"
                },
                {
                  "internalType": "uint256",
                  "name": "currency",
                  "type": "uint256"
                }
              ],
              "internalType": "struct JBTokenAmount",
              "name": "forwardedAmount",
              "type": "tuple"
            },
            {
              "internalType": "uint256",
              "name": "projectTokenCount",
              "type": "uint256"
            },
            {
              "internalType": "address",
              "name": "beneficiary",
              "type": "address"
            },
            {
              "internalType": "bool",
              "name": "preferClaimedTokens",
              "type": "bool"
            },
            {
              "internalType": "string",
              "name": "memo",
              "type": "string"
            },
            {
              "internalType": "bytes",
              "name": "metadata",
              "type": "bytes"
            }
          ],
          "internalType": "struct JBDidPayData",
          "name": "_data",
          "type": "tuple"
        }
      ],
      "name": "didPay",
      "outputs": [],
      "stateMutability": "payable",
      "type": "function"
    },
    {
      "inputs": [
        {
          "components": [
            {
              "internalType": "address",
              "name": "holder",
              "type": "address"
            },
            {
              "internalType": "uint256",
              "name": "projectId",
              "type": "uint256"
            },
            {
              "internalType": "uint256",
              "name": "currentFundingCycleConfiguration",
              "type": "uint256"
            },
            {
              "internalType": "uint256",
              "name": "projectTokenCount",
              "type": "uint256"
            },
            {
              "components": [
                {
                  "internalType": "address",
                  "name": "token",
                  "type": "address"
                },
                {
                  "internalType": "uint256",
                  "name": "value",
                  "type": "uint256"
                },
                {
                  "internalType": "uint256",
                  "name": "decimals",
                  "type": "uint256"
                },
                {
                  "internalType": "uint256",
                  "name": "currency",
                  "type": "uint256"
                }
              ],
              "internalType": "struct JBTokenAmount",
              "name": "reclaimedAmount",
              "type": "tuple"
            },
            {
              "components": [
                {
                  "internalType": "address",
                  "name": "token",
                  "type": "address"
                },
                {
                  "internalType": "uint256",
                  "name": "value",
                  "type": "uint256"
                },
                {
                  "internalType": "uint256",
                  "name": "decimals",
                  "type": "uint256"
                },
                {
                  "internalType": "uint256",
                  "name": "currency",
                  "type": "uint256"
                }
              ],
              "internalType": "struct JBTokenAmount",
              "name": "forwardedAmount",
              "type": "tuple"
            },
            {
              "internalType": "address payable",
              "name": "beneficiary",
              "type": "address"
            },
            {
              "internalType": "string",
              "name": "memo",
              "type": "string"
            },
            {
              "internalType": "bytes",
              "name": "metadata",
              "type": "bytes"
            }
          ],
          "internalType": "struct JBDidRedeemData",
          "name": "_data",
          "type": "tuple"
        }
      ],
      "name": "didRedeem",
      "outputs": [],
      "stateMutability": "payable",
      "type": "function"
    },
    {
      "inputs": [],
      "name": "directory",
      "outputs": [
        {
          "internalType": "contract IJBDirectory",
          "name": "",
          "type": "address"
        }
      ],
      "stateMutability": "view",
      "type": "function"
    },
    {
      "inputs": [
        {
          "internalType": "uint256",
          "name": "_tokenId",
          "type": "uint256"
        }
      ],
      "name": "firstOwnerOf",
      "outputs": [
        {
          "internalType": "address",
          "name": "",
          "type": "address"
        }
      ],
      "stateMutability": "view",
      "type": "function"
    },
    {
      "inputs": [],
      "name": "fundingCycleStore",
      "outputs": [
        {
          "internalType": "contract IJBFundingCycleStore",
          "name": "",
          "type": "address"
        }
      ],
      "stateMutability": "view",
      "type": "function"
    },
    {
      "inputs": [
        {
          "internalType": "uint256",
          "name": "tokenId",
          "type": "uint256"
        }
      ],
      "name": "getApproved",
      "outputs": [
        {
          "internalType": "address",
          "name": "",
          "type": "address"
        }
      ],
      "stateMutability": "view",
      "type": "function"
    },
    {
      "inputs": [
        {
          "internalType": "uint256",
          "name": "blockNumber",
          "type": "uint256"
        }
      ],
      "name": "getPastTotalSupply",
      "outputs": [
        {
          "internalType": "uint256",
          "name": "",
          "type": "uint256"
        }
      ],
      "stateMutability": "view",
      "type": "function"
    },
    {
      "inputs": [
        {
          "internalType": "address",
          "name": "account",
          "type": "address"
        },
        {
          "internalType": "uint256",
          "name": "blockNumber",
          "type": "uint256"
        }
      ],
      "name": "getPastVotes",
      "outputs": [
        {
          "internalType": "uint256",
          "name": "",
          "type": "uint256"
        }
      ],
      "stateMutability": "view",
      "type": "function"
    },
    {
      "inputs": [
        {
          "internalType": "address",
          "name": "account",
          "type": "address"
        }
      ],
      "name": "getVotes",
      "outputs": [
        {
          "internalType": "uint256",
          "name": "",
          "type": "uint256"
        }
      ],
      "stateMutability": "view",
      "type": "function"
    },
    {
      "inputs": [
        {
          "internalType": "uint256",
          "name": "_projectId",
          "type": "uint256"
        },
        {
          "internalType": "contract IJBDirectory",
          "name": "_directory",
          "type": "address"
        },
        {
          "internalType": "string",
          "name": "_name",
          "type": "string"
        },
        {
          "internalType": "string",
          "name": "_symbol",
          "type": "string"
        },
        {
          "internalType": "contract IJBFundingCycleStore",
          "name": "_fundingCycleStore",
          "type": "address"
        },
        {
          "internalType": "string",
          "name": "_baseUri",
          "type": "string"
        },
        {
          "internalType": "contract IJBTokenUriResolver",
          "name": "_tokenUriResolver",
          "type": "address"
        },
        {
          "internalType": "string",
          "name": "_contractUri",
          "type": "string"
        },
        {
          "components": [
            {
              "components": [
                {
                  "internalType": "uint88",
                  "name": "price",
                  "type": "uint88"
                },
                {
                  "internalType": "uint40",
                  "name": "initialQuantity",
                  "type": "uint40"
                },
                {
                  "internalType": "uint40",
                  "name": "votingUnits",
                  "type": "uint40"
                },
                {
                  "internalType": "uint16",
                  "name": "reservedRate",
                  "type": "uint16"
                },
                {
                  "internalType": "address",
                  "name": "reservedTokenBeneficiary",
                  "type": "address"
                },
                {
                  "internalType": "uint8",
                  "name": "royaltyRate",
                  "type": "uint8"
                },
                {
                  "internalType": "address",
                  "name": "royaltyBeneficiary",
                  "type": "address"
                },
                {
                  "internalType": "bytes32",
                  "name": "encodedIPFSUri",
                  "type": "bytes32"
                },
                {
                  "internalType": "uint16",
                  "name": "category",
                  "type": "uint16"
                },
                {
                  "internalType": "bool",
                  "name": "allowManualMint",
                  "type": "bool"
                },
                {
                  "internalType": "bool",
                  "name": "shouldUseReservedTokenBeneficiaryAsDefault",
                  "type": "bool"
                },
                {
                  "internalType": "bool",
                  "name": "shouldUseRoyaltyBeneficiaryAsDefault",
                  "type": "bool"
                },
                {
                  "internalType": "bool",
                  "name": "transfersPausable",
                  "type": "bool"
                },
                {
                  "internalType": "bool",
                  "name": "useVotingUnits",
                  "type": "bool"
                }
              ],
              "internalType": "struct JB721TierParams[]",
              "name": "tiers",
              "type": "tuple[]"
            },
            {
              "internalType": "uint256",
              "name": "currency",
              "type": "uint256"
            },
            {
              "internalType": "uint256",
              "name": "decimals",
              "type": "uint256"
            },
            {
              "internalType": "contract IJBPrices",
              "name": "prices",
              "type": "address"
            }
          ],
          "internalType": "struct JB721PricingParams",
          "name": "_pricing",
          "type": "tuple"
        },
        {
          "internalType": "contract IJBTiered721DelegateStore",
          "name": "_store",
          "type": "address"
        },
        {
          "components": [
            {
              "internalType": "bool",
              "name": "lockReservedTokenChanges",
              "type": "bool"
            },
            {
              "internalType": "bool",
              "name": "lockVotingUnitChanges",
              "type": "bool"
            },
            {
              "internalType": "bool",
              "name": "lockManualMintingChanges",
              "type": "bool"
            },
            {
              "internalType": "bool",
              "name": "preventOverspending",
              "type": "bool"
            }
          ],
          "internalType": "struct JBTiered721Flags",
          "name": "_flags",
          "type": "tuple"
        }
      ],
      "name": "initialize",
      "outputs": [],
      "stateMutability": "nonpayable",
      "type": "function"
    },
    {
      "inputs": [
        {
          "internalType": "address",
          "name": "owner",
          "type": "address"
        },
        {
          "internalType": "address",
          "name": "operator",
          "type": "address"
        }
      ],
      "name": "isApprovedForAll",
      "outputs": [
        {
          "internalType": "bool",
          "name": "",
          "type": "bool"
        }
      ],
      "stateMutability": "view",
      "type": "function"
    },
    {
      "inputs": [],
      "name": "jbOwner",
      "outputs": [
        {
          "internalType": "address",
          "name": "owner",
          "type": "address"
        },
        {
          "internalType": "uint88",
          "name": "projectId",
          "type": "uint88"
        },
        {
          "internalType": "uint8",
          "name": "permissionIndex",
          "type": "uint8"
        }
      ],
      "stateMutability": "view",
      "type": "function"
    },
    {
      "inputs": [
        {
          "internalType": "uint16[]",
          "name": "_tierIds",
          "type": "uint16[]"
        },
        {
          "internalType": "address",
          "name": "_beneficiary",
          "type": "address"
        }
      ],
      "name": "mintFor",
      "outputs": [
        {
          "internalType": "uint256[]",
          "name": "tokenIds",
          "type": "uint256[]"
        }
      ],
      "stateMutability": "nonpayable",
      "type": "function"
    },
    {
      "inputs": [
        {
          "components": [
            {
              "internalType": "uint256",
              "name": "tierId",
              "type": "uint256"
            },
            {
              "internalType": "uint256",
              "name": "count",
              "type": "uint256"
            }
          ],
          "internalType": "struct JBTiered721MintReservesForTiersData[]",
          "name": "_mintReservesForTiersData",
          "type": "tuple[]"
        }
      ],
      "name": "mintReservesFor",
      "outputs": [],
      "stateMutability": "nonpayable",
      "type": "function"
    },
    {
      "inputs": [
        {
          "internalType": "uint256",
          "name": "_tierId",
          "type": "uint256"
        },
        {
          "internalType": "uint256",
          "name": "_count",
          "type": "uint256"
        }
      ],
      "name": "mintReservesFor",
      "outputs": [],
      "stateMutability": "nonpayable",
      "type": "function"
    },
    {
      "inputs": [],
      "name": "name",
      "outputs": [
        {
          "internalType": "string",
          "name": "",
          "type": "string"
        }
      ],
      "stateMutability": "view",
      "type": "function"
    },
    {
      "inputs": [],
      "name": "operatorStore",
      "outputs": [
        {
          "internalType": "contract IJBOperatorStore",
          "name": "",
          "type": "address"
        }
      ],
      "stateMutability": "view",
      "type": "function"
    },
    {
      "inputs": [],
      "name": "owner",
      "outputs": [
        {
          "internalType": "address",
          "name": "",
          "type": "address"
        }
      ],
      "stateMutability": "view",
      "type": "function"
    },
    {
      "inputs": [
        {
          "internalType": "uint256",
          "name": "tokenId",
          "type": "uint256"
        }
      ],
      "name": "ownerOf",
      "outputs": [
        {
          "internalType": "address",
          "name": "",
          "type": "address"
        }
      ],
      "stateMutability": "view",
      "type": "function"
    },
    {
      "inputs": [
        {
          "components": [
            {
              "internalType": "contract IJBPaymentTerminal",
              "name": "terminal",
              "type": "address"
            },
            {
              "internalType": "address",
              "name": "payer",
              "type": "address"
            },
            {
              "components": [
                {
                  "internalType": "address",
                  "name": "token",
                  "type": "address"
                },
                {
                  "internalType": "uint256",
                  "name": "value",
                  "type": "uint256"
                },
                {
                  "internalType": "uint256",
                  "name": "decimals",
                  "type": "uint256"
                },
                {
                  "internalType": "uint256",
                  "name": "currency",
                  "type": "uint256"
                }
              ],
              "internalType": "struct JBTokenAmount",
              "name": "amount",
              "type": "tuple"
            },
            {
              "internalType": "uint256",
              "name": "projectId",
              "type": "uint256"
            },
            {
              "internalType": "uint256",
              "name": "currentFundingCycleConfiguration",
              "type": "uint256"
            },
            {
              "internalType": "address",
              "name": "beneficiary",
              "type": "address"
            },
            {
              "internalType": "uint256",
              "name": "weight",
              "type": "uint256"
            },
            {
              "internalType": "uint256",
              "name": "reservedRate",
              "type": "uint256"
            },
            {
              "internalType": "string",
              "name": "memo",
              "type": "string"
            },
            {
              "internalType": "bytes",
              "name": "metadata",
              "type": "bytes"
            }
          ],
          "internalType": "struct JBPayParamsData",
          "name": "_data",
          "type": "tuple"
        }
      ],
      "name": "payParams",
      "outputs": [
        {
          "internalType": "uint256",
          "name": "weight",
          "type": "uint256"
        },
        {
          "internalType": "string",
          "name": "memo",
          "type": "string"
        },
        {
          "components": [
            {
              "internalType": "contract IJBPayDelegate",
              "name": "delegate",
              "type": "address"
            },
            {
              "internalType": "uint256",
              "name": "amount",
              "type": "uint256"
            }
          ],
          "internalType": "struct JBPayDelegateAllocation[]",
          "name": "delegateAllocations",
          "type": "tuple[]"
        }
      ],
      "stateMutability": "view",
      "type": "function"
    },
    {
      "inputs": [],
      "name": "prices",
      "outputs": [
        {
          "internalType": "contract IJBPrices",
          "name": "",
          "type": "address"
        }
      ],
      "stateMutability": "view",
      "type": "function"
    },
    {
      "inputs": [],
      "name": "pricingCurrency",
      "outputs": [
        {
          "internalType": "uint256",
          "name": "",
          "type": "uint256"
        }
      ],
      "stateMutability": "view",
      "type": "function"
    },
    {
      "inputs": [],
      "name": "pricingDecimals",
      "outputs": [
        {
          "internalType": "uint256",
          "name": "",
          "type": "uint256"
        }
      ],
      "stateMutability": "view",
      "type": "function"
    },
    {
      "inputs": [],
      "name": "projectId",
      "outputs": [
        {
          "internalType": "uint256",
          "name": "",
          "type": "uint256"
        }
      ],
      "stateMutability": "view",
      "type": "function"
    },
    {
      "inputs": [],
      "name": "projects",
      "outputs": [
        {
          "internalType": "contract IJBProjects",
          "name": "",
          "type": "address"
        }
      ],
      "stateMutability": "view",
      "type": "function"
    },
    {
      "inputs": [
        {
          "components": [
            {
              "internalType": "contract IJBPaymentTerminal",
              "name": "terminal",
              "type": "address"
            },
            {
              "internalType": "address",
              "name": "holder",
              "type": "address"
            },
            {
              "internalType": "uint256",
              "name": "projectId",
              "type": "uint256"
            },
            {
              "internalType": "uint256",
              "name": "currentFundingCycleConfiguration",
              "type": "uint256"
            },
            {
              "internalType": "uint256",
              "name": "tokenCount",
              "type": "uint256"
            },
            {
              "internalType": "uint256",
              "name": "totalSupply",
              "type": "uint256"
            },
            {
              "internalType": "uint256",
              "name": "overflow",
              "type": "uint256"
            },
            {
              "components": [
                {
                  "internalType": "address",
                  "name": "token",
                  "type": "address"
                },
                {
                  "internalType": "uint256",
                  "name": "value",
                  "type": "uint256"
                },
                {
                  "internalType": "uint256",
                  "name": "decimals",
                  "type": "uint256"
                },
                {
                  "internalType": "uint256",
                  "name": "currency",
                  "type": "uint256"
                }
              ],
              "internalType": "struct JBTokenAmount",
              "name": "reclaimAmount",
              "type": "tuple"
            },
            {
              "internalType": "bool",
              "name": "useTotalOverflow",
              "type": "bool"
            },
            {
              "internalType": "uint256",
              "name": "redemptionRate",
              "type": "uint256"
            },
            {
              "internalType": "string",
              "name": "memo",
              "type": "string"
            },
            {
              "internalType": "bytes",
              "name": "metadata",
              "type": "bytes"
            }
          ],
          "internalType": "struct JBRedeemParamsData",
          "name": "_data",
          "type": "tuple"
        }
      ],
      "name": "redeemParams",
      "outputs": [
        {
          "internalType": "uint256",
          "name": "reclaimAmount",
          "type": "uint256"
        },
        {
          "internalType": "string",
          "name": "memo",
          "type": "string"
        },
        {
          "components": [
            {
              "internalType": "contract IJBRedemptionDelegate",
              "name": "delegate",
              "type": "address"
            },
            {
              "internalType": "uint256",
              "name": "amount",
              "type": "uint256"
            }
          ],
          "internalType": "struct JBRedemptionDelegateAllocation[]",
          "name": "delegateAllocations",
          "type": "tuple[]"
        }
      ],
      "stateMutability": "view",
      "type": "function"
    },
    {
      "inputs": [
        {
          "internalType": "uint256[]",
          "name": "_tokenIds",
          "type": "uint256[]"
        },
        {
          "components": [
            {
              "internalType": "contract IJBPaymentTerminal",
              "name": "terminal",
              "type": "address"
            },
            {
              "internalType": "address",
              "name": "holder",
              "type": "address"
            },
            {
              "internalType": "uint256",
              "name": "projectId",
              "type": "uint256"
            },
            {
              "internalType": "uint256",
              "name": "currentFundingCycleConfiguration",
              "type": "uint256"
            },
            {
              "internalType": "uint256",
              "name": "tokenCount",
              "type": "uint256"
            },
            {
              "internalType": "uint256",
              "name": "totalSupply",
              "type": "uint256"
            },
            {
              "internalType": "uint256",
              "name": "overflow",
              "type": "uint256"
            },
            {
              "components": [
                {
                  "internalType": "address",
                  "name": "token",
                  "type": "address"
                },
                {
                  "internalType": "uint256",
                  "name": "value",
                  "type": "uint256"
                },
                {
                  "internalType": "uint256",
                  "name": "decimals",
                  "type": "uint256"
                },
                {
                  "internalType": "uint256",
                  "name": "currency",
                  "type": "uint256"
                }
              ],
              "internalType": "struct JBTokenAmount",
              "name": "reclaimAmount",
              "type": "tuple"
            },
            {
              "internalType": "bool",
              "name": "useTotalOverflow",
              "type": "bool"
            },
            {
              "internalType": "uint256",
              "name": "redemptionRate",
              "type": "uint256"
            },
            {
              "internalType": "string",
              "name": "memo",
              "type": "string"
            },
            {
              "internalType": "bytes",
              "name": "metadata",
              "type": "bytes"
            }
          ],
          "internalType": "struct JBRedeemParamsData",
          "name": "",
          "type": "tuple"
        }
      ],
      "name": "redemptionWeightOf",
      "outputs": [
        {
          "internalType": "uint256",
          "name": "",
          "type": "uint256"
        }
      ],
      "stateMutability": "view",
      "type": "function"
    },
    {
      "inputs": [],
      "name": "renounceOwnership",
      "outputs": [],
      "stateMutability": "nonpayable",
      "type": "function"
    },
    {
      "inputs": [
        {
          "internalType": "address",
          "name": "from",
          "type": "address"
        },
        {
          "internalType": "address",
          "name": "to",
          "type": "address"
        },
        {
          "internalType": "uint256",
          "name": "tokenId",
          "type": "uint256"
        }
      ],
      "name": "safeTransferFrom",
      "outputs": [],
      "stateMutability": "nonpayable",
      "type": "function"
    },
    {
      "inputs": [
        {
          "internalType": "address",
          "name": "from",
          "type": "address"
        },
        {
          "internalType": "address",
          "name": "to",
          "type": "address"
        },
        {
          "internalType": "uint256",
          "name": "tokenId",
          "type": "uint256"
        },
        {
          "internalType": "bytes",
          "name": "data",
          "type": "bytes"
        }
      ],
      "name": "safeTransferFrom",
      "outputs": [],
      "stateMutability": "nonpayable",
      "type": "function"
    },
    {
      "inputs": [
        {
          "internalType": "address",
          "name": "operator",
          "type": "address"
        },
        {
          "internalType": "bool",
          "name": "approved",
          "type": "bool"
        }
      ],
      "name": "setApprovalForAll",
      "outputs": [],
      "stateMutability": "nonpayable",
      "type": "function"
    },
    {
      "inputs": [
        {
          "internalType": "string",
          "name": "_baseUri",
          "type": "string"
        },
        {
          "internalType": "string",
          "name": "_contractUri",
          "type": "string"
        },
        {
          "internalType": "contract IJBTokenUriResolver",
          "name": "_tokenUriResolver",
          "type": "address"
        },
        {
          "internalType": "uint256",
          "name": "_encodedIPFSUriTierId",
          "type": "uint256"
        },
        {
          "internalType": "bytes32",
          "name": "_encodedIPFSUri",
          "type": "bytes32"
        }
      ],
      "name": "setMetadata",
      "outputs": [],
      "stateMutability": "nonpayable",
      "type": "function"
    },
    {
      "inputs": [
        {
          "internalType": "uint8",
          "name": "_permissionIndex",
          "type": "uint8"
        }
      ],
      "name": "setPermissionIndex",
      "outputs": [],
      "stateMutability": "nonpayable",
      "type": "function"
    },
    {
      "inputs": [],
      "name": "store",
      "outputs": [
        {
          "internalType": "contract IJBTiered721DelegateStore",
          "name": "",
          "type": "address"
        }
      ],
      "stateMutability": "view",
      "type": "function"
    },
    {
      "inputs": [
        {
          "internalType": "bytes4",
          "name": "_interfaceId",
          "type": "bytes4"
        }
      ],
      "name": "supportsInterface",
      "outputs": [
        {
          "internalType": "bool",
          "name": "",
          "type": "bool"
        }
      ],
      "stateMutability": "view",
      "type": "function"
    },
    {
      "inputs": [],
      "name": "symbol",
      "outputs": [
        {
          "internalType": "string",
          "name": "",
          "type": "string"
        }
      ],
      "stateMutability": "view",
      "type": "function"
    },
    {
      "inputs": [
        {
          "internalType": "uint256",
          "name": "_tokenId",
          "type": "uint256"
        }
      ],
      "name": "tokenURI",
      "outputs": [
        {
          "internalType": "string",
          "name": "",
          "type": "string"
        }
      ],
      "stateMutability": "view",
      "type": "function"
    },
    {
      "inputs": [
        {
          "components": [
            {
              "internalType": "contract IJBPaymentTerminal",
              "name": "terminal",
              "type": "address"
            },
            {
              "internalType": "address",
              "name": "holder",
              "type": "address"
            },
            {
              "internalType": "uint256",
              "name": "projectId",
              "type": "uint256"
            },
            {
              "internalType": "uint256",
              "name": "currentFundingCycleConfiguration",
              "type": "uint256"
            },
            {
              "internalType": "uint256",
              "name": "tokenCount",
              "type": "uint256"
            },
            {
              "internalType": "uint256",
              "name": "totalSupply",
              "type": "uint256"
            },
            {
              "internalType": "uint256",
              "name": "overflow",
              "type": "uint256"
            },
            {
              "components": [
                {
                  "internalType": "address",
                  "name": "token",
                  "type": "address"
                },
                {
                  "internalType": "uint256",
                  "name": "value",
                  "type": "uint256"
                },
                {
                  "internalType": "uint256",
                  "name": "decimals",
                  "type": "uint256"
                },
                {
                  "internalType": "uint256",
                  "name": "currency",
                  "type": "uint256"
                }
              ],
              "internalType": "struct JBTokenAmount",
              "name": "reclaimAmount",
              "type": "tuple"
            },
            {
              "internalType": "bool",
              "name": "useTotalOverflow",
              "type": "bool"
            },
            {
              "internalType": "uint256",
              "name": "redemptionRate",
              "type": "uint256"
            },
            {
              "internalType": "string",
              "name": "memo",
              "type": "string"
            },
            {
              "internalType": "bytes",
              "name": "metadata",
              "type": "bytes"
            }
          ],
          "internalType": "struct JBRedeemParamsData",
          "name": "",
          "type": "tuple"
        }
      ],
      "name": "totalRedemptionWeight",
      "outputs": [
        {
          "internalType": "uint256",
          "name": "",
          "type": "uint256"
        }
      ],
      "stateMutability": "view",
      "type": "function"
    },
    {
      "inputs": [
        {
          "internalType": "address",
          "name": "from",
          "type": "address"
        },
        {
          "internalType": "address",
          "name": "to",
          "type": "address"
        },
        {
          "internalType": "uint256",
          "name": "tokenId",
          "type": "uint256"
        }
      ],
      "name": "transferFrom",
      "outputs": [],
      "stateMutability": "nonpayable",
      "type": "function"
    },
    {
      "inputs": [
        {
          "internalType": "address",
          "name": "_newOwner",
          "type": "address"
        }
      ],
      "name": "transferOwnership",
      "outputs": [],
      "stateMutability": "nonpayable",
      "type": "function"
    },
    {
      "inputs": [
        {
          "internalType": "uint256",
          "name": "_projectId",
          "type": "uint256"
        }
      ],
      "name": "transferOwnershipToProject",
      "outputs": [],
      "stateMutability": "nonpayable",
      "type": "function"
    }
  ],
  "bytecode": {
    "object": "0x60c06040523480156200001157600080fd5b50604051620063953803806200639583398101604081905262000034916200031d565b6001600160a01b03808216608052821660a052818181818181620000583362000079565b5050600c80546001600160a01b031916301790555062000383945050505050565b6200008681600062000089565b50565b6001600160581b03811615801590620000aa57506001600160a01b03821615155b15620000e7576040516324abfd1160e11b81526001600160a01b03831660048201526001600160581b038216602482015260440160405180910390fd5b604080516060810182526003546001600160a01b0381168252600160a01b81046001600160581b031660208301819052600160f81b90910460ff16928201929092529060009015620001b75760a05160208301516040516331a9108f60e11b81526001600160581b0390911660048201526001600160a01b0390911690636352211e90602401602060405180830381865afa1580156200018b573d6000803e3d6000fd5b505050506040513d601f19601f82011682018060405250810190620001b191906200035c565b620001ba565b81515b604080516060810182526001600160a01b0387168082526001600160581b0387166020830181905260009290930191909152600380547fff0000000000000000000000000000000000000000000000000000000000000016909117600160a01b8302176001600160f81b03169055909150620002bd90829015620002b65760a0516040516331a9108f60e11b81526001600160581b03871660048201526001600160a01b0390911690636352211e90602401602060405180830381865afa1580156200028a573d6000803e3d6000fd5b505050506040513d601f19601f82011682018060405250810190620002b091906200035c565b620002c3565b85620002c3565b50505050565b806001600160a01b0316826001600160a01b03167f8be0079c531659141344cd1fd0a4f28419497f9722a3daafe3b4186f6b6457e060405160405180910390a35050565b6001600160a01b03811681146200008657600080fd5b600080604083850312156200033157600080fd5b82516200033e8162000307565b6020840151909250620003518162000307565b809150509250929050565b6000602082840312156200036f57600080fd5b81516200037c8162000307565b9392505050565b60805160a051615fad620003e86000396000818161067101528181610b9f01528181610ed1015281816114fe015281816118d401528181612bc101528181612e440152612f410152600081816107fe015281816126ad01526127560152615fad6000f3fe6080604052600436106102c95760003560e01c8063715018a611610175578063a51cfd18116100dc578063c87b56dd11610095578063da9ee8b71161006f578063da9ee8b71461092d578063e8a3d48514610940578063e985e9c514610955578063f2fde38b1461099e57600080fd5b8063c87b56dd146108cd578063d3419bf3146108ed578063d46cf1711461090d57600080fd5b8063a51cfd181461079d578063aa4fb15b146107cc578063ad007d63146107ec578063b88d4fde14610820578063ba23c36e14610840578063c41c2f24146108ad57600080fd5b80639521e3811161012e5780639521e381146106e857806395d89b4114610708578063975057e71461071d5780639ab24eb01461073d578063a220d6961461075d578063a22cb4651461077d57600080fd5b8063715018a61461062a5780637ba62bf91461063f5780638b79543c1461065f5780638da5cb5b146106935780638e539e8c146106a85780639494bf72146106c857600080fd5b80633fafa127116102345780635c19a95c116101ed57806364640c1e116101c757806364640c1e146105b25780636ac6d941146105c85780636c0360eb146105f557806370a082311461060a57600080fd5b80635c19a95c1461055257806361aec7a9146105725780636352211e1461059257600080fd5b80633fafa1271461048d57806342842e0e146104a35780634ecba625146104c357806354c6d1f5146104d9578063557e7155146104f9578063587cde1e1461051957600080fd5b80631d153ca4116102865780631d153ca4146103bf57806323b872dd146103df578063245a45b5146103ff5780632a596e531461043a5780632b13c58f1461045a5780633a46b1a81461046d57600080fd5b806301ffc9a7146102ce57806306fdde0314610303578063081812fc14610325578063095ea7b31461035d5780631435aad51461037f57806314ea9b061461039f575b600080fd5b3480156102da57600080fd5b506102ee6102e9366004614521565b6109be565b60405190151581526020015b60405180910390f35b34801561030f57600080fd5b506103186109e9565b6040516102fa919061458e565b34801561033157600080fd5b506103456103403660046145a1565b610a7b565b6040516001600160a01b0390911681526020016102fa565b34801561036957600080fd5b5061037d6103783660046145df565b610aa2565b005b34801561038b57600080fd5b5061037d61039a36600461464c565b610b2e565b3480156103ab57600080fd5b5061037d6103ba366004614725565b610e60565b3480156103cb57600080fd5b50600c54610345906001600160a01b031681565b3480156103eb57600080fd5b5061037d6103fa3660046147bf565b611144565b34801561040b57600080fd5b5061042c61041a366004614800565b60126020526000908152604090205481565b6040519081526020016102fa565b34801561044657600080fd5b5061037d61045536600461481d565b611176565b61037d6104683660046148aa565b6111cf565b34801561047957600080fd5b5061042c6104883660046145df565b6113b1565b34801561049957600080fd5b5061042c60095481565b3480156104af57600080fd5b5061037d6104be3660046147bf565b6113da565b3480156104cf57600080fd5b5061042c60115481565b3480156104e557600080fd5b506103456104f43660046145a1565b6113f5565b34801561050557600080fd5b50600e54610345906001600160a01b031681565b34801561052557600080fd5b50610345610534366004614800565b6001600160a01b039081166000908152602081905260409020541690565b34801561055e57600080fd5b5061037d61056d366004614800565b611436565b34801561057e57600080fd5b5061037d61058d3660046148ef565b611443565b34801561059e57600080fd5b506103456105ad3660046145a1565b611454565b3480156105be57600080fd5b5061042c60105481565b3480156105d457600080fd5b506105e86105e336600461490a565b61148a565b6040516102fa919061499b565b34801561060157600080fd5b506103186116d2565b34801561061657600080fd5b5061042c610625366004614800565b611760565b34801561063657600080fd5b5061037d6117d6565b34801561064b57600080fd5b5061042c61065a366004614af0565b6117eb565b34801561066b57600080fd5b506103457f000000000000000000000000000000000000000000000000000000000000000081565b34801561069f57600080fd5b5061034561185f565b3480156106b457600080fd5b5061042c6106c33660046145a1565b61194d565b3480156106d457600080fd5b5061042c6106e33660046148aa565b61197a565b3480156106f457600080fd5b5061037d610703366004614e42565b6119ab565b34801561071457600080fd5b50610318611bfa565b34801561072957600080fd5b50600d54610345906001600160a01b031681565b34801561074957600080fd5b5061042c610758366004614800565b611c09565b34801561076957600080fd5b5061037d6107783660046145a1565b611c39565b34801561078957600080fd5b5061037d610798366004614f7b565b611c87565b3480156107a957600080fd5b506107bd6107b83660046148aa565b611c96565b6040516102fa93929190614fb4565b3480156107d857600080fd5b5061037d6107e7366004615026565b611ef5565b3480156107f857600080fd5b506103457f000000000000000000000000000000000000000000000000000000000000000081565b34801561082c57600080fd5b5061037d61083b366004615048565b612112565b34801561084c57600080fd5b5060035461087d906001600160a01b03811690600160a01b81046001600160581b031690600160f81b900460ff1683565b604080516001600160a01b0390941684526001600160581b03909216602084015260ff16908201526060016102fa565b3480156108b957600080fd5b50600a54610345906001600160a01b031681565b3480156108d957600080fd5b506103186108e83660046145a1565b612145565b3480156108f957600080fd5b50600f54610345906001600160a01b031681565b34801561091957600080fd5b506107bd6109283660046150c7565b61233c565b61037d61093b366004615102565b61241f565b34801561094c57600080fd5b506103186124d6565b34801561096157600080fd5b506102ee61097036600461513d565b6001600160a01b03918216600090815260086020908152604080832093909416825291909152205460ff1690565b3480156109aa57600080fd5b5061037d6109b9366004614800565b6124e3565b60006001600160e01b0319821663adc7dfeb60e01b14806109e357506109e38261252f565b92915050565b6060600480546109f89061516b565b80601f0160208091040260200160405190810160405280929190818152602001828054610a249061516b565b8015610a715780601f10610a4657610100808354040283529160200191610a71565b820191906000526020600020905b815481529060010190602001808311610a5457829003601f168201915b5050505050905090565b6000610a86826125c0565b506000908152600760205260409020546001600160a01b031690565b6000610aad82611454565b9050806001600160a01b0316836001600160a01b031603610ae15760405163133f8be960e01b815260040160405180910390fd5b336001600160a01b03821614801590610b015750610aff8133610970565b155b15610b1f5760405163e5fa0e3560e01b815260040160405180910390fd5b610b2983836125f5565b505050565b604080516060810182526003546001600160a01b0381168252600160a01b81046001600160581b031660208301819052600160f81b90910460ff169282019290925260169160009015610c175760208201516040516331a9108f60e11b81526001600160581b0390911660048201527f00000000000000000000000000000000000000000000000000000000000000006001600160a01b031690636352211e90602401602060405180830381865afa158015610bee573d6000803e3d6000fd5b505050506040513d601f19601f82011682018060405250810190610c1291906151aa565b610c1a565b81515b9050610c348183602001516001600160581b031685612663565b8815610c93576013610c478a8c8361520d565b508989604051610c589291906152cc565b604051908190038120338252907f7bc9110d5de090dd59e07912d2b93a5a27ac70a60c8d8e324db4f9ee8b8b5c139060200160405180910390a25b8615610cf2576014610ca6888a8361520d565b508787604051610cb79291906152cc565b604051908190038120338252907fd36dc0c1a06103fdcaf15f3f6fb797d1a97997514c78de073640c8b5005454b89060200160405180910390a25b6001600160a01b0386163014610da057600d5460405163036129cb60e61b81526001600160a01b0388811660048301529091169063d84a72c090602401600060405180830381600087803b158015610d4957600080fd5b505af1158015610d5d573d6000803e3d6000fd5b50506040513381526001600160a01b03891692507fe7784d93cfbfa4408e19577e6cc0436f4dbb51214b70e100905dfce9def88c16915060200160405180910390a25b600085118015610daf57508315155b15610e5457600d546040516324de8d6360e11b815260048101879052602481018690526001600160a01b03909116906349bd1ac690604401600060405180830381600087803b158015610e0157600080fd5b505af1158015610e15573d6000803e3d6000fd5b5050604080518781523360208201528893507f677da4fed654db8e604791fa2582f342e2001aa217e27f6985eb3e0f67e5a7fc92500160405180910390a25b50505050505050505050565b604080516060810182526003546001600160a01b0381168252600160a01b81046001600160581b031660208301819052600160f81b90910460ff169282019290925260159160009015610f495760208201516040516331a9108f60e11b81526001600160581b0390911660048201527f00000000000000000000000000000000000000000000000000000000000000006001600160a01b031690636352211e90602401602060405180830381865afa158015610f20573d6000803e3d6000fd5b505050506040513d601f19601f82011682018060405250810190610f4491906151aa565b610f4c565b81515b9050610f668183602001516001600160581b031685612663565b8584801561103657600d546040516320512ba160e01b81526001600160a01b03909116906320512ba190610fa0908a908a906004016152dc565b600060405180830381600087803b158015610fba57600080fd5b505af1158015610fce573d6000803e3d6000fd5b5050505060005b8181101561103457878782818110610fef57610fef615315565b60405133815260209182029390930135927f832d89d991be5351d793c20faf4b7dd44f8aa9ce39e3cb160c6317de6fbba72992500160405180910390a2600101610fd5565b505b811561113957600d546040516386a5100760e01b81526000916001600160a01b0316906386a510079061106f908d908d9060040161545c565b6000604051808303816000875af115801561108e573d6000803e3d6000fd5b505050506040513d6000823e601f3d908101601f191682016040526110b691908101906154fa565b905060005b83811015611136578181815181106110d5576110d5615315565b60200260200101517f94fa90e7e0c9e633db6056cdda599aa1c789587d7971ed761612032de6237c7f8c8c8481811061111057611110615315565b90506101c002013360405161112692919061552e565b60405180910390a26001016110bb565b50505b505050505050505050565b61114e33826127e1565b61116b5760405163e5fa0e3560e01b815260040160405180910390fd5b610b29838383612860565b8060005b818110156111c957600084848381811061119657611196615315565b9050604002018036038101906111ac9190615556565b90506111c081600001518260200151611ef5565b5060010161117a565b50505050565b341515806112515750600a54600954604051636e49181f60e01b815260048101919091523360248201526001600160a01b0390911690636e49181f90604401602060405180830381865afa15801561122b573d6000803e3d6000fd5b505050506040513d601f19601f8201168201806040525081019061124f91906155af565b155b806112625750600954816020013514155b1561128057604051633efca5c360e11b815260040160405180910390fd5b60246112906101c08301836155cc565b905010806112d4575063fbb38e0360e01b6112af6101c08301836155cc565b6112be91602491602091615612565b6112c79161563c565b6001600160e01b03191614155b156112f257604051632a84050f60e01b815260040160405180910390fd5b60006113026101c08301836155cc565b81019061130f919061566c565b925050506000815190506000805b828110156113a75783818151811061133757611337615315565b602002602001015191508460000160208101906113549190614800565b6000838152600660205260409020546001600160a01b0390811691161461139657604051635caf197560e01b8152600481018390526024015b60405180910390fd5b61139f82612939565b60010161131d565b506111c9836129ba565b6001600160a01b03821660009081526001602052604081206113d39083612a1f565b9392505050565b610b2983838360405180602001604052806000815250612112565b6000818152600b60205260408120546001600160a01b031680156114195792915050565b50506000908152600660205260409020546001600160a01b031690565b6114403382612ae0565b50565b61144b612b52565b61144081612c5d565b6000818152600660205260408120546001600160a01b0316806109e35760405163b49aa3b560e01b815260040160405180910390fd5b60408051606080820183526003546001600160a01b0381168352600160a01b81046001600160581b031660208401819052600160f81b90910460ff16938301939093529160189190600090156115765760208201516040516331a9108f60e11b81526001600160581b0390911660048201527f00000000000000000000000000000000000000000000000000000000000000006001600160a01b031690636352211e90602401602060405180830381865afa15801561154d573d6000803e3d6000fd5b505050506040513d601f19601f8201168201806040525081019061157191906151aa565b611579565b81515b90506115938183602001516001600160581b031685612663565b600d5460405163eaa19ab360e01b81526001600160a01b039091169063eaa19ab3906115cc90600019908b908b906001906004016156c4565b6000604051808303816000875af11580156115eb573d6000803e3d6000fd5b505050506040513d6000823e601f3d908101601f191682016040526116139190810190615721565b509350856000805b828110156116c55786818151811061163557611635615315565b602002602001015191506116498883612cb3565b876001600160a01b03168a8a8381811061166557611665615315565b905060200201602081019061167a9190615767565b604080516000815233602082015261ffff929092169185917f598baf7bf150ca2f42be9e9f8f55e81d45f5715c3ff22bf46d697fabec7f31d6910160405180910390a460010161161b565b5050505050509392505050565b601380546116df9061516b565b80601f016020809104026020016040519081016040528092919081815260200182805461170b9061516b565b80156117585780601f1061172d57610100808354040283529160200191611758565b820191906000526020600020905b81548152906001019060200180831161173b57829003601f168201915b505050505081565b600d54604051633de222bb60e21b81523060048201526001600160a01b038381166024830152600092169063f7888aec906044015b602060405180830381865afa1580156117b2573d6000803e3d6000fd5b505050506040513d601f19601f820116820180604052508101906109e39190615782565b6117de612b52565b6117e9600080612d7d565b565b600d5460405163051330b560e21b81526000916001600160a01b03169063144cc2d49061181e903090879060040161579b565b602060405180830381865afa15801561183b573d6000803e3d6000fd5b505050506040513d601f19601f820116820180604052508101906113d39190615782565b604080516060810182526003546001600160a01b0381168252600160a01b81046001600160581b031660208301819052600160f81b90910460ff169282019290925260009182036118b05751919050565b60208101516040516331a9108f60e11b81526001600160581b0390911660048201527f00000000000000000000000000000000000000000000000000000000000000006001600160a01b031690636352211e90602401602060405180830381865afa158015611923573d6000803e3d6000fd5b505050506040513d601f19601f8201168201806040525081019061194791906151aa565b91505090565b600043821061196f576040516305b5e09b60e51b815260040160405180910390fd5b6109e3600283612a1f565b600d54604051631572f24960e11b81523060048201526000916001600160a01b031690632ae5e49290602401611795565b600c546001600160a01b031630036119c257600080fd5b600d546001600160a01b0316156119d857600080fd5b6119e48b8b8b8b612fbf565b600e80546001600160a01b03808a166001600160a01b031992831617909255600d8054858416908316179055602085015160105560408501516011556060850151600f8054919093169116179055855115611a47576013611a4587826157bf565b505b835115611a5c576014611a5a85826157bf565b505b6001600160a01b03851615611ac75760405163036129cb60e61b81526001600160a01b03868116600483015283169063d84a72c090602401600060405180830381600087803b158015611aae57600080fd5b505af1158015611ac2573d6000803e3d6000fd5b505050505b82515115611b455782516040516386a5100760e01b81526001600160a01b038416916386a5100791611afc919060040161587e565b6000604051808303816000875af1158015611b1b573d6000803e3d6000fd5b505050506040513d6000823e601f3d908101601f19168201604052611b4391908101906154fa565b505b805180611b53575080602001515b80611b5f575080604001515b80611b6b575080606001515b15611bf157604080516365c13f1960e11b815282511515600482015260208301511515602482015290820151151560448201526060820151151560648201526001600160a01b0383169063cb827e3290608401600060405180830381600087803b158015611bd857600080fd5b505af1158015611bec573d6000803e3d6000fd5b505050505b61113633612524565b6060600580546109f89061516b565b6001600160a01b0381166000908152600160205260408120611c2a90612ff2565b6001600160e01b031692915050565b611c41612b52565b801580611c5457506001600160581b0381115b15611c7c576040516324abfd1160e11b8152600060048201526024810182905260440161138d565b611440600082612d7d565b611c9233838361302c565b5050565b6000606080608084013515611cbe576040516309f82f1b60e31b815260040160405180910390fd5b6024611cce6101c08601866155cc565b90501080611d12575063fbb38e0360e01b611ced6101c08601866155cc565b611cfc91602491602091615612565b611d059161563c565b6001600160e01b03191614155b15611d3057604051632a84050f60e01b815260040160405180910390fd5b60408051600180825281830190925290816020015b6040805180820190915260008082526020820152815260200190600190039081611d455790505090506040518060400160405280306001600160a01b03168152602001600081525081600081518110611da057611da0615315565b60209081029190910101526000611dbb6101c08601866155cc565b810190611dc8919061566c565b925050506000611dd882876117eb565b90506000611de58761197a565b90506000611df88860c0013584846130cb565b905061271088610180013503611e635780611e176101a08a018a6155cc565b8782828080601f016020809104026020016040519081016040528093929190818152602001838380828437600092019190915250969d50919b50919950611eee98505050505050505050565b611e9981611e8285611e7c6101808d01356127106159a0565b866130cb565b611e91906101808c01356159b3565b6127106130cb565b611ea76101a08a018a6155cc565b8782828080601f016020809104026020016040519081016040528093929190818152602001838380828437600092019190915250969d50919b509199505050505050505050505b9193909250565b600e546009546040516321d1336160e11b815260048101919091526000916001600160a01b0316906343a266c29060240161012060405180830381865afa158015611f44573d6000803e3d6000fd5b505050506040513d601f19601f82011682018060405250810190611f6891906159c6565b61010081015190915060f51c600190811603611f9757604051631d2c125760e31b815260040160405180910390fd5b600d54604051635d53f40760e11b815260048101859052602481018490526000916001600160a01b03169063baa7e80e906044016000604051808303816000875af1158015611fea573d6000803e3d6000fd5b505050506040513d6000823e601f3d908101601f1916820160405261201291908101906154fa565b600d546040516304db994760e21b8152306004820152602481018790529192506000916001600160a01b039091169063136e651c90604401602060405180830381865afa158015612067573d6000803e3d6000fd5b505050506040513d601f19601f8201168201806040525081019061208b91906151aa565b90506000805b85811015612109578381815181106120ab576120ab615315565b602002602001015191506120bf8383612cb3565b6040513381526001600160a01b03841690889084907f031e1988c95a91ec4d655ff63a8f87a80bc9daf28d95ae10ee08c0022cfb5c8b9060200160405180910390a4600101612091565b50505050505050565b61211c33836127e1565b6121395760405163e5fa0e3560e01b815260040160405180910390fd5b6111c984848484613197565b600d54604051630fab094760e01b81523060048201526060916000916001600160a01b0390911690630fab094790602401602060405180830381865afa158015612193573d6000803e3d6000fd5b505050506040513d601f19601f820116820180604052508101906121b791906151aa565b90506001600160a01b0381161561223557604051636d02a25560e11b8152600481018490526001600160a01b0382169063da0544aa90602401600060405180830381865afa15801561220d573d6000803e3d6000fd5b505050506040513d6000823e601f3d908101601f191682016040526113d39190810190615a8b565b6113d3601380546122459061516b565b80601f01602080910402602001604051908101604052809291908181526020018280546122719061516b565b80156122be5780601f10612293576101008083540402835291602001916122be565b820191906000526020600020905b8154815290600101906020018083116122a157829003601f168201915b5050600d54604051630c8df17160e41b8152306004820152602481018a90526001600160a01b03909116935063c8df171092506044019050602060405180830381865afa158015612313573d6000803e3d6000fd5b505050506040513d601f19601f820116820180604052508101906123379190615782565b6131cb565b6101208101356060806123536101608501856155cc565b8080601f01602080910402602001604051908101604052809392919081815260200183838082843760009201919091525092945060019250612393915050565b6040519080825280602002602001820160405280156123d857816020015b60408051808201909152600080825260208201528152602001906001900390816123b15790505b5090506040518060400160405280306001600160a01b0316815260200160008152508160008151811061240d5761240d615315565b60200260200101819052509193909250565b600954341515806124a05750600a54604051636e49181f60e01b8152600481018390523360248201526001600160a01b0390911690636e49181f90604401602060405180830381865afa15801561247a573d6000803e3d6000fd5b505050506040513d601f19601f8201168201806040525081019061249e91906155af565b155b806124af575080826020013514155b156124cd576040516331c57b1b60e21b815260040160405180910390fd5b611c9282613232565b601480546116df9061516b565b6124eb612b52565b6001600160a01b038116612524576040516324abfd1160e11b81526001600160a01b03821660048201526000602482015260440161138d565b611440816000612d7d565b60006001600160e01b0319821663fbb38e0360e01b148061256057506001600160e01b031982166371700c6960e01b145b8061257b57506001600160e01b0319821663da9ee8b760e01b145b8061259657506001600160e01b03198216632b13c58f60e01b145b806125b157506001600160e01b0319821663152a902d60e11b145b806109e357506109e382613667565b6000818152600660205260409020546001600160a01b03166114405760405163b49aa3b560e01b815260040160405180910390fd5b600081815260076020526040902080546001600160a01b0319166001600160a01b038416908117909155819061262a82611454565b6001600160a01b03167f8c5be1e5ebec7d5bd14f71427d1e84f3dd0314c0f7b2291e5b200ac8c7c3b92560405160405180910390a45050565b336001600160a01b038416811480159061271a575060405163c161c93f60e01b81526001600160a01b038281166004830152858116602483015260448201859052606482018490527f0000000000000000000000000000000000000000000000000000000000000000169063c161c93f90608401602060405180830381865afa1580156126f4573d6000803e3d6000fd5b505050506040513d601f19601f8201168201806040525081019061271891906155af565b155b80156127c3575060405163c161c93f60e01b81526001600160a01b038281166004830152858116602483015260006044830152606482018490527f0000000000000000000000000000000000000000000000000000000000000000169063c161c93f90608401602060405180830381865afa15801561279d573d6000803e3d6000fd5b505050506040513d601f19601f820116820180604052508101906127c191906155af565b155b156111c95760405163075fd2b160e01b815260040160405180910390fd5b6000806127ed83611454565b9050806001600160a01b0316846001600160a01b0316148061283457506001600160a01b0380821660009081526008602090815260408083209388168352929052205460ff165b806128585750836001600160a01b031661284d84610a7b565b6001600160a01b0316145b949350505050565b826001600160a01b031661287382611454565b6001600160a01b03161461289a5760405163a195bc5360e01b815260040160405180910390fd5b6001600160a01b0382166128c157604051632c95542760e01b815260040160405180910390fd5b6128cc8383836136b7565b6128d76000826125f5565b60008181526006602052604080822080546001600160a01b0319166001600160a01b0386811691821790925591518493918716917fddf252ad1be2c89b69c2b068fc378daa952ba7f163c4a11628f55a4df523b3ef91a4610b2983838361384c565b600061294482611454565b9050612952816000846136b7565b61295d6000836125f5565b60008281526006602052604080822080546001600160a01b0319169055518391906001600160a01b038416907fddf252ad1be2c89b69c2b068fc378daa952ba7f163c4a11628f55a4df523b3ef908390a4611c928160008461384c565b600d546040516386bc2be360e01b81526001600160a01b03909116906386bc2be3906129ea90849060040161499b565b600060405180830381600087803b158015612a0457600080fd5b505af1158015612a18573d6000803e3d6000fd5b5050505050565b6000438210612a705760405162461bcd60e51b815260206004820181905260248201527f436865636b706f696e74733a20626c6f636b206e6f7420796574206d696e6564604482015260640161138d565b6000612a7b83613948565b84549091506000612a8e868483856139b1565b90508015612aca57612ab386612aa56001846159a0565b600091825260209091200190565b5464010000000090046001600160e01b0316612acd565b60005b6001600160e01b03169695505050505050565b6001600160a01b0382811660008181526020819052604080822080548686166001600160a01b0319821681179092559151919094169392849290917f3134e8a2e6d97e929a7e54011ea5485d7d196dd5f0ba4d4ef95803e8e3fc257f9190a4610b298183612b4d86613a0f565b613a48565b604080516060810182526003546001600160a01b0381168252600160a01b81046001600160581b031660208301819052600160f81b90910460ff16928201929092529060009015612c395760208201516040516331a9108f60e11b81526001600160581b0390911660048201527f00000000000000000000000000000000000000000000000000000000000000006001600160a01b031690636352211e90602401602060405180830381865afa158015612c10573d6000803e3d6000fd5b505050506040513d601f19601f82011682018060405250810190612c3491906151aa565b612c3c565b81515b9050611c928183602001516001600160581b0316846040015160ff16612663565b600380546001600160f81b0316600160f81b60ff8416908102919091179091556040519081527f197cbe84f592e417694036927858418efc958896363c034f9aaa25af88953beb9060200160405180910390a150565b6001600160a01b038216612cda57604051633904578f60e11b815260040160405180910390fd5b6000818152600660205260409020546001600160a01b031615612d1057604051632eb5f0c360e21b815260040160405180910390fd5b612d1c600083836136b7565b60008181526006602052604080822080546001600160a01b0319166001600160a01b03861690811790915590518392907fddf252ad1be2c89b69c2b068fc378daa952ba7f163c4a11628f55a4df523b3ef908290a4611c926000838361384c565b6001600160581b03811615801590612d9d57506001600160a01b03821615155b15612dd5576040516324abfd1160e11b81526001600160a01b03831660048201526001600160581b038216602482015260440161138d565b604080516060810182526003546001600160a01b0381168252600160a01b81046001600160581b031660208301819052600160f81b90910460ff16928201929092529060009015612ebc5760208201516040516331a9108f60e11b81526001600160581b0390911660048201527f00000000000000000000000000000000000000000000000000000000000000006001600160a01b031690636352211e90602401602060405180830381865afa158015612e93573d6000803e3d6000fd5b505050506040513d601f19601f82011682018060405250810190612eb791906151aa565b612ebf565b81515b604080516060810182526001600160a01b0387168082526001600160581b0387166020830181905260009290930191909152600380546001600160f81b031916909117600160a01b8302176001600160f81b031690559091506111c990829015612fb9576040516331a9108f60e11b81526001600160581b03861660048201527f00000000000000000000000000000000000000000000000000000000000000006001600160a01b031690636352211e90602401602060405180830381865afa158015612f90573d6000803e3d6000fd5b505050506040513d601f19601f82011682018060405250810190612fb491906151aa565b613b85565b85613b85565b612fc98282613bc9565b5050600991909155600a80546001600160a01b0319166001600160a01b03909216919091179055565b805460009080156130235761300c83612aa56001846159a0565b5464010000000090046001600160e01b03166113d3565b60009392505050565b816001600160a01b0316836001600160a01b03160361305e576040516306f8139d60e11b815260040160405180910390fd5b6001600160a01b03838116600081815260086020908152604080832094871680845294825291829020805460ff191686151590811790915591519182527f17307eab39ab6107e8899845ad3d59bd9653f200f220920489ca2b5937696c31910160405180910390a3505050565b6000808060001985870985870292508281108382030391505080600003613105578382816130fb576130fb615abf565b04925050506113d3565b83811061312f57604051631dcf306360e21b8152600481018290526024810185905260440161138d565b600084868809600260036001881981018916988990049182028318808302840302808302840302808302840302808302840302808302840302918202909203026000889003889004909101858311909403939093029303949094049190911702949350505050565b6131a2848484612860565b6131ae84848484613be2565b6111c9576040516336f57c1b60e11b815260040160405180910390fd5b604051609160f51b6020820152602281018290526060906000906042016040516020818303038152906040529050600061320482613ce1565b90508481604051602001613219929190615ad5565b6040516020818303038152906040529250505092915050565b60105460009060c08301350361324d57506080810135613303565b600f546001600160a01b031615611c92576011546133009060808401359061327690600a615be8565b600f54601054604051635268657960e11b815260c08801356004820152602481019190915260a087013560448201526001600160a01b039091169063a4d0caf290606401602060405180830381865afa1580156132d7573d6000803e3d6000fd5b505050506040513d601f19601f820116820180604052508101906132fb9190615782565b6130cb565b90505b600060128161331a6101a086016101808701614800565b6001600160a01b0316815260208101919091526040016000908120549150829061334c6101a086016101808701614800565b6001600160a01b03166133626020870187614800565b6001600160a01b031603613379579082019061337c565b50815b6000604461338e6101e08801886155cc565b90501180156133d2575063fbb38e0360e01b6133ae6101e08801886155cc565b6133bd91604491604091615612565b6133c69161563c565b6001600160e01b031916145b156134a95760606133e76101e08801886155cc565b8101906133f49190615bf4565b909550935084925050811590506134775750600d54604051634228826f60e11b81523060048201526001600160a01b039091169063845104de90602401608060405180830381865afa15801561344e573d6000803e3d6000fd5b505050506040513d601f19601f820116820180604052508101906134729190615cc6565b606001515b1561348157600091505b8051156134a7576134a4848261349f6101a08b016101808c01614800565b613e79565b93505b505b82156135cd57806134cd57604051631b57826960e21b815260040160405180910390fd5b82820184811115613535576134ea6101a088016101808901614800565b6040513381526001600160a01b0391909116908290878203907f2fb2733fb01b76e3290fa8b695d18e026ddd19c0a265ab90e95152e57da303369060200160405180910390a4613596565b808511156135965761354f6101a088016101808901614800565b6040513381526001600160a01b0391909116908290818803907fe0e7c81cf67a96dd0e39bcf11521b1f4c0098cc1dbe8c30750a11d9ebfc3ed4d9060200160405180910390a45b80601260006135ad6101a08b016101808c01614800565b6001600160a01b031681526020810191909152604001600020555061365f565b81841461365f576135e66101a087016101808801614800565b6001600160a01b0316826135fa81876159a0565b6040513381527fe0e7c81cf67a96dd0e39bcf11521b1f4c0098cc1dbe8c30750a11d9ebfc3ed4d9060200160405180910390a481601260006136446101a08a016101808b01614800565b6001600160a01b031681526020810191909152604001600020555b505050505050565b60006001600160e01b031982166380ac58cd60e01b148061369857506001600160e01b03198216635b5e139f60e01b145b806109e357506301ffc9a760e01b6001600160e01b03198316146109e3565b6001600160a01b03831615610b2957600d5460405163b67cb04760e01b8152306004820152602481018390526000916001600160a01b03169063b67cb04790604401600060405180830381865afa158015613716573d6000803e3d6000fd5b505050506040513d6000823e601f3d908101601f1916820160405261373e9190810190615d4a565b90508061018001511561380357600e546009546040516321d1336160e11b815260048101919091526000916001600160a01b0316906343a266c29060240161012060405180830381865afa15801561379a573d6000803e3d6000fd5b505050506040513d601f19601f820116820180604052508101906137be91906159c6565b90506001600160a01b038416158015906137e3575061010081015160f41c6001908116145b15613801576040516318cdaf9760e01b815260040160405180910390fd5b505b6000828152600b60205260409020546001600160a01b03166111c9576000828152600b6020526040902080546001600160a01b0319166001600160a01b03861617905550505050565b600d5460405163b67cb04760e01b8152306004820152602481018390526000916001600160a01b03169063b67cb04790604401600060405180830381865afa15801561389c573d6000803e3d6000fd5b505050506040513d6000823e601f3d908101601f191682016040526138c49190810190615d4a565b600d5481516040516330b157e560e21b815260048101919091526001600160a01b038781166024830152868116604483015292935091169063c2c55f9490606401600060405180830381600087803b15801561391f57600080fd5b505af1158015613933573d6000803e3d6000fd5b5050505061394384848484613fbb565b6111c9565b600063ffffffff8211156139ad5760405162461bcd60e51b815260206004820152602660248201527f53616665436173743a2076616c756520646f65736e27742066697420696e203360448201526532206269747360d01b606482015260840161138d565b5090565b60005b81831015613a075760006139c88484613fd4565b60008781526020902090915063ffffffff86169082015463ffffffff1611156139f357809250613a01565b6139fe8160016159b3565b93505b506139b4565b509392505050565b600d54604051631266aaaf60e31b81523060048201526001600160a01b0383811660248301526000921690639335557890604401611795565b816001600160a01b0316836001600160a01b031614158015613a6a5750600081115b15610b29576001600160a01b03831615613af8576001600160a01b03831660009081526001602052604081208190613aa590613fef85613ffb565b91509150846001600160a01b03167fdec2bacdd2f05b59de34da9b523dff8be42e5e38e818c82fdb0bae774387a7248383604051613aed929190918252602082015260400190565b60405180910390a250505b6001600160a01b03821615610b29576001600160a01b03821660009081526001602052604081208190613b2e9061403385613ffb565b91509150836001600160a01b03167fdec2bacdd2f05b59de34da9b523dff8be42e5e38e818c82fdb0bae774387a7248383604051613b76929190918252602082015260400190565b60405180910390a25050505050565b806001600160a01b0316826001600160a01b03167f8be0079c531659141344cd1fd0a4f28419497f9722a3daafe3b4186f6b6457e060405160405180910390a35050565b6004613bd583826157bf565b506005610b2982826157bf565b60006001600160a01b0384163b15613cd957604051630a85bd0160e11b81526001600160a01b0385169063150b7a0290613c26903390899088908890600401615e5e565b6020604051808303816000875af1925050508015613c61575060408051601f3d908101601f19168201909252613c5e91810190615e9b565b60015b613cbf573d808015613c8f576040519150601f19603f3d011682016040523d82523d6000602084013e613c94565b606091505b508051600003613cb7576040516336f57c1b60e11b815260040160405180910390fd5b805181602001fd5b6001600160e01b031916630a85bd0160e11b149050612858565b506001612858565b60608151600003613d0057505060408051600081526020810190915290565b60408051602e8082526105e08201909252600091602082016105c080368337019050509050600081600081518110613d3a57613d3a615315565b60ff90921660209283029190910190910152825160019060005b81811015613e55576000868281518110613d7057613d70615315565b016020015160f81c905060005b8460ff16811015613dfa576008868281518110613d9c57613d9c615315565b602002602001015160ff16901b82613db491906159b3565b9150613dc1603a83615eb8565b868281518110613dd357613dd3615315565b60ff90921660209283029190910190910152613df0603a83615ecc565b9150600101613d7d565b505b8015613e4c57613e0d603a82615eb8565b858560ff1681518110613e2257613e22615315565b60ff90921660209283029190910190910152600190930192613e45603a82615ecc565b9050613dfc565b50600101613d54565b50613e70613e6b613e66858561403f565b6140de565b614180565b95945050505050565b600d5460405163eaa19ab360e01b81526000916060916001600160a01b039091169063eaa19ab390613eb390889088908790600401615ee0565b6000604051808303816000875af1158015613ed2573d6000803e3d6000fd5b505050506040513d6000823e601f3d908101601f19168201604052613efa9190810190615721565b81519093509091506000805b82811015613fb057838181518110613f2057613f20615315565b60200260200101519150613f348683612cb3565b856001600160a01b0316878281518110613f5057613f50615315565b602002602001015161ffff16837f598baf7bf150ca2f42be9e9f8f55e81d45f5715c3ff22bf46d697fabec7f31d68b33604051613fa09291909182526001600160a01b0316602082015260400190565b60405180910390a4600101613f06565b505050509392505050565b6080810151156111c9576111c984848360800151614259565b6000613fe36002848418615ecc565b6113d3908484166159b3565b60006113d382846159a0565b6000806140268561402161400e88612ff2565b6001600160e01b0316868863ffffffff16565b6142c9565b915091505b935093915050565b60006113d382846159b3565b606060008260ff166001600160401b0381111561405e5761405e6149ae565b604051908082528060200260200182016040528015614087578160200160208202803683370190505b50905060005b8360ff16811015613a07578481815181106140aa576140aa615315565b60200260200101518282815181106140c4576140c4615315565b60ff9092166020928302919091019091015260010161408d565b80516060906000816001600160401b038111156140fd576140fd6149ae565b604051908082528060200260200182016040528015614126578160200160208202803683370190505b50905060005b82811015613a075784816001875103038151811061414c5761414c615315565b602002602001015182828151811061416657614166615315565b60ff9092166020928302919091019091015260010161412c565b80516060906000816001600160401b0381111561419f5761419f6149ae565b6040519080825280601f01601f1916602001820160405280156141c9576020820181803683370190505b50905060005b82811015613a07576040518060600160405280603a8152602001615f3e603a913985828151811061420257614202615315565b602002602001015160ff168151811061421d5761421d615315565b602001015160f81c60f81b82828151811061423a5761423a615315565b60200101906001600160f81b031916908160001a9053506001016141cf565b6001600160a01b03831661427857614275600261403383613ffb565b50505b6001600160a01b038216614297576142946002613fef83613ffb565b50505b6001600160a01b03838116600090815260208190526040808220548584168352912054610b2992918216911683613a48565b6000806142e7846142d943613948565b6142e2866142ff565b614368565b6001600160e01b0391821693501690505b9250929050565b60006001600160e01b038211156139ad5760405162461bcd60e51b815260206004820152602760248201527f53616665436173743a2076616c756520646f65736e27742066697420696e20326044820152663234206269747360c81b606482015260840161138d565b8254600090819080156144b157600061438687612aa56001856159a0565b60408051808201909152905463ffffffff8082168084526401000000009092046001600160e01b0316602084015291925090871610156144085760405162461bcd60e51b815260206004820152601760248201527f436865636b706f696e743a20696e76616c6964206b6579000000000000000000604482015260640161138d565b805163ffffffff808816911603614451578461442988612aa56001866159a0565b80546001600160e01b03929092166401000000000263ffffffff9092169190911790556144a1565b6040805180820190915263ffffffff80881682526001600160e01b0380881660208085019182528b54600181018d5560008d81529190912094519151909216640100000000029216919091179101555b60200151925083915061402b9050565b50506040805180820190915263ffffffff80851682526001600160e01b0380851660208085019182528854600181018a5560008a81529182209551925190931664010000000002919093161792019190915590508161402b565b6001600160e01b03198116811461144057600080fd5b60006020828403121561453357600080fd5b81356113d38161450b565b60005b83811015614559578181015183820152602001614541565b50506000910152565b6000815180845261457a81602086016020860161453e565b601f01601f19169290920160200192915050565b6020815260006113d36020830184614562565b6000602082840312156145b357600080fd5b5035919050565b6001600160a01b038116811461144057600080fd5b80356145da816145ba565b919050565b600080604083850312156145f257600080fd5b82356145fd816145ba565b946020939093013593505050565b60008083601f84011261461d57600080fd5b5081356001600160401b0381111561463457600080fd5b6020830191508360208285010111156142f857600080fd5b600080600080600080600060a0888a03121561466757600080fd5b87356001600160401b038082111561467e57600080fd5b61468a8b838c0161460b565b909950975060208a01359150808211156146a357600080fd5b506146b08a828b0161460b565b90965094505060408801356146c4816145ba565b969995985093969295946060840135945060809093013592915050565b60008083601f8401126146f357600080fd5b5081356001600160401b0381111561470a57600080fd5b6020830191508360208260051b85010111156142f857600080fd5b6000806000806040858703121561473b57600080fd5b84356001600160401b038082111561475257600080fd5b818701915087601f83011261476657600080fd5b81358181111561477557600080fd5b8860206101c08302850101111561478b57600080fd5b6020928301965094509086013590808211156147a657600080fd5b506147b3878288016146e1565b95989497509550505050565b6000806000606084860312156147d457600080fd5b83356147df816145ba565b925060208401356147ef816145ba565b929592945050506040919091013590565b60006020828403121561481257600080fd5b81356113d3816145ba565b6000806020838503121561483057600080fd5b82356001600160401b038082111561484757600080fd5b818501915085601f83011261485b57600080fd5b81358181111561486a57600080fd5b8660208260061b850101111561487f57600080fd5b60209290920196919550909350505050565b60006101e082840312156148a457600080fd5b50919050565b6000602082840312156148bc57600080fd5b81356001600160401b038111156148d257600080fd5b61285884828501614891565b803560ff811681146145da57600080fd5b60006020828403121561490157600080fd5b6113d3826148de565b60008060006040848603121561491f57600080fd5b83356001600160401b0381111561493557600080fd5b614941868287016146e1565b9094509250506020840135614955816145ba565b809150509250925092565b600081518084526020808501945080840160005b8381101561499057815187529582019590820190600101614974565b509495945050505050565b6020815260006113d36020830184614960565b634e487b7160e01b600052604160045260246000fd5b604051608081016001600160401b03811182821017156149e6576149e66149ae565b60405290565b6040516101c081016001600160401b03811182821017156149e6576149e66149ae565b60405161012081016001600160401b03811182821017156149e6576149e66149ae565b604051601f8201601f191681016001600160401b0381118282101715614a5a57614a5a6149ae565b604052919050565b60006001600160401b03821115614a7b57614a7b6149ae565b5060051b60200190565b600082601f830112614a9657600080fd5b81356020614aab614aa683614a62565b614a32565b82815260059290921b84018101918181019086841115614aca57600080fd5b8286015b84811015614ae55780358352918301918301614ace565b509695505050505050565b60008060408385031215614b0357600080fd5b82356001600160401b0380821115614b1a57600080fd5b614b2686838701614a85565b93506020850135915080821115614b3c57600080fd5b50614b4985828601614891565b9150509250929050565b60006001600160401b03821115614b6c57614b6c6149ae565b50601f01601f191660200190565b6000614b88614aa684614b53565b9050828152838383011115614b9c57600080fd5b828260208301376000602084830101529392505050565b600082601f830112614bc457600080fd5b6113d383833560208501614b7a565b80356001600160581b03811681146145da57600080fd5b803564ffffffffff811681146145da57600080fd5b803561ffff811681146145da57600080fd5b801515811461144057600080fd5b80356145da81614c11565b60006080808385031215614c3d57600080fd5b614c456149c4565b915082356001600160401b03811115614c5d57600080fd5b8301601f81018513614c6e57600080fd5b80356020614c7e614aa683614a62565b8281526101c09283028401820192828201919089851115614c9e57600080fd5b948301945b84861015614db55780868b031215614cbb5760008081fd5b614cc36149ec565b614ccc87614bd3565b8152614cd9858801614bea565b858201526040614cea818901614bea565b908201526060614cfb888201614bff565b90820152614d0a8789016145cf565b8882015260a0614d1b8189016148de565b9082015260c0614d2c8882016145cf565b9082015260e08781013590820152610100614d48818901614bff565b90820152610120614d5a888201614c1f565b90820152610140614d6c888201614c1f565b90820152610160614d7e888201614c1f565b90820152610180614d90888201614c1f565b908201526101a0614da2888201614c1f565b9082015283529485019491830191614ca3565b50865250858101359085015250505060408083013590820152614dda606083016145cf565b606082015292915050565b600060808284031215614df757600080fd5b614dff6149c4565b90508135614e0c81614c11565b81526020820135614e1c81614c11565b60208201526040820135614e2f81614c11565b60408201526060820135614dda81614c11565b60008060008060008060008060008060006101c08c8e031215614e6457600080fd5b8b359a50614e7460208d016145cf565b99506001600160401b038060408e01351115614e8f57600080fd5b614e9f8e60408f01358f01614bb3565b99508060608e01351115614eb257600080fd5b614ec28e60608f01358f01614bb3565b9850614ed060808e016145cf565b97508060a08e01351115614ee357600080fd5b614ef38e60a08f01358f01614bb3565b9650614f0160c08e016145cf565b95508060e08e01351115614f1457600080fd5b614f248e60e08f01358f01614bb3565b9450806101008e01351115614f3857600080fd5b50614f4a8d6101008e01358e01614c2a565b9250614f596101208d016145cf565b9150614f698d6101408e01614de5565b90509295989b509295989b9093969950565b60008060408385031215614f8e57600080fd5b8235614f99816145ba565b91506020830135614fa981614c11565b809150509250929050565b83815260006020606081840152614fce6060840186614562565b83810360408581019190915285518083528387019284019060005b8181101561501757845180516001600160a01b03168452860151868401529385019391830191600101614fe9565b50909998505050505050505050565b6000806040838503121561503957600080fd5b50508035926020909101359150565b6000806000806080858703121561505e57600080fd5b8435615069816145ba565b93506020850135615079816145ba565b92506040850135915060608501356001600160401b0381111561509b57600080fd5b8501601f810187136150ac57600080fd5b6150bb87823560208401614b7a565b91505092959194509250565b6000602082840312156150d957600080fd5b81356001600160401b038111156150ef57600080fd5b82016101a081850312156113d357600080fd5b60006020828403121561511457600080fd5b81356001600160401b0381111561512a57600080fd5b820161020081850312156113d357600080fd5b6000806040838503121561515057600080fd5b823561515b816145ba565b91506020830135614fa9816145ba565b600181811c9082168061517f57607f821691505b6020821081036148a457634e487b7160e01b600052602260045260246000fd5b80516145da816145ba565b6000602082840312156151bc57600080fd5b81516113d3816145ba565b601f821115610b2957600081815260208120601f850160051c810160208610156151ee5750805b601f850160051c820191505b8181101561365f578281556001016151fa565b6001600160401b03831115615224576152246149ae565b61523883615232835461516b565b836151c7565b6000601f84116001811461526c57600085156152545750838201355b600019600387901b1c1916600186901b178355612a18565b600083815260209020601f19861690835b8281101561529d578685013582556020948501946001909201910161527d565b50868210156152ba5760001960f88860031b161c19848701351681555b505060018560011b0183555050505050565b8183823760009101908152919050565b6020808252810182905260006001600160fb1b038311156152fc57600080fd5b8260051b80856040850137919091016040019392505050565b634e487b7160e01b600052603260045260246000fd5b6153458261533883614bd3565b6001600160581b03169052565b61535160208201614bea565b64ffffffffff16602083015261536960408201614bea565b64ffffffffff16604083015261538160608201614bff565b61ffff166060830152615396608082016145cf565b6001600160a01b031660808301526153b060a082016148de565b60ff1660a08301526153c460c082016145cf565b6001600160a01b031660c083015260e081810135908301526101006153ea818301614bff565b61ffff1690830152610120615400828201614c1f565b151590830152610140615414828201614c1f565b151590830152610160615428828201614c1f565b15159083015261018061543c828201614c1f565b1515908301526101a0615450828201614c1f565b801515848301526111c9565b6020808252810182905260008360408301825b8581101561549557615481828461532b565b6101c092830192919091019060010161546f565b5095945050505050565b600082601f8301126154b057600080fd5b815160206154c0614aa683614a62565b82815260059290921b840181019181810190868411156154df57600080fd5b8286015b84811015614ae557805183529183019183016154e3565b60006020828403121561550c57600080fd5b81516001600160401b0381111561552257600080fd5b6128588482850161549f565b6101e0810161553d828561532b565b6001600160a01b03929092166101c09190910152919050565b60006040828403121561556857600080fd5b604051604081018181106001600160401b038211171561558a5761558a6149ae565b604052823581526020928301359281019290925250919050565b80516145da81614c11565b6000602082840312156155c157600080fd5b81516113d381614c11565b6000808335601e198436030181126155e357600080fd5b8301803591506001600160401b038211156155fd57600080fd5b6020019150368190038213156142f857600080fd5b6000808585111561562257600080fd5b8386111561562f57600080fd5b5050820193919092039150565b6001600160e01b031981358181169160048510156156645780818660040360031b1b83161692505b505092915050565b60008060006060848603121561568157600080fd5b8335925060208401356156938161450b565b915060408401356001600160401b038111156156ae57600080fd5b6156ba86828701614a85565b9150509250925092565b84815260606020808301829052908201849052600090859060808401835b878110156157095761ffff6156f685614bff565b16825292820192908201906001016156e2565b50809350505050821515604083015295945050505050565b6000806040838503121561573457600080fd5b82516001600160401b0381111561574a57600080fd5b6157568582860161549f565b925050602083015190509250929050565b60006020828403121561577957600080fd5b6113d382614bff565b60006020828403121561579457600080fd5b5051919050565b6001600160a01b038316815260406020820181905260009061285890830184614960565b81516001600160401b038111156157d8576157d86149ae565b6157ec816157e6845461516b565b846151c7565b602080601f83116001811461582157600084156158095750858301515b600019600386901b1c1916600185901b17855561365f565b600085815260208120601f198616915b8281101561585057888601518255948401946001909101908401615831565b508582101561586e5787850151600019600388901b60f8161c191681555b5050505050600190811b01905550565b602080825282518282018190526000919060409081850190868401855b8281101561597d57815180516001600160581b031685528681015164ffffffffff9081168887015286820151168686015260608082015161ffff908116918701919091526080808301516001600160a01b039081169188019190915260a08084015160ff169088015260c0808401519091169087015260e080830151908701526101008083015190911690860152610120808201511515908601526101408082015115159086015261016080820151151590860152610180808201511515908601526101a0908101511515908501526101c0909301929085019060010161589b565b5091979650505050505050565b634e487b7160e01b600052601160045260246000fd5b818103818111156109e3576109e361598a565b808201808211156109e3576109e361598a565b600061012082840312156159d957600080fd5b6159e1614a0f565b825181526020830151602082015260408301516040820152606083015160608201526080830151608082015260a083015160a082015260c083015160c0820152615a2d60e0840161519f565b60e0820152610100928301519281019290925250919050565b600082601f830112615a5757600080fd5b8151615a65614aa682614b53565b818152846020838601011115615a7a57600080fd5b61285882602083016020870161453e565b600060208284031215615a9d57600080fd5b81516001600160401b03811115615ab357600080fd5b61285884828501615a46565b634e487b7160e01b600052601260045260246000fd5b60008351615ae781846020880161453e565b835190830190615afb81836020880161453e565b01949350505050565b600181815b80851115615b3f578160001904821115615b2557615b2561598a565b80851615615b3257918102915b93841c9390800290615b09565b509250929050565b600082615b56575060016109e3565b81615b63575060006109e3565b8160018114615b795760028114615b8357615b9f565b60019150506109e3565b60ff841115615b9457615b9461598a565b50506001821b6109e3565b5060208310610133831016604e8410600b8410161715615bc2575081810a6109e3565b615bcc8383615b04565b8060001904821115615be057615be061598a565b029392505050565b60006113d38383615b47565b600080600080600060a08688031215615c0c57600080fd5b8535945060208087013594506040870135615c268161450b565b93506060870135615c3681614c11565b925060808701356001600160401b03811115615c5157600080fd5b8701601f81018913615c6257600080fd5b8035615c70614aa682614a62565b81815260059190911b8201830190838101908b831115615c8f57600080fd5b928401925b82841015615cb457615ca584614bff565b82529284019290840190615c94565b80955050505050509295509295909350565b600060808284031215615cd857600080fd5b604051608081018181106001600160401b0382111715615cfa57615cfa6149ae565b6040528251615d0881614c11565b81526020830151615d1881614c11565b60208201526040830151615d2b81614c11565b60408201526060830151615d3e81614c11565b60608201529392505050565b600060208284031215615d5c57600080fd5b81516001600160401b0380821115615d7357600080fd5b908301906101c08286031215615d8857600080fd5b615d906149ec565b825181526020830151602082015260408301516040820152606083015160608201526080830151608082015260a083015160a0820152615dd260c0840161519f565b60c082015260e083015160e0820152610100615def81850161519f565b9082015261012083810151908201526101408084015190820152610160615e178185016155a4565b90820152610180615e298482016155a4565b908201526101a08381015183811115615e4157600080fd5b615e4d88828701615a46565b918301919091525095945050505050565b6001600160a01b0385811682528416602082015260408101839052608060608201819052600090615e9190830184614562565b9695505050505050565b600060208284031215615ead57600080fd5b81516113d38161450b565b600082615ec757615ec7615abf565b500690565b600082615edb57615edb615abf565b500490565b6000606082018583526020606081850152818651808452608086019150828801935060005b81811015615f2557845161ffff1683529383019391830191600101615f05565b5050809350505050821515604083015294935050505056fe31323334353637383941424344454647484a4b4c4d4e505152535455565758595a6162636465666768696a6b6d6e6f707172737475767778797aa264697066735822122004dbb22a15368cfe841746ab061bce694e7d0707db711e9ccd294d30c2a4f08164736f6c63430008110033",
    "linkReferences": {}
  },
  "methodIdentifiers": {
    "adjustTiers((uint88,uint40,uint40,uint16,address,uint8,address,bytes32,uint16,bool,bool,bool,bool,bool)[],uint256[])": "14ea9b06",
    "approve(address,uint256)": "095ea7b3",
    "balanceOf(address)": "70a08231",
    "baseURI()": "6c0360eb",
    "codeOrigin()": "1d153ca4",
    "contractURI()": "e8a3d485",
    "creditsOf(address)": "245a45b5",
    "delegate(address)": "5c19a95c",
    "delegates(address)": "587cde1e",
    "didPay((address,uint256,uint256,(address,uint256,uint256,uint256),(address,uint256,uint256,uint256),uint256,address,bool,string,bytes))": "da9ee8b7",
    "didRedeem((address,uint256,uint256,uint256,(address,uint256,uint256,uint256),(address,uint256,uint256,uint256),address,string,bytes))": "2b13c58f",
    "directory()": "c41c2f24",
    "firstOwnerOf(uint256)": "54c6d1f5",
    "fundingCycleStore()": "557e7155",
    "getApproved(uint256)": "081812fc",
    "getPastTotalSupply(uint256)": "8e539e8c",
    "getPastVotes(address,uint256)": "3a46b1a8",
    "getVotes(address)": "9ab24eb0",
    "initialize(uint256,address,string,string,address,string,address,string,((uint88,uint40,uint40,uint16,address,uint8,address,bytes32,uint16,bool,bool,bool,bool,bool)[],uint256,uint256,address),address,(bool,bool,bool,bool))": "9521e381",
    "isApprovedForAll(address,address)": "e985e9c5",
    "jbOwner()": "ba23c36e",
    "mintFor(uint16[],address)": "6ac6d941",
    "mintReservesFor((uint256,uint256)[])": "2a596e53",
    "mintReservesFor(uint256,uint256)": "aa4fb15b",
    "name()": "06fdde03",
    "operatorStore()": "ad007d63",
    "owner()": "8da5cb5b",
    "ownerOf(uint256)": "6352211e",
    "payParams((address,address,(address,uint256,uint256,uint256),uint256,uint256,address,uint256,uint256,string,bytes))": "d46cf171",
    "prices()": "d3419bf3",
    "pricingCurrency()": "64640c1e",
    "pricingDecimals()": "4ecba625",
    "projectId()": "3fafa127",
    "projects()": "8b79543c",
    "redeemParams((address,address,uint256,uint256,uint256,uint256,uint256,(address,uint256,uint256,uint256),bool,uint256,string,bytes))": "a51cfd18",
    "redemptionWeightOf(uint256[],(address,address,uint256,uint256,uint256,uint256,uint256,(address,uint256,uint256,uint256),bool,uint256,string,bytes))": "7ba62bf9",
    "renounceOwnership()": "715018a6",
    "safeTransferFrom(address,address,uint256)": "42842e0e",
    "safeTransferFrom(address,address,uint256,bytes)": "b88d4fde",
    "setApprovalForAll(address,bool)": "a22cb465",
    "setMetadata(string,string,address,uint256,bytes32)": "1435aad5",
    "setPermissionIndex(uint8)": "61aec7a9",
    "store()": "975057e7",
    "supportsInterface(bytes4)": "01ffc9a7",
    "symbol()": "95d89b41",
    "tokenURI(uint256)": "c87b56dd",
    "totalRedemptionWeight((address,address,uint256,uint256,uint256,uint256,uint256,(address,uint256,uint256,uint256),bool,uint256,string,bytes))": "9494bf72",
    "transferFrom(address,address,uint256)": "23b872dd",
    "transferOwnership(address)": "f2fde38b",
    "transferOwnershipToProject(uint256)": "a220d696"
  },
  "id": 0
}