{
  "abi": [
    {
      "inputs": [],
      "name": "ALEADY_MINTED",
      "type": "error"
    },
    {
      "inputs": [],
      "name": "APPROVAL_TO_CURRENT_OWNER",
      "type": "error"
    },
    {
      "inputs": [],
      "name": "APPROVE_TO_CALLER",
      "type": "error"
    },
    {
      "inputs": [],
      "name": "BLOCK_NOT_YET_MINED",
      "type": "error"
    },
    {
      "inputs": [],
      "name": "CALLER_NOT_OWNER_OR_APPROVED",
      "type": "error"
    },
    {
      "inputs": [],
      "name": "INCORRECT_OWNER",
      "type": "error"
    },
    {
      "inputs": [],
      "name": "INVALID",
      "type": "error"
    },
    {
      "inputs": [],
      "name": "INVALID_PAYMENT_EVENT",
      "type": "error"
    },
    {
      "inputs": [],
      "name": "INVALID_REDEMPTION_EVENT",
      "type": "error"
    },
    {
      "inputs": [],
      "name": "INVALID_REDEMPTION_METADATA",
      "type": "error"
    },
    {
      "inputs": [],
      "name": "INVALID_TOKEN_ID",
      "type": "error"
    },
    {
      "inputs": [],
      "name": "MINT_TO_ZERO",
      "type": "error"
    },
    {
      "inputs": [],
      "name": "NOT_AVAILABLE",
      "type": "error"
    },
    {
      "inputs": [],
      "name": "OVERSPENDING",
      "type": "error"
    },
    {
      "inputs": [
        {
          "internalType": "uint256",
          "name": "prod1",
          "type": "uint256"
        },
        {
          "internalType": "uint256",
          "name": "denominator",
          "type": "uint256"
        }
      ],
      "name": "PRBMath__MulDivOverflow",
      "type": "error"
    },
    {
      "inputs": [],
      "name": "PRICING_RESOLVER_CHANGES_PAUSED",
      "type": "error"
    },
    {
      "inputs": [],
      "name": "RESERVED_TOKEN_MINTING_PAUSED",
      "type": "error"
    },
    {
      "inputs": [],
      "name": "SIGNATURE_EXPIRED",
      "type": "error"
    },
    {
      "inputs": [],
      "name": "TRANSFERS_PAUSED",
      "type": "error"
    },
    {
      "inputs": [],
      "name": "TRANSFER_TO_NON_IMPLEMENTER",
      "type": "error"
    },
    {
      "inputs": [],
      "name": "TRANSFER_TO_ZERO_ADDRESS",
      "type": "error"
    },
    {
      "inputs": [],
      "name": "UNAUTHORIZED",
      "type": "error"
    },
    {
      "inputs": [],
      "name": "UNEXPECTED_TOKEN_REDEEMED",
      "type": "error"
    },
    {
      "anonymous": false,
      "inputs": [
        {
          "indexed": true,
          "internalType": "uint256",
          "name": "changeAmount",
          "type": "uint256"
        },
        {
          "indexed": true,
          "internalType": "uint256",
          "name": "newTotalCredits",
          "type": "uint256"
        },
        {
          "indexed": true,
          "internalType": "address",
          "name": "account",
          "type": "address"
        },
        {
          "indexed": false,
          "internalType": "address",
          "name": "caller",
          "type": "address"
        }
      ],
      "name": "AddCredits",
      "type": "event"
    },
    {
      "anonymous": false,
      "inputs": [
        {
          "indexed": true,
          "internalType": "uint256",
          "name": "tierId",
          "type": "uint256"
        },
        {
          "components": [
            {
              "internalType": "uint88",
              "name": "price",
              "type": "uint88"
            },
            {
              "internalType": "uint40",
              "name": "initialQuantity",
              "type": "uint40"
            },
            {
              "internalType": "uint40",
              "name": "votingUnits",
              "type": "uint40"
            },
            {
              "internalType": "uint16",
              "name": "reservedRate",
              "type": "uint16"
            },
            {
              "internalType": "address",
              "name": "reservedTokenBeneficiary",
              "type": "address"
            },
            {
              "internalType": "uint8",
              "name": "royaltyRate",
              "type": "uint8"
            },
            {
              "internalType": "address",
              "name": "royaltyBeneficiary",
              "type": "address"
            },
            {
              "internalType": "bytes32",
              "name": "encodedIPFSUri",
              "type": "bytes32"
            },
            {
              "internalType": "uint16",
              "name": "category",
              "type": "uint16"
            },
            {
              "internalType": "bool",
              "name": "allowManualMint",
              "type": "bool"
            },
            {
              "internalType": "bool",
              "name": "shouldUseReservedTokenBeneficiaryAsDefault",
              "type": "bool"
            },
            {
              "internalType": "bool",
              "name": "shouldUseRoyaltyBeneficiaryAsDefault",
              "type": "bool"
            },
            {
              "internalType": "bool",
              "name": "transfersPausable",
              "type": "bool"
            },
            {
              "internalType": "bool",
              "name": "useVotingUnits",
              "type": "bool"
            }
          ],
          "indexed": false,
          "internalType": "struct JB721TierParams",
          "name": "data",
          "type": "tuple"
        },
        {
          "indexed": false,
          "internalType": "address",
          "name": "caller",
          "type": "address"
        }
      ],
      "name": "AddTier",
      "type": "event"
    },
    {
      "anonymous": false,
      "inputs": [
        {
          "indexed": true,
          "internalType": "address",
          "name": "owner",
          "type": "address"
        },
        {
          "indexed": true,
          "internalType": "address",
          "name": "approved",
          "type": "address"
        },
        {
          "indexed": true,
          "internalType": "uint256",
          "name": "tokenId",
          "type": "uint256"
        }
      ],
      "name": "Approval",
      "type": "event"
    },
    {
      "anonymous": false,
      "inputs": [
        {
          "indexed": true,
          "internalType": "address",
          "name": "owner",
          "type": "address"
        },
        {
          "indexed": true,
          "internalType": "address",
          "name": "operator",
          "type": "address"
        },
        {
          "indexed": false,
          "internalType": "bool",
          "name": "approved",
          "type": "bool"
        }
      ],
      "name": "ApprovalForAll",
      "type": "event"
    },
    {
      "anonymous": false,
      "inputs": [
        {
          "indexed": true,
          "internalType": "address",
          "name": "delegator",
          "type": "address"
        },
        {
          "indexed": true,
          "internalType": "address",
          "name": "fromDelegate",
          "type": "address"
        },
        {
          "indexed": true,
          "internalType": "address",
          "name": "toDelegate",
          "type": "address"
        }
      ],
      "name": "DelegateChanged",
      "type": "event"
    },
    {
      "anonymous": false,
      "inputs": [
        {
          "indexed": true,
          "internalType": "address",
          "name": "delegate",
          "type": "address"
        },
        {
          "indexed": false,
          "internalType": "uint256",
          "name": "previousBalance",
          "type": "uint256"
        },
        {
          "indexed": false,
          "internalType": "uint256",
          "name": "newBalance",
          "type": "uint256"
        }
      ],
      "name": "DelegateVotesChanged",
      "type": "event"
    },
    {
      "anonymous": false,
      "inputs": [
        {
          "indexed": true,
          "internalType": "uint256",
          "name": "tokenId",
          "type": "uint256"
        },
        {
          "indexed": true,
          "internalType": "uint256",
          "name": "tierId",
          "type": "uint256"
        },
        {
          "indexed": true,
          "internalType": "address",
          "name": "beneficiary",
          "type": "address"
        },
        {
          "indexed": false,
          "internalType": "uint256",
          "name": "totalAmountContributed",
          "type": "uint256"
        },
        {
          "indexed": false,
          "internalType": "address",
          "name": "caller",
          "type": "address"
        }
      ],
      "name": "Mint",
      "type": "event"
    },
    {
      "anonymous": false,
      "inputs": [
        {
          "indexed": true,
          "internalType": "uint256",
          "name": "tokenId",
          "type": "uint256"
        },
        {
          "indexed": true,
          "internalType": "uint256",
          "name": "tierId",
          "type": "uint256"
        },
        {
          "indexed": true,
          "internalType": "address",
          "name": "beneficiary",
          "type": "address"
        },
        {
          "indexed": false,
          "internalType": "address",
          "name": "caller",
          "type": "address"
        }
      ],
      "name": "MintReservedToken",
      "type": "event"
    },
    {
      "anonymous": false,
      "inputs": [
        {
          "indexed": true,
          "internalType": "address",
          "name": "previousOwner",
          "type": "address"
        },
        {
          "indexed": true,
          "internalType": "address",
          "name": "newOwner",
          "type": "address"
        }
      ],
      "name": "OwnershipTransferred",
      "type": "event"
    },
    {
      "anonymous": false,
      "inputs": [
        {
          "indexed": true,
          "internalType": "uint256",
          "name": "tierId",
          "type": "uint256"
        },
        {
          "indexed": false,
          "internalType": "address",
          "name": "caller",
          "type": "address"
        }
      ],
      "name": "RemoveTier",
      "type": "event"
    },
    {
      "anonymous": false,
      "inputs": [
        {
          "indexed": true,
          "internalType": "string",
          "name": "baseUri",
          "type": "string"
        },
        {
          "indexed": false,
          "internalType": "address",
          "name": "caller",
          "type": "address"
        }
      ],
      "name": "SetBaseUri",
      "type": "event"
    },
    {
      "anonymous": false,
      "inputs": [
        {
          "indexed": true,
          "internalType": "string",
          "name": "contractUri",
          "type": "string"
        },
        {
          "indexed": false,
          "internalType": "address",
          "name": "caller",
          "type": "address"
        }
      ],
      "name": "SetContractUri",
      "type": "event"
    },
    {
      "anonymous": false,
      "inputs": [
        {
          "indexed": true,
          "internalType": "address",
          "name": "beneficiary",
          "type": "address"
        },
        {
          "indexed": false,
          "internalType": "address",
          "name": "caller",
          "type": "address"
        }
      ],
      "name": "SetDefaultReservedTokenBeneficiary",
      "type": "event"
    },
    {
      "anonymous": false,
      "inputs": [
        {
          "indexed": true,
          "internalType": "uint256",
          "name": "tierId",
          "type": "uint256"
        },
        {
          "indexed": false,
          "internalType": "bytes32",
          "name": "encodedIPFSUri",
          "type": "bytes32"
        },
        {
          "indexed": false,
          "internalType": "address",
          "name": "caller",
          "type": "address"
        }
      ],
      "name": "SetEncodedIPFSUri",
      "type": "event"
    },
    {
      "anonymous": false,
      "inputs": [
        {
          "indexed": true,
          "internalType": "contract IJBTokenUriResolver",
          "name": "newResolver",
          "type": "address"
        },
        {
          "indexed": false,
          "internalType": "address",
          "name": "caller",
          "type": "address"
        }
      ],
      "name": "SetTokenUriResolver",
      "type": "event"
    },
    {
      "anonymous": false,
      "inputs": [
        {
          "indexed": true,
          "internalType": "address",
          "name": "from",
          "type": "address"
        },
        {
          "indexed": true,
          "internalType": "address",
          "name": "to",
          "type": "address"
        },
        {
          "indexed": true,
          "internalType": "uint256",
          "name": "tokenId",
          "type": "uint256"
        }
      ],
      "name": "Transfer",
      "type": "event"
    },
    {
      "anonymous": false,
      "inputs": [
        {
          "indexed": true,
          "internalType": "uint256",
          "name": "changeAmount",
          "type": "uint256"
        },
        {
          "indexed": true,
          "internalType": "uint256",
          "name": "newTotalCredits",
          "type": "uint256"
        },
        {
          "indexed": true,
          "internalType": "address",
          "name": "account",
          "type": "address"
        },
        {
          "indexed": false,
          "internalType": "address",
          "name": "caller",
          "type": "address"
        }
      ],
      "name": "UseCredits",
      "type": "event"
    },
    {
      "inputs": [
        {
          "components": [
            {
              "internalType": "uint88",
              "name": "price",
              "type": "uint88"
            },
            {
              "internalType": "uint40",
              "name": "initialQuantity",
              "type": "uint40"
            },
            {
              "internalType": "uint40",
              "name": "votingUnits",
              "type": "uint40"
            },
            {
              "internalType": "uint16",
              "name": "reservedRate",
              "type": "uint16"
            },
            {
              "internalType": "address",
              "name": "reservedTokenBeneficiary",
              "type": "address"
            },
            {
              "internalType": "uint8",
              "name": "royaltyRate",
              "type": "uint8"
            },
            {
              "internalType": "address",
              "name": "royaltyBeneficiary",
              "type": "address"
            },
            {
              "internalType": "bytes32",
              "name": "encodedIPFSUri",
              "type": "bytes32"
            },
            {
              "internalType": "uint16",
              "name": "category",
              "type": "uint16"
            },
            {
              "internalType": "bool",
              "name": "allowManualMint",
              "type": "bool"
            },
            {
              "internalType": "bool",
              "name": "shouldUseReservedTokenBeneficiaryAsDefault",
              "type": "bool"
            },
            {
              "internalType": "bool",
              "name": "shouldUseRoyaltyBeneficiaryAsDefault",
              "type": "bool"
            },
            {
              "internalType": "bool",
              "name": "transfersPausable",
              "type": "bool"
            },
            {
              "internalType": "bool",
              "name": "useVotingUnits",
              "type": "bool"
            }
          ],
          "internalType": "struct JB721TierParams[]",
          "name": "_tiersToAdd",
          "type": "tuple[]"
        },
        {
          "internalType": "uint256[]",
          "name": "_tierIdsToRemove",
          "type": "uint256[]"
        }
      ],
      "name": "adjustTiers",
      "outputs": [],
      "stateMutability": "nonpayable",
      "type": "function"
    },
    {
      "inputs": [
        {
          "internalType": "address",
          "name": "to",
          "type": "address"
        },
        {
          "internalType": "uint256",
          "name": "tokenId",
          "type": "uint256"
        }
      ],
      "name": "approve",
      "outputs": [],
      "stateMutability": "nonpayable",
      "type": "function"
    },
    {
      "inputs": [
        {
          "internalType": "address",
          "name": "_owner",
          "type": "address"
        }
      ],
      "name": "balanceOf",
      "outputs": [
        {
          "internalType": "uint256",
          "name": "balance",
          "type": "uint256"
        }
      ],
      "stateMutability": "view",
      "type": "function"
    },
    {
      "inputs": [],
      "name": "codeOrigin",
      "outputs": [
        {
          "internalType": "address",
          "name": "",
          "type": "address"
        }
      ],
      "stateMutability": "view",
      "type": "function"
    },
    {
      "inputs": [],
      "name": "contractURI",
      "outputs": [
        {
          "internalType": "string",
          "name": "",
          "type": "string"
        }
      ],
      "stateMutability": "view",
      "type": "function"
    },
    {
      "inputs": [
        {
          "internalType": "address",
          "name": "",
          "type": "address"
        }
      ],
      "name": "creditsOf",
      "outputs": [
        {
          "internalType": "uint256",
          "name": "",
          "type": "uint256"
        }
      ],
      "stateMutability": "view",
      "type": "function"
    },
    {
      "inputs": [
        {
          "internalType": "address",
          "name": "delegatee",
          "type": "address"
        }
      ],
      "name": "delegate",
      "outputs": [],
      "stateMutability": "nonpayable",
      "type": "function"
    },
    {
      "inputs": [
        {
          "internalType": "address",
          "name": "account",
          "type": "address"
        }
      ],
      "name": "delegates",
      "outputs": [
        {
          "internalType": "address",
          "name": "",
          "type": "address"
        }
      ],
      "stateMutability": "view",
      "type": "function"
    },
    {
      "inputs": [
        {
          "components": [
            {
              "internalType": "address",
              "name": "payer",
              "type": "address"
            },
            {
              "internalType": "uint256",
              "name": "projectId",
              "type": "uint256"
            },
            {
              "internalType": "uint256",
              "name": "currentFundingCycleConfiguration",
              "type": "uint256"
            },
            {
              "components": [
                {
                  "internalType": "address",
                  "name": "token",
                  "type": "address"
                },
                {
                  "internalType": "uint256",
                  "name": "value",
                  "type": "uint256"
                },
                {
                  "internalType": "uint256",
                  "name": "decimals",
                  "type": "uint256"
                },
                {
                  "internalType": "uint256",
                  "name": "currency",
                  "type": "uint256"
                }
              ],
              "internalType": "struct JBTokenAmount",
              "name": "amount",
              "type": "tuple"
            },
            {
              "components": [
                {
                  "internalType": "address",
                  "name": "token",
                  "type": "address"
                },
                {
                  "internalType": "uint256",
                  "name": "value",
                  "type": "uint256"
                },
                {
                  "internalType": "uint256",
                  "name": "decimals",
                  "type": "uint256"
                },
                {
                  "internalType": "uint256",
                  "name": "currency",
                  "type": "uint256"
                }
              ],
              "internalType": "struct JBTokenAmount",
              "name": "forwardedAmount",
              "type": "tuple"
            },
            {
              "internalType": "uint256",
              "name": "projectTokenCount",
              "type": "uint256"
            },
            {
              "internalType": "address",
              "name": "beneficiary",
              "type": "address"
            },
            {
              "internalType": "bool",
              "name": "preferClaimedTokens",
              "type": "bool"
            },
            {
              "internalType": "string",
              "name": "memo",
              "type": "string"
            },
            {
              "internalType": "bytes",
              "name": "metadata",
              "type": "bytes"
            }
          ],
          "internalType": "struct JBDidPayData",
          "name": "_data",
          "type": "tuple"
        }
      ],
      "name": "didPay",
      "outputs": [],
      "stateMutability": "payable",
      "type": "function"
    },
    {
      "inputs": [
        {
          "components": [
            {
              "internalType": "address",
              "name": "holder",
              "type": "address"
            },
            {
              "internalType": "uint256",
              "name": "projectId",
              "type": "uint256"
            },
            {
              "internalType": "uint256",
              "name": "currentFundingCycleConfiguration",
              "type": "uint256"
            },
            {
              "internalType": "uint256",
              "name": "projectTokenCount",
              "type": "uint256"
            },
            {
              "components": [
                {
                  "internalType": "address",
                  "name": "token",
                  "type": "address"
                },
                {
                  "internalType": "uint256",
                  "name": "value",
                  "type": "uint256"
                },
                {
                  "internalType": "uint256",
                  "name": "decimals",
                  "type": "uint256"
                },
                {
                  "internalType": "uint256",
                  "name": "currency",
                  "type": "uint256"
                }
              ],
              "internalType": "struct JBTokenAmount",
              "name": "reclaimedAmount",
              "type": "tuple"
            },
            {
              "components": [
                {
                  "internalType": "address",
                  "name": "token",
                  "type": "address"
                },
                {
                  "internalType": "uint256",
                  "name": "value",
                  "type": "uint256"
                },
                {
                  "internalType": "uint256",
                  "name": "decimals",
                  "type": "uint256"
                },
                {
                  "internalType": "uint256",
                  "name": "currency",
                  "type": "uint256"
                }
              ],
              "internalType": "struct JBTokenAmount",
              "name": "forwardedAmount",
              "type": "tuple"
            },
            {
              "internalType": "address payable",
              "name": "beneficiary",
              "type": "address"
            },
            {
              "internalType": "string",
              "name": "memo",
              "type": "string"
            },
            {
              "internalType": "bytes",
              "name": "metadata",
              "type": "bytes"
            }
          ],
          "internalType": "struct JBDidRedeemData",
          "name": "_data",
          "type": "tuple"
        }
      ],
      "name": "didRedeem",
      "outputs": [],
      "stateMutability": "payable",
      "type": "function"
    },
    {
      "inputs": [],
      "name": "directory",
      "outputs": [
        {
          "internalType": "contract IJBDirectory",
          "name": "",
          "type": "address"
        }
      ],
      "stateMutability": "view",
      "type": "function"
    },
    {
      "inputs": [
        {
          "internalType": "uint256",
          "name": "_tokenId",
          "type": "uint256"
        }
      ],
      "name": "firstOwnerOf",
      "outputs": [
        {
          "internalType": "address",
          "name": "",
          "type": "address"
        }
      ],
      "stateMutability": "view",
      "type": "function"
    },
    {
      "inputs": [],
      "name": "fundingCycleStore",
      "outputs": [
        {
          "internalType": "contract IJBFundingCycleStore",
          "name": "",
          "type": "address"
        }
      ],
      "stateMutability": "view",
      "type": "function"
    },
    {
      "inputs": [
        {
          "internalType": "uint256",
          "name": "tokenId",
          "type": "uint256"
        }
      ],
      "name": "getApproved",
      "outputs": [
        {
          "internalType": "address",
          "name": "",
          "type": "address"
        }
      ],
      "stateMutability": "view",
      "type": "function"
    },
    {
      "inputs": [
        {
          "internalType": "uint256",
          "name": "blockNumber",
          "type": "uint256"
        }
      ],
      "name": "getPastTotalSupply",
      "outputs": [
        {
          "internalType": "uint256",
          "name": "",
          "type": "uint256"
        }
      ],
      "stateMutability": "view",
      "type": "function"
    },
    {
      "inputs": [
        {
          "internalType": "address",
          "name": "account",
          "type": "address"
        },
        {
          "internalType": "uint256",
          "name": "blockNumber",
          "type": "uint256"
        }
      ],
      "name": "getPastVotes",
      "outputs": [
        {
          "internalType": "uint256",
          "name": "",
          "type": "uint256"
        }
      ],
      "stateMutability": "view",
      "type": "function"
    },
    {
      "inputs": [
        {
          "internalType": "address",
          "name": "account",
          "type": "address"
        }
      ],
      "name": "getVotes",
      "outputs": [
        {
          "internalType": "uint256",
          "name": "",
          "type": "uint256"
        }
      ],
      "stateMutability": "view",
      "type": "function"
    },
    {
      "inputs": [
        {
          "internalType": "uint256",
          "name": "_projectId",
          "type": "uint256"
        },
        {
          "internalType": "contract IJBDirectory",
          "name": "_directory",
          "type": "address"
        },
        {
          "internalType": "string",
          "name": "_name",
          "type": "string"
        },
        {
          "internalType": "string",
          "name": "_symbol",
          "type": "string"
        },
        {
          "internalType": "contract IJBFundingCycleStore",
          "name": "_fundingCycleStore",
          "type": "address"
        },
        {
          "internalType": "string",
          "name": "_baseUri",
          "type": "string"
        },
        {
          "internalType": "contract IJBTokenUriResolver",
          "name": "_tokenUriResolver",
          "type": "address"
        },
        {
          "internalType": "string",
          "name": "_contractUri",
          "type": "string"
        },
        {
          "components": [
            {
              "components": [
                {
                  "internalType": "uint88",
                  "name": "price",
                  "type": "uint88"
                },
                {
                  "internalType": "uint40",
                  "name": "initialQuantity",
                  "type": "uint40"
                },
                {
                  "internalType": "uint40",
                  "name": "votingUnits",
                  "type": "uint40"
                },
                {
                  "internalType": "uint16",
                  "name": "reservedRate",
                  "type": "uint16"
                },
                {
                  "internalType": "address",
                  "name": "reservedTokenBeneficiary",
                  "type": "address"
                },
                {
                  "internalType": "uint8",
                  "name": "royaltyRate",
                  "type": "uint8"
                },
                {
                  "internalType": "address",
                  "name": "royaltyBeneficiary",
                  "type": "address"
                },
                {
                  "internalType": "bytes32",
                  "name": "encodedIPFSUri",
                  "type": "bytes32"
                },
                {
                  "internalType": "uint16",
                  "name": "category",
                  "type": "uint16"
                },
                {
                  "internalType": "bool",
                  "name": "allowManualMint",
                  "type": "bool"
                },
                {
                  "internalType": "bool",
                  "name": "shouldUseReservedTokenBeneficiaryAsDefault",
                  "type": "bool"
                },
                {
                  "internalType": "bool",
                  "name": "shouldUseRoyaltyBeneficiaryAsDefault",
                  "type": "bool"
                },
                {
                  "internalType": "bool",
                  "name": "transfersPausable",
                  "type": "bool"
                },
                {
                  "internalType": "bool",
                  "name": "useVotingUnits",
                  "type": "bool"
                }
              ],
              "internalType": "struct JB721TierParams[]",
              "name": "tiers",
              "type": "tuple[]"
            },
            {
              "internalType": "uint256",
              "name": "currency",
              "type": "uint256"
            },
            {
              "internalType": "uint256",
              "name": "decimals",
              "type": "uint256"
            },
            {
              "internalType": "contract IJBPrices",
              "name": "prices",
              "type": "address"
            }
          ],
          "internalType": "struct JB721PricingParams",
          "name": "_pricing",
          "type": "tuple"
        },
        {
          "internalType": "contract IJBTiered721DelegateStore",
          "name": "_store",
          "type": "address"
        },
        {
          "components": [
            {
              "internalType": "bool",
              "name": "lockReservedTokenChanges",
              "type": "bool"
            },
            {
              "internalType": "bool",
              "name": "lockVotingUnitChanges",
              "type": "bool"
            },
            {
              "internalType": "bool",
              "name": "lockManualMintingChanges",
              "type": "bool"
            },
            {
              "internalType": "bool",
              "name": "preventOverspending",
              "type": "bool"
            }
          ],
          "internalType": "struct JBTiered721Flags",
          "name": "_flags",
          "type": "tuple"
        }
      ],
      "name": "initialize",
      "outputs": [],
      "stateMutability": "nonpayable",
      "type": "function"
    },
    {
      "inputs": [
        {
          "internalType": "address",
          "name": "owner",
          "type": "address"
        },
        {
          "internalType": "address",
          "name": "operator",
          "type": "address"
        }
      ],
      "name": "isApprovedForAll",
      "outputs": [
        {
          "internalType": "bool",
          "name": "",
          "type": "bool"
        }
      ],
      "stateMutability": "view",
      "type": "function"
    },
    {
      "inputs": [
        {
          "components": [
            {
              "internalType": "uint16[]",
              "name": "tierIds",
              "type": "uint16[]"
            },
            {
              "internalType": "address",
              "name": "beneficiary",
              "type": "address"
            }
          ],
          "internalType": "struct JBTiered721MintForTiersData[]",
          "name": "_mintForTiersData",
          "type": "tuple[]"
        }
      ],
      "name": "mintFor",
      "outputs": [],
      "stateMutability": "nonpayable",
      "type": "function"
    },
    {
      "inputs": [
        {
          "internalType": "uint16[]",
          "name": "_tierIds",
          "type": "uint16[]"
        },
        {
          "internalType": "address",
          "name": "_beneficiary",
          "type": "address"
        }
      ],
      "name": "mintFor",
      "outputs": [
        {
          "internalType": "uint256[]",
          "name": "tokenIds",
          "type": "uint256[]"
        }
      ],
      "stateMutability": "nonpayable",
      "type": "function"
    },
    {
      "inputs": [
        {
          "components": [
            {
              "internalType": "uint256",
              "name": "tierId",
              "type": "uint256"
            },
            {
              "internalType": "uint256",
              "name": "count",
              "type": "uint256"
            }
          ],
          "internalType": "struct JBTiered721MintReservesForTiersData[]",
          "name": "_mintReservesForTiersData",
          "type": "tuple[]"
        }
      ],
      "name": "mintReservesFor",
      "outputs": [],
      "stateMutability": "nonpayable",
      "type": "function"
    },
    {
      "inputs": [
        {
          "internalType": "uint256",
          "name": "_tierId",
          "type": "uint256"
        },
        {
          "internalType": "uint256",
          "name": "_count",
          "type": "uint256"
        }
      ],
      "name": "mintReservesFor",
      "outputs": [],
      "stateMutability": "nonpayable",
      "type": "function"
    },
    {
      "inputs": [],
      "name": "name",
      "outputs": [
        {
          "internalType": "string",
          "name": "",
          "type": "string"
        }
      ],
      "stateMutability": "view",
      "type": "function"
    },
    {
      "inputs": [],
      "name": "owner",
      "outputs": [
        {
          "internalType": "address",
          "name": "",
          "type": "address"
        }
      ],
      "stateMutability": "view",
      "type": "function"
    },
    {
      "inputs": [
        {
          "internalType": "uint256",
          "name": "tokenId",
          "type": "uint256"
        }
      ],
      "name": "ownerOf",
      "outputs": [
        {
          "internalType": "address",
          "name": "",
          "type": "address"
        }
      ],
      "stateMutability": "view",
      "type": "function"
    },
    {
      "inputs": [
        {
          "components": [
            {
              "internalType": "contract IJBPaymentTerminal",
              "name": "terminal",
              "type": "address"
            },
            {
              "internalType": "address",
              "name": "payer",
              "type": "address"
            },
            {
              "components": [
                {
                  "internalType": "address",
                  "name": "token",
                  "type": "address"
                },
                {
                  "internalType": "uint256",
                  "name": "value",
                  "type": "uint256"
                },
                {
                  "internalType": "uint256",
                  "name": "decimals",
                  "type": "uint256"
                },
                {
                  "internalType": "uint256",
                  "name": "currency",
                  "type": "uint256"
                }
              ],
              "internalType": "struct JBTokenAmount",
              "name": "amount",
              "type": "tuple"
            },
            {
              "internalType": "uint256",
              "name": "projectId",
              "type": "uint256"
            },
            {
              "internalType": "uint256",
              "name": "currentFundingCycleConfiguration",
              "type": "uint256"
            },
            {
              "internalType": "address",
              "name": "beneficiary",
              "type": "address"
            },
            {
              "internalType": "uint256",
              "name": "weight",
              "type": "uint256"
            },
            {
              "internalType": "uint256",
              "name": "reservedRate",
              "type": "uint256"
            },
            {
              "internalType": "string",
              "name": "memo",
              "type": "string"
            },
            {
              "internalType": "bytes",
              "name": "metadata",
              "type": "bytes"
            }
          ],
          "internalType": "struct JBPayParamsData",
          "name": "_data",
          "type": "tuple"
        }
      ],
      "name": "payParams",
      "outputs": [
        {
          "internalType": "uint256",
          "name": "weight",
          "type": "uint256"
        },
        {
          "internalType": "string",
          "name": "memo",
          "type": "string"
        },
        {
          "components": [
            {
              "internalType": "contract IJBPayDelegate",
              "name": "delegate",
              "type": "address"
            },
            {
              "internalType": "uint256",
              "name": "amount",
              "type": "uint256"
            }
          ],
          "internalType": "struct JBPayDelegateAllocation[]",
          "name": "delegateAllocations",
          "type": "tuple[]"
        }
      ],
      "stateMutability": "view",
      "type": "function"
    },
    {
      "inputs": [],
      "name": "prices",
      "outputs": [
        {
          "internalType": "contract IJBPrices",
          "name": "",
          "type": "address"
        }
      ],
      "stateMutability": "view",
      "type": "function"
    },
    {
      "inputs": [],
      "name": "pricingCurrency",
      "outputs": [
        {
          "internalType": "uint256",
          "name": "",
          "type": "uint256"
        }
      ],
      "stateMutability": "view",
      "type": "function"
    },
    {
      "inputs": [],
      "name": "pricingDecimals",
      "outputs": [
        {
          "internalType": "uint256",
          "name": "",
          "type": "uint256"
        }
      ],
      "stateMutability": "view",
      "type": "function"
    },
    {
      "inputs": [],
      "name": "projectId",
      "outputs": [
        {
          "internalType": "uint256",
          "name": "",
          "type": "uint256"
        }
      ],
      "stateMutability": "view",
      "type": "function"
    },
    {
      "inputs": [
        {
          "components": [
            {
              "internalType": "contract IJBPaymentTerminal",
              "name": "terminal",
              "type": "address"
            },
            {
              "internalType": "address",
              "name": "holder",
              "type": "address"
            },
            {
              "internalType": "uint256",
              "name": "projectId",
              "type": "uint256"
            },
            {
              "internalType": "uint256",
              "name": "currentFundingCycleConfiguration",
              "type": "uint256"
            },
            {
              "internalType": "uint256",
              "name": "tokenCount",
              "type": "uint256"
            },
            {
              "internalType": "uint256",
              "name": "totalSupply",
              "type": "uint256"
            },
            {
              "internalType": "uint256",
              "name": "overflow",
              "type": "uint256"
            },
            {
              "components": [
                {
                  "internalType": "address",
                  "name": "token",
                  "type": "address"
                },
                {
                  "internalType": "uint256",
                  "name": "value",
                  "type": "uint256"
                },
                {
                  "internalType": "uint256",
                  "name": "decimals",
                  "type": "uint256"
                },
                {
                  "internalType": "uint256",
                  "name": "currency",
                  "type": "uint256"
                }
              ],
              "internalType": "struct JBTokenAmount",
              "name": "reclaimAmount",
              "type": "tuple"
            },
            {
              "internalType": "bool",
              "name": "useTotalOverflow",
              "type": "bool"
            },
            {
              "internalType": "uint256",
              "name": "redemptionRate",
              "type": "uint256"
            },
            {
              "internalType": "string",
              "name": "memo",
              "type": "string"
            },
            {
              "internalType": "bytes",
              "name": "metadata",
              "type": "bytes"
            }
          ],
          "internalType": "struct JBRedeemParamsData",
          "name": "_data",
          "type": "tuple"
        }
      ],
      "name": "redeemParams",
      "outputs": [
        {
          "internalType": "uint256",
          "name": "reclaimAmount",
          "type": "uint256"
        },
        {
          "internalType": "string",
          "name": "memo",
          "type": "string"
        },
        {
          "components": [
            {
              "internalType": "contract IJBRedemptionDelegate",
              "name": "delegate",
              "type": "address"
            },
            {
              "internalType": "uint256",
              "name": "amount",
              "type": "uint256"
            }
          ],
          "internalType": "struct JBRedemptionDelegateAllocation[]",
          "name": "delegateAllocations",
          "type": "tuple[]"
        }
      ],
      "stateMutability": "view",
      "type": "function"
    },
    {
      "inputs": [
        {
          "internalType": "uint256[]",
          "name": "_tokenIds",
          "type": "uint256[]"
        },
        {
          "components": [
            {
              "internalType": "contract IJBPaymentTerminal",
              "name": "terminal",
              "type": "address"
            },
            {
              "internalType": "address",
              "name": "holder",
              "type": "address"
            },
            {
              "internalType": "uint256",
              "name": "projectId",
              "type": "uint256"
            },
            {
              "internalType": "uint256",
              "name": "currentFundingCycleConfiguration",
              "type": "uint256"
            },
            {
              "internalType": "uint256",
              "name": "tokenCount",
              "type": "uint256"
            },
            {
              "internalType": "uint256",
              "name": "totalSupply",
              "type": "uint256"
            },
            {
              "internalType": "uint256",
              "name": "overflow",
              "type": "uint256"
            },
            {
              "components": [
                {
                  "internalType": "address",
                  "name": "token",
                  "type": "address"
                },
                {
                  "internalType": "uint256",
                  "name": "value",
                  "type": "uint256"
                },
                {
                  "internalType": "uint256",
                  "name": "decimals",
                  "type": "uint256"
                },
                {
                  "internalType": "uint256",
                  "name": "currency",
                  "type": "uint256"
                }
              ],
              "internalType": "struct JBTokenAmount",
              "name": "reclaimAmount",
              "type": "tuple"
            },
            {
              "internalType": "bool",
              "name": "useTotalOverflow",
              "type": "bool"
            },
            {
              "internalType": "uint256",
              "name": "redemptionRate",
              "type": "uint256"
            },
            {
              "internalType": "string",
              "name": "memo",
              "type": "string"
            },
            {
              "internalType": "bytes",
              "name": "metadata",
              "type": "bytes"
            }
          ],
          "internalType": "struct JBRedeemParamsData",
          "name": "",
          "type": "tuple"
        }
      ],
      "name": "redemptionWeightOf",
      "outputs": [
        {
          "internalType": "uint256",
          "name": "",
          "type": "uint256"
        }
      ],
      "stateMutability": "view",
      "type": "function"
    },
    {
      "inputs": [],
      "name": "renounceOwnership",
      "outputs": [],
      "stateMutability": "nonpayable",
      "type": "function"
    },
    {
      "inputs": [
        {
          "internalType": "uint256",
          "name": "_tokenId",
          "type": "uint256"
        },
        {
          "internalType": "uint256",
          "name": "_salePrice",
          "type": "uint256"
        }
      ],
      "name": "royaltyInfo",
      "outputs": [
        {
          "internalType": "address",
          "name": "",
          "type": "address"
        },
        {
          "internalType": "uint256",
          "name": "",
          "type": "uint256"
        }
      ],
      "stateMutability": "view",
      "type": "function"
    },
    {
      "inputs": [
        {
          "internalType": "address",
          "name": "from",
          "type": "address"
        },
        {
          "internalType": "address",
          "name": "to",
          "type": "address"
        },
        {
          "internalType": "uint256",
          "name": "tokenId",
          "type": "uint256"
        }
      ],
      "name": "safeTransferFrom",
      "outputs": [],
      "stateMutability": "nonpayable",
      "type": "function"
    },
    {
      "inputs": [
        {
          "internalType": "address",
          "name": "from",
          "type": "address"
        },
        {
          "internalType": "address",
          "name": "to",
          "type": "address"
        },
        {
          "internalType": "uint256",
          "name": "tokenId",
          "type": "uint256"
        },
        {
          "internalType": "bytes",
          "name": "data",
          "type": "bytes"
        }
      ],
      "name": "safeTransferFrom",
      "outputs": [],
      "stateMutability": "nonpayable",
      "type": "function"
    },
    {
      "inputs": [
        {
          "internalType": "address",
          "name": "operator",
          "type": "address"
        },
        {
          "internalType": "bool",
          "name": "approved",
          "type": "bool"
        }
      ],
      "name": "setApprovalForAll",
      "outputs": [],
      "stateMutability": "nonpayable",
      "type": "function"
    },
    {
      "inputs": [
        {
          "internalType": "string",
          "name": "_baseUri",
          "type": "string"
        }
      ],
      "name": "setBaseUri",
      "outputs": [],
      "stateMutability": "nonpayable",
      "type": "function"
    },
    {
      "inputs": [
        {
          "internalType": "string",
          "name": "_contractUri",
          "type": "string"
        }
      ],
      "name": "setContractUri",
      "outputs": [],
      "stateMutability": "nonpayable",
      "type": "function"
    },
    {
      "inputs": [
        {
          "internalType": "address",
          "name": "_beneficiary",
          "type": "address"
        }
      ],
      "name": "setDefaultReservedTokenBeneficiary",
      "outputs": [],
      "stateMutability": "nonpayable",
      "type": "function"
    },
    {
      "inputs": [
        {
          "internalType": "uint256",
          "name": "_tierId",
          "type": "uint256"
        },
        {
          "internalType": "bytes32",
          "name": "_encodedIPFSUri",
          "type": "bytes32"
        }
      ],
      "name": "setEncodedIPFSUriOf",
      "outputs": [],
      "stateMutability": "nonpayable",
      "type": "function"
    },
    {
      "inputs": [
        {
          "internalType": "contract IJBTokenUriResolver",
          "name": "_tokenUriResolver",
          "type": "address"
        }
      ],
      "name": "setTokenUriResolver",
      "outputs": [],
      "stateMutability": "nonpayable",
      "type": "function"
    },
    {
      "inputs": [],
      "name": "store",
      "outputs": [
        {
          "internalType": "contract IJBTiered721DelegateStore",
          "name": "",
          "type": "address"
        }
      ],
      "stateMutability": "view",
      "type": "function"
    },
    {
      "inputs": [
        {
          "internalType": "bytes4",
          "name": "_interfaceId",
          "type": "bytes4"
        }
      ],
      "name": "supportsInterface",
      "outputs": [
        {
          "internalType": "bool",
          "name": "",
          "type": "bool"
        }
      ],
      "stateMutability": "view",
      "type": "function"
    },
    {
      "inputs": [],
      "name": "symbol",
      "outputs": [
        {
          "internalType": "string",
          "name": "",
          "type": "string"
        }
      ],
      "stateMutability": "view",
      "type": "function"
    },
    {
      "inputs": [
        {
          "internalType": "uint256",
          "name": "_tokenId",
          "type": "uint256"
        }
      ],
      "name": "tokenURI",
      "outputs": [
        {
          "internalType": "string",
          "name": "",
          "type": "string"
        }
      ],
      "stateMutability": "view",
      "type": "function"
    },
    {
      "inputs": [
        {
          "components": [
            {
              "internalType": "contract IJBPaymentTerminal",
              "name": "terminal",
              "type": "address"
            },
            {
              "internalType": "address",
              "name": "holder",
              "type": "address"
            },
            {
              "internalType": "uint256",
              "name": "projectId",
              "type": "uint256"
            },
            {
              "internalType": "uint256",
              "name": "currentFundingCycleConfiguration",
              "type": "uint256"
            },
            {
              "internalType": "uint256",
              "name": "tokenCount",
              "type": "uint256"
            },
            {
              "internalType": "uint256",
              "name": "totalSupply",
              "type": "uint256"
            },
            {
              "internalType": "uint256",
              "name": "overflow",
              "type": "uint256"
            },
            {
              "components": [
                {
                  "internalType": "address",
                  "name": "token",
                  "type": "address"
                },
                {
                  "internalType": "uint256",
                  "name": "value",
                  "type": "uint256"
                },
                {
                  "internalType": "uint256",
                  "name": "decimals",
                  "type": "uint256"
                },
                {
                  "internalType": "uint256",
                  "name": "currency",
                  "type": "uint256"
                }
              ],
              "internalType": "struct JBTokenAmount",
              "name": "reclaimAmount",
              "type": "tuple"
            },
            {
              "internalType": "bool",
              "name": "useTotalOverflow",
              "type": "bool"
            },
            {
              "internalType": "uint256",
              "name": "redemptionRate",
              "type": "uint256"
            },
            {
              "internalType": "string",
              "name": "memo",
              "type": "string"
            },
            {
              "internalType": "bytes",
              "name": "metadata",
              "type": "bytes"
            }
          ],
          "internalType": "struct JBRedeemParamsData",
          "name": "",
          "type": "tuple"
        }
      ],
      "name": "totalRedemptionWeight",
      "outputs": [
        {
          "internalType": "uint256",
          "name": "",
          "type": "uint256"
        }
      ],
      "stateMutability": "view",
      "type": "function"
    },
    {
      "inputs": [
        {
          "internalType": "address",
          "name": "from",
          "type": "address"
        },
        {
          "internalType": "address",
          "name": "to",
          "type": "address"
        },
        {
          "internalType": "uint256",
          "name": "tokenId",
          "type": "uint256"
        }
      ],
      "name": "transferFrom",
      "outputs": [],
      "stateMutability": "nonpayable",
      "type": "function"
    },
    {
      "inputs": [
        {
          "internalType": "address",
          "name": "newOwner",
          "type": "address"
        }
      ],
      "name": "transferOwnership",
      "outputs": [],
      "stateMutability": "nonpayable",
      "type": "function"
    }
  ],
  "bytecode": {
    "object": "0x60806040523480156200001157600080fd5b506200001d3362000035565b600b80546001600160a01b0319163017905562000087565b600a80546001600160a01b038381166001600160a01b0319831681179093556040519116919082907f8be0079c531659141344cd1fd0a4f28419497f9722a3daafe3b4186f6b6457e090600090a35050565b61597c80620000976000396000f3fe6080604052600436106102c95760003560e01c806370a0823111610175578063a51cfd18116100dc578063d3419bf311610095578063df487e261161006f578063df487e26146108de578063e8a3d485146108fe578063e985e9c514610913578063f2fde38b1461095c57600080fd5b8063d3419bf31461088b578063d46cf171146108ab578063da9ee8b7146108cb57600080fd5b8063a51cfd18146107bc578063aa4fb15b146107eb578063b88d4fde1461080b578063c41c2f241461082b578063c87b56dd1461084b578063ccb4807b1461086b57600080fd5b80639521e3811161012e5780639521e3811461070757806395d89b4114610727578063975057e71461073c5780639ab24eb01461075c578063a0bcfc7f1461077c578063a22cb4651461079c57600080fd5b806370a0823114610654578063715018a6146106745780637ba62bf9146106895780638da5cb5b146106a95780638e539e8c146106c75780639494bf72146106e757600080fd5b806336c1a93b1161023457806354c6d1f5116101ed5780635c19a95c116101c75780635c19a95c146105d15780636352211e146105f157806364640c1e146106115780636ac6d9411461062757600080fd5b806354c6d1f514610558578063557e715514610578578063587cde1e1461059857600080fd5b806336c1a93b146104ac5780633a46b1a8146104cc5780633fafa127146104ec57806342842e0e146105025780634ecba62514610522578063525350ba1461053857600080fd5b806323b872dd1161028657806323b872dd146103bf5780632407497e146103df578063245a45b5146103ff5780632a55205a1461043a5780632a596e53146104795780632b13c58f1461049957600080fd5b806301ffc9a7146102ce57806306fdde0314610303578063081812fc14610325578063095ea7b31461035d57806314ea9b061461037f5780631d153ca41461039f575b600080fd5b3480156102da57600080fd5b506102ee6102e9366004613f7d565b61097c565b60405190151581526020015b60405180910390f35b34801561030f57600080fd5b506103186109a7565b6040516102fa9190613fea565b34801561033157600080fd5b50610345610340366004613ffd565b610a39565b6040516001600160a01b0390911681526020016102fa565b34801561036957600080fd5b5061037d61037836600461403b565b610a60565b005b34801561038b57600080fd5b5061037d61039a3660046140ab565b610aec565b3480156103ab57600080fd5b50600b54610345906001600160a01b031681565b3480156103cb57600080fd5b5061037d6103da366004614145565b610ccf565b3480156103eb57600080fd5b5061037d6103fa366004614186565b610d01565b34801561040b57600080fd5b5061042c61041a366004614186565b60116020526000908152604090205481565b6040519081526020016102fa565b34801561044657600080fd5b5061045a6104553660046141a3565b610daa565b604080516001600160a01b0390931683526020830191909152016102fa565b34801561048557600080fd5b5061037d6104943660046141c5565b610e34565b61037d6104a7366004614252565b610e8d565b3480156104b857600080fd5b5061037d6104c7366004614286565b611067565b3480156104d857600080fd5b5061042c6104e736600461403b565b6110c9565b3480156104f857600080fd5b5061042c60085481565b34801561050e57600080fd5b5061037d61051d366004614145565b6110f2565b34801561052e57600080fd5b5061042c60105481565b34801561054457600080fd5b5061037d6105533660046141a3565b61110d565b34801561056457600080fd5b50610345610573366004613ffd565b6111b9565b34801561058457600080fd5b50600d54610345906001600160a01b031681565b3480156105a457600080fd5b506103456105b3366004614186565b6001600160a01b039081166000908152602081905260409020541690565b3480156105dd57600080fd5b5061037d6105ec366004614186565b611265565b3480156105fd57600080fd5b5061034561060c366004613ffd565b611272565b34801561061d57600080fd5b5061042c600f5481565b34801561063357600080fd5b506106476106423660046142c7565b6112a8565b6040516102fa9190614358565b34801561066057600080fd5b5061042c61066f366004614186565b6113ee565b34801561068057600080fd5b5061037d611464565b34801561069557600080fd5b5061042c6106a43660046144ad565b611478565b3480156106b557600080fd5b50600a546001600160a01b0316610345565b3480156106d357600080fd5b5061042c6106e2366004613ffd565b6114ec565b3480156106f357600080fd5b5061042c610702366004614252565b611519565b34801561071357600080fd5b5061037d610722366004614814565b61154a565b34801561073357600080fd5b50610318611848565b34801561074857600080fd5b50600c54610345906001600160a01b031681565b34801561076857600080fd5b5061042c610777366004614186565b611857565b34801561078857600080fd5b5061037d61079736600461494d565b611887565b3480156107a857600080fd5b5061037d6107b73660046149ac565b61193a565b3480156107c857600080fd5b506107dc6107d7366004614252565b611949565b6040516102fa939291906149e5565b3480156107f757600080fd5b5061037d6108063660046141a3565b611ba8565b34801561081757600080fd5b5061037d610826366004614a57565b611dc5565b34801561083757600080fd5b50600954610345906001600160a01b031681565b34801561085757600080fd5b50610318610866366004613ffd565b611df8565b34801561087757600080fd5b5061037d61088636600461494d565b611fd2565b34801561089757600080fd5b50600e54610345906001600160a01b031681565b3480156108b757600080fd5b506107dc6108c6366004614ad6565b612085565b61037d6108d9366004614b11565b612168565b3480156108ea57600080fd5b5061037d6108f9366004614186565b61221f565b34801561090a57600080fd5b506103186122c1565b34801561091f57600080fd5b506102ee61092e366004614b4c565b6001600160a01b03918216600090815260076020908152604080832093909416825291909152205460ff1690565b34801561096857600080fd5b5061037d610977366004614186565b612337565b60006001600160e01b0319821663868846f760e01b14806109a157506109a1826123b2565b92915050565b6060600380546109b690614b7a565b80601f01602080910402602001604051908101604052809291908181526020018280546109e290614b7a565b8015610a2f5780601f10610a0457610100808354040283529160200191610a2f565b820191906000526020600020905b815481529060010190602001808311610a1257829003601f168201915b5050505050905090565b6000610a4482612443565b506000908152600660205260409020546001600160a01b031690565b6000610a6b82611272565b9050806001600160a01b0316836001600160a01b031603610a9f5760405163133f8be960e01b815260040160405180910390fd5b336001600160a01b03821614801590610abf5750610abd813361092e565b155b15610add5760405163e5fa0e3560e01b815260040160405180910390fd5b610ae78383612478565b505050565b610af46124e6565b82818015610bc457600c546040516320512ba160e01b81526001600160a01b03909116906320512ba190610b2e9087908790600401614bae565b600060405180830381600087803b158015610b4857600080fd5b505af1158015610b5c573d6000803e3d6000fd5b5050505060005b81811015610bc257848482818110610b7d57610b7d614be7565b60405133815260209182029390930135927f832d89d991be5351d793c20faf4b7dd44f8aa9ce39e3cb160c6317de6fbba72992500160405180910390a2600101610b63565b505b8115610cc757600c546040516386a5100760e01b81526000916001600160a01b0316906386a5100790610bfd908a908a90600401614d32565b6000604051808303816000875af1158015610c1c573d6000803e3d6000fd5b505050506040513d6000823e601f3d908101601f19168201604052610c449190810190614dd0565b905060005b83811015610cc457818181518110610c6357610c63614be7565b60200260200101517f94fa90e7e0c9e633db6056cdda599aa1c789587d7971ed761612032de6237c7f898984818110610c9e57610c9e614be7565b90506101c0020133604051610cb4929190614e04565b60405180910390a2600101610c49565b50505b505050505050565b610cd93382612540565b610cf65760405163e5fa0e3560e01b815260040160405180910390fd5b610ae78383836125bf565b610d096124e6565b600c5460405163036129cb60e61b81526001600160a01b0383811660048301529091169063d84a72c090602401600060405180830381600087803b158015610d5057600080fd5b505af1158015610d64573d6000803e3d6000fd5b50506040513381526001600160a01b03841692507fe7784d93cfbfa4408e19577e6cc0436f4dbb51214b70e100905dfce9def88c1691506020015b60405180910390a250565b600c546040516329c5eaf560e11b8152306004820152602481018490526044810183905260009182916001600160a01b039091169063538bd5ea906064016040805180830381865afa158015610e04573d6000803e3d6000fd5b505050506040513d601f19601f82011682018060405250810190610e289190614e37565b915091505b9250929050565b8060005b81811015610e87576000848483818110610e5457610e54614be7565b905060400201803603810190610e6a9190614e65565b9050610e7e81600001518260200151611ba8565b50600101610e38565b50505050565b34151580610f0f5750600954600854604051636e49181f60e01b815260048101919091523360248201526001600160a01b0390911690636e49181f90604401602060405180830381865afa158015610ee9573d6000803e3d6000fd5b505050506040513d601f19601f82011682018060405250810190610f0d9190614ebe565b155b80610f205750600854816020013514155b15610f3e57604051633efca5c360e11b815260040160405180910390fd5b6024610f4e6101c0830183614edb565b90501080610f9257506316c7dbff60e21b610f6d6101c0830183614edb565b610f7c91602491602091614f21565b610f8591614f4b565b6001600160e01b03191614155b15610fb057604051632a84050f60e01b815260040160405180910390fd5b6000610fc06101c0830183614edb565b810190610fcd9190614f7b565b925050506000815190506000805b8281101561105d57838181518110610ff557610ff5614be7565b602002602001015191508460000160208101906110129190614186565b6000838152600560205260409020546001600160a01b0390811691161461104c5760405163075fd2b160e01b815260040160405180910390fd5b61105582612698565b600101610fdb565b50610e8783612719565b61106f6124e6565b8060005b81811015610e87573684848381811061108e5761108e614be7565b90506020028101906110a09190614fd3565b90506110bf6110af8280614ff3565b6106426040850160208601614186565b5050600101611073565b6001600160a01b03821660009081526001602052604081206110eb908361277e565b9392505050565b610ae783838360405180602001604052806000815250611dc5565b6111156124e6565b600c546040516324de8d6360e11b815260048101849052602481018390526001600160a01b03909116906349bd1ac690604401600060405180830381600087803b15801561116257600080fd5b505af1158015611176573d6000803e3d6000fd5b5050604080518481523360208201528593507f677da4fed654db8e604791fa2582f342e2001aa217e27f6985eb3e0f67e5a7fc9250015b60405180910390a25050565b600c546040516308ed6c0160e41b81523060048201526024810183905260009182916001600160a01b0390911690638ed6c01090604401602060405180830381865afa15801561120d573d6000803e3d6000fd5b505050506040513d601f19601f82011682018060405250810190611231919061503c565b90506001600160a01b038116156112485792915050565b50506000908152600560205260409020546001600160a01b031690565b61126f338261283f565b50565b6000818152600560205260408120546001600160a01b0316806109a15760405163b49aa3b560e01b815260040160405180910390fd5b60606112b26124e6565b600c5460405163eaa19ab360e01b81526001600160a01b039091169063eaa19ab3906112eb906000199088908890600190600401615059565b6000604051808303816000875af115801561130a573d6000803e3d6000fd5b505050506040513d6000823e601f3d908101601f1916820160405261133291908101906150b6565b509050826000805b828110156113e45783818151811061135457611354614be7565b6020026020010151915061136885836128b1565b846001600160a01b031687878381811061138457611384614be7565b905060200201602081019061139991906150fc565b604080516000815233602082015261ffff929092169185917f598baf7bf150ca2f42be9e9f8f55e81d45f5715c3ff22bf46d697fabec7f31d6910160405180910390a460010161133a565b5050509392505050565b600c54604051633de222bb60e21b81523060048201526001600160a01b038381166024830152600092169063f7888aec906044015b602060405180830381865afa158015611440573d6000803e3d6000fd5b505050506040513d601f19601f820116820180604052508101906109a19190615117565b61146c6124e6565b611476600061297b565b565b600c5460405163051330b560e21b81526000916001600160a01b03169063144cc2d4906114ab9030908790600401615130565b602060405180830381865afa1580156114c8573d6000803e3d6000fd5b505050506040513d601f19601f820116820180604052508101906110eb9190615117565b600043821061150e576040516305b5e09b60e51b815260040160405180910390fd5b6109a160028361277e565b600c54604051631572f24960e11b81523060048201526000916001600160a01b031690632ae5e49290602401611423565b600b546001600160a01b0316300361156157600080fd5b600c546001600160a01b03161561157757600080fd5b6115838b8b8b8b6129cd565b600d80546001600160a01b03808a166001600160a01b031992831617909255600c80548584169083161790556020850151600f5560408501516010556060850151600e8054919093169116179055855115611637576040516331315e5960e11b81526001600160a01b03831690636262bcb290611604908990600401613fea565b600060405180830381600087803b15801561161e57600080fd5b505af1158015611632573d6000803e3d6000fd5b505050505b83511561169d5760405163d67b78fd60e01b81526001600160a01b0383169063d67b78fd9061166a908790600401613fea565b600060405180830381600087803b15801561168457600080fd5b505af1158015611698573d6000803e3d6000fd5b505050505b6001600160a01b038516156117085760405163036129cb60e61b81526001600160a01b03868116600483015283169063d84a72c090602401600060405180830381600087803b1580156116ef57600080fd5b505af1158015611703573d6000803e3d6000fd5b505050505b825151156117865782516040516386a5100760e01b81526001600160a01b038416916386a510079161173d9190600401615154565b6000604051808303816000875af115801561175c573d6000803e3d6000fd5b505050506040513d6000823e601f3d908101601f191682016040526117849190810190614dd0565b505b805180611794575080602001515b806117a0575080604001515b806117ac575080606001515b1561183257604080516365c13f1960e11b815282511515600482015260208301511515602482015290820151151560448201526060820151151560648201526001600160a01b0383169063cb827e3290608401600060405180830381600087803b15801561181957600080fd5b505af115801561182d573d6000803e3d6000fd5b505050505b61183b3361297b565b5050505050505050505050565b6060600480546109b690614b7a565b6001600160a01b038116600090815260016020526040812061187890612a00565b6001600160e01b031692915050565b61188f6124e6565b600c546040516331315e5960e11b81526001600160a01b0390911690636262bcb2906118c19085908590600401615264565b600060405180830381600087803b1580156118db57600080fd5b505af11580156118ef573d6000803e3d6000fd5b505050508181604051611903929190615293565b604051908190038120338252907f7bc9110d5de090dd59e07912d2b93a5a27ac70a60c8d8e324db4f9ee8b8b5c13906020016111ad565b611945338383612a3a565b5050565b6000606080608084013515611971576040516309f82f1b60e31b815260040160405180910390fd5b60246119816101c0860186614edb565b905010806119c557506316c7dbff60e21b6119a06101c0860186614edb565b6119af91602491602091614f21565b6119b891614f4b565b6001600160e01b03191614155b156119e357604051632a84050f60e01b815260040160405180910390fd5b60408051600180825281830190925290816020015b60408051808201909152600080825260208201528152602001906001900390816119f85790505090506040518060400160405280306001600160a01b03168152602001600081525081600081518110611a5357611a53614be7565b60209081029190910101526000611a6e6101c0860186614edb565b810190611a7b9190614f7b565b925050506000611a8b8287611478565b90506000611a9887611519565b90506000611aab8860c001358484612ad9565b905061271088610180013503611b165780611aca6101a08a018a614edb565b8782828080601f016020809104026020016040519081016040528093929190818152602001838380828437600092019190915250969d50919b50919950611ba198505050505050505050565b611b4c81611b3585611b2f6101808d01356127106152b9565b86612ad9565b611b44906101808c01356152cc565b612710612ad9565b611b5a6101a08a018a614edb565b8782828080601f016020809104026020016040519081016040528093929190818152602001838380828437600092019190915250969d50919b509199505050505050505050505b9193909250565b600d546008546040516321d1336160e11b815260048101919091526000916001600160a01b0316906343a266c29060240161012060405180830381865afa158015611bf7573d6000803e3d6000fd5b505050506040513d601f19601f82011682018060405250810190611c1b91906152df565b61010081015190915060f51c600190811603611c4a57604051631d2c125760e31b815260040160405180910390fd5b600c54604051635d53f40760e11b815260048101859052602481018490526000916001600160a01b03169063baa7e80e906044016000604051808303816000875af1158015611c9d573d6000803e3d6000fd5b505050506040513d6000823e601f3d908101601f19168201604052611cc59190810190614dd0565b600c546040516304db994760e21b8152306004820152602481018790529192506000916001600160a01b039091169063136e651c90604401602060405180830381865afa158015611d1a573d6000803e3d6000fd5b505050506040513d601f19601f82011682018060405250810190611d3e919061503c565b90506000805b85811015611dbc57838181518110611d5e57611d5e614be7565b60200260200101519150611d7283836128b1565b6040513381526001600160a01b03841690889084907f031e1988c95a91ec4d655ff63a8f87a80bc9daf28d95ae10ee08c0022cfb5c8b9060200160405180910390a4600101611d44565b50505050505050565b611dcf3383612540565b611dec5760405163e5fa0e3560e01b815260040160405180910390fd5b610e8784848484612ba5565b600c54604051630fab094760e01b81523060048201526060916000916001600160a01b0390911690630fab094790602401602060405180830381865afa158015611e46573d6000803e3d6000fd5b505050506040513d601f19601f82011682018060405250810190611e6a919061503c565b90506001600160a01b03811615611ee857604051636d02a25560e11b8152600481018490526001600160a01b0382169063da0544aa90602401600060405180830381865afa158015611ec0573d6000803e3d6000fd5b505050506040513d6000823e601f3d908101601f191682016040526110eb919081019061535f565b600c5460405163f682eeaf60e01b81523060048201526110eb916001600160a01b03169063f682eeaf90602401600060405180830381865afa158015611f32573d6000803e3d6000fd5b505050506040513d6000823e601f3d908101601f19168201604052611f5a919081019061535f565b600c54604051630c8df17160e41b8152306004820152602481018790526001600160a01b039091169063c8df171090604401602060405180830381865afa158015611fa9573d6000803e3d6000fd5b505050506040513d601f19601f82011682018060405250810190611fcd9190615117565b612bd9565b611fda6124e6565b600c5460405163d67b78fd60e01b81526001600160a01b039091169063d67b78fd9061200c9085908590600401615264565b600060405180830381600087803b15801561202657600080fd5b505af115801561203a573d6000803e3d6000fd5b50505050818160405161204e929190615293565b604051908190038120338252907fd36dc0c1a06103fdcaf15f3f6fb797d1a97997514c78de073640c8b5005454b8906020016111ad565b61012081013560608061209c610160850185614edb565b8080601f016020809104026020016040519081016040528093929190818152602001838380828437600092019190915250929450600192506120dc915050565b60405190808252806020026020018201604052801561212157816020015b60408051808201909152600080825260208201528152602001906001900390816120fa5790505b5090506040518060400160405280306001600160a01b0316815260200160008152508160008151811061215657612156614be7565b60200260200101819052509193909250565b600854341515806121e95750600954604051636e49181f60e01b8152600481018390523360248201526001600160a01b0390911690636e49181f90604401602060405180830381865afa1580156121c3573d6000803e3d6000fd5b505050506040513d601f19601f820116820180604052508101906121e79190614ebe565b155b806121f8575080826020013514155b15612216576040516331c57b1b60e21b815260040160405180910390fd5b61194582612c40565b6122276124e6565b600c546040516317161f7d60e01b81526001600160a01b038381166004830152909116906317161f7d90602401600060405180830381600087803b15801561226e57600080fd5b505af1158015612282573d6000803e3d6000fd5b50506040513381526001600160a01b03841692507fab0014d4c7a642a02a31b303a318908c22b0fb2001f107278fc6076b4c671b659150602001610d9f565b600c54604051630155619b60e71b81523060048201526060916001600160a01b03169063aab0cd8090602401600060405180830381865afa15801561230a573d6000803e3d6000fd5b505050506040513d6000823e601f3d908101601f19168201604052612332919081019061535f565b905090565b61233f6124e6565b6001600160a01b0381166123a95760405162461bcd60e51b815260206004820152602660248201527f4f776e61626c653a206e6577206f776e657220697320746865207a65726f206160448201526564647265737360d01b60648201526084015b60405180910390fd5b61126f8161297b565b60006001600160e01b031982166316c7dbff60e21b14806123e357506001600160e01b031982166371700c6960e01b145b806123fe57506001600160e01b0319821663da9ee8b760e01b145b8061241957506001600160e01b03198216632b13c58f60e01b145b8061243457506001600160e01b0319821663152a902d60e11b145b806109a157506109a182613074565b6000818152600560205260409020546001600160a01b031661126f5760405163b49aa3b560e01b815260040160405180910390fd5b600081815260066020526040902080546001600160a01b0319166001600160a01b03841690811790915581906124ad82611272565b6001600160a01b03167f8c5be1e5ebec7d5bd14f71427d1e84f3dd0314c0f7b2291e5b200ac8c7c3b92560405160405180910390a45050565b600a546001600160a01b031633146114765760405162461bcd60e51b815260206004820181905260248201527f4f776e61626c653a2063616c6c6572206973206e6f7420746865206f776e657260448201526064016123a0565b60008061254c83611272565b9050806001600160a01b0316846001600160a01b0316148061259357506001600160a01b0380821660009081526007602090815260408083209388168352929052205460ff165b806125b75750836001600160a01b03166125ac84610a39565b6001600160a01b0316145b949350505050565b826001600160a01b03166125d282611272565b6001600160a01b0316146125f95760405163a195bc5360e01b815260040160405180910390fd5b6001600160a01b03821661262057604051632c95542760e01b815260040160405180910390fd5b61262b8383836130c4565b612636600082612478565b60008181526005602052604080822080546001600160a01b0319166001600160a01b0386811691821790925591518493918716917fddf252ad1be2c89b69c2b068fc378daa952ba7f163c4a11628f55a4df523b3ef91a4610ae78383836132f1565b60006126a382611272565b90506126b1816000846130c4565b6126bc600083612478565b60008281526005602052604080822080546001600160a01b0319169055518391906001600160a01b038416907fddf252ad1be2c89b69c2b068fc378daa952ba7f163c4a11628f55a4df523b3ef908390a4611945816000846132f1565b600c546040516386bc2be360e01b81526001600160a01b03909116906386bc2be390612749908490600401614358565b600060405180830381600087803b15801561276357600080fd5b505af1158015612777573d6000803e3d6000fd5b5050505050565b60004382106127cf5760405162461bcd60e51b815260206004820181905260248201527f436865636b706f696e74733a20626c6f636b206e6f7420796574206d696e656460448201526064016123a0565b60006127da836133ea565b845490915060006127ed86848385613453565b9050801561282957612812866128046001846152b9565b600091825260209091200190565b5464010000000090046001600160e01b031661282c565b60005b6001600160e01b03169695505050505050565b6001600160a01b0382811660008181526020819052604080822080548686166001600160a01b0319821681179092559151919094169392849290917f3134e8a2e6d97e929a7e54011ea5485d7d196dd5f0ba4d4ef95803e8e3fc257f9190a4610ae781836128ac866134b1565b6134ea565b6001600160a01b0382166128d857604051633904578f60e11b815260040160405180910390fd5b6000818152600560205260409020546001600160a01b03161561290e57604051632eb5f0c360e21b815260040160405180910390fd5b61291a600083836130c4565b60008181526005602052604080822080546001600160a01b0319166001600160a01b03861690811790915590518392907fddf252ad1be2c89b69c2b068fc378daa952ba7f163c4a11628f55a4df523b3ef908290a4611945600083836132f1565b600a80546001600160a01b038381166001600160a01b0319831681179093556040519116919082907f8be0079c531659141344cd1fd0a4f28419497f9722a3daafe3b4186f6b6457e090600090a35050565b6129d78282613627565b5050600891909155600980546001600160a01b0319166001600160a01b03909216919091179055565b80546000908015612a3157612a1a836128046001846152b9565b5464010000000090046001600160e01b03166110eb565b60009392505050565b816001600160a01b0316836001600160a01b031603612a6c576040516306f8139d60e11b815260040160405180910390fd5b6001600160a01b03838116600081815260076020908152604080832094871680845294825291829020805460ff191686151590811790915591519182527f17307eab39ab6107e8899845ad3d59bd9653f200f220920489ca2b5937696c31910160405180910390a3505050565b6000808060001985870985870292508281108382030391505080600003612b1357838281612b0957612b096153cc565b04925050506110eb565b838110612b3d57604051631dcf306360e21b815260048101829052602481018590526044016123a0565b600084868809600260036001881981018916988990049182028318808302840302808302840302808302840302808302840302808302840302918202909203026000889003889004909101858311909403939093029303949094049190911702949350505050565b612bb08484846125bf565b612bbc84848484613640565b610e87576040516336f57c1b60e11b815260040160405180910390fd5b604051609160f51b60208201526022810182905260609060009060420160405160208183030381529060405290506000612c128261373f565b90508481604051602001612c279291906153e2565b6040516020818303038152906040529250505092915050565b600f5460009060c083013503612c5b57506080810135612d11565b600e546001600160a01b03161561194557601054612d0e90608084013590612c8490600a6154f5565b600e54600f54604051635268657960e11b815260c08801356004820152602481019190915260a087013560448201526001600160a01b039091169063a4d0caf290606401602060405180830381865afa158015612ce5573d6000803e3d6000fd5b505050506040513d601f19601f82011682018060405250810190612d099190615117565b612ad9565b90505b6000601181612d286101a086016101808701614186565b6001600160a01b03168152602081019190915260400160009081205491508290612d5a6101a086016101808701614186565b6001600160a01b0316612d706020870187614186565b6001600160a01b031603612d875790820190612d8a565b50815b60006044612d9c6101e0880188614edb565b9050118015612de057506316c7dbff60e21b612dbc6101e0880188614edb565b612dcb91604491604091614f21565b612dd491614f4b565b6001600160e01b031916145b15612eb7576060612df56101e0880188614edb565b810190612e029190615501565b90955093508492505081159050612e855750600c54604051634228826f60e11b81523060048201526001600160a01b039091169063845104de90602401608060405180830381865afa158015612e5c573d6000803e3d6000fd5b505050506040513d601f19601f82011682018060405250810190612e8091906155d3565b606001515b15612e8f57600091505b805115612eb557612eb28482612ead6101a08b016101808c01614186565b6138d7565b93505b505b8215612fdb5780612edb57604051631b57826960e21b815260040160405180910390fd5b82820184811115612f4357612ef86101a088016101808901614186565b6040513381526001600160a01b0391909116908290878203907f2fb2733fb01b76e3290fa8b695d18e026ddd19c0a265ab90e95152e57da303369060200160405180910390a4612fa4565b80851115612fa457612f5d6101a088016101808901614186565b6040513381526001600160a01b0391909116908290818803907fe0e7c81cf67a96dd0e39bcf11521b1f4c0098cc1dbe8c30750a11d9ebfc3ed4d9060200160405180910390a45b8060116000612fbb6101a08b016101808c01614186565b6001600160a01b0316815260208101919091526040016000205550610cc7565b818414610cc757612ff46101a087016101808801614186565b6001600160a01b03168261300881876152b9565b6040513381527fe0e7c81cf67a96dd0e39bcf11521b1f4c0098cc1dbe8c30750a11d9ebfc3ed4d9060200160405180910390a481601160006130526101a08a016101808b01614186565b6001600160a01b03168152602081019190915260400160002055505050505050565b60006001600160e01b031982166380ac58cd60e01b14806130a557506001600160e01b03198216635b5e139f60e01b145b806109a157506301ffc9a760e01b6001600160e01b03198316146109a1565b6001600160a01b03831615610ae757600c5460405163b67cb04760e01b8152306004820152602481018390526000916001600160a01b03169063b67cb047906044016101c060405180830381865afa158015613124573d6000803e3d6000fd5b505050506040513d601f19601f820116820180604052508101906131489190615657565b90508061018001511561320d57600d546008546040516321d1336160e11b815260048101919091526000916001600160a01b0316906343a266c29060240161012060405180830381865afa1580156131a4573d6000803e3d6000fd5b505050506040513d601f19601f820116820180604052508101906131c891906152df565b90506001600160a01b038416158015906131ed575061010081015160f41c6001908116145b1561320b576040516318cdaf9760e01b815260040160405180910390fd5b505b600c546040516308ed6c0160e41b8152306004820152602481018490526000916001600160a01b031690638ed6c01090604401602060405180830381865afa15801561325d573d6000803e3d6000fd5b505050506040513d601f19601f82011682018060405250810190613281919061503c565b6001600160a01b031603610e8757600c54604051638cec7d3960e01b8152600481018490526001600160a01b03868116602483015290911690638cec7d3990604401600060405180830381600087803b1580156132dd57600080fd5b505af1158015610cc4573d6000803e3d6000fd5b600c5460405163b67cb04760e01b8152306004820152602481018390526000916001600160a01b03169063b67cb047906044016101c060405180830381865afa158015613342573d6000803e3d6000fd5b505050506040513d601f19601f820116820180604052508101906133669190615657565b600c5481516040516330b157e560e21b815260048101919091526001600160a01b038781166024830152868116604483015292935091169063c2c55f9490606401600060405180830381600087803b1580156133c157600080fd5b505af11580156133d5573d6000803e3d6000fd5b505050506133e584848484613a19565b610e87565b600063ffffffff82111561344f5760405162461bcd60e51b815260206004820152602660248201527f53616665436173743a2076616c756520646f65736e27742066697420696e203360448201526532206269747360d01b60648201526084016123a0565b5090565b60005b818310156134a957600061346a8484613a32565b60008781526020902090915063ffffffff86169082015463ffffffff161115613495578092506134a3565b6134a08160016152cc565b93505b50613456565b509392505050565b600c54604051631266aaaf60e31b81523060048201526001600160a01b0383811660248301526000921690639335557890604401611423565b816001600160a01b0316836001600160a01b03161415801561350c5750600081115b15610ae7576001600160a01b0383161561359a576001600160a01b0383166000908152600160205260408120819061354790613a4d85613a59565b91509150846001600160a01b03167fdec2bacdd2f05b59de34da9b523dff8be42e5e38e818c82fdb0bae774387a724838360405161358f929190918252602082015260400190565b60405180910390a250505b6001600160a01b03821615610ae7576001600160a01b038216600090815260016020526040812081906135d090613a9185613a59565b91509150836001600160a01b03167fdec2bacdd2f05b59de34da9b523dff8be42e5e38e818c82fdb0bae774387a7248383604051613618929190918252602082015260400190565b60405180910390a25050505050565b6003613633838261576e565b506004610ae7828261576e565b60006001600160a01b0384163b1561373757604051630a85bd0160e11b81526001600160a01b0385169063150b7a029061368490339089908890889060040161582d565b6020604051808303816000875af19250505080156136bf575060408051601f3d908101601f191682019092526136bc9181019061586a565b60015b61371d573d8080156136ed576040519150601f19603f3d011682016040523d82523d6000602084013e6136f2565b606091505b508051600003613715576040516336f57c1b60e11b815260040160405180910390fd5b805181602001fd5b6001600160e01b031916630a85bd0160e11b1490506125b7565b5060016125b7565b6060815160000361375e57505060408051600081526020810190915290565b60408051602e8082526105e08201909252600091602082016105c08036833701905050905060008160008151811061379857613798614be7565b60ff90921660209283029190910190910152825160019060005b818110156138b35760008682815181106137ce576137ce614be7565b016020015160f81c905060005b8460ff168110156138585760088682815181106137fa576137fa614be7565b602002602001015160ff16901b8261381291906152cc565b915061381f603a83615887565b86828151811061383157613831614be7565b60ff9092166020928302919091019091015261384e603a8361589b565b91506001016137db565b505b80156138aa5761386b603a82615887565b858560ff168151811061388057613880614be7565b60ff909216602092830291909101909101526001909301926138a3603a8261589b565b905061385a565b506001016137b2565b506138ce6138c96138c48585613a9d565b613b3c565b613bde565b95945050505050565b600c5460405163eaa19ab360e01b81526000916060916001600160a01b039091169063eaa19ab390613911908890889087906004016158af565b6000604051808303816000875af1158015613930573d6000803e3d6000fd5b505050506040513d6000823e601f3d908101601f1916820160405261395891908101906150b6565b81519093509091506000805b82811015613a0e5783818151811061397e5761397e614be7565b6020026020010151915061399286836128b1565b856001600160a01b03168782815181106139ae576139ae614be7565b602002602001015161ffff16837f598baf7bf150ca2f42be9e9f8f55e81d45f5715c3ff22bf46d697fabec7f31d68b336040516139fe9291909182526001600160a01b0316602082015260400190565b60405180910390a4600101613964565b505050509392505050565b608081015115610e8757610e8784848360800151613cb7565b6000613a41600284841861589b565b6110eb908484166152cc565b60006110eb82846152b9565b600080613a8485613a7f613a6c88612a00565b6001600160e01b0316868863ffffffff16565b613d27565b915091505b935093915050565b60006110eb82846152cc565b606060008260ff166001600160401b03811115613abc57613abc61436b565b604051908082528060200260200182016040528015613ae5578160200160208202803683370190505b50905060005b8360ff168110156134a957848181518110613b0857613b08614be7565b6020026020010151828281518110613b2257613b22614be7565b60ff90921660209283029190910190910152600101613aeb565b80516060906000816001600160401b03811115613b5b57613b5b61436b565b604051908082528060200260200182016040528015613b84578160200160208202803683370190505b50905060005b828110156134a957848160018751030381518110613baa57613baa614be7565b6020026020010151828281518110613bc457613bc4614be7565b60ff90921660209283029190910190910152600101613b8a565b80516060906000816001600160401b03811115613bfd57613bfd61436b565b6040519080825280601f01601f191660200182016040528015613c27576020820181803683370190505b50905060005b828110156134a9576040518060600160405280603a815260200161590d603a9139858281518110613c6057613c60614be7565b602002602001015160ff1681518110613c7b57613c7b614be7565b602001015160f81c60f81b828281518110613c9857613c98614be7565b60200101906001600160f81b031916908160001a905350600101613c2d565b6001600160a01b038316613cd657613cd36002613a9183613a59565b50505b6001600160a01b038216613cf557613cf26002613a4d83613a59565b50505b6001600160a01b03838116600090815260208190526040808220548584168352912054610ae7929182169116836134ea565b600080613d4584613d37436133ea565b613d4086613d5b565b613dc4565b6001600160e01b03918216969116945092505050565b60006001600160e01b0382111561344f5760405162461bcd60e51b815260206004820152602760248201527f53616665436173743a2076616c756520646f65736e27742066697420696e20326044820152663234206269747360c81b60648201526084016123a0565b825460009081908015613f0d576000613de2876128046001856152b9565b60408051808201909152905463ffffffff8082168084526401000000009092046001600160e01b031660208401529192509087161015613e645760405162461bcd60e51b815260206004820152601760248201527f436865636b706f696e743a20696e76616c6964206b657900000000000000000060448201526064016123a0565b805163ffffffff808816911603613ead5784613e85886128046001866152b9565b80546001600160e01b03929092166401000000000263ffffffff909216919091179055613efd565b6040805180820190915263ffffffff80881682526001600160e01b0380881660208085019182528b54600181018d5560008d81529190912094519151909216640100000000029216919091179101555b602001519250839150613a899050565b50506040805180820190915263ffffffff80851682526001600160e01b0380851660208085019182528854600181018a5560008a815291822095519251909316640100000000029190931617920191909155905081613a89565b6001600160e01b03198116811461126f57600080fd5b600060208284031215613f8f57600080fd5b81356110eb81613f67565b60005b83811015613fb5578181015183820152602001613f9d565b50506000910152565b60008151808452613fd6816020860160208601613f9a565b601f01601f19169290920160200192915050565b6020815260006110eb6020830184613fbe565b60006020828403121561400f57600080fd5b5035919050565b6001600160a01b038116811461126f57600080fd5b803561403681614016565b919050565b6000806040838503121561404e57600080fd5b823561405981614016565b946020939093013593505050565b60008083601f84011261407957600080fd5b5081356001600160401b0381111561409057600080fd5b6020830191508360208260051b8501011115610e2d57600080fd5b600080600080604085870312156140c157600080fd5b84356001600160401b03808211156140d857600080fd5b818701915087601f8301126140ec57600080fd5b8135818111156140fb57600080fd5b8860206101c08302850101111561411157600080fd5b60209283019650945090860135908082111561412c57600080fd5b5061413987828801614067565b95989497509550505050565b60008060006060848603121561415a57600080fd5b833561416581614016565b9250602084013561417581614016565b929592945050506040919091013590565b60006020828403121561419857600080fd5b81356110eb81614016565b600080604083850312156141b657600080fd5b50508035926020909101359150565b600080602083850312156141d857600080fd5b82356001600160401b03808211156141ef57600080fd5b818501915085601f83011261420357600080fd5b81358181111561421257600080fd5b8660208260061b850101111561422757600080fd5b60209290920196919550909350505050565b60006101e0828403121561424c57600080fd5b50919050565b60006020828403121561426457600080fd5b81356001600160401b0381111561427a57600080fd5b6125b784828501614239565b6000806020838503121561429957600080fd5b82356001600160401b038111156142af57600080fd5b6142bb85828601614067565b90969095509350505050565b6000806000604084860312156142dc57600080fd5b83356001600160401b038111156142f257600080fd5b6142fe86828701614067565b909450925050602084013561431281614016565b809150509250925092565b600081518084526020808501945080840160005b8381101561434d57815187529582019590820190600101614331565b509495945050505050565b6020815260006110eb602083018461431d565b634e487b7160e01b600052604160045260246000fd5b604051608081016001600160401b03811182821017156143a3576143a361436b565b60405290565b6040516101c081016001600160401b03811182821017156143a3576143a361436b565b60405161012081016001600160401b03811182821017156143a3576143a361436b565b604051601f8201601f191681016001600160401b03811182821017156144175761441761436b565b604052919050565b60006001600160401b038211156144385761443861436b565b5060051b60200190565b600082601f83011261445357600080fd5b813560206144686144638361441f565b6143ef565b82815260059290921b8401810191818101908684111561448757600080fd5b8286015b848110156144a2578035835291830191830161448b565b509695505050505050565b600080604083850312156144c057600080fd5b82356001600160401b03808211156144d757600080fd5b6144e386838701614442565b935060208501359150808211156144f957600080fd5b5061450685828601614239565b9150509250929050565b60006001600160401b038211156145295761452961436b565b50601f01601f191660200190565b600061454561446384614510565b905082815283838301111561455957600080fd5b828260208301376000602084830101529392505050565b600082601f83011261458157600080fd5b6110eb83833560208501614537565b80356affffffffffffffffffffff8116811461403657600080fd5b803564ffffffffff8116811461403657600080fd5b803561ffff8116811461403657600080fd5b803560ff8116811461403657600080fd5b801515811461126f57600080fd5b8035614036816145e3565b6000608080838503121561460f57600080fd5b614617614381565b915082356001600160401b0381111561462f57600080fd5b8301601f8101851361464057600080fd5b803560206146506144638361441f565b8281526101c0928302840182019282820191908985111561467057600080fd5b948301945b848610156147875780868b03121561468d5760008081fd5b6146956143a9565b61469e87614590565b81526146ab8588016145ab565b8582015260406146bc8189016145ab565b9082015260606146cd8882016145c0565b908201526146dc87890161402b565b8882015260a06146ed8189016145d2565b9082015260c06146fe88820161402b565b9082015260e0878101359082015261010061471a8189016145c0565b9082015261012061472c8882016145f1565b9082015261014061473e8882016145f1565b908201526101606147508882016145f1565b908201526101806147628882016145f1565b908201526101a06147748882016145f1565b9082015283529485019491830191614675565b508652508581013590850152505050604080830135908201526147ac6060830161402b565b606082015292915050565b6000608082840312156147c957600080fd5b6147d1614381565b905081356147de816145e3565b815260208201356147ee816145e3565b60208201526040820135614801816145e3565b604082015260608201356147ac816145e3565b60008060008060008060008060008060006101c08c8e03121561483657600080fd5b8b359a5061484660208d0161402b565b99506001600160401b038060408e0135111561486157600080fd5b6148718e60408f01358f01614570565b99508060608e0135111561488457600080fd5b6148948e60608f01358f01614570565b98506148a260808e0161402b565b97508060a08e013511156148b557600080fd5b6148c58e60a08f01358f01614570565b96506148d360c08e0161402b565b95508060e08e013511156148e657600080fd5b6148f68e60e08f01358f01614570565b9450806101008e0135111561490a57600080fd5b5061491c8d6101008e01358e016145fc565b925061492b6101208d0161402b565b915061493b8d6101408e016147b7565b90509295989b509295989b9093969950565b6000806020838503121561496057600080fd5b82356001600160401b038082111561497757600080fd5b818501915085601f83011261498b57600080fd5b81358181111561499a57600080fd5b86602082850101111561422757600080fd5b600080604083850312156149bf57600080fd5b82356149ca81614016565b915060208301356149da816145e3565b809150509250929050565b838152600060206060818401526149ff6060840186613fbe565b83810360408581019190915285518083528387019284019060005b81811015614a4857845180516001600160a01b03168452860151868401529385019391830191600101614a1a565b50909998505050505050505050565b60008060008060808587031215614a6d57600080fd5b8435614a7881614016565b93506020850135614a8881614016565b92506040850135915060608501356001600160401b03811115614aaa57600080fd5b8501601f81018713614abb57600080fd5b614aca87823560208401614537565b91505092959194509250565b600060208284031215614ae857600080fd5b81356001600160401b03811115614afe57600080fd5b82016101a081850312156110eb57600080fd5b600060208284031215614b2357600080fd5b81356001600160401b03811115614b3957600080fd5b820161020081850312156110eb57600080fd5b60008060408385031215614b5f57600080fd5b8235614b6a81614016565b915060208301356149da81614016565b600181811c90821680614b8e57607f821691505b60208210810361424c57634e487b7160e01b600052602260045260246000fd5b6020808252810182905260006001600160fb1b03831115614bce57600080fd5b8260051b80856040850137919091016040019392505050565b634e487b7160e01b600052603260045260246000fd5b614c1b82614c0a83614590565b6affffffffffffffffffffff169052565b614c27602082016145ab565b64ffffffffff166020830152614c3f604082016145ab565b64ffffffffff166040830152614c57606082016145c0565b61ffff166060830152614c6c6080820161402b565b6001600160a01b03166080830152614c8660a082016145d2565b60ff1660a0830152614c9a60c0820161402b565b6001600160a01b031660c083015260e08181013590830152610100614cc08183016145c0565b61ffff1690830152610120614cd68282016145f1565b151590830152610140614cea8282016145f1565b151590830152610160614cfe8282016145f1565b151590830152610180614d128282016145f1565b1515908301526101a0614d268282016145f1565b80151584830152610e87565b6020808252810182905260008360408301825b85811015614d6b57614d578284614bfd565b6101c0928301929190910190600101614d45565b5095945050505050565b600082601f830112614d8657600080fd5b81516020614d966144638361441f565b82815260059290921b84018101918181019086841115614db557600080fd5b8286015b848110156144a25780518352918301918301614db9565b600060208284031215614de257600080fd5b81516001600160401b03811115614df857600080fd5b6125b784828501614d75565b6101e08101614e138285614bfd565b6001600160a01b03929092166101c09190910152919050565b805161403681614016565b60008060408385031215614e4a57600080fd5b8251614e5581614016565b6020939093015192949293505050565b600060408284031215614e7757600080fd5b604051604081018181106001600160401b0382111715614e9957614e9961436b565b604052823581526020928301359281019290925250919050565b8051614036816145e3565b600060208284031215614ed057600080fd5b81516110eb816145e3565b6000808335601e19843603018112614ef257600080fd5b8301803591506001600160401b03821115614f0c57600080fd5b602001915036819003821315610e2d57600080fd5b60008085851115614f3157600080fd5b83861115614f3e57600080fd5b5050820193919092039150565b6001600160e01b03198135818116916004851015614f735780818660040360031b1b83161692505b505092915050565b600080600060608486031215614f9057600080fd5b833592506020840135614fa281613f67565b915060408401356001600160401b03811115614fbd57600080fd5b614fc986828701614442565b9150509250925092565b60008235603e19833603018112614fe957600080fd5b9190910192915050565b6000808335601e1984360301811261500a57600080fd5b8301803591506001600160401b0382111561502457600080fd5b6020019150600581901b3603821315610e2d57600080fd5b60006020828403121561504e57600080fd5b81516110eb81614016565b84815260606020808301829052908201849052600090859060808401835b8781101561509e5761ffff61508b856145c0565b1682529282019290820190600101615077565b50809350505050821515604083015295945050505050565b600080604083850312156150c957600080fd5b82516001600160401b038111156150df57600080fd5b6150eb85828601614d75565b925050602083015190509250929050565b60006020828403121561510e57600080fd5b6110eb826145c0565b60006020828403121561512957600080fd5b5051919050565b6001600160a01b03831681526040602082018190526000906125b79083018461431d565b602080825282518282018190526000919060409081850190868401855b8281101561525757815180516affffffffffffffffffffff1685528681015164ffffffffff9081168887015286820151168686015260608082015161ffff908116918701919091526080808301516001600160a01b039081169188019190915260a08084015160ff169088015260c0808401519091169087015260e080830151908701526101008083015190911690860152610120808201511515908601526101408082015115159086015261016080820151151590860152610180808201511515908601526101a0908101511515908501526101c09093019290850190600101615171565b5091979650505050505050565b60208152816020820152818360408301376000818301604090810191909152601f909201601f19160101919050565b8183823760009101908152919050565b634e487b7160e01b600052601160045260246000fd5b818103818111156109a1576109a16152a3565b808201808211156109a1576109a16152a3565b600061012082840312156152f257600080fd5b6152fa6143cc565b825181526020830151602082015260408301516040820152606083015160608201526080830151608082015260a083015160a082015260c083015160c082015261534660e08401614e2c565b60e0820152610100928301519281019290925250919050565b60006020828403121561537157600080fd5b81516001600160401b0381111561538757600080fd5b8201601f8101841361539857600080fd5b80516153a661446382614510565b8181528560208385010111156153bb57600080fd5b6138ce826020830160208601613f9a565b634e487b7160e01b600052601260045260246000fd5b600083516153f4818460208801613f9a565b835190830190615408818360208801613f9a565b01949350505050565b600181815b8085111561544c578160001904821115615432576154326152a3565b8085161561543f57918102915b93841c9390800290615416565b509250929050565b600082615463575060016109a1565b81615470575060006109a1565b81600181146154865760028114615490576154ac565b60019150506109a1565b60ff8411156154a1576154a16152a3565b50506001821b6109a1565b5060208310610133831016604e8410600b84101617156154cf575081810a6109a1565b6154d98383615411565b80600019048211156154ed576154ed6152a3565b029392505050565b60006110eb8383615454565b600080600080600060a0868803121561551957600080fd5b853594506020808701359450604087013561553381613f67565b93506060870135615543816145e3565b925060808701356001600160401b0381111561555e57600080fd5b8701601f8101891361556f57600080fd5b803561557d6144638261441f565b81815260059190911b8201830190838101908b83111561559c57600080fd5b928401925b828410156155c1576155b2846145c0565b825292840192908401906155a1565b80955050505050509295509295909350565b6000608082840312156155e557600080fd5b604051608081018181106001600160401b03821117156156075761560761436b565b6040528251615615816145e3565b81526020830151615625816145e3565b60208201526040830151615638816145e3565b6040820152606083015161564b816145e3565b60608201529392505050565b60006101c0828403121561566a57600080fd5b6156726143a9565b825181526020830151602082015260408301516040820152606083015160608201526080830151608082015260a083015160a08201526156b460c08401614e2c565b60c082015260e083015160e08201526101006156d1818501614e2c565b90820152610120838101519082015261014080840151908201526101606156f9818501614eb3565b9082015261018061570b848201614eb3565b908201526101a061571d848201614eb3565b908201529392505050565b601f821115610ae757600081815260208120601f850160051c8101602086101561574f5750805b601f850160051c820191505b81811015610cc75782815560010161575b565b81516001600160401b038111156157875761578761436b565b61579b816157958454614b7a565b84615728565b602080601f8311600181146157d057600084156157b85750858301515b600019600386901b1c1916600185901b178555610cc7565b600085815260208120601f198616915b828110156157ff578886015182559484019460019091019084016157e0565b508582101561581d5787850151600019600388901b60f8161c191681555b5050505050600190811b01905550565b6001600160a01b038581168252841660208201526040810183905260806060820181905260009061586090830184613fbe565b9695505050505050565b60006020828403121561587c57600080fd5b81516110eb81613f67565b600082615896576158966153cc565b500690565b6000826158aa576158aa6153cc565b500490565b6000606082018583526020606081850152818651808452608086019150828801935060005b818110156158f457845161ffff16835293830193918301916001016158d4565b5050809350505050821515604083015294935050505056fe31323334353637383941424344454647484a4b4c4d4e505152535455565758595a6162636465666768696a6b6d6e6f707172737475767778797aa264697066735822122030267d1f4b54847c6e0fa9205b15a2f0f63e2330b2bdf94aff42d96df204a2ce64736f6c63430008110033",
    "linkReferences": {}
  },
  "methodIdentifiers": {
    "adjustTiers((uint88,uint40,uint40,uint16,address,uint8,address,bytes32,uint16,bool,bool,bool,bool,bool)[],uint256[])": "14ea9b06",
    "approve(address,uint256)": "095ea7b3",
    "balanceOf(address)": "70a08231",
    "codeOrigin()": "1d153ca4",
    "contractURI()": "e8a3d485",
    "creditsOf(address)": "245a45b5",
    "delegate(address)": "5c19a95c",
    "delegates(address)": "587cde1e",
    "didPay((address,uint256,uint256,(address,uint256,uint256,uint256),(address,uint256,uint256,uint256),uint256,address,bool,string,bytes))": "da9ee8b7",
    "didRedeem((address,uint256,uint256,uint256,(address,uint256,uint256,uint256),(address,uint256,uint256,uint256),address,string,bytes))": "2b13c58f",
    "directory()": "c41c2f24",
    "firstOwnerOf(uint256)": "54c6d1f5",
    "fundingCycleStore()": "557e7155",
    "getApproved(uint256)": "081812fc",
    "getPastTotalSupply(uint256)": "8e539e8c",
    "getPastVotes(address,uint256)": "3a46b1a8",
    "getVotes(address)": "9ab24eb0",
    "initialize(uint256,address,string,string,address,string,address,string,((uint88,uint40,uint40,uint16,address,uint8,address,bytes32,uint16,bool,bool,bool,bool,bool)[],uint256,uint256,address),address,(bool,bool,bool,bool))": "9521e381",
    "isApprovedForAll(address,address)": "e985e9c5",
    "mintFor((uint16[],address)[])": "36c1a93b",
    "mintFor(uint16[],address)": "6ac6d941",
    "mintReservesFor((uint256,uint256)[])": "2a596e53",
    "mintReservesFor(uint256,uint256)": "aa4fb15b",
    "name()": "06fdde03",
    "owner()": "8da5cb5b",
    "ownerOf(uint256)": "6352211e",
    "payParams((address,address,(address,uint256,uint256,uint256),uint256,uint256,address,uint256,uint256,string,bytes))": "d46cf171",
    "prices()": "d3419bf3",
    "pricingCurrency()": "64640c1e",
    "pricingDecimals()": "4ecba625",
    "projectId()": "3fafa127",
    "redeemParams((address,address,uint256,uint256,uint256,uint256,uint256,(address,uint256,uint256,uint256),bool,uint256,string,bytes))": "a51cfd18",
    "redemptionWeightOf(uint256[],(address,address,uint256,uint256,uint256,uint256,uint256,(address,uint256,uint256,uint256),bool,uint256,string,bytes))": "7ba62bf9",
    "renounceOwnership()": "715018a6",
    "royaltyInfo(uint256,uint256)": "2a55205a",
    "safeTransferFrom(address,address,uint256)": "42842e0e",
    "safeTransferFrom(address,address,uint256,bytes)": "b88d4fde",
    "setApprovalForAll(address,bool)": "a22cb465",
    "setBaseUri(string)": "a0bcfc7f",
    "setContractUri(string)": "ccb4807b",
    "setDefaultReservedTokenBeneficiary(address)": "df487e26",
    "setEncodedIPFSUriOf(uint256,bytes32)": "525350ba",
    "setTokenUriResolver(address)": "2407497e",
    "store()": "975057e7",
    "supportsInterface(bytes4)": "01ffc9a7",
    "symbol()": "95d89b41",
    "tokenURI(uint256)": "c87b56dd",
    "totalRedemptionWeight((address,address,uint256,uint256,uint256,uint256,uint256,(address,uint256,uint256,uint256),bool,uint256,string,bytes))": "9494bf72",
    "transferFrom(address,address,uint256)": "23b872dd",
    "transferOwnership(address)": "f2fde38b"
  },
  "id": 0
}