{
  "abi": [
    {
      "inputs": [],
      "name": "ALEADY_MINTED",
      "type": "error"
    },
    {
      "inputs": [],
      "name": "APPROVAL_TO_CURRENT_OWNER",
      "type": "error"
    },
    {
      "inputs": [],
      "name": "APPROVE_TO_CALLER",
      "type": "error"
    },
    {
      "inputs": [],
      "name": "BLOCK_NOT_YET_MINED",
      "type": "error"
    },
    {
      "inputs": [],
      "name": "CALLER_NOT_OWNER_OR_APPROVED",
      "type": "error"
    },
    {
      "inputs": [],
      "name": "INCORRECT_OWNER",
      "type": "error"
    },
    {
      "inputs": [],
      "name": "INVALID",
      "type": "error"
    },
    {
      "inputs": [],
      "name": "INVALID_PAYMENT_EVENT",
      "type": "error"
    },
    {
      "inputs": [],
      "name": "INVALID_REDEMPTION_EVENT",
      "type": "error"
    },
    {
      "inputs": [],
      "name": "INVALID_REDEMPTION_METADATA",
      "type": "error"
    },
    {
      "inputs": [],
      "name": "INVALID_TOKEN_ID",
      "type": "error"
    },
    {
      "inputs": [],
      "name": "MINT_TO_ZERO",
      "type": "error"
    },
    {
      "inputs": [],
      "name": "NOT_AVAILABLE",
      "type": "error"
    },
    {
      "inputs": [],
      "name": "OVERSPENDING",
      "type": "error"
    },
    {
      "inputs": [
        {
          "internalType": "uint256",
          "name": "prod1",
          "type": "uint256"
        },
        {
          "internalType": "uint256",
          "name": "denominator",
          "type": "uint256"
        }
      ],
      "name": "PRBMath__MulDivOverflow",
      "type": "error"
    },
    {
      "inputs": [],
      "name": "PRICING_RESOLVER_CHANGES_PAUSED",
      "type": "error"
    },
    {
      "inputs": [],
      "name": "RESERVED_TOKEN_MINTING_PAUSED",
      "type": "error"
    },
    {
      "inputs": [],
      "name": "SIGNATURE_EXPIRED",
      "type": "error"
    },
    {
      "inputs": [],
      "name": "TRANSFERS_PAUSED",
      "type": "error"
    },
    {
      "inputs": [],
      "name": "TRANSFER_TO_NON_IMPLEMENTER",
      "type": "error"
    },
    {
      "inputs": [],
      "name": "TRANSFER_TO_ZERO_ADDRESS",
      "type": "error"
    },
    {
      "inputs": [],
      "name": "UNAUTHORIZED",
      "type": "error"
    },
    {
      "inputs": [],
      "name": "UNEXPECTED_TOKEN_REDEEMED",
      "type": "error"
    },
    {
      "anonymous": false,
      "inputs": [
        {
          "indexed": true,
          "internalType": "uint256",
          "name": "tierId",
          "type": "uint256"
        },
        {
          "components": [
            {
              "internalType": "uint256",
              "name": "contributionFloor",
              "type": "uint256"
            },
            {
              "internalType": "uint256",
              "name": "lockedUntil",
              "type": "uint256"
            },
            {
              "internalType": "uint256",
              "name": "initialQuantity",
              "type": "uint256"
            },
            {
              "internalType": "uint256",
              "name": "votingUnits",
              "type": "uint256"
            },
            {
              "internalType": "uint256",
              "name": "reservedRate",
              "type": "uint256"
            },
            {
              "internalType": "address",
              "name": "reservedTokenBeneficiary",
              "type": "address"
            },
            {
              "internalType": "bytes32",
              "name": "encodedIPFSUri",
              "type": "bytes32"
            },
            {
              "internalType": "bool",
              "name": "allowManualMint",
              "type": "bool"
            },
            {
              "internalType": "bool",
              "name": "shouldUseBeneficiaryAsDefault",
              "type": "bool"
            }
          ],
          "indexed": false,
          "internalType": "struct JB721TierParams",
          "name": "data",
          "type": "tuple"
        },
        {
          "indexed": false,
          "internalType": "address",
          "name": "caller",
          "type": "address"
        }
      ],
      "name": "AddTier",
      "type": "event"
    },
    {
      "anonymous": false,
      "inputs": [
        {
          "indexed": true,
          "internalType": "address",
          "name": "owner",
          "type": "address"
        },
        {
          "indexed": true,
          "internalType": "address",
          "name": "approved",
          "type": "address"
        },
        {
          "indexed": true,
          "internalType": "uint256",
          "name": "tokenId",
          "type": "uint256"
        }
      ],
      "name": "Approval",
      "type": "event"
    },
    {
      "anonymous": false,
      "inputs": [
        {
          "indexed": true,
          "internalType": "address",
          "name": "owner",
          "type": "address"
        },
        {
          "indexed": true,
          "internalType": "address",
          "name": "operator",
          "type": "address"
        },
        {
          "indexed": false,
          "internalType": "bool",
          "name": "approved",
          "type": "bool"
        }
      ],
      "name": "ApprovalForAll",
      "type": "event"
    },
    {
      "anonymous": false,
      "inputs": [
        {
          "indexed": true,
          "internalType": "address",
          "name": "delegator",
          "type": "address"
        },
        {
          "indexed": true,
          "internalType": "address",
          "name": "fromDelegate",
          "type": "address"
        },
        {
          "indexed": true,
          "internalType": "address",
          "name": "toDelegate",
          "type": "address"
        }
      ],
      "name": "DelegateChanged",
      "type": "event"
    },
    {
      "anonymous": false,
      "inputs": [
        {
          "indexed": true,
          "internalType": "address",
          "name": "delegate",
          "type": "address"
        },
        {
          "indexed": false,
          "internalType": "uint256",
          "name": "previousBalance",
          "type": "uint256"
        },
        {
          "indexed": false,
          "internalType": "uint256",
          "name": "newBalance",
          "type": "uint256"
        }
      ],
      "name": "DelegateVotesChanged",
      "type": "event"
    },
    {
      "anonymous": false,
      "inputs": [
        {
          "indexed": true,
          "internalType": "uint256",
          "name": "tokenId",
          "type": "uint256"
        },
        {
          "indexed": true,
          "internalType": "uint256",
          "name": "tierId",
          "type": "uint256"
        },
        {
          "indexed": true,
          "internalType": "address",
          "name": "beneficiary",
          "type": "address"
        },
        {
          "indexed": false,
          "internalType": "uint256",
          "name": "totalAmountContributed",
          "type": "uint256"
        },
        {
          "indexed": false,
          "internalType": "address",
          "name": "caller",
          "type": "address"
        }
      ],
      "name": "Mint",
      "type": "event"
    },
    {
      "anonymous": false,
      "inputs": [
        {
          "indexed": true,
          "internalType": "uint256",
          "name": "tokenId",
          "type": "uint256"
        },
        {
          "indexed": true,
          "internalType": "uint256",
          "name": "tierId",
          "type": "uint256"
        },
        {
          "indexed": true,
          "internalType": "address",
          "name": "beneficiary",
          "type": "address"
        },
        {
          "indexed": false,
          "internalType": "address",
          "name": "caller",
          "type": "address"
        }
      ],
      "name": "MintReservedToken",
      "type": "event"
    },
    {
      "anonymous": false,
      "inputs": [
        {
          "indexed": true,
          "internalType": "address",
          "name": "previousOwner",
          "type": "address"
        },
        {
          "indexed": true,
          "internalType": "address",
          "name": "newOwner",
          "type": "address"
        }
      ],
      "name": "OwnershipTransferred",
      "type": "event"
    },
    {
      "anonymous": false,
      "inputs": [
        {
          "indexed": true,
          "internalType": "uint256",
          "name": "tierId",
          "type": "uint256"
        },
        {
          "indexed": false,
          "internalType": "address",
          "name": "caller",
          "type": "address"
        }
      ],
      "name": "RemoveTier",
      "type": "event"
    },
    {
      "anonymous": false,
      "inputs": [
        {
          "indexed": true,
          "internalType": "string",
          "name": "baseUri",
          "type": "string"
        },
        {
          "indexed": false,
          "internalType": "address",
          "name": "caller",
          "type": "address"
        }
      ],
      "name": "SetBaseUri",
      "type": "event"
    },
    {
      "anonymous": false,
      "inputs": [
        {
          "indexed": true,
          "internalType": "string",
          "name": "contractUri",
          "type": "string"
        },
        {
          "indexed": false,
          "internalType": "address",
          "name": "caller",
          "type": "address"
        }
      ],
      "name": "SetContractUri",
      "type": "event"
    },
    {
      "anonymous": false,
      "inputs": [
        {
          "indexed": true,
          "internalType": "address",
          "name": "beneficiary",
          "type": "address"
        },
        {
          "indexed": false,
          "internalType": "address",
          "name": "caller",
          "type": "address"
        }
      ],
      "name": "SetDefaultReservedTokenBeneficiary",
      "type": "event"
    },
    {
      "anonymous": false,
      "inputs": [
        {
          "indexed": true,
          "internalType": "contract IJBTokenUriResolver",
          "name": "newResolver",
          "type": "address"
        },
        {
          "indexed": false,
          "internalType": "address",
          "name": "caller",
          "type": "address"
        }
      ],
      "name": "SetTokenUriResolver",
      "type": "event"
    },
    {
      "anonymous": false,
      "inputs": [
        {
          "indexed": true,
          "internalType": "address",
          "name": "from",
          "type": "address"
        },
        {
          "indexed": true,
          "internalType": "address",
          "name": "to",
          "type": "address"
        },
        {
          "indexed": true,
          "internalType": "uint256",
          "name": "tokenId",
          "type": "uint256"
        }
      ],
      "name": "Transfer",
      "type": "event"
    },
    {
      "inputs": [
        {
          "components": [
            {
              "internalType": "uint256",
              "name": "contributionFloor",
              "type": "uint256"
            },
            {
              "internalType": "uint256",
              "name": "lockedUntil",
              "type": "uint256"
            },
            {
              "internalType": "uint256",
              "name": "initialQuantity",
              "type": "uint256"
            },
            {
              "internalType": "uint256",
              "name": "votingUnits",
              "type": "uint256"
            },
            {
              "internalType": "uint256",
              "name": "reservedRate",
              "type": "uint256"
            },
            {
              "internalType": "address",
              "name": "reservedTokenBeneficiary",
              "type": "address"
            },
            {
              "internalType": "bytes32",
              "name": "encodedIPFSUri",
              "type": "bytes32"
            },
            {
              "internalType": "bool",
              "name": "allowManualMint",
              "type": "bool"
            },
            {
              "internalType": "bool",
              "name": "shouldUseBeneficiaryAsDefault",
              "type": "bool"
            }
          ],
          "internalType": "struct JB721TierParams[]",
          "name": "_tiersToAdd",
          "type": "tuple[]"
        },
        {
          "internalType": "uint256[]",
          "name": "_tierIdsToRemove",
          "type": "uint256[]"
        }
      ],
      "name": "adjustTiers",
      "outputs": [],
      "stateMutability": "nonpayable",
      "type": "function"
    },
    {
      "inputs": [
        {
          "internalType": "address",
          "name": "to",
          "type": "address"
        },
        {
          "internalType": "uint256",
          "name": "tokenId",
          "type": "uint256"
        }
      ],
      "name": "approve",
      "outputs": [],
      "stateMutability": "nonpayable",
      "type": "function"
    },
    {
      "inputs": [
        {
          "internalType": "address",
          "name": "_owner",
          "type": "address"
        }
      ],
      "name": "balanceOf",
      "outputs": [
        {
          "internalType": "uint256",
          "name": "balance",
          "type": "uint256"
        }
      ],
      "stateMutability": "view",
      "type": "function"
    },
    {
      "inputs": [],
      "name": "codeOrigin",
      "outputs": [
        {
          "internalType": "address",
          "name": "",
          "type": "address"
        }
      ],
      "stateMutability": "view",
      "type": "function"
    },
    {
      "inputs": [],
      "name": "contractURI",
      "outputs": [
        {
          "internalType": "string",
          "name": "",
          "type": "string"
        }
      ],
      "stateMutability": "view",
      "type": "function"
    },
    {
      "inputs": [
        {
          "internalType": "address",
          "name": "",
          "type": "address"
        }
      ],
      "name": "creditsOf",
      "outputs": [
        {
          "internalType": "uint256",
          "name": "",
          "type": "uint256"
        }
      ],
      "stateMutability": "view",
      "type": "function"
    },
    {
      "inputs": [
        {
          "internalType": "address",
          "name": "delegatee",
          "type": "address"
        }
      ],
      "name": "delegate",
      "outputs": [],
      "stateMutability": "nonpayable",
      "type": "function"
    },
    {
      "inputs": [
        {
          "internalType": "address",
          "name": "account",
          "type": "address"
        }
      ],
      "name": "delegates",
      "outputs": [
        {
          "internalType": "address",
          "name": "",
          "type": "address"
        }
      ],
      "stateMutability": "view",
      "type": "function"
    },
    {
      "inputs": [
        {
          "components": [
            {
              "internalType": "address",
              "name": "payer",
              "type": "address"
            },
            {
              "internalType": "uint256",
              "name": "projectId",
              "type": "uint256"
            },
            {
              "internalType": "uint256",
              "name": "currentFundingCycleConfiguration",
              "type": "uint256"
            },
            {
              "components": [
                {
                  "internalType": "address",
                  "name": "token",
                  "type": "address"
                },
                {
                  "internalType": "uint256",
                  "name": "value",
                  "type": "uint256"
                },
                {
                  "internalType": "uint256",
                  "name": "decimals",
                  "type": "uint256"
                },
                {
                  "internalType": "uint256",
                  "name": "currency",
                  "type": "uint256"
                }
              ],
              "internalType": "struct JBTokenAmount",
              "name": "amount",
              "type": "tuple"
            },
            {
              "components": [
                {
                  "internalType": "address",
                  "name": "token",
                  "type": "address"
                },
                {
                  "internalType": "uint256",
                  "name": "value",
                  "type": "uint256"
                },
                {
                  "internalType": "uint256",
                  "name": "decimals",
                  "type": "uint256"
                },
                {
                  "internalType": "uint256",
                  "name": "currency",
                  "type": "uint256"
                }
              ],
              "internalType": "struct JBTokenAmount",
              "name": "forwardedAmount",
              "type": "tuple"
            },
            {
              "internalType": "uint256",
              "name": "projectTokenCount",
              "type": "uint256"
            },
            {
              "internalType": "address",
              "name": "beneficiary",
              "type": "address"
            },
            {
              "internalType": "bool",
              "name": "preferClaimedTokens",
              "type": "bool"
            },
            {
              "internalType": "string",
              "name": "memo",
              "type": "string"
            },
            {
              "internalType": "bytes",
              "name": "metadata",
              "type": "bytes"
            }
          ],
          "internalType": "struct JBDidPayData",
          "name": "_data",
          "type": "tuple"
        }
      ],
      "name": "didPay",
      "outputs": [],
      "stateMutability": "payable",
      "type": "function"
    },
    {
      "inputs": [
        {
          "components": [
            {
              "internalType": "address",
              "name": "holder",
              "type": "address"
            },
            {
              "internalType": "uint256",
              "name": "projectId",
              "type": "uint256"
            },
            {
              "internalType": "uint256",
              "name": "currentFundingCycleConfiguration",
              "type": "uint256"
            },
            {
              "internalType": "uint256",
              "name": "projectTokenCount",
              "type": "uint256"
            },
            {
              "components": [
                {
                  "internalType": "address",
                  "name": "token",
                  "type": "address"
                },
                {
                  "internalType": "uint256",
                  "name": "value",
                  "type": "uint256"
                },
                {
                  "internalType": "uint256",
                  "name": "decimals",
                  "type": "uint256"
                },
                {
                  "internalType": "uint256",
                  "name": "currency",
                  "type": "uint256"
                }
              ],
              "internalType": "struct JBTokenAmount",
              "name": "reclaimedAmount",
              "type": "tuple"
            },
            {
              "components": [
                {
                  "internalType": "address",
                  "name": "token",
                  "type": "address"
                },
                {
                  "internalType": "uint256",
                  "name": "value",
                  "type": "uint256"
                },
                {
                  "internalType": "uint256",
                  "name": "decimals",
                  "type": "uint256"
                },
                {
                  "internalType": "uint256",
                  "name": "currency",
                  "type": "uint256"
                }
              ],
              "internalType": "struct JBTokenAmount",
              "name": "forwardedAmount",
              "type": "tuple"
            },
            {
              "internalType": "address payable",
              "name": "beneficiary",
              "type": "address"
            },
            {
              "internalType": "string",
              "name": "memo",
              "type": "string"
            },
            {
              "internalType": "bytes",
              "name": "metadata",
              "type": "bytes"
            }
          ],
          "internalType": "struct JBDidRedeemData",
          "name": "_data",
          "type": "tuple"
        }
      ],
      "name": "didRedeem",
      "outputs": [],
      "stateMutability": "payable",
      "type": "function"
    },
    {
      "inputs": [],
      "name": "directory",
      "outputs": [
        {
          "internalType": "contract IJBDirectory",
          "name": "",
          "type": "address"
        }
      ],
      "stateMutability": "view",
      "type": "function"
    },
    {
      "inputs": [
        {
          "internalType": "uint256",
          "name": "_tokenId",
          "type": "uint256"
        }
      ],
      "name": "firstOwnerOf",
      "outputs": [
        {
          "internalType": "address",
          "name": "",
          "type": "address"
        }
      ],
      "stateMutability": "view",
      "type": "function"
    },
    {
      "inputs": [],
      "name": "fundingCycleStore",
      "outputs": [
        {
          "internalType": "contract IJBFundingCycleStore",
          "name": "",
          "type": "address"
        }
      ],
      "stateMutability": "view",
      "type": "function"
    },
    {
      "inputs": [
        {
          "internalType": "uint256",
          "name": "tokenId",
          "type": "uint256"
        }
      ],
      "name": "getApproved",
      "outputs": [
        {
          "internalType": "address",
          "name": "",
          "type": "address"
        }
      ],
      "stateMutability": "view",
      "type": "function"
    },
    {
      "inputs": [
        {
          "internalType": "uint256",
          "name": "blockNumber",
          "type": "uint256"
        }
      ],
      "name": "getPastTotalSupply",
      "outputs": [
        {
          "internalType": "uint256",
          "name": "",
          "type": "uint256"
        }
      ],
      "stateMutability": "view",
      "type": "function"
    },
    {
      "inputs": [
        {
          "internalType": "address",
          "name": "account",
          "type": "address"
        },
        {
          "internalType": "uint256",
          "name": "blockNumber",
          "type": "uint256"
        }
      ],
      "name": "getPastVotes",
      "outputs": [
        {
          "internalType": "uint256",
          "name": "",
          "type": "uint256"
        }
      ],
      "stateMutability": "view",
      "type": "function"
    },
    {
      "inputs": [
        {
          "internalType": "address",
          "name": "account",
          "type": "address"
        }
      ],
      "name": "getVotes",
      "outputs": [
        {
          "internalType": "uint256",
          "name": "",
          "type": "uint256"
        }
      ],
      "stateMutability": "view",
      "type": "function"
    },
    {
      "inputs": [
        {
          "internalType": "uint256",
          "name": "_projectId",
          "type": "uint256"
        },
        {
          "internalType": "contract IJBDirectory",
          "name": "_directory",
          "type": "address"
        },
        {
          "internalType": "string",
          "name": "_name",
          "type": "string"
        },
        {
          "internalType": "string",
          "name": "_symbol",
          "type": "string"
        },
        {
          "internalType": "contract IJBFundingCycleStore",
          "name": "_fundingCycleStore",
          "type": "address"
        },
        {
          "internalType": "string",
          "name": "_baseUri",
          "type": "string"
        },
        {
          "internalType": "contract IJBTokenUriResolver",
          "name": "_tokenUriResolver",
          "type": "address"
        },
        {
          "internalType": "string",
          "name": "_contractUri",
          "type": "string"
        },
        {
          "components": [
            {
              "components": [
                {
                  "internalType": "uint256",
                  "name": "contributionFloor",
                  "type": "uint256"
                },
                {
                  "internalType": "uint256",
                  "name": "lockedUntil",
                  "type": "uint256"
                },
                {
                  "internalType": "uint256",
                  "name": "initialQuantity",
                  "type": "uint256"
                },
                {
                  "internalType": "uint256",
                  "name": "votingUnits",
                  "type": "uint256"
                },
                {
                  "internalType": "uint256",
                  "name": "reservedRate",
                  "type": "uint256"
                },
                {
                  "internalType": "address",
                  "name": "reservedTokenBeneficiary",
                  "type": "address"
                },
                {
                  "internalType": "bytes32",
                  "name": "encodedIPFSUri",
                  "type": "bytes32"
                },
                {
                  "internalType": "bool",
                  "name": "allowManualMint",
                  "type": "bool"
                },
                {
                  "internalType": "bool",
                  "name": "shouldUseBeneficiaryAsDefault",
                  "type": "bool"
                }
              ],
              "internalType": "struct JB721TierParams[]",
              "name": "tiers",
              "type": "tuple[]"
            },
            {
              "internalType": "uint256",
              "name": "currency",
              "type": "uint256"
            },
            {
              "internalType": "uint256",
              "name": "decimals",
              "type": "uint256"
            },
            {
              "internalType": "contract IJBPrices",
              "name": "prices",
              "type": "address"
            }
          ],
          "internalType": "struct JB721PricingParams",
          "name": "_pricing",
          "type": "tuple"
        },
        {
          "internalType": "contract IJBTiered721DelegateStore",
          "name": "_store",
          "type": "address"
        },
        {
          "components": [
            {
              "internalType": "bool",
              "name": "lockReservedTokenChanges",
              "type": "bool"
            },
            {
              "internalType": "bool",
              "name": "lockVotingUnitChanges",
              "type": "bool"
            },
            {
              "internalType": "bool",
              "name": "lockManualMintingChanges",
              "type": "bool"
            },
            {
              "internalType": "bool",
              "name": "pausable",
              "type": "bool"
            }
          ],
          "internalType": "struct JBTiered721Flags",
          "name": "_flags",
          "type": "tuple"
        }
      ],
      "name": "initialize",
      "outputs": [],
      "stateMutability": "nonpayable",
      "type": "function"
    },
    {
      "inputs": [
        {
          "internalType": "address",
          "name": "owner",
          "type": "address"
        },
        {
          "internalType": "address",
          "name": "operator",
          "type": "address"
        }
      ],
      "name": "isApprovedForAll",
      "outputs": [
        {
          "internalType": "bool",
          "name": "",
          "type": "bool"
        }
      ],
      "stateMutability": "view",
      "type": "function"
    },
    {
      "inputs": [
        {
          "components": [
            {
              "internalType": "uint16[]",
              "name": "tierIds",
              "type": "uint16[]"
            },
            {
              "internalType": "address",
              "name": "beneficiary",
              "type": "address"
            }
          ],
          "internalType": "struct JBTiered721MintForTiersData[]",
          "name": "_mintForTiersData",
          "type": "tuple[]"
        }
      ],
      "name": "mintFor",
      "outputs": [],
      "stateMutability": "nonpayable",
      "type": "function"
    },
    {
      "inputs": [
        {
          "internalType": "uint16[]",
          "name": "_tierIds",
          "type": "uint16[]"
        },
        {
          "internalType": "address",
          "name": "_beneficiary",
          "type": "address"
        }
      ],
      "name": "mintFor",
      "outputs": [
        {
          "internalType": "uint256[]",
          "name": "tokenIds",
          "type": "uint256[]"
        }
      ],
      "stateMutability": "nonpayable",
      "type": "function"
    },
    {
      "inputs": [
        {
          "components": [
            {
              "internalType": "uint256",
              "name": "tierId",
              "type": "uint256"
            },
            {
              "internalType": "uint256",
              "name": "count",
              "type": "uint256"
            }
          ],
          "internalType": "struct JBTiered721MintReservesForTiersData[]",
          "name": "_mintReservesForTiersData",
          "type": "tuple[]"
        }
      ],
      "name": "mintReservesFor",
      "outputs": [],
      "stateMutability": "nonpayable",
      "type": "function"
    },
    {
      "inputs": [
        {
          "internalType": "uint256",
          "name": "_tierId",
          "type": "uint256"
        },
        {
          "internalType": "uint256",
          "name": "_count",
          "type": "uint256"
        }
      ],
      "name": "mintReservesFor",
      "outputs": [],
      "stateMutability": "nonpayable",
      "type": "function"
    },
    {
      "inputs": [],
      "name": "name",
      "outputs": [
        {
          "internalType": "string",
          "name": "",
          "type": "string"
        }
      ],
      "stateMutability": "view",
      "type": "function"
    },
    {
      "inputs": [],
      "name": "owner",
      "outputs": [
        {
          "internalType": "address",
          "name": "",
          "type": "address"
        }
      ],
      "stateMutability": "view",
      "type": "function"
    },
    {
      "inputs": [
        {
          "internalType": "uint256",
          "name": "tokenId",
          "type": "uint256"
        }
      ],
      "name": "ownerOf",
      "outputs": [
        {
          "internalType": "address",
          "name": "",
          "type": "address"
        }
      ],
      "stateMutability": "view",
      "type": "function"
    },
    {
      "inputs": [
        {
          "components": [
            {
              "internalType": "contract IJBPaymentTerminal",
              "name": "terminal",
              "type": "address"
            },
            {
              "internalType": "address",
              "name": "payer",
              "type": "address"
            },
            {
              "components": [
                {
                  "internalType": "address",
                  "name": "token",
                  "type": "address"
                },
                {
                  "internalType": "uint256",
                  "name": "value",
                  "type": "uint256"
                },
                {
                  "internalType": "uint256",
                  "name": "decimals",
                  "type": "uint256"
                },
                {
                  "internalType": "uint256",
                  "name": "currency",
                  "type": "uint256"
                }
              ],
              "internalType": "struct JBTokenAmount",
              "name": "amount",
              "type": "tuple"
            },
            {
              "internalType": "uint256",
              "name": "projectId",
              "type": "uint256"
            },
            {
              "internalType": "uint256",
              "name": "currentFundingCycleConfiguration",
              "type": "uint256"
            },
            {
              "internalType": "address",
              "name": "beneficiary",
              "type": "address"
            },
            {
              "internalType": "uint256",
              "name": "weight",
              "type": "uint256"
            },
            {
              "internalType": "uint256",
              "name": "reservedRate",
              "type": "uint256"
            },
            {
              "internalType": "string",
              "name": "memo",
              "type": "string"
            },
            {
              "internalType": "bytes",
              "name": "metadata",
              "type": "bytes"
            }
          ],
          "internalType": "struct JBPayParamsData",
          "name": "_data",
          "type": "tuple"
        }
      ],
      "name": "payParams",
      "outputs": [
        {
          "internalType": "uint256",
          "name": "weight",
          "type": "uint256"
        },
        {
          "internalType": "string",
          "name": "memo",
          "type": "string"
        },
        {
          "components": [
            {
              "internalType": "contract IJBPayDelegate",
              "name": "delegate",
              "type": "address"
            },
            {
              "internalType": "uint256",
              "name": "amount",
              "type": "uint256"
            }
          ],
          "internalType": "struct JBPayDelegateAllocation[]",
          "name": "delegateAllocations",
          "type": "tuple[]"
        }
      ],
      "stateMutability": "view",
      "type": "function"
    },
    {
      "inputs": [],
      "name": "prices",
      "outputs": [
        {
          "internalType": "contract IJBPrices",
          "name": "",
          "type": "address"
        }
      ],
      "stateMutability": "view",
      "type": "function"
    },
    {
      "inputs": [],
      "name": "pricingCurrency",
      "outputs": [
        {
          "internalType": "uint256",
          "name": "",
          "type": "uint256"
        }
      ],
      "stateMutability": "view",
      "type": "function"
    },
    {
      "inputs": [],
      "name": "pricingDecimals",
      "outputs": [
        {
          "internalType": "uint256",
          "name": "",
          "type": "uint256"
        }
      ],
      "stateMutability": "view",
      "type": "function"
    },
    {
      "inputs": [],
      "name": "projectId",
      "outputs": [
        {
          "internalType": "uint256",
          "name": "",
          "type": "uint256"
        }
      ],
      "stateMutability": "view",
      "type": "function"
    },
    {
      "inputs": [
        {
          "components": [
            {
              "internalType": "contract IJBPaymentTerminal",
              "name": "terminal",
              "type": "address"
            },
            {
              "internalType": "address",
              "name": "holder",
              "type": "address"
            },
            {
              "internalType": "uint256",
              "name": "projectId",
              "type": "uint256"
            },
            {
              "internalType": "uint256",
              "name": "currentFundingCycleConfiguration",
              "type": "uint256"
            },
            {
              "internalType": "uint256",
              "name": "tokenCount",
              "type": "uint256"
            },
            {
              "internalType": "uint256",
              "name": "totalSupply",
              "type": "uint256"
            },
            {
              "internalType": "uint256",
              "name": "overflow",
              "type": "uint256"
            },
            {
              "components": [
                {
                  "internalType": "address",
                  "name": "token",
                  "type": "address"
                },
                {
                  "internalType": "uint256",
                  "name": "value",
                  "type": "uint256"
                },
                {
                  "internalType": "uint256",
                  "name": "decimals",
                  "type": "uint256"
                },
                {
                  "internalType": "uint256",
                  "name": "currency",
                  "type": "uint256"
                }
              ],
              "internalType": "struct JBTokenAmount",
              "name": "reclaimAmount",
              "type": "tuple"
            },
            {
              "internalType": "bool",
              "name": "useTotalOverflow",
              "type": "bool"
            },
            {
              "internalType": "uint256",
              "name": "redemptionRate",
              "type": "uint256"
            },
            {
              "internalType": "string",
              "name": "memo",
              "type": "string"
            },
            {
              "internalType": "bytes",
              "name": "metadata",
              "type": "bytes"
            }
          ],
          "internalType": "struct JBRedeemParamsData",
          "name": "_data",
          "type": "tuple"
        }
      ],
      "name": "redeemParams",
      "outputs": [
        {
          "internalType": "uint256",
          "name": "reclaimAmount",
          "type": "uint256"
        },
        {
          "internalType": "string",
          "name": "memo",
          "type": "string"
        },
        {
          "components": [
            {
              "internalType": "contract IJBRedemptionDelegate",
              "name": "delegate",
              "type": "address"
            },
            {
              "internalType": "uint256",
              "name": "amount",
              "type": "uint256"
            }
          ],
          "internalType": "struct JBRedemptionDelegateAllocation[]",
          "name": "delegateAllocations",
          "type": "tuple[]"
        }
      ],
      "stateMutability": "view",
      "type": "function"
    },
    {
      "inputs": [],
      "name": "renounceOwnership",
      "outputs": [],
      "stateMutability": "nonpayable",
      "type": "function"
    },
    {
      "inputs": [
        {
          "internalType": "address",
          "name": "from",
          "type": "address"
        },
        {
          "internalType": "address",
          "name": "to",
          "type": "address"
        },
        {
          "internalType": "uint256",
          "name": "tokenId",
          "type": "uint256"
        }
      ],
      "name": "safeTransferFrom",
      "outputs": [],
      "stateMutability": "nonpayable",
      "type": "function"
    },
    {
      "inputs": [
        {
          "internalType": "address",
          "name": "from",
          "type": "address"
        },
        {
          "internalType": "address",
          "name": "to",
          "type": "address"
        },
        {
          "internalType": "uint256",
          "name": "tokenId",
          "type": "uint256"
        },
        {
          "internalType": "bytes",
          "name": "data",
          "type": "bytes"
        }
      ],
      "name": "safeTransferFrom",
      "outputs": [],
      "stateMutability": "nonpayable",
      "type": "function"
    },
    {
      "inputs": [
        {
          "internalType": "address",
          "name": "operator",
          "type": "address"
        },
        {
          "internalType": "bool",
          "name": "approved",
          "type": "bool"
        }
      ],
      "name": "setApprovalForAll",
      "outputs": [],
      "stateMutability": "nonpayable",
      "type": "function"
    },
    {
      "inputs": [
        {
          "internalType": "string",
          "name": "_baseUri",
          "type": "string"
        }
      ],
      "name": "setBaseUri",
      "outputs": [],
      "stateMutability": "nonpayable",
      "type": "function"
    },
    {
      "inputs": [
        {
          "internalType": "string",
          "name": "_contractUri",
          "type": "string"
        }
      ],
      "name": "setContractUri",
      "outputs": [],
      "stateMutability": "nonpayable",
      "type": "function"
    },
    {
      "inputs": [
        {
          "internalType": "address",
          "name": "_beneficiary",
          "type": "address"
        }
      ],
      "name": "setDefaultReservedTokenBeneficiary",
      "outputs": [],
      "stateMutability": "nonpayable",
      "type": "function"
    },
    {
      "inputs": [
        {
          "internalType": "contract IJBTokenUriResolver",
          "name": "_tokenUriResolver",
          "type": "address"
        }
      ],
      "name": "setTokenUriResolver",
      "outputs": [],
      "stateMutability": "nonpayable",
      "type": "function"
    },
    {
      "inputs": [],
      "name": "store",
      "outputs": [
        {
          "internalType": "contract IJBTiered721DelegateStore",
          "name": "",
          "type": "address"
        }
      ],
      "stateMutability": "view",
      "type": "function"
    },
    {
      "inputs": [
        {
          "internalType": "bytes4",
          "name": "_interfaceId",
          "type": "bytes4"
        }
      ],
      "name": "supportsInterface",
      "outputs": [
        {
          "internalType": "bool",
          "name": "",
          "type": "bool"
        }
      ],
      "stateMutability": "view",
      "type": "function"
    },
    {
      "inputs": [],
      "name": "symbol",
      "outputs": [
        {
          "internalType": "string",
          "name": "",
          "type": "string"
        }
      ],
      "stateMutability": "view",
      "type": "function"
    },
    {
      "inputs": [
        {
          "internalType": "uint256",
          "name": "_tokenId",
          "type": "uint256"
        }
      ],
      "name": "tokenURI",
      "outputs": [
        {
          "internalType": "string",
          "name": "",
          "type": "string"
        }
      ],
      "stateMutability": "view",
      "type": "function"
    },
    {
      "inputs": [
        {
          "internalType": "address",
          "name": "from",
          "type": "address"
        },
        {
          "internalType": "address",
          "name": "to",
          "type": "address"
        },
        {
          "internalType": "uint256",
          "name": "tokenId",
          "type": "uint256"
        }
      ],
      "name": "transferFrom",
      "outputs": [],
      "stateMutability": "nonpayable",
      "type": "function"
    },
    {
      "inputs": [
        {
          "internalType": "address",
          "name": "newOwner",
          "type": "address"
        }
      ],
      "name": "transferOwnership",
      "outputs": [],
      "stateMutability": "nonpayable",
      "type": "function"
    }
  ],
  "bytecode": {
    "object": "0x60806040523480156200001157600080fd5b506200001d3362000035565b600b80546001600160a01b0319163017905562000087565b600a80546001600160a01b038381166001600160a01b0319831681179093556040519116919082907f8be0079c531659141344cd1fd0a4f28419497f9722a3daafe3b4186f6b6457e090600090a35050565b61501d80620000976000396000f3fe60806040526004361061027d5760003560e01c806370a082311161014f578063b88d4fde116100c1578063da9ee8b71161007a578063da9ee8b7146107c0578063df487e26146107d3578063dfedb3af146107f3578063e8a3d48514610813578063e985e9c514610828578063f2fde38b1461087157600080fd5b8063b88d4fde14610700578063c41c2f2414610720578063c87b56dd14610740578063ccb4807b14610760578063d3419bf314610780578063d46cf171146107a057600080fd5b8063975057e711610113578063975057e7146106315780639ab24eb014610651578063a0bcfc7f14610671578063a22cb46514610691578063a51cfd18146106b1578063aa4fb15b146106e057600080fd5b806370a08231146105a9578063715018a6146105c95780638da5cb5b146105de5780638e539e8c146105fc57806395d89b411461061c57600080fd5b806336c1a93b116101f3578063557e7155116101ac578063557e7155146104cd578063587cde1e146104ed5780635c19a95c146105265780636352211e1461054657806364640c1e146105665780636ac6d9411461057c57600080fd5b806336c1a93b146104215780633a46b1a8146104415780633fafa1271461046157806342842e0e146104775780634ecba6251461049757806354c6d1f5146104ad57600080fd5b8063211eb00111610245578063211eb0011461035357806323b872dd146103735780632407497e14610393578063245a45b5146103b35780632a596e53146103ee5780632b13c58f1461040e57600080fd5b806301ffc9a71461028257806306fdde03146102b7578063081812fc146102d9578063095ea7b3146103115780631d153ca414610333575b600080fd5b34801561028e57600080fd5b506102a261029d3660046138b1565b610891565b60405190151581526020015b60405180910390f35b3480156102c357600080fd5b506102cc6108bc565b6040516102ae919061391e565b3480156102e557600080fd5b506102f96102f4366004613931565b61094e565b6040516001600160a01b0390911681526020016102ae565b34801561031d57600080fd5b5061033161032c36600461396f565b610975565b005b34801561033f57600080fd5b50600b546102f9906001600160a01b031681565b34801561035f57600080fd5b5061033161036e36600461399b565b610a01565b34801561037f57600080fd5b5061033161038e366004613a63565b610be4565b34801561039f57600080fd5b506103316103ae366004613aa4565b610c16565b3480156103bf57600080fd5b506103e06103ce366004613aa4565b60116020526000908152604090205481565b6040519081526020016102ae565b3480156103fa57600080fd5b50610331610409366004613bba565b610cbf565b61033161041c366004613c8d565b610d05565b34801561042d57600080fd5b5061033161043c366004613d38565b610ee2565b34801561044d57600080fd5b506103e061045c36600461396f565b610f31565b34801561046d57600080fd5b506103e060085481565b34801561048357600080fd5b50610331610492366004613a63565b610f5a565b3480156104a357600080fd5b506103e060105481565b3480156104b957600080fd5b506102f96104c8366004613931565b610f75565b3480156104d957600080fd5b50600d546102f9906001600160a01b031681565b3480156104f957600080fd5b506102f9610508366004613aa4565b6001600160a01b039081166000908152602081905260409020541690565b34801561053257600080fd5b50610331610541366004613aa4565b611021565b34801561055257600080fd5b506102f9610561366004613931565b61102e565b34801561057257600080fd5b506103e0600f5481565b34801561058857600080fd5b5061059c610597366004613e32565b611064565b6040516102ae9190613ebe565b3480156105b557600080fd5b506103e06105c4366004613aa4565b6111aa565b3480156105d557600080fd5b50610331611220565b3480156105ea57600080fd5b50600a546001600160a01b03166102f9565b34801561060857600080fd5b506103e0610617366004613931565b611234565b34801561062857600080fd5b506102cc611261565b34801561063d57600080fd5b50600c546102f9906001600160a01b031681565b34801561065d57600080fd5b506103e061066c366004613aa4565b611270565b34801561067d57600080fd5b5061033161068c366004613f51565b611291565b34801561069d57600080fd5b506103316106ac366004613f9e565b611340565b3480156106bd57600080fd5b506106d16106cc366004613c8d565b61134f565b6040516102ae93929190613fcc565b3480156106ec57600080fd5b506103316106fb36600461403e565b611610565b34801561070c57600080fd5b5061033161071b366004614060565b61182d565b34801561072c57600080fd5b506009546102f9906001600160a01b031681565b34801561074c57600080fd5b506102cc61075b366004613931565b611860565b34801561076c57600080fd5b5061033161077b3660046140df565b611ab7565b34801561078c57600080fd5b50600e546102f9906001600160a01b031681565b3480156107ac57600080fd5b506106d16107bb366004614150565b611b71565b6103316107ce36600461418b565b611c54565b3480156107df57600080fd5b506103316107ee366004613aa4565b611d0e565b3480156107ff57600080fd5b5061033161080e366004614361565b611db0565b34801561081f57600080fd5b506102cc6120ae565b34801561083457600080fd5b506102a261084336600461449a565b6001600160a01b03918216600090815260076020908152604080832093909416825291909152205460ff1690565b34801561087d57600080fd5b5061033161088c366004613aa4565b612124565b60006001600160e01b03198216634340b9e160e01b14806108b657506108b68261219f565b92915050565b6060600380546108cb906144c8565b80601f01602080910402602001604051908101604052809291908181526020018280546108f7906144c8565b80156109445780601f1061091957610100808354040283529160200191610944565b820191906000526020600020905b81548152906001019060200180831161092757829003601f168201915b5050505050905090565b600061095982612215565b506000908152600660205260409020546001600160a01b031690565b60006109808261102e565b9050806001600160a01b0316836001600160a01b0316036109b45760405163133f8be960e01b815260040160405180910390fd5b336001600160a01b038216148015906109d457506109d28133610843565b155b156109f25760405163e5fa0e3560e01b815260040160405180910390fd5b6109fc838361224a565b505050565b610a096122b8565b82818015610ad957600c546040516320512ba160e01b81526001600160a01b03909116906320512ba190610a4390879087906004016144fc565b600060405180830381600087803b158015610a5d57600080fd5b505af1158015610a71573d6000803e3d6000fd5b5050505060005b81811015610ad757848482818110610a9257610a92614535565b60405133815260209182029390930135927f832d89d991be5351d793c20faf4b7dd44f8aa9ce39e3cb160c6317de6fbba72992500160405180910390a2600101610a78565b505b8115610bdc57600c5460405163d0cf48a560e01b81526000916001600160a01b03169063d0cf48a590610b12908a908a906004016145cc565b6000604051808303816000875af1158015610b31573d6000803e3d6000fd5b505050506040513d6000823e601f3d908101601f19168201604052610b59919081019061466a565b905060005b83811015610bd957818181518110610b7857610b78614535565b60200260200101517f9c1ee455d7c9ab291045babfeef5ef20cea4d096dc64c4b2b29977289b4b0641898984818110610bb357610bb3614535565b9050610120020133604051610bc992919061469e565b60405180910390a2600101610b5e565b50505b505050505050565b610bee3382612312565b610c0b5760405163e5fa0e3560e01b815260040160405180910390fd5b6109fc838383612391565b610c1e6122b8565b600c5460405163036129cb60e61b81526001600160a01b0383811660048301529091169063d84a72c090602401600060405180830381600087803b158015610c6557600080fd5b505af1158015610c79573d6000803e3d6000fd5b50506040513381526001600160a01b03841692507fe7784d93cfbfa4408e19577e6cc0436f4dbb51214b70e100905dfce9def88c1691506020015b60405180910390a250565b805160005b818110156109fc576000838281518110610ce057610ce0614535565b60200260200101519050610cfc81600001518260200151611610565b50600101610cc4565b34151580610d875750600954600854604051636e49181f60e01b815260048101919091523360248201526001600160a01b0390911690636e49181f90604401602060405180830381865afa158015610d61573d6000803e3d6000fd5b505050506040513d601f19601f82011682018060405250810190610d8591906146d1565b155b80610d985750600854816020013514155b15610db657604051633efca5c360e11b815260040160405180910390fd5b6004610dc66101c08301836146ee565b90501080610e0a575063b3bcbb7960e01b610de56101c08301836146ee565b610df491600491600091614734565b610dfd9161475e565b6001600160e01b03191614155b15610e2857604051632a84050f60e01b815260040160405180910390fd5b6000610e386101c08301836146ee565b810190610e45919061478e565b805190925090506000805b82811015610ed257838181518110610e6a57610e6a614535565b60200260200101519150846000016020810190610e879190613aa4565b6000838152600560205260409020546001600160a01b03908116911614610ec15760405163075fd2b160e01b815260040160405180910390fd5b610eca8261246a565b600101610e50565b50610edc836124eb565b50505050565b610eea6122b8565b805160005b818110156109fc576000838281518110610f0b57610f0b614535565b60200260200101519050610f2781600001518260200151611064565b5050600101610eef565b6001600160a01b0382166000908152600160205260408120610f539083612550565b9392505050565b6109fc8383836040518060200160405280600081525061182d565b600c546040516308ed6c0160e41b81523060048201526024810183905260009182916001600160a01b0390911690638ed6c01090604401602060405180830381865afa158015610fc9573d6000803e3d6000fd5b505050506040513d601f19601f82011682018060405250810190610fed919061483e565b90506001600160a01b038116156110045792915050565b50506000908152600560205260409020546001600160a01b031690565b61102b338261265f565b50565b6000818152600560205260408120546001600160a01b0316806108b65760405163b49aa3b560e01b815260040160405180910390fd5b606061106e6122b8565b600c5460405163eaa19ab360e01b81526001600160a01b039091169063eaa19ab3906110a59060001990879060019060040161485b565b6000604051808303816000875af11580156110c4573d6000803e3d6000fd5b505050506040513d6000823e601f3d908101601f191682016040526110ec91908101906148b8565b5083519091506000805b828110156111a15783818151811061111057611110614535565b6020026020010151915061112485836126d1565b846001600160a01b031686828151811061114057611140614535565b602002602001015161ffff16837f598baf7bf150ca2f42be9e9f8f55e81d45f5715c3ff22bf46d697fabec7f31d66000336040516111919291909182526001600160a01b0316602082015260400190565b60405180910390a46001016110f6565b50505092915050565b600c54604051633de222bb60e21b81523060048201526001600160a01b038381166024830152600092169063f7888aec906044015b602060405180830381865afa1580156111fc573d6000803e3d6000fd5b505050506040513d601f19601f820116820180604052508101906108b691906148fe565b6112286122b8565b611232600061279b565b565b6000438210611256576040516305b5e09b60e51b815260040160405180910390fd5b6108b6600283612550565b6060600480546108cb906144c8565b6001600160a01b03811660009081526001602052604081206108b6906127ed565b6112996122b8565b600c546040516331315e5960e11b81526001600160a01b0390911690636262bcb2906112c990849060040161391e565b600060405180830381600087803b1580156112e357600080fd5b505af11580156112f7573d6000803e3d6000fd5b50505050806040516113099190614917565b604051908190038120338252907f7bc9110d5de090dd59e07912d2b93a5a27ac70a60c8d8e324db4f9ee8b8b5c1390602001610cb4565b61134b338383612849565b5050565b6000606080608084013515611377576040516309f82f1b60e31b815260040160405180910390fd5b60046113876101c08601866146ee565b905010806113cb575063b3bcbb7960e01b6113a66101c08601866146ee565b6113b591600491600091614734565b6113be9161475e565b6001600160e01b03191614155b156113e957604051632a84050f60e01b815260040160405180910390fd5b60408051600180825281830190925290816020015b60408051808201909152600080825260208201528152602001906001900390816113fe5790505090506040518060400160405280306001600160a01b0316815260200160008152508160008151811061145957611459614535565b60200260200101819052508361018001356000036114c95760006114816101a08601866146ee565b8382828080601f016020809104026020016040519081016040528093929190818152602001838380828437600092019190915250969950919750919550611609945050505050565b60006114d96101c08601866146ee565b8101906114e6919061478e565b91505060006114f4826128e8565b9050600061150061291b565b905060006115138860c001358484612988565b90506127108861018001350361157e57806115326101a08a018a6146ee565b8782828080601f016020809104026020016040519081016040528093929190818152602001838380828437600092019190915250969d50919b5091995061160998505050505050505050565b6115b48161159d856115976101808d0135612710614949565b86612988565b6115ac906101808c013561495c565b612710612988565b6115c26101a08a018a6146ee565b8782828080601f016020809104026020016040519081016040528093929190818152602001838380828437600092019190915250969d50919b509199505050505050505050505b9193909250565b600d546008546040516321d1336160e11b815260048101919091526000916001600160a01b0316906343a266c29060240161012060405180830381865afa15801561165f573d6000803e3d6000fd5b505050506040513d601f19601f82011682018060405250810190611683919061496f565b61010081015190915060f51c6001908116036116b257604051631d2c125760e31b815260040160405180910390fd5b600c54604051635d53f40760e11b815260048101859052602481018490526000916001600160a01b03169063baa7e80e906044016000604051808303816000875af1158015611705573d6000803e3d6000fd5b505050506040513d6000823e601f3d908101601f1916820160405261172d919081019061466a565b600c546040516304db994760e21b8152306004820152602481018790529192506000916001600160a01b039091169063136e651c90604401602060405180830381865afa158015611782573d6000803e3d6000fd5b505050506040513d601f19601f820116820180604052508101906117a6919061483e565b90506000805b85811015611824578381815181106117c6576117c6614535565b602002602001015191506117da83836126d1565b6040513381526001600160a01b03841690889084907f031e1988c95a91ec4d655ff63a8f87a80bc9daf28d95ae10ee08c0022cfb5c8b9060200160405180910390a46001016117ac565b50505050505050565b6118373383612312565b6118545760405163e5fa0e3560e01b815260040160405180910390fd5b610edc84848484612a54565b6000818152600560205260409020546060906001600160a01b031661189357505060408051602081019091526000815290565b600c54604051630fab094760e01b81523060048201526000916001600160a01b031690630fab094790602401602060405180830381865afa1580156118dc573d6000803e3d6000fd5b505050506040513d601f19601f82011682018060405250810190611900919061483e565b90506001600160a01b0381161561197e57604051636d02a25560e11b8152600481018490526001600160a01b0382169063da0544aa90602401600060405180830381865afa158015611956573d6000803e3d6000fd5b505050506040513d6000823e601f3d908101601f19168201604052610f5391908101906149ef565b600c5460405163f682eeaf60e01b815230600482015273__$2e464bbf4a8803569df10b07372aceee57$__9163030cecc7916001600160a01b039091169063f682eeaf90602401600060405180830381865afa1580156119e2573d6000803e3d6000fd5b505050506040513d6000823e601f3d908101601f19168201604052611a0a91908101906149ef565b600c54604051630c8df17160e41b8152306004820152602481018890526001600160a01b039091169063c8df171090604401602060405180830381865afa158015611a59573d6000803e3d6000fd5b505050506040513d601f19601f82011682018060405250810190611a7d91906148fe565b6040518363ffffffff1660e01b8152600401611a9a929190614a65565b600060405180830381865af4158015611956573d6000803e3d6000fd5b611abf6122b8565b600c5460405163d67b78fd60e01b81526001600160a01b039091169063d67b78fd90611af19085908590600401614a87565b600060405180830381600087803b158015611b0b57600080fd5b505af1158015611b1f573d6000803e3d6000fd5b505050508181604051611b33929190614ab6565b604051908190038120338252907fd36dc0c1a06103fdcaf15f3f6fb797d1a97997514c78de073640c8b5005454b89060200160405180910390a25050565b610120810135606080611b886101608501856146ee565b8080601f01602080910402602001604051908101604052809392919081815260200183838082843760009201919091525092945060019250611bc8915050565b604051908082528060200260200182016040528015611c0d57816020015b6040805180820190915260008082526020820152815260200190600190039081611be65790505b5090506040518060400160405280306001600160a01b03168152602001600081525081600081518110611c4257611c42614535565b60200260200101819052509193909250565b34151580611cd65750600954600854604051636e49181f60e01b815260048101919091523360248201526001600160a01b0390911690636e49181f90604401602060405180830381865afa158015611cb0573d6000803e3d6000fd5b505050506040513d601f19601f82011682018060405250810190611cd491906146d1565b155b80611ce75750600854816020013514155b15611d05576040516331c57b1b60e21b815260040160405180910390fd5b61102b81612a88565b611d166122b8565b600c546040516317161f7d60e01b81526001600160a01b038381166004830152909116906317161f7d90602401600060405180830381600087803b158015611d5d57600080fd5b505af1158015611d71573d6000803e3d6000fd5b50506040513381526001600160a01b03841692507fab0014d4c7a642a02a31b303a318908c22b0fb2001f107278fc6076b4c671b659150602001610cb4565b600b546001600160a01b03163003611dc757600080fd5b600c546001600160a01b031615611ddd57600080fd5b611de98b8b8b8b612d3b565b600d80546001600160a01b03808a166001600160a01b031992831617909255600c80548584169083161790556020850151600f5560408501516010556060850151600e8054919093169116179055855115611e9d576040516331315e5960e11b81526001600160a01b03831690636262bcb290611e6a90899060040161391e565b600060405180830381600087803b158015611e8457600080fd5b505af1158015611e98573d6000803e3d6000fd5b505050505b835115611f035760405163d67b78fd60e01b81526001600160a01b0383169063d67b78fd90611ed090879060040161391e565b600060405180830381600087803b158015611eea57600080fd5b505af1158015611efe573d6000803e3d6000fd5b505050505b6001600160a01b03851615611f6e5760405163036129cb60e61b81526001600160a01b03868116600483015283169063d84a72c090602401600060405180830381600087803b158015611f5557600080fd5b505af1158015611f69573d6000803e3d6000fd5b505050505b82515115611fec57825160405163d0cf48a560e01b81526001600160a01b0384169163d0cf48a591611fa39190600401614ac6565b6000604051808303816000875af1158015611fc2573d6000803e3d6000fd5b505050506040513d6000823e601f3d908101601f19168201604052611fea919081019061466a565b505b805180611ffa575080602001515b80612006575080604001515b80612012575080606001515b1561209857604080516365c13f1960e11b815282511515600482015260208301511515602482015290820151151560448201526060820151151560648201526001600160a01b0383169063cb827e3290608401600060405180830381600087803b15801561207f57600080fd5b505af1158015612093573d6000803e3d6000fd5b505050505b6120a13361279b565b5050505050505050505050565b600c54604051630155619b60e71b81523060048201526060916001600160a01b03169063aab0cd8090602401600060405180830381865afa1580156120f7573d6000803e3d6000fd5b505050506040513d6000823e601f3d908101601f1916820160405261211f91908101906149ef565b905090565b61212c6122b8565b6001600160a01b0381166121965760405162461bcd60e51b815260206004820152602660248201527f4f776e61626c653a206e6577206f776e657220697320746865207a65726f206160448201526564647265737360d01b60648201526084015b60405180910390fd5b61102b8161279b565b60006001600160e01b0319821663b3bcbb7960e01b14806121d057506001600160e01b031982166371700c6960e01b145b806121eb57506001600160e01b0319821663da9ee8b760e01b145b8061220657506001600160e01b03198216632b13c58f60e01b145b806108b657506108b682612d6e565b6000818152600560205260409020546001600160a01b031661102b5760405163b49aa3b560e01b815260040160405180910390fd5b600081815260066020526040902080546001600160a01b0319166001600160a01b038416908117909155819061227f8261102e565b6001600160a01b03167f8c5be1e5ebec7d5bd14f71427d1e84f3dd0314c0f7b2291e5b200ac8c7c3b92560405160405180910390a45050565b600a546001600160a01b031633146112325760405162461bcd60e51b815260206004820181905260248201527f4f776e61626c653a2063616c6c6572206973206e6f7420746865206f776e6572604482015260640161218d565b60008061231e8361102e565b9050806001600160a01b0316846001600160a01b0316148061236557506001600160a01b0380821660009081526007602090815260408083209388168352929052205460ff165b806123895750836001600160a01b031661237e8461094e565b6001600160a01b0316145b949350505050565b826001600160a01b03166123a48261102e565b6001600160a01b0316146123cb5760405163a195bc5360e01b815260040160405180910390fd5b6001600160a01b0382166123f257604051632c95542760e01b815260040160405180910390fd5b6123fd838383612dbe565b61240860008261224a565b60008181526005602052604080822080546001600160a01b0319166001600160a01b0386811691821790925591518493918716917fddf252ad1be2c89b69c2b068fc378daa952ba7f163c4a11628f55a4df523b3ef91a46109fc838383612fde565b60006124758261102e565b905061248381600084612dbe565b61248e60008361224a565b60008281526005602052604080822080546001600160a01b0319169055518391906001600160a01b038416907fddf252ad1be2c89b69c2b068fc378daa952ba7f163c4a11628f55a4df523b3ef908390a461134b81600084612fde565b600c546040516386bc2be360e01b81526001600160a01b03909116906386bc2be39061251b908490600401613ebe565b600060405180830381600087803b15801561253557600080fd5b505af1158015612549573d6000803e3d6000fd5b5050505050565b60004382106125a15760405162461bcd60e51b815260206004820181905260248201527f436865636b706f696e74733a20626c6f636b206e6f7420796574206d696e6564604482015260640161218d565b825460005b818110156126065760006125ba82846130d7565b9050848660000182815481106125d2576125d2614535565b60009182526020909120015463ffffffff1611156125f257809250612600565b6125fd81600161495c565b91505b506125a6565b811561264a5784612618600184614949565b8154811061262857612628614535565b60009182526020909120015464010000000090046001600160e01b031661264d565b60005b6001600160e01b031695945050505050565b6001600160a01b0382811660008181526020819052604080822080548686166001600160a01b0319821681179092559151919094169392849290917f3134e8a2e6d97e929a7e54011ea5485d7d196dd5f0ba4d4ef95803e8e3fc257f9190a46109fc81836126cc866130f2565b61312b565b6001600160a01b0382166126f857604051633904578f60e11b815260040160405180910390fd5b6000818152600560205260409020546001600160a01b03161561272e57604051632eb5f0c360e21b815260040160405180910390fd5b61273a60008383612dbe565b60008181526005602052604080822080546001600160a01b0319166001600160a01b03861690811790915590518392907fddf252ad1be2c89b69c2b068fc378daa952ba7f163c4a11628f55a4df523b3ef908290a461134b60008383612fde565b600a80546001600160a01b038381166001600160a01b0319831681179093556040519116919082907f8be0079c531659141344cd1fd0a4f28419497f9722a3daafe3b4186f6b6457e090600090a35050565b805460009080156128365782612804600183614949565b8154811061281457612814614535565b60009182526020909120015464010000000090046001600160e01b0316612839565b60005b6001600160e01b03169392505050565b816001600160a01b0316836001600160a01b03160361287b576040516306f8139d60e11b815260040160405180910390fd5b6001600160a01b03838116600081815260076020908152604080832094871680845294825291829020805460ff191686151590811790915591519182527f17307eab39ab6107e8899845ad3d59bd9653f200f220920489ca2b5937696c31910160405180910390a3505050565b600c5460405163051330b560e21b81526000916001600160a01b03169063144cc2d4906111df9030908690600401614b6b565b600c54604051631572f24960e11b81523060048201526000916001600160a01b031690632ae5e49290602401602060405180830381865afa158015612964573d6000803e3d6000fd5b505050506040513d601f19601f8201168201806040525081019061211f91906148fe565b60008080600019858709858702925082811083820303915050806000036129c2578382816129b8576129b8614b8f565b0492505050610f53565b8381106129ec57604051631dcf306360e21b8152600481018290526024810185905260440161218d565b600084868809600260036001881981018916988990049182028318808302840302808302840302808302840302808302840302808302840302918202909203026000889003889004909101858311909403939093029303949094049190911702949350505050565b612a5f848484612391565b612a6b84848484613268565b610edc576040516336f57c1b60e11b815260040160405180910390fd5b600f5460009060c083013503612aa357506080810135612b59565b600e546001600160a01b03161561134b57601054612b5690608084013590612acc90600a614c89565b600e54600f54604051635268657960e11b815260c08801356004820152602481019190915260a087013560448201526001600160a01b039091169063a4d0caf290606401602060405180830381865afa158015612b2d573d6000803e3d6000fd5b505050506040513d601f19601f82011682018060405250810190612b5191906148fe565b612988565b90505b6000601181612b706101a086016101808701613aa4565b6001600160a01b0316815260208101919091526040016000908120549150612b98828461495c565b90506000806024612bad6101e08801886146ee565b9050118015612bf1575063b3bcbb7960e01b612bcd6101e08801886146ee565b612bdc91602491602091614734565b612be59161475e565b6001600160e01b031916145b15612c5b5760006060612c086101e08901896146ee565b810190612c159190614c95565b919850965090945092505082159050612c32575050505050505050565b805115612c5857612c558582612c506101a08c016101808d01613aa4565b61336a565b94505b50505b8215612cfc57612c7d83612c776101a089016101808a01613aa4565b846134ac565b92508215612cda578015612ca457604051631b57826960e21b815260040160405180910390fd5b8260116000612cbb6101a08a016101808b01613aa4565b6001600160a01b03168152602081019190915260400160002055610bdc565b8315612cf7576000601181612cbb6101a08a016101808b01613aa4565b610bdc565b8315610bdc576000601181612d196101a08a016101808b01613aa4565b6001600160a01b03168152602081019190915260400160002055505050505050565b612d4582826135b6565b5050600891909155600980546001600160a01b0319166001600160a01b03909216919091179055565b60006001600160e01b031982166380ac58cd60e01b1480612d9f57506001600160e01b03198216635b5e139f60e01b145b806108b657506301ffc9a760e01b6001600160e01b03198316146108b6565b6001600160a01b038316156109fc57600c54604051634228826f60e11b81523060048201526001600160a01b039091169063845104de90602401608060405180830381865afa158015612e15573d6000803e3d6000fd5b505050506040513d601f19601f82011682018060405250810190612e399190614d24565b6060015115612efa57600d546008546040516321d1336160e11b815260048101919091526000916001600160a01b0316906343a266c29060240161012060405180830381865afa158015612e91573d6000803e3d6000fd5b505050506040513d601f19601f82011682018060405250810190612eb5919061496f565b90506001600160a01b03831615801590612eda575061010081015160f41c6001908116145b15612ef8576040516318cdaf9760e01b815260040160405180910390fd5b505b600c546040516308ed6c0160e41b8152306004820152602481018390526000916001600160a01b031690638ed6c01090604401602060405180830381865afa158015612f4a573d6000803e3d6000fd5b505050506040513d601f19601f82011682018060405250810190612f6e919061483e565b6001600160a01b0316036109fc57600c54604051638cec7d3960e01b8152600481018390526001600160a01b03858116602483015290911690638cec7d3990604401600060405180830381600087803b158015612fca57600080fd5b505af1158015611824573d6000803e3d6000fd5b600c5460405163b67cb04760e01b8152306004820152602481018390526000916001600160a01b03169063b67cb0479060440161014060405180830381865afa15801561302f573d6000803e3d6000fd5b505050506040513d601f19601f820116820180604052508101906130539190614da8565b600c5481516040516330b157e560e21b815260048101919091526001600160a01b038781166024830152868116604483015292935091169063c2c55f9490606401600060405180830381600087803b1580156130ae57600080fd5b505af11580156130c2573d6000803e3d6000fd5b505050506130d2848484846135cf565b610edc565b60006130e66002848418614e38565b610f539084841661495c565b600c54604051631266aaaf60e31b81523060048201526001600160a01b03838116602483015260009216906393355578906044016111df565b816001600160a01b0316836001600160a01b03161415801561314d5750600081115b156109fc576001600160a01b038316156131db576001600160a01b03831660009081526001602052604081208190613188906135e8856135f4565b91509150846001600160a01b03167fdec2bacdd2f05b59de34da9b523dff8be42e5e38e818c82fdb0bae774387a72483836040516131d0929190918252602082015260400190565b60405180910390a250505b6001600160a01b038216156109fc576001600160a01b0382166000908152600160205260408120819061321190613622856135f4565b91509150836001600160a01b03167fdec2bacdd2f05b59de34da9b523dff8be42e5e38e818c82fdb0bae774387a7248383604051613259929190918252602082015260400190565b60405180910390a25050505050565b60006001600160a01b0384163b1561335f57604051630a85bd0160e11b81526001600160a01b0385169063150b7a02906132ac903390899088908890600401614e5a565b6020604051808303816000875af19250505080156132e7575060408051601f3d908101601f191682019092526132e491810190614e97565b60015b613345573d808015613315576040519150601f19603f3d011682016040523d82523d6000602084013e61331a565b606091505b50805160000361333d576040516336f57c1b60e11b815260040160405180910390fd5b805181602001fd5b6001600160e01b031916630a85bd0160e11b149050612389565b506001949350505050565b600c5460405163eaa19ab360e01b81526000916060916001600160a01b039091169063eaa19ab3906133a49088908890879060040161485b565b6000604051808303816000875af11580156133c3573d6000803e3d6000fd5b505050506040513d6000823e601f3d908101601f191682016040526133eb91908101906148b8565b81519093509091506000805b828110156134a15783818151811061341157613411614535565b6020026020010151915061342586836126d1565b856001600160a01b031687828151811061344157613441614535565b602002602001015161ffff16837f598baf7bf150ca2f42be9e9f8f55e81d45f5715c3ff22bf46d697fabec7f31d68b336040516134919291909182526001600160a01b0316602082015260400190565b60405180910390a46001016133f7565b505050509392505050565b600c5460405163879791f360e01b815260048101859052600091829182916001600160a01b03169063879791f3906024016060604051808303816000875af11580156134fc573d6000803e3d6000fd5b505050506040513d601f19601f820116820180604052508101906135209190614eb4565b94509092509050600082900361355657831561354f57604051630e5313df60e41b815260040160405180910390fd5b5050610f53565b61356085836126d1565b6001600160a01b03851681837f598baf7bf150ca2f42be9e9f8f55e81d45f5715c3ff22bf46d697fabec7f31d6613597878b614949565b604080519182523360208301520160405180910390a450509392505050565b60036135c28382614f28565b5060046109fc8282614f28565b60a081015115610edc57610edc84848360a0015161362e565b6000610f538284614949565b60008061361685613611613607886127ed565b868863ffffffff16565b61369e565b91509150935093915050565b6000610f53828461495c565b6001600160a01b03831661364d5761364a6002613622836135f4565b50505b6001600160a01b03821661366c5761366960026135e8836135f4565b50505b6001600160a01b038381166000908152602081905260408082205485841683529120546109fc9291821691168361312b565b81546000908190816136af866127ed565b90506000821180156136ed575043866136c9600185614949565b815481106136d9576136d9614535565b60009182526020909120015463ffffffff16145b1561374d576136fb856137c9565b86613707600185614949565b8154811061371757613717614535565b9060005260206000200160000160046101000a8154816001600160e01b0302191690836001600160e01b031602179055506137bb565b85600001604051806040016040528061376543613836565b63ffffffff168152602001613779886137c9565b6001600160e01b0390811690915282546001810184556000938452602093849020835194909301519091166401000000000263ffffffff909316929092179101555b9250839150505b9250929050565b60006001600160e01b038211156138325760405162461bcd60e51b815260206004820152602760248201527f53616665436173743a2076616c756520646f65736e27742066697420696e20326044820152663234206269747360c81b606482015260840161218d565b5090565b600063ffffffff8211156138325760405162461bcd60e51b815260206004820152602660248201527f53616665436173743a2076616c756520646f65736e27742066697420696e203360448201526532206269747360d01b606482015260840161218d565b6001600160e01b03198116811461102b57600080fd5b6000602082840312156138c357600080fd5b8135610f538161389b565b60005b838110156138e95781810151838201526020016138d1565b50506000910152565b6000815180845261390a8160208601602086016138ce565b601f01601f19169290920160200192915050565b602081526000610f5360208301846138f2565b60006020828403121561394357600080fd5b5035919050565b6001600160a01b038116811461102b57600080fd5b803561396a8161394a565b919050565b6000806040838503121561398257600080fd5b823561398d8161394a565b946020939093013593505050565b600080600080604085870312156139b157600080fd5b84356001600160401b03808211156139c857600080fd5b818701915087601f8301126139dc57600080fd5b8135818111156139eb57600080fd5b88602061012083028501011115613a0157600080fd5b602092830196509450908601359080821115613a1c57600080fd5b818701915087601f830112613a3057600080fd5b813581811115613a3f57600080fd5b8860208260051b8501011115613a5457600080fd5b95989497505060200194505050565b600080600060608486031215613a7857600080fd5b8335613a838161394a565b92506020840135613a938161394a565b929592945050506040919091013590565b600060208284031215613ab657600080fd5b8135610f538161394a565b634e487b7160e01b600052604160045260246000fd5b604080519081016001600160401b0381118282101715613af957613af9613ac1565b60405290565b604051608081016001600160401b0381118282101715613af957613af9613ac1565b60405161012081016001600160401b0381118282101715613af957613af9613ac1565b60405161014081016001600160401b0381118282101715613af957613af9613ac1565b604051601f8201601f191681016001600160401b0381118282101715613b8f57613b8f613ac1565b604052919050565b60006001600160401b03821115613bb057613bb0613ac1565b5060051b60200190565b60006020808385031215613bcd57600080fd5b82356001600160401b03811115613be357600080fd5b8301601f81018513613bf457600080fd5b8035613c07613c0282613b97565b613b67565b81815260069190911b82018301908381019087831115613c2657600080fd5b928401925b82841015613c695760408489031215613c445760008081fd5b613c4c613ad7565b843581528585013586820152825260409093019290840190613c2b565b979650505050505050565b60006101e08284031215613c8757600080fd5b50919050565b600060208284031215613c9f57600080fd5b81356001600160401b03811115613cb557600080fd5b61238984828501613c74565b600082601f830112613cd257600080fd5b81356020613ce2613c0283613b97565b82815260059290921b84018101918181019086841115613d0157600080fd5b8286015b84811015613d2d57803561ffff81168114613d205760008081fd5b8352918301918301613d05565b509695505050505050565b60006020808385031215613d4b57600080fd5b82356001600160401b0380821115613d6257600080fd5b818501915085601f830112613d7657600080fd5b8135613d84613c0282613b97565b81815260059190911b83018401908481019088831115613da357600080fd5b8585015b83811015613e2557803585811115613dbf5760008081fd5b86016040818c03601f1901811315613dd75760008081fd5b613ddf613ad7565b8983013588811115613df15760008081fd5b613dff8e8c83870101613cc1565b8252509181013591613e108361394a565b808a0192909252508352918601918601613da7565b5098975050505050505050565b60008060408385031215613e4557600080fd5b82356001600160401b03811115613e5b57600080fd5b613e6785828601613cc1565b9250506020830135613e788161394a565b809150509250929050565b600081518084526020808501945080840160005b83811015613eb357815187529582019590820190600101613e97565b509495945050505050565b602081526000610f536020830184613e83565b60006001600160401b03821115613eea57613eea613ac1565b50601f01601f191660200190565b6000613f06613c0284613ed1565b9050828152838383011115613f1a57600080fd5b828260208301376000602084830101529392505050565b600082601f830112613f4257600080fd5b610f5383833560208501613ef8565b600060208284031215613f6357600080fd5b81356001600160401b03811115613f7957600080fd5b61238984828501613f31565b801515811461102b57600080fd5b803561396a81613f85565b60008060408385031215613fb157600080fd5b8235613fbc8161394a565b91506020830135613e7881613f85565b83815260006020606081840152613fe660608401866138f2565b83810360408581019190915285518083528387019284019060005b8181101561402f57845180516001600160a01b03168452860151868401529385019391830191600101614001565b50909998505050505050505050565b6000806040838503121561405157600080fd5b50508035926020909101359150565b6000806000806080858703121561407657600080fd5b84356140818161394a565b935060208501356140918161394a565b92506040850135915060608501356001600160401b038111156140b357600080fd5b8501601f810187136140c457600080fd5b6140d387823560208401613ef8565b91505092959194509250565b600080602083850312156140f257600080fd5b82356001600160401b038082111561410957600080fd5b818501915085601f83011261411d57600080fd5b81358181111561412c57600080fd5b86602082850101111561413e57600080fd5b60209290920196919550909350505050565b60006020828403121561416257600080fd5b81356001600160401b0381111561417857600080fd5b82016101a08185031215610f5357600080fd5b60006020828403121561419d57600080fd5b81356001600160401b038111156141b357600080fd5b82016102008185031215610f5357600080fd5b600060808083850312156141d957600080fd5b6141e1613aff565b915082356001600160401b038111156141f957600080fd5b8301601f8101851361420a57600080fd5b8035602061421a613c0283613b97565b828152610120928302840182019282820191908985111561423a57600080fd5b948301945b848610156142d45780868b0312156142575760008081fd5b61425f613b21565b8635815284870135858201526040808801359082015260608088013590820152878701358882015260a061429481890161395f565b9082015260c0878101359082015260e06142af818901613f93565b908201526101006142c1888201613f93565b908201528352948501949183019161423f565b508652508581013590850152505050604080830135908201526142f96060830161395f565b606082015292915050565b60006080828403121561431657600080fd5b61431e613aff565b9050813561432b81613f85565b8152602082013561433b81613f85565b6020820152604082013561434e81613f85565b604082015260608201356142f981613f85565b60008060008060008060008060008060006101c08c8e03121561438357600080fd5b8b359a5061439360208d0161395f565b99506001600160401b038060408e013511156143ae57600080fd5b6143be8e60408f01358f01613f31565b99508060608e013511156143d157600080fd5b6143e18e60608f01358f01613f31565b98506143ef60808e0161395f565b97508060a08e0135111561440257600080fd5b6144128e60a08f01358f01613f31565b965061442060c08e0161395f565b95508060e08e0135111561443357600080fd5b6144438e60e08f01358f01613f31565b9450806101008e0135111561445757600080fd5b506144698d6101008e01358e016141c6565b92506144786101208d0161395f565b91506144888d6101408e01614304565b90509295989b509295989b9093969950565b600080604083850312156144ad57600080fd5b82356144b88161394a565b91506020830135613e788161394a565b600181811c908216806144dc57607f821691505b602082108103613c8757634e487b7160e01b600052602260045260246000fd5b6020808252810182905260006001600160fb1b0383111561451c57600080fd5b8260051b80856040850137919091016040019392505050565b634e487b7160e01b600052603260045260246000fd5b803582526020810135602083015260408101356040830152606081013560608301526080810135608083015260a08101356145858161394a565b6001600160a01b031660a083015260c0818101359083015260e08101356145ab81613f85565b151560e08301526101006145c0828201613f93565b80151584830152610edc565b6020808252810182905260008360408301825b85811015614605576145f1828461454b565b6101209283019291909101906001016145df565b5095945050505050565b600082601f83011261462057600080fd5b81516020614630613c0283613b97565b82815260059290921b8401810191818101908684111561464f57600080fd5b8286015b84811015613d2d5780518352918301918301614653565b60006020828403121561467c57600080fd5b81516001600160401b0381111561469257600080fd5b6123898482850161460f565b61014081016146ad828561454b565b6001600160a01b03929092166101209190910152919050565b805161396a81613f85565b6000602082840312156146e357600080fd5b8151610f5381613f85565b6000808335601e1984360301811261470557600080fd5b8301803591506001600160401b0382111561471f57600080fd5b6020019150368190038213156137c257600080fd5b6000808585111561474457600080fd5b8386111561475157600080fd5b5050820193919092039150565b6001600160e01b031981358181169160048510156147865780818660040360031b1b83161692505b505092915050565b600080604083850312156147a157600080fd5b82356147ac8161389b565b91506020838101356001600160401b038111156147c857600080fd5b8401601f810186136147d957600080fd5b80356147e7613c0282613b97565b81815260059190911b8201830190838101908883111561480657600080fd5b928401925b828410156148245783358252928401929084019061480b565b80955050505050509250929050565b805161396a8161394a565b60006020828403121561485057600080fd5b8151610f538161394a565b6000606082018583526020606081850152818651808452608086019150828801935060005b818110156148a057845161ffff1683529383019391830191600101614880565b50508093505050508215156040830152949350505050565b600080604083850312156148cb57600080fd5b82516001600160401b038111156148e157600080fd5b6148ed8582860161460f565b925050602083015190509250929050565b60006020828403121561491057600080fd5b5051919050565b600082516149298184602087016138ce565b9190910192915050565b634e487b7160e01b600052601160045260246000fd5b818103818111156108b6576108b6614933565b808201808211156108b6576108b6614933565b6000610120828403121561498257600080fd5b61498a613b21565b825181526020830151602082015260408301516040820152606083015160608201526080830151608082015260a083015160a082015260c083015160c08201526149d660e08401614833565b60e0820152610100928301519281019290925250919050565b600060208284031215614a0157600080fd5b81516001600160401b03811115614a1757600080fd5b8201601f81018413614a2857600080fd5b8051614a36613c0282613ed1565b818152856020838501011115614a4b57600080fd5b614a5c8260208301602086016138ce565b95945050505050565b604081526000614a7860408301856138f2565b90508260208301529392505050565b60208152816020820152818360408301376000818301604090810191909152601f909201601f19160101919050565b8183823760009101908152919050565b602080825282518282018190526000919060409081850190868401855b82811015614b5e5781518051855286810151878601528581015186860152606080820151908601526080808201519086015260a0808201516001600160a01b03169086015260c0808201519086015260e080820151151590860152610100908101511515908501526101209093019290850190600101614ae3565b5091979650505050505050565b6001600160a01b038316815260406020820181905260009061238990830184613e83565b634e487b7160e01b600052601260045260246000fd5b600181815b80851115614be0578160001904821115614bc657614bc6614933565b80851615614bd357918102915b93841c9390800290614baa565b509250929050565b600082614bf7575060016108b6565b81614c04575060006108b6565b8160018114614c1a5760028114614c2457614c40565b60019150506108b6565b60ff841115614c3557614c35614933565b50506001821b6108b6565b5060208310610133831016604e8410600b8410161715614c63575081810a6108b6565b614c6d8383614ba5565b8060001904821115614c8157614c81614933565b029392505050565b6000610f538383614be8565b60008060008060008060c08789031215614cae57600080fd5b863595506020870135614cc08161389b565b94506040870135614cd081613f85565b93506060870135614ce081613f85565b92506080870135614cf081613f85565b915060a08701356001600160401b03811115614d0b57600080fd5b614d1789828a01613cc1565b9150509295509295509295565b600060808284031215614d3657600080fd5b604051608081018181106001600160401b0382111715614d5857614d58613ac1565b6040528251614d6681613f85565b81526020830151614d7681613f85565b60208201526040830151614d8981613f85565b60408201526060830151614d9c81613f85565b60608201529392505050565b60006101408284031215614dbb57600080fd5b614dc3613b44565b825181526020830151602082015260408301516040820152606083015160608201526080830151608082015260a083015160a082015260c083015160c0820152614e0f60e08401614833565b60e08201526101008381015190820152610120614e2d8185016146c6565b908201529392505050565b600082614e5557634e487b7160e01b600052601260045260246000fd5b500490565b6001600160a01b0385811682528416602082015260408101839052608060608201819052600090614e8d908301846138f2565b9695505050505050565b600060208284031215614ea957600080fd5b8151610f538161389b565b600080600060608486031215614ec957600080fd5b8351925060208401519150604084015190509250925092565b601f8211156109fc57600081815260208120601f850160051c81016020861015614f095750805b601f850160051c820191505b81811015610bdc57828155600101614f15565b81516001600160401b03811115614f4157614f41613ac1565b614f5581614f4f84546144c8565b84614ee2565b602080601f831160018114614f8a5760008415614f725750858301515b600019600386901b1c1916600185901b178555610bdc565b600085815260208120601f198616915b82811015614fb957888601518255948401946001909101908401614f9a565b5085821015614fd75787850151600019600388901b60f8161c191681555b5050505050600190811b0190555056fea264697066735822122020037c15b6c385668cdf8874a63f97637c06e18d662b5aaccef99f850867fe2964736f6c63430008100033",
    "linkReferences": {
      "contracts/libraries/JBIpfsDecoder.sol": {
        "JBIpfsDecoder": [
          {
            "start": 6701,
            "length": 20
          }
        ]
      }
    }
  },
  "methodIdentifiers": {
    "adjustTiers((uint256,uint256,uint256,uint256,uint256,address,bytes32,bool,bool)[],uint256[])": "211eb001",
    "approve(address,uint256)": "095ea7b3",
    "balanceOf(address)": "70a08231",
    "codeOrigin()": "1d153ca4",
    "contractURI()": "e8a3d485",
    "creditsOf(address)": "245a45b5",
    "delegate(address)": "5c19a95c",
    "delegates(address)": "587cde1e",
    "didPay((address,uint256,uint256,(address,uint256,uint256,uint256),(address,uint256,uint256,uint256),uint256,address,bool,string,bytes))": "da9ee8b7",
    "didRedeem((address,uint256,uint256,uint256,(address,uint256,uint256,uint256),(address,uint256,uint256,uint256),address,string,bytes))": "2b13c58f",
    "directory()": "c41c2f24",
    "firstOwnerOf(uint256)": "54c6d1f5",
    "fundingCycleStore()": "557e7155",
    "getApproved(uint256)": "081812fc",
    "getPastTotalSupply(uint256)": "8e539e8c",
    "getPastVotes(address,uint256)": "3a46b1a8",
    "getVotes(address)": "9ab24eb0",
    "initialize(uint256,address,string,string,address,string,address,string,((uint256,uint256,uint256,uint256,uint256,address,bytes32,bool,bool)[],uint256,uint256,address),address,(bool,bool,bool,bool))": "dfedb3af",
    "isApprovedForAll(address,address)": "e985e9c5",
    "mintFor((uint16[],address)[])": "36c1a93b",
    "mintFor(uint16[],address)": "6ac6d941",
    "mintReservesFor((uint256,uint256)[])": "2a596e53",
    "mintReservesFor(uint256,uint256)": "aa4fb15b",
    "name()": "06fdde03",
    "owner()": "8da5cb5b",
    "ownerOf(uint256)": "6352211e",
    "payParams((address,address,(address,uint256,uint256,uint256),uint256,uint256,address,uint256,uint256,string,bytes))": "d46cf171",
    "prices()": "d3419bf3",
    "pricingCurrency()": "64640c1e",
    "pricingDecimals()": "4ecba625",
    "projectId()": "3fafa127",
    "redeemParams((address,address,uint256,uint256,uint256,uint256,uint256,(address,uint256,uint256,uint256),bool,uint256,string,bytes))": "a51cfd18",
    "renounceOwnership()": "715018a6",
    "safeTransferFrom(address,address,uint256)": "42842e0e",
    "safeTransferFrom(address,address,uint256,bytes)": "b88d4fde",
    "setApprovalForAll(address,bool)": "a22cb465",
    "setBaseUri(string)": "a0bcfc7f",
    "setContractUri(string)": "ccb4807b",
    "setDefaultReservedTokenBeneficiary(address)": "df487e26",
    "setTokenUriResolver(address)": "2407497e",
    "store()": "975057e7",
    "supportsInterface(bytes4)": "01ffc9a7",
    "symbol()": "95d89b41",
    "tokenURI(uint256)": "c87b56dd",
    "transferFrom(address,address,uint256)": "23b872dd",
    "transferOwnership(address)": "f2fde38b"
  },
  "id": 0
}