{
  "abi": [
    {
      "inputs": [],
      "name": "ALEADY_MINTED",
      "type": "error"
    },
    {
      "inputs": [],
      "name": "APPROVAL_TO_CURRENT_OWNER",
      "type": "error"
    },
    {
      "inputs": [],
      "name": "APPROVE_TO_CALLER",
      "type": "error"
    },
    {
      "inputs": [],
      "name": "BLOCK_NOT_YET_MINED",
      "type": "error"
    },
    {
      "inputs": [],
      "name": "CALLER_NOT_OWNER_OR_APPROVED",
      "type": "error"
    },
    {
      "inputs": [],
      "name": "INCORRECT_OWNER",
      "type": "error"
    },
    {
      "inputs": [],
      "name": "INVALID",
      "type": "error"
    },
    {
      "inputs": [],
      "name": "INVALID_PAYMENT_EVENT",
      "type": "error"
    },
    {
      "inputs": [],
      "name": "INVALID_REDEMPTION_EVENT",
      "type": "error"
    },
    {
      "inputs": [],
      "name": "INVALID_REDEMPTION_METADATA",
      "type": "error"
    },
    {
      "inputs": [],
      "name": "INVALID_TOKEN_ID",
      "type": "error"
    },
    {
      "inputs": [],
      "name": "MINT_TO_ZERO",
      "type": "error"
    },
    {
      "inputs": [],
      "name": "NOT_AVAILABLE",
      "type": "error"
    },
    {
      "inputs": [],
      "name": "OVERSPENDING",
      "type": "error"
    },
    {
      "inputs": [
        {
          "internalType": "uint256",
          "name": "prod1",
          "type": "uint256"
        },
        {
          "internalType": "uint256",
          "name": "denominator",
          "type": "uint256"
        }
      ],
      "name": "PRBMath__MulDivOverflow",
      "type": "error"
    },
    {
      "inputs": [],
      "name": "PRICING_RESOLVER_CHANGES_PAUSED",
      "type": "error"
    },
    {
      "inputs": [],
      "name": "RESERVED_TOKEN_MINTING_PAUSED",
      "type": "error"
    },
    {
      "inputs": [],
      "name": "SIGNATURE_EXPIRED",
      "type": "error"
    },
    {
      "inputs": [],
      "name": "TRANSFERS_PAUSED",
      "type": "error"
    },
    {
      "inputs": [],
      "name": "TRANSFER_TO_NON_IMPLEMENTER",
      "type": "error"
    },
    {
      "inputs": [],
      "name": "TRANSFER_TO_ZERO_ADDRESS",
      "type": "error"
    },
    {
      "inputs": [],
      "name": "UNAUTHORIZED",
      "type": "error"
    },
    {
      "inputs": [],
      "name": "UNEXPECTED_TOKEN_REDEEMED",
      "type": "error"
    },
    {
      "anonymous": false,
      "inputs": [
        {
          "indexed": true,
          "internalType": "uint256",
          "name": "tierId",
          "type": "uint256"
        },
        {
          "components": [
            {
              "internalType": "uint80",
              "name": "contributionFloor",
              "type": "uint80"
            },
            {
              "internalType": "uint48",
              "name": "lockedUntil",
              "type": "uint48"
            },
            {
              "internalType": "uint40",
              "name": "initialQuantity",
              "type": "uint40"
            },
            {
              "internalType": "uint16",
              "name": "votingUnits",
              "type": "uint16"
            },
            {
              "internalType": "uint16",
              "name": "reservedRate",
              "type": "uint16"
            },
            {
              "internalType": "address",
              "name": "reservedTokenBeneficiary",
              "type": "address"
            },
            {
              "internalType": "bytes32",
              "name": "encodedIPFSUri",
              "type": "bytes32"
            },
            {
              "internalType": "bool",
              "name": "allowManualMint",
              "type": "bool"
            },
            {
              "internalType": "bool",
              "name": "shouldUseBeneficiaryAsDefault",
              "type": "bool"
            },
            {
              "internalType": "bool",
              "name": "transfersPausable",
              "type": "bool"
            }
          ],
          "indexed": false,
          "internalType": "struct JB721TierParams",
          "name": "data",
          "type": "tuple"
        },
        {
          "indexed": false,
          "internalType": "address",
          "name": "caller",
          "type": "address"
        }
      ],
      "name": "AddTier",
      "type": "event"
    },
    {
      "anonymous": false,
      "inputs": [
        {
          "indexed": true,
          "internalType": "address",
          "name": "owner",
          "type": "address"
        },
        {
          "indexed": true,
          "internalType": "address",
          "name": "approved",
          "type": "address"
        },
        {
          "indexed": true,
          "internalType": "uint256",
          "name": "tokenId",
          "type": "uint256"
        }
      ],
      "name": "Approval",
      "type": "event"
    },
    {
      "anonymous": false,
      "inputs": [
        {
          "indexed": true,
          "internalType": "address",
          "name": "owner",
          "type": "address"
        },
        {
          "indexed": true,
          "internalType": "address",
          "name": "operator",
          "type": "address"
        },
        {
          "indexed": false,
          "internalType": "bool",
          "name": "approved",
          "type": "bool"
        }
      ],
      "name": "ApprovalForAll",
      "type": "event"
    },
    {
      "anonymous": false,
      "inputs": [
        {
          "indexed": true,
          "internalType": "address",
          "name": "delegator",
          "type": "address"
        },
        {
          "indexed": true,
          "internalType": "address",
          "name": "fromDelegate",
          "type": "address"
        },
        {
          "indexed": true,
          "internalType": "address",
          "name": "toDelegate",
          "type": "address"
        }
      ],
      "name": "DelegateChanged",
      "type": "event"
    },
    {
      "anonymous": false,
      "inputs": [
        {
          "indexed": true,
          "internalType": "address",
          "name": "delegate",
          "type": "address"
        },
        {
          "indexed": false,
          "internalType": "uint256",
          "name": "previousBalance",
          "type": "uint256"
        },
        {
          "indexed": false,
          "internalType": "uint256",
          "name": "newBalance",
          "type": "uint256"
        }
      ],
      "name": "DelegateVotesChanged",
      "type": "event"
    },
    {
      "anonymous": false,
      "inputs": [
        {
          "indexed": true,
          "internalType": "uint256",
          "name": "tokenId",
          "type": "uint256"
        },
        {
          "indexed": true,
          "internalType": "uint256",
          "name": "tierId",
          "type": "uint256"
        },
        {
          "indexed": true,
          "internalType": "address",
          "name": "beneficiary",
          "type": "address"
        },
        {
          "indexed": false,
          "internalType": "uint256",
          "name": "totalAmountContributed",
          "type": "uint256"
        },
        {
          "indexed": false,
          "internalType": "address",
          "name": "caller",
          "type": "address"
        }
      ],
      "name": "Mint",
      "type": "event"
    },
    {
      "anonymous": false,
      "inputs": [
        {
          "indexed": true,
          "internalType": "uint256",
          "name": "tokenId",
          "type": "uint256"
        },
        {
          "indexed": true,
          "internalType": "uint256",
          "name": "tierId",
          "type": "uint256"
        },
        {
          "indexed": true,
          "internalType": "address",
          "name": "beneficiary",
          "type": "address"
        },
        {
          "indexed": false,
          "internalType": "address",
          "name": "caller",
          "type": "address"
        }
      ],
      "name": "MintReservedToken",
      "type": "event"
    },
    {
      "anonymous": false,
      "inputs": [
        {
          "indexed": true,
          "internalType": "address",
          "name": "previousOwner",
          "type": "address"
        },
        {
          "indexed": true,
          "internalType": "address",
          "name": "newOwner",
          "type": "address"
        }
      ],
      "name": "OwnershipTransferred",
      "type": "event"
    },
    {
      "anonymous": false,
      "inputs": [
        {
          "indexed": true,
          "internalType": "uint256",
          "name": "tierId",
          "type": "uint256"
        },
        {
          "indexed": false,
          "internalType": "address",
          "name": "caller",
          "type": "address"
        }
      ],
      "name": "RemoveTier",
      "type": "event"
    },
    {
      "anonymous": false,
      "inputs": [
        {
          "indexed": true,
          "internalType": "string",
          "name": "baseUri",
          "type": "string"
        },
        {
          "indexed": false,
          "internalType": "address",
          "name": "caller",
          "type": "address"
        }
      ],
      "name": "SetBaseUri",
      "type": "event"
    },
    {
      "anonymous": false,
      "inputs": [
        {
          "indexed": true,
          "internalType": "string",
          "name": "contractUri",
          "type": "string"
        },
        {
          "indexed": false,
          "internalType": "address",
          "name": "caller",
          "type": "address"
        }
      ],
      "name": "SetContractUri",
      "type": "event"
    },
    {
      "anonymous": false,
      "inputs": [
        {
          "indexed": true,
          "internalType": "address",
          "name": "beneficiary",
          "type": "address"
        },
        {
          "indexed": false,
          "internalType": "address",
          "name": "caller",
          "type": "address"
        }
      ],
      "name": "SetDefaultReservedTokenBeneficiary",
      "type": "event"
    },
    {
      "anonymous": false,
      "inputs": [
        {
          "indexed": true,
          "internalType": "contract IJBTokenUriResolver",
          "name": "newResolver",
          "type": "address"
        },
        {
          "indexed": false,
          "internalType": "address",
          "name": "caller",
          "type": "address"
        }
      ],
      "name": "SetTokenUriResolver",
      "type": "event"
    },
    {
      "anonymous": false,
      "inputs": [
        {
          "indexed": true,
          "internalType": "address",
          "name": "from",
          "type": "address"
        },
        {
          "indexed": true,
          "internalType": "address",
          "name": "to",
          "type": "address"
        },
        {
          "indexed": true,
          "internalType": "uint256",
          "name": "tokenId",
          "type": "uint256"
        }
      ],
      "name": "Transfer",
      "type": "event"
    },
    {
      "inputs": [
        {
          "components": [
            {
              "internalType": "uint80",
              "name": "contributionFloor",
              "type": "uint80"
            },
            {
              "internalType": "uint48",
              "name": "lockedUntil",
              "type": "uint48"
            },
            {
              "internalType": "uint40",
              "name": "initialQuantity",
              "type": "uint40"
            },
            {
              "internalType": "uint16",
              "name": "votingUnits",
              "type": "uint16"
            },
            {
              "internalType": "uint16",
              "name": "reservedRate",
              "type": "uint16"
            },
            {
              "internalType": "address",
              "name": "reservedTokenBeneficiary",
              "type": "address"
            },
            {
              "internalType": "bytes32",
              "name": "encodedIPFSUri",
              "type": "bytes32"
            },
            {
              "internalType": "bool",
              "name": "allowManualMint",
              "type": "bool"
            },
            {
              "internalType": "bool",
              "name": "shouldUseBeneficiaryAsDefault",
              "type": "bool"
            },
            {
              "internalType": "bool",
              "name": "transfersPausable",
              "type": "bool"
            }
          ],
          "internalType": "struct JB721TierParams[]",
          "name": "_tiersToAdd",
          "type": "tuple[]"
        },
        {
          "internalType": "uint256[]",
          "name": "_tierIdsToRemove",
          "type": "uint256[]"
        }
      ],
      "name": "adjustTiers",
      "outputs": [],
      "stateMutability": "nonpayable",
      "type": "function"
    },
    {
      "inputs": [
        {
          "internalType": "address",
          "name": "to",
          "type": "address"
        },
        {
          "internalType": "uint256",
          "name": "tokenId",
          "type": "uint256"
        }
      ],
      "name": "approve",
      "outputs": [],
      "stateMutability": "nonpayable",
      "type": "function"
    },
    {
      "inputs": [
        {
          "internalType": "address",
          "name": "_owner",
          "type": "address"
        }
      ],
      "name": "balanceOf",
      "outputs": [
        {
          "internalType": "uint256",
          "name": "balance",
          "type": "uint256"
        }
      ],
      "stateMutability": "view",
      "type": "function"
    },
    {
      "inputs": [],
      "name": "codeOrigin",
      "outputs": [
        {
          "internalType": "address",
          "name": "",
          "type": "address"
        }
      ],
      "stateMutability": "view",
      "type": "function"
    },
    {
      "inputs": [],
      "name": "contractURI",
      "outputs": [
        {
          "internalType": "string",
          "name": "",
          "type": "string"
        }
      ],
      "stateMutability": "view",
      "type": "function"
    },
    {
      "inputs": [
        {
          "internalType": "address",
          "name": "",
          "type": "address"
        }
      ],
      "name": "creditsOf",
      "outputs": [
        {
          "internalType": "uint256",
          "name": "",
          "type": "uint256"
        }
      ],
      "stateMutability": "view",
      "type": "function"
    },
    {
      "inputs": [
        {
          "internalType": "address",
          "name": "delegatee",
          "type": "address"
        }
      ],
      "name": "delegate",
      "outputs": [],
      "stateMutability": "nonpayable",
      "type": "function"
    },
    {
      "inputs": [
        {
          "internalType": "address",
          "name": "account",
          "type": "address"
        }
      ],
      "name": "delegates",
      "outputs": [
        {
          "internalType": "address",
          "name": "",
          "type": "address"
        }
      ],
      "stateMutability": "view",
      "type": "function"
    },
    {
      "inputs": [
        {
          "components": [
            {
              "internalType": "address",
              "name": "payer",
              "type": "address"
            },
            {
              "internalType": "uint256",
              "name": "projectId",
              "type": "uint256"
            },
            {
              "internalType": "uint256",
              "name": "currentFundingCycleConfiguration",
              "type": "uint256"
            },
            {
              "components": [
                {
                  "internalType": "address",
                  "name": "token",
                  "type": "address"
                },
                {
                  "internalType": "uint256",
                  "name": "value",
                  "type": "uint256"
                },
                {
                  "internalType": "uint256",
                  "name": "decimals",
                  "type": "uint256"
                },
                {
                  "internalType": "uint256",
                  "name": "currency",
                  "type": "uint256"
                }
              ],
              "internalType": "struct JBTokenAmount",
              "name": "amount",
              "type": "tuple"
            },
            {
              "components": [
                {
                  "internalType": "address",
                  "name": "token",
                  "type": "address"
                },
                {
                  "internalType": "uint256",
                  "name": "value",
                  "type": "uint256"
                },
                {
                  "internalType": "uint256",
                  "name": "decimals",
                  "type": "uint256"
                },
                {
                  "internalType": "uint256",
                  "name": "currency",
                  "type": "uint256"
                }
              ],
              "internalType": "struct JBTokenAmount",
              "name": "forwardedAmount",
              "type": "tuple"
            },
            {
              "internalType": "uint256",
              "name": "projectTokenCount",
              "type": "uint256"
            },
            {
              "internalType": "address",
              "name": "beneficiary",
              "type": "address"
            },
            {
              "internalType": "bool",
              "name": "preferClaimedTokens",
              "type": "bool"
            },
            {
              "internalType": "string",
              "name": "memo",
              "type": "string"
            },
            {
              "internalType": "bytes",
              "name": "metadata",
              "type": "bytes"
            }
          ],
          "internalType": "struct JBDidPayData",
          "name": "_data",
          "type": "tuple"
        }
      ],
      "name": "didPay",
      "outputs": [],
      "stateMutability": "payable",
      "type": "function"
    },
    {
      "inputs": [
        {
          "components": [
            {
              "internalType": "address",
              "name": "holder",
              "type": "address"
            },
            {
              "internalType": "uint256",
              "name": "projectId",
              "type": "uint256"
            },
            {
              "internalType": "uint256",
              "name": "currentFundingCycleConfiguration",
              "type": "uint256"
            },
            {
              "internalType": "uint256",
              "name": "projectTokenCount",
              "type": "uint256"
            },
            {
              "components": [
                {
                  "internalType": "address",
                  "name": "token",
                  "type": "address"
                },
                {
                  "internalType": "uint256",
                  "name": "value",
                  "type": "uint256"
                },
                {
                  "internalType": "uint256",
                  "name": "decimals",
                  "type": "uint256"
                },
                {
                  "internalType": "uint256",
                  "name": "currency",
                  "type": "uint256"
                }
              ],
              "internalType": "struct JBTokenAmount",
              "name": "reclaimedAmount",
              "type": "tuple"
            },
            {
              "components": [
                {
                  "internalType": "address",
                  "name": "token",
                  "type": "address"
                },
                {
                  "internalType": "uint256",
                  "name": "value",
                  "type": "uint256"
                },
                {
                  "internalType": "uint256",
                  "name": "decimals",
                  "type": "uint256"
                },
                {
                  "internalType": "uint256",
                  "name": "currency",
                  "type": "uint256"
                }
              ],
              "internalType": "struct JBTokenAmount",
              "name": "forwardedAmount",
              "type": "tuple"
            },
            {
              "internalType": "address payable",
              "name": "beneficiary",
              "type": "address"
            },
            {
              "internalType": "string",
              "name": "memo",
              "type": "string"
            },
            {
              "internalType": "bytes",
              "name": "metadata",
              "type": "bytes"
            }
          ],
          "internalType": "struct JBDidRedeemData",
          "name": "_data",
          "type": "tuple"
        }
      ],
      "name": "didRedeem",
      "outputs": [],
      "stateMutability": "payable",
      "type": "function"
    },
    {
      "inputs": [],
      "name": "directory",
      "outputs": [
        {
          "internalType": "contract IJBDirectory",
          "name": "",
          "type": "address"
        }
      ],
      "stateMutability": "view",
      "type": "function"
    },
    {
      "inputs": [
        {
          "internalType": "uint256",
          "name": "_tokenId",
          "type": "uint256"
        }
      ],
      "name": "firstOwnerOf",
      "outputs": [
        {
          "internalType": "address",
          "name": "",
          "type": "address"
        }
      ],
      "stateMutability": "view",
      "type": "function"
    },
    {
      "inputs": [],
      "name": "fundingCycleStore",
      "outputs": [
        {
          "internalType": "contract IJBFundingCycleStore",
          "name": "",
          "type": "address"
        }
      ],
      "stateMutability": "view",
      "type": "function"
    },
    {
      "inputs": [
        {
          "internalType": "uint256",
          "name": "tokenId",
          "type": "uint256"
        }
      ],
      "name": "getApproved",
      "outputs": [
        {
          "internalType": "address",
          "name": "",
          "type": "address"
        }
      ],
      "stateMutability": "view",
      "type": "function"
    },
    {
      "inputs": [
        {
          "internalType": "uint256",
          "name": "blockNumber",
          "type": "uint256"
        }
      ],
      "name": "getPastTotalSupply",
      "outputs": [
        {
          "internalType": "uint256",
          "name": "",
          "type": "uint256"
        }
      ],
      "stateMutability": "view",
      "type": "function"
    },
    {
      "inputs": [
        {
          "internalType": "address",
          "name": "account",
          "type": "address"
        },
        {
          "internalType": "uint256",
          "name": "blockNumber",
          "type": "uint256"
        }
      ],
      "name": "getPastVotes",
      "outputs": [
        {
          "internalType": "uint256",
          "name": "",
          "type": "uint256"
        }
      ],
      "stateMutability": "view",
      "type": "function"
    },
    {
      "inputs": [
        {
          "internalType": "address",
          "name": "account",
          "type": "address"
        }
      ],
      "name": "getVotes",
      "outputs": [
        {
          "internalType": "uint256",
          "name": "",
          "type": "uint256"
        }
      ],
      "stateMutability": "view",
      "type": "function"
    },
    {
      "inputs": [
        {
          "internalType": "uint256",
          "name": "_projectId",
          "type": "uint256"
        },
        {
          "internalType": "contract IJBDirectory",
          "name": "_directory",
          "type": "address"
        },
        {
          "internalType": "string",
          "name": "_name",
          "type": "string"
        },
        {
          "internalType": "string",
          "name": "_symbol",
          "type": "string"
        },
        {
          "internalType": "contract IJBFundingCycleStore",
          "name": "_fundingCycleStore",
          "type": "address"
        },
        {
          "internalType": "string",
          "name": "_baseUri",
          "type": "string"
        },
        {
          "internalType": "contract IJBTokenUriResolver",
          "name": "_tokenUriResolver",
          "type": "address"
        },
        {
          "internalType": "string",
          "name": "_contractUri",
          "type": "string"
        },
        {
          "components": [
            {
              "components": [
                {
                  "internalType": "uint80",
                  "name": "contributionFloor",
                  "type": "uint80"
                },
                {
                  "internalType": "uint48",
                  "name": "lockedUntil",
                  "type": "uint48"
                },
                {
                  "internalType": "uint40",
                  "name": "initialQuantity",
                  "type": "uint40"
                },
                {
                  "internalType": "uint16",
                  "name": "votingUnits",
                  "type": "uint16"
                },
                {
                  "internalType": "uint16",
                  "name": "reservedRate",
                  "type": "uint16"
                },
                {
                  "internalType": "address",
                  "name": "reservedTokenBeneficiary",
                  "type": "address"
                },
                {
                  "internalType": "bytes32",
                  "name": "encodedIPFSUri",
                  "type": "bytes32"
                },
                {
                  "internalType": "bool",
                  "name": "allowManualMint",
                  "type": "bool"
                },
                {
                  "internalType": "bool",
                  "name": "shouldUseBeneficiaryAsDefault",
                  "type": "bool"
                },
                {
                  "internalType": "bool",
                  "name": "transfersPausable",
                  "type": "bool"
                }
              ],
              "internalType": "struct JB721TierParams[]",
              "name": "tiers",
              "type": "tuple[]"
            },
            {
              "internalType": "uint256",
              "name": "currency",
              "type": "uint256"
            },
            {
              "internalType": "uint256",
              "name": "decimals",
              "type": "uint256"
            },
            {
              "internalType": "contract IJBPrices",
              "name": "prices",
              "type": "address"
            }
          ],
          "internalType": "struct JB721PricingParams",
          "name": "_pricing",
          "type": "tuple"
        },
        {
          "internalType": "contract IJBTiered721DelegateStore",
          "name": "_store",
          "type": "address"
        },
        {
          "components": [
            {
              "internalType": "bool",
              "name": "lockReservedTokenChanges",
              "type": "bool"
            },
            {
              "internalType": "bool",
              "name": "lockVotingUnitChanges",
              "type": "bool"
            },
            {
              "internalType": "bool",
              "name": "lockManualMintingChanges",
              "type": "bool"
            }
          ],
          "internalType": "struct JBTiered721Flags",
          "name": "_flags",
          "type": "tuple"
        }
      ],
      "name": "initialize",
      "outputs": [],
      "stateMutability": "nonpayable",
      "type": "function"
    },
    {
      "inputs": [
        {
          "internalType": "address",
          "name": "owner",
          "type": "address"
        },
        {
          "internalType": "address",
          "name": "operator",
          "type": "address"
        }
      ],
      "name": "isApprovedForAll",
      "outputs": [
        {
          "internalType": "bool",
          "name": "",
          "type": "bool"
        }
      ],
      "stateMutability": "view",
      "type": "function"
    },
    {
      "inputs": [
        {
          "components": [
            {
              "internalType": "uint16[]",
              "name": "tierIds",
              "type": "uint16[]"
            },
            {
              "internalType": "address",
              "name": "beneficiary",
              "type": "address"
            }
          ],
          "internalType": "struct JBTiered721MintForTiersData[]",
          "name": "_mintForTiersData",
          "type": "tuple[]"
        }
      ],
      "name": "mintFor",
      "outputs": [],
      "stateMutability": "nonpayable",
      "type": "function"
    },
    {
      "inputs": [
        {
          "internalType": "uint16[]",
          "name": "_tierIds",
          "type": "uint16[]"
        },
        {
          "internalType": "address",
          "name": "_beneficiary",
          "type": "address"
        }
      ],
      "name": "mintFor",
      "outputs": [
        {
          "internalType": "uint256[]",
          "name": "tokenIds",
          "type": "uint256[]"
        }
      ],
      "stateMutability": "nonpayable",
      "type": "function"
    },
    {
      "inputs": [
        {
          "components": [
            {
              "internalType": "uint256",
              "name": "tierId",
              "type": "uint256"
            },
            {
              "internalType": "uint256",
              "name": "count",
              "type": "uint256"
            }
          ],
          "internalType": "struct JBTiered721MintReservesForTiersData[]",
          "name": "_mintReservesForTiersData",
          "type": "tuple[]"
        }
      ],
      "name": "mintReservesFor",
      "outputs": [],
      "stateMutability": "nonpayable",
      "type": "function"
    },
    {
      "inputs": [
        {
          "internalType": "uint256",
          "name": "_tierId",
          "type": "uint256"
        },
        {
          "internalType": "uint256",
          "name": "_count",
          "type": "uint256"
        }
      ],
      "name": "mintReservesFor",
      "outputs": [],
      "stateMutability": "nonpayable",
      "type": "function"
    },
    {
      "inputs": [],
      "name": "name",
      "outputs": [
        {
          "internalType": "string",
          "name": "",
          "type": "string"
        }
      ],
      "stateMutability": "view",
      "type": "function"
    },
    {
      "inputs": [],
      "name": "owner",
      "outputs": [
        {
          "internalType": "address",
          "name": "",
          "type": "address"
        }
      ],
      "stateMutability": "view",
      "type": "function"
    },
    {
      "inputs": [
        {
          "internalType": "uint256",
          "name": "tokenId",
          "type": "uint256"
        }
      ],
      "name": "ownerOf",
      "outputs": [
        {
          "internalType": "address",
          "name": "",
          "type": "address"
        }
      ],
      "stateMutability": "view",
      "type": "function"
    },
    {
      "inputs": [
        {
          "components": [
            {
              "internalType": "contract IJBPaymentTerminal",
              "name": "terminal",
              "type": "address"
            },
            {
              "internalType": "address",
              "name": "payer",
              "type": "address"
            },
            {
              "components": [
                {
                  "internalType": "address",
                  "name": "token",
                  "type": "address"
                },
                {
                  "internalType": "uint256",
                  "name": "value",
                  "type": "uint256"
                },
                {
                  "internalType": "uint256",
                  "name": "decimals",
                  "type": "uint256"
                },
                {
                  "internalType": "uint256",
                  "name": "currency",
                  "type": "uint256"
                }
              ],
              "internalType": "struct JBTokenAmount",
              "name": "amount",
              "type": "tuple"
            },
            {
              "internalType": "uint256",
              "name": "projectId",
              "type": "uint256"
            },
            {
              "internalType": "uint256",
              "name": "currentFundingCycleConfiguration",
              "type": "uint256"
            },
            {
              "internalType": "address",
              "name": "beneficiary",
              "type": "address"
            },
            {
              "internalType": "uint256",
              "name": "weight",
              "type": "uint256"
            },
            {
              "internalType": "uint256",
              "name": "reservedRate",
              "type": "uint256"
            },
            {
              "internalType": "string",
              "name": "memo",
              "type": "string"
            },
            {
              "internalType": "bytes",
              "name": "metadata",
              "type": "bytes"
            }
          ],
          "internalType": "struct JBPayParamsData",
          "name": "_data",
          "type": "tuple"
        }
      ],
      "name": "payParams",
      "outputs": [
        {
          "internalType": "uint256",
          "name": "weight",
          "type": "uint256"
        },
        {
          "internalType": "string",
          "name": "memo",
          "type": "string"
        },
        {
          "components": [
            {
              "internalType": "contract IJBPayDelegate",
              "name": "delegate",
              "type": "address"
            },
            {
              "internalType": "uint256",
              "name": "amount",
              "type": "uint256"
            }
          ],
          "internalType": "struct JBPayDelegateAllocation[]",
          "name": "delegateAllocations",
          "type": "tuple[]"
        }
      ],
      "stateMutability": "view",
      "type": "function"
    },
    {
      "inputs": [],
      "name": "prices",
      "outputs": [
        {
          "internalType": "contract IJBPrices",
          "name": "",
          "type": "address"
        }
      ],
      "stateMutability": "view",
      "type": "function"
    },
    {
      "inputs": [],
      "name": "pricingCurrency",
      "outputs": [
        {
          "internalType": "uint256",
          "name": "",
          "type": "uint256"
        }
      ],
      "stateMutability": "view",
      "type": "function"
    },
    {
      "inputs": [],
      "name": "pricingDecimals",
      "outputs": [
        {
          "internalType": "uint256",
          "name": "",
          "type": "uint256"
        }
      ],
      "stateMutability": "view",
      "type": "function"
    },
    {
      "inputs": [],
      "name": "projectId",
      "outputs": [
        {
          "internalType": "uint256",
          "name": "",
          "type": "uint256"
        }
      ],
      "stateMutability": "view",
      "type": "function"
    },
    {
      "inputs": [
        {
          "components": [
            {
              "internalType": "contract IJBPaymentTerminal",
              "name": "terminal",
              "type": "address"
            },
            {
              "internalType": "address",
              "name": "holder",
              "type": "address"
            },
            {
              "internalType": "uint256",
              "name": "projectId",
              "type": "uint256"
            },
            {
              "internalType": "uint256",
              "name": "currentFundingCycleConfiguration",
              "type": "uint256"
            },
            {
              "internalType": "uint256",
              "name": "tokenCount",
              "type": "uint256"
            },
            {
              "internalType": "uint256",
              "name": "totalSupply",
              "type": "uint256"
            },
            {
              "internalType": "uint256",
              "name": "overflow",
              "type": "uint256"
            },
            {
              "components": [
                {
                  "internalType": "address",
                  "name": "token",
                  "type": "address"
                },
                {
                  "internalType": "uint256",
                  "name": "value",
                  "type": "uint256"
                },
                {
                  "internalType": "uint256",
                  "name": "decimals",
                  "type": "uint256"
                },
                {
                  "internalType": "uint256",
                  "name": "currency",
                  "type": "uint256"
                }
              ],
              "internalType": "struct JBTokenAmount",
              "name": "reclaimAmount",
              "type": "tuple"
            },
            {
              "internalType": "bool",
              "name": "useTotalOverflow",
              "type": "bool"
            },
            {
              "internalType": "uint256",
              "name": "redemptionRate",
              "type": "uint256"
            },
            {
              "internalType": "string",
              "name": "memo",
              "type": "string"
            },
            {
              "internalType": "bytes",
              "name": "metadata",
              "type": "bytes"
            }
          ],
          "internalType": "struct JBRedeemParamsData",
          "name": "_data",
          "type": "tuple"
        }
      ],
      "name": "redeemParams",
      "outputs": [
        {
          "internalType": "uint256",
          "name": "reclaimAmount",
          "type": "uint256"
        },
        {
          "internalType": "string",
          "name": "memo",
          "type": "string"
        },
        {
          "components": [
            {
              "internalType": "contract IJBRedemptionDelegate",
              "name": "delegate",
              "type": "address"
            },
            {
              "internalType": "uint256",
              "name": "amount",
              "type": "uint256"
            }
          ],
          "internalType": "struct JBRedemptionDelegateAllocation[]",
          "name": "delegateAllocations",
          "type": "tuple[]"
        }
      ],
      "stateMutability": "view",
      "type": "function"
    },
    {
      "inputs": [],
      "name": "renounceOwnership",
      "outputs": [],
      "stateMutability": "nonpayable",
      "type": "function"
    },
    {
      "inputs": [
        {
          "internalType": "address",
          "name": "from",
          "type": "address"
        },
        {
          "internalType": "address",
          "name": "to",
          "type": "address"
        },
        {
          "internalType": "uint256",
          "name": "tokenId",
          "type": "uint256"
        }
      ],
      "name": "safeTransferFrom",
      "outputs": [],
      "stateMutability": "nonpayable",
      "type": "function"
    },
    {
      "inputs": [
        {
          "internalType": "address",
          "name": "from",
          "type": "address"
        },
        {
          "internalType": "address",
          "name": "to",
          "type": "address"
        },
        {
          "internalType": "uint256",
          "name": "tokenId",
          "type": "uint256"
        },
        {
          "internalType": "bytes",
          "name": "data",
          "type": "bytes"
        }
      ],
      "name": "safeTransferFrom",
      "outputs": [],
      "stateMutability": "nonpayable",
      "type": "function"
    },
    {
      "inputs": [
        {
          "internalType": "address",
          "name": "operator",
          "type": "address"
        },
        {
          "internalType": "bool",
          "name": "approved",
          "type": "bool"
        }
      ],
      "name": "setApprovalForAll",
      "outputs": [],
      "stateMutability": "nonpayable",
      "type": "function"
    },
    {
      "inputs": [
        {
          "internalType": "string",
          "name": "_baseUri",
          "type": "string"
        }
      ],
      "name": "setBaseUri",
      "outputs": [],
      "stateMutability": "nonpayable",
      "type": "function"
    },
    {
      "inputs": [
        {
          "internalType": "string",
          "name": "_contractUri",
          "type": "string"
        }
      ],
      "name": "setContractUri",
      "outputs": [],
      "stateMutability": "nonpayable",
      "type": "function"
    },
    {
      "inputs": [
        {
          "internalType": "address",
          "name": "_beneficiary",
          "type": "address"
        }
      ],
      "name": "setDefaultReservedTokenBeneficiary",
      "outputs": [],
      "stateMutability": "nonpayable",
      "type": "function"
    },
    {
      "inputs": [
        {
          "internalType": "contract IJBTokenUriResolver",
          "name": "_tokenUriResolver",
          "type": "address"
        }
      ],
      "name": "setTokenUriResolver",
      "outputs": [],
      "stateMutability": "nonpayable",
      "type": "function"
    },
    {
      "inputs": [],
      "name": "store",
      "outputs": [
        {
          "internalType": "contract IJBTiered721DelegateStore",
          "name": "",
          "type": "address"
        }
      ],
      "stateMutability": "view",
      "type": "function"
    },
    {
      "inputs": [
        {
          "internalType": "bytes4",
          "name": "_interfaceId",
          "type": "bytes4"
        }
      ],
      "name": "supportsInterface",
      "outputs": [
        {
          "internalType": "bool",
          "name": "",
          "type": "bool"
        }
      ],
      "stateMutability": "view",
      "type": "function"
    },
    {
      "inputs": [],
      "name": "symbol",
      "outputs": [
        {
          "internalType": "string",
          "name": "",
          "type": "string"
        }
      ],
      "stateMutability": "view",
      "type": "function"
    },
    {
      "inputs": [
        {
          "internalType": "uint256",
          "name": "_tokenId",
          "type": "uint256"
        }
      ],
      "name": "tokenURI",
      "outputs": [
        {
          "internalType": "string",
          "name": "",
          "type": "string"
        }
      ],
      "stateMutability": "view",
      "type": "function"
    },
    {
      "inputs": [
        {
          "internalType": "address",
          "name": "from",
          "type": "address"
        },
        {
          "internalType": "address",
          "name": "to",
          "type": "address"
        },
        {
          "internalType": "uint256",
          "name": "tokenId",
          "type": "uint256"
        }
      ],
      "name": "transferFrom",
      "outputs": [],
      "stateMutability": "nonpayable",
      "type": "function"
    },
    {
      "inputs": [
        {
          "internalType": "address",
          "name": "newOwner",
          "type": "address"
        }
      ],
      "name": "transferOwnership",
      "outputs": [],
      "stateMutability": "nonpayable",
      "type": "function"
    }
  ],
  "bytecode": {
    "object": "0x60806040523480156200001157600080fd5b506200001d3362000035565b600b80546001600160a01b0319163017905562000087565b600a80546001600160a01b038381166001600160a01b0319831681179093556040519116919082907f8be0079c531659141344cd1fd0a4f28419497f9722a3daafe3b4186f6b6457e090600090a35050565b6150ce80620000976000396000f3fe60806040526004361061027d5760003560e01c8063715018a61161014f578063bb52b6e4116100c1578063da9ee8b71161007a578063da9ee8b7146107c0578063df487e26146107d3578063e8a3d485146107f3578063e985e9c514610808578063f2fde38b14610851578063f5a38e631461087157600080fd5b8063bb52b6e414610700578063c41c2f2414610720578063c87b56dd14610740578063ccb4807b14610760578063d3419bf314610780578063d46cf171146107a057600080fd5b80639ab24eb0116101135780639ab24eb014610631578063a0bcfc7f14610651578063a22cb46514610671578063a51cfd1814610691578063aa4fb15b146106c0578063b88d4fde146106e057600080fd5b8063715018a6146105a95780638da5cb5b146105be5780638e539e8c146105dc57806395d89b41146105fc578063975057e71461061157600080fd5b80633a46b1a8116101f3578063587cde1e116101ac578063587cde1e146104cd5780635c19a95c146105065780636352211e1461052657806364640c1e146105465780636ac6d9411461055c57806370a082311461058957600080fd5b80633a46b1a8146104215780633fafa1271461044157806342842e0e146104575780634ecba6251461047757806354c6d1f51461048d578063557e7155146104ad57600080fd5b806323b872dd1161024557806323b872dd146103535780632407497e14610373578063245a45b5146103935780632a596e53146103ce5780632b13c58f146103ee57806336c1a93b1461040157600080fd5b806301ffc9a71461028257806306fdde03146102b7578063081812fc146102d9578063095ea7b3146103115780631d153ca414610333575b600080fd5b34801561028e57600080fd5b506102a261029d3660046138a1565b610891565b60405190151581526020015b60405180910390f35b3480156102c357600080fd5b506102cc6108bc565b6040516102ae919061390e565b3480156102e557600080fd5b506102f96102f4366004613921565b61094e565b6040516001600160a01b0390911681526020016102ae565b34801561031d57600080fd5b5061033161032c36600461395f565b610975565b005b34801561033f57600080fd5b50600b546102f9906001600160a01b031681565b34801561035f57600080fd5b5061033161036e36600461398b565b610a01565b34801561037f57600080fd5b5061033161038e3660046139cc565b610a33565b34801561039f57600080fd5b506103c06103ae3660046139cc565b60116020526000908152604090205481565b6040519081526020016102ae565b3480156103da57600080fd5b506103316103e93660046139e9565b610adc565b6103316103fc366004613a76565b610b35565b34801561040d57600080fd5b5061033161041c366004613aee565b610d0f565b34801561042d57600080fd5b506103c061043c36600461395f565b610d71565b34801561044d57600080fd5b506103c060085481565b34801561046357600080fd5b5061033161047236600461398b565b610d9a565b34801561048357600080fd5b506103c060105481565b34801561049957600080fd5b506102f96104a8366004613921565b610db5565b3480156104b957600080fd5b50600d546102f9906001600160a01b031681565b3480156104d957600080fd5b506102f96104e83660046139cc565b6001600160a01b039081166000908152602081905260409020541690565b34801561051257600080fd5b506103316105213660046139cc565b610e61565b34801561053257600080fd5b506102f9610541366004613921565b610e6e565b34801561055257600080fd5b506103c0600f5481565b34801561056857600080fd5b5061057c610577366004613b2f565b610ea4565b6040516102ae9190613bc0565b34801561059557600080fd5b506103c06105a43660046139cc565b610fea565b3480156105b557600080fd5b50610331611060565b3480156105ca57600080fd5b50600a546001600160a01b03166102f9565b3480156105e857600080fd5b506103c06105f7366004613921565b611074565b34801561060857600080fd5b506102cc6110a1565b34801561061d57600080fd5b50600c546102f9906001600160a01b031681565b34801561063d57600080fd5b506103c061064c3660046139cc565b6110b0565b34801561065d57600080fd5b5061033161066c366004613bd3565b6110d1565b34801561067d57600080fd5b5061033161068c366004613c4b565b61118c565b34801561069d57600080fd5b506106b16106ac366004613a76565b61119b565b6040516102ae93929190613c84565b3480156106cc57600080fd5b506103316106db366004613cf6565b6113fa565b3480156106ec57600080fd5b506103316106fb366004613e54565b611617565b34801561070c57600080fd5b5061033161071b366004614155565b61164a565b34801561072c57600080fd5b506009546102f9906001600160a01b031681565b34801561074c57600080fd5b506102cc61075b366004613921565b611930565b34801561076c57600080fd5b5061033161077b366004613bd3565b611b87565b34801561078c57600080fd5b50600e546102f9906001600160a01b031681565b3480156107ac57600080fd5b506106b16107bb36600461428e565b611c3a565b6103316107ce3660046142c9565b611d1d565b3480156107df57600080fd5b506103316107ee3660046139cc565b611dd4565b3480156107ff57600080fd5b506102cc611e76565b34801561081457600080fd5b506102a2610823366004614304565b6001600160a01b03918216600090815260076020908152604080832093909416825291909152205460ff1690565b34801561085d57600080fd5b5061033161086c3660046139cc565b611eec565b34801561087d57600080fd5b5061033161088c366004614332565b611f67565b60006001600160e01b03198216631e68505960e31b14806108b657506108b68261214a565b92915050565b6060600380546108cb906143cc565b80601f01602080910402602001604051908101604052809291908181526020018280546108f7906143cc565b80156109445780601f1061091957610100808354040283529160200191610944565b820191906000526020600020905b81548152906001019060200180831161092757829003601f168201915b5050505050905090565b6000610959826121c0565b506000908152600660205260409020546001600160a01b031690565b600061098082610e6e565b9050806001600160a01b0316836001600160a01b0316036109b45760405163133f8be960e01b815260040160405180910390fd5b336001600160a01b038216148015906109d457506109d28133610823565b155b156109f25760405163e5fa0e3560e01b815260040160405180910390fd5b6109fc83836121f5565b505050565b610a0b3382612263565b610a285760405163e5fa0e3560e01b815260040160405180910390fd5b6109fc8383836122e2565b610a3b6123bb565b600c5460405163036129cb60e61b81526001600160a01b0383811660048301529091169063d84a72c090602401600060405180830381600087803b158015610a8257600080fd5b505af1158015610a96573d6000803e3d6000fd5b50506040513381526001600160a01b03841692507fe7784d93cfbfa4408e19577e6cc0436f4dbb51214b70e100905dfce9def88c1691506020015b60405180910390a250565b8060005b81811015610b2f576000848483818110610afc57610afc614400565b905060400201803603810190610b129190614416565b9050610b26816000015182602001516113fa565b50600101610ae0565b50505050565b34151580610bb75750600954600854604051636e49181f60e01b815260048101919091523360248201526001600160a01b0390911690636e49181f90604401602060405180830381865afa158015610b91573d6000803e3d6000fd5b505050506040513d601f19601f82011682018060405250810190610bb5919061446f565b155b80610bc85750600854816020013514155b15610be657604051633efca5c360e11b815260040160405180910390fd5b6024610bf66101c083018361448c565b90501080610c3a575063b3bcbb7960e01b610c156101c083018361448c565b610c24916024916020916144d2565b610c2d916144fc565b6001600160e01b03191614155b15610c5857604051632a84050f60e01b815260040160405180910390fd5b6000610c686101c083018361448c565b810190610c75919061452c565b925050506000815190506000805b82811015610d0557838181518110610c9d57610c9d614400565b60200260200101519150846000016020810190610cba91906139cc565b6000838152600560205260409020546001600160a01b03908116911614610cf45760405163075fd2b160e01b815260040160405180910390fd5b610cfd82612415565b600101610c83565b50610b2f83612496565b610d176123bb565b8060005b81811015610b2f5736848483818110610d3657610d36614400565b9050602002810190610d4891906145da565b9050610d67610d5782806145fa565b61057760408501602086016139cc565b5050600101610d1b565b6001600160a01b0382166000908152600160205260408120610d9390836124fb565b9392505050565b6109fc83838360405180602001604052806000815250611617565b600c546040516308ed6c0160e41b81523060048201526024810183905260009182916001600160a01b0390911690638ed6c01090604401602060405180830381865afa158015610e09573d6000803e3d6000fd5b505050506040513d601f19601f82011682018060405250810190610e2d919061464e565b90506001600160a01b03811615610e445792915050565b50506000908152600560205260409020546001600160a01b031690565b610e6b338261260a565b50565b6000818152600560205260408120546001600160a01b0316806108b65760405163b49aa3b560e01b815260040160405180910390fd5b6060610eae6123bb565b600c5460405163eaa19ab360e01b81526001600160a01b039091169063eaa19ab390610ee790600019908890889060019060040161466b565b6000604051808303816000875af1158015610f06573d6000803e3d6000fd5b505050506040513d6000823e601f3d908101601f19168201604052610f2e919081019061472e565b509050826000805b82811015610fe057838181518110610f5057610f50614400565b60200260200101519150610f64858361267c565b846001600160a01b0316878783818110610f8057610f80614400565b9050602002016020810190610f959190614774565b604080516000815233602082015261ffff929092169185917f598baf7bf150ca2f42be9e9f8f55e81d45f5715c3ff22bf46d697fabec7f31d6910160405180910390a4600101610f36565b5050509392505050565b600c54604051633de222bb60e21b81523060048201526001600160a01b038381166024830152600092169063f7888aec906044015b602060405180830381865afa15801561103c573d6000803e3d6000fd5b505050506040513d601f19601f820116820180604052508101906108b6919061478f565b6110686123bb565b6110726000612746565b565b6000438210611096576040516305b5e09b60e51b815260040160405180910390fd5b6108b66002836124fb565b6060600480546108cb906143cc565b6001600160a01b03811660009081526001602052604081206108b690612798565b6110d96123bb565b600c546040516331315e5960e11b81526001600160a01b0390911690636262bcb29061110b90859085906004016147a8565b600060405180830381600087803b15801561112557600080fd5b505af1158015611139573d6000803e3d6000fd5b50505050818160405161114d9291906147d7565b604051908190038120338252907f7bc9110d5de090dd59e07912d2b93a5a27ac70a60c8d8e324db4f9ee8b8b5c13906020015b60405180910390a25050565b6111973383836127f4565b5050565b60006060806080840135156111c3576040516309f82f1b60e31b815260040160405180910390fd5b60246111d36101c086018661448c565b90501080611217575063b3bcbb7960e01b6111f26101c086018661448c565b611201916024916020916144d2565b61120a916144fc565b6001600160e01b03191614155b1561123557604051632a84050f60e01b815260040160405180910390fd5b60408051600180825281830190925290816020015b604080518082019091526000808252602082015281526020019060019003908161124a5790505090506040518060400160405280306001600160a01b031681526020016000815250816000815181106112a5576112a5614400565b602090810291909101015260006112c06101c086018661448c565b8101906112cd919061452c565b9250505060006112dd8287612893565b905060006112ea87612907565b905060006112fd8860c001358484612938565b905061271088610180013503611368578061131c6101a08a018a61448c565b8782828080601f016020809104026020016040519081016040528093929190818152602001838380828437600092019190915250969d50919b509199506113f398505050505050505050565b61139e81611387856113816101808d01356127106147fd565b86612938565b611396906101808c0135614810565b612710612938565b6113ac6101a08a018a61448c565b8782828080601f016020809104026020016040519081016040528093929190818152602001838380828437600092019190915250969d50919b509199505050505050505050505b9193909250565b600d546008546040516321d1336160e11b815260048101919091526000916001600160a01b0316906343a266c29060240161012060405180830381865afa158015611449573d6000803e3d6000fd5b505050506040513d601f19601f8201168201806040525081019061146d9190614823565b61010081015190915060f51c60019081160361149c57604051631d2c125760e31b815260040160405180910390fd5b600c54604051635d53f40760e11b815260048101859052602481018490526000916001600160a01b03169063baa7e80e906044016000604051808303816000875af11580156114ef573d6000803e3d6000fd5b505050506040513d6000823e601f3d908101601f1916820160405261151791908101906148a3565b600c546040516304db994760e21b8152306004820152602481018790529192506000916001600160a01b039091169063136e651c90604401602060405180830381865afa15801561156c573d6000803e3d6000fd5b505050506040513d601f19601f82011682018060405250810190611590919061464e565b90506000805b8581101561160e578381815181106115b0576115b0614400565b602002602001015191506115c4838361267c565b6040513381526001600160a01b03841690889084907f031e1988c95a91ec4d655ff63a8f87a80bc9daf28d95ae10ee08c0022cfb5c8b9060200160405180910390a4600101611596565b50505050505050565b6116213383612263565b61163e5760405163e5fa0e3560e01b815260040160405180910390fd5b610b2f84848484612a04565b600b546001600160a01b0316300361166157600080fd5b600c546001600160a01b03161561167757600080fd5b6116838b8b8b8b612a38565b600d80546001600160a01b03808a166001600160a01b031992831617909255600c80548584169083161790556020850151600f5560408501516010556060850151600e8054919093169116179055855115611737576040516331315e5960e11b81526001600160a01b03831690636262bcb29061170490899060040161390e565b600060405180830381600087803b15801561171e57600080fd5b505af1158015611732573d6000803e3d6000fd5b505050505b83511561179d5760405163d67b78fd60e01b81526001600160a01b0383169063d67b78fd9061176a90879060040161390e565b600060405180830381600087803b15801561178457600080fd5b505af1158015611798573d6000803e3d6000fd5b505050505b6001600160a01b038516156118085760405163036129cb60e61b81526001600160a01b03868116600483015283169063d84a72c090602401600060405180830381600087803b1580156117ef57600080fd5b505af1158015611803573d6000803e3d6000fd5b505050505b8251511561188657825160405163eadd8b3760e01b81526001600160a01b0384169163eadd8b379161183d91906004016148d7565b6000604051808303816000875af115801561185c573d6000803e3d6000fd5b505050506040513d6000823e601f3d908101601f1916820160405261188491908101906148a3565b505b805180611894575080602001515b806118a0575080604001515b1561191a576040805163cdb0af6d60e01b815282511515600482015260208301511515602482015290820151151560448201526001600160a01b0383169063cdb0af6d90606401600060405180830381600087803b15801561190157600080fd5b505af1158015611915573d6000803e3d6000fd5b505050505b61192333612746565b5050505050505050505050565b6000818152600560205260409020546060906001600160a01b031661196357505060408051602081019091526000815290565b600c54604051630fab094760e01b81523060048201526000916001600160a01b031690630fab094790602401602060405180830381865afa1580156119ac573d6000803e3d6000fd5b505050506040513d601f19601f820116820180604052508101906119d0919061464e565b90506001600160a01b03811615611a4e57604051636d02a25560e11b8152600481018490526001600160a01b0382169063da0544aa90602401600060405180830381865afa158015611a26573d6000803e3d6000fd5b505050506040513d6000823e601f3d908101601f19168201604052610d9391908101906149b0565b600c5460405163f682eeaf60e01b815230600482015273__$2e464bbf4a8803569df10b07372aceee57$__9163030cecc7916001600160a01b039091169063f682eeaf90602401600060405180830381865afa158015611ab2573d6000803e3d6000fd5b505050506040513d6000823e601f3d908101601f19168201604052611ada91908101906149b0565b600c54604051630c8df17160e41b8152306004820152602481018890526001600160a01b039091169063c8df171090604401602060405180830381865afa158015611b29573d6000803e3d6000fd5b505050506040513d601f19601f82011682018060405250810190611b4d919061478f565b6040518363ffffffff1660e01b8152600401611b6a929190614a26565b600060405180830381865af4158015611a26573d6000803e3d6000fd5b611b8f6123bb565b600c5460405163d67b78fd60e01b81526001600160a01b039091169063d67b78fd90611bc190859085906004016147a8565b600060405180830381600087803b158015611bdb57600080fd5b505af1158015611bef573d6000803e3d6000fd5b505050508181604051611c039291906147d7565b604051908190038120338252907fd36dc0c1a06103fdcaf15f3f6fb797d1a97997514c78de073640c8b5005454b890602001611180565b610120810135606080611c5161016085018561448c565b8080601f01602080910402602001604051908101604052809392919081815260200183838082843760009201919091525092945060019250611c91915050565b604051908082528060200260200182016040528015611cd657816020015b6040805180820190915260008082526020820152815260200190600190039081611caf5790505b5090506040518060400160405280306001600160a01b03168152602001600081525081600081518110611d0b57611d0b614400565b60200260200101819052509193909250565b60085434151580611d9e5750600954604051636e49181f60e01b8152600481018390523360248201526001600160a01b0390911690636e49181f90604401602060405180830381865afa158015611d78573d6000803e3d6000fd5b505050506040513d601f19601f82011682018060405250810190611d9c919061446f565b155b80611dad575080826020013514155b15611dcb576040516331c57b1b60e21b815260040160405180910390fd5b61119782612a6b565b611ddc6123bb565b600c546040516317161f7d60e01b81526001600160a01b038381166004830152909116906317161f7d90602401600060405180830381600087803b158015611e2357600080fd5b505af1158015611e37573d6000803e3d6000fd5b50506040513381526001600160a01b03841692507fab0014d4c7a642a02a31b303a318908c22b0fb2001f107278fc6076b4c671b659150602001610ad1565b600c54604051630155619b60e71b81523060048201526060916001600160a01b03169063aab0cd8090602401600060405180830381865afa158015611ebf573d6000803e3d6000fd5b505050506040513d6000823e601f3d908101601f19168201604052611ee791908101906149b0565b905090565b611ef46123bb565b6001600160a01b038116611f5e5760405162461bcd60e51b815260206004820152602660248201527f4f776e61626c653a206e6577206f776e657220697320746865207a65726f206160448201526564647265737360d01b60648201526084015b60405180910390fd5b610e6b81612746565b611f6f6123bb565b8281801561203f57600c546040516320512ba160e01b81526001600160a01b03909116906320512ba190611fa99087908790600401614a48565b600060405180830381600087803b158015611fc357600080fd5b505af1158015611fd7573d6000803e3d6000fd5b5050505060005b8181101561203d57848482818110611ff857611ff8614400565b60405133815260209182029390930135927f832d89d991be5351d793c20faf4b7dd44f8aa9ce39e3cb160c6317de6fbba72992500160405180910390a2600101611fde565b505b811561214257600c5460405163eadd8b3760e01b81526000916001600160a01b03169063eadd8b3790612078908a908a90600401614b5e565b6000604051808303816000875af1158015612097573d6000803e3d6000fd5b505050506040513d6000823e601f3d908101601f191682016040526120bf91908101906148a3565b905060005b8381101561213f578181815181106120de576120de614400565b60200260200101517f85b5b4c4e44e342c8dac3c3a5364494d455043decb9f4bb8e7e0a3020d22fed489898481811061211957612119614400565b905061014002013360405161212f929190614ba1565b60405180910390a26001016120c4565b50505b505050505050565b60006001600160e01b0319821663b3bcbb7960e01b148061217b57506001600160e01b031982166371700c6960e01b145b8061219657506001600160e01b0319821663da9ee8b760e01b145b806121b157506001600160e01b03198216632b13c58f60e01b145b806108b657506108b682612d51565b6000818152600560205260409020546001600160a01b0316610e6b5760405163b49aa3b560e01b815260040160405180910390fd5b600081815260066020526040902080546001600160a01b0319166001600160a01b038416908117909155819061222a82610e6e565b6001600160a01b03167f8c5be1e5ebec7d5bd14f71427d1e84f3dd0314c0f7b2291e5b200ac8c7c3b92560405160405180910390a45050565b60008061226f83610e6e565b9050806001600160a01b0316846001600160a01b031614806122b657506001600160a01b0380821660009081526007602090815260408083209388168352929052205460ff165b806122da5750836001600160a01b03166122cf8461094e565b6001600160a01b0316145b949350505050565b826001600160a01b03166122f582610e6e565b6001600160a01b03161461231c5760405163a195bc5360e01b815260040160405180910390fd5b6001600160a01b03821661234357604051632c95542760e01b815260040160405180910390fd5b61234e838383612da1565b6123596000826121f5565b60008181526005602052604080822080546001600160a01b0319166001600160a01b0386811691821790925591518493918716917fddf252ad1be2c89b69c2b068fc378daa952ba7f163c4a11628f55a4df523b3ef91a46109fc838383612fce565b600a546001600160a01b031633146110725760405162461bcd60e51b815260206004820181905260248201527f4f776e61626c653a2063616c6c6572206973206e6f7420746865206f776e65726044820152606401611f55565b600061242082610e6e565b905061242e81600084612da1565b6124396000836121f5565b60008281526005602052604080822080546001600160a01b0319169055518391906001600160a01b038416907fddf252ad1be2c89b69c2b068fc378daa952ba7f163c4a11628f55a4df523b3ef908390a461119781600084612fce565b600c546040516386bc2be360e01b81526001600160a01b03909116906386bc2be3906124c6908490600401613bc0565b600060405180830381600087803b1580156124e057600080fd5b505af11580156124f4573d6000803e3d6000fd5b5050505050565b600043821061254c5760405162461bcd60e51b815260206004820181905260248201527f436865636b706f696e74733a20626c6f636b206e6f7420796574206d696e65646044820152606401611f55565b825460005b818110156125b157600061256582846130c7565b90508486600001828154811061257d5761257d614400565b60009182526020909120015463ffffffff16111561259d578092506125ab565b6125a8816001614810565b91505b50612551565b81156125f557846125c36001846147fd565b815481106125d3576125d3614400565b60009182526020909120015464010000000090046001600160e01b03166125f8565b60005b6001600160e01b031695945050505050565b6001600160a01b0382811660008181526020819052604080822080548686166001600160a01b0319821681179092559151919094169392849290917f3134e8a2e6d97e929a7e54011ea5485d7d196dd5f0ba4d4ef95803e8e3fc257f9190a46109fc8183612677866130e2565b61311b565b6001600160a01b0382166126a357604051633904578f60e11b815260040160405180910390fd5b6000818152600560205260409020546001600160a01b0316156126d957604051632eb5f0c360e21b815260040160405180910390fd5b6126e560008383612da1565b60008181526005602052604080822080546001600160a01b0319166001600160a01b03861690811790915590518392907fddf252ad1be2c89b69c2b068fc378daa952ba7f163c4a11628f55a4df523b3ef908290a461119760008383612fce565b600a80546001600160a01b038381166001600160a01b0319831681179093556040519116919082907f8be0079c531659141344cd1fd0a4f28419497f9722a3daafe3b4186f6b6457e090600090a35050565b805460009080156127e157826127af6001836147fd565b815481106127bf576127bf614400565b60009182526020909120015464010000000090046001600160e01b03166127e4565b60005b6001600160e01b03169392505050565b816001600160a01b0316836001600160a01b031603612826576040516306f8139d60e11b815260040160405180910390fd5b6001600160a01b03838116600081815260076020908152604080832094871680845294825291829020805460ff191686151590811790915591519182527f17307eab39ab6107e8899845ad3d59bd9653f200f220920489ca2b5937696c31910160405180910390a3505050565b600c5460405163051330b560e21b81526000916001600160a01b03169063144cc2d4906128c69030908790600401614bc9565b602060405180830381865afa1580156128e3573d6000803e3d6000fd5b505050506040513d601f19601f82011682018060405250810190610d93919061478f565b600c54604051631572f24960e11b81523060048201526000916001600160a01b031690632ae5e4929060240161101f565b60008080600019858709858702925082811083820303915050806000036129725783828161296857612968614bed565b0492505050610d93565b83811061299c57604051631dcf306360e21b81526004810182905260248101859052604401611f55565b600084868809600260036001881981018916988990049182028318808302840302808302840302808302840302808302840302808302840302918202909203026000889003889004909101858311909403939093029303949094049190911702949350505050565b612a0f8484846122e2565b612a1b84848484613258565b610b2f576040516336f57c1b60e11b815260040160405180910390fd5b612a42828261335a565b5050600891909155600980546001600160a01b0319166001600160a01b03909216919091179055565b600f5460009060c083013503612a8657506080810135612b3c565b600e546001600160a01b03161561119757601054612b3990608084013590612aaf90600a614ce7565b600e54600f54604051635268657960e11b815260c08801356004820152602481019190915260a087013560448201526001600160a01b039091169063a4d0caf290606401602060405180830381865afa158015612b10573d6000803e3d6000fd5b505050506040513d601f19601f82011682018060405250810190612b34919061478f565b612938565b90505b6000601181612b536101a0860161018087016139cc565b6001600160a01b0316815260208101919091526040016000908120549150612b7b8284614810565b90506000806044612b906101e088018861448c565b9050118015612bd4575063b3bcbb7960e01b612bb06101e088018861448c565b612bbf916044916040916144d2565b612bc8916144fc565b6001600160e01b031916145b15612c715760006060612beb6101e089018961448c565b810190612bf89190614cf3565b919950975090955093505083159150612c489050578460116000612c246101a08c016101808d016139cc565b6001600160a01b031681526020810191909152604001600020555050505050505050565b805115612c6e57612c6b8582612c666101a08c016101808d016139cc565b613373565b94505b50505b8215612d1257612c9383612c8d6101a089016101808a016139cc565b846134b5565b92508215612cf0578015612cba57604051631b57826960e21b815260040160405180910390fd5b8260116000612cd16101a08a016101808b016139cc565b6001600160a01b03168152602081019190915260400160002055612142565b8315612d0d576000601181612cd16101a08a016101808b016139cc565b612142565b8315612142576000601181612d2f6101a08a016101808b016139cc565b6001600160a01b03168152602081019190915260400160002055505050505050565b60006001600160e01b031982166380ac58cd60e01b1480612d8257506001600160e01b03198216635b5e139f60e01b145b806108b657506301ffc9a760e01b6001600160e01b03198316146108b6565b6001600160a01b038316156109fc57600c5460405163b67cb04760e01b8152306004820152602481018390526000916001600160a01b03169063b67cb0479060440161016060405180830381865afa158015612e01573d6000803e3d6000fd5b505050506040513d601f19601f82011682018060405250810190612e259190614dea565b905080610140015115612eea57600d546008546040516321d1336160e11b815260048101919091526000916001600160a01b0316906343a266c29060240161012060405180830381865afa158015612e81573d6000803e3d6000fd5b505050506040513d601f19601f82011682018060405250810190612ea59190614823565b90506001600160a01b03841615801590612eca575061010081015160f41c6001908116145b15612ee8576040516318cdaf9760e01b815260040160405180910390fd5b505b600c546040516308ed6c0160e41b8152306004820152602481018490526000916001600160a01b031690638ed6c01090604401602060405180830381865afa158015612f3a573d6000803e3d6000fd5b505050506040513d601f19601f82011682018060405250810190612f5e919061464e565b6001600160a01b031603610b2f57600c54604051638cec7d3960e01b8152600481018490526001600160a01b03868116602483015290911690638cec7d3990604401600060405180830381600087803b158015612fba57600080fd5b505af115801561213f573d6000803e3d6000fd5b600c5460405163b67cb04760e01b8152306004820152602481018390526000916001600160a01b03169063b67cb0479060440161016060405180830381865afa15801561301f573d6000803e3d6000fd5b505050506040513d601f19601f820116820180604052508101906130439190614dea565b600c5481516040516330b157e560e21b815260048101919091526001600160a01b038781166024830152868116604483015292935091169063c2c55f9490606401600060405180830381600087803b15801561309e57600080fd5b505af11580156130b2573d6000803e3d6000fd5b505050506130c2848484846135bf565b610b2f565b60006130d66002848418614e8c565b610d9390848416614810565b600c54604051631266aaaf60e31b81523060048201526001600160a01b038381166024830152600092169063933555789060440161101f565b816001600160a01b0316836001600160a01b03161415801561313d5750600081115b156109fc576001600160a01b038316156131cb576001600160a01b03831660009081526001602052604081208190613178906135d8856135e4565b91509150846001600160a01b03167fdec2bacdd2f05b59de34da9b523dff8be42e5e38e818c82fdb0bae774387a72483836040516131c0929190918252602082015260400190565b60405180910390a250505b6001600160a01b038216156109fc576001600160a01b0382166000908152600160205260408120819061320190613612856135e4565b91509150836001600160a01b03167fdec2bacdd2f05b59de34da9b523dff8be42e5e38e818c82fdb0bae774387a7248383604051613249929190918252602082015260400190565b60405180910390a25050505050565b60006001600160a01b0384163b1561334f57604051630a85bd0160e11b81526001600160a01b0385169063150b7a029061329c903390899088908890600401614eae565b6020604051808303816000875af19250505080156132d7575060408051601f3d908101601f191682019092526132d491810190614eeb565b60015b613335573d808015613305576040519150601f19603f3d011682016040523d82523d6000602084013e61330a565b606091505b50805160000361332d576040516336f57c1b60e11b815260040160405180910390fd5b805181602001fd5b6001600160e01b031916630a85bd0160e11b1490506122da565b506001949350505050565b60036133668382614f4e565b5060046109fc8282614f4e565b600c5460405163eaa19ab360e01b81526000916060916001600160a01b039091169063eaa19ab3906133ad9088908890879060040161500d565b6000604051808303816000875af11580156133cc573d6000803e3d6000fd5b505050506040513d6000823e601f3d908101601f191682016040526133f4919081019061472e565b81519093509091506000805b828110156134aa5783818151811061341a5761341a614400565b6020026020010151915061342e868361267c565b856001600160a01b031687828151811061344a5761344a614400565b602002602001015161ffff16837f598baf7bf150ca2f42be9e9f8f55e81d45f5715c3ff22bf46d697fabec7f31d68b3360405161349a9291909182526001600160a01b0316602082015260400190565b60405180910390a4600101613400565b505050509392505050565b600c5460405163879791f360e01b815260048101859052600091829182916001600160a01b03169063879791f3906024016060604051808303816000875af1158015613505573d6000803e3d6000fd5b505050506040513d601f19601f82011682018060405250810190613529919061506a565b94509092509050600082900361355f57831561355857604051630e5313df60e41b815260040160405180910390fd5b5050610d93565b613569858361267c565b6001600160a01b03851681837f598baf7bf150ca2f42be9e9f8f55e81d45f5715c3ff22bf46d697fabec7f31d66135a0878b6147fd565b604080519182523360208301520160405180910390a450509392505050565b60a081015115610b2f57610b2f84848360a0015161361e565b6000610d9382846147fd565b600080613606856136016135f788612798565b868863ffffffff16565b61368e565b91509150935093915050565b6000610d938284614810565b6001600160a01b03831661363d5761363a6002613612836135e4565b50505b6001600160a01b03821661365c5761365960026135d8836135e4565b50505b6001600160a01b038381166000908152602081905260408082205485841683529120546109fc9291821691168361311b565b815460009081908161369f86612798565b90506000821180156136dd575043866136b96001856147fd565b815481106136c9576136c9614400565b60009182526020909120015463ffffffff16145b1561373d576136eb856137b9565b866136f76001856147fd565b8154811061370757613707614400565b9060005260206000200160000160046101000a8154816001600160e01b0302191690836001600160e01b031602179055506137ab565b85600001604051806040016040528061375543613826565b63ffffffff168152602001613769886137b9565b6001600160e01b0390811690915282546001810184556000938452602093849020835194909301519091166401000000000263ffffffff909316929092179101555b9250839150505b9250929050565b60006001600160e01b038211156138225760405162461bcd60e51b815260206004820152602760248201527f53616665436173743a2076616c756520646f65736e27742066697420696e20326044820152663234206269747360c81b6064820152608401611f55565b5090565b600063ffffffff8211156138225760405162461bcd60e51b815260206004820152602660248201527f53616665436173743a2076616c756520646f65736e27742066697420696e203360448201526532206269747360d01b6064820152608401611f55565b6001600160e01b031981168114610e6b57600080fd5b6000602082840312156138b357600080fd5b8135610d938161388b565b60005b838110156138d95781810151838201526020016138c1565b50506000910152565b600081518084526138fa8160208601602086016138be565b601f01601f19169290920160200192915050565b602081526000610d9360208301846138e2565b60006020828403121561393357600080fd5b5035919050565b6001600160a01b0381168114610e6b57600080fd5b803561395a8161393a565b919050565b6000806040838503121561397257600080fd5b823561397d8161393a565b946020939093013593505050565b6000806000606084860312156139a057600080fd5b83356139ab8161393a565b925060208401356139bb8161393a565b929592945050506040919091013590565b6000602082840312156139de57600080fd5b8135610d938161393a565b600080602083850312156139fc57600080fd5b82356001600160401b0380821115613a1357600080fd5b818501915085601f830112613a2757600080fd5b813581811115613a3657600080fd5b8660208260061b8501011115613a4b57600080fd5b60209290920196919550909350505050565b60006101e08284031215613a7057600080fd5b50919050565b600060208284031215613a8857600080fd5b81356001600160401b03811115613a9e57600080fd5b6122da84828501613a5d565b60008083601f840112613abc57600080fd5b5081356001600160401b03811115613ad357600080fd5b6020830191508360208260051b85010111156137b257600080fd5b60008060208385031215613b0157600080fd5b82356001600160401b03811115613b1757600080fd5b613b2385828601613aaa565b90969095509350505050565b600080600060408486031215613b4457600080fd5b83356001600160401b03811115613b5a57600080fd5b613b6686828701613aaa565b9094509250506020840135613b7a8161393a565b809150509250925092565b600081518084526020808501945080840160005b83811015613bb557815187529582019590820190600101613b99565b509495945050505050565b602081526000610d936020830184613b85565b60008060208385031215613be657600080fd5b82356001600160401b0380821115613bfd57600080fd5b818501915085601f830112613c1157600080fd5b813581811115613c2057600080fd5b866020828501011115613a4b57600080fd5b8015158114610e6b57600080fd5b803561395a81613c32565b60008060408385031215613c5e57600080fd5b8235613c698161393a565b91506020830135613c7981613c32565b809150509250929050565b83815260006020606081840152613c9e60608401866138e2565b83810360408581019190915285518083528387019284019060005b81811015613ce757845180516001600160a01b03168452860151868401529385019391830191600101613cb9565b50909998505050505050505050565b60008060408385031215613d0957600080fd5b50508035926020909101359150565b634e487b7160e01b600052604160045260246000fd5b604051608081016001600160401b0381118282101715613d5057613d50613d18565b60405290565b60405161014081016001600160401b0381118282101715613d5057613d50613d18565b60405161012081016001600160401b0381118282101715613d5057613d50613d18565b60405161016081016001600160401b0381118282101715613d5057613d50613d18565b604051601f8201601f191681016001600160401b0381118282101715613de757613de7613d18565b604052919050565b60006001600160401b03821115613e0857613e08613d18565b50601f01601f191660200190565b6000613e29613e2484613def565b613dbf565b9050828152838383011115613e3d57600080fd5b828260208301376000602084830101529392505050565b60008060008060808587031215613e6a57600080fd5b8435613e758161393a565b93506020850135613e858161393a565b92506040850135915060608501356001600160401b03811115613ea757600080fd5b8501601f81018713613eb857600080fd5b613ec787823560208401613e16565b91505092959194509250565b600082601f830112613ee457600080fd5b610d9383833560208501613e16565b60006001600160401b03821115613f0c57613f0c613d18565b5060051b60200190565b803569ffffffffffffffffffff8116811461395a57600080fd5b803565ffffffffffff8116811461395a57600080fd5b803564ffffffffff8116811461395a57600080fd5b803561ffff8116811461395a57600080fd5b60006080808385031215613f8057600080fd5b613f88613d2e565b915082356001600160401b03811115613fa057600080fd5b8301601f81018513613fb157600080fd5b80356020613fc1613e2483613ef3565b8281526101409283028401820192828201919089851115613fe157600080fd5b948301945b848610156140b05780868b031215613ffe5760008081fd5b614006613d56565b61400f87613f16565b815261401c858801613f30565b85820152604061402d818901613f46565b90820152606061403e888201613f5b565b9082015261404d878901613f5b565b8882015260a061405e81890161394f565b9082015260c0878101359082015260e0614079818901613c40565b9082015261010061408b888201613c40565b9082015261012061409d888201613c40565b9082015283529485019491830191613fe6565b508652508581013590850152505050604080830135908201526140d56060830161394f565b606082015292915050565b6000606082840312156140f257600080fd5b604051606081018181106001600160401b038211171561411457614114613d18565b604052905080823561412581613c32565b8152602083013561413581613c32565b6020820152604083013561414881613c32565b6040919091015292915050565b60008060008060008060008060008060006101a08c8e03121561417757600080fd5b8b359a5061418760208d0161394f565b99506001600160401b038060408e013511156141a257600080fd5b6141b28e60408f01358f01613ed3565b99508060608e013511156141c557600080fd5b6141d58e60608f01358f01613ed3565b98506141e360808e0161394f565b97508060a08e013511156141f657600080fd5b6142068e60a08f01358f01613ed3565b965061421460c08e0161394f565b95508060e08e0135111561422757600080fd5b6142378e60e08f01358f01613ed3565b9450806101008e0135111561424b57600080fd5b5061425d8d6101008e01358e01613f6d565b925061426c6101208d0161394f565b915061427c8d6101408e016140e0565b90509295989b509295989b9093969950565b6000602082840312156142a057600080fd5b81356001600160401b038111156142b657600080fd5b82016101a08185031215610d9357600080fd5b6000602082840312156142db57600080fd5b81356001600160401b038111156142f157600080fd5b82016102008185031215610d9357600080fd5b6000806040838503121561431757600080fd5b82356143228161393a565b91506020830135613c798161393a565b6000806000806040858703121561434857600080fd5b84356001600160401b038082111561435f57600080fd5b818701915087601f83011261437357600080fd5b81358181111561438257600080fd5b8860206101408302850101111561439857600080fd5b6020928301965094509086013590808211156143b357600080fd5b506143c087828801613aaa565b95989497509550505050565b600181811c908216806143e057607f821691505b602082108103613a7057634e487b7160e01b600052602260045260246000fd5b634e487b7160e01b600052603260045260246000fd5b60006040828403121561442857600080fd5b604051604081018181106001600160401b038211171561444a5761444a613d18565b604052823581526020928301359281019290925250919050565b805161395a81613c32565b60006020828403121561448157600080fd5b8151610d9381613c32565b6000808335601e198436030181126144a357600080fd5b8301803591506001600160401b038211156144bd57600080fd5b6020019150368190038213156137b257600080fd5b600080858511156144e257600080fd5b838611156144ef57600080fd5b5050820193919092039150565b6001600160e01b031981358181169160048510156145245780818660040360031b1b83161692505b505092915050565b60008060006060848603121561454157600080fd5b833592506020808501356145548161388b565b925060408501356001600160401b0381111561456f57600080fd5b8501601f8101871361458057600080fd5b803561458e613e2482613ef3565b81815260059190911b820183019083810190898311156145ad57600080fd5b928401925b828410156145cb578335825292840192908401906145b2565b80955050505050509250925092565b60008235603e198336030181126145f057600080fd5b9190910192915050565b6000808335601e1984360301811261461157600080fd5b8301803591506001600160401b0382111561462b57600080fd5b6020019150600581901b36038213156137b257600080fd5b805161395a8161393a565b60006020828403121561466057600080fd5b8151610d938161393a565b84815260606020808301829052908201849052600090859060808401835b878110156146b05761ffff61469d85613f5b565b1682529282019290820190600101614689565b50809350505050821515604083015295945050505050565b600082601f8301126146d957600080fd5b815160206146e9613e2483613ef3565b82815260059290921b8401810191818101908684111561470857600080fd5b8286015b84811015614723578051835291830191830161470c565b509695505050505050565b6000806040838503121561474157600080fd5b82516001600160401b0381111561475757600080fd5b614763858286016146c8565b925050602083015190509250929050565b60006020828403121561478657600080fd5b610d9382613f5b565b6000602082840312156147a157600080fd5b5051919050565b60208152816020820152818360408301376000818301604090810191909152601f909201601f19160101919050565b8183823760009101908152919050565b634e487b7160e01b600052601160045260246000fd5b818103818111156108b6576108b66147e7565b808201808211156108b6576108b66147e7565b6000610120828403121561483657600080fd5b61483e613d79565b825181526020830151602082015260408301516040820152606083015160608201526080830151608082015260a083015160a082015260c083015160c082015261488a60e08401614643565b60e0820152610100928301519281019290925250919050565b6000602082840312156148b557600080fd5b81516001600160401b038111156148cb57600080fd5b6122da848285016146c8565b602080825282518282018190526000919060409081850190868401855b828110156149a3578151805169ffffffffffffffffffff1685528681015165ffffffffffff16878601528581015164ffffffffff168686015260608082015161ffff908116918701919091526080808301519091169086015260a0808201516001600160a01b03169086015260c0808201519086015260e080820151151590860152610100808201511515908601526101209081015115159085015261014090930192908501906001016148f4565b5091979650505050505050565b6000602082840312156149c257600080fd5b81516001600160401b038111156149d857600080fd5b8201601f810184136149e957600080fd5b80516149f7613e2482613def565b818152856020838501011115614a0c57600080fd5b614a1d8260208301602086016138be565b95945050505050565b604081526000614a3960408301856138e2565b90508260208301529392505050565b6020808252810182905260006001600160fb1b03831115614a6857600080fd5b8260051b80856040850137919091016040019392505050565b614a9e82614a8e83613f16565b69ffffffffffffffffffff169052565b614aaa60208201613f30565b65ffffffffffff166020830152614ac360408201613f46565b64ffffffffff166040830152614adb60608201613f5b565b61ffff166060830152614af060808201613f5b565b61ffff166080830152614b0560a0820161394f565b6001600160a01b031660a083015260c08181013590830152614b2960e08201613c40565b151560e0830152610100614b3e828201613c40565b151590830152610120614b52828201613c40565b80151584830152610b2f565b6020808252810182905260008360408301825b85811015614b9757614b838284614a81565b610140928301929190910190600101614b71565b5095945050505050565b6101608101614bb08285614a81565b6001600160a01b03929092166101409190910152919050565b6001600160a01b03831681526040602082018190526000906122da90830184613b85565b634e487b7160e01b600052601260045260246000fd5b600181815b80851115614c3e578160001904821115614c2457614c246147e7565b80851615614c3157918102915b93841c9390800290614c08565b509250929050565b600082614c55575060016108b6565b81614c62575060006108b6565b8160018114614c785760028114614c8257614c9e565b60019150506108b6565b60ff841115614c9357614c936147e7565b50506001821b6108b6565b5060208310610133831016604e8410600b8410161715614cc1575081810a6108b6565b614ccb8383614c03565b8060001904821115614cdf57614cdf6147e7565b029392505050565b6000610d938383614c46565b600080600080600080600060e0888a031215614d0e57600080fd5b8735965060208089013596506040890135614d288161388b565b95506060890135614d3881613c32565b94506080890135614d4881613c32565b935060a0890135614d5881613c32565b925060c08901356001600160401b03811115614d7357600080fd5b8901601f81018b13614d8457600080fd5b8035614d92613e2482613ef3565b81815260059190911b8201830190838101908d831115614db157600080fd5b928401925b82841015614dd657614dc784613f5b565b82529284019290840190614db6565b809550505050505092959891949750929550565b60006101608284031215614dfd57600080fd5b614e05613d9c565b825181526020830151602082015260408301516040820152606083015160608201526080830151608082015260a083015160a082015260c083015160c0820152614e5160e08401614643565b60e08201526101008381015190820152610120614e6f818501614464565b90820152610140614e81848201614464565b908201529392505050565b600082614ea957634e487b7160e01b600052601260045260246000fd5b500490565b6001600160a01b0385811682528416602082015260408101839052608060608201819052600090614ee1908301846138e2565b9695505050505050565b600060208284031215614efd57600080fd5b8151610d938161388b565b601f8211156109fc57600081815260208120601f850160051c81016020861015614f2f5750805b601f850160051c820191505b8181101561214257828155600101614f3b565b81516001600160401b03811115614f6757614f67613d18565b614f7b81614f7584546143cc565b84614f08565b602080601f831160018114614fb05760008415614f985750858301515b600019600386901b1c1916600185901b178555612142565b600085815260208120601f198616915b82811015614fdf57888601518255948401946001909101908401614fc0565b5085821015614ffd5787850151600019600388901b60f8161c191681555b5050505050600190811b01905550565b6000606082018583526020606081850152818651808452608086019150828801935060005b8181101561505257845161ffff1683529383019391830191600101615032565b50508093505050508215156040830152949350505050565b60008060006060848603121561507f57600080fd5b835192506020840151915060408401519050925092509256fea264697066735822122048b0145359a38330d08d92dcc813e99b298c450a1ea1efad204517e36a0852c264736f6c63430008100033",
    "linkReferences": {
      "contracts/libraries/JBIpfsDecoder.sol": {
        "JBIpfsDecoder": [
          {
            "start": 6909,
            "length": 20
          }
        ]
      }
    }
  },
  "methodIdentifiers": {
    "adjustTiers((uint80,uint48,uint40,uint16,uint16,address,bytes32,bool,bool,bool)[],uint256[])": "f5a38e63",
    "approve(address,uint256)": "095ea7b3",
    "balanceOf(address)": "70a08231",
    "codeOrigin()": "1d153ca4",
    "contractURI()": "e8a3d485",
    "creditsOf(address)": "245a45b5",
    "delegate(address)": "5c19a95c",
    "delegates(address)": "587cde1e",
    "didPay((address,uint256,uint256,(address,uint256,uint256,uint256),(address,uint256,uint256,uint256),uint256,address,bool,string,bytes))": "da9ee8b7",
    "didRedeem((address,uint256,uint256,uint256,(address,uint256,uint256,uint256),(address,uint256,uint256,uint256),address,string,bytes))": "2b13c58f",
    "directory()": "c41c2f24",
    "firstOwnerOf(uint256)": "54c6d1f5",
    "fundingCycleStore()": "557e7155",
    "getApproved(uint256)": "081812fc",
    "getPastTotalSupply(uint256)": "8e539e8c",
    "getPastVotes(address,uint256)": "3a46b1a8",
    "getVotes(address)": "9ab24eb0",
    "initialize(uint256,address,string,string,address,string,address,string,((uint80,uint48,uint40,uint16,uint16,address,bytes32,bool,bool,bool)[],uint256,uint256,address),address,(bool,bool,bool))": "bb52b6e4",
    "isApprovedForAll(address,address)": "e985e9c5",
    "mintFor((uint16[],address)[])": "36c1a93b",
    "mintFor(uint16[],address)": "6ac6d941",
    "mintReservesFor((uint256,uint256)[])": "2a596e53",
    "mintReservesFor(uint256,uint256)": "aa4fb15b",
    "name()": "06fdde03",
    "owner()": "8da5cb5b",
    "ownerOf(uint256)": "6352211e",
    "payParams((address,address,(address,uint256,uint256,uint256),uint256,uint256,address,uint256,uint256,string,bytes))": "d46cf171",
    "prices()": "d3419bf3",
    "pricingCurrency()": "64640c1e",
    "pricingDecimals()": "4ecba625",
    "projectId()": "3fafa127",
    "redeemParams((address,address,uint256,uint256,uint256,uint256,uint256,(address,uint256,uint256,uint256),bool,uint256,string,bytes))": "a51cfd18",
    "renounceOwnership()": "715018a6",
    "safeTransferFrom(address,address,uint256)": "42842e0e",
    "safeTransferFrom(address,address,uint256,bytes)": "b88d4fde",
    "setApprovalForAll(address,bool)": "a22cb465",
    "setBaseUri(string)": "a0bcfc7f",
    "setContractUri(string)": "ccb4807b",
    "setDefaultReservedTokenBeneficiary(address)": "df487e26",
    "setTokenUriResolver(address)": "2407497e",
    "store()": "975057e7",
    "supportsInterface(bytes4)": "01ffc9a7",
    "symbol()": "95d89b41",
    "tokenURI(uint256)": "c87b56dd",
    "transferFrom(address,address,uint256)": "23b872dd",
    "transferOwnership(address)": "f2fde38b"
  },
  "id": 0
}