{
  "abi": [
    {
      "inputs": [],
      "name": "ALEADY_MINTED",
      "type": "error"
    },
    {
      "inputs": [],
      "name": "APPROVAL_TO_CURRENT_OWNER",
      "type": "error"
    },
    {
      "inputs": [],
      "name": "APPROVE_TO_CALLER",
      "type": "error"
    },
    {
      "inputs": [],
      "name": "BLOCK_NOT_YET_MINED",
      "type": "error"
    },
    {
      "inputs": [],
      "name": "CALLER_NOT_OWNER_OR_APPROVED",
      "type": "error"
    },
    {
      "inputs": [],
      "name": "INCORRECT_OWNER",
      "type": "error"
    },
    {
      "inputs": [],
      "name": "INVALID",
      "type": "error"
    },
    {
      "inputs": [],
      "name": "INVALID_PAYMENT_EVENT",
      "type": "error"
    },
    {
      "inputs": [],
      "name": "INVALID_REDEMPTION_EVENT",
      "type": "error"
    },
    {
      "inputs": [],
      "name": "INVALID_REDEMPTION_METADATA",
      "type": "error"
    },
    {
      "inputs": [],
      "name": "INVALID_TOKEN_ID",
      "type": "error"
    },
    {
      "inputs": [],
      "name": "MINT_TO_ZERO",
      "type": "error"
    },
    {
      "inputs": [],
      "name": "NOT_AVAILABLE",
      "type": "error"
    },
    {
      "inputs": [],
      "name": "OVERSPENDING",
      "type": "error"
    },
    {
      "inputs": [
        {
          "internalType": "uint256",
          "name": "prod1",
          "type": "uint256"
        },
        {
          "internalType": "uint256",
          "name": "denominator",
          "type": "uint256"
        }
      ],
      "name": "PRBMath__MulDivOverflow",
      "type": "error"
    },
    {
      "inputs": [],
      "name": "PRICING_RESOLVER_CHANGES_PAUSED",
      "type": "error"
    },
    {
      "inputs": [],
      "name": "RESERVED_TOKEN_MINTING_PAUSED",
      "type": "error"
    },
    {
      "inputs": [],
      "name": "SIGNATURE_EXPIRED",
      "type": "error"
    },
    {
      "inputs": [],
      "name": "TRANSFERS_PAUSED",
      "type": "error"
    },
    {
      "inputs": [],
      "name": "TRANSFER_TO_NON_IMPLEMENTER",
      "type": "error"
    },
    {
      "inputs": [],
      "name": "TRANSFER_TO_ZERO_ADDRESS",
      "type": "error"
    },
    {
      "inputs": [],
      "name": "UNAUTHORIZED",
      "type": "error"
    },
    {
      "inputs": [],
      "name": "UNEXPECTED_TOKEN_REDEEMED",
      "type": "error"
    },
    {
      "anonymous": false,
      "inputs": [
        {
          "indexed": true,
          "internalType": "uint256",
          "name": "tierId",
          "type": "uint256"
        },
        {
          "components": [
            {
              "internalType": "uint80",
              "name": "contributionFloor",
              "type": "uint80"
            },
            {
              "internalType": "uint48",
              "name": "lockedUntil",
              "type": "uint48"
            },
            {
              "internalType": "uint40",
              "name": "initialQuantity",
              "type": "uint40"
            },
            {
              "internalType": "uint16",
              "name": "votingUnits",
              "type": "uint16"
            },
            {
              "internalType": "uint16",
              "name": "reservedRate",
              "type": "uint16"
            },
            {
              "internalType": "address",
              "name": "reservedTokenBeneficiary",
              "type": "address"
            },
            {
              "internalType": "bytes32",
              "name": "encodedIPFSUri",
              "type": "bytes32"
            },
            {
              "internalType": "bool",
              "name": "allowManualMint",
              "type": "bool"
            },
            {
              "internalType": "bool",
              "name": "shouldUseBeneficiaryAsDefault",
              "type": "bool"
            },
            {
              "internalType": "bool",
              "name": "transfersPausable",
              "type": "bool"
            }
          ],
          "indexed": false,
          "internalType": "struct JB721TierParams",
          "name": "data",
          "type": "tuple"
        },
        {
          "indexed": false,
          "internalType": "address",
          "name": "caller",
          "type": "address"
        }
      ],
      "name": "AddTier",
      "type": "event"
    },
    {
      "anonymous": false,
      "inputs": [
        {
          "indexed": true,
          "internalType": "address",
          "name": "owner",
          "type": "address"
        },
        {
          "indexed": true,
          "internalType": "address",
          "name": "approved",
          "type": "address"
        },
        {
          "indexed": true,
          "internalType": "uint256",
          "name": "tokenId",
          "type": "uint256"
        }
      ],
      "name": "Approval",
      "type": "event"
    },
    {
      "anonymous": false,
      "inputs": [
        {
          "indexed": true,
          "internalType": "address",
          "name": "owner",
          "type": "address"
        },
        {
          "indexed": true,
          "internalType": "address",
          "name": "operator",
          "type": "address"
        },
        {
          "indexed": false,
          "internalType": "bool",
          "name": "approved",
          "type": "bool"
        }
      ],
      "name": "ApprovalForAll",
      "type": "event"
    },
    {
      "anonymous": false,
      "inputs": [
        {
          "indexed": true,
          "internalType": "address",
          "name": "delegator",
          "type": "address"
        },
        {
          "indexed": true,
          "internalType": "address",
          "name": "fromDelegate",
          "type": "address"
        },
        {
          "indexed": true,
          "internalType": "address",
          "name": "toDelegate",
          "type": "address"
        }
      ],
      "name": "DelegateChanged",
      "type": "event"
    },
    {
      "anonymous": false,
      "inputs": [
        {
          "indexed": true,
          "internalType": "address",
          "name": "delegate",
          "type": "address"
        },
        {
          "indexed": false,
          "internalType": "uint256",
          "name": "previousBalance",
          "type": "uint256"
        },
        {
          "indexed": false,
          "internalType": "uint256",
          "name": "newBalance",
          "type": "uint256"
        }
      ],
      "name": "DelegateVotesChanged",
      "type": "event"
    },
    {
      "anonymous": false,
      "inputs": [
        {
          "indexed": true,
          "internalType": "uint256",
          "name": "tokenId",
          "type": "uint256"
        },
        {
          "indexed": true,
          "internalType": "uint256",
          "name": "tierId",
          "type": "uint256"
        },
        {
          "indexed": true,
          "internalType": "address",
          "name": "beneficiary",
          "type": "address"
        },
        {
          "indexed": false,
          "internalType": "uint256",
          "name": "totalAmountContributed",
          "type": "uint256"
        },
        {
          "indexed": false,
          "internalType": "address",
          "name": "caller",
          "type": "address"
        }
      ],
      "name": "Mint",
      "type": "event"
    },
    {
      "anonymous": false,
      "inputs": [
        {
          "indexed": true,
          "internalType": "uint256",
          "name": "tokenId",
          "type": "uint256"
        },
        {
          "indexed": true,
          "internalType": "uint256",
          "name": "tierId",
          "type": "uint256"
        },
        {
          "indexed": true,
          "internalType": "address",
          "name": "beneficiary",
          "type": "address"
        },
        {
          "indexed": false,
          "internalType": "address",
          "name": "caller",
          "type": "address"
        }
      ],
      "name": "MintReservedToken",
      "type": "event"
    },
    {
      "anonymous": false,
      "inputs": [
        {
          "indexed": true,
          "internalType": "address",
          "name": "previousOwner",
          "type": "address"
        },
        {
          "indexed": true,
          "internalType": "address",
          "name": "newOwner",
          "type": "address"
        }
      ],
      "name": "OwnershipTransferred",
      "type": "event"
    },
    {
      "anonymous": false,
      "inputs": [
        {
          "indexed": true,
          "internalType": "uint256",
          "name": "tierId",
          "type": "uint256"
        },
        {
          "indexed": false,
          "internalType": "address",
          "name": "caller",
          "type": "address"
        }
      ],
      "name": "RemoveTier",
      "type": "event"
    },
    {
      "anonymous": false,
      "inputs": [
        {
          "indexed": true,
          "internalType": "string",
          "name": "baseUri",
          "type": "string"
        },
        {
          "indexed": false,
          "internalType": "address",
          "name": "caller",
          "type": "address"
        }
      ],
      "name": "SetBaseUri",
      "type": "event"
    },
    {
      "anonymous": false,
      "inputs": [
        {
          "indexed": true,
          "internalType": "string",
          "name": "contractUri",
          "type": "string"
        },
        {
          "indexed": false,
          "internalType": "address",
          "name": "caller",
          "type": "address"
        }
      ],
      "name": "SetContractUri",
      "type": "event"
    },
    {
      "anonymous": false,
      "inputs": [
        {
          "indexed": true,
          "internalType": "address",
          "name": "beneficiary",
          "type": "address"
        },
        {
          "indexed": false,
          "internalType": "address",
          "name": "caller",
          "type": "address"
        }
      ],
      "name": "SetDefaultReservedTokenBeneficiary",
      "type": "event"
    },
    {
      "anonymous": false,
      "inputs": [
        {
          "indexed": true,
          "internalType": "contract IJBTokenUriResolver",
          "name": "newResolver",
          "type": "address"
        },
        {
          "indexed": false,
          "internalType": "address",
          "name": "caller",
          "type": "address"
        }
      ],
      "name": "SetTokenUriResolver",
      "type": "event"
    },
    {
      "anonymous": false,
      "inputs": [
        {
          "indexed": true,
          "internalType": "address",
          "name": "from",
          "type": "address"
        },
        {
          "indexed": true,
          "internalType": "address",
          "name": "to",
          "type": "address"
        },
        {
          "indexed": true,
          "internalType": "uint256",
          "name": "tokenId",
          "type": "uint256"
        }
      ],
      "name": "Transfer",
      "type": "event"
    },
    {
      "inputs": [
        {
          "components": [
            {
              "internalType": "uint80",
              "name": "contributionFloor",
              "type": "uint80"
            },
            {
              "internalType": "uint48",
              "name": "lockedUntil",
              "type": "uint48"
            },
            {
              "internalType": "uint40",
              "name": "initialQuantity",
              "type": "uint40"
            },
            {
              "internalType": "uint16",
              "name": "votingUnits",
              "type": "uint16"
            },
            {
              "internalType": "uint16",
              "name": "reservedRate",
              "type": "uint16"
            },
            {
              "internalType": "address",
              "name": "reservedTokenBeneficiary",
              "type": "address"
            },
            {
              "internalType": "bytes32",
              "name": "encodedIPFSUri",
              "type": "bytes32"
            },
            {
              "internalType": "bool",
              "name": "allowManualMint",
              "type": "bool"
            },
            {
              "internalType": "bool",
              "name": "shouldUseBeneficiaryAsDefault",
              "type": "bool"
            },
            {
              "internalType": "bool",
              "name": "transfersPausable",
              "type": "bool"
            }
          ],
          "internalType": "struct JB721TierParams[]",
          "name": "_tiersToAdd",
          "type": "tuple[]"
        },
        {
          "internalType": "uint256[]",
          "name": "_tierIdsToRemove",
          "type": "uint256[]"
        }
      ],
      "name": "adjustTiers",
      "outputs": [],
      "stateMutability": "nonpayable",
      "type": "function"
    },
    {
      "inputs": [
        {
          "internalType": "address",
          "name": "to",
          "type": "address"
        },
        {
          "internalType": "uint256",
          "name": "tokenId",
          "type": "uint256"
        }
      ],
      "name": "approve",
      "outputs": [],
      "stateMutability": "nonpayable",
      "type": "function"
    },
    {
      "inputs": [
        {
          "internalType": "address",
          "name": "_owner",
          "type": "address"
        }
      ],
      "name": "balanceOf",
      "outputs": [
        {
          "internalType": "uint256",
          "name": "balance",
          "type": "uint256"
        }
      ],
      "stateMutability": "view",
      "type": "function"
    },
    {
      "inputs": [],
      "name": "codeOrigin",
      "outputs": [
        {
          "internalType": "address",
          "name": "",
          "type": "address"
        }
      ],
      "stateMutability": "view",
      "type": "function"
    },
    {
      "inputs": [],
      "name": "contractURI",
      "outputs": [
        {
          "internalType": "string",
          "name": "",
          "type": "string"
        }
      ],
      "stateMutability": "view",
      "type": "function"
    },
    {
      "inputs": [
        {
          "internalType": "address",
          "name": "",
          "type": "address"
        }
      ],
      "name": "creditsOf",
      "outputs": [
        {
          "internalType": "uint256",
          "name": "",
          "type": "uint256"
        }
      ],
      "stateMutability": "view",
      "type": "function"
    },
    {
      "inputs": [
        {
          "internalType": "address",
          "name": "delegatee",
          "type": "address"
        }
      ],
      "name": "delegate",
      "outputs": [],
      "stateMutability": "nonpayable",
      "type": "function"
    },
    {
      "inputs": [
        {
          "internalType": "address",
          "name": "account",
          "type": "address"
        }
      ],
      "name": "delegates",
      "outputs": [
        {
          "internalType": "address",
          "name": "",
          "type": "address"
        }
      ],
      "stateMutability": "view",
      "type": "function"
    },
    {
      "inputs": [
        {
          "components": [
            {
              "internalType": "address",
              "name": "payer",
              "type": "address"
            },
            {
              "internalType": "uint256",
              "name": "projectId",
              "type": "uint256"
            },
            {
              "internalType": "uint256",
              "name": "currentFundingCycleConfiguration",
              "type": "uint256"
            },
            {
              "components": [
                {
                  "internalType": "address",
                  "name": "token",
                  "type": "address"
                },
                {
                  "internalType": "uint256",
                  "name": "value",
                  "type": "uint256"
                },
                {
                  "internalType": "uint256",
                  "name": "decimals",
                  "type": "uint256"
                },
                {
                  "internalType": "uint256",
                  "name": "currency",
                  "type": "uint256"
                }
              ],
              "internalType": "struct JBTokenAmount",
              "name": "amount",
              "type": "tuple"
            },
            {
              "components": [
                {
                  "internalType": "address",
                  "name": "token",
                  "type": "address"
                },
                {
                  "internalType": "uint256",
                  "name": "value",
                  "type": "uint256"
                },
                {
                  "internalType": "uint256",
                  "name": "decimals",
                  "type": "uint256"
                },
                {
                  "internalType": "uint256",
                  "name": "currency",
                  "type": "uint256"
                }
              ],
              "internalType": "struct JBTokenAmount",
              "name": "forwardedAmount",
              "type": "tuple"
            },
            {
              "internalType": "uint256",
              "name": "projectTokenCount",
              "type": "uint256"
            },
            {
              "internalType": "address",
              "name": "beneficiary",
              "type": "address"
            },
            {
              "internalType": "bool",
              "name": "preferClaimedTokens",
              "type": "bool"
            },
            {
              "internalType": "string",
              "name": "memo",
              "type": "string"
            },
            {
              "internalType": "bytes",
              "name": "metadata",
              "type": "bytes"
            }
          ],
          "internalType": "struct JBDidPayData",
          "name": "_data",
          "type": "tuple"
        }
      ],
      "name": "didPay",
      "outputs": [],
      "stateMutability": "payable",
      "type": "function"
    },
    {
      "inputs": [
        {
          "components": [
            {
              "internalType": "address",
              "name": "holder",
              "type": "address"
            },
            {
              "internalType": "uint256",
              "name": "projectId",
              "type": "uint256"
            },
            {
              "internalType": "uint256",
              "name": "currentFundingCycleConfiguration",
              "type": "uint256"
            },
            {
              "internalType": "uint256",
              "name": "projectTokenCount",
              "type": "uint256"
            },
            {
              "components": [
                {
                  "internalType": "address",
                  "name": "token",
                  "type": "address"
                },
                {
                  "internalType": "uint256",
                  "name": "value",
                  "type": "uint256"
                },
                {
                  "internalType": "uint256",
                  "name": "decimals",
                  "type": "uint256"
                },
                {
                  "internalType": "uint256",
                  "name": "currency",
                  "type": "uint256"
                }
              ],
              "internalType": "struct JBTokenAmount",
              "name": "reclaimedAmount",
              "type": "tuple"
            },
            {
              "components": [
                {
                  "internalType": "address",
                  "name": "token",
                  "type": "address"
                },
                {
                  "internalType": "uint256",
                  "name": "value",
                  "type": "uint256"
                },
                {
                  "internalType": "uint256",
                  "name": "decimals",
                  "type": "uint256"
                },
                {
                  "internalType": "uint256",
                  "name": "currency",
                  "type": "uint256"
                }
              ],
              "internalType": "struct JBTokenAmount",
              "name": "forwardedAmount",
              "type": "tuple"
            },
            {
              "internalType": "address payable",
              "name": "beneficiary",
              "type": "address"
            },
            {
              "internalType": "string",
              "name": "memo",
              "type": "string"
            },
            {
              "internalType": "bytes",
              "name": "metadata",
              "type": "bytes"
            }
          ],
          "internalType": "struct JBDidRedeemData",
          "name": "_data",
          "type": "tuple"
        }
      ],
      "name": "didRedeem",
      "outputs": [],
      "stateMutability": "payable",
      "type": "function"
    },
    {
      "inputs": [],
      "name": "directory",
      "outputs": [
        {
          "internalType": "contract IJBDirectory",
          "name": "",
          "type": "address"
        }
      ],
      "stateMutability": "view",
      "type": "function"
    },
    {
      "inputs": [
        {
          "internalType": "uint256",
          "name": "_tokenId",
          "type": "uint256"
        }
      ],
      "name": "firstOwnerOf",
      "outputs": [
        {
          "internalType": "address",
          "name": "",
          "type": "address"
        }
      ],
      "stateMutability": "view",
      "type": "function"
    },
    {
      "inputs": [],
      "name": "fundingCycleStore",
      "outputs": [
        {
          "internalType": "contract IJBFundingCycleStore",
          "name": "",
          "type": "address"
        }
      ],
      "stateMutability": "view",
      "type": "function"
    },
    {
      "inputs": [
        {
          "internalType": "uint256",
          "name": "tokenId",
          "type": "uint256"
        }
      ],
      "name": "getApproved",
      "outputs": [
        {
          "internalType": "address",
          "name": "",
          "type": "address"
        }
      ],
      "stateMutability": "view",
      "type": "function"
    },
    {
      "inputs": [
        {
          "internalType": "uint256",
          "name": "blockNumber",
          "type": "uint256"
        }
      ],
      "name": "getPastTotalSupply",
      "outputs": [
        {
          "internalType": "uint256",
          "name": "",
          "type": "uint256"
        }
      ],
      "stateMutability": "view",
      "type": "function"
    },
    {
      "inputs": [
        {
          "internalType": "address",
          "name": "account",
          "type": "address"
        },
        {
          "internalType": "uint256",
          "name": "blockNumber",
          "type": "uint256"
        }
      ],
      "name": "getPastVotes",
      "outputs": [
        {
          "internalType": "uint256",
          "name": "",
          "type": "uint256"
        }
      ],
      "stateMutability": "view",
      "type": "function"
    },
    {
      "inputs": [
        {
          "internalType": "address",
          "name": "account",
          "type": "address"
        }
      ],
      "name": "getVotes",
      "outputs": [
        {
          "internalType": "uint256",
          "name": "",
          "type": "uint256"
        }
      ],
      "stateMutability": "view",
      "type": "function"
    },
    {
      "inputs": [
        {
          "internalType": "uint256",
          "name": "_projectId",
          "type": "uint256"
        },
        {
          "internalType": "contract IJBDirectory",
          "name": "_directory",
          "type": "address"
        },
        {
          "internalType": "string",
          "name": "_name",
          "type": "string"
        },
        {
          "internalType": "string",
          "name": "_symbol",
          "type": "string"
        },
        {
          "internalType": "contract IJBFundingCycleStore",
          "name": "_fundingCycleStore",
          "type": "address"
        },
        {
          "internalType": "string",
          "name": "_baseUri",
          "type": "string"
        },
        {
          "internalType": "contract IJBTokenUriResolver",
          "name": "_tokenUriResolver",
          "type": "address"
        },
        {
          "internalType": "string",
          "name": "_contractUri",
          "type": "string"
        },
        {
          "components": [
            {
              "components": [
                {
                  "internalType": "uint80",
                  "name": "contributionFloor",
                  "type": "uint80"
                },
                {
                  "internalType": "uint48",
                  "name": "lockedUntil",
                  "type": "uint48"
                },
                {
                  "internalType": "uint40",
                  "name": "initialQuantity",
                  "type": "uint40"
                },
                {
                  "internalType": "uint16",
                  "name": "votingUnits",
                  "type": "uint16"
                },
                {
                  "internalType": "uint16",
                  "name": "reservedRate",
                  "type": "uint16"
                },
                {
                  "internalType": "address",
                  "name": "reservedTokenBeneficiary",
                  "type": "address"
                },
                {
                  "internalType": "bytes32",
                  "name": "encodedIPFSUri",
                  "type": "bytes32"
                },
                {
                  "internalType": "bool",
                  "name": "allowManualMint",
                  "type": "bool"
                },
                {
                  "internalType": "bool",
                  "name": "shouldUseBeneficiaryAsDefault",
                  "type": "bool"
                },
                {
                  "internalType": "bool",
                  "name": "transfersPausable",
                  "type": "bool"
                }
              ],
              "internalType": "struct JB721TierParams[]",
              "name": "tiers",
              "type": "tuple[]"
            },
            {
              "internalType": "uint256",
              "name": "currency",
              "type": "uint256"
            },
            {
              "internalType": "uint256",
              "name": "decimals",
              "type": "uint256"
            },
            {
              "internalType": "contract IJBPrices",
              "name": "prices",
              "type": "address"
            }
          ],
          "internalType": "struct JB721PricingParams",
          "name": "_pricing",
          "type": "tuple"
        },
        {
          "internalType": "contract IJBTiered721DelegateStore",
          "name": "_store",
          "type": "address"
        },
        {
          "components": [
            {
              "internalType": "bool",
              "name": "lockReservedTokenChanges",
              "type": "bool"
            },
            {
              "internalType": "bool",
              "name": "lockVotingUnitChanges",
              "type": "bool"
            },
            {
              "internalType": "bool",
              "name": "lockManualMintingChanges",
              "type": "bool"
            },
            {
              "internalType": "bool",
              "name": "preventOverspending",
              "type": "bool"
            }
          ],
          "internalType": "struct JBTiered721Flags",
          "name": "_flags",
          "type": "tuple"
        }
      ],
      "name": "initialize",
      "outputs": [],
      "stateMutability": "nonpayable",
      "type": "function"
    },
    {
      "inputs": [
        {
          "internalType": "address",
          "name": "owner",
          "type": "address"
        },
        {
          "internalType": "address",
          "name": "operator",
          "type": "address"
        }
      ],
      "name": "isApprovedForAll",
      "outputs": [
        {
          "internalType": "bool",
          "name": "",
          "type": "bool"
        }
      ],
      "stateMutability": "view",
      "type": "function"
    },
    {
      "inputs": [
        {
          "components": [
            {
              "internalType": "uint16[]",
              "name": "tierIds",
              "type": "uint16[]"
            },
            {
              "internalType": "address",
              "name": "beneficiary",
              "type": "address"
            }
          ],
          "internalType": "struct JBTiered721MintForTiersData[]",
          "name": "_mintForTiersData",
          "type": "tuple[]"
        }
      ],
      "name": "mintFor",
      "outputs": [],
      "stateMutability": "nonpayable",
      "type": "function"
    },
    {
      "inputs": [
        {
          "internalType": "uint16[]",
          "name": "_tierIds",
          "type": "uint16[]"
        },
        {
          "internalType": "address",
          "name": "_beneficiary",
          "type": "address"
        }
      ],
      "name": "mintFor",
      "outputs": [
        {
          "internalType": "uint256[]",
          "name": "tokenIds",
          "type": "uint256[]"
        }
      ],
      "stateMutability": "nonpayable",
      "type": "function"
    },
    {
      "inputs": [
        {
          "components": [
            {
              "internalType": "uint256",
              "name": "tierId",
              "type": "uint256"
            },
            {
              "internalType": "uint256",
              "name": "count",
              "type": "uint256"
            }
          ],
          "internalType": "struct JBTiered721MintReservesForTiersData[]",
          "name": "_mintReservesForTiersData",
          "type": "tuple[]"
        }
      ],
      "name": "mintReservesFor",
      "outputs": [],
      "stateMutability": "nonpayable",
      "type": "function"
    },
    {
      "inputs": [
        {
          "internalType": "uint256",
          "name": "_tierId",
          "type": "uint256"
        },
        {
          "internalType": "uint256",
          "name": "_count",
          "type": "uint256"
        }
      ],
      "name": "mintReservesFor",
      "outputs": [],
      "stateMutability": "nonpayable",
      "type": "function"
    },
    {
      "inputs": [],
      "name": "name",
      "outputs": [
        {
          "internalType": "string",
          "name": "",
          "type": "string"
        }
      ],
      "stateMutability": "view",
      "type": "function"
    },
    {
      "inputs": [],
      "name": "owner",
      "outputs": [
        {
          "internalType": "address",
          "name": "",
          "type": "address"
        }
      ],
      "stateMutability": "view",
      "type": "function"
    },
    {
      "inputs": [
        {
          "internalType": "uint256",
          "name": "tokenId",
          "type": "uint256"
        }
      ],
      "name": "ownerOf",
      "outputs": [
        {
          "internalType": "address",
          "name": "",
          "type": "address"
        }
      ],
      "stateMutability": "view",
      "type": "function"
    },
    {
      "inputs": [
        {
          "components": [
            {
              "internalType": "contract IJBPaymentTerminal",
              "name": "terminal",
              "type": "address"
            },
            {
              "internalType": "address",
              "name": "payer",
              "type": "address"
            },
            {
              "components": [
                {
                  "internalType": "address",
                  "name": "token",
                  "type": "address"
                },
                {
                  "internalType": "uint256",
                  "name": "value",
                  "type": "uint256"
                },
                {
                  "internalType": "uint256",
                  "name": "decimals",
                  "type": "uint256"
                },
                {
                  "internalType": "uint256",
                  "name": "currency",
                  "type": "uint256"
                }
              ],
              "internalType": "struct JBTokenAmount",
              "name": "amount",
              "type": "tuple"
            },
            {
              "internalType": "uint256",
              "name": "projectId",
              "type": "uint256"
            },
            {
              "internalType": "uint256",
              "name": "currentFundingCycleConfiguration",
              "type": "uint256"
            },
            {
              "internalType": "address",
              "name": "beneficiary",
              "type": "address"
            },
            {
              "internalType": "uint256",
              "name": "weight",
              "type": "uint256"
            },
            {
              "internalType": "uint256",
              "name": "reservedRate",
              "type": "uint256"
            },
            {
              "internalType": "string",
              "name": "memo",
              "type": "string"
            },
            {
              "internalType": "bytes",
              "name": "metadata",
              "type": "bytes"
            }
          ],
          "internalType": "struct JBPayParamsData",
          "name": "_data",
          "type": "tuple"
        }
      ],
      "name": "payParams",
      "outputs": [
        {
          "internalType": "uint256",
          "name": "weight",
          "type": "uint256"
        },
        {
          "internalType": "string",
          "name": "memo",
          "type": "string"
        },
        {
          "components": [
            {
              "internalType": "contract IJBPayDelegate",
              "name": "delegate",
              "type": "address"
            },
            {
              "internalType": "uint256",
              "name": "amount",
              "type": "uint256"
            }
          ],
          "internalType": "struct JBPayDelegateAllocation[]",
          "name": "delegateAllocations",
          "type": "tuple[]"
        }
      ],
      "stateMutability": "view",
      "type": "function"
    },
    {
      "inputs": [],
      "name": "prices",
      "outputs": [
        {
          "internalType": "contract IJBPrices",
          "name": "",
          "type": "address"
        }
      ],
      "stateMutability": "view",
      "type": "function"
    },
    {
      "inputs": [],
      "name": "pricingCurrency",
      "outputs": [
        {
          "internalType": "uint256",
          "name": "",
          "type": "uint256"
        }
      ],
      "stateMutability": "view",
      "type": "function"
    },
    {
      "inputs": [],
      "name": "pricingDecimals",
      "outputs": [
        {
          "internalType": "uint256",
          "name": "",
          "type": "uint256"
        }
      ],
      "stateMutability": "view",
      "type": "function"
    },
    {
      "inputs": [],
      "name": "projectId",
      "outputs": [
        {
          "internalType": "uint256",
          "name": "",
          "type": "uint256"
        }
      ],
      "stateMutability": "view",
      "type": "function"
    },
    {
      "inputs": [
        {
          "components": [
            {
              "internalType": "contract IJBPaymentTerminal",
              "name": "terminal",
              "type": "address"
            },
            {
              "internalType": "address",
              "name": "holder",
              "type": "address"
            },
            {
              "internalType": "uint256",
              "name": "projectId",
              "type": "uint256"
            },
            {
              "internalType": "uint256",
              "name": "currentFundingCycleConfiguration",
              "type": "uint256"
            },
            {
              "internalType": "uint256",
              "name": "tokenCount",
              "type": "uint256"
            },
            {
              "internalType": "uint256",
              "name": "totalSupply",
              "type": "uint256"
            },
            {
              "internalType": "uint256",
              "name": "overflow",
              "type": "uint256"
            },
            {
              "components": [
                {
                  "internalType": "address",
                  "name": "token",
                  "type": "address"
                },
                {
                  "internalType": "uint256",
                  "name": "value",
                  "type": "uint256"
                },
                {
                  "internalType": "uint256",
                  "name": "decimals",
                  "type": "uint256"
                },
                {
                  "internalType": "uint256",
                  "name": "currency",
                  "type": "uint256"
                }
              ],
              "internalType": "struct JBTokenAmount",
              "name": "reclaimAmount",
              "type": "tuple"
            },
            {
              "internalType": "bool",
              "name": "useTotalOverflow",
              "type": "bool"
            },
            {
              "internalType": "uint256",
              "name": "redemptionRate",
              "type": "uint256"
            },
            {
              "internalType": "string",
              "name": "memo",
              "type": "string"
            },
            {
              "internalType": "bytes",
              "name": "metadata",
              "type": "bytes"
            }
          ],
          "internalType": "struct JBRedeemParamsData",
          "name": "_data",
          "type": "tuple"
        }
      ],
      "name": "redeemParams",
      "outputs": [
        {
          "internalType": "uint256",
          "name": "reclaimAmount",
          "type": "uint256"
        },
        {
          "internalType": "string",
          "name": "memo",
          "type": "string"
        },
        {
          "components": [
            {
              "internalType": "contract IJBRedemptionDelegate",
              "name": "delegate",
              "type": "address"
            },
            {
              "internalType": "uint256",
              "name": "amount",
              "type": "uint256"
            }
          ],
          "internalType": "struct JBRedemptionDelegateAllocation[]",
          "name": "delegateAllocations",
          "type": "tuple[]"
        }
      ],
      "stateMutability": "view",
      "type": "function"
    },
    {
      "inputs": [
        {
          "internalType": "uint256[]",
          "name": "_tokenIds",
          "type": "uint256[]"
        },
        {
          "components": [
            {
              "internalType": "contract IJBPaymentTerminal",
              "name": "terminal",
              "type": "address"
            },
            {
              "internalType": "address",
              "name": "holder",
              "type": "address"
            },
            {
              "internalType": "uint256",
              "name": "projectId",
              "type": "uint256"
            },
            {
              "internalType": "uint256",
              "name": "currentFundingCycleConfiguration",
              "type": "uint256"
            },
            {
              "internalType": "uint256",
              "name": "tokenCount",
              "type": "uint256"
            },
            {
              "internalType": "uint256",
              "name": "totalSupply",
              "type": "uint256"
            },
            {
              "internalType": "uint256",
              "name": "overflow",
              "type": "uint256"
            },
            {
              "components": [
                {
                  "internalType": "address",
                  "name": "token",
                  "type": "address"
                },
                {
                  "internalType": "uint256",
                  "name": "value",
                  "type": "uint256"
                },
                {
                  "internalType": "uint256",
                  "name": "decimals",
                  "type": "uint256"
                },
                {
                  "internalType": "uint256",
                  "name": "currency",
                  "type": "uint256"
                }
              ],
              "internalType": "struct JBTokenAmount",
              "name": "reclaimAmount",
              "type": "tuple"
            },
            {
              "internalType": "bool",
              "name": "useTotalOverflow",
              "type": "bool"
            },
            {
              "internalType": "uint256",
              "name": "redemptionRate",
              "type": "uint256"
            },
            {
              "internalType": "string",
              "name": "memo",
              "type": "string"
            },
            {
              "internalType": "bytes",
              "name": "metadata",
              "type": "bytes"
            }
          ],
          "internalType": "struct JBRedeemParamsData",
          "name": "",
          "type": "tuple"
        }
      ],
      "name": "redemptionWeightOf",
      "outputs": [
        {
          "internalType": "uint256",
          "name": "",
          "type": "uint256"
        }
      ],
      "stateMutability": "view",
      "type": "function"
    },
    {
      "inputs": [],
      "name": "renounceOwnership",
      "outputs": [],
      "stateMutability": "nonpayable",
      "type": "function"
    },
    {
      "inputs": [
        {
          "internalType": "address",
          "name": "from",
          "type": "address"
        },
        {
          "internalType": "address",
          "name": "to",
          "type": "address"
        },
        {
          "internalType": "uint256",
          "name": "tokenId",
          "type": "uint256"
        }
      ],
      "name": "safeTransferFrom",
      "outputs": [],
      "stateMutability": "nonpayable",
      "type": "function"
    },
    {
      "inputs": [
        {
          "internalType": "address",
          "name": "from",
          "type": "address"
        },
        {
          "internalType": "address",
          "name": "to",
          "type": "address"
        },
        {
          "internalType": "uint256",
          "name": "tokenId",
          "type": "uint256"
        },
        {
          "internalType": "bytes",
          "name": "data",
          "type": "bytes"
        }
      ],
      "name": "safeTransferFrom",
      "outputs": [],
      "stateMutability": "nonpayable",
      "type": "function"
    },
    {
      "inputs": [
        {
          "internalType": "address",
          "name": "operator",
          "type": "address"
        },
        {
          "internalType": "bool",
          "name": "approved",
          "type": "bool"
        }
      ],
      "name": "setApprovalForAll",
      "outputs": [],
      "stateMutability": "nonpayable",
      "type": "function"
    },
    {
      "inputs": [
        {
          "internalType": "string",
          "name": "_baseUri",
          "type": "string"
        }
      ],
      "name": "setBaseUri",
      "outputs": [],
      "stateMutability": "nonpayable",
      "type": "function"
    },
    {
      "inputs": [
        {
          "internalType": "string",
          "name": "_contractUri",
          "type": "string"
        }
      ],
      "name": "setContractUri",
      "outputs": [],
      "stateMutability": "nonpayable",
      "type": "function"
    },
    {
      "inputs": [
        {
          "internalType": "address",
          "name": "_beneficiary",
          "type": "address"
        }
      ],
      "name": "setDefaultReservedTokenBeneficiary",
      "outputs": [],
      "stateMutability": "nonpayable",
      "type": "function"
    },
    {
      "inputs": [
        {
          "internalType": "contract IJBTokenUriResolver",
          "name": "_tokenUriResolver",
          "type": "address"
        }
      ],
      "name": "setTokenUriResolver",
      "outputs": [],
      "stateMutability": "nonpayable",
      "type": "function"
    },
    {
      "inputs": [],
      "name": "store",
      "outputs": [
        {
          "internalType": "contract IJBTiered721DelegateStore",
          "name": "",
          "type": "address"
        }
      ],
      "stateMutability": "view",
      "type": "function"
    },
    {
      "inputs": [
        {
          "internalType": "bytes4",
          "name": "_interfaceId",
          "type": "bytes4"
        }
      ],
      "name": "supportsInterface",
      "outputs": [
        {
          "internalType": "bool",
          "name": "",
          "type": "bool"
        }
      ],
      "stateMutability": "view",
      "type": "function"
    },
    {
      "inputs": [],
      "name": "symbol",
      "outputs": [
        {
          "internalType": "string",
          "name": "",
          "type": "string"
        }
      ],
      "stateMutability": "view",
      "type": "function"
    },
    {
      "inputs": [
        {
          "internalType": "uint256",
          "name": "_tokenId",
          "type": "uint256"
        }
      ],
      "name": "tokenURI",
      "outputs": [
        {
          "internalType": "string",
          "name": "",
          "type": "string"
        }
      ],
      "stateMutability": "view",
      "type": "function"
    },
    {
      "inputs": [
        {
          "components": [
            {
              "internalType": "contract IJBPaymentTerminal",
              "name": "terminal",
              "type": "address"
            },
            {
              "internalType": "address",
              "name": "holder",
              "type": "address"
            },
            {
              "internalType": "uint256",
              "name": "projectId",
              "type": "uint256"
            },
            {
              "internalType": "uint256",
              "name": "currentFundingCycleConfiguration",
              "type": "uint256"
            },
            {
              "internalType": "uint256",
              "name": "tokenCount",
              "type": "uint256"
            },
            {
              "internalType": "uint256",
              "name": "totalSupply",
              "type": "uint256"
            },
            {
              "internalType": "uint256",
              "name": "overflow",
              "type": "uint256"
            },
            {
              "components": [
                {
                  "internalType": "address",
                  "name": "token",
                  "type": "address"
                },
                {
                  "internalType": "uint256",
                  "name": "value",
                  "type": "uint256"
                },
                {
                  "internalType": "uint256",
                  "name": "decimals",
                  "type": "uint256"
                },
                {
                  "internalType": "uint256",
                  "name": "currency",
                  "type": "uint256"
                }
              ],
              "internalType": "struct JBTokenAmount",
              "name": "reclaimAmount",
              "type": "tuple"
            },
            {
              "internalType": "bool",
              "name": "useTotalOverflow",
              "type": "bool"
            },
            {
              "internalType": "uint256",
              "name": "redemptionRate",
              "type": "uint256"
            },
            {
              "internalType": "string",
              "name": "memo",
              "type": "string"
            },
            {
              "internalType": "bytes",
              "name": "metadata",
              "type": "bytes"
            }
          ],
          "internalType": "struct JBRedeemParamsData",
          "name": "",
          "type": "tuple"
        }
      ],
      "name": "totalRedemptionWeight",
      "outputs": [
        {
          "internalType": "uint256",
          "name": "",
          "type": "uint256"
        }
      ],
      "stateMutability": "view",
      "type": "function"
    },
    {
      "inputs": [
        {
          "internalType": "address",
          "name": "from",
          "type": "address"
        },
        {
          "internalType": "address",
          "name": "to",
          "type": "address"
        },
        {
          "internalType": "uint256",
          "name": "tokenId",
          "type": "uint256"
        }
      ],
      "name": "transferFrom",
      "outputs": [],
      "stateMutability": "nonpayable",
      "type": "function"
    },
    {
      "inputs": [
        {
          "internalType": "address",
          "name": "newOwner",
          "type": "address"
        }
      ],
      "name": "transferOwnership",
      "outputs": [],
      "stateMutability": "nonpayable",
      "type": "function"
    }
  ],
  "bytecode": {
    "object": "0x60806040523480156200001157600080fd5b506200001d3362000035565b600b80546001600160a01b0319163017905562000087565b600a80546001600160a01b038381166001600160a01b0319831681179093556040519116919082907f8be0079c531659141344cd1fd0a4f28419497f9722a3daafe3b4186f6b6457e090600090a35050565b6154bc80620000976000396000f3fe6080604052600436106102935760003560e01c80637ba62bf91161015a578063c41c2f24116100c1578063da9ee8b71161007a578063da9ee8b714610816578063df487e2614610829578063e8a3d48514610849578063e985e9c51461085e578063f2fde38b146108a7578063f5a38e63146108c757600080fd5b8063c41c2f2414610756578063c87b56dd14610776578063cac486a814610796578063ccb4807b146107b6578063d3419bf3146107d6578063d46cf171146107f657600080fd5b80639ab24eb0116101135780639ab24eb014610687578063a0bcfc7f146106a7578063a22cb465146106c7578063a51cfd18146106e7578063aa4fb15b14610716578063b88d4fde1461073657600080fd5b80637ba62bf9146105d45780638da5cb5b146105f45780638e539e8c146106125780639494bf721461063257806395d89b4114610652578063975057e71461066757600080fd5b80633fafa127116101fe5780635c19a95c116101b75780635c19a95c1461051c5780636352211e1461053c57806364640c1e1461055c5780636ac6d9411461057257806370a082311461059f578063715018a6146105bf57600080fd5b80633fafa1271461045757806342842e0e1461046d5780634ecba6251461048d57806354c6d1f5146104a3578063557e7155146104c3578063587cde1e146104e357600080fd5b80632407497e116102505780632407497e14610389578063245a45b5146103a95780632a596e53146103e45780632b13c58f1461040457806336c1a93b146104175780633a46b1a81461043757600080fd5b806301ffc9a71461029857806306fdde03146102cd578063081812fc146102ef578063095ea7b3146103275780631d153ca41461034957806323b872dd14610369575b600080fd5b3480156102a457600080fd5b506102b86102b3366004613bca565b6108e7565b60405190151581526020015b60405180910390f35b3480156102d957600080fd5b506102e2610912565b6040516102c49190613c37565b3480156102fb57600080fd5b5061030f61030a366004613c4a565b6109a4565b6040516001600160a01b0390911681526020016102c4565b34801561033357600080fd5b50610347610342366004613c88565b6109cb565b005b34801561035557600080fd5b50600b5461030f906001600160a01b031681565b34801561037557600080fd5b50610347610384366004613cb4565b610a57565b34801561039557600080fd5b506103476103a4366004613cf5565b610a89565b3480156103b557600080fd5b506103d66103c4366004613cf5565b60116020526000908152604090205481565b6040519081526020016102c4565b3480156103f057600080fd5b506103476103ff366004613d12565b610b32565b610347610412366004613d9f565b610b8b565b34801561042357600080fd5b50610347610432366004613e17565b610d65565b34801561044357600080fd5b506103d6610452366004613c88565b610dc7565b34801561046357600080fd5b506103d660085481565b34801561047957600080fd5b50610347610488366004613cb4565b610df0565b34801561049957600080fd5b506103d660105481565b3480156104af57600080fd5b5061030f6104be366004613c4a565b610e0b565b3480156104cf57600080fd5b50600d5461030f906001600160a01b031681565b3480156104ef57600080fd5b5061030f6104fe366004613cf5565b6001600160a01b039081166000908152602081905260409020541690565b34801561052857600080fd5b50610347610537366004613cf5565b610eb7565b34801561054857600080fd5b5061030f610557366004613c4a565b610ec4565b34801561056857600080fd5b506103d6600f5481565b34801561057e57600080fd5b5061059261058d366004613e58565b610efa565b6040516102c49190613ee9565b3480156105ab57600080fd5b506103d66105ba366004613cf5565b611040565b3480156105cb57600080fd5b506103476110b6565b3480156105e057600080fd5b506103d66105ef366004614061565b6110ca565b34801561060057600080fd5b50600a546001600160a01b031661030f565b34801561061e57600080fd5b506103d661062d366004613c4a565b61113e565b34801561063e57600080fd5b506103d661064d366004613d9f565b61116b565b34801561065e57600080fd5b506102e261119c565b34801561067357600080fd5b50600c5461030f906001600160a01b031681565b34801561069357600080fd5b506103d66106a2366004613cf5565b6111ab565b3480156106b357600080fd5b506103476106c23660046140c4565b6111cc565b3480156106d357600080fd5b506103476106e236600461413c565b611287565b3480156106f357600080fd5b50610707610702366004613d9f565b611296565b6040516102c493929190614175565b34801561072257600080fd5b506103476107313660046141e7565b6114f5565b34801561074257600080fd5b50610347610751366004614269565b611712565b34801561076257600080fd5b5060095461030f906001600160a01b031681565b34801561078257600080fd5b506102e2610791366004613c4a565b611745565b3480156107a257600080fd5b506103476107b136600461452f565b61191f565b3480156107c257600080fd5b506103476107d13660046140c4565b611c11565b3480156107e257600080fd5b50600e5461030f906001600160a01b031681565b34801561080257600080fd5b50610707610811366004614668565b611cc4565b6103476108243660046146a3565b611da7565b34801561083557600080fd5b50610347610844366004613cf5565b611e5e565b34801561085557600080fd5b506102e2611f00565b34801561086a57600080fd5b506102b86108793660046146de565b6001600160a01b03918216600090815260076020908152604080832093909416825291909152205460ff1690565b3480156108b357600080fd5b506103476108c2366004613cf5565b611f76565b3480156108d357600080fd5b506103476108e236600461470c565b611ff1565b60006001600160e01b031982166320b52ca160e21b148061090c575061090c826121d4565b92915050565b606060038054610921906147a6565b80601f016020809104026020016040519081016040528092919081815260200182805461094d906147a6565b801561099a5780601f1061096f5761010080835404028352916020019161099a565b820191906000526020600020905b81548152906001019060200180831161097d57829003601f168201915b5050505050905090565b60006109af8261224a565b506000908152600660205260409020546001600160a01b031690565b60006109d682610ec4565b9050806001600160a01b0316836001600160a01b031603610a0a5760405163133f8be960e01b815260040160405180910390fd5b336001600160a01b03821614801590610a2a5750610a288133610879565b155b15610a485760405163e5fa0e3560e01b815260040160405180910390fd5b610a52838361227f565b505050565b610a6133826122ed565b610a7e5760405163e5fa0e3560e01b815260040160405180910390fd5b610a5283838361236c565b610a91612445565b600c5460405163036129cb60e61b81526001600160a01b0383811660048301529091169063d84a72c090602401600060405180830381600087803b158015610ad857600080fd5b505af1158015610aec573d6000803e3d6000fd5b50506040513381526001600160a01b03841692507fe7784d93cfbfa4408e19577e6cc0436f4dbb51214b70e100905dfce9def88c1691506020015b60405180910390a250565b8060005b81811015610b85576000848483818110610b5257610b526147da565b905060400201803603810190610b6891906147f0565b9050610b7c816000015182602001516114f5565b50600101610b36565b50505050565b34151580610c0d5750600954600854604051636e49181f60e01b815260048101919091523360248201526001600160a01b0390911690636e49181f90604401602060405180830381865afa158015610be7573d6000803e3d6000fd5b505050506040513d601f19601f82011682018060405250810190610c0b9190614849565b155b80610c1e5750600854816020013514155b15610c3c57604051633efca5c360e11b815260040160405180910390fd5b6024610c4c6101c0830183614866565b90501080610c90575063b3bcbb7960e01b610c6b6101c0830183614866565b610c7a916024916020916148ac565b610c83916148d6565b6001600160e01b03191614155b15610cae57604051632a84050f60e01b815260040160405180910390fd5b6000610cbe6101c0830183614866565b810190610ccb9190614906565b925050506000815190506000805b82811015610d5b57838181518110610cf357610cf36147da565b60200260200101519150846000016020810190610d109190613cf5565b6000838152600560205260409020546001600160a01b03908116911614610d4a5760405163075fd2b160e01b815260040160405180910390fd5b610d538261249f565b600101610cd9565b50610b8583612520565b610d6d612445565b8060005b81811015610b855736848483818110610d8c57610d8c6147da565b9050602002810190610d9e919061495e565b9050610dbd610dad828061497e565b61058d6040850160208601613cf5565b5050600101610d71565b6001600160a01b0382166000908152600160205260408120610de99083612585565b9392505050565b610a5283838360405180602001604052806000815250611712565b600c546040516308ed6c0160e41b81523060048201526024810183905260009182916001600160a01b0390911690638ed6c01090604401602060405180830381865afa158015610e5f573d6000803e3d6000fd5b505050506040513d601f19601f82011682018060405250810190610e8391906149d2565b90506001600160a01b03811615610e9a5792915050565b50506000908152600560205260409020546001600160a01b031690565b610ec13382612694565b50565b6000818152600560205260408120546001600160a01b03168061090c5760405163b49aa3b560e01b815260040160405180910390fd5b6060610f04612445565b600c5460405163eaa19ab360e01b81526001600160a01b039091169063eaa19ab390610f3d9060001990889088906001906004016149ef565b6000604051808303816000875af1158015610f5c573d6000803e3d6000fd5b505050506040513d6000823e601f3d908101601f19168201604052610f849190810190614aa7565b509050826000805b8281101561103657838181518110610fa657610fa66147da565b60200260200101519150610fba8583612706565b846001600160a01b0316878783818110610fd657610fd66147da565b9050602002016020810190610feb9190614aed565b604080516000815233602082015261ffff929092169185917f598baf7bf150ca2f42be9e9f8f55e81d45f5715c3ff22bf46d697fabec7f31d6910160405180910390a4600101610f8c565b5050509392505050565b600c54604051633de222bb60e21b81523060048201526001600160a01b038381166024830152600092169063f7888aec906044015b602060405180830381865afa158015611092573d6000803e3d6000fd5b505050506040513d601f19601f8201168201806040525081019061090c9190614b08565b6110be612445565b6110c860006127d0565b565b600c5460405163051330b560e21b81526000916001600160a01b03169063144cc2d4906110fd9030908790600401614b21565b602060405180830381865afa15801561111a573d6000803e3d6000fd5b505050506040513d601f19601f82011682018060405250810190610de99190614b08565b6000438210611160576040516305b5e09b60e51b815260040160405180910390fd5b61090c600283612585565b600c54604051631572f24960e11b81523060048201526000916001600160a01b031690632ae5e49290602401611075565b606060048054610921906147a6565b6001600160a01b038116600090815260016020526040812061090c90612822565b6111d4612445565b600c546040516331315e5960e11b81526001600160a01b0390911690636262bcb2906112069085908590600401614b45565b600060405180830381600087803b15801561122057600080fd5b505af1158015611234573d6000803e3d6000fd5b505050508181604051611248929190614b74565b604051908190038120338252907f7bc9110d5de090dd59e07912d2b93a5a27ac70a60c8d8e324db4f9ee8b8b5c13906020015b60405180910390a25050565b61129233838361287e565b5050565b60006060806080840135156112be576040516309f82f1b60e31b815260040160405180910390fd5b60246112ce6101c0860186614866565b90501080611312575063b3bcbb7960e01b6112ed6101c0860186614866565b6112fc916024916020916148ac565b611305916148d6565b6001600160e01b03191614155b1561133057604051632a84050f60e01b815260040160405180910390fd5b60408051600180825281830190925290816020015b60408051808201909152600080825260208201528152602001906001900390816113455790505090506040518060400160405280306001600160a01b031681526020016000815250816000815181106113a0576113a06147da565b602090810291909101015260006113bb6101c0860186614866565b8101906113c89190614906565b9250505060006113d882876110ca565b905060006113e58761116b565b905060006113f88860c00135848461291d565b90506127108861018001350361146357806114176101a08a018a614866565b8782828080601f016020809104026020016040519081016040528093929190818152602001838380828437600092019190915250969d50919b509199506114ee98505050505050505050565b611499816114828561147c6101808d0135612710614b9a565b8661291d565b611491906101808c0135614bad565b61271061291d565b6114a76101a08a018a614866565b8782828080601f016020809104026020016040519081016040528093929190818152602001838380828437600092019190915250969d50919b509199505050505050505050505b9193909250565b600d546008546040516321d1336160e11b815260048101919091526000916001600160a01b0316906343a266c29060240161012060405180830381865afa158015611544573d6000803e3d6000fd5b505050506040513d601f19601f820116820180604052508101906115689190614bc0565b61010081015190915060f51c60019081160361159757604051631d2c125760e31b815260040160405180910390fd5b600c54604051635d53f40760e11b815260048101859052602481018490526000916001600160a01b03169063baa7e80e906044016000604051808303816000875af11580156115ea573d6000803e3d6000fd5b505050506040513d6000823e601f3d908101601f191682016040526116129190810190614c40565b600c546040516304db994760e21b8152306004820152602481018790529192506000916001600160a01b039091169063136e651c90604401602060405180830381865afa158015611667573d6000803e3d6000fd5b505050506040513d601f19601f8201168201806040525081019061168b91906149d2565b90506000805b85811015611709578381815181106116ab576116ab6147da565b602002602001015191506116bf8383612706565b6040513381526001600160a01b03841690889084907f031e1988c95a91ec4d655ff63a8f87a80bc9daf28d95ae10ee08c0022cfb5c8b9060200160405180910390a4600101611691565b50505050505050565b61171c33836122ed565b6117395760405163e5fa0e3560e01b815260040160405180910390fd5b610b85848484846129e9565b600c54604051630fab094760e01b81523060048201526060916000916001600160a01b0390911690630fab094790602401602060405180830381865afa158015611793573d6000803e3d6000fd5b505050506040513d601f19601f820116820180604052508101906117b791906149d2565b90506001600160a01b0381161561183557604051636d02a25560e11b8152600481018490526001600160a01b0382169063da0544aa90602401600060405180830381865afa15801561180d573d6000803e3d6000fd5b505050506040513d6000823e601f3d908101601f19168201604052610de99190810190614c74565b600c5460405163f682eeaf60e01b8152306004820152610de9916001600160a01b03169063f682eeaf90602401600060405180830381865afa15801561187f573d6000803e3d6000fd5b505050506040513d6000823e601f3d908101601f191682016040526118a79190810190614c74565b600c54604051630c8df17160e41b8152306004820152602481018790526001600160a01b039091169063c8df171090604401602060405180830381865afa1580156118f6573d6000803e3d6000fd5b505050506040513d601f19601f8201168201806040525081019061191a9190614b08565b612a1d565b600b546001600160a01b0316300361193657600080fd5b600c546001600160a01b03161561194c57600080fd5b6119588b8b8b8b612a84565b600d80546001600160a01b03808a166001600160a01b031992831617909255600c80548584169083161790556020850151600f5560408501516010556060850151600e8054919093169116179055855115611a0c576040516331315e5960e11b81526001600160a01b03831690636262bcb2906119d9908990600401613c37565b600060405180830381600087803b1580156119f357600080fd5b505af1158015611a07573d6000803e3d6000fd5b505050505b835115611a725760405163d67b78fd60e01b81526001600160a01b0383169063d67b78fd90611a3f908790600401613c37565b600060405180830381600087803b158015611a5957600080fd5b505af1158015611a6d573d6000803e3d6000fd5b505050505b6001600160a01b03851615611add5760405163036129cb60e61b81526001600160a01b03868116600483015283169063d84a72c090602401600060405180830381600087803b158015611ac457600080fd5b505af1158015611ad8573d6000803e3d6000fd5b505050505b82515115611b5b57825160405163eadd8b3760e01b81526001600160a01b0384169163eadd8b3791611b129190600401614ce1565b6000604051808303816000875af1158015611b31573d6000803e3d6000fd5b505050506040513d6000823e601f3d908101601f19168201604052611b599190810190614c40565b505b805180611b69575080602001515b80611b75575080604001515b15611bfb57604080516365c13f1960e11b815282511515600482015260208301511515602482015290820151151560448201526060820151151560648201526001600160a01b0383169063cb827e3290608401600060405180830381600087803b158015611be257600080fd5b505af1158015611bf6573d6000803e3d6000fd5b505050505b611c04336127d0565b5050505050505050505050565b611c19612445565b600c5460405163d67b78fd60e01b81526001600160a01b039091169063d67b78fd90611c4b9085908590600401614b45565b600060405180830381600087803b158015611c6557600080fd5b505af1158015611c79573d6000803e3d6000fd5b505050508181604051611c8d929190614b74565b604051908190038120338252907fd36dc0c1a06103fdcaf15f3f6fb797d1a97997514c78de073640c8b5005454b89060200161127b565b610120810135606080611cdb610160850185614866565b8080601f01602080910402602001604051908101604052809392919081815260200183838082843760009201919091525092945060019250611d1b915050565b604051908082528060200260200182016040528015611d6057816020015b6040805180820190915260008082526020820152815260200190600190039081611d395790505b5090506040518060400160405280306001600160a01b03168152602001600081525081600081518110611d9557611d956147da565b60200260200101819052509193909250565b60085434151580611e285750600954604051636e49181f60e01b8152600481018390523360248201526001600160a01b0390911690636e49181f90604401602060405180830381865afa158015611e02573d6000803e3d6000fd5b505050506040513d601f19601f82011682018060405250810190611e269190614849565b155b80611e37575080826020013514155b15611e55576040516331c57b1b60e21b815260040160405180910390fd5b61129282612ab7565b611e66612445565b600c546040516317161f7d60e01b81526001600160a01b038381166004830152909116906317161f7d90602401600060405180830381600087803b158015611ead57600080fd5b505af1158015611ec1573d6000803e3d6000fd5b50506040513381526001600160a01b03841692507fab0014d4c7a642a02a31b303a318908c22b0fb2001f107278fc6076b4c671b659150602001610b27565b600c54604051630155619b60e71b81523060048201526060916001600160a01b03169063aab0cd8090602401600060405180830381865afa158015611f49573d6000803e3d6000fd5b505050506040513d6000823e601f3d908101601f19168201604052611f719190810190614c74565b905090565b611f7e612445565b6001600160a01b038116611fe85760405162461bcd60e51b815260206004820152602660248201527f4f776e61626c653a206e6577206f776e657220697320746865207a65726f206160448201526564647265737360d01b60648201526084015b60405180910390fd5b610ec1816127d0565b611ff9612445565b828180156120c957600c546040516320512ba160e01b81526001600160a01b03909116906320512ba1906120339087908790600401614dba565b600060405180830381600087803b15801561204d57600080fd5b505af1158015612061573d6000803e3d6000fd5b5050505060005b818110156120c757848482818110612082576120826147da565b60405133815260209182029390930135927f832d89d991be5351d793c20faf4b7dd44f8aa9ce39e3cb160c6317de6fbba72992500160405180910390a2600101612068565b505b81156121cc57600c5460405163eadd8b3760e01b81526000916001600160a01b03169063eadd8b3790612102908a908a90600401614ed0565b6000604051808303816000875af1158015612121573d6000803e3d6000fd5b505050506040513d6000823e601f3d908101601f191682016040526121499190810190614c40565b905060005b838110156121c957818181518110612168576121686147da565b60200260200101517f85b5b4c4e44e342c8dac3c3a5364494d455043decb9f4bb8e7e0a3020d22fed48989848181106121a3576121a36147da565b90506101400201336040516121b9929190614f13565b60405180910390a260010161214e565b50505b505050505050565b60006001600160e01b0319821663b3bcbb7960e01b148061220557506001600160e01b031982166371700c6960e01b145b8061222057506001600160e01b0319821663da9ee8b760e01b145b8061223b57506001600160e01b03198216632b13c58f60e01b145b8061090c575061090c82612dca565b6000818152600560205260409020546001600160a01b0316610ec15760405163b49aa3b560e01b815260040160405180910390fd5b600081815260066020526040902080546001600160a01b0319166001600160a01b03841690811790915581906122b482610ec4565b6001600160a01b03167f8c5be1e5ebec7d5bd14f71427d1e84f3dd0314c0f7b2291e5b200ac8c7c3b92560405160405180910390a45050565b6000806122f983610ec4565b9050806001600160a01b0316846001600160a01b0316148061234057506001600160a01b0380821660009081526007602090815260408083209388168352929052205460ff165b806123645750836001600160a01b0316612359846109a4565b6001600160a01b0316145b949350505050565b826001600160a01b031661237f82610ec4565b6001600160a01b0316146123a65760405163a195bc5360e01b815260040160405180910390fd5b6001600160a01b0382166123cd57604051632c95542760e01b815260040160405180910390fd5b6123d8838383612e1a565b6123e360008261227f565b60008181526005602052604080822080546001600160a01b0319166001600160a01b0386811691821790925591518493918716917fddf252ad1be2c89b69c2b068fc378daa952ba7f163c4a11628f55a4df523b3ef91a4610a52838383613047565b600a546001600160a01b031633146110c85760405162461bcd60e51b815260206004820181905260248201527f4f776e61626c653a2063616c6c6572206973206e6f7420746865206f776e65726044820152606401611fdf565b60006124aa82610ec4565b90506124b881600084612e1a565b6124c360008361227f565b60008281526005602052604080822080546001600160a01b0319169055518391906001600160a01b038416907fddf252ad1be2c89b69c2b068fc378daa952ba7f163c4a11628f55a4df523b3ef908390a461129281600084613047565b600c546040516386bc2be360e01b81526001600160a01b03909116906386bc2be390612550908490600401613ee9565b600060405180830381600087803b15801561256a57600080fd5b505af115801561257e573d6000803e3d6000fd5b5050505050565b60004382106125d65760405162461bcd60e51b815260206004820181905260248201527f436865636b706f696e74733a20626c6f636b206e6f7420796574206d696e65646044820152606401611fdf565b825460005b8181101561263b5760006125ef8284613140565b905084866000018281548110612607576126076147da565b60009182526020909120015463ffffffff16111561262757809250612635565b612632816001614bad565b91505b506125db565b811561267f578461264d600184614b9a565b8154811061265d5761265d6147da565b60009182526020909120015464010000000090046001600160e01b0316612682565b60005b6001600160e01b031695945050505050565b6001600160a01b0382811660008181526020819052604080822080548686166001600160a01b0319821681179092559151919094169392849290917f3134e8a2e6d97e929a7e54011ea5485d7d196dd5f0ba4d4ef95803e8e3fc257f9190a4610a5281836127018661315b565b613194565b6001600160a01b03821661272d57604051633904578f60e11b815260040160405180910390fd5b6000818152600560205260409020546001600160a01b03161561276357604051632eb5f0c360e21b815260040160405180910390fd5b61276f60008383612e1a565b60008181526005602052604080822080546001600160a01b0319166001600160a01b03861690811790915590518392907fddf252ad1be2c89b69c2b068fc378daa952ba7f163c4a11628f55a4df523b3ef908290a461129260008383613047565b600a80546001600160a01b038381166001600160a01b0319831681179093556040519116919082907f8be0079c531659141344cd1fd0a4f28419497f9722a3daafe3b4186f6b6457e090600090a35050565b8054600090801561286b5782612839600183614b9a565b81548110612849576128496147da565b60009182526020909120015464010000000090046001600160e01b031661286e565b60005b6001600160e01b03169392505050565b816001600160a01b0316836001600160a01b0316036128b0576040516306f8139d60e11b815260040160405180910390fd5b6001600160a01b03838116600081815260076020908152604080832094871680845294825291829020805460ff191686151590811790915591519182527f17307eab39ab6107e8899845ad3d59bd9653f200f220920489ca2b5937696c31910160405180910390a3505050565b60008080600019858709858702925082811083820303915050806000036129575783828161294d5761294d614f3b565b0492505050610de9565b83811061298157604051631dcf306360e21b81526004810182905260248101859052604401611fdf565b600084868809600260036001881981018916988990049182028318808302840302808302840302808302840302808302840302808302840302918202909203026000889003889004909101858311909403939093029303949094049190911702949350505050565b6129f484848461236c565b612a00848484846132d1565b610b85576040516336f57c1b60e11b815260040160405180910390fd5b604051609160f51b60208201526022810182905260609060009060420160405160208183030381529060405290506000612a56826133d3565b90508481604051602001612a6b929190614f51565b6040516020818303038152906040529250505092915050565b612a8e828261356b565b5050600891909155600980546001600160a01b0319166001600160a01b03909216919091179055565b600f5460009060c083013503612ad257506080810135612b88565b600e546001600160a01b03161561129257601054612b8590608084013590612afb90600a615064565b600e54600f54604051635268657960e11b815260c08801356004820152602481019190915260a087013560448201526001600160a01b039091169063a4d0caf290606401602060405180830381865afa158015612b5c573d6000803e3d6000fd5b505050506040513d601f19601f82011682018060405250810190612b809190614b08565b61291d565b90505b6000601181612b9f6101a086016101808701613cf5565b6001600160a01b03168152602081019190915260400160009081205491508290612bd16101a086016101808701613cf5565b6001600160a01b0316612be76020870187613cf5565b6001600160a01b031603612bfe5790820190612c01565b50815b60006044612c136101e0880188614866565b9050118015612c57575063b3bcbb7960e01b612c336101e0880188614866565b612c42916044916040916148ac565b612c4b916148d6565b6001600160e01b031916145b15612d2e576060612c6c6101e0880188614866565b810190612c799190615070565b90955093508492505081159050612cfc5750600c54604051634228826f60e11b81523060048201526001600160a01b039091169063845104de90602401608060405180830381865afa158015612cd3573d6000803e3d6000fd5b505050506040513d601f19601f82011682018060405250810190612cf79190615142565b606001515b15612d0657600091505b805115612d2c57612d298482612d246101a08b016101808c01613cf5565b613584565b93505b505b8215612d8a5780612d5257604051631b57826960e21b815260040160405180910390fd5b82820160116000612d6b6101a08a016101808b01613cf5565b6001600160a01b031681526020810191909152604001600020556121cc565b8184146121cc578160116000612da86101a08a016101808b01613cf5565b6001600160a01b03168152602081019190915260400160002055505050505050565b60006001600160e01b031982166380ac58cd60e01b1480612dfb57506001600160e01b03198216635b5e139f60e01b145b8061090c57506301ffc9a760e01b6001600160e01b031983161461090c565b6001600160a01b03831615610a5257600c5460405163b67cb04760e01b8152306004820152602481018390526000916001600160a01b03169063b67cb0479060440161016060405180830381865afa158015612e7a573d6000803e3d6000fd5b505050506040513d601f19601f82011682018060405250810190612e9e91906151c6565b905080610140015115612f6357600d546008546040516321d1336160e11b815260048101919091526000916001600160a01b0316906343a266c29060240161012060405180830381865afa158015612efa573d6000803e3d6000fd5b505050506040513d601f19601f82011682018060405250810190612f1e9190614bc0565b90506001600160a01b03841615801590612f43575061010081015160f41c6001908116145b15612f61576040516318cdaf9760e01b815260040160405180910390fd5b505b600c546040516308ed6c0160e41b8152306004820152602481018490526000916001600160a01b031690638ed6c01090604401602060405180830381865afa158015612fb3573d6000803e3d6000fd5b505050506040513d601f19601f82011682018060405250810190612fd791906149d2565b6001600160a01b031603610b8557600c54604051638cec7d3960e01b8152600481018490526001600160a01b03868116602483015290911690638cec7d3990604401600060405180830381600087803b15801561303357600080fd5b505af11580156121c9573d6000803e3d6000fd5b600c5460405163b67cb04760e01b8152306004820152602481018390526000916001600160a01b03169063b67cb0479060440161016060405180830381865afa158015613098573d6000803e3d6000fd5b505050506040513d601f19601f820116820180604052508101906130bc91906151c6565b600c5481516040516330b157e560e21b815260048101919091526001600160a01b038781166024830152868116604483015292935091169063c2c55f9490606401600060405180830381600087803b15801561311757600080fd5b505af115801561312b573d6000803e3d6000fd5b5050505061313b848484846136c6565b610b85565b600061314f6002848418615268565b610de990848416614bad565b600c54604051631266aaaf60e31b81523060048201526001600160a01b0383811660248301526000921690639335557890604401611075565b816001600160a01b0316836001600160a01b0316141580156131b65750600081115b15610a52576001600160a01b03831615613244576001600160a01b038316600090815260016020526040812081906131f1906136df856136eb565b91509150846001600160a01b03167fdec2bacdd2f05b59de34da9b523dff8be42e5e38e818c82fdb0bae774387a7248383604051613239929190918252602082015260400190565b60405180910390a250505b6001600160a01b03821615610a52576001600160a01b0382166000908152600160205260408120819061327a90613719856136eb565b91509150836001600160a01b03167fdec2bacdd2f05b59de34da9b523dff8be42e5e38e818c82fdb0bae774387a72483836040516132c2929190918252602082015260400190565b60405180910390a25050505050565b60006001600160a01b0384163b156133c857604051630a85bd0160e11b81526001600160a01b0385169063150b7a029061331590339089908890889060040161527c565b6020604051808303816000875af1925050508015613350575060408051601f3d908101601f1916820190925261334d918101906152b9565b60015b6133ae573d80801561337e576040519150601f19603f3d011682016040523d82523d6000602084013e613383565b606091505b5080516000036133a6576040516336f57c1b60e11b815260040160405180910390fd5b805181602001fd5b6001600160e01b031916630a85bd0160e11b149050612364565b506001949350505050565b606081516000036133f257505060408051600081526020810190915290565b60408051602e8082526105e08201909252600091602082016105c08036833701905050905060008160008151811061342c5761342c6147da565b60ff90921660209283029190910190910152825160019060005b81811015613547576000868281518110613462576134626147da565b016020015160f81c905060005b8460ff168110156134ec57600886828151811061348e5761348e6147da565b602002602001015160ff16901b826134a69190614bad565b91506134b3603a836152d6565b8682815181106134c5576134c56147da565b60ff909216602092830291909101909101526134e2603a83615268565b915060010161346f565b505b801561353e576134ff603a826152d6565b858560ff1681518110613514576135146147da565b60ff90921660209283029190910190910152600190930192613537603a82615268565b90506134ee565b50600101613446565b5061356261355d6135588585613725565b6137cc565b61386e565b95945050505050565b60036135778382615330565b506004610a528282615330565b600c5460405163eaa19ab360e01b81526000916060916001600160a01b039091169063eaa19ab3906135be908890889087906004016153ef565b6000604051808303816000875af11580156135dd573d6000803e3d6000fd5b505050506040513d6000823e601f3d908101601f191682016040526136059190810190614aa7565b81519093509091506000805b828110156136bb5783818151811061362b5761362b6147da565b6020026020010151915061363f8683612706565b856001600160a01b031687828151811061365b5761365b6147da565b602002602001015161ffff16837f598baf7bf150ca2f42be9e9f8f55e81d45f5715c3ff22bf46d697fabec7f31d68b336040516136ab9291909182526001600160a01b0316602082015260400190565b60405180910390a4600101613611565b505050509392505050565b60a081015115610b8557610b8584848360a00151613947565b6000610de98284614b9a565b60008061370d856137086136fe88612822565b868863ffffffff16565b6139b7565b91509150935093915050565b6000610de98284614bad565b606060008260ff166001600160401b0381111561374457613744613efc565b60405190808252806020026020018201604052801561376d578160200160208202803683370190505b50905060005b8360ff168110156137c457848181518110613790576137906147da565b60200260200101518282815181106137aa576137aa6147da565b60ff90921660209283029190910190910152600101613773565b509392505050565b80516060906000816001600160401b038111156137eb576137eb613efc565b604051908082528060200260200182016040528015613814578160200160208202803683370190505b50905060005b828110156137c45784816001875103038151811061383a5761383a6147da565b6020026020010151828281518110613854576138546147da565b60ff9092166020928302919091019091015260010161381a565b80516060906000816001600160401b0381111561388d5761388d613efc565b6040519080825280601f01601f1916602001820160405280156138b7576020820181803683370190505b50905060005b828110156137c4576040518060600160405280603a815260200161544d603a91398582815181106138f0576138f06147da565b602002602001015160ff168151811061390b5761390b6147da565b602001015160f81c60f81b828281518110613928576139286147da565b60200101906001600160f81b031916908160001a9053506001016138bd565b6001600160a01b038316613966576139636002613719836136eb565b50505b6001600160a01b0382166139855761398260026136df836136eb565b50505b6001600160a01b03838116600090815260208190526040808220548584168352912054610a5292918216911683613194565b81546000908190816139c886612822565b9050600082118015613a06575043866139e2600185614b9a565b815481106139f2576139f26147da565b60009182526020909120015463ffffffff16145b15613a6657613a1485613ae2565b86613a20600185614b9a565b81548110613a3057613a306147da565b9060005260206000200160000160046101000a8154816001600160e01b0302191690836001600160e01b03160217905550613ad4565b856000016040518060400160405280613a7e43613b4f565b63ffffffff168152602001613a9288613ae2565b6001600160e01b0390811690915282546001810184556000938452602093849020835194909301519091166401000000000263ffffffff909316929092179101555b9250839150505b9250929050565b60006001600160e01b03821115613b4b5760405162461bcd60e51b815260206004820152602760248201527f53616665436173743a2076616c756520646f65736e27742066697420696e20326044820152663234206269747360c81b6064820152608401611fdf565b5090565b600063ffffffff821115613b4b5760405162461bcd60e51b815260206004820152602660248201527f53616665436173743a2076616c756520646f65736e27742066697420696e203360448201526532206269747360d01b6064820152608401611fdf565b6001600160e01b031981168114610ec157600080fd5b600060208284031215613bdc57600080fd5b8135610de981613bb4565b60005b83811015613c02578181015183820152602001613bea565b50506000910152565b60008151808452613c23816020860160208601613be7565b601f01601f19169290920160200192915050565b602081526000610de96020830184613c0b565b600060208284031215613c5c57600080fd5b5035919050565b6001600160a01b0381168114610ec157600080fd5b8035613c8381613c63565b919050565b60008060408385031215613c9b57600080fd5b8235613ca681613c63565b946020939093013593505050565b600080600060608486031215613cc957600080fd5b8335613cd481613c63565b92506020840135613ce481613c63565b929592945050506040919091013590565b600060208284031215613d0757600080fd5b8135610de981613c63565b60008060208385031215613d2557600080fd5b82356001600160401b0380821115613d3c57600080fd5b818501915085601f830112613d5057600080fd5b813581811115613d5f57600080fd5b8660208260061b8501011115613d7457600080fd5b60209290920196919550909350505050565b60006101e08284031215613d9957600080fd5b50919050565b600060208284031215613db157600080fd5b81356001600160401b03811115613dc757600080fd5b61236484828501613d86565b60008083601f840112613de557600080fd5b5081356001600160401b03811115613dfc57600080fd5b6020830191508360208260051b8501011115613adb57600080fd5b60008060208385031215613e2a57600080fd5b82356001600160401b03811115613e4057600080fd5b613e4c85828601613dd3565b90969095509350505050565b600080600060408486031215613e6d57600080fd5b83356001600160401b03811115613e8357600080fd5b613e8f86828701613dd3565b9094509250506020840135613ea381613c63565b809150509250925092565b600081518084526020808501945080840160005b83811015613ede57815187529582019590820190600101613ec2565b509495945050505050565b602081526000610de96020830184613eae565b634e487b7160e01b600052604160045260246000fd5b604051608081016001600160401b0381118282101715613f3457613f34613efc565b60405290565b60405161014081016001600160401b0381118282101715613f3457613f34613efc565b60405161012081016001600160401b0381118282101715613f3457613f34613efc565b60405161016081016001600160401b0381118282101715613f3457613f34613efc565b604051601f8201601f191681016001600160401b0381118282101715613fcb57613fcb613efc565b604052919050565b60006001600160401b03821115613fec57613fec613efc565b5060051b60200190565b600082601f83011261400757600080fd5b8135602061401c61401783613fd3565b613fa3565b82815260059290921b8401810191818101908684111561403b57600080fd5b8286015b84811015614056578035835291830191830161403f565b509695505050505050565b6000806040838503121561407457600080fd5b82356001600160401b038082111561408b57600080fd5b61409786838701613ff6565b935060208501359150808211156140ad57600080fd5b506140ba85828601613d86565b9150509250929050565b600080602083850312156140d757600080fd5b82356001600160401b03808211156140ee57600080fd5b818501915085601f83011261410257600080fd5b81358181111561411157600080fd5b866020828501011115613d7457600080fd5b8015158114610ec157600080fd5b8035613c8381614123565b6000806040838503121561414f57600080fd5b823561415a81613c63565b9150602083013561416a81614123565b809150509250929050565b8381526000602060608184015261418f6060840186613c0b565b83810360408581019190915285518083528387019284019060005b818110156141d857845180516001600160a01b031684528601518684015293850193918301916001016141aa565b50909998505050505050505050565b600080604083850312156141fa57600080fd5b50508035926020909101359150565b60006001600160401b0382111561422257614222613efc565b50601f01601f191660200190565b600061423e61401784614209565b905082815283838301111561425257600080fd5b828260208301376000602084830101529392505050565b6000806000806080858703121561427f57600080fd5b843561428a81613c63565b9350602085013561429a81613c63565b92506040850135915060608501356001600160401b038111156142bc57600080fd5b8501601f810187136142cd57600080fd5b6142dc87823560208401614230565b91505092959194509250565b600082601f8301126142f957600080fd5b610de983833560208501614230565b803569ffffffffffffffffffff81168114613c8357600080fd5b803565ffffffffffff81168114613c8357600080fd5b803564ffffffffff81168114613c8357600080fd5b803561ffff81168114613c8357600080fd5b6000608080838503121561437257600080fd5b61437a613f12565b915082356001600160401b0381111561439257600080fd5b8301601f810185136143a357600080fd5b803560206143b361401783613fd3565b82815261014092830284018201928282019190898511156143d357600080fd5b948301945b848610156144a25780868b0312156143f05760008081fd5b6143f8613f3a565b61440187614308565b815261440e858801614322565b85820152604061441f818901614338565b90820152606061443088820161434d565b9082015261443f87890161434d565b8882015260a0614450818901613c78565b9082015260c0878101359082015260e061446b818901614131565b9082015261010061447d888201614131565b9082015261012061448f888201614131565b90820152835294850194918301916143d8565b508652508581013590850152505050604080830135908201526144c760608301613c78565b606082015292915050565b6000608082840312156144e457600080fd5b6144ec613f12565b905081356144f981614123565b8152602082013561450981614123565b6020820152604082013561451c81614123565b604082015260608201356144c781614123565b60008060008060008060008060008060006101c08c8e03121561455157600080fd5b8b359a5061456160208d01613c78565b99506001600160401b038060408e0135111561457c57600080fd5b61458c8e60408f01358f016142e8565b99508060608e0135111561459f57600080fd5b6145af8e60608f01358f016142e8565b98506145bd60808e01613c78565b97508060a08e013511156145d057600080fd5b6145e08e60a08f01358f016142e8565b96506145ee60c08e01613c78565b95508060e08e0135111561460157600080fd5b6146118e60e08f01358f016142e8565b9450806101008e0135111561462557600080fd5b506146378d6101008e01358e0161435f565b92506146466101208d01613c78565b91506146568d6101408e016144d2565b90509295989b509295989b9093969950565b60006020828403121561467a57600080fd5b81356001600160401b0381111561469057600080fd5b82016101a08185031215610de957600080fd5b6000602082840312156146b557600080fd5b81356001600160401b038111156146cb57600080fd5b82016102008185031215610de957600080fd5b600080604083850312156146f157600080fd5b82356146fc81613c63565b9150602083013561416a81613c63565b6000806000806040858703121561472257600080fd5b84356001600160401b038082111561473957600080fd5b818701915087601f83011261474d57600080fd5b81358181111561475c57600080fd5b8860206101408302850101111561477257600080fd5b60209283019650945090860135908082111561478d57600080fd5b5061479a87828801613dd3565b95989497509550505050565b600181811c908216806147ba57607f821691505b602082108103613d9957634e487b7160e01b600052602260045260246000fd5b634e487b7160e01b600052603260045260246000fd5b60006040828403121561480257600080fd5b604051604081018181106001600160401b038211171561482457614824613efc565b604052823581526020928301359281019290925250919050565b8051613c8381614123565b60006020828403121561485b57600080fd5b8151610de981614123565b6000808335601e1984360301811261487d57600080fd5b8301803591506001600160401b0382111561489757600080fd5b602001915036819003821315613adb57600080fd5b600080858511156148bc57600080fd5b838611156148c957600080fd5b5050820193919092039150565b6001600160e01b031981358181169160048510156148fe5780818660040360031b1b83161692505b505092915050565b60008060006060848603121561491b57600080fd5b83359250602084013561492d81613bb4565b915060408401356001600160401b0381111561494857600080fd5b61495486828701613ff6565b9150509250925092565b60008235603e1983360301811261497457600080fd5b9190910192915050565b6000808335601e1984360301811261499557600080fd5b8301803591506001600160401b038211156149af57600080fd5b6020019150600581901b3603821315613adb57600080fd5b8051613c8381613c63565b6000602082840312156149e457600080fd5b8151610de981613c63565b84815260606020808301829052908201849052600090859060808401835b87811015614a345761ffff614a218561434d565b1682529282019290820190600101614a0d565b50809350505050821515604083015295945050505050565b600082601f830112614a5d57600080fd5b81516020614a6d61401783613fd3565b82815260059290921b84018101918181019086841115614a8c57600080fd5b8286015b848110156140565780518352918301918301614a90565b60008060408385031215614aba57600080fd5b82516001600160401b03811115614ad057600080fd5b614adc85828601614a4c565b925050602083015190509250929050565b600060208284031215614aff57600080fd5b610de98261434d565b600060208284031215614b1a57600080fd5b5051919050565b6001600160a01b038316815260406020820181905260009061236490830184613eae565b60208152816020820152818360408301376000818301604090810191909152601f909201601f19160101919050565b8183823760009101908152919050565b634e487b7160e01b600052601160045260246000fd5b8181038181111561090c5761090c614b84565b8082018082111561090c5761090c614b84565b60006101208284031215614bd357600080fd5b614bdb613f5d565b825181526020830151602082015260408301516040820152606083015160608201526080830151608082015260a083015160a082015260c083015160c0820152614c2760e084016149c7565b60e0820152610100928301519281019290925250919050565b600060208284031215614c5257600080fd5b81516001600160401b03811115614c6857600080fd5b61236484828501614a4c565b600060208284031215614c8657600080fd5b81516001600160401b03811115614c9c57600080fd5b8201601f81018413614cad57600080fd5b8051614cbb61401782614209565b818152856020838501011115614cd057600080fd5b613562826020830160208601613be7565b602080825282518282018190526000919060409081850190868401855b82811015614dad578151805169ffffffffffffffffffff1685528681015165ffffffffffff16878601528581015164ffffffffff168686015260608082015161ffff908116918701919091526080808301519091169086015260a0808201516001600160a01b03169086015260c0808201519086015260e08082015115159086015261010080820151151590860152610120908101511515908501526101409093019290850190600101614cfe565b5091979650505050505050565b6020808252810182905260006001600160fb1b03831115614dda57600080fd5b8260051b80856040850137919091016040019392505050565b614e1082614e0083614308565b69ffffffffffffffffffff169052565b614e1c60208201614322565b65ffffffffffff166020830152614e3560408201614338565b64ffffffffff166040830152614e4d6060820161434d565b61ffff166060830152614e626080820161434d565b61ffff166080830152614e7760a08201613c78565b6001600160a01b031660a083015260c08181013590830152614e9b60e08201614131565b151560e0830152610100614eb0828201614131565b151590830152610120614ec4828201614131565b80151584830152610b85565b6020808252810182905260008360408301825b85811015614f0957614ef58284614df3565b610140928301929190910190600101614ee3565b5095945050505050565b6101608101614f228285614df3565b6001600160a01b03929092166101409190910152919050565b634e487b7160e01b600052601260045260246000fd5b60008351614f63818460208801613be7565b835190830190614f77818360208801613be7565b01949350505050565b600181815b80851115614fbb578160001904821115614fa157614fa1614b84565b80851615614fae57918102915b93841c9390800290614f85565b509250929050565b600082614fd25750600161090c565b81614fdf5750600061090c565b8160018114614ff55760028114614fff5761501b565b600191505061090c565b60ff84111561501057615010614b84565b50506001821b61090c565b5060208310610133831016604e8410600b841016171561503e575081810a61090c565b6150488383614f80565b806000190482111561505c5761505c614b84565b029392505050565b6000610de98383614fc3565b600080600080600060a0868803121561508857600080fd5b85359450602080870135945060408701356150a281613bb4565b935060608701356150b281614123565b925060808701356001600160401b038111156150cd57600080fd5b8701601f810189136150de57600080fd5b80356150ec61401782613fd3565b81815260059190911b8201830190838101908b83111561510b57600080fd5b928401925b82841015615130576151218461434d565b82529284019290840190615110565b80955050505050509295509295909350565b60006080828403121561515457600080fd5b604051608081018181106001600160401b038211171561517657615176613efc565b604052825161518481614123565b8152602083015161519481614123565b602082015260408301516151a781614123565b604082015260608301516151ba81614123565b60608201529392505050565b600061016082840312156151d957600080fd5b6151e1613f80565b825181526020830151602082015260408301516040820152606083015160608201526080830151608082015260a083015160a082015260c083015160c082015261522d60e084016149c7565b60e0820152610100838101519082015261012061524b81850161483e565b9082015261014061525d84820161483e565b908201529392505050565b60008261527757615277614f3b565b500490565b6001600160a01b03858116825284166020820152604081018390526080606082018190526000906152af90830184613c0b565b9695505050505050565b6000602082840312156152cb57600080fd5b8151610de981613bb4565b6000826152e5576152e5614f3b565b500690565b601f821115610a5257600081815260208120601f850160051c810160208610156153115750805b601f850160051c820191505b818110156121cc5782815560010161531d565b81516001600160401b0381111561534957615349613efc565b61535d8161535784546147a6565b846152ea565b602080601f831160018114615392576000841561537a5750858301515b600019600386901b1c1916600185901b1785556121cc565b600085815260208120601f198616915b828110156153c1578886015182559484019460019091019084016153a2565b50858210156153df5787850151600019600388901b60f8161c191681555b5050505050600190811b01905550565b6000606082018583526020606081850152818651808452608086019150828801935060005b8181101561543457845161ffff1683529383019391830191600101615414565b5050809350505050821515604083015294935050505056fe31323334353637383941424344454647484a4b4c4d4e505152535455565758595a6162636465666768696a6b6d6e6f707172737475767778797aa2646970667358221220f604b7edf3461221b69c1347b8df7de469d24a5b605969211f0929c2461e0f8a64736f6c63430008110033",
    "linkReferences": {}
  },
  "methodIdentifiers": {
    "adjustTiers((uint80,uint48,uint40,uint16,uint16,address,bytes32,bool,bool,bool)[],uint256[])": "f5a38e63",
    "approve(address,uint256)": "095ea7b3",
    "balanceOf(address)": "70a08231",
    "codeOrigin()": "1d153ca4",
    "contractURI()": "e8a3d485",
    "creditsOf(address)": "245a45b5",
    "delegate(address)": "5c19a95c",
    "delegates(address)": "587cde1e",
    "didPay((address,uint256,uint256,(address,uint256,uint256,uint256),(address,uint256,uint256,uint256),uint256,address,bool,string,bytes))": "da9ee8b7",
    "didRedeem((address,uint256,uint256,uint256,(address,uint256,uint256,uint256),(address,uint256,uint256,uint256),address,string,bytes))": "2b13c58f",
    "directory()": "c41c2f24",
    "firstOwnerOf(uint256)": "54c6d1f5",
    "fundingCycleStore()": "557e7155",
    "getApproved(uint256)": "081812fc",
    "getPastTotalSupply(uint256)": "8e539e8c",
    "getPastVotes(address,uint256)": "3a46b1a8",
    "getVotes(address)": "9ab24eb0",
    "initialize(uint256,address,string,string,address,string,address,string,((uint80,uint48,uint40,uint16,uint16,address,bytes32,bool,bool,bool)[],uint256,uint256,address),address,(bool,bool,bool,bool))": "cac486a8",
    "isApprovedForAll(address,address)": "e985e9c5",
    "mintFor((uint16[],address)[])": "36c1a93b",
    "mintFor(uint16[],address)": "6ac6d941",
    "mintReservesFor((uint256,uint256)[])": "2a596e53",
    "mintReservesFor(uint256,uint256)": "aa4fb15b",
    "name()": "06fdde03",
    "owner()": "8da5cb5b",
    "ownerOf(uint256)": "6352211e",
    "payParams((address,address,(address,uint256,uint256,uint256),uint256,uint256,address,uint256,uint256,string,bytes))": "d46cf171",
    "prices()": "d3419bf3",
    "pricingCurrency()": "64640c1e",
    "pricingDecimals()": "4ecba625",
    "projectId()": "3fafa127",
    "redeemParams((address,address,uint256,uint256,uint256,uint256,uint256,(address,uint256,uint256,uint256),bool,uint256,string,bytes))": "a51cfd18",
    "redemptionWeightOf(uint256[],(address,address,uint256,uint256,uint256,uint256,uint256,(address,uint256,uint256,uint256),bool,uint256,string,bytes))": "7ba62bf9",
    "renounceOwnership()": "715018a6",
    "safeTransferFrom(address,address,uint256)": "42842e0e",
    "safeTransferFrom(address,address,uint256,bytes)": "b88d4fde",
    "setApprovalForAll(address,bool)": "a22cb465",
    "setBaseUri(string)": "a0bcfc7f",
    "setContractUri(string)": "ccb4807b",
    "setDefaultReservedTokenBeneficiary(address)": "df487e26",
    "setTokenUriResolver(address)": "2407497e",
    "store()": "975057e7",
    "supportsInterface(bytes4)": "01ffc9a7",
    "symbol()": "95d89b41",
    "tokenURI(uint256)": "c87b56dd",
    "totalRedemptionWeight((address,address,uint256,uint256,uint256,uint256,uint256,(address,uint256,uint256,uint256),bool,uint256,string,bytes))": "9494bf72",
    "transferFrom(address,address,uint256)": "23b872dd",
    "transferOwnership(address)": "f2fde38b"
  },
  "id": 0
}