{
  "abi": [
    {
      "inputs": [],
      "name": "ALEADY_MINTED",
      "type": "error"
    },
    {
      "inputs": [],
      "name": "APPROVAL_TO_CURRENT_OWNER",
      "type": "error"
    },
    {
      "inputs": [],
      "name": "APPROVE_TO_CALLER",
      "type": "error"
    },
    {
      "inputs": [],
      "name": "BLOCK_NOT_YET_MINED",
      "type": "error"
    },
    {
      "inputs": [],
      "name": "CALLER_NOT_OWNER_OR_APPROVED",
      "type": "error"
    },
    {
      "inputs": [],
      "name": "INCORRECT_OWNER",
      "type": "error"
    },
    {
      "inputs": [],
      "name": "INVALID",
      "type": "error"
    },
    {
      "inputs": [],
      "name": "INVALID_PAYMENT_EVENT",
      "type": "error"
    },
    {
      "inputs": [],
      "name": "INVALID_REDEMPTION_EVENT",
      "type": "error"
    },
    {
      "inputs": [],
      "name": "INVALID_REDEMPTION_METADATA",
      "type": "error"
    },
    {
      "inputs": [],
      "name": "INVALID_TOKEN_ID",
      "type": "error"
    },
    {
      "inputs": [],
      "name": "MINT_TO_ZERO",
      "type": "error"
    },
    {
      "inputs": [],
      "name": "NOT_AVAILABLE",
      "type": "error"
    },
    {
      "inputs": [],
      "name": "OVERSPENDING",
      "type": "error"
    },
    {
      "inputs": [
        {
          "internalType": "uint256",
          "name": "prod1",
          "type": "uint256"
        },
        {
          "internalType": "uint256",
          "name": "denominator",
          "type": "uint256"
        }
      ],
      "name": "PRBMath__MulDivOverflow",
      "type": "error"
    },
    {
      "inputs": [],
      "name": "PRICING_RESOLVER_CHANGES_PAUSED",
      "type": "error"
    },
    {
      "inputs": [],
      "name": "RESERVED_TOKEN_MINTING_PAUSED",
      "type": "error"
    },
    {
      "inputs": [],
      "name": "SIGNATURE_EXPIRED",
      "type": "error"
    },
    {
      "inputs": [],
      "name": "TRANSFERS_PAUSED",
      "type": "error"
    },
    {
      "inputs": [],
      "name": "TRANSFER_TO_NON_IMPLEMENTER",
      "type": "error"
    },
    {
      "inputs": [],
      "name": "TRANSFER_TO_ZERO_ADDRESS",
      "type": "error"
    },
    {
      "inputs": [],
      "name": "UNAUTHORIZED",
      "type": "error"
    },
    {
      "inputs": [],
      "name": "UNEXPECTED_TOKEN_REDEEMED",
      "type": "error"
    },
    {
      "anonymous": false,
      "inputs": [
        {
          "indexed": true,
          "internalType": "uint256",
          "name": "tierId",
          "type": "uint256"
        },
        {
          "components": [
            {
              "internalType": "uint80",
              "name": "contributionFloor",
              "type": "uint80"
            },
            {
              "internalType": "uint48",
              "name": "lockedUntil",
              "type": "uint48"
            },
            {
              "internalType": "uint40",
              "name": "initialQuantity",
              "type": "uint40"
            },
            {
              "internalType": "uint16",
              "name": "votingUnits",
              "type": "uint16"
            },
            {
              "internalType": "uint16",
              "name": "reservedRate",
              "type": "uint16"
            },
            {
              "internalType": "address",
              "name": "reservedTokenBeneficiary",
              "type": "address"
            },
            {
              "internalType": "uint8",
              "name": "royaltyRate",
              "type": "uint8"
            },
            {
              "internalType": "address",
              "name": "royaltyBeneficiary",
              "type": "address"
            },
            {
              "internalType": "bytes32",
              "name": "encodedIPFSUri",
              "type": "bytes32"
            },
            {
              "internalType": "uint8",
              "name": "category",
              "type": "uint8"
            },
            {
              "internalType": "bool",
              "name": "allowManualMint",
              "type": "bool"
            },
            {
              "internalType": "bool",
              "name": "shouldUseReservedTokenBeneficiaryAsDefault",
              "type": "bool"
            },
            {
              "internalType": "bool",
              "name": "shouldUseRoyaltyBeneficiaryAsDefault",
              "type": "bool"
            },
            {
              "internalType": "bool",
              "name": "transfersPausable",
              "type": "bool"
            }
          ],
          "indexed": false,
          "internalType": "struct JB721TierParams",
          "name": "data",
          "type": "tuple"
        },
        {
          "indexed": false,
          "internalType": "address",
          "name": "caller",
          "type": "address"
        }
      ],
      "name": "AddTier",
      "type": "event"
    },
    {
      "anonymous": false,
      "inputs": [
        {
          "indexed": true,
          "internalType": "address",
          "name": "owner",
          "type": "address"
        },
        {
          "indexed": true,
          "internalType": "address",
          "name": "approved",
          "type": "address"
        },
        {
          "indexed": true,
          "internalType": "uint256",
          "name": "tokenId",
          "type": "uint256"
        }
      ],
      "name": "Approval",
      "type": "event"
    },
    {
      "anonymous": false,
      "inputs": [
        {
          "indexed": true,
          "internalType": "address",
          "name": "owner",
          "type": "address"
        },
        {
          "indexed": true,
          "internalType": "address",
          "name": "operator",
          "type": "address"
        },
        {
          "indexed": false,
          "internalType": "bool",
          "name": "approved",
          "type": "bool"
        }
      ],
      "name": "ApprovalForAll",
      "type": "event"
    },
    {
      "anonymous": false,
      "inputs": [
        {
          "indexed": true,
          "internalType": "address",
          "name": "delegator",
          "type": "address"
        },
        {
          "indexed": true,
          "internalType": "address",
          "name": "fromDelegate",
          "type": "address"
        },
        {
          "indexed": true,
          "internalType": "address",
          "name": "toDelegate",
          "type": "address"
        }
      ],
      "name": "DelegateChanged",
      "type": "event"
    },
    {
      "anonymous": false,
      "inputs": [
        {
          "indexed": true,
          "internalType": "address",
          "name": "delegate",
          "type": "address"
        },
        {
          "indexed": false,
          "internalType": "uint256",
          "name": "previousBalance",
          "type": "uint256"
        },
        {
          "indexed": false,
          "internalType": "uint256",
          "name": "newBalance",
          "type": "uint256"
        }
      ],
      "name": "DelegateVotesChanged",
      "type": "event"
    },
    {
      "anonymous": false,
      "inputs": [
        {
          "indexed": true,
          "internalType": "uint256",
          "name": "tokenId",
          "type": "uint256"
        },
        {
          "indexed": true,
          "internalType": "uint256",
          "name": "tierId",
          "type": "uint256"
        },
        {
          "indexed": true,
          "internalType": "address",
          "name": "beneficiary",
          "type": "address"
        },
        {
          "indexed": false,
          "internalType": "uint256",
          "name": "totalAmountContributed",
          "type": "uint256"
        },
        {
          "indexed": false,
          "internalType": "address",
          "name": "caller",
          "type": "address"
        }
      ],
      "name": "Mint",
      "type": "event"
    },
    {
      "anonymous": false,
      "inputs": [
        {
          "indexed": true,
          "internalType": "uint256",
          "name": "tokenId",
          "type": "uint256"
        },
        {
          "indexed": true,
          "internalType": "uint256",
          "name": "tierId",
          "type": "uint256"
        },
        {
          "indexed": true,
          "internalType": "address",
          "name": "beneficiary",
          "type": "address"
        },
        {
          "indexed": false,
          "internalType": "address",
          "name": "caller",
          "type": "address"
        }
      ],
      "name": "MintReservedToken",
      "type": "event"
    },
    {
      "anonymous": false,
      "inputs": [
        {
          "indexed": true,
          "internalType": "address",
          "name": "previousOwner",
          "type": "address"
        },
        {
          "indexed": true,
          "internalType": "address",
          "name": "newOwner",
          "type": "address"
        }
      ],
      "name": "OwnershipTransferred",
      "type": "event"
    },
    {
      "anonymous": false,
      "inputs": [
        {
          "indexed": true,
          "internalType": "uint256",
          "name": "tierId",
          "type": "uint256"
        },
        {
          "indexed": false,
          "internalType": "address",
          "name": "caller",
          "type": "address"
        }
      ],
      "name": "RemoveTier",
      "type": "event"
    },
    {
      "anonymous": false,
      "inputs": [
        {
          "indexed": true,
          "internalType": "string",
          "name": "baseUri",
          "type": "string"
        },
        {
          "indexed": false,
          "internalType": "address",
          "name": "caller",
          "type": "address"
        }
      ],
      "name": "SetBaseUri",
      "type": "event"
    },
    {
      "anonymous": false,
      "inputs": [
        {
          "indexed": true,
          "internalType": "string",
          "name": "contractUri",
          "type": "string"
        },
        {
          "indexed": false,
          "internalType": "address",
          "name": "caller",
          "type": "address"
        }
      ],
      "name": "SetContractUri",
      "type": "event"
    },
    {
      "anonymous": false,
      "inputs": [
        {
          "indexed": true,
          "internalType": "address",
          "name": "beneficiary",
          "type": "address"
        },
        {
          "indexed": false,
          "internalType": "address",
          "name": "caller",
          "type": "address"
        }
      ],
      "name": "SetDefaultReservedTokenBeneficiary",
      "type": "event"
    },
    {
      "anonymous": false,
      "inputs": [
        {
          "indexed": true,
          "internalType": "contract IJBTokenUriResolver",
          "name": "newResolver",
          "type": "address"
        },
        {
          "indexed": false,
          "internalType": "address",
          "name": "caller",
          "type": "address"
        }
      ],
      "name": "SetTokenUriResolver",
      "type": "event"
    },
    {
      "anonymous": false,
      "inputs": [
        {
          "indexed": true,
          "internalType": "address",
          "name": "from",
          "type": "address"
        },
        {
          "indexed": true,
          "internalType": "address",
          "name": "to",
          "type": "address"
        },
        {
          "indexed": true,
          "internalType": "uint256",
          "name": "tokenId",
          "type": "uint256"
        }
      ],
      "name": "Transfer",
      "type": "event"
    },
    {
      "inputs": [],
      "name": "MAX_ROYALTY_RATE",
      "outputs": [
        {
          "internalType": "uint256",
          "name": "",
          "type": "uint256"
        }
      ],
      "stateMutability": "view",
      "type": "function"
    },
    {
      "inputs": [
        {
          "components": [
            {
              "internalType": "uint80",
              "name": "contributionFloor",
              "type": "uint80"
            },
            {
              "internalType": "uint48",
              "name": "lockedUntil",
              "type": "uint48"
            },
            {
              "internalType": "uint40",
              "name": "initialQuantity",
              "type": "uint40"
            },
            {
              "internalType": "uint16",
              "name": "votingUnits",
              "type": "uint16"
            },
            {
              "internalType": "uint16",
              "name": "reservedRate",
              "type": "uint16"
            },
            {
              "internalType": "address",
              "name": "reservedTokenBeneficiary",
              "type": "address"
            },
            {
              "internalType": "uint8",
              "name": "royaltyRate",
              "type": "uint8"
            },
            {
              "internalType": "address",
              "name": "royaltyBeneficiary",
              "type": "address"
            },
            {
              "internalType": "bytes32",
              "name": "encodedIPFSUri",
              "type": "bytes32"
            },
            {
              "internalType": "uint8",
              "name": "category",
              "type": "uint8"
            },
            {
              "internalType": "bool",
              "name": "allowManualMint",
              "type": "bool"
            },
            {
              "internalType": "bool",
              "name": "shouldUseReservedTokenBeneficiaryAsDefault",
              "type": "bool"
            },
            {
              "internalType": "bool",
              "name": "shouldUseRoyaltyBeneficiaryAsDefault",
              "type": "bool"
            },
            {
              "internalType": "bool",
              "name": "transfersPausable",
              "type": "bool"
            }
          ],
          "internalType": "struct JB721TierParams[]",
          "name": "_tiersToAdd",
          "type": "tuple[]"
        },
        {
          "internalType": "uint256[]",
          "name": "_tierIdsToRemove",
          "type": "uint256[]"
        }
      ],
      "name": "adjustTiers",
      "outputs": [],
      "stateMutability": "nonpayable",
      "type": "function"
    },
    {
      "inputs": [
        {
          "internalType": "address",
          "name": "to",
          "type": "address"
        },
        {
          "internalType": "uint256",
          "name": "tokenId",
          "type": "uint256"
        }
      ],
      "name": "approve",
      "outputs": [],
      "stateMutability": "nonpayable",
      "type": "function"
    },
    {
      "inputs": [
        {
          "internalType": "address",
          "name": "_owner",
          "type": "address"
        }
      ],
      "name": "balanceOf",
      "outputs": [
        {
          "internalType": "uint256",
          "name": "balance",
          "type": "uint256"
        }
      ],
      "stateMutability": "view",
      "type": "function"
    },
    {
      "inputs": [],
      "name": "codeOrigin",
      "outputs": [
        {
          "internalType": "address",
          "name": "",
          "type": "address"
        }
      ],
      "stateMutability": "view",
      "type": "function"
    },
    {
      "inputs": [],
      "name": "contractURI",
      "outputs": [
        {
          "internalType": "string",
          "name": "",
          "type": "string"
        }
      ],
      "stateMutability": "view",
      "type": "function"
    },
    {
      "inputs": [
        {
          "internalType": "address",
          "name": "",
          "type": "address"
        }
      ],
      "name": "creditsOf",
      "outputs": [
        {
          "internalType": "uint256",
          "name": "",
          "type": "uint256"
        }
      ],
      "stateMutability": "view",
      "type": "function"
    },
    {
      "inputs": [
        {
          "internalType": "address",
          "name": "delegatee",
          "type": "address"
        }
      ],
      "name": "delegate",
      "outputs": [],
      "stateMutability": "nonpayable",
      "type": "function"
    },
    {
      "inputs": [
        {
          "internalType": "address",
          "name": "account",
          "type": "address"
        }
      ],
      "name": "delegates",
      "outputs": [
        {
          "internalType": "address",
          "name": "",
          "type": "address"
        }
      ],
      "stateMutability": "view",
      "type": "function"
    },
    {
      "inputs": [
        {
          "components": [
            {
              "internalType": "address",
              "name": "payer",
              "type": "address"
            },
            {
              "internalType": "uint256",
              "name": "projectId",
              "type": "uint256"
            },
            {
              "internalType": "uint256",
              "name": "currentFundingCycleConfiguration",
              "type": "uint256"
            },
            {
              "components": [
                {
                  "internalType": "address",
                  "name": "token",
                  "type": "address"
                },
                {
                  "internalType": "uint256",
                  "name": "value",
                  "type": "uint256"
                },
                {
                  "internalType": "uint256",
                  "name": "decimals",
                  "type": "uint256"
                },
                {
                  "internalType": "uint256",
                  "name": "currency",
                  "type": "uint256"
                }
              ],
              "internalType": "struct JBTokenAmount",
              "name": "amount",
              "type": "tuple"
            },
            {
              "components": [
                {
                  "internalType": "address",
                  "name": "token",
                  "type": "address"
                },
                {
                  "internalType": "uint256",
                  "name": "value",
                  "type": "uint256"
                },
                {
                  "internalType": "uint256",
                  "name": "decimals",
                  "type": "uint256"
                },
                {
                  "internalType": "uint256",
                  "name": "currency",
                  "type": "uint256"
                }
              ],
              "internalType": "struct JBTokenAmount",
              "name": "forwardedAmount",
              "type": "tuple"
            },
            {
              "internalType": "uint256",
              "name": "projectTokenCount",
              "type": "uint256"
            },
            {
              "internalType": "address",
              "name": "beneficiary",
              "type": "address"
            },
            {
              "internalType": "bool",
              "name": "preferClaimedTokens",
              "type": "bool"
            },
            {
              "internalType": "string",
              "name": "memo",
              "type": "string"
            },
            {
              "internalType": "bytes",
              "name": "metadata",
              "type": "bytes"
            }
          ],
          "internalType": "struct JBDidPayData",
          "name": "_data",
          "type": "tuple"
        }
      ],
      "name": "didPay",
      "outputs": [],
      "stateMutability": "payable",
      "type": "function"
    },
    {
      "inputs": [
        {
          "components": [
            {
              "internalType": "address",
              "name": "holder",
              "type": "address"
            },
            {
              "internalType": "uint256",
              "name": "projectId",
              "type": "uint256"
            },
            {
              "internalType": "uint256",
              "name": "currentFundingCycleConfiguration",
              "type": "uint256"
            },
            {
              "internalType": "uint256",
              "name": "projectTokenCount",
              "type": "uint256"
            },
            {
              "components": [
                {
                  "internalType": "address",
                  "name": "token",
                  "type": "address"
                },
                {
                  "internalType": "uint256",
                  "name": "value",
                  "type": "uint256"
                },
                {
                  "internalType": "uint256",
                  "name": "decimals",
                  "type": "uint256"
                },
                {
                  "internalType": "uint256",
                  "name": "currency",
                  "type": "uint256"
                }
              ],
              "internalType": "struct JBTokenAmount",
              "name": "reclaimedAmount",
              "type": "tuple"
            },
            {
              "components": [
                {
                  "internalType": "address",
                  "name": "token",
                  "type": "address"
                },
                {
                  "internalType": "uint256",
                  "name": "value",
                  "type": "uint256"
                },
                {
                  "internalType": "uint256",
                  "name": "decimals",
                  "type": "uint256"
                },
                {
                  "internalType": "uint256",
                  "name": "currency",
                  "type": "uint256"
                }
              ],
              "internalType": "struct JBTokenAmount",
              "name": "forwardedAmount",
              "type": "tuple"
            },
            {
              "internalType": "address payable",
              "name": "beneficiary",
              "type": "address"
            },
            {
              "internalType": "string",
              "name": "memo",
              "type": "string"
            },
            {
              "internalType": "bytes",
              "name": "metadata",
              "type": "bytes"
            }
          ],
          "internalType": "struct JBDidRedeemData",
          "name": "_data",
          "type": "tuple"
        }
      ],
      "name": "didRedeem",
      "outputs": [],
      "stateMutability": "payable",
      "type": "function"
    },
    {
      "inputs": [],
      "name": "directory",
      "outputs": [
        {
          "internalType": "contract IJBDirectory",
          "name": "",
          "type": "address"
        }
      ],
      "stateMutability": "view",
      "type": "function"
    },
    {
      "inputs": [
        {
          "internalType": "uint256",
          "name": "_tokenId",
          "type": "uint256"
        }
      ],
      "name": "firstOwnerOf",
      "outputs": [
        {
          "internalType": "address",
          "name": "",
          "type": "address"
        }
      ],
      "stateMutability": "view",
      "type": "function"
    },
    {
      "inputs": [],
      "name": "fundingCycleStore",
      "outputs": [
        {
          "internalType": "contract IJBFundingCycleStore",
          "name": "",
          "type": "address"
        }
      ],
      "stateMutability": "view",
      "type": "function"
    },
    {
      "inputs": [
        {
          "internalType": "uint256",
          "name": "tokenId",
          "type": "uint256"
        }
      ],
      "name": "getApproved",
      "outputs": [
        {
          "internalType": "address",
          "name": "",
          "type": "address"
        }
      ],
      "stateMutability": "view",
      "type": "function"
    },
    {
      "inputs": [
        {
          "internalType": "uint256",
          "name": "blockNumber",
          "type": "uint256"
        }
      ],
      "name": "getPastTotalSupply",
      "outputs": [
        {
          "internalType": "uint256",
          "name": "",
          "type": "uint256"
        }
      ],
      "stateMutability": "view",
      "type": "function"
    },
    {
      "inputs": [
        {
          "internalType": "address",
          "name": "account",
          "type": "address"
        },
        {
          "internalType": "uint256",
          "name": "blockNumber",
          "type": "uint256"
        }
      ],
      "name": "getPastVotes",
      "outputs": [
        {
          "internalType": "uint256",
          "name": "",
          "type": "uint256"
        }
      ],
      "stateMutability": "view",
      "type": "function"
    },
    {
      "inputs": [
        {
          "internalType": "address",
          "name": "account",
          "type": "address"
        }
      ],
      "name": "getVotes",
      "outputs": [
        {
          "internalType": "uint256",
          "name": "",
          "type": "uint256"
        }
      ],
      "stateMutability": "view",
      "type": "function"
    },
    {
      "inputs": [
        {
          "internalType": "uint256",
          "name": "_projectId",
          "type": "uint256"
        },
        {
          "internalType": "contract IJBDirectory",
          "name": "_directory",
          "type": "address"
        },
        {
          "internalType": "string",
          "name": "_name",
          "type": "string"
        },
        {
          "internalType": "string",
          "name": "_symbol",
          "type": "string"
        },
        {
          "internalType": "contract IJBFundingCycleStore",
          "name": "_fundingCycleStore",
          "type": "address"
        },
        {
          "internalType": "string",
          "name": "_baseUri",
          "type": "string"
        },
        {
          "internalType": "contract IJBTokenUriResolver",
          "name": "_tokenUriResolver",
          "type": "address"
        },
        {
          "internalType": "string",
          "name": "_contractUri",
          "type": "string"
        },
        {
          "components": [
            {
              "components": [
                {
                  "internalType": "uint80",
                  "name": "contributionFloor",
                  "type": "uint80"
                },
                {
                  "internalType": "uint48",
                  "name": "lockedUntil",
                  "type": "uint48"
                },
                {
                  "internalType": "uint40",
                  "name": "initialQuantity",
                  "type": "uint40"
                },
                {
                  "internalType": "uint16",
                  "name": "votingUnits",
                  "type": "uint16"
                },
                {
                  "internalType": "uint16",
                  "name": "reservedRate",
                  "type": "uint16"
                },
                {
                  "internalType": "address",
                  "name": "reservedTokenBeneficiary",
                  "type": "address"
                },
                {
                  "internalType": "uint8",
                  "name": "royaltyRate",
                  "type": "uint8"
                },
                {
                  "internalType": "address",
                  "name": "royaltyBeneficiary",
                  "type": "address"
                },
                {
                  "internalType": "bytes32",
                  "name": "encodedIPFSUri",
                  "type": "bytes32"
                },
                {
                  "internalType": "uint8",
                  "name": "category",
                  "type": "uint8"
                },
                {
                  "internalType": "bool",
                  "name": "allowManualMint",
                  "type": "bool"
                },
                {
                  "internalType": "bool",
                  "name": "shouldUseReservedTokenBeneficiaryAsDefault",
                  "type": "bool"
                },
                {
                  "internalType": "bool",
                  "name": "shouldUseRoyaltyBeneficiaryAsDefault",
                  "type": "bool"
                },
                {
                  "internalType": "bool",
                  "name": "transfersPausable",
                  "type": "bool"
                }
              ],
              "internalType": "struct JB721TierParams[]",
              "name": "tiers",
              "type": "tuple[]"
            },
            {
              "internalType": "uint256",
              "name": "currency",
              "type": "uint256"
            },
            {
              "internalType": "uint256",
              "name": "decimals",
              "type": "uint256"
            },
            {
              "internalType": "contract IJBPrices",
              "name": "prices",
              "type": "address"
            }
          ],
          "internalType": "struct JB721PricingParams",
          "name": "_pricing",
          "type": "tuple"
        },
        {
          "internalType": "contract IJBTiered721DelegateStore",
          "name": "_store",
          "type": "address"
        },
        {
          "components": [
            {
              "internalType": "bool",
              "name": "lockReservedTokenChanges",
              "type": "bool"
            },
            {
              "internalType": "bool",
              "name": "lockVotingUnitChanges",
              "type": "bool"
            },
            {
              "internalType": "bool",
              "name": "lockManualMintingChanges",
              "type": "bool"
            },
            {
              "internalType": "bool",
              "name": "preventOverspending",
              "type": "bool"
            }
          ],
          "internalType": "struct JBTiered721Flags",
          "name": "_flags",
          "type": "tuple"
        }
      ],
      "name": "initialize",
      "outputs": [],
      "stateMutability": "nonpayable",
      "type": "function"
    },
    {
      "inputs": [
        {
          "internalType": "address",
          "name": "owner",
          "type": "address"
        },
        {
          "internalType": "address",
          "name": "operator",
          "type": "address"
        }
      ],
      "name": "isApprovedForAll",
      "outputs": [
        {
          "internalType": "bool",
          "name": "",
          "type": "bool"
        }
      ],
      "stateMutability": "view",
      "type": "function"
    },
    {
      "inputs": [
        {
          "components": [
            {
              "internalType": "uint16[]",
              "name": "tierIds",
              "type": "uint16[]"
            },
            {
              "internalType": "address",
              "name": "beneficiary",
              "type": "address"
            }
          ],
          "internalType": "struct JBTiered721MintForTiersData[]",
          "name": "_mintForTiersData",
          "type": "tuple[]"
        }
      ],
      "name": "mintFor",
      "outputs": [],
      "stateMutability": "nonpayable",
      "type": "function"
    },
    {
      "inputs": [
        {
          "internalType": "uint16[]",
          "name": "_tierIds",
          "type": "uint16[]"
        },
        {
          "internalType": "address",
          "name": "_beneficiary",
          "type": "address"
        }
      ],
      "name": "mintFor",
      "outputs": [
        {
          "internalType": "uint256[]",
          "name": "tokenIds",
          "type": "uint256[]"
        }
      ],
      "stateMutability": "nonpayable",
      "type": "function"
    },
    {
      "inputs": [
        {
          "components": [
            {
              "internalType": "uint256",
              "name": "tierId",
              "type": "uint256"
            },
            {
              "internalType": "uint256",
              "name": "count",
              "type": "uint256"
            }
          ],
          "internalType": "struct JBTiered721MintReservesForTiersData[]",
          "name": "_mintReservesForTiersData",
          "type": "tuple[]"
        }
      ],
      "name": "mintReservesFor",
      "outputs": [],
      "stateMutability": "nonpayable",
      "type": "function"
    },
    {
      "inputs": [
        {
          "internalType": "uint256",
          "name": "_tierId",
          "type": "uint256"
        },
        {
          "internalType": "uint256",
          "name": "_count",
          "type": "uint256"
        }
      ],
      "name": "mintReservesFor",
      "outputs": [],
      "stateMutability": "nonpayable",
      "type": "function"
    },
    {
      "inputs": [],
      "name": "name",
      "outputs": [
        {
          "internalType": "string",
          "name": "",
          "type": "string"
        }
      ],
      "stateMutability": "view",
      "type": "function"
    },
    {
      "inputs": [],
      "name": "owner",
      "outputs": [
        {
          "internalType": "address",
          "name": "",
          "type": "address"
        }
      ],
      "stateMutability": "view",
      "type": "function"
    },
    {
      "inputs": [
        {
          "internalType": "uint256",
          "name": "tokenId",
          "type": "uint256"
        }
      ],
      "name": "ownerOf",
      "outputs": [
        {
          "internalType": "address",
          "name": "",
          "type": "address"
        }
      ],
      "stateMutability": "view",
      "type": "function"
    },
    {
      "inputs": [
        {
          "components": [
            {
              "internalType": "contract IJBPaymentTerminal",
              "name": "terminal",
              "type": "address"
            },
            {
              "internalType": "address",
              "name": "payer",
              "type": "address"
            },
            {
              "components": [
                {
                  "internalType": "address",
                  "name": "token",
                  "type": "address"
                },
                {
                  "internalType": "uint256",
                  "name": "value",
                  "type": "uint256"
                },
                {
                  "internalType": "uint256",
                  "name": "decimals",
                  "type": "uint256"
                },
                {
                  "internalType": "uint256",
                  "name": "currency",
                  "type": "uint256"
                }
              ],
              "internalType": "struct JBTokenAmount",
              "name": "amount",
              "type": "tuple"
            },
            {
              "internalType": "uint256",
              "name": "projectId",
              "type": "uint256"
            },
            {
              "internalType": "uint256",
              "name": "currentFundingCycleConfiguration",
              "type": "uint256"
            },
            {
              "internalType": "address",
              "name": "beneficiary",
              "type": "address"
            },
            {
              "internalType": "uint256",
              "name": "weight",
              "type": "uint256"
            },
            {
              "internalType": "uint256",
              "name": "reservedRate",
              "type": "uint256"
            },
            {
              "internalType": "string",
              "name": "memo",
              "type": "string"
            },
            {
              "internalType": "bytes",
              "name": "metadata",
              "type": "bytes"
            }
          ],
          "internalType": "struct JBPayParamsData",
          "name": "_data",
          "type": "tuple"
        }
      ],
      "name": "payParams",
      "outputs": [
        {
          "internalType": "uint256",
          "name": "weight",
          "type": "uint256"
        },
        {
          "internalType": "string",
          "name": "memo",
          "type": "string"
        },
        {
          "components": [
            {
              "internalType": "contract IJBPayDelegate",
              "name": "delegate",
              "type": "address"
            },
            {
              "internalType": "uint256",
              "name": "amount",
              "type": "uint256"
            }
          ],
          "internalType": "struct JBPayDelegateAllocation[]",
          "name": "delegateAllocations",
          "type": "tuple[]"
        }
      ],
      "stateMutability": "view",
      "type": "function"
    },
    {
      "inputs": [],
      "name": "prices",
      "outputs": [
        {
          "internalType": "contract IJBPrices",
          "name": "",
          "type": "address"
        }
      ],
      "stateMutability": "view",
      "type": "function"
    },
    {
      "inputs": [],
      "name": "pricingCurrency",
      "outputs": [
        {
          "internalType": "uint256",
          "name": "",
          "type": "uint256"
        }
      ],
      "stateMutability": "view",
      "type": "function"
    },
    {
      "inputs": [],
      "name": "pricingDecimals",
      "outputs": [
        {
          "internalType": "uint256",
          "name": "",
          "type": "uint256"
        }
      ],
      "stateMutability": "view",
      "type": "function"
    },
    {
      "inputs": [],
      "name": "projectId",
      "outputs": [
        {
          "internalType": "uint256",
          "name": "",
          "type": "uint256"
        }
      ],
      "stateMutability": "view",
      "type": "function"
    },
    {
      "inputs": [
        {
          "components": [
            {
              "internalType": "contract IJBPaymentTerminal",
              "name": "terminal",
              "type": "address"
            },
            {
              "internalType": "address",
              "name": "holder",
              "type": "address"
            },
            {
              "internalType": "uint256",
              "name": "projectId",
              "type": "uint256"
            },
            {
              "internalType": "uint256",
              "name": "currentFundingCycleConfiguration",
              "type": "uint256"
            },
            {
              "internalType": "uint256",
              "name": "tokenCount",
              "type": "uint256"
            },
            {
              "internalType": "uint256",
              "name": "totalSupply",
              "type": "uint256"
            },
            {
              "internalType": "uint256",
              "name": "overflow",
              "type": "uint256"
            },
            {
              "components": [
                {
                  "internalType": "address",
                  "name": "token",
                  "type": "address"
                },
                {
                  "internalType": "uint256",
                  "name": "value",
                  "type": "uint256"
                },
                {
                  "internalType": "uint256",
                  "name": "decimals",
                  "type": "uint256"
                },
                {
                  "internalType": "uint256",
                  "name": "currency",
                  "type": "uint256"
                }
              ],
              "internalType": "struct JBTokenAmount",
              "name": "reclaimAmount",
              "type": "tuple"
            },
            {
              "internalType": "bool",
              "name": "useTotalOverflow",
              "type": "bool"
            },
            {
              "internalType": "uint256",
              "name": "redemptionRate",
              "type": "uint256"
            },
            {
              "internalType": "string",
              "name": "memo",
              "type": "string"
            },
            {
              "internalType": "bytes",
              "name": "metadata",
              "type": "bytes"
            }
          ],
          "internalType": "struct JBRedeemParamsData",
          "name": "_data",
          "type": "tuple"
        }
      ],
      "name": "redeemParams",
      "outputs": [
        {
          "internalType": "uint256",
          "name": "reclaimAmount",
          "type": "uint256"
        },
        {
          "internalType": "string",
          "name": "memo",
          "type": "string"
        },
        {
          "components": [
            {
              "internalType": "contract IJBRedemptionDelegate",
              "name": "delegate",
              "type": "address"
            },
            {
              "internalType": "uint256",
              "name": "amount",
              "type": "uint256"
            }
          ],
          "internalType": "struct JBRedemptionDelegateAllocation[]",
          "name": "delegateAllocations",
          "type": "tuple[]"
        }
      ],
      "stateMutability": "view",
      "type": "function"
    },
    {
      "inputs": [
        {
          "internalType": "uint256[]",
          "name": "_tokenIds",
          "type": "uint256[]"
        },
        {
          "components": [
            {
              "internalType": "contract IJBPaymentTerminal",
              "name": "terminal",
              "type": "address"
            },
            {
              "internalType": "address",
              "name": "holder",
              "type": "address"
            },
            {
              "internalType": "uint256",
              "name": "projectId",
              "type": "uint256"
            },
            {
              "internalType": "uint256",
              "name": "currentFundingCycleConfiguration",
              "type": "uint256"
            },
            {
              "internalType": "uint256",
              "name": "tokenCount",
              "type": "uint256"
            },
            {
              "internalType": "uint256",
              "name": "totalSupply",
              "type": "uint256"
            },
            {
              "internalType": "uint256",
              "name": "overflow",
              "type": "uint256"
            },
            {
              "components": [
                {
                  "internalType": "address",
                  "name": "token",
                  "type": "address"
                },
                {
                  "internalType": "uint256",
                  "name": "value",
                  "type": "uint256"
                },
                {
                  "internalType": "uint256",
                  "name": "decimals",
                  "type": "uint256"
                },
                {
                  "internalType": "uint256",
                  "name": "currency",
                  "type": "uint256"
                }
              ],
              "internalType": "struct JBTokenAmount",
              "name": "reclaimAmount",
              "type": "tuple"
            },
            {
              "internalType": "bool",
              "name": "useTotalOverflow",
              "type": "bool"
            },
            {
              "internalType": "uint256",
              "name": "redemptionRate",
              "type": "uint256"
            },
            {
              "internalType": "string",
              "name": "memo",
              "type": "string"
            },
            {
              "internalType": "bytes",
              "name": "metadata",
              "type": "bytes"
            }
          ],
          "internalType": "struct JBRedeemParamsData",
          "name": "",
          "type": "tuple"
        }
      ],
      "name": "redemptionWeightOf",
      "outputs": [
        {
          "internalType": "uint256",
          "name": "",
          "type": "uint256"
        }
      ],
      "stateMutability": "view",
      "type": "function"
    },
    {
      "inputs": [],
      "name": "renounceOwnership",
      "outputs": [],
      "stateMutability": "nonpayable",
      "type": "function"
    },
    {
      "inputs": [
        {
          "internalType": "uint256",
          "name": "_tokenId",
          "type": "uint256"
        },
        {
          "internalType": "uint256",
          "name": "_salePrice",
          "type": "uint256"
        }
      ],
      "name": "royaltyInfo",
      "outputs": [
        {
          "internalType": "address",
          "name": "receiver",
          "type": "address"
        },
        {
          "internalType": "uint256",
          "name": "royaltyAmount",
          "type": "uint256"
        }
      ],
      "stateMutability": "view",
      "type": "function"
    },
    {
      "inputs": [
        {
          "internalType": "address",
          "name": "from",
          "type": "address"
        },
        {
          "internalType": "address",
          "name": "to",
          "type": "address"
        },
        {
          "internalType": "uint256",
          "name": "tokenId",
          "type": "uint256"
        }
      ],
      "name": "safeTransferFrom",
      "outputs": [],
      "stateMutability": "nonpayable",
      "type": "function"
    },
    {
      "inputs": [
        {
          "internalType": "address",
          "name": "from",
          "type": "address"
        },
        {
          "internalType": "address",
          "name": "to",
          "type": "address"
        },
        {
          "internalType": "uint256",
          "name": "tokenId",
          "type": "uint256"
        },
        {
          "internalType": "bytes",
          "name": "data",
          "type": "bytes"
        }
      ],
      "name": "safeTransferFrom",
      "outputs": [],
      "stateMutability": "nonpayable",
      "type": "function"
    },
    {
      "inputs": [
        {
          "internalType": "address",
          "name": "operator",
          "type": "address"
        },
        {
          "internalType": "bool",
          "name": "approved",
          "type": "bool"
        }
      ],
      "name": "setApprovalForAll",
      "outputs": [],
      "stateMutability": "nonpayable",
      "type": "function"
    },
    {
      "inputs": [
        {
          "internalType": "string",
          "name": "_baseUri",
          "type": "string"
        }
      ],
      "name": "setBaseUri",
      "outputs": [],
      "stateMutability": "nonpayable",
      "type": "function"
    },
    {
      "inputs": [
        {
          "internalType": "string",
          "name": "_contractUri",
          "type": "string"
        }
      ],
      "name": "setContractUri",
      "outputs": [],
      "stateMutability": "nonpayable",
      "type": "function"
    },
    {
      "inputs": [
        {
          "internalType": "address",
          "name": "_beneficiary",
          "type": "address"
        }
      ],
      "name": "setDefaultReservedTokenBeneficiary",
      "outputs": [],
      "stateMutability": "nonpayable",
      "type": "function"
    },
    {
      "inputs": [
        {
          "internalType": "contract IJBTokenUriResolver",
          "name": "_tokenUriResolver",
          "type": "address"
        }
      ],
      "name": "setTokenUriResolver",
      "outputs": [],
      "stateMutability": "nonpayable",
      "type": "function"
    },
    {
      "inputs": [],
      "name": "store",
      "outputs": [
        {
          "internalType": "contract IJBTiered721DelegateStore",
          "name": "",
          "type": "address"
        }
      ],
      "stateMutability": "view",
      "type": "function"
    },
    {
      "inputs": [
        {
          "internalType": "bytes4",
          "name": "_interfaceId",
          "type": "bytes4"
        }
      ],
      "name": "supportsInterface",
      "outputs": [
        {
          "internalType": "bool",
          "name": "",
          "type": "bool"
        }
      ],
      "stateMutability": "view",
      "type": "function"
    },
    {
      "inputs": [],
      "name": "symbol",
      "outputs": [
        {
          "internalType": "string",
          "name": "",
          "type": "string"
        }
      ],
      "stateMutability": "view",
      "type": "function"
    },
    {
      "inputs": [
        {
          "internalType": "uint256",
          "name": "_tokenId",
          "type": "uint256"
        }
      ],
      "name": "tokenURI",
      "outputs": [
        {
          "internalType": "string",
          "name": "",
          "type": "string"
        }
      ],
      "stateMutability": "view",
      "type": "function"
    },
    {
      "inputs": [
        {
          "components": [
            {
              "internalType": "contract IJBPaymentTerminal",
              "name": "terminal",
              "type": "address"
            },
            {
              "internalType": "address",
              "name": "holder",
              "type": "address"
            },
            {
              "internalType": "uint256",
              "name": "projectId",
              "type": "uint256"
            },
            {
              "internalType": "uint256",
              "name": "currentFundingCycleConfiguration",
              "type": "uint256"
            },
            {
              "internalType": "uint256",
              "name": "tokenCount",
              "type": "uint256"
            },
            {
              "internalType": "uint256",
              "name": "totalSupply",
              "type": "uint256"
            },
            {
              "internalType": "uint256",
              "name": "overflow",
              "type": "uint256"
            },
            {
              "components": [
                {
                  "internalType": "address",
                  "name": "token",
                  "type": "address"
                },
                {
                  "internalType": "uint256",
                  "name": "value",
                  "type": "uint256"
                },
                {
                  "internalType": "uint256",
                  "name": "decimals",
                  "type": "uint256"
                },
                {
                  "internalType": "uint256",
                  "name": "currency",
                  "type": "uint256"
                }
              ],
              "internalType": "struct JBTokenAmount",
              "name": "reclaimAmount",
              "type": "tuple"
            },
            {
              "internalType": "bool",
              "name": "useTotalOverflow",
              "type": "bool"
            },
            {
              "internalType": "uint256",
              "name": "redemptionRate",
              "type": "uint256"
            },
            {
              "internalType": "string",
              "name": "memo",
              "type": "string"
            },
            {
              "internalType": "bytes",
              "name": "metadata",
              "type": "bytes"
            }
          ],
          "internalType": "struct JBRedeemParamsData",
          "name": "",
          "type": "tuple"
        }
      ],
      "name": "totalRedemptionWeight",
      "outputs": [
        {
          "internalType": "uint256",
          "name": "",
          "type": "uint256"
        }
      ],
      "stateMutability": "view",
      "type": "function"
    },
    {
      "inputs": [
        {
          "internalType": "address",
          "name": "from",
          "type": "address"
        },
        {
          "internalType": "address",
          "name": "to",
          "type": "address"
        },
        {
          "internalType": "uint256",
          "name": "tokenId",
          "type": "uint256"
        }
      ],
      "name": "transferFrom",
      "outputs": [],
      "stateMutability": "nonpayable",
      "type": "function"
    },
    {
      "inputs": [
        {
          "internalType": "address",
          "name": "newOwner",
          "type": "address"
        }
      ],
      "name": "transferOwnership",
      "outputs": [],
      "stateMutability": "nonpayable",
      "type": "function"
    }
  ],
  "bytecode": {
    "object": "0x60806040523480156200001157600080fd5b506200001d3362000035565b600b80546001600160a01b0319163017905562000087565b600a80546001600160a01b038381166001600160a01b0319831681179093556040519116919082907f8be0079c531659141344cd1fd0a4f28419497f9722a3daafe3b4186f6b6457e090600090a35050565b61578a80620000976000396000f3fe6080604052600436106102c95760003560e01c8063715018a611610175578063aa4fb15b116100dc578063d3419bf311610095578063df487e261161006f578063df487e26146108d3578063e8a3d485146108f3578063e985e9c514610908578063f2fde38b1461095157600080fd5b8063d3419bf314610880578063d46cf171146108a0578063da9ee8b7146108c057600080fd5b8063aa4fb15b146107c0578063b88d4fde146107e0578063c41c2f2414610800578063c87b56dd14610820578063ccb4807b14610840578063d1704baf1461086057600080fd5b806395d89b411161012e57806395d89b41146106fc578063975057e7146107115780639ab24eb014610731578063a0bcfc7f14610751578063a22cb46514610771578063a51cfd181461079157600080fd5b8063715018a61461065457806379a75319146106695780637ba62bf91461067e5780638da5cb5b1461069e5780638e539e8c146106bc5780639494bf72146106dc57600080fd5b806336c1a93b11610234578063557e7155116101ed5780636352211e116101c75780636352211e146105d157806364640c1e146105f15780636ac6d9411461060757806370a082311461063457600080fd5b8063557e715514610558578063587cde1e146105785780635c19a95c146105b157600080fd5b806336c1a93b146104ac5780633a46b1a8146104cc5780633fafa127146104ec57806342842e0e146105025780634ecba6251461052257806354c6d1f51461053857600080fd5b80632407497e116102865780632407497e146103bf578063245a45b5146103df57806325eb91ee1461041a5780632a55205a1461043a5780632a596e53146104795780632b13c58f1461049957600080fd5b806301ffc9a7146102ce57806306fdde0314610303578063081812fc14610325578063095ea7b31461035d5780631d153ca41461037f57806323b872dd1461039f575b600080fd5b3480156102da57600080fd5b506102ee6102e9366004613d9d565b610971565b60405190151581526020015b60405180910390f35b34801561030f57600080fd5b5061031861099c565b6040516102fa9190613e0a565b34801561033157600080fd5b50610345610340366004613e1d565b610a2e565b6040516001600160a01b0390911681526020016102fa565b34801561036957600080fd5b5061037d610378366004613e5b565b610a55565b005b34801561038b57600080fd5b50600b54610345906001600160a01b031681565b3480156103ab57600080fd5b5061037d6103ba366004613e87565b610ae1565b3480156103cb57600080fd5b5061037d6103da366004613ec8565b610b13565b3480156103eb57600080fd5b5061040c6103fa366004613ec8565b60116020526000908152604090205481565b6040519081526020016102fa565b34801561042657600080fd5b5061037d610435366004613f29565b610bbc565b34801561044657600080fd5b5061045a610455366004613fc3565b610d9f565b604080516001600160a01b0390931683526020830191909152016102fa565b34801561048557600080fd5b5061037d610494366004613fe5565b610ed2565b61037d6104a7366004614072565b610f2b565b3480156104b857600080fd5b5061037d6104c73660046140a6565b611105565b3480156104d857600080fd5b5061040c6104e7366004613e5b565b611167565b3480156104f857600080fd5b5061040c60085481565b34801561050e57600080fd5b5061037d61051d366004613e87565b611190565b34801561052e57600080fd5b5061040c60105481565b34801561054457600080fd5b50610345610553366004613e1d565b6111ab565b34801561056457600080fd5b50600d54610345906001600160a01b031681565b34801561058457600080fd5b50610345610593366004613ec8565b6001600160a01b039081166000908152602081905260409020541690565b3480156105bd57600080fd5b5061037d6105cc366004613ec8565b611257565b3480156105dd57600080fd5b506103456105ec366004613e1d565b611264565b3480156105fd57600080fd5b5061040c600f5481565b34801561061357600080fd5b506106276106223660046140e7565b61129a565b6040516102fa9190614178565b34801561064057600080fd5b5061040c61064f366004613ec8565b6113e0565b34801561066057600080fd5b5061037d611456565b34801561067557600080fd5b5061040c60c881565b34801561068a57600080fd5b5061040c6106993660046142cd565b61146a565b3480156106aa57600080fd5b50600a546001600160a01b0316610345565b3480156106c857600080fd5b5061040c6106d7366004613e1d565b6114de565b3480156106e857600080fd5b5061040c6106f7366004614072565b61150b565b34801561070857600080fd5b5061031861153c565b34801561071d57600080fd5b50600c54610345906001600160a01b031681565b34801561073d57600080fd5b5061040c61074c366004613ec8565b61154b565b34801561075d57600080fd5b5061037d61076c366004614330565b61156c565b34801561077d57600080fd5b5061037d61078c3660046143a8565b611627565b34801561079d57600080fd5b506107b16107ac366004614072565b611636565b6040516102fa939291906143e1565b3480156107cc57600080fd5b5061037d6107db366004613fc3565b611895565b3480156107ec57600080fd5b5061037d6107fb3660046144b3565b611ab2565b34801561080c57600080fd5b50600954610345906001600160a01b031681565b34801561082c57600080fd5b5061031861083b366004613e1d565b611ae5565b34801561084c57600080fd5b5061037d61085b366004614330565b611cbf565b34801561086c57600080fd5b5061037d61087b3660046147d2565b611d72565b34801561088c57600080fd5b50600e54610345906001600160a01b031681565b3480156108ac57600080fd5b506107b16108bb36600461490b565b612064565b61037d6108ce366004614946565b612147565b3480156108df57600080fd5b5061037d6108ee366004613ec8565b6121fe565b3480156108ff57600080fd5b506103186122a0565b34801561091457600080fd5b506102ee610923366004614981565b6001600160a01b03918216600090815260076020908152604080832093909416825291909152205460ff1690565b34801561095d57600080fd5b5061037d61096c366004613ec8565b612316565b60006001600160e01b03198216632494300760e11b1480610996575061099682612391565b92915050565b6060600380546109ab906149af565b80601f01602080910402602001604051908101604052809291908181526020018280546109d7906149af565b8015610a245780601f106109f957610100808354040283529160200191610a24565b820191906000526020600020905b815481529060010190602001808311610a0757829003601f168201915b5050505050905090565b6000610a3982612422565b506000908152600660205260409020546001600160a01b031690565b6000610a6082611264565b9050806001600160a01b0316836001600160a01b031603610a945760405163133f8be960e01b815260040160405180910390fd5b336001600160a01b03821614801590610ab45750610ab28133610923565b155b15610ad25760405163e5fa0e3560e01b815260040160405180910390fd5b610adc8383612457565b505050565b610aeb33826124c5565b610b085760405163e5fa0e3560e01b815260040160405180910390fd5b610adc838383612544565b610b1b61261d565b600c5460405163036129cb60e61b81526001600160a01b0383811660048301529091169063d84a72c090602401600060405180830381600087803b158015610b6257600080fd5b505af1158015610b76573d6000803e3d6000fd5b50506040513381526001600160a01b03841692507fe7784d93cfbfa4408e19577e6cc0436f4dbb51214b70e100905dfce9def88c1691506020015b60405180910390a250565b610bc461261d565b82818015610c9457600c546040516320512ba160e01b81526001600160a01b03909116906320512ba190610bfe90879087906004016149e3565b600060405180830381600087803b158015610c1857600080fd5b505af1158015610c2c573d6000803e3d6000fd5b5050505060005b81811015610c9257848482818110610c4d57610c4d614a1c565b60405133815260209182029390930135927f832d89d991be5351d793c20faf4b7dd44f8aa9ce39e3cb160c6317de6fbba72992500160405180910390a2600101610c33565b505b8115610d9757600c5460405163229dad5f60e11b81526000916001600160a01b03169063453b5abe90610ccd908a908a90600401614b68565b6000604051808303816000875af1158015610cec573d6000803e3d6000fd5b505050506040513d6000823e601f3d908101601f19168201604052610d149190810190614c06565b905060005b83811015610d9457818181518110610d3357610d33614a1c565b60200260200101517f8aa4a03deb8db10032373886aa0376c918ccf36bcdb59ca4da2a807ac7ff1a04898984818110610d6e57610d6e614a1c565b90506101c0020133604051610d84929190614c3a565b60405180910390a2600101610d19565b50505b505050505050565b600c54604051633a39e4d160e11b815230600482015260248101849052600091829182916001600160a01b031690637473c9a2906044016101c060405180830381865afa158015610df4573d6000803e3d6000fd5b505050506040513d601f19601f82011682018060405250810190610e189190614c78565b600c54815160405163792d5f6d60e11b815230600482015260248101919091529192506000916001600160a01b039091169063f25abeda90604401602060405180830381865afa158015610e70573d6000803e3d6000fd5b505050506040513d601f19601f82011682018060405250810190610e949190614d42565b90506001600160a01b038116610eb257600080935093505050610ecb565b80610ec48684610100015160c8612677565b9350935050505b9250929050565b8060005b81811015610f25576000848483818110610ef257610ef2614a1c565b905060400201803603810190610f089190614d5f565b9050610f1c81600001518260200151611895565b50600101610ed6565b50505050565b34151580610fad5750600954600854604051636e49181f60e01b815260048101919091523360248201526001600160a01b0390911690636e49181f90604401602060405180830381865afa158015610f87573d6000803e3d6000fd5b505050506040513d601f19601f82011682018060405250810190610fab9190614dad565b155b80610fbe5750600854816020013514155b15610fdc57604051633efca5c360e11b815260040160405180910390fd5b6024610fec6101c0830183614dca565b90501080611030575063b3bcbb7960e01b61100b6101c0830183614dca565b61101a91602491602091614e10565b61102391614e3a565b6001600160e01b03191614155b1561104e57604051632a84050f60e01b815260040160405180910390fd5b600061105e6101c0830183614dca565b81019061106b9190614e6a565b925050506000815190506000805b828110156110fb5783818151811061109357611093614a1c565b602002602001015191508460000160208101906110b09190613ec8565b6000838152600560205260409020546001600160a01b039081169116146110ea5760405163075fd2b160e01b815260040160405180910390fd5b6110f382612743565b600101611079565b50610f25836127c4565b61110d61261d565b8060005b81811015610f25573684848381811061112c5761112c614a1c565b905060200281019061113e9190614ec2565b905061115d61114d8280614ee2565b6106226040850160208601613ec8565b5050600101611111565b6001600160a01b03821660009081526001602052604081206111899083612829565b9392505050565b610adc83838360405180602001604052806000815250611ab2565b600c546040516308ed6c0160e41b81523060048201526024810183905260009182916001600160a01b0390911690638ed6c01090604401602060405180830381865afa1580156111ff573d6000803e3d6000fd5b505050506040513d601f19601f820116820180604052508101906112239190614d42565b90506001600160a01b0381161561123a5792915050565b50506000908152600560205260409020546001600160a01b031690565b6112613382612938565b50565b6000818152600560205260408120546001600160a01b0316806109965760405163b49aa3b560e01b815260040160405180910390fd5b60606112a461261d565b600c5460405163eaa19ab360e01b81526001600160a01b039091169063eaa19ab3906112dd906000199088908890600190600401614f2b565b6000604051808303816000875af11580156112fc573d6000803e3d6000fd5b505050506040513d6000823e601f3d908101601f191682016040526113249190810190614f88565b509050826000805b828110156113d65783818151811061134657611346614a1c565b6020026020010151915061135a85836129aa565b846001600160a01b031687878381811061137657611376614a1c565b905060200201602081019061138b9190614fce565b604080516000815233602082015261ffff929092169185917f598baf7bf150ca2f42be9e9f8f55e81d45f5715c3ff22bf46d697fabec7f31d6910160405180910390a460010161132c565b5050509392505050565b600c54604051633de222bb60e21b81523060048201526001600160a01b038381166024830152600092169063f7888aec906044015b602060405180830381865afa158015611432573d6000803e3d6000fd5b505050506040513d601f19601f820116820180604052508101906109969190614fe9565b61145e61261d565b6114686000612a74565b565b600c5460405163051330b560e21b81526000916001600160a01b03169063144cc2d49061149d9030908790600401615002565b602060405180830381865afa1580156114ba573d6000803e3d6000fd5b505050506040513d601f19601f820116820180604052508101906111899190614fe9565b6000438210611500576040516305b5e09b60e51b815260040160405180910390fd5b610996600283612829565b600c54604051631572f24960e11b81523060048201526000916001600160a01b031690632ae5e49290602401611415565b6060600480546109ab906149af565b6001600160a01b038116600090815260016020526040812061099690612ac6565b61157461261d565b600c546040516331315e5960e11b81526001600160a01b0390911690636262bcb2906115a69085908590600401615026565b600060405180830381600087803b1580156115c057600080fd5b505af11580156115d4573d6000803e3d6000fd5b5050505081816040516115e8929190615055565b604051908190038120338252907f7bc9110d5de090dd59e07912d2b93a5a27ac70a60c8d8e324db4f9ee8b8b5c13906020015b60405180910390a25050565b611632338383612b22565b5050565b600060608060808401351561165e576040516309f82f1b60e31b815260040160405180910390fd5b602461166e6101c0860186614dca565b905010806116b2575063b3bcbb7960e01b61168d6101c0860186614dca565b61169c91602491602091614e10565b6116a591614e3a565b6001600160e01b03191614155b156116d057604051632a84050f60e01b815260040160405180910390fd5b60408051600180825281830190925290816020015b60408051808201909152600080825260208201528152602001906001900390816116e55790505090506040518060400160405280306001600160a01b0316815260200160008152508160008151811061174057611740614a1c565b6020908102919091010152600061175b6101c0860186614dca565b8101906117689190614e6a565b925050506000611778828761146a565b905060006117858761150b565b905060006117988860c001358484612677565b90506127108861018001350361180357806117b76101a08a018a614dca565b8782828080601f016020809104026020016040519081016040528093929190818152602001838380828437600092019190915250969d50919b5091995061188e98505050505050505050565b611839816118228561181c6101808d013561271061507b565b86612677565b611831906101808c013561508e565b612710612677565b6118476101a08a018a614dca565b8782828080601f016020809104026020016040519081016040528093929190818152602001838380828437600092019190915250969d50919b509199505050505050505050505b9193909250565b600d546008546040516321d1336160e11b815260048101919091526000916001600160a01b0316906343a266c29060240161012060405180830381865afa1580156118e4573d6000803e3d6000fd5b505050506040513d601f19601f8201168201806040525081019061190891906150a1565b61010081015190915060f51c60019081160361193757604051631d2c125760e31b815260040160405180910390fd5b600c54604051635d53f40760e11b815260048101859052602481018490526000916001600160a01b03169063baa7e80e906044016000604051808303816000875af115801561198a573d6000803e3d6000fd5b505050506040513d6000823e601f3d908101601f191682016040526119b29190810190614c06565b600c546040516304db994760e21b8152306004820152602481018790529192506000916001600160a01b039091169063136e651c90604401602060405180830381865afa158015611a07573d6000803e3d6000fd5b505050506040513d601f19601f82011682018060405250810190611a2b9190614d42565b90506000805b85811015611aa957838181518110611a4b57611a4b614a1c565b60200260200101519150611a5f83836129aa565b6040513381526001600160a01b03841690889084907f031e1988c95a91ec4d655ff63a8f87a80bc9daf28d95ae10ee08c0022cfb5c8b9060200160405180910390a4600101611a31565b50505050505050565b611abc33836124c5565b611ad95760405163e5fa0e3560e01b815260040160405180910390fd5b610f2584848484612bc1565b600c54604051630fab094760e01b81523060048201526060916000916001600160a01b0390911690630fab094790602401602060405180830381865afa158015611b33573d6000803e3d6000fd5b505050506040513d601f19601f82011682018060405250810190611b579190614d42565b90506001600160a01b03811615611bd557604051636d02a25560e11b8152600481018490526001600160a01b0382169063da0544aa90602401600060405180830381865afa158015611bad573d6000803e3d6000fd5b505050506040513d6000823e601f3d908101601f191682016040526111899190810190615121565b600c5460405163f682eeaf60e01b8152306004820152611189916001600160a01b03169063f682eeaf90602401600060405180830381865afa158015611c1f573d6000803e3d6000fd5b505050506040513d6000823e601f3d908101601f19168201604052611c479190810190615121565b600c54604051630c8df17160e41b8152306004820152602481018790526001600160a01b039091169063c8df171090604401602060405180830381865afa158015611c96573d6000803e3d6000fd5b505050506040513d601f19601f82011682018060405250810190611cba9190614fe9565b612bf5565b611cc761261d565b600c5460405163d67b78fd60e01b81526001600160a01b039091169063d67b78fd90611cf99085908590600401615026565b600060405180830381600087803b158015611d1357600080fd5b505af1158015611d27573d6000803e3d6000fd5b505050508181604051611d3b929190615055565b604051908190038120338252907fd36dc0c1a06103fdcaf15f3f6fb797d1a97997514c78de073640c8b5005454b89060200161161b565b600b546001600160a01b03163003611d8957600080fd5b600c546001600160a01b031615611d9f57600080fd5b611dab8b8b8b8b612c5c565b600d80546001600160a01b03808a166001600160a01b031992831617909255600c80548584169083161790556020850151600f5560408501516010556060850151600e8054919093169116179055855115611e5f576040516331315e5960e11b81526001600160a01b03831690636262bcb290611e2c908990600401613e0a565b600060405180830381600087803b158015611e4657600080fd5b505af1158015611e5a573d6000803e3d6000fd5b505050505b835115611ec55760405163d67b78fd60e01b81526001600160a01b0383169063d67b78fd90611e92908790600401613e0a565b600060405180830381600087803b158015611eac57600080fd5b505af1158015611ec0573d6000803e3d6000fd5b505050505b6001600160a01b03851615611f305760405163036129cb60e61b81526001600160a01b03868116600483015283169063d84a72c090602401600060405180830381600087803b158015611f1757600080fd5b505af1158015611f2b573d6000803e3d6000fd5b505050505b82515115611fae57825160405163229dad5f60e11b81526001600160a01b0384169163453b5abe91611f65919060040161518e565b6000604051808303816000875af1158015611f84573d6000803e3d6000fd5b505050506040513d6000823e601f3d908101601f19168201604052611fac9190810190614c06565b505b805180611fbc575080602001515b80611fc8575080604001515b1561204e57604080516365c13f1960e11b815282511515600482015260208301511515602482015290820151151560448201526060820151151560648201526001600160a01b0383169063cb827e3290608401600060405180830381600087803b15801561203557600080fd5b505af1158015612049573d6000803e3d6000fd5b505050505b61205733612a74565b5050505050505050505050565b61012081013560608061207b610160850185614dca565b8080601f016020809104026020016040519081016040528093929190818152602001838380828437600092019190915250929450600192506120bb915050565b60405190808252806020026020018201604052801561210057816020015b60408051808201909152600080825260208201528152602001906001900390816120d95790505b5090506040518060400160405280306001600160a01b0316815260200160008152508160008151811061213557612135614a1c565b60200260200101819052509193909250565b600854341515806121c85750600954604051636e49181f60e01b8152600481018390523360248201526001600160a01b0390911690636e49181f90604401602060405180830381865afa1580156121a2573d6000803e3d6000fd5b505050506040513d601f19601f820116820180604052508101906121c69190614dad565b155b806121d7575080826020013514155b156121f5576040516331c57b1b60e21b815260040160405180910390fd5b61163282612c8f565b61220661261d565b600c546040516317161f7d60e01b81526001600160a01b038381166004830152909116906317161f7d90602401600060405180830381600087803b15801561224d57600080fd5b505af1158015612261573d6000803e3d6000fd5b50506040513381526001600160a01b03841692507fab0014d4c7a642a02a31b303a318908c22b0fb2001f107278fc6076b4c671b659150602001610bb1565b600c54604051630155619b60e71b81523060048201526060916001600160a01b03169063aab0cd8090602401600060405180830381865afa1580156122e9573d6000803e3d6000fd5b505050506040513d6000823e601f3d908101601f191682016040526123119190810190615121565b905090565b61231e61261d565b6001600160a01b0381166123885760405162461bcd60e51b815260206004820152602660248201527f4f776e61626c653a206e6577206f776e657220697320746865207a65726f206160448201526564647265737360d01b60648201526084015b60405180910390fd5b61126181612a74565b60006001600160e01b0319821663b3bcbb7960e01b14806123c257506001600160e01b031982166371700c6960e01b145b806123dd57506001600160e01b0319821663da9ee8b760e01b145b806123f857506001600160e01b03198216632b13c58f60e01b145b8061241357506001600160e01b0319821663152a902d60e11b145b80610996575061099682612fa2565b6000818152600560205260409020546001600160a01b03166112615760405163b49aa3b560e01b815260040160405180910390fd5b600081815260066020526040902080546001600160a01b0319166001600160a01b038416908117909155819061248c82611264565b6001600160a01b03167f8c5be1e5ebec7d5bd14f71427d1e84f3dd0314c0f7b2291e5b200ac8c7c3b92560405160405180910390a45050565b6000806124d183611264565b9050806001600160a01b0316846001600160a01b0316148061251857506001600160a01b0380821660009081526007602090815260408083209388168352929052205460ff165b8061253c5750836001600160a01b031661253184610a2e565b6001600160a01b0316145b949350505050565b826001600160a01b031661255782611264565b6001600160a01b03161461257e5760405163a195bc5360e01b815260040160405180910390fd5b6001600160a01b0382166125a557604051632c95542760e01b815260040160405180910390fd5b6125b0838383612ff2565b6125bb600082612457565b60008181526005602052604080822080546001600160a01b0319166001600160a01b0386811691821790925591518493918716917fddf252ad1be2c89b69c2b068fc378daa952ba7f163c4a11628f55a4df523b3ef91a4610adc83838361321f565b600a546001600160a01b031633146114685760405162461bcd60e51b815260206004820181905260248201527f4f776e61626c653a2063616c6c6572206973206e6f7420746865206f776e6572604482015260640161237f565b60008080600019858709858702925082811083820303915050806000036126b1578382816126a7576126a76152ab565b0492505050611189565b8381106126db57604051631dcf306360e21b8152600481018290526024810185905260440161237f565b600084868809600260036001881981018916988990049182028318808302840302808302840302808302840302808302840302808302840302918202909203026000889003889004909101858311909403939093029303949094049190911702949350505050565b600061274e82611264565b905061275c81600084612ff2565b612767600083612457565b60008281526005602052604080822080546001600160a01b0319169055518391906001600160a01b038416907fddf252ad1be2c89b69c2b068fc378daa952ba7f163c4a11628f55a4df523b3ef908390a46116328160008461321f565b600c546040516386bc2be360e01b81526001600160a01b03909116906386bc2be3906127f4908490600401614178565b600060405180830381600087803b15801561280e57600080fd5b505af1158015612822573d6000803e3d6000fd5b5050505050565b600043821061287a5760405162461bcd60e51b815260206004820181905260248201527f436865636b706f696e74733a20626c6f636b206e6f7420796574206d696e6564604482015260640161237f565b825460005b818110156128df5760006128938284613318565b9050848660000182815481106128ab576128ab614a1c565b60009182526020909120015463ffffffff1611156128cb578092506128d9565b6128d681600161508e565b91505b5061287f565b811561292357846128f160018461507b565b8154811061290157612901614a1c565b60009182526020909120015464010000000090046001600160e01b0316612926565b60005b6001600160e01b031695945050505050565b6001600160a01b0382811660008181526020819052604080822080548686166001600160a01b0319821681179092559151919094169392849290917f3134e8a2e6d97e929a7e54011ea5485d7d196dd5f0ba4d4ef95803e8e3fc257f9190a4610adc81836129a586613333565b61336c565b6001600160a01b0382166129d157604051633904578f60e11b815260040160405180910390fd5b6000818152600560205260409020546001600160a01b031615612a0757604051632eb5f0c360e21b815260040160405180910390fd5b612a1360008383612ff2565b60008181526005602052604080822080546001600160a01b0319166001600160a01b03861690811790915590518392907fddf252ad1be2c89b69c2b068fc378daa952ba7f163c4a11628f55a4df523b3ef908290a46116326000838361321f565b600a80546001600160a01b038381166001600160a01b0319831681179093556040519116919082907f8be0079c531659141344cd1fd0a4f28419497f9722a3daafe3b4186f6b6457e090600090a35050565b80546000908015612b0f5782612add60018361507b565b81548110612aed57612aed614a1c565b60009182526020909120015464010000000090046001600160e01b0316612b12565b60005b6001600160e01b03169392505050565b816001600160a01b0316836001600160a01b031603612b54576040516306f8139d60e11b815260040160405180910390fd5b6001600160a01b03838116600081815260076020908152604080832094871680845294825291829020805460ff191686151590811790915591519182527f17307eab39ab6107e8899845ad3d59bd9653f200f220920489ca2b5937696c31910160405180910390a3505050565b612bcc848484612544565b612bd8848484846134a9565b610f25576040516336f57c1b60e11b815260040160405180910390fd5b604051609160f51b60208201526022810182905260609060009060420160405160208183030381529060405290506000612c2e826135ab565b90508481604051602001612c439291906152c1565b6040516020818303038152906040529250505092915050565b612c668282613743565b5050600891909155600980546001600160a01b0319166001600160a01b03909216919091179055565b600f5460009060c083013503612caa57506080810135612d60565b600e546001600160a01b03161561163257601054612d5d90608084013590612cd390600a6153d4565b600e54600f54604051635268657960e11b815260c08801356004820152602481019190915260a087013560448201526001600160a01b039091169063a4d0caf290606401602060405180830381865afa158015612d34573d6000803e3d6000fd5b505050506040513d601f19601f82011682018060405250810190612d589190614fe9565b612677565b90505b6000601181612d776101a086016101808701613ec8565b6001600160a01b03168152602081019190915260400160009081205491508290612da96101a086016101808701613ec8565b6001600160a01b0316612dbf6020870187613ec8565b6001600160a01b031603612dd65790820190612dd9565b50815b60006044612deb6101e0880188614dca565b9050118015612e2f575063b3bcbb7960e01b612e0b6101e0880188614dca565b612e1a91604491604091614e10565b612e2391614e3a565b6001600160e01b031916145b15612f06576060612e446101e0880188614dca565b810190612e5191906153e0565b90955093508492505081159050612ed45750600c54604051634228826f60e11b81523060048201526001600160a01b039091169063845104de90602401608060405180830381865afa158015612eab573d6000803e3d6000fd5b505050506040513d601f19601f82011682018060405250810190612ecf91906154b2565b606001515b15612ede57600091505b805115612f0457612f018482612efc6101a08b016101808c01613ec8565b61375c565b93505b505b8215612f625780612f2a57604051631b57826960e21b815260040160405180910390fd5b82820160116000612f436101a08a016101808b01613ec8565b6001600160a01b03168152602081019190915260400160002055610d97565b818414610d97578160116000612f806101a08a016101808b01613ec8565b6001600160a01b03168152602081019190915260400160002055505050505050565b60006001600160e01b031982166380ac58cd60e01b1480612fd357506001600160e01b03198216635b5e139f60e01b145b8061099657506301ffc9a760e01b6001600160e01b0319831614610996565b6001600160a01b03831615610adc57600c5460405163b67cb04760e01b8152306004820152602481018390526000916001600160a01b03169063b67cb047906044016101c060405180830381865afa158015613052573d6000803e3d6000fd5b505050506040513d601f19601f820116820180604052508101906130769190614c78565b9050806101a001511561313b57600d546008546040516321d1336160e11b815260048101919091526000916001600160a01b0316906343a266c29060240161012060405180830381865afa1580156130d2573d6000803e3d6000fd5b505050506040513d601f19601f820116820180604052508101906130f691906150a1565b90506001600160a01b0384161580159061311b575061010081015160f41c6001908116145b15613139576040516318cdaf9760e01b815260040160405180910390fd5b505b600c546040516308ed6c0160e41b8152306004820152602481018490526000916001600160a01b031690638ed6c01090604401602060405180830381865afa15801561318b573d6000803e3d6000fd5b505050506040513d601f19601f820116820180604052508101906131af9190614d42565b6001600160a01b031603610f2557600c54604051638cec7d3960e01b8152600481018490526001600160a01b03868116602483015290911690638cec7d3990604401600060405180830381600087803b15801561320b57600080fd5b505af1158015610d94573d6000803e3d6000fd5b600c5460405163b67cb04760e01b8152306004820152602481018390526000916001600160a01b03169063b67cb047906044016101c060405180830381865afa158015613270573d6000803e3d6000fd5b505050506040513d601f19601f820116820180604052508101906132949190614c78565b600c5481516040516330b157e560e21b815260048101919091526001600160a01b038781166024830152868116604483015292935091169063c2c55f9490606401600060405180830381600087803b1580156132ef57600080fd5b505af1158015613303573d6000803e3d6000fd5b505050506133138484848461389e565b610f25565b60006133276002848418615536565b6111899084841661508e565b600c54604051631266aaaf60e31b81523060048201526001600160a01b0383811660248301526000921690639335557890604401611415565b816001600160a01b0316836001600160a01b03161415801561338e5750600081115b15610adc576001600160a01b0383161561341c576001600160a01b038316600090815260016020526040812081906133c9906138b7856138c3565b91509150846001600160a01b03167fdec2bacdd2f05b59de34da9b523dff8be42e5e38e818c82fdb0bae774387a7248383604051613411929190918252602082015260400190565b60405180910390a250505b6001600160a01b03821615610adc576001600160a01b03821660009081526001602052604081208190613452906138f1856138c3565b91509150836001600160a01b03167fdec2bacdd2f05b59de34da9b523dff8be42e5e38e818c82fdb0bae774387a724838360405161349a929190918252602082015260400190565b60405180910390a25050505050565b60006001600160a01b0384163b156135a057604051630a85bd0160e11b81526001600160a01b0385169063150b7a02906134ed90339089908890889060040161554a565b6020604051808303816000875af1925050508015613528575060408051601f3d908101601f1916820190925261352591810190615587565b60015b613586573d808015613556576040519150601f19603f3d011682016040523d82523d6000602084013e61355b565b606091505b50805160000361357e576040516336f57c1b60e11b815260040160405180910390fd5b805181602001fd5b6001600160e01b031916630a85bd0160e11b14905061253c565b506001949350505050565b606081516000036135ca57505060408051600081526020810190915290565b60408051602e8082526105e08201909252600091602082016105c08036833701905050905060008160008151811061360457613604614a1c565b60ff90921660209283029190910190910152825160019060005b8181101561371f57600086828151811061363a5761363a614a1c565b016020015160f81c905060005b8460ff168110156136c457600886828151811061366657613666614a1c565b602002602001015160ff16901b8261367e919061508e565b915061368b603a836155a4565b86828151811061369d5761369d614a1c565b60ff909216602092830291909101909101526136ba603a83615536565b9150600101613647565b505b8015613716576136d7603a826155a4565b858560ff16815181106136ec576136ec614a1c565b60ff9092166020928302919091019091015260019093019261370f603a82615536565b90506136c6565b5060010161361e565b5061373a61373561373085856138fd565b6139a4565b613a46565b95945050505050565b600361374f83826155fe565b506004610adc82826155fe565b600c5460405163eaa19ab360e01b81526000916060916001600160a01b039091169063eaa19ab390613796908890889087906004016156bd565b6000604051808303816000875af11580156137b5573d6000803e3d6000fd5b505050506040513d6000823e601f3d908101601f191682016040526137dd9190810190614f88565b81519093509091506000805b828110156138935783818151811061380357613803614a1c565b6020026020010151915061381786836129aa565b856001600160a01b031687828151811061383357613833614a1c565b602002602001015161ffff16837f598baf7bf150ca2f42be9e9f8f55e81d45f5715c3ff22bf46d697fabec7f31d68b336040516138839291909182526001600160a01b0316602082015260400190565b60405180910390a46001016137e9565b505050509392505050565b60a081015115610f2557610f2584848360a00151613b1f565b6000611189828461507b565b6000806138e5856138e06138d688612ac6565b868863ffffffff16565b613b8f565b91509150935093915050565b6000611189828461508e565b606060008260ff166001600160401b0381111561391c5761391c61418b565b604051908082528060200260200182016040528015613945578160200160208202803683370190505b50905060005b8360ff1681101561399c5784818151811061396857613968614a1c565b602002602001015182828151811061398257613982614a1c565b60ff9092166020928302919091019091015260010161394b565b509392505050565b80516060906000816001600160401b038111156139c3576139c361418b565b6040519080825280602002602001820160405280156139ec578160200160208202803683370190505b50905060005b8281101561399c57848160018751030381518110613a1257613a12614a1c565b6020026020010151828281518110613a2c57613a2c614a1c565b60ff909216602092830291909101909101526001016139f2565b80516060906000816001600160401b03811115613a6557613a6561418b565b6040519080825280601f01601f191660200182016040528015613a8f576020820181803683370190505b50905060005b8281101561399c576040518060600160405280603a815260200161571b603a9139858281518110613ac857613ac8614a1c565b602002602001015160ff1681518110613ae357613ae3614a1c565b602001015160f81c60f81b828281518110613b0057613b00614a1c565b60200101906001600160f81b031916908160001a905350600101613a95565b6001600160a01b038316613b3e57613b3b60026138f1836138c3565b50505b6001600160a01b038216613b5d57613b5a60026138b7836138c3565b50505b6001600160a01b03838116600090815260208190526040808220548584168352912054610adc9291821691168361336c565b8154600090819081613ba086612ac6565b9050600082118015613bde57504386613bba60018561507b565b81548110613bca57613bca614a1c565b60009182526020909120015463ffffffff16145b15613c3e57613bec85613cb5565b86613bf860018561507b565b81548110613c0857613c08614a1c565b9060005260206000200160000160046101000a8154816001600160e01b0302191690836001600160e01b03160217905550613cac565b856000016040518060400160405280613c5643613d22565b63ffffffff168152602001613c6a88613cb5565b6001600160e01b0390811690915282546001810184556000938452602093849020835194909301519091166401000000000263ffffffff909316929092179101555b95939450505050565b60006001600160e01b03821115613d1e5760405162461bcd60e51b815260206004820152602760248201527f53616665436173743a2076616c756520646f65736e27742066697420696e20326044820152663234206269747360c81b606482015260840161237f565b5090565b600063ffffffff821115613d1e5760405162461bcd60e51b815260206004820152602660248201527f53616665436173743a2076616c756520646f65736e27742066697420696e203360448201526532206269747360d01b606482015260840161237f565b6001600160e01b03198116811461126157600080fd5b600060208284031215613daf57600080fd5b813561118981613d87565b60005b83811015613dd5578181015183820152602001613dbd565b50506000910152565b60008151808452613df6816020860160208601613dba565b601f01601f19169290920160200192915050565b6020815260006111896020830184613dde565b600060208284031215613e2f57600080fd5b5035919050565b6001600160a01b038116811461126157600080fd5b8035613e5681613e36565b919050565b60008060408385031215613e6e57600080fd5b8235613e7981613e36565b946020939093013593505050565b600080600060608486031215613e9c57600080fd5b8335613ea781613e36565b92506020840135613eb781613e36565b929592945050506040919091013590565b600060208284031215613eda57600080fd5b813561118981613e36565b60008083601f840112613ef757600080fd5b5081356001600160401b03811115613f0e57600080fd5b6020830191508360208260051b8501011115610ecb57600080fd5b60008060008060408587031215613f3f57600080fd5b84356001600160401b0380821115613f5657600080fd5b818701915087601f830112613f6a57600080fd5b813581811115613f7957600080fd5b8860206101c083028501011115613f8f57600080fd5b602092830196509450908601359080821115613faa57600080fd5b50613fb787828801613ee5565b95989497509550505050565b60008060408385031215613fd657600080fd5b50508035926020909101359150565b60008060208385031215613ff857600080fd5b82356001600160401b038082111561400f57600080fd5b818501915085601f83011261402357600080fd5b81358181111561403257600080fd5b8660208260061b850101111561404757600080fd5b60209290920196919550909350505050565b60006101e0828403121561406c57600080fd5b50919050565b60006020828403121561408457600080fd5b81356001600160401b0381111561409a57600080fd5b61253c84828501614059565b600080602083850312156140b957600080fd5b82356001600160401b038111156140cf57600080fd5b6140db85828601613ee5565b90969095509350505050565b6000806000604084860312156140fc57600080fd5b83356001600160401b0381111561411257600080fd5b61411e86828701613ee5565b909450925050602084013561413281613e36565b809150509250925092565b600081518084526020808501945080840160005b8381101561416d57815187529582019590820190600101614151565b509495945050505050565b602081526000611189602083018461413d565b634e487b7160e01b600052604160045260246000fd5b604051608081016001600160401b03811182821017156141c3576141c361418b565b60405290565b6040516101c081016001600160401b03811182821017156141c3576141c361418b565b60405161012081016001600160401b03811182821017156141c3576141c361418b565b604051601f8201601f191681016001600160401b03811182821017156142375761423761418b565b604052919050565b60006001600160401b038211156142585761425861418b565b5060051b60200190565b600082601f83011261427357600080fd5b813560206142886142838361423f565b61420f565b82815260059290921b840181019181810190868411156142a757600080fd5b8286015b848110156142c257803583529183019183016142ab565b509695505050505050565b600080604083850312156142e057600080fd5b82356001600160401b03808211156142f757600080fd5b61430386838701614262565b9350602085013591508082111561431957600080fd5b5061432685828601614059565b9150509250929050565b6000806020838503121561434357600080fd5b82356001600160401b038082111561435a57600080fd5b818501915085601f83011261436e57600080fd5b81358181111561437d57600080fd5b86602082850101111561404757600080fd5b801515811461126157600080fd5b8035613e568161438f565b600080604083850312156143bb57600080fd5b82356143c681613e36565b915060208301356143d68161438f565b809150509250929050565b838152600060206060818401526143fb6060840186613dde565b83810360408581019190915285518083528387019284019060005b8181101561444457845180516001600160a01b03168452860151868401529385019391830191600101614416565b50909998505050505050505050565b60006001600160401b0382111561446c5761446c61418b565b50601f01601f191660200190565b600061448861428384614453565b905082815283838301111561449c57600080fd5b828260208301376000602084830101529392505050565b600080600080608085870312156144c957600080fd5b84356144d481613e36565b935060208501356144e481613e36565b92506040850135915060608501356001600160401b0381111561450657600080fd5b8501601f8101871361451757600080fd5b6145268782356020840161447a565b91505092959194509250565b600082601f83011261454357600080fd5b6111898383356020850161447a565b803569ffffffffffffffffffff81168114613e5657600080fd5b803565ffffffffffff81168114613e5657600080fd5b803564ffffffffff81168114613e5657600080fd5b803561ffff81168114613e5657600080fd5b803560ff81168114613e5657600080fd5b600060808083850312156145cd57600080fd5b6145d56141a1565b915082356001600160401b038111156145ed57600080fd5b8301601f810185136145fe57600080fd5b8035602061460e6142838361423f565b8281526101c0928302840182019282820191908985111561462e57600080fd5b948301945b848610156147455780868b03121561464b5760008081fd5b6146536141c9565b61465c87614552565b815261466985880161456c565b85820152604061467a818901614582565b90820152606061468b888201614597565b9082015261469a878901614597565b8882015260a06146ab818901613e4b565b9082015260c06146bc8882016145a9565b9082015260e06146cd888201613e4b565b9082015261010087810135908201526101206146ea8189016145a9565b908201526101406146fc88820161439d565b9082015261016061470e88820161439d565b9082015261018061472088820161439d565b908201526101a061473288820161439d565b9082015283529485019491830191614633565b5086525085810135908501525050506040808301359082015261476a60608301613e4b565b606082015292915050565b60006080828403121561478757600080fd5b61478f6141a1565b9050813561479c8161438f565b815260208201356147ac8161438f565b602082015260408201356147bf8161438f565b6040820152606082013561476a8161438f565b60008060008060008060008060008060006101c08c8e0312156147f457600080fd5b8b359a5061480460208d01613e4b565b99506001600160401b038060408e0135111561481f57600080fd5b61482f8e60408f01358f01614532565b99508060608e0135111561484257600080fd5b6148528e60608f01358f01614532565b985061486060808e01613e4b565b97508060a08e0135111561487357600080fd5b6148838e60a08f01358f01614532565b965061489160c08e01613e4b565b95508060e08e013511156148a457600080fd5b6148b48e60e08f01358f01614532565b9450806101008e013511156148c857600080fd5b506148da8d6101008e01358e016145ba565b92506148e96101208d01613e4b565b91506148f98d6101408e01614775565b90509295989b509295989b9093969950565b60006020828403121561491d57600080fd5b81356001600160401b0381111561493357600080fd5b82016101a0818503121561118957600080fd5b60006020828403121561495857600080fd5b81356001600160401b0381111561496e57600080fd5b8201610200818503121561118957600080fd5b6000806040838503121561499457600080fd5b823561499f81613e36565b915060208301356143d681613e36565b600181811c908216806149c357607f821691505b60208210810361406c57634e487b7160e01b600052602260045260246000fd5b6020808252810182905260006001600160fb1b03831115614a0357600080fd5b8260051b80856040850137919091016040019392505050565b634e487b7160e01b600052603260045260246000fd5b614a4f82614a3f83614552565b69ffffffffffffffffffff169052565b614a5b6020820161456c565b65ffffffffffff166020830152614a7460408201614582565b64ffffffffff166040830152614a8c60608201614597565b61ffff166060830152614aa160808201614597565b61ffff166080830152614ab660a08201613e4b565b6001600160a01b031660a0830152614ad060c082016145a9565b60ff1660c0830152614ae460e08201613e4b565b6001600160a01b031660e08301526101008181013590830152610120614b0b8183016145a9565b60ff1690830152610140614b2082820161439d565b151590830152610160614b3482820161439d565b151590830152610180614b4882820161439d565b1515908301526101a0614b5c82820161439d565b80151584830152610f25565b6020808252810182905260008360408301825b85811015614ba157614b8d8284614a32565b6101c0928301929190910190600101614b7b565b5095945050505050565b600082601f830112614bbc57600080fd5b81516020614bcc6142838361423f565b82815260059290921b84018101918181019086841115614beb57600080fd5b8286015b848110156142c25780518352918301918301614bef565b600060208284031215614c1857600080fd5b81516001600160401b03811115614c2e57600080fd5b61253c84828501614bab565b6101e08101614c498285614a32565b6001600160a01b03929092166101c09190910152919050565b8051613e5681613e36565b8051613e568161438f565b60006101c08284031215614c8b57600080fd5b614c936141c9565b825181526020830151602082015260408301516040820152606083015160608201526080830151608082015260a083015160a082015260c083015160c0820152614cdf60e08401614c62565b60e08201526101008381015190820152610120614cfd818501614c62565b9082015261014083810151908201526101608084015190820152610180614d25818501614c6d565b908201526101a0614d37848201614c6d565b908201529392505050565b600060208284031215614d5457600080fd5b815161118981613e36565b600060408284031215614d7157600080fd5b604051604081018181106001600160401b0382111715614d9357614d9361418b565b604052823581526020928301359281019290925250919050565b600060208284031215614dbf57600080fd5b81516111898161438f565b6000808335601e19843603018112614de157600080fd5b8301803591506001600160401b03821115614dfb57600080fd5b602001915036819003821315610ecb57600080fd5b60008085851115614e2057600080fd5b83861115614e2d57600080fd5b5050820193919092039150565b6001600160e01b03198135818116916004851015614e625780818660040360031b1b83161692505b505092915050565b600080600060608486031215614e7f57600080fd5b833592506020840135614e9181613d87565b915060408401356001600160401b03811115614eac57600080fd5b614eb886828701614262565b9150509250925092565b60008235603e19833603018112614ed857600080fd5b9190910192915050565b6000808335601e19843603018112614ef957600080fd5b8301803591506001600160401b03821115614f1357600080fd5b6020019150600581901b3603821315610ecb57600080fd5b84815260606020808301829052908201849052600090859060808401835b87811015614f705761ffff614f5d85614597565b1682529282019290820190600101614f49565b50809350505050821515604083015295945050505050565b60008060408385031215614f9b57600080fd5b82516001600160401b03811115614fb157600080fd5b614fbd85828601614bab565b925050602083015190509250929050565b600060208284031215614fe057600080fd5b61118982614597565b600060208284031215614ffb57600080fd5b5051919050565b6001600160a01b038316815260406020820181905260009061253c9083018461413d565b60208152816020820152818360408301376000818301604090810191909152601f909201601f19160101919050565b8183823760009101908152919050565b634e487b7160e01b600052601160045260246000fd5b8181038181111561099657610996615065565b8082018082111561099657610996615065565b600061012082840312156150b457600080fd5b6150bc6141ec565b825181526020830151602082015260408301516040820152606083015160608201526080830151608082015260a083015160a082015260c083015160c082015261510860e08401614c62565b60e0820152610100928301519281019290925250919050565b60006020828403121561513357600080fd5b81516001600160401b0381111561514957600080fd5b8201601f8101841361515a57600080fd5b805161516861428382614453565b81815285602083850101111561517d57600080fd5b61373a826020830160208601613dba565b602080825282518282018190526000919060409081850190868401855b8281101561529e578151805169ffffffffffffffffffff1685528681015165ffffffffffff16878601528581015164ffffffffff168686015260608082015161ffff908116918701919091526080808301519091169086015260a0808201516001600160a01b039081169187019190915260c08083015160ff9081169188019190915260e08084015190921691870191909152610100808301519087015261012080830151909116908601526101408082015115159086015261016080820151151590860152610180808201511515908601526101a0908101511515908501526101c090930192908501906001016151ab565b5091979650505050505050565b634e487b7160e01b600052601260045260246000fd5b600083516152d3818460208801613dba565b8351908301906152e7818360208801613dba565b01949350505050565b600181815b8085111561532b57816000190482111561531157615311615065565b8085161561531e57918102915b93841c93908002906152f5565b509250929050565b60008261534257506001610996565b8161534f57506000610996565b8160018114615365576002811461536f5761538b565b6001915050610996565b60ff84111561538057615380615065565b50506001821b610996565b5060208310610133831016604e8410600b84101617156153ae575081810a610996565b6153b883836152f0565b80600019048211156153cc576153cc615065565b029392505050565b60006111898383615333565b600080600080600060a086880312156153f857600080fd5b853594506020808701359450604087013561541281613d87565b935060608701356154228161438f565b925060808701356001600160401b0381111561543d57600080fd5b8701601f8101891361544e57600080fd5b803561545c6142838261423f565b81815260059190911b8201830190838101908b83111561547b57600080fd5b928401925b828410156154a05761549184614597565b82529284019290840190615480565b80955050505050509295509295909350565b6000608082840312156154c457600080fd5b604051608081018181106001600160401b03821117156154e6576154e661418b565b60405282516154f48161438f565b815260208301516155048161438f565b602082015260408301516155178161438f565b6040820152606083015161552a8161438f565b60608201529392505050565b600082615545576155456152ab565b500490565b6001600160a01b038581168252841660208201526040810183905260806060820181905260009061557d90830184613dde565b9695505050505050565b60006020828403121561559957600080fd5b815161118981613d87565b6000826155b3576155b36152ab565b500690565b601f821115610adc57600081815260208120601f850160051c810160208610156155df5750805b601f850160051c820191505b81811015610d97578281556001016155eb565b81516001600160401b038111156156175761561761418b565b61562b8161562584546149af565b846155b8565b602080601f83116001811461566057600084156156485750858301515b600019600386901b1c1916600185901b178555610d97565b600085815260208120601f198616915b8281101561568f57888601518255948401946001909101908401615670565b50858210156156ad5787850151600019600388901b60f8161c191681555b5050505050600190811b01905550565b6000606082018583526020606081850152818651808452608086019150828801935060005b8181101561570257845161ffff16835293830193918301916001016156e2565b5050809350505050821515604083015294935050505056fe31323334353637383941424344454647484a4b4c4d4e505152535455565758595a6162636465666768696a6b6d6e6f707172737475767778797aa2646970667358221220ff4297faafb8d1e2daa0ea3f78f61fe78b1ddca50331d57f97ef12ca32a45e1864736f6c63430008100033",
    "linkReferences": {}
  },
  "methodIdentifiers": {
    "MAX_ROYALTY_RATE()": "79a75319",
    "adjustTiers((uint80,uint48,uint40,uint16,uint16,address,uint8,address,bytes32,uint8,bool,bool,bool,bool)[],uint256[])": "25eb91ee",
    "approve(address,uint256)": "095ea7b3",
    "balanceOf(address)": "70a08231",
    "codeOrigin()": "1d153ca4",
    "contractURI()": "e8a3d485",
    "creditsOf(address)": "245a45b5",
    "delegate(address)": "5c19a95c",
    "delegates(address)": "587cde1e",
    "didPay((address,uint256,uint256,(address,uint256,uint256,uint256),(address,uint256,uint256,uint256),uint256,address,bool,string,bytes))": "da9ee8b7",
    "didRedeem((address,uint256,uint256,uint256,(address,uint256,uint256,uint256),(address,uint256,uint256,uint256),address,string,bytes))": "2b13c58f",
    "directory()": "c41c2f24",
    "firstOwnerOf(uint256)": "54c6d1f5",
    "fundingCycleStore()": "557e7155",
    "getApproved(uint256)": "081812fc",
    "getPastTotalSupply(uint256)": "8e539e8c",
    "getPastVotes(address,uint256)": "3a46b1a8",
    "getVotes(address)": "9ab24eb0",
    "initialize(uint256,address,string,string,address,string,address,string,((uint80,uint48,uint40,uint16,uint16,address,uint8,address,bytes32,uint8,bool,bool,bool,bool)[],uint256,uint256,address),address,(bool,bool,bool,bool))": "d1704baf",
    "isApprovedForAll(address,address)": "e985e9c5",
    "mintFor((uint16[],address)[])": "36c1a93b",
    "mintFor(uint16[],address)": "6ac6d941",
    "mintReservesFor((uint256,uint256)[])": "2a596e53",
    "mintReservesFor(uint256,uint256)": "aa4fb15b",
    "name()": "06fdde03",
    "owner()": "8da5cb5b",
    "ownerOf(uint256)": "6352211e",
    "payParams((address,address,(address,uint256,uint256,uint256),uint256,uint256,address,uint256,uint256,string,bytes))": "d46cf171",
    "prices()": "d3419bf3",
    "pricingCurrency()": "64640c1e",
    "pricingDecimals()": "4ecba625",
    "projectId()": "3fafa127",
    "redeemParams((address,address,uint256,uint256,uint256,uint256,uint256,(address,uint256,uint256,uint256),bool,uint256,string,bytes))": "a51cfd18",
    "redemptionWeightOf(uint256[],(address,address,uint256,uint256,uint256,uint256,uint256,(address,uint256,uint256,uint256),bool,uint256,string,bytes))": "7ba62bf9",
    "renounceOwnership()": "715018a6",
    "royaltyInfo(uint256,uint256)": "2a55205a",
    "safeTransferFrom(address,address,uint256)": "42842e0e",
    "safeTransferFrom(address,address,uint256,bytes)": "b88d4fde",
    "setApprovalForAll(address,bool)": "a22cb465",
    "setBaseUri(string)": "a0bcfc7f",
    "setContractUri(string)": "ccb4807b",
    "setDefaultReservedTokenBeneficiary(address)": "df487e26",
    "setTokenUriResolver(address)": "2407497e",
    "store()": "975057e7",
    "supportsInterface(bytes4)": "01ffc9a7",
    "symbol()": "95d89b41",
    "tokenURI(uint256)": "c87b56dd",
    "totalRedemptionWeight((address,address,uint256,uint256,uint256,uint256,uint256,(address,uint256,uint256,uint256),bool,uint256,string,bytes))": "9494bf72",
    "transferFrom(address,address,uint256)": "23b872dd",
    "transferOwnership(address)": "f2fde38b"
  },
  "id": 0
}