{
  "abi": [
    {
      "inputs": [],
      "name": "INSUFFICIENT_AMOUNT",
      "type": "error"
    },
    {
      "inputs": [],
      "name": "INSUFFICIENT_RESERVES",
      "type": "error"
    },
    {
      "inputs": [],
      "name": "INVALID_TIER",
      "type": "error"
    },
    {
      "inputs": [],
      "name": "NOT_AVAILABLE",
      "type": "error"
    },
    {
      "inputs": [],
      "name": "NO_QUANTITY",
      "type": "error"
    },
    {
      "inputs": [],
      "name": "OUT",
      "type": "error"
    },
    {
      "inputs": [],
      "name": "RESERVED_RATE_NOT_ALLOWED",
      "type": "error"
    },
    {
      "inputs": [],
      "name": "TIER_LOCKED",
      "type": "error"
    },
    {
      "inputs": [],
      "name": "TIER_REMOVED",
      "type": "error"
    },
    {
      "inputs": [],
      "name": "VOTING_UNITS_NOT_ALLOWED",
      "type": "error"
    },
    {
      "inputs": [
        {
          "internalType": "address",
          "name": "_nft",
          "type": "address"
        },
        {
          "internalType": "address",
          "name": "_owner",
          "type": "address"
        }
      ],
      "name": "balanceOf",
      "outputs": [
        {
          "internalType": "uint256",
          "name": "balance",
          "type": "uint256"
        }
      ],
      "stateMutability": "view",
      "type": "function"
    },
    {
      "inputs": [
        {
          "internalType": "address",
          "name": "",
          "type": "address"
        }
      ],
      "name": "baseUriOf",
      "outputs": [
        {
          "internalType": "string",
          "name": "",
          "type": "string"
        }
      ],
      "stateMutability": "view",
      "type": "function"
    },
    {
      "inputs": [
        {
          "internalType": "address",
          "name": "",
          "type": "address"
        }
      ],
      "name": "contractUriOf",
      "outputs": [
        {
          "internalType": "string",
          "name": "",
          "type": "string"
        }
      ],
      "stateMutability": "view",
      "type": "function"
    },
    {
      "inputs": [
        {
          "internalType": "address",
          "name": "",
          "type": "address"
        },
        {
          "internalType": "uint256",
          "name": "",
          "type": "uint256"
        }
      ],
      "name": "firstOwnerOf",
      "outputs": [
        {
          "internalType": "address",
          "name": "",
          "type": "address"
        }
      ],
      "stateMutability": "view",
      "type": "function"
    },
    {
      "inputs": [
        {
          "internalType": "address",
          "name": "",
          "type": "address"
        },
        {
          "internalType": "uint256",
          "name": "",
          "type": "uint256"
        }
      ],
      "name": "isTierRemoved",
      "outputs": [
        {
          "internalType": "bool",
          "name": "",
          "type": "bool"
        }
      ],
      "stateMutability": "view",
      "type": "function"
    },
    {
      "inputs": [
        {
          "internalType": "address",
          "name": "_nft",
          "type": "address"
        },
        {
          "internalType": "uint256",
          "name": "_tierId",
          "type": "uint256"
        }
      ],
      "name": "numberOfReservedTokensOutstandingFor",
      "outputs": [
        {
          "internalType": "uint256",
          "name": "",
          "type": "uint256"
        }
      ],
      "stateMutability": "view",
      "type": "function"
    },
    {
      "inputs": [
        {
          "internalType": "address",
          "name": "",
          "type": "address"
        },
        {
          "internalType": "uint256",
          "name": "",
          "type": "uint256"
        }
      ],
      "name": "numberOfReservesMintedFor",
      "outputs": [
        {
          "internalType": "uint256",
          "name": "",
          "type": "uint256"
        }
      ],
      "stateMutability": "view",
      "type": "function"
    },
    {
      "inputs": [
        {
          "internalType": "address",
          "name": "",
          "type": "address"
        }
      ],
      "name": "numberOfTiers",
      "outputs": [
        {
          "internalType": "uint256",
          "name": "",
          "type": "uint256"
        }
      ],
      "stateMutability": "view",
      "type": "function"
    },
    {
      "inputs": [
        {
          "components": [
            {
              "internalType": "uint80",
              "name": "contributionFloor",
              "type": "uint80"
            },
            {
              "internalType": "uint48",
              "name": "lockedUntil",
              "type": "uint48"
            },
            {
              "internalType": "uint48",
              "name": "remainingQuantity",
              "type": "uint48"
            },
            {
              "internalType": "uint48",
              "name": "initialQuantity",
              "type": "uint48"
            },
            {
              "internalType": "uint16",
              "name": "votingUnits",
              "type": "uint16"
            },
            {
              "internalType": "uint16",
              "name": "reservedRate",
              "type": "uint16"
            },
            {
              "internalType": "bytes32",
              "name": "tokenUri",
              "type": "bytes32"
            }
          ],
          "internalType": "struct JBNFTRewardTierData[]",
          "name": "_tierData",
          "type": "tuple[]"
        },
        {
          "internalType": "bool",
          "name": "_constructorTiers",
          "type": "bool"
        }
      ],
      "name": "recordAddTierData",
      "outputs": [
        {
          "internalType": "uint256[]",
          "name": "tierIds",
          "type": "uint256[]"
        }
      ],
      "stateMutability": "nonpayable",
      "type": "function"
    },
    {
      "inputs": [
        {
          "internalType": "uint256",
          "name": "_amount",
          "type": "uint256"
        },
        {
          "internalType": "uint8[]",
          "name": "_tierIds",
          "type": "uint8[]"
        },
        {
          "internalType": "address",
          "name": "_beneficiary",
          "type": "address"
        }
      ],
      "name": "recordMint",
      "outputs": [
        {
          "internalType": "uint256[]",
          "name": "tokenIds",
          "type": "uint256[]"
        },
        {
          "internalType": "uint256",
          "name": "leftoverAmount",
          "type": "uint256"
        }
      ],
      "stateMutability": "nonpayable",
      "type": "function"
    },
    {
      "inputs": [
        {
          "internalType": "uint256",
          "name": "_amount",
          "type": "uint256"
        },
        {
          "internalType": "address",
          "name": "_beneficiary",
          "type": "address"
        },
        {
          "internalType": "bool",
          "name": "_expectMint",
          "type": "bool"
        }
      ],
      "name": "recordMintBestAvailableTier",
      "outputs": [
        {
          "internalType": "uint256",
          "name": "tokenId",
          "type": "uint256"
        },
        {
          "internalType": "uint256",
          "name": "tierId",
          "type": "uint256"
        },
        {
          "internalType": "uint256",
          "name": "leftoverAmount",
          "type": "uint256"
        }
      ],
      "stateMutability": "nonpayable",
      "type": "function"
    },
    {
      "inputs": [
        {
          "internalType": "uint256",
          "name": "_tierId",
          "type": "uint256"
        },
        {
          "internalType": "uint256",
          "name": "_count",
          "type": "uint256"
        }
      ],
      "name": "recordMintReservesFor",
      "outputs": [
        {
          "internalType": "uint256[]",
          "name": "tokenIds",
          "type": "uint256[]"
        }
      ],
      "stateMutability": "nonpayable",
      "type": "function"
    },
    {
      "inputs": [
        {
          "internalType": "uint256[]",
          "name": "_tierIds",
          "type": "uint256[]"
        }
      ],
      "name": "recordRemoveTierIds",
      "outputs": [],
      "stateMutability": "nonpayable",
      "type": "function"
    },
    {
      "inputs": [
        {
          "internalType": "string",
          "name": "_uri",
          "type": "string"
        }
      ],
      "name": "recordSetBaseUri",
      "outputs": [],
      "stateMutability": "nonpayable",
      "type": "function"
    },
    {
      "inputs": [
        {
          "internalType": "string",
          "name": "_uri",
          "type": "string"
        }
      ],
      "name": "recordSetContractUri",
      "outputs": [],
      "stateMutability": "nonpayable",
      "type": "function"
    },
    {
      "inputs": [
        {
          "internalType": "uint256",
          "name": "_tokenId",
          "type": "uint256"
        },
        {
          "internalType": "address",
          "name": "_owner",
          "type": "address"
        }
      ],
      "name": "recordSetFirstOwnerOf",
      "outputs": [],
      "stateMutability": "nonpayable",
      "type": "function"
    },
    {
      "inputs": [
        {
          "internalType": "address",
          "name": "_beneficiary",
          "type": "address"
        }
      ],
      "name": "recordSetReservedTokenBeneficiary",
      "outputs": [],
      "stateMutability": "nonpayable",
      "type": "function"
    },
    {
      "inputs": [
        {
          "internalType": "contract IJBTokenUriResolver",
          "name": "_resolver",
          "type": "address"
        }
      ],
      "name": "recordSetTokenUriResolver",
      "outputs": [],
      "stateMutability": "nonpayable",
      "type": "function"
    },
    {
      "inputs": [
        {
          "internalType": "address",
          "name": "_nft",
          "type": "address"
        },
        {
          "internalType": "uint256[]",
          "name": "_tokenIds",
          "type": "uint256[]"
        }
      ],
      "name": "redemptionWeightOf",
      "outputs": [
        {
          "internalType": "uint256",
          "name": "weight",
          "type": "uint256"
        }
      ],
      "stateMutability": "view",
      "type": "function"
    },
    {
      "inputs": [
        {
          "internalType": "address",
          "name": "",
          "type": "address"
        }
      ],
      "name": "reservedTokenBeneficiary",
      "outputs": [
        {
          "internalType": "address",
          "name": "",
          "type": "address"
        }
      ],
      "stateMutability": "view",
      "type": "function"
    },
    {
      "inputs": [
        {
          "internalType": "address",
          "name": "_nft",
          "type": "address"
        },
        {
          "internalType": "uint256",
          "name": "_id",
          "type": "uint256"
        }
      ],
      "name": "tier",
      "outputs": [
        {
          "components": [
            {
              "internalType": "uint256",
              "name": "id",
              "type": "uint256"
            },
            {
              "components": [
                {
                  "internalType": "uint80",
                  "name": "contributionFloor",
                  "type": "uint80"
                },
                {
                  "internalType": "uint48",
                  "name": "lockedUntil",
                  "type": "uint48"
                },
                {
                  "internalType": "uint48",
                  "name": "remainingQuantity",
                  "type": "uint48"
                },
                {
                  "internalType": "uint48",
                  "name": "initialQuantity",
                  "type": "uint48"
                },
                {
                  "internalType": "uint16",
                  "name": "votingUnits",
                  "type": "uint16"
                },
                {
                  "internalType": "uint16",
                  "name": "reservedRate",
                  "type": "uint16"
                },
                {
                  "internalType": "bytes32",
                  "name": "tokenUri",
                  "type": "bytes32"
                }
              ],
              "internalType": "struct JBNFTRewardTierData",
              "name": "data",
              "type": "tuple"
            }
          ],
          "internalType": "struct JBNFTRewardTier",
          "name": "",
          "type": "tuple"
        }
      ],
      "stateMutability": "view",
      "type": "function"
    },
    {
      "inputs": [
        {
          "internalType": "address",
          "name": "",
          "type": "address"
        },
        {
          "internalType": "address",
          "name": "",
          "type": "address"
        },
        {
          "internalType": "uint256",
          "name": "",
          "type": "uint256"
        }
      ],
      "name": "tierBalanceOf",
      "outputs": [
        {
          "internalType": "uint256",
          "name": "",
          "type": "uint256"
        }
      ],
      "stateMutability": "view",
      "type": "function"
    },
    {
      "inputs": [
        {
          "internalType": "address",
          "name": "",
          "type": "address"
        },
        {
          "internalType": "uint256",
          "name": "",
          "type": "uint256"
        }
      ],
      "name": "tierData",
      "outputs": [
        {
          "internalType": "uint80",
          "name": "contributionFloor",
          "type": "uint80"
        },
        {
          "internalType": "uint48",
          "name": "lockedUntil",
          "type": "uint48"
        },
        {
          "internalType": "uint48",
          "name": "remainingQuantity",
          "type": "uint48"
        },
        {
          "internalType": "uint48",
          "name": "initialQuantity",
          "type": "uint48"
        },
        {
          "internalType": "uint16",
          "name": "votingUnits",
          "type": "uint16"
        },
        {
          "internalType": "uint16",
          "name": "reservedRate",
          "type": "uint16"
        },
        {
          "internalType": "bytes32",
          "name": "tokenUri",
          "type": "bytes32"
        }
      ],
      "stateMutability": "view",
      "type": "function"
    },
    {
      "inputs": [
        {
          "internalType": "uint256",
          "name": "_tokenId",
          "type": "uint256"
        }
      ],
      "name": "tierIdOfToken",
      "outputs": [
        {
          "internalType": "uint256",
          "name": "",
          "type": "uint256"
        }
      ],
      "stateMutability": "pure",
      "type": "function"
    },
    {
      "inputs": [
        {
          "internalType": "address",
          "name": "_nft",
          "type": "address"
        },
        {
          "internalType": "uint256",
          "name": "_tokenId",
          "type": "uint256"
        }
      ],
      "name": "tierOfTokenId",
      "outputs": [
        {
          "components": [
            {
              "internalType": "uint256",
              "name": "id",
              "type": "uint256"
            },
            {
              "components": [
                {
                  "internalType": "uint80",
                  "name": "contributionFloor",
                  "type": "uint80"
                },
                {
                  "internalType": "uint48",
                  "name": "lockedUntil",
                  "type": "uint48"
                },
                {
                  "internalType": "uint48",
                  "name": "remainingQuantity",
                  "type": "uint48"
                },
                {
                  "internalType": "uint48",
                  "name": "initialQuantity",
                  "type": "uint48"
                },
                {
                  "internalType": "uint16",
                  "name": "votingUnits",
                  "type": "uint16"
                },
                {
                  "internalType": "uint16",
                  "name": "reservedRate",
                  "type": "uint16"
                },
                {
                  "internalType": "bytes32",
                  "name": "tokenUri",
                  "type": "bytes32"
                }
              ],
              "internalType": "struct JBNFTRewardTierData",
              "name": "data",
              "type": "tuple"
            }
          ],
          "internalType": "struct JBNFTRewardTier",
          "name": "",
          "type": "tuple"
        }
      ],
      "stateMutability": "view",
      "type": "function"
    },
    {
      "inputs": [
        {
          "internalType": "address",
          "name": "_nft",
          "type": "address"
        }
      ],
      "name": "tiers",
      "outputs": [
        {
          "components": [
            {
              "internalType": "uint256",
              "name": "id",
              "type": "uint256"
            },
            {
              "components": [
                {
                  "internalType": "uint80",
                  "name": "contributionFloor",
                  "type": "uint80"
                },
                {
                  "internalType": "uint48",
                  "name": "lockedUntil",
                  "type": "uint48"
                },
                {
                  "internalType": "uint48",
                  "name": "remainingQuantity",
                  "type": "uint48"
                },
                {
                  "internalType": "uint48",
                  "name": "initialQuantity",
                  "type": "uint48"
                },
                {
                  "internalType": "uint16",
                  "name": "votingUnits",
                  "type": "uint16"
                },
                {
                  "internalType": "uint16",
                  "name": "reservedRate",
                  "type": "uint16"
                },
                {
                  "internalType": "bytes32",
                  "name": "tokenUri",
                  "type": "bytes32"
                }
              ],
              "internalType": "struct JBNFTRewardTierData",
              "name": "data",
              "type": "tuple"
            }
          ],
          "internalType": "struct JBNFTRewardTier[]",
          "name": "_tiers",
          "type": "tuple[]"
        }
      ],
      "stateMutability": "view",
      "type": "function"
    },
    {
      "inputs": [
        {
          "internalType": "address",
          "name": "",
          "type": "address"
        }
      ],
      "name": "tokenUriResolverOf",
      "outputs": [
        {
          "internalType": "contract IJBTokenUriResolver",
          "name": "",
          "type": "address"
        }
      ],
      "stateMutability": "view",
      "type": "function"
    },
    {
      "inputs": [
        {
          "internalType": "address",
          "name": "_nft",
          "type": "address"
        }
      ],
      "name": "totalRedemptionWeight",
      "outputs": [
        {
          "internalType": "uint256",
          "name": "weight",
          "type": "uint256"
        }
      ],
      "stateMutability": "view",
      "type": "function"
    },
    {
      "inputs": [
        {
          "internalType": "address",
          "name": "_nft",
          "type": "address"
        }
      ],
      "name": "totalSupply",
      "outputs": [
        {
          "internalType": "uint256",
          "name": "supply",
          "type": "uint256"
        }
      ],
      "stateMutability": "view",
      "type": "function"
    },
    {
      "inputs": [
        {
          "internalType": "address",
          "name": "_nft",
          "type": "address"
        },
        {
          "internalType": "address",
          "name": "_account",
          "type": "address"
        }
      ],
      "name": "votingUnitsOf",
      "outputs": [
        {
          "internalType": "uint256",
          "name": "units",
          "type": "uint256"
        }
      ],
      "stateMutability": "view",
      "type": "function"
    }
  ],
  "bytecode": {
    "object": "0x608060405234801561001057600080fd5b50612299806100206000396000f3fe608060405234801561001057600080fd5b50600436106101da5760003560e01c80637473c9a211610104578063baa7e80e116100a2578063d84a72c011610071578063d84a72c01461062a578063e4dc2aa414610667578063f682eeaf1461067a578063f7888aec1461068d57600080fd5b8063baa7e80e146105b6578063c8111f27146105c9578063d16cbf93146105e9578063d67b78fd1461061757600080fd5b806393355578116100de57806393355578146104a65780639f4e964a146104b9578063aab0cd8014610583578063b67cb047146105a357600080fd5b80637473c9a2146104095780638cec7d39146104295780638ed6c0101461047257600080fd5b806335314b921161017c5780635f6466111161014b5780635f6466111461036d5780636262bcb2146103ab5780636825bb80146103be578063732e2dca146103e957600080fd5b806335314b92146102f557806337f446521461030857806342f9914b1461033957806350cb08b41461034d57600080fd5b8063144cc2d4116101b8578063144cc2d41461028d57806316545d0a146102ae57806320512ba1146102cf5780632ae5e492146102e257600080fd5b80630cc1b4f2146101df5780630fab094714610225578063103fdbc91461024e575b600080fd5b6102086101ed366004611a91565b6005602052600090815260409020546001600160a01b031681565b6040516001600160a01b0390911681526020015b60405180910390f35b610208610233366004611a91565b6008602052600090815260409020546001600160a01b031681565b61028b61025c366004611a91565b33600090815260056020526040902080546001600160a01b0319166001600160a01b0392909216919091179055565b005b6102a061029b366004611b28565b6106a0565b60405190815260200161021c565b6102c16102bc366004611e2a565b61072f565b60405161021c929190612018565b61028b6102dd366004611cdc565b610975565b6102a06102f0366004611a91565b610a21565b6102a0610303366004611b78565b610b61565b6102a0610316366004611ae7565b600260209081526000938452604080852082529284528284209052825290205481565b6102a0610347366004611dae565b60ff1690565b6102a061035b366004611a91565b60006020819052908152604090205481565b61039b61037b366004611b78565b600460209081526000928352604080842090915290825290205460ff1681565b604051901515815260200161021c565b61028b6103b9366004611d19565b610c10565b6102a06103cc366004611b78565b600360209081526000928352604080842090915290825290205481565b6103fc6103f7366004611ba4565b610c34565b60405161021c9190612005565b61041c610417366004611b78565b610e9a565b60405161021c919061208f565b61028b610437366004611dc7565b3360009081526006602090815260408083209483529390529190912080546001600160a01b0319166001600160a01b03909216919091179055565b610208610480366004611b78565b60066020908152600092835260408084209091529082529020546001600160a01b031681565b6102a06104b4366004611aae565b610f4e565b6105306104c7366004611b78565b6001602081815260009384526040808520909152918352912080549101546001600160501b0382169165ffffffffffff600160501b8204811692600160801b8304821692600160b01b81049092169161ffff600160e01b8204811692600160f01b909204169087565b604080516001600160501b03909816885265ffffffffffff96871660208901529486169487019490945293909116606085015261ffff908116608085015290911660a083015260c082015260e00161021c565b610596610591366004611a91565b610ff3565b60405161021c919061203a565b61041c6105b1366004611b78565b61108d565b6103fc6105c4366004611ebc565b611148565b6105dc6105d7366004611a91565b6112e6565b60405161021c9190611fb6565b6105fc6105f7366004611dec565b611473565b6040805193845260208401929092529082015260600161021c565b61028b610625366004611d19565b611621565b61028b610638366004611a91565b33600090815260086020526040902080546001600160a01b0319166001600160a01b0392909216919091179055565b6102a0610675366004611a91565b611641565b610596610688366004611a91565b6116cb565b6102a061069b366004611aae565b6116e4565b8051600090815b818110156107275760016000866001600160a01b03166001600160a01b0316815260200190815260200160002060006106f98684815181106106eb576106eb61221f565b602002602001015160ff1690565b815260208101919091526040016000205461071d906001600160501b03168461211c565b92506001016106a7565b505092915050565b606084836000808267ffffffffffffffff81111561074f5761074f612235565b604051908082528060200260200182016040528015610778578160200160208202803683370190505b50945060005b83811015610968578888828181106107985761079861221f565b90506020020160208101906107ad9190611ede565b33600090815260046020908152604080832060ff94851680855292529091205490935016156107ef5760405163d32cb5c160e01b815260040160405180910390fd5b33600090815260016020908152604080832085845290915290208054909350600160b01b900465ffffffffffff1661083a57604051630de5859f60e01b815260040160405180910390fd5b82546001600160501b031685101561086557604051632cd294cf60e01b815260040160405180910390fd5b6040805160e08101825284546001600160501b038116825265ffffffffffff600160501b820481166020840152600160801b8204811693830193909352600160b01b8104909216606082015261ffff600160e01b830481166080830152600160f01b90920490911660a0820152600184015460c08201526108e99033908490611748565b83546109049190600160801b900465ffffffffffff16612175565b6109215760405163985a45d960e01b815260040160405180910390fd5b61092c82848961185a565b86828151811061093e5761093e61221f565b6020908102919091010152825461095e906001600160501b031686612175565b945060010161077e565b5050505094509492505050565b80516000805b82811015610a1b578381815181106109955761099561221f565b602090810291909101810151336000908152600183526040808220838352909352919091205490925042600160501b90910465ffffffffffff16106109ed57604051636b73d51160e11b815260040160405180910390fd5b3360009081526004602090815260408083208584529091529020805460ff191660019081179091550161097b565b50505050565b6001600160a01b038116600090815260208190526040812054610a426118ee565b60005b82811015610b59576001600160a01b038516600090815260016020819052604082209190610a7490849061211c565b81526020808201929092526040908101600020815160e08101835281546001600160501b038116825265ffffffffffff600160501b8204811695830195909552600160801b8104851693820193909352600160b01b8304909316606084015261ffff600160e01b830481166080850152600160f01b90920490911660a08301526001015460c08201529150610b0a858284611748565b82604001518360600151610b1e919061218c565b8351610b3b9165ffffffffffff16906001600160501b0316612156565b610b45919061211c565b610b4f908561211c565b9350600101610a45565b505050919050565b6001600160a01b03821660009081526001602081815260408084208585528252808420815160e08101835281546001600160501b038116825265ffffffffffff600160501b8204811695830195909552600160801b8104851693820193909352600160b01b8304909316606084015261ffff600160e01b830481166080850152600160f01b90920490911660a08301529091015460c0820152610c079084908490611748565b90505b92915050565b3360009081526007602090815260409091208251610c309284019061192a565b5050565b6060610c3e6118ee565b8351336000908152602081905260409020548167ffffffffffffffff811115610c6957610c69612235565b604051908082528060200260200182016040528015610c92578160200160208202803683370190505b509350815b8015610e755786610ca9600183612175565b81518110610cb957610cb961221f565b6020026020010151935085610d1657608084015161ffff1615610cef57604051630189200360e11b815260040160405180910390fd5b60a084015161ffff1615610d165760405163a75b1cd560e01b815260040160405180910390fd5b606084015165ffffffffffff16610d4057604051631e0a863160e31b815260040160405180910390fd5b606084015165ffffffffffff1660408501526000610d5e828461211c565b33600090815260016020818152604080842085855282529283902089518154928b0151948b015160608c015160808d015160a08e015161ffff908116600160f01b026001600160f01b0391909216600160e01b02166001600160e01b0365ffffffffffff938416600160b01b0265ffffffffffff60b01b19958516600160801b02959095166bffffffffffffffffffffffff60801b1994909a16600160501b026fffffffffffffffffffffffffffffffff199098166001600160501b039096169590951796909617919091169690961717169190911792909217825560c088015191015590508086610e508487612175565b81518110610e6057610e6061221f565b60209081029190910101525060001901610c97565b50610e80828261211c565b336000908152602081905260409020555091949350505050565b610ea26119ae565b506040805180820182528281526001600160a01b038416600090815260016020818152848320868452815291849020845160e08101865281546001600160501b038116825265ffffffffffff600160501b8204811683870152600160801b8204811697830197909752600160b01b8104909616606082015261ffff600160e01b870481166080830152600160f01b90960490951660a0860152015460c084015281019190915292915050565b6001600160a01b038216600090815260208190526040812054805b8015610727576001600160a01b0380861660009081526002602090815260408083209388168352928152828220848352905220548015610fe9576001600160a01b0386166000908152600160209081526040808320858452909152902054610fdc90600160e01b900461ffff1682612156565b610fe6908561211c565b93505b5060001901610f69565b6009602052600090815260409020805461100c906121b3565b80601f0160208091040260200160405190810160405280929190818152602001828054611038906121b3565b80156110855780601f1061105a57610100808354040283529160200191611085565b820191906000526020600020905b81548152906001019060200180831161106857829003601f168201915b505050505081565b6110956119ae565b600060ff83166040805180820182528281526001600160a01b03871660009081526001602081815284832095835294855290839020835160e08101855281546001600160501b038116825265ffffffffffff600160501b8204811683890152600160801b8204811696830196909652600160b01b8104909516606082015261ffff600160e01b860481166080830152600160f01b90950490941660a0850152015460c08301529182015291505092915050565b3360008181526001602081815260408084208785528252808420815160e08101835281546001600160501b038116825265ffffffffffff600160501b8204811695830195909552600160801b8104851693820193909352600160b01b830490931660608481019190915261ffff600160e01b840481166080860152600160f01b90930490921660a08401529283015460c0830152939192916111eb918790611748565b90508084111561120e5760405163226f999960e11b815260040160405180910390fd5b3360009081526003602090815260408083208884529091528120805486929061123890849061211c565b9091555084905067ffffffffffffffff81111561125757611257612235565b604051908082528060200260200182016040528015611280578160200160208202803683370190505b50925060005b848110156112dd57336000908152600560205260408120546112b490889086906001600160a01b031661185a565b9050808583815181106112c9576112c961221f565b602090810291909101015250600101611286565b50505092915050565b6001600160a01b0381166000908152602081905260409020546060908067ffffffffffffffff81111561131b5761131b612235565b60405190808252806020026020018201604052801561135457816020015b6113416119ae565b8152602001906001900390816113395790505b5091506000815b8015611460576001600160a01b038516600090815260046020908152604080832084845290915290205460ff16611457576040805180820182528281526001600160a01b038716600090815260016020818152848320868452815291849020845160e08101865281546001600160501b038116825265ffffffffffff600160501b8204811683870152600160801b8204811697830197909752600160b01b8104909616606082015261ffff600160e01b870481166080830152600160f01b90960490951660a0860152015460c084015281019190915284518590849081106114455761144561221f565b60200260200101819052508160010191505b6000190161135b565b5081811461146c578083525b5050919050565b336000908152602081905260408120548190819061148f6118ee565b6000825b80156115b35733600090815260046020908152604080832084845290915290205460ff166115aa57336000908152600160208181526040808420858552825292839020835160e08101855281546001600160501b03811680835265ffffffffffff600160501b8304811695840195909552600160801b8204851696830196909652600160b01b8104909316606082015261ffff600160e01b840481166080830152600160f01b90930490921660a08301529091015460c0820152935082108015611567575082516001600160501b03168a10155b80156115935750611579338285611748565b836040015165ffffffffffff166115909190612175565b15155b156115aa5782519095506001600160501b03169050845b60001901611493565b5033600090815260016020908152604080832088845290915290206115d986828b61185a565b9650866116075787156115ff57604051630e5313df60e41b815260040160405180910390fd5b899450611614565b611611828b612175565b94505b5050505093509350939050565b3360009081526009602090815260409091208251610c309284019061192a565b6001600160a01b0381166000908152602081905260408120548190805b8015610b59576001600160a01b0385166000908152600160209081526040808320848452909152902080549093506116ae9065ffffffffffff600160801b8204811691600160b01b90041661218c565b6116c09065ffffffffffff168561211c565b93506000190161165e565b6007602052600090815260409020805461100c906121b3565b6001600160a01b038216600090815260208190526040812054805b8015610727576001600160a01b03808616600090815260026020908152604080832093881683529281528282208483529052205461173d908461211c565b9250600019016116ff565b6000816060015165ffffffffffff166000148061176b575060a082015161ffff16155b1561177857506000611853565b816040015165ffffffffffff16826060015165ffffffffffff1614156117a057506001611853565b6001600160a01b03841660009081526003602090815260408083208684529091528082205490840151606085015191929183916117dc9161218c565b65ffffffffffff166117ee9190612175565b905060008460a0015161ffff16826118069190612156565b9050600061181661271083612134565b9050600061182682612710612156565b6118309084612175565b11156118425761183f816121ee565b90505b61184c8482612175565b9450505050505b9392505050565b815460001965ffffffffffff600160801b808404821692830182160265ffffffffffff60801b19909316929092178085556000926118a9928792600160b01b90048216036001011660081b1790565b3360009081526002602090815260408083206001600160a01b0387168452825280832088845290915281208054929350916118e3906121ee565b909155509392505050565b6040805160e081018252600080825260208201819052918101829052606081018290526080810182905260a0810182905260c081019190915290565b828054611936906121b3565b90600052602060002090601f016020900481019282611958576000855561199e565b82601f1061197157805160ff191683800117855561199e565b8280016001018555821561199e579182015b8281111561199e578251825591602001919060010190611983565b506119aa9291506119cd565b5090565b6040518060400160405280600081526020016119c86118ee565b905290565b5b808211156119aa57600081556001016119ce565b600082601f8301126119f357600080fd5b81356020611a08611a03836120f8565b6120c7565b80838252828201915082860187848660051b8901011115611a2857600080fd5b60005b85811015611a4757813584529284019290840190600101611a2b565b5090979650505050505050565b80358015158114611a6457600080fd5b919050565b803561ffff81168114611a6457600080fd5b803565ffffffffffff81168114611a6457600080fd5b600060208284031215611aa357600080fd5b81356118538161224b565b60008060408385031215611ac157600080fd5b8235611acc8161224b565b91506020830135611adc8161224b565b809150509250929050565b600080600060608486031215611afc57600080fd5b8335611b078161224b565b92506020840135611b178161224b565b929592945050506040919091013590565b60008060408385031215611b3b57600080fd5b8235611b468161224b565b9150602083013567ffffffffffffffff811115611b6257600080fd5b611b6e858286016119e2565b9150509250929050565b60008060408385031215611b8b57600080fd5b8235611b968161224b565b946020939093013593505050565b6000806040808486031215611bb857600080fd5b833567ffffffffffffffff811115611bcf57600080fd5b8401601f81018613611be057600080fd5b80356020611bf0611a03836120f8565b8281528181019084830160e0808602870185018c1015611c0f57600080fd5b600096505b85871015611cbd5780828d031215611c2b57600080fd5b611c3361209e565b82356001600160501b0381168114611c4a57600080fd5b8152611c57838701611a7b565b86820152611c66898401611a7b565b898201526060611c77818501611a7b565b908201526080611c88848201611a69565b9082015260a0611c99848201611a69565b9082015260c083810135908201528452600196909601959284019290810190611c14565b50508097505050611ccf818801611a54565b9450505050509250929050565b600060208284031215611cee57600080fd5b813567ffffffffffffffff811115611d0557600080fd5b611d11848285016119e2565b949350505050565b60006020808385031215611d2c57600080fd5b823567ffffffffffffffff80821115611d4457600080fd5b818501915085601f830112611d5857600080fd5b813581811115611d6a57611d6a612235565b611d7c601f8201601f191685016120c7565b91508082528684828501011115611d9257600080fd5b8084840185840137600090820190930192909252509392505050565b600060208284031215611dc057600080fd5b5035919050565b60008060408385031215611dda57600080fd5b823591506020830135611adc8161224b565b600080600060608486031215611e0157600080fd5b833592506020840135611e138161224b565b9150611e2160408501611a54565b90509250925092565b60008060008060608587031215611e4057600080fd5b84359350602085013567ffffffffffffffff80821115611e5f57600080fd5b818701915087601f830112611e7357600080fd5b813581811115611e8257600080fd5b8860208260051b8501011115611e9757600080fd5b6020830195508094505050506040850135611eb18161224b565b939692955090935050565b60008060408385031215611ecf57600080fd5b50508035926020909101359150565b600060208284031215611ef057600080fd5b813560ff8116811461185357600080fd5b600081518084526020808501945080840160005b83811015611f3157815187529582019590820190600101611f15565b509495945050505050565b8051825260208101516001600160501b038151166020840152602081015165ffffffffffff8082166040860152806040840151166060860152806060840151166080860152505061ffff60808201511660a084015260a0810151611fa660c085018261ffff169052565b5060c081015160e0840152505050565b6020808252825182820181905260009190848201906040850190845b81811015611ff957611fe5838551611f3c565b928401926101009290920191600101611fd2565b50909695505050505050565b602081526000610c076020830184611f01565b60408152600061202b6040830185611f01565b90508260208301529392505050565b600060208083528351808285015260005b818110156120675785810183015185820160400152820161204b565b81811115612079576000604083870101525b50601f01601f1916929092016040019392505050565b6101008101610c0a8284611f3c565b60405160e0810167ffffffffffffffff811182821017156120c1576120c1612235565b60405290565b604051601f8201601f1916810167ffffffffffffffff811182821017156120f0576120f0612235565b604052919050565b600067ffffffffffffffff82111561211257612112612235565b5060051b60200190565b6000821982111561212f5761212f612209565b500190565b60008261215157634e487b7160e01b600052601260045260246000fd5b500490565b600081600019048311821515161561217057612170612209565b500290565b60008282101561218757612187612209565b500390565b600065ffffffffffff838116908316818110156121ab576121ab612209565b039392505050565b600181811c908216806121c757607f821691505b602082108114156121e857634e487b7160e01b600052602260045260246000fd5b50919050565b600060001982141561220257612202612209565b5060010190565b634e487b7160e01b600052601160045260246000fd5b634e487b7160e01b600052603260045260246000fd5b634e487b7160e01b600052604160045260246000fd5b6001600160a01b038116811461226057600080fd5b5056fea264697066735822122005d77c9a3bb28d06cacd4947be22245b0b509e73e66d484aca20b1fa2e72ad7764736f6c63430008060033",
    "linkReferences": {}
  },
  "methodIdentifiers": {
    "balanceOf(address,address)": "f7888aec",
    "baseUriOf(address)": "f682eeaf",
    "contractUriOf(address)": "aab0cd80",
    "firstOwnerOf(address,uint256)": "8ed6c010",
    "isTierRemoved(address,uint256)": "5f646611",
    "numberOfReservedTokensOutstandingFor(address,uint256)": "35314b92",
    "numberOfReservesMintedFor(address,uint256)": "6825bb80",
    "numberOfTiers(address)": "50cb08b4",
    "recordAddTierData((uint80,uint48,uint48,uint48,uint16,uint16,bytes32)[],bool)": "732e2dca",
    "recordMint(uint256,uint8[],address)": "16545d0a",
    "recordMintBestAvailableTier(uint256,address,bool)": "d16cbf93",
    "recordMintReservesFor(uint256,uint256)": "baa7e80e",
    "recordRemoveTierIds(uint256[])": "20512ba1",
    "recordSetBaseUri(string)": "6262bcb2",
    "recordSetContractUri(string)": "d67b78fd",
    "recordSetFirstOwnerOf(uint256,address)": "8cec7d39",
    "recordSetReservedTokenBeneficiary(address)": "103fdbc9",
    "recordSetTokenUriResolver(address)": "d84a72c0",
    "redemptionWeightOf(address,uint256[])": "144cc2d4",
    "reservedTokenBeneficiary(address)": "0cc1b4f2",
    "tier(address,uint256)": "7473c9a2",
    "tierBalanceOf(address,address,uint256)": "37f44652",
    "tierData(address,uint256)": "9f4e964a",
    "tierIdOfToken(uint256)": "42f9914b",
    "tierOfTokenId(address,uint256)": "b67cb047",
    "tiers(address)": "c8111f27",
    "tokenUriResolverOf(address)": "0fab0947",
    "totalRedemptionWeight(address)": "2ae5e492",
    "totalSupply(address)": "e4dc2aa4",
    "votingUnitsOf(address,address)": "93355578"
  },
  "id": 3
}