{
  "abi": [
    {
      "inputs": [
        {
          "internalType": "string",
          "name": "_baseUri",
          "type": "string"
        },
        {
          "internalType": "bytes32",
          "name": "_hexString",
          "type": "bytes32"
        }
      ],
      "name": "decode",
      "outputs": [
        {
          "internalType": "string",
          "name": "",
          "type": "string"
        }
      ],
      "stateMutability": "pure",
      "type": "function"
    }
  ],
  "bytecode": {
    "object": "0x6080806040523461001a576105bd9081610020823930815050f35b600080fdfe604060808152600436101561001357600080fd5b600090813560e01c63030cecc71461002a57600080fd5b80600319360112610127576004359167ffffffffffffffff83116101245736602384011215610124578260040135926100628461017f565b9161006f8451938461015d565b84835260209485840192366024838301011161012057908060248893018537840101526100f6846100be8551609160f51b838201526024356022820152602281526100b98161012b565b610268565b9385519485916100d68484019687925192839161019b565b82016100ea8251809386808501910161019b565b0103808552018361015d565b610112835194859381855251928380928601528585019061019b565b601f01601f19168101030190f35b8280fd5b80fd5b5080fd5b6060810190811067ffffffffffffffff82111761014757604052565b634e487b7160e01b600052604160045260246000fd5b90601f8019910116810190811067ffffffffffffffff82111761014757604052565b67ffffffffffffffff811161014757601f01601f191660200190565b60005b8381106101ae5750506000910152565b818101518382015260200161019e565b67ffffffffffffffff81116101475760051b60200190565b906101e0826101be565b6101ed604051918261015d565b82815280926101fe601f19916101be565b0190602036910137565b805182101561021c5760209160051b010190565b634e487b7160e01b600052603260045260246000fd5b60001981146102415760010190565b634e487b7160e01b600052601160045260246000fd5b90815181101561021c570160200190565b80511561055c5760409182516105e0810181811067ffffffffffffffff821117610147578452602e8152602092838201946105c036873782511561021c57919092600080965260019386955b81518710156103bb576102c78783610257565b5160f81c9188925b60ff90818916851015610358576102e68588610208565b51828116806000190461010011901515166103445761ff009060081b168101809111610330579061032a91603a9182820616610322878a610208565b520493610232565b926102cf565b634e487b7160e01b8b52601160045260248bfd5b634e487b7160e01b8c52601160045260248cfd5b91959694935050809791975b61037d575061037290610232565b9593929091936102b4565b9560ff809116603a9180838a0616610395838a610208565b5281146103a757600101960480610364565b634e487b7160e01b8a52601160045260248afd5b93955050929460ff8096166103cf816101d6565b92825b82811061053c575050506103e682516101d6565b93815b83518082101561045a5760001981810191808311610446578390030190811161043257908861041b61042d9387610208565b51166104278289610208565b52610232565b6103e9565b634e487b7160e01b84526011600452602484fd5b634e487b7160e01b86526011600452602486fd5b505094939291509482519361046e8561017f565b9461047b8251968761015d565b80865261048a601f199161017f565b013684870137865b84518110156105325761052d9082516104aa8161012b565b603a81527f31323334353637383941424344454647484a4b4c4d4e50515253545556575859868201527f5a6162636465666768696a6b6d6e6f707172737475767778797a000000000000848201526001600160f81b0319906105199086610511858b610208565b511690610257565b5116891a6105278289610257565b53610232565b610492565b5093955050505050565b808961054b6105579385610208565b51166104278288610208565b6103d2565b506040516020810181811067ffffffffffffffff82111761014757806000916040528183523690379056fea264697066735822122099bcbc5960c3b49abe743cb116412d1cf2a0d6c0a54a2a25dfa98f7e5b0f57e164736f6c63430008100033",
    "linkReferences": {}
  },
  "methodIdentifiers": {
    "decode(string,bytes32)": "030cecc7"
  },
  "id": 24
}