{"abi":[{"type":"function","name":"ETH","inputs":[],"outputs":[{"name":"","type":"uint256","internalType":"uint256"}],"stateMutability":"view"},{"type":"function","name":"USD","inputs":[],"outputs":[{"name":"","type":"uint256","internalType":"uint256"}],"stateMutability":"view"}],"bytecode":{"object":"0x6098610038600b82828239805160001a607314602b57634e487b7160e01b600052600060045260246000fd5b30600052607381538281f3fe7300000000000000000000000000000000000000003014608060405260043610603d5760003560e01c80631bf6c21b1460425780638322fff214605b575b600080fd5b6049600281565b60405190815260200160405180910390f35b604960018156fea264697066735822122078e861b1f926e6881ffd3ce497f166db5428e5a1243c1f3fcc3744c148ebcf2e64736f6c63430008170033","linkReferences":{}},"methodIdentifiers":{"ETH()":"8322fff2","USD()":"1bf6c21b"},"id":121}