{
  "_format": "hh-sol-artifact-1",
  "contractName": "JBConstants",
  "sourceName": "@jbx-protocol/contracts-v2/contracts/libraries/JBConstants.sol",
  "abi": [
    {
      "inputs": [],
      "name": "MAX_DISCOUNT_RATE",
      "outputs": [
        {
          "internalType": "uint256",
          "name": "",
          "type": "uint256"
        }
      ],
      "stateMutability": "view",
      "type": "function"
    },
    {
      "inputs": [],
      "name": "MAX_FEE",
      "outputs": [
        {
          "internalType": "uint256",
          "name": "",
          "type": "uint256"
        }
      ],
      "stateMutability": "view",
      "type": "function"
    },
    {
      "inputs": [],
      "name": "MAX_FEE_DISCOUNT",
      "outputs": [
        {
          "internalType": "uint256",
          "name": "",
          "type": "uint256"
        }
      ],
      "stateMutability": "view",
      "type": "function"
    },
    {
      "inputs": [],
      "name": "MAX_REDEMPTION_RATE",
      "outputs": [
        {
          "internalType": "uint256",
          "name": "",
          "type": "uint256"
        }
      ],
      "stateMutability": "view",
      "type": "function"
    },
    {
      "inputs": [],
      "name": "MAX_RESERVED_RATE",
      "outputs": [
        {
          "internalType": "uint256",
          "name": "",
          "type": "uint256"
        }
      ],
      "stateMutability": "view",
      "type": "function"
    },
    {
      "inputs": [],
      "name": "SPLITS_TOTAL_PERCENT",
      "outputs": [
        {
          "internalType": "uint256",
          "name": "",
          "type": "uint256"
        }
      ],
      "stateMutability": "view",
      "type": "function"
    }
  ],
  "bytecode": "0x60c4610039600b82828239805160001a60731461002c57634e487b7160e01b600052600060045260246000fd5b30600052607381538281f3fe730000000000000000000000000000000000000000301460806040526004361060655760003560e01c806319a9f94114606a5780634bb970421460865780635d14fef8146086578063870bc1fd14606a578063bc063e1a14606a578063d3c4fca914606a575b600080fd5b6074633b9aca0081565b60405190815260200160405180910390f35b60746127108156fea26469706673582212205f648fcec19e90ae672bdc802767f75b6d43877cdc7e4c096598ffa9c4e5dc5064736f6c63430008060033",
  "linkReferences": {},
  "deployedLinkReferences": {}
}