{
  "_format": "hh-sol-artifact-1",
  "contractName": "JBTieredLimitedNFTRewardDataSource",
  "sourceName": "contracts/JBTieredLimitedNFTRewardDataSource.sol",
  "abi": [
    {
      "inputs": [
        {
          "internalType": "uint256",
          "name": "_projectId",
          "type": "uint256"
        },
        {
          "internalType": "contract IJBDirectory",
          "name": "_directory",
          "type": "address"
        },
        {
          "internalType": "string",
          "name": "_name",
          "type": "string"
        },
        {
          "internalType": "string",
          "name": "_symbol",
          "type": "string"
        },
        {
          "internalType": "contract IJBTokenUriResolver",
          "name": "_tokenUriResolver",
          "type": "address"
        },
        {
          "internalType": "string",
          "name": "_contractUri",
          "type": "string"
        },
        {
          "internalType": "string",
          "name": "_baseUri",
          "type": "string"
        },
        {
          "internalType": "address",
          "name": "_owner",
          "type": "address"
        },
        {
          "components": [
            {
              "internalType": "uint80",
              "name": "contributionFloor",
              "type": "uint80"
            },
            {
              "internalType": "uint48",
              "name": "lockedUntil",
              "type": "uint48"
            },
            {
              "internalType": "uint48",
              "name": "remainingQuantity",
              "type": "uint48"
            },
            {
              "internalType": "uint48",
              "name": "initialQuantity",
              "type": "uint48"
            },
            {
              "internalType": "uint16",
              "name": "votingUnits",
              "type": "uint16"
            },
            {
              "internalType": "uint16",
              "name": "reservedRate",
              "type": "uint16"
            },
            {
              "internalType": "bytes32",
              "name": "tokenUri",
              "type": "bytes32"
            }
          ],
          "internalType": "struct JBNFTRewardTierData[]",
          "name": "_tierData",
          "type": "tuple[]"
        },
        {
          "internalType": "contract IJBTieredLimitedNFTRewardDataSourceStore",
          "name": "_store",
          "type": "address"
        }
      ],
      "stateMutability": "nonpayable",
      "type": "constructor"
    },
    {
      "inputs": [],
      "name": "ALEADY_MINTED",
      "type": "error"
    },
    {
      "inputs": [],
      "name": "APPROVAL_TO_CURRENT_OWNER",
      "type": "error"
    },
    {
      "inputs": [],
      "name": "APPROVE_TO_CALLER",
      "type": "error"
    },
    {
      "inputs": [],
      "name": "CALLER_NOT_OWNER_OR_APPROVED",
      "type": "error"
    },
    {
      "inputs": [],
      "name": "INCORRECT_OWNER",
      "type": "error"
    },
    {
      "inputs": [],
      "name": "INVALID_PAYMENT_EVENT",
      "type": "error"
    },
    {
      "inputs": [],
      "name": "INVALID_REDEMPTION_EVENT",
      "type": "error"
    },
    {
      "inputs": [],
      "name": "INVALID_TOKEN_ID",
      "type": "error"
    },
    {
      "inputs": [],
      "name": "MINT_TO_ZERO",
      "type": "error"
    },
    {
      "inputs": [],
      "name": "OVERSPENDING",
      "type": "error"
    },
    {
      "inputs": [
        {
          "internalType": "uint256",
          "name": "prod1",
          "type": "uint256"
        },
        {
          "internalType": "uint256",
          "name": "denominator",
          "type": "uint256"
        }
      ],
      "name": "PRBMath__MulDivOverflow",
      "type": "error"
    },
    {
      "inputs": [],
      "name": "TRANSFER_TO_NON_IMPLEMENTER",
      "type": "error"
    },
    {
      "inputs": [],
      "name": "TRANSFER_TO_ZERO_ADDRESS",
      "type": "error"
    },
    {
      "inputs": [],
      "name": "UNAUTHORIZED",
      "type": "error"
    },
    {
      "inputs": [],
      "name": "UNEXPECTED",
      "type": "error"
    },
    {
      "anonymous": false,
      "inputs": [
        {
          "indexed": true,
          "internalType": "address",
          "name": "owner",
          "type": "address"
        },
        {
          "indexed": true,
          "internalType": "address",
          "name": "approved",
          "type": "address"
        },
        {
          "indexed": true,
          "internalType": "uint256",
          "name": "tokenId",
          "type": "uint256"
        }
      ],
      "name": "Approval",
      "type": "event"
    },
    {
      "anonymous": false,
      "inputs": [
        {
          "indexed": true,
          "internalType": "address",
          "name": "owner",
          "type": "address"
        },
        {
          "indexed": true,
          "internalType": "address",
          "name": "operator",
          "type": "address"
        },
        {
          "indexed": false,
          "internalType": "bool",
          "name": "approved",
          "type": "bool"
        }
      ],
      "name": "ApprovalForAll",
      "type": "event"
    },
    {
      "anonymous": false,
      "inputs": [
        {
          "indexed": true,
          "internalType": "address",
          "name": "delegator",
          "type": "address"
        },
        {
          "indexed": true,
          "internalType": "address",
          "name": "fromDelegate",
          "type": "address"
        },
        {
          "indexed": true,
          "internalType": "address",
          "name": "toDelegate",
          "type": "address"
        }
      ],
      "name": "DelegateChanged",
      "type": "event"
    },
    {
      "anonymous": false,
      "inputs": [
        {
          "indexed": true,
          "internalType": "address",
          "name": "delegate",
          "type": "address"
        },
        {
          "indexed": false,
          "internalType": "uint256",
          "name": "previousBalance",
          "type": "uint256"
        },
        {
          "indexed": false,
          "internalType": "uint256",
          "name": "newBalance",
          "type": "uint256"
        }
      ],
      "name": "DelegateVotesChanged",
      "type": "event"
    },
    {
      "anonymous": false,
      "inputs": [
        {
          "indexed": true,
          "internalType": "uint256",
          "name": "tokenId",
          "type": "uint256"
        },
        {
          "indexed": true,
          "internalType": "uint256",
          "name": "tierId",
          "type": "uint256"
        },
        {
          "indexed": true,
          "internalType": "address",
          "name": "beneficiary",
          "type": "address"
        },
        {
          "indexed": false,
          "internalType": "uint256",
          "name": "totalAmountContributed",
          "type": "uint256"
        },
        {
          "indexed": false,
          "internalType": "uint256",
          "name": "numRewards",
          "type": "uint256"
        },
        {
          "indexed": false,
          "internalType": "address",
          "name": "caller",
          "type": "address"
        }
      ],
      "name": "Mint",
      "type": "event"
    },
    {
      "anonymous": false,
      "inputs": [
        {
          "indexed": true,
          "internalType": "uint256",
          "name": "tokenId",
          "type": "uint256"
        },
        {
          "indexed": true,
          "internalType": "uint256",
          "name": "tierId",
          "type": "uint256"
        },
        {
          "indexed": true,
          "internalType": "address",
          "name": "beneficiary",
          "type": "address"
        },
        {
          "indexed": false,
          "internalType": "address",
          "name": "caller",
          "type": "address"
        }
      ],
      "name": "MintReservedToken",
      "type": "event"
    },
    {
      "anonymous": false,
      "inputs": [
        {
          "indexed": true,
          "internalType": "address",
          "name": "previousOwner",
          "type": "address"
        },
        {
          "indexed": true,
          "internalType": "address",
          "name": "newOwner",
          "type": "address"
        }
      ],
      "name": "OwnershipTransferred",
      "type": "event"
    },
    {
      "anonymous": false,
      "inputs": [
        {
          "indexed": true,
          "internalType": "string",
          "name": "baseUri",
          "type": "string"
        },
        {
          "indexed": false,
          "internalType": "address",
          "name": "caller",
          "type": "address"
        }
      ],
      "name": "SetBaseUri",
      "type": "event"
    },
    {
      "anonymous": false,
      "inputs": [
        {
          "indexed": true,
          "internalType": "string",
          "name": "contractUri",
          "type": "string"
        },
        {
          "indexed": false,
          "internalType": "address",
          "name": "caller",
          "type": "address"
        }
      ],
      "name": "SetContractUri",
      "type": "event"
    },
    {
      "anonymous": false,
      "inputs": [
        {
          "indexed": true,
          "internalType": "address",
          "name": "beneficiary",
          "type": "address"
        },
        {
          "indexed": false,
          "internalType": "address",
          "name": "caller",
          "type": "address"
        }
      ],
      "name": "SetReservedTokenBeneficiary",
      "type": "event"
    },
    {
      "anonymous": false,
      "inputs": [
        {
          "indexed": true,
          "internalType": "contract IJBTokenUriResolver",
          "name": "newResolver",
          "type": "address"
        },
        {
          "indexed": false,
          "internalType": "address",
          "name": "caller",
          "type": "address"
        }
      ],
      "name": "SetTokenUriResolver",
      "type": "event"
    },
    {
      "anonymous": false,
      "inputs": [
        {
          "indexed": true,
          "internalType": "address",
          "name": "from",
          "type": "address"
        },
        {
          "indexed": true,
          "internalType": "address",
          "name": "to",
          "type": "address"
        },
        {
          "indexed": true,
          "internalType": "uint256",
          "name": "tokenId",
          "type": "uint256"
        }
      ],
      "name": "Transfer",
      "type": "event"
    },
    {
      "inputs": [],
      "name": "DOMAIN_SEPARATOR",
      "outputs": [
        {
          "internalType": "bytes32",
          "name": "",
          "type": "bytes32"
        }
      ],
      "stateMutability": "view",
      "type": "function"
    },
    {
      "inputs": [
        {
          "components": [
            {
              "internalType": "uint80",
              "name": "contributionFloor",
              "type": "uint80"
            },
            {
              "internalType": "uint48",
              "name": "lockedUntil",
              "type": "uint48"
            },
            {
              "internalType": "uint48",
              "name": "remainingQuantity",
              "type": "uint48"
            },
            {
              "internalType": "uint48",
              "name": "initialQuantity",
              "type": "uint48"
            },
            {
              "internalType": "uint16",
              "name": "votingUnits",
              "type": "uint16"
            },
            {
              "internalType": "uint16",
              "name": "reservedRate",
              "type": "uint16"
            },
            {
              "internalType": "bytes32",
              "name": "tokenUri",
              "type": "bytes32"
            }
          ],
          "internalType": "struct JBNFTRewardTierData[]",
          "name": "_tierDataToAdd",
          "type": "tuple[]"
        },
        {
          "internalType": "uint256[]",
          "name": "_tierIdsToRemove",
          "type": "uint256[]"
        }
      ],
      "name": "adjustTiers",
      "outputs": [],
      "stateMutability": "nonpayable",
      "type": "function"
    },
    {
      "inputs": [
        {
          "internalType": "address",
          "name": "to",
          "type": "address"
        },
        {
          "internalType": "uint256",
          "name": "tokenId",
          "type": "uint256"
        }
      ],
      "name": "approve",
      "outputs": [],
      "stateMutability": "nonpayable",
      "type": "function"
    },
    {
      "inputs": [
        {
          "internalType": "address",
          "name": "_owner",
          "type": "address"
        }
      ],
      "name": "balanceOf",
      "outputs": [
        {
          "internalType": "uint256",
          "name": "balance",
          "type": "uint256"
        }
      ],
      "stateMutability": "view",
      "type": "function"
    },
    {
      "inputs": [],
      "name": "baseUri",
      "outputs": [
        {
          "internalType": "string",
          "name": "",
          "type": "string"
        }
      ],
      "stateMutability": "view",
      "type": "function"
    },
    {
      "inputs": [],
      "name": "contractUri",
      "outputs": [
        {
          "internalType": "string",
          "name": "",
          "type": "string"
        }
      ],
      "stateMutability": "view",
      "type": "function"
    },
    {
      "inputs": [
        {
          "internalType": "address",
          "name": "delegatee",
          "type": "address"
        }
      ],
      "name": "delegate",
      "outputs": [],
      "stateMutability": "nonpayable",
      "type": "function"
    },
    {
      "inputs": [
        {
          "internalType": "address",
          "name": "delegatee",
          "type": "address"
        },
        {
          "internalType": "uint256",
          "name": "nonce",
          "type": "uint256"
        },
        {
          "internalType": "uint256",
          "name": "expiry",
          "type": "uint256"
        },
        {
          "internalType": "uint8",
          "name": "v",
          "type": "uint8"
        },
        {
          "internalType": "bytes32",
          "name": "r",
          "type": "bytes32"
        },
        {
          "internalType": "bytes32",
          "name": "s",
          "type": "bytes32"
        }
      ],
      "name": "delegateBySig",
      "outputs": [],
      "stateMutability": "nonpayable",
      "type": "function"
    },
    {
      "inputs": [
        {
          "internalType": "address",
          "name": "account",
          "type": "address"
        }
      ],
      "name": "delegates",
      "outputs": [
        {
          "internalType": "address",
          "name": "",
          "type": "address"
        }
      ],
      "stateMutability": "view",
      "type": "function"
    },
    {
      "inputs": [
        {
          "components": [
            {
              "internalType": "address",
              "name": "payer",
              "type": "address"
            },
            {
              "internalType": "uint256",
              "name": "projectId",
              "type": "uint256"
            },
            {
              "internalType": "uint256",
              "name": "currentFundingCycleConfiguration",
              "type": "uint256"
            },
            {
              "components": [
                {
                  "internalType": "address",
                  "name": "token",
                  "type": "address"
                },
                {
                  "internalType": "uint256",
                  "name": "value",
                  "type": "uint256"
                },
                {
                  "internalType": "uint256",
                  "name": "decimals",
                  "type": "uint256"
                },
                {
                  "internalType": "uint256",
                  "name": "currency",
                  "type": "uint256"
                }
              ],
              "internalType": "struct JBTokenAmount",
              "name": "amount",
              "type": "tuple"
            },
            {
              "internalType": "uint256",
              "name": "projectTokenCount",
              "type": "uint256"
            },
            {
              "internalType": "address",
              "name": "beneficiary",
              "type": "address"
            },
            {
              "internalType": "bool",
              "name": "preferClaimedTokens",
              "type": "bool"
            },
            {
              "internalType": "string",
              "name": "memo",
              "type": "string"
            },
            {
              "internalType": "bytes",
              "name": "metadata",
              "type": "bytes"
            }
          ],
          "internalType": "struct JBDidPayData",
          "name": "_data",
          "type": "tuple"
        }
      ],
      "name": "didPay",
      "outputs": [],
      "stateMutability": "nonpayable",
      "type": "function"
    },
    {
      "inputs": [
        {
          "components": [
            {
              "internalType": "address",
              "name": "holder",
              "type": "address"
            },
            {
              "internalType": "uint256",
              "name": "projectId",
              "type": "uint256"
            },
            {
              "internalType": "uint256",
              "name": "currentFundingCycleConfiguration",
              "type": "uint256"
            },
            {
              "internalType": "uint256",
              "name": "projectTokenCount",
              "type": "uint256"
            },
            {
              "components": [
                {
                  "internalType": "address",
                  "name": "token",
                  "type": "address"
                },
                {
                  "internalType": "uint256",
                  "name": "value",
                  "type": "uint256"
                },
                {
                  "internalType": "uint256",
                  "name": "decimals",
                  "type": "uint256"
                },
                {
                  "internalType": "uint256",
                  "name": "currency",
                  "type": "uint256"
                }
              ],
              "internalType": "struct JBTokenAmount",
              "name": "reclaimedAmount",
              "type": "tuple"
            },
            {
              "internalType": "address payable",
              "name": "beneficiary",
              "type": "address"
            },
            {
              "internalType": "string",
              "name": "memo",
              "type": "string"
            },
            {
              "internalType": "bytes",
              "name": "metadata",
              "type": "bytes"
            }
          ],
          "internalType": "struct JBDidRedeemData",
          "name": "_data",
          "type": "tuple"
        }
      ],
      "name": "didRedeem",
      "outputs": [],
      "stateMutability": "nonpayable",
      "type": "function"
    },
    {
      "inputs": [],
      "name": "directory",
      "outputs": [
        {
          "internalType": "contract IJBDirectory",
          "name": "",
          "type": "address"
        }
      ],
      "stateMutability": "view",
      "type": "function"
    },
    {
      "inputs": [
        {
          "internalType": "uint256",
          "name": "_tokenId",
          "type": "uint256"
        }
      ],
      "name": "firstOwnerOf",
      "outputs": [
        {
          "internalType": "address",
          "name": "",
          "type": "address"
        }
      ],
      "stateMutability": "view",
      "type": "function"
    },
    {
      "inputs": [
        {
          "internalType": "uint256",
          "name": "tokenId",
          "type": "uint256"
        }
      ],
      "name": "getApproved",
      "outputs": [
        {
          "internalType": "address",
          "name": "",
          "type": "address"
        }
      ],
      "stateMutability": "view",
      "type": "function"
    },
    {
      "inputs": [
        {
          "internalType": "uint256",
          "name": "blockNumber",
          "type": "uint256"
        }
      ],
      "name": "getPastTotalSupply",
      "outputs": [
        {
          "internalType": "uint256",
          "name": "",
          "type": "uint256"
        }
      ],
      "stateMutability": "view",
      "type": "function"
    },
    {
      "inputs": [
        {
          "internalType": "address",
          "name": "account",
          "type": "address"
        },
        {
          "internalType": "uint256",
          "name": "blockNumber",
          "type": "uint256"
        }
      ],
      "name": "getPastVotes",
      "outputs": [
        {
          "internalType": "uint256",
          "name": "",
          "type": "uint256"
        }
      ],
      "stateMutability": "view",
      "type": "function"
    },
    {
      "inputs": [
        {
          "internalType": "address",
          "name": "account",
          "type": "address"
        }
      ],
      "name": "getVotes",
      "outputs": [
        {
          "internalType": "uint256",
          "name": "",
          "type": "uint256"
        }
      ],
      "stateMutability": "view",
      "type": "function"
    },
    {
      "inputs": [
        {
          "internalType": "address",
          "name": "owner",
          "type": "address"
        },
        {
          "internalType": "address",
          "name": "operator",
          "type": "address"
        }
      ],
      "name": "isApprovedForAll",
      "outputs": [
        {
          "internalType": "bool",
          "name": "",
          "type": "bool"
        }
      ],
      "stateMutability": "view",
      "type": "function"
    },
    {
      "inputs": [
        {
          "internalType": "uint256",
          "name": "_tierId",
          "type": "uint256"
        },
        {
          "internalType": "uint256",
          "name": "_count",
          "type": "uint256"
        }
      ],
      "name": "mintReservesFor",
      "outputs": [],
      "stateMutability": "nonpayable",
      "type": "function"
    },
    {
      "inputs": [],
      "name": "name",
      "outputs": [
        {
          "internalType": "string",
          "name": "",
          "type": "string"
        }
      ],
      "stateMutability": "view",
      "type": "function"
    },
    {
      "inputs": [
        {
          "internalType": "address",
          "name": "owner",
          "type": "address"
        }
      ],
      "name": "nonces",
      "outputs": [
        {
          "internalType": "uint256",
          "name": "",
          "type": "uint256"
        }
      ],
      "stateMutability": "view",
      "type": "function"
    },
    {
      "inputs": [],
      "name": "owner",
      "outputs": [
        {
          "internalType": "address",
          "name": "",
          "type": "address"
        }
      ],
      "stateMutability": "view",
      "type": "function"
    },
    {
      "inputs": [
        {
          "internalType": "uint256",
          "name": "tokenId",
          "type": "uint256"
        }
      ],
      "name": "ownerOf",
      "outputs": [
        {
          "internalType": "address",
          "name": "",
          "type": "address"
        }
      ],
      "stateMutability": "view",
      "type": "function"
    },
    {
      "inputs": [
        {
          "internalType": "address",
          "name": "_owner",
          "type": "address"
        },
        {
          "internalType": "uint256",
          "name": "_tokenId",
          "type": "uint256"
        }
      ],
      "name": "ownerTokenBalanceOf",
      "outputs": [
        {
          "internalType": "uint256",
          "name": "",
          "type": "uint256"
        }
      ],
      "stateMutability": "view",
      "type": "function"
    },
    {
      "inputs": [
        {
          "components": [
            {
              "internalType": "contract IJBPaymentTerminal",
              "name": "terminal",
              "type": "address"
            },
            {
              "internalType": "address",
              "name": "payer",
              "type": "address"
            },
            {
              "components": [
                {
                  "internalType": "address",
                  "name": "token",
                  "type": "address"
                },
                {
                  "internalType": "uint256",
                  "name": "value",
                  "type": "uint256"
                },
                {
                  "internalType": "uint256",
                  "name": "decimals",
                  "type": "uint256"
                },
                {
                  "internalType": "uint256",
                  "name": "currency",
                  "type": "uint256"
                }
              ],
              "internalType": "struct JBTokenAmount",
              "name": "amount",
              "type": "tuple"
            },
            {
              "internalType": "uint256",
              "name": "projectId",
              "type": "uint256"
            },
            {
              "internalType": "uint256",
              "name": "currentFundingCycleConfiguration",
              "type": "uint256"
            },
            {
              "internalType": "address",
              "name": "beneficiary",
              "type": "address"
            },
            {
              "internalType": "uint256",
              "name": "weight",
              "type": "uint256"
            },
            {
              "internalType": "uint256",
              "name": "reservedRate",
              "type": "uint256"
            },
            {
              "internalType": "string",
              "name": "memo",
              "type": "string"
            },
            {
              "internalType": "bytes",
              "name": "metadata",
              "type": "bytes"
            }
          ],
          "internalType": "struct JBPayParamsData",
          "name": "_data",
          "type": "tuple"
        }
      ],
      "name": "payParams",
      "outputs": [
        {
          "internalType": "uint256",
          "name": "weight",
          "type": "uint256"
        },
        {
          "internalType": "string",
          "name": "memo",
          "type": "string"
        },
        {
          "internalType": "contract IJBPayDelegate",
          "name": "delegate",
          "type": "address"
        }
      ],
      "stateMutability": "view",
      "type": "function"
    },
    {
      "inputs": [],
      "name": "projectId",
      "outputs": [
        {
          "internalType": "uint256",
          "name": "",
          "type": "uint256"
        }
      ],
      "stateMutability": "view",
      "type": "function"
    },
    {
      "inputs": [
        {
          "components": [
            {
              "internalType": "contract IJBPaymentTerminal",
              "name": "terminal",
              "type": "address"
            },
            {
              "internalType": "address",
              "name": "holder",
              "type": "address"
            },
            {
              "internalType": "uint256",
              "name": "projectId",
              "type": "uint256"
            },
            {
              "internalType": "uint256",
              "name": "currentFundingCycleConfiguration",
              "type": "uint256"
            },
            {
              "internalType": "uint256",
              "name": "tokenCount",
              "type": "uint256"
            },
            {
              "internalType": "uint256",
              "name": "totalSupply",
              "type": "uint256"
            },
            {
              "internalType": "uint256",
              "name": "overflow",
              "type": "uint256"
            },
            {
              "components": [
                {
                  "internalType": "address",
                  "name": "token",
                  "type": "address"
                },
                {
                  "internalType": "uint256",
                  "name": "value",
                  "type": "uint256"
                },
                {
                  "internalType": "uint256",
                  "name": "decimals",
                  "type": "uint256"
                },
                {
                  "internalType": "uint256",
                  "name": "currency",
                  "type": "uint256"
                }
              ],
              "internalType": "struct JBTokenAmount",
              "name": "reclaimAmount",
              "type": "tuple"
            },
            {
              "internalType": "bool",
              "name": "useTotalOverflow",
              "type": "bool"
            },
            {
              "internalType": "uint256",
              "name": "redemptionRate",
              "type": "uint256"
            },
            {
              "internalType": "uint256",
              "name": "ballotRedemptionRate",
              "type": "uint256"
            },
            {
              "internalType": "string",
              "name": "memo",
              "type": "string"
            },
            {
              "internalType": "bytes",
              "name": "metadata",
              "type": "bytes"
            }
          ],
          "internalType": "struct JBRedeemParamsData",
          "name": "_data",
          "type": "tuple"
        }
      ],
      "name": "redeemParams",
      "outputs": [
        {
          "internalType": "uint256",
          "name": "reclaimAmount",
          "type": "uint256"
        },
        {
          "internalType": "string",
          "name": "memo",
          "type": "string"
        },
        {
          "internalType": "contract IJBRedemptionDelegate",
          "name": "delegate",
          "type": "address"
        }
      ],
      "stateMutability": "view",
      "type": "function"
    },
    {
      "inputs": [],
      "name": "renounceOwnership",
      "outputs": [],
      "stateMutability": "nonpayable",
      "type": "function"
    },
    {
      "inputs": [
        {
          "internalType": "address",
          "name": "from",
          "type": "address"
        },
        {
          "internalType": "address",
          "name": "to",
          "type": "address"
        },
        {
          "internalType": "uint256",
          "name": "tokenId",
          "type": "uint256"
        }
      ],
      "name": "safeTransferFrom",
      "outputs": [],
      "stateMutability": "nonpayable",
      "type": "function"
    },
    {
      "inputs": [
        {
          "internalType": "address",
          "name": "from",
          "type": "address"
        },
        {
          "internalType": "address",
          "name": "to",
          "type": "address"
        },
        {
          "internalType": "uint256",
          "name": "tokenId",
          "type": "uint256"
        },
        {
          "internalType": "bytes",
          "name": "data",
          "type": "bytes"
        }
      ],
      "name": "safeTransferFrom",
      "outputs": [],
      "stateMutability": "nonpayable",
      "type": "function"
    },
    {
      "inputs": [
        {
          "internalType": "address",
          "name": "operator",
          "type": "address"
        },
        {
          "internalType": "bool",
          "name": "approved",
          "type": "bool"
        }
      ],
      "name": "setApprovalForAll",
      "outputs": [],
      "stateMutability": "nonpayable",
      "type": "function"
    },
    {
      "inputs": [
        {
          "internalType": "string",
          "name": "_contractUri",
          "type": "string"
        }
      ],
      "name": "setContractUri",
      "outputs": [],
      "stateMutability": "nonpayable",
      "type": "function"
    },
    {
      "inputs": [
        {
          "internalType": "address",
          "name": "_beneficiary",
          "type": "address"
        }
      ],
      "name": "setReservedTokenBeneficiary",
      "outputs": [],
      "stateMutability": "nonpayable",
      "type": "function"
    },
    {
      "inputs": [
        {
          "internalType": "contract IJBTokenUriResolver",
          "name": "_tokenUriResolver",
          "type": "address"
        }
      ],
      "name": "setTokenUriResolver",
      "outputs": [],
      "stateMutability": "nonpayable",
      "type": "function"
    },
    {
      "inputs": [],
      "name": "store",
      "outputs": [
        {
          "internalType": "contract IJBTieredLimitedNFTRewardDataSourceStore",
          "name": "",
          "type": "address"
        }
      ],
      "stateMutability": "view",
      "type": "function"
    },
    {
      "inputs": [
        {
          "internalType": "bytes4",
          "name": "_interfaceId",
          "type": "bytes4"
        }
      ],
      "name": "supportsInterface",
      "outputs": [
        {
          "internalType": "bool",
          "name": "",
          "type": "bool"
        }
      ],
      "stateMutability": "view",
      "type": "function"
    },
    {
      "inputs": [],
      "name": "symbol",
      "outputs": [
        {
          "internalType": "string",
          "name": "",
          "type": "string"
        }
      ],
      "stateMutability": "view",
      "type": "function"
    },
    {
      "inputs": [
        {
          "internalType": "uint256",
          "name": "_tokenId",
          "type": "uint256"
        }
      ],
      "name": "tokenSupplyOf",
      "outputs": [
        {
          "internalType": "uint256",
          "name": "",
          "type": "uint256"
        }
      ],
      "stateMutability": "view",
      "type": "function"
    },
    {
      "inputs": [
        {
          "internalType": "uint256",
          "name": "_tokenId",
          "type": "uint256"
        }
      ],
      "name": "tokenURI",
      "outputs": [
        {
          "internalType": "string",
          "name": "",
          "type": "string"
        }
      ],
      "stateMutability": "view",
      "type": "function"
    },
    {
      "inputs": [],
      "name": "tokenUriResolver",
      "outputs": [
        {
          "internalType": "contract IJBTokenUriResolver",
          "name": "",
          "type": "address"
        }
      ],
      "stateMutability": "view",
      "type": "function"
    },
    {
      "inputs": [
        {
          "internalType": "address",
          "name": "_owner",
          "type": "address"
        }
      ],
      "name": "totalOwnerBalanceOf",
      "outputs": [
        {
          "internalType": "uint256",
          "name": "",
          "type": "uint256"
        }
      ],
      "stateMutability": "view",
      "type": "function"
    },
    {
      "inputs": [],
      "name": "totalSupply",
      "outputs": [
        {
          "internalType": "uint256",
          "name": "supply",
          "type": "uint256"
        }
      ],
      "stateMutability": "view",
      "type": "function"
    },
    {
      "inputs": [
        {
          "internalType": "address",
          "name": "from",
          "type": "address"
        },
        {
          "internalType": "address",
          "name": "to",
          "type": "address"
        },
        {
          "internalType": "uint256",
          "name": "tokenId",
          "type": "uint256"
        }
      ],
      "name": "transferFrom",
      "outputs": [],
      "stateMutability": "nonpayable",
      "type": "function"
    },
    {
      "inputs": [
        {
          "internalType": "address",
          "name": "newOwner",
          "type": "address"
        }
      ],
      "name": "transferOwnership",
      "outputs": [],
      "stateMutability": "nonpayable",
      "type": "function"
    }
  ],
  "bytecode": "0x6101a06040523480156200001257600080fd5b5060405162004a7c38038062004a7c833981016040819052620000359162000553565b87604051806040016040528060018152602001603160f81b8152508b8b8b8b8b8b8a8484816000908051906020019062000071929190620002a9565b50805162000087906001906020840190620002a9565b505050620000a46200009e6200025360201b60201c565b62000257565b6080879052606086901b6001600160601b03191660a052600680546001600160a01b0319166001600160a01b0385161790558151620000eb906007906020850190620002a9565b506001600160a01b038116156200010757620001078162000257565b505086516020808901919091208751888301206101208290526101408190524660e0819052604080517f8b73c3c69bb8fe3d512ecc4cf759cc79239f7b179b0ffacaa9a75d522b39400f8187018190528183018690526060820185905260808201939093523060a0808301919091528251808303909101815260c0909101909152805194019390932091975095509093509150620001a29050565b60c0523060601b610100526101605250508551620001ca9250600c91506020870190620002a9565b506001600160601b0319606082901b166101805260405163399716e560e11b81526001600160a01b0382169063732e2dca906200020f9085906001906004016200068b565b600060405180830381600087803b1580156200022a57600080fd5b505af11580156200023f573d6000803e3d6000fd5b5050505050505050505050505050620007fa565b3390565b600580546001600160a01b038381166001600160a01b0319831681179093556040519116919082907f8be0079c531659141344cd1fd0a4f28419497f9722a3daafe3b4186f6b6457e090600090a35050565b828054620002b790620007a7565b90600052602060002090601f016020900481019282620002db576000855562000326565b82601f10620002f657805160ff191683800117855562000326565b8280016001018555821562000326579182015b828111156200032657825182559160200191906001019062000309565b506200033492915062000338565b5090565b5b8082111562000334576000815560010162000339565b80516001600160a01b03811681146200036757600080fd5b919050565b600082601f8301126200037e57600080fd5b815160206001600160401b038211156200039c576200039c620007e4565b620003ac818360051b0162000774565b8281528181019085830160e080860288018501891015620003cc57600080fd5b60005b86811015620004865781838b031215620003e857600080fd5b620003f262000749565b83516001600160501b03811681146200040a57600080fd5b8152620004198488016200053c565b8782015260406200042c8186016200053c565b9082015260606200043f8582016200053c565b9082015260806200045285820162000529565b9082015260a06200046585820162000529565b9082015260c0848101519082015285529385019391810191600101620003cf565b509198975050505050505050565b600082601f830112620004a657600080fd5b81516001600160401b03811115620004c257620004c2620007e4565b6020620004d8601f8301601f1916820162000774565b8281528582848701011115620004ed57600080fd5b60005b838110156200050d578581018301518282018401528201620004f0565b838111156200051f5760008385840101525b5095945050505050565b805161ffff811681146200036757600080fd5b805165ffffffffffff811681146200036757600080fd5b6000806000806000806000806000806101408b8d0312156200057457600080fd5b8a5199506200058660208c016200034f565b60408c01519099506001600160401b0380821115620005a457600080fd5b620005b28e838f0162000494565b995060608d0151915080821115620005c957600080fd5b620005d78e838f0162000494565b9850620005e760808e016200034f565b975060a08d0151915080821115620005fe57600080fd5b6200060c8e838f0162000494565b965060c08d01519150808211156200062357600080fd5b620006318e838f0162000494565b95506200064160e08e016200034f565b94506101008d01519150808211156200065957600080fd5b50620006688d828e016200036c565b9250506200067a6101208c016200034f565b90509295989b9194979a5092959850565b6040808252835182820181905260009190606090818501906020808901865b838110156200072a57815180516001600160501b031686528381015165ffffffffffff908116858801528882015181168988015287820151168787015260808082015161ffff169087015260a0808201516200070b8289018261ffff169052565b505060c0908101519086015260e09094019390820190600101620006aa565b50508295506200073d8188018915159052565b50505050509392505050565b60405160e081016001600160401b03811182821017156200076e576200076e620007e4565b60405290565b604051601f8201601f191681016001600160401b03811182821017156200079f576200079f620007e4565b604052919050565b600181811c90821680620007bc57607f821691505b60208210811415620007de57634e487b7160e01b600052602260045260246000fd5b50919050565b634e487b7160e01b600052604160045260246000fd5b60805160a05160601c60c05160e0516101005160601c6101205161014051610160516101805160601c614167620009156000396000818161041c0152818161073001528181610b7801528181610c0201528181610c9201528181610ddf01528181610f3d01528181610ff101528181611312015281816113a601528181611710015281816119b70152818161252f015281816125f801528181612677015281816127820152818161289801526129b301526000611efb01526000611f4a01526000611f2501526000611e7e01526000611ea801526000611ed20152600081816104c5015281816108030152610a1f01526000818161031001528181610830015281816108b301528181610a4c0152610acf01526141676000f3fe608060405234801561001057600080fd5b50600436106102045760003560e01c806301ffc9a71461020957806306fdde0314610231578063081812fc14610246578063095ea7b3146102665780630c4ace181461027b57806318160ddd1461029c57806323b872dd146102a45780632400e8f7146102b75780632407497e146102ca578063304b1eea146102dd5780633644e515146102f05780633a46b1a8146102f85780633fafa1271461030b57806342012e8a1461033257806342842e0e1461034557806354c6d1f514610358578063587cde1e1461036b5780635c19a95c1461037e5780636352211e1461039157806370a08231146103a4578063715018a6146103b75780637ecebe00146103bf5780638da5cb5b146103d25780638dfc9598146103da5780638e539e8c146103fc57806395d89b411461040f578063975057e7146104175780639ab24eb01461043e5780639abc8320146104515780639b04139f14610459578063a22cb4651461046c578063aa4fb15b1461047f578063b88d4fde14610492578063c0e24d5e146104a5578063c3cda520146104ad578063c41c2f24146104c0578063c87b56dd146104e7578063ccb4807b146104fa578063d46cf1711461050d578063dcdfe0d914610520578063e131fc0c14610533578063e985e9c514610546578063f2fde38b14610559578063fa28c7f51461056c575b600080fd5b61021c610217366004613706565b61057f565b60405190151581526020015b60405180910390f35b6102396105c5565b6040516102289190613ca3565b6102596102543660046139d1565b610657565b6040516102289190613ab3565b610279610274366004613387565b61067e565b005b61028e6102893660046131f7565b61070b565b604051908152602001610228565b61028e610716565b6102796102b236600461326a565b6107ba565b6102796102c5366004613862565b6107ec565b6102796102d83660046131f7565b6109a7565b6102796102eb366004613827565b610a08565b61028e610b20565b61028e610306366004613387565b610b2a565b61028e7f000000000000000000000000000000000000000000000000000000000000000081565b61027961034036600461340d565b610b53565b61027961035336600461326a565b610c72565b6102596103663660046139d1565b610c8d565b6102596103793660046131f7565b610d62565b61027961038c3660046131f7565b610d80565b61025961039f3660046139d1565b610d8f565b61028e6103b23660046131f7565b610dc5565b610279610e66565b61028e6103cd3660046131f7565b610e7a565b610259610e98565b6103ed6103e8366004613996565b610ea7565b60405161022893929190613d9c565b61028e61040a3660046139d1565b61119a565b6102396111f8565b6102597f000000000000000000000000000000000000000000000000000000000000000081565b61028e61044c3660046131f7565b611207565b610239611228565b61028e610467366004613387565b6112b6565b61027961047a366004613359565b6112ed565b61027961048d366004613a03565b6112f8565b6102796104a03660046132ab565b6114c6565b6102396114f9565b6102796104bb3660046133b3565b611506565b6102597f000000000000000000000000000000000000000000000000000000000000000081565b6102396104f53660046139d1565b61162e565b610279610508366004613740565b6117fe565b6103ed61051b36600461395b565b611866565b61028e61052e3660046139d1565b6118c6565b600654610259906001600160a01b031681565b61021c610554366004613231565b6118f4565b6102796105673660046131f7565b611922565b61027961057a3660046131f7565b611998565b60006001600160e01b031982166385360fc360e01b14806105b057506001600160e01b03198216632400e8f760e01b145b806105bf57506105bf82611a57565b92915050565b6060600080546105d490613fbc565b80601f016020809104026020016040519081016040528092919081815260200182805461060090613fbc565b801561064d5780601f106106225761010080835404028352916020019161064d565b820191906000526020600020905b81548152906001019060200180831161063057829003601f168201915b5050505050905090565b600061066282611ab2565b506000908152600360205260409020546001600160a01b031690565b600061068982610d8f565b9050806001600160a01b0316836001600160a01b031614156106be5760405163133f8be960e01b815260040160405180910390fd5b336001600160a01b038216148015906106de57506106dc81336118f4565b155b156106fc5760405163e5fa0e3560e01b815260040160405180910390fd5b6107068383611ad8565b505050565b60006105bf82610dc5565b6040516339370aa960e21b81526000906001600160a01b037f0000000000000000000000000000000000000000000000000000000000000000169063e4dc2aa490610765903090600401613ab3565b60206040518083038186803b15801561077d57600080fd5b505afa158015610791573d6000803e3d6000fd5b505050506040513d601f19601f820116820180604052508101906107b591906139ea565b905090565b6107c43382611b46565b6107e15760405163e5fa0e3560e01b815260040160405180910390fd5b610706838383611ba5565b604051636e49181f60e01b81526001600160a01b037f00000000000000000000000000000000000000000000000000000000000000001690636e49181f9061085a907f0000000000000000000000000000000000000000000000000000000000000000903390600401613d66565b60206040518083038186803b15801561087257600080fd5b505afa158015610886573d6000803e3d6000fd5b505050506040513d601f19601f820116820180604052508101906108aa91906135f6565b15806108da57507f0000000000000000000000000000000000000000000000000000000000000000816020013514155b156108f857604051633efca5c360e11b815260040160405180910390fd5b6000610908610140830183613ddb565b81019061091591906134d4565b80519091506000805b828110156109a05783818151811061093857610938614033565b6020026020010151915084600001602081019061095591906131f7565b6000838152600260205260409020546001600160a01b0390811691161461098f5760405163075fd2b160e01b815260040160405180910390fd5b61099882611c6c565b60010161091e565b5050505050565b6109af611cdb565b600680546001600160a01b0319166001600160a01b0383169081179091556040517fe7784d93cfbfa4408e19577e6cc0436f4dbb51214b70e100905dfce9def88c16906109fd903390613ab3565b60405180910390a250565b604051636e49181f60e01b81526001600160a01b037f00000000000000000000000000000000000000000000000000000000000000001690636e49181f90610a76907f0000000000000000000000000000000000000000000000000000000000000000903390600401613d66565b60206040518083038186803b158015610a8e57600080fd5b505afa158015610aa2573d6000803e3d6000fd5b505050506040513d601f19601f82011682018060405250810190610ac691906135f6565b1580610af657507f0000000000000000000000000000000000000000000000000000000000000000816020013514155b15610b14576040516331c57b1b60e21b815260040160405180910390fd5b610b1d81611d3a565b50565b60006107b5611e71565b6001600160a01b0382166000908152600960205260408120610b4c9083611f98565b9392505050565b610b5b611cdb565b8215610be55760405163399716e560e11b81526001600160a01b037f0000000000000000000000000000000000000000000000000000000000000000169063732e2dca90610bb29087908790600090600401613b8d565b600060405180830381600087803b158015610bcc57600080fd5b505af1158015610be0573d6000803e3d6000fd5b505050505b8015610c6c576040516320512ba160e01b81526001600160a01b037f000000000000000000000000000000000000000000000000000000000000000016906320512ba190610c399085908590600401613c67565b600060405180830381600087803b158015610c5357600080fd5b505af1158015610c67573d6000803e3d6000fd5b505050505b50505050565b610706838383604051806020016040528060008152506114c6565b6000807f00000000000000000000000000000000000000000000000000000000000000006001600160a01b0316638ed6c01030856040518363ffffffff1660e01b8152600401610cde929190613b74565b60206040518083038186803b158015610cf657600080fd5b505afa158015610d0a573d6000803e3d6000fd5b505050506040513d601f19601f82011682018060405250810190610d2e9190613214565b90506001600160a01b03811615610d455792915050565b50506000908152600260205260409020546001600160a01b031690565b6001600160a01b039081166000908152600860205260409020541690565b33610d8b81836120a6565b5050565b6000818152600260205260408120546001600160a01b0316806105bf5760405163b49aa3b560e01b815260040160405180910390fd5b604051633de222bb60e21b81526000906001600160a01b037f0000000000000000000000000000000000000000000000000000000000000000169063f7888aec90610e169030908690600401613ac7565b60206040518083038186803b158015610e2e57600080fd5b505afa158015610e42573d6000803e3d6000fd5b505050506040513d601f19601f820116820180604052508101906105bf91906139ea565b610e6e611cdb565b610e786000612121565b565b6001600160a01b0381166000908152600b60205260408120546105bf565b6005546001600160a01b031690565b6000606081608084013515610ecf57604051637b52876960e01b815260040160405180910390fd5b610180840135610f31576000610ee96101c0860186613ddb565b3082828080601f016020809104026020016040519081016040528093929190818152602001838380828437600092019190915250969950919750919550611193945050505050565b60006001600160a01b037f00000000000000000000000000000000000000000000000000000000000000001663144cc2d430610f716101e0890189613ddb565b810190610f7e91906134d4565b6040518363ffffffff1660e01b8152600401610f9b929190613b1e565b60206040518083038186803b158015610fb357600080fd5b505afa158015610fc7573d6000803e3d6000fd5b505050506040513d601f19601f82011682018060405250810190610feb91906139ea565b905060007f00000000000000000000000000000000000000000000000000000000000000006001600160a01b0316632ae5e492306040518263ffffffff1660e01b815260040161103b9190613ab3565b60206040518083038186803b15801561105357600080fd5b505afa158015611067573d6000803e3d6000fd5b505050506040513d601f19601f8201168201806040525081019061108b91906139ea565b9050600061109e8760c001358484612173565b9050612710876101800135141561110957806110be6101c0890189613ddb565b3082828080601f016020809104026020016040519081016040528093929190818152602001838380828437600092019190915250969c50919a50919850611193975050505050505050565b61113f81611128856111226101808c0135612710613f49565b86612173565b611137906101808b0135613f0f565b612710612173565b61114d6101c0890189613ddb565b3082828080601f016020809104026020016040519081016040528093929190818152602001838380828437600092019190915250969c50919a5091985050505050505050505b9193909250565b60004382106111ed5760405162461bcd60e51b815260206004820152601a602482015279159bdd195cce88189b1bd8dac81b9bdd081e595d081b5a5b995960321b60448201526064015b60405180910390fd5b6105bf600a83611f98565b6060600180546105d490613fbc565b6001600160a01b03811660009081526009602052604081206105bf9061223a565b600c805461123590613fbc565b80601f016020809104026020016040519081016040528092919081815260200182805461126190613fbc565b80156112ae5780601f10611283576101008083540402835291602001916112ae565b820191906000526020600020905b81548152906001019060200180831161129157829003601f168201915b505050505081565b6000826001600160a01b03166112cb83610d8f565b6001600160a01b0316146112e05760006112e3565b60015b60ff169392505050565b610d8b338383612295565b604051635d53f40760e11b81526000906001600160a01b037f0000000000000000000000000000000000000000000000000000000000000000169063baa7e80e906113499086908690600401613dcd565b600060405180830381600087803b15801561136357600080fd5b505af1158015611377573d6000803e3d6000fd5b505050506040513d6000823e601f3d908101601f1916820160405261139f919081019061356b565b90506000807f00000000000000000000000000000000000000000000000000000000000000006001600160a01b0316630cc1b4f2306040518263ffffffff1660e01b81526004016113f09190613ab3565b60206040518083038186803b15801561140857600080fd5b505afa15801561141c573d6000803e3d6000fd5b505050506040513d601f19601f820116820180604052508101906114409190613214565b905060005b848110156114be5783818151811061145f5761145f614033565b602002602001015192506114738284612335565b816001600160a01b031686847f031e1988c95a91ec4d655ff63a8f87a80bc9daf28d95ae10ee08c0022cfb5c8b336040516114ae9190613ab3565b60405180910390a4600101611445565b505050505050565b6114d03383611b46565b6114ed5760405163e5fa0e3560e01b815260040160405180910390fd5b610c6c848484846123de565b6007805461123590613fbc565b834211156115515760405162461bcd60e51b8152602060048201526018602482015277159bdd195cce881cda59db985d1d5c9948195e1c1a5c995960421b60448201526064016111e4565b604080517fe48329057bfd03d55e49b547132e39cffd9c1820ad7b9d4c5307691425d15adf60208201526001600160a01b0388169181019190915260608101869052608081018590526000906115cb906115c39060a00160405160208183030381529060405280519060200120612412565b858585612460565b90506115d681612488565b861461161b5760405162461bcd60e51b8152602060048201526014602482015273566f7465733a20696e76616c6964206e6f6e636560601b60448201526064016111e4565b61162581886120a6565b50505050505050565b6000818152600260205260409020546060906001600160a01b031661166157505060408051602081019091526000815290565b6006546001600160a01b0316156116f257600654604051636d02a25560e11b8152600481018490526001600160a01b039091169063da0544aa9060240160006040518083038186803b1580156116b657600080fd5b505afa1580156116ca573d6000803e3d6000fd5b505050506040513d6000823e601f3d908101601f191682016040526105bf91908101906137b1565b73__$2e464bbf4a8803569df10b07372aceee57$__63030cecc7600c7f00000000000000000000000000000000000000000000000000000000000000006001600160a01b0316637473c9a230876040518363ffffffff1660e01b815260040161175c929190613b74565b6101006040518083038186803b15801561177557600080fd5b505afa158015611789573d6000803e3d6000fd5b505050506040513d601f19601f820116820180604052508101906117ad919061389d565b6020015160c001516040518363ffffffff1660e01b81526004016117d2929190613cb6565b60006040518083038186803b1580156117ea57600080fd5b505af41580156116ca573d6000803e3d6000fd5b611806611cdb565b61181260078383613130565b508181604051611823929190613aa3565b60405180910390207fd36dc0c1a06103fdcaf15f3f6fb797d1a97997514c78de073640c8b5005454b83360405161185a9190613ab3565b60405180910390a25050565b600060608161012084013561187f610160860186613ddb565b3082828080601f016020809104026020016040519081016040528093929190818152602001838380828437600092019190915250969b929a50929850909650505050505050565b6000806118d283610d8f565b6001600160a01b031614156118e85760006118eb565b60015b60ff1692915050565b6001600160a01b03918216600090815260046020908152604080832093909416825291909152205460ff1690565b61192a611cdb565b6001600160a01b03811661198f5760405162461bcd60e51b815260206004820152602660248201527f4f776e61626c653a206e6577206f776e657220697320746865207a65726f206160448201526564647265737360d01b60648201526084016111e4565b610b1d81612121565b6119a0611cdb565b60405163103fdbc960e01b81526001600160a01b037f0000000000000000000000000000000000000000000000000000000000000000169063103fdbc9906119ec908490600401613ab3565b600060405180830381600087803b158015611a0657600080fd5b505af1158015611a1a573d6000803e3d6000fd5b50505050806001600160a01b03167f03cea1b7696d8d5856261834c91e26b430eda5aa7b03a565d2be663df2a0a046336040516109fd9190613ab3565b60006001600160e01b0319821663661527a160e01b1480611a8857506001600160e01b0319821663599064e960e01b145b80611aa357506001600160e01b031982166318258f7560e11b145b806105bf57506105bf826124b0565b611abb81612500565b610b1d5760405163b49aa3b560e01b815260040160405180910390fd5b600081815260036020526040902080546001600160a01b0319166001600160a01b0384169081179091558190611b0d82610d8f565b6001600160a01b03167f8c5be1e5ebec7d5bd14f71427d1e84f3dd0314c0f7b2291e5b200ac8c7c3b92560405160405180910390a45050565b600080611b5283610d8f565b9050806001600160a01b0316846001600160a01b03161480611b795750611b7981856118f4565b80611b9d5750836001600160a01b0316611b9284610657565b6001600160a01b0316145b949350505050565b826001600160a01b0316611bb882610d8f565b6001600160a01b031614611bdf5760405163a195bc5360e01b815260040160405180910390fd5b6001600160a01b038216611c0657604051632c95542760e01b815260040160405180910390fd5b611c1183838361251d565b611c1c600082611ad8565b60008181526002602052604080822080546001600160a01b0319166001600160a01b0386811691821790925591518493918716916000805160206140d283398151915291a461070683838361265d565b6000611c7782610d8f565b9050611c858160008461251d565b611c90600083611ad8565b60008281526002602052604080822080546001600160a01b0319169055518391906001600160a01b038416906000805160206140d2833981519152908390a4610d8b8160008461265d565b33611ce4610e98565b6001600160a01b031614610e785760405162461bcd60e51b815260206004820181905260248201527f4f776e61626c653a2063616c6c6572206973206e6f7420746865206f776e657260448201526064016111e4565b61eeee611d4d60808301606084016131f7565b6001600160a01b031614611d5e5750565b60808101356000806024611d76610160860186613ddb565b9050118015611dba575063661527a160e01b611d96610160860186613ddb565b611da591602491602091613ee5565b611dae91613f60565b6001600160e01b031916145b15611e225760006060611dd1610160870187613ddb565b810190611dde9190613613565b919850965090945092505082159050611df957505050505050565b805115611e1f57611e1c8582611e176101208a016101008b016131f7565b612730565b94505b50505b8215611e4757611e4483611e3e610120870161010088016131f7565b84612863565b92505b808015611e5357508215155b15610c6c57604051631b57826960e21b815260040160405180910390fd5b6000306001600160a01b037f000000000000000000000000000000000000000000000000000000000000000016148015611eca57507f000000000000000000000000000000000000000000000000000000000000000046145b15611ef457507f000000000000000000000000000000000000000000000000000000000000000090565b50604080517f00000000000000000000000000000000000000000000000000000000000000006020808301919091527f0000000000000000000000000000000000000000000000000000000000000000828401527f000000000000000000000000000000000000000000000000000000000000000060608301524660808301523060a0808401919091528351808403909101815260c0909201909252805191012090565b6000438210611fe95760405162461bcd60e51b815260206004820181905260248201527f436865636b706f696e74733a20626c6f636b206e6f7420796574206d696e656460448201526064016111e4565b825460005b8181101561204e576000612002828461297e565b90508486600001828154811061201a5761201a614033565b60009182526020909120015463ffffffff16111561203a57809250612048565b612045816001613f0f565b91505b50611fee565b81156120915784612060600184613f49565b8154811061207057612070614033565b600091825260209091200154600160201b90046001600160e01b0316612094565b60005b6001600160e01b031695945050505050565b60006120b183610d62565b6001600160a01b0384811660008181526008602052604080822080546001600160a01b031916888616908117909155905194955093928516927f3134e8a2e6d97e929a7e54011ea5485d7d196dd5f0ba4d4ef95803e8e3fc257f9190a4610706818361211c86612999565b6129ea565b600580546001600160a01b038381166001600160a01b0319831681179093556040519116919082907f8be0079c531659141344cd1fd0a4f28419497f9722a3daafe3b4186f6b6457e090600090a35050565b6000808060001985870985870292508281108382030391505080600014156121ae578382816121a4576121a4614007565b0492505050610b4c565b8381106121d2578084604051631dcf306360e21b81526004016111e4929190613dcd565b600084868809600260036001881981018916988990049182028318808302840302808302840302808302840302808302840302808302840302918202909203026000889003889004909101858311909403939093029303949094049190911702949350505050565b805460009080156122825782612251600183613f49565b8154811061226157612261614033565b600091825260209091200154600160201b90046001600160e01b0316612285565b60005b6001600160e01b03169392505050565b816001600160a01b0316836001600160a01b031614156122c8576040516306f8139d60e11b815260040160405180910390fd5b6001600160a01b03838116600081815260046020908152604080832094871680845294825291829020805460ff191686151590811790915591519182527f17307eab39ab6107e8899845ad3d59bd9653f200f220920489ca2b5937696c31910160405180910390a3505050565b6001600160a01b03821661235c57604051633904578f60e11b815260040160405180910390fd5b61236581612500565b1561238357604051632eb5f0c360e21b815260040160405180910390fd5b61238f6000838361251d565b60008181526002602052604080822080546001600160a01b0319166001600160a01b03861690811790915590518392906000805160206140d2833981519152908290a4610d8b6000838361265d565b6123e9848484611ba5565b6123f584848484612af1565b610c6c576040516336f57c1b60e11b815260040160405180910390fd5b60006105bf61241f611e71565b8360405161190160f01b6020820152602281018390526042810182905260009060620160405160208183030381529060405280519060200120905092915050565b600080600061247187878787612bfc565b9150915061247e81612cdf565b5095945050505050565b6001600160a01b0381166000908152600b602052604090208054600181018255905b50919050565b60006001600160e01b031982166380ac58cd60e01b14806124e157506001600160e01b03198216635b5e139f60e01b145b806105bf57506301ffc9a760e01b6001600160e01b03198316146105bf565b6000908152600260205260409020546001600160a01b0316151590565b6040516308ed6c0160e41b81526000907f00000000000000000000000000000000000000000000000000000000000000006001600160a01b031690638ed6c0109061256e9030908690600401613b74565b60206040518083038186803b15801561258657600080fd5b505afa15801561259a573d6000803e3d6000fd5b505050506040513d601f19601f820116820180604052508101906125be9190613214565b6001600160a01b03161480156125dc57506001600160a01b03831615155b1561070657604051638cec7d3960e01b81526001600160a01b037f00000000000000000000000000000000000000000000000000000000000000001690638cec7d399061262f9084908790600401613d66565b600060405180830381600087803b15801561264957600080fd5b505af1158015611625573d6000803e3d6000fd5b60405163b67cb04760e01b81526000906001600160a01b037f0000000000000000000000000000000000000000000000000000000000000000169063b67cb047906126ae9030908690600401613b74565b6101006040518083038186803b1580156126c757600080fd5b505afa1580156126db573d6000803e3d6000fd5b505050506040513d601f19601f820116820180604052508101906126ff919061389d565b60208101516080015190915061ffff161561272b5761272b848483602001516080015161ffff16612e95565b610c6c565b81518390600090815b818110156128595785818151811061275357612753614033565b602002602001015160ff16925082600014612851576040516391537c5360e01b81526000906001600160a01b037f000000000000000000000000000000000000000000000000000000000000000016906391537c53906127bb90889088908b90600401613d7d565b6040805180830381600087803b1580156127d457600080fd5b505af11580156127e8573d6000803e3d6000fd5b505050506040513d601f19601f8201168201806040525081019061280c9190613a25565b9550905061281a8682612335565b856001600160a01b031684826000805160206141128339815191528b873360405161284793929190613d7d565b60405180910390a4505b600101612739565b5050509392505050565b60405163d16cbf9360e01b8152600481018490526001600160a01b0383811660248301528215156044830152600091829182917f00000000000000000000000000000000000000000000000000000000000000009091169063d16cbf9390606401606060405180830381600087803b1580156128de57600080fd5b505af11580156128f2573d6000803e3d6000fd5b505050506040513d601f19601f820116820180604052508101906129169190613a49565b945090925090508161292c578592505050610b4c565b6129368583612335565b6001600160a01b038516818360008051602061411283398151915261295b878b613f49565b60003360405161296d93929190613d7d565b60405180910390a450509392505050565b600061298d6002848418613f27565b610b4c90848416613f0f565b604051631266aaaf60e31b81526000906001600160a01b037f00000000000000000000000000000000000000000000000000000000000000001690639335557890610e169030908690600401613ac7565b816001600160a01b0316836001600160a01b031614158015612a0c5750600081115b15610706576001600160a01b03831615612a7f576001600160a01b03831660009081526009602052604081208190612a4790612eee85612efa565b91509150846001600160a01b03166000805160206140f28339815191528383604051612a74929190613dcd565b60405180910390a250505b6001600160a01b03821615610706576001600160a01b03821660009081526009602052604081208190612ab590612f2885612efa565b91509150836001600160a01b03166000805160206140f28339815191528383604051612ae2929190613dcd565b60405180910390a25050505050565b60006001600160a01b0384163b15612bf457604051630a85bd0160e11b81526001600160a01b0385169063150b7a0290612b35903390899088908890600401613ae1565b602060405180830381600087803b158015612b4f57600080fd5b505af1925050508015612b7f575060408051601f3d908101601f19168201909252612b7c91810190613723565b60015b612bda573d808015612bad576040519150601f19603f3d011682016040523d82523d6000602084013e612bb2565b606091505b508051612bd2576040516336f57c1b60e11b815260040160405180910390fd5b805181602001fd5b6001600160e01b031916630a85bd0160e11b149050611b9d565b506001611b9d565b6000806fa2a8918ca85bafe22016d0b997e4df60600160ff1b03831115612c295750600090506003612cd6565b8460ff16601b14158015612c4157508460ff16601c14155b15612c525750600090506004612cd6565b6040805160008082526020820180845289905260ff881692820192909252606081018690526080810185905260019060a0016020604051602081039080840390855afa158015612ca6573d6000803e3d6000fd5b5050604051601f1901519150506001600160a01b038116612ccf57600060019250925050612cd6565b9150600090505b94509492505050565b6000816004811115612cf357612cf361401d565b1415612cfc5750565b6001816004811115612d1057612d1061401d565b1415612d595760405162461bcd60e51b815260206004820152601860248201527745434453413a20696e76616c6964207369676e617475726560401b60448201526064016111e4565b6002816004811115612d6d57612d6d61401d565b1415612dbb5760405162461bcd60e51b815260206004820152601f60248201527f45434453413a20696e76616c6964207369676e6174757265206c656e6774680060448201526064016111e4565b6003816004811115612dcf57612dcf61401d565b1415612e285760405162461bcd60e51b815260206004820152602260248201527f45434453413a20696e76616c6964207369676e6174757265202773272076616c604482015261756560f01b60648201526084016111e4565b6004816004811115612e3c57612e3c61401d565b1415610b1d5760405162461bcd60e51b815260206004820152602260248201527f45434453413a20696e76616c6964207369676e6174757265202776272076616c604482015261756560f01b60648201526084016111e4565b6001600160a01b038316612eb457612eb1600a612f2883612efa565b50505b6001600160a01b038216612ed357612ed0600a612eee83612efa565b50505b610706612edf84610d62565b612ee884610d62565b836129ea565b6000610b4c8284613f49565b600080612f1c85612f17612f0d8861223a565b868863ffffffff16565b612f34565b91509150935093915050565b6000610b4c8284613f0f565b8154600090819081612f458661223a565b9050600082118015612f8357504386612f5f600185613f49565b81548110612f6f57612f6f614033565b60009182526020909120015463ffffffff16145b15612fe357612f918561305e565b86612f9d600185613f49565b81548110612fad57612fad614033565b9060005260206000200160000160046101000a8154816001600160e01b0302191690836001600160e01b03160217905550613050565b856000016040518060400160405280612ffb436130cb565b63ffffffff16815260200161300f8861305e565b6001600160e01b039081169091528254600181018455600093845260209384902083519490930151909116600160201b0263ffffffff909316929092179101555b9250839150505b9250929050565b60006001600160e01b038211156130c75760405162461bcd60e51b815260206004820152602760248201527f53616665436173743a2076616c756520646f65736e27742066697420696e20326044820152663234206269747360c81b60648201526084016111e4565b5090565b600063ffffffff8211156130c75760405162461bcd60e51b815260206004820152602660248201527f53616665436173743a2076616c756520646f65736e27742066697420696e203360448201526532206269747360d01b60648201526084016111e4565b82805461313c90613fbc565b90600052602060002090601f01602090048101928261315e57600085556131a4565b82601f106131775782800160ff198235161785556131a4565b828001600101855582156131a4579182015b828111156131a4578235825591602001919060010190613189565b506130c79291505b808211156130c757600081556001016131ac565b80356131cb81614098565b919050565b80516131cb81614098565b80356131cb816140a8565b803560ff811681146131cb57600080fd5b60006020828403121561320957600080fd5b8135610b4c8161405f565b60006020828403121561322657600080fd5b8151610b4c8161405f565b6000806040838503121561324457600080fd5b823561324f8161405f565b9150602083013561325f8161405f565b809150509250929050565b60008060006060848603121561327f57600080fd5b833561328a8161405f565b9250602084013561329a8161405f565b929592945050506040919091013590565b600080600080608085870312156132c157600080fd5b84356132cc8161405f565b935060208501356132dc8161405f565b92506040850135915060608501356001600160401b038111156132fe57600080fd5b8501601f8101871361330f57600080fd5b803561332261331d82613ebe565b613e6b565b81815288602083850101111561333757600080fd5b8160208401602083013760006020838301015280935050505092959194509250565b6000806040838503121561336c57600080fd5b82356133778161405f565b9150602083013561325f81614074565b6000806040838503121561339a57600080fd5b82356133a58161405f565b946020939093013593505050565b60008060008060008060c087890312156133cc57600080fd5b86356133d78161405f565b955060208701359450604087013593506133f3606088016131e6565b92506080870135915060a087013590509295509295509295565b6000806000806040858703121561342357600080fd5b84356001600160401b038082111561343a57600080fd5b818701915087601f83011261344e57600080fd5b81358181111561345d57600080fd5b88602060e08302850101111561347257600080fd5b60209283019650945090860135908082111561348d57600080fd5b818701915087601f8301126134a157600080fd5b8135818111156134b057600080fd5b8860208260051b85010111156134c557600080fd5b95989497505060200194505050565b600060208083850312156134e757600080fd5b82356001600160401b038111156134fd57600080fd5b8301601f8101851361350e57600080fd5b803561351c61331d82613e9b565b80828252848201915084840188868560051b870101111561353c57600080fd5b600094505b8385101561355f578035835260019490940193918501918501613541565b50979650505050505050565b6000602080838503121561357e57600080fd5b82516001600160401b0381111561359457600080fd5b8301601f810185136135a557600080fd5b80516135b361331d82613e9b565b80828252848201915084840188868560051b87010111156135d357600080fd5b600094505b8385101561355f5780518352600194909401939185019185016135d8565b60006020828403121561360857600080fd5b8151610b4c81614074565b60008060008060008060c0878903121561362c57600080fd5b8635955060208088013561363f81614082565b9550604088013561364f81614074565b9450606088013561365f81614074565b9350608088013561366f81614074565b925060a08801356001600160401b0381111561368a57600080fd5b8801601f81018a1361369b57600080fd5b80356136a961331d82613e9b565b8082825284820191508484018d868560051b87010111156136c957600080fd5b600094505b838510156136f3576136df816131e6565b8352600194909401939185019185016136ce565b5080955050505050509295509295509295565b60006020828403121561371857600080fd5b8135610b4c81614082565b60006020828403121561373557600080fd5b8151610b4c81614082565b6000806020838503121561375357600080fd5b82356001600160401b038082111561376a57600080fd5b818501915085601f83011261377e57600080fd5b81358181111561378d57600080fd5b86602082850101111561379f57600080fd5b60209290920196919550909350505050565b6000602082840312156137c357600080fd5b81516001600160401b038111156137d957600080fd5b8201601f810184136137ea57600080fd5b80516137f861331d82613ebe565b81815285602083850101111561380d57600080fd5b61381e826020830160208601613f90565b95945050505050565b60006020828403121561383957600080fd5b81356001600160401b0381111561384f57600080fd5b82016101808185031215610b4c57600080fd5b60006020828403121561387457600080fd5b81356001600160401b0381111561388a57600080fd5b82016101608185031215610b4c57600080fd5b60008183036101008112156138b157600080fd5b6138b9613e21565b8351815260e0601f19830112156138cf57600080fd5b6138d7613e49565b915060208401516138e7816140bc565b825260408401516138f7816140a8565b6020830152606084015161390a816140a8565b6040830152608084015161391d816140a8565b606083015261392e60a085016131d0565b608083015261393f60c085016131d0565b60a083015260e0939093015160c0820152602083015250919050565b60006020828403121561396d57600080fd5b81356001600160401b0381111561398357600080fd5b82016101a08185031215610b4c57600080fd5b6000602082840312156139a857600080fd5b81356001600160401b038111156139be57600080fd5b82016102008185031215610b4c57600080fd5b6000602082840312156139e357600080fd5b5035919050565b6000602082840312156139fc57600080fd5b5051919050565b60008060408385031215613a1657600080fd5b50508035926020909101359150565b60008060408385031215613a3857600080fd5b505080516020909101519092909150565b600080600060608486031215613a5e57600080fd5b8351925060208401519150604084015190509250925092565b60008151808452613a8f816020860160208601613f90565b601f01601f19169290920160200192915050565b8183823760009101908152919050565b6001600160a01b0391909116815260200190565b6001600160a01b0392831681529116602082015260400190565b6001600160a01b0385811682528416602082015260408101839052608060608201819052600090613b1490830184613a77565b9695505050505050565b6001600160a01b038316815260406020808301829052835191830182905260009184820191906060850190845b81811015613b6757845183529383019391830191600101613b4b565b5090979650505050505050565b6001600160a01b03929092168252602082015260400190565b6040808252818101849052600090606080840187845b88811015613c53578135613bb6816140bc565b6001600160501b03168352602082810135613bd0816140a8565b65ffffffffffff80821683870152878501359250613bed836140a8565b919091168487015250613c018285016131db565b65ffffffffffff16848401526080613c1a8382016131c0565b61ffff169084015260a0613c2f8382016131c0565b61ffff169084015260c0828101359084015260e09283019290910190600101613ba3565b505085151560208601529250611b9d915050565b6020808252810182905260006001600160fb1b03831115613c8757600080fd5b8260051b80856040850137600092016040019182525092915050565b602081526000610b4c6020830184613a77565b60408152600080845481600182811c915080831680613cd657607f831692505b6020808410821415613cf657634e487b7160e01b86526022600452602486fd5b6040880184905260608801828015613d155760018114613d2657613d51565b60ff19871682528282019750613d51565b60008c81526020902060005b87811015613d4b57815484820152908601908401613d32565b83019850505b50509690960196909652509095945050505050565b9182526001600160a01b0316602082015260400190565b92835260208301919091526001600160a01b0316604082015260600190565b838152606060208201526000613db56060830185613a77565b905060018060a01b0383166040830152949350505050565b918252602082015260400190565b6000808335601e19843603018112613df257600080fd5b8301803591506001600160401b03821115613e0c57600080fd5b60200191503681900382131561305757600080fd5b604080519081016001600160401b0381118282101715613e4357613e43614049565b60405290565b60405160e081016001600160401b0381118282101715613e4357613e43614049565b604051601f8201601f191681016001600160401b0381118282101715613e9357613e93614049565b604052919050565b60006001600160401b03821115613eb457613eb4614049565b5060051b60200190565b60006001600160401b03821115613ed757613ed7614049565b50601f01601f191660200190565b60008085851115613ef557600080fd5b83861115613f0257600080fd5b5050820193919092039150565b60008219821115613f2257613f22613ff1565b500190565b600082613f4457634e487b7160e01b600052601260045260246000fd5b500490565b600082821015613f5b57613f5b613ff1565b500390565b6001600160e01b03198135818116916004851015613f885780818660040360031b1b83161692505b505092915050565b60005b83811015613fab578181015183820152602001613f93565b83811115610c6c5750506000910152565b600181811c90821680613fd057607f821691505b602082108114156124aa57634e487b7160e01b600052602260045260246000fd5b634e487b7160e01b600052601160045260246000fd5b634e487b7160e01b600052601260045260246000fd5b634e487b7160e01b600052602160045260246000fd5b634e487b7160e01b600052603260045260246000fd5b634e487b7160e01b600052604160045260246000fd5b6001600160a01b0381168114610b1d57600080fd5b8015158114610b1d57600080fd5b6001600160e01b031981168114610b1d57600080fd5b61ffff81168114610b1d57600080fd5b65ffffffffffff81168114610b1d57600080fd5b6001600160501b0381168114610b1d57600080fdfeddf252ad1be2c89b69c2b068fc378daa952ba7f163c4a11628f55a4df523b3efdec2bacdd2f05b59de34da9b523dff8be42e5e38e818c82fdb0bae774387a724e1f4f07fba2f97b5763d2bcafd46bf61f28491b066928954b0b817ce06ff1e9ea26469706673582212200c8b860aa63266837d10d25390c0e8c09d606fc5b100cf0b205d9d9b54e15a4664736f6c63430008060033",
  "linkReferences": {
    "contracts/libraries/JBIpfsDecoder.sol": {
      "JBIpfsDecoder": [
        {
          "length": 20,
          "start": 8201
        }
      ]
    }
  },
  "deployedLinkReferences": {
    "contracts/libraries/JBIpfsDecoder.sol": {
      "JBIpfsDecoder": [
        {
          "length": 20,
          "start": 5876
        }
      ]
    }
  }
}