{
  "abi": [
    {
      "inputs": [],
      "name": "BURN",
      "outputs": [
        {
          "internalType": "uint256",
          "name": "",
          "type": "uint256"
        }
      ],
      "stateMutability": "view",
      "type": "function"
    },
    {
      "inputs": [],
      "name": "CHANGE_TOKEN",
      "outputs": [
        {
          "internalType": "uint256",
          "name": "",
          "type": "uint256"
        }
      ],
      "stateMutability": "view",
      "type": "function"
    },
    {
      "inputs": [],
      "name": "CLAIM",
      "outputs": [
        {
          "internalType": "uint256",
          "name": "",
          "type": "uint256"
        }
      ],
      "stateMutability": "view",
      "type": "function"
    },
    {
      "inputs": [],
      "name": "ISSUE",
      "outputs": [
        {
          "internalType": "uint256",
          "name": "",
          "type": "uint256"
        }
      ],
      "stateMutability": "view",
      "type": "function"
    },
    {
      "inputs": [],
      "name": "MIGRATE_CONTROLLER",
      "outputs": [
        {
          "internalType": "uint256",
          "name": "",
          "type": "uint256"
        }
      ],
      "stateMutability": "view",
      "type": "function"
    },
    {
      "inputs": [],
      "name": "MIGRATE_TERMINAL",
      "outputs": [
        {
          "internalType": "uint256",
          "name": "",
          "type": "uint256"
        }
      ],
      "stateMutability": "view",
      "type": "function"
    },
    {
      "inputs": [],
      "name": "MINT",
      "outputs": [
        {
          "internalType": "uint256",
          "name": "",
          "type": "uint256"
        }
      ],
      "stateMutability": "view",
      "type": "function"
    },
    {
      "inputs": [],
      "name": "PROCESS_FEES",
      "outputs": [
        {
          "internalType": "uint256",
          "name": "",
          "type": "uint256"
        }
      ],
      "stateMutability": "view",
      "type": "function"
    },
    {
      "inputs": [],
      "name": "RECONFIGURE",
      "outputs": [
        {
          "internalType": "uint256",
          "name": "",
          "type": "uint256"
        }
      ],
      "stateMutability": "view",
      "type": "function"
    },
    {
      "inputs": [],
      "name": "REDEEM",
      "outputs": [
        {
          "internalType": "uint256",
          "name": "",
          "type": "uint256"
        }
      ],
      "stateMutability": "view",
      "type": "function"
    },
    {
      "inputs": [],
      "name": "REQUIRE_CLAIM",
      "outputs": [
        {
          "internalType": "uint256",
          "name": "",
          "type": "uint256"
        }
      ],
      "stateMutability": "view",
      "type": "function"
    },
    {
      "inputs": [],
      "name": "SET_CONTROLLER",
      "outputs": [
        {
          "internalType": "uint256",
          "name": "",
          "type": "uint256"
        }
      ],
      "stateMutability": "view",
      "type": "function"
    },
    {
      "inputs": [],
      "name": "SET_METADATA",
      "outputs": [
        {
          "internalType": "uint256",
          "name": "",
          "type": "uint256"
        }
      ],
      "stateMutability": "view",
      "type": "function"
    },
    {
      "inputs": [],
      "name": "SET_PRIMARY_TERMINAL",
      "outputs": [
        {
          "internalType": "uint256",
          "name": "",
          "type": "uint256"
        }
      ],
      "stateMutability": "view",
      "type": "function"
    },
    {
      "inputs": [],
      "name": "SET_SPLITS",
      "outputs": [
        {
          "internalType": "uint256",
          "name": "",
          "type": "uint256"
        }
      ],
      "stateMutability": "view",
      "type": "function"
    },
    {
      "inputs": [],
      "name": "SET_TERMINALS",
      "outputs": [
        {
          "internalType": "uint256",
          "name": "",
          "type": "uint256"
        }
      ],
      "stateMutability": "view",
      "type": "function"
    },
    {
      "inputs": [],
      "name": "TRANSFER",
      "outputs": [
        {
          "internalType": "uint256",
          "name": "",
          "type": "uint256"
        }
      ],
      "stateMutability": "view",
      "type": "function"
    },
    {
      "inputs": [],
      "name": "USE_ALLOWANCE",
      "outputs": [
        {
          "internalType": "uint256",
          "name": "",
          "type": "uint256"
        }
      ],
      "stateMutability": "view",
      "type": "function"
    }
  ],
  "bytecode": {
    "object": "0x6101fd61003a600b82828239805160001a60731461002d57634e487b7160e01b600052600060045260246000fd5b30600052607381538281f3fe73000000000000000000000000000000000000000030146080604052600436106101205760003560e01c80639694c99a116100ac578063b56dcf9e1161007b578063b56dcf9e1461019f578063c0a2526c146101a7578063c577af30146101af578063ef1b4f3b146101b7578063f5edee14146101bf57600080fd5b80639694c99a1461017f578063a264ed7814610187578063aae781031461018f578063af0c22a01461019757600080fd5b80636fe7cac6116100f35780636fe7cac61461015757806373b6dec61461015f57806373d7487614610167578063757616e11461016f57806376420e1d1461017757600080fd5b80631d4b9a431461012557806332235cdf1461013f5780633e36f4c7146101475780636c1943be1461014f575b600080fd5b61012d600181565b60405190815260200160405180910390f35b61012d600781565b61012d600981565b61012d600f81565b61012d600881565b61012d601181565b61012d600b81565b61012d600d81565b61012d600c81565b61012d600581565b61012d600381565b61012d601081565b61012d600681565b61012d600481565b61012d600a81565b61012d600281565b61012d601281565b61012d600e8156fea264697066735822122094e40c3e2748a68bfe7fbe48e77c6cc35a2022be4603a62b6e58e60dbf81fef864736f6c63430008060033",
    "linkReferences": {}
  },
  "methodIdentifiers": {
    "BURN()": "c0a2526c",
    "CHANGE_TOKEN()": "6fe7cac6",
    "CLAIM()": "73d74876",
    "ISSUE()": "32235cdf",
    "MIGRATE_CONTROLLER()": "a264ed78",
    "MIGRATE_TERMINAL()": "b56dcf9e",
    "MINT()": "3e36f4c7",
    "PROCESS_FEES()": "9694c99a",
    "RECONFIGURE()": "1d4b9a43",
    "REDEEM()": "c577af30",
    "REQUIRE_CLAIM()": "757616e1",
    "SET_CONTROLLER()": "f5edee14",
    "SET_METADATA()": "af0c22a0",
    "SET_PRIMARY_TERMINAL()": "aae78103",
    "SET_SPLITS()": "ef1b4f3b",
    "SET_TERMINALS()": "6c1943be",
    "TRANSFER()": "76420e1d",
    "USE_ALLOWANCE()": "73b6dec6"
  },
  "id": 82
}